0000147602043799295000110ALTAMIRA INDUSTRIA METALURGICA LT       202000000040720121101162427             2                                                                                                  000000000000000                                                                                                                                                                                                                                                                                   000001
12043799295000110ALTAMIRA INDUSTRIA METAL LTDA                                         0000000074500090 0000021421935  I000000000010119000000000000000               201211010000000000000000000000000000000000000000500000000000000000000000000000000000050000000003  0820121101   01HF        5001621000000004425586000000000000000                                               3D0000000101                               03                                 S                     01133 10020256        000002
12043799295000110ALTAMIRA INDUSTRIA METAL LTDA                                         0000000039900198 000000000096330I000000000010120000000000000000               201211010000000000000000000000000000000000000001200000000000000000000000000000000000050000000004  0820121101   01HF        5001621000000003925586000000000000000                                               3D0000000101                               04                                 S                     01133 10020256        000003
900000400000000001700000                                                                                                                                                                                    000000000000000                                                                                                                                                                                                                                                    00000200000000000000000        000004
