0000147602043799295000110ALTAMIRA INDUSTRIA METALURGICA LT       202000000009720121101023044             1                                                                                                  000000000000000                                                                                                                                                                                                                                                                                   000001
12057029431000106ATLAS COPCO BRASIL LTDA                                               0000000034100000000000000000000000000000861960280000002283943487000054090     201209062012080900000000000000000059490000000000061596000000000000000000000000004212050000000000003020121030   02JB        2000000                                                                             3112283943481293804111400069                                                  N                     01130 10020256        000002
12057029431000106ATLAS COPCO BRASIL LTDA                                               0000000034100000000000000000000000000000863731640000002292733057000054146     201209072012081000000000000000000081450000000000084312000000000000000000000000005562050000000000003020121030   02JB        2000000                                                                             3112292733055293804111400099                                                  N                     01130 10020256        000003
12002503185000182ANDAIMES MAQUINAS BIG LTDA EPP                                        0000000034100000000000000000000000000000874070480000002313590765101           201209142012082000000000000000000016500000000000017336000000000000000000000000001342050000000000003020121030   02JB        2000000                                                                             3112313590765650303800900019                                                  N                     01130 10020256        000004
900000500000000000163244                                                                                                                                                                                    000000000000000                                                                                                                                                                                                                                                    00000300000000000157440        000005
