0000147602043799295000110ALTAMIRA INDUSTRIA METALURGICA LT       202000000015920121101055739             1                                                                                                                                                                                                                                                                                                                                                                                                    000001
12001895314000162COLETA INDUSTRIAL FIMAVAN LTDA                                        0000000034100000000000000000000000000000866992070000009002335349439           201208272012081700000000054380000123695000000000147883000000000000000000000000024188050000000000  3020121101   01          2                                                                                   3109002335346144604097200019                                                  N                     01321  0000000        000002
12001895314000162COLETA INDUSTRIAL FIMAVAN LTDA                                        00000000341000000000000000000000000000009032787100000090023540111403          201210272012101700000000054990000140379000000000145057000000000000000000000000004678050000000000  3020121101   01          2                                                                                   3109002354016144604097200019                                                  N                     01321  0000000        000003
12002583013000166ITAN TRANSP DE CARGAS EXC E IN                                        000000003410000000000000000000000000000088350836000000239377422008 B          201210212012091400000000054930000192500000000000200970000000000000000000000000008470050000000000  3020121101   01          2                                                                                   3112393774222005770252400039                                                  N                     01321  0000000        000004
12003489596000123BEND FLEX I COMERCIO LTDA                                             000000003410000000000000000000000000000088350832000000171879874608            201209122012082100000000054540000695250000000000763600000000000000000000000000068350050000000000  3020121101   01          2                                                                                   3191718798744157734445800069                                                  N                     01321  0000000        000005
12003489596000123BEND FLEX I COMERCIO LTDA                                             000000003410000000000000000000000000000088599899000000171434574613            201209172012081600000000054590000585000000000000636795000000000000000000000000051795050000000000  3020121101   01          2                                                                                   3191714345748157734445800019                                                  N                     01321  0000000        000006
12005335228000156DINAMICA INF E TELECOM LTDA EP                                        0000000023703257300000000503215 0000000090244992009032570017602MO009089A      201210302012101600000000055020000020000000000000020134000000000000000000000000000134050000000000  3020121101   01          2  RUA JUNO  533                                                                    3                         000000000000000                                     N                     00598  0000000        000007
12005852768000107DAOUD LEAL ELETRONICA LTDA ME                                         000000003410000000000000000000000000000089337382000000615297518OUTUBRO        201210262012100200000000054980000016558000000000017087000000000000000000000000000529050000000000  3020121101   01          2                                                                                   3156152975181152944476000059                                                  N                     01321  0000000        000008
12005880850000145NEDERMAN BRASIL COM PROD EX LT                                        000000003410000000000000000000000000000086373178000000614350956002763 A       201209252012081400000000054670000289674000000000310764000000000000000000000000021090050000000000  3020121101   01          2                                                                                   3156143509568160829000100049                                                  N                     01321  0000000        000009
12006000195000156MBA MERCANTIL BRAS DE ACO LTDA                                        0000000034100000000000000000000000000000904173140000001667238290008874B03     201210112012071600000000054830000802825000000000835984000000000000000000000000033159050000000000  3020121101   01          2                                                                                   3191667238296064849251000069                                                  N                     01321  0000000        000010
12006000195000156MBA MERCANTIL BRAS DE ACO LTDA                                        0000000034100000000000000000000000000000885998980000001667238420008870B02     201209112012071600000000054530000839952000000000924204000000000000000000000000084252050000000000  3020121101   01          2                                                                                   3191667238429064849251000039                                                  N                     01321  0000000        000011
12006000195000156MBA MERCANTIL BRAS DE ACO LTDA                                        0000000034100000000000000000000000000000904173150000001667238300008870B03     201210092012071600000000054810000839951000000000877947000000000000000000000000037996050000000000  3020121101   01          2                                                                                   3191667238304064849251000039                                                  N                     01321  0000000        000012
12006000195000156MBA MERCANTIL BRAS DE ACO LTDA                                        0000000034100000000000000000000000000000904173160000001667238280008876B03     201210122012071600000000054840000810320000000000842200000000000000000000000000031880050000000000  3020121101   01          2                                                                                   3191667238288064849251000079                                                  N                     01321  0000000        000013
12006000195000156MBA MERCANTIL BRAS DE ACO LTDA                                        0000000034100000000000000000000000000000889578520000001671394540008920B02     201209162012071700000000054580000576585000000000628749000000000000000000000000052164050000000000  3020121101   01          2                                                                                   3191671394549064849251000099                                                  N                     01321  0000000        000014
12006000195000156MBA MERCANTIL BRAS DE ACO LTDA                                        0000000034100000000000000000000000000000904173170000001671394420008925B03     201210122012071700000000054840000719580000000000747880000000000000000000000000028300050000000000  3020121101   01          2                                                                                   3191671394424064849251000069                                                  N                     01321  0000000        000015
12006000195000156MBA MERCANTIL BRAS DE ACO LTDA                                        0000000034100000000000000000000000000000904173180000001671394430008926B03     201210122012071700000000054840000387716000000000402976000000000000000000000000015260050000000000  3020121101   01          2                                                                                   3191671394432064849251000079                                                  N                     01321  0000000        000016
12006000195000156MBA MERCANTIL BRAS DE ACO LTDA                                        0000000034100000000000000000000000000000906662670000001671394410008920B03     201210142012071700000000054860000576584000000000596996000000000000000000000000020412050000000000  3020121101   01          2                                                                                   3191671394416064849251000039                                                  N                     01321  0000000        000017
12006000195000156MBA MERCANTIL BRAS DE ACO LTDA                                        0000000034100000000000000000000000000000887698100000001671394560008926B02     201209142012071700000000054560000387716000000000424340000000000000000000000000036624050000000000  3020121101   01          2                                                                                   3191671394564064849251000019                                                  N                     01321  0000000        000018
12006000195000156MBA MERCANTIL BRAS DE ACO LTDA                                        0000000034100000000000000000000000000000887698090000001671394550008925B02     201209142012071700000000054560000719581000000000787501000000000000000000000000067920050000000000  3020121101   01          2                                                                                   3191671394556064849251000089                                                  N                     01321  0000000        000019
12006000195000156M B A MERCANTIL BRASILEIRA DE                                         0000000023700118P00000002130599 00000000853155000020220900000460008967B03     201210182012072400000000054900000135605000000000138769000000000000000000000000003164050000000000  3020121101   01          2  RUA JUNO  533                                                                    3                         000000000000000                                     N                     00598  0000000        000020
12006000195000156M B A MERCANTIL BRASILEIRA DE                                         0000000023700118P00000002130599 00000000853155030020220900000530008971B03     201210162012072400000000054880000170465000000000175009000000000000000000000000004544050000000000  3020121101   01          2  RUA JUNO  533                                                                    3                         000000000000000                                     N                     00598  0000000        000021
12006000195000156M B A MERCANTIL BRASILEIRA DE                                         0000000023700118P00000002130599 00000000853155060020220900000660008985B03     201210172012072500000000054890000141846000000000145386000000000000000000000000003540050000000000  3020121101   01          2  RUA JUNO  533                                                                    3                         000000000000000                                     N                     00598  0000000        000022
12006000195000156M B A MERCANTIL BRASILEIRA DE                                         0000000023700118P00000002130599 00000000853155090020220900000690008986B03     201210172012072500000000054890000126718000000000129883000000000000000000000000003165050000000000  3020121101   01          2  RUA JUNO  533                                                                    3                         000000000000000                                     N                     00598  0000000        000023
12006000195000156M B A MERCANTIL BRASILEIRA DE                                         0000000023700118P00000002130599 00000000853155120020220900000720008987B03     201210182012072500000000054900000188368000000000192764000000000000000000000000004396050000000000  3020121101   01          2  RUA JUNO  533                                                                    3                         000000000000000                                     N                     00598  0000000        000024
12006000195000156M B A MERCANTIL BRASILEIRA DE                                         0000000023700118P00000002130599 00000000865388260020222900000470009204B02     201210112012081500000000054830000127292000000000131744000000000000000000000000004452050000000000  3020121101   01          2  RUA JUNO  533                                                                    3                         000000000000000                                     N                     00598  0000000        000025
12006000195000156M B A MERCANTIL BRASILEIRA DE                                         0000000023700118P00000002130599 00000000865388290020222900000500009205B02     201210122012081500000000054840000348964000000000360604000000000000000000000000011640050000000000  3020121101   01          2  RUA JUNO  533                                                                    3                         000000000000000                                     N                     00598  0000000        000026
12006000195000156M B A MERCANTIL BRASILEIRA DE                                         0000000023700118P00000002130599 00000000865388320020222900000530009206B02     201210132012081500000000054850000527560000000000544261000000000000000000000000016701050000000000  3020121101   01          2  RUA JUNO  533                                                                    3                         000000000000000                                     N                     00598  0000000        000027
12006000195000156M B A MERCANTIL BRASILEIRA DE                                         0000000023700118P00000002130599 00000000848180770020220100000340008905B03     201210112012071900000000054830000155300000000000160739000000000000000000000000005439050000000000  3020121101   01          2  RUA JUNO  533                                                                    3                         000000000000000                                     N                     00598  0000000        000028
12006000195000156M B A MERCANTIL BRASILEIRA DE                                         0000000023700118P00000002130599 00000000868592690020223600000020009229B02     201210112012081600000000054830000253414000000000262276000000000000000000000000008862050000000000  3020121101   01          2  RUA JUNO  533                                                                    3                         000000000000000                                     N                     00598  0000000        000029
12006000195000156MBA MERCANTIL BRAS DE ACO LTDA                                        0000000034100000000000000000000000000000872952850000002358952090009373B02     201210242012082900000000054960000142175000000000142175000000000000000000000000000000050000000000  3020121024   05          3                                                                                   3112358952094064899001800049                                                  N                     01321  0000000        000030
12006000195000156MBA MERCANTIL BRAS DE ACO LTDA                                        0000000034100000000000000000000000000000872952870000002358952300009401B03     201212282012083000000000055610000254800000000000254800000000000000000000000000000000050000000000  3020121228   01          2                                                                                   3112358952300064899001800069                                                  N                     01321  0000000        000031
12006000195000156MBA MERCANTIL BRAS DE ACO LTDA                                        0000000034100000000000000000000000000000894344050000002451556740009737B01     201212082012092800000000055410000311139000000000311139000000000000000000000000000000050000000000  3020121210   01          2                                                                                   3112451556743064899001800019                                                  N                     01321  0000000        000032
12006000195000156MBA MERCANTIL BRAS DE ACO LTDA                                        0000000034100000000000000000000000000000872952890000002358952100009373B03     201212272012082900000000055600000142175000000000142175000000000000000000000000000000050000000000  3020121227   01          2                                                                                   3112358952102064899001800019                                                  N                     01321  0000000        000033
12006000195000156MBA MERCANTIL BRAS DE ACO LTDA                                        0000000034100000000000000000000000000000872952910000002358952130009374B03     201212272012082900000000055600000727811000000000727811000000000000000000000000000000050000000000  3020121227   01          2                                                                                   3112358952136064899001800079                                                  N                     01321  0000000        000034
12006000195000156MBA MERCANTIL BRAS DE ACO LTDA                                        0000000034100000000000000000000000000000872952930000002358952480009420B03     201212292012083100000000055620000953213000000000953213000000000000000000000000000000050000000000  3020121231   01          2                                                                                   3112358952482064899001800029                                                  N                     01321  0000000        000035
12006000195000156MBA MERCANTIL BRAS DE ACO LTDA                                        0000000034100000000000000000000000000000884432490000002398047570009473B03     201301042012090500000000055680000503132000000000503132000000000000000000000000000000050000000000  3020130104   01          2                                                                                   3112398047574064899001800079                                                  N                     01321  0000000        000036
12006000195000156MBA MERCANTIL BRAS DE ACO LTDA                                        0000000034100000000000000000000000000000884432510000002398047540009460B03     201301042012090500000000055680000130438000000000130438000000000000000000000000000000050000000000  3020130104   01          2                                                                                   3112398047541064899001800049                                                  N                     01321  0000000        000037
12006000195000156MBA MERCANTIL BRAS DE ACO LTDA                                        0000000034100000000000000000000000000000884432530000002398047630009492B03     201301082012091000000000055720000529375000000000529375000000000000000000000000000000050000000000  3020130108   01          2                                                                                   3112398047632064899001800059                                                  N                     01321  0000000        000038
12006000195000156MBA MERCANTIL BRAS DE ACO LTDA                                        0000000034100000000000000000000000000000884432560000002398047680009506B02     201212122012091100000000055450000907645000000000907645000000000000000000000000000000050000000000  3020121212   01          2                                                                                   3112398047681064899001800019                                                  N                     01321  0000000        000039
12006000195000156MBA MERCANTIL BRAS DE ACO LTDA                                        0000000034100000000000000000000000000000884432570000002398047600009475B03     201301042012090500000000055680000124131000000000124131000000000000000000000000000000050000000000  3020130104   01          2                                                                                   3112398047608064899001800089                                                  N                     01321  0000000        000040
12006000195000156MBA MERCANTIL BRAS DE ACO LTDA                                        0000000034100000000000000000000000000000884432580000002398047690009506B03     201301092012091100000000055730000907644000000000907644000000000000000000000000000000050000000000  3020130109   01          2                                                                                   3112398047699064899001800079                                                  N                     01321  0000000        000041
12006000195000156MBA MERCANTIL BRAS DE ACO LTDA                                        0000000034100000000000000000000000000000884432600000002398047620009492B02     201212112012091000000000055440000529375000000000529375000000000000000000000000000000050000000000  3020121211   01          2                                                                                   3112398047624064899001800079                                                  N                     01321  0000000        000042
12006000195000156MBA MERCANTIL BRAS DE ACO LTDA                                        0000000034100000000000000000000000000000884432610000002398047850009535B03     201301102012091200000000055740000155122000000000155122000000000000000000000000000000050000000000  3020130110   01          2                                                                                   3112398047855064899001800039                                                  N                     01321  0000000        000043
12006000195000156MBA MERCANTIL BRAS DE ACO LTDA                                        0000000034100000000000000000000000000000884432630000002398047810009534B02     201212132012091200000000055460000396235000000000396235000000000000000000000000000000050000000000  3020121213   01          2                                                                                   3112398047814064899001800049                                                  N                     01321  0000000        000044
12006000195000156MBA MERCANTIL BRAS DE ACO LTDA                                        0000000034100000000000000000000000000000884432640000002398047820009534B03     201301102012091200000000055740000396234000000000396234000000000000000000000000000000050000000000  3020130110   01          2                                                                                   3112398047822064899001800059                                                  N                     01321  0000000        000045
12006000195000156MBA MERCANTIL BRAS DE ACO LTDA                                        0000000034100000000000000000000000000000894344060000002451556750009737B02     201301062012092800000000055700000311139000000000311139000000000000000000000000000000050000000000  3020130107   01          2                                                                                   3112451556750064899001800019                                                  N                     01321  0000000        000046
12006000195000156MBA MERCANTIL BRAS DE ACO LTDA                                        0000000034100000000000000000000000000000894344080000002451556760009737B03     201302022012092800000000055970000311139000000000311139000000000000000000000000000000050000000000  3020130204   01          2                                                                                   3112451556768064899001800099                                                  N                     01321  0000000        000047
12006000195000156MBA MERCANTIL BRAS DE ACO LTDA                                        0000000034100000000000000000000000000000894344090000002451556720009736B02     201301052012092800000000055690000409118000000000409118000000000000000000000000000000050000000000  3020130107   01          2                                                                                   3112451556727064899001800079                                                  N                     01321  0000000        000048
12006000195000156MBA MERCANTIL BRAS DE ACO LTDA                                        0000000034100000000000000000000000000000894344110000002451556070009670B03     201301232012092500000000055870000822316000000000822316000000000000000000000000000000050000000000  3020130123   01          2                                                                                   3112451556073064899001800049                                                  N                     01321  0000000        000049
12006000195000156MBA MERCANTIL BRAS DE ACO LTDA                                        0000000034100000000000000000000000000000894344130000002451556090009671B02     201212272012092500000000055600000980767000000000980767000000000000000000000000000000050000000000  3020121227   01          2                                                                                   3112451556099064899001800019                                                  N                     01321  0000000        000050
12006000195000156MBA MERCANTIL BRAS DE ACO LTDA                                        0000000034100000000000000000000000000000894344150000002451556060009670B02     201212262012092500000000055590000822316000000000822316000000000000000000000000000000050000000000  3020121226   01          2                                                                                   3112451556065064899001800069                                                  N                     01321  0000000        000051
12006000195000156MBA MERCANTIL BRAS DE ACO LTDA                                        0000000034100000000000000000000000000000894344160000002451556100009671B03     201301242012092500000000055880000980766000000000980766000000000000000000000000000000050000000000  3020130124   01          2                                                                                   3112451556107064899001800069                                                  N                     01321  0000000        000052
12006000195000156MBA MERCANTIL BRAS DE ACO LTDA                                        0000000034100000000000000000000000000000894344190000002451556250009697B02     201212282012092700000000055610000392040000000000392040000000000000000000000000000000050000000000  3020121228   01          2                                                                                   3112451556255064899001800099                                                  N                     01321  0000000        000053
12006000195000156MBA MERCANTIL BRAS DE ACO LTDA                                        0000000034100000000000000000000000000000894344200000002451556260009697B03     201301252012092700000000055890000392040000000000392040000000000000000000000000000000050000000000  3020130125   01          2                                                                                   3112451556263064899001800079                                                  N                     01321  0000000        000054
12006000195000156MBA MERCANTIL BRAS DE ACO LTDA                                        0000000034100000000000000000000000000000900522760000002479124020009784B02     201301052012100400000000055690000785343000000000785343000000000000000000000000000000050000000000  3020130107   01          2                                                                                   3112479124029064899001800039                                                  N                     01321  0000000        000055
12006000195000156MBA MERCANTIL BRAS DE ACO LTDA                                        0000000034100000000000000000000000000000900522770000002479124240009815B02     201301082012100800000000055720000680988000000000680988000000000000000000000000000000050000000000  3020130108   01          2                                                                                   3112479124243064899001800069                                                  N                     01321  0000000        000056
12006000195000156MBA MERCANTIL BRAS DE ACO LTDA                                        0000000034100000000000000000000000000000900522780000002479124030009784B03     201302012012100400000000055960000785343000000000785343000000000000000000000000000000050000000000  3020130201   01          2                                                                                   3112479124037064899001800069                                                  N                     01321  0000000        000057
12006000195000156MBA MERCANTIL BRAS DE ACO LTDA                                        0000000034100000000000000000000000000000900522790000002479124230009815B01     201212112012100800000000055440000783136000000000783136000000000000000000000000000000050000000000  3020121211   01          2                                                                                   3112479124235064899001800049                                                  N                     01321  0000000        000058
12006000195000156MBA MERCANTIL BRAS DE ACO LTDA                                        0000000034100000000000000000000000000000900522810000002479124390009839B03     201302052012100900000000056000001220055000000001220055000000000000000000000000000000050000000000  3020130205   01          2                                                                                   3112479124391064899001800049                                                  N                     01321  0000000        000059
12006000195000156MBA MERCANTIL BRAS DE ACO LTDA                                        0000000034100000000000000000000000000000900522820000002479124330009825B02     201301092012100900000000055730000356580000000000356580000000000000000000000000000000050000000000  3020130109   01          2                                                                                   3112479124334064899001800029                                                  N                     01321  0000000        000060
12006000195000156MBA MERCANTIL BRAS DE ACO LTDA                                        0000000034100000000000000000000000000000900522830000002479124340009825B03     201302052012100900000000056000000356580000000000356580000000000000000000000000000000050000000000  3020130205   01          2                                                                                   3112479124342064899001800039                                                  N                     01321  0000000        000061
12006000195000156MBA MERCANTIL BRAS DE ACO LTDA                                        0000000034100000000000000000000000000000900522840000002479124370009839B01     201212122012100900000000055450001403064000000001403064000000000000000000000000000000050000000000  3020121212   01          2                                                                                   3112479124375064899001800069                                                  N                     01321  0000000        000062
12006000195000156MBA MERCANTIL BRAS DE ACO LTDA                                        0000000034100000000000000000000000000000900522850000002479124250009815B03     201302042012100800000000055990000680989000000000680989000000000000000000000000000000050000000000  3020130204   01          2                                                                                   3112479124250064899001800029                                                  N                     01321  0000000        000063
12006000195000156MBA MERCANTIL BRAS DE ACO LTDA                                        0000000034100000000000000000000000000000900522860000002479124380009839B02     201301092012100900000000055730001220055000000001220055000000000000000000000000000000050000000000  3020130109   01          2                                                                                   3112479124383064899001800039                                                  N                     01321  0000000        000064
12006000195000156MBA MERCANTIL BRAS DE ACO LTDA                                        0000000034100000000000000000000000000000900522870000002479124320009825B01     201212122012100900000000055450000410067000000000410067000000000000000000000000000000050000000000  3020121212   01          2                                                                                   3112479124326064899001800069                                                  N                     01321  0000000        000065
12006000195000156MBA MERCANTIL BRAS DE ACO LTDA                                        0000000034100000000000000000000000000000906662490000002513141530009951B01     201212222012101800000000055550000219540000000000219540000000000000000000000000000000050000000000  3020121224   01          2                                                                                   3112513141534064899001800029                                                  N                     01321  0000000        000066
12006000195000156MBA MERCANTIL BRAS DE ACO LTDA                                        0000000034100000000000000000000000000000906662500000002513141500009950B01     201212212012101800000000055540000179680000000000179680000000000000000000000000000000050000000000  3020121221   01          2                                                                                   3112513141500064899001800049                                                  N                     01321  0000000        000067
12006000195000156MBA MERCANTIL BRAS DE ACO LTDA                                        0000000034100000000000000000000000000000906662510000002513141540009951B02     201301192012101800000000055830000219540000000000219540000000000000000000000000000000050000000000  3020130121   01          2                                                                                   3112513141542064899001800019                                                  N                     01321  0000000        000068
12006000195000156MBA MERCANTIL BRAS DE ACO LTDA                                        0000000034100000000000000000000000000000906662520000002513141510009950B02     201301182012101800000000055820000179681000000000179681000000000000000000000000000000050000000000  3020130118   01          2                                                                                   3112513141518064899001800069                                                  N                     01321  0000000        000069
12006000195000156MBA MERCANTIL BRAS DE ACO LTDA                                        0000000034100000000000000000000000000000906662530000002513141520009950B03     201302142012101800000000056090000179680000000000179680000000000000000000000000000000050000000000  3020130214   01          2                                                                                   3112513141526064899001800019                                                  N                     01321  0000000        000070
12006000195000156MBA MERCANTIL BRAS DE ACO LTDA                                        0000000034100000000000000000000000000000906662540000002513141570009957B02     201301202012101800000000055840001291712000000001291712000000000000000000000000000000050000000000  3020130121   01          2                                                                                   3112513141575064899001800069                                                  N                     01321  0000000        000071
12006000195000156MBA MERCANTIL BRAS DE ACO LTDA                                        0000000034100000000000000000000000000000906662550000002513141580009957B03     201302162012101800000000056110001291711000000001291711000000000000000000000000000000050000000000  3020130218   01          2                                                                                   3112513141583064899001800019                                                  N                     01321  0000000        000072
12006000195000156MBA MERCANTIL BRAS DE ACO LTDA                                        0000000034100000000000000000000000000000906662570000002513141550009951B03     201302152012101800000000056100000219539000000000219539000000000000000000000000000000050000000000  3020130215   01          2                                                                                   3112513141559064899001800039                                                  N                     01321  0000000        000073
12006000195000156MBA MERCANTIL BRAS DE ACO LTDA                                        0000000034100000000000000000000000000000906662590000002513141560009957B01     201212232012101800000000055560001291712000000001291712000000000000000000000000000000050000000000  3020121224   01          2                                                                                   3112513141567064899001800089                                                  N                     01321  0000000        000074
12006000195000156MBA MERCANTIL BRAS DE ACO LTDA                                        0000000034100000000000000000000000000000884432650000002398047870009541B02     201212142012091300000000055470000703091000000000703091000000000000000000000000000000050000000000  3020121214   01          2                                                                                   3112398047871064899001800089                                                  N                     01321  0000000        000075
12006000195000156MBA MERCANTIL BRAS DE ACO LTDA                                        0000000034100000000000000000000000000000884432670000002398047880009541B03     201301112012091300000000055750000703090000000000703090000000000000000000000000000000050000000000  3020130111   01          2                                                                                   3112398047889064899001800059                                                  N                     01321  0000000        000076
12006000195000156MBA MERCANTIL BRAS DE ACO LTDA                                        0000000034100000000000000000000000000000884432680000002398047840009535B02     201212132012091200000000055460000155122000000000155122000000000000000000000000000000050000000000  3020121213   01          2                                                                                   3112398047848064899001800099                                                  N                     01321  0000000        000077
12006000195000156MBA MERCANTIL BRAS DE ACO LTDA                                        0000000034100000000000000000000000000000884432700000002398047900009542B02     201212142012091300000000055470000112933000000000112933000000000000000000000000000000050000000000  3020121214   01          2                                                                                   3112398047905064899001800039                                                  N                     01321  0000000        000078
12006000195000156MBA MERCANTIL BRAS DE ACO LTDA                                        0000000034100000000000000000000000000000884432710000002398047910009542B03     201301112012091300000000055750000112934000000000112934000000000000000000000000000000050000000000  3020130111   01          2                                                                                   3112398047913064899001800099                                                  N                     01321  0000000        000079
12006000195000156MBA MERCANTIL BRAS DE ACO LTDA                                        0000000034100000000000000000000000000000888732920000002423154120009606B02     201212202012091900000000055530000892173000000000892173000000000000000000000000000000050000000000  3020121220   01          2                                                                                   3112423154122064899001800019                                                  N                     01321  0000000        000080
12006000195000156MBA MERCANTIL BRAS DE ACO LTDA                                        0000000034100000000000000000000000000000888732940000002423154130009606B03     201301172012091900000000055810000892174000000000892174000000000000000000000000000000050000000000  3020130117   01          2                                                                                   3112423154130064899001800059                                                  N                     01321  0000000        000081
12006000195000156MBA MERCANTIL BRAS DE ACO LTDA                                        0000000034100000000000000000000000000000894343930000002451556660009734B02     201301032012092800000000055670000278567000000000278567000000000000000000000000000000050000000000  3020130103   01          2                                                                                   3112451556669064899001800049                                                  N                     01321  0000000        000082
12006000195000156MBA MERCANTIL BRAS DE ACO LTDA                                        0000000034100000000000000000000000000000894343940000002451556670009734B03     201301302012092800000000055940000278566000000000278566000000000000000000000000000000050000000000  3020130130   01          2                                                                                   3112451556677064899001800019                                                  N                     01321  0000000        000083
12006000195000156MBA MERCANTIL BRAS DE ACO LTDA                                        0000000034100000000000000000000000000000894343950000002451556320009702B02     201212282012092700000000055610000272653000000000272653000000000000000000000000000000050000000000  3020121228   01          2                                                                                   3112451556321064899001800099                                                  N                     01321  0000000        000084
12006000195000156MBA MERCANTIL BRAS DE ACO LTDA                                        0000000034100000000000000000000000000000894343960000002451556700009735B03     201301312012092800000000055950000239096000000000239096000000000000000000000000000000050000000000  3020130131   01          2                                                                                   3112451556701064899001800089                                                  N                     01321  0000000        000085
12006000195000156MBA MERCANTIL BRAS DE ACO LTDA                                        0000000034100000000000000000000000000000894343970000002451556330009702B03     201301252012092700000000055890000272654000000000272654000000000000000000000000000000050000000000  3020130125   01          2                                                                                   3112451556339064899001800019                                                  N                     01321  0000000        000086
12006000195000156MBA MERCANTIL BRAS DE ACO LTDA                                        0000000034100000000000000000000000000000894344000000002451556690009735B02     201301042012092800000000055680000239096000000000239096000000000000000000000000000000050000000000  3020130104   01          2                                                                                   3112451556693064899001800019                                                  N                     01321  0000000        000087
12006000195000156MBA MERCANTIL BRAS DE ACO LTDA                                        0000000034100000000000000000000000000000894344010000002451556630009733B02     201301022012092800000000055660000520246000000000520246000000000000000000000000000000050000000000  3020130102   01          2                                                                                   3112451556636064899001800079                                                  N                     01321  0000000        000088
12006000195000156MBA MERCANTIL BRAS DE ACO LTDA                                        0000000034100000000000000000000000000000894344020000002451556640009733B03     201301292012092800000000055930000520245000000000520245000000000000000000000000000000050000000000  3020130129   01          2                                                                                   3112451556644064899001800029                                                  N                     01321  0000000        000089
12006000195000156MBA MERCANTIL BRAS DE ACO LTDA                                        0000000034100000000000000000000000000000894344040000002451556730009736B03     201302012012092800000000055960000409117000000000409117000000000000000000000000000000050000000000  3020130201   01          2                                                                                   3112451556735064899001800029                                                  N                     01321  0000000        000090
12006000195000156MBA MERCANTIL BRAS DE ACO LTDA                                        0000000034100000000000000000000000000000872952860000002358952290009401B02     201210252012083000000000054970000254800000000000254800000000000000000000000000000000050000000000  3020121025   05          3                                                                                   3112358952292064899001800099                                                  N                     01321  0000000        000091
12006000195000156MBA MERCANTIL BRAS DE ACO LTDA                                        0000000034100000000000000000000000000000872952880000002358952120009374B02     201210242012082900000000054960000727811000000000727811000000000000000000000000000000050000000000  3020121024   05          3                                                                                   3112358952128064899001800049                                                  N                     01321  0000000        000092
12006000195000156MBA MERCANTIL BRAS DE ACO LTDA                                        0000000034100000000000000000000000000000872952970000002358952470009420B02     201210262012083100000000054980000953214000000000953214000000000000000000000000000000050000000000  3020121026   05          3                                                                                   3112358952474064899001800079                                                  N                     01321  0000000        000093
12006000195000156MBA MERCANTIL BRAS DE ACO LTDA                                        0000000034100000000000000000000000000000888732910000002423154110009606B01     201210172012091900000000054890001026000000000001026000000000000000000000000000000000050000000000  3020121017   05          3                                                                                   3112423154114064899001800089                                                  N                     01321  0000000        000094
12006000195000156MBA MERCANTIL BRAS DE ACO LTDA                                        0000000034100000000000000000000000000000894344120000002451556080009671B01     201210242012092500000000054960001127881000000001127881000000000000000000000000000000050000000000  3020121024   05          3                                                                                   3112451556081064899001800069                                                  N                     01321  0000000        000095
12006000195000156MBA MERCANTIL BRAS DE ACO LTDA                                        0000000034100000000000000000000000000000894344140000002451556050009670B01     201210232012092500000000054950000945663000000000945663000000000000000000000000000000050000000000  3020121023   05          3                                                                                   3112451556057064899001800039                                                  N                     01321  0000000        000096
12006000195000156MBA MERCANTIL BRAS DE ACO LTDA                                        0000000034100000000000000000000000000000894344170000002451556240009697B01     201210252012092700000000054970000450846000000000450846000000000000000000000000000000050000000000  3020121025   05          3                                                                                   3112451556248064899001800069                                                  N                     01321  0000000        000097
12006000195000156MBA MERCANTIL BRAS DE ACO LTDA                                        0000000034100000000000000000000000000000894344180000002451556310009702B01     201210252012092700000000054970000313551000000000313551000000000000000000000000000000050000000000  3020121025   05          3                                                                                   3112451556313064899001800019                                                  N                     01321  0000000        000098
12009338857000190FERNANDO  NAGAO  CARDONE  ALVA                                        000000000330000000000000000000000000000089697936000000800000000ALTA 10 2012   201210202012092500000000054920000134632000000000140826000000000000000000000000006194050000000000  3020121101   01          2                                                                                   3947901700000051050080010129                                                  N                     01321  0000000        000099
12012006058000121WEG TINTAS LTDA                                                       0000000023702727800000000001309 00000000870177480090224100000970016248001     201210112012082700000000054830000306569000000000315137000000000000000000000000008568050000000000  3020121101   01          2  R JUNO  533                                                                      3                         000000000000000                                     N                     00598  0000000        000100
12012006058000121WEG TINTAS LTDA                                                       0000000023702727800000000001309 00000000870177490090224100000980016248002     201210262012082700000000054980000306569000000000309017000000000000000000000000002448050000000000  3020121101   01          2  R JUNO  533                                                                      3                         000000000000000                                     N                     00598  0000000        000101
12012006058000121WEG TINTAS LTDA                                                       0000000023702727800000000001309 00000000872318650090224700001030016359601     201210152012083100000000054870000459854000000000470275000000000000000000000000010421050000000000  3020121101   01          2  R JUNO  533                                                                      3                         000000000000000                                     N                     00598  0000000        000102
12012006058000121WEG TINTAS LTDA                                                       0000000023702727800000000001309 00000000872318660090224700001040016359602     201210302012083100000000055020000459854000000000461080000000000000000000000000001226050000000000  3020121101   01          2  R JUNO  533                                                                      3                         000000000000000                                     N                     00598  0000000        000103
12012006058000121WEG TINTAS LTDA                                                       0000000023702727800000000001309 00000000849855340090220500001220015343103     201210032012072000000000054750000306662000000000318494000000000000000000000000011832050000000000  3020121101   01          2  R JUNO  533                                                                      3                         000000000000000                                     N                     00598  0000000        000104
12012006058000121WEG TINTAS LTDA                                                       0000000023702727800000000001309 00000000868126340090223500001170016086601     201210052012082100000000054770000306569000000000317585000000000000000000000000011016050000000000  3020121101   01          2  R JUNO  533                                                                      3                         000000000000000                                     N                     00598  0000000        000105
12012006058000121WEG TINTAS LTDA                                                       0000000023702727800000000001309 00000000868126350090223500001180016086602     201210202012082100000000054920000306569000000000311465000000000000000000000000004896050000000000  3020121101   01          2  R JUNO  533                                                                      3                         000000000000000                                     N                     00598  0000000        000106
12012006058000121WEG TINTAS LTDA                                                       0000000023702727800000000001309 00000000854049560090221200001020015513003     201210102012072700000000054820000459992000000000473478000000000000000000000000013486050000000000  3020121101   01          2  R JUNO  533                                                                      3                         000000000000000                                     N                     00598  0000000        000107
12012006058000121WEG TINTAS LTDA                                                       0000000023702727800000000001309 00000000856071270090221400000840015587303     201210142012073100000000054860000459992000000000471026000000000000000000000000011034050000000000  3020121101   01          2  R JUNO  533                                                                      3                         000000000000000                                     N                     00598  0000000        000108
12012006058000121WEG TINTAS LTDA                                                       0000000023702727800000000001309 00000000861207270090222200000910015775002     201210072012080800000000054790000306569000000000316769000000000000000000000000010200050000000000  3020121101   01          2  R JUNO  533                                                                      3                         000000000000000                                     N                     00598  0000000        000109
12012006058000121WEG TINTAS LTDA                                                       0000000023702727800000000001309 00000000861207280090222200000920015775003     201210222012080800000000054940000306662000000000310742000000000000000000000000004080050000000000  3020121101   01          2  R JUNO  533                                                                      3                         000000000000000                                     N                     00598  0000000        000110
12012006058000121WEG TINTAS LTDA                                                       0000000023702727800000000001309 00000000864554450090222800000740015908402     201210132012081400000000054850000306569000000000314321000000000000000000000000007752050000000000  3020121101   01          2  R JUNO  533                                                                      3                         000000000000000                                     N                     00598  0000000        000111
12012006058000121WEG TINTAS LTDA                                                       0000000023702727800000000001309 00000000864554460090222800000750015908403     201210282012081400000000055000000306662000000000308294000000000000000000000000001632050000000000  3020121101   01          2  R JUNO  533                                                                      3                         000000000000000                                     N                     00598  0000000        000112
12012006058000121WEG TINTAS LTDA                                                       0000000023702727800000000001309 00000000882668410090225800000740016626901     201210282012091300000000055000000459854000000000462306000000000000000000000000002452050000000000  3020121101   01          2  R JUNO  533                                                                      3                         000000000000000                                     N                     00598  0000000        000113
12012006058000121WEG TINTAS LTDA                                                       0000000023702727800000000001309 00000000878206040090225400000780016517201     201210212012090600000000054930000459854000000000466597000000000000000000000000006743050000000000  3020121101   01          2  R JUNO  533                                                                      3                         000000000000000                                     N                     00598  0000000        000114
12014775592000128HELIO ADRIANO DA SILVA ME                                             0000000003300000000000000000000000000000887698150000005800000008682           201210102012092100000000054820000040000000000000041173000000000000000000000000001199050000000000  3020121024   06          3                                                                                   3956114740000000000058010159                                                  N                     01321  0000000        000115
12014775592000128HELIO ADRIANO DA SILVA ME                                             0000000003300000000000000000000000000000901454930000007700000008883           201210302012101000000000055020000011000000000000011234000000000000000000000000000234050000000000  3020121101   01          2                                                                                   3956114740000000000077010199                                                  N                     01321  0000000        000116
12014978305000187MOGI FILME INDUSTRIA E COMERCI                                        0000000023700402200000001055003 0000000088599905009022640000016351            201210202012092000000000054920000139691000000000148031000000000000000000000000008340050000000000  3020121101   01          2  RUA TAMAINDE 1410 VL NOVA MANCHESTER                                             3                         000000000000000                                     N                     00598  0000000        000117
12016802308000190TRANSMARRECO LTDA                                                     000000000330000000000000000000000000000088769814000000640000000353 12         201210052012092100000000054770000106581000000000117353000000000000000000000000010772050000000000  3020121101   01          2                                                                                   3907636240000000643564010119                                                  N                     01321  0000000        000118
12035820448000136WHITE MARTINS GASES INDUSTRIAI                                        0000000023700026400000003937925 0000000091141009009023050001196401713 001     201211272012103100000000055300000040575000000000040575000000000000000000000000000000050000000000  3020121127   01FS        1  RUA GANGES  528                                                                  3                         000000000000000                                     N                     00598  0000000        000119
12035820448000136WHITE MARTINS GASES INDUSTRIAI                                        0000000023700026400000003937925 0000000088686659009022650001000382942 001     201210182012092100000000054900000121725000000000124733000000000000000000000000003008050000000000  3020121101   01          2  RUA GANGES  528                                                                  3                         000000000000000                                     N                     00598  0000000        000120
12035820448000136WHITE MARTINS GASES INDUSTRIAI                                        0000000023700026400000003937925 0000000088191338009022570001466379316 001     201210092012091300000000054810000085208000000000087556000000000000000000000000002348050000000000  3020121101   01          2  RUA GANGES  528                                                                  3                         000000000000000                                     N                     00598  0000000        000121
12035820448000136WHITE MARTINS GASES INDUSTRIAI                                        0000000023700026400000003937925 0000000088524829009022630001577381808 001     201210162012091900000000054880000121725000000000124815000000000000000000000000003090050000000000  3020121101   01          2  RUA GANGES  528                                                                  3                         000000000000000                                     N                     00598  0000000        000122
12035820448000136WHITE MARTINS GASES INDUSTRIAI                                        0000000023700026400000003937925 0000000088957851009022700001298384214 001     201210232012092600000000054950000121725000000000124528000000000000000000000000002803050000000000  3020121101   01          2  RUA GANGES  528                                                                  3                         000000000000000                                     N                     00598  0000000        000123
12035820448000136WHITE MARTINS GASES INDUSTRIAI                                        0000000023700026400000003937925 0000000087820600009022540001838377866 001     201210042012090700000000054760000202876000000000208837000000000000000000000000005961050000000000  3020121101   01          2  RUA GANGES  528                                                                  3                         000000000000000                                     N                     00598  0000000        000124
12042956441000101SOLUCOES ACO USIMINAS                                                 0000000034100000000000000000000000000000848180700000002220192900017041002     201209112012071700000000054530000155433000000000171294000000000000000000000000015861050000000000  3020121101   01          2                                                                                   3112220192903293807258000029                                                  N                     01321  0000000        000125
12042956441000101SOLUCOES ACO USIMINAS                                                 0000000034100000000000000000000000000000853154840000002246247030017196702     201209202012072500000000054620000234841000000000254581000000000000000000000000019740050000000000  3020121101   01          2                                                                                   3112246247038293807258000099                                                  N                     01321  0000000        000126
12042956441000101SOLUCOES ACO USIMINAS                                                 0000000034100000000000000000000000000000848180710000002220192910017041202     201209112012071700000000054530000205421000000000226382000000000000000000000000020961050000000000  3020121101   01          2                                                                                   3112220192911293807258000019                                                  N                     01321  0000000        000127
12042956441000101SOLUCOES ACO USIMINAS                                                 0000000034100000000000000000000000000000853154850000002246247040017197302     201209202012072500000000054620000970103000000001051583000000000000000000000000081480050000000000  3020121101   01          2                                                                                   3112246247046293807258000019                                                  N                     01321  0000000        000128
12042956441000101SOLUCOES ACO USIMINAS                                                 0000000034100000000000000000000000000000850740460000002233586800017127201     201208202012072000000000054310000137881000000000158029000000000000000000000000020148050000000000  3020121101   01          2                                                                                   3112233586802293807258000019                                                  N                     01321  0000000        000129
12042956441000101SOLUCOES ACO USIMINAS                                                 0000000034100000000000000000000000000000850740470000002233586810017101002     201209142012071900000000054560000732575000000000802895000000000000000000000000070320050000000000  3020121101   01          2                                                                                   3112233586810293807258000019                                                  N                     01321  0000000        000130
12042956441000101SOLUCOES ACO USIMINAS                                                 0000000034100000000000000000000000000000850740480000002233586820017101202     201209142012071900000000054560000144634000000000158506000000000000000000000000013872050000000000  3020121101   01          2                                                                                   3112233586828293807258000029                                                  N                     01321  0000000        000131
12042956441000101SOLUCOES ACO USIMINAS                                                 0000000034100000000000000000000000000000855028690000002254329380017212902     201209212012072600000000054630000140098000000000151578000000000000000000000000011480050000000000  3020121101   01          2                                                                                   3112254329389293807258000019                                                  N                     01321  0000000        000132
12042956441000101SOLUCOES ACO USIMINAS                                                 0000000034100000000000000000000000000000855028700000002254329390017213002     201209212012072600000000054630000140602000000000152123000000000000000000000000011521050000000000  3020121101   01          2                                                                                   3112254329397293807258000089                                                  N                     01321  0000000        000133
12042956441000101SOLUCOES ACO USIMINAS                                                 0000000034100000000000000000000000000000855028770000002254329400017220502     201209212012072700000000054630000981022000000001061464000000000000000000000000080442050000000000  3020121101   01          2                                                                                   3112254329405293807258000099                                                  N                     01321  0000000        000134
12042956441000101SOLUCOES ACO USIMINAS                                                 0000000034100000000000000000000000000000859590620000002274469790017353702     201209282012080300000000054700000081053000000000086561000000000000000000000000005508050000000000  3020121101   01          2                                                                                   3112274469793293807258000069                                                  N                     01321  0000000        000135
12042956441000101SOLUCOES ACO USIMINAS                                                 0000000034100000000000000000000000000000856906410000002262886280017266201     201208282012073000000000054390000119472000000000135007000000000000000000000000015535050000000000  3020121101   01          2                                                                                   3112262886289293807258000089                                                  N                     01321  0000000        000136
12042956441000101SOLUCOES ACO USIMINAS                                                 0000000034100000000000000000000000000000856906420000002262886290017266301     201208282012073000000000054390000145069000000000163919000000000000000000000000018850050000000000  3020121101   01          2                                                                                   3112262886297293807258000099                                                  N                     01321  0000000        000137
12042956441000101SOLUCOES ACO USIMINAS                                                 0000000034100000000000000000000000000000846595700000002210880280016980502     201209102012071200000000054520000156071000000000172295000000000000000000000000016224050000000000  3020121101   01          2                                                                                   3112210880285293807258000039                                                  N                     01321  0000000        000138
12042956441000101SOLUCOES ACO USIMINAS                                                 0000000034100000000000000000000000000000846595710000002210880290016980602     201209102012071200000000054520000426094000000000470398000000000000000000000000044304050000000000  3020121101   01          2                                                                                   3112210880293293807258000019                                                  N                     01321  0000000        000139
12042956441000101SOLUCOES ACO USIMINAS                                                 0000000034100000000000000000000000000000847452070000002216130350005922202     201209102012071600000000054520000172071000000000189959000000000000000000000000017888050000000000  3020121101   01          2                                                                                   3112216130354293807258000049                                                  N                     01321  0000000        000140
12042956441000101SOLUCOES ACO USIMINAS                                                 0000000034100000000000000000000000000000847452100000002216130340017012402     201209102012071500000000054520000147428000000000162768000000000000000000000000015340050000000000  3020121101   01          2                                                                                   3112216130347293807258000059                                                  N                     01321  0000000        000141
12043298975000150JOMARCA INDL DE PARAFUSOS LTDA                                        0000000003300000000000000000000000000000893373890000002600000000160394 01     201210312012100100000000055030000474500000000000475449000000000000000000000000000949050000000000  3020121101   01          2                                                                                   3935059520000000532126010459                                                  N                     01321  0000000        000142
12047190731000100DE CASTRO LOUR ENG IND LTDA                                           00000000341000000000000000000000000000008782051200000023399953803026613 0     201209182012082100000000054600001107989000000001203865000000000000000000000000095876050000000000  3020121101   01          2                                                                                   3112339995386036884500400039                                                  N                     01321  0000000        000143
12047190731000100DE CASTRO LOUR ENG IND LTDA                                           00000000341000000000000000000000000000008782051600000023399954103026614 0     201209182012082100000000054600001047621000000001138261000000000000000000000000090640050000000000  3020121101   01          2                                                                                   3112339995410036884500400039                                                  N                     01321  0000000        000144
12047190731000100DE CASTRO LOUR ENG IND LTDA                                           00000000341000000000000000000000000000008782052000000023399955303026632 0     201209192012082200000000054610000952073000000001032569000000000000000000000000080496050000000000  3020121101   01          2                                                                                   3112339995535036884500400019                                                  N                     01321  0000000        000145
12047190731000100DE CASTRO LOUR ENG IND LTDA                                           00000000341000000000000000000000000000008782052100000023399955903026643 0     201209202012082300000000054620000867039000000000938649000000000000000000000000071610050000000000  3020121101   01          2                                                                                   3112339995592036884500400049                                                  N                     01321  0000000        000146
12047190731000100DE CASTRO LOUR ENG IND LTDA                                           00000000341000000000000000000000000000008782052500000023399955603026636 0     201209192012082200000000054610000940804000000001020354000000000000000000000000079550050000000000  3020121101   01          2                                                                                   3112339995568036884500400049                                                  N                     01321  0000000        000147
12047190731000100DE CASTRO LOUR ENG IND LTDA                                           00000000341000000000000000000000000000008782052700000023399956203026648 0     201209202012082300000000054620000976053000000001056693000000000000000000000000080640050000000000  3020121101   01          2                                                                                   3112339995626036884500400029                                                  N                     01321  0000000        000148
12047190731000100DE CASTRO LOUR ENG IND LTDA                                           00000000341000000000000000000000000000008782050900000023399953503026612 0     201209182012082100000000054600001111489000000001207673000000000000000000000000096184050000000000  3020121101   01          2                                                                                   3112339995352036884500400019                                                  N                     01321  0000000        000149
12047190731000100DE CASTRO LOUREIRO ENGENHARIA                                         00000000033000000000000000000000000000008801226700000050000000003026797 0     201210312012090300000000055030000422495000000000430945000000000000000000000000008450050000000000  3020121101   01          2                                                                                   3948430370000009553150020339                                                  N                     01321  0000000        000150
12048218317000125RODOENG TRANSPORTES RODOVIARIO                                        00000000001000000000000000000000000000009114101600000074341100013548 1        201211232012102200000000055260000310000000000000310000000000000000000000000000000000050000000000  3020121123   01FS        1                                                                                   3050157434111494000094531189                                                  N                     01321  0000000        000151
12048775225000146SEIKI IND COM E CONFECCOES LTD                                        000000003410000000000000000000000000000089337376000000244697151014914001      201210232012092500000000054950000052000000000000052702000000000000000000000000000702050000000000  3020121101   01          2                                                                                   3112446971510017444824100089                                                  N                     01321  0000000        000152
12051180370000199IGUAFER FERRO E ACO LTDA                                              0000000034100000000000000000000000000000852309100000002239389789443 B         201209022012071800000000054440000168275000000000185075000000000000000000000000016800050000000000  3020121101   01          2                                                                                   3112239389789077149484600089                                                  N                     01321  0000000        000153
12051180370000199IGUAFER FERRO E ACO LTDA                                              0000000034100000000000000000000000000000852309110000002239389799443 C         201209122012071800000000054540000168275000000000182275000000000000000000000000014000050000000000  3020121101   01          2                                                                                   3112239389797077149484600089                                                  N                     01321  0000000        000154
12053585766000141MULTIACOS I C PRODS TEC LTDA                                          0000000042200000000000000000000000000000883508250000000000000000004553203     201210252012091300000000054970001115009000000001128014000000000000000000000000013005050000000000  3020121101   01          2                                                                                   3711500005033164921116519149                                                  N                     01321  0000000        000155
12053585766000141MULTIACOS I C PRODS TEC LTDA                                          0000000042200000000000000000000000000000895189410000000000000000004704301     201210302012100200000000055020000994772000000000998087000000000000000000000000003315050000000000  3020121101   01          2                                                                                   3711500005033164927761823189                                                  N                     01321  0000000        000156
12053585766000141MULTIACOS I C PRODS TEC LTDA                                          0000000042200000000000000000000000000000887697930000000000000000004704501     201210302012092000000000055020000224054000000000224799000000000000000000000000000745050000000000  3020121101   01          2                                                                                   3711500005033164923629572179                                                  N                     01321  0000000        000157
12053585766000141MULTIACOS IND E CO                                                    0000000034100000000000000000000000000000885998960000002407458090004685001     201210252012091300000000054970000563931000000000570511000000000000000000000000006580050000000000  3020121101   01          2                                                                                   3112407458093293803748400099                                                  N                     01321  0000000        000158
12053585766000141MULTIACOS I C PRODS TEC LTDA                                          0000000042200000000000000000000000000000895189430000000000000000004566103     201210292012100200000000055010001281579000000001287986000000000000000000000000006407050000000000  3020121101   01          2                                                                                   3711500005033164927761904189                                                  N                     01321  0000000        000159
12053585766000141MULTIACOS I C PRODS TEC LTDA                                          0000000042200000000000000000000000000000895189450000000000000000004570003     201210302012100200000000055020000999583000000001002914000000000000000000000000003331050000000000  3020121101   01          2                                                                                   3711500005033164927761912159                                                  N                     01321  0000000        000160
12053585766000141MULTIACOS I C PRODS TEC LTDA                                          0000000042200000000000000000000000000000895189470000000000000000004565103     201210292012100200000000055010000455717000000000457996000000000000000000000000002279050000000000  3020121101   01          2                                                                                   3711500005033164927761921189                                                  N                     01321  0000000        000161
12053585766000141MULTIACOS I C PRODS TEC LTDA                                          0000000042200000000000000000000000000000895189510000000000000000004695801     201210292012100200000000055010000198860000000000199852000000000000000000000000000992050000000000  3020121101   01          2                                                                                   3711500005033164927761998119                                                  N                     01321  0000000        000162
12053585766000141MULTIACOS I C PRODS TEC LTDA                                          0000000042200000000000000000000000000000895189540000000000000000004695701     201210292012100200000000055010001125322000000001130949000000000000000000000000005627050000000000  3020121101   01          2                                                                                   3711500005033164927761963199                                                  N                     01321  0000000        000163
12053585766000141MULTIACOS I C PRODS TEC LTDA                                          0000000042200000000000000000000000000000895189620000000000000000004699101     201210292012100200000000055010000592134000000000595094000000000000000000000000002960050000000000  3020121101   01          2                                                                                   3711500005033164927762021159                                                  N                     01321  0000000        000164
12053585766000141MULTIACOS I C PRODS TEC LTDA                                          0000000042200000000000000000000000000000895189650000000000000000004699301     201210312012100200000000055030000889444000000000890925000000000000000000000000001481050000000000  3020121101   01          2                                                                                   3711500005033164927762081139                                                  N                     01321  0000000        000165
12053585766000141MULTIACOS I C PRODS TEC LTDA                                          0000000042200000000000000000000000000000895189730000000000000000004642302     201210302012100200000000055020000192957000000000193600000000000000000000000000000643050000000000  3020121101   01          2                                                                                   3711500005033164927762153179                                                  N                     01321  0000000        000166
12053585766000141MULTIACOS I C PRODS TEC LTDA                                          0000000042200000000000000000000000000000895189760000000000000000004642102     201210302012100200000000055020000244317000000000245130000000000000000000000000000813050000000000  3020121101   01          2                                                                                   3711500005033164927762170139                                                  N                     01321  0000000        000167
12053585766000141MULTIACOS I C PRODS TEC LTDA                                          0000000042200000000000000000000000000000890456950000000000000000004650302     201210312012092500000000055030000228607000000000228987000000000000000000000000000380050000000000  3020121101   01          2                                                                                   3711500005033164925775207159                                                  N                     01321  0000000        000168
12053585766000141MULTIACOS I C PRODS TEC LTDA                                          0000000042200000000000000000000000000000890457050000000000000000004650402     201210312012092500000000055030000192957000000000193278000000000000000000000000000321050000000000  3020121101   01          2                                                                                   3711500005033164925775223129                                                  N                     01321  0000000        000169
12053585766000141MULTIACOS COM DE PRODUTOS TECN                                        0000000023703398700000000011290 00000000888733100020226900000690004642101     201210162012090400000000054880000251722000000000258442000000000000000000000000006720050000000000  3020121101   01          2  RUA JUNO  533                                                                    3                         000000000000000                                     N                     00598  0000000        000170
12054382510000108SETENTA IND E COM DE MADEIRAS                                         0000000034100000000000000000000000000000860403430000002277814474462 A         201209042012080700000000054460000191200000000000213008000000000000000000000000021808050000000000  3020121101   01          2                                                                                   3112277814474057049175300069                                                  N                     01321  0000000        000171
12056993512000150CYKLOP DO BRASIL EMBALAGENS SA                                        0000000034100000000000000000000000000000874070500000002362586810134932        201210012012090300000000054730000083607000000000093124000000000000000000000000009517050000000000  3020121101   01          2                                                                                   3112362586813025700015800019                                                  N                     01321  0000000        000172
12056993512000150CYKLOP DO BRASIL EMBALAGENS SA                                        0000000034100000000000000000000000000000911410070000002533965040141142        201211122012102900000000055150000156290000000000156290000000000000000000000000000000050000000000  3020121112   01FS        1                                                                                   3112533965045025786126000059                                                  N                     01321  0000000        000173
12056993512000150CYKLOP DO BRASIL EMBALAGENS SA                                        0000000034100000000000000000000000000000911410080000002533965910001796        201211122012102900000000055150000020400000000000020400000000000000000000000000000000050000000000  3020121112   01FS        1                                                                                   3112533965912025786126000059                                                  N                     01321  0000000        000174
12056993900000131CIA METALURGICA PRADA                                                 0000000034100000000000000000000000000000855028630000002254750290026244303     201210222012072800000000054940000100683000000000102363000000000000000000000000001680050000000000  3020121101   01          2                                                                                   3112254750295293800573900049                                                  N                     01321  0000000        000175
12056993900000131CIA METALURGICA PRADA                                                 0000000034100000000000000000000000000000855028640000002254750300026244403     201210222012072800000000054940000084116000000000085516000000000000000000000000001400050000000000  3020121101   01          2                                                                                   3112254750303293800573900099                                                  N                     01321  0000000        000176
12056993900000131CIA METALURGICA PRADA                                                 0000000034100000000000000000000000000000844839000000002201181880025629402     201209052012071100000000054470000249372000000000273084000000000000000000000000023712050000000000  3020121101   01          2                                                                                   3112201181883293800573900019                                                  N                     01321  0000000        000177
12056993900000131CIA METALURGICA PRADA                                                 0000000034100000000000000000000000000000844839010000002201181890025635302     201209052012071100000000054470000406842000000000445488000000000000000000000000038646050000000000  3020121101   01          2                                                                                   3112201181891293800573900019                                                  N                     01321  0000000        000178
12056993900000131CIA METALURGICA PRADA                                                 0000000034100000000000000000000000000000844839020000002201181900025635402     201209052012071100000000054470000208689000000000228525000000000000000000000000019836050000000000  3020121101   01          2                                                                                   3112201181909293800573900069                                                  N                     01321  0000000        000179
12056993900000131CIA METALURGICA PRADA                                                 0000000034100000000000000000000000000000844839030000002201181910025635502     201209052012071100000000054470000164780000000000180455000000000000000000000000015675050000000000  3020121101   01          2                                                                                   3112201181917293800573900029                                                  N                     01321  0000000        000180
12056993900000131CIA METALURGICA PRADA                                                 0000000034100000000000000000000000000000844839040000002201181920025635602     201209052012071100000000054470000339933000000000372252000000000000000000000000032319050000000000  3020121101   01          2                                                                                   3112201181925293800573900069                                                  N                     01321  0000000        000181
12056993900000131CIA METALURGICA PRADA                                                 0000000034100000000000000000000000000000844839050000002201181930025636202     201209052012071100000000054470000746213000000000817121000000000000000000000000070908050000000000  3020121101   01          2                                                                                   3112201181933293800573900019                                                  N                     01321  0000000        000182
12056993900000131CIA METALURGICA PRADA                                                 0000000034100000000000000000000000000000844839060000002201181940025644402     201209052012071100000000054470000779647000000000853690000000000000000000000000074043050000000000  3020121101   01          2                                                                                   3112201181941293800573900019                                                  N                     01321  0000000        000183
12056993900000131CIA METALURGICA PRADA                                                 0000000034100000000000000000000000000000844839140000002201181870025629302     201209052012071100000000054470000257906000000000282416000000000000000000000000024510050000000000  3020121101   01          2                                                                                   3112201181875293800573900069                                                  N                     01321  0000000        000184
12056993900000131CIA METALURGICA PRADA                                                 0000000034100000000000000000000000000000848180620000002218222670025829902     201209112012071700000000054530000498118000000000540448000000000000000000000000042330050000000000  3020121101   01          2                                                                                   3112218222670293800573900029                                                  N                     01321  0000000        000185
12056993900000131CIA METALURGICA PRADA                                                 0000000034100000000000000000000000000000848180630000002218222680025830002     201209112012071700000000054530000247673000000000268736000000000000000000000000021063050000000000  3020121101   01          2                                                                                   3112218222688293800573900059                                                  N                     01321  0000000        000186
12056993900000131CIA METALURGICA PRADA                                                 0000000034100000000000000000000000000000848180640000002218222690025830102     201209112012071700000000054530000207402000000000225048000000000000000000000000017646050000000000  3020121101   01          2                                                                                   3112218222696293800573900039                                                  N                     01321  0000000        000187
12057398687000182MORED COMERCIO E SERVICOS LTDA                                        0000000034100000000000000000000000000000895189910000006153522805242           201210262012100400000000054980000174053000000000176105000000000000000000000000002052050000000000  3020121101   01          2                                                                                   3156153522804101144455900039                                                  N                     01321  0000000        000188
12058805466000144PEFIL COMERCIAL LTDA                                                  0000000023700086800000000014001 000000009114101200901323050356523350 01       201211192012103100000000055220000036000000000000036000000000000000000000000000000000050000000000  3020121119   01FS        1  R GANGES  528                                                                    3                         000000000000000                                     N                     00598  0000000        000189
12061475927000172NIQ CROM BRILHANTE LTDA                                               0000000034100000000000000000000000000000889578470000002428217915141           201210192012092500000000054910000049335000000000049335000000000000000000000000000000050000000000  3020121019   05          3                                                                                   3112428217916046770270000059                                                  N                     01321  0000000        000190
12061600839000155CENTRO DE INT EMPRESA ESCOLA C                                        0000000023703391P00000000866202 00000000899624890090000036546447641C 0001     201210312012101000000000055030000016800000000000016855000000000000000000000000000055050000000000  3020121101   01          2  R GANGES  528                                                                    3                         000000000000000                                     N                     00598  0000000        000191
12062510367000102ITANHAEM TRANSP DE MAQUINAS LT                                        000000003410000000000000000000000000000087407049000000236463199667            201209202012090400000000054620000248220000000000289926000000000000000000000000041706050000000000  3020121101   01          2                                                                                   3112364631997005770252400049                                                  N                     01321  0000000        000192
12064952757000168WALMAC COM DE PROD QUIMICOS LT                                        0000000034100000000000000000000000000000860403440000002275821690020148        201210262012080300000000054980000219266000000000221852000000000000000000000000002586050000000000  3020121101   01          2                                                                                   3112275821695064807961400019                                                  N                     01321  0000000        000193
12064952757000168WALMAC COM DE PROD QUIMICOS LT                                        0000000034100000000000000000000000000000860403450000002275821700020148        201210052012080300000000054770000219267000000000230904000000000000000000000000011637050000000000  3020121101   01          2                                                                                   3112275821703064807961400029                                                  N                     01321  0000000        000194
12066841552000130R V SEG PATRIMONIAL LTDA                                              00000000341000000000000000000000000000008852483200000090002192721927          201209102012081000000000054520000483241000000000491613000000000000000000000000008372050000000000  3020121101   01          2                                                                                   3109000219270001835253400099                                                  N                     01321  0000000        000195
12066841552000130R V SEG PATRIMONIAL S C LTDA                                          00000000341000000000000000000000000000008887329800000090002213622136          201210102012091100000000054820000374758000000000377508000000000000000000000000002750050000000000  3020121101   01          2                                                                                   3109000221365001838994000069                                                  N                     01321  0000000        000196
12067300160000127OSACO PRODUTOS SIDERURGICOS LT                                        0000000023702415500000000063002 0000000091141010009024151670093650 01 01      201211052012103100000000055080000077868000000000077868000000000000000000000000000000050000000000  3020121105   01FS        1  RUA JUNO  533                                                                    3                         000000000000000                                     N                     00598  0000000        000197
12067300160000127OSACO PRODUTOS SIDERURGICOS LT                                        0000000023702415500000000063002 0000000091141011009024151670122662 01 01      201211212012103100000000055240000106118000000000106118000000000000000000000000000000050000000000  3020121121   01FS        1  RUA JUNO  533                                                                    3                         000000000000000                                     N                     00598  0000000        000198
12069284248000128ISOCOAT TINTAS E VERNIZES LTDA                                        0000000034100000000000000000000000000000911410130000002506612040057027        201301022012101900000000055660000318064000000000318064000000000000000000000000000000050000000000  3020130102   01FS        1                                                                                   3112506612046077430121200039                                                  N                     01321  0000000        000199
