0000147602043799295000110ALTAMIRA IND METALURGICA LTDA           20100549000002012110117023300000        2    230A                                                                                          000000000000000                                                                                                                                                                                                                                                                                   000001
12042956441000101SOLUCOES ACO USIMINAS                                                 0000000034100000000000000000000000000000844063840000002198870040016923303     201211010000000000000000055040000442971000000000442971000000000000000000000000000000050000000000  3020121101   01MFBUHA    500                                                                                 3112198870043293807258000089010000       000169233/03                         N                     00000 10020256        000002
12042956441000101SOLUCOES ACO USIMINAS                                                 0000000034100000000000000000000000000000861207230000002282166990017385802     201211010000000000000000055040000714796000000000714796000000000000000000000000000000050000000000  3020121101   01MFBUHA    500                                                                                 3112282166993293807258000069010000       00173858/02                          N                     00000 10020256        000003
12014978305000187MOGI FILME INDUSTRIA E COMERCI                                        0000000023700402200000001055003 I000000000010121009022640000016               201211010000000000000000055040000148031000000000148031000000000000000000000000000000010000000351  3120121101   01HA        000                                                                                 3040209226400000160105500099             00351                                N                     00000 10020256        000004
900000500000000001305798                                                                                                                                                                                    000000000000000                                                                                                                                                                                                                                                    00000300165120001305798        000005
