0000147602043799295000110ALTAMIRA INDUSTRIA METALURGICA LT       202000000180620120801214743             3                                                                                                  000000000000000                                                                                                                                                                                                                                                                                   000001
12042956441000101SOLUCOES EM ACO USIMINAS S A                                          0000000034100000 0000000000000  I000000000009296000000000000000               201208010000000000000000054120000842049000000000842049000000000000000000000000000000010000167381  3120120801   02BW        5000000               000000000000000                                               3181515349083293807258000019               0167381/01                         N                     01132 10020256        000002
12042956441000101SOLUCOES EM ACO USIMINAS S A                                          0000000034100000 0000000000000  I000000000009295000000000000000               201208010000000000000000054120001141835000000001141835000000000000000000000000000000010000162395  3120120801   02BW        5000000               000000000000000                                               3181515347863293807258000019               0162395/02                         N                     01132 10020256        000003
12006000195000156MBA MERCANTIL BRASIL ACO LTDA                                         0000000023700118000000002128292 I000000000009297009021230000015               201208010000000000000000054120000630740000000000630740000000000000000000000000000000010000008129  3120120801   02BW        5000000               000000000000000                                               3011809212300000150212829069               8129/03                            N                     01079 10020256        000004
900000500000000002614624                                                                                                                                                                                    000000000000000                                                                                                                                                                                                                                                    00000300162360002614624        000005
