0000147602043799295000110ALTAMIRA INDUSTRIA METALURGICA LT       202000000436820130102215231             3                                                                                                  000000000000000                                                                                                                                                                                                                                                                                   000001
12005335228000156DINAMICA INF E TELECOM LTDA EP                                        0000000023703257300000000503215 0000000093637247009032570017949MO009309A      201212302012120600000000055630000020000000000000020000000000000000000000000000000000050000000000  3020130102   02BW        2000000               000000000000000                                               3                         000000000000000  9309                               N                     01146 10020256        000002
12067647412000199ANCORA CHUMBADORES LTDA                                               000000003410000000000000000000000000000088873290000000242214249062576 4       201301022012091900000000055660000125000000000000125000000000000000000000000000000000050000000000  3020130102   02BW        2000000               000000000000000                                               3112422142490013626917200089               062576                             N                     01130 10020256        000003
12035820448000136WHITE MARTINS GASES INDUSTRIAI                                        0000000023700026400000003937925 0000000093452388009023410005863417023 001     201301012012120600000000055650000028403000000000028403000000000000000000000000000000050000000000  3020130102   02BW        2000000               000000000000000                                               3                         000000000000000  9562                               N                     01146 10020256        000004
12001784706000154TRANSPORTES WARTHA LTDA                                               0000000023701775200000000260010 0000000093637254009023450000442SAO2738461     201212312012121000000000055640000089000000000000089000000000000000000000000000000000050000000000  3020130102   02BW        2000000               000000000000000                                               3                         000000000000000  2738461                            N                     01146 10020256        000005
12003498897000202TELECOMUNICACOES DE SAO PAULO                                         0000000023702372800000000360082 0000000094102609019066000988658V36020469      201301012012121700000000055650000318541000000000318541000000000000000000000000000000050000000000  3020130102   02BW        2000000               000000000000000                                               3                         000000000000000  36020469                           N                     01146 10020256        000006
12059358770000153TRANS NEW ABC TRANSPORTADORA L                                        0000000023701193200000000698555 000000009420498000901323530843156562          201301022012121800000000055660000076600000000000076600000000000000000000000000000000050000000000  3020130102   02BW        2000000               000000000000000                                               3                         000000000000000  56562                              N                     01146 10020256        000007
12071154462000292POWER EXPRESS LOGISTICA E TRAN                                        0000000023703417700000000103896 00000000936372550090000000077470000342033     201212312012121000000000055640000013180000000000013180000000000000000000000000000000050000000000  3020130102   02BW        2000000               000000000000000                                               3                         000000000000000  034203                             N                     01146 10020256        000008
12013588077000176COOP DE TRANSP LOG INTEGRADA                                          0000000034100000 0000000000000  I000000000010368000000000000000               201301020000000000000000055660000234432000000000234432000000000000000000000000000000010010002012  3120130102   02BW        5000000               000000000000000                                               3109100020124051399662900019               10002012                           N                     01130 10020256        000009
12015244717000156STYLO ROL COM ROLAM                                                   0000000034100000 0000000000000  I000000000010369000000000000000               201212310000000000000000055640000015000000000000015000000000000000000000000000000000010000000207  3120130102   02BW        5000000               000000000000000                                               3109000000343076423057900079               207                                N                     01130 10020256        000010
12061217188000119TELAS METALICAS TELMETAL LTDA                                         0000000003300000000000000000000000000000923779510000004200000005977 3 3       201301022012112100000000055660000011837000000000011837000000000000000000000000000000050000000000  3020130102   02BW        2000000               000000000000000                                               3915435040000000048542020169               5977/03-03                         N                     01130 10020256        000011
12066899790000105FABRICA ARTEF LATEX ESTRELA EP                                        00000000399000000000000000000000000000009203848800000000000000083274 001      201212292012111400000000055620000091140000000000091140000000000000000000000000000000050000000000  3020130102   02BW        2000000               000000000000000                                               3176387759211125027292500119               83274/01                           N                     01130 10020256        000012
12007839659000185CABEMA CABOS DE ACO LTDA                                              00000000001000000000000000000000000000009314550800000010436200021815 1 1      201212312012113000000000055640000029318000000000029318000000000000000000000000000000050000000000  3020130102   02BW        2000000               000000000000000                                               3000000131520144281043621199               21815/01                           N                     01130 10020256        000013
12005079078000167NOVA ITAQUERA COM BORRAC LT ME                                        000000003410000000000000000000000000000093145519000000706598091003080NA       201212312012120300000000055640000021535000000000021535000000000000000000000000000000050000000000  3020130102   02BW        2000000               000000000000000                                               3157065980912650804628800059               3080                               N                     01130 10020256        000014
12002234917000186RODOVIARIO SOL NASCENTE LTDA                                          000000000010000000000000000000000000000093540015000000847643000035741         201212312012120600000000055640000060000000000000060000000000000000000000000000000000050000000000  3020130102   02BW        2000000               000000000000000                                               3044298476433028000124731129               035741                             N                     01130 10020256        000015
12071580302000124SANCHEPEL IND PAULISTA EMB L                                          0000000034100000000000000000000000000000935400120000002654973478267 01        201301022012120400000000055660000089545000000000089545000000000000000000000000000000050000000000  3020130102   02BW        2000000               000000000000000                                               3112654973471007855578600019               8267/01                            N                     01130 10020256        000016
900001700000000001223531                                                                                                                                                                                    000000000000000                                                                                                                                                                                                                                                    00001500834690001223531        000017
