0000147602043799295000110ALTAMIRA IND METALURGICA LTDA           20100458000002012080212061200000        2    230A                                                                                          000000000000000                                                                                                                                                                                                                                                                                   000001
12043292101000196ANHEMBI IND DE CAIXAS DE PAPELAV BENEDITO I PIRES 3605 JD MARANHAO    0671630023702671900000000031364 I000000000009298000000000000000               201208020000000000000000000000000000000000000000106191000000000000000000000000000000010000012887  0120120802   01HA        000                                                                                 3                                        00NF.NRO.012887/02                   N                     00000 10020256        000002
900000300000000000106191                                                                                                                                                                                    000000000000000                                                                                                                                                                                                                                                    00000100000000000000000        000003
