0000147602043799295000110ALTAMIRA INDUSTRIA METALURGICA LT       202000000009720120803055701             1                                                                                                                                                                                                                                                                                                                                                                                                    000001
12000193273000108TECELAGEM ROMA LTDA                                                   0000000023700284400000000410977 000000008374605000900000001581016213   A      201207272012062900000000054070000124248000000000126486000000000000000000000000002611050000000000  3020120802   06          3  RUA TAMAINDE 1410  1410                                                          3                         000000000000000                                     N                     00598  0000000        000002
12001784706000154TRANSPORTES WARTHA LTDA                                               0000000023701775200000000260010 0000000084172565009021910000314SAO2553051     201207302012070920120730054100000107094000000000098000000000000009094000000000000000050000000000  3020120730   06          3  RUA JUNO 533                                                                     300000000000909400000016  000000000000000                                     N                     00598  0000000        000003
12002460454000170AUT SERVICE COMERCIO E SERVICO                                        0000000023702591700000000007692 000000008321806000902174000000333816    2     201207312012062200000000054110000234958000000000248115000000000000000000000000013157050000000000  3020120803   01          2  JUNO 533                                                                         3                         000000000000000                                     N                     00598  0000000        000004
12005151518000140BELENUS DO BRASIL LTDA                                                0000000023703389800000000015091 0000000080649184009021300000522R126248432     201207292012043000000000054090000460800000000000466884000000000000000000000000007605050000000000  3020120802   06          3  RUA GANGES  528                                                                  3                         000000000000000                                     N                     00598  0000000        000005
12006000195000156M B A MERCANTIL BRASILEIRA DE                                         0000000023700118P00000002128292 00000000837460550090218400000020008760B01     201207272012062900000000054070000862785000000000862785000000000000000000000000000000050000000000  3020120727   06          3  RUA JUNO  533                                                                    3                         000000000000000                                     N                     00598  0000000        000006
12006000195000156M B A MERCANTIL BRASILEIRA DE                                         0000000023700118P00000002128292 00000000837460580090218400000090008753B01     201207272012062900000000054070000273651000000000273651000000000000000000000000000000050000000000  3020120727   06          3  RUA JUNO  533                                                                    3                         000000000000000                                     N                     00598  0000000        000007
12006000195000156M B A MERCANTIL BRASILEIRA DE                                         0000000023700118P00000002128292 00000000837460640090218400000210008735B01     201207302012062900000000054100000363851000000000363851000000000000000000000000000000050000000000  3020120730   06          3  RUA JUNO  533                                                                    3                         000000000000000                                     N                     00598  0000000        000008
12006000195000156M B A MERCANTIL BRASILEIRA DE                                         0000000000100000000000000000000000000000834820310000002571610000008656B01     201207222012062600000000054020000641947000000000641947000000000000000000000000000000050000000000  3020120723   05          3                                                                                   3043852571613333000105251119                                                  N                     01321  0000000        000009
12006000195000156M B A MERCANTIL BRASILEIRA DE                                         0000000000100000000000000000000000000000834820280000002571580000008655B01     201207212012062600000000054010000739628000000000739628000000000000000000000000000000050000000000  3020120723   05          3                                                                                   3043852571583333000105251179                                                  N                     01321  0000000        000010
12006000195000156M B A MERCANTIL BRASILEIRA DE                                         0000000023700118P00000002128292 00000000856906490090212800000360008181B03     201207302012050700000000054100001184938000000001184938000000000000000000000000000000050000000000  3020120803   01FS        1  RUA JUNO 533                                                                     3                         000000000000000                                     N                     00598  0000000        000011
12006000195000156M B A MERCANTIL BRASILEIRA DE                                         0000000023700118P00000002128292 00000000856906500090218400000020008760B01     201207272012062900000000054070000862785000000000862785000000000000000000000000000000050000000000  3020120803   01FS        1  RUA JUNO  533                                                                    3                         000000000000000                                     N                     00598  0000000        000012
12006000195000156M B A MERCANTIL BRASILEIRA DE                                         0000000023700118P00000002128292 00000000856906510090218400000090008753B01     201207272012062900000000054070000273651000000000273651000000000000000000000000000000050000000000  3020120803   01FS        1  RUA JUNO  533                                                                    3                         000000000000000                                     N                     00598  0000000        000013
12009121184000112BBGE COBRANCA LTDA                                                    0000000023700368900000001026402 00000000839452800090218600000842581 CC        201208022012062100000000054130000154100000000000154614000000000000000000000000000514050000000000  3020120803   01          2  RUA GANGES  528                         MACKVEN MAQUINAS INDUSTRIAIS LTDA EPP    3                         005441222000163                                     N                     00598  0000000        000014
12011202309000180FIEL TOOLS DISTRIBUIDORA DE MA                                        0000000023702087700000000000116 0000000083061574009000020181482008148 2       201207302012061800000000054100000046550000000000046550000000000000000000000000000000050000000000  3020120730   06          3  R TAMAINDE  1 410   RUA GANGES  520 E 52                                         3                         000000000000000                                     N                     00598  0000000        000015
12012006058000121WEG TINTAS LTDA                                                       0000000023702727800000000001309 00000000827244610090216600000700014454801     201207282012061300000000054080000306569000000000308609000000000000000000000000002448050000000000  3020120802   06          3  R JUNO  533                                                                      3                         000000000000000                                     N                     00598  0000000        000016
12012006058000121WEG TINTAS LTDA                                                       0000000023702727800000000001309 00000000828904020090217000001010014515401     201207302012061500000000054100000459854000000000461693000000000000000000000000002452050000000000  3020120802   06          3  R JUNO  533                                                                      3                         000000000000000                                     N                     00598  0000000        000017
12012006058000121WEG TINTAS LTDA                                                       0000000023702727800000000001309 00000000811374760090213800000970013814703     201207302012051600000000054100000306662000000000307886000000000000000000000000001632050000000000  3020120802   06          3  R JUNO  533                                                                      3                         000000000000000                                     N                     00598  0000000        000018
12012006058000121WEG TINTAS LTDA                                                       0000000023702727800000000001309 00000000812917760090214200000980013880203     201208012012051800000000054120000306662000000000307478000000000000000000000000000816050000000000  3020120803   01          2  R JUNO  533                                                                      3                         000000000000000                                     N                     00598  0000000        000019
12012006058000121WEG TINTAS LTDA                                                       0000000023702727800000000001309 00000000821490940090215600001070014231102     201207312012060100000000054110000459854000000000461693000000000000000000000000001839050000000000  3020120803   01          2  R JUNO  533                                                                      3                         000000000000000                                     N                     00598  0000000        000020
12012256386000186TOP TRAD SERVICOS DE TEXTOS LT                                        0000000023700200300000001062603 00000000850740700090132194025562718           201207272012071200000000054070000025600000000000026588000000000000000000000000000988050000000000  3020120803   01          2  R TAMANDE 1410                                                                   3                         000000000000000                                     N                     00598  0000000        000021
12035820448000136WHITE MARTINS GASES INDUSTRIAI                                        0000000023700026400000003937925 0000000084172562009021910000022348496 001     201208022012070700000000054130000040575000000000041440000000000000000000000000000865050000000000  3020120803   01          2  RUA GANGES  528                                                                  3                         000000000000000                                     N                     00598  0000000        000022
12042956441000101SOLUCOES ACO USIMINAS                                                 0000000034100000000000000000000000000000856906410000002262886280017266201     201208282012073000000000054390000119472000000000119472000000000000000000000000000000050000000000  3020120828   01FS        1                                                                                   3112262886289293807258000089                                                  N                     01321  0000000        000023
12042956441000101SOLUCOES ACO USIMINAS                                                 0000000034100000000000000000000000000000856906420000002262886290017266301     201208282012073000000000054390000145069000000000145069000000000000000000000000000000050000000000  3020120828   01FS        1                                                                                   3112262886297293807258000099                                                  N                     01321  0000000        000024
12042956441000101SOLUCOES ACO USIMINAS                                                 0000000034100000000000000000000000000000856906430000002262886300017266202     201209252012073000000000054670000119436000000000119436000000000000000000000000000000050000000000  3020120925   01FS        1                                                                                   3112262886305293807258000019                                                  N                     01321  0000000        000025
12042956441000101SOLUCOES ACO USIMINAS                                                 0000000034100000000000000000000000000000856906440000002262886310017266302     201209252012073000000000054670000145025000000000145025000000000000000000000000000000050000000000  3020120925   01FS        1                                                                                   3112262886313293807258000029                                                  N                     01321  0000000        000026
12042956441000101SOLUCOES ACO USIMINAS                                                 0000000034100000000000000000000000000000856906450000002262886320017266203     201210232012073000000000054950000119436000000000119436000000000000000000000000000000050000000000  3020121023   01FS        1                                                                                   3112262886321293807258000039                                                  N                     01321  0000000        000027
12042956441000101SOLUCOES ACO USIMINAS                                                 0000000034100000000000000000000000000000856906460000002262886330017266303     201210232012073000000000054950000145026000000000145026000000000000000000000000000000050000000000  3020121023   01FS        1                                                                                   3112262886339293807258000019                                                  N                     01321  0000000        000028
12042956441000101SOLUCOES ACO USIMINAS                                                 0000000034100000000000000000000000000000819544970000002078930800016239502     201207252012052900000000054050001126071000000001128323000000000000000000000000004504050000000000  3020120726   06          3                                                                                   3112078930800293807258000029                                                  N                     01321  0000000        000029
12042956441000101SOLUCOES ACO USIMINAS                                                 0000000034100000000000000000000000000000836417890000002164218350016738101     201207252012062700000000054050000830422000000000840388000000000000000000000000011627050000000000  3020120731   06          3                                                                                   3112164218359293807258000049                                                  N                     01321  0000000        000030
12043292101000196ANHEMBI  IND  DECAIXAS DE PAPE                                        0000000023702671900000000031364 000000008569065200902173000001212887 2        201207262012061400000000054060000103788000000000103788000000000000000000000000000000050000000000  3020120803   01FS        1  RUA TAMAINDE  1410                                                               3                         000000000000000                                     N                     00598  0000000        000031
12043389105000197AUTO POSTO MANCHESTER LTDA                                            00000000341000000000000000000000000000008569064700000090000253824770          201208082012080100000000054190000009008000000000009008000000000000000000000000000000050000000000  3020120808   01FS        1                                                                                   3109000025387810509793800099                                                  N                     01321  0000000        000032
12057158057000130COMERCIAL ELETRICA PJ LTDA                                            0000000023703394400000000972983 00000000842436850090219200008900000305028     201208012012070400000000054120000079196000000000079722000000000000000000000000000526050000000000  3020120803   01          2  R TAMAINDE 1410                                                                  3                         000000000000000                                     N                     00598  0000000        000033
12061683652000162TRANS FACE TRANSPORTES LTDA                                           0000000023700530400000000141828 0000000084895720009000000107009I000078506     201208022012071900000000054130000055000000000000055148000000000000000000000000000148050000000000  3020120803   01          2  R JUNO 553                                                                       3                         000000000000000                                     N                     00598  0000000        000034
12062340989000130EDICOES ADUANEIRAS LTDA                                               0000000023703090200000000015660 0000000079108230009080000035028004262 B       201207302012041100000000054100000043600000000000043816000000000000000000000000000288050000000000  3020120802   06          3  RUA TAMAINDE 1410 RUA GANGES 520 E 528                                           3                         000000000000000                                     N                     00598  0000000        000035
12069284248000128ISOCOAT TINTAS E VERNIZES LTDA                                        0000000034100000000000000000000000000000856906380000002259392820053390        201209142012073100000000054560000055579000000000055579000000000000000000000000000000050000000000  3020120914   01FS        1                                                                                   3112259392820077430121200029                                                  N                     01321  0000000        000036
12069284248000128ISOCOAT TINTAS E VERNIZES LTDA                                        0000000034100000000000000000000000000000856906390000002259392840053390        201210012012073100000000054730000048329000000000048329000000000000000000000000000000050000000000  3020121001   01FS        1                                                                                   3112259392846077430121200019                                                  N                     01321  0000000        000037
12069284248000128ISOCOAT TINTAS E VERNIZES LTDA                                        0000000034100000000000000000000000000000856906400000002259392850053390        201210152012073100000000054870000048342000000000048342000000000000000000000000000000050000000000  3020121015   01FS        1                                                                                   3112259392853077430121200019                                                  N                     01321  0000000        000038
12069309706000136F N A TRANSPORTES LTDA                                                000000003410000000000000000000000000000085690648000000900010323058700         201208152012073100000000054260000110303000000000110303000000000000000000000000000000050000000000  3020120815   01FS        1                                                                                   3109000103232005486932600059                                                  N                     01321  0000000        000039
12075483040000130REX MAQUINAS E EQUIPAMENTOS LT                                        0000000023702656500000000000701 000000008280180500202167000043473762 2 2      201208012012060600000000054120000434000000000000435446000000000000000000000000001446050000000000  3020120803   01          2  RUA  GANGES  528                                                                 3                         000000000000000                                     N                     00598  0000000        000040
12092693118000160BRADESCO SAUDE S A                                                    0000000023700448000000001533991 00000000829780050050100702629130000000000     201207202012061800000000054000000645861000000000651685000000000000000000000000005824050000000000  3020120803   01          2                                                                                   3                         000000000000000                                     N                     00598  0000000        000041
900004200000000012662613                                                                                                                                                                                                                                                                                                                                                                                                                                                                00598  0000000        000042
