0000147602043799295000110ALTAMIRA INDUSTRIA METALURGICA LT       202000000437020130103213146             3                                                                                                  000000000000000                                                                                                                                                                                                                                                                                   000001
11997198433000049ANTONIA PEREIRA DE SANTANA    TRAV TERRAS SUL 147 JD DA CONQUISTA     0834533023700298400000005101263 I000000000010373000000000000000               201301030000000000000000000000000000000000000000032348000000000000000000000000000000050000000013  0120130103   02BW        5000000               000000000000000                                               3                                          13                                 N                     01321 10020256        000002
11997198433000049ANTONIA PEREIRA DE SANTANA    TRAV TERRAS SUL 147 JD DA CONQUISTA     0834533023700298400000005101263 I000000000010372000000000000000               201301030000000000000000000000000000000000000000033348000000000000000000000000000000050000000001  0120130103   02BW        5000000               000000000000000                                               3                                          01                                 N                     01321 10020256        000003
12005246412000120SANDRA MARIA RODRIGUES MENDES                                         0000000023700298400000002058170 I000000000010370014002981870028               201301030000000000000000000000000000000000000000070500000000000000000000000000000000010000000617  3120130103   02BW        5000000               000000000000000                                               3029814029818700280205817089               0617                               N                     01146 10020256        000004
12033325184001786ALSCO TOALHEIRO BRASIL                                                0000000023703396000000001490850 0000000094102610009000002841405VM28414        201301032012121400000000055670000030444000000000030444000000000000000000000000000000050000000000  3020130103   02BW        2000000               000000000000000                                               3                         000000000000000  28414                              N                     01146 10020256        000005
12014978305000187MOGI FILME INDUSTRIA E COMERCI                                        0000000023700402200000001055003 0000000093256044009023390000007514         001201301032012120400000000055670000041975000000000041975000000000000000000000000000000050000000000  3020130103   02BW        2000000               000000000000000                                               3                         000000000000000  514/01                             N                     01146 10020256        000006
12059659615000177DZ COMERCIO R E SERVICOS LTDA                                         000000003410000000000000000000000000000094495465000000900000354307            201301032012121800000000055670000060000000000000060000000000000000000000000000000000050000000000  3020130103   02BW        2000000               000000000000000                                               3109000003548000314585100079               307                                N                     01130 10020256        000007
12001162151000109SUKIRA COM IMP EXP LTDA                                               0000000000100000 0000000000000  I000000000010371000000000000000               201301030000000000000000055670000031190000000000031190000000000000000000000000000000010017534133  3120130103   02BW        5000000               000000000000000                                               3000000112481744304053811199               17534133                           N                     01130 10020256        000008
12061217188000119TELAS METALICAS TELMETAL LTDA                                         0000000000100000000000000000000000000000931455110000000059870006072 2 3       201301032012113000000000055670000014285000000000014285000000000000000000000000000000050000000000  3020130103   02BW        2000000               000000000000000                                               3000000115031800000059871779               6072/02-03                         N                     01130 10020256        000009
12061217188000119TELAS METALICAS TELMETAL LTDA                                         0000000000100000000000000000000000000000931455140000000059900006073 2 3       201301032012113000000000055670000101141000000000101141000000000000000000000000000000050000000000  3020130103   02BW        2000000               000000000000000                                               3000000115031800000059901739               6073/02-03                         N                     01130 10020256        000010
12061217188000119TELAS METALICAS TELMETAL LTDA                                         0000000034100000000000000000000000000000925640570000009000000155999 3 3       201301032012112200000000055670000069094000000000069094000000000000000000000000000000050000000000  3020130103   02BW        2000000               000000000000000                                               3109000000156077099894600089               5999/03-03                         N                     01130 10020256        000011
12061475927000172NIQ CROM BRILHANTE LTDA                                               0000000034100000000000000000000000000000936372240000002657580125559           201301032012120700000000055670000108971000000000108971000000000000000000000000000000050000000000  3020130103   02BW        2000000               000000000000000      NIQ CROM BRILHANTE LTDA                  3112657580125046770270000039               5559                               N                     01130 10020256        000012
12005502645000146TRANS GERALE TRANSPORTES LTDA                                         000000003410000000000000000000000000000094311048000000269495535497 12         201301032012121700000000055670000064060000000000064060000000000000000000000000000000050000000000  3020130103   02BW        2000000               000000000000000      TRANS-GERALE TRANSPORTES LTDA            3112694955355035522320700099               1826/1818                          N                     01130 10020256        000013
900001400000000000657356                                                                                                                                                                                    000000000000000                                                                                                                                                                                                                                                    00001200501030000521160        000014
