0000147602043799295000110ALTAMIRA IND METALURGICA LTDA           20100518000002012100317320200000        2    230A                                                                                          000000000000000                                                                                                                                                                                                                                                                                   000001
12004643290000142FLEXTINTAS IND  E COM  LTDA   ESTRADA DR  IRINEU DE RESENDE KM 2 5    1812597034100000 0000000000000  I000000000009978000000000000000               201210030000000000000000054750000318048000000000318048000000000000000000000000000000010000036591  3120121003   01HA        000                                                                                 3181553276277051356781800019             00036591/01                          N                     00000 10020256        000002
12002954207000120BENZOL COM MAT ESP P LIMPEZA LRUA  FAUTOLO  1760                      0504100100100000 0000000000000  I000000000009979000000000000000               201210030000000000000000054750000091840000000000091840000000000000000000000000000000010000004292  3120121003   01HA        000                                                                                 3852632000000000000019852189             004292                               N                     00000 10020256        000003
12061100202000108COFIPE VEICULOS LTDA          AV PRES CASTELO BRANCO  3333   C        0303600239900000 0000000000000  I000000000009980000000000000000               201210030000000000000000054750000042064000000000042064000000000000000000000000000000010097012209  3120121003   01HA        000                                                                                 3320005133410343608018900119             0097012209                           N                     00000 10020256        000004
12007068566000102NIVEL EMPREGOS LTDA           AV CELSO GARCIA 3830                    0306400023700097300000003053792 I000000000009981000000000000000               201210030000000000000000000000000000000000000000100000000000000000000000000000000000010000002778  0120121003   01HA        000                                                                                 3                                        00NF.NRO.2778 - PARC.02.             N                     00000 10020256        000005
900000600000000000551952                                                                                                                                                                                    000000000000000                                                                                                                                                                                                                                                    00000400164250000451952        000006
