0000147602043799295000110ALTAMIRA IND METALURGICA LTDA           20100460000002012080316181900000        2    230A                                                                                          000000000000000                                                                                                                                                                                                                                                                                   000001
11997198433000049ANTONIA PEREIRA DE SANTANA    TRAV TERRAS SUL 147 JD DA CONQUISTA     0834533023700298400000005101263 I000000000009339000000000000000               201208030000000000000000000000000000000000000000032270000000000000000000000000000000050000062012  0120120803   01HA        000                                                                                 3                                        00REF.06/2012.                       N                     00000 10020256        000002
12056993900000131CIA METALURGICA PRADA                                                 0000000034100000 0000000000000  I000000000009340000000000000000               201208030000000000000000054140000405402000000000405402000000000000000000000000000000010000254193  3120120803   01HA        000                                                                                 3181516613688293800573900089             000254193/01                         N                     00000 10020256        000003
12056993900000131CIA METALURGICA PRADA                                                 0000000034100000 0000000000000  I000000000009341000000000000000               201208030000000000000000054140000325393000000000325393000000000000000000000000000000010000254194  3120120803   01HA        000                                                                                 3181516614546293800573900019             000254194/01                         N                     00000 10020256        000004
12056993900000131CIA METALURGICA PRADA                                                 0000000034100000 0000000000000  I000000000009342000000000000000               201208030000000000000000054140000512250000000000512250000000000000000000000000000000010000246347  3120120803   01HA        000                                                                                 3181516603978293800573900029             000246347/02                         N                     00000 10020256        000005
12056993900000131CIA METALURGICA PRADA                                                 0000000034100000 0000000000000  I000000000009343000000000000000               201208030000000000000000054140000458882000000000458882000000000000000000000000000000010000253843  3120120803   01HA        000                                                                                 3181516605890293800573900099             000253843/01                         N                     00000 10020256        000006
12056993900000131CIA METALURGICA PRADA                                                 0000000034100000 0000000000000  I000000000009344000000000000000               201208030000000000000000054140000266276000000000266276000000000000000000000000000000010000246348  3120120803   01HA        000                                                                                 3181516607185293800573900079             000246348/02                         N                     00000 10020256        000007
12056993900000131CIA METALURGICA PRADA                                                 0000000034100000 0000000000000  I000000000009345000000000000000               201208030000000000000000054140000249458000000000249458000000000000000000000000000000010024634202  3120120803   01HA        000                                                                                 3181516608449293800573900039             000246342/02                         N                     00000 10020256        000008
12056993900000131CIA METALURGICA PRADA                                                 0000000034100000 0000000000000  I000000000009346000000000000000               201208030000000000000000054140000136810000000000136810000000000000000000000000000000010000246341  3120120803   01HA        000                                                                                 3181516609579293800573900019             000246341/02                         N                     00000 10020256        000009
12056993900000131CIA METALURGICA PRADA                                                 0000000034100000 0000000000000  I000000000009347000000000000000               201208030000000000000000054140000125547000000000125547000000000000000000000000000000010000246346  3120120803   01HA        000                                                                                 3181516610825293800573900069             000246346/02                         N                     00000 10020256        000010
12056993900000131CIA METALURGICA PRADA                                                 0000000034100000 0000000000000  I000000000009348000000000000000               201208030000000000000000054140000580699000000000580699000000000000000000000000000000010000253835  3120120803   01HA        000                                                                                 3181516602962293800573900099             000253835/01                         N                     00000 10020256        000011
12012006058000121WEG TINTAS LTDA               ROD  BR  280   KM 50   S N              8927000023702727800000000001309 I000000000009349009021560000107               201208030000000000000000054140000461693000000000461693000000000000000000000000000000010000142311  3120120803   01HA        000                                                                                 3272709215600001070000130019             000142311/02                         N                     00000 10020256        000012
12012006058000121WEG TINTAS LTDA               ROD  BR  280   KM 50   S N              8927000023702727800000000001309 I000000000009350009021420000098               201208030000000000000000054140000307478000000000307478000000000000000000000000000000010000138802  3120120803   01HA        000                                                                                 3272709214200000980000130099             000138802/03                         N                     00000 10020256        000013
12002460454000170AUT SERVICE COM  E SERVICOS LTR CORONEL BENTO BICUDO 921              0291200023702591700000000007692 I000000000009351009021740000003               201208030000000000000000054140000248115000000000248115000000000000000000000000000000010000033816  3120120803   01HA        000                                                                                 3259109217400000030000769019             00033816/02                          N                     00000 10020256        000014
12013656578000142GUARINOR TRANSP E LOGISTICA LT                                        0000000010400000 0000000000000  I000000000009353000000000000000               201208030000000000000000054140000282500000000000282500000000000000000000000000000000010000000477  3120120803   01HA        000                                                                                 3900000044832958700000017399             000477/12                            N                     00000 10020256        000015
12042956441000101SOLUCOES EM ACO USIMINAS S A  RUA  DIANOPOLIS  670 710                0312510034100000 0000000000000  I000000000009355000000000000000               201208030000000000000000054140001149981000000001149981000000000000000000000000000000010000158031  3120120803   01HA        000                                                                                 3181516589604293807258000039             000158031/03                         N                     00000 10020256        000016
12042956441000101SOLUCOES EM ACO USIMINAS S A  RUA  DIANOPOLIS  670 710                0312510034100000 0000000000000  I000000000009356000000000000000               201208030000000000000000054140000976462000000000976462000000000000000000000000000000010000168144  3120120803   01HA        000                                                                                 3181516592731293807258000079             000168144/01                         N                     00000 10020256        000017
12042956441000101SOLUCOES EM ACO USIMINAS S A  RUA  DIANOPOLIS  670 710                0312510034100000 0000000000000  I000000000009357000000000000000               201208030000000000000000054140000708845000000000708845000000000000000000000000000000010000168271  3120120803   01HA        000                                                                                 3181516594000293807258000089             000168271/01                         N                     00000 10020256        000018
12042956441000101SOLUCOES EM ACO USIMINAS S A  RUA  DIANOPOLIS  670 710                0312510034100000 0000000000000  I000000000009358000000000000000               201208030000000000000000054140000649057000000000649057000000000000000000000000000000010000168297  3120120803   01HA        000                                                                                 3181516595155293807258000039             000168297/01                         N                     00000 10020256        000019
12042956441000101SOLUCOES EM ACO USIMINAS S A  RUA  DIANOPOLIS  670 710                0312510034100000 0000000000000  I000000000009359000000000000000               201208030000000000000000054140000439191000000000439191000000000000000000000000000000010000157997  3120120803   01HA        000                                                                                 3181516596070293807258000059             000157997/03                         N                     00000 10020256        000020
12042956441000101SOLUCOES EM ACO USIMINAS S A  RUA  DIANOPOLIS  670 710                0312510034100000 0000000000000  I000000000009360000000000000000               201208030000000000000000054140000325205000000000325205000000000000000000000000000000010000168298  3120120803   01HA        000                                                                                 3181516597730293807258000089             000168298/01                         N                     00000 10020256        000021
12042956441000101SOLUCOES EM ACO USIMINAS S A  RUA  DIANOPOLIS  670 710                0312510034100000 0000000000000  I000000000009361000000000000000               201208030000000000000000054140000230443000000000230443000000000000000000000000000000010000157998  3120120803   01HA        000                                                                                 3181516599546293807258000059             000157998/03                         N                     00000 10020256        000022
12042956441000101SOLUCOES EM ACO USIMINAS S A  RUA  DIANOPOLIS  670 710                0312510034100000 0000000000000  I000000000009362000000000000000               201208030000000000000000054140000196666000000000196666000000000000000000000000000000010000157999  3120120803   01HA        000                                                                                 3181516600559293807258000089             000157999/03                         N                     00000 10020256        000023
12017469701000177ARCELORMITTAL BRASIL S A                                              0000000034100000 0000000000000  I000000000009369000000000000000               201208030000000000000000054140000064003000000000064003000000000000000000000000000000010000124632  3120120803   01HA        000                                                                                 3181516616716293802529900029             000124632/02                         N                     00000 10020256        000024
900002500000000009132626                                                                                                                                                                                    000000000000000                                                                                                                                                                                                                                                    00002301191080009100356        000025
