0000147602043799295000110ALTAMIRA INDUSTRIA METALURGICA LT       202000000013920121003060027             1                                                                                                                                                                                                                                                                                                                                                                                                    000001
12000365592000145AMPRO LABORATORIO E ENGENHARIA                                        00000000001000000000000000000000000000008723186200000000520500003316A         201209292012083100000000054710000083233000000000085561000000000000000000000000002328050000000000  3020121003   01          2                                                                                   3000000133159100000052051749                                                  N                     01321  0000000        000002
12001852612000175BT EQUIPAMENTOS INDUSTRIAIS LT                                        000000000330000000000000000000000000000087577366000000610000000594061         201210012012090600000000054730000041502000000000041752000000000000000000000000000250050000000000  3020121003   01          2                                                                                   3913651000000000594061010479                                                  N                     01321  0000000        000003
12001895314000162COLETA INDUSTRIAL FIMAVAN LTDA                                        0000000034100000000000000000000000000000866992070000009002335349439           201208272012081700000000054380000123695000000000138342000000000000000000000000014647050000000000  3020121003   01          2                                                                                   3109002335346144604097200019                                                  N                     01321  0000000        000004
12001895314000162COLETA INDUSTRIAL FIMAVAN LTDA                                        00000000341000000000000000000000000000008844324600000090023445310405          201209272012091700000000054690000158141000000000163830000000000000000000000000005689050000000000  3020121003   01          2                                                                                   3109002344538144604097200029                                                  N                     01321  0000000        000005
12002269980000158PANKRO LOGISTICA E TRANSPORTES                                        000000003410000000000000000000000000000087168274000000235032900181 12         201209192012073100000000054610000300000000000000300000000000000000000000000000000000050000000000  3020120919   05          3                                                                                   3112350329002315090027600029                                                  N                     01321  0000000        000006
12002269980000158PANKRO LOGISTICA E TRANSPORTES                                        000000003410000000000000000000000000000088012260000000237715331194B           201209192012080300000000054610000145000000000000145000000000000000000000000000000000050000000000  3020120919   05          3                                                                                   3112377153310315090027600029                                                  N                     01321  0000000        000007
12002460454000170AUT SERVICE COMERCIO E SERVICO                                        0000000023702591700000000007692 000000008515292000901322060028234532 2        201209172012072400000000054590000238750000000000258335000000000000000000000000019585050000000000  3020121003   01          2  RUA JUNO  533                                                                    3                         000000000000000                                     N                     00598  0000000        000008
12002469103000120COMPROCRED FOMENTO MERCANTIL L                                        0000000023703511400000000106739 0000000088012259002022550000043022145 12      201210012012090500000000054730000093000000000000093620000000000000000000000000000620050000000000  3020121003   01          2  RUA TAMAINDE 1410 VILA NOVA MANCH SAO PATRANSPORTADORA FIOROT LTDA               3                         000252984000106                                     N                     00598  0000000        000009
12002503185000182ANDAIMES MAQUINAS BIG LTDA EPP                                        0000000034100000000000000000000000000000874070480000002313590765101           201209142012082000000000054560000016500000000000017039000000000000000000000000000539050000000000  3020121003   01          2                                                                                   3112313590765650303800900019                                                  N                     01321  0000000        000010
12002503185000182ANDAIMES MAQUINAS BIG LTDA EPP                                        000000003410000000000000000000000000000086282613000000228719913011660         201208302012081000000000054410000012000000000000012512000000000000000000000000000512050000000000  3020121003   01          2                                                                                   3112287199130650303800900039                                                  N                     01321  0000000        000011
12002503185000182ANDAIMES E MAQUINAS BIG LTDA                                          000000003410000000000000000000000000000087820531000000233954448011791         201209212012082700000000054630000026000000000000026724000000000000000000000000000724050000000000  3020121003   01          2                                                                                   3112339544481925303435000019                                                  N                     01321  0000000        000012
12002558199000101OMEGA TUBOS COMERCIAL LTDA                                            0000000003300000000000000000000000000000874070730000004200000000028157B01     201210022012082800000000054740000149856000000000150355000000000000000000000000000499050000000000  3020121003   01          2                                                                                   3947509770000000098442020359                                                  N                     01321  0000000        000013
12003489596000123BEND FLEX I COMERCIO LTDA                                             000000003410000000000000000000000000000088957854000000172413968615            201209212012082300000000054630000582750000000000596502000000000000000000000000013752050000000000  3020121003   01          2                                                                                   3191724139685157734445800049                                                  N                     01321  0000000        000014
12003489596000123BEND FLEX I COMERCIO LTDA                                             000000003410000000000000000000000000000088350832000000171879874608            201209122012082100000000054540000695250000000000723957000000000000000000000000028707050000000000  3020121003   01          2                                                                                   3191718798744157734445800069                                                  N                     01321  0000000        000015
12003489596000123BEND FLEX I COMERCIO LTDA                                             000000003410000000000000000000000000000088599899000000171434574613            201209172012081600000000054590000585000000000000603416000000000000000000000000018416050000000000  3020121003   01          2                                                                                   3191714345748157734445800019                                                  N                     01321  0000000        000016
12003489596000123BEND FLEX I COMERCIO LTDA                                             000000003410000000000000000000000000000087231864000000793891785617            201210012012090300000000054730000722200000000000739484000000000000000000000000017284050000000000  3020121003   01          2                                                                                   3157938917859157734445800069                                                  N                     01321  0000000        000017
12005214618000178VISION GESTAO EMP E FOM MERCAN                                        0000000023700088400000000730084 0000000087820601002000880016153000218         201209272012090300000000054690000130000000000000131300000000000000000000000000001560050000000000  3020121002   06          3  RUA TAMAINDE  1410  VILA NOVA MANCHESTERCORREA MONTAGENS INDUSTRIAIS LTDA   EPP  3                         012711129000197                                     N                     00598  0000000        000018
12005335228000156DINAMICA INF E TELECOM LTDA EP                                        0000000023703257300000000503215 0000000088443245009032570017396MO008960A      201209302012091700000000054720000020000000000000020201000000000000000000000000000201050000000000  3020121003   01          2  RUA JUNO  533                                                                    3                         000000000000000                                     N                     00598  0000000        000019
12005852768000107DAOUD LEAL ELETRONICA LTDA ME                                         000000003410000000000000000000000000000089337382000000615297518OUTUBRO        201210262012100200000000054980000016558000000000016558000000000000000000000000000000050000000000  3020121026   01FS        1                                                                                   3156152975181152944476000059                                                  N                     01321  0000000        000020
12005852768000107DAOUD LEAL ELETRONICA LTDA ME                                         00000000033000000000000000000000000000008757736700000021000000000000000001097 201209262012090500000000054680000016558000000000017274000000000000000000000000000716050000000000  3020121003   01          2                                                                                   3949927090000000027421010429                                                  N                     01321  0000000        000021
12005880850000145NEDERMAN BRASIL COM PROD EX LT                                        000000003410000000000000000000000000000086373178000000614350956002763 A       201209252012081400000000054670000289674000000000294234000000000000000000000000004560050000000000  3020121003   01          2                                                                                   3156143509568160829000100049                                                  N                     01321  0000000        000022
12006000195000156MBA MERCANTIL BRAS DE ACO LTDA                                        0000000034100000000000000000000000000000885998980000001667238420008870B02     201209112012071600000000054530000839952000000000876296000000000000000000000000036344050000000000  3020121003   01          2                                                                                   3191667238429064849251000039                                                  N                     01321  0000000        000023
12006000195000156MBA MERCL BRASILEIRA ACO LTDA                                         0000000042200000000000000000000000000000859590590000000000000000009051B02     201209262012080300000000054680000180457000000000182563000000000000000000000000002106050000000000  3020121003   01          2                                                                                   3701600007451936910173842159                                                  N                     01321  0000000        000024
12006000195000156MBA MERCANTIL BRAS DE ACO LTDA                                        0000000034100000000000000000000000000000886866570000001667238410008874B02     201209132012071600000000054550000802826000000000834406000000000000000000000000031580050000000000  3020121003   01          2                                                                                   3191667238411064849251000049                                                  N                     01321  0000000        000025
12006000195000156MBA MERCANTIL BRAS DE ACO LTDA                                        0000000034100000000000000000000000000000887698080000001667238400008876B02     201209142012071600000000054560000810321000000000840607000000000000000000000000030286050000000000  3020121003   01          2                                                                                   3191667238403064849251000059                                                  N                     01321  0000000        000026
12006000195000156MBA MERCANTIL BRAS DE ACO LTDA                                        0000000034100000000000000000000000000000887698090000001671394550008925B02     201209142012071700000000054560000719581000000000746466000000000000000000000000026885050000000000  3020121003   01          2                                                                                   3191671394556064849251000089                                                  N                     01321  0000000        000027
12006000195000156MBA MERCANTIL BRAS DE ACO LTDA                                        0000000034100000000000000000000000000000887698100000001671394560008926B02     201209142012071700000000054560000387716000000000402213000000000000000000000000014497050000000000  3020121003   01          2                                                                                   3191671394564064849251000019                                                  N                     01321  0000000        000028
12006000195000156MBA MERCANTIL BRAS DE ACO LTDA                                        0000000034100000000000000000000000000000889578520000001671394540008920B02     201209162012071700000000054580000576585000000000595863000000000000000000000000019278050000000000  3020121003   01          2                                                                                   3191671394549064849251000099                                                  N                     01321  0000000        000029
12006000195000156M B A MERCANTIL BRASILEIRA DE                                         0000000000100000000000000000000000000000841061000000008760980000008769B03     201209282012070500000000054700000623994000000000629194000000000000000000000000005200050000000000  3020121003   01          2                                                                                   3043878760983333000105251189                                                  N                     01321  0000000        000030
12006000195000156M B A MERCANTIL BRASILEIRA DE                                         0000000000100000000000000000000000000000855028910000007952930000009010B02     201209272012073000000000054690000275046000000000277794000000000000000000000000002748050000000000  3020121003   01          2                                                                                   3043937952933333000105251119                                                  N                     01321  0000000        000031
12006000195000156M B A MERCANTIL BRASILEIRA DE                                         0000000023700118P00000002130599 00000000865388310020222900000520009206B01     201209152012081500000000054570000606694000000000611749000000000000000000000000006066050000000000  3020120920   06          3  RUA JUNO  533                                                                    3                         000000000000000                                     N                     00598  0000000        000032
12006000195000156MBA MERCANTIL BRAS DE ACO LTDA                                        0000000034100000000000000000000000000000884432620000002398047860009541B01     201210112012091320121011054830000808555000000000183977000000000624578000000000000000050000000000  3020121011   01          2                                                                                   3112398047863064899001800019                                                  N                     01321  0000000        000033
12007175725000160WEG EQUIPAMENTOS ELETRICOS SA                                         0000000023702727800000000196800 00000000832180610090217400004980095359902     201209202012052300000000054620000272787000000000277506000000000000000000000000004719050000000000  3020121003   01          2  R JUNO  533                                                                      3                         000000000000000                                     N                     00598  0000000        000034
12008508119000181DINARI FOMENTO MERCANTIL LTDA                                         000000004220000000000000000000000000000087820582000000000000000235            201209282012083000000000054700000220000000000000223300000000000000000000000000003300050000000000  3020121003   01          2                                                                                   3702000009323370918215242159                                                  N                     01321  0000000        000035
12009419898000101LUSITANO INDUSTRIA C E P LTDA                                         00000000341000000000000000000000000000008653882000000090000757101 10137 2     201209192012081500000000054610000035135000000000036773000000000000000000000000001638050000000000  3020121003   01          2                                                                                   3109000075716001160072300049                                                  N                     01321  0000000        000036
12009441975000120SPEEDY CRED FOMENTO MERCANTIL                                         0000000023700094900000000990744 00000000869071000020132236074912868 AA        201209182012082300000000054600000064000000000000069376000000000000000000000000005760050000000000  3020121002   06          3  RUA TAMAINDE 1410                       MACKVEN MAQUINAS INDUSTRIAIS LTDA EPP    3                         005441222000163                                     N                     00598  0000000        000037
12012006058000121WEG TINTAS LTDA                                                       0000000023702727800000000001309 00000000861207260090222200000900015775001     201209222012080800000000054640000306569000000000311057000000000000000000000000004488050000000000  3020121003   01          2  R JUNO  533                                                                      3                         000000000000000                                     N                     00598  0000000        000038
12012006058000121WEG TINTAS LTDA                                                       0000000023702727800000000001309 00000000847452150090220000000920015248102     201209152012071700000000054570000306569000000000313913000000000000000000000000007344050000000000  3020121003   01          2  R JUNO  533                                                                      3                         000000000000000                                     N                     00598  0000000        000039
12012006058000121WEG TINTAS LTDA                                                       0000000023702727800000000001309 00000000847452160090220000000930015248103     201209302012071700000000054720000306662000000000307886000000000000000000000000001224050000000000  3020121003   01          2  R JUNO  533                                                                      3                         000000000000000                                     N                     00598  0000000        000040
12012006058000121WEG TINTAS LTDA                                                       0000000023702727800000000001309 00000000849855330090220500001210015343102     201209182012072000000000054600000306569000000000312689000000000000000000000000006120050000000000  3020121003   01          2  R JUNO  533                                                                      3                         000000000000000                                     N                     00598  0000000        000041
12012006058000121WEG TINTAS LTDA                                                       0000000023702727800000000001309 00000000854049540090221200001000015513001     201209102012072700000000054520000459854000000000473953000000000000000000000000014099050000000000  3020121003   01          2  R JUNO  533                                                                      3                         000000000000000                                     N                     00598  0000000        000042
12012006058000121WEG TINTAS LTDA                                                       0000000023702727800000000001309 00000000854049550090221200001010015513002     201209252012072700000000054670000459854000000000464758000000000000000000000000004904050000000000  3020121003   01          2  R JUNO  533                                                                      3                         000000000000000                                     N                     00598  0000000        000043
12012006058000121WEG TINTAS LTDA                                                       0000000023702727800000000001309 00000000856071250090221400000820015587301     201209142012073100000000054560000459854000000000471501000000000000000000000000011647050000000000  3020121003   01          2  R JUNO  533                                                                      3                         000000000000000                                     N                     00598  0000000        000044
12012006058000121WEG TINTAS LTDA                                                       0000000023702727800000000001309 00000000856071260090221400000830015587302     201209292012073100000000054710000459854000000000462306000000000000000000000000002452050000000000  3020121003   01          2  R JUNO  533                                                                      3                         000000000000000                                     N                     00598  0000000        000045
12012006058000121WEG TINTAS LTDA                                                       0000000023702727800000000001309 00000000841061130090218800000850014990203     201209182012070500000000054600000306662000000000312782000000000000000000000000006120050000000000  3020121003   01          2  R JUNO  533                                                                      3                         000000000000000                                     N                     00598  0000000        000046
12012006058000121WEG TINTAS LTDA                                                       0000000023702727800000000001309 00000000842436840090219200000860015068803     201209222012070900000000054640000306662000000000311150000000000000000000000000004488050000000000  3020121003   01          2  R JUNO  533                                                                      3                         000000000000000                                     N                     00598  0000000        000047
12012006058000121WEG TINTAS LTDA                                                       0000000023702727800000000001309 00000000844839230090219500000720015168702     201209102012071200000000054520000306569000000000315953000000000000000000000000009384050000000000  3020121003   01          2  R JUNO  533                                                                      3                         000000000000000                                     N                     00598  0000000        000048
12012006058000121WEG TINTAS LTDA                                                       0000000023702727800000000001309 00000000844839240090219500000730015168703     201209252012071200000000054670000306662000000000309926000000000000000000000000003264050000000000  3020121003   01          2  R JUNO  533                                                                      3                         000000000000000                                     N                     00598  0000000        000049
12012006058000121WEG TINTAS LTDA                                                       0000000023702727800000000001309 00000000864554440090222800000730015908401     201209282012081400000000054700000306569000000000308609000000000000000000000000002040050000000000  3020121003   01          2  R JUNO  533                                                                      3                         000000000000000                                     N                     00598  0000000        000050
12014309992000148WEG DRIVES   CONTROLS   AUTOMA                                        0000000023702727800000000001872 00000000828904050090217000002200005763302     201209152012051800000000054570000272992000000000279526000000000000000000000000006534050000000000  3020121003   01          2  R JUNO  533                                                                      3                         000000000000000                                     N                     00598  0000000        000051
12014775592000128HELIO ADRIANO DA SILVA ME                                             0000000003300000000000000000000000000000880122770000004900000008565 8566      201209282012091000000000054700000034500000000000035304000000000000000000000000000804050000000000  3020121003   01          2                                                                                   3956114740000000000049010129                                                  N                     01321  0000000        000052
12033325184001786ALSCO TOALHEIRO BRASIL                                                0000000023703396000000001490850 0000000087820607009000002716505VM27165        201209262012090600000000054680000045665000000000045987000000000000000000000000000322050000000000  3020121003   01          2  RUA  GANGES 528                                                                  3                         000000000000000                                     N                     00598  0000000        000053
12035820448000136WHITE MARTINS GASES INDUSTRIAI                                        0000000023700026400000003937925 0000000086538817009022290001168366855 001     201209112012081600000000054530000121725000000000127723000000000000000000000000005998050000000000  3020121003   01          2  RUA GANGES  528                                                                  3                         000000000000000                                     N                     00598  0000000        000054
12035820448000136WHITE MARTINS GASES INDUSTRIAI                                        0000000023700026400000003937925 0000000086699210009022330000393368126 001     201209142012081800000000054560000162300000000000169650000000000000000000000000007350050000000000  3020121003   01          2  RUA GANGES  528                                                                  3                         000000000000000                                     N                     00598  0000000        000055
12035820448000136WHITE MARTINS GASES INDUSTRIAI                                        0000000023700026400000003937925 0000000086812633009022350001453369229 001     201209182012082200000000054600000056805000000000059081000000000000000000000000002276050000000000  3020121003   01          2  RUA GANGES  528                                                                  3                         000000000000000                                     N                     00598  0000000        000056
12035820448000136WHITE MARTINS GASES INDUSTRIAI                                        0000000023700026400000003937925 0000000086907101009022370010705372273 001     201209202012082400000000054620000017600000000000018251000000000000000000000000000651050000000000  3020121003   01          2  RUA GANGES  528                                                                  3                         000000000000000                                     N                     00598  0000000        000057
12035820448000136WHITE MARTINS GASES INDUSTRIAI                                        0000000023700026400000003937925 0000000086907102009022370011747372774 001     201209202012082400000000054620000040575000000000042088000000000000000000000000001513050000000000  3020121003   01          2  RUA GANGES  528                                                                  3                         000000000000000                                     N                     00598  0000000        000058
12035820448000136WHITE MARTINS GASES INDUSTRIAI                                        0000000023700026400000003937925 0000000087067052009022420002594374120 001     201209252012082900000000054670000113610000000000117090000000000000000000000000003480050000000000  3020121003   01          2  RUA GANGES  528                                                                  3                         000000000000000                                     N                     00598  0000000        000059
12035820448000136WHITE MARTINS GASES INDUSTRIAI                                        0000000023700026400000003937925 0000000087168275009022440000143375351 001     201209272012083100000000054690000040575000000000041710000000000000000000000000001135050000000000  3020121003   01          2  RUA GANGES  528                                                                  3                         000000000000000                                     N                     00598  0000000        000060
12035820448000136WHITE MARTINS GASES INDUSTRIAI                                        0000000023700026400000003937925 0000000087577331009022500001416377141 001     201210022012090600000000054740000040575000000000041400000000000000000000000000000825050000000000  3020121003   01          2  RUA GANGES  528                                                                  3                         000000000000000                                     N                     00598  0000000        000061
12042956441000101SOLUCOES ACO USIMINAS                                                 0000000034100000000000000000000000000000848180700000002220192900017041002     201209112012071700000000054530000155433000000000162275000000000000000000000000006842050000000000  3020121003   01          2                                                                                   3112220192903293807258000029                                                  N                     01321  0000000        000062
12042956441000101SOLUCOES ACO USIMINAS                                                 0000000034100000000000000000000000000000848180710000002220192910017041202     201209112012071700000000054530000205421000000000214463000000000000000000000000009042050000000000  3020121003   01          2                                                                                   3112220192911293807258000019                                                  N                     01321  0000000        000063
12042956441000101SOLUCOES ACO USIMINAS                                                 0000000034100000000000000000000000000000850740460000002233586800017127201     201208202012072000000000054310000137881000000000150025000000000000000000000000012144050000000000  3020121003   01          2                                                                                   3112233586802293807258000019                                                  N                     01321  0000000        000064
12042956441000101SOLUCOES ACO USIMINAS                                                 0000000034100000000000000000000000000000850740470000002233586810017101002     201209142012071900000000054560000732575000000000760410000000000000000000000000027835050000000000  3020121003   01          2                                                                                   3112233586810293807258000019                                                  N                     01321  0000000        000065
12042956441000101SOLUCOES ACO USIMINAS                                                 0000000034100000000000000000000000000000850740480000002233586820017101202     201209142012071900000000054560000144634000000000150125000000000000000000000000005491050000000000  3020121003   01          2                                                                                   3112233586828293807258000029                                                  N                     01321  0000000        000066
12042956441000101SOLUCOES ACO USIMINAS                                                 0000000034100000000000000000000000000000850740490000002233586830017126902     201209172012072000000000054590000208392000000000215064000000000000000000000000006672050000000000  3020121003   01          2                                                                                   3112233586836293807258000089                                                  N                     01321  0000000        000067
12042956441000101SOLUCOES ACO USIMINAS                                                 0000000034100000000000000000000000000000850740500000002233586840017127002     201209172012072000000000054590000190428000000000196524000000000000000000000000006096050000000000  3020121003   01          2                                                                                   3112233586844293807258000019                                                  N                     01321  0000000        000068
12042956441000101SOLUCOES ACO USIMINAS                                                 0000000034100000000000000000000000000000850740510000002233586850017127102     201209172012072000000000054590000167727000000000173087000000000000000000000000005360050000000000  3020121003   01          2                                                                                   3112233586851293807258000039                                                  N                     01321  0000000        000069
12042956441000101SOLUCOES ACO USIMINAS                                                 0000000034100000000000000000000000000000855028670000002254329360017200402     201209202012072600000000054620000163224000000000167462000000000000000000000000004238050000000000  3020121003   01          2                                                                                   3112254329363293807258000069                                                  N                     01321  0000000        000070
12042956441000101SOLUCOES ACO USIMINAS                                                 0000000034100000000000000000000000000000855028680000002254329370017202402     201209202012072600000000054620000244136000000000250480000000000000000000000000006344050000000000  3020121003   01          2                                                                                   3112254329371293807258000079                                                  N                     01321  0000000        000071
12042956441000101SOLUCOES ACO USIMINAS                                                 0000000034100000000000000000000000000000855028690000002254329380017212902     201209212012072600000000054630000140098000000000143458000000000000000000000000003360050000000000  3020121003   01          2                                                                                   3112254329389293807258000019                                                  N                     01321  0000000        000072
12042956441000101SOLUCOES ACO USIMINAS                                                 0000000034100000000000000000000000000000846595700000002210880280016980502     201209102012071200000000054520000156071000000000163247000000000000000000000000007176050000000000  3020121003   01          2                                                                                   3112210880285293807258000039                                                  N                     01321  0000000        000073
12042956441000101SOLUCOES ACO USIMINAS                                                 0000000034100000000000000000000000000000846595710000002210880290016980602     201209102012071200000000054520000426094000000000445690000000000000000000000000019596050000000000  3020121003   01          2                                                                                   3112210880293293807258000019                                                  N                     01321  0000000        000074
12042956441000101SOLUCOES ACO USIMINAS                                                 0000000034100000000000000000000000000000844063840000002198870040016923303     201210022012071000000000054740000442971000000000443857000000000000000000000000000886050000000000  3020121003   01          2                                                                                   3112198870043293807258000069                                                  N                     01321  0000000        000075
12042956441000101SOLUCOES ACO USIMINAS                                                 0000000034100000000000000000000000000000840313040000002181699250016829703     201209242012070200000000054660000643711000000000655294000000000000000000000000011583050000000000  3020121003   01          2                                                                                   3112181699250293807258000019                                                  N                     01321  0000000        000076
12042956441000101SOLUCOES ACO USIMINAS                                                 0000000034100000000000000000000000000000840313050000002181699260016829803     201209242012070200000000054660000322527000000000328332000000000000000000000000005805050000000000  3020121003   01          2                                                                                   3112181699268293807258000029                                                  N                     01321  0000000        000077
12042956441000101SOLUCOES ACO USIMINAS                                                 0000000034100000000000000000000000000000840313080000002181699230016814403     201209242012070200000000054660000968423000000000985856000000000000000000000000017433050000000000  3020121003   01          2                                                                                   3112181699235293807258000079                                                  N                     01321  0000000        000078
12042956441000101SOLUCOES ACO USIMINAS                                                 0000000034100000000000000000000000000000840313090000002181699240016827103     201209242012070200000000054660000703009000000000715663000000000000000000000000012654050000000000  3020121003   01          2                                                                                   3112181699243293807258000019                                                  N                     01321  0000000        000079
12042956441000101SOLUCOES ACO USIMINAS                                                 0000000034100000000000000000000000000000841725540000002188168620016859403     201209262012070400000000054680000164455000000000166758000000000000000000000000002303050000000000  3020121003   01          2                                                                                   3112188168622293807258000019                                                  N                     01321  0000000        000080
12042956441000101SOLUCOES ACO USIMINAS                                                 0000000034100000000000000000000000000000841725550000002188168630016859503     201209262012070400000000054680000234336000000000237619000000000000000000000000003283050000000000  3020121003   01          2                                                                                   3112188168630293807258000089                                                  N                     01321  0000000        000081
12042956441000101SOLUCOES ACO USIMINAS                                                 0000000034100000000000000000000000000000841725560000002188168640016884803     201209272012070500000000054690000120612000000000122058000000000000000000000000001446050000000000  3020121003   01          2                                                                                   3112188168648293807258000059                                                  N                     01321  0000000        000082
12042956441000101SOLUCOES ACO USIMINAS                                                 0000000034100000000000000000000000000000841725570000002188168690016891503     201209272012070500000000054690001128343000000001141885000000000000000000000000013542050000000000  3020121003   01          2                                                                                   3112188168697293807258000039                                                  N                     01321  0000000        000083
12042956441000101SOLUCOES ACO USIMINAS                                                 0000000034100000000000000000000000000000841725580000002188168650016884903     201209272012070500000000054690000531835000000000538219000000000000000000000000006384050000000000  3020121003   01          2                                                                                   3112188168655293807258000019                                                  N                     01321  0000000        000084
12042956441000101SOLUCOES ACO USIMINAS                                                 0000000034100000000000000000000000000000841725590000002188168660016885103     201209272012070500000000054690000219722000000000222356000000000000000000000000002634050000000000  3020121003   01          2                                                                                   3112188168663293807258000049                                                  N                     01321  0000000        000085
12042956441000101SOLUCOES ACO USIMINAS                                                 0000000034100000000000000000000000000000841725600000002188168670016891203     201209272012070500000000054690001132542000000001146132000000000000000000000000013590050000000000  3020121003   01          2                                                                                   3112188168671293807258000069                                                  N                     01321  0000000        000086
12042956441000101SOLUCOES ACO USIMINAS                                                 0000000034100000000000000000000000000000841725610000002188168680016891403     201209272012070500000000054690000795233000000000804773000000000000000000000000009540050000000000  3020121003   01          2                                                                                   3112188168689293807258000029                                                  N                     01321  0000000        000087
12042956441000101SOLUCOES ACO USIMINAS                                                 0000000034100000000000000000000000000000843180440000002194744360016902903     201209282012070600000000054700000179794000000000181594000000000000000000000000001800050000000000  3020121003   01          2                                                                                   3112194744366293807258000079                                                  N                     01321  0000000        000088
12042956441000101SOLUCOES ACO USIMINAS                                                 0000000034100000000000000000000000000000855028700000002254329390017213002     201209212012072600000000054630000140602000000000143974000000000000000000000000003372050000000000  3020121003   01          2                                                                                   3112254329397293807258000089                                                  N                     01321  0000000        000089
12042956441000101SOLUCOES ACO USIMINAS                                                 0000000034100000000000000000000000000000855028720000002254329340017200202     201209202012072600000000054620000680385000000000698078000000000000000000000000017693050000000000  3020121003   01          2                                                                                   3112254329348293807258000079                                                  N                     01321  0000000        000090
12042956441000101SOLUCOES ACO USIMINAS                                                 0000000034100000000000000000000000000000859590620000002274469790017353702     201209282012080300000000054700000081053000000000081863000000000000000000000000000810050000000000  3020121003   01          2                                                                                   3112274469793293807258000069                                                  N                     01321  0000000        000091
12042956441000101SOLUCOES ACO USIMINAS                                                 0000000034100000000000000000000000000000859590630000002274469800017353802     201209282012080300000000054700000166998000000000168668000000000000000000000000001670050000000000  3020121003   01          2                                                                                   3112274469801293807258000059                                                  N                     01321  0000000        000092
12042956441000101SOLUCOES ACO USIMINAS                                                 0000000034100000000000000000000000000000856906420000002262886290017266301     201208282012073000000000054390000145069000000000155509000000000000000000000000010440050000000000  3020121003   01          2                                                                                   3112262886297293807258000099                                                  N                     01321  0000000        000093
12042956441000101SOLUCOES ACO USIMINAS                                                 0000000034100000000000000000000000000000856906430000002262886300017266202     201209252012073000000000054670000119436000000000121348000000000000000000000000001912050000000000  3020121003   01          2                                                                                   3112262886305293807258000019                                                  N                     01321  0000000        000094
12042956441000101SOLUCOES ACO USIMINAS                                                 0000000034100000000000000000000000000000856906440000002262886310017266302     201209252012073000000000054670000145025000000000147345000000000000000000000000002320050000000000  3020121003   01          2                                                                                   3112262886313293807258000029                                                  N                     01321  0000000        000095
12042956441000101SOLUCOES ACO USIMINAS                                                 0000000034100000000000000000000000000000858616390000002271409750017315102     201209272012080200000000054690000579374000000000586328000000000000000000000000006954050000000000  3020121003   01          2                                                                                   3112271409750293807258000019                                                  N                     01321  0000000        000096
12042956441000101SOLUCOES ACO USIMINAS                                                 0000000034100000000000000000000000000000858616400000002271409760017316002     201209272012080200000000054690000929451000000000940605000000000000000000000000011154050000000000  3020121003   01          2                                                                                   3112271409768293807258000079                                                  N                     01321  0000000        000097
12042956441000101SOLUCOES ACO USIMINAS                                                 0000000034100000000000000000000000000000858616410000002271409770017319302     201209272012080200000000054690000981526000000000993304000000000000000000000000011778050000000000  3020121003   01          2                                                                                   3112271409776293807258000019                                                  N                     01321  0000000        000098
12042956441000101SOLUCOES ACO USIMINAS                                                 0000000034100000000000000000000000000000855028730000002254329350017200302     201209202012072600000000054620000156896000000000160978000000000000000000000000004082050000000000  3020121003   01          2                                                                                   3112254329355293807258000029                                                  N                     01321  0000000        000099
12042956441000101SOLUCOES ACO USIMINAS                                                 0000000034100000000000000000000000000000855028770000002254329400017220502     201209212012072700000000054630000981022000000001004566000000000000000000000000023544050000000000  3020121003   01          2                                                                                   3112254329405293807258000099                                                  N                     01321  0000000        000100
12042956441000101SOLUCOES ACO USIMINAS                                                 0000000034100000000000000000000000000000847452070000002216130350005922202     201209102012071600000000054520000172071000000000179983000000000000000000000000007912050000000000  3020121003   01          2                                                                                   3112216130354293807258000049                                                  N                     01321  0000000        000101
12042956441000101SOLUCOES ACO USIMINAS                                                 0000000034100000000000000000000000000000847452100000002216130340017012402     201209102012071500000000054520000147428000000000154213000000000000000000000000006785050000000000  3020121003   01          2                                                                                   3112216130347293807258000059                                                  N                     01321  0000000        000102
12042956441000101SOLUCOES ACO USIMINAS                                                 0000000034100000000000000000000000000000856906410000002262886280017266201     201208282012073000000000054390000119472000000000128076000000000000000000000000008604050000000000  3020121003   01          2                                                                                   3112262886289293807258000089                                                  N                     01321  0000000        000103
12042956441000101SOLUCOES ACO USIMINAS                                                 0000000034100000000000000000000000000000836417910000002164218370016738103     201209192012062700000000054610000830173000000000853413000000000000000000000000023240050000000000  3020121003   01          2                                                                                   3112164218375293807258000039                                                  N                     01321  0000000        000104
12042956441000101SOLUCOES ACO USIMINAS                                                 0000000034100000000000000000000000000000853154830000002246247020017196602     201209202012072500000000054620000804808000000000825738000000000000000000000000020930050000000000  3020121003   01          2                                                                                   3112246247020293807258000089                                                  N                     01321  0000000        000105
12042956441000101SOLUCOES ACO USIMINAS                                                 0000000034100000000000000000000000000000853154840000002246247030017196702     201209202012072500000000054620000234841000000000240951000000000000000000000000006110050000000000  3020121003   01          2                                                                                   3112246247038293807258000099                                                  N                     01321  0000000        000106
12042956441000101SOLUCOES ACO USIMINAS                                                 0000000034100000000000000000000000000000853154850000002246247040017197302     201209202012072500000000054620000970103000000000995323000000000000000000000000025220050000000000  3020121003   01          2                                                                                   3112246247046293807258000019                                                  N                     01321  0000000        000107
12042956441000101SOLUCOES ACO USIMINAS                                                 0000000034100000000000000000000000000000858616420000002271409780017319402     201209272012080200000000054690000178902000000000181050000000000000000000000000002148050000000000  3020121003   01          2                                                                                   3112271409784293807258000029                                                  N                     01321  0000000        000108
12042956441000101SOLUCOES ACO USIMINAS                                                 0000000034100000000000000000000000000000858616430000002271409790017319502     201209272012080200000000054690000197380000000000199750000000000000000000000000002370050000000000  3020121003   01          2                                                                                   3112271409792293807258000049                                                  N                     01321  0000000        000109
12042956441000101SOLUCOES ACO USIMINAS                                                 0000000034100000000000000000000000000000858616440000002271409800017319602     201209272012080200000000054690000197044000000000199408000000000000000000000000002364050000000000  3020121003   01          2                                                                                   3112271409800293807258000019                                                  N                     01321  0000000        000110
12042956441000101SOLUCOES ACO USIMINAS                                                 0000000034100000000000000000000000000000858616450000002271409810017319702     201209272012080200000000054690000197212000000000199576000000000000000000000000002364050000000000  3020121003   01          2                                                                                   3112271409818293807258000019                                                  N                     01321  0000000        000111
12042956441000101SOLUCOES ACO USIMINAS                                                 0000000034100000000000000000000000000000858616460000002271409820017319802     201209272012080200000000054690000194525000000000196859000000000000000000000000002334050000000000  3020121003   01          2                                                                                   3112271409826293807258000079                                                  N                     01321  0000000        000112
12042956441000101SOLUCOES ACO USIMINAS                                                 0000000034100000000000000000000000000000861207230000002282166990017385802     201210022012080700000000054740000714796000000000716226000000000000000000000000001430050000000000  3020121003   01          2                                                                                   3112282166993293807258000049                                                  N                     01321  0000000        000113
12043217850000159IOB INFORMACOES OBJ  PUBL JURI                                        0000000023702374400000002958600 000000008711912800902243000063301440820F2     201209202012083000000000054620000072850000000000074619000000000000000000000000001769050000000000  3020121003   01          2  R GANGES 528                                                                     3                         000000000000000                                     N                     00598  0000000        000114
12043217850000159IOB INFORMACOES OBJ  PUBL JURI                                        0000000023702374400000002958600 000000008540495200902212000099001440820E4     201208202012073000000000054310000072850000000000075363000000000000000000000000002513050000000000  3020121003   01          2  GANGES 528 VL NOVA MANCHESTER                                                    3                         000000000000000                                     N                     00598  0000000        000115
12043298975000150JOMARCA INDL DE PARAFUSOS LTDA                                        0000000003300000000000000000000000000000893373860000003400000000160394 02     201211302012100100000000055330000365000000000000365000000000000000000000000000000000050000000000  3020121130   01FS        1                                                                                   3935059520000000532134010449                                                  N                     01321  0000000        000116
12043298975000150JOMARCA INDL DE PARAFUSOS LTDA                                        0000000003300000000000000000000000000000893373870000004200000000160394 03     201212302012100100000000055630000365000000000000365000000000000000000000000000000000050000000000  3020121231   01FS        1                                                                                   3935059520000000532142010429                                                  N                     01321  0000000        000117
12043298975000150JOMARCA INDL DE PARAFUSOS LTDA                                        0000000003300000000000000000000000000000893373890000002600000000160394 01     201210312012100100000000055030000474500000000000474500000000000000000000000000000000050000000000  3020121031   01FS        1                                                                                   3935059520000000532126010459                                                  N                     01321  0000000        000118
12047190731000100DE CASTRO LOUREIRO ENGENHARIA                                         0000000023703394400000000205508 000000008801225000202255000000903026787 0     201209282012083100000000054700001135987000000001145452000000000000000000000000009465050000000000  3020121003   01          2  RUA JUNO  533                                                                    3                         000000000000000                                     N                     00598  0000000        000119
12047190731000100DE CASTRO LOUREIRO ENGENHARIA                                         0000000023703394400000000205508 000000008801225300202255000001203026794 0     201210012012090300000000054730001209130000000001213160000000000000000000000000004030050000000000  3020121003   01          2  RUA JUNO  533                                                                    3                         000000000000000                                     N                     00598  0000000        000120
12047190731000100DE CASTRO LOUREIRO ENGENHARIA                                         0000000023703394400000000205508 000000008801225600202255000001503026795 0     201210012012090300000000054730001207555000000001211581000000000000000000000000004026050000000000  3020121003   01          2  RUA JUNO  533                                                                    3                         000000000000000                                     N                     00598  0000000        000121
12047190731000100DE CASTRO LOUREIRO ENGENHARIA                                         0000000023703394400000000205508 000000008801224700202255000000603026784 0     201209282012083100000000054700001041759000000001050439000000000000000000000000008680050000000000  3020121003   01          2  RUA JUNO  533                                                                    3                         000000000000000                                     N                     00598  0000000        000122
12047190731000100DE CASTRO LOUR ENG IND LTDA                                           00000000341000000000000000000000000000008782058900000023602714603026734 0     201209252012082800000000054670000997834000000001013530000000000000000000000000015696050000000000  3020121003   01          2                                                                                   3112360271467036884500400039                                                  N                     01321  0000000        000123
12047190731000100DE CASTRO LOUR ENG IND LTDA                                           00000000341000000000000000000000000000008782050900000023399953503026612 0     201209182012082100000000054600001111489000000001144279000000000000000000000000032790050000000000  3020121003   01          2                                                                                   3112339995352036884500400019                                                  N                     01321  0000000        000124
12047190731000100DE CASTRO LOUR ENG IND LTDA                                           00000000341000000000000000000000000000008782059300000023602715203026745 0     201209262012082900000000054680000903175000000000915607000000000000000000000000012432050000000000  3020121003   01          2                                                                                   3112360271525036884500400069                                                  N                     01321  0000000        000125
12047190731000100DE CASTRO LOUR ENG IND LTDA                                           00000000341000000000000000000000000000008782059800000023602714903026744 0     201209272012082900000000054690000146594000000000148322000000000000000000000000001728050000000000  3020121003   01          2                                                                                   3112360271491036884500400089                                                  N                     01321  0000000        000126
12047190731000100DE CASTRO LOUR ENG IND LTDA                                           00000000341000000000000000000000000000008782051200000023399953803026613 0     201209182012082100000000054600001107989000000001140674000000000000000000000000032685050000000000  3020121003   01          2                                                                                   3112339995386036884500400039                                                  N                     01321  0000000        000127
12047190731000100DE CASTRO LOUR ENG IND LTDA                                           00000000341000000000000000000000000000008782051600000023399954103026614 0     201209182012082100000000054600001047621000000001078521000000000000000000000000030900050000000000  3020121003   01          2                                                                                   3112339995410036884500400039                                                  N                     01321  0000000        000128
12047190731000100DE CASTRO LOUR ENG IND LTDA                                           00000000341000000000000000000000000000008782052000000023399955303026632 0     201209192012082200000000054610000952073000000000978281000000000000000000000000026208050000000000  3020121003   01          2                                                                                   3112339995535036884500400019                                                  N                     01321  0000000        000129
12047190731000100DE CASTRO LOUR ENG IND LTDA                                           00000000341000000000000000000000000000008782052100000023399955903026643 0     201209202012082300000000054620000867039000000000889204000000000000000000000000022165050000000000  3020121003   01          2                                                                                   3112339995592036884500400049                                                  N                     01321  0000000        000130
12047190731000100DE CASTRO LOUR ENG IND LTDA                                           00000000341000000000000000000000000000008782052500000023399955603026636 0     201209192012082200000000054610000940804000000000966704000000000000000000000000025900050000000000  3020121003   01          2                                                                                   3112339995568036884500400049                                                  N                     01321  0000000        000131
12047190731000100DE CASTRO LOUR ENG IND LTDA                                           00000000341000000000000000000000000000008782052700000023399956203026648 0     201209202012082300000000054620000976053000000001001013000000000000000000000000024960050000000000  3020121003   01          2                                                                                   3112339995626036884500400029                                                  N                     01321  0000000        000132
12048775225000146SEIKI IND COM E CONFECCOES LTD                                        000000003410000000000000000000000000000087820591000000235780573014311001      201209282012083100000000054700000052000000000000052390000000000000000000000000000390050000000000  3020121003   01          2                                                                                   3112357805731017444824100069                                                  N                     01321  0000000        000133
12048775225000146SEIKI IND COM E CONFECCOES LTD                                        000000003410000000000000000000000000000089337376000000244697151014914001      201210232012092500000000054950000052000000000000052000000000000000000000000000000000050000000000  3020121023   01FS        1                                                                                   3112446971510017444824100089                                                  N                     01321  0000000        000134
12049341563000132JAC COMERCIO DE MATERIAIS ELET                                        0000000023700293300000001478699 00000000893373780020132276064752330401        201210292012100200000000055010000015528000000000015528000000000000000000000000000000050000000000  3020121029   01FS        1  R GANGES 528                                                                     3                         000000000000000                                     N                     00598  0000000        000135
12049341563000132JAC COMERCIO DE MATERIAIS ELET                                        0000000023700293300000001478699 00000000893373790020132276064762330402        201211052012100200000000055080000015523000000000015523000000000000000000000000000000050000000000  3020121105   01FS        1  R GANGES 528                                                                     3                         000000000000000                                     N                     00598  0000000        000136
12049341563000132JAC COMERCIO DE MATERIAIS ELET                                        0000000023700293300000001478699 00000000893373800020132276064772330403        201211122012100200000000055150000015523000000000015523000000000000000000000000000000050000000000  3020121112   01FS        1  R GANGES 528                                                                     3                         000000000000000                                     N                     00598  0000000        000137
12051180370000199IGUAFER FERRO E ACO LTDA                                              0000000034100000000000000000000000000000852309100000002239389789443 B         201209022012071800000000054440000168275000000000176955000000000000000000000000008680050000000000  3020121003   01          2                                                                                   3112239389789077149484600089                                                  N                     01321  0000000        000138
12051180370000199IGUAFER FERRO E ACO LTDA                                              0000000034100000000000000000000000000000852309110000002239389799443 C         201209122012071800000000054540000168275000000000174155000000000000000000000000005880050000000000  3020121003   01          2                                                                                   3112239389797077149484600089                                                  N                     01321  0000000        000139
12051180370000199IGUAFER FERRO E ACO LTDA                                              0000000034100000000000000000000000000000852309120000002239389809443 D         201209222012071800000000054640000168275000000000171355000000000000000000000000003080050000000000  3020121003   01          2                                                                                   3112239389805077149484600029                                                  N                     01321  0000000        000140
12053585766000141MULTIACOS IND  COM  PROD  TEC                                         0000000038900000000000000000000000000000874070420000000000000000004493702     201210012012080600000000054730000180041000000000180641000000000000000000000000000600050000000000  3020121003   01          2                                                                                   3015601031417289000042309299                                                  N                     01321  0000000        000141
12053585766000141MULTIACOS IND  COM  PROD  TEC                                         0000000038900000000000000000000000000000874070430000000000000000004493802     201210012012080600000000054730000828107000000000830867000000000000000000000000002760050000000000  3020121003   01          2                                                                                   3015601031417297000042309299                                                  N                     01321  0000000        000142
12053585766000141MULTIACOS I C PRODS TEC LTDA                                          0000000042200000000000000000000000000000875773320000000000000000004500802     201210022012090400000000054740000173389000000000173677000000000000000000000000000288050000000000  3020121003   01          2                                                                                   3711500005033164919152261179                                                  N                     01321  0000000        000143
12053585766000141MULTIACOS I C PRODS TEC LTDA                                          0000000042200000000000000000000000000000875773330000000000000000004566101     201210012012090400000000054730001320414000000001324814000000000000000000000000004400050000000000  3020121003   01          2                                                                                   3711500005033164919152295119                                                  N                     01321  0000000        000144
12053585766000141MULTIACOS IND  COM  PROD  TEC                                         0000000038900000000000000000000000000000874070440000000000000000004565101     201210012012082000000000054730000469526000000000471092000000000000000000000000001566050000000000  3020121003   01          2                                                                                   3015601031417440000042309219                                                  N                     01321  0000000        000145
12053585766000141MULTIACOS I C PRODS TEC LTDA                                          0000000042200000000000000000000000000000875773370000000000000000004570001     201210022012090400000000054740001029874000000001031589000000000000000000000000001715050000000000  3020121003   01          2                                                                                   3711500005033164919152341129                                                  N                     01321  0000000        000146
12053585766000141MULTIACOS I C PRODS TEC LTDA                                          0000000042200000000000000000000000000000875773400000000000000000004500902     201210022012090400000000054740000962577000000000964180000000000000000000000000001603050000000000  3020121003   01          2                                                                                   3711500005033164919152287179                                                  N                     01321  0000000        000147
12053585766000141MULTIACOS I C PRODS TEC LTDA                                          0000000042200000000000000000000000000000875773420000000000000000004501002     201210022012090400000000054740000902868000000000904372000000000000000000000000001504050000000000  3020121003   01          2                                                                                   3711500005033164919152376149                                                  N                     01321  0000000        000148
12053585766000141MULTIACOS I C PRODS TEC LTDA                                          0000000042200000000000000000000000000000875773440000000000000000004423703     201210022012090400000000054740000535467000000000536358000000000000000000000000000891050000000000  3020121003   01          2                                                                                   3711500005033164919152384119                                                  N                     01321  0000000        000149
12053585766000141MULTIACOS I C PRODS TEC LTDA                                          0000000042200000000000000000000000000000875773540000000000000000004423603     201210022012090400000000054740000606735000000000607745000000000000000000000000001010050000000000  3020121003   01          2                                                                                   3711500005033164919152457189                                                  N                     01321  0000000        000150
12053585766000141MULTIACOS I C PRODS TEC LTDA                                          0000000042200000000000000000000000000000875773570000000000000000004421903     201210012012090400000000054730000942203000000000945342000000000000000000000000003139050000000000  3020121003   01          2                                                                                   3711500005033164919152511129                                                  N                     01321  0000000        000151
12053585766000141MULTIACOS I C PRODS TEC LTDA                                          0000000042200000000000000000000000000000875773460000000000000000004429703     201210012012090400000000054730000624532000000000626613000000000000000000000000002081050000000000  3020121003   01          2                                                                                   3711500005033164919152406199                                                  N                     01321  0000000        000152
12053585766000141MULTIACOS I C PRODS TEC LTDA                                          0000000042200000000000000000000000000000878205680000000000000000004545101     201209262012082800000000054680000314360000000000318027000000000000000000000000003667050000000000  3020121003   01          2                                                                                   3711500005033164917492641129                                                  N                     01321  0000000        000153
12053585766000141MULTIACOS I C PRODS TEC LTDA                                          0000000042200000000000000000000000000000878205720000000000000000004478902     201209272012082800000000054690000130644000000000131951000000000000000000000000001307050000000000  3020121003   01          2                                                                                   3711500005033164917492625119                                                  N                     01321  0000000        000154
12053585766000141MULTIACOS I C PRODS TEC LTDA                                          0000000042200000000000000000000000000000878205730000000000000000004553201     201209272012082800000000054690001148798000000001160287000000000000000000000000011489050000000000  3020121003   01          2                                                                                   3711500005033164917492633119                                                  N                     01321  0000000        000155
12053585766000141MULTIACOS I C PRODS TEC LTDA                                          0000000042200000000000000000000000000000878205760000000000000000004411803     201209282012082800000000054700000585031000000000589905000000000000000000000000004874050000000000  3020121003   01          2                                                                                   3711500005033164917492722119                                                  N                     01321  0000000        000156
12053585766000141MULTIACOS I C PRODS TEC LTDA                                          0000000042200000000000000000000000000000878205770000000000000000004545201     201209262012082800000000054680001035014000000001047088000000000000000000000000012074050000000000  3020121003   01          2                                                                                   3711500005033164917492668129                                                  N                     01321  0000000        000157
12053585766000141MULTIACOS I C PRODS TEC LTDA                                          0000000042200000000000000000000000000000878205780000000000000000004479002     201209272012082800000000054690000831267000000000839576000000000000000000000000008309050000000000  3020121003   01          2                                                                                   3711500005033164917492676169                                                  N                     01321  0000000        000158
12053585766000141MULTIACOS I C PRODS TEC LTDA                                          0000000042200000000000000000000000000000878205790000000000000000004478802     201209272012082800000000054690000211226000000000213337000000000000000000000000002111050000000000  3020121003   01          2                                                                                   3711500005033164917492684119                                                  N                     01321  0000000        000159
12053585766000141MULTIACOS INDUSTRIA E COMERCIO                                        0000000000100000000000000000000000000000878205610000006556570000004437702     201209212012082800000000054630000145364000000000145364000000000000000000000000000000050000000000  3020120921   05          3                                                                                   3044016556571912000139523199                                                  N                     01321  0000000        000160
12053585766000141MULTIACOS COM DE PRODUTOS TECN                                        0000000023703398700000000011290 00000000867622130020223400000290004411802     201209142012072000000000054560000585031000000000590881000000000000000000000000006825050000000000  3020120920   06          3  RUA JUNO  533                                                                    3                         000000000000000                                     N                     00598  0000000        000161
12054382510000108SETENTA IND E COM DE MADEIRAS                                         0000000034100000000000000000000000000000874070720000002305114064536 A         201209192012081600000000054610000191200000000000196464000000000000000000000000005264050000000000  3020121003   01          2                                                                                   3112305114061057002848000039                                                  N                     01321  0000000        000162
12054382510000108SETENTA IND E COM DE MADEIRAS                                         0000000034100000000000000000000000000000860403430000002277814474462 A         201209042012080700000000054460000191200000000000202104000000000000000000000000010904050000000000  3020121003   01          2                                                                                   3112277814474057049175300069                                                  N                     01321  0000000        000163
12056428188000128EDVALDO SANTOS ROSA ME                                                0000000023700898200000000005622 0000000088191340009011225700666194919606      201209292012091300000000054710000089850000000000092544000000000000000000000000002993050000000000  3020121002   06          3  RUA TAMAINDE  1410                                                               3                         000000000000000                                     N                     00598  0000000        000164
12056993512000150CYKLOP DO BRASIL EMBALAGENS SA                                        0000000034100000000000000000000000000000874070500000002362586810134932        201210012012090300000000054730000083607000000000084221000000000000000000000000000614050000000000  3020121003   01          2                                                                                   3112362586813025700015800019                                                  N                     01321  0000000        000165
12056993900000131CIA METALURGICA PRADA                                                 0000000034100000000000000000000000000000824820100000002102181160024711603     201208292012060600000000054400000833146000000000881761000000000000000000000000048615050000000000  3020121003   01          2                                                                                   3112102181164293800573900039                                                  N                     01321  0000000        000166
12056993900000131CIA METALURGICA PRADA                                                 0000000034100000000000000000000000000000855028570000002254750270026244302     201209242012072800000000054660000100684000000000102196000000000000000000000000001512050000000000  3020121003   01          2                                                                                   3112254750279293800573900089                                                  N                     01321  0000000        000167
12056993900000131CIA METALURGICA PRADA                                                 0000000034100000000000000000000000000000844839000000002201181880025629402     201209052012071100000000054470000249372000000000261020000000000000000000000000011648050000000000  3020121003   01          2                                                                                   3112201181883293800573900019                                                  N                     01321  0000000        000168
12056993900000131CIA METALURGICA PRADA                                                 0000000034100000000000000000000000000000844839010000002201181890025635302     201209052012071100000000054470000406842000000000425826000000000000000000000000018984050000000000  3020121003   01          2                                                                                   3112201181891293800573900019                                                  N                     01321  0000000        000169
12056993900000131CIA METALURGICA PRADA                                                 0000000034100000000000000000000000000000844839020000002201181900025635402     201209052012071100000000054470000208689000000000218433000000000000000000000000009744050000000000  3020121003   01          2                                                                                   3112201181909293800573900069                                                  N                     01321  0000000        000170
12056993900000131CIA METALURGICA PRADA                                                 0000000034100000000000000000000000000000855028580000002254750280026244402     201209242012072800000000054660000084115000000000085375000000000000000000000000001260050000000000  3020121003   01          2                                                                                   3112254750287293800573900039                                                  N                     01321  0000000        000171
12056993900000131CIA METALURGICA PRADA                                                 0000000034100000000000000000000000000000837460410000002165934370025295503     201209202012062800000000054620000339048000000000346393000000000000000000000000007345050000000000  3020121003   01          2                                                                                   3112165934376293800573900029                                                  N                     01321  0000000        000172
12056993900000131CIA METALURGICA PRADA                                                 0000000034100000000000000000000000000000837460440000002165934360025295403     201209202012062800000000054620000152797000000000156112000000000000000000000000003315050000000000  3020121003   01          2                                                                                   3112165934368293800573900019                                                  N                     01321  0000000        000173
12056993900000131CIA METALURGICA PRADA                                                 0000000034100000000000000000000000000000844839030000002201181910025635502     201209052012071100000000054470000164780000000000172480000000000000000000000000007700050000000000  3020121003   01          2                                                                                   3112201181917293800573900029                                                  N                     01321  0000000        000174
12056993900000131CIA METALURGICA PRADA                                                 0000000034100000000000000000000000000000844839040000002201181920025635602     201209052012071100000000054470000339933000000000355809000000000000000000000000015876050000000000  3020121003   01          2                                                                                   3112201181925293800573900069                                                  N                     01321  0000000        000175
12056993900000131CIA METALURGICA PRADA                                                 0000000034100000000000000000000000000000844839050000002201181930025636202     201209052012071100000000054470000746213000000000781045000000000000000000000000034832050000000000  3020121003   01          2                                                                                   3112201181933293800573900019                                                  N                     01321  0000000        000176
12056993900000131CIA METALURGICA PRADA                                                 0000000034100000000000000000000000000000844839060000002201181940025644402     201209052012071100000000054470000779647000000000816019000000000000000000000000036372050000000000  3020121003   01          2                                                                                   3112201181941293800573900019                                                  N                     01321  0000000        000177
12056993900000131CIA METALURGICA PRADA                                                 0000000034100000000000000000000000000000844839140000002201181870025629302     201209052012071100000000054470000257906000000000269946000000000000000000000000012040050000000000  3020121003   01          2                                                                                   3112201181875293800573900069                                                  N                     01321  0000000        000178
12056993900000131CIA METALURGICA PRADA                                                 0000000034100000000000000000000000000000840312960000002179478310025419303     201209252012070300000000054670000402178000000000407538000000000000000000000000005360050000000000  3020121003   01          2                                                                                   3112179478311293800573900069                                                  N                     01321  0000000        000179
12056993900000131CIA METALURGICA PRADA                                                 0000000034100000000000000000000000000000840312970000002179478320025419403     201209252012070300000000054670000322804000000000327108000000000000000000000000004304050000000000  3020121003   01          2                                                                                   3112179478329293800573900079                                                  N                     01321  0000000        000180
12056993900000131CIA METALURGICA PRADA                                                 0000000034100000000000000000000000000000837460450000002165934380025295603     201209202012062800000000054620000154165000000000157506000000000000000000000000003341050000000000  3020121003   01          2                                                                                   3112165934384293800573900039                                                  N                     01321  0000000        000181
12056993900000131CIA METALURGICA PRADA                                                 0000000034100000000000000000000000000000837460460000002165934390025295703     201209202012062800000000054620000139528000000000142557000000000000000000000000003029050000000000  3020121003   01          2                                                                                   3112165934392293800573900029                                                  N                     01321  0000000        000182
12056993900000131CIA METALURGICA PRADA                                                 0000000034100000000000000000000000000000838527930000002171340470025383503     201209242012063000000000054660000575127000000000583758000000000000000000000000008631050000000000  3020121003   01          2                                                                                   3112171340477293800573900069                                                  N                     01321  0000000        000183
12056993900000131CIA METALURGICA PRADA                                                 0000000034100000000000000000000000000000838527940000002171340480025384303     201209242012063000000000054660000454478000000000461291000000000000000000000000006813050000000000  3020121003   01          2                                                                                   3112171340485293800573900029                                                  N                     01321  0000000        000184
12056993900000131CIA METALURGICA PRADA                                                 0000000034100000000000000000000000000000840312930000002179478290025419302     201208282012070300000000054390000402178000000000426298000000000000000000000000024120050000000000  3020121003   01          2                                                                                   3112179478295293800573900089                                                  N                     01321  0000000        000185
12056993900000131CIA METALURGICA PRADA                                                 0000000034100000000000000000000000000000840312940000002179478300025419402     201208282012070300000000054390000322804000000000342172000000000000000000000000019368050000000000  3020121003   01          2                                                                                   3112179478303293800573900079                                                  N                     01321  0000000        000186
12056993900000131CIA METALURGICA PRADA                                                 0000000034100000000000000000000000000000848180620000002218222670025829902     201209112012071700000000054530000498118000000000516378000000000000000000000000018260050000000000  3020121003   01          2                                                                                   3112218222670293800573900029                                                  N                     01321  0000000        000187
12056993900000131CIA METALURGICA PRADA                                                 0000000034100000000000000000000000000000848180630000002218222680025830002     201209112012071700000000054530000247673000000000256759000000000000000000000000009086050000000000  3020121003   01          2                                                                                   3112218222688293800573900059                                                  N                     01321  0000000        000188
12056993900000131CIA METALURGICA PRADA                                                 0000000034100000000000000000000000000000848180640000002218222690025830102     201209112012071700000000054530000207402000000000215014000000000000000000000000007612050000000000  3020121003   01          2                                                                                   3112218222696293800573900039                                                  N                     01321  0000000        000189
12057029431000106ATLAS COPCO BRASIL LTDA                                               0000000034100000000000000000000000000000863731640000002292733057000054146     201209072012081000000000054490000081450000000000082854000000000000000000000000001404050000000000  3020121003   01          2                                                                                   3112292733055293804111400099                                                  N                     01321  0000000        000190
12057029431000106ATLAS COPCO BRASIL LTDA                                               0000000034100000000000000000000000000000861960280000002283943487000054090     201209062012080900000000054480000059490000000000060543000000000000000000000000001053050000000000  3020121003   01          2                                                                                   3112283943481293804111400069                                                  N                     01321  0000000        000191
12057158057000130COMERCIAL ELETRICA PJ LTDA                                            0000000023703394400000000972983 00000000893373810090227600002770000330236     201210252012092700000000054970000012157000000000012157000000000000000000000000000000050000000000  3020121025   01FS        1  R TAMAINDE 1410                                                                  3                         000000000000000                                     N                     00598  0000000        000192
12059659615000177DZ COMERCIO R E SERVICOS LTDA                                         000000003410000000000000000000000000000086699205000000900000268252            201209172012081500000000054590000060000000000000061920000000000000000000000000001920050000000000  3020121003   01          2                                                                                   3109000002680000314585100059                                                  N                     01321  0000000        000193
12060830544000102TORRES GALVANIZACAO A FOGO LTD                                        0000000023702531300000000105007 0000000088012245009013225501782007494         201210022012090400000000054740000309600000000000313728000000000000000000000000004128050000000000  3020121003   01          2  RUA GANGES  528                                                                  3                         000000000000000                                     N                     00598  0000000        000194
12061217188000119TELAS METALICAS TELMETAL LTDA                                         0000000000100000000000000000000000000000871191240000000056790005569 2 3       201210012012082900000000054730000060518000000000060840000000000000000000000000000322050000000000  3020121003   01          2                                                                                   3000000115031800000056791739                                                  N                     01321  0000000        000195
12061600839000155CENTRO DE INT EMPRESA ESCOLA C                                        0000000023703391P00000000866202 00000000880122440090000036173097641C 0001     201209302012091000000000054720000016800000000000016965000000000000000000000000000165050000000000  3020121003   01          2  R GANGES  528                                                                    3                         000000000000000                                     N                     00598  0000000        000196
12061612735000160IMP TEIXEIRA DE FERRAGENS LTDA                                        0000000034100000000000000000000000000000878205810000002351838130000086481     201209242012082700000000054660000029325000000000030198000000000000000000000000000873050000000000  3020121003   01          2                                                                                   3112351838134000442318200079                                                  N                     01321  0000000        000197
12062340989000130EDICOES ADUANEIRAS LTDA                                               0000000023703090200000000015660 0000000079108232009080000035030004262 D       201209302012041100000000054720000043600000000000043816000000000000000000000000000216050000000000  3020121003   01          2  RUA TAMAINDE 1410 RUA GANGES 520 E 528                                           3                         000000000000000                                     N                     00598  0000000        000198
12062510367000102ITANHAEM TRANSP DE MAQUINAS LT                                        000000003410000000000000000000000000000087407049000000236463199667            201209202012090400000000054620000248220000000000261129000000000000000000000000012909050000000000  3020121003   01          2                                                                                   3112364631997005770252400049                                                  N                     01321  0000000        000199
