0000147602043799295000110ALTAMIRA INDUSTRIA METALURGICA LT       202000000014020121004055758             1                                                                                                                                                                                                                                                                                                                                                                                                    000001
12000365592000145AMPRO LABORATORIO E ENGENHARIA                                        00000000001000000000000000000000000000008723186200000000520500003316A         201209292012083100000000054710000083233000000000085727000000000000000000000000002494050000000000  3020121004   01          2                                                                                   3000000133159100000052051749                                                  N                     01321  0000000        000002
12001852612000175BT EQUIPAMENTOS INDUSTRIAIS LT                                        000000000330000000000000000000000000000087577366000000610000000594061         201210012012090600000000054730000041502000000000041877000000000000000000000000000375050000000000  3020121004   01          2                                                                                   3913651000000000594061010479                                                  N                     01321  0000000        000003
12001895314000162COLETA INDUSTRIAL FIMAVAN LTDA                                        0000000034100000000000000000000000000000866992070000009002335349439           201208272012081700000000054380000123695000000000138671000000000000000000000000014976050000000000  3020121004   01          2                                                                                   3109002335346144604097200019                                                  N                     01321  0000000        000004
12001895314000162COLETA INDUSTRIAL FIMAVAN LTDA                                        00000000341000000000000000000000000000008844324600000090023445310405          201209272012091700000000054690000158141000000000164251000000000000000000000000006110050000000000  3020121004   01          2                                                                                   3109002344538144604097200029                                                  N                     01321  0000000        000005
12002460454000170AUT SERVICE COMERCIO E SERVICO                                        0000000023702591700000000007692 000000008515292000901322060028234532 2        201209172012072400000000054590000238750000000000258813000000000000000000000000020063050000000000  3020121004   01          2  RUA JUNO  533                                                                    3                         000000000000000                                     N                     00598  0000000        000006
12002469103000120COMPROCRED FOMENTO MERCANTIL L                                        0000000023703511400000000106739 0000000088012259002022550000043022145 12      201210012012090500000000054730000093000000000000093930000000000000000000000000000930050000000000  3020121004   01          2  RUA TAMAINDE 1410 VILA NOVA MANCH SAO PATRANSPORTADORA FIOROT LTDA               3                         000252984000106                                     N                     00598  0000000        000007
12002480300000140STARNIC FACTORING LTDA                                                0000000023700614900000000683043 00000000894344230090132277004631788           201210242012092100000000054960000247500000000000247500000000000000000000000000000000050000000000  3020121024   01FS        1  RUA TAMAINDE 1410                       FATEK IND E COM DE ART METAIS LTDA       3                         007992438000142                                     N                     00598  0000000        000008
12002503185000182ANDAIMES MAQUINAS BIG LTDA EPP                                        0000000034100000000000000000000000000000874070480000002313590765101           201209142012082000000000054560000016500000000000017050000000000000000000000000000550050000000000  3020121004   01          2                                                                                   3112313590765650303800900019                                                  N                     01321  0000000        000009
12002503185000182ANDAIMES MAQUINAS BIG LTDA EPP                                        000000003410000000000000000000000000000086282613000000228719913011660         201208302012081000000000054410000012000000000000012520000000000000000000000000000520050000000000  3020121004   01          2                                                                                   3112287199130650303800900039                                                  N                     01321  0000000        000010
12002503185000182ANDAIMES E MAQUINAS BIG LTDA                                          000000003410000000000000000000000000000087820531000000233954448011791         201209212012082700000000054630000026000000000000026741000000000000000000000000000741050000000000  3020121004   01          2                                                                                   3112339544481925303435000019                                                  N                     01321  0000000        000011
12002558199000101OMEGA TUBOS COMERCIAL LTDA                                            0000000003300000000000000000000000000000874070730000004200000000028157B01     201210022012082800000000054740000149856000000000150854000000000000000000000000000998050000000000  3020121004   01          2                                                                                   3947509770000000098442020359                                                  N                     01321  0000000        000012
12003489596000123BEND FLEX I COMERCIO LTDA                                             000000003410000000000000000000000000000088350832000000171879874608            201209122012082100000000054540000695250000000000725324000000000000000000000000030074050000000000  3020121004   01          2                                                                                   3191718798744157734445800069                                                  N                     01321  0000000        000013
12003489596000123BEND FLEX I COMERCIO LTDA                                             000000003410000000000000000000000000000088599899000000171434574613            201209172012081600000000054590000585000000000000604567000000000000000000000000019567050000000000  3020121004   01          2                                                                                   3191714345748157734445800019                                                  N                     01321  0000000        000014
12003489596000123BEND FLEX I COMERCIO LTDA                                             000000003410000000000000000000000000000088957854000000172413968615            201209212012082300000000054630000582750000000000597648000000000000000000000000014898050000000000  3020121004   01          2                                                                                   3191724139685157734445800049                                                  N                     01321  0000000        000015
12003489596000123BEND FLEX I COMERCIO LTDA                                             000000003410000000000000000000000000000087231864000000793891785617            201210012012090300000000054730000722200000000000740904000000000000000000000000018704050000000000  3020121004   01          2                                                                                   3157938917859157734445800069                                                  N                     01321  0000000        000016
12005151518000140BELENUS DO BRASIL LTDA                                                000000000010000000000000000000000000000087407047000000750518000R130170512     201209262012090400000000054680000249600000000000251248000000000000000000000000002472050000000000  3020120928   06          3                                                                                   3000000123933844037505183129                                                  N                     01321  0000000        000017
12005335228000156DINAMICA INF E TELECOM LTDA EP                                        0000000023703257300000000503215 0000000088443245009032570017396MO008960A      201209302012091700000000054720000020000000000000020268000000000000000000000000000268050000000000  3020121004   01          2  RUA JUNO  533                                                                    3                         000000000000000                                     N                     00598  0000000        000018
12005852768000107DAOUD LEAL ELETRONICA LTDA ME                                         00000000033000000000000000000000000000008757736700000021000000000000000001097 201209262012090500000000054680000016558000000000017329000000000000000000000000000771050000000000  3020121004   01          2                                                                                   3949927090000000027421010429                                                  N                     01321  0000000        000019
12005880850000145NEDERMAN BRASIL COM PROD EX LT                                        000000003410000000000000000000000000000086373178000000614350956002763 A       201209252012081400000000054670000289674000000000294804000000000000000000000000005130050000000000  3020121004   01          2                                                                                   3156143509568160829000100049                                                  N                     01321  0000000        000020
12006000195000156MBA MERCANTIL BRAS DE ACO LTDA                                        0000000034100000000000000000000000000000894344040000002451556730009736B03     201212272012092800000000055600000409117000000000409117000000000000000000000000000000050000000000  3020121227   01FS        1                                                                                   3112451556735064899001800069                                                  N                     01321  0000000        000021
12006000195000156MBA MERCANTIL BRAS DE ACO LTDA                                        0000000034100000000000000000000000000000894343950000002451556320009702B02     201211222012092700000000055250000272653000000000272653000000000000000000000000000000050000000000  3020121122   01FS        1                                                                                   3112451556321064899001800029                                                  N                     01321  0000000        000022
12006000195000156M B A MERCANTIL BRASILEIRA DE                                         0000000023700118P00000002128292 00000000894344240090218400000190008737B03     201209262012062900000000054680000582257000000000582257000000000000000000000000000000050000000000  3020121004   01FS        1  RUA JUNO  533                                                                    3                         000000000000000                                     N                     00598  0000000        000023
12006000195000156MBA MERCANTIL BRAS DE ACO LTDA                                        0000000034100000000000000000000000000000894343970000002451556330009702B03     201212202012092700000000055530000272654000000000272654000000000000000000000000000000050000000000  3020121220   01FS        1                                                                                   3112451556339064899001800049                                                  N                     01321  0000000        000024
12006000195000156MBA MERCANTIL BRAS DE ACO LTDA                                        0000000034100000000000000000000000000000894344050000002451556740009737B01     201211022012092800000000055050000311139000000000311139000000000000000000000000000000050000000000  3020121105   01FS        1                                                                                   3112451556743064899001800039                                                  N                     01321  0000000        000025
12006000195000156MBA MERCL BRASILEIRA ACO LTDA                                         0000000042200000000000000000000000000000859590590000000000000000009051B02     201209262012080300000000054680000180457000000000182864000000000000000000000000002407050000000000  3020121004   01          2                                                                                   3701600007451936910173842159                                                  N                     01321  0000000        000026
12006000195000156MBA MERCANTIL BRAS DE ACO LTDA                                        0000000034100000000000000000000000000000894344160000002451556100009671B03     201212192012092500000000055520000980766000000000980766000000000000000000000000000000050000000000  3020121219   01FS        1                                                                                   3112451556107064899001800019                                                  N                     01321  0000000        000027
12006000195000156M B A MERCANTIL BRASILEIRA DE                                         0000000023700118P00000002128292 00000000894344250090218400000250008735B03     201209242012062900000000054660000363851000000000363851000000000000000000000000000000050000000000  3020121004   01FS        1  RUA JUNO  533                                                                    3                         000000000000000                                     N                     00598  0000000        000028
12006000195000156M B A MERCANTIL BRASILEIRA DE                                         0000000000100000000000000000000000000000841061000000008760980000008769B03     201209282012070500000000054700000623994000000000630234000000000000000000000000006240050000000000  3020121004   01          2                                                                                   3043878760983333000105251189                                                  N                     01321  0000000        000029
12006000195000156MBA MERCANTIL BRAS DE ACO LTDA                                        0000000034100000000000000000000000000000894343980000002451556680009735B01     201210312012092800000000055030000239096000000000239096000000000000000000000000000000050000000000  3020121031   01FS        1                                                                                   3112451556685064899001800019                                                  N                     01321  0000000        000030
12006000195000156MBA MERCANTIL BRAS DE ACO LTDA                                        0000000034100000000000000000000000000000894344060000002451556750009737B02     201211302012092800000000055330000311139000000000311139000000000000000000000000000000050000000000  3020121130   01FS        1                                                                                   3112451556750064899001800089                                                  N                     01321  0000000        000031
12006000195000156MBA MERCANTIL BRAS DE ACO LTDA                                        0000000034100000000000000000000000000000894344170000002451556240009697B01     201210252012092700000000054970000450846000000000450846000000000000000000000000000000050000000000  3020121025   01FS        1                                                                                   3112451556248064899001800069                                                  N                     01321  0000000        000032
12006000195000156M B A MERCANTIL BRASILEIRA DE                                         0000000023700118P00000002128292 00000000894344260090220800000340008988B02     201209252012072500000000054670000378851000000000378851000000000000000000000000000000050000000000  3020121004   01FS        1  RUA JUNO  533                                                                    3                         000000000000000                                     N                     00598  0000000        000033
12006000195000156MBA MERCANTIL BRAS DE ACO LTDA                                        0000000034100000000000000000000000000000885998980000001667238420008870B02     201209112012071600000000054530000839952000000000877948000000000000000000000000037996050000000000  3020121004   01          2                                                                                   3191667238429064849251000039                                                  N                     01321  0000000        000034
12006000195000156MBA MERCANTIL BRAS DE ACO LTDA                                        0000000034100000000000000000000000000000894343990000002451556620009733B01     201210292012092800000000055010000520246000000000520246000000000000000000000000000000050000000000  3020121029   01FS        1                                                                                   3112451556628064899001800079                                                  N                     01321  0000000        000035
12006000195000156MBA MERCANTIL BRAS DE ACO LTDA                                        0000000034100000000000000000000000000000894344180000002451556310009702B01     201210252012092700000000054970000313551000000000313551000000000000000000000000000000050000000000  3020121025   01FS        1                                                                                   3112451556313064899001800019                                                  N                     01321  0000000        000036
12006000195000156MBA MERCANTIL BRAS DE ACO LTDA                                        0000000034100000000000000000000000000000894344110000002451556070009670B03     201212182012092500000000055510000822316000000000822316000000000000000000000000000000050000000000  3020121218   01FS        1                                                                                   3112451556073064899001800089                                                  N                     01321  0000000        000037
12006000195000156MBA MERCANTIL BRAS DE ACO LTDA                                        0000000034100000000000000000000000000000894344070000002451556710009736B01     201211012012092800000000055040000409118000000000409118000000000000000000000000000000050000000000  3020121101   01FS        1                                                                                   3112451556719064899001800079                                                  N                     01321  0000000        000038
12006000195000156MBA MERCANTIL BRAS DE ACO LTDA                                        0000000034100000000000000000000000000000886866570000001667238410008874B02     201209132012071600000000054550000802826000000000835985000000000000000000000000033159050000000000  3020121004   01          2                                                                                   3191667238411064849251000049                                                  N                     01321  0000000        000039
12006000195000156MBA MERCANTIL BRAS DE ACO LTDA                                        0000000034100000000000000000000000000000894344190000002451556250009697B02     201211222012092700000000055250000392040000000000392040000000000000000000000000000000050000000000  3020121122   01FS        1                                                                                   3112451556255064899001800029                                                  N                     01321  0000000        000040
12006000195000156MBA MERCANTIL BRAS DE ACO LTDA                                        0000000034100000000000000000000000000000894344080000002451556760009737B03     201212282012092800000000055610000311139000000000311139000000000000000000000000000000050000000000  3020121228   01FS        1                                                                                   3112451556768064899001800029                                                  N                     01321  0000000        000041
12006000195000156MBA MERCANTIL BRAS DE ACO LTDA                                        0000000034100000000000000000000000000000894344120000002451556080009671B01     201210242012092500000000054960001127881000000001127881000000000000000000000000000000050000000000  3020121024   01FS        1                                                                                   3112451556081064899001800069                                                  N                     01321  0000000        000042
12006000195000156MBA MERCANTIL BRAS DE ACO LTDA                                        0000000034100000000000000000000000000000887698080000001667238400008876B02     201209142012071600000000054560000810321000000000842201000000000000000000000000031880050000000000  3020121004   01          2                                                                                   3191667238403064849251000059                                                  N                     01321  0000000        000043
12006000195000156MBA MERCANTIL BRAS DE ACO LTDA                                        0000000034100000000000000000000000000000894344000000002451556690009735B02     201211282012092800000000055310000239096000000000239096000000000000000000000000000000050000000000  3020121128   01FS        1                                                                                   3112451556693064899001800099                                                  N                     01321  0000000        000044
12006000195000156MBA MERCANTIL BRAS DE ACO LTDA                                        0000000034100000000000000000000000000000894344090000002451556720009736B02     201211292012092800000000055320000409118000000000409118000000000000000000000000000000050000000000  3020121129   01FS        1                                                                                   3112451556727064899001800059                                                  N                     01321  0000000        000045
12006000195000156MBA MERCANTIL BRAS DE ACO LTDA                                        0000000034100000000000000000000000000000894344130000002451556090009671B02     201211212012092500000000055240000980767000000000980767000000000000000000000000000000050000000000  3020121121   01FS        1                                                                                   3112451556099064899001800049                                                  N                     01321  0000000        000046
12006000195000156MBA MERCANTIL BRAS DE ACO LTDA                                        0000000034100000000000000000000000000000894344200000002451556260009697B03     201212202012092700000000055530000392040000000000392040000000000000000000000000000000050000000000  3020121220   01FS        1                                                                                   3112451556263064899001800019                                                  N                     01321  0000000        000047
12006000195000156MBA MERCANTIL BRAS DE ACO LTDA                                        0000000034100000000000000000000000000000894343930000002451556660009734B02     201211272012092800000000055300000278567000000000278567000000000000000000000000000000050000000000  3020121127   01FS        1                                                                                   3112451556669064899001800029                                                  N                     01321  0000000        000048
12006000195000156M B A MERCANTIL BRASILEIRA DE                                         0000000023700118P00000002128292 00000000837460630090218400000190008737B03     201209262012062900000000054680000582257000000000582257000000000000000000000000000000050000000000  3020120926   05          3  RUA JUNO  533                                                                    3                         000000000000000                                     N                     00598  0000000        000049
12006000195000156MBA MERCANTIL BRAS DE ACO LTDA                                        0000000034100000000000000000000000000000894344010000002451556630009733B02     201211262012092800000000055290000520246000000000520246000000000000000000000000000000050000000000  3020121126   01FS        1                                                                                   3112451556636064899001800059                                                  N                     01321  0000000        000050
12006000195000156MBA MERCANTIL BRAS DE ACO LTDA                                        0000000034100000000000000000000000000000894344140000002451556050009670B01     201210232012092500000000054950000945663000000000945663000000000000000000000000000000050000000000  3020121023   01FS        1                                                                                   3112451556057064899001800039                                                  N                     01321  0000000        000051
12006000195000156MBA MERCANTIL BRAS DE ACO LTDA                                        0000000034100000000000000000000000000000894343940000002451556670009734B03     201212252012092800000000055580000278566000000000278566000000000000000000000000000000050000000000  3020121226   01FS        1                                                                                   3112451556677064899001800039                                                  N                     01321  0000000        000052
12006000195000156MBA MERCANTIL BRAS DE ACO LTDA                                        0000000034100000000000000000000000000000887698090000001671394550008925B02     201209142012071700000000054560000719581000000000747881000000000000000000000000028300050000000000  3020121004   01          2                                                                                   3191671394556064849251000089                                                  N                     01321  0000000        000053
12006000195000156M B A MERCANTIL BRASILEIRA DE                                         0000000023700118P00000002128292 00000000837460660090218400000250008735B03     201209242012062900000000054660000363851000000000363851000000000000000000000000000000050000000000  3020120924   05          3  RUA JUNO  533                                                                    3                         000000000000000                                     N                     00598  0000000        000054
12006000195000156MBA MERCANTIL BRAS DE ACO LTDA                                        0000000034100000000000000000000000000000894344020000002451556640009733B03     201212242012092800000000055570000520245000000000520245000000000000000000000000000000050000000000  3020121224   01FS        1                                                                                   3112451556644064899001800069                                                  N                     01321  0000000        000055
12006000195000156MBA MERCANTIL BRAS DE ACO LTDA                                        0000000034100000000000000000000000000000894344150000002451556060009670B02     201211202012092500000000055230000822316000000000822316000000000000000000000000000000050000000000  3020121120   01FS        1                                                                                   3112451556065064899001800019                                                  N                     01321  0000000        000056
12006000195000156MBA MERCANTIL BRAS DE ACO LTDA                                        0000000034100000000000000000000000000000887698100000001671394560008926B02     201209142012071700000000054560000387716000000000402976000000000000000000000000015260050000000000  3020121004   01          2                                                                                   3191671394564064849251000019                                                  N                     01321  0000000        000057
12006000195000156MBA MERCANTIL BRAS DE ACO LTDA                                        0000000034100000000000000000000000000000894343960000002451556700009735B03     201212262012092800000000055590000239096000000000239096000000000000000000000000000000050000000000  3020121226   01FS        1                                                                                   3112451556701064899001800019                                                  N                     01321  0000000        000058
12006000195000156MBA MERCANTIL BRAS DE ACO LTDA                                        0000000034100000000000000000000000000000889578520000001671394540008920B02     201209162012071700000000054580000576585000000000596997000000000000000000000000020412050000000000  3020121004   01          2                                                                                   3191671394549064849251000099                                                  N                     01321  0000000        000059
12006000195000156MBA MERCANTIL BRAS DE ACO LTDA                                        0000000034100000000000000000000000000000894344030000002451556650009734B01     201210302012092800000000055020000278567000000000278567000000000000000000000000000000050000000000  3020121030   01FS        1                                                                                   3112451556651064899001800089                                                  N                     01321  0000000        000060
12006209559000102MAZURKY IND COM EMB LTDA                                              000000003410000000000000000000000000000087820532000000233961390010076 2       201209252012082100000000054670000092750000000000092750000000000000000000000000000000050000000000  3020120925   06          3                                                                                   3112339613906151434240900049                                                  N                     01321  0000000        000061
12007175725000160WEG EQUIPAMENTOS ELETRICOS SA                                         0000000023702727800000000196800 00000000832180610090217400004980095359902     201209202012052300000000054620000272787000000000277869000000000000000000000000005082050000000000  3020121004   01          2  R JUNO  533                                                                      3                         000000000000000                                     N                     00598  0000000        000062
12008508119000181DINARI FOMENTO MERCANTIL LTDA                                         000000004220000000000000000000000000000087820582000000000000000235            201209282012083000000000054700000220000000000000223960000000000000000000000000003960050000000000  3020121004   01          2                                                                                   3702000009323370918215242159                                                  N                     01321  0000000        000063
12009419898000101LUSITANO INDUSTRIA C E P LTDA                                         00000000341000000000000000000000000000008653882000000090000757101 10137 2     201209192012081500000000054610000035135000000000036890000000000000000000000000001755050000000000  3020121004   01          2                                                                                   3109000075716001160072300049                                                  N                     01321  0000000        000064
12012006058000121WEG TINTAS LTDA                                                       0000000023702727800000000001309 00000000842436840090219200000860015068803     201209222012070900000000054640000306662000000000311558000000000000000000000000004896050000000000  3020121004   01          2  R JUNO  533                                                                      3                         000000000000000                                     N                     00598  0000000        000065
12012006058000121WEG TINTAS LTDA                                                       0000000023702727800000000001309 00000000847452160090220000000930015248103     201209302012071700000000054720000306662000000000308294000000000000000000000000001632050000000000  3020121004   01          2  R JUNO  533                                                                      3                         000000000000000                                     N                     00598  0000000        000066
12012006058000121WEG TINTAS LTDA                                                       0000000023702727800000000001309 00000000844839230090219500000720015168702     201209102012071200000000054520000306569000000000316361000000000000000000000000009792050000000000  3020121004   01          2  R JUNO  533                                                                      3                         000000000000000                                     N                     00598  0000000        000067
12012006058000121WEG TINTAS LTDA                                                       0000000023702727800000000001309 00000000849855330090220500001210015343102     201209182012072000000000054600000306569000000000313097000000000000000000000000006528050000000000  3020121004   01          2  R JUNO  533                                                                      3                         000000000000000                                     N                     00598  0000000        000068
12012006058000121WEG TINTAS LTDA                                                       0000000023702727800000000001309 00000000844839240090219500000730015168703     201209252012071200000000054670000306662000000000310334000000000000000000000000003672050000000000  3020121004   01          2  R JUNO  533                                                                      3                         000000000000000                                     N                     00598  0000000        000069
12012006058000121WEG TINTAS LTDA                                                       0000000023702727800000000001309 00000000849855340090220500001220015343103     201210032012072000000000054750000306662000000000307070000000000000000000000000000408050000000000  3020121004   01          2  R JUNO  533                                                                      3                         000000000000000                                     N                     00598  0000000        000070
12012006058000121WEG TINTAS LTDA                                                       0000000023702727800000000001309 00000000847452150090220000000920015248102     201209152012071700000000054570000306569000000000314321000000000000000000000000007752050000000000  3020121004   01          2  R JUNO  533                                                                      3                         000000000000000                                     N                     00598  0000000        000071
12012006058000121WEG TINTAS LTDA                                                       0000000023702727800000000001309 00000000856071250090221400000820015587301     201209142012073100000000054560000459854000000000472114000000000000000000000000012260050000000000  3020121004   01          2  R JUNO  533                                                                      3                         000000000000000                                     N                     00598  0000000        000072
12012006058000121WEG TINTAS LTDA                                                       0000000023702727800000000001309 00000000856071260090221400000830015587302     201209292012073100000000054710000459854000000000462919000000000000000000000000003065050000000000  3020121004   01          2  R JUNO  533                                                                      3                         000000000000000                                     N                     00598  0000000        000073
12012006058000121WEG TINTAS LTDA                                                       0000000023702727800000000001309 00000000861207260090222200000900015775001     201209222012080800000000054640000306569000000000311465000000000000000000000000004896050000000000  3020121004   01          2  R JUNO  533                                                                      3                         000000000000000                                     N                     00598  0000000        000074
12012006058000121WEG TINTAS LTDA                                                       0000000023702727800000000001309 00000000854049550090221200001010015513002     201209252012072700000000054670000459854000000000465371000000000000000000000000005517050000000000  3020121004   01          2  R JUNO  533                                                                      3                         000000000000000                                     N                     00598  0000000        000075
12012006058000121WEG TINTAS LTDA                                                       0000000023702727800000000001309 00000000864554440090222800000730015908401     201209282012081400000000054700000306569000000000309017000000000000000000000000002448050000000000  3020121004   01          2  R JUNO  533                                                                      3                         000000000000000                                     N                     00598  0000000        000076
12012006058000121WEG TINTAS LTDA                                                       0000000023702727800000000001309 00000000841061130090218800000850014990203     201209182012070500000000054600000306662000000000313190000000000000000000000000006528050000000000  3020121004   01          2  R JUNO  533                                                                      3                         000000000000000                                     N                     00598  0000000        000077
12012006058000121WEG TINTAS LTDA                                                       0000000023702727800000000001309 00000000854049540090221200001000015513001     201209102012072700000000054520000459854000000000474566000000000000000000000000014712050000000000  3020121004   01          2  R JUNO  533                                                                      3                         000000000000000                                     N                     00598  0000000        000078
12014309992000148WEG DRIVES   CONTROLS   AUTOMA                                        0000000023702727800000000001872 00000000828904050090217000002200005763302     201209152012051800000000054570000272992000000000279889000000000000000000000000006897050000000000  3020121004   01          2  R JUNO  533                                                                      3                         000000000000000                                     N                     00598  0000000        000079
12014775592000128HELIO ADRIANO DA SILVA ME                                             0000000003300000000000000000000000000000880122770000004900000008565 8566      201209282012091000000000054700000034500000000000035327000000000000000000000000000827050000000000  3020121004   01          2                                                                                   3956114740000000000049010129                                                  N                     01321  0000000        000080
12014775592000128HELIO ADRIANO DA SILVA ME                                             0000000023700593200000002432943 00000000894344270090227700000128727           201210102012092500000000054820000019500000000000019500000000000000000000000000000000050000000000  3020121010   01FS        1  AV TAMAINDE 1410                                                                 3                         000000000000000                                     N                     00598  0000000        000081
12033325184001786ALSCO TOALHEIRO BRASIL                                                0000000023703396000000001490850 0000000087820607009000002716505VM27165        201209262012090600000000054680000045665000000000046033000000000000000000000000000368050000000000  3020121004   01          2  RUA  GANGES 528                                                                  3                         000000000000000                                     N                     00598  0000000        000082
12035820448000136WHITE MARTINS GASES INDUSTRIAI                                        0000000023700026400000003937925 0000000086907101009022370010705372273 001     201209202012082400000000054620000017600000000000018274000000000000000000000000000674050000000000  3020121004   01          2  RUA GANGES  528                                                                  3                         000000000000000                                     N                     00598  0000000        000083
12035820448000136WHITE MARTINS GASES INDUSTRIAI                                        0000000023700026400000003937925 0000000086907102009022370011747372774 001     201209202012082400000000054620000040575000000000042142000000000000000000000000001567050000000000  3020121004   01          2  RUA GANGES  528                                                                  3                         000000000000000                                     N                     00598  0000000        000084
12035820448000136WHITE MARTINS GASES INDUSTRIAI                                        0000000023700026400000003937925 0000000087067052009022420002594374120 001     201209252012082900000000054670000113610000000000117241000000000000000000000000003631050000000000  3020121004   01          2  RUA GANGES  528                                                                  3                         000000000000000                                     N                     00598  0000000        000085
12035820448000136WHITE MARTINS GASES INDUSTRIAI                                        0000000023700026400000003937925 0000000087168275009022440000143375351 001     201209272012083100000000054690000040575000000000041764000000000000000000000000001189050000000000  3020121004   01          2  RUA GANGES  528                                                                  3                         000000000000000                                     N                     00598  0000000        000086
12035820448000136WHITE MARTINS GASES INDUSTRIAI                                        0000000023700026400000003937925 0000000089434421009022770000183388994 001     201210302012100300000000055020000056805000000000056805000000000000000000000000000000050000000000  3020121030   01FS        1  RUA GANGES  528                                                                  3                         000000000000000                                     N                     00598  0000000        000087
12035820448000136WHITE MARTINS GASES INDUSTRIAI                                        0000000023700026400000003937925 0000000087577331009022500001416377141 001     201210022012090600000000054740000040575000000000041414000000000000000000000000000839050000000000  3020121004   01          2  RUA GANGES  528                                                                  3                         000000000000000                                     N                     00598  0000000        000088
12035820448000136WHITE MARTINS GASES INDUSTRIAI                                        0000000023700026400000003937925 0000000086699210009022330000393368126 001     201209142012081800000000054560000162300000000000169866000000000000000000000000007566050000000000  3020121004   01          2  RUA GANGES  528                                                                  3                         000000000000000                                     N                     00598  0000000        000089
12035820448000136WHITE MARTINS GASES INDUSTRIAI                                        0000000023700026400000003937925 0000000086538817009022290001168366855 001     201209112012081600000000054530000121725000000000127885000000000000000000000000006160050000000000  3020121004   01          2  RUA GANGES  528                                                                  3                         000000000000000                                     N                     00598  0000000        000090
12035820448000136WHITE MARTINS GASES INDUSTRIAI                                        0000000023700026400000003937925 0000000086812633009022350001453369229 001     201209182012082200000000054600000056805000000000059157000000000000000000000000002352050000000000  3020121004   01          2  RUA GANGES  528                                                                  3                         000000000000000                                     N                     00598  0000000        000091
12042956441000101SOLUCOES ACO USIMINAS                                                 0000000034100000000000000000000000000000858616390000002271409750017315102     201209272012080200000000054690000579374000000000587487000000000000000000000000008113050000000000  3020121004   01          2                                                                                   3112271409750293807258000019                                                  N                     01321  0000000        000092
12042956441000101SOLUCOES ACO USIMINAS                                                 0000000034100000000000000000000000000000850740510000002233586850017127102     201209172012072000000000054590000167727000000000173422000000000000000000000000005695050000000000  3020121004   01          2                                                                                   3112233586851293807258000039                                                  N                     01321  0000000        000093
12042956441000101SOLUCOES ACO USIMINAS                                                 0000000034100000000000000000000000000000858616460000002271409820017319802     201209272012080200000000054690000194525000000000197248000000000000000000000000002723050000000000  3020121004   01          2                                                                                   3112271409826293807258000079                                                  N                     01321  0000000        000094
12042956441000101SOLUCOES ACO USIMINAS                                                 0000000034100000000000000000000000000000841725550000002188168630016859503     201209262012070400000000054680000234336000000000238088000000000000000000000000003752050000000000  3020121004   01          2                                                                                   3112188168630293807258000089                                                  N                     01321  0000000        000095
12042956441000101SOLUCOES ACO USIMINAS                                                 0000000034100000000000000000000000000000856906410000002262886280017266201     201208282012073000000000054390000119472000000000128315000000000000000000000000008843050000000000  3020121004   01          2                                                                                   3112262886289293807258000089                                                  N                     01321  0000000        000096
12042956441000101SOLUCOES ACO USIMINAS                                                 0000000034100000000000000000000000000000855028690000002254329380017212902     201209212012072600000000054630000140098000000000143738000000000000000000000000003640050000000000  3020121004   01          2                                                                                   3112254329389293807258000019                                                  N                     01321  0000000        000097
12042956441000101SOLUCOES ACO USIMINAS                                                 0000000034100000000000000000000000000000840313090000002181699240016827103     201209242012070200000000054660000703009000000000717069000000000000000000000000014060050000000000  3020121004   01          2                                                                                   3112181699243293807258000019                                                  N                     01321  0000000        000098
12042956441000101SOLUCOES ACO USIMINAS                                                 0000000034100000000000000000000000000000858616400000002271409760017316002     201209272012080200000000054690000929451000000000942464000000000000000000000000013013050000000000  3020121004   01          2                                                                                   3112271409768293807258000079                                                  N                     01321  0000000        000099
12042956441000101SOLUCOES ACO USIMINAS                                                 0000000034100000000000000000000000000000861207230000002282166990017385802     201210022012080700000000054740000714796000000000717656000000000000000000000000002860050000000000  3020121004   01          2                                                                                   3112282166993293807258000049                                                  N                     01321  0000000        000100
12042956441000101SOLUCOES ACO USIMINAS                                                 0000000034100000000000000000000000000000853154830000002246247020017196602     201209202012072500000000054620000804808000000000827348000000000000000000000000022540050000000000  3020121004   01          2                                                                                   3112246247020293807258000089                                                  N                     01321  0000000        000101
12042956441000101SOLUCOES ACO USIMINAS                                                 0000000034100000000000000000000000000000855028700000002254329390017213002     201209212012072600000000054630000140602000000000144255000000000000000000000000003653050000000000  3020121004   01          2                                                                                   3112254329397293807258000089                                                  N                     01321  0000000        000102
12042956441000101SOLUCOES EM ACO USIMINAS S A                                          000000000010000000000000000000000000000083482053000000086560000000166827003   201209172012062600000000054590000577023000000000587409000000000000000000000000011540050000000000  3020120926   05          3                                                                                   3000000169660100000865601719                                                  N                     01321  0000000        000103
12042956441000101SOLUCOES ACO USIMINAS                                                 0000000034100000000000000000000000000000844063840000002198870040016923303     201210022012071000000000054740000442971000000000444743000000000000000000000000001772050000000000  3020121004   01          2                                                                                   3112198870043293807258000069                                                  N                     01321  0000000        000104
12042956441000101SOLUCOES ACO USIMINAS                                                 0000000034100000000000000000000000000000858616410000002271409770017319302     201209272012080200000000054690000981526000000000995267000000000000000000000000013741050000000000  3020121004   01          2                                                                                   3112271409776293807258000019                                                  N                     01321  0000000        000105
12042956441000101SOLUCOES ACO USIMINAS                                                 0000000034100000000000000000000000000000859590620000002274469790017353702     201209282012080300000000054700000081053000000000082025000000000000000000000000000972050000000000  3020121004   01          2                                                                                   3112274469793293807258000069                                                  N                     01321  0000000        000106
12042956441000101SOLUCOES ACO USIMINAS                                                 0000000034100000000000000000000000000000855028720000002254329340017200202     201209202012072600000000054620000680385000000000699439000000000000000000000000019054050000000000  3020121004   01          2                                                                                   3112254329348293807258000079                                                  N                     01321  0000000        000107
12042956441000101SOLUCOES ACO USIMINAS                                                 0000000034100000000000000000000000000000856906420000002262886290017266301     201208282012073000000000054390000145069000000000155799000000000000000000000000010730050000000000  3020121004   01          2                                                                                   3112262886297293807258000099                                                  N                     01321  0000000        000108
12042956441000101SOLUCOES ACO USIMINAS                                                 0000000034100000000000000000000000000000848180710000002220192910017041202     201209112012071700000000054530000205421000000000214874000000000000000000000000009453050000000000  3020121004   01          2                                                                                   3112220192911293807258000019                                                  N                     01321  0000000        000109
12042956441000101SOLUCOES EM ACO USIMINAS S A                                          000000000010000000000000000000000000000083482056000000086563000000166828003   201209172012062600000000054590000325384000000000331243000000000000000000000000006510050000000000  3020120926   05          3                                                                                   3000000169660100000865631789                                                  N                     01321  0000000        000110
12042956441000101SOLUCOES EM ACO USIMINAS S A                                          000000000010000000000000000000000000000083482047000000086548000000166813003   201209172012062600000000054590000391569000000000398616000000000000000000000000007830050000000000  3020120926   05          3                                                                                   3000000169660100000865481719                                                  N                     01321  0000000        000111
12042956441000101SOLUCOES ACO USIMINAS                                                 0000000034100000000000000000000000000000841725590000002188168660016885103     201209272012070500000000054690000219722000000000222795000000000000000000000000003073050000000000  3020121004   01          2                                                                                   3112188168663293807258000049                                                  N                     01321  0000000        000112
12042956441000101SOLUCOES ACO USIMINAS                                                 0000000034100000000000000000000000000000859590630000002274469800017353802     201209282012080300000000054700000166998000000000169002000000000000000000000000002004050000000000  3020121004   01          2                                                                                   3112274469801293807258000059                                                  N                     01321  0000000        000113
12042956441000101SOLUCOES ACO USIMINAS                                                 0000000034100000000000000000000000000000853154850000002246247040017197302     201209202012072500000000054620000970103000000000997263000000000000000000000000027160050000000000  3020121004   01          2                                                                                   3112246247046293807258000019                                                  N                     01321  0000000        000114
12042956441000101SOLUCOES ACO USIMINAS                                                 0000000034100000000000000000000000000000855028730000002254329350017200302     201209202012072600000000054620000156896000000000161292000000000000000000000000004396050000000000  3020121004   01          2                                                                                   3112254329355293807258000029                                                  N                     01321  0000000        000115
12042956441000101SOLUCOES ACO USIMINAS                                                 0000000034100000000000000000000000000000853154840000002246247030017196702     201209202012072500000000054620000234841000000000241421000000000000000000000000006580050000000000  3020121004   01          2                                                                                   3112246247038293807258000099                                                  N                     01321  0000000        000116
12042956441000101SOLUCOES EM ACO USIMINAS S A                                          000000000010000000000000000000000000000083482059000000086566000000166829003   201209172012062600000000054590000125200000000000127450000000000000000000000000002500050000000000  3020120926   05          3                                                                                   3000000169660100000865661769                                                  N                     01321  0000000        000117
12042956441000101SOLUCOES ACO USIMINAS                                                 0000000034100000000000000000000000000000841725600000002188168670016891203     201209272012070500000000054690001132542000000001148397000000000000000000000000015855050000000000  3020121004   01          2                                                                                   3112188168671293807258000069                                                  N                     01321  0000000        000118
12042956441000101SOLUCOES ACO USIMINAS                                                 0000000034100000000000000000000000000000841725560000002188168640016884803     201209272012070500000000054690000120612000000000122299000000000000000000000000001687050000000000  3020121004   01          2                                                                                   3112188168648293807258000059                                                  N                     01321  0000000        000119
12042956441000101SOLUCOES ACO USIMINAS                                                 0000000034100000000000000000000000000000855028670000002254329360017200402     201209202012072600000000054620000163224000000000167788000000000000000000000000004564050000000000  3020121004   01          2                                                                                   3112254329363293807258000069                                                  N                     01321  0000000        000120
12042956441000101SOLUCOES EM ACO USIMINAS S A                                          000000000010000000000000000000000000000083482050000000086554000000166815003   201209172012062600000000054590000649087000000000660769000000000000000000000000012980050000000000  3020120926   05          3                                                                                   3000000169660100000865541789                                                  N                     01321  0000000        000121
12042956441000101SOLUCOES ACO USIMINAS                                                 0000000034100000000000000000000000000000850740460000002233586800017127201     201208202012072000000000054310000137881000000000150301000000000000000000000000012420050000000000  3020121004   01          2                                                                                   3112233586802293807258000019                                                  N                     01321  0000000        000122
12042956441000101SOLUCOES ACO USIMINAS                                                 0000000034100000000000000000000000000000855028680000002254329370017202402     201209202012072600000000054620000244136000000000250968000000000000000000000000006832050000000000  3020121004   01          2                                                                                   3112254329371293807258000079                                                  N                     01321  0000000        000123
12042956441000101SOLUCOES ACO USIMINAS                                                 0000000034100000000000000000000000000000847452070000002216130350005922202     201209102012071600000000054520000172071000000000180327000000000000000000000000008256050000000000  3020121004   01          2                                                                                   3112216130354293807258000049                                                  N                     01321  0000000        000124
12042956441000101SOLUCOES ACO USIMINAS                                                 0000000034100000000000000000000000000000847452100000002216130340017012402     201209102012071500000000054520000147428000000000154508000000000000000000000000007080050000000000  3020121004   01          2                                                                                   3112216130347293807258000059                                                  N                     01321  0000000        000125
12042956441000101SOLUCOES ACO USIMINAS                                                 0000000034100000000000000000000000000000848180700000002220192900017041002     201209112012071700000000054530000155433000000000162586000000000000000000000000007153050000000000  3020121004   01          2                                                                                   3112220192903293807258000029                                                  N                     01321  0000000        000126
12042956441000101SOLUCOES ACO USIMINAS                                                 0000000034100000000000000000000000000000841725610000002188168680016891403     201209272012070500000000054690000795233000000000806363000000000000000000000000011130050000000000  3020121004   01          2                                                                                   3112188168689293807258000029                                                  N                     01321  0000000        000127
12042956441000101SOLUCOES ACO USIMINAS                                                 0000000034100000000000000000000000000000841725570000002188168690016891503     201209272012070500000000054690001128343000000001144142000000000000000000000000015799050000000000  3020121004   01          2                                                                                   3112188168697293807258000039                                                  N                     01321  0000000        000128
12042956441000101SOLUCOES ACO USIMINAS                                                 0000000034100000000000000000000000000000858616420000002271409780017319402     201209272012080200000000054690000178902000000000181408000000000000000000000000002506050000000000  3020121004   01          2                                                                                   3112271409784293807258000029                                                  N                     01321  0000000        000129
12042956441000101SOLUCOES EM ACO USIMINAS S A                                          000000000010000000000000000000000000000083482042000000086551000000166814003   201209172012062600000000054590000317656000000000323371000000000000000000000000006350050000000000  3020120926   05          3                                                                                   3000000169660100000865511779                                                  N                     01321  0000000        000130
12042956441000101SOLUCOES ACO USIMINAS                                                 0000000034100000000000000000000000000000850740470000002233586810017101002     201209142012071900000000054560000732575000000000761875000000000000000000000000029300050000000000  3020121004   01          2                                                                                   3112233586810293807258000019                                                  N                     01321  0000000        000131
12042956441000101SOLUCOES ACO USIMINAS                                                 0000000034100000000000000000000000000000843180440000002194744360016902903     201209282012070600000000054700000179794000000000181954000000000000000000000000002160050000000000  3020121004   01          2                                                                                   3112194744366293807258000079                                                  N                     01321  0000000        000132
12042956441000101SOLUCOES ACO USIMINAS                                                 0000000034100000000000000000000000000000846595710000002210880290016980602     201209102012071200000000054520000426094000000000446542000000000000000000000000020448050000000000  3020121004   01          2                                                                                   3112210880293293807258000019                                                  N                     01321  0000000        000133
12042956441000101SOLUCOES ACO USIMINAS                                                 0000000034100000000000000000000000000000846595700000002210880280016980502     201209102012071200000000054520000156071000000000163559000000000000000000000000007488050000000000  3020121004   01          2                                                                                   3112210880285293807258000039                                                  N                     01321  0000000        000134
12042956441000101SOLUCOES EM ACO USIMINAS S A                                          000000000010000000000000000000000000000083482044000000086545000000166812003   201209172012062600000000054590000608955000000000619917000000000000000000000000012180050000000000  3020120926   05          3                                                                                   3000000169660100000865451759                                                  N                     01321  0000000        000135
12042956441000101SOLUCOES ACO USIMINAS                                                 0000000034100000000000000000000000000000850740480000002233586820017101202     201209142012071900000000054560000144634000000000150414000000000000000000000000005780050000000000  3020121004   01          2                                                                                   3112233586828293807258000029                                                  N                     01321  0000000        000136
12042956441000101SOLUCOES ACO USIMINAS                                                 0000000034100000000000000000000000000000858616430000002271409790017319502     201209272012080200000000054690000197380000000000200145000000000000000000000000002765050000000000  3020121004   01          2                                                                                   3112271409792293807258000049                                                  N                     01321  0000000        000137
12042956441000101SOLUCOES ACO USIMINAS                                                 0000000034100000000000000000000000000000840313040000002181699250016829703     201209242012070200000000054660000643711000000000656581000000000000000000000000012870050000000000  3020121004   01          2                                                                                   3112181699250293807258000019                                                  N                     01321  0000000        000138
12042956441000101SOLUCOES ACO USIMINAS                                                 0000000034100000000000000000000000000000840313080000002181699230016814403     201209242012070200000000054660000968423000000000987793000000000000000000000000019370050000000000  3020121004   01          2                                                                                   3112181699235293807258000079                                                  N                     01321  0000000        000139
12042956441000101SOLUCOES ACO USIMINAS                                                 0000000034100000000000000000000000000000850740490000002233586830017126902     201209172012072000000000054590000208392000000000215481000000000000000000000000007089050000000000  3020121004   01          2                                                                                   3112233586836293807258000089                                                  N                     01321  0000000        000140
12042956441000101SOLUCOES ACO USIMINAS                                                 0000000034100000000000000000000000000000856906430000002262886300017266202     201209252012073000000000054670000119436000000000121587000000000000000000000000002151050000000000  3020121004   01          2                                                                                   3112262886305293807258000019                                                  N                     01321  0000000        000141
12042956441000101SOLUCOES ACO USIMINAS                                                 0000000034100000000000000000000000000000858616440000002271409800017319602     201209272012080200000000054690000197044000000000199802000000000000000000000000002758050000000000  3020121004   01          2                                                                                   3112271409800293807258000019                                                  N                     01321  0000000        000142
12042956441000101SOLUCOES ACO USIMINAS                                                 0000000034100000000000000000000000000000841725540000002188168620016859403     201209262012070400000000054680000164455000000000167087000000000000000000000000002632050000000000  3020121004   01          2                                                                                   3112188168622293807258000019                                                  N                     01321  0000000        000143
12042956441000101SOLUCOES ACO USIMINAS                                                 0000000034100000000000000000000000000000840313050000002181699260016829803     201209242012070200000000054660000322527000000000328977000000000000000000000000006450050000000000  3020121004   01          2                                                                                   3112181699268293807258000029                                                  N                     01321  0000000        000144
12042956441000101SOLUCOES ACO USIMINAS                                                 0000000034100000000000000000000000000000836417910000002164218370016738103     201209192012062700000000054610000830173000000000855073000000000000000000000000024900050000000000  3020121004   01          2                                                                                   3112164218375293807258000039                                                  N                     01321  0000000        000145
12042956441000101SOLUCOES ACO USIMINAS                                                 0000000034100000000000000000000000000000856906440000002262886310017266302     201209252012073000000000054670000145025000000000147635000000000000000000000000002610050000000000  3020121004   01          2                                                                                   3112262886313293807258000029                                                  N                     01321  0000000        000146
12042956441000101SOLUCOES ACO USIMINAS                                                 0000000034100000000000000000000000000000841725580000002188168650016884903     201209272012070500000000054690000531835000000000539283000000000000000000000000007448050000000000  3020121004   01          2                                                                                   3112188168655293807258000019                                                  N                     01321  0000000        000147
12042956441000101SOLUCOES ACO USIMINAS                                                 0000000034100000000000000000000000000000858616450000002271409810017319702     201209272012080200000000054690000197212000000000199970000000000000000000000000002758050000000000  3020121004   01          2                                                                                   3112271409818293807258000019                                                  N                     01321  0000000        000148
12042956441000101SOLUCOES ACO USIMINAS                                                 0000000034100000000000000000000000000000850740500000002233586840017127002     201209172012072000000000054590000190428000000000196905000000000000000000000000006477050000000000  3020121004   01          2                                                                                   3112233586844293807258000019                                                  N                     01321  0000000        000149
12042956441000101SOLUCOES ACO USIMINAS                                                 0000000034100000000000000000000000000000855028770000002254329400017220502     201209212012072700000000054630000981022000000001006528000000000000000000000000025506050000000000  3020121004   01          2                                                                                   3112254329405293807258000099                                                  N                     01321  0000000        000150
12043217850000159IOB INFORMACOES OBJ  PUBL JURI                                        0000000023702374400000002958600 000000008711912800902243000063301440820F2     201209202012083000000000054620000072850000000000074643000000000000000000000000001793050000000000  3020121004   01          2  R GANGES 528                                                                     3                         000000000000000                                     N                     00598  0000000        000151
12043217850000159IOB INFORMACOES OBJ  PUBL JURI                                        0000000023702374400000002958600 000000008540495200902212000099001440820E4     201208202012073000000000054310000072850000000000075387000000000000000000000000002537050000000000  3020121004   01          2  GANGES 528 VL NOVA MANCHESTER                                                    3                         000000000000000                                     N                     00598  0000000        000152
12047190731000100DE CASTRO LOUREIRO ENGENHARIA                                         0000000023703394400000000205508 000000008801225600202255000001503026795 0     201210012012090300000000054730001207555000000001213594000000000000000000000000006039050000000000  3020121004   01          2  RUA JUNO  533                                                                    3                         000000000000000                                     N                     00598  0000000        000153
12047190731000100DE CASTRO LOUR ENG IND LTDA                                           00000000341000000000000000000000000000008782052700000023399956203026648 0     201209202012082300000000054620000976053000000001002933000000000000000000000000026880050000000000  3020121004   01          2                                                                                   3112339995626036884500400029                                                  N                     01321  0000000        000154
12047190731000100DE CASTRO LOUR ENG IND LTDA                                           00000000341000000000000000000000000000008782052500000023399955603026636 0     201209192012082200000000054610000940804000000000968554000000000000000000000000027750050000000000  3020121004   01          2                                                                                   3112339995568036884500400049                                                  N                     01321  0000000        000155
12047190731000100DE CASTRO LOUR ENG IND LTDA                                           00000000341000000000000000000000000000008782052000000023399955303026632 0     201209192012082200000000054610000952073000000000980153000000000000000000000000028080050000000000  3020121004   01          2                                                                                   3112339995535036884500400019                                                  N                     01321  0000000        000156
12047190731000100DE CASTRO LOUR ENG IND LTDA                                           00000000341000000000000000000000000000008782050900000023399953503026612 0     201209182012082100000000054600001111489000000001146465000000000000000000000000034976050000000000  3020121004   01          2                                                                                   3112339995352036884500400019                                                  N                     01321  0000000        000157
12047190731000100DE CASTRO LOUR ENG IND LTDA                                           00000000341000000000000000000000000000008782051600000023399954103026614 0     201209182012082100000000054600001047621000000001080581000000000000000000000000032960050000000000  3020121004   01          2                                                                                   3112339995410036884500400039                                                  N                     01321  0000000        000158
12047190731000100DE CASTRO LOUR ENG IND LTDA                                           00000000341000000000000000000000000000008782052100000023399955903026643 0     201209202012082300000000054620000867039000000000890909000000000000000000000000023870050000000000  3020121004   01          2                                                                                   3112339995592036884500400049                                                  N                     01321  0000000        000159
12047190731000100DE CASTRO LOUREIRO ENGENHARIA                                         00000000033000000000000000000000000000008801226600000042000000003026797 0     201210032012090300000000054750000422495000000000430945000000000000000000000000008450050000000000  3020121004   01          2                                                                                   3948430370000009553142020389                                                  N                     01321  0000000        000160
12047190731000100DE CASTRO LOUR ENG IND LTDA                                           00000000341000000000000000000000000000008782051200000023399953803026613 0     201209182012082100000000054600001107989000000001142853000000000000000000000000034864050000000000  3020121004   01          2                                                                                   3112339995386036884500400039                                                  N                     01321  0000000        000161
12047190731000100DE CASTRO LOUR ENG IND LTDA                                           00000000341000000000000000000000000000008782058900000023602714603026734 0     201209252012082800000000054670000997834000000001015492000000000000000000000000017658050000000000  3020121004   01          2                                                                                   3112360271467036884500400039                                                  N                     01321  0000000        000162
12047190731000100DE CASTRO LOUR ENG IND LTDA                                           00000000341000000000000000000000000000008782059300000023602715203026745 0     201209262012082900000000054680000903175000000000917383000000000000000000000000014208050000000000  3020121004   01          2                                                                                   3112360271525036884500400069                                                  N                     01321  0000000        000163
12047190731000100DE CASTRO LOUR ENG IND LTDA                                           00000000341000000000000000000000000000008782059800000023602714903026744 0     201209272012082900000000054690000146594000000000148610000000000000000000000000002016050000000000  3020121004   01          2                                                                                   3112360271491036884500400089                                                  N                     01321  0000000        000164
12047190731000100DE CASTRO LOUREIRO ENGENHARIA                                         0000000023703394400000000205508 000000008801224700202255000000603026784 0     201209282012083100000000054700001041759000000001052175000000000000000000000000010416050000000000  3020121004   01          2  RUA JUNO  533                                                                    3                         000000000000000                                     N                     00598  0000000        000165
12047190731000100DE CASTRO LOUREIRO ENGENHARIA                                         0000000023703394400000000205508 000000008801225300202255000001203026794 0     201210012012090300000000054730001209130000000001215175000000000000000000000000006045050000000000  3020121004   01          2  RUA JUNO  533                                                                    3                         000000000000000                                     N                     00598  0000000        000166
12047190731000100DE CASTRO LOUREIRO ENGENHARIA                                         0000000023703394400000000205508 000000008801225000202255000000903026787 0     201209282012083100000000054700001135987000000001147345000000000000000000000000011358050000000000  3020121004   01          2  RUA JUNO  533                                                                    3                         000000000000000                                     N                     00598  0000000        000167
12048775225000146SEIKI IND COM E CONFECCOES LTD                                        000000003410000000000000000000000000000087820591000000235780573014311001      201209282012083100000000054700000052000000000000052468000000000000000000000000000468050000000000  3020121004   01          2                                                                                   3112357805731017444824100069                                                  N                     01321  0000000        000168
12051180370000199IGUAFER FERRO E ACO LTDA                                              0000000034100000000000000000000000000000852309120000002239389809443 D         201209222012071800000000054640000168275000000000171635000000000000000000000000003360050000000000  3020121004   01          2                                                                                   3112239389805077149484600029                                                  N                     01321  0000000        000169
12051180370000199IGUAFER FERRO E ACO LTDA                                              0000000034100000000000000000000000000000852309100000002239389789443 B         201209022012071800000000054440000168275000000000177235000000000000000000000000008960050000000000  3020121004   01          2                                                                                   3112239389789077149484600089                                                  N                     01321  0000000        000170
12051180370000199IGUAFER FERRO E ACO LTDA                                              0000000034100000000000000000000000000000852309110000002239389799443 C         201209122012071800000000054540000168275000000000174435000000000000000000000000006160050000000000  3020121004   01          2                                                                                   3112239389797077149484600089                                                  N                     01321  0000000        000171
12053585766000141MULTIACOS I C PRODS TEC LTDA                                          0000000042200000000000000000000000000000875773570000000000000000004421903     201210012012090400000000054730000942203000000000946912000000000000000000000000004709050000000000  3020121004   01          2                                                                                   3711500005033164919152511129                                                  N                     01321  0000000        000172
12053585766000141MULTIACOS I C PRODS TEC LTDA                                          0000000042200000000000000000000000000000875773500000000000000000004437503     201210032012090400000000054750000418711000000000419408000000000000000000000000000697050000000000  3020121004   01          2                                                                                   3711500005033164919152473129                                                  N                     01321  0000000        000173
12053585766000141MULTIACOS I C PRODS TEC LTDA                                          0000000042200000000000000000000000000000875773440000000000000000004423703     201210022012090400000000054740000535467000000000537250000000000000000000000000001783050000000000  3020121004   01          2                                                                                   3711500005033164919152384119                                                  N                     01321  0000000        000174
12053585766000141MULTIACOS I C PRODS TEC LTDA                                          0000000042200000000000000000000000000000875773510000000000000000004437603     201210032012090400000000054750000311767000000000312286000000000000000000000000000519050000000000  3020121004   01          2                                                                                   3711500005033164919152481159                                                  N                     01321  0000000        000175
12053585766000141MULTIACOS I C PRODS TEC LTDA                                          0000000042200000000000000000000000000000875773540000000000000000004423603     201210022012090400000000054740000606735000000000608756000000000000000000000000002021050000000000  3020121004   01          2                                                                                   3711500005033164919152457189                                                  N                     01321  0000000        000176
12053585766000141MULTIACOS I C PRODS TEC LTDA                                          0000000042200000000000000000000000000000875773370000000000000000004570001     201210022012090400000000054740001029874000000001033305000000000000000000000000003431050000000000  3020121004   01          2                                                                                   3711500005033164919152341129                                                  N                     01321  0000000        000177
12053585766000141MULTIACOS I C PRODS TEC LTDA                                          0000000042200000000000000000000000000000878205720000000000000000004478902     201209272012082800000000054690000130644000000000132169000000000000000000000000001525050000000000  3020121004   01          2                                                                                   3711500005033164917492625119                                                  N                     01321  0000000        000178
12053585766000141MULTIACOS I C PRODS TEC LTDA                                          0000000042200000000000000000000000000000875773550000000000000000004437803     201210032012090400000000054750000435925000000000436651000000000000000000000000000726050000000000  3020121004   01          2                                                                                   3711500005033164919152503139                                                  N                     01321  0000000        000179
12053585766000141MULTIACOS I C PRODS TEC LTDA                                          0000000042200000000000000000000000000000875773330000000000000000004566101     201210012012090400000000054730001320414000000001327016000000000000000000000000006602050000000000  3020121004   01          2                                                                                   3711500005033164919152295119                                                  N                     01321  0000000        000180
12053585766000141MULTIACOS I C PRODS TEC LTDA                                          0000000042200000000000000000000000000000875773400000000000000000004500902     201210022012090400000000054740000962577000000000965784000000000000000000000000003207050000000000  3020121004   01          2                                                                                   3711500005033164919152287179                                                  N                     01321  0000000        000181
12053585766000141MULTIACOS I C PRODS TEC LTDA                                          0000000042200000000000000000000000000000875773420000000000000000004501002     201210022012090400000000054740000902868000000000905877000000000000000000000000003009050000000000  3020121004   01          2                                                                                   3711500005033164919152376149                                                  N                     01321  0000000        000182
12053585766000141MULTIACOS I C PRODS TEC LTDA                                          0000000042200000000000000000000000000000875773320000000000000000004500802     201210022012090400000000054740000173389000000000173966000000000000000000000000000577050000000000  3020121004   01          2                                                                                   3711500005033164919152261179                                                  N                     01321  0000000        000183
12053585766000141MULTIACOS I C PRODS TEC LTDA                                          0000000042200000000000000000000000000000878205780000000000000000004479002     201209272012082800000000054690000831267000000000840961000000000000000000000000009694050000000000  3020121004   01          2                                                                                   3711500005033164917492676169                                                  N                     01321  0000000        000184
12053585766000141MULTIACOS I C PRODS TEC LTDA                                          0000000042200000000000000000000000000000878205730000000000000000004553201     201209272012082800000000054690001148798000000001162202000000000000000000000000013404050000000000  3020121004   01          2                                                                                   3711500005033164917492633119                                                  N                     01321  0000000        000185
12053585766000141MULTIACOS I C PRODS TEC LTDA                                          0000000042200000000000000000000000000000878205790000000000000000004478802     201209272012082800000000054690000211226000000000213689000000000000000000000000002463050000000000  3020121004   01          2                                                                                   3711500005033164917492684119                                                  N                     01321  0000000        000186
12053585766000141MULTIACOS I C PRODS TEC LTDA                                          0000000042200000000000000000000000000000878205760000000000000000004411803     201209282012082800000000054700000585031000000000590880000000000000000000000000005849050000000000  3020121004   01          2                                                                                   3711500005033164917492722119                                                  N                     01321  0000000        000187
12053585766000141MULTIACOS IND  COM  PROD  TEC                                         0000000038900000000000000000000000000000874070440000000000000000004565101     201210012012082000000000054730000469526000000000471875000000000000000000000000002349050000000000  3020121004   01          2                                                                                   3015601031417440000042309219                                                  N                     01321  0000000        000188
12053585766000141MULTIACOS I C PRODS TEC LTDA                                          0000000042200000000000000000000000000000875773450000000000000000004429603     201210032012090400000000054750000910020000000000911536000000000000000000000000001516050000000000  3020121004   01          2                                                                                   3711500005033164919152392119                                                  N                     01321  0000000        000189
12053585766000141MULTIACOS IND  COM  PROD  TEC                                         0000000038900000000000000000000000000000874070430000000000000000004493802     201210012012080600000000054730000828107000000000832247000000000000000000000000004140050000000000  3020121004   01          2                                                                                   3015601031417297000042309299                                                  N                     01321  0000000        000190
12053585766000141MULTIACOS I C PRODS TEC LTDA                                          0000000042200000000000000000000000000000875773460000000000000000004429703     201210012012090400000000054730000624532000000000627654000000000000000000000000003122050000000000  3020121004   01          2                                                                                   3711500005033164919152406199                                                  N                     01321  0000000        000191
12053585766000141MULTIACOS IND  COM  PROD  TEC                                         0000000038900000000000000000000000000000874070420000000000000000004493702     201210012012080600000000054730000180041000000000180941000000000000000000000000000900050000000000  3020121004   01          2                                                                                   3015601031417289000042309299                                                  N                     01321  0000000        000192
12054382510000108SETENTA IND E COM DE MADEIRAS                                         0000000034100000000000000000000000000000860403430000002277814474462 A         201209042012080700000000054460000191200000000000202480000000000000000000000000011280050000000000  3020121004   01          2                                                                                   3112277814474057049175300069                                                  N                     01321  0000000        000193
12054382510000108SETENTA IND E COM DE MADEIRAS                                         0000000034100000000000000000000000000000874070720000002305114064536 A         201209192012081600000000054610000191200000000000196840000000000000000000000000005640050000000000  3020121004   01          2                                                                                   3112305114061057002848000039                                                  N                     01321  0000000        000194
12056993512000150CYKLOP DO BRASIL EMBALAGENS SA                                        0000000034100000000000000000000000000000874070500000002362586810134932        201210012012090300000000054730000083607000000000084528000000000000000000000000000921050000000000  3020121004   01          2                                                                                   3112362586813025700015800019                                                  N                     01321  0000000        000195
12056993900000131CIA METALURGICA PRADA                                                 0000000034100000000000000000000000000000844839000000002201181880025629402     201209052012071100000000054470000249372000000000261436000000000000000000000000012064050000000000  3020121004   01          2                                                                                   3112201181883293800573900019                                                  N                     01321  0000000        000196
12056993900000131CIA METALURGICA PRADA                                                 0000000034100000000000000000000000000000844839020000002201181900025635402     201209052012071100000000054470000208689000000000218781000000000000000000000000010092050000000000  3020121004   01          2                                                                                   3112201181909293800573900069                                                  N                     01321  0000000        000197
12056993900000131CIA METALURGICA PRADA                                                 0000000034100000000000000000000000000000837460460000002165934390025295703     201209202012062800000000054620000139528000000000142790000000000000000000000000003262050000000000  3020121004   01          2                                                                                   3112165934392293800573900029                                                  N                     01321  0000000        000198
12056993900000131CIA METALURGICA PRADA                                                 0000000034100000000000000000000000000000848180630000002218222680025830002     201209112012071700000000054530000247673000000000257172000000000000000000000000009499050000000000  3020121004   01          2                                                                                   3112218222688293800573900059                                                  N                     01321  0000000        000199
