0000147602043799295000110ALTAMIRA INDUSTRIA METALURGICA LT       202000000020020130104060329             1                                                                                                                                                                                                                                                                                                                                                                                                    000001
12001162151000109SUKIRA COMERCIO DE IMPORTACAO                                         000000000010000000000000000000000000000093637246000000405381000019504 AA      201301022012120700000000055660000031086000000000031295000000000000000000000000000209050000000000  3020130104   01          2                                                                                   3000000112481744304053811159                                                  N                     01321  0000000        000002
12003489596000123BEND FLEX I COMERCIO LTDA                                             000000003410000000000000000000000000000088350832000000171879874608            201209122012082100000000054540000695250000000000851088000000000000000000000000155838050000000000  3020130104   01          2                                                                                   3191718798744157734445800069                                                  N                     01321  0000000        000003
12003489596000123BEND FLEX I COMERCIO LTDA                                             000000003410000000000000000000000000000088599899000000171434574613            201209172012081600000000054590000585000000000000710459000000000000000000000000125459050000000000  3020130104   01          2                                                                                   3191714345748157734445800019                                                  N                     01321  0000000        000004
12005151518000140BELENUS DO BRASIL LTDA                                                000000000330000000000000000000000000000093540010000000830000000R133232612     201301032012120400000000055670000599040000000000601016000000000000000000000000001976050000000000  3020130104   01          2                                                                                   3918381050000000565083010469                                                  N                     01321  0000000        000005
12005880850000145NEDERMAN BRASIL COM PROD EX LT                                        000000003410000000000000000000000000000086373178000000614350956002763 A       201209252012081400000000054670000289674000000000347244000000000000000000000000057570050000000000  3020130104   01          2                                                                                   3156143509568160829000100049                                                  N                     01321  0000000        000006
12006000195000156MBA MERCANTIL BRAS DE ACO LTDA                                        0000000034100000000000000000000000000000887698090000001671394550008925B02     201209142012071700000000054560000719581000000000878061000000000000000000000000158480050000000000  3020130104   01          2                                                                                   3191671394556064849251000089                                                  N                     01321  0000000        000007
12006000195000156MBA MERCANTIL BRAS DE ACO LTDA                                        0000000034100000000000000000000000000000887698100000001671394560008926B02     201209142012071700000000054560000387716000000000473172000000000000000000000000085456050000000000  3020130104   01          2                                                                                   3191671394564064849251000019                                                  N                     01321  0000000        000008
12006000195000156MBA MERCANTIL BRAS DE ACO LTDA                                        0000000034100000000000000000000000000000889578520000001671394540008920B02     201209162012071700000000054580000576585000000000701325000000000000000000000000124740050000000000  3020130104   01          2                                                                                   3191671394549064849251000099                                                  N                     01321  0000000        000009
12006000195000156MBA MERCANTIL BRAS DE ACO LTDA                                        0000000034100000000000000000000000000000885998980000001667238420008870B02     201209112012071600000000054530000839952000000001029932000000000000000000000000189980050000000000  3020130104   01          2                                                                                   3191667238429064849251000039                                                  N                     01321  0000000        000010
12006000195000156MBA MERCANTIL BRAS DE ACO LTDA                                        0000000034100000000000000000000000000000906662670000001671394410008920B03     201210142012071700000000054860000576584000000000669572000000000000000000000000092988050000000000  3020130104   01          2                                                                                   3191671394416064849251000039                                                  N                     01321  0000000        000011
12006000195000156MBA MERCANTIL BRAS DE ACO LTDA                                        0000000034100000000000000000000000000000904173180000001671394430008926B03     201210122012071700000000054840000387716000000000451808000000000000000000000000064092050000000000  3020130104   01          2                                                                                   3191671394432064849251000079                                                  N                     01321  0000000        000012
12006000195000156M B A MERCANTIL BRASILEIRA DE                                         0000000023700118P00000002130599 00000000865388240020222900000450009203B03     201212122012081500000000055450000344980000000000358205000000000000000000000000013225050000000000  3020130104   01          2  RUA JUNO  533                                                                    300000000000000000001500  000000000000000                                     N                     00598  0000000        000013
12006000195000156M B A MERCANTIL BRASILEIRA DE                                         0000000023700118P00000002130599 00000000865388270020222900000480009204B03     201212132012081500000000055460000127291000000000131955000000000000000000000000004664050000000000  3020130104   01          2  RUA JUNO  533                                                                    300000000000000000001500  000000000000000                                     N                     00598  0000000        000014
12006000195000156M B A MERCANTIL BRASILEIRA DE                                         0000000023700118P00000002130599 00000000865388300020222900000510009205B03     201212142012081500000000055470000348964000000000361186000000000000000000000000012222050000000000  3020130104   01          2  RUA JUNO  533                                                                    300000000000000000001500  000000000000000                                     N                     00598  0000000        000015
12006000195000156M B A MERCANTIL BRASILEIRA DE                                         0000000023700118P00000002130599 00000000865388330020222900000540009206B03     201212152012081500000000055480000527560000000000545140000000000000000000000000017580050000000000  3020130104   01          2  RUA JUNO  533                                                                    300000000000000000001500  000000000000000                                     N                     00598  0000000        000016
12006000195000156M B A MERCANTIL BRASILEIRA DE                                         0000000023700118P00000002130599 00000000868592700020223600000030009229B03     201212132012081600000000055460000253414000000000262698000000000000000000000000009284050000000000  3020130104   01          2  RUA JUNO  533                                                                    300000000000000000001500  000000000000000                                     N                     00598  0000000        000017
12006000195000156M B A MERCANTIL BRASILEIRA DE                                         0000000023700118P00000002130599 00000000919321920020231800000170010234B02     201301032012110800000000055670000996082000000000997742000000000000000000000000001660050000000000  3020130104   01          2  RUA JUNO  533                                                                    3                         000000000000000                                     N                     00598  0000000        000018
12006000195000156MBA MERCANTIL BRAS DE ACO LTDA                                        0000000034100000000000000000000000000000929489960000002624098050010356B01     201212192012112100000000055520000125258000000000125258000000000000000000000000000000050000000000  3020121219   05          3                                                                                   3112624098052064899001800079                                                  N                     01321  0000000        000019
12006000195000156MBA MERCANTIL BRAS DE ACO LTDA                                        0000000034100000000000000000000000000000909203260000002526552580010014B02     201212192012102300000000055520000366127000000000366127000000000000000000000000000000050000000000  3020121219   05          3                                                                                   3112526552586064899001800029                                                  N                     01321  0000000        000020
12008272923000104P SANTOS ESQUADRARIAS METAL ME                                        0000000034100000000000000000000000000000915734100000006159682651954           201212052012110700000000055380000408138000000000448941000000000000000000000000040803050000000000  3020130104   01          2                                                                                   3156159682654160141951600029                                                  N                     01321  0000000        000021
12008879248000186FREFER METAL PLUS                                                     000000003410000000000000000000000000000093452379000000264895671EMO014094A     201212312012120300000000055640000533061000000000535833000000000000000000000000002772050000000000  3020130104   01          2                                                                                   3112648956715293811346700079                                                  N                     01321  0000000        000022
12008879248000186FREFER METAL PLUS                                                     000000003410000000000000000000000000000093452382000000264895673EMO014097A     201212312012120300000000055640000122199000000000122835000000000000000000000000000636050000000000  3020130104   01          2                                                                                   3112648956731293811346700019                                                  N                     01321  0000000        000023
12008879248000186FREFER METAL PLUS                                                     000000003410000000000000000000000000000093637221000000265732284EPR013366A     201301032012120600000000055670001076688000000001078088000000000000000000000000001400050000000000  3020130104   01          2                                                                                   3112657322841293811346700089                                                  N                     01321  0000000        000024
12008879248000186FREFER METAL PLUS                                                     000000003410000000000000000000000000000093637216000000265732280EMO014110A     201301022012120500000000055660000637560000000000637560000000000000000000000000000000050000000000  3020130102   06          3                                                                                   3112657322809293811346700099                                                  N                     01321  0000000        000025
12008879248000186FREFER METAL PLUS                                                     000000003410000000000000000000000000000093637218000000265732282EMO014111A     201301022012120500000000055660000089813000000000089813000000000000000000000000000000050000000000  3020130102   06          3                                                                                   3112657322825293811346700079                                                  N                     01321  0000000        000026
12008879248000186FREFER METAL PLUS                                                     000000003410000000000000000000000000000091932184000000257145125EMO013946B     201301022012110700000000055660000535589000000000535589000000000000000000000000000000050000000000  3020130102   06          3                                                                                   3112571451254293811346700029                                                  N                     01321  0000000        000027
12009338857000190FERNANDO  NAGAO  CARDONE  ALVA                                        000000000330000000000000000000000000000091653176000000300000000ALTA 11 2012   201211202012103000000000055230000134632000000000154158000000000000000000000000019526050000000000  3020130104   01          2                                                                                   3947901700000051051630010119                                                  N                     01321  0000000        000028
12042956441000101SOLUCOES ACO USIMINAS                                                 0000000034100000000000000000000000000000846595700000002210880280016980502     201209102012071200000000054520000156071000000000192263000000000000000000000000036192050000000000  3020130104   01          2                                                                                   3112210880285293807258000039                                                  N                     01321  0000000        000029
12042956441000101SOLUCOES ACO USIMINAS                                                 0000000034100000000000000000000000000000853154840000002246247030017196702     201209202012072500000000054620000234841000000000284661000000000000000000000000049820050000000000  3020130104   01          2                                                                                   3112246247038293807258000099                                                  N                     01321  0000000        000030
12042956441000101SOLUCOES ACO USIMINAS                                                 0000000034100000000000000000000000000000846595710000002210880290016980602     201209102012071200000000054520000426094000000000524926000000000000000000000000098832050000000000  3020130104   01          2                                                                                   3112210880293293807258000019                                                  N                     01321  0000000        000031
12042956441000101SOLUCOES ACO USIMINAS                                                 0000000034100000000000000000000000000000847452070000002216130350005922202     201209102012071600000000054520000172071000000000211975000000000000000000000000039904050000000000  3020130104   01          2                                                                                   3112216130354293807258000049                                                  N                     01321  0000000        000032
12042956441000101SOLUCOES ACO USIMINAS                                                 0000000034100000000000000000000000000000847452100000002216130340017012402     201209102012071500000000054520000147428000000000181648000000000000000000000000034220050000000000  3020130104   01          2                                                                                   3112216130347293807258000059                                                  N                     01321  0000000        000033
12042956441000101SOLUCOES ACO USIMINAS                                                 0000000034100000000000000000000000000000848180700000002220192900017041002     201209112012071700000000054530000155433000000000191198000000000000000000000000035765050000000000  3020130104   01          2                                                                                   3112220192903293807258000029                                                  N                     01321  0000000        000034
12042956441000101SOLUCOES ACO USIMINAS                                                 0000000034100000000000000000000000000000848180710000002220192910017041202     201209112012071700000000054530000205421000000000252686000000000000000000000000047265050000000000  3020130104   01          2                                                                                   3112220192911293807258000019                                                  N                     01321  0000000        000035
12042956441000101SOLUCOES ACO USIMINAS                                                 0000000034100000000000000000000000000000853154850000002246247040017197302     201209202012072500000000054620000970103000000001175743000000000000000000000000205640050000000000  3020130104   01          2                                                                                   3112246247046293807258000019                                                  N                     01321  0000000        000036
12042956441000101SOLUCOES ACO USIMINAS                                                 0000000034100000000000000000000000000000855028690000002254329380017212902     201209212012072600000000054630000140098000000000169498000000000000000000000000029400050000000000  3020130104   01          2                                                                                   3112254329389293807258000019                                                  N                     01321  0000000        000037
12042956441000101SOLUCOES ACO USIMINAS                                                 0000000034100000000000000000000000000000855028700000002254329390017213002     201209212012072600000000054630000140602000000000170107000000000000000000000000029505050000000000  3020130104   01          2                                                                                   3112254329397293807258000089                                                  N                     01321  0000000        000038
12042956441000101SOLUCOES ACO USIMINAS                                                 0000000034100000000000000000000000000000855028770000002254329400017220502     201209212012072700000000054630000981022000000001187032000000000000000000000000206010050000000000  3020130104   01          2                                                                                   3112254329405293807258000099                                                  N                     01321  0000000        000039
12042956441000101SOLUCOES ACO USIMINAS                                                 0000000034100000000000000000000000000000859590620000002274469790017353702     201209282012080300000000054700000081053000000000096929000000000000000000000000015876050000000000  3020130104   01          2                                                                                   3112274469793293807258000069                                                  N                     01321  0000000        000040
12042956441000101SOLUCOES ACO USIMINAS                                                 0000000034100000000000000000000000000000850740470000002233586810017101002     201209142012071900000000054560000732575000000000896655000000000000000000000000164080050000000000  3020130104   01          2                                                                                   3112233586810293807258000019                                                  N                     01321  0000000        000041
12042956441000101SOLUCOES ACO USIMINAS                                                 0000000034100000000000000000000000000000850740480000002233586820017101202     201209142012071900000000054560000144634000000000177002000000000000000000000000032368050000000000  3020130104   01          2                                                                                   3112233586828293807258000029                                                  N                     01321  0000000        000042
12042956441000101SOLUCOES ACO USIMINAS                                                 0000000034100000000000000000000000000000934523680000002651387910019280901     201301022012120300000000055660000642816000000000642816000000000000000000000000000000050000000000  3020130102   06          3                                                                                   3112651387915293807258000049                                                  N                     01321  0000000        000043
12042956441000101SOLUCOES ACO USIMINAS                                                 0000000034100000000000000000000000000000934523690000002651387920019281001     201301022012120300000000055660000286357000000000286357000000000000000000000000000000050000000000  3020130102   06          3                                                                                   3112651387923293807258000079                                                  N                     01321  0000000        000044
12042956441000101SOLUCOES ACO USIMINAS                                                 0000000034100000000000000000000000000000934523700000002651387930006672801     201301022012120400000000055660000092566000000000092566000000000000000000000000000000050000000000  3020130102   06          3                                                                                   3112651387931293807258000029                                                  N                     01321  0000000        000045
12042956441000101SOLUCOES ACO USIMINAS                                                 0000000034100000000000000000000000000000934523710000002651387900019280801     201301022012120300000000055660000246001000000000246001000000000000000000000000000000050000000000  3020130102   06          3                                                                                   3112651387907293807258000019                                                  N                     01321  0000000        000046
12043298975000150JOMARCA INDL DE PARAFUSOS LTDA                                        0000000003300000000000000000000000000000893373870000004200000000160394 03     201212302012100100000000055630000365000000000000367190000000000000000000000000002190050000000000  3020130104   01          2                                                                                   3935059520000000532142010429                                                  N                     01321  0000000        000047
12045635984000115CRIFER LAMINADOS DE ACO E FERR                                        0000000003300000000000000000000000000000917414020000007500000000036176E02     201301032012110800000000055670000501947000000000502950000000000000000000000000001003050000000000  3020130104   01          2                                                                                   3901184270000000261475010159                                                  N                     01321  0000000        000048
12045635984000115CRIFER LAMINADOS DE ACO E FERR                                        0000000000100000000000000000000000000000898741140000000041660000035395E03     201301032012100900000000055670000802816000000000804422000000000000000000000000001606050000000000  3020130104   01          2                                                                                   3000000147532500000041661719                                                  N                     01321  0000000        000049
12047190731000100DE CASTRO LOUR ENG IND LTDA                                           00000000341000000000000000000000000000008782051600000023399954103026614 0     201209182012082100000000054600001047621000000001270101000000000000000000000000222480050000000000  3020130104   01          2                                                                                   3112339995410036884500400039                                                  N                     01321  0000000        000050
12047190731000100DE CASTRO LOUR ENG IND LTDA                                           00000000341000000000000000000000000000008782051900000023399955803026636 0     201212192012082200000000055520000941086000000000970702000000000000000000000000029616050000000000  3020130104   01          2                                                                                   3112339995584036884500400069                                                  N                     01321  0000000        000051
12047190731000100DE CASTRO LOUR ENG IND LTDA                                           00000000341000000000000000000000000000008782052000000023399955303026632 0     201209192012082200000000054610000952073000000001152377000000000000000000000000200304050000000000  3020130104   01          2                                                                                   3112339995535036884500400019                                                  N                     01321  0000000        000052
12047190731000100DE CASTRO LOUR ENG IND LTDA                                           00000000341000000000000000000000000000008996248000000024766209303027184 0     201212282012100500000000055610001153394000000001169270000000000000000000000000015876050000000000  3020130104   01          2                                                                                   3112476620938036884500400099                                                  N                     01321  0000000        000053
12047190731000100DE CASTRO LOUR ENG IND LTDA                                           00000000341000000000000000000000000000008782051000000023399953703026612 0     201212182012082100000000055510001111822000000001149001000000000000000000000000037179050000000000  3020130104   01          2                                                                                   3112339995378036884500400049                                                  N                     01321  0000000        000054
12047190731000100DE CASTRO LOUR ENG IND LTDA                                           00000000341000000000000000000000000000009041732300000025008465203027256 0     201212112012101600000000055440001108602000000001160922000000000000000000000000052320050000000000  3020130104   01          2                                                                                   3112500846525036884500400019                                                  N                     01321  0000000        000055
12047190731000100DE CASTRO LOUR ENG IND LTDA                                           00000000341000000000000000000000000000009041733000000025008464703027216 0     201301022012101000000000055660000225446000000000226332000000000000000000000000000886050000000000  3020130104   01          2                                                                                   3112500846475036884500400019                                                  N                     01321  0000000        000056
12047190731000100DE CASTRO LOUR ENG IND LTDA                                           00000000341000000000000000000000000000009041733200000025008465003027234 0     201301032012101100000000055670001029906000000001031931000000000000000000000000002025050000000000  3020130104   01          2                                                                                   3112500846509036884500400099                                                  N                     01321  0000000        000057
12047190731000100DE CASTRO LOUR ENG IND LTDA                                           00000000341000000000000000000000000000008782050900000023399953503026612 0     201209182012082100000000054600001111489000000001347577000000000000000000000000236088050000000000  3020130104   01          2                                                                                   3112339995352036884500400019                                                  N                     01321  0000000        000058
12047190731000100DE CASTRO LOUR ENG IND LTDA                                           00000000341000000000000000000000000000008782052100000023399955903026643 0     201209202012082300000000054620000867039000000001047769000000000000000000000000180730050000000000  3020130104   01          2                                                                                   3112339995592036884500400049                                                  N                     01321  0000000        000059
12047190731000100DE CASTRO LOUR ENG IND LTDA                                           00000000341000000000000000000000000000008782052300000023399955503026632 0     201212192012082200000000055520000952358000000000982326000000000000000000000000029968050000000000  3020130104   01          2                                                                                   3112339995550036884500400039                                                  N                     01321  0000000        000060
12047190731000100DE CASTRO LOUR ENG IND LTDA                                           00000000341000000000000000000000000000008782052500000023399955603026636 0     201209192012082200000000054610000940804000000001138754000000000000000000000000197950050000000000  3020130104   01          2                                                                                   3112339995568036884500400049                                                  N                     01321  0000000        000061
12047190731000100DE CASTRO LOUR ENG IND LTDA                                           00000000341000000000000000000000000000008782052700000023399956203026648 0     201209202012082300000000054620000976053000000001179573000000000000000000000000203520050000000000  3020130104   01          2                                                                                   3112339995626036884500400029                                                  N                     01321  0000000        000062
12047190731000100DE CASTRO LOUR ENG IND LTDA                                           00000000341000000000000000000000000000008782052900000023399956403026648 0     201212202012082300000000055530000976344000000001005144000000000000000000000000028800050000000000  3020130104   01          2                                                                                   3112339995642036884500400059                                                  N                     01321  0000000        000063
12047190731000100DE CASTRO LOUR ENG IND LTDA                                           00000000341000000000000000000000000000008782053300000023399956103026643 0     201212202012082300000000055530000867297000000000892887000000000000000000000000025590050000000000  3020130104   01          2                                                                                   3112339995618036884500400059                                                  N                     01321  0000000        000064
12047190731000100DE CASTRO LOUR ENG IND LTDA                                           00000000341000000000000000000000000000008782059200000023602715103026744 0     201212262012082900000000055590000146636000000000149228000000000000000000000000002592050000000000  3020130104   01          2                                                                                   3112360271517036884500400019                                                  N                     01321  0000000        000065
12047190731000100DE CASTRO LOUR ENG IND LTDA                                           00000000341000000000000000000000000000008782059600000023602714803026734 0     201212252012082800000000055580000998134000000001017764000000000000000000000000019630050000000000  3020130104   01          2                                                                                   3112360271483036884500400059                                                  N                     01321  0000000        000066
12047190731000100DE CASTRO LOUR ENG IND LTDA                                           00000000341000000000000000000000000000008782059700000023602715403026745 0     201212262012082900000000055590000903448000000000919441000000000000000000000000015993050000000000  3020130104   01          2                                                                                   3112360271541036884500400019                                                  N                     01321  0000000        000067
12047190731000100DE CASTRO LOUR ENG IND LTDA                                           00000000341000000000000000000000000000008782051100000023399954303026614 0     201212182012082100000000055510001047933000000001082970000000000000000000000000035037050000000000  3020130104   01          2                                                                                   3112339995436036884500400029                                                  N                     01321  0000000        000068
12047190731000100DE CASTRO LOUR ENG IND LTDA                                           00000000341000000000000000000000000000008782051200000023399953803026613 0     201209182012082100000000054600001107989000000001343321000000000000000000000000235332050000000000  3020130104   01          2                                                                                   3112339995386036884500400039                                                  N                     01321  0000000        000069
12047190731000100DE CASTRO LOUR ENG IND LTDA                                           00000000341000000000000000000000000000008782051400000023399954003026613 0     201212182012082100000000055510001108322000000001145382000000000000000000000000037060050000000000  3020130104   01          2                                                                                   3112339995402036884500400069                                                  N                     01321  0000000        000070
12047190731000100DE CASTRO LOUREIRO ENGENHARIA                                         0000000023703394400000000205508 000000008801224900202255000000803026784 0     201212282012083100000000055610001042070000000001054229000000000000000000000000012159050000000000  3020130104   01          2  RUA JUNO  533                                                                    300000000000000000001500  000000000000000                                     N                     00598  0000000        000071
12047190731000100DE CASTRO LOUREIRO ENGENHARIA                                         0000000023703394400000000205508 000000008801225200202255000001103026787 0     201212282012083100000000055610001136326000000001149584000000000000000000000000013258050000000000  3020130104   01          2  RUA JUNO  533                                                                    300000000000000000001500  000000000000000                                     N                     00598  0000000        000072
12047190731000100DE CASTRO LOUREIRO ENGENHARIA                                         0000000023703394400000000205508 000000008801225500202255000001403026794 0     201212312012090300000000055640001209490000000001217554000000000000000000000000008064050000000000  3020130104   01          2  RUA JUNO  533                                                                    300000000000000000141500  000000000000000                                     N                     00598  0000000        000073
12047190731000100DE CASTRO LOUREIRO ENGENHARIA                                         0000000023703394400000000205508 000000008801225800202255000001703026795 0     201212312012090300000000055640001207915000000001215967000000000000000000000000008052050000000000  3020130104   01          2  RUA JUNO  533                                                                    300000000000000000001500  000000000000000                                     N                     00598  0000000        000074
12048775225000146SEIKI IND COM E CONFECCOES LTD                                        000000003410000000000000000000000000000089337376000000244697151014914001      201210232012092500000000054950000052000000000000057694000000000000000000000000005694050000000000  3020130104   01          2                                                                                   3112446971510017444824100089                                                  N                     01321  0000000        000075
12051180370000199IGUAFER FERRO E ACO LTDA                                              0000000034100000000000000000000000000000852309110000002239389799443 C         201209122012071800000000054540000168275000000000200195000000000000000000000000031920050000000000  3020130104   01          2                                                                                   3112239389797077149484600089                                                  N                     01321  0000000        000076
12056993512000150CYKLOP DO BRASIL EMBALAGENS SA                                        0000000034100000000000000000000000000000874070500000002362586810134932        201210012012090300000000054730000083607000000000112772000000000000000000000000029165050000000000  3020130104   01          2                                                                                   3112362586813025700015800019                                                  N                     01321  0000000        000077
12062173661000176INDUFIX IND E COM LTDA                                                0000000023704130000000000085898 000000009493382900703003000003200042585 B     201302012012121800000000055960000064000000000000064000000000000000000000000000000000050000000000  3020130201   01FS        1  RUA GANGES 528                                                                   3                         000000000000000                                     N                     00598  0000000        000078
12062510367000102ITANHAEM TRANSP DE MAQUINAS LT                                        000000003410000000000000000000000000000087407049000000236463199667            201209202012090400000000054620000248220000000000353478000000000000000000000000105258050000000000  3020130104   01          2                                                                                   3112364631997005770252400049                                                  N                     01321  0000000        000079
12062539994000176LEALFER INDUSTRIA E COMERCIO D                                        0000000003300000000000000000000000000000902449840000000700000000005648903     201301012012100900000000055650000447825000000000450108000000000000000000000000002283050000000000  3020130104   01          2                                                                                   3915298380000000280607010459                                                  N                     01321  0000000        000080
12062539994000176LEALFER INDUSTRIA E COMERCIO D                                        0000000003300000000000000000000000000000919321980000007000000000005797002     201301022012110600000000055660000591706000000000593717000000000000000000000000002011050000000000  3020130104   01          2                                                                                   3915298380000000292370010419                                                  N                     01321  0000000        000081
12062539994000176LEALFER INDUSTRIA E COMERCIO D                                        0000000003300000000000000000000000000000919322000000000000000000005796702     201301022012110600000000055660000298074000000000299087000000000000000000000000001013050000000000  3020130104   01          2                                                                                   3915298380000000292400010439                                                  N                     01321  0000000        000082
12062539994000176LEALFER INDUSTRIA E COMERCIO D                                        0000000003300000000000000000000000000000919322010000002200000000005787002     201301012012110500000000055650000596925000000000599969000000000000000000000000003044050000000000  3020130104   01          2                                                                                   3915298380000000292222010429                                                  N                     01321  0000000        000083
12062539994000176LEALFER INDUSTRIA E COMERCIO D                                        0000000003300000000000000000000000000000919322030000004900000000005786802     201301012012110500000000055650000838712000000000842989000000000000000000000000004277050000000000  3020130104   01          2                                                                                   3915298380000000292249010489                                                  N                     01321  0000000        000084
12064952757000168WALMAC COM DE PROD QUIMICOS LT                                        0000000034100000000000000000000000000000860403450000002275821700020148        201210052012080300000000054770000219267000000000258488000000000000000000000000039221050000000000  3020130104   01          2                                                                                   3112275821703064807961400029                                                  N                     01321  0000000        000085
12066841552000130R V SEG PATRIMONIAL LTDA                                              00000000341000000000000000000000000000008852483200000090002192721927          201209102012081000000000054520000483241000000000501917000000000000000000000000018676050000000000  3020130104   01          2                                                                                   3109000219270001835253400099                                                  N                     01321  0000000        000086
12069284248000128ISOCOAT TINTAS E VERNIZES LTDA                                        0000000034100000000000000000000000000000841061040000002182507930052085        201209172012070200000000054590000236130000000000304800000000000000000000000000068670050000000000  3020130104   01          2                                                                                   3112182507932077430121200019                                                  N                     01321  0000000        000087
12069284248000128ISOCOAT TINTAS E VERNIZES LTDA                                        0000000034100000000000000000000000000000915733990000002553088040057592        201212312012110100000000055640000093324000000000094320000000000000000000000000000996050000000000  3020130104   01          2                                                                                   3112553088041077430121200019                                                  N                     01321  0000000        000088
12069284248000128ISOCOAT TINTAS E VERNIZES LTDA                                        0000000034100000000000000000000000000000915734030000002553088170057607        201212312012110100000000055640000284264000000000287296000000000000000000000000003032050000000000  3020130104   01          2                                                                                   3112553088173077430121200059                                                  N                     01321  0000000        000089
12069284248000128ISOCOAT TINTAS E VERNIZES LTDA                                        0000000034100000000000000000000000000000911410130000002506612040057027        201301022012101900000000055660000318064000000000318064000000000000000000000000000000050000000000  3020130102   06          3                                                                                   3112506612046077430121200039                                                  N                     01321  0000000        000090
12096500087000135WORKBENCH CONSULTORIA S S LTDA                                        0000000034100000000000000000000000000000949338280000007107429623296           201301272013010300000000055910000131746000000000131746000000000000000000000000000000050000000000  3020130128   01FS        1                                                                                   3157107429629826313803700029                                                  N                     01321  0000000        000091
900009200000000053641471                                                                                                                                                                                                                                                                                                                                                                                                                                                                01321  0000000        000092
