0000147602043799295000110ALTAMIRA INDUSTRIA METALURGICA LT       202000000018020121204061834             1                                                                                                                                                                                                                                                                                                                                                                                                    000001
12001895314000162COLETA INDUSTRIAL FIMAVAN LTDA                                        0000000034100000000000000000000000000000866992070000009002335349439           201208272012081700000000054380000123695000000000158740000000000000000000000000035045050000000000  3020121204   01          2                                                                                   3109002335346144604097200019                                                  N                     01321  0000000        000002
12003102481000134AB5 IND E COMERCIO LTDA EPP                                           0000000034100000000000000000000000000000909203330000009000042483169           201211202012102300000000055230000119250000000000122036000000000000000000000000002786050000000000  3020121204   01          2                                                                                   3109000042489003154755700039                                                  N                     01321  0000000        000003
12003489596000123BEND FLEX I COMERCIO LTDA                                             000000003410000000000000000000000000000088350832000000171879874608            201209122012082100000000054540000695250000000000808711000000000000000000000000113461050000000000  3020121204   01          2                                                                                   3191718798744157734445800069                                                  N                     01321  0000000        000004
12003489596000123BEND FLEX I COMERCIO LTDA                                             000000003410000000000000000000000000000088599899000000171434574613            201209172012081600000000054590000585000000000000674778000000000000000000000000089778050000000000  3020121204   01          2                                                                                   3191714345748157734445800019                                                  N                     01321  0000000        000005
12004882911000140F C BRITO CARTUCHOS ME                                                00000000033000000000000000000000000000009286265500000081000000015157 A21      201212032012110500000000055360000027911000000000028598000000000000000000000000000687050000000000  3020121204   01          2                                                                                   3944753720000000111481010159                                                  N                     01321  0000000        000006
12005079078000167NOVA ITAQUERA COM BORRAC LT ME                                        000000003410000000000000000000000000000093145519000000706598091003080NA       201212312012120300000000055640000021535000000000021535000000000000000000000000000000050000000000  3020121231   01FS        1                                                                                   3157065980912650804628800059                                                  N                     01321  0000000        000007
12005880850000145NEDERMAN BRASIL COM PROD EX LT                                        000000003410000000000000000000000000000086373178000000614350956002763 A       201209252012081400000000054670000289674000000000329574000000000000000000000000039900050000000000  3020121204   01          2                                                                                   3156143509568160829000100049                                                  N                     01321  0000000        000008
12006000195000156MBA MERCANTIL BRAS DE ACO LTDA                                        0000000034100000000000000000000000000000906662670000001671394410008920B03     201210142012071700000000054860000576584000000000634418000000000000000000000000057834050000000000  3020121204   01          2                                                                                   3191671394416064849251000039                                                  N                     01321  0000000        000009
12006000195000156MBA MERCANTIL BRAS DE ACO LTDA                                        0000000034100000000000000000000000000000885998980000001667238420008870B02     201209112012071600000000054530000839952000000000978720000000000000000000000000138768050000000000  3020121204   01          2                                                                                   3191667238429064849251000039                                                  N                     01321  0000000        000010
12006000195000156MBA MERCANTIL BRAS DE ACO LTDA                                        0000000034100000000000000000000000000000887698090000001671394550008925B02     201209142012071700000000054560000719581000000000834196000000000000000000000000114615050000000000  3020121204   01          2                                                                                   3191671394556064849251000089                                                  N                     01321  0000000        000011
12006000195000156MBA MERCANTIL BRAS DE ACO LTDA                                        0000000034100000000000000000000000000000887698100000001671394560008926B02     201209142012071700000000054560000387716000000000449519000000000000000000000000061803050000000000  3020121204   01          2                                                                                   3191671394564064849251000019                                                  N                     01321  0000000        000012
12006000195000156MBA MERCANTIL BRAS DE ACO LTDA                                        0000000034100000000000000000000000000000889578520000001671394540008920B02     201209162012071700000000054580000576585000000000666171000000000000000000000000089586050000000000  3020121204   01          2                                                                                   3191671394549064849251000099                                                  N                     01321  0000000        000013
12007289649000113CRC LASER SUPR INF LTDA EPP                                           000000003410000000000000000000000000000091471898000000702929251000001203      201212032012110600000000055360000036440000000000037241000000000000000000000000000801050000000000  3020121204   01          2                                                                                   3157029292519000265431700089                                                  N                     01321  0000000        000014
12007839659000185CABEMA CABOS DE ACO LTDA                                              00000000001000000000000000000000000000009314550800000010436200021815 1 1      201212312012113000000000055640000029318000000000029318000000000000000000000000000000050000000000  3020121231   01FS        1                                                                                   3000000131520144281043621199                                                  N                     01321  0000000        000015
12007988026000139POINTER DIST DE PROD ELET LTDA                                        0000000034100000000000000000000000000000931455180000002634742006013           201212272012113000000000055600000029829000000000029829000000000000000000000000000000050000000000  3020121227   01FS        1                                                                                   3112634742004077084107000019                                                  N                     01321  0000000        000016
12008272923000104P SANTOS ESQUADRARIAS METAL ME                                        0000000034100000000000000000000000000000896979550000006153947641850           201211222012100800000000055250000400000000000000420804000000000000000000000000020804050000000000  3020121204   01          2                                                                                   3156153947640160141951600039                                                  N                     01321  0000000        000017
12008594182000188ACOS G3 COMERCIO E BENEFICIAME                                        0000000023703137200000000091332 00000000929490170090227100000261155        002201211222012092700000000055250000152347000000000156215000000000000000000000000003868050000000000  3020121204   01          2  RUA GANGES  528                                                                  3                         000000000000000                                     N                     00598  0000000        000018
12009338857000190FERNANDO  NAGAO  CARDONE  ALVA                                        000000000330000000000000000000000000000089697936000000800000000ALTA 10 2012   201210202012092500000000054920000134632000000000154158000000000000000000000000019526050000000000  3020121204   01          2                                                                                   3947901700000051050080010129                                                  N                     01321  0000000        000019
12009338857000190FERNANDO  NAGAO  CARDONE  ALVA                                        000000000330000000000000000000000000000091653176000000300000000ALTA 11 2012   201211202012103000000000055230000134632000000000141634000000000000000000000000007002050000000000  3020121204   01          2                                                                                   3947901700000051051630010119                                                  N                     01321  0000000        000020
12010695186000102POWER LOGISTICA E SERVICOS LTD                                        0000000023703417700000000187089 00000000931455210090000000008580000339873     201212242012120300000000055570000034860000000000034860000000000000000000000000000000050000000000  3020121224   01FS        1  RUA  JUNO 533                                                                    3                         000000000000000                                     N                     00598  0000000        000021
12011355403000170PLATA S A SECURITIZADORA                                              0000000023703708700000000155578 000000009314552200202338000000114990          201301102012112800000000055740000020758000000000020758000000000000000000000000000000050000000000  3020130110   01FS        1  RUA GANGES 528 VL NOVA MANCHES          ANHEMBI IND  DE CAIXAS DE PAPELAO ONDULA 3                         043292101000196                                     N                     00598  0000000        000022
12012006058000121WEG TINTAS LTDA                                                       0000000023702727800000000001309 00000000870177500090224100000990016248003     201211102012082700000000055130000306662000000000316454000000000000000000000000009792050000000000  3020121204   01          2  R JUNO  533                                                                      3                         000000000000000                                     N                     00598  0000000        000023
12012006058000121WEG TINTAS LTDA                                                       0000000023702727800000000001309 00000000872318670090224700001050016359603     201211142012083100000000055170000459992000000000472252000000000000000000000000012260050000000000  3020121204   01          2  R JUNO  533                                                                      3                         000000000000000                                     N                     00598  0000000        000024
12012006058000121WEG TINTAS LTDA                                                       0000000023702727800000000001309 00000000882668420090225800000750016626902     201211122012091300000000055150000459854000000000473340000000000000000000000000013486050000000000  3020121204   01          2  R JUNO  533                                                                      3                         000000000000000                                     N                     00598  0000000        000025
12012006058000121WEG TINTAS LTDA                                                       0000000023702727800000000001309 00000000882668430090225800000760016626903     201211272012091300000000055300000459992000000000464283000000000000000000000000004291050000000000  3020121204   01          2  R JUNO  533                                                                      3                         000000000000000                                     N                     00598  0000000        000026
12012006058000121WEG TINTAS LTDA                                                       0000000023702727800000000001309 00000000878206060090225400000800016517203     201211202012090600000000055230000459992000000000468574000000000000000000000000008582050000000000  3020121204   01          2  R JUNO  533                                                                      3                         000000000000000                                     N                     00598  0000000        000027
12012006058000121WEG TINTAS LTDA                                                       0000000023702727800000000001309 00000000878206050090225400000790016517202     201211052012090600000000055080000459854000000000477631000000000000000000000000017777050000000000  3020121204   01          2  R JUNO  533                                                                      3                         000000000000000                                     N                     00598  0000000        000028
12012434269000165RIBASE TRANSPORTE E LOGISTICA                                         0000000023701231900000002302659 0000000092564059009000000006852009287 12      201212032012111200000000055360000025000000000000025033000000000000000000000000000033050000000000  3020121204   01          2  RUA TAMAINDE N  1 410                                                            3                         000000000000000                                     N                     00598  0000000        000029
12042956441000101SOLUCOES ACO USIMINAS                                                 0000000034100000000000000000000000000000853154840000002246247030017196702     201209202012072500000000054620000234841000000000270091000000000000000000000000035250050000000000  3020121204   01          2                                                                                   3112246247038293807258000099                                                  N                     01321  0000000        000030
12042956441000101SOLUCOES ACO USIMINAS                                                 0000000034100000000000000000000000000000853154850000002246247040017197302     201209202012072500000000054620000970103000000001115603000000000000000000000000145500050000000000  3020121204   01          2                                                                                   3112246247046293807258000019                                                  N                     01321  0000000        000031
12042956441000101SOLUCOES ACO USIMINAS                                                 0000000034100000000000000000000000000000855028690000002254329380017212902     201209212012072600000000054630000140098000000000160818000000000000000000000000020720050000000000  3020121204   01          2                                                                                   3112254329389293807258000019                                                  N                     01321  0000000        000032
12042956441000101SOLUCOES ACO USIMINAS                                                 0000000034100000000000000000000000000000855028700000002254329390017213002     201209212012072600000000054630000140602000000000161396000000000000000000000000020794050000000000  3020121204   01          2                                                                                   3112254329397293807258000089                                                  N                     01321  0000000        000033
12042956441000101SOLUCOES ACO USIMINAS                                                 0000000034100000000000000000000000000000855028770000002254329400017220502     201209212012072700000000054630000981022000000001126210000000000000000000000000145188050000000000  3020121204   01          2                                                                                   3112254329405293807258000099                                                  N                     01321  0000000        000034
12042956441000101SOLUCOES ACO USIMINAS                                                 0000000034100000000000000000000000000000856906410000002262886280017266201     201208282012073000000000054390000119472000000000142894000000000000000000000000023422050000000000  3020121204   01          2                                                                                   3112262886289293807258000089                                                  N                     01321  0000000        000035
12042956441000101SOLUCOES ACO USIMINAS                                                 0000000034100000000000000000000000000000856906420000002262886290017266301     201208282012073000000000054390000145069000000000173489000000000000000000000000028420050000000000  3020121204   01          2                                                                                   3112262886297293807258000099                                                  N                     01321  0000000        000036
12042956441000101SOLUCOES ACO USIMINAS                                                 0000000034100000000000000000000000000000859590620000002274469790017353702     201209282012080300000000054700000081053000000000091907000000000000000000000000010854050000000000  3020121204   01          2                                                                                   3112274469793293807258000069                                                  N                     01321  0000000        000037
12042956441000101SOLUCOES ACO USIMINAS                                                 0000000034100000000000000000000000000000846595700000002210880280016980502     201209102012071200000000054520000156071000000000182591000000000000000000000000026520050000000000  3020121204   01          2                                                                                   3112210880285293807258000039                                                  N                     01321  0000000        000038
12042956441000101SOLUCOES ACO USIMINAS                                                 0000000034100000000000000000000000000000846595710000002210880290016980602     201209102012071200000000054520000426094000000000498514000000000000000000000000072420050000000000  3020121204   01          2                                                                                   3112210880293293807258000019                                                  N                     01321  0000000        000039
12042956441000101SOLUCOES ACO USIMINAS                                                 0000000034100000000000000000000000000000847452070000002216130350005922202     201209102012071600000000054520000172071000000000201311000000000000000000000000029240050000000000  3020121204   01          2                                                                                   3112216130354293807258000049                                                  N                     01321  0000000        000040
12042956441000101SOLUCOES ACO USIMINAS                                                 0000000034100000000000000000000000000000847452100000002216130340017012402     201209102012071500000000054520000147428000000000172503000000000000000000000000025075050000000000  3020121204   01          2                                                                                   3112216130347293807258000059                                                  N                     01321  0000000        000041
12042956441000101SOLUCOES ACO USIMINAS                                                 0000000034100000000000000000000000000000848180700000002220192900017041002     201209112012071700000000054530000155433000000000181557000000000000000000000000026124050000000000  3020121204   01          2                                                                                   3112220192903293807258000029                                                  N                     01321  0000000        000042
12042956441000101SOLUCOES ACO USIMINAS                                                 0000000034100000000000000000000000000000848180710000002220192910017041202     201209112012071700000000054530000205421000000000239945000000000000000000000000034524050000000000  3020121204   01          2                                                                                   3112220192911293807258000019                                                  N                     01321  0000000        000043
12042956441000101SOLUCOES ACO USIMINAS                                                 0000000034100000000000000000000000000000850740460000002233586800017127201     201208202012072000000000054310000137881000000000167137000000000000000000000000029256050000000000  3020121204   01          2                                                                                   3112233586802293807258000019                                                  N                     01321  0000000        000044
12042956441000101SOLUCOES ACO USIMINAS                                                 0000000034100000000000000000000000000000850740470000002233586810017101002     201209142012071900000000054560000732575000000000851240000000000000000000000000118665050000000000  3020121204   01          2                                                                                   3112233586810293807258000019                                                  N                     01321  0000000        000045
12042956441000101SOLUCOES ACO USIMINAS                                                 0000000034100000000000000000000000000000850740480000002233586820017101202     201209142012071900000000054560000144634000000000168043000000000000000000000000023409050000000000  3020121204   01          2                                                                                   3112233586828293807258000029                                                  N                     01321  0000000        000046
12043298975000150JOMARCA INDL DE PARAFUSOS LTDA                                        0000000003300000000000000000000000000000931455230000004200000000169696 01     201212302012113000000000055630000562044000000000562044000000000000000000000000000000050000000000  3020121231   01FS        1                                                                                   3935059520000000592242010419                                                  N                     01321  0000000        000047
12043298975000150JOMARCA INDL DE PARAFUSOS LTDA                                        0000000003300000000000000000000000000000931455240000005000000000169696 02     201301292012113000000000055930000432342000000000432342000000000000000000000000000000050000000000  3020130129   01FS        1                                                                                   3935059520000000592250010479                                                  N                     01321  0000000        000048
12043298975000150JOMARCA INDL DE PARAFUSOS LTDA                                        0000000003300000000000000000000000000000931455250000006900000000169696 03     201302282012113000000000056230000432341000000000432341000000000000000000000000000000050000000000  3020130228   01FS        1                                                                                   3935059520000000592269010469                                                  N                     01321  0000000        000049
12045635984000115CRIFER LAMINADOS DE ACO E FERR                                        0000000000100000000000000000000000000000898741130000000041650000035395E02     201212032012100900000000055360000802816000000000804422000000000000000000000000001606050000000000  3020121204   01          2                                                                                   3000000147532500000041651769                                                  N                     01321  0000000        000050
12047190731000100DE CASTRO LOUR ENG IND LTDA                                           00000000341000000000000000000000000000008996247900000024766209203027184 0     201211302012100500000000055330001153047000000001162119000000000000000000000000009072050000000000  3020121204   01          2                                                                                   3112476620920036884500400089                                                  N                     01321  0000000        000051
12047190731000100DE CASTRO LOUREIRO ENGENHARIA                                         00000000033000000000000000000000000000009102658900000046000000003027425 0     201211272012102920121127055300001192683000000000825473000000000391064000000000023854050000000000  3020121204   01          2                                                                                   3948430370000009555846020369                                                  N                     01321  0000000        000052
12047190731000100DE CASTRO LOUR ENG IND LTDA                                           00000000341000000000000000000000000000008782051200000023399953803026613 0     201209182012082100000000054600001107989000000001275772000000000000000000000000167783050000000000  3020121204   01          2                                                                                   3112339995386036884500400039                                                  N                     01321  0000000        000053
12047190731000100DE CASTRO LOUR ENG IND LTDA                                           00000000341000000000000000000000000000008782051300000023399953903026613 0     201211202012082100000000055230001107989000000001138495000000000000000000000000030506050000000000  3020121204   01          2                                                                                   3112339995394036884500400019                                                  N                     01321  0000000        000054
12047190731000100DE CASTRO LOUR ENG IND LTDA                                           00000000341000000000000000000000000000008782051500000023399953603026612 0     201211202012082100000000055230001111489000000001142093000000000000000000000000030604050000000000  3020121204   01          2                                                                                   3112339995360036884500400079                                                  N                     01321  0000000        000055
12047190731000100DE CASTRO LOUR ENG IND LTDA                                           00000000341000000000000000000000000000008782051600000023399954103026614 0     201209182012082100000000054600001047621000000001206241000000000000000000000000158620050000000000  3020121204   01          2                                                                                   3112339995410036884500400039                                                  N                     01321  0000000        000056
12047190731000100DE CASTRO LOUR ENG IND LTDA                                           00000000341000000000000000000000000000008782051700000023399954203026614 0     201211202012082100000000055230001047621000000001076461000000000000000000000000028840050000000000  3020121204   01          2                                                                                   3112339995428036884500400079                                                  N                     01321  0000000        000057
12047190731000100DE CASTRO LOUR ENG IND LTDA                                           00000000341000000000000000000000000000008782051800000023399955703026636 0     201211212012082200000000055240000940804000000000964854000000000000000000000000024050050000000000  3020121204   01          2                                                                                   3112339995576036884500400019                                                  N                     01321  0000000        000058
12047190731000100DE CASTRO LOUR ENG IND LTDA                                           00000000341000000000000000000000000000008782052000000023399955303026632 0     201209192012082200000000054610000952073000000001094345000000000000000000000000142272050000000000  3020121204   01          2                                                                                   3112339995535036884500400019                                                  N                     01321  0000000        000059
12047190731000100DE CASTRO LOUR ENG IND LTDA                                           00000000341000000000000000000000000000008782052100000023399955903026643 0     201209202012082300000000054620000867039000000000994914000000000000000000000000127875050000000000  3020121204   01          2                                                                                   3112339995592036884500400049                                                  N                     01321  0000000        000060
12047190731000100DE CASTRO LOUR ENG IND LTDA                                           00000000341000000000000000000000000000008782052400000023399956003026643 0     201211222012082300000000055250000867039000000000887499000000000000000000000000020460050000000000  3020121204   01          2                                                                                   3112339995600036884500400069                                                  N                     01321  0000000        000061
12047190731000100DE CASTRO LOUR ENG IND LTDA                                           00000000341000000000000000000000000000008782052500000023399955603026636 0     201209192012082200000000054610000940804000000001081404000000000000000000000000140600050000000000  3020121204   01          2                                                                                   3112339995568036884500400049                                                  N                     01321  0000000        000062
12047190731000100DE CASTRO LOUR ENG IND LTDA                                           00000000341000000000000000000000000000008782052700000023399956203026648 0     201209202012082300000000054620000976053000000001120053000000000000000000000000144000050000000000  3020121204   01          2                                                                                   3112339995626036884500400029                                                  N                     01321  0000000        000063
12047190731000100DE CASTRO LOUR ENG IND LTDA                                           00000000341000000000000000000000000000008782052800000023399956303026648 0     201211222012082300000000055250000976053000000000999093000000000000000000000000023040050000000000  3020121204   01          2                                                                                   3112339995634036884500400019                                                  N                     01321  0000000        000064
12047190731000100DE CASTRO LOUR ENG IND LTDA                                           00000000341000000000000000000000000000008782059400000023602715303026745 0     201211282012082900000000055310000903175000000000913831000000000000000000000000010656050000000000  3020121204   01          2                                                                                   3112360271533036884500400039                                                  N                     01321  0000000        000065
12047190731000100DE CASTRO LOUR ENG IND LTDA                                           00000000341000000000000000000000000000008782059500000023602714703026734 0     201211272012082800000000055300000997834000000001011568000000000000000000000000013734050000000000  3020121204   01          2                                                                                   3112360271475036884500400019                                                  N                     01321  0000000        000066
12047190731000100DE CASTRO LOUR ENG IND LTDA                                           00000000341000000000000000000000000000008782059900000023602715003026744 0     201211292012082900000000055320000146594000000000148034000000000000000000000000001440050000000000  3020121204   01          2                                                                                   3112360271509036884500400069                                                  N                     01321  0000000        000067
12047190731000100DE CASTRO LOUREIRO ENGENHARIA                                         00000000033000000000000000000000000000008801227600000071000000003026838 0     201212032012091000000000055360000940288000000000959094000000000000000000000000018806050000000000  3020121204   01          2                                                                                   3948430370000009553371020379                                                  N                     01321  0000000        000068
12047190731000100DE CASTRO LOUR ENG IND LTDA                                           00000000341000000000000000000000000000008782050900000023399953503026612 0     201209182012082100000000054600001111489000000001279811000000000000000000000000168322050000000000  3020121204   01          2                                                                                   3112339995352036884500400019                                                  N                     01321  0000000        000069
12047190731000100DE CASTRO LOUREIRO ENGENHARIA                                         0000000023703394400000000205508 000000008801224800202255000000703026784 0     201211302012083100000000055330001041759000000001048703000000000000000000000000006944050000000000  3020121204   01          2  RUA JUNO  533                                                                    300000000000000000001500  000000000000000                                     N                     00598  0000000        000070
12047190731000100DE CASTRO LOUREIRO ENGENHARIA                                         0000000023703394400000000205508 000000008801225100202255000001003026787 0     201211302012083100000000055330001135987000000001143559000000000000000000000000007572050000000000  3020121204   01          2  RUA JUNO  533                                                                    300000000000000000001500  000000000000000                                     N                     00598  0000000        000071
12047190731000100DE CASTRO LOUREIRO ENGENHARIA                                         0000000023703394400000000205508 000000008801225400202255000001303026794 0     201212032012090300000000055360001209130000000001211145000000000000000000000000002015050000000000  3020121204   01          2  RUA JUNO  533                                                                    300000000000000000001500  000000000000000                                     N                     00598  0000000        000072
12047190731000100DE CASTRO LOUREIRO ENGENHARIA                                         0000000023703394400000000205508 000000008801225500202255000001403026794 0     201211262012090300000000055290001209490000000001225618000000000000000000000000016128050000000000  3020121204   01          2  RUA JUNO  533                                                                    3                         000000000000000                                     N                     00598  0000000        000073
12047190731000100DE CASTRO LOUREIRO ENGENHARIA                                         0000000023703394400000000205508 000000008801225700202255000001603026795 0     201212032012090300000000055360001207555000000001209568000000000000000000000000002013050000000000  3020121204   01          2  RUA JUNO  533                                                                    300000000000000000001500  000000000000000                                     N                     00598  0000000        000074
12048775225000146SEIKI IND COM E CONFECCOES LTD                                        000000003410000000000000000000000000000089337376000000244697151014914001      201210232012092500000000054950000052000000000000055276000000000000000000000000003276050000000000  3020121204   01          2                                                                                   3112446971510017444824100089                                                  N                     01321  0000000        000075
12051180370000199IGUAFER FERRO E ACO LTDA                                              0000000034100000000000000000000000000000852309100000002239389789443 B         201209022012071800000000054440000168275000000000194315000000000000000000000000026040050000000000  3020121204   01          2                                                                                   3112239389789077149484600089                                                  N                     01321  0000000        000076
12051180370000199IGUAFER FERRO E ACO LTDA                                              0000000034100000000000000000000000000000852309110000002239389799443 C         201209122012071800000000054540000168275000000000191515000000000000000000000000023240050000000000  3020121204   01          2                                                                                   3112239389797077149484600089                                                  N                     01321  0000000        000077
12053585766000141MULTIACOS I C PRODS TEC LTDA                                          0000000042200000000000000000000000000000895189370000000000000000004699303     201211282012100200000000055310000863284000000000871917000000000000000000000000008633050000000000  3020121204   01          2                                                                                   3711500005033164927761807189                                                  N                     01321  0000000        000078
12053585766000141MULTIACOS I C PRODS TEC LTDA                                          0000000042200000000000000000000000000000890456930000000000000000004724403     201211302012092500000000055330000522661000000000526144000000000000000000000000003483050000000000  3020121204   01          2                                                                                   3711500005033164925775118129                                                  N                     01321  0000000        000079
12053585766000141MULTIACOS I C PRODS TEC LTDA                                          0000000042200000000000000000000000000000890457000000000000000000004724303     201211302012092500000000055330000268274000000000270061000000000000000000000000001787050000000000  3020121204   01          2                                                                                   3711500005033164925775177139                                                  N                     01321  0000000        000080
12053585766000141MULTIACOS I C PRODS TEC LTDA                                          0000000042200000000000000000000000000000887697910000000000000000004704303     201211272012092000000000055300000965514000000000976776000000000000000000000000011262050000000000  3020121204   01          2                                                                                   3711500005033164923629564189                                                  N                     01321  0000000        000081
12053585766000141MULTIACOS I C PRODS TEC LTDA                                          0000000042200000000000000000000000000000887697960000000000000000004704503     201211272012092000000000055300000217463000000000219996000000000000000000000000002533050000000000  3020121204   01          2                                                                                   3711500005033164923629599149                                                  N                     01321  0000000        000082
12053585766000141MULTIACOS I C PRODS TEC LTDA                                          0000000042200000000000000000000000000000895189570000000000000000004699203     201211292012100200000000055320000519251000000000523575000000000000000000000000004324050000000000  3020121204   01          2                                                                                   3711500005033164927762072129                                                  N                     01321  0000000        000083
12054382510000108SETENTA IND E COM DE MADEIRAS                                         0000000034100000000000000000000000000000860403430000002277814474462 A         201209042012080700000000054460000191200000000000225416000000000000000000000000034216050000000000  3020121204   01          2                                                                                   3112277814474057049175300069                                                  N                     01321  0000000        000084
12056428188000128EDVALDO SANTOS ROSA ME                                                0000000023700898200000000005622 0000000088191342009011225700668194919608      201211282012091300000000055310000089850000000000093441000000000000000000000000003591050000000000  3020121204   01          2  RUA TAMAINDE  1410                                                               3                         000000000000000                                     N                     00598  0000000        000085
12056667629000144COMERCIAL BERENELI LTDA                                               0000000034100000000000000000000000000000910265770000002531475610000011936     201211162012101900000000055190000055120000000000055120000000000000000000000000000000050000000000  3020121116   06          3                                                                                   3112531475617858006440300049                                                  N                     01321  0000000        000086
12056993512000150CYKLOP DO BRASIL EMBALAGENS SA                                        0000000034100000000000000000000000000000874070500000002362586810134932        201210012012090300000000054730000083607000000000103255000000000000000000000000019648050000000000  3020121204   01          2                                                                                   3112362586813025700015800019                                                  N                     01321  0000000        000087
12057158057000130COMERCIAL ELETRICA PJ LTDA                                            0000000023703394400000000972983 00000000918338880090231700001980000340677     201212032012110500000000055360000029094000000000029190000000000000000000000000000096050000000000  3020121204   01          2  R TAMAINDE 1410                                                                  3                         000000000000000                                     N                     00598  0000000        000088
12059659615000177DZ COMERCIO R E SERVICOS LTDA                                         000000003410000000000000000000000000000091358507000000900000321280            201211172012102400000000055200000060000000000000062040000000000000000000000000002040050000000000  3020121204   01          2                                                                                   3109000003217000314585100039                                                  N                     01321  0000000        000089
12061217188000119TELAS METALICAS TELMETAL LTDA                                         0000000034100000000000000000000000000000905040940000009000030385805 2 3       201211222012101800000000055250000065546000000000065546000000000000000000000000000000050000000000  3020121122   05          3                                                                                   3109000030385077099894600019                                                  N                     01321  0000000        000090
12061217188000119TELAS METALICAS TELMETAL LTDA                                         0000000000100000000000000000000000000000931455090000000059910006073 3 3       201301102012113000000000055740000101141000000000101141000000000000000000000000000000050000000000  3020130110   01FS        1                                                                                   3000000115031800000059911789                                                  N                     01321  0000000        000091
12061217188000119TELAS METALICAS TELMETAL LTDA                                         0000000000100000000000000000000000000000931455100000000059860006072 1 3       201212272012113000000000055600000014287000000000014287000000000000000000000000000000050000000000  3020121227   01FS        1                                                                                   3000000115031800000059861779                                                  N                     01321  0000000        000092
12061217188000119TELAS METALICAS TELMETAL LTDA                                         0000000000100000000000000000000000000000931455110000000059870006072 2 3       201301032012113000000000055670000014285000000000014285000000000000000000000000000000050000000000  3020130103   01FS        1                                                                                   3000000115031800000059871779                                                  N                     01321  0000000        000093
12061217188000119TELAS METALICAS TELMETAL LTDA                                         0000000000100000000000000000000000000000931455120000000059880006072 3 3       201301102012113000000000055740000014285000000000014285000000000000000000000000000000050000000000  3020130110   01FS        1                                                                                   3000000115031800000059881719                                                  N                     01321  0000000        000094
12061217188000119TELAS METALICAS TELMETAL LTDA                                         0000000000100000000000000000000000000000931455130000000059890006073 1 3       201212272012113000000000055600000101141000000000101141000000000000000000000000000000050000000000  3020121227   01FS        1                                                                                   3000000115031800000059891779                                                  N                     01321  0000000        000095
12061217188000119TELAS METALICAS TELMETAL LTDA                                         0000000000100000000000000000000000000000931455140000000059900006073 2 3       201301032012113000000000055670000101141000000000101141000000000000000000000000000000050000000000  3020130103   01FS        1                                                                                   3000000115031800000059901739                                                  N                     01321  0000000        000096
12062510367000102ITANHAEM TRANSP DE MAQUINAS LT                                        000000003410000000000000000000000000000087407049000000236463199667            201209202012090400000000054620000248220000000000322695000000000000000000000000074475050000000000  3020121204   01          2                                                                                   3112364631997005770252400049                                                  N                     01321  0000000        000097
12062539994000176LEALFER INDUSTRIA E COMERCIO D                                        0000000003300000000000000000000000000000893373920000007800000000005563002     201211212012092500000000055240000136948000000000138112000000000000000000000000001396050000000000  3020121126   05          3                                                                                   3915298380000000272078010449                                                  N                     01321  0000000        000098
12062539994000176LEALFER INDUSTRIA E COMERCIO D                                        0000000003300000000000000000000000000000893373980000003500000000005568402     201211212012092500000000055240000891184000000000898759000000000000000000000000009090050000000000  3020121126   05          3                                                                                   3915298380000000272035010479                                                  N                     01321  0000000        000099
12064952757000168WALMAC COM DE PROD QUIMICOS LT                                        0000000034100000000000000000000000000000860403450000002275821700020148        201210052012080300000000054770000219267000000000245127000000000000000000000000025860050000000000  3020121204   01          2                                                                                   3112275821703064807961400029                                                  N                     01321  0000000        000100
12064952757000168WALMAC COM DE PROD QUIMICOS LT                                        0000000034100000000000000000000000000000896979510000002462157570021611        201211292012100400000000055320000219267000000000221422000000000000000000000000002155050000000000  3020121204   01          2                                                                                   3112462157572064807961400059                                                  N                     01321  0000000        000101
12066841552000130R V SEG PATRIMONIAL S C LTDA                                          00000000341000000000000000000000000000008887329800000090002213622136          201210102012091100000000054820000374758000000000381633000000000000000000000000006875050000000000  3020121204   01          2                                                                                   3109000221365001838994000069                                                  N                     01321  0000000        000102
12066841552000130R V SEG PATRIMONIAL LTDA                                              00000000341000000000000000000000000000008852483200000090002192721927          201209102012081000000000054520000483241000000000496926000000000000000000000000013685050000000000  3020121204   01          2                                                                                   3109000219270001835253400099                                                  N                     01321  0000000        000103
12068109784000124TARCOM TECN AR COMPRIMIDO LTDA                                        00000000341000000000000000000000000000009135850300000070271816900000262 A     201212022012110500000000055350000168345000000000169467000000000000000000000000001122050000000000  3020121204   01          2                                                                                   3157027181698846115840700019                                                  N                     01321  0000000        000104
12069284248000128ISOCOAT TINTAS E VERNIZES LTDA                                        0000000034100000000000000000000000000000841061040000002182507930052085        201209172012070200000000054590000236130000000000285270000000000000000000000000049140050000000000  3020121204   01          2                                                                                   3112182507932077430121200019                                                  N                     01321  0000000        000105
12069284248000128ISOCOAT TINTAS E VERNIZES LTDA                                        0000000034100000000000000000000000000000888732960000002421485720055761        201211202012092100000000055230000093324000000000096810000000000000000000000000003486050000000000  3020121204   01          2                                                                                   3112421485726077430121200069                                                  N                     01321  0000000        000106
12069284248000128ISOCOAT TINTAS E VERNIZES LTDA                                        0000000034100000000000000000000000000000895189840000002456588200056254        201212032012100200000000055360000317968000000000318816000000000000000000000000000848050000000000  3020121204   01          2                                                                                   3112456588204077430121200019                                                  N                     01321  0000000        000107
12069284248000128ISOCOAT TINTAS E VERNIZES LTDA                                        0000000034100000000000000000000000000000931455150000002632236310058846        201301132012112900000000055770000063992000000000063992000000000000000000000000000000050000000000  3020130114   01FS        1                                                                                   3112632236314077430121200019                                                  N                     01321  0000000        000108
12069284248000128ISOCOAT TINTAS E VERNIZES LTDA                                        0000000034100000000000000000000000000000931455160000002632236320058846        201301282012112900000000055920000055644000000000055644000000000000000000000000000000050000000000  3020130128   01FS        1                                                                                   3112632236322077430121200019                                                  N                     01321  0000000        000109
12069284248000128ISOCOAT TINTAS E VERNIZES LTDA                                        0000000034100000000000000000000000000000931455170000002632236330058846        201302122012112900000000056070000055662000000000055662000000000000000000000000000000050000000000  3020130213   01FS        1                                                                                   3112632236330077430121200049                                                  N                     01321  0000000        000110
12096500087000135WORKBENCH CONSULTORIA S S LTDA                                        0000000034100000000000000000000000000000931455200000007066841053269           201212272012120300000000055600000131746000000000131746000000000000000000000000000000050000000000  3020121227   01FS        1                                                                                   3157066841053826313803700019                                                  N                     01321  0000000        000111
12096500087000135WORKBENCH CONSULTORIA S S LTDA                                        0000000034100000000000000000000000000000912467970000007023696933218           201211272012110100000000055300000131746000000000133559000000000000000000000000001813050000000000  3020121204   01          2                                                                                   3157023696939826313803700019                                                  N                     01321  0000000        000112
12096500087000135WORKBENCH CONSULTORIA S S LTDA                                        0000000034100000000000000000000000000000878205840000007940034283118           201209272012090300000000054690000131746000000000149358000000000000000000000000017612050000000000  3020121204   01          2                                                                                   3157940034289826313803700089                                                  N                     01321  0000000        000113
900011400000000051660386                                                                                                                                                                                                                                                                                                                                                                                                                                                                01321  0000000        000114
