0000147602043799295000110ALTAMIRA INDUSTRIA METALURGICA LT       202000000189920121004214535             3                                                                                                  000000000000000                                                                                                                                                                                                                                                                                   000001
12043799295000110ALTAMIRA INDUSTRIA METAL LTDA                                         0000000003303809500000130004071 I000000000009982000000000000000               201210040000000000000000000000000000000000000007000000000000000000000000000000000000050000000000  0820121004   02BW        5001000               000000000000000                                               3D0000000101                               01                                 S                     01133 10020256        000002
900000300000000007000000                                                                                                                                                                                    000000000000000                                                                                                                                                                                                                                                    00000100000000000000000        000003
