0000147602043799295000110ALTAMIRA IND METALURGICA LTDA           20100487000002012090417381000000        2    230A                                                                                          000000000000000                                                                                                                                                                                                                                                                                   000001
12042956441000101SOLUCOES EM ACO USIMINAS S A  RUA  DIANOPOLIS  670 710                0312510034100000 0000000000000  I000000000009707000000000000000               201209040000000000000000054460000391005000000000391005000000000000000000000000000000010000163012  3120120904   01HA        000                                                                                 3181535079025293807258000059             000163012/03                         N                     00000 10020256        000002
12042956441000101SOLUCOES EM ACO USIMINAS S A  RUA  DIANOPOLIS  670 710                0312510034100000 0000000000000  I000000000009708000000000000000               201209040000000000000000054460000199832000000000199832000000000000000000000000000000010000163010  3120120904   01HA        000                                                                                 3181535079835293807258000049             000163010/03                         N                     00000 10020256        000003
12042956441000101SOLUCOES EM ACO USIMINAS S A  RUA  DIANOPOLIS  670 710                0312510034100000 0000000000000  I000000000009709000000000000000               201209040000000000000000054460000143220000000000143220000000000000000000000000000000010000172129  3120120904   01HA        000                                                                                 3181535087556293807258000019             000172129/01                         N                     00000 10020256        000004
12042956441000101SOLUCOES EM ACO USIMINAS S A  RUA  DIANOPOLIS  670 710                0312510034100000 0000000000000  I000000000009710000000000000000               201209040000000000000000054460000143735000000000143735000000000000000000000000000000010000172130  3120120904   01HA        000                                                                                 3181535086715293807258000019             000172130/01                         N                     00000 10020256        000005
12096500087000135WORKBENCH CONSULTORIA S S LTDARUA  ANTONIO MAZZONI  151               0601823034100000 0000000000000  I000000000009711000000000000000               201209040000000000000000054460000133818000000000133818000000000000000000000000000000010000003064  3120120904   01HA        000                                                                                 3181535359729826313803700079             003064                               N                     00000 10020256        000006
12007068566000102NIVEL EMPREGOS LTDA           AV CELSO GARCIA 3830                    0306400023700097300000003053792 I000000000009712000000000000000               201209040000000000000000000000000000000000000000536729000000000000000000000000000000010000002753  0120120904   01HA        000                                                                                 3                                        00NRO.2753 - PARC.01.                N                     00000 10020256        000007
12011202309000180FIEL TOOLS DISTRIBUIDORA DE MAESTR STA ISABEL 3242 JD NOVA ITAQUA     0859900023702087700000000000116 I000000000009713000000000000000               201209040000000000000000000000000000000000000000047342000000000000000000000000000000010000008626  0120120904   01HA        000                                                                                 3                                        00NF.NRO.8626                        N                     00000 10020256        000008
900000900000000001595681                                                                                                                                                                                    000000000000000                                                                                                                                                                                                                                                    00000700272300001011610        000009
