0000147602043799295000110ALTAMIRA INDUSTRIA METALURGICA LT       202000000185620120904213459             3                                                                                                  000000000000000                                                                                                                                                                                                                                                                                   000001
12014309992000148WEG DRIVES   CONTROLS   AUTOMA                                        0000000023702727800000000001872 I000000000009716009022080000297               201209040000000000000000054460000108840000000000108840000000000000000000000000000000010000073796  3120120904   02BW        5000000               000000000000000                                               3272709220800002970000187019               083796/01                          N                     01146 10020256        000002
12014309992000148WEG DRIVES   CONTROLS   AUTOMA                                        0000000023702727800000000001872 I000000000009717009021460000243               201209040000000000000000054460000028052000000000028052000000000000000000000000000000010000045661  3120120904   02BW        5000000               000000000000000                                               3272709214600002430000187049               04866102                           N                     01146 10020256        000003
12007068566000102NIVEL EMPREGOS LTDA           AV CELSO GARCIA 3830                    0306400023700097300000003053792 I000000000009712000000000000000               201209040000000000000000000000000000000000000000536729000000000000000000000000000000010000002753  0120120904   02BW        5000000               000000000000000                                               3                                          NRO.2753 - PARC.01.                N                     01321 10020256        000004
12042956441000101SOLUCOES EM ACO USIMINAS S A                                          0000000034100000 0000000000000  I000000000009707000000000000000               201209040000000000000000054460000391005000000000391005000000000000000000000000000000010000163012  3120120904   02BW        5000000               000000000000000                                               3181535079025293807258000059               0163012/03                         N                     01132 10020256        000005
12042956441000101SOLUCOES EM ACO USIMINAS S A                                          0000000034100000 0000000000000  I000000000009709000000000000000               201209040000000000000000054460000143220000000000143220000000000000000000000000000000010000172129  3120120904   02BW        5000000               000000000000000                                               3181535087556293807258000019               0172129/01                         N                     01132 10020256        000006
12042956441000101SOLUCOES EM ACO USIMINAS S A                                          0000000034100000 0000000000000  I000000000009710000000000000000               201209040000000000000000054460000143735000000000143735000000000000000000000000000000010000172130  3120120904   02BW        5000000               000000000000000                                               3181535086715293807258000019               0172130/01                         N                     01132 10020256        000007
12096500087000135WORKBENCH CONSULTORIA S S LTDA                                        0000000034100000 0000000000000  I000000000009711000000000000000               201209040000000000000000054460000133818000000000133818000000000000000000000000000000010000003064  3120120904   02BW        5000000               000000000000000                                               3181535359729826313803700079               3064                               N                     01132 10020256        000008
12071580302000124SANCHEPEL IND PAULISTA LTDA                                           0000000034100000 0000000000000  I000000000009715000000000000000               201209040000000000000000054460000200361000000000200361000000000000000000000000000000010000007346  3120120904   02BW        5000000               000000000000000                                               3181535073001007855578600049               7346                               N                     01130 10020256        000009
12042956441000101SOLUCOES EM ACO USIMINAS S A                                          0000000034100000 0000000000000  I000000000009708000000000000000               201209040000000000000000054460000199832000000000199832000000000000000000000000000000010000163010  3120120904   02BW        5000000               000000000000000                                               3181535079835293807258000049               0163010/03                         N                     01132 10020256        000010
12011202309000180FIEL TOOLS DISTRIBUIDORA DE MAESTR STA ISABEL 3242 JD NOVA ITAQUA     0859900023702087700000000000116 I000000000009713000000000000000               201209040000000000000000000000000000000000000000047342000000000000000000000000000000010000008626  0120120904   02BW        5000000               000000000000000                                               3                                          NF.NRO.8626                        N                     01321 10020256        000011
12007358761004741GERDAU ACOS LONGOS S A                                                0000000023702028100000006041051 I000000000009714016002820172301               201209050000000000000000054470000284051000000000284051000000000000000000000000000000010000017230  3120120904   02BW        5000000               000000000000000                                               3202816028201723010604105079               017230                             N                     01146 10020256        000012
900001300000000002216985                                                                                                                                                                                    000000000000000                                                                                                                                                                                                                                                    00001100490150001632914        000013
