0000147602043799295000110ALTAMIRA INDUSTRIA METALURGICA LT       202000000018120121205060057             1                                                                                                                                                                                                                                                                                                                                                                                                    000001
12001784706000154TRANSPORTES WARTHA LTDA                                               0000000023701775200000000260010 0000000093256023009023390000556SAO2689691     201301102012102900000000055740000027846000000000027846000000000000000000000000000000050000000000  3020130110   01FS        1  R  GANGES  528                                                                   3                         000000000000000                                     N                     00598  0000000        000002
12001895314000162COLETA INDUSTRIAL FIMAVAN LTDA                                        0000000034100000000000000000000000000000866992070000009002335349439           201208272012081700000000054380000123695000000000159069000000000000000000000000035374050000000000  3020121205   01          2                                                                                   3109002335346144604097200019                                                  N                     01321  0000000        000003
12003102481000134AB5 IND E COMERCIO LTDA EPP                                           0000000034100000000000000000000000000000909203330000009000042483169           201211202012102300000000055230000119250000000000122235000000000000000000000000002985050000000000  3020121205   01          2                                                                                   3109000042489003154755700039                                                  N                     01321  0000000        000004
12003244478000155CASA DO EPI LTDA                                                      000000003410000000000000000000000000000093256042000000900119423164722 2       201301212012113000000000055850000067354000000000067354000000000000000000000000000000050000000000  3020130121   01FS        1                                                                                   3109001194232312022436900019                                                  N                     01321  0000000        000005
12003244478000155CASA DO EPI LTDA                                                      000000003410000000000000000000000000000093256043000000900119424164722 1       201212282012113000000000055610000067355000000000067355000000000000000000000000000000050000000000  3020121228   01FS        1                                                                                   3109001194240312022436900039                                                  N                     01321  0000000        000006
12003489596000123BEND FLEX I COMERCIO LTDA                                             000000003410000000000000000000000000000088350832000000171879874608            201209122012082100000000054540000695250000000000810078000000000000000000000000114828050000000000  3020121205   01          2                                                                                   3191718798744157734445800069                                                  N                     01321  0000000        000007
12003489596000123BEND FLEX I COMERCIO LTDA                                             000000003410000000000000000000000000000088599899000000171434574613            201209172012081600000000054590000585000000000000675929000000000000000000000000090929050000000000  3020121205   01          2                                                                                   3191714345748157734445800019                                                  N                     01321  0000000        000008
12003639662000102SCHUTTER DO BRASIL LTDA                                               0000000023700939300000000014001 0000000092377940009013500000427004006461      201212042012111900000000055370000067550000000000067781000000000000000000000000000231050000000000  3020121205   01          2                                                                                   3                         000000000000000                                     N                     00598  0000000        000009
12003803271000173ATUAL SP C DE FERRAMENTAS LTDA                                        000000003410000000000000000000000000000090751873000000701204346007823         201211222012102500000000055250000070500000000000073310000000000000000000000000002949050000000000  3020121127   05          3                                                                                   3157012043466013905550300029                                                  N                     01321  0000000        000010
12004643290000142FLEXTINTAS IND E COMERCIO LTDA                                        000000003410000000000000000000000000000093256035000000263795421NFF039808C     201302132012113000000000056080000315084000000000315084000000000000000000000000000000050000000000  3020130213   01FS        1                                                                                   3112637954218051356781800019                                                  N                     01321  0000000        000011
12004643290000142FLEXTINTAS IND E COMERCIO LTDA                                        000000003410000000000000000000000000000093256033000000263795420NFF039808B     201301292012113000000000055930000315084000000000315084000000000000000000000000000000050000000000  3020130129   01FS        1                                                                                   3112637954200051356781800019                                                  N                     01321  0000000        000012
12004643290000142FLEXTINTAS IND E COMERCIO LTDA                                        000000003410000000000000000000000000000093256029000000263795419NFF039808A     201301142012113000000000055780000315084000000000315084000000000000000000000000000000050000000000  3020130114   01FS        1                                                                                   3112637954192051356781800089                                                  N                     01321  0000000        000013
12004882911000140F C BRITO CARTUCHOS ME                                                00000000033000000000000000000000000000009286265500000081000000015157 A21      201212032012110500000000055360000027911000000000028728000000000000000000000000000817050000000000  3020121205   01          2                                                                                   3944753720000000111481010159                                                  N                     01321  0000000        000014
12005880850000145NEDERMAN BRASIL COM PROD EX LT                                        000000003410000000000000000000000000000086373178000000614350956002763 A       201209252012081400000000054670000289674000000000330144000000000000000000000000040470050000000000  3020121205   01          2                                                                                   3156143509568160829000100049                                                  N                     01321  0000000        000015
12005915831000107PALETES SATELITE COM LTDA ME                                          000000003410000000000000000000000000000092038465000000902111111NF 2111        201212042012111300000000055370000058500000000000058890000000000000000000000000000390050000000000  3020121205   01          2                                                                                   3109021111111144648966600059                                                  N                     01321  0000000        000016
12006000195000156MBA MERCANTIL BRAS DE ACO LTDA                                        0000000034100000000000000000000000000000887698090000001671394550008925B02     201209142012071700000000054560000719581000000000835611000000000000000000000000116030050000000000  3020121205   01          2                                                                                   3191671394556064849251000089                                                  N                     01321  0000000        000017
12006000195000156MBA MERCANTIL BRAS DE ACO LTDA                                        0000000034100000000000000000000000000000904173150000001667238300008870B03     201210092012071600000000054810000839951000000000934115000000000000000000000000094164050000000000  3020121205   01          2                                                                                   3191667238304064849251000039                                                  N                     01321  0000000        000018
12006000195000156MBA MERCANTIL BRAS DE ACO LTDA                                        0000000034100000000000000000000000000000904173160000001667238280008876B03     201210122012071600000000054840000810320000000000896396000000000000000000000000086076050000000000  3020121205   01          2                                                                                   3191667238288064849251000079                                                  N                     01321  0000000        000019
12006000195000156MBA MERCANTIL BRAS DE ACO LTDA                                        0000000034100000000000000000000000000000887698100000001671394560008926B02     201209142012071700000000054560000387716000000000450282000000000000000000000000062566050000000000  3020121205   01          2                                                                                   3191671394564064849251000019                                                  N                     01321  0000000        000020
12006000195000156MBA MERCANTIL BRAS DE ACO LTDA                                        0000000034100000000000000000000000000000885998980000001667238420008870B02     201209112012071600000000054530000839952000000000980372000000000000000000000000140420050000000000  3020121205   01          2                                                                                   3191667238429064849251000039                                                  N                     01321  0000000        000021
12006000195000156MBA MERCANTIL BRAS DE ACO LTDA                                        0000000034100000000000000000000000000000904173170000001671394420008925B03     201210122012071700000000054840000719580000000000795990000000000000000000000000076410050000000000  3020121205   01          2                                                                                   3191671394424064849251000069                                                  N                     01321  0000000        000022
12006000195000156MBA MERCANTIL BRAS DE ACO LTDA                                        0000000034100000000000000000000000000000889578520000001671394540008920B02     201209162012071700000000054580000576585000000000667305000000000000000000000000090720050000000000  3020121205   01          2                                                                                   3191671394549064849251000099                                                  N                     01321  0000000        000023
12006000195000156MBA MERCANTIL BRAS DE ACO LTDA                                        0000000034100000000000000000000000000000904173180000001671394430008926B03     201210122012071700000000054840000387716000000000428918000000000000000000000000041202050000000000  3020121205   01          2                                                                                   3191671394432064849251000079                                                  N                     01321  0000000        000024
12006000195000156MBA MERCANTIL BRAS DE ACO LTDA                                        0000000034100000000000000000000000000000906662560000002513141930009988B01     201211192012102200000000055220000214645000000000214645000000000000000000000000000000050000000000  3020121119   05          3                                                                                   3112513141930064899001800049                                                  N                     01321  0000000        000025
12006000195000156MBA MERCANTIL BRAS DE ACO LTDA                                        0000000034100000000000000000000000000000906662630000002513141960009992B01     201211192012102200000000055220000097583000000000097583000000000000000000000000000000050000000000  3020121119   05          3                                                                                   3112513141963064899001800069                                                  N                     01321  0000000        000026
12007289649000113CRC LASER SUPR INF LTDA EPP                                           000000003410000000000000000000000000000091471898000000702929251000001203      201212032012110600000000055360000036440000000000037313000000000000000000000000000873050000000000  3020121205   01          2                                                                                   3157029292519000265431700089                                                  N                     01321  0000000        000027
12008272923000104P SANTOS ESQUADRARIAS METAL ME                                        0000000034100000000000000000000000000000896979550000006153947641850           201211222012100800000000055250000400000000000000421871000000000000000000000000021871050000000000  3020121205   01          2                                                                                   3156153947640160141951600039                                                  N                     01321  0000000        000028
12008594182000188ACOS G3 COMERCIO E BENEFICIAME                                        0000000000100000000000000000000000000000913584950000009116670001278 01        201211272012110100000000055300000211796000000000211796000000000000000000000000000000050000000000  3020121127   05          3                                                                                   3000000213008444199116671169                                                  N                     01321  0000000        000029
12008594182000188ACOS G3 COMERCIO E BENEFICIAME                                        0000000023703137200000000091332 00000000929490170090227100000261155        002201211222012092700000000055250000152347000000000156220000000000000000000000000003873050000000000  3020121205   01          2  RUA GANGES  528                                                                  3                         000000000000000                                     N                     00598  0000000        000030
12009338857000190FERNANDO  NAGAO  CARDONE  ALVA                                        000000000330000000000000000000000000000091653176000000300000000ALTA 11 2012   201211202012103000000000055230000134632000000000142038000000000000000000000000007406050000000000  3020121205   01          2                                                                                   3947901700000051051630010119                                                  N                     01321  0000000        000031
12009338857000190FERNANDO  NAGAO  CARDONE  ALVA                                        000000000330000000000000000000000000000089697936000000800000000ALTA 10 2012   201210202012092500000000054920000134632000000000154562000000000000000000000000019930050000000000  3020121205   01          2                                                                                   3947901700000051050080010129                                                  N                     01321  0000000        000032
12012006058000121WEG TINTAS LTDA                                                       0000000023702727800000000001309 00000000878206060090225400000800016517203     201211202012090600000000055230000459992000000000469187000000000000000000000000009195050000000000  3020121205   01          2  R JUNO  533                                                                      3                         000000000000000                                     N                     00598  0000000        000033
12012006058000121WEG TINTAS LTDA                                                       0000000023702727800000000001309 00000000882668420090225800000750016626902     201211122012091300000000055150000459854000000000473953000000000000000000000000014099050000000000  3020121205   01          2  R JUNO  533                                                                      3                         000000000000000                                     N                     00598  0000000        000034
12012006058000121WEG TINTAS LTDA                                                       0000000023702727800000000001309 00000000882668430090225800000760016626903     201211272012091300000000055300000459992000000000464896000000000000000000000000004904050000000000  3020121205   01          2  R JUNO  533                                                                      3                         000000000000000                                     N                     00598  0000000        000035
12012006058000121WEG TINTAS LTDA                                                       0000000023702727800000000001309 00000000870177500090224100000990016248003     201211102012082700000000055130000306662000000000316862000000000000000000000000010200050000000000  3020121205   01          2  R JUNO  533                                                                      3                         000000000000000                                     N                     00598  0000000        000036
12012006058000121WEG TINTAS LTDA                                                       0000000023702727800000000001309 00000000872318670090224700001050016359603     201211142012083100000000055170000459992000000000472865000000000000000000000000012873050000000000  3020121205   01          2  R JUNO  533                                                                      3                         000000000000000                                     N                     00598  0000000        000037
12012434269000165RIBASE TRANSPORTE E LOGISTICA                                         0000000023701231900000002302659 0000000092564059009000000006852009287 12      201212032012111200000000055360000025000000000000025066000000000000000000000000000066050000000000  3020121205   01          2  RUA TAMAINDE N  1 410                                                            3                         000000000000000                                     N                     00598  0000000        000038
12013937547000160DUBAY COMERCIAL LTDA                                                  0000000023701744200000000358460 0000000091471907009023110000002508 A          201212042012110600000000055370000045242000000000046149000000000000000000000000000907050000000000  3020121205   01          2  RUA TAMAINDE                                                                     3                         000000000000000                                     N                     00598  0000000        000039
12014775592000128HELIO ADRIANO DA SILVA ME                                             0000000003300000000000000000000000000000921267680000009100000009131 9127      201212032012111400000000055360000044000000000000044938000000000000000000000000000938050000000000  3020121205   01          2                                                                                   3956114740000000000091010199                                                  N                     01321  0000000        000040
12014978305000187MOGI FILME INDUSTRIA E COMERCI                                        0000000023700402200000001055003 0000000093256044009023390000007514         001201301032012120400000000055670000041975000000000041975000000000000000000000000000000050000000000  3020130103   01FS        1  RUA TAMAINDE 1410 VL NOVA MANCHESTER                                             3                         000000000000000                                     N                     00598  0000000        000041
12014978305000187MOGI FILME INDUSTRIA E COMERCI                                        0000000023700402200000001055003 0000000093256045009023390000008514         002201301182012120400000000055820000041975000000000041975000000000000000000000000000000050000000000  3020130118   01FS        1  RUA TAMAINDE 1410 VL NOVA MANCHESTER                                             3                         000000000000000                                     N                     00598  0000000        000042
12042956441000101SOLUCOES ACO USIMINAS                                                 0000000034100000000000000000000000000000932560240000002641578310019251402     201301252012113000000000055890000179732000000000179732000000000000000000000000000000050000000000  3020130125   01FS        1                                                                                   3112641578318293807258000069                                                  N                     01321  0000000        000043
12042956441000101SOLUCOES ACO USIMINAS                                                 0000000034100000000000000000000000000000932560250000002641578320019251103     201302222012113000000000056170000408147000000000408147000000000000000000000000000000050000000000  3020130222   01FS        1                                                                                   3112641578326293807258000019                                                  N                     01321  0000000        000044
12042956441000101SOLUCOES ACO USIMINAS                                                 0000000034100000000000000000000000000000932560260000002641578330019251203     201302222012113000000000056170000360114000000000360114000000000000000000000000000000050000000000  3020130222   01FS        1                                                                                   3112641578334293807258000089                                                  N                     01321  0000000        000045
12042956441000101SOLUCOES ACO USIMINAS                                                 0000000034100000000000000000000000000000932560270000002641578340019251303     201302222012113000000000056170000162209000000000162209000000000000000000000000000000050000000000  3020130222   01FS        1                                                                                   3112641578342293807258000029                                                  N                     01321  0000000        000046
12042956441000101SOLUCOES ACO USIMINAS                                                 0000000034100000000000000000000000000000932560280000002641578350019251403     201302222012113000000000056170000179731000000000179731000000000000000000000000000000050000000000  3020130222   01FS        1                                                                                   3112641578359293807258000049                                                  N                     01321  0000000        000047
12042956441000101SOLUCOES ACO USIMINAS                                                 0000000034100000000000000000000000000000932560380000002641578290019251202     201301252012113000000000055890000360114000000000360114000000000000000000000000000000050000000000  3020130125   01FS        1                                                                                   3112641578292293807258000049                                                  N                     01321  0000000        000048
12042956441000101SOLUCOES ACO USIMINAS                                                 0000000034100000000000000000000000000000932560390000002641578300019251302     201301252012113000000000055890000162209000000000162209000000000000000000000000000000050000000000  3020130125   01FS        1                                                                                   3112641578300293807258000039                                                  N                     01321  0000000        000049
12042956441000101SOLUCOES ACO USIMINAS                                                 0000000034100000000000000000000000000000932560400000002641578270019251401     201212282012113000000000055610000179786000000000179786000000000000000000000000000000050000000000  3020121228   01FS        1                                                                                   3112641578276293807258000019                                                  N                     01321  0000000        000050
12042956441000101SOLUCOES ACO USIMINAS                                                 0000000034100000000000000000000000000000932560410000002641578280019251102     201301252012113000000000055890000408147000000000408147000000000000000000000000000000050000000000  3020130125   01FS        1                                                                                   3112641578284293807258000079                                                  N                     01321  0000000        000051
12042956441000101SOLUCOES ACO USIMINAS                                                 0000000034100000000000000000000000000000932560340000002641578250019251201     201212282012113000000000055610000360222000000000360222000000000000000000000000000000050000000000  3020121228   01FS        1                                                                                   3112641578250293807258000019                                                  N                     01321  0000000        000052
12042956441000101SOLUCOES ACO USIMINAS                                                 0000000034100000000000000000000000000000932560370000002641578260019251301     201212282012113000000000055610000162257000000000162257000000000000000000000000000000050000000000  3020121228   01FS        1                                                                                   3112641578268293807258000019                                                  N                     01321  0000000        000053
12042956441000101SOLUCOES ACO USIMINAS                                                 0000000034100000000000000000000000000000932560320000002641578240019251101     201212282012113000000000055610000408269000000000408269000000000000000000000000000000050000000000  3020121228   01FS        1                                                                                   3112641578243293807258000029                                                  N                     01321  0000000        000054
12042956441000101SOLUCOES ACO USIMINAS                                                 0000000034100000000000000000000000000000853154840000002246247030017196702     201209202012072500000000054620000234841000000000270561000000000000000000000000035720050000000000  3020121205   01          2                                                                                   3112246247038293807258000099                                                  N                     01321  0000000        000055
12042956441000101SOLUCOES ACO USIMINAS                                                 0000000034100000000000000000000000000000853154850000002246247040017197302     201209202012072500000000054620000970103000000001117543000000000000000000000000147440050000000000  3020121205   01          2                                                                                   3112246247046293807258000019                                                  N                     01321  0000000        000056
12042956441000101SOLUCOES ACO USIMINAS                                                 0000000034100000000000000000000000000000855028690000002254329380017212902     201209212012072600000000054630000140098000000000161098000000000000000000000000021000050000000000  3020121205   01          2                                                                                   3112254329389293807258000019                                                  N                     01321  0000000        000057
12042956441000101SOLUCOES ACO USIMINAS                                                 0000000034100000000000000000000000000000855028700000002254329390017213002     201209212012072600000000054630000140602000000000161677000000000000000000000000021075050000000000  3020121205   01          2                                                                                   3112254329397293807258000089                                                  N                     01321  0000000        000058
12042956441000101SOLUCOES ACO USIMINAS                                                 0000000034100000000000000000000000000000855028770000002254329400017220502     201209212012072700000000054630000981022000000001128172000000000000000000000000147150050000000000  3020121205   01          2                                                                                   3112254329405293807258000099                                                  N                     01321  0000000        000059
12042956441000101SOLUCOES ACO USIMINAS                                                 0000000034100000000000000000000000000000856906410000002262886280017266201     201208282012073000000000054390000119472000000000143133000000000000000000000000023661050000000000  3020121205   01          2                                                                                   3112262886289293807258000089                                                  N                     01321  0000000        000060
12042956441000101SOLUCOES ACO USIMINAS                                                 0000000034100000000000000000000000000000856906420000002262886290017266301     201208282012073000000000054390000145069000000000173779000000000000000000000000028710050000000000  3020121205   01          2                                                                                   3112262886297293807258000099                                                  N                     01321  0000000        000061
12042956441000101SOLUCOES ACO USIMINAS                                                 0000000034100000000000000000000000000000859590620000002274469790017353702     201209282012080300000000054700000081053000000000092069000000000000000000000000011016050000000000  3020121205   01          2                                                                                   3112274469793293807258000069                                                  N                     01321  0000000        000062
12042956441000101SOLUCOES ACO USIMINAS                                                 0000000034100000000000000000000000000000846595700000002210880280016980502     201209102012071200000000054520000156071000000000182903000000000000000000000000026832050000000000  3020121205   01          2                                                                                   3112210880285293807258000039                                                  N                     01321  0000000        000063
12042956441000101SOLUCOES ACO USIMINAS                                                 0000000034100000000000000000000000000000846595710000002210880290016980602     201209102012071200000000054520000426094000000000499366000000000000000000000000073272050000000000  3020121205   01          2                                                                                   3112210880293293807258000019                                                  N                     01321  0000000        000064
12042956441000101SOLUCOES ACO USIMINAS                                                 0000000034100000000000000000000000000000847452070000002216130350005922202     201209102012071600000000054520000172071000000000201655000000000000000000000000029584050000000000  3020121205   01          2                                                                                   3112216130354293807258000049                                                  N                     01321  0000000        000065
12042956441000101SOLUCOES ACO USIMINAS                                                 0000000034100000000000000000000000000000847452100000002216130340017012402     201209102012071500000000054520000147428000000000172798000000000000000000000000025370050000000000  3020121205   01          2                                                                                   3112216130347293807258000059                                                  N                     01321  0000000        000066
12042956441000101SOLUCOES ACO USIMINAS                                                 0000000034100000000000000000000000000000848180700000002220192900017041002     201209112012071700000000054530000155433000000000181868000000000000000000000000026435050000000000  3020121205   01          2                                                                                   3112220192903293807258000029                                                  N                     01321  0000000        000067
12042956441000101SOLUCOES ACO USIMINAS                                                 0000000034100000000000000000000000000000848180710000002220192910017041202     201209112012071700000000054530000205421000000000240356000000000000000000000000034935050000000000  3020121205   01          2                                                                                   3112220192911293807258000019                                                  N                     01321  0000000        000068
12042956441000101SOLUCOES ACO USIMINAS                                                 0000000034100000000000000000000000000000850740460000002233586800017127201     201208202012072000000000054310000137881000000000167413000000000000000000000000029532050000000000  3020121205   01          2                                                                                   3112233586802293807258000019                                                  N                     01321  0000000        000069
12042956441000101SOLUCOES ACO USIMINAS                                                 0000000034100000000000000000000000000000850740470000002233586810017101002     201209142012071900000000054560000732575000000000852705000000000000000000000000120130050000000000  3020121205   01          2                                                                                   3112233586810293807258000019                                                  N                     01321  0000000        000070
12042956441000101SOLUCOES ACO USIMINAS                                                 0000000034100000000000000000000000000000850740480000002233586820017101202     201209142012071900000000054560000144634000000000168332000000000000000000000000023698050000000000  3020121205   01          2                                                                                   3112233586828293807258000029                                                  N                     01321  0000000        000071
12045635984000115CRIFER LAMINADOS DE ACO E FERR                                        0000000000100000000000000000000000000000898741130000000041650000035395E02     201212032012100900000000055360000802816000000000806028000000000000000000000000003212050000000000  3020121205   01          2                                                                                   3000000147532500000041651769                                                  N                     01321  0000000        000072
12047190731000100DE CASTRO LOUR ENG IND LTDA                                           00000000341000000000000000000000000000008782050900000023399953503026612 0     201209182012082100000000054600001111489000000001281997000000000000000000000000170508050000000000  3020121205   01          2                                                                                   3112339995352036884500400019                                                  N                     01321  0000000        000073
12047190731000100DE CASTRO LOUR ENG IND LTDA                                           00000000341000000000000000000000000000008782059400000023602715303026745 0     201211282012082900000000055310000903175000000000915607000000000000000000000000012432050000000000  3020121205   01          2                                                                                   3112360271533036884500400039                                                  N                     01321  0000000        000074
12047190731000100DE CASTRO LOUR ENG IND LTDA                                           00000000341000000000000000000000000000008782059500000023602714703026734 0     201211272012082800000000055300000997834000000001013530000000000000000000000000015696050000000000  3020121205   01          2                                                                                   3112360271475036884500400019                                                  N                     01321  0000000        000075
12047190731000100DE CASTRO LOUR ENG IND LTDA                                           00000000341000000000000000000000000000008782059900000023602715003026744 0     201211292012082900000000055320000146594000000000148322000000000000000000000000001728050000000000  3020121205   01          2                                                                                   3112360271509036884500400069                                                  N                     01321  0000000        000076
12047190731000100DE CASTRO LOUR ENG IND LTDA                                           00000000341000000000000000000000000000008782052700000023399956203026648 0     201209202012082300000000054620000976053000000001121973000000000000000000000000145920050000000000  3020121205   01          2                                                                                   3112339995626036884500400029                                                  N                     01321  0000000        000077
12047190731000100DE CASTRO LOUR ENG IND LTDA                                           00000000341000000000000000000000000000008782052800000023399956303026648 0     201211222012082300000000055250000976053000000001001013000000000000000000000000024960050000000000  3020121205   01          2                                                                                   3112339995634036884500400019                                                  N                     01321  0000000        000078
12047190731000100DE CASTRO LOUR ENG IND LTDA                                           00000000341000000000000000000000000000008996247900000024766209203027184 0     201211302012100500000000055330001153047000000001164387000000000000000000000000011340050000000000  3020121205   01          2                                                                                   3112476620920036884500400089                                                  N                     01321  0000000        000079
12047190731000100DE CASTRO LOUR ENG IND LTDA                                           00000000341000000000000000000000000000008782051200000023399953803026613 0     201209182012082100000000054600001107989000000001277951000000000000000000000000169962050000000000  3020121205   01          2                                                                                   3112339995386036884500400039                                                  N                     01321  0000000        000080
12047190731000100DE CASTRO LOUR ENG IND LTDA                                           00000000341000000000000000000000000000008782051300000023399953903026613 0     201211202012082100000000055230001107989000000001140674000000000000000000000000032685050000000000  3020121205   01          2                                                                                   3112339995394036884500400019                                                  N                     01321  0000000        000081
12047190731000100DE CASTRO LOUR ENG IND LTDA                                           00000000341000000000000000000000000000008782051500000023399953603026612 0     201211202012082100000000055230001111489000000001144279000000000000000000000000032790050000000000  3020121205   01          2                                                                                   3112339995360036884500400079                                                  N                     01321  0000000        000082
12047190731000100DE CASTRO LOUR ENG IND LTDA                                           00000000341000000000000000000000000000008782051600000023399954103026614 0     201209182012082100000000054600001047621000000001208301000000000000000000000000160680050000000000  3020121205   01          2                                                                                   3112339995410036884500400039                                                  N                     01321  0000000        000083
12047190731000100DE CASTRO LOUR ENG IND LTDA                                           00000000341000000000000000000000000000008782051700000023399954203026614 0     201211202012082100000000055230001047621000000001078521000000000000000000000000030900050000000000  3020121205   01          2                                                                                   3112339995428036884500400079                                                  N                     01321  0000000        000084
12047190731000100DE CASTRO LOUR ENG IND LTDA                                           00000000341000000000000000000000000000008782051800000023399955703026636 0     201211212012082200000000055240000940804000000000966704000000000000000000000000025900050000000000  3020121205   01          2                                                                                   3112339995576036884500400019                                                  N                     01321  0000000        000085
12047190731000100DE CASTRO LOUR ENG IND LTDA                                           00000000341000000000000000000000000000008782052000000023399955303026632 0     201209192012082200000000054610000952073000000001096217000000000000000000000000144144050000000000  3020121205   01          2                                                                                   3112339995535036884500400019                                                  N                     01321  0000000        000086
12047190731000100DE CASTRO LOUR ENG IND LTDA                                           00000000341000000000000000000000000000008782052100000023399955903026643 0     201209202012082300000000054620000867039000000000996619000000000000000000000000129580050000000000  3020121205   01          2                                                                                   3112339995592036884500400049                                                  N                     01321  0000000        000087
12047190731000100DE CASTRO LOUR ENG IND LTDA                                           00000000341000000000000000000000000000008782052400000023399956003026643 0     201211222012082300000000055250000867039000000000889204000000000000000000000000022165050000000000  3020121205   01          2                                                                                   3112339995600036884500400069                                                  N                     01321  0000000        000088
12047190731000100DE CASTRO LOUR ENG IND LTDA                                           00000000341000000000000000000000000000008782052500000023399955603026636 0     201209192012082200000000054610000940804000000001083254000000000000000000000000142450050000000000  3020121205   01          2                                                                                   3112339995568036884500400049                                                  N                     01321  0000000        000089
12047190731000100DE CASTRO LOUREIRO ENGENHARIA                                         0000000023703394400000000205508 000000008801224800202255000000703026784 0     201211302012083100000000055330001041759000000001050439000000000000000000000000008680050000000000  3020121205   01          2  RUA JUNO  533                                                                    300000000000000000001500  000000000000000                                     N                     00598  0000000        000090
12047190731000100DE CASTRO LOUREIRO ENGENHARIA                                         0000000023703394400000000205508 000000008801225100202255000001003026787 0     201211302012083100000000055330001135987000000001145452000000000000000000000000009465050000000000  3020121205   01          2  RUA JUNO  533                                                                    300000000000000000001500  000000000000000                                     N                     00598  0000000        000091
12047190731000100DE CASTRO LOUREIRO ENGENHARIA                                         0000000023703394400000000205508 000000008801225400202255000001303026794 0     201212032012090300000000055360001209130000000001213160000000000000000000000000004030050000000000  3020121205   01          2  RUA JUNO  533                                                                    300000000000000000001500  000000000000000                                     N                     00598  0000000        000092
12047190731000100DE CASTRO LOUREIRO ENGENHARIA                                         0000000023703394400000000205508 000000008801225500202255000001403026794 0     201211262012090300000000055290001209490000000001227634000000000000000000000000018144050000000000  3020121205   01          2  RUA JUNO  533                                                                    3                         000000000000000                                     N                     00598  0000000        000093
12047190731000100DE CASTRO LOUREIRO ENGENHARIA                                         0000000023703394400000000205508 000000008801225700202255000001603026795 0     201212032012090300000000055360001207555000000001211581000000000000000000000000004026050000000000  3020121205   01          2  RUA JUNO  533                                                                    300000000000000000001500  000000000000000                                     N                     00598  0000000        000094
12051180370000199IGUAFER FERRO E ACO LTDA                                              0000000034100000000000000000000000000000852309100000002239389789443 B         201209022012071800000000054440000168275000000000194595000000000000000000000000026320050000000000  3020121205   01          2                                                                                   3112239389789077149484600089                                                  N                     01321  0000000        000095
12051180370000199IGUAFER FERRO E ACO LTDA                                              0000000034100000000000000000000000000000852309110000002239389799443 C         201209122012071800000000054540000168275000000000191795000000000000000000000000023520050000000000  3020121205   01          2                                                                                   3112239389797077149484600089                                                  N                     01321  0000000        000096
12053585766000141MULTIACOS I C PRODS TEC LTDA                                          0000000042200000000000000000000000000000890456930000000000000000004724403     201211302012092500000000055330000522661000000000527015000000000000000000000000004354050000000000  3020121205   01          2                                                                                   3711500005033164925775118129                                                  N                     01321  0000000        000097
12053585766000141MULTIACOS I C PRODS TEC LTDA                                          0000000042200000000000000000000000000000890456960000000000000000004724103     201212042012092500000000055370000127900000000000128112000000000000000000000000000212050000000000  3020121205   01          2                                                                                   3711500005033164925775142129                                                  N                     01321  0000000        000098
12053585766000141MULTIACOS I C PRODS TEC LTDA                                          0000000042200000000000000000000000000000890457000000000000000000004724303     201211302012092500000000055330000268274000000000270508000000000000000000000000002234050000000000  3020121205   01          2                                                                                   3711500005033164925775177139                                                  N                     01321  0000000        000099
12053585766000141MULTIACOS I C PRODS TEC LTDA                                          0000000042200000000000000000000000000000895189350000000000000000004737203     201212042012100200000000055370000362578000000000363181000000000000000000000000000603050000000000  3020121205   01          2                                                                                   3711500005033164927761793149                                                  N                     01321  0000000        000100
12053585766000141MULTIACOS I C PRODS TEC LTDA                                          0000000042200000000000000000000000000000895189370000000000000000004699303     201211282012100200000000055310000863284000000000873356000000000000000000000000010072050000000000  3020121205   01          2                                                                                   3711500005033164927761807189                                                  N                     01321  0000000        000101
12053585766000141MULTIACOS I C PRODS TEC LTDA                                          0000000042200000000000000000000000000000895189570000000000000000004699203     201211292012100200000000055320000519251000000000524440000000000000000000000000005189050000000000  3020121205   01          2                                                                                   3711500005033164927762072129                                                  N                     01321  0000000        000102
12054382510000108SETENTA IND E COM DE MADEIRAS                                         0000000034100000000000000000000000000000860403430000002277814474462 A         201209042012080700000000054460000191200000000000225792000000000000000000000000034592050000000000  3020121205   01          2                                                                                   3112277814474057049175300069                                                  N                     01321  0000000        000103
12056428188000128EDVALDO SANTOS ROSA ME                                                0000000023700898200000000005622 0000000088191342009011225700668194919608      201211282012091300000000055310000089850000000000093740000000000000000000000000003890050000000000  3020121205   01          2  RUA TAMAINDE  1410                                                               3                         000000000000000                                     N                     00598  0000000        000104
12056993512000150CYKLOP DO BRASIL EMBALAGENS SA                                        0000000034100000000000000000000000000000874070500000002362586810134932        201210012012090300000000054730000083607000000000103562000000000000000000000000019955050000000000  3020121205   01          2                                                                                   3112362586813025700015800019                                                  N                     01321  0000000        000105
12057158057000130COMERCIAL ELETRICA PJ LTDA                                            0000000023703394400000000972983 00000000918338880090231700001980000340677     201212032012110500000000055360000029094000000000029286000000000000000000000000000192050000000000  3020121205   01          2  R TAMAINDE 1410                                                                  3                         000000000000000                                     N                     00598  0000000        000106
12058805466000144PEFIL COMERCIAL LTDA                                                  0000000023700086800000000014001 000000009114101200901323050356523350 01       201211192012103100000000055220000036000000000000036180000000000000000000000000000240050000000000  3020121122   06          3  R GANGES  528                                                                    3                         000000000000000                                     N                     00598  0000000        000107
12059659615000177DZ COMERCIO R E SERVICOS LTDA                                         000000003410000000000000000000000000000091358507000000900000321280            201211172012102400000000055200000060000000000000062160000000000000000000000000002160050000000000  3020121205   01          2                                                                                   3109000003217000314585100039                                                  N                     01321  0000000        000108
12061070454000123SOL IMPORTACAO EXPORTACAO INDU                                        0000000000100000000000000000000000000000919321850000005535800007146           201212042012111200000000055370000054000000000000054091000000000000000000000000000091050000000000  3020121205   01          2                                                                                   3044225535801196000055601119                                                  N                     01321  0000000        000109
12062510367000102ITANHAEM TRANSP DE MAQUINAS LT                                        000000003410000000000000000000000000000087407049000000236463199667            201209202012090400000000054620000248220000000000323688000000000000000000000000075468050000000000  3020121205   01          2                                                                                   3112364631997005770252400049                                                  N                     01321  0000000        000110
12062539994000176LEALFER INDUSTRIA E COMERCIO D                                        0000000003300000000000000000000000000000919321940000006400000000005787001     201212042012110500000000055370000596925000000000597939000000000000000000000000001014050000000000  3020121205   01          2                                                                                   3915298380000000288764010419                                                  N                     01321  0000000        000111
12062539994000176LEALFER INDUSTRIA E COMERCIO D                                        0000000003300000000000000000000000000000919321950000008000000000005786801     201212042012110500000000055370000838712000000000840137000000000000000000000000001425050000000000  3020121205   01          2                                                                                   3915298380000000288780010459                                                  N                     01321  0000000        000112
12062539994000176LEALFER INDUSTRIA E COMERCIO D                                        0000000003300000000000000000000000000000884432790000007100000000005479103     201212042012091100000000055370001068982000000001070799000000000000000000000000001817050000000000  3020121205   01          2                                                                                   3915298380000000266671010419                                                  N                     01321  0000000        000113
12062539994000176LEALFER INDUSTRIA E COMERCIO D                                        0000000003300000000000000000000000000000902449830000001800000000005648902     201212042012100900000000055370000447825000000000448586000000000000000000000000000761050000000000  3020121205   01          2                                                                                   3915298380000000278718010419                                                  N                     01321  0000000        000114
12062539994000176LEALFER INDUSTRIA E COMERCIO D                                        0000000003300000000000000000000000000000910265830000008000000000005732501     201211222012102400000000055250000828588000000000835630000000000000000000000000008450050000000000  3020121127   05          3                                                                                   3915298380000000281980010469                                                  N                     01321  0000000        000115
12062539994000176LEALFER INDUSTRIA E COMERCIO D                                        0000000003300000000000000000000000000000872953050000004700000000005424703     201211222012083000000000055250000656670000000000662251000000000000000000000000006697050000000000  3020121127   05          3                                                                                   3915298380000000259047010469                                                  N                     01321  0000000        000116
12062539994000176LEALFER INDUSTRIA E COMERCIO D                                        0000000003300000000000000000000000000000893373940000008300000000005580302     201211222012092700000000055250000451213000000000455048000000000000000000000000004602050000000000  3020121127   05          3                                                                                   3915298380000000272183010429                                                  N                     01321  0000000        000117
12062539994000176LEALFER INDUSTRIA E COMERCIO D                                        0000000003300000000000000000000000000000893373970000009100000000005576002     201211222012092600000000055250000243236000000000245307000000000000000000000000002485050000000000  3020121127   05          3                                                                                   3915298380000000272191010419                                                  N                     01321  0000000        000118
12062539994000176LEALFER INDUSTRIA E COMERCIO D                                        0000000003300000000000000000000000000000893374000000001300000000005575002     201211222012092600000000055250000300979000000000303537000000000000000000000000003069050000000000  3020121127   05          3                                                                                   3915298380000000272213010449                                                  N                     01321  0000000        000119
12063917975000107FOTONS COMERCIAL ELETRICA LTDA                                        0000000000100000000000000000000000000000920384640000009559370007678 A         201211232012111300000000055260000021600000000000022856000000000000000000000000001270050000000000  3020121127   05          3                                                                                   3000000153770711239559371719                                                  N                     01321  0000000        000120
12064952757000168WALMAC COM DE PROD QUIMICOS LT                                        0000000034100000000000000000000000000000896979510000002462157570021611        201211292012100400000000055320000219267000000000221853000000000000000000000000002586050000000000  3020121205   01          2                                                                                   3112462157572064807961400059                                                  N                     01321  0000000        000121
12064952757000168WALMAC COM DE PROD QUIMICOS LT                                        0000000034100000000000000000000000000000860403450000002275821700020148        201210052012080300000000054770000219267000000000245558000000000000000000000000026291050000000000  3020121205   01          2                                                                                   3112275821703064807961400029                                                  N                     01321  0000000        000122
12066841552000130R V SEG PATRIMONIAL LTDA                                              00000000341000000000000000000000000000008852483200000090002192721927          201209102012081000000000054520000483241000000000497087000000000000000000000000013846050000000000  3020121205   01          2                                                                                   3109000219270001835253400099                                                  N                     01321  0000000        000123
12066841552000130R V SEG PATRIMONIAL S C LTDA                                          00000000341000000000000000000000000000008887329800000090002213622136          201210102012091100000000054820000374758000000000381758000000000000000000000000007000050000000000  3020121205   01          2                                                                                   3109000221365001838994000069                                                  N                     01321  0000000        000124
12066899790000105FABRICA ARTEF LATEX ESTRELA EP                                        00000000399000000000000000000000000000008895786100000000000000079585 002      201211252012092600000000055280000161122000000000161122000000000000000000000000000000050000000000  3020121126   05          3                                                                                   3176075257301125027292500129                                                  N                     01321  0000000        000125
12068109784000124TARCOM TECN AR COMPRIMIDO LTDA                                        00000000341000000000000000000000000000009135850300000070271816900000262 A     201212022012110500000000055350000168345000000000170028000000000000000000000000001683050000000000  3020121205   01          2                                                                                   3157027181698846115840700019                                                  N                     01321  0000000        000126
12069284248000128ISOCOAT TINTAS E VERNIZES LTDA                                        0000000034100000000000000000000000000000895189840000002456588200056254        201212032012100200000000055360000317968000000000319664000000000000000000000000001696050000000000  3020121205   01          2                                                                                   3112456588204077430121200019                                                  N                     01321  0000000        000127
12069284248000128ISOCOAT TINTAS E VERNIZES LTDA                                        0000000034100000000000000000000000000000841061040000002182507930052085        201209172012070200000000054590000236130000000000285900000000000000000000000000049770050000000000  3020121205   01          2                                                                                   3112182507932077430121200019                                                  N                     01321  0000000        000128
12069284248000128ISOCOAT TINTAS E VERNIZES LTDA                                        0000000034100000000000000000000000000000888732960000002421485720055761        201211202012092100000000055230000093324000000000097059000000000000000000000000003735050000000000  3020121205   01          2                                                                                   3112421485726077430121200069                                                  N                     01321  0000000        000129
12069284248000128ISOCOAT TINTAS E VERNIZES LTDA                                        0000000034100000000000000000000000000000911410140000002506612020057027        201212032012101900000000055360000365668000000000367618000000000000000000000000001950050000000000  3020121205   01          2                                                                                   3112506612020077430121200099                                                  N                     01321  0000000        000130
12069284248000128ISOCOAT TINTAS E VERNIZES LTDA                                        0000000034100000000000000000000000000000932560300000002637409680058864        201301292012113000000000055930000262324000000000262324000000000000000000000000000000050000000000  3020130129   01FS        1                                                                                   3112637409684077430121200049                                                  N                     01321  0000000        000131
12069284248000128ISOCOAT TINTAS E VERNIZES LTDA                                        0000000034100000000000000000000000000000932560310000002637409690058864        201302132012113000000000056080000262402000000000262402000000000000000000000000000000050000000000  3020130213   01FS        1                                                                                   3112637409692077430121200089                                                  N                     01321  0000000        000132
12069284248000128ISOCOAT TINTAS E VERNIZES LTDA                                        0000000034100000000000000000000000000000932560360000002637409670058864        201301142012113000000000055780000301677000000000301677000000000000000000000000000000050000000000  3020130114   01FS        1                                                                                   3112637409676077430121200039                                                  N                     01321  0000000        000133
12096500087000135WORKBENCH CONSULTORIA S S LTDA                                        0000000034100000000000000000000000000000878205840000007940034283118           201209272012090300000000054690000131746000000000149617000000000000000000000000017871050000000000  3020121205   01          2                                                                                   3157940034289826313803700089                                                  N                     01321  0000000        000134
12096500087000135WORKBENCH CONSULTORIA S S LTDA                                        0000000034100000000000000000000000000000912467970000007023696933218           201211272012110100000000055300000131746000000000133818000000000000000000000000002072050000000000  3020121205   01          2                                                                                   3157023696939826313803700019                                                  N                     01321  0000000        000135
900013600000000060027142                                                                                                                                                                                                                                                                                                                                                                                                                                                                01321  0000000        000136
