0000147602043799295000110ALTAMIRA INDUSTRIA METALURGICA LT       202000000014120121005060628             1                                                                                                                                                                                                                                                                                                                                                                                                    000001
12000365592000145AMPRO LABORATORIO E ENGENHARIA                                        00000000001000000000000000000000000000008723186200000000520500003316A         201209292012083100000000054710000083233000000000085893000000000000000000000000002660050000000000  3020121005   01          2                                                                                   3000000133159100000052051749                                                  N                     01321  0000000        000002
12001852612000175BT EQUIPAMENTOS INDUSTRIAIS LT                                        000000000330000000000000000000000000000087577366000000610000000594061         201210012012090600000000054730000041502000000000042002000000000000000000000000000500050000000000  3020121005   01          2                                                                                   3913651000000000594061010479                                                  N                     01321  0000000        000003
12001895314000162COLETA INDUSTRIAL FIMAVAN LTDA                                        0000000034100000000000000000000000000000866992070000009002335349439           201208272012081700000000054380000123695000000000139000000000000000000000000000015305050000000000  3020121005   01          2                                                                                   3109002335346144604097200019                                                  N                     01321  0000000        000004
12001895314000162COLETA INDUSTRIAL FIMAVAN LTDA                                        00000000341000000000000000000000000000008844324600000090023445310405          201209272012091700000000054690000158141000000000164672000000000000000000000000006531050000000000  3020121005   01          2                                                                                   3109002344538144604097200029                                                  N                     01321  0000000        000005
12002460454000170AUT SERVICE COMERCIO E SERVICO                                        0000000023702591700000000007692 000000008515292000901322060028234532 2        201209172012072400000000054590000238750000000000259291000000000000000000000000020541050000000000  3020121005   01          2  RUA JUNO  533                                                                    3                         000000000000000                                     N                     00598  0000000        000006
12002469103000120COMPROCRED FOMENTO MERCANTIL L                                        0000000023703511400000000106739 0000000088012259002022550000043022145 12      201210012012090500000000054730000093000000000000094240000000000000000000000000001240050000000000  3020121005   01          2  RUA TAMAINDE 1410 VILA NOVA MANCH SAO PATRANSPORTADORA FIOROT LTDA               3                         000252984000106                                     N                     00598  0000000        000007
12002503185000182ANDAIMES MAQUINAS BIG LTDA EPP                                        0000000034100000000000000000000000000000874070480000002313590765101           201209142012082000000000054560000016500000000000017061000000000000000000000000000561050000000000  3020121005   01          2                                                                                   3112313590765650303800900019                                                  N                     01321  0000000        000008
12002503185000182ANDAIMES E MAQUINAS BIG LTDA                                          000000003410000000000000000000000000000087820531000000233954448011791         201209212012082700000000054630000026000000000000026758000000000000000000000000000758050000000000  3020121005   01          2                                                                                   3112339544481925303435000019                                                  N                     01321  0000000        000009
12002503185000182ANDAIMES MAQUINAS BIG LTDA EPP                                        000000003410000000000000000000000000000086282613000000228719913011660         201208302012081000000000054410000012000000000000012528000000000000000000000000000528050000000000  3020121005   01          2                                                                                   3112287199130650303800900039                                                  N                     01321  0000000        000010
12002558199000101OMEGA TUBOS COMERCIAL LTDA                                            0000000003300000000000000000000000000000874070730000004200000000028157B01     201210022012082800000000054740000149856000000000151354000000000000000000000000001498050000000000  3020121005   01          2                                                                                   3947509770000000098442020359                                                  N                     01321  0000000        000011
12003489596000123BEND FLEX I COMERCIO LTDA                                             000000003410000000000000000000000000000088350832000000171879874608            201209122012082100000000054540000695250000000000726691000000000000000000000000031441050000000000  3020121005   01          2                                                                                   3191718798744157734445800069                                                  N                     01321  0000000        000012
12003489596000123BEND FLEX I COMERCIO LTDA                                             000000003410000000000000000000000000000088599899000000171434574613            201209172012081600000000054590000585000000000000605718000000000000000000000000020718050000000000  3020121005   01          2                                                                                   3191714345748157734445800019                                                  N                     01321  0000000        000013
12003489596000123BEND FLEX I COMERCIO LTDA                                             000000003410000000000000000000000000000088957854000000172413968615            201209212012082300000000054630000582750000000000598794000000000000000000000000016044050000000000  3020121005   01          2                                                                                   3191724139685157734445800049                                                  N                     01321  0000000        000014
12003489596000123BEND FLEX I COMERCIO LTDA                                             000000003410000000000000000000000000000089518988000000173425770617            201210012012083000000000054730000722200000000000727880000000000000000000000000005680050000000000  3020121005   01FS        1                                                                                   3191734257709157734445800079                                                  N                     01321  0000000        000015
12004643290000142FLEXTINTAS IND E COMERCIO LTDA                                        000000003410000000000000000000000000000087119130000000234542816NFF036591A     201209252012082800000000054670000309788000000000309788000000000000000000000000000000050000000000  3020120925   06          3                                                                                   3112345428166051356781800049                                                  N                     01321  0000000        000016
12005335228000156DINAMICA INF E TELECOM LTDA EP                                        0000000023703257300000000503215 0000000088443245009032570017396MO008960A      201209302012091700000000054720000020000000000000020335000000000000000000000000000335050000000000  3020121005   01          2  RUA JUNO  533                                                                    3                         000000000000000                                     N                     00598  0000000        000017
12005753978000148HUMAN SERVICOS P C MOVEL LTDA                                         0000000034100000000000000000000000000000895189850000009001035390000103539     201210202012100100000000054920000013000000000000013000000000000000000000000000000000050000000000  3020121022   01FS        1                                                                                   3109001035391057948896600049                                                  N                     01321  0000000        000018
12005852768000107DAOUD LEAL ELETRONICA LTDA ME                                         00000000033000000000000000000000000000008757736700000021000000000000000001097 201209262012090500000000054680000016558000000000017384000000000000000000000000000826050000000000  3020121005   01          2                                                                                   3949927090000000027421010429                                                  N                     01321  0000000        000019
12005880850000145NEDERMAN BRASIL COM PROD EX LT                                        000000003410000000000000000000000000000086373178000000614350956002763 A       201209252012081400000000054670000289674000000000295374000000000000000000000000005700050000000000  3020121005   01          2                                                                                   3156143509568160829000100049                                                  N                     01321  0000000        000020
12006000195000156MBA MERCL BRASILEIRA ACO LTDA                                         0000000042200000000000000000000000000000859590590000000000000000009051B02     201209262012080300000000054680000180457000000000183165000000000000000000000000002708050000000000  3020121005   01          2                                                                                   3701600007451936910173842159                                                  N                     01321  0000000        000021
12006000195000156MBA MERCANTIL BRAS DE ACO LTDA                                        0000000034100000000000000000000000000000886866570000001667238410008874B02     201209132012071600000000054550000802826000000000837564000000000000000000000000034738050000000000  3020121005   01          2                                                                                   3191667238411064849251000049                                                  N                     01321  0000000        000022
12006000195000156MBA MERCANTIL BRAS DE ACO LTDA                                        0000000034100000000000000000000000000000887698080000001667238400008876B02     201209142012071600000000054560000810321000000000843795000000000000000000000000033474050000000000  3020121005   01          2                                                                                   3191667238403064849251000059                                                  N                     01321  0000000        000023
12006000195000156MBA MERCANTIL BRAS DE ACO LTDA                                        0000000034100000000000000000000000000000887698090000001671394550008925B02     201209142012071700000000054560000719581000000000749296000000000000000000000000029715050000000000  3020121005   01          2                                                                                   3191671394556064849251000089                                                  N                     01321  0000000        000024
12006000195000156MBA MERCANTIL BRAS DE ACO LTDA                                        0000000034100000000000000000000000000000887698100000001671394560008926B02     201209142012071700000000054560000387716000000000403739000000000000000000000000016023050000000000  3020121005   01          2                                                                                   3191671394564064849251000019                                                  N                     01321  0000000        000025
12006000195000156MBA MERCANTIL BRAS DE ACO LTDA                                        0000000034100000000000000000000000000000889578520000001671394540008920B02     201209162012071700000000054580000576585000000000598131000000000000000000000000021546050000000000  3020121005   01          2                                                                                   3191671394549064849251000099                                                  N                     01321  0000000        000026
12006000195000156MBA MERCANTIL BRAS DE ACO LTDA                                        0000000034100000000000000000000000000000885998980000001667238420008870B02     201209112012071600000000054530000839952000000000879600000000000000000000000000039648050000000000  3020121005   01          2                                                                                   3191667238429064849251000039                                                  N                     01321  0000000        000027
12006000195000156M B A MERCANTIL BRASILEIRA DE                                         0000000023700118P00000002128292 00000000895189920090219200000120008786B03     201209272012070500000000054690000301974000000000301974000000000000000000000000000000050000000000  3020121005   01FS        1  RUA JUNO  533                                                                    3                         000000000000000                                     N                     00598  0000000        000028
12006000195000156M B A MERCANTIL BRASILEIRA DE                                         0000000023700118P00000002128292 00000000895189930090221600000360009067B02     201209272012080200000000054690000830191000000000830191000000000000000000000000000000050000000000  3020121005   01FS        1  RUA JUNO  533                                                                    3                         000000000000000                                     N                     00598  0000000        000029
12006000195000156M B A MERCANTIL BRASILEIRA DE                                         0000000023700118P00000002130599 00000000853155020020220900000520008971B02     201209182012072400000000054600000170466000000000172170000000000000000000000000001988050000000000  3020120924   06          3  RUA JUNO  533                                                                    3                         000000000000000                                     N                     00598  0000000        000030
12006000195000156M B A MERCANTIL BRASILEIRA DE                                         0000000023700118P00000002130599 00000000853155050020220900000650008985B02     201209192012072500000000054610000141845000000000143025000000000000000000000000001416050000000000  3020120924   06          3  RUA JUNO  533                                                                    3                         000000000000000                                     N                     00598  0000000        000031
12006000195000156M B A MERCANTIL BRASILEIRA DE                                         0000000023700118P00000002130599 00000000853155080020220900000680008986B02     201209192012072500000000054610000126717000000000127772000000000000000000000000001266050000000000  3020120924   06          3  RUA JUNO  533                                                                    3                         000000000000000                                     N                     00598  0000000        000032
12007175725000160WEG EQUIPAMENTOS ELETRICOS SA                                         0000000023702727800000000196800 00000000832180610090217400004980095359902     201209202012052300000000054620000272787000000000278232000000000000000000000000005445050000000000  3020121005   01          2  R JUNO  533                                                                      3                         000000000000000                                     N                     00598  0000000        000033
12007289649000113CRC LASER SUPR INF LTDA EPP                                           000000003410000000000000000000000000000089518989000000798566603000001157      201210022012100400000000054740000029940000000000030716000000000000000000000000000776050000000000  3020121005   01FS        1                                                                                   3157985666037000265431700029                                                  N                     01321  0000000        000034
12008508119000181DINARI FOMENTO MERCANTIL LTDA                                         000000004220000000000000000000000000000087820582000000000000000235            201209282012083000000000054700000220000000000000224620000000000000000000000000004620050000000000  3020121005   01          2                                                                                   3702000009323370918215242159                                                  N                     01321  0000000        000035
12008508119000181DINARI FOMENTO MERCANTIL LTDA                                         0000000023702499600000000178306 0000000086282617002022260000005206 A          201209162012081000000000054580000170000000000000179180000000000000000000000000009690050000000000  3020120924   06          3  RUA JUNO  533 VL N MANCHESTER SAO PAULO PANKRO LOGISTICA E TRANSPORTES LTDA EPP  300000000000000000141500  002269980000158                                     N                     00598  0000000        000036
12009419898000101LUSITANO INDUSTRIA C E P LTDA                                         00000000341000000000000000000000000000008653882000000090000757101 10137 2     201209192012081500000000054610000035135000000000037007000000000000000000000000001872050000000000  3020121005   01          2                                                                                   3109000075716001160072300049                                                  N                     01321  0000000        000037
12011318709000156IMPAKTO TRANSPORTES                                                   0000000000100000000000000000000000000000895189300000000001510006741           201210232012100300000000054950000200000000000000200000000000000000000000000000000000050000000000  3020121023   01FS        1                                                                                   3000000245286000000001511719                                                  N                     01321  0000000        000038
12012006058000121WEG TINTAS LTDA                                                       0000000023702727800000000001309 00000000854049540090221200001000015513001     201209102012072700000000054520000459854000000000475179000000000000000000000000015325050000000000  3020121005   01          2  R JUNO  533                                                                      3                         000000000000000                                     N                     00598  0000000        000039
12012006058000121WEG TINTAS LTDA                                                       0000000023702727800000000001309 00000000854049550090221200001010015513002     201209252012072700000000054670000459854000000000465984000000000000000000000000006130050000000000  3020121005   01          2  R JUNO  533                                                                      3                         000000000000000                                     N                     00598  0000000        000040
12012006058000121WEG TINTAS LTDA                                                       0000000023702727800000000001309 00000000841061130090218800000850014990203     201209182012070500000000054600000306662000000000313598000000000000000000000000006936050000000000  3020121005   01          2  R JUNO  533                                                                      3                         000000000000000                                     N                     00598  0000000        000041
12012006058000121WEG TINTAS LTDA                                                       0000000023702727800000000001309 00000000842436840090219200000860015068803     201209222012070900000000054640000306662000000000311966000000000000000000000000005304050000000000  3020121005   01          2  R JUNO  533                                                                      3                         000000000000000                                     N                     00598  0000000        000042
12012006058000121WEG TINTAS LTDA                                                       0000000023702727800000000001309 00000000856071250090221400000820015587301     201209142012073100000000054560000459854000000000472727000000000000000000000000012873050000000000  3020121005   01          2  R JUNO  533                                                                      3                         000000000000000                                     N                     00598  0000000        000043
12012006058000121WEG TINTAS LTDA                                                       0000000023702727800000000001309 00000000856071260090221400000830015587302     201209292012073100000000054710000459854000000000463532000000000000000000000000003678050000000000  3020121005   01          2  R JUNO  533                                                                      3                         000000000000000                                     N                     00598  0000000        000044
12012006058000121WEG TINTAS LTDA                                                       0000000023702727800000000001309 00000000861207260090222200000900015775001     201209222012080800000000054640000306569000000000311873000000000000000000000000005304050000000000  3020121005   01          2  R JUNO  533                                                                      3                         000000000000000                                     N                     00598  0000000        000045
12012006058000121WEG TINTAS LTDA                                                       0000000023702727800000000001309 00000000864554440090222800000730015908401     201209282012081400000000054700000306569000000000309425000000000000000000000000002856050000000000  3020121005   01          2  R JUNO  533                                                                      3                         000000000000000                                     N                     00598  0000000        000046
12012006058000121WEG TINTAS LTDA                                                       0000000023702727800000000001309 00000000844839230090219500000720015168702     201209102012071200000000054520000306569000000000316769000000000000000000000000010200050000000000  3020121005   01          2  R JUNO  533                                                                      3                         000000000000000                                     N                     00598  0000000        000047
12012006058000121WEG TINTAS LTDA                                                       0000000023702727800000000001309 00000000844839240090219500000730015168703     201209252012071200000000054670000306662000000000310742000000000000000000000000004080050000000000  3020121005   01          2  R JUNO  533                                                                      3                         000000000000000                                     N                     00598  0000000        000048
12012006058000121WEG TINTAS LTDA                                                       0000000023702727800000000001309 00000000847452150090220000000920015248102     201209152012071700000000054570000306569000000000314729000000000000000000000000008160050000000000  3020121005   01          2  R JUNO  533                                                                      3                         000000000000000                                     N                     00598  0000000        000049
12012006058000121WEG TINTAS LTDA                                                       0000000023702727800000000001309 00000000847452160090220000000930015248103     201209302012071700000000054720000306662000000000308702000000000000000000000000002040050000000000  3020121005   01          2  R JUNO  533                                                                      3                         000000000000000                                     N                     00598  0000000        000050
12012006058000121WEG TINTAS LTDA                                                       0000000023702727800000000001309 00000000849855330090220500001210015343102     201209182012072000000000054600000306569000000000313505000000000000000000000000006936050000000000  3020121005   01          2  R JUNO  533                                                                      3                         000000000000000                                     N                     00598  0000000        000051
12012006058000121WEG TINTAS LTDA                                                       0000000023702727800000000001309 00000000849855340090220500001220015343103     201210032012072000000000054750000306662000000000307478000000000000000000000000000816050000000000  3020121005   01          2  R JUNO  533                                                                      3                         000000000000000                                     N                     00598  0000000        000052
12014309992000148WEG DRIVES   CONTROLS   AUTOMA                                        0000000023702727800000000001872 00000000828904050090217000002200005763302     201209152012051800000000054570000272992000000000280252000000000000000000000000007260050000000000  3020121005   01          2  R JUNO  533                                                                      3                         000000000000000                                     N                     00598  0000000        000053
12014775592000128HELIO ADRIANO DA SILVA ME                                             0000000003300000000000000000000000000000880122770000004900000008565 8566      201209282012091000000000054700000034500000000000035350000000000000000000000000000850050000000000  3020121005   01          2                                                                                   3956114740000000000049010129                                                  N                     01321  0000000        000054
12033325184001786ALSCO TOALHEIRO BRASIL                                                0000000023703396000000001490850 0000000087820607009000002716505VM27165        201209262012090600000000054680000045665000000000046079000000000000000000000000000414050000000000  3020121005   01          2  RUA  GANGES 528                                                                  3                         000000000000000                                     N                     00598  0000000        000055
12035820448000136WHITE MARTINS GASES INDUSTRIAI                                        0000000023700026400000003937925 0000000087168275009022440000143375351 001     201209272012083100000000054690000040575000000000041818000000000000000000000000001243050000000000  3020121005   01          2  RUA GANGES  528                                                                  3                         000000000000000                                     N                     00598  0000000        000056
12035820448000136WHITE MARTINS GASES INDUSTRIAI                                        0000000023700026400000003937925 0000000086538817009022290001168366855 001     201209112012081600000000054530000121725000000000128047000000000000000000000000006322050000000000  3020121005   01          2  RUA GANGES  528                                                                  3                         000000000000000                                     N                     00598  0000000        000057
12035820448000136WHITE MARTINS GASES INDUSTRIAI                                        0000000023700026400000003937925 0000000086699210009022330000393368126 001     201209142012081800000000054560000162300000000000170082000000000000000000000000007782050000000000  3020121005   01          2  RUA GANGES  528                                                                  3                         000000000000000                                     N                     00598  0000000        000058
12035820448000136WHITE MARTINS GASES INDUSTRIAI                                        0000000023700026400000003937925 0000000086812633009022350001453369229 001     201209182012082200000000054600000056805000000000059233000000000000000000000000002428050000000000  3020121005   01          2  RUA GANGES  528                                                                  3                         000000000000000                                     N                     00598  0000000        000059
12035820448000136WHITE MARTINS GASES INDUSTRIAI                                        0000000023700026400000003937925 0000000086907101009022370010705372273 001     201209202012082400000000054620000017600000000000018297000000000000000000000000000697050000000000  3020121005   01          2  RUA GANGES  528                                                                  3                         000000000000000                                     N                     00598  0000000        000060
12035820448000136WHITE MARTINS GASES INDUSTRIAI                                        0000000023700026400000003937925 0000000086907102009022370011747372774 001     201209202012082400000000054620000040575000000000042196000000000000000000000000001621050000000000  3020121005   01          2  RUA GANGES  528                                                                  3                         000000000000000                                     N                     00598  0000000        000061
12035820448000136WHITE MARTINS GASES INDUSTRIAI                                        0000000023700026400000003937925 0000000087067052009022420002594374120 001     201209252012082900000000054670000113610000000000117392000000000000000000000000003782050000000000  3020121005   01          2  RUA GANGES  528                                                                  3                         000000000000000                                     N                     00598  0000000        000062
12035820448000136WHITE MARTINS GASES INDUSTRIAI                                        0000000023700026400000003937925 0000000087577331009022500001416377141 001     201210022012090600000000054740000040575000000000041428000000000000000000000000000853050000000000  3020121005   01          2  RUA GANGES  528                                                                  3                         000000000000000                                     N                     00598  0000000        000063
12035820448000136WHITE MARTINS GASES INDUSTRIAI                                        0000000023700026400000003937925 0000000087820600009022540001838377866 001     201210042012090700000000054760000202876000000000207001000000000000000000000000004125050000000000  3020121005   01          2  RUA GANGES  528                                                                  3                         000000000000000                                     N                     00598  0000000        000064
12042956441000101SOLUCOES EM ACO USIMINAS S A                                          000000000010000000000000000000000000000083562085000000087494000000167113003   201209182012062700000000054600000698474000000000711047000000000000000000000000013970050000000000  3020120927   05          3                                                                                   3000000169660100000874941719                                                  N                     01321  0000000        000065
12042956441000101SOLUCOES EM ACO USIMINAS S A                                          000000000010000000000000000000000000000083562088000000087497000000167114003   201209182012062700000000054600000703009000000000715663000000000000000000000000014060050000000000  3020120927   05          3                                                                                   3000000169660100000874971789                                                  N                     01321  0000000        000066
12042956441000101SOLUCOES EM ACO USIMINAS S A                                          000000000010000000000000000000000000000083562091000000087500000000167115003   201209182012062700000000054600000240663000000000244992000000000000000000000000004810050000000000  3020120927   05          3                                                                                   3000000169660100000875001739                                                  N                     01321  0000000        000067
12042956441000101SOLUCOES ACO USIMINAS                                                 0000000034100000000000000000000000000000853154840000002246247030017196702     201209202012072500000000054620000234841000000000241891000000000000000000000000007050050000000000  3020121005   01          2                                                                                   3112246247038293807258000099                                                  N                     01321  0000000        000068
12042956441000101SOLUCOES ACO USIMINAS                                                 0000000034100000000000000000000000000000853154850000002246247040017197302     201209202012072500000000054620000970103000000000999203000000000000000000000000029100050000000000  3020121005   01          2                                                                                   3112246247046293807258000019                                                  N                     01321  0000000        000069
12042956441000101SOLUCOES ACO USIMINAS                                                 0000000034100000000000000000000000000000855028670000002254329360017200402     201209202012072600000000054620000163224000000000168114000000000000000000000000004890050000000000  3020121005   01          2                                                                                   3112254329363293807258000069                                                  N                     01321  0000000        000070
12042956441000101SOLUCOES ACO USIMINAS                                                 0000000034100000000000000000000000000000841725540000002188168620016859403     201209262012070400000000054680000164455000000000167416000000000000000000000000002961050000000000  3020121005   01          2                                                                                   3112188168622293807258000019                                                  N                     01321  0000000        000071
12042956441000101SOLUCOES ACO USIMINAS                                                 0000000034100000000000000000000000000000841725550000002188168630016859503     201209262012070400000000054680000234336000000000238557000000000000000000000000004221050000000000  3020121005   01          2                                                                                   3112188168630293807258000089                                                  N                     01321  0000000        000072
12042956441000101SOLUCOES ACO USIMINAS                                                 0000000034100000000000000000000000000000841725560000002188168640016884803     201209272012070500000000054690000120612000000000122540000000000000000000000000001928050000000000  3020121005   01          2                                                                                   3112188168648293807258000059                                                  N                     01321  0000000        000073
12042956441000101SOLUCOES ACO USIMINAS                                                 0000000034100000000000000000000000000000841725570000002188168690016891503     201209272012070500000000054690001128343000000001146399000000000000000000000000018056050000000000  3020121005   01          2                                                                                   3112188168697293807258000039                                                  N                     01321  0000000        000074
12042956441000101SOLUCOES ACO USIMINAS                                                 0000000034100000000000000000000000000000841725580000002188168650016884903     201209272012070500000000054690000531835000000000540347000000000000000000000000008512050000000000  3020121005   01          2                                                                                   3112188168655293807258000019                                                  N                     01321  0000000        000075
12042956441000101SOLUCOES ACO USIMINAS                                                 0000000034100000000000000000000000000000841725590000002188168660016885103     201209272012070500000000054690000219722000000000223234000000000000000000000000003512050000000000  3020121005   01          2                                                                                   3112188168663293807258000049                                                  N                     01321  0000000        000076
12042956441000101SOLUCOES ACO USIMINAS                                                 0000000034100000000000000000000000000000841725600000002188168670016891203     201209272012070500000000054690001132542000000001150662000000000000000000000000018120050000000000  3020121005   01          2                                                                                   3112188168671293807258000069                                                  N                     01321  0000000        000077
12042956441000101SOLUCOES ACO USIMINAS                                                 0000000034100000000000000000000000000000841725610000002188168680016891403     201209272012070500000000054690000795233000000000807953000000000000000000000000012720050000000000  3020121005   01          2                                                                                   3112188168689293807258000029                                                  N                     01321  0000000        000078
12042956441000101SOLUCOES ACO USIMINAS                                                 0000000034100000000000000000000000000000843180440000002194744360016902903     201209282012070600000000054700000179794000000000182314000000000000000000000000002520050000000000  3020121005   01          2                                                                                   3112194744366293807258000079                                                  N                     01321  0000000        000079
12042956441000101SOLUCOES ACO USIMINAS                                                 0000000034100000000000000000000000000000844063840000002198870040016923303     201210022012071000000000054740000442971000000000445629000000000000000000000000002658050000000000  3020121005   01          2                                                                                   3112198870043293807258000069                                                  N                     01321  0000000        000080
12042956441000101SOLUCOES ACO USIMINAS                                                 0000000034100000000000000000000000000000836417910000002164218370016738103     201209192012062700000000054610000830173000000000856733000000000000000000000000026560050000000000  3020121005   01          2                                                                                   3112164218375293807258000039                                                  N                     01321  0000000        000081
12042956441000101SOLUCOES ACO USIMINAS                                                 0000000034100000000000000000000000000000840313040000002181699250016829703     201209242012070200000000054660000643711000000000657868000000000000000000000000014157050000000000  3020121005   01          2                                                                                   3112181699250293807258000019                                                  N                     01321  0000000        000082
12042956441000101SOLUCOES ACO USIMINAS                                                 0000000034100000000000000000000000000000840313050000002181699260016829803     201209242012070200000000054660000322527000000000329622000000000000000000000000007095050000000000  3020121005   01          2                                                                                   3112181699268293807258000029                                                  N                     01321  0000000        000083
12042956441000101SOLUCOES ACO USIMINAS                                                 0000000034100000000000000000000000000000847452100000002216130340017012402     201209102012071500000000054520000147428000000000154803000000000000000000000000007375050000000000  3020121005   01          2                                                                                   3112216130347293807258000059                                                  N                     01321  0000000        000084
12042956441000101SOLUCOES ACO USIMINAS                                                 0000000034100000000000000000000000000000846595700000002210880280016980502     201209102012071200000000054520000156071000000000163871000000000000000000000000007800050000000000  3020121005   01          2                                                                                   3112210880285293807258000039                                                  N                     01321  0000000        000085
12042956441000101SOLUCOES ACO USIMINAS                                                 0000000034100000000000000000000000000000855028690000002254329380017212902     201209212012072600000000054630000140098000000000144018000000000000000000000000003920050000000000  3020121005   01          2                                                                                   3112254329389293807258000019                                                  N                     01321  0000000        000086
12042956441000101SOLUCOES ACO USIMINAS                                                 0000000034100000000000000000000000000000855028700000002254329390017213002     201209212012072600000000054630000140602000000000144536000000000000000000000000003934050000000000  3020121005   01          2                                                                                   3112254329397293807258000089                                                  N                     01321  0000000        000087
12042956441000101SOLUCOES ACO USIMINAS                                                 0000000034100000000000000000000000000000855028720000002254329340017200202     201209202012072600000000054620000680385000000000700800000000000000000000000000020415050000000000  3020121005   01          2                                                                                   3112254329348293807258000079                                                  N                     01321  0000000        000088
12042956441000101SOLUCOES ACO USIMINAS                                                 0000000034100000000000000000000000000000855028730000002254329350017200302     201209202012072600000000054620000156896000000000161606000000000000000000000000004710050000000000  3020121005   01          2                                                                                   3112254329355293807258000029                                                  N                     01321  0000000        000089
12042956441000101SOLUCOES ACO USIMINAS                                                 0000000034100000000000000000000000000000855028770000002254329400017220502     201209212012072700000000054630000981022000000001008490000000000000000000000000027468050000000000  3020121005   01          2                                                                                   3112254329405293807258000099                                                  N                     01321  0000000        000090
12042956441000101SOLUCOES ACO USIMINAS                                                 0000000034100000000000000000000000000000856906410000002262886280017266201     201208282012073000000000054390000119472000000000128554000000000000000000000000009082050000000000  3020121005   01          2                                                                                   3112262886289293807258000089                                                  N                     01321  0000000        000091
12042956441000101SOLUCOES ACO USIMINAS                                                 0000000034100000000000000000000000000000856906420000002262886290017266301     201208282012073000000000054390000145069000000000156089000000000000000000000000011020050000000000  3020121005   01          2                                                                                   3112262886297293807258000099                                                  N                     01321  0000000        000092
12042956441000101SOLUCOES ACO USIMINAS                                                 0000000034100000000000000000000000000000856906430000002262886300017266202     201209252012073000000000054670000119436000000000121826000000000000000000000000002390050000000000  3020121005   01          2                                                                                   3112262886305293807258000019                                                  N                     01321  0000000        000093
12042956441000101SOLUCOES ACO USIMINAS                                                 0000000034100000000000000000000000000000856906440000002262886310017266302     201209252012073000000000054670000145025000000000147925000000000000000000000000002900050000000000  3020121005   01          2                                                                                   3112262886313293807258000029                                                  N                     01321  0000000        000094
12042956441000101SOLUCOES ACO USIMINAS                                                 0000000034100000000000000000000000000000858616390000002271409750017315102     201209272012080200000000054690000579374000000000588646000000000000000000000000009272050000000000  3020121005   01          2                                                                                   3112271409750293807258000019                                                  N                     01321  0000000        000095
12042956441000101SOLUCOES ACO USIMINAS                                                 0000000034100000000000000000000000000000858616400000002271409760017316002     201209272012080200000000054690000929451000000000944323000000000000000000000000014872050000000000  3020121005   01          2                                                                                   3112271409768293807258000079                                                  N                     01321  0000000        000096
12042956441000101SOLUCOES ACO USIMINAS                                                 0000000034100000000000000000000000000000858616410000002271409770017319302     201209272012080200000000054690000981526000000000997230000000000000000000000000015704050000000000  3020121005   01          2                                                                                   3112271409776293807258000019                                                  N                     01321  0000000        000097
12042956441000101SOLUCOES ACO USIMINAS                                                 0000000034100000000000000000000000000000858616420000002271409780017319402     201209272012080200000000054690000178902000000000181766000000000000000000000000002864050000000000  3020121005   01          2                                                                                   3112271409784293807258000029                                                  N                     01321  0000000        000098
12042956441000101SOLUCOES ACO USIMINAS                                                 0000000034100000000000000000000000000000858616430000002271409790017319502     201209272012080200000000054690000197380000000000200540000000000000000000000000003160050000000000  3020121005   01          2                                                                                   3112271409792293807258000049                                                  N                     01321  0000000        000099
12042956441000101SOLUCOES ACO USIMINAS                                                 0000000034100000000000000000000000000000858616440000002271409800017319602     201209272012080200000000054690000197044000000000200196000000000000000000000000003152050000000000  3020121005   01          2                                                                                   3112271409800293807258000019                                                  N                     01321  0000000        000100
12042956441000101SOLUCOES ACO USIMINAS                                                 0000000034100000000000000000000000000000858616450000002271409810017319702     201209272012080200000000054690000197212000000000200364000000000000000000000000003152050000000000  3020121005   01          2                                                                                   3112271409818293807258000019                                                  N                     01321  0000000        000101
12042956441000101SOLUCOES ACO USIMINAS                                                 0000000034100000000000000000000000000000858616460000002271409820017319802     201209272012080200000000054690000194525000000000197637000000000000000000000000003112050000000000  3020121005   01          2                                                                                   3112271409826293807258000079                                                  N                     01321  0000000        000102
12042956441000101SOLUCOES ACO USIMINAS                                                 0000000034100000000000000000000000000000861207230000002282166990017385802     201210022012080700000000054740000714796000000000719086000000000000000000000000004290050000000000  3020121005   01          2                                                                                   3112282166993293807258000049                                                  N                     01321  0000000        000103
12042956441000101SOLUCOES ACO USIMINAS                                                 0000000034100000000000000000000000000000846595710000002210880290016980602     201209102012071200000000054520000426094000000000447394000000000000000000000000021300050000000000  3020121005   01          2                                                                                   3112210880293293807258000019                                                  N                     01321  0000000        000104
12042956441000101SOLUCOES ACO USIMINAS                                                 0000000034100000000000000000000000000000848180700000002220192900017041002     201209112012071700000000054530000155433000000000162897000000000000000000000000007464050000000000  3020121005   01          2                                                                                   3112220192903293807258000029                                                  N                     01321  0000000        000105
12042956441000101SOLUCOES ACO USIMINAS                                                 0000000034100000000000000000000000000000848180710000002220192910017041202     201209112012071700000000054530000205421000000000215285000000000000000000000000009864050000000000  3020121005   01          2                                                                                   3112220192911293807258000019                                                  N                     01321  0000000        000106
12042956441000101SOLUCOES ACO USIMINAS                                                 0000000034100000000000000000000000000000850740460000002233586800017127201     201208202012072000000000054310000137881000000000150577000000000000000000000000012696050000000000  3020121005   01          2                                                                                   3112233586802293807258000019                                                  N                     01321  0000000        000107
12042956441000101SOLUCOES ACO USIMINAS                                                 0000000034100000000000000000000000000000850740470000002233586810017101002     201209142012071900000000054560000732575000000000763340000000000000000000000000030765050000000000  3020121005   01          2                                                                                   3112233586810293807258000019                                                  N                     01321  0000000        000108
12042956441000101SOLUCOES ACO USIMINAS                                                 0000000034100000000000000000000000000000850740480000002233586820017101202     201209142012071900000000054560000144634000000000150703000000000000000000000000006069050000000000  3020121005   01          2                                                                                   3112233586828293807258000029                                                  N                     01321  0000000        000109
12042956441000101SOLUCOES ACO USIMINAS                                                 0000000034100000000000000000000000000000850740490000002233586830017126902     201209172012072000000000054590000208392000000000215898000000000000000000000000007506050000000000  3020121005   01          2                                                                                   3112233586836293807258000089                                                  N                     01321  0000000        000110
12042956441000101SOLUCOES ACO USIMINAS                                                 0000000034100000000000000000000000000000850740500000002233586840017127002     201209172012072000000000054590000190428000000000197286000000000000000000000000006858050000000000  3020121005   01          2                                                                                   3112233586844293807258000019                                                  N                     01321  0000000        000111
12042956441000101SOLUCOES ACO USIMINAS                                                 0000000034100000000000000000000000000000850740510000002233586850017127102     201209172012072000000000054590000167727000000000173757000000000000000000000000006030050000000000  3020121005   01          2                                                                                   3112233586851293807258000039                                                  N                     01321  0000000        000112
12042956441000101SOLUCOES ACO USIMINAS                                                 0000000034100000000000000000000000000000840313090000002181699240016827103     201209242012070200000000054660000703009000000000718475000000000000000000000000015466050000000000  3020121005   01          2                                                                                   3112181699243293807258000019                                                  N                     01321  0000000        000113
12042956441000101SOLUCOES ACO USIMINAS                                                 0000000034100000000000000000000000000000853154830000002246247020017196602     201209202012072500000000054620000804808000000000828958000000000000000000000000024150050000000000  3020121005   01          2                                                                                   3112246247020293807258000089                                                  N                     01321  0000000        000114
12042956441000101SOLUCOES ACO USIMINAS                                                 0000000034100000000000000000000000000000859590620000002274469790017353702     201209282012080300000000054700000081053000000000082187000000000000000000000000001134050000000000  3020121005   01          2                                                                                   3112274469793293807258000069                                                  N                     01321  0000000        000115
12042956441000101SOLUCOES ACO USIMINAS                                                 0000000034100000000000000000000000000000847452070000002216130350005922202     201209102012071600000000054520000172071000000000180671000000000000000000000000008600050000000000  3020121005   01          2                                                                                   3112216130354293807258000049                                                  N                     01321  0000000        000116
12042956441000101SOLUCOES ACO USIMINAS                                                 0000000034100000000000000000000000000000859590630000002274469800017353802     201209282012080300000000054700000166998000000000169336000000000000000000000000002338050000000000  3020121005   01          2                                                                                   3112274469801293807258000059                                                  N                     01321  0000000        000117
12042956441000101SOLUCOES ACO USIMINAS                                                 0000000034100000000000000000000000000000855028680000002254329370017202402     201209202012072600000000054620000244136000000000251456000000000000000000000000007320050000000000  3020121005   01          2                                                                                   3112254329371293807258000079                                                  N                     01321  0000000        000118
12042956441000101SOLUCOES ACO USIMINAS                                                 0000000034100000000000000000000000000000840313080000002181699230016814403     201209242012070200000000054660000968423000000000989730000000000000000000000000021307050000000000  3020121005   01          2                                                                                   3112181699235293807258000079                                                  N                     01321  0000000        000119
12043217850000159IOB INFORMACOES OBJ  PUBL JURI                                        0000000023702374400000002958600 000000008711912800902243000063301440820F2     201209202012083000000000054620000072850000000000074667000000000000000000000000001817050000000000  3020121005   01          2  R GANGES 528                                                                     3                         000000000000000                                     N                     00598  0000000        000120
12043217850000159IOB INFORMACOES OBJ  PUBL JURI                                        0000000023702374400000002958600 000000008540495200902212000099001440820E4     201208202012073000000000054310000072850000000000075411000000000000000000000000002561050000000000  3020121005   01          2  GANGES 528 VL NOVA MANCHESTER                                                    3                         000000000000000                                     N                     00598  0000000        000121
12047190731000100DE CASTRO LOUREIRO ENGENHARIA                                         0000000023703394400000000205508 000000008801225000202255000000903026787 0     201209282012083100000000054700001135987000000001149238000000000000000000000000013251050000000000  3020121005   01          2  RUA JUNO  533                                                                    3                         000000000000000                                     N                     00598  0000000        000122
12047190731000100DE CASTRO LOUREIRO ENGENHARIA                                         0000000023703394400000000205508 000000008801225300202255000001203026794 0     201210012012090300000000054730001209130000000001217190000000000000000000000000008060050000000000  3020121005   01          2  RUA JUNO  533                                                                    3                         000000000000000                                     N                     00598  0000000        000123
12047190731000100DE CASTRO LOUREIRO ENGENHARIA                                         0000000023703394400000000205508 000000008801225600202255000001503026795 0     201210012012090300000000054730001207555000000001215607000000000000000000000000008052050000000000  3020121005   01          2  RUA JUNO  533                                                                    3                         000000000000000                                     N                     00598  0000000        000124
12047190731000100DE CASTRO LOUREIRO ENGENHARIA                                         0000000023703394400000000205508 000000008801224700202255000000603026784 0     201209282012083100000000054700001041759000000001053911000000000000000000000000012152050000000000  3020121005   01          2  RUA JUNO  533                                                                    3                         000000000000000                                     N                     00598  0000000        000125
12047190731000100DE CASTRO LOUR ENG IND LTDA                                           00000000341000000000000000000000000000008782059300000023602715203026745 0     201209262012082900000000054680000903175000000000919159000000000000000000000000015984050000000000  3020121005   01          2                                                                                   3112360271525036884500400069                                                  N                     01321  0000000        000126
12047190731000100DE CASTRO LOUR ENG IND LTDA                                           00000000341000000000000000000000000000008782050900000023399953503026612 0     201209182012082100000000054600001111489000000001148651000000000000000000000000037162050000000000  3020121005   01          2                                                                                   3112339995352036884500400019                                                  N                     01321  0000000        000127
12047190731000100DE CASTRO LOUR ENG IND LTDA                                           00000000341000000000000000000000000000008782051200000023399953803026613 0     201209182012082100000000054600001107989000000001145032000000000000000000000000037043050000000000  3020121005   01          2                                                                                   3112339995386036884500400039                                                  N                     01321  0000000        000128
12047190731000100DE CASTRO LOUR ENG IND LTDA                                           00000000341000000000000000000000000000008782051600000023399954103026614 0     201209182012082100000000054600001047621000000001082641000000000000000000000000035020050000000000  3020121005   01          2                                                                                   3112339995410036884500400039                                                  N                     01321  0000000        000129
12047190731000100DE CASTRO LOUR ENG IND LTDA                                           00000000341000000000000000000000000000008782052000000023399955303026632 0     201209192012082200000000054610000952073000000000982025000000000000000000000000029952050000000000  3020121005   01          2                                                                                   3112339995535036884500400019                                                  N                     01321  0000000        000130
12047190731000100DE CASTRO LOUR ENG IND LTDA                                           00000000341000000000000000000000000000008782052100000023399955903026643 0     201209202012082300000000054620000867039000000000892614000000000000000000000000025575050000000000  3020121005   01          2                                                                                   3112339995592036884500400049                                                  N                     01321  0000000        000131
12047190731000100DE CASTRO LOUR ENG IND LTDA                                           00000000341000000000000000000000000000008782052500000023399955603026636 0     201209192012082200000000054610000940804000000000970404000000000000000000000000029600050000000000  3020121005   01          2                                                                                   3112339995568036884500400049                                                  N                     01321  0000000        000132
12047190731000100DE CASTRO LOUR ENG IND LTDA                                           00000000341000000000000000000000000000008782052700000023399956203026648 0     201209202012082300000000054620000976053000000001004853000000000000000000000000028800050000000000  3020121005   01          2                                                                                   3112339995626036884500400029                                                  N                     01321  0000000        000133
12047190731000100DE CASTRO LOUR ENG IND LTDA                                           00000000341000000000000000000000000000008782059800000023602714903026744 0     201209272012082900000000054690000146594000000000148898000000000000000000000000002304050000000000  3020121005   01          2                                                                                   3112360271491036884500400089                                                  N                     01321  0000000        000134
12047190731000100DE CASTRO LOUREIRO ENGENHARIA                                         00000000033000000000000000000000000000008801227400000007000000003026825 0     201210042012090600000000054760001192680000000001216534000000000000000000000000023854050000000000  3020121005   01          2                                                                                   3948430370000009553207020319                                                  N                     01321  0000000        000135
12047190731000100DE CASTRO LOUREIRO ENGENHARIA                                         00000000033000000000000000000000000000008801227500000077000000003026820 0     201210042012090500000000054760000919796000000000938192000000000000000000000000018396050000000000  3020121005   01          2                                                                                   3948430370000009553177020329                                                  N                     01321  0000000        000136
12047190731000100DE CASTRO LOUR ENG IND LTDA                                           00000000341000000000000000000000000000008782058900000023602714603026734 0     201209252012082800000000054670000997834000000001017454000000000000000000000000019620050000000000  3020121005   01          2                                                                                   3112360271467036884500400039                                                  N                     01321  0000000        000137
12048775225000146SEIKI IND COM E CONFECCOES LTD                                        000000003410000000000000000000000000000087820591000000235780573014311001      201209282012083100000000054700000052000000000000052546000000000000000000000000000546050000000000  3020121005   01          2                                                                                   3112357805731017444824100069                                                  N                     01321  0000000        000138
12051180370000199IGUAFER FERRO E ACO LTDA                                              0000000034100000000000000000000000000000852309100000002239389789443 B         201209022012071800000000054440000168275000000000177515000000000000000000000000009240050000000000  3020121005   01          2                                                                                   3112239389789077149484600089                                                  N                     01321  0000000        000139
12051180370000199IGUAFER FERRO E ACO LTDA                                              0000000034100000000000000000000000000000852309110000002239389799443 C         201209122012071800000000054540000168275000000000174715000000000000000000000000006440050000000000  3020121005   01          2                                                                                   3112239389797077149484600089                                                  N                     01321  0000000        000140
12051180370000199IGUAFER FERRO E ACO LTDA                                              0000000034100000000000000000000000000000852309120000002239389809443 D         201209222012071800000000054640000168275000000000171915000000000000000000000000003640050000000000  3020121005   01          2                                                                                   3112239389805077149484600029                                                  N                     01321  0000000        000141
12053585766000141MULTIACOS I C PRODS TEC LTDA                                          0000000042200000000000000000000000000000875773550000000000000000004437803     201210032012090400000000054750000435925000000000437378000000000000000000000000001453050000000000  3020121005   01          2                                                                                   3711500005033164919152503139                                                  N                     01321  0000000        000142
12053585766000141MULTIACOS I C PRODS TEC LTDA                                          0000000042200000000000000000000000000000878205760000000000000000004411803     201209282012082800000000054700000585031000000000591855000000000000000000000000006824050000000000  3020121005   01          2                                                                                   3711500005033164917492722119                                                  N                     01321  0000000        000143
12053585766000141MULTIACOS I C PRODS TEC LTDA                                          0000000042200000000000000000000000000000875773320000000000000000004500802     201210022012090400000000054740000173389000000000174255000000000000000000000000000866050000000000  3020121005   01          2                                                                                   3711500005033164919152261179                                                  N                     01321  0000000        000144
12053585766000141MULTIACOS I C PRODS TEC LTDA                                          0000000042200000000000000000000000000000875773330000000000000000004566101     201210012012090400000000054730001320414000000001329217000000000000000000000000008803050000000000  3020121005   01          2                                                                                   3711500005033164919152295119                                                  N                     01321  0000000        000145
12053585766000141MULTIACOS I C PRODS TEC LTDA                                          0000000042200000000000000000000000000000875773340000000000000000004584601     201210042012090400000000054760000349502000000000350084000000000000000000000000000582050000000000  3020121005   01          2                                                                                   3711500005033164919152309149                                                  N                     01321  0000000        000146
12053585766000141MULTIACOS I C PRODS TEC LTDA                                          0000000042200000000000000000000000000000875773350000000000000000004584801     201210042012090400000000054760000390737000000000391387000000000000000000000000000650050000000000  3020121005   01          2                                                                                   3711500005033164919152317119                                                  N                     01321  0000000        000147
12053585766000141MULTIACOS I C PRODS TEC LTDA                                          0000000042200000000000000000000000000000875773360000000000000000004585401     201210042012090400000000054760001079482000000001081280000000000000000000000000001798050000000000  3020121005   01          2                                                                                   3711500005033164919152333119                                                  N                     01321  0000000        000148
12053585766000141MULTIACOS I C PRODS TEC LTDA                                          0000000042200000000000000000000000000000875773370000000000000000004570001     201210022012090400000000054740001029874000000001035021000000000000000000000000005147050000000000  3020121005   01          2                                                                                   3711500005033164919152341129                                                  N                     01321  0000000        000149
12053585766000141MULTIACOS I C PRODS TEC LTDA                                          0000000042200000000000000000000000000000875773380000000000000000004585101     201210042012090400000000054760000229536000000000229918000000000000000000000000000382050000000000  3020121005   01          2                                                                                   3711500005033164919152325169                                                  N                     01321  0000000        000150
12053585766000141MULTIACOS I C PRODS TEC LTDA                                          0000000042200000000000000000000000000000875773400000000000000000004500902     201210022012090400000000054740000962577000000000967388000000000000000000000000004811050000000000  3020121005   01          2                                                                                   3711500005033164919152287179                                                  N                     01321  0000000        000151
12053585766000141MULTIACOS I C PRODS TEC LTDA                                          0000000042200000000000000000000000000000875773410000000000000000004445203     201210042012090400000000054760000224283000000000224656000000000000000000000000000373050000000000  3020121005   01          2                                                                                   3711500005033164919152422119                                                  N                     01321  0000000        000152
12053585766000141MULTIACOS I C PRODS TEC LTDA                                          0000000042200000000000000000000000000000875773420000000000000000004501002     201210022012090400000000054740000902868000000000907382000000000000000000000000004514050000000000  3020121005   01          2                                                                                   3711500005033164919152376149                                                  N                     01321  0000000        000153
12053585766000141MULTIACOS I C PRODS TEC LTDA                                          0000000042200000000000000000000000000000875773430000000000000000004446103     201210042012090400000000054760000687401000000000688546000000000000000000000000001145050000000000  3020121005   01          2                                                                                   3711500005033164919152431119                                                  N                     01321  0000000        000154
12053585766000141MULTIACOS I C PRODS TEC LTDA                                          0000000042200000000000000000000000000000875773440000000000000000004423703     201210022012090400000000054740000535467000000000538142000000000000000000000000002675050000000000  3020121005   01          2                                                                                   3711500005033164919152384119                                                  N                     01321  0000000        000155
12053585766000141MULTIACOS I C PRODS TEC LTDA                                          0000000042200000000000000000000000000000875773450000000000000000004429603     201210032012090400000000054750000910020000000000913053000000000000000000000000003033050000000000  3020121005   01          2                                                                                   3711500005033164919152392119                                                  N                     01321  0000000        000156
12053585766000141MULTIACOS I C PRODS TEC LTDA                                          0000000042200000000000000000000000000000875773460000000000000000004429703     201210012012090400000000054730000624532000000000628695000000000000000000000000004163050000000000  3020121005   01          2                                                                                   3711500005033164919152406199                                                  N                     01321  0000000        000157
12053585766000141MULTIACOS I C PRODS TEC LTDA                                          0000000042200000000000000000000000000000875773500000000000000000004437503     201210032012090400000000054750000418711000000000420106000000000000000000000000001395050000000000  3020121005   01          2                                                                                   3711500005033164919152473129                                                  N                     01321  0000000        000158
12053585766000141MULTIACOS I C PRODS TEC LTDA                                          0000000042200000000000000000000000000000875773510000000000000000004437603     201210032012090400000000054750000311767000000000312806000000000000000000000000001039050000000000  3020121005   01          2                                                                                   3711500005033164919152481159                                                  N                     01321  0000000        000159
12053585766000141MULTIACOS I C PRODS TEC LTDA                                          0000000042200000000000000000000000000000875773520000000000000000004447203     201210042012090400000000054760000425031000000000425738000000000000000000000000000707050000000000  3020121005   01          2                                                                                   3711500005033164919152449179                                                  N                     01321  0000000        000160
12053585766000141MULTIACOS I C PRODS TEC LTDA                                          0000000042200000000000000000000000000000875773540000000000000000004423603     201210022012090400000000054740000606735000000000609767000000000000000000000000003032050000000000  3020121005   01          2                                                                                   3711500005033164919152457189                                                  N                     01321  0000000        000161
12053585766000141MULTIACOS IND  COM  PROD  TEC                                         0000000038900000000000000000000000000000874070420000000000000000004493702     201210012012080600000000054730000180041000000000181241000000000000000000000000001200050000000000  3020121005   01          2                                                                                   3015601031417289000042309299                                                  N                     01321  0000000        000162
12053585766000141MULTIACOS IND  COM  PROD  TEC                                         0000000038900000000000000000000000000000874070430000000000000000004493802     201210012012080600000000054730000828107000000000833627000000000000000000000000005520050000000000  3020121005   01          2                                                                                   3015601031417297000042309299                                                  N                     01321  0000000        000163
12053585766000141MULTIACOS IND  COM  PROD  TEC                                         0000000038900000000000000000000000000000874070440000000000000000004565101     201210012012082000000000054730000469526000000000472658000000000000000000000000003132050000000000  3020121005   01          2                                                                                   3015601031417440000042309219                                                  N                     01321  0000000        000164
12053585766000141MULTIACOS I C PRODS TEC LTDA                                          0000000042200000000000000000000000000000875773570000000000000000004421903     201210012012090400000000054730000942203000000000948482000000000000000000000000006279050000000000  3020121005   01          2                                                                                   3711500005033164919152511129                                                  N                     01321  0000000        000165
12053585766000141MULTIACOS I C PRODS TEC LTDA                                          0000000042200000000000000000000000000000875773580000000000000000004445103     201210042012090400000000054760000287235000000000287713000000000000000000000000000478050000000000  3020121005   01          2                                                                                   3711500005033164919152520119                                                  N                     01321  0000000        000166
12053585766000141MULTIACOS I C PRODS TEC LTDA                                          0000000042200000000000000000000000000000895189330000000000000000004737201     201211062012100200000000055090000373564000000000373564000000000000000000000000000000050000000000  3020121106   01FS        1                                                                                   3711500005033164927761777119                                                  N                     01321  0000000        000167
12053585766000141MULTIACOS I C PRODS TEC LTDA                                          0000000042200000000000000000000000000000895189600000000000000000004699201     201211012012100200000000055040000534986000000000534986000000000000000000000000000000050000000000  3020121101   01FS        1                                                                                   3711500005033164927762056149                                                  N                     01321  0000000        000168
12053585766000141MULTIACOS I C PRODS TEC LTDA                                          0000000042200000000000000000000000000000895189610000000000000000004695803     201211262012100200000000055290000193011000000000193011000000000000000000000000000000050000000000  3020121126   01FS        1                                                                                   3711500005033164927762013119                                                  N                     01321  0000000        000169
12053585766000141MULTIACOS I C PRODS TEC LTDA                                          0000000042200000000000000000000000000000895189620000000000000000004699101     201210292012100200000000055010000592134000000000592134000000000000000000000000000000050000000000  3020121029   01FS        1                                                                                   3711500005033164927762021159                                                  N                     01321  0000000        000170
12053585766000141MULTIACOS I C PRODS TEC LTDA                                          0000000042200000000000000000000000000000895189340000000000000000004737202     201211202012100200000000055230000362578000000000362578000000000000000000000000000000050000000000  3020121120   01FS        1                                                                                   3711500005033164927761785169                                                  N                     01321  0000000        000171
12053585766000141MULTIACOS I C PRODS TEC LTDA                                          0000000042200000000000000000000000000000895189350000000000000000004737203     201212042012100200000000055370000362578000000000362578000000000000000000000000000000050000000000  3020121204   01FS        1                                                                                   3711500005033164927761793149                                                  N                     01321  0000000        000172
12053585766000141MULTIACOS I C PRODS TEC LTDA                                          0000000042200000000000000000000000000000895189360000000000000000004594903     201211022012100200000000055050000141441000000000141441000000000000000000000000000000050000000000  3020121105   01FS        1                                                                                   3711500005033164927761831119                                                  N                     01321  0000000        000173
12053585766000141MULTIACOS I C PRODS TEC LTDA                                          0000000042200000000000000000000000000000895189370000000000000000004699303     201211282012100200000000055310000863284000000000863284000000000000000000000000000000050000000000  3020121128   01FS        1                                                                                   3711500005033164927761807189                                                  N                     01321  0000000        000174
12053585766000141MULTIACOS I C PRODS TEC LTDA                                          0000000042200000000000000000000000000000895189380000000000000000004595002     201210192012100200000000054910000695717000000000695717000000000000000000000000000000050000000000  3020121019   01FS        1                                                                                   3711500005033164927761840159                                                  N                     01321  0000000        000175
12053585766000141MULTIACOS I C PRODS TEC LTDA                                          0000000042200000000000000000000000000000895189390000000000000000004595003     201211022012100200000000055050000695717000000000695717000000000000000000000000000000050000000000  3020121105   01FS        1                                                                                   3711500005033164927761858149                                                  N                     01321  0000000        000176
12053585766000141MULTIACOS I C PRODS TEC LTDA                                          0000000042200000000000000000000000000000895189400000000000000000004594902     201210192012100200000000054910000141441000000000141441000000000000000000000000000000050000000000  3020121019   01FS        1                                                                                   3711500005033164927761815119                                                  N                     01321  0000000        000177
12053585766000141MULTIACOS I C PRODS TEC LTDA                                          0000000042200000000000000000000000000000895189410000000000000000004704301     201210302012100200000000055020000994772000000000994772000000000000000000000000000000050000000000  3020121030   01FS        1                                                                                   3711500005033164927761823189                                                  N                     01321  0000000        000178
12053585766000141MULTIACOS I C PRODS TEC LTDA                                          0000000042200000000000000000000000000000895189420000000000000000004595103     201211022012100200000000055050000354761000000000354761000000000000000000000000000000050000000000  3020121105   01FS        1                                                                                   3711500005033164927761874199                                                  N                     01321  0000000        000179
12053585766000141MULTIACOS I C PRODS TEC LTDA                                          0000000042200000000000000000000000000000895189430000000000000000004566103     201210292012100200000000055010001281579000000001281579000000000000000000000000000000050000000000  3020121029   01FS        1                                                                                   3711500005033164927761904189                                                  N                     01321  0000000        000180
12053585766000141MULTIACOS I C PRODS TEC LTDA                                          0000000042200000000000000000000000000000895189440000000000000000004604402     201210222012100200000000054940000189937000000000189937000000000000000000000000000000050000000000  3020121022   01FS        1                                                                                   3711500005033164927761882169                                                  N                     01321  0000000        000181
12053585766000141MULTIACOS I C PRODS TEC LTDA                                          0000000042200000000000000000000000000000895189450000000000000000004570003     201210302012100200000000055020000999583000000000999583000000000000000000000000000000050000000000  3020121030   01FS        1                                                                                   3711500005033164927761912159                                                  N                     01321  0000000        000182
12053585766000141MULTIACOS I C PRODS TEC LTDA                                          0000000042200000000000000000000000000000895189460000000000000000004604403     201211052012100200000000055080000189937000000000189937000000000000000000000000000000050000000000  3020121105   01FS        1                                                                                   3711500005033164927761891119                                                  N                     01321  0000000        000183
12053585766000141MULTIACOS I C PRODS TEC LTDA                                          0000000042200000000000000000000000000000895189470000000000000000004565103     201210292012100200000000055010000455717000000000455717000000000000000000000000000000050000000000  3020121029   01FS        1                                                                                   3711500005033164927761921189                                                  N                     01321  0000000        000184
12053585766000141MULTIACOS I C PRODS TEC LTDA                                          0000000042200000000000000000000000000000895189480000000000000000004612002     201210232012100200000000054950000465862000000000465862000000000000000000000000000000050000000000  3020121023   01FS        1                                                                                   3711500005033164927761939169                                                  N                     01321  0000000        000185
12053585766000141MULTIACOS I C PRODS TEC LTDA                                          0000000042200000000000000000000000000000895189490000000000000000004595102     201210192012100200000000054910000354761000000000354761000000000000000000000000000000050000000000  3020121019   01FS        1                                                                                   3711500005033164927761866129                                                  N                     01321  0000000        000186
12053585766000141MULTIACOS I C PRODS TEC LTDA                                          0000000042200000000000000000000000000000895189500000000000000000004585403     201211012012100200000000055040001047733000000001047733000000000000000000000000000000050000000000  3020121101   01FS        1                                                                                   3711500005033164927761947119                                                  N                     01321  0000000        000187
12053585766000141MULTIACOS I C PRODS TEC LTDA                                          0000000042200000000000000000000000000000895189510000000000000000004695801     201210292012100200000000055010000198860000000000198860000000000000000000000000000000050000000000  3020121029   01FS        1                                                                                   3711500005033164927761998119                                                  N                     01321  0000000        000188
12053585766000141MULTIACOS I C PRODS TEC LTDA                                          0000000042200000000000000000000000000000895189520000000000000000004521803     201210192012100200000000054910000811642000000000811642000000000000000000000000000000050000000000  3020121019   01FS        1                                                                                   3711500005033164927761955199                                                  N                     01321  0000000        000189
12053585766000141MULTIACOS I C PRODS TEC LTDA                                          0000000042200000000000000000000000000000895189530000000000000000004695802     201211122012100200000000055150000193011000000000193011000000000000000000000000000000050000000000  3020121112   01FS        1                                                                                   3711500005033164927762005119                                                  N                     01321  0000000        000190
12053585766000141MULTIACOS I C PRODS TEC LTDA                                          0000000042200000000000000000000000000000895189540000000000000000004695701     201210292012100200000000055010001125322000000001125322000000000000000000000000000000050000000000  3020121029   01FS        1                                                                                   3711500005033164927761963199                                                  N                     01321  0000000        000191
12053585766000141MULTIACOS I C PRODS TEC LTDA                                          0000000042200000000000000000000000000000895189550000000000000000004695702     201211122012100200000000055150001092223000000001092223000000000000000000000000000000050000000000  3020121112   01FS        1                                                                                   3711500005033164927761971189                                                  N                     01321  0000000        000192
12053585766000141MULTIACOS I C PRODS TEC LTDA                                          0000000042200000000000000000000000000000895189560000000000000000004695703     201211262012100200000000055290001092223000000001092223000000000000000000000000000000050000000000  3020121126   01FS        1                                                                                   3711500005033164927761980139                                                  N                     01321  0000000        000193
12053585766000141MULTIACOS I C PRODS TEC LTDA                                          0000000042200000000000000000000000000000895189570000000000000000004699203     201211292012100200000000055320000519251000000000519251000000000000000000000000000000050000000000  3020121129   01FS        1                                                                                   3711500005033164927762072129                                                  N                     01321  0000000        000194
12053585766000141MULTIACOS I C PRODS TEC LTDA                                          0000000042200000000000000000000000000000895189580000000000000000004699102     201211122012100200000000055150000574719000000000574719000000000000000000000000000000050000000000  3020121112   01FS        1                                                                                   3711500005033164927762030199                                                  N                     01321  0000000        000195
12053585766000141MULTIACOS I C PRODS TEC LTDA                                          0000000042200000000000000000000000000000895189590000000000000000004699103     201211262012100200000000055290000574719000000000574719000000000000000000000000000000050000000000  3020121126   01FS        1                                                                                   3711500005033164927762048119                                                  N                     01321  0000000        000196
12053585766000141MULTIACOS I C PRODS TEC LTDA                                          0000000042200000000000000000000000000000895189630000000000000000004699202     201211152012100200000000055180000519251000000000519251000000000000000000000000000000050000000000  3020121116   01FS        1                                                                                   3711500005033164927762064149                                                  N                     01321  0000000        000197
12053585766000141MULTIACOS I C PRODS TEC LTDA                                          0000000042200000000000000000000000000000895189640000000000000000004750001     201211082012100200000000055110000229622000000000229622000000000000000000000000000000050000000000  3020121108   01FS        1                                                                                   3711500005033164927762111139                                                  N                     01321  0000000        000198
12053585766000141MULTIACOS I C PRODS TEC LTDA                                          0000000042200000000000000000000000000000895189650000000000000000004699301     201210312012100200000000055030000889444000000000889444000000000000000000000000000000050000000000  3020121031   01FS        1                                                                                   3711500005033164927762081139                                                  N                     01321  0000000        000199
