0000147602043799295000110ALTAMIRA IND METALURGICA LTDA           20100492000002012090617364800000        2    230A                                                                                          000000000000000                                                                                                                                                                                                                                                                                   000001
12006000195000156MBA MERCANTIL BRASIL ACO LTDA RUA  RINCAO  220                        0365108023700118000000002128292 I000000000009752009021780000039               201209060000000000000000054480000183781000000000183781000000000000000000000000000000010000008689  3120120906   01HA        000                                                                                 3011809217800000390212829019             008689/02                            N                     00000 10020256        000002
12012006058000121WEG TINTAS LTDA               ROD  BR  280   KM 50   S N              8927000023702727800000000001309 I000000000009753009021660000072               201209060000000000000000054480000310742000000000310742000000000000000000000000000000010000144548  3120120906   01HA        000                                                                                 3272709216600000720000130019             000144548/03                         N                     00000 10020256        000003
12012006058000121WEG TINTAS LTDA               ROD  BR  280   KM 50   S N              8927000023702727800000000001309 I000000000009754009021700000103               201209060000000000000000054480000464896000000000464896000000000000000000000000000000010000145154  3120120906   01HA        000                                                                                 3272709217000001030000130069             000145154/03                         N                     00000 10020256        000004
12012006058000121WEG TINTAS LTDA               ROD  BR  280   KM 50   S N              8927000023702727800000000001309 I000000000009755009022000000091               201209060000000000000000054480000309017000000000309017000000000000000000000000000000010000152481  3120120906   01HA        000                                                                                 3272709220000000910000130019             000152481/01                         N                     00000 10020256        000005
12008709272000177MULTIELETRICA C M E LTDA                                              0000000034100000 0000000000000  I000000000009756000000000000000               201209060000000000000000054480000203371000000000203371000000000000000000000000000000010000002535  3120120906   01HA        000                                                                                 3181536806824075798525400019             0002535/02                           N                     00000 10020256        000006
12006000195000156M B A MERCANTIL BRASILEIRA DE R RINCAO 220                            0365108023700118000000002128292 I000000000009757000000000000000               201209060000000000000000000000000000000000000000840607000000000000000000000000000000010000008876  0120120906   01HA        000                                                                                 3                                        00NF.NRO.8876/02                     N                     00000 10020256        000007
12006000195000156MBA MERCANTIL BRASIL ACO LTDA RUA  RINCAO  220                        0365108023700118000000002128292 I000000000009758009021490000053               201209060000000000000000054480000503860000000000503860000000000000000000000000000000010000008389  3120120906   01HA        000                                                                                 3011809214900000530212829019             008389/03                            N                     00000 10020256        000008
12006000195000156MBA MERCANTIL BRASIL ACO LTDA RUA  RINCAO  220                        0365108023700118000000002128292 I000000000009759009022010000016               201209060000000000000000054480000492064000000000492064000000000000000000000000000000010000008906  3120120906   01HA        000                                                                                 3011809220100000160212829079             008906/01                            N                     00000 10020256        000009
12012006058000121WEG TINTAS LTDA               ROD  BR  280   KM 50   S N              8927000023702727800000000001309 I000000000009760009021790000075               201209060000000000000000054480000311465000000000311465000000000000000000000000000000010000147739  3120120906   01HA        000                                                                                 3272709217900000750000130019             000147739/02                         N                     00000 10020256        000010
12012006058000121WEG TINTAS LTDA               ROD  BR  280   KM 50   S N              8927000023702727800000000001309 I000000000009761009021950000071               201209060000000000000000054480000311057000000000311057000000000000000000000000000000010000151687  3120120906   01HA        000                                                                                 3272709219500000710000130039             000151687/01                         N                     00000 10020256        000011
12001951865000104FOUR FACTORING FOMENTO MERCANTR JOSEPHINA MANDOTTI 344 6 AND JD MAIA  0711508023703397900000000028517 I000000000009762000000000000000               201209060000000000000000000000000000000000000000302155000000000000000000000000000000050000000188  0120120906   01HA        000                                                                                 3                                        00FAT.188/01  &  188/02.             N                     00000 10020256        000012
12069284248000128ISOCOAT TINTAS E VERNIZES LTDAR COMEND GIUSEPPE MARCHIORI 2189        1814700023703372300000000370002 I000000000009763000000000000000               201209060000000000000000000000000000000000000000239836000000000000000000000000000000010000000000  0120120906   01HA        000                                                                                 3                                        00NF.NRO.052085 - PARC.02/03.        N                     00000 10020256        000013
12064952757000168WALMAC COM PROD QUIMICOS LTDA AV  OLIVEIRA FREIRE  223                0808057034100000 0000000000000  I000000000009764000000000000000               201209060000000000000000054480000221853000000000221853000000000000000000000000000000010000020148  3120120906   01HA        000                                                                                 3181536314558064807961400019             0020148/01                           N                     00000 10020256        000014
12002058301000100ACORES COMERCIAL PACHECOS LTDARUA  36                                 1478704600100000 0000000000000  I000000000009765000000000000000               201209060000000000000000054480000203000000000000203000000000000000000000000000000000010000000640  3120120906   01HA        000                                                                                 3000000164161100500023971879             000640                               N                     00000 10020256        000015
12001895314000162COLETA INDUSTRIAL FIMAVAN LTDARUA  SOLEDADE  149 197                  0722421034100000 0000000000000  I000000000009766000000000000000               201209060000000000000000054480000129459000000000129459000000000000000000000000000000010000009439  3120120906   01HA        000                                                                                 3181536250523144604097200069             009439                               N                     00000 10020256        000016
12051598472000129ELETRICA J SANTOS                                                     0000000023702451100000000000264 I000000000009767009022080000039               201209060000000000000000054480000113899000000000113899000000000000000000000000000000010000017933  3120120906   01HA        000                                                                                 3245109220800000390000026099             0017933/02                           N                     00000 10020256        000017
12014104961000150EDNILDE TRIGUERO DANTE DA SILVR ROQUE SOARES MEDELLA 132              0219009023701311000000001038206 I000000000009768000000000000000               201209060000000000000000000000000000000000000000102051000000000000000000000000000000010000000073  0120120906   01HA        000                                                                                 3                                        00073/02                             N                     00000 10020256        000018
12042956441000101SOLUCOES EM ACO USIMINAS S A  RUA  DIANOPOLIS  670 710                0312510034100000 0000000000000  I000000000009769000000000000000               201209060000000000000000054480000147679000000000147679000000000000000000000000000000010000172663  3120120906   01HA        000                                                                                 3181536811343293807258000079             000172663/01                         N                     00000 10020256        000019
12042956441000101SOLUCOES EM ACO USIMINAS S A  RUA  DIANOPOLIS  670 710                0312510034100000 0000000000000  I000000000009770000000000000000               201209060000000000000000054480000121623000000000121623000000000000000000000000000000010000172662  3120120906   01HA        000                                                                                 3181536813299293807258000079             000172662/01                         N                     00000 10020256        000020
12006000195000156MBA MERCANTIL BRASIL ACO LTDA RUA  RINCAO  220                        0365108023700118000000002128292 I000000000009771009022060000015               201209060000000000000000054480000647873000000000647873000000000000000000000000000000010000008946  3120120906   01HA        000                                                                                 3011809220600000150212829019             008946/01                            N                     00000 10020256        000021
12006000195000156MBA MERCANTIL BRASIL ACO LTDA RUA  RINCAO  220                        0365108000100000 0000000000000  I000000000009772000000000000000               201209060000000000000000054480000763056000000000763056000000000000000000000000000000010000008655  3120120906   01HA        000                                                                                 3043852571593333000105251119             008655/02                            N                     00000 10020256        000022
12053585766000141MULTIACOS IND COM PROD TEC LTDAV PAPA JOAO XXIII  1460 A              0937080000100000 0000000000000  I000000000009773000000000000000               201209060000000000000000054480000608788000000000608788000000000000000000000000000000010000044118  3120120906   01HA        000                                                                                 3043959910651912000139523119             00044118                             N                     00000 10020256        000023
12069309706000217FNA TRANSPSORTES LTDA         RUA  COAQUIRA  273                      0509201034100000 0000000000000  I000000000009774000000000000000               201209060000000000000000054480000081048000000000081048000000000000000000000000000000010000059068  3120120906   01HA        000                                                                                 3181536317420005486932600019             0059068                              N                     00000 10020256        000024
12003639662000102SCHUTTER DO BRASIL LTDA                                               0000000034100000 0000000000000  I000000000009775000000000000000               201209060000000000000000054480000068924000000000068924000000000000000000000000000000010000006157  3120120906   01HA        000                                                                                 3181536347000788202600300059             006157                               N                     00000 10020256        000025
12001309173000159TEMHPUS MARCAS E PATENTES S C RUA AZEVEDO SOARES  1491   CONJ 01      0332200123700503700000000454923 I000000000009776009011218802409               201209060000000000000000054480000056000000000000056000000000000000000000000000000000010000005900  3120120906   01HA        000                                                                                 3050309112188024090045492079             005900/03                            N                     00000 10020256        000026
12014775592000128HELIO ADRIANO DA SILVA ME     RUA CARIUS 121                          0723003003300000 0000000000000  I000000000009777000000000000000               201209060000000000000000054480000029000000000000029000000000000000000000000000000000010000008331  3120120906   01HA        000                                                                                 3956114740000000000001010139             008331                               N                     00000 10020256        000027
12035820448000136WHITE MARTINS GASES IND LTDA  AV  AUTONOMISTAS  4192                  0609001523700026400000003937925 I000000000009778009022090010244               201209060000000000000000054480000018274000000000018274000000000000000000000000000000010000226236  3120120906   01HA        000                                                                                 3002609220900102440393792079             00226236                             N                     00000 10020256        000028
12005852768000107DAOUD   LEAL ELETRONICA LTDA  RUA  PANDIA CALOGERAS  205              1224271003300000 0000000000000  I000000000009779000000000000000               201209060000000000000000054480000017494000000000017494000000000000000000000000000000010000001097  3120120906   01HA        000                                                                                 3949927090000000026050010429             001097                               N                     00000 10020256        000029
12014775592000128HELIO ADRIANO DA SILVA ME     RUA CARIUS 121                          0723003003300000 0000000000000  I000000000009780000000000000000               201209060000000000000000054480000020660000000000020660000000000000000000000000000000010000008330  3120120906   01HA        000                                                                                 3956114740000000000003010129             008330                               N                     00000 10020256        000030
12044098788000196MAIAMI COM IMP ROLAM LTDA     RUA CEL JOAQUIM ANTONIO DIAS  98        0330803023700503700000000367516 I000000000009781009022140000004               201209060000000000000000054480000021043000000000021043000000000000000000000000000000010000009853  3120120906   01HA        000                                                                                 3050309221400000040036751089             009853                               N                     00000 10020256        000031
12061217188000119TELAS METALICAS TELMETAL LTDA RUA ALDEIA DA PRATA  38                 0368008003300000 0000000000000  I000000000009782000000000000000               201209060000000000000000054480000045377000000000045377000000000000000000000000000000010000005425  3120120906   01HA        000                                                                                 3915435040000000047406020119             005425/02-03                         N                     00000 10020256        000032
12061217188000119TELAS METALICAS TELMETAL LTDA RUA ALDEIA DA PRATA  38                 0368008000100000 0000000000000  I000000000009783000000000000000               201209060000000000000000054480000070525000000000070525000000000000000000000000000000010000005371  3120120906   01HA        000                                                                                 3000000115031800000055651719             005371-03-03                         N                     00000 10020256        000033
12005151518000140BELENUS DO BRASIL LTDA        RUA COMENDADOR JOAO LUCAS  300          1328000000100000 0000000000000  I000000000009784000000000000000               201209060000000000000000054480000465363000000000465363000000000000000000000000000000010000274200  3120120906   01HA        000                                                                                 3000000123933843815032243179             00274200/03                          N                     00000 10020256        000034
12002558199000101OMEGA TUBOS COM IMP E EXP LTDAAV  PRESIDENTE WILSON  5056             0422000103300000 0000000000000  I000000000009785000000000000000               201209060000000000000000054480000217878000000000217878000000000000000000000000000000010000026380  3120120906   01HA        000                                                                                 3947509770000000088749020359             0026380/04                           N                     00000 10020256        000035
11997198433000049ANTONIA PEREIRA DE SANTANA    TRAV TERRAS SUL 147 JD DA CONQUISTA     0834533023700298400000005101263 I000000000009786000000000000000               201209060000000000000000000000000000000000000000030132000000000000000000000000000000050000000009  0120120906   01HA        000                                                                                 3                                        00PENSAO REF.SETEMBRO/2012.          N                     00000 10020256        000036
11255861678000016DANIELLE CRISTINA VENANCIO    R VISC DE MARQUES 71 AP 41 B            0847176023700816800000000034070 I000000000009787000000000000000               201209060000000000000000000000000000000000000000080217000000000000000000000000000000040000000009  0120120906   01HA        000                                                                                 3                                        00PENSAO REF.SETEMBRO/2012.          N                     00000 10020256        000037
12002503185000182ANDAIMES MAQUINAS BIG LTDA    AV PROF LUIZ ANHAIA MELLO  600          0315410034100000 0000000000000  I000000000009788000000000000000               201209060000000000000000054480000012296000000000012296000000000000000000000000000000010000011660  3120120906   01HA        000                                                                                 3181536374151650303800900029             00011660                             N                     00000 10020256        000038
12035820448000136WHITE MARTINS GASES IND LTDA  AV  AUTONOMISTAS  4192                  0609001523700026400000003937925 I000000000009789009022090011903               201209060000000000000000054480000059005000000000059005000000000000000000000000000000010000008852  3120120906   01HA        000                                                                                 3002609220900119030393792019             008852                               N                     00000 10020256        000039
900004000000000008825368                                                                                                                                                                                    000000000000000                                                                                                                                                                                                                                                    00003801743360007230370        000040
