0000147602043799295000110ALTAMIRA IND METALURGICA LTDA           20100583000002012120617405000000        2    230A                                                                                          000000000000000                                                                                                                                                                                                                                                                                   000001
12096500087000135WORKBENCH CONSULTORIA S S LTDA                                        0000000034100000000000000000000000000000878205840000007940034283118           201209270000000000000000054690000131746000000000149876000000000000000000000000018130050000000000  3020121206   01MFBUHA    500                                                                                 3157940034289826313803700089010000       003118                               N                     00000 10020256        000002
12096500087000135WORKBENCH CONSULTORIA S S LTDA                                        0000000034100000000000000000000000000000912467970000007023696933218           201211270000000000000000055300000131746000000000134077000000000000000000000000002331050000000000  3020121206   01MFBUHA    500                                                                                 3157023696939826313803700019010000       003218                               N                     00000 10020256        000003
12068109784000124TARCOM TECN AR COMPRIMIDO LTDA                                        00000000341000000000000000000000000000009135850300000070271816900000262 A     201212020000000000000000055350000168345000000000170589000000000000000000000000002244050000000000  3020121206   01MFBUHA    500                                                                                 3157027181698846115840700019010000       000262/A                             N                     00000 10020256        000004
12014978305000187MOGI FILME INDUSTRIA E COMERCI                                        0000000023700402200000001055003 0000000091471905009023110000009461         001201212060000000000000000055390000041975000000000041975000000000000000000000000000000050000000000  3020121206   01MFBUHA    500RUA TAMAINDE 1410 VL NOVA MANCHESTER                                             3010000                   000000000000000000461/01                            N                     00000 10020256        000005
12001162151000109SUKIRA COM DE IMP E EXP LTDA                                          000000003410000000000000000000000000000091741398000000256317313019000 AB      201212060000000000000000055390000042471000000000042471000000000000000000000000000000050000000000  3020121206   01MFBUHA    500                                                                                 3112563173130021116926300039010000       00019000/01                          N                     00000 10020256        000006
12035820448000136WHITE MARTINS GASES INDUSTRIAI                                        0000000023700026400000003937925 0000000091741400009023140002461404856 001     201212060000000000000000055390000121725000000000121725000000000000000000000000000000050000000000  3020121206   01MFBUHA    500RUA GANGES  528                                                                  3010000                   0000000000000000009453                              N                     00000 10020256        000007
12045635984000115CRIFER LAMINADOS DE ACO E FERR                                        0000000003300000000000000000000000000000917414030000006700000000036176E01     201212060000000000000000055390000501946000000000501946000000000000000000000000000000050000000000  3020121206   01MFBUHA    500                                                                                 3901184270000000261467010119010000       00036176/01                          N                     00000 10020256        000008
12017469701000177ARCELORMITTAL BRASIL S A                                              0000000034100000000000000000000000000000918338810000009327081380013764701     201212060000000000000000055390000075757000000000075757000000000000000000000000000000050000000000  3020121206   01MFBUHA    500                                                                                 3109327081382293802529900099010000       000137647/01                         N                     00000 10020256        000009
12004969989000105GARCELLAN INDUSTRIA E COMERCIO                                        000000000010000000000000000000000000000091932187000000786678000347            201212060000000000000000055390000047000000000000047000000000000000000000000000000000050000000000  3020121206   01MFBUHA    500                                                                                 3000000215044250157866781159010000       000347                               N                     00000 10020256        000010
12053863726000114COMERCIO DE LUBRIF E ACESSORIO                                        0000000023700114700000000680001 0000000092297285014001142980017008677 A       201212060000000000000000055390000033000000000000033000000000000000000000000000000000050000000000  3020121206   01MFBUHA    500R GANGES 528 SAO PAULO SP                                                        3010000                   000000000000000008677                               N                     00000 10020256        000011
12033325184001786ALSCO TOALHEIRO BRASIL                                                0000000023703396000000001490850 0000000092377944009000002804405VM28044        201212060000000000000000055390000027676000000000027676000000000000000000000000000000050000000000  3020121206   01MFBUHA    500RUA  GANGES 528                                                                  3010000                   00000000000000000028044                             N                     00000 10020256        000012
12004455726000170INTERCLICK INFORMATICA S C LTDR JORGE AUGUSTO 83 SL 84 PENHA          0364500023702451100000000099449 I000000000010295000000000000000               201212060000000000000000000000000000000000000000300000000000000000000000000000000000010000001305  0120121206   01HA        000                                                                                 3                                        00NF.NRO.1305 - PARC.02              N                     00000 10020256        000013
12014104961000150EDNILDE TRIGUERO DANTE DA SILVR ROQUE SOARES MEDELLA 132              0219009023701311000000001038206 I000000000010296000000000000000               201212060000000000000000000000000000000000000000351468000000000000000000000000000000010000000094  0120121206   01HA        000                                                                                 3                                        00NF.NRO.94 - PARC.01  &  02.        N                     00000 10020256        000014
12006209559000102MAZURKY IND COM EMBALAGENS LTDRUA  DAS ORQUIDEAS  475                 0981039034100000 0000000000000  I000000000010297000000000000000               201212060000000000000000055390000094574000000000094574000000000000000000000000000000010000010684  3120121206   01HA        000                                                                                 3181594743045151434240900019             00010684/03                          N                     00000 10020256        000015
12061217188000119TELAS METALICAS TELMETAL LTDA RUA ALDEIA DA PRATA  38                 0368008034100000 0000000000000  I000000000010298000000000000000               201212060000000000000000055390000082431000000000082431000000000000000000000000000000010000005896  3120121206   01HA        000                                                                                 3181595357676077098123100019             005896/01-02                         N                     00000 10020256        000016
12003639662000102SCHUTTER DO BRASIL LTDA                                               0000000023700939300000000014001 I000000000010299009013500000427               201212060000000000000000055390000068012000000000068012000000000000000000000000000000010000006461  3120121206   01HA        000                                                                                 3093909135000004270001400019             0006461                              N                     00000 10020256        000017
12007756871000189P J FONTES REPRESENTACOES     R PROF LEON L 1 R BANDEIRAN             2279001523703176300000004237498 I000000000010300000000000000000               201212060000000000000000000000000000000000000000156041000000000000000000000000000000010000000008  0120121206   01HA        000                                                                                 3                                        0008                                 N                     00000 10020256        000018
12007711227000194L BARBI REPRESENTACOES        R IRAPUA 225 CASA 8 PENHA CIRCULAR      2121506023702804500000000201758 I000000000010301000000000000000               201212060000000000000000000000000000000000000000130900000000000000000000000000000000010000000113  0120121206   01HA        000                                                                                 3                                        00113                                N                     00000 10020256        000019
900002000000000002529518                                                                                                                                                                                    000000000000000                                                                                                                                                                                                                                                    00001800774630001568404        000020
