0000147602043799295000110ALTAMIRA IND METALURGICA LTDA           20100490000002012090610001700000        2    230A                                                                                          000000000000000                                                                                                                                                                                                                                                                                   000001
12042956441000101SOLUCOES EM ACO USIMINAS S A  RUA  DIANOPOLIS  670 710                0312510034100000 0000000000000  I000000000009719000000000000000               201209050000000000000000054470000985856000000000985856000000000000000000000000000000010000168144  3120120905   01BMBN      000                                                                                 2181536068647293807258000089             000168144/02                         N                     00000 10020256        000002
12042956441000101SOLUCOES EM ACO USIMINAS S A  RUA  DIANOPOLIS  670 710                0312510034100000 0000000000000  I000000000009720000000000000000               201209050000000000000000054470000715664000000000715664000000000000000000000000000000010000168271  3120120905   01BMBN      000                                                                                 2181536071096293807258000079             000168271/02                         N                     00000 10020256        000003
12042956441000101SOLUCOES EM ACO USIMINAS S A  RUA  DIANOPOLIS  670 710                0312510034100000 0000000000000  I000000000009721000000000000000               201209050000000000000000054470000655295000000000655295000000000000000000000000000000010000168297  3120120905   01BMBN      000                                                                                 2181536072722293807258000019             00168297/02                          N                     00000 10020256        000004
12042956441000101SOLUCOES EM ACO USIMINAS S A  RUA  DIANOPOLIS  670 710                0312510034100000 0000000000000  I000000000009722000000000000000               201209050000000000000000054470000328333000000000328333000000000000000000000000000000010000168292  3120120905   01BMBN      000                                                                                 2181536074611293807258000069             000168298/02                         N                     00000 10020256        000005
12053585766000141MULTIACOS IND COM PROD TEC LTDAV PAPA JOAO XXIII  1460 A              0937080000100000 0000000000000  I000000000009723000000000000000               201209050000000000000000054470000315332000000000315332000000000000000000000000000000010000042702  3120120905   01BMBN      000                                                                                 2043959908441912000139523129             00042702/03                          N                     00000 10020256        000006
12053585766000141MULTIACOS IND COM PROD TEC LTDAV PAPA JOAO XXIII  1460 A              0937080000100000 0000000000000  I000000000009724000000000000000               201209050000000000000000054470000406486000000000406486000000000000000000000000000000010000042703  3120120905   01BMBN      000                                                                                 2043959908461912000139523189             00042703/03                          N                     00000 10020256        000007
12012006058000121WEG TINTAS LTDA               ROD  BR  280   KM 50   S N              8927000023702727800000000001309 I000000000009725009021790000075               201209050000000000000000054470000311057000000000311057000000000000000000000000000000010000147739  3120120905   01BMBN      000                                                                                 2272709217900000750000130019             000147739/02                         N                     00000 10020256        000008
12012006058000121WEG TINTAS LTDA               ROD  BR  280   KM 50   S N              8927000023702727800000000001309 I000000000009726009021950000071               201209050000000000000000054470000310649000000000310649000000000000000000000000000000010000151687  3120120905   01BMBN      000                                                                                 2272709219500000710000130049             000151687/02                         N                     00000 10020256        000009
12006000195000156MBA MERCANTIL BRASIL ACO LTDA RUA  RINCAO  220                        0365108034100000 0000000000000  I000000000009727000000000000000               201209050000000000000000054470000840607000000000840607000000000000000000000000000000010000008876  3120120905   01BMBN      000                                                                                 2181536002337064849251000079             008876/01                            N                     00000 10020256        000010
12006000195000156MBA MERCANTIL BRASIL ACO LTDA RUA  RINCAO  220                        0365108023700118000000002128292 I000000000009728009021490000053               201209050000000000000000054470000503860000000000503860000000000000000000000000000000010000008389  3120120905   01BMBN      000                                                                                 2011809214900000530212829059             0008389/03                           N                     00000 10020256        000011
12006000195000156MBA MERCANTIL BRASIL ACO LTDA RUA  RINCAO  220                        0365108023700118000000002128292 I000000000009729009022010000016               201209050000000000000000054470000492064000000000492064000000000000000000000000000000010000008906  3120120905   01BMBN      000                                                                                 2011809220100000160212829019             0008906/01                           N                     00000 10020256        000012
12069284248000128ISOCOAT TINTAS E VERNIZES LTDARUA  COM GIUSEPPE MARCHIORI  2189       1814700034100000 0000000000000  I000000000009730000000000000000               201209050000000000000000054470000239205000000000239205000000000000000000000000000000010000052085  3120120905   01BMBN      000                                                                                 2181536024028077430121200069             00052085/03                          N                     00000 10020256        000013
12064952757000168WALMAC COM PROD QUIMICOS LTDA AV  OLIVEIRA FREIRE  223                0808057034100000 0000000000000  I000000000009731000000000000000               201209050000000000000000054470000221422000000000221422000000000000000000000000000000010000020148  3120120905   01BMBN      000                                                                                 2181536006881064807961400059             00020148/01                          N                     00000 10020256        000014
12002058301000100ACORES COMERCIAL PACHECOS LTDARUA  36                                 1478704600100000 0000000000000  I000000000009732000000000000000               201209050000000000000000054470000203000000000000203000000000000000000000000000000000050000000640  3120120905   01BMBN      000                                                                                 2000000164161100500023971819             000640/12                            N                     00000 10020256        000015
12001895314000162COLETA INDUSTRIAL FIMAVAN LTDARUA  SOLEDADE  149 197                  0722421034100000 0000000000000  I000000000009733000000000000000               201209050000000000000000054470000129130000000000129130000000000000000000000000000000010000009439  3120120905   01BMBN      000                                                                                 2181536012766144604097200069             009439                               N                     00000 10020256        000016
12069309706000217FNA TRANSPSORTES LTDA         RUA  COAQUIRA  273                      0509201034100000 0000000000000  I000000000009734000000000000000               201209050000000000000000054470000080784000000000080784000000000000000000000000000000010000059068  3120120905   01BMBN      000                                                                                 2181536022707005486932600099             00059068/01                          N                     00000 10020256        000017
12035820448000136WHITE MARTINS GASES IND LTDA  AV  AUTONOMISTAS  4192                  0609001523700026400000003937925 I000000000009735009022090011903               201209050000000000000000054470000058929000000000058929000000000000000000000000000000010000008852  3120120905   01BMBN      000                                                                                 2002609220900119030393792019             0008852                              N                     00000 10020256        000018
12001309173000159TEMHPUS MARCAS E PATENTES S C RUA AZEVEDO SOARES  1491   CONJ 01      0332200123700503700000000454923 I000000000009736009011218802409               201209050000000000000000054470000056000000000000056000000000000000000000000000000000010000005900  3120120905   01BMBN      000                                                                                 2050309112188024090045492019             005900/03                            N                     00000 10020256        000019
12035820448000136WHITE MARTINS GASES IND LTDA  AV  AUTONOMISTAS  4192                  0609001523700026400000003937925 I000000000009737009022090010244               201209050000000000000000054470000018251000000000018251000000000000000000000000000000010000226236  3120120905   01BMBN      000                                                                                 2002609220900102440393792079             00226236                             N                     00000 10020256        000020
12012739954000108RODOLFO CESAR LARESE          RUA  LEOPOLDO DE FREITAS  658           0364501023701427300000000015989 I000000000009738028022130000038               201209050000000000000000054470000067172000000000067172000000000000000000000000000000010000004834  3120120905   01BMBN      000                                                                                 2142728221300000380001598069             0004834/01                           N                     00000 10020256        000021
12044098788000196MAIAMI COM IMP ROLAM LTDA     RUA CEL JOAQUIM ANTONIO DIAS  98        0330803023700503700000000367516 I000000000009739009022140000004               201209050000000000000000054470000020976000000000020976000000000000000000000000000000010000009853  3120120905   01BMBN      000                                                                                 2050309221400000040036751089             0009853                              N                     00000 10020256        000022
12051598472000129ELETRICA J SANTOS                                                     0000000023702451100000000000264 I000000000009740009022080000039               201209050000000000000000054470000113523000000000113523000000000000000000000000000000010000017933  3120120905   01BMBN      000                                                                                 2245109220800000390000026099             0017933/02                           N                     00000 10020256        000023
12005852768000107DAOUD   LEAL ELETRONICA LTDA  RUA  PANDIA CALOGERAS  205              1224271003300000 0000000000000  I000000000009741000000000000000               201209050000000000000000054470000017439000000000017439000000000000000000000000000000010000001097  3120120905   01BMBN      000                                                                                 2949927090000000026050010459             001097                               N                     00000 10020256        000024
12002503185000182ANDAIMES MAQUINAS BIG LTDA    AV PROF LUIZ ANHAIA MELLO  600          0315410034100000 0000000000000  I000000000009742000000000000000               201209050000000000000000054470000012288000000000012288000000000000000000000000000000010000011660  3120120905   01BMBN      000                                                                                 2181536050355650303800900079             00011660                             N                     00000 10020256        000025
11997198433000049ANTONIA PEREIRA DE SANTANA    TRAV TERRAS SUL 147 JD DA CONQUISTA     0834533023700298400000005101263 I000000000009743000000000000000               201209050000000000000000000000000000000000000000030132000000000000000000000000000000050000000009  0120120905   01BIBN      000                                                                                 2                                        00REF.09                             N                     00000 10020256        000026
11255861678000016DANIELLE CRISTINA VENANCIO    R VISC DE MARQUES 71 AP 41 B            0847176023700816800000000034070 I000000000009744000000000000000               201209050000000000000000000000000000000000000000080217000000000000000000000000000000050000000009  0120120905   01BIBN      000                                                                                 2                                        00REF.09                             N                     00000 10020256        000027
12043799295000110ALTAMIRA INDUSTRIA METAL LTDA RUA  GANGES  528                        0344503003303809500000130004071 I000000000009745000000000000000               201209060000000000000000000000000000000000000003900000000000000000000000000000000000010000000001  0820120906   01HA        0001030                                                                             3D0000000101                             0001                                 S                     00000  0020256        000028
12000867888000164TECNEQUIP TECNOLOGIA EQUIP LTDRUA  GANGES                             0344503003303809500000130003245 I000000000009746000000000000000               201209060000000000000000000000000000000000000000500000000000000000000000000000000000010000000002  0820120906   01HA        0001030                                                                             3C0000000101                             0002                                 N                     00000  0020256        000029
12000867888000164TECNEQUIP TECNOLOGIA EQUIP LTDRUA  GANGES                             0344503034100452 00000000749849 I000000000009747000000000000000               201209060000000000000000000000000000000000000000500000000000000000000000000000000000020000000003  0820120906   01HA        0001030                                                                             3C0000000101                             0003                                 N                     00000  0020256        000030
12013529495000192MAXMIRA CONTROLE E ADM LTDA   RUA  JUNO  533                          0344500034100467 00000000012340 I000000000009748000000000000000               201209060000000000000000000000000000000000000001200000000000000000000000000000000000010000000001  0820120906   01HA        0001030                                                                             3C0000000101                             0001                                 N                     00000  0020256        000031
12043799295000110ALTAMIRA INDUSTRIA METAL LTDA RUA  GANGES  528                        0344503039900198 000000000096330I000000000009749000000000000000               201209060000000000000000000000000000000000000000500000000000000000000000000000000000010000000005  0820120906   01HA        0001030                                                                             3D0000000101                             0005                                 S                     00000  0020256        000032
900003300000000013813671                                                                                                                                                                                    000000000000000                                                                                                                                                                                                                                                    00003101307280007103322        000033
