0000147602043799295000110ALTAMIRA IND METALURGICA LTDA           20100584000002012120717054700000        2    230A                                                                                          000000000000000                                                                                                                                                                                                                                                                                   000001
12062539994000176LEALFER INDUSTRIA E COMERCIO D                                        0000000003300000000000000000000000000000884432790000007100000000005479103     201212040000000000000000055370001068982000000001074433000000000000000000000000005451050000000000  3020121207   01MFBUHA    500                                                                                 3915298380000000266671010419010000       00                                   N                     00000 10020256        000002
900000300000000001074433                                                                                                                                                                                    000000000000000                                                                                                                                                                                                                                                    00000100055370001068982        000003
