0000147602043799295000110ALTAMIRA INDUSTRIA METALURGICA LT       202000000437520130107162511             2                                                                                                  000000000000000                                                                                                                                                                                                                                                                                   000001
12043799295000110ALTAMIRA INDUSTRIA METAL LTDA                                         0000000034100467 00000000209128 I000000000010374000000000000000               201301070000000000000000000000000000000000000001300000000000000000000000000000000000050000000001  0820130107   01HF        5001622000000007574097000000000000000                                               3D0000000101                               01                                 S                     01133 10020256        000002
12062539994000176LEALFER INDUSTRIA E COMERCIO D                                        0000000034100761 00000000033240 I000000000010375000000000000000               201301070000000000000000000000000000000000000001028132000000000000000000000000000000050000000002  0820130107   01HF        5001622000000008602229000000000000000                                               3C0000000101                               02                                 N                     01076 10020256        000003
900000400000000002328132                                                                                                                                                                                    000000000000000                                                                                                                                                                                                                                                    00000200000000000000000        000004
