0000147602043799295000110ALTAMIRA INDUSTRIA METALURGICA LT       202000000047620121107151252             2                                                                                                  000000000000000                                                                                                                                                                                                                                                                                   000001
12006000195000156MBA MERCANTIL BRASIL ACO LTDA                                         0000000034100648 00000000492510 I000000000010159000000000000000               201211070000000000000000000000000000000000000003055016000000000000000000000000000000050000000002  0820121107   01HF        5001509000000009581843000000000000000                                               3C0000000101                               02                                 N                     01076 10020256        000002
900000300000000003055016                                                                                                                                                                                    000000000000000                                                                                                                                                                                                                                                    00000100000000000000000        000003
