0000147602043799295000110ALTAMIRA IND METALURGICA LTDA           20100602000002013010715081100000        2    230A                                                                                          000000000000000                                                                                                                                                                                                                                                                                   000001
12043799295000110ALTAMIRA INDUSTRIA METAL LTDA RUA  GANGES  528                        0344503034100467 00000000209128 I000000000010374000000000000000               201301070000000000000000000000000000000000000001300000000000000000000000000000000000050000000001  0820130107   01HA        0001600                                                                             3D0000000101                             0001                                 S                     00000  0020256        000002
900000300000000001300000                                                                                                                                                                                    000000000000000                                                                                                                                                                                                                                                    00000100000000000000000        000003
