0000147602043799295000110ALTAMIRA IND METALURGICA LTDA           20100604000002013010716005100000        2    230A                                                                                          000000000000000                                                                                                                                                                                                                                                                                   000001
12067647412000199ANCORA CHUMBADORES LTDA                                               000000003410000000000000000000000000000091932177000000257023550065922 2       201301060000000000000000055700000125000000000000125000000000000000000000000000000000050000000000  3020130107   01MFBUHA    500                                                                                 3112570235500013626917200069010000       00065922/02                          N                     00000 10020256        000002
12067298349000122JOBINVEST FOMENTO MERCANTIL LT                                        000000000010000000000000000000000000000092654644000000797503000540C           201301070000000000000000055710000109609000000000109609000000000000000000000000000000050000000000  3020130107   01MFBUHA    500                                                                                 3161477975031204000105451719010000       00540/03-04                          N                     00000 10020256        000003
12043350099000164JMC COML ELETRICA LTDA                                                0000000023700092200000000380105 000000009286265400902333000042059752 02       201301070000000000000000055710000047400000000000047400000000000000000000000000000000050000000000  3020130107   01MFBUHA    500R  GANGES  528                                                                   3010000                   0000000000000000059752/02                           N                     00000 10020256        000004
12062014881000157IND MECANICA JULIAPA LTDA                                             0000000023702505400000000102229 00000000934523920140234100000042265           201301050000000000000000055690000075900000000000075900000000000000000000000000000000050000000000  3020130107   01MFBUHA    500RUA TAMAINDE  1410                                                               3010000                   000000000000000002265                               N                     00000 10020256        000005
12009007898000102ARTERINOX COM D TELAS METALICA                                        0000000023702741300000000246700 00000000936372510090112342017504284           201301060000000000000000055700000085434000000000085434000000000000000000000000000000050000000000  3020130107   01MFBUHA    500RUA TAMAINDE 1410                                                                3010000                   000000000000000004284                               N                     00000 10020256        000006
12009007898000102ARTERINOX COM D TELAS METALICA                                        0000000023702741300000000246700 00000000936372520090112342017514285           201301060000000000000000055700000071755000000000071755000000000000000000000000000000050000000000  3020130107   01MFBUHA    500RUA TAMAINDE 1410                                                                3010000                   000000000000000004285                               N                     00000 10020256        000007
12009007898000102ARTERINOX COM D TELAS METALICA                                        0000000023702741300000000246700 00000000936372530090112342017524286           201301060000000000000000055700000015929000000000015929000000000000000000000000000000050000000000  3020130107   01MFBUHA    500RUA TAMAINDE 1410                                                                3010000                   000000000000000004286                               N                     00000 10020256        000008
12004676708000118M H F SISTEMAS S C LTDA                                               0000000034100000000000000000000000000000937366620000002663878520099050797     201301050000000000000000055690000015153000000000015153000000000000000000000000000000050000000000  3020130107   01MFBUHA    500                                                                                 3112663878521013924573200019010000       0099050797                           N                     00000 10020256        000009
12042956441000101SOLUCOES ACO USIMINAS                                                 0000000034100000000000000000000000000000938325270000002670093690019412701     201301070000000000000000055710000442686000000000442686000000000000000000000000000000050000000000  3020130107   01MFBUHA    500                                                                                 3112670093692293807258000049010000       00194127/01                          N                     00000 10020256        000010
12061217188000119TELAS METALICAS TELMETAL LTDA                                         0000000034100000000000000000000000000000938325340000009000000476146 1 3       201301070000000000000000055710000081140000000000081140000000000000000000000000000000050000000000  3020130107   01MFBUHA    500                                                                                 3109000000474077098123100019010000       006146/01-03                         N                     00000 10020256        000011
12059588111000103BANCO VOTORANTIM S A                                                  000000000010000000000000000000000000000094008691000000192873000144539 1       201301070000000000000000055710000302873000000000302873000000000000000000000000000000050000000000  3020130107   01MFBUHA    500                                                                                 3000000145167244321928731199010000       00144539                             N                     00000 10020256        000012
12059588111000103BANCO VOTORANTIM S A                                                  000000000010000000000000000000000000000094102593000000603409000144542 1       201301070000000000000000055710000140673000000000140673000000000000000000000000000000050000000000  3020130107   01MFBUHA    500                                                                                 3000000145167244326034091189010000       00144542/01                          N                     00000 10020256        000013
12033325184001786ALSCO TOALHEIRO BRASIL                                                0000000023703396000000001490850 0000000094102611009000029976603VM00299766     201301050000000000000000055690000026347000000000026347000000000000000000000000000000050000000000  3020130107   01MFBUHA    500RUA  GANGES 528                                                                  3010000                   00000000000000000299766                             N                     00000 10020256        000014
12005502645000146TRANS GERALE TRANSPORTES LTDA                                         000000003410000000000000000000000000000094311050000000269495536500A 12        201301060000000000000000055700000170000000000000170000000000000000000000000000000000050000000000  3020130107   01MFBUHA    500                                                                                 3112694955363035522320700019010000       0001891- PARC.01/02.                 N                     00000 10020256        000015
120599545780001202 TABELIAO DE PROTESTO LET TITRUA  BOA VISTA  314   1 ANDAR           0101400023701628400000000731404 I000000000010376006000000002116               201301080000000000000000055720000123122000000000123122000000000000000000000000000000050000009542  3120130107   01HA        000                                                                                 3162806000000021160073140019             009542/02 - MBA MERCANTIL.           N                     00000 10020256        000016
120541989080001803 TABELIAO DE PROTESTO LET TITLARGO DE SAO FRANCISCO  34   1 ANDAR    0100501023701628400000000732710 I000000000010377006000618030113               201301080000000000000000055720000758277000000000758277000000000000000000000000000000010000009541  3120130107   01HA        000                                                                                 3162806006180301130073271069             009541/02                            N                     00000 10020256        000017
1205995053500017610 TABELIAO PROTESTOS SP      PRACA  DOUTOR JOAO MENDES  39           0150100123701628400000000729957 I000000000010378006013010306488               201301080000000000000000055720000428224000000000428224000000000000000000000000000000010000009534  3120130107   01HA        000                                                                                 3162806130103064880072995079             009534/02 - MBA.                     N                     00000 10020256        000018
120602639850001706  TABELIAO PROTESTO L T SP   RUA  FRANCISCA MIQUELINA  325           0131600023701628400000000732613 I000000000010379006000000004626               201301080000000000000000055720000168037000000000168037000000000000000000000000000000010000009535  3120130107   01HA        000                                                                                 3162806000000046260073261019             009535/02 - MBA.                     N                     00000 10020256        000019
12042956441000101SOLUCOES EM ACO USIMINAS S A  RUA  DIANOPOLIS  670 710                0312510034100000 0000000000000  I000000000010380000000000000000               201301070000000000000000055710000107497000000000107497000000000000000000000000000000010000193677  3120130107   01HA        000                                                                                 3181613257733293807258000019             000193677/01                         N                     00000 10020256        000020
12042956441000101SOLUCOES EM ACO USIMINAS S A  RUA  DIANOPOLIS  670 710                0312510034100000 0000000000000  I000000000010381000000000000000               201301070000000000000000055710000161774000000000161774000000000000000000000000000000010000193780  3120130107   01HA        000                                                                                 3181613245670293807258000029             000193780/01                         N                     00000 10020256        000021
12042956441000101SOLUCOES EM ACO USIMINAS S A  RUA  DIANOPOLIS  670 710                0312510034100000 0000000000000  I000000000010382000000000000000               201301070000000000000000055710001000596000000001000596000000000000000000000000000000010000189097  3120130107   01HA        000                                                                                 3181613241638293807258000079             000189097/02                         N                     00000 10020256        000022
12042956441000101SOLUCOES EM ACO USIMINAS S A  RUA  DIANOPOLIS  670 710                0312510034100000 0000000000000  I000000000010383000000000000000               201301070000000000000000055710000866141000000000866141000000000000000000000000000000010000193781  3120130107   01HA        000                                                                                 3181613256479293807258000059             000193781/01                         N                     00000 10020256        000023
900002400000000005323567                                                                                                                                                                                    000000000000000                                                                                                                                                                                                                                                    00002201225550005323567        000024
