0000147602043799295000110ALTAMIRA INDUSTRIA METALURGICA LT       202000000012220120907072722             1                                                                                                                                                                                                                                                                                                                                                                                                    000001
12001309173000159TEMHPUS S MARCAS E PATENTES S                                         0000000023700503700000000454923 00000000841061100090112188024095900 C         201208242012070600000000054350000056000000000000056000000000000000000000000000000000050000000000  3020120824   06          3  RUA GANGES  N 528                                                                3                         000000000000000                                     N                     00598  0000000        000002
12001852612000175BT EQUIPAMENTOS INDUSTRIAIS LT                                        000000000010000000000000000000000000000087577329000000031510000591624         201209142012082200000000054560000031800000000000031800000000000000000000000000000000050000000000  3020120914   01FS        1                                                                                   3044000315100511000085971119                                                  N                     01321  0000000        000003
12001852612000175BT EQUIPAMENTOS INDUSTRIAIS LT                                        000000000330000000000000000000000000000087577366000000610000000594061         201210012012090600000000054730000041502000000000041502000000000000000000000000000000050000000000  3020121001   01FS        1                                                                                   3913651000000000594061010479                                                  N                     01321  0000000        000004
12001895314000162COLETA INDUSTRIAL FIMAVAN LTDA                                        0000000034100000000000000000000000000000866992070000009002335349439           201208272012081700000000054380000123695000000000130775000000000000000000000000007080050000000000  3020120910   01          2                                                                                   3109002335346144604097200019                                                  N                     01321  0000000        000005
12001951865000104FOUR FACTORING FOMENTO M LTDA                                         000000004220000000000000000000000000000085861627000000000000000188 B          201208312012080200000000054420000145000000000000149829000000000000000000000000004829050000000000  3020120910   01          2                                                                                   3702000009214741499752376169                                                  N                     01321  0000000        000006
12001951865000104FOUR FACTORING FOMENTO M LTDA                                         000000004220000000000000000000000000000085607115000000000000000174            201209132012073000000000054550000310000000000000310000000000000000000000000000000000050000000000  3020120913   01          2                                                                                   3702000009214741498829499119                                                  N                     01321  0000000        000007
12002234917000186RODOVIARIO SOL NASCENTE LTDA                                          000000000010000000000000000000000000000085152925000000129653000033980         201208172012072400000000054280000065000000000000065000000000000000000000000000000000050000000000  3020120817   06          3                                                                                   3043921296533028000124731119                                                  N                     01321  0000000        000008
12002503185000182ANDAIMES E MAQUINAS BIG LTDA                                          000000000010000000000000000000000000000085315480000000065352000011516         201208202012072600000000054310000026000000000000026554000000000000000000000000000571050000000000  3020120822   06          3                                                                                   3000000187782308250653521739                                                  N                     01321  0000000        000009
12002503185000182ANDAIMES MAQUINAS BIG LTDA EPP                                        000000003410000000000000000000000000000086282613000000228719913011660         201208302012081000000000054410000012000000000000012328000000000000000000000000000328050000000000  3020120910   01          2                                                                                   3112287199130650303800900039                                                  N                     01321  0000000        000010
12002558199000101OMEGA TUBOS COMERCIAL LTDA                                            0000000003300000000000000000000000000000846595840000004900000000026380B04     201209042012071020120904054460000256050000000000216171000000000039879000000000000000050000000000  3020120904   06          3                                                                                   3947509770000000088749020319                                                  N                     01321  0000000        000011
12003102481000134AB5 IND E COMERCIO LTDA EPP                                           0000000034100000000000000000000000000000865388210000009000040412849           201209042012080700000000054460000155820000000000157380000000000000000000000000001560050000000000  3020120910   01          2                                                                                   3109000040418003154755700069                                                  N                     01321  0000000        000012
12005151518000140BELENUS DO BRASIL LTDA                                                000000000010000000000000000000000000000085315477000000001497000R128919712     201208192012072600000000054300000599040000000000599040000000000000000000000000000000050000000000  3020120820   06          3                                                                                   3000000123933843930014973139                                                  N                     01321  0000000        000013
12005335228000156DINAMICA INF E TELECOM LTDA EP                                        0000000023703257300000000503215 0000000086455447009032570016796MO008820A      201208302012080600000000054410000020000000000000020737000000000000000000000000000737050000000000  3020120910   01          2  RUA JUNO  533                                                                    3                         000000000000000                                     N                     00598  0000000        000014
12005753978000148HUMAN SERVICOS P C MOVEL LTDA                                         0000000034100000000000000000000000000000875773590000009001008530000100853     201209202012090300000000054620000013000000000000013000000000000000000000000000000000050000000000  3020120920   01FS        1                                                                                   3109001008539057948896600019                                                  N                     01321  0000000        000015
12005852768000107DAOUD LEAL ELETRONICA LTDA ME                                         00000000033000000000000000000000000000008757736700000021000000000000000001097 201209262012090500000000054680000016558000000000016558000000000000000000000000000000050000000000  3020120926   01FS        1                                                                                   3949927090000000027421010429                                                  N                     01321  0000000        000016
12005852768000107DAOUD LEAL ELETRONICA LTDA ME                                         00000000033000000000000000000000000000008619603100000050000000000000000001097 201208262012080900000000054370000016558000000000017439000000000000000000000000000936050000000000  3020120905   06          3                                                                                   3949927090000000026050010479                                                  N                     01321  0000000        000017
12006000195000156M B A MERCANTIL BRASILEIRA DE                                         0000000023700118P00000002128292 00000000869071040090214900000530008389B03     201208172012052500000000054280000503860000000000503860000000000000000000000000000000050000000000  3020120827   06          3  RUA JUNO  533                                                                    3                         000000000000000                                     N                     00598  0000000        000018
12006000195000156M B A MERCANTIL BRASILEIRA DE                                         0000000023700118P00000002128292 00000000869071050090220100000160008906B01     201208172012071900000000054280000492064000000000492064000000000000000000000000000000050000000000  3020120827   06          3  RUA JUNO  533                                                                    3                         000000000000000                                     N                     00598  0000000        000019
12006000195000156M B A MERCANTIL BRASILEIRA DE                                         0000000023700118P00000002128292 00000000870177520090217800000390008689B02     201208202012062500000000054310000183781000000000183781000000000000000000000000000000050000000000  3020120829   06          3  RUA JUNO  533                                                                    3                         000000000000000                                     N                     00598  0000000        000020
12006000195000156M B A MERCANTIL BRASILEIRA DE                                         0000000023700118P00000002128292 00000000870177570090220600000150008946B01     201208202012072300000000054310000647873000000000647873000000000000000000000000000000050000000000  3020120829   06          3  RUA JUNO  533                                                                    3                         000000000000000                                     N                     00598  0000000        000021
12006000195000156M B A MERCANTIL BRASILEIRA DE                                         0000000023700118P00000002130599 00000000853154980020220900000440008967B01     201208232012072400000000054340000135605000000000139673000000000000000000000000004068050000000000  3020120910   01          2  RUA JUNO  533                                                                    3                         000000000000000                                     N                     00598  0000000        000022
12006000195000156M B A MERCANTIL BRASILEIRA DE                                         0000000023700118P00000002130599 00000000853155100020220900000700008987B01     201208232012072500000000054340000216623000000000223121000000000000000000000000006498050000000000  3020120910   01          2  RUA JUNO  533                                                                    3                         000000000000000                                     N                     00598  0000000        000023
12006000195000156M B A MERCANTIL BRASILEIRA DE                                         0000000023700118P00000002128292 00000000875773630090219200000100008786B02     201208302012070500000000054410000301975000000000301975000000000000000000000000000000050000000000  3020120910   01FS        1  RUA JUNO  533                                                                    3                         000000000000000                                     N                     00598  0000000        000024
12006000195000156M B A MERCANTIL BRASILEIRA DE                                         0000000023700118P00000002128292 00000000875773640090221600000340009067B01     201208302012080200000000054410000830191000000000830191000000000000000000000000000000050000000000  3020120910   01FS        1  RUA JUNO  533                                                                    3                         000000000000000                                     N                     00598  0000000        000025
12006000195000156MBA MERCL BRASILEIRA ACO LTDA                                         0000000042200000000000000000000000000000859590570000000000000000009051B01     201208292012080300000000054400000180457000000000184068000000000000000000000000003611050000000000  3020120910   01          2                                                                                   3701600007451936910173818179                                                  N                     01321  0000000        000026
12006066698000124NOVO REINO LOGISTICA E TRANSPO                                        000000000010000000000000000000000000000087577330000000989860000161192         201209112012082200000000054530000038546000000000038546000000000000000000000000000000050000000000  3020120911   01FS        1                                                                                   3043999898601584001800001119                                                  N                     01321  0000000        000027
12008508119000181DINARI FOMENTO MERCANTIL LTDA                                         0000000023702499600000000178306 0000000086282617002022260000005206 A          201209162012081000000000054580000170000000000000170000000000000000000000000000005610050000000000  3020120917   01          2  RUA JUNO  533 VL N MANCHESTER SAO PAULO PANKRO LOGISTICA E TRANSPORTES LTDA EPP  300000000000000000141500  002269980000158                                     N                     00598  0000000        000028
12008709272000177MULTIELETRICA C M E LTDA                                              000000003410000000000000000000000000000085771859000000900002206000002535C     201209042012072400000000054460000188888000000000202258000000000000000000000000013370050000000000  3020120910   01          2                                                                                   3109000022065075798525400069                                                  N                     01321  0000000        000029
12009419898000101LUSITANO INDUSTRIA C E P LTDA                                         00000000341000000000000000000000000000008465957800000090000717601 9797 2      201208202012071600000000054310000037570000000000037570000000000000000000000000000000050000000000  3020120820   06          3                                                                                   3109000071764001160072300049                                                  N                     01321  0000000        000030
12011202309000180FIEL TOOLS DISTRIBUIDORA DE MA                                        0000000023702087700000000000116 0000000087017758009000020186261008626 1       201208202012072300000000054310000041975000000000043990000000000000000000000000002141050000000000  3020120831   05          3  R TAMAINDE  1 410   RUA GANGES  520 E 52                                         3                         000000000000000                                     N                     00598  0000000        000031
12011202309000180FIEL TOOLS DISTRIBUIDORA DE MA                                        0000000023702087700000000000116 0000000087577361009000020194031009403 1       201210042012090600000000054760000041000000000000041000000000000000000000000000000000050000000000  3020121004   01FS        1  R TAMAINDE  1 410   RUA GANGES  520 E 52                                         3                         000000000000000                                     N                     00598  0000000        000032
12011202309000180FIEL TOOLS DISTRIBUIDORA DE MA                                        0000000023702087700000000000116 0000000087577362009000020194032009403 2       201210112012090600000000054830000041000000000000041000000000000000000000000000000000050000000000  3020121011   01FS        1  R TAMAINDE  1 410   RUA GANGES  520 E 52                                         3                         000000000000000                                     N                     00598  0000000        000033
12012006058000121WEG TINTAS LTDA                                                       0000000023702727800000000001309 00000000844839220090219500000710015168701     201208262012071200000000054370000306569000000000311057000000000000000000000000004896050000000000  3020120906   06          3  R JUNO  533                                                                      3                         000000000000000                                     N                     00598  0000000        000034
12012006058000121WEG TINTAS LTDA                                                       0000000023702727800000000001309 00000000827244630090216600000720014454803     201208272012061300000000054380000306662000000000310742000000000000000000000000004488050000000000  3020120906   06          3  R JUNO  533                                                                      3                         000000000000000                                     N                     00598  0000000        000035
12012006058000121WEG TINTAS LTDA                                                       0000000023702727800000000001309 00000000828904040090217000001030014515403     201208292012061500000000054400000459992000000000464896000000000000000000000000005517050000000000  3020120906   06          3  R JUNO  533                                                                      3                         000000000000000                                     N                     00598  0000000        000036
12012006058000121WEG TINTAS LTDA                                                       0000000023702727800000000001309 00000000847452140090220000000910015248101     201208312012071700000000054420000306569000000000309017000000000000000000000000002856050000000000  3020120906   06          3  R JUNO  533                                                                      3                         000000000000000                                     N                     00598  0000000        000037
12012006058000121WEG TINTAS LTDA                                                       0000000023702727800000000001309 00000000834820630090217900000750014773902     201208252012062600000000054360000306569000000000311465000000000000000000000000005304050000000000  3020120906   06          3  R JUNO  533                                                                      3                         000000000000000                                     N                     00598  0000000        000038
12012006058000121WEG TINTAS LTDA                                                       0000000023702727800000000001309 00000000833069160090217700001090014685603     201209052012062200000000054470000459992000000000463057000000000000000000000000003065050000000000  3020120910   01          2  R JUNO  533                                                                      3                         000000000000000                                     N                     00598  0000000        000039
12012006058000121WEG TINTAS LTDA                                                       0000000023702727800000000001309 00000000841061120090218800000840014990202     201209032012070500000000054450000306569000000000309425000000000000000000000000002856050000000000  3020120910   01          2  R JUNO  533                                                                      3                         000000000000000                                     N                     00598  0000000        000040
12012006058000121WEG TINTAS LTDA                                                       0000000023702727800000000001309 00000000842436820090219200000840015068801     201208232012070900000000054340000306569000000000313913000000000000000000000000007344050000000000  3020120910   01          2  R JUNO  533                                                                      3                         000000000000000                                     N                     00598  0000000        000041
12012006058000121WEG TINTAS LTDA                                                       0000000023702727800000000001309 00000000849855320090220500001200015343101     201209032012072000000000054450000306569000000000309425000000000000000000000000002856050000000000  3020120910   01          2  R JUNO  533                                                                      3                         000000000000000                                     N                     00598  0000000        000042
12014775592000128HELIO ADRIANO DA SILVA ME                                             0000000003300000000000000000000000000000861207310000000100000008331           201208242012080800000000054350000029000000000000029000000000000000000000000000000000050000000000  3020120824   06          3                                                                                   3956114740000000000001010129                                                  N                     01321  0000000        000043
12017469701000177ARCELORMITTAL BRASIL S A                                              0000000034100000000000000000000000000000848957340000009322737210015269002     201208202012071600000000054310000298521000000000298521000000000000000000000000000000050000000000  3020120820   05          3                                                                                   3109322737210293802529900069                                                  N                     01321  0000000        000044
12031895683000116BANCO INDUSTRIAL DO BRASIL S A                                        0000000023702374400000000144002 00000000862826150190222600002285776102        201209052012080800000000054470000065454000000000066329000000000000000000000000000875050000000000  3020120910   01          2  R JUNO 533                              OFFICE LEADER DIST E LOGISTICA LTDA      3                         005169626000140                                     N                     00598  0000000        000045
12033325184001786ALSCO TOALHEIRO BRASIL                                                0000000023703396000000001490850 0000000086196030009000002679805VM26798        201208302012081000000000054410000052584000000000053167000000000000000000000000000583050000000000  3020120910   01          2  RUA  GANGES 528                                                                  3                         000000000000000                                     N                     00598  0000000        000046
12033325184001786ALSCO TOALHEIRO BRASIL                                                0000000023703396000000001490850 0000000085771866009000028519503VM00285195     201209052012080300000000054470000026347000000000026477000000000000000000000000000130050000000000  3020120910   01          2  RUA  GANGES 528                                                                  3                         000000000000000                                     N                     00598  0000000        000047
12035820448000136WHITE MARTINS GASES INDUSTRIAI                                        0000000023700026400000003937925 0000000085861656009022190000404361579 001     201208312012080400000000054420000162300000000000167706000000000000000000000000005406050000000000  3020120910   01          2  RUA GANGES  528                                                                  3                         000000000000000                                     N                     00598  0000000        000048
12035820448000136WHITE MARTINS GASES INDUSTRIAI                                        0000000023700026400000003937925 0000000086196029009022230001562364184 001     201209062012081000000000054480000113610000000000116486000000000000000000000000002876050000000000  3020120910   01          2  RUA GANGES  528                                                                  3                         000000000000000                                     N                     00598  0000000        000049
12035820448000136WHITE MARTINS GASES INDUSTRIAI                                        0000000023700026400000003937925 0000000085607119009022140004425360193 001     201208282012073100000000054390000081150000000000084177000000000000000000000000003027050000000000  3020120910   01          2  RUA GANGES  528                                                                  3                         000000000000000                                     N                     00598  0000000        000050
12035820448000136WHITE MARTINS GASES INDUSTRIAI                                        0000000023700026400000003937925 0000000085771861009022160000641360709 001     201208292012080300000000054400000162300000000000168138000000000000000000000000005838050000000000  3020120910   01          2  RUA GANGES  528                                                                  3                         000000000000000                                     N                     00598  0000000        000051
12035820448000136WHITE MARTINS GASES INDUSTRIAI                                        0000000023700026400000003937925 0000000085315496009022090010244358059 001     201208232012072700000000054340000017600000000000018274000000000000000000000000000697050000000000  3020120906   06          3  RUA GANGES  528                                                                  3                         000000000000000                                     N                     00598  0000000        000052
12035820448000136WHITE MARTINS GASES INDUSTRIAI                                        0000000023700026400000003937925 0000000085315497009022090011903358519 001     201208232012072700000000054340000056805000000000059005000000000000000000000000002276050000000000  3020120906   06          3  RUA GANGES  528                                                                  3                         000000000000000                                     N                     00598  0000000        000053
12035820448000136WHITE MARTINS GASES INDUSTRIAI                                        0000000023700026400000003937925 0000000087577331009022500001416377141 001     201210022012090600000000054740000040575000000000040575000000000000000000000000000000050000000000  3020121002   01FS        1  RUA GANGES  528                                                                  3                         000000000000000                                     N                     00598  0000000        000054
12042956441000101SOLUCOES ACO USIMINAS                                                 0000000034100000000000000000000000000000819545020000002078930840016239503     201208222012052900000000054330001126072000000001168860000000000000000000000000042788050000000000  3020120910   01          2                                                                                   3112078930842293807258000019                                                  N                     01321  0000000        000055
12042956441000101SOLUCOES ACO USIMINAS                                                 0000000034100000000000000000000000000000826558270000002112172740016458803     201209042012061100000000054460000231416000000000234194000000000000000000000000002778050000000000  3020120910   01          2                                                                                   3112112172740293807258000059                                                  N                     01321  0000000        000056
12042956441000101SOLUCOES ACO USIMINAS                                                 0000000034100000000000000000000000000000826558320000002112172760016459403     201209042012061100000000054460000747525000000000756495000000000000000000000000008970050000000000  3020120910   01          2                                                                                   3112112172765293807258000089                                                  N                     01321  0000000        000057
12042956441000101SOLUCOES ACO USIMINAS                                                 0000000034100000000000000000000000000000826558330000002112172770016459703     201209042012061100000000054460000500177000000000506177000000000000000000000000006000050000000000  3020120910   01          2                                                                                   3112112172773293807258000069                                                  N                     01321  0000000        000058
12042956441000101SOLUCOES ACO USIMINAS                                                 0000000034100000000000000000000000000000858616290000002271409670017315101     201208302012080200000000054410000579548000000000592297000000000000000000000000012749050000000000  3020120910   01          2                                                                                   3112271409677293807258000099                                                  N                     01321  0000000        000059
12042956441000101SOLUCOES ACO USIMINAS                                                 0000000034100000000000000000000000000000825740790000002106974460016399003     201208292012060600000000054400000203068000000000207940000000000000000000000000004872050000000000  3020120910   01          2                                                                                   3112106974465293807258000089                                                  N                     01321  0000000        000060
12042956441000101SOLUCOES ACO USIMINAS                                                 0000000034100000000000000000000000000000825740800000002106974470016399203     201208292012060600000000054400000450363000000000461175000000000000000000000000010812050000000000  3020120910   01          2                                                                                   3112106974473293807258000039                                                  N                     01321  0000000        000061
12042956441000101SOLUCOES ACO USIMINAS                                                 0000000034100000000000000000000000000000825740810000002106974480016399403     201208292012060600000000054400000431213000000000441557000000000000000000000000010344050000000000  3020120910   01          2                                                                                   3112106974481293807258000099                                                  N                     01321  0000000        000062
12042956441000101SOLUCOES ACO USIMINAS                                                 0000000034100000000000000000000000000000858616320000002271409680017316001     201208302012080200000000054410000929730000000000950179000000000000000000000000020449050000000000  3020120910   01          2                                                                                   3112271409685293807258000039                                                  N                     01321  0000000        000063
12042956441000101SOLUCOES ACO USIMINAS                                                 0000000034100000000000000000000000000000858616330000002271409690017319301     201208302012080200000000054410000981820000000001003424000000000000000000000000021604050000000000  3020120910   01          2                                                                                   3112271409693293807258000039                                                  N                     01321  0000000        000064
12042956441000101SOLUCOES ACO USIMINAS                                                 0000000034100000000000000000000000000000858616340000002271409700017319401     201208302012080200000000054410000178956000000000182894000000000000000000000000003938050000000000  3020120910   01          2                                                                                   3112271409701293807258000089                                                  N                     01321  0000000        000065
12042956441000101SOLUCOES ACO USIMINAS                                                 0000000034100000000000000000000000000000858616350000002271409710017319501     201208302012080200000000054410000197439000000000201784000000000000000000000000004345050000000000  3020120910   01          2                                                                                   3112271409719293807258000049                                                  N                     01321  0000000        000066
12042956441000101SOLUCOES ACO USIMINAS                                                 0000000034100000000000000000000000000000858616360000002271409720017319601     201208302012080200000000054410000197103000000000201437000000000000000000000000004334050000000000  3020120910   01          2                                                                                   3112271409727293807258000019                                                  N                     01321  0000000        000067
12042956441000101SOLUCOES ACO USIMINAS                                                 0000000034100000000000000000000000000000858616370000002271409730017319701     201208302012080200000000054410000197271000000000201616000000000000000000000000004345050000000000  3020120910   01          2                                                                                   3112271409735293807258000019                                                  N                     01321  0000000        000068
12042956441000101SOLUCOES ACO USIMINAS                                                 0000000034100000000000000000000000000000858616380000002271409740017319801     201208302012080200000000054410000194583000000000198862000000000000000000000000004279050000000000  3020120910   01          2                                                                                   3112271409743293807258000019                                                  N                     01321  0000000        000069
12042956441000101SOLUCOES ACO USIMINAS                                                 0000000034100000000000000000000000000000859590600000002274469770017353701     201208312012080300000000054420000081077000000000082697000000000000000000000000001620050000000000  3020120910   01          2                                                                                   3112274469777293807258000049                                                  N                     01321  0000000        000070
12042956441000101SOLUCOES ACO USIMINAS                                                 0000000034100000000000000000000000000000859590610000002274469780017353801     201208312012080300000000054420000167048000000000170388000000000000000000000000003340050000000000  3020120910   01          2                                                                                   3112274469785293807258000019                                                  N                     01321  0000000        000071
12042956441000101SOLUCOES ACO USIMINAS                                                 0000000034100000000000000000000000000000824061850000002100925420016380503     201208292012060500000000054400000215523000000000220695000000000000000000000000005172050000000000  3020120910   01          2                                                                                   3112100925422293807258000039                                                  N                     01321  0000000        000072
12042956441000101SOLUCOES ACO USIMINAS                                                 0000000034100000000000000000000000000000824061860000002100925430016380703     201208292012060500000000054400000216699000000000221895000000000000000000000000005196050000000000  3020120910   01          2                                                                                   3112100925430293807258000079                                                  N                     01321  0000000        000073
12042956441000101SOLUCOES ACO USIMINAS                                                 0000000034100000000000000000000000000000826558340000002112172780016459803     201209042012061100000000054460000155721000000000157587000000000000000000000000001866050000000000  3020120910   01          2                                                                                   3112112172781293807258000099                                                  N                     01321  0000000        000074
12042956441000101SOLUCOES ACO USIMINAS                                                 0000000034100000000000000000000000000000826558360000002112172750016459203     201209042012061100000000054460000123455000000000124937000000000000000000000000001482050000000000  3020120910   01          2                                                                                   3112112172757293807258000049                                                  N                     01321  0000000        000075
12042956441000101SOLUCOES ACO USIMINAS                                                 0000000034100000000000000000000000000000843180430000002194744350016902902     201208312012070600000000054420000179795000000000183395000000000000000000000000003600050000000000  3020120910   01          2                                                                                   3112194744358293807258000069                                                  N                     01321  0000000        000076
12042956441000101SOLUCOES ACO USIMINAS                                                 0000000034100000000000000000000000000000840313020000002181699190016814402     201208272012070200000000054380000968423000000000995541000000000000000000000000027118050000000000  3020120910   01          2                                                                                   3112181699193293807258000019                                                  N                     01321  0000000        000077
12042956441000101SOLUCOES ACO USIMINAS                                                 0000000034100000000000000000000000000000844063830000002198870030016923302     201209042012071000000000054460000442972000000000448288000000000000000000000000005316050000000000  3020120910   01          2                                                                                   3112198870035293807258000059                                                  N                     01321  0000000        000078
12042956441000101SOLUCOES ACO USIMINAS                                                 0000000034100000000000000000000000000000850740460000002233586800017127201     201208202012072000000000054310000137881000000000143677000000000000000000000000005796050000000000  3020120910   01          2                                                                                   3112233586802293807258000019                                                  N                     01321  0000000        000079
12042956441000101SOLUCOES ACO USIMINAS                                                 0000000034100000000000000000000000000000840313030000002181699200016827102     201208272012070200000000054380000703010000000000722694000000000000000000000000019684050000000000  3020120910   01          2                                                                                   3112181699201293807258000019                                                  N                     01321  0000000        000080
12042956441000101SOLUCOES ACO USIMINAS                                                 0000000034100000000000000000000000000000840313060000002181699210016829702     201208272012070200000000054380000643712000000000661730000000000000000000000000018018050000000000  3020120910   01          2                                                                                   3112181699219293807258000089                                                  N                     01321  0000000        000081
12042956441000101SOLUCOES ACO USIMINAS                                                 0000000034100000000000000000000000000000840313070000002181699220016829802     201208272012070200000000054380000322528000000000331558000000000000000000000000009030050000000000  3020120910   01          2                                                                                   3112181699227293807258000029                                                  N                     01321  0000000        000082
12042956441000101SOLUCOES ACO USIMINAS                                                 0000000034100000000000000000000000000000853154910000002246247000017196701     201208232012072500000000054340000234911000000000243371000000000000000000000000008460050000000000  3020120910   01          2                                                                                   3112246247004293807258000019                                                  N                     01321  0000000        000083
12042956441000101SOLUCOES EM ACO USIMINAS S A                                          000000000010000000000000000000000000000083218055000000083599000000057906002   201208162012062100000000054270000698618000000000698618000000000000000000000000000000050000000000  3020120816   06          3                                                                                   3000000169660100000835991759                                                  N                     01321  0000000        000084
12042956441000101SOLUCOES EM ACO USIMINAS S A                                          000000000010000000000000000000000000000083306905000000084913000000166430002   201208162012062200000000054270000193853000000000193853000000000000000000000000000000050000000000  3020120816   06          3                                                                                   3000000169660100000849131799                                                  N                     01321  0000000        000085
12042956441000101SOLUCOES EM ACO USIMINAS S A                                          000000000010000000000000000000000000000083306907000000084916000000166431002   201208162012062200000000054270000484522000000000484522000000000000000000000000000000050000000000  3020120816   06          3                                                                                   3000000169660100000849161749                                                  N                     01321  0000000        000086
12042956441000101SOLUCOES EM ACO USIMINAS S A                                          000000000010000000000000000000000000000083138708000000082599000000057848002   201208152012062000000000054260000190073000000000190073000000000000000000000000000000050000000000  3020120815   06          3                                                                                   3000000169660100000825991759                                                  N                     01321  0000000        000087
12042956441000101SOLUCOES ACO USIMINAS                                                 0000000034100000000000000000000000000000816971020000002066217450016143203     201208162012052400000000054270001121663000000001146336000000000000000000000000026916050000000000  3020120827   06          3                                                                                   3112066217459293807258000029                                                  N                     01321  0000000        000088
12042956441000101SOLUCOES EM ACO USIMINAS S A                                          000000000010000000000000000000000000000083306912000000084494000000057981002   201208172012062200000000054280000329930000000000329930000000000000000000000000000000050000000000  3020120817   05          3                                                                                   3000000169660100000844941719                                                  N                     01321  0000000        000089
12042956441000101SOLUCOES ACO USIMINAS                                                 0000000034100000000000000000000000000000813840740000002053421720016089503     201208142012052100000000054250001161253000000001161253000000000000000000000000000000050000000000  3020120814   06          3                                                                                   3112053421726293807258000049                                                  N                     01321  0000000        000090
12043217850000159IOB INFORMACOES OBJ  PUBL JURI                                        0000000023702374400000002958600 000000008540495200902212000099001440820E4     201208202012073000000000054310000072850000000000074811000000000000000000000000001961050000000000  3020120910   01          2  GANGES 528 VL NOVA MANCHESTER                                                    3                         000000000000000                                     N                     00598  0000000        000091
12044098788000196MAIAMI COM E IMP DE ROLAMENTOS                                        0000000023700503700000000367516 000000008560712000902214000000409853          201208282012073100000000054390000020440000000000021043000000000000000000000000000670050000000000  3020120906   06          3  RUA GANGES 528 VL CARRAO                                                         3                         000000000000000                                     N                     00598  0000000        000092
12051180370000199IGUAFER FERRO E ACO LTDA                                              0000000034100000000000000000000000000000852309100000002239389789443 B         201209022012071800000000054440000168275000000000170515000000000000000000000000002240050000000000  3020120910   01          2                                                                                   3112239389789077149484600089                                                  N                     01321  0000000        000093
12051598472000129ELETRICA J SANTOS                                                     0000000023702451100000000000264 000000008523091900902208000003917933 02       201209032012072500000000054450000112771000000000113899000000000000000000000000001504050000000000  3020120906   06          3  R JUNO  533                                                                      300000000000000000001500  000000000000000                                     N                     00598  0000000        000094
12051598472000129ELETRICA J SANTOS                                                     0000000023702451100000000000264 000000008586165500902219000005118310 01       201209102012080400000000054520000104146000000000104146000000000000000000000000000347050000000000  3020120910   01          2  R JUNO  533                                                                      300000000000000000141500  000000000000000                                     N                     00598  0000000        000095
12051598472000129ELETRICA J SANTOS                                                     0000000023702451100000000000264 000000008523092000902208000004017933 03       201209052012072500000000054470000112771000000000114651000000000000000000000000001880050000000000  3020120910   01          2  R JUNO  533                                                                      3                         000000000000000                                     N                     00598  0000000        000096
12053585766000141MULTIACOS INDUSTRIA E COMERCIO                                        0000000000100000000000000000000000000000856071120000000876200000004294602     201208212012073100000000054320000407138000000000407817000000000000000000000000001358050000000000  3020120822   06          3                                                                                   3043940876201912000139523119                                                  N                     01321  0000000        000097
12053585766000141MULTIACOS INDUSTRIA E COMERCIO                                        0000000000100000000000000000000000000000856071130000000876710000004360701     201208212012073100000000054320001237648000000001239711000000000000000000000000004126050000000000  3020120822   06          3                                                                                   3043940876711912000139523149                                                  N                     01321  0000000        000098
12053585766000141MULTIACOS INDUSTRIA E COMERCIO                                        0000000000100000000000000000000000000000856071140000000876860000004375101     201208232012073100000000054340000499086000000000499918000000000000000000000000001664050000000000  3020120824   06          3                                                                                   3043940876861912000139523139                                                  N                     01321  0000000        000099
12053585766000141MULTIACOS I C PRODS TEC LTDA                                          0000000042200000000000000000000000000000875773320000000000000000004500802     201210022012090400000000054740000173389000000000173389000000000000000000000000000000050000000000  3020121002   01FS        1                                                                                   3711500005033164919152261179                                                  N                     01321  0000000        000100
12053585766000141MULTIACOS I C PRODS TEC LTDA                                          0000000042200000000000000000000000000000875773330000000000000000004566101     201210012012090400000000054730001320414000000001320414000000000000000000000000000000050000000000  3020121001   01FS        1                                                                                   3711500005033164919152295119                                                  N                     01321  0000000        000101
12053585766000141MULTIACOS I C PRODS TEC LTDA                                          0000000042200000000000000000000000000000875773340000000000000000004584601     201210042012090400000000054760000349502000000000349502000000000000000000000000000000050000000000  3020121004   01FS        1                                                                                   3711500005033164919152309149                                                  N                     01321  0000000        000102
12053585766000141MULTIACOS I C PRODS TEC LTDA                                          0000000042200000000000000000000000000000875773350000000000000000004584801     201210042012090400000000054760000390737000000000390737000000000000000000000000000000050000000000  3020121004   01FS        1                                                                                   3711500005033164919152317119                                                  N                     01321  0000000        000103
12053585766000141MULTIACOS I C PRODS TEC LTDA                                          0000000042200000000000000000000000000000875773540000000000000000004423603     201210022012090400000000054740000606735000000000606735000000000000000000000000000000050000000000  3020121002   01FS        1                                                                                   3711500005033164919152457189                                                  N                     01321  0000000        000104
12053585766000141MULTIACOS I C PRODS TEC LTDA                                          0000000042200000000000000000000000000000875773550000000000000000004437803     201210032012090400000000054750000435925000000000435925000000000000000000000000000000050000000000  3020121003   01FS        1                                                                                   3711500005033164919152503139                                                  N                     01321  0000000        000105
12053585766000141MULTIACOS I C PRODS TEC LTDA                                          0000000042200000000000000000000000000000875773560000000000000000004452003     201210052012090400000000054770000865030000000000865030000000000000000000000000000000050000000000  3020121005   01FS        1                                                                                   3711500005033164919152465149                                                  N                     01321  0000000        000106
12053585766000141MULTIACOS I C PRODS TEC LTDA                                          0000000042200000000000000000000000000000875773360000000000000000004585401     201210042012090400000000054760001079482000000001079482000000000000000000000000000000050000000000  3020121004   01FS        1                                                                                   3711500005033164919152333119                                                  N                     01321  0000000        000107
12053585766000141MULTIACOS I C PRODS TEC LTDA                                          0000000042200000000000000000000000000000875773370000000000000000004570001     201210022012090400000000054740001029874000000001029874000000000000000000000000000000050000000000  3020121002   01FS        1                                                                                   3711500005033164919152341129                                                  N                     01321  0000000        000108
12053585766000141MULTIACOS I C PRODS TEC LTDA                                          0000000042200000000000000000000000000000875773380000000000000000004585101     201210042012090400000000054760000229536000000000229536000000000000000000000000000000050000000000  3020121004   01FS        1                                                                                   3711500005033164919152325169                                                  N                     01321  0000000        000109
12053585766000141MULTIACOS I C PRODS TEC LTDA                                          0000000042200000000000000000000000000000875773390000000000000000004521802     201210052012090400000000054770000811642000000000811642000000000000000000000000000000050000000000  3020121005   01FS        1                                                                                   3711500005033164919152279169                                                  N                     01321  0000000        000110
12053585766000141MULTIACOS I C PRODS TEC LTDA                                          0000000042200000000000000000000000000000875773400000000000000000004500902     201210022012090400000000054740000962577000000000962577000000000000000000000000000000050000000000  3020121002   01FS        1                                                                                   3711500005033164919152287179                                                  N                     01321  0000000        000111
12053585766000141MULTIACOS I C PRODS TEC LTDA                                          0000000042200000000000000000000000000000875773410000000000000000004445203     201210042012090400000000054760000224283000000000224283000000000000000000000000000000050000000000  3020121004   01FS        1                                                                                   3711500005033164919152422119                                                  N                     01321  0000000        000112
12053585766000141MULTIACOS I C PRODS TEC LTDA                                          0000000042200000000000000000000000000000875773420000000000000000004501002     201210022012090400000000054740000902868000000000902868000000000000000000000000000000050000000000  3020121002   01FS        1                                                                                   3711500005033164919152376149                                                  N                     01321  0000000        000113
12053585766000141MULTIACOS I C PRODS TEC LTDA                                          0000000042200000000000000000000000000000875773430000000000000000004446103     201210042012090400000000054760000687401000000000687401000000000000000000000000000000050000000000  3020121004   01FS        1                                                                                   3711500005033164919152431119                                                  N                     01321  0000000        000114
12053585766000141MULTIACOS I C PRODS TEC LTDA                                          0000000042200000000000000000000000000000875773440000000000000000004423703     201210022012090400000000054740000535467000000000535467000000000000000000000000000000050000000000  3020121002   01FS        1                                                                                   3711500005033164919152384119                                                  N                     01321  0000000        000115
12053585766000141MULTIACOS I C PRODS TEC LTDA                                          0000000042200000000000000000000000000000875773450000000000000000004429603     201210032012090400000000054750000910020000000000910020000000000000000000000000000000050000000000  3020121003   01FS        1                                                                                   3711500005033164919152392119                                                  N                     01321  0000000        000116
12053585766000141MULTIACOS I C PRODS TEC LTDA                                          0000000042200000000000000000000000000000875773460000000000000000004429703     201210012012090400000000054730000624532000000000624532000000000000000000000000000000050000000000  3020121001   01FS        1                                                                                   3711500005033164919152406199                                                  N                     01321  0000000        000117
12053585766000141MULTIACOS I C PRODS TEC LTDA                                          0000000042200000000000000000000000000000875773470000000000000000004595001     201210052012090400000000054770000716798000000000716798000000000000000000000000000000050000000000  3020121005   01FS        1                                                                                   3711500005033164919152350149                                                  N                     01321  0000000        000118
12053585766000141MULTIACOS I C PRODS TEC LTDA                                          0000000042200000000000000000000000000000875773480000000000000000004595101     201210052012090400000000054770000365510000000000365510000000000000000000000000000000050000000000  3020121005   01FS        1                                                                                   3711500005033164919152368119                                                  N                     01321  0000000        000119
12053585766000141MULTIACOS I C PRODS TEC LTDA                                          0000000042200000000000000000000000000000875773490000000000000000004453003     201210052012090400000000054770000619209000000000619209000000000000000000000000000000050000000000  3020121005   01FS        1                                                                                   3711500005033164919152414179                                                  N                     01321  0000000        000120
12053585766000141MULTIACOS I C PRODS TEC LTDA                                          0000000042200000000000000000000000000000875773500000000000000000004437503     201210032012090400000000054750000418711000000000418711000000000000000000000000000000050000000000  3020121003   01FS        1                                                                                   3711500005033164919152473129                                                  N                     01321  0000000        000121
12053585766000141MULTIACOS I C PRODS TEC LTDA                                          0000000042200000000000000000000000000000875773510000000000000000004437603     201210032012090400000000054750000311767000000000311767000000000000000000000000000000050000000000  3020121003   01FS        1                                                                                   3711500005033164919152481159                                                  N                     01321  0000000        000122
12053585766000141MULTIACOS I C PRODS TEC LTDA                                          0000000042200000000000000000000000000000875773520000000000000000004447203     201210042012090400000000054760000425031000000000425031000000000000000000000000000000050000000000  3020121004   01FS        1                                                                                   3711500005033164919152449179                                                  N                     01321  0000000        000123
12053585766000141MULTIACOS I C PRODS TEC LTDA                                          0000000042200000000000000000000000000000875773530000000000000000004437703     201210052012090400000000054770000145364000000000145364000000000000000000000000000000050000000000  3020121005   01FS        1                                                                                   3711500005033164919152490159                                                  N                     01321  0000000        000124
12053585766000141MULTIACOS I C PRODS TEC LTDA                                          0000000042200000000000000000000000000000875773270000000000000000004421902     201209172012082100000000054590000942203000000000942203000000000000000000000000000000050000000000  3020120917   01FS        1                                                                                   3711500005033164914700545149                                                  N                     01321  0000000        000125
12053585766000141MULTIACOS I C PRODS TEC LTDA                                          0000000042200000000000000000000000000000875773280000000000000000004493701     201209172012082100000000054590000185498000000000185498000000000000000000000000000000050000000000  3020120917   01FS        1                                                                                   3711500005033164914700537139                                                  N                     01321  0000000        000126
12053585766000141MULTIACOS I C PRODS TEC LTDA                                          0000000042200000000000000000000000000000875773570000000000000000004421903     201210012012090400000000054730000942203000000000942203000000000000000000000000000000050000000000  3020121001   01FS        1                                                                                   3711500005033164919152511129                                                  N                     01321  0000000        000127
12053585766000141MULTIACOS I C PRODS TEC LTDA                                          0000000042200000000000000000000000000000875773580000000000000000004445103     201210042012090400000000054760000287235000000000287235000000000000000000000000000000050000000000  3020121004   01FS        1                                                                                   3711500005033164919152520119                                                  N                     01321  0000000        000128
12055721609000141MAC SEG EQUIP DE SEGURANCA LT                                         0000000034100000000000000000000000000000862826120000002286897653190 1         201208312012080300000000054420000051440000000000052810000000000000000000000000001370050000000000  3020120910   01          2                                                                                   3112286897650037814415800069                                                  N                     01321  0000000        000129
12056993900000131CIA METALURGICA PRADA                                                 0000000034100000000000000000000000000000820562300000002080193680024478203     201208222012053000000000054330000113250000000000116841000000000000000000000000003591050000000000  3020120910   01          2                                                                                   3112080193686293800573900049                                                  N                     01321  0000000        000130
12056993900000131CIA METALURGICA PRADA                                                 0000000034100000000000000000000000000000820562310000002080193690024478303     201208222012053000000000054330000288295000000000297415000000000000000000000000009120050000000000  3020120910   01          2                                                                                   3112080193694293800573900029                                                  N                     01321  0000000        000131
12056993900000131CIA METALURGICA PRADA                                                 0000000034100000000000000000000000000000844839000000002201181880025629402     201209052012071100000000054470000249372000000000251452000000000000000000000000002080050000000000  3020120910   01          2                                                                                   3112201181883293800573900019                                                  N                     01321  0000000        000132
12056993900000131CIA METALURGICA PRADA                                                 0000000034100000000000000000000000000000820562320000002080193700024499403     201208222012053000000000054330000597722000000000616646000000000000000000000000018924050000000000  3020120910   01          2                                                                                   3112080193702293800573900019                                                  N                     01321  0000000        000133
12056993900000131CIA METALURGICA PRADA                                                 0000000034100000000000000000000000000000823343350000002094231770024634803     201208272012060400000000054380000264511000000000270685000000000000000000000000006174050000000000  3020120910   01          2                                                                                   3112094231779293800573900089                                                  N                     01321  0000000        000134
12056993900000131CIA METALURGICA PRADA                                                 0000000034100000000000000000000000000000837460360000002165934320025295402     201208232012062800000000054340000152797000000000157387000000000000000000000000004590050000000000  3020120910   01          2                                                                                   3112165934327293800573900029                                                  N                     01321  0000000        000135
12056993900000131CIA METALURGICA PRADA                                                 0000000034100000000000000000000000000000837460370000002165934330025295502     201208232012062800000000054340000339049000000000349219000000000000000000000000010170050000000000  3020120910   01          2                                                                                   3112165934335293800573900029                                                  N                     01321  0000000        000136
12056993900000131CIA METALURGICA PRADA                                                 0000000034100000000000000000000000000000837460420000002165934340025295602     201208232012062800000000054340000154164000000000158790000000000000000000000000004626050000000000  3020120910   01          2                                                                                   3112165934343293800573900099                                                  N                     01321  0000000        000137
12056993900000131CIA METALURGICA PRADA                                                 0000000034100000000000000000000000000000824820100000002102181160024711603     201208292012060600000000054400000833146000000000849814000000000000000000000000016668050000000000  3020120910   01          2                                                                                   3112102181164293800573900039                                                  N                     01321  0000000        000138
12056993900000131CIA METALURGICA PRADA                                                 0000000034100000000000000000000000000000844839020000002201181900025635402     201209052012071100000000054470000208689000000000210429000000000000000000000000001740050000000000  3020120910   01          2                                                                                   3112201181909293800573900069                                                  N                     01321  0000000        000139
12056993900000131CIA METALURGICA PRADA                                                 0000000034100000000000000000000000000000844839030000002201181910025635502     201209052012071100000000054470000164780000000000166155000000000000000000000000001375050000000000  3020120910   01          2                                                                                   3112201181917293800573900029                                                  N                     01321  0000000        000140
12056993900000131CIA METALURGICA PRADA                                                 0000000034100000000000000000000000000000844839040000002201181920025635602     201209052012071100000000054470000339933000000000342768000000000000000000000000002835050000000000  3020120910   01          2                                                                                   3112201181925293800573900069                                                  N                     01321  0000000        000141
12056993900000131CIA METALURGICA PRADA                                                 0000000034100000000000000000000000000000844839050000002201181930025636202     201209052012071100000000054470000746213000000000752433000000000000000000000000006220050000000000  3020120910   01          2                                                                                   3112201181933293800573900019                                                  N                     01321  0000000        000142
12056993900000131CIA METALURGICA PRADA                                                 0000000034100000000000000000000000000000844839060000002201181940025644402     201209052012071100000000054470000779647000000000786142000000000000000000000000006495050000000000  3020120910   01          2                                                                                   3112201181941293800573900019                                                  N                     01321  0000000        000143
12056993900000131CIA METALURGICA PRADA                                                 0000000034100000000000000000000000000000844839140000002201181870025629302     201209052012071100000000054470000257906000000000260056000000000000000000000000002150050000000000  3020120910   01          2                                                                                   3112201181875293800573900069                                                  N                     01321  0000000        000144
12056993900000131CIA METALURGICA PRADA                                                 0000000034100000000000000000000000000000837460430000002165934350025295702     201208232012062800000000054340000139528000000000143722000000000000000000000000004194050000000000  3020120910   01          2                                                                                   3112165934350293800573900019                                                  N                     01321  0000000        000145
12056993900000131CIA METALURGICA PRADA                                                 0000000034100000000000000000000000000000838527910000002171340450025383502     201208272012063000000000054380000575128000000000588554000000000000000000000000013426050000000000  3020120910   01          2                                                                                   3112171340451293800573900039                                                  N                     01321  0000000        000146
12056993900000131CIA METALURGICA PRADA                                                 0000000034100000000000000000000000000000838527920000002171340460025384302     201208272012063000000000054380000454477000000000465075000000000000000000000000010598050000000000  3020120910   01          2                                                                                   3112171340469293800573900019                                                  N                     01321  0000000        000147
12056993900000131CIA METALURGICA PRADA                                                 0000000034100000000000000000000000000000840312930000002179478290025419302     201208282012070300000000054390000402178000000000410888000000000000000000000000008710050000000000  3020120910   01          2                                                                                   3112179478295293800573900089                                                  N                     01321  0000000        000148
12056993900000131CIA METALURGICA PRADA                                                 0000000034100000000000000000000000000000840312940000002179478300025419402     201208282012070300000000054390000322804000000000329798000000000000000000000000006994050000000000  3020120910   01          2                                                                                   3112179478303293800573900079                                                  N                     01321  0000000        000149
12056993900000131CIA METALURGICA PRADA                                                 0000000034100000000000000000000000000000848180590000002218222640025829901     201208142012071700000000054250000499614000000000506278000000000000000000000000007497050000000000  3020120822   06          3                                                                                   3112218222647293800573900019                                                  N                     01321  0000000        000150
12056993900000131CIA METALURGICA PRADA                                                 0000000034100000000000000000000000000000848180600000002218222650025830001     201208142012071700000000054250000248417000000000251729000000000000000000000000003726050000000000  3020120822   06          3                                                                                   3112218222654293800573900049                                                  N                     01321  0000000        000151
12056993900000131CIA METALURGICA PRADA                                                 0000000034100000000000000000000000000000848180610000002218222660025830101     201208142012071700000000054250000208025000000000210801000000000000000000000000003123050000000000  3020120822   06          3                                                                                   3112218222662293800573900059                                                  N                     01321  0000000        000152
12056993900000131CIA METALURGICA PRADA                                                 0000000034100000000000000000000000000000815444170000002055436910024236003     201208142012052200000000054250000172032000000000172032000000000000000000000000000000050000000000  3020120814   06          3                                                                                   3112055436912293800573900049                                                  N                     01321  0000000        000153
12056993900000131CIA METALURGICA PRADA                                                 0000000034100000000000000000000000000000815444180000002055436920024236103     201208142012052200000000054250000057113000000000057113000000000000000000000000000000050000000000  3020120814   06          3                                                                                   3112055436920293800573900029                                                  N                     01321  0000000        000154
12056993900000131CIA METALURGICA PRADA                                                 0000000034100000000000000000000000000000815444210000002055436930024236203     201208142012052200000000054250000660070000000000660070000000000000000000000000000000050000000000  3020120814   06          3                                                                                   3112055436938293800573900039                                                  N                     01321  0000000        000155
12056993900000131CIA METALURGICA PRADA                                                 0000000034100000000000000000000000000000820562370000002081819570024446303     201208212012052900000000054320000659126000000000659126000000000000000000000000000000050000000000  3020120821   06          3                                                                                   3112081819578293800573900079                                                  N                     01321  0000000        000156
12056993900000131CIA METALURGICA PRADA                                                 0000000034100000000000000000000000000000823343330000002094231750024634603     201208272012060400000000054380000124715000000000127627000000000000000000000000002912050000000000  3020120910   01          2                                                                                   3112094231753293800573900039                                                  N                     01321  0000000        000157
12056993900000131CIA METALURGICA PRADA                                                 0000000034100000000000000000000000000000823343340000002094231760024634703     201208272012060400000000054380000508859000000000520731000000000000000000000000011872050000000000  3020120910   01          2                                                                                   3112094231761293800573900019                                                  N                     01321  0000000        000158
12056993900000131CIA METALURGICA PRADA                                                 0000000034100000000000000000000000000000823343310000002094231740024634203     201208272012060400000000054380000247806000000000253588000000000000000000000000005782050000000000  3020120910   01          2                                                                                   3112094231746293800573900019                                                  N                     01321  0000000        000159
12056993900000131CIA METALURGICA PRADA                                                 0000000034100000000000000000000000000000820562330000002080193710024499503     201208222012053000000000054330000236585000000000244071000000000000000000000000007486050000000000  3020120910   01          2                                                                                   3112080193710293800573900019                                                  N                     01321  0000000        000160
12056993900000131CIA METALURGICA PRADA                                                 0000000034100000000000000000000000000000844839010000002201181890025635302     201209052012071100000000054470000406842000000000410232000000000000000000000000003390050000000000  3020120910   01          2                                                                                   3112201181891293800573900019                                                  N                     01321  0000000        000161
12056993900000131CIA METALURGICA PRADA                                                 0000000034100000000000000000000000000000822364950000002089776730024584703     201208242012060100000000054350000835797000000000859478000000000000000000000000023681050000000000  3020120910   01          2                                                                                   3112089776739293800573900019                                                  N                     01321  0000000        000162
12056993900000131CIA METALURGICA PRADA                                                 0000000034100000000000000000000000000000821491000000002084501930024572503     201208232012053100000000054340000217291000000000223807000000000000000000000000006516050000000000  3020120910   01          2                                                                                   3112084501934293800573900039                                                  N                     01321  0000000        000163
12056993900000131CIA METALURGICA PRADA                                                 0000000034100000000000000000000000000000822364960000002089776740024585703     201208242012060100000000054350000393990000000000405159000000000000000000000000011169050000000000  3020120910   01          2                                                                                   3112089776747293800573900059                                                  N                     01321  0000000        000164
12056993900000131CIA METALURGICA PRADA                                                 0000000034100000000000000000000000000000823343300000002094231730024634103     201208272012060400000000054380000135902000000000139080000000000000000000000000003178050000000000  3020120910   01          2                                                                                   3112094231738293800573900079                                                  N                     01321  0000000        000165
12057158057000130COMERCIAL ELETRICA PJ LTDA                                            0000000023703394400000000972983 00000000842436850090219200008900000305028     201208012012070400000000054120000079196000000000089716000000000000000000000000010520050000000000  3020120910   01          2  R TAMAINDE 1410                                                                  3                         000000000000000                                     N                     00598  0000000        000166
12059659615000177DZ COMERCIO R E SERVICOS LTDA                                         000000003410000000000000000000000000000086699206000000900000270251            201209032012081500000000054450000060000000000000060840000000000000000000000000000840050000000000  3020120910   01          2                                                                                   3109000002706000314585100019                                                  N                     01321  0000000        000167
12059876565000180ITALLUX INDUSTRIA E COMERCIO L                                        000000000010000000000000000000000000000085152921000000223041000003868         201209012012072400000000054430000180000000000000182793000000000000000000000000002793050000000000  3020120910   01          2                                                                                   3043922230411203000086821129                                                  N                     01321  0000000        000168
12061174652000137METALURGICA SCHIOPPA LTDA                                             0000000023703392800000001071602 0000000086120725002022220000022110191 001     201209032012080200000000054450000075159000000000076909000000000000000000000000001750050000000000  3020120910   01          2  RUA GANGES 528                                                                   3                         000000000000000                                     N                     00598  0000000        000169
12061217188000119TELAS METALICAS TELMETAL LTDA                                         0000000003300000000000000000000000000000854049680000000600000005425 2 3       201209032012073000000000054450000045017000000000045377000000000000000000000000000480050000000000  3020120906   06          3                                                                                   3915435040000000047406020119                                                  N                     01321  0000000        000170
12061217188000119TELAS METALICAS TELMETAL LTDA                                         0000000000100000000000000000000000000000857718490000000055780005438 2 3       201209052012080200000000054470000055680000000000056420000000000000000000000000000740050000000000  3020120910   01          2                                                                                   3000000115031800000055781719                                                  N                     01321  0000000        000171
12061217188000119TELAS METALICAS TELMETAL LTDA                                         0000000000100000000000000000000000000000857718520000000055840005442 2 3       201209052012080200000000054470000051613000000000052303000000000000000000000000000690050000000000  3020120910   01          2                                                                                   3000000115031800000055841719                                                  N                     01321  0000000        000172
12061217188000119TELAS METALICAS TELMETAL LTDA                                         0000000000100000000000000000000000000000857718550000000055870005443 2 3       201209052012080200000000054470000041345000000000041895000000000000000000000000000550050000000000  3020120910   01          2                                                                                   3000000115031800000055871739                                                  N                     01321  0000000        000173
12062340989000130EDICOES ADUANEIRAS LTDA                                               0000000023703090200000000015660 0000000079108231009080000035029004262 C       201208302012041100000000054410000043600000000000044392000000000000000000000000000792050000000000  3020120910   01          2  RUA TAMAINDE 1410 RUA GANGES 520 E 528                                           3                         000000000000000                                     N                     00598  0000000        000174
12064952757000168WALMAC COM DE PROD QUIMICOS LT                                        0000000034100000000000000000000000000000844063790000002196829090019356        201209042012071000000000054460000219267000000000221853000000000000000000000000002586050000000000  3020120910   01          2                                                                                   3112196829090064807961400019                                                  N                     01321  0000000        000175
12066899790000105FABRICA ARTEF LATEX ESTRELA EP                                        00000000399000000000000000000000000000008364179700000000000000072894 002      201208282012062900000000054390000134540000000000134540000000000000000000000000000000050000000000  3020120828   05          3                                                                                   3175513061431125027292500149                                                  N                     01321  0000000        000176
12069034668000156SODEXO PASS BRASIL SERV COM SA                                        0000000034100000000000000000000000000000875773650000009217304791200010706     201209222012082300000000054640000395970000000000395970000000000000000000000000000000050000000000  3020120924   01FS        1                                                                                   3109217304795293801455800019                                                  N                     01321  0000000        000177
12069309706000136F N A TRANSPORTES LTDA                                                000000003410000000000000000000000000000086615421000000900010656059068         201208302012081500000000054410000079200000000000082104000000000000000000000000002904050000000000  3020120910   01          2                                                                                   3109000106565005486932600099                                                  N                     01321  0000000        000178
12071580302000124SANCHEPEL IND PAULISTA EMB L                                          0000000034100000000000000000000000000000875773600000002367084007628           201210042012090500000000054760000112700000000000112700000000000000000000000000000000050000000000  3020121004   01FS        1                                                                                   3112367084004007855578600089                                                  N                     01321  0000000        000179
12075483040000130REX MAQUINAS E EQUIPAMENTOS LT                                        00000000001000000000000000000000000000008681263000000091237000079547 2 1      201209062012082100000000054480000064350000000000064778000000000000000000000000000428050000000000  3020120910   01          2                                                                                   3043999123703420001185301189                                                  N                     01321  0000000        000180
12092693118000160BRADESCO SAUDE S A                                                    0000000023700448000000001533991 00000000847452120050100745572410000000000     201208202012071700000000054310000645861000000000654597000000000000000000000000008736050000000000  3020120910   01          2                                                                                   3                         000000000000000                                     N                     00598  0000000        000181
900018200000000062238506                                                                                                                                                                                                                                                                                                                                                                                                                                                                00598  0000000        000182
