0000147602043799295000110ALTAMIRA INDUSTRIA METALURGICA LT       202000000016220121107055813             1                                                                                                                                                                                                                                                                                                                                                                                                    000001
12000329073000121PETRO LIDER DERIV PETR LTDA                                           000000003410000000000000000000000000000089874117000000247270268001019584      201211012012100500000000055040000050000000000000055080000000000000000000000000005096050000000000  3020121106   05          3                                                                                   3112472702680073403145300019                                                  N                     01321  0000000        000002
12001852612000175BT EQUIPAMENTOS INDUSTRIAIS LT                                        000000000330000000000000000000000000000091471909000000800000000052674 1       201211282012103100000000055310000053280000000000053280000000000000000000000000000000050000000000  3020121128   01FS        1                                                                                   3913651000000003015580010419                                                  N                     01321  0000000        000003
12001852612000175BT EQUIPAMENTOS INDUSTRIAIS LT                                        000000000330000000000000000000000000000091471910000000990000000052674 2       201212122012103100000000055450000053280000000000053280000000000000000000000000000000050000000000  3020121212   01FS        1                                                                                   3913651000000003015599010419                                                  N                     01321  0000000        000004
12001895314000162COLETA INDUSTRIAL FIMAVAN LTDA                                        00000000341000000000000000000000000000009032787100000090023540111403          201210272012101700000000054990000140379000000000147301000000000000000000000000006922050000000000  3020121107   01          2                                                                                   3109002354016144604097200019                                                  N                     01321  0000000        000005
12001895314000162COLETA INDUSTRIAL FIMAVAN LTDA                                        0000000034100000000000000000000000000000866992070000009002335349439           201208272012081700000000054380000123695000000000149857000000000000000000000000026162050000000000  3020121107   01          2                                                                                   3109002335346144604097200019                                                  N                     01321  0000000        000006
12002583013000166ITAN TRANSP DE CARGAS EXC E IN                                        000000003410000000000000000000000000000088350836000000239377422008 B          201210212012091400000000054930000192500000000000205590000000000000000000000000013090050000000000  3020121107   01          2                                                                                   3112393774222005770252400039                                                  N                     01321  0000000        000007
12003489596000123BEND FLEX I COMERCIO LTDA                                             000000003410000000000000000000000000000088350832000000171879874608            201209122012082100000000054540000695250000000000771802000000000000000000000000076552050000000000  3020121107   01          2                                                                                   3191718798744157734445800069                                                  N                     01321  0000000        000008
12003489596000123BEND FLEX I COMERCIO LTDA                                             000000003410000000000000000000000000000088599899000000171434574613            201209172012081600000000054590000585000000000000643701000000000000000000000000058701050000000000  3020121107   01          2                                                                                   3191714345748157734445800019                                                  N                     01321  0000000        000009
12003489596000123BEND FLEX I COMERCIO LTDA                                             000000003410000000000000000000000000000091358505000000177374323637            201210292012092700000000055010000110000000000000111944000000000000000000000000001944050000000000  3020121107   01          2                                                                                   3191773743239157734445800019                                                  N                     01321  0000000        000010
12003489596000123BEND FLEX I COMERCIO LTDA                                             000000003410000000000000000000000000000089229254000000797746331637            201210292012100100000000055010000110000000000000112416000000000000000000000000002632050000000000  3020121030   05          3                                                                                   3157977463310157734445800099                                                  N                     01321  0000000        000011
12004643290000142FLEXTINTAS IND E COMERCIO LTDA                                        000000003410000000000000000000000000000089697945000000246363341NFF037938A     201211012012100400000000055040000049525000000000049525000000000000000000000000000000050000000000  3020121101   06          3                                                                                   3112463633415051356781800099                                                  N                     01321  0000000        000012
12005335228000156DINAMICA INF E TELECOM LTDA EP                                        0000000023703257300000000503215 0000000090244992009032570017602MO009089A      201210302012101600000000055020000020000000000000020469000000000000000000000000000536050000000000  3020121106   06          3  RUA JUNO  533                                                                    3                         000000000000000                                     N                     00598  0000000        000013
12005335228000156DINAMICA INF E TELECOM LTDA EP                                        0000000023703257300000000503215 0000000091471894009032570017749MO009193A      201211302012110600000000055330000020000000000000020000000000000000000000000000000000050000000000  3020121130   01FS        1  RUA JUNO  533                                                                    3                         000000000000000                                     N                     00598  0000000        000014
12005852768000107DAOUD LEAL ELETRONICA LTDA ME                                         000000003410000000000000000000000000000089337382000000615297518OUTUBRO        201210262012100200000000054980000016558000000000017285000000000000000000000000000727050000000000  3020121107   01          2                                                                                   3156152975181152944476000059                                                  N                     01321  0000000        000015
12005880850000145NEDERMAN BRASIL COM PROD EX LT                                        000000003410000000000000000000000000000086373178000000614350956002763 A       201209252012081400000000054670000289674000000000314184000000000000000000000000024510050000000000  3020121107   01          2                                                                                   3156143509568160829000100049                                                  N                     01321  0000000        000016
12006000195000156MBA MERCANTIL BRAS DE ACO LTDA                                        0000000034100000000000000000000000000000904173140000001667238290008874B03     201210112012071600000000054830000802825000000000845458000000000000000000000000042633050000000000  3020121107   01          2                                                                                   3191667238296064849251000069                                                  N                     01321  0000000        000017
12006000195000156MBA MERCANTIL BRAS DE ACO LTDA                                        0000000034100000000000000000000000000000889578520000001671394540008920B02     201209162012071700000000054580000576585000000000635553000000000000000000000000058968050000000000  3020121107   01          2                                                                                   3191671394549064849251000099                                                  N                     01321  0000000        000018
12006000195000156MBA MERCANTIL BRAS DE ACO LTDA                                        0000000034100000000000000000000000000000885998980000001667238420008870B02     201209112012071600000000054530000839952000000000934116000000000000000000000000094164050000000000  3020121107   01          2                                                                                   3191667238429064849251000039                                                  N                     01321  0000000        000019
12006000195000156MBA MERCANTIL BRAS DE ACO LTDA                                        0000000034100000000000000000000000000000887698090000001671394550008925B02     201209142012071700000000054560000719581000000000795991000000000000000000000000076410050000000000  3020121107   01          2                                                                                   3191671394556064849251000089                                                  N                     01321  0000000        000020
12006000195000156MBA MERCANTIL BRAS DE ACO LTDA                                        0000000034100000000000000000000000000000887698100000001671394560008926B02     201209142012071700000000054560000387716000000000428918000000000000000000000000041202050000000000  3020121107   01          2                                                                                   3191671394564064849251000019                                                  N                     01321  0000000        000021
12006000195000156MBA MERCANTIL BRAS DE ACO LTDA                                        0000000034100000000000000000000000000000904173150000001667238300008870B03     201210092012071600000000054810000839951000000000887859000000000000000000000000047908050000000000  3020121107   01          2                                                                                   3191667238304064849251000039                                                  N                     01321  0000000        000022
12006000195000156MBA MERCANTIL BRAS DE ACO LTDA                                        0000000034100000000000000000000000000000904173160000001667238280008876B03     201210122012071600000000054840000810320000000000851764000000000000000000000000041444050000000000  3020121107   01          2                                                                                   3191667238288064849251000079                                                  N                     01321  0000000        000023
12006000195000156MBA MERCANTIL BRAS DE ACO LTDA                                        0000000034100000000000000000000000000000904173170000001671394420008925B03     201210122012071700000000054840000719580000000000756370000000000000000000000000036790050000000000  3020121107   01          2                                                                                   3191671394424064849251000069                                                  N                     01321  0000000        000024
12006000195000156MBA MERCANTIL BRAS DE ACO LTDA                                        0000000034100000000000000000000000000000904173180000001671394430008926B03     201210122012071700000000054840000387716000000000407554000000000000000000000000019838050000000000  3020121107   01          2                                                                                   3191671394432064849251000079                                                  N                     01321  0000000        000025
12006000195000156MBA MERCANTIL BRAS DE ACO LTDA                                        0000000034100000000000000000000000000000906662670000001671394410008920B03     201210142012071700000000054860000576584000000000603800000000000000000000000000027216050000000000  3020121107   01          2                                                                                   3191671394416064849251000039                                                  N                     01321  0000000        000026
12006000195000156M B A MERCANTIL BRASILEIRA DE                                         0000000023700118P00000002130599 00000000848180770020220100000340008905B03     201210112012071900000000054830000155300000000000162293000000000000000000000000006993050000000000  3020121107   01          2  RUA JUNO  533                                                                    3                         000000000000000                                     N                     00598  0000000        000027
12006000195000156M B A MERCANTIL BRASILEIRA DE                                         0000000023700118P00000002130599 00000000868592690020223600000020009229B02     201210112012081600000000054830000253414000000000264808000000000000000000000000011394050000000000  3020121107   01          2  RUA JUNO  533                                                                    3                         000000000000000                                     N                     00598  0000000        000028
12006000195000156M B A MERCANTIL BRASILEIRA DE                                         0000000023700118P00000002130599 00000000865388260020222900000470009204B02     201210112012081500000000054830000127292000000000133016000000000000000000000000005724050000000000  3020121107   01          2  RUA JUNO  533                                                                    3                         000000000000000                                     N                     00598  0000000        000029
12006000195000156M B A MERCANTIL BRASILEIRA DE                                         0000000023700118P00000002130599 00000000865388290020222900000500009205B02     201210122012081500000000054840000348964000000000364096000000000000000000000000015132050000000000  3020121107   01          2  RUA JUNO  533                                                                    3                         000000000000000                                     N                     00598  0000000        000030
12006000195000156M B A MERCANTIL BRASILEIRA DE                                         0000000023700118P00000002130599 00000000865388320020222900000530009206B02     201210132012081500000000054850000527560000000000549535000000000000000000000000021975050000000000  3020121107   01          2  RUA JUNO  533                                                                    3                         000000000000000                                     N                     00598  0000000        000031
12006000195000156M B A MERCANTIL BRASILEIRA DE                                         0000000023700118P00000002128292 00000000885999040090220600000170008946B02     201209172012072300000000054590000647873000000000647873000000000000000000000000000000050000000000  3020120921   05          3  RUA JUNO  533                                                                    3                         000000000000000                                     N                     00598  0000000        000032
12006000195000156M B A MERCANTIL BRASILEIRA DE                                         0000000023700118P00000002128292 00000000901455020090219900000660008865B03     201210082012071600000000054800000695457000000000695457000000000000000000000000000000050000000000  3020121017   05          3  RUA JUNO   533                                                                   3                         000000000000000                                     N                     00598  0000000        000033
12006000195000156M B A MERCANTIL BRASILEIRA DE                                         0000000023700118P00000002128292 00000000901455030090219900000720008857B03     201210052012071300000000054770000827402000000000827402000000000000000000000000000000050000000000  3020121017   05          3  RUA JUNO  533                                                                    3                         000000000000000                                     N                     00598  0000000        000034
12006000195000156M B A MERCANTIL BRASILEIRA DE                                         0000000023700118P00000002128292 00000000901455040090219900000780008864B03     201210082012071600000000054800000169189000000000169189000000000000000000000000000000050000000000  3020121017   05          3  RUA JUNO  533                                                                    3                         000000000000000                                     N                     00598  0000000        000035
12006000195000156M B A MERCANTIL BRASILEIRA DE                                         0000000023700118P00000002128292 00000000889578590090220600000040008949B02     201209192012072300000000054610000194693000000000194693000000000000000000000000000000050000000000  3020120927   05          3  RUA JUNO  533                                                                    3                         000000000000000                                     N                     00598  0000000        000036
12006000195000156M B A MERCANTIL BRASILEIRA DE                                         0000000023700118P00000002130599 00000000853155000020220900000460008967B03     201210182012072400000000054900000135605000000000139899000000000000000000000000004520050000000000  3020121106   05          3  RUA JUNO  533                                                                    3                         000000000000000                                     N                     00598  0000000        000037
12006000195000156M B A MERCANTIL BRASILEIRA DE                                         0000000023700118P00000002130599 00000000853155030020220900000530008971B03     201210162012072400000000054880000170465000000000176429000000000000000000000000006248050000000000  3020121106   05          3  RUA JUNO  533                                                                    3                         000000000000000                                     N                     00598  0000000        000038
12006000195000156M B A MERCANTIL BRASILEIRA DE                                         0000000023700118P00000002130599 00000000853155060020220900000660008985B03     201210172012072500000000054890000141846000000000146566000000000000000000000000004956050000000000  3020121106   05          3  RUA JUNO  533                                                                    3                         000000000000000                                     N                     00598  0000000        000039
12006000195000156M B A MERCANTIL BRASILEIRA DE                                         0000000023700118P00000002130599 00000000853155090020220900000690008986B03     201210172012072500000000054890000126718000000000130938000000000000000000000000004431050000000000  3020121106   05          3  RUA JUNO  533                                                                    3                         000000000000000                                     N                     00598  0000000        000040
12006000195000156M B A MERCANTIL BRASILEIRA DE                                         0000000023700118P00000002128292 00000000904173350090220100000200008906B03     201210122012071900000000054840000492064000000000492064000000000000000000000000000000050000000000  3020121022   05          3  RUA JUNO  533                                                                    3                         000000000000000                                     N                     00598  0000000        000041
12006000195000156M B A MERCANTIL BRASILEIRA DE                                         0000000023700118P00000002128292 00000000905040970090220100000140008907B03     201210132012071900000000054850000566156000000000566156000000000000000000000000000000050000000000  3020121023   05          3  RUA JUNO  533                                                                    3                         000000000000000                                     N                     00598  0000000        000042
12006000195000156M B A MERCANTIL BRASILEIRA DE                                         0000000023700118P00000002128292 00000000894344240090218400000190008737B03     201209262012062900000000054680000582257000000000582257000000000000000000000000000000050000000000  3020121004   05          3  RUA JUNO  533                                                                    3                         000000000000000                                     N                     00598  0000000        000043
12006000195000156M B A MERCANTIL BRASILEIRA DE                                         0000000023700118P00000002128292 00000000894344250090218400000250008735B03     201209242012062900000000054660000363851000000000363851000000000000000000000000000000050000000000  3020121004   05          3  RUA JUNO  533                                                                    3                         000000000000000                                     N                     00598  0000000        000044
12006000195000156M B A MERCANTIL BRASILEIRA DE                                         0000000023700118P00000002128292 00000000894344260090220800000340008988B02     201209252012072500000000054670000378851000000000378851000000000000000000000000000000050000000000  3020121004   05          3  RUA JUNO  533                                                                    3                         000000000000000                                     N                     00598  0000000        000045
12006000195000156M B A MERCANTIL BRASILEIRA DE                                         0000000023700118P00000002128292 00000000895189920090219200000120008786B03     201209272012070500000000054690000301974000000000301974000000000000000000000000000000050000000000  3020121005   05          3  RUA JUNO  533                                                                    3                         000000000000000                                     N                     00598  0000000        000046
12006000195000156M B A MERCANTIL BRASILEIRA DE                                         0000000023700118P00000002128292 00000000895189930090221600000360009067B02     201209272012080200000000054690000830191000000000830191000000000000000000000000000000050000000000  3020121005   05          3  RUA JUNO  533                                                                    3                         000000000000000                                     N                     00598  0000000        000047
12006000195000156M B A MERCANTIL BRASILEIRA DE                                         0000000023700118P00000002128292 00000000896050460090219200000180008794B03     201209282012070600000000054700001003532000000001003532000000000000000000000000000000050000000000  3020121008   05          3  RUA JUNO  533                                                                    3                         000000000000000                                     N                     00598  0000000        000048
12006000195000156M B A MERCANTIL BRASILEIRA DE                                         0000000023700118P00000002128292 00000000905810090090220600000120008948B03     201210162012072300000000054880000437437000000000437437000000000000000000000000000000050000000000  3020121024   05          3  RUA JUNHO  533                                                                   3                         000000000000000                                     N                     00598  0000000        000049
12006000195000156M B A MERCANTIL BRASILEIRA DE                                         0000000023700118P00000002128292 00000000905810100090220600000190008946B03     201210152012072300000000054870000647873000000000647873000000000000000000000000000000050000000000  3020121024   05          3  RUA JUNO  533                                                                    3                         000000000000000                                     N                     00598  0000000        000050
12006000195000156M B A MERCANTIL BRASILEIRA DE                                         0000000023700118P00000002130599 00000000853155120020220900000720008987B03     201210182012072500000000054900000188368000000000194334000000000000000000000000006280050000000000  3020121106   05          3  RUA JUNO  533                                                                    3                         000000000000000                                     N                     00598  0000000        000051
12006000195000156M B A MERCANTIL BRASILEIRA DE                                         0000000000100000000000000000000000000000855028920000007952940000009010B03     201210252012073000000000054970000275045000000000277793000000000000000000000000003206050000000000  3020121031   05          3                                                                                   3043937952943333000105251199                                                  N                     01321  0000000        000052
12006000195000156M B A MERCANTIL BRASILEIRA DE                                         0000000023700118P00000002128292 00000000884432740090219900000640008865B02     201209102012071600000000054520000695457000000000695457000000000000000000000000000000050000000000  3020120919   05          3  RUA JUNO  533                                                                    3                         000000000000000                                     N                     00598  0000000        000053
12006000195000156M B A MERCANTIL BRASILEIRA DE                                         0000000023700118P00000002128292 00000000884432750090219900000760008864B02     201209102012071600000000054520000169188000000000169188000000000000000000000000000000050000000000  3020120919   05          3  RUA JUNO  533                                                                    3                         000000000000000                                     N                     00598  0000000        000054
12006000195000156M B A MERCANTIL BRASILEIRA DE                                         0000000023700118P00000002128292 00000000882668440090217000000060008573B03     201209072012061500000000054490000927528000000000927528000000000000000000000000000000050000000000  3020120917   05          3  RUA JUNO  533                                                                    3                         000000000000000                                     N                     00598  0000000        000055
12006000195000156M B A MERCANTIL BRASILEIRA DE                                         0000000023700118P00000002128292 00000000882668450090217000000120008589B03     201209072012061500000000054490000336000000000000336000000000000000000000000000000000050000000000  3020120917   05          3  RUA JUNO  533                                                                    3                         000000000000000                                     N                     00598  0000000        000056
12006000195000156M B A MERCANTIL BRASILEIRA DE                                         0000000023700118P00000002128292 00000000882668460090217000000180008590B03     201209072012061500000000054490000365507000000000365507000000000000000000000000000000050000000000  3020120917   05          3  RUA JUNO  533                                                                    3                         000000000000000                                     N                     00598  0000000        000057
12006000195000156M B A MERCANTIL BRASILEIRA DE                                         0000000023700118P00000002128292 00000000882668470090217000000240008592B03     201209072012061500000000054490000166992000000000166992000000000000000000000000000000050000000000  3020120917   05          3  RUA JUNO  533                                                                    3                         000000000000000                                     N                     00598  0000000        000058
12006000195000156M B A MERCANTIL BRASILEIRA DE                                         0000000023700118P00000002128292 00000000882668480090219900000700008857B02     201209072012071300000000054490000827402000000000827402000000000000000000000000000000050000000000  3020120917   05          3  RUA JUNO  533                                                                    3                         000000000000000                                     N                     00598  0000000        000059
12006000195000156M B A MERCANTIL BRASILEIRA DE                                         0000000023700118P00000002128292 00000000885999000090217800000410008689B03     201209172012062500000000054590000183780000000000183780000000000000000000000000000000050000000000  3020120921   05          3  RUA JUNO  533                                                                    3                         000000000000000                                     N                     00598  0000000        000060
12006000195000156M B A MERCANTIL BRASILEIRA DE                                         0000000023700118P00000002128292 00000000885999010090220100000120008907B02     201209152012071900000000054570000566157000000000566157000000000000000000000000000000050000000000  3020120921   05          3  RUA JUNO  533                                                                    3                         000000000000000                                     N                     00598  0000000        000061
12006000195000156M B A MERCANTIL BRASILEIRA DE                                         0000000023700118P00000002128292 00000000885999020090220100000180008906B02     201209142012071900000000054560000492065000000000492065000000000000000000000000000000050000000000  3020120921   05          3  RUA JUNO  533                                                                    3                         000000000000000                                     N                     00598  0000000        000062
12006000195000156M B A MERCANTIL BRASILEIRA DE                                         0000000023700118P00000002128292 00000000885999030090220600000100008948B02     201209182012072300000000054600000437437000000000437437000000000000000000000000000000050000000000  3020120921   05          3  RUA JUNO  533                                                                    3                         000000000000000                                     N                     00598  0000000        000063
12006000195000156M B A MERCANTIL BRASILEIRA DE                                         0000000023700118P00000002128292 00000000906662740090220600000060008949B03     201210172012072300000000054890000194693000000000194693000000000000000000000000000000050000000000  3020121025   05          3  RUA JUNO  533                                                                    3                         000000000000000                                     N                     00598  0000000        000064
12006000195000156M B A MERCANTIL BRASILEIRA DE                                         0000000023700118P00000002128292 00000000891335360090218400000070008760B03     201209212012062900000000054630000862785000000000862785000000000000000000000000000000050000000000  3020121001   05          3  RUA JUNO  533                                                                    3                         000000000000000                                     N                     00598  0000000        000065
12006000195000156M B A MERCANTIL BRASILEIRA DE                                         0000000023700118P00000002128292 00000000891335370090218400000130008753B03     201209212012062900000000054630000273651000000000273651000000000000000000000000000000050000000000  3020121001   05          3  RUA JUNO  533                                                                    3                         000000000000000                                     N                     00598  0000000        000066
12007289649000113CRC LASER SUPR INF LTDA EPP                                           000000003410000000000000000000000000000091471898000000702929251000001203      201212032012110600000000055360000036440000000000036440000000000000000000000000000000050000000000  3020121203   01FS        1                                                                                   3157029292519000265431700089                                                  N                     01321  0000000        000067
12007289649000113CRC LASER SUPR INF LTDA EPP                                           000000003410000000000000000000000000000089518989000000798566603000001157      201211022012100400000000055050000029940000000000030834000000000000000000000000000894050000000000  3020121107   01          2                                                                                   3157985666037000265431700019                                                  N                     01321  0000000        000068
12008594182000188ACOS G3 COMERCIO E BENEFICIAME                                        0000000023703137200000000091332 00000000912467990090227100000251155        001201210252012092700000000054970000152346000000000156219000000000000000000000000003873050000000000  3020121107   01          2  RUA GANGES  528                                                                  3                         000000000000000                                     N                     00598  0000000        000069
12009034654000291STEEL PRODUCTS DO BRASIL LTDA                                         0000000000100000000000000000000000000000914718910000005529180002470 1 3       201211232012110500000000055260000132000000000000132000000000000000000000000000000000050000000000  3020121123   01FS        1                                                                                   3000000221373244205529181169                                                  N                     01321  0000000        000070
12009034654000291STEEL PRODUCTS DO BRASIL LTDA                                         0000000000100000000000000000000000000000914718920000005529190002470 2 3       201212082012110500000000055410000132000000000000132000000000000000000000000000000000050000000000  3020121210   01FS        1                                                                                   3000000221373244205529191149                                                  N                     01321  0000000        000071
12009034654000291STEEL PRODUCTS DO BRASIL LTDA                                         0000000000100000000000000000000000000000914718930000005529200002470 3 3       201212232012110500000000055560000132000000000000132000000000000000000000000000000000050000000000  3020121224   01FS        1                                                                                   3000000221373244205529201149                                                  N                     01321  0000000        000072
12009338857000190FERNANDO  NAGAO  CARDONE  ALVA                                        000000000330000000000000000000000000000089697936000000800000000ALTA 10 2012   201210202012092500000000054920000134632000000000143250000000000000000000000000008618050000000000  3020121107   01          2                                                                                   3947901700000051050080010129                                                  N                     01321  0000000        000073
12011202309000180FIEL TOOLS DISTRIBUIDORA DE MA                                        0000000023702087700000000000116 0000000091358510009000020196861009686 1       201210262012092800000000054980000041000000000000042845000000000000000000000000001845050000000000  3020121106   06          3  R TAMAINDE  1 410   RUA GANGES  520 E 52                                         3                         000000000000000                                     N                     00598  0000000        000074
12011202309000180FIEL TOOLS DISTRIBUIDORA DE MA                                        0000000023702087700000000000116 0000000089133535009000020196862009686 2       201211022012092800000000055050000041000000000000041000000000000000000000000000000000050000000000  3020121105   06          3  R TAMAINDE  1 410   RUA GANGES  520 E 52                                         3                         000000000000000                                     N                     00598  0000000        000075
12012006058000121WEG TINTAS LTDA                                                       0000000023702727800000000001309 00000000868126350090223500001180016086602     201210202012082100000000054920000306569000000000313913000000000000000000000000007344050000000000  3020121107   01          2  R JUNO  533                                                                      3                         000000000000000                                     N                     00598  0000000        000076
12012006058000121WEG TINTAS LTDA                                                       0000000023702727800000000001309 00000000868126360090223500001190016086603     201211042012082100000000055070000306662000000000307886000000000000000000000000001224050000000000  3020121107   01          2  R JUNO  533                                                                      3                         000000000000000                                     N                     00598  0000000        000077
12012006058000121WEG TINTAS LTDA                                                       0000000023702727800000000001309 00000000870177480090224100000970016248001     201210112012082700000000054830000306569000000000317585000000000000000000000000011016050000000000  3020121107   01          2  R JUNO  533                                                                      3                         000000000000000                                     N                     00598  0000000        000078
12012006058000121WEG TINTAS LTDA                                                       0000000023702727800000000001309 00000000870177490090224100000980016248002     201210262012082700000000054980000306569000000000311465000000000000000000000000004896050000000000  3020121107   01          2  R JUNO  533                                                                      3                         000000000000000                                     N                     00598  0000000        000079
12012006058000121WEG TINTAS LTDA                                                       0000000023702727800000000001309 00000000872318650090224700001030016359601     201210152012083100000000054870000459854000000000473953000000000000000000000000014099050000000000  3020121107   01          2  R JUNO  533                                                                      3                         000000000000000                                     N                     00598  0000000        000080
12012006058000121WEG TINTAS LTDA                                                       0000000023702727800000000001309 00000000872318660090224700001040016359602     201210302012083100000000055020000459854000000000464758000000000000000000000000004904050000000000  3020121107   01          2  R JUNO  533                                                                      3                         000000000000000                                     N                     00598  0000000        000081
12012006058000121WEG TINTAS LTDA                                                       0000000023702727800000000001309 00000000878206040090225400000780016517201     201210212012090600000000054930000459854000000000470275000000000000000000000000010421050000000000  3020121107   01          2  R JUNO  533                                                                      3                         000000000000000                                     N                     00598  0000000        000082
12012006058000121WEG TINTAS LTDA                                                       0000000023702727800000000001309 00000000878206050090225400000790016517202     201211052012090600000000055080000459854000000000461080000000000000000000000000001226050000000000  3020121107   01          2  R JUNO  533                                                                      3                         000000000000000                                     N                     00598  0000000        000083
12012006058000121WEG TINTAS LTDA                                                       0000000023702727800000000001309 00000000882668410090225800000740016626901     201210282012091300000000055000000459854000000000465984000000000000000000000000006130050000000000  3020121107   01          2  R JUNO  533                                                                      3                         000000000000000                                     N                     00598  0000000        000084
12012006058000121WEG TINTAS LTDA                                                       0000000023702727800000000001309 00000000854049560090221200001020015513003     201210102012072700000000054820000459992000000000477156000000000000000000000000017164050000000000  3020121107   01          2  R JUNO  533                                                                      3                         000000000000000                                     N                     00598  0000000        000085
12012006058000121WEG TINTAS LTDA                                                       0000000023702727800000000001309 00000000861207280090222200000920015775003     201210222012080800000000054940000306662000000000313190000000000000000000000000006528050000000000  3020121107   01          2  R JUNO  533                                                                      3                         000000000000000                                     N                     00598  0000000        000086
12012006058000121WEG TINTAS LTDA                                                       0000000023702727800000000001309 00000000856071270090221400000840015587303     201210142012073100000000054860000459992000000000474704000000000000000000000000014712050000000000  3020121107   01          2  R JUNO  533                                                                      3                         000000000000000                                     N                     00598  0000000        000087
12012006058000121WEG TINTAS LTDA                                                       0000000023702727800000000001309 00000000864554450090222800000740015908402     201210132012081400000000054850000306569000000000316769000000000000000000000000010200050000000000  3020121107   01          2  R JUNO  533                                                                      3                         000000000000000                                     N                     00598  0000000        000088
12012006058000121WEG TINTAS LTDA                                                       0000000023702727800000000001309 00000000864554460090222800000750015908403     201210282012081400000000055000000306662000000000310742000000000000000000000000004080050000000000  3020121107   01          2  R JUNO  533                                                                      3                         000000000000000                                     N                     00598  0000000        000089
12013937547000160DUBAY COMERCIAL LTDA                                                  0000000023701744200000000358460 0000000091471908009023110000004508 B          201212112012110600000000055440000045242000000000045242000000000000000000000000000000050000000000  3020121211   01FS        1  RUA TAMAINDE                                                                     3                         000000000000000                                     N                     00598  0000000        000090
12013937547000160DUBAY COMERCIAL LTDA                                                  0000000023701744200000000358460 0000000091471907009023110000002508 A          201212042012110600000000055370000045242000000000045242000000000000000000000000000000050000000000  3020121204   01FS        1  RUA TAMAINDE                                                                     3                         000000000000000                                     N                     00598  0000000        000091
12014775592000128HELIO ADRIANO DA SILVA ME                                             0000000023700593200000002432943 00000000903278720090229200000038935           201211052012101800000000055080000075000000000000075000000000000000000000000000000000050000000000  3020121105   06          3  AV TAMAINDE 1410                                                                 3                         000000000000000                                     N                     00598  0000000        000092
12014978305000187MOGI FILME INDUSTRIA E COMERCI                                        0000000023700402200000001055003 0000000091471906009023110000010461         002201212212012110600000000055540000041975000000000041975000000000000000000000000000000050000000000  3020121221   01FS        1  RUA TAMAINDE 1410 VL NOVA MANCHESTER                                             3                         000000000000000                                     N                     00598  0000000        000093
12014978305000187MOGI FILME INDUSTRIA E COMERCI                                        0000000023700402200000001055003 0000000091471905009023110000009461         001201212062012110600000000055390000041975000000000041975000000000000000000000000000000050000000000  3020121206   01FS        1  RUA TAMAINDE 1410 VL NOVA MANCHESTER                                             3                         000000000000000                                     N                     00598  0000000        000094
12016802308000190TRANSMARRECO LTDA                                                     000000000330000000000000000000000000000088769814000000640000000353 12         201210052012092100000000054770000106581000000000118953000000000000000000000000012692050000000000  3020121106   06          3                                                                                   3907636240000000643564010119                                                  N                     01321  0000000        000095
12027278100000130EXPRESSO BOAS NOVAS LTDA                                              0000000034100000000000000000000000000000914719040000009004319961210001917     201211202012103100000000055230000018902000000000018902000000000000000000000000000000050000000000  3020121120   01FS        1                                                                                   3109004319969128259510500079                                                  N                     01321  0000000        000096
12033325184001786ALSCO TOALHEIRO BRASIL                                                0000000023703396000000001490850 0000000089697954009000029120903VM00291209     201211052012100100000000055080000026347000000000026373000000000000000000000000000052050000000000  3020121106   06          3  RUA  GANGES 528                                                                  3                         000000000000000                                     N                     00598  0000000        000097
12035820448000136WHITE MARTINS GASES INDUSTRIAI                                        0000000023700026400000003937925 0000000088686659009022650001000382942 001     201210182012092100000000054900000121725000000000124938000000000000000000000000003254050000000000  3020121106   06          3  RUA GANGES  528                                                                  3                         000000000000000                                     N                     00598  0000000        000098
12035820448000136WHITE MARTINS GASES INDUSTRIAI                                        0000000023700026400000003937925 0000000088524829009022630001577381808 001     201210162012091900000000054880000121725000000000125020000000000000000000000000003336050000000000  3020121106   06          3  RUA GANGES  528                                                                  3                         000000000000000                                     N                     00598  0000000        000099
12042956441000101SOLUCOES ACO USIMINAS                                                 0000000034100000000000000000000000000000855028770000002254329400017220502     201209212012072700000000054630000981022000000001073236000000000000000000000000092214050000000000  3020121107   01          2                                                                                   3112254329405293807258000099                                                  N                     01321  0000000        000100
12042956441000101SOLUCOES ACO USIMINAS                                                 0000000034100000000000000000000000000000856906410000002262886280017266201     201208282012073000000000054390000119472000000000136441000000000000000000000000016969050000000000  3020121107   01          2                                                                                   3112262886289293807258000089                                                  N                     01321  0000000        000101
12042956441000101SOLUCOES ACO USIMINAS                                                 0000000034100000000000000000000000000000846595700000002210880280016980502     201209102012071200000000054520000156071000000000174167000000000000000000000000018096050000000000  3020121107   01          2                                                                                   3112210880285293807258000039                                                  N                     01321  0000000        000102
12042956441000101SOLUCOES ACO USIMINAS                                                 0000000034100000000000000000000000000000846595710000002210880290016980602     201209102012071200000000054520000426094000000000475510000000000000000000000000049416050000000000  3020121107   01          2                                                                                   3112210880293293807258000019                                                  N                     01321  0000000        000103
12042956441000101SOLUCOES ACO USIMINAS                                                 0000000034100000000000000000000000000000856906420000002262886290017266301     201208282012073000000000054390000145069000000000165659000000000000000000000000020590050000000000  3020121107   01          2                                                                                   3112262886297293807258000099                                                  N                     01321  0000000        000104
12042956441000101SOLUCOES ACO USIMINAS                                                 0000000034100000000000000000000000000000859590620000002274469790017353702     201209282012080300000000054700000081053000000000087533000000000000000000000000006480050000000000  3020121107   01          2                                                                                   3112274469793293807258000069                                                  N                     01321  0000000        000105
12042956441000101SOLUCOES ACO USIMINAS                                                 0000000034100000000000000000000000000000847452070000002216130350005922202     201209102012071600000000054520000172071000000000192023000000000000000000000000019952050000000000  3020121107   01          2                                                                                   3112216130354293807258000049                                                  N                     01321  0000000        000106
12042956441000101SOLUCOES ACO USIMINAS                                                 0000000034100000000000000000000000000000847452100000002216130340017012402     201209102012071500000000054520000147428000000000164538000000000000000000000000017110050000000000  3020121107   01          2                                                                                   3112216130347293807258000059                                                  N                     01321  0000000        000107
12042956441000101SOLUCOES ACO USIMINAS                                                 0000000034100000000000000000000000000000853154840000002246247030017196702     201209202012072500000000054620000234841000000000257401000000000000000000000000022560050000000000  3020121107   01          2                                                                                   3112246247038293807258000099                                                  N                     01321  0000000        000108
12042956441000101SOLUCOES ACO USIMINAS                                                 0000000034100000000000000000000000000000853154850000002246247040017197302     201209202012072500000000054620000970103000000001063223000000000000000000000000093120050000000000  3020121107   01          2                                                                                   3112246247046293807258000019                                                  N                     01321  0000000        000109
12042956441000101SOLUCOES ACO USIMINAS                                                 0000000034100000000000000000000000000000848180700000002220192900017041002     201209112012071700000000054530000155433000000000173160000000000000000000000000017727050000000000  3020121107   01          2                                                                                   3112220192903293807258000029                                                  N                     01321  0000000        000110
12042956441000101SOLUCOES ACO USIMINAS                                                 0000000034100000000000000000000000000000848180710000002220192910017041202     201209112012071700000000054530000205421000000000228848000000000000000000000000023427050000000000  3020121107   01          2                                                                                   3112220192911293807258000019                                                  N                     01321  0000000        000111
12042956441000101SOLUCOES ACO USIMINAS                                                 0000000034100000000000000000000000000000850740460000002233586800017127201     201208202012072000000000054310000137881000000000159685000000000000000000000000021804050000000000  3020121107   01          2                                                                                   3112233586802293807258000019                                                  N                     01321  0000000        000112
12042956441000101SOLUCOES ACO USIMINAS                                                 0000000034100000000000000000000000000000850740470000002233586810017101002     201209142012071900000000054560000732575000000000811685000000000000000000000000079110050000000000  3020121107   01          2                                                                                   3112233586810293807258000019                                                  N                     01321  0000000        000113
12042956441000101SOLUCOES ACO USIMINAS                                                 0000000034100000000000000000000000000000850740480000002233586820017101202     201209142012071900000000054560000144634000000000160240000000000000000000000000015606050000000000  3020121107   01          2                                                                                   3112233586828293807258000029                                                  N                     01321  0000000        000114
12042956441000101SOLUCOES ACO USIMINAS                                                 0000000034100000000000000000000000000000855028690000002254329380017212902     201209212012072600000000054630000140098000000000153258000000000000000000000000013160050000000000  3020121107   01          2                                                                                   3112254329389293807258000019                                                  N                     01321  0000000        000115
12042956441000101SOLUCOES ACO USIMINAS                                                 0000000034100000000000000000000000000000855028700000002254329390017213002     201209212012072600000000054630000140602000000000153809000000000000000000000000013207050000000000  3020121107   01          2                                                                                   3112254329397293807258000089                                                  N                     01321  0000000        000116
12045987005000198COMERCIAL AUTOMOTIVA SA                                               0000000039900000000000000000000000000000886866620000000000000000              201210182012091800000000054900000070900000000000070900000000000000000000000000000000050000000000  3020121018   06          3                                                                                   3232000009191195097311000169                                                  N                     01321  0000000        000117
12047190731000100DE CASTRO LOUREIRO ENGENHARIA                                         00000000033000000000000000000000000000008801226800000018000000003026796 0     201210012012090300000000054730000551107000000000562129000000000000000000000000011022050000000000  3020121002   06          3                                                                                   3948430370000009553118020339                                                  N                     01321  0000000        000118
12047190731000100DE CASTRO LOUR ENG IND LTDA                                           00000000341000000000000000000000000000008782050900000023399953503026612 0     201209182012082100000000054600001111489000000001220789000000000000000000000000109300050000000000  3020121107   01          2                                                                                   3112339995352036884500400019                                                  N                     01321  0000000        000119
12047190731000100DE CASTRO LOUR ENG IND LTDA                                           00000000341000000000000000000000000000008782051200000023399953803026613 0     201209182012082100000000054600001107989000000001216939000000000000000000000000108950050000000000  3020121107   01          2                                                                                   3112339995386036884500400039                                                  N                     01321  0000000        000120
12047190731000100DE CASTRO LOUR ENG IND LTDA                                           00000000341000000000000000000000000000008782051600000023399954103026614 0     201209182012082100000000054600001047621000000001150621000000000000000000000000103000050000000000  3020121107   01          2                                                                                   3112339995410036884500400039                                                  N                     01321  0000000        000121
12047190731000100DE CASTRO LOUR ENG IND LTDA                                           00000000341000000000000000000000000000008782052000000023399955303026632 0     201209192012082200000000054610000952073000000001043801000000000000000000000000091728050000000000  3020121107   01          2                                                                                   3112339995535036884500400019                                                  N                     01321  0000000        000122
12047190731000100DE CASTRO LOUR ENG IND LTDA                                           00000000341000000000000000000000000000008782052100000023399955903026643 0     201209202012082300000000054620000867039000000000948879000000000000000000000000081840050000000000  3020121107   01          2                                                                                   3112339995592036884500400049                                                  N                     01321  0000000        000123
12047190731000100DE CASTRO LOUR ENG IND LTDA                                           00000000341000000000000000000000000000008782052500000023399955603026636 0     201209192012082200000000054610000940804000000001031454000000000000000000000000090650050000000000  3020121107   01          2                                                                                   3112339995568036884500400049                                                  N                     01321  0000000        000124
12047190731000100DE CASTRO LOUR ENG IND LTDA                                           00000000341000000000000000000000000000008782052700000023399956203026648 0     201209202012082300000000054620000976053000000001068213000000000000000000000000092160050000000000  3020121107   01          2                                                                                   3112339995626036884500400029                                                  N                     01321  0000000        000125
12048775225000146SEIKI IND COM E CONFECCOES LTD                                        000000003410000000000000000000000000000089337376000000244697151014914001      201210232012092500000000054950000052000000000000053170000000000000000000000000001170050000000000  3020121107   01          2                                                                                   3112446971510017444824100089                                                  N                     01321  0000000        000126
12049341563000132JAC COMERCIO DE MATERIAIS ELET                                        0000000023700293300000001478699 00000000892292570020132275064592321702        201211052012100100000000055080000046351000000000046428000000000000000000000000000154050000000000  3020121106   06          3  R GANGES 528                                                                     3                         000000000000000                                     N                     00598  0000000        000127
12049341563000132JAC COMERCIO DE MATERIAIS ELET                                        0000000023700293300000001478699 00000000893373790020132276064762330402        201211052012100200000000055080000015523000000000015549000000000000000000000000000052050000000000  3020121106   06          3  R GANGES 528                                                                     3                         000000000000000                                     N                     00598  0000000        000128
12051180370000199IGUAFER FERRO E ACO LTDA                                              0000000034100000000000000000000000000000852309100000002239389789443 B         201209022012071800000000054440000168275000000000186755000000000000000000000000018480050000000000  3020121107   01          2                                                                                   3112239389789077149484600089                                                  N                     01321  0000000        000129
12051180370000199IGUAFER FERRO E ACO LTDA                                              0000000034100000000000000000000000000000852309110000002239389799443 C         201209122012071800000000054540000168275000000000183955000000000000000000000000015680050000000000  3020121107   01          2                                                                                   3112239389797077149484600089                                                  N                     01321  0000000        000130
12053585766000141MULTIACOS I C PRODS TEC LTDA                                          0000000042200000000000000000000000000000890456910000000000000000004724101     201211062012092500000000055090000131776000000000131995000000000000000000000000000219050000000000  3020121107   01          2                                                                                   3711500005033164925775126119                                                  N                     01321  0000000        000131
12053585766000141MULTIACOS I C PRODS TEC LTDA                                          0000000042200000000000000000000000000000883508160000000000000000004674602     201211062012091300000000055090000126819000000000127029000000000000000000000000000210050000000000  3020121107   01          2                                                                                   3711500005033164921116454189                                                  N                     01321  0000000        000132
12053585766000141MULTIACOS I C PRODS TEC LTDA                                          0000000042200000000000000000000000000000883508190000000000000000004584603     201211012012091300000000055040000339224000000000342613000000000000000000000000003389050000000000  3020121107   01          2                                                                                   3711500005033164921116535119                                                  N                     01321  0000000        000133
12053585766000141MULTIACOS I C PRODS TEC LTDA                                          0000000042200000000000000000000000000000883508200000000000000000004674502     201211062012091300000000055090000274012000000000274468000000000000000000000000000456050000000000  3020121107   01          2                                                                                   3711500005033164921116489119                                                  N                     01321  0000000        000134
12053585766000141MULTIACOS I C PRODS TEC LTDA                                          0000000042200000000000000000000000000000883508260000000000000000004585103     201211012012091300000000055040000222786000000000225011000000000000000000000000002225050000000000  3020121107   01          2                                                                                   3711500005033164921116578119                                                  N                     01321  0000000        000135
12053585766000141MULTIACOS I C PRODS TEC LTDA                                          0000000042200000000000000000000000000000883508300000000000000000004584803     201211012012091300000000055040000379244000000000383035000000000000000000000000003791050000000000  3020121107   01          2                                                                                   3711500005033164921116551119                                                  N                     01321  0000000        000136
12053585766000141MULTIACOS I C PRODS TEC LTDA                                          0000000042200000000000000000000000000000890456950000000000000000004650302     201210312012092500000000055030000228607000000000231273000000000000000000000000002666050000000000  3020121107   01          2                                                                                   3711500005033164925775207159                                                  N                     01321  0000000        000137
12053585766000141MULTIACOS I C PRODS TEC LTDA                                          0000000042200000000000000000000000000000890456970000000000000000004724301     201211022012092500000000055050000276404000000000278708000000000000000000000000002304050000000000  3020121107   01          2                                                                                   3711500005033164925775151159                                                  N                     01321  0000000        000138
12053585766000141MULTIACOS I C PRODS TEC LTDA                                          0000000042200000000000000000000000000000890456990000000000000000004724401     201211022012092500000000055050000538498000000000542982000000000000000000000000004484050000000000  3020121107   01          2                                                                                   3711500005033164925775185129                                                  N                     01321  0000000        000139
12053585766000141MULTIACOS I C PRODS TEC LTDA                                          0000000042200000000000000000000000000000890457030000000000000000004604503     201211052012092500000000055080000910103000000000913136000000000000000000000000003033050000000000  3020121107   01          2                                                                                   3711500005033164925775258149                                                  N                     01321  0000000        000140
12053585766000141MULTIACOS I C PRODS TEC LTDA                                          0000000042200000000000000000000000000000890457050000000000000000004650402     201210312012092500000000055030000192957000000000195210000000000000000000000000002253050000000000  3020121107   01          2                                                                                   3711500005033164925775223129                                                  N                     01321  0000000        000141
12053585766000141MULTIACOS I C PRODS TEC LTDA                                          0000000042200000000000000000000000000000887697880000000000000000004612003     201211062012092000000000055090000465862000000000466637000000000000000000000000000775050000000000  3020121107   01          2                                                                                   3711500005033164923629548119                                                  N                     01321  0000000        000142
12053585766000141MULTIACOS I C PRODS TEC LTDA                                          0000000042200000000000000000000000000000887697920000000000000000004612303     201211062012092000000000055090000636673000000000637733000000000000000000000000001060050000000000  3020121107   01          2                                                                                   3711500005033164923629611179                                                  N                     01321  0000000        000143
12053585766000141MULTIACOS I C PRODS TEC LTDA                                          0000000042200000000000000000000000000000887697970000000000000000004612203     201211062012092000000000055090000214553000000000214910000000000000000000000000000357050000000000  3020121107   01          2                                                                                   3711500005033164923629637189                                                  N                     01321  0000000        000144
12053585766000141MULTIACOS I C PRODS TEC LTDA                                          0000000042200000000000000000000000000000895189330000000000000000004737201     201211062012100200000000055090000373564000000000374186000000000000000000000000000622050000000000  3020121107   01          2                                                                                   3711500005033164927761777119                                                  N                     01321  0000000        000145
12053585766000141MULTIACOS I C PRODS TEC LTDA                                          0000000042200000000000000000000000000000895189360000000000000000004594903     201211022012100200000000055050000141441000000000142620000000000000000000000000001179050000000000  3020121107   01          2                                                                                   3711500005033164927761831119                                                  N                     01321  0000000        000146
12053585766000141MULTIACOS I C PRODS TEC LTDA                                          0000000042200000000000000000000000000000895189390000000000000000004595003     201211022012100200000000055050000695717000000000701516000000000000000000000000005799050000000000  3020121107   01          2                                                                                   3711500005033164927761858149                                                  N                     01321  0000000        000147
12053585766000141MULTIACOS I C PRODS TEC LTDA                                          0000000042200000000000000000000000000000895189420000000000000000004595103     201211022012100200000000055050000354761000000000357715000000000000000000000000002954050000000000  3020121107   01          2                                                                                   3711500005033164927761874199                                                  N                     01321  0000000        000148
12053585766000141MULTIACOS I C PRODS TEC LTDA                                          0000000042200000000000000000000000000000895189460000000000000000004604403     201211052012100200000000055080000189937000000000190570000000000000000000000000000633050000000000  3020121107   01          2                                                                                   3711500005033164927761891119                                                  N                     01321  0000000        000149
12053585766000141MULTIACOS I C PRODS TEC LTDA                                          0000000042200000000000000000000000000000895189500000000000000000004585403     201211012012100200000000055040001047733000000001058208000000000000000000000000010475050000000000  3020121107   01          2                                                                                   3711500005033164927761947119                                                  N                     01321  0000000        000150
12053585766000141MULTIACOS I C PRODS TEC LTDA                                          0000000042200000000000000000000000000000895189600000000000000000004699201     201211012012100200000000055040000534986000000000540337000000000000000000000000005351050000000000  3020121107   01          2                                                                                   3711500005033164927762056149                                                  N                     01321  0000000        000151
12053585766000141MULTIACOS I C PRODS TEC LTDA                                          0000000042200000000000000000000000000000895189650000000000000000004699301     201210312012100200000000055030000889444000000000899817000000000000000000000000010373050000000000  3020121107   01          2                                                                                   3711500005033164927762081139                                                  N                     01321  0000000        000152
12053585766000141MULTIACOS I C PRODS TEC LTDA                                          0000000042200000000000000000000000000000895189780000000000000000004674402     201211062012100200000000055090000385696000000000386338000000000000000000000000000642050000000000  3020121107   01          2                                                                                   3711500005033164927762226119                                                  N                     01321  0000000        000153
12053585766000141MULTIACOS COM DE PRODUTOS TECN                                        0000000023703398700000000011290 00000000888733100020226900000690004642101     201210162012090400000000054880000251722000000000260962000000000000000000000000009240050000000000  3020121107   01          2  RUA JUNO  533                                                                    3                         000000000000000                                     N                     00598  0000000        000154
12053585766000141MULTIACOS COM DE PRODUTOS TECN                                        0000000023703398700000000011290 00000000888733120020226900000720004650401     201210172012090500000000054890000198805000000000200791000000000000000000000000002317050000000000  3020121023   06          3  RUA JUNO  533                                                                    3                         000000000000000                                     N                     00598  0000000        000155
12054382510000108SETENTA IND E COM DE MADEIRAS                                         0000000034100000000000000000000000000000860403430000002277814474462 A         201209042012080700000000054460000191200000000000215264000000000000000000000000024064050000000000  3020121107   01          2                                                                                   3112277814474057049175300069                                                  N                     01321  0000000        000156
12056993512000150CYKLOP DO BRASIL EMBALAGENS SA                                        0000000034100000000000000000000000000000874070500000002362586810134932        201210012012090300000000054730000083607000000000094966000000000000000000000000011359050000000000  3020121107   01          2                                                                                   3112362586813025700015800019                                                  N                     01321  0000000        000157
12056993900000131CIA METALURGICA PRADA                                                 0000000034100000000000000000000000000000848180620000002218222670025829902     201209112012071700000000054530000498118000000000545428000000000000000000000000047310050000000000  3020121107   01          2                                                                                   3112218222670293800573900029                                                  N                     01321  0000000        000158
12056993900000131CIA METALURGICA PRADA                                                 0000000034100000000000000000000000000000848180630000002218222680025830002     201209112012071700000000054530000247673000000000271214000000000000000000000000023541050000000000  3020121107   01          2                                                                                   3112218222688293800573900059                                                  N                     01321  0000000        000159
12056993900000131CIA METALURGICA PRADA                                                 0000000034100000000000000000000000000000848180640000002218222690025830102     201209112012071700000000054530000207402000000000227124000000000000000000000000019722050000000000  3020121107   01          2                                                                                   3112218222696293800573900039                                                  N                     01321  0000000        000160
12056993900000131CIA METALURGICA PRADA                                                 0000000034100000000000000000000000000000855028630000002254750290026244303     201210222012072800000000054940000100683000000000103371000000000000000000000000002688050000000000  3020121107   01          2                                                                                   3112254750295293800573900049                                                  N                     01321  0000000        000161
12056993900000131CIA METALURGICA PRADA                                                 0000000034100000000000000000000000000000855028640000002254750300026244403     201210222012072800000000054940000084116000000000086356000000000000000000000000002240050000000000  3020121107   01          2                                                                                   3112254750303293800573900099                                                  N                     01321  0000000        000162
12058805466000144PEFIL COMERCIAL LTDA                                                  0000000023700086800000000014001 000000009024499300901322910317722988 01       201211052012101700000000055080000060000000000000060200000000000000000000000000000200050000000000  3020121107   01          2  R GANGES  528                                                                    3                         000000000000000                                     N                     00598  0000000        000163
12059659615000177DZ COMERCIO R E SERVICOS LTDA                                         000000003410000000000000000000000000000091358506000000900000320280            201211032012102400000000055060000060000000000000060480000000000000000000000000000480050000000000  3020121107   01          2                                                                                   3109000003209000314585100019                                                  N                     01321  0000000        000164
12061186847000105PERFILADOS GRANADO LTDA                                               0000000003300000000000000000000000000000897881440000008000000005 312 A        201211012012100200000000055040000108560000000000109485000000000000000000000000001110050000000000  3020121106   06          3                                                                                   3917995920000003503380010469                                                  N                     01321  0000000        000165
12061217188000119TELAS METALICAS TELMETAL LTDA                                         0000000034100000000000000000000000000000914718990000009000030955880 2 3       201212102012110500000000055430000171279000000000171279000000000000000000000000000000050000000000  3020121210   01FS        1                                                                                   3109000030953077073552000059                                                  N                     01321  0000000        000166
12061217188000119TELAS METALICAS TELMETAL LTDA                                         0000000034100000000000000000000000000000914719000000009000030935879 2 2       201212172012110500000000055500000123653000000000123653000000000000000000000000000000050000000000  3020121217   01FS        1                                                                                   3109000030938077073552000029                                                  N                     01321  0000000        000167
12061217188000119TELAS METALICAS TELMETAL LTDA                                         0000000034100000000000000000000000000000914719010000009000030945880 1 3       201212032012110500000000055360000171280000000000171280000000000000000000000000000000050000000000  3020121203   01FS        1                                                                                   3109000030946077073552000069                                                  N                     01321  0000000        000168
12061217188000119TELAS METALICAS TELMETAL LTDA                                         0000000034100000000000000000000000000000914719020000009000030925879 1 2       201212032012110500000000055360000123655000000000123655000000000000000000000000000000050000000000  3020121203   01FS        1                                                                                   3109000030920077073552000099                                                  N                     01321  0000000        000169
12061217188000119TELAS METALICAS TELMETAL LTDA                                         0000000034100000000000000000000000000000914719030000009000030965880 3 3       201212172012110500000000055500000171279000000000171279000000000000000000000000000000050000000000  3020121217   01FS        1                                                                                   3109000030961077073552000099                                                  N                     01321  0000000        000170
12061217188000119TELAS METALICAS TELMETAL LTDA                                         0000000000100000000000000000000000000000896050380000000057780005743 1 1       201211022012100400000000055050000086601000000000087756000000000000000000000000001155050000000000  3020121107   01          2                                                                                   3000000115031800000057781779                                                  N                     01321  0000000        000171
12061600839000155CENTRO DE INT EMPRESA ESCOLA C                                        0000000023703391P00000000866202 00000000899624890090000036546447641C 0001     201210312012101000000000055030000016800000000000017130000000000000000000000000000385050000000000  3020121106   06          3  R GANGES  528                                                                    3                         000000000000000                                     N                     00598  0000000        000172
12061780615000172LEPOK INFORMATICA E PAPELARIA                                         0000000023703393600000000005010 000000009147189600202311000000402137019       201211262012102900000000055290000002695000000000002695000000000000000000000000000000050000000000  3020121126   01FS        1  RUA TAMAINDE 1410                                                                3                         000000000000000                                     N                     00598  0000000        000173
12061780615000172LEPOK INFORMATICA E PAPELARIA                                         0000000023703393600000000005010 000000009147189500202311000000302136893       201211262012102900000000055290000054463000000000054463000000000000000000000000000000050000000000  3020121126   01FS        1  RUA TAMAINDE 1410                                                                3                         000000000000000                                     N                     00598  0000000        000174
12062173661000176INDUFIX IND E COM LTDA                                                0000000023703392800000000337587 000000009147189700902311000006800040628 A     201211302012103100000000055330000026730000000000026730000000000000000000000000000000050000000000  3020121130   01FS        1  RUA GANGES 528                                                                   3                         000000000000000                                     N                     00598  0000000        000175
12062510367000102ITANHAEM TRANSP DE MAQUINAS LT                                        000000003410000000000000000000000000000087407049000000236463199667            201209202012090400000000054620000248220000000000295884000000000000000000000000047664050000000000  3020121107   01          2                                                                                   3112364631997005770252400049                                                  N                     01321  0000000        000176
12062539994000176LEALFER INDUSTRIA E COMERCIO D                                        0000000003300000000000000000000000000000902449820000001400000000005648901     201211062012100900000000055090000447825000000000448586000000000000000000000000000761050000000000  3020121107   01          2                                                                                   3915298380000000276014010469                                                  N                     01321  0000000        000177
12062539994000176LEALFER INDUSTRIA E COMERCIO D                                        0000000003300000000000000000000000000000884432770000002800000000005479102     201211062012091100000000055090001068982000000001070799000000000000000000000000001817050000000000  3020121107   01          2                                                                                   3915298380000000264628010479                                                  N                     01321  0000000        000178
12062539994000176LEALFER INDUSTRIA E COMERCIO D                                        0000000003300000000000000000000000000000893373930000001600000000005575001     201210252012092600000000054970000300979000000000303537000000000000000000000000003069050000000000  3020121030   05          3                                                                                   3915298380000000268216010419                                                  N                     01321  0000000        000179
12062539994000176LEALFER INDUSTRIA E COMERCIO D                                        0000000003300000000000000000000000000000872953040000003800000000005424702     201210252012083000000000054970000656670000000000662251000000000000000000000000006697050000000000  3020121030   05          3                                                                                   3915298380000000257338010419                                                  N                     01321  0000000        000180
12062539994000176LEALFER INDUSTRIA E COMERCIO D                                        0000000003300000000000000000000000000000893373950000005300000000005576001     201210252012092600000000054970000243236000000000245307000000000000000000000000002485050000000000  3020121030   05          3                                                                                   3915298380000000268453010469                                                  N                     01321  0000000        000181
12062539994000176LEALFER INDUSTRIA E COMERCIO D                                        0000000003300000000000000000000000000000893373960000008800000000005580301     201210252012092700000000054970000451213000000000455048000000000000000000000000004602050000000000  3020121030   05          3                                                                                   3915298380000000268488010459                                                  N                     01321  0000000        000182
12064952757000168WALMAC COM DE PROD QUIMICOS LT                                        0000000034100000000000000000000000000000860403440000002275821690020148        201210262012080300000000054980000219266000000000224438000000000000000000000000005172050000000000  3020121107   01          2                                                                                   3112275821695064807961400019                                                  N                     01321  0000000        000183
12064952757000168WALMAC COM DE PROD QUIMICOS LT                                        0000000034100000000000000000000000000000896979500000002462157550021611        201211012012100400000000055040000219267000000000221853000000000000000000000000002586050000000000  3020121107   01          2                                                                                   3112462157556064807961400019                                                  N                     01321  0000000        000184
12064952757000168WALMAC COM DE PROD QUIMICOS LT                                        0000000034100000000000000000000000000000860403450000002275821700020148        201210052012080300000000054770000219267000000000233490000000000000000000000000014223050000000000  3020121107   01          2                                                                                   3112275821703064807961400029                                                  N                     01321  0000000        000185
12066841552000130R V SEG PATRIMONIAL LTDA                                              00000000341000000000000000000000000000008852483200000090002192721927          201209102012081000000000054520000483241000000000492579000000000000000000000000009338050000000000  3020121107   01          2                                                                                   3109000219270001835253400099                                                  N                     01321  0000000        000186
12066841552000130R V SEG PATRIMONIAL S C LTDA                                          00000000341000000000000000000000000000008887329800000090002213622136          201210102012091100000000054820000374758000000000378258000000000000000000000000003500050000000000  3020121107   01          2                                                                                   3109000221365001838994000069                                                  N                     01321  0000000        000187
12066899790000105FABRICA ARTEF LATEX ESTRELA EP                                        00000000399000000000000000000000000000008706705700000000000000077307 002      201210282012082900000000055000000141750000000000141750000000000000000000000000000000050000000000  3020121029   05          3                                                                                   3175891371911125027292500199                                                  N                     01321  0000000        000188
12066899790000105FABRICA ARTEF LATEX ESTRELA EP                                        00000000399000000000000000000000000000008810327700000000000000078368 001      201210272012091200000000054990000256928000000000256928000000000000000000000000000000050000000000  3020121029   05          3                                                                                   3175972859061125027292500149                                                  N                     01321  0000000        000189
12066899790000105FABRICA ARTEF LATEX ESTRELA EP                                        00000000399000000000000000000000000000008819134500000000000000078480 001      201210282012091300000000055000000530781000000000530781000000000000000000000000000000050000000000  3020121029   05          3                                                                                   3175978755411125027292500159                                                  N                     01321  0000000        000190
12067300160000127OSACO PRODUTOS SIDERURGICOS LT                                        0000000023702415500000000063002 0000000091141010009024151670093650 01 01      201211052012103100000000055080000077868000000000080982000000000000000000000000003114050000000000  3020121107   01          2  RUA JUNO  533                                                                    3                         000000000000000                                     N                     00598  0000000        000191
12069284248000128ISOCOAT TINTAS E VERNIZES LTDA                                        0000000034100000000000000000000000000000841061040000002182507930052085        201209172012070200000000054590000236130000000000268260000000000000000000000000032130050000000000  3020121107   01          2                                                                                   3112182507932077430121200019                                                  N                     01321  0000000        000192
12075483040000130REX MAQUINAS E EQUIPAMENTOS LT                                        0000000023702656500000000000701 000000008577186500202216000032278261 2 3      201210182012072600000000054900000384500000000000387705000000000000000000000000003846050000000000  3020121023   06          3  RUA  GANGES  528                                                                 3                         000000000000000                                     N                     00598  0000000        000193
12081560047000101ACEVILLE TRANSPORTES LTDA                                             000000000330000000000000000000000000000090581007000000300000000277853         201211022012102200000000055050000085000000000000085907000000000000000000000000001133050000000000  3020121106   06          3                                                                                   3913555200000002778530010139                                                  N                     01321  0000000        000194
12096500087000135WORKBENCH CONSULTORIA S S LTDA                                        0000000034100000000000000000000000000000878205840000007940034283118           201209272012090300000000054690000131746000000000142365000000000000000000000000010619050000000000  3020121107   01          2                                                                                   3157940034289826313803700089                                                  N                     01321  0000000        000195
900019600000000068198228                                                                                                                                                                                                                                                                                                                                                                                                                                                                01321  0000000        000196
