0000147602043799295000110ALTAMIRA INDUSTRIA METALURGICA LT       202000000181420120807212659             3                                                                                                  000000000000000                                                                                                                                                                                                                                                                                   000001
12061217188000119TELAS METALICAS TELMETAL LTDA                                         0000000034100000 0000000000000  I000000000009379000000000000000               201208070000000000000000054180000005123000000000005123000000000000000000000000000000010000005223  3120120807   02BW        5000000               000000000000000                                               3181518338183077098123100059               5223/03-03                         N                     01132 10020256        000002
12061217188000119TELAS METALICAS TELMETAL LTDA                                         0000000000100000 0000000000000  I000000000009375000000000000000               201208070000000000000000054180000070665000000000070665000000000000000000000000000000010000005262  3120120807   02BW        5000000               000000000000000                                               3000000115031800000054521789               5262/01-01.                        N                     01132 10020256        000003
12042956441000101SOLUCOES EM ACO USIMINAS S A                                          0000000034100000 0000000000000  I000000000009383000000000000000               201208070000000000000000054180000103766000000000103766000000000000000000000000000000010000237166  3120120807   02BW        5000000               000000000000000                                               3181518747468293800573900099               0237166/03                         N                     01132 10020256        000004
12042956441000101SOLUCOES EM ACO USIMINAS S A                                          0000000034100000 0000000000000  I000000000009382000000000000000               201208070000000000000000054180000535893000000000535893000000000000000000000000000000010000158534  3120120807   02BW        5000000               000000000000000                                               3181518745725293807258000019               0158534/03                         N                     01132 10020256        000005
12042956441000101SOLUCOES EM ACO USIMINAS S A                                          0000000034100000 0000000000000  I000000000009381000000000000000               201208070000000000000000054180000205503000000000205503000000000000000000000000000000010000163990  3120120807   02BW        5000000               000000000000000                                               3181518743225293807258000029               0163990/02                         N                     01132 10020256        000006
12061217188000119TELAS METALICAS TELMETAL LTDA                                         0000000000100000 0000000000000  I000000000009376000000000000000               201208070000000000000000054180000043456000000000043456000000000000000000000000000000010000005227  3120120807   02BW        5000000               000000000000000                                               3000000115031800000054241779               05227/03-03                        N                     01132 10020256        000007
12042956441000101SOLUCOES EM ACO USIMINAS S A                                          0000000034100000 0000000000000  I000000000009380000000000000000               201208070000000000000000054180000455769000000000455769000000000000000000000000000000010000163992  3120120807   02BW        5000000               000000000000000                                               3181518740320293807258000089               0163992/02                         N                     01132 10020256        000008
12002503185000182ANDAIMES MAQUINAS BIG LTDA                                            0000000034100000 0000000000000  I000000000009378000000000000000               201208070000000000000000054180000012288000000000012288000000000000000000000000000000010000011381  3120120807   02BW        5000000               000000000000000                                               3181518339828925303435000039               011381/01                          N                     01132 10020256        000009
12061217188000119TELAS METALICAS TELMETAL LTDA                                         0000000000100000 0000000000000  I000000000009377000000000000000               201208070000000000000000054180000007522000000000007522000000000000000000000000000000010000005226  3120120807   02BW        5000000               000000000000000                                               3000000115031800000054211799               05226/03-03                        N                     01132 10020256        000010
12053585766000575MULTIACOS IND COM PROD LTDA                                           0000000000100000 0000000000000  I000000000009370000000000000000               201208070000000000000000054180000418110000000000418110000000000000000000000000000000010000042703  3120120807   02BW        5000000               000000000000000                                               3043886823881912000139523119               042703/02                          N                     01132 10020256        000011
12066899790000105FAB ART DE LATEX ESTR EP LTDA                                         0000000039900000 0000000000000  I000000000009371000000000000000               201208070000000000000000054180000372590000000000372590000000000000000000000000000000010000071065  3120120807   02BW        5000000               000000000000000                                               3175368007861125027292500169               071065/02                          N                     01132 10020256        000012
12053585766000575MULTIACOS IND COM PROD LTDA                                           0000000000100000 0000000000000  I000000000009372000000000000000               201208070000000000000000054180000324352000000000324352000000000000000000000000000000010000042702  3120120807   02BW        5000000               000000000000000                                               3043886823861912000139523119               042702/001                         N                     01132 10020256        000013
12066899790000105FAB ART DE LATEX ESTR EP LTDA                                         0000000039900000 0000000000000  I000000000009373000000000000000               201208070000000000000000054180000217723000000000217723000000000000000000000000000000010000070105  3120120807   02BW        5000000               000000000000000                                               3175283882721125027292500169               070105/03                          N                     01132 10020256        000014
12057158057000130COMERCIAL ELETRICA P J LTDA   R MERGENTHAL 192 A VL LEOPOLDINA SP     0531103023703394400000000972983 I000000000009374000000000000000               201208070000000000000000000000000000000000000000080774000000000000000000000000000000010000305028  0120120807   02BW        5000000               000000000000000                                               3                                          0305028/A.                         N                     01321 10020256        000015
12000676486000182FEDERAL EXPRESS CORPORATION                                           0000000023703381200000001001191 00000000850740400090000022232772223277        201208072012072300000000054180000003611000000000003611000000000000000000000000000000050000000000  3020120807   02BW        2000000               000000000000000                                               3                         000000000000000  REF.2223277 - AMOSTRAS PISO ELETRO N                     01079 10020256        000016
900001700000000002857145                                                                                                                                                                                    000000000000000                                                                                                                                                                                                                                                    00001500758520002776371        000017
