0000147602043799295000110ALTAMIRA IND METALURGICA LTDA           20100603000002013010715295100000        2    230A                                                                                          000000000000000                                                                                                                                                                                                                                                                                   000001
12062539994000176LEALFER INDUSTRIA E COMERCIO D                                        0000000034100761 00000000033240 I000000000010375000000000000000               201301070000000000000000000000000000000000000001028132000000000000000000000000000000050000000002  0820130107   01HA        0001600                                                                             3C0000000101                             0002                                 N                     00000  0020256        000002
900000300000000001028132                                                                                                                                                                                    000000000000000                                                                                                                                                                                                                                                    00000100000000000000000        000003
