0000147602043799295000110ALTAMIRA INDUSTRIA METALURGICA LT       202000000190320121008214023             3                                                                                                  000000000000000                                                                                                                                                                                                                                                                                   000001
12000867888000164TECNEQUIP TECNOLOGIA EQUIP LTD                                        0000000003303809500000130003245 I000000000009984000000000000000               201210080000000000000000000000000000000000000001100000000000000000000000000000000000040000000002  0820121008   02BW        5001500               000000000000000                                               3C0000000101                               02                                 N                     01076 10020256        000002
12000815065000195SIND TRABALH N E O R I INTE                                           0000000034100000 0000000000000  I000000000009989000000000000000               201210080000000000000000054800000000000000000000023215000000000000000000000000000000050050762908  3120121008   02BW        5000000               000000000000000                                               3173507629086018958625800019               50762908                           N                     01132 10020256        000003
12007988026000139POINTER DISTR PROD ELETR LTDA                                         0000000034100000 0000000000000  I000000000009987000000000000000               201210080000000000000000054800000021262000000000021262000000000000000000000000000000010000005310  3120121008   02BW        5000000               000000000000000                                               3181556363036077084107000019               5310                               N                     01132 10020256        000004
12057029431000106ATLAS COPCO BRASIL LTDA                                               0000000034100000 0000000000000  I000000000009988000000000000000               201210080000000000000000054800000060738000000000060738000000000000000000000000000000010000053239  3120121008   02BW        5000000               000000000000000                                               3181556586845293804111400029               53239                              N                     01132 10020256        000005
12008852780000100HOSTGATOR BRASIL HOSP SUP TEC                                         0000000034100000 0000000000000  I000000000009990000000000000000               201210080000000000000000054800000004999000000000004999000000000000000000000000000000050000043436  3120121008   02BW        5000000               000000000000000                                               3175101510144869105372500019               46436                              N                     01132 10020256        000006
12000867888000164TECNEQUIP TECNOLOGIA EQUIP LTD                                        0000000034100452 00000000749849 I000000000009983000000000000000               201210080000000000000000000000000000000000000000300000000000000000000000000000000000040000000001  0820121008   02BW        5001500               000000000000000                                               3C0000000101                               01                                 N                     01076 10020256        000007
12013529495000192MAXMIRA CONTROLE E ADM LTDA                                           0000000034100467 00000000012340 I000000000009985000000000000000               201210080000000000000000000000000000000000000001000000000000000000000000000000000000050000000003  0820121008   02BW        5001500               000000000000000                                               3C0000000101                               03                                 N                     01076 10020256        000008
12035820448000136WHITE MARTINS GASES IND LTDA                                          0000000023700026400000003937925 I000000000009986009022290001168               201210070000000000000000054790000128371000000000128371000000000000000000000000000000010000008952  3120121008   02BW        5000000               000000000000000                                               3002609222900011680393792049               8952                               N                     01079 10020256        000009
12060830544000102TORRES GALVANIZACAO A FOGO LTDR CECILIA ROIZEN 450                    0722202023702531300000000105007 I000000000009991000000000000000               201210080000000000000000000000000000000000000000153000000000000000000000000000000000040000000001  0120121008   02BW        5000000               000000000000000                                               3                                          01                                 N                     01321 10020256        000010
900001100000000002791585                                                                                                                                                                                    000000000000000                                                                                                                                                                                                                                                    00000900273990000215370        000011
