0000147602043799295000110ALTAMIRA IND METALURGICA LTDA           20100462000002012080817365800000        2    230A                                                                                          000000000000000                                                                                                                                                                                                                                                                                   000001
12060561719001529AKZO NOBEL LTDA   DIVISAO TINT                                        000000000330000000000000000000000000000081465333000000860000000000061951003   201208010000000000000000054120000153435000000000155583000000000000000000000000002148050000000000  3020120808   01MFBUHA    500                                                                                 3920859410000000308986010469010000       0061951/03                           N                     00000 10020256        000002
12043389105000197AUTO POSTO MANCHESTER LTDA                                            00000000341000000000000000000000000000008569064700000090000253824770          201208080000000000000000054190000009008000000000009008000000000000000000000000000000050000000000  3020120808   01MFBUHA    500                                                                                 3109000025387810509793800099010000       0003397                              N                     00000 10020256        000003
12056993900000131CIA METALURGICA PRADA                                                 0000000034100000 0000000000000  I000000000009385000000000000000               201208080000000000000000054190000052986000000000052986000000000000000000000000000000010000237164  3120120808   01HA        000                                                                                 3181519187979293800573900019             000237164/03                         N                     00000 10020256        000004
12042956441000101SOLUCOES EM ACO USIMINAS S A  RUA  DIANOPOLIS  670 710                0312510034100000 0000000000000  I000000000009388000000000000000               201208080000000000000000054190000237690000000000237690000000000000000000000000000000010000168595  3120120808   01HA        000                                                                                 3181519243431293807258000049             000168595/01                         N                     00000 10020256        000005
12042956441000101SOLUCOES EM ACO USIMINAS S A  RUA  DIANOPOLIS  670 710                0312510034100000 0000000000000  I000000000009389000000000000000               201208080000000000000000054190000219729000000000219729000000000000000000000000000000010000163807  3120120808   01HA        000                                                                                 3181519245451293807258000049             000163807/02                         N                     00000 10020256        000006
12042956441000101SOLUCOES EM ACO USIMINAS S A  RUA  DIANOPOLIS  670 710                0312510034100000 0000000000000  I000000000009390000000000000000               201208080000000000000000054190000218539000000000218539000000000000000000000000000000010000163805  3120120808   01HA        000                                                                                 3181519248158293807258000019             000163805/02                         N                     00000 10020256        000007
12042956441000101SOLUCOES EM ACO USIMINAS S A  RUA  DIANOPOLIS  670 710                0312510034100000 0000000000000  I000000000009391000000000000000               201208080000000000000000054190000166808000000000166808000000000000000000000000000000010000168594  3120120808   01HA        000                                                                                 3181519246905293807258000019             000168594/01                         N                     00000 10020256        000008
12060561719001529AKZO NOBEL LTDA   DIVISAO     RUA  DOS CIPRESTES  130                 1813248003300000 0000000000000  I000000000009393000000000000000               201208080000000000000000054190000044514000000000044514000000000000000000000000000000010000061952  3120120808   01HA        000                                                                                 3920859410000000308994010429             00061952/03                          N                     00000 10020256        000009
12065833410000169BRASLIMPO COMERCIAL LTDA                                              0000000034100000 0000000000000  I000000000009394000000000000000               201208080000000000000000054190000042200000000000042200000000000000000000000000000000010000064690  3120120808   01HA        000                                                                                 3181519393994003862629700049             00064690                             N                     00000 10020256        000010
12012256386000186TOP TRAD SERV TEXTOS LTDA     RUA  JACAREI  039 1201                  0131904023700200300000001062603 I000000000009396009013219402556               201208080000000000000000054190000026928000000000026928000000000000000000000000000000010000002718  3120120808   01HA        000                                                                                 3020009132194025560106260019             0002718                              N                     00000 10020256        000011
12000815065000195SIND TRABALH N E O R I INTE   RUA  MANOEL DOS SANTOS NETO  64         0203201034100000 0000000000000  I000000000009397000000000000000               201208080000000000000000054190000000000000000000023215000000000000000000000000000000050050719261  3120120808   01HA        000                                                                                 3173507192614018958625800049             00050719261                          N                     00000 10020256        000012
12008852780000100HOSTGATOR BRASIL HOSP SUP TEC ROD JOSE CARLOS DAUX  8600   CORP PARK  8805000134100000 0000000000000  I000000000009398000000000000000               201208080000000000000000054190000004999000000000004999000000000000000000000000000000050000046436  3120120808   01HA        000                                                                                 3175101403845869105372500059             0046436/9                            N                     00000 10020256        000013
12056993900000131CIA METALURGICA PRADA                                                 0000000034100000 0000000000000  I000000000009399000000000000000               201208080000000000000000054190000101989000000000101989000000000000000000000000000000010000237165  3120120808   01HA        000                                                                                 3181519184950293800573900019             000237165/03                         N                     00000 10020256        000014
12056993900000131CIA METALURGICA PRADA                                                 0000000034100000 0000000000000  I000000000009401000000000000000               201208080000000000000000054190000436664000000000436664000000000000000000000000000000010000237285  3120120808   01HA        000                                                                                 3181519174498293800573900019             000237285/03                         N                     00000 10020256        000015
12003498897000202TELECOMUNICACOES DE SAO PAULO                                         0000000023702372800000000360082 I000000000009404019066000835476               201208080000000000000000054190000410474000000000410474000000000000000000000000000000010031019372  3120120808   01HA        000                                                                                 3237219660008354760036008069             0031019372                           N                     00000 10020256        000016
12006000195000156M B A MERCANTIL BRASILEIRA DE R RINCAO 220                            0365108023700118000000002128292 I000000000009405000000000000000               201208080000000000000000000000000000000000000000301975000000000000000000000000000000010000008786  0120120808   01HA        000                                                                                 3                                        0008786/01                           N                     00000 10020256        000017
900001800000000002453301                                                                                                                                                                                    000000000000000                                                                                                                                                                                                                                                    00001600812780002125963        000018
