0000147602043799295000110ALTAMIRA IND METALURGICA LTDA           20100520000002012100814173100000        2    230A                                                                                          000000000000000                                                                                                                                                                                                                                                                                   000001
12000867888000164TECNEQUIP TECNOLOGIA EQUIP LTDRUA  GANGES                             0344503034100452 00000000749849 I000000000009983000000000000000               201210080000000000000000000000000000000000000000300000000000000000000000000000000000040000000001  0820121008   01HA        0001500                                                                             3C0000000101                             0001                                 N                     00000  0020256        000002
12000867888000164TECNEQUIP TECNOLOGIA EQUIP LTDRUA  GANGES                             0344503003303809500000130003245 I000000000009984000000000000000               201210080000000000000000000000000000000000000001100000000000000000000000000000000000040000000002  0820121008   01HA        0001500                                                                             3C0000000101                             0002                                 N                     00000  0020256        000003
12013529495000192MAXMIRA CONTROLE E ADM LTDA   RUA  JUNO  533                          0344500034100467 00000000012340 I000000000009985000000000000000               201210080000000000000000000000000000000000000001000000000000000000000000000000000000050000000003  0820121008   01HA        0001500                                                                             3C0000000101                             0003                                 N                     00000  0020256        000004
900000500000000002400000                                                                                                                                                                                    000000000000000                                                                                                                                                                                                                                                    00000300000000000000000        000005
