0000147602043799295000110ALTAMIRA INDUSTRIA METALURGICA LT       202000000016320121108062829             1                                                                                                                                                                                                                                                                                                                                                                                                    000001
12001895314000162COLETA INDUSTRIAL FIMAVAN LTDA                                        0000000034100000000000000000000000000000866992070000009002335349439           201208272012081700000000054380000123695000000000150186000000000000000000000000026491050000000000  3020121108   01          2                                                                                   3109002335346144604097200019                                                  N                     01321  0000000        000002
12001951865000104FOUR F FOM MERCANTIL LTDA 1951                                        0000000039900000000000000000000000000000912468000000000000000001103318 12     201211092012091100000000055120000120000000000000120000000000000000000000000000000000050000000000  3020121109   06          3                                                                                   3176310655200198000598000119                                                  N                     01321  0000000        000003
12002583013000166ITAN TRANSP DE CARGAS EXC E IN                                        000000003410000000000000000000000000000088350836000000239377422008 B          201210212012091400000000054930000192500000000000206360000000000000000000000000013860050000000000  3020121108   01          2                                                                                   3112393774222005770252400039                                                  N                     01321  0000000        000004
12002765757000100DUBRONZE IND E COM DE METAIS                                          00000000341000000000000000000000000000009050409200000024815153119710          201211012012101100000000055040000027264000000000027264000000000000000000000000000000050000000000  3020121101   06          3                                                                                   3112481515313162660894500089                                                  N                     01321  0000000        000005
12003372804000100TROPICAL CLEAN COMERCIAL LTDA                                         00000000033000000000000000000000000000009157341100000044000000058193          201211282012103000000000055310000043135000000000043135000000000000000000000000000000050000000000  3020121128   01FS        1                                                                                   3913215100000006405444020139                                                  N                     01321  0000000        000006
12003489596000123BEND FLEX I COMERCIO LTDA                                             000000003410000000000000000000000000000088350832000000171879874608            201209122012082100000000054540000695250000000000773169000000000000000000000000077919050000000000  3020121108   01          2                                                                                   3191718798744157734445800069                                                  N                     01321  0000000        000007
12003489596000123BEND FLEX I COMERCIO LTDA                                             000000003410000000000000000000000000000088599899000000171434574613            201209172012081600000000054590000585000000000000644852000000000000000000000000059852050000000000  3020121108   01          2                                                                                   3191714345748157734445800019                                                  N                     01321  0000000        000008
12003489596000123BEND FLEX I COMERCIO LTDA                                             000000003410000000000000000000000000000091358505000000177374323637            201210292012092700000000055010000110000000000000112160000000000000000000000000002160050000000000  3020121108   01          2                                                                                   3191773743239157734445800019                                                  N                     01321  0000000        000009
12004676708000118M H F SISTEMAS S C LTDA                                               0000000034100000000000000000000000000000902449850000002489937710099049460     201211052012101600000000055080000014500000000000014500000000000000000000000000000000050000000000  3020121105   06          3                                                                                   3112489937717013924573200089                                                  N                     01321  0000000        000010
12005880850000145NEDERMAN BRASIL COM PROD EX LT                                        000000003410000000000000000000000000000086373178000000614350956002763 A       201209252012081400000000054670000289674000000000314754000000000000000000000000025080050000000000  3020121108   01          2                                                                                   3156143509568160829000100049                                                  N                     01321  0000000        000011
12006000195000156MBA MERCANTIL BRAS DE ACO LTDA                                        0000000034100000000000000000000000000000887698090000001671394550008925B02     201209142012071700000000054560000719581000000000797406000000000000000000000000077825050000000000  3020121108   01          2                                                                                   3191671394556064849251000089                                                  N                     01321  0000000        000012
12006000195000156MBA MERCANTIL BRAS DE ACO LTDA                                        0000000034100000000000000000000000000000904173140000001667238290008874B03     201210112012071600000000054830000802825000000000847037000000000000000000000000044212050000000000  3020121108   01          2                                                                                   3191667238296064849251000069                                                  N                     01321  0000000        000013
12006000195000156MBA MERCANTIL BRAS DE ACO LTDA                                        0000000034100000000000000000000000000000904173150000001667238300008870B03     201210092012071600000000054810000839951000000000889511000000000000000000000000049560050000000000  3020121108   01          2                                                                                   3191667238304064849251000039                                                  N                     01321  0000000        000014
12006000195000156MBA MERCANTIL BRAS DE ACO LTDA                                        0000000034100000000000000000000000000000887698100000001671394560008926B02     201209142012071700000000054560000387716000000000429681000000000000000000000000041965050000000000  3020121108   01          2                                                                                   3191671394564064849251000019                                                  N                     01321  0000000        000015
12006000195000156MBA MERCANTIL BRAS DE ACO LTDA                                        0000000034100000000000000000000000000000904173160000001667238280008876B03     201210122012071600000000054840000810320000000000853358000000000000000000000000043038050000000000  3020121108   01          2                                                                                   3191667238288064849251000079                                                  N                     01321  0000000        000016
12006000195000156MBA MERCANTIL BRAS DE ACO LTDA                                        0000000034100000000000000000000000000000904173170000001671394420008925B03     201210122012071700000000054840000719580000000000757785000000000000000000000000038205050000000000  3020121108   01          2                                                                                   3191671394424064849251000069                                                  N                     01321  0000000        000017
12006000195000156MBA MERCANTIL BRAS DE ACO LTDA                                        0000000034100000000000000000000000000000889578520000001671394540008920B02     201209162012071700000000054580000576585000000000636687000000000000000000000000060102050000000000  3020121108   01          2                                                                                   3191671394549064849251000099                                                  N                     01321  0000000        000018
12006000195000156MBA MERCANTIL BRAS DE ACO LTDA                                        0000000034100000000000000000000000000000904173180000001671394430008926B03     201210122012071700000000054840000387716000000000408317000000000000000000000000020601050000000000  3020121108   01          2                                                                                   3191671394432064849251000079                                                  N                     01321  0000000        000019
12006000195000156MBA MERCANTIL BRAS DE ACO LTDA                                        0000000034100000000000000000000000000000906662670000001671394410008920B03     201210142012071700000000054860000576584000000000604934000000000000000000000000028350050000000000  3020121108   01          2                                                                                   3191671394416064849251000039                                                  N                     01321  0000000        000020
12006000195000156MBA MERCANTIL BRAS DE ACO LTDA                                        0000000034100000000000000000000000000000885998980000001667238420008870B02     201209112012071600000000054530000839952000000000935768000000000000000000000000095816050000000000  3020121108   01          2                                                                                   3191667238429064849251000039                                                  N                     01321  0000000        000021
12006000195000156M B A MERCANTIL BRASILEIRA DE                                         0000000023700118P00000002130599 00000000865388260020222900000470009204B02     201210112012081500000000054830000127292000000000133228000000000000000000000000005936050000000000  3020121108   01          2  RUA JUNO  533                                                                    3                         000000000000000                                     N                     00598  0000000        000022
12006000195000156M B A MERCANTIL BRASILEIRA DE                                         0000000023700118P00000002130599 00000000865388290020222900000500009205B02     201210122012081500000000054840000348964000000000364678000000000000000000000000015714050000000000  3020121108   01          2  RUA JUNO  533                                                                    3                         000000000000000                                     N                     00598  0000000        000023
12006000195000156M B A MERCANTIL BRASILEIRA DE                                         0000000023700118P00000002130599 00000000865388320020222900000530009206B02     201210132012081500000000054850000527560000000000550414000000000000000000000000022854050000000000  3020121108   01          2  RUA JUNO  533                                                                    3                         000000000000000                                     N                     00598  0000000        000024
12006000195000156M B A MERCANTIL BRASILEIRA DE                                         0000000023700118P00000002130599 00000000848180770020220100000340008905B03     201210112012071900000000054830000155300000000000162552000000000000000000000000007252050000000000  3020121108   01          2  RUA JUNO  533                                                                    3                         000000000000000                                     N                     00598  0000000        000025
12006000195000156M B A MERCANTIL BRASILEIRA DE                                         0000000023700118P00000002130599 00000000868592690020223600000020009229B02     201210112012081600000000054830000253414000000000265230000000000000000000000000011816050000000000  3020121108   01          2  RUA JUNO  533                                                                    3                         000000000000000                                     N                     00598  0000000        000026
12006000195000156MBA MERCANTIL BRAS DE ACO LTDA                                        0000000034100000000000000000000000000000915733920000002553914400010132B02     201212282012103100000000055610000826269000000000826269000000000000000000000000000000050000000000  3020121228   01FS        1                                                                                   3112553914402064899001800089                                                  N                     01321  0000000        000027
12006000195000156MBA MERCANTIL BRAS DE ACO LTDA                                        0000000034100000000000000000000000000000915733810000002553913910010077B03     201301192012102600000000055830000324849000000000324849000000000000000000000000000000050000000000  3020130121   01FS        1                                                                                   3112553913917064899001800079                                                  N                     01321  0000000        000028
12006000195000156MBA MERCANTIL BRAS DE ACO LTDA                                        0000000034100000000000000000000000000000915733820000002553914330010130B01     201211282012103100000000055310000557201000000000557201000000000000000000000000000000050000000000  3020121128   01FS        1                                                                                   3112553914337064899001800019                                                  N                     01321  0000000        000029
12006000195000156MBA MERCANTIL BRAS DE ACO LTDA                                        0000000034100000000000000000000000000000915733830000002553913920010078B01     201211252012102600000000055280000964068000000000964068000000000000000000000000000000050000000000  3020121126   01FS        1                                                                                   3112553913925064899001800059                                                  N                     01321  0000000        000030
12006000195000156MBA MERCANTIL BRAS DE ACO LTDA                                        0000000034100000000000000000000000000000915733840000002553914350010130B03     201301232012103100000000055870000557201000000000557201000000000000000000000000000000050000000000  3020130123   01FS        1                                                                                   3112553914352064899001800029                                                  N                     01321  0000000        000031
12006000195000156MBA MERCANTIL BRAS DE ACO LTDA                                        0000000034100000000000000000000000000000915733850000002553914380010131B03     201301242012103100000000055880001000482000000001000482000000000000000000000000000000050000000000  3020130124   01FS        1                                                                                   3112553914386064899001800089                                                  N                     01321  0000000        000032
12006000195000156MBA MERCANTIL BRAS DE ACO LTDA                                        0000000034100000000000000000000000000000915733860000002553914360010131B01     201211292012103100000000055320001000483000000001000483000000000000000000000000000000050000000000  3020121129   01FS        1                                                                                   3112553914360064899001800029                                                  N                     01321  0000000        000033
12006000195000156MBA MERCANTIL BRAS DE ACO LTDA                                        0000000034100000000000000000000000000000915733870000002553914390010132B01     201211302012103100000000055330000826269000000000826269000000000000000000000000000000050000000000  3020121130   01FS        1                                                                                   3112553914394064899001800059                                                  N                     01321  0000000        000034
12006000195000156MBA MERCANTIL BRAS DE ACO LTDA                                        0000000034100000000000000000000000000000915733880000002553914370010131B02     201212272012103100000000055600001000483000000001000483000000000000000000000000000000050000000000  3020121227   01FS        1                                                                                   3112553914378064899001800079                                                  N                     01321  0000000        000035
12006000195000156MBA MERCANTIL BRAS DE ACO LTDA                                        0000000034100000000000000000000000000000915733890000002553914340010130B02     201212262012103100000000055590000557201000000000557201000000000000000000000000000000050000000000  3020121226   01FS        1                                                                                   3112553914345064899001800089                                                  N                     01321  0000000        000036
12006000195000156MBA MERCANTIL BRAS DE ACO LTDA                                        0000000034100000000000000000000000000000915733940000002553914410010132B03     201301252012103100000000055890000826269000000000826269000000000000000000000000000000050000000000  3020130125   01FS        1                                                                                   3112553914410064899001800069                                                  N                     01321  0000000        000037
12006000195000156MBA MERCANTIL BRAS DE ACO LTDA                                        0000000034100000000000000000000000000000915733740000002553913880010076B03     201301182012102600000000055820000659303000000000659303000000000000000000000000000000050000000000  3020130118   01FS        1                                                                                   3112553913883064899001800019                                                  N                     01321  0000000        000038
12006000195000156MBA MERCANTIL BRAS DE ACO LTDA                                        0000000034100000000000000000000000000000915733750000002553913860010076B01     201211232012102600000000055260000659304000000000659304000000000000000000000000000000050000000000  3020121123   01FS        1                                                                                   3112553913867064899001800019                                                  N                     01321  0000000        000039
12006000195000156MBA MERCANTIL BRAS DE ACO LTDA                                        0000000034100000000000000000000000000000915733760000002553913870010076B02     201212212012102600000000055540000659304000000000659304000000000000000000000000000000050000000000  3020121221   01FS        1                                                                                   3112553913875064899001800099                                                  N                     01321  0000000        000040
12006000195000156MBA MERCANTIL BRAS DE ACO LTDA                                        0000000034100000000000000000000000000000915733770000002553913890010077B01     201211242012102600000000055270000324849000000000324849000000000000000000000000000000050000000000  3020121126   01FS        1                                                                                   3112553913891064899001800019                                                  N                     01321  0000000        000041
12006000195000156MBA MERCANTIL BRAS DE ACO LTDA                                        0000000034100000000000000000000000000000915733780000002553913930010078B02     201212232012102600000000055560000964069000000000964069000000000000000000000000000000050000000000  3020121224   01FS        1                                                                                   3112553913933064899001800019                                                  N                     01321  0000000        000042
12006000195000156MBA MERCANTIL BRAS DE ACO LTDA                                        0000000034100000000000000000000000000000915733790000002553913940010078B03     201301202012102600000000055840000964068000000000964068000000000000000000000000000000050000000000  3020130121   01FS        1                                                                                   3112553913941064899001800019                                                  N                     01321  0000000        000043
12006000195000156MBA MERCANTIL BRAS DE ACO LTDA                                        0000000034100000000000000000000000000000915733800000002553913900010077B02     201212222012102600000000055550000324849000000000324849000000000000000000000000000000050000000000  3020121224   01FS        1                                                                                   3112553913909064899001800099                                                  N                     01321  0000000        000044
12007289649000113CRC LASER SUPR INF LTDA EPP                                           000000003410000000000000000000000000000089518989000000798566603000001157      201211022012100400000000055050000029940000000000030834000000000000000000000000000953050000000000  3020121107   06          3                                                                                   3157985666037000265431700019                                                  N                     01321  0000000        000045
12008272923000104P SANTOS ESQUADRARIAS METAL ME                                        0000000034100000000000000000000000000000915734100000006159682651954           201212052012110700000000055380000408138000000000408138000000000000000000000000000000050000000000  3020121205   01FS        1                                                                                   3156159682654160141951600029                                                  N                     01321  0000000        000046
12008594182000188ACOS G3 COMERCIO E BENEFICIAME                                        0000000023703137200000000091332 00000000912467990090227100000251155        001201210252012092700000000054970000152346000000000156224000000000000000000000000003878050000000000  3020121108   01          2  RUA GANGES  528                                                                  3                         000000000000000                                     N                     00598  0000000        000047
12009338857000190FERNANDO  NAGAO  CARDONE  ALVA                                        000000000330000000000000000000000000000089697936000000800000000ALTA 10 2012   201210202012092500000000054920000134632000000000143654000000000000000000000000009022050000000000  3020121108   01          2                                                                                   3947901700000051050080010129                                                  N                     01321  0000000        000048
12011389422000117NELSON RODRIGUES DA SILVA JUNI                                        00000000104000000000000000000000000000008996247500000000092830014922          201210312012101000000000055030000045000000000000045000000000000000000000000000000000050000000000  3020121031   05          3                                                                                   3900000092802478700000058749                                                  N                     01321  0000000        000049
12012006058000121WEG TINTAS LTDA                                                       0000000023702727800000000001309 00000000864554460090222800000750015908403     201210282012081400000000055000000306662000000000311150000000000000000000000000004488050000000000  3020121108   01          2  R JUNO  533                                                                      3                         000000000000000                                     N                     00598  0000000        000050
12012006058000121WEG TINTAS LTDA                                                       0000000023702727800000000001309 00000000861207280090222200000920015775003     201210222012080800000000054940000306662000000000313598000000000000000000000000006936050000000000  3020121108   01          2  R JUNO  533                                                                      3                         000000000000000                                     N                     00598  0000000        000051
12012006058000121WEG TINTAS LTDA                                                       0000000023702727800000000001309 00000000868126350090223500001180016086602     201210202012082100000000054920000306569000000000314321000000000000000000000000007752050000000000  3020121108   01          2  R JUNO  533                                                                      3                         000000000000000                                     N                     00598  0000000        000052
12012006058000121WEG TINTAS LTDA                                                       0000000023702727800000000001309 00000000868126360090223500001190016086603     201211042012082100000000055070000306662000000000308294000000000000000000000000001632050000000000  3020121108   01          2  R JUNO  533                                                                      3                         000000000000000                                     N                     00598  0000000        000053
12012006058000121WEG TINTAS LTDA                                                       0000000023702727800000000001309 00000000870177480090224100000970016248001     201210112012082700000000054830000306569000000000317993000000000000000000000000011424050000000000  3020121108   01          2  R JUNO  533                                                                      3                         000000000000000                                     N                     00598  0000000        000054
12012006058000121WEG TINTAS LTDA                                                       0000000023702727800000000001309 00000000870177490090224100000980016248002     201210262012082700000000054980000306569000000000311873000000000000000000000000005304050000000000  3020121108   01          2  R JUNO  533                                                                      3                         000000000000000                                     N                     00598  0000000        000055
12012006058000121WEG TINTAS LTDA                                                       0000000023702727800000000001309 00000000872318650090224700001030016359601     201210152012083100000000054870000459854000000000474566000000000000000000000000014712050000000000  3020121108   01          2  R JUNO  533                                                                      3                         000000000000000                                     N                     00598  0000000        000056
12012006058000121WEG TINTAS LTDA                                                       0000000023702727800000000001309 00000000872318660090224700001040016359602     201210302012083100000000055020000459854000000000465371000000000000000000000000005517050000000000  3020121108   01          2  R JUNO  533                                                                      3                         000000000000000                                     N                     00598  0000000        000057
12012006058000121WEG TINTAS LTDA                                                       0000000023702727800000000001309 00000000878206040090225400000780016517201     201210212012090600000000054930000459854000000000470888000000000000000000000000011034050000000000  3020121108   01          2  R JUNO  533                                                                      3                         000000000000000                                     N                     00598  0000000        000058
12012006058000121WEG TINTAS LTDA                                                       0000000023702727800000000001309 00000000878206050090225400000790016517202     201211052012090600000000055080000459854000000000461693000000000000000000000000001839050000000000  3020121108   01          2  R JUNO  533                                                                      3                         000000000000000                                     N                     00598  0000000        000059
12012006058000121WEG TINTAS LTDA                                                       0000000023702727800000000001309 00000000882668410090225800000740016626901     201210282012091300000000055000000459854000000000466597000000000000000000000000006743050000000000  3020121108   01          2  R JUNO  533                                                                      3                         000000000000000                                     N                     00598  0000000        000060
12012006058000121WEG TINTAS LTDA                                                       0000000023702727800000000001309 00000000864554450090222800000740015908402     201210132012081400000000054850000306569000000000317177000000000000000000000000010608050000000000  3020121108   01          2  R JUNO  533                                                                      3                         000000000000000                                     N                     00598  0000000        000061
12012006058000121WEG TINTAS LTDA                                                       0000000023702727800000000001309 00000000854049560090221200001020015513003     201210102012072700000000054820000459992000000000477769000000000000000000000000017777050000000000  3020121108   01          2  R JUNO  533                                                                      3                         000000000000000                                     N                     00598  0000000        000062
12012006058000121WEG TINTAS LTDA                                                       0000000023702727800000000001309 00000000856071270090221400000840015587303     201210142012073100000000054860000459992000000000475317000000000000000000000000015325050000000000  3020121108   01          2  R JUNO  533                                                                      3                         000000000000000                                     N                     00598  0000000        000063
12013656578000142GUARINOR TRANSP E LOGISTICA LT                                        000000001040000000000000000000000000000090417313000000001299300001790 12      201211052012101600000000055080000106600000000000106600000000000000000000000000000000050000000000  3020121105   06          3                                                                                   3900000129932958700000017369                                                  N                     01321  0000000        000064
12013656578000142GUARINOR TRANSP E LOGISTICA LT                                        000000001040000000000000000000000000000091573373000000001389200001908 12      201211122012102300000000055150000224900000000000224900000000000000000000000000000000050000000000  3020121112   01FS        1                                                                                   3900000138932958700000017319                                                  N                     01321  0000000        000065
12042956441000101SOLUCOES ACO USIMINAS                                                 0000000034100000000000000000000000000000853154840000002246247030017196702     201209202012072500000000054620000234841000000000257871000000000000000000000000023030050000000000  3020121108   01          2                                                                                   3112246247038293807258000099                                                  N                     01321  0000000        000066
12042956441000101SOLUCOES ACO USIMINAS                                                 0000000034100000000000000000000000000000853154850000002246247040017197302     201209202012072500000000054620000970103000000001065163000000000000000000000000095060050000000000  3020121108   01          2                                                                                   3112246247046293807258000019                                                  N                     01321  0000000        000067
12042956441000101SOLUCOES ACO USIMINAS                                                 0000000034100000000000000000000000000000855028690000002254329380017212902     201209212012072600000000054630000140098000000000153538000000000000000000000000013440050000000000  3020121108   01          2                                                                                   3112254329389293807258000019                                                  N                     01321  0000000        000068
12042956441000101SOLUCOES ACO USIMINAS                                                 0000000034100000000000000000000000000000855028700000002254329390017213002     201209212012072600000000054630000140602000000000154090000000000000000000000000013488050000000000  3020121108   01          2                                                                                   3112254329397293807258000089                                                  N                     01321  0000000        000069
12042956441000101SOLUCOES ACO USIMINAS                                                 0000000034100000000000000000000000000000855028770000002254329400017220502     201209212012072700000000054630000981022000000001075198000000000000000000000000094176050000000000  3020121108   01          2                                                                                   3112254329405293807258000099                                                  N                     01321  0000000        000070
12042956441000101SOLUCOES ACO USIMINAS                                                 0000000034100000000000000000000000000000856906410000002262886280017266201     201208282012073000000000054390000119472000000000136680000000000000000000000000017208050000000000  3020121108   01          2                                                                                   3112262886289293807258000089                                                  N                     01321  0000000        000071
12042956441000101SOLUCOES ACO USIMINAS                                                 0000000034100000000000000000000000000000856906420000002262886290017266301     201208282012073000000000054390000145069000000000165949000000000000000000000000020880050000000000  3020121108   01          2                                                                                   3112262886297293807258000099                                                  N                     01321  0000000        000072
12042956441000101SOLUCOES ACO USIMINAS                                                 0000000034100000000000000000000000000000859590620000002274469790017353702     201209282012080300000000054700000081053000000000087695000000000000000000000000006642050000000000  3020121108   01          2                                                                                   3112274469793293807258000069                                                  N                     01321  0000000        000073
12042956441000101SOLUCOES ACO USIMINAS                                                 0000000034100000000000000000000000000000848180700000002220192900017041002     201209112012071700000000054530000155433000000000173471000000000000000000000000018038050000000000  3020121108   01          2                                                                                   3112220192903293807258000029                                                  N                     01321  0000000        000074
12042956441000101SOLUCOES ACO USIMINAS                                                 0000000034100000000000000000000000000000848180710000002220192910017041202     201209112012071700000000054530000205421000000000229259000000000000000000000000023838050000000000  3020121108   01          2                                                                                   3112220192911293807258000019                                                  N                     01321  0000000        000075
12042956441000101SOLUCOES ACO USIMINAS                                                 0000000034100000000000000000000000000000850740460000002233586800017127201     201208202012072000000000054310000137881000000000159961000000000000000000000000022080050000000000  3020121108   01          2                                                                                   3112233586802293807258000019                                                  N                     01321  0000000        000076
12042956441000101SOLUCOES ACO USIMINAS                                                 0000000034100000000000000000000000000000850740470000002233586810017101002     201209142012071900000000054560000732575000000000813150000000000000000000000000080575050000000000  3020121108   01          2                                                                                   3112233586810293807258000019                                                  N                     01321  0000000        000077
12042956441000101SOLUCOES ACO USIMINAS                                                 0000000034100000000000000000000000000000850740480000002233586820017101202     201209142012071900000000054560000144634000000000160529000000000000000000000000015895050000000000  3020121108   01          2                                                                                   3112233586828293807258000029                                                  N                     01321  0000000        000078
12042956441000101SOLUCOES ACO USIMINAS                                                 0000000034100000000000000000000000000000846595700000002210880280016980502     201209102012071200000000054520000156071000000000174479000000000000000000000000018408050000000000  3020121108   01          2                                                                                   3112210880285293807258000039                                                  N                     01321  0000000        000079
12042956441000101SOLUCOES ACO USIMINAS                                                 0000000034100000000000000000000000000000846595710000002210880290016980602     201209102012071200000000054520000426094000000000476362000000000000000000000000050268050000000000  3020121108   01          2                                                                                   3112210880293293807258000019                                                  N                     01321  0000000        000080
12042956441000101SOLUCOES ACO USIMINAS                                                 0000000034100000000000000000000000000000847452070000002216130350005922202     201209102012071600000000054520000172071000000000192367000000000000000000000000020296050000000000  3020121108   01          2                                                                                   3112216130354293807258000049                                                  N                     01321  0000000        000081
12042956441000101SOLUCOES ACO USIMINAS                                                 0000000034100000000000000000000000000000847452100000002216130340017012402     201209102012071500000000054520000147428000000000164833000000000000000000000000017405050000000000  3020121108   01          2                                                                                   3112216130347293807258000059                                                  N                     01321  0000000        000082
12045635984000115CRIFER LAMINADOS DE ACO E FERR                                        0000000000100000000000000000000000000000898741120000000041640000035395E01     201211052012100900000000055080000802816000000000804422000000000000000000000000003212050000000000  3020121106   06          3                                                                                   3000000147532500000041641779                                                  N                     01321  0000000        000083
12047190731000100DE CASTRO LOUREIRO ENGENHARIA                                         00000000033000000000000000000000000000008801226600000042000000003026797 0     201210032012090300000000054750000422495000000000430945000000000000000000000000008450050000000000  3020121004   06          3                                                                                   3948430370000009553142020389                                                  N                     01321  0000000        000084
12047190731000100DE CASTRO LOUR ENG IND LTDA                                           00000000341000000000000000000000000000008782050900000023399953503026612 0     201209182012082100000000054600001111489000000001222975000000000000000000000000111486050000000000  3020121108   01          2                                                                                   3112339995352036884500400019                                                  N                     01321  0000000        000085
12047190731000100DE CASTRO LOUREIRO ENGENHARIA                                         00000000033000000000000000000000000000008826685300000028000000003026873 0     201211072012091200000000055100000947530000000000966481000000000000000000000000018951050000000000  3020121108   01          2                                                                                   3948430370000009553428020319                                                  N                     01321  0000000        000086
12047190731000100DE CASTRO LOUR ENG IND LTDA                                           00000000341000000000000000000000000000008782051200000023399953803026613 0     201209182012082100000000054600001107989000000001219118000000000000000000000000111129050000000000  3020121108   01          2                                                                                   3112339995386036884500400039                                                  N                     01321  0000000        000087
12047190731000100DE CASTRO LOUR ENG IND LTDA                                           00000000341000000000000000000000000000008782051600000023399954103026614 0     201209182012082100000000054600001047621000000001152681000000000000000000000000105060050000000000  3020121108   01          2                                                                                   3112339995410036884500400039                                                  N                     01321  0000000        000088
12047190731000100DE CASTRO LOUR ENG IND LTDA                                           00000000341000000000000000000000000000008782052000000023399955303026632 0     201209192012082200000000054610000952073000000001045673000000000000000000000000093600050000000000  3020121108   01          2                                                                                   3112339995535036884500400019                                                  N                     01321  0000000        000089
12047190731000100DE CASTRO LOUR ENG IND LTDA                                           00000000341000000000000000000000000000008782052100000023399955903026643 0     201209202012082300000000054620000867039000000000950584000000000000000000000000083545050000000000  3020121108   01          2                                                                                   3112339995592036884500400049                                                  N                     01321  0000000        000090
12047190731000100DE CASTRO LOUR ENG IND LTDA                                           00000000341000000000000000000000000000008782052500000023399955603026636 0     201209192012082200000000054610000940804000000001033304000000000000000000000000092500050000000000  3020121108   01          2                                                                                   3112339995568036884500400049                                                  N                     01321  0000000        000091
12047190731000100DE CASTRO LOUR ENG IND LTDA                                           00000000341000000000000000000000000000008782052700000023399956203026648 0     201209202012082300000000054620000976053000000001070133000000000000000000000000094080050000000000  3020121108   01          2                                                                                   3112339995626036884500400029                                                  N                     01321  0000000        000092
12048775225000146SEIKI IND COM E CONFECCOES LTD                                        000000003410000000000000000000000000000089337376000000244697151014914001      201210232012092500000000054950000052000000000000053248000000000000000000000000001248050000000000  3020121108   01          2                                                                                   3112446971510017444824100089                                                  N                     01321  0000000        000093
12049341563000132JAC COMERCIO DE MAT ELET LTDA                                         000000003410000000000000000000000000000089697943000000246543949000023447A     201211012012100400000000055040000014736000000000014856000000000000000000000000000144050000000000  3020121106   06          3                                                                                   3112465439498018060969500069                                                  N                     01321  0000000        000094
12051180370000199IGUAFER FERRO E ACO LTDA                                              0000000034100000000000000000000000000000852309100000002239389789443 B         201209022012071800000000054440000168275000000000187035000000000000000000000000018760050000000000  3020121108   01          2                                                                                   3112239389789077149484600089                                                  N                     01321  0000000        000095
12051180370000199IGUAFER FERRO E ACO LTDA                                              0000000034100000000000000000000000000000852309110000002239389799443 C         201209122012071800000000054540000168275000000000184235000000000000000000000000015960050000000000  3020121108   01          2                                                                                   3112239389797077149484600089                                                  N                     01321  0000000        000096
12053585766000141MULTIACOS I C PRODS TEC LTDA                                          0000000042200000000000000000000000000000895189330000000000000000004737201     201211062012100200000000055090000373564000000000374809000000000000000000000000001245050000000000  3020121108   01          2                                                                                   3711500005033164927761777119                                                  N                     01321  0000000        000097
12053585766000141MULTIACOS I C PRODS TEC LTDA                                          0000000042200000000000000000000000000000895189360000000000000000004594903     201211022012100200000000055050000141441000000000142856000000000000000000000000001415050000000000  3020121108   01          2                                                                                   3711500005033164927761831119                                                  N                     01321  0000000        000098
12053585766000141MULTIACOS I C PRODS TEC LTDA                                          0000000042200000000000000000000000000000895189390000000000000000004595003     201211022012100200000000055050000695717000000000702676000000000000000000000000006959050000000000  3020121108   01          2                                                                                   3711500005033164927761858149                                                  N                     01321  0000000        000099
12053585766000141MULTIACOS I C PRODS TEC LTDA                                          0000000042200000000000000000000000000000895189420000000000000000004595103     201211022012100200000000055050000354761000000000358306000000000000000000000000003545050000000000  3020121108   01          2                                                                                   3711500005033164927761874199                                                  N                     01321  0000000        000100
12053585766000141MULTIACOS I C PRODS TEC LTDA                                          0000000042200000000000000000000000000000895189460000000000000000004604403     201211052012100200000000055080000189937000000000190887000000000000000000000000000950050000000000  3020121108   01          2                                                                                   3711500005033164927761891119                                                  N                     01321  0000000        000101
12053585766000141MULTIACOS I C PRODS TEC LTDA                                          0000000042200000000000000000000000000000895189500000000000000000004585403     201211012012100200000000055040001047733000000001059954000000000000000000000000012221050000000000  3020121108   01          2                                                                                   3711500005033164927761947119                                                  N                     01321  0000000        000102
12053585766000141MULTIACOS I C PRODS TEC LTDA                                          0000000042200000000000000000000000000000895189600000000000000000004699201     201211012012100200000000055040000534986000000000541229000000000000000000000000006243050000000000  3020121108   01          2                                                                                   3711500005033164927762056149                                                  N                     01321  0000000        000103
12053585766000141MULTIACOS I C PRODS TEC LTDA                                          0000000042200000000000000000000000000000895189780000000000000000004674402     201211062012100200000000055090000385696000000000386981000000000000000000000000001285050000000000  3020121108   01          2                                                                                   3711500005033164927762226119                                                  N                     01321  0000000        000104
12053585766000141MULTIACOS I C PRODS TEC LTDA                                          0000000042200000000000000000000000000000890456910000000000000000004724101     201211062012092500000000055090000131776000000000132215000000000000000000000000000439050000000000  3020121108   01          2                                                                                   3711500005033164925775126119                                                  N                     01321  0000000        000105
12053585766000141MULTIACOS I C PRODS TEC LTDA                                          0000000042200000000000000000000000000000890456970000000000000000004724301     201211022012092500000000055050000276404000000000279169000000000000000000000000002765050000000000  3020121108   01          2                                                                                   3711500005033164925775151159                                                  N                     01321  0000000        000106
12053585766000141MULTIACOS I C PRODS TEC LTDA                                          0000000042200000000000000000000000000000890456990000000000000000004724401     201211022012092500000000055050000538498000000000543879000000000000000000000000005381050000000000  3020121108   01          2                                                                                   3711500005033164925775185129                                                  N                     01321  0000000        000107
12053585766000141MULTIACOS I C PRODS TEC LTDA                                          0000000042200000000000000000000000000000890457030000000000000000004604503     201211052012092500000000055080000910103000000000914653000000000000000000000000004550050000000000  3020121108   01          2                                                                                   3711500005033164925775258149                                                  N                     01321  0000000        000108
12053585766000141MULTIACOS I C PRODS TEC LTDA                                          0000000042200000000000000000000000000000883508160000000000000000004674602     201211062012091300000000055090000126819000000000127240000000000000000000000000000421050000000000  3020121108   01          2                                                                                   3711500005033164921116454189                                                  N                     01321  0000000        000109
12053585766000141MULTIACOS I C PRODS TEC LTDA                                          0000000042200000000000000000000000000000883508190000000000000000004584603     201211012012091300000000055040000339224000000000343178000000000000000000000000003954050000000000  3020121108   01          2                                                                                   3711500005033164921116535119                                                  N                     01321  0000000        000110
12053585766000141MULTIACOS I C PRODS TEC LTDA                                          0000000042200000000000000000000000000000883508200000000000000000004674502     201211062012091300000000055090000274012000000000274925000000000000000000000000000913050000000000  3020121108   01          2                                                                                   3711500005033164921116489119                                                  N                     01321  0000000        000111
12053585766000141MULTIACOS I C PRODS TEC LTDA                                          0000000042200000000000000000000000000000883508260000000000000000004585103     201211012012091300000000055040000222786000000000225382000000000000000000000000002596050000000000  3020121108   01          2                                                                                   3711500005033164921116578119                                                  N                     01321  0000000        000112
12053585766000141MULTIACOS I C PRODS TEC LTDA                                          0000000042200000000000000000000000000000883508300000000000000000004584803     201211012012091300000000055040000379244000000000383667000000000000000000000000004423050000000000  3020121108   01          2                                                                                   3711500005033164921116551119                                                  N                     01321  0000000        000113
12053585766000141MULTIACOS I C PRODS TEC LTDA                                          0000000042200000000000000000000000000000887697880000000000000000004612003     201211062012092000000000055090000465862000000000467413000000000000000000000000001551050000000000  3020121108   01          2                                                                                   3711500005033164923629548119                                                  N                     01321  0000000        000114
12053585766000141MULTIACOS I C PRODS TEC LTDA                                          0000000042200000000000000000000000000000887697920000000000000000004612303     201211062012092000000000055090000636673000000000638794000000000000000000000000002121050000000000  3020121108   01          2                                                                                   3711500005033164923629611179                                                  N                     01321  0000000        000115
12053585766000141MULTIACOS I C PRODS TEC LTDA                                          0000000042200000000000000000000000000000887697970000000000000000004612203     201211062012092000000000055090000214553000000000215268000000000000000000000000000715050000000000  3020121108   01          2                                                                                   3711500005033164923629637189                                                  N                     01321  0000000        000116
12053585766000141MULTIACOS COM DE PRODUTOS TECN                                        0000000023703398700000000011290 00000000888733100020226900000690004642101     201210162012090400000000054880000251722000000000261382000000000000000000000000009660050000000000  3020121108   01          2  RUA JUNO  533                                                                    3                         000000000000000                                     N                     00598  0000000        000117
12054382510000108SETENTA IND E COM DE MADEIRAS                                         0000000034100000000000000000000000000000860403430000002277814474462 A         201209042012080700000000054460000191200000000000215640000000000000000000000000024440050000000000  3020121108   01          2                                                                                   3112277814474057049175300069                                                  N                     01321  0000000        000118
12056993512000150CYKLOP DO BRASIL EMBALAGENS SA                                        0000000034100000000000000000000000000000874070500000002362586810134932        201210012012090300000000054730000083607000000000095273000000000000000000000000011666050000000000  3020121108   01          2                                                                                   3112362586813025700015800019                                                  N                     01321  0000000        000119
12056993900000131CIA METALURGICA PRADA                                                 0000000034100000000000000000000000000000848180620000002218222670025829902     201209112012071700000000054530000498118000000000546258000000000000000000000000048140050000000000  3020121108   01          2                                                                                   3112218222670293800573900029                                                  N                     01321  0000000        000120
12056993900000131CIA METALURGICA PRADA                                                 0000000034100000000000000000000000000000848180630000002218222680025830002     201209112012071700000000054530000247673000000000271627000000000000000000000000023954050000000000  3020121108   01          2                                                                                   3112218222688293800573900059                                                  N                     01321  0000000        000121
12056993900000131CIA METALURGICA PRADA                                                 0000000034100000000000000000000000000000848180640000002218222690025830102     201209112012071700000000054530000207402000000000227470000000000000000000000000020068050000000000  3020121108   01          2                                                                                   3112218222696293800573900039                                                  N                     01321  0000000        000122
12056993900000131CIA METALURGICA PRADA                                                 0000000034100000000000000000000000000000855028630000002254750290026244303     201210222012072800000000054940000100683000000000103371000000000000000000000000002856050000000000  3020121107   06          3                                                                                   3112254750295293800573900049                                                  N                     01321  0000000        000123
12056993900000131CIA METALURGICA PRADA                                                 0000000034100000000000000000000000000000855028640000002254750300026244403     201210222012072800000000054940000084116000000000086356000000000000000000000000002380050000000000  3020121107   06          3                                                                                   3112254750303293800573900099                                                  N                     01321  0000000        000124
12058805466000144PEFIL COMERCIAL LTDA                                                  0000000023700086800000000014001 000000009024499300901322910317722988 01       201211052012101700000000055080000060000000000000060300000000000000000000000000000300050000000000  3020121108   01          2  R GANGES  528                                                                    3                         000000000000000                                     N                     00598  0000000        000125
12059659615000177DZ COMERCIO R E SERVICOS LTDA                                         000000003410000000000000000000000000000091358506000000900000320280            201211032012102400000000055060000060000000000000060600000000000000000000000000000600050000000000  3020121108   01          2                                                                                   3109000003209000314585100019                                                  N                     01321  0000000        000126
12061174652000137METALURGICA SCHIOPPA LTDA                                             000000003410000000000000000000000000000089962476000000247522608117255 001     201211012012100100000000055040000062633000000000062633000000000000000000000000000000050000000000  3020121101   06          3                                                                                   3112475226083019424479400049                                                  N                     01321  0000000        000127
12061217188000119TELAS METALICAS TELMETAL LTDA                                         0000000034100000000000000000000000000000914718990000009000030955880 2 3       201212102012110500000000055430000171279000000000171279000000000000000000000000000000050000000000  3020121210   05          3                                                                                   3109000030953077073552000059                                                  N                     01321  0000000        000128
12061217188000119TELAS METALICAS TELMETAL LTDA                                         0000000034100000000000000000000000000000914719000000009000030935879 2 2       201212172012110500000000055500000123653000000000123653000000000000000000000000000000050000000000  3020121217   05          3                                                                                   3109000030938077073552000029                                                  N                     01321  0000000        000129
12061217188000119TELAS METALICAS TELMETAL LTDA                                         0000000034100000000000000000000000000000914719030000009000030965880 3 3       201212172012110500000000055500000171279000000000171279000000000000000000000000000000050000000000  3020121217   05          3                                                                                   3109000030961077073552000099                                                  N                     01321  0000000        000130
12061217188000119TELAS METALICAS TELMETAL LTDA                                         0000000034100000000000000000000000000000915734070000009000030935879 2 2       201212172012110500000000055500000123653000000000123653000000000000000000000000000000050000000000  3020121217   01FS        1                                                                                   3109000030935077098123100059                                                  N                     01321  0000000        000131
12061217188000119TELAS METALICAS TELMETAL LTDA                                         0000000034100000000000000000000000000000915734080000009000030955880 2 3       201212102012110500000000055430000171279000000000171279000000000000000000000000000000050000000000  3020121210   01FS        1                                                                                   3109000030950077098123100089                                                  N                     01321  0000000        000132
12061217188000119TELAS METALICAS TELMETAL LTDA                                         0000000034100000000000000000000000000000915734090000009000030965880 3 3       201212172012110500000000055500000171279000000000171279000000000000000000000000000000050000000000  3020121217   01FS        1                                                                                   3109000030968077098123100089                                                  N                     01321  0000000        000133
12062510367000102ITANHAEM TRANSP DE MAQUINAS LT                                        000000003410000000000000000000000000000087407049000000236463199667            201209202012090400000000054620000248220000000000296877000000000000000000000000048657050000000000  3020121108   01          2                                                                                   3112364631997005770252400049                                                  N                     01321  0000000        000134
12062539994000176LEALFER INDUSTRIA E COMERCIO D                                        0000000003300000000000000000000000000000884432770000002800000000005479102     201211062012091100000000055090001068982000000001072616000000000000000000000000003634050000000000  3020121108   01          2                                                                                   3915298380000000264628010479                                                  N                     01321  0000000        000135
12062539994000176LEALFER INDUSTRIA E COMERCIO D                                        0000000003300000000000000000000000000000902449820000001400000000005648901     201211062012100900000000055090000447825000000000449347000000000000000000000000001522050000000000  3020121108   01          2                                                                                   3915298380000000276014010469                                                  N                     01321  0000000        000136
12062539994000176LEALFER IN E COM DE ACO LTDA                                          0000000034100000000000000000000000000000915733950000002554596330005756802     201212262012102900000000055590000327558000000000327558000000000000000000000000000000050000000000  3020121226   01FS        1                                                                                   3112554596331076103324000069                                                  N                     01321  0000000        000137
12062539994000176LEALFER IN E COM DE ACO LTDA                                          0000000034100000000000000000000000000000915733960000002554598230005780603     201301282012110100000000055920000194439000000000194439000000000000000000000000000000050000000000  3020130128   01FS        1                                                                                   3112554598238076103324000019                                                  N                     01321  0000000        000138
12062539994000176LEALFER IN E COM DE ACO LTDA                                          0000000034100000000000000000000000000000915733970000002554598240005780403     201301282012110100000000055920000543333000000000543333000000000000000000000000000000050000000000  3020130128   01FS        1                                                                                   3112554598246076103324000069                                                  N                     01321  0000000        000139
12062539994000176LEALFER IN E COM DE ACO LTDA                                          0000000034100000000000000000000000000000915733980000002554596800005780602     201212312012110100000000055640000194439000000000194439000000000000000000000000000000050000000000  3020121231   01FS        1                                                                                   3112554596802076103324000039                                                  N                     01321  0000000        000140
12062539994000176LEALFER IN E COM DE ACO LTDA                                          0000000034100000000000000000000000000000915733900000002554593220005756801     201211272012102900000000055300000327558000000000327558000000000000000000000000000000050000000000  3020121127   01FS        1                                                                                   3112554593221076103324000099                                                  N                     01321  0000000        000141
12062539994000176LEALFER IN E COM DE ACO LTDA                                          0000000034100000000000000000000000000000915733910000002554594050005780601     201212032012110100000000055360000194439000000000194439000000000000000000000000000000050000000000  3020121203   01FS        1                                                                                   3112554594054076103324000019                                                  N                     01321  0000000        000142
12062539994000176LEALFER IN E COM DE ACO LTDA                                          0000000034100000000000000000000000000000915734020000002554598130005756803     201301222012102900000000055860000327558000000000327558000000000000000000000000000000050000000000  3020130122   01FS        1                                                                                   3112554598139076103324000059                                                  N                     01321  0000000        000143
12062539994000176LEALFER IN E COM DE ACO LTDA                                          0000000034100000000000000000000000000000915733930000002554594090005780401     201212032012110100000000055360000543333000000000543333000000000000000000000000000000050000000000  3020121203   01FS        1                                                                                   3112554594096076103324000089                                                  N                     01321  0000000        000144
12062539994000176LEALFER IN E COM DE ACO LTDA                                          0000000034100000000000000000000000000000915734000000002554596860005780402     201212312012110100000000055640000543333000000000543333000000000000000000000000000000050000000000  3020121231   01FS        1                                                                                   3112554596869076103324000049                                                  N                     01321  0000000        000145
12064952757000168WALMAC COM DE PROD QUIMICOS LT                                        0000000034100000000000000000000000000000896979500000002462157550021611        201211012012100400000000055040000219267000000000222284000000000000000000000000003017050000000000  3020121108   01          2                                                                                   3112462157556064807961400019                                                  N                     01321  0000000        000146
12064952757000168WALMAC COM DE PROD QUIMICOS LT                                        0000000034100000000000000000000000000000860403440000002275821690020148        201210262012080300000000054980000219266000000000224869000000000000000000000000005603050000000000  3020121108   01          2                                                                                   3112275821695064807961400019                                                  N                     01321  0000000        000147
12064952757000168WALMAC COM DE PROD QUIMICOS LT                                        0000000034100000000000000000000000000000860403450000002275821700020148        201210052012080300000000054770000219267000000000233921000000000000000000000000014654050000000000  3020121108   01          2                                                                                   3112275821703064807961400029                                                  N                     01321  0000000        000148
12066841552000130R V SEG PATRIMONIAL LTDA                                              00000000341000000000000000000000000000008852483200000090002192721927          201209102012081000000000054520000483241000000000492740000000000000000000000000009499050000000000  3020121108   01          2                                                                                   3109000219270001835253400099                                                  N                     01321  0000000        000149
12066841552000130R V SEG PATRIMONIAL S C LTDA                                          00000000341000000000000000000000000000008887329800000090002213622136          201210102012091100000000054820000374758000000000378383000000000000000000000000003625050000000000  3020121108   01          2                                                                                   3109000221365001838994000069                                                  N                     01321  0000000        000150
12066899790000105FABRICA ARTEF LATEX ESTRELA EP                                        00000000399000000000000000000000000000008826684900000000000000078599 001      201210292012091400000000055010000130200000000000130200000000000000000000000000000000050000000000  3020121029   05          3                                                                                   3175991710101125027292500179                                                  N                     01321  0000000        000151
12067300160000127OSACO PRODUTOS SIDERURGICOS LT                                        0000000023702415500000000063002 0000000091141010009024151670093650 01 01      201211052012103100000000055080000077868000000000081371000000000000000000000000003503050000000000  3020121108   01          2  RUA JUNO  533                                                                    3                         000000000000000                                     N                     00598  0000000        000152
12069284248000128ISOCOAT TINTAS E VERNIZES LTDA                                        0000000034100000000000000000000000000000841061040000002182507930052085        201209172012070200000000054590000236130000000000268890000000000000000000000000032760050000000000  3020121108   01          2                                                                                   3112182507932077430121200019                                                  N                     01321  0000000        000153
12069284248000128ISOCOAT TINTAS E VERNIZES LTDA                                        0000000034100000000000000000000000000000915734010000002553088030057592        201212172012110100000000055500000107324000000000107324000000000000000000000000000000050000000000  3020121217   01FS        1                                                                                   3112553088033077430121200089                                                  N                     01321  0000000        000154
12069284248000128ISOCOAT TINTAS E VERNIZES LTDA                                        0000000034100000000000000000000000000000915734030000002553088170057607        201212312012110100000000055640000284264000000000284264000000000000000000000000000000050000000000  3020121231   01FS        1                                                                                   3112553088173077430121200059                                                  N                     01321  0000000        000155
12069284248000128ISOCOAT TINTAS E VERNIZES LTDA                                        0000000034100000000000000000000000000000915734040000002553088180057607        201301152012110100000000055790000284348000000000284348000000000000000000000000000000050000000000  3020130115   01FS        1                                                                                   3112553088181077430121200049                                                  N                     01321  0000000        000156
12069284248000128ISOCOAT TINTAS E VERNIZES LTDA                                        0000000034100000000000000000000000000000915734050000002553088050057592        201301152012110100000000055790000093352000000000093352000000000000000000000000000000050000000000  3020130115   01FS        1                                                                                   3112553088058077430121200069                                                  N                     01321  0000000        000157
12069284248000128ISOCOAT TINTAS E VERNIZES LTDA                                        0000000034100000000000000000000000000000915734060000002553088160057607        201212172012110100000000055500000326908000000000326908000000000000000000000000000000050000000000  3020121217   01FS        1                                                                                   3112553088165077430121200029                                                  N                     01321  0000000        000158
12069284248000128ISOCOAT TINTAS E VERNIZES LTDA                                        0000000034100000000000000000000000000000915733990000002553088040057592        201212312012110100000000055640000093324000000000093324000000000000000000000000000000050000000000  3020121231   01FS        1                                                                                   3112553088041077430121200019                                                  N                     01321  0000000        000159
12071580302000124SANCHEPEL IND PAULISTA EMB L                                          0000000034100000000000000000000000000000894344100000002451277417841           201210312012100200000000055030000098992000000000098992000000000000000000000000000000050000000000  3020121031   06          3                                                                                   3112451277415007855578600019                                                  N                     01321  0000000        000160
12075483040000130REX MAQUINAS E EQUIPAMENTOS LT                                        00000000001000000000000000000000000000008681263200000091237200079547 2 3      201211012012082100000000055040000049500000000000049915000000000000000000000000000498050000000000  3020121106   06          3                                                                                   3043999123723420001185301119                                                  N                     01321  0000000        000161
12096500087000135WORKBENCH CONSULTORIA S S LTDA                                        0000000034100000000000000000000000000000878205840000007940034283118           201209272012090300000000054690000131746000000000142624000000000000000000000000010878050000000000  3020121108   01          2                                                                                   3157940034289826313803700089                                                  N                     01321  0000000        000162
900016300000000066373081                                                                                                                                                                                                                                                                                                                                                                                                                                                                01321  0000000        000163
