0000147602043799295000110ALTAMIRA IND METALURGICA LTDA           20100521000002012100817245500000        2    230A                                                                                          000000000000000                                                                                                                                                                                                                                                                                   000001
12035820448000136WHITE MARTINS GASES IND LTDA  AV  AUTONOMISTAS  4192                  0609001523700026400000003937925 I000000000009986009022290001168               201210070000000000000000054790000128371000000000128371000000000000000000000000000000010000008952  3120121008   01HA        000                                                                                 3002609222900011680393792049             008952                               N                     00000 10020256        000002
12007988026000139POINTER DISTR PROD ELETR LTDA AV  DOS LATINOS  680                    0357200034100000 0000000000000  I000000000009987000000000000000               201210080000000000000000054800000021262000000000021262000000000000000000000000000000010000005310  3120121008   01HA        000                                                                                 3181556363036077084107000019             005310                               N                     00000 10020256        000003
12057029431000106ATLAS COPCO BRASIL LTDA                                               0000000034100000 0000000000000  I000000000009988000000000000000               201210080000000000000000054800000060738000000000060738000000000000000000000000000000010000053239  3120121008   01HA        000                                                                                 3181556586845293804111400029             0053239                              N                     00000 10020256        000004
12000815065000195SIND TRABALH N E O R I INTE   RUA  MANOEL DOS SANTOS NETO  64         0203201034100000 0000000000000  I000000000009989000000000000000               201210080000000000000000054800000000000000000000023215000000000000000000000000000000050050762908  3120121008   01HA        000                                                                                 3173507629086018958625800019             0050762908                           N                     00000 10020256        000005
12008852780000100HOSTGATOR BRASIL HOSP SUP TEC ROD JOSE CARLOS DAUX  8600   CORP PARK  8805000134100000 0000000000000  I000000000009990000000000000000               201210080000000000000000054800000004999000000000004999000000000000000000000000000000050000043436  3120121008   01HA        000                                                                                 3175101510144869105372500019             0046436                              N                     00000 10020256        000006
12060830544000102TORRES GALVANIZACAO A FOGO LTDR CECILIA ROIZEN 450                    0722202023702531300000000105007 I000000000009991000000000000000               201210080000000000000000000000000000000000000000153000000000000000000000000000000000040000000001  0120121008   01HA        000                                                                                 3                                        0001                                 N                     00000 10020256        000007
900000800000000000391585                                                                                                                                                                                    000000000000000                                                                                                                                                                                                                                                    00000600273990000215370        000008
