0000147602043799295000110ALTAMIRA INDUSTRIA METALURGICA LT       202000000194820121108213035             3                                                                                                  000000000000000                                                                                                                                                                                                                                                                                   000001
12043555887000197RENATO GONCALVES                                                      0000000000100000 0000000000000  I000000000010171000000000000000               201211080000000000000000055110000193613000000000193613000000000000000000000000000000010000000308  3120121108   02BW        5000000               000000000000000                                               3000000104260650156804031149               308/02                             N                     01132 10020256        000002
12047190731000100DE CASTRO LOUREIRO ENGENHARIA                                         0000000003300000 0000000000000  I000000000010170000000000000000               201211080000000000000000055110000919796000000000919796000000000000000000000000000000010000026820  3120121108   02BW        5000000               000000000000000                                               3948430370000009553177010439               026820/01                          N                     01132 10020256        000003
12061786604000108HERWAL ABRASIVOS E MAQUINAS LT                                        0000000000100000 0000000000000  I000000000010172000000000000000               201211080000000000000000055110000020000000000000020000000000000000000000000000000000010000001791  3120121108   02BW        5000000               000000000000000                                               3986153004290719000047911819               01791                              N                     01132 10020256        000004
12067300160000127OSACO PRODUTOS SIDERURGICOS LT                                        0000000023702415500000000063002 I000000000010175009024151670093               201211080000000000000000000000000000000000000000077868000000000000000000000000000000010000000650  3120121108   02BW        5000000               000000000000000                                               3241509241516700930006300019               650/01                             N                     01079 10020256        000005
12043799295000110ALTAMIRA INDUSTRIA METAL LTDA                                         0000000003303809500000130004071 I000000000010168000000000000000               201211080000000000000000000000000000000000000004000000000000000000000000000000000000050000000001  0820121108   02BW        5001200               000000000000000                                               3D0000000101                               01                                 S                     01133 10020256        000006
12049341563000132JAC COMERCIO DE MAT ELET LTDA                                         000000003410000000000000000000000000000089697946000000246543951000023447B     201211082012100400000000055110000014732000000000014732000000000000000000000000000000050000000000  3020121108   02BW        2000000               000000000000000                                               3112465439514018060969500019               23447/02                           N                     01132 10020256        000007
12004643290000142FLEXTINTAS IND E COMERCIO LTDA                                        000000003410000000000000000000000000000089697949000000246363342NFF037938B     201211082012100400000000055110000049525000000000049525000000000000000000000000000000050000000000  3020121108   02BW        2000000               000000000000000                                               3112463633423051356781800029               37938/02                           N                     01132 10020256        000008
12033325184001786ALSCO TOALHEIRO BRASIL                                                0000000023703396000000001490850 0000000090830963009000002770505VM27705        201211082012101900000000055110000051893000000000051893000000000000000000000000000000050000000000  3020121108   02BW        2000000               000000000000000                                               3                         000000000000000  27705                              N                     01079 10020256        000009
12035820448000136WHITE MARTINS GASES INDUSTRIAI                                        0000000023700026400000003937925 0000000090052292009022890000590393075 001     201211082012101200000000055110000081150000000000081150000000000000000000000000000000050000000000  3020121108   02BW        2000000               000000000000000                                               3                         000000000000000  09295                              N                     01079 10020256        000010
12058805466000144PEFIL COMERCIAL LTDA                                                  0000000023700086800000000014001 000000009024499300901322910317722988 01       201211052012101700000000055080000060000000000000060300000000000000000000000000000600050000000000  3020121108   02BW        2000000               000000000000000                                               3                         000000000000000  0280/01                            N                     01079 10020256        000011
12047190731000100DE CASTRO LOUR ENG IND LTDA                                           00000000341000000000000000000000000000009041732700000025008464803027234 0     201211082012101100000000055110001029597000000001029597000000000000000000000000000000050000000000  3020121108   02BW        2000000               000000000000000                                               3112500846483036884500400049               027234/01                          N                     01132 10020256        000012
12005044228000105TRIARC COM S METAIS USINADOS                                          000000003410000000000000000000000000000090145501000000700013497314 S          201211082012101600000000055110000011000000000000011000000000000000000000000000000000050000000000  3020121108   02BW        2000000               000000000000000                                               3157000134979076157868100019               314                                N                     01132 10020256        000013
12005044228000105TRIARC COM S METAIS USINADOS                                          000000003410000000000000000000000000000090145500000000700013593820            201211082012101600000000055110000016000000000000016000000000000000000000000000000000050000000000  3020121108   02BW        2000000               000000000000000                                               3157000135935076157868100079               820                                N                     01132 10020256        000014
12042956441000101SOLUCOES ACO USIMINAS                                                 0000000034100000000000000000000000000000848180560000002220192920017041003     201211082012071700000000055110000155434000000000155434000000000000000000000000000000050000000000  3020121108   02BW        2000000               000000000000000                                               3112220192929293807258000019               170410/03                          N                     01132 10020256        000015
12042956441000101SOLUCOES ACO USIMINAS                                                 0000000034100000000000000000000000000000848180570000002220192930017041203     201211082012071700000000055110000205421000000000205421000000000000000000000000000000050000000000  3020121108   02BW        2000000               000000000000000                                               3112220192937293807258000039               170412/03                          N                     01132 10020256        000016
12000815065000195SIND TRABALH N E O R I INTE                                           0000000034100000 0000000000000  I000000000010174000000000000000               201211080000000000000000055110000000000000000000023215000000000000000000000000000000010050777384  3120121108   02BW        5000000               000000000000000                                               3173507773843018958625800049               50777384                           N                     01132 10020256        000017
12062442132000120LAR INFANCIA DE NICE                                                  0000000060000000 0000000000000  I000000000010173000000000000000               201211080000000000000000000000000000000000000000005000000000000000000000000000000000010000112012  3120121108   02BW        5000000               000000000000000                                               3000112101030960000784808179               11/2012                            N                     01132 10020256        000018
12047190731000100DE CASTRO LOUREIRO ENGENHARIA                                         0000000003300000 0000000000000  I000000000010169000000000000000               201211080000000000000000055110001192680000000001192680000000000000000000000000000000010000026825  3120121108   02BW        5000000               000000000000000                                               3948430370000009553207010429               26825/01                           N                     01132 10020256        000019
12058566399000152NORDSON DO BRASIL IND E COM LT                                        0000000039900000000000000000000000000000901454990000000000000000000057701     201211082012101100000000055110000063000000000000063000000000000000000000000000000000050000000000  3020121108   02BW        2000000               000000000000000                                               3176185754201163111666000159               57701                              N                     01132 10020256        000020
900002100000000008170224                                                                                                                                                                                    000000000000000                                                                                                                                                                                                                                                    00001900881730004063841        000021
