0000147602043799295000110ALTAMIRA INDUSTRIA METALURGICA LT       202000000016420121109055748             1                                                                                                                                                                                                                                                                                                                                                                                                    000001
12001895314000162COLETA INDUSTRIAL FIMAVAN LTDA                                        00000000341000000000000000000000000000009032787100000090023540111403          201210272012101700000000054990000140379000000000147301000000000000000000000000007296050000000000  3020121107   06          3                                                                                   3109002354016144604097200019                                                  N                     01321  0000000        000002
12001895314000162COLETA INDUSTRIAL FIMAVAN LTDA                                        0000000034100000000000000000000000000000866992070000009002335349439           201208272012081700000000054380000123695000000000150515000000000000000000000000026820050000000000  3020121109   01          2                                                                                   3109002335346144604097200019                                                  N                     01321  0000000        000003
12002583013000166ITAN TRANSP DE CARGAS EXC E IN                                        000000003410000000000000000000000000000088350836000000239377422008 B          201210212012091400000000054930000192500000000000207130000000000000000000000000014630050000000000  3020121109   01          2                                                                                   3112393774222005770252400039                                                  N                     01321  0000000        000004
12003489596000123BEND FLEX I COMERCIO LTDA                                             000000003410000000000000000000000000000088350832000000171879874608            201209122012082100000000054540000695250000000000774536000000000000000000000000079286050000000000  3020121109   01          2                                                                                   3191718798744157734445800069                                                  N                     01321  0000000        000005
12003489596000123BEND FLEX I COMERCIO LTDA                                             000000003410000000000000000000000000000088599899000000171434574613            201209172012081600000000054590000585000000000000646003000000000000000000000000061003050000000000  3020121109   01          2                                                                                   3191714345748157734445800019                                                  N                     01321  0000000        000006
12003489596000123BEND FLEX I COMERCIO LTDA                                             000000003410000000000000000000000000000091358505000000177374323637            201210292012092700000000055010000110000000000000112376000000000000000000000000002376050000000000  3020121109   01          2                                                                                   3191773743239157734445800019                                                  N                     01321  0000000        000007
12003489596000123BEND FLEX INDUSTRIA E COMERCIO                                        000000001040000000000000000000000000000089874116000000317820500638            201211012012100400000000055040000269000000000000269000000000000000000000000000000000050000000000  3020121101   05          3                                                                                   3314331782011558700000019989                                                  N                     01321  0000000        000008
12005880850000145NEDERMAN BRASIL COM PROD EX LT                                        000000003410000000000000000000000000000086373178000000614350956002763 A       201209252012081400000000054670000289674000000000315324000000000000000000000000025650050000000000  3020121109   01          2                                                                                   3156143509568160829000100049                                                  N                     01321  0000000        000009
12006000195000156MBA MERCANTIL BRAS DE ACO LTDA                                        0000000034100000000000000000000000000000904173150000001667238300008870B03     201210092012071600000000054810000839951000000000891163000000000000000000000000051212050000000000  3020121109   01          2                                                                                   3191667238304064849251000039                                                  N                     01321  0000000        000010
12006000195000156MBA MERCANTIL BRAS DE ACO LTDA                                        0000000034100000000000000000000000000000904173160000001667238280008876B03     201210122012071600000000054840000810320000000000854952000000000000000000000000044632050000000000  3020121109   01          2                                                                                   3191667238288064849251000079                                                  N                     01321  0000000        000011
12006000195000156MBA MERCANTIL BRAS DE ACO LTDA                                        0000000034100000000000000000000000000000904173170000001671394420008925B03     201210122012071700000000054840000719580000000000759200000000000000000000000000039620050000000000  3020121109   01          2                                                                                   3191671394424064849251000069                                                  N                     01321  0000000        000012
12006000195000156MBA MERCANTIL BRAS DE ACO LTDA                                        0000000034100000000000000000000000000000885998980000001667238420008870B02     201209112012071600000000054530000839952000000000937420000000000000000000000000097468050000000000  3020121109   01          2                                                                                   3191667238429064849251000039                                                  N                     01321  0000000        000013
12006000195000156MBA MERCANTIL BRAS DE ACO LTDA                                        0000000034100000000000000000000000000000904173180000001671394430008926B03     201210122012071700000000054840000387716000000000409080000000000000000000000000021364050000000000  3020121109   01          2                                                                                   3191671394432064849251000079                                                  N                     01321  0000000        000014
12006000195000156MBA MERCANTIL BRAS DE ACO LTDA                                        0000000034100000000000000000000000000000906662670000001671394410008920B03     201210142012071700000000054860000576584000000000606068000000000000000000000000029484050000000000  3020121109   01          2                                                                                   3191671394416064849251000039                                                  N                     01321  0000000        000015
12006000195000156MBA MERCANTIL BRAS DE ACO LTDA                                        0000000034100000000000000000000000000000904173140000001667238290008874B03     201210112012071600000000054830000802825000000000848616000000000000000000000000045791050000000000  3020121109   01          2                                                                                   3191667238296064849251000069                                                  N                     01321  0000000        000016
12006000195000156MBA MERCANTIL BRAS DE ACO LTDA                                        0000000034100000000000000000000000000000889578520000001671394540008920B02     201209162012071700000000054580000576585000000000637821000000000000000000000000061236050000000000  3020121109   01          2                                                                                   3191671394549064849251000099                                                  N                     01321  0000000        000017
12006000195000156MBA MERCANTIL BRAS DE ACO LTDA                                        0000000034100000000000000000000000000000887698090000001671394550008925B02     201209142012071700000000054560000719581000000000798821000000000000000000000000079240050000000000  3020121109   01          2                                                                                   3191671394556064849251000089                                                  N                     01321  0000000        000018
12006000195000156MBA MERCANTIL BRAS DE ACO LTDA                                        0000000034100000000000000000000000000000887698100000001671394560008926B02     201209142012071700000000054560000387716000000000430444000000000000000000000000042728050000000000  3020121109   01          2                                                                                   3191671394564064849251000019                                                  N                     01321  0000000        000019
12006000195000156M B A MERCANTIL BRASILEIRA DE                                         0000000023700118P00000002130599 00000000865388260020222900000470009204B02     201210112012081500000000054830000127292000000000133440000000000000000000000000006148050000000000  3020121109   01          2  RUA JUNO  533                                                                    3                         000000000000000                                     N                     00598  0000000        000020
12006000195000156M B A MERCANTIL BRASILEIRA DE                                         0000000023700118P00000002130599 00000000865388290020222900000500009205B02     201210122012081500000000054840000348964000000000365260000000000000000000000000016296050000000000  3020121109   01          2  RUA JUNO  533                                                                    3                         000000000000000                                     N                     00598  0000000        000021
12006000195000156M B A MERCANTIL BRASILEIRA DE                                         0000000023700118P00000002130599 00000000865388320020222900000530009206B02     201210132012081500000000054850000527560000000000551293000000000000000000000000023733050000000000  3020121109   01          2  RUA JUNO  533                                                                    3                         000000000000000                                     N                     00598  0000000        000022
12006000195000156M B A MERCANTIL BRASILEIRA DE                                         0000000023700118P00000002130599 00000000868592690020223600000020009229B02     201210112012081600000000054830000253414000000000265652000000000000000000000000012238050000000000  3020121109   01          2  RUA JUNO  533                                                                    3                         000000000000000                                     N                     00598  0000000        000023
12006000195000156M B A MERCANTIL BRASILEIRA DE                                         0000000023700118P00000002130599 00000000848180770020220100000340008905B03     201210112012071900000000054830000155300000000000162811000000000000000000000000007511050000000000  3020121109   01          2  RUA JUNO  533                                                                    3                         000000000000000                                     N                     00598  0000000        000024
12008594182000188ACOS G3 COMERCIO E BENEFICIAME                                        0000000023703137200000000091332 00000000912467990090227100000251155        001201210252012092700000000054970000152346000000000156230000000000000000000000000003884050000000000  3020121109   01          2  RUA GANGES  528                                                                  3                         000000000000000                                     N                     00598  0000000        000025
12009338857000190FERNANDO  NAGAO  CARDONE  ALVA                                        000000000330000000000000000000000000000089697936000000800000000ALTA 10 2012   201210202012092500000000054920000134632000000000144058000000000000000000000000009426050000000000  3020121109   01          2                                                                                   3947901700000051050080010129                                                  N                     01321  0000000        000026
12009338857000190FERNANDO  NAGAO  CARDONE  ALVA                                        000000000330000000000000000000000000000091653176000000300000000ALTA 11 2012   201211202012103000000000055230000134632000000000134632000000000000000000000000000000050000000000  3020121120   01FS        1                                                                                   3947901700000051051630010119                                                  N                     01321  0000000        000027
12012006058000121WEG TINTAS LTDA                                                       0000000023702727800000000001309 00000000878206040090225400000780016517201     201210212012090600000000054930000459854000000000471501000000000000000000000000011647050000000000  3020121109   01          2  R JUNO  533                                                                      3                         000000000000000                                     N                     00598  0000000        000028
12012006058000121WEG TINTAS LTDA                                                       0000000023702727800000000001309 00000000870177480090224100000970016248001     201210112012082700000000054830000306569000000000318401000000000000000000000000011832050000000000  3020121109   01          2  R JUNO  533                                                                      3                         000000000000000                                     N                     00598  0000000        000029
12012006058000121WEG TINTAS LTDA                                                       0000000023702727800000000001309 00000000870177490090224100000980016248002     201210262012082700000000054980000306569000000000312281000000000000000000000000005712050000000000  3020121109   01          2  R JUNO  533                                                                      3                         000000000000000                                     N                     00598  0000000        000030
12012006058000121WEG TINTAS LTDA                                                       0000000023702727800000000001309 00000000872318650090224700001030016359601     201210152012083100000000054870000459854000000000475179000000000000000000000000015325050000000000  3020121109   01          2  R JUNO  533                                                                      3                         000000000000000                                     N                     00598  0000000        000031
12012006058000121WEG TINTAS LTDA                                                       0000000023702727800000000001309 00000000872318660090224700001040016359602     201210302012083100000000055020000459854000000000465984000000000000000000000000006130050000000000  3020121109   01          2  R JUNO  533                                                                      3                         000000000000000                                     N                     00598  0000000        000032
12012006058000121WEG TINTAS LTDA                                                       0000000023702727800000000001309 00000000868126350090223500001180016086602     201210202012082100000000054920000306569000000000314729000000000000000000000000008160050000000000  3020121109   01          2  R JUNO  533                                                                      3                         000000000000000                                     N                     00598  0000000        000033
12012006058000121WEG TINTAS LTDA                                                       0000000023702727800000000001309 00000000868126360090223500001190016086603     201211042012082100000000055070000306662000000000308702000000000000000000000000002040050000000000  3020121109   01          2  R JUNO  533                                                                      3                         000000000000000                                     N                     00598  0000000        000034
12012006058000121WEG TINTAS LTDA                                                       0000000023702727800000000001309 00000000878206050090225400000790016517202     201211052012090600000000055080000459854000000000462306000000000000000000000000002452050000000000  3020121109   01          2  R JUNO  533                                                                      3                         000000000000000                                     N                     00598  0000000        000035
12012006058000121WEG TINTAS LTDA                                                       0000000023702727800000000001309 00000000882668410090225800000740016626901     201210282012091300000000055000000459854000000000467210000000000000000000000000007356050000000000  3020121109   01          2  R JUNO  533                                                                      3                         000000000000000                                     N                     00598  0000000        000036
12012006058000121WEG TINTAS LTDA                                                       0000000023702727800000000001309 00000000854049560090221200001020015513003     201210102012072700000000054820000459992000000000478382000000000000000000000000018390050000000000  3020121109   01          2  R JUNO  533                                                                      3                         000000000000000                                     N                     00598  0000000        000037
12012006058000121WEG TINTAS LTDA                                                       0000000023702727800000000001309 00000000856071270090221400000840015587303     201210142012073100000000054860000459992000000000475930000000000000000000000000015938050000000000  3020121109   01          2  R JUNO  533                                                                      3                         000000000000000                                     N                     00598  0000000        000038
12012006058000121WEG TINTAS LTDA                                                       0000000023702727800000000001309 00000000861207280090222200000920015775003     201210222012080800000000054940000306662000000000314006000000000000000000000000007344050000000000  3020121109   01          2  R JUNO  533                                                                      3                         000000000000000                                     N                     00598  0000000        000039
12012006058000121WEG TINTAS LTDA                                                       0000000023702727800000000001309 00000000864554450090222800000740015908402     201210132012081400000000054850000306569000000000317585000000000000000000000000011016050000000000  3020121109   01          2  R JUNO  533                                                                      3                         000000000000000                                     N                     00598  0000000        000040
12012006058000121WEG TINTAS LTDA                                                       0000000023702727800000000001309 00000000864554460090222800000750015908403     201210282012081400000000055000000306662000000000311558000000000000000000000000004896050000000000  3020121109   01          2  R JUNO  533                                                                      3                         000000000000000                                     N                     00598  0000000        000041
12035820448000136WHITE MARTINS GASES INDUSTRIAI                                        0000000023700026400000003937925 0000000091653175009023130001136404362 001     201212052012110800000000055380000162300000000000162300000000000000000000000000000000050000000000  3020121205   01FS        1  RUA GANGES  528                                                                  3                         000000000000000                                     N                     00598  0000000        000042
12042956441000101SOLUCOES ACO USIMINAS                                                 0000000034100000000000000000000000000000847452090000002216130370005922203     201211072012071600000000055100000172071000000000172071000000000000000000000000000000050000000000  3020121107   06          3                                                                                   3112216130370293807258000019                                                  N                     01321  0000000        000043
12042956441000101SOLUCOES ACO USIMINAS                                                 0000000034100000000000000000000000000000853154840000002246247030017196702     201209202012072500000000054620000234841000000000258341000000000000000000000000023500050000000000  3020121109   01          2                                                                                   3112246247038293807258000099                                                  N                     01321  0000000        000044
12042956441000101SOLUCOES ACO USIMINAS                                                 0000000034100000000000000000000000000000853154850000002246247040017197302     201209202012072500000000054620000970103000000001067103000000000000000000000000097000050000000000  3020121109   01          2                                                                                   3112246247046293807258000019                                                  N                     01321  0000000        000045
12042956441000101SOLUCOES ACO USIMINAS                                                 0000000034100000000000000000000000000000855028690000002254329380017212902     201209212012072600000000054630000140098000000000153818000000000000000000000000013720050000000000  3020121109   01          2                                                                                   3112254329389293807258000019                                                  N                     01321  0000000        000046
12042956441000101SOLUCOES ACO USIMINAS                                                 0000000034100000000000000000000000000000855028700000002254329390017213002     201209212012072600000000054630000140602000000000154371000000000000000000000000013769050000000000  3020121109   01          2                                                                                   3112254329397293807258000089                                                  N                     01321  0000000        000047
12042956441000101SOLUCOES ACO USIMINAS                                                 0000000034100000000000000000000000000000846595710000002210880290016980602     201209102012071200000000054520000426094000000000477214000000000000000000000000051120050000000000  3020121109   01          2                                                                                   3112210880293293807258000019                                                  N                     01321  0000000        000048
12042956441000101SOLUCOES ACO USIMINAS                                                 0000000034100000000000000000000000000000847452070000002216130350005922202     201209102012071600000000054520000172071000000000192711000000000000000000000000020640050000000000  3020121109   01          2                                                                                   3112216130354293807258000049                                                  N                     01321  0000000        000049
12042956441000101SOLUCOES ACO USIMINAS                                                 0000000034100000000000000000000000000000855028770000002254329400017220502     201209212012072700000000054630000981022000000001077160000000000000000000000000096138050000000000  3020121109   01          2                                                                                   3112254329405293807258000099                                                  N                     01321  0000000        000050
12042956441000101SOLUCOES ACO USIMINAS                                                 0000000034100000000000000000000000000000856906410000002262886280017266201     201208282012073000000000054390000119472000000000136919000000000000000000000000017447050000000000  3020121109   01          2                                                                                   3112262886289293807258000089                                                  N                     01321  0000000        000051
12042956441000101SOLUCOES ACO USIMINAS                                                 0000000034100000000000000000000000000000856906420000002262886290017266301     201208282012073000000000054390000145069000000000166239000000000000000000000000021170050000000000  3020121109   01          2                                                                                   3112262886297293807258000099                                                  N                     01321  0000000        000052
12042956441000101SOLUCOES ACO USIMINAS                                                 0000000034100000000000000000000000000000859590620000002274469790017353702     201209282012080300000000054700000081053000000000087857000000000000000000000000006804050000000000  3020121109   01          2                                                                                   3112274469793293807258000069                                                  N                     01321  0000000        000053
12042956441000101SOLUCOES ACO USIMINAS                                                 0000000034100000000000000000000000000000846595700000002210880280016980502     201209102012071200000000054520000156071000000000174791000000000000000000000000018720050000000000  3020121109   01          2                                                                                   3112210880285293807258000039                                                  N                     01321  0000000        000054
12042956441000101SOLUCOES ACO USIMINAS                                                 0000000034100000000000000000000000000000847452100000002216130340017012402     201209102012071500000000054520000147428000000000165128000000000000000000000000017700050000000000  3020121109   01          2                                                                                   3112216130347293807258000059                                                  N                     01321  0000000        000055
12042956441000101SOLUCOES ACO USIMINAS                                                 0000000034100000000000000000000000000000848180700000002220192900017041002     201209112012071700000000054530000155433000000000173782000000000000000000000000018349050000000000  3020121109   01          2                                                                                   3112220192903293807258000029                                                  N                     01321  0000000        000056
12042956441000101SOLUCOES ACO USIMINAS                                                 0000000034100000000000000000000000000000848180710000002220192910017041202     201209112012071700000000054530000205421000000000229670000000000000000000000000024249050000000000  3020121109   01          2                                                                                   3112220192911293807258000019                                                  N                     01321  0000000        000057
12042956441000101SOLUCOES ACO USIMINAS                                                 0000000034100000000000000000000000000000850740460000002233586800017127201     201208202012072000000000054310000137881000000000160237000000000000000000000000022356050000000000  3020121109   01          2                                                                                   3112233586802293807258000019                                                  N                     01321  0000000        000058
12042956441000101SOLUCOES ACO USIMINAS                                                 0000000034100000000000000000000000000000850740470000002233586810017101002     201209142012071900000000054560000732575000000000814615000000000000000000000000082040050000000000  3020121109   01          2                                                                                   3112233586810293807258000019                                                  N                     01321  0000000        000059
12042956441000101SOLUCOES ACO USIMINAS                                                 0000000034100000000000000000000000000000850740480000002233586820017101202     201209142012071900000000054560000144634000000000160818000000000000000000000000016184050000000000  3020121109   01          2                                                                                   3112233586828293807258000029                                                  N                     01321  0000000        000060
12047190731000100DE CASTRO LOUR ENG IND LTDA                                           00000000341000000000000000000000000000008782051200000023399953803026613 0     201209182012082100000000054600001107989000000001221297000000000000000000000000113308050000000000  3020121109   01          2                                                                                   3112339995386036884500400039                                                  N                     01321  0000000        000061
12047190731000100DE CASTRO LOUR ENG IND LTDA                                           00000000341000000000000000000000000000008782051600000023399954103026614 0     201209182012082100000000054600001047621000000001154741000000000000000000000000107120050000000000  3020121109   01          2                                                                                   3112339995410036884500400039                                                  N                     01321  0000000        000062
12047190731000100DE CASTRO LOUR ENG IND LTDA                                           00000000341000000000000000000000000000008782052000000023399955303026632 0     201209192012082200000000054610000952073000000001047545000000000000000000000000095472050000000000  3020121109   01          2                                                                                   3112339995535036884500400019                                                  N                     01321  0000000        000063
12047190731000100DE CASTRO LOUR ENG IND LTDA                                           00000000341000000000000000000000000000008782052100000023399955903026643 0     201209202012082300000000054620000867039000000000952289000000000000000000000000085250050000000000  3020121109   01          2                                                                                   3112339995592036884500400049                                                  N                     01321  0000000        000064
12047190731000100DE CASTRO LOUR ENG IND LTDA                                           00000000341000000000000000000000000000008782052500000023399955603026636 0     201209192012082200000000054610000940804000000001035154000000000000000000000000094350050000000000  3020121109   01          2                                                                                   3112339995568036884500400049                                                  N                     01321  0000000        000065
12047190731000100DE CASTRO LOUR ENG IND LTDA                                           00000000341000000000000000000000000000008782052700000023399956203026648 0     201209202012082300000000054620000976053000000001072053000000000000000000000000096000050000000000  3020121109   01          2                                                                                   3112339995626036884500400029                                                  N                     01321  0000000        000066
12047190731000100DE CASTRO LOUR ENG IND LTDA                                           00000000341000000000000000000000000000008782050900000023399953503026612 0     201209182012082100000000054600001111489000000001225161000000000000000000000000113672050000000000  3020121109   01          2                                                                                   3112339995352036884500400019                                                  N                     01321  0000000        000067
12047190731000100DE CASTRO LOUREIRO ENGENHARIA                                         00000000033000000000000000000000000000008801227400000007000000003026825 0     201210042012090600000000054760001192680000000001216534000000000000000000000000023854050000000000  3020121005   06          3                                                                                   3948430370000009553207020319                                                  N                     01321  0000000        000068
12047190731000100DE CASTRO LOUREIRO ENGENHARIA                                         00000000033000000000000000000000000000008801227500000077000000003026820 0     201210042012090500000000054760000919796000000000938192000000000000000000000000018396050000000000  3020121005   06          3                                                                                   3948430370000009553177020329                                                  N                     01321  0000000        000069
12048775225000146SEIKI IND COM E CONFECCOES LTD                                        000000003410000000000000000000000000000089337376000000244697151014914001      201210232012092500000000054950000052000000000000053326000000000000000000000000001326050000000000  3020121109   01          2                                                                                   3112446971510017444824100089                                                  N                     01321  0000000        000070
12051180370000199IGUAFER FERRO E ACO LTDA                                              0000000034100000000000000000000000000000852309100000002239389789443 B         201209022012071800000000054440000168275000000000187315000000000000000000000000019040050000000000  3020121109   01          2                                                                                   3112239389789077149484600089                                                  N                     01321  0000000        000071
12051180370000199IGUAFER FERRO E ACO LTDA                                              0000000034100000000000000000000000000000852309110000002239389799443 C         201209122012071800000000054540000168275000000000184515000000000000000000000000016240050000000000  3020121109   01          2                                                                                   3112239389797077149484600089                                                  N                     01321  0000000        000072
12053585766000141MULTIACOS I C PRODS TEC LTDA                                          0000000042200000000000000000000000000000887697880000000000000000004612003     201211062012092000000000055090000465862000000000468189000000000000000000000000002327050000000000  3020121109   01          2                                                                                   3711500005033164923629548119                                                  N                     01321  0000000        000073
12053585766000141MULTIACOS I C PRODS TEC LTDA                                          0000000042200000000000000000000000000000895189460000000000000000004604403     201211052012100200000000055080000189937000000000191204000000000000000000000000001267050000000000  3020121109   01          2                                                                                   3711500005033164927761891119                                                  N                     01321  0000000        000074
12053585766000141MULTIACOS I C PRODS TEC LTDA                                          0000000042200000000000000000000000000000895189640000000000000000004750001     201211082012100200000000055110000229622000000000230004000000000000000000000000000382050000000000  3020121109   01          2                                                                                   3711500005033164927762111139                                                  N                     01321  0000000        000075
12053585766000141MULTIACOS I C PRODS TEC LTDA                                          0000000042200000000000000000000000000000895189710000000000000000004685002     201211082012100200000000055110000547346000000000548257000000000000000000000000000911050000000000  3020121109   01          2                                                                                   3711500005033164927762196129                                                  N                     01321  0000000        000076
12053585766000141MULTIACOS I C PRODS TEC LTDA                                          0000000042200000000000000000000000000000895189780000000000000000004674402     201211062012100200000000055090000385696000000000387624000000000000000000000000001928050000000000  3020121109   01          2                                                                                   3711500005033164927762226119                                                  N                     01321  0000000        000077
12053585766000141MULTIACOS I C PRODS TEC LTDA                                          0000000042200000000000000000000000000000887697920000000000000000004612303     201211062012092000000000055090000636673000000000639855000000000000000000000000003182050000000000  3020121109   01          2                                                                                   3711500005033164923629611179                                                  N                     01321  0000000        000078
12053585766000141MULTIACOS I C PRODS TEC LTDA                                          0000000042200000000000000000000000000000887697970000000000000000004612203     201211062012092000000000055090000214553000000000215626000000000000000000000000001073050000000000  3020121109   01          2                                                                                   3711500005033164923629637189                                                  N                     01321  0000000        000079
12053585766000141MULTIACOS I C PRODS TEC LTDA                                          0000000042200000000000000000000000000000883508160000000000000000004674602     201211062012091300000000055090000126819000000000127451000000000000000000000000000632050000000000  3020121109   01          2                                                                                   3711500005033164921116454189                                                  N                     01321  0000000        000080
12053585766000141MULTIACOS I C PRODS TEC LTDA                                          0000000042200000000000000000000000000000895189330000000000000000004737201     201211062012100200000000055090000373564000000000375432000000000000000000000000001868050000000000  3020121109   01          2                                                                                   3711500005033164927761777119                                                  N                     01321  0000000        000081
12053585766000141MULTIACOS I C PRODS TEC LTDA                                          0000000042200000000000000000000000000000895189360000000000000000004594903     201211022012100200000000055050000141441000000000143092000000000000000000000000001651050000000000  3020121109   01          2                                                                                   3711500005033164927761831119                                                  N                     01321  0000000        000082
12053585766000141MULTIACOS I C PRODS TEC LTDA                                          0000000042200000000000000000000000000000895189390000000000000000004595003     201211022012100200000000055050000695717000000000703836000000000000000000000000008119050000000000  3020121109   01          2                                                                                   3711500005033164927761858149                                                  N                     01321  0000000        000083
12053585766000141MULTIACOS I C PRODS TEC LTDA                                          0000000042200000000000000000000000000000895189420000000000000000004595103     201211022012100200000000055050000354761000000000358897000000000000000000000000004136050000000000  3020121109   01          2                                                                                   3711500005033164927761874199                                                  N                     01321  0000000        000084
12053585766000141MULTIACOS I C PRODS TEC LTDA                                          0000000042200000000000000000000000000000890456910000000000000000004724101     201211062012092500000000055090000131776000000000132435000000000000000000000000000659050000000000  3020121109   01          2                                                                                   3711500005033164925775126119                                                  N                     01321  0000000        000085
12053585766000141MULTIACOS I C PRODS TEC LTDA                                          0000000042200000000000000000000000000000890456970000000000000000004724301     201211022012092500000000055050000276404000000000279630000000000000000000000000003226050000000000  3020121109   01          2                                                                                   3711500005033164925775151159                                                  N                     01321  0000000        000086
12053585766000141MULTIACOS I C PRODS TEC LTDA                                          0000000042200000000000000000000000000000890456990000000000000000004724401     201211022012092500000000055050000538498000000000544776000000000000000000000000006278050000000000  3020121109   01          2                                                                                   3711500005033164925775185129                                                  N                     01321  0000000        000087
12053585766000141MULTIACOS I C PRODS TEC LTDA                                          0000000042200000000000000000000000000000890457030000000000000000004604503     201211052012092500000000055080000910103000000000916170000000000000000000000000006067050000000000  3020121109   01          2                                                                                   3711500005033164925775258149                                                  N                     01321  0000000        000088
12053585766000141MULTIACOS I C PRODS TEC LTDA                                          0000000042200000000000000000000000000000883508200000000000000000004674502     201211062012091300000000055090000274012000000000275382000000000000000000000000001370050000000000  3020121109   01          2                                                                                   3711500005033164921116489119                                                  N                     01321  0000000        000089
12053585766000141MULTIACOS IND E CO                                                    0000000034100000000000000000000000000000885998960000002407458090004685001     201210252012091300000000054970000563931000000000570511000000000000000000000000007520050000000000  3020121101   05          3                                                                                   3112407458093293803748400099                                                  N                     01321  0000000        000090
12054382510000108SETENTA IND E COM DE MADEIRAS                                         0000000034100000000000000000000000000000860403430000002277814474462 A         201209042012080700000000054460000191200000000000216016000000000000000000000000024816050000000000  3020121109   01          2                                                                                   3112277814474057049175300069                                                  N                     01321  0000000        000091
12056993512000150CYKLOP DO BRASIL EMBALAGENS SA                                        0000000034100000000000000000000000000000874070500000002362586810134932        201210012012090300000000054730000083607000000000095580000000000000000000000000011973050000000000  3020121109   01          2                                                                                   3112362586813025700015800019                                                  N                     01321  0000000        000092
12056993900000131CIA METALURGICA PRADA                                                 0000000034100000000000000000000000000000848180620000002218222670025829902     201209112012071700000000054530000498118000000000547088000000000000000000000000048970050000000000  3020121109   01          2                                                                                   3112218222670293800573900029                                                  N                     01321  0000000        000093
12056993900000131CIA METALURGICA PRADA                                                 0000000034100000000000000000000000000000848180630000002218222680025830002     201209112012071700000000054530000247673000000000272040000000000000000000000000024367050000000000  3020121109   01          2                                                                                   3112218222688293800573900059                                                  N                     01321  0000000        000094
12056993900000131CIA METALURGICA PRADA                                                 0000000034100000000000000000000000000000848180640000002218222690025830102     201209112012071700000000054530000207402000000000227816000000000000000000000000020414050000000000  3020121109   01          2                                                                                   3112218222696293800573900039                                                  N                     01321  0000000        000095
12059659615000177DZ COMERCIO R E SERVICOS LTDA                                         000000003410000000000000000000000000000091358506000000900000320280            201211032012102400000000055060000060000000000000060720000000000000000000000000000720050000000000  3020121109   01          2                                                                                   3109000003209000314585100019                                                  N                     01321  0000000        000096
12061217188000119TELAS METALICAS TELMETAL LTDA                                         0000000034100000000000000000000000000000916531730000009000031055896 1 2       201212042012110700000000055370000081993000000000081993000000000000000000000000000000050000000000  3020121204   01FS        1                                                                                   3109000031050077073552000019                                                  N                     01321  0000000        000097
12061217188000119TELAS METALICAS TELMETAL LTDA                                         0000000034100000000000000000000000000000916531740000009000031065896 2 2       201212182012110700000000055510000081992000000000081992000000000000000000000000000000050000000000  3020121218   01FS        1                                                                                   3109000031068077073552000029                                                  N                     01321  0000000        000098
12062510367000102ITANHAEM TRANSP DE MAQUINAS LT                                        000000003410000000000000000000000000000087407049000000236463199667            201209202012090400000000054620000248220000000000297870000000000000000000000000049650050000000000  3020121109   01          2                                                                                   3112364631997005770252400049                                                  N                     01321  0000000        000099
12062539994000176LEALFER INDUSTRIA E COMERCIO D                                        0000000003300000000000000000000000000000902449820000001400000000005648901     201211062012100900000000055090000447825000000000450108000000000000000000000000002283050000000000  3020121109   01          2                                                                                   3915298380000000276014010469                                                  N                     01321  0000000        000100
12062539994000176LEALFER INDUSTRIA E COMERCIO D                                        0000000003300000000000000000000000000000884432770000002800000000005479102     201211062012091100000000055090001068982000000001074433000000000000000000000000005451050000000000  3020121109   01          2                                                                                   3915298380000000264628010479                                                  N                     01321  0000000        000101
12064952757000168WALMAC COM DE PROD QUIMICOS LT                                        0000000034100000000000000000000000000000896979500000002462157550021611        201211012012100400000000055040000219267000000000222715000000000000000000000000003448050000000000  3020121109   01          2                                                                                   3112462157556064807961400019                                                  N                     01321  0000000        000102
12064952757000168WALMAC COM DE PROD QUIMICOS LT                                        0000000034100000000000000000000000000000860403440000002275821690020148        201210262012080300000000054980000219266000000000225300000000000000000000000000006034050000000000  3020121109   01          2                                                                                   3112275821695064807961400019                                                  N                     01321  0000000        000103
12064952757000168WALMAC COM DE PROD QUIMICOS LT                                        0000000034100000000000000000000000000000860403450000002275821700020148        201210052012080300000000054770000219267000000000234352000000000000000000000000015085050000000000  3020121109   01          2                                                                                   3112275821703064807961400029                                                  N                     01321  0000000        000104
12066841552000130R V SEG PATRIMONIAL LTDA                                              00000000341000000000000000000000000000008852483200000090002192721927          201209102012081000000000054520000483241000000000492901000000000000000000000000009660050000000000  3020121109   01          2                                                                                   3109000219270001835253400099                                                  N                     01321  0000000        000105
12066841552000130R V SEG PATRIMONIAL S C LTDA                                          00000000341000000000000000000000000000008887329800000090002213622136          201210102012091100000000054820000374758000000000378508000000000000000000000000003750050000000000  3020121109   01          2                                                                                   3109000221365001838994000069                                                  N                     01321  0000000        000106
12067300160000127OSACO PRODUTOS SIDERURGICOS LT                                        0000000023702415500000000063002 0000000091141010009024151670093650 01 01      201211052012103100000000055080000077868000000000081371000000000000000000000000003892050000000000  3020121108   06          3  RUA JUNO  533                                                                    3                         000000000000000                                     N                     00598  0000000        000107
12069284248000128ISOCOAT TINTAS E VERNIZES LTDA                                        0000000034100000000000000000000000000000841061040000002182507930052085        201209172012070200000000054590000236130000000000269520000000000000000000000000033390050000000000  3020121109   01          2                                                                                   3112182507932077430121200019                                                  N                     01321  0000000        000108
12096500087000135WORKBENCH CONSULTORIA S S LTDA                                        0000000034100000000000000000000000000000878205840000007940034283118           201209272012090300000000054690000131746000000000142883000000000000000000000000011137050000000000  3020121109   01          2                                                                                   3157940034289826313803700089                                                  N                     01321  0000000        000109
900011000000000046037744                                                                                                                                                                                                                                                                                                                                                                                                                                                                01321  0000000        000110
