0000147602043799295000110ALTAMIRA INDUSTRIA METALURGICA LT       202000000027420121009121330             2                                                                                                  000000000000000                                                                                                                                                                                                                                                                                   000001
12043799295000110ALTAMIRA INDUSTRIA METAL LTDA                                         0000000003303809500000130004071 I000000000009992000000000000000               201210090000000000000000000000000000000000000006600000000000000000000000000000000000050000000001  0820121009   01HF        5001209000000006604607000000000000000                                               3D0000000101                               01                                 S                     01133 10020256        000002
900000300000000006600000                                                                                                                                                                                    000000000000000                                                                                                                                                                                                                                                    00000100000000000000000        000003
