0000147602043799295000110ALTAMIRA INDUSTRIA METALURGICA LT       202000000199120121210214530             3                                                                                                  000000000000000                                                                                                                                                                                                                                                                                   000001
12002439017000175TELEABC INFORMATICA LTDA   EPP                                        0000000000100000 0000000000000  I000000000010308000000000000000               201212100000000000000000055430000006000000000000006000000000000000000000000000000000010000000132  3120121210   02BW        5000000               000000000000000                                               3000000211143600000000201739               132                                N                     01132 10020256        000002
12015244717000156STYLO ROL COM ROLAM                                                   0000000034100000 0000000000000  I000000000010307000000000000000               201212100000000000000000055430000023000000000000023000000000000000000000000000000000010000000156  3120121210   02BW        5000000               000000000000000                                               3109201201286076423057900019               0156                               N                     01132 10020256        000003
12011343236000147GRISOVILLARES EXPRESS TRANSP L                                        0000000034100000 0000000000000  I000000000010305000000000000000               201212100000000000000000000000000000000000000000070000000000000000000000000000000000010000006988  3120121210   02BW        5000000               000000000000000                                               3174677285247064467363400039               6988                               N                     01132 10020256        000004
12052168721000109SIND TRAB IND METAL MEC MOGI C                                        0000000010400000 0000000000000  I000000000010302000000000000000               201212100000000000000000055430000184800000000000184800000000000000000000000000000000010020069528  3120121210   02BW        5000000               000000000000000                                               3313345100020314211001947329               20069528                           N                     01132 10020256        000005
12000244682000188RECAMAQ REV COM MAQS P ESCRIT                                         0000000039900000 0000000000000  I000000000010306000000000000000               201212100000000000000000055430000022000000000000022000000000000000000000000000000000010000000415  3120121210   02BW        5000000               000000000000000                                               3347298100000000004153452239               415                                N                     01132 10020256        000006
12000815065000195SIND TRABALH N E O R I INTE                                           0000000034100000 0000000000000  I000000000010303000000000000000               201212080000000000000000055410000000000000000000023215000000000000000000000000000000010050790972  3120121210   02BW        5000000               000000000000000                                               3173507909728018958625800019               50790972                           N                     01132 10020256        000007
12008852780000100HOSTGATOR BRASIL HOSP SUP TEC                                         0000000034100000 0000000000000  I000000000010304000000000000000               201212080000000000000000055410000004999000000000004999000000000000000000000000000000010000178198  3120121210   02BW        5000000               000000000000000                                               3175001781985869105372500099               178198                             N                     01132 10020256        000008
12071580302000124SANCHEPEL IND PAULISTA EMB L                                          0000000034100000000000000000000000000000925640530000002567773899025           201212082012110900000000055410000103500000000000103500000000000000000000000000000000050000000000  3020121210   02BW        2000000               000000000000000                                               3112567773893007879533300029               9025                               N                     01132 10020256        000009
12061217188000119TELAS METALICAS TELMETAL LTDA                                         0000000000100000000000000000000000000000920384610000000058950005933 1 1       201212102012111300000000055430000040639000000000040639000000000000000000000000000000050000000000  3020121210   02BW        2000000               000000000000000                                               3000000115031800000058951769               05933/01-01                        N                     01132 10020256        000010
12047284104000139ROLAMENTOS E RETENTORES RODEMA                                        000000000010000000000000000000000000000092038462000000005833000020274 A       201212102012111300000000055430000043554000000000043554000000000000000000000000000000050000000000  3020121210   02BW        2000000               000000000000000                                               3000000186840300000058331759               020274                             N                     01132 10020256        000011
12068109784000124TARCOM TECN AR COMPRIMIDO LTDA                                        00000000341000000000000000000000000000009135850400000070271858200000262 B     201212092012110500000000055420000168345000000000168345000000000000000000000000000000050000000000  3020121210   02BW        2000000               000000000000000                                               3157027185822846115840700059               262/02                             N                     01132 10020256        000012
12009080640000123SERVPAES LTDA ME                                                      000000001040000000000000000000000000000093452366000000000787600002703         201212102012120500000000055430000112500000000000112500000000000000000000000000000000050000000000  3020121210   02BW        2000000               000000000000000                                               3900000078710868700000040919               2703                               N                     01132 10020256        000013
12066970229000167NEXTEL TELECOMUNICACOES LTDA                                          0000000023702374400000001596233 000000009265465200900001596671942043 10       201212102012011900000000055430000011883000000000011883000000000000000000000000000000050000000000  3020121210   02BW        2000000               000000000000000                                               3                         000000000000000  42043                              N                     01079 10020256        000014
12066970229000167NEXTEL TELECOMUNICACOES LTDA                                          0000000023702374400000001596233 000000009066627300900001559308042043 9        201211102012011900000000055130000011880000000000012117000000000000000000000000000237050000000000  3020121210   02BW        2000000               000000000000000                                               3                         000000000000000  42043                              N                     01079 10020256        000015
12035820448000136WHITE MARTINS GASES INDUSTRIAI                                        0000000023700026400000003937925 0000000091932189009023180007207406107 001     201212102012111300000000055430000017600000000000017600000000000000000000000000000000050000000000  3020121210   02BW        2000000               000000000000000                                               3                         000000000000000  237718                             N                     01079 10020256        000016
12057158057000130COMERCIAL ELETRICA PJ LTDA                                            0000000023703394400000000972983 00000000922158300090232400003730000343173     201212102012111200000000055430000036550000000000036550000000000000000000000000000000050000000000  3020121210   02BW        2000000               000000000000000                                               3                         000000000000000  343173                             N                     01079 10020256        000017
12010695186000102POWER LOGISTICA E SERVICOS LTD                                        0000000023703417700000000187089 00000000922158290090000000006570000335932     201212102012111900000000055430000063196000000000063196000000000000000000000000000000050000000000  3020121210   02BW        2000000               000000000000000                                               3                         000000000000000  097251                             N                     01079 10020256        000018
900001900000000000943898                                                                                                                                                                                    000000000000000                                                                                                                                                                                                                                                    00001700886510000850446        000019
