0000147602043799295000110ALTAMIRA INDUSTRIA METALURGICA LT       202000000010220120810055742             1                                                                                                                                                                                                                                                                                                                                                                                                    000001
12000193273000108TECELAGEM ROMA LTDA                                                   0000000023700284400000000410977 000000008374605100900000001581116213   B      201208032012062900000000054140000124248000000000126486000000000000000000000000002611050000000000  3020120809   06          3  RUA TAMAINDE 1410  1410                                                          3                         000000000000000                                     N                     00598  0000000        000002
12006000195000156M B A MERCANTIL BRASILEIRA DE                                         0000000023700118P00000002128292 00000000860403480090215700000540008454B02     201208012012060100000000054120000442454000000000442454000000000000000000000000000000050000000000  3020120809   06          3  RUA JUNO  533                                                                    3                         000000000000000                                     N                     00598  0000000        000003
12006000195000156M B A MERCANTIL BRASILEIRA DE                                         0000000023700118P00000002128292 00000000860403490090215800000040008495B02     201208012012060600000000054120000168075000000000168075000000000000000000000000000000050000000000  3020120809   06          3  RUA JUNO  533                                                                    3                         000000000000000                                     N                     00598  0000000        000004
12006000195000156M B A MERCANTIL BRASILEIRA DE                                         0000000023700118P00000002128292 00000000861207290090215700000480008455B02     201208012012060100000000054120000596770000000000596770000000000000000000000000000000050000000000  3020120810   01FS        1  RUA JUNO  533                                                                    3                         000000000000000                                     N                     00598  0000000        000005
12006000195000156M B A MERCANTIL BRASILEIRA DE                                         0000000023700118P00000002128292 00000000861207300090219200000080008786B01     201208022012070500000000054130000301975000000000301975000000000000000000000000000000050000000000  3020120810   01FS        1  RUA JUNO  533                                                                    3                         000000000000000                                     N                     00598  0000000        000006
12008455344000105SANCHES BRITO TRANSPORTES LTDA                                        000000000330000000000000000000000000000084318049000000860000000865            201208022012071100000000054130000253300000000000253300000000000000000000000000000000050000000000  3020120802   06          3                                                                                   3939443100000000000686010129                                                  N                     01321  0000000        000007
12009121184000112BBGE COBRANCA LTDA                                                    0000000023700368900000001026402 00000000839452800090218600000842581 CC        201208022012062100000000054130000154100000000000157698000000000000000000000000004112050000000000  3020120809   06          3  RUA GANGES  528                         MACKVEN MAQUINAS INDUSTRIAIS LTDA EPP    3                         005441222000163                                     N                     00598  0000000        000008
12012006058000121WEG TINTAS LTDA                                                       0000000023702727800000000001309 00000000833069140090217700001070014685601     201208062012062200000000054170000459854000000000461693000000000000000000000000002452050000000000  3020120809   06          3  R JUNO  533                                                                      3                         000000000000000                                     N                     00598  0000000        000009
12012006058000121WEG TINTAS LTDA                                                       0000000023702727800000000001309 00000000861207260090222200000900015775001     201209222012080800000000054640000306569000000000306569000000000000000000000000000000050000000000  3020120924   01FS        1  R JUNO  533                                                                      3                         000000000000000                                     N                     00598  0000000        000010
12012006058000121WEG TINTAS LTDA                                                       0000000023702727800000000001309 00000000861207270090222200000910015775002     201210072012080800000000054790000306569000000000306569000000000000000000000000000000050000000000  3020121008   01FS        1  R JUNO  533                                                                      3                         000000000000000                                     N                     00598  0000000        000011
12012006058000121WEG TINTAS LTDA                                                       0000000023702727800000000001309 00000000861207280090222200000920015775003     201210222012080800000000054940000306662000000000306662000000000000000000000000000000050000000000  3020121022   01FS        1  R JUNO  533                                                                      3                         000000000000000                                     N                     00598  0000000        000012
12012006058000121WEG TINTAS LTDA                                                       0000000023702727800000000001309 00000000816237710090214600000900014010203     201208072012052400000000054180000306662000000000307886000000000000000000000000001224050000000000  3020120810   01          2  R JUNO  533                                                                      3                         000000000000000                                     N                     00598  0000000        000013
12012006058000121WEG TINTAS LTDA                                                       0000000023702727800000000001309 00000000816971080090214900001020014046003     201208082012052500000000054190000085618000000000085846000000000000000000000000000228050000000000  3020120810   01          2  R JUNO  533                                                                      3                         000000000000000                                     N                     00598  0000000        000014
12012006058000121WEG TINTAS LTDA                                                       0000000023702727800000000001309 00000000824820160090216300000880014374202     201208072012060800000000054180000459854000000000461693000000000000000000000000001839050000000000  3020120810   01          2  R JUNO  533                                                                      3                         000000000000000                                     N                     00598  0000000        000015
12014775592000128HELIO ADRIANO DA SILVA ME                                             0000000003300000000000000000000000000000861207310000000100000008331           201208242012080800000000054350000029000000000000029000000000000000000000000000000000050000000000  3020120824   01FS        1                                                                                   3956114740000000000001010129                                                  N                     01321  0000000        000016
12014775592000128HELIO ADRIANO DA SILVA ME                                             0000000003300000000000000000000000000000861207320000000300000008330           201208242012080800000000054350000020000000000000020000000000000000000000000000000000050000000000  3020120824   01FS        1                                                                                   3956114740000000000003010119                                                  N                     01321  0000000        000017
12033325184001786ALSCO TOALHEIRO BRASIL                                                0000000023703396000000001490850 0000000084571471009000028416503VM00284165     201208052012070500000000054160000026347000000000026477000000000000000000000000000130050000000000  3020120810   01          2  RUA  GANGES 528                                                                  3                         000000000000000                                     N                     00598  0000000        000018
12035820448000136WHITE MARTINS GASES INDUSTRIAI                                        0000000023700026400000003937925 0000000084406386009021940001235350499 001     201208082012071200000000054190000162300000000000165978000000000000000000000000003678050000000000  3020120810   01          2  RUA GANGES  528                                                                  3                         000000000000000                                     N                     00598  0000000        000019
12035820448000136WHITE MARTINS GASES INDUSTRIAI                                        0000000023700026400000003937925 0000000084172563009021910000296348716 001     201208032012070700000000054140000056805000000000058397000000000000000000000000001668050000000000  3020120809   06          3  RUA GANGES  528                                                                  3                         000000000000000                                     N                     00598  0000000        000020
12042956441000101SOLUCOES ACO USIMINAS                                                 0000000034100000000000000000000000000000825740770000002106974450016399402     201208012012060600000000054120000431213000000000437247000000000000000000000000006896050000000000  3020120808   06          3                                                                                   3112106974457293807258000019                                                  N                     01321  0000000        000021
12042956441000101SOLUCOES ACO USIMINAS                                                 0000000034100000000000000000000000000000841725390000002188168460016859401     201208012012070400000000054120000164505000000000164505000000000000000000000000000000050000000000  3020120801   06          3                                                                                   3112188168465293807258000089                                                  N                     01321  0000000        000022
12042956441000101SOLUCOES ACO USIMINAS                                                 0000000034100000000000000000000000000000841725400000002188168470016859501     201208012012070400000000054120000234407000000000234407000000000000000000000000000000050000000000  3020120801   06          3                                                                                   3112188168473293807258000049                                                  N                     01321  0000000        000023
12042956441000101SOLUCOES ACO USIMINAS                                                 0000000034100000000000000000000000000000824061830000002100925400016380502     201208012012060500000000054120000215522000000000215522000000000000000000000000000000050000000000  3020120801   06          3                                                                                   3112100925406293807258000029                                                  N                     01321  0000000        000024
12042956441000101SOLUCOES ACO USIMINAS                                                 0000000034100000000000000000000000000000824061840000002100925410016380702     201208012012060500000000054120000216698000000000216698000000000000000000000000000000050000000000  3020120801   06          3                                                                                   3112100925414293807258000069                                                  N                     01321  0000000        000025
12042956441000101SOLUCOES ACO USIMINAS                                                 0000000034100000000000000000000000000000807142630000002012663820015853503     201208012012050800000000054120000441628000000000441628000000000000000000000000000000050000000000  3020120801   06          3                                                                                   3112012663822293807258000039                                                  N                     01321  0000000        000026
12042956441000101SOLUCOES ACO USIMINAS                                                 0000000034100000000000000000000000000000807142640000002012663830015857503     201208012012050800000000054120000707296000000000717201000000000000000000000000011320050000000000  3020120808   06          3                                                                                   3112012663830293807258000089                                                  N                     01321  0000000        000027
12042956441000101SOLUCOES ACO USIMINAS                                                 0000000034100000000000000000000000000000826558250000002112172720016459702     201208072012061100000000054180000500178000000000503178000000000000000000000000003000050000000000  3020120810   01          2                                                                                   3112112172724293807258000019                                                  N                     01321  0000000        000028
12042956441000101SOLUCOES ACO USIMINAS                                                 0000000034100000000000000000000000000000812917700000002043858310016016303     201208092012051600000000054200000338158000000000338834000000000000000000000000000676050000000000  3020120810   01          2                                                                                   3112043858318293807258000019                                                  N                     01321  0000000        000029
12042956441000101SOLUCOES ACO USIMINAS                                                 0000000034100000000000000000000000000000861207220000002282166980017385801     201209042012080700000000054460000715010000000000715010000000000000000000000000000000050000000000  3020120904   01FS        1                                                                                   3112282166985293807258000089                                                  N                     01321  0000000        000030
12042956441000101SOLUCOES ACO USIMINAS                                                 0000000034100000000000000000000000000000861207230000002282166990017385802     201210022012080700000000054740000714796000000000714796000000000000000000000000000000050000000000  3020121002   01FS        1                                                                                   3112282166993293807258000049                                                  N                     01321  0000000        000031
12042956441000101SOLUCOES ACO USIMINAS                                                 0000000034100000000000000000000000000000861207240000002282167000017385803     201210302012080700000000055020000714796000000000714796000000000000000000000000000000050000000000  3020121030   01FS        1                                                                                   3112282167009293807258000049                                                  N                     01321  0000000        000032
12056993900000131CIA METALURGICA PRADA                                                 0000000034100000000000000000000000000000844839130000002201181860025644401     201208082012071100000000054190000781989000000000784595000000000000000000000000002606050000000000  3020120810   01          2                                                                                   3112201181867293800573900089                                                  N                     01321  0000000        000033
12056993900000131CIA METALURGICA PRADA                                                 0000000034100000000000000000000000000000807926570000002014912340023716503     201208012012050900000000054120000100813000000000101989000000000000000000000000001344050000000000  3020120808   06          3                                                                                   3112014912342293800573900059                                                  N                     01321  0000000        000034
12056993900000131CIA METALURGICA PRADA                                                 0000000034100000000000000000000000000000807926590000002014912330023716403     201208012012050900000000054120000052377000000000052986000000000000000000000000000696050000000000  3020120808   06          3                                                                                   3112014912334293800573900049                                                  N                     01321  0000000        000035
12056993900000131CIA METALURGICA PRADA                                                 0000000034100000000000000000000000000000807926600000002014912360023728503     201208012012050900000000054120000431631000000000431631000000000000000000000000000000050000000000  3020120801   06          3                                                                                   3112014912367293800573900019                                                  N                     01321  0000000        000036
12056993900000131CIA METALURGICA PRADA                                                 0000000034100000000000000000000000000000807926610000002014912370023728603     201208012012050900000000054120000299595000000000299595000000000000000000000000000000050000000000  3020120801   06          3                                                                                   3112014912375293800573900019                                                  N                     01321  0000000        000037
12056993900000131CIA METALURGICA PRADA                                                 0000000034100000000000000000000000000000824820090000002102181150024711602     201208012012060600000000054120000833145000000000842868000000000000000000000000011112050000000000  3020120808   06          3                                                                                   3112102181156293800573900089                                                  N                     01321  0000000        000038
12057158057000130COMERCIAL ELETRICA PJ LTDA                                            0000000023703394400000000972983 00000000842436850090219200008900000305028     201208012012070400000000054120000079196000000000081563000000000000000000000000002367050000000000  3020120810   01          2  R TAMAINDE 1410                                                                  3                         000000000000000                                     N                     00598  0000000        000039
12060561719001529AKZO NOBEL LTDA   DIVISAO TINT                                        000000000330000000000000000000000000000081465338000000940000000000061952003   201208012012051800000000054120000043898000000000043898000000000000000000000000000000050000000000  3020120801   06          3                                                                                   3920859410000000308994010469                                                  N                     01321  0000000        000040
12061174652000137METALURGICA SCHIOPPA LTDA                                             0000000023703392800000001071602 0000000086120725002022220000022110191 001     201209032012080200000000054450000075159000000000075159000000000000000000000000000000050000000000  3020120903   01FS        1  RUA GANGES 528                                                                   3                         000000000000000                                     N                     00598  0000000        000041
12061217188000119TELAS METALICAS TELMETAL LTDA                                         0000000034100000000000000000000000000000861207210000009000029125468 1 1       201209062012080800000000054480000045986000000000045986000000000000000000000000000000050000000000  3020120906   01FS        1                                                                                   3109000029120077073552000099                                                  N                     01321  0000000        000042
12061217188000119TELAS METALICAS TELMETAL LTDA                                         0000000000100000000000000000000000000000844063700000000054890005303 1 3       201208072012071100000000054180000030002000000000030082000000000000000000000000000160050000000000  3020120808   06          3                                                                                   3000000115031800000054891719                                                  N                     01321  0000000        000043
12061217188000119TELAS METALICAS TELMETAL LTDA                                         0000000000100000000000000000000000000000844063740000000054930005305 1 3       201208072012071100000000054180000053722000000000053722000000000000000000000000000000050000000000  3020120807   06          3                                                                                   3000000115031800000054931719                                                  N                     01321  0000000        000044
12065833410000169BRASLIMPO COMERCIAL LTDA                                              000000003410000000000000000000000000000084318046000000900060718000646901      201208072012070700000000054180000042074000000000042074000000000000000000000000000000050000000000  3020120807   06          3                                                                                   3109000607184003862629700069                                                  N                     01321  0000000        000045
12066899790000105FABRICA ARTEF LATEX ESTRELA EP                                        00000000399000000000000000000000000000008154444200000000000000070239 003      201208072012052400000000054180000368900000000000368900000000000000000000000000000000050000000000  3020120807   06          3                                                                                   3175298168471125027292500189                                                  N                     01321  0000000        000046
12075483040000130REX MAQ E EQUIPAMENTOS LTDA                                           00000000341000000000000000000000000000008465957400000022100116876263 2 1      201208012012070400000000054120000564200000000000564200000000000000000000000000000000050000000000  3020120801   06          3                                                                                   3112210011683848301515500089                                                  N                     01321  0000000        000047
12087867545000188TRANSPORTADORA ROCHA LTDA                                             00000000033000000000000000000000000000008498553700000096000000014880001       201208022012071400000000054130000066474000000000066474000000000000000000000000000000050000000000  3020120802   06          3                                                                                   3905395200000001347896010169                                                  N                     01321  0000000        000048
12092693118000160BRADESCO SAUDE S A                                                    0000000023700448000000001533991 00000000829780050050100702629130000000000     201207202012061800000000054000000645861000000000654597000000000000000000000000008736050000000000  3020120810   01          2                                                                                   3                         000000000000000                                     N                     00598  0000000        000049
900005000000000014537669                                                                                                                                                                                                                                                                                                                                                                                                                                                                00598  0000000        000050
