0000147602043799295000110ALTAMIRA INDUSTRIA METALURGICA LT       202000000040220121010111307             2                                                                                                  000000000000000                                                                                                                                                                                                                                                                                   000001
12043799295000110ALTAMIRA INDUSTRIA METAL LTDA                                         0000000003303809500000130004071 I000000000010001000000000000000               201210100000000000000000000000000000000000000002000000000000000000000000000000000000050000000001  0820121010   01HF        5001109000000005884978000000000000000                                               3D0000000101                               01                                 S                     01133 10020256        000002
900000300000000002000000                                                                                                                                                                                    000000000000000                                                                                                                                                                                                                                                    00000100000000000000000        000003
