0000147602043799295000110ALTAMIRA INDUSTRIA METALURGICA LT       202000000186220120910220233             3                                                                                                  000000000000000                                                                                                                                                                                                                                                                                   000001
12000867888000164TECNEQUIP TECNOLOGIA EQUIP LTD                                        0000000034100452 00000000749849 I000000000009792000000000000000               201209100000000000000000000000000000000000000000400000000000000000000000000000000000050000000003  0820120910   02BW        5001200               000000000000000                                               3C0000000101                               03                                 N                     01076 10020256        000002
12013529495000192MAXMIRA CONTROLE E ADM LTDA                                           0000000034100467 00000000012340 I000000000009793000000000000000               201209100000000000000000000000000000000000000001100000000000000000000000000000000000050000000004  0820120910   02BW        5001200               000000000000000                                               3C0000000101                               04                                 N                     01076 10020256        000003
12043799295000110ALTAMIRA INDUSTRIA METAL LTDA                                         0000000003303809500000130004071 I000000000009790000000000000000               201209100000000000000000000000000000000000000001600000000000000000000000000000000000050000000001  0820120910   02BW        5001200               000000000000000                                               3D0000000101                               01                                 S                     01133 10020256        000004
12000867888000164TECNEQUIP TECNOLOGIA EQUIP LTD                                        0000000003303809500000130003245 I000000000009791000000000000000               201209100000000000000000000000000000000000000001200000000000000000000000000000000000050000000002  0820120910   02BW        5001200               000000000000000                                               3C0000000101                               02                                 N                     01076 10020256        000005
900000600000000004300000                                                                                                                                                                                    000000000000000                                                                                                                                                                                                                                                    00000400000000000000000        000006
