0000147602043799295000110ALTAMIRA INDUSTRIA METALURGICA LT       202000000190720121010214442             3                                                                                                  000000000000000                                                                                                                                                                                                                                                                                   000001
12006000195000156M B A MERCANTIL BRASILEIRA DE R RINCAO 220                            0365108023700118000000002128292 I000000000010008000000000000000               201210100000000000000000000000000000000000000000056473000000000000000000000000000000010000008911  0120121010   02BW        5000000               000000000000000                                               3                                          NF.NRO.8911 - PARC.02/03.          N                     01321 10020256        000002
12000193273000108TECELAGEM ROMA LTDA                                                   0000000023700284400000000410977 I000000000010002009000000017557               201210100000000000000000054820000093466000000000093466000000000000000000000000000000010000017246  3120121010   02BW        5000000               000000000000000                                               3028409000000175570041097099               17246                              N                     01079 10020256        000003
12002992317000187TREVISO CORRETORA  CAMBIO LTDA                                        0000000023700133300000001166220 I000000000010006009000000020724               201210100000000000000000054820000006075000000000006075000000000000000000000000000000010000020724  3120121010   02BW        5000000               000000000000000                                               3013309000000207240116622079               20724                              N                     01079 10020256        000004
12043799295000110ALTAMIRA INDUSTRIA METAL LTDA                                         0000000003303809500000130004071 I000000000010001000000000000000               201210100000000000000000000000000000000000000002000000000000000000000000000000000000050000000001  0820121010   02BW        5001020               000000000000000                                               3D0000000101                               01                                 S                     01133 10020256        000005
12049318538000138COM FERRAMENTAS TERUYA LTDA                                           0000000034100000 0000000000000  I000000000010004000000000000000               201210100000000000000000054820000050687000000000050687000000000000000000000000000000010000019835  3120121010   02BW        5000000               000000000000000                                               3181557865217077000099000019               19835/01                           N                     01132 10020256        000006
12062442132000120LAR INFANCIA DE NICE                                                  0000000060000000 0000000000000  I000000000010005000000000000000               201210100000000000000000000000000000000000000000005000000000000000000000000000000000010000000121  3120121010   02BW        5000000               000000000000000                                               3000112101030960000784809919               121                                N                     01132 10020256        000007
12062539994000176LEALFER INDUSTRIA E COMERCIO D                                        0000000034100000 0000000000000  I000000000010009000000000000000               201210100000000000000000054820000851427000000000851427000000000000000000000000000000010000054615  3120121010   02BW        5000000               000000000000000                                               3181558451074076103324000059               54615/01                           N                     01132 10020256        000008
12061096178000172COMERCIAL ELETRICA RIMO LTDA                                          0000000034100000 0000000000000  I000000000010010000000000000000               201210100000000000000000054820000010968000000000010968000000000000000000000000000000010000009750  3120121010   02BW        5000000               000000000000000                                               3181558489388166009333500039               9750                               N                     01132 10020256        000009
12001137526000180ASIA SHIPPING TRANSP INTERNACIR GEN CAMARACONJ 1303 1304 5 13 AND     1101012123703111900000000040401 I000000000010007000000000000000               201210100000000000000000000000000000000000000000052876000000000000000000000000000000050000000002  0120121010   02BW        5000000               000000000000000                                               3                                          02                                 N                     01321 10020256        000010
12009080640000123SERVPAES LTDA ME                                                      000000001040000000000000000000000000000089697941000000000667500002510         201210102012100500000000054820000118750000000000118750000000000000000000000000000000050000000000  3020121010   02BW        2000000               000000000000000                                               3900000066710868700000040969               02510                              N                     01132 10020256        000011
12054217021000192RAFER COM MAT P ESCRIT LTDA                                           0000000000100000 0000000000000  I000000000010003000000000000000               201210100000000000000000054820000048838000000000048838000000000000000000000000000000010000003090  3120121010   02BW        5000000               000000000000000                                               3000000185029400990054941799               3090                               N                     01132 10020256        000012
900001300000000003294560                                                                                                                                                                                    000000000000000                                                                                                                                                                                                                                                    00001100383740001180211        000013
