0000147602043799295000110ALTAMIRA INDUSTRIA METALURGICA LT       202000000182020120810214011             3                                                                                                  000000000000000                                                                                                                                                                                                                                                                                   000001
12006000195000156M B A MERCANTIL BRASILEIRA DE R RINCAO 220                            0365108023700118000000002128292 I000000000009465000000000000000               201208100000000000000000000000000000000000000000506300000000000000000000000000000000010000008514  0120120810   02BW        5000000               000000000000000                                               3                                          08514/02                           N                     01321 10020256        000002
12033325184001786ALSCO TOALHEIRO BRASIL LTDA                                           0000000023703396000000001490850 I000000000009461009000028416503               201208100000000000000000054210000026477000000000026477000000000000000000000000000000010000284165  3120120810   02BW        5000000               000000000000000                                               3339609000284165030149085089               284165                             N                     01079 10020256        000003
12000867888000164TECNEQUIP TECNOLOGIA EQUIP LTD                                        0000000000103333200000000130818 I000000000009455000000000000000               201208100000000000000000000000000000000000000001750000000000000000000000000000000000050000000000  0820120810   02BW        5001500               000000000000000                                               3C0000000101                               01                                 N                     01076 10020256        000004
12012006058000121WEG TINTAS LTDA                                                       0000000023702727800000000001309 I000000000009456009021630000088               201208100000000000000000054210000461693000000000461693000000000000000000000000000000010000143742  3120120810   02BW        5000000               000000000000000                                               3272709216300000880000130029               0143742/02                         N                     01079 10020256        000005
12012006058000121WEG TINTAS LTDA                                                       0000000023702727800000000001309 I000000000009457009021460000090               201208100000000000000000054210000307886000000000307886000000000000000000000000000000010000140102  3120120810   02BW        5000000               000000000000000                                               3272709214600000900000130029               0140102/03                         N                     01079 10020256        000006
12001309173000159TEMHPUS MARCAS E PATENTES S C                                         0000000023700503700000000454923 I000000000009459009011218802408               201208100000000000000000054210000056000000000000056000000000000000000000000000000000010000005900  3120120810   02BW        5000000               000000000000000                                               3050309112188024080045492019               5900/02                            N                     01079 10020256        000007
12014775592000128HELIO ADRIANO DA SILVA ME                                             0000000023700593200000002432943 00000000854049630090221200000078199           201208132012072000000000054240000053000000000000053000000000000000000000000000000000050000000000  3020120810   02BW        2000000               000000000000000                                               3                         000000000000000  8199                               N                     01079 10020256        000008
12061683652000162TRANS FACE TRANSPORTES LTDA                                           0000000023700530400000000141828 0000000084895720009000000107009I000078506     201208102012071900000000054210000055000000000000055000000000000000000000000000000000050000000000  3020120810   02BW        2000000               000000000000000                                               3                         000000000000000  78506                              N                     01079 10020256        000009
12017469701000177ARCELORMITTAL BRASIL S A                                              0000000034100000000000000000000000000000848957310000009322721220012644701     201208102012071300000000054210000063787000000000063787000000000000000000000000000000050000000000  3020120810   02BW        2000000               000000000000000                                               3109322721222293802529900099               126447/01                          N                     01132 10020256        000010
12061100202000108COFIPE VEICULOS LTDA                                                  0000000039900000 0000000000000  I000000000009463000000000000000               201208100000000000000000054210000013760000000000013760000000000000000000000000000000010000528601  3120120810   02BW        5000000               000000000000000                                               3320005040160343608018900149               528601                             N                     01132 10020256        000011
12004676708000118M H F  SISTEMAS LTDA                                                  0000000034100000 0000000000000  I000000000009462000000000000000               201208100000000000000000054210000015030000000000015030000000000000000000000000000000010099047356  3120120810   02BW        5000000               000000000000000                                               3181520957425013924573200039               99047356                           N                     01132 10020256        000012
12052168721000109SIND TRAB IND METAL MEC MOGI C                                        0000000010400000 0000000000000  I000000000009464000000000000000               201208100000000000000000054210000000000000000000112200000000000000000000000000000000050002015708  3120120810   02BW        5000000               000000000000000                                               3313345100020314207001947899               20015708                           N                     01132 10020256        000013
12061100202000108COFIPE VEICULOS LTDA                                                  0000000039900000 0000000000000  I000000000009460000000000000000               201208100000000000000000054210000029095000000000029095000000000000000000000000000000010000012104  3120120810   02BW        5000000               000000000000000                                               3320005040320343608018900159               12104/02                           N                     01132 10020256        000014
12011777156000108LOGBEM TRANSPORTES LTDA                                               0000000000100000 0000000000000  I000000000009458000000000000000               201208100000000000000000054210000151000000000000151000000000000000000000000000000000050000000727  3120120810   02BW        5000000               000000000000000                                               3000000220975900000002711739               0727                               N                     01132 10020256        000015
12009080640000123SERVPAES LTDA ME                                                      000000001040000000000000000000000000000085502853000000000517200002320         201208102012073000000000054210000152500000000000152500000000000000000000000000000000050000000000  3020120810   02BW        2000000               000000000000000                                               3900000051710868700000040919               2320                               N                     01132 10020256        000016
12002234917000186RODOVIARIO SOL NASCENTE LTDA                                          000000000010000000000000000000000000000084406377000000938850000033777         201208062012071100000000054170000045000000000000045587000000000000000000000000000000050000000000  3020120810   02BW        2000000               000000000000000                                               3043889388503028000124731199               033777                             N                     01132 10020256        000017
900001800000000003799315                                                                                                                                                                                    000000000000000                                                                                                                                                                                                                                                    00001600758930001430228        000018
