0000147602043799295000110ALTAMIRA INDUSTRIA METALURGICA LT       202000000311320120810162644             2                                                                                                  000000000000000                                                                                                                                                                                                                                                                                   000001
12000867888000164TECNEQUIP TECNOLOGIA EQUIP LTD                                        0000000000103333200000000130818 I000000000009455000000000000000               201208100000000000000000000000000000000000000001750000000000000000000000000000000000050000000000  0820120810   01HF        5001623000000002898224000000000000000                                               3C0000000101                               01                                 N                     01076 10020256        000002
900000300000000001750000                                                                                                                                                                                    000000000000000                                                                                                                                                                                                                                                    00000100000000000000000        000003
