0000147602043799295000110ALTAMIRA IND METALURGICA LTDA           20100465000002012081017285600000        2    230A                                                                                          000000000000000                                                                                                                                                                                                                                                                                   000001
12002234917000186RODOVIARIO SOL NASCENTE LTDA                                          000000000010000000000000000000000000000084406377000000938850000033777         201208060000000000000000054170000045000000000000045587000000000000000000000000000587050000000000  3020120810   01MFBUHA    500                                                                                 3043889388503028000124731199010000       00033777                             N                     00000 10020256        000002
12061683652000162TRANS FACE TRANSPORTES LTDA                                           0000000023700530400000000141828 0000000084895720009000000107009I000078506     201208100000000000000000054210000055000000000000055000000000000000000000000000000000050000000000  3020120810   01MFBUHA    500R JUNO 553                                                                       3010000                   0000000000000000078506                              N                     00000 10020256        000003
12017469701000177ARCELORMITTAL BRASIL S A                                              0000000034100000000000000000000000000000848957310000009322721220012644701     201208100000000000000000054210000063787000000000063787000000000000000000000000000000050000000000  3020120810   01MFBUHA    500                                                                                 3109322721222293802529900099010000       00126447/01                          N                     00000 10020256        000004
12014775592000128HELIO ADRIANO DA SILVA ME                                             0000000023700593200000002432943 00000000854049630090221200000078199           201208130000000000000000054240000053000000000000053000000000000000000000000000000000050000000000  3020120810   01MFBUHA    500AV TAMAINDE 1410                                                                 3010000                   000000000000000008199                               N                     00000 10020256        000005
12009080640000123SERVPAES LTDA ME                                                      000000001040000000000000000000000000000085502853000000000517200002320         201208100000000000000000054210000152500000000000152500000000000000000000000000000000050000000000  3020120810   01MFBUHA    500                                                                                 3900000051710868700000040919010000       002320                               N                     00000 10020256        000006
12066970229000167NEXTEL TELECOMUNICACOES LTDA                                          0000000023702374400000001596233 0000000085502896009000014340178215472 1       201208100000000000000000054210000011632000000000011632000000000000000000000000000000050000000000  3020120810   01BT        525R GANGES  520 VILA CARRAO BR                                                     3                         00000000000000000                                   N                     00598 10020256        000007
12012006058000121WEG TINTAS LTDA               ROD  BR  280   KM 50   S N              8927000023702727800000000001309 I000000000009456009021630000088               201208100000000000000000054210000461693000000000461693000000000000000000000000000000010000143742  3120120810   01HA        000                                                                                 3272709216300000880000130029             000143742/02                         N                     00000 10020256        000008
12012006058000121WEG TINTAS LTDA               ROD  BR  280   KM 50   S N              8927000023702727800000000001309 I000000000009457009021460000090               201208100000000000000000054210000307886000000000307886000000000000000000000000000000010000140102  3120120810   01HA        000                                                                                 3272709214600000900000130029             000140102/03                         N                     00000 10020256        000009
12011777156000108LOGBEM TRANSPORTES LTDA       RUA CONSELHEIRO CANDIDO DE OLIVEIRA  4230509301000100000 0000000000000  I000000000009458000000000000000               201208100000000000000000054210000151000000000000151000000000000000000000000000000000050000000727  3120120810   01HA        000                                                                                 3000000220975900000002711739             000727                               N                     00000 10020256        000010
12001309173000159TEMHPUS MARCAS E PATENTES S C RUA AZEVEDO SOARES  1491   CONJ 01      0332200123700503700000000454923 I000000000009459009011218802408               201208100000000000000000054210000056000000000000056000000000000000000000000000000000010000005900  3120120810   01HA        000                                                                                 3050309112188024080045492019             005900/02                            N                     00000 10020256        000011
12061100202000108COFIPE VEICULOS LTDA          AV PRES CASTELO BRANCO  3333   C        0303600239900000 0000000000000  I000000000009460000000000000000               201208100000000000000000054210000029095000000000029095000000000000000000000000000000010000012104  3120120810   01HA        000                                                                                 3320005040320343608018900159             0012104/02                           N                     00000 10020256        000012
12033325184001786ALSCO TOALHEIRO BRASIL LTDA   AV NADIR DIAS DE FIGUEIREDO  829        0211000023703396000000001490850 I000000000009461009000028416503               201208100000000000000000054210000026477000000000026477000000000000000000000000000000010000284165  3120120810   01HA        000                                                                                 3339609000284165030149085089             00284165                             N                     00000 10020256        000013
12004676708000118M H F  SISTEMAS LTDA          RUA  UICO  0345                         0362102034100000 0000000000000  I000000000009462000000000000000               201208100000000000000000054210000015030000000000015030000000000000000000000000000000010099047356  3120120810   01HA        000                                                                                 3181520957425013924573200039             0099047356                           N                     00000 10020256        000014
12061100202000108COFIPE VEICULOS LTDA          AV PRES CASTELO BRANCO  3333   C        0303600239900000 0000000000000  I000000000009463000000000000000               201208100000000000000000054210000013760000000000013760000000000000000000000000000000010000528601  3120120810   01HA        000                                                                                 3320005040160343608018900149             00528601                             N                     00000 10020256        000015
12052168721000109SIND TRAB IND METAL MEC MOGI C                                        0000000010400000 0000000000000  I000000000009464000000000000000               201208100000000000000000054210000000000000000000112200000000000000000000000000000000050002015708  3120120810   01HA        000                                                                                 3313345100020314207001947899             0020015708                           N                     00000 10020256        000016
12006000195000156M B A MERCANTIL BRASILEIRA DE R RINCAO 220                            0365108023700118000000002128292 I000000000009465000000000000000               201208100000000000000000000000000000000000000000506300000000000000000000000000000000010000008514  0120120810   01HA        000                                                                                 3                                        0008514/02                           N                     00000 10020256        000017
900001800000000002060947                                                                                                                                                                                    000000000000000                                                                                                                                                                                                                                                    00001600813140001441860        000018
