0000147602043799295000110ALTAMIRA INDUSTRIA METALURGICA LT       202000000020420130110060138             1                                                                                                                                                                                                                                                                                                                                                                                                    000001
12001162151000109SUKIRA COMERCIO DE IMPORTACAO                                         000000000010000000000000000000000000000095228217000000780054000019862 AA      201302042013010800000000055990000062172000000000062172000000000000000000000000000000050000000000  3020130204   01FS        1                                                                                   3000000112481744367800541189                                                  N                     01321  0000000        000002
12003102481000134AB5 IND E COMERCIO LTDA EPP                                           0000000034100000000000000000000000000000939253510000009000043653386           201301082012121100000000055720000015900000000000015952000000000000000000000000000052050000000000  3020130110   01          2                                                                                   3109000043651003154755700019                                                  N                     01321  0000000        000003
12003489596000123BEND FLEX I COMERCIO LTDA                                             000000003410000000000000000000000000000088350832000000171879874608            201209122012082100000000054540000695250000000000859290000000000000000000000000164040050000000000  3020130110   01          2                                                                                   3191718798744157734445800069                                                  N                     01321  0000000        000004
12003489596000123BEND FLEX I COMERCIO LTDA                                             000000003410000000000000000000000000000088599899000000171434574613            201209172012081600000000054590000585000000000000717365000000000000000000000000132365050000000000  3020130110   01          2                                                                                   3191714345748157734445800019                                                  N                     01321  0000000        000005
12004643290000142FLEXTINTAS IND E COMERCIO LTDA                                        000000003410000000000000000000000000000095228219000000273477562NFF040722C     201303232013010700000000056460000328975000000000328975000000000000000000000000000000050000000000  3020130325   01FS        1                                                                                   3112734775623051356781800059                                                  N                     01321  0000000        000006
12004643290000142FLEXTINTAS IND E COMERCIO LTDA                                        000000003410000000000000000000000000000095228223000000273477560NFF040722A     201302212013010700000000056160000328974000000000328974000000000000000000000000000000050000000000  3020130221   01FS        1                                                                                   3112734775607051356781800039                                                  N                     01321  0000000        000007
12004643290000142FLEXTINTAS IND E COMERCIO LTDA                                        000000003410000000000000000000000000000095228225000000273477561NFF040722B     201303082013010700000000056310000328975000000000328975000000000000000000000000000000050000000000  3020130308   01FS        1                                                                                   3112734775615051356781800089                                                  N                     01321  0000000        000008
12005151518000140BELENUS DO BRASIL LTDA                                                000000000330000000000000000000000000000093540010000000830000000R133232612     201301032012120400000000055670000599040000000000612877000000000000000000000000013837050000000000  3020130110   01          2                                                                                   3918381050000000565083010469                                                  N                     01321  0000000        000009
12005214618000178VISION GESTAO EMP E FOM MERCAN                                        0000000023700088400000000730084 0000000092757541002000880017158000259         201301092012112600000000055730001000000000000001002000000000000000000000000000002000050000000000  3020130110   01          2  RUA TAMAINDE  1410  VILA NOVA MANCHESTERCORREA MONTAGENS INDUSTRIAIS LTDA   EPP  300000000000000000141500  012711129000197                                     N                     00598  0000000        000010
12005880850000145NEDERMAN BRASIL COM PROD EX LT                                        000000003410000000000000000000000000000086373178000000614350956002763 A       201209252012081400000000054670000289674000000000350664000000000000000000000000060990050000000000  3020130110   01          2                                                                                   3156143509568160829000100049                                                  N                     01321  0000000        000011
12006000195000156MBA MERCANTIL BRAS DE ACO LTDA                                        0000000034100000000000000000000000000000904173180000001671394430008926B03     201210122012071700000000054840000387716000000000456386000000000000000000000000068670050000000000  3020130110   01          2                                                                                   3191671394432064849251000079                                                  N                     01321  0000000        000012
12006000195000156MBA MERCANTIL BRAS DE ACO LTDA                                        0000000034100000000000000000000000000000887698090000001671394550008925B02     201209142012071700000000054560000719581000000000886551000000000000000000000000166970050000000000  3020130110   01          2                                                                                   3191671394556064849251000089                                                  N                     01321  0000000        000013
12006000195000156MBA MERCANTIL BRAS DE ACO LTDA                                        0000000034100000000000000000000000000000887698100000001671394560008926B02     201209142012071700000000054560000387716000000000477750000000000000000000000000090034050000000000  3020130110   01          2                                                                                   3191671394564064849251000019                                                  N                     01321  0000000        000014
12006000195000156MBA MERCANTIL BRAS DE ACO LTDA                                        0000000034100000000000000000000000000000889578520000001671394540008920B02     201209162012071700000000054580000576585000000000708129000000000000000000000000131544050000000000  3020130110   01          2                                                                                   3191671394549064849251000099                                                  N                     01321  0000000        000015
12006000195000156MBA MERCANTIL BRAS DE ACO LTDA                                        0000000034100000000000000000000000000000906662670000001671394410008920B03     201210142012071700000000054860000576584000000000676376000000000000000000000000099792050000000000  3020130110   01          2                                                                                   3191671394416064849251000039                                                  N                     01321  0000000        000016
12006000195000156M B A MERCANTIL BRASILEIRA DE                                         0000000023700118P00000002130599 00000000865388240020222900000450009203B03     201212122012081500000000055450000344980000000000361655000000000000000000000000016675050000000000  3020130110   01          2  RUA JUNO  533                                                                    300000000000000000001500  000000000000000                                     N                     00598  0000000        000017
12006000195000156M B A MERCANTIL BRASILEIRA DE                                         0000000023700118P00000002130599 00000000865388270020222900000480009204B03     201212132012081500000000055460000127291000000000133227000000000000000000000000005936050000000000  3020130110   01          2  RUA JUNO  533                                                                    300000000000000000001500  000000000000000                                     N                     00598  0000000        000018
12006000195000156M B A MERCANTIL BRASILEIRA DE                                         0000000023700118P00000002130599 00000000865388300020222900000510009205B03     201212142012081500000000055470000348964000000000364678000000000000000000000000015714050000000000  3020130110   01          2  RUA JUNO  533                                                                    300000000000000000001500  000000000000000                                     N                     00598  0000000        000019
12006000195000156M B A MERCANTIL BRASILEIRA DE                                         0000000023700118P00000002130599 00000000865388330020222900000540009206B03     201212152012081500000000055480000527560000000000550414000000000000000000000000022854050000000000  3020130110   01          2  RUA JUNO  533                                                                    300000000000000000001500  000000000000000                                     N                     00598  0000000        000020
12006000195000156M B A MERCANTIL BRASILEIRA DE                                         0000000023700118P00000002130599 00000000868592700020223600000030009229B03     201212132012081600000000055460000253414000000000265230000000000000000000000000011816050000000000  3020130110   01          2  RUA JUNO  533                                                                    300000000000000000001500  000000000000000                                     N                     00598  0000000        000021
12006000195000156MBA MERCANTIL BRAS DE ACO LTDA                                        0000000034100000000000000000000000000000944046400000002698081140010733B02     201302112012121700000000056060000244335000000000244335000000000000000000000000000000050000000000  3020130213   05          3                                                                                   3112698081141064899001800019                                                  N                     01321  0000000        000022
12006000195000156MBA MERCANTIL BRAS DE ACO LTDA                                        0000000034100000000000000000000000000000944046410000002698081150010733B03     201303112012121700000000056340000244336000000000244336000000000000000000000000000000050000000000  3020130311   05          3                                                                                   3112698081158064899001800099                                                  N                     01321  0000000        000023
12006000195000156MBA MERCANTIL BRAS DE ACO LTDA                                        0000000034100000000000000000000000000000939253290000002674598000010648B02     201302042012121000000000055990000693902000000000693902000000000000000000000000000000050000000000  3020130204   05          3                                                                                   3112674598001064899001800039                                                  N                     01321  0000000        000024
12006000195000156MBA MERCANTIL BRAS DE ACO LTDA                                        0000000034100000000000000000000000000000929490040000002624098170010371B01     201212252012112200000000055580000273240000000000273240000000000000000000000000000000050000000000  3020121226   05          3                                                                                   3112624098177064899001800029                                                  N                     01321  0000000        000025
12006000195000156MBA MERCANTIL BRAS DE ACO LTDA                                        0000000034100000000000000000000000000000933583280000002644908750010452B01     201212252012112700000000055580000816455000000000816455000000000000000000000000000000050000000000  3020121226   05          3                                                                                   3112644908751064899001800099                                                  N                     01321  0000000        000026
12006000195000156MBA MERCANTIL BRAS DE ACO LTDA                                        0000000034100000000000000000000000000000939253200000002674597990010648B01     201301072012121000000000055710000693902000000000693902000000000000000000000000000000050000000000  3020130107   05          3                                                                                   3112674597995064899001800089                                                  N                     01321  0000000        000027
12006000195000156MBA MERCANTIL BRAS DE ACO LTDA                                        0000000034100000000000000000000000000000929489980000002624098140010370B01     201212242012112200000000055570000637298000000000637298000000000000000000000000000000050000000000  3020121224   05          3                                                                                   3112624098144064899001800029                                                  N                     01321  0000000        000028
12006000195000156MBA MERCANTIL BRAS DE ACO LTDA                                        0000000034100000000000000000000000000000944046450000002698081130010733B01     201301142012121700000000055780000244335000000000244335000000000000000000000000000000050000000000  3020130114   05          3                                                                                   3112698081133064899001800049                                                  N                     01321  0000000        000029
12008263210000184BETA COM IMP EXP DE FERRAMENT                                         0000000034100000000000000000000000000000952282290000006170819053039A          201301302013010900000000055940000047650000000000047650000000000000000000000000000000050000000000  3020130130   01FS        1                                                                                   3156170819059808333717300069                                                  N                     01321  0000000        000030
12008272923000104P SANTOS ESQUADRARIAS METAL ME                                        0000000034100000000000000000000000000000915734100000006159682651954           201212052012110700000000055380000408138000000000455469000000000000000000000000047331050000000000  3020130110   01          2                                                                                   3156159682654160141951600029                                                  N                     01321  0000000        000031
12009007898000102ARTERINOX COMERCIO T M L EPP                                          0000000034100000000000000000000000000000952282260000002736809564399           201302062013010700000000056010000090983000000000090983000000000000000000000000000000050000000000  3020130206   01FS        1                                                                                   3112736809560641221612600069                                                  N                     01321  0000000        000032
12009007898000102ARTERINOX COMERCIO T M L EPP                                          0000000034100000000000000000000000000000952282270000002736809574400           201302062013010700000000056010000181486000000000181486000000000000000000000000000000050000000000  3020130206   01FS        1                                                                                   3112736809578641221612600069                                                  N                     01321  0000000        000033
12009007898000102ARTERINOX COMERCIO T M L EPP                                          0000000034100000000000000000000000000000952282280000002736809584401           201302062013010700000000056010000010095000000000010095000000000000000000000000000000050000000000  3020130206   01FS        1                                                                                   3112736809586641221612600069                                                  N                     01321  0000000        000034
12009338857000190FERNANDO  NAGAO  CARDONE  ALVA                                        000000000330000000000000000000000000000091653176000000300000000ALTA 11 2012   201211202012103000000000055230000134632000000000156582000000000000000000000000021950050000000000  3020130110   01          2                                                                                   3947901700000051051630010119                                                  N                     01321  0000000        000035
12010839055000143IDEAL GESTAO DE NEGOCIOS LTDA                                         0000000003300000000000000000000000000000952282330000005100000000000004064     201301302013010700000000055940000006691000000000006691000000000000000000000000000000050000000000  3020130130   01FS        1                                                                                   3957281850000000016951010119                                                  N                     01321  0000000        000036
12042956441000101SOLUCOES ACO USIMINAS                                                 0000000034100000000000000000000000000000920384820000002579400140018963302     201301072012111200000000055710000646567000000000649153000000000000000000000000003879050000000000  3020130109   06          3                                                                                   3112579400147293807258000039                                                  N                     01321  0000000        000037
12042956441000101SOLUCOES ACO USIMINAS                                                 0000000034100000000000000000000000000000939253250000002674878770019428701     201301082012121100000000055720000377635000000000377635000000000000000000000000000000050000000000  3020130108   06          3                                                                                   3112674878775293807258000089                                                  N                     01321  0000000        000038
12042956441000101SOLUCOES ACO USIMINAS                                                 0000000034100000000000000000000000000000939253330000002674878780019428801     201301082012121100000000055720000252351000000000252351000000000000000000000000000000050000000000  3020130108   06          3                                                                                   3112674878783293807258000089                                                  N                     01321  0000000        000039
12042956441000101SOLUCOES ACO USIMINAS                                                 0000000034100000000000000000000000000000939253340000002674878790019428901     201301082012121100000000055720000487383000000000487383000000000000000000000000000000050000000000  3020130108   06          3                                                                                   3112674878791293807258000069                                                  N                     01321  0000000        000040
12042956441000101SOLUCOES ACO USIMINAS                                                 0000000034100000000000000000000000000000853154840000002246247030017196702     201209202012072500000000054620000234841000000000287481000000000000000000000000052640050000000000  3020130110   01          2                                                                                   3112246247038293807258000099                                                  N                     01321  0000000        000041
12042956441000101SOLUCOES ACO USIMINAS                                                 0000000034100000000000000000000000000000853154850000002246247040017197302     201209202012072500000000054620000970103000000001187383000000000000000000000000217280050000000000  3020130110   01          2                                                                                   3112246247046293807258000019                                                  N                     01321  0000000        000042
12042956441000101SOLUCOES ACO USIMINAS                                                 0000000034100000000000000000000000000000855028690000002254329380017212902     201209212012072600000000054630000140098000000000171178000000000000000000000000031080050000000000  3020130110   01          2                                                                                   3112254329389293807258000019                                                  N                     01321  0000000        000043
12042956441000101SOLUCOES ACO USIMINAS                                                 0000000034100000000000000000000000000000855028700000002254329390017213002     201209212012072600000000054630000140602000000000171793000000000000000000000000031191050000000000  3020130110   01          2                                                                                   3112254329397293807258000089                                                  N                     01321  0000000        000044
12042956441000101SOLUCOES ACO USIMINAS                                                 0000000034100000000000000000000000000000855028770000002254329400017220502     201209212012072700000000054630000981022000000001198804000000000000000000000000217782050000000000  3020130110   01          2                                                                                   3112254329405293807258000099                                                  N                     01321  0000000        000045
12042956441000101SOLUCOES ACO USIMINAS                                                 0000000034100000000000000000000000000000859590620000002274469790017353702     201209282012080300000000054700000081053000000000097901000000000000000000000000016848050000000000  3020130110   01          2                                                                                   3112274469793293807258000069                                                  N                     01321  0000000        000046
12042956441000101SOLUCOES ACO USIMINAS                                                 0000000034100000000000000000000000000000850740470000002233586810017101002     201209142012071900000000054560000732575000000000905445000000000000000000000000172870050000000000  3020130110   01          2                                                                                   3112233586810293807258000019                                                  N                     01321  0000000        000047
12042956441000101SOLUCOES ACO USIMINAS                                                 0000000034100000000000000000000000000000850740480000002233586820017101202     201209142012071900000000054560000144634000000000178736000000000000000000000000034102050000000000  3020130110   01          2                                                                                   3112233586828293807258000029                                                  N                     01321  0000000        000048
12043298975000150JOMARCA INDL DE PARAFUSOS LTDA                                        000000003410000000000000000000000000000095228222000000273526767173225 02      201303082013010700000000056310000439007000000000439007000000000000000000000000000000050000000000  3020130308   01FS        1                                                                                   3112735267679144604719100019                                                  N                     01321  0000000        000049
12043298975000150JOMARCA INDL DE PARAFUSOS LTDA                                        000000003410000000000000000000000000000095228220000000273526766173225 01      201302062013010700000000056010000570709000000000570709000000000000000000000000000000050000000000  3020130206   01FS        1                                                                                   3112735267661144604719100059                                                  N                     01321  0000000        000050
12043298975000150JOMARCA INDL DE PARAFUSOS LTDA                                        000000003410000000000000000000000000000095228224000000273526768173225 03      201304072013010700000000056610000439006000000000439006000000000000000000000000000000050000000000  3020130408   01FS        1                                                                                   3112735267687144604719100039                                                  N                     01321  0000000        000051
12045635984000115CRIFER LAMINADOS DE ACO E FERR                                        0000000003300000000000000000000000000000917414020000007500000000036176E02     201301032012110800000000055670000501947000000000508974000000000000000000000000007027050000000000  3020130110   01          2                                                                                   3901184270000000261475010159                                                  N                     01321  0000000        000052
12047190731000100DE CASTRO LOUR ENG IND LTDA                                           00000000341000000000000000000000000000008996248000000024766209303027184 0     201212282012100500000000055610001153394000000001182878000000000000000000000000029484050000000000  3020130110   01          2                                                                                   3112476620938036884500400099                                                  N                     01321  0000000        000053
12047190731000100DE CASTRO LOUR ENG IND LTDA                                           00000000341000000000000000000000000000008782051200000023399953803026613 0     201209182012082100000000054600001107989000000001356395000000000000000000000000248406050000000000  3020130110   01          2                                                                                   3112339995386036884500400039                                                  N                     01321  0000000        000054
12047190731000100DE CASTRO LOUR ENG IND LTDA                                           00000000341000000000000000000000000000008782051600000023399954103026614 0     201209182012082100000000054600001047621000000001282461000000000000000000000000234840050000000000  3020130110   01          2                                                                                   3112339995410036884500400039                                                  N                     01321  0000000        000055
12047190731000100DE CASTRO LOUR ENG IND LTDA                                           00000000341000000000000000000000000000008782052000000023399955303026632 0     201209192012082200000000054610000952073000000001163609000000000000000000000000211536050000000000  3020130110   01          2                                                                                   3112339995535036884500400019                                                  N                     01321  0000000        000056
12047190731000100DE CASTRO LOUR ENG IND LTDA                                           00000000341000000000000000000000000000008782052100000023399955903026643 0     201209202012082300000000054620000867039000000001057999000000000000000000000000190960050000000000  3020130110   01          2                                                                                   3112339995592036884500400049                                                  N                     01321  0000000        000057
12047190731000100DE CASTRO LOUR ENG IND LTDA                                           00000000341000000000000000000000000000008782052500000023399955603026636 0     201209192012082200000000054610000940804000000001149854000000000000000000000000209050050000000000  3020130110   01          2                                                                                   3112339995568036884500400049                                                  N                     01321  0000000        000058
12047190731000100DE CASTRO LOUR ENG IND LTDA                                           00000000341000000000000000000000000000008782052700000023399956203026648 0     201209202012082300000000054620000976053000000001191093000000000000000000000000215040050000000000  3020130110   01          2                                                                                   3112339995626036884500400029                                                  N                     01321  0000000        000059
12047190731000100DE CASTRO LOUR ENG IND LTDA                                           00000000341000000000000000000000000000008782052900000023399956403026648 0     201212202012082300000000055530000976344000000001016664000000000000000000000000040320050000000000  3020130110   01          2                                                                                   3112339995642036884500400059                                                  N                     01321  0000000        000060
12047190731000100DE CASTRO LOUR ENG IND LTDA                                           00000000341000000000000000000000000000008782053300000023399956103026643 0     201212202012082300000000055530000867297000000000903123000000000000000000000000035826050000000000  3020130110   01          2                                                                                   3112339995618036884500400059                                                  N                     01321  0000000        000061
12047190731000100DE CASTRO LOUR ENG IND LTDA                                           00000000341000000000000000000000000000008782059200000023602715103026744 0     201212262012082900000000055590000146636000000000150956000000000000000000000000004320050000000000  3020130110   01          2                                                                                   3112360271517036884500400019                                                  N                     01321  0000000        000062
12047190731000100DE CASTRO LOUR ENG IND LTDA                                           00000000341000000000000000000000000000008782059600000023602714803026734 0     201212252012082800000000055580000998134000000001029542000000000000000000000000031408050000000000  3020130110   01          2                                                                                   3112360271483036884500400059                                                  N                     01321  0000000        000063
12047190731000100DE CASTRO LOUR ENG IND LTDA                                           00000000341000000000000000000000000000008782059700000023602715403026745 0     201212262012082900000000055590000903448000000000930103000000000000000000000000026655050000000000  3020130110   01          2                                                                                   3112360271541036884500400019                                                  N                     01321  0000000        000064
12047190731000100DE CASTRO LOUR ENG IND LTDA                                           00000000341000000000000000000000000000008782050900000023399953503026612 0     201209182012082100000000054600001111489000000001360693000000000000000000000000249204050000000000  3020130110   01          2                                                                                   3112339995352036884500400019                                                  N                     01321  0000000        000065
12047190731000100DE CASTRO LOUR ENG IND LTDA                                           00000000341000000000000000000000000000009041732400000025008465303027256 0     201301082012101600000000055720001108934000000001113296000000000000000000000000004362050000000000  3020130110   01          2                                                                                   3112500846533036884500400089                                                  N                     01321  0000000        000066
12047190731000100DE CASTRO LOUR ENG IND LTDA                                           00000000341000000000000000000000000000009041733000000025008464703027216 0     201301022012101000000000055660000225446000000000228990000000000000000000000000003544050000000000  3020130110   01          2                                                                                   3112500846475036884500400019                                                  N                     01321  0000000        000067
12047190731000100DE CASTRO LOUR ENG IND LTDA                                           00000000341000000000000000000000000000009041733200000025008465003027234 0     201301032012101100000000055670001029906000000001044081000000000000000000000000014175050000000000  3020130110   01          2                                                                                   3112500846509036884500400099                                                  N                     01321  0000000        000068
12048775225000146SEIKI IND COM E CONFECCOES LTD                                        000000003410000000000000000000000000000089337376000000244697151014914001      201210232012092500000000054950000052000000000000058162000000000000000000000000006162050000000000  3020130110   01          2                                                                                   3112446971510017444824100089                                                  N                     01321  0000000        000069
12051180370000199IGUAFER FERRO E ACO LTDA                                              0000000034100000000000000000000000000000852309110000002239389799443 C         201209122012071800000000054540000168275000000000201875000000000000000000000000033600050000000000  3020130110   01          2                                                                                   3112239389797077149484600089                                                  N                     01321  0000000        000070
12052898194000198C M COMANDOS LINIARES LTDA                                            0000000034100000000000000000000000000000952282210000002734632180037787        201302042013010700000000055990000021600000000000021600000000000000000000000000000000050000000000  3020130204   01FS        1                                                                                   3112734632188026437617900019                                                  N                     01321  0000000        000071
12054382510000108SETENTA IND E COM DE MADEIRAS                                         0000000034100000000000000000000000000000860403430000002277814474462 A         201209042012080700000000054460000191200000000000234440000000000000000000000000043616050000000000  3020121228   05          3                                                                                   3112277814474057049175300069                                                  N                     01321  0000000        000072
12056993512000150CYKLOP DO BRASIL EMBALAGENS SA                                        0000000034100000000000000000000000000000874070500000002362586810134932        201210012012090300000000054730000083607000000000114614000000000000000000000000031007050000000000  3020130110   01          2                                                                                   3112362586813025700015800019                                                  N                     01321  0000000        000073
12057544819000137FOGAL GALVANIZACAO A FOGO LTDA                                        000000000010000000000000000000000000000095228218000000819005000000101561      201301252013010800000000055890000236665000000000236665000000000000000000000000000000050000000000  3020130125   01FS        1                                                                                   3044368190053279000073611189                                                  N                     01321  0000000        000074
12057544819000137FOGAL GALVANIZACAO A FOGO LTDA                                        000000000010000000000000000000000000000095228216000000819015000000101562      201302012013010800000000055960000236665000000000236665000000000000000000000000000000050000000000  3020130201   01FS        1                                                                                   3044368190153279000073611189                                                  N                     01321  0000000        000075
12062510367000102ITANHAEM TRANSP DE MAQUINAS LT                                        000000003410000000000000000000000000000087407049000000236463199667            201209202012090400000000054620000248220000000000359436000000000000000000000000111216050000000000  3020130110   01          2                                                                                   3112364631997005770252400049                                                  N                     01321  0000000        000076
12062539994000176LEALFER INDUSTRIA E COMERCIO D                                        0000000003300000000000000000000000000000919322020000006700000000005818802     201301072012110900000000055710000327558000000000329228000000000000000000000000001670050000000000  3020130110   01          2                                                                                   3915298380000000293067010419                                                  N                     01321  0000000        000077
12064952757000168WALMAC COM DE PROD QUIMICOS LT                                        0000000034100000000000000000000000000000860403450000002275821700020148        201210052012080300000000054770000219267000000000261074000000000000000000000000041807050000000000  3020130110   01          2                                                                                   3112275821703064807961400029                                                  N                     01321  0000000        000078
12066899790000105FABRICA ARTEF LATEX ESTRELA EP                                        00000000399000000000000000000000000000009522823100000000000000086663 002      201303102013010900000000056330000391403000000000391403000000000000000000000000000000050000000000  3020130311   01FS        1                                                                                   3176707655041125027292500119                                                  N                     01321  0000000        000079
12066899790000105FABRICA ARTEF LATEX ESTRELA EP                                        00000000399000000000000000000000000000009522823200000000000000086663 003      201303252013010900000000056480000391404000000000391404000000000000000000000000000000050000000000  3020130325   01FS        1                                                                                   3176707655121125027292500159                                                  N                     01321  0000000        000080
12066899790000105FABRICA ARTEF LATEX ESTRELA EP                                        00000000399000000000000000000000000000009522823000000000000000086663 001      201302232013010900000000056180000391403000000000391403000000000000000000000000000000050000000000  3020130225   01FS        1                                                                                   3176707654901125027292500159                                                  N                     01321  0000000        000081
12069284248000128ISOCOAT TINTAS E VERNIZES LTDA                                        0000000034100000000000000000000000000000908309610000002521130200057192        201301072012102400000000055710000318064000000000320608000000000000000000000000002544050000000000  3020130110   01          2                                                                                   3112521130206077430121200019                                                  N                     01321  0000000        000082
12069284248000128ISOCOAT TINTAS E VERNIZES LTDA                                        0000000034100000000000000000000000000000841061040000002182507930052085        201209172012070200000000054590000236130000000000308580000000000000000000000000072450050000000000  3020130110   01          2                                                                                   3112182507932077430121200019                                                  N                     01321  0000000        000083
12096579073000159CRISTALGRAF IMPRESSOS GRAFICOS                                        0000000039900000000000000000000000000000939253530000000000000000000000437     201301082012121300000000055720000018000000000000018000000000000000000000000000000000050000000000  3020130108   06          3                                                                                   3176574372471912059758700119                                                  N                     01321  0000000        000084
900008500000000042244232                                                                                                                                                                                                                                                                                                                                                                                                                                                                01321  0000000        000085
