0000147602043799295000110ALTAMIRA INDUSTRIA METALURGICA LT       202000000012320120911080659             1                                                                                                                                                                                                                                                                                                                                                                                                    000001
12001515122000183SOFT BRASIL AUTOMACAO LTDA                                            000000003410000000000000000000000000000087820566000000900001635DNF 1465       201209252012082800000000054670000050071000000000050071000000000000000000000000000000050000000000  3020120925   01FS        1                                                                                   3109000016358018307515900049                                                  N                     01321  0000000        000002
12001852612000175BT EQUIP INDUSTRIAIS LTDA EPP                                         000000003410000000000000000000000000000086615424000000230334024590848         201209102012081600000000054520000044535000000000044682000000000000000000000000000147050000000000  3020120911   01          2                                                                                   3112303340247052567228300059                                                  N                     01321  0000000        000003
12001895314000162COLETA INDUSTRIAL FIMAVAN LTDA                                        0000000034100000000000000000000000000000866992070000009002335349439           201208272012081700000000054380000123695000000000131104000000000000000000000000007409050000000000  3020120911   01          2                                                                                   3109002335346144604097200019                                                  N                     01321  0000000        000004
12001951865000104FOUR FACTORING FOMENTO M LTDA                                         000000004220000000000000000000000000000086040341000000000000000193A           201208272012080600000000054380000145000000000000145965000000000000000000000000001447050000000000  3020120829   05          3                                                                                   3702000009214741910473285169                                                  N                     01321  0000000        000005
12001951865000104FOUR FACTORING FOMENTO M LTDA                                         000000004220000000000000000000000000000085861627000000000000000188 B          201208312012080200000000054420000145000000000000149829000000000000000000000000005311050000000000  3020120910   05          3                                                                                   3702000009214741499752376169                                                  N                     01321  0000000        000006
12001951865000104FOUR FACTORING FOMENTO M LTDA                                         000000004220000000000000000000000000000086040342000000000000000194B           201209032012080600000000054450000145000000000000146448000000000000000000000000001930050000000000  3020120906   05          3                                                                                   3702000009214741910473293169                                                  N                     01321  0000000        000007
12001951865000104FOUR FACTORING FOMENTO M LTDA                                         000000004220000000000000000000000000000085230907000000000000000159 2012       201208142012072400000000054250000310000000000000320329000000000000000000000000011361050000000000  3020120824   05          3                                                                                   3702000009214741497536196199                                                  N                     01321  0000000        000008
12001951865000104FOUR FACTORING FOMENTO M LTDA                                         000000004220000000000000000000000000000086282619000000000000000204 12         201209082012081000000000054500000300000000000000300000000000000000000000000000000000050000000000  3020120910   05          3                                                                                   3702000009214741912384859119                                                  N                     01321  0000000        000009
12001951865000104FOUR FACTORING FOMENTO M LTDA                                         000000004220000000000000000000000000000085861628000000000000000181 12         201208282012080200000000054390000300000000000000300999000000000000000000000000001998050000000000  3020120829   05          3                                                                                   3702000009214741499752384119                                                  N                     01321  0000000        000010
12002503185000182ANDAIMES E MAQUINAS BIG LTDA                                          0000000000100000000000000000000000000000858616310000000653760004990           201208232012080300000000054340000036040000000000036040000000000000000000000000000000050000000000  3020120823   06          3                                                                                   3000000187782308250653761759                                                  N                     01321  0000000        000011
12002503185000182ANDAIMES MAQUINAS BIG LTDA EPP                                        000000003410000000000000000000000000000086282613000000228719913011660         201208302012081000000000054410000012000000000000012336000000000000000000000000000336050000000000  3020120911   01          2                                                                                   3112287199130650303800900039                                                  N                     01321  0000000        000012
12002503185000182ANDAIMES E MAQUINAS BIG LTDA                                          000000003410000000000000000000000000000087820531000000233954448011791         201209212012082700000000054630000026000000000000026000000000000000000000000000000000050000000000  3020120921   01FS        1                                                                                   3112339544481925303435000019                                                  N                     01321  0000000        000013
12002503185000182ANDAIMES E MAQUINAS BIG LTDA                                          0000000003300000000000000000000000000000878205850000002800000005169           201209212012090300000000054630000036040000000000036040000000000000000000000000000000050000000000  3020120921   01FS        1                                                                                   3909689780000000647128010419                                                  N                     01321  0000000        000014
12002917344000195PRENSAPECA INDUSTRIA E COMERCI                                        0000000000100000000000000000000000000000858616300000004340050006006           201208292012080300000000054400000072448000000000073156000000000000000000000000000849050000000000  3020120903   05          3                                                                                   3000000103919943954340051119                                                  N                     01321  0000000        000015
12003102481000134AB5 IND E COMERCIO LTDA EPP                                           0000000034100000000000000000000000000000865388210000009000040412849           201209042012080700000000054460000155820000000000157640000000000000000000000000001820050000000000  3020120911   01          2                                                                                   3109000040418003154755700069                                                  N                     01321  0000000        000016
12003489596000123BEND FLEX INDUSTRIA E COMERCIO                                        000000001040000000000000000000000000000086961107000000241364000607            201209072012081000000000054490000405000000000000418448000000000000000000000000013448050000000000  3020120911   01          2                                                                                   3314224136411558700000019999                                                  N                     01321  0000000        000017
12003694166000143GRANDE SAO PAULO COMERCIO DE P                                        000000000010000000000000000000000000000087820586000000088384000154 01         201209112012090300000000054530000034400000000000034400000000000000000000000000000000050000000000  3020120911   01FS        1                                                                                   3000000151248744030883841119                                                  N                     01321  0000000        000018
12005044228000105TRIARC COM S METAIS USINADOS                                          000000003410000000000000000000000000000085404957000000788988941677            201208222012073000000000054330000006800000000000006891000000000000000000000000000104050000000000  3020120829   06          3                                                                                   3157889889412076157868100069                                                  N                     01321  0000000        000019
12005044228000105TRIARC COM S METAIS USINADOS                                          000000003410000000000000000000000000000085404958000000788989596237 S          201208222012073000000000054330000040000000000000040553000000000000000000000000000632050000000000  3020120829   06          3                                                                                   3157889895963076157868100019                                                  N                     01321  0000000        000020
12005151518000140BELENUS DO BRASIL LTDA                                                000000000010000000000000000000000000000082574092000000503224000R127420032     201209032012061200000000054450000460800000000000460800000000000000000000000000000000050000000000  3020120903   06          3                                                                                   3000000123933843815032243159                                                  N                     01321  0000000        000021
12005214618000178VISION GESTAO EMP E FOM MERCAN                                        0000000023700088400000000730084 0000000087820601002000880016153000218         201209272012090300000000054690000130000000000000130000000000000000000000000000000000050000000000  3020120927   01FS        1  RUA TAMAINDE  1410  VILA NOVA MANCHESTERCORREA MONTAGENS INDUSTRIAIS LTDA   EPP  3                         012711129000197                                     N                     00598  0000000        000022
12005335228000156DINAMICA INF E TELECOM LTDA EP                                        0000000023703257300000000503215 0000000086455447009032570016796MO008820A      201208302012080600000000054410000020000000000000020804000000000000000000000000000804050000000000  3020120911   01          2  RUA JUNO  533                                                                    3                         000000000000000                                     N                     00598  0000000        000023
12005753978000148HUMAN SERVICOS PARA COMUNICACA                                        0000000003300000000000000000000000000000858616590000008900000000000098289     201208202012080200000000054310000013000000000000013298000000000000000000000000000302050000000000  3020120829   06          3                                                                                   3936028260000000098289010119                                                  N                     01321  0000000        000024
12005880850000145NEDERMAN BRASIL COM PROD EX LT                                        000000003410000000000000000000000000000086373178000000614350956002763 A       201209092012081400000000054510000289674000000000290814000000000000000000000000001140050000000000  3020120911   01          2                                                                                   3156143509568160829000100079                                                  N                     01321  0000000        000025
12005915831000107PALETES SATELITE COM LTDA ME                                          000000003410000000000000000000000000000085959067000000901798000NF  1798       201208232012080200000000054340000045000000000000046800000000000000000000000000002100050000000000  3020120829   06          3                                                                                   3109017980008144648966600039                                                  N                     01321  0000000        000026
12006000195000156M B A MERCANTIL BRASILEIRA DE                                         0000000023700118P00000002130599 00000000853154980020220900000440008967B01     201208232012072400000000054340000135605000000000139899000000000000000000000000004294050000000000  3020120911   01          2  RUA JUNO  533                                                                    3                         000000000000000                                     N                     00598  0000000        000027
12006000195000156M B A MERCANTIL BRASILEIRA DE                                         0000000023700118P00000002130599 00000000853155100020220900000700008987B01     201208232012072500000000054340000216623000000000223482000000000000000000000000006859050000000000  3020120911   01          2  RUA JUNO  533                                                                    3                         000000000000000                                     N                     00598  0000000        000028
12006000195000156M B A MERCANTIL BRASILEIRA DE                                         0000000023700118P00000002128292 00000000878206030090219200000160008794B02     201208312012070600000000054420001003533000000001003533000000000000000000000000000000050000000000  3020120911   01FS        1  RUA JUNO  533                                                                    3                         000000000000000                                     N                     00598  0000000        000029
12006000195000156MBA MERCANTIL BRAS DE ACO LTDA                                        0000000034100000000000000000000000000000878205670000001671394740008920B01     201208192012071700000000054300000576584000000000602666000000000000000000000000026082050000000000  3020120911   01FS        1                                                                                   3191671394747064849251000059                                                  N                     01321  0000000        000030
12006000195000156M B A MERCANTIL BRASILEIRA DE                                         0000000000100000000000000000000000000000855028850000007952860000009006B01     201208282012073000000000054390000235480000000000235872000000000000000000000000000784050000000000  3020120829   05          3                                                                                   3043937952863333000105251129                                                  N                     01321  0000000        000031
12006000195000156M B A MERCANTIL BRASILEIRA DE                                         0000000000100000000000000000000000000000855028890000007952830000009005B01     201208272012073000000000054380000202838000000000203514000000000000000000000000001014050000000000  3020120829   05          3                                                                                   3043937952833333000105251129                                                  N                     01321  0000000        000032
12006209559000102MAZURKY IND COM EMB LTDA                                              000000003410000000000000000000000000000087820530000000233961389010076 1       201209182012082100000000054600000092750000000000092750000000000000000000000000000000050000000000  3020120918   01FS        1                                                                                   3112339613898151434240900069                                                  N                     01321  0000000        000033
12006209559000102MAZURKY IND COM EMB LTDA                                              000000003410000000000000000000000000000087820532000000233961390010076 2       201209252012082100000000054670000092750000000000092750000000000000000000000000000000050000000000  3020120925   01FS        1                                                                                   3112339613906151434240900049                                                  N                     01321  0000000        000034
12006209559000102MAZURKY IND COM EMB LTDA                                              000000003410000000000000000000000000000087820526000000233961391010076 3       201210022012082100000000054740000092749000000000092749000000000000000000000000000000050000000000  3020121002   01FS        1                                                                                   3112339613914151434240900079                                                  N                     01321  0000000        000035
12006894969000130TERRADIESEL COM DE PCS P CAMIN                                        00000000341000000000000000000000000000008653881500000023020935013969A         201209072012081500000000054490000017800000000000018228000000000000000000000000000428050000000000  3020120911   01          2                                                                                   3112302093508006500924300049                                                  N                     01321  0000000        000036
12008508119000181DINARI FOMENTO MERCANTIL LTDA                                         000000004220000000000000000000000000000087820582000000000000000235            201209282012083000000000054700000220000000000000220000000000000000000000000000000000050000000000  3020120928   01FS        1                                                                                   3702000009323370918215242159                                                  N                     01321  0000000        000037
12008508119000181DINARI FOMENTO MERCANTIL LTDA                                         0000000023702499600000000178306 0000000086282616002022260000004206 B          201209102012081000000000054520000170000000000000175610000000000000000000000000005610050000000000  3020120911   01          2  RUA JUNO  533 VL N MANCHESTER SAO PAULO PANKRO LOGISTICA E TRANSPORTES LTDA EPP  3                         002269980000158                                     N                     00598  0000000        000038
12008709272000177MULTIELETRICA C M E LTDA                                              000000003410000000000000000000000000000085771858000000900002205000002535B     201208282012072400000000054390000188888000000000200403000000000000000000000000011886050000000000  3020120829   05          3                                                                                   3109000022057075798525400029                                                  N                     01321  0000000        000039
12009338857000190FERNANDO  NAGAO  CARDONE  ALVA                                        000000000330000000000000000000000000000087820609000000360000000ALTA 09 2012   201209202012083000000000054620000134632000000000134632000000000000000000000000000000050000000000  3020120920   01FS        1                                                                                   3947901700000051049236010119                                                  N                     01321  0000000        000040
12009338857000190FERNANDO  NAGAO  CARDONE  ALVA                                        000000000330000000000000000000000000000085959071000000430000000REEM 07 2012   201208102012072600000000054210000024134000000000026679000000000000000000000000002545050000000000  3020120911   01          2                                                                                   3947901700000051047543010139                                                  N                     01321  0000000        000041
12009630445000120MARIANA DE QUEIROZ SILVA   GRA                                        0000000000100000000000000000000000000000878205830000000001180000687           201210012012083100000000054730000018500000000000018500000000000000000000000000000000050000000000  3020121001   01FS        1                                                                                   3000000167849100000001181749                                                  N                     01321  0000000        000042
12010543507000145MAJOR CORTEZ CONFECCAO E COMER                                        000000003410000000000000000000000000000085315495000000614041210157            201208222012072700000000054330000053000000000000053728000000000000000000000000000832050000000000  3020120829   06          3                                                                                   3156140412101074662673800029                                                  N                     01321  0000000        000043
12011318709000156MARTINS MARIANO T LTDA                                                0000000034100000000000000000000000000000878205650000009000009426237           201209172012082800000000054590000058956000000000058956000000000000000000000000000000050000000000  3020120917   01FS        1                                                                                   3109000009427007265858600039                                                  N                     01321  0000000        000044
12012006058000121WEG TINTAS LTDA                                                       0000000023702727800000000001309 00000000834820640090217900000760014773903     201209092012062600000000054510000306662000000000307478000000000000000000000000000816050000000000  3020120911   01          2  R JUNO  533                                                                      3                         000000000000000                                     N                     00598  0000000        000045
12012006058000121WEG TINTAS LTDA                                                       0000000023702727800000000001309 00000000854049540090221200001000015513001     201209102012072700000000054520000459854000000000460467000000000000000000000000000613050000000000  3020120911   01          2  R JUNO  533                                                                      3                         000000000000000                                     N                     00598  0000000        000046
12012006058000121WEG TINTAS LTDA                                                       0000000023702727800000000001309 00000000878206050090225400000790016517202     201211052012090600000000055080000459854000000000459854000000000000000000000000000000050000000000  3020121105   01FS        1  R JUNO  533                                                                      3                         000000000000000                                     N                     00598  0000000        000047
12012006058000121WEG TINTAS LTDA                                                       0000000023702727800000000001309 00000000878206060090225400000800016517203     201211202012090600000000055230000459992000000000459992000000000000000000000000000000050000000000  3020121120   01FS        1  R JUNO  533                                                                      3                         000000000000000                                     N                     00598  0000000        000048
12012006058000121WEG TINTAS LTDA                                                       0000000023702727800000000001309 00000000878206040090225400000780016517201     201210212012090600000000054930000459854000000000459854000000000000000000000000000000050000000000  3020121022   01FS        1  R JUNO  533                                                                      3                         000000000000000                                     N                     00598  0000000        000049
12012006058000121WEG TINTAS LTDA                                                       0000000023702727800000000001309 00000000841061120090218800000840014990202     201209032012070500000000054450000306569000000000309833000000000000000000000000003264050000000000  3020120911   01          2  R JUNO  533                                                                      3                         000000000000000                                     N                     00598  0000000        000050
12012006058000121WEG TINTAS LTDA                                                       0000000023702727800000000001309 00000000842436820090219200000840015068801     201208232012070900000000054340000306569000000000314321000000000000000000000000007752050000000000  3020120911   01          2  R JUNO  533                                                                      3                         000000000000000                                     N                     00598  0000000        000051
12012006058000121WEG TINTAS LTDA                                                       0000000023702727800000000001309 00000000842436830090219200000850015068802     201209072012070900000000054490000306569000000000308201000000000000000000000000001632050000000000  3020120911   01          2  R JUNO  533                                                                      3                         000000000000000                                     N                     00598  0000000        000052
12012006058000121WEG TINTAS LTDA                                                       0000000023702727800000000001309 00000000849855320090220500001200015343101     201209032012072000000000054450000306569000000000309833000000000000000000000000003264050000000000  3020120911   01          2  R JUNO  533                                                                      3                         000000000000000                                     N                     00598  0000000        000053
12012006058000121WEG TINTAS LTDA                                                       0000000023702727800000000001309 00000000844839230090219500000720015168702     201209102012071200000000054520000306569000000000306977000000000000000000000000000408050000000000  3020120911   01          2  R JUNO  533                                                                      3                         000000000000000                                     N                     00598  0000000        000054
12012006058000121WEG TINTAS LTDA                                                       0000000023702727800000000001309 00000000833069160090217700001090014685603     201209052012062200000000054470000459992000000000463670000000000000000000000000003678050000000000  3020120911   01          2  R JUNO  533                                                                      3                         000000000000000                                     N                     00598  0000000        000055
12012113201000184HYPER COMERCIO D N L LTDA                                             0000000034100000000000000000000000000000878205880000009000296850527221        201209132012081600000000054550000034578000000000034578000000000000000000000000000000050000000000  3020120913   01FS        1                                                                                   3109000296859056888568500049                                                  N                     01321  0000000        000056
12012931789000183RCM IMPORTADORA DE FERRAMENTAS                                        0000000000100000000000000000000000000000878205870000003023080004126           201210012012090300000000054730000043500000000000043500000000000000000000000000000000050000000000  3020121001   01FS        1                                                                                   3000000225937123243023081799                                                  N                     01321  0000000        000057
12012931789000183RCM IMPORTADORA DE FERRAMENTAS                                        0000000000100000000000000000000000000000878205470000003022340004038           201209252012082800000000054670000026100000000000026100000000000000000000000000000000050000000000  3020120925   01FS        1                                                                                   3000000225937123243022341779                                                  N                     01321  0000000        000058
12017469701000177ARCELORMITTAL BRASIL S A                                              0000000034100000000000000000000000000000848957300000009322721240012644703     201208242012071300000000054350000063789000000000063789000000000000000000000000000000050000000000  3020120824   06          3                                                                                   3109322721248293802529900079                                                  N                     01321  0000000        000059
12017469701000177ARCELORMITTAL BRASIL S A                                              0000000034100000000000000000000000000000856071210000009323310840012788102     201209142012073100000000054560000063787000000000063787000000000000000000000000000000050000000000  3020120914   01          2                                                                                   3109323310843293802529900049                                                  N                     01321  0000000        000060
12017469701000177ARCELORMITTAL BRASIL S A                                              0000000034100000000000000000000000000000856071220000009323310850012788103     201209212012073100000000054630000063789000000000063789000000000000000000000000000000050000000000  3020120921   01          2                                                                                   3109323310850293802529900099                                                  N                     01321  0000000        000061
12017469701000177ARCELORMITTAL BRASIL S A                                              0000000034100000000000000000000000000000848957350000009322737220015269003     201208272012071600000000054380000298529000000000298529000000000000000000000000000000050000000000  3020120827   05          3                                                                                   3109322737228293802529900049                                                  N                     01321  0000000        000062
12031895683000116BANCO INDUSTRIAL DO BRASIL S A                                        0000000023702374400000000144002 00000000862826150190222600002285776102        201209052012080800000000054470000065454000000000066504000000000000000000000000001050050000000000  3020120911   01          2  R JUNO 533                              OFFICE LEADER DIST E LOGISTICA LTDA      3                         005169626000140                                     N                     00598  0000000        000063
12033325184001786ALSCO TOALHEIRO BRASIL                                                0000000023703396000000001490850 0000000085771866009000028519503VM00285195     201209052012080300000000054470000026347000000000026503000000000000000000000000000156050000000000  3020120911   01          2  RUA  GANGES 528                                                                  3                         000000000000000                                     N                     00598  0000000        000064
12033325184001786ALSCO TOALHEIRO BRASIL                                                0000000023703396000000001490850 0000000087820607009000002716505VM27165        201209262012090600000000054680000045665000000000045665000000000000000000000000000000050000000000  3020120926   01FS        1  RUA  GANGES 528                                                                  3                         000000000000000                                     N                     00598  0000000        000065
12033325184001786ALSCO TOALHEIRO BRASIL                                                0000000023703396000000001490850 0000000086196030009000002679805VM26798        201208302012081000000000054410000052584000000000053220000000000000000000000000000636050000000000  3020120911   01          2  RUA  GANGES 528                                                                  3                         000000000000000                                     N                     00598  0000000        000066
12033325184001786ALSCO TOALHEIRO BRASIL                                                0000000023703396000000001490850 0000000087820608009000028814703VM00288147     201210052012090100000000054770000026347000000000026347000000000000000000000000000000050000000000  3020121005   01FS        1  RUA  GANGES 528                                                                  3                         000000000000000                                     N                     00598  0000000        000067
12035820448000136WHITE MARTINS GASES INDUSTRIAI                                        0000000023700026400000003937925 0000000085861656009022190000404361579 001     201208312012080400000000054420000162300000000000167922000000000000000000000000005622050000000000  3020120911   01          2  RUA GANGES  528                                                                  3                         000000000000000                                     N                     00598  0000000        000068
12035820448000136WHITE MARTINS GASES INDUSTRIAI                                        0000000023700026400000003937925 0000000087820600009022540001838377866 001     201210042012090700000000054760000202876000000000202876000000000000000000000000000000050000000000  3020121004   01FS        1  RUA GANGES  528                                                                  3                         000000000000000                                     N                     00598  0000000        000069
12035820448000136WHITE MARTINS GASES INDUSTRIAI                                        0000000023700026400000003937925 0000000085771861009022160000641360709 001     201208292012080300000000054400000162300000000000168354000000000000000000000000006054050000000000  3020120911   01          2  RUA GANGES  528                                                                  3                         000000000000000                                     N                     00598  0000000        000070
12035820448000136WHITE MARTINS GASES INDUSTRIAI                                        0000000023700026400000003937925 0000000086196029009022230001562364184 001     201209062012081000000000054480000113610000000000116637000000000000000000000000003027050000000000  3020120911   01          2  RUA GANGES  528                                                                  3                         000000000000000                                     N                     00598  0000000        000071
12035820448000136WHITE MARTINS GASES INDUSTRIAI                                        0000000023700026400000003937925 0000000085607119009022140004425360193 001     201208282012073100000000054390000081150000000000084285000000000000000000000000003135050000000000  3020120911   01          2  RUA GANGES  528                                                                  3                         000000000000000                                     N                     00598  0000000        000072
12035820448000136WHITE MARTINS GASES INDUSTRIAI                                        0000000023700026400000003937925 0000000086373165009022270006973365235 001     201209102012081400000000054520000017600000000000017975000000000000000000000000000375050000000000  3020120911   01          2  RUA GANGES  528                                                                  3                         000000000000000                                     N                     00598  0000000        000073
12042956441000101SOLUCOES ACO USIMINAS                                                 0000000034100000000000000000000000000000825740810000002106974480016399403     201208292012060600000000054400000431213000000000442419000000000000000000000000011206050000000000  3020120911   01          2                                                                                   3112106974481293807258000099                                                  N                     01321  0000000        000074
12042956441000101SOLUCOES ACO USIMINAS                                                 0000000034100000000000000000000000000000826558320000002112172760016459403     201209042012061100000000054460000747525000000000757990000000000000000000000000010465050000000000  3020120911   01          2                                                                                   3112112172765293807258000089                                                  N                     01321  0000000        000075
12042956441000101SOLUCOES EM ACO USIMINAS S A                                          000000000010000000000000000000000000000083562087000000087496000000167114002   201208212012062700000000054320000703010000000000704416000000000000000000000000002812050000000000  3020120822   05          3                                                                                   3000000169660100000874961719                                                  N                     01321  0000000        000076
12042956441000101SOLUCOES EM ACO USIMINAS S A                                          000000000010000000000000000000000000000083482052000000086559000000166827002   201208202012062600000000054310000577022000000000579330000000000000000000000000003462050000000000  3020120822   05          3                                                                                   3000000169660100000865591719                                                  N                     01321  0000000        000077
12042956441000101SOLUCOES ACO USIMINAS                                                 0000000034100000000000000000000000000000841725480000002188168560016884802     201208302012070500000000054410000120612000000000123504000000000000000000000000002892050000000000  3020120911   01          2                                                                                   3112188168564293807258000019                                                  N                     01321  0000000        000078
12042956441000101SOLUCOES ACO USIMINAS                                                 0000000034100000000000000000000000000000855028600000002254329300017202401     201208232012072600000000054340000244209000000000247137000000000000000000000000003416050000000000  3020120829   06          3                                                                                   3112254329306293807258000019                                                  N                     01321  0000000        000079
12042956441000101SOLUCOES ACO USIMINAS                                                 0000000034100000000000000000000000000000826558330000002112172770016459703     201209042012061100000000054460000500177000000000507177000000000000000000000000007000050000000000  3020120911   01          2                                                                                   3112112172773293807258000069                                                  N                     01321  0000000        000080
12042956441000101SOLUCOES ACO USIMINAS                                                 0000000034100000000000000000000000000000843180430000002194744350016902902     201208312012070600000000054420000179795000000000183755000000000000000000000000003960050000000000  3020120911   01          2                                                                                   3112194744358293807258000069                                                  N                     01321  0000000        000081
12042956441000101SOLUCOES ACO USIMINAS                                                 0000000034100000000000000000000000000000850740390000002233586920017127203     201210152012072000000000054870000137839000000000137839000000000000000000000000000000050000000000  3020121015   05          3                                                                                   3112233586927293807258000079                                                  N                     01321  0000000        000082
12042956441000101SOLUCOES ACO USIMINAS                                                 0000000034100000000000000000000000000000846595710000002210880290016980602     201209102012071200000000054520000426094000000000426946000000000000000000000000000852050000000000  3020120911   01          2                                                                                   3112210880293293807258000019                                                  N                     01321  0000000        000083
12042956441000101SOLUCOES ACO USIMINAS                                                 0000000034100000000000000000000000000000818681090000002074813200016190303     201208202012052800000000054310000449705000000000456897000000000000000000000000008091050000000000  3020120828   06          3                                                                                   3112074813208293807258000049                                                  N                     01321  0000000        000084
12042956441000101SOLUCOES ACO USIMINAS                                                 0000000034100000000000000000000000000000836417900000002164218360016738102     201208222012062700000000054330000830173000000000838473000000000000000000000000009960050000000000  3020120827   06          3                                                                                   3112164218367293807258000059                                                  N                     01321  0000000        000085
12042956441000101SOLUCOES ACO USIMINAS                                                 0000000034100000000000000000000000000000841725520000002188168600016891402     201208302012070500000000054410000795232000000000814312000000000000000000000000019080050000000000  3020120911   01          2                                                                                   3112188168606293807258000019                                                  N                     01321  0000000        000086
12042956441000101SOLUCOES ACO USIMINAS                                                 0000000034100000000000000000000000000000818681040000002074813160016189503     201208202012052800000000054310000570858000000000579994000000000000000000000000010278050000000000  3020120828   06          3                                                                                   3112074813166293807258000039                                                  N                     01321  0000000        000087
12042956441000101SOLUCOES ACO USIMINAS                                                 0000000034100000000000000000000000000000841725490000002188168570016884902     201208302012070500000000054410000531835000000000544603000000000000000000000000012768050000000000  3020120911   01          2                                                                                   3112188168572293807258000019                                                  N                     01321  0000000        000088
12042956441000101SOLUCOES ACO USIMINAS                                                 0000000034100000000000000000000000000000841725530000002188168610016891502     201208302012070500000000054410001128343000000001155427000000000000000000000000027084050000000000  3020120911   01          2                                                                                   3112188168614293807258000089                                                  N                     01321  0000000        000089
12042956441000101SOLUCOES ACO USIMINAS                                                 0000000034100000000000000000000000000000853154890000002246246990017196601     201208232012072500000000054340000805049000000000814709000000000000000000000000011270050000000000  3020120829   06          3                                                                                   3112246246998293807258000059                                                  N                     01321  0000000        000090
12042956441000101SOLUCOES ACO USIMINAS                                                 0000000034100000000000000000000000000000841725500000002188168580016885102     201208302012070500000000054410000219722000000000224990000000000000000000000000005268050000000000  3020120911   01          2                                                                                   3112188168580293807258000049                                                  N                     01321  0000000        000091
12042956441000101SOLUCOES ACO USIMINAS                                                 0000000034100000000000000000000000000000846595700000002210880280016980502     201209102012071200000000054520000156071000000000156383000000000000000000000000000312050000000000  3020120911   01          2                                                                                   3112210880285293807258000039                                                  N                     01321  0000000        000092
12042956441000101SOLUCOES ACO USIMINAS                                                 0000000034100000000000000000000000000000850740430000002233586770017126901     201208202012072000000000054310000208455000000000211791000000000000000000000000003753050000000000  3020120828   06          3                                                                                   3112233586778293807258000039                                                  N                     01321  0000000        000093
12042956441000101SOLUCOES ACO USIMINAS                                                 0000000034100000000000000000000000000000826558340000002112172780016459803     201209042012061100000000054460000155721000000000157898000000000000000000000000002177050000000000  3020120911   01          2                                                                                   3112112172781293807258000099                                                  N                     01321  0000000        000094
12042956441000101SOLUCOES EM ACO USIMINAS S A                                          000000000010000000000000000000000000000083482058000000086565000000166829002   201208202012062600000000054310000125200000000000125700000000000000000000000000000750050000000000  3020120822   05          3                                                                                   3000000169660100000865651779                                                  N                     01321  0000000        000095
12042956441000101SOLUCOES ACO USIMINAS                                                 0000000034100000000000000000000000000000818681070000002074813190016190203     201208202012052800000000054310000723515000000000735091000000000000000000000000013023050000000000  3020120828   06          3                                                                                   3112074813190293807258000079                                                  N                     01321  0000000        000096
12042956441000101SOLUCOES ACO USIMINAS                                                 0000000034100000000000000000000000000000824061850000002100925420016380503     201208292012060500000000054400000215523000000000221126000000000000000000000000005603050000000000  3020120911   01          2                                                                                   3112100925422293807258000039                                                  N                     01321  0000000        000097
12042956441000101SOLUCOES ACO USIMINAS                                                 0000000034100000000000000000000000000000826558360000002112172750016459203     201209042012061100000000054460000123455000000000125184000000000000000000000000001729050000000000  3020120911   01          2                                                                                   3112112172757293807258000049                                                  N                     01321  0000000        000098
12042956441000101SOLUCOES ACO USIMINAS                                                 0000000034100000000000000000000000000000853154920000002246247010017197301     201208232012072500000000054340000970394000000000982040000000000000000000000000013587050000000000  3020120829   06          3                                                                                   3112246247012293807258000019                                                  N                     01321  0000000        000099
12042956441000101SOLUCOES EM ACO USIMINAS S A                                          000000000010000000000000000000000000000082978008000000080344000000057592003   201209102012061800000000054520001055670000000001057781000000000000000000000000002111050000000000  3020120911   01          2                                                                                   3000000169660100000803441719                                                  N                     01321  0000000        000100
12042956441000101SOLUCOES ACO USIMINAS                                                 0000000034100000000000000000000000000000818681050000002074813170016189703     201208202012052800000000054310000245667000000000249595000000000000000000000000004419050000000000  3020120828   06          3                                                                                   3112074813174293807258000019                                                  N                     01321  0000000        000101
12042956441000101SOLUCOES ACO USIMINAS                                                 0000000034100000000000000000000000000000841725510000002188168590016891202     201208302012070500000000054410001132543000000001159723000000000000000000000000027180050000000000  3020120911   01          2                                                                                   3112188168598293807258000019                                                  N                     01321  0000000        000102
12042956441000101SOLUCOES EM ACO USIMINAS S A                                          000000000010000000000000000000000000000083482055000000086562000000166828002   201208202012062600000000054310000325383000000000326685000000000000000000000000001953050000000000  3020120822   05          3                                                                                   3000000169660100000865621719                                                  N                     01321  0000000        000103
12042956441000101SOLUCOES ACO USIMINAS                                                 0000000034100000000000000000000000000000818681060000002074813180016190003     201208202012052800000000054310000339714000000000345146000000000000000000000000006111050000000000  3020120828   06          3                                                                                   3112074813182293807258000059                                                  N                     01321  0000000        000104
12042956441000101SOLUCOES ACO USIMINAS                                                 0000000034100000000000000000000000000000850740410000002233586750017101001     201208172012071900000000054280000732795000000000748921000000000000000000000000017592050000000000  3020120828   06          3                                                                                   3112233586752293807258000099                                                  N                     01321  0000000        000105
12042956441000101SOLUCOES ACO USIMINAS                                                 0000000034100000000000000000000000000000824061860000002100925430016380703     201208292012060500000000054400000216699000000000222328000000000000000000000000005629050000000000  3020120911   01          2                                                                                   3112100925430293807258000079                                                  N                     01321  0000000        000106
12042956441000101SOLUCOES ACO USIMINAS                                                 0000000034100000000000000000000000000000858616290000002271409670017315101     201208302012080200000000054410000579548000000000593456000000000000000000000000013908050000000000  3020120911   01          2                                                                                   3112271409677293807258000099                                                  N                     01321  0000000        000107
12042956441000101SOLUCOES ACO USIMINAS                                                 0000000034100000000000000000000000000000855028660000002254329280017200301     201208232012072600000000054340000156943000000000162909000000000000000000000000005966050000000000  3020120911   01          2                                                                                   3112254329280293807258000019                                                  N                     01321  0000000        000108
12042956441000101SOLUCOES ACO USIMINAS                                                 0000000034100000000000000000000000000000853154910000002246247000017196701     201208232012072500000000054340000234911000000000243841000000000000000000000000008930050000000000  3020120911   01          2                                                                                   3112246247004293807258000019                                                  N                     01321  0000000        000109
12042956441000101SOLUCOES ACO USIMINAS                                                 0000000034100000000000000000000000000000819544980000002078930810016228203     201208212012052900000000054320000169598000000000171971000000000000000000000000002712050000000000  3020120828   06          3                                                                                   3112078930818293807258000099                                                  N                     01321  0000000        000110
12042956441000101SOLUCOES ACO USIMINAS                                                 0000000034100000000000000000000000000000855028650000002254329270017200201     201208232012072600000000054340000680589000000000688755000000000000000000000000009527050000000000  3020120829   06          3                                                                                   3112254329272293807258000099                                                  N                     01321  0000000        000111
12042956441000101SOLUCOES ACO USIMINAS                                                 0000000034100000000000000000000000000000850740420000002233586760017101201     201208172012071900000000054280000144677000000000147856000000000000000000000000003468050000000000  3020120828   06          3                                                                                   3112233586760293807258000079                                                  N                     01321  0000000        000112
12042956441000101SOLUCOES ACO USIMINAS                                                 0000000034100000000000000000000000000000858616320000002271409680017316001     201208302012080200000000054410000929730000000000952038000000000000000000000000022308050000000000  3020120911   01          2                                                                                   3112271409685293807258000039                                                  N                     01321  0000000        000113
12042956441000101SOLUCOES ACO USIMINAS                                                 0000000034100000000000000000000000000000858616380000002271409740017319801     201208302012080200000000054410000194583000000000199251000000000000000000000000004668050000000000  3020120911   01          2                                                                                   3112271409743293807258000019                                                  N                     01321  0000000        000114
12042956441000101SOLUCOES ACO USIMINAS                                                 0000000034100000000000000000000000000000858616360000002271409720017319601     201208302012080200000000054410000197103000000000201831000000000000000000000000004728050000000000  3020120911   01          2                                                                                   3112271409727293807258000019                                                  N                     01321  0000000        000115
12042956441000101SOLUCOES EM ACO USIMINAS S A                                          000000000010000000000000000000000000000082978011000000080476000000057680003   201209102012061800000000054520000431770000000000432634000000000000000000000000000864050000000000  3020120911   01          2                                                                                   3000000169660100000804761729                                                  N                     01321  0000000        000116
12042956441000101SOLUCOES ACO USIMINAS                                                 0000000034100000000000000000000000000000858616330000002271409690017319301     201208302012080200000000054410000981820000000001005388000000000000000000000000023568050000000000  3020120911   01          2                                                                                   3112271409693293807258000039                                                  N                     01321  0000000        000117
12042956441000101SOLUCOES ACO USIMINAS                                                 0000000034100000000000000000000000000000840313030000002181699200016827102     201208272012070200000000054380000703010000000000724100000000000000000000000000021090050000000000  3020120911   01          2                                                                                   3112181699201293807258000019                                                  N                     01321  0000000        000118
12042956441000101SOLUCOES ACO USIMINAS                                                 0000000034100000000000000000000000000000861207220000002282166980017385801     201209042012080700000000054460000715010000000000725020000000000000000000000000010010050000000000  3020120911   01          2                                                                                   3112282166985293807258000089                                                  N                     01321  0000000        000119
12042956441000101SOLUCOES EM ACO USIMINAS S A                                          000000000010000000000000000000000000000083482041000000086550000000166814002   201208202012062600000000054310000317656000000000318926000000000000000000000000001905050000000000  3020120822   05          3                                                                                   3000000169660100000865501789                                                  N                     01321  0000000        000120
12042956441000101SOLUCOES ACO USIMINAS                                                 0000000034100000000000000000000000000000819545000000002078930820016228303     201208212012052900000000054320000577774000000000585866000000000000000000000000009248050000000000  3020120828   06          3                                                                                   3112078930826293807258000099                                                  N                     01321  0000000        000121
12042956441000101SOLUCOES ACO USIMINAS                                                 0000000034100000000000000000000000000000859590600000002274469770017353701     201208312012080300000000054420000081077000000000082859000000000000000000000000001782050000000000  3020120911   01          2                                                                                   3112274469777293807258000049                                                  N                     01321  0000000        000122
12042956441000101SOLUCOES ACO USIMINAS                                                 0000000034100000000000000000000000000000856906410000002262886280017266201     201208282012073000000000054390000119472000000000122818000000000000000000000000003346050000000000  3020120911   01          2                                                                                   3112262886289293807258000089                                                  N                     01321  0000000        000123
12042956441000101SOLUCOES ACO USIMINAS                                                 0000000034100000000000000000000000000000840313060000002181699210016829702     201208272012070200000000054380000643712000000000663017000000000000000000000000019305050000000000  3020120911   01          2                                                                                   3112181699219293807258000089                                                  N                     01321  0000000        000124
12042956441000101SOLUCOES ACO USIMINAS                                                 0000000034100000000000000000000000000000858616340000002271409700017319401     201208302012080200000000054410000178956000000000183252000000000000000000000000004296050000000000  3020120911   01          2                                                                                   3112271409701293807258000089                                                  N                     01321  0000000        000125
12042956441000101SOLUCOES ACO USIMINAS                                                 0000000034100000000000000000000000000000847452070000002216130350005922202     201209102012071600000000054520000172071000000000172415000000000000000000000000000344050000000000  3020120911   01          2                                                                                   3112216130354293807258000049                                                  N                     01321  0000000        000126
12042956441000101SOLUCOES EM ACO USIMINAS S A                                          000000000010000000000000000000000000000082978017000000081232000000165560003   201209102012061800000000054520000341008000000000341690000000000000000000000000000682050000000000  3020120911   01          2                                                                                   3000000169660100000812321769                                                  N                     01321  0000000        000127
12042956441000101SOLUCOES ACO USIMINAS                                                 0000000034100000000000000000000000000000819545010000002078930830016228403     201208212012052900000000054320000188456000000000191095000000000000000000000000003016050000000000  3020120828   06          3                                                                                   3112078930834293807258000079                                                  N                     01321  0000000        000128
12042956441000101SOLUCOES EM ACO USIMINAS S A                                          000000000010000000000000000000000000000083482043000000086544000000166812002   201208202012062600000000054310000608954000000000611390000000000000000000000000003654050000000000  3020120822   05          3                                                                                   3000000169660100000865441799                                                  N                     01321  0000000        000129
12042956441000101SOLUCOES ACO USIMINAS                                                 0000000034100000000000000000000000000000850740440000002233586780017127001     201208202012072000000000054310000190485000000000193533000000000000000000000000003429050000000000  3020120828   06          3                                                                                   3112233586786293807258000019                                                  N                     01321  0000000        000130
12042956441000101SOLUCOES ACO USIMINAS                                                 0000000034100000000000000000000000000000840313070000002181699220016829802     201208272012070200000000054380000322528000000000332203000000000000000000000000009675050000000000  3020120911   01          2                                                                                   3112181699227293807258000029                                                  N                     01321  0000000        000131
12042956441000101SOLUCOES ACO USIMINAS                                                 0000000034100000000000000000000000000000859590610000002274469780017353801     201208312012080300000000054420000167048000000000170722000000000000000000000000003674050000000000  3020120911   01          2                                                                                   3112274469785293807258000019                                                  N                     01321  0000000        000132
12042956441000101SOLUCOES ACO USIMINAS                                                 0000000034100000000000000000000000000000850740450000002233586790017127101     201208202012072000000000054310000167777000000000170465000000000000000000000000003024050000000000  3020120828   06          3                                                                                   3112233586794293807258000029                                                  N                     01321  0000000        000133
12042956441000101SOLUCOES ACO USIMINAS                                                 0000000034100000000000000000000000000000847452100000002216130340017012402     201209102012071500000000054520000147428000000000147723000000000000000000000000000295050000000000  3020120911   01          2                                                                                   3112216130347293807258000059                                                  N                     01321  0000000        000134
12042956441000101SOLUCOES ACO USIMINAS                                                 0000000034100000000000000000000000000000826558270000002112172740016458803     201209042012061100000000054460000231416000000000234657000000000000000000000000003241050000000000  3020120911   01          2                                                                                   3112112172740293807258000059                                                  N                     01321  0000000        000135
12042956441000101SOLUCOES ACO USIMINAS                                                 0000000034100000000000000000000000000000858616350000002271409710017319501     201208302012080200000000054410000197439000000000202179000000000000000000000000004740050000000000  3020120911   01          2                                                                                   3112271409719293807258000049                                                  N                     01321  0000000        000136
12042956441000101SOLUCOES ACO USIMINAS                                                 0000000034100000000000000000000000000000856906420000002262886290017266301     201208282012073000000000054390000145069000000000149129000000000000000000000000004060050000000000  3020120911   01          2                                                                                   3112262886297293807258000099                                                  N                     01321  0000000        000137
12042956441000101SOLUCOES EM ACO USIMINAS S A                                          000000000010000000000000000000000000000083482046000000086547000000166813002   201208202012062600000000054310000391569000000000393135000000000000000000000000002349050000000000  3020120822   05          3                                                                                   3000000169660100000865471719                                                  N                     01321  0000000        000138
12042956441000101SOLUCOES ACO USIMINAS                                                 0000000034100000000000000000000000000000841725460000002188168540016859402     201208292012070400000000054400000164456000000000168733000000000000000000000000004277050000000000  3020120911   01          2                                                                                   3112188168549293807258000059                                                  N                     01321  0000000        000139
12042956441000101SOLUCOES ACO USIMINAS                                                 0000000034100000000000000000000000000000850740520000002233586860017127202     201209172012072000000000054590000137840000000000137840000000000000000000000000000000050000000000  3020120917   05          3                                                                                   3112233586869293807258000019                                                  N                     01321  0000000        000140
12042956441000101SOLUCOES ACO USIMINAS                                                 0000000034100000000000000000000000000000840313020000002181699190016814402     201208272012070200000000054380000968423000000000997478000000000000000000000000029055050000000000  3020120911   01          2                                                                                   3112181699193293807258000019                                                  N                     01321  0000000        000141
12042956441000101SOLUCOES ACO USIMINAS                                                 0000000034100000000000000000000000000000825740800000002106974470016399203     201208292012060600000000054400000450363000000000462076000000000000000000000000011713050000000000  3020120911   01          2                                                                                   3112106974473293807258000039                                                  N                     01321  0000000        000142
12042956441000101SOLUCOES ACO USIMINAS                                                 0000000034100000000000000000000000000000844063830000002198870030016923302     201209042012071000000000054460000442972000000000449174000000000000000000000000006202050000000000  3020120911   01          2                                                                                   3112198870035293807258000059                                                  N                     01321  0000000        000143
12042956441000101SOLUCOES EM ACO USIMINAS S A                                          000000000010000000000000000000000000000083562090000000087499000000167115002   201208212012062700000000054320000240662000000000241143000000000000000000000000000962050000000000  3020120822   05          3                                                                                   3000000169660100000874991759                                                  N                     01321  0000000        000144
12042956441000101SOLUCOES ACO USIMINAS                                                 0000000034100000000000000000000000000000858616370000002271409730017319701     201208302012080200000000054410000197271000000000202011000000000000000000000000004740050000000000  3020120911   01          2                                                                                   3112271409735293807258000019                                                  N                     01321  0000000        000145
12042956441000101SOLUCOES ACO USIMINAS                                                 0000000034100000000000000000000000000000850740460000002233586800017127201     201208202012072000000000054310000137881000000000143953000000000000000000000000006072050000000000  3020120911   01          2                                                                                   3112233586802293807258000019                                                  N                     01321  0000000        000146
12042956441000101SOLUCOES EM ACO USIMINAS S A                                          000000000010000000000000000000000000000083562084000000087493000000167113002   201208212012062700000000054320000698474000000000699871000000000000000000000000002794050000000000  3020120822   05          3                                                                                   3000000169660100000874931729                                                  N                     01321  0000000        000147
12042956441000101SOLUCOES ACO USIMINAS                                                 0000000034100000000000000000000000000000841725470000002188168550016859502     201208292012070400000000054400000234337000000000240434000000000000000000000000006097050000000000  3020120911   01          2                                                                                   3112188168556293807258000089                                                  N                     01321  0000000        000148
12042956441000101SOLUCOES ACO USIMINAS                                                 0000000034100000000000000000000000000000825740790000002106974460016399003     201208292012060600000000054400000203068000000000208346000000000000000000000000005278050000000000  3020120911   01          2                                                                                   3112106974465293807258000089                                                  N                     01321  0000000        000149
12042956441000101SOLUCOES EM ACO USIMINAS S A                                          000000000010000000000000000000000000000083482049000000086553000000166815002   201208202012062600000000054310000649087000000000651683000000000000000000000000003894050000000000  3020120822   05          3                                                                                   3000000169660100000865531799                                                  N                     01321  0000000        000150
12042956441000101SOLUCOES ACO USIMINAS                                                 0000000034100000000000000000000000000000855028590000002254329290017200401     201208232012072600000000054340000163273000000000165235000000000000000000000000002289050000000000  3020120829   06          3                                                                                   3112254329298293807258000029                                                  N                     01321  0000000        000151
12042956441000101SOLUCOES ACO USIMINAS                                                 0000000034100000000000000000000000000000819545020000002078930840016239503     201208222012052900000000054330001126072000000001171112000000000000000000000000045040050000000000  3020120911   01          2                                                                                   3112078930842293807258000019                                                  N                     01321  0000000        000152
12043217850000159IOB INFORMACOES OBJ  PUBL JURI                                        0000000023702374400000002958600 000000008540495200902212000099001440820E4     201208202012073000000000054310000072850000000000074835000000000000000000000000001985050000000000  3020120911   01          2  GANGES 528 VL NOVA MANCHESTER                                                    3                         000000000000000                                     N                     00598  0000000        000153
12044098788000196MAIAMI COM E IMP DE ROLAMENTOS                                        0000000023700503700000000367516 0000000086699211009022330000001010061         201209072012081700000000054490000015000000000000015200000000000000000000000000000200050000000000  3020120911   01          2  RUA GANGES 528 VL CARRAO                                                         3                         000000000000000                                     N                     00598  0000000        000154
12047190731000100DE CASTRO LOUREIRO ENGENHARIA                                         00000000033000000000000000000000000000008782053500000070000000003026669 0     201210192012082400000000054910000867738000000000867738000000000000000000000000000000050000000000  3020121019   01FS        1                                                                                   3948430370000009552570020349                                                  N                     01321  0000000        000155
12047190731000100DE CASTRO LOUR ENG IND LTDA                                           00000000341000000000000000000000000000008782052300000023399955503026632 0     201211142012082200000000055170000952358000000000952358000000000000000000000000000000050000000000  3020121114   01FS        1                                                                                   3112339995550036884500400029                                                  N                     01321  0000000        000156
12047190731000100DE CASTRO LOUR ENG IND LTDA                                           00000000341000000000000000000000000000008782059500000023602714703026734 0     201210232012082800000000054950000997834000000000997834000000000000000000000000000000050000000000  3020121023   01FS        1                                                                                   3112360271475036884500400019                                                  N                     01321  0000000        000157
12047190731000100DE CASTRO LOUR ENG IND LTDA                                           00000000341000000000000000000000000000008782051500000023399953603026612 0     201210162012082100000000054880001111489000000001111489000000000000000000000000000000050000000000  3020121016   01FS        1                                                                                   3112339995360036884500400089                                                  N                     01321  0000000        000158
12047190731000100DE CASTRO LOUREIRO ENGENHARIA                                         00000000033000000000000000000000000000008782053600000088000000003026669 0     201211162012082400000000055190000867999000000000867999000000000000000000000000000000050000000000  3020121116   01FS        1                                                                                   3948430370000009552588020319                                                  N                     01321  0000000        000159
12047190731000100DE CASTRO LOUR ENG IND LTDA                                           00000000341000000000000000000000000000008782052400000023399956003026643 0     201210182012082300000000054900000867039000000000867039000000000000000000000000000000050000000000  3020121018   01FS        1                                                                                   3112339995600036884500400079                                                  N                     01321  0000000        000160
12047190731000100DE CASTRO LOUR ENG IND LTDA                                           00000000341000000000000000000000000000008782051600000023399954103026614 0     201209182012082100000000054600001047621000000001047621000000000000000000000000000000050000000000  3020120918   01FS        1                                                                                   3112339995410036884500400039                                                  N                     01321  0000000        000161
12047190731000100DE CASTRO LOUR ENG IND LTDA                                           00000000341000000000000000000000000000008782051400000023399954003026613 0     201211132012082100000000055160001108322000000001108322000000000000000000000000000000050000000000  3020121113   01FS        1                                                                                   3112339995402036884500400059                                                  N                     01321  0000000        000162
12047190731000100DE CASTRO LOUREIRO ENGENHARIA                                         00000000033000000000000000000000000000008782053700000061000000003026669 0     201209212012082400000000054630000867738000000000867738000000000000000000000000000000050000000000  3020120921   01FS        1                                                                                   3948430370000009552561020329                                                  N                     01321  0000000        000163
12047190731000100DE CASTRO LOUR ENG IND LTDA                                           00000000341000000000000000000000000000008782051000000023399953703026612 0     201211132012082100000000055160001111822000000001111822000000000000000000000000000000050000000000  3020121113   01FS        1                                                                                   3112339995378036884500400039                                                  N                     01321  0000000        000164
12047190731000100DE CASTRO LOUR ENG IND LTDA                                           00000000341000000000000000000000000000008782058900000023602714603026734 0     201209252012082800000000054670000997834000000000997834000000000000000000000000000000050000000000  3020120925   01FS        1                                                                                   3112360271467036884500400039                                                  N                     01321  0000000        000165
12047190731000100DE CASTRO LOUR ENG IND LTDA                                           00000000341000000000000000000000000000008782050900000023399953503026612 0     201209182012082100000000054600001111489000000001111489000000000000000000000000000000050000000000  3020120918   01FS        1                                                                                   3112339995352036884500400019                                                  N                     01321  0000000        000166
12047190731000100DE CASTRO LOUR ENG IND LTDA                                           00000000341000000000000000000000000000008782052700000023399956203026648 0     201209202012082300000000054620000976053000000000976053000000000000000000000000000000050000000000  3020120920   01FS        1                                                                                   3112339995626036884500400029                                                  N                     01321  0000000        000167
12047190731000100DE CASTRO LOUR ENG IND LTDA                                           00000000341000000000000000000000000000008782051100000023399954303026614 0     201211132012082100000000055160001047933000000001047933000000000000000000000000000000050000000000  3020121113   01FS        1                                                                                   3112339995436036884500400019                                                  N                     01321  0000000        000168
12047190731000100DE CASTRO LOUR ENG IND LTDA                                           00000000341000000000000000000000000000008782052800000023399956303026648 0     201210182012082300000000054900000976053000000000976053000000000000000000000000000000050000000000  3020121018   01FS        1                                                                                   3112339995634036884500400019                                                  N                     01321  0000000        000169
12047190731000100DE CASTRO LOUR ENG IND LTDA                                           00000000341000000000000000000000000000008782059200000023602715103026744 0     201211222012082900000000055250000146636000000000146636000000000000000000000000000000050000000000  3020121122   01FS        1                                                                                   3112360271517036884500400059                                                  N                     01321  0000000        000170
12047190731000100DE CASTRO LOUR ENG IND LTDA                                           00000000341000000000000000000000000000008782052500000023399955603026636 0     201209192012082200000000054610000940804000000000940804000000000000000000000000000000050000000000  3020120919   01FS        1                                                                                   3112339995568036884500400049                                                  N                     01321  0000000        000171
12047190731000100DE CASTRO LOUR ENG IND LTDA                                           00000000341000000000000000000000000000008782051700000023399954203026614 0     201210162012082100000000054880001047621000000001047621000000000000000000000000000000050000000000  3020121016   01FS        1                                                                                   3112339995428036884500400089                                                  N                     01321  0000000        000172
12047190731000100DE CASTRO LOUR ENG IND LTDA                                           00000000341000000000000000000000000000008782059700000023602715403026745 0     201211212012082900000000055240000903448000000000903448000000000000000000000000000000050000000000  3020121121   01FS        1                                                                                   3112360271541036884500400019                                                  N                     01321  0000000        000173
12047190731000100DE CASTRO LOUREIRO E I C LTDA                                         00000000422000000000000000000000000000008403132500000000000000003025894 0     201208232012070300000000054340000255760000000000255760000000000000000000000000000000050000000000  3020120823   06          3                                                                                   3709700002021396491400250119                                                  N                     01321  0000000        000174
12047190731000100DE CASTRO LOUR ENG IND LTDA                                           00000000341000000000000000000000000000008782059300000023602715203026745 0     201209262012082900000000054680000903175000000000903175000000000000000000000000000000050000000000  3020120926   01FS        1                                                                                   3112360271525036884500400069                                                  N                     01321  0000000        000175
12047190731000100DE CASTRO LOUR ENG IND LTDA                                           00000000341000000000000000000000000000008782059600000023602714803026734 0     201211202012082800000000055230000998134000000000998134000000000000000000000000000000050000000000  3020121120   01FS        1                                                                                   3112360271483036884500400049                                                  N                     01321  0000000        000176
12047190731000100DE CASTRO LOUR ENG IND LTDA                                           00000000341000000000000000000000000000008782051800000023399955703026636 0     201210172012082200000000054890000940804000000000940804000000000000000000000000000000050000000000  3020121017   01FS        1                                                                                   3112339995576036884500400029                                                  N                     01321  0000000        000177
12047190731000100DE CASTRO LOUR ENG IND LTDA                                           00000000341000000000000000000000000000008782052900000023399956403026648 0     201211152012082300000000055180000976344000000000976344000000000000000000000000000000050000000000  3020121116   01FS        1                                                                                   3112339995642036884500400049                                                  N                     01321  0000000        000178
12047190731000100DE CASTRO LOUR ENG IND LTDA                                           00000000341000000000000000000000000000008782051900000023399955803026636 0     201211142012082200000000055170000941086000000000941086000000000000000000000000000000050000000000  3020121114   01FS        1                                                                                   3112339995584036884500400059                                                  N                     01321  0000000        000179
12047190731000100DE CASTRO LOUR ENG IND LTDA                                           00000000341000000000000000000000000000008782059800000023602714903026744 0     201209272012082900000000054690000146594000000000146594000000000000000000000000000000050000000000  3020120927   01FS        1                                                                                   3112360271491036884500400089                                                  N                     01321  0000000        000180
12047190731000100DE CASTRO LOUR ENG IND LTDA                                           00000000341000000000000000000000000000008782052000000023399955303026632 0     201209192012082200000000054610000952073000000000952073000000000000000000000000000000050000000000  3020120919   01FS        1                                                                                   3112339995535036884500400019                                                  N                     01321  0000000        000181
12047190731000100DE CASTRO LOUR ENG IND LTDA                                           00000000341000000000000000000000000000008782059900000023602715003026744 0     201210252012082900000000054970000146594000000000146594000000000000000000000000000000050000000000  3020121025   01FS        1                                                                                   3112360271509036884500400079                                                  N                     01321  0000000        000182
12047190731000100DE CASTRO LOUR ENG IND LTDA                                           00000000341000000000000000000000000000008782052100000023399955903026643 0     201209202012082300000000054620000867039000000000867039000000000000000000000000000000050000000000  3020120920   01FS        1                                                                                   3112339995592036884500400049                                                  N                     01321  0000000        000183
12047190731000100DE CASTRO LOUR ENG IND LTDA                                           00000000341000000000000000000000000000008782051200000023399953803026613 0     201209182012082100000000054600001107989000000001107989000000000000000000000000000000050000000000  3020120918   01FS        1                                                                                   3112339995386036884500400039                                                  N                     01321  0000000        000184
12047190731000100DE CASTRO LOUR ENG IND LTDA                                           00000000341000000000000000000000000000008782053300000023399956103026643 0     201211152012082300000000055180000867297000000000867297000000000000000000000000000000050000000000  3020121116   01FS        1                                                                                   3112339995618036884500400049                                                  N                     01321  0000000        000185
12047190731000100DE CASTRO LOUR ENG IND LTDA                                           00000000341000000000000000000000000000008782059400000023602715303026745 0     201210242012082900000000054960000903175000000000903175000000000000000000000000000000050000000000  3020121024   01FS        1                                                                                   3112360271533036884500400049                                                  N                     01321  0000000        000186
12047190731000100DE CASTRO LOUR ENG IND LTDA                                           00000000341000000000000000000000000000008782052200000023399955403026632 0     201210172012082200000000054890000952073000000000952073000000000000000000000000000000050000000000  3020121017   01FS        1                                                                                   3112339995543036884500400019                                                  N                     01321  0000000        000187
12047190731000100DE CASTRO LOUR ENG IND LTDA                                           00000000341000000000000000000000000000008782051300000023399953903026613 0     201210162012082100000000054880001107989000000001107989000000000000000000000000000000050000000000  3020121016   01FS        1                                                                                   3112339995394036884500400019                                                  N                     01321  0000000        000188
12048775225000146SEIKI IND COM E CONFECCOES LTD                                        000000003410000000000000000000000000000087820591000000235780573014311001      201209282012083100000000054700000052000000000000052000000000000000000000000000000000050000000000  3020120928   01FS        1                                                                                   3112357805731017444824100069                                                  N                     01321  0000000        000189
12048775225000146SEIKI IND COM E CONFECCOES LTD                                        000000003410000000000000000000000000000085959065000000227267305013669001      201208282012073100000000054390000052000000000000052078000000000000000000000000000156050000000000  3020120829   06          3                                                                                   3112272673057017444824100019                                                  N                     01321  0000000        000190
12051180370000199IGUAFER FERRO E ACO LTDA                                              0000000034100000000000000000000000000000856071170000002257772109489 A         201208282012073100000000054390000124391000000000124598000000000000000000000000000414050000000000  3020120829   05          3                                                                                   3112257772106077149484600029                                                  N                     01321  0000000        000191
12051180370000199IGUAFER FERRO E ACO LTDA                                              0000000034100000000000000000000000000000856071180000002257772119489 A         201209112012073100000000054530000115396000000000115396000000000000000000000000000000050000000000  3020120911   05          3                                                                                   3112257772114077149484600019                                                  N                     01321  0000000        000192
12051180370000199IGUAFER FERRO E ACO LTDA                                              0000000034100000000000000000000000000000852309090000002239389779443 A         201208232012071800000000054340000201933000000000203955000000000000000000000000002359050000000000  3020120829   06          3                                                                                   3112239389771077149484600099                                                  N                     01321  0000000        000193
12051180370000199IGUAFER FERRO E ACO LTDA                                              0000000034100000000000000000000000000000852309100000002239389789443 B         201209022012071800000000054440000168275000000000170795000000000000000000000000002520050000000000  3020120911   01          2                                                                                   3112239389789077149484600089                                                  N                     01321  0000000        000194
12051598472000129ELETRICA J SANTOS                                                     0000000023702451100000000000264 000000008523092000902208000004017933 03       201209052012072500000000054470000112771000000000115027000000000000000000000000002256050000000000  3020120911   01          2  R JUNO  533                                                                      3                         000000000000000                                     N                     00598  0000000        000195
12051598472000129ELETRICA J SANTOS                                                     0000000023702451100000000000264 000000008586165500902219000005118310 01       201209102012080400000000054520000104146000000000104493000000000000000000000000000347050000000000  3020120911   01          2  R JUNO  533                                                                      300000000000000000141500  000000000000000                                     N                     00598  0000000        000196
12053585766000141MULTIACOS I C PRODS TEC LTDA                                          0000000042200000000000000000000000000000878205800000000000000000004391503     201209252012082800000000054670000319418000000000319418000000000000000000000000000000050000000000  3020120925   01FS        1                                                                                   3711500005033164917492692119                                                  N                     01321  0000000        000197
12053585766000141MULTIACOS INDUSTRIA E COMERCIO                                        0000000000100000000000000000000000000000878205490000006553470000004375103     201209202012082800000000054620000484407000000000484407000000000000000000000000000000050000000000  3020120920   01FS        1                                                                                   3044016553471912000139523149                                                  N                     01321  0000000        000198
12053585766000141MULTIACOS INDUSTRIA E COMERCIO                                        0000000000100000000000000000000000000000878205440000006553860000004437802     201209192012082800000000054610000435925000000000435925000000000000000000000000000000050000000000  3020120919   01FS        1                                                                                   3044016553861912000139523159                                                  N                     01321  0000000        000199
