0000147602043799295000110ALTAMIRA INDUSTRIA METALURGICA LT       202000000010320120811061317             1                                                                                                                                                                                                                                                                                                                                                                                                    000001
12000193273000108TECELAGEM ROMA LTDA                                                   0000000023700284400000000410977 000000008374605200900000001581216213   C      201208102012062900000000054210000124248000000000125367000000000000000000000000001119050000000000  3020120813   01          2  RUA TAMAINDE 1410  1410                                                          3                         000000000000000                                     N                     00598  0000000        000002
12001162151000109SUKIRA COM DE IMP E EXP LTDA                                          000000003410000000000000000000000000000084318041000000219344728016495 AA      201208082012070400000000054190000059400000000000059517000000000000000000000000000234050000000000  3020120809   06          3                                                                                   3112193447284021116926300039                                                  N                     01321  0000000        000003
12001309173000159TEMHPUS S MARCAS E PATENTES S                                         0000000023700503700000000454923 00000000841061090090112188024085900 B         201208062012070600000000054170000056000000000000056000000000000000000000000000000000050000000000  3020120806   06          3  RUA GANGES  N 528                                                                3                         000000000000000                                     N                     00598  0000000        000004
12001852612000175BT EQUIPAMENTOS INDUSTRIAIS LT                                        000000000330000000000000000000000000000083945282000000250000000583325         201207292012070400000000054090000064375000000000064375000000000000000000000000000000050000000000  3020120730   06          3                                                                                   3913651000000000583325010469                                                  N                     01321  0000000        000005
12001852612000175BT EQUIPAMENTOS INDUSTRIAIS LT                                        000000000010000000000000000000000000000084659579000000024687000584879         201208082012071600000000054190000032428000000000032428000000000000000000000000000000050000000000  3020120808   06          3                                                                                   3043900246870511000085971189                                                  N                     01321  0000000        000006
12003277412000161MAC LUZ COML ELETRICA LTDA                                            000000003410000000000000000000000000000083482037000000215254594000006565C     201208032012062200000000054140000018120000000000018120000000000000000000000000000000050000000000  3020120803   06          3                                                                                   3112152545946007486592400079                                                  N                     01321  0000000        000007
12003489596000123BEND FLEX INDUSTRIA E COMERCIO                                        000000001040000000000000000000000000000084571466000000666409100587 1          201208032012071100000000054140000631600000000000631600000000000000000000000000000000050000000000  3020120803   05          3                                                                                   3314166640911558700000019939                                                  N                     01321  0000000        000008
12004666281000177PROCRED TECNOLOGIA E FOMENTO M                                        0000000023702017600000000220000 00000000848180780090220100000313773           201208102012071600000000054210000061714000000000062083000000000000000000000000000369050000000000  3020120813   01          2  RUA RUA TAMANDARE 1410                  FAST FIXX FIXADORES LTDA                 3                         004992631000195                                     N                     00598  0000000        000009
12004676708000118M H F SISTEMAS S C LTDA                                               0000000034100000000000000000000000000000848180580000002220541780099047356     201208052012071800000000054160000014500000000000015174000000000000000000000000000674050000000000  3020120813   01          2                                                                                   3112220541786013924573200029                                                  N                     01321  0000000        000010
12005151518000140BELENUS DO BRASIL LTDA                                                000000000010000000000000000000000000000082574095000000503223000R127420022     201208042012061200000000054150000460800000000000460800000000000000000000000000000000050000000000  3020120806   06          3                                                                                   3000000123933843815032233159                                                  N                     01321  0000000        000011
12005584462000117RAPIDEZREAL TRANSPORTES LTDA                                          00000000033000000000000000000000000000008540496600000003000000012087601       201208092012072100000000054200000450195000000000452595000000000000000000000000002400050000000000  3020120813   01          2                                                                                   3909546160000001125303010119                                                  N                     01321  0000000        000012
12005852768000107DAOUD LEAL ELETRONICA LTDA ME                                         00000000033000000000000000000000000000008619603100000050000000000000000001097 201208262012080900000000054370000016558000000000016558000000000000000000000000000000050000000000  3020120827   01FS        1                                                                                   3949927090000000026050010479                                                  N                     01321  0000000        000013
12006000195000156MBA MERCANTIL BRAS DE ACO LTDA                                        0000000034100000000000000000000000000000811374710000008577801770008235B03     201208062012051600000000054170000168777000000000169131000000000000000000000000000472050000000000  3020120809   06          3                                                                                   3458577801772064849251000029                                                  N                     01321  0000000        000014
12006209559000102MAZURKY IND COM EMB LTDA                                              000000003410000000000000000000000000000084106107000000218465114009517 3       201208062012062500000000054170000052925000000000053321000000000000000000000000000528050000000000  3020120809   06          3                                                                                   3112184651142151434240900089                                                  N                     01321  0000000        000015
12006209559000102MAZURKY IND COM EMB LTDA                                              000000003410000000000000000000000000000084985523000000222532651009600 2       201208062012070200000000054170000084804000000000085440000000000000000000000000000848050000000000  3020120809   06          3                                                                                   3112225326514151434240900019                                                  N                     01321  0000000        000016
12007839659000185CABEMA CABOS E ACO LTDA                                               000000003410000000000000000000000000000084406385000000219934022019060 1 1     201208102012071100000000054210000020460000000000020766000000000000000000000000000306050000000000  3020120813   01          2                                                                                   3112199340228007879488000019                                                  N                     01321  0000000        000017
12012006058000121WEG TINTAS LTDA                                                       0000000023702727800000000001309 00000000816237710090214600000900014010203     201208072012052400000000054180000306662000000000307886000000000000000000000000001632050000000000  3020120810   06          3  R JUNO  533                                                                      3                         000000000000000                                     N                     00598  0000000        000018
12012006058000121WEG TINTAS LTDA                                                       0000000023702727800000000001309 00000000824820160090216300000880014374202     201208072012060800000000054180000459854000000000461693000000000000000000000000002452050000000000  3020120810   06          3  R JUNO  533                                                                      3                         000000000000000                                     N                     00598  0000000        000019
12012006058000121WEG TINTAS LTDA                                                       0000000023702727800000000001309 00000000834820620090217900000740014773901     201208102012062600000000054210000306569000000000307793000000000000000000000000001224050000000000  3020120813   01          2  R JUNO  533                                                                      3                         000000000000000                                     N                     00598  0000000        000020
12012006058000121WEG TINTAS LTDA                                                       0000000023702727800000000001309 00000000816971080090214900001020014046003     201208082012052500000000054190000085618000000000086188000000000000000000000000000570050000000000  3020120813   01          2  R JUNO  533                                                                      3                         000000000000000                                     N                     00598  0000000        000021
12017469701000177ARCELORMITTAL BRASIL S A                                              0000000034100000000000000000000000000000835620810000009322028870012463203     201208082012062700000000054190000063789000000000063789000000000000000000000000000000050000000000  3020120808   06          3                                                                                   3109322028875293802529900019                                                  N                     01321  0000000        000022
12033325184001786ALSCO TOALHEIRO BRASIL                                                0000000023703396000000001490850 0000000084571471009000028416503VM00284165     201208052012070500000000054160000026347000000000026477000000000000000000000000000156050000000000  3020120810   06          3  RUA  GANGES 528                                                                  3                         000000000000000                                     N                     00598  0000000        000023
12033325184001786ALSCO TOALHEIRO BRASIL                                                0000000023703396000000001490850 0000000086196030009000002679805VM26798        201208302012081000000000054410000052584000000000052584000000000000000000000000000000050000000000  3020120830   01FS        1  RUA  GANGES 528                                                                  3                         000000000000000                                     N                     00598  0000000        000024
12035820448000136WHITE MARTINS GASES INDUSTRIAI                                        0000000023700026400000003937925 0000000086196029009022230001562364184 001     201209062012081000000000054480000113610000000000113610000000000000000000000000000000050000000000  3020120906   01FS        1  RUA GANGES  528                                                                  3                         000000000000000                                     N                     00598  0000000        000025
12035820448000136WHITE MARTINS GASES INDUSTRIAI                                        0000000023700026400000003937925 0000000084406386009021940001235350499 001     201208082012071200000000054190000162300000000000166626000000000000000000000000004326050000000000  3020120813   01          2  RUA GANGES  528                                                                  3                         000000000000000                                     N                     00598  0000000        000026
12035820448000136WHITE MARTINS GASES INDUSTRIAI                                        0000000023700026400000003937925 0000000084571470009021980000617351461 001     201208102012071400000000054210000085208000000000087254000000000000000000000000002046050000000000  3020120813   01          2  RUA GANGES  528                                                                  3                         000000000000000                                     N                     00598  0000000        000027
12042956441000101SOLUCOES ACO USIMINAS                                                 0000000034100000000000000000000000000000843180420000002194744340016902901     201208032012070600000000054140000179849000000000181649000000000000000000000000002160050000000000  3020120808   06          3                                                                                   3112194744341293807258000089                                                  N                     01321  0000000        000028
12042956441000101SOLUCOES ACO USIMINAS                                                 0000000034100000000000000000000000000000841725370000002188168510016891201     201208022012070500000000054130001132883000000001132883000000000000000000000000000000050000000000  3020120802   06          3                                                                                   3112188168515293807258000069                                                  N                     01321  0000000        000029
12042956441000101SOLUCOES ACO USIMINAS                                                 0000000034100000000000000000000000000000841725410000002188168480016884801     201208022012070500000000054130000120648000000000122335000000000000000000000000001928050000000000  3020120809   06          3                                                                                   3112188168481293807258000049                                                  N                     01321  0000000        000030
12042956441000101SOLUCOES ACO USIMINAS                                                 0000000034100000000000000000000000000000841725420000002188168490016884901     201208022012070500000000054130000531994000000000538378000000000000000000000000007448050000000000  3020120808   06          3                                                                                   3112188168499293807258000049                                                  N                     01321  0000000        000031
12042956441000101SOLUCOES ACO USIMINAS                                                 0000000034100000000000000000000000000000841725430000002188168500016885101     201208022012070500000000054130000219788000000000219788000000000000000000000000000000050000000000  3020120802   06          3                                                                                   3112188168507293807258000079                                                  N                     01321  0000000        000032
12042956441000101SOLUCOES ACO USIMINAS                                                 0000000034100000000000000000000000000000841725440000002188168520016891401     201208022012070500000000054130000795471000000000805017000000000000000000000000011137050000000000  3020120808   06          3                                                                                   3112188168523293807258000099                                                  N                     01321  0000000        000033
12042956441000101SOLUCOES ACO USIMINAS                                                 0000000034100000000000000000000000000000807142650000002012663840015857403     201208022012050800000000054130001147595000000001163660000000000000000000000000018360050000000000  3020120809   06          3                                                                                   3112012663848293807258000049                                                  N                     01321  0000000        000034
12042956441000101SOLUCOES ACO USIMINAS                                                 0000000034100000000000000000000000000000841725450000002188168530016891501     201208022012070500000000054130001128682000000001128682000000000000000000000000000000050000000000  3020120802   06          3                                                                                   3112188168531293807258000029                                                  N                     01321  0000000        000035
12042956441000101SOLUCOES ACO USIMINAS                                                 0000000034100000000000000000000000000000807142660000002012663850015854503     201208032012050800000000054140000476401000000000481166000000000000000000000000005718050000000000  3020120808   06          3                                                                                   3112012663855293807258000029                                                  N                     01321  0000000        000036
12042956441000101SOLUCOES ACO USIMINAS                                                 0000000034100000000000000000000000000000807142670000002012663860015854603     201208032012050800000000054140000434831000000000434831000000000000000000000000000000050000000000  3020120803   06          3                                                                                   3112012663863293807258000059                                                  N                     01321  0000000        000037
12042956441000101SOLUCOES ACO USIMINAS                                                 0000000034100000000000000000000000000000807926630000002016353910015877003     201208022012050900000000054130000543024000000000543024000000000000000000000000000000050000000000  3020120802   06          3                                                                                   3112016353917293807258000019                                                  N                     01321  0000000        000038
12042956441000101SOLUCOES ACO USIMINAS                                                 0000000034100000000000000000000000000000808797140000002020550730015891703     201208022012051000000000054130000135713000000000135713000000000000000000000000000000050000000000  3020120802   06          3                                                                                   3112020550730293807258000079                                                  N                     01321  0000000        000039
12042956441000101SOLUCOES ACO USIMINAS                                                 0000000034100000000000000000000000000000808797150000002020550740015891803     201208022012051000000000054130000236521000000000239832000000000000000000000000003784050000000000  3020120809   06          3                                                                                   3112020550748293807258000079                                                  N                     01321  0000000        000040
12042956441000101SOLUCOES ACO USIMINAS                                                 0000000034100000000000000000000000000000808797160000002020550750015897603     201208022012051000000000054130000856806000000000856806000000000000000000000000000000050000000000  3020120802   06          3                                                                                   3112020550755293807258000029                                                  N                     01321  0000000        000041
12042956441000101SOLUCOES ACO USIMINAS                                                 0000000034100000000000000000000000000000809687510000002030116240015943603     201208062012051400000000054170000800776000000000800776000000000000000000000000000000050000000000  3020120806   06          3                                                                                   3112030116241293807258000019                                                  N                     01321  0000000        000042
12042956441000101SOLUCOES ACO USIMINAS                                                 0000000034100000000000000000000000000000846595680000002210880260016980501     201208102012071200000000054210000156118000000000157054000000000000000000000000000936050000000000  3020120813   01          2                                                                                   3112210880269293807258000019                                                  N                     01321  0000000        000043
12042956441000101SOLUCOES ACO USIMINAS                                                 0000000034100000000000000000000000000000826558240000002112172710016459402     201208072012061100000000054180000747525000000000756495000000000000000000000000008970050000000000  3020120813   01          2                                                                                   3112112172716293807258000059                                                  N                     01321  0000000        000044
12042956441000101SOLUCOES ACO USIMINAS                                                 0000000034100000000000000000000000000000812917710000002043858320016016403     201208092012051600000000054200000598188000000000602972000000000000000000000000004784050000000000  3020120813   01          2                                                                                   3112043858326293807258000019                                                  N                     01321  0000000        000045
12042956441000101SOLUCOES ACO USIMINAS                                                 0000000034100000000000000000000000000000826558230000002112172700016459202     201208072012061100000000054180000123454000000000124936000000000000000000000000001482050000000000  3020120813   01          2                                                                                   3112112172708293807258000049                                                  N                     01321  0000000        000046
12042956441000101SOLUCOES ACO USIMINAS                                                 0000000034100000000000000000000000000000826558260000002112172730016459802     201208072012061100000000054180000155720000000000157586000000000000000000000000001866050000000000  3020120813   01          2                                                                                   3112112172732293807258000099                                                  N                     01321  0000000        000047
12045351418000181TRANSP RODOR LTDA                                                     000000003410000000000000000000000000000084985525000000222866599298863  01     201208032012072000000000054140000004012000000000004012000000000000000000000000000000050000000000  3020120803   06          3                                                                                   3112228665991005820000700049                                                  N                     01321  0000000        000048
12045577855000118ROVELA IND E COMERCIO LTDA                                            0000000034100000000000000000000000000000845714620000002207265433994ABV        201208032012070600000000054140000315000000000000315000000000000000000000000000000000050000000000  3020120803   06          3                                                                                   3112207265433045274986400029                                                  N                     01321  0000000        000049
12046705844000139TRANSPORTADORA DEPOLLI LTDA                                           0000000034100000000000000000000000000000853154930000002210630141200296701     201208032012071300000000054140000048000000000000048000000000000000000000000000000000050000000000  3020120803   06          3                                                                                   3112210630144158604003000019                                                  N                     01321  0000000        000050
12051598902000102NEPIN ACESSORIOS INDUSTRIAIS L                                        000000000010000000000000000000000000000085152927000000476537000015465 1 1     201208102012072400000000054210000034000000000000034450000000000000000000000000000450050000000000  3020120813   01          2                                                                                   3043924765374327000101481199                                                  N                     01321  0000000        000051
12053585766000141MULTIACOS INDUSTRIA E COMERCIO                                        0000000000100000000000000000000000000000843180370000006823060000004139403     201208032012071000000000054140000177127000000000177127000000000000000000000000000000050000000000  3020120803   06          3                                                                                   3043886823061912000139523169                                                  N                     01321  0000000        000052
12053585766000141MULTIACOS INDUSTRIA E COMERCIO                                        0000000000100000000000000000000000000000843180390000006823870000004270401     201208042012071000000000054150000122094000000000122094000000000000000000000000000000050000000000  3020120806   06          3                                                                                   3043886823871912000139523159                                                  N                     01321  0000000        000053
12053585766000141MULTIACOS IND  COM  PROD  TEC                                         0000000034100000000000000000000000000000847452040000002216487450004294601     201208072012062600000000054180000419475000000000420174000000000000000000000000001398050000000000  3020120808   06          3                                                                                   3112216487457124804291100019                                                  N                     01321  0000000        000054
12056993512000150CYKLOP DO BRASIL EMBALAGENS SA                                        0000000034100000000000000000000000000000854049490000002248875950001444        201208092012072600000000054200000013600000000000013800000000000000000000000000000200050000000000  3020120813   01          2                                                                                   3112248875950025786126000059                                                  N                     01321  0000000        000055
12056993900000131CIA METALURGICA PRADA                                                 0000000034100000000000000000000000000000812917650000002041335510024059003     201208092012051700000000054200000569143000000000572939000000000000000000000000003796050000000000  3020120813   01          2                                                                                   3112041335517293800573900059                                                  N                     01321  0000000        000056
12057029431000106ATLAS COPCO BRASIL LTDA                                               0000000034100000000000000000000000000000861960280000002283943487000054090     201209062012080900000000054480000059490000000000059490000000000000000000000000000000050000000000  3020120906   01FS        1                                                                                   3112283943481293804111400069                                                  N                     01321  0000000        000057
12057158057000130COMERCIAL ELETRICA PJ LTDA                                            0000000023703394400000000972983 00000000842436850090219200008900000305028     201208012012070400000000054120000079196000000000082352000000000000000000000000003156050000000000  3020120813   01          2  R TAMAINDE 1410                                                                  3                         000000000000000                                     N                     00598  0000000        000058
12061100202000108COFIPE VEICULOS LTDA                                                  0000000039900000000000000000000000000000842436860000000000000008800528601     201208052012070600000000054160000013600000000000013600000000000000000000000000000000050000000000  3020120806   06          3                                                                                   3320005040160343608018900139                                                  N                     01321  0000000        000059
12061100202000108COFIPE VEICULOS LTDA                                                  0000000039900000000000000000000000000000842436880000000000000008801210401     201208052012070600000000054160000028760000000000028760000000000000000000000000000000050000000000  3020120806   06          3                                                                                   3320005040320343608018900169                                                  N                     01321  0000000        000060
12061217188000119TELAS METALICAS TELMETAL LTDA                                         0000000034100000000000000000000000000000851529090000009000028725291 2 3       201208082012070400000000054190000010719000000000010748000000000000000000000000000058050000000000  3020120809   06          3                                                                                   3109000028728077099894600079                                                  N                     01321  0000000        000061
12061217188000119TELAS METALICAS TELMETAL LTDA                                         0000000034100000000000000000000000000000851529120000009000028755292 2 3       201208082012070400000000054190000055682000000000055830000000000000000000000000000296050000000000  3020120809   06          3                                                                                   3109000028751077099894600059                                                  N                     01321  0000000        000062
12061217188000119TELAS METALICAS TELMETAL LTDA                                         0000000034100000000000000000000000000000861207210000009000029125468 1 1       201209062012080800000000054480000045986000000000045986000000000000000000000000000000050000000000  3020120906   05          3                                                                                   3109000029120077073552000099                                                  N                     01321  0000000        000063
12061217188000119TELAS METALICAS TELMETAL LTDA                                         0000000034100000000000000000000000000000861960260000009000029125468 1 1       201209062012080800000000054480000045986000000000045986000000000000000000000000000000050000000000  3020120906   01FS        1                                                                                   3109000029122077099894600089                                                  N                     01321  0000000        000064
12066841552000130R V SEG PATRIMONIAL LTDA                                              00000000341000000000000000000000000000008515290700000090002172621726          201208102012071000000000054210000414206000000000414620000000000000000000000000000414050000000000  3020120813   01          2                                                                                   3109000217263001839407200039                                                  N                     01321  0000000        000065
12066970229000167NEXTEL TELECOMUNICACOES LTDA                                          0000000023702374400000001596233 0000000085502896009000014340178215472 1       201208102012062100000000054210000011632000000000011864000000000000000000000000000232050000000000  3020120813   01          2  R GANGES  520 VILA CARRAO BR                                                     3                         000000000000000                                     N                     00598  0000000        000066
12066970229000167NEXTEL TELECOMUNICACOES LTDA                                          0000000023702374400000001596233 000000008550289700900001434017932530 10       201208102011101100000000054210000019860000000000020257000000000000000000000000000397050000000000  3020120813   01          2  R GANGES  520 VILA CARRAO BR                                                     3                         000000000000000                                     N                     00598  0000000        000067
12067647412000199ANCORA CHUMBADORES LTDA                                               000000003410000000000000000000000000000083392858000000214873076055988 1       201208042012062000000000054150000350000000000000350000000000000000000000000000000000050000000000  3020120806   06          3                                                                                   3112148730768013626917200019                                                  N                     01321  0000000        000068
12071580302000124SANCHEPEL IND PAULISTA EMB L                                          0000000034100000000000000000000000000000841725380000002186658527170           201208042012070600000000054150000176985000000000176985000000000000000000000000000000050000000000  3020120806   06          3                                                                                   3112186658525007855578600079                                                  N                     01321  0000000        000069
12071580302000124SANCHEPEL IND PAULISTA EMB L                                          0000000034100000000000000000000000000000861960270000002283284437418           201209072012080900000000054490000112700000000000112700000000000000000000000000000000050000000000  3020120910   01FS        1                                                                                   3112283284431007855578600019                                                  N                     01321  0000000        000070
12092693118000160BRADESCO SAUDE S A                                                    0000000023700448000000001533991 00000000829780050050100702629130000000000     201207202012061800000000054000000645861000000000655845000000000000000000000000009984050000000000  3020120813   01          2                                                                                   3                         000000000000000                                     N                     00598  0000000        000071
900007200000000018373377                                                                                                                                                                                                                                                                                                                                                                                                                                                                00598  0000000        000072
