0000147602043799295000110ALTAMIRA INDUSTRIA METALURGICA LT       202000000014520121011063710             1                                                                                                                                                                                                                                                                                                                                                                                                    000001
12000193273000108TECELAGEM ROMA LTDA                                                   0000000023700284400000000410977 000000008729528300900000001755717246          201210092012083100000000054810000093186000000000093466000000000000000000000000000560050000000000  3020121010   06          3  RUA TAMAINDE 1410  1410                                                          300000000000000000001500  000000000000000                                     N                     00598  0000000        000002
12000329073000121PETRO LIDER DERIV PETR LTDA                                           000000003410000000000000000000000000000089874117000000247270268001019584      201211012012100500000000055040000050000000000000050000000000000000000000000000000000050000000000  3020121101   01FS        1                                                                                   3112472702680073403145300019                                                  N                     01321  0000000        000003
12001784706000154TRANSPORTES WARTHA LTDA                                               0000000023701775200000000260010 0000000088873314009022400000331SAO2612751     201209172012082700000000054590000430000000000000442771000000000000000000000000013932050000000000  3020120928   06          3  R  GANGES  528                                                                   3                         000000000000000                                     N                     00598  0000000        000004
12001852612000175BT EQUIPAMENTOS INDUSTRIAIS LT                                        000000000330000000000000000000000000000087577366000000610000000594061         201210012012090600000000054730000041502000000000042752000000000000000000000000001250050000000000  3020121011   01          2                                                                                   3913651000000000594061010479                                                  N                     01321  0000000        000005
12001895314000162COLETA INDUSTRIAL FIMAVAN LTDA                                        0000000034100000000000000000000000000000866992070000009002335349439           201208272012081700000000054380000123695000000000140974000000000000000000000000017279050000000000  3020121011   01          2                                                                                   3109002335346144604097200019                                                  N                     01321  0000000        000006
12001895314000162COLETA INDUSTRIAL FIMAVAN LTDA                                        00000000341000000000000000000000000000008844324600000090023445310405          201209272012091700000000054690000158141000000000166777000000000000000000000000009057050000000000  3020121010   06          3                                                                                   3109002344538144604097200029                                                  N                     01321  0000000        000007
12002460454000170AUT SERVICE COMERCIO E SERVICO                                        0000000023702591700000000007692 000000008515292000901322060028234532 2        201209172012072400000000054590000238750000000000262159000000000000000000000000023409050000000000  3020121011   01          2  RUA JUNO  533                                                                    3                         000000000000000                                     N                     00598  0000000        000008
12002469103000120COMPROCRED FOMENTO MERCANTIL L                                        0000000023703511400000000106739 0000000088012259002022550000043022145 12      201210012012090500000000054730000093000000000000096100000000000000000000000000003100050000000000  3020121011   01          2  RUA TAMAINDE 1410 VILA NOVA MANCH SAO PATRANSPORTADORA FIOROT LTDA               3                         000252984000106                                     N                     00598  0000000        000009
12002503185000182ANDAIMES MAQUINAS BIG LTDA EPP                                        0000000034100000000000000000000000000000874070480000002313590765101           201209142012082000000000054560000016500000000000017127000000000000000000000000000627050000000000  3020121011   01          2                                                                                   3112313590765650303800900019                                                  N                     01321  0000000        000010
12002503185000182ANDAIMES E MAQUINAS BIG LTDA                                          000000003410000000000000000000000000000087820531000000233954448011791         201209212012082700000000054630000026000000000000026860000000000000000000000000000860050000000000  3020121011   01          2                                                                                   3112339544481925303435000019                                                  N                     01321  0000000        000011
12002503185000182ANDAIMES MAQUINAS BIG LTDA EPP                                        000000003410000000000000000000000000000086282613000000228719913011660         201208302012081000000000054410000012000000000000012576000000000000000000000000000576050000000000  3020121011   01          2                                                                                   3112287199130650303800900039                                                  N                     01321  0000000        000012
12003163055000100JN FOMENTO MERCANTIL LTDA                                             000000004220000000000000000000000000000088191353000000000000000509 12         201210092012091200000000054810000015000000000000015060000000000000000000000000000060050000000000  3020121011   01          2                                                                                   3700400001182791920957609119                                                  N                     01321  0000000        000013
12003489596000123BEND FLEX I COMERCIO LTDA                                             000000003410000000000000000000000000000088350832000000171879874608            201209122012082100000000054540000695250000000000734893000000000000000000000000039643050000000000  3020121011   01          2                                                                                   3191718798744157734445800069                                                  N                     01321  0000000        000014
12003489596000123BEND FLEX I COMERCIO LTDA                                             000000003410000000000000000000000000000089518988000000173425770617            201210012012083000000000054730000722200000000000736400000000000000000000000000014200050000000000  3020121011   01          2                                                                                   3191734257709157734445800079                                                  N                     01321  0000000        000015
12003489596000123BEND FLEX I COMERCIO LTDA                                             000000003410000000000000000000000000000088599899000000171434574613            201209172012081600000000054590000585000000000000612624000000000000000000000000027624050000000000  3020121011   01          2                                                                                   3191714345748157734445800019                                                  N                     01321  0000000        000016
12003489596000123BEND FLEX INDUSTRIA E COMERCIO                                        000000001040000000000000000000000000000089874116000000317820500638            201211012012100400000000055040000269000000000000269000000000000000000000000000000000050000000000  3020121101   01FS        1                                                                                   3314331782011558700000019989                                                  N                     01321  0000000        000017
12005335228000156DINAMICA INF E TELECOM LTDA EP                                        0000000023703257300000000503215 0000000088443245009032570017396MO008960A      201209302012091700000000054720000020000000000000020737000000000000000000000000000737050000000000  3020121011   01          2  RUA JUNO  533                                                                    3                         000000000000000                                     N                     00598  0000000        000018
12005852768000107DAOUD LEAL ELETRONICA LTDA ME                                         00000000033000000000000000000000000000008757736700000021000000000000000001097 201209262012090500000000054680000016558000000000017714000000000000000000000000001156050000000000  3020121011   01          2                                                                                   3949927090000000027421010429                                                  N                     01321  0000000        000019
12005880850000145NEDERMAN BRASIL COM PROD EX LT                                        000000003410000000000000000000000000000086373178000000614350956002763 A       201209252012081400000000054670000289674000000000298794000000000000000000000000009120050000000000  3020121011   01          2                                                                                   3156143509568160829000100049                                                  N                     01321  0000000        000020
12005880850000145NEDERMAN BRASIL COM PROD EX LT                                        000000003410000000000000000000000000000086373179000000614350957002763 B       201210092012081400000000054810000289674000000000290814000000000000000000000000001140050000000000  3020121011   01          2                                                                                   3156143509576160829000100069                                                  N                     01321  0000000        000021
12006000195000156MBA MERCANTIL BRAS DE ACO LTDA                                        0000000034100000000000000000000000000000885998980000001667238420008870B02     201209112012071600000000054530000839952000000000889512000000000000000000000000049560050000000000  3020121011   01          2                                                                                   3191667238429064849251000039                                                  N                     01321  0000000        000022
12006000195000156MBA MERCANTIL BRAS DE ACO LTDA                                        0000000034100000000000000000000000000000886866570000001667238410008874B02     201209132012071600000000054550000802826000000000847038000000000000000000000000044212050000000000  3020121011   01          2                                                                                   3191667238411064849251000049                                                  N                     01321  0000000        000023
12006000195000156MBA MERCANTIL BRAS DE ACO LTDA                                        0000000034100000000000000000000000000000887698080000001667238400008876B02     201209142012071600000000054560000810321000000000853359000000000000000000000000043038050000000000  3020121011   01          2                                                                                   3191667238403064849251000059                                                  N                     01321  0000000        000024
12006000195000156MBA MERCANTIL BRAS DE ACO LTDA                                        0000000034100000000000000000000000000000887698090000001671394550008925B02     201209142012071700000000054560000719581000000000757786000000000000000000000000038205050000000000  3020121011   01          2                                                                                   3191671394556064849251000089                                                  N                     01321  0000000        000025
12006000195000156MBA MERCANTIL BRAS DE ACO LTDA                                        0000000034100000000000000000000000000000887698100000001671394560008926B02     201209142012071700000000054560000387716000000000408317000000000000000000000000020601050000000000  3020121011   01          2                                                                                   3191671394564064849251000019                                                  N                     01321  0000000        000026
12006000195000156MBA MERCANTIL BRAS DE ACO LTDA                                        0000000034100000000000000000000000000000889578520000001671394540008920B02     201209162012071700000000054580000576585000000000604935000000000000000000000000028350050000000000  3020121011   01          2                                                                                   3191671394549064849251000099                                                  N                     01321  0000000        000027
12006000195000156M B A MERCANTIL BRASILEIRA DE                                         0000000023700118P00000002130599 00000000865388230020222900000440009203B02     201210102012081500000000054820000344980000000000345555000000000000000000000000000575050000000000  3020121011   01          2  RUA JUNO  533                                                                    3                         000000000000000                                     N                     00598  0000000        000028
12006000195000156M B A MERCANTIL BRASILEIRA DE                                         0000000023700118P00000002130599 00000000848180740020220100000050008872B03     201210092012071700000000054810000112772000000000113148000000000000000000000000000376050000000000  3020121011   01          2  RUA JUNO  533                                                                    3                         000000000000000                                     N                     00598  0000000        000029
12006000195000156M B A MERCANTIL BRASILEIRA DE                                         0000000000100000000000000000000000000000855028910000007952930000009010B02     201209272012073000000000054690000275046000000000277794000000000000000000000000003206050000000000  3020121003   05          3                                                                                   3043937952933333000105251119                                                  N                     01321  0000000        000030
12006000195000156MBA MERCANTIL BRAS DE ACO LTDA                                        0000000034100000000000000000000000000000872952840000002358952080009373B01     201209262012082900000000054680000163501000000000163501000000000000000000000000000000050000000000  3020120926   05          3                                                                                   3112358952086064899001800069                                                  N                     01321  0000000        000031
12006000195000156MBA MERCANTIL BRAS DE ACO LTDA                                        0000000034100000000000000000000000000000872952900000002358952110009374B01     201209262012082900000000054680000836983000000000836983000000000000000000000000000000050000000000  3020120926   05          3                                                                                   3112358952110064899001800069                                                  N                     01321  0000000        000032
12006209559000102MAZURKY IND COM EMB LTDA                                              000000003410000000000000000000000000000087820526000000233961391010076 3       201210022012082100000000054740000092749000000000092749000000000000000000000000000000050000000000  3020121002   06          3                                                                                   3112339613914151434240900079                                                  N                     01321  0000000        000033
12006867297000173MARCOS ANTONIO RIBEIRO ACOS                                           0000000034100000000000000000000000000000881913470000002386992240000433        201210082012091200000000054800000042270000000000042690000000000000000000000000000420050000000000  3020121011   01          2                                                                                   3112386992245046769908800059                                                  N                     01321  0000000        000034
12007175725000160WEG EQUIPAMENTOS ELETRICOS SA                                         0000000023702727800000000196800 00000000832180610090217400004980095359902     201209202012052300000000054620000272787000000000280410000000000000000000000000007623050000000000  3020121011   01          2  R JUNO  533                                                                      3                         000000000000000                                     N                     00598  0000000        000035
12009419898000101LUSITANO INDUSTRIA C E P LTDA                                         00000000341000000000000000000000000000008653882000000090000757101 10137 2     201209192012081500000000054610000035135000000000037709000000000000000000000000002574050000000000  3020121011   01          2                                                                                   3109000075716001160072300049                                                  N                     01321  0000000        000036
12011318709000156IMPAKTO TRANSPORTES                                                   0000000000100000000000000000000000000000898741150000000002390006809           201210292012100900000000055010000015206000000000015206000000000000000000000000000000050000000000  3020121029   01FS        1                                                                                   3000000245286000000002391719                                                  N                     01321  0000000        000037
12012006058000121WEG TINTAS LTDA                                                       0000000023702727800000000001309 00000000844839240090219500000730015168703     201209252012071200000000054670000306662000000000313190000000000000000000000000006528050000000000  3020121011   01          2  R JUNO  533                                                                      3                         000000000000000                                     N                     00598  0000000        000038
12012006058000121WEG TINTAS LTDA                                                       0000000023702727800000000001309 00000000847452150090220000000920015248102     201209152012071700000000054570000306569000000000317177000000000000000000000000010608050000000000  3020121011   01          2  R JUNO  533                                                                      3                         000000000000000                                     N                     00598  0000000        000039
12012006058000121WEG TINTAS LTDA                                                       0000000023702727800000000001309 00000000847452160090220000000930015248103     201209302012071700000000054720000306662000000000311150000000000000000000000000004488050000000000  3020121011   01          2  R JUNO  533                                                                      3                         000000000000000                                     N                     00598  0000000        000040
12012006058000121WEG TINTAS LTDA                                                       0000000023702727800000000001309 00000000849855330090220500001210015343102     201209182012072000000000054600000306569000000000315953000000000000000000000000009384050000000000  3020121011   01          2  R JUNO  533                                                                      3                         000000000000000                                     N                     00598  0000000        000041
12012006058000121WEG TINTAS LTDA                                                       0000000023702727800000000001309 00000000868126340090223500001170016086601     201210052012082100000000054770000306569000000000309017000000000000000000000000002448050000000000  3020121011   01          2  R JUNO  533                                                                      3                         000000000000000                                     N                     00598  0000000        000042
12012006058000121WEG TINTAS LTDA                                                       0000000023702727800000000001309 00000000849855340090220500001220015343103     201210032012072000000000054750000306662000000000309926000000000000000000000000003264050000000000  3020121011   01          2  R JUNO  533                                                                      3                         000000000000000                                     N                     00598  0000000        000043
12012006058000121WEG TINTAS LTDA                                                       0000000023702727800000000001309 00000000854049550090221200001010015513002     201209252012072700000000054670000459854000000000469662000000000000000000000000009808050000000000  3020121011   01          2  R JUNO  533                                                                      3                         000000000000000                                     N                     00598  0000000        000044
12012006058000121WEG TINTAS LTDA                                                       0000000023702727800000000001309 00000000854049560090221200001020015513003     201210102012072700000000054820000459992000000000460605000000000000000000000000000613050000000000  3020121011   01          2  R JUNO  533                                                                      3                         000000000000000                                     N                     00598  0000000        000045
12012006058000121WEG TINTAS LTDA                                                       0000000023702727800000000001309 00000000856071250090221400000820015587301     201209142012073100000000054560000459854000000000476405000000000000000000000000016551050000000000  3020121011   01          2  R JUNO  533                                                                      3                         000000000000000                                     N                     00598  0000000        000046
12012006058000121WEG TINTAS LTDA                                                       0000000023702727800000000001309 00000000856071260090221400000830015587302     201209292012073100000000054710000459854000000000467210000000000000000000000000007356050000000000  3020121011   01          2  R JUNO  533                                                                      3                         000000000000000                                     N                     00598  0000000        000047
12012006058000121WEG TINTAS LTDA                                                       0000000023702727800000000001309 00000000861207260090222200000900015775001     201209222012080800000000054640000306569000000000314321000000000000000000000000007752050000000000  3020121011   01          2  R JUNO  533                                                                      3                         000000000000000                                     N                     00598  0000000        000048
12012006058000121WEG TINTAS LTDA                                                       0000000023702727800000000001309 00000000861207270090222200000910015775002     201210072012080800000000054790000306569000000000308201000000000000000000000000001632050000000000  3020121011   01          2  R JUNO  533                                                                      3                         000000000000000                                     N                     00598  0000000        000049
12012006058000121WEG TINTAS LTDA                                                       0000000023702727800000000001309 00000000864554440090222800000730015908401     201209282012081400000000054700000306569000000000311873000000000000000000000000005304050000000000  3020121011   01          2  R JUNO  533                                                                      3                         000000000000000                                     N                     00598  0000000        000050
12012006058000121WEG TINTAS LTDA                                                       0000000023702727800000000001309 00000000841061130090218800000850014990203     201209182012070500000000054600000306662000000000316046000000000000000000000000009384050000000000  3020121011   01          2  R JUNO  533                                                                      3                         000000000000000                                     N                     00598  0000000        000051
12012006058000121WEG TINTAS LTDA                                                       0000000023702727800000000001309 00000000842436840090219200000860015068803     201209222012070900000000054640000306662000000000314414000000000000000000000000007752050000000000  3020121011   01          2  R JUNO  533                                                                      3                         000000000000000                                     N                     00598  0000000        000052
12014309992000148WEG DRIVES   CONTROLS   AUTOMA                                        0000000023702727800000000001872 00000000828904050090217000002200005763302     201209152012051800000000054570000272992000000000282430000000000000000000000000009438050000000000  3020121011   01          2  R JUNO  533                                                                      3                         000000000000000                                     N                     00598  0000000        000053
12014775592000128HELIO ADRIANO DA SILVA ME                                             0000000003300000000000000000000000000000880122770000004900000008565 8566      201209282012091000000000054700000034500000000000035488000000000000000000000000000988050000000000  3020121011   01          2                                                                                   3956114740000000000049010129                                                  N                     01321  0000000        000054
12014775592000128HELIO ADRIANO DA SILVA ME                                             0000000003300000000000000000000000000000887698150000005800000008682           201210102012092100000000054820000040000000000000040826000000000000000000000000000826050000000000  3020121011   01          2                                                                                   3956114740000000000058010159                                                  N                     01321  0000000        000055
12016802308000190TRANSMARRECO LTDA                                                     000000000330000000000000000000000000000088769814000000640000000353 12         201210052012092100000000054770000106581000000000110633000000000000000000000000004052050000000000  3020121011   01          2                                                                                   3907636240000000643564010119                                                  N                     01321  0000000        000056
12033325184001786ALSCO TOALHEIRO BRASIL                                                0000000023703396000000001490850 0000000087820608009000028814703VM00288147     201210052012090100000000054770000026347000000000026503000000000000000000000000000156050000000000  3020121011   01          2  RUA  GANGES 528                                                                  3                         000000000000000                                     N                     00598  0000000        000057
12033325184001786ALSCO TOALHEIRO BRASIL                                                0000000023703396000000001490850 0000000087820607009000002716505VM27165        201209262012090600000000054680000045665000000000046355000000000000000000000000000690050000000000  3020121011   01          2  RUA  GANGES 528                                                                  3                         000000000000000                                     N                     00598  0000000        000058
12035820448000136WHITE MARTINS GASES INDUSTRIAI                                        0000000023700026400000003937925 0000000087820600009022540001838377866 001     201210042012090700000000054760000202876000000000207409000000000000000000000000004533050000000000  3020121011   01          2  RUA GANGES  528                                                                  3                         000000000000000                                     N                     00598  0000000        000059
12035820448000136WHITE MARTINS GASES INDUSTRIAI                                        0000000023700026400000003937925 0000000088191338009022570001466379316 001     201210092012091300000000054810000085208000000000086968000000000000000000000000001760050000000000  3020121011   01          2  RUA GANGES  528                                                                  3                         000000000000000                                     N                     00598  0000000        000060
12035820448000136WHITE MARTINS GASES INDUSTRIAI                                        0000000023700026400000003937925 0000000087577331009022500001416377141 001     201210022012090600000000054740000040575000000000041512000000000000000000000000000937050000000000  3020121011   01          2  RUA GANGES  528                                                                  3                         000000000000000                                     N                     00598  0000000        000061
12035820448000136WHITE MARTINS GASES INDUSTRIAI                                        0000000023700026400000003937925 0000000086699210009022330000393368126 001     201209142012081800000000054560000162300000000000171378000000000000000000000000009078050000000000  3020121011   01          2  RUA GANGES  528                                                                  3                         000000000000000                                     N                     00598  0000000        000062
12035820448000136WHITE MARTINS GASES INDUSTRIAI                                        0000000023700026400000003937925 0000000086907101009022370010705372273 001     201209202012082400000000054620000017600000000000018435000000000000000000000000000835050000000000  3020121011   01          2  RUA GANGES  528                                                                  3                         000000000000000                                     N                     00598  0000000        000063
12035820448000136WHITE MARTINS GASES INDUSTRIAI                                        0000000023700026400000003937925 0000000086907102009022370011747372774 001     201209202012082400000000054620000040575000000000042520000000000000000000000000001945050000000000  3020121011   01          2  RUA GANGES  528                                                                  3                         000000000000000                                     N                     00598  0000000        000064
12035820448000136WHITE MARTINS GASES INDUSTRIAI                                        0000000023700026400000003937925 0000000087067052009022420002594374120 001     201209252012082900000000054670000113610000000000118298000000000000000000000000004688050000000000  3020121011   01          2  RUA GANGES  528                                                                  3                         000000000000000                                     N                     00598  0000000        000065
12035820448000136WHITE MARTINS GASES INDUSTRIAI                                        0000000023700026400000003937925 0000000087168275009022440000143375351 001     201209272012083100000000054690000040575000000000042142000000000000000000000000001567050000000000  3020121011   01          2  RUA GANGES  528                                                                  3                         000000000000000                                     N                     00598  0000000        000066
12035820448000136WHITE MARTINS GASES INDUSTRIAI                                        0000000023700026400000003937925 0000000086812633009022350001453369229 001     201209182012082200000000054600000056805000000000059689000000000000000000000000002884050000000000  3020121011   01          2  RUA GANGES  528                                                                  3                         000000000000000                                     N                     00598  0000000        000067
12042956441000101SOLUCOES ACO USIMINAS                                                 0000000034100000000000000000000000000000841725610000002188168680016891403     201209272012070500000000054690000795233000000000817493000000000000000000000000022260050000000000  3020121011   01          2                                                                                   3112188168689293807258000029                                                  N                     01321  0000000        000068
12042956441000101SOLUCOES ACO USIMINAS                                                 0000000034100000000000000000000000000000847452070000002216130350005922202     201209102012071600000000054520000172071000000000182735000000000000000000000000010664050000000000  3020121011   01          2                                                                                   3112216130354293807258000049                                                  N                     01321  0000000        000069
12042956441000101SOLUCOES ACO USIMINAS                                                 0000000034100000000000000000000000000000847452100000002216130340017012402     201209102012071500000000054520000147428000000000156573000000000000000000000000009145050000000000  3020121011   01          2                                                                                   3112216130347293807258000059                                                  N                     01321  0000000        000070
12042956441000101SOLUCOES ACO USIMINAS                                                 0000000034100000000000000000000000000000836417910000002164218370016738103     201209192012062700000000054610000830173000000000866693000000000000000000000000036520050000000000  3020121011   01          2                                                                                   3112164218375293807258000039                                                  N                     01321  0000000        000071
12042956441000101SOLUCOES ACO USIMINAS                                                 0000000034100000000000000000000000000000840313040000002181699250016829703     201209242012070200000000054660000643711000000000665590000000000000000000000000021879050000000000  3020121011   01          2                                                                                   3112181699250293807258000019                                                  N                     01321  0000000        000072
12042956441000101SOLUCOES ACO USIMINAS                                                 0000000034100000000000000000000000000000840313050000002181699260016829803     201209242012070200000000054660000322527000000000333492000000000000000000000000010965050000000000  3020121011   01          2                                                                                   3112181699268293807258000029                                                  N                     01321  0000000        000073
12042956441000101SOLUCOES ACO USIMINAS                                                 0000000034100000000000000000000000000000840313080000002181699230016814403     201209242012070200000000054660000968423000000001001352000000000000000000000000032929050000000000  3020121011   01          2                                                                                   3112181699235293807258000079                                                  N                     01321  0000000        000074
12042956441000101SOLUCOES ACO USIMINAS                                                 0000000034100000000000000000000000000000840313090000002181699240016827103     201209242012070200000000054660000703009000000000726911000000000000000000000000023902050000000000  3020121011   01          2                                                                                   3112181699243293807258000019                                                  N                     01321  0000000        000075
12042956441000101SOLUCOES ACO USIMINAS                                                 0000000034100000000000000000000000000000846595700000002210880280016980502     201209102012071200000000054520000156071000000000165743000000000000000000000000009672050000000000  3020121011   01          2                                                                                   3112210880285293807258000039                                                  N                     01321  0000000        000076
12042956441000101SOLUCOES ACO USIMINAS                                                 0000000034100000000000000000000000000000846595710000002210880290016980602     201209102012071200000000054520000426094000000000452506000000000000000000000000026412050000000000  3020121011   01          2                                                                                   3112210880293293807258000019                                                  N                     01321  0000000        000077
12042956441000101SOLUCOES ACO USIMINAS                                                 0000000034100000000000000000000000000000841725540000002188168620016859403     201209262012070400000000054680000164455000000000169390000000000000000000000000004935050000000000  3020121011   01          2                                                                                   3112188168622293807258000019                                                  N                     01321  0000000        000078
12042956441000101SOLUCOES ACO USIMINAS                                                 0000000034100000000000000000000000000000843180440000002194744360016902903     201209282012070600000000054700000179794000000000184474000000000000000000000000004680050000000000  3020121011   01          2                                                                                   3112194744366293807258000079                                                  N                     01321  0000000        000079
12042956441000101SOLUCOES ACO USIMINAS                                                 0000000034100000000000000000000000000000848180700000002220192900017041002     201209112012071700000000054530000155433000000000164763000000000000000000000000009330050000000000  3020121011   01          2                                                                                   3112220192903293807258000029                                                  N                     01321  0000000        000080
12042956441000101SOLUCOES ACO USIMINAS                                                 0000000034100000000000000000000000000000841725550000002188168630016859503     201209262012070400000000054680000234336000000000241371000000000000000000000000007035050000000000  3020121011   01          2                                                                                   3112188168630293807258000089                                                  N                     01321  0000000        000081
12042956441000101SOLUCOES ACO USIMINAS                                                 0000000034100000000000000000000000000000841725560000002188168640016884803     201209272012070500000000054690000120612000000000123986000000000000000000000000003374050000000000  3020121011   01          2                                                                                   3112188168648293807258000059                                                  N                     01321  0000000        000082
12042956441000101SOLUCOES ACO USIMINAS                                                 0000000034100000000000000000000000000000848180710000002220192910017041202     201209112012071700000000054530000205421000000000217751000000000000000000000000012330050000000000  3020121011   01          2                                                                                   3112220192911293807258000019                                                  N                     01321  0000000        000083
12042956441000101SOLUCOES ACO USIMINAS                                                 0000000034100000000000000000000000000000850740460000002233586800017127201     201208202012072000000000054310000137881000000000152233000000000000000000000000014352050000000000  3020121011   01          2                                                                                   3112233586802293807258000019                                                  N                     01321  0000000        000084
12042956441000101SOLUCOES ACO USIMINAS                                                 0000000034100000000000000000000000000000841725570000002188168690016891503     201209272012070500000000054690001128343000000001159941000000000000000000000000031598050000000000  3020121011   01          2                                                                                   3112188168697293807258000039                                                  N                     01321  0000000        000085
12042956441000101SOLUCOES ACO USIMINAS                                                 0000000034100000000000000000000000000000841725580000002188168650016884903     201209272012070500000000054690000531835000000000546731000000000000000000000000014896050000000000  3020121011   01          2                                                                                   3112188168655293807258000019                                                  N                     01321  0000000        000086
12042956441000101SOLUCOES ACO USIMINAS                                                 0000000034100000000000000000000000000000850740470000002233586810017101002     201209142012071900000000054560000732575000000000772130000000000000000000000000039555050000000000  3020121011   01          2                                                                                   3112233586810293807258000019                                                  N                     01321  0000000        000087
12042956441000101SOLUCOES ACO USIMINAS                                                 0000000034100000000000000000000000000000850740480000002233586820017101202     201209142012071900000000054560000144634000000000152437000000000000000000000000007803050000000000  3020121011   01          2                                                                                   3112233586828293807258000029                                                  N                     01321  0000000        000088
12042956441000101SOLUCOES ACO USIMINAS                                                 0000000034100000000000000000000000000000853154830000002246247020017196602     201209202012072500000000054620000804808000000000838618000000000000000000000000033810050000000000  3020121011   01          2                                                                                   3112246247020293807258000089                                                  N                     01321  0000000        000089
12042956441000101SOLUCOES ACO USIMINAS                                                 0000000034100000000000000000000000000000853154840000002246247030017196702     201209202012072500000000054620000234841000000000244711000000000000000000000000009870050000000000  3020121011   01          2                                                                                   3112246247038293807258000099                                                  N                     01321  0000000        000090
12042956441000101SOLUCOES ACO USIMINAS                                                 0000000034100000000000000000000000000000841725590000002188168660016885103     201209272012070500000000054690000219722000000000225868000000000000000000000000006146050000000000  3020121011   01          2                                                                                   3112188168663293807258000049                                                  N                     01321  0000000        000091
12042956441000101SOLUCOES ACO USIMINAS                                                 0000000034100000000000000000000000000000853154850000002246247040017197302     201209202012072500000000054620000970103000000001010843000000000000000000000000040740050000000000  3020121011   01          2                                                                                   3112246247046293807258000019                                                  N                     01321  0000000        000092
12042956441000101SOLUCOES ACO USIMINAS                                                 0000000034100000000000000000000000000000841725600000002188168670016891203     201209272012070500000000054690001132542000000001164252000000000000000000000000031710050000000000  3020121011   01          2                                                                                   3112188168671293807258000069                                                  N                     01321  0000000        000093
12042956441000101SOLUCOES ACO USIMINAS                                                 0000000034100000000000000000000000000000855028670000002254329360017200402     201209202012072600000000054620000163224000000000170070000000000000000000000000006846050000000000  3020121011   01          2                                                                                   3112254329363293807258000069                                                  N                     01321  0000000        000094
12042956441000101SOLUCOES ACO USIMINAS                                                 0000000034100000000000000000000000000000855028680000002254329370017202402     201209202012072600000000054620000244136000000000254384000000000000000000000000010248050000000000  3020121011   01          2                                                                                   3112254329371293807258000079                                                  N                     01321  0000000        000095
12042956441000101SOLUCOES ACO USIMINAS                                                 0000000034100000000000000000000000000000855028690000002254329380017212902     201209212012072600000000054630000140098000000000145698000000000000000000000000005600050000000000  3020121011   01          2                                                                                   3112254329389293807258000019                                                  N                     01321  0000000        000096
12042956441000101SOLUCOES ACO USIMINAS                                                 0000000034100000000000000000000000000000855028700000002254329390017213002     201209212012072600000000054630000140602000000000146222000000000000000000000000005620050000000000  3020121011   01          2                                                                                   3112254329397293807258000089                                                  N                     01321  0000000        000097
12042956441000101SOLUCOES ACO USIMINAS                                                 0000000034100000000000000000000000000000855028720000002254329340017200202     201209202012072600000000054620000680385000000000708966000000000000000000000000028581050000000000  3020121011   01          2                                                                                   3112254329348293807258000079                                                  N                     01321  0000000        000098
12042956441000101SOLUCOES ACO USIMINAS                                                 0000000034100000000000000000000000000000855028730000002254329350017200302     201209202012072600000000054620000156896000000000163490000000000000000000000000006594050000000000  3020121011   01          2                                                                                   3112254329355293807258000029                                                  N                     01321  0000000        000099
12042956441000101SOLUCOES ACO USIMINAS                                                 0000000034100000000000000000000000000000855028770000002254329400017220502     201209212012072700000000054630000981022000000001020262000000000000000000000000039240050000000000  3020121011   01          2                                                                                   3112254329405293807258000099                                                  N                     01321  0000000        000100
12042956441000101SOLUCOES ACO USIMINAS                                                 0000000034100000000000000000000000000000856906410000002262886280017266201     201208282012073000000000054390000119472000000000129988000000000000000000000000010516050000000000  3020121011   01          2                                                                                   3112262886289293807258000089                                                  N                     01321  0000000        000101
12042956441000101SOLUCOES ACO USIMINAS                                                 0000000034100000000000000000000000000000856906420000002262886290017266301     201208282012073000000000054390000145069000000000157829000000000000000000000000012760050000000000  3020121011   01          2                                                                                   3112262886297293807258000099                                                  N                     01321  0000000        000102
12042956441000101SOLUCOES ACO USIMINAS                                                 0000000034100000000000000000000000000000856906430000002262886300017266202     201209252012073000000000054670000119436000000000123260000000000000000000000000003824050000000000  3020121011   01          2                                                                                   3112262886305293807258000019                                                  N                     01321  0000000        000103
12042956441000101SOLUCOES ACO USIMINAS                                                 0000000034100000000000000000000000000000856906440000002262886310017266302     201209252012073000000000054670000145025000000000149665000000000000000000000000004640050000000000  3020121011   01          2                                                                                   3112262886313293807258000029                                                  N                     01321  0000000        000104
12042956441000101SOLUCOES ACO USIMINAS                                                 0000000034100000000000000000000000000000858616390000002271409750017315102     201209272012080200000000054690000579374000000000595600000000000000000000000000016226050000000000  3020121011   01          2                                                                                   3112271409750293807258000019                                                  N                     01321  0000000        000105
12042956441000101SOLUCOES ACO USIMINAS                                                 0000000034100000000000000000000000000000858616400000002271409760017316002     201209272012080200000000054690000929451000000000955477000000000000000000000000026026050000000000  3020121011   01          2                                                                                   3112271409768293807258000079                                                  N                     01321  0000000        000106
12042956441000101SOLUCOES ACO USIMINAS                                                 0000000034100000000000000000000000000000858616410000002271409770017319302     201209272012080200000000054690000981526000000001009008000000000000000000000000027482050000000000  3020121011   01          2                                                                                   3112271409776293807258000019                                                  N                     01321  0000000        000107
12042956441000101SOLUCOES ACO USIMINAS                                                 0000000034100000000000000000000000000000858616420000002271409780017319402     201209272012080200000000054690000178902000000000183914000000000000000000000000005012050000000000  3020121011   01          2                                                                                   3112271409784293807258000029                                                  N                     01321  0000000        000108
12042956441000101SOLUCOES ACO USIMINAS                                                 0000000034100000000000000000000000000000858616430000002271409790017319502     201209272012080200000000054690000197380000000000202910000000000000000000000000005530050000000000  3020121011   01          2                                                                                   3112271409792293807258000049                                                  N                     01321  0000000        000109
12042956441000101SOLUCOES ACO USIMINAS                                                 0000000034100000000000000000000000000000858616440000002271409800017319602     201209272012080200000000054690000197044000000000202560000000000000000000000000005516050000000000  3020121011   01          2                                                                                   3112271409800293807258000019                                                  N                     01321  0000000        000110
12042956441000101SOLUCOES ACO USIMINAS                                                 0000000034100000000000000000000000000000858616450000002271409810017319702     201209272012080200000000054690000197212000000000202728000000000000000000000000005516050000000000  3020121011   01          2                                                                                   3112271409818293807258000019                                                  N                     01321  0000000        000111
12042956441000101SOLUCOES ACO USIMINAS                                                 0000000034100000000000000000000000000000858616460000002271409820017319802     201209272012080200000000054690000194525000000000199971000000000000000000000000005446050000000000  3020121011   01          2                                                                                   3112271409826293807258000079                                                  N                     01321  0000000        000112
12042956441000101SOLUCOES ACO USIMINAS                                                 0000000034100000000000000000000000000000859590620000002274469790017353702     201209282012080300000000054700000081053000000000083159000000000000000000000000002106050000000000  3020121011   01          2                                                                                   3112274469793293807258000069                                                  N                     01321  0000000        000113
12042956441000101SOLUCOES ACO USIMINAS                                                 0000000034100000000000000000000000000000859590630000002274469800017353802     201209282012080300000000054700000166998000000000171340000000000000000000000000004342050000000000  3020121011   01          2                                                                                   3112274469801293807258000059                                                  N                     01321  0000000        000114
12043217850000159IOB INFORMACOES OBJ  PUBL JURI                                        0000000023702374400000002958600 000000008711912800902243000063301440820F2     201209202012083000000000054620000072850000000000074811000000000000000000000000001961050000000000  3020121011   01          2  R GANGES 528                                                                     3                         000000000000000                                     N                     00598  0000000        000115
12043217850000159IOB INFORMACOES OBJ  PUBL JURI                                        0000000023702374400000002958600 000000008540495200902212000099001440820E4     201208202012073000000000054310000072850000000000075555000000000000000000000000002705050000000000  3020121011   01          2  GANGES 528 VL NOVA MANCHESTER                                                    3                         000000000000000                                     N                     00598  0000000        000116
12045635984000115CRIFER LAMINADOS DE ACO E FERR                                        0000000000100000000000000000000000000000898741120000000041640000035395E01     201211052012100900000000055080000802816000000000802816000000000000000000000000000000050000000000  3020121105   01FS        1                                                                                   3000000147532500000041641779                                                  N                     01321  0000000        000117
12045635984000115CRIFER LAMINADOS DE ACO E FERR                                        0000000000100000000000000000000000000000898741130000000041650000035395E02     201212032012100900000000055360000802816000000000802816000000000000000000000000000000050000000000  3020121203   01FS        1                                                                                   3000000147532500000041651769                                                  N                     01321  0000000        000118
12045635984000115CRIFER LAMINADOS DE ACO E FERR                                        0000000000100000000000000000000000000000898741140000000041660000035395E03     201301032012100900000000055670000802816000000000802816000000000000000000000000000000050000000000  3020130103   01FS        1                                                                                   3000000147532500000041661719                                                  N                     01321  0000000        000119
12047190731000100DE CASTRO LOUR ENG IND LTDA                                           00000000341000000000000000000000000000008782050900000023399953503026612 0     201209182012082100000000054600001111489000000001161767000000000000000000000000050278050000000000  3020121011   01          2                                                                                   3112339995352036884500400019                                                  N                     01321  0000000        000120
12047190731000100DE CASTRO LOUR ENG IND LTDA                                           00000000341000000000000000000000000000008782051200000023399953803026613 0     201209182012082100000000054600001107989000000001158106000000000000000000000000050117050000000000  3020121011   01          2                                                                                   3112339995386036884500400039                                                  N                     01321  0000000        000121
12047190731000100DE CASTRO LOUR ENG IND LTDA                                           00000000341000000000000000000000000000008782052500000023399955603026636 0     201209192012082200000000054610000940804000000000981504000000000000000000000000040700050000000000  3020121011   01          2                                                                                   3112339995568036884500400049                                                  N                     01321  0000000        000122
12047190731000100DE CASTRO LOUR ENG IND LTDA                                           00000000341000000000000000000000000000008782052700000023399956203026648 0     201209202012082300000000054620000976053000000001016373000000000000000000000000040320050000000000  3020121011   01          2                                                                                   3112339995626036884500400029                                                  N                     01321  0000000        000123
12047190731000100DE CASTRO LOUREIRO ENGENHARIA                                         00000000033000000000000000000000000000008826685200000010000000003026873 0     201210102012091200000000054820000947530000000000966481000000000000000000000000018951050000000000  3020121011   01          2                                                                                   3948430370000009553410020399                                                  N                     01321  0000000        000124
12047190731000100DE CASTRO LOUR ENG IND LTDA                                           00000000341000000000000000000000000000008782051600000023399954103026614 0     201209182012082100000000054600001047621000000001095001000000000000000000000000047380050000000000  3020121011   01          2                                                                                   3112339995410036884500400039                                                  N                     01321  0000000        000125
12047190731000100DE CASTRO LOUR ENG IND LTDA                                           00000000341000000000000000000000000000008782052000000023399955303026632 0     201209192012082200000000054610000952073000000000993257000000000000000000000000041184050000000000  3020121011   01          2                                                                                   3112339995535036884500400019                                                  N                     01321  0000000        000126
12047190731000100DE CASTRO LOUR ENG IND LTDA                                           00000000341000000000000000000000000000008782052100000023399955903026643 0     201209202012082300000000054620000867039000000000902844000000000000000000000000035805050000000000  3020121011   01          2                                                                                   3112339995592036884500400049                                                  N                     01321  0000000        000127
12048775225000146SEIKI IND COM E CONFECCOES LTD                                        000000003410000000000000000000000000000087820591000000235780573014311001      201209282012083100000000054700000052000000000000053014000000000000000000000000001014050000000000  3020121011   01          2                                                                                   3112357805731017444824100069                                                  N                     01321  0000000        000128
12051180370000199IGUAFER FERRO E ACO LTDA                                              0000000034100000000000000000000000000000852309100000002239389789443 B         201209022012071800000000054440000168275000000000179195000000000000000000000000010920050000000000  3020121011   01          2                                                                                   3112239389789077149484600089                                                  N                     01321  0000000        000129
12051180370000199IGUAFER FERRO E ACO LTDA                                              0000000034100000000000000000000000000000852309110000002239389799443 C         201209122012071800000000054540000168275000000000176395000000000000000000000000008120050000000000  3020121011   01          2                                                                                   3112239389797077149484600089                                                  N                     01321  0000000        000130
12051180370000199IGUAFER FERRO E ACO LTDA                                              0000000034100000000000000000000000000000852309120000002239389809443 D         201209222012071800000000054640000168275000000000173595000000000000000000000000005320050000000000  3020121011   01          2                                                                                   3112239389805077149484600029                                                  N                     01321  0000000        000131
12053585766000141MULTIACOS I C PRODS TEC LTDA                                          0000000042200000000000000000000000000000875773340000000000000000004584601     201210042012090400000000054760000349502000000000353582000000000000000000000000004080050000000000  3020121011   01          2                                                                                   3711500005033164919152309149                                                  N                     01321  0000000        000132
12053585766000141MULTIACOS INDUSTRIA E COMERCIO                                        0000000000100000000000000000000000000000885248120000003068230000004612201     201210092012091800000000054810000221054000000000221790000000000000000000000000000736050000000000  3020121011   01          2                                                                                   3044073068231912000139523189                                                  N                     01321  0000000        000133
12053585766000141MULTIACOS INDUSTRIA E COMERCIO                                        0000000000100000000000000000000000000000885248130000003068240000004612301     201210092012091800000000054810000655966000000000658152000000000000000000000000002186050000000000  3020121011   01          2                                                                                   3044073068241912000139523119                                                  N                     01321  0000000        000134
12053585766000141MULTIACOS INDUSTRIA E COMERCIO                                        0000000000100000000000000000000000000000885248180000003067630000004545202     201210102012091800000000054820001004573000000001006247000000000000000000000000001674050000000000  3020121011   01          2                                                                                   3044073067631912000139523189                                                  N                     01321  0000000        000135
12053585766000141MULTIACOS INDUSTRIA E COMERCIO                                        0000000000100000000000000000000000000000885248280000003067620000004545102     201210102012091800000000054820000305114000000000305623000000000000000000000000000509050000000000  3020121011   01          2                                                                                   3044073067621912000139523139                                                  N                     01321  0000000        000136
12053585766000141MULTIACOS I C PRODS TEC LTDA                                          0000000042200000000000000000000000000000875773350000000000000000004584801     201210042012090400000000054760000390737000000000395293000000000000000000000000004556050000000000  3020121011   01          2                                                                                   3711500005033164919152317119                                                  N                     01321  0000000        000137
12053585766000141MULTIACOS I C PRODS TEC LTDA                                          0000000042200000000000000000000000000000875773360000000000000000004585401     201210042012090400000000054760001079482000000001092074000000000000000000000000012592050000000000  3020121011   01          2                                                                                   3711500005033164919152333119                                                  N                     01321  0000000        000138
12053585766000141MULTIACOS I C PRODS TEC LTDA                                          0000000042200000000000000000000000000000875773380000000000000000004585101     201210042012090400000000054760000229536000000000232216000000000000000000000000002680050000000000  3020121011   01          2                                                                                   3711500005033164919152325169                                                  N                     01321  0000000        000139
12053585766000141MULTIACOS I C PRODS TEC LTDA                                          0000000042200000000000000000000000000000875773390000000000000000004521802     201210052012090400000000054770000811642000000000819759000000000000000000000000008117050000000000  3020121011   01          2                                                                                   3711500005033164919152279169                                                  N                     01321  0000000        000140
12053585766000141MULTIACOS I C PRODS TEC LTDA                                          0000000042200000000000000000000000000000875773410000000000000000004445203     201210042012090400000000054760000224283000000000226900000000000000000000000000002617050000000000  3020121011   01          2                                                                                   3711500005033164919152422119                                                  N                     01321  0000000        000141
12053585766000141MULTIACOS I C PRODS TEC LTDA                                          0000000042200000000000000000000000000000875773430000000000000000004446103     201210042012090400000000054760000687401000000000695422000000000000000000000000008021050000000000  3020121011   01          2                                                                                   3711500005033164919152431119                                                  N                     01321  0000000        000142
12053585766000141MULTIACOS I C PRODS TEC LTDA                                          0000000042200000000000000000000000000000875773470000000000000000004595001     201210052012090400000000054770000716798000000000723967000000000000000000000000007169050000000000  3020121011   01          2                                                                                   3711500005033164919152350149                                                  N                     01321  0000000        000143
12053585766000141MULTIACOS I C PRODS TEC LTDA                                          0000000042200000000000000000000000000000875773480000000000000000004595101     201210052012090400000000054770000365510000000000369163000000000000000000000000003653050000000000  3020121011   01          2                                                                                   3711500005033164919152368119                                                  N                     01321  0000000        000144
12053585766000141MULTIACOS I C PRODS TEC LTDA                                          0000000042200000000000000000000000000000883508290000000000000000004539302     201210092012091300000000054810001021454000000001024857000000000000000000000000003403050000000000  3020121011   01          2                                                                                   3711500005033164921116594119                                                  N                     01321  0000000        000145
12053585766000141MULTIACOS I C PRODS TEC LTDA                                          0000000042200000000000000000000000000000878205700000000000000000004612001     201210092012082800000000054810000479980000000000481579000000000000000000000000001599050000000000  3020121011   01          2                                                                                   3711500005033164917492609199                                                  N                     01321  0000000        000146
12053585766000141MULTIACOS I C PRODS TEC LTDA                                          0000000042200000000000000000000000000000878205710000000000000000004594901     201210052012082800000000054770000145728000000000147185000000000000000000000000001457050000000000  3020121011   01          2                                                                                   3711500005033164917492617119                                                  N                     01321  0000000        000147
12053585766000141MULTIACOS I C PRODS TEC LTDA                                          0000000042200000000000000000000000000000875773490000000000000000004453003     201210052012090400000000054770000619209000000000625400000000000000000000000000006191050000000000  3020121011   01          2                                                                                   3711500005033164919152414179                                                  N                     01321  0000000        000148
12053585766000141MULTIACOS I C PRODS TEC LTDA                                          0000000042200000000000000000000000000000875773520000000000000000004447203     201210042012090400000000054760000425031000000000429986000000000000000000000000004955050000000000  3020121011   01          2                                                                                   3711500005033164919152449179                                                  N                     01321  0000000        000149
12053585766000141MULTIACOS I C PRODS TEC LTDA                                          0000000042200000000000000000000000000000875773530000000000000000004437703     201210052012090400000000054770000145364000000000146815000000000000000000000000001451050000000000  3020121011   01          2                                                                                   3711500005033164919152490159                                                  N                     01321  0000000        000150
12053585766000141MULTIACOS I C PRODS TEC LTDA                                          0000000042200000000000000000000000000000875773560000000000000000004452003     201210052012090400000000054770000865030000000000873681000000000000000000000000008651050000000000  3020121011   01          2                                                                                   3711500005033164919152465149                                                  N                     01321  0000000        000151
12053585766000141MULTIACOS I C PRODS TEC LTDA                                          0000000042200000000000000000000000000000875773580000000000000000004445103     201210042012090400000000054760000287235000000000290587000000000000000000000000003352050000000000  3020121011   01          2                                                                                   3711500005033164919152520119                                                  N                     01321  0000000        000152
12054382510000108SETENTA IND E COM DE MADEIRAS                                         0000000034100000000000000000000000000000860403430000002277814474462 A         201209042012080700000000054460000191200000000000205112000000000000000000000000013912050000000000  3020121011   01          2                                                                                   3112277814474057049175300069                                                  N                     01321  0000000        000153
12054382510000108SETENTA IND E COM DE MADEIRAS                                         0000000034100000000000000000000000000000874070720000002305114064536 A         201209192012081600000000054610000191200000000000199472000000000000000000000000008272050000000000  3020121011   01          2                                                                                   3112305114061057002848000039                                                  N                     01321  0000000        000154
12054382510000108SETENTA IND E COM DE MADEIRAS                                         0000000034100000000000000000000000000000883508330000002392776804604 A         201210082012091300000000054800000116600000000000117287000000000000000000000000000687050000000000  3020121011   01          2                                                                                   3112392776806057049175300019                                                  N                     01321  0000000        000155
12056993512000150CYKLOP DO BRASIL EMBALAGENS SA                                        0000000034100000000000000000000000000000874070500000002362586810134932        201210012012090300000000054730000083607000000000086677000000000000000000000000003070050000000000  3020121011   01          2                                                                                   3112362586813025700015800019                                                  N                     01321  0000000        000156
12056993900000131CIA METALURGICA PRADA                                                 0000000034100000000000000000000000000000844838960000002201181950025629303     201210032012071100000000054750000257905000000000261345000000000000000000000000003440050000000000  3020121011   01          2                                                                                   3112201181958293800573900099                                                  N                     01321  0000000        000157
12056993900000131CIA METALURGICA PRADA                                                 0000000034100000000000000000000000000000844838970000002201181960025629403     201210032012071100000000054750000249372000000000252700000000000000000000000000003328050000000000  3020121011   01          2                                                                                   3112201181966293800573900019                                                  N                     01321  0000000        000158
12056993900000131CIA METALURGICA PRADA                                                 0000000034100000000000000000000000000000848180660000002218222710025830003     201210092012071700000000054810000247672000000000248498000000000000000000000000000826050000000000  3020121011   01          2                                                                                   3112218222712293800573900019                                                  N                     01321  0000000        000159
12056993900000131CIA METALURGICA PRADA                                                 0000000034100000000000000000000000000000848180670000002218222720025830103     201210092012071700000000054810000207402000000000208094000000000000000000000000000692050000000000  3020121011   01          2                                                                                   3112218222720293800573900079                                                  N                     01321  0000000        000160
12056993900000131CIA METALURGICA PRADA                                                 0000000034100000000000000000000000000000844838980000002201181970025635303     201210032012071100000000054750000406843000000000412267000000000000000000000000005424050000000000  3020121011   01          2                                                                                   3112201181974293800573900089                                                  N                     01321  0000000        000161
12056993900000131CIA METALURGICA PRADA                                                 0000000034100000000000000000000000000000840312930000002179478290025419302     201208282012070300000000054390000402178000000000431658000000000000000000000000029480050000000000  3020121011   01          2                                                                                   3112179478295293800573900089                                                  N                     01321  0000000        000162
12056993900000131CIA METALURGICA PRADA                                                 0000000034100000000000000000000000000000840312940000002179478300025419402     201208282012070300000000054390000322804000000000346476000000000000000000000000023672050000000000  3020121011   01          2                                                                                   3112179478303293800573900079                                                  N                     01321  0000000        000163
12056993900000131CIA METALURGICA PRADA                                                 0000000034100000000000000000000000000000844838990000002201181980025635403     201210032012071100000000054750000208689000000000211473000000000000000000000000002784050000000000  3020121011   01          2                                                                                   3112201181982293800573900059                                                  N                     01321  0000000        000164
12056993900000131CIA METALURGICA PRADA                                                 0000000034100000000000000000000000000000844839000000002201181880025629402     201209052012071100000000054470000249372000000000264348000000000000000000000000014976050000000000  3020121011   01          2                                                                                   3112201181883293800573900019                                                  N                     01321  0000000        000165
12056993900000131CIA METALURGICA PRADA                                                 0000000034100000000000000000000000000000844839010000002201181890025635302     201209052012071100000000054470000406842000000000431250000000000000000000000000024408050000000000  3020121011   01          2                                                                                   3112201181891293800573900019                                                  N                     01321  0000000        000166
12056993900000131CIA METALURGICA PRADA                                                 0000000034100000000000000000000000000000844839020000002201181900025635402     201209052012071100000000054470000208689000000000221217000000000000000000000000012528050000000000  3020121011   01          2                                                                                   3112201181909293800573900069                                                  N                     01321  0000000        000167
12056993900000131CIA METALURGICA PRADA                                                 0000000034100000000000000000000000000000844839030000002201181910025635502     201209052012071100000000054470000164780000000000174680000000000000000000000000009900050000000000  3020121011   01          2                                                                                   3112201181917293800573900029                                                  N                     01321  0000000        000168
12056993900000131CIA METALURGICA PRADA                                                 0000000034100000000000000000000000000000844839040000002201181920025635602     201209052012071100000000054470000339933000000000360345000000000000000000000000020412050000000000  3020121011   01          2                                                                                   3112201181925293800573900069                                                  N                     01321  0000000        000169
12056993900000131CIA METALURGICA PRADA                                                 0000000034100000000000000000000000000000844839050000002201181930025636202     201209052012071100000000054470000746213000000000790997000000000000000000000000044784050000000000  3020121011   01          2                                                                                   3112201181933293800573900019                                                  N                     01321  0000000        000170
12056993900000131CIA METALURGICA PRADA                                                 0000000034100000000000000000000000000000844839060000002201181940025644402     201209052012071100000000054470000779647000000000826411000000000000000000000000046764050000000000  3020121011   01          2                                                                                   3112201181941293800573900019                                                  N                     01321  0000000        000171
12056993900000131CIA METALURGICA PRADA                                                 0000000034100000000000000000000000000000844839070000002201181990025635503     201210032012071100000000054750000164779000000000166979000000000000000000000000002200050000000000  3020121011   01          2                                                                                   3112201181990293800573900019                                                  N                     01321  0000000        000172
12056993900000131CIA METALURGICA PRADA                                                 0000000034100000000000000000000000000000844839080000002201182000025635603     201210032012071100000000054750000339934000000000344470000000000000000000000000004536050000000000  3020121011   01          2                                                                                   3112201182006293800573900069                                                  N                     01321  0000000        000173
12056993900000131CIA METALURGICA PRADA                                                 0000000034100000000000000000000000000000844839090000002201182010025636203     201210032012071100000000054750000746212000000000756164000000000000000000000000009952050000000000  3020121011   01          2                                                                                   3112201182014293800573900079                                                  N                     01321  0000000        000174
12056993900000131CIA METALURGICA PRADA                                                 0000000034100000000000000000000000000000844839100000002201182020025644403     201210032012071100000000054750000779647000000000790039000000000000000000000000010392050000000000  3020121011   01          2                                                                                   3112201182022293800573900049                                                  N                     01321  0000000        000175
12056993900000131CIA METALURGICA PRADA                                                 0000000034100000000000000000000000000000844839140000002201181870025629302     201209052012071100000000054470000257906000000000273386000000000000000000000000015480050000000000  3020121011   01          2                                                                                   3112201181875293800573900069                                                  N                     01321  0000000        000176
12056993900000131CIA METALURGICA PRADA                                                 0000000034100000000000000000000000000000848180620000002218222670025829902     201209112012071700000000054530000498118000000000523018000000000000000000000000024900050000000000  3020121011   01          2                                                                                   3112218222670293800573900029                                                  N                     01321  0000000        000177
12056993900000131CIA METALURGICA PRADA                                                 0000000034100000000000000000000000000000848180630000002218222680025830002     201209112012071700000000054530000247673000000000260063000000000000000000000000012390050000000000  3020121011   01          2                                                                                   3112218222688293800573900059                                                  N                     01321  0000000        000178
12056993900000131CIA METALURGICA PRADA                                                 0000000034100000000000000000000000000000848180640000002218222690025830102     201209112012071700000000054530000207402000000000217782000000000000000000000000010380050000000000  3020121011   01          2                                                                                   3112218222696293800573900039                                                  N                     01321  0000000        000179
12056993900000131CIA METALURGICA PRADA                                                 0000000034100000000000000000000000000000848180650000002218222700025829903     201210092012071700000000054810000498119000000000499779000000000000000000000000001660050000000000  3020121011   01          2                                                                                   3112218222704293800573900019                                                  N                     01321  0000000        000180
12056993900000131CIA METALURGICA PRADA                                                 0000000034100000000000000000000000000000824820100000002102181160024711603     201208292012060600000000054400000833146000000000892873000000000000000000000000059727050000000000  3020121011   01          2                                                                                   3112102181164293800573900039                                                  N                     01321  0000000        000181
12057029431000106ATLAS COPCO BRASIL LTDA                                               0000000034100000000000000000000000000000863731640000002292733057000054146     201209072012081000000000054490000081450000000000083286000000000000000000000000001836050000000000  3020121011   01          2                                                                                   3112292733055293804111400099                                                  N                     01321  0000000        000182
12057029431000106ATLAS COPCO BRASIL LTDA                                               0000000034100000000000000000000000000000861960280000002283943487000054090     201209062012080900000000054480000059490000000000060855000000000000000000000000001365050000000000  3020121011   01          2                                                                                   3112283943481293804111400069                                                  N                     01321  0000000        000183
12059659615000177DZ COMERCIO R E SERVICOS LTDA                                         000000003410000000000000000000000000000086699205000000900000268252            201209172012081500000000054590000060000000000000062880000000000000000000000000002880050000000000  3020121011   01          2                                                                                   3109000002680000314585100059                                                  N                     01321  0000000        000184
12061217188000119TELAS METALICAS TELMETAL LTDA                                         0000000000100000000000000000000000000000871191250000000056800005569 3 3       201210082012082900000000054800000060518000000000061001000000000000000000000000000483050000000000  3020121011   01          2                                                                                   3000000115031800000056801719                                                  N                     01321  0000000        000185
12061217188000119TELAS METALICAS TELMETAL LTDA                                         0000000000100000000000000000000000000000872952800000000057020005605 1 1       201210082012090300000000054800000104934000000000105774000000000000000000000000000840050000000000  3020121011   01          2                                                                                   3000000115031800000057021789                                                  N                     01321  0000000        000186
12061217188000119TELAS METALICAS TELMETAL LTDA                                         0000000000100000000000000000000000000000871191240000000056790005569 2 3       201210012012082900000000054730000060518000000000060840000000000000000000000000000483050000000000  3020121003   05          3                                                                                   3000000115031800000056791739                                                  N                     01321  0000000        000187
12061612735000160IMP TEIXEIRA DE FERRAGENS LTDA                                        0000000034100000000000000000000000000000878205810000002351838130000086481     201209242012082700000000054660000029325000000000030877000000000000000000000000001649050000000000  3020121010   06          3                                                                                   3112351838134000442318200079                                                  N                     01321  0000000        000188
12062340989000130EDICOES ADUANEIRAS LTDA                                               0000000023703090200000000015660 0000000079108232009080000035030004262 D       201209302012041100000000054720000043600000000000044392000000000000000000000000000792050000000000  3020121011   01          2  RUA TAMAINDE 1410 RUA GANGES 520 E 528                                           3                         000000000000000                                     N                     00598  0000000        000189
12062510367000102ITANHAEM TRANSP DE MAQUINAS LT                                        000000003410000000000000000000000000000087407049000000236463199667            201209202012090400000000054620000248220000000000269073000000000000000000000000020853050000000000  3020121011   01          2                                                                                   3112364631997005770252400049                                                  N                     01321  0000000        000190
12062539994000176LEALFER INDUSTRIA E COMERCIO D                                        0000000003300000000000000000000000000000884432810000003900000000005479101     201210092012091100000000054810001068982000000001072616000000000000000000000000003634050000000000  3020121011   01          2                                                                                   3915298380000000260339010499                                                  N                     01321  0000000        000191
12064952757000168WALMAC COM DE PROD QUIMICOS LT                                        0000000034100000000000000000000000000000844063810000002196829110019356        201210022012071000000000054740000219266000000000223145000000000000000000000000003879050000000000  3020121011   01          2                                                                                   3112196829116064807961400089                                                  N                     01321  0000000        000192
12064952757000168WALMAC COM DE PROD QUIMICOS LT                                        0000000034100000000000000000000000000000860403450000002275821700020148        201210052012080300000000054770000219267000000000221853000000000000000000000000002586050000000000  3020121011   01          2                                                                                   3112275821703064807961400029                                                  N                     01321  0000000        000193
12064952757000168WALMAC COM DE PROD QUIMICOS LT                                        0000000034100000000000000000000000000000860403460000002275821710020148        201208312012080300000000054420000219267000000000236938000000000000000000000000017671050000000000  3020121011   01          2                                                                                   3112275821711064807961400079                                                  N                     01321  0000000        000194
12065000655000105HILTI DO BRASIL COMERCIAL LTDA                                        0000000023703396000000000243787 00000000871682760090224400001640002179001     201209272012082800000000054690000019742000000000020288000000000000000000000000000546050000000000  3020121011   01          2  RUA TAMAINDE 1410                                                                3                         000000000000000                                     N                     00598  0000000        000195
12066841552000130R V SEG PATRIMONIAL S C LTDA                                          00000000341000000000000000000000000000008887329800000090002213622136          201210102012091100000000054820000374758000000000374883000000000000000000000000000125050000000000  3020121011   01          2                                                                                   3109000221365001838994000069                                                  N                     01321  0000000        000196
12066841552000130R V SEG PATRIMONIAL LTDA                                              00000000341000000000000000000000000000008852483200000090002192721927          201209102012081000000000054520000483241000000000488232000000000000000000000000004991050000000000  3020121011   01          2                                                                                   3109000219270001835253400099                                                  N                     01321  0000000        000197
12066970229000167NEXTEL TELECOMUNICACOES LTDA                                          0000000023702374400000001596233 0000000088957855009000015144847215472 3       201210102012062100000000054820000011636000000000011868000000000000000000000000000232050000000000  3020121011   01          2  R GANGES  520 VILA CARRAO BR                                                     3                         000000000000000                                     N                     00598  0000000        000198
12066970229000167NEXTEL TELECOMUNICACOES LTDA                                          0000000023702374400000001596233 0000000088957856009000015144848691888 10      201210102011121400000000054820000015870000000000016187000000000000000000000000000317050000000000  3020121011   01          2  R GANGES  520 VILA CARRAO BR                                                     3                         000000000000000                                     N                     00598  0000000        000199
