0000147602043799295000110ALTAMIRA INDUSTRIA METALURGICA LT       202000000438320130111212632             3                                                                                                  000000000000000                                                                                                                                                                                                                                                                                   000001
12062344882000160INDUSTRIA COM PARAFUS NAP LTDA                                        00000000341000000000000000000000000000009345238100000026481977212692 3        201301112012113000000000055750000096582000000000096582000000000000000000000000000000050000000000  3020130111   02BW        2000000               000000000000000                                               3112648197724482812260800039               12692/03                           N                     01132 10020256        000002
12011284925000128MF FERRAGENS LTDA                                                     00000000341000000000000000000000000000009373666900000026626617610043 B        201301112012120700000000055750000057500000000000057500000000000000000000000000000000050000000000  3020130111   02BW        2000000               000000000000000      MF FERRAGENS LTDA.                       3112662661761162659025900019               10043/02                           N                     01132 10020256        000003
12035820448000136WHITE MARTINS GASES INDUSTRIAI                                        0000000023700026400000003937925 0000000094204979009023530002184423222 001     201301112012121800000000055750000243450000000000243450000000000000000000000000000000050000000000  3020130111   02BW        2000000               000000000000000                                               3                         000000000000000  012725                             N                     01079 10020256        000004
12071580302000124SANCHEPEL IND PAULISTA EMB L                                          0000000034100000000000000000000000000000941026010000002682557788357           201301112012121300000000055750000103500000000000103500000000000000000000000000000000050000000000  3020130111   02BW        2000000               000000000000000                                               3112682557783007855578600049               8357                               N                     01132 10020256        000005
12002269980000158PANKRO LOGISTICA E TRANSP LTDA                                        000000003410000000000000000000000000000094102608000000708928428349 B          201301112012121700000000055750000180000000000000180000000000000000000000000000000000050000000000  3020130111   02BW        2000000               000000000000000                                               3157089284284898907620600029               CONHEC.349 - PARC.02/02.           N                     01132 10020256        000006
12042956441000101SOLUCOES ACO USIMINAS                                                 0000000034100000000000000000000000000000942049670000002689017180019514501     201301112012121400000000055750000176181000000000176181000000000000000000000000000000050000000000  3020130111   02BW        2000000               000000000000000                                               3112689017187293807258000089               195145/01                          N                     01132 10020256        000007
12055721609000141MAC SEG EQUIP DE SEGURANCA LT                                         0000000034100000000000000000000000000000942049600000002687798234390 1         201301112012121400000000055750000060050000000000060050000000000000000000000000000000050000000000  3020130111   02BW        2000000               000000000000000                                               3112687798234037814415800079               4390/01                            N                     01132 10020256        000008
12042956441000101SOLUCOES ACO USIMINAS                                                 0000000034100000000000000000000000000000942049720000002689017210019514901     201301112012121400000000055750000190062000000000190062000000000000000000000000000000050000000000  3020130111   02BW        2000000               000000000000000                                               3112689017211293807258000089               195149/01                          N                     01132 10020256        000009
12042956441000101SOLUCOES ACO USIMINAS                                                 0000000034100000000000000000000000000000942049710000002689017200019514801     201301112012121400000000055750000485334000000000485334000000000000000000000000000000050000000000  3020130111   02BW        2000000               000000000000000                                               3112689017203293807258000019               195148/01                          N                     01132 10020256        000010
12081560047000101ACEVILLE TRANSPORTES LTDA                                             000000000330000000000000000000000000000094689879000000550000000302455         201301112012122600000000055750000058400000000000058400000000000000000000000000000000050000000000  3020130111   02BW        2000000               000000000000000                                               3913555200000003024555010179               CONHECS.NROS.292017  &  292019.    N                     01132 10020256        000011
12042956441000101SOLUCOES ACO USIMINAS                                                 0000000034100000000000000000000000000000942049680000002689017190019514701     201301112012121400000000055750000230375000000000230375000000000000000000000000000000050000000000  3020130111   02BW        2000000               000000000000000                                               3112689017195293807258000089               195147/01                          N                     01132 10020256        000012
12002234917000186RODOVIARIO SOL NASCENTE LTDA                                          000000000010000000000000000000000000000094311056000000733464000035821         201301112012121700000000055750000050900000000000050900000000000000000000000000000000050000000000  3020130111   02BW        2000000               000000000000000                                               3044327334643028000124731199               CONHEC.NRO.035821                  N                     01132 10020256        000013
12066084377000184AUTO MECANICA M Z LTDA ME                                             0000000023701479600000000206385 0000000094008696009013234703179380            201301112012121200000000055750000082000000000000082000000000000000000000000000000000050000000000  3020130111   02BW        2000000               000000000000000                                               3                         000000000000000  380                                N                     01079 10020256        000014
900001500000000002014334                                                                                                                                                                                    000000000000000                                                                                                                                                                                                                                                    00001300724750002014334        000015
