0000147602043799295000110ALTAMIRA INDUSTRIA METALURGICA LT       202000000199320121211212345             3                                                                                                  000000000000000                                                                                                                                                                                                                                                                                   000001
12006000195000156M B A MERCANTIL BRASILEIRA DE R RINCAO 220                            0365108023700118000000002128292 I000000000010310000000000000000               201212110000000000000000000000000000000000000001110786000000000000000000000000000000050000000000  0120121211   02BW        5000000               000000000000000                                               3                                          REF.JUROS                          N                     01321 10020256        000002
12054382510000108SETENTA IND E COM DE MAD LTDA                                         0000000034100000 0000000000000  I000000000010311000000000000000               201212110000000000000000055440000193456000000000193456000000000000000000000000000000010000004843  3120121211   02BW        5000000               000000000000000                                               3181598264410057049175300079               4843                               N                     01130 10020256        000003
12062442132000120LAR INFANCIA DE NICE                                                  0000000060000000 0000000000000  I000000000010316000000000000000               201212110000000000000000000000000000000000000000005000000000000000000000000000000000010000000012  3120121211   02BW        5000000               000000000000000                                               3000112101030960000786654779               REF.12/2012                        N                     01130 10020256        000004
12062539994000176LEALFER INDUSTRIA E COMERCIO D                                        0000000034100000 0000000000000  I000000000010312000000000000000               201212110000000000000000055440000989780000000000989780000000000000000000000000000000010000055952  3120121211   02BW        5000000               000000000000000                                               3181597837200076103324000089               55952/02                           N                     01130 10020256        000005
12062539994000176LEALFER INDUSTRIA E COMERCIO D                                        0000000034100000 0000000000000  I000000000010313000000000000000               201212110000000000000000055440000919409000000000919409000000000000000000000000000000010000055951  3120121211   02BW        5000000               000000000000000                                               3181597836137076103324000049               055951/02                          N                     01130 10020256        000006
12067298349000122JOBINVEST FOMENTO MERCANTIL LT                                        0000000000100000 0000000000000  I000000000010315000000000000000               201212110000000000000000055440000109899000000000109899000000000000000000000000000000010000000540  3120121211   02BW        5000000               000000000000000                                               3161477975011204000105451779               0540 - PARC.01.                    N                     01130 10020256        000007
12014104961000150EDNILDE TRIGUERO DANTE DA SILVR ROQUE SOARES MEDELLA 132              0219009023701311000000001038206 I000000000010314000000000000000               201212110000000000000000000000000000000000000000174684000000000000000000000000000000010000000109  0120121211   02BW        5000000               000000000000000                                               3                                          NF.NRO.109 - PARC.01               N                     01321 10020256        000008
11053970358000031REINALDO CAMACHO RAMOS        AV SEBASTIAO HENRIQUES 428 TOR3 AP2     0272305023706698200000000021229 I000000000010309000000000000000               201212110000000000000000000000000000000000000000098304000000000000000000000000000000010000004881  0120121211   02BW        5000000               000000000000000                                               3                                          NF.NRO.04881.                      N                     01321 10020256        000009
12013937547000160DUBAY COMERCIAL LTDA                                                  0000000023701744200000000358460 0000000091471908009023110000004508 B          201212112012110600000000055440000045242000000000045242000000000000000000000000000000050000000000  3020121211   02BW        2000000               000000000000000                                               3                         000000000000000  508                                N                     01146 10020256        000010
12003498897000202TELECOMUNICACOES DE SAO PAULO                                         0000000023702372800000000360082 0000000092377941019066000957462V35020143      201212012012111900000000055340000321557000000000321557000000000000000000000000000000050000000000  3020121211   02BW        2000000               000000000000000                                               3                         000000000000000  35020143                           N                     01146 10020256        000011
12062539994000176LEALFER IN E COM DE ACO LTDA                                          0000000034100000000000000000000000000000899624850000002474449940005606002     201212112012100200000000055440000241703000000000241703000000000000000000000000000000050000000000  3020121211   02BW        2000000               000000000000000                                               3112474449942076103324000099               056060/02                          N                     01130 10020256        000012
12062539994000176LEALFER IN E COM DE ACO LTDA                                          0000000034100000000000000000000000000000915733900000002554593220005756801     201212112012102900000000055440000327558000000000327558000000000000000000000000000000050000000000  3020121211   02BW        2000000               000000000000000                                               3112554593221076103324000059               57568/01                           N                     01130 10020256        000013
12035820448000136WHITE MARTINS GASES INDUSTRIAI                                        0000000023700026400000003937925 0000000092126759009023210000567407534 001     201212112012111500000000055440000056805000000000056805000000000000000000000000000000050000000000  3020121211   02BW        2000000               000000000000000                                               3                         000000000000000  09477                              N                     01146 10020256        000014
900001500000000004594183                                                                                                                                                                                    000000000000000                                                                                                                                                                                                                                                    00001300498860003205409        000015
