0000147602043799295000110ALTAMIRA INDUSTRIA METALURGICA LT       202000000186420120911212329             3                                                                                                  000000000000000                                                                                                                                                                                                                                                                                   000001
12012006058000121WEG TINTAS LTDA                                                       0000000023702727800000000001309 I000000000009814009021880000084               201209110000000000000000054530000309833000000000309833000000000000000000000000000000010000149902  3120120911   02BW        5000000               000000000000000                                               3272709218800000840000130049               149902/02                          N                     01079 10020256        000002
12012006058000121WEG TINTAS LTDA                                                       0000000023702727800000000001309 I000000000009815009022050000120               201209110000000000000000054530000309833000000000309833000000000000000000000000000000010000153431  3120120911   02BW        5000000               000000000000000                                               3272709220500001200000130019               0153431/01                         N                     01079 10020256        000003
12006000195000156MBA MERCANTIL BRASIL ACO LTDA                                         0000000000100000 0000000000000  I000000000009840000000000000000               201209110000000000000000054530000666557000000000666557000000000000000000000000000000010000008656  3120120911   02BW        5000000               000000000000000                                               3043852571623333000105251179               8656/02                            N                     01132 10020256        000004
12053585766000141MULTIACOS IND COM PROD TEC LTD                                        0000000000100000 0000000000000  I000000000009809000000000000000               201209110000000000000000054530000652032000000000652032000000000000000000000000000000010000044297  3120120911   02BW        5000000               000000000000000                                               3043959910901912000139523189               044297/01                          N                     01132 10020256        000005
12053585766000141MULTIACOS IND COM PROD TEC LTD                                        0000000000100000 0000000000000  I000000000009808000000000000000               201209110000000000000000054530000983698000000000983698000000000000000000000000000000010000244219  3120120911   02BW        5000000               000000000000000                                               3043959910811912000139523179               244219/01                          N                     01132 10020256        000006
12042956441000101SOLUCOES EM ACO USIMINAS S A                                          0000000034100000 0000000000000  I000000000009817000000000000000               201209110000000000000000054530000183755000000000183755000000000000000000000000000000010000169029  3120120911   02BW        5000000               000000000000000                                               3181538774721293807258000019               0169029/02                         N                     01132 10020256        000007
12053585766000141MULTIACOS IND COM PROD TEC LTD                                        0000000000100000 0000000000000  I000000000009821000000000000000               201209110000000000000000054530000120483000000000120483000000000000000000000000000000010000042704  3120120911   02BW        5000000               000000000000000                                               3043959908451912000139523189               042704/03                          N                     01132 10020256        000008
12042956441000101SOLUCOES EM ACO USIMINAS S A                                          0000000034100000 0000000000000  I000000000009818000000000000000               201209110000000000000000054530000170722000000000170722000000000000000000000000000000010000173538  3120120911   02BW        5000000               000000000000000                                               3181538777385293807258000019               0173538/01                         N                     01132 10020256        000009
12006000195000156MBA MERCANTIL BRASIL ACO LTDA                                         0000000034100000 0000000000000  I000000000009841000000000000000               201209110000000000000000054530000602666000000000602666000000000000000000000000000000010000008920  3120120911   02BW        5000000               000000000000000                                               3181539114949064849251000079               8920/01                            N                     01132 10020256        000010
12004676708000118M H F  SISTEMAS LTDA                                                  0000000034100000 0000000000000  I000000000009838000000000000000               201209110000000000000000054530000015078000000000015078000000000000000000000000000000010000018680  3120120911   02BW        5000000               000000000000000                                               3181539095043013924573200019               18680                              N                     01132 10020256        000011
12061217188000119TELAS METALICAS TELMETAL LTDA                                         0000000034100000 0000000000000  I000000000009835000000000000000               201209110000000000000000054530000046601000000000046601000000000000000000000000000000010000005468  3120120911   02BW        5000000               000000000000000                                               3181539053055077099894600019               5468/01-01                         N                     01132 10020256        000012
12049318538000138COM FERRAMENTAS TERUYA LTDA                                           0000000034100000 0000000000000  I000000000009830000000000000000               201209110000000000000000054530000033632000000000033632000000000000000000000000000000010000190304  3120120911   02BW        5000000               000000000000000                                               3181538786201077000099000089               190304                             N                     01132 10020256        000013
12061217188000119TELAS METALICAS TELMETAL LTDA                                         0000000000100000 0000000000000  I000000000009827000000000000000               201209110000000000000000054530000052441000000000052441000000000000000000000000000000010000005442  3120120911   02BW        5000000               000000000000000                                               3000000115031800000055841719               5442/02-03                         N                     01132 10020256        000014
12055721609000141MAC SEG EQUIP DE SEGURANCA LT                                         0000000034100000 0000000000000  I000000000009826000000000000000               201209110000000000000000054530000052947000000000052947000000000000000000000000000000010000003190  3120120911   02BW        5000000               000000000000000                                               3181538500206037814415800079               03190                              N                     01132 10020256        000015
12061217188000119TELAS METALICAS TELMETAL LTDA                                         0000000000100000 0000000000000  I000000000009825000000000000000               201209110000000000000000054530000056568000000000056568000000000000000000000000000000010000005438  3120120911   02BW        5000000               000000000000000                                               3000000115031800000055781799               05438/01-03.                       N                     01132 10020256        000016
12008852780000100HOSTGATOR BRASIL HOSP SUP TEC                                         0000000034100000 0000000000000  I000000000009833000000000000000               201209110000000000000000054530000004999000000000004999000000000000000000000000000000010000046436  3120120911   02BW        5000000               000000000000000                                               3175101460985869105372500029               46436                              N                     01132 10020256        000017
12042956441000101SOLUCOES EM ACO USIMINAS S A                                          0000000034100000 0000000000000  I000000000009824000000000000000               201209110000000000000000054530000082859000000000082859000000000000000000000000000000010000173537  3120120911   02BW        5000000               000000000000000                                               3181538776239293807258000089               0173537/02                         N                     01132 10020256        000018
12061217188000119TELAS METALICAS TELMETAL LTDA                                         0000000000100000 0000000000000  I000000000009828000000000000000               201209110000000000000000054530000042005000000000042005000000000000000000000000000000010000005443  3120120911   02BW        5000000               000000000000000                                               3000000115031800000055871799               05443/02-03.                       N                     01132 10020256        000019
12007711227000194L BARBI REPRESENTACOES        R IRAPUA 225 CASA 8 PENHA CIRCULAR      2121506023702804500000000201758 I000000000009820000000000000000               201209110000000000000000000000000000000000000000130900000000000000000000000000000000010000000084  0120120911   02BW        5000000               000000000000000                                               3                                          NF.NRO.084                         N                     01321 10020256        000020
12035820448000136WHITE MARTINS GASES IND LTDA                                          0000000023700026400000003937925 I000000000009823009022140004425               201209110000000000000000054530000084285000000000084285000000000000000000000000000000010000008876  3120120911   02BW        5000000               000000000000000                                               3002609221400044250393792089               08876                              N                     01079 10020256        000021
12035820448000136WHITE MARTINS GASES IND LTDA                                          0000000023700026400000003937925 I000000000009819009022160000641               201209110000000000000000054530000168354000000000168354000000000000000000000000000000010000008883  3120120911   02BW        5000000               000000000000000                                               3002609221600006410393792079               08883                              N                     01079 10020256        000022
12043799295000110ALTAMIRA INDUSTRIA METAL LTDA                                         0000000065500001 00002217986012 I000000000009805000000000000000               201209110000000000000000000000000000000000000001000000000000000000000000000000000000050000000002  0820120911   02BW        5001200               000000000000000                                               3D0000000101                               02                                 S                     01133 10020256        000023
12033325184001786ALSCO TOALHEIRO BRASIL LTDA                                           0000000023702374400000000144002 I000000000009843019022260000228               201209110000000000000000054530000066504000000000066504000000000000000000000000000000010005776102  3120120911   02BW        5000000               000000000000000                                               3237419222600002280014400019               5776102                            N                     01079 10020256        000024
12007068566000102NIVEL EMPREGOS LTDA           AV CELSO GARCIA 3830                    0306400023700097300000003053792 I000000000009816000000000000000               201209110000000000000000000000000000000000000000150000000000000000000000000000000000010000002753  0120120911   02BW        5000000               000000000000000                                               3                                          NF.NRO.02753 - PARC.02.            N                     01321 10020256        000025
11258214076000072CELSO BERNARDO DA CRUZ E OU   R PE DONIZETE TAVARES DE LIMA 274       0240400023700092200000067722248 I000000000009812000000000000000               201209110000000000000000000000000000000000000000030000000000000000000000000000000000050000000000  0120120911   02BW        5000000               000000000000000                                               3                                          REF.AGOSTO/2012.                   N                     01321 20020256        000026
12051598472000129ELETRICA J SANTOS                                                     0000000023702451100000000000264 I000000000009834009022080000040               201209110000000000000000054530000115027000000000115027000000000000000000000000000000010000017933  3120120911   02BW        5000000               000000000000000                                               3245109220800000400000026069               17933/03                           N                     01079 10020256        000027
12005335228000156DINAMICA INFORMATICA TELEC LTD                                        0000000023703257300000000503215 I000000000009832009032570016796               201209110000000000000000054530000020813000000000020813000000000000000000000000000000010000008820  3120120911   02BW        5000000               000000000000000                                               3325709325700167960050321019               8820                               N                     01079 10020256        000028
12062340989000130EDICOES ADUANEIRAS LTDA                                               0000000023703090200000000015660 I000000000009836009080000035029               201209110000000000000000054530000044464000000000044464000000000000000000000000000000010000004262  3120120911   02BW        5000000               000000000000000                                               3309009800000350290001566019               04262/03                           N                     01079 10020256        000029
12069050532000130TRIONON TRANSPORTES LTDA                                              0000000034100257 00000000296673 I000000000009807000000000000000               201209110000000000000000000000000000000000000000370000000000000000000000000000000000050000000000  0820120911   02BW        5001200               000000000000000                                               3C0000000101                               CONHECS.NROS.21423/53/95/08.       N                     01076 10020256        000030
12002203713000188RODRIGUES E SARAGIOTTO COM LTD                                        000000002370627150000000000295P I000000000009839028022210000005               201209110000000000000000054530000017004000000000017004000000000000000000000000000000010000002991  3120120911   02BW        5000000               000000000000000                                               3627128222100000050000295019               2991                               N                     01079 10020256        000031
12001784706000154TRANSPORTADORA WARTHA LTDA                                            0000000023701775200000000260010 I000000000009829028022210000092               201209110000000000000000054530000034728000000000034728000000000000000000000000000000010002590131  3120120911   02BW        5000000               000000000000000                                               3177528222100000920026001049               2590131                            N                     01079 10020256        000032
12043799295000110ALTAMIRA INDUSTRIA METAL LTDA                                         0000000000103333200000000011029 I000000000009806000000000000000               201209110000000000000000000000000000000000000000600000000000000000000000000000000000050000000003  0820120911   02BW        5001200               000000000000000                                               3D0000000101                               03                                 S                     01133 10020256        000033
12069284248000128ISOCOAT TINTAS E VERNIZES LTDAR COMEND GIUSEPPE MARCHIORI 2189        1814700023703372300000000370002 I000000000009811000000000000000               201209110000000000000000000000000000000000000000019714000000000000000000000000000000010000052085  0120120911   02BW        5000000               000000000000000                                               3                                          DESPESAS DE CARTORIO               N                     01321 10020256        000034
12033325184001786ALSCO TOALHEIRO BRASIL LTDA                                           0000000023703396000000001490850 I000000000009837009000002679805               201209110000000000000000054530000053220000000000053220000000000000000000000000000000010000026798  3120120911   02BW        5000000               000000000000000                                               3339609000026798050149085029               026798/01                          N                     01079 10020256        000035
12033325184001786ALSCO TOALHEIRO BRASIL LTDA                                           0000000023703396000000001490850 I000000000009842009000028519503               201209110000000000000000054530000026503000000000026503000000000000000000000000000000010000285195  3120120911   02BW        5000000               000000000000000                                               3339609000285195030149085049               285195                             N                     01079 10020256        000036
12043799295000110ALTAMIRA INDUSTRIA METAL LTDA                                         0000000003303809500000130004071 I000000000009804000000000000000               201209110000000000000000000000000000000000000001000000000000000000000000000000000000050000000001  0820120911   02BW        5001200               000000000000000                                               3D0000000101                               01                                 S                     01133 10020256        000037
12006000195000156MBA MERCANTIL BRASIL ACO LTDA                                         0000000023700118000000002128292 I000000000009813009021490000012               201209110000000000000000054530000517280000000000517280000000000000000000000000000000010000008399  3120120911   02BW        5000000               000000000000000                                               3011809214900000120212829029               8399/03                            N                     01079 10020256        000038
12006000195000156M B A MERCANTIL BRASILEIRA DE R RINCAO 220                            0365108023700118000000002128292 I000000000009810000000000000000               201209110000000000000000000000000000000000000000566156000000000000000000000000000000010000008907  0120120911   02BW        5000000               000000000000000                                               3                                          8907/01                            N                     01321 10020256        000039
900004000000000009401661                                                                                                                                                                                    000000000000000                                                                                                                                                                                                                                                    00003801581370005534891        000040
