0000147602043799295000110ALTAMIRA INDUSTRIA METALURGICA LT       202000000186620120912212548             3                                                                                                  000000000000000                                                                                                                                                                                                                                                                                   000001
12075483040000130REX MAQ E EQUIPAMENTOS LTDA                                           0000000000100000 0000000000000  I000000000009851000000000000000               201209120000000000000000054540000064992000000000064992000000000000000000000000000000010000079547  3120120912   02BW        5000000               000000000000000                                               3043999123703420001185301139               79547/01                           N                     01132 10020256        000002
12009338857000190FERNANDO NAGAO SOC ADVOG                                              0000000003300000 0000000000000  I000000000009831000000000000000               201209120000000020120912054540000024134000000000021584000000000002550000000000000000010000072012  3120120912   02BW        5000000               000000000000000                                               3947901700000051047543010139               07/2012                            N                     01132 10020256        000003
12061100202000108COFIPE VEICULOS LTDA                                                  0000000039900000 0000000000000  I000000000009852000000000000000               201209120000000000000000054540000029296000000000029296000000000000000000000000000000010000012104  3120120912   02BW        5000000               000000000000000                                               3320005040400343608018900119               12104/02                           N                     01132 10020256        000004
12061217188000119TELAS METALICAS TELMETAL LTDA                                         0000000034100000 0000000000000  I000000000009850000000000000000               201209120000000000000000054540000115373000000000115373000000000000000000000000000000010000005484  3120120912   02BW        5000000               000000000000000                                               3181540002505077099894600019               5484/01                            N                     01132 10020256        000005
12003102481000134AB5 INDUSTRIA E COMERCIO LTDA                                         0000000034100000 0000000000000  I000000000009849000000000000000               201209120000000000000000054540000157900000000000157900000000000000000000000000000000010000002849  3120120912   02BW        5000000               000000000000000                                               3181540000210003154755700099               2849                               N                     01132 10020256        000006
12053585766000141MULTIACOS IND COM PROD TEC LTD                                        0000000000100000 0000000000000  I000000000009847000000000000000               201209120000000000000000054540000948537000000000948537000000000000000000000000000000010000044296  3120120912   02BW        5000000               000000000000000                                               3043978070011912000139523159               44296/01                           N                     01132 10020256        000007
12053585766000141MULTIACOS IND COM PROD TEC LTD                                        0000000000100000 0000000000000  I000000000009848000000000000000               201209120000000000000000054540000324959000000000324959000000000000000000000000000000010000044376  3120120912   02BW        5000000               000000000000000                                               3043978070091912000139523149               44376/01                           N                     01132 10020256        000008
12061100202000108COFIPE VEICULOS LTDA                                                  0000000039900000 0000000000000  I000000000009853000000000000000               201209120000000000000000054540000013856000000000013856000000000000000000000000000000010000005104  3120120912   02BW        5000000               000000000000000                                               3320005040240343608018900139               5104/02                            N                     01132 10020256        000009
12043799295000110ALTAMIRA INDUSTRIA METAL LTDA                                         0000000003303809500000130004071 I000000000009844000000000000000               201209120000000000000000000000000000000000000002500000000000000000000000000000000000050000000001  0820120912   02BW        5001530               000000000000000                                               3D0000000101                               01                                 S                     01133 10020256        000010
12006000195000156MBA MERCANTIL BRASIL ACO LTDA                                         0000000023700118000000002128292 I000000000009845009022060000008               201209120000000000000000054540000437437000000000437437000000000000000000000000000000010000008948  3120120912   02BW        5000000               000000000000000                                               3011809220600000080212829039               8948/01                            N                     01079 10020256        000011
12006000195000156MBA MERCANTIL BRASIL ACO LTDA                                         0000000023700118000000002128292 I000000000009846009022060000002               201209120000000000000000054540000194693000000000194693000000000000000000000000000000010000008949  3120120912   02BW        5000000               000000000000000                                               3011809220600000020212829049               8949/01                            N                     01079 10020256        000012
900001300000000004808627                                                                                                                                                                                    000000000000000                                                                                                                                                                                                                                                    00001100545400002311177        000013
