0000147602043799295000110ALTAMIRA INDUSTRIA METALURGICA LT       202000000195320121112213900             3                                                                                                  000000000000000                                                                                                                                                                                                                                                                                   000001
12060737301000124SERRALHERIA SEPETIBA LTDA     PCA ALFREDO WEISZFLOG 81                0504505023700368900000000503509 I000000000010184000000000000000               201211120000000000000000000000000000000000000000057440000000000000000000000000000000010000000316  0120121112   02BW        5000000               000000000000000                                               3                                          0316/05                            N                     01321 10020256        000002
12006209559000102MAZURKY IND COM EMB LTDA                                              000000003410000000000000000000000000000090751875000000252039992010684 1       201211122012101500000000055150000092263000000000092263000000000000000000000000000000050000000000  3020121112   02BW        2000000               000000000000000                                               3112520399927151434240900069               10684                              N                     01132 10020256        000003
12043298975000150JOMARCA INDL DE PARAFUSOS LTDA                                        0000000003300000000000000000000000000000881032810000006700000000157168 02     201211102012091100000000055130000365000000000000365000000000000000000000000000000000050000000000  3020121112   02BW        2000000               000000000000000                                               3935059520000000508667010419               157168/02                          N                     01132 10020256        000004
12061721320000125COMERCIAL DE PNEUS ROMA LTDA                                          000000000010000000000000000000000000000086455435000000914173000158203         201211112012081400000000055140000028000000000000028000000000000000000000000000000000050000000000  3020121112   02BW        2000000               000000000000000                                               3043979141733333000853153119               15820                              N                     01132 10020256        000005
12045351418000181TRANSP RODOR LTDA                                                     000000003410000000000000000000000000000090920324000000252907586302670  01     201211122012102600000000055150000030000000000000030000000000000000000000000000000000050000000000  3020121112   02BW        2000000               000000000000000                                               3112529075866005820000700099               302670/01                          N                     01132 10020256        000006
12013656578000142GUARINOR TRANSP E LOGISTICA LT                                        000000001040000000000000000000000000000091573373000000001389200001908 12      201211122012102300000000055150000224900000000000224900000000000000000000000000000000050000000000  3020121112   02BW        2000000               000000000000000                                               3900000138932958700000017319               001908/12                          N                     01132 10020256        000007
12056993512000150CYKLOP DO BRASIL EMBALAGENS SA                                        0000000034100000000000000000000000000000911410070000002533965040141142        201211122012102900000000055150000156290000000000156290000000000000000000000000000000050000000000  3020121112   02BW        2000000               000000000000000                                               3112533965045025786126000059               141142                             N                     01132 10020256        000008
12056993512000150CYKLOP DO BRASIL EMBALAGENS SA                                        0000000034100000000000000000000000000000911410080000002533965910001796        201211122012102900000000055150000020400000000000020400000000000000000000000000000000050000000000  3020121112   02BW        2000000               000000000000000                                               3112533965912025786126000059               1796                               N                     01132 10020256        000009
12045461761000189PROTEGE INDUSTRIA E COMERCIO M                                        0000000000100000000000000000000000000000910265730000006302760001642501        201211102012102900000000055130000012216000000000012216000000000000000000000000000000050000000000  3020121112   02BW        2000000               000000000000000                                               3044186302761192000128605119               16425                              N                     01132 10020256        000010
12001784706000154TRANSPORTES WARTHA LTDA                                               0000000023701775200000000260010 0000000090504096009022960000350SAO2678941     201211122012102200000000055150000033000000000000033000000000000000000000000000000000050000000000  3020121112   02BW        2000000               000000000000000                                               3                         000000000000000  2678941                            N                     01079 10020256        000011
12066841552000130RV SEGURANCA PATRIMONIAL SC LT                                        0000000023700122800000001495011 000000009005229400900000002233622336          201211102012101000000000055130000410467000000000410467000000000000000000000000000000050000000000  3020121112   02BW        2000000               000000000000000                                               3                         000000000000000  22336                              N                     01079 10020256        000012
12049341563000132JAC COMERCIO DE MATERIAIS ELET                                        0000000023700293300000001478699 00000000893373800020132276064772330403        201211122012100200000000055150000015523000000000015523000000000000000000000000000000050000000000  3020121112   02BW        2000000               000000000000000                                               3                         000000000000000  2330403                            N                     01079 10020256        000013
12065000655000105HILTI DO BRASIL COMERCIAL LTDA                                        0000000023703396000000000243787 00000000900522930090228900000950020464701     201211102012101100000000055130000023677000000000023677000000000000000000000000000000050000000000  3020121112   02BW        2000000               000000000000000                                               3                         000000000000000  204647                             N                     01079 10020256        000014
12062014881000157INDUSTRIA MEC JULIAPA LTDA                                            0000000034100000 0000000000000  I000000000010183000000000000000               201211100000000000000000055130000075900000000000075900000000000000000000000000000000010000002138  3120121112   02BW        5000000               000000000000000                                               3175000036021076423432400089               2138                               N                     01132 10020256        000015
12009080640000123SERVPAES LTDA                                                         0000000010400000 0000000000000  I000000000010186000000000000000               201211100000000000000000055130000137500000000000137500000000000000000000000000000000010000002590  3120121112   02BW        5000000               000000000000000                                               3004091086870000000000259329               2590                               N                     01132 10020256        000016
12052168721000109SIND TRAB IND METAL MEC MOGI C                                        0000000010400000 0000000000000  I000000000010188000000000000000               201211120000000020121112055150000184800000000000174900000000000009900000000000000000010020016319  3120121112   02BW        5000000               000000000000000                                               3313345100020314210001947039               20056319                           N                     01132 10020256        000017
12047190731000100DE CASTRO LOUREIRO ENGENHARIA                                         0000000003300000 0000000000000  I000000000010185000000000000000               201211120000000000000000055150000940006000000000940006000000000000000000000000000000010000026838  3120121112   02BW        5000000               000000000000000                                               3948430370000009553355010499               26838/01                           N                     01132 10020256        000018
12034028316000103ECT DEGER   DR 74 SPI                                                 0000000000100000 0000000000000  I000000000010187000000000000000               201211120000000000000000000000000046760000000000046760000000000000000000000000000000010910021110  3120121112   02BW        5000000               000000000000000                                               3000000212652700003482701719               9910021110                         N                     01132 10020256        000019
12062944582000111AS SOLUCOES COMERCIAL LTDA                                            00000000341000000000000000000000000000009024499000000090000357017303 A        201211122012101500000000055150000120960000000000120960000000000000000000000000000000050000000000  3020121112   02BW        2000000               000000000000000                                               3109000035705067251093000019               17303                              N                     01132 10020256        000020
12003102481000134AB5 IND E COMERCIO LTDA EPP                                           0000000034100000000000000000000000000000902449870000009000042293134           201211122012101300000000055150000147870000000000147870000000000000000000000000000000050000000000  3020121112   02BW        2000000               000000000000000                                               3109000042299003154755700069               3134                               N                     01132 10020256        000021
12061217188000119TELAS METALICAS TELMETAL LTDA                                         0000000000100000000000000000000000000000902449790000000058100005780 1 3       201211122012101600000000055150000089764000000000089764000000000000000000000000000000050000000000  3020121112   02BW        2000000               000000000000000                                               3000000115031800000058101719               5780/01-03                         N                     01132 10020256        000022
12005151518000140BELENUS DO BRASIL LTDA                                                000000000010000000000000000000000000000087407066000000774916000R129723232     201211122012082100000000055150000460800000000000460800000000000000000000000000000000050000000000  3020121112   02BW        2000000               000000000000000                                               3000000123933843997749163139               0297232/03                         N                     01132 10020256        000023
900002400000000003663636                                                                                                                                                                                    000000000000000                                                                                                                                                                                                                                                    00002201102870003616096        000024
