0000147602043799295000110ALTAMIRA INDUSTRIA METALURGICA LT       202000000199520121212212426             3                                                                                                  000000000000000                                                                                                                                                                                                                                                                                   000001
12007711227000194L BARBI REPRESENTACOES        R IRAPUA 225 CASA 8 PENHA CIRCULAR      2121506023702804500000000201758 I000000000010322000000000000000               201212120000000000000000000000000000000000000000130900000000000000000000000000000000010000000125  0120121212   02BW        5000000               000000000000000                                               3                                          NF.NRO.0125.                       N                     01321 10020256        000002
12059659615000177D Z COMERCIO REPRESENTACOES S R JOSE FRANCISCO BENTO 61 PQ DA MOOCA   0312713023700278000000000307025 I000000000010321000000000000000               201212120000000000000000000000000000000000000000060000000000000000000000000000000000010000000280  0120121212   02BW        5000000               000000000000000                                               3                                          NF.NRO.0280 - PARC.02.             N                     01321 10020256        000003
12009034654000291STEEL PRODUCTS DO BRASIL LTDA                                         0000000000100000 0000000000000  I000000000010320000000000000000               201212120000000000000000055450000135964000000000135964000000000000000000000000000000010000002470  3120121212   02BW        5000000               000000000000000                                               3000000221373244205529191169               2470/02-03                         N                     01132 10020256        000004
12061217188000119TELAS METALICAS TELMETAL LTDA                                         0000000000100000000000000000000000000000920384630000000058960005934 1 1       201212122012111300000000055450000089238000000000089238000000000000000000000000000000050000000000  3020121212   02BW        2000000               000000000000000                                               3000000115031800000058961719               5934/01-01                         N                     01132 10020256        000005
12009259079000144SAFRA COMERCIAL DE PAPEIS LTDA                                        00000000033000000000000000000000000000009203849100000094000000000147411       201212122012111300000000055450000023936000000000023936000000000000000000000000000000050000000000  3020121212   02BW        2000000               000000000000000                                               3918361880000000346594010429               0147411                            N                     01132 10020256        000006
12042956441000101SOLUCOES ACO USIMINAS                                                 0000000034100000000000000000000000000000922972810000002592188920019014501     201212122012111400000000055450000475367000000000475367000000000000000000000000000000050000000000  3020121212   02BW        2000000               000000000000000                                               3112592188927293807258000069               190145/01                          N                     01132 10020256        000007
12046178828000135RAPIDO LONDON S A                                                     0000000023703391P00000001061615 0000000091833886009000000022762304206         201212122012111200000000055450000017850000000000017850000000000000000000000000000000050000000000  3020121212   02BW        2000000               000000000000000                                               3                         000000000000000  304206/01                          N                     01079 10020256        000008
12001852612000175BT EQUIPAMENTOS INDUSTRIAIS LT                                        000000000330000000000000000000000000000091471910000000990000000052674 2       201212122012103100000000055450000053280000000000053280000000000000000000000000000000050000000000  3020121212   02BW        2000000               000000000000000                                               3913651000000003015599010419               052674/02                          N                     01132 10020256        000009
12066899790000105FAB ART DE LATEX ESTR EP LTDA                                         0000000039900000 0000000000000  I000000000010319000000000000000               201212120000000000000000055450000162198000000000162198000000000000000000000000000000010000079585  3120121212   02BW        5000000               000000000000000                                               3176075257491125027292500149               79585/03                           N                     01132 10020256        000010
12000815065000195SIND TRABALH N E O R I INTE                                           0000000034100000 0000000000000  I000000000010317000000000000000               201301100000000000000000055740000027161000000000027161000000000000000000000000000000050000000173  3120121212   02BW        5000000               000000000000000                                               3173001366722018958625800089               173/00136672-2                     N                     01132 10020256        000011
12061217188000119TELAS METALICAS TELMETAL LTDA                                         0000000034100000 0000000000000  I000000000010318000000000000000               201212120000000000000000055450000172193000000000172193000000000000000000000000000000010000005880  3120121212   02BW        5000000               000000000000000                                               3181599114263077098123100039               5880/02-03                         N                     01132 10020256        000012
900001300000000001348087                                                                                                                                                                                    000000000000000                                                                                                                                                                                                                                                    00001100499340001157187        000013
