0000147602043799295000110ALTAMIRA INDUSTRIA METALURGICA LT       202000000018620121212061227             1                                                                                                                                                                                                                                                                                                                                                                                                    000001
12001895314000162COLETA INDUSTRIAL FIMAVAN LTDA                                        0000000034100000000000000000000000000000866992070000009002335349439           201208272012081700000000054380000123695000000000161372000000000000000000000000037677050000000000  3020121212   01          2                                                                                   3109002335346144604097200019                                                  N                     01321  0000000        000002
12003489596000123BEND FLEX I COMERCIO LTDA                                             000000003410000000000000000000000000000088350832000000171879874608            201209122012082100000000054540000695250000000000819647000000000000000000000000124397050000000000  3020121212   01          2                                                                                   3191718798744157734445800069                                                  N                     01321  0000000        000003
12003489596000123BEND FLEX I COMERCIO LTDA                                             000000003410000000000000000000000000000088599899000000171434574613            201209172012081600000000054590000585000000000000683986000000000000000000000000098986050000000000  3020121212   01          2                                                                                   3191714345748157734445800019                                                  N                     01321  0000000        000004
12004676708000118M H F SISTEMAS S C LTDA                                               0000000034100000000000000000000000000000937366620000002663878520099050797     201301052012121000000000055690000015153000000000015153000000000000000000000000000000050000000000  3020130107   01FS        1                                                                                   3112663878521013924573200019                                                  N                     01321  0000000        000005
12005880850000145NEDERMAN BRASIL COM PROD EX LT                                        000000003410000000000000000000000000000086373178000000614350956002763 A       201209252012081400000000054670000289674000000000334134000000000000000000000000044460050000000000  3020121212   01          2                                                                                   3156143509568160829000100049                                                  N                     01321  0000000        000006
12006000195000156MBA MERCANTIL BRAS DE ACO LTDA                                        0000000034100000000000000000000000000000887698090000001671394550008925B02     201209142012071700000000054560000719581000000000845516000000000000000000000000125935050000000000  3020121212   01          2                                                                                   3191671394556064849251000089                                                  N                     01321  0000000        000007
12006000195000156MBA MERCANTIL BRAS DE ACO LTDA                                        0000000034100000000000000000000000000000887698100000001671394560008926B02     201209142012071700000000054560000387716000000000455623000000000000000000000000067907050000000000  3020121212   01          2                                                                                   3191671394564064849251000019                                                  N                     01321  0000000        000008
12006000195000156MBA MERCANTIL BRAS DE ACO LTDA                                        0000000034100000000000000000000000000000906662670000001671394410008920B03     201210142012071700000000054860000576584000000000643490000000000000000000000000066906050000000000  3020121212   01          2                                                                                   3191671394416064849251000039                                                  N                     01321  0000000        000009
12006000195000156MBA MERCANTIL BRAS DE ACO LTDA                                        0000000034100000000000000000000000000000889578520000001671394540008920B02     201209162012071700000000054580000576585000000000675243000000000000000000000000098658050000000000  3020121212   01          2                                                                                   3191671394549064849251000099                                                  N                     01321  0000000        000010
12006000195000156MBA MERCANTIL BRAS DE ACO LTDA                                        0000000034100000000000000000000000000000885998980000001667238420008870B02     201209112012071600000000054530000839952000000000991936000000000000000000000000151984050000000000  3020121212   01          2                                                                                   3191667238429064849251000039                                                  N                     01321  0000000        000011
12006000195000156MBA MERCANTIL BRAS DE ACO LTDA                                        0000000034100000000000000000000000000000904173150000001667238300008870B03     201210092012071600000000054810000839951000000000945679000000000000000000000000105728050000000000  3020121212   01          2                                                                                   3191667238304064849251000039                                                  N                     01321  0000000        000012
12006000195000156MBA MERCANTIL BRAS DE ACO LTDA                                        0000000034100000000000000000000000000000904173160000001667238280008876B03     201210122012071600000000054840000810320000000000907554000000000000000000000000097234050000000000  3020121212   01          2                                                                                   3191667238288064849251000079                                                  N                     01321  0000000        000013
12006000195000156MBA MERCANTIL BRAS DE ACO LTDA                                        0000000034100000000000000000000000000000904173170000001671394420008925B03     201210122012071700000000054840000719580000000000805895000000000000000000000000086315050000000000  3020121212   01          2                                                                                   3191671394424064849251000069                                                  N                     01321  0000000        000014
12006000195000156MBA MERCANTIL BRAS DE ACO LTDA                                        0000000034100000000000000000000000000000904173180000001671394430008926B03     201210122012071700000000054840000387716000000000434259000000000000000000000000046543050000000000  3020121212   01          2                                                                                   3191671394432064849251000079                                                  N                     01321  0000000        000015
12006867297000173MARCOS ANTONIO RIBEIRO ACOS                                           0000000034100000000000000000000000000000937366630000002662936700000468        201301042012121000000000055680000030135000000000030135000000000000000000000000000000050000000000  3020130104   01FS        1                                                                                   3112662936700046769908800059                                                  N                     01321  0000000        000016
12007525020000125MULTIPLA B G  LOG LTDA                                                0000000034100000000000000000000000000000937366860000009000655840000275174     201212242012121000000000055570000015800000000000015800000000000000000000000000000000050000000000  3020121224   01FS        1                                                                                   3109000655840438726766100079                                                  N                     01321  0000000        000017
12008272923000104P SANTOS ESQUADRARIAS METAL ME                                        0000000034100000000000000000000000000000896979550000006153947641850           201211222012100800000000055250000400000000000000429340000000000000000000000000029340050000000000  3020121212   01          2                                                                                   3156153947640160141951600039                                                  N                     01321  0000000        000018
12008272923000104P SANTOS ESQUADRARIAS METAL ME                                        0000000034100000000000000000000000000000915734100000006159682651954           201212052012110700000000055380000408138000000000423917000000000000000000000000015779050000000000  3020121212   01          2                                                                                   3156159682654160141951600029                                                  N                     01321  0000000        000019
12009034654000291STEEL PRODUCTS DO BRASIL LTDA                                         0000000000100000000000000000000000000000914718920000005529190002470 2 3       201212082012110500000000055410000132000000000000135964000000000000000000000000003964050000000000  3020121212   01          2                                                                                   3000000221373244205529191149                                                  N                     01321  0000000        000020
12009338857000190FERNANDO  NAGAO  CARDONE  ALVA                                        000000000330000000000000000000000000000091653176000000300000000ALTA 11 2012   201211202012103000000000055230000134632000000000144866000000000000000000000000010234050000000000  3020121212   01          2                                                                                   3947901700000051051630010119                                                  N                     01321  0000000        000021
12009338857000190FERNANDO  NAGAO  CARDONE  ALVA                                        000000000330000000000000000000000000000089697936000000800000000ALTA 10 2012   201210202012092500000000054920000134632000000000157390000000000000000000000000022758050000000000  3020121212   01          2                                                                                   3947901700000051050080010129                                                  N                     01321  0000000        000022
12011284925000128MF FERRAGENS LTDA                                                     00000000341000000000000000000000000000009373666600000026626617510043 A        201301042012120700000000055680000057500000000000057500000000000000000000000000000000050000000000  3020130104   01FS        1                                                                                   3112662661753162659025900069                                                  N                     01321  0000000        000023
12011284925000128MF FERRAGENS LTDA                                                     00000000341000000000000000000000000000009373666900000026626617610043 B        201301112012120700000000055750000057500000000000057500000000000000000000000000000000050000000000  3020130111   01FS        1                                                                                   3112662661761162659025900019                                                  N                     01321  0000000        000024
12012006058000121WEG TINTAS LTDA                                                       0000000023702727800000000001309 00000000872318670090224700001050016359603     201211142012083100000000055170000459992000000000477156000000000000000000000000017164050000000000  3020121212   01          2  R JUNO  533                                                                      3                         000000000000000                                     N                     00598  0000000        000025
12012006058000121WEG TINTAS LTDA                                                       0000000023702727800000000001309 00000000878206060090225400000800016517203     201211202012090600000000055230000459992000000000473478000000000000000000000000013486050000000000  3020121212   01          2  R JUNO  533                                                                      3                         000000000000000                                     N                     00598  0000000        000026
12012006058000121WEG TINTAS LTDA                                                       0000000023702727800000000001309 00000000882668430090225800000760016626903     201211272012091300000000055300000459992000000000469187000000000000000000000000009195050000000000  3020121212   01          2  R JUNO  533                                                                      3                         000000000000000                                     N                     00598  0000000        000027
12042956441000101SOLUCOES ACO USIMINAS                                                 0000000034100000000000000000000000000000859590620000002274469790017353702     201209282012080300000000054700000081053000000000093203000000000000000000000000012150050000000000  3020121212   01          2                                                                                   3112274469793293807258000069                                                  N                     01321  0000000        000028
12042956441000101SOLUCOES ACO USIMINAS                                                 0000000034100000000000000000000000000000846595700000002210880280016980502     201209102012071200000000054520000156071000000000185087000000000000000000000000029016050000000000  3020121212   01          2                                                                                   3112210880285293807258000039                                                  N                     01321  0000000        000029
12042956441000101SOLUCOES ACO USIMINAS                                                 0000000034100000000000000000000000000000846595710000002210880290016980602     201209102012071200000000054520000426094000000000505330000000000000000000000000079236050000000000  3020121212   01          2                                                                                   3112210880293293807258000019                                                  N                     01321  0000000        000030
12042956441000101SOLUCOES ACO USIMINAS                                                 0000000034100000000000000000000000000000847452070000002216130350005922202     201209102012071600000000054520000172071000000000204063000000000000000000000000031992050000000000  3020121212   01          2                                                                                   3112216130354293807258000049                                                  N                     01321  0000000        000031
12042956441000101SOLUCOES ACO USIMINAS                                                 0000000034100000000000000000000000000000847452100000002216130340017012402     201209102012071500000000054520000147428000000000174863000000000000000000000000027435050000000000  3020121212   01          2                                                                                   3112216130347293807258000059                                                  N                     01321  0000000        000032
12042956441000101SOLUCOES ACO USIMINAS                                                 0000000034100000000000000000000000000000848180700000002220192900017041002     201209112012071700000000054530000155433000000000184045000000000000000000000000028612050000000000  3020121212   01          2                                                                                   3112220192903293807258000029                                                  N                     01321  0000000        000033
12042956441000101SOLUCOES ACO USIMINAS                                                 0000000034100000000000000000000000000000848180710000002220192910017041202     201209112012071700000000054530000205421000000000243233000000000000000000000000037812050000000000  3020121212   01          2                                                                                   3112220192911293807258000019                                                  N                     01321  0000000        000034
12042956441000101SOLUCOES ACO USIMINAS                                                 0000000034100000000000000000000000000000850740460000002233586800017127201     201208202012072000000000054310000137881000000000169345000000000000000000000000031464050000000000  3020121212   01          2                                                                                   3112233586802293807258000019                                                  N                     01321  0000000        000035
12042956441000101SOLUCOES ACO USIMINAS                                                 0000000034100000000000000000000000000000850740470000002233586810017101002     201209142012071900000000054560000732575000000000862960000000000000000000000000130385050000000000  3020121212   01          2                                                                                   3112233586810293807258000019                                                  N                     01321  0000000        000036
12042956441000101SOLUCOES ACO USIMINAS                                                 0000000034100000000000000000000000000000850740480000002233586820017101202     201209142012071900000000054560000144634000000000170355000000000000000000000000025721050000000000  3020121212   01          2                                                                                   3112233586828293807258000029                                                  N                     01321  0000000        000037
12042956441000101SOLUCOES ACO USIMINAS                                                 0000000034100000000000000000000000000000853154840000002246247030017196702     201209202012072500000000054620000234841000000000273851000000000000000000000000039010050000000000  3020121212   01          2                                                                                   3112246247038293807258000099                                                  N                     01321  0000000        000038
12042956441000101SOLUCOES ACO USIMINAS                                                 0000000034100000000000000000000000000000853154850000002246247040017197302     201209202012072500000000054620000970103000000001131123000000000000000000000000161020050000000000  3020121212   01          2                                                                                   3112246247046293807258000019                                                  N                     01321  0000000        000039
12042956441000101SOLUCOES ACO USIMINAS                                                 0000000034100000000000000000000000000000855028690000002254329380017212902     201209212012072600000000054630000140098000000000163058000000000000000000000000022960050000000000  3020121212   01          2                                                                                   3112254329389293807258000019                                                  N                     01321  0000000        000040
12042956441000101SOLUCOES ACO USIMINAS                                                 0000000034100000000000000000000000000000855028700000002254329390017213002     201209212012072600000000054630000140602000000000163644000000000000000000000000023042050000000000  3020121212   01          2                                                                                   3112254329397293807258000089                                                  N                     01321  0000000        000041
12042956441000101SOLUCOES ACO USIMINAS                                                 0000000034100000000000000000000000000000855028770000002254329400017220502     201209212012072700000000054630000981022000000001141906000000000000000000000000160884050000000000  3020121212   01          2                                                                                   3112254329405293807258000099                                                  N                     01321  0000000        000042
12042956441000101SOLUCOES ACO USIMINAS                                                 0000000034100000000000000000000000000000856906410000002262886280017266201     201208282012073000000000054390000119472000000000144806000000000000000000000000025334050000000000  3020121212   01          2                                                                                   3112262886289293807258000089                                                  N                     01321  0000000        000043
12042956441000101SOLUCOES ACO USIMINAS                                                 0000000034100000000000000000000000000000856906420000002262886290017266301     201208282012073000000000054390000145069000000000175809000000000000000000000000030740050000000000  3020121212   01          2                                                                                   3112262886297293807258000099                                                  N                     01321  0000000        000044
12042956441000101SOLUCOES ACO USIMINAS                                                 0000000034100000000000000000000000000000937366700000002664845370019367701     201301042012120700000000055680000106855000000000106855000000000000000000000000000000050000000000  3020130104   01FS        1                                                                                   3112664845370293807258000089                                                  N                     01321  0000000        000045
12042956441000101SOLUCOES ACO USIMINAS                                                 0000000034100000000000000000000000000000937366710000002664845430019367703     201303012012120700000000056240000106824000000000106824000000000000000000000000000000050000000000  3020130301   01FS        1                                                                                   3112664845438293807258000059                                                  N                     01321  0000000        000046
12042956441000101SOLUCOES ACO USIMINAS                                                 0000000034100000000000000000000000000000937366720000002664845440019378003     201303012012120700000000056240000160760000000000160760000000000000000000000000000000050000000000  3020130301   01FS        1                                                                                   3112664845446293807258000069                                                  N                     01321  0000000        000047
12042956441000101SOLUCOES ACO USIMINAS                                                 0000000034100000000000000000000000000000937366730000002664845450019378103     201303012012120700000000056240000860716000000000860716000000000000000000000000000000050000000000  3020130301   01FS        1                                                                                   3112664845453293807258000099                                                  N                     01321  0000000        000048
12042956441000101SOLUCOES ACO USIMINAS                                                 0000000034100000000000000000000000000000937366740000002664845410019378002     201302012012120700000000055960000160760000000000160760000000000000000000000000000000050000000000  3020130201   01FS        1                                                                                   3112664845412293807258000029                                                  N                     01321  0000000        000049
12042956441000101SOLUCOES ACO USIMINAS                                                 0000000034100000000000000000000000000000937366750000002664845420019378102     201302012012120700000000055960000860717000000000860717000000000000000000000000000000050000000000  3020130201   01FS        1                                                                                   3112664845420293807258000069                                                  N                     01321  0000000        000050
12042956441000101SOLUCOES ACO USIMINAS                                                 0000000034100000000000000000000000000000937366670000002664845390019378101     201301042012120700000000055680000860975000000000860975000000000000000000000000000000050000000000  3020130104   01FS        1                                                                                   3112664845396293807258000079                                                  N                     01321  0000000        000051
12042956441000101SOLUCOES ACO USIMINAS                                                 0000000034100000000000000000000000000000937366680000002664845400019367702     201302012012120700000000055960000106823000000000106823000000000000000000000000000000050000000000  3020130201   01FS        1                                                                                   3112664845404293807258000049                                                  N                     01321  0000000        000052
12042956441000101SOLUCOES ACO USIMINAS                                                 0000000034100000000000000000000000000000937366640000002664845380019378001     201301042012120700000000055680000160808000000000160808000000000000000000000000000000050000000000  3020130104   01FS        1                                                                                   3112664845388293807258000049                                                  N                     01321  0000000        000053
12042956441000101SOLUCOES ACO USIMINAS                                                 0000000034100000000000000000000000000000920384810000002579400130018963301     201212102012111200000000055430000646761000000000646761000000000000000000000000000000050000000000  3020121210   06          3                                                                                   3112579400139293807258000029                                                  N                     01321  0000000        000054
12043298975000150JOMARCA INDL DE PARAFUSOS LTDA                                        0000000003300000000000000000000000000000881032820000007500000000157168 03     201212102012091100000000055430000365000000000000365000000000000000000000000000000000050000000000  3020121210   06          3                                                                                   3935059520000000508675010489                                                  N                     01321  0000000        000055
12047190731000100DE CASTRO LOUR ENG IND LTDA                                           00000000341000000000000000000000000000008996247900000024766209203027184 0     201211302012100500000000055330001153047000000001180263000000000000000000000000027216050000000000  3020121212   01          2                                                                                   3112476620920036884500400089                                                  N                     01321  0000000        000056
12047190731000100DE CASTRO LOUR ENG IND LTDA                                           00000000341000000000000000000000000000008782051800000023399955703026636 0     201211212012082200000000055240000940804000000000979654000000000000000000000000038850050000000000  3020121212   01          2                                                                                   3112339995576036884500400019                                                  N                     01321  0000000        000057
12047190731000100DE CASTRO LOUR ENG IND LTDA                                           00000000341000000000000000000000000000008782052000000023399955303026632 0     201209192012082200000000054610000952073000000001109321000000000000000000000000157248050000000000  3020121212   01          2                                                                                   3112339995535036884500400019                                                  N                     01321  0000000        000058
12047190731000100DE CASTRO LOUR ENG IND LTDA                                           00000000341000000000000000000000000000008782052100000023399955903026643 0     201209202012082300000000054620000867039000000001008554000000000000000000000000141515050000000000  3020121212   01          2                                                                                   3112339995592036884500400049                                                  N                     01321  0000000        000059
12047190731000100DE CASTRO LOUR ENG IND LTDA                                           00000000341000000000000000000000000000008782052400000023399956003026643 0     201211222012082300000000055250000867039000000000901139000000000000000000000000034100050000000000  3020121212   01          2                                                                                   3112339995600036884500400069                                                  N                     01321  0000000        000060
12047190731000100DE CASTRO LOUR ENG IND LTDA                                           00000000341000000000000000000000000000008782052500000023399955603026636 0     201209192012082200000000054610000940804000000001096204000000000000000000000000155400050000000000  3020121212   01          2                                                                                   3112339995568036884500400049                                                  N                     01321  0000000        000061
12047190731000100DE CASTRO LOUR ENG IND LTDA                                           00000000341000000000000000000000000000008782052700000023399956203026648 0     201209202012082300000000054620000976053000000001135413000000000000000000000000159360050000000000  3020121212   01          2                                                                                   3112339995626036884500400029                                                  N                     01321  0000000        000062
12047190731000100DE CASTRO LOUR ENG IND LTDA                                           00000000341000000000000000000000000000008782052800000023399956303026648 0     201211222012082300000000055250000976053000000001014453000000000000000000000000038400050000000000  3020121212   01          2                                                                                   3112339995634036884500400019                                                  N                     01321  0000000        000063
12047190731000100DE CASTRO LOUR ENG IND LTDA                                           00000000341000000000000000000000000000008782059400000023602715303026745 0     201211282012082900000000055310000903175000000000928039000000000000000000000000024864050000000000  3020121212   01          2                                                                                   3112360271533036884500400039                                                  N                     01321  0000000        000064
12047190731000100DE CASTRO LOUR ENG IND LTDA                                           00000000341000000000000000000000000000008782059500000023602714703026734 0     201211272012082800000000055300000997834000000001027264000000000000000000000000029430050000000000  3020121212   01          2                                                                                   3112360271475036884500400019                                                  N                     01321  0000000        000065
12047190731000100DE CASTRO LOUR ENG IND LTDA                                           00000000341000000000000000000000000000008782059900000023602715003026744 0     201211292012082900000000055320000146594000000000150338000000000000000000000000003744050000000000  3020121212   01          2                                                                                   3112360271509036884500400069                                                  N                     01321  0000000        000066
12047190731000100DE CASTRO LOUR ENG IND LTDA                                           00000000341000000000000000000000000000009041732900000025008464603027216 0     201212052012101000000000055380000225377000000000228478000000000000000000000000003101050000000000  3020121212   01          2                                                                                   3112500846467036884500400029                                                  N                     01321  0000000        000067
12047190731000100DE CASTRO LOUR ENG IND LTDA                                           00000000341000000000000000000000000000008782050900000023399953503026612 0     201209182012082100000000054600001111489000000001297299000000000000000000000000185810050000000000  3020121212   01          2                                                                                   3112339995352036884500400019                                                  N                     01321  0000000        000068
12047190731000100DE CASTRO LOUR ENG IND LTDA                                           00000000341000000000000000000000000000009041733100000025008464903027234 0     201212062012101100000000055390001029597000000001041747000000000000000000000000012150050000000000  3020121212   01          2                                                                                   3112500846491036884500400029                                                  N                     01321  0000000        000069
12047190731000100DE CASTRO LOUR ENG IND LTDA                                           00000000341000000000000000000000000000008782051200000023399953803026613 0     201209182012082100000000054600001107989000000001293204000000000000000000000000185215050000000000  3020121212   01          2                                                                                   3112339995386036884500400039                                                  N                     01321  0000000        000070
12047190731000100DE CASTRO LOUR ENG IND LTDA                                           00000000341000000000000000000000000000008782051600000023399954103026614 0     201209182012082100000000054600001047621000000001222721000000000000000000000000175100050000000000  3020121212   01          2                                                                                   3112339995410036884500400039                                                  N                     01321  0000000        000071
12047190731000100DE CASTRO LOUR ENG IND LTDA                                           00000000341000000000000000000000000000008782051700000023399954203026614 0     201211202012082100000000055230001047621000000001092941000000000000000000000000045320050000000000  3020121212   01          2                                                                                   3112339995428036884500400079                                                  N                     01321  0000000        000072
12047190731000100DE CASTRO LOUR ENG IND LTDA                                           00000000341000000000000000000000000000009041732300000025008465203027256 0     201212112012101600000000055440001108602000000001110782000000000000000000000000002180050000000000  3020121212   01          2                                                                                   3112500846525036884500400019                                                  N                     01321  0000000        000073
12048775225000146SEIKI IND COM E CONFECCOES LTD                                        000000003410000000000000000000000000000089337376000000244697151014914001      201210232012092500000000054950000052000000000000055900000000000000000000000000003900050000000000  3020121212   01          2                                                                                   3112446971510017444824100089                                                  N                     01321  0000000        000074
12051180370000199IGUAFER FERRO E ACO LTDA                                              0000000034100000000000000000000000000000852309100000002239389789443 B         201209022012071800000000054440000168275000000000196555000000000000000000000000028280050000000000  3020121212   01          2                                                                                   3112239389789077149484600089                                                  N                     01321  0000000        000075
12051180370000199IGUAFER FERRO E ACO LTDA                                              0000000034100000000000000000000000000000852309110000002239389799443 C         201209122012071800000000054540000168275000000000193755000000000000000000000000025480050000000000  3020121212   01          2                                                                                   3112239389797077149484600089                                                  N                     01321  0000000        000076
12053585766000141MULTIACOS I C PRODS TEC LTDA                                          0000000042200000000000000000000000000000895189670000000000000000004750003     201212062012100200000000055390000222869000000000225094000000000000000000000000002225050000000000  3020121212   01          2                                                                                   3711500005033164927762137189                                                  N                     01321  0000000        000077
12054382510000108SETENTA IND E COM DE MADEIRAS                                         0000000034100000000000000000000000000000937366650000002662059314912 A         201212262012121000000000055590000191200000000000191200000000000000000000000000000000050000000000  3020121226   01FS        1                                                                                   3112662059313057049175300019                                                  N                     01321  0000000        000078
12054382510000108SETENTA IND E COM DE MADEIRAS                                         0000000034100000000000000000000000000000860403430000002277814474462 A         201209042012080700000000054460000191200000000000228424000000000000000000000000037224050000000000  3020121212   01          2                                                                                   3112277814474057049175300069                                                  N                     01321  0000000        000079
12054382510000108SETENTA IND E COM DE MADEIRAS                                         0000000034100000000000000000000000000000921267620000002584985714843 A         201212052012111400000000055380000191200000000000193832000000000000000000000000002632050000000000  3020121212   01          2                                                                                   3112584985710057049175300059                                                  N                     01321  0000000        000080
12056993512000150CYKLOP DO BRASIL EMBALAGENS SA                                        0000000034100000000000000000000000000000874070500000002362586810134932        201210012012090300000000054730000083607000000000105711000000000000000000000000022104050000000000  3020121212   01          2                                                                                   3112362586813025700015800019                                                  N                     01321  0000000        000081
12059588111000103BANCO VOTORANTIM S A                                                  000000000010000000000000000000000000000093736676000000003777000144349 2       201302012012121000000000055960000272508000000000272508000000000000000000000000000000050000000000  3020130201   01FS        1                                                                                   3000000145167244310037771139                                                  N                     01321  0000000        000082
12059588111000103BANCO VOTORANTIM S A                                                  000000000010000000000000000000000000000093736677000000003781000144350 2       201302012012121000000000055960000575413000000000575413000000000000000000000000000000050000000000  3020130201   01FS        1                                                                                   3000000145167244310037811179                                                  N                     01321  0000000        000083
12059588111000103BANCO VOTORANTIM S A                                                  000000000010000000000000000000000000000093736683000000003780000144349 3       201303012012121000000000056240000272590000000000272590000000000000000000000000000000050000000000  3020130301   01FS        1                                                                                   3000000145167244310037801149                                                  N                     01321  0000000        000084
12059588111000103BANCO VOTORANTIM S A                                                  000000000010000000000000000000000000000093736684000000003793000144388 3       201303042012121000000000056270000091463000000000091463000000000000000000000000000000050000000000  3020130304   01FS        1                                                                                   3000000145167244310037931119                                                  N                     01321  0000000        000085
12059588111000103BANCO VOTORANTIM S A                                                  000000000010000000000000000000000000000093736678000000003782000144350 3       201303012012121000000000056240000575587000000000575587000000000000000000000000000000050000000000  3020130301   01FS        1                                                                                   3000000145167244310037821139                                                  N                     01321  0000000        000086
12059588111000103BANCO VOTORANTIM S A                                                  000000000010000000000000000000000000000093736679000000003778000144350 1       201301042012121000000000055680000575413000000000575413000000000000000000000000000000050000000000  3020130104   01FS        1                                                                                   3000000145167244310037781139                                                  N                     01321  0000000        000087
12059588111000103BANCO VOTORANTIM S A                                                  000000000010000000000000000000000000000093736680000000003787000144388 1       201301072012121000000000055710000091435000000000091435000000000000000000000000000000050000000000  3020130107   01FS        1                                                                                   3000000145167244310037871119                                                  N                     01321  0000000        000088
12059588111000103BANCO VOTORANTIM S A                                                  000000000010000000000000000000000000000093736681000000003779000144349 1       201301042012121000000000055680000272508000000000272508000000000000000000000000000000050000000000  3020130104   01FS        1                                                                                   3000000145167244310037791139                                                  N                     01321  0000000        000089
12059588111000103BANCO VOTORANTIM S A                                                  000000000010000000000000000000000000000093736682000000003790000144388 2       201302042012121000000000055990000091435000000000091435000000000000000000000000000000050000000000  3020130204   01FS        1                                                                                   3000000145167244310037901159                                                  N                     01321  0000000        000090
12059659615000177DZ COMERCIO R E SERVICOS LTDA                                         000000003410000000000000000000000000000091358507000000900000321280            201211172012102400000000055200000060000000000000063000000000000000000000000000003000050000000000  3020121212   01          2                                                                                   3109000003217000314585100039                                                  N                     01321  0000000        000091
12061600839000155CENTRO DE INT EMPRESA ESCOLA C                                        0000000023703391P00000000866202 00000000937366850090000037306007641C 0001     201212262012121000000000055590000016800000000000016800000000000000000000000000000000050000000000  3020121226   01FS        1  R GANGES  528                                                                    3                         000000000000000                                     N                     00598  0000000        000092
12062510367000102ITANHAEM TRANSP DE MAQUINAS LT                                        000000003410000000000000000000000000000087407049000000236463199667            201209202012090400000000054620000248220000000000330639000000000000000000000000082419050000000000  3020121212   01          2                                                                                   3112364631997005770252400049                                                  N                     01321  0000000        000093
12062539994000176LEALFER INDUSTRIA E COMERCIO D                                        0000000003300000000000000000000000000000884432800000003600000000005502003     201212072012091300000000055400000839516000000000846651000000000000000000000000007135050000000000  3020121212   01          2                                                                                   3915298380000000266736010439                                                  N                     01321  0000000        000094
12062539994000176LEALFER INDUSTRIA E COMERCIO D                                        0000000003300000000000000000000000000000919321990000005700000000005818801     201212102012110900000000055430000327558000000000328671000000000000000000000000001113050000000000  3020121212   01          2                                                                                   3915298380000000289957010429                                                  N                     01321  0000000        000095
12064952757000168WALMAC COM DE PROD QUIMICOS LT                                        0000000034100000000000000000000000000000860403450000002275821700020148        201210052012080300000000054770000219267000000000248575000000000000000000000000029308050000000000  3020121212   01          2                                                                                   3112275821703064807961400029                                                  N                     01321  0000000        000096
12064952757000168WALMAC COM DE PROD QUIMICOS LT                                        0000000034100000000000000000000000000000896979510000002462157570021611        201211292012100400000000055320000219267000000000224870000000000000000000000000005603050000000000  3020121212   01          2                                                                                   3112462157572064807961400059                                                  N                     01321  0000000        000097
12066841552000130R V SEG PATRIMONIAL LTDA                                              00000000341000000000000000000000000000008852483200000090002192721927          201209102012081000000000054520000483241000000000498214000000000000000000000000014973050000000000  3020121212   01          2                                                                                   3109000219270001835253400099                                                  N                     01321  0000000        000098
12066841552000130R V SEG PATRIMONIAL S C LTDA                                          00000000341000000000000000000000000000008887329800000090002213622136          201210102012091100000000054820000374758000000000382633000000000000000000000000007875050000000000  3020121212   01          2                                                                                   3109000221365001838994000069                                                  N                     01321  0000000        000099
12066841552000130RV SEGURANCA PATRIMONIAL SC LT                                        0000000023700122800000001495011 000000009203848400900000002253822538          201212102012110800000000055430000374758000000000382503000000000000000000000000007745050000000000  3020121212   01          2  RUA TAMAINDE  1410                                                               3                         000000000000000                                     N                     00598  0000000        000100
12069284248000128ISOCOAT TINTAS E VERNIZES LTDA                                        0000000034100000000000000000000000000000841061040000002182507930052085        201209172012070200000000054590000236130000000000290310000000000000000000000000054180050000000000  3020121212   01          2                                                                                   3112182507932077430121200019                                                  N                     01321  0000000        000101
12069284248000128ISOCOAT TINTAS E VERNIZES LTDA                                        0000000034100000000000000000000000000000900522910000002477686980056631        201212102012101000000000055430000317968000000000317968000000000000000000000000000000050000000000  3020121210   06          3                                                                                   3112477686987077430121200019                                                  N                     01321  0000000        000102
12069284248000128ISOCOAT TINTAS E VERNIZES LTDA                                        0000000034100000000000000000000000000000908309600000002521130180057192        201212102012102400000000055430000365668000000000365668000000000000000000000000000000050000000000  3020121210   06          3                                                                                   3112521130180077430121200039                                                  N                     01321  0000000        000103
900010400000000048298539                                                                                                                                                                                                                                                                                                                                                                                                                                                                01321  0000000        000104
