0000147602043799295000110ALTAMIRA IND METALURGICA LTDA           20100466000002012081317251700000        2    230A                                                                                          000000000000000                                                                                                                                                                                                                                                                                   000001
12002503185000182ANDAIMES MAQUINAS BIG LTDA EPP                                        0000000034100000000000000000000000000000849855270000002226334124889           201208130000000000000000054240000016500000000000016500000000000000000000000000000000050000000000  3020120813   01MF        550                                                                                 3112226334129650303800900019010000       004889                               N                     01321 10020256        000002
12004882911000140F C BRITO CARTUCHOS ME                                                00000000033000000000000000000000000000008531551400000047000000011713 A21      201208070000000000000000054180000042679000000000044727000000000000000000000000002048050000000000  3020120813   01MFBUHA    500                                                                                 3944753720000000085847010199010000       00011713                             N                     00000 10020256        000003
12009630445000120MARIANA DE QUEIROZ SILVA      RUA ZUMBI  0199                         0371401000100000 0000000000000  I000000000009466000000000000000               201208130000000000000000054240000054046000000000054046000000000000000000000000000000010000000648  3120120813   01HA        000                                                                                 3000000167849100000000611739             000648                               N                     00000 10020256        000004
12012739954000108RODOLFO CESAR LARESE          RUA  LEOPOLDO DE FREITAS  658           0364501023701427300000000015989 I000000000009467028021920000008               201208130000000000000000054240000037773000000000037773000000000000000000000000000000010000004596  3120120813   01HA        000                                                                                 3142728219200000080001598049             0004596                              N                     00000 10020256        000005
12056993512000150CYKLOP DO BRASIL EMBALAG  S A RUA  ALTO PARANA  131                   0968705034100000 0000000000000  I000000000009468000000000000000               201208130000000000000000054240000013800000000000013800000000000000000000000000000000010000001444  3120120813   01HA        000                                                                                 3181521922403025786126000059             0001444                              N                     00000 10020256        000006
12056993512000150CYKLOP DO BRASIL EMBALAG  S A RUA  ALTO PARANA  131                   0968705034100000 0000000000000  I000000000009469000000000000000               201208130000000000000000054240000038481000000000038481000000000000000000000000000000010000130163  3120120813   01HA        000                                                                                 3181521924326025786126000029             000130163/01                         N                     00000 10020256        000007
12056993900000131CIA METALURGICA PRADA                                                 0000000034100000 0000000000000  I000000000009470000000000000000               201208130000000000000000054240000572939000000000572939000000000000000000000000000000010000240590  3120120813   01HA        000                                                                                 3181521925937293800573900029             000240590/03                         N                     00000 10020256        000008
12064952757000168WALMAC COM PROD QUIMICOS LTDA AV  OLIVEIRA FREIRE  223                0808057034100000 0000000000000  I000000000009471000000000000000               201208130000000000000000054240000221853000000000221853000000000000000000000000000000010000001935  3120120813   01HA        000                                                                                 3181521926762064807961400049             00019356                             N                     00000 10020256        000009
12039040597000133ATERA INFORMATICA LTDA        RUA JUNO 533                            0344500034100000 0000000000000  I000000000009472000000000000000               201208130000000000000000054240000053843000000000053843000000000000000000000000000000010000583235  3120120813   01HA        000                                                                                 3175005832350064418855900079             000583235                            N                     00000 10020256        000010
12009472021000184AQUARELA TANSP  LOG LTDA      RUA  BOA VISTA  265                     0652917510400000 0000000000000  I000000000009473000000000000000               201208110000000000000000054220000006342000000000006342000000000000000000000000000000010000035927  3120120813   01HA        000                                                                                 3263589590020004000000748079             0035927                              N                     00000 10020256        000011
12047190731000372DE CASTRO LOUREIRO ENG IND COMAV MOFARREJ  729                        0531100003300000 0000000000000  I000000000009474000000000000000               201208130000000000000000054240000733780000000000733780000000000000000000000000000000010003025169  3120120813   01HA        000                                                                                 3948430370000009545689020359             0003025169/03                        N                     00000 10020256        000012
12012006058000121WEG TINTAS LTDA               ROD  BR  280   KM 50   S N              8927000023702727800000000001309 I000000000009475009021490000102               201208130000000000000000054240000086188000000000086188000000000000000000000000000000010000140460  3120120813   01HA        000                                                                                 3272709214900001020000130049             000140460/03                         N                     00000 10020256        000013
12006000195000156M B A MERCANTIL BRASILEIRA DE R RINCAO 220                            0365108023700118000000002128292 I000000000009476000000000000000               201208130000000000000000000000000000000000000000623994000000000000000000000000000000010000008769  0120120813   01HA        000                                                                                 3                                        00NF.NRO.08769/01                    N                     00000 10020256        000014
900001500000000002504266                                                                                                                                                                                    000000000000000                                                                                                                                                                                                                                                    00001300650800001878224        000015
