0000147602043799295000110ALTAMIRA INDUSTRIA METALURGICA LT       202000000199820121213213223             3                                                                                                  000000000000000                                                                                                                                                                                                                                                                                   000001
12000211092000159AGARI COM TINTAS E FERR LTDA                                          0000000010400000 0000000000000  I000000000010324000000000000000               201212130000000000000000055460000034771000000000034771000000000000000000000000000000010000188189  3120121213   02BW        5000000               000000000000000                                               3001013128870000000000010169               188189/01                          N                     01130 10020256        000002
12043799295000110ALTAMIRA INDUSTRIA METAL LTDA                                         0000000003303809500000130004071 I000000000010323000000000000000               201212130000000000000000000000000000000000000000500000000000000000000000000000000000050000000001  0820121213   02BW        5001050               000000000000000                                               3D0000000101                               01                                 S                     01133 10020256        000003
12003370710000100ALTIZA TRANSPORTES LTDA                                               0000000010400000000000000000000000000000934523670000000007550003678           201212132012120500000000055460000211100000000000211100000000000000000000000000000000050000000000  3020121213   02BW        2000000               000000000000000                                               3284848190110104000000755389               3678                               N                     01130 10020256        000004
12062539994000176LEALFER IN E COM DE ACO LTDA                                          0000000034100000000000000000000000000000915733910000002554594050005780601     201212132012110100000000055460000194439000000000194439000000000000000000000000000000050000000000  3020121213   02BW        2000000               000000000000000                                               3112554594054076103324000059               057806/01                          N                     01130 10020256        000005
12017469701000177ARCELORMITTAL BRASIL S A                                              0000000034100000000000000000000000000000918338800000009327081390013764702     201212132012110800000000055460000075757000000000075757000000000000000000000000000000050000000000  3020121213   02BW        2000000               000000000000000                                               3109327081390293802529900029               137647/02                          N                     01130 10020256        000006
12001162151000109SUKIRA COM DE IMP E EXP LTDA                                          000000003410000000000000000000000000000091741399000000256317314019000 BB      201212132012110800000000055460000042471000000000042471000000000000000000000000000000050000000000  3020121213   02BW        2000000               000000000000000                                               3112563173148021116926300039               19000/02                           N                     01130 10020256        000007
12002248601000143TECNOLACOS CABOS E CINTAS LTDA                                        000000000010000000000000000000000000000092470567000000453683000007634         201212132012112200000000055460000015960000000000015960000000000000000000000000000000050000000000  3020121213   02BW        2000000               000000000000000                                               3044254536831192000070425119               7634/01                            N                     01130 10020256        000008
12009259079000144SAFRA COMERCIAL DE PAPEIS LTDA                                        00000000033000000000000000000000000000009212676700000057000000000147470       201212132012111400000000055460000018800000000000018800000000000000000000000000000000050000000000  3020121213   02BW        2000000               000000000000000                                               3918361880000000346657010419               147470/02                          N                     01130 10020256        000009
12062539994000176LEALFER IN E COM DE ACO LTDA                                          0000000034100000000000000000000000000000881032670000002380731660005461503     201212132012090600000000055460000842827000000000842827000000000000000000000000000000050000000000  3020121213   02BW        2000000               000000000000000                                               3112380731664076103324000019               054615/03                          N                     01130 10020256        000010
12043298975000150JOMARCA INDUSTRIAL DE PARAFUSO                                        0000000023703397900000000003212 00000000920384850020231900000180166858 01     201212132012111300000000055460000569400000000000569400000000000000000000000000000000050000000000  3020121213   02BW        2000000               000000000000000                                               3                         000000000000000  166858/01                          N                     01146 10020256        000011
900001200000000002505525                                                                                                                                                                                    000000000000000                                                                                                                                                                                                                                                    00001000499140002005525        000012
