0000147602043799295000110ALTAMIRA IND METALURGICA LTDA           20100589000002012121316450000000        2    230A                                                                                          000000000000000                                                                                                                                                                                                                                                                                   000001
12062539994000176LEALFER IN E COM DE ACO LTDA                                          0000000034100000000000000000000000000000881032670000002380731660005461503     201212130000000000000000055460000842827000000000842827000000000000000000000000000000050000000000  3020121213   01MFBUHA    500                                                                                 3112380731664076103324000019010000       00054615/03                          N                     00000 10020256        000002
12062539994000176LEALFER IN E COM DE ACO LTDA                                          0000000034100000000000000000000000000000915733910000002554594050005780601     201212130000000000000000055460000194439000000000194439000000000000000000000000000000050000000000  3020121213   01MFBUHA    500                                                                                 3112554594054076103324000059010000       00057806/01                          N                     00000 10020256        000003
12001162151000109SUKIRA COM DE IMP E EXP LTDA                                          000000003410000000000000000000000000000091741399000000256317314019000 BB      201212130000000000000000055460000042471000000000042471000000000000000000000000000000050000000000  3020121213   01MFBUHA    500                                                                                 3112563173148021116926300039010000       0019000/02                           N                     00000 10020256        000004
12017469701000177ARCELORMITTAL BRASIL S A                                              0000000034100000000000000000000000000000918338800000009327081390013764702     201212130000000000000000055460000075757000000000075757000000000000000000000000000000050000000000  3020121213   01MFBUHA    500                                                                                 3109327081390293802529900029010000       00137647/02                          N                     00000 10020256        000005
12043298975000150JOMARCA INDUSTRIAL DE PARAFUSO                                        0000000023703397900000000003212 00000000920384850020231900000180166858 01     201212130000000000000000055460000569400000000000569400000000000000000000000000000000050000000000  3020121213   01MFBUHA    500RUA TAMAINDE  1410 RUA GANGES 520 E 528                                          3010000                   00000000000000000166858/01                          N                     00000 10020256        000006
12009259079000144SAFRA COMERCIAL DE PAPEIS LTDA                                        00000000033000000000000000000000000000009212676700000057000000000147470       201212130000000000000000055460000018800000000000018800000000000000000000000000000000050000000000  3020121213   01MFBUHA    500                                                                                 3918361880000000346657010419010000       00147470/02                          N                     00000 10020256        000007
12002248601000143TECNOLACOS CABOS E CINTAS LTDA                                        000000000010000000000000000000000000000092470567000000453683000007634         201212130000000000000000055460000015960000000000015960000000000000000000000000000000050000000000  3020121213   01MFBUHA    500                                                                                 3044254536831192000070425119010000       007634/01                            N                     00000 10020256        000008
12003370710000100ALTIZA TRANSPORTES LTDA                                               0000000010400000000000000000000000000000934523670000000007550003678           201212130000000000000000055460000211100000000000211100000000000000000000000000000000050000000000  3020121213   01MFBUHA    500                                                                                 3284848190110104000000755389010000       003678                               N                     00000 10020256        000009
12000211092000159AGARI COM TINTAS E FERR LTDA  PCA AURELIO LOMBARDI  08                0344506010400000 0000000000000  I000000000010324000000000000000               201212130000000000000000055460000034771000000000034771000000000000000000000000000000010000188189  3120121213   01HA        000                                                                                 3001013128870000000000010169             00188189/01                          N                     00000 10020256        000010
900001100000000002005525                                                                                                                                                                                    000000000000000                                                                                                                                                                                                                                                    00000900499140002005525        000011
