0000147602043799295000110ALTAMIRA INDUSTRIA METALURGICA LT       202000000195520121113212747             3                                                                                                  000000000000000                                                                                                                                                                                                                                                                                   000001
12047190731000100DE CASTRO LOUR ENG IND LTDA                                           00000000341000000000000000000000000000009041733300000025008465103027256 0     201211132012101600000000055160001108602000000001108602000000000000000000000000000000050000000000  3020121113   02BW        2000000               000000000000000                                               3112500846517036884500400019               27256                              N                     01132 10020256        000002
12002583013000166ITAN TRANSP DE CARGAS EXC E IN                                        000000003410000000000000000000000000000088350836000000239377422008 B          201210212012091400000000054930000192500000000000210210000000000000000000000000034650050000000000  3020121113   02BW        2000000               000000000000000      ITAN TRANSP DE CARGAS EXC E IN           3112393774222005770252400039               08/02                              N                     01132 10020256        000003
12066899790000105FABRICA ARTEF LATEX ESTRELA EP                                        00000000399000000000000000000000000000008826685000000000000000078599 002      201211132012091400000000055160000130200000000000130200000000000000000000000000000000050000000000  3020121113   02BW        2000000               000000000000000                                               3175991710291125027292500159               78599/02                           N                     01132 10020256        000004
12005151518000140BELENUS DO BRASIL LTDA                                                000000000010000000000000000000000000000087407064000000776240000R129785132     201211132012082100000000055160000099000000000000099000000000000000000000000000000000050000000000  3020121113   02BW        2000000               000000000000000                                               3000000123933843997762403119               0297851/03                         N                     01132 10020256        000005
12035820448000136WHITE MARTINS GASES INDUSTRIAI                                        0000000023700026400000003937925 0000000090244991009022910001594394355 001     201211132012101700000000055160000121725000000000121725000000000000000000000000000000050000000000  3020121113   02BW        2000000               000000000000000                                               3                         000000000000000  9320                               N                     01079 10020256        000006
900000700000000001669737                                                                                                                                                                                    000000000000000                                                                                                                                                                                                                                                    00000500275570001652027        000007
