0000147602043799295000110ALTAMIRA INDUSTRIA METALURGICA LT       202000000182420120814213040             3                                                                                                  000000000000000                                                                                                                                                                                                                                                                                   000001
12006000195000156MBA MERCANTIL BRASIL ACO LTDA                                         0000000023700118000000002128292 I000000000009477009021920000014               201208140000000000000000054250001003532000000001003532000000000000000000000000000000010000008794  3120120814   02BW        5000000               000000000000000                                               3011809219200000140212829019               08794/01                           N                     01079 10020256        000002
12006000195000156M B A MERCANTIL BRASILEIRA DE R RINCAO 220                            0365108023700118000000002128292 I000000000009478000000000000000               201208140000000000000000000000000000000000000000903026000000000000000000000000000000010000008262  0120120814   02BW        5000000               000000000000000                                               3                                          08262/03                           N                     01321 10020256        000003
12066899790000105FAB ART DE LATEX ESTR EP LTDA                                         0000000039900000 0000000000000  I000000000009487000000000000000               201208140000000000000000054250000134988000000000134988000000000000000000000000000000010000072894  3120120814   02BW        5000000               000000000000000                                               3175513061351125027292500179               072894/01                          N                     01132 10020256        000004
12042956441000101SOLUCOES EM ACO USIMINAS S A                                          0000000034100000 0000000000000  I000000000009490000000000000000               201208140000000000000000054250000507178000000000507178000000000000000000000000000000010000164597  3120120814   02BW        5000000               000000000000000                                               3181522712430293807258000079               0164597/02                         N                     01130 10020256        000005
12009419898000101LUSITANO IND COM EMBAL PLAST                                          0000000034100000 0000000000000  I000000000009488000000000000000               201208140000000000000000054250000037696000000000037696000000000000000000000000000000010000009797  3120120814   02BW        5000000               000000000000000                                               3181522490525001160072300059               09797/01                           N                     01132 10020256        000006
12002503185000182ANDAIMES MAQUINAS BIG LTDA                                            0000000034100000 0000000000000  I000000000009489000000000000000               201208140000000000000000054250000016841000000000016841000000000000000000000000000000010000004889  3120120814   02BW        5000000               000000000000000                                               3181522709063650303800900079               04889                              N                     01132 10020256        000007
12042956441000101SOLUCOES EM ACO USIMINAS S A                                          0000000034100000 0000000000000  I000000000009480000000000000000               201208140000000000000000054250000757990000000000757990000000000000000000000000000000010000164594  3120120814   02BW        5000000               000000000000000                                               3181522541441293807258000069               0164594/02                         N                     01132 10020256        000008
12042956441000101SOLUCOES EM ACO USIMINAS S A                                          0000000034100000 0000000000000  I000000000009481000000000000000               201208140000000000000000054250000649671000000000649671000000000000000000000000000000010000159624  3120120814   02BW        5000000               000000000000000                                               3181522544411293807258000039               0159624/03                         N                     01132 10020256        000009
12061217188000119TELAS METALICAS TELMETAL LTDA                                         0000000034100000 0000000000000  I000000000009485000000000000000               201208140000000000000000054250000174927000000000174927000000000000000000000000000000010000005293  3120120814   02BW        5000000               000000000000000                                               3181522486874077099894600019               05293/02-03                        N                     01132 10020256        000010
12066899790000105FAB ART DE LATEX ESTR EP LTDA                                         0000000039900000 0000000000000  I000000000009484000000000000000               201208140000000000000000054250000251189000000000251189000000000000000000000000000000010000072773  3120120814   02BW        5000000               000000000000000                                               3175513042721125027292500119               072773/01                          N                     01132 10020256        000011
12042956441000101SOLUCOES EM ACO USIMINAS S A                                          0000000034100000 0000000000000  I000000000009491000000000000000               201208140000000000000000054250000449307000000000449307000000000000000000000000000000010000169233  3120120814   02BW        5000000               000000000000000                                               3181522857615293807258000019               0169233/01                         N                     01130 10020256        000012
12042956441000101SOLUCOES EM ACO USIMINAS S A                                          0000000034100000 0000000000000  I000000000009495000000000000000               201208140000000000000000054250000157897000000000157897000000000000000000000000000000010000164598  3120120814   02BW        5000000               000000000000000                                               3181522887331293807258000089               0164598/02                         N                     01130 10020256        000013
12042956441000101SOLUCOES EM ACO USIMINAS S A                                          0000000034100000 0000000000000  I000000000009492000000000000000               201208140000000000000000054250000280137000000000280137000000000000000000000000000000010000159625  3120120814   02BW        5000000               000000000000000                                               3181522710814293807258000039               0159625/03                         N                     01130 10020256        000014
12042956441000101SOLUCOES EM ACO USIMINAS S A                                          0000000000100000 0000000000000  I000000000009493000000000000000               201208140000000000000000054250000448663000000000448663000000000000000000000000000000010000164692  3120120814   02BW        5000000               000000000000000                                               3000000169660100000785031749               0164692/02                         N                     01130 10020256        000015
12042956441000101SOLUCOES EM ACO USIMINAS S A                                          0000000034100000 0000000000000  I000000000009494000000000000000               201208140000000000000000054250000234657000000000234657000000000000000000000000000000010000164588  3120120814   02BW        5000000               000000000000000                                               3181522885657293807258000019               0164588/02                         N                     01130 10020256        000016
12042956441000101SOLUCOES EM ACO USIMINAS S A                                          0000000034100000 0000000000000  I000000000009496000000000000000               201208140000000000000000054250000125183000000000125183000000000000000000000000000000010000164592  3120120814   02BW        5000000               000000000000000                                               3181522888321293807258000019               0164592/02                         N                     01130 10020256        000017
12056993900000131CIA METALURGICA PRADA                                                 0000000034100000 0000000000000  I000000000009482000000000000000               201208140000000000000000054250000635681000000000635681000000000000000000000000000000010000239157  3120120814   02BW        5000000               000000000000000                                               3181522489297293800573900019               0239157/03                         N                     01132 10020256        000018
12007068566000102NIVEL EMPREGOS LTDA           AV CELSO GARCIA 3830                    0306400023700097300000003053792 I000000000009479000000000000000               201208140000000000000000000000000000000000000000200000000000000000000000000000000000010000002727  0120120814   02BW        5000000               000000000000000                                               3                                          NOTA FISCAL NRO.2727 - PARC.02.    N                     01321 10020256        000019
12012006058000121WEG TINTAS LTDA                                                       0000000023702727800000000001309 I000000000009483009021790000074               201208140000000000000000054250000308201000000000308201000000000000000000000000000000010000147739  3120120814   02BW        5000000               000000000000000                                               3272709217900000740000130079               0147739/01                         N                     01079 10020256        000020
12035820448000136WHITE MARTINS GASES IND LTDA                                          0000000023700026400000003937925 I000000000009486009021940001235               201208140000000000000000054250000166842000000000166842000000000000000000000000000000010000008762  3120120814   02BW        5000000               000000000000000                                               3002609219400012350393792019               08762                              N                     01079 10020256        000021
900002200000000007443606                                                                                                                                                                                    000000000000000                                                                                                                                                                                                                                                    00002000976500006340580        000022
