0000147602043799295000110ALTAMIRA INDUSTRIA METALURGICA LT       202000000012620120914063440             1                                                                                                                                                                                                                                                                                                                                                                                                    000001
12001852612000175BT EQUIP INDUSTRIAIS LTDA EPP                                         000000003410000000000000000000000000000086615424000000230334024590848         201209102012081600000000054520000044535000000000045123000000000000000000000000000588050000000000  3020120914   01          2                                                                                   3112303340247052567228300059                                                  N                     01321  0000000        000002
12001895314000162COLETA INDUSTRIAL FIMAVAN LTDA                                        0000000034100000000000000000000000000000866992070000009002335349439           201208272012081700000000054380000123695000000000132091000000000000000000000000008396050000000000  3020120914   01          2                                                                                   3109002335346144604097200019                                                  N                     01321  0000000        000003
12001951865000104FOUR FACTORING FOMENTO M LTDA                                         000000004220000000000000000000000000000085607115000000000000000174            201209132012073000000000054550000310000000000000311032000000000000000000000000001032050000000000  3020120914   01          2                                                                                   3702000009214741498829499119                                                  N                     01321  0000000        000004
12002503185000182ANDAIMES MAQUINAS BIG LTDA EPP                                        000000003410000000000000000000000000000086282613000000228719913011660         201208302012081000000000054410000012000000000000012360000000000000000000000000000360050000000000  3020120914   01          2                                                                                   3112287199130650303800900039                                                  N                     01321  0000000        000005
12003102481000134AB5 IND E COMERCIO LTDA EPP                                           0000000034100000000000000000000000000000865388210000009000040412849           201209042012080700000000054460000155820000000000157900000000000000000000000000002340050000000000  3020120912   06          3                                                                                   3109000040418003154755700069                                                  N                     01321  0000000        000006
12003163055000100JN FOMENTO MERCANTIL LTDA                                             000000004220000000000000000000000000000088191353000000000000000509 12         201210092012091200000000054810000015000000000000015000000000000000000000000000000000050000000000  3020121009   01FS        1                                                                                   3700400001182791920957609119                                                  N                     01321  0000000        000007
12003489596000123BEND FLEX I COMERCIO LTDA                                             000000003410000000000000000000000000000086859265000000792419599608            201209122012082300000000054540000695250000000000711889000000000000000000000000016639050000000000  3020120914   01          2                                                                                   3157924195999157734445800089                                                  N                     01321  0000000        000008
12003803271000173ATUAL SP C DE FERRAMENTAS LTDA                                        000000003410000000000000000000000000000086373180000000791271229007062         201209112012081400000000054530000027365000000000028348000000000000000000000000000983050000000000  3020120914   01          2                                                                                   3157912712293013905550300019                                                  N                     01321  0000000        000009
12004882911000140F C BRITO CARTUCHOS ME                                                00000000033000000000000000000000000000008819135200000080000000012694 A21      201209122012081500000000054540000037600000000000038701000000000000000000000000001101050000000000  3020120914   01FS        1                                                                                   3944753720000000093580010139                                                  N                     01321  0000000        000010
12005151518000140BELENUS DO BRASIL LTDA                                                000000000010000000000000000000000000000087407070000000774914000R129723212     201209132012082100000000054550000599040000000000601017000000000000000000000000001977050000000000  3020120914   01          2                                                                                   3000000123933843997749143119                                                  N                     01321  0000000        000011
12005880850000145NEDERMAN BRASIL COM PROD EX LT                                        000000003410000000000000000000000000000086373178000000614350956002763 A       201209122012081400000000054540000289674000000000290814000000000000000000000000001140050000000000  3020120914   01          2                                                                                   3156143509568160829000100039                                                  N                     01321  0000000        000012
12006000195000156M B A MERCANTIL BRASILEIRA DE                                         0000000000100000000000000000000000000000831387060000007752280000008616B03     201209132012062000000000054550000572227000000000573181000000000000000000000000000954050000000000  3020120914   01          2                                                                                   3043837752283333000105251199                                                  N                     01321  0000000        000013
12006000195000156M B A MERCANTIL BRASILEIRA DE                                         0000000000100000000000000000000000000000831386970000007752250000008615B03     201209122012062000000000054540000498323000000000499985000000000000000000000000001662050000000000  3020120914   01          2                                                                                   3043837752253333000105251139                                                  N                     01321  0000000        000014
12006000195000156M B A MERCANTIL BRASILEIRA DE                                         0000000000100000000000000000000000000000834820220000002571540000008653B03     201209132012062600000000054550000276788000000000277249000000000000000000000000000461050000000000  3020120914   01          2                                                                                   3043852571543333000105251119                                                  N                     01321  0000000        000015
12006000195000156M B A MERCANTIL BRASILEIRA DE                                         0000000000100000000000000000000000000000831387010000007752220000008614B03     201209112012062000000000054530000949922000000000954671000000000000000000000000004749050000000000  3020120914   01          2                                                                                   3043837752223333000105251159                                                  N                     01321  0000000        000016
12006000195000156M B A MERCANTIL BRASILEIRA DE                                         0000000023700118P00000002130599 00000000868592680020223600000010009229B01     201209132012081600000000054550000253414000000000253836000000000000000000000000000422050000000000  3020120914   01          2  RUA JUNO  533                                                                    3                         000000000000000                                     N                     00598  0000000        000017
12006000195000156M B A MERCANTIL BRASILEIRA DE                                         0000000023700118P00000002130599 00000000848180730020220100000040008872B02     201209112012071700000000054530000112773000000000113337000000000000000000000000000564050000000000  3020120914   01          2  RUA JUNO  533                                                                    3                         000000000000000                                     N                     00598  0000000        000018
12006000195000156M B A MERCANTIL BRASILEIRA DE                                         0000000023700118P00000002130599 00000000865388220020222900000430009203B01     201209122012081500000000054540000396727000000000398049000000000000000000000000001322050000000000  3020120914   01          2  RUA JUNO  533                                                                    3                         000000000000000                                     N                     00598  0000000        000019
12006000195000156M B A MERCANTIL BRASILEIRA DE                                         0000000023700118P00000002130599 00000000865388250020222900000460009204B01     201209132012081500000000054550000146386000000000146630000000000000000000000000000244050000000000  3020120914   01          2  RUA JUNO  533                                                                    3                         000000000000000                                     N                     00598  0000000        000020
12006000195000156M B A MERCANTIL BRASILEIRA DE                                         0000000023700118P00000002130599 00000000848180760020220100000330008905B02     201209132012071900000000054550000155301000000000155560000000000000000000000000000259050000000000  3020120914   01          2  RUA JUNO  533                                                                    3                         000000000000000                                     N                     00598  0000000        000021
12006000195000156M B A MERCANTIL BRASILEIRA DE                                         0000000023700118P00000002128292 00000000881913490090216400000070008515B03     201209052012061100000000054470000641590000000000641590000000000000000000000000000000050000000000  3020120914   01FS        1  RUA JUNO  533                                                                    3                         000000000000000                                     N                     00598  0000000        000022
12006000195000156M B A MERCANTIL BRASILEIRA DE                                         0000000023700118P00000002128292 00000000881913500090216600000630008542B03     201209052012061300000000054470001076000000000001076000000000000000000000000000000000050000000000  3020120914   01FS        1  RUA JUNO  533                                                                    3                         000000000000000                                     N                     00598  0000000        000023
12006000195000156M B A MERCANTIL BRASILEIRA DE                                         0000000023700118P00000002128292 00000000881913510090216600000700008556B03     201209062012061400000000054480000456280000000000456280000000000000000000000000000000050000000000  3020120914   01FS        1  RUA JUNO  533                                                                    3                         000000000000000                                     N                     00598  0000000        000024
12006000195000156M B A MERCANTIL BRASILEIRA DE                                         0000000023700118P00000002128292 00000000869611080090220100000100008907B01     201208182012071900000000054290000566157000000000566157000000000000000000000000000000050000000000  3020120828   05          3  RUA JUNO  533                                                                    3                         000000000000000                                     N                     00598  0000000        000025
12006000195000156M B A MERCANTIL BRASILEIRA DE                                         0000000000100000000000000000000000000000841060990000008760970000008769B02     201208312012070500000000054420000623994000000000627114000000000000000000000000004160050000000000  3020120903   05          3                                                                                   3043878760973333000105251129                                                  N                     01321  0000000        000026
12006000195000156M B A MERCANTIL BRASILEIRA DE                                         0000000023700118P00000002130599 00000000853154980020220900000440008967B01     201208232012072400000000054340000135605000000000140351000000000000000000000000004972050000000000  3020120913   06          3  RUA JUNO  533                                                                    3                         000000000000000                                     N                     00598  0000000        000027
12006000195000156M B A MERCANTIL BRASILEIRA DE                                         0000000023700118P00000002130599 00000000853155100020220900000700008987B01     201208232012072500000000054340000216623000000000224204000000000000000000000000007942050000000000  3020120913   06          3  RUA JUNO  533                                                                    3                         000000000000000                                     N                     00598  0000000        000028
12006867297000173MARCOS ANTONIO RIBEIRO ACOS                                           0000000034100000000000000000000000000000881913470000002386992240000433        201210082012091200000000054800000042270000000000042270000000000000000000000000000000050000000000  3020121008   01FS        1                                                                                   3112386992245046769908800059                                                  N                     01321  0000000        000029
12006894969000130TERRADIESEL COM DE PCS P CAMIN                                        00000000341000000000000000000000000000008653881500000023020935013969A         201209072012081500000000054490000017800000000000018549000000000000000000000000000749050000000000  3020120914   01          2                                                                                   3112302093508006500924300049                                                  N                     01321  0000000        000030
12008508119000181DINARI FOMENTO MERCANTIL LTDA                                         0000000023702499600000000178306 0000000086282616002022260000004206 B          201209102012081000000000054520000170000000000000177140000000000000000000000000007140050000000000  3020120914   01          2  RUA JUNO  533 VL N MANCHESTER SAO PAULO PANKRO LOGISTICA E TRANSPORTES LTDA EPP  3                         002269980000158                                     N                     00598  0000000        000031
12008709272000177MULTIELETRICA C M E LTDA                                              000000003410000000000000000000000000000085771860000000900002207000002535D     201209112012072400000000054530000188886000000000201143000000000000000000000000012257050000000000  3020120914   01          2                                                                                   3109000022073075798525400059                                                  N                     01321  0000000        000032
12009137729000189MULTI RECEBIVEIS II FUNDO DE I                                        0000000023703369300000000044253 000000008685926300902236000000713649 1        201209132012081600000000054550000114374000000000114755000000000000000000000000000381050000000000  3020120914   01          2  R TAMANDE 1410                          ANHEMBI INDUSTRIA DE CAIXAS DE PAPELAO O 3                         043292101000196                                     N                     00598  0000000        000033
12009419898000101LUSITANO INDUSTRIA C E P LTDA                                         00000000341000000000000000000000000000008653881900000090000757001 10137 1     201209122012081500000000054540000035136000000000035370000000000000000000000000000234050000000000  3020120914   01          2                                                                                   3109000075708001160072300089                                                  N                     01321  0000000        000034
12012006058000121WEG TINTAS LTDA                                                       0000000023702727800000000001309 00000000833069160090217700001090014685603     201209052012062200000000054470000459992000000000465509000000000000000000000000005517050000000000  3020120914   01          2  R JUNO  533                                                                      3                         000000000000000                                     N                     00598  0000000        000035
12012006058000121WEG TINTAS LTDA                                                       0000000023702727800000000001309 00000000854049540090221200001000015513001     201209102012072700000000054520000459854000000000462306000000000000000000000000002452050000000000  3020120914   01          2  R JUNO  533                                                                      3                         000000000000000                                     N                     00598  0000000        000036
12012006058000121WEG TINTAS LTDA                                                       0000000023702727800000000001309 00000000834820640090217900000760014773903     201209092012062600000000054510000306662000000000308702000000000000000000000000002040050000000000  3020120914   01          2  R JUNO  533                                                                      3                         000000000000000                                     N                     00598  0000000        000037
12012006058000121WEG TINTAS LTDA                                                       0000000023702727800000000001309 00000000842436830090219200000850015068802     201209072012070900000000054490000306569000000000309425000000000000000000000000002856050000000000  3020120914   01          2  R JUNO  533                                                                      3                         000000000000000                                     N                     00598  0000000        000038
12012006058000121WEG TINTAS LTDA                                                       0000000023702727800000000001309 00000000844839230090219500000720015168702     201209102012071200000000054520000306569000000000308201000000000000000000000000001632050000000000  3020120914   01          2  R JUNO  533                                                                      3                         000000000000000                                     N                     00598  0000000        000039
12012113201000184HYPER COMERCIO D N L LTDA                                             0000000034100000000000000000000000000000878205880000009000296850527221        201209132012081600000000054550000034578000000000034693000000000000000000000000000115050000000000  3020120914   01          2                                                                                   3109000296859056888568500049                                                  N                     01321  0000000        000040
12013713781000103TRANSPIONEIRA TRANSPORTES E LO                                        0000000034100000000000000000000000000000881913480000002384840051103318 12     201210082012091100000000054800000120000000000000120000000000000000000000000000000000050000000000  3020121008   01FS        1                                                                                   3112384840057315090027600089                                                  N                     01321  0000000        000041
12015251825000156JOSEFA A LIMA DOS SANTOS EPP                                          000000003410000000000000000000000000000088191339000000795424054841            201210112012091300000000054830000021500000000000021500000000000000000000000000000000050000000000  3020121011   01FS        1                                                                                   3157954240547810513909400039                                                  N                     01321  0000000        000042
12033325184001786ALSCO TOALHEIRO BRASIL                                                0000000023703396000000001490850 0000000087168277009000002698905VM26989        201209132012082400000000054550000040130000000000040170000000000000000000000000000040050000000000  3020120914   01          2  RUA  GANGES 528                                                                  3                         000000000000000                                     N                     00598  0000000        000043
12035820448000136WHITE MARTINS GASES INDUSTRIAI                                        0000000023700026400000003937925 0000000086538817009022290001168366855 001     201209112012081600000000054530000121725000000000124645000000000000000000000000002920050000000000  3020120914   01          2  RUA GANGES  528                                                                  3                         000000000000000                                     N                     00598  0000000        000044
12035820448000136WHITE MARTINS GASES INDUSTRIAI                                        0000000023700026400000003937925 0000000085861656009022190000404361579 001     201208312012080400000000054420000162300000000000168570000000000000000000000000006270050000000000  3020120914   01          2  RUA GANGES  528                                                                  3                         000000000000000                                     N                     00598  0000000        000045
12035820448000136WHITE MARTINS GASES INDUSTRIAI                                        0000000023700026400000003937925 0000000086196029009022230001562364184 001     201209062012081000000000054480000113610000000000117090000000000000000000000000003480050000000000  3020120914   01          2  RUA GANGES  528                                                                  3                         000000000000000                                     N                     00598  0000000        000046
12035820448000136WHITE MARTINS GASES INDUSTRIAI                                        0000000023700026400000003937925 0000000088191338009022570001466379316 001     201210092012091300000000054810000085208000000000085208000000000000000000000000000000050000000000  3020121009   01FS        1  RUA GANGES  528                                                                  3                         000000000000000                                     N                     00598  0000000        000047
12035820448000136WHITE MARTINS GASES INDUSTRIAI                                        0000000023700026400000003937925 0000000086373165009022270006973365235 001     201209102012081400000000054520000017600000000000018021000000000000000000000000000444050000000000  3020120913   06          3  RUA GANGES  528                                                                  3                         000000000000000                                     N                     00598  0000000        000048
12042956441000101SOLUCOES EM ACO USIMINAS S A                                          000000000010000000000000000000000000000082724452000000078504000000164692003   201209042012061300000000054460000442467000000000444237000000000000000000000000002655050000000000  3020120906   05          3                                                                                   3000000169660100000785041769                                                  N                     01321  0000000        000049
12042956441000101SOLUCOES EM ACO USIMINAS S A                                          000000000010000000000000000000000000000082801781000000079483000000164960003   201209062012061400000000054480000506048000000000506048000000000000000000000000000000050000000000  3020120906   05          3                                                                                   3000000169660100000794831729                                                  N                     01321  0000000        000050
12042956441000101SOLUCOES EM ACO USIMINAS S A                                          000000000010000000000000000000000000000082801784000000079486000000164961003   201209062012061400000000054480000323367000000000323367000000000000000000000000000000050000000000  3020120906   05          3                                                                                   3000000169660100000794861719                                                  N                     01321  0000000        000051
12042956441000101SOLUCOES EM ACO USIMINAS S A                                          000000000010000000000000000000000000000082801787000000079137000000057516003   201209062012061400000000054480000609814000000000609814000000000000000000000000000000050000000000  3020120906   05          3                                                                                   3000000169660100000791371799                                                  N                     01321  0000000        000052
12042956441000101SOLUCOES EM ACO USIMINAS S A                                          000000000010000000000000000000000000000082801789000000079535000000165008003   201209052012061400000000054470000191165000000000191547000000000000000000000000000764050000000000  3020120906   05          3                                                                                   3000000169660100000795351729                                                  N                     01321  0000000        000053
12042956441000101SOLUCOES EM ACO USIMINAS S A                                          000000000010000000000000000000000000000082801791000000079529000000165006003   201209052012061400000000054470000091719000000000091902000000000000000000000000000366050000000000  3020120906   05          3                                                                                   3000000169660100000795291719                                                  N                     01321  0000000        000054
12042956441000101SOLUCOES EM ACO USIMINAS S A                                          000000000010000000000000000000000000000082801794000000079532000000165007003   201209052012061400000000054470000244583000000000245072000000000000000000000000000978050000000000  3020120906   05          3                                                                                   3000000169660100000795321719                                                  N                     01321  0000000        000055
12042956441000101SOLUCOES EM ACO USIMINAS S A                                          000000000010000000000000000000000000000082978014000000080986000000165260003   201209062012061800000000054480000383505000000000383505000000000000000000000000000000050000000000  3020120906   05          3                                                                                   3000000169660100000809861749                                                  N                     01321  0000000        000056
12042956441000101SOLUCOES EM ACO USIMINAS S A                                          000000000010000000000000000000000000000083138709000000082600000000057848003   201209122012062000000000054540000190073000000000190833000000000000000000000000000760050000000000  3020120914   01          2                                                                                   3000000169660100000826001769                                                  N                     01321  0000000        000057
12042956441000101SOLUCOES ACO USIMINAS                                                 0000000034100000000000000000000000000000858616290000002271409670017315101     201208302012080200000000054410000579548000000000596933000000000000000000000000017385050000000000  3020120914   01          2                                                                                   3112271409677293807258000099                                                  N                     01321  0000000        000058
12042956441000101SOLUCOES ACO USIMINAS                                                 0000000034100000000000000000000000000000858616320000002271409680017316001     201208302012080200000000054410000929730000000000957615000000000000000000000000027885050000000000  3020120914   01          2                                                                                   3112271409685293807258000039                                                  N                     01321  0000000        000059
12042956441000101SOLUCOES ACO USIMINAS                                                 0000000034100000000000000000000000000000858616330000002271409690017319301     201208302012080200000000054410000981820000000001011280000000000000000000000000029460050000000000  3020120914   01          2                                                                                   3112271409693293807258000039                                                  N                     01321  0000000        000060
12042956441000101SOLUCOES ACO USIMINAS                                                 0000000034100000000000000000000000000000858616340000002271409700017319401     201208302012080200000000054410000178956000000000184326000000000000000000000000005370050000000000  3020120914   01          2                                                                                   3112271409701293807258000089                                                  N                     01321  0000000        000061
12042956441000101SOLUCOES ACO USIMINAS                                                 0000000034100000000000000000000000000000858616350000002271409710017319501     201208302012080200000000054410000197439000000000203364000000000000000000000000005925050000000000  3020120914   01          2                                                                                   3112271409719293807258000049                                                  N                     01321  0000000        000062
12042956441000101SOLUCOES ACO USIMINAS                                                 0000000034100000000000000000000000000000858616360000002271409720017319601     201208302012080200000000054410000197103000000000203013000000000000000000000000005910050000000000  3020120914   01          2                                                                                   3112271409727293807258000019                                                  N                     01321  0000000        000063
12042956441000101SOLUCOES ACO USIMINAS                                                 0000000034100000000000000000000000000000858616370000002271409730017319701     201208302012080200000000054410000197271000000000203196000000000000000000000000005925050000000000  3020120914   01          2                                                                                   3112271409735293807258000019                                                  N                     01321  0000000        000064
12042956441000101SOLUCOES ACO USIMINAS                                                 0000000034100000000000000000000000000000858616380000002271409740017319801     201208302012080200000000054410000194583000000000200418000000000000000000000000005835050000000000  3020120914   01          2                                                                                   3112271409743293807258000019                                                  N                     01321  0000000        000065
12042956441000101SOLUCOES EM ACO USIMINAS S A                                          000000000010000000000000000000000000000083306906000000084914000000166430003   201209132012062200000000054550000193852000000000194240000000000000000000000000000388050000000000  3020120914   01          2                                                                                   3000000169660100000849141719                                                  N                     01321  0000000        000066
12042956441000101SOLUCOES EM ACO USIMINAS S A                                          000000000010000000000000000000000000000083306908000000084917000000166431003   201209132012062200000000054550000484521000000000485490000000000000000000000000000969050000000000  3020120914   01          2                                                                                   3000000169660100000849171769                                                  N                     01321  0000000        000067
12042956441000101SOLUCOES EM ACO USIMINAS S A                                          000000000010000000000000000000000000000083218056000000083600000000057906003   201209132012062100000000054550000698618000000000700015000000000000000000000000001397050000000000  3020120914   01          2                                                                                   3000000169660100000836001769                                                  N                     01321  0000000        000068
12042956441000101SOLUCOES ACO USIMINAS                                                 0000000034100000000000000000000000000000846595700000002210880280016980502     201209102012071200000000054520000156071000000000157319000000000000000000000000001248050000000000  3020120914   01          2                                                                                   3112210880285293807258000039                                                  N                     01321  0000000        000069
12042956441000101SOLUCOES ACO USIMINAS                                                 0000000034100000000000000000000000000000846595710000002210880290016980602     201209102012071200000000054520000426094000000000429502000000000000000000000000003408050000000000  3020120914   01          2                                                                                   3112210880293293807258000019                                                  N                     01321  0000000        000070
12042956441000101SOLUCOES ACO USIMINAS                                                 0000000034100000000000000000000000000000847452070000002216130350005922202     201209102012071600000000054520000172071000000000173447000000000000000000000000001376050000000000  3020120914   01          2                                                                                   3112216130354293807258000049                                                  N                     01321  0000000        000071
12042956441000101SOLUCOES ACO USIMINAS                                                 0000000034100000000000000000000000000000847452100000002216130340017012402     201209102012071500000000054520000147428000000000148608000000000000000000000000001180050000000000  3020120914   01          2                                                                                   3112216130347293807258000059                                                  N                     01321  0000000        000072
12042956441000101SOLUCOES ACO USIMINAS                                                 0000000034100000000000000000000000000000856906410000002262886280017266201     201208282012073000000000054390000119472000000000123535000000000000000000000000004063050000000000  3020120914   01          2                                                                                   3112262886289293807258000089                                                  N                     01321  0000000        000073
12042956441000101SOLUCOES ACO USIMINAS                                                 0000000034100000000000000000000000000000856906420000002262886290017266301     201208282012073000000000054390000145069000000000149999000000000000000000000000004930050000000000  3020120914   01          2                                                                                   3112262886297293807258000099                                                  N                     01321  0000000        000074
12042956441000101SOLUCOES ACO USIMINAS                                                 0000000034100000000000000000000000000000826558360000002112172750016459203     201209042012061100000000054460000123455000000000125925000000000000000000000000002470050000000000  3020120914   01          2                                                                                   3112112172757293807258000049                                                  N                     01321  0000000        000075
12042956441000101SOLUCOES ACO USIMINAS                                                 0000000034100000000000000000000000000000853154910000002246247000017196701     201208232012072500000000054340000234911000000000245251000000000000000000000000010340050000000000  3020120914   01          2                                                                                   3112246247004293807258000019                                                  N                     01321  0000000        000076
12042956441000101SOLUCOES ACO USIMINAS                                                 0000000034100000000000000000000000000000855028660000002254329280017200301     201208232012072600000000054340000156943000000000163851000000000000000000000000006908050000000000  3020120914   01          2                                                                                   3112254329280293807258000019                                                  N                     01321  0000000        000077
12042956441000101SOLUCOES ACO USIMINAS                                                 0000000034100000000000000000000000000000848180700000002220192900017041002     201209112012071700000000054530000155433000000000156366000000000000000000000000000933050000000000  3020120914   01          2                                                                                   3112220192903293807258000029                                                  N                     01321  0000000        000078
12042956441000101SOLUCOES ACO USIMINAS                                                 0000000034100000000000000000000000000000848180710000002220192910017041202     201209112012071700000000054530000205421000000000206654000000000000000000000000001233050000000000  3020120914   01          2                                                                                   3112220192911293807258000019                                                  N                     01321  0000000        000079
12042956441000101SOLUCOES ACO USIMINAS                                                 0000000034100000000000000000000000000000850740460000002233586800017127201     201208202012072000000000054310000137881000000000144781000000000000000000000000006900050000000000  3020120914   01          2                                                                                   3112233586802293807258000019                                                  N                     01321  0000000        000080
12042956441000101SOLUCOES ACO USIMINAS                                                 0000000034100000000000000000000000000000819545020000002078930840016239503     201208222012052900000000054330001126072000000001177868000000000000000000000000051796050000000000  3020120914   01          2                                                                                   3112078930842293807258000019                                                  N                     01321  0000000        000081
12042956441000101SOLUCOES ACO USIMINAS                                                 0000000034100000000000000000000000000000824061850000002100925420016380503     201208292012060500000000054400000215523000000000222419000000000000000000000000006896050000000000  3020120914   01          2                                                                                   3112100925422293807258000039                                                  N                     01321  0000000        000082
12042956441000101SOLUCOES ACO USIMINAS                                                 0000000034100000000000000000000000000000824061860000002100925430016380703     201208292012060500000000054400000216699000000000223627000000000000000000000000006928050000000000  3020120914   01          2                                                                                   3112100925430293807258000079                                                  N                     01321  0000000        000083
12042956441000101SOLUCOES ACO USIMINAS                                                 0000000034100000000000000000000000000000825740790000002106974460016399003     201208292012060600000000054400000203068000000000209564000000000000000000000000006496050000000000  3020120914   01          2                                                                                   3112106974465293807258000089                                                  N                     01321  0000000        000084
12042956441000101SOLUCOES ACO USIMINAS                                                 0000000034100000000000000000000000000000840313020000002181699190016814402     201208272012070200000000054380000968423000000001003289000000000000000000000000034866050000000000  3020120914   01          2                                                                                   3112181699193293807258000019                                                  N                     01321  0000000        000085
12042956441000101SOLUCOES ACO USIMINAS                                                 0000000034100000000000000000000000000000840313030000002181699200016827102     201208272012070200000000054380000703010000000000728318000000000000000000000000025308050000000000  3020120914   01          2                                                                                   3112181699201293807258000019                                                  N                     01321  0000000        000086
12042956441000101SOLUCOES ACO USIMINAS                                                 0000000034100000000000000000000000000000840313060000002181699210016829702     201208272012070200000000054380000643712000000000666878000000000000000000000000023166050000000000  3020120914   01          2                                                                                   3112181699219293807258000089                                                  N                     01321  0000000        000087
12042956441000101SOLUCOES ACO USIMINAS                                                 0000000034100000000000000000000000000000840313070000002181699220016829802     201208272012070200000000054380000322528000000000334138000000000000000000000000011610050000000000  3020120914   01          2                                                                                   3112181699227293807258000029                                                  N                     01321  0000000        000088
12042956441000101SOLUCOES ACO USIMINAS                                                 0000000034100000000000000000000000000000841725460000002188168540016859402     201208292012070400000000054400000164456000000000169720000000000000000000000000005264050000000000  3020120914   01          2                                                                                   3112188168549293807258000059                                                  N                     01321  0000000        000089
12042956441000101SOLUCOES ACO USIMINAS                                                 0000000034100000000000000000000000000000841725470000002188168550016859502     201208292012070400000000054400000234337000000000241841000000000000000000000000007504050000000000  3020120914   01          2                                                                                   3112188168556293807258000089                                                  N                     01321  0000000        000090
12042956441000101SOLUCOES ACO USIMINAS                                                 0000000034100000000000000000000000000000841725480000002188168560016884802     201208302012070500000000054410000120612000000000124227000000000000000000000000003615050000000000  3020120914   01          2                                                                                   3112188168564293807258000019                                                  N                     01321  0000000        000091
12042956441000101SOLUCOES ACO USIMINAS                                                 0000000034100000000000000000000000000000841725490000002188168570016884902     201208302012070500000000054410000531835000000000547795000000000000000000000000015960050000000000  3020120914   01          2                                                                                   3112188168572293807258000019                                                  N                     01321  0000000        000092
12042956441000101SOLUCOES ACO USIMINAS                                                 0000000034100000000000000000000000000000841725500000002188168580016885102     201208302012070500000000054410000219722000000000226307000000000000000000000000006585050000000000  3020120914   01          2                                                                                   3112188168580293807258000049                                                  N                     01321  0000000        000093
12042956441000101SOLUCOES ACO USIMINAS                                                 0000000034100000000000000000000000000000841725510000002188168590016891202     201208302012070500000000054410001132543000000001166518000000000000000000000000033975050000000000  3020120914   01          2                                                                                   3112188168598293807258000019                                                  N                     01321  0000000        000094
12042956441000101SOLUCOES ACO USIMINAS                                                 0000000034100000000000000000000000000000841725520000002188168600016891402     201208302012070500000000054410000795232000000000819082000000000000000000000000023850050000000000  3020120914   01          2                                                                                   3112188168606293807258000019                                                  N                     01321  0000000        000095
12042956441000101SOLUCOES ACO USIMINAS                                                 0000000034100000000000000000000000000000841725530000002188168610016891502     201208302012070500000000054410001128343000000001162198000000000000000000000000033855050000000000  3020120914   01          2                                                                                   3112188168614293807258000089                                                  N                     01321  0000000        000096
12042956441000101SOLUCOES ACO USIMINAS                                                 0000000034100000000000000000000000000000844063830000002198870030016923302     201209042012071000000000054460000442972000000000451832000000000000000000000000008860050000000000  3020120914   01          2                                                                                   3112198870035293807258000059                                                  N                     01321  0000000        000097
12042956441000101SOLUCOES ACO USIMINAS                                                 0000000034100000000000000000000000000000825740800000002106974470016399203     201208292012060600000000054400000450363000000000464779000000000000000000000000014416050000000000  3020120914   01          2                                                                                   3112106974473293807258000039                                                  N                     01321  0000000        000098
12042956441000101SOLUCOES ACO USIMINAS                                                 0000000034100000000000000000000000000000825740810000002106974480016399403     201208292012060600000000054400000431213000000000445005000000000000000000000000013792050000000000  3020120914   01          2                                                                                   3112106974481293807258000099                                                  N                     01321  0000000        000099
12042956441000101SOLUCOES ACO USIMINAS                                                 0000000034100000000000000000000000000000826558270000002112172740016458803     201209042012061100000000054460000231416000000000236046000000000000000000000000004630050000000000  3020120914   01          2                                                                                   3112112172740293807258000059                                                  N                     01321  0000000        000100
12042956441000101SOLUCOES ACO USIMINAS                                                 0000000034100000000000000000000000000000861207220000002282166980017385801     201209042012080700000000054460000715010000000000729310000000000000000000000000014300050000000000  3020120914   01          2                                                                                   3112282166985293807258000089                                                  N                     01321  0000000        000101
12042956441000101SOLUCOES ACO USIMINAS                                                 0000000034100000000000000000000000000000826558320000002112172760016459403     201209042012061100000000054460000747525000000000762475000000000000000000000000014950050000000000  3020120914   01          2                                                                                   3112112172765293807258000089                                                  N                     01321  0000000        000102
12042956441000101SOLUCOES ACO USIMINAS                                                 0000000034100000000000000000000000000000826558340000002112172780016459803     201209042012061100000000054460000155721000000000158831000000000000000000000000003110050000000000  3020120914   01          2                                                                                   3112112172781293807258000099                                                  N                     01321  0000000        000103
12043217850000159IOB INFORMACOES OBJ  PUBL JURI                                        0000000023702374400000002958600 000000008540495200902212000099001440820E4     201208202012073000000000054310000072850000000000074907000000000000000000000000002057050000000000  3020120914   01          2  GANGES 528 VL NOVA MANCHESTER                                                    3                         000000000000000                                     N                     00598  0000000        000104
12043298975000150JOMARCA INDL DE PARAFUSOS LTDA                                        0000000003300000000000000000000000000000872318690000008600000000156043 02     201210302012083100000000055020000147720000000000147720000000000000000000000000000000050000000000  3020121030   05          3                                                                                   3935059520000000500186010419                                                  N                     01321  0000000        000105
12043298975000150JOMARCA INDL DE PARAFUSOS LTDA                                        0000000003300000000000000000000000000000872318700000007800000000156043 01     201209302012083100000000054720000192036000000000192036000000000000000000000000000000050000000000  3020121001   05          3                                                                                   3935059520000000500178010429                                                  N                     01321  0000000        000106
12043298975000150JOMARCA INDL DE PARAFUSOS LTDA                                        0000000003300000000000000000000000000000872318710000009400000000156043 03     201211292012083100000000055320000147720000000000147720000000000000000000000000000000050000000000  3020121129   05          3                                                                                   3935059520000000500194010419                                                  N                     01321  0000000        000107
12044098788000196MAIAMI COM E IMP DE ROLAMENTOS                                        0000000023700503700000000367516 0000000086699211009022330000001010061         201209072012081700000000054490000015000000000000015350000000000000000000000000000350050000000000  3020120914   01          2  RUA GANGES 528 VL CARRAO                                                         3                         000000000000000                                     N                     00598  0000000        000108
12048775225000146SEIKI IND COM E CONFECCOES LTD                                        000000003410000000000000000000000000000086615423000000230404780013963001      201209122012081500000000054540000052000000000000052156000000000000000000000000000156050000000000  3020120914   01          2                                                                                   3112304047809017444824100079                                                  N                     01321  0000000        000109
12051180370000199IGUAFER FERRO E ACO LTDA                                              0000000034100000000000000000000000000000852309100000002239389789443 B         201209022012071800000000054440000168275000000000171635000000000000000000000000003360050000000000  3020120914   01          2                                                                                   3112239389789077149484600089                                                  N                     01321  0000000        000110
12051180370000199IGUAFER FERRO E ACO LTDA                                              0000000034100000000000000000000000000000852309110000002239389799443 C         201209122012071800000000054540000168275000000000168835000000000000000000000000000560050000000000  3020120914   01          2                                                                                   3112239389797077149484600089                                                  N                     01321  0000000        000111
12051598472000129ELETRICA J SANTOS                                                     0000000023702451100000000000264 000000008586165500902219000005118310 01       201209102012080400000000054520000104146000000000105534000000000000000000000000001388050000000000  3020120914   01          2  R JUNO  533                                                                      300000000000000000141500  000000000000000                                     N                     00598  0000000        000112
12053585766000141MULTIACOS INDUSTRIA E COMERCIO                                        0000000000100000000000000000000000000000874070590000007281250000004478801     201209132012082100000000054550000217628000000000217991000000000000000000000000000363050000000000  3020120914   01          2                                                                                   3043997281251912000139523199                                                  N                     01321  0000000        000113
12053585766000141MULTIACOS INDUSTRIA E COMERCIO                                        0000000000100000000000000000000000000000874070600000007281260000004478901     201209132012082100000000054550000134604000000000134828000000000000000000000000000224050000000000  3020120914   01          2                                                                                   3043997281261912000139523119                                                  N                     01321  0000000        000114
12053585766000141MULTIACOS INDUSTRIA E COMERCIO                                        0000000000100000000000000000000000000000874070690000007281270000004479001     201209132012082100000000054550000856458000000000857885000000000000000000000000001427050000000000  3020120914   01          2                                                                                   3043997281271912000139523199                                                  N                     01321  0000000        000115
12053585766000141MULTIACOS INDUSTRIA E COMERCIO                                        0000000000100000000000000000000000000000864554300000008070110000004437801     201209052012081400000000054470000449134000000000449883000000000000000000000000001498050000000000  3020120906   05          3                                                                                   3043978070111912000139523169                                                  N                     01321  0000000        000116
12053585766000141MULTIACOS INDUSTRIA E COMERCIO                                        0000000000100000000000000000000000000000864554150000008070080000004437501     201209052012081400000000054470000431398000000000432117000000000000000000000000001438050000000000  3020120906   05          3                                                                                   3043978070081912000139523119                                                  N                     01321  0000000        000117
12053585766000141MULTIACOS INDUSTRIA E COMERCIO                                        0000000000100000000000000000000000000000864554160000008069530000004375102     201209062012081400000000054480000484407000000000484407000000000000000000000000000000050000000000  3020120906   05          3                                                                                   3043978069531912000139523119                                                  N                     01321  0000000        000118
12053585766000141MULTIACOS INDUSTRIA E COMERCIO                                        0000000000100000000000000000000000000000864554170000008069030000004294603     201209042012081400000000054460000407138000000000408496000000000000000000000000002037050000000000  3020120906   05          3                                                                                   3043978069031912000139523169                                                  N                     01321  0000000        000119
12053585766000141MULTIACOS INDUSTRIA E COMERCIO                                        0000000000100000000000000000000000000000864554200000008069930000004423601     201209042012081400000000054460000625122000000000627206000000000000000000000000003126050000000000  3020120906   05          3                                                                                   3043978069931912000139523169                                                  N                     01321  0000000        000120
12053585766000141MULTIACOS INDUSTRIA E COMERCIO                                        0000000000100000000000000000000000000000864554210000008069940000004423701     201209042012081400000000054460000551694000000000553532000000000000000000000000002757050000000000  3020120906   05          3                                                                                   3043978069941912000139523159                                                  N                     01321  0000000        000121
12053585766000141MULTIACOS INDUSTRIA E COMERCIO                                        0000000000100000000000000000000000000000864554230000008070250000004447201     201209062012081400000000054480000437910000000000437910000000000000000000000000000000050000000000  3020120906   05          3                                                                                   3043978070251912000139523139                                                  N                     01321  0000000        000122
12053585766000141MULTIACOS INDUSTRIA E COMERCIO                                        0000000000100000000000000000000000000000864554250000008070220000004445101     201209062012081400000000054480000295938000000000295938000000000000000000000000000000050000000000  3020120906   05          3                                                                                   3043978070221912000139523139                                                  N                     01321  0000000        000123
12053585766000141MULTIACOS INDUSTRIA E COMERCIO                                        0000000000100000000000000000000000000000864554260000008070230000004445201     201209062012081400000000054480000231078000000000231078000000000000000000000000000000050000000000  3020120906   05          3                                                                                   3043978070231912000139523129                                                  N                     01321  0000000        000124
12053585766000141MULTIACOS INDUSTRIA E COMERCIO                                        0000000000100000000000000000000000000000864554280000008070240000004446101     201209062012081400000000054480000708230000000000708230000000000000000000000000000000050000000000  3020120906   05          3                                                                                   3043978070241912000139523179                                                  N                     01321  0000000        000125
12054382510000108SETENTA IND E COM DE MADEIRAS                                         0000000034100000000000000000000000000000860403430000002277814474462 A         201209042012080700000000054460000191200000000000194960000000000000000000000000003760050000000000  3020120914   01          2                                                                                   3112277814474057049175300069                                                  N                     01321  0000000        000126
12056428188000128EDVALDO SANTOS ROSA ME                                                0000000023700898200000000005622 0000000088191340009011225700666194919606      201209292012091300000000054710000089850000000000089850000000000000000000000000000000050000000000  3020121001   01FS        1  RUA TAMAINDE  1410                                                               3                         000000000000000                                     N                     00598  0000000        000127
12056428188000128EDVALDO SANTOS ROSA ME                                                0000000023700898200000000005622 0000000088191341009011225700667194919607      201210292012091300000000055010000089850000000000089850000000000000000000000000000000050000000000  3020121029   01FS        1  RUA TAMAINDE  1410                                                               3                         000000000000000                                     N                     00598  0000000        000128
12056428188000128EDVALDO SANTOS ROSA ME                                                0000000023700898200000000005622 0000000088191342009011225700668194919608      201211282012091300000000055310000089850000000000089850000000000000000000000000000000050000000000  3020121128   01FS        1  RUA TAMAINDE  1410                                                               3                         000000000000000                                     N                     00598  0000000        000129
12056428188000128EDVALDO SANTOS ROSA ME                                                0000000023700898200000000005622 0000000088191343009011225700669194919609      201212282012091300000000055610000089850000000000089850000000000000000000000000000000050000000000  3020121228   01FS        1  RUA TAMAINDE  1410                                                               3                         000000000000000                                     N                     00598  0000000        000130
12056667629000144COMERCIAL BERENELI LTDA                                               000000000330000000000000000000000000000086812637000000620000000NF  11160      201209122012081500000000054540000052520000000000052772000000000000000000000000000252050000000000  3020120914   01          2                                                                                   3946371510000000030562010469                                                  N                     01321  0000000        000131
12056993512000150CYKLOP DO BRASIL EMBALAGENS SA                                        0000000034100000000000000000000000000000878205080000002299329080132528        201209112012081400000000054530000083607000000000084528000000000000000000000000000921050000000000  3020120914   01          2                                                                                   3112299329089025786126000099                                                  N                     01321  0000000        000132
12056993900000131CIA METALURGICA PRADA                                                 0000000034100000000000000000000000000000824820100000002102181160024711603     201208292012060600000000054400000833146000000000855370000000000000000000000000022224050000000000  3020120914   01          2                                                                                   3112102181164293800573900039                                                  N                     01321  0000000        000133
12056993900000131CIA METALURGICA PRADA                                                 0000000034100000000000000000000000000000820562300000002080193680024478203     201208222012053000000000054330000113250000000000117597000000000000000000000000004347050000000000  3020120914   01          2                                                                                   3112080193686293800573900049                                                  N                     01321  0000000        000134
12056993900000131CIA METALURGICA PRADA                                                 0000000034100000000000000000000000000000820562310000002080193690024478303     201208222012053000000000054330000288295000000000299335000000000000000000000000011040050000000000  3020120914   01          2                                                                                   3112080193694293800573900029                                                  N                     01321  0000000        000135
12056993900000131CIA METALURGICA PRADA                                                 0000000034100000000000000000000000000000820562320000002080193700024499403     201208222012053000000000054330000597722000000000620630000000000000000000000000022908050000000000  3020120914   01          2                                                                                   3112080193702293800573900019                                                  N                     01321  0000000        000136
12056993900000131CIA METALURGICA PRADA                                                 0000000034100000000000000000000000000000820562330000002080193710024499503     201208222012053000000000054330000236585000000000245647000000000000000000000000009062050000000000  3020120914   01          2                                                                                   3112080193710293800573900019                                                  N                     01321  0000000        000137
12056993900000131CIA METALURGICA PRADA                                                 0000000034100000000000000000000000000000821491000000002084501930024572503     201208232012053100000000054340000217291000000000225255000000000000000000000000007964050000000000  3020120914   01          2                                                                                   3112084501934293800573900039                                                  N                     01321  0000000        000138
12056993900000131CIA METALURGICA PRADA                                                 0000000034100000000000000000000000000000848180620000002218222670025829902     201209112012071700000000054530000498118000000000500608000000000000000000000000002490050000000000  3020120914   01          2                                                                                   3112218222670293800573900029                                                  N                     01321  0000000        000139
12056993900000131CIA METALURGICA PRADA                                                 0000000034100000000000000000000000000000848180630000002218222680025830002     201209112012071700000000054530000247673000000000248912000000000000000000000000001239050000000000  3020120914   01          2                                                                                   3112218222688293800573900059                                                  N                     01321  0000000        000140
12056993900000131CIA METALURGICA PRADA                                                 0000000034100000000000000000000000000000848180640000002218222690025830102     201209112012071700000000054530000207402000000000208440000000000000000000000000001038050000000000  3020120914   01          2                                                                                   3112218222696293800573900039                                                  N                     01321  0000000        000141
12056993900000131CIA METALURGICA PRADA                                                 0000000034100000000000000000000000000000855028550000002254750250026244301     201208272012072800000000054380000100986000000000104010000000000000000000000000003024050000000000  3020120914   01          2                                                                                   3112254750253293800573900099                                                  N                     01321  0000000        000142
12056993900000131CIA METALURGICA PRADA                                                 0000000034100000000000000000000000000000855028560000002254750260026244401     201208272012072800000000054380000084368000000000086906000000000000000000000000002538050000000000  3020120914   01          2                                                                                   3112254750261293800573900089                                                  N                     01321  0000000        000143
12056993900000131CIA METALURGICA PRADA                                                 0000000034100000000000000000000000000000837460360000002165934320025295402     201208232012062800000000054340000152797000000000158407000000000000000000000000005610050000000000  3020120914   01          2                                                                                   3112165934327293800573900029                                                  N                     01321  0000000        000144
12056993900000131CIA METALURGICA PRADA                                                 0000000034100000000000000000000000000000837460370000002165934330025295502     201208232012062800000000054340000339049000000000351479000000000000000000000000012430050000000000  3020120914   01          2                                                                                   3112165934335293800573900029                                                  N                     01321  0000000        000145
12056993900000131CIA METALURGICA PRADA                                                 0000000034100000000000000000000000000000837460420000002165934340025295602     201208232012062800000000054340000154164000000000159818000000000000000000000000005654050000000000  3020120914   01          2                                                                                   3112165934343293800573900099                                                  N                     01321  0000000        000146
12056993900000131CIA METALURGICA PRADA                                                 0000000034100000000000000000000000000000822364950000002089776730024584703     201208242012060100000000054350000835797000000000865050000000000000000000000000029253050000000000  3020120914   01          2                                                                                   3112089776739293800573900019                                                  N                     01321  0000000        000147
12056993900000131CIA METALURGICA PRADA                                                 0000000034100000000000000000000000000000822364960000002089776740024585703     201208242012060100000000054350000393990000000000407787000000000000000000000000013797050000000000  3020120914   01          2                                                                                   3112089776747293800573900059                                                  N                     01321  0000000        000148
12056993900000131CIA METALURGICA PRADA                                                 0000000034100000000000000000000000000000823343300000002094231730024634103     201208272012060400000000054380000135902000000000139988000000000000000000000000004086050000000000  3020120914   01          2                                                                                   3112094231738293800573900079                                                  N                     01321  0000000        000149
12056993900000131CIA METALURGICA PRADA                                                 0000000034100000000000000000000000000000823343310000002094231740024634203     201208272012060400000000054380000247806000000000255240000000000000000000000000007434050000000000  3020120914   01          2                                                                                   3112094231746293800573900019                                                  N                     01321  0000000        000150
12056993900000131CIA METALURGICA PRADA                                                 0000000034100000000000000000000000000000823343330000002094231750024634603     201208272012060400000000054380000124715000000000128459000000000000000000000000003744050000000000  3020120914   01          2                                                                                   3112094231753293800573900039                                                  N                     01321  0000000        000151
12056993900000131CIA METALURGICA PRADA                                                 0000000034100000000000000000000000000000823343340000002094231760024634703     201208272012060400000000054380000508859000000000524123000000000000000000000000015264050000000000  3020120914   01          2                                                                                   3112094231761293800573900019                                                  N                     01321  0000000        000152
12056993900000131CIA METALURGICA PRADA                                                 0000000034100000000000000000000000000000844839000000002201181880025629402     201209052012071100000000054470000249372000000000253116000000000000000000000000003744050000000000  3020120914   01          2                                                                                   3112201181883293800573900019                                                  N                     01321  0000000        000153
12056993900000131CIA METALURGICA PRADA                                                 0000000034100000000000000000000000000000844839010000002201181890025635302     201209052012071100000000054470000406842000000000412944000000000000000000000000006102050000000000  3020120914   01          2                                                                                   3112201181891293800573900019                                                  N                     01321  0000000        000154
12056993900000131CIA METALURGICA PRADA                                                 0000000034100000000000000000000000000000844839020000002201181900025635402     201209052012071100000000054470000208689000000000211821000000000000000000000000003132050000000000  3020120914   01          2                                                                                   3112201181909293800573900069                                                  N                     01321  0000000        000155
12056993900000131CIA METALURGICA PRADA                                                 0000000034100000000000000000000000000000844839030000002201181910025635502     201209052012071100000000054470000164780000000000167255000000000000000000000000002475050000000000  3020120914   01          2                                                                                   3112201181917293800573900029                                                  N                     01321  0000000        000156
12056993900000131CIA METALURGICA PRADA                                                 0000000034100000000000000000000000000000844839040000002201181920025635602     201209052012071100000000054470000339933000000000345036000000000000000000000000005103050000000000  3020120914   01          2                                                                                   3112201181925293800573900069                                                  N                     01321  0000000        000157
12056993900000131CIA METALURGICA PRADA                                                 0000000034100000000000000000000000000000844839050000002201181930025636202     201209052012071100000000054470000746213000000000757409000000000000000000000000011196050000000000  3020120914   01          2                                                                                   3112201181933293800573900019                                                  N                     01321  0000000        000158
12056993900000131CIA METALURGICA PRADA                                                 0000000034100000000000000000000000000000844839060000002201181940025644402     201209052012071100000000054470000779647000000000791338000000000000000000000000011691050000000000  3020120914   01          2                                                                                   3112201181941293800573900019                                                  N                     01321  0000000        000159
12056993900000131CIA METALURGICA PRADA                                                 0000000034100000000000000000000000000000844839140000002201181870025629302     201209052012071100000000054470000257906000000000261776000000000000000000000000003870050000000000  3020120914   01          2                                                                                   3112201181875293800573900069                                                  N                     01321  0000000        000160
12056993900000131CIA METALURGICA PRADA                                                 0000000034100000000000000000000000000000837460430000002165934350025295702     201208232012062800000000054340000139528000000000144654000000000000000000000000005126050000000000  3020120914   01          2                                                                                   3112165934350293800573900019                                                  N                     01321  0000000        000161
12056993900000131CIA METALURGICA PRADA                                                 0000000034100000000000000000000000000000838527910000002171340450025383502     201208272012063000000000054380000575128000000000592390000000000000000000000000017262050000000000  3020120914   01          2                                                                                   3112171340451293800573900039                                                  N                     01321  0000000        000162
12056993900000131CIA METALURGICA PRADA                                                 0000000034100000000000000000000000000000838527920000002171340460025384302     201208272012063000000000054380000454477000000000468103000000000000000000000000013626050000000000  3020120914   01          2                                                                                   3112171340469293800573900019                                                  N                     01321  0000000        000163
12056993900000131CIA METALURGICA PRADA                                                 0000000034100000000000000000000000000000840312930000002179478290025419302     201208282012070300000000054390000402178000000000413568000000000000000000000000011390050000000000  3020120914   01          2                                                                                   3112179478295293800573900089                                                  N                     01321  0000000        000164
12056993900000131CIA METALURGICA PRADA                                                 0000000034100000000000000000000000000000840312940000002179478300025419402     201208282012070300000000054390000322804000000000331950000000000000000000000000009146050000000000  3020120914   01          2                                                                                   3112179478303293800573900079                                                  N                     01321  0000000        000165
12057029431000106ATLAS COPCO BRASIL LTDA                                               0000000034100000000000000000000000000000861960280000002283943487000054090     201209062012080900000000054480000059490000000000059802000000000000000000000000000312050000000000  3020120914   01          2                                                                                   3112283943481293804111400069                                                  N                     01321  0000000        000166
12057029431000106ATLAS COPCO BRASIL LTDA                                               0000000034100000000000000000000000000000863731640000002292733057000054146     201209072012081000000000054490000081450000000000081828000000000000000000000000000378050000000000  3020120914   01          2                                                                                   3112292733055293804111400099                                                  N                     01321  0000000        000167
12057158057000130COMERCIAL ELETRICA PJ LTDA                                            0000000023703394400000000972983 00000000842436850090219200008900000305028     201208012012070400000000054120000079196000000000090768000000000000000000000000011572050000000000  3020120914   01          2  R TAMAINDE 1410                                                                  3                         000000000000000                                     N                     00598  0000000        000168
12057196081000164MINELE COMERCIO DE PARAFUSOS L                                        0000000023700298400000002047470 0000000086961109009022400000008538            201209102012082700000000054520000035981000000000037460000000000000000000000000001479050000000000  3020120914   01          2  R  GANGES  528   VL CARRAO                                                       3                         000000000000000                                     N                     00598  0000000        000169
12059876565000180ITALLUX INDUSTRIA E COMERCIO L                                        000000000010000000000000000000000000000085152921000000223041000003868         201209012012072400000000054430000180000000000000185630000000000000000000000000005630050000000000  3020120914   01          2                                                                                   3043922230411203000086821129                                                  N                     01321  0000000        000170
12061217188000119TELAS METALICAS TELMETAL LTDA                                         0000000000100000000000000000000000000000857718500000000055790005438 3 3       201209122012080200000000054540000055680000000000055976000000000000000000000000000296050000000000  3020120914   01          2                                                                                   3000000115031800000055791769                                                  N                     01321  0000000        000171
12061217188000119TELAS METALICAS TELMETAL LTDA                                         0000000000100000000000000000000000000000857718530000000055850005442 3 3       201209122012080200000000054540000051613000000000051889000000000000000000000000000276050000000000  3020120914   01          2                                                                                   3000000115031800000055851759                                                  N                     01321  0000000        000172
12061217188000119TELAS METALICAS TELMETAL LTDA                                         0000000000100000000000000000000000000000857718560000000055880005443 3 3       201209122012080200000000054540000041345000000000041565000000000000000000000000000220050000000000  3020120914   01          2                                                                                   3000000115031800000055881789                                                  N                     01321  0000000        000173
12061217188000119TELAS METALICAS TELMETAL LTDA                                         0000000000100000000000000000000000000000864554360000000056130005494 1 3       201209112012081400000000054530000008494000000000008563000000000000000000000000000069050000000000  3020120914   01          2                                                                                   3000000115031800000056131749                                                  N                     01321  0000000        000174
12061217188000119TELAS METALICAS TELMETAL LTDA                                         0000000003300000000000000000000000000000854049650000001400000005425 3 3       201209102012073000000000054520000045017000000000045377000000000000000000000000000480050000000000  3020120913   06          3                                                                                   3915435040000000047414020129                                                  N                     01321  0000000        000175
12061217188000119TELAS METALICAS TELMETAL LTDA                                         0000000034100000000000000000000000000000864554390000009000029215484 1 3       201209062012081300000000054480000113555000000000113555000000000000000000000000000000050000000000  3020120906   06          3                                                                                   3109000029213077099894600059                                                  N                     01321  0000000        000176
12061721320000125COMERCIAL DE PNEUS ROMA LTDA                                          000000000010000000000000000000000000000086455432000000914171000158201         201209122012081400000000054540000028000000000000028168000000000000000000000000000168050000000000  3020120914   01          2                                                                                   3043979141713333000853153119                                                  N                     01321  0000000        000177
12062944582000111AS SOLUCOES COMERCIAL LTDA                                            00000000001000000000000000000000000000008669920400000032054500016090 A        201209132012081700000000054550000027500000000000027532000000000000000000000000000032050000000000  3020120914   01          2                                                                                   3529483205451190000690001719                                                  N                     01321  0000000        000178
12064952757000168WALMAC COM DE PROD QUIMICOS LT                                        0000000034100000000000000000000000000000860403460000002275821710020148        201208312012080300000000054420000219267000000000225301000000000000000000000000006034050000000000  3020120914   01          2                                                                                   3112275821711064807961400079                                                  N                     01321  0000000        000179
12066144957000110POSTO DE MOLAS MABAFIL LTDA ME                                        000000000010000000000000000000000000000085074055000000000698000000380 2       201209122012072300000000054540000041450000000000041610000000000000000000000000000320050000000000  3020120913   05          3                                                                                   3000000162353900000006981719                                                  N                     01321  0000000        000180
12066841552000130R V SEG PATRIMONIAL S C LTDA                                          00000000341000000000000000000000000000008661542000000090002192721927          201209102012081000000000054520000483241000000000483885000000000000000000000000000644050000000000  3020120914   01          2                                                                                   3109000219278001838994000019                                                  N                     01321  0000000        000181
12066899790000105FABRICA ARTEF LATEX ESTRELA EP                                        00000000399000000000000000000000000000008364180000000000000000072773 003      201209112012062900000000054530000249525000000000249525000000000000000000000000000000050000000000  3020120911   06          3                                                                                   3175513042991125027292500129                                                  N                     01321  0000000        000182
12066899790000105FABRICA ARTEF LATEX ESTRELA EP                                        00000000399000000000000000000000000000008819134400000000000000078480 003      201211272012091300000000055300000530784000000000530784000000000000000000000000000000050000000000  3020121127   01FS        1                                                                                   3175978755681125027292500139                                                  N                     01321  0000000        000183
12066899790000105FABRICA ARTEF LATEX ESTRELA EP                                        00000000399000000000000000000000000000008819134500000000000000078480 001      201210282012091300000000055000000530781000000000530781000000000000000000000000000000050000000000  3020121029   01FS        1                                                                                   3175978755411125027292500159                                                  N                     01321  0000000        000184
12066899790000105FABRICA ARTEF LATEX ESTRELA EP                                        00000000399000000000000000000000000000008819134600000000000000078480 002      201211122012091300000000055150000530781000000000530781000000000000000000000000000000050000000000  3020121112   01FS        1                                                                                   3175978755501125027292500169                                                  N                     01321  0000000        000185
12069309706000136F N A TRANSPORTES LTDA                                                000000003410000000000000000000000000000086615421000000900010656059068         201208302012081500000000054410000079200000000000083160000000000000000000000000003960050000000000  3020120914   01          2                                                                                   3109000106565005486932600099                                                  N                     01321  0000000        000186
12092693118000160BRADESCO SAUDE S A                                                    0000000023700448000000001533991 00000000847452120050100745572410000000000     201208202012071700000000054310000645861000000000656261000000000000000000000000010400050000000000  3020120914   01          2                                                                                   3                         000000000000000                                     N                     00598  0000000        000187
900018800000000058466932                                                                                                                                                                                                                                                                                                                                                                                                                                                                00598  0000000        000188
