0000147602043799295000110ALTAMIRA IND METALURGICA LTDA           20100468000002012081417211900000        2    230A                                                                                          000000000000000                                                                                                                                                                                                                                                                                   000001
12042956441000101SOLUCOES EM ACO USIMINAS S A  RUA  DIANOPOLIS  670 710                0312510034100000 0000000000000  I000000000009490000000000000000               201208140000000000000000054250000507178000000000507178000000000000000000000000000000010000164597  3120120814   01HA        000                                                                                 3181522712430293807258000079             000164597/02                         N                     00000 10020256        000002
12042956441000101SOLUCOES EM ACO USIMINAS S A  RUA  DIANOPOLIS  670 710                0312510034100000 0000000000000  I000000000009491000000000000000               201208140000000000000000054250000449307000000000449307000000000000000000000000000000010000169233  3120120814   01HA        000                                                                                 3181522857615293807258000019             000169233/01                         N                     00000 10020256        000003
12042956441000101SOLUCOES EM ACO USIMINAS S A  RUA  DIANOPOLIS  670 710                0312510034100000 0000000000000  I000000000009492000000000000000               201208140000000000000000054250000280137000000000280137000000000000000000000000000000010000159625  3120120814   01HA        000                                                                                 3181522710814293807258000039             000159625/03                         N                     00000 10020256        000004
12042956441000101SOLUCOES EM ACO USIMINAS S A  RUA  DIANOPOLIS  670 710                0312510000100000 0000000000000  I000000000009493000000000000000               201208140000000000000000054250000448663000000000448663000000000000000000000000000000010000164692  3120120814   01HA        000                                                                                 3000000169660100000785031749             000164692/02                         N                     00000 10020256        000005
12042956441000101SOLUCOES EM ACO USIMINAS S A  RUA  DIANOPOLIS  670 710                0312510034100000 0000000000000  I000000000009494000000000000000               201208140000000000000000054250000234657000000000234657000000000000000000000000000000010000164588  3120120814   01HA        000                                                                                 3181522885657293807258000019             000164588/02                         N                     00000 10020256        000006
12042956441000101SOLUCOES EM ACO USIMINAS S A  RUA  DIANOPOLIS  670 710                0312510034100000 0000000000000  I000000000009495000000000000000               201208140000000000000000054250000157897000000000157897000000000000000000000000000000010000164598  3120120814   01HA        000                                                                                 3181522887331293807258000089             000164598/02                         N                     00000 10020256        000007
12042956441000101SOLUCOES EM ACO USIMINAS S A  RUA  DIANOPOLIS  670 710                0312510034100000 0000000000000  I000000000009496000000000000000               201208140000000000000000054250000125183000000000125183000000000000000000000000000000010000164592  3120120814   01HA        000                                                                                 3181522888321293807258000019             000164592/02                         N                     00000 10020256        000008
900000900000000002203022                                                                                                                                                                                    000000000000000                                                                                                                                                                                                                                                    00000700379750002203022        000009
