0000147602043799295000110ALTAMIRA INDUSTRIA METALURGICA LT       202000000010420120814060717             1                                                                                                                                                                                                                                                                                                                                                                                                    000001
12000193273000108TECELAGEM ROMA LTDA                                                   0000000023700284400000000410977 000000008374605200900000001581216213   C      201208102012062900000000054210000124248000000000125740000000000000000000000000001492050000000000  3020120814   01          2  RUA TAMAINDE 1410  1410                                                          3                         000000000000000                                     N                     00598  0000000        000002
12001951865000104FOUR FACTORING FOMENTO M LTDA                                         000000004220000000000000000000000000000086282619000000000000000204 12         201209082012081000000000054500000300000000000000300000000000000000000000000000000000050000000000  3020120910   01FS        1                                                                                   3702000009214741912384859119                                                  N                     01321  0000000        000003
12002503185000182ANDAIMES MAQUINAS BIG LTDA EPP                                        000000003410000000000000000000000000000086282613000000228719913011660         201208302012081000000000054410000012000000000000012000000000000000000000000000000000050000000000  3020120830   01FS        1                                                                                   3112287199130650303800900039                                                  N                     01321  0000000        000004
12004666281000177PROCRED TECNOLOGIA E FOMENTO M                                        0000000023702017600000000220000 00000000848180780090220100000313773           201208102012071600000000054210000061714000000000062206000000000000000000000000000492050000000000  3020120814   01          2  RUA RUA TAMANDARE 1410                  FAST FIXX FIXADORES LTDA                 3                         004992631000195                                     N                     00598  0000000        000005
12004676708000118M H F SISTEMAS S C LTDA                                               0000000034100000000000000000000000000000848180580000002220541780099047356     201208052012071800000000054160000014500000000000015174000000000000000000000000000674050000000000  3020120813   06          3                                                                                   3112220541786013924573200029                                                  N                     01321  0000000        000006
12006000195000156M B A MERCANTIL BRASILEIRA DE                                         0000000023700118P00000002128292 00000000862826180090219200000140008794B01     201208032012070600000000054140001003532000000001003532000000000000000000000000000000050000000000  3020120814   01FS        1  RUA JUNO  533                                                                    3                         000000000000000                                     N                     00598  0000000        000007
12008508119000181DINARI FOMENTO MERCANTIL LTDA                                         0000000023702499600000000178306 0000000086282617002022260000005206 A          201208312012081000000000054420000170000000000000170000000000000000000000000000000000050000000000  3020120831   01FS        1  RUA JUNO  533 VL N MANCHESTER SAO PAULO PANKRO LOGISTICA E TRANSPORTES LTDA EPP  3                         002269980000158                                     N                     00598  0000000        000008
12008508119000181DINARI FOMENTO MERCANTIL LTDA                                         0000000023702499600000000178306 0000000086282616002022260000004206 B          201209102012081000000000054520000170000000000000170000000000000000000000000000000000050000000000  3020120910   01FS        1  RUA JUNO  533 VL N MANCHESTER SAO PAULO PANKRO LOGISTICA E TRANSPORTES LTDA EPP  3                         002269980000158                                     N                     00598  0000000        000009
12008508119000181DINARI FOMENTO MERCANTIL LTDA                                         000000003990000000000000000000000000000084985536000000000000000155            201208092012072000000000054200000300000000000000300000000000000000000000000000000000050000000000  3020120809   05          3                                                                                   3175649460520198002280900189                                                  N                     01321  0000000        000010
12008709272000177MULTIELETRICA C M E LTDA                                              000000003410000000000000000000000000000084406368000000900002185000002499A     201208072012071000000000054180000158135000000000168087000000000000000000000000010263050000000000  3020120809   05          3                                                                                   3109000021851075798525400019                                                  N                     01321  0000000        000011
12012006058000121WEG TINTAS LTDA                                                       0000000023702727800000000001309 00000000816971080090214900001020014046003     201208082012052500000000054190000085618000000000086188000000000000000000000000000684050000000000  3020120813   06          3  R JUNO  533                                                                      3                         000000000000000                                     N                     00598  0000000        000012
12012006058000121WEG TINTAS LTDA                                                       0000000023702727800000000001309 00000000827244620090216600000710014454802     201208122012061300000000054230000306569000000000307385000000000000000000000000000816050000000000  3020120814   01          2  R JUNO  533                                                                      3                         000000000000000                                     N                     00598  0000000        000013
12012006058000121WEG TINTAS LTDA                                                       0000000023702727800000000001309 00000000834820620090217900000740014773901     201208102012062600000000054210000306569000000000308201000000000000000000000000001632050000000000  3020120814   01          2  R JUNO  533                                                                      3                         000000000000000                                     N                     00598  0000000        000014
12031895683000116BANCO INDUSTRIAL DO BRASIL S A                                        0000000023702374400000000144002 00000000862826150190222600002285776102        201209052012080800000000054470000065454000000000065454000000000000000000000000000000050000000000  3020120905   01FS        1  R JUNO 533                              OFFICE LEADER DIST E LOGISTICA LTDA      3                         005169626000140                                     N                     00598  0000000        000015
12035820448000136WHITE MARTINS GASES INDUSTRIAI                                        0000000023700026400000003937925 0000000084406386009021940001235350499 001     201208082012071200000000054190000162300000000000166842000000000000000000000000004542050000000000  3020120814   01          2  RUA GANGES  528                                                                  3                         000000000000000                                     N                     00598  0000000        000016
12035820448000136WHITE MARTINS GASES INDUSTRIAI                                        0000000023700026400000003937925 0000000084571470009021980000617351461 001     201208102012071400000000054210000085208000000000087368000000000000000000000000002160050000000000  3020120814   01          2  RUA GANGES  528                                                                  3                         000000000000000                                     N                     00598  0000000        000017
12047190731000100DE CASTRO LOUREIRO ENGENHARIA                                         00000000033000000000000000000000000000008162377600000089000000003025169 0     201208102012051800000000054210000719392000000000719392000000000000000000000000000000050000000000  3020120810   06          3                                                                                   3948430370000009545689020389                                                  N                     01321  0000000        000018
12051598902000102NEPIN ACESSORIOS INDUSTRIAIS L                                        000000000010000000000000000000000000000085152927000000476537000015465 1 1     201208102012072400000000054210000034000000000000034561000000000000000000000000000561050000000000  3020120814   01          2                                                                                   3043924765374327000101481199                                                  N                     01321  0000000        000019
12055721609000141MAC SEG EQUIP DE SEGURANCA LT                                         0000000034100000000000000000000000000000862826120000002286897653190 1         201208312012080300000000054420000051440000000000051440000000000000000000000000000000050000000000  3020120831   01FS        1                                                                                   3112286897650037814415800069                                                  N                     01321  0000000        000020
12057158057000130COMERCIAL ELETRICA PJ LTDA                                            0000000023703394400000000972983 00000000842436850090219200008900000305028     201208012012070400000000054120000079196000000000082615000000000000000000000000003419050000000000  3020120814   01          2  R TAMAINDE 1410                                                                  3                         000000000000000                                     N                     00598  0000000        000021
12061600839000155CENTRO DE INT EMPRESA ESCOLA C                                        0000000023703391P00000000866202 00000000862826140090000035804197641C 0001     201208312012081000000000054420000016800000000000016800000000000000000000000000000000050000000000  3020120831   01FS        1  R GANGES  528                                                                    3                         000000000000000                                     N                     00598  0000000        000022
12066144957000110POSTO DE MOLAS MABAFIL LTDA ME                                        000000000010000000000000000000000000000085074054000000000697000000380         201208122012072300000000054230000041450000000000041585000000000000000000000000000135050000000000  3020120814   01          2                                                                                   3000000162353900000006971749                                                  N                     01321  0000000        000023
12092693118000160BRADESCO SAUDE S A                                                    0000000023700448000000001533991 00000000829780050050100702629130000000000     201207202012061800000000054000000645861000000000656261000000000000000000000000010400050000000000  3020120814   01          2                                                                                   3                         000000000000000                                     N                     00598  0000000        000024
900002500000000004950831                                                                                                                                                                                                                                                                                                                                                                                                                                                                00598  0000000        000025
