0000147602043799295000110ALTAMIRA INDUSTRIA METALURGICA LT       202000000018820121214055241             1                                                                                                                                                                                                                                                                                                                                                                                                    000001
12001895314000162COLETA INDUSTRIAL FIMAVAN LTDA                                        0000000034100000000000000000000000000000866992070000009002335349439           201208272012081700000000054380000123695000000000162030000000000000000000000000038335050000000000  3020121214   01          2                                                                                   3109002335346144604097200019                                                  N                     01321  0000000        000002
12003102481000134AB5 IND E COMERCIO LTDA EPP                                           0000000034100000000000000000000000000000939253510000009000043653386           201301082012121100000000055720000015900000000000015900000000000000000000000000000000050000000000  3020130108   01FS        1                                                                                   3109000043651003154755700019                                                  N                     01321  0000000        000003
12003489596000123BEND FLEX I COMERCIO LTDA                                             000000003410000000000000000000000000000088599899000000171434574613            201209172012081600000000054590000585000000000000686288000000000000000000000000101288050000000000  3020121214   01          2                                                                                   3191714345748157734445800019                                                  N                     01321  0000000        000004
12003489596000123BEND FLEX I COMERCIO LTDA                                             000000003410000000000000000000000000000088350832000000171879874608            201209122012082100000000054540000695250000000000822381000000000000000000000000127131050000000000  3020121214   01          2                                                                                   3191718798744157734445800069                                                  N                     01321  0000000        000005
12005880850000145NEDERMAN BRASIL COM PROD EX LT                                        000000003410000000000000000000000000000086373178000000614350956002763 A       201209252012081400000000054670000289674000000000335274000000000000000000000000045600050000000000  3020121214   01          2                                                                                   3156143509568160829000100049                                                  N                     01321  0000000        000006
12006000195000156MBA MERCANTIL BRAS DE ACO LTDA                                        0000000034100000000000000000000000000000889578520000001671394540008920B02     201209162012071700000000054580000576585000000000677511000000000000000000000000100926050000000000  3020121214   01          2                                                                                   3191671394549064849251000099                                                  N                     01321  0000000        000007
12006000195000156MBA MERCANTIL BRAS DE ACO LTDA                                        0000000034100000000000000000000000000000906662670000001671394410008920B03     201210142012071700000000054860000576584000000000645758000000000000000000000000069174050000000000  3020121214   01          2                                                                                   3191671394416064849251000039                                                  N                     01321  0000000        000008
12006000195000156MBA MERCANTIL BRAS DE ACO LTDA                                        0000000034100000000000000000000000000000885998980000001667238420008870B02     201209112012071600000000054530000839952000000000995240000000000000000000000000155288050000000000  3020121214   01          2                                                                                   3191667238429064849251000039                                                  N                     01321  0000000        000009
12006000195000156MBA MERCANTIL BRAS DE ACO LTDA                                        0000000034100000000000000000000000000000904173150000001667238300008870B03     201210092012071600000000054810000839951000000000948983000000000000000000000000109032050000000000  3020121214   01          2                                                                                   3191667238304064849251000039                                                  N                     01321  0000000        000010
12006000195000156MBA MERCANTIL BRAS DE ACO LTDA                                        0000000034100000000000000000000000000000887698090000001671394550008925B02     201209142012071700000000054560000719581000000000848346000000000000000000000000128765050000000000  3020121214   01          2                                                                                   3191671394556064849251000089                                                  N                     01321  0000000        000011
12006000195000156MBA MERCANTIL BRAS DE ACO LTDA                                        0000000034100000000000000000000000000000887698100000001671394560008926B02     201209142012071700000000054560000387716000000000457149000000000000000000000000069433050000000000  3020121214   01          2                                                                                   3191671394564064849251000019                                                  N                     01321  0000000        000012
12006000195000156MBA MERCANTIL BRAS DE ACO LTDA                                        0000000034100000000000000000000000000000904173160000001667238280008876B03     201210122012071600000000054840000810320000000000910742000000000000000000000000100422050000000000  3020121214   01          2                                                                                   3191667238288064849251000079                                                  N                     01321  0000000        000013
12006000195000156MBA MERCANTIL BRAS DE ACO LTDA                                        0000000034100000000000000000000000000000904173170000001671394420008925B03     201210122012071700000000054840000719580000000000808725000000000000000000000000089145050000000000  3020121214   01          2                                                                                   3191671394424064849251000069                                                  N                     01321  0000000        000014
12006000195000156MBA MERCANTIL BRAS DE ACO LTDA                                        0000000034100000000000000000000000000000904173180000001671394430008926B03     201210122012071700000000054840000387716000000000435785000000000000000000000000048069050000000000  3020121214   01          2                                                                                   3191671394432064849251000079                                                  N                     01321  0000000        000015
12006000195000156MBA MERCANTIL BRAS DE ACO LTDA                                        0000000034100000000000000000000000000000939253400000002674597480010553B03     201302262012120400000000056210000253970000000000253970000000000000000000000000000000050000000000  3020130226   01FS        1                                                                                   3112674597482064899001800019                                                  N                     01321  0000000        000016
12006000195000156MBA MERCANTIL BRAS DE ACO LTDA                                        0000000034100000000000000000000000000000939253290000002674598000010648B02     201302042012121000000000055990000693902000000000693902000000000000000000000000000000050000000000  3020130204   01FS        1                                                                                   3112674598001064899001800039                                                  N                     01321  0000000        000017
12006000195000156MBA MERCANTIL BRAS DE ACO LTDA                                        0000000034100000000000000000000000000000939253300000002674598010010648B03     201303042012121000000000056270000693902000000000693902000000000000000000000000000000050000000000  3020130304   01FS        1                                                                                   3112674598019064899001800069                                                  N                     01321  0000000        000018
12006000195000156MBA MERCANTIL BRAS DE ACO LTDA                                        0000000034100000000000000000000000000000939253410000002674597490010554B01     201301012012120400000000055650000187751000000000187751000000000000000000000000000000050000000000  3020130102   01FS        1                                                                                   3112674597490064899001800029                                                  N                     01321  0000000        000019
12006000195000156MBA MERCANTIL BRAS DE ACO LTDA                                        0000000034100000000000000000000000000000939253420000002674597460010553B01     201301012012120400000000055650000253971000000000253971000000000000000000000000000000050000000000  3020130102   01FS        1                                                                                   3112674597466064899001800039                                                  N                     01321  0000000        000020
12006000195000156MBA MERCANTIL BRAS DE ACO LTDA                                        0000000034100000000000000000000000000000939253430000002674597500010554B02     201301292012120400000000055930000187751000000000187751000000000000000000000000000000050000000000  3020130129   01FS        1                                                                                   3112674597508064899001800019                                                  N                     01321  0000000        000021
12006000195000156MBA MERCANTIL BRAS DE ACO LTDA                                        0000000034100000000000000000000000000000939253440000002674597470010553B02     201301292012120400000000055930000253971000000000253971000000000000000000000000000000050000000000  3020130129   01FS        1                                                                                   3112674597474064899001800019                                                  N                     01321  0000000        000022
12006000195000156MBA MERCANTIL BRAS DE ACO LTDA                                        0000000034100000000000000000000000000000939253450000002674597510010554B03     201302262012120400000000056210000187751000000000187751000000000000000000000000000000050000000000  3020130226   01FS        1                                                                                   3112674597516064899001800089                                                  N                     01321  0000000        000023
12006000195000156MBA MERCANTIL BRAS DE ACO LTDA                                        0000000034100000000000000000000000000000939253460000002674597630010565B02     201301292012120400000000055930000852642000000000852642000000000000000000000000000000050000000000  3020130129   01FS        1                                                                                   3112674597631064899001800079                                                  N                     01321  0000000        000024
12006000195000156MBA MERCANTIL BRAS DE ACO LTDA                                        0000000034100000000000000000000000000000939253470000002674597520010555B01     201301022012120400000000055660000135791000000000135791000000000000000000000000000000050000000000  3020130102   01FS        1                                                                                   3112674597524064899001800039                                                  N                     01321  0000000        000025
12006000195000156MBA MERCANTIL BRAS DE ACO LTDA                                        0000000034100000000000000000000000000000939253480000002674597530010555B02     201301302012120400000000055940000135791000000000135791000000000000000000000000000000050000000000  3020130130   01FS        1                                                                                   3112674597532064899001800019                                                  N                     01321  0000000        000026
12006000195000156MBA MERCANTIL BRAS DE ACO LTDA                                        0000000034100000000000000000000000000000939253490000002674597540010555B03     201302272012120400000000056220000135790000000000135790000000000000000000000000000000050000000000  3020130227   01FS        1                                                                                   3112674597540064899001800019                                                  N                     01321  0000000        000027
12006000195000156MBA MERCANTIL BRAS DE ACO LTDA                                        0000000034100000000000000000000000000000939253500000002674597620010565B01     201301012012120400000000055650000852641000000000852641000000000000000000000000000000050000000000  3020130102   01FS        1                                                                                   3112674597623064899001800019                                                  N                     01321  0000000        000028
12006000195000156MBA MERCANTIL BRAS DE ACO LTDA                                        0000000034100000000000000000000000000000939253170000002674597650010572B01     201301022012120400000000055660000830433000000000830433000000000000000000000000000000050000000000  3020130102   01FS        1                                                                                   3112674597656064899001800079                                                  N                     01321  0000000        000029
12006000195000156MBA MERCANTIL BRAS DE ACO LTDA                                        0000000034100000000000000000000000000000939253180000002674597640010565B03     201302262012120400000000056210000852641000000000852641000000000000000000000000000000050000000000  3020130226   01FS        1                                                                                   3112674597649064899001800029                                                  N                     01321  0000000        000030
12006000195000156MBA MERCANTIL BRAS DE ACO LTDA                                        0000000034100000000000000000000000000000939253190000002674597670010572B03     201302272012120400000000056220000830432000000000830432000000000000000000000000000000050000000000  3020130227   01FS        1                                                                                   3112674597672064899001800049                                                  N                     01321  0000000        000031
12006000195000156MBA MERCANTIL BRAS DE ACO LTDA                                        0000000034100000000000000000000000000000939253200000002674597990010648B01     201301072012121000000000055710000693902000000000693902000000000000000000000000000000050000000000  3020130107   01FS        1                                                                                   3112674597995064899001800089                                                  N                     01321  0000000        000032
12006000195000156MBA MERCANTIL BRAS DE ACO LTDA                                        0000000034100000000000000000000000000000939253210000002674597810010615B01     201301032012120600000000055670001906567000000001906567000000000000000000000000000000050000000000  3020130103   01FS        1                                                                                   3112674597813064899001800099                                                  N                     01321  0000000        000033
12006000195000156MBA MERCANTIL BRAS DE ACO LTDA                                        0000000034100000000000000000000000000000939253220000002674597820010615B02     201301312012120600000000055950001906567000000001906567000000000000000000000000000000050000000000  3020130131   01FS        1                                                                                   3112674597821064899001800079                                                  N                     01321  0000000        000034
12006000195000156MBA MERCANTIL BRAS DE ACO LTDA                                        0000000034100000000000000000000000000000939253230000002674597660010572B02     201301302012120400000000055940000830433000000000830433000000000000000000000000000000050000000000  3020130130   01FS        1                                                                                   3112674597664064899001800059                                                  N                     01321  0000000        000035
12006000195000156MBA MERCANTIL BRAS DE ACO LTDA                                        0000000034100000000000000000000000000000939253240000002674597830010615B03     201302282012120600000000056230001906566000000001906566000000000000000000000000000000050000000000  3020130228   01FS        1                                                                                   3112674597839064899001800029                                                  N                     01321  0000000        000036
12006000195000156MBA MERCANTIL BRAS DE ACO LTDA                                        0000000034100000000000000000000000000000915733860000002553914360010131B01     201211292012103100000000055320001000483000000001000483000000000000000000000000000000050000000000  3020121129   05          3                                                                                   3112553914360064899001800029                                                  N                     01321  0000000        000037
12006000195000156M B A MERCANTIL BRASILEIRA DE                                         0000000023700118P00000002130599 00000000865388240020222900000450009203B03     201212122012081500000000055450000344980000000000346130000000000000000000000000001150050000000000  3020121214   01          2  RUA JUNO  533                                                                    300000000000000000001500  000000000000000                                     N                     00598  0000000        000038
12006000195000156M B A MERCANTIL BRASILEIRA DE                                         0000000023700118P00000002130599 00000000865388270020222900000480009204B03     201212132012081500000000055460000127291000000000127503000000000000000000000000000212050000000000  3020121214   01          2  RUA JUNO  533                                                                    300000000000000000001500  000000000000000                                     N                     00598  0000000        000039
12006000195000156M B A MERCANTIL BRASILEIRA DE                                         0000000023700118P00000002130599 00000000868592700020223600000030009229B03     201212132012081600000000055460000253414000000000253836000000000000000000000000000422050000000000  3020121214   01          2  RUA JUNO  533                                                                    300000000000000000001500  000000000000000                                     N                     00598  0000000        000040
12008272923000104P SANTOS ESQUADRARIAS METAL ME                                        0000000034100000000000000000000000000000915734100000006159682651954           201212052012110700000000055380000408138000000000426093000000000000000000000000017955050000000000  3020121214   01          2                                                                                   3156159682654160141951600029                                                  N                     01321  0000000        000041
12008879248000186FREFER METAL PLUS                                                     000000003410000000000000000000000000000093925339000000267158510EPR013366B     201301312012120600000000055950001076688000000001076688000000000000000000000000000000050000000000  3020130131   01FS        1                                                                                   3112671585100293811346700019                                                  N                     01321  0000000        000042
12009034654000291STEEL PRODUCTS DO BRASIL LTDA                                         0000000000100000000000000000000000000000914718920000005529190002470 2 3       201212082012110500000000055410000132000000000000135964000000000000000000000000003965050000000000  3020121212   06          3                                                                                   3000000221373244205529191149                                                  N                     01321  0000000        000043
12009338857000190FERNANDO  NAGAO  CARDONE  ALVA                                        000000000330000000000000000000000000000091653176000000300000000ALTA 11 2012   201211202012103000000000055230000134632000000000145674000000000000000000000000011042050000000000  3020121214   01          2                                                                                   3947901700000051051630010119                                                  N                     01321  0000000        000044
12009338857000190FERNANDO  NAGAO  CARDONE  ALVA                                        000000000330000000000000000000000000000089697936000000800000000ALTA 10 2012   201210202012092500000000054920000134632000000000158198000000000000000000000000023566050000000000  3020121214   01          2                                                                                   3947901700000051050080010129                                                  N                     01321  0000000        000045
12012006058000121WEG TINTAS LTDA                                                       0000000023702727800000000001309 00000000878206060090225400000800016517203     201211202012090600000000055230000459992000000000474704000000000000000000000000014712050000000000  3020121214   01          2  R JUNO  533                                                                      3                         000000000000000                                     N                     00598  0000000        000046
12012006058000121WEG TINTAS LTDA                                                       0000000023702727800000000001309 00000000882668430090225800000760016626903     201211272012091300000000055300000459992000000000470413000000000000000000000000010421050000000000  3020121214   01          2  R JUNO  533                                                                      3                         000000000000000                                     N                     00598  0000000        000047
12017469701000177ARCELORMITTAL BRASIL S A                                              0000000034100000000000000000000000000000939253140000009328273290014078801     201301082012121100000000055720000075757000000000075757000000000000000000000000000000050000000000  3020130108   01FS        1                                                                                   3109328273293293802529900019                                                  N                     01321  0000000        000048
12017469701000177ARCELORMITTAL BRASIL S A                                              0000000034100000000000000000000000000000939253150000009328273300014078802     201301152012121100000000055790000075757000000000075757000000000000000000000000000000050000000000  3020130115   01FS        1                                                                                   3109328273301293802529900099                                                  N                     01321  0000000        000049
12017469701000177ARCELORMITTAL BRASIL S A                                              0000000034100000000000000000000000000000939253160000009328273310014078803     201301222012121100000000055860000075759000000000075759000000000000000000000000000000050000000000  3020130122   01FS        1                                                                                   3109328273319293802529900039                                                  N                     01321  0000000        000050
12042956441000101SOLUCOES ACO USIMINAS                                                 0000000034100000000000000000000000000000939253250000002674878770019428701     201301082012121100000000055720000377635000000000377635000000000000000000000000000000050000000000  3020130108   01FS        1                                                                                   3112674878775293807258000089                                                  N                     01321  0000000        000051
12042956441000101SOLUCOES ACO USIMINAS                                                 0000000034100000000000000000000000000000939253310000002674878810019428802     201302052012121100000000056000000252276000000000252276000000000000000000000000000000050000000000  3020130205   01FS        1                                                                                   3112674878817293807258000019                                                  N                     01321  0000000        000052
12042956441000101SOLUCOES ACO USIMINAS                                                 0000000034100000000000000000000000000000939253320000002674878820019428902     201302052012121100000000056000000487237000000000487237000000000000000000000000000000050000000000  3020130205   01FS        1                                                                                   3112674878825293807258000069                                                  N                     01321  0000000        000053
12042956441000101SOLUCOES ACO USIMINAS                                                 0000000034100000000000000000000000000000939253330000002674878780019428801     201301082012121100000000055720000252351000000000252351000000000000000000000000000000050000000000  3020130108   01FS        1                                                                                   3112674878783293807258000089                                                  N                     01321  0000000        000054
12042956441000101SOLUCOES ACO USIMINAS                                                 0000000034100000000000000000000000000000939253340000002674878790019428901     201301082012121100000000055720000487383000000000487383000000000000000000000000000000050000000000  3020130108   01FS        1                                                                                   3112674878791293807258000069                                                  N                     01321  0000000        000055
12042956441000101SOLUCOES ACO USIMINAS                                                 0000000034100000000000000000000000000000939253350000002674878830019428703     201303052012121100000000056280000377521000000000377521000000000000000000000000000000050000000000  3020130305   01FS        1                                                                                   3112674878833293807258000049                                                  N                     01321  0000000        000056
12042956441000101SOLUCOES ACO USIMINAS                                                 0000000034100000000000000000000000000000855028700000002254329390017213002     201209212012072600000000054630000140602000000000164206000000000000000000000000023604050000000000  3020121214   01          2                                                                                   3112254329397293807258000089                                                  N                     01321  0000000        000057
12042956441000101SOLUCOES ACO USIMINAS                                                 0000000034100000000000000000000000000000855028770000002254329400017220502     201209212012072700000000054630000981022000000001145830000000000000000000000000164808050000000000  3020121214   01          2                                                                                   3112254329405293807258000099                                                  N                     01321  0000000        000058
12042956441000101SOLUCOES ACO USIMINAS                                                 0000000034100000000000000000000000000000856906410000002262886280017266201     201208282012073000000000054390000119472000000000145284000000000000000000000000025812050000000000  3020121214   01          2                                                                                   3112262886289293807258000089                                                  N                     01321  0000000        000059
12042956441000101SOLUCOES ACO USIMINAS                                                 0000000034100000000000000000000000000000846595700000002210880280016980502     201209102012071200000000054520000156071000000000185711000000000000000000000000029640050000000000  3020121214   01          2                                                                                   3112210880285293807258000039                                                  N                     01321  0000000        000060
12042956441000101SOLUCOES ACO USIMINAS                                                 0000000034100000000000000000000000000000856906420000002262886290017266301     201208282012073000000000054390000145069000000000176389000000000000000000000000031320050000000000  3020121214   01          2                                                                                   3112262886297293807258000099                                                  N                     01321  0000000        000061
12042956441000101SOLUCOES ACO USIMINAS                                                 0000000034100000000000000000000000000000859590620000002274469790017353702     201209282012080300000000054700000081053000000000093527000000000000000000000000012474050000000000  3020121214   01          2                                                                                   3112274469793293807258000069                                                  N                     01321  0000000        000062
12042956441000101SOLUCOES ACO USIMINAS                                                 0000000034100000000000000000000000000000846595710000002210880290016980602     201209102012071200000000054520000426094000000000507034000000000000000000000000080940050000000000  3020121214   01          2                                                                                   3112210880293293807258000019                                                  N                     01321  0000000        000063
12042956441000101SOLUCOES ACO USIMINAS                                                 0000000034100000000000000000000000000000847452070000002216130350005922202     201209102012071600000000054520000172071000000000204751000000000000000000000000032680050000000000  3020121214   01          2                                                                                   3112216130354293807258000049                                                  N                     01321  0000000        000064
12042956441000101SOLUCOES ACO USIMINAS                                                 0000000034100000000000000000000000000000847452100000002216130340017012402     201209102012071500000000054520000147428000000000175453000000000000000000000000028025050000000000  3020121214   01          2                                                                                   3112216130347293807258000059                                                  N                     01321  0000000        000065
12042956441000101SOLUCOES ACO USIMINAS                                                 0000000034100000000000000000000000000000848180700000002220192900017041002     201209112012071700000000054530000155433000000000184667000000000000000000000000029234050000000000  3020121214   01          2                                                                                   3112220192903293807258000029                                                  N                     01321  0000000        000066
12042956441000101SOLUCOES ACO USIMINAS                                                 0000000034100000000000000000000000000000848180710000002220192910017041202     201209112012071700000000054530000205421000000000244055000000000000000000000000038634050000000000  3020121214   01          2                                                                                   3112220192911293807258000019                                                  N                     01321  0000000        000067
12042956441000101SOLUCOES ACO USIMINAS                                                 0000000034100000000000000000000000000000850740460000002233586800017127201     201208202012072000000000054310000137881000000000169897000000000000000000000000032016050000000000  3020121214   01          2                                                                                   3112233586802293807258000019                                                  N                     01321  0000000        000068
12042956441000101SOLUCOES ACO USIMINAS                                                 0000000034100000000000000000000000000000850740470000002233586810017101002     201209142012071900000000054560000732575000000000865890000000000000000000000000133315050000000000  3020121214   01          2                                                                                   3112233586810293807258000019                                                  N                     01321  0000000        000069
12042956441000101SOLUCOES ACO USIMINAS                                                 0000000034100000000000000000000000000000939253380000002674878850019428903     201303052012121100000000056280000487236000000000487236000000000000000000000000000000050000000000  3020130305   01FS        1                                                                                   3112674878858293807258000019                                                  N                     01321  0000000        000070
12042956441000101SOLUCOES ACO USIMINAS                                                 0000000034100000000000000000000000000000850740480000002233586820017101202     201209142012071900000000054560000144634000000000170933000000000000000000000000026299050000000000  3020121214   01          2                                                                                   3112233586828293807258000029                                                  N                     01321  0000000        000071
12042956441000101SOLUCOES ACO USIMINAS                                                 0000000034100000000000000000000000000000939253360000002674878800019428702     201302052012121100000000056000000377521000000000377521000000000000000000000000000000050000000000  3020130205   01FS        1                                                                                   3112674878809293807258000059                                                  N                     01321  0000000        000072
12042956441000101SOLUCOES ACO USIMINAS                                                 0000000034100000000000000000000000000000853154840000002246247030017196702     201209202012072500000000054620000234841000000000274791000000000000000000000000039950050000000000  3020121214   01          2                                                                                   3112246247038293807258000099                                                  N                     01321  0000000        000073
12042956441000101SOLUCOES ACO USIMINAS                                                 0000000034100000000000000000000000000000853154850000002246247040017197302     201209202012072500000000054620000970103000000001135003000000000000000000000000164900050000000000  3020121214   01          2                                                                                   3112246247046293807258000019                                                  N                     01321  0000000        000074
12042956441000101SOLUCOES ACO USIMINAS                                                 0000000034100000000000000000000000000000855028690000002254329380017212902     201209212012072600000000054630000140098000000000163618000000000000000000000000023520050000000000  3020121214   01          2                                                                                   3112254329389293807258000019                                                  N                     01321  0000000        000075
12042956441000101SOLUCOES ACO USIMINAS                                                 0000000034100000000000000000000000000000939253370000002674878840019428803     201303052012121100000000056280000252276000000000252276000000000000000000000000000000050000000000  3020130305   01FS        1                                                                                   3112674878841293807258000099                                                  N                     01321  0000000        000076
12047190731000100DE CASTRO LOUR ENG IND LTDA                                           00000000341000000000000000000000000000008996247900000024766209203027184 0     201211302012100500000000055330001153047000000001184799000000000000000000000000031752050000000000  3020121214   01          2                                                                                   3112476620920036884500400089                                                  N                     01321  0000000        000077
12047190731000100DE CASTRO LOUR ENG IND LTDA                                           00000000341000000000000000000000000000008782051800000023399955703026636 0     201211212012082200000000055240000940804000000000983354000000000000000000000000042550050000000000  3020121214   01          2                                                                                   3112339995576036884500400019                                                  N                     01321  0000000        000078
12047190731000100DE CASTRO LOUR ENG IND LTDA                                           00000000341000000000000000000000000000008782052000000023399955303026632 0     201209192012082200000000054610000952073000000001113065000000000000000000000000160992050000000000  3020121214   01          2                                                                                   3112339995535036884500400019                                                  N                     01321  0000000        000079
12047190731000100DE CASTRO LOUR ENG IND LTDA                                           00000000341000000000000000000000000000009041732300000025008465203027256 0     201212112012101600000000055440001108602000000001115142000000000000000000000000006540050000000000  3020121214   01          2                                                                                   3112500846525036884500400019                                                  N                     01321  0000000        000080
12047190731000100DE CASTRO LOUR ENG IND LTDA                                           00000000341000000000000000000000000000009041732500000025008465503027257 0     201212132012101600000000055460000751900000000000753379000000000000000000000000001479050000000000  3020121214   01          2                                                                                   3112500846558036884500400029                                                  N                     01321  0000000        000081
12047190731000100DE CASTRO LOUR ENG IND LTDA                                           00000000341000000000000000000000000000009041732900000025008464603027216 0     201212052012101000000000055380000225377000000000229364000000000000000000000000003987050000000000  3020121214   01          2                                                                                   3112500846467036884500400029                                                  N                     01321  0000000        000082
12047190731000100DE CASTRO LOUR ENG IND LTDA                                           00000000341000000000000000000000000000009041733100000025008464903027234 0     201212062012101100000000055390001029597000000001045797000000000000000000000000016200050000000000  3020121214   01          2                                                                                   3112500846491036884500400029                                                  N                     01321  0000000        000083
12047190731000100DE CASTRO LOUR ENG IND LTDA                                           00000000341000000000000000000000000000008782051200000023399953803026613 0     201209182012082100000000054600001107989000000001297562000000000000000000000000189573050000000000  3020121214   01          2                                                                                   3112339995386036884500400039                                                  N                     01321  0000000        000084
12047190731000100DE CASTRO LOUR ENG IND LTDA                                           00000000341000000000000000000000000000008782051600000023399954103026614 0     201209182012082100000000054600001047621000000001226841000000000000000000000000179220050000000000  3020121214   01          2                                                                                   3112339995410036884500400039                                                  N                     01321  0000000        000085
12047190731000100DE CASTRO LOUR ENG IND LTDA                                           00000000341000000000000000000000000000008782051700000023399954203026614 0     201211202012082100000000055230001047621000000001097061000000000000000000000000049440050000000000  3020121214   01          2                                                                                   3112339995428036884500400079                                                  N                     01321  0000000        000086
12047190731000100DE CASTRO LOUR ENG IND LTDA                                           00000000341000000000000000000000000000008782052100000023399955903026643 0     201209202012082300000000054620000867039000000001011964000000000000000000000000144925050000000000  3020121214   01          2                                                                                   3112339995592036884500400049                                                  N                     01321  0000000        000087
12047190731000100DE CASTRO LOUR ENG IND LTDA                                           00000000341000000000000000000000000000008782052400000023399956003026643 0     201211222012082300000000055250000867039000000000904549000000000000000000000000037510050000000000  3020121214   01          2                                                                                   3112339995600036884500400069                                                  N                     01321  0000000        000088
12047190731000100DE CASTRO LOUR ENG IND LTDA                                           00000000341000000000000000000000000000008782052500000023399955603026636 0     201209192012082200000000054610000940804000000001099904000000000000000000000000159100050000000000  3020121214   01          2                                                                                   3112339995568036884500400049                                                  N                     01321  0000000        000089
12047190731000100DE CASTRO LOUR ENG IND LTDA                                           00000000341000000000000000000000000000008782052700000023399956203026648 0     201209202012082300000000054620000976053000000001139253000000000000000000000000163200050000000000  3020121214   01          2                                                                                   3112339995626036884500400029                                                  N                     01321  0000000        000090
12047190731000100DE CASTRO LOUR ENG IND LTDA                                           00000000341000000000000000000000000000008782052800000023399956303026648 0     201211222012082300000000055250000976053000000001018293000000000000000000000000042240050000000000  3020121214   01          2                                                                                   3112339995634036884500400019                                                  N                     01321  0000000        000091
12047190731000100DE CASTRO LOUR ENG IND LTDA                                           00000000341000000000000000000000000000008782059400000023602715303026745 0     201211282012082900000000055310000903175000000000931591000000000000000000000000028416050000000000  3020121214   01          2                                                                                   3112360271533036884500400039                                                  N                     01321  0000000        000092
12047190731000100DE CASTRO LOUR ENG IND LTDA                                           00000000341000000000000000000000000000008782059500000023602714703026734 0     201211272012082800000000055300000997834000000001031188000000000000000000000000033354050000000000  3020121214   01          2                                                                                   3112360271475036884500400019                                                  N                     01321  0000000        000093
12047190731000100DE CASTRO LOUR ENG IND LTDA                                           00000000341000000000000000000000000000008782059900000023602715003026744 0     201211292012082900000000055320000146594000000000150914000000000000000000000000004320050000000000  3020121214   01          2                                                                                   3112360271509036884500400069                                                  N                     01321  0000000        000094
12047190731000100DE CASTRO LOUR ENG IND LTDA                                           00000000341000000000000000000000000000008782050900000023399953503026612 0     201209182012082100000000054600001111489000000001301671000000000000000000000000190182050000000000  3020121214   01          2                                                                                   3112339995352036884500400019                                                  N                     01321  0000000        000095
12048775225000146SEIKI IND COM E CONFECCOES LTD                                        000000003410000000000000000000000000000089337376000000244697151014914001      201210232012092500000000054950000052000000000000056056000000000000000000000000004056050000000000  3020121214   01          2                                                                                   3112446971510017444824100089                                                  N                     01321  0000000        000096
12051180370000199IGUAFER FERRO E ACO LTDA                                              0000000034100000000000000000000000000000852309100000002239389789443 B         201209022012071800000000054440000168275000000000197115000000000000000000000000028840050000000000  3020121214   01          2                                                                                   3112239389789077149484600089                                                  N                     01321  0000000        000097
12051180370000199IGUAFER FERRO E ACO LTDA                                              0000000034100000000000000000000000000000852309110000002239389799443 C         201209122012071800000000054540000168275000000000194315000000000000000000000000026040050000000000  3020121214   01          2                                                                                   3112239389797077149484600089                                                  N                     01321  0000000        000098
12054382510000108SETENTA IND E COM DE MADEIRAS                                         0000000034100000000000000000000000000000860403430000002277814474462 A         201209042012080700000000054460000191200000000000229176000000000000000000000000037976050000000000  3020121214   01          2                                                                                   3112277814474057049175300069                                                  N                     01321  0000000        000099
12056993512000150CYKLOP DO BRASIL EMBALAGENS SA                                        0000000034100000000000000000000000000000874070500000002362586810134932        201210012012090300000000054730000083607000000000106325000000000000000000000000022718050000000000  3020121214   01          2                                                                                   3112362586813025700015800019                                                  N                     01321  0000000        000100
12059588111000103BANCO VOTORANTIM S A                                                  000000000010000000000000000000000000000093925311000000800178000144540 1       201301072012121200000000055710000503183000000000503183000000000000000000000000000000050000000000  3020130107   01FS        1                                                                                   3000000145167244318001781119                                                  N                     01321  0000000        000101
12059588111000103BANCO VOTORANTIM S A                                                  000000000010000000000000000000000000000093925312000000800181000144540 2       201302042012121200000000055990000503183000000000503183000000000000000000000000000000050000000000  3020130204   01FS        1                                                                                   3000000145167244318001811139                                                  N                     01321  0000000        000102
12059588111000103BANCO VOTORANTIM S A                                                  000000000010000000000000000000000000000093925313000000800182000144540 3       201303042012121200000000056270000503335000000000503335000000000000000000000000000000050000000000  3020130304   01FS        1                                                                                   3000000145167244318001821149                                                  N                     01321  0000000        000103
12059659615000177DZ COMERCIO R E SERVICOS LTDA                                         000000003410000000000000000000000000000091358507000000900000321280            201211172012102400000000055200000060000000000000063120000000000000000000000000003240050000000000  3020121213   05          3                                                                                   3109000003217000314585100039                                                  N                     01321  0000000        000104
12061174652000137METALURGICA SCHIOPPA LTDA                                             0000000023703392800000001071602 0000000093925352002023480000081125293 001     201301102012121000000000055740000075159000000000075159000000000000000000000000000000050000000000  3020130110   01FS        1  RUA GANGES 528                                                                   3                         000000000000000                                     N                     00598  0000000        000105
12061217188000119TELAS METALICAS TELMETAL LTDA                                         0000000034100000000000000000000000000000915734080000009000030955880 2 3       201212102012110500000000055430000171279000000000171279000000000000000000000000000000050000000000  3020121210   06          3                                                                                   3109000030950077098123100089                                                  N                     01321  0000000        000106
12062510367000102ITANHAEM TRANSP DE MAQUINAS LT                                        000000003410000000000000000000000000000087407049000000236463199667            201209202012090400000000054620000248220000000000332625000000000000000000000000084405050000000000  3020121214   01          2                                                                                   3112364631997005770252400049                                                  N                     01321  0000000        000107
12064952757000168WALMAC COM DE PROD QUIMICOS LT                                        0000000034100000000000000000000000000000896979510000002462157570021611        201211292012100400000000055320000219267000000000225732000000000000000000000000006465050000000000  3020121214   01          2                                                                                   3112462157572064807961400059                                                  N                     01321  0000000        000108
12064952757000168WALMAC COM DE PROD QUIMICOS LT                                        0000000034100000000000000000000000000000860403450000002275821700020148        201210052012080300000000054770000219267000000000249437000000000000000000000000030170050000000000  3020121214   01          2                                                                                   3112275821703064807961400029                                                  N                     01321  0000000        000109
12066841552000130R V SEG PATRIMONIAL S C LTDA                                          00000000341000000000000000000000000000008887329800000090002213622136          201210102012091100000000054820000374758000000000382883000000000000000000000000008125050000000000  3020121214   01          2                                                                                   3109000221365001838994000069                                                  N                     01321  0000000        000110
12066841552000130R V SEG PATRIMONIAL LTDA                                              00000000341000000000000000000000000000008852483200000090002192721927          201209102012081000000000054520000483241000000000498536000000000000000000000000015295050000000000  3020121214   01          2                                                                                   3109000219270001835253400099                                                  N                     01321  0000000        000111
12066841552000130RV SEGURANCA PATRIMONIAL SC LT                                        0000000023700122800000001495011 000000009203848400900000002253822538          201212102012110800000000055430000374758000000000382753000000000000000000000000007995050000000000  3020121214   01          2  RUA TAMAINDE  1410                                                               3                         000000000000000                                     N                     00598  0000000        000112
12069284248000128ISOCOAT TINTAS E VERNIZES LTDA                                        0000000034100000000000000000000000000000841061040000002182507930052085        201209172012070200000000054590000236130000000000291570000000000000000000000000055440050000000000  3020121214   01          2                                                                                   3112182507932077430121200019                                                  N                     01321  0000000        000113
12069284248000128ISOCOAT TINTAS E VERNIZES LTDA                                        0000000034100000000000000000000000000000939253260000002671181830059278        201301252012121100000000055890000201118000000000201118000000000000000000000000000000050000000000  3020130125   01FS        1                                                                                   3112671181835077430121200019                                                  N                     01321  0000000        000114
12069284248000128ISOCOAT TINTAS E VERNIZES LTDA                                        0000000034100000000000000000000000000000939253270000002671181840059278        201302092012121100000000056040000174883000000000174883000000000000000000000000000000050000000000  3020130213   01FS        1                                                                                   3112671181843077430121200099                                                  N                     01321  0000000        000115
12069284248000128ISOCOAT TINTAS E VERNIZES LTDA                                        0000000034100000000000000000000000000000939253280000002671181850059278        201302242012121100000000056190000174934000000000174934000000000000000000000000000000050000000000  3020130225   01FS        1                                                                                   3112671181850077430121200039                                                  N                     01321  0000000        000116
12096579073000159CRISTALGRAF IMPRESSOS GRAFICOS                                        0000000039900000000000000000000000000000939253530000000000000000000000437     201301082012121300000000055720000018000000000000018000000000000000000000000000000000050000000000  3020130108   01FS        1                                                                                   3176574372471912059758700119                                                  N                     01321  0000000        000117
900011800000000061705119                                                                                                                                                                                                                                                                                                                                                                                                                                                                01321  0000000        000118
