0000147602043799295000110ALTAMIRA INDUSTRIA METALURGICA LT       202000000434520121214213554             3                                                                                                  000000000000000                                                                                                                                                                                                                                                                                   000001
12060732997000104UNIFISA ADM  NACIONAL DE CONS                                         0000000023703390100000000086606 I000000000010325009000970939388               201212140000000000000000055470000119855000000000119855000000000000000000000000000000010000008650  3120121214   02BW        5000000               000000000000000                                               3339009009709393880008660019               8650 - PARC.28/42.                 N                     01079 10020256        000002
12060732997000104UNIFISA ADM  NACIONAL DE CONS                                         0000000023703390100000000086606 I000000000010326009000970938977               201212140000000000000000055470000119855000000000119855000000000000000000000000000000010000000037  3120121214   02BW        5000000               000000000000000                                               3339009009709389770008660099               037 - PARC.28/42                   N                     01079 10020256        000003
12009007898000102ARTERINOX COM D TELAS METALICA                                        0000000023702741300000000246700 00000000923779420090112319016644177           201212142012111400000000055470000033540000000000033540000000000000000000000000000000050000000000  3020121214   02BW        2000000               000000000000000                                               3                         000000000000000  4177/01                            N                     01079 10020256        000004
12066841552000130RV SEGURANCA PATRIMONIAL SC LT                                        0000000023700122800000001495011 000000009203848400900000002253822538          201212102012110800000000055430000374758000000000382753000000000000000000000000008495050000000000  3020121214   02BW        2000000               000000000000000                                               3                         000000000000000  22538                              N                     01079 10020256        000005
900000600000000000656003                                                                                                                                                                                    000000000000000                                                                                                                                                                                                                                                    00000400221840000648008        000006
