0000147602043799295000110ALTAMIRA INDUSTRIA METALURGICA LT       202000000020720130115062039             1                                                                                                                                                                                                                                                                                                                                                                                                    000001
12003489596000123BEND FLEX I COMERCIO LTDA                                             000000003410000000000000000000000000000088599899000000171434574613            201209172012081600000000054590000585000000000000723120000000000000000000000000138120050000000000  3020130115   01          2                                                                                   3191714345748157734445800019                                                  N                     01321  0000000        000002
12005151518000140BELENUS DO BRASIL LTDA                                                000000000330000000000000000000000000000093540010000000830000000R133232612     201301032012120400000000055670000599040000000000622761000000000000000000000000023721050000000000  3020130115   01          2                                                                                   3918381050000000565083010469                                                  N                     01321  0000000        000003
12005880850000145NEDERMAN BRASIL COM PROD EX LT                                        000000003410000000000000000000000000000086373178000000614350956002763 A       201209252012081400000000054670000289674000000000353514000000000000000000000000063840050000000000  3020130115   01          2                                                                                   3156143509568160829000100049                                                  N                     01321  0000000        000004
12006000195000156MBA MERCANTIL BRAS DE ACO LTDA                                        0000000034100000000000000000000000000000906662670000001671394410008920B03     201210142012071700000000054860000576584000000000682046000000000000000000000000105462050000000000  3020130115   01          2                                                                                   3191671394416064849251000039                                                  N                     01321  0000000        000005
12006000195000156MBA MERCANTIL BRAS DE ACO LTDA                                        0000000034100000000000000000000000000000904173180000001671394430008926B03     201210122012071700000000054840000387716000000000460201000000000000000000000000072485050000000000  3020130115   01          2                                                                                   3191671394432064849251000079                                                  N                     01321  0000000        000006
12006000195000156M B A MERCANTIL BRASILEIRA DE                                         0000000023700118P00000002130599 00000000865388240020222900000450009203B03     201212122012081500000000055450000344980000000000364530000000000000000000000000019550050000000000  3020130115   01          2  RUA JUNO  533                                                                    300000000000000000001500  000000000000000                                     N                     00598  0000000        000007
12006000195000156M B A MERCANTIL BRASILEIRA DE                                         0000000023700118P00000002130599 00000000865388270020222900000480009204B03     201212132012081500000000055460000127291000000000134287000000000000000000000000006996050000000000  3020130115   01          2  RUA JUNO  533                                                                    300000000000000000001500  000000000000000                                     N                     00598  0000000        000008
12006000195000156M B A MERCANTIL BRASILEIRA DE                                         0000000023700118P00000002130599 00000000865388300020222900000510009205B03     201212142012081500000000055470000348964000000000367588000000000000000000000000018624050000000000  3020130115   01          2  RUA JUNO  533                                                                    300000000000000000001500  000000000000000                                     N                     00598  0000000        000009
12006000195000156M B A MERCANTIL BRASILEIRA DE                                         0000000023700118P00000002130599 00000000865388330020222900000540009206B03     201212152012081500000000055480000527560000000000554809000000000000000000000000027249050000000000  3020130115   01          2  RUA JUNO  533                                                                    300000000000000000001500  000000000000000                                     N                     00598  0000000        000010
12006000195000156M B A MERCANTIL BRASILEIRA DE                                         0000000023700118P00000002130599 00000000868592700020223600000030009229B03     201212132012081600000000055460000253414000000000267340000000000000000000000000013926050000000000  3020130115   01          2  RUA JUNO  533                                                                    300000000000000000001500  000000000000000                                     N                     00598  0000000        000011
12006000195000156MBA MERCANTIL BRAS DE ACO LTDA                                        0000000034100000000000000000000000000000933583410000002644909110010536B01     201212282012113000000000055610001346311000000001346311000000000000000000000000000000050000000000  3020121228   05          3                                                                                   3112644909114064899001800019                                                  N                     01321  0000000        000012
12006000195000156MBA MERCANTIL BRAS DE ACO LTDA                                        0000000034100000000000000000000000000000915733920000002553914400010132B02     201212282012103100000000055610000826269000000000826269000000000000000000000000000000050000000000  3020121228   05          3                                                                                   3112553914402064899001800089                                                  N                     01321  0000000        000013
12006000195000156MBA MERCANTIL BRAS DE ACO LTDA                                        0000000034100000000000000000000000000000894343950000002451556320009702B02     201212282012092700000000055610000272653000000000272653000000000000000000000000000000050000000000  3020121228   05          3                                                                                   3112451556321064899001800099                                                  N                     01321  0000000        000014
12006000195000156MBA MERCANTIL BRAS DE ACO LTDA                                        0000000034100000000000000000000000000000894344190000002451556250009697B02     201212282012092700000000055610000392040000000000392040000000000000000000000000000000050000000000  3020121228   05          3                                                                                   3112451556255064899001800099                                                  N                     01321  0000000        000015
12006000195000156MBA MERCANTIL BRAS DE ACO LTDA                                        0000000034100000000000000000000000000000872952870000002358952300009401B03     201212282012083000000000055610000254800000000000254800000000000000000000000000000000050000000000  3020121228   05          3                                                                                   3112358952300064899001800069                                                  N                     01321  0000000        000016
12006000195000156MBA MERCANTIL BRAS DE ACO LTDA                                        0000000034100000000000000000000000000000872952930000002358952480009420B03     201212292012083100000000055620000953213000000000953213000000000000000000000000000000050000000000  3020130102   05          3                                                                                   3112358952482064899001800029                                                  N                     01321  0000000        000017
12008263210000184BETA COM IMP EXP DE FERRAMENT                                         0000000034100000000000000000000000000000952282290000006170819053039A          201301302013010900000000055940000047650000000000047650000000000000000000000000000000050000000000  3020130130   05          3                                                                                   3156170819059808333717300069                                                  N                     01321  0000000        000018
12008263210000184BETA COM IMP EXP DE FERRAMENT                                         0000000034100000000000000000000000000000954519990000006170819053039A          201301302013010900000000055940000047650000000000047650000000000000000000000000000000050000000000  3020130130   01FS        1                                                                                   3156170819052808304699800019                                                  N                     01321  0000000        000019
12008272923000104P SANTOS ESQUADRARIAS METAL ME                                        0000000034100000000000000000000000000000954520000000006171337512152           201302082013011400000000056030000655119000000000655119000000000000000000000000000000050000000000  3020130208   01FS        1                                                                                   3156171337519160141951600069                                                  N                     01321  0000000        000020
12008272923000104P SANTOS ESQUADRARIAS METAL ME                                        0000000034100000000000000000000000000000915734100000006159682651954           201212052012110700000000055380000408138000000000460909000000000000000000000000052771050000000000  3020130115   01          2                                                                                   3156159682654160141951600029                                                  N                     01321  0000000        000021
12009338857000190FERNANDO  NAGAO  CARDONE  ALVA                                        000000000330000000000000000000000000000091653176000000300000000ALTA 11 2012   201211202012103000000000055230000134632000000000158602000000000000000000000000023970050000000000  3020130115   01          2                                                                                   3947901700000051051630010119                                                  N                     01321  0000000        000022
12035820448000136WHITE MARTINS GASES INDUSTRIAI                                        0000000023700026400000003937925 0000000095452001009030140000146431204 001     201302082013011200000000056030000028109000000000028109000000000000000000000000000000050000000000  3020130208   01FS        1  RUA GANGES  528                                                                  3                         000000000000000                                     N                     00598  0000000        000023
12035820448000136WHITE MARTINS GASES INDUSTRIAI                                        0000000023700026400000003937925 0000000094008690009023490004358422145 001     201301102012121400000000055740000021808000000000022279000000000000000000000000000471050000000000  3020130115   01          2  RUA GANGES  528                                                                  3                         000000000000000                                     N                     00598  0000000        000024
12042956441000101SOLUCOES ACO USIMINAS                                                 0000000034100000000000000000000000000000943110310000002694578570019544101     201301142012121700000000055780000684093000000000685461000000000000000000000000001368050000000000  3020130115   01          2                                                                                   3112694578579293807258000019                                                  N                     01321  0000000        000025
12042956441000101SOLUCOES ACO USIMINAS                                                 0000000034100000000000000000000000000000943110330000002694578560019544001     201301142012121700000000055780000328758000000000329416000000000000000000000000000658050000000000  3020130115   01          2                                                                                   3112694578561293807258000069                                                  N                     01321  0000000        000026
12042956441000101SOLUCOES ACO USIMINAS                                                 0000000034100000000000000000000000000000943110370000002694578580019544201     201301142012121700000000055780000235009000000000235479000000000000000000000000000470050000000000  3020130115   01          2                                                                                   3112694578587293807258000089                                                  N                     01321  0000000        000027
12042956441000101SOLUCOES ACO USIMINAS                                                 0000000034100000000000000000000000000000943110390000002694578590019546701     201301142012121700000000055780001132995000000001135261000000000000000000000000002266050000000000  3020130115   01          2                                                                                   3112694578595293807258000069                                                  N                     01321  0000000        000028
12042956441000101SOLUCOES ACO USIMINAS                                                 0000000034100000000000000000000000000000853154840000002246247030017196702     201209202012072500000000054620000234841000000000289831000000000000000000000000054990050000000000  3020130115   01          2                                                                                   3112246247038293807258000099                                                  N                     01321  0000000        000029
12042956441000101SOLUCOES ACO USIMINAS                                                 0000000034100000000000000000000000000000853154850000002246247040017197302     201209202012072500000000054620000970103000000001197083000000000000000000000000226980050000000000  3020130115   01          2                                                                                   3112246247046293807258000019                                                  N                     01321  0000000        000030
12042956441000101SOLUCOES ACO USIMINAS                                                 0000000034100000000000000000000000000000859590620000002274469790017353702     201209282012080300000000054700000081053000000000098711000000000000000000000000017658050000000000  3020130115   01          2                                                                                   3112274469793293807258000069                                                  N                     01321  0000000        000031
12042956441000101SOLUCOES ACO USIMINAS                                                 0000000034100000000000000000000000000000855028690000002254329380017212902     201209212012072600000000054630000140098000000000172578000000000000000000000000032480050000000000  3020130115   01          2                                                                                   3112254329389293807258000019                                                  N                     01321  0000000        000032
12042956441000101SOLUCOES ACO USIMINAS                                                 0000000034100000000000000000000000000000855028700000002254329390017213002     201209212012072600000000054630000140602000000000173198000000000000000000000000032596050000000000  3020130115   01          2                                                                                   3112254329397293807258000089                                                  N                     01321  0000000        000033
12042956441000101SOLUCOES ACO USIMINAS                                                 0000000034100000000000000000000000000000855028770000002254329400017220502     201209212012072700000000054630000981022000000001208614000000000000000000000000227592050000000000  3020130115   01          2                                                                                   3112254329405293807258000099                                                  N                     01321  0000000        000034
12043298975000150JOMARCA INDUSTRIAL DE PARAFUSO                                        0000000023703397900000000003212 00000000920384860020231900000190166858 02     201301122012111300000000055760000438000000000000439314000000000000000000000000001314050000000000  3020130115   01          2  RUA TAMAINDE  1410 RUA GANGES 520 E 528                                          3                         000000000000000                                     N                     00598  0000000        000035
12045635984000115CRIFER LAMINADOS DE ACO E FERR                                        0000000003300000000000000000000000000000917414020000007500000000036176E02     201301032012110800000000055670000501947000000000513993000000000000000000000000012046050000000000  3020130115   01          2                                                                                   3901184270000000261475010159                                                  N                     01321  0000000        000036
12046178828000135RAPIDO LONDON S A                                                     0000000023703391P00000001061615 0000000091833887009000000022763304206         201301122012111200000000055760000017850000000000017850000000000000000000000000000000050000000000  3020130114   06          3  RUA TAMAINDE  1410                                                               3                         000000000000000                                     N                     00598  0000000        000037
12047190731000100DE CASTRO LOUR ENG IND LTDA                                           00000000341000000000000000000000000000008782052900000023399956403026648 0     201212202012082300000000055530000976344000000001018584000000000000000000000000044160050000000000  3020130111   06          3                                                                                   3112339995642036884500400059                                                  N                     01321  0000000        000038
12047190731000100DE CASTRO LOUR ENG IND LTDA                                           00000000341000000000000000000000000000008782053300000023399956103026643 0     201212202012082300000000055530000867297000000000904829000000000000000000000000039238050000000000  3020130111   06          3                                                                                   3112339995618036884500400059                                                  N                     01321  0000000        000039
12047190731000100DE CASTRO LOUR ENG IND LTDA                                           00000000341000000000000000000000000000008996248000000024766209303027184 0     201212282012100500000000055610001153394000000001185146000000000000000000000000034020050000000000  3020130111   06          3                                                                                   3112476620938036884500400099                                                  N                     01321  0000000        000040
12047190731000100DE CASTRO LOUR ENG IND LTDA                                           00000000341000000000000000000000000000008782050900000023399953503026612 0     201209182012082100000000054600001111489000000001371623000000000000000000000000260134050000000000  3020130115   01          2                                                                                   3112339995352036884500400019                                                  N                     01321  0000000        000041
12047190731000100DE CASTRO LOUREIRO ENGENHARIA                                         00000000033000000000000000000000000000009265465800000036000000003027572 0     201301142012111400000000055780000255934000000000261053000000000000000000000000005119050000000000  3020130115   01          2                                                                                   3948430370000009556036020369                                                  N                     01321  0000000        000042
12047190731000100DE CASTRO LOUR ENG IND LTDA                                           00000000341000000000000000000000000000009041732400000025008465303027256 0     201301082012101600000000055720001108934000000001124201000000000000000000000000015267050000000000  3020130115   01          2                                                                                   3112500846533036884500400089                                                  N                     01321  0000000        000043
12047190731000100DE CASTRO LOUR ENG IND LTDA                                           00000000341000000000000000000000000000009041732600000025008465603027257 0     201301102012101600000000055740000752126000000000759521000000000000000000000000007395050000000000  3020130115   01          2                                                                                   3112500846566036884500400089                                                  N                     01321  0000000        000044
12047190731000100DE CASTRO LOUR ENG IND LTDA                                           00000000341000000000000000000000000000009041733000000025008464703027216 0     201301022012101000000000055660000225446000000000231205000000000000000000000000005759050000000000  3020130115   01          2                                                                                   3112500846475036884500400019                                                  N                     01321  0000000        000045
12047190731000100DE CASTRO LOUR ENG IND LTDA                                           00000000341000000000000000000000000000009041733200000025008465003027234 0     201301032012101100000000055670001029906000000001054206000000000000000000000000024300050000000000  3020130115   01          2                                                                                   3112500846509036884500400099                                                  N                     01321  0000000        000046
12047190731000100DE CASTRO LOUR ENG IND LTDA                                           00000000341000000000000000000000000000008782051200000023399953803026613 0     201209182012082100000000054600001107989000000001367290000000000000000000000000259301050000000000  3020130115   01          2                                                                                   3112339995386036884500400039                                                  N                     01321  0000000        000047
12047190731000100DE CASTRO LOUR ENG IND LTDA                                           00000000341000000000000000000000000000008782051600000023399954103026614 0     201209182012082100000000054600001047621000000001292761000000000000000000000000245140050000000000  3020130115   01          2                                                                                   3112339995410036884500400039                                                  N                     01321  0000000        000048
12047190731000100DE CASTRO LOUR ENG IND LTDA                                           00000000341000000000000000000000000000008782052000000023399955303026632 0     201209192012082200000000054610000952073000000001172969000000000000000000000000220896050000000000  3020130115   01          2                                                                                   3112339995535036884500400019                                                  N                     01321  0000000        000049
12047190731000100DE CASTRO LOUR ENG IND LTDA                                           00000000341000000000000000000000000000008782052100000023399955903026643 0     201209202012082300000000054620000867039000000001066524000000000000000000000000199485050000000000  3020130115   01          2                                                                                   3112339995592036884500400049                                                  N                     01321  0000000        000050
12047190731000100DE CASTRO LOUR ENG IND LTDA                                           00000000341000000000000000000000000000008782052500000023399955603026636 0     201209192012082200000000054610000940804000000001159104000000000000000000000000218300050000000000  3020130115   01          2                                                                                   3112339995568036884500400049                                                  N                     01321  0000000        000051
12047190731000100DE CASTRO LOUR ENG IND LTDA                                           00000000341000000000000000000000000000008782052700000023399956203026648 0     201209202012082300000000054620000976053000000001200693000000000000000000000000224640050000000000  3020130115   01          2                                                                                   3112339995626036884500400029                                                  N                     01321  0000000        000052
12047190731000100DE CASTRO LOUR ENG IND LTDA                                           00000000341000000000000000000000000000008782059200000023602715103026744 0     201212262012082900000000055590000146636000000000152396000000000000000000000000005760050000000000  3020130115   01          2                                                                                   3112360271517036884500400019                                                  N                     01321  0000000        000053
12047190731000100DE CASTRO LOUR ENG IND LTDA                                           00000000341000000000000000000000000000008782059600000023602714803026734 0     201212252012082800000000055580000998134000000001039357000000000000000000000000041223050000000000  3020130115   01          2                                                                                   3112360271483036884500400059                                                  N                     01321  0000000        000054
12047190731000100DE CASTRO LOUR ENG IND LTDA                                           00000000341000000000000000000000000000008782059700000023602715403026745 0     201212262012082900000000055590000903448000000000938988000000000000000000000000035540050000000000  3020130115   01          2                                                                                   3112360271541036884500400019                                                  N                     01321  0000000        000055
12048775225000146SEIKI IND COM E CONFECCOES LTD                                        000000003410000000000000000000000000000089337376000000244697151014914001      201210232012092500000000054950000052000000000000058552000000000000000000000000006552050000000000  3020130115   01          2                                                                                   3112446971510017444824100089                                                  N                     01321  0000000        000056
12056993512000150CYKLOP DO BRASIL EMBALAGENS SA                                        0000000034100000000000000000000000000000874070500000002362586810134932        201210012012090300000000054730000083607000000000116149000000000000000000000000032542050000000000  3020130115   01          2                                                                                   3112362586813025700015800019                                                  N                     01321  0000000        000057
12057544819000137FOGAL GALVANIZACAO A FOGO LTDA                                        000000000330000000000000000000000000000095452002000000870000000000102032      201302132013010900000000056080000095810000000000095810000000000000000000000000000000050000000000  3020130213   01FS        1                                                                                   3914013350000000004987010429                                                  N                     01321  0000000        000058
12057544819000137FOGAL GALVANIZACAO A FOGO LTDA                                        000000000330000000000000000000000000000095452004000000010000000000102031      201302062013010900000000056010000095810000000000095810000000000000000000000000000000050000000000  3020130206   01FS        1                                                                                   3914013350000000004901010489                                                  N                     01321  0000000        000059
12059588111000103BANCO VOTORANTIM S A                                                  000000000010000000000000000000000000000093736680000000003787000144388 1       201301072012121000000000055710000091435000000000091435000000000000000000000000000000050000000000  3020130107   05          3                                                                                   3000000145167244310037871119                                                  N                     01321  0000000        000060
12061186847000105PERFILADOS GRANADO LTDA                                               0000000003300000000000000000000000000000954520030000004600000005 704 A        201302052013010800000000056000000090160000000000090160000000000000000000000000000000050000000000  3020130205   01FS        1                                                                                   3917995920000003504646010429                                                  N                     01321  0000000        000061
12062510367000102ITANHAEM TRANSP DE MAQUINAS LT                                        000000003410000000000000000000000000000087407049000000236463199667            201209202012090400000000054620000248220000000000364401000000000000000000000000116181050000000000  3020130115   01          2                                                                                   3112364631997005770252400049                                                  N                     01321  0000000        000062
12062539994000176LEALFER INDUSTRIA E COMERCIO D                                        0000000003300000000000000000000000000000919321980000007000000000005797002     201301022012110600000000055660000591706000000000593717000000000000000000000000003016050000000000  3020130104   05          3                                                                                   3915298380000000292370010419                                                  N                     01321  0000000        000063
12062539994000176LEALFER INDUSTRIA E COMERCIO D                                        0000000003300000000000000000000000000000919322000000000000000000005796702     201301022012110600000000055660000298074000000000299087000000000000000000000000001519050000000000  3020130104   05          3                                                                                   3915298380000000292400010439                                                  N                     01321  0000000        000064
12064952757000168WALMAC COM DE PROD QUIMICOS LT                                        0000000034100000000000000000000000000000860403450000002275821700020148        201210052012080300000000054770000219267000000000263229000000000000000000000000043962050000000000  3020130115   01          2                                                                                   3112275821703064807961400029                                                  N                     01321  0000000        000065
12066841552000130R V SEG PATRIMONIAL LTDA                                              00000000341000000000000000000000000000009410260600000090002279822798          201301102012120700000000055740000394482000000000395142000000000000000000000000000660050000000000  3020130115   01          2                                                                                   3109000227984001835253400029                                                  N                     01321  0000000        000066
12066899790000105FABRICA ARTEF LATEX ESTRELA EP                                        00000000399000000000000000000000000000009203848900000000000000083274 002      201301132012111400000000055770000091140000000000091140000000000000000000000000000000050000000000  3020130114   06          3                                                                                   3176387759301125027292500119                                                  N                     01321  0000000        000067
12069284248000128ISOCOAT TINTAS E VERNIZES LTDA                                        0000000034100000000000000000000000000000921267610000002580416030058053        201301122012111300000000055760000317968000000000320512000000000000000000000000002544050000000000  3020130115   01          2                                                                                   3112580416033077430121200019                                                  N                     01321  0000000        000068
12069284248000128ISOCOAT TINTAS E VERNIZES LTDA                                        0000000034100000000000000000000000000000932560360000002637409670058864        201301142012113000000000055780000301677000000000302481000000000000000000000000000804050000000000  3020130115   01          2                                                                                   3112637409676077430121200039                                                  N                     01321  0000000        000069
12069284248000128ISOCOAT TINTAS E VERNIZES LTDA                                        0000000034100000000000000000000000000000921267640000002580320820057981        201301112012111200000000055750000349765000000000353497000000000000000000000000003732050000000000  3020130115   01          2                                                                                   3112580320821077430121200019                                                  N                     01321  0000000        000070
12069284248000128ISOCOAT TINTAS E VERNIZES LTDA                                        0000000034100000000000000000000000000000841061040000002182507930052085        201209172012070200000000054590000236130000000000311730000000000000000000000000075600050000000000  3020130115   01          2                                                                                   3112182507932077430121200019                                                  N                     01321  0000000        000071
12069284248000128ISOCOAT TINTAS E VERNIZES LTDA                                        0000000034100000000000000000000000000000908309610000002521130200057192        201301072012102400000000055710000318064000000000324848000000000000000000000000006784050000000000  3020130115   01          2                                                                                   3112521130206077430121200019                                                  N                     01321  0000000        000072
12069284248000128ISOCOAT TINTAS E VERNIZES LTDA                                        0000000034100000000000000000000000000000931455150000002632236310058846        201301132012112900000000055770000063992000000000064334000000000000000000000000000342050000000000  3020130115   01          2                                                                                   3112632236314077430121200019                                                  N                     01321  0000000        000073
900007400000000038025073                                                                                                                                                                                                                                                                                                                                                                                                                                                                01321  0000000        000074
