0000147602043799295000110ALTAMIRA IND METALURGICA LTDA           20100471000002012081616562700000        2    230A                                                                                          000000000000000                                                                                                                                                                                                                                                                                   000001
12053585766000141MULTIACOS INDUSTRIA E COMERCIO                                        0000000000100000000000000000000000000000851529220000002500290000004270202     201208160000000000000000054270000312212000000000312212000000000000000000000000000000050000000000  3020120816   01MFBUHA    500                                                                                 3043922500291912000139523199010000       00042702/02                          N                     00000 10020256        000002
12053585766000141MULTIACOS INDUSTRIA E COMERCIO                                        0000000000100000000000000000000000000000851529240000002500310000004270302     201208160000000000000000054270000402460000000000402460000000000000000000000000000000050000000000  3020120816   01MFBUHA    500                                                                                 3043922500311912000139523169010000       00042703/02                          N                     00000 10020256        000003
12051598902000102NEPIN ACESSORIOS INDUSTRIAIS L                                        000000000010000000000000000000000000000085152927000000476537000015465 1 1     201208100000000000000000054210000034000000000000034784000000000000000000000000000784050000000000  3020120816   01MFBUHA    500                                                                                 3043924765374327000101481199010000       00015465/01-01                       N                     00000 10020256        000004
12006000195000156M B A MERCANTIL BRASILEIRA DE R RINCAO 220                            0365108023700118000000002128292 I000000000009513000000000000000               201208160000000000000000000000000000000000000001076000000000000000000000000000000000010000008542  0120120816   01HA        000                                                                                 3                                        0008542/PARC.02/03.                  N                     00000 10020256        000005
12056993900000131CIA METALURGICA PRADA                                                 0000000034100000 0000000000000  I000000000009514000000000000000               201208160000000000000000054270000792413000000000792413000000000000000000000000000000010000256444  3120120816   01HA        000                                                                                 3181524296187293800573900089             000256444/01                         N                     00000 10020256        000006
12056993900000131CIA METALURGICA PRADA                                                 0000000034100000 0000000000000  I000000000009515000000000000000               201208160000000000000000054270000758430000000000758430000000000000000000000000000000010000256362  3120120816   01HA        000                                                                                 3181524301409293800573900029             000256362/01                         N                     00000 10020256        000007
12056993900000131CIA METALURGICA PRADA                                                 0000000034100000 0000000000000  I000000000009516000000000000000               201208160000000000000000054270000413504000000000413504000000000000000000000000000000010000256353  3120120816   01HA        000                                                                                 3181524305137293800573900019             000256353/01                         N                     00000 10020256        000008
12056993900000131CIA METALURGICA PRADA                                                 0000000034100000 0000000000000  I000000000009517000000000000000               201208160000000000000000054270000345498000000000345498000000000000000000000000000000010000256356  3120120816   01HA        000                                                                                 3181524306176293800573900049             000256356/01                         N                     00000 10020256        000009
12056993900000131CIA METALURGICA PRADA                                                 0000000034100000 0000000000000  I000000000009518000000000000000               201208160000000000000000054270000262128000000000262128000000000000000000000000000000010000256293  3120120816   01HA        000                                                                                 3181524311333293800573900029             000256293/01                         N                     00000 10020256        000010
12056993900000131CIA METALURGICA PRADA                                                 0000000034100000 0000000000000  I000000000009519000000000000000               201208160000000000000000054270000212107000000000212107000000000000000000000000000000010000256354  3120120816   01HA        000                                                                                 3181524313495293800573900069             000256354/01                         N                     00000 10020256        000011
12012006058000121WEG TINTAS LTDA               ROD  BR  280   KM 50   S N              8927000023702727800000000001309 I000000000009520009021660000071               201208160000000000000000054270000308201000000000308201000000000000000000000000000000010000144548  3120120816   01HA        000                                                                                 3272709216600000710000130019             000144548/02                         N                     00000 10020256        000012
12056993900000131CIA METALURGICA PRADA                                                 0000000034100000 0000000000000  I000000000009521000000000000000               201208160000000000000000054270000167475000000000167475000000000000000000000000000000010000256355  3120120816   01HA        000                                                                                 3181524314220293800573900089             000256355/01                         N                     00000 10020256        000013
12000193273000108TECELAGEM ROMA LTDA           R PROF ALZA ORSI AVALONE  230           1827676023700284400000000410977 I000000000009522009000000015812               201208160000000000000000054270000126486000000000126486000000000000000000000000000000010000016213  3120120816   01HA        000                                                                                 3028409000000158120041097019             00016213/03                          N                     00000 10020256        000014
12001951865000104FOUR FACTORING FOMENTO M LTDA                                         0000000042200000 0000000000000  I000000000009523000000000000000               201208160000000000000000054270000301000000000000301000000000000000000000000000000000010000000156  3120120816   01HA        000                                                                                 3702000009214741497536200159             00156/2012                           N                     00000 10020256        000015
12056993900000131CIA METALURGICA PRADA                                                 0000000034100000 0000000000000  I000000000009524000000000000000               201208160000000000000000054270000253457000000000253457000000000000000000000000000000010000256294  3120120816   01HA        000                                                                                 3181524312588293800573900059             000256294/01                         N                     00000 10020256        000016
900001700000000005766155                                                                                                                                                                                    000000000000000                                                                                                                                                                                                                                                    00001500759720004689371        000017
