0000147602043799295000110ALTAMIRA IND METALURGICA LTDA           20100529000002012101613352000000        2    230A                                                                                          000000000000000                                                                                                                                                                                                                                                                                   000001
12043799295000110ALTAMIRA INDUSTRIA METAL LTDA RUA  GANGES  528                        0344503003303809500000130004071 I000000000010031000000000000000               201210160000000000000000000000000000000000000006000000000000000000000000000000000000050000000001  0820121016   01HA        0001400                                                                             3D0000000101                             0001                                 S                     00000  0020256        000002
900000300000000006000000                                                                                                                                                                                    000000000000000                                                                                                                                                                                                                                                    00000100000000000000000        000003
