0000147602043799295000110ALTAMIRA INDUSTRIA METALURGICA LT       202000000020820130116060312             1                                                                                                                                                                                                                                                                                                                                                                                                    000001
12004643290000142FLEXTINTAS IND E COMERCIO LTDA                                        000000003410000000000000000000000000000095525877000000274746522NFF040860A     201302252013011100000000056200000338800000000000338800000000000000000000000000000000050000000000  3020130225   01FS        1                                                                                   3112747465220051356781800079                                                  N                     01321  0000000        000002
12004643290000142FLEXTINTAS IND E COMERCIO LTDA                                        000000003410000000000000000000000000000095525879000000274746523NFF040860B     201303122013011100000000056350000338800000000000338800000000000000000000000000000000050000000000  3020130312   01FS        1                                                                                   3112747465238051356781800019                                                  N                     01321  0000000        000003
12004643290000142FLEXTINTAS IND E COMERCIO LTDA                                        000000003410000000000000000000000000000095525880000000274746524NFF040860C     201303272013011100000000056500000338800000000000338800000000000000000000000000000000050000000000  3020130327   01FS        1                                                                                   3112747465246051356781800089                                                  N                     01321  0000000        000004
12005151518000140BELENUS DO BRASIL LTDA                                                000000000330000000000000000000000000000093540010000000830000000R133232612     201301032012120400000000055670000599040000000000624738000000000000000000000000025698050000000000  3020130116   01          2                                                                                   3918381050000000565083010469                                                  N                     01321  0000000        000005
12005502645000146TRANS GERALE TRANSPORTES LTDA                                         000000003410000000000000000000000000000095525881000000269495537500B 12        201301252012121700000000055890000170000000000000170000000000000000000000000000000000050000000000  3020130125   01FS        1                                                                                   3112694955371035504071800079                                                  N                     01321  0000000        000006
12005502645000146TRANS GERALE TRANSPORTES LTDA                                         000000003410000000000000000000000000000094311052000000269495537500B 12        201301252012121700000000055890000170000000000000170000000000000000000000000000000000050000000000  3020130125   05          3                                                                                   3112694955371035522320700019                                                  N                     01321  0000000        000007
12005880850000145NEDERMAN BRASIL COM PROD EX LT                                        000000003410000000000000000000000000000086373178000000614350956002763 A       201209252012081400000000054670000289674000000000354084000000000000000000000000064410050000000000  3020130116   01          2                                                                                   3156143509568160829000100049                                                  N                     01321  0000000        000008
12006000195000156M B A MERCANTIL BRASILEIRA DE                                         0000000023700118P00000002130599 00000000865388330020222900000540009206B03     201212152012081500000000055480000527560000000000555688000000000000000000000000028128050000000000  3020130116   01          2  RUA JUNO  533                                                                    300000000000000000001500  000000000000000                                     N                     00598  0000000        000009
12006000195000156M B A MERCANTIL BRASILEIRA DE                                         0000000023700118P00000002130599 00000000868592700020223600000030009229B03     201212132012081600000000055460000253414000000000267762000000000000000000000000014348050000000000  3020130116   01          2  RUA JUNO  533                                                                    300000000000000000001500  000000000000000                                     N                     00598  0000000        000010
12006000195000156MBA MERCANTIL BRAS DE ACO LTDA                                        0000000034100000000000000000000000000000939253410000002674597490010554B01     201301012012120400000000055650000187751000000000187751000000000000000000000000000000050000000000  3020130102   05          3                                                                                   3112674597490064899001800029                                                  N                     01321  0000000        000011
12006000195000156MBA MERCANTIL BRAS DE ACO LTDA                                        0000000034100000000000000000000000000000939253420000002674597460010553B01     201301012012120400000000055650000253971000000000253971000000000000000000000000000000050000000000  3020130102   05          3                                                                                   3112674597466064899001800039                                                  N                     01321  0000000        000012
12006000195000156MBA MERCANTIL BRAS DE ACO LTDA                                        0000000034100000000000000000000000000000939253500000002674597620010565B01     201301012012120400000000055650000852641000000000852641000000000000000000000000000000050000000000  3020130102   05          3                                                                                   3112674597623064899001800019                                                  N                     01321  0000000        000013
12006000195000156MBA MERCANTIL BRAS DE ACO LTDA                                        0000000034100000000000000000000000000000920384660000002577570290010200B02     201301012012110600000000055650000981621000000000981621000000000000000000000000000000050000000000  3020130102   05          3                                                                                   3112577570297064899001800059                                                  N                     01321  0000000        000014
12006000195000156MBA MERCANTIL BRAS DE ACO LTDA                                        0000000034100000000000000000000000000000929490090000002624098320010430B01     201212312012112600000000055640000329139000000000329139000000000000000000000000000000050000000000  3020130102   05          3                                                                                   3112624098326064899001800079                                                  N                     01321  0000000        000015
12006000195000156MBA MERCANTIL BRAS DE ACO LTDA                                        0000000034100000000000000000000000000000933583360000002644908920010484B01     201301012012112800000000055650000102869000000000102869000000000000000000000000000000050000000000  3020130102   05          3                                                                                   3112644908926064899001800079                                                  N                     01321  0000000        000016
12006000195000156MBA MERCANTIL BRAS DE ACO LTDA                                        0000000034100000000000000000000000000000904173180000001671394430008926B03     201210122012071700000000054840000387716000000000460964000000000000000000000000073248050000000000  3020130116   01          2                                                                                   3191671394432064849251000079                                                  N                     01321  0000000        000017
12006000195000156MBA MERCANTIL BRAS DE ACO LTDA                                        0000000034100000000000000000000000000000906662670000001671394410008920B03     201210142012071700000000054860000576584000000000683180000000000000000000000000106596050000000000  3020130116   01          2                                                                                   3191671394416064849251000039                                                  N                     01321  0000000        000018
12006000195000156M B A MERCANTIL BRASILEIRA DE                                         0000000023700118P00000002130599 00000000865388240020222900000450009203B03     201212122012081500000000055450000344980000000000365105000000000000000000000000020125050000000000  3020130116   01          2  RUA JUNO  533                                                                    300000000000000000001500  000000000000000                                     N                     00598  0000000        000019
12006000195000156M B A MERCANTIL BRASILEIRA DE                                         0000000023700118P00000002130599 00000000865388270020222900000480009204B03     201212132012081500000000055460000127291000000000134499000000000000000000000000007208050000000000  3020130116   01          2  RUA JUNO  533                                                                    300000000000000000001500  000000000000000                                     N                     00598  0000000        000020
12006000195000156M B A MERCANTIL BRASILEIRA DE                                         0000000023700118P00000002130599 00000000865388300020222900000510009205B03     201212142012081500000000055470000348964000000000368170000000000000000000000000019206050000000000  3020130116   01          2  RUA JUNO  533                                                                    300000000000000000001500  000000000000000                                     N                     00598  0000000        000021
12007289649000113CRC LASER SUPR INF LTDA EPP                                           000000003410000000000000000000000000000095525883000000712264841000001305      201302132013011500000000056080000029940000000000029940000000000000000000000000000000050000000000  3020130213   01FS        1                                                                                   3157122648419000265431700089                                                  N                     01321  0000000        000022
12008189587000130S S R B QUALITY C E LTDA                                              0000000034100000000000000000000000000000955258780000002748535373039251        201302082013011100000000056030000027142000000000027142000000000000000000000000000000050000000000  3020130208   01FS        1                                                                                   3112748535377101138710500049                                                  N                     01321  0000000        000023
12008272923000104P SANTOS ESQUADRARIAS METAL ME                                        0000000034100000000000000000000000000000915734100000006159682651954           201212052012110700000000055380000408138000000000461997000000000000000000000000053859050000000000  3020130116   01          2                                                                                   3156159682654160141951600029                                                  N                     01321  0000000        000024
12008671310000140SIMOSEG EQUIP PROT IND LTDA ME                                        0000000034100000000000000000000000000000943110550000009000510480001928 1      201301142012121700000000055780000045400000000000045400000000000000000000000000000000050000000000  3020130114   06          3                                                                                   3109000510486019967181900089                                                  N                     01321  0000000        000025
12008879248000186FREFER METAL PLUS                                                     000000003410000000000000000000000000000091026575000000253012170EPI024022C     201301152012102300000000055790000998338000000000999636000000000000000000000000001298050000000000  3020130116   01          2                                                                                   3112530121709293811346700099                                                  N                     01321  0000000        000026
12008879248000186FREFER METAL PLUS                                                     000000003410000000000000000000000000000093637221000000265732284EPR013366A     201301152012120600000000055790001076688000000001078088000000000000000000000000001400050000000000  3020130116   01          2                                                                                   3112657322841293811346700039                                                  N                     01321  0000000        000027
12008879248000186FREFER METAL PLUS                                                     000000003410000000000000000000000000000093452379000000264895671EMO014094A     201301152012120300000000055790000533061000000000533754000000000000000000000000000693050000000000  3020130116   01          2                                                                                   3112648956715293811346700099                                                  N                     01321  0000000        000028
12008879248000186FREFER METAL PLUS                                                     000000003410000000000000000000000000000093452382000000264895673EMO014097A     201301152012120300000000055790000122199000000000122358000000000000000000000000000159050000000000  3020130116   01          2                                                                                   3112648956731293811346700039                                                  N                     01321  0000000        000029
12009338857000190FERNANDO  NAGAO  CARDONE  ALVA                                        000000000330000000000000000000000000000091653176000000300000000ALTA 11 2012   201211202012103000000000055230000134632000000000159006000000000000000000000000024374050000000000  3020130116   01          2                                                                                   3947901700000051051630010119                                                  N                     01321  0000000        000030
12019964642000139INDUMYLL INDUSTRIA E COMERCIO                                         000000000330000000000000000000000000000095525885000000740000000146210 1       201302082013011500000000056030000172276000000000172276000000000000000000000000000000050000000000  3020130208   01FS        1                                                                                   3913078000000009027874020319                                                  N                     01321  0000000        000031
12019964642000139INDUMYLL INDUSTRIA E COMERCIO                                         000000000330000000000000000000000000000095525886000000820000000146210 2       201303082013011500000000056310000172276000000000172276000000000000000000000000000000050000000000  3020130308   01FS        1                                                                                   3913078000000009027882020379                                                  N                     01321  0000000        000032
12019964642000139INDUMYLL INDUSTRIA E COMERCIO                                         000000000330000000000000000000000000000095525887000000900000000146210 3       201304052013011500000000056590000172328000000000172328000000000000000000000000000000050000000000  3020130405   01FS        1                                                                                   3913078000000009027890020329                                                  N                     01321  0000000        000033
12019964642000139INDUMYLL INDUSTRIA E COMERCIO                                         000000000330000000000000000000000000000095525888000000120000000146429 2       201303082013011500000000056310000451661000000000451661000000000000000000000000000000050000000000  3020130308   01FS        1                                                                                   3913078000000009027912020319                                                  N                     01321  0000000        000034
12019964642000139INDUMYLL INDUSTRIA E COMERCIO                                         000000000330000000000000000000000000000095525889000000200000000146429 3       201304052013011500000000056590000451798000000000451798000000000000000000000000000000050000000000  3020130405   01FS        1                                                                                   3913078000000009027920020329                                                  N                     01321  0000000        000035
12019964642000139INDUMYLL INDUSTRIA E COMERCIO                                         000000000330000000000000000000000000000095525890000000390000000146347 1       201302072013011500000000056020000979062000000000979062000000000000000000000000000000050000000000  3020130207   01FS        1                                                                                   3913078000000009027939020329                                                  N                     01321  0000000        000036
12019964642000139INDUMYLL INDUSTRIA E COMERCIO                                         000000000330000000000000000000000000000095525891000000470000000146347 2       201303072013011500000000056300000979062000000000979062000000000000000000000000000000050000000000  3020130307   01FS        1                                                                                   3913078000000009027947020319                                                  N                     01321  0000000        000037
12019964642000139INDUMYLL INDUSTRIA E COMERCIO                                         000000000330000000000000000000000000000095525892000000040000000146429 1       201302082013011500000000056030000451661000000000451661000000000000000000000000000000050000000000  3020130208   01FS        1                                                                                   3913078000000009027904020329                                                  N                     01321  0000000        000038
12019964642000139INDUMYLL INDUSTRIA E COMERCIO                                         000000000330000000000000000000000000000095525893000000550000000146347 3       201304042013011500000000056580000979356000000000979356000000000000000000000000000000050000000000  3020130404   01FS        1                                                                                   3913078000000009027955020369                                                  N                     01321  0000000        000039
12035820448000136WHITE MARTINS GASES INDUSTRIAI                                        0000000023700026400000003937925 0000000094008690009023490004358422145 001     201301102012121400000000055740000021808000000000022286000000000000000000000000000478050000000000  3020130116   01          2  RUA GANGES  528                                                                  3                         000000000000000                                     N                     00598  0000000        000040
12042956441000101SOLUCOES ACO USIMINAS                                                 0000000034100000000000000000000000000000924705520000002601744170019069202     201301152012112000000000055790000192901000000000193287000000000000000000000000000386050000000000  3020130116   01          2                                                                                   3112601744173293807258000069                                                  N                     01321  0000000        000041
12042956441000101SOLUCOES ACO USIMINAS                                                 0000000034100000000000000000000000000000924705630000002601744160019069102     201301152012112000000000055790000162524000000000162849000000000000000000000000000325050000000000  3020130116   01          2                                                                                   3112601744165293807258000029                                                  N                     01321  0000000        000042
12042956441000101SOLUCOES ACO USIMINAS                                                 0000000034100000000000000000000000000000853154840000002246247030017196702     201209202012072500000000054620000234841000000000290301000000000000000000000000055460050000000000  3020130116   01          2                                                                                   3112246247038293807258000099                                                  N                     01321  0000000        000043
12042956441000101SOLUCOES ACO USIMINAS                                                 0000000034100000000000000000000000000000853154850000002246247040017197302     201209202012072500000000054620000970103000000001199023000000000000000000000000228920050000000000  3020130116   01          2                                                                                   3112246247046293807258000019                                                  N                     01321  0000000        000044
12042956441000101SOLUCOES ACO USIMINAS                                                 0000000034100000000000000000000000000000855028690000002254329380017212902     201209212012072600000000054630000140098000000000172858000000000000000000000000032760050000000000  3020130116   01          2                                                                                   3112254329389293807258000019                                                  N                     01321  0000000        000045
12042956441000101SOLUCOES ACO USIMINAS                                                 0000000034100000000000000000000000000000855028700000002254329390017213002     201209212012072600000000054630000140602000000000173479000000000000000000000000032877050000000000  3020130116   01          2                                                                                   3112254329397293807258000089                                                  N                     01321  0000000        000046
12042956441000101SOLUCOES ACO USIMINAS                                                 0000000034100000000000000000000000000000855028770000002254329400017220502     201209212012072700000000054630000981022000000001210576000000000000000000000000229554050000000000  3020130116   01          2                                                                                   3112254329405293807258000099                                                  N                     01321  0000000        000047
12042956441000101SOLUCOES ACO USIMINAS                                                 0000000034100000000000000000000000000000859590620000002274469790017353702     201209282012080300000000054700000081053000000000098873000000000000000000000000017820050000000000  3020130116   01          2                                                                                   3112274469793293807258000069                                                  N                     01321  0000000        000048
12042956441000101SOLUCOES ACO USIMINAS                                                 0000000034100000000000000000000000000000943110310000002694578570019544101     201301142012121700000000055780000684093000000000686829000000000000000000000000002736050000000000  3020130116   01          2                                                                                   3112694578579293807258000019                                                  N                     01321  0000000        000049
12042956441000101SOLUCOES ACO USIMINAS                                                 0000000034100000000000000000000000000000943110330000002694578560019544001     201301142012121700000000055780000328758000000000330074000000000000000000000000001316050000000000  3020130116   01          2                                                                                   3112694578561293807258000069                                                  N                     01321  0000000        000050
12042956441000101SOLUCOES ACO USIMINAS                                                 0000000034100000000000000000000000000000943110370000002694578580019544201     201301142012121700000000055780000235009000000000235949000000000000000000000000000940050000000000  3020130116   01          2                                                                                   3112694578587293807258000089                                                  N                     01321  0000000        000051
12042956441000101SOLUCOES ACO USIMINAS                                                 0000000034100000000000000000000000000000943110390000002694578590019546701     201301142012121700000000055780001132995000000001137527000000000000000000000000004532050000000000  3020130116   01          2                                                                                   3112694578595293807258000069                                                  N                     01321  0000000        000052
12042956441000101SOLUCOES ACO USIMINAS                                                 0000000034100000000000000000000000000000943110410000002694578600019543401     201301152012121700000000055790000245567000000000246058000000000000000000000000000491050000000000  3020130116   01          2                                                                                   3112694578603293807258000039                                                  N                     01321  0000000        000053
12042956441000101SOLUCOES ACO USIMINAS                                                 0000000034100000000000000000000000000000944046590000002699527820019570201     201301152012121800000000055790000409257000000000410076000000000000000000000000000819050000000000  3020130116   01          2                                                                                   3112699527829293807258000039                                                  N                     01321  0000000        000054
12042956441000101SOLUCOES EM ACO USIMINAS S A                                          000000000010000000000000000000000000000095525871000000110463000000198210002   201303072013011400000000056300000149290000000000149290000000000000000000000000000000050000000000  3020130307   01FS        1                                                                                   3000000169660100001104631759                                                  N                     01321  0000000        000055
12042956441000101SOLUCOES EM ACO USIMINAS S A                                          000000000010000000000000000000000000000095525872000000109712000000068550001   201302072013011400000000056020000099271000000000099271000000000000000000000000000000050000000000  3020130207   01FS        1                                                                                   3000000169660100001097121729                                                  N                     01321  0000000        000056
12042956441000101SOLUCOES EM ACO USIMINAS S A                                          000000000010000000000000000000000000000095525873000000110464000000198210003   201304042013011400000000056580000149290000000000149290000000000000000000000000000000050000000000  3020130404   01FS        1                                                                                   3000000169660100001104641749                                                  N                     01321  0000000        000057
12042956441000101SOLUCOES EM ACO USIMINAS S A                                          000000000010000000000000000000000000000095525874000000109713000000068550002   201303072013011400000000056300000099241000000000099241000000000000000000000000000000050000000000  3020130307   01FS        1                                                                                   3000000169660100001097131729                                                  N                     01321  0000000        000058
12042956441000101SOLUCOES EM ACO USIMINAS S A                                          000000000010000000000000000000000000000095525875000000109714000000068550003   201304042013011400000000056580000099242000000000099242000000000000000000000000000000050000000000  3020130404   01FS        1                                                                                   3000000169660100001097141799                                                  N                     01321  0000000        000059
12042956441000101SOLUCOES EM ACO USIMINAS S A                                          000000000010000000000000000000000000000095525876000000110462000000198210001   201302072013011400000000056020000149335000000000149335000000000000000000000000000000050000000000  3020130207   01FS        1                                                                                   3000000169660100001104621719                                                  N                     01321  0000000        000060
12042956441000101SOLUCOES ACO USIMINAS                                                 0000000034100000000000000000000000000000846595700000002210880280016980502     201209102012071200000000054520000156071000000000193511000000000000000000000000037752050000000000  3020130108   05          3                                                                                   3112210880285293807258000039                                                  N                     01321  0000000        000061
12042956441000101SOLUCOES ACO USIMINAS                                                 0000000034100000000000000000000000000000846595710000002210880290016980602     201209102012071200000000054520000426094000000000528334000000000000000000000000103092050000000000  3020130108   05          3                                                                                   3112210880293293807258000019                                                  N                     01321  0000000        000062
12042956441000101SOLUCOES ACO USIMINAS                                                 0000000034100000000000000000000000000000847452070000002216130350005922202     201209102012071600000000054520000172071000000000213351000000000000000000000000041624050000000000  3020130108   05          3                                                                                   3112216130354293807258000049                                                  N                     01321  0000000        000063
12042956441000101SOLUCOES ACO USIMINAS                                                 0000000034100000000000000000000000000000847452100000002216130340017012402     201209102012071500000000054520000147428000000000182828000000000000000000000000035695050000000000  3020130108   05          3                                                                                   3112216130347293807258000059                                                  N                     01321  0000000        000064
12043298975000150JOMARCA INDUSTRIAL DE PARAFUSO                                        0000000023703397900000000003212 00000000920384860020231900000190166858 02     201301122012111300000000055760000438000000000000439752000000000000000000000000001752050000000000  3020130116   01          2  RUA TAMAINDE  1410 RUA GANGES 520 E 528                                          3                         000000000000000                                     N                     00598  0000000        000065
12045635984000115CRIFER LAMINADOS DE ACO E FERR                                        0000000003300000000000000000000000000000917414020000007500000000036176E02     201301032012110800000000055670000501947000000000514997000000000000000000000000013050050000000000  3020130116   01          2                                                                                   3901184270000000261475010159                                                  N                     01321  0000000        000066
12047190731000100DE CASTRO LOUR ENG IND LTDA                                           00000000341000000000000000000000000000009041732400000025008465303027256 0     201301082012101600000000055720001108934000000001126382000000000000000000000000017448050000000000  3020130116   01          2                                                                                   3112500846533036884500400089                                                  N                     01321  0000000        000067
12047190731000100DE CASTRO LOUR ENG IND LTDA                                           00000000341000000000000000000000000000009041732600000025008465603027257 0     201301102012101600000000055740000752126000000000761000000000000000000000000000008874050000000000  3020130116   01          2                                                                                   3112500846566036884500400089                                                  N                     01321  0000000        000068
12047190731000100DE CASTRO LOUR ENG IND LTDA                                           00000000341000000000000000000000000000009041733000000025008464703027216 0     201301022012101000000000055660000225446000000000231648000000000000000000000000006202050000000000  3020130116   01          2                                                                                   3112500846475036884500400019                                                  N                     01321  0000000        000069
12047190731000100DE CASTRO LOUR ENG IND LTDA                                           00000000341000000000000000000000000000009041733200000025008465003027234 0     201301032012101100000000055670001029906000000001056231000000000000000000000000026325050000000000  3020130116   01          2                                                                                   3112500846509036884500400099                                                  N                     01321  0000000        000070
12047190731000100DE CASTRO LOUR ENG IND LTDA                                           00000000341000000000000000000000000000008782050900000023399953503026612 0     201209182012082100000000054600001111489000000001373809000000000000000000000000262320050000000000  3020130116   01          2                                                                                   3112339995352036884500400019                                                  N                     01321  0000000        000071
12047190731000100DE CASTRO LOUR ENG IND LTDA                                           00000000341000000000000000000000000000008782051200000023399953803026613 0     201209182012082100000000054600001107989000000001369469000000000000000000000000261480050000000000  3020130116   01          2                                                                                   3112339995386036884500400039                                                  N                     01321  0000000        000072
12047190731000100DE CASTRO LOUR ENG IND LTDA                                           00000000341000000000000000000000000000008782051600000023399954103026614 0     201209182012082100000000054600001047621000000001294821000000000000000000000000247200050000000000  3020130116   01          2                                                                                   3112339995410036884500400039                                                  N                     01321  0000000        000073
12047190731000100DE CASTRO LOUR ENG IND LTDA                                           00000000341000000000000000000000000000008782052000000023399955303026632 0     201209192012082200000000054610000952073000000001174841000000000000000000000000222768050000000000  3020130116   01          2                                                                                   3112339995535036884500400019                                                  N                     01321  0000000        000074
12047190731000100DE CASTRO LOUR ENG IND LTDA                                           00000000341000000000000000000000000000008782052100000023399955903026643 0     201209202012082300000000054620000867039000000001068229000000000000000000000000201190050000000000  3020130116   01          2                                                                                   3112339995592036884500400049                                                  N                     01321  0000000        000075
12047190731000100DE CASTRO LOUR ENG IND LTDA                                           00000000341000000000000000000000000000008782052500000023399955603026636 0     201209192012082200000000054610000940804000000001160954000000000000000000000000220150050000000000  3020130116   01          2                                                                                   3112339995568036884500400049                                                  N                     01321  0000000        000076
12047190731000100DE CASTRO LOUR ENG IND LTDA                                           00000000341000000000000000000000000000008782052700000023399956203026648 0     201209202012082300000000054620000976053000000001202613000000000000000000000000226560050000000000  3020130116   01          2                                                                                   3112339995626036884500400029                                                  N                     01321  0000000        000077
12047190731000100DE CASTRO LOUR ENG IND LTDA                                           00000000341000000000000000000000000000008782059200000023602715103026744 0     201212262012082900000000055590000146636000000000152684000000000000000000000000006048050000000000  3020130116   01          2                                                                                   3112360271517036884500400019                                                  N                     01321  0000000        000078
12047190731000100DE CASTRO LOUR ENG IND LTDA                                           00000000341000000000000000000000000000008782059600000023602714803026734 0     201212252012082800000000055580000998134000000001041320000000000000000000000000043186050000000000  3020130116   01          2                                                                                   3112360271483036884500400059                                                  N                     01321  0000000        000079
12047190731000100DE CASTRO LOUR ENG IND LTDA                                           00000000341000000000000000000000000000008782059700000023602715403026745 0     201212262012082900000000055590000903448000000000940765000000000000000000000000037317050000000000  3020130116   01          2                                                                                   3112360271541036884500400019                                                  N                     01321  0000000        000080
12048775225000146SEIKI IND COM E CONFECCOES LTD                                        000000003410000000000000000000000000000089337376000000244697151014914001      201210232012092500000000054950000052000000000000058630000000000000000000000000006630050000000000  3020130116   01          2                                                                                   3112446971510017444824100089                                                  N                     01321  0000000        000081
12056993512000150CYKLOP DO BRASIL EMBALAGENS SA                                        0000000034100000000000000000000000000000874070500000002362586810134932        201210012012090300000000054730000083607000000000116456000000000000000000000000032849050000000000  3020130116   01          2                                                                                   3112362586813025700015800019                                                  N                     01321  0000000        000082
12061217188000119TELAS METALICAS TELMETAL LTDA                                         0000000034100000000000000000000000000000938325350000009000000486146 2 3       201301142012121000000000055780000081137000000000081137000000000000000000000000000000050000000000  3020130114   06          3                                                                                   3109000000482077098123100099                                                  N                     01321  0000000        000083
12062510367000102ITANHAEM TRANSP DE MAQUINAS LT                                        000000003410000000000000000000000000000087407049000000236463199667            201209202012090400000000054620000248220000000000365394000000000000000000000000117174050000000000  3020130116   01          2                                                                                   3112364631997005770252400049                                                  N                     01321  0000000        000084
12062539994000176LEALFER INDUSTRIA E COMERCIO D                                        0000000003300000000000000000000000000000947686890000001000000000006009101     201301152012121700000000055790000624419000000000625480000000000000000000000000001061050000000000  3020130116   01          2                                                                                   3915298380000000314510010439                                                  N                     01321  0000000        000085
12062944582000111AS SOLUCOES COMERCIAL LTDA                                            00000000341000000000000000000000000000009552588200000090000447219035 A        201302082013011100000000056030000085536000000000085536000000000000000000000000000000050000000000  3020130208   01FS        1                                                                                   3109000044723067251093000019                                                  N                     01321  0000000        000086
12064952757000168WALMAC COM DE PROD QUIMICOS LT                                        0000000034100000000000000000000000000000860403450000002275821700020148        201210052012080300000000054770000219267000000000263660000000000000000000000000044393050000000000  3020130116   01          2                                                                                   3112275821703064807961400029                                                  N                     01321  0000000        000087
12065000655000105HILTI DO BRASIL COMERCIAL LTDA                                        0000000023703396000000000243787 00000000955258840090301500002760002438801     201302082013010900000000056030000031176000000000031176000000000000000000000000000000050000000000  3020130208   01FS        1  RUA TAMAINDE 1410                                                                3                         000000000000000                                     N                     00598  0000000        000088
12066841552000130R V SEG PATRIMONIAL LTDA                                              00000000341000000000000000000000000000008852483200000090002192721927          201209102012081000000000054520000483241000000000502561000000000000000000000000019481050000000000  3020130108   05          3                                                                                   3109000219270001835253400099                                                  N                     01321  0000000        000089
12066841552000130R V SEG PATRIMONIAL LTDA                                              00000000341000000000000000000000000000009410260600000090002279822798          201301102012120700000000055740000394482000000000395274000000000000000000000000000792050000000000  3020130116   01          2                                                                                   3109000227984001835253400029                                                  N                     01321  0000000        000090
12068881317000118BERTEL COMERCIAL ELETRICA LTDA                                        000000000010000000000000000000000000000094404629000000847484000000067205      201301142012121900000000055780000051306000000000051306000000000000000000000000000000050000000000  3020130114   06          3                                                                                   3044338474843266004504821189                                                  N                     01321  0000000        000091
12069284248000128ISOCOAT TINTAS E VERNIZES LTDA                                        0000000034100000000000000000000000000000908309610000002521130200057192        201301072012102400000000055710000318064000000000325696000000000000000000000000007632050000000000  3020130116   01          2                                                                                   3112521130206077430121200019                                                  N                     01321  0000000        000092
12069284248000128ISOCOAT TINTAS E VERNIZES LTDA                                        0000000034100000000000000000000000000000931455150000002632236310058846        201301132012112900000000055770000063992000000000064505000000000000000000000000000513050000000000  3020130116   01          2                                                                                   3112632236314077430121200019                                                  N                     01321  0000000        000093
12069284248000128ISOCOAT TINTAS E VERNIZES LTDA                                        0000000034100000000000000000000000000000932560360000002637409670058864        201301142012113000000000055780000301677000000000303285000000000000000000000000001608050000000000  3020130116   01          2                                                                                   3112637409676077430121200039                                                  N                     01321  0000000        000094
12069284248000128ISOCOAT TINTAS E VERNIZES LTDA                                        0000000034100000000000000000000000000000915734040000002553088180057607        201301152012110100000000055790000284348000000000285106000000000000000000000000000758050000000000  3020130116   01          2                                                                                   3112553088181077430121200049                                                  N                     01321  0000000        000095
12069284248000128ISOCOAT TINTAS E VERNIZES LTDA                                        0000000034100000000000000000000000000000915734050000002553088050057592        201301152012110100000000055790000093352000000000093601000000000000000000000000000249050000000000  3020130116   01          2                                                                                   3112553088058077430121200069                                                  N                     01321  0000000        000096
12069284248000128ISOCOAT TINTAS E VERNIZES LTDA                                        0000000034100000000000000000000000000000921267610000002580416030058053        201301122012111300000000055760000317968000000000321360000000000000000000000000003392050000000000  3020130116   01          2                                                                                   3112580416033077430121200019                                                  N                     01321  0000000        000097
12069284248000128ISOCOAT TINTAS E VERNIZES LTDA                                        0000000034100000000000000000000000000000921267640000002580320820057981        201301112012111200000000055750000349765000000000354430000000000000000000000000004665050000000000  3020130116   01          2                                                                                   3112580320821077430121200019                                                  N                     01321  0000000        000098
900009900000000043813229                                                                                                                                                                                                                                                                                                                                                                                                                                                                01321  0000000        000099
