0000147602043799295000110ALTAMIRA INDUSTRIA METALURGICA LT       202000000195920121116213555             3                                                                                                  000000000000000                                                                                                                                                                                                                                                                                   000001
12047190731000100DE CASTRO LOUR ENG IND LTDA                                           00000000341000000000000000000000000000009041732200000025008465403027257 0     201211152012101600000000055180000751900000000000751900000000000000000000000000000000050000000000  3020121116   02BW        2000000               000000000000000                                               3112500846541036884500400019               3027257                            N                     01132 10020256        000002
900000300000000000751900                                                                                                                                                                                    000000000000000                                                                                                                                                                                                                                                    00000100055180000751900        000003
