0000147602043799295000110ALTAMIRA INDUSTRIA METALURGICA LT       202000000183120120817213414             3                                                                                                  000000000000000                                                                                                                                                                                                                                                                                   000001
12006000195000156M B A MERCANTIL BRASILEIRA DE R RINCAO 220                            0365108023700118000000002128292 I000000000009539000000000000000               201208170000000000000000000000000000000000000000456280000000000000000000000000000000010000008556  0120120817   02BW        5000000               000000000000000                                               3                                          NF.NRO.08556/02                    N                     01321 10020256        000002
12006000195000156M B A MERCANTIL BRASILEIRA DE R RINCAO 220                            0365108023700118000000002128292 I000000000009554000000000000000               201208170000000000000000000000000000000000000000336000000000000000000000000000000000010000008589  0120120817   02BW        5000000               000000000000000                                               3                                          08589/02                           N                     01321 10020256        000003
12006000195000156M B A MERCANTIL BRASILEIRA DE R RINCAO 220                            0365108023700118000000002128292 I000000000009552000000000000000               201208170000000000000000000000000000000000000000927528000000000000000000000000000000010000008573  0120120817   02BW        5000000               000000000000000                                               3                                          08573/02                           N                     01321 10020256        000004
12006000195000156M B A MERCANTIL BRASILEIRA DE R RINCAO 220                            0365108023700118000000002128292 I000000000009557000000000000000               201208170000000000000000000000000000000000000000369741000000000000000000000000000000010000008324  0120120817   02BW        5000000               000000000000000                                               3                                          08324/03                           N                     01321 10020256        000005
12006000195000156M B A MERCANTIL BRASILEIRA DE R RINCAO 220                            0365108023700118000000002128292 I000000000009556000000000000000               201208170000000000000000000000000000000000000000695457000000000000000000000000000000010000008865  0120120817   02BW        5000000               000000000000000                                               3                                          08865/01                           N                     01321 10020256        000006
12006000195000156M B A MERCANTIL BRASILEIRA DE R RINCAO 220                            0365108023700118000000002128292 I000000000009553000000000000000               201208170000000000000000000000000000000000000000365507000000000000000000000000000000010000008590  0120120817   02BW        5000000               000000000000000                                               3                                          08590/02                           N                     01321 10020256        000007
12006000195000156MBA MERCANTIL BRASIL ACO LTDA                                         0000000023700118000000002128292 I000000000009560009021990000068               201208170000000000000000054280000827402000000000827402000000000000000000000000000000010000008857  3120120817   02BW        5000000               000000000000000                                               3011809219900000680212829099               08857/01                           N                     01146 10020256        000008
12006000195000156M B A MERCANTIL BRASILEIRA DE R RINCAO 220                            0365108023700118000000002128292 I000000000009558000000000000000               201208170000000000000000000000000000000000000000169188000000000000000000000000000000010000008864  0120120817   02BW        5000000               000000000000000                                               3                                          08864/01                           N                     01321 10020256        000009
12006000195000156M B A MERCANTIL BRASILEIRA DE R RINCAO 220                            0365108023700118000000002128292 I000000000009555000000000000000               201208170000000000000000000000000000000000000000166992000000000000000000000000000000010000008592  0120120817   02BW        5000000               000000000000000                                               3                                          08592                              N                     01321 10020256        000010
12042956441000101SOLUCOES EM ACO USIMINAS S A                                          0000000000100000 0000000000000  I000000000009574000000000000000               201208170000000000000000054280000435225000000000435225000000000000000000000000000000010000057680  3120120817   02BW        5000000               000000000000000                                               3000000169660100000804751719               057680/02                          N                     01130 10020256        000011
12042956441000101SOLUCOES EM ACO USIMINAS S A                                          0000000034100000 0000000000000  I000000000009541000000000000000               201208170000000000000000054280000343566000000000343566000000000000000000000000000000010000160163  3120120817   02BW        5000000               000000000000000                                               3181525013687293807258000089               0160163/03                         N                     01132 10020256        000012
12066841552000130RV SEGURANCA PATRIM LTDA                                              0000000034100000 0000000000000  I000000000009564000000000000000               201208170000000000000000054280000415172000000000415172000000000000000000000000000000010000021726  3120120817   02BW        5000000               000000000000000                                               3181525201205001839407200089               21726                              N                     01130 10020256        000013
12043298975000150JOMARCA INDL DE PARAFUSOS LTDA                                        0000000034100000 0000000000000  I000000000009566000000000000000               201208170000000000000000054280000181837000000000181837000000000000000000000000000000010000143134  3120120817   02BW        5000000               000000000000000                                               3181525207196144661815700059               143134/02                          N                     01130 10020256        000014
12061096178000172COMERCIAL ELETRICA RIMO LTDA                                          0000000034100000 0000000000000  I000000000009568000000000000000               201208170000000000000000054280000019517000000000019517000000000000000000000000000000010000008959  3120120817   02BW        5000000               000000000000000                                               3181525207954166009333500019               08959                              N                     01130 10020256        000015
12042956441000101SOLUCOES EM ACO USIMINAS S A                                          0000000034100000 0000000000000  I000000000009571000000000000000               201208170000000000000000054280001141442000000001141442000000000000000000000000000000010000160757  3120120817   02BW        5000000               000000000000000                                               3181525219805293807258000049               160757/03                          N                     01130 10020256        000016
12042956441000101SOLUCOES EM ACO USIMINAS S A                                          0000000034100000 0000000000000  I000000000009572000000000000000               201208170000000000000000054280000173498000000000173498000000000000000000000000000000010000059222  3120120817   02BW        5000000               000000000000000                                               3181525220381293807258000019               059222/01                          N                     01130 10020256        000017
12042956441000101SOLUCOES EM ACO USIMINAS S A                                          0000000034100000 0000000000000  I000000000009573000000000000000               201208170000000000000000054280000148652000000000148652000000000000000000000000000000010000170124  3120120817   02BW        5000000               000000000000000                                               3181525221165293807258000079               0170124/01                         N                     01130 10020256        000018
12042956441000101SOLUCOES EM ACO USIMINAS S A                                          0000000000100000 0000000000000  I000000000009575000000000000000               201208170000000000000000054280000343736000000000343736000000000000000000000000000000010000165560  3120120817   02BW        5000000               000000000000000                                               3000000169660100000812311719               0165560/01                         N                     01130 10020256        000019
12042956441000101SOLUCOES EM ACO USIMINAS S A                                          0000000034100000 0000000000000  I000000000009563000000000000000               201208170000000000000000054280000158302000000000158302000000000000000000000000000000010000169805  3120120817   02BW        5000000               000000000000000                                               3181525196136293807258000039               0169805/01                         N                     01130 10020256        000020
12061100202000108COFIPE VEICULOS LTDA                                                  0000000039900000 0000000000000  I000000000009578000000000000000               201208170000000000000000054280000040484000000000040484000000000000000000000000000000010000012209  3120120817   02BW        5000000               000000000000000                                               3320005133330343608018900149               012209/01                          N                     01130 10020256        000021
12061100202000108COFIPE VEICULOS LTDA                                                  0000000039900000 0000000000000  I000000000009579000000000000000               201208170000000000000000054280000018060000000000018060000000000000000000000000000000010000005155  3120120817   02BW        5000000               000000000000000                                               3320005133090343608018900179               05155                              N                     01130 10020256        000022
12013656578000142GUARINOR TRANSP E LOGISTICA LT                                        0000000010400000 0000000000000  I000000000009580000000000000000               201208170000000000000000054280000074300000000000074300000000000000000000000000000000010000005634  3120120817   02BW        5000000               000000000000000                                               3900000065132958700000017349               05634                              N                     01130 10020256        000023
12055721609000141MAC SEG EQUIP DE SEGURANCA LT                                         0000000034100000 0000000000000  I000000000009550000000000000000               201208170000000000000000054280000053080000000000053080000000000000000000000000000000010000003055  3120120817   02BW        5000000               000000000000000                                               3181525207310037814415800019               3055/01                            N                     01130 10020256        000024
12054382510000108SETENTA IND E COM DE MAD LTDA                                         0000000034100000 0000000000000  I000000000009565000000000000000               201208170000000000000000054280000193832000000000193832000000000000000000000000000000010000004359  3120120817   02BW        5000000               000000000000000                                               3181525206522057002848000029               4359/01                            N                     01130 10020256        000025
12003694166000143GRANDE SAO PAULO COMERCIO DE P                                        0000000000100000 0000000000000  I000000000009567000000000000000               201208170000000000000000054280000033946000000000033946000000000000000000000000000000010000000144  3120120817   02BW        5000000               000000000000000                                               3000000151248743910239721139               144/01                             N                     01130 10020256        000026
12042956441000101SOLUCOES EM ACO USIMINAS S A                                          0000000000100000 0000000000000  I000000000009561000000000000000               201208170000000000000000054280001070447000000001070447000000000000000000000000000000010000057592  3120120817   02BW        5000000               000000000000000                                               3000000169660100000803431789               057592/02                          N                     01130 10020256        000027
12042956441000101SOLUCOES EM ACO USIMINAS S A                                          0000000000100000 0000000000000  I000000000009542000000000000000               201208170000000000000000054280000328544000000000328544000000000000000000000000000000010000164931  3120120817   02BW        5000000               000000000000000                                               3000000169660100000794851759               0164931/02                         N                     01132 10020256        000028
12042956441000101SOLUCOES EM ACO USIMINAS S A                                          0000000000100000 0000000000000  I000000000009536000000000000000               201208170000000000000000054280000619574000000000619574000000000000000000000000000000010000057516  3120120817   02BW        5000000               000000000000000                                               3000000169660100000791361799               057516/02                          N                     01132 10020256        000029
12061217188000119TELAS METALICAS TELMETAL LTDA                                         0000000034100000 0000000000000  I000000000009533000000000000000               201208170000000000000000054280000055978000000000055978000000000000000000000000000000010000005292  3120120817   02BW        5000000               000000000000000                                               3181524903306077099894600099               05292/03-03                        N                     01132 10020256        000030
12002503185000182ANDAIMES MAQUINAS BIG LTDA                                            0000000000100000 0000000000000  I000000000009534000000000000000               201208170000000000000000054280000012256000000000012256000000000000000000000000000000010000011521  3120120817   02BW        5000000               000000000000000                                               3000000187782308250653551719               011521                             N                     01132 10020256        000031
12061217188000119TELAS METALICAS TELMETAL LTDA                                         0000000034100000 0000000000000  I000000000009535000000000000000               201208170000000000000000054280000010777000000000010777000000000000000000000000000000010000005291  3120120817   02BW        5000000               000000000000000                                               3181524912471077099894600059               05291/03-03                        N                     01132 10020256        000032
12071580302000124SANCHEPEL IND PAULISTA LTDA                                           0000000034100000 0000000000000  I000000000009551000000000000000               201208170000000000000000054280000113640000000000113640000000000000000000000000000000010000007224  3120120817   02BW        5000000               000000000000000                                               3181525204632007855578600059               7224                               N                     01130 10020256        000033
12069309706000136F N A TRANSPORTES LTDA                                                0000000034100000 0000000000000  I000000000009531000000000000000               201208170000000000000000054280000111039000000000111039000000000000000000000000000000010000058700  3120120817   02BW        5000000               000000000000000                                               3181524904502005486932600059               058700                             N                     01132 10020256        000034
12069284248000128ISOCOAT TINTAS E VERNIZES LTDA                                        0000000034100000 0000000000000  I000000000009530000000000000000               201208170000000000000000054280000134784000000000134784000000000000000000000000000000010000050534  3120120817   02BW        5000000               000000000000000                                               3181524911111077430121200019               050534/03                          N                     01132 10020256        000035
12042956441000101SOLUCOES EM ACO USIMINAS S A                                          0000000034100000 0000000000000  I000000000009537000000000000000               201208170000000000000000054280000607756000000000607756000000000000000000000000000000010000160164  3120120817   02BW        5000000               000000000000000                                               3181525012374293807258000079               0160164/03                         N                     01132 10020256        000036
12042956441000101SOLUCOES EM ACO USIMINAS S A                                          0000000000100000 0000000000000  I000000000009538000000000000000               201208170000000000000000054280000514145000000000514145000000000000000000000000000000010000164960  3120120817   02BW        5000000               000000000000000                                               3000000169660100000794821759               0164960/02                         N                     01132 10020256        000037
12043292101000196ANHEMBI IND  DE CAXIAS DE PAP                                         0000000000100000 0000000000000  I000000000009543000000000000000               201208170000000000000000054280000046832000000000046832000000000000000000000000000000010000013297  3120120817   02BW        5000000               000000000000000                                               3043919210683014000077163129               013297                             N                     01132 10020256        000038
12042956441000101SOLUCOES EM ACO USIMINAS S A                                          0000000000100000 0000000000000  I000000000009540000000000000000               201208170000000000000000054280000389642000000000389642000000000000000000000000000000010000165260  3120120817   02BW        5000000               000000000000000                                               3000000169660100000809851759               0165260/02                         N                     01132 10020256        000039
12061217188000119TELAS METALICAS TELMETAL LTDA                                         0000000034100000 0000000000000  I000000000009528000000000000000               201208170000000000000000054280000173091000000000173091000000000000000000000000000000010000005293  3120120817   02BW        5000000               000000000000000                                               3181524910145077099894600099               5293/3-3                           N                     01132 10020256        000040
12002558199000101OMEGA TUBOS COM IMP E EXP LTDA                                        0000000003300000 0000000000000  I000000000009527000000000000000               201208170000000000000000054280000310333000000000310333000000000000000000000000000000010000026380  3120120817   02BW        5000000               000000000000000                                               3947509770000000088714020349               026380/01                          N                     01132 10020256        000041
12008709272000177MULTIELETRICA C M E LTDA                                              0000000034100000 0000000000000  I000000000009529000000000000000               201208170000000000000000054280000168398000000000168398000000000000000000000000000000010000002499  3120120817   02BW        5000000               000000000000000                                               3181524909010075798525400019               2499/02                            N                     01132 10020256        000042
12001951865000104FOUR FACTORING FOMENTO M LTDA                                         0000000042200000 0000000000000  I000000000009546000000000000000               201208170000000000000000054280000313099000000000313099000000000000000000000000000000050001592012  3120120817   02BW        5000000               000000000000000                                               3702000009214741497536196119               159/2012                           N                     01132 10020256        000043
12007090033000119DIMEL COM ARTIGOS INFOR LTDA                                          0000000034100000 0000000000000  I000000000009544000000000000000               201208170000000000000000054280000042440000000000042440000000000000000000000000000000010000000906  3120120817   02BW        5000000               000000000000000                                               3181525014912045274000400069               0906                               N                     01132 10020256        000044
12042956441000101SOLUCOES EM ACO USIMINAS S A                                          0000000034100000 0000000000000  I000000000009562000000000000000               201208170000000000000000054280000432186000000000432186000000000000000000000000000000010000169806  3120120817   02BW        5000000               000000000000000                                               3181525195492293807258000059               0169806/01                         N                     01130 10020256        000045
12069284248000128ISOCOAT TINTAS E VERNIZES LTDAR COMEND GIUSEPPE MARCHIORI 2189        1814700023703372300000000370002 I000000000009548000000000000000               201208170000000000000000000000000000000000000000161081000000000000000000000000000000010000051735  0120120817   02BW        5000000               000000000000000                                               3                                          051735/001                         N                     01321 10020256        000046
12005151518000140BELENUS DO BRASIL LTDA                                                0000000023703389800000000015091 I000000000009576009021440000994               201208170000000000000000054280000465363000000000465363000000000000000000000000000000010000267418  3120120817   02BW        5000000               000000000000000                                               3338909214400009940001509089               0267418/01                         N                     01146 10020256        000047
12035820448000136WHITE MARTINS GASES IND LTDA                                          0000000023700026400000003937925 I000000000009569009021980000617               201208170000000000000000054280000087710000000000087710000000000000000000000000000000010000008777  3120120817   02BW        5000000               000000000000000                                               3002609219800006170393792079               08777                              N                     01146 10020256        000048
12007068566000102NIVEL EMPREGOS LTDA           AV CELSO GARCIA 3830                    0306400023700097300000003053792 I000000000009559000000000000000               201208170000000000000000000000000000000000000000297286000000000000000000000000000000010000002740  0120120817   02BW        5000000               000000000000000                                               3                                          NF.NRO.2740 - PARC.02/02.          N                     01321 10020256        000049
12062173661000176INDUFIX IND E COM LTDA                                                0000000023704130000000000085898 I000000000009532007022050000120               201208170000000000000000054280000067778000000000067778000000000000000000000000000000010000035860  3120120817   02BW        5000000               000000000000000                                               3413007220500001200008589029               035860/01                          N                     01079 10020256        000050
12014104961000150EDNILDE TRIGUERO DANTE DA SILVR ROQUE SOARES MEDELLA 132              0219009023701311000000001038206 I000000000009547000000000000000               201208170000000000000000000000000000000000000000102051000000000000000000000000000000010000000073  0120120817   02BW        5000000               000000000000000                                               3                                          073/01                             N                     01321 10020256        000051
12066970229000167NEXTEL TELECOMUNICACOES LTDA                                          0000000023702374400000001596233 I000000000009570009000014340179               201208170000000000000000054280000020257000000000020257000000000000000000000000000000010000032530  3120120817   02BW        5000000               000000000000000                                               3237409000143401790159623079               32530/10                           N                     01146 10020256        000052
12014775592000128HELIO ADRIANO DA SILVA ME                                             0000000023700593200000002432943 I000000000009545009022120000009               201208170000000000000000054280000018300000000000018300000000000000000000000000000000010000008233  3120120817   02BW        5000000               000000000000000                                               3059309221200000090243294039               8233                               N                     01079 10020256        000053
12061786604000108HERWAL ABRASIVOS E MAQUINAS LTR TOLEDO BARBOSA 746 BELENZINHO         0306100023700165100000000835188 I000000000009549000000000000000               201208170000000000000000000000000000000000000000018280000000000000000000000000000000010000001570  0120120817   02BW        5000000               000000000000000                                               3                                          01570                              N                     01321 10020256        000054
12012006058000121WEG TINTAS LTDA                                                       0000000023702727800000000001309 I000000000009577009021560000108               201208170000000000000000054280000461218000000000461218000000000000000000000000000000010000142311  3120120817   02BW        5000000               000000000000000                                               3272709215600001080000130019               0142311/03                         N                     01146 10020256        000055
12012006058000121WEG TINTAS LTDA                                                       0000000023702727800000000001309 I000000000009525009021700000102               201208170000000000000000054280000461693000000000461693000000000000000000000000000000010000145154  3120120817   02BW        5000000               000000000000000                                               3272709217000001020000130029               0145154/02                         N                     01079 10020256        000056
12075483040000130REX MAQ E EQUIPAMENTOS LTDA                                           0000000023702656500000000000701 I000000000009526002021530000470               201208170000000000000000054280000435446000000000435446000000000000000000000000000000010000072487  3120120817   02BW        5000000               000000000000000                                               3265602215300004700000070069               72487/02-03                        N                     01079 10020256        000057
900005800000000016140168                                                                                                                                                                                    000000000000000                                                                                                                                                                                                                                                    00005602388320012074777        000058
