0000147602043799295000110ALTAMIRA INDUSTRIA METALURGICA LT       202000000191520121017212725             3                                                                                                  000000000000000                                                                                                                                                                                                                                                                                   000001
12011202309000180FIEL TOOLS DISTRIB DE MAQ FERR                                        0000000023702087700000000000116 I000000000010040028000020194032               201210170000000000000000054890000042353000000000042353000000000000000000000000000000010000009403  3120121017   02BW        5000000               000000000000000                                               3208728000201940320000011049               9403/02                            N                     01146 10020256        000002
12007068566000102NIVEL EMPREGOS LTDA           AV CELSO GARCIA 3830                    0306400023700097300000003053792 I000000000010052000000000000000               201210170000000000000000000000000000000000000000180915000000000000000000000000000000010000002778  0120121017   02BW        5000000               000000000000000                                               3                                          PARC.03 - NF.NRO.2778.             N                     01321 10020256        000003
12061780615000253LEPOK INFORMATICA E PAPL LTDA                                         0000000023703393600000000005010 I000000000010044002022690000008               201210170000000000000000054890000050190000000000050190000000000000000000000000000000010002127952  3120121017   02BW        5000000               000000000000000                                               3339302226900000080000501029               2127952                            N                     01146 10020256        000004
12061780615000253LEPOK INFORMATICA E PAPL LTDA                                         0000000023703393600000000005010 I000000000010041002022690000009               201210170000000000000000054890000006808000000000006808000000000000000000000000000000010000128008  3120121017   02BW        5000000               000000000000000                                               3339302226900000090000501099               0128008                            N                     01146 10020256        000005
12058119371000177SOFTMATIC SIST AUTOMATICOS I  R VISC DE ITABORAI 368 TATUAPE          0330805023700503700000000362034 I000000000010051000000000000000               201210170000000000000000000000000000000000000000040613000000000000000000000000000000010000017406  0120121017   02BW        5000000               000000000000000                                               3                                          17406                              N                     01321 10020256        000006
12014775592000128HELIO ADRIANO DA SILVA ME                                             0000000023700593200000002432943 I000000000010046009022770000012               201210170000000000000000054890000019500000000000019500000000000000000000000000000000010000008727  3120121017   02BW        5000000               000000000000000                                               3059309227700000120243294019               8727                               N                     01146 10020256        000007
12002460454000170AUT SERVICE COM  E SERVICOS LT                                        0000000023702591700000000007692 I000000000010050009013220600282               201210170000000000000000054890000265027000000000265027000000000000000000000000000000010000034532  3120121017   02BW        5000000               000000000000000                                               3259109132206002820000769089               34532/02                           N                     01146 10020256        000008
12065611451000100SUPERDIN COMERCIAL E IMPORTADO                                        0000000023700890700000000004502 I000000000010043009022690000054               201210170000000000000000054890000031687000000000031687000000000000000000000000000000010000006715  3120121017   02BW        5000000               000000000000000                                               3089009226900000540000450069               6715/01                            N                     01146 10020256        000009
12049341563000132JAC COMERCIO MAT ELETR LTDA                                           0000000023700293300000001478699 I000000000010042002013226106361               201210170000000000000000054890000027499000000000027499000000000000000000000000000000010000022736  3120121017   02BW        5000000               000000000000000                                               3029302132261063610147869049               22736                              N                     01146 10020256        000010
12053726527000164CRISTALINA ARTES GRAFICAS LTDA                                        000000003410000000000000000000000000000089697944000000246437026129            201210172012100500000000054890000019000000000000019000000000000000000000000000000000050000000000  3020121017   02BW        2000000               000000000000000      CRISTALINA ARTES GRAFICAS LTDA           3112464370264006500924300069               129                                N                     01130 10020256        000011
12005044228000105TRIARC COM S METAIS USINADOS                                          000000003410000000000000000000000000000088957857000000797269990296 S          201210172012092600000000054890000011000000000000011000000000000000000000000000000000050000000000  3020121017   02BW        2000000               000000000000000                                               3157972699900076157868100039               296                                N                     01130 10020256        000012
12005044228000105TRIARC COM S METAIS USINADOS                                          000000003410000000000000000000000000000088957858000000797270197780            201210172012092600000000054890000020300000000000020300000000000000000000000000000000050000000000  3020121017   02BW        2000000               000000000000000                                               3157972701979076157868100069               780                                N                     01130 10020256        000013
12001162151000109SUKIRA COMERCIO DE IMPORTACAO                                         000000000010000000000000000000000000000088599908000000095081000018005 AA      201210172012092000000000054890000059400000000000059400000000000000000000000000000000050000000000  3020121017   02BW        2000000               000000000000000                                               3000000112481744080950811159               18005                              N                     01130 10020256        000014
12035820448000136WHITE MARTINS GASES INDUSTRIAI                                        0000000023700026400000003937925 0000000086907101009022370010705372273 001     201209202012082400000000054620000017600000000000018573000000000000000000000000001594050000000000  3020121017   02BW        2000000               000000000000000                                               3                         000000000000000  230157                             N                     01146 10020256        000015
12035820448000136WHITE MARTINS GASES INDUSTRIAI                                        0000000023700026400000003937925 0000000088266840009022580000485380402 001     201210112012091400000000054830000028403000000000029025000000000000000000000000000676050000000000  3020121017   02BW        2000000               000000000000000                                               3                         000000000000000  09142                              N                     01146 10020256        000016
12069284248000128ISOCOAT TINTAS E VERNIZES LTDA                                        0000000034100000 0000000000000  I000000000010036000000000000000               201210170000000000000000054890000048600000000000048600000000000000000000000000000000010000053390  3120121017   02BW        5000000               000000000000000                                               3181562631167077430121200069               053390                             N                     01130 10020256        000017
12067088963000160AJAXCOM ELETRO MEC E SERV LTDA                                        0000000034100000 0000000000000  I000000000010037000000000000000               201210170000000000000000054890000027850000000000027850000000000000000000000000000000010000000359  3120121017   02BW        5000000               000000000000000                                               3181562632166019941432700019               359                                N                     01130 10020256        000018
12057029431000106ATLAS COPCO BRASIL LTDA                                               0000000034100000 0000000000000  I000000000010038000000000000000               201210170000000000000000054890000083610000000000083610000000000000000000000000000000010000054146  3120121017   02BW        5000000               000000000000000                                               3181562634001293804111400029               54146                              N                     01130 10020256        000019
12005151518000140BELENUS DO BRASIL LTDA                                                0000000000100000 0000000000000  I000000000010039000000000000000               201210170000000000000000054890000466884000000000466884000000000000000000000000000000010000297232  3120121017   02BW        5000000               000000000000000                                               3000000123933843997749153149               297232                             N                     01130 10020256        000020
12003372804000100TROPICAL CLEAN COMERCIAL LTDA                                         0000000003300000 0000000000000  I000000000010045000000000000000               201210170000000000000000054890000048742000000000048742000000000000000000000000000000010000056986  3120121017   02BW        5000000               000000000000000                                               3913215100000006396259020159               56986                              N                     01130 10020256        000021
12011318709000156MARTINS MARIANO TRANSP LTDA                                           0000000000100000 0000000000000  I000000000010047000000000000000               201210170000000000000000054890000053510000000000053510000000000000000000000000000000010018945421  3120121017   02BW        5000000               000000000000000                                               3000000245286000000000931779               18945421                           N                     01130 10020256        000022
12015251825000156JOSEFA A LIMA DOS SANTOS EPP                                          0000000034100000 0000000000000  I000000000010049000000000000000               201210170000000000000000054890000022725000000000022725000000000000000000000000000000010000000841  3120121017   02BW        5000000               000000000000000                                               3181562666612810513909400039               841                                N                     01130 10020256        000023
12061217188000119TELAS METALICAS TELMETAL LTDA                                         0000000000100000 0000000000000  I000000000010034000000000000000               201210170000000000000000054890000039432000000000039432000000000000000000000000000000010000005659  3120121017   02BW        5000000               000000000000000                                               3000000115031800000057441719               5659/01-02                         N                     01130 10020256        000024
12061100202000108COFIPE VEICULOS LTDA                                                  0000000039900000 0000000000000  I000000000010035000000000000000               201210170000000000000000054890000040576000000000040576000000000000000000000000000000010701220903  3120121017   02BW        5000000               000000000000000                                               3320005133500343608018900169               9701220903                         N                     01130 10020256        000025
12011318709000156MARTINS MARIANO TRANSP LTDA                                           0000000000100000 0000000000000  I000000000010032000000000000000               201210170000000000000000054890000011074000000000011074000000000000000000000000000000050000000000  3120121017   02BW        5000000               000000000000000                                               3000000245286000000001091779               5398                               N                     01130 10020256        000026
12061217188000119TELAS METALICAS TELMETAL LTDA                                         0000000000100000 0000000000000  I000000000010033000000000000000               201210170000000000000000054890000072556000000000072556000000000000000000000000000000010000005660  3120121017   02BW        5000000               000000000000000                                               3000000115031800000057461739               5660/01-02                         N                     01130 10020256        000027
12000846804000106BRIDA LUBRIFICANTES LTDA                                              0000000034100000 0000000000000  I000000000010048000000000000000               201210170000000000000000054890000060293000000000060293000000000000000000000000000000010002347751  3120121017   02BW        5000000               000000000000000                                               3181562664906293816860200029               2347751                            N                     01130 10020256        000028
900002900000000001797742                                                                                                                                                                                    000000000000000                                                                                                                                                                                                                                                    00002701371920001574619        000029
