0000147602043799295000110ALTAMIRA INDUSTRIA METALURGICA LT       202000000434820121217214755             3                                                                                                  000000000000000                                                                                                                                                                                                                                                                                   000001
12007151435000186SALIS DE MOURA E ADVOGADOS ASSR MARIA PAULA 78 BELA VISTA             0131900023700500200000000594440 I000000000010332000000000000000               201212170000000000000000000000000000000000000000147750000000000000000000000000000000040000112012  0120121217   02BW        5000000               000000000000000                                               3                                          REF.NOVEMBRO/2012                  N                     01321 10020256        000002
12062539994000176LEALFER INDUSTRIA E COMERCIO D                                        0000000003300000 0000000000000  I000000000010329000000000000000               201212170000000000000000055500000839516000000000839516000000000000000000000000000000010000055020  3120121217   02BW        5000000               000000000000000                                               3915298380000000266736020369               55020/03                           N                     01132 10020256        000003
12062539994000176LEALFER INDUSTRIA E COMERCIO D                                        0000000003300000 0000000000000  I000000000010330000000000000000               201212170000000000000000055500000298074000000000298074000000000000000000000000000000010000057967  3120121217   02BW        5000000               000000000000000                                               3915298380000000288900010429               057967/01                          N                     01132 10020256        000004
12058119371000177SOFTMATIC SIST  AUTOM INF LTDA                                        0000000034100000 0000000000000  I000000000010331000000000000000               201212150000000000000000055480000040613000000000040613000000000000000000000000000000010000493749  3120121217   02BW        5000000               000000000000000                                               3175002553520859701614900069               0493749                            N                     01132 10020256        000005
1205995053500017610 TABELIAO PROTESTOS SP                                              0000000023701628400000000729957 I000000000010328006012121208755               201212170000000000000000055500001010989000000001010989000000000000000000000000000000050000026636  3120121217   02BW        5000000               000000000000000                                               3162806121212087550072995069               PROTOC.NRO.875/5                   N                     01079 10020256        000006
120595792840001651  TABELIAO PROTESTO LETRAS SP                                        0000000023701628400000000731366 I000000000010327006000000000427               201212170000000000000000055500000961369000000000961369000000000000000000000000000000030000055684  3120121217   02BW        5000000               000000000000000                                               3162806000000004270073136059               PROTOC.NRO.0186/12/12/2012.        N                     01079 10020256        000007
12005502645000146TRANS GERALE TRANSPORTES LTDA                                         000000003410000000000000000000000000000093033535000000263012200450 12         201212152012112700000000055480000064000000000000064000000000000000000000000000000000050000000000  3020121217   02BW        2000000               000000000000000      TRANS-GERALE TRANSPORTES LTDA            3112630122003035522320700049               01747                              N                     01132 10020256        000008
900000900000000003362311                                                                                                                                                                                    000000000000000                                                                                                                                                                                                                                                    00000700332960003214561        000009
