0000147602043799295000110ALTAMIRA IND METALURGICA LTDA           20100503000002012091810444200000        2    230A                                                                                          000000000000000                                                                                                                                                                                                                                                                                   000001
12043799295000110ALTAMIRA INDUSTRIA METAL LTDA RUA  GANGES  528                        0344503003303809500000130004071 I000000000009868000000000000000               201209180000000000000000000000000000000000000007200000000000000000000000000000000000050000000001  0820120918   01HA        0001110                                                                             3D0000000101                             0001                                 S                     00000  0020256        000002
900000300000000007200000                                                                                                                                                                                    000000000000000                                                                                                                                                                                                                                                    00000100000000000000000        000003
