0000147602043799295000110ALTAMIRA IND METALURGICA LTDA           20100593000002012121817313000000        2    230A                                                                                          000000000000000                                                                                                                                                                                                                                                                                   000001
12067647412000199ANCORA CHUMBADORES LTDA                                               000000003410000000000000000000000000000088873288000000242214248062576 3       201212180000000000000000055510000125000000000000125000000000000000000000000000000000050000000000  3020121218   01MFBUHA    500                                                                                 3112422142482013626917200019010000       00062576/03                          N                     00000 10020256        000002
12008879248000186FREFER METAL PLUS                                                     000000003410000000000000000000000000000090751879000000251738779EPI024022B     201212180000000000000000055510000998338000000000998338000000000000000000000000000000050000000000  3020121218   01MFBUHA    500                                                                                 3112517387794293811346700079010000       0024022/02                           N                     00000 10020256        000003
12042956441000101SOLUCOES ACO USIMINAS                                                 0000000034100000000000000000000000000000924705600000002601744110019069101     201212180000000000000000055510000162573000000000162573000000000000000000000000000000050000000000  3020121218   01MFBUHA    500                                                                                 3112601744116293807258000049010000       00190691/01                          N                     00000 10020256        000004
12042956441000101SOLUCOES ACO USIMINAS                                                 0000000034100000000000000000000000000000924705610000002601744120019069201     201212180000000000000000055510000192959000000000192959000000000000000000000000000000050000000000  3020121218   01MFBUHA    500                                                                                 3112601744124293807258000039010000       00190692/01                          N                     00000 10020256        000005
12061217188000119TELAS METALICAS TELMETAL LTDA                                         0000000034100000000000000000000000000000930335370000009000031065896 2 2       201212180000000000000000055510000081992000000000081992000000000000000000000000000000050000000000  3020121218   01MFBUHA    500                                                                                 3109000031060077099894600059010000       005896/02-02                         N                     00000 10020256        000006
12061683652000162TRANS FACE TRANSPORTES LTDA                                           0000000023700530400000000141828 0000000093452391009000000110991I000086690     201212180000000000000000055510000042648000000000042648000000000000000000000000000000050000000000  3020121218   01MFBUHA    500R JUNO 553                                                                       3010000                   0000000000000000086690                              N                     00000 10020256        000007
12009425428000150MARIA DA GLORIA SILVA ELOI ME                                         00000000341000000000000000000000000000009363724800000070781085912097          201212180000000000000000055510000007634000000000007634000000000000000000000000000000050000000000  3020121218   01MFBUHA    500                                                                                 3157078108590100047432800089010000       00012097                             N                     00000 10020256        000008
1205995053500017610 TABELIAO PROTESTOS SP      PRACA  DOUTOR JOAO MENDES  39           0150100123701628400000000729957 I000000000010334006012121302253               201212180000000000000000055510000595375000000000595375000000000000000000000000000000050000026796  3120121218   01HA        000                                                                                 3162806121213022530072995019             00PROTOCOLO NRO.225/3 - DE CASTRO    N                     00000 10020256        000009
12086878469000143SUL AMERICA SEG SAUDE S A     RUA  COELHO LISBOA  61   SL 06   TERREO 0332304035600000 0000000000000  I000000000010335000000000000000               201212180000000000000000055510000000000000000000394330000000000000000000000000000000011208952819  3120121218   01HA        000                                                                                 3007548091854130120895281329             001208952819                         N                     00000 10020256        000010
12015244717000156STYLO ROL COM ROLAM                                                   0356008034100000 0000000000000  I000000000010336000000000000000               201212180000000000000000055510000006860000000000006860000000000000000000000000000000010000000167  3120121218   01HA        000                                                                                 3109201201401076423057900069             000167/01                            N                     00000 10020256        000011
12008709272000177MULTIELETRICA C M E LTDA                                              0000000034100000 0000000000000  I000000000010337000000000000000               201212180000000000000000055510000236388000000000236388000000000000000000000000000000010000002535  3120121218   01HA        000                                                                                 3181602198007075798525400089             002535/D                             N                     00000 10020256        000012
900001300000000002844097                                                                                                                                                                                    000000000000000                                                                                                                                                                                                                                                    00001100610610002449767        000013
