0000147602043799295000110ALTAMIRA INDUSTRIA METALURGICA LT       202000000191720121018213103             3                                                                                                  000000000000000                                                                                                                                                                                                                                                                                   000001
12047190731000100DE CASTRO LOUREIRO ENG  IND  CAV MOFARREJ  729 VL LEOPOLDINA SP       0531100023703394400000002529408 I000000000010058000000000000000               201210180000000000000000000000000000000000000000255836000000000000000000000000000000010000025894  0120121018   02BW        5000000               000000000000000                                               3                                          NF.NRO.25894 - PARC.03.            N                     01321 10020256        000002
12043799295000110ALTAMIRA INDUSTRIA METAL LTDA                                         0000000003303809500000130004071 I000000000010053000000000000000               201210180000000000000000000000000000000000000007500000000000000000000000000000000000050000000001  0820121018   02BW        5001200               000000000000000                                               3D0000000101                               01                                 S                     01133 10020256        000003
12047190731000100DE CASTRO LOUR ENG IND LTDA                                           00000000341000000000000000000000000000008782058900000023602714603026734 0     201210182012082800000000054900000997834000000000997834000000000000000000000000000000050000000000  3020121018   02BW        2000000               000000000000000                                               3112360271467036884500400099               3026734                            N                     01132 10020256        000004
12047190731000100DE CASTRO LOUREIRO ENGENHARIA                                         00000000033000000000000000000000000000008782053500000070000000003026669 0     201210192012082400000000054910000867738000000000867738000000000000000000000000000000050000000000  3020121018   02BW        2000000               000000000000000                                               3948430370000009552570020349               3026734                            N                     01132 10020256        000005
12006867297000173MARCOS ANTONIO RIBEIRO ACOS                                           0000000034100000 0000000000000  I000000000010059000000000000000               201210180000000000000000054900000033406000000000033406000000000000000000000000000000010000000435  3120121018   02BW        5000000               000000000000000                                               3181563580395046769908800099               435                                N                     01132 10020256        000006
12006867297000173MARCOS ANTONIO RIBEIRO ACOS                                           0000000034100000 0000000000000  I000000000010054000000000000000               201210180000000000000000054900000043670000000000043670000000000000000000000000000000010000000433  3120121018   02BW        5000000               000000000000000                                               3181563568945046769908800029               433                                N                     01132 10020256        000007
12066899790000105FAB ART DE LATEX ESTR EP LTDA                                         0000000039900000 0000000000000  I000000000010056000000000000000               201210180000000000000000054900000144115000000000144115000000000000000000000000000000010000077307  3120121018   02BW        5000000               000000000000000                                               3175891371831125027292500119               77307                              N                     01132 10020256        000008
12047190731000100DE CASTRO LOUREIRO ENGENHARIA                                         0000000034100000 0000000000000  I000000000010057000000000000000               201210180000000000000000054900000867039000000000867039000000000000000000000000000000010003026643  3120121018   02BW        5000000               000000000000000                                               3112339995592036884500400079               3026643                            N                     01132 10020256        000009
12074239252000104TRANSPORTADORA BANNYS LTDA EPP                                        0000000034100000000000000000000000000000888732870000002425158021300           201210222012092100000000054940000044000000000000044000000000000000000000000000000000050000000000  3020121018   02BW        2000000               000000000000000      TRANSPORTADORA BANNYS LTDA EPP           3112425158022077267978300069               1300                               N                     01132 10020256        000010
12003807192000130HELIO EQUIPAMENTOS LTDA  EPP                                          0000000000100000000000000000000000000000888732850000000002200002410000220     201210182012092400000000054900000022800000000000022800000000000000000000000000000000050000000000  3020121018   02BW        2000000               000000000000000      HELIO EQUIPAMENTOS LTDA                  3000000237909724100002201759               408                                N                     01132 10020256        000011
12005151518000140BELENUS DO BRASIL LTDA                                                000000000010000000000000000000000000000085315479000000001499000R128919732     201210182012072600000000054900000460800000000000460800000000000000000000000000000000050000000000  3020121018   02BW        2000000               000000000000000                                               3000000123933843930014993179               289197                             N                     01132 10020256        000012
12061096178000172COMERCIAL ELETRICA RIMO LTDA                                          0000000034100000 0000000000000  I000000000010055000000000000000               201210180000000000000000054900000044180000000000044180000000000000000000000000000000010000009888  3120121018   02BW        5000000               000000000000000                                               3181563564589166009333500029               9888                               N                     01132 10020256        000013
900001400000000011281418                                                                                                                                                                                    000000000000000                                                                                                                                                                                                                                                    00001200549050003525582        000014
