0000147602043799295000110ALTAMIRA INDUSTRIA METALURGICA LT       202000000019020121218060544             1                                                                                                                                                                                                                                                                                                                                                                                                    000001
12001895314000162COLETA INDUSTRIAL FIMAVAN LTDA                                        0000000034100000000000000000000000000000866992070000009002335349439           201208272012081700000000054380000123695000000000163346000000000000000000000000039651050000000000  3020121218   01          2                                                                                   3109002335346144604097200019                                                  N                     01321  0000000        000002
12002269980000158PANKRO LOGISTICA E TRANSP LTDA                                        000000003410000000000000000000000000000094102607000000708927644348 A          201212282012121700000000055610000180000000000000180000000000000000000000000000000000050000000000  3020121228   01FS        1                                                                                   3157089276447898907620600099                                                  N                     01321  0000000        000003
12002269980000158PANKRO LOGISTICA E TRANSP LTDA                                        000000003410000000000000000000000000000094102608000000708928428349 B          201301112012121700000000055750000180000000000000180000000000000000000000000000000000050000000000  3020130111   01FS        1                                                                                   3157089284284898907620600029                                                  N                     01321  0000000        000004
12003489596000123BEND FLEX I COMERCIO LTDA                                             000000003410000000000000000000000000000088599899000000171434574613            201209172012081600000000054590000585000000000000690892000000000000000000000000105892050000000000  3020121218   01          2                                                                                   3191714345748157734445800019                                                  N                     01321  0000000        000005
12003489596000123BEND FLEX I COMERCIO LTDA                                             000000003410000000000000000000000000000088350832000000171879874608            201209122012082100000000054540000695250000000000827849000000000000000000000000132599050000000000  3020121218   01          2                                                                                   3191718798744157734445800069                                                  N                     01321  0000000        000006
12003498897000202TELECOMUNICACOES DE SAO PAULO                                         0000000023702372800000000360082 0000000094102609019066000988658V36020469      201301012012121700000000055650000318541000000000318541000000000000000000000000000000050000000000  3020130102   01FS        1  R GANGES 528                                                                     3                         000000000000000                                     N                     00598  0000000        000007
12003807192000130HELIO EQUIPAMENTOS LTDA  EPP                                          0000000000100000000000000000000000000000941025920000000020000002410002000     201301122012121400000000055760000022800000000000022800000000000000000000000000000000050000000000  3020130114   01FS        1                                                                                   3000000237909724100020001719                                                  N                     01321  0000000        000008
12005880850000145NEDERMAN BRASIL COM PROD EX LT                                        000000003410000000000000000000000000000086373178000000614350956002763 A       201209252012081400000000054670000289674000000000337554000000000000000000000000047880050000000000  3020121218   01          2                                                                                   3156143509568160829000100049                                                  N                     01321  0000000        000009
12006000195000156MBA MERCANTIL BRAS DE ACO LTDA                                        0000000034100000000000000000000000000000904173150000001667238300008870B03     201210092012071600000000054810000839951000000000955591000000000000000000000000115640050000000000  3020121218   01          2                                                                                   3191667238304064849251000039                                                  N                     01321  0000000        000010
12006000195000156MBA MERCANTIL BRAS DE ACO LTDA                                        0000000034100000000000000000000000000000887698090000001671394550008925B02     201209142012071700000000054560000719581000000000854006000000000000000000000000134425050000000000  3020121218   01          2                                                                                   3191671394556064849251000089                                                  N                     01321  0000000        000011
12006000195000156MBA MERCANTIL BRAS DE ACO LTDA                                        0000000034100000000000000000000000000000887698100000001671394560008926B02     201209142012071700000000054560000387716000000000460201000000000000000000000000072485050000000000  3020121218   01          2                                                                                   3191671394564064849251000019                                                  N                     01321  0000000        000012
12006000195000156MBA MERCANTIL BRAS DE ACO LTDA                                        0000000034100000000000000000000000000000904173160000001667238280008876B03     201210122012071600000000054840000810320000000000917118000000000000000000000000106798050000000000  3020121218   01          2                                                                                   3191667238288064849251000079                                                  N                     01321  0000000        000013
12006000195000156MBA MERCANTIL BRAS DE ACO LTDA                                        0000000034100000000000000000000000000000904173170000001671394420008925B03     201210122012071700000000054840000719580000000000814385000000000000000000000000094805050000000000  3020121218   01          2                                                                                   3191671394424064849251000069                                                  N                     01321  0000000        000014
12006000195000156MBA MERCANTIL BRAS DE ACO LTDA                                        0000000034100000000000000000000000000000904173180000001671394430008926B03     201210122012071700000000054840000387716000000000438837000000000000000000000000051121050000000000  3020121218   01          2                                                                                   3191671394432064849251000079                                                  N                     01321  0000000        000015
12006000195000156MBA MERCANTIL BRAS DE ACO LTDA                                        0000000034100000000000000000000000000000885998980000001667238420008870B02     201209112012071600000000054530000839952000000001001848000000000000000000000000161896050000000000  3020121218   01          2                                                                                   3191667238429064849251000039                                                  N                     01321  0000000        000016
12006000195000156MBA MERCANTIL BRAS DE ACO LTDA                                        0000000034100000000000000000000000000000906662670000001671394410008920B03     201210142012071700000000054860000576584000000000650294000000000000000000000000073710050000000000  3020121218   01          2                                                                                   3191671394416064849251000039                                                  N                     01321  0000000        000017
12006000195000156MBA MERCANTIL BRAS DE ACO LTDA                                        0000000034100000000000000000000000000000889578520000001671394540008920B02     201209162012071700000000054580000576585000000000682047000000000000000000000000105462050000000000  3020121218   01          2                                                                                   3191671394549064849251000099                                                  N                     01321  0000000        000018
12006000195000156M B A MERCANTIL BRASILEIRA DE                                         0000000023700118P00000002130599 00000000865388240020222900000450009203B03     201212122012081500000000055450000344980000000000348430000000000000000000000000003450050000000000  3020121218   01          2  RUA JUNO  533                                                                    300000000000000000001500  000000000000000                                     N                     00598  0000000        000019
12006000195000156M B A MERCANTIL BRASILEIRA DE                                         0000000023700118P00000002130599 00000000865388270020222900000480009204B03     201212132012081500000000055460000127291000000000128351000000000000000000000000001060050000000000  3020121218   01          2  RUA JUNO  533                                                                    300000000000000000001500  000000000000000                                     N                     00598  0000000        000020
12006000195000156M B A MERCANTIL BRASILEIRA DE                                         0000000023700118P00000002130599 00000000865388300020222900000510009205B03     201212142012081500000000055470000348964000000000351292000000000000000000000000002328050000000000  3020121218   01          2  RUA JUNO  533                                                                    300000000000000000001500  000000000000000                                     N                     00598  0000000        000021
12006000195000156M B A MERCANTIL BRASILEIRA DE                                         0000000023700118P00000002130599 00000000865388330020222900000540009206B03     201212152012081500000000055480000527560000000000530197000000000000000000000000002637050000000000  3020121218   01          2  RUA JUNO  533                                                                    300000000000000000001500  000000000000000                                     N                     00598  0000000        000022
12006000195000156M B A MERCANTIL BRASILEIRA DE                                         0000000023700118P00000002130599 00000000868592700020223600000030009229B03     201212132012081600000000055460000253414000000000255524000000000000000000000000002110050000000000  3020121218   01          2  RUA JUNO  533                                                                    300000000000000000001500  000000000000000                                     N                     00598  0000000        000023
12006000195000156MBA MERCANTIL BRAS DE ACO LTDA                                        0000000034100000000000000000000000000000894343990000002451556620009733B01     201212032012092800000000055360000520246000000000520246000000000000000000000000000000050000000000  3020121203   05          3                                                                                   3112451556628064899001800089                                                  N                     01321  0000000        000024
12008272923000104P SANTOS ESQUADRARIAS METAL ME                                        0000000034100000000000000000000000000000915734100000006159682651954           201212052012110700000000055380000408138000000000430445000000000000000000000000022307050000000000  3020121218   01          2                                                                                   3156159682654160141951600029                                                  N                     01321  0000000        000025
12009338857000190FERNANDO  NAGAO  CARDONE  ALVA                                        000000000330000000000000000000000000000091653176000000300000000ALTA 11 2012   201211202012103000000000055230000134632000000000147290000000000000000000000000012658050000000000  3020121218   01          2                                                                                   3947901700000051051630010119                                                  N                     01321  0000000        000026
12009338857000190FERNANDO  NAGAO  CARDONE  ALVA                                        000000000330000000000000000000000000000089697936000000800000000ALTA 10 2012   201210202012092500000000054920000134632000000000159814000000000000000000000000025182050000000000  3020121218   01          2                                                                                   3947901700000051050080010129                                                  N                     01321  0000000        000027
12012006058000121WEG TINTAS LTDA                                                       0000000023702727800000000001309 00000000878206060090225400000800016517203     201211202012090600000000055230000459992000000000477156000000000000000000000000017164050000000000  3020121218   01          2  R JUNO  533                                                                      3                         000000000000000                                     N                     00598  0000000        000028
12012006058000121WEG TINTAS LTDA                                                       0000000023702727800000000001309 00000000882668430090225800000760016626903     201211272012091300000000055300000459992000000000472865000000000000000000000000012873050000000000  3020121218   01          2  R JUNO  533                                                                      3                         000000000000000                                     N                     00598  0000000        000029
12033325184001786ALSCO TOALHEIRO BRASIL                                                0000000023703396000000001490850 0000000094102610009000002841405VM28414        201301032012121400000000055670000030444000000000030444000000000000000000000000000000050000000000  3020130103   01FS        1  RUA  GANGES 528                                                                  3                         000000000000000                                     N                     00598  0000000        000030
12033325184001786ALSCO TOALHEIRO BRASIL                                                0000000023703396000000001490850 0000000094102611009000029976603VM00299766     201301052012120700000000055690000026347000000000026347000000000000000000000000000000050000000000  3020130107   01FS        1  RUA  GANGES 528                                                                  3                         000000000000000                                     N                     00598  0000000        000031
12042956441000101SOLUCOES ACO USIMINAS                                                 0000000034100000000000000000000000000000941025960000002683818430019483101     201301092012121200000000055730000242295000000000242295000000000000000000000000000000050000000000  3020130109   01FS        1                                                                                   3112683818432293807258000019                                                  N                     01321  0000000        000032
12042956441000101SOLUCOES ACO USIMINAS                                                 0000000034100000000000000000000000000000941026020000002683818440019483002     201302062012121200000000056010000926997000000000926997000000000000000000000000000000050000000000  3020130206   01FS        1                                                                                   3112683818440293807258000019                                                  N                     01321  0000000        000033
12042956441000101SOLUCOES ACO USIMINAS                                                 0000000034100000000000000000000000000000941026030000002683818450019483102     201302062012121200000000056010000242222000000000242222000000000000000000000000000000050000000000  3020130206   01FS        1                                                                                   3112683818457293807258000019                                                  N                     01321  0000000        000034
12042956441000101SOLUCOES ACO USIMINAS                                                 0000000034100000000000000000000000000000941026040000002683818460019483003     201303062012121200000000056290000926997000000000926997000000000000000000000000000000050000000000  3020130306   01FS        1                                                                                   3112683818465293807258000079                                                  N                     01321  0000000        000035
12042956441000101SOLUCOES ACO USIMINAS                                                 0000000034100000000000000000000000000000941026050000002683818470019483103     201303062012121200000000056290000242222000000000242222000000000000000000000000000000050000000000  3020130306   01FS        1                                                                                   3112683818473293807258000039                                                  N                     01321  0000000        000036
12042956441000101SOLUCOES ACO USIMINAS                                                 0000000034100000000000000000000000000000941026000000002683818420019483001     201301092012121200000000055730000927275000000000927275000000000000000000000000000000050000000000  3020130109   01FS        1                                                                                   3112683818424293807258000089                                                  N                     01321  0000000        000037
12042956441000101SOLUCOES ACO USIMINAS                                                 0000000034100000000000000000000000000000853154840000002246247030017196702     201209202012072500000000054620000234841000000000276671000000000000000000000000041830050000000000  3020121218   01          2                                                                                   3112246247038293807258000099                                                  N                     01321  0000000        000038
12042956441000101SOLUCOES ACO USIMINAS                                                 0000000034100000000000000000000000000000853154850000002246247040017197302     201209202012072500000000054620000970103000000001142763000000000000000000000000172660050000000000  3020121218   01          2                                                                                   3112246247046293807258000019                                                  N                     01321  0000000        000039
12042956441000101SOLUCOES ACO USIMINAS                                                 0000000034100000000000000000000000000000855028690000002254329380017212902     201209212012072600000000054630000140098000000000164738000000000000000000000000024640050000000000  3020121218   01          2                                                                                   3112254329389293807258000019                                                  N                     01321  0000000        000040
12042956441000101SOLUCOES ACO USIMINAS                                                 0000000034100000000000000000000000000000855028700000002254329390017213002     201209212012072600000000054630000140602000000000165330000000000000000000000000024728050000000000  3020121218   01          2                                                                                   3112254329397293807258000089                                                  N                     01321  0000000        000041
12042956441000101SOLUCOES ACO USIMINAS                                                 0000000034100000000000000000000000000000855028770000002254329400017220502     201209212012072700000000054630000981022000000001153678000000000000000000000000172656050000000000  3020121218   01          2                                                                                   3112254329405293807258000099                                                  N                     01321  0000000        000042
12042956441000101SOLUCOES ACO USIMINAS                                                 0000000034100000000000000000000000000000856906410000002262886280017266201     201208282012073000000000054390000119472000000000146240000000000000000000000000026768050000000000  3020121218   01          2                                                                                   3112262886289293807258000089                                                  N                     01321  0000000        000043
12042956441000101SOLUCOES ACO USIMINAS                                                 0000000034100000000000000000000000000000856906420000002262886290017266301     201208282012073000000000054390000145069000000000177549000000000000000000000000032480050000000000  3020121218   01          2                                                                                   3112262886297293807258000099                                                  N                     01321  0000000        000044
12042956441000101SOLUCOES ACO USIMINAS                                                 0000000034100000000000000000000000000000859590620000002274469790017353702     201209282012080300000000054700000081053000000000094175000000000000000000000000013122050000000000  3020121218   01          2                                                                                   3112274469793293807258000069                                                  N                     01321  0000000        000045
12042956441000101SOLUCOES ACO USIMINAS                                                 0000000034100000000000000000000000000000846595700000002210880280016980502     201209102012071200000000054520000156071000000000186959000000000000000000000000030888050000000000  3020121218   01          2                                                                                   3112210880285293807258000039                                                  N                     01321  0000000        000046
12042956441000101SOLUCOES ACO USIMINAS                                                 0000000034100000000000000000000000000000846595710000002210880290016980602     201209102012071200000000054520000426094000000000510442000000000000000000000000084348050000000000  3020121218   01          2                                                                                   3112210880293293807258000019                                                  N                     01321  0000000        000047
12042956441000101SOLUCOES ACO USIMINAS                                                 0000000034100000000000000000000000000000847452070000002216130350005922202     201209102012071600000000054520000172071000000000206127000000000000000000000000034056050000000000  3020121218   01          2                                                                                   3112216130354293807258000049                                                  N                     01321  0000000        000048
12042956441000101SOLUCOES ACO USIMINAS                                                 0000000034100000000000000000000000000000847452100000002216130340017012402     201209102012071500000000054520000147428000000000176633000000000000000000000000029205050000000000  3020121218   01          2                                                                                   3112216130347293807258000059                                                  N                     01321  0000000        000049
12042956441000101SOLUCOES ACO USIMINAS                                                 0000000034100000000000000000000000000000848180700000002220192900017041002     201209112012071700000000054530000155433000000000185911000000000000000000000000030478050000000000  3020121218   01          2                                                                                   3112220192903293807258000029                                                  N                     01321  0000000        000050
12042956441000101SOLUCOES ACO USIMINAS                                                 0000000034100000000000000000000000000000848180710000002220192910017041202     201209112012071700000000054530000205421000000000245699000000000000000000000000040278050000000000  3020121218   01          2                                                                                   3112220192911293807258000019                                                  N                     01321  0000000        000051
12042956441000101SOLUCOES ACO USIMINAS                                                 0000000034100000000000000000000000000000850740460000002233586800017127201     201208202012072000000000054310000137881000000000171001000000000000000000000000033120050000000000  3020121218   01          2                                                                                   3112233586802293807258000019                                                  N                     01321  0000000        000052
12042956441000101SOLUCOES ACO USIMINAS                                                 0000000034100000000000000000000000000000850740470000002233586810017101002     201209142012071900000000054560000732575000000000871750000000000000000000000000139175050000000000  3020121218   01          2                                                                                   3112233586810293807258000019                                                  N                     01321  0000000        000053
12042956441000101SOLUCOES ACO USIMINAS                                                 0000000034100000000000000000000000000000850740480000002233586820017101202     201209142012071900000000054560000144634000000000172089000000000000000000000000027455050000000000  3020121218   01          2                                                                                   3112233586828293807258000029                                                  N                     01321  0000000        000054
12047190731000100DE CASTRO LOUR ENG IND LTDA                                           00000000341000000000000000000000000000008782050900000023399953503026612 0     201209182012082100000000054600001111489000000001310415000000000000000000000000198926050000000000  3020121218   01          2                                                                                   3112339995352036884500400019                                                  N                     01321  0000000        000055
12047190731000100DE CASTRO LOUR ENG IND LTDA                                           00000000341000000000000000000000000000008782052700000023399956203026648 0     201209202012082300000000054620000976053000000001146933000000000000000000000000170880050000000000  3020121218   01          2                                                                                   3112339995626036884500400029                                                  N                     01321  0000000        000056
12047190731000100DE CASTRO LOUR ENG IND LTDA                                           00000000341000000000000000000000000000008782052800000023399956303026648 0     201211222012082300000000055250000976053000000001025973000000000000000000000000049920050000000000  3020121218   01          2                                                                                   3112339995634036884500400019                                                  N                     01321  0000000        000057
12047190731000100DE CASTRO LOUR ENG IND LTDA                                           00000000341000000000000000000000000000008782059400000023602715303026745 0     201211282012082900000000055310000903175000000000938695000000000000000000000000035520050000000000  3020121218   01          2                                                                                   3112360271533036884500400039                                                  N                     01321  0000000        000058
12047190731000100DE CASTRO LOUR ENG IND LTDA                                           00000000341000000000000000000000000000008782059500000023602714703026734 0     201211272012082800000000055300000997834000000001039036000000000000000000000000041202050000000000  3020121218   01          2                                                                                   3112360271475036884500400019                                                  N                     01321  0000000        000059
12047190731000100DE CASTRO LOUR ENG IND LTDA                                           00000000341000000000000000000000000000008782059900000023602715003026744 0     201211292012082900000000055320000146594000000000152066000000000000000000000000005472050000000000  3020121218   01          2                                                                                   3112360271509036884500400069                                                  N                     01321  0000000        000060
12047190731000100DE CASTRO LOUR ENG IND LTDA                                           00000000341000000000000000000000000000008782051200000023399953803026613 0     201209182012082100000000054600001107989000000001306278000000000000000000000000198289050000000000  3020121218   01          2                                                                                   3112339995386036884500400039                                                  N                     01321  0000000        000061
12047190731000100DE CASTRO LOUR ENG IND LTDA                                           00000000341000000000000000000000000000008782051600000023399954103026614 0     201209182012082100000000054600001047621000000001235081000000000000000000000000187460050000000000  3020121218   01          2                                                                                   3112339995410036884500400039                                                  N                     01321  0000000        000062
12047190731000100DE CASTRO LOUR ENG IND LTDA                                           00000000341000000000000000000000000000008782051700000023399954203026614 0     201211202012082100000000055230001047621000000001105301000000000000000000000000057680050000000000  3020121218   01          2                                                                                   3112339995428036884500400079                                                  N                     01321  0000000        000063
12047190731000100DE CASTRO LOUR ENG IND LTDA                                           00000000341000000000000000000000000000008782051800000023399955703026636 0     201211212012082200000000055240000940804000000000990754000000000000000000000000049950050000000000  3020121218   01          2                                                                                   3112339995576036884500400019                                                  N                     01321  0000000        000064
12047190731000100DE CASTRO LOUR ENG IND LTDA                                           00000000341000000000000000000000000000008782052000000023399955303026632 0     201209192012082200000000054610000952073000000001120553000000000000000000000000168480050000000000  3020121218   01          2                                                                                   3112339995535036884500400019                                                  N                     01321  0000000        000065
12047190731000100DE CASTRO LOUR ENG IND LTDA                                           00000000341000000000000000000000000000008782052100000023399955903026643 0     201209202012082300000000054620000867039000000001018784000000000000000000000000151745050000000000  3020121218   01          2                                                                                   3112339995592036884500400049                                                  N                     01321  0000000        000066
12047190731000100DE CASTRO LOUR ENG IND LTDA                                           00000000341000000000000000000000000000008782052400000023399956003026643 0     201211222012082300000000055250000867039000000000911369000000000000000000000000044330050000000000  3020121218   01          2                                                                                   3112339995600036884500400069                                                  N                     01321  0000000        000067
12047190731000100DE CASTRO LOUR ENG IND LTDA                                           00000000341000000000000000000000000000008782052500000023399955603026636 0     201209192012082200000000054610000940804000000001107304000000000000000000000000166500050000000000  3020121218   01          2                                                                                   3112339995568036884500400049                                                  N                     01321  0000000        000068
12047190731000100DE CASTRO LOUREIRO ENGENHARIA                                         00000000033000000000000000000000000000009265465700000028000000003027572 0     201212172012111400000000055500000255934000000000261053000000000000000000000000005119050000000000  3020121218   01          2                                                                                   3948430370000009556028020399                                                  N                     01321  0000000        000069
12047190731000100DE CASTRO LOUR ENG IND LTDA                                           00000000341000000000000000000000000000009041732300000025008465203027256 0     201212112012101600000000055440001108602000000001123862000000000000000000000000015260050000000000  3020121218   01          2                                                                                   3112500846525036884500400019                                                  N                     01321  0000000        000070
12047190731000100DE CASTRO LOUR ENG IND LTDA                                           00000000341000000000000000000000000000009041732500000025008465503027257 0     201212132012101600000000055460000751900000000000759295000000000000000000000000007395050000000000  3020121218   01          2                                                                                   3112500846558036884500400029                                                  N                     01321  0000000        000071
12047190731000100DE CASTRO LOUR ENG IND LTDA                                           00000000341000000000000000000000000000009041732900000025008464603027216 0     201212052012101000000000055380000225377000000000231136000000000000000000000000005759050000000000  3020121218   01          2                                                                                   3112500846467036884500400029                                                  N                     01321  0000000        000072
12047190731000100DE CASTRO LOUR ENG IND LTDA                                           00000000341000000000000000000000000000009041733100000025008464903027234 0     201212062012101100000000055390001029597000000001053897000000000000000000000000024300050000000000  3020121218   01          2                                                                                   3112500846491036884500400029                                                  N                     01321  0000000        000073
12047190731000100DE CASTRO LOUR ENG IND LTDA                                           00000000341000000000000000000000000000008996247900000024766209203027184 0     201211302012100500000000055330001153047000000001193871000000000000000000000000040824050000000000  3020121218   01          2                                                                                   3112476620920036884500400089                                                  N                     01321  0000000        000074
12047190731000100DE CASTRO LOUREIRO ENGENHARIA                                         0000000023703394400000000205508 000000008801225500202255000001403026794 0     201211262012090300000000055290001209490000000001253842000000000000000000000000044352050000000000  3020121218   01          2  RUA JUNO  533                                                                    3                         000000000000000                                     N                     00598  0000000        000075
12048218317000125RODOENG TRANSPORTES RODOVIARIO                                        00000000001000000000000000000000000000009193218600000050348900013599          201212102012111200000000055430000275000000000000275000000000000000000000000000000000050000000000  3020121210   05          3                                                                                   3160305034891494000094531749                                                  N                     01321  0000000        000076
12048775225000146SEIKI IND COM E CONFECCOES LTD                                        000000003410000000000000000000000000000089337376000000244697151014914001      201210232012092500000000054950000052000000000000056368000000000000000000000000004368050000000000  3020121218   01          2                                                                                   3112446971510017444824100089                                                  N                     01321  0000000        000077
12051180370000199IGUAFER FERRO E ACO LTDA                                              0000000034100000000000000000000000000000852309100000002239389789443 B         201209022012071800000000054440000168275000000000198235000000000000000000000000029960050000000000  3020121218   01          2                                                                                   3112239389789077149484600089                                                  N                     01321  0000000        000078
12051180370000199IGUAFER FERRO E ACO LTDA                                              0000000034100000000000000000000000000000852309110000002239389799443 C         201209122012071800000000054540000168275000000000195435000000000000000000000000027160050000000000  3020121218   01          2                                                                                   3112239389797077149484600089                                                  N                     01321  0000000        000079
12054382510000108SETENTA IND E COM DE MADEIRAS                                         0000000034100000000000000000000000000000860403430000002277814474462 A         201209042012080700000000054460000191200000000000230680000000000000000000000000039480050000000000  3020121218   01          2                                                                                   3112277814474057049175300069                                                  N                     01321  0000000        000080
12056993512000150CYKLOP DO BRASIL EMBALAGENS SA                                        0000000034100000000000000000000000000000874070500000002362586810134932        201210012012090300000000054730000083607000000000107553000000000000000000000000023946050000000000  3020121218   01          2                                                                                   3112362586813025700015800019                                                  N                     01321  0000000        000081
12059588111000103BANCO VOTORANTIM S A                                                  000000000010000000000000000000000000000094102593000000603409000144542 1       201301072012121400000000055710000140673000000000140673000000000000000000000000000000050000000000  3020130107   01FS        1                                                                                   3000000145167244326034091189                                                  N                     01321  0000000        000082
12059588111000103BANCO VOTORANTIM S A                                                  000000000010000000000000000000000000000094102594000000603410000144542 2       201302042012121400000000055990000140673000000000140673000000000000000000000000000000050000000000  3020130204   01FS        1                                                                                   3000000145167244326034101199                                                  N                     01321  0000000        000083
12059588111000103BANCO VOTORANTIM S A                                                  000000000010000000000000000000000000000094102595000000603412000144542 3       201303042012121400000000056270000140715000000000140715000000000000000000000000000000050000000000  3020130304   01FS        1                                                                                   3000000145167244326034121149                                                  N                     01321  0000000        000084
12062510367000102ITANHAEM TRANSP DE MAQUINAS LT                                        000000003410000000000000000000000000000087407049000000236463199667            201209202012090400000000054620000248220000000000336597000000000000000000000000088377050000000000  3020121218   01          2                                                                                   3112364631997005770252400049                                                  N                     01321  0000000        000085
12062539994000176LEALFER INDUSTRIA E COMERCIO D                                        0000000003300000000000000000000000000000919321960000000000000000005796701     201212052012110600000000055380000298074000000000300607000000000000000000000000003039050000000000  3020121210   05          3                                                                                   3915298380000000288900010479                                                  N                     01321  0000000        000086
12062539994000176LEALFER INDUSTRIA E COMERCIO D                                        0000000003300000000000000000000000000000919321970000003400000000005797001     201212052012110600000000055380000591708000000000596737000000000000000000000000006034050000000000  3020121210   05          3                                                                                   3915298380000000288934010459                                                  N                     01321  0000000        000087
12064952757000168WALMAC COM DE PROD QUIMICOS LT                                        0000000034100000000000000000000000000000860403450000002275821700020148        201210052012080300000000054770000219267000000000251161000000000000000000000000031894050000000000  3020121218   01          2                                                                                   3112275821703064807961400029                                                  N                     01321  0000000        000088
12064952757000168WALMAC COM DE PROD QUIMICOS LT                                        0000000034100000000000000000000000000000896979510000002462157570021611        201211292012100400000000055320000219267000000000227456000000000000000000000000008189050000000000  3020121218   01          2                                                                                   3112462157572064807961400059                                                  N                     01321  0000000        000089
12066841552000130R V SEG PATRIMONIAL LTDA                                              00000000341000000000000000000000000000008852483200000090002192721927          201209102012081000000000054520000483241000000000499180000000000000000000000000015939050000000000  3020121218   01          2                                                                                   3109000219270001835253400099                                                  N                     01321  0000000        000090
12066841552000130R V SEG PATRIMONIAL S C LTDA                                          00000000341000000000000000000000000000008887329800000090002213622136          201210102012091100000000054820000374758000000000383383000000000000000000000000008625050000000000  3020121218   01          2                                                                                   3109000221365001838994000069                                                  N                     01321  0000000        000091
12066841552000130R V SEG PATRIMONIAL LTDA                                              00000000341000000000000000000000000000009410260600000090002279822798          201301102012120700000000055740000394482000000000394482000000000000000000000000000000050000000000  3020130110   01FS        1                                                                                   3109000227984001835253400029                                                  N                     01321  0000000        000092
12069284248000128ISOCOAT TINTAS E VERNIZES LTDA                                        0000000034100000000000000000000000000000895189810000002456588210056254        201212172012100200000000055500000318064000000000318912000000000000000000000000000848050000000000  3020121218   01          2                                                                                   3112456588212077430121200019                                                  N                     01321  0000000        000093
12069284248000128ISOCOAT TINTAS E VERNIZES LTDA                                        0000000034100000000000000000000000000000915734010000002553088030057592        201212172012110100000000055500000107324000000000107610000000000000000000000000000286050000000000  3020121218   01          2                                                                                   3112553088033077430121200089                                                  N                     01321  0000000        000094
12069284248000128ISOCOAT TINTAS E VERNIZES LTDA                                        0000000034100000000000000000000000000000915734060000002553088160057607        201212172012110100000000055500000326908000000000327780000000000000000000000000000872050000000000  3020121218   01          2                                                                                   3112553088165077430121200029                                                  N                     01321  0000000        000095
12069284248000128ISOCOAT TINTAS E VERNIZES LTDA                                        0000000034100000000000000000000000000000841061040000002182507930052085        201209172012070200000000054590000236130000000000294090000000000000000000000000057960050000000000  3020121218   01          2                                                                                   3112182507932077430121200019                                                  N                     01321  0000000        000096
12071580302000124SANCHEPEL IND PAULISTA EMB L                                          0000000034100000000000000000000000000000941025970000002682588368366 01        201301102012121400000000055740000033738000000000033738000000000000000000000000000000050000000000  3020130110   01FS        1                                                                                   3112682588366007855578600039                                                  N                     01321  0000000        000097
12071580302000124SANCHEPEL IND PAULISTA EMB L                                          0000000034100000000000000000000000000000941025980000002682588378366 02        201301172012121400000000055810000033738000000000033738000000000000000000000000000000050000000000  3020130117   01FS        1                                                                                   3112682588374007855578600079                                                  N                     01321  0000000        000098
12071580302000124SANCHEPEL IND PAULISTA EMB L                                          0000000034100000000000000000000000000000941025990000002682588388366 03        201301242012121400000000055880000033747000000000033747000000000000000000000000000000050000000000  3020130124   01FS        1                                                                                   3112682588382007855578600019                                                  N                     01321  0000000        000099
12071580302000124SANCHEPEL IND PAULISTA EMB L                                          0000000034100000000000000000000000000000941026010000002682557788357           201301112012121300000000055750000103500000000000103500000000000000000000000000000000050000000000  3020130111   01FS        1                                                                                   3112682557783007855578600049                                                  N                     01321  0000000        000100
900010100000000048943021                                                                                                                                                                                                                                                                                                                                                                                                                                                                01321  0000000        000101
