0000147602043799295000110ALTAMIRA INDUSTRIA METALURGICA LT       202000000014920121018055452             1                                                                                                                                                                                                                                                                                                                                                                                                    000001
12000846804000106BRIDA LUBRIF LTDA                                                     000000003410000000000000000000000000000088524831000000900409916002347751      201210112012091300000000054830000059225000000000060471000000000000000000000000001246050000000000  3020121018   01          2                                                                                   3109004099167293816860200019                                                  N                     01321  0000000        000002
12001895314000162COLETA INDUSTRIAL FIMAVAN LTDA                                        0000000034100000000000000000000000000000866992070000009002335349439           201208272012081700000000054380000123695000000000143277000000000000000000000000019582050000000000  3020121018   01          2                                                                                   3109002335346144604097200019                                                  N                     01321  0000000        000003
12002460454000170AUT SERVICE COMERCIO E SERVICO                                        0000000023702591700000000007692 000000008515292000901322060028234532 2        201209172012072400000000054590000238750000000000265027000000000000000000000000026755050000000000  3020121017   06          3  RUA JUNO  533                                                                    3                         000000000000000                                     N                     00598  0000000        000004
12002503185000182ANDAIMES E MAQUINAS BIG LTDA                                          000000003410000000000000000000000000000087820531000000233954448011791         201209212012082700000000054630000026000000000000026979000000000000000000000000000979050000000000  3020121018   01          2                                                                                   3112339544481925303435000019                                                  N                     01321  0000000        000005
12002503185000182ANDAIMES MAQUINAS BIG LTDA EPP                                        0000000034100000000000000000000000000000874070480000002313590765101           201209142012082000000000054560000016500000000000017204000000000000000000000000000704050000000000  3020121018   01          2                                                                                   3112313590765650303800900019                                                  N                     01321  0000000        000006
12002503185000182ANDAIMES MAQUINAS BIG LTDA EPP                                        000000003410000000000000000000000000000086282613000000228719913011660         201208302012081000000000054410000012000000000000012632000000000000000000000000000632050000000000  3020121018   01          2                                                                                   3112287199130650303800900039                                                  N                     01321  0000000        000007
12002583013000166ITAN TRANSP DE CARGAS EXC E IN                                        000000003410000000000000000000000000000088769805000000241619340008 D          201210142012091800000000054860000105350000000000107034000000000000000000000000001684050000000000  3020121018   01          2                                                                                   3112416193400005770252400019                                                  N                     01321  0000000        000008
12002583013000166ITAN TRANSP DE CARGAS EXC E IN                                        000000003410000000000000000000000000000088350835000000239377421008 A          201210142012091400000000054860000192500000000000195580000000000000000000000000003080050000000000  3020121018   01          2                                                                                   3112393774214005770252400019                                                  N                     01321  0000000        000009
12003102481000134AB5 IND E COMERCIO LTDA EPP                                           0000000034100000000000000000000000000000902449870000009000042293134           201211122012101300000000055150000147870000000000147870000000000000000000000000000000050000000000  3020121112   01FS        1                                                                                   3109000042299003154755700069                                                  N                     01321  0000000        000010
12003134879000152LATORRE TRANSPORTES E LOGISTIC                                        00000000001000000000000000000000000000009024497800000044250200015470          201211092012101600000000055120000037183000000000037183000000000000000000000000000000050000000000  3020121109   01FS        1                                                                                   3000000174615837404425021779                                                  N                     01321  0000000        000011
12003163055000100JN FOMENTO MERCANTIL LTDA                                             000000004220000000000000000000000000000088191353000000000000000509 12         201210092012091200000000054810000015000000000000015210000000000000000000000000000240050000000000  3020121016   05          3                                                                                   3700400001182791920957609119                                                  N                     01321  0000000        000012
12003372804000100TROPICAL CLEAN COMERCIAL LTDA                                         00000000033000000000000000000000000000008996249300000059000000056986          201210142012091800000000054860000048259000000000048742000000000000000000000000000644050000000000  3020121017   06          3                                                                                   3913215100000006396259020199                                                  N                     01321  0000000        000013
12003489596000123BEND FLEX I COMERCIO LTDA                                             000000003410000000000000000000000000000089518988000000173425770617            201210012012083000000000054730000722200000000000746340000000000000000000000000024140050000000000  3020121018   01          2                                                                                   3191734257709157734445800079                                                  N                     01321  0000000        000014
12003489596000123BEND FLEX I COMERCIO LTDA                                             000000003410000000000000000000000000000088350832000000171879874608            201209122012082100000000054540000695250000000000744462000000000000000000000000049212050000000000  3020121018   01          2                                                                                   3191718798744157734445800069                                                  N                     01321  0000000        000015
12003489596000123BEND FLEX I COMERCIO LTDA                                             000000003410000000000000000000000000000088599899000000171434574613            201209172012081600000000054590000585000000000000620681000000000000000000000000035681050000000000  3020121018   01          2                                                                                   3191714345748157734445800019                                                  N                     01321  0000000        000016
12004676708000118M H F SISTEMAS S C LTDA                                               0000000034100000000000000000000000000000902449850000002489937710099049460     201211052012101600000000055080000014500000000000014500000000000000000000000000000000050000000000  3020121105   01FS        1                                                                                   3112489937717013924573200089                                                  N                     01321  0000000        000017
12005151518000140BELENUS DO BRASIL LTDA                                                000000000010000000000000000000000000000087407068000000776239000R129785122     201210142012082100000000054860000099000000000000099000000000000000000000000000000000050000000000  3020121015   06          3                                                                                   3000000123933843997762393119                                                  N                     01321  0000000        000018
12005335228000156DINAMICA INF E TELECOM LTDA EP                                        0000000023703257300000000503215 0000000090244992009032570017602MO009089A      201210302012101600000000055020000020000000000000020000000000000000000000000000000000050000000000  3020121030   01FS        1  RUA JUNO  533                                                                    3                         000000000000000                                     N                     00598  0000000        000019
12005880850000145NEDERMAN BRASIL COM PROD EX LT                                        000000003410000000000000000000000000000086373178000000614350956002763 A       201209252012081400000000054670000289674000000000302784000000000000000000000000013110050000000000  3020121018   01          2                                                                                   3156143509568160829000100049                                                  N                     01321  0000000        000020
12005880850000145NEDERMAN BRASIL COM PROD EX LT                                        000000003410000000000000000000000000000086373179000000614350957002763 B       201210162012081400000000054880000289674000000000289674000000000000000000000000000570050000000000  3020121016   06          3                                                                                   3156143509576160829000100049                                                  N                     01321  0000000        000021
12006000195000156MBA MERCANTIL BRAS DE ACO LTDA                                        0000000034100000000000000000000000000000884432470000002398047550009473B01     201210032012090500000000054750000503132000000000503132000000000000000000000000000000050000000000  3020121003   05          3                                                                                   3112398047558064899001800019                                                  N                     01321  0000000        000022
12006000195000156MBA MERCANTIL BRAS DE ACO LTDA                                        0000000034100000000000000000000000000000884432500000002398047580009475B01     201210032012090500000000054750000124131000000000124131000000000000000000000000000000050000000000  3020121003   05          3                                                                                   3112398047582064899001800019                                                  N                     01321  0000000        000023
12006000195000156MBA MERCANTIL BRAS DE ACO LTDA                                        0000000034100000000000000000000000000000884432730000002398047520009460B01     201210032012090500000000054750000130438000000000130438000000000000000000000000000000050000000000  3020121003   05          3                                                                                   3112398047525064899001800089                                                  N                     01321  0000000        000024
12006000195000156M B A MERCANTIL BRASILEIRA DE                                         0000000023700118P00000002130599 00000000853155060020220900000660008985B03     201210172012072500000000054890000141846000000000142082000000000000000000000000000236050000000000  3020121018   01          2  RUA JUNO  533                                                                    3                         000000000000000                                     N                     00598  0000000        000025
12006000195000156M B A MERCANTIL BRASILEIRA DE                                         0000000023700118P00000002130599 00000000865388290020222900000500009205B02     201210122012081500000000054840000348964000000000352456000000000000000000000000003492050000000000  3020121018   01          2  RUA JUNO  533                                                                    3                         000000000000000                                     N                     00598  0000000        000026
12006000195000156M B A MERCANTIL BRASILEIRA DE                                         0000000023700118P00000002130599 00000000865388320020222900000530009206B02     201210132012081500000000054850000527560000000000531955000000000000000000000000004395050000000000  3020121018   01          2  RUA JUNO  533                                                                    3                         000000000000000                                     N                     00598  0000000        000027
12006000195000156M B A MERCANTIL BRASILEIRA DE                                         0000000023700118P00000002130599 00000000853155090020220900000690008986B03     201210172012072500000000054890000126718000000000126929000000000000000000000000000211050000000000  3020121018   01          2  RUA JUNO  533                                                                    3                         000000000000000                                     N                     00598  0000000        000028
12006000195000156M B A MERCANTIL BRASILEIRA DE                                         0000000023700118P00000002130599 00000000853155030020220900000530008971B03     201210162012072400000000054880000170465000000000171033000000000000000000000000000568050000000000  3020121018   01          2  RUA JUNO  533                                                                    3                         000000000000000                                     N                     00598  0000000        000029
12006000195000156MBA MERCANTIL BRAS DE ACO LTDA                                        0000000034100000000000000000000000000000887698080000001667238400008876B02     201209142012071600000000054560000810321000000000864517000000000000000000000000054196050000000000  3020121018   01          2                                                                                   3191667238403064849251000059                                                  N                     01321  0000000        000030
12006000195000156MBA MERCANTIL BRAS DE ACO LTDA                                        0000000034100000000000000000000000000000887698090000001671394550008925B02     201209142012071700000000054560000719581000000000767691000000000000000000000000048110050000000000  3020121018   01          2                                                                                   3191671394556064849251000089                                                  N                     01321  0000000        000031
12006000195000156MBA MERCANTIL BRAS DE ACO LTDA                                        0000000034100000000000000000000000000000887698100000001671394560008926B02     201209142012071700000000054560000387716000000000413658000000000000000000000000025942050000000000  3020121018   01          2                                                                                   3191671394564064849251000019                                                  N                     01321  0000000        000032
12006000195000156MBA MERCANTIL BRAS DE ACO LTDA                                        0000000034100000000000000000000000000000886866570000001667238410008874B02     201209132012071600000000054550000802826000000000858091000000000000000000000000055265050000000000  3020121018   01          2                                                                                   3191667238411064849251000049                                                  N                     01321  0000000        000033
12006000195000156MBA MERCANTIL BRAS DE ACO LTDA                                        0000000034100000000000000000000000000000889578520000001671394540008920B02     201209162012071700000000054580000576585000000000612873000000000000000000000000036288050000000000  3020121018   01          2                                                                                   3191671394549064849251000099                                                  N                     01321  0000000        000034
12006000195000156MBA MERCANTIL BRAS DE ACO LTDA                                        0000000034100000000000000000000000000000885998980000001667238420008870B02     201209112012071600000000054530000839952000000000901076000000000000000000000000061124050000000000  3020121018   01          2                                                                                   3191667238429064849251000039                                                  N                     01321  0000000        000035
12006867297000173MARCOS ANTONIO RIBEIRO ACOS                                           0000000034100000000000000000000000000000881913470000002386992240000433        201210082012091200000000054800000042270000000000043670000000000000000000000000001400050000000000  3020121018   01          2                                                                                   3112386992245046769908800059                                                  N                     01321  0000000        000036
12007175725000160WEG EQUIPAMENTOS ELETRICOS SA                                         0000000023702727800000000196800 00000000832180610090217400004980095359902     201209202012052300000000054620000272787000000000282951000000000000000000000000010164050000000000  3020121018   01          2  R JUNO  533                                                                      3                         000000000000000                                     N                     00598  0000000        000037
12007565346000186ALFLEX PLASTICOS E FERRAGENS L                                        0000000023701416800000000407607 0000000088769811009013226800205S000000195     201210152012092400000000054870000187500000000000193125000000000000000000000000005625050000000000  3020121018   01          2  RUA TAMAINDE  1410                                                               3                         000000000000000                                     N                     00598  0000000        000038
12009007898000102ARTERINOX COMERCIO T M L EPP                                          0000000034100000000000000000000000000000902449860000002490040604000           201211142012100900000000055170000075317000000000075317000000000000000000000000000000050000000000  3020121114   01FS        1                                                                                   3112490040600641221612600019                                                  N                     01321  0000000        000039
12009419898000101LUSITANO INDUSTRIA C E P LTDA                                         00000000341000000000000000000000000000008653882000000090000757101 10137 2     201209192012081500000000054610000035135000000000038528000000000000000000000000003393050000000000  3020121018   01          2                                                                                   3109000075716001160072300049                                                  N                     01321  0000000        000040
12011202309000180FIEL TOOLS DISTRIBUIDORA DE MA                                        0000000023702087700000000000116 0000000089962492009000020194031009403 1       201210042012090600000000054760000041000000000000043337000000000000000000000000002337050000000000  3020121018   01          2  R TAMAINDE  1 410   RUA GANGES  520 E 52                                         3                         000000000000000                                     N                     00598  0000000        000041
12011202309000180FIEL TOOLS DISTRIBUIDORA DE MA                                        0000000023702087700000000000116 0000000087577362009000020194032009403 2       201210112012090600000000054830000041000000000000041000000000000000000000000000000000050000000000  3020121011   06          3  R TAMAINDE  1 410   RUA GANGES  520 E 52                                         3                         000000000000000                                     N                     00598  0000000        000042
12012006058000121WEG TINTAS LTDA                                                       0000000023702727800000000001309 00000000842436840090219200000860015068803     201209222012070900000000054640000306662000000000317270000000000000000000000000010608050000000000  3020121018   01          2  R JUNO  533                                                                      3                         000000000000000                                     N                     00598  0000000        000043
12012006058000121WEG TINTAS LTDA                                                       0000000023702727800000000001309 00000000854049550090221200001010015513002     201209252012072700000000054670000459854000000000473953000000000000000000000000014099050000000000  3020121018   01          2  R JUNO  533                                                                      3                         000000000000000                                     N                     00598  0000000        000044
12012006058000121WEG TINTAS LTDA                                                       0000000023702727800000000001309 00000000854049560090221200001020015513003     201210102012072700000000054820000459992000000000464896000000000000000000000000004904050000000000  3020121018   01          2  R JUNO  533                                                                      3                         000000000000000                                     N                     00598  0000000        000045
12012006058000121WEG TINTAS LTDA                                                       0000000023702727800000000001309 00000000856071260090221400000830015587302     201209292012073100000000054710000459854000000000471501000000000000000000000000011647050000000000  3020121018   01          2  R JUNO  533                                                                      3                         000000000000000                                     N                     00598  0000000        000046
12012006058000121WEG TINTAS LTDA                                                       0000000023702727800000000001309 00000000856071270090221400000840015587303     201210142012073100000000054860000459992000000000462444000000000000000000000000002452050000000000  3020121018   01          2  R JUNO  533                                                                      3                         000000000000000                                     N                     00598  0000000        000047
12012006058000121WEG TINTAS LTDA                                                       0000000023702727800000000001309 00000000861207260090222200000900015775001     201209222012080800000000054640000306569000000000317177000000000000000000000000010608050000000000  3020121018   01          2  R JUNO  533                                                                      3                         000000000000000                                     N                     00598  0000000        000048
12012006058000121WEG TINTAS LTDA                                                       0000000023702727800000000001309 00000000861207270090222200000910015775002     201210072012080800000000054790000306569000000000311057000000000000000000000000004488050000000000  3020121018   01          2  R JUNO  533                                                                      3                         000000000000000                                     N                     00598  0000000        000049
12012006058000121WEG TINTAS LTDA                                                       0000000023702727800000000001309 00000000864554440090222800000730015908401     201209282012081400000000054700000306569000000000314729000000000000000000000000008160050000000000  3020121018   01          2  R JUNO  533                                                                      3                         000000000000000                                     N                     00598  0000000        000050
12012006058000121WEG TINTAS LTDA                                                       0000000023702727800000000001309 00000000864554450090222800000740015908402     201210132012081400000000054850000306569000000000308609000000000000000000000000002040050000000000  3020121018   01          2  R JUNO  533                                                                      3                         000000000000000                                     N                     00598  0000000        000051
12012006058000121WEG TINTAS LTDA                                                       0000000023702727800000000001309 00000000844839240090219500000730015168703     201209252012071200000000054670000306662000000000316046000000000000000000000000009384050000000000  3020121018   01          2  R JUNO  533                                                                      3                         000000000000000                                     N                     00598  0000000        000052
12012006058000121WEG TINTAS LTDA                                                       0000000023702727800000000001309 00000000847452160090220000000930015248103     201209302012071700000000054720000306662000000000314006000000000000000000000000007344050000000000  3020121018   01          2  R JUNO  533                                                                      3                         000000000000000                                     N                     00598  0000000        000053
12012006058000121WEG TINTAS LTDA                                                       0000000023702727800000000001309 00000000849855340090220500001220015343103     201210032012072000000000054750000306662000000000312782000000000000000000000000006120050000000000  3020121018   01          2  R JUNO  533                                                                      3                         000000000000000                                     N                     00598  0000000        000054
12012006058000121WEG TINTAS LTDA                                                       0000000023702727800000000001309 00000000868126340090223500001170016086601     201210052012082100000000054770000306569000000000311873000000000000000000000000005304050000000000  3020121018   01          2  R JUNO  533                                                                      3                         000000000000000                                     N                     00598  0000000        000055
12012006058000121WEG TINTAS LTDA                                                       0000000023702727800000000001309 00000000870177480090224100000970016248001     201210112012082700000000054830000306569000000000309425000000000000000000000000002856050000000000  3020121018   01          2  R JUNO  533                                                                      3                         000000000000000                                     N                     00598  0000000        000056
12012006058000121WEG TINTAS LTDA                                                       0000000023702727800000000001309 00000000872318650090224700001030016359601     201210152012083100000000054870000459854000000000461693000000000000000000000000001839050000000000  3020121018   01          2  R JUNO  533                                                                      3                         000000000000000                                     N                     00598  0000000        000057
12014775592000128HELIO ADRIANO DA SILVA ME                                             0000000023700593200000002432943 00000000894344270090227700000128727           201210112012092500000000054830000019500000000000019500000000000000000000000000000000050000000000  3020121011   06          3  AV TAMAINDE 1410                                                                 300000000000000000001500  000000000000000                                     N                     00598  0000000        000058
12014775592000128HELIO ADRIANO DA SILVA ME                                             0000000003300000000000000000000000000000887698150000005800000008682           201210102012092100000000054820000040000000000000041013000000000000000000000000001013050000000000  3020121018   01          2                                                                                   3956114740000000000058010159                                                  N                     01321  0000000        000059
12014775592000128HELIO ADRIANO DA SILVA ME                                             0000000003300000000000000000000000000000880122770000004900000008565 8566      201209282012091000000000054700000034500000000000035649000000000000000000000000001149050000000000  3020121018   01          2                                                                                   3956114740000000000049010129                                                  N                     01321  0000000        000060
12015251825000156JOSEFA A LIMA DOS SANTOS EPP                                          000000003410000000000000000000000000000088191339000000795424054841            201210112012091300000000054830000021500000000000022750000000000000000000000000001250050000000000  3020121018   01          2                                                                                   3157954240547810513909400039                                                  N                     01321  0000000        000061
12016802308000190TRANSMARRECO LTDA                                                     000000000330000000000000000000000000000088769814000000640000000353 12         201210052012092100000000054770000106581000000000112873000000000000000000000000006292050000000000  3020121018   01          2                                                                                   3907636240000000643564010119                                                  N                     01321  0000000        000062
12035820448000136WHITE MARTINS GASES INDUSTRIAI                                        0000000023700026400000003937925 0000000090244991009022910001594394355 001     201211132012101700000000055160000121725000000000121725000000000000000000000000000000050000000000  3020121113   01FS        1  RUA GANGES  528                                                                  3                         000000000000000                                     N                     00598  0000000        000063
12035820448000136WHITE MARTINS GASES INDUSTRIAI                                        0000000023700026400000003937925 0000000087820600009022540001838377866 001     201210042012090700000000054760000202876000000000207885000000000000000000000000005009050000000000  3020121018   01          2  RUA GANGES  528                                                                  3                         000000000000000                                     N                     00598  0000000        000064
12035820448000136WHITE MARTINS GASES INDUSTRIAI                                        0000000023700026400000003937925 0000000088191338009022570001466379316 001     201210092012091300000000054810000085208000000000087164000000000000000000000000001956050000000000  3020121018   01          2  RUA GANGES  528                                                                  3                         000000000000000                                     N                     00598  0000000        000065
12035820448000136WHITE MARTINS GASES INDUSTRIAI                                        0000000023700026400000003937925 0000000088524829009022630001577381808 001     201210162012091900000000054880000121725000000000124241000000000000000000000000002516050000000000  3020121018   01          2  RUA GANGES  528                                                                  3                         000000000000000                                     N                     00598  0000000        000066
12035820448000136WHITE MARTINS GASES INDUSTRIAI                                        0000000023700026400000003937925 0000000087067052009022420002594374120 001     201209252012082900000000054670000113610000000000119355000000000000000000000000005745050000000000  3020121018   01          2  RUA GANGES  528                                                                  3                         000000000000000                                     N                     00598  0000000        000067
12035820448000136WHITE MARTINS GASES INDUSTRIAI                                        0000000023700026400000003937925 0000000086699210009022330000393368126 001     201209142012081800000000054560000162300000000000172890000000000000000000000000010590050000000000  3020121018   01          2  RUA GANGES  528                                                                  3                         000000000000000                                     N                     00598  0000000        000068
12035820448000136WHITE MARTINS GASES INDUSTRIAI                                        0000000023700026400000003937925 0000000087168275009022440000143375351 001     201209272012083100000000054690000040575000000000042520000000000000000000000000001945050000000000  3020121018   01          2  RUA GANGES  528                                                                  3                         000000000000000                                     N                     00598  0000000        000069
12042956441000101SOLUCOES ACO USIMINAS                                                 0000000034100000000000000000000000000000840313050000002181699260016829803     201209242012070200000000054660000322527000000000337362000000000000000000000000015480050000000000  3020121017   06          3                                                                                   3112181699268293807258000029                                                  N                     01321  0000000        000070
12042956441000101SOLUCOES ACO USIMINAS                                                 0000000034100000000000000000000000000000840313080000002181699230016814403     201209242012070200000000054660000968423000000001012974000000000000000000000000046488050000000000  3020121017   06          3                                                                                   3112181699235293807258000079                                                  N                     01321  0000000        000071
12042956441000101SOLUCOES ACO USIMINAS                                                 0000000034100000000000000000000000000000840313090000002181699240016827103     201209242012070200000000054660000703009000000000735347000000000000000000000000033744050000000000  3020121017   06          3                                                                                   3112181699243293807258000019                                                  N                     01321  0000000        000072
12042956441000101SOLUCOES ACO USIMINAS                                                 0000000034100000000000000000000000000000840313040000002181699250016829703     201209242012070200000000054660000643711000000000673312000000000000000000000000030888050000000000  3020121017   06          3                                                                                   3112181699250293807258000019                                                  N                     01321  0000000        000073
12042956441000101SOLUCOES ACO USIMINAS                                                 0000000034100000000000000000000000000000856906410000002262886280017266201     201208282012073000000000054390000119472000000000131661000000000000000000000000012189050000000000  3020121018   01          2                                                                                   3112262886289293807258000089                                                  N                     01321  0000000        000074
12042956441000101SOLUCOES ACO USIMINAS                                                 0000000034100000000000000000000000000000841725540000002188168620016859403     201209262012070400000000054680000164455000000000171693000000000000000000000000007238050000000000  3020121018   01          2                                                                                   3112188168622293807258000019                                                  N                     01321  0000000        000075
12042956441000101SOLUCOES ACO USIMINAS                                                 0000000034100000000000000000000000000000856906420000002262886290017266301     201208282012073000000000054390000145069000000000159859000000000000000000000000014790050000000000  3020121018   01          2                                                                                   3112262886297293807258000099                                                  N                     01321  0000000        000076
12042956441000101SOLUCOES ACO USIMINAS                                                 0000000034100000000000000000000000000000856906430000002262886300017266202     201209252012073000000000054670000119436000000000124933000000000000000000000000005497050000000000  3020121018   01          2                                                                                   3112262886305293807258000019                                                  N                     01321  0000000        000077
12042956441000101SOLUCOES ACO USIMINAS                                                 0000000034100000000000000000000000000000856906440000002262886310017266302     201209252012073000000000054670000145025000000000151695000000000000000000000000006670050000000000  3020121018   01          2                                                                                   3112262886313293807258000029                                                  N                     01321  0000000        000078
12042956441000101SOLUCOES ACO USIMINAS                                                 0000000034100000000000000000000000000000858616390000002271409750017315102     201209272012080200000000054690000579374000000000603713000000000000000000000000024339050000000000  3020121018   01          2                                                                                   3112271409750293807258000019                                                  N                     01321  0000000        000079
12042956441000101SOLUCOES ACO USIMINAS                                                 0000000034100000000000000000000000000000858616400000002271409760017316002     201209272012080200000000054690000929451000000000968490000000000000000000000000039039050000000000  3020121018   01          2                                                                                   3112271409768293807258000079                                                  N                     01321  0000000        000080
12042956441000101SOLUCOES ACO USIMINAS                                                 0000000034100000000000000000000000000000858616410000002271409770017319302     201209272012080200000000054690000981526000000001022749000000000000000000000000041223050000000000  3020121018   01          2                                                                                   3112271409776293807258000019                                                  N                     01321  0000000        000081
12042956441000101SOLUCOES ACO USIMINAS                                                 0000000034100000000000000000000000000000841725550000002188168630016859503     201209262012070400000000054680000234336000000000244654000000000000000000000000010318050000000000  3020121018   01          2                                                                                   3112188168630293807258000089                                                  N                     01321  0000000        000082
12042956441000101SOLUCOES ACO USIMINAS                                                 0000000034100000000000000000000000000000841725560000002188168640016884803     201209272012070500000000054690000120612000000000125673000000000000000000000000005061050000000000  3020121018   01          2                                                                                   3112188168648293807258000059                                                  N                     01321  0000000        000083
12042956441000101SOLUCOES ACO USIMINAS                                                 0000000034100000000000000000000000000000841725570000002188168690016891503     201209272012070500000000054690001128343000000001175740000000000000000000000000047397050000000000  3020121018   01          2                                                                                   3112188168697293807258000039                                                  N                     01321  0000000        000084
12042956441000101SOLUCOES ACO USIMINAS                                                 0000000034100000000000000000000000000000841725580000002188168650016884903     201209272012070500000000054690000531835000000000554179000000000000000000000000022344050000000000  3020121018   01          2                                                                                   3112188168655293807258000019                                                  N                     01321  0000000        000085
12042956441000101SOLUCOES ACO USIMINAS                                                 0000000034100000000000000000000000000000858616420000002271409780017319402     201209272012080200000000054690000178902000000000186420000000000000000000000000007518050000000000  3020121018   01          2                                                                                   3112271409784293807258000029                                                  N                     01321  0000000        000086
12042956441000101SOLUCOES ACO USIMINAS                                                 0000000034100000000000000000000000000000858616430000002271409790017319502     201209272012080200000000054690000197380000000000205675000000000000000000000000008295050000000000  3020121018   01          2                                                                                   3112271409792293807258000049                                                  N                     01321  0000000        000087
12042956441000101SOLUCOES ACO USIMINAS                                                 0000000034100000000000000000000000000000858616440000002271409800017319602     201209272012080200000000054690000197044000000000205318000000000000000000000000008274050000000000  3020121018   01          2                                                                                   3112271409800293807258000019                                                  N                     01321  0000000        000088
12042956441000101SOLUCOES ACO USIMINAS                                                 0000000034100000000000000000000000000000858616450000002271409810017319702     201209272012080200000000054690000197212000000000205486000000000000000000000000008274050000000000  3020121018   01          2                                                                                   3112271409818293807258000019                                                  N                     01321  0000000        000089
12042956441000101SOLUCOES ACO USIMINAS                                                 0000000034100000000000000000000000000000858616460000002271409820017319802     201209272012080200000000054690000194525000000000202694000000000000000000000000008169050000000000  3020121018   01          2                                                                                   3112271409826293807258000079                                                  N                     01321  0000000        000090
12042956441000101SOLUCOES ACO USIMINAS                                                 0000000034100000000000000000000000000000859590620000002274469790017353702     201209282012080300000000054700000081053000000000084293000000000000000000000000003240050000000000  3020121018   01          2                                                                                   3112274469793293807258000069                                                  N                     01321  0000000        000091
12042956441000101SOLUCOES ACO USIMINAS                                                 0000000034100000000000000000000000000000859590630000002274469800017353802     201209282012080300000000054700000166998000000000173678000000000000000000000000006680050000000000  3020121018   01          2                                                                                   3112274469801293807258000059                                                  N                     01321  0000000        000092
12042956441000101SOLUCOES ACO USIMINAS                                                 0000000034100000000000000000000000000000855028690000002254329380017212902     201209212012072600000000054630000140098000000000147658000000000000000000000000007560050000000000  3020121018   01          2                                                                                   3112254329389293807258000019                                                  N                     01321  0000000        000093
12042956441000101SOLUCOES ACO USIMINAS                                                 0000000034100000000000000000000000000000841725590000002188168660016885103     201209272012070500000000054690000219722000000000228941000000000000000000000000009219050000000000  3020121018   01          2                                                                                   3112188168663293807258000049                                                  N                     01321  0000000        000094
12042956441000101SOLUCOES ACO USIMINAS                                                 0000000034100000000000000000000000000000841725600000002188168670016891203     201209272012070500000000054690001132542000000001180107000000000000000000000000047565050000000000  3020121018   01          2                                                                                   3112188168671293807258000069                                                  N                     01321  0000000        000095
12042956441000101SOLUCOES ACO USIMINAS                                                 0000000034100000000000000000000000000000841725610000002188168680016891403     201209272012070500000000054690000795233000000000828623000000000000000000000000033390050000000000  3020121018   01          2                                                                                   3112188168689293807258000029                                                  N                     01321  0000000        000096
12042956441000101SOLUCOES ACO USIMINAS                                                 0000000034100000000000000000000000000000843180440000002194744360016902903     201209282012070600000000054700000179794000000000186994000000000000000000000000007200050000000000  3020121018   01          2                                                                                   3112194744366293807258000079                                                  N                     01321  0000000        000097
12042956441000101SOLUCOES ACO USIMINAS                                                 0000000034100000000000000000000000000000855028700000002254329390017213002     201209212012072600000000054630000140602000000000148189000000000000000000000000007587050000000000  3020121018   01          2                                                                                   3112254329397293807258000089                                                  N                     01321  0000000        000098
12042956441000101SOLUCOES ACO USIMINAS                                                 0000000034100000000000000000000000000000853154840000002246247030017196702     201209202012072500000000054620000234841000000000248001000000000000000000000000013160050000000000  3020121018   01          2                                                                                   3112246247038293807258000099                                                  N                     01321  0000000        000099
12042956441000101SOLUCOES ACO USIMINAS                                                 0000000034100000000000000000000000000000853154850000002246247040017197302     201209202012072500000000054620000970103000000001024423000000000000000000000000054320050000000000  3020121018   01          2                                                                                   3112246247046293807258000019                                                  N                     01321  0000000        000100
12042956441000101SOLUCOES ACO USIMINAS                                                 0000000034100000000000000000000000000000847452070000002216130350005922202     201209102012071600000000054520000172071000000000185143000000000000000000000000013072050000000000  3020121018   01          2                                                                                   3112216130354293807258000049                                                  N                     01321  0000000        000101
12042956441000101SOLUCOES ACO USIMINAS                                                 0000000034100000000000000000000000000000847452100000002216130340017012402     201209102012071500000000054520000147428000000000158638000000000000000000000000011210050000000000  3020121018   01          2                                                                                   3112216130347293807258000059                                                  N                     01321  0000000        000102
12042956441000101SOLUCOES ACO USIMINAS                                                 0000000034100000000000000000000000000000846595700000002210880280016980502     201209102012071200000000054520000156071000000000167927000000000000000000000000011856050000000000  3020121018   01          2                                                                                   3112210880285293807258000039                                                  N                     01321  0000000        000103
12042956441000101SOLUCOES ACO USIMINAS                                                 0000000034100000000000000000000000000000846595710000002210880290016980602     201209102012071200000000054520000426094000000000458470000000000000000000000000032376050000000000  3020121018   01          2                                                                                   3112210880293293807258000019                                                  N                     01321  0000000        000104
12042956441000101SOLUCOES ACO USIMINAS                                                 0000000034100000000000000000000000000000848180700000002220192900017041002     201209112012071700000000054530000155433000000000166940000000000000000000000000011507050000000000  3020121018   01          2                                                                                   3112220192903293807258000029                                                  N                     01321  0000000        000105
12042956441000101SOLUCOES ACO USIMINAS                                                 0000000034100000000000000000000000000000848180710000002220192910017041202     201209112012071700000000054530000205421000000000220628000000000000000000000000015207050000000000  3020121018   01          2                                                                                   3112220192911293807258000019                                                  N                     01321  0000000        000106
12042956441000101SOLUCOES ACO USIMINAS                                                 0000000034100000000000000000000000000000850740460000002233586800017127201     201208202012072000000000054310000137881000000000154165000000000000000000000000016284050000000000  3020121018   01          2                                                                                   3112233586802293807258000019                                                  N                     01321  0000000        000107
12042956441000101SOLUCOES ACO USIMINAS                                                 0000000034100000000000000000000000000000850740470000002233586810017101002     201209142012071900000000054560000732575000000000782385000000000000000000000000049810050000000000  3020121018   01          2                                                                                   3112233586810293807258000019                                                  N                     01321  0000000        000108
12042956441000101SOLUCOES ACO USIMINAS                                                 0000000034100000000000000000000000000000850740480000002233586820017101202     201209142012071900000000054560000144634000000000154460000000000000000000000000009826050000000000  3020121018   01          2                                                                                   3112233586828293807258000029                                                  N                     01321  0000000        000109
12042956441000101SOLUCOES ACO USIMINAS                                                 0000000034100000000000000000000000000000855028770000002254329400017220502     201209212012072700000000054630000981022000000001033996000000000000000000000000052974050000000000  3020121018   01          2                                                                                   3112254329405293807258000099                                                  N                     01321  0000000        000110
12043217850000159IOB INFORMACOES OBJ  PUBL JURI                                        0000000023702374400000002958600 000000008711912800902243000063301440820F2     201209202012083000000000054620000072850000000000074979000000000000000000000000002129050000000000  3020121018   01          2  R GANGES 528                                                                     3                         000000000000000                                     N                     00598  0000000        000111
12043217850000159IOB INFORMACOES OBJ  PUBL JURI                                        0000000023702374400000002958600 000000008540495200902212000099001440820E4     201208202012073000000000054310000072850000000000075723000000000000000000000000002873050000000000  3020121018   01          2  GANGES 528 VL NOVA MANCHESTER                                                    3                         000000000000000                                     N                     00598  0000000        000112
12047190731000100DE CASTRO LOUR ENG IND LTDA                                           00000000341000000000000000000000000000008782051200000023399953803026613 0     201209182012082100000000054600001107989000000001173359000000000000000000000000065370050000000000  3020121018   01          2                                                                                   3112339995386036884500400039                                                  N                     01321  0000000        000113
12047190731000100DE CASTRO LOUR ENG IND LTDA                                           00000000341000000000000000000000000000008782051600000023399954103026614 0     201209182012082100000000054600001047621000000001109421000000000000000000000000061800050000000000  3020121018   01          2                                                                                   3112339995410036884500400039                                                  N                     01321  0000000        000114
12047190731000100DE CASTRO LOUR ENG IND LTDA                                           00000000341000000000000000000000000000008782052000000023399955303026632 0     201209192012082200000000054610000952073000000001006361000000000000000000000000054288050000000000  3020121018   01          2                                                                                   3112339995535036884500400019                                                  N                     01321  0000000        000115
12047190731000100DE CASTRO LOUR ENG IND LTDA                                           00000000341000000000000000000000000000008782052100000023399955903026643 0     201209202012082300000000054620000867039000000000914779000000000000000000000000047740050000000000  3020121018   01          2                                                                                   3112339995592036884500400049                                                  N                     01321  0000000        000116
12047190731000100DE CASTRO LOUR ENG IND LTDA                                           00000000341000000000000000000000000000008782052500000023399955603026636 0     201209192012082200000000054610000940804000000000994454000000000000000000000000053650050000000000  3020121018   01          2                                                                                   3112339995568036884500400049                                                  N                     01321  0000000        000117
12047190731000100DE CASTRO LOUR ENG IND LTDA                                           00000000341000000000000000000000000000008782052700000023399956203026648 0     201209202012082300000000054620000976053000000001029813000000000000000000000000053760050000000000  3020121018   01          2                                                                                   3112339995626036884500400029                                                  N                     01321  0000000        000118
12047190731000100DE CASTRO LOUR ENG IND LTDA                                           00000000341000000000000000000000000000008782050900000023399953503026612 0     201209182012082100000000054600001111489000000001177069000000000000000000000000065580050000000000  3020121018   01          2                                                                                   3112339995352036884500400019                                                  N                     01321  0000000        000119
12048775225000146SEIKI IND COM E CONFECCOES LTD                                        000000003410000000000000000000000000000087820591000000235780573014311001      201209282012083100000000054700000052000000000000053560000000000000000000000000001560050000000000  3020121018   01          2                                                                                   3112357805731017444824100069                                                  N                     01321  0000000        000120
12049341563000132JAC COMERCIO DE MATERIAIS ELET                                        0000000023700293300000001478699 000000008835083900201322610636122736          201210122012091700000000054840000027274000000000027499000000000000000000000000000270050000000000  3020121017   06          3  R GANGES 528                                                                     3                         000000000000000                                     N                     00598  0000000        000121
12051180370000199IGUAFER FERRO E ACO LTDA                                              0000000034100000000000000000000000000000852309100000002239389789443 B         201209022012071800000000054440000168275000000000181155000000000000000000000000012880050000000000  3020121018   01          2                                                                                   3112239389789077149484600089                                                  N                     01321  0000000        000122
12051180370000199IGUAFER FERRO E ACO LTDA                                              0000000034100000000000000000000000000000852309110000002239389799443 C         201209122012071800000000054540000168275000000000178355000000000000000000000000010080050000000000  3020121018   01          2                                                                                   3112239389797077149484600089                                                  N                     01321  0000000        000123
12053585766000141MULTIACOS I C PRODS TEC LTDA                                          0000000042200000000000000000000000000000883508150000000000000000004553202     201210112012091300000000054830001115009000000001128014000000000000000000000000013005050000000000  3020121018   01          2                                                                                   3711500005033164921116446119                                                  N                     01321  0000000        000124
12053585766000141MULTIACOS INDUSTRIA E COMERCIO                                        0000000000100000000000000000000000000000885248110000003068130000004604501     201210082012091800000000054800000937682000000000940808000000000000000000000000004689050000000000  3020121010   05          3                                                                                   3044073068131912000139523189                                                  N                     01321  0000000        000125
12053585766000141MULTIACOS INDUSTRIA E COMERCIO                                        0000000000100000000000000000000000000000885248190000003068120000004604401     201210082012091800000000054800000195694000000000196346000000000000000000000000000978050000000000  3020121010   05          3                                                                                   3044073068121912000139523179                                                  N                     01321  0000000        000126
12053585766000141MULTIACOS INDUSTRIA E COMERCIO                                        0000000000100000000000000000000000000000885248200000003067420000004532102     201210082012091800000000054800000883908000000000886854000000000000000000000000004419050000000000  3020121010   05          3                                                                                   3044073067421912000139523199                                                  N                     01321  0000000        000127
12053585766000141MULTIACOS INDUSTRIA E COMERCIO                                        0000000000100000000000000000000000000000885248210000003067060000004462403     201210082012091800000000054800000761496000000000764034000000000000000000000000003807050000000000  3020121010   05          3                                                                                   3044073067061912000139523199                                                  N                     01321  0000000        000128
12053585766000141MULTIACOS INDUSTRIA E COMERCIO                                        0000000000100000000000000000000000000000885248240000003067040000004462203     201210082012091800000000054800000569064000000000570960000000000000000000000000002844050000000000  3020121010   05          3                                                                                   3044073067041912000139523199                                                  N                     01321  0000000        000129
12053585766000141MULTIACOS INDUSTRIA E COMERCIO                                        0000000000100000000000000000000000000000885248260000003067050000004462303     201210082012091800000000054800000262786000000000263662000000000000000000000000001314050000000000  3020121010   05          3                                                                                   3044073067051912000139523179                                                  N                     01321  0000000        000130
12053585766000141MULTIACOS INDUSTRIA E COMERCIO                                        0000000000100000000000000000000000000000885248270000003067430000004532302     201210082012091800000000054800000257380000000000258238000000000000000000000000001287050000000000  3020121010   05          3                                                                                   3044073067431912000139523129                                                  N                     01321  0000000        000131
12053585766000141MULTIACOS COM DE PRODUTOS TECN                                        0000000023703398700000000011290 00000000888733010020226900000160004493703     201210152012080600000000054870000180041000000000180941000000000000000000000000000900050000000000  3020121018   01          2  RUA JUNO  533                                                                    3                         000000000000000                                     N                     00598  0000000        000132
12053585766000141MULTIACOS COM DE PRODUTOS TECN                                        0000000023703398700000000011290 00000000888733020020226900000170004493803     201210152012080600000000054870000828107000000000832247000000000000000000000000004140050000000000  3020121018   01          2  RUA JUNO  533                                                                    3                         000000000000000                                     N                     00598  0000000        000133
12053585766000141MULTIACOS COM DE PRODUTOS TECN                                        0000000023703398700000000011290 00000000888733030020226900000230004500803     201210162012080700000000054880000173389000000000173967000000000000000000000000000578050000000000  3020121018   01          2  RUA JUNO  533                                                                    3                         000000000000000                                     N                     00598  0000000        000134
12053585766000141MULTIACOS COM DE PRODUTOS TECN                                        0000000023703398700000000011290 00000000888733040020226900000240004500903     201210162012080700000000054880000962577000000000965785000000000000000000000000003208050000000000  3020121018   01          2  RUA JUNO  533                                                                    3                         000000000000000                                     N                     00598  0000000        000135
12053585766000141MULTIACOS COM DE PRODUTOS TECN                                        0000000023703398700000000011290 00000000888733050020226900000250004501003     201210162012080700000000054880000902868000000000905878000000000000000000000000003010050000000000  3020121018   01          2  RUA JUNO  533                                                                    3                         000000000000000                                     N                     00598  0000000        000136
12053585766000141MULTIACOS COM DE PRODUTOS TECN                                        0000000023703398700000000011290 00000000888733060020226900000460004565102     201210152012082000000000054870000455717000000000457997000000000000000000000000002280050000000000  3020121018   01          2  RUA JUNO  533                                                                    3                         000000000000000                                     N                     00598  0000000        000137
12053585766000141MULTIACOS COM DE PRODUTOS TECN                                        0000000023703398700000000011290 00000000888733070020226900000470004566102     201210152012082000000000054870001281579000000001287987000000000000000000000000006408050000000000  3020121018   01          2  RUA JUNO  533                                                                    3                         000000000000000                                     N                     00598  0000000        000138
12053585766000141MULTIACOS COM DE PRODUTOS TECN                                        0000000023703398700000000011290 00000000888733080020226900000490004570002     201210162012082100000000054880000999583000000001002915000000000000000000000000003332050000000000  3020121018   01          2  RUA JUNO  533                                                                    3                         000000000000000                                     N                     00598  0000000        000139
12053585766000141MULTIACOS COM DE PRODUTOS TECN                                        0000000023703398700000000011290 00000000888733090020226900000680004642301     201210162012090400000000054880000198805000000000199467000000000000000000000000000662050000000000  3020121018   01          2  RUA JUNO  533                                                                    3                         000000000000000                                     N                     00598  0000000        000140
12053585766000141MULTIACOS COM DE PRODUTOS TECN                                        0000000023703398700000000011290 00000000888733100020226900000690004642101     201210162012090400000000054880000251722000000000252562000000000000000000000000000840050000000000  3020121018   01          2  RUA JUNO  533                                                                    3                         000000000000000                                     N                     00598  0000000        000141
12053585766000141MULTIACOS COM DE PRODUTOS TECN                                        0000000023703398700000000011290 00000000888733110020226900000710004650301     201210172012090500000000054890000235534000000000235927000000000000000000000000000393050000000000  3020121018   01          2  RUA JUNO  533                                                                    3                         000000000000000                                     N                     00598  0000000        000142
12053585766000141MULTIACOS COM DE PRODUTOS TECN                                        0000000023703398700000000011290 00000000888733120020226900000720004650401     201210172012090500000000054890000198805000000000199136000000000000000000000000000331050000000000  3020121018   01          2  RUA JUNO  533                                                                    3                         000000000000000                                     N                     00598  0000000        000143
12054382510000108SETENTA IND E COM DE MADEIRAS                                         0000000034100000000000000000000000000000896050440000002459509654672 A         201210262012100400000000054980000109600000000000109600000000000000000000000000000000050000000000  3020121026   05          3                                                                                   3112459509652057049175300019                                                  N                     01321  0000000        000144
12054382510000108SETENTA IND E COM DE MADEIRAS                                         0000000034100000000000000000000000000000874070720000002305114064536 A         201209192012081600000000054610000191200000000000202104000000000000000000000000010904050000000000  3020121018   01          2                                                                                   3112305114061057002848000039                                                  N                     01321  0000000        000145
12054382510000108SETENTA IND E COM DE MADEIRAS                                         0000000034100000000000000000000000000000860403430000002277814474462 A         201209042012080700000000054460000191200000000000207744000000000000000000000000016544050000000000  3020121018   01          2                                                                                   3112277814474057049175300069                                                  N                     01321  0000000        000146
12054382510000108SETENTA IND E COM DE MADEIRAS                                         0000000034100000000000000000000000000000883508330000002392776804604 A         201210082012091300000000054800000116600000000000118890000000000000000000000000002290050000000000  3020121018   01          2                                                                                   3112392776806057049175300019                                                  N                     01321  0000000        000147
12054382510000108SETENTA IND E COM DE MADEIRAS                                         0000000034100000000000000000000000000000902449890000002459509654672 A         201210262012100400000000054980000109600000000000109600000000000000000000000000000000050000000000  3020121026   01FS        1                                                                                   3112459509652057002848000019                                                  N                     01321  0000000        000148
12056993512000150CYKLOP DO BRASIL EMBALAGENS SA                                        0000000034100000000000000000000000000000874070500000002362586810134932        201210012012090300000000054730000083607000000000088826000000000000000000000000005219050000000000  3020121018   01          2                                                                                   3112362586813025700015800019                                                  N                     01321  0000000        000149
12056993900000131CIA METALURGICA PRADA                                                 0000000034100000000000000000000000000000824820100000002102181160024711603     201208292012060600000000054400000833146000000000902596000000000000000000000000069450050000000000  3020121018   01          2                                                                                   3112102181164293800573900039                                                  N                     01321  0000000        000150
12056993900000131CIA METALURGICA PRADA                                                 0000000034100000000000000000000000000000848180620000002218222670025829902     201209112012071700000000054530000498118000000000528828000000000000000000000000030710050000000000  3020121018   01          2                                                                                   3112218222670293800573900029                                                  N                     01321  0000000        000151
12056993900000131CIA METALURGICA PRADA                                                 0000000034100000000000000000000000000000848180630000002218222680025830002     201209112012071700000000054530000247673000000000262954000000000000000000000000015281050000000000  3020121018   01          2                                                                                   3112218222688293800573900059                                                  N                     01321  0000000        000152
12056993900000131CIA METALURGICA PRADA                                                 0000000034100000000000000000000000000000848180640000002218222690025830102     201209112012071700000000054530000207402000000000220204000000000000000000000000012802050000000000  3020121018   01          2                                                                                   3112218222696293800573900039                                                  N                     01321  0000000        000153
12056993900000131CIA METALURGICA PRADA                                                 0000000034100000000000000000000000000000840312930000002179478290025419302     201208282012070300000000054390000402178000000000436348000000000000000000000000034170050000000000  3020121018   01          2                                                                                   3112179478295293800573900089                                                  N                     01321  0000000        000154
12056993900000131CIA METALURGICA PRADA                                                 0000000034100000000000000000000000000000840312940000002179478300025419402     201208282012070300000000054390000322804000000000350242000000000000000000000000027438050000000000  3020121018   01          2                                                                                   3112179478303293800573900079                                                  N                     01321  0000000        000155
12056993900000131CIA METALURGICA PRADA                                                 0000000034100000000000000000000000000000848180650000002218222700025829903     201210092012071700000000054810000498119000000000505589000000000000000000000000007470050000000000  3020121018   01          2                                                                                   3112218222704293800573900019                                                  N                     01321  0000000        000156
12056993900000131CIA METALURGICA PRADA                                                 0000000034100000000000000000000000000000848180660000002218222710025830003     201210092012071700000000054810000247672000000000251389000000000000000000000000003717050000000000  3020121018   01          2                                                                                   3112218222712293800573900019                                                  N                     01321  0000000        000157
12056993900000131CIA METALURGICA PRADA                                                 0000000034100000000000000000000000000000848180670000002218222720025830103     201210092012071700000000054810000207402000000000210516000000000000000000000000003114050000000000  3020121018   01          2                                                                                   3112218222720293800573900079                                                  N                     01321  0000000        000158
12056993900000131CIA METALURGICA PRADA                                                 0000000034100000000000000000000000000000844838970000002201181960025629403     201210032012071100000000054750000249372000000000255612000000000000000000000000006240050000000000  3020121018   01          2                                                                                   3112201181966293800573900019                                                  N                     01321  0000000        000159
12056993900000131CIA METALURGICA PRADA                                                 0000000034100000000000000000000000000000844838980000002201181970025635303     201210032012071100000000054750000406843000000000417013000000000000000000000000010170050000000000  3020121018   01          2                                                                                   3112201181974293800573900089                                                  N                     01321  0000000        000160
12056993900000131CIA METALURGICA PRADA                                                 0000000034100000000000000000000000000000844838990000002201181980025635403     201210032012071100000000054750000208689000000000213909000000000000000000000000005220050000000000  3020121018   01          2                                                                                   3112201181982293800573900059                                                  N                     01321  0000000        000161
12056993900000131CIA METALURGICA PRADA                                                 0000000034100000000000000000000000000000844839000000002201181880025629402     201209052012071100000000054470000249372000000000267260000000000000000000000000017888050000000000  3020121018   01          2                                                                                   3112201181883293800573900019                                                  N                     01321  0000000        000162
12056993900000131CIA METALURGICA PRADA                                                 0000000034100000000000000000000000000000844839010000002201181890025635302     201209052012071100000000054470000406842000000000435996000000000000000000000000029154050000000000  3020121018   01          2                                                                                   3112201181891293800573900019                                                  N                     01321  0000000        000163
12056993900000131CIA METALURGICA PRADA                                                 0000000034100000000000000000000000000000844839020000002201181900025635402     201209052012071100000000054470000208689000000000223653000000000000000000000000014964050000000000  3020121018   01          2                                                                                   3112201181909293800573900069                                                  N                     01321  0000000        000164
12056993900000131CIA METALURGICA PRADA                                                 0000000034100000000000000000000000000000844839030000002201181910025635502     201209052012071100000000054470000164780000000000176605000000000000000000000000011825050000000000  3020121018   01          2                                                                                   3112201181917293800573900029                                                  N                     01321  0000000        000165
12056993900000131CIA METALURGICA PRADA                                                 0000000034100000000000000000000000000000844839040000002201181920025635602     201209052012071100000000054470000339933000000000364314000000000000000000000000024381050000000000  3020121018   01          2                                                                                   3112201181925293800573900069                                                  N                     01321  0000000        000166
12056993900000131CIA METALURGICA PRADA                                                 0000000034100000000000000000000000000000844839050000002201181930025636202     201209052012071100000000054470000746213000000000799705000000000000000000000000053492050000000000  3020121018   01          2                                                                                   3112201181933293800573900019                                                  N                     01321  0000000        000167
12056993900000131CIA METALURGICA PRADA                                                 0000000034100000000000000000000000000000844839060000002201181940025644402     201209052012071100000000054470000779647000000000835504000000000000000000000000055857050000000000  3020121018   01          2                                                                                   3112201181941293800573900019                                                  N                     01321  0000000        000168
12056993900000131CIA METALURGICA PRADA                                                 0000000034100000000000000000000000000000844839070000002201181990025635503     201210032012071100000000054750000164779000000000168904000000000000000000000000004125050000000000  3020121018   01          2                                                                                   3112201181990293800573900019                                                  N                     01321  0000000        000169
12056993900000131CIA METALURGICA PRADA                                                 0000000034100000000000000000000000000000844839080000002201182000025635603     201210032012071100000000054750000339934000000000348439000000000000000000000000008505050000000000  3020121018   01          2                                                                                   3112201182006293800573900069                                                  N                     01321  0000000        000170
12056993900000131CIA METALURGICA PRADA                                                 0000000034100000000000000000000000000000844839090000002201182010025636203     201210032012071100000000054750000746212000000000764872000000000000000000000000018660050000000000  3020121018   01          2                                                                                   3112201182014293800573900079                                                  N                     01321  0000000        000171
12056993900000131CIA METALURGICA PRADA                                                 0000000034100000000000000000000000000000844838960000002201181950025629303     201210032012071100000000054750000257905000000000264355000000000000000000000000006450050000000000  3020121018   01          2                                                                                   3112201181958293800573900099                                                  N                     01321  0000000        000172
12056993900000131CIA METALURGICA PRADA                                                 0000000034100000000000000000000000000000844839100000002201182020025644403     201210032012071100000000054750000779647000000000799132000000000000000000000000019485050000000000  3020121018   01          2                                                                                   3112201182022293800573900049                                                  N                     01321  0000000        000173
12056993900000131CIA METALURGICA PRADA                                                 0000000034100000000000000000000000000000844839140000002201181870025629302     201209052012071100000000054470000257906000000000276396000000000000000000000000018490050000000000  3020121018   01          2                                                                                   3112201181875293800573900069                                                  N                     01321  0000000        000174
12057029431000106ATLAS COPCO BRASIL LTDA                                               0000000034100000000000000000000000000000861960280000002283943487000054090     201209062012080900000000054480000059490000000000061128000000000000000000000000001638050000000000  3020121018   01          2                                                                                   3112283943481293804111400069                                                  N                     01321  0000000        000175
12057029431000106ATLAS COPCO BRASIL LTDA                                               0000000034100000000000000000000000000000863731640000002292733057000054146     201209072012081000000000054490000081450000000000083664000000000000000000000000002214050000000000  3020121018   01          2                                                                                   3112292733055293804111400099                                                  N                     01321  0000000        000176
12058805466000144PEFIL COMERCIAL LTDA                                                  0000000023700086800000000014001 000000009024499300901322910317722988 01       201211052012101700000000055080000060000000000000060000000000000000000000000000000000050000000000  3020121105   01FS        1  R GANGES  528                                                                    3                         000000000000000                                     N                     00598  0000000        000177
12059659615000177DZ COMERCIO R E SERVICOS LTDA                                         000000003410000000000000000000000000000086699205000000900000268252            201209172012081500000000054590000060000000000000063720000000000000000000000000003720050000000000  3020121018   01          2                                                                                   3109000002680000314585100059                                                  N                     01321  0000000        000178
12061100202000108COFIPE VEICULOS LTDA                                                  0000000039900000000000000000000000000000845714770000000000000009701220903     201210112012071300000000054830000040018000000000040018000000000000000000000000000000050000000000  3020121011   06          3                                                                                   3320005133500343608018900129                                                  N                     01321  0000000        000179
12061217188000119TELAS METALICAS TELMETAL LTDA                                         0000000000100000000000000000000000000000902449790000000058100005780 1 3       201211122012101600000000055150000089764000000000089764000000000000000000000000000000050000000000  3020121112   01FS        1                                                                                   3000000115031800000058101719                                                  N                     01321  0000000        000180
12061217188000119TELAS METALICAS TELMETAL LTDA                                         0000000000100000000000000000000000000000902449800000000058110005780 2 3       201211192012101600000000055220000089763000000000089763000000000000000000000000000000050000000000  3020121119   01FS        1                                                                                   3000000115031800000058111799                                                  N                     01321  0000000        000181
12061217188000119TELAS METALICAS TELMETAL LTDA                                         0000000000100000000000000000000000000000902449810000000058120005780 3 3       201211262012101600000000055290000089763000000000089763000000000000000000000000000000050000000000  3020121126   01FS        1                                                                                   3000000115031800000058121739                                                  N                     01321  0000000        000182
12061780615000172LEPOK INFORMATICA E PAPELARIA                                         0000000023703393600000000005010 000000008887329900202269000000802127952       201210152012091700000000054870000049890000000000050190000000000000000000000000000450050000000000  3020121017   06          3  RUA TAMAINDE 1410                                                                3                         000000000000000                                     N                     00598  0000000        000183
12061780615000172LEPOK INFORMATICA E PAPELARIA                                         0000000023703393600000000005010 000000008887330000202269000000902128008       201210152012091700000000054870000006768000000000006808000000000000000000000000000060050000000000  3020121017   06          3  RUA TAMAINDE 1410                                                                3                         000000000000000                                     N                     00598  0000000        000184
12062510367000102ITANHAEM TRANSP DE MAQUINAS LT                                        000000003410000000000000000000000000000087407049000000236463199667            201209202012090400000000054620000248220000000000276024000000000000000000000000027804050000000000  3020121018   01          2                                                                                   3112364631997005770252400049                                                  N                     01321  0000000        000185
12062539994000176LEALFER INDUSTRIA E COMERCIO D                                        0000000003300000000000000000000000000000884432820000000000000000005502001     201210152012091300000000054870000839516000000000843797000000000000000000000000004281050000000000  3020121018   01          2                                                                                   3915298380000000260800010419                                                  N                     01321  0000000        000186
12062539994000176LEALFER INDUSTRIA E COMERCIO D                                        0000000003300000000000000000000000000000902449820000001400000000005648901     201211062012100900000000055090000447825000000000447825000000000000000000000000000000050000000000  3020121106   01FS        1                                                                                   3915298380000000276014010469                                                  N                     01321  0000000        000187
12062539994000176LEALFER INDUSTRIA E COMERCIO D                                        0000000003300000000000000000000000000000902449830000001800000000005648902     201212042012100900000000055370000447825000000000447825000000000000000000000000000000050000000000  3020121204   01FS        1                                                                                   3915298380000000278718010419                                                  N                     01321  0000000        000188
12062539994000176LEALFER INDUSTRIA E COMERCIO D                                        0000000003300000000000000000000000000000902449840000000700000000005648903     201301012012100900000000055650000447825000000000447825000000000000000000000000000000050000000000  3020130102   01FS        1                                                                                   3915298380000000280607010459                                                  N                     01321  0000000        000189
12062944582000111AS SOLUCOES COMERCIAL LTDA                                            00000000341000000000000000000000000000009024499000000090000357017303 A        201211122012101500000000055150000120960000000000120960000000000000000000000000000000050000000000  3020121112   01FS        1                                                                                   3109000035705067251093000019                                                  N                     01321  0000000        000190
12064952757000168WALMAC COM DE PROD QUIMICOS LT                                        0000000034100000000000000000000000000000860403450000002275821700020148        201210052012080300000000054770000219267000000000224870000000000000000000000000005603050000000000  3020121018   01          2                                                                                   3112275821703064807961400029                                                  N                     01321  0000000        000191
12064952757000168WALMAC COM DE PROD QUIMICOS LT                                        0000000034100000000000000000000000000000860403460000002275821710020148        201208312012080300000000054420000219267000000000239955000000000000000000000000020688050000000000  3020121018   01          2                                                                                   3112275821711064807961400079                                                  N                     01321  0000000        000192
12064952757000168WALMAC COM DE PROD QUIMICOS LT                                        0000000034100000000000000000000000000000844063810000002196829110019356        201210022012071000000000054740000219266000000000225731000000000000000000000000006896050000000000  3020121017   06          3                                                                                   3112196829116064807961400089                                                  N                     01321  0000000        000193
12065000655000105HILTI DO BRASIL COMERCIAL LTDA                                        0000000023703396000000000243787 00000000871682760090224400001640002179001     201209272012082800000000054690000019742000000000020561000000000000000000000000000819050000000000  3020121018   01          2  RUA TAMAINDE 1410                                                                3                         000000000000000                                     N                     00598  0000000        000194
12065611451000100SUPERDIN COMERCIAL E IMPORTADO                                        0000000023700890700000000004502 0000000088873313009022690000054   006715A     201210152012091700000000054870000031477000000000031687000000000000000000000000000315050000000000  3020121017   06          3  R TAMAINDE 1410                                                                  3                         000000000000000                                     N                     00598  0000000        000195
12066841552000130R V SEG PATRIMONIAL S C LTDA                                          00000000341000000000000000000000000000008887329800000090002213622136          201210102012091100000000054820000374758000000000375758000000000000000000000000001000050000000000  3020121018   01          2                                                                                   3109000221365001838994000069                                                  N                     01321  0000000        000196
12066841552000130R V SEG PATRIMONIAL LTDA                                              00000000341000000000000000000000000000008852483200000090002192721927          201209102012081000000000054520000483241000000000489359000000000000000000000000006118050000000000  3020121018   01          2                                                                                   3109000219270001835253400099                                                  N                     01321  0000000        000197
12067088963000160AJAXCOM ELETROMEC E SERVS LTDA                                        000000003410000000000000000000000000000088350838000000795752579359            201210152012091700000000054870000027200000000000027903000000000000000000000000000703050000000000  3020121018   01          2                                                                                   3157957525793019941432700039                                                  N                     01321  0000000        000198
12069284248000128ISOCOAT TINTAS E VERNIZES LTDA                                        0000000034100000000000000000000000000000841061040000002182507930052085        201209172012070200000000054590000236130000000000255660000000000000000000000000019530050000000000  3020121018   01          2                                                                                   3112182507932077430121200019                                                  N                     01321  0000000        000199
