0000147602043799295000110ALTAMIRA INDUSTRIA METALURGICA LT       202000000012820120918064029             1                                                                                                                                                                                                                                                                                                                                                                                                    000001
12001852612000175BT EQUIPAMENTOS INDUSTRIAIS LT                                        000000000010000000000000000000000000000087577329000000031510000591624         201209142012082200000000054560000031800000000000032180000000000000000000000000000380050000000000  3020120918   01          2                                                                                   3044000315100511000085971119                                                  N                     01321  0000000        000002
12001895314000162COLETA INDUSTRIAL FIMAVAN LTDA                                        0000000034100000000000000000000000000000866992070000009002335349439           201208272012081700000000054380000123695000000000133407000000000000000000000000009712050000000000  3020120918   01          2                                                                                   3109002335346144604097200019                                                  N                     01321  0000000        000003
12001951865000104FOUR FACTORING FOMENTO MERCANT                                        000000000010000000000000000000000000000088012243000000987637000166            201209142012091000000000054560000310000000000000314132000000000000000000000000004132050000000000  3020120918   01          2                                                                                   3044049876373222001052451139                                                  N                     01321  0000000        000004
12001951865000104FOUR FACTORING FOMENTO M LTDA                                         000000004220000000000000000000000000000085607115000000000000000174            201209132012073000000000054550000310000000000000315164000000000000000000000000005164050000000000  3020120918   01          2                                                                                   3702000009214741498829499119                                                  N                     01321  0000000        000005
12002460454000170AUT SERVICE COMERCIO E SERVICO                                        0000000023702591700000000007692 000000008515292000901322060028234532 2        201209172012072400000000054590000238750000000000251165000000000000000000000000012415050000000000  3020120918   01          2  RUA JUNO  533                                                                    3                         000000000000000                                     N                     00598  0000000        000006
12002503185000182ANDAIMES MAQUINAS BIG LTDA EPP                                        000000003410000000000000000000000000000086282613000000228719913011660         201208302012081000000000054410000012000000000000012392000000000000000000000000000392050000000000  3020120918   01          2                                                                                   3112287199130650303800900039                                                  N                     01321  0000000        000007
12002503185000182ANDAIMES MAQUINAS BIG LTDA EPP                                        0000000034100000000000000000000000000000874070480000002313590765101           201209142012082000000000054560000016500000000000016874000000000000000000000000000374050000000000  3020120918   01          2                                                                                   3112313590765650303800900019                                                  N                     01321  0000000        000008
12002583013000166ITAN TRANSP DE CARGAS EXC E IN                                        000000003410000000000000000000000000000088350835000000239377421008 A          201210142012091400000000054860000192500000000000192500000000000000000000000000000000050000000000  3020121015   01FS        1                                                                                   3112393774214005770252400019                                                  N                     01321  0000000        000009
12002583013000166ITAN TRANSP DE CARGAS EXC E IN                                        000000003410000000000000000000000000000088350836000000239377422008 B          201210212012091400000000054930000192500000000000192500000000000000000000000000000000050000000000  3020121022   01FS        1                                                                                   3112393774222005770252400039                                                  N                     01321  0000000        000010
12002583013000166ITAN TRANSP DE CARGAS EXC E IN                                        000000003410000000000000000000000000000088350837000000239377423008 C          201210282012091400000000055000000192500000000000192500000000000000000000000000000000050000000000  3020121029   01FS        1                                                                                   3112393774230005770252400059                                                  N                     01321  0000000        000011
12003489596000123BEND FLEX I COMERCIO LTDA                                             000000003410000000000000000000000000000088350832000000171879874608            201209122012082100000000054540000695250000000000703452000000000000000000000000008202050000000000  3020120918   01FS        1                                                                                   3191718798744157734445800069                                                  N                     01321  0000000        000012
12003489596000123BEND FLEX I COMERCIO LTDA                                             000000003410000000000000000000000000000086699212000000791935440613            201209172012082000000000054590000585000000000000597851000000000000000000000000012851050000000000  3020120918   01          2                                                                                   3157919354403157734445800099                                                  N                     01321  0000000        000013
12003639662000102SCHUTTER DO BRASIL LTDA                                               000000003410000000000000000000000000000086907098000000900001447006157         201209052012082100000000054470000067550000000000067550000000000000000000000000000000050000000000  3020120905   05          3                                                                                   3109000014475788202600300059                                                  N                     01321  0000000        000014
12004882911000140F C BRITO CARTUCHOS ME                                                00000000033000000000000000000000000000008819135200000080000000012694 A21      201209122012081500000000054540000037600000000000039401000000000000000000000000001801050000000000  3020120918   01          2                                                                                   3944753720000000093580010139                                                  N                     01321  0000000        000015
12005880850000145NEDERMAN BRASIL COM PROD EX LT                                        000000003410000000000000000000000000000086373178000000614350956002763 A       201209142012081400000000054560000289674000000000291954000000000000000000000000002850050000000000  3020120918   01          2                                                                                   3156143509568160829000100049                                                  N                     01321  0000000        000016
12006000195000156M B A MERCANTIL BRASILEIRA DE                                         0000000000100000000000000000000000000000831386970000007752250000008615B03     201209122012062000000000054540000498323000000000503309000000000000000000000000004986050000000000  3020120918   01          2                                                                                   3043837752253333000105251139                                                  N                     01321  0000000        000017
12006000195000156M B A MERCANTIL BRASILEIRA DE                                         0000000000100000000000000000000000000000831387060000007752280000008616B03     201209132012062000000000054550000572227000000000576997000000000000000000000000004770050000000000  3020120918   01          2                                                                                   3043837752283333000105251199                                                  N                     01321  0000000        000018
12006000195000156M B A MERCANTIL BRASILEIRA DE                                         0000000000100000000000000000000000000000834820220000002571540000008653B03     201209132012062600000000054550000276788000000000279093000000000000000000000000002305050000000000  3020120918   01          2                                                                                   3043852571543333000105251119                                                  N                     01321  0000000        000019
12006000195000156M B A MERCANTIL BRASILEIRA DE                                         0000000000100000000000000000000000000000834820330000002571630000008656B03     201209162012062600000000054580000641947000000000644087000000000000000000000000002140050000000000  3020120918   01          2                                                                                   3043852571633333000105251129                                                  N                     01321  0000000        000020
12006000195000156M B A MERCANTIL BRASILEIRA DE                                         0000000000100000000000000000000000000000834820270000002571570000008654B03     201209142012062600000000054560000677504000000000682020000000000000000000000000004516050000000000  3020120918   01          2                                                                                   3043852571573333000105251119                                                  N                     01321  0000000        000021
12006000195000156M B A MERCANTIL BRASILEIRA DE                                         0000000000100000000000000000000000000000834820300000002571600000008655B03     201209152012062600000000054570000739628000000000743327000000000000000000000000003699050000000000  3020120918   01          2                                                                                   3043852571603333000105251129                                                  N                     01321  0000000        000022
12006000195000156M B A MERCANTIL BRASILEIRA DE                                         0000000023700118P00000002130599 00000000848180760020220100000330008905B02     201209132012071900000000054550000155301000000000156596000000000000000000000000001295050000000000  3020120918   01          2  RUA JUNO  533                                                                    3                         000000000000000                                     N                     00598  0000000        000023
12006000195000156M B A MERCANTIL BRASILEIRA DE                                         0000000023700118P00000002130599 00000000865388250020222900000460009204B01     201209132012081500000000054550000146386000000000147606000000000000000000000000001220050000000000  3020120918   01          2  RUA JUNO  533                                                                    3                         000000000000000                                     N                     00598  0000000        000024
12006000195000156M B A MERCANTIL BRASILEIRA DE                                         0000000023700118P00000002130599 00000000865388280020222900000490009205B01     201209142012081500000000054560000401309000000000403985000000000000000000000000002676050000000000  3020120918   01          2  RUA JUNO  533                                                                    3                         000000000000000                                     N                     00598  0000000        000025
12006000195000156M B A MERCANTIL BRASILEIRA DE                                         0000000023700118P00000002130599 00000000865388310020222900000520009206B01     201209152012081500000000054570000606694000000000609727000000000000000000000000003033050000000000  3020120918   01          2  RUA JUNO  533                                                                    3                         000000000000000                                     N                     00598  0000000        000026
12006000195000156M B A MERCANTIL BRASILEIRA DE                                         0000000023700118P00000002130599 00000000868592680020223600000010009229B01     201209132012081600000000054550000253414000000000255524000000000000000000000000002110050000000000  3020120918   01          2  RUA JUNO  533                                                                    3                         000000000000000                                     N                     00598  0000000        000027
12006894969000130TERRADIESEL COM DE PCS P CAMIN                                        00000000341000000000000000000000000000008653881500000023020935013969A         201209072012081500000000054490000017800000000000018977000000000000000000000000001177050000000000  3020120918   01          2                                                                                   3112302093508006500924300049                                                  N                     01321  0000000        000028
12008508119000181DINARI FOMENTO MERCANTIL LTDA                                         0000000023702499600000000178306 0000000086282617002022260000005206 A          201209162012081000000000054580000170000000000000176120000000000000000000000000006120050000000000  3020120918   01          2  RUA JUNO  533 VL N MANCHESTER SAO PAULO PANKRO LOGISTICA E TRANSPORTES LTDA EPP  300000000000000000141500  002269980000158                                     N                     00598  0000000        000029
12008709272000177MULTIELETRICA C M E LTDA                                              000000003410000000000000000000000000000085771859000000900002206000002535C     201209042012072400000000054460000188888000000000202258000000000000000000000000013741050000000000  3020120910   05          3                                                                                   3109000022065075798525400069                                                  N                     01321  0000000        000030
12009080640000123SERVPAES LTDA ME                                                      000000001040000000000000000000000000000087295279000000000579200002400         201209102012090300000000054520000151000000000000151000000000000000000000000000000000050000000000  3020120910   05          3                                                                                   3900000057910868700000040919                                                  N                     01321  0000000        000031
12009137729000189MULTI RECEBIVEIS II FUNDO DE I                                        0000000023703369300000000044253 000000008685926300902236000000713649 1        201209132012081600000000054550000114374000000000116279000000000000000000000000001905050000000000  3020120918   01          2  R TAMANDE 1410                          ANHEMBI INDUSTRIA DE CAIXAS DE PAPELAO O 3                         043292101000196                                     N                     00598  0000000        000032
12009419898000101LUSITANO INDUSTRIA C E P LTDA                                         00000000341000000000000000000000000000008653881900000090000757001 10137 1     201209122012081500000000054540000035136000000000035838000000000000000000000000000702050000000000  3020120918   01          2                                                                                   3109000075708001160072300089                                                  N                     01321  0000000        000033
12011318709000156MARTINS MARIANO T LTDA                                                0000000034100000000000000000000000000000874070710000009000008386123           201209102012082100000000054520000033000000000000033000000000000000000000000000000000050000000000  3020120910   05          3                                                                                   3109000008387007265858600079                                                  N                     01321  0000000        000034
12012006058000121WEG TINTAS LTDA                                                       0000000023702727800000000001309 00000000854049540090221200001000015513001     201209102012072700000000054520000459854000000000464758000000000000000000000000004904050000000000  3020120918   01          2  R JUNO  533                                                                      3                         000000000000000                                     N                     00598  0000000        000035
12012006058000121WEG TINTAS LTDA                                                       0000000023702727800000000001309 00000000833069160090217700001090014685603     201209052012062200000000054470000459992000000000467961000000000000000000000000007969050000000000  3020120918   01          2  R JUNO  533                                                                      3                         000000000000000                                     N                     00598  0000000        000036
12012006058000121WEG TINTAS LTDA                                                       0000000023702727800000000001309 00000000834820640090217900000760014773903     201209092012062600000000054510000306662000000000310334000000000000000000000000003672050000000000  3020120918   01          2  R JUNO  533                                                                      3                         000000000000000                                     N                     00598  0000000        000037
12012006058000121WEG TINTAS LTDA                                                       0000000023702727800000000001309 00000000856071250090221400000820015587301     201209142012073100000000054560000459854000000000462306000000000000000000000000002452050000000000  3020120918   01          2  R JUNO  533                                                                      3                         000000000000000                                     N                     00598  0000000        000038
12012006058000121WEG TINTAS LTDA                                                       0000000023702727800000000001309 00000000842436830090219200000850015068802     201209072012070900000000054490000306569000000000311057000000000000000000000000004488050000000000  3020120918   01          2  R JUNO  533                                                                      3                         000000000000000                                     N                     00598  0000000        000039
12012006058000121WEG TINTAS LTDA                                                       0000000023702727800000000001309 00000000847452150090220000000920015248102     201209152012071700000000054570000306569000000000307793000000000000000000000000001224050000000000  3020120918   01          2  R JUNO  533                                                                      3                         000000000000000                                     N                     00598  0000000        000040
12012006058000121WEG TINTAS LTDA                                                       0000000023702727800000000001309 00000000844839230090219500000720015168702     201209102012071200000000054520000306569000000000309833000000000000000000000000003264050000000000  3020120918   01          2  R JUNO  533                                                                      3                         000000000000000                                     N                     00598  0000000        000041
12012113201000184HYPER COMERCIO D N L LTDA                                             0000000034100000000000000000000000000000878205880000009000296850527221        201209132012081600000000054550000034578000000000035153000000000000000000000000000575050000000000  3020120918   01          2                                                                                   3109000296859056888568500049                                                  N                     01321  0000000        000042
12014309992000148WEG DRIVES   CONTROLS   AUTOMA                                        0000000023702727800000000001872 00000000828904050090217000002200005763302     201209152012051800000000054570000272992000000000274081000000000000000000000000001089050000000000  3020120918   01          2  R JUNO  533                                                                      3                         000000000000000                                     N                     00598  0000000        000043
12017469701000177ARCELORMITTAL BRASIL S A                                              0000000034100000000000000000000000000000863731770000009323726650015781201     201209102012081300000000054520000298521000000000298521000000000000000000000000000000050000000000  3020120910   05          3                                                                                   3109323726659293802529900019                                                  N                     01321  0000000        000044
12017469701000177ARCELORMITTAL BRASIL S A                                              0000000034100000000000000000000000000000856071230000009323310830012788101     201208282012073100000000054390000063787000000000063787000000000000000000000000000000050000000000  3020120828   05          3                                                                                   3109323310835293802529900069                                                  N                     01321  0000000        000045
12033325184001786ALSCO TOALHEIRO BRASIL                                                0000000023703396000000001490850 0000000087168277009000002698905VM26989        201209132012082400000000054550000040130000000000040330000000000000000000000000000200050000000000  3020120918   01          2  RUA  GANGES 528                                                                  3                         000000000000000                                     N                     00598  0000000        000046
12035820448000136WHITE MARTINS GASES INDUSTRIAI                                        0000000023700026400000003937925 0000000086699210009022330000393368126 001     201209142012081800000000054560000162300000000000166410000000000000000000000000004110050000000000  3020120918   01          2  RUA GANGES  528                                                                  3                         000000000000000                                     N                     00598  0000000        000047
12035820448000136WHITE MARTINS GASES INDUSTRIAI                                        0000000023700026400000003937925 0000000085861656009022190000404361579 001     201208312012080400000000054420000162300000000000169434000000000000000000000000007134050000000000  3020120918   01          2  RUA GANGES  528                                                                  3                         000000000000000                                     N                     00598  0000000        000048
12035820448000136WHITE MARTINS GASES INDUSTRIAI                                        0000000023700026400000003937925 0000000086196029009022230001562364184 001     201209062012081000000000054480000113610000000000117694000000000000000000000000004084050000000000  3020120918   01          2  RUA GANGES  528                                                                  3                         000000000000000                                     N                     00598  0000000        000049
12035820448000136WHITE MARTINS GASES INDUSTRIAI                                        0000000023700026400000003937925 0000000086538817009022290001168366855 001     201209112012081600000000054530000121725000000000125293000000000000000000000000003568050000000000  3020120918   01          2  RUA GANGES  528                                                                  3                         000000000000000                                     N                     00598  0000000        000050
12042956441000101SOLUCOES ACO USIMINAS                                                 0000000034100000000000000000000000000000848180710000002220192910017041202     201209112012071700000000054530000205421000000000208298000000000000000000000000002877050000000000  3020120918   01          2                                                                                   3112220192911293807258000019                                                  N                     01321  0000000        000051
12042956441000101SOLUCOES ACO USIMINAS                                                 0000000034100000000000000000000000000000840313020000002181699190016814402     201208272012070200000000054380000968423000000001011037000000000000000000000000042614050000000000  3020120918   01          2                                                                                   3112181699193293807258000019                                                  N                     01321  0000000        000052
12042956441000101SOLUCOES ACO USIMINAS                                                 0000000034100000000000000000000000000000840313030000002181699200016827102     201208272012070200000000054380000703010000000000733942000000000000000000000000030932050000000000  3020120918   01          2                                                                                   3112181699201293807258000019                                                  N                     01321  0000000        000053
12042956441000101SOLUCOES ACO USIMINAS                                                 0000000034100000000000000000000000000000840313060000002181699210016829702     201208272012070200000000054380000643712000000000672026000000000000000000000000028314050000000000  3020120918   01          2                                                                                   3112181699219293807258000089                                                  N                     01321  0000000        000054
12042956441000101SOLUCOES ACO USIMINAS                                                 0000000034100000000000000000000000000000840313070000002181699220016829802     201208272012070200000000054380000322528000000000336718000000000000000000000000014190050000000000  3020120918   01          2                                                                                   3112181699227293807258000029                                                  N                     01321  0000000        000055
12042956441000101SOLUCOES ACO USIMINAS                                                 0000000034100000000000000000000000000000841725460000002188168540016859402     201208292012070400000000054400000164456000000000171036000000000000000000000000006580050000000000  3020120918   01          2                                                                                   3112188168549293807258000059                                                  N                     01321  0000000        000056
12042956441000101SOLUCOES ACO USIMINAS                                                 0000000034100000000000000000000000000000841725470000002188168550016859502     201208292012070400000000054400000234337000000000243717000000000000000000000000009380050000000000  3020120918   01          2                                                                                   3112188168556293807258000089                                                  N                     01321  0000000        000057
12042956441000101SOLUCOES ACO USIMINAS                                                 0000000034100000000000000000000000000000841725480000002188168560016884802     201208302012070500000000054410000120612000000000125191000000000000000000000000004579050000000000  3020120918   01          2                                                                                   3112188168564293807258000019                                                  N                     01321  0000000        000058
12042956441000101SOLUCOES ACO USIMINAS                                                 0000000034100000000000000000000000000000841725490000002188168570016884902     201208302012070500000000054410000531835000000000552051000000000000000000000000020216050000000000  3020120918   01          2                                                                                   3112188168572293807258000019                                                  N                     01321  0000000        000059
12042956441000101SOLUCOES ACO USIMINAS                                                 0000000034100000000000000000000000000000841725500000002188168580016885102     201208302012070500000000054410000219722000000000228063000000000000000000000000008341050000000000  3020120918   01          2                                                                                   3112188168580293807258000049                                                  N                     01321  0000000        000060
12042956441000101SOLUCOES ACO USIMINAS                                                 0000000034100000000000000000000000000000841725510000002188168590016891202     201208302012070500000000054410001132543000000001175578000000000000000000000000043035050000000000  3020120918   01          2                                                                                   3112188168598293807258000019                                                  N                     01321  0000000        000061
12042956441000101SOLUCOES ACO USIMINAS                                                 0000000034100000000000000000000000000000841725520000002188168600016891402     201208302012070500000000054410000795232000000000825442000000000000000000000000030210050000000000  3020120918   01          2                                                                                   3112188168606293807258000019                                                  N                     01321  0000000        000062
12042956441000101SOLUCOES ACO USIMINAS                                                 0000000034100000000000000000000000000000841725530000002188168610016891502     201208302012070500000000054410001128343000000001171226000000000000000000000000042883050000000000  3020120918   01          2                                                                                   3112188168614293807258000089                                                  N                     01321  0000000        000063
12042956441000101SOLUCOES EM ACO USIMINAS S A                                          000000000010000000000000000000000000000083482047000000086548000000166813003   201209172012062600000000054590000391569000000000392352000000000000000000000000000783050000000000  3020120918   01          2                                                                                   3000000169660100000865481719                                                  N                     01321  0000000        000064
12042956441000101SOLUCOES EM ACO USIMINAS S A                                          000000000010000000000000000000000000000083482050000000086554000000166815003   201209172012062600000000054590000649087000000000650385000000000000000000000000001298050000000000  3020120918   01          2                                                                                   3000000169660100000865541789                                                  N                     01321  0000000        000065
12042956441000101SOLUCOES EM ACO USIMINAS S A                                          000000000010000000000000000000000000000083482053000000086560000000166827003   201209172012062600000000054590000577023000000000578177000000000000000000000000001154050000000000  3020120918   01          2                                                                                   3000000169660100000865601719                                                  N                     01321  0000000        000066
12042956441000101SOLUCOES EM ACO USIMINAS S A                                          000000000010000000000000000000000000000083482056000000086563000000166828003   201209172012062600000000054590000325384000000000326035000000000000000000000000000651050000000000  3020120918   01          2                                                                                   3000000169660100000865631789                                                  N                     01321  0000000        000067
12042956441000101SOLUCOES EM ACO USIMINAS S A                                          000000000010000000000000000000000000000083482059000000086566000000166829003   201209172012062600000000054590000125200000000000125450000000000000000000000000000250050000000000  3020120918   01          2                                                                                   3000000169660100000865661769                                                  N                     01321  0000000        000068
12042956441000101SOLUCOES ACO USIMINAS                                                 0000000034100000000000000000000000000000850740460000002233586800017127201     201208202012072000000000054310000137881000000000145885000000000000000000000000008004050000000000  3020120918   01          2                                                                                   3112233586802293807258000019                                                  N                     01321  0000000        000069
12042956441000101SOLUCOES ACO USIMINAS                                                 0000000034100000000000000000000000000000850740470000002233586810017101002     201209142012071900000000054560000732575000000000738435000000000000000000000000005860050000000000  3020120918   01          2                                                                                   3112233586810293807258000019                                                  N                     01321  0000000        000070
12042956441000101SOLUCOES ACO USIMINAS                                                 0000000034100000000000000000000000000000819545020000002078930840016239503     201208222012052900000000054330001126072000000001186876000000000000000000000000060804050000000000  3020120918   01          2                                                                                   3112078930842293807258000019                                                  N                     01321  0000000        000071
12042956441000101SOLUCOES ACO USIMINAS                                                 0000000034100000000000000000000000000000850740480000002233586820017101202     201209142012071900000000054560000144634000000000145790000000000000000000000000001156050000000000  3020120918   01          2                                                                                   3112233586828293807258000029                                                  N                     01321  0000000        000072
12042956441000101SOLUCOES ACO USIMINAS                                                 0000000034100000000000000000000000000000850740490000002233586830017126902     201209172012072000000000054590000208392000000000208809000000000000000000000000000417050000000000  3020120918   01          2                                                                                   3112233586836293807258000089                                                  N                     01321  0000000        000073
12042956441000101SOLUCOES ACO USIMINAS                                                 0000000034100000000000000000000000000000825740790000002106974460016399003     201208292012060600000000054400000203068000000000211188000000000000000000000000008120050000000000  3020120918   01          2                                                                                   3112106974465293807258000089                                                  N                     01321  0000000        000074
12042956441000101SOLUCOES ACO USIMINAS                                                 0000000034100000000000000000000000000000850740500000002233586840017127002     201209172012072000000000054590000190428000000000190809000000000000000000000000000381050000000000  3020120918   01          2                                                                                   3112233586844293807258000019                                                  N                     01321  0000000        000075
12042956441000101SOLUCOES ACO USIMINAS                                                 0000000034100000000000000000000000000000850740510000002233586850017127102     201209172012072000000000054590000167727000000000168062000000000000000000000000000335050000000000  3020120918   01          2                                                                                   3112233586851293807258000039                                                  N                     01321  0000000        000076
12042956441000101SOLUCOES EM ACO USIMINAS S A                                          000000000010000000000000000000000000000083482044000000086545000000166812003   201209172012062600000000054590000608955000000000610173000000000000000000000000001218050000000000  3020120918   01          2                                                                                   3000000169660100000865451759                                                  N                     01321  0000000        000077
12042956441000101SOLUCOES ACO USIMINAS                                                 0000000034100000000000000000000000000000856906420000002262886290017266301     201208282012073000000000054390000145069000000000151159000000000000000000000000006090050000000000  3020120918   01          2                                                                                   3112262886297293807258000099                                                  N                     01321  0000000        000078
12042956441000101SOLUCOES ACO USIMINAS                                                 0000000034100000000000000000000000000000858616290000002271409670017315101     201208302012080200000000054410000579548000000000601569000000000000000000000000022021050000000000  3020120918   01          2                                                                                   3112271409677293807258000099                                                  N                     01321  0000000        000079
12042956441000101SOLUCOES ACO USIMINAS                                                 0000000034100000000000000000000000000000858616320000002271409680017316001     201208302012080200000000054410000929730000000000965051000000000000000000000000035321050000000000  3020120918   01          2                                                                                   3112271409685293807258000039                                                  N                     01321  0000000        000080
12042956441000101SOLUCOES ACO USIMINAS                                                 0000000034100000000000000000000000000000858616330000002271409690017319301     201208302012080200000000054410000981820000000001019136000000000000000000000000037316050000000000  3020120918   01          2                                                                                   3112271409693293807258000039                                                  N                     01321  0000000        000081
12042956441000101SOLUCOES ACO USIMINAS                                                 0000000034100000000000000000000000000000858616340000002271409700017319401     201208302012080200000000054410000178956000000000185758000000000000000000000000006802050000000000  3020120918   01          2                                                                                   3112271409701293807258000089                                                  N                     01321  0000000        000082
12042956441000101SOLUCOES ACO USIMINAS                                                 0000000034100000000000000000000000000000858616350000002271409710017319501     201208302012080200000000054410000197439000000000204944000000000000000000000000007505050000000000  3020120918   01          2                                                                                   3112271409719293807258000049                                                  N                     01321  0000000        000083
12042956441000101SOLUCOES ACO USIMINAS                                                 0000000034100000000000000000000000000000825740800000002106974470016399203     201208292012060600000000054400000450363000000000468383000000000000000000000000018020050000000000  3020120918   01          2                                                                                   3112106974473293807258000039                                                  N                     01321  0000000        000084
12042956441000101SOLUCOES ACO USIMINAS                                                 0000000034100000000000000000000000000000825740810000002106974480016399403     201208292012060600000000054400000431213000000000448453000000000000000000000000017240050000000000  3020120918   01          2                                                                                   3112106974481293807258000099                                                  N                     01321  0000000        000085
12042956441000101SOLUCOES ACO USIMINAS                                                 0000000034100000000000000000000000000000847452100000002216130340017012402     201209102012071500000000054520000147428000000000149788000000000000000000000000002360050000000000  3020120918   01          2                                                                                   3112216130347293807258000059                                                  N                     01321  0000000        000086
12042956441000101SOLUCOES EM ACO USIMINAS S A                                          000000000010000000000000000000000000000082978008000000080344000000057592003   201209102012061800000000054520001055670000000001072558000000000000000000000000016888050000000000  3020120918   01          2                                                                                   3000000169660100000803441719                                                  N                     01321  0000000        000087
12042956441000101SOLUCOES EM ACO USIMINAS S A                                          000000000010000000000000000000000000000082978011000000080476000000057680003   201209102012061800000000054520000431770000000000438682000000000000000000000000006912050000000000  3020120918   01          2                                                                                   3000000169660100000804761729                                                  N                     01321  0000000        000088
12042956441000101SOLUCOES EM ACO USIMINAS S A                                          000000000010000000000000000000000000000082978017000000081232000000165560003   201209102012061800000000054520000341008000000000346464000000000000000000000000005456050000000000  3020120918   01          2                                                                                   3000000169660100000812321769                                                  N                     01321  0000000        000089
12042956441000101SOLUCOES EM ACO USIMINAS S A                                          000000000010000000000000000000000000000083138704000000083117000000165994003   201209112012062000000000054530000233496000000000236765000000000000000000000000003269050000000000  3020120918   01          2                                                                                   3000000169660100000831171729                                                  N                     01321  0000000        000090
12042956441000101SOLUCOES ACO USIMINAS                                                 0000000034100000000000000000000000000000858616360000002271409720017319601     201208302012080200000000054410000197103000000000204589000000000000000000000000007486050000000000  3020120918   01          2                                                                                   3112271409727293807258000019                                                  N                     01321  0000000        000091
12042956441000101SOLUCOES ACO USIMINAS                                                 0000000034100000000000000000000000000000858616370000002271409730017319701     201208302012080200000000054410000197271000000000204776000000000000000000000000007505050000000000  3020120918   01          2                                                                                   3112271409735293807258000019                                                  N                     01321  0000000        000092
12042956441000101SOLUCOES EM ACO USIMINAS S A                                          000000000010000000000000000000000000000083138709000000082600000000057848003   201209122012062000000000054540000190073000000000192353000000000000000000000000002280050000000000  3020120918   01          2                                                                                   3000000169660100000826001769                                                  N                     01321  0000000        000093
12042956441000101SOLUCOES EM ACO USIMINAS S A                                          000000000010000000000000000000000000000083218056000000083600000000057906003   201209132012062100000000054550000698618000000000705603000000000000000000000000006985050000000000  3020120918   01          2                                                                                   3000000169660100000836001769                                                  N                     01321  0000000        000094
12042956441000101SOLUCOES EM ACO USIMINAS S A                                          000000000010000000000000000000000000000083306906000000084914000000166430003   201209132012062200000000054550000193852000000000195792000000000000000000000000001940050000000000  3020120918   01          2                                                                                   3000000169660100000849141719                                                  N                     01321  0000000        000095
12042956441000101SOLUCOES EM ACO USIMINAS S A                                          000000000010000000000000000000000000000083306908000000084917000000166431003   201209132012062200000000054550000484521000000000489366000000000000000000000000004845050000000000  3020120918   01          2                                                                                   3000000169660100000849171769                                                  N                     01321  0000000        000096
12042956441000101SOLUCOES EM ACO USIMINAS S A                                          000000000010000000000000000000000000000083306910000000084495000000057981003   201209142012062200000000054560000329929000000000332569000000000000000000000000002640050000000000  3020120918   01          2                                                                                   3000000169660100000844951789                                                  N                     01321  0000000        000097
12042956441000101SOLUCOES ACO USIMINAS                                                 0000000034100000000000000000000000000000824061850000002100925420016380503     201208292012060500000000054400000215523000000000224143000000000000000000000000008620050000000000  3020120918   01          2                                                                                   3112100925422293807258000039                                                  N                     01321  0000000        000098
12042956441000101SOLUCOES ACO USIMINAS                                                 0000000034100000000000000000000000000000824061860000002100925430016380703     201208292012060500000000054400000216699000000000225359000000000000000000000000008660050000000000  3020120918   01          2                                                                                   3112100925430293807258000079                                                  N                     01321  0000000        000099
12042956441000101SOLUCOES ACO USIMINAS                                                 0000000034100000000000000000000000000000848180700000002220192900017041002     201209112012071700000000054530000155433000000000157610000000000000000000000000002177050000000000  3020120918   01          2                                                                                   3112220192903293807258000029                                                  N                     01321  0000000        000100
12042956441000101SOLUCOES ACO USIMINAS                                                 0000000034100000000000000000000000000000858616380000002271409740017319801     201208302012080200000000054410000194583000000000201974000000000000000000000000007391050000000000  3020120918   01          2                                                                                   3112271409743293807258000019                                                  N                     01321  0000000        000101
12042956441000101SOLUCOES ACO USIMINAS                                                 0000000034100000000000000000000000000000846595700000002210880280016980502     201209102012071200000000054520000156071000000000158567000000000000000000000000002496050000000000  3020120918   01          2                                                                                   3112210880285293807258000039                                                  N                     01321  0000000        000102
12042956441000101SOLUCOES ACO USIMINAS                                                 0000000034100000000000000000000000000000846595710000002210880290016980602     201209102012071200000000054520000426094000000000432910000000000000000000000000006816050000000000  3020120918   01          2                                                                                   3112210880293293807258000019                                                  N                     01321  0000000        000103
12042956441000101SOLUCOES ACO USIMINAS                                                 0000000034100000000000000000000000000000847452070000002216130350005922202     201209102012071600000000054520000172071000000000174823000000000000000000000000002752050000000000  3020120918   01          2                                                                                   3112216130354293807258000049                                                  N                     01321  0000000        000104
12042956441000101SOLUCOES EM ACO USIMINAS S A                                          000000000010000000000000000000000000000083482042000000086551000000166814003   201209172012062600000000054590000317656000000000318291000000000000000000000000000635050000000000  3020120918   01          2                                                                                   3000000169660100000865511779                                                  N                     01321  0000000        000105
12042956441000101SOLUCOES ACO USIMINAS                                                 0000000034100000000000000000000000000000855028660000002254329280017200301     201208232012072600000000054340000156943000000000165107000000000000000000000000008164050000000000  3020120918   01          2                                                                                   3112254329280293807258000019                                                  N                     01321  0000000        000106
12042956441000101SOLUCOES ACO USIMINAS                                                 0000000034100000000000000000000000000000853154910000002246247000017196701     201208232012072500000000054340000234911000000000247131000000000000000000000000012220050000000000  3020120918   01          2                                                                                   3112246247004293807258000019                                                  N                     01321  0000000        000107
12042956441000101SOLUCOES ACO USIMINAS                                                 0000000034100000000000000000000000000000856906410000002262886280017266201     201208282012073000000000054390000119472000000000124491000000000000000000000000005019050000000000  3020120918   01          2                                                                                   3112262886289293807258000089                                                  N                     01321  0000000        000108
12042956441000101SOLUCOES ACO USIMINAS                                                 0000000034100000000000000000000000000000844063830000002198870030016923302     201209042012071000000000054460000442972000000000454490000000000000000000000000012404050000000000  3020120917   06          3                                                                                   3112198870035293807258000059                                                  N                     01321  0000000        000109
12042956441000101SOLUCOES ACO USIMINAS                                                 0000000034100000000000000000000000000000861207220000002282166980017385801     201209042012080700000000054460000715010000000000733600000000000000000000000000020020050000000000  3020120917   06          3                                                                                   3112282166985293807258000089                                                  N                     01321  0000000        000110
12042956441000101SOLUCOES ACO USIMINAS                                                 0000000034100000000000000000000000000000826558320000002112172760016459403     201209042012061100000000054460000747525000000000766960000000000000000000000000020930050000000000  3020120917   06          3                                                                                   3112112172765293807258000089                                                  N                     01321  0000000        000111
12042956441000101SOLUCOES ACO USIMINAS                                                 0000000034100000000000000000000000000000826558340000002112172780016459803     201209042012061100000000054460000155721000000000159764000000000000000000000000004354050000000000  3020120917   06          3                                                                                   3112112172781293807258000099                                                  N                     01321  0000000        000112
12042956441000101SOLUCOES ACO USIMINAS                                                 0000000034100000000000000000000000000000826558360000002112172750016459203     201209042012061100000000054460000123455000000000126666000000000000000000000000003458050000000000  3020120917   06          3                                                                                   3112112172757293807258000049                                                  N                     01321  0000000        000113
12042956441000101SOLUCOES ACO USIMINAS                                                 0000000034100000000000000000000000000000826558270000002112172740016458803     201209042012061100000000054460000231416000000000237435000000000000000000000000006482050000000000  3020120917   06          3                                                                                   3112112172740293807258000059                                                  N                     01321  0000000        000114
12043217850000159IOB INFORMACOES OBJ  PUBL JURI                                        0000000023702374400000002958600 000000008540495200902212000099001440820E4     201208202012073000000000054310000072850000000000075003000000000000000000000000002153050000000000  3020120918   01          2  GANGES 528 VL NOVA MANCHESTER                                                    3                         000000000000000                                     N                     00598  0000000        000115
12043298975000150JOMARCA INDL DE PARAFUSOS LTDA                                        000000003410000000000000000000000000000084571469000000210955706143134 03      201209092012061100000000054510000180570000000000180570000000000000000000000000000000050000000000  3020120910   05          3                                                                                   3112109557069144674756800049                                                  N                     01321  0000000        000116
12044098788000196MAIAMI COM E IMP DE ROLAMENTOS                                        0000000023700503700000000367516 0000000086699211009022330000001010061         201209072012081700000000054490000015000000000000015550000000000000000000000000000550050000000000  3020120918   01          2  RUA GANGES 528 VL CARRAO                                                         3                         000000000000000                                     N                     00598  0000000        000117
12048775225000146SEIKI IND COM E CONFECCOES LTD                                        000000003410000000000000000000000000000086615423000000230404780013963001      201209122012081500000000054540000052000000000000052468000000000000000000000000000468050000000000  3020120918   01          2                                                                                   3112304047809017444824100079                                                  N                     01321  0000000        000118
12049341563000132JAC COMERCIO DE MATERIAIS ELET                                        0000000023700293300000001478699 000000008835083900201322610636122736          201210122012091700000000054840000027274000000000027274000000000000000000000000000000050000000000  3020121015   01FS        1  R GANGES 528                                                                     3                         000000000000000                                     N                     00598  0000000        000119
12051180370000199IGUAFER FERRO E ACO LTDA                                              0000000034100000000000000000000000000000852309100000002239389789443 B         201209022012071800000000054440000168275000000000172755000000000000000000000000004480050000000000  3020120918   01          2                                                                                   3112239389789077149484600089                                                  N                     01321  0000000        000120
12051180370000199IGUAFER FERRO E ACO LTDA                                              0000000034100000000000000000000000000000852309110000002239389799443 C         201209122012071800000000054540000168275000000000169955000000000000000000000000001680050000000000  3020120918   01          2                                                                                   3112239389797077149484600089                                                  N                     01321  0000000        000121
12052559499000175BOMAX NO BRASIL EQUIP INDS LT                                         0000000034100000000000000000000000000000852309140000002238631910000015611     201209172012071900000000054590000179150000000000179502000000000000000000000000000352050000000000  3020120918   01          2                                                                                   3112238631918324705000200079                                                  N                     01321  0000000        000122
12053585766000141MULTIACOS I C PRODS TEC LTDA                                          0000000042200000000000000000000000000000875773270000000000000000004421902     201209172012082100000000054590000942203000000000943772000000000000000000000000001569050000000000  3020120918   01          2                                                                                   3711500005033164914700545149                                                  N                     01321  0000000        000123
12053585766000141MULTIACOS I C PRODS TEC LTDA                                          0000000042200000000000000000000000000000875773280000000000000000004493701     201209172012082100000000054590000185498000000000185806000000000000000000000000000308050000000000  3020120918   01          2                                                                                   3711500005033164914700537139                                                  N                     01321  0000000        000124
12053585766000141MULTIACOS INDUSTRIA E COMERCIO                                        0000000000100000000000000000000000000000878205530000006553800000004429702     201209172012082800000000054590000624532000000000625573000000000000000000000000001041050000000000  3020120918   01          2                                                                                   3044016553801912000139523189                                                  N                     01321  0000000        000125
12053585766000141MULTIACOS INDUSTRIA E COMERCIO                                        0000000000100000000000000000000000000000878205570000006554440000004493801     201209172012082800000000054590000853202000000000854624000000000000000000000000001422050000000000  3020120918   01          2                                                                                   3044016554441912000139523169                                                  N                     01321  0000000        000126
12053585766000141MULTIACOS COM DE PRODUTOS TECN                                        0000000023703398700000000011290 00000000867622130020223400000290004411802     201209142012072000000000054560000585031000000000588931000000000000000000000000003900050000000000  3020120918   01          2  RUA JUNO  533                                                                    3                         000000000000000                                     N                     00598  0000000        000127
12053585766000141MULTIACOS I C PRODS TEC LTDA                                          0000000042200000000000000000000000000000883508150000000000000000004553202     201210112012091300000000054830001115009000000001115009000000000000000000000000000000050000000000  3020121011   01FS        1                                                                                   3711500005033164921116446119                                                  N                     01321  0000000        000128
12053585766000141MULTIACOS I C PRODS TEC LTDA                                          0000000042200000000000000000000000000000883508160000000000000000004674602     201211062012091300000000055090000126819000000000126819000000000000000000000000000000050000000000  3020121106   01FS        1                                                                                   3711500005033164921116454189                                                  N                     01321  0000000        000129
12053585766000141MULTIACOS I C PRODS TEC LTDA                                          0000000042200000000000000000000000000000883508170000000000000000004674501     201210232012091300000000054950000282316000000000282316000000000000000000000000000000050000000000  3020121023   01FS        1                                                                                   3711500005033164921116471119                                                  N                     01321  0000000        000130
12053585766000141MULTIACOS I C PRODS TEC LTDA                                          0000000042200000000000000000000000000000883508180000000000000000004584602     201210182012091300000000054900000339224000000000339224000000000000000000000000000000050000000000  3020121018   01FS        1                                                                                   3711500005033164921116527149                                                  N                     01321  0000000        000131
12053585766000141MULTIACOS I C PRODS TEC LTDA                                          0000000042200000000000000000000000000000883508190000000000000000004584603     201211012012091300000000055040000339224000000000339224000000000000000000000000000000050000000000  3020121101   01FS        1                                                                                   3711500005033164921116535119                                                  N                     01321  0000000        000132
12053585766000141MULTIACOS I C PRODS TEC LTDA                                          0000000042200000000000000000000000000000883508200000000000000000004674502     201211062012091300000000055090000274012000000000274012000000000000000000000000000000050000000000  3020121106   01FS        1                                                                                   3711500005033164921116489119                                                  N                     01321  0000000        000133
12053585766000141MULTIACOS I C PRODS TEC LTDA                                          0000000042200000000000000000000000000000883508210000000000000000004584802     201210182012091300000000054900000379244000000000379244000000000000000000000000000000050000000000  3020121018   01FS        1                                                                                   3711500005033164921116543159                                                  N                     01321  0000000        000134
12053585766000141MULTIACOS I C PRODS TEC LTDA                                          0000000042200000000000000000000000000000883508220000000000000000004674503     201211202012091300000000055230000274012000000000274012000000000000000000000000000000050000000000  3020121120   01FS        1                                                                                   3711500005033164921116497199                                                  N                     01321  0000000        000135
12053585766000141MULTIACOS I C PRODS TEC LTDA                                          0000000042200000000000000000000000000000883508230000000000000000004674401     201210232012091300000000054950000397384000000000397384000000000000000000000000000000050000000000  3020121023   01FS        1                                                                                   3711500005033164921116501119                                                  N                     01321  0000000        000136
12053585766000141MULTIACOS I C PRODS TEC LTDA                                          0000000042200000000000000000000000000000883508240000000000000000004674603     201211202012091300000000055230000126819000000000126819000000000000000000000000000000050000000000  3020121120   01FS        1                                                                                   3711500005033164921116462169                                                  N                     01321  0000000        000137
12053585766000141MULTIACOS I C PRODS TEC LTDA                                          0000000042200000000000000000000000000000883508250000000000000000004553203     201210252012091300000000054970001115009000000001115009000000000000000000000000000000050000000000  3020121025   01FS        1                                                                                   3711500005033164921116519149                                                  N                     01321  0000000        000138
12053585766000141MULTIACOS I C PRODS TEC LTDA                                          0000000042200000000000000000000000000000883508260000000000000000004585103     201211012012091300000000055040000222786000000000222786000000000000000000000000000000050000000000  3020121101   01FS        1                                                                                   3711500005033164921116578119                                                  N                     01321  0000000        000139
12053585766000141MULTIACOS I C PRODS TEC LTDA                                          0000000042200000000000000000000000000000883508270000000000000000004585402     201210182012091300000000054900001047733000000001047733000000000000000000000000000000050000000000  3020121018   01FS        1                                                                                   3711500005033164921116586119                                                  N                     01321  0000000        000140
12053585766000141MULTIACOS I C PRODS TEC LTDA                                          0000000042200000000000000000000000000000883508280000000000000000004539303     201210232012091300000000054950001021454000000001021454000000000000000000000000000000050000000000  3020121023   01FS        1                                                                                   3711500005033164921116608159                                                  N                     01321  0000000        000141
12053585766000141MULTIACOS I C PRODS TEC LTDA                                          0000000042200000000000000000000000000000883508290000000000000000004539302     201210092012091300000000054810001021454000000001021454000000000000000000000000000000050000000000  3020121009   01FS        1                                                                                   3711500005033164921116594119                                                  N                     01321  0000000        000142
12053585766000141MULTIACOS I C PRODS TEC LTDA                                          0000000042200000000000000000000000000000883508300000000000000000004584803     201211012012091300000000055040000379244000000000379244000000000000000000000000000000050000000000  3020121101   01FS        1                                                                                   3711500005033164921116551119                                                  N                     01321  0000000        000143
12053585766000141MULTIACOS I C PRODS TEC LTDA                                          0000000042200000000000000000000000000000883508310000000000000000004585102     201210182012091300000000054900000222786000000000222786000000000000000000000000000000050000000000  3020121018   01FS        1                                                                                   3711500005033164921116560119                                                  N                     01321  0000000        000144
12054382510000108SETENTA IND E COM DE MADEIRAS                                         0000000034100000000000000000000000000000883508330000002392776804604 A         201210082012091300000000054800000116600000000000116600000000000000000000000000000000050000000000  3020121008   01FS        1                                                                                   3112392776806057049175300019                                                  N                     01321  0000000        000145
12054382510000108SETENTA IND E COM DE MADEIRAS                                         0000000034100000000000000000000000000000860403430000002277814474462 A         201209042012080700000000054460000191200000000000196464000000000000000000000000005264050000000000  3020120918   01          2                                                                                   3112277814474057049175300069                                                  N                     01321  0000000        000146
12056667629000144COMERCIAL BERENELI LTDA                                               0000000034100000000000000000000000000000883508340000002391705930000011394     201210012012090300000000054730000061720000000000061720000000000000000000000000000000050000000000  3020121001   01FS        1                                                                                   3112391705939858006440300019                                                  N                     01321  0000000        000147
12056993512000150CYKLOP DO BRASIL EMBALAGENS SA                                        0000000034100000000000000000000000000000878205080000002299329080132528        201209112012081400000000054530000083607000000000085756000000000000000000000000002149050000000000  3020120918   01          2                                                                                   3112299329089025786126000099                                                  N                     01321  0000000        000148
12056993900000131CIA METALURGICA PRADA                                                 0000000034100000000000000000000000000000855028550000002254750250026244301     201208272012072800000000054380000100986000000000104682000000000000000000000000003696050000000000  3020120918   01          2                                                                                   3112254750253293800573900099                                                  N                     01321  0000000        000149
12056993900000131CIA METALURGICA PRADA                                                 0000000034100000000000000000000000000000855028560000002254750260026244401     201208272012072800000000054380000084368000000000087470000000000000000000000000003102050000000000  3020120918   01          2                                                                                   3112254750261293800573900089                                                  N                     01321  0000000        000150
12056993900000131CIA METALURGICA PRADA                                                 0000000034100000000000000000000000000000838527910000002171340450025383502     201208272012063000000000054380000575128000000000596226000000000000000000000000021098050000000000  3020120918   01          2                                                                                   3112171340451293800573900039                                                  N                     01321  0000000        000151
12056993900000131CIA METALURGICA PRADA                                                 0000000034100000000000000000000000000000824820100000002102181160024711603     201208292012060600000000054400000833146000000000860926000000000000000000000000027780050000000000  3020120918   01          2                                                                                   3112102181164293800573900039                                                  N                     01321  0000000        000152
12056993900000131CIA METALURGICA PRADA                                                 0000000034100000000000000000000000000000838527920000002171340460025384302     201208272012063000000000054380000454477000000000471131000000000000000000000000016654050000000000  3020120918   01          2                                                                                   3112171340469293800573900019                                                  N                     01321  0000000        000153
12056993900000131CIA METALURGICA PRADA                                                 0000000034100000000000000000000000000000840312930000002179478290025419302     201208282012070300000000054390000402178000000000416248000000000000000000000000014070050000000000  3020120918   01          2                                                                                   3112179478295293800573900089                                                  N                     01321  0000000        000154
12056993900000131CIA METALURGICA PRADA                                                 0000000034100000000000000000000000000000840312940000002179478300025419402     201208282012070300000000054390000322804000000000334102000000000000000000000000011298050000000000  3020120918   01          2                                                                                   3112179478303293800573900079                                                  N                     01321  0000000        000155
12056993900000131CIA METALURGICA PRADA                                                 0000000034100000000000000000000000000000848180620000002218222670025829902     201209112012071700000000054530000498118000000000503928000000000000000000000000005810050000000000  3020120918   01          2                                                                                   3112218222670293800573900029                                                  N                     01321  0000000        000156
12056993900000131CIA METALURGICA PRADA                                                 0000000034100000000000000000000000000000848180630000002218222680025830002     201209112012071700000000054530000247673000000000250564000000000000000000000000002891050000000000  3020120918   01          2                                                                                   3112218222688293800573900059                                                  N                     01321  0000000        000157
12056993900000131CIA METALURGICA PRADA                                                 0000000034100000000000000000000000000000848180640000002218222690025830102     201209112012071700000000054530000207402000000000209824000000000000000000000000002422050000000000  3020120918   01          2                                                                                   3112218222696293800573900039                                                  N                     01321  0000000        000158
12056993900000131CIA METALURGICA PRADA                                                 0000000034100000000000000000000000000000820562300000002080193680024478203     201208222012053000000000054330000113250000000000118353000000000000000000000000005103050000000000  3020120918   01          2                                                                                   3112080193686293800573900049                                                  N                     01321  0000000        000159
12056993900000131CIA METALURGICA PRADA                                                 0000000034100000000000000000000000000000820562310000002080193690024478303     201208222012053000000000054330000288295000000000301255000000000000000000000000012960050000000000  3020120918   01          2                                                                                   3112080193694293800573900029                                                  N                     01321  0000000        000160
12056993900000131CIA METALURGICA PRADA                                                 0000000034100000000000000000000000000000820562320000002080193700024499403     201208222012053000000000054330000597722000000000624614000000000000000000000000026892050000000000  3020120918   01          2                                                                                   3112080193702293800573900019                                                  N                     01321  0000000        000161
12056993900000131CIA METALURGICA PRADA                                                 0000000034100000000000000000000000000000820562330000002080193710024499503     201208222012053000000000054330000236585000000000247223000000000000000000000000010638050000000000  3020120918   01          2                                                                                   3112080193710293800573900019                                                  N                     01321  0000000        000162
12056993900000131CIA METALURGICA PRADA                                                 0000000034100000000000000000000000000000822364950000002089776730024584703     201208242012060100000000054350000835797000000000870622000000000000000000000000034825050000000000  3020120918   01          2                                                                                   3112089776739293800573900019                                                  N                     01321  0000000        000163
12056993900000131CIA METALURGICA PRADA                                                 0000000034100000000000000000000000000000822364960000002089776740024585703     201208242012060100000000054350000393990000000000410415000000000000000000000000016425050000000000  3020120918   01          2                                                                                   3112089776747293800573900059                                                  N                     01321  0000000        000164
12056993900000131CIA METALURGICA PRADA                                                 0000000034100000000000000000000000000000844839030000002201181910025635502     201209052012071100000000054470000164780000000000168355000000000000000000000000003575050000000000  3020120918   01          2                                                                                   3112201181917293800573900029                                                  N                     01321  0000000        000165
12056993900000131CIA METALURGICA PRADA                                                 0000000034100000000000000000000000000000844839040000002201181920025635602     201209052012071100000000054470000339933000000000347304000000000000000000000000007371050000000000  3020120918   01          2                                                                                   3112201181925293800573900069                                                  N                     01321  0000000        000166
12056993900000131CIA METALURGICA PRADA                                                 0000000034100000000000000000000000000000844839140000002201181870025629302     201209052012071100000000054470000257906000000000263496000000000000000000000000005590050000000000  3020120918   01          2                                                                                   3112201181875293800573900069                                                  N                     01321  0000000        000167
12056993900000131CIA METALURGICA PRADA                                                 0000000034100000000000000000000000000000837460360000002165934320025295402     201208232012062800000000054340000152797000000000159172000000000000000000000000006630050000000000  3020120917   06          3                                                                                   3112165934327293800573900029                                                  N                     01321  0000000        000168
12056993900000131CIA METALURGICA PRADA                                                 0000000034100000000000000000000000000000837460370000002165934330025295502     201208232012062800000000054340000339049000000000353174000000000000000000000000014690050000000000  3020120917   06          3                                                                                   3112165934335293800573900029                                                  N                     01321  0000000        000169
12056993900000131CIA METALURGICA PRADA                                                 0000000034100000000000000000000000000000837460420000002165934340025295602     201208232012062800000000054340000154164000000000160589000000000000000000000000006682050000000000  3020120917   06          3                                                                                   3112165934343293800573900099                                                  N                     01321  0000000        000170
12056993900000131CIA METALURGICA PRADA                                                 0000000034100000000000000000000000000000837460430000002165934350025295702     201208232012062800000000054340000139528000000000145353000000000000000000000000006058050000000000  3020120917   06          3                                                                                   3112165934350293800573900019                                                  N                     01321  0000000        000171
12056993900000131CIA METALURGICA PRADA                                                 0000000034100000000000000000000000000000821491000000002084501930024572503     201208232012053100000000054340000217291000000000226341000000000000000000000000009412050000000000  3020120917   06          3                                                                                   3112084501934293800573900039                                                  N                     01321  0000000        000172
12056993900000131CIA METALURGICA PRADA                                                 0000000034100000000000000000000000000000844839010000002201181890025635302     201209052012071100000000054470000406842000000000415656000000000000000000000000008814050000000000  3020120918   01          2                                                                                   3112201181891293800573900019                                                  N                     01321  0000000        000173
12056993900000131CIA METALURGICA PRADA                                                 0000000034100000000000000000000000000000844839020000002201181900025635402     201209052012071100000000054470000208689000000000213213000000000000000000000000004524050000000000  3020120918   01          2                                                                                   3112201181909293800573900069                                                  N                     01321  0000000        000174
12056993900000131CIA METALURGICA PRADA                                                 0000000034100000000000000000000000000000844839050000002201181930025636202     201209052012071100000000054470000746213000000000762385000000000000000000000000016172050000000000  3020120918   01          2                                                                                   3112201181933293800573900019                                                  N                     01321  0000000        000175
12056993900000131CIA METALURGICA PRADA                                                 0000000034100000000000000000000000000000844839060000002201181940025644402     201209052012071100000000054470000779647000000000796534000000000000000000000000016887050000000000  3020120918   01          2                                                                                   3112201181941293800573900019                                                  N                     01321  0000000        000176
12056993900000131CIA METALURGICA PRADA                                                 0000000034100000000000000000000000000000823343300000002094231730024634103     201208272012060400000000054380000135902000000000140896000000000000000000000000004994050000000000  3020120918   01          2                                                                                   3112094231738293800573900079                                                  N                     01321  0000000        000177
12056993900000131CIA METALURGICA PRADA                                                 0000000034100000000000000000000000000000823343310000002094231740024634203     201208272012060400000000054380000247806000000000256892000000000000000000000000009086050000000000  3020120918   01          2                                                                                   3112094231746293800573900019                                                  N                     01321  0000000        000178
12056993900000131CIA METALURGICA PRADA                                                 0000000034100000000000000000000000000000823343330000002094231750024634603     201208272012060400000000054380000124715000000000129291000000000000000000000000004576050000000000  3020120918   01          2                                                                                   3112094231753293800573900039                                                  N                     01321  0000000        000179
12056993900000131CIA METALURGICA PRADA                                                 0000000034100000000000000000000000000000823343340000002094231760024634703     201208272012060400000000054380000508859000000000527515000000000000000000000000018656050000000000  3020120918   01          2                                                                                   3112094231761293800573900019                                                  N                     01321  0000000        000180
12056993900000131CIA METALURGICA PRADA                                                 0000000034100000000000000000000000000000844839000000002201181880025629402     201209052012071100000000054470000249372000000000254780000000000000000000000000005408050000000000  3020120918   01          2                                                                                   3112201181883293800573900019                                                  N                     01321  0000000        000181
12057029431000106ATLAS COPCO BRASIL LTDA                                               0000000034100000000000000000000000000000863731640000002292733057000054146     201209072012081000000000054490000081450000000000082044000000000000000000000000000594050000000000  3020120918   01          2                                                                                   3112292733055293804111400099                                                  N                     01321  0000000        000182
12057029431000106ATLAS COPCO BRASIL LTDA                                               0000000034100000000000000000000000000000861960280000002283943487000054090     201209062012080900000000054480000059490000000000059958000000000000000000000000000468050000000000  3020120918   01          2                                                                                   3112283943481293804111400069                                                  N                     01321  0000000        000183
12057158057000130COMERCIAL ELETRICA PJ LTDA                                            0000000023703394400000000972983 00000000842436850090219200008900000305028     201208012012070400000000054120000079196000000000091820000000000000000000000000012624050000000000  3020120918   01          2  R TAMAINDE 1410                                                                  3                         000000000000000                                     N                     00598  0000000        000184
12059659615000177DZ COMERCIO R E SERVICOS LTDA                                         000000003410000000000000000000000000000086699205000000900000268252            201209172012081500000000054590000060000000000000060120000000000000000000000000000120050000000000  3020120918   01          2                                                                                   3109000002680000314585100059                                                  N                     01321  0000000        000185
12061217188000119TELAS METALICAS TELMETAL LTDA                                         0000000000100000000000000000000000000000863731680000000056110005493 2 3       201209172012081300000000054590000017103000000000017149000000000000000000000000000046050000000000  3020120918   01          2                                                                                   3000000115031800000056111729                                                  N                     01321  0000000        000186
12061217188000119TELAS METALICAS TELMETAL LTDA                                         0000000000100000000000000000000000000000863731700000000056080005492 2 3       201209172012081300000000054590000043177000000000043292000000000000000000000000000115050000000000  3020120918   01          2                                                                                   3000000115031800000056081789                                                  N                     01321  0000000        000187
12061217188000119TELAS METALICAS TELMETAL LTDA                                         0000000000100000000000000000000000000000867622100000000056390005531 1 1       201209142012082000000000054560000032112000000000032456000000000000000000000000000344050000000000  3020120918   01          2                                                                                   3000000115031800000056391719                                                  N                     01321  0000000        000188
12061217188000119TELAS METALICAS TELMETAL LTDA                                         0000000000100000000000000000000000000000867622110000000056400005532 1 3       201209142012082000000000054560000074598000000000075394000000000000000000000000000796050000000000  3020120918   01          2                                                                                   3000000115031800000056401719                                                  N                     01321  0000000        000189
12061217188000119TELAS METALICAS TELMETAL LTDA                                         0000000003300000000000000000000000000000866154300000005100000005518 1 1       201209142012081600000000054560000094659000000000095667000000000000000000000000001008050000000000  3020120918   01          2                                                                                   3915435040000000047651020179                                                  N                     01321  0000000        000190
12062014030000104IMPORTADORA DE ROLAMENTOS RADI                                        0000000000100000000000000000000000000000883508140000005236710000046148001     201210112012091400000000054830000026880000000000026880000000000000000000000000000000050000000000  3020121011   01FS        1                                                                                   3044065236713322002041363129                                                  N                     01321  0000000        000191
12062173661000176INDUFIX IND E COM LTDA                                                0000000023704130000000000085898 000000008550289800702213000001000035860 B     201208302012071600000000054410000057190000000000057665000000000000000000000000000570050000000000  3020120904   06          3  RUA GANGES 528                                                                   3                         000000000000000                                     N                     00598  0000000        000192
12062944582000111AS SOLUCOES COMERCIAL LTDA                                            00000000001000000000000000000000000000008669920400000032054500016090 A        201209132012081700000000054550000027500000000000027660000000000000000000000000000160050000000000  3020120918   01          2                                                                                   3529483205451190000690001719                                                  N                     01321  0000000        000193
12064952757000168WALMAC COM DE PROD QUIMICOS LT                                        0000000034100000000000000000000000000000860403460000002275821710020148        201208312012080300000000054420000219267000000000227025000000000000000000000000007758050000000000  3020120918   01          2                                                                                   3112275821711064807961400079                                                  N                     01321  0000000        000194
12066841552000130R V SEG PATRIMONIAL S C LTDA                                          00000000341000000000000000000000000000008661542000000090002192721927          201209102012081000000000054520000483241000000000484529000000000000000000000000001288050000000000  3020120918   01          2                                                                                   3109000219278001838994000019                                                  N                     01321  0000000        000195
12067088963000160AJAXCOM ELETROMEC E SERVS LTDA                                        000000003410000000000000000000000000000088350838000000795752579359            201210152012091700000000054870000027200000000000027200000000000000000000000000000000050000000000  3020121015   01FS        1                                                                                   3157957525793019941432700039                                                  N                     01321  0000000        000196
12069284248000128ISOCOAT TINTAS E VERNIZES LTDA                                        0000000034100000000000000000000000000000841061040000002182507930052085        201209172012070200000000054590000236130000000000236760000000000000000000000000000630050000000000  3020120918   01          2                                                                                   3112182507932077430121200019                                                  N                     01321  0000000        000197
12069284248000128ISOCOAT TINTAS E VERNIZES LTDA                                        0000000034100000000000000000000000000000856906380000002259392820053390        201209142012073100000000054560000055579000000000056171000000000000000000000000000592050000000000  3020120918   01          2                                                                                   3112259392820077430121200029                                                  N                     01321  0000000        000198
12069309706000136F N A TRANSPORTES LTDA                                                000000003410000000000000000000000000000086615421000000900010656059068         201208302012081500000000054410000079200000000000084216000000000000000000000000005016050000000000  3020120918   01          2                                                                                   3109000106565005486932600099                                                  N                     01321  0000000        000199
