0000147602043799295000110ALTAMIRA INDUSTRIA METALURGICA LT       202000000019120121219061416             1                                                                                                                                                                                                                                                                                                                                                                                                    000001
12001895314000162COLETA INDUSTRIAL FIMAVAN LTDA                                        00000000341000000000000000000000000000009420498100000090023730513396          201212272012121700000000055600000103671000000000103671000000000000000000000000000000050000000000  3020121227   01FS        1                                                                                   3109002373057144604097200099                                                  N                     01321  0000000        000002
12001895314000162COLETA INDUSTRIAL FIMAVAN LTDA                                        0000000034100000000000000000000000000000866992070000009002335349439           201208272012081700000000054380000123695000000000163675000000000000000000000000039980050000000000  3020121219   01          2                                                                                   3109002335346144604097200019                                                  N                     01321  0000000        000003
12003370710000100ALTIZA TRANSPORTES LTDA                                               0000000010400000000000000000000000000000942049570000000009300003815           201212282012121700000000055610000114100000000000114100000000000000000000000000000000050000000000  3020121228   01FS        1                                                                                   3284848190110104000000930089                                                  N                     01321  0000000        000004
12003489596000123BEND FLEX I COMERCIO LTDA                                             000000003410000000000000000000000000000088350832000000171879874608            201209122012082100000000054540000695250000000000829216000000000000000000000000133966050000000000  3020121219   01          2                                                                                   3191718798744157734445800069                                                  N                     01321  0000000        000005
12003489596000123BEND FLEX I COMERCIO LTDA                                             000000003410000000000000000000000000000088599899000000171434574613            201209172012081600000000054590000585000000000000692043000000000000000000000000107043050000000000  3020121219   01          2                                                                                   3191714345748157734445800019                                                  N                     01321  0000000        000006
12005151518000140BELENUS DO BRASIL LTDA                                                000000000010000000000000000000000000000090666247000000256134000R131917022     201212182012102300000000055510000460800000000000462321000000000000000000000000001521050000000000  3020121219   01          2                                                                                   3000000123933844172561343169                                                  N                     01321  0000000        000007
12005880850000145NEDERMAN BRASIL COM PROD EX LT                                        000000003410000000000000000000000000000086373178000000614350956002763 A       201209252012081400000000054670000289674000000000338124000000000000000000000000048450050000000000  3020121219   01          2                                                                                   3156143509568160829000100049                                                  N                     01321  0000000        000008
12006000195000156MBA MERCANTIL BRAS DE ACO LTDA                                        0000000034100000000000000000000000000000904173150000001667238300008870B03     201210092012071600000000054810000839951000000000957243000000000000000000000000117292050000000000  3020121219   01          2                                                                                   3191667238304064849251000039                                                  N                     01321  0000000        000009
12006000195000156MBA MERCANTIL BRAS DE ACO LTDA                                        0000000034100000000000000000000000000000906662670000001671394410008920B03     201210142012071700000000054860000576584000000000651428000000000000000000000000074844050000000000  3020121219   01          2                                                                                   3191671394416064849251000039                                                  N                     01321  0000000        000010
12006000195000156MBA MERCANTIL BRAS DE ACO LTDA                                        0000000034100000000000000000000000000000889578520000001671394540008920B02     201209162012071700000000054580000576585000000000683181000000000000000000000000106596050000000000  3020121219   01          2                                                                                   3191671394549064849251000099                                                  N                     01321  0000000        000011
12006000195000156MBA MERCANTIL BRAS DE ACO LTDA                                        0000000034100000000000000000000000000000887698100000001671394560008926B02     201209142012071700000000054560000387716000000000460964000000000000000000000000073248050000000000  3020121219   01          2                                                                                   3191671394564064849251000019                                                  N                     01321  0000000        000012
12006000195000156MBA MERCANTIL BRAS DE ACO LTDA                                        0000000034100000000000000000000000000000885998980000001667238420008870B02     201209112012071600000000054530000839952000000001003500000000000000000000000000163548050000000000  3020121219   01          2                                                                                   3191667238429064849251000039                                                  N                     01321  0000000        000013
12006000195000156MBA MERCANTIL BRAS DE ACO LTDA                                        0000000034100000000000000000000000000000887698090000001671394550008925B02     201209142012071700000000054560000719581000000000855421000000000000000000000000135840050000000000  3020121219   01          2                                                                                   3191671394556064849251000089                                                  N                     01321  0000000        000014
12006000195000156MBA MERCANTIL BRAS DE ACO LTDA                                        0000000034100000000000000000000000000000904173160000001667238280008876B03     201210122012071600000000054840000810320000000000918712000000000000000000000000108392050000000000  3020121219   01          2                                                                                   3191667238288064849251000079                                                  N                     01321  0000000        000015
12006000195000156MBA MERCANTIL BRAS DE ACO LTDA                                        0000000034100000000000000000000000000000904173170000001671394420008925B03     201210122012071700000000054840000719580000000000815800000000000000000000000000096220050000000000  3020121219   01          2                                                                                   3191671394424064849251000069                                                  N                     01321  0000000        000016
12006000195000156MBA MERCANTIL BRAS DE ACO LTDA                                        0000000034100000000000000000000000000000904173180000001671394430008926B03     201210122012071700000000054840000387716000000000439600000000000000000000000000051884050000000000  3020121219   01          2                                                                                   3191671394432064849251000079                                                  N                     01321  0000000        000017
12006000195000156M B A MERCANTIL BRASILEIRA DE                                         0000000023700118P00000002130599 00000000865388270020222900000480009204B03     201212132012081500000000055460000127291000000000128563000000000000000000000000001272050000000000  3020121219   01          2  RUA JUNO  533                                                                    300000000000000000001500  000000000000000                                     N                     00598  0000000        000018
12006000195000156M B A MERCANTIL BRASILEIRA DE                                         0000000023700118P00000002130599 00000000865388240020222900000450009203B03     201212122012081500000000055450000344980000000000349005000000000000000000000000004025050000000000  3020121219   01          2  RUA JUNO  533                                                                    300000000000000000001500  000000000000000                                     N                     00598  0000000        000019
12006000195000156M B A MERCANTIL BRASILEIRA DE                                         0000000023700118P00000002130599 00000000865388300020222900000510009205B03     201212142012081500000000055470000348964000000000351874000000000000000000000000002910050000000000  3020121219   01          2  RUA JUNO  533                                                                    300000000000000000001500  000000000000000                                     N                     00598  0000000        000020
12006000195000156M B A MERCANTIL BRASILEIRA DE                                         0000000023700118P00000002130599 00000000865388330020222900000540009206B03     201212152012081500000000055480000527560000000000531076000000000000000000000000003516050000000000  3020121219   01          2  RUA JUNO  533                                                                    300000000000000000001500  000000000000000                                     N                     00598  0000000        000021
12006000195000156M B A MERCANTIL BRASILEIRA DE                                         0000000023700118P00000002130599 00000000868592700020223600000030009229B03     201212132012081600000000055460000253414000000000255946000000000000000000000000002532050000000000  3020121219   01          2  RUA JUNO  533                                                                    300000000000000000001500  000000000000000                                     N                     00598  0000000        000022
12006000195000156MBA MERCANTIL BRAS DE ACO LTDA                                        0000000034100000000000000000000000000000920384670000002577570280010200B01     201212042012110600000000055370000981621000000000981621000000000000000000000000000000050000000000  3020121204   05          3                                                                                   3112577570289064899001800079                                                  N                     01321  0000000        000023
12006000195000156MBA MERCANTIL BRAS DE ACO LTDA                                        0000000034100000000000000000000000000000894344030000002451556650009734B01     201212042012092800000000055370000278567000000000278567000000000000000000000000000000050000000000  3020121204   05          3                                                                                   3112451556651064899001800099                                                  N                     01321  0000000        000024
12006209559000102MAZURKY IND COM EMB LTDA                                              000000003410000000000000000000000000000094204964000000268922811011330 2       201301162012121200000000055800000078643000000000078643000000000000000000000000000000050000000000  3020130116   01FS        1                                                                                   3112689228115151434240900019                                                  N                     01321  0000000        000025
12006209559000102MAZURKY IND COM EMB LTDA                                              000000003410000000000000000000000000000094204965000000268922812011330 3       201301232012121200000000055870000078642000000000078642000000000000000000000000000000050000000000  3020130123   01FS        1                                                                                   3112689228123151434240900069                                                  N                     01321  0000000        000026
12006209559000102MAZURKY IND COM EMB LTDA                                              000000003410000000000000000000000000000094204961000000268922810011330 1       201301092012121200000000055730000078643000000000078643000000000000000000000000000000050000000000  3020130109   01FS        1                                                                                   3112689228107151434240900069                                                  N                     01321  0000000        000027
12008272923000104P SANTOS ESQUADRARIAS METAL ME                                        0000000034100000000000000000000000000000915734100000006159682651954           201212052012110700000000055380000408138000000000431533000000000000000000000000023395050000000000  3020121219   01          2                                                                                   3156159682654160141951600029                                                  N                     01321  0000000        000028
12009043000000143GERSON D DA SILVA SEGURANCA DO                                        000000003990000000000000000000000000000092215831000000000000000420            201212152012111900000000055480000071586000000000071586000000000000000000000000000000050000000000  3020121217   06          3                                                                                   3304770042170477000087000119                                                  N                     01321  0000000        000029
12009338857000190FERNANDO  NAGAO  CARDONE  ALVA                                        000000000330000000000000000000000000000091653176000000300000000ALTA 11 2012   201211202012103000000000055230000134632000000000147694000000000000000000000000013062050000000000  3020121219   01          2                                                                                   3947901700000051051630010119                                                  N                     01321  0000000        000030
12009338857000190FERNANDO  NAGAO  CARDONE  ALVA                                        000000000330000000000000000000000000000089697936000000800000000ALTA 10 2012   201210202012092500000000054920000134632000000000160218000000000000000000000000025586050000000000  3020121219   01          2                                                                                   3947901700000051050080010129                                                  N                     01321  0000000        000031
12009636046000176DULCILENE DE SOUSA OLIVEIRA EQ                                        0000000039900000000000000000000000000000942049820000000000000002294           201301152012121800000000055790000042000000000000042000000000000000000000000000000000050000000000  3020130115   01FS        1                                                                                   3176615768470216000561900129                                                  N                     01321  0000000        000032
12012006058000121WEG TINTAS LTDA                                                       0000000023702727800000000001309 00000000882668430090225800000760016626903     201211272012091300000000055300000459992000000000473478000000000000000000000000013486050000000000  3020121219   01          2  R JUNO  533                                                                      3                         000000000000000                                     N                     00598  0000000        000033
12035820448000136WHITE MARTINS GASES INDUSTRIAI                                        0000000023700026400000003937925 0000000094204978009023530000234423162 001     201301102012121800000000055740000081150000000000081150000000000000000000000000000000050000000000  3020130110   01FS        1  RUA GANGES  528                                                                  3                         000000000000000                                     N                     00598  0000000        000034
12035820448000136WHITE MARTINS GASES INDUSTRIAI                                        0000000023700026400000003937925 0000000094204979009023530002184423222 001     201301112012121800000000055750000243450000000000243450000000000000000000000000000000050000000000  3020130111   01FS        1  RUA GANGES  528                                                                  3                         000000000000000                                     N                     00598  0000000        000035
12042956441000101SOLUCOES ACO USIMINAS                                                 0000000034100000000000000000000000000000942049660000002689017220019514502     201302082012121400000000056030000176128000000000176128000000000000000000000000000000050000000000  3020130208   01FS        1                                                                                   3112689017229293807258000049                                                  N                     01321  0000000        000036
12042956441000101SOLUCOES ACO USIMINAS                                                 0000000034100000000000000000000000000000942049670000002689017180019514501     201301112012121400000000055750000176181000000000176181000000000000000000000000000000050000000000  3020130111   01FS        1                                                                                   3112689017187293807258000089                                                  N                     01321  0000000        000037
12042956441000101SOLUCOES ACO USIMINAS                                                 0000000034100000000000000000000000000000942049680000002689017190019514701     201301112012121400000000055750000230375000000000230375000000000000000000000000000000050000000000  3020130111   01FS        1                                                                                   3112689017195293807258000089                                                  N                     01321  0000000        000038
12042956441000101SOLUCOES ACO USIMINAS                                                 0000000034100000000000000000000000000000942049690000002689017230019514702     201302082012121400000000056030000230306000000000230306000000000000000000000000000000050000000000  3020130208   01FS        1                                                                                   3112689017237293807258000049                                                  N                     01321  0000000        000039
12042956441000101SOLUCOES ACO USIMINAS                                                 0000000034100000000000000000000000000000942049700000002689017240019514802     201302082012121400000000056030000485189000000000485189000000000000000000000000000000050000000000  3020130208   01FS        1                                                                                   3112689017245293807258000089                                                  N                     01321  0000000        000040
12042956441000101SOLUCOES ACO USIMINAS                                                 0000000034100000000000000000000000000000942049710000002689017200019514801     201301112012121400000000055750000485334000000000485334000000000000000000000000000000050000000000  3020130111   01FS        1                                                                                   3112689017203293807258000019                                                  N                     01321  0000000        000041
12042956441000101SOLUCOES ACO USIMINAS                                                 0000000034100000000000000000000000000000942049720000002689017210019514901     201301112012121400000000055750000190062000000000190062000000000000000000000000000000050000000000  3020130111   01FS        1                                                                                   3112689017211293807258000089                                                  N                     01321  0000000        000042
12042956441000101SOLUCOES ACO USIMINAS                                                 0000000034100000000000000000000000000000942049730000002689017260019514503     201303082012121400000000056310000176127000000000176127000000000000000000000000000000050000000000  3020130308   01FS        1                                                                                   3112689017260293807258000089                                                  N                     01321  0000000        000043
12042956441000101SOLUCOES ACO USIMINAS                                                 0000000034100000000000000000000000000000942049740000002689017270019514703     201303082012121400000000056310000230307000000000230307000000000000000000000000000000050000000000  3020130308   01FS        1                                                                                   3112689017278293807258000099                                                  N                     01321  0000000        000044
12042956441000101SOLUCOES ACO USIMINAS                                                 0000000034100000000000000000000000000000942049750000002689017280019514803     201303082012121400000000056310000485189000000000485189000000000000000000000000000000050000000000  3020130308   01FS        1                                                                                   3112689017286293807258000059                                                  N                     01321  0000000        000045
12042956441000101SOLUCOES ACO USIMINAS                                                 0000000034100000000000000000000000000000942049760000002689017290019514903     201303082012121400000000056310000190004000000000190004000000000000000000000000000000050000000000  3020130308   01FS        1                                                                                   3112689017294293807258000019                                                  N                     01321  0000000        000046
12042956441000101SOLUCOES ACO USIMINAS                                                 0000000034100000000000000000000000000000942049770000002689017250019514902     201302082012121400000000056030000190005000000000190005000000000000000000000000000000050000000000  3020130208   01FS        1                                                                                   3112689017252293807258000079                                                  N                     01321  0000000        000047
12042956441000101SOLUCOES ACO USIMINAS                                                 0000000034100000000000000000000000000000848180700000002220192900017041002     201209112012071700000000054530000155433000000000186222000000000000000000000000030789050000000000  3020121219   01          2                                                                                   3112220192903293807258000029                                                  N                     01321  0000000        000048
12042956441000101SOLUCOES ACO USIMINAS                                                 0000000034100000000000000000000000000000846595700000002210880280016980502     201209102012071200000000054520000156071000000000187271000000000000000000000000031200050000000000  3020121219   01          2                                                                                   3112210880285293807258000039                                                  N                     01321  0000000        000049
12042956441000101SOLUCOES ACO USIMINAS                                                 0000000034100000000000000000000000000000848180710000002220192910017041202     201209112012071700000000054530000205421000000000246110000000000000000000000000040689050000000000  3020121219   01          2                                                                                   3112220192911293807258000019                                                  N                     01321  0000000        000050
12042956441000101SOLUCOES ACO USIMINAS                                                 0000000034100000000000000000000000000000846595710000002210880290016980602     201209102012071200000000054520000426094000000000511294000000000000000000000000085200050000000000  3020121219   01          2                                                                                   3112210880293293807258000019                                                  N                     01321  0000000        000051
12042956441000101SOLUCOES ACO USIMINAS                                                 0000000034100000000000000000000000000000847452070000002216130350005922202     201209102012071600000000054520000172071000000000206471000000000000000000000000034400050000000000  3020121219   01          2                                                                                   3112216130354293807258000049                                                  N                     01321  0000000        000052
12042956441000101SOLUCOES ACO USIMINAS                                                 0000000034100000000000000000000000000000847452100000002216130340017012402     201209102012071500000000054520000147428000000000176928000000000000000000000000029500050000000000  3020121219   01          2                                                                                   3112216130347293807258000059                                                  N                     01321  0000000        000053
12042956441000101SOLUCOES ACO USIMINAS                                                 0000000034100000000000000000000000000000850740470000002233586810017101002     201209142012071900000000054560000732575000000000873215000000000000000000000000140640050000000000  3020121219   01          2                                                                                   3112233586810293807258000019                                                  N                     01321  0000000        000054
12042956441000101SOLUCOES ACO USIMINAS                                                 0000000034100000000000000000000000000000850740480000002233586820017101202     201209142012071900000000054560000144634000000000172378000000000000000000000000027744050000000000  3020121219   01          2                                                                                   3112233586828293807258000029                                                  N                     01321  0000000        000055
12042956441000101SOLUCOES ACO USIMINAS                                                 0000000034100000000000000000000000000000853154840000002246247030017196702     201209202012072500000000054620000234841000000000277141000000000000000000000000042300050000000000  3020121219   01          2                                                                                   3112246247038293807258000099                                                  N                     01321  0000000        000056
12042956441000101SOLUCOES ACO USIMINAS                                                 0000000034100000000000000000000000000000853154850000002246247040017197302     201209202012072500000000054620000970103000000001144703000000000000000000000000174600050000000000  3020121219   01          2                                                                                   3112246247046293807258000019                                                  N                     01321  0000000        000057
12042956441000101SOLUCOES ACO USIMINAS                                                 0000000034100000000000000000000000000000855028690000002254329380017212902     201209212012072600000000054630000140098000000000165018000000000000000000000000024920050000000000  3020121219   01          2                                                                                   3112254329389293807258000019                                                  N                     01321  0000000        000058
12042956441000101SOLUCOES ACO USIMINAS                                                 0000000034100000000000000000000000000000855028700000002254329390017213002     201209212012072600000000054630000140602000000000165611000000000000000000000000025009050000000000  3020121219   01          2                                                                                   3112254329397293807258000089                                                  N                     01321  0000000        000059
12042956441000101SOLUCOES ACO USIMINAS                                                 0000000034100000000000000000000000000000855028770000002254329400017220502     201209212012072700000000054630000981022000000001155640000000000000000000000000174618050000000000  3020121219   01          2                                                                                   3112254329405293807258000099                                                  N                     01321  0000000        000060
12042956441000101SOLUCOES ACO USIMINAS                                                 0000000034100000000000000000000000000000856906410000002262886280017266201     201208282012073000000000054390000119472000000000146479000000000000000000000000027007050000000000  3020121219   01          2                                                                                   3112262886289293807258000089                                                  N                     01321  0000000        000061
12042956441000101SOLUCOES ACO USIMINAS                                                 0000000034100000000000000000000000000000856906420000002262886290017266301     201208282012073000000000054390000145069000000000177839000000000000000000000000032770050000000000  3020121219   01          2                                                                                   3112262886297293807258000099                                                  N                     01321  0000000        000062
12042956441000101SOLUCOES ACO USIMINAS                                                 0000000034100000000000000000000000000000859590620000002274469790017353702     201209282012080300000000054700000081053000000000094337000000000000000000000000013284050000000000  3020121219   01          2                                                                                   3112274469793293807258000069                                                  N                     01321  0000000        000063
12047190731000100DE CASTRO LOUR ENG IND LTDA                                           00000000341000000000000000000000000000008996247900000024766209203027184 0     201211302012100500000000055330001153047000000001196139000000000000000000000000043092050000000000  3020121219   01          2                                                                                   3112476620920036884500400089                                                  N                     01321  0000000        000064
12047190731000100DE CASTRO LOUR ENG IND LTDA                                           00000000341000000000000000000000000000008782051000000023399953703026612 0     201212182012082100000000055510001111822000000001114009000000000000000000000000002187050000000000  3020121219   01          2                                                                                   3112339995378036884500400049                                                  N                     01321  0000000        000065
12047190731000100DE CASTRO LOUR ENG IND LTDA                                           00000000341000000000000000000000000000008782051100000023399954303026614 0     201212182012082100000000055510001047933000000001049994000000000000000000000000002061050000000000  3020121219   01          2                                                                                   3112339995436036884500400029                                                  N                     01321  0000000        000066
12047190731000100DE CASTRO LOUR ENG IND LTDA                                           00000000341000000000000000000000000000008782051200000023399953803026613 0     201209182012082100000000054600001107989000000001308457000000000000000000000000200468050000000000  3020121219   01          2                                                                                   3112339995386036884500400039                                                  N                     01321  0000000        000067
12047190731000100DE CASTRO LOUR ENG IND LTDA                                           00000000341000000000000000000000000000009041732300000025008465203027256 0     201212112012101600000000055440001108602000000001126042000000000000000000000000017440050000000000  3020121219   01          2                                                                                   3112500846525036884500400019                                                  N                     01321  0000000        000068
12047190731000100DE CASTRO LOUR ENG IND LTDA                                           00000000341000000000000000000000000000009041732500000025008465503027257 0     201212132012101600000000055460000751900000000000760774000000000000000000000000008874050000000000  3020121219   01          2                                                                                   3112500846558036884500400029                                                  N                     01321  0000000        000069
12047190731000100DE CASTRO LOUR ENG IND LTDA                                           00000000341000000000000000000000000000009041732900000025008464603027216 0     201212052012101000000000055380000225377000000000231579000000000000000000000000006202050000000000  3020121219   01          2                                                                                   3112500846467036884500400029                                                  N                     01321  0000000        000070
12047190731000100DE CASTRO LOUR ENG IND LTDA                                           00000000341000000000000000000000000000009041733100000025008464903027234 0     201212062012101100000000055390001029597000000001055922000000000000000000000000026325050000000000  3020121219   01          2                                                                                   3112500846491036884500400029                                                  N                     01321  0000000        000071
12047190731000100DE CASTRO LOUR ENG IND LTDA                                           00000000341000000000000000000000000000008782051400000023399954003026613 0     201212182012082100000000055510001108322000000001110502000000000000000000000000002180050000000000  3020121219   01          2                                                                                   3112339995402036884500400069                                                  N                     01321  0000000        000072
12047190731000100DE CASTRO LOUR ENG IND LTDA                                           00000000341000000000000000000000000000008782051600000023399954103026614 0     201209182012082100000000054600001047621000000001237141000000000000000000000000189520050000000000  3020121219   01          2                                                                                   3112339995410036884500400039                                                  N                     01321  0000000        000073
12047190731000100DE CASTRO LOUR ENG IND LTDA                                           00000000341000000000000000000000000000008782051700000023399954203026614 0     201211202012082100000000055230001047621000000001107361000000000000000000000000059740050000000000  3020121219   01          2                                                                                   3112339995428036884500400079                                                  N                     01321  0000000        000074
12047190731000100DE CASTRO LOUR ENG IND LTDA                                           00000000341000000000000000000000000000008782051800000023399955703026636 0     201211212012082200000000055240000940804000000000992604000000000000000000000000051800050000000000  3020121219   01          2                                                                                   3112339995576036884500400019                                                  N                     01321  0000000        000075
12047190731000100DE CASTRO LOUR ENG IND LTDA                                           00000000341000000000000000000000000000008782052000000023399955303026632 0     201209192012082200000000054610000952073000000001122425000000000000000000000000170352050000000000  3020121219   01          2                                                                                   3112339995535036884500400019                                                  N                     01321  0000000        000076
12047190731000100DE CASTRO LOUR ENG IND LTDA                                           00000000341000000000000000000000000000008782052100000023399955903026643 0     201209202012082300000000054620000867039000000001020489000000000000000000000000153450050000000000  3020121219   01          2                                                                                   3112339995592036884500400049                                                  N                     01321  0000000        000077
12047190731000100DE CASTRO LOUR ENG IND LTDA                                           00000000341000000000000000000000000000008782052400000023399956003026643 0     201211222012082300000000055250000867039000000000913074000000000000000000000000046035050000000000  3020121219   01          2                                                                                   3112339995600036884500400069                                                  N                     01321  0000000        000078
12047190731000100DE CASTRO LOUR ENG IND LTDA                                           00000000341000000000000000000000000000008782052500000023399955603026636 0     201209192012082200000000054610000940804000000001109154000000000000000000000000168350050000000000  3020121219   01          2                                                                                   3112339995568036884500400049                                                  N                     01321  0000000        000079
12047190731000100DE CASTRO LOUR ENG IND LTDA                                           00000000341000000000000000000000000000008782052700000023399956203026648 0     201209202012082300000000054620000976053000000001148853000000000000000000000000172800050000000000  3020121219   01          2                                                                                   3112339995626036884500400029                                                  N                     01321  0000000        000080
12047190731000100DE CASTRO LOUR ENG IND LTDA                                           00000000341000000000000000000000000000008782052800000023399956303026648 0     201211222012082300000000055250000976053000000001027893000000000000000000000000051840050000000000  3020121219   01          2                                                                                   3112339995634036884500400019                                                  N                     01321  0000000        000081
12047190731000100DE CASTRO LOUR ENG IND LTDA                                           00000000341000000000000000000000000000008782059400000023602715303026745 0     201211282012082900000000055310000903175000000000940471000000000000000000000000037296050000000000  3020121219   01          2                                                                                   3112360271533036884500400039                                                  N                     01321  0000000        000082
12047190731000100DE CASTRO LOUR ENG IND LTDA                                           00000000341000000000000000000000000000008782059500000023602714703026734 0     201211272012082800000000055300000997834000000001040998000000000000000000000000043164050000000000  3020121219   01          2                                                                                   3112360271475036884500400019                                                  N                     01321  0000000        000083
12047190731000100DE CASTRO LOUR ENG IND LTDA                                           00000000341000000000000000000000000000008782059900000023602715003026744 0     201211292012082900000000055320000146594000000000152354000000000000000000000000005760050000000000  3020121219   01          2                                                                                   3112360271509036884500400069                                                  N                     01321  0000000        000084
12047190731000100DE CASTRO LOUR ENG IND LTDA                                           00000000341000000000000000000000000000008782050900000023399953503026612 0     201209182012082100000000054600001111489000000001312601000000000000000000000000201112050000000000  3020121219   01          2                                                                                   3112339995352036884500400019                                                  N                     01321  0000000        000085
12047190731000100DE CASTRO LOUREIRO ENGENHARIA                                         0000000023703394400000000205508 000000008801225500202255000001403026794 0     201211262012090300000000055290001209490000000001255858000000000000000000000000046368050000000000  3020121219   01          2  RUA JUNO  533                                                                    3                         000000000000000                                     N                     00598  0000000        000086
12047190731000100DE CASTRO LOUREIRO ENGENHARIA                                         00000000033000000000000000000000000000009102658700000011000000003027424 0     201211262012102900000000055290001191039000000001214860000000000000000000000000023821050000000000  3020121127   06          3                                                                                   3948430370000009555811020319                                                  N                     01321  0000000        000087
12047190731000100DE CASTRO LOUREIRO ENGENHARIA                                         00000000033000000000000000000000000000009102659100000036000000003027349 0     201211212012102400000000055240000841841000000000858678000000000000000000000000016837050000000000  3020121122   06          3                                                                                   3948430370000009555536020379                                                  N                     01321  0000000        000088
12048775225000146SEIKI IND COM E CONFECCOES LTD                                        000000003410000000000000000000000000000089337376000000244697151014914001      201210232012092500000000054950000052000000000000056446000000000000000000000000004446050000000000  3020121219   01          2                                                                                   3112446971510017444824100089                                                  N                     01321  0000000        000089
12051180370000199IGUAFER FERRO E ACO LTDA                                              0000000034100000000000000000000000000000852309100000002239389789443 B         201209022012071800000000054440000168275000000000198515000000000000000000000000030240050000000000  3020121219   01          2                                                                                   3112239389789077149484600089                                                  N                     01321  0000000        000090
12051180370000199IGUAFER FERRO E ACO LTDA                                              0000000034100000000000000000000000000000852309110000002239389799443 C         201209122012071800000000054540000168275000000000195715000000000000000000000000027440050000000000  3020121219   01          2                                                                                   3112239389797077149484600089                                                  N                     01321  0000000        000091
12054382510000108SETENTA IND E COM DE MADEIRAS                                         0000000034100000000000000000000000000000860403430000002277814474462 A         201209042012080700000000054460000191200000000000231056000000000000000000000000039856050000000000  3020121219   01          2                                                                                   3112277814474057049175300069                                                  N                     01321  0000000        000092
12055721609000141MAC SEG EQUIP DE SEGURANCA LT                                         0000000034100000000000000000000000000000942049600000002687798234390 1         201301112012121400000000055750000060050000000000060050000000000000000000000000000000050000000000  3020130111   01FS        1                                                                                   3112687798234037814415800079                                                  N                     01321  0000000        000093
12056993512000150CYKLOP DO BRASIL EMBALAGENS SA                                        0000000034100000000000000000000000000000874070500000002362586810134932        201210012012090300000000054730000083607000000000107860000000000000000000000000024253050000000000  3020121219   01          2                                                                                   3112362586813025700015800019                                                  N                     01321  0000000        000094
12059358770000153TRANS NEW ABC TRANSPORTADORA L                                        0000000023701193200000000698555 000000009420498000901323530843156562          201301022012121800000000055660000076600000000000076600000000000000000000000000000000050000000000  3020130102   01FS        1  RUA GANGES 528                                                                   3                         000000000000000                                     N                     00598  0000000        000095
12061217188000119TELAS METALICAS TELMETAL LTDA                                         0000000034100000000000000000000000000000915734090000009000030965880 3 3       201212172012110500000000055500000171279000000000171279000000000000000000000000000000050000000000  3020121217   06          3                                                                                   3109000030968077098123100089                                                  N                     01321  0000000        000096
12062510367000102ITANHAEM TRANSP DE MAQUINAS LT                                        000000003410000000000000000000000000000087407049000000236463199667            201209202012090400000000054620000248220000000000337590000000000000000000000000089370050000000000  3020121219   01          2                                                                                   3112364631997005770252400049                                                  N                     01321  0000000        000097
12062539994000176LEALFER INDUSTRIA E COMERCIO D                                        0000000003300000000000000000000000000000884432800000003600000000005502003     201212072012091300000000055400000839516000000000846651000000000000000000000000008562050000000000  3020121212   06          3                                                                                   3915298380000000266736010439                                                  N                     01321  0000000        000098
12064952757000168WALMAC COM DE PROD QUIMICOS LT                                        0000000034100000000000000000000000000000896979510000002462157570021611        201211292012100400000000055320000219267000000000227887000000000000000000000000008620050000000000  3020121219   01          2                                                                                   3112462157572064807961400059                                                  N                     01321  0000000        000099
12064952757000168WALMAC COM DE PROD QUIMICOS LT                                        0000000034100000000000000000000000000000860403450000002275821700020148        201210052012080300000000054770000219267000000000251592000000000000000000000000032325050000000000  3020121219   01          2                                                                                   3112275821703064807961400029                                                  N                     01321  0000000        000100
12066841552000130R V SEG PATRIMONIAL S C LTDA                                          00000000341000000000000000000000000000008887329800000090002213622136          201210102012091100000000054820000374758000000000383508000000000000000000000000008750050000000000  3020121219   01          2                                                                                   3109000221365001838994000069                                                  N                     01321  0000000        000101
12066841552000130R V SEG PATRIMONIAL LTDA                                              00000000341000000000000000000000000000008852483200000090002192721927          201209102012081000000000054520000483241000000000499341000000000000000000000000016100050000000000  3020121219   01          2                                                                                   3109000219270001835253400099                                                  N                     01321  0000000        000102
12067647412000199ANCORA CHUMBADORES LTDA                                               000000003410000000000000000000000000000094204958000000268481829068584 1       201301262012121200000000055900000175000000000000175000000000000000000000000000000000050000000000  3020130128   01FS        1                                                                                   3112684818290013626917200019                                                  N                     01321  0000000        000103
12067647412000199ANCORA CHUMBADORES LTDA                                               000000003410000000000000000000000000000094204959000000268481832068584 4       201303272012121200000000056500000125000000000000125000000000000000000000000000000000050000000000  3020130327   01FS        1                                                                                   3112684818324013626917200059                                                  N                     01321  0000000        000104
12067647412000199ANCORA CHUMBADORES LTDA                                               000000003410000000000000000000000000000094204962000000268481830068584 2       201302102012121200000000056050000125000000000000125000000000000000000000000000000000050000000000  3020130213   01FS        1                                                                                   3112684818308013626917200099                                                  N                     01321  0000000        000105
12067647412000199ANCORA CHUMBADORES LTDA                                               000000003410000000000000000000000000000094204963000000268481831068584 3       201303122012121200000000056350000125000000000000125000000000000000000000000000000000050000000000  3020130312   01FS        1                                                                                   3112684818316013626917200089                                                  N                     01321  0000000        000106
12069284248000128ISOCOAT TINTAS E VERNIZES LTDA                                        0000000034100000000000000000000000000000911410150000002506612030057027        201212182012101900000000055510000317968000000000318816000000000000000000000000000848050000000000  3020121219   01          2                                                                                   3112506612038077430121200019                                                  N                     01321  0000000        000107
12069284248000128ISOCOAT TINTAS E VERNIZES LTDA                                        0000000034100000000000000000000000000000915734010000002553088030057592        201212172012110100000000055500000107324000000000107896000000000000000000000000000572050000000000  3020121219   01          2                                                                                   3112553088033077430121200089                                                  N                     01321  0000000        000108
12069284248000128ISOCOAT TINTAS E VERNIZES LTDA                                        0000000034100000000000000000000000000000915734060000002553088160057607        201212172012110100000000055500000326908000000000328652000000000000000000000000001744050000000000  3020121219   01          2                                                                                   3112553088165077430121200029                                                  N                     01321  0000000        000109
12069284248000128ISOCOAT TINTAS E VERNIZES LTDA                                        0000000034100000000000000000000000000000895189810000002456588210056254        201212172012100200000000055500000318064000000000319760000000000000000000000000001696050000000000  3020121219   01          2                                                                                   3112456588212077430121200019                                                  N                     01321  0000000        000110
12069284248000128ISOCOAT TINTAS E VERNIZES LTDA                                        0000000034100000000000000000000000000000841061040000002182507930052085        201209172012070200000000054590000236130000000000294720000000000000000000000000058590050000000000  3020121219   01          2                                                                                   3112182507932077430121200019                                                  N                     01321  0000000        000111
12081560047000101ACEVILLE TRANSPORTES LTDA                                             000000000330000000000000000000000000000094204956000000710000000299687         201212282012121700000000055610000086000000000000086000000000000000000000000000000000050000000000  3020121228   01FS        1                                                                                   3913555200000002996871010189                                                  N                     01321  0000000        000112
900011300000000054442718                                                                                                                                                                                                                                                                                                                                                                                                                                                                01321  0000000        000113
