0000147602043799295000110ALTAMIRA INDUSTRIA METALURGICA LT       202000000192020121019215031             3                                                                                                  000000000000000                                                                                                                                                                                                                                                                                   000001
12043799295000110ALTAMIRA INDUSTRIA METAL LTDA                                         0000000003303809500000130004071 I000000000010060000000000000000               201210190000000000000000000000000000000000000002800000000000000000000000000000000000050000000001  0820121019   02BW        5001220               000000000000000                                               3D0000000101                               01                                 S                     01133 10020256        000002
12043799295000110ALTAMIRA INDUSTRIA METAL LTDA                                         0000000000103333200000000021717 I000000000010061000000000000000               201210190000000000000000000000000000000000000004000000000000000000000000000000000000050000000002  0820121019   02BW        5001500               000000000000000                                               3D0000000101                               02                                 S                     01133 10020256        000003
12086878469000143SUL AMERICA SEG SAUDE S A                                             0000000035600000 0000000000000  I000000000010062000000000000000               201210190000000000000000054910000000000000000000394330000000000000000000000000000000040194356912  3120121019   02BW        5000000               000000000000000                                               3007548091859130119435691719               1194356912                         N                     01130 10020256        000004
12004560557000138OSTEL TRANSPORTES LTDA ME     R BENITO MEANA 100 JD JULIETA           0216117023700165100000000985120 I000000000010066000000000000000               201210190000000000000000000000000000000000000000180000000000000000000000000000000000050000008564  0120121019   02BW        5000000               000000000000000                                               3                                          8564                               N                     01321 10020256        000005
900000600000000007374330                                                                                                                                                                                    000000000000000                                                                                                                                                                                                                                                    00000400054910000000000        000006
