0000147602043799295000110ALTAMIRA INDUSTRIA METALURGICA LT       202000000191920121019131301             2                                                                                                  000000000000000                                                                                                                                                                                                                                                                                   000001
12043799295000110ALTAMIRA INDUSTRIA METAL LTDA                                         0000000003303809500000130004071 I000000000010060000000000000000               201210190000000000000000000000000000000000000002800000000000000000000000000000000000050000000001  0820121019   01HF        5001308000000009051815000000000000000                                               3D0000000101                               01                                 S                     01133 10020256        000002
900000300000000002800000                                                                                                                                                                                    000000000000000                                                                                                                                                                                                                                                    00000100000000000000000        000003
