0000147602043799295000110ALTAMIRA IND METALURGICA LTDA           20100563000002012111917271800000        2    230A                                                                                          000000000000000                                                                                                                                                                                                                                                                                   000001
11144219728000051MARCIO ALEXANDRE RUSSO        R GEN ATALIBA LEONEL 4048 CSA3 TUCURUVI 0224200223702622000000000064858 I000000000010196000000000000000               201211190000000000000000000000000000000000000000054557000000000000000000000000000000050000000010  0120121119   01HA        000                                                                                 3                                        00REF.10/2012.                       N                     00000 10020256        000002
900000300000000000054557                                                                                                                                                                                    000000000000000                                                                                                                                                                                                                                                    00000100000000000000000        000003
