0000147602043799295000110ALTAMIRA INDUSTRIA METALURGICA LT       202000000429720121119215231             3                                                                                                  000000000000000                                                                                                                                                                                                                                                                                   000001
11144219728000051MARCIO ALEXANDRE RUSSO        R GEN ATALIBA LEONEL 4048 CSA3 TUCURUVI 0224200223702622000000000064858 I000000000010196000000000000000               201211190000000000000000000000000000000000000000054557000000000000000000000000000000050000000010  0120121119   02BW        5000000               000000000000000                                               3                                          REF.10/2012.                       N                     01321 10020256        000002
900000300000000000054557                                                                                                                                                                                    000000000000000                                                                                                                                                                                                                                                    00000100000000000000000        000003
