0000147602043799295000110ALTAMIRA INDUSTRIA METALURGICA LT       202000000183320120820221945             3                                                                                                  000000000000000                                                                                                                                                                                                                                                                                   000001
12013529495000192MAXMIRA CONTROLE E ADM LTDA                                           0000000034100467 00000000012340 I000000000009588000000000000000               201208200000000000000000000000000000000000000001100000000000000000000000000000000000050000000008  0820120820   02BW        5001600               000000000000000                                               3C0000000101                               08                                 N                     01076 10020256        000002
12043799295000110ALTAMIRA INDUSTRIA METAL LTDA                                         0000000034100467 00000000209128 I000000000009583000000000000000               201208200000000000000000000000000000000000000007500000000000000000000000000000000000050000000003  0820120820   02BW        5001120               000000000000000                                               3D0000000101                               03                                 S                     01133 10020256        000003
12007151435000186SALIS DE MOURA E ADVOGADOS ASSR MARIA PAULA 78 BELA VISTA             0131900023700500200000000594440 I000000000009595000000000000000               201208200000000000000000000000000000000000000000147750000000000000000000000000000000010000072012  0120120820   02BW        5000000               000000000000000                                               3                                          REF.JULHO/2012.                    N                     01321 10020256        000004
12058119371000177SOFTMATIC SIST AUTOMATICOS I  R VISC DE ITABORAI 368 TATUAPE          0330805023700503700000000362034 I000000000009603000000000000000               201208200000000000000000000000000000000000000000040613000000000000000000000000000000010000462497  0120120820   02BW        5000000               000000000000000                                               3                                          0462497                            N                     01321 10020256        000005
12069284248000128ISOCOAT TINTAS E VERNIZES LTDA                                        0000000034100000 0000000000000  I000000000009598000000000000000               201208200000000000000000054310000274369000000000274369000000000000000000000000000000010000052085  3120120820   02BW        5000000               000000000000000                                               3181525922109077430121200049               052085                             N                     01132 10020256        000006
12061217188000119TELAS METALICAS TELMETAL LTDA                                         0000000000100000 0000000000000  I000000000009600000000000000000               201208200000000000000000054310000052976000000000052976000000000000000000000000000000010000005358  3120120820   02BW        5000000               000000000000000                                               3000000115031800000055491749               05358/01-03                        N                     01132 10020256        000007
12009043000000143GERSON D SILVA SEG DO TRABALHO                                        0000000039900000 0000000000000  I000000000009601000000000000000               201208200000000000000000054310000071826000000000071826000000000000000000000000000000010000000320  3120120820   02BW        5000000               000000000000000                                               3304770024940477000087000119               320                                N                     01132 10020256        000008
12060737301000124SERRALHERIA SEPETIBA LTDA     PCA ALFREDO WEISZFLOG 81                0504505023700368900000000503509 I000000000009604000000000000000               201208200000000000000000000000000000000000000000057440000000000000000000000000000000010000000325  0120120820   02BW        5000000               000000000000000                                               3                                          325/02                             N                     01321 10020256        000009
12000867888000164TECNEQUIP TECNOLOGIA EQUIP LTD                                        0000000003303809500000130003245 I000000000009587000000000000000               201208200000000000000000000000000000000000000000400000000000000000000000000000000000040000000007  0820120820   02BW        5001600               000000000000000                                               3C0000000101                               07                                 N                     01076 10020256        000010
12000867888000164TECNEQUIP TECNOLOGIA EQUIP LTD                                        0000000003303809500000130003245 I000000000009582000000000000000               201208200000000000000000000000000000000000000003000000000000000000000000000000000000040000000002  0820120820   02BW        5001120               000000000000000                                               3C0000000101                               02                                 N                     01076 10020256        000011
12043799295000110ALTAMIRA INDUSTRIA METAL LTDA                                         0000000003303809500000130004071 I000000000009581000000000000000               201208200000000000000000000000000000000000000007100000000000000000000000000000000000050000000001  0820120820   02BW        5001120               000000000000000                                               3D0000000101                               01                                 S                     01133 10020256        000012
12043799295000110ALTAMIRA INDUSTRIA METAL LTDA                                         0000000000103333200000000021717 I000000000009586000000000000000               201208200000000000000000000000000000000000000001300000000000000000000000000000000000050000000006  0820120820   02BW        5001530               000000000000000                                               3D0000000101                               06                                 S                     01133 10020256        000013
12000867888000164TECNEQUIP TECNOLOGIA EQUIP LTD                                        0000000000103333200000000130818 I000000000009585000000000000000               201208200000000000000000000000000000000000000011000000000000000000000000000000000000050000000005  0820120820   02BW        5001530               000000000000000                                               3C0000000101                               05                                 N                     01076 10020256        000014
12057196081000164MINELE COMERCIO DE PARAFUSOS L                                        0000000023700298400000002047470 0000000085152929009022070000008513            201208162012072500000000054270000073900000000000075885000000000000000000000000002969050000000000  3020120820   02BW        2000000               000000000000000                                               3                         000000000000000  0513                               N                     01079 10020256        000015
12035820448000136WHITE MARTINS GASES INDUSTRIAI                                        0000000023700026400000003937925 0000000084745213009022000001338352522 001     201208142012071800000000054250000081150000000000083421000000000000000000000000002919050000000000  3020120820   02BW        2000000               000000000000000                                               3                         000000000000000  08787                              N                     01079 10020256        000016
12035820448000136WHITE MARTINS GASES INDUSTRIAI                                        0000000023700026400000003937925 0000000084895719009022020001144353515 001     201208162012072000000000054270000028403000000000029123000000000000000000000000000872050000000000  3020120820   02BW        2000000               000000000000000                                               3                         000000000000000  08806                              N                     01079 10020256        000017
12014309992000148WEG DRIVES   CONTROLS   AUTOMA                                        0000000023702727800000000001872 00000000812917770090214200002440005763301     201208162012051800000000054270000272993000000000274445000000000000000000000000002904050000000000  3020120820   02BW        2000000               000000000000000                                               3                         000000000000000  057633/01                          N                     01079 10020256        000018
12033325184001786ALSCO TOALHEIRO BRASIL                                                0000000023703396000000001490850 0000000085315513009000002660205VM26602        201208162012072700000000054270000031827000000000031955000000000000000000000000000256050000000000  3020120820   02BW        2000000               000000000000000                                               3                         000000000000000  026602                             N                     01079 10020256        000019
12009338857000190FERNANDO  NAGAO  CARDONE  ALVA                                        000000000330000000000000000000000000000085959072000000080000000ALTA 08 2012   201208202012080200000000054310000136682000000000136682000000000000000000000000000000050000000000  3020120820   02BW        2000000               000000000000000                                               3947901700000051048108010179               08/2012                            N                     01132 10020256        000020
12056428188000128EDVALDO SANTOS ROSA ME                                                0000000023700898200000000005622 0000000085959068009011222000658194919598      201208142012080700000000054250000037000000000000038478000000000000000000000000002216050000000000  3020120820   02BW        2000000               000000000000000                                               3                         000000000000000  0106                               N                     01079 10020256        000021
12061383493000180MARITIMA SEGUROS S A                                                  0000000003300000 0000000000000  I000000000009602000000000000000               201208200000000000000000054310000101220000000000101220000000000000000000000000000000050010653678  3120120820   02BW        5000000               000000000000000                                               3001910187309650578000335659               10653678                           N                     01132 10020256        000022
12006000195000156MBA MERCANTIL BRASIL ACO LTDA                                         0000000000100000 0000000000000  I000000000009605000000000000000               201208200000000000000000054310000962317000000000962317000000000000000000000000000000010000008614  3120120820   02BW        5000000               000000000000000                                               3043837752213333000105251159               08614/02                           N                     01132 10020256        000023
12066899790000105FABRICA ARTEF LATEX ESTRELA EP                                        00000000399000000000000000000000000000008223650400000000000000071065 003      201208192012060500000000054300000368900000000000368900000000000000000000000000000000050000000000  3020120820   02BW        2000000               000000000000000                                               3175368007941125027292500169               71065/03                           N                     01132 10020256        000024
12061780615000253LEPOK INFORMATICA E PAPL LTDA                                         0000000000100000 0000000000000  I000000000009599000000000000000               201208200000000000000000054310000052743000000000052743000000000000000000000000000000010000114936  3120120820   02BW        5000000               000000000000000                                               3043923459653333000058133189               0114936/01                         N                     01132 10020256        000025
12026470807000343MANDALA TRANSPORTES DE CARGAS                                         0000000034100000 0000000000000  I000000000009593000000000000000               201208210000000000000000054320000050000000000000050000000000000000000000000000000000010000090646  3120120820   02BW        5000000               000000000000000                                               3109000149882144631527500019               090646/8                           N                     01132 10020256        000026
12061096178000172COMERCIAL ELETRICA RIMO LTDA                                          0000000034100000 0000000000000  I000000000009597000000000000000               201208200000000000000000054310000033332000000000033332000000000000000000000000000000010000009048  3120120820   02BW        5000000               000000000000000                                               3181525920705166009333500019               9048                               N                     01132 10020256        000027
12017469701000177ARCELORMITTAL BRASIL S A                                              0000000034100000 0000000000000  I000000000009596000000000000000               201208200000000000000000054310000064111000000000064111000000000000000000000000000000010000126447  3120120820   02BW        5000000               000000000000000                                               3181525917543293802529900029               0126447/02                         N                     01132 10020256        000028
12064952757000168WALMAC COM PROD QUIMICOS LTDA                                         0000000034100000 0000000000000  I000000000009594000000000000000               201208200000000000000000054310000221852000000000221852000000000000000000000000000000010000018504  3120120820   02BW        5000000               000000000000000                                               3181525906786064807961400029               018504                             N                     01132 10020256        000029
12062548797000113SIND  IND  FUN  MOV  METAL SP                                         0000000000100000 0000000000000  I000000000009592000000000000000               201208200000000000000000054310000015000000000000015000000000000000000000000000000000050000150898  3120120820   02BW        5000000               000000000000000                                               3130573228541812001052541689               150898                             N                     01132 10020256        000030
12062014881000157INDUSTRIA MEC JULIAPA LTDA                                            0000000034100000 0000000000000  I000000000009591000000000000000               201208200000000000000000054310000077420000000000077420000000000000000000000000000000010000001976  3120120820   02BW        5000000               000000000000000                                               3175000033978076423432400089               01976                              N                     01132 10020256        000031
12062932942000165INST BRAS CONTROLE CANCER                                             0000000034100000 0000000000000  I000000000009590000000000000000               201208200000000000000000054310000005000000000000005000000000000000000000000000000000050000152526  3120120820   02BW        5000000               000000000000000                                               3175003366015007229250100089               0152526                            N                     01132 10020256        000032
12086878469000143SUL AMERICA SEG SAUDE S A                                             0000000035600000 0000000000000  I000000000009589000000000000000               201208200000000000000000054310000000000000000000394330000000000000000000000000000000040000043414  3120120820   02BW        5000000               000000000000000                                               3007548091858130117959311369               43414                              N                     01132 10020256        000033
12061186847000105PERFILADOS GRANADO LTDA                                               0000000003300000000000000000000000000000849855380000004600000005 001 A        201208152012071800000000054260000089240000000000090000000000000000000000000000000000050000000000  3020120820   02BW        2000000               000000000000000                                               3917995920000003502546010419               05001                              N                     01132 10020256        000034
900003500000000035151188                                                                                                                                                                                    000000000000000                                                                                                                                                                                                                                                    00003301248800003102261        000035
