0000147602043799295000110ALTAMIRA INDUSTRIA METALURGICA LT       202000000017020121120060748             1                                                                                                                                                                                                                                                                                                                                                                                                    000001
12006000195000156M B A MERCANTIL BRASILEIRA DE                                         0000000023700118P00000002130599 00000000848180770020220100000340008905B03     201210112012071900000000054830000155300000000000165919000000000000000000000000010619050000000000  3020121121   01          2  RUA JUNO  533                                                                    3                         000000000000000                                     N                     00598  0000000        000002
12006000195000156M B A MERCANTIL BRASILEIRA DE                                         0000000023700118P00000002130599 00000000865388260020222900000470009204B02     201210112012081500000000054830000127292000000000135984000000000000000000000000008692050000000000  3020121121   01          2  RUA JUNO  533                                                                    3                         000000000000000                                     N                     00598  0000000        000003
12006000195000156M B A MERCANTIL BRASILEIRA DE                                         0000000023700118P00000002130599 00000000865388290020222900000500009205B02     201210122012081500000000054840000348964000000000372244000000000000000000000000023280050000000000  3020121121   01          2  RUA JUNO  533                                                                    3                         000000000000000                                     N                     00598  0000000        000004
12006000195000156M B A MERCANTIL BRASILEIRA DE                                         0000000023700118P00000002130599 00000000865388320020222900000530009206B02     201210132012081500000000054850000527560000000000561841000000000000000000000000034281050000000000  3020121121   01          2  RUA JUNO  533                                                                    3                         000000000000000                                     N                     00598  0000000        000005
12006000195000156M B A MERCANTIL BRASILEIRA DE                                         0000000023700118P00000002130599 00000000868592690020223600000020009229B02     201210112012081600000000054830000253414000000000270716000000000000000000000000017302050000000000  3020121121   01          2  RUA JUNO  533                                                                    3                         000000000000000                                     N                     00598  0000000        000006
12008508119000181DINARI FOMENTO MERCANTIL LTDA                                         0000000023702499600000000178306 000000009058100800202297000000715351          201211162012102200000000055190000015000000000000015675000000000000000000000000000675050000000000  3020121121   01          2  RUA GANGES  528 VILA CARRAO SAO PAULO SPNELSON RODRIGUES DA SILVA JUNIOR EPP     3                         011389422000117                                     N                     00598  0000000        000007
12009043000000143GERSON D DA SILVA SEGURANCA DO                                        000000003990000000000000000000000000000092215831000000000000000420            201212152012111900000000055480000071586000000000071586000000000000000000000000000000050000000000  3020121217   01FS        1                                                                                   3304770042170477000087000119                                                  N                     01321  0000000        000008
12010695186000102POWER LOGISTICA E SERVICOS LTD                                        0000000023703417700000000187089 00000000922158290090000000006570000335932     201212102012111900000000055430000063196000000000063196000000000000000000000000000000050000000000  3020121210   01FS        1  RUA  JUNO 533                                                                    3                         000000000000000                                     N                     00598  0000000        000009
12012006058000121WEG TINTAS LTDA                                                       0000000023702727800000000001309 00000000868126360090223500001190016086603     201211042012082100000000055070000306662000000000313598000000000000000000000000006936050000000000  3020121121   01          2  R JUNO  533                                                                      3                         000000000000000                                     N                     00598  0000000        000010
12012006058000121WEG TINTAS LTDA                                                       0000000023702727800000000001309 00000000870177490090224100000980016248002     201210262012082700000000054980000306569000000000317177000000000000000000000000010608050000000000  3020121121   01          2  R JUNO  533                                                                      3                         000000000000000                                     N                     00598  0000000        000011
12012006058000121WEG TINTAS LTDA                                                       0000000023702727800000000001309 00000000870177500090224100000990016248003     201211102012082700000000055130000306662000000000311150000000000000000000000000004488050000000000  3020121121   01          2  R JUNO  533                                                                      3                         000000000000000                                     N                     00598  0000000        000012
12012006058000121WEG TINTAS LTDA                                                       0000000023702727800000000001309 00000000872318660090224700001040016359602     201210302012083100000000055020000459854000000000473340000000000000000000000000013486050000000000  3020121121   01          2  R JUNO  533                                                                      3                         000000000000000                                     N                     00598  0000000        000013
12012006058000121WEG TINTAS LTDA                                                       0000000023702727800000000001309 00000000872318670090224700001050016359603     201211142012083100000000055170000459992000000000464283000000000000000000000000004291050000000000  3020121121   01          2  R JUNO  533                                                                      3                         000000000000000                                     N                     00598  0000000        000014
12012006058000121WEG TINTAS LTDA                                                       0000000023702727800000000001309 00000000878206050090225400000790016517202     201211052012090600000000055080000459854000000000469662000000000000000000000000009808050000000000  3020121121   01          2  R JUNO  533                                                                      3                         000000000000000                                     N                     00598  0000000        000015
12012006058000121WEG TINTAS LTDA                                                       0000000023702727800000000001309 00000000882668410090225800000740016626901     201210282012091300000000055000000459854000000000474566000000000000000000000000014712050000000000  3020121121   01          2  R JUNO  533                                                                      3                         000000000000000                                     N                     00598  0000000        000016
12012006058000121WEG TINTAS LTDA                                                       0000000023702727800000000001309 00000000882668420090225800000750016626902     201211122012091300000000055150000459854000000000465371000000000000000000000000005517050000000000  3020121121   01          2  R JUNO  533                                                                      3                         000000000000000                                     N                     00598  0000000        000017
12012006058000121WEG TINTAS LTDA                                                       0000000023702727800000000001309 00000000861207280090222200000920015775003     201210222012080800000000054940000306662000000000318902000000000000000000000000012240050000000000  3020121121   01          2  R JUNO  533                                                                      3                         000000000000000                                     N                     00598  0000000        000018
12012006058000121WEG TINTAS LTDA                                                       0000000023702727800000000001309 00000000864554460090222800000750015908403     201210282012081400000000055000000306662000000000316454000000000000000000000000009792050000000000  3020121121   01          2  R JUNO  533                                                                      3                         000000000000000                                     N                     00598  0000000        000019
12035820448000136WHITE MARTINS GASES INDUSTRIAI                                        0000000023700026400000003937925 0000000090417334009022930002455395360 001     201211152012101900000000055180000028403000000000029025000000000000000000000000000622050000000000  3020121121   01          2  RUA GANGES  528                                                                  3                         000000000000000                                     N                     00598  0000000        000020
12045987005000198D PASCHOAL AUTOMOTIVA LTDA                                            0000000023702002800000000147001 00000000886866610110000000171660000000036     201211192012091900000000055220000032500000000000033234000000000000000000000000000734050000000000  3020121121   01          2  R   TAMAINDE                       01410                                         3                         000000000000000                                     N                     00598  0000000        000021
12056993900000131CIA METALURGICA PRADA                                                 0000000034100000000000000000000000000000848180620000002218222670025829902     201209112012071700000000054530000498118000000000549578000000000000000000000000052290050000000000  3020121112   05          3                                                                                   3112218222670293800573900029                                                  N                     01321  0000000        000022
12056993900000131CIA METALURGICA PRADA                                                 0000000034100000000000000000000000000000848180630000002218222680025830002     201209112012071700000000054530000247673000000000273279000000000000000000000000026019050000000000  3020121112   05          3                                                                                   3112218222688293800573900059                                                  N                     01321  0000000        000023
12056993900000131CIA METALURGICA PRADA                                                 0000000034100000000000000000000000000000848180640000002218222690025830102     201209112012071700000000054530000207402000000000228854000000000000000000000000021798050000000000  3020121112   05          3                                                                                   3112218222696293800573900039                                                  N                     01321  0000000        000024
12057158057000130COMERCIAL ELETRICA PJ LTDA                                            0000000023703394400000000972983 00000000922158300090232400003730000343173     201212102012111200000000055430000036550000000000036550000000000000000000000000000000050000000000  3020121210   01FS        1  R TAMAINDE 1410                                                                  3                         000000000000000                                     N                     00598  0000000        000025
12058805466000144PEFIL COMERCIAL LTDA                                                  0000000023700086800000000014001 000000009114101200901323050356523350 01       201211192012103100000000055220000036000000000000036120000000000000000000000000000120050000000000  3020121121   01          2  R GANGES  528                                                                    3                         000000000000000                                     N                     00598  0000000        000026
12062539994000176LEALFER IN E COM DE ACO LTDA                                          0000000034100000000000000000000000000000878205640000002342264080005379803     201211282012082200000000055310000912975000000000912975000000000000000000000000000000050000000000  3020121128   01          2                                                                                   3112342264085076103324000099                                                  N                     01321  0000000        000027
12062539994000176LEALFER IN E COM DE ACO LTDA                                          0000000034100000000000000000000000000000881032670000002380731660005461503     201212132012090600000000055460000842827000000000842827000000000000000000000000000000050000000000  3020121213   01          2                                                                                   3112380731664076103324000019                                                  N                     01321  0000000        000028
12062539994000176LEALFER IN E COM DE ACO LTDA                                          0000000034100000000000000000000000000000899624770000002474448410005595102     201212102012100100000000055430000917849000000000917849000000000000000000000000000000050000000000  3020121210   01          2                                                                                   3112474448415076103324000099                                                  N                     01321  0000000        000029
12062539994000176LEALFER IN E COM DE ACO LTDA                                          0000000034100000000000000000000000000000899624820000002474449080005595203     201301032012100100000000055670000988100000000000988100000000000000000000000000000000050000000000  3020130103   01          2                                                                                   3112474449082076103324000019                                                  N                     01321  0000000        000030
12062539994000176LEALFER IN E COM DE ACO LTDA                                          0000000034100000000000000000000000000000899624840000002474448620005595103     201301032012100100000000055670000917849000000000917849000000000000000000000000000000050000000000  3020130103   01          2                                                                                   3112474448621076103324000019                                                  N                     01321  0000000        000031
12062539994000176LEALFER IN E COM DE ACO LTDA                                          0000000034100000000000000000000000000000899624850000002474449940005606002     201212112012100200000000055440000241703000000000241703000000000000000000000000000000050000000000  3020121211   01          2                                                                                   3112474449942076103324000099                                                  N                     01321  0000000        000032
12062539994000176LEALFER IN E COM DE ACO LTDA                                          0000000034100000000000000000000000000000899624870000002474449950005606003     201301052012100200000000055690000241703000000000241703000000000000000000000000000000050000000000  3020130107   01          2                                                                                   3112474449959076103324000039                                                  N                     01321  0000000        000033
12062539994000176LEALFER IN E COM DE ACO LTDA                                          0000000034100000000000000000000000000000899624880000002474448790005595202     201212102012100100000000055430000988100000000000988100000000000000000000000000000000050000000000  3020121210   01          2                                                                                   3112474448795076103324000079                                                  N                     01321  0000000        000034
12062539994000176LEALFER IN E COM DE ACO LTDA                                          0000000034100000000000000000000000000000906662620000002514604760005682601     201211282012101600000000055310001940443000000001940443000000000000000000000000000000050000000000  3020121128   01          2                                                                                   3112514604761076103324000019                                                  N                     01321  0000000        000035
12062539994000176LEALFER IN E COM DE ACO LTDA                                          0000000034100000000000000000000000000000906662640000002514608450005682602     201212242012101600000000055570001940442000000001940442000000000000000000000000000000050000000000  3020121224   01          2                                                                                   3112514608457076103324000019                                                  N                     01321  0000000        000036
12062539994000176LEALFER IN E COM DE ACO LTDA                                          0000000034100000000000000000000000000000906662650000002514610350005682603     201301192012101600000000055830001940442000000001940442000000000000000000000000000000050000000000  3020130121   01          2                                                                                   3112514610354076103324000029                                                  N                     01321  0000000        000037
12062539994000176LEALFER IN E COM DE ACO LTDA                                          0000000034100000000000000000000000000000915733900000002554593220005756801     201212112012102900000000055440000327558000000000327558000000000000000000000000000000050000000000  3020121211   01          2                                                                                   3112554593221076103324000059                                                  N                     01321  0000000        000038
12062539994000176LEALFER IN E COM DE ACO LTDA                                          0000000034100000000000000000000000000000915733910000002554594050005780601     201212132012110100000000055460000194439000000000194439000000000000000000000000000000050000000000  3020121213   01          2                                                                                   3112554594054076103324000059                                                  N                     01321  0000000        000039
12062539994000176LEALFER IN E COM DE ACO LTDA                                          0000000034100000000000000000000000000000915733930000002554594090005780401     201212132012110100000000055460000543333000000000543333000000000000000000000000000000050000000000  3020121213   01          2                                                                                   3112554594096076103324000029                                                  N                     01321  0000000        000040
12062539994000176LEALFER IN E COM DE ACO LTDA                                          0000000034100000000000000000000000000000915733950000002554596330005756802     201301052012102900000000055690000327558000000000327558000000000000000000000000000000050000000000  3020130107   01          2                                                                                   3112554596331076103324000019                                                  N                     01321  0000000        000041
12062539994000176LEALFER IN E COM DE ACO LTDA                                          0000000034100000000000000000000000000000915733960000002554598230005780603     201302072012110100000000056020000194439000000000194439000000000000000000000000000000050000000000  3020130207   01          2                                                                                   3112554598238076103324000049                                                  N                     01321  0000000        000042
12062539994000176LEALFER IN E COM DE ACO LTDA                                          0000000034100000000000000000000000000000915733970000002554598240005780403     201302072012110100000000056020000543333000000000543333000000000000000000000000000000050000000000  3020130207   01          2                                                                                   3112554598246076103324000099                                                  N                     01321  0000000        000043
12062539994000176LEALFER IN E COM DE ACO LTDA                                          0000000034100000000000000000000000000000915733980000002554596800005780602     201301102012110100000000055740000194439000000000194439000000000000000000000000000000050000000000  3020130110   01          2                                                                                   3112554596802076103324000089                                                  N                     01321  0000000        000044
12062539994000176LEALFER IN E COM DE ACO LTDA                                          0000000034100000000000000000000000000000915734000000002554596860005780402     201301102012110100000000055740000543333000000000543333000000000000000000000000000000050000000000  3020130110   01          2                                                                                   3112554596869076103324000099                                                  N                     01321  0000000        000045
12062539994000176LEALFER IN E COM DE ACO LTDA                                          0000000034100000000000000000000000000000915734020000002554598130005756803     201302012012102900000000055960000327558000000000327558000000000000000000000000000000050000000000  3020130201   01          2                                                                                   3112554598139076103324000019                                                  N                     01321  0000000        000046
12069309706000136F N A TRANSPORTES LTDA                                                000000003410000000000000000000000000000092215828000000900012564061086         201211302012111500000000055330000017940000000000017940000000000000000000000000000000050000000000  3020121130   01FS        1                                                                                   3109000125649005486932600099                                                  N                     01321  0000000        000047
12081560047000101ACEVILLE TRANSPORTES LTDA                                             000000000330000000000000000000000000000092215832000000700000000288447         201211302012111900000000055330000045000000000000045000000000000000000000000000000000050000000000  3020121130   01FS        1                                                                                   3913555200000002884470010119                                                  N                     01321  0000000        000048
900004900000000021899667                                                                                                                                                                                                                                                                                                                                                                                                                                                                01321  0000000        000049
