0000147602043799295000110ALTAMIRA INDUSTRIA METALURGICA LT       202000000015120121020060555             1                                                                                                                                                                                                                                                                                                                                                                                                    000001
12001895314000162COLETA INDUSTRIAL FIMAVAN LTDA                                        0000000034100000000000000000000000000000866992070000009002335349439           201208272012081700000000054380000123695000000000144593000000000000000000000000020898050000000000  3020121022   01          2                                                                                   3109002335346144604097200019                                                  N                     01321  0000000        000002
12002503185000182ANDAIMES MAQUINAS BIG LTDA EPP                                        000000003410000000000000000000000000000086282613000000228719913011660         201208302012081000000000054410000012000000000000012664000000000000000000000000000664050000000000  3020121022   01          2                                                                                   3112287199130650303800900039                                                  N                     01321  0000000        000003
12002503185000182ANDAIMES MAQUINAS BIG LTDA EPP                                        0000000034100000000000000000000000000000874070480000002313590765101           201209142012082000000000054560000016500000000000017248000000000000000000000000000748050000000000  3020121022   01          2                                                                                   3112313590765650303800900019                                                  N                     01321  0000000        000004
12002503185000182ANDAIMES E MAQUINAS BIG LTDA                                          000000003410000000000000000000000000000087820531000000233954448011791         201209212012082700000000054630000026000000000000027047000000000000000000000000001047050000000000  3020121022   01          2                                                                                   3112339544481925303435000019                                                  N                     01321  0000000        000005
12002583013000166ITAN TRANSP DE CARGAS EXC E IN                                        000000003410000000000000000000000000000088769805000000241619340008 D          201210142012091800000000054860000105350000000000108718000000000000000000000000003368050000000000  3020121022   01          2                                                                                   3112416193400005770252400019                                                  N                     01321  0000000        000006
12002583013000166ITAN TRANSP DE CARGAS EXC E IN                                        000000003410000000000000000000000000000088350835000000239377421008 A          201210142012091400000000054860000192500000000000198660000000000000000000000000006160050000000000  3020121022   01          2                                                                                   3112393774214005770252400019                                                  N                     01321  0000000        000007
12003489596000123BEND FLEX I COMERCIO LTDA                                             000000003410000000000000000000000000000088350832000000171879874608            201209122012082100000000054540000695250000000000749930000000000000000000000000054680050000000000  3020121022   01          2                                                                                   3191718798744157734445800069                                                  N                     01321  0000000        000008
12003489596000123BEND FLEX I COMERCIO LTDA                                             000000003410000000000000000000000000000088599899000000171434574613            201209172012081600000000054590000585000000000000625285000000000000000000000000040285050000000000  3020121022   01          2                                                                                   3191714345748157734445800019                                                  N                     01321  0000000        000009
12004934836000114GUAIRA MAT PARA CONSTR LTDA ME                                        00000000341000000000000000000000000000008876979900000090011431423736          201210192012091900000000054910000055500000000000055944000000000000000000000000000444050000000000  3020121022   01          2                                                                                   3109001143140076568242200039                                                  N                     01321  0000000        000010
12005880850000145NEDERMAN BRASIL COM PROD EX LT                                        000000003410000000000000000000000000000086373178000000614350956002763 A       201209252012081400000000054670000289674000000000305064000000000000000000000000015390050000000000  3020121022   01          2                                                                                   3156143509568160829000100049                                                  N                     01321  0000000        000011
12006000195000156MBA MERCANTIL BRAS DE ACO LTDA                                        0000000034100000000000000000000000000000886866570000001667238410008874B02     201209132012071600000000054550000802826000000000864407000000000000000000000000061581050000000000  3020121022   01          2                                                                                   3191667238411064849251000049                                                  N                     01321  0000000        000012
12006000195000156MBA MERCANTIL BRAS DE ACO LTDA                                        0000000034100000000000000000000000000000885998980000001667238420008870B02     201209112012071600000000054530000839952000000000907684000000000000000000000000067732050000000000  3020121022   01          2                                                                                   3191667238429064849251000039                                                  N                     01321  0000000        000013
12006000195000156MBA MERCANTIL BRAS DE ACO LTDA                                        0000000034100000000000000000000000000000889578520000001671394540008920B02     201209162012071700000000054580000576585000000000617409000000000000000000000000040824050000000000  3020121022   01          2                                                                                   3191671394549064849251000099                                                  N                     01321  0000000        000014
12006000195000156MBA MERCANTIL BRAS DE ACO LTDA                                        0000000034100000000000000000000000000000887698080000001667238400008876B02     201209142012071600000000054560000810321000000000870893000000000000000000000000060572050000000000  3020121022   01          2                                                                                   3191667238403064849251000059                                                  N                     01321  0000000        000015
12006000195000156MBA MERCANTIL BRAS DE ACO LTDA                                        0000000034100000000000000000000000000000887698090000001671394550008925B02     201209142012071700000000054560000719581000000000773351000000000000000000000000053770050000000000  3020121022   01          2                                                                                   3191671394556064849251000089                                                  N                     01321  0000000        000016
12006000195000156MBA MERCANTIL BRAS DE ACO LTDA                                        0000000034100000000000000000000000000000887698100000001671394560008926B02     201209142012071700000000054560000387716000000000416710000000000000000000000000028994050000000000  3020121022   01          2                                                                                   3191671394564064849251000019                                                  N                     01321  0000000        000017
12006000195000156MBA MERCANTIL BRAS DE ACO LTDA                                        0000000034100000000000000000000000000000848957240000008667238280008876B03     201210122012071900000000054840000810320000000000810320000000000000000000000000000000050000000000  3020121015   05          3                                                                                   3458667238281064849251000089                                                  N                     01321  0000000        000018
12006000195000156MBA MERCANTIL BRAS DE ACO LTDA                                        0000000034100000000000000000000000000000848957250000008667238290008874B03     201210112012071900000000054830000802825000000000802825000000000000000000000000000000050000000000  3020121011   05          3                                                                                   3458667238299064849251000039                                                  N                     01321  0000000        000019
12006000195000156MBA MERCANTIL BRAS DE ACO LTDA                                        0000000034100000000000000000000000000000848957260000008667238300008870B03     201210092012071900000000054810000839951000000000839951000000000000000000000000000000050000000000  3020121009   05          3                                                                                   3458667238307064849251000019                                                  N                     01321  0000000        000020
12006000195000156MBA MERCANTIL BRAS DE ACO LTDA                                        0000000034100000000000000000000000000000850740590000008671394420008925B03     201210122012072000000000054840000719580000000000719580000000000000000000000000000000050000000000  3020121015   05          3                                                                                   3458671394427064849251000039                                                  N                     01321  0000000        000021
12006000195000156MBA MERCANTIL BRAS DE ACO LTDA                                        0000000034100000000000000000000000000000850740600000008671394430008926B03     201210122012072000000000054840000387716000000000387716000000000000000000000000000000050000000000  3020121015   05          3                                                                                   3458671394435064849251000049                                                  N                     01321  0000000        000022
12006000195000156MBA MERCANTIL BRAS DE ACO LTDA                                        0000000034100000000000000000000000000000904173140000001667238290008874B03     201210112012071600000000054830000802825000000000820194000000000000000000000000017369050000000000  3020121022   01FS        1                                                                                   3191667238296064849251000069                                                  N                     01321  0000000        000023
12006000195000156M B A MERCANTIL BRASILEIRA DE                                         0000000023700118P00000002128292 00000000904173350090220100000200008906B03     201210122012071900000000054840000492064000000000492064000000000000000000000000000000050000000000  3020121022   01FS        1  RUA JUNO  533                                                                    3                         000000000000000                                     N                     00598  0000000        000024
12006000195000156MBA MERCANTIL BRAS DE ACO LTDA                                        0000000034100000000000000000000000000000904173150000001667238300008870B03     201210092012071600000000054810000839951000000000861427000000000000000000000000021476050000000000  3020121022   01FS        1                                                                                   3191667238304064849251000039                                                  N                     01321  0000000        000025
12006000195000156MBA MERCANTIL BRAS DE ACO LTDA                                        0000000034100000000000000000000000000000904173160000001667238280008876B03     201210122012071600000000054840000810320000000000826260000000000000000000000000015940050000000000  3020121022   01FS        1                                                                                   3191667238288064849251000079                                                  N                     01321  0000000        000026
12006000195000156MBA MERCANTIL BRAS DE ACO LTDA                                        0000000034100000000000000000000000000000904173170000001671394420008925B03     201210122012071700000000054840000719580000000000733730000000000000000000000000014150050000000000  3020121022   01FS        1                                                                                   3191671394424064849251000069                                                  N                     01321  0000000        000027
12006000195000156MBA MERCANTIL BRAS DE ACO LTDA                                        0000000034100000000000000000000000000000904173180000001671394430008926B03     201210122012071700000000054840000387716000000000395346000000000000000000000000007630050000000000  3020121022   01FS        1                                                                                   3191671394432064849251000079                                                  N                     01321  0000000        000028
12006000195000156M B A MERCANTIL BRASILEIRA DE                                         0000000023700118P00000002130599 00000000853155000020220900000460008967B03     201210182012072400000000054900000135605000000000136509000000000000000000000000000904050000000000  3020121022   01          2  RUA JUNO  533                                                                    3                         000000000000000                                     N                     00598  0000000        000029
12006000195000156M B A MERCANTIL BRASILEIRA DE                                         0000000023700118P00000002130599 00000000853155030020220900000530008971B03     201210162012072400000000054880000170465000000000172169000000000000000000000000001704050000000000  3020121022   01          2  RUA JUNO  533                                                                    3                         000000000000000                                     N                     00598  0000000        000030
12006000195000156M B A MERCANTIL BRASILEIRA DE                                         0000000023700118P00000002130599 00000000853155060020220900000660008985B03     201210172012072500000000054890000141846000000000143026000000000000000000000000001180050000000000  3020121022   01          2  RUA JUNO  533                                                                    3                         000000000000000                                     N                     00598  0000000        000031
12006000195000156M B A MERCANTIL BRASILEIRA DE                                         0000000023700118P00000002130599 00000000853155090020220900000690008986B03     201210172012072500000000054890000126718000000000127773000000000000000000000000001055050000000000  3020121022   01          2  RUA JUNO  533                                                                    3                         000000000000000                                     N                     00598  0000000        000032
12006000195000156M B A MERCANTIL BRASILEIRA DE                                         0000000023700118P00000002130599 00000000853155120020220900000720008987B03     201210182012072500000000054900000188368000000000189624000000000000000000000000001256050000000000  3020121022   01          2  RUA JUNO  533                                                                    3                         000000000000000                                     N                     00598  0000000        000033
12006867297000173MARCOS ANTONIO RIBEIRO ACOS                                           0000000034100000000000000000000000000000881913470000002386992240000433        201210082012091200000000054800000042270000000000043810000000000000000000000000001680050000000000  3020121019   06          3                                                                                   3112386992245046769908800059                                                  N                     01321  0000000        000034
12007565346000186ALFLEX PLASTICOS E FERRAGENS L                                        0000000023701416800000000407607 0000000088769811009013226800205S000000195     201210152012092400000000054870000187500000000000195625000000000000000000000000008125050000000000  3020121022   01          2  RUA TAMAINDE  1410                                                               3                         000000000000000                                     N                     00598  0000000        000035
12009419898000101LUSITANO INDUSTRIA C E P LTDA                                         00000000341000000000000000000000000000008653882000000090000757101 10137 2     201209192012081500000000054610000035135000000000038996000000000000000000000000003861050000000000  3020121022   01          2                                                                                   3109000075716001160072300049                                                  N                     01321  0000000        000036
12011202309000180FIEL TOOLS DISTRIBUIDORA DE MA                                        0000000023702087700000000000116 0000000089962492009000020194031009403 1       201210042012090600000000054760000041000000000000043829000000000000000000000000002829050000000000  3020121022   01          2  R TAMAINDE  1 410   RUA GANGES  520 E 52                                         3                         000000000000000                                     N                     00598  0000000        000037
12012006058000121WEG TINTAS LTDA                                                       0000000023702727800000000001309 00000000861207260090222200000900015775001     201209222012080800000000054640000306569000000000318809000000000000000000000000012240050000000000  3020121022   01          2  R JUNO  533                                                                      3                         000000000000000                                     N                     00598  0000000        000038
12012006058000121WEG TINTAS LTDA                                                       0000000023702727800000000001309 00000000849855340090220500001220015343103     201210032012072000000000054750000306662000000000314414000000000000000000000000007752050000000000  3020121022   01          2  R JUNO  533                                                                      3                         000000000000000                                     N                     00598  0000000        000039
12012006058000121WEG TINTAS LTDA                                                       0000000023702727800000000001309 00000000861207270090222200000910015775002     201210072012080800000000054790000306569000000000312689000000000000000000000000006120050000000000  3020121022   01          2  R JUNO  533                                                                      3                         000000000000000                                     N                     00598  0000000        000040
12012006058000121WEG TINTAS LTDA                                                       0000000023702727800000000001309 00000000842436840090219200000860015068803     201209222012070900000000054640000306662000000000318902000000000000000000000000012240050000000000  3020121022   01          2  R JUNO  533                                                                      3                         000000000000000                                     N                     00598  0000000        000041
12012006058000121WEG TINTAS LTDA                                                       0000000023702727800000000001309 00000000864554440090222800000730015908401     201209282012081400000000054700000306569000000000316361000000000000000000000000009792050000000000  3020121022   01          2  R JUNO  533                                                                      3                         000000000000000                                     N                     00598  0000000        000042
12012006058000121WEG TINTAS LTDA                                                       0000000023702727800000000001309 00000000864554450090222800000740015908402     201210132012081400000000054850000306569000000000310241000000000000000000000000003672050000000000  3020121022   01          2  R JUNO  533                                                                      3                         000000000000000                                     N                     00598  0000000        000043
12012006058000121WEG TINTAS LTDA                                                       0000000023702727800000000001309 00000000872318650090224700001030016359601     201210152012083100000000054870000459854000000000464145000000000000000000000000004291050000000000  3020121022   01          2  R JUNO  533                                                                      3                         000000000000000                                     N                     00598  0000000        000044
12012006058000121WEG TINTAS LTDA                                                       0000000023702727800000000001309 00000000844839240090219500000730015168703     201209252012071200000000054670000306662000000000317678000000000000000000000000011016050000000000  3020121022   01          2  R JUNO  533                                                                      3                         000000000000000                                     N                     00598  0000000        000045
12012006058000121WEG TINTAS LTDA                                                       0000000023702727800000000001309 00000000847452160090220000000930015248103     201209302012071700000000054720000306662000000000315638000000000000000000000000008976050000000000  3020121022   01          2  R JUNO  533                                                                      3                         000000000000000                                     N                     00598  0000000        000046
12012006058000121WEG TINTAS LTDA                                                       0000000023702727800000000001309 00000000854049550090221200001010015513002     201209252012072700000000054670000459854000000000476405000000000000000000000000016551050000000000  3020121022   01          2  R JUNO  533                                                                      3                         000000000000000                                     N                     00598  0000000        000047
12012006058000121WEG TINTAS LTDA                                                       0000000023702727800000000001309 00000000854049560090221200001020015513003     201210102012072700000000054820000459992000000000467348000000000000000000000000007356050000000000  3020121022   01          2  R JUNO  533                                                                      3                         000000000000000                                     N                     00598  0000000        000048
12012006058000121WEG TINTAS LTDA                                                       0000000023702727800000000001309 00000000856071260090221400000830015587302     201209292012073100000000054710000459854000000000473953000000000000000000000000014099050000000000  3020121022   01          2  R JUNO  533                                                                      3                         000000000000000                                     N                     00598  0000000        000049
12012006058000121WEG TINTAS LTDA                                                       0000000023702727800000000001309 00000000856071270090221400000840015587303     201210142012073100000000054860000459992000000000464896000000000000000000000000004904050000000000  3020121022   01          2  R JUNO  533                                                                      3                         000000000000000                                     N                     00598  0000000        000050
12012006058000121WEG TINTAS LTDA                                                       0000000023702727800000000001309 00000000868126340090223500001170016086601     201210052012082100000000054770000306569000000000313505000000000000000000000000006936050000000000  3020121022   01          2  R JUNO  533                                                                      3                         000000000000000                                     N                     00598  0000000        000051
12012006058000121WEG TINTAS LTDA                                                       0000000023702727800000000001309 00000000870177480090224100000970016248001     201210112012082700000000054830000306569000000000311057000000000000000000000000004488050000000000  3020121022   01          2  R JUNO  533                                                                      3                         000000000000000                                     N                     00598  0000000        000052
12012707981000190MAC CINTAS E A CARGAS LTDA ME                                         000000003410000000000000000000000000000088957850000000242876074609            201210182012092500000000054900000072500000000000073272000000000000000000000000000772050000000000  3020121022   01          2                                                                                   3112428760741068283895800029                                                  N                     01321  0000000        000053
12013656578000142GUARINOR TRANSP E LOGISTICA LT                                        000000001040000000000000000000000000000090417312000000001279900001727 12      201210262012100800000000054980000066600000000000066600000000000000000000000000000000050000000000  3020121026   01FS        1                                                                                   3900000127932958700000017369                                                  N                     01321  0000000        000054
12013656578000142GUARINOR TRANSP E LOGISTICA LT                                        000000001040000000000000000000000000000090417313000000001299300001790 12      201211052012101600000000055080000106600000000000106600000000000000000000000000000000050000000000  3020121105   01FS        1                                                                                   3900000129932958700000017369                                                  N                     01321  0000000        000055
12014775592000128HELIO ADRIANO DA SILVA ME                                             0000000003300000000000000000000000000000887698150000005800000008682           201210102012092100000000054820000040000000000000041119000000000000000000000000001119050000000000  3020121022   01          2                                                                                   3956114740000000000058010159                                                  N                     01321  0000000        000056
12016802308000190TRANSMARRECO LTDA                                                     000000000330000000000000000000000000000088769814000000640000000353 12         201210052012092100000000054770000106581000000000114153000000000000000000000000007572050000000000  3020121022   01          2                                                                                   3907636240000000643564010119                                                  N                     01321  0000000        000057
12035820448000136WHITE MARTINS GASES INDUSTRIAI                                        0000000023700026400000003937925 0000000090417334009022930002455395360 001     201211152012101900000000055180000028403000000000028403000000000000000000000000000000050000000000  3020121116   01FS        1  RUA GANGES  528                                                                  3                         000000000000000                                     N                     00598  0000000        000058
12035820448000136WHITE MARTINS GASES INDUSTRIAI                                        0000000023700026400000003937925 0000000087067052009022420002594374120 001     201209252012082900000000054670000113610000000000119959000000000000000000000000006349050000000000  3020121022   01          2  RUA GANGES  528                                                                  3                         000000000000000                                     N                     00598  0000000        000059
12035820448000136WHITE MARTINS GASES INDUSTRIAI                                        0000000023700026400000003937925 0000000087820600009022540001838377866 001     201210042012090700000000054760000202876000000000208157000000000000000000000000005281050000000000  3020121022   01          2  RUA GANGES  528                                                                  3                         000000000000000                                     N                     00598  0000000        000060
12035820448000136WHITE MARTINS GASES INDUSTRIAI                                        0000000023700026400000003937925 0000000087168275009022440000143375351 001     201209272012083100000000054690000040575000000000042736000000000000000000000000002161050000000000  3020121022   01          2  RUA GANGES  528                                                                  3                         000000000000000                                     N                     00598  0000000        000061
12035820448000136WHITE MARTINS GASES INDUSTRIAI                                        0000000023700026400000003937925 0000000088191338009022570001466379316 001     201210092012091300000000054810000085208000000000087276000000000000000000000000002068050000000000  3020121022   01          2  RUA GANGES  528                                                                  3                         000000000000000                                     N                     00598  0000000        000062
12035820448000136WHITE MARTINS GASES INDUSTRIAI                                        0000000023700026400000003937925 0000000088524829009022630001577381808 001     201210162012091900000000054880000121725000000000124405000000000000000000000000002680050000000000  3020121022   01          2  RUA GANGES  528                                                                  3                         000000000000000                                     N                     00598  0000000        000063
12035820448000136WHITE MARTINS GASES INDUSTRIAI                                        0000000023700026400000003937925 0000000088686659009022650001000382942 001     201210182012092100000000054900000121725000000000124323000000000000000000000000002598050000000000  3020121022   01          2  RUA GANGES  528                                                                  3                         000000000000000                                     N                     00598  0000000        000064
12035820448000136WHITE MARTINS GASES INDUSTRIAI                                        0000000023700026400000003937925 0000000086699210009022330000393368126 001     201209142012081800000000054560000162300000000000173754000000000000000000000000011454050000000000  3020121022   01          2  RUA GANGES  528                                                                  3                         000000000000000                                     N                     00598  0000000        000065
12042956441000101SOLUCOES ACO USIMINAS                                                 0000000034100000000000000000000000000000847452070000002216130350005922202     201209102012071600000000054520000172071000000000186519000000000000000000000000014448050000000000  3020121022   01          2                                                                                   3112216130354293807258000049                                                  N                     01321  0000000        000066
12042956441000101SOLUCOES ACO USIMINAS                                                 0000000034100000000000000000000000000000848180700000002220192900017041002     201209112012071700000000054530000155433000000000168184000000000000000000000000012751050000000000  3020121022   01          2                                                                                   3112220192903293807258000029                                                  N                     01321  0000000        000067
12042956441000101SOLUCOES ACO USIMINAS                                                 0000000034100000000000000000000000000000848180710000002220192910017041202     201209112012071700000000054530000205421000000000222272000000000000000000000000016851050000000000  3020121022   01          2                                                                                   3112220192911293807258000019                                                  N                     01321  0000000        000068
12042956441000101SOLUCOES ACO USIMINAS                                                 0000000034100000000000000000000000000000850740460000002233586800017127201     201208202012072000000000054310000137881000000000155269000000000000000000000000017388050000000000  3020121022   01          2                                                                                   3112233586802293807258000019                                                  N                     01321  0000000        000069
12042956441000101SOLUCOES ACO USIMINAS                                                 0000000034100000000000000000000000000000850740470000002233586810017101002     201209142012071900000000054560000732575000000000788245000000000000000000000000055670050000000000  3020121022   01          2                                                                                   3112233586810293807258000019                                                  N                     01321  0000000        000070
12042956441000101SOLUCOES ACO USIMINAS                                                 0000000034100000000000000000000000000000850740480000002233586820017101202     201209142012071900000000054560000144634000000000155616000000000000000000000000010982050000000000  3020121022   01          2                                                                                   3112233586828293807258000029                                                  N                     01321  0000000        000071
12042956441000101SOLUCOES ACO USIMINAS                                                 0000000034100000000000000000000000000000847452100000002216130340017012402     201209102012071500000000054520000147428000000000159818000000000000000000000000012390050000000000  3020121022   01          2                                                                                   3112216130347293807258000059                                                  N                     01321  0000000        000072
12042956441000101SOLUCOES ACO USIMINAS                                                 0000000034100000000000000000000000000000841725590000002188168660016885103     201209272012070500000000054690000219722000000000230697000000000000000000000000010975050000000000  3020121022   01          2                                                                                   3112188168663293807258000049                                                  N                     01321  0000000        000073
12042956441000101SOLUCOES ACO USIMINAS                                                 0000000034100000000000000000000000000000841725600000002188168670016891203     201209272012070500000000054690001132542000000001189167000000000000000000000000056625050000000000  3020121022   01          2                                                                                   3112188168671293807258000069                                                  N                     01321  0000000        000074
12042956441000101SOLUCOES ACO USIMINAS                                                 0000000034100000000000000000000000000000841725610000002188168680016891403     201209272012070500000000054690000795233000000000834983000000000000000000000000039750050000000000  3020121022   01          2                                                                                   3112188168689293807258000029                                                  N                     01321  0000000        000075
12042956441000101SOLUCOES ACO USIMINAS                                                 0000000034100000000000000000000000000000843180440000002194744360016902903     201209282012070600000000054700000179794000000000188434000000000000000000000000008640050000000000  3020121022   01          2                                                                                   3112194744366293807258000079                                                  N                     01321  0000000        000076
12042956441000101SOLUCOES ACO USIMINAS                                                 0000000034100000000000000000000000000000846595700000002210880280016980502     201209102012071200000000054520000156071000000000169175000000000000000000000000013104050000000000  3020121022   01          2                                                                                   3112210880285293807258000039                                                  N                     01321  0000000        000077
12042956441000101SOLUCOES ACO USIMINAS                                                 0000000034100000000000000000000000000000846595710000002210880290016980602     201209102012071200000000054520000426094000000000461878000000000000000000000000035784050000000000  3020121022   01          2                                                                                   3112210880293293807258000019                                                  N                     01321  0000000        000078
12042956441000101SOLUCOES ACO USIMINAS                                                 0000000034100000000000000000000000000000853154840000002246247030017196702     201209202012072500000000054620000234841000000000249881000000000000000000000000015040050000000000  3020121022   01          2                                                                                   3112246247038293807258000099                                                  N                     01321  0000000        000079
12042956441000101SOLUCOES ACO USIMINAS                                                 0000000034100000000000000000000000000000853154850000002246247040017197302     201209202012072500000000054620000970103000000001032183000000000000000000000000062080050000000000  3020121022   01          2                                                                                   3112246247046293807258000019                                                  N                     01321  0000000        000080
12042956441000101SOLUCOES ACO USIMINAS                                                 0000000034100000000000000000000000000000855028690000002254329380017212902     201209212012072600000000054630000140098000000000148778000000000000000000000000008680050000000000  3020121022   01          2                                                                                   3112254329389293807258000019                                                  N                     01321  0000000        000081
12042956441000101SOLUCOES ACO USIMINAS                                                 0000000034100000000000000000000000000000855028700000002254329390017213002     201209212012072600000000054630000140602000000000149313000000000000000000000000008711050000000000  3020121022   01          2                                                                                   3112254329397293807258000089                                                  N                     01321  0000000        000082
12042956441000101SOLUCOES ACO USIMINAS                                                 0000000034100000000000000000000000000000855028770000002254329400017220502     201209212012072700000000054630000981022000000001041844000000000000000000000000060822050000000000  3020121022   01          2                                                                                   3112254329405293807258000099                                                  N                     01321  0000000        000083
12042956441000101SOLUCOES ACO USIMINAS                                                 0000000034100000000000000000000000000000856906410000002262886280017266201     201208282012073000000000054390000119472000000000132617000000000000000000000000013145050000000000  3020121022   01          2                                                                                   3112262886289293807258000089                                                  N                     01321  0000000        000084
12042956441000101SOLUCOES ACO USIMINAS                                                 0000000034100000000000000000000000000000856906420000002262886290017266301     201208282012073000000000054390000145069000000000161019000000000000000000000000015950050000000000  3020121022   01          2                                                                                   3112262886297293807258000099                                                  N                     01321  0000000        000085
12042956441000101SOLUCOES ACO USIMINAS                                                 0000000034100000000000000000000000000000858616390000002271409750017315102     201209272012080200000000054690000579374000000000608349000000000000000000000000028975050000000000  3020121022   01          2                                                                                   3112271409750293807258000019                                                  N                     01321  0000000        000086
12042956441000101SOLUCOES ACO USIMINAS                                                 0000000034100000000000000000000000000000858616400000002271409760017316002     201209272012080200000000054690000929451000000000975926000000000000000000000000046475050000000000  3020121022   01          2                                                                                   3112271409768293807258000079                                                  N                     01321  0000000        000087
12042956441000101SOLUCOES ACO USIMINAS                                                 0000000034100000000000000000000000000000858616410000002271409770017319302     201209272012080200000000054690000981526000000001030601000000000000000000000000049075050000000000  3020121022   01          2                                                                                   3112271409776293807258000019                                                  N                     01321  0000000        000088
12042956441000101SOLUCOES ACO USIMINAS                                                 0000000034100000000000000000000000000000858616420000002271409780017319402     201209272012080200000000054690000178902000000000187852000000000000000000000000008950050000000000  3020121022   01          2                                                                                   3112271409784293807258000029                                                  N                     01321  0000000        000089
12042956441000101SOLUCOES ACO USIMINAS                                                 0000000034100000000000000000000000000000858616430000002271409790017319502     201209272012080200000000054690000197380000000000207255000000000000000000000000009875050000000000  3020121022   01          2                                                                                   3112271409792293807258000049                                                  N                     01321  0000000        000090
12042956441000101SOLUCOES ACO USIMINAS                                                 0000000034100000000000000000000000000000858616440000002271409800017319602     201209272012080200000000054690000197044000000000206894000000000000000000000000009850050000000000  3020121022   01          2                                                                                   3112271409800293807258000019                                                  N                     01321  0000000        000091
12042956441000101SOLUCOES ACO USIMINAS                                                 0000000034100000000000000000000000000000858616450000002271409810017319702     201209272012080200000000054690000197212000000000207062000000000000000000000000009850050000000000  3020121022   01          2                                                                                   3112271409818293807258000019                                                  N                     01321  0000000        000092
12042956441000101SOLUCOES ACO USIMINAS                                                 0000000034100000000000000000000000000000858616460000002271409820017319802     201209272012080200000000054690000194525000000000204250000000000000000000000000009725050000000000  3020121022   01          2                                                                                   3112271409826293807258000079                                                  N                     01321  0000000        000093
12042956441000101SOLUCOES ACO USIMINAS                                                 0000000034100000000000000000000000000000859590620000002274469790017353702     201209282012080300000000054700000081053000000000084941000000000000000000000000003888050000000000  3020121022   01          2                                                                                   3112274469793293807258000069                                                  N                     01321  0000000        000094
12042956441000101SOLUCOES ACO USIMINAS                                                 0000000034100000000000000000000000000000859590630000002274469800017353802     201209282012080300000000054700000166998000000000175014000000000000000000000000008016050000000000  3020121022   01          2                                                                                   3112274469801293807258000059                                                  N                     01321  0000000        000095
12042956441000101SOLUCOES ACO USIMINAS                                                 0000000034100000000000000000000000000000841725560000002188168640016884803     201209272012070500000000054690000120612000000000126637000000000000000000000000006025050000000000  3020121022   01          2                                                                                   3112188168648293807258000059                                                  N                     01321  0000000        000096
12042956441000101SOLUCOES ACO USIMINAS                                                 0000000034100000000000000000000000000000841725570000002188168690016891503     201209272012070500000000054690001128343000000001184768000000000000000000000000056425050000000000  3020121022   01          2                                                                                   3112188168697293807258000039                                                  N                     01321  0000000        000097
12042956441000101SOLUCOES ACO USIMINAS                                                 0000000034100000000000000000000000000000841725580000002188168650016884903     201209272012070500000000054690000531835000000000558435000000000000000000000000026600050000000000  3020121022   01          2                                                                                   3112188168655293807258000019                                                  N                     01321  0000000        000098
12043217850000159IOB INFORMACOES OBJ  PUBL JURI                                        0000000023702374400000002958600 000000008540495200902212000099001440820E4     201208202012073000000000054310000072850000000000075819000000000000000000000000002969050000000000  3020121022   01          2  GANGES 528 VL NOVA MANCHESTER                                                    3                         000000000000000                                     N                     00598  0000000        000099
12043217850000159IOB INFORMACOES OBJ  PUBL JURI                                        0000000023702374400000002958600 000000008711912800902243000063301440820F2     201209202012083000000000054620000072850000000000075075000000000000000000000000002225050000000000  3020121022   01          2  R GANGES 528                                                                     3                         000000000000000                                     N                     00598  0000000        000100
12045351418000181TRANSP RODOR LTDA                                                     000000003410000000000000000000000000000089697942000000246544071301818  01     201210192012100500000000054910000023097000000000023373000000000000000000000000000276050000000000  3020121022   01          2                                                                                   3112465440710005820000700069                                                  N                     01321  0000000        000101
12045987005000198D PASCHOAL AUTOMOTIVA LTDA                                            0000000023702002800000000147001 00000000886866600110000000171650000000036     201210192012091900000000054910000032500000000000033276000000000000000000000000000776050000000000  3020121022   01          2  R   TAMAINDE                       01410                                         3                         000000000000000                                     N                     00598  0000000        000102
12047190731000100DE CASTRO LOUR ENG IND LTDA                                           00000000341000000000000000000000000000009041733000000025008464703027216 0     201301022012101000000000055660000225446000000000225446000000000000000000000000000000050000000000  3020130102   01FS        1                                                                                   3112500846475036884500400019                                                  N                     01321  0000000        000103
12047190731000100DE CASTRO LOUR ENG IND LTDA                                           00000000341000000000000000000000000000009041733100000025008464903027234 0     201212062012101100000000055390001029597000000001029597000000000000000000000000000000050000000000  3020121206   01FS        1                                                                                   3112500846491036884500400029                                                  N                     01321  0000000        000104
12047190731000100DE CASTRO LOUR ENG IND LTDA                                           00000000341000000000000000000000000000009041733200000025008465003027234 0     201301032012101100000000055670001029906000000001029906000000000000000000000000000000050000000000  3020130103   01FS        1                                                                                   3112500846509036884500400099                                                  N                     01321  0000000        000105
12047190731000100DE CASTRO LOUR ENG IND LTDA                                           00000000341000000000000000000000000000009041733300000025008465103027256 0     201211132012101600000000055160001108602000000001108602000000000000000000000000000000050000000000  3020121113   01FS        1                                                                                   3112500846517036884500400019                                                  N                     01321  0000000        000106
12047190731000100DE CASTRO LOUR ENG IND LTDA                                           00000000341000000000000000000000000000009041732200000025008465403027257 0     201211152012101600000000055180000751900000000000751900000000000000000000000000000000050000000000  3020121116   01FS        1                                                                                   3112500846541036884500400019                                                  N                     01321  0000000        000107
12047190731000100DE CASTRO LOUR ENG IND LTDA                                           00000000341000000000000000000000000000009041732300000025008465203027256 0     201212112012101600000000055440001108602000000001108602000000000000000000000000000000050000000000  3020121211   01FS        1                                                                                   3112500846525036884500400019                                                  N                     01321  0000000        000108
12047190731000100DE CASTRO LOUR ENG IND LTDA                                           00000000341000000000000000000000000000009041732400000025008465303027256 0     201301082012101600000000055720001108934000000001108934000000000000000000000000000000050000000000  3020130108   01FS        1                                                                                   3112500846533036884500400089                                                  N                     01321  0000000        000109
12047190731000100DE CASTRO LOUR ENG IND LTDA                                           00000000341000000000000000000000000000009041732500000025008465503027257 0     201212132012101600000000055460000751900000000000751900000000000000000000000000000000050000000000  3020121213   01FS        1                                                                                   3112500846558036884500400029                                                  N                     01321  0000000        000110
12047190731000100DE CASTRO LOUR ENG IND LTDA                                           00000000341000000000000000000000000000009041732600000025008465603027257 0     201301102012101600000000055740000752126000000000752126000000000000000000000000000000050000000000  3020130110   01FS        1                                                                                   3112500846566036884500400089                                                  N                     01321  0000000        000111
12047190731000100DE CASTRO LOUR ENG IND LTDA                                           00000000341000000000000000000000000000009041732700000025008464803027234 0     201211082012101100000000055110001029597000000001029597000000000000000000000000000000050000000000  3020121108   01FS        1                                                                                   3112500846483036884500400049                                                  N                     01321  0000000        000112
12047190731000100DE CASTRO LOUR ENG IND LTDA                                           00000000341000000000000000000000000000009041732800000025008464503027216 0     201211072012101000000000055100000225377000000000225377000000000000000000000000000000050000000000  3020121107   01FS        1                                                                                   3112500846459036884500400049                                                  N                     01321  0000000        000113
12047190731000100DE CASTRO LOUR ENG IND LTDA                                           00000000341000000000000000000000000000009041732900000025008464603027216 0     201212052012101000000000055380000225377000000000225377000000000000000000000000000000050000000000  3020121205   01FS        1                                                                                   3112500846467036884500400029                                                  N                     01321  0000000        000114
12047190731000100DE CASTRO LOUR ENG IND LTDA                                           00000000341000000000000000000000000000008782050900000023399953503026612 0     201209182012082100000000054600001111489000000001185813000000000000000000000000074324050000000000  3020121022   01          2                                                                                   3112339995352036884500400019                                                  N                     01321  0000000        000115
12047190731000100DE CASTRO LOUR ENG IND LTDA                                           00000000341000000000000000000000000000008782052000000023399955303026632 0     201209192012082200000000054610000952073000000001013849000000000000000000000000061776050000000000  3020121022   01          2                                                                                   3112339995535036884500400019                                                  N                     01321  0000000        000116
12047190731000100DE CASTRO LOUR ENG IND LTDA                                           00000000341000000000000000000000000000008782052100000023399955903026643 0     201209202012082300000000054620000867039000000000921599000000000000000000000000054560050000000000  3020121022   01          2                                                                                   3112339995592036884500400049                                                  N                     01321  0000000        000117
12047190731000100DE CASTRO LOUR ENG IND LTDA                                           00000000341000000000000000000000000000008782051200000023399953803026613 0     201209182012082100000000054600001107989000000001182075000000000000000000000000074086050000000000  3020121022   01          2                                                                                   3112339995386036884500400039                                                  N                     01321  0000000        000118
12047190731000100DE CASTRO LOUR ENG IND LTDA                                           00000000341000000000000000000000000000008782051600000023399954103026614 0     201209182012082100000000054600001047621000000001117661000000000000000000000000070040050000000000  3020121022   01          2                                                                                   3112339995410036884500400039                                                  N                     01321  0000000        000119
12047190731000100DE CASTRO LOUR ENG IND LTDA                                           00000000341000000000000000000000000000008782052500000023399955603026636 0     201209192012082200000000054610000940804000000001001854000000000000000000000000061050050000000000  3020121022   01          2                                                                                   3112339995568036884500400049                                                  N                     01321  0000000        000120
12047190731000100DE CASTRO LOUR ENG IND LTDA                                           00000000341000000000000000000000000000008782052700000023399956203026648 0     201209202012082300000000054620000976053000000001037493000000000000000000000000061440050000000000  3020121022   01          2                                                                                   3112339995626036884500400029                                                  N                     01321  0000000        000121
12048775225000146SEIKI IND COM E CONFECCOES LTD                                        000000003410000000000000000000000000000087820591000000235780573014311001      201209282012083100000000054700000052000000000000053872000000000000000000000000001872050000000000  3020121022   01          2                                                                                   3112357805731017444824100069                                                  N                     01321  0000000        000122
12051180370000199IGUAFER FERRO E ACO LTDA                                              0000000034100000000000000000000000000000852309100000002239389789443 B         201209022012071800000000054440000168275000000000182275000000000000000000000000014000050000000000  3020121022   01          2                                                                                   3112239389789077149484600089                                                  N                     01321  0000000        000123
12051180370000199IGUAFER FERRO E ACO LTDA                                              0000000034100000000000000000000000000000852309110000002239389799443 C         201209122012071800000000054540000168275000000000179475000000000000000000000000011200050000000000  3020121022   01          2                                                                                   3112239389797077149484600089                                                  N                     01321  0000000        000124
12053585766000141MULTIACOS I C PRODS TEC LTDA                                          0000000042200000000000000000000000000000895189490000000000000000004595102     201210192012100200000000054910000354761000000000356533000000000000000000000000001772050000000000  3020121022   01          2                                                                                   3711500005033164927761866129                                                  N                     01321  0000000        000125
12053585766000141MULTIACOS I C PRODS TEC LTDA                                          0000000042200000000000000000000000000000883508180000000000000000004584602     201210182012091300000000054900000339224000000000341483000000000000000000000000002259050000000000  3020121022   01          2                                                                                   3711500005033164921116527149                                                  N                     01321  0000000        000126
12053585766000141MULTIACOS I C PRODS TEC LTDA                                          0000000042200000000000000000000000000000883508210000000000000000004584802     201210182012091300000000054900000379244000000000381771000000000000000000000000002527050000000000  3020121022   01          2                                                                                   3711500005033164921116543159                                                  N                     01321  0000000        000127
12053585766000141MULTIACOS I C PRODS TEC LTDA                                          0000000042200000000000000000000000000000883508270000000000000000004585402     201210182012091300000000054900001047733000000001054716000000000000000000000000006983050000000000  3020121022   01          2                                                                                   3711500005033164921116586119                                                  N                     01321  0000000        000128
12053585766000141MULTIACOS I C PRODS TEC LTDA                                          0000000042200000000000000000000000000000895189520000000000000000004521803     201210192012100200000000054910000811642000000000815700000000000000000000000000004058050000000000  3020121022   01          2                                                                                   3711500005033164927761955199                                                  N                     01321  0000000        000129
12053585766000141MULTIACOS I C PRODS TEC LTDA                                          0000000042200000000000000000000000000000883508310000000000000000004585102     201210182012091300000000054900000222786000000000224269000000000000000000000000001483050000000000  3020121022   01          2                                                                                   3711500005033164921116560119                                                  N                     01321  0000000        000130
12053585766000141MULTIACOS I C PRODS TEC LTDA                                          0000000042200000000000000000000000000000895189380000000000000000004595002     201210192012100200000000054910000695717000000000699196000000000000000000000000003479050000000000  3020121022   01          2                                                                                   3711500005033164927761840159                                                  N                     01321  0000000        000131
12053585766000141MULTIACOS I C PRODS TEC LTDA                                          0000000042200000000000000000000000000000895189400000000000000000004594902     201210192012100200000000054910000141441000000000142148000000000000000000000000000707050000000000  3020121022   01          2                                                                                   3711500005033164927761815119                                                  N                     01321  0000000        000132
12053585766000141MULTIACOS COM DE PRODUTOS TECN                                        0000000023703398700000000011290 00000000888733100020226900000690004642101     201210162012090400000000054880000251722000000000254242000000000000000000000000002520050000000000  3020121022   01          2  RUA JUNO  533                                                                    3                         000000000000000                                     N                     00598  0000000        000133
12053585766000141MULTIACOS COM DE PRODUTOS TECN                                        0000000023703398700000000011290 00000000888733110020226900000710004650301     201210172012090500000000054890000235534000000000237499000000000000000000000000001965050000000000  3020121022   01          2  RUA JUNO  533                                                                    3                         000000000000000                                     N                     00598  0000000        000134
12053585766000141MULTIACOS COM DE PRODUTOS TECN                                        0000000023703398700000000011290 00000000888733120020226900000720004650401     201210172012090500000000054890000198805000000000200460000000000000000000000000001655050000000000  3020121022   01          2  RUA JUNO  533                                                                    3                         000000000000000                                     N                     00598  0000000        000135
12054382510000108SETENTA IND E COM DE MADEIRAS                                         0000000034100000000000000000000000000000883508330000002392776804604 A         201210082012091300000000054800000116600000000000119806000000000000000000000000003206050000000000  3020121022   01          2                                                                                   3112392776806057049175300019                                                  N                     01321  0000000        000136
12054382510000108SETENTA IND E COM DE MADEIRAS                                         0000000034100000000000000000000000000000860403430000002277814474462 A         201209042012080700000000054460000191200000000000209248000000000000000000000000018048050000000000  3020121022   01          2                                                                                   3112277814474057049175300069                                                  N                     01321  0000000        000137
12054382510000108SETENTA IND E COM DE MADEIRAS                                         0000000034100000000000000000000000000000874070720000002305114064536 A         201209192012081600000000054610000191200000000000203608000000000000000000000000012408050000000000  3020121022   01          2                                                                                   3112305114061057002848000039                                                  N                     01321  0000000        000138
12056993512000150CYKLOP DO BRASIL EMBALAGENS SA                                        0000000034100000000000000000000000000000874070500000002362586810134932        201210012012090300000000054730000083607000000000090054000000000000000000000000006447050000000000  3020121022   01          2                                                                                   3112362586813025700015800019                                                  N                     01321  0000000        000139
12056993900000131CIA METALURGICA PRADA                                                 0000000034100000000000000000000000000000844838960000002201181950025629303     201210032012071100000000054750000257905000000000266075000000000000000000000000008170050000000000  3020121022   01          2                                                                                   3112201181958293800573900099                                                  N                     01321  0000000        000140
12056993900000131CIA METALURGICA PRADA                                                 0000000034100000000000000000000000000000824820100000002102181160024711603     201208292012060600000000054400000833146000000000908152000000000000000000000000075006050000000000  3020121022   01          2                                                                                   3112102181164293800573900039                                                  N                     01321  0000000        000141
12056993900000131CIA METALURGICA PRADA                                                 0000000034100000000000000000000000000000840312930000002179478290025419302     201208282012070300000000054390000402178000000000439028000000000000000000000000036850050000000000  3020121022   01          2                                                                                   3112179478295293800573900089                                                  N                     01321  0000000        000142
12056993900000131CIA METALURGICA PRADA                                                 0000000034100000000000000000000000000000840312940000002179478300025419402     201208282012070300000000054390000322804000000000352394000000000000000000000000029590050000000000  3020121022   01          2                                                                                   3112179478303293800573900079                                                  N                     01321  0000000        000143
12056993900000131CIA METALURGICA PRADA                                                 0000000034100000000000000000000000000000848180630000002218222680025830002     201209112012071700000000054530000247673000000000264606000000000000000000000000016933050000000000  3020121022   01          2                                                                                   3112218222688293800573900059                                                  N                     01321  0000000        000144
12056993900000131CIA METALURGICA PRADA                                                 0000000034100000000000000000000000000000848180640000002218222690025830102     201209112012071700000000054530000207402000000000221588000000000000000000000000014186050000000000  3020121022   01          2                                                                                   3112218222696293800573900039                                                  N                     01321  0000000        000145
12056993900000131CIA METALURGICA PRADA                                                 0000000034100000000000000000000000000000848180650000002218222700025829903     201210092012071700000000054810000498119000000000508909000000000000000000000000010790050000000000  3020121022   01          2                                                                                   3112218222704293800573900019                                                  N                     01321  0000000        000146
12056993900000131CIA METALURGICA PRADA                                                 0000000034100000000000000000000000000000844838970000002201181960025629403     201210032012071100000000054750000249372000000000257276000000000000000000000000007904050000000000  3020121022   01          2                                                                                   3112201181966293800573900019                                                  N                     01321  0000000        000147
12056993900000131CIA METALURGICA PRADA                                                 0000000034100000000000000000000000000000844838980000002201181970025635303     201210032012071100000000054750000406843000000000419725000000000000000000000000012882050000000000  3020121022   01          2                                                                                   3112201181974293800573900089                                                  N                     01321  0000000        000148
12056993900000131CIA METALURGICA PRADA                                                 0000000034100000000000000000000000000000844838990000002201181980025635403     201210032012071100000000054750000208689000000000215301000000000000000000000000006612050000000000  3020121022   01          2                                                                                   3112201181982293800573900059                                                  N                     01321  0000000        000149
12056993900000131CIA METALURGICA PRADA                                                 0000000034100000000000000000000000000000844839000000002201181880025629402     201209052012071100000000054470000249372000000000268924000000000000000000000000019552050000000000  3020121022   01          2                                                                                   3112201181883293800573900019                                                  N                     01321  0000000        000150
12056993900000131CIA METALURGICA PRADA                                                 0000000034100000000000000000000000000000844839010000002201181890025635302     201209052012071100000000054470000406842000000000438708000000000000000000000000031866050000000000  3020121022   01          2                                                                                   3112201181891293800573900019                                                  N                     01321  0000000        000151
12056993900000131CIA METALURGICA PRADA                                                 0000000034100000000000000000000000000000844839020000002201181900025635402     201209052012071100000000054470000208689000000000225045000000000000000000000000016356050000000000  3020121022   01          2                                                                                   3112201181909293800573900069                                                  N                     01321  0000000        000152
12056993900000131CIA METALURGICA PRADA                                                 0000000034100000000000000000000000000000844839030000002201181910025635502     201209052012071100000000054470000164780000000000177705000000000000000000000000012925050000000000  3020121022   01          2                                                                                   3112201181917293800573900029                                                  N                     01321  0000000        000153
12056993900000131CIA METALURGICA PRADA                                                 0000000034100000000000000000000000000000848180620000002218222670025829902     201209112012071700000000054530000498118000000000532148000000000000000000000000034030050000000000  3020121022   01          2                                                                                   3112218222670293800573900029                                                  N                     01321  0000000        000154
12056993900000131CIA METALURGICA PRADA                                                 0000000034100000000000000000000000000000844839070000002201181990025635503     201210032012071100000000054750000164779000000000170004000000000000000000000000005225050000000000  3020121022   01          2                                                                                   3112201181990293800573900019                                                  N                     01321  0000000        000155
12056993900000131CIA METALURGICA PRADA                                                 0000000034100000000000000000000000000000844839080000002201182000025635603     201210032012071100000000054750000339934000000000350707000000000000000000000000010773050000000000  3020121022   01          2                                                                                   3112201182006293800573900069                                                  N                     01321  0000000        000156
12056993900000131CIA METALURGICA PRADA                                                 0000000034100000000000000000000000000000848180660000002218222710025830003     201210092012071700000000054810000247672000000000253041000000000000000000000000005369050000000000  3020121022   01          2                                                                                   3112218222712293800573900019                                                  N                     01321  0000000        000157
12056993900000131CIA METALURGICA PRADA                                                 0000000034100000000000000000000000000000848180670000002218222720025830103     201210092012071700000000054810000207402000000000211900000000000000000000000000004498050000000000  3020121022   01          2                                                                                   3112218222720293800573900079                                                  N                     01321  0000000        000158
12056993900000131CIA METALURGICA PRADA                                                 0000000034100000000000000000000000000000844839090000002201182010025636203     201210032012071100000000054750000746212000000000769848000000000000000000000000023636050000000000  3020121022   01          2                                                                                   3112201182014293800573900079                                                  N                     01321  0000000        000159
12056993900000131CIA METALURGICA PRADA                                                 0000000034100000000000000000000000000000844839100000002201182020025644403     201210032012071100000000054750000779647000000000804328000000000000000000000000024681050000000000  3020121022   01          2                                                                                   3112201182022293800573900049                                                  N                     01321  0000000        000160
12056993900000131CIA METALURGICA PRADA                                                 0000000034100000000000000000000000000000844839140000002201181870025629302     201209052012071100000000054470000257906000000000278116000000000000000000000000020210050000000000  3020121022   01          2                                                                                   3112201181875293800573900069                                                  N                     01321  0000000        000161
12056993900000131CIA METALURGICA PRADA                                                 0000000034100000000000000000000000000000844839040000002201181920025635602     201209052012071100000000054470000339933000000000366582000000000000000000000000026649050000000000  3020121022   01          2                                                                                   3112201181925293800573900069                                                  N                     01321  0000000        000162
12056993900000131CIA METALURGICA PRADA                                                 0000000034100000000000000000000000000000844839050000002201181930025636202     201209052012071100000000054470000746213000000000804681000000000000000000000000058468050000000000  3020121022   01          2                                                                                   3112201181933293800573900019                                                  N                     01321  0000000        000163
12056993900000131CIA METALURGICA PRADA                                                 0000000034100000000000000000000000000000844839060000002201181940025644402     201209052012071100000000054470000779647000000000840700000000000000000000000000061053050000000000  3020121022   01          2                                                                                   3112201181941293800573900019                                                  N                     01321  0000000        000164
12057029431000106ATLAS COPCO BRASIL LTDA                                               0000000034100000000000000000000000000000863731640000002292733057000054146     201209072012081000000000054490000081450000000000083880000000000000000000000000002430050000000000  3020121022   01          2                                                                                   3112292733055293804111400099                                                  N                     01321  0000000        000165
12057029431000106ATLAS COPCO BRASIL LTDA                                               0000000034100000000000000000000000000000861960280000002283943487000054090     201209062012080900000000054480000059490000000000061284000000000000000000000000001794050000000000  3020121022   01          2                                                                                   3112283943481293804111400069                                                  N                     01321  0000000        000166
12059659615000177DZ COMERCIO R E SERVICOS LTDA                                         000000003410000000000000000000000000000086699205000000900000268252            201209172012081500000000054590000060000000000000064200000000000000000000000000004200050000000000  3020121022   01          2                                                                                   3109000002680000314585100059                                                  N                     01321  0000000        000167
12061217188000119TELAS METALICAS TELMETAL LTDA                                         0000000034100000000000000000000000000000904173190000009000030395805 3 3       201211292012101800000000055320000065546000000000065546000000000000000000000000000000050000000000  3020121129   01FS        1                                                                                   3109000030391077073552000059                                                  N                     01321  0000000        000168
12061217188000119TELAS METALICAS TELMETAL LTDA                                         0000000034100000000000000000000000000000904173200000009000030375805 1 3       201211152012101800000000055180000065546000000000065546000000000000000000000000000000050000000000  3020121116   01FS        1                                                                                   3109000030375077073552000089                                                  N                     01321  0000000        000169
12061217188000119TELAS METALICAS TELMETAL LTDA                                         0000000034100000000000000000000000000000904173210000009000030385805 2 3       201211222012101800000000055250000065546000000000065546000000000000000000000000000000050000000000  3020121122   01FS        1                                                                                   3109000030383077073552000019                                                  N                     01321  0000000        000170
12062510367000102ITANHAEM TRANSP DE MAQUINAS LT                                        000000003410000000000000000000000000000087407049000000236463199667            201209202012090400000000054620000248220000000000279996000000000000000000000000031776050000000000  3020121022   01          2                                                                                   3112364631997005770252400049                                                  N                     01321  0000000        000171
12064952757000168WALMAC COM DE PROD QUIMICOS LT                                        0000000034100000000000000000000000000000860403450000002275821700020148        201210052012080300000000054770000219267000000000226594000000000000000000000000007327050000000000  3020121022   01          2                                                                                   3112275821703064807961400029                                                  N                     01321  0000000        000172
12064952757000168WALMAC COM DE PROD QUIMICOS LT                                        0000000034100000000000000000000000000000860403460000002275821710020148        201208312012080300000000054420000219267000000000241679000000000000000000000000022412050000000000  3020121022   01          2                                                                                   3112275821711064807961400079                                                  N                     01321  0000000        000173
12065000655000105HILTI DO BRASIL COMERCIAL LTDA                                        0000000023703396000000000243787 00000000871682760090224400001640002179001     201209272012082800000000054690000019742000000000020717000000000000000000000000000975050000000000  3020121022   01          2  RUA TAMAINDE 1410                                                                3                         000000000000000                                     N                     00598  0000000        000174
12066841552000130R V SEG PATRIMONIAL LTDA                                              00000000341000000000000000000000000000008852483200000090002192721927          201209102012081000000000054520000483241000000000490003000000000000000000000000006762050000000000  3020121022   01          2                                                                                   3109000219270001835253400099                                                  N                     01321  0000000        000175
12066841552000130R V SEG PATRIMONIAL S C LTDA                                          00000000341000000000000000000000000000008887329800000090002213622136          201210102012091100000000054820000374758000000000376258000000000000000000000000001500050000000000  3020121022   01          2                                                                                   3109000221365001838994000069                                                  N                     01321  0000000        000176
12067647412000199ANCORA CHUMBADORES LTDA                                               000000003410000000000000000000000000000086859262000000214873079055988 4       201210182012062000000000054900000250000000000000251968000000000000000000000000001968050000000000  3020121022   01          2                                                                                   3112148730792013670795700069                                                  N                     01321  0000000        000177
12069284248000128ISOCOAT TINTAS E VERNIZES LTDA                                        0000000034100000000000000000000000000000841061040000002182507930052085        201209172012070200000000054590000236130000000000258180000000000000000000000000022050050000000000  3020121022   01          2                                                                                   3112182507932077430121200019                                                  N                     01321  0000000        000178
12069309706000136F N A TRANSPORTES LTDA                                                000000003410000000000000000000000000000086615421000000900010656059068         201208302012081500000000054410000079200000000000093192000000000000000000000000013992050000000000  3020121022   01          2                                                                                   3109000106565005486932600099                                                  N                     01321  0000000        000179
12075483040000130REX MAQ E EQUIPAMENTOS LTDA                                           00000000341000000000000000000000000000008465957600000022100117076263 2 3      201209262012070400000000054680000434000000000000456204000000000000000000000000022204050000000000  3020121022   01          2                                                                                   3112210011709848301515500019                                                  N                     01321  0000000        000180
12075483040000130REX MAQUINAS E EQUIPAMENTOS LT                                        0000000023702656500000000000701 000000008577186500202216000032278261 2 3      201210182012072600000000054900000384500000000000387064000000000000000000000000002564050000000000  3020121022   01          2  RUA  GANGES  528                                                                 3                         000000000000000                                     N                     00598  0000000        000181
12096500087000135WORKBENCH CONSULTORIA S S LTDA                                        0000000034100000000000000000000000000000878205840000007940034283118           201209272012090300000000054690000131746000000000138221000000000000000000000000006475050000000000  3020121022   01          2                                                                                   3157940034289826313803700089                                                  N                     01321  0000000        000182
900018300000000072600230                                                                                                                                                                                                                                                                                                                                                                                                                                                                01321  0000000        000183
