0000147602043799295000110ALTAMIRA INDUSTRIA METALURGICA LT       202000000013020120920055923             1                                                                                                                                                                                                                                                                                                                                                                                                    000001
12000846804000106BRIDA LUBRIF LTDA                                                     000000003410000000000000000000000000000088524831000000900409916002347751      201210112012091300000000054830000059225000000000059225000000000000000000000000000000050000000000  3020121011   01FS        1                                                                                   3109004099167293816860200019                                                  N                     01321  0000000        000002
12001852612000175BT EQUIPAMENTOS INDUSTRIAIS LT                                        000000000010000000000000000000000000000087577329000000031510000591624         201209142012082200000000054560000031800000000000032275000000000000000000000000000570050000000000  3020120919   06          3                                                                                   3044000315100511000085971119                                                  N                     01321  0000000        000003
12001895314000162COLETA INDUSTRIAL FIMAVAN LTDA                                        0000000034100000000000000000000000000000866992070000009002335349439           201208272012081700000000054380000123695000000000134065000000000000000000000000010370050000000000  3020120920   01          2                                                                                   3109002335346144604097200019                                                  N                     01321  0000000        000004
12001951865000104FOUR FACTORING FOMENTO M LTDA                                         000000004220000000000000000000000000000085607115000000000000000174            201209132012073000000000054550000310000000000000317230000000000000000000000000007230050000000000  3020120920   01          2                                                                                   3702000009214741498829499119                                                  N                     01321  0000000        000005
12002460454000170AUT SERVICE COMERCIO E SERVICO                                        0000000023702591700000000007692 000000008515292000901322060028234532 2        201209172012072400000000054590000238750000000000252121000000000000000000000000013371050000000000  3020120920   01          2  RUA JUNO  533                                                                    3                         000000000000000                                     N                     00598  0000000        000006
12002503185000182ANDAIMES MAQUINAS BIG LTDA EPP                                        000000003410000000000000000000000000000086282613000000228719913011660         201208302012081000000000054410000012000000000000012408000000000000000000000000000408050000000000  3020120920   01          2                                                                                   3112287199130650303800900039                                                  N                     01321  0000000        000007
12002503185000182ANDAIMES MAQUINAS BIG LTDA EPP                                        0000000034100000000000000000000000000000874070480000002313590765101           201209142012082000000000054560000016500000000000016896000000000000000000000000000396050000000000  3020120920   01          2                                                                                   3112313590765650303800900019                                                  N                     01321  0000000        000008
12003489596000123BEND FLEX I COMERCIO LTDA                                             000000003410000000000000000000000000000086699212000000791935440613            201209172012082000000000054590000585000000000000600153000000000000000000000000015153050000000000  3020120920   01          2                                                                                   3157919354403157734445800099                                                  N                     01321  0000000        000009
12003489596000123BEND FLEX I COMERCIO LTDA                                             000000003410000000000000000000000000000088350832000000171879874608            201209122012082100000000054540000695250000000000706186000000000000000000000000010936050000000000  3020120920   01          2                                                                                   3191718798744157734445800069                                                  N                     01321  0000000        000010
12003498897000202TELECOMUNICACOES DE SAO PAULO                                         0000000023702372800000000360082 0000000088524830019066000896113V33019660      201210012012091800000000054730000331198000000000331198000000000000000000000000000000050000000000  3020121001   01FS        1  R GANGES 528                                                                     3                         000000000000000                                     N                     00598  0000000        000011
12003803271000173ATUAL SP C DE FERRAMENTAS LTDA                                        000000003410000000000000000000000000000086373180000000791271229007062         201209112012081400000000054530000027365000000000028510000000000000000000000000001199050000000000  3020120917   06          3                                                                                   3157912712293013905550300019                                                  N                     01321  0000000        000012
12004398623000115MET GALHARDO IND E COM LTDA                                           0000000034100000000000000000000000000000864554410000002296792864893           201209102012081400000000054520000291720000000000292886000000000000000000000000001749050000000000  3020120912   06          3                                                                                   3112296792867046770270000079                                                  N                     01321  0000000        000013
12005151518000140BELENUS DO BRASIL LTDA                                                000000000010000000000000000000000000000085315478000000001498000R128919722     201209182012072600000000054600000460800000000000463842000000000000000000000000003042050000000000  3020120920   01          2                                                                                   3000000123933843930014983179                                                  N                     01321  0000000        000014
12005880850000145NEDERMAN BRASIL COM PROD EX LT                                        000000003410000000000000000000000000000086373178000000614350956002763 A       201209142012081400000000054560000289674000000000293094000000000000000000000000003420050000000000  3020120920   01          2                                                                                   3156143509568160829000100049                                                  N                     01321  0000000        000015
12006000195000156M B A MERCANTIL BRASILEIRA DE                                         0000000000100000000000000000000000000000834820190000002571510000008651B03     201209182012062600000000054600000426599000000000428021000000000000000000000000001422050000000000  3020120920   01          2                                                                                   3043852571513333000105251119                                                  N                     01321  0000000        000016
12006000195000156M B A MERCANTIL BRASILEIRA DE                                         0000000000100000000000000000000000000000834820270000002571570000008654B03     201209142012062600000000054560000677504000000000684278000000000000000000000000006774050000000000  3020120920   01          2                                                                                   3043852571573333000105251119                                                  N                     01321  0000000        000017
12006000195000156M B A MERCANTIL BRASILEIRA DE                                         0000000000100000000000000000000000000000834820300000002571600000008655B03     201209152012062600000000054570000739628000000000745793000000000000000000000000006165050000000000  3020120920   01          2                                                                                   3043852571603333000105251129                                                  N                     01321  0000000        000018
12006000195000156M B A MERCANTIL BRASILEIRA DE                                         0000000000100000000000000000000000000000834820330000002571630000008656B03     201209162012062600000000054580000641947000000000646227000000000000000000000000004280050000000000  3020120920   01          2                                                                                   3043852571633333000105251129                                                  N                     01321  0000000        000019
12006000195000156M B A MERCANTIL BRASILEIRA DE                                         0000000023700118P00000002130599 00000000865388310020222900000520009206B01     201209152012081500000000054570000606694000000000611749000000000000000000000000005055050000000000  3020120920   01          2  RUA JUNO  533                                                                    3                         000000000000000                                     N                     00598  0000000        000020
12006000195000156M B A MERCANTIL BRASILEIRA DE                                         0000000023700118P00000002130599 00000000853155020020220900000520008971B02     201209182012072400000000054600000170466000000000171034000000000000000000000000000568050000000000  3020120920   01          2  RUA JUNO  533                                                                    3                         000000000000000                                     N                     00598  0000000        000021
12006000195000156M B A MERCANTIL BRASILEIRA DE                                         0000000023700118P00000002130599 00000000853155050020220900000650008985B02     201209192012072500000000054610000141845000000000142081000000000000000000000000000236050000000000  3020120920   01          2  RUA JUNO  533                                                                    3                         000000000000000                                     N                     00598  0000000        000022
12006000195000156M B A MERCANTIL BRASILEIRA DE                                         0000000023700118P00000002130599 00000000853155080020220900000680008986B02     201209192012072500000000054610000126717000000000126928000000000000000000000000000211050000000000  3020120920   01          2  RUA JUNO  533                                                                    3                         000000000000000                                     N                     00598  0000000        000023
12007289649000113CRC LASER SUPR INF LTDA EPP                                           000000003410000000000000000000000000000086762212000000792013593000001055      201209182012082100000000054600000029940000000000030657000000000000000000000000000717050000000000  3020120920   01          2                                                                                   3157920135932000265431700089                                                  N                     01321  0000000        000024
12008508119000181DINARI FOMENTO MERCANTIL LTDA                                         0000000023702499600000000178306 0000000086282617002022260000005206 A          201209162012081000000000054580000170000000000000177140000000000000000000000000007140050000000000  3020120920   01          2  RUA JUNO  533 VL N MANCHESTER SAO PAULO PANKRO LOGISTICA E TRANSPORTES LTDA EPP  300000000000000000141500  002269980000158                                     N                     00598  0000000        000025
12009419898000101LUSITANO INDUSTRIA C E P LTDA                                         00000000341000000000000000000000000000008653882000000090000757101 10137 2     201209192012081500000000054610000035135000000000035252000000000000000000000000000117050000000000  3020120920   01          2                                                                                   3109000075716001160072300049                                                  N                     01321  0000000        000026
12009419898000101LUSITANO INDUSTRIA C E P LTDA                                         00000000341000000000000000000000000000008653881900000090000757001 10137 1     201209122012081500000000054540000035136000000000035955000000000000000000000000000936050000000000  3020120919   06          3                                                                                   3109000075708001160072300089                                                  N                     01321  0000000        000027
12009441975000120SPEEDY CRED FOMENTO MERCANTIL                                         0000000023700094900000000990744 00000000869071000020132236074912868 AA        201209182012082300000000054600000064000000000000064768000000000000000000000000000768050000000000  3020120920   01          2  RUA TAMAINDE 1410                       MACKVEN MAQUINAS INDUSTRIAIS LTDA EPP    3                         005441222000163                                     N                     00598  0000000        000028
12011202309000180FIEL TOOLS DISTRIBUIDORA DE MA                                        0000000023702087700000000000116 0000000088443276009000020190021009002 1       201209112012081400000000054530000041000000000000042722000000000000000000000000001722050000000000  3020120920   01          2  R TAMAINDE  1 410   RUA GANGES  520 E 52                                         3                         000000000000000                                     N                     00598  0000000        000029
12012006058000121WEG TINTAS LTDA                                                       0000000023702727800000000001309 00000000854049540090221200001000015513001     201209102012072700000000054520000459854000000000465984000000000000000000000000006130050000000000  3020120920   01          2  R JUNO  533                                                                      3                         000000000000000                                     N                     00598  0000000        000030
12012006058000121WEG TINTAS LTDA                                                       0000000023702727800000000001309 00000000856071250090221400000820015587301     201209142012073100000000054560000459854000000000463532000000000000000000000000003678050000000000  3020120920   01          2  R JUNO  533                                                                      3                         000000000000000                                     N                     00598  0000000        000031
12012006058000121WEG TINTAS LTDA                                                       0000000023702727800000000001309 00000000834820640090217900000760014773903     201209092012062600000000054510000306662000000000311150000000000000000000000000004488050000000000  3020120920   01          2  R JUNO  533                                                                      3                         000000000000000                                     N                     00598  0000000        000032
12012006058000121WEG TINTAS LTDA                                                       0000000023702727800000000001309 00000000841061130090218800000850014990203     201209182012070500000000054600000306662000000000307478000000000000000000000000000816050000000000  3020120920   01          2  R JUNO  533                                                                      3                         000000000000000                                     N                     00598  0000000        000033
12012006058000121WEG TINTAS LTDA                                                       0000000023702727800000000001309 00000000842436830090219200000850015068802     201209072012070900000000054490000306569000000000311873000000000000000000000000005304050000000000  3020120920   01          2  R JUNO  533                                                                      3                         000000000000000                                     N                     00598  0000000        000034
12012006058000121WEG TINTAS LTDA                                                       0000000023702727800000000001309 00000000844839230090219500000720015168702     201209102012071200000000054520000306569000000000310649000000000000000000000000004080050000000000  3020120920   01          2  R JUNO  533                                                                      3                         000000000000000                                     N                     00598  0000000        000035
12012006058000121WEG TINTAS LTDA                                                       0000000023702727800000000001309 00000000847452150090220000000920015248102     201209152012071700000000054570000306569000000000308609000000000000000000000000002040050000000000  3020120920   01          2  R JUNO  533                                                                      3                         000000000000000                                     N                     00598  0000000        000036
12012006058000121WEG TINTAS LTDA                                                       0000000023702727800000000001309 00000000849855330090220500001210015343102     201209182012072000000000054600000306569000000000307385000000000000000000000000000816050000000000  3020120920   01          2  R JUNO  533                                                                      3                         000000000000000                                     N                     00598  0000000        000037
12012113201000184HYPER COMERCIO D N L LTDA                                             0000000034100000000000000000000000000000878205880000009000296850527221        201209132012081600000000054550000034578000000000035268000000000000000000000000000805050000000000  3020120919   06          3                                                                                   3109000296859056888568500049                                                  N                     01321  0000000        000038
12012931789000183RCM IMPORTADORA DE FERRAMENTAS                                        0000000000100000000000000000000000000000864554140000003020260003837           201209112012081400000000054530000026100000000000026362000000000000000000000000000393050000000000  3020120913   06          3                                                                                   3000000225937100043020261749                                                  N                     01321  0000000        000039
12014309992000148WEG DRIVES   CONTROLS   AUTOMA                                        0000000023702727800000000001872 00000000828904050090217000002200005763302     201209152012051800000000054570000272992000000000274807000000000000000000000000001815050000000000  3020120920   01          2  R JUNO  533                                                                      3                         000000000000000                                     N                     00598  0000000        000040
12033325184001786ALSCO TOALHEIRO BRASIL                                                0000000023703396000000001490850 0000000087168277009000002698905VM26989        201209132012082400000000054550000040130000000000040410000000000000000000000000000280050000000000  3020120920   01          2  RUA  GANGES 528                                                                  3                         000000000000000                                     N                     00598  0000000        000041
12035820448000136WHITE MARTINS GASES INDUSTRIAI                                        0000000023700026400000003937925 0000000086699210009022330000393368126 001     201209142012081800000000054560000162300000000000166842000000000000000000000000004542050000000000  3020120920   01          2  RUA GANGES  528                                                                  3                         000000000000000                                     N                     00598  0000000        000042
12035820448000136WHITE MARTINS GASES INDUSTRIAI                                        0000000023700026400000003937925 0000000086538817009022290001168366855 001     201209112012081600000000054530000121725000000000125617000000000000000000000000003892050000000000  3020120920   01          2  RUA GANGES  528                                                                  3                         000000000000000                                     N                     00598  0000000        000043
12035820448000136WHITE MARTINS GASES INDUSTRIAI                                        0000000023700026400000003937925 0000000085861656009022190000404361579 001     201208312012080400000000054420000162300000000000169866000000000000000000000000007566050000000000  3020120920   01          2  RUA GANGES  528                                                                  3                         000000000000000                                     N                     00598  0000000        000044
12035820448000136WHITE MARTINS GASES INDUSTRIAI                                        0000000023700026400000003937925 0000000086812633009022350001453369229 001     201209182012082200000000054600000056805000000000058093000000000000000000000000001288050000000000  3020120920   01          2  RUA GANGES  528                                                                  3                         000000000000000                                     N                     00598  0000000        000045
12035820448000136WHITE MARTINS GASES INDUSTRIAI                                        0000000023700026400000003937925 0000000086196029009022230001562364184 001     201209062012081000000000054480000113610000000000117996000000000000000000000000004386050000000000  3020120920   01          2  RUA GANGES  528                                                                  3                         000000000000000                                     N                     00598  0000000        000046
12035820448000136WHITE MARTINS GASES INDUSTRIAI                                        0000000023700026400000003937925 0000000088524829009022630001577381808 001     201210162012091900000000054880000121725000000000121725000000000000000000000000000000050000000000  3020121016   01FS        1  RUA GANGES  528                                                                  3                         000000000000000                                     N                     00598  0000000        000047
12042956441000101SOLUCOES ACO USIMINAS                                                 0000000034100000000000000000000000000000850740480000002233586820017101202     201209142012071900000000054560000144634000000000146368000000000000000000000000001734050000000000  3020120920   01          2                                                                                   3112233586828293807258000029                                                  N                     01321  0000000        000048
12042956441000101SOLUCOES ACO USIMINAS                                                 0000000034100000000000000000000000000000846595700000002210880280016980502     201209102012071200000000054520000156071000000000159191000000000000000000000000003120050000000000  3020120920   01          2                                                                                   3112210880285293807258000039                                                  N                     01321  0000000        000049
12042956441000101SOLUCOES ACO USIMINAS                                                 0000000034100000000000000000000000000000847452070000002216130350005922202     201209102012071600000000054520000172071000000000175511000000000000000000000000003440050000000000  3020120920   01          2                                                                                   3112216130354293807258000049                                                  N                     01321  0000000        000050
12042956441000101SOLUCOES ACO USIMINAS                                                 0000000034100000000000000000000000000000847452100000002216130340017012402     201209102012071500000000054520000147428000000000150378000000000000000000000000002950050000000000  3020120920   01          2                                                                                   3112216130347293807258000059                                                  N                     01321  0000000        000051
12042956441000101SOLUCOES ACO USIMINAS                                                 0000000034100000000000000000000000000000850740490000002233586830017126902     201209172012072000000000054590000208392000000000209643000000000000000000000000001251050000000000  3020120920   01          2                                                                                   3112233586836293807258000089                                                  N                     01321  0000000        000052
12042956441000101SOLUCOES ACO USIMINAS                                                 0000000034100000000000000000000000000000850740500000002233586840017127002     201209172012072000000000054590000190428000000000191571000000000000000000000000001143050000000000  3020120920   01          2                                                                                   3112233586844293807258000019                                                  N                     01321  0000000        000053
12042956441000101SOLUCOES ACO USIMINAS                                                 0000000034100000000000000000000000000000850740510000002233586850017127102     201209172012072000000000054590000167727000000000168732000000000000000000000000001005050000000000  3020120920   01          2                                                                                   3112233586851293807258000039                                                  N                     01321  0000000        000054
12042956441000101SOLUCOES ACO USIMINAS                                                 0000000034100000000000000000000000000000848180700000002220192900017041002     201209112012071700000000054530000155433000000000158232000000000000000000000000002799050000000000  3020120920   01          2                                                                                   3112220192903293807258000029                                                  N                     01321  0000000        000055
12042956441000101SOLUCOES ACO USIMINAS                                                 0000000034100000000000000000000000000000848180710000002220192910017041202     201209112012071700000000054530000205421000000000209120000000000000000000000000003699050000000000  3020120920   01          2                                                                                   3112220192911293807258000019                                                  N                     01321  0000000        000056
12042956441000101SOLUCOES ACO USIMINAS                                                 0000000034100000000000000000000000000000850740460000002233586800017127201     201208202012072000000000054310000137881000000000146437000000000000000000000000008556050000000000  3020120920   01          2                                                                                   3112233586802293807258000019                                                  N                     01321  0000000        000057
12042956441000101SOLUCOES ACO USIMINAS                                                 0000000034100000000000000000000000000000850740470000002233586810017101002     201209142012071900000000054560000732575000000000741365000000000000000000000000008790050000000000  3020120920   01          2                                                                                   3112233586810293807258000019                                                  N                     01321  0000000        000058
12042956441000101SOLUCOES ACO USIMINAS                                                 0000000034100000000000000000000000000000856906410000002262886280017266201     201208282012073000000000054390000119472000000000124969000000000000000000000000005497050000000000  3020120920   01          2                                                                                   3112262886289293807258000089                                                  N                     01321  0000000        000059
12042956441000101SOLUCOES ACO USIMINAS                                                 0000000034100000000000000000000000000000846595710000002210880290016980602     201209102012071200000000054520000426094000000000434614000000000000000000000000008520050000000000  3020120920   01          2                                                                                   3112210880293293807258000019                                                  N                     01321  0000000        000060
12042956441000101SOLUCOES ACO USIMINAS                                                 0000000034100000000000000000000000000000841725460000002188168540016859402     201208292012070400000000054400000164456000000000171694000000000000000000000000007238050000000000  3020120920   01          2                                                                                   3112188168549293807258000059                                                  N                     01321  0000000        000061
12042956441000101SOLUCOES ACO USIMINAS                                                 0000000034100000000000000000000000000000841725470000002188168550016859502     201208292012070400000000054400000234337000000000244655000000000000000000000000010318050000000000  3020120920   01          2                                                                                   3112188168556293807258000089                                                  N                     01321  0000000        000062
12042956441000101SOLUCOES ACO USIMINAS                                                 0000000034100000000000000000000000000000841725480000002188168560016884802     201208302012070500000000054410000120612000000000125673000000000000000000000000005061050000000000  3020120920   01          2                                                                                   3112188168564293807258000019                                                  N                     01321  0000000        000063
12042956441000101SOLUCOES ACO USIMINAS                                                 0000000034100000000000000000000000000000841725490000002188168570016884902     201208302012070500000000054410000531835000000000554179000000000000000000000000022344050000000000  3020120920   01          2                                                                                   3112188168572293807258000019                                                  N                     01321  0000000        000064
12042956441000101SOLUCOES ACO USIMINAS                                                 0000000034100000000000000000000000000000841725500000002188168580016885102     201208302012070500000000054410000219722000000000228941000000000000000000000000009219050000000000  3020120920   01          2                                                                                   3112188168580293807258000049                                                  N                     01321  0000000        000065
12042956441000101SOLUCOES ACO USIMINAS                                                 0000000034100000000000000000000000000000841725510000002188168590016891202     201208302012070500000000054410001132543000000001180108000000000000000000000000047565050000000000  3020120920   01          2                                                                                   3112188168598293807258000019                                                  N                     01321  0000000        000066
12042956441000101SOLUCOES ACO USIMINAS                                                 0000000034100000000000000000000000000000841725520000002188168600016891402     201208302012070500000000054410000795232000000000828622000000000000000000000000033390050000000000  3020120920   01          2                                                                                   3112188168606293807258000019                                                  N                     01321  0000000        000067
12042956441000101SOLUCOES ACO USIMINAS                                                 0000000034100000000000000000000000000000841725530000002188168610016891502     201208302012070500000000054410001128343000000001175740000000000000000000000000047397050000000000  3020120920   01          2                                                                                   3112188168614293807258000089                                                  N                     01321  0000000        000068
12042956441000101SOLUCOES EM ACO USIMINAS S A                                          000000000010000000000000000000000000000083138704000000083117000000165994003   201209112012062000000000054530000233496000000000237699000000000000000000000000004203050000000000  3020120920   01          2                                                                                   3000000169660100000831171729                                                  N                     01321  0000000        000069
12042956441000101SOLUCOES EM ACO USIMINAS S A                                          000000000010000000000000000000000000000083138709000000082600000000057848003   201209122012062000000000054540000190073000000000193113000000000000000000000000003040050000000000  3020120920   01          2                                                                                   3000000169660100000826001769                                                  N                     01321  0000000        000070
12042956441000101SOLUCOES EM ACO USIMINAS S A                                          000000000010000000000000000000000000000083218056000000083600000000057906003   201209132012062100000000054550000698618000000000708397000000000000000000000000009779050000000000  3020120920   01          2                                                                                   3000000169660100000836001769                                                  N                     01321  0000000        000071
12042956441000101SOLUCOES EM ACO USIMINAS S A                                          000000000010000000000000000000000000000083306906000000084914000000166430003   201209132012062200000000054550000193852000000000196568000000000000000000000000002716050000000000  3020120920   01          2                                                                                   3000000169660100000849141719                                                  N                     01321  0000000        000072
12042956441000101SOLUCOES EM ACO USIMINAS S A                                          000000000010000000000000000000000000000083306908000000084917000000166431003   201209132012062200000000054550000484521000000000491304000000000000000000000000006783050000000000  3020120920   01          2                                                                                   3000000169660100000849171769                                                  N                     01321  0000000        000073
12042956441000101SOLUCOES EM ACO USIMINAS S A                                          000000000010000000000000000000000000000083306910000000084495000000057981003   201209142012062200000000054560000329929000000000333889000000000000000000000000003960050000000000  3020120920   01          2                                                                                   3000000169660100000844951789                                                  N                     01321  0000000        000074
12042956441000101SOLUCOES EM ACO USIMINAS S A                                          000000000010000000000000000000000000000083562085000000087494000000167113003   201209182012062700000000054600000698474000000000701268000000000000000000000000002794050000000000  3020120920   01          2                                                                                   3000000169660100000874941719                                                  N                     01321  0000000        000075
12042956441000101SOLUCOES EM ACO USIMINAS S A                                          000000000010000000000000000000000000000083562088000000087497000000167114003   201209182012062700000000054600000703009000000000705821000000000000000000000000002812050000000000  3020120920   01          2                                                                                   3000000169660100000874971789                                                  N                     01321  0000000        000076
12042956441000101SOLUCOES EM ACO USIMINAS S A                                          000000000010000000000000000000000000000083562091000000087500000000167115003   201209182012062700000000054600000240663000000000241625000000000000000000000000000962050000000000  3020120920   01          2                                                                                   3000000169660100000875001739                                                  N                     01321  0000000        000077
12042956441000101SOLUCOES ACO USIMINAS                                                 0000000034100000000000000000000000000000836417910000002164218370016738103     201209192012062700000000054610000830173000000000831833000000000000000000000000001660050000000000  3020120920   01          2                                                                                   3112164218375293807258000039                                                  N                     01321  0000000        000078
12042956441000101SOLUCOES ACO USIMINAS                                                 0000000034100000000000000000000000000000856906420000002262886290017266301     201208282012073000000000054390000145069000000000151739000000000000000000000000006670050000000000  3020120920   01          2                                                                                   3112262886297293807258000099                                                  N                     01321  0000000        000079
12042956441000101SOLUCOES ACO USIMINAS                                                 0000000034100000000000000000000000000000858616290000002271409670017315101     201208302012080200000000054410000579548000000000603887000000000000000000000000024339050000000000  3020120920   01          2                                                                                   3112271409677293807258000099                                                  N                     01321  0000000        000080
12042956441000101SOLUCOES ACO USIMINAS                                                 0000000034100000000000000000000000000000858616320000002271409680017316001     201208302012080200000000054410000929730000000000968769000000000000000000000000039039050000000000  3020120920   01          2                                                                                   3112271409685293807258000039                                                  N                     01321  0000000        000081
12042956441000101SOLUCOES ACO USIMINAS                                                 0000000034100000000000000000000000000000858616330000002271409690017319301     201208302012080200000000054410000981820000000001023064000000000000000000000000041244050000000000  3020120920   01          2                                                                                   3112271409693293807258000039                                                  N                     01321  0000000        000082
12042956441000101SOLUCOES ACO USIMINAS                                                 0000000034100000000000000000000000000000858616340000002271409700017319401     201208302012080200000000054410000178956000000000186474000000000000000000000000007518050000000000  3020120920   01          2                                                                                   3112271409701293807258000089                                                  N                     01321  0000000        000083
12042956441000101SOLUCOES ACO USIMINAS                                                 0000000034100000000000000000000000000000858616350000002271409710017319501     201208302012080200000000054410000197439000000000205734000000000000000000000000008295050000000000  3020120920   01          2                                                                                   3112271409719293807258000049                                                  N                     01321  0000000        000084
12042956441000101SOLUCOES ACO USIMINAS                                                 0000000034100000000000000000000000000000858616360000002271409720017319601     201208302012080200000000054410000197103000000000205377000000000000000000000000008274050000000000  3020120920   01          2                                                                                   3112271409727293807258000019                                                  N                     01321  0000000        000085
12042956441000101SOLUCOES ACO USIMINAS                                                 0000000034100000000000000000000000000000858616370000002271409730017319701     201208302012080200000000054410000197271000000000205566000000000000000000000000008295050000000000  3020120920   01          2                                                                                   3112271409735293807258000019                                                  N                     01321  0000000        000086
12042956441000101SOLUCOES ACO USIMINAS                                                 0000000034100000000000000000000000000000858616380000002271409740017319801     201208302012080200000000054410000194583000000000202752000000000000000000000000008169050000000000  3020120920   01          2                                                                                   3112271409743293807258000019                                                  N                     01321  0000000        000087
12042956441000101SOLUCOES ACO USIMINAS                                                 0000000034100000000000000000000000000000825740790000002106974460016399003     201208292012060600000000054400000203068000000000212000000000000000000000000000008932050000000000  3020120920   01          2                                                                                   3112106974465293807258000089                                                  N                     01321  0000000        000088
12042956441000101SOLUCOES ACO USIMINAS                                                 0000000034100000000000000000000000000000825740800000002106974470016399203     201208292012060600000000054400000450363000000000470185000000000000000000000000019822050000000000  3020120920   01          2                                                                                   3112106974473293807258000039                                                  N                     01321  0000000        000089
12042956441000101SOLUCOES ACO USIMINAS                                                 0000000034100000000000000000000000000000825740810000002106974480016399403     201208292012060600000000054400000431213000000000450177000000000000000000000000018964050000000000  3020120920   01          2                                                                                   3112106974481293807258000099                                                  N                     01321  0000000        000090
12042956441000101SOLUCOES ACO USIMINAS                                                 0000000034100000000000000000000000000000824061850000002100925420016380503     201208292012060500000000054400000215523000000000225005000000000000000000000000009482050000000000  3020120920   01          2                                                                                   3112100925422293807258000039                                                  N                     01321  0000000        000091
12042956441000101SOLUCOES ACO USIMINAS                                                 0000000034100000000000000000000000000000824061860000002100925430016380703     201208292012060500000000054400000216699000000000226225000000000000000000000000009526050000000000  3020120920   01          2                                                                                   3112100925430293807258000079                                                  N                     01321  0000000        000092
12043217850000159IOB INFORMACOES OBJ  PUBL JURI                                        0000000023702374400000002958600 000000008540495200902212000099001440820E4     201208202012073000000000054310000072850000000000075051000000000000000000000000002201050000000000  3020120920   01          2  GANGES 528 VL NOVA MANCHESTER                                                    3                         000000000000000                                     N                     00598  0000000        000093
12047190731000100DE CASTRO LOUR ENG IND LTDA                                           00000000341000000000000000000000000000008782051200000023399953803026613 0     201209182012082100000000054600001107989000000001112347000000000000000000000000004358050000000000  3020120920   01          2                                                                                   3112339995386036884500400039                                                  N                     01321  0000000        000094
12047190731000100DE CASTRO LOUR ENG IND LTDA                                           00000000341000000000000000000000000000008782051600000023399954103026614 0     201209182012082100000000054600001047621000000001051741000000000000000000000000004120050000000000  3020120920   01          2                                                                                   3112339995410036884500400039                                                  N                     01321  0000000        000095
12047190731000100DE CASTRO LOUR ENG IND LTDA                                           00000000341000000000000000000000000000008782052000000023399955303026632 0     201209192012082200000000054610000952073000000000953945000000000000000000000000001872050000000000  3020120920   01          2                                                                                   3112339995535036884500400019                                                  N                     01321  0000000        000096
12047190731000100DE CASTRO LOUR ENG IND LTDA                                           00000000341000000000000000000000000000008782052500000023399955603026636 0     201209192012082200000000054610000940804000000000942654000000000000000000000000001850050000000000  3020120920   01          2                                                                                   3112339995568036884500400049                                                  N                     01321  0000000        000097
12047190731000100DE CASTRO LOUR ENG IND LTDA                                           00000000341000000000000000000000000000008782050900000023399953503026612 0     201209182012082100000000054600001111489000000001115861000000000000000000000000004372050000000000  3020120920   01          2                                                                                   3112339995352036884500400019                                                  N                     01321  0000000        000098
12048775225000146SEIKI IND COM E CONFECCOES LTD                                        000000003410000000000000000000000000000086615423000000230404780013963001      201209122012081500000000054540000052000000000000052546000000000000000000000000000624050000000000  3020120919   06          3                                                                                   3112304047809017444824100079                                                  N                     01321  0000000        000099
12049341563000132JAC COMERCIO DE MATERIAIS ELET                                        00000000001000000000000000000000000000008661541900000070216400021490          201209112012081600000000054530000183867000000000184173000000000000000000000000000612050000000000  3020120912   05          3                                                                                   3000000192560143987021641199                                                  N                     01321  0000000        000100
12051180370000199IGUAFER FERRO E ACO LTDA                                              0000000034100000000000000000000000000000852309100000002239389789443 B         201209022012071800000000054440000168275000000000173315000000000000000000000000005040050000000000  3020120920   01          2                                                                                   3112239389789077149484600089                                                  N                     01321  0000000        000101
12051180370000199IGUAFER FERRO E ACO LTDA                                              0000000034100000000000000000000000000000852309110000002239389799443 C         201209122012071800000000054540000168275000000000170515000000000000000000000000002240050000000000  3020120920   01          2                                                                                   3112239389797077149484600089                                                  N                     01321  0000000        000102
12052559499000175BOMAX NO BRASIL EQUIP INDS LT                                         0000000034100000000000000000000000000000852309140000002238631910000015611     201209172012071900000000054590000179150000000000180206000000000000000000000000001056050000000000  3020120920   01          2                                                                                   3112238631918324705000200079                                                  N                     01321  0000000        000103
12053585766000141MULTIACOS INDUSTRIA E COMERCIO                                        0000000000100000000000000000000000000000878205430000006553850000004437602     201209192012082800000000054610000311767000000000312287000000000000000000000000000520050000000000  3020120920   01          2                                                                                   3044016553851912000139523139                                                  N                     01321  0000000        000104
12053585766000141MULTIACOS INDUSTRIA E COMERCIO                                        0000000000100000000000000000000000000000878205440000006553860000004437802     201209192012082800000000054610000435925000000000436652000000000000000000000000000727050000000000  3020120920   01          2                                                                                   3044016553861912000139523159                                                  N                     01321  0000000        000105
12053585766000141MULTIACOS INDUSTRIA E COMERCIO                                        0000000000100000000000000000000000000000878205480000006553380000004360703     201209182012082800000000054600001201246000000001205250000000000000000000000000004004050000000000  3020120920   01          2                                                                                   3044016553381912000139523159                                                  N                     01321  0000000        000106
12053585766000141MULTIACOS INDUSTRIA E COMERCIO                                        0000000000100000000000000000000000000000885248180000003067630000004545202     201210102012091800000000054820001004573000000001004573000000000000000000000000000000050000000000  3020121010   01FS        1                                                                                   3044073067631912000139523189                                                  N                     01321  0000000        000107
12053585766000141MULTIACOS INDUSTRIA E COMERCIO                                        0000000000100000000000000000000000000000885248190000003068120000004604401     201210082012091800000000054800000195694000000000195694000000000000000000000000000000050000000000  3020121008   01FS        1                                                                                   3044073068121912000139523179                                                  N                     01321  0000000        000108
12053585766000141MULTIACOS INDUSTRIA E COMERCIO                                        0000000000100000000000000000000000000000885248200000003067420000004532102     201210082012091800000000054800000883908000000000883908000000000000000000000000000000050000000000  3020121008   01FS        1                                                                                   3044073067421912000139523199                                                  N                     01321  0000000        000109
12053585766000141MULTIACOS INDUSTRIA E COMERCIO                                        0000000000100000000000000000000000000000885248210000003067060000004462403     201210082012091800000000054800000761496000000000761496000000000000000000000000000000050000000000  3020121008   01FS        1                                                                                   3044073067061912000139523199                                                  N                     01321  0000000        000110
12053585766000141MULTIACOS INDUSTRIA E COMERCIO                                        0000000000100000000000000000000000000000878205500000006553760000004423602     201209182012082800000000054600000606735000000000608757000000000000000000000000002022050000000000  3020120920   01          2                                                                                   3044016553761912000139523129                                                  N                     01321  0000000        000111
12053585766000141MULTIACOS INDUSTRIA E COMERCIO                                        0000000000100000000000000000000000000000878205510000006553770000004423702     201209182012082800000000054600000535467000000000537251000000000000000000000000001784050000000000  3020120920   01          2                                                                                   3044016553771912000139523169                                                  N                     01321  0000000        000112
12053585766000141MULTIACOS INDUSTRIA E COMERCIO                                        0000000000100000000000000000000000000000878205520000006553790000004429602     201209192012082800000000054610000910020000000000911537000000000000000000000000001517050000000000  3020120920   01          2                                                                                   3044016553791912000139523119                                                  N                     01321  0000000        000113
12053585766000141MULTIACOS INDUSTRIA E COMERCIO                                        0000000000100000000000000000000000000000878205540000006553840000004437502     201209192012082800000000054610000418711000000000419409000000000000000000000000000698050000000000  3020120920   01          2                                                                                   3044016553841912000139523119                                                  N                     01321  0000000        000114
12053585766000141MULTIACOS INDUSTRIA E COMERCIO                                        0000000000100000000000000000000000000000878205580000006554650000004500801     201209182012082800000000054600000178642000000000179238000000000000000000000000000596050000000000  3020120920   01          2                                                                                   3044016554651912000139523169                                                  N                     01321  0000000        000115
12053585766000141MULTIACOS INDUSTRIA E COMERCIO                                        0000000000100000000000000000000000000000878205590000006554660000004500901     201209182012082800000000054600000991746000000000995052000000000000000000000000003306050000000000  3020120920   01          2                                                                                   3044016554661912000139523119                                                  N                     01321  0000000        000116
12053585766000141MULTIACOS INDUSTRIA E COMERCIO                                        0000000000100000000000000000000000000000878205600000006554670000004501001     201209182012082800000000054600000930228000000000933328000000000000000000000000003100050000000000  3020120920   01          2                                                                                   3044016554671912000139523119                                                  N                     01321  0000000        000117
12053585766000141MULTIACOS I C PRODS TEC LTDA                                          0000000042200000000000000000000000000000875773270000000000000000004421902     201209172012082100000000054590000942203000000000946912000000000000000000000000004709050000000000  3020120920   01          2                                                                                   3711500005033164914700545149                                                  N                     01321  0000000        000118
12053585766000141MULTIACOS I C PRODS TEC LTDA                                          0000000042200000000000000000000000000000875773280000000000000000004493701     201209172012082100000000054590000185498000000000186424000000000000000000000000000926050000000000  3020120920   01          2                                                                                   3711500005033164914700537139                                                  N                     01321  0000000        000119
12053585766000141MULTIACOS INDUSTRIA E COMERCIO                                        0000000000100000000000000000000000000000874070610000007281090000004462201     201209102012082100000000054520000586308000000000588262000000000000000000000000002931050000000000  3020120912   05          3                                                                                   3043997281091912000139523119                                                  N                     01321  0000000        000120
12053585766000141MULTIACOS INDUSTRIA E COMERCIO                                        0000000000100000000000000000000000000000874070620000007281100000004462301     201209102012082100000000054520000270748000000000271650000000000000000000000000001353050000000000  3020120912   05          3                                                                                   3043997281101912000139523159                                                  N                     01321  0000000        000121
12053585766000141MULTIACOS INDUSTRIA E COMERCIO                                        0000000000100000000000000000000000000000874070630000007281110000004462401     201209102012082100000000054520000784572000000000787188000000000000000000000000003924050000000000  3020120912   05          3                                                                                   3043997281111912000139523189                                                  N                     01321  0000000        000122
12053585766000141MULTIACOS COM DE PRODUTOS TECN                                        0000000023703398700000000011290 00000000867622130020223400000290004411802     201209142012072000000000054560000585031000000000590881000000000000000000000000005850050000000000  3020120920   01          2  RUA JUNO  533                                                                    3                         000000000000000                                     N                     00598  0000000        000123
12053585766000141MULTIACOS INDUSTRIA E COMERCIO                                        0000000000100000000000000000000000000000885248110000003068130000004604501     201210082012091800000000054800000937682000000000937682000000000000000000000000000000050000000000  3020121008   01FS        1                                                                                   3044073068131912000139523189                                                  N                     01321  0000000        000124
12053585766000141MULTIACOS INDUSTRIA E COMERCIO                                        0000000000100000000000000000000000000000885248120000003068230000004612201     201210092012091800000000054810000221054000000000221054000000000000000000000000000000050000000000  3020121009   01FS        1                                                                                   3044073068231912000139523189                                                  N                     01321  0000000        000125
12053585766000141MULTIACOS INDUSTRIA E COMERCIO                                        0000000000100000000000000000000000000000885248130000003068240000004612301     201210092012091800000000054810000655966000000000655966000000000000000000000000000000050000000000  3020121009   01FS        1                                                                                   3044073068241912000139523119                                                  N                     01321  0000000        000126
12053585766000141MULTIACOS INDUSTRIA E COMERCIO                                        0000000000100000000000000000000000000000885248230000003067140000004478903     201210112012091800000000054830000130644000000000130644000000000000000000000000000000050000000000  3020121011   01FS        1                                                                                   3044073067141912000139523149                                                  N                     01321  0000000        000127
12053585766000141MULTIACOS INDUSTRIA E COMERCIO                                        0000000000100000000000000000000000000000885248240000003067040000004462203     201210082012091800000000054800000569064000000000569064000000000000000000000000000000050000000000  3020121008   01FS        1                                                                                   3044073067041912000139523199                                                  N                     01321  0000000        000128
12053585766000141MULTIACOS INDUSTRIA E COMERCIO                                        0000000000100000000000000000000000000000885248270000003067430000004532302     201210082012091800000000054800000257380000000000257380000000000000000000000000000000050000000000  3020121008   01FS        1                                                                                   3044073067431912000139523129                                                  N                     01321  0000000        000129
12053585766000141MULTIACOS INDUSTRIA E COMERCIO                                        0000000000100000000000000000000000000000885248250000003067150000004479003     201210112012091800000000054830000831267000000000831267000000000000000000000000000000050000000000  3020121011   01FS        1                                                                                   3044073067151912000139523139                                                  N                     01321  0000000        000130
12053585766000141MULTIACOS INDUSTRIA E COMERCIO                                        0000000000100000000000000000000000000000885248280000003067620000004545102     201210102012091800000000054820000305114000000000305114000000000000000000000000000000050000000000  3020121010   01FS        1                                                                                   3044073067621912000139523139                                                  N                     01321  0000000        000131
12053585766000141MULTIACOS INDUSTRIA E COMERCIO                                        0000000000100000000000000000000000000000885248260000003067050000004462303     201210082012091800000000054800000262786000000000262786000000000000000000000000000000050000000000  3020121008   01FS        1                                                                                   3044073067051912000139523179                                                  N                     01321  0000000        000132
12053585766000141MULTIACOS INDUSTRIA E COMERCIO                                        0000000000100000000000000000000000000000885248220000003067130000004478803     201210112012091800000000054830000211226000000000211226000000000000000000000000000000050000000000  3020121011   01FS        1                                                                                   3044073067131912000139523119                                                  N                     01321  0000000        000133
12054382510000108SETENTA IND E COM DE MADEIRAS                                         0000000034100000000000000000000000000000860403430000002277814474462 A         201209042012080700000000054460000191200000000000197216000000000000000000000000006016050000000000  3020120920   01          2                                                                                   3112277814474057049175300069                                                  N                     01321  0000000        000134
12054382510000108SETENTA IND E COM DE MADEIRAS                                         0000000034100000000000000000000000000000874070720000002305114064536 A         201209192012081600000000054610000191200000000000191576000000000000000000000000000376050000000000  3020120920   01          2                                                                                   3112305114061057002848000039                                                  N                     01321  0000000        000135
12056993512000150CYKLOP DO BRASIL EMBALAGENS SA                                        0000000034100000000000000000000000000000878205080000002299329080132528        201209112012081400000000054530000083607000000000086063000000000000000000000000002763050000000000  3020120919   06          3                                                                                   3112299329089025786126000099                                                  N                     01321  0000000        000136
12056993900000131CIA METALURGICA PRADA                                                 0000000034100000000000000000000000000000848180620000002218222670025829902     201209112012071700000000054530000498118000000000505588000000000000000000000000007470050000000000  3020120920   01          2                                                                                   3112218222670293800573900029                                                  N                     01321  0000000        000137
12056993900000131CIA METALURGICA PRADA                                                 0000000034100000000000000000000000000000848180630000002218222680025830002     201209112012071700000000054530000247673000000000251390000000000000000000000000003717050000000000  3020120920   01          2                                                                                   3112218222688293800573900059                                                  N                     01321  0000000        000138
12056993900000131CIA METALURGICA PRADA                                                 0000000034100000000000000000000000000000848180640000002218222690025830102     201209112012071700000000054530000207402000000000210516000000000000000000000000003114050000000000  3020120920   01          2                                                                                   3112218222696293800573900039                                                  N                     01321  0000000        000139
12056993900000131CIA METALURGICA PRADA                                                 0000000034100000000000000000000000000000823343300000002094231730024634103     201208272012060400000000054380000135902000000000141350000000000000000000000000005448050000000000  3020120920   01          2                                                                                   3112094231738293800573900079                                                  N                     01321  0000000        000140
12056993900000131CIA METALURGICA PRADA                                                 0000000034100000000000000000000000000000838527910000002171340450025383502     201208272012063000000000054380000575128000000000598144000000000000000000000000023016050000000000  3020120920   01          2                                                                                   3112171340451293800573900039                                                  N                     01321  0000000        000141
12056993900000131CIA METALURGICA PRADA                                                 0000000034100000000000000000000000000000838527920000002171340460025384302     201208272012063000000000054380000454477000000000472645000000000000000000000000018168050000000000  3020120920   01          2                                                                                   3112171340469293800573900019                                                  N                     01321  0000000        000142
12056993900000131CIA METALURGICA PRADA                                                 0000000034100000000000000000000000000000823343310000002094231740024634203     201208272012060400000000054380000247806000000000257718000000000000000000000000009912050000000000  3020120920   01          2                                                                                   3112094231746293800573900019                                                  N                     01321  0000000        000143
12056993900000131CIA METALURGICA PRADA                                                 0000000034100000000000000000000000000000823343330000002094231750024634603     201208272012060400000000054380000124715000000000129707000000000000000000000000004992050000000000  3020120920   01          2                                                                                   3112094231753293800573900039                                                  N                     01321  0000000        000144
12056993900000131CIA METALURGICA PRADA                                                 0000000034100000000000000000000000000000823343340000002094231760024634703     201208272012060400000000054380000508859000000000529211000000000000000000000000020352050000000000  3020120920   01          2                                                                                   3112094231761293800573900019                                                  N                     01321  0000000        000145
12056993900000131CIA METALURGICA PRADA                                                 0000000034100000000000000000000000000000824820100000002102181160024711603     201208292012060600000000054400000833146000000000863704000000000000000000000000030558050000000000  3020120920   01          2                                                                                   3112102181164293800573900039                                                  N                     01321  0000000        000146
12056993900000131CIA METALURGICA PRADA                                                 0000000034100000000000000000000000000000855028550000002254750250026244301     201208272012072800000000054380000100986000000000105018000000000000000000000000004032050000000000  3020120920   01          2                                                                                   3112254750253293800573900099                                                  N                     01321  0000000        000147
12056993900000131CIA METALURGICA PRADA                                                 0000000034100000000000000000000000000000855028560000002254750260026244401     201208272012072800000000054380000084368000000000087752000000000000000000000000003384050000000000  3020120920   01          2                                                                                   3112254750261293800573900089                                                  N                     01321  0000000        000148
12056993900000131CIA METALURGICA PRADA                                                 0000000034100000000000000000000000000000840312930000002179478290025419302     201208282012070300000000054390000402178000000000417588000000000000000000000000015410050000000000  3020120920   01          2                                                                                   3112179478295293800573900089                                                  N                     01321  0000000        000149
12056993900000131CIA METALURGICA PRADA                                                 0000000034100000000000000000000000000000840312940000002179478300025419402     201208282012070300000000054390000322804000000000335178000000000000000000000000012374050000000000  3020120920   01          2                                                                                   3112179478303293800573900079                                                  N                     01321  0000000        000150
12056993900000131CIA METALURGICA PRADA                                                 0000000034100000000000000000000000000000844839060000002201181940025644402     201209052012071100000000054470000779647000000000799132000000000000000000000000019485050000000000  3020120920   01          2                                                                                   3112201181941293800573900019                                                  N                     01321  0000000        000151
12056993900000131CIA METALURGICA PRADA                                                 0000000034100000000000000000000000000000844839140000002201181870025629302     201209052012071100000000054470000257906000000000264356000000000000000000000000006450050000000000  3020120920   01          2                                                                                   3112201181875293800573900069                                                  N                     01321  0000000        000152
12056993900000131CIA METALURGICA PRADA                                                 0000000034100000000000000000000000000000844839000000002201181880025629402     201209052012071100000000054470000249372000000000255612000000000000000000000000006240050000000000  3020120920   01          2                                                                                   3112201181883293800573900019                                                  N                     01321  0000000        000153
12056993900000131CIA METALURGICA PRADA                                                 0000000034100000000000000000000000000000844839010000002201181890025635302     201209052012071100000000054470000406842000000000417012000000000000000000000000010170050000000000  3020120920   01          2                                                                                   3112201181891293800573900019                                                  N                     01321  0000000        000154
12056993900000131CIA METALURGICA PRADA                                                 0000000034100000000000000000000000000000844839020000002201181900025635402     201209052012071100000000054470000208689000000000213909000000000000000000000000005220050000000000  3020120920   01          2                                                                                   3112201181909293800573900069                                                  N                     01321  0000000        000155
12056993900000131CIA METALURGICA PRADA                                                 0000000034100000000000000000000000000000844839030000002201181910025635502     201209052012071100000000054470000164780000000000168905000000000000000000000000004125050000000000  3020120920   01          2                                                                                   3112201181917293800573900029                                                  N                     01321  0000000        000156
12056993900000131CIA METALURGICA PRADA                                                 0000000034100000000000000000000000000000844839040000002201181920025635602     201209052012071100000000054470000339933000000000348438000000000000000000000000008505050000000000  3020120920   01          2                                                                                   3112201181925293800573900069                                                  N                     01321  0000000        000157
12056993900000131CIA METALURGICA PRADA                                                 0000000034100000000000000000000000000000844839050000002201181930025636202     201209052012071100000000054470000746213000000000764873000000000000000000000000018660050000000000  3020120920   01          2                                                                                   3112201181933293800573900019                                                  N                     01321  0000000        000158
12057029431000106ATLAS COPCO BRASIL LTDA                                               0000000034100000000000000000000000000000861960280000002283943487000054090     201209062012080900000000054480000059490000000000060036000000000000000000000000000546050000000000  3020120920   01          2                                                                                   3112283943481293804111400069                                                  N                     01321  0000000        000159
12057029431000106ATLAS COPCO BRASIL LTDA                                               0000000034100000000000000000000000000000863731640000002292733057000054146     201209072012081000000000054490000081450000000000082152000000000000000000000000000702050000000000  3020120920   01          2                                                                                   3112292733055293804111400099                                                  N                     01321  0000000        000160
12057158057000130COMERCIAL ELETRICA PJ LTDA                                            0000000023703394400000000972983 00000000842436850090219200008900000305028     201208012012070400000000054120000079196000000000092346000000000000000000000000013150050000000000  3020120920   01          2  R TAMAINDE 1410                                                                  3                         000000000000000                                     N                     00598  0000000        000161
12059659615000177DZ COMERCIO R E SERVICOS LTDA                                         000000003410000000000000000000000000000086699205000000900000268252            201209172012081500000000054590000060000000000000060360000000000000000000000000000360050000000000  3020120920   01          2                                                                                   3109000002680000314585100059                                                  N                     01321  0000000        000162
12061217188000119TELAS METALICAS TELMETAL LTDA                                         0000000000100000000000000000000000000000864554370000000056140005494 2 3       201209182012081400000000054600000008494000000000008540000000000000000000000000000046050000000000  3020120920   01          2                                                                                   3000000115031800000056141799                                                  N                     01321  0000000        000163
12061217188000119TELAS METALICAS TELMETAL LTDA                                         0000000034100000000000000000000000000000864554400000009000029225484 2 3       201209132012081300000000054550000113553000000000113553000000000000000000000000000000050000000000  3020120913   06          3                                                                                   3109000029221077099894600049                                                  N                     01321  0000000        000164
12061217188000119TELAS METALICAS TELMETAL LTDA                                         0000000000100000000000000000000000000000885248140000000057440005659 1 2       201210152012091800000000054870000039222000000000039222000000000000000000000000000000050000000000  3020121015   01FS        1                                                                                   3000000115031800000057441729                                                  N                     01321  0000000        000165
12061217188000119TELAS METALICAS TELMETAL LTDA                                         0000000000100000000000000000000000000000885248150000000057450005659 2 2       201210292012091800000000055010000039221000000000039221000000000000000000000000000000050000000000  3020121029   01FS        1                                                                                   3000000115031800000057451769                                                  N                     01321  0000000        000166
12061217188000119TELAS METALICAS TELMETAL LTDA                                         0000000000100000000000000000000000000000885248160000000057460005660 1 2       201210152012091800000000054870000072172000000000072172000000000000000000000000000000050000000000  3020121015   01FS        1                                                                                   3000000115031800000057461749                                                  N                     01321  0000000        000167
12061217188000119TELAS METALICAS TELMETAL LTDA                                         0000000000100000000000000000000000000000885248170000000057470005660 2 2       201210292012091800000000055010000072171000000000072171000000000000000000000000000000050000000000  3020121029   01FS        1                                                                                   3000000115031800000057471789                                                  N                     01321  0000000        000168
12062944582000111AS SOLUCOES COMERCIAL LTDA                                            00000000001000000000000000000000000000008669920400000032054500016090 A        201209132012081700000000054550000027500000000000027660000000000000000000000000000192050000000000  3020120918   06          3                                                                                   3529483205451190000690001719                                                  N                     01321  0000000        000169
12064952757000168WALMAC COM DE PROD QUIMICOS LT                                        0000000034100000000000000000000000000000860403460000002275821710020148        201208312012080300000000054420000219267000000000227887000000000000000000000000008620050000000000  3020120920   01          2                                                                                   3112275821711064807961400079                                                  N                     01321  0000000        000170
12066841552000130R V SEG PATRIMONIAL S C LTDA                                          00000000341000000000000000000000000000008661542000000090002192721927          201209102012081000000000054520000483241000000000484690000000000000000000000000001610050000000000  3020120919   05          3                                                                                   3109000219278001838994000019                                                  N                     01321  0000000        000171
12066841552000130R V SEG PATRIMONIAL LTDA                                              00000000341000000000000000000000000000008852483200000090002192721927          201209102012081000000000054520000483241000000000484851000000000000000000000000001610050000000000  3020120920   01FS        1                                                                                   3109000219270001835253400099                                                  N                     01321  0000000        000172
12067647412000199ANCORA CHUMBADORES LTDA                                               000000003410000000000000000000000000000083392860000000214873078055988 3       201209182012062000000000054600000250000000000000250984000000000000000000000000000984050000000000  3020120920   01          2                                                                                   3112148730784013626917200059                                                  N                     01321  0000000        000173
12069284248000128ISOCOAT TINTAS E VERNIZES LTDA                                        0000000034100000000000000000000000000000841061040000002182507930052085        201209172012070200000000054590000236130000000000238020000000000000000000000000001890050000000000  3020120920   01          2                                                                                   3112182507932077430121200019                                                  N                     01321  0000000        000174
12069284248000128ISOCOAT TINTAS E VERNIZES LTDA                                        0000000034100000000000000000000000000000856906380000002259392820053390        201209142012073100000000054560000055579000000000056467000000000000000000000000000888050000000000  3020120920   01          2                                                                                   3112259392820077430121200029                                                  N                     01321  0000000        000175
12069309706000136F N A TRANSPORTES LTDA                                                000000003410000000000000000000000000000086615421000000900010656059068         201208302012081500000000054410000079200000000000084744000000000000000000000000005544050000000000  3020120920   01          2                                                                                   3109000106565005486932600099                                                  N                     01321  0000000        000176
12081560047000101ACEVILLE TRANSPORTES LTDA                                             0000000023702232200000000013536 0000000087231863009022320259757    259757     201209142012090300000000054560000024000000000000024320000000000000000000000000000384050000000000  3020120919   06          3  RUA JUNO                                                                         3                         000000000000000                                     N                     00598  0000000        000177
900017800000000063192837                                                                                                                                                                                                                                                                                                                                                                                                                                                                00598  0000000        000178
