0000147602043799295000110ALTAMIRA IND METALURGICA LTDA           20100474000002012082011041900000        2    230A                                                                                          000000000000000                                                                                                                                                                                                                                                                                   000001
12043799295000110ALTAMIRA INDUSTRIA METAL LTDA RUA  GANGES  528                        0344503003303809500000130004071 I000000000009581000000000000000               201208200000000000000000000000000000000000000007100000000000000000000000000000000000050000000001  0820120820   01HA        0001120                                                                             3D0000000101                             0001                                 S                     00000  0020256        000002
12000867888000164TECNEQUIP TECNOLOGIA EQUIP LTDRUA  GANGES                             0344503003303809500000130003245 I000000000009582000000000000000               201208200000000000000000000000000000000000000003000000000000000000000000000000000000040000000002  0820120820   01HA        0001120                                                                             3C0000000101                             0002                                 N                     00000  0020256        000003
12043799295000110ALTAMIRA INDUSTRIA METAL LTDA RUA  GANGES  528                        0344503034100467 00000000209128 I000000000009583000000000000000               201208200000000000000000000000000000000000000007500000000000000000000000000000000000050000000003  0820120820   01HA        0001120                                                                             3D0000000101                             0003                                 S                     00000  0020256        000004
900000500000000017600000                                                                                                                                                                                    000000000000000                                                                                                                                                                                                                                                    00000300000000000000000        000005
