0000147602043799295000110ALTAMIRA IND METALURGICA LTDA           20100477000002012082017400800000        2    230A                                                                                          000000000000000                                                                                                                                                                                                                                                                                   000001
12014309992000148WEG DRIVES   CONTROLS   AUTOMA                                        0000000023702727800000000001872 00000000812917770090214200002440005763301     201208160000000000000000054270000272993000000000274445000000000000000000000000001452050000000000  3020120820   01MFBUHA    500R JUNO  533                                                                      3010000                   00000000000000000057633/01                          N                     00000 10020256        000002
12066899790000105FABRICA ARTEF LATEX ESTRELA EP                                        00000000399000000000000000000000000000008223650400000000000000071065 003      201208190000000000000000054300000368900000000000368900000000000000000000000000000000050000000000  3020120820   01MFBUHA    500                                                                                 3175368007941125027292500169010000       0071065/03                           N                     00000 10020256        000003
12035820448000136WHITE MARTINS GASES INDUSTRIAI                                        0000000023700026400000003937925 0000000084745213009022000001338352522 001     201208140000000000000000054250000081150000000000083421000000000000000000000000002271050000000000  3020120820   01MFBUHA    500RUA GANGES  528                                                                  3010000                   0000000000000000008787                              N                     00000 10020256        000004
12035820448000136WHITE MARTINS GASES INDUSTRIAI                                        0000000023700026400000003937925 0000000084895719009022020001144353515 001     201208160000000000000000054270000028403000000000029123000000000000000000000000000720050000000000  3020120820   01MFBUHA    500RUA GANGES  528                                                                  3010000                   0000000000000000008806                              N                     00000 10020256        000005
12061186847000105PERFILADOS GRANADO LTDA                                               0000000003300000000000000000000000000000849855380000004600000005 001 A        201208150000000000000000054260000089240000000000090000000000000000000000000000000760050000000000  3020120820   01MFBUHA    500                                                                                 3917995920000003502546010419010000       0005001                              N                     00000 10020256        000006
12057196081000164MINELE COMERCIO DE PARAFUSOS L                                        0000000023700298400000002047470 0000000085152929009022070000008513            201208160000000000000000054270000073900000000000075885000000000000000000000000001985050000000000  3020120820   01MFBUHA    500R  GANGES  528   VL CARRAO                                                       3010000                   000000000000000000513                               N                     00000 10020256        000007
12033325184001786ALSCO TOALHEIRO BRASIL                                                0000000023703396000000001490850 0000000085315513009000002660205VM26602        201208160000000000000000054270000031827000000000031955000000000000000000000000000128050000000000  3020120820   01MFBUHA    500RUA  GANGES 528                                                                  3010000                   00000000000000000026602                             N                     00000 10020256        000008
12056428188000128EDVALDO SANTOS ROSA ME                                                0000000023700898200000000005622 0000000085959068009011222000658194919598      201208140000000000000000054250000037000000000000038478000000000000000000000000001478050000000000  3020120820   01MFBUHA    500RUA TAMAINDE  1410                                                               3010000                   000000000000000000106                               N                     00000 10020256        000009
12009338857000190FERNANDO  NAGAO  CARDONE  ALVA                                        000000000330000000000000000000000000000085959072000000080000000ALTA 08 2012   201208200000000000000000054310000136682000000000136682000000000000000000000000000000050000000000  3020120820   01MFBUHA    500                                                                                 3947901700000051048108010179010000       0008/2012                            N                     00000 10020256        000010
12086878469000143SUL AMERICA SEG SAUDE S A     RUA  COELHO LISBOA  61   SL 06   TERREO 0332304035600000 0000000000000  I000000000009589000000000000000               201208200000000000000000054310000000000000000000394330000000000000000000000000000000040000043414  3120120820   01HA        000                                                                                 3007548091858130117959311369             0043414                              N                     00000 10020256        000011
12062932942000165INST BRAS CONTROLE CANCER     AV ALCANTARA MACHADO  80   8 ANDAR      0310290034100000 0000000000000  I000000000009590000000000000000               201208200000000000000000054310000005000000000000005000000000000000000000000000000000050000152526  3120120820   01HA        000                                                                                 3175003366015007229250100089             000152526                            N                     00000 10020256        000012
12062014881000157INDUSTRIA MEC JULIAPA LTDA    RUA  BURITI ALEGRE  184                 0365700034100000 0000000000000  I000000000009591000000000000000               201208200000000000000000054310000077420000000000077420000000000000000000000000000000010000001976  3120120820   01HA        000                                                                                 3175000033978076423432400089             0001976                              N                     00000 10020256        000013
12062548797000113SIND  IND  FUN  MOV  METAL SP AV PAULISTA 1313                        0131192300100000 0000000000000  I000000000009592000000000000000               201208200000000000000000054310000015000000000000015000000000000000000000000000000000050000150898  3120120820   01HA        000                                                                                 3130573228541812001052541689             00150898                             N                     00000 10020256        000014
12026470807000343MANDALA TRANSPORTES DE CARGAS                                         0000000034100000 0000000000000  I000000000009593000000000000000               201208210000000000000000054320000050000000000000050000000000000000000000000000000000010000090646  3120120820   01HA        000                                                                                 3109000149882144631527500019             00090646/8                           N                     00000 10020256        000015
12064952757000168WALMAC COM PROD QUIMICOS LTDA AV  OLIVEIRA FREIRE  223                0808057034100000 0000000000000  I000000000009594000000000000000               201208200000000000000000054310000221852000000000221852000000000000000000000000000000010000018504  3120120820   01HA        000                                                                                 3181525906786064807961400029             00018504                             N                     00000 10020256        000016
12007151435000186SALIS DE MOURA E ADVOGADOS ASSR MARIA PAULA 78 BELA VISTA             0131900023700500200000000594440 I000000000009595000000000000000               201208200000000000000000000000000000000000000000147750000000000000000000000000000000010000072012  0120120820   01HA        000                                                                                 3                                        00REF.JULHO/2012.                    N                     00000 10020256        000017
12017469701000177ARCELORMITTAL BRASIL S A                                              0000000034100000 0000000000000  I000000000009596000000000000000               201208200000000000000000054310000064111000000000064111000000000000000000000000000000010000126447  3120120820   01HA        000                                                                                 3181525917543293802529900029             000126447/02                         N                     00000 10020256        000018
12061096178000172COMERCIAL ELETRICA RIMO LTDA                                          0000000034100000 0000000000000  I000000000009597000000000000000               201208200000000000000000054310000033332000000000033332000000000000000000000000000000010000009048  3120120820   01HA        000                                                                                 3181525920705166009333500019             009048                               N                     00000 10020256        000019
12069284248000128ISOCOAT TINTAS E VERNIZES LTDARUA  COM GIUSEPPE MARCHIORI  2189       1814700034100000 0000000000000  I000000000009598000000000000000               201208200000000000000000054310000274369000000000274369000000000000000000000000000000010000052085  3120120820   01HA        000                                                                                 3181525922109077430121200049             00052085                             N                     00000 10020256        000020
12061780615000253LEPOK INFORMATICA E PAPL LTDA AV RIO DAS PEDRAS  538 548              0345200000100000 0000000000000  I000000000009599000000000000000               201208200000000000000000054310000052743000000000052743000000000000000000000000000000010000114936  3120120820   01HA        000                                                                                 3043923459653333000058133189             000114936/01                         N                     00000 10020256        000021
12061217188000119TELAS METALICAS TELMETAL LTDA RUA ALDEIA DA PRATA  38                 0368008000100000 0000000000000  I000000000009600000000000000000               201208200000000000000000054310000052976000000000052976000000000000000000000000000000010000005358  3120120820   01HA        000                                                                                 3000000115031800000055491749             0005358/01-03                        N                     00000 10020256        000022
12009043000000143GERSON D SILVA SEG DO TRABALHORUA  BOA VISTA  362   FUNDOS            0957230039900000 0000000000000  I000000000009601000000000000000               201208200000000000000000054310000071826000000000071826000000000000000000000000000000010000000320  3120120820   01HA        000                                                                                 3304770024940477000087000119             00320                                N                     00000 10020256        000023
12061383493000180MARITIMA SEGUROS S A          RUA CEL XAVIER DE TOLEDO  114           0104890203300000 0000000000000  I000000000009602000000000000000               201208200000000000000000054310000101220000000000101220000000000000000000000000000000050010653678  3120120820   01HA        000                                                                                 3001910187309650578000335659             0010653678                           N                     00000 10020256        000024
12058119371000177SOFTMATIC SIST AUTOMATICOS I  R VISC DE ITABORAI 368 TATUAPE          0330805023700503700000000362034 I000000000009603000000000000000               201208200000000000000000000000000000000000000000040613000000000000000000000000000000010000462497  0120120820   01HA        000                                                                                 3                                        000462497                            N                     00000 10020256        000025
12060737301000124SERRALHERIA SEPETIBA LTDA     PCA ALFREDO WEISZFLOG 81                0504505023700368900000000503509 I000000000009604000000000000000               201208200000000000000000000000000000000000000000057440000000000000000000000000000000010000000325  0120120820   01HA        000                                                                                 3                                        00325/02                             N                     00000 10020256        000026
12006000195000156MBA MERCANTIL BRASIL ACO LTDA RUA  RINCAO  220                        0365108000100000 0000000000000  I000000000009605000000000000000               201208200000000000000000054310000962317000000000962317000000000000000000000000000000010000008614  3120120820   01HA        000                                                                                 3043837752213333000105251159             0008614/02                           N                     00000 10020256        000027
900002800000000003751188                                                                                                                                                                                    000000000000000                                                                                                                                                                                                                                                    00002601248800003102261        000028
