0000147602043799295000110ALTAMIRA INDUSTRIA METALURGICA LT       202000000019320121221060045             1                                                                                                                                                                                                                                                                                                                                                                                                    000001
12001784706000154TRANSPORTES WARTHA LTDA                                               0000000023701775200000000260010 0000000093256023009023390000556SAO2689691     201301102012102920130110055740000027846000000000018000000000000009846000000000000000050000000000  3020130110   01          2  R  GANGES  528                                                                   300000000000984600000013  000000000000000                                     N                     00598  0000000        000002
12001895314000162COLETA INDUSTRIAL FIMAVAN LTDA                                        0000000034100000000000000000000000000000866992070000009002335349439           201208272012081700000000054380000123695000000000164333000000000000000000000000040638050000000000  3020121221   01          2                                                                                   3109002335346144604097200019                                                  N                     01321  0000000        000003
12003489596000123BEND FLEX I COMERCIO LTDA                                             000000003410000000000000000000000000000088599899000000171434574613            201209172012081600000000054590000585000000000000694345000000000000000000000000109345050000000000  3020121221   01          2                                                                                   3191714345748157734445800019                                                  N                     01321  0000000        000004
12003489596000123BEND FLEX I COMERCIO LTDA                                             000000003410000000000000000000000000000088350832000000171879874608            201209122012082100000000054540000695250000000000831950000000000000000000000000136700050000000000  3020121221   01          2                                                                                   3191718798744157734445800069                                                  N                     01321  0000000        000005
12005880850000145NEDERMAN BRASIL COM PROD EX LT                                        000000003410000000000000000000000000000086373178000000614350956002763 A       201209252012081400000000054670000289674000000000339264000000000000000000000000049590050000000000  3020121221   01          2                                                                                   3156143509568160829000100049                                                  N                     01321  0000000        000006
12006000195000156MBA MERCANTIL BRAS DE ACO LTDA                                        0000000034100000000000000000000000000000906662670000001671394410008920B03     201210142012071700000000054860000576584000000000653696000000000000000000000000077112050000000000  3020121221   01          2                                                                                   3191671394416064849251000039                                                  N                     01321  0000000        000007
12006000195000156MBA MERCANTIL BRAS DE ACO LTDA                                        0000000034100000000000000000000000000000885998980000001667238420008870B02     201209112012071600000000054530000839952000000001006804000000000000000000000000166852050000000000  3020121221   01          2                                                                                   3191667238429064849251000039                                                  N                     01321  0000000        000008
12006000195000156MBA MERCANTIL BRAS DE ACO LTDA                                        0000000034100000000000000000000000000000884432550000002398047590009475B02     201212062012090500000000055390000124131000000000124131000000000000000000000000000000050000000000  3020121206   05          3                                                                                   3112398047590064899001800039                                                  N                     01321  0000000        000009
12006000195000156MBA MERCANTIL BRAS DE ACO LTDA                                        0000000034100000000000000000000000000000884432720000002398047530009460B02     201212062012090500000000055390000130438000000000130438000000000000000000000000000000050000000000  3020121206   05          3                                                                                   3112398047533064899001800019                                                  N                     01321  0000000        000010
12006000195000156MBA MERCANTIL BRAS DE ACO LTDA                                        0000000034100000000000000000000000000000894343980000002451556680009735B01     201212062012092800000000055390000239096000000000239096000000000000000000000000000000050000000000  3020121206   05          3                                                                                   3112451556685064899001800079                                                  N                     01321  0000000        000011
12006000195000156MBA MERCANTIL BRAS DE ACO LTDA                                        0000000034100000000000000000000000000000904173160000001667238280008876B03     201210122012071600000000054840000810320000000000920306000000000000000000000000111580050000000000  3020121220   05          3                                                                                   3191667238288064849251000079                                                  N                     01321  0000000        000012
12006000195000156MBA MERCANTIL BRAS DE ACO LTDA                                        0000000034100000000000000000000000000000904173170000001671394420008925B03     201210122012071700000000054840000719580000000000817215000000000000000000000000099050050000000000  3020121220   05          3                                                                                   3191671394424064849251000069                                                  N                     01321  0000000        000013
12006000195000156MBA MERCANTIL BRAS DE ACO LTDA                                        0000000034100000000000000000000000000000944046300000002698080890010696B02     201302072012121300000000056020000633896000000000633896000000000000000000000000000000050000000000  3020130207   01FS        1                                                                                   3112698080895064899001800079                                                  N                     01321  0000000        000014
12006000195000156MBA MERCANTIL BRAS DE ACO LTDA                                        0000000034100000000000000000000000000000944046460000002698081360010748B02     201302122012121800000000056070000983326000000000983326000000000000000000000000000000050000000000  3020130213   01FS        1                                                                                   3112698081364064899001800069                                                  N                     01321  0000000        000015
12006000195000156MBA MERCANTIL BRAS DE ACO LTDA                                        0000000034100000000000000000000000000000944046470000002698081310010739B02     201302122012121800000000056070000162201000000000162201000000000000000000000000000000050000000000  3020130213   01FS        1                                                                                   3112698081315064899001800089                                                  N                     01321  0000000        000016
12006000195000156MBA MERCANTIL BRAS DE ACO LTDA                                        0000000034100000000000000000000000000000944046480000002698081370010748B03     201303122012121800000000056350000983326000000000983326000000000000000000000000000000050000000000  3020130312   01FS        1                                                                                   3112698081372064899001800049                                                  N                     01321  0000000        000017
12006000195000156MBA MERCANTIL BRAS DE ACO LTDA                                        0000000034100000000000000000000000000000944046310000002698080900010696B03     201303072012121300000000056300000633896000000000633896000000000000000000000000000000050000000000  3020130307   01FS        1                                                                                   3112698080903064899001800019                                                  N                     01321  0000000        000018
12006000195000156MBA MERCANTIL BRAS DE ACO LTDA                                        0000000034100000000000000000000000000000944046320000002698080880010696B01     201301102012121300000000055740000633895000000000633895000000000000000000000000000000050000000000  3020130110   01FS        1                                                                                   3112698080887064899001800039                                                  N                     01321  0000000        000019
12006000195000156MBA MERCANTIL BRAS DE ACO LTDA                                        0000000034100000000000000000000000000000944046330000002698080930010697B03     201303072012121300000000056300000678311000000000678311000000000000000000000000000000050000000000  3020130307   01FS        1                                                                                   3112698080937064899001800059                                                  N                     01321  0000000        000020
12006000195000156MBA MERCANTIL BRAS DE ACO LTDA                                        0000000034100000000000000000000000000000944046340000002698080940010698B01     201301102012121300000000055740000223814000000000223814000000000000000000000000000000050000000000  3020130110   01FS        1                                                                                   3112698080945064899001800049                                                  N                     01321  0000000        000021
12006000195000156MBA MERCANTIL BRAS DE ACO LTDA                                        0000000034100000000000000000000000000000944046350000002698080910010697B01     201301102012121300000000055740000678311000000000678311000000000000000000000000000000050000000000  3020130110   01FS        1                                                                                   3112698080911064899001800049                                                  N                     01321  0000000        000022
12006000195000156MBA MERCANTIL BRAS DE ACO LTDA                                        0000000034100000000000000000000000000000944046360000002698080950010698B02     201302072012121300000000056020000223814000000000223814000000000000000000000000000000050000000000  3020130207   01FS        1                                                                                   3112698080952064899001800079                                                  N                     01321  0000000        000023
12006000195000156MBA MERCANTIL BRAS DE ACO LTDA                                        0000000034100000000000000000000000000000944046370000002698080920010697B02     201302072012121300000000056020000678312000000000678312000000000000000000000000000000050000000000  3020130207   01FS        1                                                                                   3112698080929064899001800049                                                  N                     01321  0000000        000024
12006000195000156MBA MERCANTIL BRAS DE ACO LTDA                                        0000000034100000000000000000000000000000944046380000002698080960010698B03     201303072012121300000000056300000223814000000000223814000000000000000000000000000000050000000000  3020130307   01FS        1                                                                                   3112698080960064899001800059                                                  N                     01321  0000000        000025
12006000195000156MBA MERCANTIL BRAS DE ACO LTDA                                        0000000034100000000000000000000000000000944046390000002698081100010732B01     201301142012121700000000055780000271057000000000271057000000000000000000000000000000050000000000  3020130114   01FS        1                                                                                   3112698081109064899001800069                                                  N                     01321  0000000        000026
12006000195000156MBA MERCANTIL BRAS DE ACO LTDA                                        0000000034100000000000000000000000000000944046400000002698081140010733B02     201302112012121700000000056060000244335000000000244335000000000000000000000000000000050000000000  3020130213   01FS        1                                                                                   3112698081141064899001800019                                                  N                     01321  0000000        000027
12006000195000156MBA MERCANTIL BRAS DE ACO LTDA                                        0000000034100000000000000000000000000000944046410000002698081150010733B03     201303112012121700000000056340000244336000000000244336000000000000000000000000000000050000000000  3020130311   01FS        1                                                                                   3112698081158064899001800099                                                  N                     01321  0000000        000028
12006000195000156MBA MERCANTIL BRAS DE ACO LTDA                                        0000000034100000000000000000000000000000944046420000002698081110010732B02     201302112012121700000000056060000271057000000000271057000000000000000000000000000000050000000000  3020130213   01FS        1                                                                                   3112698081117064899001800029                                                  N                     01321  0000000        000029
12006000195000156MBA MERCANTIL BRAS DE ACO LTDA                                        0000000034100000000000000000000000000000944046430000002698081300010739B01     201301152012121800000000055790000162201000000000162201000000000000000000000000000000050000000000  3020130115   01FS        1                                                                                   3112698081307064899001800019                                                  N                     01321  0000000        000030
12006000195000156MBA MERCANTIL BRAS DE ACO LTDA                                        0000000034100000000000000000000000000000944046440000002698081120010732B03     201303112012121700000000056340000271056000000000271056000000000000000000000000000000050000000000  3020130311   01FS        1                                                                                   3112698081125064899001800039                                                  N                     01321  0000000        000031
12006000195000156MBA MERCANTIL BRAS DE ACO LTDA                                        0000000034100000000000000000000000000000944046450000002698081130010733B01     201301142012121700000000055780000244335000000000244335000000000000000000000000000000050000000000  3020130114   01FS        1                                                                                   3112698081133064899001800049                                                  N                     01321  0000000        000032
12006000195000156MBA MERCANTIL BRAS DE ACO LTDA                                        0000000034100000000000000000000000000000944046490000002698081340010739B03     201303122012121800000000056350000162201000000000162201000000000000000000000000000000050000000000  3020130312   01FS        1                                                                                   3112698081349064899001800039                                                  N                     01321  0000000        000033
12006000195000156MBA MERCANTIL BRAS DE ACO LTDA                                        0000000034100000000000000000000000000000944046510000002698081350010748B01     201301152012121800000000055790000983326000000000983326000000000000000000000000000000050000000000  3020130115   01FS        1                                                                                   3112698081356064899001800019                                                  N                     01321  0000000        000034
12006000195000156M B A MERCANTIL BRASILEIRA DE                                         0000000023700118P00000002130599 00000000865388240020222900000450009203B03     201212122012081500000000055450000344980000000000350155000000000000000000000000005175050000000000  3020121221   01          2  RUA JUNO  533                                                                    300000000000000000001500  000000000000000                                     N                     00598  0000000        000035
12006000195000156M B A MERCANTIL BRASILEIRA DE                                         0000000023700118P00000002130599 00000000865388330020222900000540009206B03     201212152012081500000000055480000527560000000000532834000000000000000000000000005274050000000000  3020121221   01          2  RUA JUNO  533                                                                    300000000000000000001500  000000000000000                                     N                     00598  0000000        000036
12006000195000156M B A MERCANTIL BRASILEIRA DE                                         0000000023700118P00000002130599 00000000868592700020223600000030009229B03     201212132012081600000000055460000253414000000000256790000000000000000000000000003376050000000000  3020121221   01          2  RUA JUNO  533                                                                    300000000000000000001500  000000000000000                                     N                     00598  0000000        000037
12006000195000156M B A MERCANTIL BRASILEIRA DE                                         0000000023700118P00000002130599 00000000865388270020222900000480009204B03     201212132012081500000000055460000127291000000000128987000000000000000000000000001696050000000000  3020121221   01          2  RUA JUNO  533                                                                    300000000000000000001500  000000000000000                                     N                     00598  0000000        000038
12006000195000156M B A MERCANTIL BRASILEIRA DE                                         0000000023700118P00000002130599 00000000865388300020222900000510009205B03     201212142012081500000000055470000348964000000000353038000000000000000000000000004074050000000000  3020121221   01          2  RUA JUNO  533                                                                    300000000000000000001500  000000000000000                                     N                     00598  0000000        000039
12006000195000156MBA MERCANTIL BRAS DE ACO LTDA                                        0000000034100000000000000000000000000000920384770000002577570400010216B01     201212062012110700000000055390000280226000000000280226000000000000000000000000000000050000000000  3020121206   05          3                                                                                   3112577570404064899001800029                                                  N                     01321  0000000        000040
12006000195000156MBA MERCANTIL BRAS DE ACO LTDA                                        0000000034100000000000000000000000000000904173150000001667238300008870B03     201210092012071600000000054810000839951000000000958895000000000000000000000000120596050000000000  3020121220   05          3                                                                                   3191667238304064849251000039                                                  N                     01321  0000000        000041
12006000195000156MBA MERCANTIL BRAS DE ACO LTDA                                        0000000034100000000000000000000000000000884432480000002398047560009473B02     201212062012090500000000055390000503132000000000503132000000000000000000000000000000050000000000  3020121206   05          3                                                                                   3112398047566064899001800039                                                  N                     01321  0000000        000042
12006000195000156MBA MERCANTIL BRAS DE ACO LTDA                                        0000000034100000000000000000000000000000887698090000001671394550008925B02     201209142012071700000000054560000719581000000000858251000000000000000000000000138670050000000000  3020121221   01          2                                                                                   3191671394556064849251000089                                                  N                     01321  0000000        000043
12006000195000156MBA MERCANTIL BRAS DE ACO LTDA                                        0000000034100000000000000000000000000000887698100000001671394560008926B02     201209142012071700000000054560000387716000000000462490000000000000000000000000074774050000000000  3020121221   01          2                                                                                   3191671394564064849251000019                                                  N                     01321  0000000        000044
12006000195000156MBA MERCANTIL BRAS DE ACO LTDA                                        0000000034100000000000000000000000000000889578520000001671394540008920B02     201209162012071700000000054580000576585000000000685449000000000000000000000000108864050000000000  3020121221   01          2                                                                                   3191671394549064849251000099                                                  N                     01321  0000000        000045
12006000195000156MBA MERCANTIL BRAS DE ACO LTDA                                        0000000034100000000000000000000000000000904173180000001671394430008926B03     201210122012071700000000054840000387716000000000441126000000000000000000000000053410050000000000  3020121221   01          2                                                                                   3191671394432064849251000079                                                  N                     01321  0000000        000046
12008272923000104P SANTOS ESQUADRARIAS METAL ME                                        0000000034100000000000000000000000000000915734100000006159682651954           201212052012110700000000055380000408138000000000433709000000000000000000000000025571050000000000  3020121221   01          2                                                                                   3156159682654160141951600029                                                  N                     01321  0000000        000047
12008952448000117CRDF AUTOMOCAO PNEUMATICA LTDA                                        0000000023703257300000000551805 00000000944046700090132354004920274A          201301162012121900000000055800000048635000000000048635000000000000000000000000000000050000000000  3020130116   01FS        1  RUA GANGES  528                                                                  3                         000000000000000                                     N                     00598  0000000        000048
12008952448000117CRDF AUTOMOCAO PNEUMATICA LTDA                                        0000000023703257300000000551805 00000000944046710090132354004930274B          201301232012121900000000055870000048635000000000048635000000000000000000000000000000050000000000  3020130123   01FS        1  RUA GANGES  528                                                                  3                         000000000000000                                     N                     00598  0000000        000049
12009338857000190FERNANDO  NAGAO  CARDONE  ALVA                                        000000000330000000000000000000000000000091653176000000300000000ALTA 11 2012   201211202012103000000000055230000134632000000000148502000000000000000000000000013870050000000000  3020121221   01          2                                                                                   3947901700000051051630010119                                                  N                     01321  0000000        000050
12012006058000121WEG TINTAS LTDA                                                       0000000023702727800000000001309 00000000882668430090225800000760016626903     201211272012091300000000055300000459992000000000474704000000000000000000000000014712050000000000  3020121221   01          2  R JUNO  533                                                                      3                         000000000000000                                     N                     00598  0000000        000051
12014775592000128HELIO ADRIANO DA SILVA ME                                             0000000023700593200000002432943 00000000944046730090000000094352056           201301282012122000000000055920000100300000000000100300000000000000000000000000000000050000000000  3020130128   01FS        1  AV TAMAINDE 1410                                                                 3                         000000000000000                                     N                     00598  0000000        000052
12035820448000136WHITE MARTINS GASES INDUSTRIAI                                        0000000023700026400000003937925 0000000094404669009023550001655424382 001     201301162012122000000000055800000056805000000000056805000000000000000000000000000000050000000000  3020130116   01FS        1  RUA GANGES  528                                                                  3                         000000000000000                                     N                     00598  0000000        000053
12042956441000101SOLUCOES ACO USIMINAS                                                 0000000034100000000000000000000000000000944046580000002699527840006763502     201302132012121800000000056080001344197000000001344197000000000000000000000000000000050000000000  3020130213   01FS        1                                                                                   3112699527845293807258000019                                                  N                     01321  0000000        000054
12042956441000101SOLUCOES ACO USIMINAS                                                 0000000034100000000000000000000000000000944046590000002699527820019570201     201301152012121800000000055790000409257000000000409257000000000000000000000000000000050000000000  3020130115   01FS        1                                                                                   3112699527829293807258000039                                                  N                     01321  0000000        000055
12042956441000101SOLUCOES ACO USIMINAS                                                 0000000034100000000000000000000000000000944046600000002699527830006763501     201301162012121800000000055800001344600000000001344600000000000000000000000000000000050000000000  3020130116   01FS        1                                                                                   3112699527837293807258000049                                                  N                     01321  0000000        000056
12042956441000101SOLUCOES ACO USIMINAS                                                 0000000034100000000000000000000000000000944046610000002699527850019570202     201302132012121800000000056080000409134000000000409134000000000000000000000000000000050000000000  3020130213   01FS        1                                                                                   3112699527852293807258000029                                                  N                     01321  0000000        000057
12042956441000101SOLUCOES ACO USIMINAS                                                 0000000034100000000000000000000000000000944046620000002699527860019570203     201303122012121800000000056350000409133000000000409133000000000000000000000000000000050000000000  3020130312   01FS        1                                                                                   3112699527860293807258000089                                                  N                     01321  0000000        000058
12042956441000101SOLUCOES ACO USIMINAS                                                 0000000034100000000000000000000000000000944046650000002699527870006763503     201303132012121800000000056360001344196000000001344196000000000000000000000000000000050000000000  3020130313   01FS        1                                                                                   3112699527878293807258000069                                                  N                     01321  0000000        000059
12042956441000101SOLUCOES ACO USIMINAS                                                 0000000034100000000000000000000000000000855028700000002254329390017213002     201209212012072600000000054630000140602000000000166173000000000000000000000000025571050000000000  3020121221   01          2                                                                                   3112254329397293807258000089                                                  N                     01321  0000000        000060
12042956441000101SOLUCOES ACO USIMINAS                                                 0000000034100000000000000000000000000000846595700000002210880280016980502     201209102012071200000000054520000156071000000000187895000000000000000000000000031824050000000000  3020121221   01          2                                                                                   3112210880285293807258000039                                                  N                     01321  0000000        000061
12042956441000101SOLUCOES ACO USIMINAS                                                 0000000034100000000000000000000000000000855028770000002254329400017220502     201209212012072700000000054630000981022000000001159564000000000000000000000000178542050000000000  3020121221   01          2                                                                                   3112254329405293807258000099                                                  N                     01321  0000000        000062
12042956441000101SOLUCOES ACO USIMINAS                                                 0000000034100000000000000000000000000000847452070000002216130350005922202     201209102012071600000000054520000172071000000000207159000000000000000000000000035088050000000000  3020121221   01          2                                                                                   3112216130354293807258000049                                                  N                     01321  0000000        000063
12042956441000101SOLUCOES ACO USIMINAS                                                 0000000034100000000000000000000000000000847452100000002216130340017012402     201209102012071500000000054520000147428000000000177518000000000000000000000000030090050000000000  3020121221   01          2                                                                                   3112216130347293807258000059                                                  N                     01321  0000000        000064
12042956441000101SOLUCOES ACO USIMINAS                                                 0000000034100000000000000000000000000000848180700000002220192900017041002     201209112012071700000000054530000155433000000000186844000000000000000000000000031411050000000000  3020121221   01          2                                                                                   3112220192903293807258000029                                                  N                     01321  0000000        000065
12042956441000101SOLUCOES ACO USIMINAS                                                 0000000034100000000000000000000000000000848180710000002220192910017041202     201209112012071700000000054530000205421000000000246932000000000000000000000000041511050000000000  3020121221   01          2                                                                                   3112220192911293807258000019                                                  N                     01321  0000000        000066
12042956441000101SOLUCOES ACO USIMINAS                                                 0000000034100000000000000000000000000000850740470000002233586810017101002     201209142012071900000000054560000732575000000000876145000000000000000000000000143570050000000000  3020121221   01          2                                                                                   3112233586810293807258000019                                                  N                     01321  0000000        000067
12042956441000101SOLUCOES ACO USIMINAS                                                 0000000034100000000000000000000000000000850740480000002233586820017101202     201209142012071900000000054560000144634000000000172956000000000000000000000000028322050000000000  3020121221   01          2                                                                                   3112233586828293807258000029                                                  N                     01321  0000000        000068
12042956441000101SOLUCOES ACO USIMINAS                                                 0000000034100000000000000000000000000000856906410000002262886280017266201     201208282012073000000000054390000119472000000000146957000000000000000000000000027485050000000000  3020121221   01          2                                                                                   3112262886289293807258000089                                                  N                     01321  0000000        000069
12042956441000101SOLUCOES ACO USIMINAS                                                 0000000034100000000000000000000000000000856906420000002262886290017266301     201208282012073000000000054390000145069000000000178419000000000000000000000000033350050000000000  3020121221   01          2                                                                                   3112262886297293807258000099                                                  N                     01321  0000000        000070
12042956441000101SOLUCOES ACO USIMINAS                                                 0000000034100000000000000000000000000000859590620000002274469790017353702     201209282012080300000000054700000081053000000000094661000000000000000000000000013608050000000000  3020121221   01          2                                                                                   3112274469793293807258000069                                                  N                     01321  0000000        000071
12042956441000101SOLUCOES ACO USIMINAS                                                 0000000034100000000000000000000000000000853154840000002246247030017196702     201209202012072500000000054620000234841000000000278081000000000000000000000000043240050000000000  3020121221   01          2                                                                                   3112246247038293807258000099                                                  N                     01321  0000000        000072
12042956441000101SOLUCOES ACO USIMINAS                                                 0000000034100000000000000000000000000000853154850000002246247040017197302     201209202012072500000000054620000970103000000001148583000000000000000000000000178480050000000000  3020121221   01          2                                                                                   3112246247046293807258000019                                                  N                     01321  0000000        000073
12042956441000101SOLUCOES ACO USIMINAS                                                 0000000034100000000000000000000000000000855028690000002254329380017212902     201209212012072600000000054630000140098000000000165578000000000000000000000000025480050000000000  3020121221   01          2                                                                                   3112254329389293807258000019                                                  N                     01321  0000000        000074
12042956441000101SOLUCOES ACO USIMINAS                                                 0000000034100000000000000000000000000000846595710000002210880290016980602     201209102012071200000000054520000426094000000000512998000000000000000000000000086904050000000000  3020121221   01          2                                                                                   3112210880293293807258000019                                                  N                     01321  0000000        000075
12047190731000100DE CASTRO LOUR ENG IND LTDA                                           00000000341000000000000000000000000000008996247900000024766209203027184 0     201211302012100500000000055330001153047000000001200675000000000000000000000000047628050000000000  3020121221   01          2                                                                                   3112476620920036884500400089                                                  N                     01321  0000000        000076
12047190731000100DE CASTRO LOUR ENG IND LTDA                                           00000000341000000000000000000000000000009041732300000025008465203027256 0     201212112012101600000000055440001108602000000001130402000000000000000000000000021800050000000000  3020121221   01          2                                                                                   3112500846525036884500400019                                                  N                     01321  0000000        000077
12047190731000100DE CASTRO LOUR ENG IND LTDA                                           00000000341000000000000000000000000000009041732500000025008465503027257 0     201212132012101600000000055460000751900000000000763732000000000000000000000000011832050000000000  3020121221   01          2                                                                                   3112500846558036884500400029                                                  N                     01321  0000000        000078
12047190731000100DE CASTRO LOUR ENG IND LTDA                                           00000000341000000000000000000000000000009041732900000025008464603027216 0     201212052012101000000000055380000225377000000000232465000000000000000000000000007088050000000000  3020121221   01          2                                                                                   3112500846467036884500400029                                                  N                     01321  0000000        000079
12047190731000100DE CASTRO LOUR ENG IND LTDA                                           00000000341000000000000000000000000000009041733100000025008464903027234 0     201212062012101100000000055390001029597000000001059972000000000000000000000000030375050000000000  3020121221   01          2                                                                                   3112500846491036884500400029                                                  N                     01321  0000000        000080
12047190731000100DE CASTRO LOUR ENG IND LTDA                                           00000000341000000000000000000000000000008782050900000023399953503026612 0     201209182012082100000000054600001111489000000001316973000000000000000000000000205484050000000000  3020121221   01          2                                                                                   3112339995352036884500400019                                                  N                     01321  0000000        000081
12047190731000100DE CASTRO LOUR ENG IND LTDA                                           00000000341000000000000000000000000000008782052900000023399956403026648 0     201212202012082300000000055530000976344000000000978264000000000000000000000000001920050000000000  3020121221   01          2                                                                                   3112339995642036884500400059                                                  N                     01321  0000000        000082
12047190731000100DE CASTRO LOUR ENG IND LTDA                                           00000000341000000000000000000000000000008782051000000023399953703026612 0     201212182012082100000000055510001111822000000001118383000000000000000000000000006561050000000000  3020121221   01          2                                                                                   3112339995378036884500400049                                                  N                     01321  0000000        000083
12047190731000100DE CASTRO LOUR ENG IND LTDA                                           00000000341000000000000000000000000000008782053300000023399956103026643 0     201212202012082300000000055530000867297000000000869003000000000000000000000000001706050000000000  3020121221   01          2                                                                                   3112339995618036884500400059                                                  N                     01321  0000000        000084
12047190731000100DE CASTRO LOUR ENG IND LTDA                                           00000000341000000000000000000000000000008782059400000023602715303026745 0     201211282012082900000000055310000903175000000000944023000000000000000000000000040848050000000000  3020121221   01          2                                                                                   3112360271533036884500400039                                                  N                     01321  0000000        000085
12047190731000100DE CASTRO LOUR ENG IND LTDA                                           00000000341000000000000000000000000000008782059500000023602714703026734 0     201211272012082800000000055300000997834000000001044922000000000000000000000000047088050000000000  3020121221   01          2                                                                                   3112360271475036884500400019                                                  N                     01321  0000000        000086
12047190731000100DE CASTRO LOUR ENG IND LTDA                                           00000000341000000000000000000000000000008782059900000023602715003026744 0     201211292012082900000000055320000146594000000000152930000000000000000000000000006336050000000000  3020121221   01          2                                                                                   3112360271509036884500400069                                                  N                     01321  0000000        000087
12047190731000100DE CASTRO LOUR ENG IND LTDA                                           00000000341000000000000000000000000000008782051100000023399954303026614 0     201212182012082100000000055510001047933000000001054116000000000000000000000000006183050000000000  3020121221   01          2                                                                                   3112339995436036884500400029                                                  N                     01321  0000000        000088
12047190731000100DE CASTRO LOUR ENG IND LTDA                                           00000000341000000000000000000000000000008782051200000023399953803026613 0     201209182012082100000000054600001107989000000001312815000000000000000000000000204826050000000000  3020121221   01          2                                                                                   3112339995386036884500400039                                                  N                     01321  0000000        000089
12047190731000100DE CASTRO LOUR ENG IND LTDA                                           00000000341000000000000000000000000000008782051400000023399954003026613 0     201212182012082100000000055510001108322000000001114862000000000000000000000000006540050000000000  3020121221   01          2                                                                                   3112339995402036884500400069                                                  N                     01321  0000000        000090
12047190731000100DE CASTRO LOUR ENG IND LTDA                                           00000000341000000000000000000000000000008782051600000023399954103026614 0     201209182012082100000000054600001047621000000001241261000000000000000000000000193640050000000000  3020121221   01          2                                                                                   3112339995410036884500400039                                                  N                     01321  0000000        000091
12047190731000100DE CASTRO LOUR ENG IND LTDA                                           00000000341000000000000000000000000000008782051800000023399955703026636 0     201211212012082200000000055240000940804000000000996304000000000000000000000000055500050000000000  3020121221   01          2                                                                                   3112339995576036884500400019                                                  N                     01321  0000000        000092
12047190731000100DE CASTRO LOUR ENG IND LTDA                                           00000000341000000000000000000000000000008782051900000023399955803026636 0     201212192012082200000000055520000941086000000000944788000000000000000000000000003702050000000000  3020121221   01          2                                                                                   3112339995584036884500400069                                                  N                     01321  0000000        000093
12047190731000100DE CASTRO LOUR ENG IND LTDA                                           00000000341000000000000000000000000000008782052000000023399955303026632 0     201209192012082200000000054610000952073000000001126169000000000000000000000000174096050000000000  3020121221   01          2                                                                                   3112339995535036884500400019                                                  N                     01321  0000000        000094
12047190731000100DE CASTRO LOUR ENG IND LTDA                                           00000000341000000000000000000000000000008782052100000023399955903026643 0     201209202012082300000000054620000867039000000001023899000000000000000000000000156860050000000000  3020121221   01          2                                                                                   3112339995592036884500400049                                                  N                     01321  0000000        000095
12047190731000100DE CASTRO LOUR ENG IND LTDA                                           00000000341000000000000000000000000000008782052300000023399955503026632 0     201212192012082200000000055520000952358000000000956104000000000000000000000000003746050000000000  3020121221   01          2                                                                                   3112339995550036884500400039                                                  N                     01321  0000000        000096
12047190731000100DE CASTRO LOUR ENG IND LTDA                                           00000000341000000000000000000000000000008782052400000023399956003026643 0     201211222012082300000000055250000867039000000000916484000000000000000000000000049445050000000000  3020121221   01          2                                                                                   3112339995600036884500400069                                                  N                     01321  0000000        000097
12047190731000100DE CASTRO LOUR ENG IND LTDA                                           00000000341000000000000000000000000000008782052500000023399955603026636 0     201209192012082200000000054610000940804000000001112854000000000000000000000000172050050000000000  3020121221   01          2                                                                                   3112339995568036884500400049                                                  N                     01321  0000000        000098
12047190731000100DE CASTRO LOUR ENG IND LTDA                                           00000000341000000000000000000000000000008782052700000023399956203026648 0     201209202012082300000000054620000976053000000001152693000000000000000000000000176640050000000000  3020121221   01          2                                                                                   3112339995626036884500400029                                                  N                     01321  0000000        000099
12047190731000100DE CASTRO LOUR ENG IND LTDA                                           00000000341000000000000000000000000000008782052800000023399956303026648 0     201211222012082300000000055250000976053000000001031733000000000000000000000000055680050000000000  3020121221   01          2                                                                                   3112339995634036884500400019                                                  N                     01321  0000000        000100
12047190731000100DE CASTRO LOUREIRO ENGENHARIA                                         00000000033000000000000000000000000000008801226700000050000000003026797 0     201210312012090300000000055030000422495000000000430945000000000000000000000000008450050000000000  3020121101   06          3                                                                                   3948430370000009553150020339                                                  N                     01321  0000000        000101
12047190731000100DE CASTRO LOUR ENG IND LTDA                                           00000000341000000000000000000000000000008782051700000023399954203026614 0     201211202012082100000000055230001047621000000001109421000000000000000000000000063860050000000000  3020121220   06          3                                                                                   3112339995428036884500400079                                                  N                     01321  0000000        000102
12047190731000100DE CASTRO LOUREIRO ENGENHARIA                                         00000000033000000000000000000000000000008801226900000026000000003026796 0     201210292012090300000000055010000551107000000000562129000000000000000000000000011022050000000000  3020121030   06          3                                                                                   3948430370000009553126020399                                                  N                     01321  0000000        000103
12047190731000100DE CASTRO LOUREIRO ENGENHARIA                                         0000000023703394400000000205508 000000008801225500202255000001403026794 0     201211262012090300000000055290001209490000000001259890000000000000000000000000050400050000000000  3020121221   01          2  RUA JUNO  533                                                                    3                         000000000000000                                     N                     00598  0000000        000104
12048775225000146SEIKI IND COM E CONFECCOES LTD                                        000000003410000000000000000000000000000089337376000000244697151014914001      201210232012092500000000054950000052000000000000056602000000000000000000000000004602050000000000  3020121221   01          2                                                                                   3112446971510017444824100089                                                  N                     01321  0000000        000105
12051180370000199IGUAFER FERRO E ACO LTDA                                              0000000034100000000000000000000000000000852309100000002239389789443 B         201209022012071800000000054440000168275000000000199075000000000000000000000000030800050000000000  3020121221   01          2                                                                                   3112239389789077149484600089                                                  N                     01321  0000000        000106
12051180370000199IGUAFER FERRO E ACO LTDA                                              0000000034100000000000000000000000000000852309110000002239389799443 C         201209122012071800000000054540000168275000000000196275000000000000000000000000028000050000000000  3020121221   01          2                                                                                   3112239389797077149484600089                                                  N                     01321  0000000        000107
12054382510000108SETENTA IND E COM DE MADEIRAS                                         0000000034100000000000000000000000000000860403430000002277814474462 A         201209042012080700000000054460000191200000000000231808000000000000000000000000040608050000000000  3020121221   01          2                                                                                   3112277814474057049175300069                                                  N                     01321  0000000        000108
12056993512000150CYKLOP DO BRASIL EMBALAGENS SA                                        0000000034100000000000000000000000000000874070500000002362586810134932        201210012012090300000000054730000083607000000000108474000000000000000000000000024867050000000000  3020121221   01          2                                                                                   3112362586813025700015800019                                                  N                     01321  0000000        000109
12062173661000176INDUFIX IND E COM LTDA                                                0000000023704130000000000085898 000000009440467200702355000036200042585 A     201301172012121800000000055810000078143000000000078143000000000000000000000000000000050000000000  3020130117   01FS        1  RUA GANGES 528                                                                   3                         000000000000000                                     N                     00598  0000000        000110
12062226170000146CENTRO DAS IND EST SP    CIESP                                        0000000034100000000000000000000000000000944046660000008000021071414832        201301252012121700000000055890000129960000000000129960000000000000000000000000000000050000000000  3020130125   01FS        1                                                                                   3138000021071026200558000019                                                  N                     01321  0000000        000111
12062510367000102ITANHAEM TRANSP DE MAQUINAS LT                                        000000003410000000000000000000000000000087407049000000236463199667            201209202012090400000000054620000248220000000000339576000000000000000000000000091356050000000000  3020121221   01          2                                                                                   3112364631997005770252400049                                                  N                     01321  0000000        000112
12062539994000176LEALFER INDUSTRIA E COMERCIO D                                        0000000003300000000000000000000000000000910265800000000400000000005732502     201212202012102400000000055530000828586000000000829994000000000000000000000000001408050000000000  3020121221   01          2                                                                                   3915298380000000285404010479                                                  N                     01321  0000000        000113
12062539994000176LEALFER INDUSTRIA E COMERCIO D                                        0000000003300000000000000000000000000000893373830000000800000000005576003     201212202012092600000000055530000243236000000000243650000000000000000000000000000414050000000000  3020121221   01          2                                                                                   3915298380000000274208010419                                                  N                     01321  0000000        000114
12062539994000176LEALFER INDUSTRIA E COMERCIO D                                        0000000003300000000000000000000000000000893373840000001600000000005580303     201212202012092700000000055530000451213000000000451980000000000000000000000000000767050000000000  3020121221   01          2                                                                                   3915298380000000274216010419                                                  N                     01321  0000000        000115
12062539994000176LEALFER INDUSTRIA E COMERCIO D                                        0000000003300000000000000000000000000000893373850000002700000000005568403     201212192012092500000000055520000891184000000000894214000000000000000000000000003030050000000000  3020121221   01          2                                                                                   3915298380000000274127010419                                                  N                     01321  0000000        000116
12062539994000176LEALFER INDUSTRIA E COMERCIO D                                        0000000003300000000000000000000000000000893373880000005900000000005575003     201212202012092600000000055530000300979000000000301490000000000000000000000000000511050000000000  3020121221   01          2                                                                                   3915298380000000274259010429                                                  N                     01321  0000000        000117
12062539994000176LEALFER INDUSTRIA E COMERCIO D                                        0000000003300000000000000000000000000000893373990000001900000000005563003     201212192012092500000000055520000136948000000000137413000000000000000000000000000465050000000000  3020121221   01          2                                                                                   3915298380000000274119010469                                                  N                     01321  0000000        000118
12062539994000176LEALFER INDUSTRIA E COMERCIO D                                        0000000003300000000000000000000000000000919321990000005700000000005818801     201212102012110900000000055430000327558000000000329228000000000000000000000000002226050000000000  3020121213   05          3                                                                                   3915298380000000289957010429                                                  N                     01321  0000000        000119
12062539994000176LEALFER IN E COM DE ACO LTDA                                          0000000034100000000000000000000000000000944046520000002696549140005979502     201302062012121100000000056010001102489000000001102489000000000000000000000000000000050000000000  3020130206   01FS        1                                                                                   3112696549149076103324000019                                                  N                     01321  0000000        000120
12062539994000176LEALFER IN E COM DE ACO LTDA                                          0000000034100000000000000000000000000000944046530000002696545670005979501     201301092012121100000000055730001102491000000001102491000000000000000000000000000000050000000000  3020130109   01FS        1                                                                                   3112696545675076103324000079                                                  N                     01321  0000000        000121
12062539994000176LEALFER IN E COM DE ACO LTDA                                          0000000034100000000000000000000000000000944046540000002696550920005968403     201303042012121000000000056270001003003000000001003003000000000000000000000000000000050000000000  3020130304   01FS        1                                                                                   3112696550923076103324000089                                                  N                     01321  0000000        000122
12062539994000176LEALFER IN E COM DE ACO LTDA                                          0000000034100000000000000000000000000000944046550000002696548940005968402     201302042012121000000000055990001003003000000001003003000000000000000000000000000000050000000000  3020130204   01FS        1                                                                                   3112696548943076103324000019                                                  N                     01321  0000000        000123
12062539994000176LEALFER IN E COM DE ACO LTDA                                          0000000034100000000000000000000000000000944046560000002696549110005968702     201302052012121000000000056000001006005000000001006005000000000000000000000000000000050000000000  3020130205   01FS        1                                                                                   3112696549115076103324000059                                                  N                     01321  0000000        000124
12062539994000176LEALFER IN E COM DE ACO LTDA                                          0000000034100000000000000000000000000000944046570000002696545640005968701     201301082012121000000000055720001006005000000001006005000000000000000000000000000000050000000000  3020130108   01FS        1                                                                                   3112696545642076103324000089                                                  N                     01321  0000000        000125
12062539994000176LEALFER IN E COM DE ACO LTDA                                          0000000034100000000000000000000000000000944046630000002696550960005968703     201303052012121000000000056280001006005000000001006005000000000000000000000000000000050000000000  3020130305   01FS        1                                                                                   3112696550964076103324000069                                                  N                     01321  0000000        000126
12062539994000176LEALFER IN E COM DE ACO LTDA                                          0000000034100000000000000000000000000000944046640000002696550970005979503     201303062012121100000000056290001102489000000001102489000000000000000000000000000000050000000000  3020130306   01FS        1                                                                                   3112696550972076103324000039                                                  N                     01321  0000000        000127
12062539994000176LEALFER IN E COM DE ACO LTDA                                          0000000034100000000000000000000000000000944046500000002696545570005968401     201301072012121000000000055710001003004000000001003004000000000000000000000000000000050000000000  3020130107   01FS        1                                                                                   3112696545576076103324000029                                                  N                     01321  0000000        000128
12064952757000168WALMAC COM DE PROD QUIMICOS LT                                        0000000034100000000000000000000000000000896979510000002462157570021611        201211292012100400000000055320000219267000000000228318000000000000000000000000009482050000000000  3020121220   06          3                                                                                   3112462157572064807961400059                                                  N                     01321  0000000        000129
12064952757000168WALMAC COM DE PROD QUIMICOS LT                                        0000000034100000000000000000000000000000860403450000002275821700020148        201210052012080300000000054770000219267000000000252454000000000000000000000000033187050000000000  3020121221   01          2                                                                                   3112275821703064807961400029                                                  N                     01321  0000000        000130
12066841552000130R V SEG PATRIMONIAL S C LTDA                                          00000000341000000000000000000000000000008887329800000090002213622136          201210102012091100000000054820000374758000000000383758000000000000000000000000009000050000000000  3020121221   01          2                                                                                   3109000221365001838994000069                                                  N                     01321  0000000        000131
12066841552000130R V SEG PATRIMONIAL LTDA                                              00000000341000000000000000000000000000008852483200000090002192721927          201209102012081000000000054520000483241000000000499663000000000000000000000000016422050000000000  3020121221   01          2                                                                                   3109000219270001835253400099                                                  N                     01321  0000000        000132
12068881317000118BERTEL COMERCIAL ELETRICA LTDA                                        000000000010000000000000000000000000000094404629000000847484000000067205      201301142012121900000000055780000051306000000000051306000000000000000000000000000000050000000000  3020130114   01FS        1                                                                                   3044338474843266004504821189                                                  N                     01321  0000000        000133
12069034668000156SODEXO PASS BRASIL SERV COM SA                                        0000000034100000000000000000000000000000944046670000009220365691200016452     201301172012121800000000055810000140300000000000140300000000000000000000000000000000050000000000  3020130117   01FS        1                                                                                   3109220365692293801455800099                                                  N                     01321  0000000        000134
12069034668000156SODEXO PASS BRASIL SERV COM SA                                        0000000034100000000000000000000000000000944046680000009220365431200016451     201301172012121800000000055810000379760000000000379760000000000000000000000000000000050000000000  3020130117   01FS        1                                                                                   3109220365437293801455800049                                                  N                     01321  0000000        000135
12069284248000128ISOCOAT TINTAS E VERNIZES LTDA                                        0000000034100000000000000000000000000000841061040000002182507930052085        201209172012070200000000054590000236130000000000295980000000000000000000000000059850050000000000  3020121221   01          2                                                                                   3112182507932077430121200019                                                  N                     01321  0000000        000136
12069284248000128ISOCOAT TINTAS E VERNIZES LTDA                                        0000000034100000000000000000000000000000915734010000002553088030057592        201212172012110100000000055500000107324000000000108182000000000000000000000000001144050000000000  3020121220   06          3                                                                                   3112553088033077430121200089                                                  N                     01321  0000000        000137
12069284248000128ISOCOAT TINTAS E VERNIZES LTDA                                        0000000034100000000000000000000000000000895189810000002456588210056254        201212172012100200000000055500000318064000000000320608000000000000000000000000003392050000000000  3020121220   06          3                                                                                   3112456588212077430121200019                                                  N                     01321  0000000        000138
900013900000000078500957                                                                                                                                                                                                                                                                                                                                                                                                                                                                01321  0000000        000139
