0000147602043799295000110ALTAMIRA INDUSTRIA METALURGICA LT       202000000013120120921055917             1                                                                                                                                                                                                                                                                                                                                                                                                    000001
12001162151000109SUKIRA COMERCIO DE IMPORTACAO                                         000000000010000000000000000000000000000088599908000000095081000018005 AA      201210172012092000000000054890000059400000000000059400000000000000000000000000000000050000000000  3020121017   01FS        1                                                                                   3000000112481744080950811159                                                  N                     01321  0000000        000002
12001895314000162COLETA INDUSTRIAL FIMAVAN LTDA                                        0000000034100000000000000000000000000000866992070000009002335349439           201208272012081700000000054380000123695000000000134394000000000000000000000000010699050000000000  3020120921   01          2                                                                                   3109002335346144604097200019                                                  N                     01321  0000000        000003
12001951865000104FOUR FACTORING FOMENTO M LTDA                                         000000004220000000000000000000000000000085607115000000000000000174            201209132012073000000000054550000310000000000000318263000000000000000000000000008263050000000000  3020120921   01          2                                                                                   3702000009214741498829499119                                                  N                     01321  0000000        000004
12002460454000170AUT SERVICE COMERCIO E SERVICO                                        0000000023702591700000000007692 000000008515292000901322060028234532 2        201209172012072400000000054590000238750000000000252599000000000000000000000000013849050000000000  3020120921   01          2  RUA JUNO  533                                                                    3                         000000000000000                                     N                     00598  0000000        000005
12002503185000182ANDAIMES MAQUINAS BIG LTDA EPP                                        000000003410000000000000000000000000000086282613000000228719913011660         201208302012081000000000054410000012000000000000012416000000000000000000000000000416050000000000  3020120921   01          2                                                                                   3112287199130650303800900039                                                  N                     01321  0000000        000006
12002503185000182ANDAIMES MAQUINAS BIG LTDA EPP                                        0000000034100000000000000000000000000000874070480000002313590765101           201209142012082000000000054560000016500000000000016907000000000000000000000000000407050000000000  3020120921   01          2                                                                                   3112313590765650303800900019                                                  N                     01321  0000000        000007
12003489596000123BEND FLEX I COMERCIO LTDA                                             000000003410000000000000000000000000000088350832000000171879874608            201209122012082100000000054540000695250000000000707553000000000000000000000000012303050000000000  3020120921   01          2                                                                                   3191718798744157734445800069                                                  N                     01321  0000000        000008
12003489596000123BEND FLEX I COMERCIO LTDA                                             000000003410000000000000000000000000000088599899000000171434574613            201209172012081600000000054590000585000000000000589604000000000000000000000000004604050000000000  3020120921   01FS        1                                                                                   3191714345748157734445800019                                                  N                     01321  0000000        000009
12005151518000140BELENUS DO BRASIL LTDA                                                000000000010000000000000000000000000000087407067000000776238000R129785112     201209142012082100000000054560000128700000000000128700000000000000000000000000000000050000000000  3020120914   06          3                                                                                   3000000123933843997762383119                                                  N                     01321  0000000        000010
12005151518000140BELENUS DO BRASIL LTDA                                                000000000010000000000000000000000000000087407070000000774914000R129723212     201209132012082100000000054550000599040000000000601017000000000000000000000000003954050000000000  3020120914   06          3                                                                                   3000000123933843997749143119                                                  N                     01321  0000000        000011
12005880850000145NEDERMAN BRASIL COM PROD EX LT                                        000000003410000000000000000000000000000086373178000000614350956002763 A       201209142012081400000000054560000289674000000000293664000000000000000000000000003990050000000000  3020120921   01          2                                                                                   3156143509568160829000100049                                                  N                     01321  0000000        000012
12006000195000156M B A MERCANTIL BRASILEIRA DE                                         0000000023700118P00000002128292 00000000885999020090220100000180008906B02     201209142012071900000000054560000492065000000000492065000000000000000000000000000000050000000000  3020120921   01FS        1  RUA JUNO  533                                                                    3                         000000000000000                                     N                     00598  0000000        000013
12006000195000156M B A MERCANTIL BRASILEIRA DE                                         0000000023700118P00000002128292 00000000885999030090220600000100008948B02     201209182012072300000000054600000437437000000000437437000000000000000000000000000000050000000000  3020120921   01FS        1  RUA JUNO  533                                                                    3                         000000000000000                                     N                     00598  0000000        000014
12006000195000156M B A MERCANTIL BRASILEIRA DE                                         0000000023700118P00000002128292 00000000885999040090220600000170008946B02     201209172012072300000000054590000647873000000000647873000000000000000000000000000000050000000000  3020120921   01FS        1  RUA JUNO  533                                                                    3                         000000000000000                                     N                     00598  0000000        000015
12006000195000156MBA MERCANTIL BRAS DE ACO LTDA                                        0000000034100000000000000000000000000000848957290000008667238420008870B02     201209112012071900000000054530000839952000000000841122000000000000000000000000001755050000000000  3020120913   05          3                                                                                   3458667238422064849251000049                                                  N                     01321  0000000        000016
12006000195000156M B A MERCANTIL BRASILEIRA DE                                         0000000023700118P00000002130599 00000000853154990020220900000450008967B02     201209202012072400000000054620000135606000000000135832000000000000000000000000000226050000000000  3020120921   01          2  RUA JUNO  533                                                                    3                         000000000000000                                     N                     00598  0000000        000017
12006000195000156M B A MERCANTIL BRASILEIRA DE                                         0000000023700118P00000002130599 00000000853155020020220900000520008971B02     201209182012072400000000054600000170466000000000171318000000000000000000000000000852050000000000  3020120921   01          2  RUA JUNO  533                                                                    3                         000000000000000                                     N                     00598  0000000        000018
12006000195000156M B A MERCANTIL BRASILEIRA DE                                         0000000023700118P00000002130599 00000000853155050020220900000650008985B02     201209192012072500000000054610000141845000000000142317000000000000000000000000000472050000000000  3020120921   01          2  RUA JUNO  533                                                                    3                         000000000000000                                     N                     00598  0000000        000019
12006000195000156M B A MERCANTIL BRASILEIRA DE                                         0000000023700118P00000002130599 00000000853155080020220900000680008986B02     201209192012072500000000054610000126717000000000127139000000000000000000000000000422050000000000  3020120921   01          2  RUA JUNO  533                                                                    3                         000000000000000                                     N                     00598  0000000        000020
12006000195000156M B A MERCANTIL BRASILEIRA DE                                         0000000023700118P00000002130599 00000000853155110020220900000710008987B02     201209202012072500000000054620000188368000000000188682000000000000000000000000000314050000000000  3020120921   01          2  RUA JUNO  533                                                                    3                         000000000000000                                     N                     00598  0000000        000021
12006000195000156MBA MERCANTIL BRAS DE ACO LTDA                                        0000000034100000000000000000000000000000885998980000001667238420008870B02     201209112012071600000000054530000839952000000000856472000000000000000000000000016520050000000000  3020120921   01FS        1                                                                                   3191667238429064849251000039                                                  N                     01321  0000000        000022
12006000195000156M B A MERCANTIL BRASILEIRA DE                                         0000000023700118P00000002128292 00000000885999000090217800000410008689B03     201209172012062500000000054590000183780000000000183780000000000000000000000000000000050000000000  3020120921   01FS        1  RUA JUNO  533                                                                    3                         000000000000000                                     N                     00598  0000000        000023
12006000195000156M B A MERCANTIL BRASILEIRA DE                                         0000000023700118P00000002128292 00000000885999010090220100000120008907B02     201209152012071900000000054570000566157000000000566157000000000000000000000000000000050000000000  3020120921   01FS        1  RUA JUNO  533                                                                    3                         000000000000000                                     N                     00598  0000000        000024
12006000195000156M B A MERCANTIL BRASILEIRA DE                                         0000000000100000000000000000000000000000834820190000002571510000008651B03     201209182012062600000000054600000426599000000000428732000000000000000000000000002133050000000000  3020120921   01          2                                                                                   3043852571513333000105251119                                                  N                     01321  0000000        000025
12007175725000160WEG EQUIPAMENTOS ELETRICOS SA                                         0000000023702727800000000196800 00000000832180610090217400004980095359902     201209202012052300000000054620000272787000000000273150000000000000000000000000000363050000000000  3020120921   01          2  R JUNO  533                                                                      3                         000000000000000                                     N                     00598  0000000        000026
12007289649000113CRC LASER SUPR INF LTDA EPP                                           000000003410000000000000000000000000000086762212000000792013593000001055      201209182012082100000000054600000029940000000000030657000000000000000000000000000776050000000000  3020120920   06          3                                                                                   3157920135932000265431700089                                                  N                     01321  0000000        000027
12008508119000181DINARI FOMENTO MERCANTIL LTDA                                         0000000023702499600000000178306 0000000086282617002022260000005206 A          201209162012081000000000054580000170000000000000177650000000000000000000000000007650050000000000  3020120921   01          2  RUA JUNO  533 VL N MANCHESTER SAO PAULO PANKRO LOGISTICA E TRANSPORTES LTDA EPP  300000000000000000141500  002269980000158                                     N                     00598  0000000        000028
12009419898000101LUSITANO INDUSTRIA C E P LTDA                                         00000000341000000000000000000000000000008653882000000090000757101 10137 2     201209192012081500000000054610000035135000000000035369000000000000000000000000000234050000000000  3020120921   01          2                                                                                   3109000075716001160072300049                                                  N                     01321  0000000        000029
12009441975000120SPEEDY CRED FOMENTO MERCANTIL                                         0000000023700094900000000990744 00000000869071000020132236074912868 AA        201209182012082300000000054600000064000000000000065152000000000000000000000000001152050000000000  3020120921   01          2  RUA TAMAINDE 1410                       MACKVEN MAQUINAS INDUSTRIAIS LTDA EPP    3                         005441222000163                                     N                     00598  0000000        000030
12012006058000121WEG TINTAS LTDA                                                       0000000023702727800000000001309 00000000844839230090219500000720015168702     201209102012071200000000054520000306569000000000311057000000000000000000000000004488050000000000  3020120921   01          2  R JUNO  533                                                                      3                         000000000000000                                     N                     00598  0000000        000031
12012006058000121WEG TINTAS LTDA                                                       0000000023702727800000000001309 00000000847452150090220000000920015248102     201209152012071700000000054570000306569000000000309017000000000000000000000000002448050000000000  3020120921   01          2  R JUNO  533                                                                      3                         000000000000000                                     N                     00598  0000000        000032
12012006058000121WEG TINTAS LTDA                                                       0000000023702727800000000001309 00000000849855330090220500001210015343102     201209182012072000000000054600000306569000000000307793000000000000000000000000001224050000000000  3020120921   01          2  R JUNO  533                                                                      3                         000000000000000                                     N                     00598  0000000        000033
12012006058000121WEG TINTAS LTDA                                                       0000000023702727800000000001309 00000000854049540090221200001000015513001     201209102012072700000000054520000459854000000000466597000000000000000000000000006743050000000000  3020120921   01          2  R JUNO  533                                                                      3                         000000000000000                                     N                     00598  0000000        000034
12012006058000121WEG TINTAS LTDA                                                       0000000023702727800000000001309 00000000856071250090221400000820015587301     201209142012073100000000054560000459854000000000464145000000000000000000000000004291050000000000  3020120921   01          2  R JUNO  533                                                                      3                         000000000000000                                     N                     00598  0000000        000035
12012006058000121WEG TINTAS LTDA                                                       0000000023702727800000000001309 00000000841061130090218800000850014990203     201209182012070500000000054600000306662000000000307886000000000000000000000000001224050000000000  3020120921   01          2  R JUNO  533                                                                      3                         000000000000000                                     N                     00598  0000000        000036
12012006058000121WEG TINTAS LTDA                                                       0000000023702727800000000001309 00000000842436830090219200000850015068802     201209072012070900000000054490000306569000000000312281000000000000000000000000005712050000000000  3020120921   01          2  R JUNO  533                                                                      3                         000000000000000                                     N                     00598  0000000        000037
12012006058000121WEG TINTAS LTDA                                                       0000000023702727800000000001309 00000000834820640090217900000760014773903     201209092012062600000000054510000306662000000000311558000000000000000000000000004896050000000000  3020120921   01          2  R JUNO  533                                                                      3                         000000000000000                                     N                     00598  0000000        000038
12012006058000121WEG TINTAS LTDA                                                       0000000023702727800000000001309 00000000842436820090219200000840015068801     201208232012070900000000054340000306569000000000314321000000000000000000000000008160050000000000  3020120911   06          3  R JUNO  533                                                                      3                         000000000000000                                     N                     00598  0000000        000039
12014309992000148WEG DRIVES   CONTROLS   AUTOMA                                        0000000023702727800000000001872 00000000828904050090217000002200005763302     201209152012051800000000054570000272992000000000275170000000000000000000000000002178050000000000  3020120921   01          2  R JUNO  533                                                                      3                         000000000000000                                     N                     00598  0000000        000040
12014978305000187MOGI FILME INDUSTRIA E COMERCI                                        0000000023700402200000001055003 0000000088599905009022640000016351            201210202012092000000000054920000139691000000000139691000000000000000000000000000000050000000000  3020121022   01FS        1  RUA TAMAINDE 1410 VL NOVA MANCHESTER                                             3                         000000000000000                                     N                     00598  0000000        000041
12017469701000177ARCELORMITTAL BRASIL S A                                              0000000034100000000000000000000000000000856071210000009323310840012788102     201209142012073100000000054560000063787000000000063787000000000000000000000000000000050000000000  3020120914   06          3                                                                                   3109323310843293802529900049                                                  N                     01321  0000000        000042
12017469701000177ARCELORMITTAL BRASIL S A                                              0000000034100000000000000000000000000000863731750000009323726660015781202     201209172012081300000000054590000298521000000000298521000000000000000000000000000000050000000000  3020120917   05          3                                                                                   3109323726667293802529900059                                                  N                     01321  0000000        000043
12017469701000177ARCELORMITTAL BRASIL S A                                              0000000034100000000000000000000000000000863731760000009323726670015781203     201209242012081300000000054660000298529000000000298529000000000000000000000000000000050000000000  3020120924   05          3                                                                                   3109323726675293802529900079                                                  N                     01321  0000000        000044
12033325184001786ALSCO TOALHEIRO BRASIL                                                0000000023703396000000001490850 0000000087168277009000002698905VM26989        201209132012082400000000054550000040130000000000040450000000000000000000000000000320050000000000  3020120921   01          2  RUA  GANGES 528                                                                  3                         000000000000000                                     N                     00598  0000000        000045
12035820448000136WHITE MARTINS GASES INDUSTRIAI                                        0000000023700026400000003937925 0000000086538817009022290001168366855 001     201209112012081600000000054530000121725000000000125779000000000000000000000000004054050000000000  3020120921   01          2  RUA GANGES  528                                                                  3                         000000000000000                                     N                     00598  0000000        000046
12035820448000136WHITE MARTINS GASES INDUSTRIAI                                        0000000023700026400000003937925 0000000086699210009022330000393368126 001     201209142012081800000000054560000162300000000000167058000000000000000000000000004758050000000000  3020120921   01          2  RUA GANGES  528                                                                  3                         000000000000000                                     N                     00598  0000000        000047
12035820448000136WHITE MARTINS GASES INDUSTRIAI                                        0000000023700026400000003937925 0000000086812633009022350001453369229 001     201209182012082200000000054600000056805000000000058169000000000000000000000000001364050000000000  3020120921   01          2  RUA GANGES  528                                                                  3                         000000000000000                                     N                     00598  0000000        000048
12035820448000136WHITE MARTINS GASES INDUSTRIAI                                        0000000023700026400000003937925 0000000086907101009022370010705372273 001     201209202012082400000000054620000017600000000000017975000000000000000000000000000375050000000000  3020120921   01          2  RUA GANGES  528                                                                  3                         000000000000000                                     N                     00598  0000000        000049
12035820448000136WHITE MARTINS GASES INDUSTRIAI                                        0000000023700026400000003937925 0000000086907102009022370011747372774 001     201209202012082400000000054620000040575000000000041440000000000000000000000000000865050000000000  3020120921   01          2  RUA GANGES  528                                                                  3                         000000000000000                                     N                     00598  0000000        000050
12035820448000136WHITE MARTINS GASES INDUSTRIAI                                        0000000023700026400000003937925 0000000085861656009022190000404361579 001     201208312012080400000000054420000162300000000000170082000000000000000000000000007782050000000000  3020120921   01          2  RUA GANGES  528                                                                  3                         000000000000000                                     N                     00598  0000000        000051
12035820448000136WHITE MARTINS GASES INDUSTRIAI                                        0000000023700026400000003937925 0000000086196029009022230001562364184 001     201209062012081000000000054480000113610000000000118147000000000000000000000000004537050000000000  3020120921   01          2  RUA GANGES  528                                                                  3                         000000000000000                                     N                     00598  0000000        000052
12042956441000101SOLUCOES ACO USIMINAS                                                 0000000034100000000000000000000000000000855028670000002254329360017200402     201209202012072600000000054620000163224000000000163550000000000000000000000000000326050000000000  3020120921   01          2                                                                                   3112254329363293807258000069                                                  N                     01321  0000000        000053
12042956441000101SOLUCOES ACO USIMINAS                                                 0000000034100000000000000000000000000000836417910000002164218370016738103     201209192012062700000000054610000830173000000000833493000000000000000000000000003320050000000000  3020120921   01          2                                                                                   3112164218375293807258000039                                                  N                     01321  0000000        000054
12042956441000101SOLUCOES ACO USIMINAS                                                 0000000034100000000000000000000000000000856906410000002262886280017266201     201208282012073000000000054390000119472000000000125208000000000000000000000000005736050000000000  3020120921   01          2                                                                                   3112262886289293807258000089                                                  N                     01321  0000000        000055
12042956441000101SOLUCOES ACO USIMINAS                                                 0000000034100000000000000000000000000000856906420000002262886290017266301     201208282012073000000000054390000145069000000000152029000000000000000000000000006960050000000000  3020120921   01          2                                                                                   3112262886297293807258000099                                                  N                     01321  0000000        000056
12042956441000101SOLUCOES ACO USIMINAS                                                 0000000034100000000000000000000000000000858616290000002271409670017315101     201208302012080200000000054410000579548000000000605046000000000000000000000000025498050000000000  3020120921   01          2                                                                                   3112271409677293807258000099                                                  N                     01321  0000000        000057
12042956441000101SOLUCOES ACO USIMINAS                                                 0000000034100000000000000000000000000000858616320000002271409680017316001     201208302012080200000000054410000929730000000000970628000000000000000000000000040898050000000000  3020120921   01          2                                                                                   3112271409685293807258000039                                                  N                     01321  0000000        000058
12042956441000101SOLUCOES ACO USIMINAS                                                 0000000034100000000000000000000000000000855028680000002254329370017202402     201209202012072600000000054620000244136000000000244624000000000000000000000000000488050000000000  3020120921   01          2                                                                                   3112254329371293807258000079                                                  N                     01321  0000000        000059
12042956441000101SOLUCOES ACO USIMINAS                                                 0000000034100000000000000000000000000000855028720000002254329340017200202     201209202012072600000000054620000680385000000000681746000000000000000000000000001361050000000000  3020120921   01          2                                                                                   3112254329348293807258000079                                                  N                     01321  0000000        000060
12042956441000101SOLUCOES ACO USIMINAS                                                 0000000034100000000000000000000000000000855028730000002254329350017200302     201209202012072600000000054620000156896000000000157210000000000000000000000000000314050000000000  3020120921   01          2                                                                                   3112254329355293807258000029                                                  N                     01321  0000000        000061
12042956441000101SOLUCOES ACO USIMINAS                                                 0000000034100000000000000000000000000000853154830000002246247020017196602     201209202012072500000000054620000804808000000000806418000000000000000000000000001610050000000000  3020120921   01          2                                                                                   3112246247020293807258000089                                                  N                     01321  0000000        000062
12042956441000101SOLUCOES ACO USIMINAS                                                 0000000034100000000000000000000000000000853154840000002246247030017196702     201209202012072500000000054620000234841000000000235311000000000000000000000000000470050000000000  3020120921   01          2                                                                                   3112246247038293807258000099                                                  N                     01321  0000000        000063
12042956441000101SOLUCOES ACO USIMINAS                                                 0000000034100000000000000000000000000000853154850000002246247040017197302     201209202012072500000000054620000970103000000000972043000000000000000000000000001940050000000000  3020120921   01          2                                                                                   3112246247046293807258000019                                                  N                     01321  0000000        000064
12042956441000101SOLUCOES ACO USIMINAS                                                 0000000034100000000000000000000000000000850740470000002233586810017101002     201209142012071900000000054560000732575000000000742830000000000000000000000000010255050000000000  3020120921   01          2                                                                                   3112233586810293807258000019                                                  N                     01321  0000000        000065
12042956441000101SOLUCOES ACO USIMINAS                                                 0000000034100000000000000000000000000000850740480000002233586820017101202     201209142012071900000000054560000144634000000000146657000000000000000000000000002023050000000000  3020120921   01          2                                                                                   3112233586828293807258000029                                                  N                     01321  0000000        000066
12042956441000101SOLUCOES ACO USIMINAS                                                 0000000034100000000000000000000000000000850740490000002233586830017126902     201209172012072000000000054590000208392000000000210060000000000000000000000000001668050000000000  3020120921   01          2                                                                                   3112233586836293807258000089                                                  N                     01321  0000000        000067
12042956441000101SOLUCOES ACO USIMINAS                                                 0000000034100000000000000000000000000000850740500000002233586840017127002     201209172012072000000000054590000190428000000000191952000000000000000000000000001524050000000000  3020120921   01          2                                                                                   3112233586844293807258000019                                                  N                     01321  0000000        000068
12042956441000101SOLUCOES ACO USIMINAS                                                 0000000034100000000000000000000000000000850740510000002233586850017127102     201209172012072000000000054590000167727000000000169067000000000000000000000000001340050000000000  3020120921   01          2                                                                                   3112233586851293807258000039                                                  N                     01321  0000000        000069
12042956441000101SOLUCOES ACO USIMINAS                                                 0000000034100000000000000000000000000000858616330000002271409690017319301     201208302012080200000000054410000981820000000001025028000000000000000000000000043208050000000000  3020120921   01          2                                                                                   3112271409693293807258000039                                                  N                     01321  0000000        000070
12042956441000101SOLUCOES ACO USIMINAS                                                 0000000034100000000000000000000000000000858616340000002271409700017319401     201208302012080200000000054410000178956000000000186832000000000000000000000000007876050000000000  3020120921   01          2                                                                                   3112271409701293807258000089                                                  N                     01321  0000000        000071
12042956441000101SOLUCOES ACO USIMINAS                                                 0000000034100000000000000000000000000000858616350000002271409710017319501     201208302012080200000000054410000197439000000000206129000000000000000000000000008690050000000000  3020120921   01          2                                                                                   3112271409719293807258000049                                                  N                     01321  0000000        000072
12042956441000101SOLUCOES ACO USIMINAS                                                 0000000034100000000000000000000000000000858616360000002271409720017319601     201208302012080200000000054410000197103000000000205771000000000000000000000000008668050000000000  3020120921   01          2                                                                                   3112271409727293807258000019                                                  N                     01321  0000000        000073
12042956441000101SOLUCOES ACO USIMINAS                                                 0000000034100000000000000000000000000000848180700000002220192900017041002     201209112012071700000000054530000155433000000000158543000000000000000000000000003110050000000000  3020120921   01          2                                                                                   3112220192903293807258000029                                                  N                     01321  0000000        000074
12042956441000101SOLUCOES ACO USIMINAS                                                 0000000034100000000000000000000000000000848180710000002220192910017041202     201209112012071700000000054530000205421000000000209531000000000000000000000000004110050000000000  3020120921   01          2                                                                                   3112220192911293807258000019                                                  N                     01321  0000000        000075
12042956441000101SOLUCOES ACO USIMINAS                                                 0000000034100000000000000000000000000000858616370000002271409730017319701     201208302012080200000000054410000197271000000000205961000000000000000000000000008690050000000000  3020120921   01          2                                                                                   3112271409735293807258000019                                                  N                     01321  0000000        000076
12042956441000101SOLUCOES ACO USIMINAS                                                 0000000034100000000000000000000000000000858616380000002271409740017319801     201208302012080200000000054410000194583000000000203141000000000000000000000000008558050000000000  3020120921   01          2                                                                                   3112271409743293807258000019                                                  N                     01321  0000000        000077
12042956441000101SOLUCOES ACO USIMINAS                                                 0000000034100000000000000000000000000000825740790000002106974460016399003     201208292012060600000000054400000203068000000000212406000000000000000000000000009338050000000000  3020120921   01          2                                                                                   3112106974465293807258000089                                                  N                     01321  0000000        000078
12042956441000101SOLUCOES ACO USIMINAS                                                 0000000034100000000000000000000000000000825740800000002106974470016399203     201208292012060600000000054400000450363000000000471086000000000000000000000000020723050000000000  3020120921   01          2                                                                                   3112106974473293807258000039                                                  N                     01321  0000000        000079
12042956441000101SOLUCOES ACO USIMINAS                                                 0000000034100000000000000000000000000000825740810000002106974480016399403     201208292012060600000000054400000431213000000000451039000000000000000000000000019826050000000000  3020120921   01          2                                                                                   3112106974481293807258000099                                                  N                     01321  0000000        000080
12042956441000101SOLUCOES EM ACO USIMINAS S A                                          000000000010000000000000000000000000000083138709000000082600000000057848003   201209122012062000000000054540000190073000000000193493000000000000000000000000003420050000000000  3020120921   01          2                                                                                   3000000169660100000826001769                                                  N                     01321  0000000        000081
12042956441000101SOLUCOES EM ACO USIMINAS S A                                          000000000010000000000000000000000000000083218056000000083600000000057906003   201209132012062100000000054550000698618000000000709794000000000000000000000000011176050000000000  3020120921   01          2                                                                                   3000000169660100000836001769                                                  N                     01321  0000000        000082
12042956441000101SOLUCOES EM ACO USIMINAS S A                                          000000000010000000000000000000000000000083306906000000084914000000166430003   201209132012062200000000054550000193852000000000196956000000000000000000000000003104050000000000  3020120921   01          2                                                                                   3000000169660100000849141719                                                  N                     01321  0000000        000083
12042956441000101SOLUCOES EM ACO USIMINAS S A                                          000000000010000000000000000000000000000083306908000000084917000000166431003   201209132012062200000000054550000484521000000000492273000000000000000000000000007752050000000000  3020120921   01          2                                                                                   3000000169660100000849171769                                                  N                     01321  0000000        000084
12042956441000101SOLUCOES EM ACO USIMINAS S A                                          000000000010000000000000000000000000000083306910000000084495000000057981003   201209142012062200000000054560000329929000000000334549000000000000000000000000004620050000000000  3020120921   01          2                                                                                   3000000169660100000844951789                                                  N                     01321  0000000        000085
12042956441000101SOLUCOES ACO USIMINAS                                                 0000000034100000000000000000000000000000824061850000002100925420016380503     201208292012060500000000054400000215523000000000225436000000000000000000000000009913050000000000  3020120921   01          2                                                                                   3112100925422293807258000039                                                  N                     01321  0000000        000086
12042956441000101SOLUCOES ACO USIMINAS                                                 0000000034100000000000000000000000000000824061860000002100925430016380703     201208292012060500000000054400000216699000000000226658000000000000000000000000009959050000000000  3020120921   01          2                                                                                   3112100925430293807258000079                                                  N                     01321  0000000        000087
12042956441000101SOLUCOES ACO USIMINAS                                                 0000000034100000000000000000000000000000850740460000002233586800017127201     201208202012072000000000054310000137881000000000146713000000000000000000000000008832050000000000  3020120921   01          2                                                                                   3112233586802293807258000019                                                  N                     01321  0000000        000088
12042956441000101SOLUCOES ACO USIMINAS                                                 0000000034100000000000000000000000000000841725460000002188168540016859402     201208292012070400000000054400000164456000000000172023000000000000000000000000007567050000000000  3020120921   01          2                                                                                   3112188168549293807258000059                                                  N                     01321  0000000        000089
12042956441000101SOLUCOES ACO USIMINAS                                                 0000000034100000000000000000000000000000841725470000002188168550016859502     201208292012070400000000054400000234337000000000245124000000000000000000000000010787050000000000  3020120921   01          2                                                                                   3112188168556293807258000089                                                  N                     01321  0000000        000090
12042956441000101SOLUCOES ACO USIMINAS                                                 0000000034100000000000000000000000000000841725480000002188168560016884802     201208302012070500000000054410000120612000000000125914000000000000000000000000005302050000000000  3020120921   01          2                                                                                   3112188168564293807258000019                                                  N                     01321  0000000        000091
12042956441000101SOLUCOES ACO USIMINAS                                                 0000000034100000000000000000000000000000841725490000002188168570016884902     201208302012070500000000054410000531835000000000555243000000000000000000000000023408050000000000  3020120921   01          2                                                                                   3112188168572293807258000019                                                  N                     01321  0000000        000092
12042956441000101SOLUCOES ACO USIMINAS                                                 0000000034100000000000000000000000000000841725500000002188168580016885102     201208302012070500000000054410000219722000000000229380000000000000000000000000009658050000000000  3020120921   01          2                                                                                   3112188168580293807258000049                                                  N                     01321  0000000        000093
12042956441000101SOLUCOES ACO USIMINAS                                                 0000000034100000000000000000000000000000841725510000002188168590016891202     201208302012070500000000054410001132543000000001182373000000000000000000000000049830050000000000  3020120921   01          2                                                                                   3112188168598293807258000019                                                  N                     01321  0000000        000094
12042956441000101SOLUCOES ACO USIMINAS                                                 0000000034100000000000000000000000000000841725520000002188168600016891402     201208302012070500000000054410000795232000000000830212000000000000000000000000034980050000000000  3020120921   01          2                                                                                   3112188168606293807258000019                                                  N                     01321  0000000        000095
12042956441000101SOLUCOES ACO USIMINAS                                                 0000000034100000000000000000000000000000841725530000002188168610016891502     201208302012070500000000054410001128343000000001177997000000000000000000000000049654050000000000  3020120921   01          2                                                                                   3112188168614293807258000089                                                  N                     01321  0000000        000096
12042956441000101SOLUCOES ACO USIMINAS                                                 0000000034100000000000000000000000000000846595700000002210880280016980502     201209102012071200000000054520000156071000000000159503000000000000000000000000003432050000000000  3020120921   01          2                                                                                   3112210880285293807258000039                                                  N                     01321  0000000        000097
12042956441000101SOLUCOES ACO USIMINAS                                                 0000000034100000000000000000000000000000846595710000002210880290016980602     201209102012071200000000054520000426094000000000435466000000000000000000000000009372050000000000  3020120921   01          2                                                                                   3112210880293293807258000019                                                  N                     01321  0000000        000098
12042956441000101SOLUCOES ACO USIMINAS                                                 0000000034100000000000000000000000000000847452070000002216130350005922202     201209102012071600000000054520000172071000000000175855000000000000000000000000003784050000000000  3020120921   01          2                                                                                   3112216130354293807258000049                                                  N                     01321  0000000        000099
12042956441000101SOLUCOES ACO USIMINAS                                                 0000000034100000000000000000000000000000847452100000002216130340017012402     201209102012071500000000054520000147428000000000150673000000000000000000000000003245050000000000  3020120921   01          2                                                                                   3112216130347293807258000059                                                  N                     01321  0000000        000100
12043217850000159IOB INFORMACOES OBJ  PUBL JURI                                        0000000023702374400000002958600 000000008711912800902243000063301440820F2     201209202012083000000000054620000072850000000000074331000000000000000000000000001481050000000000  3020120921   01          2  R GANGES 528                                                                     3                         000000000000000                                     N                     00598  0000000        000101
12043217850000159IOB INFORMACOES OBJ  PUBL JURI                                        0000000023702374400000002958600 000000008540495200902212000099001440820E4     201208202012073000000000054310000072850000000000075075000000000000000000000000002225050000000000  3020120921   01          2  GANGES 528 VL NOVA MANCHESTER                                                    3                         000000000000000                                     N                     00598  0000000        000102
12043555887000197RENATO GONCALVES                                                      000000000010000000000000000000000000000088599906000000680397000308A           201210202012092000000000054920000191500000000000191500000000000000000000000000000000050000000000  3020121022   01FS        1                                                                                   3000000104260650156803971119                                                  N                     01321  0000000        000103
12043555887000197RENATO GONCALVES                                                      000000000010000000000000000000000000000088599907000000680403000308B           201211052012092000000000055080000191500000000000191500000000000000000000000000000000050000000000  3020121105   01FS        1                                                                                   3000000104260650156804031159                                                  N                     01321  0000000        000104
12043555887000197RENATO GONCALVES                                                      000000000010000000000000000000000000000088599909000000680407000308C           201211202012092000000000055230000191400000000000191400000000000000000000000000000000050000000000  3020121120   01FS        1                                                                                   3000000104260650156804071179                                                  N                     01321  0000000        000105
12047190731000100DE CASTRO LOUREIRO E I C LTDA                                         00000000422000000000000000000000000000008403132600000000000000003025894 0     201209202012070300000000054620000255836000000000256389000000000000000000000000000553050000000000  3020120921   01          2                                                                                   3709700002021396491400268179                                                  N                     01321  0000000        000106
12047190731000100DE CASTRO LOUR ENG IND LTDA                                           00000000341000000000000000000000000000008782050900000023399953503026612 0     201209182012082100000000054600001111489000000001118047000000000000000000000000006558050000000000  3020120921   01          2                                                                                   3112339995352036884500400019                                                  N                     01321  0000000        000107
12047190731000100DE CASTRO LOUR ENG IND LTDA                                           00000000341000000000000000000000000000008782051200000023399953803026613 0     201209182012082100000000054600001107989000000001114526000000000000000000000000006537050000000000  3020120921   01          2                                                                                   3112339995386036884500400039                                                  N                     01321  0000000        000108
12047190731000100DE CASTRO LOUR ENG IND LTDA                                           00000000341000000000000000000000000000008782051600000023399954103026614 0     201209182012082100000000054600001047621000000001053801000000000000000000000000006180050000000000  3020120921   01          2                                                                                   3112339995410036884500400039                                                  N                     01321  0000000        000109
12047190731000100DE CASTRO LOUR ENG IND LTDA                                           00000000341000000000000000000000000000008782052000000023399955303026632 0     201209192012082200000000054610000952073000000000955817000000000000000000000000003744050000000000  3020120921   01          2                                                                                   3112339995535036884500400019                                                  N                     01321  0000000        000110
12047190731000100DE CASTRO LOUR ENG IND LTDA                                           00000000341000000000000000000000000000008782052100000023399955903026643 0     201209202012082300000000054620000867039000000000868744000000000000000000000000001705050000000000  3020120921   01          2                                                                                   3112339995592036884500400049                                                  N                     01321  0000000        000111
12047190731000100DE CASTRO LOUR ENG IND LTDA                                           00000000341000000000000000000000000000008782052500000023399955603026636 0     201209192012082200000000054610000940804000000000944504000000000000000000000000003700050000000000  3020120921   01          2                                                                                   3112339995568036884500400049                                                  N                     01321  0000000        000112
12047190731000100DE CASTRO LOUR ENG IND LTDA                                           00000000341000000000000000000000000000008782052700000023399956203026648 0     201209202012082300000000054620000976053000000000977973000000000000000000000000001920050000000000  3020120921   01          2                                                                                   3112339995626036884500400029                                                  N                     01321  0000000        000113
12051180370000199IGUAFER FERRO E ACO LTDA                                              0000000034100000000000000000000000000000852309100000002239389789443 B         201209022012071800000000054440000168275000000000173595000000000000000000000000005320050000000000  3020120921   01          2                                                                                   3112239389789077149484600089                                                  N                     01321  0000000        000114
12051180370000199IGUAFER FERRO E ACO LTDA                                              0000000034100000000000000000000000000000852309110000002239389799443 C         201209122012071800000000054540000168275000000000170795000000000000000000000000002520050000000000  3020120921   01          2                                                                                   3112239389797077149484600089                                                  N                     01321  0000000        000115
12052559499000175BOMAX NO BRASIL EQUIP INDS LT                                         0000000034100000000000000000000000000000852309140000002238631910000015611     201209172012071900000000054590000179150000000000180558000000000000000000000000001408050000000000  3020120921   01          2                                                                                   3112238631918324705000200079                                                  N                     01321  0000000        000116
12053585766000141MULTIACOS I C PRODS TEC LTDA                                          0000000042200000000000000000000000000000875773270000000000000000004421902     201209172012082100000000054590000942203000000000948482000000000000000000000000006279050000000000  3020120921   01          2                                                                                   3711500005033164914700545149                                                  N                     01321  0000000        000117
12053585766000141MULTIACOS INDUSTRIA E COMERCIO                                        0000000000100000000000000000000000000000878205430000006553850000004437602     201209192012082800000000054610000311767000000000312807000000000000000000000000001040050000000000  3020120921   01          2                                                                                   3044016553851912000139523139                                                  N                     01321  0000000        000118
12053585766000141MULTIACOS INDUSTRIA E COMERCIO                                        0000000000100000000000000000000000000000878205440000006553860000004437802     201209192012082800000000054610000435925000000000437379000000000000000000000000001454050000000000  3020120921   01          2                                                                                   3044016553861912000139523159                                                  N                     01321  0000000        000119
12053585766000141MULTIACOS INDUSTRIA E COMERCIO                                        0000000000100000000000000000000000000000878205540000006553840000004437502     201209192012082800000000054610000418711000000000420107000000000000000000000000001396050000000000  3020120921   01          2                                                                                   3044016553841912000139523119                                                  N                     01321  0000000        000120
12053585766000141MULTIACOS INDUSTRIA E COMERCIO                                        0000000000100000000000000000000000000000878205550000006553940000004446102     201209202012082800000000054620000687401000000000688547000000000000000000000000001146050000000000  3020120921   01          2                                                                                   3044016553941912000139523119                                                  N                     01321  0000000        000121
12053585766000141MULTIACOS INDUSTRIA E COMERCIO                                        0000000000100000000000000000000000000000878205560000006553970000004447202     201209202012082800000000054620000425031000000000425739000000000000000000000000000708050000000000  3020120921   01          2                                                                                   3044016553971912000139523119                                                  N                     01321  0000000        000122
12053585766000141MULTIACOS INDUSTRIA E COMERCIO                                        0000000000100000000000000000000000000000878205450000006553920000004445102     201209202012082800000000054620000287235000000000287714000000000000000000000000000479050000000000  3020120921   01          2                                                                                   3044016553921912000139523119                                                  N                     01321  0000000        000123
12053585766000141MULTIACOS INDUSTRIA E COMERCIO                                        0000000000100000000000000000000000000000878205460000006553930000004445202     201209202012082800000000054620000224283000000000224657000000000000000000000000000374050000000000  3020120921   01          2                                                                                   3044016553931912000139523169                                                  N                     01321  0000000        000124
12053585766000141MULTIACOS INDUSTRIA E COMERCIO                                        0000000000100000000000000000000000000000878205490000006553470000004375103     201209202012082800000000054620000484407000000000485214000000000000000000000000000807050000000000  3020120921   01          2                                                                                   3044016553471912000139523149                                                  N                     01321  0000000        000125
12053585766000141MULTIACOS INDUSTRIA E COMERCIO                                        0000000000100000000000000000000000000000878205520000006553790000004429602     201209192012082800000000054610000910020000000000913054000000000000000000000000003034050000000000  3020120921   01          2                                                                                   3044016553791912000139523119                                                  N                     01321  0000000        000126
12053585766000141MULTIACOS I C PRODS TEC LTDA                                          0000000042200000000000000000000000000000875773280000000000000000004493701     201209172012082100000000054590000185498000000000186733000000000000000000000000001235050000000000  3020120921   01          2                                                                                   3711500005033164914700537139                                                  N                     01321  0000000        000127
12053585766000141MULTIACOS IND E CO                                                    0000000034100000000000000000000000000000885998960000002407458090004685001     201210252012091300000000054970000563931000000000563931000000000000000000000000000000050000000000  3020121025   01FS        1                                                                                   3112407458093293803748400099                                                  N                     01321  0000000        000128
12053585766000141MULTIACOS IND E CO                                                    0000000034100000000000000000000000000000885998970000002407458080004532103     201210222012081300000000054940000883908000000000883908000000000000000000000000000000050000000000  3020121022   01FS        1                                                                                   3112407458085293803748400049                                                  N                     01321  0000000        000129
12053585766000141MULTIACOS INDUSTRIA E COMERCIO                                        0000000000100000000000000000000000000000874070560000007280290000004391602     201209112012082100000000054530000354262000000000355442000000000000000000000000001770050000000000  3020120913   05          3                                                                                   3043997280291912000139523149                                                  N                     01321  0000000        000130
12053585766000141MULTIACOS INDUSTRIA E COMERCIO                                        0000000000100000000000000000000000000000874070570000007280280000004391502     201209112012082100000000054530000319418000000000320482000000000000000000000000001596050000000000  3020120913   05          3                                                                                   3043997280281912000139523129                                                  N                     01321  0000000        000131
12053585766000141MULTIACOS INDUSTRIA E COMERCIO                                        0000000000100000000000000000000000000000874070580000007280300000004391702     201209112012082100000000054530000342203000000000343343000000000000000000000000001710050000000000  3020120913   05          3                                                                                   3043997280301912000139523189                                                  N                     01321  0000000        000132
12054382510000108SETENTA IND E COM DE MADEIRAS                                         0000000034100000000000000000000000000000874070720000002305114064536 A         201209192012081600000000054610000191200000000000191952000000000000000000000000000752050000000000  3020120921   01          2                                                                                   3112305114061057002848000039                                                  N                     01321  0000000        000133
12054382510000108SETENTA IND E COM DE MADEIRAS                                         0000000034100000000000000000000000000000860403430000002277814474462 A         201209042012080700000000054460000191200000000000197592000000000000000000000000006392050000000000  3020120921   01          2                                                                                   3112277814474057049175300069                                                  N                     01321  0000000        000134
12056993900000131CIA METALURGICA PRADA                                                 0000000034100000000000000000000000000000837460410000002165934370025295503     201209202012062800000000054620000339048000000000339613000000000000000000000000000565050000000000  3020120921   01          2                                                                                   3112165934376293800573900029                                                  N                     01321  0000000        000135
12056993900000131CIA METALURGICA PRADA                                                 0000000034100000000000000000000000000000855028550000002254750250026244301     201208272012072800000000054380000100986000000000105186000000000000000000000000004200050000000000  3020120921   01          2                                                                                   3112254750253293800573900099                                                  N                     01321  0000000        000136
12056993900000131CIA METALURGICA PRADA                                                 0000000034100000000000000000000000000000855028560000002254750260026244401     201208272012072800000000054380000084368000000000087893000000000000000000000000003525050000000000  3020120921   01          2                                                                                   3112254750261293800573900089                                                  N                     01321  0000000        000137
12056993900000131CIA METALURGICA PRADA                                                 0000000034100000000000000000000000000000837460440000002165934360025295403     201209202012062800000000054620000152797000000000153052000000000000000000000000000255050000000000  3020120921   01          2                                                                                   3112165934368293800573900019                                                  N                     01321  0000000        000138
12056993900000131CIA METALURGICA PRADA                                                 0000000034100000000000000000000000000000837460450000002165934380025295603     201209202012062800000000054620000154165000000000154422000000000000000000000000000257050000000000  3020120921   01          2                                                                                   3112165934384293800573900039                                                  N                     01321  0000000        000139
12056993900000131CIA METALURGICA PRADA                                                 0000000034100000000000000000000000000000823343300000002094231730024634103     201208272012060400000000054380000135902000000000141577000000000000000000000000005675050000000000  3020120921   01          2                                                                                   3112094231738293800573900079                                                  N                     01321  0000000        000140
12056993900000131CIA METALURGICA PRADA                                                 0000000034100000000000000000000000000000823343310000002094231740024634203     201208272012060400000000054380000247806000000000258131000000000000000000000000010325050000000000  3020120921   01          2                                                                                   3112094231746293800573900019                                                  N                     01321  0000000        000141
12056993900000131CIA METALURGICA PRADA                                                 0000000034100000000000000000000000000000844839000000002201181880025629402     201209052012071100000000054470000249372000000000256028000000000000000000000000006656050000000000  3020120921   01          2                                                                                   3112201181883293800573900019                                                  N                     01321  0000000        000142
12056993900000131CIA METALURGICA PRADA                                                 0000000034100000000000000000000000000000844839010000002201181890025635302     201209052012071100000000054470000406842000000000417690000000000000000000000000010848050000000000  3020120921   01          2                                                                                   3112201181891293800573900019                                                  N                     01321  0000000        000143
12056993900000131CIA METALURGICA PRADA                                                 0000000034100000000000000000000000000000823343330000002094231750024634603     201208272012060400000000054380000124715000000000129915000000000000000000000000005200050000000000  3020120921   01          2                                                                                   3112094231753293800573900039                                                  N                     01321  0000000        000144
12056993900000131CIA METALURGICA PRADA                                                 0000000034100000000000000000000000000000823343340000002094231760024634703     201208272012060400000000054380000508859000000000530059000000000000000000000000021200050000000000  3020120921   01          2                                                                                   3112094231761293800573900019                                                  N                     01321  0000000        000145
12056993900000131CIA METALURGICA PRADA                                                 0000000034100000000000000000000000000000824820100000002102181160024711603     201208292012060600000000054400000833146000000000865093000000000000000000000000031947050000000000  3020120921   01          2                                                                                   3112102181164293800573900039                                                  N                     01321  0000000        000146
12056993900000131CIA METALURGICA PRADA                                                 0000000034100000000000000000000000000000844839020000002201181900025635402     201209052012071100000000054470000208689000000000214257000000000000000000000000005568050000000000  3020120921   01          2                                                                                   3112201181909293800573900069                                                  N                     01321  0000000        000147
12056993900000131CIA METALURGICA PRADA                                                 0000000034100000000000000000000000000000844839030000002201181910025635502     201209052012071100000000054470000164780000000000169180000000000000000000000000004400050000000000  3020120921   01          2                                                                                   3112201181917293800573900029                                                  N                     01321  0000000        000148
12056993900000131CIA METALURGICA PRADA                                                 0000000034100000000000000000000000000000844839040000002201181920025635602     201209052012071100000000054470000339933000000000349005000000000000000000000000009072050000000000  3020120921   01          2                                                                                   3112201181925293800573900069                                                  N                     01321  0000000        000149
12056993900000131CIA METALURGICA PRADA                                                 0000000034100000000000000000000000000000844839050000002201181930025636202     201209052012071100000000054470000746213000000000766117000000000000000000000000019904050000000000  3020120921   01          2                                                                                   3112201181933293800573900019                                                  N                     01321  0000000        000150
12056993900000131CIA METALURGICA PRADA                                                 0000000034100000000000000000000000000000844839060000002201181940025644402     201209052012071100000000054470000779647000000000800431000000000000000000000000020784050000000000  3020120921   01          2                                                                                   3112201181941293800573900019                                                  N                     01321  0000000        000151
12056993900000131CIA METALURGICA PRADA                                                 0000000034100000000000000000000000000000844839140000002201181870025629302     201209052012071100000000054470000257906000000000264786000000000000000000000000006880050000000000  3020120921   01          2                                                                                   3112201181875293800573900069                                                  N                     01321  0000000        000152
12056993900000131CIA METALURGICA PRADA                                                 0000000034100000000000000000000000000000848180620000002218222670025829902     201209112012071700000000054530000498118000000000506418000000000000000000000000008300050000000000  3020120921   01          2                                                                                   3112218222670293800573900029                                                  N                     01321  0000000        000153
12056993900000131CIA METALURGICA PRADA                                                 0000000034100000000000000000000000000000848180630000002218222680025830002     201209112012071700000000054530000247673000000000251803000000000000000000000000004130050000000000  3020120921   01          2                                                                                   3112218222688293800573900059                                                  N                     01321  0000000        000154
12056993900000131CIA METALURGICA PRADA                                                 0000000034100000000000000000000000000000848180640000002218222690025830102     201209112012071700000000054530000207402000000000210862000000000000000000000000003460050000000000  3020120921   01          2                                                                                   3112218222696293800573900039                                                  N                     01321  0000000        000155
12056993900000131CIA METALURGICA PRADA                                                 0000000034100000000000000000000000000000837460460000002165934390025295703     201209202012062800000000054620000139528000000000139761000000000000000000000000000233050000000000  3020120921   01          2                                                                                   3112165934392293800573900029                                                  N                     01321  0000000        000156
12056993900000131CIA METALURGICA PRADA                                                 0000000034100000000000000000000000000000838527910000002171340450025383502     201208272012063000000000054380000575128000000000599103000000000000000000000000023975050000000000  3020120921   01          2                                                                                   3112171340451293800573900039                                                  N                     01321  0000000        000157
12056993900000131CIA METALURGICA PRADA                                                 0000000034100000000000000000000000000000838527920000002171340460025384302     201208272012063000000000054380000454477000000000473402000000000000000000000000018925050000000000  3020120921   01          2                                                                                   3112171340469293800573900019                                                  N                     01321  0000000        000158
12056993900000131CIA METALURGICA PRADA                                                 0000000034100000000000000000000000000000840312930000002179478290025419302     201208282012070300000000054390000402178000000000418258000000000000000000000000016080050000000000  3020120921   01          2                                                                                   3112179478295293800573900089                                                  N                     01321  0000000        000159
12056993900000131CIA METALURGICA PRADA                                                 0000000034100000000000000000000000000000840312940000002179478300025419402     201208282012070300000000054390000322804000000000335716000000000000000000000000012912050000000000  3020120921   01          2                                                                                   3112179478303293800573900079                                                  N                     01321  0000000        000160
12057029431000106ATLAS COPCO BRASIL LTDA                                               0000000034100000000000000000000000000000861960280000002283943487000054090     201209062012080900000000054480000059490000000000060075000000000000000000000000000585050000000000  3020120921   01          2                                                                                   3112283943481293804111400069                                                  N                     01321  0000000        000161
12057029431000106ATLAS COPCO BRASIL LTDA                                               0000000034100000000000000000000000000000863731640000002292733057000054146     201209072012081000000000054490000081450000000000082206000000000000000000000000000756050000000000  3020120921   01          2                                                                                   3112292733055293804111400099                                                  N                     01321  0000000        000162
12057158057000130COMERCIAL ELETRICA PJ LTDA                                            0000000023703394400000000972983 00000000842436850090219200008900000305028     201208012012070400000000054120000079196000000000092609000000000000000000000000013413050000000000  3020120921   01          2  R TAMAINDE 1410                                                                  3                         000000000000000                                     N                     00598  0000000        000163
12059659615000177DZ COMERCIO R E SERVICOS LTDA                                         000000003410000000000000000000000000000086699205000000900000268252            201209172012081500000000054590000060000000000000060480000000000000000000000000000480050000000000  3020120921   01          2                                                                                   3109000002680000314585100059                                                  N                     01321  0000000        000164
12061174652000137METALURGICA SCHIOPPA LTDA                                             0000000023703392800000001071602 0000000086120725002022220000022110191 001     201209032012080200000000054450000075159000000000076909000000000000000000000000002000050000000000  3020120910   06          3  RUA GANGES 528                                                                   3                         000000000000000                                     N                     00598  0000000        000165
12061217188000119TELAS METALICAS TELMETAL LTDA                                         0000000000100000000000000000000000000000863731680000000056110005493 2 3       201209172012081300000000054590000017103000000000017195000000000000000000000000000138050000000000  3020120919   06          3                                                                                   3000000115031800000056111729                                                  N                     01321  0000000        000166
12061217188000119TELAS METALICAS TELMETAL LTDA                                         0000000000100000000000000000000000000000863731700000000056080005492 2 3       201209172012081300000000054590000043177000000000043407000000000000000000000000000345050000000000  3020120919   06          3                                                                                   3000000115031800000056081789                                                  N                     01321  0000000        000167
12061217188000119TELAS METALICAS TELMETAL LTDA                                         0000000000100000000000000000000000000000867622100000000056390005531 1 1       201209142012082000000000054560000032112000000000032456000000000000000000000000000430050000000000  3020120918   06          3                                                                                   3000000115031800000056391719                                                  N                     01321  0000000        000168
12061217188000119TELAS METALICAS TELMETAL LTDA                                         0000000000100000000000000000000000000000867622110000000056400005532 1 3       201209142012082000000000054560000074598000000000075394000000000000000000000000000995050000000000  3020120918   06          3                                                                                   3000000115031800000056401719                                                  N                     01321  0000000        000169
12061217188000119TELAS METALICAS TELMETAL LTDA                                         0000000000100000000000000000000000000000864554370000000056140005494 2 3       201209182012081400000000054600000008494000000000008563000000000000000000000000000069050000000000  3020120921   01          2                                                                                   3000000115031800000056141799                                                  N                     01321  0000000        000170
12062510367000102ITANHAEM TRANSP DE MAQUINAS LT                                        000000003410000000000000000000000000000087407049000000236463199667            201209202012090400000000054620000248220000000000249213000000000000000000000000000993050000000000  3020120921   01          2                                                                                   3112364631997005770252400049                                                  N                     01321  0000000        000171
12064952757000168WALMAC COM DE PROD QUIMICOS LT                                        0000000034100000000000000000000000000000860403460000002275821710020148        201208312012080300000000054420000219267000000000228318000000000000000000000000009051050000000000  3020120921   01          2                                                                                   3112275821711064807961400079                                                  N                     01321  0000000        000172
12066841552000130R V SEG PATRIMONIAL LTDA                                              00000000341000000000000000000000000000008852483200000090002192721927          201209102012081000000000054520000483241000000000485012000000000000000000000000001771050000000000  3020120921   01          2                                                                                   3109000219270001835253400099                                                  N                     01321  0000000        000173
12067647412000199ANCORA CHUMBADORES LTDA                                               000000003410000000000000000000000000000083392860000000214873078055988 3       201209182012062000000000054600000250000000000000251476000000000000000000000000001476050000000000  3020120921   01          2                                                                                   3112148730784013626917200059                                                  N                     01321  0000000        000174
12069284248000128ISOCOAT TINTAS E VERNIZES LTDA                                        0000000034100000000000000000000000000000841061040000002182507930052085        201209172012070200000000054590000236130000000000238650000000000000000000000000002520050000000000  3020120921   01          2                                                                                   3112182507932077430121200019                                                  N                     01321  0000000        000175
12069284248000128ISOCOAT TINTAS E VERNIZES LTDA                                        0000000034100000000000000000000000000000856906380000002259392820053390        201209142012073100000000054560000055579000000000056467000000000000000000000000001036050000000000  3020120920   06          3                                                                                   3112259392820077430121200029                                                  N                     01321  0000000        000176
12069309706000136F N A TRANSPORTES LTDA                                                000000003410000000000000000000000000000086615421000000900010656059068         201208302012081500000000054410000079200000000000085008000000000000000000000000005808050000000000  3020120921   01          2                                                                                   3109000106565005486932600099                                                  N                     01321  0000000        000177
12075483040000130REX MAQUINAS E EQUIPAMENTOS LT                                        0000000023702656500000000000701 000000008577186400202216000032178261 2 2      201209202012072600000000054620000384500000000000385141000000000000000000000000000641050000000000  3020120921   01          2  RUA  GANGES  528                                                                 3                         000000000000000                                     N                     00598  0000000        000178
900017900000000060935823                                                                                                                                                                                                                                                                                                                                                                                                                                                                00598  0000000        000179
