0000147602043799295000110ALTAMIRA INDUSTRIA METALURGICA LT       202000000017120121121062106             1                                                                                                                                                                                                                                                                                                                                                                                                    000001
12001895314000162COLETA INDUSTRIAL FIMAVAN LTDA                                        0000000034100000000000000000000000000000866992070000009002335349439           201208272012081700000000054380000123695000000000154463000000000000000000000000030768050000000000  3020121121   01          2                                                                                   3109002335346144604097200019                                                  N                     01321  0000000        000002
12001895314000162COLETA INDUSTRIAL FIMAVAN LTDA                                        00000000341000000000000000000000000000009229728300000090023632512372          201211292012111900000000055320000129467000000000129467000000000000000000000000000000050000000000  3020121129   01FS        1                                                                                   3109002363256144604097200019                                                  N                     01321  0000000        000003
12003489596000123BEND FLEX I COMERCIO LTDA                                             000000003410000000000000000000000000000088599899000000171434574613            201209172012081600000000054590000585000000000000659815000000000000000000000000074815050000000000  3020121121   01          2                                                                                   3191714345748157734445800019                                                  N                     01321  0000000        000004
12003489596000123BEND FLEX I COMERCIO LTDA                                             000000003410000000000000000000000000000091358505000000177374323637            201210292012092700000000055010000110000000000000114968000000000000000000000000004968050000000000  3020121121   01          2                                                                                   3191773743239157734445800019                                                  N                     01321  0000000        000005
12003489596000123BEND FLEX I COMERCIO LTDA                                             000000003410000000000000000000000000000088350832000000171879874608            201209122012082100000000054540000695250000000000790940000000000000000000000000095690050000000000  3020121121   01          2                                                                                   3191718798744157734445800069                                                  N                     01321  0000000        000006
12005880850000145NEDERMAN BRASIL COM PROD EX LT                                        000000003410000000000000000000000000000086373178000000614350956002763 A       201209252012081400000000054670000289674000000000322164000000000000000000000000032490050000000000  3020121121   01          2                                                                                   3156143509568160829000100049                                                  N                     01321  0000000        000007
12006000195000156MBA MERCANTIL BRAS DE ACO LTDA                                        0000000034100000000000000000000000000000904173150000001667238300008870B03     201210092012071600000000054810000839951000000000910987000000000000000000000000071036050000000000  3020121121   01          2                                                                                   3191667238304064849251000039                                                  N                     01321  0000000        000008
12006000195000156MBA MERCANTIL BRAS DE ACO LTDA                                        0000000034100000000000000000000000000000904173160000001667238280008876B03     201210122012071600000000054840000810320000000000874080000000000000000000000000063760050000000000  3020121121   01          2                                                                                   3191667238288064849251000079                                                  N                     01321  0000000        000009
12006000195000156MBA MERCANTIL BRAS DE ACO LTDA                                        0000000034100000000000000000000000000000904173180000001671394430008926B03     201210122012071700000000054840000387716000000000418236000000000000000000000000030520050000000000  3020121121   01          2                                                                                   3191671394432064849251000079                                                  N                     01321  0000000        000010
12006000195000156MBA MERCANTIL BRAS DE ACO LTDA                                        0000000034100000000000000000000000000000904173170000001671394420008925B03     201210122012071700000000054840000719580000000000776180000000000000000000000000056600050000000000  3020121121   01          2                                                                                   3191671394424064849251000069                                                  N                     01321  0000000        000011
12006000195000156MBA MERCANTIL BRAS DE ACO LTDA                                        0000000034100000000000000000000000000000887698090000001671394550008925B02     201209142012071700000000054560000719581000000000815801000000000000000000000000096220050000000000  3020121121   01          2                                                                                   3191671394556064849251000089                                                  N                     01321  0000000        000012
12006000195000156MBA MERCANTIL BRAS DE ACO LTDA                                        0000000034100000000000000000000000000000887698100000001671394560008926B02     201209142012071700000000054560000387716000000000439600000000000000000000000000051884050000000000  3020121121   01          2                                                                                   3191671394564064849251000019                                                  N                     01321  0000000        000013
12006000195000156MBA MERCANTIL BRAS DE ACO LTDA                                        0000000034100000000000000000000000000000906662670000001671394410008920B03     201210142012071700000000054860000576584000000000619676000000000000000000000000043092050000000000  3020121121   01          2                                                                                   3191671394416064849251000039                                                  N                     01321  0000000        000014
12006000195000156MBA MERCANTIL BRAS DE ACO LTDA                                        0000000034100000000000000000000000000000889578520000001671394540008920B02     201209162012071700000000054580000576585000000000651429000000000000000000000000074844050000000000  3020121121   01          2                                                                                   3191671394549064849251000099                                                  N                     01321  0000000        000015
12006000195000156MBA MERCANTIL BRAS DE ACO LTDA                                        0000000034100000000000000000000000000000885998980000001667238420008870B02     201209112012071600000000054530000839952000000000957244000000000000000000000000117292050000000000  3020121121   01          2                                                                                   3191667238429064849251000039                                                  N                     01321  0000000        000016
12006000195000156MBA MERCANTIL BRAS DE ACO LTDA                                        0000000034100000000000000000000000000000904173140000001667238290008874B03     201210112012071600000000054830000802825000000000867564000000000000000000000000064739050000000000  3020121121   01          2                                                                                   3191667238296064849251000069                                                  N                     01321  0000000        000017
12009338857000190FERNANDO  NAGAO  CARDONE  ALVA                                        000000000330000000000000000000000000000089697936000000800000000ALTA 10 2012   201210202012092500000000054920000134632000000000148906000000000000000000000000014274050000000000  3020121121   01          2                                                                                   3947901700000051050080010129                                                  N                     01321  0000000        000018
12042956441000101SOLUCOES ACO USIMINAS                                                 0000000034100000000000000000000000000000856906420000002262886290017266301     201208282012073000000000054390000145069000000000169719000000000000000000000000024650050000000000  3020121121   01          2                                                                                   3112262886297293807258000099                                                  N                     01321  0000000        000019
12042956441000101SOLUCOES ACO USIMINAS                                                 0000000034100000000000000000000000000000853154840000002246247030017196702     201209202012072500000000054620000234841000000000263981000000000000000000000000029140050000000000  3020121121   01          2                                                                                   3112246247038293807258000099                                                  N                     01321  0000000        000020
12042956441000101SOLUCOES ACO USIMINAS                                                 0000000034100000000000000000000000000000853154850000002246247040017197302     201209202012072500000000054620000970103000000001090383000000000000000000000000120280050000000000  3020121121   01          2                                                                                   3112246247046293807258000019                                                  N                     01321  0000000        000021
12042956441000101SOLUCOES ACO USIMINAS                                                 0000000034100000000000000000000000000000853154860000002246247050017196603     201211192012072500000000055220000804807000000000808027000000000000000000000000003220050000000000  3020121121   01          2                                                                                   3112246247053293807258000059                                                  N                     01321  0000000        000022
12042956441000101SOLUCOES ACO USIMINAS                                                 0000000034100000000000000000000000000000853154870000002246247060017196703     201211192012072500000000055220000234840000000000235780000000000000000000000000000940050000000000  3020121121   01          2                                                                                   3112246247061293807258000019                                                  N                     01321  0000000        000023
12042956441000101SOLUCOES ACO USIMINAS                                                 0000000034100000000000000000000000000000853154880000002246247070017197303     201211192012072500000000055220000970103000000000973983000000000000000000000000003880050000000000  3020121121   01          2                                                                                   3112246247079293807258000059                                                  N                     01321  0000000        000024
12042956441000101SOLUCOES ACO USIMINAS                                                 0000000034100000000000000000000000000000855028690000002254329380017212902     201209212012072600000000054630000140098000000000157178000000000000000000000000017080050000000000  3020121121   01          2                                                                                   3112254329389293807258000019                                                  N                     01321  0000000        000025
12042956441000101SOLUCOES ACO USIMINAS                                                 0000000034100000000000000000000000000000855028700000002254329390017213002     201209212012072600000000054630000140602000000000157743000000000000000000000000017141050000000000  3020121121   01          2                                                                                   3112254329397293807258000089                                                  N                     01321  0000000        000026
12042956441000101SOLUCOES ACO USIMINAS                                                 0000000034100000000000000000000000000000855028740000002254329450017212903     201211192012072600000000055220000140098000000000140658000000000000000000000000000560050000000000  3020121121   01          2                                                                                   3112254329454293807258000069                                                  N                     01321  0000000        000027
12042956441000101SOLUCOES ACO USIMINAS                                                 0000000034100000000000000000000000000000855028750000002254329460017213003     201211192012072600000000055220000140602000000000141164000000000000000000000000000562050000000000  3020121121   01          2                                                                                   3112254329462293807258000039                                                  N                     01321  0000000        000028
12042956441000101SOLUCOES ACO USIMINAS                                                 0000000034100000000000000000000000000000855028760000002254329470017220503     201211192012072700000000055220000981022000000000984946000000000000000000000000003924050000000000  3020121121   01          2                                                                                   3112254329470293807258000019                                                  N                     01321  0000000        000029
12042956441000101SOLUCOES ACO USIMINAS                                                 0000000034100000000000000000000000000000855028770000002254329400017220502     201209212012072700000000054630000981022000000001100704000000000000000000000000119682050000000000  3020121121   01          2                                                                                   3112254329405293807258000099                                                  N                     01321  0000000        000030
12042956441000101SOLUCOES ACO USIMINAS                                                 0000000034100000000000000000000000000000855028780000002254329410017200203     201211192012072600000000055220000680385000000000683107000000000000000000000000002722050000000000  3020121121   01          2                                                                                   3112254329413293807258000089                                                  N                     01321  0000000        000031
12042956441000101SOLUCOES ACO USIMINAS                                                 0000000034100000000000000000000000000000855028790000002254329420017200303     201211192012072600000000055220000156897000000000157525000000000000000000000000000628050000000000  3020121121   01          2                                                                                   3112254329421293807258000049                                                  N                     01321  0000000        000032
12042956441000101SOLUCOES ACO USIMINAS                                                 0000000034100000000000000000000000000000855028800000002254329430017200403     201211192012072600000000055220000163223000000000163875000000000000000000000000000652050000000000  3020121121   01          2                                                                                   3112254329439293807258000019                                                  N                     01321  0000000        000033
12042956441000101SOLUCOES ACO USIMINAS                                                 0000000034100000000000000000000000000000855028810000002254329440017202403     201211192012072600000000055220000244137000000000245113000000000000000000000000000976050000000000  3020121121   01          2                                                                                   3112254329447293807258000059                                                  N                     01321  0000000        000034
12042956441000101SOLUCOES ACO USIMINAS                                                 0000000034100000000000000000000000000000859590620000002274469790017353702     201209282012080300000000054700000081053000000000089801000000000000000000000000008748050000000000  3020121121   01          2                                                                                   3112274469793293807258000069                                                  N                     01321  0000000        000035
12042956441000101SOLUCOES ACO USIMINAS                                                 0000000034100000000000000000000000000000856906410000002262886280017266201     201208282012073000000000054390000119472000000000139787000000000000000000000000020315050000000000  3020121121   01          2                                                                                   3112262886289293807258000089                                                  N                     01321  0000000        000036
12042956441000101SOLUCOES ACO USIMINAS                                                 0000000034100000000000000000000000000000850740480000002233586820017101202     201209142012071900000000054560000144634000000000164286000000000000000000000000019652050000000000  3020121121   01          2                                                                                   3112233586828293807258000029                                                  N                     01321  0000000        000037
12042956441000101SOLUCOES ACO USIMINAS                                                 0000000034100000000000000000000000000000846595700000002210880280016980502     201209102012071200000000054520000156071000000000178535000000000000000000000000022464050000000000  3020121121   01          2                                                                                   3112210880285293807258000039                                                  N                     01321  0000000        000038
12042956441000101SOLUCOES ACO USIMINAS                                                 0000000034100000000000000000000000000000846595710000002210880290016980602     201209102012071200000000054520000426094000000000487438000000000000000000000000061344050000000000  3020121121   01          2                                                                                   3112210880293293807258000019                                                  N                     01321  0000000        000039
12042956441000101SOLUCOES ACO USIMINAS                                                 0000000034100000000000000000000000000000847452070000002216130350005922202     201209102012071600000000054520000172071000000000196839000000000000000000000000024768050000000000  3020121121   01          2                                                                                   3112216130354293807258000049                                                  N                     01321  0000000        000040
12042956441000101SOLUCOES ACO USIMINAS                                                 0000000034100000000000000000000000000000847452100000002216130340017012402     201209102012071500000000054520000147428000000000168668000000000000000000000000021240050000000000  3020121121   01          2                                                                                   3112216130347293807258000059                                                  N                     01321  0000000        000041
12042956441000101SOLUCOES ACO USIMINAS                                                 0000000034100000000000000000000000000000848180700000002220192900017041002     201209112012071700000000054530000155433000000000177514000000000000000000000000022081050000000000  3020121121   01          2                                                                                   3112220192903293807258000029                                                  N                     01321  0000000        000042
12042956441000101SOLUCOES ACO USIMINAS                                                 0000000034100000000000000000000000000000848180710000002220192910017041202     201209112012071700000000054530000205421000000000234602000000000000000000000000029181050000000000  3020121121   01          2                                                                                   3112220192911293807258000019                                                  N                     01321  0000000        000043
12042956441000101SOLUCOES ACO USIMINAS                                                 0000000034100000000000000000000000000000850740460000002233586800017127201     201208202012072000000000054310000137881000000000163549000000000000000000000000025668050000000000  3020121121   01          2                                                                                   3112233586802293807258000019                                                  N                     01321  0000000        000044
12042956441000101SOLUCOES ACO USIMINAS                                                 0000000034100000000000000000000000000000850740470000002233586810017101002     201209142012071900000000054560000732575000000000832195000000000000000000000000099620050000000000  3020121121   01          2                                                                                   3112233586810293807258000019                                                  N                     01321  0000000        000045
12042956441000101SOLUCOES ACO USIMINAS                                                 0000000034100000000000000000000000000000922972800000002592188940019014503     201302062012111400000000056010000475225000000000475225000000000000000000000000000000050000000000  3020130206   01FS        1                                                                                   3112592188943293807258000059                                                  N                     01321  0000000        000046
12042956441000101SOLUCOES ACO USIMINAS                                                 0000000034100000000000000000000000000000922972810000002592188920019014501     201212122012111400000000055450000475367000000000475367000000000000000000000000000000050000000000  3020121212   01FS        1                                                                                   3112592188927293807258000069                                                  N                     01321  0000000        000047
12042956441000101SOLUCOES ACO USIMINAS                                                 0000000034100000000000000000000000000000922972820000002592188930019014502     201301092012111400000000055730000475224000000000475224000000000000000000000000000000050000000000  3020130109   01FS        1                                                                                   3112592188935293807258000019                                                  N                     01321  0000000        000048
12047190731000100DE CASTRO LOUR ENG IND LTDA                                           00000000341000000000000000000000000000008782051600000023399954103026614 0     201209182012082100000000054600001047621000000001179461000000000000000000000000131840050000000000  3020121121   01          2                                                                                   3112339995410036884500400039                                                  N                     01321  0000000        000049
12047190731000100DE CASTRO LOUR ENG IND LTDA                                           00000000341000000000000000000000000000008782052000000023399955303026632 0     201209192012082200000000054610000952073000000001070009000000000000000000000000117936050000000000  3020121121   01          2                                                                                   3112339995535036884500400019                                                  N                     01321  0000000        000050
12047190731000100DE CASTRO LOUR ENG IND LTDA                                           00000000341000000000000000000000000000008782052100000023399955903026643 0     201209202012082300000000054620000867039000000000972749000000000000000000000000105710050000000000  3020121121   01          2                                                                                   3112339995592036884500400049                                                  N                     01321  0000000        000051
12047190731000100DE CASTRO LOUR ENG IND LTDA                                           00000000341000000000000000000000000000008782052500000023399955603026636 0     201209192012082200000000054610000940804000000001057354000000000000000000000000116550050000000000  3020121121   01          2                                                                                   3112339995568036884500400049                                                  N                     01321  0000000        000052
12047190731000100DE CASTRO LOUR ENG IND LTDA                                           00000000341000000000000000000000000000008782052700000023399956203026648 0     201209202012082300000000054620000976053000000001095093000000000000000000000000119040050000000000  3020121121   01          2                                                                                   3112339995626036884500400029                                                  N                     01321  0000000        000053
12047190731000100DE CASTRO LOUR ENG IND LTDA                                           00000000341000000000000000000000000000008782050900000023399953503026612 0     201209182012082100000000054600001111489000000001251393000000000000000000000000139904050000000000  3020121121   01          2                                                                                   3112339995352036884500400019                                                  N                     01321  0000000        000054
12047190731000100DE CASTRO LOUR ENG IND LTDA                                           00000000341000000000000000000000000000008782051200000023399953803026613 0     201209182012082100000000054600001107989000000001247445000000000000000000000000139456050000000000  3020121121   01          2                                                                                   3112339995386036884500400039                                                  N                     01321  0000000        000055
12048775225000146SEIKI IND COM E CONFECCOES LTD                                        000000003410000000000000000000000000000089337376000000244697151014914001      201210232012092500000000054950000052000000000000054262000000000000000000000000002262050000000000  3020121121   01          2                                                                                   3112446971510017444824100089                                                  N                     01321  0000000        000056
12049341563000132JAC COMERCIO DE MAT ELET LTDA                                         000000003410000000000000000000000000000089697947000000246543950000023447C     201211152012100400000000055180000014732000000000014876000000000000000000000000000144050000000000  3020121121   01          2                                                                                   3112465439506018060969500039                                                  N                     01321  0000000        000057
12051180370000199IGUAFER FERRO E ACO LTDA                                              0000000034100000000000000000000000000000852309100000002239389789443 B         201209022012071800000000054440000168275000000000190675000000000000000000000000022400050000000000  3020121121   01          2                                                                                   3112239389789077149484600089                                                  N                     01321  0000000        000058
12051180370000199IGUAFER FERRO E ACO LTDA                                              0000000034100000000000000000000000000000852309110000002239389799443 C         201209122012071800000000054540000168275000000000187875000000000000000000000000019600050000000000  3020121121   01          2                                                                                   3112239389797077149484600089                                                  N                     01321  0000000        000059
12053585766000141MULTIACOS I C PRODS TEC LTDA                                          0000000042200000000000000000000000000000895189630000000000000000004699202     201211152012100200000000055180000519251000000000524440000000000000000000000000005189050000000000  3020121121   01          2                                                                                   3711500005033164927762064149                                                  N                     01321  0000000        000060
12053585766000141MULTIACOS I C PRODS TEC LTDA                                          0000000042200000000000000000000000000000895189680000000000000000004699302     201211142012100200000000055170000863284000000000873356000000000000000000000000010072050000000000  3020121121   01          2                                                                                   3711500005033164927762099149                                                  N                     01321  0000000        000061
12053585766000141MULTIACOS I C PRODS TEC LTDA                                          0000000042200000000000000000000000000000890456940000000000000000004724402     201211162012092500000000055190000522661000000000527015000000000000000000000000004354050000000000  3020121121   01          2                                                                                   3711500005033164925775193119                                                  N                     01321  0000000        000062
12053585766000141MULTIACOS I C PRODS TEC LTDA                                          0000000042200000000000000000000000000000890456980000000000000000004724302     201211162012092500000000055190000268274000000000270508000000000000000000000000002234050000000000  3020121121   01          2                                                                                   3711500005033164925775169159                                                  N                     01321  0000000        000063
12053585766000141MULTIACOS I C PRODS TEC LTDA                                          0000000042200000000000000000000000000000890457010000000000000000004650403     201211142012092500000000055170000192957000000000195210000000000000000000000000002253050000000000  3020121121   01          2                                                                                   3711500005033164925775231119                                                  N                     01321  0000000        000064
12053585766000141MULTIACOS I C PRODS TEC LTDA                                          0000000042200000000000000000000000000000890457040000000000000000004650303     201211142012092500000000055170000228607000000000231273000000000000000000000000002666050000000000  3020121121   01          2                                                                                   3711500005033164925775215139                                                  N                     01321  0000000        000065
12053863726000114COMERCIO DE LUBRIF E ACESSORIO                                        0000000023700114700000000680001 0000000092297285014001142980017008677 A       201212062012110800000000055390000033000000000000033000000000000000000000000000000000050000000000  3020121206   01FS        1  R GANGES 528 SAO PAULO SP                                                        3                         000000000000000                                     N                     00598  0000000        000066
12054382510000108SETENTA IND E COM DE MADEIRAS                                         0000000034100000000000000000000000000000860403430000002277814474462 A         201209042012080700000000054460000191200000000000220528000000000000000000000000029328050000000000  3020121121   01          2                                                                                   3112277814474057049175300069                                                  N                     01321  0000000        000067
12056993512000150CYKLOP DO BRASIL EMBALAGENS SA                                        0000000034100000000000000000000000000000874070500000002362586810134932        201210012012090300000000054730000083607000000000099264000000000000000000000000015657050000000000  3020121121   01          2                                                                                   3112362586813025700015800019                                                  N                     01321  0000000        000068
12059659615000177DZ COMERCIO R E SERVICOS LTDA                                         000000003410000000000000000000000000000091358507000000900000321280            201211172012102400000000055200000060000000000000060480000000000000000000000000000480050000000000  3020121121   01          2                                                                                   3109000003217000314585100039                                                  N                     01321  0000000        000069
12061217188000119TELAS METALICAS TELMETAL LTDA                                         0000000000100000000000000000000000000000902449800000000058110005780 2 3       201211192012101600000000055220000089763000000000090241000000000000000000000000000478050000000000  3020121121   01          2                                                                                   3000000115031800000058111799                                                  N                     01321  0000000        000070
12061695227000193ELETROPAULO METROP ELETR SA                                           0000000034100000000000000000000000000000922972840000009014424160001443375     201212102012111900000000055430003092232000000003092232000000000000000000000000000000050000000000  3020121210   01FS        1                                                                                   3109014424166293801457400039                                                  N                     01321  0000000        000071
12062510367000102ITANHAEM TRANSP DE MAQUINAS LT                                        000000003410000000000000000000000000000087407049000000236463199667            201209202012090400000000054620000248220000000000309786000000000000000000000000061566050000000000  3020121121   01          2                                                                                   3112364631997005770252400049                                                  N                     01321  0000000        000072
12062539994000176LEALFER IN E COM DE ACO LTDA                                          0000000034100000000000000000000000000000881032660000002380730120005461502     201211012012090600000000055040000842827000000000842827000000000000000000000000000000050000000000  3020121101   05          3                                                                                   3112380730120076103324000099                                                  N                     01321  0000000        000073
12064952757000168WALMAC COM DE PROD QUIMICOS LT                                        0000000034100000000000000000000000000000896979500000002462157550021611        201211012012100400000000055040000219267000000000227887000000000000000000000000008620050000000000  3020121121   01          2                                                                                   3112462157556064807961400019                                                  N                     01321  0000000        000074
12064952757000168WALMAC COM DE PROD QUIMICOS LT                                        0000000034100000000000000000000000000000860403440000002275821690020148        201210262012080300000000054980000219266000000000230472000000000000000000000000011206050000000000  3020121121   01          2                                                                                   3112275821695064807961400019                                                  N                     01321  0000000        000075
12064952757000168WALMAC COM DE PROD QUIMICOS LT                                        0000000034100000000000000000000000000000860403450000002275821700020148        201210052012080300000000054770000219267000000000239524000000000000000000000000020257050000000000  3020121121   01          2                                                                                   3112275821703064807961400029                                                  N                     01321  0000000        000076
12066841552000130R V SEG PATRIMONIAL S C LTDA                                          00000000341000000000000000000000000000008887329800000090002213622136          201210102012091100000000054820000374758000000000380008000000000000000000000000005250050000000000  3020121121   01          2                                                                                   3109000221365001838994000069                                                  N                     01321  0000000        000077
12066841552000130R V SEG PATRIMONIAL LTDA                                              00000000341000000000000000000000000000008852483200000090002192721927          201209102012081000000000054520000483241000000000494833000000000000000000000000011592050000000000  3020121121   01          2                                                                                   3109000219270001835253400099                                                  N                     01321  0000000        000078
12066899790000105FABRICA ARTEF LATEX ESTRELA EP                                        00000000399000000000000000000000000000008810327800000000000000078368 002      201211112012091200000000055140000256928000000000256928000000000000000000000000000000050000000000  3020121112   05          3                                                                                   3175972859141125027292500119                                                  N                     01321  0000000        000079
12066899790000105FABRICA ARTEF LATEX ESTRELA EP                                        00000000399000000000000000000000000000008895786000000000000000079585 001      201211102012092600000000055130000161122000000000161122000000000000000000000000000000050000000000  3020121112   05          3                                                                                   3176075257221125027292500149                                                  N                     01321  0000000        000080
12067647412000199ANCORA CHUMBADORES LTDA                                               000000003410000000000000000000000000000088873293000000242214247062576 2       201211182012091900000000055210000125000000000000125738000000000000000000000000000738050000000000  3020121121   01          2                                                                                   3112422142474013626917200019                                                  N                     01321  0000000        000081
12069284248000128ISOCOAT TINTAS E VERNIZES LTDA                                        0000000034100000000000000000000000000000895189830000002456588190056254        201211162012100200000000055190000365668000000000370543000000000000000000000000004875050000000000  3020121121   01          2                                                                                   3112456588196077430121200019                                                  N                     01321  0000000        000082
12069284248000128ISOCOAT TINTAS E VERNIZES LTDA                                        0000000034100000000000000000000000000000841061040000002182507930052085        201209172012070200000000054590000236130000000000277080000000000000000000000000040950050000000000  3020121121   01          2                                                                                   3112182507932077430121200019                                                  N                     01321  0000000        000083
12069309706000136F N A TRANSPORTES LTDA                                                000000003410000000000000000000000000000091358508000000900012193060709         201211152012103100000000055180000025323000000000025827000000000000000000000000000504050000000000  3020121121   01          2                                                                                   3109000121937005486932600019                                                  N                     01321  0000000        000084
12096500087000135WORKBENCH CONSULTORIA S S LTDA                                        0000000034100000000000000000000000000000878205840000007940034283118           201209272012090300000000054690000131746000000000145991000000000000000000000000014245050000000000  3020121121   01          2                                                                                   3157940034289826313803700089                                                  N                     01321  0000000        000085
900008600000000040011741                                                                                                                                                                                                                                                                                                                                                                                                                                                                01321  0000000        000086
