0000147602043799295000110ALTAMIRA INDUSTRIA METALURGICA LT       202000000196420121121212232             3                                                                                                  000000000000000                                                                                                                                                                                                                                                                                   000001
12086878469000143SUL AMERICA SEG SAUDE S A                                             0000000035600000 0000000000000  I000000000010199000000000000000               201211210000000000000000055240000000000000000000394330000000000000000000000000000000040201752113  3120121121   02BW        5000000               000000000000000                                               3007548091857130120175211869               1201752113                         N                     01132 10020256        000002
12062548797000113SIND  IND  FUN  MOV  METAL SP                                         0000000000100000 0000000000000  I000000000010198000000000000000               201211200000000000000000055230000015000000000000015000000000000000000000000000000000040000150931  3120121121   02BW        5000000               000000000000000                                               3130573228901812001052541649               150931                             N                     01132 10020256        000003
12008852780000100HOSTGATOR BRASIL HOSP SUP TEC                                         0000000034100000 0000000000000  I000000000010206000000000000000               201211210000000000000000055240000005199000000000005199000000000000000000000000000000010000044066  3120121121   02BW        5000000               000000000000000                                               3175101577952869105372500019               44066/13                           N                     01132 10020256        000004
12058119371000177SOFTMATIC SIST AUTOMATICOS I  R VISC DE ITABORAI 368 TATUAPE          0330805023700503700000000362034 I000000000010203000000000000000               201211210000000000000000000000000000000000000000041730000000000000000000000000000000050000017406  0120121121   02BW        5000000               000000000000000                                               3                                          17406                              N                     01321 10020256        000005
12006000195000156M B A MERCANTIL BRASILEIRA DE R RINCAO 220                            0365108023700118000000002128292 I000000000010204000000000000000               201211210000000000000000000000000000000000000002623702000000000000000000000000000000050000000000  0120121121   02BW        5000000               000000000000000                                               3                                                                             N                     01321 10020256        000006
12043799295000110ALTAMIRA INDUSTRIA METAL LTDA                                         0000000003303809500000130004071 I000000000010197000000000000000               201211210000000000000000000000000000000000000002800000000000000000000000000000000000050000000001  0820121121   02BW        5001400               000000000000000                                               3D0000000101                               01                                 S                     01133 10020256        000007
12007068566000102NIVEL EMPREGOS LTDA           AV CELSO GARCIA 3830                    0306400023700097300000003053792 I000000000010205000000000000000               201211210000000000000000000000000000000000000000240708000000000000000000000000000000010000002814  0120121121   02BW        5000000               000000000000000                                               3                                          2814 - PARC.01.                    N                     01321 10020256        000008
12027278100000130EXPRESSO BOAS NOVAS LTDA                                              0000000034100000000000000000000000000000914719040000009004319961210001917     201211202012103100000000055230000018902000000000018902000000000000000000000000000000050000000000  3020121121   02BW        2000000               000000000000000                                               3109004319969128259510500079               121000191701                       N                     01132 10020256        000009
12001852612000175BT EQUIPAMENTOS INDUSTRIAIS LT                                        000000000330000000000000000000000000000090920340000000420000000051976 1       201211202012102300000000055230000010480000000000010480000000000000000000000000000000050000000000  3020121121   02BW        2000000               000000000000000                                               3913651000000003009742010489               051976/01                          N                     01132 10020256        000010
12008508119000181DINARI FOMENTO MERCANTIL LTDA                                         0000000023702499600000000178306 000000009058100800202297000000715351          201211162012102200000000055190000015000000000000015675000000000000000000000000000900050000000000  3020121121   02BW        2000000               000000000000000      NELSON RODRIGUES DA SILVA JUNIOR EPP     3                         011389422000117  038808                             N                     01079 10020256        000011
12035820448000136WHITE MARTINS GASES INDUSTRIAI                                        0000000023700026400000003937925 0000000090417334009022930002455395360 001     201211152012101900000000055180000028403000000000029025000000000000000000000000000667050000000000  3020121121   02BW        2000000               000000000000000                                               3                         000000000000000  09341                              N                     01079 10020256        000012
12035820448000136WHITE MARTINS GASES INDUSTRIAI                                        0000000023700026400000003937925 0000000090751874009022990001570397592 001     201211212012102500000000055240000028403000000000028403000000000000000000000000000000050000000000  3020121121   02BW        2000000               000000000000000                                               3                         000000000000000  09373                              N                     01079 10020256        000013
12005753978000148HUMAN SERVICOS P C MOVEL LTDA                                         0000000034100000000000000000000000000000919321900000009001062470000106247     201211202012110100000000055230000013000000000000013000000000000000000000000000000000050000000000  3020121121   02BW        2000000               000000000000000                                               3109001062478057948896600019               94124                              N                     01132 10020256        000014
12049341563000132JAC COMERCIO DE MAT ELET LTDA                                         000000003410000000000000000000000000000089697947000000246543950000023447C     201211152012100400000000055180000014732000000000014876000000000000000000000000000264050000000000  3020121121   02BW        2000000               000000000000000                                               3112465439506018060969500039               023447/03                          N                     01132 10020256        000015
12069309706000136F N A TRANSPORTES LTDA                                                0000000034100000 0000000000000  I000000000010202000000000000000               201211210000000000000000055240000025827000000000025827000000000000000000000000000000050000060709  3120121121   02BW        5000000               000000000000000                                               3181584489071005486932600019               060709                             N                     01132 10020256        000016
12049341563000132JAC COMERCIO DE MATERIAIS ELET                                        00000000001000000000000000000000000000009005227400000046831600023646C         201211212012101100000000055240000009063000000000009063000000000000000000000000000000050000000000  3020121121   02BW        2000000               000000000000000                                               3000000192560144144683161119               23646/03                           N                     01132 10020256        000017
12004643290000142FLEXTINTAS IND  E COM  LTDA                                           0000000034100000 0000000000000  I000000000010201000000000000000               201211200000000000000000055230000050721000000000050721000000000000000000000000000000010000037938  3120121121   02BW        5000000               000000000000000                                               3181582797830051356781800019               037938/03                          N                     01132 10020256        000018
900001900000000006336641                                                                                                                                                                                    000000000000000                                                                                                                                                                                                                                                    00001700717900000234730        000019
