0000147602043799295000110ALTAMIRA INDUSTRIA METALURGICA LT       202000000010920120821093350             1                                                                                                                                                                                                                                                                                                                                                                                                    000001
12001895314000162COLETA INDUSTRIAL FIMAVAN LTDA                                        0000000034100000000000000000000000000000866992070000009002335349439           201208272012081700000000054380000123695000000000123695000000000000000000000000000000050000000000  3020120827   01FS        1                                                                                   3109002335346144604097200019                                                  N                     01321  0000000        000002
12002460454000170AUT SERVICE COMERCIO E SERVICO                                        0000000023702591700000000007692 000000008515291900901322060028134532          201208172012072400000000054280000238750000000000252599000000000000000000000000013849050000000000  3020120821   01          2  RUA JUNO  533                                                                    3                         000000000000000                                     N                     00598  0000000        000003
12002503185000182ANDAIMES E MAQUINAS BIG LTDA                                          000000000010000000000000000000000000000085315481000000065355000011521         201208152012072600000000054260000012000000000000012000000000000000000000000000000000050000000000  3020120815   06          3                                                                                   3000000187782308250653551739                                                  N                     01321  0000000        000004
12003195972000177L E S INTERBANK FOMENTO LTDA                                          00000000001000000000000000000000000000008507405300000092106800013297          201208152012072300000000054260000046460000000000046460000000000000000000000000000000050000000000  3020120815   06          3                                                                                   3043919210683014000077163149                                                  N                     01321  0000000        000005
12003489596000123BEND FLEX I COMERCIO LTDA                                             000000003410000000000000000000000000000086699212000000791935440613            201209172012082000000000054590000585000000000000585000000000000000000000000000000000050000000000  3020120917   01FS        1                                                                                   3157919354403157734445800099                                                  N                     01321  0000000        000006
12003807192000130HELIO MATERIAIS PARA SOLDAS LT                                        0000000023700298400000002087111 0000000084985531009013220101191S000001149     201208172012071900000000054280000022800000000000023972000000000000000000000000001172050000000000  3020120821   01          2  RUA TAMAINDE 1410                                                                3                         000000000000000                                     N                     00598  0000000        000007
12004676708000118M H F SISTEMAS S C LTDA                                               0000000034100000000000000000000000000000866992080000002311020830099048066     201209052012081700000000054470000014500000000000014500000000000000000000000000000000050000000000  3020120905   01FS        1                                                                                   3112311020831013924573200019                                                  N                     01321  0000000        000008
12006000195000156M B A MERCANTIL BRASILEIRA DE                                         0000000000100000000000000000000000000000834820210000002571530000008653B02     201208162012062600000000054270000276789000000000279094000000000000000000000000002305050000000000  3020120821   01          2                                                                                   3043852571533333000105251139                                                  N                     01321  0000000        000009
12006000195000156M B A MERCANTIL BRASILEIRA DE                                         0000000000100000000000000000000000000000834820290000002571590000008655B02     201208182012062600000000054290000739629000000000743328000000000000000000000000003699050000000000  3020120821   01          2                                                                                   3043852571593333000105251119                                                  N                     01321  0000000        000010
12006000195000156M B A MERCANTIL BRASILEIRA DE                                         0000000000100000000000000000000000000000834820260000002571560000008654B02     201208172012062600000000054280000677504000000000682020000000000000000000000000004516050000000000  3020120821   01          2                                                                                   3043852571563333000105251149                                                  N                     01321  0000000        000011
12006000195000156M B A MERCANTIL BRASILEIRA DE                                         0000000000100000000000000000000000000000834820320000002571620000008656B02     201208192012062600000000054300000641947000000000644087000000000000000000000000002140050000000000  3020120821   01          2                                                                                   3043852571623333000105251179                                                  N                     01321  0000000        000012
12006000195000156M B A MERCANTIL BRASILEIRA DE                                         0000000023700118P00000002130599 00000000848180750020220100000320008905B01     201208162012071900000000054270000155301000000000156596000000000000000000000000001295050000000000  3020120821   01          2  RUA JUNO  533                                                                    3                         000000000000000                                     N                     00598  0000000        000013
12007090033000119DIMEL COMERCIO A I LTDA ME                                            000000003410000000000000000000000000000084406387000000786643481906            201208092012071200000000054200000042440000000000042440000000000000000000000000000000050000000000  3020120809   06          3                                                                                   3157866434810045274000400099                                                  N                     01321  0000000        000014
12008709272000177MULTIELETRICA C M E LTDA                                              000000003410000000000000000000000000000084406369000000900002186000002499B     201208142012071000000000054250000158135000000000158135000000000000000000000000000000050000000000  3020120814   06          3                                                                                   3109000021869075798525400019                                                  N                     01321  0000000        000015
12009043000000143GERSON D DA SILVA SEGURANCA DO                                        000000003990000000000000000000000000000085074068000000000000000320            201208152012071400000000054260000071586000000000071586000000000000000000000000000000050000000000  3020120815   06          3                                                                                   3304770024940477000087000149                                                  N                     01321  0000000        000016
12009338857000190FERNANDO  NAGAO  CARDONE  ALVA                                        000000000330000000000000000000000000000085959071000000430000000REEM 07 2012   201208102012072600000000054210000024134000000000025167000000000000000000000000001033050000000000  3020120821   01          2                                                                                   3947901700000051047543010139                                                  N                     01321  0000000        000017
12012006058000121WEG TINTAS LTDA                                                       0000000023702727800000000001309 00000000841061110090218800000830014990201     201208192012070500000000054300000306569000000000307385000000000000000000000000000816050000000000  3020120821   01          2  R JUNO  533                                                                      3                         000000000000000                                     N                     00598  0000000        000018
12035820448000136WHITE MARTINS GASES INDUSTRIAI                                        0000000023700026400000003937925 0000000086699210009022330000393368126 001     201209142012081800000000054560000162300000000000162300000000000000000000000000000000050000000000  3020120914   01FS        1  RUA GANGES  528                                                                  3                         000000000000000                                     N                     00598  0000000        000019
12042956441000101SOLUCOES ACO USIMINAS                                                 0000000034100000000000000000000000000000850740410000002233586750017101001     201208172012071900000000054280000732795000000000738659000000000000000000000000005864050000000000  3020120821   01          2                                                                                   3112233586752293807258000099                                                  N                     01321  0000000        000020
12042956441000101SOLUCOES ACO USIMINAS                                                 0000000034100000000000000000000000000000850740430000002233586770017126901     201208202012072000000000054310000208455000000000208872000000000000000000000000000417050000000000  3020120821   01          2                                                                                   3112233586778293807258000039                                                  N                     01321  0000000        000021
12042956441000101SOLUCOES ACO USIMINAS                                                 0000000034100000000000000000000000000000850740440000002233586780017127001     201208202012072000000000054310000190485000000000190866000000000000000000000000000381050000000000  3020120821   01          2                                                                                   3112233586786293807258000019                                                  N                     01321  0000000        000022
12042956441000101SOLUCOES ACO USIMINAS                                                 0000000034100000000000000000000000000000850740450000002233586790017127101     201208202012072000000000054310000167777000000000168113000000000000000000000000000336050000000000  3020120821   01          2                                                                                   3112233586794293807258000029                                                  N                     01321  0000000        000023
12042956441000101SOLUCOES ACO USIMINAS                                                 0000000034100000000000000000000000000000850740460000002233586800017127201     201208202012072000000000054310000137881000000000138157000000000000000000000000000276050000000000  3020120821   01          2                                                                                   3112233586802293807258000019                                                  N                     01321  0000000        000024
12042956441000101SOLUCOES EM ACO USIMINAS S A                                          000000000010000000000000000000000000000083482046000000086547000000166813002   201208202012062600000000054310000391569000000000392352000000000000000000000000000783050000000000  3020120821   01          2                                                                                   3000000169660100000865471719                                                  N                     01321  0000000        000025
12042956441000101SOLUCOES EM ACO USIMINAS S A                                          000000000010000000000000000000000000000083482052000000086559000000166827002   201208202012062600000000054310000577022000000000578176000000000000000000000000001154050000000000  3020120821   01          2                                                                                   3000000169660100000865591719                                                  N                     01321  0000000        000026
12042956441000101SOLUCOES EM ACO USIMINAS S A                                          000000000010000000000000000000000000000083482055000000086562000000166828002   201208202012062600000000054310000325383000000000326034000000000000000000000000000651050000000000  3020120821   01          2                                                                                   3000000169660100000865621719                                                  N                     01321  0000000        000027
12042956441000101SOLUCOES ACO USIMINAS                                                 0000000034100000000000000000000000000000850740420000002233586760017101201     201208172012071900000000054280000144677000000000145833000000000000000000000000001156050000000000  3020120821   01          2                                                                                   3112233586760293807258000079                                                  N                     01321  0000000        000028
12042956441000101SOLUCOES ACO USIMINAS                                                 0000000034100000000000000000000000000000818681040000002074813160016189503     201208202012052800000000054310000570858000000000572000000000000000000000000000001142050000000000  3020120821   01          2                                                                                   3112074813166293807258000039                                                  N                     01321  0000000        000029
12042956441000101SOLUCOES ACO USIMINAS                                                 0000000034100000000000000000000000000000818681050000002074813170016189703     201208202012052800000000054310000245667000000000246158000000000000000000000000000491050000000000  3020120821   01          2                                                                                   3112074813174293807258000019                                                  N                     01321  0000000        000030
12042956441000101SOLUCOES ACO USIMINAS                                                 0000000034100000000000000000000000000000818681060000002074813180016190003     201208202012052800000000054310000339714000000000340393000000000000000000000000000679050000000000  3020120821   01          2                                                                                   3112074813182293807258000059                                                  N                     01321  0000000        000031
12042956441000101SOLUCOES ACO USIMINAS                                                 0000000034100000000000000000000000000000818681070000002074813190016190203     201208202012052800000000054310000723515000000000724962000000000000000000000000001447050000000000  3020120821   01          2                                                                                   3112074813190293807258000079                                                  N                     01321  0000000        000032
12042956441000101SOLUCOES ACO USIMINAS                                                 0000000034100000000000000000000000000000818681090000002074813200016190303     201208202012052800000000054310000449705000000000450604000000000000000000000000000899050000000000  3020120821   01          2                                                                                   3112074813208293807258000049                                                  N                     01321  0000000        000033
12042956441000101SOLUCOES EM ACO USIMINAS S A                                          000000000010000000000000000000000000000083482041000000086550000000166814002   201208202012062600000000054310000317656000000000318291000000000000000000000000000635050000000000  3020120821   01          2                                                                                   3000000169660100000865501789                                                  N                     01321  0000000        000034
12042956441000101SOLUCOES EM ACO USIMINAS S A                                          000000000010000000000000000000000000000083482043000000086544000000166812002   201208202012062600000000054310000608954000000000610172000000000000000000000000001218050000000000  3020120821   01          2                                                                                   3000000169660100000865441799                                                  N                     01321  0000000        000035
12042956441000101SOLUCOES ACO USIMINAS                                                 0000000034100000000000000000000000000000812917700000002043858310016016303     201208092012051600000000054200000338158000000000338834000000000000000000000000001352050000000000  3020120810   06          3                                                                                   3112043858318293807258000019                                                  N                     01321  0000000        000036
12042956441000101SOLUCOES ACO USIMINAS                                                 0000000034100000000000000000000000000000812917710000002043858320016016403     201208092012051600000000054200000598188000000000602972000000000000000000000000005980050000000000  3020120813   06          3                                                                                   3112043858326293807258000019                                                  N                     01321  0000000        000037
12042956441000101SOLUCOES ACO USIMINAS                                                 0000000034100000000000000000000000000000813840710000002053421690016075703     201208132012052100000000054240001132382000000001132382000000000000000000000000000000050000000000  3020120813   06          3                                                                                   3112053421692293807258000029                                                  N                     01321  0000000        000038
12042956441000101SOLUCOES ACO USIMINAS                                                 0000000034100000000000000000000000000000846595690000002210880270016980601     201208102012071200000000054210000426222000000000430482000000000000000000000000005112050000000000  3020120815   06          3                                                                                   3112210880277293807258000029                                                  N                     01321  0000000        000039
12042956441000101SOLUCOES ACO USIMINAS                                                 0000000034100000000000000000000000000000847452050000002216130320017012401     201208132012071500000000054240000147472000000000148062000000000000000000000000000885050000000000  3020120815   06          3                                                                                   3112216130321293807258000039                                                  N                     01321  0000000        000040
12042956441000101SOLUCOES ACO USIMINAS                                                 0000000034100000000000000000000000000000847452060000002216130330005922201     201208132012071600000000054240000172122000000000172810000000000000000000000000001032050000000000  3020120815   06          3                                                                                   3112216130339293807258000059                                                  N                     01321  0000000        000041
12042956441000101SOLUCOES ACO USIMINAS                                                 0000000034100000000000000000000000000000846595680000002210880260016980501     201208102012071200000000054210000156118000000000157678000000000000000000000000001872050000000000  3020120815   06          3                                                                                   3112210880269293807258000019                                                  N                     01321  0000000        000042
12042956441000101SOLUCOES EM ACO USIMINAS S A                                          000000000010000000000000000000000000000082978010000000080475000000057680002   201208132012061800000000054240000431769000000000433497000000000000000000000000002592050000000000  3020120815   06          3                                                                                   3000000169660100000804751729                                                  N                     01321  0000000        000043
12042956441000101SOLUCOES EM ACO USIMINAS S A                                          000000000010000000000000000000000000000082978016000000081231000000165560002   201208132012061800000000054240000341008000000000342372000000000000000000000000002046050000000000  3020120815   06          3                                                                                   3000000169660100000812311779                                                  N                     01321  0000000        000044
12043217850000159IOB INFORMACOES OBJ  PUBL JURI                                        0000000023702374400000002958600 000000008540495200902212000099001440820E4     201208202012073000000000054310000072850000000000074331000000000000000000000000001481050000000000  3020120821   01          2  GANGES 528 VL NOVA MANCHESTER                                                    3                         000000000000000                                     N                     00598  0000000        000045
12044098788000196MAIAMI COM E IMP DE ROLAMENTOS                                        0000000023700503700000000367516 0000000086699211009022330000001010061         201209072012081700000000054490000015000000000000015000000000000000000000000000000000050000000000  3020120910   01FS        1  RUA GANGES 528 VL CARRAO                                                         3                         000000000000000                                     N                     00598  0000000        000046
12051598472000129ELETRICA J SANTOS                                                     0000000023702451100000000000264 000000008507405800902206000003117806 01       201208202012072300000000054310000092714000000000093023000000000000000000000000000309050000000000  3020120821   01          2  R JUNO  533                                                                      3                         000000000000000                                     N                     00598  0000000        000047
12054382510000108SETENTA IND E COM DE MADEIRAS                                         0000000034100000000000000000000000000000857718470000002200819994359 A         201208102012071200000000054210000191200000000000191200000000000000000000000000000000050000000000  3020120810   06          3                                                                                   3112200819996057002848000029                                                  N                     01321  0000000        000048
12055721609000141MAC SEG EQUIP DE SEGURANCA LT                                         0000000034100000000000000000000000000000848957160000002223597143055 1         201208132012071600000000054240000052520000000000052520000000000000000000000000000000050000000000  3020120813   06          3                                                                                   3112223597140037814415800019                                                  N                     01321  0000000        000049
12056993900000131CIA METALURGICA PRADA                                                 0000000034100000000000000000000000000000818680900000002072574790024401603     201208202012052800000000054310000869421000000000870870000000000000000000000000001449050000000000  3020120821   01          2                                                                                   3112072574794293800573900019                                                  N                     01321  0000000        000050
12057017873000124METAFER COMERCIO DE FERRO E AC                                        0000000023703134800000000072206 00000000866992090090223300001010033517C01     201209212012081700000000054630000083489000000000083489000000000000000000000000000000050000000000  3020120921   01FS        1  RUA JUNO  533                                                                    3                         000000000000000                                     N                     00598  0000000        000051
12057158057000130COMERCIAL ELETRICA PJ LTDA                                            0000000023703394400000000972983 00000000842436850090219200008900000305028     201208012012070400000000054120000079196000000000084456000000000000000000000000005260050000000000  3020120821   01          2  R TAMAINDE 1410                                                                  3                         000000000000000                                     N                     00598  0000000        000052
12059659615000177DZ COMERCIO R E SERVICOS LTDA                                         000000003410000000000000000000000000000086699205000000900000268252            201209172012081500000000054590000060000000000000060000000000000000000000000000000000050000000000  3020120917   01FS        1                                                                                   3109000002680000314585100059                                                  N                     01321  0000000        000053
12059659615000177DZ COMERCIO R E SERVICOS LTDA                                         000000003410000000000000000000000000000086699206000000900000270251            201209032012081500000000054450000060000000000000060000000000000000000000000000000000050000000000  3020120903   01FS        1                                                                                   3109000002706000314585100019                                                  N                     01321  0000000        000054
12061217188000119TELAS METALICAS TELMETAL LTDA                                         0000000034100000000000000000000000000000851529100000009000028735291 3 3       201208152012070400000000054260000010719000000000010748000000000000000000000000000058050000000000  3020120816   06          3                                                                                   3109000028736077099894600019                                                  N                     01321  0000000        000055
12061217188000119TELAS METALICAS TELMETAL LTDA                                         0000000034100000000000000000000000000000851529130000009000028765292 3 3       201208152012070400000000054260000055682000000000055830000000000000000000000000000296050000000000  3020120816   06          3                                                                                   3109000028769077099894600059                                                  N                     01321  0000000        000056
12061217188000119TELAS METALICAS TELMETAL LTDA                                         0000000034100000000000000000000000000000851529160000009000028795293 3 3       201208152012070400000000054260000172173000000000172632000000000000000000000000000918050000000000  3020120816   06          3                                                                                   3109000028793077099894600019                                                  N                     01321  0000000        000057
12062944582000111AS SOLUCOES COMERCIAL LTDA                                            00000000001000000000000000000000000000008669920400000032054500016090 A        201209132012081700000000054550000027500000000000027500000000000000000000000000000000050000000000  3020120913   01FS        1                                                                                   3529483205451190000690001719                                                  N                     01321  0000000        000058
12066841552000130R V SEG PATRIMONIAL LTDA                                              00000000341000000000000000000000000000008515290700000090002172621726          201208102012071000000000054210000414206000000000415586000000000000000000000000001518050000000000  3020120820   06          3                                                                                   3109000217263001839407200039                                                  N                     01321  0000000        000059
12067647412000199ANCORA CHUMBADORES LTDA                                               000000003410000000000000000000000000000083392859000000214873077055988 2       201208192012062000000000054300000250000000000000250984000000000000000000000000000984050000000000  3020120821   01          2                                                                                   3112148730776013626917200069                                                  N                     01321  0000000        000060
12069284248000128ISOCOAT TINTAS E VERNIZES LTDA                                        0000000034100000000000000000000000000000819544890000002075795870050534        201208132012052900000000054240000133360000000000133360000000000000000000000000000000050000000000  3020120813   06          3                                                                                   3112075795875077430121200039                                                  N                     01321  0000000        000061
12069309706000136F N A TRANSPORTES LTDA                                                000000003410000000000000000000000000000085690648000000900010323058700         201208152012073100000000054260000110303000000000110303000000000000000000000000000000050000000000  3020120815   06          3                                                                                   3109000103232005486932600059                                                  N                     01321  0000000        000062
12071580302000124SANCHEPEL IND PAULISTA EMB L                                          0000000034100000000000000000000000000000846595660000002209164437224           201208122012071600000000054230000112700000000000112700000000000000000000000000000000050000000000  3020120813   06          3                                                                                   3112209164436007855578600039                                                  N                     01321  0000000        000063
12092693118000160BRADESCO SAUDE S A                                                    0000000023700448000000001533991 00000000847452120050100745572410000000000     201208202012071700000000054310000645861000000000646277000000000000000000000000000416050000000000  3020120821   01          2                                                                                   3                         000000000000000                                     N                     00598  0000000        000064
900006500000000017759904                                                                                                                                                                                                                                                                                                                                                                                                                                                                00598  0000000        000065
