0000147602043799295000110ALTAMIRA INDUSTRIA METALURGICA LT       202000000192220121022214904             3                                                                                                  000000000000000                                                                                                                                                                                                                                                                                   000001
12005827094000190ECCO DO BRASIL PROD INFORM LTD                                        0000000023703389800000000608572 I000000000010063025097002380338               201210200000000000000000054920000026463000000000026463000000000000000000000000000000050000000865  3120121022   02BW        5000000               000000000000000                                               3338925970023803380060857019               865                                N                     01079 10020256        000002
900000300000000000026463                                                                                                                                                                                    000000000000000                                                                                                                                                                                                                                                    00000100054920000026463        000003
