0000147602043799295000110ALTAMIRA INDUSTRIA METALURGICA LT       202000000019420121222060513             1                                                                                                                                                                                                                                                                                                                                                                                                    000001
12001895314000162COLETA INDUSTRIAL FIMAVAN LTDA                                        0000000034100000000000000000000000000000866992070000009002335349439           201208272012081700000000054380000123695000000000165320000000000000000000000000041625050000000000  3020121224   01          2                                                                                   3109002335346144604097200019                                                  N                     01321  0000000        000002
12003489596000123BEND FLEX I COMERCIO LTDA                                             000000003410000000000000000000000000000088350832000000171879874608            201209122012082100000000054540000695250000000000836051000000000000000000000000140801050000000000  3020121224   01          2                                                                                   3191718798744157734445800069                                                  N                     01321  0000000        000003
12003489596000123BEND FLEX I COMERCIO LTDA                                             000000003410000000000000000000000000000088599899000000171434574613            201209172012081600000000054590000585000000000000697798000000000000000000000000112798050000000000  3020121224   01          2                                                                                   3191714345748157734445800019                                                  N                     01321  0000000        000004
12005880850000145NEDERMAN BRASIL COM PROD EX LT                                        000000003410000000000000000000000000000086373178000000614350956002763 A       201209252012081400000000054670000289674000000000340974000000000000000000000000051300050000000000  3020121224   01          2                                                                                   3156143509568160829000100049                                                  N                     01321  0000000        000005
12006000195000156MBA MERCANTIL BRAS DE ACO LTDA                                        0000000034100000000000000000000000000000906662670000001671394410008920B03     201210142012071700000000054860000576584000000000657098000000000000000000000000080514050000000000  3020121224   01          2                                                                                   3191671394416064849251000039                                                  N                     01321  0000000        000006
12006000195000156MBA MERCANTIL BRAS DE ACO LTDA                                        0000000034100000000000000000000000000000885998980000001667238420008870B02     201209112012071600000000054530000839952000000001011760000000000000000000000000171808050000000000  3020121224   01          2                                                                                   3191667238429064849251000039                                                  N                     01321  0000000        000007
12006000195000156MBA MERCANTIL BRAS DE ACO LTDA                                        0000000034100000000000000000000000000000904173180000001671394430008926B03     201210122012071700000000054840000387716000000000443415000000000000000000000000055699050000000000  3020121224   01          2                                                                                   3191671394432064849251000079                                                  N                     01321  0000000        000008
12006000195000156MBA MERCANTIL BRAS DE ACO LTDA                                        0000000034100000000000000000000000000000887698090000001671394550008925B02     201209142012071700000000054560000719581000000000862496000000000000000000000000142915050000000000  3020121224   01          2                                                                                   3191671394556064849251000089                                                  N                     01321  0000000        000009
12006000195000156MBA MERCANTIL BRAS DE ACO LTDA                                        0000000034100000000000000000000000000000887698100000001671394560008926B02     201209142012071700000000054560000387716000000000464779000000000000000000000000077063050000000000  3020121224   01          2                                                                                   3191671394564064849251000019                                                  N                     01321  0000000        000010
12006000195000156MBA MERCANTIL BRAS DE ACO LTDA                                        0000000034100000000000000000000000000000889578520000001671394540008920B02     201209162012071700000000054580000576585000000000688851000000000000000000000000112266050000000000  3020121224   01          2                                                                                   3191671394549064849251000099                                                  N                     01321  0000000        000011
12006000195000156M B A MERCANTIL BRASILEIRA DE                                         0000000023700118P00000002130599 00000000919321910020231800000160010234B01     201212062012110800000000055390000996082000000001004382000000000000000000000000009960050000000000  3020121211   06          3  RUA JUNO  533                                                                    3                         000000000000000                                     N                     00598  0000000        000012
12006000195000156MBA MERCANTIL BRAS DE ACO LTDA                                        0000000034100000000000000000000000000000894344050000002451556740009737B01     201212082012092800000000055410000311139000000000311139000000000000000000000000000000050000000000  3020121210   05          3                                                                                   3112451556743064899001800019                                                  N                     01321  0000000        000013
12006000195000156MBA MERCANTIL BRAS DE ACO LTDA                                        0000000034100000000000000000000000000000894344070000002451556710009736B01     201212072012092800000000055400000409118000000000409118000000000000000000000000000000050000000000  3020121207   05          3                                                                                   3112451556719064899001800039                                                  N                     01321  0000000        000014
12006000195000156MBA MERCANTIL BRAS DE ACO LTDA                                        0000000034100000000000000000000000000000900522800000002479124010009784B01     201212072012100400000000055400000903144000000000903144000000000000000000000000000000050000000000  3020121207   05          3                                                                                   3112479124011064899001800079                                                  N                     01321  0000000        000015
12006000195000156M B A MERCANTIL BRASILEIRA DE                                         0000000023700118P00000002130599 00000000865388240020222900000450009203B03     201212122012081500000000055450000344980000000000351880000000000000000000000000006900050000000000  3020121224   01          2  RUA JUNO  533                                                                    300000000000000000001500  000000000000000                                     N                     00598  0000000        000016
12006000195000156M B A MERCANTIL BRASILEIRA DE                                         0000000023700118P00000002130599 00000000865388270020222900000480009204B03     201212132012081500000000055460000127291000000000129623000000000000000000000000002332050000000000  3020121224   01          2  RUA JUNO  533                                                                    300000000000000000001500  000000000000000                                     N                     00598  0000000        000017
12006000195000156M B A MERCANTIL BRASILEIRA DE                                         0000000023700118P00000002130599 00000000865388300020222900000510009205B03     201212142012081500000000055470000348964000000000354784000000000000000000000000005820050000000000  3020121224   01          2  RUA JUNO  533                                                                    300000000000000000001500  000000000000000                                     N                     00598  0000000        000018
12006000195000156M B A MERCANTIL BRASILEIRA DE                                         0000000023700118P00000002130599 00000000865388330020222900000540009206B03     201212152012081500000000055480000527560000000000535471000000000000000000000000007911050000000000  3020121224   01          2  RUA JUNO  533                                                                    300000000000000000001500  000000000000000                                     N                     00598  0000000        000019
12006000195000156M B A MERCANTIL BRASILEIRA DE                                         0000000023700118P00000002130599 00000000868592700020223600000030009229B03     201212132012081600000000055460000253414000000000258056000000000000000000000000004642050000000000  3020121224   01          2  RUA JUNO  533                                                                    300000000000000000001500  000000000000000                                     N                     00598  0000000        000020
12006066698000124NOVO REINO LOGISTICA E TRANSPO                                        000000000010000000000000000000000000000094495464000000020149000165930         201301092012122000000000055730000029850000000000029850000000000000000000000000000000050000000000  3020130109   01FS        1                                                                                   3044340201491584001800001139                                                  N                     01321  0000000        000021
12008272923000104P SANTOS ESQUADRARIAS METAL ME                                        0000000034100000000000000000000000000000915734100000006159682651954           201212052012110700000000055380000408138000000000436973000000000000000000000000028835050000000000  3020121224   01          2                                                                                   3156159682654160141951600029                                                  N                     01321  0000000        000022
12009338857000190FERNANDO  NAGAO  CARDONE  ALVA                                        000000000330000000000000000000000000000091653176000000300000000ALTA 11 2012   201211202012103000000000055230000134632000000000149714000000000000000000000000015082050000000000  3020121224   01          2                                                                                   3947901700000051051630010119                                                  N                     01321  0000000        000023
12012006058000121WEG TINTAS LTDA                                                       0000000023702727800000000001309 00000000882668430090225800000760016626903     201211272012091300000000055300000459992000000000476543000000000000000000000000016551050000000000  3020121224   01          2  R JUNO  533                                                                      3                         000000000000000                                     N                     00598  0000000        000024
12014978305000187MOGI FILME INDUSTRIA E COMERCI                                        0000000023700402200000001055003 0000000091471906009023110000010461         002201212212012110600000000055540000041975000000000041975000000000000000000000000000000050000000000  3020121221   06          3  RUA TAMAINDE 1410 VL NOVA MANCHESTER                                             3                         000000000000000                                     N                     00598  0000000        000025
12035820448000136WHITE MARTINS GASES INDUSTRIAI                                        0000000023700026400000003937925 0000000094495467009023560002103424970 001     201301172012122100000000055810000085208000000000085208000000000000000000000000000000050000000000  3020130117   01FS        1  RUA GANGES  528                                                                  3                         000000000000000                                     N                     00598  0000000        000026
12042956441000101SOLUCOES ACO USIMINAS                                                 0000000034100000000000000000000000000000853154840000002246247030017196702     201209202012072500000000054620000234841000000000279491000000000000000000000000044650050000000000  3020121224   01          2                                                                                   3112246247038293807258000099                                                  N                     01321  0000000        000027
12042956441000101SOLUCOES ACO USIMINAS                                                 0000000034100000000000000000000000000000853154850000002246247040017197302     201209202012072500000000054620000970103000000001154403000000000000000000000000184300050000000000  3020121224   01          2                                                                                   3112246247046293807258000019                                                  N                     01321  0000000        000028
12042956441000101SOLUCOES ACO USIMINAS                                                 0000000034100000000000000000000000000000855028690000002254329380017212902     201209212012072600000000054630000140098000000000166418000000000000000000000000026320050000000000  3020121224   01          2                                                                                   3112254329389293807258000019                                                  N                     01321  0000000        000029
12042956441000101SOLUCOES ACO USIMINAS                                                 0000000034100000000000000000000000000000855028700000002254329390017213002     201209212012072600000000054630000140602000000000167016000000000000000000000000026414050000000000  3020121224   01          2                                                                                   3112254329397293807258000089                                                  N                     01321  0000000        000030
12042956441000101SOLUCOES ACO USIMINAS                                                 0000000034100000000000000000000000000000855028770000002254329400017220502     201209212012072700000000054630000981022000000001165450000000000000000000000000184428050000000000  3020121224   01          2                                                                                   3112254329405293807258000099                                                  N                     01321  0000000        000031
12042956441000101SOLUCOES ACO USIMINAS                                                 0000000034100000000000000000000000000000856906410000002262886280017266201     201208282012073000000000054390000119472000000000147674000000000000000000000000028202050000000000  3020121224   01          2                                                                                   3112262886289293807258000089                                                  N                     01321  0000000        000032
12042956441000101SOLUCOES ACO USIMINAS                                                 0000000034100000000000000000000000000000856906420000002262886290017266301     201208282012073000000000054390000145069000000000179289000000000000000000000000034220050000000000  3020121224   01          2                                                                                   3112262886297293807258000099                                                  N                     01321  0000000        000033
12042956441000101SOLUCOES ACO USIMINAS                                                 0000000034100000000000000000000000000000859590620000002274469790017353702     201209282012080300000000054700000081053000000000095147000000000000000000000000014094050000000000  3020121224   01          2                                                                                   3112274469793293807258000069                                                  N                     01321  0000000        000034
12042956441000101SOLUCOES ACO USIMINAS                                                 0000000034100000000000000000000000000000846595700000002210880280016980502     201209102012071200000000054520000156071000000000188831000000000000000000000000032760050000000000  3020121224   01          2                                                                                   3112210880285293807258000039                                                  N                     01321  0000000        000035
12042956441000101SOLUCOES ACO USIMINAS                                                 0000000034100000000000000000000000000000846595710000002210880290016980602     201209102012071200000000054520000426094000000000515554000000000000000000000000089460050000000000  3020121224   01          2                                                                                   3112210880293293807258000019                                                  N                     01321  0000000        000036
12042956441000101SOLUCOES ACO USIMINAS                                                 0000000034100000000000000000000000000000847452070000002216130350005922202     201209102012071600000000054520000172071000000000208191000000000000000000000000036120050000000000  3020121224   01          2                                                                                   3112216130354293807258000049                                                  N                     01321  0000000        000037
12042956441000101SOLUCOES ACO USIMINAS                                                 0000000034100000000000000000000000000000847452100000002216130340017012402     201209102012071500000000054520000147428000000000178403000000000000000000000000030975050000000000  3020121224   01          2                                                                                   3112216130347293807258000059                                                  N                     01321  0000000        000038
12042956441000101SOLUCOES ACO USIMINAS                                                 0000000034100000000000000000000000000000848180700000002220192900017041002     201209112012071700000000054530000155433000000000187777000000000000000000000000032344050000000000  3020121224   01          2                                                                                   3112220192903293807258000029                                                  N                     01321  0000000        000039
12042956441000101SOLUCOES ACO USIMINAS                                                 0000000034100000000000000000000000000000848180710000002220192910017041202     201209112012071700000000054530000205421000000000248165000000000000000000000000042744050000000000  3020121224   01          2                                                                                   3112220192911293807258000019                                                  N                     01321  0000000        000040
12042956441000101SOLUCOES ACO USIMINAS                                                 0000000034100000000000000000000000000000850740470000002233586810017101002     201209142012071900000000054560000732575000000000880540000000000000000000000000147965050000000000  3020121224   01          2                                                                                   3112233586810293807258000019                                                  N                     01321  0000000        000041
12042956441000101SOLUCOES ACO USIMINAS                                                 0000000034100000000000000000000000000000850740480000002233586820017101202     201209142012071900000000054560000144634000000000173823000000000000000000000000029189050000000000  3020121224   01          2                                                                                   3112233586828293807258000029                                                  N                     01321  0000000        000042
12047190731000100DE CASTRO LOUR ENG IND LTDA                                           00000000341000000000000000000000000000008782051000000023399953703026612 0     201212182012082100000000055510001111822000000001124944000000000000000000000000013122050000000000  3020121224   01          2                                                                                   3112339995378036884500400049                                                  N                     01321  0000000        000043
12047190731000100DE CASTRO LOUR ENG IND LTDA                                           00000000341000000000000000000000000000008996247900000024766209203027184 0     201211302012100500000000055330001153047000000001207479000000000000000000000000054432050000000000  3020121224   01          2                                                                                   3112476620920036884500400089                                                  N                     01321  0000000        000044
12047190731000100DE CASTRO LOUR ENG IND LTDA                                           00000000341000000000000000000000000000008782051900000023399955803026636 0     201212192012082200000000055520000941086000000000950341000000000000000000000000009255050000000000  3020121224   01          2                                                                                   3112339995584036884500400069                                                  N                     01321  0000000        000045
12047190731000100DE CASTRO LOUR ENG IND LTDA                                           00000000341000000000000000000000000000008782052000000023399955303026632 0     201209192012082200000000054610000952073000000001131785000000000000000000000000179712050000000000  3020121224   01          2                                                                                   3112339995535036884500400019                                                  N                     01321  0000000        000046
12047190731000100DE CASTRO LOUR ENG IND LTDA                                           00000000341000000000000000000000000000008782052100000023399955903026643 0     201209202012082300000000054620000867039000000001029014000000000000000000000000161975050000000000  3020121224   01          2                                                                                   3112339995592036884500400049                                                  N                     01321  0000000        000047
12047190731000100DE CASTRO LOUR ENG IND LTDA                                           00000000341000000000000000000000000000008782052300000023399955503026632 0     201212192012082200000000055520000952358000000000961723000000000000000000000000009365050000000000  3020121224   01          2                                                                                   3112339995550036884500400039                                                  N                     01321  0000000        000048
12047190731000100DE CASTRO LOUR ENG IND LTDA                                           00000000341000000000000000000000000000008782052400000023399956003026643 0     201211222012082300000000055250000867039000000000921599000000000000000000000000054560050000000000  3020121224   01          2                                                                                   3112339995600036884500400069                                                  N                     01321  0000000        000049
12047190731000100DE CASTRO LOUR ENG IND LTDA                                           00000000341000000000000000000000000000008782052500000023399955603026636 0     201209192012082200000000054610000940804000000001118404000000000000000000000000177600050000000000  3020121224   01          2                                                                                   3112339995568036884500400049                                                  N                     01321  0000000        000050
12047190731000100DE CASTRO LOUR ENG IND LTDA                                           00000000341000000000000000000000000000008782052700000023399956203026648 0     201209202012082300000000054620000976053000000001158453000000000000000000000000182400050000000000  3020121224   01          2                                                                                   3112339995626036884500400029                                                  N                     01321  0000000        000051
12047190731000100DE CASTRO LOUR ENG IND LTDA                                           00000000341000000000000000000000000000008782051100000023399954303026614 0     201212182012082100000000055510001047933000000001060299000000000000000000000000012366050000000000  3020121224   01          2                                                                                   3112339995436036884500400029                                                  N                     01321  0000000        000052
12047190731000100DE CASTRO LOUR ENG IND LTDA                                           00000000341000000000000000000000000000008782051200000023399953803026613 0     201209182012082100000000054600001107989000000001319352000000000000000000000000211363050000000000  3020121224   01          2                                                                                   3112339995386036884500400039                                                  N                     01321  0000000        000053
12047190731000100DE CASTRO LOUR ENG IND LTDA                                           00000000341000000000000000000000000000008782051400000023399954003026613 0     201212182012082100000000055510001108322000000001121402000000000000000000000000013080050000000000  3020121224   01          2                                                                                   3112339995402036884500400069                                                  N                     01321  0000000        000054
12047190731000100DE CASTRO LOUR ENG IND LTDA                                           00000000341000000000000000000000000000008782051600000023399954103026614 0     201209182012082100000000054600001047621000000001247441000000000000000000000000199820050000000000  3020121224   01          2                                                                                   3112339995410036884500400039                                                  N                     01321  0000000        000055
12047190731000100DE CASTRO LOUR ENG IND LTDA                                           00000000341000000000000000000000000000008782059500000023602714703026734 0     201211272012082800000000055300000997834000000001050808000000000000000000000000052974050000000000  3020121224   01          2                                                                                   3112360271475036884500400019                                                  N                     01321  0000000        000056
12047190731000100DE CASTRO LOUR ENG IND LTDA                                           00000000341000000000000000000000000000008782059900000023602715003026744 0     201211292012082900000000055320000146594000000000153794000000000000000000000000007200050000000000  3020121224   01          2                                                                                   3112360271509036884500400069                                                  N                     01321  0000000        000057
12047190731000100DE CASTRO LOUR ENG IND LTDA                                           00000000341000000000000000000000000000009041732300000025008465203027256 0     201212112012101600000000055440001108602000000001136942000000000000000000000000028340050000000000  3020121224   01          2                                                                                   3112500846525036884500400019                                                  N                     01321  0000000        000058
12047190731000100DE CASTRO LOUR ENG IND LTDA                                           00000000341000000000000000000000000000009041732500000025008465503027257 0     201212132012101600000000055460000751900000000000768169000000000000000000000000016269050000000000  3020121224   01          2                                                                                   3112500846558036884500400029                                                  N                     01321  0000000        000059
12047190731000100DE CASTRO LOUR ENG IND LTDA                                           00000000341000000000000000000000000000008782051800000023399955703026636 0     201211212012082200000000055240000940804000000000996304000000000000000000000000057350050000000000  3020121221   06          3                                                                                   3112339995576036884500400019                                                  N                     01321  0000000        000060
12047190731000100DE CASTRO LOUREIRO ENGENHARIA                                         0000000023703394400000000205508 000000008801225700202255000001603026795 0     201212032012090300000000055360001207555000000001215607000000000000000000000000010065050000000000  3020121207   06          3  RUA JUNO  533                                                                    300000000000000000001500  000000000000000                                     N                     00598  0000000        000061
12047190731000100DE CASTRO LOUREIRO ENGENHARIA                                         0000000023703394400000000205508 000000008801225500202255000001403026794 0     201212312012090300000000055640001209490000000001209490000000000000000000000000002016050000000000  3020121231   01          2  RUA JUNO  533                                                                    300000000000000000141500  000000000000000                                     N                     00598  0000000        000062
12047190731000100DE CASTRO LOUR ENG IND LTDA                                           00000000341000000000000000000000000000008782059400000023602715303026745 0     201211282012082900000000055310000903175000000000949351000000000000000000000000046176050000000000  3020121224   01          2                                                                                   3112360271533036884500400039                                                  N                     01321  0000000        000063
12047190731000100DE CASTRO LOUR ENG IND LTDA                                           00000000341000000000000000000000000000008782050900000023399953503026612 0     201209182012082100000000054600001111489000000001323531000000000000000000000000212042050000000000  3020121224   01          2                                                                                   3112339995352036884500400019                                                  N                     01321  0000000        000064
12047190731000100DE CASTRO LOUR ENG IND LTDA                                           00000000341000000000000000000000000000009041732900000025008464603027216 0     201212052012101000000000055380000225377000000000233794000000000000000000000000008417050000000000  3020121224   01          2                                                                                   3112500846467036884500400029                                                  N                     01321  0000000        000065
12047190731000100DE CASTRO LOUR ENG IND LTDA                                           00000000341000000000000000000000000000009041733100000025008464903027234 0     201212062012101100000000055390001029597000000001066047000000000000000000000000036450050000000000  3020121224   01          2                                                                                   3112500846491036884500400029                                                  N                     01321  0000000        000066
12047190731000100DE CASTRO LOUR ENG IND LTDA                                           00000000341000000000000000000000000000008782052800000023399956303026648 0     201211222012082300000000055250000976053000000001037493000000000000000000000000061440050000000000  3020121224   01          2                                                                                   3112339995634036884500400019                                                  N                     01321  0000000        000067
12047190731000100DE CASTRO LOUR ENG IND LTDA                                           00000000341000000000000000000000000000008782052900000023399956403026648 0     201212202012082300000000055530000976344000000000984024000000000000000000000000007680050000000000  3020121224   01          2                                                                                   3112339995642036884500400059                                                  N                     01321  0000000        000068
12047190731000100DE CASTRO LOUR ENG IND LTDA                                           00000000341000000000000000000000000000008782053300000023399956103026643 0     201212202012082300000000055530000867297000000000874121000000000000000000000000006824050000000000  3020121224   01          2                                                                                   3112339995618036884500400059                                                  N                     01321  0000000        000069
12048775225000146SEIKI IND COM E CONFECCOES LTD                                        000000003410000000000000000000000000000089337376000000244697151014914001      201210232012092500000000054950000052000000000000056836000000000000000000000000004836050000000000  3020121224   01          2                                                                                   3112446971510017444824100089                                                  N                     01321  0000000        000070
12051180370000199IGUAFER FERRO E ACO LTDA                                              0000000034100000000000000000000000000000852309100000002239389789443 B         201209022012071800000000054440000168275000000000199915000000000000000000000000031640050000000000  3020121224   01          2                                                                                   3112239389789077149484600089                                                  N                     01321  0000000        000071
12051180370000199IGUAFER FERRO E ACO LTDA                                              0000000034100000000000000000000000000000852309110000002239389799443 C         201209122012071800000000054540000168275000000000197115000000000000000000000000028840050000000000  3020121224   01          2                                                                                   3112239389797077149484600089                                                  N                     01321  0000000        000072
12054382510000108SETENTA IND E COM DE MADEIRAS                                         0000000034100000000000000000000000000000860403430000002277814474462 A         201209042012080700000000054460000191200000000000232936000000000000000000000000041736050000000000  3020121224   01          2                                                                                   3112277814474057049175300069                                                  N                     01321  0000000        000073
12056993512000150CYKLOP DO BRASIL EMBALAGENS SA                                        0000000034100000000000000000000000000000874070500000002362586810134932        201210012012090300000000054730000083607000000000109395000000000000000000000000025788050000000000  3020121224   01          2                                                                                   3112362586813025700015800019                                                  N                     01321  0000000        000074
12059659615000177DZ COMERCIO R E SERVICOS LTDA                                         000000003410000000000000000000000000000094495465000000900000354307            201301032012121800000000055670000060000000000000060000000000000000000000000000000000050000000000  3020130103   01FS        1                                                                                   3109000003548000314585100079                                                  N                     01321  0000000        000075
12059659615000177DZ COMERCIO R E SERVICOS LTDA                                         000000003410000000000000000000000000000094495466000000900000355307            201301172012121800000000055810000060000000000000060000000000000000000000000000000000050000000000  3020130117   01FS        1                                                                                   3109000003555000314585100059                                                  N                     01321  0000000        000076
12062510367000102ITANHAEM TRANSP DE MAQUINAS LT                                        000000003410000000000000000000000000000087407049000000236463199667            201209202012090400000000054620000248220000000000342555000000000000000000000000094335050000000000  3020121224   01          2                                                                                   3112364631997005770252400049                                                  N                     01321  0000000        000077
12062539994000176LEALFER INDUSTRIA E COMERCIO D                                        0000000003300000000000000000000000000000910265800000000400000000005732502     201212202012102400000000055530000828586000000000834220000000000000000000000000005634050000000000  3020121224   01          2                                                                                   3915298380000000285404010479                                                  N                     01321  0000000        000078
12062539994000176LEALFER INDUSTRIA E COMERCIO D                                        0000000003300000000000000000000000000000893373830000000800000000005576003     201212202012092600000000055530000243236000000000244893000000000000000000000000001657050000000000  3020121224   01          2                                                                                   3915298380000000274208010419                                                  N                     01321  0000000        000079
12062539994000176LEALFER INDUSTRIA E COMERCIO D                                        0000000003300000000000000000000000000000893373840000001600000000005580303     201212202012092700000000055530000451213000000000454281000000000000000000000000003068050000000000  3020121224   01          2                                                                                   3915298380000000274216010419                                                  N                     01321  0000000        000080
12062539994000176LEALFER INDUSTRIA E COMERCIO D                                        0000000003300000000000000000000000000000893373850000002700000000005568403     201212192012092500000000055520000891184000000000898759000000000000000000000000007575050000000000  3020121224   01          2                                                                                   3915298380000000274127010419                                                  N                     01321  0000000        000081
12062539994000176LEALFER INDUSTRIA E COMERCIO D                                        0000000003300000000000000000000000000000893373880000005900000000005575003     201212202012092600000000055530000300979000000000303025000000000000000000000000002046050000000000  3020121224   01          2                                                                                   3915298380000000274259010429                                                  N                     01321  0000000        000082
12062539994000176LEALFER INDUSTRIA E COMERCIO D                                        0000000003300000000000000000000000000000893373990000001900000000005563003     201212192012092500000000055520000136948000000000138112000000000000000000000000001164050000000000  3020121224   01          2                                                                                   3915298380000000274119010469                                                  N                     01321  0000000        000083
12063076863000243CASARINI EQPTOS INDUSTRIAIS LT                                        0000000034100000000000000000000000000000944954610000002702439000003735        201301152012121800000000055790000151200000000000151200000000000000000000000000000000050000000000  3020130115   01FS        1                                                                                   3112702439004006550395500069                                                  N                     01321  0000000        000084
12064952757000168WALMAC COM DE PROD QUIMICOS LT                                        0000000034100000000000000000000000000000860403450000002275821700020148        201210052012080300000000054770000219267000000000253747000000000000000000000000034480050000000000  3020121224   01          2                                                                                   3112275821703064807961400029                                                  N                     01321  0000000        000085
12066841552000130R V SEG PATRIMONIAL LTDA                                              00000000341000000000000000000000000000008852483200000090002192721927          201209102012081000000000054520000483241000000000500146000000000000000000000000016905050000000000  3020121224   01          2                                                                                   3109000219270001835253400099                                                  N                     01321  0000000        000086
12069034668000156SODEXO PASS BRASIL SERV COM SA                                        0000000034100000000000000000000000000000944046670000009220365691200016452     201301172012121800000000055810000140300000000000140300000000000000000000000000000000050000000000  3020130117   06          3                                                                                   3109220365692293801455800099                                                  N                     01321  0000000        000087
12069034668000156SODEXO PASS BRASIL SERV COM SA                                        0000000034100000000000000000000000000000944046680000009220365431200016451     201301172012121800000000055810000379760000000000379760000000000000000000000000000000050000000000  3020130117   06          3                                                                                   3109220365437293801455800049                                                  N                     01321  0000000        000088
12069284248000128ISOCOAT TINTAS E VERNIZES LTDA                                        0000000034100000000000000000000000000000841061040000002182507930052085        201209172012070200000000054590000236130000000000297870000000000000000000000000061740050000000000  3020121224   01          2                                                                                   3112182507932077430121200019                                                  N                     01321  0000000        000089
12069284248000128ISOCOAT TINTAS E VERNIZES LTDA                                        0000000034100000000000000000000000000000944954600000002700899420059635        201302022012121900000000055970000365668000000000365668000000000000000000000000000000050000000000  3020130204   01FS        1                                                                                   3112700899423077430121200029                                                  N                     01321  0000000        000090
12069284248000128ISOCOAT TINTAS E VERNIZES LTDA                                        0000000034100000000000000000000000000000944954620000002700899440059635        201302172012121900000000056120000317968000000000317968000000000000000000000000000000050000000000  3020130218   01FS        1                                                                                   3112700899449077430121200079                                                  N                     01321  0000000        000091
12069284248000128ISOCOAT TINTAS E VERNIZES LTDA                                        0000000034100000000000000000000000000000944954630000002700899450059635        201303042012121900000000056270000318064000000000318064000000000000000000000000000000050000000000  3020130304   01FS        1                                                                                   3112700899456077430121200079                                                  N                     01321  0000000        000092
12081560047000101ACEVILLE TRANSPORTES LTDA                                             0000000023702232200000000013536 0000000093637250009022320297217    297217     201212212012121000000000055540000020600000000000020600000000000000000000000000000000050000000000  3020121221   06          3  RUA JUNO                                                                         3                         000000000000000                                     N                     00598  0000000        000093
12096500087000135WORKBENCH CONSULTORIA S S LTDA                                        0000000034100000000000000000000000000000944954680000007097980233279           201212272012122100000000055600000131746000000000131746000000000000000000000000000000050000000000  3020121227   01FS        1                                                                                   3157097980235826313803700039                                                  N                     01321  0000000        000094
900009500000000051943396                                                                                                                                                                                                                                                                                                                                                                                                                                                                01321  0000000        000095
