0000147602043799295000110ALTAMIRA INDUSTRIA METALURGICA LT       202000000017220121122060410             1                                                                                                                                                                                                                                                                                                                                                                                                    000001
12001895314000162COLETA INDUSTRIAL FIMAVAN LTDA                                        0000000034100000000000000000000000000000866992070000009002335349439           201208272012081700000000054380000123695000000000154792000000000000000000000000031097050000000000  3020121122   01          2                                                                                   3109002335346144604097200019                                                  N                     01321  0000000        000002
12003102481000134AB5 IND E COMERCIO LTDA EPP                                           0000000034100000000000000000000000000000909203330000009000042483169           201211202012102300000000055230000119250000000000119648000000000000000000000000000398050000000000  3020121122   01          2                                                                                   3109000042489003154755700039                                                  N                     01321  0000000        000003
12003489596000123BEND FLEX I COMERCIO LTDA                                             000000003410000000000000000000000000000088350832000000171879874608            201209122012082100000000054540000695250000000000792307000000000000000000000000097057050000000000  3020121122   01          2                                                                                   3191718798744157734445800069                                                  N                     01321  0000000        000004
12003489596000123BEND FLEX I COMERCIO LTDA                                             000000003410000000000000000000000000000088599899000000171434574613            201209172012081600000000054590000585000000000000660966000000000000000000000000075966050000000000  3020121122   01          2                                                                                   3191714345748157734445800019                                                  N                     01321  0000000        000005
12003489596000123BEND FLEX I COMERCIO LTDA                                             000000003410000000000000000000000000000091358505000000177374323637            201210292012092700000000055010000110000000000000115184000000000000000000000000005184050000000000  3020121122   01          2                                                                                   3191773743239157734445800019                                                  N                     01321  0000000        000006
12003489596000123BEND FLEX I COMERCIO LTDA                                             000000003410000000000000000000000000000092377943000000704803647653            201212192012112100000000055520000128000000000000128000000000000000000000000000000000050000000000  3020121219   01FS        1                                                                                   3157048036475157734445800019                                                  N                     01321  0000000        000007
12003498897000202TELECOMUNICACOES DE SAO PAULO                                         0000000023702372800000000360082 0000000092377941019066000957462V35020143      201212012012111900000000055340000321557000000000321557000000000000000000000000000000050000000000  3020121203   01FS        1  R GANGES 528                                                                     3                         000000000000000                                     N                     00598  0000000        000008
12003639662000102SCHUTTER DO BRASIL LTDA                                               0000000023700939300000000014001 0000000092377940009013500000427004006461      201212042012111900000000055370000067550000000000067550000000000000000000000000000000050000000000  3020121204   01FS        1                                                                                   3                         000000000000000                                     N                     00598  0000000        000009
12004882911000140F C BRITO CARTUCHOS ME                                                00000000033000000000000000000000000000009174140400000029000000014860 A21      201211212012102400000000055240000039945000000000040929000000000000000000000000000984050000000000  3020121122   01          2                                                                                   3944753720000000109029010119                                                  N                     01321  0000000        000010
12005880850000145NEDERMAN BRASIL COM PROD EX LT                                        000000003410000000000000000000000000000086373178000000614350956002763 A       201209252012081400000000054670000289674000000000322734000000000000000000000000033060050000000000  3020121122   01          2                                                                                   3156143509568160829000100049                                                  N                     01321  0000000        000011
12006000195000156MBA MERCANTIL BRAS DE ACO LTDA                                        0000000034100000000000000000000000000000904173150000001667238300008870B03     201210092012071600000000054810000839951000000000912639000000000000000000000000072688050000000000  3020121122   01          2                                                                                   3191667238304064849251000039                                                  N                     01321  0000000        000012
12006000195000156MBA MERCANTIL BRAS DE ACO LTDA                                        0000000034100000000000000000000000000000889578520000001671394540008920B02     201209162012071700000000054580000576585000000000652563000000000000000000000000075978050000000000  3020121122   01          2                                                                                   3191671394549064849251000099                                                  N                     01321  0000000        000013
12006000195000156MBA MERCANTIL BRAS DE ACO LTDA                                        0000000034100000000000000000000000000000904173140000001667238290008874B03     201210112012071600000000054830000802825000000000869143000000000000000000000000066318050000000000  3020121122   01          2                                                                                   3191667238296064849251000069                                                  N                     01321  0000000        000014
12006000195000156MBA MERCANTIL BRAS DE ACO LTDA                                        0000000034100000000000000000000000000000904173160000001667238280008876B03     201210122012071600000000054840000810320000000000875674000000000000000000000000065354050000000000  3020121122   01          2                                                                                   3191667238288064849251000079                                                  N                     01321  0000000        000015
12006000195000156MBA MERCANTIL BRAS DE ACO LTDA                                        0000000034100000000000000000000000000000904173170000001671394420008925B03     201210122012071700000000054840000719580000000000777595000000000000000000000000058015050000000000  3020121122   01          2                                                                                   3191671394424064849251000069                                                  N                     01321  0000000        000016
12006000195000156MBA MERCANTIL BRAS DE ACO LTDA                                        0000000034100000000000000000000000000000904173180000001671394430008926B03     201210122012071700000000054840000387716000000000418999000000000000000000000000031283050000000000  3020121122   01          2                                                                                   3191671394432064849251000079                                                  N                     01321  0000000        000017
12006000195000156MBA MERCANTIL BRAS DE ACO LTDA                                        0000000034100000000000000000000000000000906662670000001671394410008920B03     201210142012071700000000054860000576584000000000620810000000000000000000000000044226050000000000  3020121122   01          2                                                                                   3191671394416064849251000039                                                  N                     01321  0000000        000018
12006000195000156MBA MERCANTIL BRAS DE ACO LTDA                                        0000000034100000000000000000000000000000885998980000001667238420008870B02     201209112012071600000000054530000839952000000000958896000000000000000000000000118944050000000000  3020121122   01          2                                                                                   3191667238429064849251000039                                                  N                     01321  0000000        000019
12006000195000156MBA MERCANTIL BRAS DE ACO LTDA                                        0000000034100000000000000000000000000000887698090000001671394550008925B02     201209142012071700000000054560000719581000000000817216000000000000000000000000097635050000000000  3020121122   01          2                                                                                   3191671394556064849251000089                                                  N                     01321  0000000        000020
12006000195000156MBA MERCANTIL BRAS DE ACO LTDA                                        0000000034100000000000000000000000000000887698100000001671394560008926B02     201209142012071700000000054560000387716000000000440363000000000000000000000000052647050000000000  3020121122   01          2                                                                                   3191671394564064849251000019                                                  N                     01321  0000000        000021
12006000195000156M B A MERCANTIL BRASILEIRA DE                                         0000000023700118P00000002130599 00000000868592690020223600000020009229B02     201210112012081600000000054830000253414000000000271138000000000000000000000000017724050000000000  3020121122   01          2  RUA JUNO  533                                                                    3                         000000000000000                                     N                     00598  0000000        000022
12006000195000156M B A MERCANTIL BRASILEIRA DE                                         0000000023700118P00000002130599 00000000848180770020220100000340008905B03     201210112012071900000000054830000155300000000000166178000000000000000000000000010878050000000000  3020121122   01          2  RUA JUNO  533                                                                    3                         000000000000000                                     N                     00598  0000000        000023
12006000195000156M B A MERCANTIL BRASILEIRA DE                                         0000000023700118P00000002130599 00000000865388260020222900000470009204B02     201210112012081500000000054830000127292000000000136196000000000000000000000000008904050000000000  3020121122   01          2  RUA JUNO  533                                                                    3                         000000000000000                                     N                     00598  0000000        000024
12006000195000156M B A MERCANTIL BRASILEIRA DE                                         0000000023700118P00000002130599 00000000865388290020222900000500009205B02     201210122012081500000000054840000348964000000000372826000000000000000000000000023862050000000000  3020121122   01          2  RUA JUNO  533                                                                    3                         000000000000000                                     N                     00598  0000000        000025
12006000195000156M B A MERCANTIL BRASILEIRA DE                                         0000000023700118P00000002130599 00000000865388320020222900000530009206B02     201210132012081500000000054850000527560000000000562720000000000000000000000000035160050000000000  3020121122   01          2  RUA JUNO  533                                                                    3                         000000000000000                                     N                     00598  0000000        000026
12008879248000186FREFER METAL PLUS                                                     000000003410000000000000000000000000000090751878000000251738778EPI024022A     201211202012102300000000055230000998338000000001000934000000000000000000000000002596050000000000  3020121122   01          2                                                                                   3112517387786293811346700099                                                  N                     01321  0000000        000027
12009007898000102ARTERINOX COM D TELAS METALICA                                        0000000023702741300000000246700 00000000923779420090112319016644177           201212142012111400000000055470000033540000000000033540000000000000000000000000000000050000000000  3020121214   01FS        1  RUA TAMAINDE 1410                                                                3                         000000000000000                                     N                     00598  0000000        000028
12009338857000190FERNANDO  NAGAO  CARDONE  ALVA                                        000000000330000000000000000000000000000091653176000000300000000ALTA 11 2012   201211202012103000000000055230000134632000000000136786000000000000000000000000002154050000000000  3020121122   01          2                                                                                   3947901700000051051630010119                                                  N                     01321  0000000        000029
12009338857000190FERNANDO  NAGAO  CARDONE  ALVA                                        000000000330000000000000000000000000000089697936000000800000000ALTA 10 2012   201210202012092500000000054920000134632000000000149310000000000000000000000000014678050000000000  3020121122   01          2                                                                                   3947901700000051050080010129                                                  N                     01321  0000000        000030
12012006058000121WEG TINTAS LTDA                                                       0000000023702727800000000001309 00000000868126360090223500001190016086603     201211042012082100000000055070000306662000000000314006000000000000000000000000007344050000000000  3020121122   01          2  R JUNO  533                                                                      3                         000000000000000                                     N                     00598  0000000        000031
12012006058000121WEG TINTAS LTDA                                                       0000000023702727800000000001309 00000000878206050090225400000790016517202     201211052012090600000000055080000459854000000000470275000000000000000000000000010421050000000000  3020121122   01          2  R JUNO  533                                                                      3                         000000000000000                                     N                     00598  0000000        000032
12012006058000121WEG TINTAS LTDA                                                       0000000023702727800000000001309 00000000882668410090225800000740016626901     201210282012091300000000055000000459854000000000475179000000000000000000000000015325050000000000  3020121122   01          2  R JUNO  533                                                                      3                         000000000000000                                     N                     00598  0000000        000033
12012006058000121WEG TINTAS LTDA                                                       0000000023702727800000000001309 00000000864554460090222800000750015908403     201210282012081400000000055000000306662000000000316862000000000000000000000000010200050000000000  3020121122   01          2  R JUNO  533                                                                      3                         000000000000000                                     N                     00598  0000000        000034
12012006058000121WEG TINTAS LTDA                                                       0000000023702727800000000001309 00000000882668420090225800000750016626902     201211122012091300000000055150000459854000000000465984000000000000000000000000006130050000000000  3020121122   01          2  R JUNO  533                                                                      3                         000000000000000                                     N                     00598  0000000        000035
12012006058000121WEG TINTAS LTDA                                                       0000000023702727800000000001309 00000000870177490090224100000980016248002     201210262012082700000000054980000306569000000000317585000000000000000000000000011016050000000000  3020121122   01          2  R JUNO  533                                                                      3                         000000000000000                                     N                     00598  0000000        000036
12012006058000121WEG TINTAS LTDA                                                       0000000023702727800000000001309 00000000870177500090224100000990016248003     201211102012082700000000055130000306662000000000311558000000000000000000000000004896050000000000  3020121122   01          2  R JUNO  533                                                                      3                         000000000000000                                     N                     00598  0000000        000037
12012006058000121WEG TINTAS LTDA                                                       0000000023702727800000000001309 00000000872318660090224700001040016359602     201210302012083100000000055020000459854000000000473953000000000000000000000000014099050000000000  3020121122   01          2  R JUNO  533                                                                      3                         000000000000000                                     N                     00598  0000000        000038
12012006058000121WEG TINTAS LTDA                                                       0000000023702727800000000001309 00000000872318670090224700001050016359603     201211142012083100000000055170000459992000000000464896000000000000000000000000004904050000000000  3020121122   01          2  R JUNO  533                                                                      3                         000000000000000                                     N                     00598  0000000        000039
12012006058000121WEG TINTAS LTDA                                                       0000000023702727800000000001309 00000000878206060090225400000800016517203     201211202012090600000000055230000459992000000000461218000000000000000000000000001226050000000000  3020121122   01          2  R JUNO  533                                                                      3                         000000000000000                                     N                     00598  0000000        000040
12033325184001786ALSCO TOALHEIRO BRASIL                                                0000000023703396000000001490850 0000000091741401009000002787905VM27879        201211212012110100000000055240000037363000000000037400000000000000000000000000000037050000000000  3020121122   01          2  RUA  GANGES 528                                                                  3                         000000000000000                                     N                     00598  0000000        000041
12033325184001786ALSCO TOALHEIRO BRASIL                                                0000000023703396000000001490850 0000000092377944009000002804405VM28044        201212062012111600000000055390000027676000000000027676000000000000000000000000000000050000000000  3020121206   01FS        1  RUA  GANGES 528                                                                  3                         000000000000000                                     N                     00598  0000000        000042
12042956441000101SOLUCOES ACO USIMINAS                                                 0000000034100000000000000000000000000000856906410000002262886280017266201     201208282012073000000000054390000119472000000000140026000000000000000000000000020554050000000000  3020121122   01          2                                                                                   3112262886289293807258000089                                                  N                     01321  0000000        000043
12042956441000101SOLUCOES ACO USIMINAS                                                 0000000034100000000000000000000000000000856906420000002262886290017266301     201208282012073000000000054390000145069000000000170009000000000000000000000000024940050000000000  3020121122   01          2                                                                                   3112262886297293807258000099                                                  N                     01321  0000000        000044
12042956441000101SOLUCOES ACO USIMINAS                                                 0000000034100000000000000000000000000000859590620000002274469790017353702     201209282012080300000000054700000081053000000000089963000000000000000000000000008910050000000000  3020121122   01          2                                                                                   3112274469793293807258000069                                                  N                     01321  0000000        000045
12042956441000101SOLUCOES ACO USIMINAS                                                 0000000034100000000000000000000000000000848180700000002220192900017041002     201209112012071700000000054530000155433000000000177825000000000000000000000000022392050000000000  3020121122   01          2                                                                                   3112220192903293807258000029                                                  N                     01321  0000000        000046
12042956441000101SOLUCOES ACO USIMINAS                                                 0000000034100000000000000000000000000000848180710000002220192910017041202     201209112012071700000000054530000205421000000000235013000000000000000000000000029592050000000000  3020121122   01          2                                                                                   3112220192911293807258000019                                                  N                     01321  0000000        000047
12042956441000101SOLUCOES ACO USIMINAS                                                 0000000034100000000000000000000000000000853154840000002246247030017196702     201209202012072500000000054620000234841000000000264451000000000000000000000000029610050000000000  3020121122   01          2                                                                                   3112246247038293807258000099                                                  N                     01321  0000000        000048
12042956441000101SOLUCOES ACO USIMINAS                                                 0000000034100000000000000000000000000000853154850000002246247040017197302     201209202012072500000000054620000970103000000001092323000000000000000000000000122220050000000000  3020121122   01          2                                                                                   3112246247046293807258000019                                                  N                     01321  0000000        000049
12042956441000101SOLUCOES ACO USIMINAS                                                 0000000034100000000000000000000000000000853154860000002246247050017196603     201211192012072500000000055220000804807000000000809637000000000000000000000000004830050000000000  3020121122   01          2                                                                                   3112246247053293807258000059                                                  N                     01321  0000000        000050
12042956441000101SOLUCOES ACO USIMINAS                                                 0000000034100000000000000000000000000000853154870000002246247060017196703     201211192012072500000000055220000234840000000000236250000000000000000000000000001410050000000000  3020121122   01          2                                                                                   3112246247061293807258000019                                                  N                     01321  0000000        000051
12042956441000101SOLUCOES ACO USIMINAS                                                 0000000034100000000000000000000000000000853154880000002246247070017197303     201211192012072500000000055220000970103000000000975923000000000000000000000000005820050000000000  3020121122   01          2                                                                                   3112246247079293807258000059                                                  N                     01321  0000000        000052
12042956441000101SOLUCOES ACO USIMINAS                                                 0000000034100000000000000000000000000000855028690000002254329380017212902     201209212012072600000000054630000140098000000000157458000000000000000000000000017360050000000000  3020121122   01          2                                                                                   3112254329389293807258000019                                                  N                     01321  0000000        000053
12042956441000101SOLUCOES ACO USIMINAS                                                 0000000034100000000000000000000000000000855028700000002254329390017213002     201209212012072600000000054630000140602000000000158024000000000000000000000000017422050000000000  3020121122   01          2                                                                                   3112254329397293807258000089                                                  N                     01321  0000000        000054
12042956441000101SOLUCOES ACO USIMINAS                                                 0000000034100000000000000000000000000000855028740000002254329450017212903     201211192012072600000000055220000140098000000000140938000000000000000000000000000840050000000000  3020121122   01          2                                                                                   3112254329454293807258000069                                                  N                     01321  0000000        000055
12042956441000101SOLUCOES ACO USIMINAS                                                 0000000034100000000000000000000000000000855028750000002254329460017213003     201211192012072600000000055220000140602000000000141445000000000000000000000000000843050000000000  3020121122   01          2                                                                                   3112254329462293807258000039                                                  N                     01321  0000000        000056
12042956441000101SOLUCOES ACO USIMINAS                                                 0000000034100000000000000000000000000000855028760000002254329470017220503     201211192012072700000000055220000981022000000000986908000000000000000000000000005886050000000000  3020121122   01          2                                                                                   3112254329470293807258000019                                                  N                     01321  0000000        000057
12042956441000101SOLUCOES ACO USIMINAS                                                 0000000034100000000000000000000000000000855028770000002254329400017220502     201209212012072700000000054630000981022000000001102666000000000000000000000000121644050000000000  3020121122   01          2                                                                                   3112254329405293807258000099                                                  N                     01321  0000000        000058
12042956441000101SOLUCOES ACO USIMINAS                                                 0000000034100000000000000000000000000000855028780000002254329410017200203     201211192012072600000000055220000680385000000000684468000000000000000000000000004083050000000000  3020121122   01          2                                                                                   3112254329413293807258000089                                                  N                     01321  0000000        000059
12042956441000101SOLUCOES ACO USIMINAS                                                 0000000034100000000000000000000000000000855028790000002254329420017200303     201211192012072600000000055220000156897000000000157839000000000000000000000000000942050000000000  3020121122   01          2                                                                                   3112254329421293807258000049                                                  N                     01321  0000000        000060
12042956441000101SOLUCOES ACO USIMINAS                                                 0000000034100000000000000000000000000000850740460000002233586800017127201     201208202012072000000000054310000137881000000000163825000000000000000000000000025944050000000000  3020121122   01          2                                                                                   3112233586802293807258000019                                                  N                     01321  0000000        000061
12042956441000101SOLUCOES ACO USIMINAS                                                 0000000034100000000000000000000000000000850740470000002233586810017101002     201209142012071900000000054560000732575000000000833660000000000000000000000000101085050000000000  3020121122   01          2                                                                                   3112233586810293807258000019                                                  N                     01321  0000000        000062
12042956441000101SOLUCOES ACO USIMINAS                                                 0000000034100000000000000000000000000000850740480000002233586820017101202     201209142012071900000000054560000144634000000000164575000000000000000000000000019941050000000000  3020121122   01          2                                                                                   3112233586828293807258000029                                                  N                     01321  0000000        000063
12042956441000101SOLUCOES ACO USIMINAS                                                 0000000034100000000000000000000000000000846595710000002210880290016980602     201209102012071200000000054520000426094000000000488290000000000000000000000000062196050000000000  3020121122   01          2                                                                                   3112210880293293807258000019                                                  N                     01321  0000000        000064
12042956441000101SOLUCOES ACO USIMINAS                                                 0000000034100000000000000000000000000000847452070000002216130350005922202     201209102012071600000000054520000172071000000000197183000000000000000000000000025112050000000000  3020121122   01          2                                                                                   3112216130354293807258000049                                                  N                     01321  0000000        000065
12042956441000101SOLUCOES ACO USIMINAS                                                 0000000034100000000000000000000000000000847452100000002216130340017012402     201209102012071500000000054520000147428000000000168963000000000000000000000000021535050000000000  3020121122   01          2                                                                                   3112216130347293807258000059                                                  N                     01321  0000000        000066
12042956441000101SOLUCOES ACO USIMINAS                                                 0000000034100000000000000000000000000000846595700000002210880280016980502     201209102012071200000000054520000156071000000000178847000000000000000000000000022776050000000000  3020121122   01          2                                                                                   3112210880285293807258000039                                                  N                     01321  0000000        000067
12042956441000101SOLUCOES ACO USIMINAS                                                 0000000034100000000000000000000000000000855028800000002254329430017200403     201211192012072600000000055220000163223000000000164201000000000000000000000000000978050000000000  3020121122   01          2                                                                                   3112254329439293807258000019                                                  N                     01321  0000000        000068
12042956441000101SOLUCOES ACO USIMINAS                                                 0000000034100000000000000000000000000000855028810000002254329440017202403     201211192012072600000000055220000244137000000000245601000000000000000000000000001464050000000000  3020121122   01          2                                                                                   3112254329447293807258000059                                                  N                     01321  0000000        000069
12045635984000115CRIFER LAMINADOS ACO FERRO LTD                                        0000000034100000000000000000000000000000909203340000009000268640035771E01     201211212012102400000000055240000454608000000000455517000000000000000000000000000909050000000000  3020121122   01          2                                                                                   3109000268640005630080900099                                                  N                     01321  0000000        000070
12045987005000198D PASCHOAL AUTOMOTIVA LTDA                                            0000000023702002800000000147001 00000000886866610110000000171660000000036     201211192012091900000000055220000032500000000000033276000000000000000000000000000776050000000000  3020121122   01          2  R   TAMAINDE                       01410                                         3                         000000000000000                                     N                     00598  0000000        000071
12047190731000100DE CASTRO LOUR ENG IND LTDA                                           00000000341000000000000000000000000000008782051300000023399953903026613 0     201211202012082100000000055230001107989000000001112347000000000000000000000000004358050000000000  3020121122   01          2                                                                                   3112339995394036884500400019                                                  N                     01321  0000000        000072
12047190731000100DE CASTRO LOUR ENG IND LTDA                                           00000000341000000000000000000000000000008782050900000023399953503026612 0     201209182012082100000000054600001111489000000001253579000000000000000000000000142090050000000000  3020121122   01          2                                                                                   3112339995352036884500400019                                                  N                     01321  0000000        000073
12047190731000100DE CASTRO LOUR ENG IND LTDA                                           00000000341000000000000000000000000000008782051200000023399953803026613 0     201209182012082100000000054600001107989000000001249624000000000000000000000000141635050000000000  3020121122   01          2                                                                                   3112339995386036884500400039                                                  N                     01321  0000000        000074
12047190731000100DE CASTRO LOUR ENG IND LTDA                                           00000000341000000000000000000000000000008782051600000023399954103026614 0     201209182012082100000000054600001047621000000001181521000000000000000000000000133900050000000000  3020121122   01          2                                                                                   3112339995410036884500400039                                                  N                     01321  0000000        000075
12047190731000100DE CASTRO LOUR ENG IND LTDA                                           00000000341000000000000000000000000000008782051800000023399955703026636 0     201211212012082200000000055240000940804000000000942654000000000000000000000000001850050000000000  3020121122   01          2                                                                                   3112339995576036884500400019                                                  N                     01321  0000000        000076
12047190731000100DE CASTRO LOUR ENG IND LTDA                                           00000000341000000000000000000000000000008782052000000023399955303026632 0     201209192012082200000000054610000952073000000001071881000000000000000000000000119808050000000000  3020121122   01          2                                                                                   3112339995535036884500400019                                                  N                     01321  0000000        000077
12047190731000100DE CASTRO LOUR ENG IND LTDA                                           00000000341000000000000000000000000000008782052100000023399955903026643 0     201209202012082300000000054620000867039000000000974454000000000000000000000000107415050000000000  3020121122   01          2                                                                                   3112339995592036884500400049                                                  N                     01321  0000000        000078
12047190731000100DE CASTRO LOUR ENG IND LTDA                                           00000000341000000000000000000000000000008782052200000023399955403026632 0     201211212012082200000000055240000952073000000000953945000000000000000000000000001872050000000000  3020121122   01          2                                                                                   3112339995543036884500400099                                                  N                     01321  0000000        000079
12047190731000100DE CASTRO LOUR ENG IND LTDA                                           00000000341000000000000000000000000000008782052500000023399955603026636 0     201209192012082200000000054610000940804000000001059204000000000000000000000000118400050000000000  3020121122   01          2                                                                                   3112339995568036884500400049                                                  N                     01321  0000000        000080
12047190731000100DE CASTRO LOUR ENG IND LTDA                                           00000000341000000000000000000000000000008782052700000023399956203026648 0     201209202012082300000000054620000976053000000001097013000000000000000000000000120960050000000000  3020121122   01          2                                                                                   3112339995626036884500400029                                                  N                     01321  0000000        000081
12047190731000100DE CASTRO LOUR ENG IND LTDA                                           00000000341000000000000000000000000000008782051500000023399953603026612 0     201211202012082100000000055230001111489000000001115861000000000000000000000000004372050000000000  3020121122   01          2                                                                                   3112339995360036884500400079                                                  N                     01321  0000000        000082
12047190731000100DE CASTRO LOUR ENG IND LTDA                                           00000000341000000000000000000000000000008782051700000023399954203026614 0     201211202012082100000000055230001047621000000001051741000000000000000000000000004120050000000000  3020121122   01          2                                                                                   3112339995428036884500400079                                                  N                     01321  0000000        000083
12047190731000100DE CASTRO LOUREIRO ENGENHARIA                                         00000000033000000000000000000000000000009102659100000036000000003027349 0     201211212012102400000000055240000841841000000000858678000000000000000000000000016837050000000000  3020121122   01          2                                                                                   3948430370000009555536020379                                                  N                     01321  0000000        000084
12048775225000146SEIKI IND COM E CONFECCOES LTD                                        000000003410000000000000000000000000000089337376000000244697151014914001      201210232012092500000000054950000052000000000000054340000000000000000000000000002340050000000000  3020121122   01          2                                                                                   3112446971510017444824100089                                                  N                     01321  0000000        000085
12051180370000199IGUAFER FERRO E ACO LTDA                                              0000000034100000000000000000000000000000852309100000002239389789443 B         201209022012071800000000054440000168275000000000190955000000000000000000000000022680050000000000  3020121122   01          2                                                                                   3112239389789077149484600089                                                  N                     01321  0000000        000086
12051180370000199IGUAFER FERRO E ACO LTDA                                              0000000034100000000000000000000000000000852309110000002239389799443 C         201209122012071800000000054540000168275000000000188155000000000000000000000000019880050000000000  3020121122   01          2                                                                                   3112239389797077149484600089                                                  N                     01321  0000000        000087
12053585766000141MULTIACOS I C PRODS TEC LTDA                                          0000000042200000000000000000000000000000895189630000000000000000004699202     201211152012100200000000055180000519251000000000525305000000000000000000000000006054050000000000  3020121122   01          2                                                                                   3711500005033164927762064149                                                  N                     01321  0000000        000088
12053585766000141MULTIACOS I C PRODS TEC LTDA                                          0000000042200000000000000000000000000000883508220000000000000000004674503     201211202012091300000000055230000274012000000000274925000000000000000000000000000913050000000000  3020121122   01          2                                                                                   3711500005033164921116497199                                                  N                     01321  0000000        000089
12053585766000141MULTIACOS I C PRODS TEC LTDA                                          0000000042200000000000000000000000000000890456940000000000000000004724402     201211162012092500000000055190000522661000000000527886000000000000000000000000005225050000000000  3020121122   01          2                                                                                   3711500005033164925775193119                                                  N                     01321  0000000        000090
12053585766000141MULTIACOS I C PRODS TEC LTDA                                          0000000042200000000000000000000000000000890456980000000000000000004724302     201211162012092500000000055190000268274000000000270955000000000000000000000000002681050000000000  3020121122   01          2                                                                                   3711500005033164925775169159                                                  N                     01321  0000000        000091
12053585766000141MULTIACOS I C PRODS TEC LTDA                                          0000000042200000000000000000000000000000883508240000000000000000004674603     201211202012091300000000055230000126819000000000127240000000000000000000000000000421050000000000  3020121122   01          2                                                                                   3711500005033164921116462169                                                  N                     01321  0000000        000092
12053585766000141MULTIACOS I C PRODS TEC LTDA                                          0000000042200000000000000000000000000000890456920000000000000000004724102     201211202012092500000000055230000127900000000000128325000000000000000000000000000425050000000000  3020121122   01          2                                                                                   3711500005033164925775134149                                                  N                     01321  0000000        000093
12053585766000141MULTIACOS I C PRODS TEC LTDA                                          0000000042200000000000000000000000000000895189340000000000000000004737202     201211202012100200000000055230000362578000000000363785000000000000000000000000001207050000000000  3020121122   01          2                                                                                   3711500005033164927761785169                                                  N                     01321  0000000        000094
12053585766000141MULTIACOS I C PRODS TEC LTDA                                          0000000042200000000000000000000000000000895189800000000000000000004674403     201211202012100200000000055230000385696000000000386981000000000000000000000000001285050000000000  3020121122   01          2                                                                                   3711500005033164927762234199                                                  N                     01321  0000000        000095
12054382510000108SETENTA IND E COM DE MADEIRAS                                         0000000034100000000000000000000000000000860403430000002277814474462 A         201209042012080700000000054460000191200000000000220904000000000000000000000000029704050000000000  3020121122   01          2                                                                                   3112277814474057049175300069                                                  N                     01321  0000000        000096
12056993512000150CYKLOP DO BRASIL EMBALAGENS SA                                        0000000034100000000000000000000000000000874070500000002362586810134932        201210012012090300000000054730000083607000000000099571000000000000000000000000015964050000000000  3020121122   01          2                                                                                   3112362586813025700015800019                                                  N                     01321  0000000        000097
12058805466000144PEFIL COMERCIAL LTDA                                                  0000000023700086800000000014001 000000009114101200901323050356523350 01       201211192012103100000000055220000036000000000000036180000000000000000000000000000180050000000000  3020121122   01          2  R GANGES  528                                                                    3                         000000000000000                                     N                     00598  0000000        000098
12059659615000177DZ COMERCIO R E SERVICOS LTDA                                         000000003410000000000000000000000000000091358507000000900000321280            201211172012102400000000055200000060000000000000060600000000000000000000000000000600050000000000  3020121122   01          2                                                                                   3109000003217000314585100039                                                  N                     01321  0000000        000099
12061217188000119TELAS METALICAS TELMETAL LTDA                                         0000000003300000000000000000000000000000923779530000002600000005977 1 3       201212192012112100000000055520000011839000000000011839000000000000000000000000000000050000000000  3020121219   01FS        1                                                                                   3915435040000000048526020159                                                  N                     01321  0000000        000100
12061217188000119TELAS METALICAS TELMETAL LTDA                                         0000000003300000000000000000000000000000923779500000003400000005977 2 3       201212262012112100000000055590000011837000000000011837000000000000000000000000000000050000000000  3020121226   01FS        1                                                                                   3915435040000000048534020139                                                  N                     01321  0000000        000101
12061217188000119TELAS METALICAS TELMETAL LTDA                                         0000000003300000000000000000000000000000923779510000004200000005977 3 3       201301022012112100000000055660000011837000000000011837000000000000000000000000000000050000000000  3020130102   01FS        1                                                                                   3915435040000000048542020169                                                  N                     01321  0000000        000102
12061683652000162TRANS FACE TRANSPORTES LTDA                                           0000000023700530400000000141828 0000000091358502009000000110375I000085343     201211202012110500000000055230000081000000000000081438000000000000000000000000000438050000000000  3020121122   01          2  R JUNO 553                                                                       3                         000000000000000                                     N                     00598  0000000        000103
12062510367000102ITANHAEM TRANSP DE MAQUINAS LT                                        000000003410000000000000000000000000000087407049000000236463199667            201209202012090400000000054620000248220000000000310779000000000000000000000000062559050000000000  3020121122   01          2                                                                                   3112364631997005770252400049                                                  N                     01321  0000000        000104
12062539994000176LEALFER INDUSTRIA E COMERCIO D                                        0000000003300000000000000000000000000000893373920000007800000000005563002     201211212012092500000000055240000136948000000000137180000000000000000000000000000232050000000000  3020121122   01          2                                                                                   3915298380000000272078010449                                                  N                     01321  0000000        000105
12062539994000176LEALFER INDUSTRIA E COMERCIO D                                        0000000003300000000000000000000000000000893373980000003500000000005568402     201211212012092500000000055240000891184000000000892699000000000000000000000000001515050000000000  3020121122   01          2                                                                                   3915298380000000272035010479                                                  N                     01321  0000000        000106
12062539994000176LEALFER INDUSTRIA E COMERCIO D                                        0000000003300000000000000000000000000000923779520000003000000000005828803     201302052012111200000000056000001204729000000001204729000000000000000000000000000000050000000000  3020130205   01FS        1                                                                                   3915298380000000299430010449                                                  N                     01321  0000000        000107
12062539994000176LEALFER INDUSTRIA E COMERCIO D                                        0000000003300000000000000000000000000000923779450000005600000000005829002     201301182012111200000000055820000875880000000000875880000000000000000000000000000000050000000000  3020130118   01FS        1                                                                                   3915298380000000298956010479                                                  N                     01321  0000000        000108
12062539994000176LEALFER INDUSTRIA E COMERCIO D                                        0000000003300000000000000000000000000000923779460000007200000000005828802     201301182012111200000000055820001204729000000001204729000000000000000000000000000000050000000000  3020130118   01FS        1                                                                                   3915298380000000298972010439                                                  N                     01321  0000000        000109
12062539994000176LEALFER INDUSTRIA E COMERCIO D                                        0000000003300000000000000000000000000000923779470000002000000000005828801     201212212012111200000000055540001204731000000001204731000000000000000000000000000000050000000000  3020121221   01FS        1                                                                                   3915298380000000296520010479                                                  N                     01321  0000000        000110
12062539994000176LEALFER INDUSTRIA E COMERCIO D                                        0000000003300000000000000000000000000000923779480000002100000000005829003     201302052012111200000000056000000875880000000000875880000000000000000000000000000000050000000000  3020130205   01FS        1                                                                                   3915298380000000299421010489                                                  N                     01321  0000000        000111
12062539994000176LEALFER INDUSTRIA E COMERCIO D                                        0000000003300000000000000000000000000000923779490000003800000000005829001     201212212012111200000000055540000875881000000000875881000000000000000000000000000000050000000000  3020121221   01FS        1                                                                                   3915298380000000296538010499                                                  N                     01321  0000000        000112
12062539994000176LEALFER INDUSTRIA E COMERCIO D                                        0000000003300000000000000000000000000000884432780000008400000000005502002     201211092012091300000000055120000839516000000000846651000000000000000000000000008562050000000000  3020121114   05          3                                                                                   3915298380000000264784010469                                                  N                     01321  0000000        000113
12064952757000168WALMAC COM DE PROD QUIMICOS LT                                        0000000034100000000000000000000000000000896979500000002462157550021611        201211012012100400000000055040000219267000000000228318000000000000000000000000009051050000000000  3020121122   01          2                                                                                   3112462157556064807961400019                                                  N                     01321  0000000        000114
12064952757000168WALMAC COM DE PROD QUIMICOS LT                                        0000000034100000000000000000000000000000860403440000002275821690020148        201210262012080300000000054980000219266000000000230903000000000000000000000000011637050000000000  3020121122   01          2                                                                                   3112275821695064807961400019                                                  N                     01321  0000000        000115
12064952757000168WALMAC COM DE PROD QUIMICOS LT                                        0000000034100000000000000000000000000000860403450000002275821700020148        201210052012080300000000054770000219267000000000239955000000000000000000000000020688050000000000  3020121122   01          2                                                                                   3112275821703064807961400029                                                  N                     01321  0000000        000116
12066841552000130R V SEG PATRIMONIAL LTDA                                              00000000341000000000000000000000000000008852483200000090002192721927          201209102012081000000000054520000483241000000000494994000000000000000000000000011753050000000000  3020121122   01          2                                                                                   3109000219270001835253400099                                                  N                     01321  0000000        000117
12066841552000130R V SEG PATRIMONIAL S C LTDA                                          00000000341000000000000000000000000000008887329800000090002213622136          201210102012091100000000054820000374758000000000380133000000000000000000000000005375050000000000  3020121122   01          2                                                                                   3109000221365001838994000069                                                  N                     01321  0000000        000118
12066899790000105FABRICA ARTEF LATEX ESTRELA EP                                        00000000399000000000000000000000000000008706705600000000000000077307 003      201211122012082900000000055150000141750000000000141750000000000000000000000000000000050000000000  3020121112   05          3                                                                                   3175891372051125027292500139                                                  N                     01321  0000000        000119
12066899790000105FABRICA ARTEF LATEX ESTRELA EP                                        00000000399000000000000000000000000000008819134600000000000000078480 002      201211122012091300000000055150000530781000000000530781000000000000000000000000000000050000000000  3020121112   05          3                                                                                   3175978755501125027292500169                                                  N                     01321  0000000        000120
12067300160000127OSACO PRODUTOS SIDERURGICOS LT                                        0000000023702415500000000063002 0000000091141011009024151670122662 01 01      201211212012103100000000055240000106118000000000109832000000000000000000000000003714050000000000  3020121122   01          2  RUA JUNO  533                                                                    3                         000000000000000                                     N                     00598  0000000        000121
12069034668000156SODEXO PASS BRASIL SERV COM SA                                        0000000034100000000000000000000000000000923779380000009219409161200014697     201212192012111900000000055520000367620000000000367620000000000000000000000000000000050000000000  3020121219   01FS        1                                                                                   3109219409162293801455800079                                                  N                     01321  0000000        000122
12069034668000156SODEXO PASS BRASIL SERV COM SA                                        0000000034100000000000000000000000000000923779390000009219409581200014697     201212192012111900000000055520000140300000000000140300000000000000000000000000000000050000000000  3020121219   01FS        1                                                                                   3109219409584293801455800039                                                  N                     01321  0000000        000123
12069284248000128ISOCOAT TINTAS E VERNIZES LTDA                                        0000000034100000000000000000000000000000895189830000002456588190056254        201211162012100200000000055190000365668000000000371518000000000000000000000000005850050000000000  3020121122   01          2                                                                                   3112456588196077430121200019                                                  N                     01321  0000000        000124
12069284248000128ISOCOAT TINTAS E VERNIZES LTDA                                        0000000034100000000000000000000000000000841061040000002182507930052085        201209172012070200000000054590000236130000000000277710000000000000000000000000041580050000000000  3020121122   01          2                                                                                   3112182507932077430121200019                                                  N                     01321  0000000        000125
12069284248000128ISOCOAT TINTAS E VERNIZES LTDA                                        0000000034100000000000000000000000000000888732960000002421485720055761        201211202012092100000000055230000093324000000000093822000000000000000000000000000498050000000000  3020121122   01          2                                                                                   3112421485726077430121200069                                                  N                     01321  0000000        000126
12069309706000136F N A TRANSPORTES LTDA                                                000000003410000000000000000000000000000091358508000000900012193060709         201211152012103100000000055180000025323000000000025911000000000000000000000000000588050000000000  3020121122   01          2                                                                                   3109000121937005486932600019                                                  N                     01321  0000000        000127
12096500087000135WORKBENCH CONSULTORIA S S LTDA                                        0000000034100000000000000000000000000000878205840000007940034283118           201209272012090300000000054690000131746000000000146250000000000000000000000000014504050000000000  3020121122   01          2                                                                                   3157940034289826313803700089                                                  N                     01321  0000000        000128
900012900000000057553385                                                                                                                                                                                                                                                                                                                                                                                                                                                                01321  0000000        000129
