0000147602043799295000110ALTAMIRA INDUSTRIA METALURGICA LT       202000000011020120822055828             1                                                                                                                                                                                                                                                                                                                                                                                                    000001
12001951865000104FOUR FACTORING FOMENTO M LTDA                                         000000004220000000000000000000000000000085230907000000000000000159 2012       201208142012072400000000054250000310000000000000318263000000000000000000000000008263050000000000  3020120822   01          2                                                                                   3702000009214741497536196199                                                  N                     01321  0000000        000002
12002269980000158PANKRO LOGISTICA E TRANSPORTES                                        000000003410000000000000000000000000000085315490000000224495030166            201208172012072500000000054280000310000000000000310000000000000000000000000000000000050000000000  3020120822   01          2                                                                                   3112244950302315090027600019                                                  N                     01321  0000000        000003
12002460454000170AUT SERVICE COMERCIO E SERVICO                                        0000000023702591700000000007692 000000008515291900901322060028134532          201208172012072400000000054280000238750000000000253077000000000000000000000000014327050000000000  3020120822   01          2  RUA JUNO  533                                                                    3                         000000000000000                                     N                     00598  0000000        000004
12002503185000182ANDAIMES E MAQUINAS BIG LTDA                                          000000000010000000000000000000000000000085315480000000065352000011516         201208202012072600000000054310000026000000000000026554000000000000000000000000000554050000000000  3020120822   01          2                                                                                   3000000187782308250653521739                                                  N                     01321  0000000        000005
12003807192000130HELIO MATERIAIS PARA SOLDAS LT                                        0000000023700298400000002087111 0000000084985531009013220101191S000001149     201208172012071900000000054280000022800000000000023980000000000000000000000000001180050000000000  3020120822   01          2  RUA TAMAINDE 1410                                                                3                         000000000000000                                     N                     00598  0000000        000006
12006000195000156M B A MERCANTIL BRASILEIRA DE                                         0000000023700118P00000002130599 00000000853155010020220900000510008971B01     201208212012072400000000054320000170465000000000170749000000000000000000000000000284050000000000  3020120822   01          2  RUA JUNO  533                                                                    3                         000000000000000                                     N                     00598  0000000        000007
12006000195000156M B A MERCANTIL BRASILEIRA DE                                         0000000000100000000000000000000000000000831387000000007752210000008614B02     201208142012062000000000054250000949923000000000951506000000000000000000000000003166050000000000  3020120815   06          3                                                                                   3043837752213333000105251179                                                  N                     01321  0000000        000008
12006000195000156MBA MERCANTIL BRAS DE ACO LTDA                                        0000000034100000000000000000000000000000850740650000008671394740008920B01     201208192012072000000000054300000576584000000000577372000000000000000000000000000788050000000000  3020120822   01          2                                                                                   3458671394740064849251000069                                                  N                     01321  0000000        000009
12006000195000156MBA MERCANTIL BRAS DE ACO LTDA                                        0000000034100000000000000000000000000000848957220000008667238540008874B01     201208162012071900000000054270000802826000000000806182000000000000000000000000003356050000000000  3020120822   01          2                                                                                   3458667238547064849251000019                                                  N                     01321  0000000        000010
12006000195000156M B A MERCANTIL BRASILEIRA DE                                         0000000000100000000000000000000000000000834820180000002571500000008651B02     201208212012062600000000054320000426600000000000427311000000000000000000000000000711050000000000  3020120822   01          2                                                                                   3043852571503333000105251189                                                  N                     01321  0000000        000011
12006000195000156M B A MERCANTIL BRASILEIRA DE                                         0000000000100000000000000000000000000000834820210000002571530000008653B02     201208162012062600000000054270000276789000000000279555000000000000000000000000002766050000000000  3020120822   01          2                                                                                   3043852571533333000105251139                                                  N                     01321  0000000        000012
12006000195000156M B A MERCANTIL BRASILEIRA DE                                         0000000000100000000000000000000000000000834820260000002571560000008654B02     201208172012062600000000054280000677504000000000683149000000000000000000000000005645050000000000  3020120822   01          2                                                                                   3043852571563333000105251149                                                  N                     01321  0000000        000013
12006000195000156MBA MERCANTIL BRAS DE ACO LTDA                                        0000000034100000000000000000000000000000848957210000008667238520008876B01     201208172012071900000000054280000810321000000000813144000000000000000000000000002823050000000000  3020120822   01          2                                                                                   3458667238521064849251000099                                                  N                     01321  0000000        000014
12006000195000156MBA MERCANTIL BRAS DE ACO LTDA                                        0000000034100000000000000000000000000000848957230000008667238630008870B01     201208142012071900000000054250000839952000000000844633000000000000000000000000004681050000000000  3020120822   01          2                                                                                   3458667238638064849251000019                                                  N                     01321  0000000        000015
12006000195000156MBA MERCANTIL BRAS DE ACO LTDA                                        0000000034100000000000000000000000000000850740660000008671394750008925B01     201208172012072000000000054280000719580000000000722039000000000000000000000000002459050000000000  3020120822   01          2                                                                                   3458671394757064849251000019                                                  N                     01321  0000000        000016
12006000195000156MBA MERCANTIL BRAS DE ACO LTDA                                        0000000034100000000000000000000000000000850740670000008671394760008926B01     201208172012072000000000054280000387716000000000389041000000000000000000000000001325050000000000  3020120822   01          2                                                                                   3458671394765064849251000029                                                  N                     01321  0000000        000017
12006000195000156M B A MERCANTIL BRASILEIRA DE                                         0000000000100000000000000000000000000000834820290000002571590000008655B02     201208182012062600000000054290000739629000000000744561000000000000000000000000004932050000000000  3020120822   01          2                                                                                   3043852571593333000105251119                                                  N                     01321  0000000        000018
12006000195000156M B A MERCANTIL BRASILEIRA DE                                         0000000000100000000000000000000000000000834820320000002571620000008656B02     201208192012062600000000054300000641947000000000645157000000000000000000000000003210050000000000  3020120822   01          2                                                                                   3043852571623333000105251179                                                  N                     01321  0000000        000019
12006000195000156M B A MERCANTIL BRASILEIRA DE                                         0000000023700118P00000002128292 00000000867622150090214300000160008324B03     201208132012052100000000054240000369741000000000369741000000000000000000000000000000050000000000  3020120822   01FS        1  RUA JUNO  533                                                                    3                         000000000000000                                     N                     00598  0000000        000020
12006000195000156M B A MERCANTIL BRASILEIRA DE                                         0000000023700118P00000002128292 00000000867622160090219900000740008864B01     201208132012071600000000054240000169188000000000169188000000000000000000000000000000050000000000  3020120822   01FS        1  RUA JUNO  533                                                                    3                         000000000000000                                     N                     00598  0000000        000021
12007175725000160WEG EQUIPAMENTOS ELETRICOS SA                                         0000000023702727800000000196800 00000000815444390090214500004510095359901     201208212012052300000000054320000272787000000000273150000000000000000000000000000363050000000000  3020120822   01          2  R JUNO  533                                                                      3                         000000000000000                                     N                     00598  0000000        000022
12007289649000113CRC LASER SUPR INF LTDA EPP                                           000000003410000000000000000000000000000086762212000000792013593000001055      201209182012082100000000054600000029940000000000029940000000000000000000000000000000050000000000  3020120918   01FS        1                                                                                   3157920135932000265431700089                                                  N                     01321  0000000        000023
12008709272000177MULTIELETRICA C M E LTDA                                              000000003410000000000000000000000000000085771857000000900002204000002535A     201208212012072400000000054320000188888000000000200403000000000000000000000000011515050000000000  3020120822   01          2                                                                                   3109000022040075798525400069                                                  N                     01321  0000000        000024
12009043000000143GERSON D DA SILVA SEGURANCA DO                                        000000003990000000000000000000000000000086762214000000000000000347            201209152012082100000000054570000071586000000000071586000000000000000000000000000000050000000000  3020120917   01FS        1                                                                                   3304770028260477000087000199                                                  N                     01321  0000000        000025
12012006058000121WEG TINTAS LTDA                                                       0000000023702727800000000001309 00000000833069150090217700001080014685602     201208212012062200000000054320000459854000000000460467000000000000000000000000000613050000000000  3020120822   01          2  R JUNO  533                                                                      3                         000000000000000                                     N                     00598  0000000        000026
12012006058000121WEG TINTAS LTDA                                                       0000000023702727800000000001309 00000000841061110090218800000830014990201     201208192012070500000000054300000306569000000000307793000000000000000000000000001224050000000000  3020120822   01          2  R JUNO  533                                                                      3                         000000000000000                                     N                     00598  0000000        000027
12014309992000148WEG DRIVES   CONTROLS   AUTOMA                                        0000000023702727800000000001872 00000000852309220090220800002960008346101     201208212012072400000000054320000056126000000000056200000000000000000000000000000074050000000000  3020120822   01          2  R JUNO  533                                                                      3                         000000000000000                                     N                     00598  0000000        000028
12014775592000128HELIO ADRIANO DA SILVA ME                                             0000000023700593200000002432943 00000000856071290090221400000038260           201208222012073000000000054330000021500000000000021500000000000000000000000000000000050000000000  3020120822   01          2  AV TAMAINDE 1410                                                                 300000000000000000001500  000000000000000                                     N                     00598  0000000        000029
12035820448000136WHITE MARTINS GASES INDUSTRIAI                                        0000000023700026400000003937925 0000000085230921009022080002695355448 001     201208212012072600000000054320000085176000000000086993000000000000000000000000001817050000000000  3020120822   01          2  RUA GANGES  528                                                                  3                         000000000000000                                     N                     00598  0000000        000030
12042956441000101SOLUCOES EM ACO USIMINAS S A                                          000000000010000000000000000000000000000083482041000000086550000000166814002   201208202012062600000000054310000317656000000000318926000000000000000000000000001270050000000000  3020120822   01          2                                                                                   3000000169660100000865501789                                                  N                     01321  0000000        000031
12042956441000101SOLUCOES EM ACO USIMINAS S A                                          000000000010000000000000000000000000000083482043000000086544000000166812002   201208202012062600000000054310000608954000000000611390000000000000000000000000002436050000000000  3020120822   01          2                                                                                   3000000169660100000865441799                                                  N                     01321  0000000        000032
12042956441000101SOLUCOES EM ACO USIMINAS S A                                          000000000010000000000000000000000000000083482046000000086547000000166813002   201208202012062600000000054310000391569000000000393135000000000000000000000000001566050000000000  3020120822   01          2                                                                                   3000000169660100000865471719                                                  N                     01321  0000000        000033
12042956441000101SOLUCOES EM ACO USIMINAS S A                                          000000000010000000000000000000000000000083482052000000086559000000166827002   201208202012062600000000054310000577022000000000579330000000000000000000000000002308050000000000  3020120822   01          2                                                                                   3000000169660100000865591719                                                  N                     01321  0000000        000034
12042956441000101SOLUCOES EM ACO USIMINAS S A                                          000000000010000000000000000000000000000083482055000000086562000000166828002   201208202012062600000000054310000325383000000000326685000000000000000000000000001302050000000000  3020120822   01          2                                                                                   3000000169660100000865621719                                                  N                     01321  0000000        000035
12042956441000101SOLUCOES EM ACO USIMINAS S A                                          000000000010000000000000000000000000000083562084000000087493000000167113002   201208212012062700000000054320000698474000000000699871000000000000000000000000001397050000000000  3020120822   01          2                                                                                   3000000169660100000874931729                                                  N                     01321  0000000        000036
12042956441000101SOLUCOES EM ACO USIMINAS S A                                          000000000010000000000000000000000000000083562087000000087496000000167114002   201208212012062700000000054320000703010000000000704416000000000000000000000000001406050000000000  3020120822   01          2                                                                                   3000000169660100000874961719                                                  N                     01321  0000000        000037
12042956441000101SOLUCOES EM ACO USIMINAS S A                                          000000000010000000000000000000000000000083562090000000087499000000167115002   201208212012062700000000054320000240662000000000241143000000000000000000000000000481050000000000  3020120822   01          2                                                                                   3000000169660100000874991759                                                  N                     01321  0000000        000038
12042956441000101SOLUCOES ACO USIMINAS                                                 0000000034100000000000000000000000000000850740410000002233586750017101001     201208172012071900000000054280000732795000000000740125000000000000000000000000007330050000000000  3020120822   01          2                                                                                   3112233586752293807258000099                                                  N                     01321  0000000        000039
12042956441000101SOLUCOES ACO USIMINAS                                                 0000000034100000000000000000000000000000850740420000002233586760017101201     201208172012071900000000054280000144677000000000146122000000000000000000000000001445050000000000  3020120822   01          2                                                                                   3112233586760293807258000079                                                  N                     01321  0000000        000040
12042956441000101SOLUCOES ACO USIMINAS                                                 0000000034100000000000000000000000000000850740430000002233586770017126901     201208202012072000000000054310000208455000000000209289000000000000000000000000000834050000000000  3020120822   01          2                                                                                   3112233586778293807258000039                                                  N                     01321  0000000        000041
12042956441000101SOLUCOES ACO USIMINAS                                                 0000000034100000000000000000000000000000850740440000002233586780017127001     201208202012072000000000054310000190485000000000191247000000000000000000000000000762050000000000  3020120822   01          2                                                                                   3112233586786293807258000019                                                  N                     01321  0000000        000042
12042956441000101SOLUCOES ACO USIMINAS                                                 0000000034100000000000000000000000000000850740450000002233586790017127101     201208202012072000000000054310000167777000000000168449000000000000000000000000000672050000000000  3020120822   01          2                                                                                   3112233586794293807258000029                                                  N                     01321  0000000        000043
12042956441000101SOLUCOES EM ACO USIMINAS S A                                          000000000010000000000000000000000000000083482049000000086553000000166815002   201208202012062600000000054310000649087000000000651683000000000000000000000000002596050000000000  3020120822   01          2                                                                                   3000000169660100000865531799                                                  N                     01321  0000000        000044
12042956441000101SOLUCOES EM ACO USIMINAS S A                                          000000000010000000000000000000000000000083482058000000086565000000166829002   201208202012062600000000054310000125200000000000125700000000000000000000000000000500050000000000  3020120822   01          2                                                                                   3000000169660100000865651779                                                  N                     01321  0000000        000045
12042956441000101SOLUCOES ACO USIMINAS                                                 0000000034100000000000000000000000000000850740460000002233586800017127201     201208202012072000000000054310000137881000000000138433000000000000000000000000000552050000000000  3020120822   01          2                                                                                   3112233586802293807258000019                                                  N                     01321  0000000        000046
12043217850000159IOB INFORMACOES OBJ  PUBL JURI                                        0000000023702374400000002958600 000000008540495200902212000099001440820E4     201208202012073000000000054310000072850000000000074355000000000000000000000000001505050000000000  3020120822   01          2  GANGES 528 VL NOVA MANCHESTER                                                    3                         000000000000000                                     N                     00598  0000000        000047
12051598472000129ELETRICA J SANTOS                                                     0000000023702451100000000000264 000000008507405800902206000003117806 01       201208202012072300000000054310000092714000000000093332000000000000000000000000000618050000000000  3020120822   01          2  R JUNO  533                                                                      3                         000000000000000                                     N                     00598  0000000        000048
12052559499000175BOMAX NO BRASIL EQUIP INDS LT                                         0000000034100000000000000000000000000000852309130000002238631900000015611     201208202012071900000000054310000179150000000000179854000000000000000000000000000704050000000000  3020120822   01          2                                                                                   3112238631900324705000200029                                                  N                     01321  0000000        000049
12053585766000141MULTIACOS INDUSTRIA E COMERCIO                                        0000000000100000000000000000000000000000856071120000000876200000004294602     201208212012073100000000054320000407138000000000407817000000000000000000000000000679050000000000  3020120822   01          2                                                                                   3043940876201912000139523119                                                  N                     01321  0000000        000050
12053585766000141MULTIACOS INDUSTRIA E COMERCIO                                        0000000000100000000000000000000000000000856071130000000876710000004360701     201208212012073100000000054320001237648000000001239711000000000000000000000000002063050000000000  3020120822   01          2                                                                                   3043940876711912000139523149                                                  N                     01321  0000000        000051
12053585766000141MULTIACOS COM DE PRODUTOS TECN                                        0000000023703398700000000011290 00000000867622130020223400000290004411802     201209142012072000000000054560000585031000000000585031000000000000000000000000000000050000000000  3020120914   01FS        1  RUA JUNO  533                                                                    3                         000000000000000                                     N                     00598  0000000        000052
12056993900000131CIA METALURGICA PRADA                                                 0000000034100000000000000000000000000000848180590000002218222640025829901     201208142012071700000000054250000499614000000000506278000000000000000000000000006664050000000000  3020120822   01          2                                                                                   3112218222647293800573900019                                                  N                     01321  0000000        000053
12056993900000131CIA METALURGICA PRADA                                                 0000000034100000000000000000000000000000848180600000002218222650025830001     201208142012071700000000054250000248417000000000251729000000000000000000000000003312050000000000  3020120822   01          2                                                                                   3112218222654293800573900049                                                  N                     01321  0000000        000054
12056993900000131CIA METALURGICA PRADA                                                 0000000034100000000000000000000000000000848180610000002218222660025830101     201208142012071700000000054250000208025000000000210801000000000000000000000000002776050000000000  3020120822   01          2                                                                                   3112218222662293800573900059                                                  N                     01321  0000000        000055
12057158057000130COMERCIAL ELETRICA PJ LTDA                                            0000000023703394400000000972983 00000000842436850090219200008900000305028     201208012012070400000000054120000079196000000000084719000000000000000000000000005523050000000000  3020120822   01          2  R TAMAINDE 1410                                                                  3                         000000000000000                                     N                     00598  0000000        000056
12060830544000102TORRES GALVANIZACAO A FOGO LTD                                        0000000023702531300000000105007 0000000085607124009013221401636007073         201208212012072400000000054320000064800000000000065664000000000000000000000000000864050000000000  3020120822   01          2  RUA GANGES  528                                                                  3                         000000000000000                                     N                     00598  0000000        000057
12061096178000172COMERCIAL ELETRICA RIMO LTDA                                          0000000034100000000000000000000000000000855028540000002250570149048           201208162012071900000000054270000033112000000000033112000000000000000000000000000000050000000000  3020120816   06          3                                                                                   3112250570143166009333500039                                                  N                     01321  0000000        000058
12061217188000119TELAS METALICAS TELMETAL LTDA                                         0000000003300000000000000000000000000000866154310000006000000005522 1 3       201209132012081600000000054550000085131000000000085131000000000000000000000000000000050000000000  3020120913   05          3                                                                                   3915435040000000047660020139                                                  N                     01321  0000000        000059
12061217188000119TELAS METALICAS TELMETAL LTDA                                         0000000003300000000000000000000000000000866154320000007800000005522 2 3       201209202012081600000000054620000085130000000000085130000000000000000000000000000000050000000000  3020120920   05          3                                                                                   3915435040000000047678020149                                                  N                     01321  0000000        000060
12061217188000119TELAS METALICAS TELMETAL LTDA                                         0000000003300000000000000000000000000000866154330000008600000005522 3 3       201209272012081600000000054690000085130000000000085130000000000000000000000000000000050000000000  3020120927   05          3                                                                                   3915435040000000047686020179                                                  N                     01321  0000000        000061
12061217188000119TELAS METALICAS TELMETAL LTDA                                         0000000000100000000000000000000000000000849855280000000055490005358 1 3       201208172012072000000000054280000052556000000000052556000000000000000000000000000000050000000000  3020120817   06          3                                                                                   3000000115031800000055491739                                                  N                     01321  0000000        000062
12061217188000119TELAS METALICAS TELMETAL LTDA                                         0000000000100000000000000000000000000000852309040000000055630005371 1 3       201208202012072500000000054310000069967000000000070341000000000000000000000000000374050000000000  3020120822   01          2                                                                                   3000000115031800000055631739                                                  N                     01321  0000000        000063
12061217188000119TELAS METALICAS TELMETAL LTDA                                         0000000000100000000000000000000000000000867622080000000056410005532 2 3       201209212012082000000000054630000074597000000000074597000000000000000000000000000000050000000000  3020120921   01FS        1                                                                                   3000000115031800000056411779                                                  N                     01321  0000000        000064
12061217188000119TELAS METALICAS TELMETAL LTDA                                         0000000000100000000000000000000000000000867622090000000056420005532 3 3       201209282012082000000000054700000074597000000000074597000000000000000000000000000000050000000000  3020120928   01FS        1                                                                                   3000000115031800000056421719                                                  N                     01321  0000000        000065
12061217188000119TELAS METALICAS TELMETAL LTDA                                         0000000000100000000000000000000000000000867622100000000056390005531 1 1       201209142012082000000000054560000032112000000000032112000000000000000000000000000000050000000000  3020120914   01FS        1                                                                                   3000000115031800000056391719                                                  N                     01321  0000000        000066
12061217188000119TELAS METALICAS TELMETAL LTDA                                         0000000000100000000000000000000000000000867622110000000056400005532 1 3       201209142012082000000000054560000074598000000000074598000000000000000000000000000000050000000000  3020120914   01FS        1                                                                                   3000000115031800000056401719                                                  N                     01321  0000000        000067
12061780615000172LEPOK INFORMATICA E PAPELARIA                                         00000000001000000000000000000000000000008515292600000034596500002114936       201208152012072400000000054260000051878000000000052743000000000000000000000000001038050000000000  3020120820   06          3                                                                                   3043923459653333000058133179                                                  N                     01321  0000000        000068
12067647412000199ANCORA CHUMBADORES LTDA                                               000000003410000000000000000000000000000083392859000000214873077055988 2       201208192012062000000000054300000250000000000000251476000000000000000000000000001476050000000000  3020120822   01          2                                                                                   3112148730776013626917200069                                                  N                     01321  0000000        000069
12092693118000160BRADESCO SAUDE S A                                                    0000000023700448000000001533991 00000000847452120050100745572410000000000     201208202012071700000000054310000645861000000000646693000000000000000000000000000832050000000000  3020120822   01          2                                                                                   3                         000000000000000                                     N                     00598  0000000        000070
900007100000000022596685                                                                                                                                                                                                                                                                                                                                                                                                                                                                00598  0000000        000071
