0000147602043799295000110ALTAMIRA INDUSTRIA METALURGICA LT       202000000183920120823212558             3                                                                                                  000000000000000                                                                                                                                                                                                                                                                                   000001
12056993900000131CIA METALURGICA PRADA                                                 0000000034100000 0000000000000  I000000000009613000000000000000               201208230000000000000000054340000507111000000000507111000000000000000000000000000000010000258299  3120120823   02BW        5000000               000000000000000                                               3181528666591293800573900039               0258299/01                         N                     01132 10020256        000002
12006000195000156MBA MERCANTIL BRASIL ACO LTDA                                         0000000000100000 0000000000000  I000000000009618000000000000000               201208230000000000000000054340000281310000000000281310000000000000000000000000000000010000008653  3120120823   02BW        5000000               000000000000000                                               3043852571533333000105251119               08653/02                           N                     01132 10020256        000003
12042956441000101SOLUCOES EM ACO USIMINAS S A                                          0000000000100000 0000000000000  I000000000009614000000000000000               201208230000000000000000054340000491305000000000491305000000000000000000000000000000010000166431  3120120823   02BW        5000000               000000000000000                                               3000000169660100000849161719               0166431/02                         N                     01132 10020256        000004
12042956441000101SOLUCOES EM ACO USIMINAS S A                                          0000000000100000 0000000000000  I000000000009611000000000000000               201208230000000000000000054340000708397000000000708397000000000000000000000000000000010000057906  3120120823   02BW        5000000               000000000000000                                               3000000169660100000835991719               057906/02                          N                     01132 10020256        000005
12006000195000156MBA MERCANTIL BRASIL ACO LTDA                                         0000000000100000 0000000000000  I000000000009612000000000000000               201208230000000000000000054340000581574000000000581574000000000000000000000000000000010000008616  3120120823   02BW        5000000               000000000000000                                               3043837752273333000105251179               08616/02                           N                     01132 10020256        000006
12042956441000101SOLUCOES EM ACO USIMINAS S A                                          0000000000100000 0000000000000  I000000000009619000000000000000               201208230000000000000000054340000196569000000000196569000000000000000000000000000000010000166430  3120120823   02BW        5000000               000000000000000                                               3000000169660100000849131749               0166430/02                         N                     01132 10020256        000007
12042956441000101SOLUCOES EM ACO USIMINAS S A                                          0000000034100000 0000000000000  I000000000009610000000000000000               201208230000000000000000054340000776892000000000776892000000000000000000000000000000010000160901  3120120823   02BW        5000000               000000000000000                                               3181528700439293807258000019               0160901/03                         N                     01132 10020256        000008
12053585766000141MULTIACOS IND COM PROD TEC LTD                                        0000000000100000 0000000000000  I000000000009609000000000000000               201208230000000000000000054340001241774000000001241774000000000000000000000000000000010000043607  3120120823   02BW        5000000               000000000000000                                               3043940876711912000139523179               043607/01                          N                     01132 10020256        000009
12045577855000118ROVELA IND E COMERCIO LTDA                                            0000000034100000 0000000000000  I000000000009617000000000000000               201208230000000000000000054340000326340000000000326340000000000000000000000000000000010000003994  3120120823   02BW        5000000               000000000000000                                               3181528704558045274986400029               03994/02                           N                     01132 10020256        000010
12042956441000101SOLUCOES EM ACO USIMINAS S A                                          0000000034100000 0000000000000  I000000000009615000000000000000               201208230000000000000000054340000448012000000000448012000000000000000000000000000000010000160970  3120120823   02BW        5000000               000000000000000                                               3181528701171293807258000019               0160970/03                         N                     01132 10020256        000011
12053585766000141MULTIACOS IND COM PROD TEC LTD                                        0000000000100000 0000000000000  I000000000009616000000000000000               201208230000000000000000054340000408496000000000408496000000000000000000000000000000010000042946  3120120823   02BW        5000000               000000000000000                                               3043940876201912000139523179               042946/02                          N                     01132 10020256        000012
12000867888000164TECNEQUIP TECNOLOGIA EQUIP LTD                                        0000000000103333200000000130818 I000000000009606000000000000000               201208230000000000000000000000000000000000000001850000000000000000000000000000000000040000000009  0820120823   02BW        5001500               000000000000000                                               3C0000000101                               09                                 N                     01076 10020256        000013
12006000195000156M B A MERCANTIL BRASILEIRA DE R RINCAO 220                            0365108023700118000000002128292 I000000000009623000000000000000               201208230000000000000000000000000000000000000000056473000000000000000000000000000000010000008911  0120120823   02BW        5000000               000000000000000                                               3                                          NF.NRO.08911/01                    N                     01321 10020256        000014
12006000195000156M B A MERCANTIL BRASILEIRA DE R RINCAO 220                            0365108023700118000000002128292 I000000000009621000000000000000               201208230000000000000000000000000000000000000000498324000000000000000000000000000000010000008615  0120120823   02BW        5000000               000000000000000                                               3                                          NF.NRO.08615/02                    N                     01321 10020256        000015
12006000195000156M B A MERCANTIL BRASILEIRA DE R RINCAO 220                            0365108023700118000000002128292 I000000000009607000000000000000               201208230000000000000000000000000000000000000000839952000000000000000000000000000000010000008870  0120120823   02BW        5000000               000000000000000                                               3                                          NF.NRO.8870/01                     N                     01321 10020256        000016
12006000195000156M B A MERCANTIL BRASILEIRA DE R RINCAO 220                            0365108023700118000000002128292 I000000000009608000000000000000               201208230000000000000000000000000000000000000000112772000000000000000000000000000000010000008872  0120120823   02BW        5000000               000000000000000                                               3                                          NF.NRO.8872/01                     N                     01321 10020256        000017
12006000195000156M B A MERCANTIL BRASILEIRA DE R RINCAO 220                            0365108023700118000000002128292 I000000000009620000000000000000               201208230000000000000000000000000000000000000000802826000000000000000000000000000000010000008874  0120120823   02BW        5000000               000000000000000                                               3                                          NF.NRO.08874/01                    N                     01321 10020256        000018
12006000195000156M B A MERCANTIL BRASILEIRA DE R RINCAO 220                            0365108023700118000000002128292 I000000000009622000000000000000               201208230000000000000000000000000000000000000000155301000000000000000000000000000000010000008905  0120120823   02BW        5000000               000000000000000                                               3                                          NF.NRO.08905/01                    N                     01321 10020256        000019
900002000000000010283428                                                                                                                                                                                    000000000000000                                                                                                                                                                                                                                                    00001800597740005967780        000020
