0000147602043799295000110ALTAMIRA INDUSTRIA METALURGICA LT       202000000048620121123120954             2                                                                                                  000000000000000                                                                                                                                                                                                                                                                                   000001
12043799295000110ALTAMIRA INDUSTRIA METAL LTDA                                         0000000003303809500000130004071 I000000000010207000000000000000               201211230000000000000000000000000000000000000000800000000000000000000000000000000000050000000001  0820121123   01HF        5001207000000008180257000000000000000                                               3D0000000101                               01                                 S                     01133 10020256        000002
12000867888000164TECNEQUIP TECNOLOGIA EQUIP LTD                                        0000000003303809500000130003245 I000000000010208000000000000000               201211230000000000000000000000000000000000000000800000000000000000000000000000000000040000000002  0820121123   01HF        5001207000000007380257000000000000000                                               3C0000000101                               02                                 N                     01076 10020256        000003
900000400000000001600000                                                                                                                                                                                    000000000000000                                                                                                                                                                                                                                                    00000200000000000000000        000004
