0000147602043799295000110ALTAMIRA IND METALURGICA LTDA           20100568000002012112317281400000        2    230A                                                                                          000000000000000                                                                                                                                                                                                                                                                                   000001
12062539994000176LEALFER INDUSTRIA E COMERCIO D                                        0000000034100000 0000000000000  I000000000010210000000000000000               201211230000000000000000055260000919411000000000919411000000000000000000000000000000010000055951  3120121123   01HA        000                                                                                 3181585748815076103324000069             0055951                              N                     00000 10020256        000002
12042956441000101SOLUCOES EM ACO USIMINAS S A  RUA  DIANOPOLIS  670 710                0312510034100000 0000000000000  I000000000010211000000000000000               201211230000000000000000055260000145316000000000145316000000000000000000000000000000010000172663  3120121123   01HA        000                                                                                 3181586660996293807258000099             000172663/03                         N                     00000 10020256        000003
12042956441000101SOLUCOES EM ACO USIMINAS S A  RUA  DIANOPOLIS  670 710                0312510034100000 0000000000000  I000000000010212000000000000000               201211230000000000000000055260000119675000000000119675000000000000000000000000000000010000172662  3120121123   01HA        000                                                                                 3181586661861293807258000039             000172662/03                         N                     00000 10020256        000004
900000500000000001184402                                                                                                                                                                                    000000000000000                                                                                                                                                                                                                                                    00000300165780001184402        000005
