0000147602043799295000110ALTAMIRA INDUSTRIA METALURGICA LT       202000000196820121123212707             3                                                                                                  000000000000000                                                                                                                                                                                                                                                                                   000001
12062539994000176LEALFER INDUSTRIA E COMERCIO D                                        0000000034100000 0000000000000  I000000000010210000000000000000               201211230000000000000000055260000919411000000000919411000000000000000000000000000000010000055951  3120121123   02BW        5000000               000000000000000                                               3181585748815076103324000069               55951                              N                     01132 10020256        000002
12042956441000101SOLUCOES EM ACO USIMINAS S A                                          0000000034100000 0000000000000  I000000000010211000000000000000               201211230000000000000000055260000145316000000000145316000000000000000000000000000000010000172663  3120121123   02BW        5000000               000000000000000                                               3181586660996293807258000099               0172663/03                         N                     01132 10020256        000003
12042956441000101SOLUCOES EM ACO USIMINAS S A                                          0000000034100000 0000000000000  I000000000010212000000000000000               201211230000000000000000055260000119675000000000119675000000000000000000000000000000010000172662  3120121123   02BW        5000000               000000000000000                                               3181586661861293807258000039               0172662/03                         N                     01132 10020256        000004
12000867888000164TECNEQUIP TECNOLOGIA EQUIP LTD                                        0000000003303809500000130003245 I000000000010208000000000000000               201211230000000000000000000000000000000000000000800000000000000000000000000000000000040000000002  0820121123   02BW        5001130               000000000000000                                               3C0000000101                               02                                 N                     01076 10020256        000005
12043799295000110ALTAMIRA INDUSTRIA METAL LTDA                                         0000000003303809500000130004071 I000000000010207000000000000000               201211230000000000000000000000000000000000000000800000000000000000000000000000000000050000000001  0820121123   02BW        5001130               000000000000000                                               3D0000000101                               01                                 S                     01133 10020256        000006
12043799295000110ALTAMIRA INDUSTRIA METAL LTDA                                         0000000000103333200000000021717 I000000000010209000000000000000               201211230000000000000000000000000000000000000005000000000000000000000000000000000000050000000003  0820121123   02BW        5001540               000000000000000                                               3D0000000101                               03                                 S                     01133 10020256        000007
900000800000000007784402                                                                                                                                                                                    000000000000000                                                                                                                                                                                                                                                    00000600165780001184402        000008
