0000147602043799295000110ALTAMIRA INDUSTRIA METALURGICA LT       202000000179020120723214001             3                                                                                                  000000000000000                                                                                                                                                                                                                                                                                   000001
12042956441000101SOLUCOES EM ACO USIMINAS S A                                          0000000000100000 0000000000000  I000000000009255000000000000000               201207230000000000000000054030000125238000000000125238000000000000000000000000000000010000166829  3120120723   02BW        5000000               000000000000000                                               3000000169660100000865641759               0166829/01                         N                     01132 10020256        000002
11144219728000051MARCIO ALEXANDRE RUSSO        R GEN ATALIBA LEONEL 4048 CSA3 TUCURUVI 0224200223702622000000000064858 I000000000009251000000000000000               201207230000000000000000000000000000000000000000055358000000000000000000000000000000050000062012  0120120723   02BW        5000000               000000000000000                                               3                                          REF.JUNHO/2012.                    N                     01321 10020256        000003
12006000195000156MBA MERCANTIL BRASIL ACO LTDA                                         0000000023700118000000002128292 I000000000009250009021780000037               201207230000000000000000054030000183781000000000183781000000000000000000000000000000010000008689  3120120723   02BW        5000000               000000000000000                                               3011809217800000370212829099               08689/01                           N                     01079 10020256        000004
12012006058000121WEG TINTAS LTDA                                                       0000000023702727800000000001309 00000000816237700090214600000890014010202     201207232012052400000000054030000306569000000000306569000000000000000000000000000000050000000000  3020120723   02BW        2000000               000000000000000                                               3                         000000000000000  0140102/02                         N                     01079 10020256        000005
12042956441000101SOLUCOES ACO USIMINAS                                                 0000000034100000000000000000000000000000813840620000002053421600016093402     201207232012052100000000054030000238233000000000238233000000000000000000000000000000050000000000  3020120723   02BW        2000000               000000000000000                                               3112053421601293807258000089               0160934/02                         N                     01132 10020256        000006
12056993900000131CIA METALURGICA PRADA                                                 0000000034100000000000000000000000000000818680890000002072574780024401602     201207232012052800000000054030000869422000000000869422000000000000000000000000000000050000000000  3020120723   02BW        2000000               000000000000000                                               3112072574786293800573900099               0244016/02                         N                     01132 10020256        000007
12069284248000128ISOCOAT TINTAS E VERNIZES LTDA                                        0000000034100000 0000000000000  I000000000009252000000000000000               201207230000000000000000054030000017004000000000017004000000000000000000000000000000010000049529  3120120723   02BW        5000000               000000000000000                                               3112014739836077430121200019               049529/03                          N                     01132 10020256        000008
12012006058000121WEG TINTAS LTDA                                                       0000000023702727800000000001309 I000000000009253009021300000074               201207220000000000000000054020000306662000000000306662000000000000000000000000000000010000136165  3120120723   02BW        5000000               000000000000000                                               3272709213000000740000130019               0136165/03                         N                     01079 10020256        000009
12012006058000121WEG TINTAS LTDA                                                       0000000023702727800000000001309 I000000000009254009021630000087               201207230000000000000000054030000459854000000000459854000000000000000000000000000000010000143742  3120120723   02BW        5000000               000000000000000                                               3272709216300000870000130019               0143742/01                         N                     01079 10020256        000010
12061217188000119TELAS METALICAS TELMETAL LTDA                                         0000000000100000000000000000000000000000830615680000000053840005195 2 3       201207232012061900000000054030000037286000000000037286000000000000000000000000000000050000000000  3020120723   02BW        2000000               000000000000000                                               3000000115031800000053841769               05195/01-03                        N                     01132 10020256        000011
12066899790000105FABRICA ARTEF LATEX ESTRELA EP                                        00000000399000000000000000000000000000008146533100000000000000070105 002      201207222012052300000000054020000217000000000000217000000000000000000000000000000000050000000000  3020120723   02BW        2000000               000000000000000                                               3175283882641125027292500119               070105/02                          N                     01132 10020256        000012
12042956441000101SOLUCOES ACO USIMINAS                                                 0000000034100000000000000000000000000000818681000000002074813120016189702     201207232012052800000000054030000245666000000000245666000000000000000000000000000000050000000000  3020120723   02BW        2000000               000000000000000                                               3112074813125293807258000019               0161897/02                         N                     01132 10020256        000013
12006209559000102MAZURKY IND COM EMB LTDA                                              000000003410000000000000000000000000000084106105000000218465112009517 1       201207232012062500000000054030000052925000000000052925000000000000000000000000000000050000000000  3020120723   02BW        2000000               000000000000000                                               3112184651126151434240900019               09517/01                           N                     01132 10020256        000014
12061217188000119TELAS METALICAS TELMETAL LTDA                                         0000000000100000000000000000000000000000830615700000000053860005196 1 1       201207232012061900000000054030000021149000000000021149000000000000000000000000000000050000000000  3020120723   02BW        2000000               000000000000000                                               3000000115031800000053861799               05196/01                           N                     01132 10020256        000015
12009419898000101LUSITANO INDUSTRIA C E P LTDA                                         00000000341000000000000000000000000000008339286900000090000683201 9530 1      201207232012062500000000054030000035310000000000035310000000000000000000000000000000050000000000  3020120723   02BW        2000000               000000000000000                                               3109000068323001160072300019               09530/01-02                        N                     01132 10020256        000016
12003451790000110TTC TRACAO TECNICA COMERCIAL L                                        0000000000100000000000000000000000000000833928680000007061840001953           201207232012062500000000054030000026620000000000026620000000000000000000000000000000050000000000  3020120723   02BW        2000000               000000000000000                                               3043847061840687000165521169               01953/01                           N                     01132 10020256        000017
12061217188000119TELAS METALICAS TELMETAL LTDA                                         0000000000100000000000000000000000000000830615590000000053780005193 2 3       201207232012061900000000054030000051399000000000051399000000000000000000000000000000050000000000  3020120723   02BW        2000000               000000000000000                                               3000000115031800000053781719               05193/02-03.                       N                     01132 10020256        000018
12061217188000119TELAS METALICAS TELMETAL LTDA                                         0000000000100000000000000000000000000000830615620000000053810005194 2 3       201207232012061900000000054030000043420000000000043420000000000000000000000000000000050000000000  3020120723   02BW        2000000               000000000000000                                               3000000115031800000053811719               05194/02-03                        N                     01132 10020256        000019
900002000000000003292896                                                                                                                                                                                    000000000000000                                                                                                                                                                                                                                                    00001800918490003237538        000020
