0000147602043799295000110ALTAMIRA INDUSTRIA METALURGICA LT       202000000011120120823055306             1                                                                                                                                                                                                                                                                                                                                                                                                    000001
12002269980000158PANKRO LOGISTICA E TRANSPORTES                                        000000003410000000000000000000000000000085315490000000224495030166            201209062012072500000000054480000310000000000000310000000000000000000000000000000000050000000000  3020120906   01          2                                                                                   3112244950302315090027600019                                                  N                     01321  0000000        000002
12002460454000170AUT SERVICE COMERCIO E SERVICO                                        0000000023702591700000000007692 000000008515291900901322060028134532          201208172012072400000000054280000238750000000000253555000000000000000000000000014805050000000000  3020120823   01          2  RUA JUNO  533                                                                    3                         000000000000000                                     N                     00598  0000000        000003
12003746938000143STAPLES BRASIL COM DE MAT DE E                                        0000000023703394400000000368008 0000000085074069002000000797375460605 1       201208222012072300000000054330000032373000000000035664000000000000000000000000003291050000000000  3020120823   01          2  RUA GANGES VILA CARRAO VILA CARRAO                                               3                         000000000000000                                     N                     00598  0000000        000004
12003807192000130HELIO MATERIAIS PARA SOLDAS LT                                        0000000023700298400000002087111 0000000084985531009013220101191S000001149     201208172012071900000000054280000022800000000000023988000000000000000000000000001188050000000000  3020120823   01          2  RUA TAMAINDE 1410                                                                3                         000000000000000                                     N                     00598  0000000        000005
12006000195000156M B A MERCANTIL BRASILEIRA DE                                         0000000023700118P00000002130599 00000000853155010020220900000510008971B01     201208212012072400000000054320000170465000000000171033000000000000000000000000000568050000000000  3020120823   01          2  RUA JUNO  533                                                                    3                         000000000000000                                     N                     00598  0000000        000006
12006000195000156M B A MERCANTIL BRASILEIRA DE                                         0000000023700118P00000002130599 00000000853155040020220900000640008985B01     201208222012072500000000054330000163122000000000163394000000000000000000000000000272050000000000  3020120823   01          2  RUA JUNO  533                                                                    3                         000000000000000                                     N                     00598  0000000        000007
12006000195000156M B A MERCANTIL BRASILEIRA DE                                         0000000023700118P00000002130599 00000000853155070020220900000670008986B01     201208222012072500000000054330000145725000000000145968000000000000000000000000000243050000000000  3020120823   01          2  RUA JUNO  533                                                                    3                         000000000000000                                     N                     00598  0000000        000008
12006000195000156M B A MERCANTIL BRASILEIRA DE                                         0000000000100000000000000000000000000000831386960000007752240000008615B02     201208152012062000000000054260000498324000000000498324000000000000000000000000000000050000000000  3020120815   05          3                                                                                   3043837752243333000105251159                                                  N                     01321  0000000        000009
12006000195000156M B A MERCANTIL BRASILEIRA DE                                         0000000023700118P00000002128292 00000000864554490090216600000600008542B02     201208082012061300000000054190001076000000000001076000000000000000000000000000000000050000000000  3020120816   05          3  RUA JUNO  533                                                                    3                         000000000000000                                     N                     00598  0000000        000010
12007175725000160WEG EQUIPAMENTOS ELETRICOS SA                                         0000000023702727800000000196800 00000000815444390090214500004510095359901     201208212012052300000000054320000272787000000000273513000000000000000000000000000726050000000000  3020120823   01          2  R JUNO  533                                                                      3                         000000000000000                                     N                     00598  0000000        000011
12007477577000138HD LUB COMERCIO DE LUBRIFICANT                                        00000000033000000000000000000000000000008595907000000052000000036494 1        201208212012072400000000054320000045871000000000046193000000000000000000000000000322050000000000  3020120823   01          2                                                                                   3916643440000000270652010119                                                  N                     01321  0000000        000012
12009338857000190FERNANDO  NAGAO  CARDONE  ALVA                                        000000000330000000000000000000000000000085959071000000430000000REEM 07 2012   201208102012072600000000054210000024134000000000025311000000000000000000000000001177050000000000  3020120823   01          2                                                                                   3947901700000051047543010139                                                  N                     01321  0000000        000013
12012006058000121WEG TINTAS LTDA                                                       0000000023702727800000000001309 00000000833069150090217700001080014685602     201208212012062200000000054320000459854000000000461080000000000000000000000000001226050000000000  3020120823   01          2  R JUNO  533                                                                      3                         000000000000000                                     N                     00598  0000000        000014
12012006058000121WEG TINTAS LTDA                                                       0000000023702727800000000001309 00000000868126350090223500001180016086602     201210202012082100000000054920000306569000000000306569000000000000000000000000000000050000000000  3020121022   01FS        1  R JUNO  533                                                                      3                         000000000000000                                     N                     00598  0000000        000015
12012006058000121WEG TINTAS LTDA                                                       0000000023702727800000000001309 00000000841061110090218800000830014990201     201208192012070500000000054300000306569000000000308201000000000000000000000000001632050000000000  3020120823   01          2  R JUNO  533                                                                      3                         000000000000000                                     N                     00598  0000000        000016
12012006058000121WEG TINTAS LTDA                                                       0000000023702727800000000001309 00000000868126360090223500001190016086603     201211042012082100000000055070000306662000000000306662000000000000000000000000000000050000000000  3020121105   01FS        1  R JUNO  533                                                                      3                         000000000000000                                     N                     00598  0000000        000017
12012006058000121WEG TINTAS LTDA                                                       0000000023702727800000000001309 00000000868126340090223500001170016086601     201210052012082100000000054770000306569000000000306569000000000000000000000000000000050000000000  3020121005   01FS        1  R JUNO  533                                                                      3                         000000000000000                                     N                     00598  0000000        000018
12012006058000121WEG TINTAS LTDA                                                       0000000023702727800000000001309 00000000824820170090216300000890014374203     201208222012060800000000054330000459992000000000460605000000000000000000000000000613050000000000  3020120823   01          2  R JUNO  533                                                                      3                         000000000000000                                     N                     00598  0000000        000019
12014309992000148WEG DRIVES   CONTROLS   AUTOMA                                        0000000023702727800000000001872 00000000852309220090220800002960008346101     201208212012072400000000054320000056126000000000056274000000000000000000000000000148050000000000  3020120823   01          2  R JUNO  533                                                                      3                         000000000000000                                     N                     00598  0000000        000020
12014775592000128HELIO ADRIANO DA SILVA ME                                             0000000023700593200000002432943 00000000856071290090221400000038260           201208222012073000000000054330000021500000000000021500000000000000000000000000000000050000000000  3020120822   06          3  AV TAMAINDE 1410                                                                 300000000000000000001500  000000000000000                                     N                     00598  0000000        000021
12035820448000136WHITE MARTINS GASES INDUSTRIAI                                        0000000023700026400000003937925 0000000086812633009022350001453369229 001     201209182012082200000000054600000056805000000000056805000000000000000000000000000000050000000000  3020120918   01FS        1  RUA GANGES  528                                                                  3                         000000000000000                                     N                     00598  0000000        000022
12035820448000136WHITE MARTINS GASES INDUSTRIAI                                        0000000023700026400000003937925 0000000085230921009022080002695355448 001     201208212012072600000000054320000085176000000000087107000000000000000000000000001931050000000000  3020120823   01          2  RUA GANGES  528                                                                  3                         000000000000000                                     N                     00598  0000000        000023
12043217850000159IOB INFORMACOES OBJ  PUBL JURI                                        0000000023702374400000002958600 000000008540495200902212000099001440820E4     201208202012073000000000054310000072850000000000074379000000000000000000000000001529050000000000  3020120823   01          2  GANGES 528 VL NOVA MANCHESTER                                                    3                         000000000000000                                     N                     00598  0000000        000024
12051598472000129ELETRICA J SANTOS                                                     0000000023702451100000000000264 000000008523091800902208000003817933 01       201208222012072500000000054330000112770000000000113146000000000000000000000000000376050000000000  3020120823   01          2  R JUNO  533                                                                      3                         000000000000000                                     N                     00598  0000000        000025
12051598472000129ELETRICA J SANTOS                                                     0000000023702451100000000000264 000000008507405800902206000003117806 01       201208202012072300000000054310000092714000000000093641000000000000000000000000000927050000000000  3020120823   01          2  R JUNO  533                                                                      3                         000000000000000                                     N                     00598  0000000        000026
12056667629000144COMERCIAL BERENELI LTDA                                               000000000330000000000000000000000000000086812637000000620000000NF  11160      201209122012081500000000054540000052520000000000052520000000000000000000000000000000050000000000  3020120912   01FS        1                                                                                   3946371510000000030562010469                                                  N                     01321  0000000        000027
12057158057000130COMERCIAL ELETRICA PJ LTDA                                            0000000023703394400000000972983 00000000842436850090219200008900000305028     201208012012070400000000054120000079196000000000084982000000000000000000000000005786050000000000  3020120823   01          2  R TAMAINDE 1410                                                                  3                         000000000000000                                     N                     00598  0000000        000028
12060770336000165DE CASTRO LOUREIRO ENG IND COM                                        0000000023702372800000008004412 000000008248201400900000000063603025435 0     201208222012053000000000054330000550730000000000551648000000000000000000000000000918050000000000  3020120823   01          2  RUA JUNO  533                           DE CASTRO LOUREIRO ENGENHARIA IND  E COM 3                         047190731000100                                     N                     00598  0000000        000029
12060830544000102TORRES GALVANIZACAO A FOGO LTD                                        0000000023702531300000000105007 0000000085607124009013221401636007073         201208212012072400000000054320000064800000000000065880000000000000000000000000001080050000000000  3020120823   01          2  RUA GANGES  528                                                                  3                         000000000000000                                     N                     00598  0000000        000030
12061085866000137COMERCIO DE FERRAGENS A C L LT                                        0000000023700475800000000385662 000000008595906900400475842019516999 12       201208222012072400000000054330000027500000000000027527000000000000000000000000000027050000000000  3020120823   01          2  RUA GANGES 528 SP                                                                3                         000000000000000                                     N                     00598  0000000        000031
12075483040000130REX MAQUINAS E EQUIPAMENTOS LT                                        00000000001000000000000000000000000000008681263000000091237000079547 2 1      201209062012082100000000054480000064350000000000064350000000000000000000000000000000050000000000  3020120906   01FS        1                                                                                   3043999123703420001185301189                                                  N                     01321  0000000        000032
12075483040000130REX MAQUINAS E EQUIPAMENTOS LT                                        00000000001000000000000000000000000000008681263100000091237100079547 2 2      201210042012082100000000054760000049500000000000049500000000000000000000000000000000050000000000  3020121004   01FS        1                                                                                   3043999123713420001185301189                                                  N                     01321  0000000        000033
12075483040000130REX MAQUINAS E EQUIPAMENTOS LT                                        00000000001000000000000000000000000000008681263200000091237200079547 2 3      201211012012082100000000055040000049500000000000049500000000000000000000000000000000050000000000  3020121101   01FS        1                                                                                   3043999123723420001185301119                                                  N                     01321  0000000        000034
12092693118000160BRADESCO SAUDE S A                                                    0000000023700448000000001533991 00000000847452120050100745572410000000000     201208202012071700000000054310000645861000000000647109000000000000000000000000001248050000000000  3020120823   01          2                                                                                   3                         000000000000000                                     N                     00598  0000000        000035
900003600000000007268497                                                                                                                                                                                                                                                                                                                                                                                                                                                                00598  0000000        000036
