0000147602043799295000110ALTAMIRA INDUSTRIA METALURGICA LT       202000000192420121023212708             3                                                                                                  000000000000000                                                                                                                                                                                                                                                                                   000001
12026470807000343MANDALA TRANSPORTES DE CARGAS                                         0000000034100000 0000000000000  I000000000010067000000000000000               201210240000000000000000054960000109140000000000109140000000000000000000000000000000010000093957  3120121023   02BW        5000000               000000000000000                                               3109000166662144631527500089               93957                              N                     01132 10020256        000002
12068364900000151VR INDUSTRIA HELIOGRAFICA LTDA                                        0000000003300000 0000000000000  I000000000010068000000000000000               201210230000000000000000054950000017894000000000017894000000000000000000000000000000010000136263  3120121023   02BW        5000000               000000000000000                                               3942136960000000181900020399               136263                             N                     01132 10020256        000003
12065611451000100SUPERDIN COMERCIAL E IMPORTADOR TAMAINDE 1253 VL CARRAO               0344400023700890700000000004502 I000000000010069000000000000000               201210230000000000000000000000000000000000000000020616000000000000000000000000000000010000006798  0120121023   02BW        5000000               000000000000000                                               3                                          NF.NRO.06798                       N                     01321 10020256        000004
12035820448000136WHITE MARTINS GASES INDUSTRIAI                                        0000000023700026400000003937925 0000000086699210009022330000393368126 001     201209142012081800000000054560000162300000000000173970000000000000000000000000020094050000000000  3020121023   02BW        2000000               000000000000000                                               3                         000000000000000  8979/01                            N                     01079 10020256        000005
900000600000000000321620                                                                                                                                                                                    000000000000000                                                                                                                                                                                                                                                    00000400164470000289334        000006
