0000147602043799295000110ALTAMIRA INDUSTRIA METALURGICA LT       202000000017320121123063620             1                                                                                                                                                                                                                                                                                                                                                                                                    000001
12001895314000162COLETA INDUSTRIAL FIMAVAN LTDA                                        0000000034100000000000000000000000000000866992070000009002335349439           201208272012081700000000054380000123695000000000155121000000000000000000000000031426050000000000  3020121123   01          2                                                                                   3109002335346144604097200019                                                  N                     01321  0000000        000002
12002248601000143TECNOLACOS CABOS E CINTAS LTDA                                        000000000010000000000000000000000000000092470567000000453683000007634         201212132012112200000000055460000015960000000000015960000000000000000000000000000000050000000000  3020121213   01FS        1                                                                                   3044254536831192000070425119                                                  N                     01321  0000000        000003
12003102481000134AB5 IND E COMERCIO LTDA EPP                                           0000000034100000000000000000000000000000909203330000009000042483169           201211202012102300000000055230000119250000000000119847000000000000000000000000000597050000000000  3020121123   01          2                                                                                   3109000042489003154755700039                                                  N                     01321  0000000        000004
12003370710000100ALTIZA TRANSPORTES LTDA                                               0000000010400000000000000000000000000000924705490000000005750003546           201211282012112100000000055310000029000000000000029000000000000000000000000000000000050000000000  3020121128   01FS        1                                                                                   3284848190110104000000575539                                                  N                     01321  0000000        000005
12003489596000123BEND FLEX I COMERCIO LTDA                                             000000003410000000000000000000000000000088350832000000171879874608            201209122012082100000000054540000695250000000000793674000000000000000000000000098424050000000000  3020121123   01          2                                                                                   3191718798744157734445800069                                                  N                     01321  0000000        000006
12003489596000123BEND FLEX I COMERCIO LTDA                                             000000003410000000000000000000000000000088599899000000171434574613            201209172012081600000000054590000585000000000000662117000000000000000000000000077117050000000000  3020121123   01          2                                                                                   3191714345748157734445800019                                                  N                     01321  0000000        000007
12003489596000123BEND FLEX I COMERCIO LTDA                                             000000003410000000000000000000000000000091358505000000177374323637            201210292012092700000000055010000110000000000000115184000000000000000000000000005400050000000000  3020121122   06          3                                                                                   3191773743239157734445800019                                                  N                     01321  0000000        000008
12003803271000173ATUAL SP C DE FERRAMENTAS LTDA                                        000000003410000000000000000000000000000090751873000000701204346007823         201211222012102500000000055250000070500000000000072754000000000000000000000000002254050000000000  3020121123   01          2                                                                                   3157012043466013905550300029                                                  N                     01321  0000000        000009
12004643290000142FLEXTINTAS IND E COMERCIO LTDA                                        000000003410000000000000000000000000000089697948000000246363343NFF037938C     201211152012100400000000055180000049525000000000049525000000000000000000000000000000050000000000  3020121116   06          3                                                                                   3112463633431051356781800069                                                  N                     01321  0000000        000010
12004882911000140F C BRITO CARTUCHOS ME                                                00000000033000000000000000000000000000009174140400000029000000014860 A21      201211212012102400000000055240000039945000000000041116000000000000000000000000001171050000000000  3020121123   01          2                                                                                   3944753720000000109029010119                                                  N                     01321  0000000        000011
12005151518000140BELENUS DO BRASIL LTDA                                                000000000330000000000000000000000000000091026582000000100000000R132008212     201211222012102300000000055250000599040000000000601016000000000000000000000000001976050000000000  3020121123   01          2                                                                                   3918381050000000498610010479                                                  N                     01321  0000000        000012
12005880850000145NEDERMAN BRASIL COM PROD EX LT                                        000000003410000000000000000000000000000086373178000000614350956002763 A       201209252012081400000000054670000289674000000000323304000000000000000000000000033630050000000000  3020121123   01          2                                                                                   3156143509568160829000100049                                                  N                     01321  0000000        000013
12006000195000156MBA MERCANTIL BRAS DE ACO LTDA                                        0000000034100000000000000000000000000000887698090000001671394550008925B02     201209142012071700000000054560000719581000000000818631000000000000000000000000099050050000000000  3020121123   01          2                                                                                   3191671394556064849251000089                                                  N                     01321  0000000        000014
12006000195000156MBA MERCANTIL BRAS DE ACO LTDA                                        0000000034100000000000000000000000000000887698100000001671394560008926B02     201209142012071700000000054560000387716000000000441126000000000000000000000000053410050000000000  3020121123   01          2                                                                                   3191671394564064849251000019                                                  N                     01321  0000000        000015
12006000195000156MBA MERCANTIL BRAS DE ACO LTDA                                        0000000034100000000000000000000000000000904173170000001671394420008925B03     201210122012071700000000054840000719580000000000779010000000000000000000000000059430050000000000  3020121123   01          2                                                                                   3191671394424064849251000069                                                  N                     01321  0000000        000016
12006000195000156MBA MERCANTIL BRAS DE ACO LTDA                                        0000000034100000000000000000000000000000904173180000001671394430008926B03     201210122012071700000000054840000387716000000000419762000000000000000000000000032046050000000000  3020121123   01          2                                                                                   3191671394432064849251000079                                                  N                     01321  0000000        000017
12006000195000156MBA MERCANTIL BRAS DE ACO LTDA                                        0000000034100000000000000000000000000000906662670000001671394410008920B03     201210142012071700000000054860000576584000000000621944000000000000000000000000045360050000000000  3020121123   01          2                                                                                   3191671394416064849251000039                                                  N                     01321  0000000        000018
12006000195000156MBA MERCANTIL BRAS DE ACO LTDA                                        0000000034100000000000000000000000000000889578520000001671394540008920B02     201209162012071700000000054580000576585000000000653697000000000000000000000000077112050000000000  3020121123   01          2                                                                                   3191671394549064849251000099                                                  N                     01321  0000000        000019
12006000195000156MBA MERCANTIL BRAS DE ACO LTDA                                        0000000034100000000000000000000000000000904173140000001667238290008874B03     201210112012071600000000054830000802825000000000870722000000000000000000000000067897050000000000  3020121123   01          2                                                                                   3191667238296064849251000069                                                  N                     01321  0000000        000020
12006000195000156MBA MERCANTIL BRAS DE ACO LTDA                                        0000000034100000000000000000000000000000904173150000001667238300008870B03     201210092012071600000000054810000839951000000000914291000000000000000000000000074340050000000000  3020121123   01          2                                                                                   3191667238304064849251000039                                                  N                     01321  0000000        000021
12006000195000156MBA MERCANTIL BRAS DE ACO LTDA                                        0000000034100000000000000000000000000000904173160000001667238280008876B03     201210122012071600000000054840000810320000000000877268000000000000000000000000066948050000000000  3020121123   01          2                                                                                   3191667238288064849251000079                                                  N                     01321  0000000        000022
12006000195000156MBA MERCANTIL BRAS DE ACO LTDA                                        0000000034100000000000000000000000000000885998980000001667238420008870B02     201209112012071600000000054530000839952000000000960548000000000000000000000000120596050000000000  3020121123   01          2                                                                                   3191667238429064849251000039                                                  N                     01321  0000000        000023
12006000195000156M B A MERCANTIL BRASILEIRA DE                                         0000000023700118P00000002130599 00000000848180770020220100000340008905B03     201210112012071900000000054830000155300000000000166437000000000000000000000000011137050000000000  3020121123   01          2  RUA JUNO  533                                                                    3                         000000000000000                                     N                     00598  0000000        000024
12006000195000156M B A MERCANTIL BRASILEIRA DE                                         0000000023700118P00000002130599 00000000865388290020222900000500009205B02     201210122012081500000000054840000348964000000000373408000000000000000000000000024444050000000000  3020121123   01          2  RUA JUNO  533                                                                    3                         000000000000000                                     N                     00598  0000000        000025
12006000195000156M B A MERCANTIL BRASILEIRA DE                                         0000000023700118P00000002130599 00000000865388320020222900000530009206B02     201210132012081500000000054850000527560000000000563599000000000000000000000000036039050000000000  3020121123   01          2  RUA JUNO  533                                                                    3                         000000000000000                                     N                     00598  0000000        000026
12006000195000156M B A MERCANTIL BRASILEIRA DE                                         0000000023700118P00000002130599 00000000865388260020222900000470009204B02     201210112012081500000000054830000127292000000000136408000000000000000000000000009116050000000000  3020121123   01          2  RUA JUNO  533                                                                    3                         000000000000000                                     N                     00598  0000000        000027
12006000195000156M B A MERCANTIL BRASILEIRA DE                                         0000000023700118P00000002130599 00000000868592690020223600000020009229B02     201210112012081600000000054830000253414000000000271560000000000000000000000000018146050000000000  3020121123   01          2  RUA JUNO  533                                                                    3                         000000000000000                                     N                     00598  0000000        000028
12008272923000104P SANTOS ESQUADRARIAS METAL ME                                        0000000034100000000000000000000000000000896979550000006153947641850           201211222012100800000000055250000400000000000000409067000000000000000000000000009067050000000000  3020121123   01          2                                                                                   3156153947640160141951600039                                                  N                     01321  0000000        000029
12008879248000186FREFER METAL PLUS                                                     000000003410000000000000000000000000000090751878000000251738778EPI024022A     201211202012102300000000055230000998338000000001002232000000000000000000000000003894050000000000  3020121123   01          2                                                                                   3112517387786293811346700099                                                  N                     01321  0000000        000030
12008879248000186FREFER METAL PLUS                                                     000000003410000000000000000000000000000090920332000000252540538EPI024058A     201211222012102500000000055250000960939000000000962188000000000000000000000000001249050000000000  3020121123   01          2                                                                                   3112525405380293811346700099                                                  N                     01321  0000000        000031
12008879248000186FREFER METAL PLUS                                                     000000003410000000000000000000000000000092470557000000259814458EMO013946C     201301302012110700000000055940000535590000000000535590000000000000000000000000000000050000000000  3020130130   01FS        1                                                                                   3112598144585293811346700099                                                  N                     01321  0000000        000032
12009338857000190FERNANDO  NAGAO  CARDONE  ALVA                                        000000000330000000000000000000000000000091653176000000300000000ALTA 11 2012   201211202012103000000000055230000134632000000000137190000000000000000000000000002558050000000000  3020121123   01          2                                                                                   3947901700000051051630010119                                                  N                     01321  0000000        000033
12009338857000190FERNANDO  NAGAO  CARDONE  ALVA                                        000000000330000000000000000000000000000089697936000000800000000ALTA 10 2012   201210202012092500000000054920000134632000000000149714000000000000000000000000015082050000000000  3020121123   01          2                                                                                   3947901700000051050080010129                                                  N                     01321  0000000        000034
12012006058000121WEG TINTAS LTDA                                                       0000000023702727800000000001309 00000000870177490090224100000980016248002     201210262012082700000000054980000306569000000000317993000000000000000000000000011424050000000000  3020121123   01          2  R JUNO  533                                                                      3                         000000000000000                                     N                     00598  0000000        000035
12012006058000121WEG TINTAS LTDA                                                       0000000023702727800000000001309 00000000870177500090224100000990016248003     201211102012082700000000055130000306662000000000311966000000000000000000000000005304050000000000  3020121123   01          2  R JUNO  533                                                                      3                         000000000000000                                     N                     00598  0000000        000036
12012006058000121WEG TINTAS LTDA                                                       0000000023702727800000000001309 00000000872318660090224700001040016359602     201210302012083100000000055020000459854000000000474566000000000000000000000000014712050000000000  3020121123   01          2  R JUNO  533                                                                      3                         000000000000000                                     N                     00598  0000000        000037
12012006058000121WEG TINTAS LTDA                                                       0000000023702727800000000001309 00000000872318670090224700001050016359603     201211142012083100000000055170000459992000000000465509000000000000000000000000005517050000000000  3020121123   01          2  R JUNO  533                                                                      3                         000000000000000                                     N                     00598  0000000        000038
12012006058000121WEG TINTAS LTDA                                                       0000000023702727800000000001309 00000000864554460090222800000750015908403     201210282012081400000000055000000306662000000000317270000000000000000000000000010608050000000000  3020121123   01          2  R JUNO  533                                                                      3                         000000000000000                                     N                     00598  0000000        000039
12012006058000121WEG TINTAS LTDA                                                       0000000023702727800000000001309 00000000868126360090223500001190016086603     201211042012082100000000055070000306662000000000314414000000000000000000000000007752050000000000  3020121123   01          2  R JUNO  533                                                                      3                         000000000000000                                     N                     00598  0000000        000040
12012006058000121WEG TINTAS LTDA                                                       0000000023702727800000000001309 00000000878206050090225400000790016517202     201211052012090600000000055080000459854000000000470888000000000000000000000000011034050000000000  3020121123   01          2  R JUNO  533                                                                      3                         000000000000000                                     N                     00598  0000000        000041
12012006058000121WEG TINTAS LTDA                                                       0000000023702727800000000001309 00000000878206060090225400000800016517203     201211202012090600000000055230000459992000000000461831000000000000000000000000001839050000000000  3020121123   01          2  R JUNO  533                                                                      3                         000000000000000                                     N                     00598  0000000        000042
12012006058000121WEG TINTAS LTDA                                                       0000000023702727800000000001309 00000000882668410090225800000740016626901     201210282012091300000000055000000459854000000000475792000000000000000000000000015938050000000000  3020121123   01          2  R JUNO  533                                                                      3                         000000000000000                                     N                     00598  0000000        000043
12012006058000121WEG TINTAS LTDA                                                       0000000023702727800000000001309 00000000882668420090225800000750016626902     201211122012091300000000055150000459854000000000466597000000000000000000000000006743050000000000  3020121123   01          2  R JUNO  533                                                                      3                         000000000000000                                     N                     00598  0000000        000044
12014978305000187MOGI FILME INDUSTRIA E COMERCI                                        0000000023700402200000001055003 0000000090504098009022960000004430            201211222012102200000000055250000068425000000000068767000000000000000000000000000342050000000000  3020121123   01          2  RUA TAMAINDE 1410 VL NOVA MANCHESTER                                             3                         000000000000000                                     N                     00598  0000000        000045
12027278100000130EXPRESSO BOAS NOVAS LTDA                                              0000000034100000000000000000000000000000924705660000009004336671211000191     201212052012112100000000055380000014313000000000014313000000000000000000000000000000050000000000  3020121205   01FS        1                                                                                   3109004336674128259510500019                                                  N                     01321  0000000        000046
12033325184001786ALSCO TOALHEIRO BRASIL                                                0000000023703396000000001490850 0000000091741401009000002787905VM27879        201211212012110100000000055240000037363000000000037437000000000000000000000000000074050000000000  3020121123   01          2  RUA  GANGES 528                                                                  3                         000000000000000                                     N                     00598  0000000        000047
12035820448000136WHITE MARTINS GASES INDUSTRIAI                                        0000000023700026400000003937925 0000000090830964009023000010515399902 001     201211222012102600000000055250000017600000000000017600000000000000000000000000000000050000000000  3020121122   06          3  RUA GANGES  528                                                                  3                         000000000000000                                     N                     00598  0000000        000048
12042956441000101SOLUCOES ACO USIMINAS                                                 0000000034100000000000000000000000000000924705580000002601744200019069002     201301162012112000000000055800000391569000000000391569000000000000000000000000000000050000000000  3020130116   01FS        1                                                                                   3112601744207293807258000049                                                  N                     01321  0000000        000049
12042956441000101SOLUCOES ACO USIMINAS                                                 0000000034100000000000000000000000000000924705590000002601744210019068803     201302132012112000000000056080000488495000000000488495000000000000000000000000000000050000000000  3020130213   01FS        1                                                                                   3112601744215293807258000069                                                  N                     01321  0000000        000050
12042956441000101SOLUCOES ACO USIMINAS                                                 0000000034100000000000000000000000000000924705600000002601744110019069101     201212182012112000000000055510000162573000000000162573000000000000000000000000000000050000000000  3020121218   01FS        1                                                                                   3112601744116293807258000049                                                  N                     01321  0000000        000051
12042956441000101SOLUCOES ACO USIMINAS                                                 0000000034100000000000000000000000000000924705610000002601744120019069201     201212182012112000000000055510000192959000000000192959000000000000000000000000000000050000000000  3020121218   01FS        1                                                                                   3112601744124293807258000039                                                  N                     01321  0000000        000052
12042956441000101SOLUCOES ACO USIMINAS                                                 0000000034100000000000000000000000000000924705620000002601744130019068801     201212192012112000000000055520000488642000000000488642000000000000000000000000000000050000000000  3020121219   01FS        1                                                                                   3112601744132293807258000029                                                  N                     01321  0000000        000053
12042956441000101SOLUCOES ACO USIMINAS                                                 0000000034100000000000000000000000000000924705630000002601744160019069102     201301152012112000000000055790000162524000000000162524000000000000000000000000000000050000000000  3020130115   01FS        1                                                                                   3112601744165293807258000029                                                  N                     01321  0000000        000054
12042956441000101SOLUCOES ACO USIMINAS                                                 0000000034100000000000000000000000000000924705640000002601744140019068901     201212192012112000000000055520000248858000000000248858000000000000000000000000000000050000000000  3020121219   01FS        1                                                                                   3112601744140293807258000099                                                  N                     01321  0000000        000055
12042956441000101SOLUCOES ACO USIMINAS                                                 0000000034100000000000000000000000000000924705650000002601744150019069001     201212192012112000000000055520000391686000000000391686000000000000000000000000000000050000000000  3020121219   01FS        1                                                                                   3112601744157293807258000019                                                  N                     01321  0000000        000056
12042956441000101SOLUCOES ACO USIMINAS                                                 0000000034100000000000000000000000000000924705500000002601744220019068903     201302132012112000000000056080000248783000000000248783000000000000000000000000000000050000000000  3020130213   01FS        1                                                                                   3112601744223293807258000079                                                  N                     01321  0000000        000057
12042956441000101SOLUCOES ACO USIMINAS                                                 0000000034100000000000000000000000000000924705510000002601744230019069003     201302132012112000000000056080000391569000000000391569000000000000000000000000000000050000000000  3020130213   01FS        1                                                                                   3112601744231293807258000019                                                  N                     01321  0000000        000058
12042956441000101SOLUCOES ACO USIMINAS                                                 0000000034100000000000000000000000000000924705520000002601744170019069202     201301152012112000000000055790000192901000000000192901000000000000000000000000000000050000000000  3020130115   01FS        1                                                                                   3112601744173293807258000069                                                  N                     01321  0000000        000059
12042956441000101SOLUCOES ACO USIMINAS                                                 0000000034100000000000000000000000000000924705530000002601744240019069103     201302132012112000000000056080000162523000000000162523000000000000000000000000000000050000000000  3020130213   01FS        1                                                                                   3112601744249293807258000029                                                  N                     01321  0000000        000060
12042956441000101SOLUCOES ACO USIMINAS                                                 0000000034100000000000000000000000000000924705540000002601744180019068802     201301162012112000000000055800000488495000000000488495000000000000000000000000000000050000000000  3020130116   01FS        1                                                                                   3112601744181293807258000089                                                  N                     01321  0000000        000061
12042956441000101SOLUCOES ACO USIMINAS                                                 0000000034100000000000000000000000000000924705550000002601744250019069203     201302132012112000000000056080000192900000000000192900000000000000000000000000000000050000000000  3020130213   01FS        1                                                                                   3112601744256293807258000029                                                  N                     01321  0000000        000062
12042956441000101SOLUCOES ACO USIMINAS                                                 0000000034100000000000000000000000000000924705560000002601744190019068902     201301162012112000000000055800000248783000000000248783000000000000000000000000000000050000000000  3020130116   01FS        1                                                                                   3112601744199293807258000059                                                  N                     01321  0000000        000063
12042956441000101SOLUCOES ACO USIMINAS                                                 0000000034100000000000000000000000000000859590620000002274469790017353702     201209282012080300000000054700000081053000000000090125000000000000000000000000009072050000000000  3020121123   01          2                                                                                   3112274469793293807258000069                                                  N                     01321  0000000        000064
12042956441000101SOLUCOES ACO USIMINAS                                                 0000000034100000000000000000000000000000855028770000002254329400017220502     201209212012072700000000054630000981022000000001104628000000000000000000000000123606050000000000  3020121123   01          2                                                                                   3112254329405293807258000099                                                  N                     01321  0000000        000065
12042956441000101SOLUCOES ACO USIMINAS                                                 0000000034100000000000000000000000000000846595700000002210880280016980502     201209102012071200000000054520000156071000000000179159000000000000000000000000023088050000000000  3020121123   01          2                                                                                   3112210880285293807258000039                                                  N                     01321  0000000        000066
12042956441000101SOLUCOES ACO USIMINAS                                                 0000000034100000000000000000000000000000846595710000002210880290016980602     201209102012071200000000054520000426094000000000489142000000000000000000000000063048050000000000  3020121123   01          2                                                                                   3112210880293293807258000019                                                  N                     01321  0000000        000067
12042956441000101SOLUCOES ACO USIMINAS                                                 0000000034100000000000000000000000000000847452070000002216130350005922202     201209102012071600000000054520000172071000000000197527000000000000000000000000025456050000000000  3020121123   01          2                                                                                   3112216130354293807258000049                                                  N                     01321  0000000        000068
12042956441000101SOLUCOES ACO USIMINAS                                                 0000000034100000000000000000000000000000847452100000002216130340017012402     201209102012071500000000054520000147428000000000169258000000000000000000000000021830050000000000  3020121123   01          2                                                                                   3112216130347293807258000059                                                  N                     01321  0000000        000069
12042956441000101SOLUCOES ACO USIMINAS                                                 0000000034100000000000000000000000000000855028700000002254329390017213002     201209212012072600000000054630000140602000000000158305000000000000000000000000017703050000000000  3020121123   01          2                                                                                   3112254329397293807258000089                                                  N                     01321  0000000        000070
12042956441000101SOLUCOES ACO USIMINAS                                                 0000000034100000000000000000000000000000855028760000002254329470017220503     201211192012072700000000055220000981022000000000988870000000000000000000000000007848050000000000  3020121123   01          2                                                                                   3112254329470293807258000019                                                  N                     01321  0000000        000071
12042956441000101SOLUCOES ACO USIMINAS                                                 0000000034100000000000000000000000000000853154840000002246247030017196702     201209202012072500000000054620000234841000000000264921000000000000000000000000030080050000000000  3020121123   01          2                                                                                   3112246247038293807258000099                                                  N                     01321  0000000        000072
12042956441000101SOLUCOES ACO USIMINAS                                                 0000000034100000000000000000000000000000853154850000002246247040017197302     201209202012072500000000054620000970103000000001094263000000000000000000000000124160050000000000  3020121123   01          2                                                                                   3112246247046293807258000019                                                  N                     01321  0000000        000073
12042956441000101SOLUCOES ACO USIMINAS                                                 0000000034100000000000000000000000000000855028780000002254329410017200203     201211192012072600000000055220000680385000000000685829000000000000000000000000005444050000000000  3020121123   01          2                                                                                   3112254329413293807258000089                                                  N                     01321  0000000        000074
12042956441000101SOLUCOES ACO USIMINAS                                                 0000000034100000000000000000000000000000855028810000002254329440017202403     201211192012072600000000055220000244137000000000246089000000000000000000000000001952050000000000  3020121123   01          2                                                                                   3112254329447293807258000059                                                  N                     01321  0000000        000075
12042956441000101SOLUCOES ACO USIMINAS                                                 0000000034100000000000000000000000000000856906410000002262886280017266201     201208282012073000000000054390000119472000000000140265000000000000000000000000020793050000000000  3020121123   01          2                                                                                   3112262886289293807258000089                                                  N                     01321  0000000        000076
12042956441000101SOLUCOES ACO USIMINAS                                                 0000000034100000000000000000000000000000856906420000002262886290017266301     201208282012073000000000054390000145069000000000170299000000000000000000000000025230050000000000  3020121123   01          2                                                                                   3112262886297293807258000099                                                  N                     01321  0000000        000077
12042956441000101SOLUCOES ACO USIMINAS                                                 0000000034100000000000000000000000000000856906450000002262886320017266203     201211222012073000000000055250000119436000000000119675000000000000000000000000000239050000000000  3020121123   01          2                                                                                   3112262886321293807258000059                                                  N                     01321  0000000        000078
12042956441000101SOLUCOES ACO USIMINAS                                                 0000000034100000000000000000000000000000856906460000002262886330017266303     201211222012073000000000055250000145026000000000145316000000000000000000000000000290050000000000  3020121123   01          2                                                                                   3112262886339293807258000019                                                  N                     01321  0000000        000079
12042956441000101SOLUCOES ACO USIMINAS                                                 0000000034100000000000000000000000000000853154860000002246247050017196603     201211192012072500000000055220000804807000000000811247000000000000000000000000006440050000000000  3020121123   01          2                                                                                   3112246247053293807258000059                                                  N                     01321  0000000        000080
12042956441000101SOLUCOES ACO USIMINAS                                                 0000000034100000000000000000000000000000853154870000002246247060017196703     201211192012072500000000055220000234840000000000236720000000000000000000000000001880050000000000  3020121123   01          2                                                                                   3112246247061293807258000019                                                  N                     01321  0000000        000081
12042956441000101SOLUCOES ACO USIMINAS                                                 0000000034100000000000000000000000000000848180700000002220192900017041002     201209112012071700000000054530000155433000000000178136000000000000000000000000022703050000000000  3020121123   01          2                                                                                   3112220192903293807258000029                                                  N                     01321  0000000        000082
12042956441000101SOLUCOES ACO USIMINAS                                                 0000000034100000000000000000000000000000848180710000002220192910017041202     201209112012071700000000054530000205421000000000235424000000000000000000000000030003050000000000  3020121123   01          2                                                                                   3112220192911293807258000019                                                  N                     01321  0000000        000083
12042956441000101SOLUCOES ACO USIMINAS                                                 0000000034100000000000000000000000000000850740460000002233586800017127201     201208202012072000000000054310000137881000000000164101000000000000000000000000026220050000000000  3020121123   01          2                                                                                   3112233586802293807258000019                                                  N                     01321  0000000        000084
12042956441000101SOLUCOES ACO USIMINAS                                                 0000000034100000000000000000000000000000850740470000002233586810017101002     201209142012071900000000054560000732575000000000835125000000000000000000000000102550050000000000  3020121123   01          2                                                                                   3112233586810293807258000019                                                  N                     01321  0000000        000085
12042956441000101SOLUCOES ACO USIMINAS                                                 0000000034100000000000000000000000000000850740480000002233586820017101202     201209142012071900000000054560000144634000000000164864000000000000000000000000020230050000000000  3020121123   01          2                                                                                   3112233586828293807258000029                                                  N                     01321  0000000        000086
12042956441000101SOLUCOES ACO USIMINAS                                                 0000000034100000000000000000000000000000853154880000002246247070017197303     201211192012072500000000055220000970103000000000977863000000000000000000000000007760050000000000  3020121123   01          2                                                                                   3112246247079293807258000059                                                  N                     01321  0000000        000087
12042956441000101SOLUCOES ACO USIMINAS                                                 0000000034100000000000000000000000000000855028690000002254329380017212902     201209212012072600000000054630000140098000000000157738000000000000000000000000017640050000000000  3020121123   01          2                                                                                   3112254329389293807258000019                                                  N                     01321  0000000        000088
12045635984000115CRIFER LAMINADOS ACO FERRO LTD                                        0000000034100000000000000000000000000000909203340000009000268640035771E01     201211212012102400000000055240000454608000000000456426000000000000000000000000001818050000000000  3020121123   01          2                                                                                   3109000268640005630080900099                                                  N                     01321  0000000        000089
12045987005000198D PASCHOAL AUTOMOTIVA LTDA                                            0000000023702002800000000147001 00000000886866610110000000171660000000036     201211192012091900000000055220000032500000000000033318000000000000000000000000000818050000000000  3020121123   01          2  R   TAMAINDE                       01410                                         3                         000000000000000                                     N                     00598  0000000        000090
12047190731000100DE CASTRO LOUR ENG IND LTDA                                           00000000341000000000000000000000000000008782052100000023399955903026643 0     201209202012082300000000054620000867039000000000976159000000000000000000000000109120050000000000  3020121123   01          2                                                                                   3112339995592036884500400049                                                  N                     01321  0000000        000091
12047190731000100DE CASTRO LOUR ENG IND LTDA                                           00000000341000000000000000000000000000008782050900000023399953503026612 0     201209182012082100000000054600001111489000000001255765000000000000000000000000144276050000000000  3020121123   01          2                                                                                   3112339995352036884500400019                                                  N                     01321  0000000        000092
12047190731000100DE CASTRO LOUR ENG IND LTDA                                           00000000341000000000000000000000000000008782052200000023399955403026632 0     201211212012082200000000055240000952073000000000955817000000000000000000000000003744050000000000  3020121123   01          2                                                                                   3112339995543036884500400099                                                  N                     01321  0000000        000093
12047190731000100DE CASTRO LOUR ENG IND LTDA                                           00000000341000000000000000000000000000008782051200000023399953803026613 0     201209182012082100000000054600001107989000000001251803000000000000000000000000143814050000000000  3020121123   01          2                                                                                   3112339995386036884500400039                                                  N                     01321  0000000        000094
12047190731000100DE CASTRO LOUR ENG IND LTDA                                           00000000341000000000000000000000000000008782052400000023399956003026643 0     201211222012082300000000055250000867039000000000868744000000000000000000000000001705050000000000  3020121123   01          2                                                                                   3112339995600036884500400069                                                  N                     01321  0000000        000095
12047190731000100DE CASTRO LOUR ENG IND LTDA                                           00000000341000000000000000000000000000008782051300000023399953903026613 0     201211202012082100000000055230001107989000000001114526000000000000000000000000006537050000000000  3020121123   01          2                                                                                   3112339995394036884500400019                                                  N                     01321  0000000        000096
12047190731000100DE CASTRO LOUR ENG IND LTDA                                           00000000341000000000000000000000000000008782051500000023399953603026612 0     201211202012082100000000055230001111489000000001118047000000000000000000000000006558050000000000  3020121123   01          2                                                                                   3112339995360036884500400079                                                  N                     01321  0000000        000097
12047190731000100DE CASTRO LOUR ENG IND LTDA                                           00000000341000000000000000000000000000008782051600000023399954103026614 0     201209182012082100000000054600001047621000000001183581000000000000000000000000135960050000000000  3020121123   01          2                                                                                   3112339995410036884500400039                                                  N                     01321  0000000        000098
12047190731000100DE CASTRO LOUR ENG IND LTDA                                           00000000341000000000000000000000000000008782052500000023399955603026636 0     201209192012082200000000054610000940804000000001061054000000000000000000000000120250050000000000  3020121123   01          2                                                                                   3112339995568036884500400049                                                  N                     01321  0000000        000099
12047190731000100DE CASTRO LOUR ENG IND LTDA                                           00000000341000000000000000000000000000008782052700000023399956203026648 0     201209202012082300000000054620000976053000000001098933000000000000000000000000122880050000000000  3020121123   01          2                                                                                   3112339995626036884500400029                                                  N                     01321  0000000        000100
12047190731000100DE CASTRO LOUR ENG IND LTDA                                           00000000341000000000000000000000000000008782052800000023399956303026648 0     201211222012082300000000055250000976053000000000977973000000000000000000000000001920050000000000  3020121123   01          2                                                                                   3112339995634036884500400019                                                  N                     01321  0000000        000101
12047190731000100DE CASTRO LOUR ENG IND LTDA                                           00000000341000000000000000000000000000008782051700000023399954203026614 0     201211202012082100000000055230001047621000000001053801000000000000000000000000006180050000000000  3020121123   01          2                                                                                   3112339995428036884500400079                                                  N                     01321  0000000        000102
12047190731000100DE CASTRO LOUR ENG IND LTDA                                           00000000341000000000000000000000000000008782051800000023399955703026636 0     201211212012082200000000055240000940804000000000944504000000000000000000000000003700050000000000  3020121123   01          2                                                                                   3112339995576036884500400019                                                  N                     01321  0000000        000103
12047190731000100DE CASTRO LOUR ENG IND LTDA                                           00000000341000000000000000000000000000008782052000000023399955303026632 0     201209192012082200000000054610000952073000000001073753000000000000000000000000121680050000000000  3020121123   01          2                                                                                   3112339995535036884500400019                                                  N                     01321  0000000        000104
12048775225000146SEIKI IND COM E CONFECCOES LTD                                        000000003410000000000000000000000000000089337376000000244697151014914001      201210232012092500000000054950000052000000000000054418000000000000000000000000002418050000000000  3020121123   01          2                                                                                   3112446971510017444824100089                                                  N                     01321  0000000        000105
12051180370000199IGUAFER FERRO E ACO LTDA                                              0000000034100000000000000000000000000000852309100000002239389789443 B         201209022012071800000000054440000168275000000000191235000000000000000000000000022960050000000000  3020121123   01          2                                                                                   3112239389789077149484600089                                                  N                     01321  0000000        000106
12051180370000199IGUAFER FERRO E ACO LTDA                                              0000000034100000000000000000000000000000852309110000002239389799443 C         201209122012071800000000054540000168275000000000188435000000000000000000000000020160050000000000  3020121123   01          2                                                                                   3112239389797077149484600089                                                  N                     01321  0000000        000107
12053585766000141MULTIACOS I C PRODS TEC LTDA                                          0000000042200000000000000000000000000000895189340000000000000000004737202     201211202012100200000000055230000362578000000000364389000000000000000000000000001811050000000000  3020121123   01          2                                                                                   3711500005033164927761785169                                                  N                     01321  0000000        000108
12053585766000141MULTIACOS I C PRODS TEC LTDA                                          0000000042200000000000000000000000000000890456980000000000000000004724302     201211162012092500000000055190000268274000000000271402000000000000000000000000003128050000000000  3020121123   01          2                                                                                   3711500005033164925775169159                                                  N                     01321  0000000        000109
12053585766000141MULTIACOS I C PRODS TEC LTDA                                          0000000042200000000000000000000000000000895189660000000000000000004750002     201211222012100200000000055250000222869000000000223239000000000000000000000000000370050000000000  3020121123   01          2                                                                                   3711500005033164927762129119                                                  N                     01321  0000000        000110
12053585766000141MULTIACOS I C PRODS TEC LTDA                                          0000000042200000000000000000000000000000895189720000000000000000004685003     201211222012100200000000055250000547346000000000548257000000000000000000000000000911050000000000  3020121123   01          2                                                                                   3711500005033164927762200139                                                  N                     01321  0000000        000111
12053585766000141MULTIACOS I C PRODS TEC LTDA                                          0000000042200000000000000000000000000000895189800000000000000000004674403     201211202012100200000000055230000385696000000000387624000000000000000000000000001928050000000000  3020121123   01          2                                                                                   3711500005033164927762234199                                                  N                     01321  0000000        000112
12053585766000141MULTIACOS I C PRODS TEC LTDA                                          0000000042200000000000000000000000000000883508220000000000000000004674503     201211202012091300000000055230000274012000000000275382000000000000000000000000001370050000000000  3020121123   01          2                                                                                   3711500005033164921116497199                                                  N                     01321  0000000        000113
12053585766000141MULTIACOS I C PRODS TEC LTDA                                          0000000042200000000000000000000000000000883508240000000000000000004674603     201211202012091300000000055230000126819000000000127451000000000000000000000000000632050000000000  3020121123   01          2                                                                                   3711500005033164921116462169                                                  N                     01321  0000000        000114
12053585766000141MULTIACOS I C PRODS TEC LTDA                                          0000000042200000000000000000000000000000890456920000000000000000004724102     201211202012092500000000055230000127900000000000128538000000000000000000000000000638050000000000  3020121123   01          2                                                                                   3711500005033164925775134149                                                  N                     01321  0000000        000115
12053585766000141MULTIACOS I C PRODS TEC LTDA                                          0000000042200000000000000000000000000000890456940000000000000000004724402     201211162012092500000000055190000522661000000000528757000000000000000000000000006096050000000000  3020121123   01          2                                                                                   3711500005033164925775193119                                                  N                     01321  0000000        000116
12054382510000108SETENTA IND E COM DE MADEIRAS                                         0000000034100000000000000000000000000000860403430000002277814474462 A         201209042012080700000000054460000191200000000000221280000000000000000000000000030080050000000000  3020121123   01          2                                                                                   3112277814474057049175300069                                                  N                     01321  0000000        000117
12056993512000150CYKLOP DO BRASIL EMBALAGENS SA                                        0000000034100000000000000000000000000000874070500000002362586810134932        201210012012090300000000054730000083607000000000099878000000000000000000000000016271050000000000  3020121123   01          2                                                                                   3112362586813025700015800019                                                  N                     01321  0000000        000118
12059358770000153TRANS NEW ABC TRANSPORTADORA L                                        0000000023701193200000000698555 000000009183388500901323120763555320          201211222012110700000000055250000137001000000000137138000000000000000000000000000137050000000000  3020121123   01          2  RUA GANGES 528                                                                   3                         000000000000000                                     N                     00598  0000000        000119
12059659615000177DZ COMERCIO R E SERVICOS LTDA                                         000000003410000000000000000000000000000091358507000000900000321280            201211172012102400000000055200000060000000000000060720000000000000000000000000000720050000000000  3020121123   01          2                                                                                   3109000003217000314585100039                                                  N                     01321  0000000        000120
12061683652000162TRANS FACE TRANSPORTES LTDA                                           0000000023700530400000000141828 0000000091358502009000000110375I000085343     201211202012110500000000055230000081000000000000081657000000000000000000000000000657050000000000  3020121123   01          2  R JUNO 553                                                                       3                         000000000000000                                     N                     00598  0000000        000121
12062510367000102ITANHAEM TRANSP DE MAQUINAS LT                                        000000003410000000000000000000000000000087407049000000236463199667            201209202012090400000000054620000248220000000000311772000000000000000000000000063552050000000000  3020121123   01          2                                                                                   3112364631997005770252400049                                                  N                     01321  0000000        000122
12062539994000176LEALFER INDUSTRIA E COMERCIO D                                        0000000003300000000000000000000000000000872953050000004700000000005424703     201211222012083000000000055250000656670000000000657786000000000000000000000000001116050000000000  3020121123   01          2                                                                                   3915298380000000259047010469                                                  N                     01321  0000000        000123
12062539994000176LEALFER INDUSTRIA E COMERCIO D                                        0000000003300000000000000000000000000000893373920000007800000000005563002     201211212012092500000000055240000136948000000000137413000000000000000000000000000465050000000000  3020121123   01          2                                                                                   3915298380000000272078010449                                                  N                     01321  0000000        000124
12062539994000176LEALFER INDUSTRIA E COMERCIO D                                        0000000003300000000000000000000000000000893373940000008300000000005580302     201211222012092700000000055250000451213000000000451980000000000000000000000000000767050000000000  3020121123   01          2                                                                                   3915298380000000272183010429                                                  N                     01321  0000000        000125
12062539994000176LEALFER INDUSTRIA E COMERCIO D                                        0000000003300000000000000000000000000000893373970000009100000000005576002     201211222012092600000000055250000243236000000000243650000000000000000000000000000414050000000000  3020121123   01          2                                                                                   3915298380000000272191010419                                                  N                     01321  0000000        000126
12062539994000176LEALFER INDUSTRIA E COMERCIO D                                        0000000003300000000000000000000000000000893373980000003500000000005568402     201211212012092500000000055240000891184000000000894214000000000000000000000000003030050000000000  3020121123   01          2                                                                                   3915298380000000272035010479                                                  N                     01321  0000000        000127
12062539994000176LEALFER INDUSTRIA E COMERCIO D                                        0000000003300000000000000000000000000000893374000000001300000000005575002     201211222012092600000000055250000300979000000000301490000000000000000000000000000511050000000000  3020121123   01          2                                                                                   3915298380000000272213010449                                                  N                     01321  0000000        000128
12062539994000176LEALFER INDUSTRIA E COMERCIO D                                        0000000003300000000000000000000000000000910265830000008000000000005732501     201211222012102400000000055250000828588000000000829996000000000000000000000000001408050000000000  3020121123   01          2                                                                                   3915298380000000281980010469                                                  N                     01321  0000000        000129
12064952757000168WALMAC COM DE PROD QUIMICOS LT                                        0000000034100000000000000000000000000000896979500000002462157550021611        201211012012100400000000055040000219267000000000228749000000000000000000000000009482050000000000  3020121123   01          2                                                                                   3112462157556064807961400019                                                  N                     01321  0000000        000130
12064952757000168WALMAC COM DE PROD QUIMICOS LT                                        0000000034100000000000000000000000000000860403440000002275821690020148        201210262012080300000000054980000219266000000000231334000000000000000000000000012068050000000000  3020121123   01          2                                                                                   3112275821695064807961400019                                                  N                     01321  0000000        000131
12064952757000168WALMAC COM DE PROD QUIMICOS LT                                        0000000034100000000000000000000000000000860403450000002275821700020148        201210052012080300000000054770000219267000000000240386000000000000000000000000021119050000000000  3020121123   01          2                                                                                   3112275821703064807961400029                                                  N                     01321  0000000        000132
12066841552000130R V SEG PATRIMONIAL LTDA                                              00000000341000000000000000000000000000008852483200000090002192721927          201209102012081000000000054520000483241000000000495155000000000000000000000000011914050000000000  3020121123   01          2                                                                                   3109000219270001835253400099                                                  N                     01321  0000000        000133
12066841552000130R V SEG PATRIMONIAL S C LTDA                                          00000000341000000000000000000000000000008887329800000090002213622136          201210102012091100000000054820000374758000000000380258000000000000000000000000005500050000000000  3020121123   01          2                                                                                   3109000221365001838994000069                                                  N                     01321  0000000        000134
12067300160000127OSACO PRODUTOS SIDERURGICOS LT                                        0000000023702415500000000063002 0000000091141011009024151670122662 01 01      201211212012103100000000055240000106118000000000110363000000000000000000000000004245050000000000  3020121123   01          2  RUA JUNO  533                                                                    3                         000000000000000                                     N                     00598  0000000        000135
12069284248000128ISOCOAT TINTAS E VERNIZES LTDA                                        0000000034100000000000000000000000000000888732960000002421485720055761        201211202012092100000000055230000093324000000000094071000000000000000000000000000747050000000000  3020121123   01          2                                                                                   3112421485726077430121200069                                                  N                     01321  0000000        000136
12069284248000128ISOCOAT TINTAS E VERNIZES LTDA                                        0000000034100000000000000000000000000000895189830000002456588190056254        201211162012100200000000055190000365668000000000372493000000000000000000000000006825050000000000  3020121123   01          2                                                                                   3112456588196077430121200019                                                  N                     01321  0000000        000137
12069284248000128ISOCOAT TINTAS E VERNIZES LTDA                                        0000000034100000000000000000000000000000841061040000002182507930052085        201209172012070200000000054590000236130000000000278340000000000000000000000000042210050000000000  3020121123   01          2                                                                                   3112182507932077430121200019                                                  N                     01321  0000000        000138
12069309706000136F N A TRANSPORTES LTDA                                                000000003410000000000000000000000000000091358508000000900012193060709         201211152012103100000000055180000025323000000000025911000000000000000000000000000672050000000000  3020121122   06          3                                                                                   3109000121937005486932600019                                                  N                     01321  0000000        000139
12096500087000135WORKBENCH CONSULTORIA S S LTDA                                        0000000034100000000000000000000000000000878205840000007940034283118           201209272012090300000000054690000131746000000000146509000000000000000000000000014763050000000000  3020121123   01          2                                                                                   3157940034289826313803700089                                                  N                     01321  0000000        000140
900014100000000059461976                                                                                                                                                                                                                                                                                                                                                                                                                                                                01321  0000000        000141
