0000147602043799295000110ALTAMIRA IND METALURGICA LTDA           20100538000002012102416173100000        2    230A                                                                                          000000000000000                                                                                                                                                                                                                                                                                   000001
12061074175000138MAPFRE VERA CRUZ SEGURADORA S RUA GANGES 528                          0344503000100000 0000000000000  I000000000010073000000000000000               201210240000000000000000054960000030746000000000030746000000000000000000000000000000010000000718  3120121024   01HA        000                                                                                 3458810437992950181436362149             00718                                N                     00000 10020256        000002
12008508119000181DINARI FOMENTO MERCANTIL LTDA AV PAULO FACCINI 649 ATUAL 645 2 E 3 PAV0711100023702499600000000172308 I000000000010074000000000000000               201210240000000000000000000000000000000000000000310000000000000000000000000000000000050000003310  0120121024   01HA        000                                                                                 3                                        0003310                              N                     00000 10020256        000003
900000400000000000340746                                                                                                                                                                                    000000000000000                                                                                                                                                                                                                                                    00000200054960000030746        000004
