0000147602043799295000110ALTAMIRA IND METALURGICA LTDA           20100537000002012102409530700000        2    230A                                                                                          000000000000000                                                                                                                                                                                                                                                                                   000001
12043799295000110ALTAMIRA INDUSTRIA METAL LTDA RUA  GANGES  528                        0344503003303809500000130004071 I000000000010070000000000000000               201210240000000000000000000000000000000000000004800000000000000000000000000000000000050000000001  0820121024   01HA        0001020                                                                             3D0000000101                             0001                                 S                     00000  0020256        000002
12043799295000110ALTAMIRA INDUSTRIA METAL LTDA RUA  GANGES  528                        0344503034100467 00000000209128 I000000000010071000000000000000               201210240000000000000000000000000000000000000000400000000000000000000000000000000000050000000002  0820121024   01HA        0001020                                                                             3D0000000101                             0002                                 S                     00000  0020256        000003
12000867888000164TECNEQUIP TECNOLOGIA EQUIP LTDRUA  GANGES                             0344503003303809500000130003245 I000000000010072000000000000000               201210240000000000000000000000000000000000000000900000000000000000000000000000000000050000000003  0820121024   01HA        0001020                                                                             3C0000000101                             0003                                 N                     00000  0020256        000004
900000500000000006100000                                                                                                                                                                                    000000000000000                                                                                                                                                                                                                                                    00000300000000000000000        000005
