0000147602043799295000110ALTAMIRA INDUSTRIA METALURGICA LT       202000000192720121024212509             3                                                                                                  000000000000000                                                                                                                                                                                                                                                                                   000001
12061074175000138MAPFRE VERA CRUZ SEGURADORA S                                         0000000000100000 0000000000000  I000000000010073000000000000000               201210240000000000000000054960000030746000000000030746000000000000000000000000000000010000000718  3120121024   02BW        5000000               000000000000000                                               3458810437992950181436362149               718                                N                     01132 10020256        000002
12043799295000110ALTAMIRA INDUSTRIA METAL LTDA                                         0000000034100467 00000000209128 I000000000010071000000000000000               201210240000000000000000000000000000000000000000400000000000000000000000000000000000050000000002  0820121024   02BW        5001020               000000000000000                                               3D0000000101                               02                                 S                     01133 10020256        000003
12000867888000164TECNEQUIP TECNOLOGIA EQUIP LTD                                        0000000003303809500000130003245 I000000000010072000000000000000               201210240000000000000000000000000000000000000000900000000000000000000000000000000000050000000003  0820121024   02BW        5001020               000000000000000                                               3C0000000101                               03                                 N                     01076 10020256        000004
12043799295000110ALTAMIRA INDUSTRIA METAL LTDA                                         0000000003303809500000130004071 I000000000010070000000000000000               201210240000000000000000000000000000000000000004800000000000000000000000000000000000050000000001  0820121024   02BW        5001020               000000000000000                                               3D0000000101                               01                                 S                     01133 10020256        000005
12008508119000181DINARI FOMENTO MERCANTIL LTDA AV PAULO FACCINI 649 ATUAL 645 2 E 3 PAV0711100023702499600000000172308 I000000000010074000000000000000               201210240000000000000000000000000000000000000000310000000000000000000000000000000000050000003310  0120121024   02BW        5000000               000000000000000                                               3                                          03310                              N                     01321 10020256        000006
900000700000000006440746                                                                                                                                                                                    000000000000000                                                                                                                                                                                                                                                    00000500054960000030746        000007
