0000147602043799295000110ALTAMIRA IND METALURGICA LTDA           20100509000002012092417241400000        2    230A                                                                                          000000000000000                                                                                                                                                                                                                                                                                   000001
12066841552000130RV SEGURANCA PATRIM LTDA      RUA  MACEIO  283                        0955103034100000 0000000000000  I000000000009909000000000000000               201209240000000000000000054660000485495000000000485495000000000000000000000000000000010000021927  3120120924   01HA        000                                                                                 3181547370593001835253400019             0021927/01                           N                     00000 10020256        000002
12005151518000140BELENUS DO BRASIL LTDA        RUA COMENDADOR JOAO LUCAS  300          1328000000100000 0000000000000  I000000000009910000000000000000               201209240000000000000000054660000469926000000000469926000000000000000000000000000000010000289197  3120120924   01HA        000                                                                                 3000000123933843930014983129             00289197/02                          N                     00000 10020256        000003
12069284248000128ISOCOAT TINTAS E VERNIZES LTDARUA  COM GIUSEPPE MARCHIORI  2189       1814700034100000 0000000000000  I000000000009911000000000000000               201209240000000000000000054660000240540000000000240540000000000000000000000000000000010000052085  3120120924   01HA        000                                                                                 3181547368521077430121200029             0052085/03                           N                     00000 10020256        000004
12054382510000108SETENTA IND E COM DE MAD LTDA ROD REGIS BITTENCOURT KM 324  2410      0695000034100000 0000000000000  I000000000009912000000000000000               201209240000000000000000054660000198720000000000198720000000000000000000000000000000010000004462  3120120924   01HA        000                                                                                 3181547361663057049175300019             004462/01                            N                     00000 10020256        000005
12011318709000156MARTINS MARIANO TRANSP LTDA   RUA  VOLTOLINOS  71                     0000000034100000 0000000000000  I000000000009913000000000000000               201209240000000000000000054660000059768000000000059768000000000000000000000000000000010000006237  3120120924   01HA        000                                                                                 3181547366834007265858600019             006237                               N                     00000 10020256        000006
12033325184001786ALSCO TOALHEIRO BRASIL LTDA   AV NADIR DIAS DE FIGUEIREDO  829        0211000023703396000000001490850 I000000000009914009000002698905               201209240000000000000000054660000040570000000000040570000000000000000000000000000000010000026989  3120120924   01HA        000                                                                                 3339609000026989050149085049             00026989                             N                     00000 10020256        000007
12011202309000180FIEL TOOLS DISTRIB DE MAQ FERRESTRADA SANTA ISABEL  3242              0859900023702087700000000000116 I000000000009915028000020190022               201209240000000000000000054660000042353000000000042353000000000000000000000000000000010000009002  3120120924   01HA        000                                                                                 3208728000201900220000011019             009002/02                            N                     00000 10020256        000008
12007068566000102NIVEL EMPREGOS LTDA           AV CELSO GARCIA 3830                    0306400023700097300000003053792 I000000000009916000000000000000               201209240000000000000000000000000000000000000000232981000000000000000000000000000000010000002770  0120120924   01HA        000                                                                                 3                                        00NF.NRO.2770 - PARC.01.             N                     00000 10020256        000009
12004455726000170INTERCLICK INFORMATICA S C LTDR JORGE AUGUSTO 83 SL 84 PENHA          0364500023702451100000000099449 I000000000009917000000000000000               201209240000000000000000000000000000000000000000350000000000000000000000000000000000010000001201  0120120924   01HA        000                                                                                 3                                        00NF.NRO.1201 - PARC.02.             N                     00000 10020256        000010
12058119371000177SOFTMATIC SIST AUTOMATICOS I  R VISC DE ITABORAI 368 TATUAPE          0330805023700503700000000362034 I000000000009918000000000000000               201209240000000000000000000000000000000000000000041973000000000000000000000000000000010000470238  0120120924   01HA        000                                                                                 3                                        00NF.NRO.0470238'                    N                     00000 10020256        000011
12002503185000182ANDAIMES MAQUINAS BIG LTDA    AV PROF LUIZ ANHAIA MELLO  600          0315410003300000 0000000000000  I000000000009919000000000000000               201209240000000000000000054660000036836000000000036836000000000000000000000000000000010000005169  3120120924   01HA        000                                                                                 3909689780000000647128010499             005169                               N                     00000 10020256        000012
12075483040000130REX MAQ E EQUIPAMENTOS LTDA                                           0000000023702656500000000000701 I000000000009920002022160000321               201209240000000000000000054660000387064000000000387064000000000000000000000000000000010000078261  3120120924   01HA        000                                                                                 3265602221600003210000070019             00078261/02                          N                     00000 10020256        000013
12006209559000102MAZURKY IND COM EMBALAGENS LTDRUA  DAS ORQUIDEAS  475                 0981039034100000 0000000000000  I000000000009921000000000000000               201209240000000000000000054660000094142000000000094142000000000000000000000000000000010000010076  3120120924   01HA        000                                                                                 3181546577442151434240900069             00010076/01                          N                     00000 10020256        000014
12002503185000182ANDAIMES MAQUINAS BIG LTDA    AV PROF LUIZ ANHAIA MELLO  600          0315410034100000 0000000000000  I000000000009922000000000000000               201209240000000000000000054660000026571000000000026571000000000000000000000000000000010000011791  3120120924   01HA        000                                                                                 3181547435423925303435000029             00011791                             N                     00000 10020256        000015
900001600000000002706939                                                                                                                                                                                    000000000000000                                                                                                                                                                                                                                                    00001400601260002081985        000016
