0000147602043799295000110ALTAMIRA INDUSTRIA METALURGICA LT       202000000017420121124060131             1                                                                                                                                                                                                                                                                                                                                                                                                    000001
12001895314000162COLETA INDUSTRIAL FIMAVAN LTDA                                        0000000034100000000000000000000000000000866992070000009002335349439           201208272012081700000000054380000123695000000000156108000000000000000000000000032413050000000000  3020121126   01          2                                                                                   3109002335346144604097200019                                                  N                     01321  0000000        000002
12003102481000134AB5 IND E COMERCIO LTDA EPP                                           0000000034100000000000000000000000000000909203330000009000042483169           201211202012102300000000055230000119250000000000120444000000000000000000000000001194050000000000  3020121126   01          2                                                                                   3109000042489003154755700039                                                  N                     01321  0000000        000003
12003489596000123BEND FLEX I COMERCIO LTDA                                             000000003410000000000000000000000000000088350832000000171879874608            201209122012082100000000054540000695250000000000797775000000000000000000000000102525050000000000  3020121126   01          2                                                                                   3191718798744157734445800069                                                  N                     01321  0000000        000004
12003489596000123BEND FLEX I COMERCIO LTDA                                             000000003410000000000000000000000000000088599899000000171434574613            201209172012081600000000054590000585000000000000665570000000000000000000000000080570050000000000  3020121126   01          2                                                                                   3191714345748157734445800019                                                  N                     01321  0000000        000005
12003498897000202TELECOMUNICACOES DE SAO PAULO                                         0000000023702372800000000360082 0000000090327869019066000926671V34022789      201211012012101700000000055040000409828000000000409828000000000000000000000000000000050000000000  3020121101   06          3  R GANGES 528                                                                     3                         000000000000000                                     N                     00598  0000000        000006
12003803271000173ATUAL SP C DE FERRAMENTAS LTDA                                        000000003410000000000000000000000000000090751873000000701204346007823         201211222012102500000000055250000070500000000000073171000000000000000000000000002671050000000000  3020121126   01          2                                                                                   3157012043466013905550300029                                                  N                     01321  0000000        000007
12004676708000118M H F SISTEMAS S C LTDA                                               0000000034100000000000000000000000000000925640520000002606278270099050180     201212052012112200000000055380000014500000000000014500000000000000000000000000000000050000000000  3020121205   01FS        1                                                                                   3112606278276013924573200029                                                  N                     01321  0000000        000008
12004882911000140F C BRITO CARTUCHOS ME                                                00000000033000000000000000000000000000009174140400000029000000014860 A21      201211212012102400000000055240000039945000000000041674000000000000000000000000001729050000000000  3020121126   01          2                                                                                   3944753720000000109029010119                                                  N                     01321  0000000        000009
12005151518000140BELENUS DO BRASIL LTDA                                                000000000330000000000000000000000000000091026582000000100000000R132008212     201211222012102300000000055250000599040000000000606947000000000000000000000000007907050000000000  3020121126   01          2                                                                                   3918381050000000498610010479                                                  N                     01321  0000000        000010
12005880850000145NEDERMAN BRASIL COM PROD EX LT                                        000000003410000000000000000000000000000086373178000000614350956002763 A       201209252012081400000000054670000289674000000000325014000000000000000000000000035340050000000000  3020121126   01          2                                                                                   3156143509568160829000100049                                                  N                     01321  0000000        000011
12006000195000156MBA MERCANTIL BRAS DE ACO LTDA                                        0000000034100000000000000000000000000000904173150000001667238300008870B03     201210092012071600000000054810000839951000000000919247000000000000000000000000079296050000000000  3020121126   01          2                                                                                   3191667238304064849251000039                                                  N                     01321  0000000        000012
12006000195000156MBA MERCANTIL BRAS DE ACO LTDA                                        0000000034100000000000000000000000000000904173160000001667238280008876B03     201210122012071600000000054840000810320000000000882050000000000000000000000000071730050000000000  3020121126   01          2                                                                                   3191667238288064849251000079                                                  N                     01321  0000000        000013
12006000195000156MBA MERCANTIL BRAS DE ACO LTDA                                        0000000034100000000000000000000000000000904173170000001671394420008925B03     201210122012071700000000054840000719580000000000783255000000000000000000000000063675050000000000  3020121126   01          2                                                                                   3191671394424064849251000069                                                  N                     01321  0000000        000014
12006000195000156MBA MERCANTIL BRAS DE ACO LTDA                                        0000000034100000000000000000000000000000904173180000001671394430008926B03     201210122012071700000000054840000387716000000000422051000000000000000000000000034335050000000000  3020121126   01          2                                                                                   3191671394432064849251000079                                                  N                     01321  0000000        000015
12006000195000156MBA MERCANTIL BRAS DE ACO LTDA                                        0000000034100000000000000000000000000000906662670000001671394410008920B03     201210142012071700000000054860000576584000000000625346000000000000000000000000048762050000000000  3020121126   01          2                                                                                   3191671394416064849251000039                                                  N                     01321  0000000        000016
12006000195000156MBA MERCANTIL BRAS DE ACO LTDA                                        0000000034100000000000000000000000000000885998980000001667238420008870B02     201209112012071600000000054530000839952000000000965504000000000000000000000000125552050000000000  3020121126   01          2                                                                                   3191667238429064849251000039                                                  N                     01321  0000000        000017
12006000195000156M B A MERCANTIL BRASILEIRA DE                                         0000000023700118P00000002130599 00000000848180770020220100000340008905B03     201210112012071900000000054830000155300000000000167214000000000000000000000000011914050000000000  3020121126   01          2  RUA JUNO  533                                                                    3                         000000000000000                                     N                     00598  0000000        000018
12006000195000156M B A MERCANTIL BRASILEIRA DE                                         0000000023700118P00000002130599 00000000868592690020223600000020009229B02     201210112012081600000000054830000253414000000000272826000000000000000000000000019412050000000000  3020121126   01          2  RUA JUNO  533                                                                    3                         000000000000000                                     N                     00598  0000000        000019
12006000195000156M B A MERCANTIL BRASILEIRA DE                                         0000000023700118P00000002130599 00000000865388260020222900000470009204B02     201210112012081500000000054830000127292000000000137044000000000000000000000000009752050000000000  3020121126   01          2  RUA JUNO  533                                                                    3                         000000000000000                                     N                     00598  0000000        000020
12006000195000156M B A MERCANTIL BRASILEIRA DE                                         0000000023700118P00000002130599 00000000865388290020222900000500009205B02     201210122012081500000000054840000348964000000000375154000000000000000000000000026190050000000000  3020121126   01          2  RUA JUNO  533                                                                    3                         000000000000000                                     N                     00598  0000000        000021
12006000195000156M B A MERCANTIL BRASILEIRA DE                                         0000000023700118P00000002130599 00000000865388320020222900000530009206B02     201210132012081500000000054850000527560000000000566236000000000000000000000000038676050000000000  3020121126   01          2  RUA JUNO  533                                                                    3                         000000000000000                                     N                     00598  0000000        000022
12006000195000156MBA MERCANTIL BRAS DE ACO LTDA                                        0000000034100000000000000000000000000000904173140000001667238290008874B03     201210112012071600000000054830000802825000000000875459000000000000000000000000072634050000000000  3020121126   01          2                                                                                   3191667238296064849251000069                                                  N                     01321  0000000        000023
12006000195000156MBA MERCANTIL BRAS DE ACO LTDA                                        0000000034100000000000000000000000000000887698090000001671394550008925B02     201209142012071700000000054560000719581000000000822876000000000000000000000000103295050000000000  3020121126   01          2                                                                                   3191671394556064849251000089                                                  N                     01321  0000000        000024
12006000195000156MBA MERCANTIL BRAS DE ACO LTDA                                        0000000034100000000000000000000000000000887698100000001671394560008926B02     201209142012071700000000054560000387716000000000443415000000000000000000000000055699050000000000  3020121126   01          2                                                                                   3191671394564064849251000019                                                  N                     01321  0000000        000025
12006000195000156MBA MERCANTIL BRAS DE ACO LTDA                                        0000000034100000000000000000000000000000889578520000001671394540008920B02     201209162012071700000000054580000576585000000000657099000000000000000000000000080514050000000000  3020121126   01          2                                                                                   3191671394549064849251000099                                                  N                     01321  0000000        000026
12008272923000104P SANTOS ESQUADRARIAS METAL ME                                        0000000034100000000000000000000000000000896979550000006153947641850           201211222012100800000000055250000400000000000000412268000000000000000000000000012268050000000000  3020121126   01          2                                                                                   3156153947640160141951600039                                                  N                     01321  0000000        000027
12008879248000186FREFER METAL PLUS                                                     000000003410000000000000000000000000000090751878000000251738778EPI024022A     201211202012102300000000055230000998338000000001006126000000000000000000000000007788050000000000  3020121126   01          2                                                                                   3112517387786293811346700099                                                  N                     01321  0000000        000028
12008879248000186FREFER METAL PLUS                                                     000000003410000000000000000000000000000090920332000000252540538EPI024058A     201211222012102500000000055250000960939000000000965935000000000000000000000000004996050000000000  3020121126   01          2                                                                                   3112525405380293811346700099                                                  N                     01321  0000000        000029
12009034654000291STEEL PRODUCTS DO BRASIL LTDA                                         0000000000100000000000000000000000000000914718910000005529180002470 1 3       201211232012110500000000055260000132000000000000135963000000000000000000000000003963050000000000  3020121126   01          2                                                                                   3000000221373244205529181169                                                  N                     01321  0000000        000030
12009338857000190FERNANDO  NAGAO  CARDONE  ALVA                                        000000000330000000000000000000000000000091653176000000300000000ALTA 11 2012   201211202012103000000000055230000134632000000000138402000000000000000000000000003770050000000000  3020121126   01          2                                                                                   3947901700000051051630010119                                                  N                     01321  0000000        000031
12009338857000190FERNANDO  NAGAO  CARDONE  ALVA                                        000000000330000000000000000000000000000089697936000000800000000ALTA 10 2012   201210202012092500000000054920000134632000000000150926000000000000000000000000016294050000000000  3020121126   01          2                                                                                   3947901700000051050080010129                                                  N                     01321  0000000        000032
12012006058000121WEG TINTAS LTDA                                                       0000000023702727800000000001309 00000000868126360090223500001190016086603     201211042012082100000000055070000306662000000000315638000000000000000000000000008976050000000000  3020121126   01          2  R JUNO  533                                                                      3                         000000000000000                                     N                     00598  0000000        000033
12012006058000121WEG TINTAS LTDA                                                       0000000023702727800000000001309 00000000878206050090225400000790016517202     201211052012090600000000055080000459854000000000472727000000000000000000000000012873050000000000  3020121126   01          2  R JUNO  533                                                                      3                         000000000000000                                     N                     00598  0000000        000034
12012006058000121WEG TINTAS LTDA                                                       0000000023702727800000000001309 00000000878206060090225400000800016517203     201211202012090600000000055230000459992000000000463670000000000000000000000000003678050000000000  3020121126   01          2  R JUNO  533                                                                      3                         000000000000000                                     N                     00598  0000000        000035
12012006058000121WEG TINTAS LTDA                                                       0000000023702727800000000001309 00000000882668410090225800000740016626901     201210282012091300000000055000000459854000000000477631000000000000000000000000017777050000000000  3020121126   01          2  R JUNO  533                                                                      3                         000000000000000                                     N                     00598  0000000        000036
12012006058000121WEG TINTAS LTDA                                                       0000000023702727800000000001309 00000000882668420090225800000750016626902     201211122012091300000000055150000459854000000000468436000000000000000000000000008582050000000000  3020121126   01          2  R JUNO  533                                                                      3                         000000000000000                                     N                     00598  0000000        000037
12012006058000121WEG TINTAS LTDA                                                       0000000023702727800000000001309 00000000870177490090224100000980016248002     201210262012082700000000054980000306569000000000319217000000000000000000000000012648050000000000  3020121126   01          2  R JUNO  533                                                                      3                         000000000000000                                     N                     00598  0000000        000038
12012006058000121WEG TINTAS LTDA                                                       0000000023702727800000000001309 00000000870177500090224100000990016248003     201211102012082700000000055130000306662000000000313190000000000000000000000000006528050000000000  3020121126   01          2  R JUNO  533                                                                      3                         000000000000000                                     N                     00598  0000000        000039
12012006058000121WEG TINTAS LTDA                                                       0000000023702727800000000001309 00000000872318660090224700001040016359602     201210302012083100000000055020000459854000000000476405000000000000000000000000016551050000000000  3020121126   01          2  R JUNO  533                                                                      3                         000000000000000                                     N                     00598  0000000        000040
12012006058000121WEG TINTAS LTDA                                                       0000000023702727800000000001309 00000000872318670090224700001050016359603     201211142012083100000000055170000459992000000000467348000000000000000000000000007356050000000000  3020121126   01          2  R JUNO  533                                                                      3                         000000000000000                                     N                     00598  0000000        000041
12012006058000121WEG TINTAS LTDA                                                       0000000023702727800000000001309 00000000864554460090222800000750015908403     201210282012081400000000055000000306662000000000318494000000000000000000000000011832050000000000  3020121126   01          2  R JUNO  533                                                                      3                         000000000000000                                     N                     00598  0000000        000042
12012434269000165RIBASE TRANSPORTE E LOGISTICA                                         0000000023701231900000002302659 0000000092564059009000000006852009287 12      201212032012111200000000055360000025000000000000025000000000000000000000000000000000050000000000  3020121203   01FS        1  RUA TAMAINDE N  1 410                                                            3                         000000000000000                                     N                     00598  0000000        000043
12014978305000187MOGI FILME INDUSTRIA E COMERCI                                        0000000023700402200000001055003 0000000090504098009022960000004430            201211222012102200000000055250000068425000000000069793000000000000000000000000001368050000000000  3020121126   01          2  RUA TAMAINDE 1410 VL NOVA MANCHESTER                                             3                         000000000000000                                     N                     00598  0000000        000044
12033325184001786ALSCO TOALHEIRO BRASIL                                                0000000023703396000000001490850 0000000091741401009000002787905VM27879        201211212012110100000000055240000037363000000000037548000000000000000000000000000185050000000000  3020121126   01          2  RUA  GANGES 528                                                                  3                         000000000000000                                     N                     00598  0000000        000045
12033325184001786ALSCO TOALHEIRO BRASIL                                                0000000023703396000000001490850 0000000092564060009000029711503VM00297115     201212052012112300000000055380000026347000000000026347000000000000000000000000000000050000000000  3020121205   01FS        1  RUA  GANGES 528                                                                  3                         000000000000000                                     N                     00598  0000000        000046
12035820448000136WHITE MARTINS GASES INDUSTRIAI                                        0000000023700026400000003937925 0000000092564058009023280001634410108 001     201212192012112300000000055520000085208000000000085208000000000000000000000000000000050000000000  3020121219   01FS        1  RUA GANGES  528                                                                  3                         000000000000000                                     N                     00598  0000000        000047
12035820448000136WHITE MARTINS GASES INDUSTRIAI                                        0000000023700026400000003937925 0000000090920337009023030000391400546 001     201211232012102700000000055260000056805000000000057998000000000000000000000000001193050000000000  3020121126   01          2  RUA GANGES  528                                                                  3                         000000000000000                                     N                     00598  0000000        000048
12042956441000101SOLUCOES ACO USIMINAS                                                 0000000034100000000000000000000000000000846595700000002210880280016980502     201209102012071200000000054520000156071000000000180095000000000000000000000000024024050000000000  3020121126   01          2                                                                                   3112210880285293807258000039                                                  N                     01321  0000000        000049
12042956441000101SOLUCOES ACO USIMINAS                                                 0000000034100000000000000000000000000000846595710000002210880290016980602     201209102012071200000000054520000426094000000000491698000000000000000000000000065604050000000000  3020121126   01          2                                                                                   3112210880293293807258000019                                                  N                     01321  0000000        000050
12042956441000101SOLUCOES ACO USIMINAS                                                 0000000034100000000000000000000000000000847452070000002216130350005922202     201209102012071600000000054520000172071000000000198559000000000000000000000000026488050000000000  3020121126   01          2                                                                                   3112216130354293807258000049                                                  N                     01321  0000000        000051
12042956441000101SOLUCOES ACO USIMINAS                                                 0000000034100000000000000000000000000000847452100000002216130340017012402     201209102012071500000000054520000147428000000000170143000000000000000000000000022715050000000000  3020121126   01          2                                                                                   3112216130347293807258000059                                                  N                     01321  0000000        000052
12042956441000101SOLUCOES ACO USIMINAS                                                 0000000034100000000000000000000000000000848180700000002220192900017041002     201209112012071700000000054530000155433000000000179069000000000000000000000000023636050000000000  3020121126   01          2                                                                                   3112220192903293807258000029                                                  N                     01321  0000000        000053
12042956441000101SOLUCOES ACO USIMINAS                                                 0000000034100000000000000000000000000000848180710000002220192910017041202     201209112012071700000000054530000205421000000000236657000000000000000000000000031236050000000000  3020121126   01          2                                                                                   3112220192911293807258000019                                                  N                     01321  0000000        000054
12042956441000101SOLUCOES ACO USIMINAS                                                 0000000034100000000000000000000000000000850740460000002233586800017127201     201208202012072000000000054310000137881000000000164929000000000000000000000000027048050000000000  3020121126   01          2                                                                                   3112233586802293807258000019                                                  N                     01321  0000000        000055
12042956441000101SOLUCOES ACO USIMINAS                                                 0000000034100000000000000000000000000000850740470000002233586810017101002     201209142012071900000000054560000732575000000000839520000000000000000000000000106945050000000000  3020121126   01          2                                                                                   3112233586810293807258000019                                                  N                     01321  0000000        000056
12042956441000101SOLUCOES ACO USIMINAS                                                 0000000034100000000000000000000000000000850740480000002233586820017101202     201209142012071900000000054560000144634000000000165731000000000000000000000000021097050000000000  3020121126   01          2                                                                                   3112233586828293807258000029                                                  N                     01321  0000000        000057
12042956441000101SOLUCOES ACO USIMINAS                                                 0000000034100000000000000000000000000000853154840000002246247030017196702     201209202012072500000000054620000234841000000000266331000000000000000000000000031490050000000000  3020121126   01          2                                                                                   3112246247038293807258000099                                                  N                     01321  0000000        000058
12042956441000101SOLUCOES ACO USIMINAS                                                 0000000034100000000000000000000000000000853154850000002246247040017197302     201209202012072500000000054620000970103000000001100083000000000000000000000000129980050000000000  3020121126   01          2                                                                                   3112246247046293807258000019                                                  N                     01321  0000000        000059
12042956441000101SOLUCOES ACO USIMINAS                                                 0000000034100000000000000000000000000000853154860000002246247050017196603     201211192012072500000000055220000804807000000000816077000000000000000000000000011270050000000000  3020121126   01          2                                                                                   3112246247053293807258000059                                                  N                     01321  0000000        000060
12042956441000101SOLUCOES ACO USIMINAS                                                 0000000034100000000000000000000000000000853154870000002246247060017196703     201211192012072500000000055220000234840000000000238130000000000000000000000000003290050000000000  3020121126   01          2                                                                                   3112246247061293807258000019                                                  N                     01321  0000000        000061
12042956441000101SOLUCOES ACO USIMINAS                                                 0000000034100000000000000000000000000000853154880000002246247070017197303     201211192012072500000000055220000970103000000000983683000000000000000000000000013580050000000000  3020121126   01          2                                                                                   3112246247079293807258000059                                                  N                     01321  0000000        000062
12042956441000101SOLUCOES ACO USIMINAS                                                 0000000034100000000000000000000000000000855028690000002254329380017212902     201209212012072600000000054630000140098000000000158578000000000000000000000000018480050000000000  3020121126   01          2                                                                                   3112254329389293807258000019                                                  N                     01321  0000000        000063
12042956441000101SOLUCOES ACO USIMINAS                                                 0000000034100000000000000000000000000000855028700000002254329390017213002     201209212012072600000000054630000140602000000000159148000000000000000000000000018546050000000000  3020121126   01          2                                                                                   3112254329397293807258000089                                                  N                     01321  0000000        000064
12042956441000101SOLUCOES ACO USIMINAS                                                 0000000034100000000000000000000000000000855028760000002254329470017220503     201211192012072700000000055220000981022000000000994756000000000000000000000000013734050000000000  3020121126   01          2                                                                                   3112254329470293807258000019                                                  N                     01321  0000000        000065
12042956441000101SOLUCOES ACO USIMINAS                                                 0000000034100000000000000000000000000000855028770000002254329400017220502     201209212012072700000000054630000981022000000001110514000000000000000000000000129492050000000000  3020121126   01          2                                                                                   3112254329405293807258000099                                                  N                     01321  0000000        000066
12042956441000101SOLUCOES ACO USIMINAS                                                 0000000034100000000000000000000000000000855028780000002254329410017200203     201211192012072600000000055220000680385000000000689912000000000000000000000000009527050000000000  3020121126   01          2                                                                                   3112254329413293807258000089                                                  N                     01321  0000000        000067
12042956441000101SOLUCOES ACO USIMINAS                                                 0000000034100000000000000000000000000000855028810000002254329440017202403     201211192012072600000000055220000244137000000000247553000000000000000000000000003416050000000000  3020121126   01          2                                                                                   3112254329447293807258000059                                                  N                     01321  0000000        000068
12042956441000101SOLUCOES ACO USIMINAS                                                 0000000034100000000000000000000000000000856906410000002262886280017266201     201208282012073000000000054390000119472000000000140982000000000000000000000000021510050000000000  3020121126   01          2                                                                                   3112262886289293807258000089                                                  N                     01321  0000000        000069
12042956441000101SOLUCOES ACO USIMINAS                                                 0000000034100000000000000000000000000000856906420000002262886290017266301     201208282012073000000000054390000145069000000000171169000000000000000000000000026100050000000000  3020121126   01          2                                                                                   3112262886297293807258000099                                                  N                     01321  0000000        000070
12042956441000101SOLUCOES ACO USIMINAS                                                 0000000034100000000000000000000000000000856906450000002262886320017266203     201211222012073000000000055250000119436000000000120392000000000000000000000000000956050000000000  3020121126   01          2                                                                                   3112262886321293807258000059                                                  N                     01321  0000000        000071
12042956441000101SOLUCOES ACO USIMINAS                                                 0000000034100000000000000000000000000000856906460000002262886330017266303     201211222012073000000000055250000145026000000000146186000000000000000000000000001160050000000000  3020121126   01          2                                                                                   3112262886339293807258000019                                                  N                     01321  0000000        000072
12042956441000101SOLUCOES ACO USIMINAS                                                 0000000034100000000000000000000000000000859590620000002274469790017353702     201209282012080300000000054700000081053000000000090611000000000000000000000000009558050000000000  3020121126   01          2                                                                                   3112274469793293807258000069                                                  N                     01321  0000000        000073
12042956441000101SOLUCOES ACO USIMINAS                                                 0000000034100000000000000000000000000000855028740000002254329450017212903     201211192012072600000000055220000140098000000000140938000000000000000000000000001120050000000000  3020121122   06          3                                                                                   3112254329454293807258000069                                                  N                     01321  0000000        000074
12042956441000101SOLUCOES ACO USIMINAS                                                 0000000034100000000000000000000000000000855028750000002254329460017213003     201211192012072600000000055220000140602000000000141445000000000000000000000000001124050000000000  3020121122   06          3                                                                                   3112254329462293807258000039                                                  N                     01321  0000000        000075
12042956441000101SOLUCOES ACO USIMINAS                                                 0000000034100000000000000000000000000000855028790000002254329420017200303     201211192012072600000000055220000156897000000000157839000000000000000000000000001256050000000000  3020121122   06          3                                                                                   3112254329421293807258000049                                                  N                     01321  0000000        000076
12042956441000101SOLUCOES ACO USIMINAS                                                 0000000034100000000000000000000000000000855028800000002254329430017200403     201211192012072600000000055220000163223000000000164201000000000000000000000000001304050000000000  3020121122   06          3                                                                                   3112254329439293807258000019                                                  N                     01321  0000000        000077
12045635984000115CRIFER LAMINADOS ACO FERRO LTD                                        0000000034100000000000000000000000000000909203340000009000268640035771E01     201211212012102400000000055240000454608000000000459153000000000000000000000000004545050000000000  3020121126   01          2                                                                                   3109000268640005630080900099                                                  N                     01321  0000000        000078
12045987005000198D PASCHOAL AUTOMOTIVA LTDA                                            0000000023702002800000000147001 00000000886866610110000000171660000000036     201211192012091900000000055220000032500000000000033444000000000000000000000000000944050000000000  3020121126   01          2  R   TAMAINDE                       01410                                         3                         000000000000000                                     N                     00598  0000000        000079
12047190731000100DE CASTRO LOUR ENG IND LTDA                                           00000000341000000000000000000000000000008782050900000023399953503026612 0     201209182012082100000000054600001111489000000001262323000000000000000000000000150834050000000000  3020121126   01          2                                                                                   3112339995352036884500400019                                                  N                     01321  0000000        000080
12047190731000100DE CASTRO LOUR ENG IND LTDA                                           00000000341000000000000000000000000000008782051200000023399953803026613 0     201209182012082100000000054600001107989000000001258340000000000000000000000000150351050000000000  3020121126   01          2                                                                                   3112339995386036884500400039                                                  N                     01321  0000000        000081
12047190731000100DE CASTRO LOUR ENG IND LTDA                                           00000000341000000000000000000000000000008782051300000023399953903026613 0     201211202012082100000000055230001107989000000001121063000000000000000000000000013074050000000000  3020121126   01          2                                                                                   3112339995394036884500400019                                                  N                     01321  0000000        000082
12047190731000100DE CASTRO LOUR ENG IND LTDA                                           00000000341000000000000000000000000000008782051500000023399953603026612 0     201211202012082100000000055230001111489000000001124605000000000000000000000000013116050000000000  3020121126   01          2                                                                                   3112339995360036884500400079                                                  N                     01321  0000000        000083
12047190731000100DE CASTRO LOUR ENG IND LTDA                                           00000000341000000000000000000000000000008782051600000023399954103026614 0     201209182012082100000000054600001047621000000001189761000000000000000000000000142140050000000000  3020121126   01          2                                                                                   3112339995410036884500400039                                                  N                     01321  0000000        000084
12047190731000100DE CASTRO LOUR ENG IND LTDA                                           00000000341000000000000000000000000000008782051700000023399954203026614 0     201211202012082100000000055230001047621000000001059981000000000000000000000000012360050000000000  3020121126   01          2                                                                                   3112339995428036884500400079                                                  N                     01321  0000000        000085
12047190731000100DE CASTRO LOUR ENG IND LTDA                                           00000000341000000000000000000000000000008782051800000023399955703026636 0     201211212012082200000000055240000940804000000000950054000000000000000000000000009250050000000000  3020121126   01          2                                                                                   3112339995576036884500400019                                                  N                     01321  0000000        000086
12047190731000100DE CASTRO LOUR ENG IND LTDA                                           00000000341000000000000000000000000000008782052000000023399955303026632 0     201209192012082200000000054610000952073000000001079369000000000000000000000000127296050000000000  3020121126   01          2                                                                                   3112339995535036884500400019                                                  N                     01321  0000000        000087
12047190731000100DE CASTRO LOUR ENG IND LTDA                                           00000000341000000000000000000000000000008782052100000023399955903026643 0     201209202012082300000000054620000867039000000000981274000000000000000000000000114235050000000000  3020121126   01          2                                                                                   3112339995592036884500400049                                                  N                     01321  0000000        000088
12047190731000100DE CASTRO LOUR ENG IND LTDA                                           00000000341000000000000000000000000000008782052200000023399955403026632 0     201211212012082200000000055240000952073000000000961433000000000000000000000000009360050000000000  3020121126   01          2                                                                                   3112339995543036884500400099                                                  N                     01321  0000000        000089
12047190731000100DE CASTRO LOUR ENG IND LTDA                                           00000000341000000000000000000000000000008782052400000023399956003026643 0     201211222012082300000000055250000867039000000000873859000000000000000000000000006820050000000000  3020121126   01          2                                                                                   3112339995600036884500400069                                                  N                     01321  0000000        000090
12047190731000100DE CASTRO LOUR ENG IND LTDA                                           00000000341000000000000000000000000000008782052500000023399955603026636 0     201209192012082200000000054610000940804000000001066604000000000000000000000000125800050000000000  3020121126   01          2                                                                                   3112339995568036884500400049                                                  N                     01321  0000000        000091
12047190731000100DE CASTRO LOUR ENG IND LTDA                                           00000000341000000000000000000000000000008782052700000023399956203026648 0     201209202012082300000000054620000976053000000001104693000000000000000000000000128640050000000000  3020121126   01          2                                                                                   3112339995626036884500400029                                                  N                     01321  0000000        000092
12047190731000100DE CASTRO LOUR ENG IND LTDA                                           00000000341000000000000000000000000000008782052800000023399956303026648 0     201211222012082300000000055250000976053000000000983733000000000000000000000000007680050000000000  3020121126   01          2                                                                                   3112339995634036884500400019                                                  N                     01321  0000000        000093
12048775225000146SEIKI IND COM E CONFECCOES LTD                                        000000003410000000000000000000000000000089337376000000244697151014914001      201210232012092500000000054950000052000000000000054652000000000000000000000000002652050000000000  3020121126   01          2                                                                                   3112446971510017444824100089                                                  N                     01321  0000000        000094
12051180370000199IGUAFER FERRO E ACO LTDA                                              0000000034100000000000000000000000000000852309100000002239389789443 B         201209022012071800000000054440000168275000000000192075000000000000000000000000023800050000000000  3020121126   01          2                                                                                   3112239389789077149484600089                                                  N                     01321  0000000        000095
12051180370000199IGUAFER FERRO E ACO LTDA                                              0000000034100000000000000000000000000000852309110000002239389799443 C         201209122012071800000000054540000168275000000000189275000000000000000000000000021000050000000000  3020121126   01          2                                                                                   3112239389797077149484600089                                                  N                     01321  0000000        000096
12053585766000141MULTIACOS I C PRODS TEC LTDA                                          0000000042200000000000000000000000000000883508220000000000000000004674503     201211202012091300000000055230000274012000000000276753000000000000000000000000002741050000000000  3020121126   01          2                                                                                   3711500005033164921116497199                                                  N                     01321  0000000        000097
12053585766000141MULTIACOS I C PRODS TEC LTDA                                          0000000042200000000000000000000000000000883508240000000000000000004674603     201211202012091300000000055230000126819000000000128084000000000000000000000000001265050000000000  3020121126   01          2                                                                                   3711500005033164921116462169                                                  N                     01321  0000000        000098
12053585766000141MULTIACOS I C PRODS TEC LTDA                                          0000000042200000000000000000000000000000895189340000000000000000004737202     201211202012100200000000055230000362578000000000366201000000000000000000000000003623050000000000  3020121126   01          2                                                                                   3711500005033164927761785169                                                  N                     01321  0000000        000099
12053585766000141MULTIACOS I C PRODS TEC LTDA                                          0000000042200000000000000000000000000000895189660000000000000000004750002     201211222012100200000000055250000222869000000000224352000000000000000000000000001483050000000000  3020121126   01          2                                                                                   3711500005033164927762129119                                                  N                     01321  0000000        000100
12053585766000141MULTIACOS I C PRODS TEC LTDA                                          0000000042200000000000000000000000000000895189720000000000000000004685003     201211222012100200000000055250000547346000000000550993000000000000000000000000003647050000000000  3020121126   01          2                                                                                   3711500005033164927762200139                                                  N                     01321  0000000        000101
12053585766000141MULTIACOS I C PRODS TEC LTDA                                          0000000042200000000000000000000000000000895189800000000000000000004674403     201211202012100200000000055230000385696000000000389553000000000000000000000000003857050000000000  3020121126   01          2                                                                                   3711500005033164927762234199                                                  N                     01321  0000000        000102
12053585766000141MULTIACOS I C PRODS TEC LTDA                                          0000000042200000000000000000000000000000890456920000000000000000004724102     201211202012092500000000055230000127900000000000129177000000000000000000000000001277050000000000  3020121126   01          2                                                                                   3711500005033164925775134149                                                  N                     01321  0000000        000103
12053585766000141MULTIACOS COM DE PRODUTOS TECN                                        0000000023703398700000000011290 00000000888733100020226900000690004642101     201210162012090400000000054880000251722000000000261382000000000000000000000000010080050000000000  3020121108   06          3  RUA JUNO  533                                                                    3                         000000000000000                                     N                     00598  0000000        000104
12054382510000108SETENTA IND E COM DE MADEIRAS                                         0000000034100000000000000000000000000000860403430000002277814474462 A         201209042012080700000000054460000191200000000000222408000000000000000000000000031208050000000000  3020121126   01          2                                                                                   3112277814474057049175300069                                                  N                     01321  0000000        000105
12056993512000150CYKLOP DO BRASIL EMBALAGENS SA                                        0000000034100000000000000000000000000000874070500000002362586810134932        201210012012090300000000054730000083607000000000100799000000000000000000000000017192050000000000  3020121126   01          2                                                                                   3112362586813025700015800019                                                  N                     01321  0000000        000106
12059358770000153TRANS NEW ABC TRANSPORTADORA L                                        0000000023701193200000000698555 000000009183388500901323120763555320          201211222012110700000000055250000137001000000000137549000000000000000000000000000548050000000000  3020121126   01          2  RUA GANGES 528                                                                   3                         000000000000000                                     N                     00598  0000000        000107
12059659615000177DZ COMERCIO R E SERVICOS LTDA                                         000000003410000000000000000000000000000091358507000000900000321280            201211172012102400000000055200000060000000000000061080000000000000000000000000001080050000000000  3020121126   01          2                                                                                   3109000003217000314585100039                                                  N                     01321  0000000        000108
12061217188000119TELAS METALICAS TELMETAL LTDA                                         0000000034100000000000000000000000000000925640550000009000000165999 1 3       201212202012112200000000055530000069097000000000069097000000000000000000000000000000050000000000  3020121220   01FS        1                                                                                   3109000000164077099894600099                                                  N                     01321  0000000        000109
12061217188000119TELAS METALICAS TELMETAL LTDA                                         0000000034100000000000000000000000000000925640560000009000000175999 2 3       201212272012112200000000055600000069094000000000069094000000000000000000000000000000050000000000  3020121227   01FS        1                                                                                   3109000000172077099894600019                                                  N                     01321  0000000        000110
12061217188000119TELAS METALICAS TELMETAL LTDA                                         0000000034100000000000000000000000000000925640570000009000000155999 3 3       201301032012112200000000055670000069094000000000069094000000000000000000000000000000050000000000  3020130103   01FS        1                                                                                   3109000000156077099894600089                                                  N                     01321  0000000        000111
12061683652000162TRANS FACE TRANSPORTES LTDA                                           0000000023700530400000000141828 0000000091358502009000000110375I000085343     201211202012110500000000055230000081000000000000082314000000000000000000000000001314050000000000  3020121126   01          2  R JUNO 553                                                                       3                         000000000000000                                     N                     00598  0000000        000112
12062510367000102ITANHAEM TRANSP DE MAQUINAS LT                                        000000003410000000000000000000000000000087407049000000236463199667            201209202012090400000000054620000248220000000000314751000000000000000000000000066531050000000000  3020121126   01          2                                                                                   3112364631997005770252400049                                                  N                     01321  0000000        000113
12062539994000176LEALFER INDUSTRIA E COMERCIO D                                        0000000003300000000000000000000000000000872953050000004700000000005424703     201211222012083000000000055250000656670000000000661135000000000000000000000000004465050000000000  3020121126   01          2                                                                                   3915298380000000259047010469                                                  N                     01321  0000000        000114
12062539994000176LEALFER INDUSTRIA E COMERCIO D                                        0000000003300000000000000000000000000000910265830000008000000000005732501     201211222012102400000000055250000828588000000000834222000000000000000000000000005634050000000000  3020121126   01          2                                                                                   3915298380000000281980010469                                                  N                     01321  0000000        000115
12062539994000176LEALFER INDUSTRIA E COMERCIO D                                        0000000003300000000000000000000000000000893373920000007800000000005563002     201211212012092500000000055240000136948000000000138112000000000000000000000000001164050000000000  3020121126   01          2                                                                                   3915298380000000272078010449                                                  N                     01321  0000000        000116
12062539994000176LEALFER INDUSTRIA E COMERCIO D                                        0000000003300000000000000000000000000000893373940000008300000000005580302     201211222012092700000000055250000451213000000000454281000000000000000000000000003068050000000000  3020121126   01          2                                                                                   3915298380000000272183010429                                                  N                     01321  0000000        000117
12062539994000176LEALFER INDUSTRIA E COMERCIO D                                        0000000003300000000000000000000000000000893373970000009100000000005576002     201211222012092600000000055250000243236000000000244893000000000000000000000000001657050000000000  3020121126   01          2                                                                                   3915298380000000272191010419                                                  N                     01321  0000000        000118
12062539994000176LEALFER INDUSTRIA E COMERCIO D                                        0000000003300000000000000000000000000000893373980000003500000000005568402     201211212012092500000000055240000891184000000000898759000000000000000000000000007575050000000000  3020121126   01          2                                                                                   3915298380000000272035010479                                                  N                     01321  0000000        000119
12062539994000176LEALFER INDUSTRIA E COMERCIO D                                        0000000003300000000000000000000000000000893374000000001300000000005575002     201211222012092600000000055250000300979000000000303025000000000000000000000000002046050000000000  3020121126   01          2                                                                                   3915298380000000272213010449                                                  N                     01321  0000000        000120
12062539994000176LEALFER IN E COM DE ACO LTDA                                          0000000034100000000000000000000000000000899624810000002474448400005595101     201210292012100100000000055010000917851000000000917851000000000000000000000000000000050000000000  3020121029   05          3                                                                                   3112474448407076103324000029                                                  N                     01321  0000000        000121
12062539994000176LEALFER IN E COM DE ACO LTDA                                          0000000034100000000000000000000000000000899624830000002474449930005606001     201210302012100200000000055020000241703000000000241703000000000000000000000000000000050000000000  3020121030   05          3                                                                                   3112474449934076103324000049                                                  N                     01321  0000000        000122
12062539994000176LEALFER IN E COM DE ACO LTDA                                          0000000034100000000000000000000000000000899624860000002474448630005595201     201210292012100100000000055010000988102000000000988102000000000000000000000000000000050000000000  3020121029   05          3                                                                                   3112474448639076103324000099                                                  N                     01321  0000000        000123
12063917975000107FOTONS COMERCIAL ELETRICA LTDA                                        0000000000100000000000000000000000000000920384640000009559370007678 A         201211232012111300000000055260000021600000000000022842000000000000000000000000001242050000000000  3020121126   01          2                                                                                   3000000153770711239559371719                                                  N                     01321  0000000        000124
12064952757000168WALMAC COM DE PROD QUIMICOS LT                                        0000000034100000000000000000000000000000896979500000002462157550021611        201211012012100400000000055040000219267000000000230042000000000000000000000000010775050000000000  3020121126   01          2                                                                                   3112462157556064807961400019                                                  N                     01321  0000000        000125
12064952757000168WALMAC COM DE PROD QUIMICOS LT                                        0000000034100000000000000000000000000000860403440000002275821690020148        201210262012080300000000054980000219266000000000232627000000000000000000000000013361050000000000  3020121126   01          2                                                                                   3112275821695064807961400019                                                  N                     01321  0000000        000126
12064952757000168WALMAC COM DE PROD QUIMICOS LT                                        0000000034100000000000000000000000000000860403450000002275821700020148        201210052012080300000000054770000219267000000000241679000000000000000000000000022412050000000000  3020121126   01          2                                                                                   3112275821703064807961400029                                                  N                     01321  0000000        000127
12066841552000130R V SEG PATRIMONIAL LTDA                                              00000000341000000000000000000000000000008852483200000090002192721927          201209102012081000000000054520000483241000000000495638000000000000000000000000012397050000000000  3020121126   01          2                                                                                   3109000219270001835253400099                                                  N                     01321  0000000        000128
12066841552000130R V SEG PATRIMONIAL S C LTDA                                          00000000341000000000000000000000000000008887329800000090002213622136          201210102012091100000000054820000374758000000000380633000000000000000000000000005875050000000000  3020121126   01          2                                                                                   3109000221365001838994000069                                                  N                     01321  0000000        000129
12067300160000127OSACO PRODUTOS SIDERURGICOS LT                                        0000000023702415500000000063002 0000000091141011009024151670122662 01 01      201211212012103100000000055240000106118000000000111956000000000000000000000000005838050000000000  3020121126   01          2  RUA JUNO  533                                                                    3                         000000000000000                                     N                     00598  0000000        000130
12069284248000128ISOCOAT TINTAS E VERNIZES LTDA                                        0000000034100000000000000000000000000000895189830000002456588190056254        201211162012100200000000055190000365668000000000375418000000000000000000000000009750050000000000  3020121126   01          2                                                                                   3112456588196077430121200019                                                  N                     01321  0000000        000131
12069284248000128ISOCOAT TINTAS E VERNIZES LTDA                                        0000000034100000000000000000000000000000888732960000002421485720055761        201211202012092100000000055230000093324000000000094818000000000000000000000000001494050000000000  3020121126   01          2                                                                                   3112421485726077430121200069                                                  N                     01321  0000000        000132
12069284248000128ISOCOAT TINTAS E VERNIZES LTDA                                        0000000034100000000000000000000000000000841061040000002182507930052085        201209172012070200000000054590000236130000000000280230000000000000000000000000044100050000000000  3020121126   01          2                                                                                   3112182507932077430121200019                                                  N                     01321  0000000        000133
12071580302000124SANCHEPEL IND PAULISTA EMB L                                          0000000034100000000000000000000000000000903278700000002494145777951           201211152012101700000000055180000103500000000000103500000000000000000000000000000000050000000000  3020121116   05          3                                                                                   3112494145777007855578600049                                                  N                     01321  0000000        000134
12071580302000124SANCHEPEL IND PAULISTA EMB L                                          0000000034100000000000000000000000000000913584970000002544351508068           201211292012103100000000055320000180424000000000180424000000000000000000000000000000050000000000  3020121129   05          3                                                                                   3112544351508007855578600019                                                  N                     01321  0000000        000135
12071580302000124SANCHEPEL IND PAULISTA EMB L                                          0000000034100000000000000000000000000000918338830000002567773899025           201212082012110900000000055410000103500000000000103500000000000000000000000000000000050000000000  3020121210   05          3                                                                                   3112567773893007855578600029                                                  N                     01321  0000000        000136
12071580302000124SANCHEPEL IND PAULISTA EMB L                                          0000000034100000000000000000000000000000925640530000002567773899025           201212082012110900000000055410000103500000000000103500000000000000000000000000000000050000000000  3020121210   01FS        1                                                                                   3112567773893007879533300029                                                  N                     01321  0000000        000137
12071580302000124SANCHEPEL IND PAULISTA EMB L                                          0000000034100000000000000000000000000000925640540000002544351508068           201211292012103100000000055320000180424000000000180424000000000000000000000000000000050000000000  3020121129   01FS        1                                                                                   3112544351508007879533300019                                                  N                     01321  0000000        000138
12075483040000130REX MAQUINAS E EQUIPAMENTOS LT                                        0000000023702656500000000000701 000000008729530000202248000040781776 2 3      201211232012083100000000055260000434000000000000436169000000000000000000000000002169050000000000  3020121126   01          2  RUA  GANGES  528                                                                 3                         000000000000000                                     N                     00598  0000000        000139
12096500087000135WORKBENCH CONSULTORIA S S LTDA                                        0000000034100000000000000000000000000000878205840000007940034283118           201209272012090300000000054690000131746000000000147286000000000000000000000000015540050000000000  3020121126   01          2                                                                                   3157940034289826313803700089                                                  N                     01321  0000000        000140
900014100000000058796147                                                                                                                                                                                                                                                                                                                                                                                                                                                                01321  0000000        000141
