0000147602043799295000110ALTAMIRA INDUSTRIA METALURGICA LT       202000000128220120925212947             3                                                                                                  000000000000000                                                                                                                                                                                                                                                                                   000001
12051180370000199IGUAFER FERRO E ACO LTDA                                              0000000034100000 0000000000000  I000000000009923000000000000000               201209250000000000000000054670000174715000000000000000000000000000000000000000000000010000009443  3120120925   01HB        5000000                                                                             3181547894820077149484600039               9442/02                            N                     01130 10020256        000002
12007358761004741GERDAU ACOS LONGOS S A                                                0000000023702028100000006041051 I000000000009924016002820172303               201209250000000000000000054670000277861000000000000000000000000000000000000000000000010000017230  3120120925   01HB        5000000                                                                             3202816028201723030604105029               017230/03                          N                     01146 10020256        000003
900000400000000000000000                                                                                                                                                                                    000000000000000                                                                                                                                                                                                                                                    00000200109340000452576        000004
