0000147602043799295000110ALTAMIRA INDUSTRIA METALURGICA LT       202000000192920121025212727             3                                                                                                  000000000000000                                                                                                                                                                                                                                                                                   000001
12066970229000167NEXTEL TELECOMUNICACOES LTDA                                          0000000023702374400000001596233 I000000000010079009000014717420               201210250000000000000000054970000011864000000000011864000000000000000000000000000000050000215472  3120121025   02BW        5000000               000000000000000                                               3237409000147174200159623019               215472/02                          N                     01079 10020256        000002
12069050532000130TRIONON TRANSPORTES LTDA                                              0000000010400000 0000000000000  I000000000010076000000000000000               201210250000000000000000054970000204771000000000204771000000000000000000000000000000010000000000  3120121025   02BW        5000000               000000000000000                                               3800000466540260030000007839               6785/6769                          N                     01132 10020256        000003
12069034668000156SODEXO PASS BRASIL SERV COM SA                                        0000000034100000000000000000000000000000906662690000009218796281200013533     201211212012102200000000055240000140300000000000140300000000000000000000000000000000050000000000  3020121025   02BW        2000000               000000000000000                                               3109218796288293801455800049               12/1544385                         N                     01132 10020256        000004
12066970229000167NEXTEL TELECOMUNICACOES LTDA                                          0000000023702374400000001596233 0000000088957856009000015144848691888 10      201210102011121400000000054820000015870000000000016187000000000000000000000000000317050000000000  3020121025   02BW        2000000               000000000000000                                               3                         000000000000000  691888                             N                     01079 10020256        000005
12035820448000136WHITE MARTINS GASES INDUSTRIAI                                        0000000023700026400000003937925 0000000087067052009022420002594374120 001     201209252012082900000000054670000113610000000000120412000000000000000000000000011332050000000000  3020121025   02BW        2000000               000000000000000                                               3                         000000000000000  374120/001                         N                     01079 10020256        000006
12035820448000136WHITE MARTINS GASES INDUSTRIAI                                        0000000023700026400000003937925 0000000087168275009022440000143375351 001     201209272012083100000000054690000040575000000000042898000000000000000000000000003835050000000000  3020121025   02BW        2000000               000000000000000                                               3                         000000000000000  375351/01                          N                     01079 10020256        000007
12000288916000199VB SERVICOS COM ADM LTDA                                              0000000003300000 0000000000000  I000000000010075000000000000000               201211060000000000000000055090000653381000000000653381000000000000000000000000000000050005731559  3120121025   02BW        5000000               000000000000000                                               3119130442690030259000337859               5731559                            N                     01132 10020256        000008
12011318709000156IMPAKTO TRANSPORTES                                                   0000000000100000000000000000000000000000896979380000000001870006769 6785      201210252012100500000000054970000435000000000000435000000000000000000000000000000000050000000000  3020121025   02BW        2000000               000000000000000                                               3000000245286000000001871749               6785/6769                          N                     01132 10020256        000009
12007988026000139POINTER DISTR PROD ELETR LTDA                                         0000000034100000 0000000000000  I000000000010077000000000000000               201210250000000000000000054970000018749000000000018749000000000000000000000000000000010000005452  3120121025   02BW        5000000               000000000000000                                               3181567651759077084107000019               5452                               N                     01132 10020256        000010
12011318709000156MARTINS MARIANO TRANSP LTDA                                           0000000000100000 0000000000000  I000000000010078000000000000000               201210250000000000000000054970000201347000000000201347000000000000000000000000000000050000006741  3120121025   02BW        5000000               000000000000000                                               3000000245286000000001511789               6741                               N                     01132 10020256        000011
12005151518000140BELENUS DO BRASIL LTDA                                                000000000330000000000000000000000000000089697932000000580000000R131115412     201210252012092500000000054970000124800000000000124800000000000000000000000000000000050000000000  3020121025   02BW        2000000               000000000000000                                               3918381050000000435058010459               0311154/01                         N                     01132 10020256        000012
12069034668000156SODEXO PASS BRASIL SERV COM SA                                        0000000034100000000000000000000000000000906662680000009218795531200013531     201211212012102200000000055240000384830000000000384830000000000000000000000000000000050000000000  3020121025   02BW        2000000               000000000000000                                               3109218795538293801455800029               12/1544188                         N                     01132 10020256        000013
900001400000000002354539                                                                                                                                                                                    000000000000000                                                                                                                                                                                                                                                    00001200659570002345097        000014
