0000147602043799295000110ALTAMIRA INDUSTRIA METALURGICA LT       202000000011320120825060709             1                                                                                                                                                                                                                                                                                                                                                                                                    000001
12002558199000101OMEGA TUBOS COMERCIAL LTDA                                            0000000003300000000000000000000000000000846595820000002200000000026380B02     201208212012071000000000054320000256050000000000256050000000000000000000000000000000050000000000  3020120821   06          3                                                                                   3947509770000000088722020349                                                  N                     01321  0000000        000002
12003639662000102SCHUTTER DO BRASIL LTDA                                               000000003410000000000000000000000000000086907098000000900001447006157         201209052012082100000000054470000067550000000000067550000000000000000000000000000000050000000000  3020120905   01FS        1                                                                                   3109000014475788202600300059                                                  N                     01321  0000000        000003
12003746938000143STAPLES BRASIL COM DE MAT DE E                                        0000000023703394400000000368008 0000000085074069002000000797375460605 1       201208222012072300000000054330000032373000000000035880000000000000000000000000003507050000000000  3020120827   01          2  RUA GANGES VILA CARRAO VILA CARRAO                                               3                         000000000000000                                     N                     00598  0000000        000004
12006000195000156M B A MERCANTIL BRASILEIRA DE                                         0000000023700118P00000002130599 00000000853154980020220900000440008967B01     201208232012072400000000054340000135605000000000136509000000000000000000000000000904050000000000  3020120827   01          2  RUA JUNO  533                                                                    3                         000000000000000                                     N                     00598  0000000        000005
12006000195000156M B A MERCANTIL BRASILEIRA DE                                         0000000023700118P00000002130599 00000000853155010020220900000510008971B01     201208212012072400000000054320000170465000000000172169000000000000000000000000001704050000000000  3020120827   01          2  RUA JUNO  533                                                                    3                         000000000000000                                     N                     00598  0000000        000006
12006000195000156M B A MERCANTIL BRASILEIRA DE                                         0000000023700118P00000002130599 00000000853155040020220900000640008985B01     201208222012072500000000054330000163122000000000164482000000000000000000000000001360050000000000  3020120827   01          2  RUA JUNO  533                                                                    3                         000000000000000                                     N                     00598  0000000        000007
12006000195000156M B A MERCANTIL BRASILEIRA DE                                         0000000023700118P00000002130599 00000000853155070020220900000670008986B01     201208222012072500000000054330000145725000000000146940000000000000000000000000001215050000000000  3020120827   01          2  RUA JUNO  533                                                                    3                         000000000000000                                     N                     00598  0000000        000008
12006000195000156M B A MERCANTIL BRASILEIRA DE                                         0000000023700118P00000002130599 00000000853155100020220900000700008987B01     201208232012072500000000054340000216623000000000218067000000000000000000000000001444050000000000  3020120827   01          2  RUA JUNO  533                                                                    3                         000000000000000                                     N                     00598  0000000        000009
12006000195000156M B A MERCANTIL BRASILEIRA DE                                         0000000000100000000000000000000000000000831387050000007752270000008616B02     201208162012062000000000054270000572227000000000572227000000000000000000000000000000050000000000  3020120816   06          3                                                                                   3043837752273333000105251139                                                  N                     01321  0000000        000010
12006000195000156M B A MERCANTIL BRASILEIRA DE                                         0000000023700118P00000002130599 00000000848180750020220100000320008905B01     201208162012071900000000054270000155301000000000156596000000000000000000000000001554050000000000  3020120821   05          3  RUA JUNO  533                                                                    3                         000000000000000                                     N                     00598  0000000        000011
12006000195000156MBA MERCANTIL BRAS DE ACO LTDA                                        0000000034100000000000000000000000000000848957220000008667238540008874B01     201208162012071900000000054270000802826000000000806182000000000000000000000000003915050000000000  3020120822   05          3                                                                                   3458667238547064849251000019                                                  N                     01321  0000000        000012
12006000195000156M B A MERCANTIL BRASILEIRA DE                                         0000000000100000000000000000000000000000834820210000002571530000008653B02     201208162012062600000000054270000276789000000000279555000000000000000000000000003227050000000000  3020120822   06          3                                                                                   3043852571533333000105251139                                                  N                     01321  0000000        000013
12006000195000156M B A MERCANTIL BRASILEIRA DE                                         0000000023700118P00000002128292 00000000869071050090220100000160008906B01     201208172012071900000000054280000492064000000000492064000000000000000000000000000000050000000000  3020120827   01FS        1  RUA JUNO  533                                                                    3                         000000000000000                                     N                     00598  0000000        000014
12006000195000156M B A MERCANTIL BRASILEIRA DE                                         0000000023700118P00000002128292 00000000869071040090214900000530008389B03     201208172012052500000000054280000503860000000000503860000000000000000000000000000000050000000000  3020120827   01FS        1  RUA JUNO  533                                                                    3                         000000000000000                                     N                     00598  0000000        000015
12006000195000156M B A MERCANTIL BRASILEIRA DE                                         0000000000100000000000000000000000000000834820180000002571500000008651B02     201208212012062600000000054320000426600000000000430866000000000000000000000000004266050000000000  3020120827   01          2                                                                                   3043852571503333000105251189                                                  N                     01321  0000000        000016
12007175725000160WEG EQUIPAMENTOS ELETRICOS SA                                         0000000023702727800000000196800 00000000815444390090214500004510095359901     201208212012052300000000054320000272787000000000274965000000000000000000000000002178050000000000  3020120827   01          2  R JUNO  533                                                                      3                         000000000000000                                     N                     00598  0000000        000017
12008508119000181DINARI FOMENTO MERCANTIL LTDA                                         0000000023702499600000000178306 0000000086907103002022370000018224            201209212012082200000000054630000220000000000000220000000000000000000000000000000000050000000000  3020120921   01FS        1  RUA JUNO  533 VL N MANCHESTER SAO PAULO PANKRO LOGISTICA E TRANSPORTES LTDA EPP  3                         002269980000158                                     N                     00598  0000000        000018
12009259079000144SAFRA COMERCIAL DE PAPEIS LTDA                                        00000000033000000000000000000000000000008523092400000070000000000128569       201208232012072500000000054340000023936000000000024055000000000000000000000000000238050000000000  3020120824   06          3                                                                                   3918361880000000324570010439                                                  N                     01321  0000000        000019
12009441975000120SPEEDY CRED FOMENTO MERCANTIL                                         0000000023700094900000000990744 00000000869071000020132236074912868 AA        201209182012082300000000054600000064000000000000064000000000000000000000000000000000050000000000  3020120918   01FS        1  RUA TAMAINDE 1410                       MACKVEN MAQUINAS INDUSTRIAIS LTDA EPP    3                         005441222000163                                     N                     00598  0000000        000020
12012006058000121WEG TINTAS LTDA                                                       0000000023702727800000000001309 00000000841061110090218800000830014990201     201208192012070500000000054300000306569000000000308609000000000000000000000000002448050000000000  3020120824   06          3  R JUNO  533                                                                      3                         000000000000000                                     N                     00598  0000000        000021
12012006058000121WEG TINTAS LTDA                                                       0000000023702727800000000001309 00000000833069150090217700001080014685602     201208212012062200000000054320000459854000000000463532000000000000000000000000003678050000000000  3020120827   01          2  R JUNO  533                                                                      3                         000000000000000                                     N                     00598  0000000        000022
12012006058000121WEG TINTAS LTDA                                                       0000000023702727800000000001309 00000000842436820090219200000840015068801     201208232012070900000000054340000306569000000000308201000000000000000000000000001632050000000000  3020120827   01          2  R JUNO  533                                                                      3                         000000000000000                                     N                     00598  0000000        000023
12012006058000121WEG TINTAS LTDA                                                       0000000023702727800000000001309 00000000824820170090216300000890014374203     201208222012060800000000054330000459992000000000463057000000000000000000000000003065050000000000  3020120827   01          2  R JUNO  533                                                                      3                         000000000000000                                     N                     00598  0000000        000024
12014309992000148WEG DRIVES   CONTROLS   AUTOMA                                        0000000023702727800000000001872 00000000816237730090214600002430004866102     201208232012042500000000054340000027620000000000027764000000000000000000000000000144050000000000  3020120827   01          2  R JUNO  533                                                                      3                         000000000000000                                     N                     00598  0000000        000025
12014309992000148WEG DRIVES   CONTROLS   AUTOMA                                        0000000023702727800000000001872 00000000852309230090220800002970008379601     201208232012072400000000054340000107136000000000107704000000000000000000000000000568050000000000  3020120827   01          2  R JUNO  533                                                                      3                         000000000000000                                     N                     00598  0000000        000026
12014309992000148WEG DRIVES   CONTROLS   AUTOMA                                        0000000023702727800000000001872 00000000852309220090220800002960008346101     201208212012072400000000054320000056126000000000056348000000000000000000000000000296050000000000  3020120824   06          3  R JUNO  533                                                                      3                         000000000000000                                     N                     00598  0000000        000027
12035820448000136WHITE MARTINS GASES INDUSTRIAI                                        0000000023700026400000003937925 0000000085230921009022080002695355448 001     201208212012072600000000054320000085176000000000087563000000000000000000000000002387050000000000  3020120827   01          2  RUA GANGES  528                                                                  3                         000000000000000                                     N                     00598  0000000        000028
12035820448000136WHITE MARTINS GASES INDUSTRIAI                                        0000000023700026400000003937925 0000000085315496009022090010244358059 001     201208232012072700000000054340000017600000000000018044000000000000000000000000000444050000000000  3020120827   01          2  RUA GANGES  528                                                                  3                         000000000000000                                     N                     00598  0000000        000029
12035820448000136WHITE MARTINS GASES INDUSTRIAI                                        0000000023700026400000003937925 0000000085315497009022090011903358519 001     201208232012072700000000054340000056805000000000058245000000000000000000000000001440050000000000  3020120827   01          2  RUA GANGES  528                                                                  3                         000000000000000                                     N                     00598  0000000        000030
12035820448000136WHITE MARTINS GASES INDUSTRIAI                                        0000000023700026400000003937925 0000000086907101009022370010705372273 001     201209202012082400000000054620000017600000000000017600000000000000000000000000000000050000000000  3020120920   01FS        1  RUA GANGES  528                                                                  3                         000000000000000                                     N                     00598  0000000        000031
12035820448000136WHITE MARTINS GASES INDUSTRIAI                                        0000000023700026400000003937925 0000000086907102009022370011747372774 001     201209202012082400000000054620000040575000000000040575000000000000000000000000000000050000000000  3020120920   01FS        1  RUA GANGES  528                                                                  3                         000000000000000                                     N                     00598  0000000        000032
12042956441000101SOLUCOES ACO USIMINAS                                                 0000000034100000000000000000000000000000815444290000002057933630016097103     201208162012052200000000054270000260199000000000265919000000000000000000000000005720050000000000  3020120827   01          2                                                                                   3112057933635293807258000019                                                  N                     01321  0000000        000033
12042956441000101SOLUCOES ACO USIMINAS                                                 0000000034100000000000000000000000000000815444300000002057933640016097203     201208162012052200000000054270000366589000000000374652000000000000000000000000008063050000000000  3020120827   01          2                                                                                   3112057933643293807258000019                                                  N                     01321  0000000        000034
12042956441000101SOLUCOES ACO USIMINAS                                                 0000000034100000000000000000000000000000816971020000002066217450016143203     201208162012052400000000054270001121663000000001146336000000000000000000000000024673050000000000  3020120827   01          2                                                                                   3112066217459293807258000029                                                  N                     01321  0000000        000035
12042956441000101SOLUCOES ACO USIMINAS                                                 0000000034100000000000000000000000000000813840670000002053421650016071603     201208172012052000000000054280000501511000000000511541000000000000000000000000010030050000000000  3020120827   01          2                                                                                   3112053421650293807258000099                                                  N                     01321  0000000        000036
12042956441000101SOLUCOES ACO USIMINAS                                                 0000000034100000000000000000000000000000813840700000002053421680016075103     201208172012052100000000054280000696198000000000710118000000000000000000000000013920050000000000  3020120827   01          2                                                                                   3112053421684293807258000019                                                  N                     01321  0000000        000037
12042956441000101SOLUCOES ACO USIMINAS                                                 0000000034100000000000000000000000000000813840660000002053421640016071503     201208202012052000000000054310000599868000000000608268000000000000000000000000008400050000000000  3020120827   01          2                                                                                   3112053421643293807258000019                                                  N                     01321  0000000        000038
12042956441000101SOLUCOES ACO USIMINAS                                                 0000000034100000000000000000000000000000813840680000002053421660016074603     201208202012052100000000054310000559016000000000566842000000000000000000000000007826050000000000  3020120827   01          2                                                                                   3112053421668293807258000019                                                  N                     01321  0000000        000039
12042956441000101SOLUCOES ACO USIMINAS                                                 0000000034100000000000000000000000000000813840690000002053421670016074703     201208202012052100000000054310000338677000000000343416000000000000000000000000004739050000000000  3020120827   01          2                                                                                   3112053421676293807258000079                                                  N                     01321  0000000        000040
12042956441000101SOLUCOES ACO USIMINAS                                                 0000000034100000000000000000000000000000813840720000002053421700016093303     201208202012052100000000054310000698273000000000708052000000000000000000000000009779050000000000  3020120827   01          2                                                                                   3112053421700293807258000079                                                  N                     01321  0000000        000041
12042956441000101SOLUCOES ACO USIMINAS                                                 0000000034100000000000000000000000000000813840730000002053421710016093403     201208202012052100000000054310000238232000000000241564000000000000000000000000003332050000000000  3020120827   01          2                                                                                   3112053421718293807258000039                                                  N                     01321  0000000        000042
12042956441000101SOLUCOES ACO USIMINAS                                                 0000000034100000000000000000000000000000836417900000002164218360016738102     201208222012062700000000054330000830173000000000838473000000000000000000000000008300050000000000  3020120827   01          2                                                                                   3112164218367293807258000059                                                  N                     01321  0000000        000043
12042956441000101SOLUCOES ACO USIMINAS                                                 0000000034100000000000000000000000000000813840760000002053421740016090103     201208152012052100000000054260000764660000000000764660000000000000000000000000000000050000000000  3020120815   06          3                                                                                   3112053421742293807258000059                                                  N                     01321  0000000        000044
12042956441000101SOLUCOES ACO USIMINAS                                                 0000000034100000000000000000000000000000815444280000002057933620016097003     201208152012052200000000054260000440956000000000440956000000000000000000000000000000050000000000  3020120815   06          3                                                                                   3112057933627293807258000039                                                  N                     01321  0000000        000045
12043217850000159IOB INFORMACOES OBJ  PUBL JURI                                        0000000023702374400000002958600 000000008540495200902212000099001440820E4     201208202012073000000000054310000072850000000000074475000000000000000000000000001625050000000000  3020120827   01          2  GANGES 528 VL NOVA MANCHESTER                                                    3                         000000000000000                                     N                     00598  0000000        000046
12045577855000118ROVELA IND E COMERCIO LTDA                                            0000000034100000000000000000000000000000845714630000002207265443994BBV        201208172012070600000000054280000315000000000000315000000000000000000000000000000000050000000000  3020120817   06          3                                                                                   3112207265441045274986400049                                                  N                     01321  0000000        000047
12051598472000129ELETRICA J SANTOS                                                     0000000023702451100000000000264 000000008507405800902206000003117806 01       201208232012072300000000054340000092714000000000092714000000000000000000000000000309050000000000  3020120824   06          3  R JUNO  533                                                                      300000000000000000141500  000000000000000                                     N                     00598  0000000        000048
12051598472000129ELETRICA J SANTOS                                                     0000000023702451100000000000264 000000008523091800902208000003817933 01       201208222012072500000000054330000112770000000000114650000000000000000000000000001880050000000000  3020120827   01          2  R JUNO  533                                                                      3                         000000000000000                                     N                     00598  0000000        000049
12052559499000175BOMAX NO BRASIL EQUIP INDS LT                                         0000000034100000000000000000000000000000852309130000002238631900000015611     201208202012071900000000054310000179150000000000180558000000000000000000000000001760050000000000  3020120824   06          3                                                                                   3112238631900324705000200029                                                  N                     01321  0000000        000050
12056993900000131CIA METALURGICA PRADA                                                 0000000034100000000000000000000000000000837460360000002165934320025295402     201208232012062800000000054340000152797000000000153817000000000000000000000000001020050000000000  3020120827   01          2                                                                                   3112165934327293800573900029                                                  N                     01321  0000000        000051
12056993900000131CIA METALURGICA PRADA                                                 0000000034100000000000000000000000000000837460370000002165934330025295502     201208232012062800000000054340000339049000000000341309000000000000000000000000002260050000000000  3020120827   01          2                                                                                   3112165934335293800573900029                                                  N                     01321  0000000        000052
12056993900000131CIA METALURGICA PRADA                                                 0000000034100000000000000000000000000000837460420000002165934340025295602     201208232012062800000000054340000154164000000000155192000000000000000000000000001028050000000000  3020120827   01          2                                                                                   3112165934343293800573900099                                                  N                     01321  0000000        000053
12056993900000131CIA METALURGICA PRADA                                                 0000000034100000000000000000000000000000837460430000002165934350025295702     201208232012062800000000054340000139528000000000140460000000000000000000000000000932050000000000  3020120827   01          2                                                                                   3112165934350293800573900019                                                  N                     01321  0000000        000054
12056993900000131CIA METALURGICA PRADA                                                 0000000034100000000000000000000000000000822364950000002089776730024584703     201208242012060100000000054350000835797000000000839976000000000000000000000000004179050000000000  3020120827   01          2                                                                                   3112089776739293800573900019                                                  N                     01321  0000000        000055
12057017873000124METAFER COMERCIO DE FERRO E AC                                        0000000023703134800000000072206 00000000869070990090223700000430033608C01     201209252012082100000000054670000030750000000000030750000000000000000000000000000000050000000000  3020120925   01FS        1  RUA JUNO  533                                                                    3                         000000000000000                                     N                     00598  0000000        000056
12057158057000130COMERCIAL ELETRICA PJ LTDA                                            0000000023703394400000000972983 00000000842436850090219200008900000305028     201208012012070400000000054120000079196000000000086034000000000000000000000000006838050000000000  3020120827   01          2  R TAMAINDE 1410                                                                  3                         000000000000000                                     N                     00598  0000000        000057
12060770336000165DE CASTRO LOUREIRO ENG IND COM                                        0000000023702372800000008004412 000000008248201400900000000063603025435 0     201208222012053000000000054330000550730000000000552566000000000000000000000000002754050000000000  3020120824   06          3  RUA JUNO  533                           DE CASTRO LOUREIRO ENGENHARIA IND  E COM 3                         047190731000100                                     N                     00598  0000000        000058
12061085866000137COMERCIO DE FERRAGENS A C L LT                                        0000000023700475800000000385662 000000008595906900400475842019516999 12       201208222012072400000000054330000027500000000000027635000000000000000000000000000135050000000000  3020120827   01          2  RUA GANGES 528 SP                                                                3                         000000000000000                                     N                     00598  0000000        000059
12061217188000119TELAS METALICAS TELMETAL LTDA                                         0000000000100000000000000000000000000000844063720000000054910005303 3 3       201208212012071100000000054320000030000000000000030000000000000000000000000000000000050000000000  3020120821   06          3                                                                                   3000000115031800000054911789                                                  N                     01321  0000000        000060
12061217188000119TELAS METALICAS TELMETAL LTDA                                         0000000000100000000000000000000000000000844063760000000054950005305 3 3       201208212012071100000000054320000053722000000000053722000000000000000000000000000000050000000000  3020120821   06          3                                                                                   3000000115031800000054951719                                                  N                     01321  0000000        000061
12066144957000110POSTO DE MOLAS MABAFIL LTDA ME                                        000000000010000000000000000000000000000085074054000000000697000000380         201208122012072300000000054230000041450000000000041991000000000000000000000000000649050000000000  3020120817   05          3                                                                                   3000000162353900000006971749                                                  N                     01321  0000000        000062
12067647412000199ANCORA CHUMBADORES LTDA                                               000000003410000000000000000000000000000083392859000000214873077055988 2       201208192012062000000000054300000250000000000000251476000000000000000000000000001968050000000000  3020120822   06          3                                                                                   3112148730776013626917200069                                                  N                     01321  0000000        000063
12069284248000128ISOCOAT TINTAS E VERNIZES LTDA                                        0000000034100000000000000000000000000000835620770000002157949150051735        201208242012062500000000054350000127321000000000128341000000000000000000000000001020050000000000  3020120827   01          2                                                                                   3112157949150077430121200089                                                  N                     01321  0000000        000064
12075483040000130REX MAQUINAS E EQUIPAMENTOS LT                                        0000000023702656500000000000701 000000008577186300202216000032078261 2 1      201208232012072600000000054340000499850000000000503182000000000000000000000000003332050000000000  3020120827   01          2  RUA  GANGES  528                                                                 3                         000000000000000                                     N                     00598  0000000        000065
12092693118000160BRADESCO SAUDE S A                                                    0000000023700448000000001533991 00000000847452120050100745572410000000000     201208202012071700000000054310000645861000000000648773000000000000000000000000002912050000000000  3020120827   01          2                                                                                   3                         000000000000000                                     N                     00598  0000000        000066
900006700000000019262677                                                                                                                                                                                                                                                                                                                                                                                                                                                                00598  0000000        000067
