0000147602043799295000110ALTAMIRA IND METALURGICA LTDA           20100510000002012092517515300000        2    230A                                                                                          000000000000000                                                                                                                                                                                                                                                                                   000001
12051180370000199IGUAFER FERRO E ACO LTDA      RUA CABO ROMEU CASAGRANDE 600           0000000034100000 0000000000000  I000000000009923000000000000000               201209250000000000000000054670000174715000000000174715000000000000000000000000000000010000009443  3120120925   01HA        000                                                                                 3181547894820077149484600039             009442/02                            N                     00000 10020256        000002
12007358761004741GERDAU ACOS LONGOS S A        AV BORGES DE MEDEIROS  650              9321211023702028100000006041051 I000000000009924016002820172303               201209250000000000000000054670000277861000000000277861000000000000000000000000000000010000017230  3120120925   01HA        000                                                                                 3202816028201723030604105029             00017230/03                          N                     00000 10020256        000003
12002503185000182ANDAIMES MAQUINAS BIG LTDA    AV PROF LUIZ ANHAIA MELLO  600          0315410034100000 0000000000000  I000000000009925000000000000000               201209250000000000000000054670000016951000000000016951000000000000000000000000000000010000005101  3120120925   01HA        000                                                                                 3181548012500650303800900079             005101                               N                     00000 10020256        000004
12061217188000119TELAS METALICAS TELMETAL LTDA RUA ALDEIA DA PRATA  38                 0368008000100000 0000000000000  I000000000009926000000000000000               201209250000000000000000054670000075393000000000075393000000000000000000000000000000010000005532  3120120925   01HA        000                                                                                 3000000115031800000056411739             005532/02-03.                        N                     00000 10020256        000005
900000600000000000544920                                                                                                                                                                                    000000000000000                                                                                                                                                                                                                                                    00000400218680000544920        000006
