0000147602043799295000110ALTAMIRA INDUSTRIA METALURGICA LT       202000000013320120925060851             1                                                                                                                                                                                                                                                                                                                                                                                                    000001
12001895314000162COLETA INDUSTRIAL FIMAVAN LTDA                                        0000000034100000000000000000000000000000866992070000009002335349439           201208272012081700000000054380000123695000000000135710000000000000000000000000012015050000000000  3020120925   01          2                                                                                   3109002335346144604097200019                                                  N                     01321  0000000        000002
12002460454000170AUT SERVICE COMERCIO E SERVICO                                        0000000023702591700000000007692 000000008515292000901322060028234532 2        201209172012072400000000054590000238750000000000254511000000000000000000000000015761050000000000  3020120925   01          2  RUA JUNO  533                                                                    3                         000000000000000                                     N                     00598  0000000        000003
12002503185000182ANDAIMES E MAQUINAS BIG LTDA                                          0000000003300000000000000000000000000000878205850000002800000005169           201209212012090300000000054630000036040000000000036836000000000000000000000000000821050000000000  3020120924   06          3                                                                                   3909689780000000647128010419                                                  N                     01321  0000000        000004
12002503185000182ANDAIMES MAQUINAS BIG LTDA EPP                                        000000003410000000000000000000000000000086282613000000228719913011660         201208302012081000000000054410000012000000000000012448000000000000000000000000000448050000000000  3020120925   01          2                                                                                   3112287199130650303800900039                                                  N                     01321  0000000        000005
12002503185000182ANDAIMES E MAQUINAS BIG LTDA                                          000000003410000000000000000000000000000087820531000000233954448011791         201209212012082700000000054630000026000000000000026588000000000000000000000000000588050000000000  3020120925   01          2                                                                                   3112339544481925303435000019                                                  N                     01321  0000000        000006
12002503185000182ANDAIMES MAQUINAS BIG LTDA EPP                                        0000000034100000000000000000000000000000874070480000002313590765101           201209142012082000000000054560000016500000000000016951000000000000000000000000000451050000000000  3020120925   01          2                                                                                   3112313590765650303800900019                                                  N                     01321  0000000        000007
12002583013000166ITAN TRANSP DE CARGAS EXC E IN                                        000000003410000000000000000000000000000088769805000000241619340008 D          201210142012091800000000054860000105350000000000105350000000000000000000000000000000050000000000  3020121015   01FS        1                                                                                   3112416193400005770252400019                                                  N                     01321  0000000        000008
12002583013000166ITAN TRANSP DE CARGAS EXC E IN                                        000000003410000000000000000000000000000088769806000000241619341008 E          201210212012091800000000054930000105350000000000105350000000000000000000000000000000050000000000  3020121022   01FS        1                                                                                   3112416193418005770252400019                                                  N                     01321  0000000        000009
12002583013000166ITAN TRANSP DE CARGAS EXC E IN                                        000000003410000000000000000000000000000088769803000000241619342008 F          201210282012091800000000055000000105350000000000105350000000000000000000000000000000050000000000  3020121029   01FS        1                                                                                   3112416193426005770252400019                                                  N                     01321  0000000        000010
12003489596000123BEND FLEX I COMERCIO LTDA                                             000000003410000000000000000000000000000086859265000000792419599608            201209122012082300000000054540000695250000000000715990000000000000000000000000022107050000000000  3020120917   05          3                                                                                   3157924195999157734445800089                                                  N                     01321  0000000        000011
12003489596000123BEND FLEX I COMERCIO LTDA                                             000000003410000000000000000000000000000088599899000000171434574613            201209172012081600000000054590000585000000000000594208000000000000000000000000009208050000000000  3020120925   01          2                                                                                   3191714345748157734445800019                                                  N                     01321  0000000        000012
12003489596000123BEND FLEX I COMERCIO LTDA                                             000000003410000000000000000000000000000088350832000000171879874608            201209122012082100000000054540000695250000000000713021000000000000000000000000017771050000000000  3020120925   01          2                                                                                   3191718798744157734445800069                                                  N                     01321  0000000        000013
12003868979000102BAMBOZZI TAL MOTO ESMER LTDA                                          0000000034100000000000000000000000000000887698040000002415829336228 A         201210152012091700000000054870000081900000000000081900000000000000000000000000000000050000000000  3020121015   01FS        1                                                                                   3112415829335064903504500019                                                  N                     01321  0000000        000014
12004934836000114GUAIRA MAT PARA CONSTR LTDA ME                                        00000000341000000000000000000000000000008876979900000090011431423736          201210192012091900000000054910000055500000000000055500000000000000000000000000000000050000000000  3020121019   01FS        1                                                                                   3109001143140076568242200039                                                  N                     01321  0000000        000015
12005151518000140BELENUS DO BRASIL LTDA                                                0000000023703389800000000015091 0000000083945277009021860002353R128108032     201209242012062600000000054660000576000000000000577901000000000000000000000000001901050000000000  3020120925   01          2  RUA GANGES  528                                                                  3                         000000000000000                                     N                     00598  0000000        000016
12005880850000145NEDERMAN BRASIL COM PROD EX LT                                        000000003410000000000000000000000000000086373178000000614350956002763 A       201209252012081400000000054670000289674000000000289674000000000000000000000000000570050000000000  3020120925   01          2                                                                                   3156143509568160829000100049                                                  N                     01321  0000000        000017
12006000195000156MBA MERCANTIL BRAS DE ACO LTDA                                        0000000034100000000000000000000000000000850740620000008671394550008925B02     201209142012072000000000054560000719581000000000719581000000000000000000000000000000050000000000  3020120914   05          3                                                                                   3458671394559064849251000059                                                  N                     01321  0000000        000018
12006000195000156MBA MERCANTIL BRAS DE ACO LTDA                                        0000000034100000000000000000000000000000850740630000008671394560008926B02     201209142012072000000000054560000387716000000000387716000000000000000000000000000000050000000000  3020120914   05          3                                                                                   3458671394567064849251000099                                                  N                     01321  0000000        000019
12006000195000156MBA MERCANTIL BRAS DE ACO LTDA                                        0000000034100000000000000000000000000000887698080000001667238400008876B02     201209142012071600000000054560000810321000000000827855000000000000000000000000017534050000000000  3020120925   01FS        1                                                                                   3191667238403064849251000059                                                  N                     01321  0000000        000020
12006000195000156MBA MERCANTIL BRAS DE ACO LTDA                                        0000000034100000000000000000000000000000887698090000001671394550008925B02     201209142012071700000000054560000719581000000000735146000000000000000000000000015565050000000000  3020120925   01FS        1                                                                                   3191671394556064849251000089                                                  N                     01321  0000000        000021
12006000195000156MBA MERCANTIL BRAS DE ACO LTDA                                        0000000034100000000000000000000000000000887698100000001671394560008926B02     201209142012071700000000054560000387716000000000396109000000000000000000000000008393050000000000  3020120925   01FS        1                                                                                   3191671394564064849251000019                                                  N                     01321  0000000        000022
12006000195000156M B A MERCANTIL BRASILEIRA DE                                         0000000023700118P00000002130599 00000000853154990020220900000450008967B02     201209202012072400000000054620000135606000000000136736000000000000000000000000001130050000000000  3020120925   01          2  RUA JUNO  533                                                                    3                         000000000000000                                     N                     00598  0000000        000023
12006000195000156M B A MERCANTIL BRASILEIRA DE                                         0000000023700118P00000002130599 00000000853155110020220900000710008987B02     201209202012072500000000054620000188368000000000189938000000000000000000000000001570050000000000  3020120925   01          2  RUA JUNO  533                                                                    3                         000000000000000                                     N                     00598  0000000        000024
12006000195000156MBA MERCANTIL BRAS DE ACO LTDA                                        0000000034100000000000000000000000000000885998980000001667238420008870B02     201209112012071600000000054530000839952000000000863080000000000000000000000000023128050000000000  3020120925   01          2                                                                                   3191667238429064849251000039                                                  N                     01321  0000000        000025
12006000195000156M B A MERCANTIL BRASILEIRA DE                                         0000000000100000000000000000000000000000855028900000007952840000009005B02     201209242012073000000000054660000202838000000000203176000000000000000000000000000338050000000000  3020120925   01          2                                                                                   3043937952843333000105251189                                                  N                     01321  0000000        000026
12006000195000156MBA MERCANTIL BRAS DE ACO LTDA                                        0000000034100000000000000000000000000000886866570000001667238410008874B02     201209132012071600000000054550000802826000000000821774000000000000000000000000018948050000000000  3020120925   01          2                                                                                   3191667238411064849251000049                                                  N                     01321  0000000        000027
12006000195000156M B A MERCANTIL BRASILEIRA DE                                         0000000000100000000000000000000000000000831387010000007752220000008614B03     201209112012062000000000054530000949922000000000959420000000000000000000000000011081050000000000  3020120917   05          3                                                                                   3043837752223333000105251159                                                  N                     01321  0000000        000028
12006000195000156MBA MERCANTIL BRAS DE ACO LTDA                                        0000000034100000000000000000000000000000848957270000008667238400008876B02     201209142012071900000000054560000810321000000000810321000000000000000000000000000000050000000000  3020120914   05          3                                                                                   3458667238406064849251000029                                                  N                     01321  0000000        000029
12007175725000160WEG EQUIPAMENTOS ELETRICOS SA                                         0000000023702727800000000196800 00000000832180610090217400004980095359902     201209202012052300000000054620000272787000000000274602000000000000000000000000001815050000000000  3020120925   01          2  R JUNO  533                                                                      3                         000000000000000                                     N                     00598  0000000        000030
12007565346000186ALFLEX PLASTICOS E FERRAGENS L                                        0000000023701416800000000407607 0000000088769811009013226800205S000000195     201210152012092400000000054870000187500000000000187500000000000000000000000000000000050000000000  3020121015   01FS        1  RUA TAMAINDE  1410                                                               3                         000000000000000                                     N                     00598  0000000        000031
12007565346000186ALFLEX PLASTICOS E FERRAGENS L                                        0000000023701416800000000407607 0000000088769812009013226800206S000000196     201210232012092400000000054950000187500000000000187500000000000000000000000000000000050000000000  3020121023   01FS        1  RUA TAMAINDE  1410                                                               3                         000000000000000                                     N                     00598  0000000        000032
12008508119000181DINARI FOMENTO MERCANTIL LTDA                                         000000003990000000000000000000000000000086538835000000000000000209            201209112012081600000000054530000220000000000000220000000000000000000000000000000000050000000000  3020120911   05          3                                                                                   3175800915800198002280900199                                                  N                     01321  0000000        000033
12008508119000181DINARI FOMENTO MERCANTIL LTDA                                         0000000023702499600000000178306 0000000086282616002022260000004206 B          201209242012081000000000054660000170000000000000175610000000000000000000000000005610050000000000  3020120925   01          2  RUA JUNO  533 VL N MANCHESTER SAO PAULO PANKRO LOGISTICA E TRANSPORTES LTDA EPP  300000000000000000141500  002269980000158                                     N                     00598  0000000        000034
12008508119000181DINARI FOMENTO MERCANTIL LTDA                                         0000000023702499600000000178306 0000000086907103002022370000018224            201209212012082200000000054630000220000000000000229240000000000000000000000000009240050000000000  3020120925   01          2  RUA JUNO  533 VL N MANCHESTER SAO PAULO PANKRO LOGISTICA E TRANSPORTES LTDA EPP  3                         002269980000158                                     N                     00598  0000000        000035
12008709272000177MULTIELETRICA C M E LTDA                                              000000003410000000000000000000000000000085771860000000900002207000002535D     201209112012072400000000054530000188886000000000202256000000000000000000000000013741050000000000  3020120917   05          3                                                                                   3109000022073075798525400059                                                  N                     01321  0000000        000036
12009043000000143GERSON D DA SILVA SEGURANCA DO                                        000000003990000000000000000000000000000088769813000000000000000375            201210152012092400000000054870000071586000000000071586000000000000000000000000000000050000000000  3020121015   01FS        1                                                                                   3304770033930477000087000139                                                  N                     01321  0000000        000037
12009338857000190FERNANDO  NAGAO  CARDONE  ALVA                                        000000000330000000000000000000000000000087820609000000360000000ALTA 09 2012   201209202012083000000000054620000134632000000000137998000000000000000000000000003366050000000000  3020120925   01          2                                                                                   3947901700000051049236010119                                                  N                     01321  0000000        000038
12009419898000101LUSITANO INDUSTRIA C E P LTDA                                         00000000341000000000000000000000000000008653882000000090000757101 10137 2     201209192012081500000000054610000035135000000000035837000000000000000000000000000702050000000000  3020120925   01          2                                                                                   3109000075716001160072300049                                                  N                     01321  0000000        000039
12009441975000120SPEEDY CRED FOMENTO MERCANTIL                                         0000000023700094900000000990744 00000000869071000020132236074912868 AA        201209182012082300000000054600000064000000000000066688000000000000000000000000002688050000000000  3020120925   01          2  RUA TAMAINDE 1410                       MACKVEN MAQUINAS INDUSTRIAIS LTDA EPP    3                         005441222000163                                     N                     00598  0000000        000040
12011202309000180FIEL TOOLS DISTRIBUIDORA DE MA                                        0000000023702087700000000000116 0000000086455443009000020190022009002 2       201209182012081400000000054600000041000000000000041000000000000000000000000000000000050000000000  3020120918   06          3  R TAMAINDE  1 410   RUA GANGES  520 E 52                                         3                         000000000000000                                     N                     00598  0000000        000041
12011318709000156MARTINS MARIANO T LTDA                                                0000000034100000000000000000000000000000878205650000009000009426237           201209172012082800000000054590000058956000000000058956000000000000000000000000000000050000000000  3020120917   05          3                                                                                   3109000009427007265858600039                                                  N                     01321  0000000        000042
12011318709000156IMPAKTO TRANSPORTES                                                   0000000000100000000000000000000000000000887697860000000000930006586           201210112012092100000000054830000052974000000000052974000000000000000000000000000000050000000000  3020121011   01FS        1                                                                                   3000000245286000000000931799                                                  N                     01321  0000000        000043
12011318709000156IMPAKTO TRANSPORTES                                                   0000000000100000000000000000000000000000887697870000000001090005398           201210122012092100000000054840000011000000000000011000000000000000000000000000000000050000000000  3020121015   01FS        1                                                                                   3000000245286000000001091769                                                  N                     01321  0000000        000044
12012006058000121WEG TINTAS LTDA                                                       0000000023702727800000000001309 00000000834820640090217900000760014773903     201209092012062600000000054510000306662000000000313190000000000000000000000000006528050000000000  3020120925   01          2  R JUNO  533                                                                      3                         000000000000000                                     N                     00598  0000000        000045
12012006058000121WEG TINTAS LTDA                                                       0000000023702727800000000001309 00000000841061130090218800000850014990203     201209182012070500000000054600000306662000000000309518000000000000000000000000002856050000000000  3020120925   01          2  R JUNO  533                                                                      3                         000000000000000                                     N                     00598  0000000        000046
12012006058000121WEG TINTAS LTDA                                                       0000000023702727800000000001309 00000000842436830090219200000850015068802     201209072012070900000000054490000306569000000000313913000000000000000000000000007344050000000000  3020120925   01          2  R JUNO  533                                                                      3                         000000000000000                                     N                     00598  0000000        000047
12012006058000121WEG TINTAS LTDA                                                       0000000023702727800000000001309 00000000849855330090220500001210015343102     201209182012072000000000054600000306569000000000309425000000000000000000000000002856050000000000  3020120925   01          2  R JUNO  533                                                                      3                         000000000000000                                     N                     00598  0000000        000048
12012006058000121WEG TINTAS LTDA                                                       0000000023702727800000000001309 00000000854049540090221200001000015513001     201209102012072700000000054520000459854000000000469049000000000000000000000000009195050000000000  3020120925   01          2  R JUNO  533                                                                      3                         000000000000000                                     N                     00598  0000000        000049
12012006058000121WEG TINTAS LTDA                                                       0000000023702727800000000001309 00000000856071250090221400000820015587301     201209142012073100000000054560000459854000000000466597000000000000000000000000006743050000000000  3020120925   01          2  R JUNO  533                                                                      3                         000000000000000                                     N                     00598  0000000        000050
12012006058000121WEG TINTAS LTDA                                                       0000000023702727800000000001309 00000000842436840090219200000860015068803     201209222012070900000000054640000306662000000000307886000000000000000000000000001224050000000000  3020120925   01          2  R JUNO  533                                                                      3                         000000000000000                                     N                     00598  0000000        000051
12012006058000121WEG TINTAS LTDA                                                       0000000023702727800000000001309 00000000844839230090219500000720015168702     201209102012071200000000054520000306569000000000312689000000000000000000000000006120050000000000  3020120925   01          2  R JUNO  533                                                                      3                         000000000000000                                     N                     00598  0000000        000052
12012006058000121WEG TINTAS LTDA                                                       0000000023702727800000000001309 00000000847452150090220000000920015248102     201209152012071700000000054570000306569000000000310649000000000000000000000000004080050000000000  3020120925   01          2  R JUNO  533                                                                      3                         000000000000000                                     N                     00598  0000000        000053
12012006058000121WEG TINTAS LTDA                                                       0000000023702727800000000001309 00000000861207260090222200000900015775001     201209222012080800000000054640000306569000000000307793000000000000000000000000001224050000000000  3020120925   01          2  R JUNO  533                                                                      3                         000000000000000                                     N                     00598  0000000        000054
12014309992000148WEG DRIVES   CONTROLS   AUTOMA                                        0000000023702727800000000001872 00000000828904050090217000002200005763302     201209152012051800000000054570000272992000000000276622000000000000000000000000003630050000000000  3020120925   01          2  R JUNO  533                                                                      3                         000000000000000                                     N                     00598  0000000        000055
12014775592000128HELIO ADRIANO DA SILVA ME                                             0000000003300000000000000000000000000000887698150000005800000008682           201210102012092100000000054820000040000000000000040000000000000000000000000000000000050000000000  3020121010   01FS        1                                                                                   3956114740000000000058010159                                                  N                     01321  0000000        000056
12016802308000190TRANSMARRECO LTDA                                                     000000000330000000000000000000000000000088769814000000640000000353 12         201210052012092100000000054770000106581000000000106581000000000000000000000000000000050000000000  3020121005   01FS        1                                                                                   3907636240000000643564010119                                                  N                     01321  0000000        000057
12033325184001786ALSCO TOALHEIRO BRASIL                                                0000000023703396000000001490850 0000000087168277009000002698905VM26989        201209132012082400000000054550000040130000000000040570000000000000000000000000000480050000000000  3020120924   06          3  RUA  GANGES 528                                                                  3                         000000000000000                                     N                     00598  0000000        000058
12035820448000136WHITE MARTINS GASES INDUSTRIAI                                        0000000023700026400000003937925 0000000086196029009022230001562364184 001     201209062012081000000000054480000113610000000000118751000000000000000000000000005141050000000000  3020120925   01          2  RUA GANGES  528                                                                  3                         000000000000000                                     N                     00598  0000000        000059
12035820448000136WHITE MARTINS GASES INDUSTRIAI                                        0000000023700026400000003937925 0000000086699210009022330000393368126 001     201209142012081800000000054560000162300000000000167922000000000000000000000000005622050000000000  3020120925   01          2  RUA GANGES  528                                                                  3                         000000000000000                                     N                     00598  0000000        000060
12035820448000136WHITE MARTINS GASES INDUSTRIAI                                        0000000023700026400000003937925 0000000086812633009022350001453369229 001     201209182012082200000000054600000056805000000000058473000000000000000000000000001668050000000000  3020120925   01          2  RUA GANGES  528                                                                  3                         000000000000000                                     N                     00598  0000000        000061
12035820448000136WHITE MARTINS GASES INDUSTRIAI                                        0000000023700026400000003937925 0000000086538817009022290001168366855 001     201209112012081600000000054530000121725000000000126427000000000000000000000000004702050000000000  3020120925   01          2  RUA GANGES  528                                                                  3                         000000000000000                                     N                     00598  0000000        000062
12035820448000136WHITE MARTINS GASES INDUSTRIAI                                        0000000023700026400000003937925 0000000085861656009022190000404361579 001     201208312012080400000000054420000162300000000000170946000000000000000000000000008646050000000000  3020120925   01          2  RUA GANGES  528                                                                  3                         000000000000000                                     N                     00598  0000000        000063
12035820448000136WHITE MARTINS GASES INDUSTRIAI                                        0000000023700026400000003937925 0000000086907101009022370010705372273 001     201209202012082400000000054620000017600000000000018067000000000000000000000000000467050000000000  3020120925   01          2  RUA GANGES  528                                                                  3                         000000000000000                                     N                     00598  0000000        000064
12035820448000136WHITE MARTINS GASES INDUSTRIAI                                        0000000023700026400000003937925 0000000086907102009022370011747372774 001     201209202012082400000000054620000040575000000000041656000000000000000000000000001081050000000000  3020120925   01          2  RUA GANGES  528                                                                  3                         000000000000000                                     N                     00598  0000000        000065
12042956441000101SOLUCOES EM ACO USIMINAS S A                                          000000000010000000000000000000000000000083482053000000086560000000166827003   201209172012062600000000054590000577023000000000586255000000000000000000000000009232050000000000  3020120925   01          2                                                                                   3000000169660100000865601719                                                  N                     01321  0000000        000066
12042956441000101SOLUCOES ACO USIMINAS                                                 0000000034100000000000000000000000000000856906420000002262886290017266301     201208282012073000000000054390000145069000000000153189000000000000000000000000008120050000000000  3020120925   01          2                                                                                   3112262886297293807258000099                                                  N                     01321  0000000        000067
12042956441000101SOLUCOES EM ACO USIMINAS S A                                          000000000010000000000000000000000000000083482047000000086548000000166813003   201209172012062600000000054590000391569000000000397833000000000000000000000000006264050000000000  3020120925   01          2                                                                                   3000000169660100000865481719                                                  N                     01321  0000000        000068
12042956441000101SOLUCOES EM ACO USIMINAS S A                                          000000000010000000000000000000000000000083482050000000086554000000166815003   201209172012062600000000054590000649087000000000659471000000000000000000000000010384050000000000  3020120925   01          2                                                                                   3000000169660100000865541789                                                  N                     01321  0000000        000069
12042956441000101SOLUCOES EM ACO USIMINAS S A                                          000000000010000000000000000000000000000083482056000000086563000000166828003   201209172012062600000000054590000325384000000000330592000000000000000000000000005208050000000000  3020120925   01          2                                                                                   3000000169660100000865631789                                                  N                     01321  0000000        000070
12042956441000101SOLUCOES EM ACO USIMINAS S A                                          000000000010000000000000000000000000000083482059000000086566000000166829003   201209172012062600000000054590000125200000000000127200000000000000000000000000002000050000000000  3020120925   01          2                                                                                   3000000169660100000865661769                                                  N                     01321  0000000        000071
12042956441000101SOLUCOES EM ACO USIMINAS S A                                          000000000010000000000000000000000000000083562085000000087494000000167113003   201209182012062700000000054600000698474000000000708253000000000000000000000000009779050000000000  3020120925   01          2                                                                                   3000000169660100000874941719                                                  N                     01321  0000000        000072
12042956441000101SOLUCOES ACO USIMINAS                                                 0000000034100000000000000000000000000000846595710000002210880290016980602     201209102012071200000000054520000426094000000000438874000000000000000000000000012780050000000000  3020120925   01          2                                                                                   3112210880293293807258000019                                                  N                     01321  0000000        000073
12042956441000101SOLUCOES ACO USIMINAS                                                 0000000034100000000000000000000000000000847452070000002216130350005922202     201209102012071600000000054520000172071000000000177231000000000000000000000000005160050000000000  3020120925   01          2                                                                                   3112216130354293807258000049                                                  N                     01321  0000000        000074
12042956441000101SOLUCOES ACO USIMINAS                                                 0000000034100000000000000000000000000000847452100000002216130340017012402     201209102012071500000000054520000147428000000000151853000000000000000000000000004425050000000000  3020120925   01          2                                                                                   3112216130347293807258000059                                                  N                     01321  0000000        000075
12042956441000101SOLUCOES ACO USIMINAS                                                 0000000034100000000000000000000000000000848180700000002220192900017041002     201209112012071700000000054530000155433000000000159787000000000000000000000000004354050000000000  3020120925   01          2                                                                                   3112220192903293807258000029                                                  N                     01321  0000000        000076
12042956441000101SOLUCOES ACO USIMINAS                                                 0000000034100000000000000000000000000000848180710000002220192910017041202     201209112012071700000000054530000205421000000000211175000000000000000000000000005754050000000000  3020120925   01          2                                                                                   3112220192911293807258000019                                                  N                     01321  0000000        000077
12042956441000101SOLUCOES ACO USIMINAS                                                 0000000034100000000000000000000000000000850740460000002233586800017127201     201208202012072000000000054310000137881000000000147817000000000000000000000000009936050000000000  3020120925   01          2                                                                                   3112233586802293807258000019                                                  N                     01321  0000000        000078
12042956441000101SOLUCOES ACO USIMINAS                                                 0000000034100000000000000000000000000000850740470000002233586810017101002     201209142012071900000000054560000732575000000000748690000000000000000000000000016115050000000000  3020120925   01          2                                                                                   3112233586810293807258000019                                                  N                     01321  0000000        000079
12042956441000101SOLUCOES ACO USIMINAS                                                 0000000034100000000000000000000000000000850740480000002233586820017101202     201209142012071900000000054560000144634000000000147813000000000000000000000000003179050000000000  3020120925   01          2                                                                                   3112233586828293807258000029                                                  N                     01321  0000000        000080
12042956441000101SOLUCOES ACO USIMINAS                                                 0000000034100000000000000000000000000000850740490000002233586830017126902     201209172012072000000000054590000208392000000000211728000000000000000000000000003336050000000000  3020120925   01          2                                                                                   3112233586836293807258000089                                                  N                     01321  0000000        000081
12042956441000101SOLUCOES ACO USIMINAS                                                 0000000034100000000000000000000000000000850740500000002233586840017127002     201209172012072000000000054590000190428000000000193476000000000000000000000000003048050000000000  3020120925   01          2                                                                                   3112233586844293807258000019                                                  N                     01321  0000000        000082
12042956441000101SOLUCOES ACO USIMINAS                                                 0000000034100000000000000000000000000000850740510000002233586850017127102     201209172012072000000000054590000167727000000000170407000000000000000000000000002680050000000000  3020120925   01          2                                                                                   3112233586851293807258000039                                                  N                     01321  0000000        000083
12042956441000101SOLUCOES EM ACO USIMINAS S A                                          000000000010000000000000000000000000000083482042000000086551000000166814003   201209172012062600000000054590000317656000000000322736000000000000000000000000005080050000000000  3020120925   01          2                                                                                   3000000169660100000865511779                                                  N                     01321  0000000        000084
12042956441000101SOLUCOES ACO USIMINAS                                                 0000000034100000000000000000000000000000853154830000002246247020017196602     201209202012072500000000054620000804808000000000812858000000000000000000000000008050050000000000  3020120925   01          2                                                                                   3112246247020293807258000089                                                  N                     01321  0000000        000085
12042956441000101SOLUCOES ACO USIMINAS                                                 0000000034100000000000000000000000000000853154840000002246247030017196702     201209202012072500000000054620000234841000000000237191000000000000000000000000002350050000000000  3020120925   01          2                                                                                   3112246247038293807258000099                                                  N                     01321  0000000        000086
12042956441000101SOLUCOES ACO USIMINAS                                                 0000000034100000000000000000000000000000853154850000002246247040017197302     201209202012072500000000054620000970103000000000979803000000000000000000000000009700050000000000  3020120925   01          2                                                                                   3112246247046293807258000019                                                  N                     01321  0000000        000087
12042956441000101SOLUCOES ACO USIMINAS                                                 0000000034100000000000000000000000000000856906410000002262886280017266201     201208282012073000000000054390000119472000000000126164000000000000000000000000006692050000000000  3020120925   01          2                                                                                   3112262886289293807258000089                                                  N                     01321  0000000        000088
12042956441000101SOLUCOES ACO USIMINAS                                                 0000000034100000000000000000000000000000855028670000002254329360017200402     201209202012072600000000054620000163224000000000164854000000000000000000000000001630050000000000  3020120925   01          2                                                                                   3112254329363293807258000069                                                  N                     01321  0000000        000089
12042956441000101SOLUCOES ACO USIMINAS                                                 0000000034100000000000000000000000000000855028680000002254329370017202402     201209202012072600000000054620000244136000000000246576000000000000000000000000002440050000000000  3020120925   01          2                                                                                   3112254329371293807258000079                                                  N                     01321  0000000        000090
12042956441000101SOLUCOES ACO USIMINAS                                                 0000000034100000000000000000000000000000855028690000002254329380017212902     201209212012072600000000054630000140098000000000141218000000000000000000000000001120050000000000  3020120925   01          2                                                                                   3112254329389293807258000019                                                  N                     01321  0000000        000091
12042956441000101SOLUCOES ACO USIMINAS                                                 0000000034100000000000000000000000000000855028700000002254329390017213002     201209212012072600000000054630000140602000000000141726000000000000000000000000001124050000000000  3020120925   01          2                                                                                   3112254329397293807258000089                                                  N                     01321  0000000        000092
12042956441000101SOLUCOES ACO USIMINAS                                                 0000000034100000000000000000000000000000855028720000002254329340017200202     201209202012072600000000054620000680385000000000687190000000000000000000000000006805050000000000  3020120925   01          2                                                                                   3112254329348293807258000079                                                  N                     01321  0000000        000093
12042956441000101SOLUCOES ACO USIMINAS                                                 0000000034100000000000000000000000000000855028730000002254329350017200302     201209202012072600000000054620000156896000000000158466000000000000000000000000001570050000000000  3020120925   01          2                                                                                   3112254329355293807258000029                                                  N                     01321  0000000        000094
12042956441000101SOLUCOES ACO USIMINAS                                                 0000000034100000000000000000000000000000855028770000002254329400017220502     201209212012072700000000054630000981022000000000988870000000000000000000000000007848050000000000  3020120925   01          2                                                                                   3112254329405293807258000099                                                  N                     01321  0000000        000095
12042956441000101SOLUCOES EM ACO USIMINAS S A                                          000000000010000000000000000000000000000083562088000000087497000000167114003   201209182012062700000000054600000703009000000000712851000000000000000000000000009842050000000000  3020120925   01          2                                                                                   3000000169660100000874971789                                                  N                     01321  0000000        000096
12042956441000101SOLUCOES EM ACO USIMINAS S A                                          000000000010000000000000000000000000000083482044000000086545000000166812003   201209172012062600000000054590000608955000000000618699000000000000000000000000009744050000000000  3020120925   01          2                                                                                   3000000169660100000865451759                                                  N                     01321  0000000        000097
12042956441000101SOLUCOES ACO USIMINAS                                                 0000000034100000000000000000000000000000840313050000002181699260016829803     201209242012070200000000054660000322527000000000323172000000000000000000000000000645050000000000  3020120925   01          2                                                                                   3112181699268293807258000029                                                  N                     01321  0000000        000098
12042956441000101SOLUCOES ACO USIMINAS                                                 0000000034100000000000000000000000000000840313080000002181699230016814403     201209242012070200000000054660000968423000000000970360000000000000000000000000001937050000000000  3020120925   01          2                                                                                   3112181699235293807258000079                                                  N                     01321  0000000        000099
12042956441000101SOLUCOES ACO USIMINAS                                                 0000000034100000000000000000000000000000840313090000002181699240016827103     201209242012070200000000054660000703009000000000704415000000000000000000000000001406050000000000  3020120925   01          2                                                                                   3112181699243293807258000019                                                  N                     01321  0000000        000100
12042956441000101SOLUCOES ACO USIMINAS                                                 0000000034100000000000000000000000000000836417910000002164218370016738103     201209192012062700000000054610000830173000000000840133000000000000000000000000009960050000000000  3020120925   01          2                                                                                   3112164218375293807258000039                                                  N                     01321  0000000        000101
12042956441000101SOLUCOES ACO USIMINAS                                                 0000000034100000000000000000000000000000846595700000002210880280016980502     201209102012071200000000054520000156071000000000160751000000000000000000000000004680050000000000  3020120925   01          2                                                                                   3112210880285293807258000039                                                  N                     01321  0000000        000102
12042956441000101SOLUCOES ACO USIMINAS                                                 0000000034100000000000000000000000000000840313040000002181699250016829703     201209242012070200000000054660000643711000000000644998000000000000000000000000001287050000000000  3020120925   01          2                                                                                   3112181699250293807258000019                                                  N                     01321  0000000        000103
12042956441000101SOLUCOES EM ACO USIMINAS S A                                          000000000010000000000000000000000000000083562091000000087500000000167115003   201209182012062700000000054600000240663000000000244030000000000000000000000000003367050000000000  3020120925   01          2                                                                                   3000000169660100000875001739                                                  N                     01321  0000000        000104
12043217850000159IOB INFORMACOES OBJ  PUBL JURI                                        0000000023702374400000002958600 000000008711912800902243000063301440820F2     201209202012083000000000054620000072850000000000074427000000000000000000000000001577050000000000  3020120925   01          2  R GANGES 528                                                                     3                         000000000000000                                     N                     00598  0000000        000105
12043217850000159IOB INFORMACOES OBJ  PUBL JURI                                        0000000023702374400000002958600 000000008540495200902212000099001440820E4     201208202012073000000000054310000072850000000000075171000000000000000000000000002321050000000000  3020120925   01          2  GANGES 528 VL NOVA MANCHESTER                                                    3                         000000000000000                                     N                     00598  0000000        000106
12047190731000100DE CASTRO LOUREIRO E I C LTDA                                         00000000422000000000000000000000000000008403132600000000000000003025894 0     201209202012070300000000054620000255836000000000258605000000000000000000000000002769050000000000  3020120925   01          2                                                                                   3709700002021396491400268179                                                  N                     01321  0000000        000107
12047190731000100DE CASTRO LOUR ENG IND LTDA                                           00000000341000000000000000000000000000008782051200000023399953803026613 0     201209182012082100000000054600001107989000000001123242000000000000000000000000015253050000000000  3020120925   01          2                                                                                   3112339995386036884500400039                                                  N                     01321  0000000        000108
12047190731000100DE CASTRO LOUR ENG IND LTDA                                           00000000341000000000000000000000000000008782051600000023399954103026614 0     201209182012082100000000054600001047621000000001062041000000000000000000000000014420050000000000  3020120925   01          2                                                                                   3112339995410036884500400039                                                  N                     01321  0000000        000109
12047190731000100DE CASTRO LOUR ENG IND LTDA                                           00000000341000000000000000000000000000008782050900000023399953503026612 0     201209182012082100000000054600001111489000000001126791000000000000000000000000015302050000000000  3020120925   01          2                                                                                   3112339995352036884500400019                                                  N                     01321  0000000        000110
12047190731000100DE CASTRO LOUR ENG IND LTDA                                           00000000341000000000000000000000000000008782052000000023399955303026632 0     201209192012082200000000054610000952073000000000963305000000000000000000000000011232050000000000  3020120925   01          2                                                                                   3112339995535036884500400019                                                  N                     01321  0000000        000111
12047190731000100DE CASTRO LOUR ENG IND LTDA                                           00000000341000000000000000000000000000008782052100000023399955903026643 0     201209202012082300000000054620000867039000000000875564000000000000000000000000008525050000000000  3020120925   01          2                                                                                   3112339995592036884500400049                                                  N                     01321  0000000        000112
12047190731000100DE CASTRO LOUR ENG IND LTDA                                           00000000341000000000000000000000000000008782052500000023399955603026636 0     201209192012082200000000054610000940804000000000951904000000000000000000000000011100050000000000  3020120925   01          2                                                                                   3112339995568036884500400049                                                  N                     01321  0000000        000113
12047190731000100DE CASTRO LOUR ENG IND LTDA                                           00000000341000000000000000000000000000008782052700000023399956203026648 0     201209202012082300000000054620000976053000000000985653000000000000000000000000009600050000000000  3020120925   01          2                                                                                   3112339995626036884500400029                                                  N                     01321  0000000        000114
12051180370000199IGUAFER FERRO E ACO LTDA                                              0000000034100000000000000000000000000000852309100000002239389789443 B         201209022012071800000000054440000168275000000000174715000000000000000000000000006440050000000000  3020120925   01          2                                                                                   3112239389789077149484600089                                                  N                     01321  0000000        000115
12051180370000199IGUAFER FERRO E ACO LTDA                                              0000000034100000000000000000000000000000852309110000002239389799443 C         201209122012071800000000054540000168275000000000171915000000000000000000000000003640050000000000  3020120925   01          2                                                                                   3112239389797077149484600089                                                  N                     01321  0000000        000116
12051180370000199IGUAFER FERRO E ACO LTDA                                              0000000034100000000000000000000000000000852309120000002239389809443 D         201209222012071800000000054640000168275000000000169115000000000000000000000000000840050000000000  3020120925   01          2                                                                                   3112239389805077149484600029                                                  N                     01321  0000000        000117
12053585766000141MULTIACOS IND  COM  PROD  TEC                                         0000000038900000000000000000000000000000878205380000000000000000004462302     201209242012073000000000054660000262786000000000263224000000000000000000000000000438050000000000  3020120925   01          2                                                                                   3015601031416185000042309219                                                  N                     01321  0000000        000118
12053585766000141MULTIACOS IND  COM  PROD  TEC                                         0000000038900000000000000000000000000000878205390000000000000000004462402     201209242012073000000000054660000761496000000000762765000000000000000000000000001269050000000000  3020120925   01          2                                                                                   3015601031416193000042309239                                                  N                     01321  0000000        000119
12053585766000141MULTIACOS IND  COM  PROD  TEC                                         0000000038900000000000000000000000000000878205400000000000000000004532101     201209242012081300000000054660000910692000000000912210000000000000000000000000001518050000000000  3020120925   01          2                                                                                   3015601031416320000042309219                                                  N                     01321  0000000        000120
12053585766000141MULTIACOS IND  COM  PROD  TEC                                         0000000038900000000000000000000000000000878205410000000000000000004532301     201209242012081300000000054660000265180000000000265622000000000000000000000000000442050000000000  3020120925   01          2                                                                                   3015601031416339000042309269                                                  N                     01321  0000000        000121
12053585766000141MULTIACOS IND  COM  PROD  TEC                                         0000000038900000000000000000000000000000878205420000000000000000004462202     201209242012073000000000054660000569064000000000570012000000000000000000000000000948050000000000  3020120925   01          2                                                                                   3015601031416177000042309239                                                  N                     01321  0000000        000122
12053585766000141MULTIACOS COM DE PRODUTOS TECN                                        0000000023703398700000000011290 00000000870177470020224100000800004521801     201209212012081000000000054630000836236000000000841812000000000000000000000000005576050000000000  3020120925   01          2  RUA JUNO  533                                                                    3                         000000000000000                                     N                     00598  0000000        000123
12053585766000141MULTIACOS COM DE PRODUTOS TECN                                        0000000023703398700000000011290 00000000870177450020224100000280004452002     201209212012072700000000054630000865030000000000870798000000000000000000000000005768050000000000  3020120925   01          2  RUA JUNO  533                                                                    3                         000000000000000                                     N                     00598  0000000        000124
12053585766000141MULTIACOS COM DE PRODUTOS TECN                                        0000000023703398700000000011290 00000000870177460020224100000290004453002     201209212012072700000000054630000619209000000000623337000000000000000000000000004128050000000000  3020120925   01          2  RUA JUNO  533                                                                    3                         000000000000000                                     N                     00598  0000000        000125
12053585766000141MULTIACOS COM DE PRODUTOS TECN                                        0000000023703398700000000011290 00000000870177440020224100000020004375203     201209212012071200000000054630000311850000000000313930000000000000000000000000002080050000000000  3020120925   01          2  RUA JUNO  533                                                                    3                         000000000000000                                     N                     00598  0000000        000126
12053585766000141MULTIACOS INDUSTRIA E COMERCIO                                        0000000000100000000000000000000000000000874070590000007281250000004478801     201209132012082100000000054550000217628000000000217991000000000000000000000000000726050000000000  3020120914   05          3                                                                                   3043997281251912000139523199                                                  N                     01321  0000000        000127
12053585766000141MULTIACOS INDUSTRIA E COMERCIO                                        0000000000100000000000000000000000000000874070600000007281260000004478901     201209132012082100000000054550000134604000000000134828000000000000000000000000000448050000000000  3020120914   05          3                                                                                   3043997281261912000139523119                                                  N                     01321  0000000        000128
12053585766000141MULTIACOS INDUSTRIA E COMERCIO                                        0000000000100000000000000000000000000000874070690000007281270000004479001     201209132012082100000000054550000856458000000000857885000000000000000000000000002854050000000000  3020120914   05          3                                                                                   3043997281271912000139523199                                                  N                     01321  0000000        000129
12053585766000141MULTIACOS I C PRODS TEC LTDA                                          0000000042200000000000000000000000000000887697880000000000000000004612003     201211062012092000000000055090000465862000000000465862000000000000000000000000000000050000000000  3020121106   01FS        1                                                                                   3711500005033164923629548119                                                  N                     01321  0000000        000130
12053585766000141MULTIACOS I C PRODS TEC LTDA                                          0000000042200000000000000000000000000000887697890000000000000000004704302     201211132012092000000000055160000965514000000000965514000000000000000000000000000000050000000000  3020121113   01FS        1                                                                                   3711500005033164923629556119                                                  N                     01321  0000000        000131
12053585766000141MULTIACOS I C PRODS TEC LTDA                                          0000000042200000000000000000000000000000887697900000000000000000004612302     201210232012092000000000054950000636673000000000636673000000000000000000000000000000050000000000  3020121023   01FS        1                                                                                   3711500005033164923629602139                                                  N                     01321  0000000        000132
12053585766000141MULTIACOS I C PRODS TEC LTDA                                          0000000042200000000000000000000000000000887697910000000000000000004704303     201211272012092000000000055300000965514000000000965514000000000000000000000000000000050000000000  3020121127   01FS        1                                                                                   3711500005033164923629564189                                                  N                     01321  0000000        000133
12053585766000141MULTIACOS I C PRODS TEC LTDA                                          0000000042200000000000000000000000000000887697920000000000000000004612303     201211062012092000000000055090000636673000000000636673000000000000000000000000000000050000000000  3020121106   01FS        1                                                                                   3711500005033164923629611179                                                  N                     01321  0000000        000134
12053585766000141MULTIACOS I C PRODS TEC LTDA                                          0000000042200000000000000000000000000000887697930000000000000000004704501     201210302012092000000000055020000224054000000000224054000000000000000000000000000000050000000000  3020121030   01FS        1                                                                                   3711500005033164923629572179                                                  N                     01321  0000000        000135
12053585766000141MULTIACOS I C PRODS TEC LTDA                                          0000000042200000000000000000000000000000887697940000000000000000004612202     201210232012092000000000054950000214553000000000214553000000000000000000000000000000050000000000  3020121023   01FS        1                                                                                   3711500005033164923629629119                                                  N                     01321  0000000        000136
12053585766000141MULTIACOS I C PRODS TEC LTDA                                          0000000042200000000000000000000000000000887697950000000000000000004704502     201211132012092000000000055160000217463000000000217463000000000000000000000000000000050000000000  3020121113   01FS        1                                                                                   3711500005033164923629581139                                                  N                     01321  0000000        000137
12053585766000141MULTIACOS I C PRODS TEC LTDA                                          0000000042200000000000000000000000000000887697960000000000000000004704503     201211272012092000000000055300000217463000000000217463000000000000000000000000000000050000000000  3020121127   01FS        1                                                                                   3711500005033164923629599149                                                  N                     01321  0000000        000138
12053585766000141MULTIACOS I C PRODS TEC LTDA                                          0000000042200000000000000000000000000000887697970000000000000000004612203     201211062012092000000000055090000214553000000000214553000000000000000000000000000000050000000000  3020121106   01FS        1                                                                                   3711500005033164923629637189                                                  N                     01321  0000000        000139
12054382510000108SETENTA IND E COM DE MADEIRAS                                         0000000034100000000000000000000000000000874070720000002305114064536 A         201209192012081600000000054610000191200000000000193456000000000000000000000000002256050000000000  3020120925   01          2                                                                                   3112305114061057002848000039                                                  N                     01321  0000000        000140
12054382510000108SETENTA IND E COM DE MADEIRAS                                         0000000034100000000000000000000000000000860403430000002277814474462 A         201209042012080700000000054460000191200000000000199096000000000000000000000000007896050000000000  3020120925   01          2                                                                                   3112277814474057049175300069                                                  N                     01321  0000000        000141
12056993900000131CIA METALURGICA PRADA                                                 0000000034100000000000000000000000000000844839000000002201181880025629402     201209052012071100000000054470000249372000000000257692000000000000000000000000008320050000000000  3020120925   01          2                                                                                   3112201181883293800573900019                                                  N                     01321  0000000        000142
12056993900000131CIA METALURGICA PRADA                                                 0000000034100000000000000000000000000000844839010000002201181890025635302     201209052012071100000000054470000406842000000000420402000000000000000000000000013560050000000000  3020120925   01          2                                                                                   3112201181891293800573900019                                                  N                     01321  0000000        000143
12056993900000131CIA METALURGICA PRADA                                                 0000000034100000000000000000000000000000844839020000002201181900025635402     201209052012071100000000054470000208689000000000215649000000000000000000000000006960050000000000  3020120925   01          2                                                                                   3112201181909293800573900069                                                  N                     01321  0000000        000144
12056993900000131CIA METALURGICA PRADA                                                 0000000034100000000000000000000000000000844839030000002201181910025635502     201209052012071100000000054470000164780000000000170280000000000000000000000000005500050000000000  3020120925   01          2                                                                                   3112201181917293800573900029                                                  N                     01321  0000000        000145
12056993900000131CIA METALURGICA PRADA                                                 0000000034100000000000000000000000000000844839040000002201181920025635602     201209052012071100000000054470000339933000000000351273000000000000000000000000011340050000000000  3020120925   01          2                                                                                   3112201181925293800573900069                                                  N                     01321  0000000        000146
12056993900000131CIA METALURGICA PRADA                                                 0000000034100000000000000000000000000000855028570000002254750270026244302     201209242012072800000000054660000100684000000000100852000000000000000000000000000168050000000000  3020120925   01          2                                                                                   3112254750279293800573900089                                                  N                     01321  0000000        000147
12056993900000131CIA METALURGICA PRADA                                                 0000000034100000000000000000000000000000844839050000002201181930025636202     201209052012071100000000054470000746213000000000771093000000000000000000000000024880050000000000  3020120925   01          2                                                                                   3112201181933293800573900019                                                  N                     01321  0000000        000148
12056993900000131CIA METALURGICA PRADA                                                 0000000034100000000000000000000000000000844839060000002201181940025644402     201209052012071100000000054470000779647000000000805627000000000000000000000000025980050000000000  3020120925   01          2                                                                                   3112201181941293800573900019                                                  N                     01321  0000000        000149
12056993900000131CIA METALURGICA PRADA                                                 0000000034100000000000000000000000000000844839140000002201181870025629302     201209052012071100000000054470000257906000000000266506000000000000000000000000008600050000000000  3020120925   01          2                                                                                   3112201181875293800573900069                                                  N                     01321  0000000        000150
12056993900000131CIA METALURGICA PRADA                                                 0000000034100000000000000000000000000000855028580000002254750280026244402     201209242012072800000000054660000084115000000000084255000000000000000000000000000140050000000000  3020120925   01          2                                                                                   3112254750287293800573900039                                                  N                     01321  0000000        000151
12056993900000131CIA METALURGICA PRADA                                                 0000000034100000000000000000000000000000848180620000002218222670025829902     201209112012071700000000054530000498118000000000509738000000000000000000000000011620050000000000  3020120925   01          2                                                                                   3112218222670293800573900029                                                  N                     01321  0000000        000152
12056993900000131CIA METALURGICA PRADA                                                 0000000034100000000000000000000000000000848180630000002218222680025830002     201209112012071700000000054530000247673000000000253455000000000000000000000000005782050000000000  3020120925   01          2                                                                                   3112218222688293800573900059                                                  N                     01321  0000000        000153
12056993900000131CIA METALURGICA PRADA                                                 0000000034100000000000000000000000000000824820100000002102181160024711603     201208292012060600000000054400000833146000000000870649000000000000000000000000037503050000000000  3020120925   01          2                                                                                   3112102181164293800573900039                                                  N                     01321  0000000        000154
12056993900000131CIA METALURGICA PRADA                                                 0000000034100000000000000000000000000000848180640000002218222690025830102     201209112012071700000000054530000207402000000000212246000000000000000000000000004844050000000000  3020120925   01          2                                                                                   3112218222696293800573900039                                                  N                     01321  0000000        000155
12056993900000131CIA METALURGICA PRADA                                                 0000000034100000000000000000000000000000837460410000002165934370025295503     201209202012062800000000054620000339048000000000341873000000000000000000000000002825050000000000  3020120925   01          2                                                                                   3112165934376293800573900029                                                  N                     01321  0000000        000156
12056993900000131CIA METALURGICA PRADA                                                 0000000034100000000000000000000000000000837460440000002165934360025295403     201209202012062800000000054620000152797000000000154072000000000000000000000000001275050000000000  3020120925   01          2                                                                                   3112165934368293800573900019                                                  N                     01321  0000000        000157
12056993900000131CIA METALURGICA PRADA                                                 0000000034100000000000000000000000000000837460450000002165934380025295603     201209202012062800000000054620000154165000000000155450000000000000000000000000001285050000000000  3020120925   01          2                                                                                   3112165934384293800573900039                                                  N                     01321  0000000        000158
12056993900000131CIA METALURGICA PRADA                                                 0000000034100000000000000000000000000000837460460000002165934390025295703     201209202012062800000000054620000139528000000000140693000000000000000000000000001165050000000000  3020120925   01          2                                                                                   3112165934392293800573900029                                                  N                     01321  0000000        000159
12056993900000131CIA METALURGICA PRADA                                                 0000000034100000000000000000000000000000838527930000002171340470025383503     201209242012063000000000054660000575127000000000576086000000000000000000000000000959050000000000  3020120925   01          2                                                                                   3112171340477293800573900069                                                  N                     01321  0000000        000160
12056993900000131CIA METALURGICA PRADA                                                 0000000034100000000000000000000000000000840312930000002179478290025419302     201208282012070300000000054390000402178000000000420938000000000000000000000000018760050000000000  3020120925   01          2                                                                                   3112179478295293800573900089                                                  N                     01321  0000000        000161
12056993900000131CIA METALURGICA PRADA                                                 0000000034100000000000000000000000000000840312940000002179478300025419402     201208282012070300000000054390000322804000000000337868000000000000000000000000015064050000000000  3020120925   01          2                                                                                   3112179478303293800573900079                                                  N                     01321  0000000        000162
12056993900000131CIA METALURGICA PRADA                                                 0000000034100000000000000000000000000000838527940000002171340480025384303     201209242012063000000000054660000454478000000000455235000000000000000000000000000757050000000000  3020120925   01          2                                                                                   3112171340485293800573900029                                                  N                     01321  0000000        000163
12056993900000131CIA METALURGICA PRADA                                                 0000000034100000000000000000000000000000838527910000002171340450025383502     201208272012063000000000054380000575128000000000601980000000000000000000000000027811050000000000  3020120924   06          3                                                                                   3112171340451293800573900039                                                  N                     01321  0000000        000164
12056993900000131CIA METALURGICA PRADA                                                 0000000034100000000000000000000000000000838527920000002171340460025384302     201208272012063000000000054380000454477000000000475673000000000000000000000000021953050000000000  3020120924   06          3                                                                                   3112171340469293800573900019                                                  N                     01321  0000000        000165
12056993900000131CIA METALURGICA PRADA                                                 0000000034100000000000000000000000000000855028550000002254750250026244301     201208272012072800000000054380000100986000000000105690000000000000000000000000004872050000000000  3020120924   06          3                                                                                   3112254750253293800573900099                                                  N                     01321  0000000        000166
12056993900000131CIA METALURGICA PRADA                                                 0000000034100000000000000000000000000000855028560000002254750260026244401     201208272012072800000000054380000084368000000000088316000000000000000000000000004089050000000000  3020120924   06          3                                                                                   3112254750261293800573900089                                                  N                     01321  0000000        000167
12057017873000124METAFER COMERCIO DE FERRO E AC                                        0000000023703134800000000072206 00000000866992090090223300001010033517C01     201209212012081700000000054630000083489000000000084601000000000000000000000000001112050000000000  3020120925   01          2  RUA JUNO  533                                                                    3                         000000000000000                                     N                     00598  0000000        000168
12057029431000106ATLAS COPCO BRASIL LTDA                                               0000000034100000000000000000000000000000863731640000002292733057000054146     201209072012081000000000054490000081450000000000082422000000000000000000000000000972050000000000  3020120925   01          2                                                                                   3112292733055293804111400099                                                  N                     01321  0000000        000169
12057029431000106ATLAS COPCO BRASIL LTDA                                               0000000034100000000000000000000000000000861960280000002283943487000054090     201209062012080900000000054480000059490000000000060231000000000000000000000000000741050000000000  3020120925   01          2                                                                                   3112283943481293804111400069                                                  N                     01321  0000000        000170
12057158057000130COMERCIAL ELETRICA PJ LTDA                                            0000000023703394400000000972983 00000000842436850090219200008900000305028     201208012012070400000000054120000079196000000000093661000000000000000000000000014465050000000000  3020120925   01          2  R TAMAINDE 1410                                                                  3                         000000000000000                                     N                     00598  0000000        000171
12059160689000164LUCHETI LUBRIFICANTES LTDA                                            0000000003300000000000000000000000000000870670580000009400000000030708 01     201209242012082700000000054660000044800000000000044890000000000000000000000000000090050000000000  3020120925   01          2                                                                                   3917953170000000115894010489                                                  N                     01321  0000000        000172
12059659615000177DZ COMERCIO R E SERVICOS LTDA                                         000000003410000000000000000000000000000086699205000000900000268252            201209172012081500000000054590000060000000000000060960000000000000000000000000000960050000000000  3020120925   01          2                                                                                   3109000002680000314585100059                                                  N                     01321  0000000        000173
12061217188000119TELAS METALICAS TELMETAL LTDA                                         0000000000100000000000000000000000000000867622080000000056410005532 2 3       201209212012082000000000054630000074597000000000075393000000000000000000000000000796050000000000  3020120925   01          2                                                                                   3000000115031800000056411779                                                  N                     01321  0000000        000174
12061217188000119TELAS METALICAS TELMETAL LTDA                                         0000000000100000000000000000000000000000871191270000000056780005569 1 3       201209242012082900000000054660000060520000000000060681000000000000000000000000000161050000000000  3020120925   01          2                                                                                   3000000115031800000056781779                                                  N                     01321  0000000        000175
12061217188000119TELAS METALICAS TELMETAL LTDA                                         0000000000100000000000000000000000000000863731690000000056120005493 3 3       201209242012081300000000054660000017103000000000017149000000000000000000000000000046050000000000  3020120925   01          2                                                                                   3000000115031800000056121779                                                  N                     01321  0000000        000176
12061217188000119TELAS METALICAS TELMETAL LTDA                                         0000000000100000000000000000000000000000863731710000000056090005492 3 3       201209242012081300000000054660000043177000000000043292000000000000000000000000000115050000000000  3020120925   01          2                                                                                   3000000115031800000056091729                                                  N                     01321  0000000        000177
12061217188000119TELAS METALICAS TELMETAL LTDA                                         0000000034100000000000000000000000000000881032720000009000029635640 3 3       201210232012091100000000054950000033286000000000033286000000000000000000000000000000050000000000  3020121023   05          3                                                                                   3109000029633077073552000079                                                  N                     01321  0000000        000178
12061217188000119TELAS METALICAS TELMETAL LTDA                                         0000000034100000000000000000000000000000881032740000009000029665639 3 3       201210232012091100000000054950000052759000000000052759000000000000000000000000000000050000000000  3020121023   05          3                                                                                   3109000029666077073552000099                                                  N                     01321  0000000        000179
12061217188000119TELAS METALICAS TELMETAL LTDA                                         0000000034100000000000000000000000000000887697980000009000029635640 3 3       201210232012091100000000054950000033286000000000033286000000000000000000000000000000050000000000  3020121023   01FS        1                                                                                   3109000029635077099894600069                                                  N                     01321  0000000        000180
12061217188000119TELAS METALICAS TELMETAL LTDA                                         0000000034100000000000000000000000000000887698000000009000029665639 3 3       201210232012091100000000054950000052759000000000052759000000000000000000000000000000050000000000  3020121023   01FS        1                                                                                   3109000029668077099894600089                                                  N                     01321  0000000        000181
12061612735000160IMP TEIXEIRA DE FERRAGENS LTDA                                        0000000034100000000000000000000000000000878205810000002351838130000086481     201209242012082700000000054660000029325000000000029422000000000000000000000000000097050000000000  3020120925   01          2                                                                                   3112351838134000442318200079                                                  N                     01321  0000000        000182
12062510367000102ITANHAEM TRANSP DE MAQUINAS LT                                        000000003410000000000000000000000000000087407049000000236463199667            201209202012090400000000054620000248220000000000253185000000000000000000000000004965050000000000  3020120925   01          2                                                                                   3112364631997005770252400049                                                  N                     01321  0000000        000183
12064952757000168WALMAC COM DE PROD QUIMICOS LT                                        0000000034100000000000000000000000000000860403460000002275821710020148        201208312012080300000000054420000219267000000000230042000000000000000000000000010775050000000000  3020120925   01          2                                                                                   3112275821711064807961400079                                                  N                     01321  0000000        000184
12066841552000130R V SEG PATRIMONIAL LTDA                                              00000000341000000000000000000000000000008852483200000090002192721927          201209102012081000000000054520000483241000000000485656000000000000000000000000002415050000000000  3020120925   01          2                                                                                   3109000219270001835253400099                                                  N                     01321  0000000        000185
12066841552000130R V SEG PATRIMONIAL LTDA                                              00000000341000000000000000000000000000008876980700000090002213622136          201210102012091100000000054820000374758000000000374758000000000000000000000000000000050000000000  3020121010   01FS        1                                                                                   3109000221367001835253400019                                                  N                     01321  0000000        000186
12069034668000156SODEXO PASS BRASIL SERV COM SA                                        0000000034100000000000000000000000000000887698010000009217975081200011986     201210202012092000000000054920000140300000000000140300000000000000000000000000000000050000000000  3020121022   01FS        1                                                                                   3109217975081293801455800079                                                  N                     01321  0000000        000187
12069034668000156SODEXO PASS BRASIL SERV COM SA                                        0000000034100000000000000000000000000000887698020000009217967641200011972     201210202012092000000000054920000379260000000000379260000000000000000000000000000000050000000000  3020121022   01FS        1                                                                                   3109217967641293801455800069                                                  N                     01321  0000000        000188
12069284248000128ISOCOAT TINTAS E VERNIZES LTDA                                        0000000034100000000000000000000000000000841061040000002182507930052085        201209172012070200000000054590000236130000000000241170000000000000000000000000005040050000000000  3020120925   01          2                                                                                   3112182507932077430121200019                                                  N                     01321  0000000        000189
12069309706000136F N A TRANSPORTES LTDA                                                000000003410000000000000000000000000000086615421000000900010656059068         201208302012081500000000054410000079200000000000086064000000000000000000000000006864050000000000  3020120925   01          2                                                                                   3109000106565005486932600099                                                  N                     01321  0000000        000190
12075483040000130REX MAQUINAS E EQUIPAMENTOS LT                                        0000000023702656500000000000701 000000008577186400202216000032178261 2 2      201209202012072600000000054620000384500000000000387064000000000000000000000000003205050000000000  3020120924   06          3  RUA  GANGES  528                                                                 3                         000000000000000                                     N                     00598  0000000        000191
900019200000000065709934                                                                                                                                                                                                                                                                                                                                                                                                                                                                00598  0000000        000192
