0000147602043799295000110ALTAMIRA INDUSTRIA METALURGICA LT       202000000201420121226214000             3                                                                                                  000000000000000                                                                                                                                                                                                                                                                                   000001
12008594182000188ACOS G3 COMERCIO E BENEFICIAME                                        0000000023703137200000000091332 I000000000010355028022710000027               201212260000000000000000055590000156175000000000156175000000000000000000000000000000010000001155  3120121226   02BW        5000000               000000000000000                                               3313728227100000270009133059               1155/003                           N                     01079 10020256        000002
12065000655000105HILTI DO BRASIL COMERCIAL LTDA                                        0000000023703396000000000243787 00000000928626490090233300005210021321401     201212232012112300000000055560000189853000000000190990000000000000000000000000001895050000000000  3020121226   02BW        2000000               000000000000000                                               3                         000000000000000  213214/01                          N                     01079 10020256        000003
12061600839000155CENTRO DE INT EMPRESA ESCOLA C                                        0000000023703391P00000000866202 00000000937366850090000037306007641C 0001     201212262012121000000000055590000016800000000000016800000000000000000000000000000000050000000000  3020121226   02BW        2000000               000000000000000                                               3                         000000000000000  7641/C                             N                     01079 10020256        000004
12043350099000164JMC COML ELETRICA LTDA                                                0000000023700092200000000380105 000000009286265300902333000027059752 01       201212242012112600000000055570000047400000000000047652000000000000000000000000000504050000000000  3020121226   02BW        2000000               000000000000000                                               3                         000000000000000  59752/01                           N                     01079 10020256        000005
12015251825000156JOSEFA A LIMA DOS SANTOS EPP                                          0000000034100000000000000000000000000000927575400000007057302701737           201212252012112700000000055580000013970000000000013970000000000000000000000000000000050000000000  3020121226   02BW        2000000               000000000000000                                               3157057302707810513909400029               1737                               N                     01132 10020256        000006
12013656578000142GUARINOR TRANSP E LOGISTICA LT                                        000000001040000000000000000000000000000094562133000000001746400002459 12      201212262012120400000000055590000175697000000000175697000000000000000000000000000000050000000000  3020121226   02BW        2000000               000000000000000                                               3900000174632958700000017339               2459                               N                     01132 10020256        000007
12002248601000143TECNOLACOS CABOS E CINTAS LTDA                                        000000000010000000000000000000000000000093452387000000018668000007728         201212262012120500000000055590000022040000000000022040000000000000000000000000000000050000000000  3020121226   02BW        2000000               000000000000000                                               3044290186681192000070425189               7728                               N                     01132 10020256        000008
12007525020000125MULTIPLA B G  LOG LTDA                                                0000000034100000000000000000000000000000937366860000009000655840000275174     201212242012121000000000055570000015800000000000015852000000000000000000000000000104050000000000  3020121226   02BW        2000000               000000000000000                                               3109000655840438726766100079               275474                             N                     01132 10020256        000009
12054382510000108SETENTA IND E COM DE MADEIRAS                                         0000000034100000000000000000000000000000937366650000002662059314912 A         201212262012121000000000055590000191200000000000191200000000000000000000000000000000050000000000  3020121226   02BW        2000000               000000000000000                                               3112662059313057049175300019               4912                               N                     01132 10020256        000010
12005325559000105SOLDASEG EQUIP SOLDA SEG LTDA                                         000000003410000000000000000000000000000093358344000000264722596N7581 1        201212252012112700000000055580000058752000000000058752000000000000000000000000000000050000000000  3020121226   02BW        2000000               000000000000000                                               3112647225963068206403500079               7581/01                            N                     01132 10020256        000011
12011389422000117NELSON RODRIGUES DA SILVA JUNI                                        00000000104000000000000000000000000000009335832700000000204060017040          201212262012120400000000055590000018000000000000018000000000000000000000000000000000050000000000  3020121226   02BW        2000000               000000000000000                                               3900000204002478700000058719               17040                              N                     01132 10020256        000012
12067298349000122JOBINVEST FOMENTO MERCANTIL LT                                        000000000010000000000000000000000000000092654643000000797502000540B           201212242012112300000000055570000109609000000000110193000000000000000000000000001168050000000000  3020121226   02BW        2000000               000000000000000                                               3161477975021204000105451729               540/02                             N                     01132 10020256        000013
12009034654000291STEEL PRODUCTS DO BRASIL LTDA                                         0000000000100000000000000000000000000000914718930000005529200002470 3 3       201212232012110500000000055560000132000000000000135963000000000000000000000000003965050000000000  3020121226   02BW        2000000               000000000000000                                               3000000221373244205529201149               2470/03-03                         N                     01132 10020256        000014
12005852768000107DAOUD LEAL ELETRONICA LTDA ME                                         000000003410000000000000000000000000000092654651000000616306821DEZEMBRO       201212262012112600000000055590000016247000000000016247000000000000000000000000000000050000000000  3020121226   02BW        2000000               000000000000000                                               3156163068216152944476000079               REF.12/2012.                       N                     01132 10020256        000015
12061217188000119TELAS METALICAS TELMETAL LTDA                                         0000000003300000000000000000000000000000923779500000003400000005977 2 3       201212262012112100000000055590000011837000000000011837000000000000000000000000000000050000000000  3020121226   02BW        2000000               000000000000000                                               3915435040000000048534020139               5977/02-3                          N                     01132 10020256        000016
12067647412000199ANCORA CHUMBADORES LTDA                                               000000003410000000000000000000000000000091932174000000257023549065922 1       201212222012110700000000055550000175000000000000176376000000000000000000000000002064050000000000  3020121226   02BW        2000000               000000000000000                                               3112570235492013626917200029               65922                              N                     01132 10020256        000017
12008594182000188ACOS G3 COMERCIO E BENEFICIAME                                        0000000000100000000000000000000000000000913584960000009116680001278 02        201212252012110100000000055580000211796000000000211796000000000000000000000000000000050000000000  3020121226   02BW        2000000               000000000000000                                               3000000213008444199116681159               1278/02                            N                     01132 10020256        000018
12006066698000124NOVO REINO LOGISTICA E TRANSPO                                        000000000010000000000000000000000000000093540014000000861563000165322         201212262012120600000000055590000005500000000000005500000000000000000000000000000000050000000000  3020121226   02BW        2000000               000000000000000                                               3044298615631584001800001199               165322                             N                     01132 10020256        000019
12035820448000136WHITE MARTINS GASES INDUSTRIAI                                        0000000023700026400000003937925 0000000092949014009023340002714414747 001     201212262012112900000000055590000056805000000000056805000000000000000000000000000000050000000000  3020121226   02BW        2000000               000000000000000                                               3                         000000000000000  414747/01                          N                     01079 10020256        000020
12035820448000136WHITE MARTINS GASES INDUSTRIAI                                        0000000023700026400000003937925 0000000092862648009023330000472414058 001     201212252012112800000000055580000085208000000000085208000000000000000000000000000000050000000000  3020121226   02BW        2000000               000000000000000                                               3                         000000000000000  9539/01                            N                     01079 10020256        000021
12010695186000102POWER LOGISTICA E SERVICOS LTD                                        0000000023703417700000000187089 00000000931455210090000000008580000339873     201212242012120300000000055570000034860000000000035070000000000000000000000000000420050000000000  3020121226   02BW        2000000               000000000000000                                               3                         000000000000000  33987/03                           N                     01079 10020256        000022
900002300000000001752123                                                                                                                                                                                    000000000000000                                                                                                                                                                                                                                                    00002101167170001744549        000023
