0000147602043799295000110ALTAMIRA IND METALURGICA LTDA           20100573000002012112616544100000        2    230A                                                                                          000000000000000                                                                                                                                                                                                                                                                                   000001
12069034668000156SODEXO PASS BRASIL SERV COM SA                                        0000000034100000000000000000000000000000923779380000009219409161200014697     201212190000000000000000055520000367620000000000367620000000000000000000000000000000050000000000  3020121126   01MFBUHA    500                                                                                 3109219409162293801455800079010000       001679366                            N                     00000 10020256        000002
12069034668000156SODEXO PASS BRASIL SERV COM SA                                        0000000034100000000000000000000000000000923779390000009219409581200014697     201212190000000000000000055520000140300000000000140300000000000000000000000000000000050000000000  3020121126   01MFBUHA    500                                                                                 3109219409584293801455800039010000       001679473                            N                     00000 10020256        000003
12000288916000199VB SERVICOS COM ADM LTDA      RUA  VITORIA  211   SL 01               0652920003300000 0000000000000  I000000000010225000000000000000               201212040000000000000000055370000653381000000000653381000000000000000000000000000000010005781395  3120121126   01HA        000                                                                                 3119130442690030259000337889             005781395                            N                     00000 10020256        000004
900000500000000001161301                                                                                                                                                                                    000000000000000                                                                                                                                                                                                                                                    00000300166410001161301        000005
