0000147602043799295000110ALTAMIRA INDUSTRIA METALURGICA LT       202000000031020121026131051             2                                                                                                  000000000000000                                                                                                                                                                                                                                                                                   000001
12006000195000156MBA MERCANTIL BRASIL ACO LTDA                                         0000000034100648 00000000492510 I000000000010080000000000000000               201210260000000000000000000000000000000000000000620738000000000000000000000000000000050000000001  0820121026   01HF        5001307000000004718007000000000000000                                               3C0000000101                               01                                 N                     01076 10020256        000002
900000300000000000620738                                                                                                                                                                                    000000000000000                                                                                                                                                                                                                                                    00000100000000000000000        000003
