0000147602043799295000110ALTAMIRA INDUSTRIA METALURGICA LT       202000000036220121126162423             2                                                                                                  000000000000000                                                                                                                                                                                                                                                                                   000001
12043799295000110ALTAMIRA INDUSTRIA METAL LTDA                                         0000000003303809500000130004071 I000000000010217000000000000000               201211260000000000000000000000000000000000000002300000000000000000000000000000000000050000000005  0820121126   01HF        5001621000000009933537000000000000000                                               3D0000000101                               05                                 S                     01133 10020256        000002
12043799295000110ALTAMIRA INDUSTRIA METAL LTDA                                         0000000000103333200000000011029 I000000000010218000000000000000               201211260000000000000000000000000000000000000002800000000000000000000000000000000000050000000006  0820121126   01HF        5001621000000007633537000000000000000                                               3D0000000101                               06                                 S                     01133 10020256        000003
900000400000000005100000                                                                                                                                                                                    000000000000000                                                                                                                                                                                                                                                    00000200000000000000000        000004
