0000147602043799295000110ALTAMIRA IND METALURGICA LTDA           20100569000002012112611434700000        2    230A                                                                                          000000000000000                                                                                                                                                                                                                                                                                   000001
12043799295000110ALTAMIRA INDUSTRIA METAL LTDA RUA  GANGES  528                        0344503003303809500000130004071 I000000000010213000000000000000               201211260000000000000000000000000000000000000004200000000000000000000000000000000000050000000001  0820121126   01HA        0001220                                                                             3D0000000101                             0001                                 S                     00000  0020256        000002
12043799295000110ALTAMIRA INDUSTRIA METAL LTDA RUA  GANGES  528                        0344503034100467 00000000209128 I000000000010214000000000000000               201211260000000000000000000000000000000000000001400000000000000000000000000000000000050000000002  0820121126   01HA        0001220                                                                             3D0000000101                             0002                                 S                     00000  0020256        000003
12000867888000164TECNEQUIP TECNOLOGIA EQUIP LTDRUA  GANGES                             0344503003303809500000130003245 I000000000010215000000000000000               201211260000000000000000000000000000000000000000500000000000000000000000000000000000050000000003  0820121126   01HA        0001220                                                                             3C0000000101                             0003                                 N                     00000  0020256        000004
900000500000000006100000                                                                                                                                                                                    000000000000000                                                                                                                                                                                                                                                    00000300000000000000000        000005
0000147602043799295000110ALTAMIRA IND METALURGICA LTDA           20100570000002012112612275100000        2    230A                                                                                          000000000000000                                                                                                                                                                                                                                                                                   000001
12000867888000164TECNEQUIP TECNOLOGIA EQUIP LTDRUA  GANGES                             0344503003303809500000130003245 I000000000010216000000000000000               201211260000000000000000000000000000000000000000600000000000000000000000000000000000040000000004  0820121126   01HA        0001300                                                                             3C0000000101                             0004                                 N                     00000  0020256        000002
900000300000000000600000                                                                                                                                                                                    000000000000000                                                                                                                                                                                                                                                    00000100000000000000000        000003
