0000147602043799295000110ALTAMIRA INDUSTRIA METALURGICA LT       202000000009220120727060507             1                                                                                                                                                                                                                                                                                                                                                                                                    000001
12001951865000104FOUR FACTORING FOMENTO M LTDA                                         000000004220000000000000000000000000000085230907000000000000000159 2012       201208142012072400000000054250000310000000000000310000000000000000000000000000000000050000000000  3020120814   01FS        1                                                                                   3702000009214741497536196199                                                  N                     01321  0000000        000002
12001951865000104FOUR FACTORING FOMENTO M LTDA                                         000000004220000000000000000000000000000085230908000000000000000156 2012       201208152012072400000000054260000300000000000000300000000000000000000000000000000000050000000000  3020120815   01FS        1                                                                                   3702000009214741497536200159                                                  N                     01321  0000000        000003
12004135061000117TEMA LOCACAO DE EQUIP LTDA EPP                                        000000003410000000000000000000000000000080282141000000299110823262 C          201207262012043000000000054060000484166000000000485780000000000000000000000000001614050000000000  3020120727   01          2                                                                                   3112991108237315023906300049                                                  N                     01321  0000000        000004
12005151518000140BELENUS DO BRASIL LTDA                                                0000000023703389800000000015091 0000000083945275009021860002351R128108012     201207262012062600000000054060000748800000000000751271000000000000000000000000002471050000000000  3020120727   01          2  RUA GANGES  528                                                                  3                         000000000000000                                     N                     00598  0000000        000005
12009121184000112BBGE COBRANCA LTDA                                                    0000000023700368900000001026402 00000000839452790090218600000832581 BC        201207262012062100000000054060000154100000000000154614000000000000000000000000000514050000000000  3020120727   01          2  RUA GANGES  528                         MACKVEN MAQUINAS INDUSTRIAIS LTDA EPP    3                         005441222000163                                     N                     00598  0000000        000006
12009259079000144SAFRA COMERCIAL DE PAPEIS LTDA                                        00000000033000000000000000000000000000008523092400000070000000000128569       201208232012072500000000054340000023936000000000023936000000000000000000000000000000050000000000  3020120823   01FS        1                                                                                   3918361880000000324570010439                                                  N                     01321  0000000        000007
12014309992000148WEG DRIVES   CONTROLS   AUTOMA                                        0000000023702727800000000001872 00000000852309230090220800002970008379601     201208232012072400000000054340000107136000000000107136000000000000000000000000000000050000000000  3020120823   01FS        1  R JUNO  533                                                                      3                         000000000000000                                     N                     00598  0000000        000008
12014309992000148WEG DRIVES   CONTROLS   AUTOMA                                        0000000023702727800000000001872 00000000852309220090220800002960008346101     201208212012072400000000054320000056126000000000056126000000000000000000000000000000050000000000  3020120821   01FS        1  R JUNO  533                                                                      3                         000000000000000                                     N                     00598  0000000        000009
12035820448000136WHITE MARTINS GASES INDUSTRIAI                                        0000000023700026400000003937925 0000000085230921009022080002695355448 001     201208212012072600000000054320000085176000000000085176000000000000000000000000000000050000000000  3020120821   01FS        1  RUA GANGES  528                                                                  3                         000000000000000                                     N                     00598  0000000        000010
12042956441000101SOLUCOES EM ACO USIMINAS S A                                          000000000010000000000000000000000000000083482048000000086552000000166815001   201207232012062600000000054030000649282000000000649282000000000000000000000000000000050000000000  3020120723   06          3                                                                                   3000000169660100000865521749                                                  N                     01321  0000000        000011
12042956441000101SOLUCOES ACO USIMINAS                                                 0000000034100000000000000000000000000000813840610000002053421590016093302     201207232012052100000000054030000698273000000000702464000000000000000000000000005588050000000000  3020120726   06          3                                                                                   3112053421593293807258000069                                                  N                     01321  0000000        000012
12042956441000101SOLUCOES ACO USIMINAS                                                 0000000034100000000000000000000000000000818681020000002074813140016190202     201207232012052800000000054030000723514000000000727855000000000000000000000000005788050000000000  3020120726   06          3                                                                                   3112074813141293807258000079                                                  N                     01321  0000000        000013
12051180370000199IGUAFER FERRO E ACO LTDA                                              0000000034100000000000000000000000000000852309090000002239389779443 A         201208232012071800000000054340000201933000000000201933000000000000000000000000000000050000000000  3020120823   01FS        1                                                                                   3112239389771077149484600099                                                  N                     01321  0000000        000014
12051180370000199IGUAFER FERRO E ACO LTDA                                              0000000034100000000000000000000000000000852309100000002239389789443 B         201209022012071800000000054440000168275000000000168275000000000000000000000000000000050000000000  3020120903   01FS        1                                                                                   3112239389789077149484600089                                                  N                     01321  0000000        000015
12051180370000199IGUAFER FERRO E ACO LTDA                                              0000000034100000000000000000000000000000852309110000002239389799443 C         201209122012071800000000054540000168275000000000168275000000000000000000000000000000050000000000  3020120912   01FS        1                                                                                   3112239389797077149484600089                                                  N                     01321  0000000        000016
12051180370000199IGUAFER FERRO E ACO LTDA                                              0000000034100000000000000000000000000000852309120000002239389809443 D         201209222012071800000000054640000168275000000000168275000000000000000000000000000000050000000000  3020120924   01FS        1                                                                                   3112239389805077149484600029                                                  N                     01321  0000000        000017
12051598472000129ELETRICA J SANTOS                                                     0000000023702451100000000000264 000000008523091800902208000003817933 01       201208222012072500000000054330000112770000000000112770000000000000000000000000000000050000000000  3020120822   01FS        1  R JUNO  533                                                                      3                         000000000000000                                     N                     00598  0000000        000018
12051598472000129ELETRICA J SANTOS                                                     0000000023702451100000000000264 000000008523091900902208000003917933 02       201208292012072500000000054400000112771000000000112771000000000000000000000000000000050000000000  3020120829   01FS        1  R JUNO  533                                                                      3                         000000000000000                                     N                     00598  0000000        000019
12051598472000129ELETRICA J SANTOS                                                     0000000023702451100000000000264 000000008523092000902208000004017933 03       201209052012072500000000054470000112771000000000112771000000000000000000000000000000050000000000  3020120905   01FS        1  R JUNO  533                                                                      3                         000000000000000                                     N                     00598  0000000        000020
12052559499000175BOMAX NO BRASIL EQUIP INDS LT                                         0000000034100000000000000000000000000000852309130000002238631900000015611     201208202012071900000000054310000179150000000000179150000000000000000000000000000000050000000000  3020120820   01FS        1                                                                                   3112238631900324705000200029                                                  N                     01321  0000000        000021
12052559499000175BOMAX NO BRASIL EQUIP INDS LT                                         0000000034100000000000000000000000000000852309140000002238631910000015611     201209172012071900000000054590000179150000000000179150000000000000000000000000000000050000000000  3020120917   01FS        1                                                                                   3112238631918324705000200079                                                  N                     01321  0000000        000022
12056993900000131CIA METALURGICA PRADA                                                 0000000034100000000000000000000000000000820562360000002081819560024446402     201207242012052900000000054040000200709000000000200709000000000000000000000000000000050000000000  3020120724   06          3                                                                                   3112081819560293800573900049                                                  N                     01321  0000000        000023
12058566399000152NORDSON DO BRASIL IND E COM LT                                        0000000039900000000000000000000000000000852309150000000000000000000055880     201208192012072000000000054300000280180000000000280180000000000000000000000000000000050000000000  3020120820   01FS        1                                                                                   3175667741601163111666000139                                                  N                     01321  0000000        000024
12058566399000152NORDSON DO BRASIL IND E COM LT                                        0000000039900000000000000000000000000000852309160000000000000000000055881     201209182012072000000000054600000280180000000000280180000000000000000000000000000000050000000000  3020120918   01FS        1                                                                                   3175667741781163111666000119                                                  N                     01321  0000000        000025
12058566399000152NORDSON DO BRASIL IND E COM LT                                        0000000039900000000000000000000000000000852309170000000000000000000055882     201210182012072000000000054900000280180000000000280180000000000000000000000000000000050000000000  3020121018   01FS        1                                                                                   3175667741861163111666000119                                                  N                     01321  0000000        000026
12061217188000119TELAS METALICAS TELMETAL LTDA                                         0000000000100000000000000000000000000000852309040000000055630005371 1 3       201208202012072500000000054310000069967000000000069967000000000000000000000000000000050000000000  3020120820   01FS        1                                                                                   3000000115031800000055631739                                                  N                     01321  0000000        000027
12061217188000119TELAS METALICAS TELMETAL LTDA                                         0000000000100000000000000000000000000000852309050000000055640005371 2 3       201208272012072500000000054380000069964000000000069964000000000000000000000000000000050000000000  3020120827   01FS        1                                                                                   3000000115031800000055641769                                                  N                     01321  0000000        000028
12061217188000119TELAS METALICAS TELMETAL LTDA                                         0000000000100000000000000000000000000000852309060000000055650005371 3 3       201209032012072500000000054450000069964000000000069964000000000000000000000000000000050000000000  3020120903   01FS        1                                                                                   3000000115031800000055651719                                                  N                     01321  0000000        000029
12069309706000136F N A TRANSPORTES LTDA                                                000000003410000000000000000000000000000084318045000000900010050058419         201207242012071000000000054040000198000000000000198000000000000000000000000000000000050000000000  3020120724   06          3                                                                                   3109000100501005486932600019                                                  N                     01321  0000000        000030
12092693118000160BRADESCO SAUDE S A                                                    0000000023700448000000001533991 00000000829780050050100702629130000000000     201207202012061800000000054000000645861000000000648773000000000000000000000000002912050000000000  3020120727   01          2                                                                                   3                         000000000000000                                     N                     00598  0000000        000031
900003200000000007854927                                                                                                                                                                                                                                                                                                                                                                                                                                                                00598  0000000        000032
