0000147602043799295000110ALTAMIRA INDUSTRIA METALURGICA LT       202000000017520121127061825             1                                                                                                                                                                                                                                                                                                                                                                                                    000001
12001895314000162COLETA INDUSTRIAL FIMAVAN LTDA                                        0000000034100000000000000000000000000000866992070000009002335349439           201208272012081700000000054380000123695000000000156437000000000000000000000000032742050000000000  3020121127   01          2                                                                                   3109002335346144604097200019                                                  N                     01321  0000000        000002
12003102481000134AB5 IND E COMERCIO LTDA EPP                                           0000000034100000000000000000000000000000909203330000009000042483169           201211202012102300000000055230000119250000000000120643000000000000000000000000001393050000000000  3020121127   01          2                                                                                   3109000042489003154755700039                                                  N                     01321  0000000        000003
12003489596000123BEND FLEX I COMERCIO LTDA                                             000000003410000000000000000000000000000088350832000000171879874608            201209122012082100000000054540000695250000000000799142000000000000000000000000103892050000000000  3020121127   01          2                                                                                   3191718798744157734445800069                                                  N                     01321  0000000        000004
12003489596000123BEND FLEX I COMERCIO LTDA                                             000000003410000000000000000000000000000088599899000000171434574613            201209172012081600000000054590000585000000000000666721000000000000000000000000081721050000000000  3020121127   01          2                                                                                   3191714345748157734445800019                                                  N                     01321  0000000        000005
12003803271000173ATUAL SP C DE FERRAMENTAS LTDA                                        000000003410000000000000000000000000000090751873000000701204346007823         201211222012102500000000055250000070500000000000073310000000000000000000000000002810050000000000  3020121127   01          2                                                                                   3157012043466013905550300029                                                  N                     01321  0000000        000006
12004882911000140F C BRITO CARTUCHOS ME                                                00000000033000000000000000000000000000009174140400000029000000014860 A21      201211212012102400000000055240000039945000000000041860000000000000000000000000001915050000000000  3020121127   01          2                                                                                   3944753720000000109029010119                                                  N                     01321  0000000        000007
12005151518000140BELENUS DO BRASIL LTDA                                                000000000330000000000000000000000000000091026582000000100000000R132008212     201211222012102300000000055250000599040000000000608924000000000000000000000000009884050000000000  3020121127   01          2                                                                                   3918381050000000498610010479                                                  N                     01321  0000000        000008
12005151518000140BELENUS DO BRASIL LTDA                                                000000000010000000000000000000000000000087407046000000750520000R130170532     201211252012090400000000055280000192000000000000193268000000000000000000000000001268050000000000  3020121127   01          2                                                                                   3000000123933844037505203139                                                  N                     01321  0000000        000009
12005151518000140BELENUS DO BRASIL LTDA                                                000000000330000000000000000000000000000089697931000000660000000R131115422     201211242012092500000000055270000096000000000000096951000000000000000000000000000951050000000000  3020121127   01          2                                                                                   3918381050000000435066010419                                                  N                     01321  0000000        000010
12005151518000140BELENUS DO BRASIL LTDA                                                000000000330000000000000000000000000000089697935000000230000000R131165822     201211252012092600000000055280000094080000000000094700000000000000000000000000000620050000000000  3020121127   01          2                                                                                   3918381050000000445223010429                                                  N                     01321  0000000        000011
12005852768000107DAOUD LEAL ELETRONICA LTDA ME                                         000000003410000000000000000000000000000090920322000000615791514NOVEMBRO       201211262012102900000000055290000016247000000000016604000000000000000000000000000357050000000000  3020121127   01          2                                                                                   3156157915141152944476000059                                                  N                     01321  0000000        000012
12005852768000107DAOUD LEAL ELETRONICA LTDA ME                                         000000003410000000000000000000000000000092654651000000616306821DEZEMBRO       201212262012112600000000055590000016247000000000016247000000000000000000000000000000050000000000  3020121226   01FS        1                                                                                   3156163068216152944476000079                                                  N                     01321  0000000        000013
12005880850000145NEDERMAN BRASIL COM PROD EX LT                                        000000003410000000000000000000000000000086373178000000614350956002763 A       201209252012081400000000054670000289674000000000325584000000000000000000000000035910050000000000  3020121127   01          2                                                                                   3156143509568160829000100049                                                  N                     01321  0000000        000014
12006000195000156MBA MERCANTIL BRAS DE ACO LTDA                                        0000000034100000000000000000000000000000904173150000001667238300008870B03     201210092012071600000000054810000839951000000000920899000000000000000000000000080948050000000000  3020121127   01          2                                                                                   3191667238304064849251000039                                                  N                     01321  0000000        000015
12006000195000156MBA MERCANTIL BRAS DE ACO LTDA                                        0000000034100000000000000000000000000000904173140000001667238290008874B03     201210112012071600000000054830000802825000000000877038000000000000000000000000074213050000000000  3020121127   01          2                                                                                   3191667238296064849251000069                                                  N                     01321  0000000        000016
12006000195000156MBA MERCANTIL BRAS DE ACO LTDA                                        0000000034100000000000000000000000000000904173160000001667238280008876B03     201210122012071600000000054840000810320000000000883644000000000000000000000000073324050000000000  3020121127   01          2                                                                                   3191667238288064849251000079                                                  N                     01321  0000000        000017
12006000195000156MBA MERCANTIL BRAS DE ACO LTDA                                        0000000034100000000000000000000000000000904173170000001671394420008925B03     201210122012071700000000054840000719580000000000784670000000000000000000000000065090050000000000  3020121127   01          2                                                                                   3191671394424064849251000069                                                  N                     01321  0000000        000018
12006000195000156MBA MERCANTIL BRAS DE ACO LTDA                                        0000000034100000000000000000000000000000885998980000001667238420008870B02     201209112012071600000000054530000839952000000000967156000000000000000000000000127204050000000000  3020121127   01          2                                                                                   3191667238429064849251000039                                                  N                     01321  0000000        000019
12006000195000156MBA MERCANTIL BRAS DE ACO LTDA                                        0000000034100000000000000000000000000000889578520000001671394540008920B02     201209162012071700000000054580000576585000000000658233000000000000000000000000081648050000000000  3020121127   01          2                                                                                   3191671394549064849251000099                                                  N                     01321  0000000        000020
12006000195000156MBA MERCANTIL BRAS DE ACO LTDA                                        0000000034100000000000000000000000000000887698090000001671394550008925B02     201209142012071700000000054560000719581000000000824291000000000000000000000000104710050000000000  3020121127   01          2                                                                                   3191671394556064849251000089                                                  N                     01321  0000000        000021
12006000195000156MBA MERCANTIL BRAS DE ACO LTDA                                        0000000034100000000000000000000000000000887698100000001671394560008926B02     201209142012071700000000054560000387716000000000444178000000000000000000000000056462050000000000  3020121127   01          2                                                                                   3191671394564064849251000019                                                  N                     01321  0000000        000022
12006000195000156MBA MERCANTIL BRAS DE ACO LTDA                                        0000000034100000000000000000000000000000904173180000001671394430008926B03     201210122012071700000000054840000387716000000000422814000000000000000000000000035098050000000000  3020121127   01          2                                                                                   3191671394432064849251000079                                                  N                     01321  0000000        000023
12006000195000156MBA MERCANTIL BRAS DE ACO LTDA                                        0000000034100000000000000000000000000000906662670000001671394410008920B03     201210142012071700000000054860000576584000000000626480000000000000000000000000049896050000000000  3020121127   01          2                                                                                   3191671394416064849251000039                                                  N                     01321  0000000        000024
12006000195000156M B A MERCANTIL BRASILEIRA DE                                         0000000023700118P00000002130599 00000000868592690020223600000020009229B02     201210112012081600000000054830000253414000000000273248000000000000000000000000019834050000000000  3020121127   01          2  RUA JUNO  533                                                                    3                         000000000000000                                     N                     00598  0000000        000025
12006000195000156M B A MERCANTIL BRASILEIRA DE                                         0000000023700118P00000002130599 00000000848180770020220100000340008905B03     201210112012071900000000054830000155300000000000167473000000000000000000000000012173050000000000  3020121127   01          2  RUA JUNO  533                                                                    3                         000000000000000                                     N                     00598  0000000        000026
12006000195000156M B A MERCANTIL BRASILEIRA DE                                         0000000023700118P00000002130599 00000000865388260020222900000470009204B02     201210112012081500000000054830000127292000000000137256000000000000000000000000009964050000000000  3020121127   01          2  RUA JUNO  533                                                                    3                         000000000000000                                     N                     00598  0000000        000027
12006000195000156M B A MERCANTIL BRASILEIRA DE                                         0000000023700118P00000002130599 00000000865388290020222900000500009205B02     201210122012081500000000054840000348964000000000375736000000000000000000000000026772050000000000  3020121127   01          2  RUA JUNO  533                                                                    3                         000000000000000                                     N                     00598  0000000        000028
12006000195000156M B A MERCANTIL BRASILEIRA DE                                         0000000023700118P00000002130599 00000000865388320020222900000530009206B02     201210132012081500000000054850000527560000000000567115000000000000000000000000039555050000000000  3020121127   01          2  RUA JUNO  533                                                                    3                         000000000000000                                     N                     00598  0000000        000029
12006867297000173MARCOS ANTONIO RIBEIRO ACOS                                           0000000034100000000000000000000000000000926546460000002612716790000461        201212202012112300000000055530000059660000000000059660000000000000000000000000000000050000000000  3020121220   01FS        1                                                                                   3112612716798046769908800059                                                  N                     01321  0000000        000030
12008272923000104P SANTOS ESQUADRARIAS METAL ME                                        0000000034100000000000000000000000000000896979550000006153947641850           201211222012100800000000055250000400000000000000413335000000000000000000000000013335050000000000  3020121127   01          2                                                                                   3156153947640160141951600039                                                  N                     01321  0000000        000031
12008879248000186FREFER METAL PLUS                                                     000000003410000000000000000000000000000090920332000000252540538EPI024058A     201211222012102500000000055250000960939000000000967184000000000000000000000000006245050000000000  3020121127   01          2                                                                                   3112525405380293811346700099                                                  N                     01321  0000000        000032
12008879248000186FREFER METAL PLUS                                                     000000003410000000000000000000000000000090751878000000251738778EPI024022A     201211202012102300000000055230000998338000000001007424000000000000000000000000009086050000000000  3020121127   01          2                                                                                   3112517387786293811346700099                                                  N                     01321  0000000        000033
12009034654000291STEEL PRODUCTS DO BRASIL LTDA                                         0000000000100000000000000000000000000000914718910000005529180002470 1 3       201211232012110500000000055260000132000000000000135964000000000000000000000000003964050000000000  3020121127   01          2                                                                                   3000000221373244205529181169                                                  N                     01321  0000000        000034
12009338857000190FERNANDO  NAGAO  CARDONE  ALVA                                        000000000330000000000000000000000000000091653176000000300000000ALTA 11 2012   201211202012103000000000055230000134632000000000138806000000000000000000000000004174050000000000  3020121127   01          2                                                                                   3947901700000051051630010119                                                  N                     01321  0000000        000035
12009338857000190FERNANDO  NAGAO  CARDONE  ALVA                                        000000000330000000000000000000000000000089697936000000800000000ALTA 10 2012   201210202012092500000000054920000134632000000000151330000000000000000000000000016698050000000000  3020121127   01          2                                                                                   3947901700000051050080010129                                                  N                     01321  0000000        000036
12011389422000117NELSON RODRIGUES DA SILVA JUNI                                        00000000104000000000000000000000000000009075188200000096317880015400          201211192012102300000000055220000065000000000000065000000000000000000000000000000000050000000000  3020121119   05          3                                                                                   3407696317802478700000058719                                                  N                     01321  0000000        000037
12012006058000121WEG TINTAS LTDA                                                       0000000023702727800000000001309 00000000868126360090223500001190016086603     201211042012082100000000055070000306662000000000316046000000000000000000000000009384050000000000  3020121127   01          2  R JUNO  533                                                                      3                         000000000000000                                     N                     00598  0000000        000038
12012006058000121WEG TINTAS LTDA                                                       0000000023702727800000000001309 00000000878206060090225400000800016517203     201211202012090600000000055230000459992000000000464283000000000000000000000000004291050000000000  3020121127   01          2  R JUNO  533                                                                      3                         000000000000000                                     N                     00598  0000000        000039
12012006058000121WEG TINTAS LTDA                                                       0000000023702727800000000001309 00000000864554460090222800000750015908403     201210282012081400000000055000000306662000000000318902000000000000000000000000012240050000000000  3020121127   01          2  R JUNO  533                                                                      3                         000000000000000                                     N                     00598  0000000        000040
12012006058000121WEG TINTAS LTDA                                                       0000000023702727800000000001309 00000000870177490090224100000980016248002     201210262012082700000000054980000306569000000000319625000000000000000000000000013056050000000000  3020121127   01          2  R JUNO  533                                                                      3                         000000000000000                                     N                     00598  0000000        000041
12012006058000121WEG TINTAS LTDA                                                       0000000023702727800000000001309 00000000870177500090224100000990016248003     201211102012082700000000055130000306662000000000313598000000000000000000000000006936050000000000  3020121127   01          2  R JUNO  533                                                                      3                         000000000000000                                     N                     00598  0000000        000042
12012006058000121WEG TINTAS LTDA                                                       0000000023702727800000000001309 00000000872318660090224700001040016359602     201210302012083100000000055020000459854000000000477018000000000000000000000000017164050000000000  3020121127   01          2  R JUNO  533                                                                      3                         000000000000000                                     N                     00598  0000000        000043
12012006058000121WEG TINTAS LTDA                                                       0000000023702727800000000001309 00000000872318670090224700001050016359603     201211142012083100000000055170000459992000000000467961000000000000000000000000007969050000000000  3020121127   01          2  R JUNO  533                                                                      3                         000000000000000                                     N                     00598  0000000        000044
12012006058000121WEG TINTAS LTDA                                                       0000000023702727800000000001309 00000000882668410090225800000740016626901     201210282012091300000000055000000459854000000000478244000000000000000000000000018390050000000000  3020121127   01          2  R JUNO  533                                                                      3                         000000000000000                                     N                     00598  0000000        000045
12012006058000121WEG TINTAS LTDA                                                       0000000023702727800000000001309 00000000882668420090225800000750016626902     201211122012091300000000055150000459854000000000469049000000000000000000000000009195050000000000  3020121127   01          2  R JUNO  533                                                                      3                         000000000000000                                     N                     00598  0000000        000046
12012006058000121WEG TINTAS LTDA                                                       0000000023702727800000000001309 00000000878206050090225400000790016517202     201211052012090600000000055080000459854000000000473340000000000000000000000000013486050000000000  3020121127   01          2  R JUNO  533                                                                      3                         000000000000000                                     N                     00598  0000000        000047
12013656578000142GUARINOR TRANSP E LOGISTICA LT                                        000000001040000000000000000000000000000092654641000000001531300002141 12      201211292012110900000000055320000155800000000000155800000000000000000000000000000000050000000000  3020121129   01FS        1                                                                                   3900000153132958700000017319                                                  N                     01321  0000000        000048
12013823915000149UNICA ACOS E HIDRAULICA LTDA                                          000000003410000000000000000000000000000092654647000000260893527655 A          201212032012112300000000055360000021780000000000021780000000000000000000000000000000050000000000  3020121203   01FS        1                                                                                   3112608935279007493690700099                                                  N                     01321  0000000        000049
12014978305000187MOGI FILME INDUSTRIA E COMERCI                                        0000000023700402200000001055003 0000000090504098009022960000004430            201211222012102200000000055250000068425000000000069793000000000000000000000000001710050000000000  3020121126   06          3  RUA TAMAINDE 1410 VL NOVA MANCHESTER                                             3                         000000000000000                                     N                     00598  0000000        000050
12033325184001786ALSCO TOALHEIRO BRASIL                                                0000000023703396000000001490850 0000000091741401009000002787905VM27879        201211212012110100000000055240000037363000000000037585000000000000000000000000000222050000000000  3020121127   01          2  RUA  GANGES 528                                                                  3                         000000000000000                                     N                     00598  0000000        000051
12035820448000136WHITE MARTINS GASES INDUSTRIAI                                        0000000023700026400000003937925 0000000090920337009023030000391400546 001     201211232012102700000000055260000056805000000000058017000000000000000000000000001212050000000000  3020121127   01          2  RUA GANGES  528                                                                  3                         000000000000000                                     N                     00598  0000000        000052
12035820448000136WHITE MARTINS GASES INDUSTRIAI                                        0000000023700026400000003937925 0000000092654649009023310013357412752 001     201212212012112400000000055540000017600000000000017600000000000000000000000000000000050000000000  3020121221   01FS        1  RUA GANGES  528                                                                  3                         000000000000000                                     N                     00598  0000000        000053
12035820448000136WHITE MARTINS GASES INDUSTRIAI                                        0000000023700026400000003937925 0000000092654650009023310014949413220 001     201212212012112400000000055540000121725000000000121725000000000000000000000000000000050000000000  3020121221   01FS        1  RUA GANGES  528                                                                  3                         000000000000000                                     N                     00598  0000000        000054
12042956441000101SOLUCOES ACO USIMINAS                                                 0000000034100000000000000000000000000000856906460000002262886330017266303     201211222012073000000000055250000145026000000000146186000000000000000000000000001450050000000000  3020121126   06          3                                                                                   3112262886339293807258000019                                                  N                     01321  0000000        000055
12042956441000101SOLUCOES ACO USIMINAS                                                 0000000034100000000000000000000000000000853154870000002246247060017196703     201211192012072500000000055220000234840000000000238130000000000000000000000000003760050000000000  3020121126   06          3                                                                                   3112246247061293807258000019                                                  N                     01321  0000000        000056
12042956441000101SOLUCOES ACO USIMINAS                                                 0000000034100000000000000000000000000000855028810000002254329440017202403     201211192012072600000000055220000244137000000000247553000000000000000000000000003904050000000000  3020121126   06          3                                                                                   3112254329447293807258000059                                                  N                     01321  0000000        000057
12042956441000101SOLUCOES ACO USIMINAS                                                 0000000034100000000000000000000000000000856906450000002262886320017266203     201211222012073000000000055250000119436000000000120392000000000000000000000000001195050000000000  3020121126   06          3                                                                                   3112262886321293807258000059                                                  N                     01321  0000000        000058
12042956441000101SOLUCOES ACO USIMINAS                                                 0000000034100000000000000000000000000000846595710000002210880290016980602     201209102012071200000000054520000426094000000000492550000000000000000000000000066456050000000000  3020121127   01          2                                                                                   3112210880293293807258000019                                                  N                     01321  0000000        000059
12042956441000101SOLUCOES ACO USIMINAS                                                 0000000034100000000000000000000000000000858616510000002271409900017319803     201211262012080200000000055290000194524000000000194913000000000000000000000000000389050000000000  3020121127   01          2                                                                                   3112271409909293807258000029                                                  N                     01321  0000000        000060
12042956441000101SOLUCOES ACO USIMINAS                                                 0000000034100000000000000000000000000000858616520000002271409870017319503     201211262012080200000000055290000197381000000000197776000000000000000000000000000395050000000000  3020121127   01          2                                                                                   3112271409875293807258000049                                                  N                     01321  0000000        000061
12042956441000101SOLUCOES ACO USIMINAS                                                 0000000034100000000000000000000000000000858616530000002271409880017319603     201211262012080200000000055290000197045000000000197439000000000000000000000000000394050000000000  3020121127   01          2                                                                                   3112271409883293807258000079                                                  N                     01321  0000000        000062
12042956441000101SOLUCOES ACO USIMINAS                                                 0000000034100000000000000000000000000000858616540000002271409890017319703     201211262012080200000000055290000197213000000000197607000000000000000000000000000394050000000000  3020121127   01          2                                                                                   3112271409891293807258000019                                                  N                     01321  0000000        000063
12042956441000101SOLUCOES ACO USIMINAS                                                 0000000034100000000000000000000000000000859590620000002274469790017353702     201209282012080300000000054700000081053000000000090773000000000000000000000000009720050000000000  3020121127   01          2                                                                                   3112274469793293807258000069                                                  N                     01321  0000000        000064
12042956441000101SOLUCOES ACO USIMINAS                                                 0000000034100000000000000000000000000000847452070000002216130350005922202     201209102012071600000000054520000172071000000000198903000000000000000000000000026832050000000000  3020121127   01          2                                                                                   3112216130354293807258000049                                                  N                     01321  0000000        000065
12042956441000101SOLUCOES ACO USIMINAS                                                 0000000034100000000000000000000000000000847452100000002216130340017012402     201209102012071500000000054520000147428000000000170438000000000000000000000000023010050000000000  3020121127   01          2                                                                                   3112216130347293807258000059                                                  N                     01321  0000000        000066
12042956441000101SOLUCOES ACO USIMINAS                                                 0000000034100000000000000000000000000000859590640000002274469810017353703     201211262012080300000000055290000081052000000000081214000000000000000000000000000162050000000000  3020121127   01          2                                                                                   3112274469819293807258000019                                                  N                     01321  0000000        000067
12042956441000101SOLUCOES ACO USIMINAS                                                 0000000034100000000000000000000000000000859590660000002274469820017353803     201211262012080300000000055290000166997000000000167331000000000000000000000000000334050000000000  3020121127   01          2                                                                                   3112274469827293807258000059                                                  N                     01321  0000000        000068
12042956441000101SOLUCOES ACO USIMINAS                                                 0000000034100000000000000000000000000000848180700000002220192900017041002     201209112012071700000000054530000155433000000000179380000000000000000000000000023947050000000000  3020121127   01          2                                                                                   3112220192903293807258000029                                                  N                     01321  0000000        000069
12042956441000101SOLUCOES ACO USIMINAS                                                 0000000034100000000000000000000000000000848180710000002220192910017041202     201209112012071700000000054530000205421000000000237068000000000000000000000000031647050000000000  3020121127   01          2                                                                                   3112220192911293807258000019                                                  N                     01321  0000000        000070
12042956441000101SOLUCOES ACO USIMINAS                                                 0000000034100000000000000000000000000000850740460000002233586800017127201     201208202012072000000000054310000137881000000000165205000000000000000000000000027324050000000000  3020121127   01          2                                                                                   3112233586802293807258000019                                                  N                     01321  0000000        000071
12042956441000101SOLUCOES ACO USIMINAS                                                 0000000034100000000000000000000000000000850740470000002233586810017101002     201209142012071900000000054560000732575000000000840985000000000000000000000000108410050000000000  3020121127   01          2                                                                                   3112233586810293807258000019                                                  N                     01321  0000000        000072
12042956441000101SOLUCOES ACO USIMINAS                                                 0000000034100000000000000000000000000000850740480000002233586820017101202     201209142012071900000000054560000144634000000000166020000000000000000000000000021386050000000000  3020121127   01          2                                                                                   3112233586828293807258000029                                                  N                     01321  0000000        000073
12042956441000101SOLUCOES ACO USIMINAS                                                 0000000034100000000000000000000000000000853154840000002246247030017196702     201209202012072500000000054620000234841000000000266801000000000000000000000000031960050000000000  3020121127   01          2                                                                                   3112246247038293807258000099                                                  N                     01321  0000000        000074
12042956441000101SOLUCOES ACO USIMINAS                                                 0000000034100000000000000000000000000000853154850000002246247040017197302     201209202012072500000000054620000970103000000001102023000000000000000000000000131920050000000000  3020121127   01          2                                                                                   3112246247046293807258000019                                                  N                     01321  0000000        000075
12042956441000101SOLUCOES ACO USIMINAS                                                 0000000034100000000000000000000000000000853154860000002246247050017196603     201211192012072500000000055220000804807000000000817687000000000000000000000000012880050000000000  3020121127   01          2                                                                                   3112246247053293807258000059                                                  N                     01321  0000000        000076
12042956441000101SOLUCOES ACO USIMINAS                                                 0000000034100000000000000000000000000000853154880000002246247070017197303     201211192012072500000000055220000970103000000000985623000000000000000000000000015520050000000000  3020121127   01          2                                                                                   3112246247079293807258000059                                                  N                     01321  0000000        000077
12042956441000101SOLUCOES ACO USIMINAS                                                 0000000034100000000000000000000000000000855028690000002254329380017212902     201209212012072600000000054630000140098000000000158858000000000000000000000000018760050000000000  3020121127   01          2                                                                                   3112254329389293807258000019                                                  N                     01321  0000000        000078
12042956441000101SOLUCOES ACO USIMINAS                                                 0000000034100000000000000000000000000000855028700000002254329390017213002     201209212012072600000000054630000140602000000000159429000000000000000000000000018827050000000000  3020121127   01          2                                                                                   3112254329397293807258000089                                                  N                     01321  0000000        000079
12042956441000101SOLUCOES ACO USIMINAS                                                 0000000034100000000000000000000000000000855028760000002254329470017220503     201211192012072700000000055220000981022000000000996718000000000000000000000000015696050000000000  3020121127   01          2                                                                                   3112254329470293807258000019                                                  N                     01321  0000000        000080
12042956441000101SOLUCOES ACO USIMINAS                                                 0000000034100000000000000000000000000000855028770000002254329400017220502     201209212012072700000000054630000981022000000001112476000000000000000000000000131454050000000000  3020121127   01          2                                                                                   3112254329405293807258000099                                                  N                     01321  0000000        000081
12042956441000101SOLUCOES ACO USIMINAS                                                 0000000034100000000000000000000000000000855028780000002254329410017200203     201211192012072600000000055220000680385000000000691273000000000000000000000000010888050000000000  3020121127   01          2                                                                                   3112254329413293807258000089                                                  N                     01321  0000000        000082
12042956441000101SOLUCOES ACO USIMINAS                                                 0000000034100000000000000000000000000000856906410000002262886280017266201     201208282012073000000000054390000119472000000000141221000000000000000000000000021749050000000000  3020121127   01          2                                                                                   3112262886289293807258000089                                                  N                     01321  0000000        000083
12042956441000101SOLUCOES ACO USIMINAS                                                 0000000034100000000000000000000000000000856906420000002262886290017266301     201208282012073000000000054390000145069000000000171459000000000000000000000000026390050000000000  3020121127   01          2                                                                                   3112262886297293807258000099                                                  N                     01321  0000000        000084
12042956441000101SOLUCOES ACO USIMINAS                                                 0000000034100000000000000000000000000000858616470000002271409830017315103     201211262012080200000000055290000579374000000000580533000000000000000000000000001159050000000000  3020121127   01          2                                                                                   3112271409834293807258000089                                                  N                     01321  0000000        000085
12042956441000101SOLUCOES ACO USIMINAS                                                 0000000034100000000000000000000000000000858616480000002271409840017316003     201211262012080200000000055290000929451000000000931310000000000000000000000000001859050000000000  3020121127   01          2                                                                                   3112271409842293807258000079                                                  N                     01321  0000000        000086
12042956441000101SOLUCOES ACO USIMINAS                                                 0000000034100000000000000000000000000000858616490000002271409850017319303     201211262012080200000000055290000981526000000000983489000000000000000000000000001963050000000000  3020121127   01          2                                                                                   3112271409859293807258000039                                                  N                     01321  0000000        000087
12042956441000101SOLUCOES ACO USIMINAS                                                 0000000034100000000000000000000000000000858616500000002271409860017319403     201211262012080200000000055290000178902000000000179260000000000000000000000000000358050000000000  3020121127   01          2                                                                                   3112271409867293807258000059                                                  N                     01321  0000000        000088
12042956441000101SOLUCOES ACO USIMINAS                                                 0000000034100000000000000000000000000000846595700000002210880280016980502     201209102012071200000000054520000156071000000000180407000000000000000000000000024336050000000000  3020121127   01          2                                                                                   3112210880285293807258000039                                                  N                     01321  0000000        000089
12045635984000115CRIFER LAMINADOS ACO FERRO LTD                                        0000000034100000000000000000000000000000909203340000009000268640035771E01     201211212012102400000000055240000454608000000000460062000000000000000000000000005454050000000000  3020121127   01          2                                                                                   3109000268640005630080900099                                                  N                     01321  0000000        000090
12045987005000198D PASCHOAL AUTOMOTIVA LTDA                                            0000000023702002800000000147001 00000000886866610110000000171660000000036     201211192012091900000000055220000032500000000000033486000000000000000000000000000986050000000000  3020121127   01          2  R   TAMAINDE                       01410                                         3                         000000000000000                                     N                     00598  0000000        000091
12047190731000100DE CASTRO LOUREIRO ENGENHARIA                                         0000000023703394400000000205508 000000008801225500202255000001403026794 0     201211262012090300000000055290001209490000000001211506000000000000000000000000002016050000000000  3020121127   01          2  RUA JUNO  533                                                                    3                         000000000000000                                     N                     00598  0000000        000092
12047190731000100DE CASTRO LOUREIRO ENGENHARIA                                         00000000033000000000000000000000000000009265465700000028000000003027572 0     201212172012111400000000055500000255934000000000255934000000000000000000000000000000050000000000  3020121217   01FS        1                                                                                   3948430370000009556028020399                                                  N                     01321  0000000        000093
12047190731000100DE CASTRO LOUREIRO ENGENHARIA                                         00000000033000000000000000000000000000009265465800000036000000003027572 0     201301142012111400000000055780000255934000000000255934000000000000000000000000000000050000000000  3020130114   01FS        1                                                                                   3948430370000009556036020369                                                  N                     01321  0000000        000094
12047190731000100DE CASTRO LOUREIRO ENGENHARIA                                         00000000033000000000000000000000000000009265465900000044000000003027572 0     201302112012111400000000056060000256011000000000256011000000000000000000000000000000050000000000  3020130213   01FS        1                                                                                   3948430370000009556044020329                                                  N                     01321  0000000        000095
12047190731000100DE CASTRO LOUREIRO ENGENHARIA                                         00000000033000000000000000000000000000009102658700000011000000003027424 0     201211262012102900000000055290001191039000000001214860000000000000000000000000023821050000000000  3020121127   01          2                                                                                   3948430370000009555811020319                                                  N                     01321  0000000        000096
12047190731000100DE CASTRO LOUR ENG IND LTDA                                           00000000341000000000000000000000000000008782050900000023399953503026612 0     201209182012082100000000054600001111489000000001264509000000000000000000000000153020050000000000  3020121127   01          2                                                                                   3112339995352036884500400019                                                  N                     01321  0000000        000097
12047190731000100DE CASTRO LOUR ENG IND LTDA                                           00000000341000000000000000000000000000008782052800000023399956303026648 0     201211222012082300000000055250000976053000000000985653000000000000000000000000009600050000000000  3020121127   01          2                                                                                   3112339995634036884500400019                                                  N                     01321  0000000        000098
12047190731000100DE CASTRO LOUR ENG IND LTDA                                           00000000341000000000000000000000000000008782051200000023399953803026613 0     201209182012082100000000054600001107989000000001260519000000000000000000000000152530050000000000  3020121127   01          2                                                                                   3112339995386036884500400039                                                  N                     01321  0000000        000099
12047190731000100DE CASTRO LOUR ENG IND LTDA                                           00000000341000000000000000000000000000008782051300000023399953903026613 0     201211202012082100000000055230001107989000000001123242000000000000000000000000015253050000000000  3020121127   01          2                                                                                   3112339995394036884500400019                                                  N                     01321  0000000        000100
12047190731000100DE CASTRO LOUR ENG IND LTDA                                           00000000341000000000000000000000000000008782051500000023399953603026612 0     201211202012082100000000055230001111489000000001126791000000000000000000000000015302050000000000  3020121127   01          2                                                                                   3112339995360036884500400079                                                  N                     01321  0000000        000101
12047190731000100DE CASTRO LOUR ENG IND LTDA                                           00000000341000000000000000000000000000008782051600000023399954103026614 0     201209182012082100000000054600001047621000000001191821000000000000000000000000144200050000000000  3020121127   01          2                                                                                   3112339995410036884500400039                                                  N                     01321  0000000        000102
12047190731000100DE CASTRO LOUR ENG IND LTDA                                           00000000341000000000000000000000000000008782051700000023399954203026614 0     201211202012082100000000055230001047621000000001062041000000000000000000000000014420050000000000  3020121127   01          2                                                                                   3112339995428036884500400079                                                  N                     01321  0000000        000103
12047190731000100DE CASTRO LOUR ENG IND LTDA                                           00000000341000000000000000000000000000008782051800000023399955703026636 0     201211212012082200000000055240000940804000000000951904000000000000000000000000011100050000000000  3020121127   01          2                                                                                   3112339995576036884500400019                                                  N                     01321  0000000        000104
12047190731000100DE CASTRO LOUR ENG IND LTDA                                           00000000341000000000000000000000000000008782052100000023399955903026643 0     201209202012082300000000054620000867039000000000982979000000000000000000000000115940050000000000  3020121127   01          2                                                                                   3112339995592036884500400049                                                  N                     01321  0000000        000105
12047190731000100DE CASTRO LOUR ENG IND LTDA                                           00000000341000000000000000000000000000008782052700000023399956203026648 0     201209202012082300000000054620000976053000000001106613000000000000000000000000130560050000000000  3020121127   01          2                                                                                   3112339995626036884500400029                                                  N                     01321  0000000        000106
12047190731000100DE CASTRO LOUR ENG IND LTDA                                           00000000341000000000000000000000000000008782052200000023399955403026632 0     201211212012082200000000055240000952073000000000963305000000000000000000000000011232050000000000  3020121127   01          2                                                                                   3112339995543036884500400099                                                  N                     01321  0000000        000107
12047190731000100DE CASTRO LOUR ENG IND LTDA                                           00000000341000000000000000000000000000008782052400000023399956003026643 0     201211222012082300000000055250000867039000000000875564000000000000000000000000008525050000000000  3020121127   01          2                                                                                   3112339995600036884500400069                                                  N                     01321  0000000        000108
12047190731000100DE CASTRO LOUR ENG IND LTDA                                           00000000341000000000000000000000000000008782052500000023399955603026636 0     201209192012082200000000054610000940804000000001068454000000000000000000000000127650050000000000  3020121127   01          2                                                                                   3112339995568036884500400049                                                  N                     01321  0000000        000109
12047190731000100DE CASTRO LOUR ENG IND LTDA                                           00000000341000000000000000000000000000008782052000000023399955303026632 0     201209192012082200000000054610000952073000000001081241000000000000000000000000129168050000000000  3020121127   01          2                                                                                   3112339995535036884500400019                                                  N                     01321  0000000        000110
12047190731000100DE CASTRO LOUREIRO ENGENHARIA                                         00000000033000000000000000000000000000008801226500000034000000003026796 0     201211262012090300000000055290000551274000000000562299000000000000000000000000011025050000000000  3020121127   01          2                                                                                   3948430370000009553134020349                                                  N                     01321  0000000        000111
12048775225000146SEIKI IND COM E CONFECCOES LTD                                        000000003410000000000000000000000000000089337376000000244697151014914001      201210232012092500000000054950000052000000000000054730000000000000000000000000002730050000000000  3020121127   01          2                                                                                   3112446971510017444824100089                                                  N                     01321  0000000        000112
12051180370000199IGUAFER FERRO E ACO LTDA                                              0000000034100000000000000000000000000000852309100000002239389789443 B         201209022012071800000000054440000168275000000000192355000000000000000000000000024080050000000000  3020121127   01          2                                                                                   3112239389789077149484600089                                                  N                     01321  0000000        000113
12051180370000199IGUAFER FERRO E ACO LTDA                                              0000000034100000000000000000000000000000852309110000002239389799443 C         201209122012071800000000054540000168275000000000189555000000000000000000000000021280050000000000  3020121127   01          2                                                                                   3112239389797077149484600089                                                  N                     01321  0000000        000114
12053585766000141MULTIACOS I C PRODS TEC LTDA                                          0000000042200000000000000000000000000000890456920000000000000000004724102     201211202012092500000000055230000127900000000000129390000000000000000000000000001490050000000000  3020121127   01          2                                                                                   3711500005033164925775134149                                                  N                     01321  0000000        000115
12053585766000141MULTIACOS I C PRODS TEC LTDA                                          0000000042200000000000000000000000000000883508220000000000000000004674503     201211202012091300000000055230000274012000000000277210000000000000000000000000003198050000000000  3020121127   01          2                                                                                   3711500005033164921116497199                                                  N                     01321  0000000        000116
12053585766000141MULTIACOS I C PRODS TEC LTDA                                          0000000042200000000000000000000000000000883508240000000000000000004674603     201211202012091300000000055230000126819000000000128295000000000000000000000000001476050000000000  3020121127   01          2                                                                                   3711500005033164921116462169                                                  N                     01321  0000000        000117
12053585766000141MULTIACOS I C PRODS TEC LTDA                                          0000000042200000000000000000000000000000895189340000000000000000004737202     201211202012100200000000055230000362578000000000366805000000000000000000000000004227050000000000  3020121127   01          2                                                                                   3711500005033164927761785169                                                  N                     01321  0000000        000118
12053585766000141MULTIACOS I C PRODS TEC LTDA                                          0000000042200000000000000000000000000000895189560000000000000000004695703     201211262012100200000000055290001092223000000001094042000000000000000000000000001819050000000000  3020121127   01          2                                                                                   3711500005033164927761980139                                                  N                     01321  0000000        000119
12053585766000141MULTIACOS I C PRODS TEC LTDA                                          0000000042200000000000000000000000000000895189590000000000000000004699103     201211262012100200000000055290000574719000000000575676000000000000000000000000000957050000000000  3020121127   01          2                                                                                   3711500005033164927762048119                                                  N                     01321  0000000        000120
12053585766000141MULTIACOS I C PRODS TEC LTDA                                          0000000042200000000000000000000000000000895189610000000000000000004695803     201211262012100200000000055290000193011000000000193332000000000000000000000000000321050000000000  3020121127   01          2                                                                                   3711500005033164927762013119                                                  N                     01321  0000000        000121
12053585766000141MULTIACOS I C PRODS TEC LTDA                                          0000000042200000000000000000000000000000895189660000000000000000004750002     201211222012100200000000055250000222869000000000224723000000000000000000000000001854050000000000  3020121127   01          2                                                                                   3711500005033164927762129119                                                  N                     01321  0000000        000122
12053585766000141MULTIACOS I C PRODS TEC LTDA                                          0000000042200000000000000000000000000000895189720000000000000000004685003     201211222012100200000000055250000547346000000000551905000000000000000000000000004559050000000000  3020121127   01          2                                                                                   3711500005033164927762200139                                                  N                     01321  0000000        000123
12053585766000141MULTIACOS I C PRODS TEC LTDA                                          0000000042200000000000000000000000000000895189800000000000000000004674403     201211202012100200000000055230000385696000000000390196000000000000000000000000004500050000000000  3020121127   01          2                                                                                   3711500005033164927762234199                                                  N                     01321  0000000        000124
12054382510000108SETENTA IND E COM DE MADEIRAS                                         0000000034100000000000000000000000000000860403430000002277814474462 A         201209042012080700000000054460000191200000000000222784000000000000000000000000031584050000000000  3020121127   01          2                                                                                   3112277814474057049175300069                                                  N                     01321  0000000        000125
12055721609000141MAC SEG EQUIP DE SEGURANCA LT                                         0000000034100000000000000000000000000000926546480000002611933454182 1         201212212012112300000000055540000056250000000000056250000000000000000000000000000000050000000000  3020121221   01FS        1                                                                                   3112611933451037814415800099                                                  N                     01321  0000000        000126
12056993512000150CYKLOP DO BRASIL EMBALAGENS SA                                        0000000034100000000000000000000000000000874070500000002362586810134932        201210012012090300000000054730000083607000000000101106000000000000000000000000017499050000000000  3020121127   01          2                                                                                   3112362586813025700015800019                                                  N                     01321  0000000        000127
12059358770000153TRANS NEW ABC TRANSPORTADORA L                                        0000000023701193200000000698555 000000009183388500901323120763555320          201211222012110700000000055250000137001000000000137686000000000000000000000000000685050000000000  3020121127   01          2  RUA GANGES 528                                                                   3                         000000000000000                                     N                     00598  0000000        000128
12059659615000177DZ COMERCIO R E SERVICOS LTDA                                         000000003410000000000000000000000000000091358507000000900000321280            201211172012102400000000055200000060000000000000061200000000000000000000000000001200050000000000  3020121127   01          2                                                                                   3109000003217000314585100039                                                  N                     01321  0000000        000129
12061070454000123SOL IMPORTACAO EXPORTACAO INDU                                        0000000000100000000000000000000000000000905040900000002684000007006           201211152012101900000000055180000054000000000000054364000000000000000000000000000455050000000000  3020121119   05          3                                                                                   3044162684001196000055601159                                                  N                     01321  0000000        000130
12061217188000119TELAS METALICAS TELMETAL LTDA                                         0000000034100000000000000000000000000000905040930000009000030375805 1 3       201211152012101800000000055180000065546000000000065546000000000000000000000000000000050000000000  3020121116   05          3                                                                                   3109000030377077099894600079                                                  N                     01321  0000000        000131
12061217188000119TELAS METALICAS TELMETAL LTDA                                         0000000000100000000000000000000000000000902449810000000058120005780 3 3       201211262012101600000000055290000089763000000000090002000000000000000000000000000239050000000000  3020121127   01          2                                                                                   3000000115031800000058121739                                                  N                     01321  0000000        000132
12061683652000162TRANS FACE TRANSPORTES LTDA                                           0000000023700530400000000141828 0000000091358502009000000110375I000085343     201211202012110500000000055230000081000000000000082533000000000000000000000000001533050000000000  3020121127   01          2  R JUNO 553                                                                       3                         000000000000000                                     N                     00598  0000000        000133
12061780615000172LEPOK INFORMATICA E PAPELARIA                                         0000000023703393600000000005010 000000009147189500202311000000302136893       201211262012102900000000055290000054463000000000054626000000000000000000000000000163050000000000  3020121127   01          2  RUA TAMAINDE 1410                                                                3                         000000000000000                                     N                     00598  0000000        000134
12061780615000172LEPOK INFORMATICA E PAPELARIA                                         0000000023703393600000000005010 000000009147189600202311000000402137019       201211262012102900000000055290000002695000000000002703000000000000000000000000000008050000000000  3020121127   01          2  RUA TAMAINDE 1410                                                                3                         000000000000000                                     N                     00598  0000000        000135
12062510367000102ITANHAEM TRANSP DE MAQUINAS LT                                        000000003410000000000000000000000000000087407049000000236463199667            201209202012090400000000054620000248220000000000315744000000000000000000000000067524050000000000  3020121127   01          2                                                                                   3112364631997005770252400049                                                  N                     01321  0000000        000136
12062539994000176LEALFER INDUSTRIA E COMERCIO D                                        0000000003300000000000000000000000000000893373940000008300000000005580302     201211222012092700000000055250000451213000000000455048000000000000000000000000003835050000000000  3020121127   01          2                                                                                   3915298380000000272183010429                                                  N                     01321  0000000        000137
12062539994000176LEALFER INDUSTRIA E COMERCIO D                                        0000000003300000000000000000000000000000893373970000009100000000005576002     201211222012092600000000055250000243236000000000245307000000000000000000000000002071050000000000  3020121127   01          2                                                                                   3915298380000000272191010419                                                  N                     01321  0000000        000138
12062539994000176LEALFER INDUSTRIA E COMERCIO D                                        0000000003300000000000000000000000000000893374000000001300000000005575002     201211222012092600000000055250000300979000000000303537000000000000000000000000002558050000000000  3020121127   01          2                                                                                   3915298380000000272213010449                                                  N                     01321  0000000        000139
12062539994000176LEALFER INDUSTRIA E COMERCIO D                                        0000000003300000000000000000000000000000872953050000004700000000005424703     201211222012083000000000055250000656670000000000662251000000000000000000000000005581050000000000  3020121127   01          2                                                                                   3915298380000000259047010469                                                  N                     01321  0000000        000140
12062539994000176LEALFER INDUSTRIA E COMERCIO D                                        0000000003300000000000000000000000000000910265830000008000000000005732501     201211222012102400000000055250000828588000000000835630000000000000000000000000007042050000000000  3020121127   01          2                                                                                   3915298380000000281980010469                                                  N                     01321  0000000        000141
12063917975000107FOTONS COMERCIAL ELETRICA LTDA                                        0000000000100000000000000000000000000000920384640000009559370007678 A         201211232012111300000000055260000021600000000000022856000000000000000000000000001256050000000000  3020121127   01          2                                                                                   3000000153770711239559371719                                                  N                     01321  0000000        000142
12064952757000168WALMAC COM DE PROD QUIMICOS LT                                        0000000034100000000000000000000000000000860403440000002275821690020148        201210262012080300000000054980000219266000000000233058000000000000000000000000013792050000000000  3020121127   01          2                                                                                   3112275821695064807961400019                                                  N                     01321  0000000        000143
12064952757000168WALMAC COM DE PROD QUIMICOS LT                                        0000000034100000000000000000000000000000860403450000002275821700020148        201210052012080300000000054770000219267000000000242110000000000000000000000000022843050000000000  3020121127   01          2                                                                                   3112275821703064807961400029                                                  N                     01321  0000000        000144
12064952757000168WALMAC COM DE PROD QUIMICOS LT                                        0000000034100000000000000000000000000000896979500000002462157550021611        201211012012100400000000055040000219267000000000230473000000000000000000000000011206050000000000  3020121127   01          2                                                                                   3112462157556064807961400019                                                  N                     01321  0000000        000145
12066841552000130R V SEG PATRIMONIAL LTDA                                              00000000341000000000000000000000000000008852483200000090002192721927          201209102012081000000000054520000483241000000000495799000000000000000000000000012558050000000000  3020121127   01          2                                                                                   3109000219270001835253400099                                                  N                     01321  0000000        000146
12066841552000130R V SEG PATRIMONIAL S C LTDA                                          00000000341000000000000000000000000000008887329800000090002213622136          201210102012091100000000054820000374758000000000380758000000000000000000000000006000050000000000  3020121127   01          2                                                                                   3109000221365001838994000069                                                  N                     01321  0000000        000147
12066899790000105FABRICA ARTEF LATEX ESTRELA EP                                        00000000399000000000000000000000000000009265465300000000000000084124 001      201301102012112600000000055740000094500000000000094500000000000000000000000000000000050000000000  3020130110   01FS        1                                                                                   3176455885251125027292500119                                                  N                     01321  0000000        000148
12066899790000105FABRICA ARTEF LATEX ESTRELA EP                                        00000000399000000000000000000000000000009265465400000000000000084124 002      201301252012112600000000055890000094500000000000094500000000000000000000000000000000050000000000  3020130125   01FS        1                                                                                   3176455885331125027292500199                                                  N                     01321  0000000        000149
12066899790000105FABRICA ARTEF LATEX ESTRELA EP                                        00000000399000000000000000000000000000009265465500000000000000084124 003      201302092012112600000000056040000094500000000000094500000000000000000000000000000000050000000000  3020130213   01FS        1                                                                                   3176455885411125027292500159                                                  N                     01321  0000000        000150
12066970229000167NEXTEL TELECOMUNICACOES LTDA                                          0000000023702374400000001596233 000000009265465200900001596671942043 10       201212102012011900000000055430000011883000000000011883000000000000000000000000000000050000000000  3020121210   01FS        1  R GANGES  520 VILA CARRAO BR                                                     3                         000000000000000                                     N                     00598  0000000        000151
12067298349000122JOBINVEST FOMENTO MERCANTIL LT                                        000000000010000000000000000000000000000092654642000000797504000540D           201301212012112300000000055850000109609000000000109609000000000000000000000000000000050000000000  3020130121   01FS        1                                                                                   3161477975041204000105451719                                                  N                     01321  0000000        000152
12067298349000122JOBINVEST FOMENTO MERCANTIL LT                                        000000000010000000000000000000000000000092654643000000797502000540B           201212242012112300000000055570000109609000000000109609000000000000000000000000000000050000000000  3020121224   01FS        1                                                                                   3161477975021204000105451729                                                  N                     01321  0000000        000153
12067298349000122JOBINVEST FOMENTO MERCANTIL LT                                        000000000010000000000000000000000000000092654644000000797503000540C           201301072012112300000000055710000109609000000000109609000000000000000000000000000000050000000000  3020130107   01FS        1                                                                                   3161477975031204000105451719                                                  N                     01321  0000000        000154
12067298349000122JOBINVEST FOMENTO MERCANTIL LT                                        000000000010000000000000000000000000000092654645000000797501000540A           201212102012112300000000055430000109607000000000109607000000000000000000000000000000050000000000  3020121210   01FS        1                                                                                   3161477975011204000105451799                                                  N                     01321  0000000        000155
12067300160000127OSACO PRODUTOS SIDERURGICOS LT                                        0000000023702415500000000063002 0000000091141011009024151670122662 01 01      201211212012103100000000055240000106118000000000112487000000000000000000000000006369050000000000  3020121127   01          2  RUA JUNO  533                                                                    3                         000000000000000                                     N                     00598  0000000        000156
12069284248000128ISOCOAT TINTAS E VERNIZES LTDA                                        0000000034100000000000000000000000000000895189830000002456588190056254        201211162012100200000000055190000365668000000000376393000000000000000000000000010725050000000000  3020121127   01          2                                                                                   3112456588196077430121200019                                                  N                     01321  0000000        000157
12069284248000128ISOCOAT TINTAS E VERNIZES LTDA                                        0000000034100000000000000000000000000000841061040000002182507930052085        201209172012070200000000054590000236130000000000280860000000000000000000000000044730050000000000  3020121127   01          2                                                                                   3112182507932077430121200019                                                  N                     01321  0000000        000158
12069284248000128ISOCOAT TINTAS E VERNIZES LTDA                                        0000000034100000000000000000000000000000888732960000002421485720055761        201211202012092100000000055230000093324000000000095067000000000000000000000000001743050000000000  3020121127   01          2                                                                                   3112421485726077430121200069                                                  N                     01321  0000000        000159
12069284248000128ISOCOAT TINTAS E VERNIZES LTDA                                        0000000034100000000000000000000000000000900522900000002477686970056631        201211262012101000000000055290000365668000000000366643000000000000000000000000000975050000000000  3020121127   01          2                                                                                   3112477686979077430121200019                                                  N                     01321  0000000        000160
12075483040000130REX MAQUINAS E EQUIPAMENTOS LT                                        0000000023702656500000000000701 000000008729530000202248000040781776 2 3      201211232012083100000000055260000434000000000000436169000000000000000000000000002892050000000000  3020121126   05          3  RUA  GANGES  528                                                                 3                         000000000000000                                     N                     00598  0000000        000161
12081560047000101ACEVILLE TRANSPORTES LTDA                                             000000000330000000000000000000000000000092654656000000800000000291008         201212072012112600000000055400000041000000000000041000000000000000000000000000000000050000000000  3020121207   01FS        1                                                                                   3913555200000002910080010179                                                  N                     01321  0000000        000162
12096500087000135WORKBENCH CONSULTORIA S S LTDA                                        0000000034100000000000000000000000000000878205840000007940034283118           201209272012090300000000054690000131746000000000147545000000000000000000000000015799050000000000  3020121127   01          2                                                                                   3157940034289826313803700089                                                  N                     01321  0000000        000163
900016400000000065052415                                                                                                                                                                                                                                                                                                                                                                                                                                                                01321  0000000        000164
