0000147602043799295000110ALTAMIRA INDUSTRIA METALURGICA LT       202000000201720121227214436             3                                                                                                  000000000000000                                                                                                                                                                                                                                                                                   000001
12062539994000176LEALFER INDUSTRIA E COMERCIO D                                        0000000003300000 0000000000000  I000000000010356000000000000000               201212270000000000000000055600000768826000000000768826000000000000000000000000000000010000058924  3120121227   02BW        5000000               000000000000000                                               3915298380000000300756010439               58924/01                           N                     01132 10020256        000002
11258214076000072CELSO BERNARDO DA CRUZ E OU   R PE DONIZETI TAVARES LIMA 274          0240410023700092200000000430196 I000000000010360000000000000000               201212270000000000000000000000000000000000000000030000000000000000000000000000000000010000122012  0120121227   02BW        5000000               000000000000000                                               3                                          REF.12/2012                        N                     01321 20020256        000003
12012739954000108RODOLFO CESAR LARESE                                                  0000000023701427300000000019003 I000000000010359009023330000029               201212270000000000000000055600000067312000000000067312000000000000000000000000000000010000006144  3120121227   02BW        5000000               000000000000000                                               3142709233300000290001900019               6144                               N                     01079 10020256        000004
12009137729000189MULTI RECEBIVEIS II FUNDO DE I                                        0000000023703369300000000044253 000000009294901500902334000003414980 1        201212272012112700000000055600000103788000000000103788000000000000000000000000000000050000000000  3020121227   02BW        2000000               000000000000000      ANHEMBI INDUSTRIA DE CAIXAS DE PAPELAO O 3                         043292101000196  14980                              N                     01079 10020256        000005
12046178828000135RAPIDO LONDON S A                                                     0000000023703391P00000001061615 0000000092757539009000000023489304708         201212272012112700000000055600000013566000000000013566000000000000000000000000000000050000000000  3020121227   02BW        2000000               000000000000000                                               3                         000000000000000  304708                             N                     01079 10020256        000006
12035820448000136WHITE MARTINS GASES INDUSTRIAI                                        0000000023700026400000003937925 0000000093033536009023350002160415194 001     201212272012113000000000055600000056805000000000056805000000000000000000000000000000050000000000  3020121227   02BW        2000000               000000000000000                                               3                         000000000000000  9554                               N                     01079 10020256        000007
12014978305000187MOGI FILME INDUSTRIA E COMERCI                                        0000000023700402200000001055003 0000000092757542009023320000016498            201212272012112700000000055600000073215000000000073215000000000000000000000000000000050000000000  3020121227   02BW        2000000               000000000000000                                               3                         000000000000000  498                                N                     01079 10020256        000008
12061217188000119TELAS METALICAS TELMETAL LTDA                                         0000000000100000000000000000000000000000931455130000000059890006073 1 3       201212272012113000000000055600000101141000000000101141000000000000000000000000000000050000000000  3020121227   02BW        2000000               000000000000000                                               3000000115031800000059891779               6073/01-03                         N                     01132 10020256        000009
12061217188000119TELAS METALICAS TELMETAL LTDA                                         0000000000100000000000000000000000000000931455100000000059860006072 1 3       201212272012113000000000055600000014287000000000014287000000000000000000000000000000050000000000  3020121227   02BW        2000000               000000000000000                                               3000000115031800000059861779               6072/01-03.                        N                     01132 10020256        000010
12061217188000119TELAS METALICAS TELMETAL LTDA                                         0000000034100000000000000000000000000000925640560000009000000175999 2 3       201212272012112200000000055600000069094000000000069094000000000000000000000000000000050000000000  3020121227   02BW        2000000               000000000000000                                               3109000000172077099894600019               5999/02-03                         N                     01132 10020256        000011
12007988026000139POINTER DIST DE PROD ELET LTDA                                        0000000034100000000000000000000000000000931455180000002634742006013           201212272012113000000000055600000029829000000000029829000000000000000000000000000000050000000000  3020121227   02BW        2000000               000000000000000                                               3112634742004077084107000019               6013                               N                     01132 10020256        000012
12001895314000162COLETA INDUSTRIAL FIMAVAN LTDA                                        00000000341000000000000000000000000000009420498100000090023730513396          201212272012121700000000055600000103671000000000103671000000000000000000000000000000050000000000  3020121227   02BW        2000000               000000000000000                                               3109002373057144604097200099               13396                              N                     01132 10020256        000013
12064952757000168WALMAC COM DE PROD QUIMICOS LT                                        0000000034100000000000000000000000000000896979520000002462157560021611        201212272012100400000000055600000219266000000000219266000000000000000000000000000000050000000000  3020121227   02BW        2000000               000000000000000                                               3112462157564064807961400059               021611                             N                     01132 10020256        000014
12005151518000140BELENUS DO BRASIL LTDA                                                000000000330000000000000000000000000000089697934000000740000000R131115432     201212242012092500000000055570000096000000000000096951000000000000000000000000001902050000000000  3020121227   02BW        2000000               000000000000000                                               3918381050000000435074010489               131115432                          N                     01132 10020256        000015
12005151518000140BELENUS DO BRASIL LTDA                                                000000000330000000000000000000000000000089697937000000310000000R131165832     201212252012092600000000055580000094080000000000094700000000000000000000000000000930050000000000  3020121227   02BW        2000000               000000000000000                                               3918381050000000445231010419               131165832                          N                     01132 10020256        000016
12069284248000128ISOCOAT TINTAS E VERNIZES LTDA                                        0000000034100000 0000000000000  I000000000010357000000000000000               201212270000000000000000055600000320608000000000320608000000000000000000000000000000010000056631  3120121227   02BW        5000000               000000000000000                                               3181607913752077430121200099               56631                              N                     01132 10020256        000017
12013656578000142GUARINOR TRANSP E LOGISTICA LT                                        000000001040000000000000000000000000000094562134000000001787100002536 12      201212272012120700000000055600000062812000000000062812000000000000000000000000000000050000000000  3020121227   02BW        2000000               000000000000000                                               3900000178732958700000017379               09140                              N                     01132 10020256        000018
12004643290000142FLEXTINTAS IND  E COM  LTDA                                           0000000034100000 0000000000000  I000000000010358000000000000000               201212270000000000000000055600000355082000000000355082000000000000000000000000000000010000039158  3120121227   02BW        5000000               000000000000000                                               3181607146187051356781800019               039158/A                           N                     01132 10020256        000019
12096500087000135WORKBENCH CONSULTORIA S S LTDA                                        0000000034100000000000000000000000000000944954680000007097980233279           201212272012122100000000055600000131746000000000131746000000000000000000000000000000050000000000  3020121227   02BW        2000000               000000000000000                                               3157097980235826313803700039               3279                               N                     01132 10020256        000020
12010839055000143IDEAL   GESTAO DE NEGOCIOS LTD                                        000000000010000000000000000000000000000094008694000000133562000SAO 138981     201212272012121300000000055600000330000000000000330000000000000000000000000000000000050000000000  3020121227   02BW        2000000               000000000000000      RODOVIARIO GOYAZ LTDA                    3000000169889600001335621779               RODOV.GOYAZ - 866904               N                     01132 10020256        000021
900002200000000003042699                                                                                                                                                                                    000000000000000                                                                                                                                                                                                                                                    00002001056350003011128        000022
