0000147602043799295000110ALTAMIRA INDUSTRIA METALURGICA LT       202000000184320120827214159             3                                                                                                  000000000000000                                                                                                                                                                                                                                                                                   000001
12000288916000199VB SERVICOS COM ADM LTDA                                              0000000003300000 0000000000000  I000000000009639000000000000000               201209070000000000000000054490000648621000000000648621000000000000000000000000000000050005614974  3120120827   02BW        5000000               000000000000000                                               3119130442690030259000337879               5614974                            N                     01132 10020256        000002
12017469701000177ARCELORMITTAL BRASIL S A                                              0000000034100000 0000000000000  I000000000009641000000000000000               201208270000000000000000054380000064113000000000064113000000000000000000000000000000010000126447  3120120827   02BW        5000000               000000000000000                                               3181530013130293802529900019               0126447/03                         N                     01132 10020256        000003
12061217188000119TELAS METALICAS TELMETAL LTDA                                         0000000000100000 0000000000000  I000000000009642000000000000000               201208270000000000000000054380000052975000000000052975000000000000000000000000000000010000005358  3120120827   02BW        5000000               000000000000000                                               3000000115031800000055501739               5358/02-03.                        N                     01132 10020256        000004
12075483040000130REX MAQ E EQUIPAMENTOS LTDA                                           0000000023702656500000000000701 I000000000009640002022160000320               201208270000000000000000054380000503182000000000503182000000000000000000000000000000010000078261  3120120827   02BW        5000000               000000000000000                                               3265602221600003200000070019               78261/2-1                          N                     01079 10020256        000005
900000600000000001268891                                                                                                                                                                                    000000000000000                                                                                                                                                                                                                                                    00000400217630001268891        000006
