0000147602043799295000110ALTAMIRA IND METALURGICA LTDA           20100454000002012072716403500000        2    230A                                                                                          000000000000000                                                                                                                                                                                                                                                                                   000001
12003277412000161MAC LUZ COML ELETRICA LTDA                                            000000003410000000000000000000000000000083482036000000215254593000006565B     201207270000000000000000054070000018121000000000018121000000000000000000000000000000050000000000  3020120727   01MFBUHA    500                                                                                 3112152545938007486592400019010000       0006565/02                           N                     00000 10020256        000002
12005151518000140BELENUS DO BRASIL LTDA                                                0000000023703389800000000015091 0000000083945275009021860002351R128108012     201207260000000000000000054060000748800000000000751271000000000000000000000000002471050000000000  3020120727   01MFBUHA    500RUA GANGES  528                                                                  3010000                   000000000000000000281080/01                         N                     00000 10020256        000003
12061217188000119TELAS METALICAS TELMETAL LTDA                                         0000000034100000000000000000000000000000840313220000009000028585224 1 1       201207270000000000000000054070000016336000000000016336000000000000000000000000000000050000000000  3020120727   01MFBUHA    500                                                                                 3109000028582077098123100019010000       0005224/01                           N                     00000 10020256        000004
12048775225000146SEIKI IND COM E CONFECCOES LTD                                        000000003410000000000000000000000000000084106103000000218400271012915001      201207270000000000000000054070000052000000000000052000000000000000000000000000000000050000000000  3020120727   01MFBUHA    500                                                                                 3112184002718017444824100079010000       00012915                             N                     00000 10020256        000005
12012256386000186TOP TRAD SERVICOS DE TEXTOS LT                                        0000000023700200300000001062603 00000000850740710090132195025722735           201207270000000000000000054070000024800000000000024800000000000000000000000000000000050000000000  3020120727   01MFBUHA    500R TAMANDE 1410                                                                   3010000                   0000000000000000002735                              N                     00000 10020256        000006
12000288916000199VB SERVICOS COM ADM LTDA      RUA  VITORIA  211   SL 01               0652920003300000 0000000000000  I000000000009268000000000000000               201208070000000000000000054180000902124000000000902124000000000000000000000000000000050005552086  3120120727   01HA        000                                                                                 3119130442690030259000337899             00VB.SERV.COM.                       N                     00000 10020256        000007
12047190731000100DE CASTRO LOUREIRO ENGENHARIA                                         0000000042200000 0000000000000  I000000000009269000000000000000               201207270000000000000000054070000256313000000000256313000000000000000000000000000000010000025894  3120120727   01HA        000                                                                                 3709700002021396491400241169             00025894/01                          N                     00000 10020256        000008
12042956441000101SOLUCOES EM ACO USIMINAS S A  RUA  DIANOPOLIS  670 710                0312510000100000 0000000000000  I000000000009270000000000000000               201207270000000000000000054070000614009000000000614009000000000000000000000000000000010000166812  3120120727   01HA        000                                                                                 3000000169660100000865431729             000166812/                           N                     00000 10020256        000009
12042956441000101SOLUCOES EM ACO USIMINAS S A  RUA  DIANOPOLIS  670 710                0312510000100000 0000000000000  I000000000009271000000000000000               201207270000000000000000054070000581811000000000581811000000000000000000000000000000010000166827  3120120727   01HA        000                                                                                 3000000169660100000865581719             000166827/01                         N                     00000 10020256        000010
12042956441000101SOLUCOES EM ACO USIMINAS S A  RUA  DIANOPOLIS  670 710                0312510034100000 0000000000000  I000000000009272000000000000000               201207270000000000000000054070000563488000000000563488000000000000000000000000000000010000160746  3120120727   01HA        000                                                                                 3181512777971293807258000099             000160746/02                         N                     00000 10020256        000011
12042956441000101SOLUCOES EM ACO USIMINAS S A  RUA  DIANOPOLIS  670 710                0312510000100000 0000000000000  I000000000009273000000000000000               201207270000000000000000054070000320296000000000320296000000000000000000000000000000010000166814  3120120727   01HA        000                                                                                 3000000169660100000865491749             000166814/01                         N                     00000 10020256        000012
12003659166002407INST BRAS MEIO AMBIENTE REC NASAS QDA 05 LOTE 05 BLOCO H 4 AND        7007001400100000 0000000000000  I000000000009274000000000000000               201207270000000000000000054070000048119000000000048119000000000000000000000000000000050000000204  3120120727   01HA        000                                                                                 3958408000000000198005032129             00IBAMA - PARC.02/04 - EXERCICIO/2012N                     00000 10020256        000013
900001400000000004148688                                                                                                                                                                                    000000000000000                                                                                                                                                                                                                                                    00001200648940004146217        000014
