0000147602043799295000110ALTAMIRA INDUSTRIA METALURGICA LT       202000000011420120828060648             1                                                                                                                                                                                                                                                                                                                                                                                                    000001
12001784706000154TRANSPORTES WARTHA LTDA                                               0000000023701775200000000260010 0000000086961106009022400000331SAO2612751     201209172012082700000000054590000430000000000000430000000000000000000000000000000000050000000000  3020120917   01FS        1  R  GANGES  528                                                                   3                         000000000000000                                     N                     00598  0000000        000002
12001951865000104FOUR FACTORING FOMENTO M LTDA                                         000000004220000000000000000000000000000085861626000000000000000188 A          201208232012080200000000054340000145000000000000147414000000000000000000000000002414050000000000  3020120828   01          2                                                                                   3702000009214741499752368119                                                  N                     01321  0000000        000003
12001951865000104FOUR FACTORING FOMENTO M LTDA                                         000000004220000000000000000000000000000086040341000000000000000193A           201208272012080600000000054380000145000000000000145482000000000000000000000000000482050000000000  3020120828   01          2                                                                                   3702000009214741910473285169                                                  N                     01321  0000000        000004
12003489596000123BEND FLEX INDUSTRIA E COMERCIO                                        000000001040000000000000000000000000000086961107000000241364000607            201209072012081000000000054490000405000000000000405000000000000000000000000000000000050000000000  3020120910   01FS        1                                                                                   3314224136411558700000019999                                                  N                     01321  0000000        000005
12003489596000123BEND FLEX I COMERCIO LTDA                                             000000003410000000000000000000000000000086961105000000792607528615            201209212012082300000000054630000582750000000000582750000000000000000000000000000000050000000000  3020120921   01FS        1                                                                                   3157926075280157734445800069                                                  N                     01321  0000000        000006
12003746938000143STAPLES BRASIL COM DE MAT DE E                                        0000000023703394400000000368008 0000000085074069002000000797375460605 1       201208222012072300000000054330000032373000000000035934000000000000000000000000003561050000000000  3020120828   01          2  RUA GANGES VILA CARRAO VILA CARRAO                                               3                         000000000000000                                     N                     00598  0000000        000007
12005044228000105TRIARC COM S METAIS USINADOS                                          000000003410000000000000000000000000000085404957000000788988941677            201208222012073000000000054330000006800000000000006878000000000000000000000000000078050000000000  3020120828   01          2                                                                                   3157889889412076157868100069                                                  N                     01321  0000000        000008
12005044228000105TRIARC COM S METAIS USINADOS                                          000000003410000000000000000000000000000085404958000000788989596237 S          201208222012073000000000054330000040000000000000040474000000000000000000000000000474050000000000  3020120828   01          2                                                                                   3157889895963076157868100019                                                  N                     01321  0000000        000009
12005151518000140BELENUS DO BRASIL LTDA                                                0000000023703389800000000015091 0000000083945276009021860002352R128108022     201208252012062600000000054360000576000000000000581703000000000000000000000000005703050000000000  3020120828   01          2  RUA GANGES  528                                                                  3                         000000000000000                                     N                     00598  0000000        000010
12005753978000148HUMAN SERVICOS PARA COMUNICACA                                        0000000003300000000000000000000000000000858616590000008900000000000098289     201208202012080200000000054310000013000000000000013294000000000000000000000000000294050000000000  3020120828   01          2                                                                                   3936028260000000098289010119                                                  N                     01321  0000000        000011
12005852768000107DAOUD LEAL ELETRONICA LTDA ME                                         00000000033000000000000000000000000000008619603100000050000000000000000001097 201208262012080900000000054370000016558000000000016999000000000000000000000000000441050000000000  3020120828   01          2                                                                                   3949927090000000026050010479                                                  N                     01321  0000000        000012
12005915831000107PALETES SATELITE COM LTDA ME                                          000000003410000000000000000000000000000085959067000000901798000NF  1798       201208232012080200000000054340000045000000000000046500000000000000000000000000001500050000000000  3020120828   01          2                                                                                   3109017980008144648966600039                                                  N                     01321  0000000        000013
12006000195000156M B A MERCANTIL BRASILEIRA DE                                         0000000023700118P00000002128292 00000000869611080090220100000100008907B01     201208182012071900000000054290000566157000000000566157000000000000000000000000000000050000000000  3020120828   01FS        1  RUA JUNO  533                                                                    3                         000000000000000                                     N                     00598  0000000        000014
12006000195000156M B A MERCANTIL BRASILEIRA DE                                         0000000023700118P00000002130599 00000000853154980020220900000440008967B01     201208232012072400000000054340000135605000000000136735000000000000000000000000001130050000000000  3020120828   01          2  RUA JUNO  533                                                                    3                         000000000000000                                     N                     00598  0000000        000015
12006000195000156M B A MERCANTIL BRASILEIRA DE                                         0000000023700118P00000002130599 00000000853155100020220900000700008987B01     201208232012072500000000054340000216623000000000218428000000000000000000000000001805050000000000  3020120828   01          2  RUA JUNO  533                                                                    3                         000000000000000                                     N                     00598  0000000        000016
12006000195000156MBA MERCANTIL BRAS DE ACO LTDA                                        0000000034100000000000000000000000000000848957210000008667238520008876B01     201208172012071900000000054280000810321000000000813144000000000000000000000000003387050000000000  3020120822   05          3                                                                                   3458667238521064849251000099                                                  N                     01321  0000000        000017
12006000195000156MBA MERCANTIL BRAS DE ACO LTDA                                        0000000034100000000000000000000000000000850740660000008671394750008925B01     201208172012072000000000054280000719580000000000723022000000000000000000000000003933050000000000  3020120824   05          3                                                                                   3458671394757064849251000019                                                  N                     01321  0000000        000018
12006000195000156MBA MERCANTIL BRAS DE ACO LTDA                                        0000000034100000000000000000000000000000850740670000008671394760008926B01     201208172012072000000000054280000387716000000000389571000000000000000000000000002120050000000000  3020120824   05          3                                                                                   3458671394765064849251000029                                                  N                     01321  0000000        000019
12007175725000160WEG EQUIPAMENTOS ELETRICOS SA                                         0000000023702727800000000196800 00000000815444390090214500004510095359901     201208212012052300000000054320000272787000000000275328000000000000000000000000002541050000000000  3020120828   01          2  R JUNO  533                                                                      3                         000000000000000                                     N                     00598  0000000        000020
12007477577000138HD LUB COMERCIO DE LUBRIFICANT                                        00000000033000000000000000000000000000008595907000000052000000036494 1        201208212012072400000000054320000045871000000000046998000000000000000000000000001127050000000000  3020120828   01          2                                                                                   3916643440000000270652010119                                                  N                     01321  0000000        000021
12009338857000190FERNANDO  NAGAO  CARDONE  ALVA                                        000000000330000000000000000000000000000085959071000000430000000REEM 07 2012   201208102012072600000000054210000024134000000000025671000000000000000000000000001537050000000000  3020120828   01          2                                                                                   3947901700000051047543010139                                                  N                     01321  0000000        000022
12010543507000145MAJOR CORTEZ CONFECCAO E COMER                                        000000003410000000000000000000000000000085315495000000614041210157            201208222012072700000000054330000053000000000000053624000000000000000000000000000624050000000000  3020120828   01          2                                                                                   3156140412101074662673800029                                                  N                     01321  0000000        000023
12012006058000121WEG TINTAS LTDA                                                       0000000023702727800000000001309 00000000824820170090216300000890014374203     201208222012060800000000054330000459992000000000463670000000000000000000000000003678050000000000  3020120828   01          2  R JUNO  533                                                                      3                         000000000000000                                     N                     00598  0000000        000024
12012006058000121WEG TINTAS LTDA                                                       0000000023702727800000000001309 00000000827244630090216600000720014454803     201208272012061300000000054380000306662000000000307070000000000000000000000000000408050000000000  3020120828   01          2  R JUNO  533                                                                      3                         000000000000000                                     N                     00598  0000000        000025
12012006058000121WEG TINTAS LTDA                                                       0000000023702727800000000001309 00000000833069150090217700001080014685602     201208212012062200000000054320000459854000000000464145000000000000000000000000004291050000000000  3020120828   01          2  R JUNO  533                                                                      3                         000000000000000                                     N                     00598  0000000        000026
12012006058000121WEG TINTAS LTDA                                                       0000000023702727800000000001309 00000000834820630090217900000750014773902     201208252012062600000000054360000306569000000000307793000000000000000000000000001224050000000000  3020120828   01          2  R JUNO  533                                                                      3                         000000000000000                                     N                     00598  0000000        000027
12012006058000121WEG TINTAS LTDA                                                       0000000023702727800000000001309 00000000842436820090219200000840015068801     201208232012070900000000054340000306569000000000308609000000000000000000000000002040050000000000  3020120828   01          2  R JUNO  533                                                                      3                         000000000000000                                     N                     00598  0000000        000028
12012006058000121WEG TINTAS LTDA                                                       0000000023702727800000000001309 00000000844839220090219500000710015168701     201208262012071200000000054370000306569000000000307385000000000000000000000000000816050000000000  3020120828   01          2  R JUNO  533                                                                      3                         000000000000000                                     N                     00598  0000000        000029
12014309992000148WEG DRIVES   CONTROLS   AUTOMA                                        0000000023702727800000000001872 00000000852309230090220800002970008379601     201208232012072400000000054340000107136000000000107846000000000000000000000000000710050000000000  3020120828   01          2  R JUNO  533                                                                      3                         000000000000000                                     N                     00598  0000000        000030
12014309992000148WEG DRIVES   CONTROLS   AUTOMA                                        0000000023702727800000000001872 00000000816237730090214600002430004866102     201208232012042500000000054340000027620000000000027800000000000000000000000000000180050000000000  3020120828   01          2  R JUNO  533                                                                      3                         000000000000000                                     N                     00598  0000000        000031
12014775592000128HELIO ADRIANO DA SILVA ME                                             0000000003300000000000000000000000000000861207320000000300000008330           201208242012080800000000054350000020000000000000020480000000000000000000000000000480050000000000  3020120828   01          2                                                                                   3956114740000000000003010119                                                  N                     01321  0000000        000032
12035820448000136WHITE MARTINS GASES INDUSTRIAI                                        0000000023700026400000003937925 0000000085230921009022080002695355448 001     201208212012072600000000054320000085176000000000087677000000000000000000000000002501050000000000  3020120828   01          2  RUA GANGES  528                                                                  3                         000000000000000                                     N                     00598  0000000        000033
12035820448000136WHITE MARTINS GASES INDUSTRIAI                                        0000000023700026400000003937925 0000000085315496009022090010244358059 001     201208232012072700000000054340000017600000000000018067000000000000000000000000000467050000000000  3020120828   01          2  RUA GANGES  528                                                                  3                         000000000000000                                     N                     00598  0000000        000034
12035820448000136WHITE MARTINS GASES INDUSTRIAI                                        0000000023700026400000003937925 0000000085315497009022090011903358519 001     201208232012072700000000054340000056805000000000058321000000000000000000000000001516050000000000  3020120828   01          2  RUA GANGES  528                                                                  3                         000000000000000                                     N                     00598  0000000        000035
12042956441000101SOLUCOES ACO USIMINAS                                                 0000000034100000000000000000000000000000815444290000002057933630016097103     201208162012052200000000054270000260199000000000265919000000000000000000000000006240050000000000  3020120827   06          3                                                                                   3112057933635293807258000019                                                  N                     01321  0000000        000036
12042956441000101SOLUCOES ACO USIMINAS                                                 0000000034100000000000000000000000000000815444300000002057933640016097203     201208162012052200000000054270000366589000000000374652000000000000000000000000008796050000000000  3020120827   06          3                                                                                   3112057933643293807258000019                                                  N                     01321  0000000        000037
12042956441000101SOLUCOES ACO USIMINAS                                                 0000000034100000000000000000000000000000853154920000002246247010017197301     201208232012072500000000054340000970394000000000980099000000000000000000000000009705050000000000  3020120828   01          2                                                                                   3112246247012293807258000019                                                  N                     01321  0000000        000038
12042956441000101SOLUCOES ACO USIMINAS                                                 0000000034100000000000000000000000000000821491050000002088005890016301003     201208242012053100000000054350000195531000000000197095000000000000000000000000001564050000000000  3020120828   01          2                                                                                   3112088005890293807258000089                                                  N                     01321  0000000        000039
12042956441000101SOLUCOES ACO USIMINAS                                                 0000000034100000000000000000000000000000821491060000002088005900016301203     201208242012053100000000054350000382590000000000385650000000000000000000000000003060050000000000  3020120828   01          2                                                                                   3112088005908293807258000039                                                  N                     01321  0000000        000040
12042956441000101SOLUCOES ACO USIMINAS                                                 0000000034100000000000000000000000000000818681040000002074813160016189503     201208202012052800000000054310000570858000000000579994000000000000000000000000009136050000000000  3020120828   01          2                                                                                   3112074813166293807258000039                                                  N                     01321  0000000        000041
12042956441000101SOLUCOES ACO USIMINAS                                                 0000000034100000000000000000000000000000818681050000002074813170016189703     201208202012052800000000054310000245667000000000249595000000000000000000000000003928050000000000  3020120828   01          2                                                                                   3112074813174293807258000019                                                  N                     01321  0000000        000042
12042956441000101SOLUCOES ACO USIMINAS                                                 0000000034100000000000000000000000000000818681060000002074813180016190003     201208202012052800000000054310000339714000000000345146000000000000000000000000005432050000000000  3020120828   01          2                                                                                   3112074813182293807258000059                                                  N                     01321  0000000        000043
12042956441000101SOLUCOES ACO USIMINAS                                                 0000000034100000000000000000000000000000818681070000002074813190016190203     201208202012052800000000054310000723515000000000735091000000000000000000000000011576050000000000  3020120828   01          2                                                                                   3112074813190293807258000079                                                  N                     01321  0000000        000044
12042956441000101SOLUCOES ACO USIMINAS                                                 0000000034100000000000000000000000000000818681090000002074813200016190303     201208202012052800000000054310000449705000000000456897000000000000000000000000007192050000000000  3020120828   01          2                                                                                   3112074813208293807258000049                                                  N                     01321  0000000        000045
12042956441000101SOLUCOES ACO USIMINAS                                                 0000000034100000000000000000000000000000819544980000002078930810016228203     201208212012052900000000054320000169598000000000171971000000000000000000000000002373050000000000  3020120828   01          2                                                                                   3112078930818293807258000099                                                  N                     01321  0000000        000046
12042956441000101SOLUCOES ACO USIMINAS                                                 0000000034100000000000000000000000000000819545000000002078930820016228303     201208212012052900000000054320000577774000000000585866000000000000000000000000008092050000000000  3020120828   01          2                                                                                   3112078930826293807258000099                                                  N                     01321  0000000        000047
12042956441000101SOLUCOES ACO USIMINAS                                                 0000000034100000000000000000000000000000819545010000002078930830016228403     201208212012052900000000054320000188456000000000191095000000000000000000000000002639050000000000  3020120828   01          2                                                                                   3112078930834293807258000079                                                  N                     01321  0000000        000048
12042956441000101SOLUCOES ACO USIMINAS                                                 0000000034100000000000000000000000000000853154890000002246246990017196601     201208232012072500000000054340000805049000000000813099000000000000000000000000008050050000000000  3020120828   01          2                                                                                   3112246246998293807258000059                                                  N                     01321  0000000        000049
12042956441000101SOLUCOES ACO USIMINAS                                                 0000000034100000000000000000000000000000819545020000002078930840016239503     201208222012052900000000054330001126072000000001139584000000000000000000000000013512050000000000  3020120828   01          2                                                                                   3112078930842293807258000019                                                  N                     01321  0000000        000050
12042956441000101SOLUCOES ACO USIMINAS                                                 0000000034100000000000000000000000000000850740410000002233586750017101001     201208172012071900000000054280000732795000000000748921000000000000000000000000016126050000000000  3020120828   01          2                                                                                   3112233586752293807258000099                                                  N                     01321  0000000        000051
12042956441000101SOLUCOES ACO USIMINAS                                                 0000000034100000000000000000000000000000850740420000002233586760017101201     201208172012071900000000054280000144677000000000147856000000000000000000000000003179050000000000  3020120828   01          2                                                                                   3112233586760293807258000079                                                  N                     01321  0000000        000052
12042956441000101SOLUCOES ACO USIMINAS                                                 0000000034100000000000000000000000000000850740430000002233586770017126901     201208202012072000000000054310000208455000000000211791000000000000000000000000003336050000000000  3020120828   01          2                                                                                   3112233586778293807258000039                                                  N                     01321  0000000        000053
12042956441000101SOLUCOES ACO USIMINAS                                                 0000000034100000000000000000000000000000850740440000002233586780017127001     201208202012072000000000054310000190485000000000193533000000000000000000000000003048050000000000  3020120828   01          2                                                                                   3112233586786293807258000019                                                  N                     01321  0000000        000054
12042956441000101SOLUCOES ACO USIMINAS                                                 0000000034100000000000000000000000000000850740450000002233586790017127101     201208202012072000000000054310000167777000000000170465000000000000000000000000002688050000000000  3020120828   01          2                                                                                   3112233586794293807258000029                                                  N                     01321  0000000        000055
12042956441000101SOLUCOES ACO USIMINAS                                                 0000000034100000000000000000000000000000850740460000002233586800017127201     201208202012072000000000054310000137881000000000140089000000000000000000000000002208050000000000  3020120828   01          2                                                                                   3112233586802293807258000019                                                  N                     01321  0000000        000056
12042956441000101SOLUCOES ACO USIMINAS                                                 0000000034100000000000000000000000000000853154910000002246247000017196701     201208232012072500000000054340000234911000000000237261000000000000000000000000002350050000000000  3020120828   01          2                                                                                   3112246247004293807258000019                                                  N                     01321  0000000        000057
12043217850000159IOB INFORMACOES OBJ  PUBL JURI                                        0000000023702374400000002958600 000000008540495200902212000099001440820E4     201208202012073000000000054310000072850000000000074499000000000000000000000000001649050000000000  3020120828   01          2  GANGES 528 VL NOVA MANCHESTER                                                    3                         000000000000000                                     N                     00598  0000000        000058
12051180370000199IGUAFER FERRO E ACO LTDA                                              0000000034100000000000000000000000000000852309090000002239389779443 A         201208232012071800000000054340000201933000000000203618000000000000000000000000001685050000000000  3020120828   01          2                                                                                   3112239389771077149484600099                                                  N                     01321  0000000        000059
12056993900000131CIA METALURGICA PRADA                                                 0000000034100000000000000000000000000000820562300000002080193680024478203     201208222012053000000000054330000113250000000000114384000000000000000000000000001134050000000000  3020120828   01          2                                                                                   3112080193686293800573900049                                                  N                     01321  0000000        000060
12056993900000131CIA METALURGICA PRADA                                                 0000000034100000000000000000000000000000820562310000002080193690024478303     201208222012053000000000054330000288295000000000291175000000000000000000000000002880050000000000  3020120828   01          2                                                                                   3112080193694293800573900029                                                  N                     01321  0000000        000061
12056993900000131CIA METALURGICA PRADA                                                 0000000034100000000000000000000000000000820562320000002080193700024499403     201208222012053000000000054330000597722000000000603698000000000000000000000000005976050000000000  3020120828   01          2                                                                                   3112080193702293800573900019                                                  N                     01321  0000000        000062
12056993900000131CIA METALURGICA PRADA                                                 0000000034100000000000000000000000000000820562330000002080193710024499503     201208222012053000000000054330000236585000000000238949000000000000000000000000002364050000000000  3020120828   01          2                                                                                   3112080193710293800573900019                                                  N                     01321  0000000        000063
12056993900000131CIA METALURGICA PRADA                                                 0000000034100000000000000000000000000000821491000000002084501930024572503     201208232012053100000000054340000217291000000000219101000000000000000000000000001810050000000000  3020120828   01          2                                                                                   3112084501934293800573900039                                                  N                     01321  0000000        000064
12056993900000131CIA METALURGICA PRADA                                                 0000000034100000000000000000000000000000822364960000002089776740024585703     201208242012060100000000054350000393990000000000396618000000000000000000000000002628050000000000  3020120828   01          2                                                                                   3112089776747293800573900059                                                  N                     01321  0000000        000065
12056993900000131CIA METALURGICA PRADA                                                 0000000034100000000000000000000000000000818680900000002072574790024401603     201208202012052800000000054310000869421000000000881013000000000000000000000000011592050000000000  3020120828   01          2                                                                                   3112072574794293800573900019                                                  N                     01321  0000000        000066
12056993900000131CIA METALURGICA PRADA                                                 0000000034100000000000000000000000000000822364950000002089776730024584703     201208242012060100000000054350000835797000000000841369000000000000000000000000005572050000000000  3020120828   01          2                                                                                   3112089776739293800573900019                                                  N                     01321  0000000        000067
12056993900000131CIA METALURGICA PRADA                                                 0000000034100000000000000000000000000000823343300000002094231730024634103     201208272012060400000000054380000135902000000000136129000000000000000000000000000227050000000000  3020120828   01          2                                                                                   3112094231738293800573900079                                                  N                     01321  0000000        000068
12056993900000131CIA METALURGICA PRADA                                                 0000000034100000000000000000000000000000823343310000002094231740024634203     201208272012060400000000054380000247806000000000248219000000000000000000000000000413050000000000  3020120828   01          2                                                                                   3112094231746293800573900019                                                  N                     01321  0000000        000069
12056993900000131CIA METALURGICA PRADA                                                 0000000034100000000000000000000000000000823343330000002094231750024634603     201208272012060400000000054380000124715000000000124923000000000000000000000000000208050000000000  3020120828   01          2                                                                                   3112094231753293800573900039                                                  N                     01321  0000000        000070
12056993900000131CIA METALURGICA PRADA                                                 0000000034100000000000000000000000000000823343350000002094231770024634803     201208272012060400000000054380000264511000000000264952000000000000000000000000000441050000000000  3020120828   01          2                                                                                   3112094231779293800573900089                                                  N                     01321  0000000        000071
12056993900000131CIA METALURGICA PRADA                                                 0000000034100000000000000000000000000000823343340000002094231760024634703     201208272012060400000000054380000508859000000000509707000000000000000000000000000848050000000000  3020120828   01          2                                                                                   3112094231761293800573900019                                                  N                     01321  0000000        000072
12056993900000131CIA METALURGICA PRADA                                                 0000000034100000000000000000000000000000820562380000002081819580024446403     201208212012052900000000054320000200709000000000203054000000000000000000000000002345050000000000  3020120828   01          2                                                                                   3112081819586293800573900049                                                  N                     01321  0000000        000073
12057158057000130COMERCIAL ELETRICA PJ LTDA                                            0000000023703394400000000972983 00000000858616570090221900002850000312326     201208272012073000000000054380000076707000000000076962000000000000000000000000000255050000000000  3020120828   01          2  R TAMAINDE 1410                                                                  3                         000000000000000                                     N                     00598  0000000        000074
12057158057000130COMERCIAL ELETRICA PJ LTDA                                            0000000023703394400000000972983 00000000842436850090219200008900000305028     201208012012070400000000054120000079196000000000086297000000000000000000000000007101050000000000  3020120828   01          2  R TAMAINDE 1410                                                                  3                         000000000000000                                     N                     00598  0000000        000075
12057196081000164MINELE COMERCIO DE PARAFUSOS L                                        0000000023700298400000002047470 0000000086961109009022400000008538            201209102012082700000000054520000035981000000000035981000000000000000000000000000000050000000000  3020120910   01FS        1  R  GANGES  528   VL CARRAO                                                       3                         000000000000000                                     N                     00598  0000000        000076
12061085866000137COMERCIO DE FERRAGENS A C L LT                                        0000000023700475800000000385662 000000008595906900400475842019516999 12       201208222012072400000000054330000027500000000000027662000000000000000000000000000162050000000000  3020120828   01          2  RUA GANGES 528 SP                                                                3                         000000000000000                                     N                     00598  0000000        000077
12061217188000119TELAS METALICAS TELMETAL LTDA                                         0000000000100000000000000000000000000000852309050000000055640005371 2 3       201208272012072500000000054380000069964000000000070151000000000000000000000000000187050000000000  3020120828   01          2                                                                                   3000000115031800000055641769                                                  N                     01321  0000000        000078
12065000655000105HILTI DO BRASIL COMERCIAL LTDA                                        0000000023703396000000000243787 00000000854049530090221200002670002106001     201208262012072700000000054370000029613000000000029731000000000000000000000000000118050000000000  3020120828   01          2  RUA TAMAINDE 1410                                                                3                         000000000000000                                     N                     00598  0000000        000079
12075483040000130REX MAQUINAS E EQUIPAMENTOS LT                                        0000000023702656500000000000701 000000008577186300202216000032078261 2 1      201208232012072600000000054340000499850000000000503182000000000000000000000000004165050000000000  3020120827   06          3  RUA  GANGES  528                                                                 3                         000000000000000                                     N                     00598  0000000        000080
12092693118000160BRADESCO SAUDE S A                                                    0000000023700448000000001533991 00000000847452120050100745572410000000000     201208202012071700000000054310000645861000000000649189000000000000000000000000003328050000000000  3020120828   01          2                                                                                   3                         000000000000000                                     N                     00598  0000000        000081
12096500087000135WORKBENCH CONSULTORIA S S LTDA                                        0000000034100000000000000000000000000000857718620000007898134153064           201208272012080300000000054380000131746000000000132005000000000000000000000000000259050000000000  3020120828   01          2                                                                                   3157898134156826313803700079                                                  N                     01321  0000000        000082
900008300000000024464206                                                                                                                                                                                                                                                                                                                                                                                                                                                                01321  0000000        000083
