0000147602043799295000110ALTAMIRA IND METALURGICA LTDA           20100483000002012082817170100000        2    230A                                                                                          000000000000000                                                                                                                                                                                                                                                                                   000001
12002558199000101OMEGA TUBOS COMERCIAL LTDA                                            0000000003300000000000000000000000000000846595830000003000000000026380B03     201208280000000000000000054390000256050000000000256050000000000000000000000000000000050000000000  3020120828   01MFBUHA    500                                                                                 3947509770000000088730020379010000       00026380/03                          N                     00000 10020256        000002
12069034668000156SODEXO PASS BRASIL SERV COM SAAL ARAGUAIA  1142 BL 03                 0645500034100000 0000000000000  I000000000009645000000000000000               201209220000000000000000054640000395970000000000395970000000000000000000000000000000010001221881  3120120828   01HA        000                                                                                 3109217304795293801455800019             0012/1221881                         N                     00000 10020256        000003
12069284248000128ISOCOAT TINTAS E VERNIZES LTDARUA  COM GIUSEPPE MARCHIORI  2189       1814700034100000 0000000000000  I000000000009646000000000000000               201208280000000000000000054390000128681000000000128681000000000000000000000000000000010000051735  3120120828   01HA        000                                                                                 3181530901031077430121200089             00051735/                            N                     00000 10020256        000004
12042956441000101SOLUCOES EM ACO USIMINAS S A  RUA  DIANOPOLIS  670 710                0312510034100000 0000000000000  I000000000009647000000000000000               201208280000000000000000054390000748921000000000748921000000000000000000000000000000010000171010  3120120828   01HA        000                                                                                 3181530781302293807258000029             000171010/01                         N                     00000 10020256        000005
12042956441000101SOLUCOES EM ACO USIMINAS S A  RUA  DIANOPOLIS  670 710                0312510034100000 0000000000000  I000000000009648000000000000000               201208280000000000000000054390000711510000000000711510000000000000000000000000000000010000160751  3120120828   01HA        000                                                                                 3181530774794293807258000019             000160751/03                         N                     00000 10020256        000006
12042956441000101SOLUCOES EM ACO USIMINAS S A  RUA  DIANOPOLIS  670 710                0312510034100000 0000000000000  I000000000009649000000000000000               201208280000000000000000054390000147856000000000147856000000000000000000000000000000010000017101  3120120828   01HA        000                                                                                 3181530769851293807258000019             000171012/01                         N                     00000 10020256        000007
12047190731000100DE CASTRO LOUREIRO ENGENHARIA                                         0000000042200000 0000000000000  I000000000009650000000000000000               201208280000000000000000054390000258529000000000258529000000000000000000000000000000010000025894  3120120828   01HA        000                                                                                 3709700002021396491400250119             0025894/02                           N                     00000 10020256        000008
12066899790000105FAB ART DE LATEX ESTR EP LTDA ROD QUINTINO DE LIMA KM 08              1813000039900000 0000000000000  I000000000009651000000000000000               201208280000000000000000054390000250357000000000250357000000000000000000000000000000010000072773  3120120828   01HA        000                                                                                 3175513042801125027292500159             0072773/02                           N                     00000 10020256        000009
12060732997000104UNIFISA ADM  NACIONAL DE CONS CALCADA ALDEBARAN 161 CENTRO DE APOIO 2 0654105523703390100000000086606 I000000000009652009011224113142               201208280000000000000000054390000120478000000000120478000000000000000000000000000000050000000086  3120120828   01HA        000                                                                                 3339009112241131420008660069             00GRUPO.618 - PARC.024/42.           N                     00000 10020256        000010
12060732997000104UNIFISA ADM  NACIONAL DE CONS CALCADA ALDEBARAN 161 CENTRO DE APOIO 2 0654105523703390100000000086606 I000000000009653009011224113141               201208280000000000000000054390000120478000000000120478000000000000000000000000000000010000000037  3120120828   01HA        000                                                                                 3339009112241131410008660089             00GRUPO.615 - PARC.024/42.           N                     00000 10020256        000011
12011202309000180FIEL TOOLS DISTRIB DE MAQ FERRESTRADA SANTA ISABEL  3242              0859900023702087700000000000116 I000000000009654028000020186262               201208280000000000000000054390000042730000000000042730000000000000000000000000000000010000008626  3120120828   01HA        000                                                                                 3208728000201862620000011019             0008626/01                           N                     00000 10020256        000012
12042956441000101SOLUCOES EM ACO USIMINAS S A  RUA  DIANOPOLIS  670 710                0312510034100000 0000000000000  I000000000009655000000000000000               201208280000000000000000054390000344093000000000344093000000000000000000000000000000010000160747  3120120828   01HA        000                                                                                 3181531202332293807258000059             000160747/03                         N                     00000 10020256        000013
12042956441000101SOLUCOES EM ACO USIMINAS S A  RUA  DIANOPOLIS  670 710                0312510034100000 0000000000000  I000000000009656000000000000000               201208280000000000000000054390000735091000000000735091000000000000000000000000000000010000161902  3120120828   01HA        000                                                                                 3181531198886293807258000089             000161902/03                         N                     00000 10020256        000014
12042956441000101SOLUCOES EM ACO USIMINAS S A  RUA  DIANOPOLIS  670 710                0312510034100000 0000000000000  I000000000009657000000000000000               201208280000000000000000054390000709449000000000709449000000000000000000000000000000010000160933  3120120828   01HA        000                                                                                 3181531200112293807258000029             000160933/03                         N                     00000 10020256        000015
900001600000000004970193                                                                                                                                                                                    000000000000000                                                                                                                                                                                                                                                    00001400761710004970193        000016
