0000147602043799295000110ALTAMIRA INDUSTRIA METALURGICA LT       202000000017620121128060347             1                                                                                                                                                                                                                                                                                                                                                                                                    000001
12001784706000154TRANSPORTES WARTHA LTDA                                               0000000023701775200000000260010 0000000092757543009022990000155SAO2681491     201211192012102500000000055220000070000000000000071512000000000000000000000000001512050000000000  3020121128   01FS        1  R  GANGES  528                                                                   3                         000000000000000                                     N                     00598  0000000        000002
12001784706000154TRANSPORTES WARTHA LTDA                                               0000000023701775200000000260010 0000000090751880009022990000155SAO2681491     201211192012102500000000055220000070000000000000070000000000000000000000000000000000050000000000  3020121119   05          3  R  GANGES  528                                                                   3                         000000000000000                                     N                     00598  0000000        000003
12001852612000175BT EQUIPAMENTOS INDUSTRIAIS LT                                        000000000330000000000000000000000000000090920339000000300000000051476 1       201211152012101800000000055180000050484000000000052198000000000000000000000000001763050000000000  3020121119   05          3                                                                                   3913651000000003010430010459                                                  N                     01321  0000000        000004
12001895314000162COLETA INDUSTRIAL FIMAVAN LTDA                                        0000000034100000000000000000000000000000866992070000009002335349439           201208272012081700000000054380000123695000000000156766000000000000000000000000033071050000000000  3020121128   01          2                                                                                   3109002335346144604097200019                                                  N                     01321  0000000        000005
12003102481000134AB5 IND E COMERCIO LTDA EPP                                           0000000034100000000000000000000000000000909203330000009000042483169           201211202012102300000000055230000119250000000000120842000000000000000000000000001592050000000000  3020121128   01          2                                                                                   3109000042489003154755700039                                                  N                     01321  0000000        000006
12003489596000123BEND FLEX I COMERCIO LTDA                                             000000003410000000000000000000000000000088599899000000171434574613            201209172012081600000000054590000585000000000000667872000000000000000000000000082872050000000000  3020121128   01          2                                                                                   3191714345748157734445800019                                                  N                     01321  0000000        000007
12003489596000123BEND FLEX I COMERCIO LTDA                                             000000003410000000000000000000000000000088350832000000171879874608            201209122012082100000000054540000695250000000000800509000000000000000000000000105259050000000000  3020121128   01          2                                                                                   3191718798744157734445800069                                                  N                     01321  0000000        000008
12004030090000114YNAUT VIDAL CURSOS E PALESTRAS                                        00000000104000000000000000000000000000009203845900000000100200000000000998    201211212012111300000000055240000090000000000000090000000000000000000000000000000000050000000000  3020121121   05          3                                                                                   3248797700010004000001002549                                                  N                     01321  0000000        000009
12004882911000140F C BRITO CARTUCHOS ME                                                00000000033000000000000000000000000000009174140400000029000000014860 A21      201211212012102400000000055240000039945000000000042046000000000000000000000000002101050000000000  3020121128   01          2                                                                                   3944753720000000109029010119                                                  N                     01321  0000000        000010
12005151518000140BELENUS DO BRASIL LTDA                                                000000000010000000000000000000000000000089605039000000358106000R131268322     201211272012100400000000055300000078720000000000078980000000000000000000000000000260050000000000  3020121128   01          2                                                                                   3000000123933844123581063129                                                  N                     01321  0000000        000011
12005151518000140BELENUS DO BRASIL LTDA                                                000000000330000000000000000000000000000091026582000000100000000R132008212     201211222012102300000000055250000599040000000000610900000000000000000000000000011860050000000000  3020121128   01          2                                                                                   3918381050000000498610010479                                                  N                     01321  0000000        000012
12005151518000140BELENUS DO BRASIL LTDA                                                000000000010000000000000000000000000000090666246000000256133000R131917012     201211182012102300000000055210000599040000000000599040000000000000000000000000000000050000000000  3020121119   05          3                                                                                   3000000123933844172561333129                                                  N                     01321  0000000        000013
12005214618000178VISION GESTAO EMP E FOM MERCAN                                        0000000023700088400000000730084 0000000092757541002000880017158000259         201301042012112600000000055680001000000000000001000000000000000000000000000000000000050000000000  3020130104   01FS        1  RUA TAMAINDE  1410  VILA NOVA MANCHESTERCORREA MONTAGENS INDUSTRIAIS LTDA   EPP  3                         012711129000197                                     N                     00598  0000000        000014
12005880850000145NEDERMAN BRASIL COM PROD EX LT                                        000000003410000000000000000000000000000086373178000000614350956002763 A       201209252012081400000000054670000289674000000000326154000000000000000000000000036480050000000000  3020121128   01          2                                                                                   3156143509568160829000100049                                                  N                     01321  0000000        000015
12006000195000156MBA MERCANTIL BRAS DE ACO LTDA                                        0000000034100000000000000000000000000000887698090000001671394550008925B02     201209142012071700000000054560000719581000000000825706000000000000000000000000106125050000000000  3020121128   01          2                                                                                   3191671394556064849251000089                                                  N                     01321  0000000        000016
12006000195000156MBA MERCANTIL BRAS DE ACO LTDA                                        0000000034100000000000000000000000000000887698100000001671394560008926B02     201209142012071700000000054560000387716000000000444941000000000000000000000000057225050000000000  3020121128   01          2                                                                                   3191671394564064849251000019                                                  N                     01321  0000000        000017
12006000195000156MBA MERCANTIL BRAS DE ACO LTDA                                        0000000034100000000000000000000000000000904173140000001667238290008874B03     201210112012071600000000054830000802825000000000878617000000000000000000000000075792050000000000  3020121128   01          2                                                                                   3191667238296064849251000069                                                  N                     01321  0000000        000018
12006000195000156MBA MERCANTIL BRAS DE ACO LTDA                                        0000000034100000000000000000000000000000889578520000001671394540008920B02     201209162012071700000000054580000576585000000000659367000000000000000000000000082782050000000000  3020121128   01          2                                                                                   3191671394549064849251000099                                                  N                     01321  0000000        000019
12006000195000156MBA MERCANTIL BRAS DE ACO LTDA                                        0000000034100000000000000000000000000000904173150000001667238300008870B03     201210092012071600000000054810000839951000000000922551000000000000000000000000082600050000000000  3020121128   01          2                                                                                   3191667238304064849251000039                                                  N                     01321  0000000        000020
12006000195000156MBA MERCANTIL BRAS DE ACO LTDA                                        0000000034100000000000000000000000000000904173160000001667238280008876B03     201210122012071600000000054840000810320000000000885238000000000000000000000000074918050000000000  3020121128   01          2                                                                                   3191667238288064849251000079                                                  N                     01321  0000000        000021
12006000195000156MBA MERCANTIL BRAS DE ACO LTDA                                        0000000034100000000000000000000000000000904173170000001671394420008925B03     201210122012071700000000054840000719580000000000786085000000000000000000000000066505050000000000  3020121128   01          2                                                                                   3191671394424064849251000069                                                  N                     01321  0000000        000022
12006000195000156MBA MERCANTIL BRAS DE ACO LTDA                                        0000000034100000000000000000000000000000904173180000001671394430008926B03     201210122012071700000000054840000387716000000000423577000000000000000000000000035861050000000000  3020121128   01          2                                                                                   3191671394432064849251000079                                                  N                     01321  0000000        000023
12006000195000156M B A MERCANTIL BRASILEIRA DE                                         0000000023700118P00000002130599 00000000848180770020220100000340008905B03     201210112012071900000000054830000155300000000000167732000000000000000000000000012432050000000000  3020121128   01          2  RUA JUNO  533                                                                    3                         000000000000000                                     N                     00598  0000000        000024
12006000195000156MBA MERCANTIL BRAS DE ACO LTDA                                        0000000034100000000000000000000000000000906662670000001671394410008920B03     201210142012071700000000054860000576584000000000627614000000000000000000000000051030050000000000  3020121128   01          2                                                                                   3191671394416064849251000039                                                  N                     01321  0000000        000025
12006000195000156M B A MERCANTIL BRASILEIRA DE                                         0000000023700118P00000002130599 00000000865388260020222900000470009204B02     201210112012081500000000054830000127292000000000137468000000000000000000000000010176050000000000  3020121128   01          2  RUA JUNO  533                                                                    3                         000000000000000                                     N                     00598  0000000        000026
12006000195000156M B A MERCANTIL BRASILEIRA DE                                         0000000023700118P00000002130599 00000000865388290020222900000500009205B02     201210122012081500000000054840000348964000000000376318000000000000000000000000027354050000000000  3020121128   01          2  RUA JUNO  533                                                                    3                         000000000000000                                     N                     00598  0000000        000027
12006000195000156M B A MERCANTIL BRASILEIRA DE                                         0000000023700118P00000002130599 00000000865388320020222900000530009206B02     201210132012081500000000054850000527560000000000567994000000000000000000000000040434050000000000  3020121128   01          2  RUA JUNO  533                                                                    3                         000000000000000                                     N                     00598  0000000        000028
12006000195000156M B A MERCANTIL BRASILEIRA DE                                         0000000023700118P00000002130599 00000000868592690020223600000020009229B02     201210112012081600000000054830000253414000000000273670000000000000000000000000020256050000000000  3020121128   01          2  RUA JUNO  533                                                                    3                         000000000000000                                     N                     00598  0000000        000029
12006000195000156MBA MERCANTIL BRAS DE ACO LTDA                                        0000000034100000000000000000000000000000885998980000001667238420008870B02     201209112012071600000000054530000839952000000000968808000000000000000000000000128856050000000000  3020121128   01          2                                                                                   3191667238429064849251000039                                                  N                     01321  0000000        000030
12006209559000102MAZURKY IND COM EMB LTDA                                              000000003410000000000000000000000000000090751876000000252039993010684 2       201211192012101500000000055220000092263000000000092263000000000000000000000000000000050000000000  3020121119   06          3                                                                                   3112520399935151434240900019                                                  N                     01321  0000000        000031
12008272923000104P SANTOS ESQUADRARIAS METAL ME                                        0000000034100000000000000000000000000000896979550000006153947641850           201211222012100800000000055250000400000000000000414402000000000000000000000000014402050000000000  3020121128   01          2                                                                                   3156153947640160141951600039                                                  N                     01321  0000000        000032
12008879248000186FREFER METAL PLUS                                                     000000003410000000000000000000000000000090751878000000251738778EPI024022A     201211202012102300000000055230000998338000000001007424000000000000000000000000010384050000000000  3020121127   06          3                                                                                   3112517387786293811346700099                                                  N                     01321  0000000        000033
12009034654000291STEEL PRODUCTS DO BRASIL LTDA                                         0000000000100000000000000000000000000000914718910000005529180002470 1 3       201211232012110500000000055260000132000000000000135965000000000000000000000000003965050000000000  3020121128   01          2                                                                                   3000000221373244205529181169                                                  N                     01321  0000000        000034
12009338857000190FERNANDO  NAGAO  CARDONE  ALVA                                        000000000330000000000000000000000000000089697936000000800000000ALTA 10 2012   201210202012092500000000054920000134632000000000151734000000000000000000000000017102050000000000  3020121128   01          2                                                                                   3947901700000051050080010129                                                  N                     01321  0000000        000035
12009338857000190FERNANDO  NAGAO  CARDONE  ALVA                                        000000000330000000000000000000000000000091653176000000300000000ALTA 11 2012   201211202012103000000000055230000134632000000000139210000000000000000000000000004578050000000000  3020121128   01          2                                                                                   3947901700000051051630010119                                                  N                     01321  0000000        000036
12012006058000121WEG TINTAS LTDA                                                       0000000023702727800000000001309 00000000870177500090224100000990016248003     201211102012082700000000055130000306662000000000314006000000000000000000000000007344050000000000  3020121128   01          2  R JUNO  533                                                                      3                         000000000000000                                     N                     00598  0000000        000037
12012006058000121WEG TINTAS LTDA                                                       0000000023702727800000000001309 00000000872318660090224700001040016359602     201210302012083100000000055020000459854000000000477631000000000000000000000000017777050000000000  3020121128   01          2  R JUNO  533                                                                      3                         000000000000000                                     N                     00598  0000000        000038
12012006058000121WEG TINTAS LTDA                                                       0000000023702727800000000001309 00000000872318670090224700001050016359603     201211142012083100000000055170000459992000000000468574000000000000000000000000008582050000000000  3020121128   01          2  R JUNO  533                                                                      3                         000000000000000                                     N                     00598  0000000        000039
12012006058000121WEG TINTAS LTDA                                                       0000000023702727800000000001309 00000000882668420090225800000750016626902     201211122012091300000000055150000459854000000000469662000000000000000000000000009808050000000000  3020121128   01          2  R JUNO  533                                                                      3                         000000000000000                                     N                     00598  0000000        000040
12012006058000121WEG TINTAS LTDA                                                       0000000023702727800000000001309 00000000882668430090225800000760016626903     201211272012091300000000055300000459992000000000460605000000000000000000000000000613050000000000  3020121128   01          2  R JUNO  533                                                                      3                         000000000000000                                     N                     00598  0000000        000041
12012006058000121WEG TINTAS LTDA                                                       0000000023702727800000000001309 00000000878206050090225400000790016517202     201211052012090600000000055080000459854000000000473953000000000000000000000000014099050000000000  3020121128   01          2  R JUNO  533                                                                      3                         000000000000000                                     N                     00598  0000000        000042
12012006058000121WEG TINTAS LTDA                                                       0000000023702727800000000001309 00000000878206060090225400000800016517203     201211202012090600000000055230000459992000000000464896000000000000000000000000004904050000000000  3020121128   01          2  R JUNO  533                                                                      3                         000000000000000                                     N                     00598  0000000        000043
12012006058000121WEG TINTAS LTDA                                                       0000000023702727800000000001309 00000000868126360090223500001190016086603     201211042012082100000000055070000306662000000000316454000000000000000000000000009792050000000000  3020121128   01          2  R JUNO  533                                                                      3                         000000000000000                                     N                     00598  0000000        000044
12013823915000149UNICA ACOS E HIDRAULICA LTDA                                          000000003410000000000000000000000000000092654647000000260893527655 A          201212032012112300000000055360000021780000000000021780000000000000000000000000000000050000000000  3020121203   05          3                                                                                   3112608935279007493690700099                                                  N                     01321  0000000        000045
12014978305000187MOGI FILME INDUSTRIA E COMERCI                                        0000000023700402200000001055003 0000000092757542009023320000016498            201212272012112700000000055600000073215000000000073215000000000000000000000000000000050000000000  3020121227   01FS        1  RUA TAMAINDE 1410 VL NOVA MANCHESTER                                             3                         000000000000000                                     N                     00598  0000000        000046
12015251825000156JOSEFA A LIMA DOS SANTOS EPP                                          0000000034100000000000000000000000000000927575400000007057302701737           201212252012112700000000055580000013970000000000013970000000000000000000000000000000050000000000  3020121226   01FS        1                                                                                   3157057302707810513909400029                                                  N                     01321  0000000        000047
12033325184001786ALSCO TOALHEIRO BRASIL                                                0000000023703396000000001490850 0000000091741401009000002787905VM27879        201211212012110100000000055240000037363000000000037622000000000000000000000000000259050000000000  3020121128   01          2  RUA  GANGES 528                                                                  3                         000000000000000                                     N                     00598  0000000        000048
12042956441000101SOLUCOES ACO USIMINAS                                                 0000000034100000000000000000000000000000855028760000002254329470017220503     201211192012072700000000055220000981022000000000996718000000000000000000000000017658050000000000  3020121127   06          3                                                                                   3112254329470293807258000019                                                  N                     01321  0000000        000049
12042956441000101SOLUCOES ACO USIMINAS                                                 0000000034100000000000000000000000000000850740460000002233586800017127201     201208202012072000000000054310000137881000000000165481000000000000000000000000027600050000000000  3020121128   01          2                                                                                   3112233586802293807258000019                                                  N                     01321  0000000        000050
12042956441000101SOLUCOES ACO USIMINAS                                                 0000000034100000000000000000000000000000846595700000002210880280016980502     201209102012071200000000054520000156071000000000180719000000000000000000000000024648050000000000  3020121128   01          2                                                                                   3112210880285293807258000039                                                  N                     01321  0000000        000051
12042956441000101SOLUCOES ACO USIMINAS                                                 0000000034100000000000000000000000000000846595710000002210880290016980602     201209102012071200000000054520000426094000000000493402000000000000000000000000067308050000000000  3020121128   01          2                                                                                   3112210880293293807258000019                                                  N                     01321  0000000        000052
12042956441000101SOLUCOES ACO USIMINAS                                                 0000000034100000000000000000000000000000847452070000002216130350005922202     201209102012071600000000054520000172071000000000199247000000000000000000000000027176050000000000  3020121128   01          2                                                                                   3112216130354293807258000049                                                  N                     01321  0000000        000053
12042956441000101SOLUCOES ACO USIMINAS                                                 0000000034100000000000000000000000000000847452100000002216130340017012402     201209102012071500000000054520000147428000000000170733000000000000000000000000023305050000000000  3020121128   01          2                                                                                   3112216130347293807258000059                                                  N                     01321  0000000        000054
12042956441000101SOLUCOES ACO USIMINAS                                                 0000000034100000000000000000000000000000848180700000002220192900017041002     201209112012071700000000054530000155433000000000179691000000000000000000000000024258050000000000  3020121128   01          2                                                                                   3112220192903293807258000029                                                  N                     01321  0000000        000055
12042956441000101SOLUCOES ACO USIMINAS                                                 0000000034100000000000000000000000000000848180710000002220192910017041202     201209112012071700000000054530000205421000000000237479000000000000000000000000032058050000000000  3020121128   01          2                                                                                   3112220192911293807258000019                                                  N                     01321  0000000        000056
12042956441000101SOLUCOES ACO USIMINAS                                                 0000000034100000000000000000000000000000850740470000002233586810017101002     201209142012071900000000054560000732575000000000842450000000000000000000000000109875050000000000  3020121128   01          2                                                                                   3112233586810293807258000019                                                  N                     01321  0000000        000057
12042956441000101SOLUCOES ACO USIMINAS                                                 0000000034100000000000000000000000000000850740480000002233586820017101202     201209142012071900000000054560000144634000000000166309000000000000000000000000021675050000000000  3020121128   01          2                                                                                   3112233586828293807258000029                                                  N                     01321  0000000        000058
12042956441000101SOLUCOES ACO USIMINAS                                                 0000000034100000000000000000000000000000855028690000002254329380017212902     201209212012072600000000054630000140098000000000159138000000000000000000000000019040050000000000  3020121128   01          2                                                                                   3112254329389293807258000019                                                  N                     01321  0000000        000059
12042956441000101SOLUCOES ACO USIMINAS                                                 0000000034100000000000000000000000000000853154840000002246247030017196702     201209202012072500000000054620000234841000000000267271000000000000000000000000032430050000000000  3020121128   01          2                                                                                   3112246247038293807258000099                                                  N                     01321  0000000        000060
12042956441000101SOLUCOES ACO USIMINAS                                                 0000000034100000000000000000000000000000853154850000002246247040017197302     201209202012072500000000054620000970103000000001103963000000000000000000000000133860050000000000  3020121128   01          2                                                                                   3112246247046293807258000019                                                  N                     01321  0000000        000061
12042956441000101SOLUCOES ACO USIMINAS                                                 0000000034100000000000000000000000000000853154860000002246247050017196603     201211192012072500000000055220000804807000000000819297000000000000000000000000014490050000000000  3020121128   01          2                                                                                   3112246247053293807258000059                                                  N                     01321  0000000        000062
12042956441000101SOLUCOES ACO USIMINAS                                                 0000000034100000000000000000000000000000853154880000002246247070017197303     201211192012072500000000055220000970103000000000987563000000000000000000000000017460050000000000  3020121128   01          2                                                                                   3112246247079293807258000059                                                  N                     01321  0000000        000063
12042956441000101SOLUCOES ACO USIMINAS                                                 0000000034100000000000000000000000000000855028700000002254329390017213002     201209212012072600000000054630000140602000000000159710000000000000000000000000019108050000000000  3020121128   01          2                                                                                   3112254329397293807258000089                                                  N                     01321  0000000        000064
12042956441000101SOLUCOES ACO USIMINAS                                                 0000000034100000000000000000000000000000855028770000002254329400017220502     201209212012072700000000054630000981022000000001114438000000000000000000000000133416050000000000  3020121128   01          2                                                                                   3112254329405293807258000099                                                  N                     01321  0000000        000065
12042956441000101SOLUCOES ACO USIMINAS                                                 0000000034100000000000000000000000000000855028780000002254329410017200203     201211192012072600000000055220000680385000000000692634000000000000000000000000012249050000000000  3020121128   01          2                                                                                   3112254329413293807258000089                                                  N                     01321  0000000        000066
12042956441000101SOLUCOES ACO USIMINAS                                                 0000000034100000000000000000000000000000856906410000002262886280017266201     201208282012073000000000054390000119472000000000141460000000000000000000000000021988050000000000  3020121128   01          2                                                                                   3112262886289293807258000089                                                  N                     01321  0000000        000067
12042956441000101SOLUCOES ACO USIMINAS                                                 0000000034100000000000000000000000000000856906420000002262886290017266301     201208282012073000000000054390000145069000000000171749000000000000000000000000026680050000000000  3020121128   01          2                                                                                   3112262886297293807258000099                                                  N                     01321  0000000        000068
12042956441000101SOLUCOES ACO USIMINAS                                                 0000000034100000000000000000000000000000858616470000002271409830017315103     201211262012080200000000055290000579374000000000581692000000000000000000000000002318050000000000  3020121128   01          2                                                                                   3112271409834293807258000089                                                  N                     01321  0000000        000069
12042956441000101SOLUCOES ACO USIMINAS                                                 0000000034100000000000000000000000000000858616480000002271409840017316003     201211262012080200000000055290000929451000000000933169000000000000000000000000003718050000000000  3020121128   01          2                                                                                   3112271409842293807258000079                                                  N                     01321  0000000        000070
12042956441000101SOLUCOES ACO USIMINAS                                                 0000000034100000000000000000000000000000858616490000002271409850017319303     201211262012080200000000055290000981526000000000985452000000000000000000000000003926050000000000  3020121128   01          2                                                                                   3112271409859293807258000039                                                  N                     01321  0000000        000071
12042956441000101SOLUCOES ACO USIMINAS                                                 0000000034100000000000000000000000000000858616500000002271409860017319403     201211262012080200000000055290000178902000000000179618000000000000000000000000000716050000000000  3020121128   01          2                                                                                   3112271409867293807258000059                                                  N                     01321  0000000        000072
12042956441000101SOLUCOES ACO USIMINAS                                                 0000000034100000000000000000000000000000858616510000002271409900017319803     201211262012080200000000055290000194524000000000195302000000000000000000000000000778050000000000  3020121128   01          2                                                                                   3112271409909293807258000029                                                  N                     01321  0000000        000073
12042956441000101SOLUCOES ACO USIMINAS                                                 0000000034100000000000000000000000000000858616520000002271409870017319503     201211262012080200000000055290000197381000000000198171000000000000000000000000000790050000000000  3020121128   01          2                                                                                   3112271409875293807258000049                                                  N                     01321  0000000        000074
12042956441000101SOLUCOES ACO USIMINAS                                                 0000000034100000000000000000000000000000858616530000002271409880017319603     201211262012080200000000055290000197045000000000197833000000000000000000000000000788050000000000  3020121128   01          2                                                                                   3112271409883293807258000079                                                  N                     01321  0000000        000075
12042956441000101SOLUCOES ACO USIMINAS                                                 0000000034100000000000000000000000000000858616540000002271409890017319703     201211262012080200000000055290000197213000000000198001000000000000000000000000000788050000000000  3020121128   01          2                                                                                   3112271409891293807258000019                                                  N                     01321  0000000        000076
12042956441000101SOLUCOES ACO USIMINAS                                                 0000000034100000000000000000000000000000859590620000002274469790017353702     201209282012080300000000054700000081053000000000090935000000000000000000000000009882050000000000  3020121128   01          2                                                                                   3112274469793293807258000069                                                  N                     01321  0000000        000077
12042956441000101SOLUCOES ACO USIMINAS                                                 0000000034100000000000000000000000000000859590640000002274469810017353703     201211262012080300000000055290000081052000000000081376000000000000000000000000000324050000000000  3020121128   01          2                                                                                   3112274469819293807258000019                                                  N                     01321  0000000        000078
12042956441000101SOLUCOES ACO USIMINAS                                                 0000000034100000000000000000000000000000859590660000002274469820017353803     201211262012080300000000055290000166997000000000167665000000000000000000000000000668050000000000  3020121128   01          2                                                                                   3112274469827293807258000059                                                  N                     01321  0000000        000079
12043555887000197RENATO GONCALVES                                                      000000000010000000000000000000000000000088599909000000680407000308C           201211202012092000000000055230000191400000000000191400000000000000000000000000000000050000000000  3020121120   05          3                                                                                   3000000104260650156804071179                                                  N                     01321  0000000        000080
12045635984000115CRIFER LAMINADOS ACO FERRO LTD                                        0000000034100000000000000000000000000000909203340000009000268640035771E01     201211212012102400000000055240000454608000000000460971000000000000000000000000006363050000000000  3020121128   01          2                                                                                   3109000268640005630080900099                                                  N                     01321  0000000        000081
12045987005000198D PASCHOAL AUTOMOTIVA LTDA                                            0000000023702002800000000147001 00000000886866610110000000171660000000036     201211192012091900000000055220000032500000000000033528000000000000000000000000001028050000000000  3020121128   01          2  R   TAMAINDE                       01410                                         3                         000000000000000                                     N                     00598  0000000        000082
12046178828000135RAPIDO LONDON S A                                                     0000000023703391P00000001061615 0000000092757539009000000023489304708         201212272012112700000000055600000013566000000000013566000000000000000000000000000000050000000000  3020121227   01FS        1  RUA TAMAINDE  1410                                                               3                         000000000000000                                     N                     00598  0000000        000083
12047190731000100DE CASTRO LOUR ENG IND LTDA                                           00000000341000000000000000000000000000008782059500000023602714703026734 0     201211272012082800000000055300000997834000000000999796000000000000000000000000001962050000000000  3020121128   01          2                                                                                   3112360271475036884500400019                                                  N                     01321  0000000        000084
12047190731000100DE CASTRO LOUR ENG IND LTDA                                           00000000341000000000000000000000000000008782052200000023399955403026632 0     201211212012082200000000055240000952073000000000965177000000000000000000000000013104050000000000  3020121128   01          2                                                                                   3112339995543036884500400099                                                  N                     01321  0000000        000085
12047190731000100DE CASTRO LOUR ENG IND LTDA                                           00000000341000000000000000000000000000008782052000000023399955303026632 0     201209192012082200000000054610000952073000000001083113000000000000000000000000131040050000000000  3020121128   01          2                                                                                   3112339995535036884500400019                                                  N                     01321  0000000        000086
12047190731000100DE CASTRO LOUR ENG IND LTDA                                           00000000341000000000000000000000000000008782051200000023399953803026613 0     201209182012082100000000054600001107989000000001262698000000000000000000000000154709050000000000  3020121128   01          2                                                                                   3112339995386036884500400039                                                  N                     01321  0000000        000087
12047190731000100DE CASTRO LOUR ENG IND LTDA                                           00000000341000000000000000000000000000008782051300000023399953903026613 0     201211202012082100000000055230001107989000000001125421000000000000000000000000017432050000000000  3020121128   01          2                                                                                   3112339995394036884500400019                                                  N                     01321  0000000        000088
12047190731000100DE CASTRO LOUR ENG IND LTDA                                           00000000341000000000000000000000000000008782051500000023399953603026612 0     201211202012082100000000055230001111489000000001128977000000000000000000000000017488050000000000  3020121128   01          2                                                                                   3112339995360036884500400079                                                  N                     01321  0000000        000089
12047190731000100DE CASTRO LOUR ENG IND LTDA                                           00000000341000000000000000000000000000008782051600000023399954103026614 0     201209182012082100000000054600001047621000000001193881000000000000000000000000146260050000000000  3020121128   01          2                                                                                   3112339995410036884500400039                                                  N                     01321  0000000        000090
12047190731000100DE CASTRO LOUR ENG IND LTDA                                           00000000341000000000000000000000000000008782051700000023399954203026614 0     201211202012082100000000055230001047621000000001064101000000000000000000000000016480050000000000  3020121128   01          2                                                                                   3112339995428036884500400079                                                  N                     01321  0000000        000091
12047190731000100DE CASTRO LOUR ENG IND LTDA                                           00000000341000000000000000000000000000008782051800000023399955703026636 0     201211212012082200000000055240000940804000000000953754000000000000000000000000012950050000000000  3020121128   01          2                                                                                   3112339995576036884500400019                                                  N                     01321  0000000        000092
12047190731000100DE CASTRO LOUR ENG IND LTDA                                           00000000341000000000000000000000000000008782052100000023399955903026643 0     201209202012082300000000054620000867039000000000984684000000000000000000000000117645050000000000  3020121128   01          2                                                                                   3112339995592036884500400049                                                  N                     01321  0000000        000093
12047190731000100DE CASTRO LOUR ENG IND LTDA                                           00000000341000000000000000000000000000008782050900000023399953503026612 0     201209182012082100000000054600001111489000000001266695000000000000000000000000155206050000000000  3020121128   01          2                                                                                   3112339995352036884500400019                                                  N                     01321  0000000        000094
12047190731000100DE CASTRO LOUR ENG IND LTDA                                           00000000341000000000000000000000000000008782052400000023399956003026643 0     201211222012082300000000055250000867039000000000877269000000000000000000000000010230050000000000  3020121128   01          2                                                                                   3112339995600036884500400069                                                  N                     01321  0000000        000095
12047190731000100DE CASTRO LOUR ENG IND LTDA                                           00000000341000000000000000000000000000008782052500000023399955603026636 0     201209192012082200000000054610000940804000000001070304000000000000000000000000129500050000000000  3020121128   01          2                                                                                   3112339995568036884500400049                                                  N                     01321  0000000        000096
12047190731000100DE CASTRO LOUR ENG IND LTDA                                           00000000341000000000000000000000000000008782052700000023399956203026648 0     201209202012082300000000054620000976053000000001108533000000000000000000000000132480050000000000  3020121128   01          2                                                                                   3112339995626036884500400029                                                  N                     01321  0000000        000097
12047190731000100DE CASTRO LOUR ENG IND LTDA                                           00000000341000000000000000000000000000008782052800000023399956303026648 0     201211222012082300000000055250000976053000000000987573000000000000000000000000011520050000000000  3020121128   01          2                                                                                   3112339995634036884500400019                                                  N                     01321  0000000        000098
12047190731000100DE CASTRO LOUREIRO ENGENHARIA                                         00000000033000000000000000000000000000009102658900000046000000003027425 0     201211272012102900000000055300001192683000000001216537000000000000000000000000023854050000000000  3020121128   01          2                                                                                   3948430370000009555846020369                                                  N                     01321  0000000        000099
12047190731000100DE CASTRO LOUREIRO ENGENHARIA                                         0000000023703394400000000205508 000000008801225500202255000001403026794 0     201211262012090300000000055290001209490000000001213522000000000000000000000000004032050000000000  3020121128   01          2  RUA JUNO  533                                                                    3                         000000000000000                                     N                     00598  0000000        000100
12047190731000100DE CASTRO LOUREIRO ENGENHARIA                                         00000000033000000000000000000000000000008782053700000061000000003026669 0     201209212012082400000000054630000867738000000000885093000000000000000000000000017355050000000000  3020120924   05          3                                                                                   3948430370000009552561020329                                                  N                     01321  0000000        000101
12048775225000146SEIKI IND COM E CONFECCOES LTD                                        000000003410000000000000000000000000000089337376000000244697151014914001      201210232012092500000000054950000052000000000000054808000000000000000000000000002808050000000000  3020121128   01          2                                                                                   3112446971510017444824100089                                                  N                     01321  0000000        000102
12051180370000199IGUAFER FERRO E ACO LTDA                                              0000000034100000000000000000000000000000852309100000002239389789443 B         201209022012071800000000054440000168275000000000192635000000000000000000000000024360050000000000  3020121128   01          2                                                                                   3112239389789077149484600089                                                  N                     01321  0000000        000103
12051180370000199IGUAFER FERRO E ACO LTDA                                              0000000034100000000000000000000000000000852309110000002239389799443 C         201209122012071800000000054540000168275000000000189835000000000000000000000000021560050000000000  3020121128   01          2                                                                                   3112239389797077149484600089                                                  N                     01321  0000000        000104
12053585766000141MULTIACOS I C PRODS TEC LTDA                                          0000000042200000000000000000000000000000895189560000000000000000004695703     201211262012100200000000055290001092223000000001095862000000000000000000000000003639050000000000  3020121128   01          2                                                                                   3711500005033164927761980139                                                  N                     01321  0000000        000105
12053585766000141MULTIACOS I C PRODS TEC LTDA                                          0000000042200000000000000000000000000000895189590000000000000000004699103     201211262012100200000000055290000574719000000000576634000000000000000000000000001915050000000000  3020121128   01          2                                                                                   3711500005033164927762048119                                                  N                     01321  0000000        000106
12053585766000141MULTIACOS I C PRODS TEC LTDA                                          0000000042200000000000000000000000000000887697910000000000000000004704303     201211272012092000000000055300000965514000000000967122000000000000000000000000001608050000000000  3020121128   01          2                                                                                   3711500005033164923629564189                                                  N                     01321  0000000        000107
12053585766000141MULTIACOS I C PRODS TEC LTDA                                          0000000042200000000000000000000000000000895189610000000000000000004695803     201211262012100200000000055290000193011000000000193654000000000000000000000000000643050000000000  3020121128   01          2                                                                                   3711500005033164927762013119                                                  N                     01321  0000000        000108
12053585766000141MULTIACOS I C PRODS TEC LTDA                                          0000000042200000000000000000000000000000895189660000000000000000004750002     201211222012100200000000055250000222869000000000225094000000000000000000000000002225050000000000  3020121128   01          2                                                                                   3711500005033164927762129119                                                  N                     01321  0000000        000109
12053585766000141MULTIACOS I C PRODS TEC LTDA                                          0000000042200000000000000000000000000000895189720000000000000000004685003     201211222012100200000000055250000547346000000000552817000000000000000000000000005471050000000000  3020121128   01          2                                                                                   3711500005033164927762200139                                                  N                     01321  0000000        000110
12053585766000141MULTIACOS I C PRODS TEC LTDA                                          0000000042200000000000000000000000000000887697960000000000000000004704503     201211272012092000000000055300000217463000000000217824000000000000000000000000000361050000000000  3020121128   01          2                                                                                   3711500005033164923629599149                                                  N                     01321  0000000        000111
12054382510000108SETENTA IND E COM DE MADEIRAS                                         0000000034100000000000000000000000000000860403430000002277814474462 A         201209042012080700000000054460000191200000000000223160000000000000000000000000031960050000000000  3020121128   01          2                                                                                   3112277814474057049175300069                                                  N                     01321  0000000        000112
12056993512000150CYKLOP DO BRASIL EMBALAGENS SA                                        0000000034100000000000000000000000000000874070500000002362586810134932        201210012012090300000000054730000083607000000000101413000000000000000000000000017806050000000000  3020121128   01          2                                                                                   3112362586813025700015800019                                                  N                     01321  0000000        000113
12059358770000153TRANS NEW ABC TRANSPORTADORA L                                        0000000023701193200000000698555 000000009183388500901323120763555320          201211222012110700000000055250000137001000000000137823000000000000000000000000000822050000000000  3020121128   01          2  RUA GANGES 528                                                                   3                         000000000000000                                     N                     00598  0000000        000114
12059659615000177DZ COMERCIO R E SERVICOS LTDA                                         000000003410000000000000000000000000000091358507000000900000321280            201211172012102400000000055200000060000000000000061320000000000000000000000000001320050000000000  3020121128   01          2                                                                                   3109000003217000314585100039                                                  N                     01321  0000000        000115
12061217188000119TELAS METALICAS TELMETAL LTDA                                         0000000000100000000000000000000000000000902449810000000058120005780 3 3       201211262012101600000000055290000089763000000000090241000000000000000000000000000478050000000000  3020121128   01          2                                                                                   3000000115031800000058121739                                                  N                     01321  0000000        000116
12061217188000119TELAS METALICAS TELMETAL LTDA                                         0000000000100000000000000000000000000000906662750000000058320005808 1 1       201211182012102400000000055210000079842000000000079842000000000000000000000000000000050000000000  3020121119   05          3                                                                                   3000000115031800000058321729                                                  N                     01321  0000000        000117
12061683652000162TRANS FACE TRANSPORTES LTDA                                           0000000023700530400000000141828 0000000091358502009000000110375I000085343     201211202012110500000000055230000081000000000000082752000000000000000000000000001752050000000000  3020121128   01          2  R JUNO 553                                                                       3                         000000000000000                                     N                     00598  0000000        000118
12061780615000172LEPOK INFORMATICA E PAPELARIA                                         0000000023703393600000000005010 000000009147189500202311000000302136893       201211262012102900000000055290000054463000000000054626000000000000000000000000000326050000000000  3020121127   06          3  RUA TAMAINDE 1410                                                                3                         000000000000000                                     N                     00598  0000000        000119
12061780615000172LEPOK INFORMATICA E PAPELARIA                                         0000000023703393600000000005010 000000009147189600202311000000402137019       201211262012102900000000055290000002695000000000002703000000000000000000000000000016050000000000  3020121127   06          3  RUA TAMAINDE 1410                                                                3                         000000000000000                                     N                     00598  0000000        000120
12062510367000102ITANHAEM TRANSP DE MAQUINAS LT                                        000000003410000000000000000000000000000087407049000000236463199667            201209202012090400000000054620000248220000000000316737000000000000000000000000068517050000000000  3020121128   01          2                                                                                   3112364631997005770252400049                                                  N                     01321  0000000        000121
12064952757000168WALMAC COM DE PROD QUIMICOS LT                                        0000000034100000000000000000000000000000860403440000002275821690020148        201210262012080300000000054980000219266000000000233489000000000000000000000000014223050000000000  3020121128   01          2                                                                                   3112275821695064807961400019                                                  N                     01321  0000000        000122
12064952757000168WALMAC COM DE PROD QUIMICOS LT                                        0000000034100000000000000000000000000000896979500000002462157550021611        201211012012100400000000055040000219267000000000230904000000000000000000000000011637050000000000  3020121128   01          2                                                                                   3112462157556064807961400019                                                  N                     01321  0000000        000123
12064952757000168WALMAC COM DE PROD QUIMICOS LT                                        0000000034100000000000000000000000000000860403450000002275821700020148        201210052012080300000000054770000219267000000000242541000000000000000000000000023274050000000000  3020121128   01          2                                                                                   3112275821703064807961400029                                                  N                     01321  0000000        000124
12066841552000130R V SEG PATRIMONIAL S C LTDA                                          00000000341000000000000000000000000000008887329800000090002213622136          201210102012091100000000054820000374758000000000380883000000000000000000000000006125050000000000  3020121128   01          2                                                                                   3109000221365001838994000069                                                  N                     01321  0000000        000125
12066841552000130R V SEG PATRIMONIAL LTDA                                              00000000341000000000000000000000000000008852483200000090002192721927          201209102012081000000000054520000483241000000000495960000000000000000000000000012719050000000000  3020121128   01          2                                                                                   3109000219270001835253400099                                                  N                     01321  0000000        000126
12069284248000128ISOCOAT TINTAS E VERNIZES LTDA                                        0000000034100000000000000000000000000000900522900000002477686970056631        201211262012101000000000055290000365668000000000367618000000000000000000000000001950050000000000  3020121128   01          2                                                                                   3112477686979077430121200019                                                  N                     01321  0000000        000127
12069284248000128ISOCOAT TINTAS E VERNIZES LTDA                                        0000000034100000000000000000000000000000841061040000002182507930052085        201209172012070200000000054590000236130000000000281490000000000000000000000000045360050000000000  3020121128   01          2                                                                                   3112182507932077430121200019                                                  N                     01321  0000000        000128
12069284248000128ISOCOAT TINTAS E VERNIZES LTDA                                        0000000034100000000000000000000000000000888732960000002421485720055761        201211202012092100000000055230000093324000000000095316000000000000000000000000001992050000000000  3020121128   01          2                                                                                   3112421485726077430121200069                                                  N                     01321  0000000        000129
12069284248000128ISOCOAT TINTAS E VERNIZES LTDA                                        0000000034100000000000000000000000000000895189830000002456588190056254        201211162012100200000000055190000365668000000000376393000000000000000000000000011700050000000000  3020121127   06          3                                                                                   3112456588196077430121200019                                                  N                     01321  0000000        000130
12071154462000292POWER EXPRESS LOGISTICA E TRAN                                        0000000023703417700000000103896 00000000909203230090000000071240000330604     201211192012102900000000055220000083200000000000083200000000000000000000000000000000050000000000  3020121119   05          3  RUA  JUNO 533                                                                    3                         000000000000000                                     N                     00598  0000000        000131
12071154462000292POWER EXPRESS LOGISTICA E TRAN                                        0000000023703417700000000103896 00000000927575440090000000071240000330604     201211192012102900000000055220000083200000000000085200000000000000000000000000002000050000000000  3020121128   01FS        1  RUA  JUNO 533                                                                    3                         000000000000000                                     N                     00598  0000000        000132
12096500087000135WORKBENCH CONSULTORIA S S LTDA                                        0000000034100000000000000000000000000000912467970000007023696933218           201211272012110100000000055300000131746000000000132005000000000000000000000000000259050000000000  3020121128   01          2                                                                                   3157023696939826313803700019                                                  N                     01321  0000000        000133
12096500087000135WORKBENCH CONSULTORIA S S LTDA                                        0000000034100000000000000000000000000000878205840000007940034283118           201209272012090300000000054690000131746000000000147804000000000000000000000000016058050000000000  3020121128   01          2                                                                                   3157940034289826313803700089                                                  N                     01321  0000000        000134
900013500000000060880835                                                                                                                                                                                                                                                                                                                                                                                                                                                                01321  0000000        000135
