0000147602043799295000110ALTAMIRA IND METALURGICA LTDA           20100576000002012112817484100000        2    230A                                                                                          000000000000000                                                                                                                                                                                                                                                                                   000001
12042956441000101SOLUCOES ACO USIMINAS                                                 0000000034100000000000000000000000000000853154860000002246247050017196603     201211190000000000000000055220000804807000000000819297000000000000000000000000014490050000000000  3020121128   01MFBUHA    500                                                                                 3112246247053293807258000059010000       000171966/03                         N                     00000 10020256        000002
12042956441000101SOLUCOES ACO USIMINAS                                                 0000000034100000000000000000000000000000853154880000002246247070017197303     201211190000000000000000055220000970103000000000987563000000000000000000000000017460050000000000  3020121128   01MFBUHA    500                                                                                 3112246247079293807258000059010000       00171973/03                          N                     00000 10020256        000003
12042956441000101SOLUCOES ACO USIMINAS                                                 0000000034100000000000000000000000000000858616490000002271409850017319303     201211260000000000000000055290000981526000000000985452000000000000000000000000003926050000000000  3020121128   01MFBUHA    500                                                                                 3112271409859293807258000039010000       00173193/03                          N                     00000 10020256        000004
12004455726000170INTERCLICK INFORMATICA S C LTDR JORGE AUGUSTO 83 SL 84 PENHA          0364500023702451100000000099449 I000000000010230000000000000000               201211280000000000000000000000000000000000000000500000000000000000000000000000000000030000000002  0120121128   01HA        000                                                                                 3                                        00PARC.01                            N                     00000 10020256        000005
12007068566000102NIVEL EMPREGOS LTDA           AV CELSO GARCIA 3830                    0306400023700097300000003053792 I000000000010231000000000000000               201211280000000000000000000000000000000000000000300000000000000000000000000000000000010000002814  0120121128   01HA        000                                                                                 3                                        002814 - PARC.02 - SALDO             N                     00000 10020256        000006
12062539994000176LEALFER INDUSTRIA E COMERCIO D                                        0000000003300000 0000000000000  I000000000010232000000000000000               201211280000000000000000055310000846652000000000846652000000000000000000000000000000010000055020  3120121128   01HA        000                                                                                 3915298380000000264784020319             0055020/02                           N                     00000 10020256        000007
12005151518000140BELENUS DO BRASIL LTDA        RUA COMENDADOR JOAO LUCAS  300          1328000000100000 0000000000000  I000000000010233000000000000000               201211280000000000000000055310000618810000000000618810000000000000000000000000000000010001765953  3120121128   01HA        000                                                                                 3000000123933844172561333119             00176595/3                           N                     00000 10020256        000008
12042956441000101SOLUCOES EM ACO USIMINAS S A  RUA  DIANOPOLIS  670 710                0312510034100000 0000000000000  I000000000010234000000000000000               201211280000000000000000055310000581692000000000581692000000000000000000000000000000010000173151  3120121128   01HA        000                                                                                 3181589768804293807258000069             000173151/03                         N                     00000 10020256        000009
12042956441000101SOLUCOES EM ACO USIMINAS S A  RUA  DIANOPOLIS  670 710                0312510034100000 0000000000000  I000000000010235000000000000000               201211280000000000000000055310000692634000000000692634000000000000000000000000000000010000172002  3120121128   01HA        000                                                                                 3181589765701293807258000069             000172002/03                         N                     00000 10020256        000010
12047190731000100DE CASTRO LOUREIRO ENGENHARIA                                         0000000034100000 0000000000000  I000000000010236000000000000000               201211280000000000000000055310000965177000000000965177000000000000000000000000000000010003026632  3120121128   01HA        000                                                                                 3181589774148036884500400049             003026632                            N                     00000 10020256        000011
12043555887000197RENATO GONCALVES              RUA  ROZO LAGOA  512                    0247121000100000 0000000000000  I000000000010237000000000000000               201211280000000000000000055310000195646000000000195646000000000000000000000000000000010017445139  3120121128   01HA        000                                                                                 3000000104260650156804071199             0017445139                           N                     00000 10020256        000012
12069284248000128ISOCOAT TINTAS E VERNIZES LTDARUA  COM GIUSEPPE MARCHIORI  2189       1814700034100000 0000000000000  I000000000010238000000000000000               201211280000000000000000055310000367618000000000367618000000000000000000000000000000010000056631  3120121128   01HA        000                                                                                 3181589659381077430121200039             00056631/01                          N                     00000 10020256        000013
12005151518000140BELENUS DO BRASIL LTDA        RUA COMENDADOR JOAO LUCAS  300          1328000000100000 0000000000000  I000000000010239000000000000000               201211280000000000000000055310000078980000000000078980000000000000000000000000000000010001765953  3120121128   01HA        000                                                                                 3000000123933844123581063179             0005151518/00140                     N                     00000 10020256        000014
12060732997000104UNIFISA ADM  NACIONAL DE CONS CALCADA ALDEBARAN 161 CENTRO DE APOIO 2 0654105523703390100000000086606 I000000000010240009011232615278               201211280000000000000000055310000243464000000000243464000000000000000000000000000000010000615037  3120121128   01HA        000                                                                                 3339009112326152780008660079             00615037                             N                     00000 10020256        000015
12061074175000138MAPFRE VERA CRUZ SEGURADORA S RUA GANGES 528                          0344503000100000 0000000000000  I000000000010241000000000000000               201212100000000000000000055430000000000000000000031053000000000000000000000000000000010000018019  3120121128   01HA        000                                                                                 3000000145851600716949431819             0018-019                             N                     00000 10020256        000016
11144219728000051MARCIO ALEXANDRE RUSSO        R GEN ATALIBA LEONEL 4048 CSA3 TUCURUVI 0224200223702622000000000064858 I000000000010242000000000000000               201211280000000000000000000000000000000000000000054557000000000000000000000000000000050000112012  0120121128   01HA        000                                                                                 3                                        00REF.NOVEMBRO/2012.                 N                     00000 10020256        000017
12007151435000186SALIS DE MOURA E ADVOGADOS ASSR MARIA PAULA 78 BELA VISTA             0131900023700500200000000594440 I000000000010243000000000000000               201211280000000000000000000000000000000000000000147750000000000000000000000000000000040000112012  0120121128   01HA        000                                                                                 3                                        00REF.NOVEMBRO/2012.                 N                     00000 10020256        000018
12063917975000107FOTONS COMERCIAL ELETRICA LTDAR STA IFIGENIA 741 SANTA IFIGENIA       0120700123700102300000000493643 I000000000010244000000000000000               201211280000000000000000000000000000000000000000025760000000000000000000000000000000010000007678  0120121128   01HA        000                                                                                 3                                        007678                               N                     00000 10020256        000019
900002000000000008442105                                                                                                                                                                                    000000000000000                                                                                                                                                                                                                                                    00001800718950007347109        000020
