0000147602043799295000110ALTAMIRA INDUSTRIA METALURGICA LT       202000000436620121228233607             3                                                                                                  000000000000000                                                                                                                                                                                                                                                                                   000001
12014104961000150EDNILDE TRIGUERO DANTE DA SILVR ROQUE SOARES MEDELLA 132              0219009023701311000000001038206 I000000000010364000000000000000               201212280000000000000000000000000000000000000000174684000000000000000000000000000000010000000109  0120121228   02BW        5000000               000000000000000                                               3                                          SALDO NF.NRO.109.                  N                     01321 10020256        000002
12007711227000194L BARBI REPRESENTACOES        R IRAPUA 225 CASA 8 PENHA CIRCULAR      2121506023702804500000000201758 I000000000010365000000000000000               201212280000000000000000000000000000000000000000996903000000000000000000000000000000050000000000  0120121228   02BW        5000000               000000000000000                                               3                                          COMISSOES                          N                     01321 10020256        000003
12004455726000170INTERCLICK INFORMATICA S C LTDR JORGE AUGUSTO 83 SL 84 PENHA          0364500023702451100000000099449 I000000000010366000000000000000               201212280000000000000000000000000000000000000000876000000000000000000000000000000000010000001358  0120121228   02BW        5000000               000000000000000                                               3                                          NF.NRO.01358                       N                     01321 10020256        000004
12012006058000121WEG TINTAS LTDA               AV MOEMA 862 INDIANOPOLIS               0407702323702727800000000001309 I000000000010367000000000000000               201212280000000000000000000000000000000000000001583204000000000000000000000000000000010000000305  0120121228   02BW        5000000               000000000000000                                               3                                          PARC.03/05 - REF.ACORDO.           N                     01321 10020256        000005
120602639850001706  TABELIAO PROTESTO L T SP                                           0000000023701628400000000732613 I000000000010363006000000000530               201212280000000000000000055610000176038000000000176038000000000000000000000000000000010000010214  3120121228   02BW        5000000               000000000000000                                               3162806000000005300073261019               010214/01 - MBA                    N                     01146 10020256        000006
12056428188000128EDVALDO SANTOS ROSA ME                                                0000000023700898200000000005622 0000000088191343009011225700669194919609      201212282012091300000000055610000089850000000000089850000000000000000000000000000000050000000000  3020121228   02BW        2000000               000000000000000                                               3                         000000000000000  043/01                             N                     01146 10020256        000007
12042956441000101SOLUCOES ACO USIMINAS                                                 0000000034100000000000000000000000000000932560370000002641578260019251301     201212282012113000000000055610000162257000000000162257000000000000000000000000000000050000000000  3020121228   02BW        2000000               000000000000000                                               3112641578268293807258000019               192513/01                          N                     01130 10020256        000008
12062539994000176LEALFER INDUSTRIA E COMERCIO D                                        0000000034100000 0000000000000  I000000000010362000000000000000               201212280000000000000000055610001953638000000001953638000000000000000000000000000000010000056826  3120121228   02BW        5000000               000000000000000                                               3181608632541076103324000019               056826/02                          N                     01130 10020256        000009
12069284248000128ISOCOAT TINTAS E VERNIZES LTDA                                        0000000034100000000000000000000000000000908309620000002521130190057192        201212242012102400000000055570000317968000000000321360000000000000000000000000006784050000000000  3020121228   02BW        2000000               000000000000000                                               3112521130198077430121200099               057192/01                          N                     01130 10020256        000010
12005151518000140BELENUS DO BRASIL LTDA                                                000000000330000000000000000000000000000091026579000000290000000R132008222     201212222012102300000000055550000460800000000000469923000000000000000000000000015203050000000000  3020121228   02BW        2000000               000000000000000                                               3918381050000000498629010499               132008222                          N                     01130 10020256        000011
12002269980000158PANKRO LOGISTICA E TRANSP LTDA                                        000000003410000000000000000000000000000094102607000000708927644348 A          201212282012121700000000055610000180000000000000180000000000000000000000000000000000050000000000  3020121228   02BW        2000000               000000000000000                                               3157089276447898907620600099               348/01                             N                     01130 10020256        000012
12003370710000100ALTIZA TRANSPORTES LTDA                                               0000000010400000000000000000000000000000942049570000000009300003815           201212282012121700000000055610000114100000000000114100000000000000000000000000000000050000000000  3020121228   02BW        2000000               000000000000000                                               3284848190110104000000930089               05338                              N                     01130 10020256        000013
12081560047000101ACEVILLE TRANSPORTES LTDA                                             000000000330000000000000000000000000000094204956000000710000000299687         201212282012121700000000055610000086000000000000086000000000000000000000000000000000050000000000  3020121228   02BW        2000000               000000000000000                                               3913555200000002996871010189               299687                             N                     01130 10020256        000014
12042956441000101SOLUCOES ACO USIMINAS                                                 0000000034100000000000000000000000000000932560320000002641578240019251101     201212282012113000000000055610000408269000000000408269000000000000000000000000000000050000000000  3020121228   02BW        2000000               000000000000000                                               3112641578243293807258000029               192513/01                          N                     01130 10020256        000015
12062344882000160INDUSTRIA COM PARAFUS NAP LTDA                                        00000000341000000000000000000000000000009345238400000026481977012692 1        201212282012113000000000055610000125521000000000125521000000000000000000000000000000050000000000  3020121228   02BW        2000000               000000000000000                                               3112648197708482812260800039               12692/01                           N                     01130 10020256        000016
12042956441000101SOLUCOES ACO USIMINAS                                                 0000000034100000000000000000000000000000932560340000002641578250019251201     201212282012113000000000055610000360222000000000360222000000000000000000000000000000050000000000  3020121228   02BW        2000000               000000000000000                                               3112641578250293807258000019               192512/01                          N                     01130 10020256        000017
12054217021000192RAFER COM MAT P ESCRIT LTDA                                           0000000000100000 0000000000000  I000000000010361000000000000000               201212280000000000000000055610000046900000000000046900000000000000000000000000000000010000003584  3120121228   02BW        5000000               000000000000000                                               3000000185029400990058811719               03584/01                           N                     01130 10020256        000018
12011389422000117NELSON RODRIGUES DA SILVA JUNI                                        00000000104000000000000000000000000000009354001100000000214100017168          201212282012120600000000055610000011000000000000011000000000000000000000000000000000050000000000  3020121228   02BW        2000000               000000000000000                                               3900000214102478700000058719               42269                              N                     01130 10020256        000019
12062539994000176LEALFER INDUSTRIA E COMERCIO D                                        0000000003300000000000000000000000000000933583080000008800000000005919601     201212282012113000000000055610001011633000000001011633000000000000000000000000000000050000000000  3020121228   02BW        2000000               000000000000000                                               3915298380000000301388010469               059196/01                          N                     01130 10020256        000020
12062539994000176LEALFER INDUSTRIA E COMERCIO D                                        0000000003300000000000000000000000000000933583100000002600000000005917101     201212282012112900000000055610000452989000000000452989000000000000000000000000000000050000000000  3020121228   02BW        2000000               000000000000000                                               3915298380000000301426010489               059171/01                          N                     01130 10020256        000021
12005151518000140BELENUS DO BRASIL LTDA                                                000000000010000000000000000000000000000089605040000000358107000R131268332     201212272012100400000000055600000078720000000000078980000000000000000000000000000520050000000000  3020121228   02BW        2000000               000000000000000                                               3000000123933844123581073129               131268332                          N                     01130 10020256        000022
12069284248000128ISOCOAT TINTAS E VERNIZES LTDA                                        0000000034100000000000000000000000000000921267630000002580320800057981        201212272012111200000000055600000402235000000000403308000000000000000000000000002146050000000000  3020121228   02BW        2000000               000000000000000                                               3112580320805077430121200079               057981                             N                     01130 10020256        000023
12003244478000155CASA DO EPI LTDA                                                      000000003410000000000000000000000000000093256043000000900119424164722 1       201212282012113000000000055610000067355000000000067355000000000000000000000000000000050000000000  3020121228   02BW        2000000               000000000000000                                               3109001194240312022436900039               0164722/01                         N                     01130 10020256        000024
12042956441000101SOLUCOES ACO USIMINAS                                                 0000000034100000000000000000000000000000932560400000002641578270019251401     201212282012113000000000055610000179786000000000179786000000000000000000000000000000050000000000  3020121228   02BW        2000000               000000000000000                                               3112641578276293807258000019               192514/01                          N                     01130 10020256        000025
12069284248000128ISOCOAT TINTAS E VERNIZES LTDA                                        0000000034100000000000000000000000000000921267600000002580416000058053        201212282012111300000000055610000365668000000000365668000000000000000000000000000000050000000000  3020121228   02BW        2000000               000000000000000                                               3112580416009077430121200069               58053                              N                     01130 10020256        000026
900002700000000010695588                                                                                                                                                                                    000000000000000                                                                                                                                                                                                                                                    00002501167690007050949        000027
