0000147602043799295000110ALTAMIRA INDUSTRIA METALURGICA LT       202000000013620120928063212             1                                                                                                                                                                                                                                                                                                                                                                                                    000001
12001515122000183SOFT BRASIL AUTOMACAO LTDA                                            000000003410000000000000000000000000000087820566000000900001635DNF 1465       201209252012082800000000054670000050071000000000050137000000000000000000000000000099050000000000  3020120927   06          3                                                                                   3109000016358018307515900049                                                  N                     01321  0000000        000002
12001784706000154TRANSPORTES WARTHA LTDA                                               0000000023701775200000000260010 0000000088873314009022400000331SAO2612751     201209172012082700000000054590000430000000000000442771000000000000000000000000012771050000000000  3020120928   01          2  R  GANGES  528                                                                   3                         000000000000000                                     N                     00598  0000000        000003
12001895314000162COLETA INDUSTRIAL FIMAVAN LTDA                                        00000000341000000000000000000000000000008844324600000090023445310405          201209272012091700000000054690000158141000000000161725000000000000000000000000003584050000000000  3020120928   01          2                                                                                   3109002344538144604097200029                                                  N                     01321  0000000        000004
12001895314000162COLETA INDUSTRIAL FIMAVAN LTDA                                        0000000034100000000000000000000000000000866992070000009002335349439           201208272012081700000000054380000123695000000000136697000000000000000000000000013002050000000000  3020120928   01          2                                                                                   3109002335346144604097200019                                                  N                     01321  0000000        000005
12002460454000170AUT SERVICE COMERCIO E SERVICO                                        0000000023702591700000000007692 000000008515292000901322060028234532 2        201209172012072400000000054590000238750000000000255945000000000000000000000000017195050000000000  3020120928   01          2  RUA JUNO  533                                                                    3                         000000000000000                                     N                     00598  0000000        000006
12002503185000182ANDAIMES MAQUINAS BIG LTDA EPP                                        000000003410000000000000000000000000000086282613000000228719913011660         201208302012081000000000054410000012000000000000012472000000000000000000000000000472050000000000  3020120928   01          2                                                                                   3112287199130650303800900039                                                  N                     01321  0000000        000007
12002503185000182ANDAIMES E MAQUINAS BIG LTDA                                          000000003410000000000000000000000000000087820531000000233954448011791         201209212012082700000000054630000026000000000000026639000000000000000000000000000639050000000000  3020120928   01          2                                                                                   3112339544481925303435000019                                                  N                     01321  0000000        000008
12002503185000182ANDAIMES MAQUINAS BIG LTDA EPP                                        0000000034100000000000000000000000000000874070480000002313590765101           201209142012082000000000054560000016500000000000016984000000000000000000000000000484050000000000  3020120928   01          2                                                                                   3112313590765650303800900019                                                  N                     01321  0000000        000009
12003489596000123BEND FLEX I COMERCIO LTDA                                             000000003410000000000000000000000000000088599899000000171434574613            201209172012081600000000054590000585000000000000597661000000000000000000000000012661050000000000  3020120928   01          2                                                                                   3191714345748157734445800019                                                  N                     01321  0000000        000010
12003489596000123BEND FLEX I COMERCIO LTDA                                             000000003410000000000000000000000000000088350832000000171879874608            201209122012082100000000054540000695250000000000717122000000000000000000000000021872050000000000  3020120928   01          2                                                                                   3191718798744157734445800069                                                  N                     01321  0000000        000011
12003489596000123BEND FLEX I COMERCIO LTDA                                             000000003410000000000000000000000000000088957854000000172413968615            201209212012082300000000054630000582750000000000590772000000000000000000000000008022050000000000  3020120928   01          2                                                                                   3191724139685157734445800049                                                  N                     01321  0000000        000012
12003489596000123BEND FLEX I COMERCIO LTDA                                             000000003410000000000000000000000000000086699212000000791935440613            201209172012082000000000054590000585000000000000600153000000000000000000000000016304050000000000  3020120920   05          3                                                                                   3157919354403157734445800099                                                  N                     01321  0000000        000013
12005151518000140BELENUS DO BRASIL LTDA                                                000000000010000000000000000000000000000087407047000000750518000R130170512     201209262012090400000000054680000249600000000000251248000000000000000000000000001648050000000000  3020120928   01          2                                                                                   3000000123933844037505183129                                                  N                     01321  0000000        000014
12005214618000178VISION GESTAO EMP E FOM MERCAN                                        0000000023700088400000000730084 0000000087820601002000880016153000218         201209272012090300000000054690000130000000000000130260000000000000000000000000000260050000000000  3020120928   01          2  RUA TAMAINDE  1410  VILA NOVA MANCHESTERCORREA MONTAGENS INDUSTRIAIS LTDA   EPP  3                         012711129000197                                     N                     00598  0000000        000015
12005753978000148HUMAN SERVICOS P C MOVEL LTDA                                         0000000034100000000000000000000000000000875773590000009001008530000100853     201209202012090300000000054620000013000000000000013000000000000000000000000000000000050000000000  3020120920   05          3                                                                                   3109001008539057948896600019                                                  N                     01321  0000000        000016
12005852768000107DAOUD LEAL ELETRONICA LTDA ME                                         00000000033000000000000000000000000000008757736700000021000000000000000001097 201209262012090500000000054680000016558000000000016999000000000000000000000000000441050000000000  3020120928   01          2                                                                                   3949927090000000027421010429                                                  N                     01321  0000000        000017
12005880850000145NEDERMAN BRASIL COM PROD EX LT                                        000000003410000000000000000000000000000086373178000000614350956002763 A       201209252012081400000000054670000289674000000000291384000000000000000000000000001710050000000000  3020120928   01          2                                                                                   3156143509568160829000100049                                                  N                     01321  0000000        000018
12006000195000156MBA MERCL BRASILEIRA ACO LTDA                                         0000000042200000000000000000000000000000859590590000000000000000009051B02     201209262012080300000000054680000180457000000000181058000000000000000000000000000601050000000000  3020120928   01          2                                                                                   3701600007451936910173842159                                                  N                     01321  0000000        000019
12006000195000156MBA MERCANTIL BRAS DE ACO LTDA                                        0000000034100000000000000000000000000000885998980000001667238420008870B02     201209112012071600000000054530000839952000000000868036000000000000000000000000028084050000000000  3020120928   01          2                                                                                   3191667238429064849251000039                                                  N                     01321  0000000        000020
12006000195000156M B A MERCANTIL BRASILEIRA DE                                         0000000000100000000000000000000000000000855028900000007952840000009005B02     201209242012073000000000054660000202838000000000204190000000000000000000000000001352050000000000  3020120928   01          2                                                                                   3043937952843333000105251189                                                  N                     01321  0000000        000021
12006000195000156M B A MERCANTIL BRASILEIRA DE                                         0000000000100000000000000000000000000000855028910000007952930000009010B02     201209272012073000000000054690000275046000000000275504000000000000000000000000000458050000000000  3020120928   01          2                                                                                   3043937952933333000105251119                                                  N                     01321  0000000        000022
12006000195000156M B A MERCANTIL BRASILEIRA DE                                         0000000000100000000000000000000000000000855028930000007952900000009007B02     201209262012073000000000054680000428087000000000429513000000000000000000000000001426050000000000  3020120928   01          2                                                                                   3043937952903333000105251119                                                  N                     01321  0000000        000023
12006000195000156M B A MERCANTIL BRASILEIRA DE                                         0000000000100000000000000000000000000000855028860000007952870000009006B02     201209252012073000000000054670000235480000000000236656000000000000000000000000001176050000000000  3020120928   01          2                                                                                   3043937952873333000105251189                                                  N                     01321  0000000        000024
12006000195000156MBA MERCANTIL BRAS DE ACO LTDA                                        0000000034100000000000000000000000000000886866570000001667238410008874B02     201209132012071600000000054550000802826000000000826511000000000000000000000000023685050000000000  3020120928   01          2                                                                                   3191667238411064849251000049                                                  N                     01321  0000000        000025
12006000195000156MBA MERCANTIL BRAS DE ACO LTDA                                        0000000034100000000000000000000000000000887698080000001667238400008876B02     201209142012071600000000054560000810321000000000832637000000000000000000000000022316050000000000  3020120928   01          2                                                                                   3191667238403064849251000059                                                  N                     01321  0000000        000026
12006000195000156MBA MERCANTIL BRAS DE ACO LTDA                                        0000000034100000000000000000000000000000887698090000001671394550008925B02     201209142012071700000000054560000719581000000000739391000000000000000000000000019810050000000000  3020120928   01          2                                                                                   3191671394556064849251000089                                                  N                     01321  0000000        000027
12006000195000156MBA MERCANTIL BRAS DE ACO LTDA                                        0000000034100000000000000000000000000000887698100000001671394560008926B02     201209142012071700000000054560000387716000000000398398000000000000000000000000010682050000000000  3020120928   01          2                                                                                   3191671394564064849251000019                                                  N                     01321  0000000        000028
12006000195000156MBA MERCANTIL BRAS DE ACO LTDA                                        0000000034100000000000000000000000000000889578520000001671394540008920B02     201209162012071700000000054580000576585000000000590193000000000000000000000000013608050000000000  3020120928   01          2                                                                                   3191671394549064849251000099                                                  N                     01321  0000000        000029
12006000195000156M B A MERCANTIL BRASILEIRA DE                                         0000000023700118P00000002130599 00000000865388220020222900000430009203B01     201209122012081500000000054540000396727000000000400032000000000000000000000000003966050000000000  3020120917   06          3  RUA JUNO  533                                                                    3                         000000000000000                                     N                     00598  0000000        000030
12006000195000156M B A MERCANTIL BRASILEIRA DE                                         0000000000100000000000000000000000000000834820270000002571570000008654B03     201209142012062600000000054560000677504000000000684278000000000000000000000000007903050000000000  3020120920   05          3                                                                                   3043852571573333000105251119                                                  N                     01321  0000000        000031
12006000195000156M B A MERCANTIL BRASILEIRA DE                                         0000000000100000000000000000000000000000834820300000002571600000008655B03     201209152012062600000000054570000739628000000000745793000000000000000000000000007398050000000000  3020120920   05          3                                                                                   3043852571603333000105251129                                                  N                     01321  0000000        000032
12006000195000156M B A MERCANTIL BRASILEIRA DE                                         0000000000100000000000000000000000000000834820330000002571630000008656B03     201209162012062600000000054580000641947000000000646227000000000000000000000000005350050000000000  3020120920   05          3                                                                                   3043852571633333000105251129                                                  N                     01321  0000000        000033
12006000195000156M B A MERCANTIL BRASILEIRA DE                                         0000000023700118P00000002130599 00000000848180730020220100000040008872B02     201209112012071700000000054530000112773000000000113901000000000000000000000000001316050000000000  3020120917   06          3  RUA JUNO  533                                                                    3                         000000000000000                                     N                     00598  0000000        000034
12007175725000160WEG EQUIPAMENTOS ELETRICOS SA                                         0000000023702727800000000196800 00000000832180610090217400004980095359902     201209202012052300000000054620000272787000000000275691000000000000000000000000002904050000000000  3020120928   01          2  R JUNO  533                                                                      3                         000000000000000                                     N                     00598  0000000        000035
12008508119000181DINARI FOMENTO MERCANTIL LTDA                                         0000000023702499600000000178306 0000000086282616002022260000004206 B          201209242012081000000000054660000170000000000000177140000000000000000000000000007140050000000000  3020120928   01          2  RUA JUNO  533 VL N MANCHESTER SAO PAULO PANKRO LOGISTICA E TRANSPORTES LTDA EPP  300000000000000000141500  002269980000158                                     N                     00598  0000000        000036
12008508119000181DINARI FOMENTO MERCANTIL LTDA                                         000000003990000000000000000000000000000085607128000000000000000175            201209162012072700000000054580000310000000000000310000000000000000000000000000000000050000000000  3020120917   05          3                                                                                   3175716373830198002280903189                                                  N                     01321  0000000        000037
12008594182000188ACOS G3 COMERCIO E BENEFICIAME                                        0000000023703137200000000091332 00000000890457090090227100000261155        002201211222012092700000000055250000152347000000000152347000000000000000000000000000000050000000000  3020121122   01FS        1  RUA GANGES  528                                                                  3                         000000000000000                                     N                     00598  0000000        000038
12008594182000188ACOS G3 COMERCIO E BENEFICIAME                                        0000000023703137200000000091332 00000000890457100090227100000271155        003201212222012092700000000055550000152347000000000152347000000000000000000000000000000050000000000  3020121224   01FS        1  RUA GANGES  528                                                                  3                         000000000000000                                     N                     00598  0000000        000039
12008594182000188ACOS G3 COMERCIO E BENEFICIAME                                        0000000023703137200000000091332 00000000890457080090227100000251155        001201210252012092700000000054970000152346000000000152346000000000000000000000000000000050000000000  3020121025   01FS        1  RUA GANGES  528                                                                  3                         000000000000000                                     N                     00598  0000000        000040
12008848231000161ATUAL CARGAS TRANSPORTES LTDA                                         0000000000100000000000000000000000000000881032650000000133300000001606166     201209252012091100000000054670000105328000000000106276000000000000000000000000000948050000000000  3020120928   01          2                                                                                   3000000159433800000133301799                                                  N                     01321  0000000        000041
12009137729000189MULTI RECEBIVEIS II FUNDO DE I                                        0000000023703369300000000044253 000000008685926400902236000000813649 2        201209272012081600000000054690000114374000000000114755000000000000000000000000000381050000000000  3020120928   01          2  R TAMANDE 1410                          ANHEMBI INDUSTRIA DE CAIXAS DE PAPELAO O 3                         043292101000196                                     N                     00598  0000000        000042
12009338857000190FERNANDO  NAGAO  CARDONE  ALVA                                        000000000330000000000000000000000000000087820609000000360000000ALTA 09 2012   201209202012083000000000054620000134632000000000138806000000000000000000000000004578050000000000  3020120927   06          3                                                                                   3947901700000051049236010119                                                  N                     01321  0000000        000043
12009419898000101LUSITANO INDUSTRIA C E P LTDA                                         00000000341000000000000000000000000000008653882000000090000757101 10137 2     201209192012081500000000054610000035135000000000036188000000000000000000000000001053050000000000  3020120928   01          2                                                                                   3109000075716001160072300049                                                  N                     01321  0000000        000044
12009441975000120SPEEDY CRED FOMENTO MERCANTIL                                         0000000023700094900000000990744 00000000869071000020132236074912868 AA        201209182012082300000000054600000064000000000000067840000000000000000000000000003840050000000000  3020120928   01          2  RUA TAMAINDE 1410                       MACKVEN MAQUINAS INDUSTRIAIS LTDA EPP    3                         005441222000163                                     N                     00598  0000000        000045
12011202309000180FIEL TOOLS DISTRIBUIDORA DE MA                                        0000000023702087700000000000116 0000000088443276009000020190021009002 1       201209112012081400000000054530000041000000000000043583000000000000000000000000002706050000000000  3020120927   05          3  R TAMAINDE  1 410   RUA GANGES  520 E 52                                         3                         000000000000000                                     N                     00598  0000000        000046
12012006058000121WEG TINTAS LTDA                                                       0000000023702727800000000001309 00000000834820640090217900000760014773903     201209092012062600000000054510000306662000000000314414000000000000000000000000007752050000000000  3020120928   01          2  R JUNO  533                                                                      3                         000000000000000                                     N                     00598  0000000        000047
12012006058000121WEG TINTAS LTDA                                                       0000000023702727800000000001309 00000000849855330090220500001210015343102     201209182012072000000000054600000306569000000000310649000000000000000000000000004080050000000000  3020120928   01          2  R JUNO  533                                                                      3                         000000000000000                                     N                     00598  0000000        000048
12012006058000121WEG TINTAS LTDA                                                       0000000023702727800000000001309 00000000856071250090221400000820015587301     201209142012073100000000054560000459854000000000468436000000000000000000000000008582050000000000  3020120928   01          2  R JUNO  533                                                                      3                         000000000000000                                     N                     00598  0000000        000049
12012006058000121WEG TINTAS LTDA                                                       0000000023702727800000000001309 00000000861207260090222200000900015775001     201209222012080800000000054640000306569000000000309017000000000000000000000000002448050000000000  3020120928   01          2  R JUNO  533                                                                      3                         000000000000000                                     N                     00598  0000000        000050
12012006058000121WEG TINTAS LTDA                                                       0000000023702727800000000001309 00000000854049540090221200001000015513001     201209102012072700000000054520000459854000000000470888000000000000000000000000011034050000000000  3020120928   01          2  R JUNO  533                                                                      3                         000000000000000                                     N                     00598  0000000        000051
12012006058000121WEG TINTAS LTDA                                                       0000000023702727800000000001309 00000000854049550090221200001010015513002     201209252012072700000000054670000459854000000000461693000000000000000000000000001839050000000000  3020120928   01          2  R JUNO  533                                                                      3                         000000000000000                                     N                     00598  0000000        000052
12012006058000121WEG TINTAS LTDA                                                       0000000023702727800000000001309 00000000841061130090218800000850014990203     201209182012070500000000054600000306662000000000310742000000000000000000000000004080050000000000  3020120928   01          2  R JUNO  533                                                                      3                         000000000000000                                     N                     00598  0000000        000053
12012006058000121WEG TINTAS LTDA                                                       0000000023702727800000000001309 00000000842436840090219200000860015068803     201209222012070900000000054640000306662000000000309110000000000000000000000000002448050000000000  3020120928   01          2  R JUNO  533                                                                      3                         000000000000000                                     N                     00598  0000000        000054
12012006058000121WEG TINTAS LTDA                                                       0000000023702727800000000001309 00000000844839230090219500000720015168702     201209102012071200000000054520000306569000000000313913000000000000000000000000007344050000000000  3020120928   01          2  R JUNO  533                                                                      3                         000000000000000                                     N                     00598  0000000        000055
12012006058000121WEG TINTAS LTDA                                                       0000000023702727800000000001309 00000000844839240090219500000730015168703     201209252012071200000000054670000306662000000000307886000000000000000000000000001224050000000000  3020120928   01          2  R JUNO  533                                                                      3                         000000000000000                                     N                     00598  0000000        000056
12012006058000121WEG TINTAS LTDA                                                       0000000023702727800000000001309 00000000847452150090220000000920015248102     201209152012071700000000054570000306569000000000311873000000000000000000000000005304050000000000  3020120928   01          2  R JUNO  533                                                                      3                         000000000000000                                     N                     00598  0000000        000057
12012931789000183RCM IMPORTADORA DE FERRAMENTAS                                        0000000000100000000000000000000000000000878205470000003022340004038           201209252012082800000000054670000026100000000000026360000000000000000000000000000390050000000000  3020120927   06          3                                                                                   3000000225937123243022341779                                                  N                     01321  0000000        000058
12014309992000148WEG DRIVES   CONTROLS   AUTOMA                                        0000000023702727800000000001872 00000000828904050090217000002200005763302     201209152012051800000000054570000272992000000000277711000000000000000000000000004719050000000000  3020120928   01          2  R JUNO  533                                                                      3                         000000000000000                                     N                     00598  0000000        000059
12033325184001786ALSCO TOALHEIRO BRASIL                                                0000000023703396000000001490850 0000000087820607009000002716505VM27165        201209262012090600000000054680000045665000000000045757000000000000000000000000000092050000000000  3020120928   01          2  RUA  GANGES 528                                                                  3                         000000000000000                                     N                     00598  0000000        000060
12035820448000136WHITE MARTINS GASES INDUSTRIAI                                        0000000023700026400000003937925 0000000087168275009022440000143375351 001     201209272012083100000000054690000040575000000000041440000000000000000000000000000865050000000000  3020120928   01          2  RUA GANGES  528                                                                  3                         000000000000000                                     N                     00598  0000000        000061
12035820448000136WHITE MARTINS GASES INDUSTRIAI                                        0000000023700026400000003937925 0000000086812633009022350001453369229 001     201209182012082200000000054600000056805000000000058701000000000000000000000000001896050000000000  3020120928   01          2  RUA GANGES  528                                                                  3                         000000000000000                                     N                     00598  0000000        000062
12035820448000136WHITE MARTINS GASES INDUSTRIAI                                        0000000023700026400000003937925 0000000086538817009022290001168366855 001     201209112012081600000000054530000121725000000000126913000000000000000000000000005188050000000000  3020120928   01          2  RUA GANGES  528                                                                  3                         000000000000000                                     N                     00598  0000000        000063
12035820448000136WHITE MARTINS GASES INDUSTRIAI                                        0000000023700026400000003937925 0000000086699210009022330000393368126 001     201209142012081800000000054560000162300000000000168570000000000000000000000000006270050000000000  3020120928   01          2  RUA GANGES  528                                                                  3                         000000000000000                                     N                     00598  0000000        000064
12035820448000136WHITE MARTINS GASES INDUSTRIAI                                        0000000023700026400000003937925 0000000086907101009022370010705372273 001     201209202012082400000000054620000017600000000000018136000000000000000000000000000536050000000000  3020120928   01          2  RUA GANGES  528                                                                  3                         000000000000000                                     N                     00598  0000000        000065
12035820448000136WHITE MARTINS GASES INDUSTRIAI                                        0000000023700026400000003937925 0000000086907102009022370011747372774 001     201209202012082400000000054620000040575000000000041818000000000000000000000000001243050000000000  3020120928   01          2  RUA GANGES  528                                                                  3                         000000000000000                                     N                     00598  0000000        000066
12035820448000136WHITE MARTINS GASES INDUSTRIAI                                        0000000023700026400000003937925 0000000087067052009022420002594374120 001     201209252012082900000000054670000113610000000000116335000000000000000000000000002725050000000000  3020120928   01          2  RUA GANGES  528                                                                  3                         000000000000000                                     N                     00598  0000000        000067
12042956441000101SOLUCOES ACO USIMINAS                                                 0000000034100000000000000000000000000000856906410000002262886280017266201     201208282012073000000000054390000119472000000000126881000000000000000000000000007409050000000000  3020120928   01          2                                                                                   3112262886289293807258000089                                                  N                     01321  0000000        000068
12042956441000101SOLUCOES ACO USIMINAS                                                 0000000034100000000000000000000000000000856906420000002262886290017266301     201208282012073000000000054390000145069000000000154059000000000000000000000000008990050000000000  3020120928   01          2                                                                                   3112262886297293807258000099                                                  N                     01321  0000000        000069
12042956441000101SOLUCOES ACO USIMINAS                                                 0000000034100000000000000000000000000000856906430000002262886300017266202     201209252012073000000000054670000119436000000000120153000000000000000000000000000717050000000000  3020120928   01          2                                                                                   3112262886305293807258000019                                                  N                     01321  0000000        000070
12042956441000101SOLUCOES ACO USIMINAS                                                 0000000034100000000000000000000000000000856906440000002262886310017266302     201209252012073000000000054670000145025000000000145895000000000000000000000000000870050000000000  3020120928   01          2                                                                                   3112262886313293807258000029                                                  N                     01321  0000000        000071
12042956441000101SOLUCOES ACO USIMINAS                                                 0000000034100000000000000000000000000000858616390000002271409750017315102     201209272012080200000000054690000579374000000000580533000000000000000000000000001159050000000000  3020120928   01          2                                                                                   3112271409750293807258000019                                                  N                     01321  0000000        000072
12042956441000101SOLUCOES ACO USIMINAS                                                 0000000034100000000000000000000000000000858616400000002271409760017316002     201209272012080200000000054690000929451000000000931310000000000000000000000000001859050000000000  3020120928   01          2                                                                                   3112271409768293807258000079                                                  N                     01321  0000000        000073
12042956441000101SOLUCOES ACO USIMINAS                                                 0000000034100000000000000000000000000000847452100000002216130340017012402     201209102012071500000000054520000147428000000000152738000000000000000000000000005310050000000000  3020120928   01          2                                                                                   3112216130347293807258000059                                                  N                     01321  0000000        000074
12042956441000101SOLUCOES ACO USIMINAS                                                 0000000034100000000000000000000000000000848180700000002220192900017041002     201209112012071700000000054530000155433000000000160720000000000000000000000000005287050000000000  3020120928   01          2                                                                                   3112220192903293807258000029                                                  N                     01321  0000000        000075
12042956441000101SOLUCOES ACO USIMINAS                                                 0000000034100000000000000000000000000000848180710000002220192910017041202     201209112012071700000000054530000205421000000000212408000000000000000000000000006987050000000000  3020120928   01          2                                                                                   3112220192911293807258000019                                                  N                     01321  0000000        000076
12042956441000101SOLUCOES ACO USIMINAS                                                 0000000034100000000000000000000000000000850740460000002233586800017127201     201208202012072000000000054310000137881000000000148645000000000000000000000000010764050000000000  3020120928   01          2                                                                                   3112233586802293807258000019                                                  N                     01321  0000000        000077
12042956441000101SOLUCOES ACO USIMINAS                                                 0000000034100000000000000000000000000000850740470000002233586810017101002     201209142012071900000000054560000732575000000000753085000000000000000000000000020510050000000000  3020120928   01          2                                                                                   3112233586810293807258000019                                                  N                     01321  0000000        000078
12042956441000101SOLUCOES ACO USIMINAS                                                 0000000034100000000000000000000000000000850740480000002233586820017101202     201209142012071900000000054560000144634000000000148680000000000000000000000000004046050000000000  3020120928   01          2                                                                                   3112233586828293807258000029                                                  N                     01321  0000000        000079
12042956441000101SOLUCOES ACO USIMINAS                                                 0000000034100000000000000000000000000000850740490000002233586830017126902     201209172012072000000000054590000208392000000000212979000000000000000000000000004587050000000000  3020120928   01          2                                                                                   3112233586836293807258000089                                                  N                     01321  0000000        000080
12042956441000101SOLUCOES ACO USIMINAS                                                 0000000034100000000000000000000000000000850740500000002233586840017127002     201209172012072000000000054590000190428000000000194619000000000000000000000000004191050000000000  3020120928   01          2                                                                                   3112233586844293807258000019                                                  N                     01321  0000000        000081
12042956441000101SOLUCOES ACO USIMINAS                                                 0000000034100000000000000000000000000000850740510000002233586850017127102     201209172012072000000000054590000167727000000000171412000000000000000000000000003685050000000000  3020120928   01          2                                                                                   3112233586851293807258000039                                                  N                     01321  0000000        000082
12042956441000101SOLUCOES EM ACO USIMINAS S A                                          000000000010000000000000000000000000000083138704000000083117000000165994003   201209112012062000000000054530000233496000000000237699000000000000000000000000004670050000000000  3020120920   05          3                                                                                   3000000169660100000831171729                                                  N                     01321  0000000        000083
12042956441000101SOLUCOES ACO USIMINAS                                                 0000000034100000000000000000000000000000858616410000002271409770017319302     201209272012080200000000054690000981526000000000983489000000000000000000000000001963050000000000  3020120928   01          2                                                                                   3112271409776293807258000019                                                  N                     01321  0000000        000084
12042956441000101SOLUCOES ACO USIMINAS                                                 0000000034100000000000000000000000000000855028670000002254329360017200402     201209202012072600000000054620000163224000000000165832000000000000000000000000002608050000000000  3020120928   01          2                                                                                   3112254329363293807258000069                                                  N                     01321  0000000        000085
12042956441000101SOLUCOES ACO USIMINAS                                                 0000000034100000000000000000000000000000855028680000002254329370017202402     201209202012072600000000054620000244136000000000248040000000000000000000000000003904050000000000  3020120928   01          2                                                                                   3112254329371293807258000079                                                  N                     01321  0000000        000086
12042956441000101SOLUCOES ACO USIMINAS                                                 0000000034100000000000000000000000000000855028690000002254329380017212902     201209212012072600000000054630000140098000000000142058000000000000000000000000001960050000000000  3020120928   01          2                                                                                   3112254329389293807258000019                                                  N                     01321  0000000        000087
12042956441000101SOLUCOES ACO USIMINAS                                                 0000000034100000000000000000000000000000855028700000002254329390017213002     201209212012072600000000054630000140602000000000142569000000000000000000000000001967050000000000  3020120928   01          2                                                                                   3112254329397293807258000089                                                  N                     01321  0000000        000088
12042956441000101SOLUCOES ACO USIMINAS                                                 0000000034100000000000000000000000000000855028720000002254329340017200202     201209202012072600000000054620000680385000000000691273000000000000000000000000010888050000000000  3020120928   01          2                                                                                   3112254329348293807258000079                                                  N                     01321  0000000        000089
12042956441000101SOLUCOES ACO USIMINAS                                                 0000000034100000000000000000000000000000858616420000002271409780017319402     201209272012080200000000054690000178902000000000179260000000000000000000000000000358050000000000  3020120928   01          2                                                                                   3112271409784293807258000029                                                  N                     01321  0000000        000090
12042956441000101SOLUCOES ACO USIMINAS                                                 0000000034100000000000000000000000000000858616430000002271409790017319502     201209272012080200000000054690000197380000000000197775000000000000000000000000000395050000000000  3020120928   01          2                                                                                   3112271409792293807258000049                                                  N                     01321  0000000        000091
12042956441000101SOLUCOES ACO USIMINAS                                                 0000000034100000000000000000000000000000858616440000002271409800017319602     201209272012080200000000054690000197044000000000197438000000000000000000000000000394050000000000  3020120928   01          2                                                                                   3112271409800293807258000019                                                  N                     01321  0000000        000092
12042956441000101SOLUCOES ACO USIMINAS                                                 0000000034100000000000000000000000000000858616450000002271409810017319702     201209272012080200000000054690000197212000000000197606000000000000000000000000000394050000000000  3020120928   01          2                                                                                   3112271409818293807258000019                                                  N                     01321  0000000        000093
12042956441000101SOLUCOES ACO USIMINAS                                                 0000000034100000000000000000000000000000858616460000002271409820017319802     201209272012080200000000054690000194525000000000194914000000000000000000000000000389050000000000  3020120928   01          2                                                                                   3112271409826293807258000079                                                  N                     01321  0000000        000094
12042956441000101SOLUCOES ACO USIMINAS                                                 0000000034100000000000000000000000000000841725590000002188168660016885103     201209272012070500000000054690000219722000000000220161000000000000000000000000000439050000000000  3020120928   01          2                                                                                   3112188168663293807258000049                                                  N                     01321  0000000        000095
12042956441000101SOLUCOES ACO USIMINAS                                                 0000000034100000000000000000000000000000855028730000002254329350017200302     201209202012072600000000054620000156896000000000159408000000000000000000000000002512050000000000  3020120928   01          2                                                                                   3112254329355293807258000029                                                  N                     01321  0000000        000096
12042956441000101SOLUCOES ACO USIMINAS                                                 0000000034100000000000000000000000000000855028770000002254329400017220502     201209212012072700000000054630000981022000000000994756000000000000000000000000013734050000000000  3020120928   01          2                                                                                   3112254329405293807258000099                                                  N                     01321  0000000        000097
12042956441000101SOLUCOES ACO USIMINAS                                                 0000000034100000000000000000000000000000841725600000002188168670016891203     201209272012070500000000054690001132542000000001134807000000000000000000000000002265050000000000  3020120928   01          2                                                                                   3112188168671293807258000069                                                  N                     01321  0000000        000098
12042956441000101SOLUCOES ACO USIMINAS                                                 0000000034100000000000000000000000000000841725610000002188168680016891403     201209272012070500000000054690000795233000000000796823000000000000000000000000001590050000000000  3020120928   01          2                                                                                   3112188168689293807258000029                                                  N                     01321  0000000        000099
12042956441000101SOLUCOES ACO USIMINAS                                                 0000000034100000000000000000000000000000841725540000002188168620016859403     201209262012070400000000054680000164455000000000165113000000000000000000000000000658050000000000  3020120928   01          2                                                                                   3112188168622293807258000019                                                  N                     01321  0000000        000100
12042956441000101SOLUCOES ACO USIMINAS                                                 0000000034100000000000000000000000000000841725550000002188168630016859503     201209262012070400000000054680000234336000000000235274000000000000000000000000000938050000000000  3020120928   01          2                                                                                   3112188168630293807258000089                                                  N                     01321  0000000        000101
12042956441000101SOLUCOES ACO USIMINAS                                                 0000000034100000000000000000000000000000841725560000002188168640016884803     201209272012070500000000054690000120612000000000120853000000000000000000000000000241050000000000  3020120928   01          2                                                                                   3112188168648293807258000059                                                  N                     01321  0000000        000102
12042956441000101SOLUCOES ACO USIMINAS                                                 0000000034100000000000000000000000000000841725570000002188168690016891503     201209272012070500000000054690001128343000000001130600000000000000000000000000002257050000000000  3020120928   01          2                                                                                   3112188168697293807258000039                                                  N                     01321  0000000        000103
12042956441000101SOLUCOES ACO USIMINAS                                                 0000000034100000000000000000000000000000846595700000002210880280016980502     201209102012071200000000054520000156071000000000161687000000000000000000000000005616050000000000  3020120928   01          2                                                                                   3112210880285293807258000039                                                  N                     01321  0000000        000104
12042956441000101SOLUCOES ACO USIMINAS                                                 0000000034100000000000000000000000000000846595710000002210880290016980602     201209102012071200000000054520000426094000000000441430000000000000000000000000015336050000000000  3020120928   01          2                                                                                   3112210880293293807258000019                                                  N                     01321  0000000        000105
12042956441000101SOLUCOES ACO USIMINAS                                                 0000000034100000000000000000000000000000853154830000002246247020017196602     201209202012072500000000054620000804808000000000817688000000000000000000000000012880050000000000  3020120928   01          2                                                                                   3112246247020293807258000089                                                  N                     01321  0000000        000106
12042956441000101SOLUCOES ACO USIMINAS                                                 0000000034100000000000000000000000000000853154840000002246247030017196702     201209202012072500000000054620000234841000000000238601000000000000000000000000003760050000000000  3020120928   01          2                                                                                   3112246247038293807258000099                                                  N                     01321  0000000        000107
12042956441000101SOLUCOES ACO USIMINAS                                                 0000000034100000000000000000000000000000853154850000002246247040017197302     201209202012072500000000054620000970103000000000985623000000000000000000000000015520050000000000  3020120928   01          2                                                                                   3112246247046293807258000019                                                  N                     01321  0000000        000108
12042956441000101SOLUCOES ACO USIMINAS                                                 0000000034100000000000000000000000000000836417910000002164218370016738103     201209192012062700000000054610000830173000000000845113000000000000000000000000014940050000000000  3020120928   01          2                                                                                   3112164218375293807258000039                                                  N                     01321  0000000        000109
12042956441000101SOLUCOES ACO USIMINAS                                                 0000000034100000000000000000000000000000841725580000002188168650016884903     201209272012070500000000054690000531835000000000532899000000000000000000000000001064050000000000  3020120928   01          2                                                                                   3112188168655293807258000019                                                  N                     01321  0000000        000110
12042956441000101SOLUCOES ACO USIMINAS                                                 0000000034100000000000000000000000000000840313040000002181699250016829703     201209242012070200000000054660000643711000000000648859000000000000000000000000005148050000000000  3020120928   01          2                                                                                   3112181699250293807258000019                                                  N                     01321  0000000        000111
12042956441000101SOLUCOES ACO USIMINAS                                                 0000000034100000000000000000000000000000840313050000002181699260016829803     201209242012070200000000054660000322527000000000325107000000000000000000000000002580050000000000  3020120928   01          2                                                                                   3112181699268293807258000029                                                  N                     01321  0000000        000112
12042956441000101SOLUCOES ACO USIMINAS                                                 0000000034100000000000000000000000000000840313080000002181699230016814403     201209242012070200000000054660000968423000000000976171000000000000000000000000007748050000000000  3020120928   01          2                                                                                   3112181699235293807258000079                                                  N                     01321  0000000        000113
12042956441000101SOLUCOES ACO USIMINAS                                                 0000000034100000000000000000000000000000840313090000002181699240016827103     201209242012070200000000054660000703009000000000708633000000000000000000000000005624050000000000  3020120928   01          2                                                                                   3112181699243293807258000019                                                  N                     01321  0000000        000114
12042956441000101SOLUCOES ACO USIMINAS                                                 0000000034100000000000000000000000000000847452070000002216130350005922202     201209102012071600000000054520000172071000000000178263000000000000000000000000006192050000000000  3020120928   01          2                                                                                   3112216130354293807258000049                                                  N                     01321  0000000        000115
12043217850000159IOB INFORMACOES OBJ  PUBL JURI                                        0000000023702374400000002958600 000000008711912800902243000063301440820F2     201209202012083000000000054620000072850000000000074499000000000000000000000000001649050000000000  3020120928   01          2  R GANGES 528                                                                     3                         000000000000000                                     N                     00598  0000000        000116
12043217850000159IOB INFORMACOES OBJ  PUBL JURI                                        0000000023702374400000002958600 000000008540495200902212000099001440820E4     201208202012073000000000054310000072850000000000075243000000000000000000000000002393050000000000  3020120928   01          2  GANGES 528 VL NOVA MANCHESTER                                                    3                         000000000000000                                     N                     00598  0000000        000117
12047190731000100DE CASTRO LOUR ENG IND LTDA                                           00000000341000000000000000000000000000008782052000000023399955303026632 0     201209192012082200000000054610000952073000000000968921000000000000000000000000016848050000000000  3020120928   01          2                                                                                   3112339995535036884500400019                                                  N                     01321  0000000        000118
12047190731000100DE CASTRO LOUR ENG IND LTDA                                           00000000341000000000000000000000000000008782052100000023399955903026643 0     201209202012082300000000054620000867039000000000880679000000000000000000000000013640050000000000  3020120928   01          2                                                                                   3112339995592036884500400049                                                  N                     01321  0000000        000119
12047190731000100DE CASTRO LOUR ENG IND LTDA                                           00000000341000000000000000000000000000008782058900000023602714603026734 0     201209252012082800000000054670000997834000000001003720000000000000000000000000005886050000000000  3020120928   01          2                                                                                   3112360271467036884500400039                                                  N                     01321  0000000        000120
12047190731000100DE CASTRO LOUR ENG IND LTDA                                           00000000341000000000000000000000000000008782059300000023602715203026745 0     201209262012082900000000054680000903175000000000906727000000000000000000000000003552050000000000  3020120928   01          2                                                                                   3112360271525036884500400069                                                  N                     01321  0000000        000121
12047190731000100DE CASTRO LOUR ENG IND LTDA                                           00000000341000000000000000000000000000008782059800000023602714903026744 0     201209272012082900000000054690000146594000000000146882000000000000000000000000000288050000000000  3020120928   01          2                                                                                   3112360271491036884500400089                                                  N                     01321  0000000        000122
12047190731000100DE CASTRO LOUR ENG IND LTDA                                           00000000341000000000000000000000000000008782052500000023399955603026636 0     201209192012082200000000054610000940804000000000957454000000000000000000000000016650050000000000  3020120928   01          2                                                                                   3112339995568036884500400049                                                  N                     01321  0000000        000123
12047190731000100DE CASTRO LOUR ENG IND LTDA                                           00000000341000000000000000000000000000008782051200000023399953803026613 0     201209182012082100000000054600001107989000000001129779000000000000000000000000021790050000000000  3020120928   01          2                                                                                   3112339995386036884500400039                                                  N                     01321  0000000        000124
12047190731000100DE CASTRO LOUR ENG IND LTDA                                           00000000341000000000000000000000000000008782052700000023399956203026648 0     201209202012082300000000054620000976053000000000991413000000000000000000000000015360050000000000  3020120928   01          2                                                                                   3112339995626036884500400029                                                  N                     01321  0000000        000125
12047190731000100DE CASTRO LOUR ENG IND LTDA                                           00000000341000000000000000000000000000008782051600000023399954103026614 0     201209182012082100000000054600001047621000000001068221000000000000000000000000020600050000000000  3020120928   01          2                                                                                   3112339995410036884500400039                                                  N                     01321  0000000        000126
12047190731000100DE CASTRO LOUR ENG IND LTDA                                           00000000341000000000000000000000000000008782050900000023399953503026612 0     201209182012082100000000054600001111489000000001133349000000000000000000000000021860050000000000  3020120928   01          2                                                                                   3112339995352036884500400019                                                  N                     01321  0000000        000127
12051180370000199IGUAFER FERRO E ACO LTDA                                              0000000034100000000000000000000000000000852309100000002239389789443 B         201209022012071800000000054440000168275000000000175555000000000000000000000000007280050000000000  3020120928   01          2                                                                                   3112239389789077149484600089                                                  N                     01321  0000000        000128
12051180370000199IGUAFER FERRO E ACO LTDA                                              0000000034100000000000000000000000000000852309110000002239389799443 C         201209122012071800000000054540000168275000000000172755000000000000000000000000004480050000000000  3020120928   01          2                                                                                   3112239389797077149484600089                                                  N                     01321  0000000        000129
12051180370000199IGUAFER FERRO E ACO LTDA                                              0000000034100000000000000000000000000000852309120000002239389809443 D         201209222012071800000000054640000168275000000000169955000000000000000000000000001680050000000000  3020120928   01          2                                                                                   3112239389805077149484600029                                                  N                     01321  0000000        000130
12051598472000129ELETRICA J SANTOS                                                     0000000023702451100000000000264 000000008586165500902219000005118310 01       201209102012080400000000054520000104146000000000106575000000000000000000000000002776050000000000  3020120917   06          3  R JUNO  533                                                                      300000000000000000141500  000000000000000                                     N                     00598  0000000        000131
12053585766000141MULTIACOS INDUSTRIA E COMERCIO                                        0000000000100000000000000000000000000000878205480000006553380000004360703     201209182012082800000000054600001201246000000001205250000000000000000000000000006006050000000000  3020120920   05          3                                                                                   3044016553381912000139523159                                                  N                     01321  0000000        000132
12053585766000141MULTIACOS INDUSTRIA E COMERCIO                                        0000000000100000000000000000000000000000878205500000006553760000004423602     201209182012082800000000054600000606735000000000608757000000000000000000000000003033050000000000  3020120920   05          3                                                                                   3044016553761912000139523129                                                  N                     01321  0000000        000133
12053585766000141MULTIACOS INDUSTRIA E COMERCIO                                        0000000000100000000000000000000000000000878205510000006553770000004423702     201209182012082800000000054600000535467000000000537251000000000000000000000000002676050000000000  3020120920   05          3                                                                                   3044016553771912000139523169                                                  N                     01321  0000000        000134
12053585766000141MULTIACOS INDUSTRIA E COMERCIO                                        0000000000100000000000000000000000000000878205580000006554650000004500801     201209182012082800000000054600000178642000000000179238000000000000000000000000000894050000000000  3020120920   05          3                                                                                   3044016554651912000139523169                                                  N                     01321  0000000        000135
12053585766000141MULTIACOS INDUSTRIA E COMERCIO                                        0000000000100000000000000000000000000000878205590000006554660000004500901     201209182012082800000000054600000991746000000000995052000000000000000000000000004959050000000000  3020120920   05          3                                                                                   3044016554661912000139523119                                                  N                     01321  0000000        000136
12053585766000141MULTIACOS INDUSTRIA E COMERCIO                                        0000000000100000000000000000000000000000878205600000006554670000004501001     201209182012082800000000054600000930228000000000933328000000000000000000000000004650050000000000  3020120920   05          3                                                                                   3044016554671912000139523119                                                  N                     01321  0000000        000137
12053585766000141MULTIACOS I C PRODS TEC LTDA                                          0000000042200000000000000000000000000000890456910000000000000000004724101     201211062012092500000000055090000131776000000000131776000000000000000000000000000000050000000000  3020121106   01FS        1                                                                                   3711500005033164925775126119                                                  N                     01321  0000000        000138
12053585766000141MULTIACOS I C PRODS TEC LTDA                                          0000000042200000000000000000000000000000890456920000000000000000004724102     201211202012092500000000055230000127900000000000127900000000000000000000000000000000050000000000  3020121120   01FS        1                                                                                   3711500005033164925775134149                                                  N                     01321  0000000        000139
12053585766000141MULTIACOS I C PRODS TEC LTDA                                          0000000042200000000000000000000000000000890456930000000000000000004724403     201211302012092500000000055330000522661000000000522661000000000000000000000000000000050000000000  3020121130   01FS        1                                                                                   3711500005033164925775118129                                                  N                     01321  0000000        000140
12053585766000141MULTIACOS I C PRODS TEC LTDA                                          0000000042200000000000000000000000000000890456940000000000000000004724402     201211162012092500000000055190000522661000000000522661000000000000000000000000000000050000000000  3020121116   01FS        1                                                                                   3711500005033164925775193119                                                  N                     01321  0000000        000141
12053585766000141MULTIACOS I C PRODS TEC LTDA                                          0000000042200000000000000000000000000000890456950000000000000000004650302     201210312012092500000000055030000228607000000000228607000000000000000000000000000000050000000000  3020121031   01FS        1                                                                                   3711500005033164925775207159                                                  N                     01321  0000000        000142
12053585766000141MULTIACOS I C PRODS TEC LTDA                                          0000000042200000000000000000000000000000890456960000000000000000004724103     201212042012092500000000055370000127900000000000127900000000000000000000000000000000050000000000  3020121204   01FS        1                                                                                   3711500005033164925775142129                                                  N                     01321  0000000        000143
12053585766000141MULTIACOS I C PRODS TEC LTDA                                          0000000042200000000000000000000000000000890456970000000000000000004724301     201211022012092500000000055050000276404000000000276404000000000000000000000000000000050000000000  3020121105   01FS        1                                                                                   3711500005033164925775151159                                                  N                     01321  0000000        000144
12053585766000141MULTIACOS I C PRODS TEC LTDA                                          0000000042200000000000000000000000000000890456980000000000000000004724302     201211162012092500000000055190000268274000000000268274000000000000000000000000000000050000000000  3020121116   01FS        1                                                                                   3711500005033164925775169159                                                  N                     01321  0000000        000145
12053585766000141MULTIACOS I C PRODS TEC LTDA                                          0000000042200000000000000000000000000000890456990000000000000000004724401     201211022012092500000000055050000538498000000000538498000000000000000000000000000000050000000000  3020121105   01FS        1                                                                                   3711500005033164925775185129                                                  N                     01321  0000000        000146
12053585766000141MULTIACOS I C PRODS TEC LTDA                                          0000000042200000000000000000000000000000890457000000000000000000004724303     201211302012092500000000055330000268274000000000268274000000000000000000000000000000050000000000  3020121130   01FS        1                                                                                   3711500005033164925775177139                                                  N                     01321  0000000        000147
12053585766000141MULTIACOS I C PRODS TEC LTDA                                          0000000042200000000000000000000000000000890457010000000000000000004650403     201211142012092500000000055170000192957000000000192957000000000000000000000000000000050000000000  3020121114   01FS        1                                                                                   3711500005033164925775231119                                                  N                     01321  0000000        000148
12053585766000141MULTIACOS I C PRODS TEC LTDA                                          0000000042200000000000000000000000000000890457020000000000000000004604502     201210222012092500000000054940000910103000000000910103000000000000000000000000000000050000000000  3020121022   01FS        1                                                                                   3711500005033164925775240159                                                  N                     01321  0000000        000149
12053585766000141MULTIACOS I C PRODS TEC LTDA                                          0000000042200000000000000000000000000000890457030000000000000000004604503     201211052012092500000000055080000910103000000000910103000000000000000000000000000000050000000000  3020121105   01FS        1                                                                                   3711500005033164925775258149                                                  N                     01321  0000000        000150
12053585766000141MULTIACOS I C PRODS TEC LTDA                                          0000000042200000000000000000000000000000890457040000000000000000004650303     201211142012092500000000055170000228607000000000228607000000000000000000000000000000050000000000  3020121114   01FS        1                                                                                   3711500005033164925775215139                                                  N                     01321  0000000        000151
12053585766000141MULTIACOS I C PRODS TEC LTDA                                          0000000042200000000000000000000000000000890457050000000000000000004650402     201210312012092500000000055030000192957000000000192957000000000000000000000000000000050000000000  3020121031   01FS        1                                                                                   3711500005033164925775223129                                                  N                     01321  0000000        000152
12053585766000141MULTIACOS IND  COM  PROD  TEC                                         0000000038900000000000000000000000000000878205390000000000000000004462402     201209242012073000000000054660000761496000000000766572000000000000000000000000005076050000000000  3020120928   01          2                                                                                   3015601031416193000042309239                                                  N                     01321  0000000        000153
12053585766000141MULTIACOS IND  COM  PROD  TEC                                         0000000038900000000000000000000000000000878205400000000000000000004532101     201209242012081300000000054660000910692000000000916764000000000000000000000000006072050000000000  3020120928   01          2                                                                                   3015601031416320000042309219                                                  N                     01321  0000000        000154
12053585766000141MULTIACOS IND  COM  PROD  TEC                                         0000000038900000000000000000000000000000878205410000000000000000004532301     201209242012081300000000054660000265180000000000266948000000000000000000000000001768050000000000  3020120928   01          2                                                                                   3015601031416339000042309269                                                  N                     01321  0000000        000155
12053585766000141MULTIACOS IND  COM  PROD  TEC                                         0000000038900000000000000000000000000000878205420000000000000000004462202     201209242012073000000000054660000569064000000000572856000000000000000000000000003792050000000000  3020120928   01          2                                                                                   3015601031416177000042309239                                                  N                     01321  0000000        000156
12053585766000141MULTIACOS I C PRODS TEC LTDA                                          0000000042200000000000000000000000000000878205680000000000000000004545101     201209262012082800000000054680000314360000000000315407000000000000000000000000001047050000000000  3020120928   01          2                                                                                   3711500005033164917492641129                                                  N                     01321  0000000        000157
12053585766000141MULTIACOS I C PRODS TEC LTDA                                          0000000042200000000000000000000000000000878205770000000000000000004545201     201209262012082800000000054680001035014000000001038463000000000000000000000000003449050000000000  3020120928   01          2                                                                                   3711500005033164917492668129                                                  N                     01321  0000000        000158
12053585766000141MULTIACOS I C PRODS TEC LTDA                                          0000000042200000000000000000000000000000878205780000000000000000004479002     201209272012082800000000054690000831267000000000832651000000000000000000000000001384050000000000  3020120928   01          2                                                                                   3711500005033164917492676169                                                  N                     01321  0000000        000159
12053585766000141MULTIACOS I C PRODS TEC LTDA                                          0000000042200000000000000000000000000000878205790000000000000000004478802     201209272012082800000000054690000211226000000000211577000000000000000000000000000351050000000000  3020120928   01          2                                                                                   3711500005033164917492684119                                                  N                     01321  0000000        000160
12053585766000141MULTIACOS I C PRODS TEC LTDA                                          0000000042200000000000000000000000000000878205800000000000000000004391503     201209252012082800000000054670000319418000000000321013000000000000000000000000001595050000000000  3020120928   01          2                                                                                   3711500005033164917492692119                                                  N                     01321  0000000        000161
12053585766000141MULTIACOS I C PRODS TEC LTDA                                          0000000042200000000000000000000000000000878205690000000000000000004539301     201209252012082800000000054670001052408000000001057668000000000000000000000000005260050000000000  3020120928   01          2                                                                                   3711500005033164917492650119                                                  N                     01321  0000000        000162
12053585766000141MULTIACOS I C PRODS TEC LTDA                                          0000000042200000000000000000000000000000878205720000000000000000004478902     201209272012082800000000054690000130644000000000130861000000000000000000000000000217050000000000  3020120928   01          2                                                                                   3711500005033164917492625119                                                  N                     01321  0000000        000163
12053585766000141MULTIACOS I C PRODS TEC LTDA                                          0000000042200000000000000000000000000000878205730000000000000000004553201     201209272012082800000000054690001148798000000001150711000000000000000000000000001913050000000000  3020120928   01          2                                                                                   3711500005033164917492633119                                                  N                     01321  0000000        000164
12053585766000141MULTIACOS I C PRODS TEC LTDA                                          0000000042200000000000000000000000000000878205740000000000000000004391603     201209252012082800000000054670000354262000000000356031000000000000000000000000001769050000000000  3020120928   01          2                                                                                   3711500005033164917492706179                                                  N                     01321  0000000        000165
12053585766000141MULTIACOS I C PRODS TEC LTDA                                          0000000042200000000000000000000000000000878205750000000000000000004391703     201209252012082800000000054670000342203000000000343912000000000000000000000000001709050000000000  3020120928   01          2                                                                                   3711500005033164917492714159                                                  N                     01321  0000000        000166
12053585766000141MULTIACOS IND  COM  PROD  TEC                                         0000000038900000000000000000000000000000878205380000000000000000004462302     201209242012073000000000054660000262786000000000264538000000000000000000000000001752050000000000  3020120928   01          2                                                                                   3015601031416185000042309219                                                  N                     01321  0000000        000167
12054382510000108SETENTA IND E COM DE MADEIRAS                                         0000000034100000000000000000000000000000860403430000002277814474462 A         201209042012080700000000054460000191200000000000200224000000000000000000000000009024050000000000  3020120928   01          2                                                                                   3112277814474057049175300069                                                  N                     01321  0000000        000168
12054382510000108SETENTA IND E COM DE MADEIRAS                                         0000000034100000000000000000000000000000874070720000002305114064536 A         201209192012081600000000054610000191200000000000194584000000000000000000000000003384050000000000  3020120928   01          2                                                                                   3112305114061057002848000039                                                  N                     01321  0000000        000169
12056993900000131CIA METALURGICA PRADA                                                 0000000034100000000000000000000000000000855028570000002254750270026244302     201209242012072800000000054660000100684000000000101356000000000000000000000000000672050000000000  3020120928   01          2                                                                                   3112254750279293800573900089                                                  N                     01321  0000000        000170
12056993900000131CIA METALURGICA PRADA                                                 0000000034100000000000000000000000000000844839000000002201181880025629402     201209052012071100000000054470000249372000000000258940000000000000000000000000009568050000000000  3020120928   01          2                                                                                   3112201181883293800573900019                                                  N                     01321  0000000        000171
12056993900000131CIA METALURGICA PRADA                                                 0000000034100000000000000000000000000000844839010000002201181890025635302     201209052012071100000000054470000406842000000000422436000000000000000000000000015594050000000000  3020120928   01          2                                                                                   3112201181891293800573900019                                                  N                     01321  0000000        000172
12056993900000131CIA METALURGICA PRADA                                                 0000000034100000000000000000000000000000844839020000002201181900025635402     201209052012071100000000054470000208689000000000216693000000000000000000000000008004050000000000  3020120928   01          2                                                                                   3112201181909293800573900069                                                  N                     01321  0000000        000173
12056993900000131CIA METALURGICA PRADA                                                 0000000034100000000000000000000000000000855028580000002254750280026244402     201209242012072800000000054660000084115000000000084675000000000000000000000000000560050000000000  3020120928   01          2                                                                                   3112254750287293800573900039                                                  N                     01321  0000000        000174
12056993900000131CIA METALURGICA PRADA                                                 0000000034100000000000000000000000000000844839030000002201181910025635502     201209052012071100000000054470000164780000000000171105000000000000000000000000006325050000000000  3020120928   01          2                                                                                   3112201181917293800573900029                                                  N                     01321  0000000        000175
12056993900000131CIA METALURGICA PRADA                                                 0000000034100000000000000000000000000000844839060000002201181940025644402     201209052012071100000000054470000779647000000000809524000000000000000000000000029877050000000000  3020120928   01          2                                                                                   3112201181941293800573900019                                                  N                     01321  0000000        000176
12056993900000131CIA METALURGICA PRADA                                                 0000000034100000000000000000000000000000844839140000002201181870025629302     201209052012071100000000054470000257906000000000267796000000000000000000000000009890050000000000  3020120928   01          2                                                                                   3112201181875293800573900069                                                  N                     01321  0000000        000177
12056993900000131CIA METALURGICA PRADA                                                 0000000034100000000000000000000000000000837460410000002165934370025295503     201209202012062800000000054620000339048000000000343568000000000000000000000000004520050000000000  3020120928   01          2                                                                                   3112165934376293800573900029                                                  N                     01321  0000000        000178
12056993900000131CIA METALURGICA PRADA                                                 0000000034100000000000000000000000000000844839040000002201181920025635602     201209052012071100000000054470000339933000000000352974000000000000000000000000013041050000000000  3020120928   01          2                                                                                   3112201181925293800573900069                                                  N                     01321  0000000        000179
12056993900000131CIA METALURGICA PRADA                                                 0000000034100000000000000000000000000000844839050000002201181930025636202     201209052012071100000000054470000746213000000000774825000000000000000000000000028612050000000000  3020120928   01          2                                                                                   3112201181933293800573900019                                                  N                     01321  0000000        000180
12056993900000131CIA METALURGICA PRADA                                                 0000000034100000000000000000000000000000837460440000002165934360025295403     201209202012062800000000054620000152797000000000154837000000000000000000000000002040050000000000  3020120928   01          2                                                                                   3112165934368293800573900019                                                  N                     01321  0000000        000181
12056993900000131CIA METALURGICA PRADA                                                 0000000034100000000000000000000000000000837460450000002165934380025295603     201209202012062800000000054620000154165000000000156221000000000000000000000000002056050000000000  3020120928   01          2                                                                                   3112165934384293800573900039                                                  N                     01321  0000000        000182
12056993900000131CIA METALURGICA PRADA                                                 0000000034100000000000000000000000000000837460460000002165934390025295703     201209202012062800000000054620000139528000000000141392000000000000000000000000001864050000000000  3020120928   01          2                                                                                   3112165934392293800573900029                                                  N                     01321  0000000        000183
12056993900000131CIA METALURGICA PRADA                                                 0000000034100000000000000000000000000000838527930000002171340470025383503     201209242012063000000000054660000575127000000000578963000000000000000000000000003836050000000000  3020120928   01          2                                                                                   3112171340477293800573900069                                                  N                     01321  0000000        000184
12056993900000131CIA METALURGICA PRADA                                                 0000000034100000000000000000000000000000848180630000002218222680025830002     201209112012071700000000054530000247673000000000254694000000000000000000000000007021050000000000  3020120928   01          2                                                                                   3112218222688293800573900059                                                  N                     01321  0000000        000185
12056993900000131CIA METALURGICA PRADA                                                 0000000034100000000000000000000000000000848180640000002218222690025830102     201209112012071700000000054530000207402000000000213284000000000000000000000000005882050000000000  3020120928   01          2                                                                                   3112218222696293800573900039                                                  N                     01321  0000000        000186
12056993900000131CIA METALURGICA PRADA                                                 0000000034100000000000000000000000000000848180620000002218222670025829902     201209112012071700000000054530000498118000000000512228000000000000000000000000014110050000000000  3020120928   01          2                                                                                   3112218222670293800573900029                                                  N                     01321  0000000        000187
12056993900000131CIA METALURGICA PRADA                                                 0000000034100000000000000000000000000000824820100000002102181160024711603     201208292012060600000000054400000833146000000000874816000000000000000000000000041670050000000000  3020120928   01          2                                                                                   3112102181164293800573900039                                                  N                     01321  0000000        000188
12056993900000131CIA METALURGICA PRADA                                                 0000000034100000000000000000000000000000838527940000002171340480025384303     201209242012063000000000054660000454478000000000457506000000000000000000000000003028050000000000  3020120928   01          2                                                                                   3112171340485293800573900029                                                  N                     01321  0000000        000189
12056993900000131CIA METALURGICA PRADA                                                 0000000034100000000000000000000000000000840312930000002179478290025419302     201208282012070300000000054390000402178000000000422948000000000000000000000000020770050000000000  3020120928   01          2                                                                                   3112179478295293800573900089                                                  N                     01321  0000000        000190
12056993900000131CIA METALURGICA PRADA                                                 0000000034100000000000000000000000000000840312940000002179478300025419402     201208282012070300000000054390000322804000000000339482000000000000000000000000016678050000000000  3020120928   01          2                                                                                   3112179478303293800573900079                                                  N                     01321  0000000        000191
12056993900000131CIA METALURGICA PRADA                                                 0000000034100000000000000000000000000000840312960000002179478310025419303     201209252012070300000000054670000402178000000000404188000000000000000000000000002010050000000000  3020120928   01          2                                                                                   3112179478311293800573900069                                                  N                     01321  0000000        000192
12056993900000131CIA METALURGICA PRADA                                                 0000000034100000000000000000000000000000840312970000002179478320025419403     201209252012070300000000054670000322804000000000324418000000000000000000000000001614050000000000  3020120928   01          2                                                                                   3112179478329293800573900079                                                  N                     01321  0000000        000193
12057029431000106ATLAS COPCO BRASIL LTDA                                               0000000034100000000000000000000000000000863731640000002292733057000054146     201209072012081000000000054490000081450000000000082584000000000000000000000000001134050000000000  3020120928   01          2                                                                                   3112292733055293804111400099                                                  N                     01321  0000000        000194
12057029431000106ATLAS COPCO BRASIL LTDA                                               0000000034100000000000000000000000000000861960280000002283943487000054090     201209062012080900000000054480000059490000000000060348000000000000000000000000000858050000000000  3020120928   01          2                                                                                   3112283943481293804111400069                                                  N                     01321  0000000        000195
12057158057000130COMERCIAL ELETRICA PJ LTDA                                            0000000023703394400000000972983 00000000842436850090219200008900000305028     201208012012070400000000054120000079196000000000094187000000000000000000000000015254050000000000  3020120927   05          3  R TAMAINDE 1410                                                                  3                         000000000000000                                     N                     00598  0000000        000196
12057196081000164MINELE COMERCIO DE PARAFUSOS L                                        0000000023700298400000002047470 0000000086961109009022400000008538            201209102012082700000000054520000035981000000000037820000000000000000000000000001958050000000000  3020120917   06          3  R  GANGES  528   VL CARRAO                                                       3                         000000000000000                                     N                     00598  0000000        000197
12059659615000177DZ COMERCIO R E SERVICOS LTDA                                         000000003410000000000000000000000000000086699205000000900000268252            201209172012081500000000054590000060000000000000061320000000000000000000000000001320050000000000  3020120928   01          2                                                                                   3109000002680000314585100059                                                  N                     01321  0000000        000198
12061217188000119TELAS METALICAS TELMETAL LTDA                                         0000000000100000000000000000000000000000864554310000000056150005494 3 3       201209252012081400000000054670000008494000000000008563000000000000000000000000000069050000000000  3020120928   01          2                                                                                   3000000115031800000056151739                                                  N                     01321  0000000        000199
