0000147602043799295000110ALTAMIRA INDUSTRIA METALURGICA LT       202000000184820120829212742             3                                                                                                  000000000000000                                                                                                                                                                                                                                                                                   000001
12042956441000101SOLUCOES EM ACO USIMINAS S A                                          0000000000100000 0000000000000  I000000000009658000000000000000               201208290000000000000000054400000660769000000000660769000000000000000000000000000000010000166815  3120120829   02BW        5000000               000000000000000                                               3000000169660100000865531749               0166815/02                         N                     01132 10020256        000002
12001031724000165NEW TR COM AGENC CARGAS LTDA                                          00000000341000000000000000000000000000008685926700000079244289512 0982        201208292012082300000000054400000339710000000000339710000000000000000000000000000000050000000000  3020120829   02BW        2000000               000000000000000                                               3157924428952295813499700019               12/0982.                           N                     01132 10020256        000003
12061217188000119TELAS METALICAS TELMETAL LTDA                                         0000000003300000000000000000000000000000854049670000009200000005425 1 3       201208272012073000000000054380000045018000000000045258000000000000000000000000000480050000000000  3020120829   02BW        2000000               000000000000000                                               3915435040000000047392020119               05425/01-03.                       N                     01132 10020256        000004
12042956441000101SOLUCOES EM ACO USIMINAS S A                                          0000000034100000 0000000000000  I000000000009661000000000000000               201208290000000000000000054400000242516000000000242516000000000000000000000000000000010000160934  3120120829   02BW        5000000               000000000000000                                               3181531693779293807258000019               0160934/03                         N                     01132 10020256        000005
12042956441000101SOLUCOES EM ACO USIMINAS S A                                          0000000034100000 0000000000000  I000000000009660000000000000000               201208290000000000000000054400000250086000000000250086000000000000000000000000000000010000161897  3120120829   02BW        5000000               000000000000000                                               3181531692169293807258000019               0161897/03                         N                     01132 10020256        000006
12042956441000101SOLUCOES EM ACO USIMINAS S A                                          0000000034100000 0000000000000  I000000000009659000000000000000               201208290000000000000000054400000345825000000000345825000000000000000000000000000000010000161900  3120120829   02BW        5000000               000000000000000                                               3181531688308293807258000059               0161900/03                         N                     01132 10020256        000007
12042956441000101SOLUCOES EM ACO USIMINAS S A                                          0000000034100000 0000000000000  I000000000009663000000000000000               201208290000000000000000054400000170801000000000170801000000000000000000000000000000010000171271  3120120829   02BW        5000000               000000000000000                                               3181531698851293807258000019               0171271/01                         N                     01132 10020256        000008
12042956441000101SOLUCOES EM ACO USIMINAS S A                                          0000000000100000 0000000000000  I000000000009664000000000000000               201208290000000000000000054400000127450000000000127450000000000000000000000000000000010000166829  3120120829   02BW        5000000               000000000000000                                               3000000169660100000865651789               0166829/02                         N                     01132 10020256        000009
12042956441000101SOLUCOES EM ACO USIMINAS S A                                          0000000034100000 0000000000000  I000000000009662000000000000000               201208290000000000000000054400000193914000000000193914000000000000000000000000000000010000171270  3120120829   02BW        5000000               000000000000000                                               3181531696608293807258000079               0171270/01                         N                     01132 10020256        000010
12068364900000151VR INDUSTRIA HELIOGRAFICA LTDA                                        0000000034100000 0000000000000  I000000000009668000000000000000               201208290000000000000000054400000018105000000000018105000000000000000000000000000000010000134204  3120120829   02BW        5000000               000000000000000                                               3109030022948013778941800019               134204                             N                     01132 10020256        000011
12042956441000101SOLUCOES EM ACO USIMINAS S A                                          0000000034100000 0000000000000  I000000000009666000000000000000               201208290000000000000000054400000212208000000000212208000000000000000000000000000000010000171269  3120120829   02BW        5000000               000000000000000                                               3181531966134293807258000029               0171269/01                         N                     01132 10020256        000012
12042956441000101SOLUCOES EM ACO USIMINAS S A                                          0000000000100000 0000000000000  I000000000009665000000000000000               201208290000000000000000054400000331242000000000331242000000000000000000000000000000010000166828  3120120829   02BW        5000000               000000000000000                                               3000000169660100000865621789               0166828/02                         N                     01132 10020256        000013
12001031724000165NEW TR COM AGENC CARGAS LTDA                                          00000000341000000000000000000000000000008685926600000079244336012 0980 MI     201208292012082300000000054400000169855000000000169855000000000000000000000000000000050000000000  3020120829   02BW        2000000               000000000000000                                               3157924433606295813499700069               12/0980                            N                     01132 10020256        000014
12061217188000119TELAS METALICAS TELMETAL LTDA                                         0000000000100000 0000000000000  I000000000009667000000000000000               201208290000000000000000054400000070338000000000070338000000000000000000000000000000010000005371  3120120829   02BW        5000000               000000000000000                                               3000000115031800000055641779               05371/01-03                        N                     01132 10020256        000015
900001600000000003178077                                                                                                                                                                                    000000000000000                                                                                                                                                                                                                                                    00001400761580003177837        000016
