0000147602043799295000110ALTAMIRA INDUSTRIA METALURGICA LT       202000000017720121129063744             1                                                                                                                                                                                                                                                                                                                                                                                                    000001
12001784706000154TRANSPORTES WARTHA LTDA                                               0000000023701775200000000260010 0000000092757543009022990000155SAO2681491     201211192012102500000000055220000070000000000000071890000000000000000000000000001890050000000000  3020121129   01          2  R  GANGES  528                                                                   3                         000000000000000                                     N                     00598  0000000        000002
12001852612000175BT EQUIPAMENTOS INDUSTRIAIS LT                                        000000000330000000000000000000000000000091471909000000800000000052674 1       201211282012103100000000055310000053280000000000054930000000000000000000000000001650050000000000  3020121129   01          2                                                                                   3913651000000003015580010419                                                  N                     01321  0000000        000003
12001895314000162COLETA INDUSTRIAL FIMAVAN LTDA                                        0000000034100000000000000000000000000000866992070000009002335349439           201208272012081700000000054380000123695000000000157095000000000000000000000000033400050000000000  3020121129   01          2                                                                                   3109002335346144604097200019                                                  N                     01321  0000000        000004
12003102481000134AB5 IND E COMERCIO LTDA EPP                                           0000000034100000000000000000000000000000909203330000009000042483169           201211202012102300000000055230000119250000000000121041000000000000000000000000001791050000000000  3020121129   01          2                                                                                   3109000042489003154755700039                                                  N                     01321  0000000        000005
12003372804000100TROPICAL CLEAN COMERCIAL LTDA                                         00000000033000000000000000000000000000009157341100000044000000058193          201211282012103000000000055310000043135000000000043279000000000000000000000000000144050000000000  3020121129   01          2                                                                                   3913215100000006405444020139                                                  N                     01321  0000000        000006
12003489596000123BEND FLEX I COMERCIO LTDA                                             000000003410000000000000000000000000000088350832000000171879874608            201209122012082100000000054540000695250000000000801876000000000000000000000000106626050000000000  3020121129   01          2                                                                                   3191718798744157734445800069                                                  N                     01321  0000000        000007
12003489596000123BEND FLEX I COMERCIO LTDA                                             000000003410000000000000000000000000000088599899000000171434574613            201209172012081600000000054590000585000000000000669023000000000000000000000000084023050000000000  3020121129   01          2                                                                                   3191714345748157734445800019                                                  N                     01321  0000000        000008
12004882911000140F C BRITO CARTUCHOS ME                                                00000000033000000000000000000000000000009174140400000029000000014860 A21      201211212012102400000000055240000039945000000000042232000000000000000000000000002287050000000000  3020121129   01          2                                                                                   3944753720000000109029010119                                                  N                     01321  0000000        000009
12004882911000140F C BRITO CARTUCHOS ME                                                00000000033000000000000000000000000000009286265500000081000000015157 A21      201212032012110500000000055360000027911000000000027911000000000000000000000000000000050000000000  3020121203   01FS        1                                                                                   3944753720000000111481010159                                                  N                     01321  0000000        000010
12005151518000140BELENUS DO BRASIL LTDA                                                000000000330000000000000000000000000000091026582000000100000000R132008212     201211222012102300000000055250000599040000000000612877000000000000000000000000013837050000000000  3020121129   01          2                                                                                   3918381050000000498610010479                                                  N                     01321  0000000        000011
12005151518000140BELENUS DO BRASIL LTDA                                                000000000010000000000000000000000000000089605039000000358106000R131268322     201211272012100400000000055300000078720000000000078980000000000000000000000000000520050000000000  3020121128   06          3                                                                                   3000000123933844123581063129                                                  N                     01321  0000000        000012
12005880850000145NEDERMAN BRASIL COM PROD EX LT                                        000000003410000000000000000000000000000086373178000000614350956002763 A       201209252012081400000000054670000289674000000000326724000000000000000000000000037050050000000000  3020121129   01          2                                                                                   3156143509568160829000100049                                                  N                     01321  0000000        000013
12006000195000156M B A MERCANTIL BRASILEIRA DE                                         0000000023700118P00000002130599 00000000865388290020222900000500009205B02     201210122012081500000000054840000348964000000000376900000000000000000000000000027936050000000000  3020121129   01          2  RUA JUNO  533                                                                    3                         000000000000000                                     N                     00598  0000000        000014
12006000195000156MBA MERCANTIL BRAS DE ACO LTDA                                        0000000034100000000000000000000000000000904173170000001671394420008925B03     201210122012071700000000054840000719580000000000787500000000000000000000000000067920050000000000  3020121129   01          2                                                                                   3191671394424064849251000069                                                  N                     01321  0000000        000015
12006000195000156M B A MERCANTIL BRASILEIRA DE                                         0000000023700118P00000002130599 00000000865388320020222900000530009206B02     201210132012081500000000054850000527560000000000568873000000000000000000000000041313050000000000  3020121129   01          2  RUA JUNO  533                                                                    3                         000000000000000                                     N                     00598  0000000        000016
12006000195000156MBA MERCANTIL BRAS DE ACO LTDA                                        0000000034100000000000000000000000000000904173180000001671394430008926B03     201210122012071700000000054840000387716000000000424340000000000000000000000000036624050000000000  3020121129   01          2                                                                                   3191671394432064849251000079                                                  N                     01321  0000000        000017
12006000195000156M B A MERCANTIL BRASILEIRA DE                                         0000000023700118P00000002130599 00000000865388260020222900000470009204B02     201210112012081500000000054830000127292000000000137680000000000000000000000000010388050000000000  3020121129   01          2  RUA JUNO  533                                                                    3                         000000000000000                                     N                     00598  0000000        000018
12006000195000156M B A MERCANTIL BRASILEIRA DE                                         0000000023700118P00000002130599 00000000868592690020223600000020009229B02     201210112012081600000000054830000253414000000000274092000000000000000000000000020678050000000000  3020121129   01          2  RUA JUNO  533                                                                    3                         000000000000000                                     N                     00598  0000000        000019
12006000195000156MBA MERCANTIL BRAS DE ACO LTDA                                        0000000034100000000000000000000000000000904173150000001667238300008870B03     201210092012071600000000054810000839951000000000924203000000000000000000000000084252050000000000  3020121129   01          2                                                                                   3191667238304064849251000039                                                  N                     01321  0000000        000020
12006000195000156MBA MERCANTIL BRAS DE ACO LTDA                                        0000000034100000000000000000000000000000885998980000001667238420008870B02     201209112012071600000000054530000839952000000000970460000000000000000000000000130508050000000000  3020121129   01          2                                                                                   3191667238429064849251000039                                                  N                     01321  0000000        000021
12006000195000156MBA MERCANTIL BRAS DE ACO LTDA                                        0000000034100000000000000000000000000000887698090000001671394550008925B02     201209142012071700000000054560000719581000000000827121000000000000000000000000107540050000000000  3020121129   01          2                                                                                   3191671394556064849251000089                                                  N                     01321  0000000        000022
12006000195000156MBA MERCANTIL BRAS DE ACO LTDA                                        0000000034100000000000000000000000000000904173160000001667238280008876B03     201210122012071600000000054840000810320000000000886832000000000000000000000000076512050000000000  3020121129   01          2                                                                                   3191667238288064849251000079                                                  N                     01321  0000000        000023
12006000195000156MBA MERCANTIL BRAS DE ACO LTDA                                        0000000034100000000000000000000000000000906662670000001671394410008920B03     201210142012071700000000054860000576584000000000628748000000000000000000000000052164050000000000  3020121129   01          2                                                                                   3191671394416064849251000039                                                  N                     01321  0000000        000024
12006000195000156MBA MERCANTIL BRAS DE ACO LTDA                                        0000000034100000000000000000000000000000889578520000001671394540008920B02     201209162012071700000000054580000576585000000000660501000000000000000000000000083916050000000000  3020121129   01          2                                                                                   3191671394549064849251000099                                                  N                     01321  0000000        000025
12006000195000156MBA MERCANTIL BRAS DE ACO LTDA                                        0000000034100000000000000000000000000000887698100000001671394560008926B02     201209142012071700000000054560000387716000000000445704000000000000000000000000057988050000000000  3020121129   01          2                                                                                   3191671394564064849251000019                                                  N                     01321  0000000        000026
12006000195000156M B A MERCANTIL BRASILEIRA DE                                         0000000023700118P00000002130599 00000000848180770020220100000340008905B03     201210112012071900000000054830000155300000000000167991000000000000000000000000012691050000000000  3020121129   01          2  RUA JUNO  533                                                                    3                         000000000000000                                     N                     00598  0000000        000027
12008272923000104P SANTOS ESQUADRARIAS METAL ME                                        0000000034100000000000000000000000000000896979550000006153947641850           201211222012100800000000055250000400000000000000415469000000000000000000000000015469050000000000  3020121129   01          2                                                                                   3156153947640160141951600039                                                  N                     01321  0000000        000028
12009043000000143GERSON D DA SILVA SEGURANCA DO                                        000000003990000000000000000000000000000090830965000000000000000397            201211152012102600000000055180000071586000000000071586000000000000000000000000000000050000000000  3020121116   05          3                                                                                   3304770038140477000087000119                                                  N                     01321  0000000        000029
12009338857000190FERNANDO  NAGAO  CARDONE  ALVA                                        000000000330000000000000000000000000000089697936000000800000000ALTA 10 2012   201210202012092500000000054920000134632000000000152138000000000000000000000000017506050000000000  3020121129   01          2                                                                                   3947901700000051050080010129                                                  N                     01321  0000000        000030
12009338857000190FERNANDO  NAGAO  CARDONE  ALVA                                        000000000330000000000000000000000000000091653176000000300000000ALTA 11 2012   201211202012103000000000055230000134632000000000139614000000000000000000000000004982050000000000  3020121129   01          2                                                                                   3947901700000051051630010119                                                  N                     01321  0000000        000031
12012006058000121WEG TINTAS LTDA                                                       0000000023702727800000000001309 00000000878206060090225400000800016517203     201211202012090600000000055230000459992000000000465509000000000000000000000000005517050000000000  3020121129   01          2  R JUNO  533                                                                      3                         000000000000000                                     N                     00598  0000000        000032
12012006058000121WEG TINTAS LTDA                                                       0000000023702727800000000001309 00000000870177500090224100000990016248003     201211102012082700000000055130000306662000000000314414000000000000000000000000007752050000000000  3020121129   01          2  R JUNO  533                                                                      3                         000000000000000                                     N                     00598  0000000        000033
12012006058000121WEG TINTAS LTDA                                                       0000000023702727800000000001309 00000000872318660090224700001040016359602     201210302012083100000000055020000459854000000000478244000000000000000000000000018390050000000000  3020121129   01          2  R JUNO  533                                                                      3                         000000000000000                                     N                     00598  0000000        000034
12012006058000121WEG TINTAS LTDA                                                       0000000023702727800000000001309 00000000872318670090224700001050016359603     201211142012083100000000055170000459992000000000469187000000000000000000000000009195050000000000  3020121129   01          2  R JUNO  533                                                                      3                         000000000000000                                     N                     00598  0000000        000035
12012006058000121WEG TINTAS LTDA                                                       0000000023702727800000000001309 00000000882668420090225800000750016626902     201211122012091300000000055150000459854000000000470275000000000000000000000000010421050000000000  3020121129   01          2  R JUNO  533                                                                      3                         000000000000000                                     N                     00598  0000000        000036
12012006058000121WEG TINTAS LTDA                                                       0000000023702727800000000001309 00000000882668430090225800000760016626903     201211272012091300000000055300000459992000000000461218000000000000000000000000001226050000000000  3020121129   01          2  R JUNO  533                                                                      3                         000000000000000                                     N                     00598  0000000        000037
12012006058000121WEG TINTAS LTDA                                                       0000000023702727800000000001309 00000000868126360090223500001190016086603     201211042012082100000000055070000306662000000000316862000000000000000000000000010200050000000000  3020121129   01          2  R JUNO  533                                                                      3                         000000000000000                                     N                     00598  0000000        000038
12012006058000121WEG TINTAS LTDA                                                       0000000023702727800000000001309 00000000878206050090225400000790016517202     201211052012090600000000055080000459854000000000474566000000000000000000000000014712050000000000  3020121129   01          2  R JUNO  533                                                                      3                         000000000000000                                     N                     00598  0000000        000039
12033325184001786ALSCO TOALHEIRO BRASIL                                                0000000023703396000000001490850 0000000091741401009000002787905VM27879        201211212012110100000000055240000037363000000000037659000000000000000000000000000296050000000000  3020121129   01          2  RUA  GANGES 528                                                                  3                         000000000000000                                     N                     00598  0000000        000040
12035820448000136WHITE MARTINS GASES INDUSTRIAI                                        0000000023700026400000003937925 0000000092862648009023330000472414058 001     201212252012112800000000055580000085208000000000085208000000000000000000000000000000050000000000  3020121226   01FS        1  RUA GANGES  528                                                                  3                         000000000000000                                     N                     00598  0000000        000041
12042956441000101SOLUCOES ACO USIMINAS                                                 0000000034100000000000000000000000000000859590620000002274469790017353702     201209282012080300000000054700000081053000000000091097000000000000000000000000010044050000000000  3020121129   01          2                                                                                   3112274469793293807258000069                                                  N                     01321  0000000        000042
12042956441000101SOLUCOES ACO USIMINAS                                                 0000000034100000000000000000000000000000848180700000002220192900017041002     201209112012071700000000054530000155433000000000180002000000000000000000000000024569050000000000  3020121129   01          2                                                                                   3112220192903293807258000029                                                  N                     01321  0000000        000043
12042956441000101SOLUCOES ACO USIMINAS                                                 0000000034100000000000000000000000000000859590640000002274469810017353703     201211262012080300000000055290000081052000000000081538000000000000000000000000000486050000000000  3020121129   01          2                                                                                   3112274469819293807258000019                                                  N                     01321  0000000        000044
12042956441000101SOLUCOES ACO USIMINAS                                                 0000000034100000000000000000000000000000859590660000002274469820017353803     201211262012080300000000055290000166997000000000167999000000000000000000000000001002050000000000  3020121129   01          2                                                                                   3112274469827293807258000059                                                  N                     01321  0000000        000045
12042956441000101SOLUCOES ACO USIMINAS                                                 0000000034100000000000000000000000000000846595700000002210880280016980502     201209102012071200000000054520000156071000000000181031000000000000000000000000024960050000000000  3020121129   01          2                                                                                   3112210880285293807258000039                                                  N                     01321  0000000        000046
12042956441000101SOLUCOES ACO USIMINAS                                                 0000000034100000000000000000000000000000853154840000002246247030017196702     201209202012072500000000054620000234841000000000267741000000000000000000000000032900050000000000  3020121129   01          2                                                                                   3112246247038293807258000099                                                  N                     01321  0000000        000047
12042956441000101SOLUCOES ACO USIMINAS                                                 0000000034100000000000000000000000000000858616480000002271409840017316003     201211262012080200000000055290000929451000000000935028000000000000000000000000005577050000000000  3020121129   01          2                                                                                   3112271409842293807258000079                                                  N                     01321  0000000        000048
12042956441000101SOLUCOES ACO USIMINAS                                                 0000000034100000000000000000000000000000853154850000002246247040017197302     201209202012072500000000054620000970103000000001105903000000000000000000000000135800050000000000  3020121129   01          2                                                                                   3112246247046293807258000019                                                  N                     01321  0000000        000049
12042956441000101SOLUCOES ACO USIMINAS                                                 0000000034100000000000000000000000000000858616500000002271409860017319403     201211262012080200000000055290000178902000000000179976000000000000000000000000001074050000000000  3020121129   01          2                                                                                   3112271409867293807258000059                                                  N                     01321  0000000        000050
12042956441000101SOLUCOES ACO USIMINAS                                                 0000000034100000000000000000000000000000855028690000002254329380017212902     201209212012072600000000054630000140098000000000159418000000000000000000000000019320050000000000  3020121129   01          2                                                                                   3112254329389293807258000019                                                  N                     01321  0000000        000051
12042956441000101SOLUCOES ACO USIMINAS                                                 0000000034100000000000000000000000000000848180710000002220192910017041202     201209112012071700000000054530000205421000000000237890000000000000000000000000032469050000000000  3020121129   01          2                                                                                   3112220192911293807258000019                                                  N                     01321  0000000        000052
12042956441000101SOLUCOES ACO USIMINAS                                                 0000000034100000000000000000000000000000850740460000002233586800017127201     201208202012072000000000054310000137881000000000165757000000000000000000000000027876050000000000  3020121129   01          2                                                                                   3112233586802293807258000019                                                  N                     01321  0000000        000053
12042956441000101SOLUCOES ACO USIMINAS                                                 0000000034100000000000000000000000000000858616510000002271409900017319803     201211262012080200000000055290000194524000000000195691000000000000000000000000001167050000000000  3020121129   01          2                                                                                   3112271409909293807258000029                                                  N                     01321  0000000        000054
12042956441000101SOLUCOES ACO USIMINAS                                                 0000000034100000000000000000000000000000846595710000002210880290016980602     201209102012071200000000054520000426094000000000494254000000000000000000000000068160050000000000  3020121129   01          2                                                                                   3112210880293293807258000019                                                  N                     01321  0000000        000055
12042956441000101SOLUCOES ACO USIMINAS                                                 0000000034100000000000000000000000000000850740480000002233586820017101202     201209142012071900000000054560000144634000000000166598000000000000000000000000021964050000000000  3020121129   01          2                                                                                   3112233586828293807258000029                                                  N                     01321  0000000        000056
12042956441000101SOLUCOES ACO USIMINAS                                                 0000000034100000000000000000000000000000855028700000002254329390017213002     201209212012072600000000054630000140602000000000159991000000000000000000000000019389050000000000  3020121129   01          2                                                                                   3112254329397293807258000089                                                  N                     01321  0000000        000057
12042956441000101SOLUCOES ACO USIMINAS                                                 0000000034100000000000000000000000000000850740470000002233586810017101002     201209142012071900000000054560000732575000000000843915000000000000000000000000111340050000000000  3020121129   01          2                                                                                   3112233586810293807258000019                                                  N                     01321  0000000        000058
12042956441000101SOLUCOES ACO USIMINAS                                                 0000000034100000000000000000000000000000858616520000002271409870017319503     201211262012080200000000055290000197381000000000198566000000000000000000000000001185050000000000  3020121129   01          2                                                                                   3112271409875293807258000049                                                  N                     01321  0000000        000059
12042956441000101SOLUCOES ACO USIMINAS                                                 0000000034100000000000000000000000000000847452070000002216130350005922202     201209102012071600000000054520000172071000000000199591000000000000000000000000027520050000000000  3020121129   01          2                                                                                   3112216130354293807258000049                                                  N                     01321  0000000        000060
12042956441000101SOLUCOES ACO USIMINAS                                                 0000000034100000000000000000000000000000856906410000002262886280017266201     201208282012073000000000054390000119472000000000141699000000000000000000000000022227050000000000  3020121129   01          2                                                                                   3112262886289293807258000089                                                  N                     01321  0000000        000061
12042956441000101SOLUCOES ACO USIMINAS                                                 0000000034100000000000000000000000000000847452100000002216130340017012402     201209102012071500000000054520000147428000000000171028000000000000000000000000023600050000000000  3020121129   01          2                                                                                   3112216130347293807258000059                                                  N                     01321  0000000        000062
12042956441000101SOLUCOES ACO USIMINAS                                                 0000000034100000000000000000000000000000858616530000002271409880017319603     201211262012080200000000055290000197045000000000198227000000000000000000000000001182050000000000  3020121129   01          2                                                                                   3112271409883293807258000079                                                  N                     01321  0000000        000063
12042956441000101SOLUCOES ACO USIMINAS                                                 0000000034100000000000000000000000000000858616540000002271409890017319703     201211262012080200000000055290000197213000000000198395000000000000000000000000001182050000000000  3020121129   01          2                                                                                   3112271409891293807258000019                                                  N                     01321  0000000        000064
12042956441000101SOLUCOES ACO USIMINAS                                                 0000000034100000000000000000000000000000855028770000002254329400017220502     201209212012072700000000054630000981022000000001116400000000000000000000000000135378050000000000  3020121129   01          2                                                                                   3112254329405293807258000099                                                  N                     01321  0000000        000065
12042956441000101SOLUCOES ACO USIMINAS                                                 0000000034100000000000000000000000000000856906420000002262886290017266301     201208282012073000000000054390000145069000000000172039000000000000000000000000026970050000000000  3020121129   01          2                                                                                   3112262886297293807258000099                                                  N                     01321  0000000        000066
12043350099000164JMC COML ELETRICA LTDA                                                0000000023700092200000000380105 000000009286265300902333000027059752 01       201212242012112600000000055570000047400000000000047400000000000000000000000000000000050000000000  3020121224   01FS        1  R  GANGES  528                                                                   3                         000000000000000                                     N                     00598  0000000        000067
12043350099000164JMC COML ELETRICA LTDA                                                0000000023700092200000000380105 000000009286265400902333000042059752 02       201301072012112600000000055710000047400000000000047400000000000000000000000000000000050000000000  3020130107   01FS        1  R  GANGES  528                                                                   3                         000000000000000                                     N                     00598  0000000        000068
12045635984000115CRIFER LAMINADOS ACO FERRO LTD                                        0000000034100000000000000000000000000000909203340000009000268640035771E01     201211212012102400000000055240000454608000000000461880000000000000000000000000007272050000000000  3020121129   01          2                                                                                   3109000268640005630080900099                                                  N                     01321  0000000        000069
12045987005000198D PASCHOAL AUTOMOTIVA LTDA                                            0000000023702002800000000147001 00000000886866610110000000171660000000036     201211192012091900000000055220000032500000000000033570000000000000000000000000001070050000000000  3020121129   01          2  R   TAMAINDE                       01410                                         3                         000000000000000                                     N                     00598  0000000        000070
12047190731000100DE CASTRO LOUR ENG IND LTDA                                           00000000341000000000000000000000000000008782051200000023399953803026613 0     201209182012082100000000054600001107989000000001264877000000000000000000000000156888050000000000  3020121129   01          2                                                                                   3112339995386036884500400039                                                  N                     01321  0000000        000071
12047190731000100DE CASTRO LOUR ENG IND LTDA                                           00000000341000000000000000000000000000008782052400000023399956003026643 0     201211222012082300000000055250000867039000000000878974000000000000000000000000011935050000000000  3020121129   01          2                                                                                   3112339995600036884500400069                                                  N                     01321  0000000        000072
12047190731000100DE CASTRO LOUR ENG IND LTDA                                           00000000341000000000000000000000000000008782059500000023602714703026734 0     201211272012082800000000055300000997834000000001001758000000000000000000000000003924050000000000  3020121129   01          2                                                                                   3112360271475036884500400019                                                  N                     01321  0000000        000073
12047190731000100DE CASTRO LOUR ENG IND LTDA                                           00000000341000000000000000000000000000008782051300000023399953903026613 0     201211202012082100000000055230001107989000000001127600000000000000000000000000019611050000000000  3020121129   01          2                                                                                   3112339995394036884500400019                                                  N                     01321  0000000        000074
12047190731000100DE CASTRO LOUR ENG IND LTDA                                           00000000341000000000000000000000000000008782052500000023399955603026636 0     201209192012082200000000054610000940804000000001072154000000000000000000000000131350050000000000  3020121129   01          2                                                                                   3112339995568036884500400049                                                  N                     01321  0000000        000075
12047190731000100DE CASTRO LOUREIRO ENGENHARIA                                         00000000033000000000000000000000000000008801227300000069000000003026797 0     201211282012090300000000055310000422623000000000431075000000000000000000000000008452050000000000  3020121129   01          2                                                                                   3948430370000009553169020329                                                  N                     01321  0000000        000076
12047190731000100DE CASTRO LOUR ENG IND LTDA                                           00000000341000000000000000000000000000008782052700000023399956203026648 0     201209202012082300000000054620000976053000000001110453000000000000000000000000134400050000000000  3020121129   01          2                                                                                   3112339995626036884500400029                                                  N                     01321  0000000        000077
12047190731000100DE CASTRO LOUR ENG IND LTDA                                           00000000341000000000000000000000000000008782051500000023399953603026612 0     201211202012082100000000055230001111489000000001131163000000000000000000000000019674050000000000  3020121129   01          2                                                                                   3112339995360036884500400079                                                  N                     01321  0000000        000078
12047190731000100DE CASTRO LOUR ENG IND LTDA                                           00000000341000000000000000000000000000008782051600000023399954103026614 0     201209182012082100000000054600001047621000000001195941000000000000000000000000148320050000000000  3020121129   01          2                                                                                   3112339995410036884500400039                                                  N                     01321  0000000        000079
12047190731000100DE CASTRO LOUR ENG IND LTDA                                           00000000341000000000000000000000000000008782051700000023399954203026614 0     201211202012082100000000055230001047621000000001066161000000000000000000000000018540050000000000  3020121129   01          2                                                                                   3112339995428036884500400079                                                  N                     01321  0000000        000080
12047190731000100DE CASTRO LOUR ENG IND LTDA                                           00000000341000000000000000000000000000008782052800000023399956303026648 0     201211222012082300000000055250000976053000000000989493000000000000000000000000013440050000000000  3020121129   01          2                                                                                   3112339995634036884500400019                                                  N                     01321  0000000        000081
12047190731000100DE CASTRO LOUR ENG IND LTDA                                           00000000341000000000000000000000000000008782051800000023399955703026636 0     201211212012082200000000055240000940804000000000955604000000000000000000000000014800050000000000  3020121129   01          2                                                                                   3112339995576036884500400019                                                  N                     01321  0000000        000082
12047190731000100DE CASTRO LOUR ENG IND LTDA                                           00000000341000000000000000000000000000008782052000000023399955303026632 0     201209192012082200000000054610000952073000000001084985000000000000000000000000132912050000000000  3020121129   01          2                                                                                   3112339995535036884500400019                                                  N                     01321  0000000        000083
12047190731000100DE CASTRO LOUR ENG IND LTDA                                           00000000341000000000000000000000000000008782052100000023399955903026643 0     201209202012082300000000054620000867039000000000986389000000000000000000000000119350050000000000  3020121129   01          2                                                                                   3112339995592036884500400049                                                  N                     01321  0000000        000084
12047190731000100DE CASTRO LOUREIRO ENGENHARIA                                         0000000023703394400000000205508 000000008801225500202255000001403026794 0     201211262012090300000000055290001209490000000001215538000000000000000000000000006048050000000000  3020121129   01          2  RUA JUNO  533                                                                    3                         000000000000000                                     N                     00598  0000000        000085
12047190731000100DE CASTRO LOUR ENG IND LTDA                                           00000000341000000000000000000000000000008782050900000023399953503026612 0     201209182012082100000000054600001111489000000001268881000000000000000000000000157392050000000000  3020121129   01          2                                                                                   3112339995352036884500400019                                                  N                     01321  0000000        000086
12047190731000100DE CASTRO LOUR ENG IND LTDA                                           00000000341000000000000000000000000000008782059400000023602715303026745 0     201211282012082900000000055310000903175000000000904951000000000000000000000000001776050000000000  3020121129   01          2                                                                                   3112360271533036884500400039                                                  N                     01321  0000000        000087
12048775225000146SEIKI IND COM E CONFECCOES LTD                                        000000003410000000000000000000000000000089337376000000244697151014914001      201210232012092500000000054950000052000000000000054886000000000000000000000000002886050000000000  3020121129   01          2                                                                                   3112446971510017444824100089                                                  N                     01321  0000000        000088
12051180370000199IGUAFER FERRO E ACO LTDA                                              0000000034100000000000000000000000000000852309100000002239389789443 B         201209022012071800000000054440000168275000000000192915000000000000000000000000024640050000000000  3020121129   01          2                                                                                   3112239389789077149484600089                                                  N                     01321  0000000        000089
12051180370000199IGUAFER FERRO E ACO LTDA                                              0000000034100000000000000000000000000000852309110000002239389799443 C         201209122012071800000000054540000168275000000000190115000000000000000000000000021840050000000000  3020121129   01          2                                                                                   3112239389797077149484600089                                                  N                     01321  0000000        000090
12053585766000141MULTIACOS I C PRODS TEC LTDA                                          0000000042200000000000000000000000000000895189610000000000000000004695803     201211262012100200000000055290000193011000000000193976000000000000000000000000000965050000000000  3020121129   01          2                                                                                   3711500005033164927762013119                                                  N                     01321  0000000        000091
12053585766000141MULTIACOS I C PRODS TEC LTDA                                          0000000042200000000000000000000000000000895189660000000000000000004750002     201211222012100200000000055250000222869000000000225465000000000000000000000000002596050000000000  3020121129   01          2                                                                                   3711500005033164927762129119                                                  N                     01321  0000000        000092
12053585766000141MULTIACOS I C PRODS TEC LTDA                                          0000000042200000000000000000000000000000895189560000000000000000004695703     201211262012100200000000055290001092223000000001097681000000000000000000000000005458050000000000  3020121129   01          2                                                                                   3711500005033164927761980139                                                  N                     01321  0000000        000093
12053585766000141MULTIACOS I C PRODS TEC LTDA                                          0000000042200000000000000000000000000000895189370000000000000000004699303     201211282012100200000000055310000863284000000000864722000000000000000000000000001438050000000000  3020121129   01          2                                                                                   3711500005033164927761807189                                                  N                     01321  0000000        000094
12053585766000141MULTIACOS I C PRODS TEC LTDA                                          0000000042200000000000000000000000000000887697910000000000000000004704303     201211272012092000000000055300000965514000000000968731000000000000000000000000003217050000000000  3020121129   01          2                                                                                   3711500005033164923629564189                                                  N                     01321  0000000        000095
12053585766000141MULTIACOS I C PRODS TEC LTDA                                          0000000042200000000000000000000000000000887697960000000000000000004704503     201211272012092000000000055300000217463000000000218186000000000000000000000000000723050000000000  3020121129   01          2                                                                                   3711500005033164923629599149                                                  N                     01321  0000000        000096
12053585766000141MULTIACOS I C PRODS TEC LTDA                                          0000000042200000000000000000000000000000895189590000000000000000004699103     201211262012100200000000055290000574719000000000577592000000000000000000000000002873050000000000  3020121129   01          2                                                                                   3711500005033164927762048119                                                  N                     01321  0000000        000097
12053585766000141MULTIACOS I C PRODS TEC LTDA                                          0000000042200000000000000000000000000000895189720000000000000000004685003     201211222012100200000000055250000547346000000000553729000000000000000000000000006383050000000000  3020121129   01          2                                                                                   3711500005033164927762200139                                                  N                     01321  0000000        000098
12054382510000108SETENTA IND E COM DE MADEIRAS                                         0000000034100000000000000000000000000000860403430000002277814474462 A         201209042012080700000000054460000191200000000000223536000000000000000000000000032336050000000000  3020121129   01          2                                                                                   3112277814474057049175300069                                                  N                     01321  0000000        000099
12056428188000128EDVALDO SANTOS ROSA ME                                                0000000023700898200000000005622 0000000088191342009011225700668194919608      201211282012091300000000055310000089850000000000091946000000000000000000000000002096050000000000  3020121129   01          2  RUA TAMAINDE  1410                                                               3                         000000000000000                                     N                     00598  0000000        000100
12056993512000150CYKLOP DO BRASIL EMBALAGENS SA                                        0000000034100000000000000000000000000000874070500000002362586810134932        201210012012090300000000054730000083607000000000101720000000000000000000000000018113050000000000  3020121129   01          2                                                                                   3112362586813025700015800019                                                  N                     01321  0000000        000101
12059358770000153TRANS NEW ABC TRANSPORTADORA L                                        0000000023701193200000000698555 000000009183388500901323120763555320          201211222012110700000000055250000137001000000000137960000000000000000000000000000959050000000000  3020121129   01          2  RUA GANGES 528                                                                   3                         000000000000000                                     N                     00598  0000000        000102
12059659615000177DZ COMERCIO R E SERVICOS LTDA                                         000000003410000000000000000000000000000091358507000000900000321280            201211172012102400000000055200000060000000000000061440000000000000000000000000001440050000000000  3020121129   01          2                                                                                   3109000003217000314585100039                                                  N                     01321  0000000        000103
12061217188000119TELAS METALICAS TELMETAL LTDA                                         0000000000100000000000000000000000000000902449800000000058110005780 2 3       201211192012101600000000055220000089763000000000090241000000000000000000000000000717050000000000  3020121121   05          3                                                                                   3000000115031800000058111799                                                  N                     01321  0000000        000104
12061683652000162TRANS FACE TRANSPORTES LTDA                                           0000000023700530400000000141828 0000000091358502009000000110375I000085343     201211202012110500000000055230000081000000000000082971000000000000000000000000001971050000000000  3020121129   01          2  R JUNO 553                                                                       3                         000000000000000                                     N                     00598  0000000        000105
12062510367000102ITANHAEM TRANSP DE MAQUINAS LT                                        000000003410000000000000000000000000000087407049000000236463199667            201209202012090400000000054620000248220000000000317730000000000000000000000000069510050000000000  3020121129   01          2                                                                                   3112364631997005770252400049                                                  N                     01321  0000000        000106
12064952757000168WALMAC COM DE PROD QUIMICOS LT                                        0000000034100000000000000000000000000000896979500000002462157550021611        201211012012100400000000055040000219267000000000231335000000000000000000000000012068050000000000  3020121129   01          2                                                                                   3112462157556064807961400019                                                  N                     01321  0000000        000107
12064952757000168WALMAC COM DE PROD QUIMICOS LT                                        0000000034100000000000000000000000000000860403440000002275821690020148        201210262012080300000000054980000219266000000000233920000000000000000000000000014654050000000000  3020121129   01          2                                                                                   3112275821695064807961400019                                                  N                     01321  0000000        000108
12064952757000168WALMAC COM DE PROD QUIMICOS LT                                        0000000034100000000000000000000000000000860403450000002275821700020148        201210052012080300000000054770000219267000000000242972000000000000000000000000023705050000000000  3020121129   01          2                                                                                   3112275821703064807961400029                                                  N                     01321  0000000        000109
12065000655000105HILTI DO BRASIL COMERCIAL LTDA                                        0000000023703396000000000243787 00000000928626490090233300005210021321401     201212232012112300000000055560000189853000000000189853000000000000000000000000000000050000000000  3020121224   01FS        1  RUA TAMAINDE 1410                                                                3                         000000000000000                                     N                     00598  0000000        000110
12065000655000105HILTI DO BRASIL COMERCIAL LTDA                                        0000000023703396000000000243787 00000000928626500090233300005220021321402     201301222012112300000000055860000189853000000000189853000000000000000000000000000000050000000000  3020130122   01FS        1  RUA TAMAINDE 1410                                                                3                         000000000000000                                     N                     00598  0000000        000111
12065000655000105HILTI DO BRASIL COMERCIAL LTDA                                        0000000023703396000000000243787 00000000928626510090233300005230021321403     201302212012112300000000056160000189853000000000189853000000000000000000000000000000050000000000  3020130221   01FS        1  RUA TAMAINDE 1410                                                                3                         000000000000000                                     N                     00598  0000000        000112
12065000655000105HILTI DO BRASIL COMERCIAL LTDA                                        0000000023703396000000000243787 00000000928626520090233300005240021321404     201303232012112300000000056460000189852000000000189852000000000000000000000000000000050000000000  3020130325   01FS        1  RUA TAMAINDE 1410                                                                3                         000000000000000                                     N                     00598  0000000        000113
12066841552000130R V SEG PATRIMONIAL S C LTDA                                          00000000341000000000000000000000000000008887329800000090002213622136          201210102012091100000000054820000374758000000000381008000000000000000000000000006250050000000000  3020121129   01          2                                                                                   3109000221365001838994000069                                                  N                     01321  0000000        000114
12066841552000130R V SEG PATRIMONIAL LTDA                                              00000000341000000000000000000000000000008852483200000090002192721927          201209102012081000000000054520000483241000000000496121000000000000000000000000012880050000000000  3020121129   01          2                                                                                   3109000219270001835253400099                                                  N                     01321  0000000        000115
12067647412000199ANCORA CHUMBADORES LTDA                                               000000003410000000000000000000000000000088873293000000242214247062576 2       201211182012091900000000055210000125000000000000125738000000000000000000000000000984050000000000  3020121121   05          3                                                                                   3112422142474013626917200019                                                  N                     01321  0000000        000116
12069284248000128ISOCOAT TINTAS E VERNIZES LTDA                                        0000000034100000000000000000000000000000888732960000002421485720055761        201211202012092100000000055230000093324000000000095565000000000000000000000000002241050000000000  3020121129   01          2                                                                                   3112421485726077430121200069                                                  N                     01321  0000000        000117
12069284248000128ISOCOAT TINTAS E VERNIZES LTDA                                        0000000034100000000000000000000000000000841061040000002182507930052085        201209172012070200000000054590000236130000000000282120000000000000000000000000045990050000000000  3020121129   01          2                                                                                   3112182507932077430121200019                                                  N                     01321  0000000        000118
12071154462000292POWER EXPRESS LOGISTICA E TRAN                                        0000000023703417700000000103896 00000000927575440090000000071240000330604     201211192012102900000000055220000083200000000000085700000000000000000000000000002500050000000000  3020121129   01          2  RUA  JUNO 533                                                                    3                         000000000000000                                     N                     00598  0000000        000119
12096500087000135WORKBENCH CONSULTORIA S S LTDA                                        0000000034100000000000000000000000000000912467970000007023696933218           201211272012110100000000055300000131746000000000132264000000000000000000000000000518050000000000  3020121129   01          2                                                                                   3157023696939826313803700019                                                  N                     01321  0000000        000120
12096500087000135WORKBENCH CONSULTORIA S S LTDA                                        0000000034100000000000000000000000000000878205840000007940034283118           201209272012090300000000054690000131746000000000148063000000000000000000000000016317050000000000  3020121129   01          2                                                                                   3157940034289826313803700089                                                  N                     01321  0000000        000121
900012200000000051186532                                                                                                                                                                                                                                                                                                                                                                                                                                                                01321  0000000        000122
