0000147602043799295000110ALTAMIRA IND METALURGICA LTDA           20100577000002012112910283300000        2    230A                                                                                          000000000000000                                                                                                                                                                                                                                                                                   000001
12043799295000110ALTAMIRA INDUSTRIA METAL LTDA RUA  GANGES  528                        0344503039900198 000000000096330I000000000010245000000000000000               201211290000000000000000000000000000000000000000500000000000000000000000000000000000050000000001  0820121129   01HA        0001100                                                                             3D0000000101                             0001                                 S                     00000  0020256        000002
900000300000000000500000                                                                                                                                                                                    000000000000000                                                                                                                                                                                                                                                    00000100000000000000000        000003
