0000147602043799295000110ALTAMIRA INDUSTRIA METALURGICA LT       202000000011520120829055724             1                                                                                                                                                                                                                                                                                                                                                                                                    000001
12001895314000162COLETA INDUSTRIAL FIMAVAN LTDA                                        0000000034100000000000000000000000000000866992070000009002335349439           201208272012081700000000054380000123695000000000126827000000000000000000000000003132050000000000  3020120829   01          2                                                                                   3109002335346144604097200019                                                  N                     01321  0000000        000002
12001951865000104FOUR FACTORING FOMENTO M LTDA                                         000000004220000000000000000000000000000086040341000000000000000193A           201208272012080600000000054380000145000000000000145965000000000000000000000000000965050000000000  3020120829   01          2                                                                                   3702000009214741910473285169                                                  N                     01321  0000000        000003
12001951865000104FOUR FACTORING FOMENTO M LTDA                                         000000004220000000000000000000000000000085861628000000000000000181 12         201208282012080200000000054390000300000000000000300999000000000000000000000000000999050000000000  3020120829   01          2                                                                                   3702000009214741499752384119                                                  N                     01321  0000000        000004
12001951865000104FOUR FACTORING FOMENTO M LTDA                                         000000004220000000000000000000000000000085861626000000000000000188 A          201208232012080200000000054340000145000000000000147897000000000000000000000000002897050000000000  3020120829   01          2                                                                                   3702000009214741499752368119                                                  N                     01321  0000000        000005
12003489596000123BEND FLEX INDUSTRIA E COMERCIO                                        000000001040000000000000000000000000000085404951000000977618400592            201208222012072500000000054330000351000000000000351000000000000000000000000000000000050000000000  3020120822   06          3                                                                                   3314197761811558700000019919                                                  N                     01321  0000000        000006
12003746938000143STAPLES BRASIL COM DE MAT DE E                                        0000000023703394400000000368008 0000000085074069002000000797375460605 1       201208222012072300000000054330000032373000000000035988000000000000000000000000003615050000000000  3020120829   01          2  RUA GANGES VILA CARRAO VILA CARRAO                                               3                         000000000000000                                     N                     00598  0000000        000007
12005044228000105TRIARC COM S METAIS USINADOS                                          000000003410000000000000000000000000000085404957000000788988941677            201208222012073000000000054330000006800000000000006891000000000000000000000000000091050000000000  3020120829   01          2                                                                                   3157889889412076157868100069                                                  N                     01321  0000000        000008
12005044228000105TRIARC COM S METAIS USINADOS                                          000000003410000000000000000000000000000085404958000000788989596237 S          201208222012073000000000054330000040000000000000040553000000000000000000000000000553050000000000  3020120829   01          2                                                                                   3157889895963076157868100019                                                  N                     01321  0000000        000009
12005151518000140BELENUS DO BRASIL LTDA                                                0000000023703389800000000015091 0000000083945276009021860002352R128108022     201208252012062600000000054360000576000000000000583604000000000000000000000000007604050000000000  3020120829   01          2  RUA GANGES  528                                                                  3                         000000000000000                                     N                     00598  0000000        000010
12005753978000148HUMAN SERVICOS PARA COMUNICACA                                        0000000003300000000000000000000000000000858616590000008900000000000098289     201208202012080200000000054310000013000000000000013298000000000000000000000000000298050000000000  3020120829   01          2                                                                                   3936028260000000098289010119                                                  N                     01321  0000000        000011
12005852768000107DAOUD LEAL ELETRONICA LTDA ME                                         00000000033000000000000000000000000000008619603100000050000000000000000001097 201208262012080900000000054370000016558000000000017054000000000000000000000000000496050000000000  3020120829   01          2                                                                                   3949927090000000026050010479                                                  N                     01321  0000000        000012
12005915831000107PALETES SATELITE COM LTDA ME                                          000000003410000000000000000000000000000085959067000000901798000NF  1798       201208232012080200000000054340000045000000000000046800000000000000000000000000001800050000000000  3020120829   01          2                                                                                   3109017980008144648966600039                                                  N                     01321  0000000        000013
12006000195000156M B A MERCANTIL BRASILEIRA DE                                         0000000000100000000000000000000000000000855028850000007952860000009006B01     201208282012073000000000054390000235480000000000235872000000000000000000000000000392050000000000  3020120829   01          2                                                                                   3043937952863333000105251129                                                  N                     01321  0000000        000014
12006000195000156M B A MERCANTIL BRASILEIRA DE                                         0000000000100000000000000000000000000000855028890000007952830000009005B01     201208272012073000000000054380000202838000000000203514000000000000000000000000000676050000000000  3020120829   01          2                                                                                   3043937952833333000105251129                                                  N                     01321  0000000        000015
12006000195000156M B A MERCANTIL BRASILEIRA DE                                         0000000023700118P00000002130599 00000000853155010020220900000510008971B01     201208212012072400000000054320000170465000000000172737000000000000000000000000002272050000000000  3020120829   01          2  RUA JUNO  533                                                                    3                         000000000000000                                     N                     00598  0000000        000016
12006000195000156M B A MERCANTIL BRASILEIRA DE                                         0000000023700118P00000002130599 00000000853155040020220900000640008985B01     201208222012072500000000054330000163122000000000165026000000000000000000000000001904050000000000  3020120829   01          2  RUA JUNO  533                                                                    3                         000000000000000                                     N                     00598  0000000        000017
12006000195000156M B A MERCANTIL BRASILEIRA DE                                         0000000023700118P00000002130599 00000000853155070020220900000670008986B01     201208222012072500000000054330000145725000000000147426000000000000000000000000001701050000000000  3020120829   01          2  RUA JUNO  533                                                                    3                         000000000000000                                     N                     00598  0000000        000018
12006000195000156M B A MERCANTIL BRASILEIRA DE                                         0000000023700118P00000002128292 00000000837460560090218400000050008760B02     201208242012062900000000054350000862785000000000862785000000000000000000000000000000050000000000  3020120824   05          3  RUA JUNO  533                                                                    3                         000000000000000                                     N                     00598  0000000        000019
12006000195000156M B A MERCANTIL BRASILEIRA DE                                         0000000023700118P00000002128292 00000000837460590090218400000110008753B02     201208242012062900000000054350000273651000000000273651000000000000000000000000000000050000000000  3020120824   05          3  RUA JUNO  533                                                                    3                         000000000000000                                     N                     00598  0000000        000020
12006000195000156M B A MERCANTIL BRASILEIRA DE                                         0000000000100000000000000000000000000000834820260000002571560000008654B02     201208172012062600000000054280000677504000000000683149000000000000000000000000006774050000000000  3020120822   05          3                                                                                   3043852571563333000105251149                                                  N                     01321  0000000        000021
12006000195000156M B A MERCANTIL BRASILEIRA DE                                         0000000023700118P00000002128292 00000000870177510090214900000120008399B03     201208202012052800000000054310000517280000000000517280000000000000000000000000000000050000000000  3020120829   01FS        1  RUA JUNO  533                                                                    3                         000000000000000                                     N                     00598  0000000        000022
12006000195000156M B A MERCANTIL BRASILEIRA DE                                         0000000023700118P00000002128292 00000000870177520090217800000390008689B02     201208202012062500000000054310000183781000000000183781000000000000000000000000000000050000000000  3020120829   01FS        1  RUA JUNO  533                                                                    3                         000000000000000                                     N                     00598  0000000        000023
12006000195000156M B A MERCANTIL BRASILEIRA DE                                         0000000023700118P00000002128292 00000000870177530090218400000050008760B02     201208242012062900000000054350000862785000000000862785000000000000000000000000000000050000000000  3020120829   01FS        1  RUA JUNO  533                                                                    3                         000000000000000                                     N                     00598  0000000        000024
12006000195000156M B A MERCANTIL BRASILEIRA DE                                         0000000023700118P00000002128292 00000000870177540090218400000110008753B02     201208242012062900000000054350000273651000000000273651000000000000000000000000000000050000000000  3020120829   01FS        1  RUA JUNO  533                                                                    3                         000000000000000                                     N                     00598  0000000        000025
12006000195000156M B A MERCANTIL BRASILEIRA DE                                         0000000023700118P00000002128292 00000000870177550090220600000020008949B01     201208222012072300000000054330000194693000000000194693000000000000000000000000000000050000000000  3020120829   01FS        1  RUA JUNO  533                                                                    3                         000000000000000                                     N                     00598  0000000        000026
12006000195000156M B A MERCANTIL BRASILEIRA DE                                         0000000023700118P00000002128292 00000000870177560090220600000080008948B01     201208212012072300000000054320000437437000000000437437000000000000000000000000000000050000000000  3020120829   01FS        1  RUA JUNO  533                                                                    3                         000000000000000                                     N                     00598  0000000        000027
12006000195000156M B A MERCANTIL BRASILEIRA DE                                         0000000023700118P00000002128292 00000000870177570090220600000150008946B01     201208202012072300000000054310000647873000000000647873000000000000000000000000000000050000000000  3020120829   01FS        1  RUA JUNO  533                                                                    3                         000000000000000                                     N                     00598  0000000        000028
12006894969000130TERRA DIESEL COMERCIO DE PECAS                                        00000000104000000000000000000000000000008701774300000000019910014063A         201209062012082700000000054480000008600000000000008600000000000000000000000000000000050000000000  3020120906   01FS        1                                                                                   3900000019930598700000020519                                                  N                     01321  0000000        000029
12007175725000160WEG EQUIPAMENTOS ELETRICOS SA                                         0000000023702727800000000196800 00000000815444390090214500004510095359901     201208212012052300000000054320000272787000000000275691000000000000000000000000002904050000000000  3020120829   01          2  R JUNO  533                                                                      3                         000000000000000                                     N                     00598  0000000        000030
12008508119000181DINARI FOMENTO MERCANTIL LTDA                                         000000003990000000000000000000000000000085607128000000000000000175            201209162012072700000000054580000310000000000000310000000000000000000000000000000000050000000000  3020120917   01          2                                                                                   3175716373830198002280903189                                                  N                     01321  0000000        000031
12008709272000177MULTIELETRICA C M E LTDA                                              000000003410000000000000000000000000000085771858000000900002205000002535B     201208282012072400000000054390000188888000000000200403000000000000000000000000011515050000000000  3020120829   01          2                                                                                   3109000022057075798525400029                                                  N                     01321  0000000        000032
12009338857000190FERNANDO  NAGAO  CARDONE  ALVA                                        000000000330000000000000000000000000000085959071000000430000000REEM 07 2012   201208102012072600000000054210000024134000000000025743000000000000000000000000001609050000000000  3020120829   01          2                                                                                   3947901700000051047543010139                                                  N                     01321  0000000        000033
12010543507000145MAJOR CORTEZ CONFECCAO E COMER                                        000000003410000000000000000000000000000085315495000000614041210157            201208222012072700000000054330000053000000000000053728000000000000000000000000000728050000000000  3020120829   01          2                                                                                   3156140412101074662673800029                                                  N                     01321  0000000        000034
12011202309000180FIEL TOOLS DISTRIBUIDORA DE MA                                        0000000023702087700000000000116 0000000085074056009000020186261008626 1       201208202012072300000000054310000041975000000000041975000000000000000000000000000000050000000000  3020120820   05          3  R TAMAINDE  1 410   RUA GANGES  520 E 52                                         3                         000000000000000                                     N                     00598  0000000        000035
12011202309000180FIEL TOOLS DISTRIBUIDORA DE MA                                        0000000023702087700000000000116 0000000085074057009000020186262008626 2       201208272012072300000000054380000041975000000000041975000000000000000000000000000000050000000000  3020120827   06          3  R TAMAINDE  1 410   RUA GANGES  520 E 52                                         3                         000000000000000                                     N                     00598  0000000        000036
12011202309000180FIEL TOOLS DISTRIBUIDORA DE MA                                        0000000023702087700000000000116 0000000087017758009000020186261008626 1       201208202012072300000000054310000041975000000000043612000000000000000000000000001637050000000000  3020120829   01FS        1  R TAMAINDE  1 410   RUA GANGES  520 E 52                                         3                         000000000000000                                     N                     00598  0000000        000037
12012006058000121WEG TINTAS LTDA                                                       0000000023702727800000000001309 00000000870177480090224100000970016248001     201210112012082700000000054830000306569000000000306569000000000000000000000000000000050000000000  3020121011   01FS        1  R JUNO  533                                                                      3                         000000000000000                                     N                     00598  0000000        000038
12012006058000121WEG TINTAS LTDA                                                       0000000023702727800000000001309 00000000870177490090224100000980016248002     201210262012082700000000054980000306569000000000306569000000000000000000000000000000050000000000  3020121026   01FS        1  R JUNO  533                                                                      3                         000000000000000                                     N                     00598  0000000        000039
12012006058000121WEG TINTAS LTDA                                                       0000000023702727800000000001309 00000000870177500090224100000990016248003     201211102012082700000000055130000306662000000000306662000000000000000000000000000000050000000000  3020121112   01FS        1  R JUNO  533                                                                      3                         000000000000000                                     N                     00598  0000000        000040
12012006058000121WEG TINTAS LTDA                                                       0000000023702727800000000001309 00000000844839220090219500000710015168701     201208262012071200000000054370000306569000000000307793000000000000000000000000001224050000000000  3020120829   01          2  R JUNO  533                                                                      3                         000000000000000                                     N                     00598  0000000        000041
12012006058000121WEG TINTAS LTDA                                                       0000000023702727800000000001309 00000000824820170090216300000890014374203     201208222012060800000000054330000459992000000000464283000000000000000000000000004291050000000000  3020120829   01          2  R JUNO  533                                                                      3                         000000000000000                                     N                     00598  0000000        000042
12012006058000121WEG TINTAS LTDA                                                       0000000023702727800000000001309 00000000827244630090216600000720014454803     201208272012061300000000054380000306662000000000307478000000000000000000000000000816050000000000  3020120829   01          2  R JUNO  533                                                                      3                         000000000000000                                     N                     00598  0000000        000043
12012006058000121WEG TINTAS LTDA                                                       0000000023702727800000000001309 00000000833069150090217700001080014685602     201208212012062200000000054320000459854000000000464758000000000000000000000000004904050000000000  3020120829   01          2  R JUNO  533                                                                      3                         000000000000000                                     N                     00598  0000000        000044
12012006058000121WEG TINTAS LTDA                                                       0000000023702727800000000001309 00000000842436820090219200000840015068801     201208232012070900000000054340000306569000000000309017000000000000000000000000002448050000000000  3020120829   01          2  R JUNO  533                                                                      3                         000000000000000                                     N                     00598  0000000        000045
12012006058000121WEG TINTAS LTDA                                                       0000000023702727800000000001309 00000000834820630090217900000750014773902     201208252012062600000000054360000306569000000000308201000000000000000000000000001632050000000000  3020120829   01          2  R JUNO  533                                                                      3                         000000000000000                                     N                     00598  0000000        000046
12014309992000148WEG DRIVES   CONTROLS   AUTOMA                                        0000000023702727800000000001872 00000000852309230090220800002970008379601     201208232012072400000000054340000107136000000000107988000000000000000000000000000852050000000000  3020120829   01          2  R JUNO  533                                                                      3                         000000000000000                                     N                     00598  0000000        000047
12014309992000148WEG DRIVES   CONTROLS   AUTOMA                                        0000000023702727800000000001872 00000000816237730090214600002430004866102     201208232012042500000000054340000027620000000000027836000000000000000000000000000216050000000000  3020120829   01          2  R JUNO  533                                                                      3                         000000000000000                                     N                     00598  0000000        000048
12014775592000128HELIO ADRIANO DA SILVA ME                                             0000000003300000000000000000000000000000861207320000000300000008330           201208242012080800000000054350000020000000000000020500000000000000000000000000000500050000000000  3020120829   01          2                                                                                   3956114740000000000003010119                                                  N                     01321  0000000        000049
12035820448000136WHITE MARTINS GASES INDUSTRIAI                                        0000000023700026400000003937925 0000000085607119009022140004425360193 001     201208282012073100000000054390000081150000000000082881000000000000000000000000001731050000000000  3020120829   01          2  RUA GANGES  528                                                                  3                         000000000000000                                     N                     00598  0000000        000050
12035820448000136WHITE MARTINS GASES INDUSTRIAI                                        0000000023700026400000003937925 0000000085315496009022090010244358059 001     201208232012072700000000054340000017600000000000018090000000000000000000000000000490050000000000  3020120829   01          2  RUA GANGES  528                                                                  3                         000000000000000                                     N                     00598  0000000        000051
12035820448000136WHITE MARTINS GASES INDUSTRIAI                                        0000000023700026400000003937925 0000000085315497009022090011903358519 001     201208232012072700000000054340000056805000000000058397000000000000000000000000001592050000000000  3020120829   01          2  RUA GANGES  528                                                                  3                         000000000000000                                     N                     00598  0000000        000052
12035820448000136WHITE MARTINS GASES INDUSTRIAI                                        0000000023700026400000003937925 0000000085230921009022080002695355448 001     201208212012072600000000054320000085176000000000087791000000000000000000000000002615050000000000  3020120829   01          2  RUA GANGES  528                                                                  3                         000000000000000                                     N                     00598  0000000        000053
12042956441000101SOLUCOES ACO USIMINAS                                                 0000000034100000000000000000000000000000856906410000002262886280017266201     201208282012073000000000054390000119472000000000119711000000000000000000000000000239050000000000  3020120829   01          2                                                                                   3112262886289293807258000089                                                  N                     01321  0000000        000054
12042956441000101SOLUCOES ACO USIMINAS                                                 0000000034100000000000000000000000000000855028590000002254329290017200401     201208232012072600000000054340000163273000000000165235000000000000000000000000001962050000000000  3020120829   01          2                                                                                   3112254329298293807258000029                                                  N                     01321  0000000        000055
12042956441000101SOLUCOES ACO USIMINAS                                                 0000000034100000000000000000000000000000855028600000002254329300017202401     201208232012072600000000054340000244209000000000247137000000000000000000000000002928050000000000  3020120829   01          2                                                                                   3112254329306293807258000019                                                  N                     01321  0000000        000056
12042956441000101SOLUCOES ACO USIMINAS                                                 0000000034100000000000000000000000000000855028610000002254329310017212901     201208242012072600000000054350000140140000000000141540000000000000000000000000001400050000000000  3020120829   01          2                                                                                   3112254329314293807258000069                                                  N                     01321  0000000        000057
12042956441000101SOLUCOES ACO USIMINAS                                                 0000000034100000000000000000000000000000856906420000002262886290017266301     201208282012073000000000054390000145069000000000145359000000000000000000000000000290050000000000  3020120829   01          2                                                                                   3112262886297293807258000099                                                  N                     01321  0000000        000058
12042956441000101SOLUCOES ACO USIMINAS                                                 0000000034100000000000000000000000000000855028620000002254329320017213001     201208242012072600000000054350000140644000000000142049000000000000000000000000001405050000000000  3020120829   01          2                                                                                   3112254329322293807258000089                                                  N                     01321  0000000        000059
12042956441000101SOLUCOES ACO USIMINAS                                                 0000000034100000000000000000000000000000855028650000002254329270017200201     201208232012072600000000054340000680589000000000688755000000000000000000000000008166050000000000  3020120829   01          2                                                                                   3112254329272293807258000099                                                  N                     01321  0000000        000060
12042956441000101SOLUCOES ACO USIMINAS                                                 0000000034100000000000000000000000000000855028660000002254329280017200301     201208232012072600000000054340000156943000000000158827000000000000000000000000001884050000000000  3020120829   01          2                                                                                   3112254329280293807258000019                                                  N                     01321  0000000        000061
12042956441000101SOLUCOES ACO USIMINAS                                                 0000000034100000000000000000000000000000855028710000002254329330017220501     201208242012072700000000054350000981316000000000991131000000000000000000000000009815050000000000  3020120829   01          2                                                                                   3112254329330293807258000039                                                  N                     01321  0000000        000062
12042956441000101SOLUCOES ACO USIMINAS                                                 0000000034100000000000000000000000000000853154890000002246246990017196601     201208232012072500000000054340000805049000000000814709000000000000000000000000009660050000000000  3020120829   01          2                                                                                   3112246246998293807258000059                                                  N                     01321  0000000        000063
12042956441000101SOLUCOES ACO USIMINAS                                                 0000000034100000000000000000000000000000853154910000002246247000017196701     201208232012072500000000054340000234911000000000237731000000000000000000000000002820050000000000  3020120829   01          2                                                                                   3112246247004293807258000019                                                  N                     01321  0000000        000064
12042956441000101SOLUCOES ACO USIMINAS                                                 0000000034100000000000000000000000000000853154920000002246247010017197301     201208232012072500000000054340000970394000000000982040000000000000000000000000011646050000000000  3020120829   01          2                                                                                   3112246247012293807258000019                                                  N                     01321  0000000        000065
12042956441000101SOLUCOES ACO USIMINAS                                                 0000000034100000000000000000000000000000813840670000002053421650016071603     201208172012052000000000054280000501511000000000511541000000000000000000000000011033050000000000  3020120827   06          3                                                                                   3112053421650293807258000099                                                  N                     01321  0000000        000066
12043217850000159IOB INFORMACOES OBJ  PUBL JURI                                        0000000023702374400000002958600 000000008540495200902212000099001440820E4     201208202012073000000000054310000072850000000000074523000000000000000000000000001673050000000000  3020120829   01          2  GANGES 528 VL NOVA MANCHESTER                                                    3                         000000000000000                                     N                     00598  0000000        000067
12044098788000196MAIAMI COM E IMP DE ROLAMENTOS                                        0000000023700503700000000367516 000000008560712000902214000000409853          201208282012073100000000054390000020440000000000020507000000000000000000000000000067050000000000  3020120829   01          2  RUA GANGES 528 VL CARRAO                                                         3                         000000000000000                                     N                     00598  0000000        000068
12048775225000146SEIKI IND COM E CONFECCOES LTD                                        000000003410000000000000000000000000000085959065000000227267305013669001      201208282012073100000000054390000052000000000000052078000000000000000000000000000078050000000000  3020120829   01          2                                                                                   3112272673057017444824100019                                                  N                     01321  0000000        000069
12051180370000199IGUAFER FERRO E ACO LTDA                                              0000000034100000000000000000000000000000852309090000002239389779443 A         201208232012071800000000054340000201933000000000203955000000000000000000000000002022050000000000  3020120829   01          2                                                                                   3112239389771077149484600099                                                  N                     01321  0000000        000070
12051180370000199IGUAFER FERRO E ACO LTDA                                              0000000034100000000000000000000000000000856071170000002257772109489 A         201208282012073100000000054390000124391000000000124598000000000000000000000000000207050000000000  3020120829   01          2                                                                                   3112257772106077149484600029                                                  N                     01321  0000000        000071
12053585766000141MULTIACOS INDUSTRIA E COMERCIO                                        0000000000100000000000000000000000000000860403350000009910140000004391601     201208282012080700000000054390000364996000000000365604000000000000000000000000000608050000000000  3020120829   01          2                                                                                   3043959910141912000139523199                                                  N                     01321  0000000        000072
12053585766000141MULTIACOS INDUSTRIA E COMERCIO                                        0000000000100000000000000000000000000000860403360000009910150000004391701     201208282012080700000000054390000352574000000000353162000000000000000000000000000588050000000000  3020120829   01          2                                                                                   3043959910151912000139523119                                                  N                     01321  0000000        000073
12053585766000141MULTIACOS INDUSTRIA E COMERCIO                                        0000000000100000000000000000000000000000860403400000009910130000004391501     201208282012080700000000054390000329096000000000329644000000000000000000000000000548050000000000  3020120829   01          2                                                                                   3043959910131912000139523159                                                  N                     01321  0000000        000074
12053585766000141MULTIACOS COM DE PRODUTOS TECN                                        0000000023703398700000000011290 00000000870177440020224100000020004375203     201209212012071200000000054630000311850000000000311850000000000000000000000000000000050000000000  3020120921   01FS        1  RUA JUNO  533                                                                    3                         000000000000000                                     N                     00598  0000000        000075
12053585766000141MULTIACOS COM DE PRODUTOS TECN                                        0000000023703398700000000011290 00000000870177450020224100000280004452002     201209212012072700000000054630000865030000000000865030000000000000000000000000000000050000000000  3020120921   01FS        1  RUA JUNO  533                                                                    3                         000000000000000                                     N                     00598  0000000        000076
12053585766000141MULTIACOS COM DE PRODUTOS TECN                                        0000000023703398700000000011290 00000000870177460020224100000290004453002     201209212012072700000000054630000619209000000000619209000000000000000000000000000000050000000000  3020120921   01FS        1  RUA JUNO  533                                                                    3                         000000000000000                                     N                     00598  0000000        000077
12053585766000141MULTIACOS COM DE PRODUTOS TECN                                        0000000023703398700000000011290 00000000870177470020224100000800004521801     201209212012081000000000054630000836236000000000836236000000000000000000000000000000050000000000  3020120921   01FS        1  RUA JUNO  533                                                                    3                         000000000000000                                     N                     00598  0000000        000078
12056993512000150CYKLOP DO BRASIL EMBALAGENS SA                                        0000000034100000000000000000000000000000855028820000002250861510130428        201208242012072700000000054350000083490000000000085020000000000000000000000000001530050000000000  3020120829   01          2                                                                                   3112250861518025786126000019                                                  N                     01321  0000000        000079
12056993900000131CIA METALURGICA PRADA                                                 0000000034100000000000000000000000000000855028550000002254750250026244301     201208272012072800000000054380000100986000000000101322000000000000000000000000000336050000000000  3020120829   01          2                                                                                   3112254750253293800573900099                                                  N                     01321  0000000        000080
12056993900000131CIA METALURGICA PRADA                                                 0000000034100000000000000000000000000000855028560000002254750260026244401     201208272012072800000000054380000084368000000000084650000000000000000000000000000282050000000000  3020120829   01          2                                                                                   3112254750261293800573900089                                                  N                     01321  0000000        000081
12057158057000130COMERCIAL ELETRICA PJ LTDA                                            0000000023703394400000000972983 00000000858616570090221900002850000312326     201208272012073000000000054380000076707000000000077217000000000000000000000000000510050000000000  3020120829   01          2  R TAMAINDE 1410                                                                  3                         000000000000000                                     N                     00598  0000000        000082
12057158057000130COMERCIAL ELETRICA PJ LTDA                                            0000000023703394400000000972983 00000000842436850090219200008900000305028     201208012012070400000000054120000079196000000000086560000000000000000000000000007364050000000000  3020120829   01          2  R TAMAINDE 1410                                                                  3                         000000000000000                                     N                     00598  0000000        000083
12061085866000137COMERCIO DE FERRAGENS A C L LT                                        0000000023700475800000000385662 000000008595906900400475842019516999 12       201208222012072400000000054330000027500000000000027689000000000000000000000000000189050000000000  3020120829   01          2  RUA GANGES 528 SP                                                                3                         000000000000000                                     N                     00598  0000000        000084
12061217188000119TELAS METALICAS TELMETAL LTDA                                         0000000000100000000000000000000000000000852309050000000055640005371 2 3       201208272012072500000000054380000069964000000000070338000000000000000000000000000374050000000000  3020120829   01          2                                                                                   3000000115031800000055641769                                                  N                     01321  0000000        000085
12061217188000119TELAS METALICAS TELMETAL LTDA                                         0000000003300000000000000000000000000000854049670000009200000005425 1 3       201208272012073000000000054380000045018000000000045258000000000000000000000000000240050000000000  3020120829   01          2                                                                                   3915435040000000047392020119                                                  N                     01321  0000000        000086
12061217188000119TELAS METALICAS TELMETAL LTDA                                         0000000000100000000000000000000000000000849855290000000055500005358 2 3       201208242012072000000000054350000052555000000000052555000000000000000000000000000000050000000000  3020120824   06          3                                                                                   3000000115031800000055501729                                                  N                     01321  0000000        000087
12065000655000105HILTI DO BRASIL COMERCIAL LTDA                                        0000000023703396000000000243787 00000000854049530090221200002670002106001     201208262012072700000000054370000029613000000000029790000000000000000000000000000177050000000000  3020120829   01          2  RUA TAMAINDE 1410                                                                3                         000000000000000                                     N                     00598  0000000        000088
12066899790000105FABRICA ARTEF LATEX ESTRELA EP                                        00000000399000000000000000000000000000008364179900000000000000072773 002      201208272012062900000000054380000249525000000000249525000000000000000000000000000000050000000000  3020120827   06          3                                                                                   3175513042801125027292500149                                                  N                     01321  0000000        000089
12092693118000160BRADESCO SAUDE S A                                                    0000000023700448000000001533991 00000000847452120050100745572410000000000     201208202012071700000000054310000645861000000000649605000000000000000000000000003744050000000000  3020120829   01          2                                                                                   3                         000000000000000                                     N                     00598  0000000        000090
12096500087000135WORKBENCH CONSULTORIA S S LTDA                                        0000000034100000000000000000000000000000857718620000007898134153064           201208272012080300000000054380000131746000000000132264000000000000000000000000000518050000000000  3020120829   01          2                                                                                   3157898134156826313803700079                                                  N                     01321  0000000        000091
900009200000000023359030                                                                                                                                                                                                                                                                                                                                                                                                                                                                01321  0000000        000092
