0000147602043799295000110ALTAMIRA INDUSTRIA METALURGICA LT       202000000019820121229060735             1                                                                                                                                                                                                                                                                                                                                                                                                    000001
12004643290000142FLEXTINTAS IND E COMERCIO LTDA                                        000000003410000000000000000000000000000091932175000000257125655NFF039158A     201212242012110900000000055570000347270000000000347270000000000000000000000000000000050000000000  3020121224   06          3                                                                                   3112571256554051356781800069                                                  N                     01321  0000000        000002
12006000195000156MBA MERCANTIL BRAS DE ACO LTDA                                        0000000034100000000000000000000000000000884432650000002398047870009541B02     201212142012091300000000055470000703091000000000703091000000000000000000000000000000050000000000  3020121214   05          3                                                                                   3112398047871064899001800089                                                  N                     01321  0000000        000003
12006000195000156MBA MERCANTIL BRAS DE ACO LTDA                                        0000000034100000000000000000000000000000884432700000002398047900009542B02     201212142012091300000000055470000112933000000000112933000000000000000000000000000000050000000000  3020121214   05          3                                                                                   3112398047905064899001800039                                                  N                     01321  0000000        000004
12006000195000156M B A MERCANTIL BRASILEIRA DE                                         0000000023700118P00000002130599 00000000865388240020222900000450009203B03     201212122012081500000000055450000344980000000000357055000000000000000000000000012075050000000000  3020130102   01          2  RUA JUNO  533                                                                    300000000000000000001500  000000000000000                                     N                     00598  0000000        000005
12006000195000156M B A MERCANTIL BRASILEIRA DE                                         0000000023700118P00000002130599 00000000865388270020222900000480009204B03     201212132012081500000000055460000127291000000000131531000000000000000000000000004240050000000000  3020130102   01          2  RUA JUNO  533                                                                    300000000000000000001500  000000000000000                                     N                     00598  0000000        000006
12006000195000156M B A MERCANTIL BRASILEIRA DE                                         0000000023700118P00000002130599 00000000865388300020222900000510009205B03     201212142012081500000000055470000348964000000000360022000000000000000000000000011058050000000000  3020130102   01          2  RUA JUNO  533                                                                    300000000000000000001500  000000000000000                                     N                     00598  0000000        000007
12006000195000156M B A MERCANTIL BRASILEIRA DE                                         0000000023700118P00000002130599 00000000865388330020222900000540009206B03     201212152012081500000000055480000527560000000000543382000000000000000000000000015822050000000000  3020130102   01          2  RUA JUNO  533                                                                    300000000000000000001500  000000000000000                                     N                     00598  0000000        000008
12006000195000156M B A MERCANTIL BRASILEIRA DE                                         0000000023700118P00000002130599 00000000868592700020223600000030009229B03     201212132012081600000000055460000253414000000000261854000000000000000000000000008440050000000000  3020130102   01          2  RUA JUNO  533                                                                    300000000000000000001500  000000000000000                                     N                     00598  0000000        000009
12047190731000100DE CASTRO LOUREIRO ENGENHARIA                                         0000000023703394400000000205508 000000008801224900202255000000803026784 0     201212282012083100000000055610001042070000000001050755000000000000000000000000008685050000000000  3020130102   01          2  RUA JUNO  533                                                                    300000000000000000001500  000000000000000                                     N                     00598  0000000        000010
12047190731000100DE CASTRO LOUREIRO ENGENHARIA                                         0000000023703394400000000205508 000000008801225200202255000001103026787 0     201212282012083100000000055610001136326000000001145796000000000000000000000000009470050000000000  3020130102   01          2  RUA JUNO  533                                                                    300000000000000000001500  000000000000000                                     N                     00598  0000000        000011
12062539994000176LEALFER INDUSTRIA E COMERCIO D                                        0000000003300000000000000000000000000000947686860000008000000000006009102     201302122012121700000000056070000624417000000000624417000000000000000000000000000000050000000000  3020130213   01FS        1                                                                                   3915298380000000317080010479                                                  N                     01321  0000000        000012
12062539994000176LEALFER INDUSTRIA E COMERCIO D                                        0000000003300000000000000000000000000000947686870000007900000000006026802     201302142012122000000000056090000097713000000000097713000000000000000000000000000000050000000000  3020130214   01FS        1                                                                                   3915298380000000317179010489                                                  N                     01321  0000000        000013
12062539994000176LEALFER INDUSTRIA E COMERCIO D                                        0000000003300000000000000000000000000000947686880000007000000000006027101     201301172012122000000000055810000464946000000000464946000000000000000000000000000000050000000000  3020130117   01FS        1                                                                                   3915298380000000314870010489                                                  N                     01321  0000000        000014
12062539994000176LEALFER INDUSTRIA E COMERCIO D                                        0000000003300000000000000000000000000000947686890000001000000000006009101     201301152012121700000000055790000624419000000000624419000000000000000000000000000000050000000000  3020130115   01FS        1                                                                                   3915298380000000314510010439                                                  N                     01321  0000000        000015
12062539994000176LEALFER INDUSTRIA E COMERCIO D                                        0000000003300000000000000000000000000000947686900000009700000000006026801     201301172012122000000000055810000097713000000000097713000000000000000000000000000000050000000000  3020130117   01FS        1                                                                                   3915298380000000314897010499                                                  N                     01321  0000000        000016
12062539994000176LEALFER INDUSTRIA E COMERCIO D                                        0000000003300000000000000000000000000000947686910000004500000000006027103     201303142012122000000000056370000464945000000000464945000000000000000000000000000000050000000000  3020130314   01FS        1                                                                                   3915298380000000318345010419                                                  N                     01321  0000000        000017
12062539994000176LEALFER INDUSTRIA E COMERCIO D                                        0000000003300000000000000000000000000000947686920000005300000000006026803     201303142012122000000000056370000097713000000000097713000000000000000000000000000000050000000000  3020130314   01FS        1                                                                                   3915298380000000318353010439                                                  N                     01321  0000000        000018
12062539994000176LEALFER INDUSTRIA E COMERCIO D                                        0000000003300000000000000000000000000000947686930000008700000000006027102     201302142012122000000000056090000464945000000000464945000000000000000000000000000000050000000000  3020130214   01FS        1                                                                                   3915298380000000317187010439                                                  N                     01321  0000000        000019
12062539994000176LEALFER INDUSTRIA E COMERCIO D                                        0000000003300000000000000000000000000000947686940000000200000000006009103     201303122012121700000000056350000624417000000000624417000000000000000000000000000000050000000000  3020130312   01FS        1                                                                                   3915298380000000318302010419                                                  N                     01321  0000000        000020
12062539994000176LEALFER INDUSTRIA E COMERCIO D                                        0000000003300000000000000000000000000000933583070000005600000000005892401     201212242012112600000000055570000764925000000000768826000000000000000000000000005201050000000000  3020121227   06          3                                                                                   3915298380000000300756010479                                                  N                     01321  0000000        000021
12069284248000128ISOCOAT TINTAS E VERNIZES LTDA                                        0000000034100000000000000000000000000000900522880000002477686990056631        201212242012101000000000055570000318064000000000321456000000000000000000000000004240050000000000  3020121228   06          3                                                                                   3112477686995077430121200089                                                  N                     01321  0000000        000022
900002300000000009665199                                                                                                                                                                                                                                                                                                                                                                                                                                                                01321  0000000        000023
