0000147602043799295000110ALTAMIRA INDUSTRIA METALURGICA LT       202000000015720121030060124             1                                                                                                                                                                                                                                                                                                                                                                                                    000001
12001852612000175BT EQUIPAMENTOS INDUSTRIAIS LT                                        000000000330000000000000000000000000000090920339000000300000000051476 1       201211152012101800000000055180000050484000000000050484000000000000000000000000000000050000000000  3020121116   01FS        1                                                                                   3913651000000003010430010459                                                  N                     01321  0000000        000002
12001852612000175BT EQUIPAMENTOS INDUSTRIAIS LT                                        000000000330000000000000000000000000000090920340000000420000000051976 1       201211202012102300000000055230000010480000000000010480000000000000000000000000000000050000000000  3020121120   01FS        1                                                                                   3913651000000003009742010489                                                  N                     01321  0000000        000003
12001895314000162COLETA INDUSTRIAL FIMAVAN LTDA                                        00000000341000000000000000000000000000009032787100000090023540111403          201210272012101700000000054990000140379000000000144309000000000000000000000000003930050000000000  3020121030   01          2                                                                                   3109002354016144604097200019                                                  N                     01321  0000000        000004
12001895314000162COLETA INDUSTRIAL FIMAVAN LTDA                                        0000000034100000000000000000000000000000866992070000009002335349439           201208272012081700000000054380000123695000000000147225000000000000000000000000023530050000000000  3020121030   01          2                                                                                   3109002335346144604097200019                                                  N                     01321  0000000        000005
12002469103000120COMPROCRED FOMENTO MERCANTIL L                                        0000000023703511400000000106739 0000000088012259002022550000043022145 12      201210012012090500000000054730000093000000000000097960000000000000000000000000005270050000000000  3020121017   06          3  RUA TAMAINDE 1410 VILA NOVA MANCH SAO PATRANSPORTADORA FIOROT LTDA               3                         000252984000106                                     N                     00598  0000000        000006
12002503185000182ANDAIMES MAQUINAS BIG LTDA EPP                                        000000003410000000000000000000000000000086282613000000228719913011660         201208302012081000000000054410000012000000000000012728000000000000000000000000000728050000000000  3020121030   01          2                                                                                   3112287199130650303800900039                                                  N                     01321  0000000        000007
12002503185000182ANDAIMES MAQUINAS BIG LTDA EPP                                        0000000034100000000000000000000000000000874070480000002313590765101           201209142012082000000000054560000016500000000000017336000000000000000000000000000836050000000000  3020121030   01          2                                                                                   3112313590765650303800900019                                                  N                     01321  0000000        000008
12002503185000182ANDAIMES E MAQUINAS BIG LTDA                                          000000003410000000000000000000000000000087820531000000233954448011791         201209212012082700000000054630000026000000000000027183000000000000000000000000001183050000000000  3020121030   01          2                                                                                   3112339544481925303435000019                                                  N                     01321  0000000        000009
12002583013000166ITAN TRANSP DE CARGAS EXC E IN                                        000000003410000000000000000000000000000088350835000000239377421008 A          201210142012091400000000054860000192500000000000204820000000000000000000000000012320050000000000  3020121030   01          2                                                                                   3112393774214005770252400019                                                  N                     01321  0000000        000010
12002583013000166ITAN TRANSP DE CARGAS EXC E IN                                        000000003410000000000000000000000000000088769805000000241619340008 D          201210142012091800000000054860000105350000000000112086000000000000000000000000006736050000000000  3020121030   01          2                                                                                   3112416193400005770252400019                                                  N                     01321  0000000        000011
12002583013000166ITAN TRANSP DE CARGAS EXC E IN                                        000000003410000000000000000000000000000088769806000000241619341008 E          201210212012091800000000054930000105350000000000109139000000000000000000000000003789050000000000  3020121030   01          2                                                                                   3112416193418005770252400019                                                  N                     01321  0000000        000012
12002583013000166ITAN TRANSP DE CARGAS EXC E IN                                        000000003410000000000000000000000000000088350836000000239377422008 B          201210212012091400000000054930000192500000000000199430000000000000000000000000006930050000000000  3020121030   01          2                                                                                   3112393774222005770252400039                                                  N                     01321  0000000        000013
12003102481000134AB5 IND E COMERCIO LTDA EPP                                           0000000034100000000000000000000000000000909203330000009000042483169           201211202012102300000000055230000119250000000000119250000000000000000000000000000000050000000000  3020121120   01FS        1                                                                                   3109000042489003154755700039                                                  N                     01321  0000000        000014
12003163055000100JN FOMENTO MERCANTIL LTDA                                             000000004220000000000000000000000000000089229252000000000000000944 12         201210232012092700000000054950000095000000000000096330000000000000000000000000001330050000000000  3020121030   01          2                                                                                   3702200002006382926631195159                                                  N                     01321  0000000        000015
12003489596000123BEND FLEX I COMERCIO LTDA                                             000000003410000000000000000000000000000088599899000000171434574613            201209172012081600000000054590000585000000000000634493000000000000000000000000049493050000000000  3020121030   01          2                                                                                   3191714345748157734445800019                                                  N                     01321  0000000        000016
12003489596000123BEND FLEX I COMERCIO LTDA                                             000000003410000000000000000000000000000089229254000000797746331637            201210292012100100000000055010000110000000000000112416000000000000000000000000002416050000000000  3020121030   01          2                                                                                   3157977463310157734445800099                                                  N                     01321  0000000        000017
12003489596000123BEND FLEX I COMERCIO LTDA                                             000000003410000000000000000000000000000088350832000000171879874608            201209122012082100000000054540000695250000000000760866000000000000000000000000065616050000000000  3020121030   01          2                                                                                   3191718798744157734445800069                                                  N                     01321  0000000        000018
12004934836000114GUAIRA MAT PARA CONSTR LTDA ME                                        00000000341000000000000000000000000000008876979900000090011431423736          201210192012091900000000054910000055500000000000057128000000000000000000000000001628050000000000  3020121030   01          2                                                                                   3109001143140076568242200039                                                  N                     01321  0000000        000019
12005852768000107DAOUD LEAL ELETRONICA LTDA ME                                         000000003410000000000000000000000000000089337382000000615297518OUTUBRO        201210262012100200000000054980000016558000000000017021000000000000000000000000000463050000000000  3020121030   01          2                                                                                   3156152975181152944476000059                                                  N                     01321  0000000        000020
12005852768000107DAOUD LEAL ELETRONICA LTDA ME                                         000000003410000000000000000000000000000090920322000000615791514NOVEMBRO       201211262012102900000000055290000016247000000000016247000000000000000000000000000000050000000000  3020121126   01FS        1                                                                                   3156157915141152944476000059                                                  N                     01321  0000000        000021
12005880850000145NEDERMAN BRASIL COM PROD EX LT                                        000000003410000000000000000000000000000086373178000000614350956002763 A       201209252012081400000000054670000289674000000000309624000000000000000000000000019950050000000000  3020121030   01          2                                                                                   3156143509568160829000100049                                                  N                     01321  0000000        000022
12006000195000156MBA MERCANTIL BRAS DE ACO LTDA                                        0000000034100000000000000000000000000000904173140000001667238290008874B03     201210112012071600000000054830000802825000000000832826000000000000000000000000030001050000000000  3020121030   01          2                                                                                   3191667238296064849251000069                                                  N                     01321  0000000        000023
12006000195000156MBA MERCL BRASILEIRA ACO LTDA                                         0000000042200000000000000000000000000000859590580000000000000000009051B03     201210242012080300000000054960000180456000000000182261000000000000000000000000001805050000000000  3020121030   01          2                                                                                   3701600007451936910173834199                                                  N                     01321  0000000        000024
12006000195000156MBA MERCANTIL BRAS DE ACO LTDA                                        0000000034100000000000000000000000000000904173150000001667238300008870B03     201210092012071600000000054810000839951000000000874643000000000000000000000000034692050000000000  3020121030   01          2                                                                                   3191667238304064849251000039                                                  N                     01321  0000000        000025
12006000195000156M B A MERCANTIL BRASILEIRA DE                                         0000000000100000000000000000000000000000855028920000007952940000009010B03     201210252012073000000000054970000275045000000000277335000000000000000000000000002290050000000000  3020121030   01          2                                                                                   3043937952943333000105251199                                                  N                     01321  0000000        000026
12006000195000156M B A MERCANTIL BRASILEIRA DE                                         0000000000100000000000000000000000000000855028940000007952910000009007B03     201210242012073000000000054960000428086000000000432364000000000000000000000000004278050000000000  3020121030   01          2                                                                                   3043937952913333000105251199                                                  N                     01321  0000000        000027
12006000195000156MBA MERCANTIL BRAS DE ACO LTDA                                        0000000034100000000000000000000000000000904173160000001667238280008876B03     201210122012071600000000054840000810320000000000839012000000000000000000000000028692050000000000  3020121030   01          2                                                                                   3191667238288064849251000079                                                  N                     01321  0000000        000028
12006000195000156MBA MERCANTIL BRAS DE ACO LTDA                                        0000000034100000000000000000000000000000904173170000001671394420008925B03     201210122012071700000000054840000719580000000000745050000000000000000000000000025470050000000000  3020121030   01          2                                                                                   3191671394424064849251000069                                                  N                     01321  0000000        000029
12006000195000156MBA MERCANTIL BRAS DE ACO LTDA                                        0000000034100000000000000000000000000000904173180000001671394430008926B03     201210122012071700000000054840000387716000000000401450000000000000000000000000013734050000000000  3020121030   01          2                                                                                   3191671394432064849251000079                                                  N                     01321  0000000        000030
12006000195000156MBA MERCANTIL BRAS DE ACO LTDA                                        0000000034100000000000000000000000000000906662670000001671394410008920B03     201210142012071700000000054860000576584000000000594728000000000000000000000000018144050000000000  3020121030   01          2                                                                                   3191671394416064849251000039                                                  N                     01321  0000000        000031
12006000195000156MBA MERCANTIL BRAS DE ACO LTDA                                        0000000034100000000000000000000000000000885998980000001667238420008870B02     201209112012071600000000054530000839952000000000920900000000000000000000000000080948050000000000  3020121030   01          2                                                                                   3191667238429064849251000039                                                  N                     01321  0000000        000032
12006000195000156MBA MERCANTIL BRAS DE ACO LTDA                                        0000000034100000000000000000000000000000889578520000001671394540008920B02     201209162012071700000000054580000576585000000000626481000000000000000000000000049896050000000000  3020121030   01          2                                                                                   3191671394549064849251000099                                                  N                     01321  0000000        000033
12006000195000156MBA MERCANTIL BRAS DE ACO LTDA                                        0000000034100000000000000000000000000000887698090000001671394550008925B02     201209142012071700000000054560000719581000000000784671000000000000000000000000065090050000000000  3020121030   01          2                                                                                   3191671394556064849251000089                                                  N                     01321  0000000        000034
12006000195000156MBA MERCANTIL BRAS DE ACO LTDA                                        0000000034100000000000000000000000000000887698100000001671394560008926B02     201209142012071700000000054560000387716000000000422814000000000000000000000000035098050000000000  3020121030   01          2                                                                                   3191671394564064849251000019                                                  N                     01321  0000000        000035
12006000195000156MBA MERCANTIL BRAS DE ACO LTDA                                        0000000034100000000000000000000000000000909203260000002526552580010014B02     201212192012102300000000055520000366127000000000366127000000000000000000000000000000050000000000  3020121219   01FS        1                                                                                   3112526552586064899001800029                                                  N                     01321  0000000        000036
12006000195000156MBA MERCANTIL BRAS DE ACO LTDA                                        0000000034100000000000000000000000000000909203280000002526552600010015B01     201211222012102300000000055250000741389000000000741389000000000000000000000000000000050000000000  3020121122   01FS        1                                                                                   3112526552602064899001800059                                                  N                     01321  0000000        000037
12006000195000156MBA MERCANTIL BRAS DE ACO LTDA                                        0000000034100000000000000000000000000000909203290000002526552610010015B02     201212202012102300000000055530000741390000000000741390000000000000000000000000000000050000000000  3020121220   01FS        1                                                                                   3112526552610064899001800049                                                  N                     01321  0000000        000038
12006000195000156MBA MERCANTIL BRAS DE ACO LTDA                                        0000000034100000000000000000000000000000909203300000002526552620010015B03     201301172012102300000000055810000741389000000000741389000000000000000000000000000000050000000000  3020130117   01FS        1                                                                                   3112526552628064899001800089                                                  N                     01321  0000000        000039
12006000195000156MBA MERCANTIL BRAS DE ACO LTDA                                        0000000034100000000000000000000000000000909203310000002526552590010014B03     201301162012102300000000055800000366126000000000366126000000000000000000000000000000050000000000  3020130116   01FS        1                                                                                   3112526552594064899001800039                                                  N                     01321  0000000        000040
12006000195000156MBA MERCANTIL BRAS DE ACO LTDA                                        0000000034100000000000000000000000000000909203250000002526552570010014B01     201211212012102300000000055240000366127000000000366127000000000000000000000000000000050000000000  3020121121   01FS        1                                                                                   3112526552578064899001800049                                                  N                     01321  0000000        000041
12006000195000156M B A MERCANTIL BRASILEIRA DE                                         0000000023700118P00000002130599 00000000848180770020220100000340008905B03     201210112012071900000000054830000155300000000000160221000000000000000000000000004921050000000000  3020121030   01          2  RUA JUNO  533                                                                    3                         000000000000000                                     N                     00598  0000000        000042
12006000195000156M B A MERCANTIL BRASILEIRA DE                                         0000000023700118P00000002130599 00000000868592690020223600000020009229B02     201210112012081600000000054830000253414000000000261432000000000000000000000000008018050000000000  3020121030   01          2  RUA JUNO  533                                                                    3                         000000000000000                                     N                     00598  0000000        000043
12006000195000156M B A MERCANTIL BRASILEIRA DE                                         0000000023700118P00000002130599 00000000853155030020220900000530008971B03     201210162012072400000000054880000170465000000000174441000000000000000000000000003976050000000000  3020121030   01          2  RUA JUNO  533                                                                    3                         000000000000000                                     N                     00598  0000000        000044
12006000195000156M B A MERCANTIL BRASILEIRA DE                                         0000000023700118P00000002130599 00000000853155060020220900000660008985B03     201210172012072500000000054890000141846000000000144914000000000000000000000000003068050000000000  3020121030   01          2  RUA JUNO  533                                                                    3                         000000000000000                                     N                     00598  0000000        000045
12006000195000156M B A MERCANTIL BRASILEIRA DE                                         0000000023700118P00000002130599 00000000853155090020220900000690008986B03     201210172012072500000000054890000126718000000000129461000000000000000000000000002743050000000000  3020121030   01          2  RUA JUNO  533                                                                    3                         000000000000000                                     N                     00598  0000000        000046
12006000195000156M B A MERCANTIL BRASILEIRA DE                                         0000000023700118P00000002130599 00000000853155120020220900000720008987B03     201210182012072500000000054900000188368000000000192136000000000000000000000000003768050000000000  3020121030   01          2  RUA JUNO  533                                                                    3                         000000000000000                                     N                     00598  0000000        000047
12006000195000156M B A MERCANTIL BRASILEIRA DE                                         0000000023700118P00000002130599 00000000865388260020222900000470009204B02     201210112012081500000000054830000127292000000000131320000000000000000000000000004028050000000000  3020121030   01          2  RUA JUNO  533                                                                    3                         000000000000000                                     N                     00598  0000000        000048
12006000195000156M B A MERCANTIL BRASILEIRA DE                                         0000000023700118P00000002130599 00000000865388290020222900000500009205B02     201210122012081500000000054840000348964000000000359440000000000000000000000000010476050000000000  3020121030   01          2  RUA JUNO  533                                                                    3                         000000000000000                                     N                     00598  0000000        000049
12006000195000156M B A MERCANTIL BRASILEIRA DE                                         0000000023700118P00000002130599 00000000865388320020222900000530009206B02     201210132012081500000000054850000527560000000000542503000000000000000000000000014943050000000000  3020121030   01          2  RUA JUNO  533                                                                    3                         000000000000000                                     N                     00598  0000000        000050
12006000195000156M B A MERCANTIL BRASILEIRA DE                                         0000000023700118P00000002130599 00000000853155000020220900000460008967B03     201210182012072400000000054900000135605000000000138317000000000000000000000000002712050000000000  3020121030   01          2  RUA JUNO  533                                                                    3                         000000000000000                                     N                     00598  0000000        000051
12008879248000186FREFER METAL PLUS                                                     000000003410000000000000000000000000000090920332000000252540538EPI024058A     201211222012102500000000055250000960939000000000960939000000000000000000000000000000050000000000  3020121122   01FS        1                                                                                   3112525405380293811346700099                                                  N                     01321  0000000        000052
12008879248000186FREFER METAL PLUS                                                     000000003410000000000000000000000000000090920327000000252540539EPI024058B     201212202012102500000000055530000960939000000000960939000000000000000000000000000000050000000000  3020121220   01FS        1                                                                                   3112525405398293811346700039                                                  N                     01321  0000000        000053
12009057974000186PAMASI TECNOLOGIA DE ATIVOS E                                         0000000023700498700000000742600 000000009075188100902299000000414219          201210242012100300000000054960000017000000000000017620000000000000000000000000000676050000000000  3020121029   06          3  RUA GANGES 528                          TERRA DIESEL COM DE PECAS P CAMINHOES    3                         006894969000130                                     N                     00598  0000000        000054
12009338857000190FERNANDO  NAGAO  CARDONE  ALVA                                        000000000330000000000000000000000000000089697936000000800000000ALTA 10 2012   201210202012092500000000054920000134632000000000140018000000000000000000000000005386050000000000  3020121030   01          2                                                                                   3947901700000051050080010129                                                  N                     01321  0000000        000055
12009419898000101LUSITANO INDUSTRIA C E P LTDA                                         00000000341000000000000000000000000000008653882000000090000757101 10137 2     201209192012081500000000054610000035135000000000039932000000000000000000000000004797050000000000  3020121030   01          2                                                                                   3109000075716001160072300049                                                  N                     01321  0000000        000056
12012006058000121WEG TINTAS LTDA                                                       0000000023702727800000000001309 00000000882668410090225800000740016626901     201210282012091300000000055000000459854000000000461080000000000000000000000000001226050000000000  3020121030   01          2  R JUNO  533                                                                      3                         000000000000000                                     N                     00598  0000000        000057
12012006058000121WEG TINTAS LTDA                                                       0000000023702727800000000001309 00000000872318650090224700001030016359601     201210152012083100000000054870000459854000000000469049000000000000000000000000009195050000000000  3020121030   01          2  R JUNO  533                                                                      3                         000000000000000                                     N                     00598  0000000        000058
12012006058000121WEG TINTAS LTDA                                                       0000000023702727800000000001309 00000000870177480090224100000970016248001     201210112012082700000000054830000306569000000000314321000000000000000000000000007752050000000000  3020121030   01          2  R JUNO  533                                                                      3                         000000000000000                                     N                     00598  0000000        000059
12012006058000121WEG TINTAS LTDA                                                       0000000023702727800000000001309 00000000878206040090225400000780016517201     201210212012090600000000054930000459854000000000465371000000000000000000000000005517050000000000  3020121030   01          2  R JUNO  533                                                                      3                         000000000000000                                     N                     00598  0000000        000060
12012006058000121WEG TINTAS LTDA                                                       0000000023702727800000000001309 00000000854049560090221200001020015513003     201210102012072700000000054820000459992000000000472252000000000000000000000000012260050000000000  3020121030   01          2  R JUNO  533                                                                      3                         000000000000000                                     N                     00598  0000000        000061
12012006058000121WEG TINTAS LTDA                                                       0000000023702727800000000001309 00000000856071270090221400000840015587303     201210142012073100000000054860000459992000000000469800000000000000000000000000009808050000000000  3020121030   01          2  R JUNO  533                                                                      3                         000000000000000                                     N                     00598  0000000        000062
12012006058000121WEG TINTAS LTDA                                                       0000000023702727800000000001309 00000000861207270090222200000910015775002     201210072012080800000000054790000306569000000000315953000000000000000000000000009384050000000000  3020121030   01          2  R JUNO  533                                                                      3                         000000000000000                                     N                     00598  0000000        000063
12012006058000121WEG TINTAS LTDA                                                       0000000023702727800000000001309 00000000861207280090222200000920015775003     201210222012080800000000054940000306662000000000309926000000000000000000000000003264050000000000  3020121030   01          2  R JUNO  533                                                                      3                         000000000000000                                     N                     00598  0000000        000064
12012006058000121WEG TINTAS LTDA                                                       0000000023702727800000000001309 00000000864554450090222800000740015908402     201210132012081400000000054850000306569000000000313505000000000000000000000000006936050000000000  3020121030   01          2  R JUNO  533                                                                      3                         000000000000000                                     N                     00598  0000000        000065
12012006058000121WEG TINTAS LTDA                                                       0000000023702727800000000001309 00000000864554460090222800000750015908403     201210282012081400000000055000000306662000000000307478000000000000000000000000000816050000000000  3020121030   01          2  R JUNO  533                                                                      3                         000000000000000                                     N                     00598  0000000        000066
12012006058000121WEG TINTAS LTDA                                                       0000000023702727800000000001309 00000000870177490090224100000980016248002     201210262012082700000000054980000306569000000000308201000000000000000000000000001632050000000000  3020121030   01          2  R JUNO  533                                                                      3                         000000000000000                                     N                     00598  0000000        000067
12012006058000121WEG TINTAS LTDA                                                       0000000023702727800000000001309 00000000849855340090220500001220015343103     201210032012072000000000054750000306662000000000317678000000000000000000000000011016050000000000  3020121030   01          2  R JUNO  533                                                                      3                         000000000000000                                     N                     00598  0000000        000068
12012006058000121WEG TINTAS LTDA                                                       0000000023702727800000000001309 00000000868126340090223500001170016086601     201210052012082100000000054770000306569000000000316769000000000000000000000000010200050000000000  3020121030   01          2  R JUNO  533                                                                      3                         000000000000000                                     N                     00598  0000000        000069
12012006058000121WEG TINTAS LTDA                                                       0000000023702727800000000001309 00000000868126350090223500001180016086602     201210202012082100000000054920000306569000000000310649000000000000000000000000004080050000000000  3020121030   01          2  R JUNO  533                                                                      3                         000000000000000                                     N                     00598  0000000        000070
12012707981000190MAC CINTAS E A CARGAS LTDA ME                                         000000003410000000000000000000000000000088957850000000242876074609            201210182012092500000000054900000072500000000000074816000000000000000000000000002316050000000000  3020121030   01          2                                                                                   3112428760741068283895800029                                                  N                     01321  0000000        000071
12014978305000187MOGI FILME INDUSTRIA E COMERCI                                        0000000023700402200000001055003 0000000088599905009022640000016351            201210202012092000000000054920000139691000000000146641000000000000000000000000006950050000000000  3020121030   01          2  RUA TAMAINDE 1410 VL NOVA MANCHESTER                                             3                         000000000000000                                     N                     00598  0000000        000072
12016802308000190TRANSMARRECO LTDA                                                     000000000330000000000000000000000000000088769814000000640000000353 12         201210052012092100000000054770000106581000000000116713000000000000000000000000010132050000000000  3020121030   01          2                                                                                   3907636240000000643564010119                                                  N                     01321  0000000        000073
12034028316000103ECT DEGER   DR 74 SPI                                                 0000000000100000000000000000000000000000909203210000003482700009910021110     201211122012102600000000055150000046760000000000046760000000000000000000000000000000050000000000  3020121112   01FS        1                                                                                   3000000212652700003482701749                                                  N                     01321  0000000        000074
12035820448000136WHITE MARTINS GASES INDUSTRIAI                                        0000000023700026400000003937925 0000000090920337009023030000391400546 001     201211232012102700000000055260000056805000000000056805000000000000000000000000000000050000000000  3020121123   01FS        1  RUA GANGES  528                                                                  3                         000000000000000                                     N                     00598  0000000        000075
12035820448000136WHITE MARTINS GASES INDUSTRIAI                                        0000000023700026400000003937925 0000000088686659009022650001000382942 001     201210182012092100000000054900000121725000000000124651000000000000000000000000002926050000000000  3020121030   01          2  RUA GANGES  528                                                                  3                         000000000000000                                     N                     00598  0000000        000076
12035820448000136WHITE MARTINS GASES INDUSTRIAI                                        0000000023700026400000003937925 0000000087820600009022540001838377866 001     201210042012090700000000054760000202876000000000208701000000000000000000000000005825050000000000  3020121030   01          2  RUA GANGES  528                                                                  3                         000000000000000                                     N                     00598  0000000        000077
12035820448000136WHITE MARTINS GASES INDUSTRIAI                                        0000000023700026400000003937925 0000000088957851009022700001298384214 001     201210232012092600000000054950000121725000000000124446000000000000000000000000002721050000000000  3020121030   01          2  RUA GANGES  528                                                                  3                         000000000000000                                     N                     00598  0000000        000078
12035820448000136WHITE MARTINS GASES INDUSTRIAI                                        0000000023700026400000003937925 0000000088524829009022630001577381808 001     201210162012091900000000054880000121725000000000124733000000000000000000000000003008050000000000  3020121030   01          2  RUA GANGES  528                                                                  3                         000000000000000                                     N                     00598  0000000        000079
12035820448000136WHITE MARTINS GASES INDUSTRIAI                                        0000000023700026400000003937925 0000000089133532009022720000268387376 001     201210252012092800000000054970000121725000000000124364000000000000000000000000002639050000000000  3020121030   01          2  RUA GANGES  528                                                                  3                         000000000000000                                     N                     00598  0000000        000080
12035820448000136WHITE MARTINS GASES INDUSTRIAI                                        0000000023700026400000003937925 0000000088191338009022570001466379316 001     201210092012091300000000054810000085208000000000087500000000000000000000000000002292050000000000  3020121030   01          2  RUA GANGES  528                                                                  3                         000000000000000                                     N                     00598  0000000        000081
12042956441000101SOLUCOES ACO USIMINAS                                                 0000000034100000000000000000000000000000847452100000002216130340017012402     201209102012071500000000054520000147428000000000162178000000000000000000000000014750050000000000  3020121030   01          2                                                                                   3112216130347293807258000059                                                  N                     01321  0000000        000082
12042956441000101SOLUCOES ACO USIMINAS                                                 0000000034100000000000000000000000000000859590620000002274469790017353702     201209282012080300000000054700000081053000000000086237000000000000000000000000005184050000000000  3020121030   01          2                                                                                   3112274469793293807258000069                                                  N                     01321  0000000        000083
12042956441000101SOLUCOES ACO USIMINAS                                                 0000000034100000000000000000000000000000848180700000002220192900017041002     201209112012071700000000054530000155433000000000170672000000000000000000000000015239050000000000  3020121030   01          2                                                                                   3112220192903293807258000029                                                  N                     01321  0000000        000084
12042956441000101SOLUCOES ACO USIMINAS                                                 0000000034100000000000000000000000000000856906410000002262886280017266201     201208282012073000000000054390000119472000000000134529000000000000000000000000015057050000000000  3020121030   01          2                                                                                   3112262886289293807258000089                                                  N                     01321  0000000        000085
12042956441000101SOLUCOES ACO USIMINAS                                                 0000000034100000000000000000000000000000856906420000002262886290017266301     201208282012073000000000054390000145069000000000163339000000000000000000000000018270050000000000  3020121030   01          2                                                                                   3112262886297293807258000099                                                  N                     01321  0000000        000086
12042956441000101SOLUCOES ACO USIMINAS                                                 0000000034100000000000000000000000000000848180710000002220192910017041202     201209112012071700000000054530000205421000000000225560000000000000000000000000020139050000000000  3020121030   01          2                                                                                   3112220192911293807258000019                                                  N                     01321  0000000        000087
12042956441000101SOLUCOES ACO USIMINAS                                                 0000000034100000000000000000000000000000850740460000002233586800017127201     201208202012072000000000054310000137881000000000157477000000000000000000000000019596050000000000  3020121030   01          2                                                                                   3112233586802293807258000019                                                  N                     01321  0000000        000088
12042956441000101SOLUCOES ACO USIMINAS                                                 0000000034100000000000000000000000000000850740470000002233586810017101002     201209142012071900000000054560000732575000000000799965000000000000000000000000067390050000000000  3020121030   01          2                                                                                   3112233586810293807258000019                                                  N                     01321  0000000        000089
12042956441000101SOLUCOES ACO USIMINAS                                                 0000000034100000000000000000000000000000850740480000002233586820017101202     201209142012071900000000054560000144634000000000157928000000000000000000000000013294050000000000  3020121030   01          2                                                                                   3112233586828293807258000029                                                  N                     01321  0000000        000090
12042956441000101SOLUCOES ACO USIMINAS                                                 0000000034100000000000000000000000000000855028690000002254329380017212902     201209212012072600000000054630000140098000000000151018000000000000000000000000010920050000000000  3020121030   01          2                                                                                   3112254329389293807258000019                                                  N                     01321  0000000        000091
12042956441000101SOLUCOES ACO USIMINAS                                                 0000000034100000000000000000000000000000855028700000002254329390017213002     201209212012072600000000054630000140602000000000151561000000000000000000000000010959050000000000  3020121030   01          2                                                                                   3112254329397293807258000089                                                  N                     01321  0000000        000092
12042956441000101SOLUCOES ACO USIMINAS                                                 0000000034100000000000000000000000000000855028770000002254329400017220502     201209212012072700000000054630000981022000000001057540000000000000000000000000076518050000000000  3020121030   01          2                                                                                   3112254329405293807258000099                                                  N                     01321  0000000        000093
12042956441000101SOLUCOES ACO USIMINAS                                                 0000000034100000000000000000000000000000853154840000002246247030017196702     201209202012072500000000054620000234841000000000253641000000000000000000000000018800050000000000  3020121030   01          2                                                                                   3112246247038293807258000099                                                  N                     01321  0000000        000094
12042956441000101SOLUCOES ACO USIMINAS                                                 0000000034100000000000000000000000000000853154850000002246247040017197302     201209202012072500000000054620000970103000000001047703000000000000000000000000077600050000000000  3020121030   01          2                                                                                   3112246247046293807258000019                                                  N                     01321  0000000        000095
12042956441000101SOLUCOES ACO USIMINAS                                                 0000000034100000000000000000000000000000846595700000002210880280016980502     201209102012071200000000054520000156071000000000171671000000000000000000000000015600050000000000  3020121030   01          2                                                                                   3112210880285293807258000039                                                  N                     01321  0000000        000096
12042956441000101SOLUCOES ACO USIMINAS                                                 0000000034100000000000000000000000000000846595710000002210880290016980602     201209102012071200000000054520000426094000000000468694000000000000000000000000042600050000000000  3020121030   01          2                                                                                   3112210880293293807258000019                                                  N                     01321  0000000        000097
12042956441000101SOLUCOES ACO USIMINAS                                                 0000000034100000000000000000000000000000847452070000002216130350005922202     201209102012071600000000054520000172071000000000189271000000000000000000000000017200050000000000  3020121030   01          2                                                                                   3112216130354293807258000049                                                  N                     01321  0000000        000098
12043217850000159IOB INFORMACOES OBJ  PUBL JURI                                        0000000023702374400000002958600 000000008711912800902243000063301440820F2     201209202012083000000000054620000072850000000000075267000000000000000000000000002417050000000000  3020121030   01          2  R GANGES 528                                                                     3                         000000000000000                                     N                     00598  0000000        000099
12043555887000197RENATO GONCALVES                                                      000000000010000000000000000000000000000088599906000000680397000308A           201210202012092000000000054920000191500000000000191500000000000000000000000000000000050000000000  3020121022   06          3                                                                                   3000000104260650156803971119                                                  N                     01321  0000000        000100
12045351418000181TRANSP RODOR LTDA                                                     000000003410000000000000000000000000000090920324000000252907586302670  01     201211122012102600000000055150000030000000000000030000000000000000000000000000000000050000000000  3020121112   01FS        1                                                                                   3112529075866005820000700099                                                  N                     01321  0000000        000101
12045635984000115CRIFER LAMINADOS ACO FERRO LTD                                        0000000034100000000000000000000000000000909203340000009000268640035771E01     201211212012102400000000055240000454608000000000454608000000000000000000000000000000050000000000  3020121121   01FS        1                                                                                   3109000268640005630080900099                                                  N                     01321  0000000        000102
12045635984000115CRIFER LAMINADOS ACO FERRO LTD                                        0000000034100000000000000000000000000000909203350000009000268650035771E02     201212192012102400000000055520000454608000000000454608000000000000000000000000000000050000000000  3020121219   01FS        1                                                                                   3109000268657005630080900019                                                  N                     01321  0000000        000103
12045635984000115CRIFER LAMINADOS ACO FERRO LTD                                        0000000034100000000000000000000000000000909203360000009000268660035771E03     201301162012102400000000055800000454608000000000454608000000000000000000000000000000050000000000  3020130116   01FS        1                                                                                   3109000268665005630080900089                                                  N                     01321  0000000        000104
12045987005000198D PASCHOAL AUTOMOTIVA LTDA                                            0000000023702002800000000147001 00000000886866600110000000171650000000036     201210192012091900000000054910000032500000000000033570000000000000000000000000001112050000000000  3020121029   06          3  R   TAMAINDE                       01410                                         3                         000000000000000                                     N                     00598  0000000        000105
12047190731000100DE CASTRO LOUR ENG IND LTDA                                           00000000341000000000000000000000000000008782050900000023399953503026612 0     201209182012082100000000054600001111489000000001203301000000000000000000000000091812050000000000  3020121030   01          2                                                                                   3112339995352036884500400019                                                  N                     01321  0000000        000106
12047190731000100DE CASTRO LOUREIRO ENGENHARIA                                         00000000033000000000000000000000000000008801226900000026000000003026796 0     201210292012090300000000055010000551107000000000562129000000000000000000000000011022050000000000  3020121030   01          2                                                                                   3948430370000009553126020399                                                  N                     01321  0000000        000107
12047190731000100DE CASTRO LOUR ENG IND LTDA                                           00000000341000000000000000000000000000008782051200000023399953803026613 0     201209182012082100000000054600001107989000000001199507000000000000000000000000091518050000000000  3020121030   01          2                                                                                   3112339995386036884500400039                                                  N                     01321  0000000        000108
12047190731000100DE CASTRO LOUR ENG IND LTDA                                           00000000341000000000000000000000000000008782051600000023399954103026614 0     201209182012082100000000054600001047621000000001134141000000000000000000000000086520050000000000  3020121030   01          2                                                                                   3112339995410036884500400039                                                  N                     01321  0000000        000109
12047190731000100DE CASTRO LOUR ENG IND LTDA                                           00000000341000000000000000000000000000008782052000000023399955303026632 0     201209192012082200000000054610000952073000000001028825000000000000000000000000076752050000000000  3020121030   01          2                                                                                   3112339995535036884500400019                                                  N                     01321  0000000        000110
12047190731000100DE CASTRO LOUR ENG IND LTDA                                           00000000341000000000000000000000000000008782052100000023399955903026643 0     201209202012082300000000054620000867039000000000935239000000000000000000000000068200050000000000  3020121030   01          2                                                                                   3112339995592036884500400049                                                  N                     01321  0000000        000111
12047190731000100DE CASTRO LOUR ENG IND LTDA                                           00000000341000000000000000000000000000008782052500000023399955603026636 0     201209192012082200000000054610000940804000000001016654000000000000000000000000075850050000000000  3020121030   01          2                                                                                   3112339995568036884500400049                                                  N                     01321  0000000        000112
12047190731000100DE CASTRO LOUR ENG IND LTDA                                           00000000341000000000000000000000000000008782052700000023399956203026648 0     201209202012082300000000054620000976053000000001052853000000000000000000000000076800050000000000  3020121030   01          2                                                                                   3112339995626036884500400029                                                  N                     01321  0000000        000113
12048775225000146SEIKI IND COM E CONFECCOES LTD                                        000000003410000000000000000000000000000089337376000000244697151014914001      201210232012092500000000054950000052000000000000052546000000000000000000000000000546050000000000  3020121030   01          2                                                                                   3112446971510017444824100089                                                  N                     01321  0000000        000114
12049341563000132JAC COMERCIO DE MATERIAIS ELET                                        0000000023700293300000001478699 00000000892292560020132275064582321701        201210262012100100000000054980000046351000000000046659000000000000000000000000000308050000000000  3020121030   01          2  R GANGES 528                                                                     3                         000000000000000                                     N                     00598  0000000        000115
12051180370000199IGUAFER FERRO E ACO LTDA                                              0000000034100000000000000000000000000000852309100000002239389789443 B         201209022012071800000000054440000168275000000000184515000000000000000000000000016240050000000000  3020121030   01          2                                                                                   3112239389789077149484600089                                                  N                     01321  0000000        000116
12051180370000199IGUAFER FERRO E ACO LTDA                                              0000000034100000000000000000000000000000852309110000002239389799443 C         201209122012071800000000054540000168275000000000181715000000000000000000000000013440050000000000  3020121030   01          2                                                                                   3112239389797077149484600089                                                  N                     01321  0000000        000117
12053585766000141MULTIACOS I C PRODS TEC LTDA                                          0000000042200000000000000000000000000000883508280000000000000000004539303     201210232012091300000000054950001021454000000001033367000000000000000000000000011913050000000000  3020121030   01          2                                                                                   3711500005033164921116608159                                                  N                     01321  0000000        000118
12053585766000141MULTIACOS I C PRODS TEC LTDA                                          0000000042200000000000000000000000000000887697900000000000000000004612302     201210232012092000000000054950000636673000000000644099000000000000000000000000007426050000000000  3020121030   01          2                                                                                   3711500005033164923629602139                                                  N                     01321  0000000        000119
12053585766000141MULTIACOS I C PRODS TEC LTDA                                          0000000042200000000000000000000000000000895189430000000000000000004566103     201210292012100200000000055010001281579000000001283714000000000000000000000000002135050000000000  3020121030   01          2                                                                                   3711500005033164927761904189                                                  N                     01321  0000000        000120
12053585766000141MULTIACOS I C PRODS TEC LTDA                                          0000000042200000000000000000000000000000895189470000000000000000004565103     201210292012100200000000055010000455717000000000456476000000000000000000000000000759050000000000  3020121030   01          2                                                                                   3711500005033164927761921189                                                  N                     01321  0000000        000121
12053585766000141MULTIACOS I C PRODS TEC LTDA                                          0000000042200000000000000000000000000000895189480000000000000000004612002     201210232012100200000000054950000465862000000000471293000000000000000000000000005431050000000000  3020121030   01          2                                                                                   3711500005033164927761939169                                                  N                     01321  0000000        000122
12053585766000141MULTIACOS I C PRODS TEC LTDA                                          0000000042200000000000000000000000000000895189510000000000000000004695801     201210292012100200000000055010000198860000000000199190000000000000000000000000000330050000000000  3020121030   01          2                                                                                   3711500005033164927761998119                                                  N                     01321  0000000        000123
12053585766000141MULTIACOS I C PRODS TEC LTDA                                          0000000042200000000000000000000000000000895189540000000000000000004695701     201210292012100200000000055010001125322000000001127197000000000000000000000000001875050000000000  3020121030   01          2                                                                                   3711500005033164927761963199                                                  N                     01321  0000000        000124
12053585766000141MULTIACOS I C PRODS TEC LTDA                                          0000000042200000000000000000000000000000895189620000000000000000004699101     201210292012100200000000055010000592134000000000593120000000000000000000000000000986050000000000  3020121030   01          2                                                                                   3711500005033164927762021159                                                  N                     01321  0000000        000125
12053585766000141MULTIACOS IND E CO                                                    0000000034100000000000000000000000000000885998960000002407458090004685001     201210252012091300000000054970000563931000000000568631000000000000000000000000004700050000000000  3020121030   01          2                                                                                   3112407458093293803748400099                                                  N                     01321  0000000        000126
12053585766000141MULTIACOS I C PRODS TEC LTDA                                          0000000042200000000000000000000000000000887697940000000000000000004612202     201210232012092000000000054950000214553000000000217058000000000000000000000000002505050000000000  3020121030   01          2                                                                                   3711500005033164923629629119                                                  N                     01321  0000000        000127
12053585766000141MULTIACOS I C PRODS TEC LTDA                                          0000000042200000000000000000000000000000895189690000000000000000004545103     201210242012100200000000054960000305114000000000308167000000000000000000000000003053050000000000  3020121030   01          2                                                                                   3711500005033164927762145119                                                  N                     01321  0000000        000128
12053585766000141MULTIACOS I C PRODS TEC LTDA                                          0000000042200000000000000000000000000000895189750000000000000000004674601     201210232012100200000000054950000130662000000000132187000000000000000000000000001525050000000000  3020121030   01          2                                                                                   3711500005033164927762218119                                                  N                     01321  0000000        000129
12053585766000141MULTIACOS I C PRODS TEC LTDA                                          0000000042200000000000000000000000000000895189790000000000000000004545203     201210242012100200000000054960001004573000000001014616000000000000000000000000010043050000000000  3020121030   01          2                                                                                   3711500005033164927762242159                                                  N                     01321  0000000        000130
12053585766000141MULTIACOS COM DE PRODUTOS TECN                                        0000000023703398700000000011290 00000000888733100020226900000690004642101     201210162012090400000000054880000251722000000000257602000000000000000000000000005880050000000000  3020121030   01          2  RUA JUNO  533                                                                    3                         000000000000000                                     N                     00598  0000000        000131
12053585766000141MULTIACOS I C PRODS TEC LTDA                                          0000000042200000000000000000000000000000883508170000000000000000004674501     201210232012091300000000054950000282316000000000285612000000000000000000000000003296050000000000  3020121030   01          2                                                                                   3711500005033164921116471119                                                  N                     01321  0000000        000132
12053585766000141MULTIACOS I C PRODS TEC LTDA                                          0000000042200000000000000000000000000000883508230000000000000000004674401     201210232012091300000000054950000397384000000000402017000000000000000000000000004633050000000000  3020121030   01          2                                                                                   3711500005033164921116501119                                                  N                     01321  0000000        000133
12053585766000141MULTIACOS I C PRODS TEC LTDA                                          0000000042200000000000000000000000000000883508250000000000000000004553203     201210252012091300000000054970001115009000000001124298000000000000000000000000009289050000000000  3020121030   01          2                                                                                   3711500005033164921116519149                                                  N                     01321  0000000        000134
12054382510000108SETENTA IND E COM DE MADEIRAS                                         0000000034100000000000000000000000000000860403430000002277814474462 A         201209042012080700000000054460000191200000000000212256000000000000000000000000021056050000000000  3020121030   01          2                                                                                   3112277814474057049175300069                                                  N                     01321  0000000        000135
12056993512000150CYKLOP DO BRASIL EMBALAGENS SA                                        0000000034100000000000000000000000000000874070500000002362586810134932        201210012012090300000000054730000083607000000000092510000000000000000000000000008903050000000000  3020121030   01          2                                                                                   3112362586813025700015800019                                                  N                     01321  0000000        000136
12056993900000131CIA METALURGICA PRADA                                                 0000000034100000000000000000000000000000855028630000002254750290026244303     201210222012072800000000054940000100683000000000102027000000000000000000000000001344050000000000  3020121030   01          2                                                                                   3112254750295293800573900049                                                  N                     01321  0000000        000137
12056993900000131CIA METALURGICA PRADA                                                 0000000034100000000000000000000000000000844839000000002201181880025629402     201209052012071100000000054470000249372000000000272252000000000000000000000000022880050000000000  3020121030   01          2                                                                                   3112201181883293800573900019                                                  N                     01321  0000000        000138
12056993900000131CIA METALURGICA PRADA                                                 0000000034100000000000000000000000000000844839010000002201181890025635302     201209052012071100000000054470000406842000000000444132000000000000000000000000037290050000000000  3020121030   01          2                                                                                   3112201181891293800573900019                                                  N                     01321  0000000        000139
12056993900000131CIA METALURGICA PRADA                                                 0000000034100000000000000000000000000000844839020000002201181900025635402     201209052012071100000000054470000208689000000000227829000000000000000000000000019140050000000000  3020121030   01          2                                                                                   3112201181909293800573900069                                                  N                     01321  0000000        000140
12056993900000131CIA METALURGICA PRADA                                                 0000000034100000000000000000000000000000844839030000002201181910025635502     201209052012071100000000054470000164780000000000179905000000000000000000000000015125050000000000  3020121030   01          2                                                                                   3112201181917293800573900029                                                  N                     01321  0000000        000141
12056993900000131CIA METALURGICA PRADA                                                 0000000034100000000000000000000000000000844839040000002201181920025635602     201209052012071100000000054470000339933000000000371118000000000000000000000000031185050000000000  3020121030   01          2                                                                                   3112201181925293800573900069                                                  N                     01321  0000000        000142
12056993900000131CIA METALURGICA PRADA                                                 0000000034100000000000000000000000000000844839050000002201181930025636202     201209052012071100000000054470000746213000000000814633000000000000000000000000068420050000000000  3020121030   01          2                                                                                   3112201181933293800573900019                                                  N                     01321  0000000        000143
12056993900000131CIA METALURGICA PRADA                                                 0000000034100000000000000000000000000000844839060000002201181940025644402     201209052012071100000000054470000779647000000000851092000000000000000000000000071445050000000000  3020121030   01          2                                                                                   3112201181941293800573900019                                                  N                     01321  0000000        000144
12056993900000131CIA METALURGICA PRADA                                                 0000000034100000000000000000000000000000855028640000002254750300026244403     201210222012072800000000054940000084116000000000085236000000000000000000000000001120050000000000  3020121030   01          2                                                                                   3112254750303293800573900099                                                  N                     01321  0000000        000145
12056993900000131CIA METALURGICA PRADA                                                 0000000034100000000000000000000000000000844839140000002201181870025629302     201209052012071100000000054470000257906000000000281556000000000000000000000000023650050000000000  3020121030   01          2                                                                                   3112201181875293800573900069                                                  N                     01321  0000000        000146
12056993900000131CIA METALURGICA PRADA                                                 0000000034100000000000000000000000000000848180640000002218222690025830102     201209112012071700000000054530000207402000000000224356000000000000000000000000016954050000000000  3020121030   01          2                                                                                   3112218222696293800573900039                                                  N                     01321  0000000        000147
12056993900000131CIA METALURGICA PRADA                                                 0000000034100000000000000000000000000000848180620000002218222670025829902     201209112012071700000000054530000498118000000000538788000000000000000000000000040670050000000000  3020121030   01          2                                                                                   3112218222670293800573900029                                                  N                     01321  0000000        000148
12056993900000131CIA METALURGICA PRADA                                                 0000000034100000000000000000000000000000848180630000002218222680025830002     201209112012071700000000054530000247673000000000267910000000000000000000000000020237050000000000  3020121030   01          2                                                                                   3112218222688293800573900059                                                  N                     01321  0000000        000149
12057029431000106ATLAS COPCO BRASIL LTDA                                               0000000034100000000000000000000000000000863731640000002292733057000054146     201209072012081000000000054490000081450000000000084312000000000000000000000000002862050000000000  3020121030   01          2                                                                                   3112292733055293804111400099                                                  N                     01321  0000000        000150
12057029431000106ATLAS COPCO BRASIL LTDA                                               0000000034100000000000000000000000000000861960280000002283943487000054090     201209062012080900000000054480000059490000000000061596000000000000000000000000002106050000000000  3020121030   01          2                                                                                   3112283943481293804111400069                                                  N                     01321  0000000        000151
12057158057000130COMERCIAL ELETRICA PJ LTDA                                            0000000023703394400000000972983 00000000893373810090227600002770000330236     201210252012092700000000054970000012157000000000012317000000000000000000000000000200050000000000  3020121029   06          3  R TAMAINDE 1410                                                                  3                         000000000000000                                     N                     00598  0000000        000152
12057398687000182MORED COMERCIO E SERVICOS LTDA                                        0000000034100000000000000000000000000000895189900000006153514885226           201210242012100400000000054960000054340000000000054982000000000000000000000000000642050000000000  3020121030   01          2                                                                                   3156153514884101144455900019                                                  N                     01321  0000000        000153
12057398687000182MORED COMERCIO E SERVICOS LTDA                                        0000000034100000000000000000000000000000895189910000006153522805242           201210262012100400000000054980000174053000000000175421000000000000000000000000001368050000000000  3020121030   01          2                                                                                   3156153522804101144455900039                                                  N                     01321  0000000        000154
12059659615000177DZ COMERCIO R E SERVICOS LTDA                                         000000003410000000000000000000000000000086699205000000900000268252            201209172012081500000000054590000060000000000000065160000000000000000000000000005160050000000000  3020121030   01          2                                                                                   3109000002680000314585100059                                                  N                     01321  0000000        000155
12061217188000119TELAS METALICAS TELMETAL LTDA                                         0000000034100000000000000000000000000000889578530000009000030065684 1 1       201210182012092000000000054900000060995000000000060995000000000000000000000000000000050000000000  3020121018   05          3                                                                                   3109000030062077099894600039                                                  N                     01321  0000000        000156
12062173661000176INDUFIX IND E COM LTDA                                                0000000023704130000000000085898 000000008904570700702271000005700038394 B     201210262012091100000000054980000057505000000000057885000000000000000000000000000380050000000000  3020121030   01          2  RUA GANGES 528                                                                   3                         000000000000000                                     N                     00598  0000000        000157
12062510367000102ITANHAEM TRANSP DE MAQUINAS LT                                        000000003410000000000000000000000000000087407049000000236463199667            201209202012090400000000054620000248220000000000287940000000000000000000000000039720050000000000  3020121030   01          2                                                                                   3112364631997005770252400049                                                  N                     01321  0000000        000158
12062539994000176LEALFER INDUSTRIA E COMERCIO D                                        0000000003300000000000000000000000000000872953040000003800000000005424702     201210252012083000000000054970000656670000000000662251000000000000000000000000005581050000000000  3020121030   01          2                                                                                   3915298380000000257338010419                                                  N                     01321  0000000        000159
12062539994000176LEALFER INDUSTRIA E COMERCIO D                                        0000000003300000000000000000000000000000893373930000001600000000005575001     201210252012092600000000054970000300979000000000303537000000000000000000000000002558050000000000  3020121030   01          2                                                                                   3915298380000000268216010419                                                  N                     01321  0000000        000160
12062539994000176LEALFER INDUSTRIA E COMERCIO D                                        0000000003300000000000000000000000000000893373950000005300000000005576001     201210252012092600000000054970000243236000000000245307000000000000000000000000002071050000000000  3020121030   01          2                                                                                   3915298380000000268453010469                                                  N                     01321  0000000        000161
12062539994000176LEALFER INDUSTRIA E COMERCIO D                                        0000000003300000000000000000000000000000893373960000008800000000005580301     201210252012092700000000054970000451213000000000455048000000000000000000000000003835050000000000  3020121030   01          2                                                                                   3915298380000000268488010459                                                  N                     01321  0000000        000162
12064952757000168WALMAC COM DE PROD QUIMICOS LT                                        0000000034100000000000000000000000000000860403440000002275821690020148        201210262012080300000000054980000219266000000000220990000000000000000000000000001724050000000000  3020121030   01          2                                                                                   3112275821695064807961400019                                                  N                     01321  0000000        000163
12064952757000168WALMAC COM DE PROD QUIMICOS LT                                        0000000034100000000000000000000000000000860403450000002275821700020148        201210052012080300000000054770000219267000000000230042000000000000000000000000010775050000000000  3020121030   01          2                                                                                   3112275821703064807961400029                                                  N                     01321  0000000        000164
12064952757000168WALMAC COM DE PROD QUIMICOS LT                                        0000000034100000000000000000000000000000860403460000002275821710020148        201208312012080300000000054420000219267000000000245127000000000000000000000000025860050000000000  3020121030   01          2                                                                                   3112275821711064807961400079                                                  N                     01321  0000000        000165
12066841552000130R V SEG PATRIMONIAL S C LTDA                                          00000000341000000000000000000000000000008887329800000090002213622136          201210102012091100000000054820000374758000000000377258000000000000000000000000002500050000000000  3020121030   01          2                                                                                   3109000221365001838994000069                                                  N                     01321  0000000        000166
12066841552000130R V SEG PATRIMONIAL LTDA                                              00000000341000000000000000000000000000008852483200000090002192721927          201209102012081000000000054520000483241000000000491291000000000000000000000000008050050000000000  3020121030   01          2                                                                                   3109000219270001835253400099                                                  N                     01321  0000000        000167
12067647412000199ANCORA CHUMBADORES LTDA                                               000000003410000000000000000000000000000086859262000000214873079055988 4       201210182012062000000000054900000250000000000000251968000000000000000000000000002460050000000000  3020121022   05          3                                                                                   3112148730792013670795700069                                                  N                     01321  0000000        000168
12069284248000128ISOCOAT TINTAS E VERNIZES LTDA                                        0000000034100000000000000000000000000000841061040000002182507930052085        201209172012070200000000054590000236130000000000263220000000000000000000000000027090050000000000  3020121030   01          2                                                                                   3112182507932077430121200019                                                  N                     01321  0000000        000169
12069309706000136F N A TRANSPORTES LTDA                                                000000003410000000000000000000000000000086615421000000900010656059068         201208302012081500000000054410000079200000000000095304000000000000000000000000016104050000000000  3020121030   01          2                                                                                   3109000106565005486932600099                                                  N                     01321  0000000        000170
12071154462000292POWER EXPRESS LOGISTICA E TRAN                                        0000000023703417700000000103896 00000000909203230090000000071240000330604     201211192012102900000000055220000083200000000000083200000000000000000000000000000000050000000000  3020121119   01FS        1  RUA  JUNO 533                                                                    3                         000000000000000                                     N                     00598  0000000        000171
12071580302000124SANCHEPEL IND PAULISTA EMB L                                          0000000034100000000000000000000000000000889578490000002428589737779           201210212012092500000000054930000103500000000000103500000000000000000000000000000000050000000000  3020121022   05          3                                                                                   3112428589736007855578600029                                                  N                     01321  0000000        000172
12075483040000130REX MAQUINAS E EQUIPAMENTOS LT                                        0000000023702656500000000000701 000000008729529900202248000040681776 2 2      201210262012083100000000054980000434000000000000436892000000000000000000000000002892050000000000  3020121030   01          2  RUA  GANGES  528                                                                 3                         000000000000000                                     N                     00598  0000000        000173
12081560047000101ACEVILLE TRANSPORTES LTDA                                             000000000330000000000000000000000000000090920338000000850000000280618         201211092012102900000000055120000064000000000000064000000000000000000000000000000000050000000000  3020121109   01FS        1                                                                                   3913555200000002806185010169                                                  N                     01321  0000000        000174
12081560047000101ACEVILLE TRANSPORTES LTDA                                             000000000330000000000000000000000000000090145494000000040000000275380         201210262012101500000000054980000030000000000000030319000000000000000000000000000319050000000000  3020121030   01          2                                                                                   3913555200000002753804010169                                                  N                     01321  0000000        000175
12096500087000135WORKBENCH CONSULTORIA S S LTDA                                        0000000034100000000000000000000000000000893373770000007980421353167           201210272012100200000000054990000131746000000000132523000000000000000000000000000777050000000000  3020121030   01          2                                                                                   3157980421354826313803700099                                                  N                     01321  0000000        000176
12096500087000135WORKBENCH CONSULTORIA S S LTDA                                        0000000034100000000000000000000000000000878205840000007940034283118           201209272012090300000000054690000131746000000000140293000000000000000000000000008547050000000000  3020121030   01          2                                                                                   3157940034289826313803700089                                                  N                     01321  0000000        000177
900017800000000061873584                                                                                                                                                                                                                                                                                                                                                                                                                                                                01321  0000000        000178
