0000147602043799295000110ALTAMIRA INDUSTRIA METALURGICA LT       202000000193620121030220540             3                                                                                                  000000000000000                                                                                                                                                                                                                                                                                   000001
12004455726000170INTERCLICK INFORMATICA S C LTDR JORGE AUGUSTO 83 SL 84 PENHA          0364500023702451100000000099449 I000000000010109000000000000000               201210300000000000000000000000000000000000000001103000000000000000000000000000000000030000001252  0120121030   02BW        5000000               000000000000000                                               3                                          1252                               N                     01321 10020256        000002
12042956441000101SOLUCOES EM ACO USIMINAS SA   R PROFESSOR JOSE VIEIRA DE MENDON3011   3131026023702374400000000021679 I000000000010110000000000000000               201210300000000000000000000000000000000000000001428677000000000000000000000000000000050000000001  0120121030   02BW        5000000               000000000000000                                               3                                          01                                 N                     01321 10020256        000003
12043217850000159IOB INFORMACOES OBJ  PUBL JURI                                        0000000023702374400000002958600 000000008711912800902243000063301440820F2     201209202012083000000000054620000072850000000000075267000000000000000000000000003377050000000000  3020121030   02BW        2000000               000000000000000                                               3                         000000000000000                                     N                     01146 10020256        000004
12009630445000120MARIANA DE QUEIROZ SILVA   GRA                                        0000000000100000000000000000000000000000897881430000000001390000708           201210302012100800000000055020000032000000000000032000000000000000000000000000000000050000000000  3020121030   02BW        2000000               000000000000000                                               3000000167849100000001391719                                                  N                     01130 10020256        000005
12096500087000135WORKBENCH CONSULTORIA S S LTDA                                        0000000034100000000000000000000000000000893373770000007980421353167           201210272012100200000000054990000131746000000000132523000000000000000000000000001036050000000000  3020121030   02BW        2000000               000000000000000                                               3157980421354826313803700099                                                  N                     01130 10020256        000006
12002583013000166ITAN TRANSP DE CARGAS EXC E IN                                        000000003410000000000000000000000000000088769806000000241619341008 E          201210212012091800000000054930000105350000000000109139000000000000000000000000007157050000000000  3020121030   02BW        2000000               000000000000000      ITAN TRANSP DE CARGAS EXC E IN           3112416193418005770252400019                                                  N                     01130 10020256        000007
12003163055000100JN FOMENTO MERCANTIL LTDA                                             000000004220000000000000000000000000000089229252000000000000000944 12         201210232012092700000000054950000095000000000000096330000000000000000000000000002660050000000000  3020121030   02BW        2000000               000000000000000      R. GAMA TRAN.CAR.RODOV LTDA              3702200002006382926631195159                                                  N                     01130 10020256        000008
12081560047000101ACEVILLE TRANSPORTES LTDA                                             000000000330000000000000000000000000000090145494000000040000000275380         201210262012101500000000054980000030000000000000030319000000000000000000000000000635050000000000  3020121030   02BW        2000000               000000000000000                                               3913555200000002753804010169                                                  N                     01130 10020256        000009
12069309706000136F N A TRANSPORTES LTDA                                                000000003410000000000000000000000000000090244988000000900011925060401         201210302012101500000000055020000210767000000000210767000000000000000000000000000000050000000000  3020121030   02BW        2000000               000000000000000                                               3109000119253005486932600059                                                  N                     01130 10020256        000010
12043350099000164JMC COML ELETRICA LTDA                                                0000000023700092200000000380105 000000008978814100902283000005855335 01       201210302012100200000000055020000034921000000000034921000000000000000000000000000000050000000000  3020121030   02BW        2000000               000000000000000                                               3                         000000000000000                                     N                     01146 10020256        000011
12035820448000136WHITE MARTINS GASES INDUSTRIAI                                        0000000023700026400000003937925 0000000089434421009022770000183388994 001     201210302012100300000000055020000056805000000000056805000000000000000000000000000000050000000000  3020121030   02BW        2000000               000000000000000                                               3                         000000000000000                                     N                     01146 10020256        000012
12035820448000136WHITE MARTINS GASES INDUSTRIAI                                        0000000023700026400000003937925 0000000089133532009022720000268387376 001     201210252012092800000000054970000121725000000000124364000000000000000000000000002844050000000000  3020121030   02BW        2000000               000000000000000                                               3                         000000000000000                                     N                     01146 10020256        000013
12062340989000130EDICOES ADUANEIRAS LTDA                                               0000000023703090200000000015660 0000000079108233009080000035031004262 E       201210302012041100000000055020000043600000000000043600000000000000000000000000000000050000000000  3020121030   02BW        2000000               000000000000000                                               3                         000000000000000                                     N                     01146 10020256        000014
12002503185000182ANDAIMES MAQUINAS BIG LTDA EPP                                        000000003410000000000000000000000000000086282613000000228719913011660         201208302012081000000000054410000012000000000000012728000000000000000000000000001216050000000000  3020121030   02BW        2000000               000000000000000                                               3112287199130650303800900039                                                  N                     01130 10020256        000015
12057029431000106ATLAS COPCO BRASIL LTDA                                               0000000034100000000000000000000000000000861960280000002283943487000054090     201209062012080900000000054480000059490000000000061596000000000000000000000000004212050000000000  3020121030   02BW        2000000               000000000000000                                               3112283943481293804111400069                                                  N                     01130 10020256        000016
12057029431000106ATLAS COPCO BRASIL LTDA                                               0000000034100000000000000000000000000000863731640000002292733057000054146     201209072012081000000000054490000081450000000000084312000000000000000000000000005562050000000000  3020121030   02BW        2000000               000000000000000                                               3112292733055293804111400099                                                  N                     01130 10020256        000017
12064952757000168WALMAC COM DE PROD QUIMICOS LT                                        0000000034100000000000000000000000000000860403460000002275821710020148        201208312012080300000000054420000219267000000000245127000000000000000000000000051720050000000000  3020121030   02BW        2000000               000000000000000                                               3112275821711064807961400079                                                  N                     01130 10020256        000018
12002503185000182ANDAIMES E MAQUINAS BIG LTDA                                          000000003410000000000000000000000000000087820531000000233954448011791         201209212012082700000000054630000026000000000000027183000000000000000000000000001846050000000000  3020121030   02BW        2000000               000000000000000                                               3112339544481925303435000019                                                  N                     01130 10020256        000019
12069309706000136F N A TRANSPORTES LTDA                                                000000003410000000000000000000000000000086615421000000900010656059068         201208302012081500000000054410000079200000000000095304000000000000000000000000032208050000000000  3020121030   02BW        2000000               000000000000000                                               3109000106565005486932600099                                                  N                     01130 10020256        000020
12059659615000177DZ COMERCIO R E SERVICOS LTDA                                         000000003410000000000000000000000000000086699205000000900000268252            201209172012081500000000054590000060000000000000065160000000000000000000000000010320050000000000  3020121030   02BW        2000000               000000000000000                                               3109000002680000314585100059                                                  N                     01130 10020256        000021
12009419898000101LUSITANO INDUSTRIA C E P LTDA                                         00000000341000000000000000000000000000008653882000000090000757101 10137 2     201209192012081500000000054610000035135000000000039932000000000000000000000000009594050000000000  3020121030   02BW        2000000               000000000000000                                               3109000075716001160072300049                                                  N                     01130 10020256        000022
12002503185000182ANDAIMES MAQUINAS BIG LTDA EPP                                        0000000034100000000000000000000000000000874070480000002313590765101           201209142012082000000000054560000016500000000000017336000000000000000000000000001342050000000000  3020121030   02BW        2000000               000000000000000                                               3112313590765650303800900019                                                  N                     01130 10020256        000023
900002400000000004126390                                                                                                                                                                                    000000000000000                                                                                                                                                                                                                                                    00002201095140001523806        000024
