0000147602043799295000110ALTAMIRA IND METALURGICA LTDA           20100455000002012073015082600000        2    230A                                                                                          000000000000000                                                                                                                                                                                                                                                                                   000001
12000867888000164TECNEQUIP TECNOLOGIA EQUIP LTDRUA  GANGES                             0344503034100452 00000000749849 I000000000009275000000000000000               201207300000000000000000000000000000000000000003300000000000000000000000000000000000050000000002  0820120730   01HA        0001530                                                                             3C0000000101                             0002                                 N                     00000  0020256        000002
900000300000000003300000                                                                                                                                                                                    000000000000000                                                                                                                                                                                                                                                    00000100000000000000000        000003
