0000147602043799295000110ALTAMIRA INDUSTRIA METALURGICA LT       202000000012520120730155550             2                                                                                                  000000000000000                                                                                                                                                                                                                                                                                   000001
12000867888000164TECNEQUIP TECNOLOGIA EQUIP LTD                                        0000000034100452 00000000749849 I000000000009275000000000000000               201207300000000000000000000000000000000000000003300000000000000000000000000000000000050000000002  0820120730   01HF        5001551000000003561221000000000000000                                               3C0000000101                               02                                 N                     01076 10020256        000002
900000300000000003300000                                                                                                                                                                                    000000000000000                                                                                                                                                                                                                                                    00000100000000000000000        000003
