0000147602043799295000110ALTAMIRA INDUSTRIA METALURGICA LT       202000000185020120830215334             3                                                                                                  000000000000000                                                                                                                                                                                                                                                                                   000001
12043217850000159IOB INFORMACOES OBJ PUBL JURID                                        0000000023702374400000002728168 I000000000009685006001029163005               201208300000000000000000054410000072850000000000072850000000000000000000000000000000010000291630  3120120830   02BW        5000000               000000000000000                                               3237406010291630050272816069               291630                             N                     01079 10020256        000002
12051598472000129ELETRICA J SANTOS LTDA        AV RIO PEDRAS 85 SEDE JD ARICANDUVA     0345300023702451100000000000264 I000000000009682000000000000000               201208300000000000000000000000000000000000000000131725000000000000000000000000000000010000017933  0120120830   02BW        5000000               000000000000000                                               3                                          017933/01                          N                     01321 10020256        000003
12061085866000137AROUCA FECHAD COM FERRAG A C L                                        0000000023700475800000000385662 I000000000009692004004758420195               201208300000000000000000054410000027716000000000027716000000000000000000000000000000010000016999  3120120830   02BW        5000000               000000000000000                                               3047504047584201950038566049               016999                             N                     01079 10020256        000004
11144219728000051MARCIO ALEXANDRE RUSSO        R GEN ATALIBA LEONEL 4048 CSA3 TUCURUVI 0224200223702622000000000064858 I000000000009698000000000000000               201208300000000000000000000000000000000000000000055358000000000000000000000000000000050000072012  0120120830   02BW        5000000               000000000000000                                               3                                          REFJULHO/2012                      N                     01321 10020256        000005
12003746938000143STAPLES BRASIL COM MAT ESC LTD                                        0000000023703394400000000368008 I000000000009691002000000797375               201208300000000000000000054410000036042000000000036042000000000000000000000000000000010000460605  3120120830   02BW        5000000               000000000000000                                               3339402000007973750036800069               0460605                            N                     01079 10020256        000006
12012006058000121WEG TINTAS LTDA                                                       0000000023702727800000000001309 I000000000009671009021770000108               201208300000000000000000054410000465371000000000465371000000000000000000000000000000010000146856  3120120830   02BW        5000000               000000000000000                                               3272709217700001080000130019               0146856/02                         N                     01079 10020256        000007
12007175725000160WEG EQUIPAMENTOS ELETRICOS SA                                         0000000023702727800000000196800 I000000000009677009021450000451               201208300000000000000000054410000276054000000000276054000000000000000000000000000000010000953599  3120120830   02BW        5000000               000000000000000                                               3272709214500004510019680099               0953599/01                         N                     01079 10020256        000008
12058566399000152NORDSON DO BRASIL IND COM LTDA                                        0000000039900000 0000000000000  I000000000009676000000000000000               201208300000000000000000054410000285783000000000285783000000000000000000000000000000010000039197  3120120830   02BW        5000000               000000000000000                                               3175667741601163111666000119               039197/01                          N                     01132 10020256        000009
12008709272000177MULTIELETRICA C M E LTDA                                              0000000034100000 0000000000000  I000000000009679000000000000000               201208300000000000000000054410000203371000000000203371000000000000000000000000000000010000002535  3120120830   02BW        5000000               000000000000000                                               3181532211672075798525400019               02535/01                           N                     01132 10020256        000010
12042956441000101SOLUCOES EM ACO USIMINAS S A                                          0000000000100000 0000000000000  I000000000009675000000000000000               201208300000000000000000054410000324006000000000324006000000000000000000000000000000010000166814  3120120830   02BW        5000000               000000000000000                                               3000000169660100000865501789               0166814/02                         N                     01132 10020256        000011
12051180370000199IGUAFER FERRO E ACO LTDA                                              0000000034100000 0000000000000  I000000000009678000000000000000               201208300000000000000000054410000204292000000000204292000000000000000000000000000000010000009443  3120120830   02BW        5000000               000000000000000                                               3181532551641077149484600019               09443/01                           N                     01132 10020256        000012
12006000195000156MBA MERCANTIL BRASIL ACO LTDA                                         0000000034100000 0000000000000  I000000000009670000000000000000               201208300000000000000000054410000737975000000000737975000000000000000000000000000000010000008925  3120120830   02BW        5000000               000000000000000                                               3181532548663064849251000039               8925/01                            N                     01132 10020256        000013
12042956441000101SOLUCOES EM ACO USIMINAS S A                                          0000000034100000 0000000000000  I000000000009680000000000000000               201208300000000000000000054410000191849000000000191849000000000000000000000000000000010000162284  3120120830   02BW        5000000               000000000000000                                               3181532549665293807258000069               0162284/03                         N                     01132 10020256        000014
12005753978000148HUMAN SERV COMUN MOVEL LTDA                                           0000000003300000 0000000000000  I000000000009694000000000000000               201208300000000000000000054410000013303000000000013303000000000000000000000000000000010000082554  3120120830   02BW        5000000               000000000000000                                               3936028260000000098289010139               82554                              N                     01132 10020256        000015
12005044228000105TRIARC COM SERV METAIS USIN LT                                        0000000034100000 0000000000000  I000000000009695000000000000000               201208300000000000000000054410000006904000000000006904000000000000000000000000000000010000000181  3120120830   02BW        5000000               000000000000000                                               3181532540453076157868100049               181                                N                     01132 10020256        000016
12053585766000141MULTIACOS IND COM PROD TEC LTD                                        0000000000100000 0000000000000  I000000000009674000000000000000               201208300000000000000000054410000324516000000000324516000000000000000000000000000000010000043752  3120120830   02BW        5000000               000000000000000                                               3043940876871912000139523169               043752/01                          N                     01132 10020256        000017
12048775225000146SEIKI IND COM CONFECCOES LTDA                                         0000000034100000 0000000000000  I000000000009687000000000000000               201208300000000000000000054410000052156000000000052156000000000000000000000000000000010000013669  3120120830   02BW        5000000               000000000000000                                               3181532581959017444824100049               013669/01                          N                     01132 10020256        000018
12056993900000131CIA METALURGICA PRADA                                                 0000000034100000 0000000000000  I000000000009669000000000000000               201208300000000000000000054410000883911000000000883911000000000000000000000000000000010000244016  3120120830   02BW        5000000               000000000000000                                               3181532552035293800573900099               0244016/03                         N                     01132 10020256        000019
12006000195000156MBA MERCANTIL BRASIL ACO LTDA                                         0000000034100000 0000000000000  I000000000009672000000000000000               201208300000000000000000054410000397635000000000397635000000000000000000000000000000010000008926  3120120830   02BW        5000000               000000000000000                                               3181532595094064849251000059               08926/01                           N                     01132 10020256        000020
12000244682000188RECAMAQ REV COM MAQS P ESCRIT                                         0000000039900000 0000000000000  I000000000009693000000000000000               201208300000000000000000054410000018000000000000018000000000000000000000000000000000010000000394  3120120830   02BW        5000000               000000000000000                                               3347298100000000003942432219               0394                               N                     01132 10020256        000021
12005044228000105TRIARC COM SERV METAIS USIN LT                                        0000000034100000 0000000000000  I000000000009689000000000000000               201208300000000000000000054410000040632000000000040632000000000000000000000000000000010000000237  3120120830   02BW        5000000               000000000000000                                               3181532542947076157868100079               237                                N                     01132 10020256        000022
12002503185000182ANDAIMES MAQUINAS BIG LTDA                                            0000000000100000 0000000000000  I000000000009690000000000000000               201208300000000000000000054410000036929000000000036929000000000000000000000000000000010000004990  3120120830   02BW        5000000               000000000000000                                               3000000187782308250653761759               04990                              N                     01132 10020256        000023
12042956441000101SOLUCOES EM ACO USIMINAS S A                                          0000000034100000 0000000000000  I000000000009681000000000000000               201208300000000000000000054410000172649000000000172649000000000000000000000000000000010000162282  3120120830   02BW        5000000               000000000000000                                               3181532550697293807258000019               0162282/03                         N                     01132 10020256        000024
12010543507000145MAJOR CORTEZ CONFECCAO E COM                                          0000000034100000 0000000000000  I000000000009686000000000000000               201208300000000000000000054410000053832000000000053832000000000000000000000000000000010000000157  3120120830   02BW        5000000               000000000000000                                               3181532541994074662673800069               0157                               N                     01132 10020256        000025
12056993512000150CYKLOP DO BRASIL EMBALAG  S A                                         0000000034100000 0000000000000  I000000000009684000000000000000               201208300000000000000000054410000085326000000000085326000000000000000000000000000000010000130428  3120120830   02BW        5000000               000000000000000                                               3181532579820025786126000019               0130428/01                         N                     01132 10020256        000026
12005915831000107PALETES SATELITE COM LTDA ME                                          0000000034100000 0000000000000  I000000000009688000000000000000               201208300000000000000000054410000047100000000000047100000000000000000000000000000000010000001798  3120120830   02BW        5000000               000000000000000                                               3181532573675144648966600019               01798                              N                     01132 10020256        000027
12061217188000119TELAS METALICAS TELMETAL LTDA                                         0000000000100000 0000000000000  I000000000009699000000000000000               201208300000000000000000054410000041456000000000041456000000000000000000000000000000010000005443  3120120830   02BW        5000000               000000000000000                                               3000000115031800000055861739               05443/01-03                        N                     01132 10020256        000028
12035820448000136WHITE MARTINS GASES IND LTDA                                          0000000023700026400000003937925 I000000000009683009022080002695               201208300000000000000000054410000087905000000000087905000000000000000000000000000000010000269415  3120120830   02BW        5000000               000000000000000                                               3002609220800026950393792059               269415                             N                     01079 10020256        000029
12057131807000180TORNOMICRO IND COM DE EQUIP M R AVELINO S RODRIGUES 287 JD SERRANO VGP0673000023701015400000000104639 I000000000009696000000000000000               201208300000000000000000000000000000000000000000039900000000000000000000000000000000010000001620  0120120830   02BW        5000000               000000000000000                                               3                                          01620                              N                     01321 10020256        000030
12006000195000156M B A MERCANTIL BRASILEIRA DE R RINCAO 220                            0365108023700118000000002128292 I000000000009673000000000000000               201208300000000000000000000000000000000000000000113282000000000000000000000000000000010000000000  0120120830   02BW        5000000               000000000000000                                               3                                          SALDO DEVOLUCAO.                   N                     01321 10020256        000031
900003200000000005427828                                                                                                                                                                                    000000000000000                                                                                                                                                                                                                                                    00003001414660005087563        000032
