0000147602043799295000110ALTAMIRA IND METALURGICA LTDA           20100543000002012103016515100000        2    230A                                                                                          000000000000000                                                                                                                                                                                                                                                                                   000001
12004455726000170INTERCLICK INFORMATICA S C LTDR JORGE AUGUSTO 83 SL 84 PENHA          0364500023702451100000000099449 I000000000010109000000000000000               201210300000000000000000000000000000000000000001103000000000000000000000000000000000030000001252  0120121030   01HA        000                                                                                 3                                        001252                               N                     00000 10020256        000002
12042956441000101SOLUCOES EM ACO USIMINAS SA   R PROFESSOR JOSE VIEIRA DE MENDON3011   3131026023702374400000000021679 I000000000010110000000000000000               201210300000000000000000000000000000000000000001428677000000000000000000000000000000050000000001  0120121030   01HA        000                                                                                 3                                        0001                                 N                     00000 10020256        000003
900000400000000002531677                                                                                                                                                                                    000000000000000                                                                                                                                                                                                                                                    00000200000000000000000        000004
