0000147602043799295000110ALTAMIRA INDUSTRIA METALURGICA LT       202000000017820121130055912             1                                                                                                                                                                                                                                                                                                                                                                                                    000001
12001784706000154TRANSPORTES WARTHA LTDA                                               0000000023701775200000000260010 0000000092757543009022990000155SAO2681491     201211192012102500000000055220000070000000000000071890000000000000000000000000002079050000000000  3020121129   06          3  R  GANGES  528                                                                   3                         000000000000000                                     N                     00598  0000000        000002
12001784706000154TRANSPORTES WARTHA LTDA                                               0000000023701775200000000260010 0000000091358501009023100000186SAO2697641     201211262012110500000000055290000052780000000000052780000000000000000000000000000000050000000000  3020121126   06          3  R  GANGES  528                                                                   3                         000000000000000                                     N                     00598  0000000        000003
12001852612000175BT EQUIPAMENTOS INDUSTRIAIS LT                                        000000000330000000000000000000000000000091471909000000800000000052674 1       201211282012103100000000055310000053280000000000054983000000000000000000000000001703050000000000  3020121130   01          2                                                                                   3913651000000003015580010419                                                  N                     01321  0000000        000004
12001895314000162COLETA INDUSTRIAL FIMAVAN LTDA                                        0000000034100000000000000000000000000000866992070000009002335349439           201208272012081700000000054380000123695000000000157424000000000000000000000000033729050000000000  3020121130   01          2                                                                                   3109002335346144604097200019                                                  N                     01321  0000000        000005
12003102481000134AB5 IND E COMERCIO LTDA EPP                                           0000000034100000000000000000000000000000909203330000009000042483169           201211202012102300000000055230000119250000000000121240000000000000000000000000001990050000000000  3020121130   01          2                                                                                   3109000042489003154755700039                                                  N                     01321  0000000        000006
12003372804000100TROPICAL CLEAN COMERCIAL LTDA                                         00000000033000000000000000000000000000009157341100000044000000058193          201211282012103000000000055310000043135000000000043423000000000000000000000000000288050000000000  3020121130   01          2                                                                                   3913215100000006405444020139                                                  N                     01321  0000000        000007
12003489596000123BEND FLEX I COMERCIO LTDA                                             000000003410000000000000000000000000000088350832000000171879874608            201209122012082100000000054540000695250000000000803243000000000000000000000000107993050000000000  3020121130   01          2                                                                                   3191718798744157734445800069                                                  N                     01321  0000000        000008
12003489596000123BEND FLEX I COMERCIO LTDA                                             000000003410000000000000000000000000000088599899000000171434574613            201209172012081600000000054590000585000000000000670174000000000000000000000000085174050000000000  3020121130   01          2                                                                                   3191714345748157734445800019                                                  N                     01321  0000000        000009
12004882911000140F C BRITO CARTUCHOS ME                                                00000000033000000000000000000000000000009174140400000029000000014860 A21      201211212012102400000000055240000039945000000000042232000000000000000000000000002473050000000000  3020121129   06          3                                                                                   3944753720000000109029010119                                                  N                     01321  0000000        000010
12005880850000145NEDERMAN BRASIL COM PROD EX LT                                        000000003410000000000000000000000000000086373178000000614350956002763 A       201209252012081400000000054670000289674000000000327294000000000000000000000000037620050000000000  3020121130   01          2                                                                                   3156143509568160829000100049                                                  N                     01321  0000000        000011
12006000195000156MBA MERCANTIL BRAS DE ACO LTDA                                        0000000034100000000000000000000000000000904173180000001671394430008926B03     201210122012071700000000054840000387716000000000425103000000000000000000000000037387050000000000  3020121130   01          2                                                                                   3191671394432064849251000079                                                  N                     01321  0000000        000012
12006000195000156MBA MERCANTIL BRAS DE ACO LTDA                                        0000000034100000000000000000000000000000906662670000001671394410008920B03     201210142012071700000000054860000576584000000000629882000000000000000000000000053298050000000000  3020121130   01          2                                                                                   3191671394416064849251000039                                                  N                     01321  0000000        000013
12006000195000156MBA MERCANTIL BRAS DE ACO LTDA                                        0000000034100000000000000000000000000000885998980000001667238420008870B02     201209112012071600000000054530000839952000000000972112000000000000000000000000132160050000000000  3020121130   01          2                                                                                   3191667238429064849251000039                                                  N                     01321  0000000        000014
12006000195000156MBA MERCANTIL BRAS DE ACO LTDA                                        0000000034100000000000000000000000000000889578520000001671394540008920B02     201209162012071700000000054580000576585000000000661635000000000000000000000000085050050000000000  3020121130   01          2                                                                                   3191671394549064849251000099                                                  N                     01321  0000000        000015
12006000195000156MBA MERCANTIL BRAS DE ACO LTDA                                        0000000034100000000000000000000000000000904173160000001667238280008876B03     201210122012071600000000054840000810320000000000888426000000000000000000000000078106050000000000  3020121130   01          2                                                                                   3191667238288064849251000079                                                  N                     01321  0000000        000016
12006000195000156MBA MERCANTIL BRAS DE ACO LTDA                                        0000000034100000000000000000000000000000904173170000001671394420008925B03     201210122012071700000000054840000719580000000000788915000000000000000000000000069335050000000000  3020121130   01          2                                                                                   3191671394424064849251000069                                                  N                     01321  0000000        000017
12006000195000156MBA MERCANTIL BRAS DE ACO LTDA                                        0000000034100000000000000000000000000000887698090000001671394550008925B02     201209142012071700000000054560000719581000000000828536000000000000000000000000108955050000000000  3020121130   01          2                                                                                   3191671394556064849251000089                                                  N                     01321  0000000        000018
12006000195000156MBA MERCANTIL BRAS DE ACO LTDA                                        0000000034100000000000000000000000000000887698100000001671394560008926B02     201209142012071700000000054560000387716000000000446467000000000000000000000000058751050000000000  3020121130   01          2                                                                                   3191671394564064849251000019                                                  N                     01321  0000000        000019
12006000195000156MBA MERCANTIL BRAS DE ACO LTDA                                        0000000034100000000000000000000000000000904173150000001667238300008870B03     201210092012071600000000054810000839951000000000925855000000000000000000000000085904050000000000  3020121130   01          2                                                                                   3191667238304064849251000039                                                  N                     01321  0000000        000020
12006000195000156MBA MERCANTIL BRAS DE ACO LTDA                                        0000000034100000000000000000000000000000929489930000002624098060010356B02     201301162012112100000000055800000125258000000000125258000000000000000000000000000000050000000000  3020130116   01FS        1                                                                                   3112624098060064899001800059                                                  N                     01321  0000000        000021
12006000195000156MBA MERCANTIL BRAS DE ACO LTDA                                        0000000034100000000000000000000000000000929489940000002624098070010356B03     201302132012112100000000056080000125258000000000125258000000000000000000000000000000050000000000  3020130213   01FS        1                                                                                   3112624098078064899001800089                                                  N                     01321  0000000        000022
12006000195000156MBA MERCANTIL BRAS DE ACO LTDA                                        0000000034100000000000000000000000000000929489950000002624098080010358B01     201212222012112100000000055550000585643000000000585643000000000000000000000000000000050000000000  3020121224   01FS        1                                                                                   3112624098086064899001800089                                                  N                     01321  0000000        000023
12006000195000156MBA MERCANTIL BRAS DE ACO LTDA                                        0000000034100000000000000000000000000000929489960000002624098050010356B01     201212192012112100000000055520000125258000000000125258000000000000000000000000000000050000000000  3020121219   01FS        1                                                                                   3112624098052064899001800079                                                  N                     01321  0000000        000024
12006000195000156MBA MERCANTIL BRAS DE ACO LTDA                                        0000000034100000000000000000000000000000929489970000002624098090010358B02     201301192012112100000000055830000585644000000000585644000000000000000000000000000000050000000000  3020130121   01FS        1                                                                                   3112624098094064899001800039                                                  N                     01321  0000000        000025
12006000195000156MBA MERCANTIL BRAS DE ACO LTDA                                        0000000034100000000000000000000000000000929489980000002624098140010370B01     201212242012112200000000055570000637298000000000637298000000000000000000000000000000050000000000  3020121224   01FS        1                                                                                   3112624098144064899001800029                                                  N                     01321  0000000        000026
12006000195000156MBA MERCANTIL BRAS DE ACO LTDA                                        0000000034100000000000000000000000000000929489990000002624098100010358B03     201302162012112100000000056110000585643000000000585643000000000000000000000000000000050000000000  3020130218   01FS        1                                                                                   3112624098102064899001800079                                                  N                     01321  0000000        000027
12006000195000156MBA MERCANTIL BRAS DE ACO LTDA                                        0000000034100000000000000000000000000000929490000000002624098150010370B02     201301212012112200000000055850000637298000000000637298000000000000000000000000000000050000000000  3020130121   01FS        1                                                                                   3112624098151064899001800079                                                  N                     01321  0000000        000028
12006000195000156MBA MERCANTIL BRAS DE ACO LTDA                                        0000000034100000000000000000000000000000929490010000002624098110010360B01     201212232012112100000000055560000531460000000000531460000000000000000000000000000000050000000000  3020121224   01FS        1                                                                                   3112624098110064899001800089                                                  N                     01321  0000000        000029
12006000195000156MBA MERCANTIL BRAS DE ACO LTDA                                        0000000034100000000000000000000000000000929490020000002624098160010370B03     201302182012112200000000056130000637298000000000637298000000000000000000000000000000050000000000  3020130218   01FS        1                                                                                   3112624098169064899001800019                                                  N                     01321  0000000        000030
12006000195000156MBA MERCANTIL BRAS DE ACO LTDA                                        0000000034100000000000000000000000000000929490050000002624098130010360B03     201302172012112100000000056120000531460000000000531460000000000000000000000000000000050000000000  3020130218   01FS        1                                                                                   3112624098136064899001800099                                                  N                     01321  0000000        000031
12006000195000156MBA MERCANTIL BRAS DE ACO LTDA                                        0000000034100000000000000000000000000000929490060000002624098300010402B02     201301182012112300000000055820000944857000000000944857000000000000000000000000000000050000000000  3020130118   01FS        1                                                                                   3112624098300064899001800059                                                  N                     01321  0000000        000032
12006000195000156MBA MERCANTIL BRAS DE ACO LTDA                                        0000000034100000000000000000000000000000929490070000002624098310010402B03     201302152012112300000000056100000944856000000000944856000000000000000000000000000000050000000000  3020130215   01FS        1                                                                                   3112624098318064899001800019                                                  N                     01321  0000000        000033
12006000195000156MBA MERCANTIL BRAS DE ACO LTDA                                        0000000034100000000000000000000000000000929490080000002624098180010371B02     201301222012112200000000055860000273240000000000273240000000000000000000000000000000050000000000  3020130122   01FS        1                                                                                   3112624098185064899001800019                                                  N                     01321  0000000        000034
12006000195000156MBA MERCANTIL BRAS DE ACO LTDA                                        0000000034100000000000000000000000000000929490090000002624098320010430B01     201212312012112600000000055640000329139000000000329139000000000000000000000000000000050000000000  3020121231   01FS        1                                                                                   3112624098326064899001800079                                                  N                     01321  0000000        000035
12006000195000156MBA MERCANTIL BRAS DE ACO LTDA                                        0000000034100000000000000000000000000000929490100000002624098190010371B03     201302192012112200000000056140000273240000000000273240000000000000000000000000000000050000000000  3020130219   01FS        1                                                                                   3112624098193064899001800079                                                  N                     01321  0000000        000036
12006000195000156MBA MERCANTIL BRAS DE ACO LTDA                                        0000000034100000000000000000000000000000929490110000002624098330010430B02     201301282012112600000000055920000329139000000000329139000000000000000000000000000000050000000000  3020130128   01FS        1                                                                                   3112624098334064899001800059                                                  N                     01321  0000000        000037
12006000195000156MBA MERCANTIL BRAS DE ACO LTDA                                        0000000034100000000000000000000000000000929490120000002624098290010402B01     201212212012112300000000055540000944857000000000944857000000000000000000000000000000050000000000  3020121221   01FS        1                                                                                   3112624098292064899001800029                                                  N                     01321  0000000        000038
12006000195000156MBA MERCANTIL BRAS DE ACO LTDA                                        0000000034100000000000000000000000000000929490130000002624098340010430B03     201302252012112600000000056200000329139000000000329139000000000000000000000000000000050000000000  3020130225   01FS        1                                                                                   3112624098342064899001800019                                                  N                     01321  0000000        000039
12006000195000156MBA MERCANTIL BRAS DE ACO LTDA                                        0000000034100000000000000000000000000000929490030000002624098120010360B02     201301202012112100000000055840000531460000000000531460000000000000000000000000000000050000000000  3020130121   01FS        1                                                                                   3112624098128064899001800029                                                  N                     01321  0000000        000040
12006000195000156MBA MERCANTIL BRAS DE ACO LTDA                                        0000000034100000000000000000000000000000929490040000002624098170010371B01     201212252012112200000000055580000273240000000000273240000000000000000000000000000000050000000000  3020121226   01FS        1                                                                                   3112624098177064899001800029                                                  N                     01321  0000000        000041
12006000195000156MBA MERCANTIL BRAS DE ACO LTDA                                        0000000034100000000000000000000000000000904173140000001667238290008874B03     201210112012071600000000054830000802825000000000878617000000000000000000000000077371050000000000  3020121128   05          3                                                                                   3191667238296064849251000069                                                  N                     01321  0000000        000042
12006000195000156M B A MERCANTIL BRASILEIRA DE                                         0000000023700118P00000002130599 00000000868592690020223600000020009229B02     201210112012081600000000054830000253414000000000274514000000000000000000000000021100050000000000  3020121130   01          2  RUA JUNO  533                                                                    3                         000000000000000                                     N                     00598  0000000        000043
12006000195000156M B A MERCANTIL BRASILEIRA DE                                         0000000023700118P00000002130599 00000000848180770020220100000340008905B03     201210112012071900000000054830000155300000000000168250000000000000000000000000012950050000000000  3020121130   01          2  RUA JUNO  533                                                                    3                         000000000000000                                     N                     00598  0000000        000044
12006000195000156M B A MERCANTIL BRASILEIRA DE                                         0000000023700118P00000002130599 00000000865388260020222900000470009204B02     201210112012081500000000054830000127292000000000137892000000000000000000000000010600050000000000  3020121130   01          2  RUA JUNO  533                                                                    3                         000000000000000                                     N                     00598  0000000        000045
12006000195000156M B A MERCANTIL BRASILEIRA DE                                         0000000023700118P00000002130599 00000000865388290020222900000500009205B02     201210122012081500000000054840000348964000000000377482000000000000000000000000028518050000000000  3020121130   01          2  RUA JUNO  533                                                                    3                         000000000000000                                     N                     00598  0000000        000046
12006000195000156M B A MERCANTIL BRASILEIRA DE                                         0000000023700118P00000002130599 00000000865388320020222900000530009206B02     201210132012081500000000054850000527560000000000569752000000000000000000000000042192050000000000  3020121130   01          2  RUA JUNO  533                                                                    3                         000000000000000                                     N                     00598  0000000        000047
12008272923000104P SANTOS ESQUADRARIAS METAL ME                                        0000000034100000000000000000000000000000896979550000006153947641850           201211222012100800000000055250000400000000000000416536000000000000000000000000016536050000000000  3020121130   01          2                                                                                   3156153947640160141951600039                                                  N                     01321  0000000        000048
12008594182000188ACOS G3 COMERCIO E BENEFICIAME                                        0000000023703137200000000091332 00000000929490170090227100000261155        002201211222012092700000000055250000152347000000000156190000000000000000000000000003843050000000000  3020121130   01FS        1  RUA GANGES  528                                                                  3                         000000000000000                                     N                     00598  0000000        000049
12008594182000188ACOS G3 COMERCIO E BENEFICIAME                                        0000000023703137200000000091332 00000000890457090090227100000261155        002201211222012092700000000055250000152347000000000152347000000000000000000000000000000050000000000  3020121122   06          3  RUA GANGES  528                                                                  3                         000000000000000                                     N                     00598  0000000        000050
12009137729000189MULTI RECEBIVEIS II FUNDO DE I                                        0000000023703369300000000044253 000000009294901500902334000003414980 1        201212272012112700000000055600000103788000000000103788000000000000000000000000000000050000000000  3020121227   01FS        1  RUA GANGES 528                          ANHEMBI INDUSTRIA DE CAIXAS DE PAPELAO O 3                         043292101000196                                     N                     00598  0000000        000051
12009137729000189MULTI RECEBIVEIS II FUNDO DE I                                        0000000023703369300000000044253 000000009294901600902334000003514980 2        201301102012112700000000055740000103788000000000103788000000000000000000000000000000050000000000  3020130110   01FS        1  RUA GANGES 528                          ANHEMBI INDUSTRIA DE CAIXAS DE PAPELAO O 3                         043292101000196                                     N                     00598  0000000        000052
12009338857000190FERNANDO  NAGAO  CARDONE  ALVA                                        000000000330000000000000000000000000000089697936000000800000000ALTA 10 2012   201210202012092500000000054920000134632000000000152542000000000000000000000000017910050000000000  3020121130   01          2                                                                                   3947901700000051050080010129                                                  N                     01321  0000000        000053
12009338857000190FERNANDO  NAGAO  CARDONE  ALVA                                        000000000330000000000000000000000000000091653176000000300000000ALTA 11 2012   201211202012103000000000055230000134632000000000140018000000000000000000000000005386050000000000  3020121130   01          2                                                                                   3947901700000051051630010119                                                  N                     01321  0000000        000054
12010824619000174ALVALOG TRANSPORTES E LOGISTIC                                        000000000330000000000000000000000000000091932204000000900000000ID277232       201211272012111200000000055300000096732000000000096732000000000000000000000000000000050000000000  3020121127   06          3                                                                                   3946239400000000059190010119                                                  N                     01321  0000000        000055
12012006058000121WEG TINTAS LTDA                                                       0000000023702727800000000001309 00000000868126360090223500001190016086603     201211042012082100000000055070000306662000000000317270000000000000000000000000010608050000000000  3020121130   01          2  R JUNO  533                                                                      3                         000000000000000                                     N                     00598  0000000        000056
12012006058000121WEG TINTAS LTDA                                                       0000000023702727800000000001309 00000000870177500090224100000990016248003     201211102012082700000000055130000306662000000000314822000000000000000000000000008160050000000000  3020121130   01          2  R JUNO  533                                                                      3                         000000000000000                                     N                     00598  0000000        000057
12012006058000121WEG TINTAS LTDA                                                       0000000023702727800000000001309 00000000872318670090224700001050016359603     201211142012083100000000055170000459992000000000469800000000000000000000000000009808050000000000  3020121130   01          2  R JUNO  533                                                                      3                         000000000000000                                     N                     00598  0000000        000058
12012006058000121WEG TINTAS LTDA                                                       0000000023702727800000000001309 00000000878206050090225400000790016517202     201211052012090600000000055080000459854000000000475179000000000000000000000000015325050000000000  3020121130   01          2  R JUNO  533                                                                      3                         000000000000000                                     N                     00598  0000000        000059
12012006058000121WEG TINTAS LTDA                                                       0000000023702727800000000001309 00000000878206060090225400000800016517203     201211202012090600000000055230000459992000000000466122000000000000000000000000006130050000000000  3020121130   01          2  R JUNO  533                                                                      3                         000000000000000                                     N                     00598  0000000        000060
12012006058000121WEG TINTAS LTDA                                                       0000000023702727800000000001309 00000000882668420090225800000750016626902     201211122012091300000000055150000459854000000000470888000000000000000000000000011034050000000000  3020121130   01          2  R JUNO  533                                                                      3                         000000000000000                                     N                     00598  0000000        000061
12012006058000121WEG TINTAS LTDA                                                       0000000023702727800000000001309 00000000882668430090225800000760016626903     201211272012091300000000055300000459992000000000461831000000000000000000000000001839050000000000  3020121130   01          2  R JUNO  533                                                                      3                         000000000000000                                     N                     00598  0000000        000062
12033325184001786ALSCO TOALHEIRO BRASIL                                                0000000023703396000000001490850 0000000091741401009000002787905VM27879        201211212012110100000000055240000037363000000000037659000000000000000000000000000333050000000000  3020121129   06          3  RUA  GANGES 528                                                                  3                         000000000000000                                     N                     00598  0000000        000063
12035820448000136WHITE MARTINS GASES INDUSTRIAI                                        0000000023700026400000003937925 0000000092949014009023340002714414747 001     201212262012112900000000055590000056805000000000056805000000000000000000000000000000050000000000  3020121226   01FS        1  RUA GANGES  528                                                                  3                         000000000000000                                     N                     00598  0000000        000064
12042956441000101SOLUCOES ACO USIMINAS                                                 0000000034100000000000000000000000000000853154850000002246247040017197302     201209202012072500000000054620000970103000000001107843000000000000000000000000137740050000000000  3020121130   01          2                                                                                   3112246247046293807258000019                                                  N                     01321  0000000        000065
12042956441000101SOLUCOES ACO USIMINAS                                                 0000000034100000000000000000000000000000855028690000002254329380017212902     201209212012072600000000054630000140098000000000159698000000000000000000000000019600050000000000  3020121130   01          2                                                                                   3112254329389293807258000019                                                  N                     01321  0000000        000066
12042956441000101SOLUCOES ACO USIMINAS                                                 0000000034100000000000000000000000000000855028700000002254329390017213002     201209212012072600000000054630000140602000000000160272000000000000000000000000019670050000000000  3020121130   01          2                                                                                   3112254329397293807258000089                                                  N                     01321  0000000        000067
12042956441000101SOLUCOES ACO USIMINAS                                                 0000000034100000000000000000000000000000855028770000002254329400017220502     201209212012072700000000054630000981022000000001118362000000000000000000000000137340050000000000  3020121130   01          2                                                                                   3112254329405293807258000099                                                  N                     01321  0000000        000068
12042956441000101SOLUCOES ACO USIMINAS                                                 0000000034100000000000000000000000000000856906410000002262886280017266201     201208282012073000000000054390000119472000000000141938000000000000000000000000022466050000000000  3020121130   01          2                                                                                   3112262886289293807258000089                                                  N                     01321  0000000        000069
12042956441000101SOLUCOES ACO USIMINAS                                                 0000000034100000000000000000000000000000856906420000002262886290017266301     201208282012073000000000054390000145069000000000172329000000000000000000000000027260050000000000  3020121130   01          2                                                                                   3112262886297293807258000099                                                  N                     01321  0000000        000070
12042956441000101SOLUCOES ACO USIMINAS                                                 0000000034100000000000000000000000000000858616480000002271409840017316003     201211262012080200000000055290000929451000000000936887000000000000000000000000007436050000000000  3020121130   01          2                                                                                   3112271409842293807258000079                                                  N                     01321  0000000        000071
12042956441000101SOLUCOES ACO USIMINAS                                                 0000000034100000000000000000000000000000858616500000002271409860017319403     201211262012080200000000055290000178902000000000180334000000000000000000000000001432050000000000  3020121130   01          2                                                                                   3112271409867293807258000059                                                  N                     01321  0000000        000072
12042956441000101SOLUCOES ACO USIMINAS                                                 0000000034100000000000000000000000000000858616510000002271409900017319803     201211262012080200000000055290000194524000000000196080000000000000000000000000001556050000000000  3020121130   01          2                                                                                   3112271409909293807258000029                                                  N                     01321  0000000        000073
12042956441000101SOLUCOES ACO USIMINAS                                                 0000000034100000000000000000000000000000858616520000002271409870017319503     201211262012080200000000055290000197381000000000198961000000000000000000000000001580050000000000  3020121130   01          2                                                                                   3112271409875293807258000049                                                  N                     01321  0000000        000074
12042956441000101SOLUCOES ACO USIMINAS                                                 0000000034100000000000000000000000000000858616530000002271409880017319603     201211262012080200000000055290000197045000000000198621000000000000000000000000001576050000000000  3020121130   01          2                                                                                   3112271409883293807258000079                                                  N                     01321  0000000        000075
12042956441000101SOLUCOES ACO USIMINAS                                                 0000000034100000000000000000000000000000858616540000002271409890017319703     201211262012080200000000055290000197213000000000198789000000000000000000000000001576050000000000  3020121130   01          2                                                                                   3112271409891293807258000019                                                  N                     01321  0000000        000076
12042956441000101SOLUCOES ACO USIMINAS                                                 0000000034100000000000000000000000000000859590620000002274469790017353702     201209282012080300000000054700000081053000000000091259000000000000000000000000010206050000000000  3020121130   01          2                                                                                   3112274469793293807258000069                                                  N                     01321  0000000        000077
12042956441000101SOLUCOES ACO USIMINAS                                                 0000000034100000000000000000000000000000859590640000002274469810017353703     201211262012080300000000055290000081052000000000081700000000000000000000000000000648050000000000  3020121130   01          2                                                                                   3112274469819293807258000019                                                  N                     01321  0000000        000078
12042956441000101SOLUCOES ACO USIMINAS                                                 0000000034100000000000000000000000000000859590660000002274469820017353803     201211262012080300000000055290000166997000000000168333000000000000000000000000001336050000000000  3020121130   01          2                                                                                   3112274469827293807258000059                                                  N                     01321  0000000        000079
12042956441000101SOLUCOES ACO USIMINAS                                                 0000000034100000000000000000000000000000850740460000002233586800017127201     201208202012072000000000054310000137881000000000166033000000000000000000000000028152050000000000  3020121130   01          2                                                                                   3112233586802293807258000019                                                  N                     01321  0000000        000080
12042956441000101SOLUCOES ACO USIMINAS                                                 0000000034100000000000000000000000000000850740470000002233586810017101002     201209142012071900000000054560000732575000000000845380000000000000000000000000112805050000000000  3020121130   01          2                                                                                   3112233586810293807258000019                                                  N                     01321  0000000        000081
12042956441000101SOLUCOES ACO USIMINAS                                                 0000000034100000000000000000000000000000850740480000002233586820017101202     201209142012071900000000054560000144634000000000166887000000000000000000000000022253050000000000  3020121130   01          2                                                                                   3112233586828293807258000029                                                  N                     01321  0000000        000082
12042956441000101SOLUCOES ACO USIMINAS                                                 0000000034100000000000000000000000000000846595700000002210880280016980502     201209102012071200000000054520000156071000000000181343000000000000000000000000025272050000000000  3020121130   01          2                                                                                   3112210880285293807258000039                                                  N                     01321  0000000        000083
12042956441000101SOLUCOES ACO USIMINAS                                                 0000000034100000000000000000000000000000846595710000002210880290016980602     201209102012071200000000054520000426094000000000495106000000000000000000000000069012050000000000  3020121130   01          2                                                                                   3112210880293293807258000019                                                  N                     01321  0000000        000084
12042956441000101SOLUCOES ACO USIMINAS                                                 0000000034100000000000000000000000000000847452070000002216130350005922202     201209102012071600000000054520000172071000000000199935000000000000000000000000027864050000000000  3020121130   01          2                                                                                   3112216130354293807258000049                                                  N                     01321  0000000        000085
12042956441000101SOLUCOES ACO USIMINAS                                                 0000000034100000000000000000000000000000847452100000002216130340017012402     201209102012071500000000054520000147428000000000171323000000000000000000000000023895050000000000  3020121130   01          2                                                                                   3112216130347293807258000059                                                  N                     01321  0000000        000086
12042956441000101SOLUCOES ACO USIMINAS                                                 0000000034100000000000000000000000000000848180700000002220192900017041002     201209112012071700000000054530000155433000000000180313000000000000000000000000024880050000000000  3020121130   01          2                                                                                   3112220192903293807258000029                                                  N                     01321  0000000        000087
12042956441000101SOLUCOES ACO USIMINAS                                                 0000000034100000000000000000000000000000848180710000002220192910017041202     201209112012071700000000054530000205421000000000238301000000000000000000000000032880050000000000  3020121130   01          2                                                                                   3112220192911293807258000019                                                  N                     01321  0000000        000088
12042956441000101SOLUCOES ACO USIMINAS                                                 0000000034100000000000000000000000000000853154840000002246247030017196702     201209202012072500000000054620000234841000000000268211000000000000000000000000033370050000000000  3020121130   01          2                                                                                   3112246247038293807258000099                                                  N                     01321  0000000        000089
12042956441000101SOLUCOES ACO USIMINAS                                                 0000000034100000000000000000000000000000855028780000002254329410017200203     201211192012072600000000055220000680385000000000692634000000000000000000000000013610050000000000  3020121128   06          3                                                                                   3112254329413293807258000089                                                  N                     01321  0000000        000090
12042956441000101SOLUCOES ACO USIMINAS                                                 0000000034100000000000000000000000000000858616470000002271409830017315103     201211262012080200000000055290000579374000000000581692000000000000000000000000003477050000000000  3020121128   06          3                                                                                   3112271409834293807258000089                                                  N                     01321  0000000        000091
12045461761000189PROTEGE INDUSTRIA E COMERCIO M                                        0000000000100000000000000000000000000000910265740000006302590001641201        201211222012102900000000055250000072000000000000072000000000000000000000000000000000050000000000  3020121122   05          3                                                                                   3044186302591192000128605119                                                  N                     01321  0000000        000092
12045635984000115CRIFER LAMINADOS ACO FERRO LTD                                        0000000034100000000000000000000000000000909203340000009000268640035771E01     201211212012102400000000055240000454608000000000462789000000000000000000000000008181050000000000  3020121130   01          2                                                                                   3109000268640005630080900099                                                  N                     01321  0000000        000093
12045987005000198D PASCHOAL AUTOMOTIVA LTDA                                            0000000023702002800000000147001 00000000886866610110000000171660000000036     201211192012091900000000055220000032500000000000033570000000000000000000000000001112050000000000  3020121129   06          3  R   TAMAINDE                       01410                                         3                         000000000000000                                     N                     00598  0000000        000094
12047190731000100DE CASTRO LOUR ENG IND LTDA                                           00000000341000000000000000000000000000008782052200000023399955403026632 0     201211212012082200000000055240000952073000000000965177000000000000000000000000014976050000000000  3020121128   06          3                                                                                   3112339995543036884500400099                                                  N                     01321  0000000        000095
12047190731000100DE CASTRO LOUREIRO ENGENHARIA                                         0000000023703394400000000205508 000000008801225500202255000001403026794 0     201211262012090300000000055290001209490000000001217554000000000000000000000000008064050000000000  3020121130   01          2  RUA JUNO  533                                                                    3                         000000000000000                                     N                     00598  0000000        000096
12047190731000100DE CASTRO LOUR ENG IND LTDA                                           00000000341000000000000000000000000000008782051200000023399953803026613 0     201209182012082100000000054600001107989000000001267056000000000000000000000000159067050000000000  3020121130   01          2                                                                                   3112339995386036884500400039                                                  N                     01321  0000000        000097
12047190731000100DE CASTRO LOUR ENG IND LTDA                                           00000000341000000000000000000000000000008782051300000023399953903026613 0     201211202012082100000000055230001107989000000001129779000000000000000000000000021790050000000000  3020121130   01          2                                                                                   3112339995394036884500400019                                                  N                     01321  0000000        000098
12047190731000100DE CASTRO LOUR ENG IND LTDA                                           00000000341000000000000000000000000000008782051500000023399953603026612 0     201211202012082100000000055230001111489000000001133349000000000000000000000000021860050000000000  3020121130   01          2                                                                                   3112339995360036884500400079                                                  N                     01321  0000000        000099
12047190731000100DE CASTRO LOUR ENG IND LTDA                                           00000000341000000000000000000000000000008782051600000023399954103026614 0     201209182012082100000000054600001047621000000001198001000000000000000000000000150380050000000000  3020121130   01          2                                                                                   3112339995410036884500400039                                                  N                     01321  0000000        000100
12047190731000100DE CASTRO LOUR ENG IND LTDA                                           00000000341000000000000000000000000000008782051700000023399954203026614 0     201211202012082100000000055230001047621000000001068221000000000000000000000000020600050000000000  3020121130   01          2                                                                                   3112339995428036884500400079                                                  N                     01321  0000000        000101
12047190731000100DE CASTRO LOUR ENG IND LTDA                                           00000000341000000000000000000000000000008782051800000023399955703026636 0     201211212012082200000000055240000940804000000000957454000000000000000000000000016650050000000000  3020121130   01          2                                                                                   3112339995576036884500400019                                                  N                     01321  0000000        000102
12047190731000100DE CASTRO LOUR ENG IND LTDA                                           00000000341000000000000000000000000000008782052000000023399955303026632 0     201209192012082200000000054610000952073000000001086857000000000000000000000000134784050000000000  3020121130   01          2                                                                                   3112339995535036884500400019                                                  N                     01321  0000000        000103
12047190731000100DE CASTRO LOUR ENG IND LTDA                                           00000000341000000000000000000000000000008782052100000023399955903026643 0     201209202012082300000000054620000867039000000000988094000000000000000000000000121055050000000000  3020121130   01          2                                                                                   3112339995592036884500400049                                                  N                     01321  0000000        000104
12047190731000100DE CASTRO LOUR ENG IND LTDA                                           00000000341000000000000000000000000000008782052400000023399956003026643 0     201211222012082300000000055250000867039000000000880679000000000000000000000000013640050000000000  3020121130   01          2                                                                                   3112339995600036884500400069                                                  N                     01321  0000000        000105
12047190731000100DE CASTRO LOUR ENG IND LTDA                                           00000000341000000000000000000000000000008782050900000023399953503026612 0     201209182012082100000000054600001111489000000001271067000000000000000000000000159578050000000000  3020121130   01          2                                                                                   3112339995352036884500400019                                                  N                     01321  0000000        000106
12047190731000100DE CASTRO LOUR ENG IND LTDA                                           00000000341000000000000000000000000000008782059400000023602715303026745 0     201211282012082900000000055310000903175000000000906727000000000000000000000000003552050000000000  3020121130   01          2                                                                                   3112360271533036884500400039                                                  N                     01321  0000000        000107
12047190731000100DE CASTRO LOUR ENG IND LTDA                                           00000000341000000000000000000000000000008782059500000023602714703026734 0     201211272012082800000000055300000997834000000001003720000000000000000000000000005886050000000000  3020121130   01          2                                                                                   3112360271475036884500400019                                                  N                     01321  0000000        000108
12047190731000100DE CASTRO LOUR ENG IND LTDA                                           00000000341000000000000000000000000000008782052500000023399955603026636 0     201209192012082200000000054610000940804000000001074004000000000000000000000000133200050000000000  3020121130   01          2                                                                                   3112339995568036884500400049                                                  N                     01321  0000000        000109
12047190731000100DE CASTRO LOUR ENG IND LTDA                                           00000000341000000000000000000000000000008782052700000023399956203026648 0     201209202012082300000000054620000976053000000001112373000000000000000000000000136320050000000000  3020121130   01          2                                                                                   3112339995626036884500400029                                                  N                     01321  0000000        000110
12047190731000100DE CASTRO LOUR ENG IND LTDA                                           00000000341000000000000000000000000000008782052800000023399956303026648 0     201211222012082300000000055250000976053000000000991413000000000000000000000000015360050000000000  3020121130   01          2                                                                                   3112339995634036884500400019                                                  N                     01321  0000000        000111
12047190731000100DE CASTRO LOUR ENG IND LTDA                                           00000000341000000000000000000000000000008782059900000023602715003026744 0     201211292012082900000000055320000146594000000000146882000000000000000000000000000288050000000000  3020121130   01          2                                                                                   3112360271509036884500400069                                                  N                     01321  0000000        000112
12047190731000100DE CASTRO LOUREIRO ENGENHARIA                                         00000000033000000000000000000000000000008801227200000093000000003026820 0     201211292012090500000000055320000920071000000000938472000000000000000000000000018401050000000000  3020121130   01          2                                                                                   3948430370000009553193020319                                                  N                     01321  0000000        000113
12047190731000100DE CASTRO LOUREIRO ENGENHARIA                                         00000000033000000000000000000000000000008801227800000023000000003026825 0     201211292012090600000000055320001193040000000001216901000000000000000000000000023861050000000000  3020121130   01          2                                                                                   3948430370000009553223020319                                                  N                     01321  0000000        000114
12048218317000125RODOENG TRANSPORTES RODOVIARIO                                        00000000001000000000000000000000000000009183387900000050348200013592          201212202012110900000000055530000310000000000000310000000000000000000000000000000000050000000000  3020121220   01          2                                                                                   3160305034821494000094531789                                                  N                     01321  0000000        000115
12048775225000146SEIKI IND COM E CONFECCOES LTD                                        000000003410000000000000000000000000000089337376000000244697151014914001      201210232012092500000000054950000052000000000000054964000000000000000000000000002964050000000000  3020121130   01          2                                                                                   3112446971510017444824100089                                                  N                     01321  0000000        000116
12051180370000199IGUAFER FERRO E ACO LTDA                                              0000000034100000000000000000000000000000852309100000002239389789443 B         201209022012071800000000054440000168275000000000193195000000000000000000000000024920050000000000  3020121130   01          2                                                                                   3112239389789077149484600089                                                  N                     01321  0000000        000117
12051180370000199IGUAFER FERRO E ACO LTDA                                              0000000034100000000000000000000000000000852309110000002239389799443 C         201209122012071800000000054540000168275000000000190395000000000000000000000000022120050000000000  3020121130   01          2                                                                                   3112239389797077149484600089                                                  N                     01321  0000000        000118
12053585766000141MULTIACOS I C PRODS TEC LTDA                                          0000000042200000000000000000000000000000887697910000000000000000004704303     201211272012092000000000055300000965514000000000970340000000000000000000000000004826050000000000  3020121130   01          2                                                                                   3711500005033164923629564189                                                  N                     01321  0000000        000119
12053585766000141MULTIACOS I C PRODS TEC LTDA                                          0000000042200000000000000000000000000000887697960000000000000000004704503     201211272012092000000000055300000217463000000000218548000000000000000000000000001085050000000000  3020121130   01          2                                                                                   3711500005033164923629599149                                                  N                     01321  0000000        000120
12053585766000141MULTIACOS I C PRODS TEC LTDA                                          0000000042200000000000000000000000000000895189370000000000000000004699303     201211282012100200000000055310000863284000000000866161000000000000000000000000002877050000000000  3020121130   01          2                                                                                   3711500005033164927761807189                                                  N                     01321  0000000        000121
12053585766000141MULTIACOS I C PRODS TEC LTDA                                          0000000042200000000000000000000000000000895189560000000000000000004695703     201211262012100200000000055290001092223000000001099502000000000000000000000000007279050000000000  3020121130   01          2                                                                                   3711500005033164927761980139                                                  N                     01321  0000000        000122
12053585766000141MULTIACOS I C PRODS TEC LTDA                                          0000000042200000000000000000000000000000895189570000000000000000004699203     201211292012100200000000055320000519251000000000520115000000000000000000000000000864050000000000  3020121130   01          2                                                                                   3711500005033164927762072129                                                  N                     01321  0000000        000123
12053585766000141MULTIACOS I C PRODS TEC LTDA                                          0000000042200000000000000000000000000000895189590000000000000000004699103     201211262012100200000000055290000574719000000000578550000000000000000000000000003831050000000000  3020121130   01          2                                                                                   3711500005033164927762048119                                                  N                     01321  0000000        000124
12053585766000141MULTIACOS I C PRODS TEC LTDA                                          0000000042200000000000000000000000000000895189610000000000000000004695803     201211262012100200000000055290000193011000000000194298000000000000000000000000001287050000000000  3020121130   01          2                                                                                   3711500005033164927762013119                                                  N                     01321  0000000        000125
12054382510000108SETENTA IND E COM DE MADEIRAS                                         0000000034100000000000000000000000000000860403430000002277814474462 A         201209042012080700000000054460000191200000000000223912000000000000000000000000032712050000000000  3020121130   01          2                                                                                   3112277814474057049175300069                                                  N                     01321  0000000        000126
12056428188000128EDVALDO SANTOS ROSA ME                                                0000000023700898200000000005622 0000000088191342009011225700668194919608      201211282012091300000000055310000089850000000000092245000000000000000000000000002395050000000000  3020121130   01          2  RUA TAMAINDE  1410                                                               3                         000000000000000                                     N                     00598  0000000        000127
12056993512000150CYKLOP DO BRASIL EMBALAGENS SA                                        0000000034100000000000000000000000000000874070500000002362586810134932        201210012012090300000000054730000083607000000000102027000000000000000000000000018420050000000000  3020121130   01          2                                                                                   3112362586813025700015800019                                                  N                     01321  0000000        000128
12059358770000153TRANS NEW ABC TRANSPORTADORA L                                        0000000023701193200000000698555 000000009183388500901323120763555320          201211222012110700000000055250000137001000000000137960000000000000000000000000001096050000000000  3020121129   06          3  RUA GANGES 528                                                                   3                         000000000000000                                     N                     00598  0000000        000129
12059659615000177DZ COMERCIO R E SERVICOS LTDA                                         000000003410000000000000000000000000000091358507000000900000321280            201211172012102400000000055200000060000000000000061560000000000000000000000000001560050000000000  3020121130   01          2                                                                                   3109000003217000314585100039                                                  N                     01321  0000000        000130
12061683652000162TRANS FACE TRANSPORTES LTDA                                           0000000023700530400000000141828 0000000091358502009000000110375I000085343     201211202012110500000000055230000081000000000000082971000000000000000000000000002190050000000000  3020121129   06          3  R JUNO 553                                                                       3                         000000000000000                                     N                     00598  0000000        000131
12062510367000102ITANHAEM TRANSP DE MAQUINAS LT                                        000000003410000000000000000000000000000087407049000000236463199667            201209202012090400000000054620000248220000000000318723000000000000000000000000070503050000000000  3020121130   01          2                                                                                   3112364631997005770252400049                                                  N                     01321  0000000        000132
12064952757000168WALMAC COM DE PROD QUIMICOS LT                                        0000000034100000000000000000000000000000860403440000002275821690020148        201210262012080300000000054980000219266000000000234351000000000000000000000000015085050000000000  3020121130   01          2                                                                                   3112275821695064807961400019                                                  N                     01321  0000000        000133
12064952757000168WALMAC COM DE PROD QUIMICOS LT                                        0000000034100000000000000000000000000000860403450000002275821700020148        201210052012080300000000054770000219267000000000243403000000000000000000000000024136050000000000  3020121130   01          2                                                                                   3112275821703064807961400029                                                  N                     01321  0000000        000134
12064952757000168WALMAC COM DE PROD QUIMICOS LT                                        0000000034100000000000000000000000000000896979500000002462157550021611        201211012012100400000000055040000219267000000000231766000000000000000000000000012499050000000000  3020121130   01          2                                                                                   3112462157556064807961400019                                                  N                     01321  0000000        000135
12064952757000168WALMAC COM DE PROD QUIMICOS LT                                        0000000034100000000000000000000000000000896979510000002462157570021611        201211292012100400000000055320000219267000000000219698000000000000000000000000000431050000000000  3020121130   01          2                                                                                   3112462157572064807961400059                                                  N                     01321  0000000        000136
12066841552000130R V SEG PATRIMONIAL LTDA                                              00000000341000000000000000000000000000008852483200000090002192721927          201209102012081000000000054520000483241000000000496282000000000000000000000000013041050000000000  3020121130   01          2                                                                                   3109000219270001835253400099                                                  N                     01321  0000000        000137
12066841552000130R V SEG PATRIMONIAL S C LTDA                                          00000000341000000000000000000000000000008887329800000090002213622136          201210102012091100000000054820000374758000000000381133000000000000000000000000006375050000000000  3020121130   01          2                                                                                   3109000221365001838994000069                                                  N                     01321  0000000        000138
12069284248000128ISOCOAT TINTAS E VERNIZES LTDA                                        0000000034100000000000000000000000000000888732960000002421485720055761        201211202012092100000000055230000093324000000000095814000000000000000000000000002490050000000000  3020121130   01          2                                                                                   3112421485726077430121200069                                                  N                     01321  0000000        000139
12069284248000128ISOCOAT TINTAS E VERNIZES LTDA                                        0000000034100000000000000000000000000000841061040000002182507930052085        201209172012070200000000054590000236130000000000282750000000000000000000000000046620050000000000  3020121130   01          2                                                                                   3112182507932077430121200019                                                  N                     01321  0000000        000140
12069284248000128ISOCOAT TINTAS E VERNIZES LTDA                                        0000000034100000000000000000000000000000900522900000002477686970056631        201211262012101000000000055290000365668000000000367618000000000000000000000000002925050000000000  3020121128   06          3                                                                                   3112477686979077430121200019                                                  N                     01321  0000000        000141
12071154462000292POWER EXPRESS LOGISTICA E TRAN                                        0000000023703417700000000103896 00000000927575440090000000071240000330604     201211192012102900000000055220000083200000000000085700000000000000000000000000002750050000000000  3020121129   06          3  RUA  JUNO 533                                                                    3                         000000000000000                                     N                     00598  0000000        000142
12096500087000135WORKBENCH CONSULTORIA S S LTDA                                        0000000034100000000000000000000000000000912467970000007023696933218           201211272012110100000000055300000131746000000000132523000000000000000000000000000777050000000000  3020121130   01          2                                                                                   3157023696939826313803700019                                                  N                     01321  0000000        000143
12096500087000135WORKBENCH CONSULTORIA S S LTDA                                        0000000034100000000000000000000000000000878205840000007940034283118           201209272012090300000000054690000131746000000000148322000000000000000000000000016576050000000000  3020121130   01          2                                                                                   3157940034289826313803700089                                                  N                     01321  0000000        000144
900014500000000065546652                                                                                                                                                                                                                                                                                                                                                                                                                                                                01321  0000000        000145
