0000147602043799295000110ALTAMIRA INDUSTRIA METALURGICA LT       202000000015820121031063308             1                                                                                                                                                                                                                                                                                                                                                                                                    000001
12001895314000162COLETA INDUSTRIAL FIMAVAN LTDA                                        0000000034100000000000000000000000000000866992070000009002335349439           201208272012081700000000054380000123695000000000147554000000000000000000000000023859050000000000  3020121031   01          2                                                                                   3109002335346144604097200019                                                  N                     01321  0000000        000002
12001895314000162COLETA INDUSTRIAL FIMAVAN LTDA                                        00000000341000000000000000000000000000009032787100000090023540111403          201210272012101700000000054990000140379000000000144683000000000000000000000000004304050000000000  3020121031   01          2                                                                                   3109002354016144604097200019                                                  N                     01321  0000000        000003
12002583013000166ITAN TRANSP DE CARGAS EXC E IN                                        000000003410000000000000000000000000000088350836000000239377422008 B          201210212012091400000000054930000192500000000000200200000000000000000000000000007700050000000000  3020121031   01          2                                                                                   3112393774222005770252400039                                                  N                     01321  0000000        000004
12002583013000166ITAN TRANSP DE CARGAS EXC E IN                                        000000003410000000000000000000000000000088350835000000239377421008 A          201210142012091400000000054860000192500000000000204820000000000000000000000000013090050000000000  3020121030   06          3                                                                                   3112393774214005770252400019                                                  N                     01321  0000000        000005
12002583013000166ITAN TRANSP DE CARGAS EXC E IN                                        000000003410000000000000000000000000000088769805000000241619340008 D          201210142012091800000000054860000105350000000000112086000000000000000000000000007157050000000000  3020121030   06          3                                                                                   3112416193400005770252400019                                                  N                     01321  0000000        000006
12003489596000123BEND FLEX I COMERCIO LTDA                                             000000003410000000000000000000000000000088350832000000171879874608            201209122012082100000000054540000695250000000000762233000000000000000000000000066983050000000000  3020121031   01          2                                                                                   3191718798744157734445800069                                                  N                     01321  0000000        000007
12003489596000123BEND FLEX I COMERCIO LTDA                                             000000003410000000000000000000000000000088599899000000171434574613            201209172012081600000000054590000585000000000000635644000000000000000000000000050644050000000000  3020121031   01          2                                                                                   3191714345748157734445800019                                                  N                     01321  0000000        000008
12004934836000114GUAIRA MAT PARA CONSTR LTDA ME                                        00000000341000000000000000000000000000008876979900000090011431423736          201210192012091900000000054910000055500000000000057128000000000000000000000000001776050000000000  3020121030   06          3                                                                                   3109001143140076568242200039                                                  N                     01321  0000000        000009
12005151518000140BELENUS DO BRASIL LTDA                                                000000000330000000000000000000000000000091026579000000290000000R132008222     201212222012102300000000055550000460800000000000460800000000000000000000000000000000050000000000  3020121224   01FS        1                                                                                   3918381050000000498629010499                                                  N                     01321  0000000        000010
12005151518000140BELENUS DO BRASIL LTDA                                                000000000330000000000000000000000000000091026582000000100000000R132008212     201211222012102300000000055250000599040000000000599040000000000000000000000000000000050000000000  3020121122   01FS        1                                                                                   3918381050000000498610010479                                                  N                     01321  0000000        000011
12005151518000140BELENUS DO BRASIL LTDA                                                000000000330000000000000000000000000000091026588000000370000000R132008232     201301212012102300000000055850000460800000000000460800000000000000000000000000000000050000000000  3020130121   01FS        1                                                                                   3918381050000000498637010479                                                  N                     01321  0000000        000012
12005335228000156DINAMICA INF E TELECOM LTDA EP                                        0000000023703257300000000503215 0000000090244992009032570017602MO009089A      201210302012101600000000055020000020000000000000020067000000000000000000000000000067050000000000  3020121031   01          2  RUA JUNO  533                                                                    3                         000000000000000                                     N                     00598  0000000        000013
12005852768000107DAOUD LEAL ELETRONICA LTDA ME                                         000000003410000000000000000000000000000089337382000000615297518OUTUBRO        201210262012100200000000054980000016558000000000017054000000000000000000000000000496050000000000  3020121031   01          2                                                                                   3156152975181152944476000059                                                  N                     01321  0000000        000014
12005880850000145NEDERMAN BRASIL COM PROD EX LT                                        000000003410000000000000000000000000000086373178000000614350956002763 A       201209252012081400000000054670000289674000000000310194000000000000000000000000020520050000000000  3020121031   01          2                                                                                   3156143509568160829000100049                                                  N                     01321  0000000        000015
12006000195000156MBA MERCANTIL BRAS DE ACO LTDA                                        0000000034100000000000000000000000000000904173140000001667238290008874B03     201210112012071600000000054830000802825000000000834405000000000000000000000000031580050000000000  3020121031   01          2                                                                                   3191667238296064849251000069                                                  N                     01321  0000000        000016
12006000195000156MBA MERCL BRASILEIRA ACO LTDA                                         0000000042200000000000000000000000000000859590580000000000000000009051B03     201210242012080300000000054960000180456000000000182562000000000000000000000000002106050000000000  3020121031   01          2                                                                                   3701600007451936910173834199                                                  N                     01321  0000000        000017
12006000195000156MBA MERCANTIL BRAS DE ACO LTDA                                        0000000034100000000000000000000000000000904173150000001667238300008870B03     201210092012071600000000054810000839951000000000876295000000000000000000000000036344050000000000  3020121031   01          2                                                                                   3191667238304064849251000039                                                  N                     01321  0000000        000018
12006000195000156MBA MERCANTIL BRAS DE ACO LTDA                                        0000000034100000000000000000000000000000904173160000001667238280008876B03     201210122012071600000000054840000810320000000000840606000000000000000000000000030286050000000000  3020121031   01          2                                                                                   3191667238288064849251000079                                                  N                     01321  0000000        000019
12006000195000156MBA MERCANTIL BRAS DE ACO LTDA                                        0000000034100000000000000000000000000000904173170000001671394420008925B03     201210122012071700000000054840000719580000000000746465000000000000000000000000026885050000000000  3020121031   01          2                                                                                   3191671394424064849251000069                                                  N                     01321  0000000        000020
12006000195000156MBA MERCANTIL BRAS DE ACO LTDA                                        0000000034100000000000000000000000000000904173180000001671394430008926B03     201210122012071700000000054840000387716000000000402213000000000000000000000000014497050000000000  3020121031   01          2                                                                                   3191671394432064849251000079                                                  N                     01321  0000000        000021
12006000195000156MBA MERCANTIL BRAS DE ACO LTDA                                        0000000034100000000000000000000000000000906662670000001671394410008920B03     201210142012071700000000054860000576584000000000595862000000000000000000000000019278050000000000  3020121031   01          2                                                                                   3191671394416064849251000039                                                  N                     01321  0000000        000022
12006000195000156MBA MERCANTIL BRAS DE ACO LTDA                                        0000000034100000000000000000000000000000887698100000001671394560008926B02     201209142012071700000000054560000387716000000000423577000000000000000000000000035861050000000000  3020121031   01          2                                                                                   3191671394564064849251000019                                                  N                     01321  0000000        000023
12006000195000156M B A MERCANTIL BRASILEIRA DE                                         0000000000100000000000000000000000000000855028920000007952940000009010B03     201210252012073000000000054970000275045000000000277793000000000000000000000000002748050000000000  3020121031   01          2                                                                                   3043937952943333000105251199                                                  N                     01321  0000000        000024
12006000195000156MBA MERCANTIL BRAS DE ACO LTDA                                        0000000034100000000000000000000000000000889578520000001671394540008920B02     201209162012071700000000054580000576585000000000627615000000000000000000000000051030050000000000  3020121031   01          2                                                                                   3191671394549064849251000099                                                  N                     01321  0000000        000025
12006000195000156MBA MERCANTIL BRAS DE ACO LTDA                                        0000000034100000000000000000000000000000885998980000001667238420008870B02     201209112012071600000000054530000839952000000000922552000000000000000000000000082600050000000000  3020121031   01          2                                                                                   3191667238429064849251000039                                                  N                     01321  0000000        000026
12006000195000156MBA MERCANTIL BRAS DE ACO LTDA                                        0000000034100000000000000000000000000000887698090000001671394550008925B02     201209142012071700000000054560000719581000000000786086000000000000000000000000066505050000000000  3020121031   01          2                                                                                   3191671394556064849251000089                                                  N                     01321  0000000        000027
12006000195000156M B A MERCANTIL BRASILEIRA DE                                         0000000023700118P00000002130599 00000000868592690020223600000020009229B02     201210112012081600000000054830000253414000000000261854000000000000000000000000008440050000000000  3020121031   01          2  RUA JUNO  533                                                                    3                         000000000000000                                     N                     00598  0000000        000028
12006000195000156M B A MERCANTIL BRASILEIRA DE                                         0000000023700118P00000002130599 00000000853155090020220900000690008986B03     201210172012072500000000054890000126718000000000129672000000000000000000000000002954050000000000  3020121031   01          2  RUA JUNO  533                                                                    3                         000000000000000                                     N                     00598  0000000        000029
12006000195000156M B A MERCANTIL BRASILEIRA DE                                         0000000023700118P00000002130599 00000000853155120020220900000720008987B03     201210182012072500000000054900000188368000000000192450000000000000000000000000004082050000000000  3020121031   01          2  RUA JUNO  533                                                                    3                         000000000000000                                     N                     00598  0000000        000030
12006000195000156M B A MERCANTIL BRASILEIRA DE                                         0000000023700118P00000002130599 00000000865388260020222900000470009204B02     201210112012081500000000054830000127292000000000131532000000000000000000000000004240050000000000  3020121031   01          2  RUA JUNO  533                                                                    3                         000000000000000                                     N                     00598  0000000        000031
12006000195000156M B A MERCANTIL BRASILEIRA DE                                         0000000023700118P00000002130599 00000000865388290020222900000500009205B02     201210122012081500000000054840000348964000000000360022000000000000000000000000011058050000000000  3020121031   01          2  RUA JUNO  533                                                                    3                         000000000000000                                     N                     00598  0000000        000032
12006000195000156M B A MERCANTIL BRASILEIRA DE                                         0000000023700118P00000002130599 00000000865388320020222900000530009206B02     201210132012081500000000054850000527560000000000543382000000000000000000000000015822050000000000  3020121031   01          2  RUA JUNO  533                                                                    3                         000000000000000                                     N                     00598  0000000        000033
12006000195000156M B A MERCANTIL BRASILEIRA DE                                         0000000023700118P00000002130599 00000000848180770020220100000340008905B03     201210112012071900000000054830000155300000000000160480000000000000000000000000005180050000000000  3020121031   01          2  RUA JUNO  533                                                                    3                         000000000000000                                     N                     00598  0000000        000034
12006000195000156M B A MERCANTIL BRASILEIRA DE                                         0000000023700118P00000002130599 00000000853155000020220900000460008967B03     201210182012072400000000054900000135605000000000138543000000000000000000000000002938050000000000  3020121031   01          2  RUA JUNO  533                                                                    3                         000000000000000                                     N                     00598  0000000        000035
12006000195000156M B A MERCANTIL BRASILEIRA DE                                         0000000023700118P00000002130599 00000000853155030020220900000530008971B03     201210162012072400000000054880000170465000000000174725000000000000000000000000004260050000000000  3020121031   01          2  RUA JUNO  533                                                                    3                         000000000000000                                     N                     00598  0000000        000036
12006000195000156M B A MERCANTIL BRASILEIRA DE                                         0000000023700118P00000002130599 00000000853155060020220900000660008985B03     201210172012072500000000054890000141846000000000145150000000000000000000000000003304050000000000  3020121031   01          2  RUA JUNO  533                                                                    3                         000000000000000                                     N                     00598  0000000        000037
12006000195000156M B A MERCANTIL BRASILEIRA DE                                         0000000023700118P00000002128292 00000000910265780090220800000360008988B03     201210232012072500000000054950000378850000000000378850000000000000000000000000000000050000000000  3020121031   01FS        1  RUA JUNO  533                                                                    3                         000000000000000                                     N                     00598  0000000        000038
12006000195000156M B A MERCANTIL BRASILEIRA DE                                         0000000023700118P00000002130599 00000000865388240020222900000450009203B03     201212122012081500000000055450000344980000000000344980000000000000000000000000000000050000000000  3020121212   01          2  RUA JUNO  533                                                                    300000000000000000001500  000000000000000                                     N                     00598  0000000        000039
12006000195000156M B A MERCANTIL BRASILEIRA DE                                         0000000023700118P00000002130599 00000000865388330020222900000540009206B03     201212152012081500000000055480000527560000000000527560000000000000000000000000000000050000000000  3020121217   01          2  RUA JUNO  533                                                                    300000000000000000001500  000000000000000                                     N                     00598  0000000        000040
12006000195000156M B A MERCANTIL BRASILEIRA DE                                         0000000023700118P00000002130599 00000000868592700020223600000030009229B03     201212132012081600000000055460000253414000000000253414000000000000000000000000000000050000000000  3020121213   01          2  RUA JUNO  533                                                                    300000000000000000001500  000000000000000                                     N                     00598  0000000        000041
12006000195000156MBA MERCANTIL BRAS DE ACO LTDA                                        0000000034100000000000000000000000000000884432480000002398047560009473B02     201212062012090500000000055390000503132000000000503132000000000000000000000000000000050000000000  3020121206   01          2                                                                                   3112398047566064899001800039                                                  N                     01321  0000000        000042
12006000195000156MBA MERCANTIL BRAS DE ACO LTDA                                        0000000034100000000000000000000000000000894344070000002451556710009736B01     201212072012092800000000055400000409118000000000409118000000000000000000000000000000050000000000  3020121207   01          2                                                                                   3112451556719064899001800039                                                  N                     01321  0000000        000043
12006000195000156MBA MERCANTIL BRAS DE ACO LTDA                                        0000000034100000000000000000000000000000900522800000002479124010009784B01     201212072012100400000000055400000903144000000000903144000000000000000000000000000000050000000000  3020121207   01          2                                                                                   3112479124011064899001800079                                                  N                     01321  0000000        000044
12006000195000156M B A MERCANTIL BRASILEIRA DE                                         0000000023700118P00000002130599 00000000865388300020222900000510009205B03     201212142012081500000000055470000348964000000000348964000000000000000000000000000000050000000000  3020121214   01          2  RUA JUNO  533                                                                    300000000000000000001500  000000000000000                                     N                     00598  0000000        000045
12006000195000156MBA MERCANTIL BRAS DE ACO LTDA                                        0000000034100000000000000000000000000000884432550000002398047590009475B02     201212062012090500000000055390000124131000000000124131000000000000000000000000000000050000000000  3020121206   01          2                                                                                   3112398047590064899001800039                                                  N                     01321  0000000        000046
12006000195000156MBA MERCANTIL BRAS DE ACO LTDA                                        0000000034100000000000000000000000000000884432720000002398047530009460B02     201212062012090500000000055390000130438000000000130438000000000000000000000000000000050000000000  3020121206   01          2                                                                                   3112398047533064899001800019                                                  N                     01321  0000000        000047
12006000195000156MBA MERCANTIL BRAS DE ACO LTDA                                        0000000034100000000000000000000000000000894343980000002451556680009735B01     201212062012092800000000055390000239096000000000239096000000000000000000000000000000050000000000  3020121206   01          2                                                                                   3112451556685064899001800079                                                  N                     01321  0000000        000048
12006000195000156MBA MERCANTIL BRAS DE ACO LTDA                                        0000000034100000000000000000000000000000894343990000002451556620009733B01     201212032012092800000000055360000520246000000000520246000000000000000000000000000000050000000000  3020121203   01          2                                                                                   3112451556628064899001800089                                                  N                     01321  0000000        000049
12006000195000156MBA MERCANTIL BRAS DE ACO LTDA                                        0000000034100000000000000000000000000000894344030000002451556650009734B01     201212042012092800000000055370000278567000000000278567000000000000000000000000000000050000000000  3020121204   01          2                                                                                   3112451556651064899001800099                                                  N                     01321  0000000        000050
12006000195000156M B A MERCANTIL BRASILEIRA DE                                         0000000023700118P00000002130599 00000000865388270020222900000480009204B03     201212132012081500000000055460000127291000000000127291000000000000000000000000000000050000000000  3020121213   01          2  RUA JUNO  533                                                                    300000000000000000001500  000000000000000                                     N                     00598  0000000        000051
12008272923000104P SANTOS ESQUADRARIAS METAL ME                                        0000000034100000000000000000000000000000896979550000006153947641850           201211222012100800000000055250000400000000000000400000000000000000000000000000000000050000000000  3020121122   01          2                                                                                   3156153947640160141951600039                                                  N                     01321  0000000        000052
12008879248000186FREFER METAL PLUS                                                     000000003410000000000000000000000000000091026575000000253012170EPI024022C     201301152012102300000000055790000998338000000000998338000000000000000000000000000000050000000000  3020130115   01FS        1                                                                                   3112530121709293811346700099                                                  N                     01321  0000000        000053
12008879248000186FREFER METAL PLUS                                                     000000003410000000000000000000000000000091026576000000253012171EPI024058C     201301172012102500000000055810000960939000000000960939000000000000000000000000000000050000000000  3020130117   01FS        1                                                                                   3112530121717293811346700089                                                  N                     01321  0000000        000054
12009338857000190FERNANDO  NAGAO  CARDONE  ALVA                                        000000000330000000000000000000000000000089697936000000800000000ALTA 10 2012   201210202012092500000000054920000134632000000000140422000000000000000000000000005790050000000000  3020121031   01          2                                                                                   3947901700000051050080010129                                                  N                     01321  0000000        000055
12012006058000121WEG TINTAS LTDA                                                       0000000023702727800000000001309 00000000849855340090220500001220015343103     201210032012072000000000054750000306662000000000318086000000000000000000000000011424050000000000  3020121031   01          2  R JUNO  533                                                                      3                         000000000000000                                     N                     00598  0000000        000056
12012006058000121WEG TINTAS LTDA                                                       0000000023702727800000000001309 00000000868126340090223500001170016086601     201210052012082100000000054770000306569000000000317177000000000000000000000000010608050000000000  3020121031   01          2  R JUNO  533                                                                      3                         000000000000000                                     N                     00598  0000000        000057
12012006058000121WEG TINTAS LTDA                                                       0000000023702727800000000001309 00000000868126350090223500001180016086602     201210202012082100000000054920000306569000000000311057000000000000000000000000004488050000000000  3020121031   01          2  R JUNO  533                                                                      3                         000000000000000                                     N                     00598  0000000        000058
12012006058000121WEG TINTAS LTDA                                                       0000000023702727800000000001309 00000000861207270090222200000910015775002     201210072012080800000000054790000306569000000000316361000000000000000000000000009792050000000000  3020121031   01          2  R JUNO  533                                                                      3                         000000000000000                                     N                     00598  0000000        000059
12012006058000121WEG TINTAS LTDA                                                       0000000023702727800000000001309 00000000854049560090221200001020015513003     201210102012072700000000054820000459992000000000472865000000000000000000000000012873050000000000  3020121031   01          2  R JUNO  533                                                                      3                         000000000000000                                     N                     00598  0000000        000060
12012006058000121WEG TINTAS LTDA                                                       0000000023702727800000000001309 00000000856071270090221400000840015587303     201210142012073100000000054860000459992000000000470413000000000000000000000000010421050000000000  3020121031   01          2  R JUNO  533                                                                      3                         000000000000000                                     N                     00598  0000000        000061
12012006058000121WEG TINTAS LTDA                                                       0000000023702727800000000001309 00000000882668410090225800000740016626901     201210282012091300000000055000000459854000000000461693000000000000000000000000001839050000000000  3020121031   01          2  R JUNO  533                                                                      3                         000000000000000                                     N                     00598  0000000        000062
12012006058000121WEG TINTAS LTDA                                                       0000000023702727800000000001309 00000000864554450090222800000740015908402     201210132012081400000000054850000306569000000000313913000000000000000000000000007344050000000000  3020121031   01          2  R JUNO  533                                                                      3                         000000000000000                                     N                     00598  0000000        000063
12012006058000121WEG TINTAS LTDA                                                       0000000023702727800000000001309 00000000864554460090222800000750015908403     201210282012081400000000055000000306662000000000307886000000000000000000000000001224050000000000  3020121031   01          2  R JUNO  533                                                                      3                         000000000000000                                     N                     00598  0000000        000064
12012006058000121WEG TINTAS LTDA                                                       0000000023702727800000000001309 00000000870177480090224100000970016248001     201210112012082700000000054830000306569000000000314729000000000000000000000000008160050000000000  3020121031   01          2  R JUNO  533                                                                      3                         000000000000000                                     N                     00598  0000000        000065
12012006058000121WEG TINTAS LTDA                                                       0000000023702727800000000001309 00000000870177490090224100000980016248002     201210262012082700000000054980000306569000000000308609000000000000000000000000002040050000000000  3020121031   01          2  R JUNO  533                                                                      3                         000000000000000                                     N                     00598  0000000        000066
12012006058000121WEG TINTAS LTDA                                                       0000000023702727800000000001309 00000000872318650090224700001030016359601     201210152012083100000000054870000459854000000000469662000000000000000000000000009808050000000000  3020121031   01          2  R JUNO  533                                                                      3                         000000000000000                                     N                     00598  0000000        000067
12012006058000121WEG TINTAS LTDA                                                       0000000023702727800000000001309 00000000872318660090224700001040016359602     201210302012083100000000055020000459854000000000460467000000000000000000000000000613050000000000  3020121031   01          2  R JUNO  533                                                                      3                         000000000000000                                     N                     00598  0000000        000068
12012006058000121WEG TINTAS LTDA                                                       0000000023702727800000000001309 00000000861207280090222200000920015775003     201210222012080800000000054940000306662000000000310334000000000000000000000000003672050000000000  3020121031   01          2  R JUNO  533                                                                      3                         000000000000000                                     N                     00598  0000000        000069
12012006058000121WEG TINTAS LTDA                                                       0000000023702727800000000001309 00000000878206040090225400000780016517201     201210212012090600000000054930000459854000000000465984000000000000000000000000006130050000000000  3020121031   01          2  R JUNO  533                                                                      3                         000000000000000                                     N                     00598  0000000        000070
12012707981000190MAC CINTAS E A CARGAS LTDA ME                                         000000003410000000000000000000000000000088957850000000242876074609            201210182012092500000000054900000072500000000000074816000000000000000000000000002509050000000000  3020121030   06          3                                                                                   3112428760741068283895800029                                                  N                     01321  0000000        000071
12013656578000142GUARINOR TRANSP E LOGISTICA LT                                        000000001040000000000000000000000000000090417312000000001279900001727 12      201210262012100800000000054980000066600000000000066600000000000000000000000000000000050000000000  3020121026   06          3                                                                                   3900000127932958700000017369                                                  N                     01321  0000000        000072
12014775592000128HELIO ADRIANO DA SILVA ME                                             0000000003300000000000000000000000000000901454930000007700000008883           201210302012101000000000055020000011000000000000011227000000000000000000000000000227050000000000  3020121031   01          2                                                                                   3956114740000000000077010199                                                  N                     01321  0000000        000073
12014978305000187MOGI FILME INDUSTRIA E COMERCI                                        0000000023700402200000001055003 0000000088599905009022640000016351            201210202012092000000000054920000139691000000000147336000000000000000000000000007645050000000000  3020121031   01          2  RUA TAMAINDE 1410 VL NOVA MANCHESTER                                             3                         000000000000000                                     N                     00598  0000000        000074
12016802308000190TRANSMARRECO LTDA                                                     000000000330000000000000000000000000000088769814000000640000000353 12         201210052012092100000000054770000106581000000000117033000000000000000000000000010452050000000000  3020121031   01          2                                                                                   3907636240000000643564010119                                                  N                     01321  0000000        000075
12035820448000136WHITE MARTINS GASES INDUSTRIAI                                        0000000023700026400000003937925 0000000088686659009022650001000382942 001     201210182012092100000000054900000121725000000000124692000000000000000000000000002967050000000000  3020121031   01          2  RUA GANGES  528                                                                  3                         000000000000000                                     N                     00598  0000000        000076
12035820448000136WHITE MARTINS GASES INDUSTRIAI                                        0000000023700026400000003937925 0000000088191338009022570001466379316 001     201210092012091300000000054810000085208000000000087528000000000000000000000000002320050000000000  3020121031   01          2  RUA GANGES  528                                                                  3                         000000000000000                                     N                     00598  0000000        000077
12035820448000136WHITE MARTINS GASES INDUSTRIAI                                        0000000023700026400000003937925 0000000088524829009022630001577381808 001     201210162012091900000000054880000121725000000000124774000000000000000000000000003049050000000000  3020121031   01          2  RUA GANGES  528                                                                  3                         000000000000000                                     N                     00598  0000000        000078
12035820448000136WHITE MARTINS GASES INDUSTRIAI                                        0000000023700026400000003937925 0000000087820600009022540001838377866 001     201210042012090700000000054760000202876000000000208769000000000000000000000000005893050000000000  3020121031   01          2  RUA GANGES  528                                                                  3                         000000000000000                                     N                     00598  0000000        000079
12035820448000136WHITE MARTINS GASES INDUSTRIAI                                        0000000023700026400000003937925 0000000088957851009022700001298384214 001     201210232012092600000000054950000121725000000000124487000000000000000000000000002762050000000000  3020121031   01          2  RUA GANGES  528                                                                  3                         000000000000000                                     N                     00598  0000000        000080
12042956441000101SOLUCOES ACO USIMINAS                                                 0000000034100000000000000000000000000000856906410000002262886280017266201     201208282012073000000000054390000119472000000000134768000000000000000000000000015296050000000000  3020121031   01          2                                                                                   3112262886289293807258000089                                                  N                     01321  0000000        000081
12042956441000101SOLUCOES ACO USIMINAS                                                 0000000034100000000000000000000000000000846595700000002210880280016980502     201209102012071200000000054520000156071000000000171983000000000000000000000000015912050000000000  3020121031   01          2                                                                                   3112210880285293807258000039                                                  N                     01321  0000000        000082
12042956441000101SOLUCOES ACO USIMINAS                                                 0000000034100000000000000000000000000000846595710000002210880290016980602     201209102012071200000000054520000426094000000000469546000000000000000000000000043452050000000000  3020121031   01          2                                                                                   3112210880293293807258000019                                                  N                     01321  0000000        000083
12042956441000101SOLUCOES ACO USIMINAS                                                 0000000034100000000000000000000000000000847452070000002216130350005922202     201209102012071600000000054520000172071000000000189615000000000000000000000000017544050000000000  3020121031   01          2                                                                                   3112216130354293807258000049                                                  N                     01321  0000000        000084
12042956441000101SOLUCOES ACO USIMINAS                                                 0000000034100000000000000000000000000000847452100000002216130340017012402     201209102012071500000000054520000147428000000000162473000000000000000000000000015045050000000000  3020121031   01          2                                                                                   3112216130347293807258000059                                                  N                     01321  0000000        000085
12042956441000101SOLUCOES ACO USIMINAS                                                 0000000034100000000000000000000000000000856906420000002262886290017266301     201208282012073000000000054390000145069000000000163629000000000000000000000000018560050000000000  3020121031   01          2                                                                                   3112262886297293807258000099                                                  N                     01321  0000000        000086
12042956441000101SOLUCOES ACO USIMINAS                                                 0000000034100000000000000000000000000000859590620000002274469790017353702     201209282012080300000000054700000081053000000000086399000000000000000000000000005346050000000000  3020121031   01          2                                                                                   3112274469793293807258000069                                                  N                     01321  0000000        000087
12042956441000101SOLUCOES ACO USIMINAS                                                 0000000034100000000000000000000000000000853154840000002246247030017196702     201209202012072500000000054620000234841000000000254111000000000000000000000000019270050000000000  3020121031   01          2                                                                                   3112246247038293807258000099                                                  N                     01321  0000000        000088
12042956441000101SOLUCOES ACO USIMINAS                                                 0000000034100000000000000000000000000000853154850000002246247040017197302     201209202012072500000000054620000970103000000001049643000000000000000000000000079540050000000000  3020121031   01          2                                                                                   3112246247046293807258000019                                                  N                     01321  0000000        000089
12042956441000101SOLUCOES ACO USIMINAS                                                 0000000034100000000000000000000000000000855028690000002254329380017212902     201209212012072600000000054630000140098000000000151298000000000000000000000000011200050000000000  3020121031   01          2                                                                                   3112254329389293807258000019                                                  N                     01321  0000000        000090
12042956441000101SOLUCOES ACO USIMINAS                                                 0000000034100000000000000000000000000000855028700000002254329390017213002     201209212012072600000000054630000140602000000000151842000000000000000000000000011240050000000000  3020121031   01          2                                                                                   3112254329397293807258000089                                                  N                     01321  0000000        000091
12042956441000101SOLUCOES ACO USIMINAS                                                 0000000034100000000000000000000000000000855028770000002254329400017220502     201209212012072700000000054630000981022000000001059502000000000000000000000000078480050000000000  3020121031   01          2                                                                                   3112254329405293807258000099                                                  N                     01321  0000000        000092
12042956441000101SOLUCOES ACO USIMINAS                                                 0000000034100000000000000000000000000000848180700000002220192900017041002     201209112012071700000000054530000155433000000000170983000000000000000000000000015550050000000000  3020121031   01          2                                                                                   3112220192903293807258000029                                                  N                     01321  0000000        000093
12042956441000101SOLUCOES ACO USIMINAS                                                 0000000034100000000000000000000000000000848180710000002220192910017041202     201209112012071700000000054530000205421000000000225971000000000000000000000000020550050000000000  3020121031   01          2                                                                                   3112220192911293807258000019                                                  N                     01321  0000000        000094
12042956441000101SOLUCOES ACO USIMINAS                                                 0000000034100000000000000000000000000000850740460000002233586800017127201     201208202012072000000000054310000137881000000000157753000000000000000000000000019872050000000000  3020121031   01          2                                                                                   3112233586802293807258000019                                                  N                     01321  0000000        000095
12042956441000101SOLUCOES ACO USIMINAS                                                 0000000034100000000000000000000000000000850740470000002233586810017101002     201209142012071900000000054560000732575000000000801430000000000000000000000000068855050000000000  3020121031   01          2                                                                                   3112233586810293807258000019                                                  N                     01321  0000000        000096
12042956441000101SOLUCOES ACO USIMINAS                                                 0000000034100000000000000000000000000000850740480000002233586820017101202     201209142012071900000000054560000144634000000000158217000000000000000000000000013583050000000000  3020121031   01          2                                                                                   3112233586828293807258000029                                                  N                     01321  0000000        000097
12043299791000105MAQUINAS DANLY LTDA                                                   0000000034100000000000000000000000000000905040910000002505953105040588001     201211222012101800000000055250000046913000000000046913000000000000000000000000000000050000000000  3020121122   05          3                                                                                   3112505953102084471895700019                                                  N                     01321  0000000        000098
12045461761000189PROTEGE INDUSTRIA E COMERCIO M                                        0000000000100000000000000000000000000000910265730000006302760001642501        201211102012102900000000055130000012216000000000012216000000000000000000000000000000050000000000  3020121112   01FS        1                                                                                   3044186302761192000128605119                                                  N                     01321  0000000        000099
12045461761000189PROTEGE INDUSTRIA E COMERCIO M                                        0000000000100000000000000000000000000000910265740000006302590001641201        201211222012102900000000055250000072000000000000072000000000000000000000000000000000050000000000  3020121122   01FS        1                                                                                   3044186302591192000128605119                                                  N                     01321  0000000        000100
12047190731000100DE CASTRO LOUREIRO ENGENHARIA                                         00000000033000000000000000000000000000009102658900000046000000003027425 0     201211272012102900000000055300001192683000000001192683000000000000000000000000000000050000000000  3020121127   01FS        1                                                                                   3948430370000009555846020369                                                  N                     01321  0000000        000101
12047190731000100DE CASTRO LOUREIRO ENGENHARIA                                         00000000033000000000000000000000000000009102659000000020000000003027424 0     201212242012102900000000055570001191039000000001191039000000000000000000000000000000050000000000  3020121224   01FS        1                                                                                   3948430370000009555820020339                                                  N                     01321  0000000        000102
12047190731000100DE CASTRO LOUREIRO ENGENHARIA                                         00000000033000000000000000000000000000009102659100000036000000003027349 0     201211212012102400000000055240000841841000000000841841000000000000000000000000000000050000000000  3020121121   01FS        1                                                                                   3948430370000009555536020379                                                  N                     01321  0000000        000103
12047190731000100DE CASTRO LOUREIRO ENGENHARIA                                         00000000033000000000000000000000000000009102659200000054000000003027425 0     201212252012102900000000055580001192683000000001192683000000000000000000000000000000050000000000  3020121226   01FS        1                                                                                   3948430370000009555854020339                                                  N                     01321  0000000        000104
12047190731000100DE CASTRO LOUREIRO ENGENHARIA                                         00000000033000000000000000000000000000009102659300000062000000003027425 0     201301222012102900000000055860001193042000000001193042000000000000000000000000000000050000000000  3020130122   01FS        1                                                                                   3948430370000009555862020319                                                  N                     01321  0000000        000105
12047190731000100DE CASTRO LOUREIRO ENGENHARIA                                         00000000033000000000000000000000000000009102658400000044000000003027349 0     201212192012102400000000055520000841841000000000841841000000000000000000000000000000050000000000  3020121219   01FS        1                                                                                   3948430370000009555544020349                                                  N                     01321  0000000        000106
12047190731000100DE CASTRO LOUREIRO ENGENHARIA                                         00000000033000000000000000000000000000009102658500000052000000003027349 0     201301162012102400000000055800000842094000000000842094000000000000000000000000000000050000000000  3020130116   01FS        1                                                                                   3948430370000009555552020369                                                  N                     01321  0000000        000107
12047190731000100DE CASTRO LOUREIRO ENGENHARIA                                         00000000033000000000000000000000000000009102658600000038000000003027424 0     201301212012102900000000055850001191396000000001191396000000000000000000000000000000050000000000  3020130121   01FS        1                                                                                   3948430370000009555838020399                                                  N                     01321  0000000        000108
12047190731000100DE CASTRO LOUREIRO ENGENHARIA                                         00000000033000000000000000000000000000009102658700000011000000003027424 0     201211262012102900000000055290001191039000000001191039000000000000000000000000000000050000000000  3020121126   01FS        1                                                                                   3948430370000009555811020319                                                  N                     01321  0000000        000109
12047190731000100DE CASTRO LOUR ENG IND LTDA                                           00000000341000000000000000000000000000008782050900000023399953503026612 0     201209182012082100000000054600001111489000000001205487000000000000000000000000093998050000000000  3020121031   01          2                                                                                   3112339995352036884500400019                                                  N                     01321  0000000        000110
12047190731000100DE CASTRO LOUR ENG IND LTDA                                           00000000341000000000000000000000000000008782051200000023399953803026613 0     201209182012082100000000054600001107989000000001201686000000000000000000000000093697050000000000  3020121031   01          2                                                                                   3112339995386036884500400039                                                  N                     01321  0000000        000111
12047190731000100DE CASTRO LOUR ENG IND LTDA                                           00000000341000000000000000000000000000008782051600000023399954103026614 0     201209182012082100000000054600001047621000000001136201000000000000000000000000088580050000000000  3020121031   01          2                                                                                   3112339995410036884500400039                                                  N                     01321  0000000        000112
12047190731000100DE CASTRO LOUR ENG IND LTDA                                           00000000341000000000000000000000000000008782052000000023399955303026632 0     201209192012082200000000054610000952073000000001030697000000000000000000000000078624050000000000  3020121031   01          2                                                                                   3112339995535036884500400019                                                  N                     01321  0000000        000113
12047190731000100DE CASTRO LOUR ENG IND LTDA                                           00000000341000000000000000000000000000008782052100000023399955903026643 0     201209202012082300000000054620000867039000000000936944000000000000000000000000069905050000000000  3020121031   01          2                                                                                   3112339995592036884500400049                                                  N                     01321  0000000        000114
12047190731000100DE CASTRO LOUR ENG IND LTDA                                           00000000341000000000000000000000000000008782052500000023399955603026636 0     201209192012082200000000054610000940804000000001018504000000000000000000000000077700050000000000  3020121031   01          2                                                                                   3112339995568036884500400049                                                  N                     01321  0000000        000115
12047190731000100DE CASTRO LOUR ENG IND LTDA                                           00000000341000000000000000000000000000008782052700000023399956203026648 0     201209202012082300000000054620000976053000000001054773000000000000000000000000078720050000000000  3020121031   01          2                                                                                   3112339995626036884500400029                                                  N                     01321  0000000        000116
12048775225000146SEIKI IND COM E CONFECCOES LTD                                        000000003410000000000000000000000000000089337376000000244697151014914001      201210232012092500000000054950000052000000000000052624000000000000000000000000000624050000000000  3020121031   01          2                                                                                   3112446971510017444824100089                                                  N                     01321  0000000        000117
12049341563000132JAC COMERCIO DE MATERIAIS ELET                                        0000000023700293300000001478699 00000000892292560020132275064582321701        201210262012100100000000054980000046351000000000046736000000000000000000000000000385050000000000  3020121031   01          2  R GANGES 528                                                                     3                         000000000000000                                     N                     00598  0000000        000118
12051180370000199IGUAFER FERRO E ACO LTDA                                              0000000034100000000000000000000000000000852309100000002239389789443 B         201209022012071800000000054440000168275000000000184795000000000000000000000000016520050000000000  3020121031   01          2                                                                                   3112239389789077149484600089                                                  N                     01321  0000000        000119
12051180370000199IGUAFER FERRO E ACO LTDA                                              0000000034100000000000000000000000000000852309110000002239389799443 C         201209122012071800000000054540000168275000000000181995000000000000000000000000013720050000000000  3020121031   01          2                                                                                   3112239389797077149484600089                                                  N                     01321  0000000        000120
12053585766000141MULTIACOS I C PRODS TEC LTDA                                          0000000042200000000000000000000000000000895189410000000000000000004704301     201210302012100200000000055020000994772000000000996429000000000000000000000000001657050000000000  3020121031   01          2                                                                                   3711500005033164927761823189                                                  N                     01321  0000000        000121
12053585766000141MULTIACOS I C PRODS TEC LTDA                                          0000000042200000000000000000000000000000895189540000000000000000004695701     201210292012100200000000055010001125322000000001129073000000000000000000000000003751050000000000  3020121031   01          2                                                                                   3711500005033164927761963199                                                  N                     01321  0000000        000122
12053585766000141MULTIACOS I C PRODS TEC LTDA                                          0000000042200000000000000000000000000000895189430000000000000000004566103     201210292012100200000000055010001281579000000001285850000000000000000000000000004271050000000000  3020121031   01          2                                                                                   3711500005033164927761904189                                                  N                     01321  0000000        000123
12053585766000141MULTIACOS I C PRODS TEC LTDA                                          0000000042200000000000000000000000000000887697930000000000000000004704501     201210302012092000000000055020000224054000000000224426000000000000000000000000000372050000000000  3020121031   01          2                                                                                   3711500005033164923629572179                                                  N                     01321  0000000        000124
12053585766000141MULTIACOS I C PRODS TEC LTDA                                          0000000042200000000000000000000000000000895189620000000000000000004699101     201210292012100200000000055010000592134000000000594107000000000000000000000000001973050000000000  3020121031   01          2                                                                                   3711500005033164927762021159                                                  N                     01321  0000000        000125
12053585766000141MULTIACOS I C PRODS TEC LTDA                                          0000000042200000000000000000000000000000895189690000000000000000004545103     201210242012100200000000054960000305114000000000308676000000000000000000000000003562050000000000  3020121031   01          2                                                                                   3711500005033164927762145119                                                  N                     01321  0000000        000126
12053585766000141MULTIACOS I C PRODS TEC LTDA                                          0000000042200000000000000000000000000000895189730000000000000000004642302     201210302012100200000000055020000192957000000000193278000000000000000000000000000321050000000000  3020121031   01          2                                                                                   3711500005033164927762153179                                                  N                     01321  0000000        000127
12053585766000141MULTIACOS I C PRODS TEC LTDA                                          0000000042200000000000000000000000000000895189760000000000000000004642102     201210302012100200000000055020000244317000000000244723000000000000000000000000000406050000000000  3020121031   01          2                                                                                   3711500005033164927762170139                                                  N                     01321  0000000        000128
12053585766000141MULTIACOS I C PRODS TEC LTDA                                          0000000042200000000000000000000000000000895189790000000000000000004545203     201210242012100200000000054960001004573000000001016290000000000000000000000000011717050000000000  3020121031   01          2                                                                                   3711500005033164927762242159                                                  N                     01321  0000000        000129
12053585766000141MULTIACOS I C PRODS TEC LTDA                                          0000000042200000000000000000000000000000883508250000000000000000004553203     201210252012091300000000054970001115009000000001126156000000000000000000000000011147050000000000  3020121031   01          2                                                                                   3711500005033164921116519149                                                  N                     01321  0000000        000130
12053585766000141MULTIACOS I C PRODS TEC LTDA                                          0000000042200000000000000000000000000000895189450000000000000000004570003     201210302012100200000000055020000999583000000001001248000000000000000000000000001665050000000000  3020121031   01          2                                                                                   3711500005033164927761912159                                                  N                     01321  0000000        000131
12053585766000141MULTIACOS I C PRODS TEC LTDA                                          0000000042200000000000000000000000000000895189470000000000000000004565103     201210292012100200000000055010000455717000000000457236000000000000000000000000001519050000000000  3020121031   01          2                                                                                   3711500005033164927761921189                                                  N                     01321  0000000        000132
12053585766000141MULTIACOS I C PRODS TEC LTDA                                          0000000042200000000000000000000000000000895189510000000000000000004695801     201210292012100200000000055010000198860000000000199521000000000000000000000000000661050000000000  3020121031   01          2                                                                                   3711500005033164927761998119                                                  N                     01321  0000000        000133
12053585766000141MULTIACOS IND E CO                                                    0000000034100000000000000000000000000000885998960000002407458090004685001     201210252012091300000000054970000563931000000000569571000000000000000000000000005640050000000000  3020121031   01          2                                                                                   3112407458093293803748400099                                                  N                     01321  0000000        000134
12053585766000141MULTIACOS COM DE PRODUTOS TECN                                        0000000023703398700000000011290 00000000888733100020226900000690004642101     201210162012090400000000054880000251722000000000258022000000000000000000000000006300050000000000  3020121031   01          2  RUA JUNO  533                                                                    3                         000000000000000                                     N                     00598  0000000        000135
12053585766000141MULTIACOS COM DE PRODUTOS TECN                                        0000000023703398700000000011290 00000000888733010020226900000160004493703     201210152012080600000000054870000180041000000000180941000000000000000000000000001200050000000000  3020121018   06          3  RUA JUNO  533                                                                    3                         000000000000000                                     N                     00598  0000000        000136
12053585766000141MULTIACOS COM DE PRODUTOS TECN                                        0000000023703398700000000011290 00000000888733020020226900000170004493803     201210152012080600000000054870000828107000000000832247000000000000000000000000005520050000000000  3020121018   06          3  RUA JUNO  533                                                                    3                         000000000000000                                     N                     00598  0000000        000137
12053585766000141MULTIACOS COM DE PRODUTOS TECN                                        0000000023703398700000000011290 00000000888733060020226900000460004565102     201210152012082000000000054870000455717000000000457997000000000000000000000000003040050000000000  3020121018   06          3  RUA JUNO  533                                                                    3                         000000000000000                                     N                     00598  0000000        000138
12053585766000141MULTIACOS COM DE PRODUTOS TECN                                        0000000023703398700000000011290 00000000888733070020226900000470004566102     201210152012082000000000054870001281579000000001287987000000000000000000000000008544050000000000  3020121018   06          3  RUA JUNO  533                                                                    3                         000000000000000                                     N                     00598  0000000        000139
12054382510000108SETENTA IND E COM DE MADEIRAS                                         0000000034100000000000000000000000000000860403430000002277814474462 A         201209042012080700000000054460000191200000000000212632000000000000000000000000021432050000000000  3020121031   01          2                                                                                   3112277814474057049175300069                                                  N                     01321  0000000        000140
12056667629000144COMERCIAL BERENELI LTDA                                               0000000034100000000000000000000000000000910265770000002531475610000011936     201211162012101900000000055190000055120000000000055120000000000000000000000000000000050000000000  3020121116   01FS        1                                                                                   3112531475617858006440300049                                                  N                     01321  0000000        000141
12056993512000150CYKLOP DO BRASIL EMBALAGENS SA                                        0000000034100000000000000000000000000000874070500000002362586810134932        201210012012090300000000054730000083607000000000092817000000000000000000000000009210050000000000  3020121031   01          2                                                                                   3112362586813025700015800019                                                  N                     01321  0000000        000142
12056993900000131CIA METALURGICA PRADA                                                 0000000034100000000000000000000000000000855028630000002254750290026244303     201210222012072800000000054940000100683000000000102195000000000000000000000000001512050000000000  3020121031   01          2                                                                                   3112254750295293800573900049                                                  N                     01321  0000000        000143
12056993900000131CIA METALURGICA PRADA                                                 0000000034100000000000000000000000000000855028640000002254750300026244403     201210222012072800000000054940000084116000000000085376000000000000000000000000001260050000000000  3020121031   01          2                                                                                   3112254750303293800573900099                                                  N                     01321  0000000        000144
12056993900000131CIA METALURGICA PRADA                                                 0000000034100000000000000000000000000000844839000000002201181880025629402     201209052012071100000000054470000249372000000000272668000000000000000000000000023296050000000000  3020121031   01          2                                                                                   3112201181883293800573900019                                                  N                     01321  0000000        000145
12056993900000131CIA METALURGICA PRADA                                                 0000000034100000000000000000000000000000844839010000002201181890025635302     201209052012071100000000054470000406842000000000444810000000000000000000000000037968050000000000  3020121031   01          2                                                                                   3112201181891293800573900019                                                  N                     01321  0000000        000146
12056993900000131CIA METALURGICA PRADA                                                 0000000034100000000000000000000000000000844839020000002201181900025635402     201209052012071100000000054470000208689000000000228177000000000000000000000000019488050000000000  3020121031   01          2                                                                                   3112201181909293800573900069                                                  N                     01321  0000000        000147
12056993900000131CIA METALURGICA PRADA                                                 0000000034100000000000000000000000000000844839030000002201181910025635502     201209052012071100000000054470000164780000000000180180000000000000000000000000015400050000000000  3020121031   01          2                                                                                   3112201181917293800573900029                                                  N                     01321  0000000        000148
12056993900000131CIA METALURGICA PRADA                                                 0000000034100000000000000000000000000000844839040000002201181920025635602     201209052012071100000000054470000339933000000000371685000000000000000000000000031752050000000000  3020121031   01          2                                                                                   3112201181925293800573900069                                                  N                     01321  0000000        000149
12056993900000131CIA METALURGICA PRADA                                                 0000000034100000000000000000000000000000848180630000002218222680025830002     201209112012071700000000054530000247673000000000268323000000000000000000000000020650050000000000  3020121031   01          2                                                                                   3112218222688293800573900059                                                  N                     01321  0000000        000150
12056993900000131CIA METALURGICA PRADA                                                 0000000034100000000000000000000000000000848180640000002218222690025830102     201209112012071700000000054530000207402000000000224702000000000000000000000000017300050000000000  3020121031   01          2                                                                                   3112218222696293800573900039                                                  N                     01321  0000000        000151
12056993900000131CIA METALURGICA PRADA                                                 0000000034100000000000000000000000000000848180620000002218222670025829902     201209112012071700000000054530000498118000000000539618000000000000000000000000041500050000000000  3020121031   01          2                                                                                   3112218222670293800573900029                                                  N                     01321  0000000        000152
12056993900000131CIA METALURGICA PRADA                                                 0000000034100000000000000000000000000000844839050000002201181930025636202     201209052012071100000000054470000746213000000000815877000000000000000000000000069664050000000000  3020121031   01          2                                                                                   3112201181933293800573900019                                                  N                     01321  0000000        000153
12056993900000131CIA METALURGICA PRADA                                                 0000000034100000000000000000000000000000844839060000002201181940025644402     201209052012071100000000054470000779647000000000852391000000000000000000000000072744050000000000  3020121031   01          2                                                                                   3112201181941293800573900019                                                  N                     01321  0000000        000154
12056993900000131CIA METALURGICA PRADA                                                 0000000034100000000000000000000000000000844839140000002201181870025629302     201209052012071100000000054470000257906000000000281986000000000000000000000000024080050000000000  3020121031   01          2                                                                                   3112201181875293800573900069                                                  N                     01321  0000000        000155
12057398687000182MORED COMERCIO E SERVICOS LTDA                                        0000000034100000000000000000000000000000895189910000006153522805242           201210262012100400000000054980000174053000000000175763000000000000000000000000001710050000000000  3020121031   01          2                                                                                   3156153522804101144455900039                                                  N                     01321  0000000        000156
12057398687000182MORED COMERCIO E SERVICOS LTDA                                        0000000034100000000000000000000000000000895189900000006153514885226           201210242012100400000000054960000054340000000000054982000000000000000000000000000749050000000000  3020121030   06          3                                                                                   3156153514884101144455900019                                                  N                     01321  0000000        000157
12061217188000119TELAS METALICAS TELMETAL LTDA                                         0000000034100000000000000000000000000000887697980000009000029635640 3 3       201210232012091100000000054950000033286000000000033286000000000000000000000000000000050000000000  3020121023   06          3                                                                                   3109000029635077099894600069                                                  N                     01321  0000000        000158
12061217188000119TELAS METALICAS TELMETAL LTDA                                         0000000034100000000000000000000000000000887698000000009000029665639 3 3       201210232012091100000000054950000052759000000000052759000000000000000000000000000000050000000000  3020121023   06          3                                                                                   3109000029668077099894600089                                                  N                     01321  0000000        000159
12062173661000176INDUFIX IND E COM LTDA                                                0000000023704130000000000085898 000000008904570700702271000005700038394 B     201210262012091100000000054980000057505000000000057980000000000000000000000000000475050000000000  3020121031   01          2  RUA GANGES 528                                                                   3                         000000000000000                                     N                     00598  0000000        000160
12062510367000102ITANHAEM TRANSP DE MAQUINAS LT                                        000000003410000000000000000000000000000087407049000000236463199667            201209202012090400000000054620000248220000000000288933000000000000000000000000040713050000000000  3020121031   01          2                                                                                   3112364631997005770252400049                                                  N                     01321  0000000        000161
12062539994000176LEALFER INDUSTRIA E COMERCIO D                                        0000000003300000000000000000000000000000910265800000000400000000005732502     201212202012102400000000055530000828586000000000828586000000000000000000000000000000050000000000  3020121220   01FS        1                                                                                   3915298380000000285404010479                                                  N                     01321  0000000        000162
12062539994000176LEALFER INDUSTRIA E COMERCIO D                                        0000000003300000000000000000000000000000910265830000008000000000005732501     201211222012102400000000055250000828588000000000828588000000000000000000000000000000050000000000  3020121122   01FS        1                                                                                   3915298380000000281980010469                                                  N                     01321  0000000        000163
12062539994000176LEALFER INDUSTRIA E COMERCIO D                                        0000000003300000000000000000000000000000910265810000001000000000005732503     201301172012102400000000055810000828586000000000828586000000000000000000000000000000050000000000  3020130117   01FS        1                                                                                   3915298380000000287610010449                                                  N                     01321  0000000        000164
12062944582000111AS SOLUCOES COMERCIAL LTDA                                            00000000001000000000000000000000000000008904571100000032079500016984 A        201210242012092700000000054960000033600000000000033795000000000000000000000000000234050000000000  3020121029   06          3                                                                                   3529483207951190000690001719                                                  N                     01321  0000000        000165
12063076863000243CASARINI EQPTOS INDUSTRIAIS LT                                        0000000034100000000000000000000000000000890457060000002434590370003373        201210232012092500000000054950000052800000000000052800000000000000000000000000000000050000000000  3020121023   06          3                                                                                   3112434590371006550395500089                                                  N                     01321  0000000        000166
12064952757000168WALMAC COM DE PROD QUIMICOS LT                                        0000000034100000000000000000000000000000860403440000002275821690020148        201210262012080300000000054980000219266000000000221421000000000000000000000000002155050000000000  3020121031   01          2                                                                                   3112275821695064807961400019                                                  N                     01321  0000000        000167
12064952757000168WALMAC COM DE PROD QUIMICOS LT                                        0000000034100000000000000000000000000000860403450000002275821700020148        201210052012080300000000054770000219267000000000230473000000000000000000000000011206050000000000  3020121031   01          2                                                                                   3112275821703064807961400029                                                  N                     01321  0000000        000168
12066841552000130R V SEG PATRIMONIAL S C LTDA                                          00000000341000000000000000000000000000008887329800000090002213622136          201210102012091100000000054820000374758000000000377383000000000000000000000000002625050000000000  3020121031   01          2                                                                                   3109000221365001838994000069                                                  N                     01321  0000000        000169
12066841552000130R V SEG PATRIMONIAL LTDA                                              00000000341000000000000000000000000000008852483200000090002192721927          201209102012081000000000054520000483241000000000491452000000000000000000000000008211050000000000  3020121031   01          2                                                                                   3109000219270001835253400099                                                  N                     01321  0000000        000170
12069284248000128ISOCOAT TINTAS E VERNIZES LTDA                                        0000000034100000000000000000000000000000841061040000002182507930052085        201209172012070200000000054590000236130000000000263850000000000000000000000000027720050000000000  3020121031   01          2                                                                                   3112182507932077430121200019                                                  N                     01321  0000000        000171
12075483040000130REX MAQUINAS E EQUIPAMENTOS LT                                        0000000023702656500000000000701 000000008729529900202248000040681776 2 2      201210262012083100000000054980000434000000000000437615000000000000000000000000003615050000000000  3020121031   01          2  RUA  GANGES  528                                                                 3                         000000000000000                                     N                     00598  0000000        000172
12075483040000130REX MAQUINAS E EQUIPAMENTOS LT                                        0000000023702656500000000000701 000000009066627000202298000042186530 2 1      201211202012102300000000055230000564200000000000564200000000000000000000000000000000050000000000  3020121120   05          3  RUA  GANGES  528                                                                 3                         000000000000000                                     N                     00598  0000000        000173
12075483040000130REX MAQUINAS E EQUIPAMENTOS LT                                        0000000023702656500000000000701 000000009066627100202298000042286530 2 2      201212182012102300000000055510000434000000000000434000000000000000000000000000000000050000000000  3020121218   05          3  RUA  GANGES  528                                                                 3                         000000000000000                                     N                     00598  0000000        000174
12075483040000130REX MAQUINAS E EQUIPAMENTOS LT                                        0000000023702656500000000000701 000000009066627200202298000042386530 2 3      201301152012102300000000055790000434000000000000434000000000000000000000000000000000050000000000  3020130115   05          3  RUA  GANGES  528                                                                 3                         000000000000000                                     N                     00598  0000000        000175
12096500087000135WORKBENCH CONSULTORIA S S LTDA                                        0000000034100000000000000000000000000000878205840000007940034283118           201209272012090300000000054690000131746000000000140552000000000000000000000000008806050000000000  3020121031   01          2                                                                                   3157940034289826313803700089                                                  N                     01321  0000000        000176
900017700000000075823003                                                                                                                                                                                                                                                                                                                                                                                                                                                                01321  0000000        000177
