0000147602043799295000110ALTAMIRA IND METALURGICA LTDA           20100545000002012103115091100000        2    230A                                                                                          000000000000000                                                                                                                                                                                                                                                                                   000001
12043799295000110ALTAMIRA INDUSTRIA METAL LTDA RUA  GANGES  528                        0344503034100467 00000000209128 I000000000010111000000000000000               201210310000000000000000000000000000000000000000500000000000000000000000000000000000050000000001  0820121031   01HA        0001530                                                                             3D0000000101                             0001                                 S                     00000  0020256        000002
12043799295000110ALTAMIRA INDUSTRIA METAL LTDA RUA  GANGES  528                        0344503003303809500000130004071 I000000000010112000000000000000               201210310000000000000000000000000000000000000002000000000000000000000000000000000000040000000002  0820121031   01HA        0001530                                                                             3D0000000101                             0002                                 S                     00000  0020256        000003
11010982138000066FLAVIO DOS SANTOS MIRANDA     RUA  GANGES  528                        0344503003303809 00000010000908 I000000000010113000000000000000               201210310000000000000000000000000000000000000001000000000000000000000000000000000000010000000003  0820121031   01HA        0001530                                                                             3C0000000101                             0003                                 N                     00000  0020256        000004
11010309848000083CELSO DOS SANTOS MIIRANDA     RUA  GANGES  528                        0344503003303809 00000010002924 I000000000010114000000000000000               201210310000000000000000000000000000000000000001000000000000000000000000000000000000050000000004  0820121031   01HA        0001530                                                                             3C0000000101                             0004                                 N                     00000  0020256        000005
12001185209000130DIREX ASSESSORIA COM EXT LTDA AV GUILHERME GIORGI  311                0342200000101192400000000513199 I000000000010115000000000000000               201210310000000000000000000000000000000000000000320000000000000000000000000000000000050000000005  0820121031   01HA        0001530                                                                             3C0000000101                             0005                                 N                     00000  0020256        000006
900000700000000004820000                                                                                                                                                                                    000000000000000                                                                                                                                                                                                                                                    00000500000000000000000        000007
