0000147602043799295000110ALTAMIRA INDUSTRIA METALURGICA LT       202000000427120121031155012             2                                                                                                  000000000000000                                                                                                                                                                                                                                                                                   000001
12043799295000110ALTAMIRA INDUSTRIA METAL LTDA                                         0000000034100467 00000000209128 I000000000010111000000000000000               201210310000000000000000000000000000000000000000500000000000000000000000000000000000050000000001  0820121031   01HF        5001547000000009702309000000000000000                                               3D0000000101                               01                                 S                     01133 10020256        000002
12043799295000110ALTAMIRA INDUSTRIA METAL LTDA                                         0000000003303809500000130004071 I000000000010112000000000000000               201210310000000000000000000000000000000000000002000000000000000000000000000000000000040000000002  0820121031   01HF        5001547000000007202309000000000000000                                               3D0000000101                               02                                 S                     01133 10020256        000003
11010982138000066FLAVIO DOS SANTOS MIRANDA                                             0000000003303809 00000010000908 I000000000010113000000000000000               201210310000000000000000000000000000000000000001000000000000000000000000000000000000010000000003  0820121031   01HF        5001547000000009202309000000000000000                                               3C0000000101                               03                                 N                     01076 10020256        000004
11010309848000083CELSO DOS SANTOS MIIRANDA                                             0000000003303809 00000010002924 I000000000010114000000000000000               201210310000000000000000000000000000000000000001000000000000000000000000000000000000050000000004  0820121031   01HF        5001547000000008202309000000000000000                                               3C0000000101                               04                                 N                     01076 10020256        000005
12001185209000130DIREX ASSESSORIA COM EXT LTDA                                         0000000000101192400000000513199 I000000000010115000000000000000               201210310000000000000000000000000000000000000000320000000000000000000000000000000000050000000005  0820121031   01HF        5001547000000010022309000000000000000                                               3C0000000101                               05                                 N                     01076 10020256        000006
900000700000000004820000                                                                                                                                                                                    000000000000000                                                                                                                                                                                                                                                    00000500000000000000000        000007
