0000147602043799295000110ALTAMIRA IND METALURGICA LTDA           20100546000002012103116190200000        2    230A                                                                                          000000000000000                                                                                                                                                                                                                                                                                   000001
12007068566000102NIVEL EMPREGOS LTDA           AV CELSO GARCIA 3830                    0306400023700097300000003053792 I000000000010116000000000000000               201210310000000000000000000000000000000000000000567254000000000000000000000000000000010000002789  0120121031   01HA        000                                                                                 3                                        002789                               N                     00000 10020256        000002
900000300000000000567254                                                                                                                                                                                    000000000000000                                                                                                                                                                                                                                                    00000100000000000000000        000003
