00009960204379929500011000001201209062ALTAMIRA INDUSTRIA METALURGICA LTDA     318054200                                                                                                                                                                                                                                                                                                                                                                                                                                                                                                                                                                                                                                                                                                                                                                                                                                            0000000000                                                                                     000001
100099602043799295000110002592012090600604379929500012012090600003I858800000060962023920120906207059377931494982012090600000000006096233936070500202568S000OK                                                                              303393AG.EMP.TATUAPE                          201209060000000000609620000000000609620000000000000000000000000000000000000000000000000FGTS-GRRF                               IDENTIFICADOR          705937793149498084637215000000001                                                                                                                   00000000000000000000000000000000000000000  000000000000                                                                                                                                                                                                           00204C                                                        62        1                                         I00000000000182401235253303333553343312303 000003
100099602043799295000110002592012090600604379929500012012090600004I858600000109183023920120906206934762726875272012090600000000010918333936070500202568S000OK                                                                              303393AG.EMP.TATUAPE                          201209060000000001091830000000001091830000000000000000000000000000000000000000000000000FGTS-GRRF                               IDENTIFICADOR          693476272687527084637216000000001                                                                                                                   00000000000000000000000000000000000000000  000000000000                                                                                                                                                                                                           00204C                                                        62        1                                         I00000000000182583157175585555775545531585 000004
100099602043799295000110002592012090600604379929500012012090600001I858200000001018017912090754805004379929500012012090600000000000101833936070500202568S000OK                                                                              303393AG.EMP.TATUAPE                          201209070000000000010180000000000010180000000000000000000000000000000000000000000000000FGTS                                    IDENTIF. EMPRESA       437992950001   084637213000000001                                                                                                                   00000000000000000000000000000000000000000  000000000000                                                                                                                                                                                                           00204C                                                        62        1                                         I00000000000182674621612272222112242246272 000005
100099602043799295000110002592012090600604379929500012012090600006I858900001026238017912090754805084379929500012012090600000000102623833936070500202568S000OK                                                                              303393AG.EMP.TATUAPE                          201209070000000010262380000000010262380000000000000000000000000000000000000000000000000FGTS                                    IDENTIF. EMPRESA       437992950001   084637218000000001                                                                                                                   00000000000000000000000000000000000000000  000000000000                                                                                                                                                                                                           00204C                                                        62        1                                         I00000000000182747590509949999009949975949 000006
100099602043799295000110002592012090600604379929500012012090600005I858900000443727017912090754805081352949500012012090600000000044372733936070500202568S000OK                                                                              303393AG.EMP.TATUAPE                          201209070000000004437270000000004437270000000000000000000000000000000000000000000000000FGTS                                    IDENTIF. EMPRESA       135294950001   084637217000000001                                                                                                                   00000000000000000000000000000000000000000  000000000000                                                                                                                                                                                                           00204C                                                        62        1                                         I00000000000182865379397767777997747753767 000007
100099602043799295000110002592012090600604379929500012012090600002I858000000060940023920120906207060110372327602012090600000000006094033936070500202568S000OK                                                                              303393AG.EMP.TATUAPE                          201209060000000000609400000000000609400000000000000000000000000000000000000000000000000FGTS-GRRF                               IDENTIFICADOR          706011037232760084637214000000001                                                                                                                   00000000000000000000000000000000000000000  000000000000                                                                                                                                                                                                           00204C                                                        62        1                                         I00000000000182392413431191111331141124191 000002
900099602043799295000110000012012090600000800000000001702068                                                                                                                                                                                                                                                                                                                                                                                                                                                                                                                                                                                                                                                                                                                                                                                                                                                                       0000000000                                                                                     000008
