00009960204379929500011000001201301072ALTAMIRA INDUSTRIA METALURGICA LTDA     317121100                                                                                                                                                                                                                                                                                                                                                                                                                                                                                                                                                                                                                                                                                                                                                                                                                                            0000000000                                                                                     000001
100099602043799295000110004022013010700604379929500012013010700001I858600000001613017913010755205004379929500012013010700000000000161333936070500202568S000OK                                                                              303393AG.EMP.TATUAPE                          201301070000000000016130000000000016130000000000000000000000000000000000000000000000000FGTS                                    IDENTIF. EMPRESA       437992950001   015695905000000001                                                                                                                   00000000000000000000000000000000000000000  000000000000                                                                                                                                                                                                           00204C                                                        62        1                                         I00000000000204454824642252222112242248272 000002
900099602043799295000110000012013010700000300000000000001613                                                                                                                                                                                                                                                                                                                                                                                                                                                                                                                                                                                                                                                                                                                                                                                                                                                                       0000000000                                                                                     000003
