00009960204379929500011000001201211072ALTAMIRA INDUSTRIA METALURGICA LTDA     317063500                                                                                                                                                                                                                                                                                                                                                                                                                                                                                                                                                                                                                                                                                                                                                                                                                                            0000000000                                                                                     000001
100099602043799295000110002762012110700604379929500012012110700002I858300000964397017912110755005084379929500012012110700000000096439733936070500202568S000OK                                                                              303393AG.EMP.TATUAPE                          201211070000000009643970000000009643970000000000000000000000000000000000000000000000000FGTS                                    IDENTIF. EMPRESA       437992950001   000216135000000001                                                                                                                   00000000000000000000000000000000000000000  000000000000                                                                                                                                                                                                           00204C                                                        62        1                                         I00000000000193072422421171111331141124291 000002
100099602043799295000110002762012110700604379929500012012110700001I858800000001018017912110755005004379929500012012110700000000000101833936070500202568S000OK                                                                              303393AG.EMP.TATUAPE                          201211070000000000010180000000000010180000000000000000000000000000000000000000000000000FGTS                                    IDENTIF. EMPRESA       437992950001   000216134000000001                                                                                                                   00000000000000000000000000000000000000000  000000000000                                                                                                                                                                                                           00204C                                                        62        1                                         I00000000000193154644642252222112242246472 000003
900099602043799295000110000012012110700000400000000000965415                                                                                                                                                                                                                                                                                                                                                                                                                                                                                                                                                                                                                                                                                                                                                                                                                                                                       0000000000                                                                                     000004
