00009960204379929500011000001201211092ALTAMIRA INDUSTRIA METALURGICA LTDA     318054600                                                                                                                                                                                                                                                                                                                                                                                                                                                                                                                                                                                                                                                                                                                                                                                                                                            0000000000                                                                                     000001
100099602043799295000110002772012110900604379929500012012110900003I816000000021512000033705536600834213940100252012110900000000002151233936070500202568S000OK                                                                              103393AG.EMP.TATUAPE                          201211090000000000215120000000000215120000000000000000000000000000000000000000000000033IPTU-DEMAIS PARCELAS                    N.CONTRIBUINTE         05536600834    001097117201200011                                                                                                                   00000000000000000000000000000000000000000  000000000000                                                                                                                                                                                                           00204C                                                        62        1                                         I00000000000193251211213353333553343312103 000002
100099602043799295000110002772012110900604379929500012012110900002I816100000021511000033705536600842213940100252012110900000000002151133936070500202568S000OK                                                                              103393AG.EMP.TATUAPE                          201211090000000000215110000000000215110000000000000000000000000000000000000000000000033IPTU-DEMAIS PARCELAS                    N.CONTRIBUINTE         05536600842    001097116201200011                                                                                                                   00000000000000000000000000000000000000000  000000000000                                                                                                                                                                                                           00204C                                                        62        1                                         I00000000000193332422421131111331141124291 000003
100099602043799295000110002772012110900604379929500012012110900001I816800000013422000033705536600303213940100252012110900000000001342233936070500202568S000OK                                                                              103393AG.EMP.TATUAPE                          201211090000000000134220000000000134220000000000000000000000000000000000000000000000033IPTU-DEMAIS PARCELAS                    N.CONTRIBUINTE         05536600303    001097115201200011                                                                                                                   00000000000000000000000000000000000000000  000000000000                                                                                                                                                                                                           00204C                                                        62        1                                         I00000000000193414644642212222112242246472 000004
100099602043799295000110002772012110900604379929500012012110900006I816700000046658000033505536600151213940100412012110900000000004665833936070500202568S000OK                                                                              103393AG.EMP.TATUAPE                          201211090000000000466580000000000466580000000000000000000000000000000000000000000000033IPTU-DEMAIS PARCELAS                    N.CONTRIBUINTE         05536600151    001097120201200011                                                                                                                   00000000000000000000000000000000000000000  000000000000                                                                                                                                                                                                           00204C                                                        62        1                                         I00000000000193507577579909999009949975749 000005
100099602043799295000110002772012110900604379929500012012110900005I816000000027224000033505536600834214150160432012110900000000002722433936070500202568S000OK                                                                              103393AG.EMP.TATUAPE                          201211300000000000272240000000000272240000000000000000000000000000000000000000000000033IPTU-DEMAIS PARCELAS                    N.CONTRIBUINTE         05536600834    001097119201206011                                                                                                                   00000000000000000000000000000000000000000  000000000000                                                                                                                                                                                                           00204C                                                        62        1                                         I00000000000193695355357797777997747753567 000006
100099602043799295000110002772012110900604379929500012012110900004I816100000027223000033505536600842214150160432012110900000000002722333936070500202568S000OK                                                                              103393AG.EMP.TATUAPE                          201211300000000000272230000000000272230000000000000000000000000000000000000000000000033IPTU-DEMAIS PARCELAS                    N.CONTRIBUINTE         05536600842    001097118201206011                                                                                                                   00000000000000000000000000000000000000000  000000000000                                                                                                                                                                                                           00204C                                                        62        1                                         I00000000000193773133135575555775545531385 000007
100099602043799295000110002772012110900604379929500012012110900007I816000000269640000033505536600850213940100412012110900000000026964033936070500202568S000OK                                                                              103393AG.EMP.TATUAPE                          201211090000000002696400000000002696400000000000000000000000000000000000000000000000033IPTU-DEMAIS PARCELAS                    N.CONTRIBUINTE         05536600850    001097141201200011                                                                                                                   00000000000000000000000000000000000000000  000000000000                                                                                                                                                                                                           00204C                                                        62        1                                         I00000000000193989799790080000880040097920 000008
100099602043799295000110002772012110900604379929500012012110900008I848900000515787008915732799999958063170217242012110900000000051578733936070500202568S000OK                                                                              203393AG.EMP.TATUAPE                          000101010000000005157870000000005157870000000000000000000000000000000000000000000000000TELEFONE                                REFERENCIA             157327999999580001097142000000001                                                                                                                   00000000000000000000000000000000000000000  000000000000                                                                                                                                                                                                           00204C                                                        62        1                                         I00000000000194060900908868888668848809018 000009
900099602043799295000110000012012110900001000000000000942977                                                                                                                                                                                                                                                                                                                                                                                                                                                                                                                                                                                                                                                                                                                                                                                                                                                                       0000000000                                                                                     000010
