00009960204379929500011000001201208092ALTAMIRA INDUSTRIA METALURGICA LTDA     319070100                                                                                                                                                                                                                                                                                                                                                                                                                                                                                                                                                                                                                                                                                                                                                                                                                                            0000000000                                                                                     000001
100099602043799295000110002522012080900604379929500012012080900001I858400000000615017912080954705484379929500012012080900000000000061533936070500202568S000OK                                                                              303393AG.EMP.TATUAPE                          201208090000000000006150000000000006150000000000000000000000000000000000000000000000000FGTS                                    IDENTIF. EMPRESA       437992950001   077961390000000001                                                                                                                   00000000000000000000000000000000000000000  000000000000                                                                                                                                                                                                           00204C                                                        62        1                                         I00000000000177114623632212222112242246272 000002
100099602043799295000110002522012080900604379929500012012080900002I848000000100517008905258599999980389233716492012080900000000010051733936070500202568S000OK                                                                              203393AG.EMP.TATUAPE                          000101010000000001005170000000001005170000000000000000000000000000000000000000000000000TELEFONE                                REFERENCIA             052585999999803077961391000000001                                                                                                                   00000000000000000000000000000000000000000  000000000000                                                                                                                                                                                                           00204C                                                        62        1                                         I00000000000177232415451131111331141124191 000003
900099602043799295000110000012012080900000400000000000101132                                                                                                                                                                                                                                                                                                                                                                                                                                                                                                                                                                                                                                                                                                                                                                                                                                                                       0000000000                                                                                     000004
