00009960204379929500011000001201210102ALTAMIRA INDUSTRIA METALURGICA LTDA     318064200                                                                                                                                                                                                                                                                                                                                                                                                                                                                                                                                                                                                                                                                                                                                                                                                                                            0000000000                                                                                     000001
100099602043799295000110002692012101000604379929500012012101000009I846500000032771025120121010003000001884367102012101000000000003277133936070500202568S000OK                                                                              203393AG.EMP.TATUAPE                          000101010000000000327710000000000327710000000000000000000000000000000000000000000000000TV ASSINATURA                           CODIGO                 000188436710   093685974000000001                                                                                                                   00000000000000000000000000000000000000000  000000000000                                                                                                                                                                                                           00204C                                                        62        1                                         I00000000000188268086068866666446646680836 000002
100099602043799295000110002692012101000604379929500012012101000008I816600000013860000055201210100200000826248392012101000000000001386033936070500202568S000OK                                                                              303393AG.EMP.TATUAPE                          201210100000000000138600000000000138600000000000000000000000000000000000000000000000055ISS/TFE/TFA/TLIF                        REFERENCIA             000008262483   093685973000000001                                                                                                                   00000000000000000000000000000000000000000  000000000000                                                                                                                                                                                                           00204C                                                        62        1                                         I00000000000188380908980088888668848809018 000003
100099602043799295000110002692012101000604379929500012012101000007I816500000008715000055201210100200000820887912012101000000000000871533936070500202568S000OK                                                                              303393AG.EMP.TATUAPE                          201210100000000000087150000000000087150000000000000000000000000000000000000000000000055ISS/TFE/TFA/TLIF                        REFERENCIA             000008208879   093685972000000001                                                                                                                   00000000000000000000000000000000000000000  000000000000                                                                                                                                                                                                           00204C                                                        62        1                                         I00000000000188409790709900000880040097920 000004
100099602043799295000110002692012101000604379929500012012101000006I816200000008297000055201210100200000825510252012101000000000000829733936070500202568S000OK                                                                              303393AG.EMP.TATUAPE                          201210100000000000082970000000000082970000000000000000000000000000000000000000000000055ISS/TFE/TFA/TLIF                        REFERENCIA             000008255102   093685971000000001                                                                                                                   00000000000000000000000000000000000000000  000000000000                                                                                                                                                                                                           00204C                                                        62        1                                         I00000000000188597579597799999009949975749 000005
100099602043799295000110002692012101000604379929500012012101000005I816600000007000000055201210100200000821225232012101000000000000700033936070500202568S000OK                                                                              303393AG.EMP.TATUAPE                          201210100000000000070000000000000070000000000000000000000000000000000000000000000000055ISS/TFE/TFA/TLIF                        REFERENCIA             000008212252   093685970000000001                                                                                                                   00000000000000000000000000000000000000000  000000000000                                                                                                                                                                                                           00204C                                                        62        1                                         I00000000000188675357375577777997747753567 000006
100099602043799295000110002692012101000604379929500012012101000004I816100000002800000055201210100200000819715002012101000000000000280033936070500202568S000OK                                                                              303393AG.EMP.TATUAPE                          201210100000000000028000000000000028000000000000000000000000000000000000000000000000055ISS/TFE/TFA/TLIF                        REFERENCIA             000008197150   093685969000000001                                                                                                                   00000000000000000000000000000000000000000  000000000000                                                                                                                                                                                                           00204C                                                        62        1                                         I00000000000188753135153355555775545531385 000007
100099602043799295000110002692012101000604379929500012012101000003I816500000002748000055201210100200000823130942012101000000000000274833936070500202568S000OK                                                                              303393AG.EMP.TATUAPE                          201210100000000000027480000000000027480000000000000000000000000000000000000000000000055ISS/TFE/TFA/TLIF                        REFERENCIA             000008231309   093685968000000001                                                                                                                   00000000000000000000000000000000000000000  000000000000                                                                                                                                                                                                           00204C                                                        62        1                                         I00000000000188831213231133333553343312103 000008
100099602043799295000110002692012101000604379929500012012101000002I816300000002279000055201210100200000826586602012101000000000000227933936070500202568S000OK                                                                              303393AG.EMP.TATUAPE                          201210100000000000022790000000000022790000000000000000000000000000000000000000000000055ISS/TFE/TFA/TLIF                        REFERENCIA             000008265866   093685967000000001                                                                                                                   00000000000000000000000000000000000000000  000000000000                                                                                                                                                                                                           00204C                                                        62        1                                         I00000000000188912421412211111331141124291 000009
100099602043799295000110002692012101000604379929500012012101000001I816600000000337000055201210100200000825491102012101000000000000033733936070500202568S000OK                                                                              303393AG.EMP.TATUAPE                          201210100000000000003370000000000003370000000000000000000000000000000000000000000000055ISS/TFE/TFA/TLIF                        REFERENCIA             000008254911   093685966000000001                                                                                                                   00000000000000000000000000000000000000000  000000000000                                                                                                                                                                                                           00204C                                                        62        1                                         I00000000000189024642624422222112242246472 000010
900099602043799295000110000012012101000001100000000000078807                                                                                                                                                                                                                                                                                                                                                                                                                                                                                                                                                                                                                                                                                                                                                                                                                                                                       0000000000                                                                                     000011
