00009960204379929500011000001201212102ALTAMIRA INDUSTRIA METALURGICA LTDA     318073300                                                                                                                                                                                                                                                                                                                                                                                                                                                                                                                                                                                                                                                                                                                                                                                                                                            0000000000                                                                                     000001
100099602043799295000110002842012121000604379929500012012121000008I816300000029065000055201212100200000874010132012121000000000002906533936070500202568S000OK                                                                              303393AG.EMP.TATUAPE                          201212100000000000290650000000000290650000000000000000000000000000000000000000000000055ISS/TFE/TFA/TLIF                        REFERENCIA             000008740101   009136492000000001                                                                                                                   00000000000000000000000000000000000000000  000000000000                                                                                                                                                                                                           00204C                                                        62        1                                         I00000000000198180909990088888668848809018 000002
100099602043799295000110002842012121000604379929500012012121000007I816500000014620000055201212100200000877131552012121000000000001462033936070500202568S000OK                                                                              303393AG.EMP.TATUAPE                          201212100000000000146200000000000146200000000000000000000000000000000000000000000000055ISS/TFE/TFA/TLIF                        REFERENCIA             000008771315   009136490000000001                                                                                                                   00000000000000000000000000000000000000000  000000000000                                                                                                                                                                                                           00204C                                                        62        1                                         I00000000000198209797779900000880040097920 000003
100099602043799295000110002842012121000604379929500012012121000006I816700000008715000055201212100200000877131202012121000000000000871533936070500202568S000OK                                                                              303393AG.EMP.TATUAPE                          201212100000000000087150000000000087150000000000000000000000000000000000000000000000055ISS/TFE/TFA/TLIF                        REFERENCIA             000008771312   009136488000000001                                                                                                                   00000000000000000000000000000000000000000  000000000000                                                                                                                                                                                                           00204C                                                        62        1                                         I00000000000198397575557799999009949975749 000004
100099602043799295000110002842012121000604379929500012012121000005I816400000007000000055201212100200000873988612012121000000000000700033936070500202568S000OK                                                                              303393AG.EMP.TATUAPE                          201212100000000000070000000000000070000000000000000000000000000000000000000000000000055ISS/TFE/TFA/TLIF                        REFERENCIA             000008739886   009136487000000001                                                                                                                   00000000000000000000000000000000000000000  000000000000                                                                                                                                                                                                           00204C                                                        62        1                                         I00000000000198475353335577777997747753567 000005
100099602043799295000110002842012121000604379929500012012121000004I816600000002800000055201212100200000870991982012121000000000000280033936070500202568S000OK                                                                              303393AG.EMP.TATUAPE                          201212100000000000028000000000000028000000000000000000000000000000000000000000000000055ISS/TFE/TFA/TLIF                        REFERENCIA             000008709919   009136485000000001                                                                                                                   00000000000000000000000000000000000000000  000000000000                                                                                                                                                                                                           00204C                                                        62        1                                         I00000000000198553131113355555775545531385 000006
100099602043799295000110002842012121000604379929500012012121000003I816700000002507000055201212100200000870771272012121000000000000250733936070500202568S000OK                                                                              303393AG.EMP.TATUAPE                          201212100000000000025070000000000025070000000000000000000000000000000000000000000000055ISS/TFE/TFA/TLIF                        REFERENCIA             000008707712   009136484000000001                                                                                                                   00000000000000000000000000000000000000000  000000000000                                                                                                                                                                                                           00204C                                                        62        1                                         I00000000000198631212221133333553343312103 000007
100099602043799295000110002842012121000604379929500012012121000002I816400000001181000055201212100200000877131122012121000000000000118133936070500202568S000OK                                                                              303393AG.EMP.TATUAPE                          201212100000000000011810000000000011810000000000000000000000000000000000000000000000055ISS/TFE/TFA/TLIF                        REFERENCIA             000008771311   009136483000000001                                                                                                                   00000000000000000000000000000000000000000  000000000000                                                                                                                                                                                                           00204C                                                        62        1                                         I00000000000198712424442211111331141124291 000008
100099602043799295000110002842012121000604379929500012012121000001I816100000000648000055201212100200000877149332012121000000000000064833936070500202568S000OK                                                                              303393AG.EMP.TATUAPE                          201212100000000000006480000000000006480000000000000000000000000000000000000000000000055ISS/TFE/TFA/TLIF                        REFERENCIA             000008771493   009136482000000001                                                                                                                   00000000000000000000000000000000000000000  000000000000                                                                                                                                                                                                           00204C                                                        62        1                                         I00000000000198824646664422222112242246472 000009
100099602043799295000110002842012121000604379929500012012121000009I846600000032087025120121210003000001919486832012121000000000003208733936070500202568S000OK                                                                              203393AG.EMP.TATUAPE                          000101010000000000320870000000000320870000000000000000000000000000000000000000000000000TV ASSINATURA                           CODIGO                 000191948683   009136493000000001                                                                                                                   00000000000000000000000000000000000000000  000000000000                                                                                                                                                                                                           00204C                                                        62        1                                         I00000000000198968080008866666446646680836 000010
900099602043799295000110000012012121000001100000000000098623                                                                                                                                                                                                                                                                                                                                                                                                                                                                                                                                                                                                                                                                                                                                                                                                                                                                       0000000000                                                                                     000011
