00009960204379929500011000001201211122ALTAMIRA INDUSTRIA METALURGICA LTDA     318083900                                                                                                                                                                                                                                                                                                                                                                                                                                                                                                                                                                                                                                                                                                                                                                                                                                            0000000000                                                                                     000001
100099602043799295000110002782012111200604379929500012012111200013I816800000262966000055201211120200000833366832012111200000000026296633936070500202568S000OK                                                                              303393AG.EMP.TATUAPE                          201211120000000002629660000000002629660000000000000000000000000000000000000000000000055ISS/TFE/TFA/TLIF                        REFERENCIA             000008333668   001742847000000001                                                                                                                   00000000000000000000000000000000000000000  000000000000                                                                                                                                                                                                           00204C                                                        62        1                                         I00000000000194111121314333550322111233312 000002
100099602043799295000110002782012111200604379929500012012111200010I816800000046512000055201211120200000843612072012111200000000004651233936070500202568S000OK                                                                              303393AG.EMP.TATUAPE                          201211120000000000465120000000000465120000000000000000000000000000000000000000000000055ISS/TFE/TFA/TLIF                        REFERENCIA             000008436120   001742844000000001                                                                                                                   00000000000000000000000000000000000000000  000000000000                                                                                                                                                                                                           00204C                                                        62        1                                         I00000000000194266686464444225488666844468 000003
100099602043799295000110002782012111200604379929500012012111200008I816800000010091000055201211120200000843968842012111200000000001009133936070500202568S000OK                                                                              303393AG.EMP.TATUAPE                          201211120000000000100910000000000100910000000000000000000000000000000000000000000000055ISS/TFE/TFA/TLIF                        REFERENCIA             000008439688   001742842000000001                                                                                                                   00000000000000000000000000000000000000000  000000000000                                                                                                                                                                                                           00204C                                                        62        1                                         I00000000000194390900900098888668848809018 000004
100099602043799295000110002782012111200604379929500012012111200007I816400000007424000055201211120200000859716612012111200000000000742433936070500202568S000OK                                                                              303393AG.EMP.TATUAPE                          201211120000000000074240000000000074240000000000000000000000000000000000000000000000055ISS/TFE/TFA/TLIF                        REFERENCIA             000008597166   001742841000000001                                                                                                                   00000000000000000000000000000000000000000  000000000000                                                                                                                                                                                                           00204C                                                        62        1                                         I00000000000194479799799970000880040097920 000005
100099602043799295000110002782012111200604379929500012012111200006I816000000007000000055201211120200000843968762012111200000000000700033936070500202568S000OK                                                                              303393AG.EMP.TATUAPE                          201211120000000000070000000000000070000000000000000000000000000000000000000000000000055ISS/TFE/TFA/TLIF                        REFERENCIA             000008439687   001742820000000001                                                                                                                   00000000000000000000000000000000000000000  000000000000                                                                                                                                                                                                           00204C                                                        62        1                                         I00000000000194557577577759999009949975749 000006
100099602043799295000110002782012111200604379929500012012111200005I816000000004040000055201211120200000859732572012111200000000000404033936070500202568S000OK                                                                              303393AG.EMP.TATUAPE                          201211120000000000040400000000000040400000000000000000000000000000000000000000000000055ISS/TFE/TFA/TLIF                        REFERENCIA             000008597325   001742819000000001                                                                                                                   00000000000000000000000000000000000000000  000000000000                                                                                                                                                                                                           00204C                                                        62        1                                         I00000000000194635355355537777997747753567 000007
100099602043799295000110002782012111200604379929500012012111200004I816600000003761000055201211120200000847780512012111200000000000376133936070500202568S000OK                                                                              303393AG.EMP.TATUAPE                          201211120000000000037610000000000037610000000000000000000000000000000000000000000000055ISS/TFE/TFA/TLIF                        REFERENCIA             000008477805   001742818000000001                                                                                                                   00000000000000000000000000000000000000000  000000000000                                                                                                                                                                                                           00204C                                                        62        1                                         I00000000000194713133133315555775545531385 000008
100099602043799295000110002782012111200604379929500012012111200003I816700000002800000055201211120200000829772192012111200000000000280033936070500202568S000OK                                                                              303393AG.EMP.TATUAPE                          201211120000000000028000000000000028000000000000000000000000000000000000000000000000055ISS/TFE/TFA/TLIF                        REFERENCIA             000008297721   001742817000000001                                                                                                                   00000000000000000000000000000000000000000  000000000000                                                                                                                                                                                                           00204C                                                        62        1                                         I00000000000194821211211123333553343312103 000009
100099602043799295000110002782012111200604379929500012012111200002I816300000002406000055201211120200000843612152012111200000000000240633936070500202568S000OK                                                                              303393AG.EMP.TATUAPE                          201211120000000000024060000000000024060000000000000000000000000000000000000000000000055ISS/TFE/TFA/TLIF                        REFERENCIA             000008436121   001742816000000001                                                                                                                   00000000000000000000000000000000000000000  000000000000                                                                                                                                                                                                           00204C                                                        62        1                                         I00000000000194942422422241111331141124291 000010
100099602043799295000110002782012111200604379929500012012111200001I816600000000337000055201211120200000843956752012111200000000000033733936070500202568S000OK                                                                              303393AG.EMP.TATUAPE                          201211120000000000003370000000000003370000000000000000000000000000000000000000000000055ISS/TFE/TFA/TLIF                        REFERENCIA             000008439567   001742815000000001                                                                                                                   00000000000000000000000000000000000000000  000000000000                                                                                                                                                                                                           00204C                                                        62        1                                         I00000000000195064644644462222112242246472 000011
100099602043799295000110002782012111200604379929500012012111200009I846300000032014025120121110003000001902193462012111200000000003201433936070500202568S000OK                                                                              203393AG.EMP.TATUAPE                          000101010000000000320140000000000320140000000000000000000000000000000000000000000000000TV ASSINATURA                           CODIGO                 000190219346   001742843000000001                                                                                                                   00000000000000000000000000000000000000000  000000000000                                                                                                                                                                                                           00204C                                                        62        1                                         I00000000000195108088088806666446646680836 000012
100099602043799295000110002782012111200604379929500012012111200012I848000000072414008920835599999963487556017072012111200000000007241433936070500202568S000OK                                                                              203393AG.EMP.TATUAPE                          000101010000000000724140000000000724140000000000000000000000000000000000000000000000000TELEFONE                                REFERENCIA             208355999999634001742846000000001                                                                                                                   00000000000000000000000000000000000000000  000000000000                                                                                                                                                                                                           00204C                                                        62        1                                         I00000000000195222242124111339144222411124 000013
100099602043799295000110002782012111200604379929500012012111200011I848400000070374008906482299999953905037917402012111200000000007037433936070500202568S000OK                                                                              203393AG.EMP.TATUAPE                          000101010000000000703740000000000703740000000000000000000000000000000000000000000000000TELEFONE                                REFERENCIA             064822999999539001742845000000001                                                                                                                   00000000000000000000000000000000000000000  000000000000                                                                                                                                                                                                           00204C                                                        62        1                                         I00000000000195344464244222117266444622246 000014
900099602043799295000110000012012111200001500000000000522139                                                                                                                                                                                                                                                                                                                                                                                                                                                                                                                                                                                                                                                                                                                                                                                                                                                                       0000000000                                                                                     000015
