00009960204379929500011000001201212132ALTAMIRA INDUSTRIA METALURGICA LTDA     317044400                                                                                                                                                                                                                                                                                                                                                                                                                                                                                                                                                                                                                                                                                                                                                                                                                                            0000000000                                                                                     000001
100099602043799295000110002862012121300604379929500012012121300001I848400000429241008904958899999939577164717832012121300000000042924133936070500202568S000OK                                                                              203393AG.EMP.TATUAPE                          000101010000000004292410000000004292410000000000000000000000000000000000000000000000000TELEFONE                                REFERENCIA             049588999999395010099915000000001                                                                                                                   00000000000000000000000000000000000000000  000000000000                                                                                                                                                                                                           00204C                                                        62        1                                         I00000000000199584646664482222112242246472 000002
900099602043799295000110000012012121300000300000000000429241                                                                                                                                                                                                                                                                                                                                                                                                                                                                                                                                                                                                                                                                                                                                                                                                                                                                       0000000000                                                                                     000003
