00009960204379929500011000001201208172ALTAMIRA INDUSTRIA METALURGICA LTDA     318070500                                                                                                                                                                                                                                                                                                                                                                                                                                                                                                                                                                                                                                                                                                                                                                                                                                            0000000000                                                                                     000001
100099602043799295000110002542012081700604379929500012012081700003I848000000540413008923320399999975327124316602012081700000000054041333936070500202568S000OK                                                                              203393AG.EMP.TATUAPE                          000101010000000005404130000000005404130000000000000000000000000000000000000000000000000TELEFONE                                REFERENCIA             233203999999753079946285000000001                                                                                                                   00000000000000000000000000000000000000000  000000000000                                                                                                                                                                                                           00204C                                                        62        1                                         I00000000000178891237271193333553343312303 000002
100099602043799295000110002542012081700604379929500012012081700002I826300000214487009713912013422991118444120722012081700000000021448733936070500202568S000OK                                                                              203393AG.EMP.TATUAPE                          000101010000000002144870000000002144870000000000000000000000000000000000000000000000004AGUA                                    RGI                    01342299       079946284000000001                                                                                                                   00000000000000000000000000000000000000000  000000000000                                                                                                                                                                                                           00204C                                                        62        1                                         I00000000000178972415452271111331141124191 000003
100099602043799295000110002542012081700604379929500012012081700001I826700000096914009713912013423181911457120722012081700000000009691433936070500202568S000OK                                                                              203393AG.EMP.TATUAPE                          000101010000000000969140000000000969140000000000000000000000000000000000000000000000004AGUA                                    RGI                    01342318       079946282000000001                                                                                                                   00000000000000000000000000000000000000000  000000000000                                                                                                                                                                                                           00204C                                                        62        1                                         I00000000000179054623634452222112242246272 000004
900099602043799295000110000012012081700000500000000000851814                                                                                                                                                                                                                                                                                                                                                                                                                                                                                                                                                                                                                                                                                                                                                                                                                                                                       0000000000                                                                                     000005
