00009960204379929500011000001201212182ALTAMIRA INDUSTRIA METALURGICA LTDA     318145600                                                                                                                                                                                                                                                                                                                                                                                                                                                                                                                                                                                                                                                                                                                                                                                                                                            0000000000                                                                                     000001
100099602043799295000110002882012121800604379929500012012121800001I846300000006841102911000229528550121241212182012121800000000000684133936070500202568S000OK                                                                              203393AG.EMP.TATUAPE                          000101010000000000068410000000000068410000000000000000000000000000000000000000000000000TELEFONE                                REFERENCIA             22952855       011304074000000001                                                                                                                   00000000000000000000000000000000000000000  000000000000                                                                                                                                                                                                           00204C                                                        62        1                                         I00000000000199734646664432222112242246472 000002
900099602043799295000110000012012121800000300000000000006841                                                                                                                                                                                                                                                                                                                                                                                                                                                                                                                                                                                                                                                                                                                                                                                                                                                                       0000000000                                                                                     000003
