00009960204379929500011000001201210182ALTAMIRA INDUSTRIA METALURGICA LTDA     318064700                                                                                                                                                                                                                                                                                                                                                                                                                                                                                                                                                                                                                                                                                                                                                                                                                                            0000000000                                                                                     000001
100099602043799295000110002712012101800604379929500012012101800001I846700000007219102911000229528550101211210182012101800000000000721933936070500202568S000OK                                                                              203393AG.EMP.TATUAPE                          000101010000000000072190000000000072190000000000000000000000000000000000000000000000000TELEFONE                                REFERENCIA             22952855       095507833000000001                                                                                                                   00000000000000000000000000000000000000000  000000000000                                                                                                                                                                                                           00204C                                                        62        1                                         I00000000000189234642624432222112242246472 000002
900099602043799295000110000012012101800000300000000000007219                                                                                                                                                                                                                                                                                                                                                                                                                                                                                                                                                                                                                                                                                                                                                                                                                                                                       0000000000                                                                                     000003
