00009960204379929500011000001201207272ALTAMIRA INDUSTRIA METALURGICA LTDA     317075100                                                                                                                                                                                                                                                                                                                                                                                                                                                                                                                                                                                                                                                                                                                                                                                                                                            0000000000                                                                                     000001
100099602043799295000110002492012072700604379929500012012072700001I858300000066505023920120730203340648549997242012072700000000006650533936070500202568S000OK                                                                              303393AG.EMP.TATUAPE                          201207300000000000665050000000000665050000000000000000000000000000000000000000000000000FGTS-GRRF                               IDENTIFICADOR          334064854999724074371684000000001                                                                                                                   00000000000000000000000000000000000000000  000000000000                                                                                                                                                                                                           00204C                                                        62        1                                         I00000000000176454625656652222112242246272 000002
900099602043799295000110000012012072700000300000000000066505                                                                                                                                                                                                                                                                                                                                                                                                                                                                                                                                                                                                                                                                                                                                                                                                                                                                       0000000000                                                                                     000003
