00009960204379929500011000001201208302ALTAMIRA INDUSTRIA METALURGICA LTDA     318045100                                                                                                                                                                                                                                                                                                                                                                                                                                                                                                                                                                                                                                                                                                                                                                                                                                            0000000000                                                                                     000001
100099602043799295000110002572012083000604379929500012012083000001I858200000041645023920120831206257905694110192012083000000000004164533936070500202568S000OK                                                                              303393AG.EMP.TATUAPE                          201208310000000000416450000000000416450000000000000000000000000000000000000000000000000FGTS-GRRF                               IDENTIFICADOR          625790569411019082491421000000001                                                                                                                   00000000000000000000000000000000000000000  000000000000                                                                                                                                                                                                           00204C                                                        62        1                                         I00000000000182124623638822222112242246272 000002
900099602043799295000110000012012083000000300000000000041645                                                                                                                                                                                                                                                                                                                                                                                                                                                                                                                                                                                                                                                                                                                                                                                                                                                                       0000000000                                                                                     000003
