0000147602043799295000110ALTAMIRA IND METALURGICA LTDA           201004570000020120801161205             0    230A                                                                                                                                                                                                                                                                                                                                                                                            000001
12042956441000101SOLUCOES EM ACO USIMINAS S/A. RUA. DIANOPOLIS, 670/710                0312510034100000 0000000000000  I000000000009295000000000000000               201208010000000000000000054120001141835000000001141835000000000000000000000000000000010000162395  3120120801   01          000                                                                                  181515347863293807258000019             000162395/02                                               00000  0020256        000002
12042956441000101SOLUCOES EM ACO USIMINAS S/A. RUA. DIANOPOLIS, 670/710                0312510034100000 0000000000000  I000000000009296000000000000000               201208010000000000000000054120000842049000000000842049000000000000000000000000000000010000167381  3120120801   01          000                                                                                  181515349083293807258000019             000167381/01                                               00000  0020256        000003
12006000195000156MBA MERCANTIL BRASIL.ACO LTDA.RUA. RINCAO, 220                        0365108023700118000000002128292 I000000000009297009021230000015               201208010000000000000000054120000630740000000000630740000000000000000000000000000000010000008129  3120120801   01          000                                                                                  011809212300000150212829069             008129/03                                                  00000  0020256        000004
900000500000000002614624                                                                                                                                                                                                                                                                                                                                                                                                                                                                                      000005
