0000147602043799295000110ALTAMIRA IND METALURGICA LTDA           201004580000020120802120612             0    230A                                                                                                                                                                                                                                                                                                                                                                                            000001
12043292101000196ANHEMBI IND. DE CAXIAS DE PAP.AV BENEDITO ISAAC PIRES 3605            0000000023702671900000000031364 I000000000009298000000000000000               201208020000000000000000000000000000000000000000106191000000000000000000000000000000010000012887  0120120802   01          000                                                                                                                          00NF.NRO.012887/02                                         00000 10020256        000002
900000300000000000106191                                                                                                                                                                                                                                                                                                                                                                                                                                                                                      000003
