0000147602043799295000110ALTAMIRA IND METALURGICA LTDA           201004860000020120903163157             0    230A                                                                                                                                                                                                                                                                                                                                                                                            000001
12012006058000121WEG TINTAS LTDA.              ROD. BR. 280 - KM.50 - S/N.             8927000023702727800000000001309 I000000000009700009021630000089               201209030000000000000000054450000467348000000000467348000000000000000000000000000000010000143742  3120120903   01          000                                                                                  272709216300000890000130079             000143742/03                                               00000  0020256        000002
12075483040000130REX MAQ E EQUIPAMENTOS LTDA                                           0000000023702656500000000000701 I000000000009701002021670000435               201209030000000000000000054450000437615000000000437615000000000000000000000000000000010000073762  3120120903   01          000                                                                                  265602216700004350000070019             00073762/03                                                00000  0020256        000003
12056993900000131CIA METALURGICA PRADA                                                 0000000034100000 0000000000000  I000000000009702000000000000000               201209030000000000000000054450000205064000000000205064000000000000000000000000000000010000244464  3120120903   01          000                                                                                  181533801993293800573900049             000244464/03                                               00000  0020256        000004
12001820981000186IND COM ESCADAS FORTUNATO LTDA                                        0000000034100000 0000000000000  I000000000009703000000000000000               201209030000000000000000054450000101660000000000101660000000000000000000000000000000010000002966  3120120903   01          000                                                                                  181533831630076466994100059             0002966/01                                                 00000  0020256        000005
12061217188000119TELAS METALICAS TELMETAL LTDA.RUA.ALDEIA DA PRATA, 38                 0368008000100000 0000000000000  I000000000009704000000000000000               201209030000000000000000054450000056420000000000056420000000000000000000000000000000010000005438  3120120903   01          000                                                                                  000000115031800000055771719             005438/01-03                                               00000  0020256        000006
12061217188000119TELAS METALICAS TELMETAL LTDA.RUA.ALDEIA DA PRATA, 38                 0368008000100000 0000000000000  I000000000009705000000000000000               201209030000000000000000054450000052305000000000052305000000000000000000000000000000010000005442  3120120903   01          000                                                                                  000000115031800000055831719             0005442/01-03                                              00000  0020256        000007
12061600839000155CENTRO INT.EMPRESA ESCOLA CIEERUA. TABAPUA, 0540                      0453300123703391000000000866202 I000000000009706009000003580419               201209030000000000000000054450000016965000000000016965000000000000000000000000000000010000007641  3120120903   01          000                                                                                  339109000035804190086620059             007641/C-0001                                              00000  0020256        000008
900000900000000001337377                                                                                                                                                                                                                                                                                                                                                                                                                                                                                      000009
