0000147602043799295000110ALTAMIRA IND METALURGICA LTDA           201004890000020120905144633             0    230A                                                                                                                                                                                                                                                                                                                                                                                            000001
12043799295000110ALTAMIRA INDUSTRIA METAL.LTDA.RUA. GANGES, 528                        0344503039900198 000000000096330I000000000009718000000000000000               201209050000000000000000000000000000000000000000500000000000000000000000000000000000050000000001  0820120905   01          0001530                                                                              D0000000101                             0001                                                       00000  0020256        000002
900000300000000000500000                                                                                                                                                                                                                                                                                                                                                                                                                                                                                      000003
