0000147602043799295000110ALTAMIRA IND METALURGICA LTDA           201005510000020121106095826             0    230A                                                                                                                                                                                                                                                                                                                                                                                            000001
12043799295000110ALTAMIRA INDUSTRIA METAL.LTDA.RUA. GANGES, 528                        0344503003303809500000130004071 I000000000010126000000000000000               201211060000000000000000000000000000000000000004000000000000000000000000000000000000050000000001  0820121106   01          0001030                                                                              D0000000101                             0001                                                       00000  0020256        000002
900000300000000004000000                                                                                                                                                                                                                                                                                                                                                                                                                                                                                      000003
