0000147602043799295000110ALTAMIRA IND METALURGICA LTDA           201006020000020130107150811             0    230A                                                                                                                                                                                                                                                                                                                                                                                            000001
12043799295000110ALTAMIRA INDUSTRIA METAL.LTDA.RUA. GANGES, 528                        0344503034100467 00000000209128 I000000000010374000000000000000               201301070000000000000000000000000000000000000001300000000000000000000000000000000000050000000001  0820130107   01          0001600                                                                              D0000000101                             0001                                                       00000  0020256        000002
900000300000000001300000                                                                                                                                                                                                                                                                                                                                                                                                                                                                                      000003
