0000147602043799295000110ALTAMIRA IND METALURGICA LTDA           201005530000020121107102159             0    230A                                                                                                                                                                                                                                                                                                                                                                                            000001
12043799295000110ALTAMIRA INDUSTRIA METAL.LTDA.RUA. GANGES, 528                        0344503003303809500000130004071 I000000000010158000000000000000               201211070000000000000000000000000000000000000004800000000000000000000000000000000000050000000001  0820121107   01          0001050                                                                              D0000000101                             0001                                                       00000  0020256        000002
900000300000000004800000                                                                                                                                                                                                                                                                                                                                                                                                                                                                                      000003
