0000147602043799295000110ALTAMIRA IND METALURGICA LTDA           201004610000020120807172628             0    230A                                                                                                                                                                                                                                                                                                                                                                                            000001
12000676486000182FEDERAL EXPRESS CORPORATION                                           0000000023703381200000001001191 00000000850740400090000022232772223277        201208070000000000000000054180000003611000000000003611000000000000000000000000000000050000000000  3020120807   01          500RUA TAMAINDE 1410                                                                 010000                   00000000000000000REF.2223277 - AMOSTRAS PISO ELETRO                       00598  0020256        000002
12053585766000575MULTIACOS IND.COM.PROD.LTDA.  AV.PAPA JOAO XXIII, 1460 - A            0937080000100000 0000000000000  I000000000009370000000000000000               201208070000000000000000054180000418110000000000418110000000000000000000000000000000010000042703  3120120807   01          000                                                                                  043886823881912000139523119             00042703/02                                                00000  0020256        000003
12066899790000105FAB.ART.DE LATEX ESTR.EP.LTDA.ROD.QUINTINO DE LIMA KM.08              1813000039900000 0000000000000  I000000000009371000000000000000               201208070000000000000000054180000372590000000000372590000000000000000000000000000000010000071065  3120120807   01          000                                                                                  175368007861125027292500169             00071065/02                                                00000  0020256        000004
12053585766000575MULTIACOS IND.COM.PROD.LTDA.  AV.PAPA JOAO XXIII, 1460 - A            0937080000100000 0000000000000  I000000000009372000000000000000               201208070000000000000000054180000324352000000000324352000000000000000000000000000000010000042702  3120120807   01          000                                                                                  043886823861912000139523119             00042702/001                                               00000  0020256        000005
12066899790000105FAB.ART.DE LATEX ESTR.EP.LTDA.ROD.QUINTINO DE LIMA KM.08              1813000039900000 0000000000000  I000000000009373000000000000000               201208070000000000000000054180000217723000000000217723000000000000000000000000000000010000070105  3120120807   01          000                                                                                  175283882721125027292500169             00070105/03                                                00000  0020256        000006
12057158057000130COMERCIAL ELETRICA. PJ . LTDA.RUA. MERGENTHALER, 192 - A              0531103023703394400000000972983 I000000000009374000000000000000               201208070000000000000000000000000000000000000000080774000000000000000000000000000000010000305028  0120120807   01          000                                                                                                                          000305028/A.                                               00000 10020256        000007
12061217188000119TELAS METALICAS TELMETAL LTDA.RUA.ALDEIA DA PRATA, 38                 0368008000100000 0000000000000  I000000000009375000000000000000               201208070000000000000000054180000070665000000000070665000000000000000000000000000000010000005262  3120120807   01          000                                                                                  000000115031800000054521789             005262/01-01.                                              00000  0020256        000008
12061217188000119TELAS METALICAS TELMETAL LTDA.RUA.ALDEIA DA PRATA, 38                 0368008000100000 0000000000000  I000000000009376000000000000000               201208070000000000000000054180000043456000000000043456000000000000000000000000000000010000005227  3120120807   01          000                                                                                  000000115031800000054241779             0005227/03-03                                              00000  0020256        000009
12061217188000119TELAS METALICAS TELMETAL LTDA.RUA.ALDEIA DA PRATA, 38                 0368008000100000 0000000000000  I000000000009377000000000000000               201208070000000000000000054180000007522000000000007522000000000000000000000000000000010000005226  3120120807   01          000                                                                                  000000115031800000054211799             0005226/03-03                                              00000  0020256        000010
12002503185000182ANDAIMES MAQUINAS BIG LTDA    AV.PROF.LUIZ ANHAIA MELLO, 600          0315410034100000 0000000000000  I000000000009378000000000000000               201208070000000000000000054180000012288000000000012288000000000000000000000000000000010000011381  3120120807   01          000                                                                                  181518339828925303435000039             00011381/01                                                00000  0020256        000011
12061217188000119TELAS METALICAS TELMETAL LTDA.RUA.ALDEIA DA PRATA, 38                 0368008034100000 0000000000000  I000000000009379000000000000000               201208070000000000000000054180000005123000000000005123000000000000000000000000000000010000005223  3120120807   01          000                                                                                  181518338183077098123100059             005223/03-03                                               00000  0020256        000012
12042956441000101SOLUCOES EM ACO USIMINAS S/A. RUA. DIANOPOLIS, 670/710                0312510034100000 0000000000000  I000000000009380000000000000000               201208070000000000000000054180000455769000000000455769000000000000000000000000000000010000163992  3120120807   01          000                                                                                  181518740320293807258000089             000163992/02                                               00000  0020256        000013
12042956441000101SOLUCOES EM ACO USIMINAS S/A. RUA. DIANOPOLIS, 670/710                0312510034100000 0000000000000  I000000000009381000000000000000               201208070000000000000000054180000205503000000000205503000000000000000000000000000000010000163990  3120120807   01          000                                                                                  181518743225293807258000029             000163990/02                                               00000  0020256        000014
12042956441000101SOLUCOES EM ACO USIMINAS S/A. RUA. DIANOPOLIS, 670/710                0312510034100000 0000000000000  I000000000009382000000000000000               201208070000000000000000054180000535893000000000535893000000000000000000000000000000010000158534  3120120807   01          000                                                                                  181518745725293807258000019             000158534/03                                               00000  0020256        000015
12042956441000101SOLUCOES EM ACO USIMINAS S/A. RUA. DIANOPOLIS, 670/710                0312510034100000 0000000000000  I000000000009383000000000000000               201208070000000000000000054180000103766000000000103766000000000000000000000000000000010000237166  3120120807   01          000                                                                                  181518747468293800573900099             000237166/03                                               00000  0020256        000016
900001700000000002857145                                                                                                                                                                                                                                                                                                                                                                                                                                                                                      000017
