0000147602043799295000110ALTAMIRA IND METALURGICA LTDA           201005550000020121107164723             0    230A                                                                                                                                                                                                                                                                                                                                                                                            000001
12042956441000101SOLUCOES ACO USIMINAS                                                 0000000034100000000000000000000000000000847452080000002216130360017012403     201211070000000000000000055100000147427000000000147427000000000000000000000000000000050000000000  3020121107   01          500                                                                                  112216130362293807258000019010000       00170124/03                                                01321  0020256        000002
12005852768000107DAOUD LEAL ELETRONICA LTDA ME                                         000000003410000000000000000000000000000089337382000000615297518OUTUBRO        201210260000000000000000054980000016558000000000017285000000000000000000000000000727050000000000  3020121107   01          500                                                                                  156152975181152944476000059010000       00REF.10/2012.                                             01321  0020256        000003
12049341563000132JAC COMERCIO DE MATERIAIS ELET                                        00000000001000000000000000000000000000009005227500000046831400023646A         201211070000000000000000055100000009065000000000009065000000000000000000000000000000050000000000  3020121107   01          500                                                                                  000000192560144144683141159010000       0023646                                                    01321  0020256        000004
12008263210000184BETA COM IMP EXP DE FERRAMENT                                         0000000034100000000000000000000000000000901454950000006154761652830A          201211070000000000000000055100000032025000000000032025000000000000000000000000000000050000000000  3020121107   01          500                                                                                  156154761650808304699800019010000       002830                                                     01321  0020256        000005
12047190731000100DE CASTRO LOUR ENG IND LTDA                                           00000000341000000000000000000000000000009041732800000025008464503027216 0     201211070000000000000000055100000225377000000000225377000000000000000000000000000000050000000000  3020121107   01          500                                                                                  112500846459036884500400049010000       00027216/01                                                01321  0020256        000006
12001951865000104FOUR FACTORING FOMENTO M LTDA                                         0000000039900000 0000000000000  I000000000010161000000000000000               201211090000000000000000055120000120000000000000120000000000000000000000000000000000040001103318  3120121107   01          000                                                                                  176310655200198000598003119             001103318                                                  00000  0020256        000007
12013656578000142GUARINOR TRANSP E LOGISTICA LT                                        0000000010400000 0000000000000  I000000000010162000000000000000               201211070000000000000000055100000028700000000000028700000000000000000000000000000000050000000018  3120121107   01          000                                                                                  900000135532958700000017339             001872/12                                                  00000  0020256        000008
12001895314000162COLETA INDUSTRIAL FIMAVAN LTDARUA. SOLEDADE. 149/197                  0722421034100000 0000000000000  I000000000010163000000000000000               201211070000000000000000055100000147301000000000147301000000000000000000000000000000010000011403  3120121107   01          000                                                                                  181575942899144604097200089             0011403                                                    00000  0020256        000009
12042956441000101SOLUCOES EM ACO USIMINAS S/A. RUA. DIANOPOLIS, 670/710                0312510034100000 0000000000000  I000000000010164000000000000000               201211070000000000000000055100000172074000000000172074000000000000000000000000000000010000059222  3120121107   01          000                                                                                  112216130370293807258000019             0059222/03                                                 00000  0020256        000010
12047190731000100DE CASTRO LOUREIRO ENGENHARIA                                         0000000003300000 0000000000000  I000000000010165000000000000000               201211070000000000000000055100000422495000000000422495000000000000000000000000000000010000026797  3120121107   01          000                                                                                  948430370000009553142010499             00026797/01                                                00000  0020256        000011
12014775592000128HELIO ADRIANO DA SILVA ME     RUA CARIUS,121                          0723003023700593200000002432943 I000000000010166000000000000000               201211070000000000000000000000000000000000000000011000000000000000000000000000000000050000001272  0120121107   01          000                                                                                                                          0001272                                                    00000 10020256        000012
12004934836000114GUAIRA MAT.P/CONSTRUCAO LTDA. AV.PARANAGUA, 406                       0380600034100000 0000000000000  I000000000010167000000000000000               201211070000000000000000055100000109920000000000109920000000000000000000000000000000010000023901  3120121107   01          000                                                                                  181575970406076568242200019             0023901                                                    00000  0020256        000013
900001400000000001442669                                                                                                                                                                                                                                                                                                                                                                                                                                                                                      000014
