0000147602043799295000110ALTAMIRA IND METALURGICA LTDA           201006070000020130111164919             0    230A                                                                                                                                                                                                                                                                                                                                                                                            000001
12062344882000160INDUSTRIA COM PARAFUS NAP LTDA                                        00000000341000000000000000000000000000009345238100000026481977212692 3        201301110000000000000000055750000096582000000000096582000000000000000000000000000000050000000000  3020130111   01          500                                                                                  112648197724482812260800039010000       0012692/03                                                 01321  0020256        000002
12011284925000128MF FERRAGENS LTDA                                                     00000000341000000000000000000000000000009373666900000026626617610043 B        201301110000000000000000055750000057500000000000057500000000000000000000000000000000050000000000  3020130111   01          500                                                                                  112662661761162659025900019010000       0010043/02                                                 01321  0020256        000003
12066084377000184AUTO MECANICA M Z LTDA ME                                             0000000023701479600000000206385 0000000094008696009013234703179380            201301110000000000000000055750000082000000000000082000000000000000000000000000000000050000000000  3020130111   01          500TAMAINDE 1410                                                                     010000                   00000000000000000380                                                      00598  0020256        000004
12071580302000124SANCHEPEL IND PAULISTA EMB L                                          0000000034100000000000000000000000000000941026010000002682557788357           201301110000000000000000055750000103500000000000103500000000000000000000000000000000050000000000  3020130111   01          500                                                                                  112682557783007855578600049010000       008357                                                     01321  0020256        000005
12002269980000158PANKRO LOGISTICA E TRANSP LTDA                                        000000003410000000000000000000000000000094102608000000708928428349 B          201301110000000000000000055750000180000000000000180000000000000000000000000000000000050000000000  3020130111   01          500                                                                                  157089284284898907620600029010000       00CONHEC.349 - PARC.02/02.                                 01321  0020256        000006
12055721609000141MAC SEG EQUIP DE SEGURANCA LT                                         0000000034100000000000000000000000000000942049600000002687798234390 1         201301110000000000000000055750000060050000000000060050000000000000000000000000000000050000000000  3020130111   01          500                                                                                  112687798234037814415800079010000       004390/01                                                  01321  0020256        000007
12042956441000101SOLUCOES ACO USIMINAS                                                 0000000034100000000000000000000000000000942049670000002689017180019514501     201301110000000000000000055750000176181000000000176181000000000000000000000000000000050000000000  3020130111   01          500                                                                                  112689017187293807258000089010000       00195145/01                                                01321  0020256        000008
12042956441000101SOLUCOES ACO USIMINAS                                                 0000000034100000000000000000000000000000942049680000002689017190019514701     201301110000000000000000055750000230375000000000230375000000000000000000000000000000050000000000  3020130111   01          500                                                                                  112689017195293807258000089010000       00195147/01                                                01321  0020256        000009
12042956441000101SOLUCOES ACO USIMINAS                                                 0000000034100000000000000000000000000000942049710000002689017200019514801     201301110000000000000000055750000485334000000000485334000000000000000000000000000000050000000000  3020130111   01          500                                                                                  112689017203293807258000019010000       00195148/01                                                01321  0020256        000010
12042956441000101SOLUCOES ACO USIMINAS                                                 0000000034100000000000000000000000000000942049720000002689017210019514901     201301110000000000000000055750000190062000000000190062000000000000000000000000000000050000000000  3020130111   01          500                                                                                  112689017211293807258000089010000       00195149/01                                                01321  0020256        000011
12035820448000136WHITE MARTINS GASES INDUSTRIAI                                        0000000023700026400000003937925 0000000094204979009023530002184423222 001     201301110000000000000000055750000243450000000000243450000000000000000000000000000000050000000000  3020130111   01          500RUA GANGES  528                                                                   010000                   00000000000000000012725                                                   00598  0020256        000012
12002234917000186RODOVIARIO SOL NASCENTE LTDA                                          000000000010000000000000000000000000000094311056000000733464000035821         201301110000000000000000055750000050900000000000050900000000000000000000000000000000050000000000  3020130111   01          500                                                                                  044327334643028000124731199010000       00CONHEC.NRO.035821                                        01321  0020256        000013
12081560047000101ACEVILLE TRANSPORTES LTDA                                             000000000330000000000000000000000000000094689879000000550000000302455         201301110000000000000000055750000058400000000000058400000000000000000000000000000000050000000000  3020130111   01          500                                                                                  913555200000003024555010179010000       00CONHECS.NROS.292017  &  292019.                          01321  0020256        000014
900001500000000002014334                                                                                                                                                                                                                                                                                                                                                                                                                                                                                      000015
