0000147602043799295000110ALTAMIRA IND METALURGICA LTDA           201004970000020120911172743             0    230A                                                                                                                                                                                                                                                                                                                                                                                            000001
12033325184001786ALSCO TOALHEIRO BRASIL LTDA.  AV.NADIR DIAS DE FIGUEIREDO, 829        0211000023703396000000001490850 I000000000009837009000002679805               201209110000000000000000054530000053220000000000053220000000000000000000000000000000010000026798  3120120911   01          000                                                                                  339609000026798050149085029             00026798/01                                                00000  0020256        000002
12004676708000118M.H.F. SISTEMAS LTDA.         RUA. UICO, 0345                         0362102034100000 0000000000000  I000000000009838000000000000000               201209110000000000000000054530000015078000000000015078000000000000000000000000000000010000018680  3120120911   01          000                                                                                  181539095043013924573200019             0018680                                                    00000  0020256        000003
12002203713000188RODRIGUES E SARAGIOTTO COM.LTDAV.JORNALISTA PAULO ZING - LT.12 - GLEBA051570302370627150000000000295P I000000000009839028022210000005               201209110000000000000000054530000017004000000000017004000000000000000000000000000000010000002991  3120120911   01          000                                                                                  627128222100000050000295019             002991                                                     00000  0020256        000004
12006000195000156MBA MERCANTIL BRASIL.ACO LTDA.RUA. RINCAO, 220                        0365108000100000 0000000000000  I000000000009840000000000000000               201209110000000000000000054530000666557000000000666557000000000000000000000000000000010000008656  3120120911   01          000                                                                                  043852571623333000105251179             008656/02                                                  00000  0020256        000005
12006000195000156MBA MERCANTIL BRASIL.ACO LTDA.RUA. RINCAO, 220                        0365108034100000 0000000000000  I000000000009841000000000000000               201209110000000000000000054530000602666000000000602666000000000000000000000000000000010000008920  3120120911   01          000                                                                                  181539114949064849251000079             008920/01                                                  00000  0020256        000006
12033325184001786ALSCO TOALHEIRO BRASIL LTDA.  AV.NADIR DIAS DE FIGUEIREDO, 829        0211000023703396000000001490850 I000000000009842009000028519503               201209110000000000000000054530000026503000000000026503000000000000000000000000000000010000285195  3120120911   01          000                                                                                  339609000285195030149085049             00285195                                                   00000  0020256        000007
12033325184001786ALSCO TOALHEIRO BRASIL LTDA.  AV.NADIR DIAS DE FIGUEIREDO, 829        0211000023702374400000000144002 I000000000009843019022260000228               201209110000000000000000054530000066504000000000066504000000000000000000000000000000010005776102  3120120911   01          000                                                                                  237419222600002280014400019             005776102                                                  00000  0020256        000008
900000900000000001447532                                                                                                                                                                                                                                                                                                                                                                                                                                                                                      000009
