0000147602043799295000110ALTAMIRA IND METALURGICA LTDA           201004950000020120911112545             0    230A                                                                                                                                                                                                                                                                                                                                                                                            000001
12043799295000110ALTAMIRA INDUSTRIA METAL.LTDA.RUA. GANGES, 528                        0344503003303809500000130004071 I000000000009804000000000000000               201209110000000000000000000000000000000000000001000000000000000000000000000000000000050000000001  0820120911   01          0001200                                                                              D0000000101                             0001                                                       00000  0020256        000002
12043799295000110ALTAMIRA INDUSTRIA METAL.LTDA.RUA. GANGES, 528                        0344503065500001 00002217986012 I000000000009805000000000000000               201209110000000000000000000000000000000000000001000000000000000000000000000000000000050000000002  0820120911   01          0001200                                                                              D0000000101                             0002                                                       00000  0020256        000003
12043799295000110ALTAMIRA INDUSTRIA METAL.LTDA.RUA. GANGES, 528                        0344503000103333200000000011029 I000000000009806000000000000000               201209110000000000000000000000000000000000000000600000000000000000000000000000000000050000000003  0820120911   01          0001200                                                                              D0000000101                             0003                                                       00000  0020256        000004
12069050532000130TRIONON TRANSPORTES LTDA.     AV.CASA GRANDE, 1644                    0996135034100257 00000000296673 I000000000009807000000000000000               201209110000000000000000000000000000000000000000370000000000000000000000000000000000050000000000  0820120911   01          0001200                                                                              C0000000101                             00CONHECS.NROS.21423/53/95/08.                             00000  0020256        000005
900000600000000002970000                                                                                                                                                                                                                                                                                                                                                                                                                                                                                      000006
