0000147602043799295000110ALTAMIRA IND METALURGICA LTDA           201004980000020120912150032             0    230A                                                                                                                                                                                                                                                                                                                                                                                            000001
12043799295000110ALTAMIRA INDUSTRIA METAL.LTDA.RUA. GANGES, 528                        0344503003303809500000130004071 I000000000009844000000000000000               201209120000000000000000000000000000000000000002500000000000000000000000000000000000050000000001  0820120912   01          0001530                                                                              D0000000101                             0001                                                       00000  0020256        000002
900000300000000002500000                                                                                                                                                                                                                                                                                                                                                                                                                                                                                      000003
