0000147602043799295000110ALTAMIRA IND METALURGICA LTDA           201004990000020120912155734             0    230A                                                                                                                                                                                                                                                                                                                                                                                            000001
12006000195000156MBA MERCANTIL BRASIL.ACO LTDA.RUA. RINCAO, 220                        0365108023700118000000002128292 I000000000009845009022060000008               201209120000000000000000054540000437437000000000437437000000000000000000000000000000010000008948  3120120912   01          000                                                                                  011809220600000080212829039             008948/01                                                  00000  0020256        000002
12006000195000156MBA MERCANTIL BRASIL.ACO LTDA.RUA. RINCAO, 220                        0365108023700118000000002128292 I000000000009846009022060000002               201209120000000000000000054540000194693000000000194693000000000000000000000000000000010000008949  3120120912   01          000                                                                                  011809220600000020212829049             008949/01                                                  00000  0020256        000003
12053585766000141MULTIACOS IND.COM.PROD.TEC.LTDAV.PAPA JOAO XXIII, 1460/A.             0937080000100000 0000000000000  I000000000009847000000000000000               201209120000000000000000054540000948537000000000948537000000000000000000000000000000010000044296  3120120912   01          000                                                                                  043978070011912000139523159             0044296/01                                                 00000  0020256        000004
12053585766000141MULTIACOS IND.COM.PROD.TEC.LTDAV.PAPA JOAO XXIII, 1460/A.             0937080000100000 0000000000000  I000000000009848000000000000000               201209120000000000000000054540000324959000000000324959000000000000000000000000000000010000044376  3120120912   01          000                                                                                  043978070091912000139523149             0044376/01                                                 00000  0020256        000005
12003102481000134AB5 INDUSTRIA E COMERCIO LTDA.AV.MINISTRO ROBERTO CARD.ALVES, 1215    1384921234100000 0000000000000  I000000000009849000000000000000               201209120000000000000000054540000157900000000000157900000000000000000000000000000000010000002849  3120120912   01          000                                                                                  181540000210003154755700099             002849                                                     00000  0020256        000006
12061217188000119TELAS METALICAS TELMETAL LTDA.RUA.ALDEIA DA PRATA, 38                 0368008034100000 0000000000000  I000000000009850000000000000000               201209120000000000000000054540000115373000000000115373000000000000000000000000000000010000005484  3120120912   01          000                                                                                  181540002505077099894600019             005484/01                                                  00000  0020256        000007
12075483040000130REX MAQ E EQUIPAMENTOS LTDA                                           0000000000100000 0000000000000  I000000000009851000000000000000               201209120000000000000000054540000064992000000000064992000000000000000000000000000000010000079547  3120120912   01          000                                                                                  043999123703420001185301139             0079547/01                                                 00000  0020256        000008
12061100202000108COFIPE VEICULOS LTDA.         AV.PRES.CASTELO BRANCO, 3333 - C.       0303600239900000 0000000000000  I000000000009852000000000000000               201209120000000000000000054540000029296000000000029296000000000000000000000000000000010000012104  3120120912   01          000                                                                                  320005040400343608018900119             0012104/02                                                 00000  0020256        000009
12061100202000108COFIPE VEICULOS LTDA.         AV.PRES.CASTELO BRANCO, 3333 - C.       0303600239900000 0000000000000  I000000000009853000000000000000               201209120000000000000000054540000013856000000000013856000000000000000000000000000000010000005104  3120120912   01          000                                                                                  320005040240343608018900139             005104/02                                                  00000  0020256        000010
900001100000000002287043                                                                                                                                                                                                                                                                                                                                                                                                                                                                                      000011
