0000147602043799295000110ALTAMIRA IND METALURGICA LTDA           201005010000020120913173747             0    230A                                                                                                                                                                                                                                                                                                                                                                                            000001
12006894969000130TERRA DIESEL COMERCIO DE PECAS                                        00000000104000000000000000000000000000008701774300000000019910014063A         201209130000000000000000054550000008600000000000008600000000000000000000000000000000050000000000  3020120913   01          500                                                                                  900000019930598700000020519010000       0014063/1                                                  01321  0020256        000002
900000300000000000008600                                                                                                                                                                                                                                                                                                                                                                                                                                                                                      000003
