0000147602043799295000110ALTAMIRA IND METALURGICA LTDA           201005610000020121114165318             0    230A                                                                                                                                                                                                                                                                                                                                                                                            000001
12042956441000101SOLUCOES ACO USIMINAS                                                 0000000034100000000000000000000000000000850740340000002233586880017101203     201211140000000000000000055170000144633000000000144633000000000000000000000000000000050000000000  3020121114   01          500                                                                                  112233586885293807258000019010000       000171012/03                                               01321  0020256        000002
12042956441000101SOLUCOES ACO USIMINAS                                                 0000000034100000000000000000000000000000850740350000002233586890017126903     201211140000000000000000055170000208393000000000208393000000000000000000000000000000050000000000  3020121114   01          500                                                                                  112233586893293807258000059010000       000171010/03                                               01321  0020256        000003
12042956441000101SOLUCOES ACO USIMINAS                                                 0000000034100000000000000000000000000000850740360000002233586900017127003     201211140000000000000000055170000190427000000000190427000000000000000000000000000000050000000000  3020121114   01          500                                                                                  112233586901293807258000099010000       000171270/03                                               01321  0020256        000004
12042956441000101SOLUCOES ACO USIMINAS                                                 0000000034100000000000000000000000000000850740370000002233586870017101003     201211140000000000000000055170000732574000000000732574000000000000000000000000000000050000000000  3020121114   01          500                                                                                  112233586877293807258000079010000       00171010/03                                                01321  0020256        000005
12042956441000101SOLUCOES ACO USIMINAS                                                 0000000034100000000000000000000000000000850740380000002233586910017127103     201211140000000000000000055170000167726000000000167726000000000000000000000000000000050000000000  3020121114   01          500                                                                                  112233586919293807258000019010000       000171217/03                                               01321  0020256        000006
12049341563000132JAC COMERCIO DE MATERIAIS ELET                                        00000000001000000000000000000000000000009005227300000046831500023646B         201211140000000000000000055170000009063000000000009063000000000000000000000000000000050000000000  3020121114   01          500                                                                                  000000192560144144683151159010000       0023646/2                                                  01321  0020256        000007
12009007898000102ARTERINOX COMERCIO T M L EPP                                          0000000034100000000000000000000000000000902449860000002490040604000           201211140000000000000000055170000075317000000000075317000000000000000000000000000000050000000000  3020121114   01          500                                                                                  112490040600641221612600019010000       004000                                                     01321  0020256        000008
12047190731000100DE CASTRO LOUR ENG IND LTDA                                           00000000341000000000000000000000000000009041732200000025008465403027257 0     201211150000000000000000055180000751900000000000751900000000000000000000000000000000050000000000  3020121116   01          500                                                                                  112500846541036884500400019010000       003027257                                                  01321  0020256        000009
12014775592000128HELIO ADRIANO DA SILVA ME                                             0000000023700593200000002432943 00000000913585090090231000000078928           201211140000000000000000055170000018000000000000018000000000000000000000000000000000050000000000  3020121114   01          500AV TAMAINDE 1410                                                                  010000                   000000000000000008928                                                     00598  0020256        000010
12047190731000100DE CASTRO LOUREIRO ENGENHARIA                                         0000000003300000 0000000000000  I000000000010189000000000000000               201211140000000000000000055170000947530000000000947530000000000000000000000000000000010000026873  3120121114   01          000                                                                                  948430370000009553410020389             00026873/01                                                00000  0020256        000011
12002954207000120BENZOL COM.MAT.ESP.P/LIMPEZA LRUA. FAUTOLO, 1760                      0504100100100000 0000000000000  I000000000010190000000000000000               201211140000000000000000055170000096000000000000096000000000000000000000000000000000010000004753  3120121114   01          000                                                                                  852632000000000000022772189             0004753                                                    00000  0020256        000012
12060732997000104UNIFISA ADM. NACIONAL DE CONS.CALCADA ALDEBARAN 161 CENTRO DE APOIO 2 0654105523703390100000000086606 I000000000010191009000970933418               201211140000000000000000055170000117616000000000117616000000000000000000000000000000050615037000  3120121114   01          000                                                                                  339009009709334180008660029             000615037000                                               00000  0020256        000013
12060732997000104UNIFISA ADM. NACIONAL DE CONS.CALCADA ALDEBARAN 161 CENTRO DE APOIO 2 0654105523703390100000000086606 I000000000010192009000970933835               201211140000000000000000055170000117616000000000117616000000000000000000000000000000040618086700  3120121114   01          000                                                                                  339009009709338350008660089             000618086700                                               00000  0020256        000014
12012006058000121WEG TINTAS LTDA.              ROD. BR. 280 - KM.50 - S/N.             8927000023702727800000000001309 I000000000010193000000000000000               201211140000000000000000000000000000000000000000085440000000000000000000000000000000050000000001  0120121114   01          000                                                                                                                          00REF.JUROS                                                00000 10020256        000015
11517114514000087ROSILDO BARROS CAMILO         RUA. CIPRIANO FUNTAN, 0322              0831132023700298400000000619833 I000000000010194000000000000000               201211140000000000000000000000000000000000000000358904000000000000000000000000000000010000000102  0120121114   01          000                                                                                                                          000102                                                     00000 10020256        000016
900001700000000004021139                                                                                                                                                                                                                                                                                                                                                                                                                                                                                      000017
