0000147602043799295000110ALTAMIRA IND METALURGICA LTDA           201004670000020120814164043             0    230A                                                                                                                                                                                                                                                                                                                                                                                            000001
12006000195000156MBA MERCANTIL BRASIL.ACO LTDA.RUA. RINCAO, 220                        0365108023700118000000002128292 I000000000009477009021920000014               201208140000000000000000054250001003532000000001003532000000000000000000000000000000010000008794  3120120814   01          000                                                                                  011809219200000140212829019             0008794/01                                                 00000  0020256        000002
12006000195000156MBA MERCANTIL BRASIL.ACO LTDA.RUA. RINCAO, 220                        0365108023700118000000002128292 I000000000009478000000000000000               201208140000000000000000000000000000000000000000903026000000000000000000000000000000010000008262  0120120814   01          000                                                                                                                          0008262/03                                                 00000 10020256        000003
12007068566000102NIVEL EMPREGOS LTDA.          AV.CELSO GARCIA, 03830                  0306400023700097300000003053792 I000000000009479000000000000000               201208140000000000000000000000000000000000000000200000000000000000000000000000000000010000002727  0120120814   01          000                                                                                                                          00NOTA FISCAL NRO.2727 - PARC.02.                          00000 10020256        000004
12042956441000101SOLUCOES EM ACO USIMINAS S/A. RUA. DIANOPOLIS, 670/710                0312510034100000 0000000000000  I000000000009480000000000000000               201208140000000000000000054250000757990000000000757990000000000000000000000000000000010000164594  3120120814   01          000                                                                                  181522541441293807258000069             000164594/02                                               00000  0020256        000005
12042956441000101SOLUCOES EM ACO USIMINAS S/A. RUA. DIANOPOLIS, 670/710                0312510034100000 0000000000000  I000000000009481000000000000000               201208140000000000000000054250000649671000000000649671000000000000000000000000000000010000159624  3120120814   01          000                                                                                  181522544411293807258000039             000159624/03                                               00000  0020256        000006
12056993900000131CIA METALURGICA PRADA                                                 0000000034100000 0000000000000  I000000000009482000000000000000               201208140000000000000000054250000635681000000000635681000000000000000000000000000000010000239157  3120120814   01          000                                                                                  181522489297293800573900019             000239157/03                                               00000  0020256        000007
12012006058000121WEG TINTAS LTDA.              ROD. BR. 280 - KM.50 - S/N.             8927000023702727800000000001309 I000000000009483009021790000074               201208140000000000000000054250000308201000000000308201000000000000000000000000000000010000147739  3120120814   01          000                                                                                  272709217900000740000130079             000147739/01                                               00000  0020256        000008
12066899790000105FAB.ART.DE LATEX ESTR.EP.LTDA.ROD.QUINTINO DE LIMA KM.08              1813000039900000 0000000000000  I000000000009484000000000000000               201208140000000000000000054250000251189000000000251189000000000000000000000000000000010000072773  3120120814   01          000                                                                                  175513042721125027292500119             00072773/01                                                00000  0020256        000009
12061217188000119TELAS METALICAS TELMETAL LTDA.RUA.ALDEIA DA PRATA, 38                 0368008034100000 0000000000000  I000000000009485000000000000000               201208140000000000000000054250000174927000000000174927000000000000000000000000000000010000005293  3120120814   01          000                                                                                  181522486874077099894600019             0005293/02-03                                              00000  0020256        000010
12035820448000136WHITE MARTINS GASES IND.LTDA. AV. AUTONOMISTAS, 4192                  0609001523700026400000003937925 I000000000009486009021940001235               201208140000000000000000054250000166842000000000166842000000000000000000000000000000010000008762  3120120814   01          000                                                                                  002609219400012350393792019             0008762                                                    00000  0020256        000011
12066899790000105FAB.ART.DE LATEX ESTR.EP.LTDA.ROD.QUINTINO DE LIMA KM.08              1813000039900000 0000000000000  I000000000009487000000000000000               201208140000000000000000054250000134988000000000134988000000000000000000000000000000010000072894  3120120814   01          000                                                                                  175513061351125027292500179             00072894/01                                                00000  0020256        000012
12009419898000101LUSITANO IND.COM.EMBAL.PLAST. RUA. MARCILIO DE OLIVEIRA, 105          1397101234100000 0000000000000  I000000000009488000000000000000               201208140000000000000000054250000037696000000000037696000000000000000000000000000000010000009797  3120120814   01          000                                                                                  181522490525001160072300059             0009797/01                                                 00000  0020256        000013
12002503185000182ANDAIMES MAQUINAS BIG LTDA    AV.PROF.LUIZ ANHAIA MELLO, 600          0315410034100000 0000000000000  I000000000009489000000000000000               201208140000000000000000054250000016841000000000016841000000000000000000000000000000010000004889  3120120814   01          000                                                                                  181522709063650303800900079             0004889                                                    00000  0020256        000014
900001500000000005240584                                                                                                                                                                                                                                                                                                                                                                                                                                                                                      000015
