0000147602043799295000110ALTAMIRA IND METALURGICA LTDA           201005280000020121015170402             0    230A                                                                                                                                                                                                                                                                                                                                                                                            000001
12035820448000136WHITE MARTINS GASES INDUSTRIAI                                        0000000023700026400000003937925 0000000087577331009022500001416377141 001     201210020000000000000000054740000040575000000000041568000000000000000000000000000993050000000000  3020121015   01          500RUA GANGES  528                                                                   010000                   000000000000000009086                                                     00598  0020256        000002
12062539994000176LEALFER INDUSTRIA E COMERCIO D                                        0000000003300000 0000000000000  I000000000010012000000000000000               201210150000000000000000054870001079886000000001079886000000000000000000000000000000010000054791  3120121015   01          000                                                                                  915298380000000260339020319             0054791/01                                                 00000  0020256        000003
12062173661000176INDUFIX IND.E COM.LTDA.       RUA. DOS ALPES, 181                     0152003023704130000000000085898 I000000000010013007022560000065               201210150000000000000000054870000067843000000000067843000000000000000000000000000000010000038394  3120121015   01          000                                                                                  413007225600000650008589019             0038394/01                                                 00000  0020256        000004
12062344882000160INDUSTRIA COM PARAFUS NAP LTDA                                        0000000034100000 0000000000000  I000000000010014000000000000000               201210150000000000000000054870000060314000000000060314000000000000000000000000000000010000011535  3120121015   01          000                                                                                  181560217737482812260800019             0011535/01                                                 00000  0020256        000005
12035820448000136WHITE MARTINS GASES IND.LTDA. AV. AUTONOMISTAS, 4192                  0609001523700026400000003937925 I000000000010015009022350001453               201210140000000000000000054860000059917000000000059917000000000000000000000000000000010000008999  3120121015   01          000                                                                                  002609223500014530393792059             0008999                                                    00000  0020256        000006
12061217188000119TELAS METALICAS TELMETAL LTDA.RUA.ALDEIA DA PRATA, 38                 0368008034100000 0000000000000  I000000000010016000000000000000               201210150000000000000000054870000053607000000000053607000000000000000000000000000000010000005639  3120121015   01          000                                                                                  181560239011077099894600059             005639/01-03                                               00000  0020256        000007
12062344882000160INDUSTRIA COM PARAFUS NAP LTDA                                        0000000034100000 0000000000000  I000000000010017000000000000000               201210150000000000000000054870000049168000000000049168000000000000000000000000000000010000011535  3120121015   01          000                                                                                  181560236000482812260800039             0011535/02                                                 00000  0020256        000008
12033325184001786ALSCO TOALHEIRO BRASIL LTDA.  AV.NADIR DIAS DE FIGUEIREDO, 829        0211000023703396000000001490850 I000000000010018009000002716505               201210150000000000000000054870000046539000000000046539000000000000000000000000000000010000027165  3120121015   01          000                                                                                  339609000027165050149085079             0027165                                                    00000  0020256        000009
12012931789000183RCM IMPORTADORA FERRAMENTAS LTRUA. IOLANDA, 85 - SALA.02              0311213000100000 0000000000000  I000000000010019000000000000000               201210150000000000000000054870000046538000000000046538000000000000000000000000000000010000004126  3120121015   01          000                                                                                  000000225937123243023081769             004126                                                     00000  0020256        000010
12062340989000130EDICOES ADUANEIRAS LTDA.      RUA. DA CONSOLACAO, 77 - 7.AND.         0130100023703090200000000015660 I000000000010020009080000035030               201210150000000000000000054870000044680000000000044680000000000000000000000000000000010000004262  3120121015   01          000                                                                                  309009800000350300001566039             004262/04                                                  00000  0020256        000011
12001852612000175BT.PRODUTOS INDS.LTDA.        AV.CELSO GARCIA, 4553                   0306300003300000 0000000000000  I000000000010021000000000000000               201210150000000000000000054870000043253000000000043253000000000000000000000000000000010000594061  3120121015   01          000                                                                                  913651000000000594061010459             00594061                                                   00000  0020256        000012
12061217188000119TELAS METALICAS TELMETAL LTDA.RUA.ALDEIA DA PRATA, 38                 0368008034100000 0000000000000  I000000000010022000000000000000               201210150000000000000000054870000033822000000000033822000000000000000000000000000000010000005640  3120121015   01          000                                                                                  181560237783077099894600089             005640/01-03                                               00000  0020256        000013
12033325184001786ALSCO TOALHEIRO BRASIL LTDA.  AV.NADIR DIAS DE FIGUEIREDO, 829        0211000023703396000000001490850 I000000000010023009000028814703               201210150000000000000000054870000026607000000000026607000000000000000000000000000000010000288147  3120121015   01          000                                                                                  339609000288147030149085019             000288147                                                  00000  0020256        000014
12005335228000156DINAMICA INFORMATICA TELEC.LTDRUA. DOUTOR ALARICO SILVEIRA, 00378     0350204023703257300000000503215 I000000000010024009032570017396               201210150000000000000000054870000021005000000000021005000000000000000000000000000000010000008960  3120121015   01          000                                                                                  325709325700173960050321049             008960/1                                                   00000  0020256        000015
12009630445000120MARIANA DE QUEIROZ SILVA.     RUA.ZUMBI, 0199                         0371401000100000 0000000000000  I000000000010025000000000000000               201210150000000000000000054870000019067000000000019067000000000000000000000000000000010014145046  3120121015   01          000                                                                                  000000167849100000001181779             0018145046                                                 00000  0020256        000016
12061100202000108COFIPE VEICULOS LTDA.         AV.PRES.CASTELO BRANCO, 3333 - C.       0303600239900000 0000000000000  I000000000010026000000000000000               201210150000000000000000054870000018018000000000018018000000000000000000000000000000010000005155  3120121015   01          000                                                                                  320005133250343608018900189             0005155                                                    00000  0020256        000017
12005852768000107DAOUD & LEAL ELETRONICA LTDA. RUA. PANDIA CALOGERAS, 205              1224271003300000 0000000000000  I000000000010027000000000000000               201210150000000000000000054870000017934000000000017934000000000000000000000000000000010000001097  3120121015   01          000                                                                                  949927090000000027421010419             001097                                                     00000  0020256        000018
12004676708000118M.H.F. SISTEMAS LTDA.         RUA. UICO, 0345                         0362102034100000 0000000000000  I000000000010028000000000000000               201210150000000000000000054870000015270000000000015270000000000000000000000000000000010000019195  3120121015   01          000                                                                                  181560228711013924573200089             00019195                                                   00000  0020256        000019
12004676708000118M.H.F. SISTEMAS LTDA.         RUA. UICO, 0345                         0362102034100000 0000000000000  I000000000010029000000000000000               201210150000000000000000054870000014322000000000014322000000000000000000000000000000010000019371  3120121015   01          000                                                                                  181560221047013924573200019             00019371                                                   00000  0020256        000020
12003163055000100JN FOMENTO MERCANTIL LTDA     RUA. VERGUEIRO, 3086                    0410200123700548700000001174339 I000000000010030000000000000000               201210150000000000000000000000000000000000000000015000000000000000000000000000000000010000000509  0120121015   01          000                                                                                                                          00509                                                      00000 10020256        000021
900002200000000001774358                                                                                                                                                                                                                                                                                                                                                                                                                                                                                      000022
