0000147602043799295000110ALTAMIRA IND METALURGICA LTDA           201004720000020120817162144             0    230A                                                                                                                                                                                                                                                                                                                                                                                            000001
12012006058000121WEG TINTAS LTDA.              ROD. BR. 280 - KM.50 - S/N.             8927000023702727800000000001309 I000000000009525009021700000102               201208170000000000000000054280000461693000000000461693000000000000000000000000000000010000145154  3120120817   01          000                                                                                  272709217000001020000130029             000145154/02                                               00000  0020256        000002
12075483040000130REX MAQ E EQUIPAMENTOS LTDA                                           0000000023702656500000000000701 I000000000009526002021530000470               201208170000000000000000054280000435446000000000435446000000000000000000000000000000010000072487  3120120817   01          000                                                                                  265602215300004700000070069             0072487/02-03                                              00000  0020256        000003
12002558199000101OMEGA TUBOS COM.IMP.E EXP.LTDAAV. PRESIDENTE WILSON, 5056             0422000103300000 0000000000000  I000000000009527000000000000000               201208170000000000000000054280000310333000000000310333000000000000000000000000000000010000026380  3120120817   01          000                                                                                  947509770000000088714020349             00026380/01                                                00000  0020256        000004
12061217188000119TELAS METALICAS TELMETAL LTDA.RUA.ALDEIA DA PRATA, 38                 0368008034100000 0000000000000  I000000000009528000000000000000               201208170000000000000000054280000173091000000000173091000000000000000000000000000000010000005293  3120120817   01          000                                                                                  181524910145077099894600099             005293/3-3                                                 00000  0020256        000005
12008709272000177MULTIELETRICA C M E LTDA                                              0000000034100000 0000000000000  I000000000009529000000000000000               201208170000000000000000054280000168398000000000168398000000000000000000000000000000010000002499  3120120817   01          000                                                                                  181524909010075798525400019             002499/02                                                  00000  0020256        000006
12069284248000128ISOCOAT TINTAS E VERNIZES LTDARUA. COM.GIUSEPPE MARCHIORI, 2189       1814700034100000 0000000000000  I000000000009530000000000000000               201208170000000000000000054280000134784000000000134784000000000000000000000000000000010000050534  3120120817   01          000                                                                                  181524911111077430121200019             00050534/03                                                00000  0020256        000007
12069309706000136F N A TRANSPORTES LTDA                                                0000000034100000 0000000000000  I000000000009531000000000000000               201208170000000000000000054280000111039000000000111039000000000000000000000000000000010000058700  3120120817   01          000                                                                                  181524904502005486932600059             00058700                                                   00000  0020256        000008
12062173661000176INDUFIX IND.E COM.LTDA.       RUA. DOS ALPES, 181                     0152003023704130000000000085898 I000000000009532007022050000120               201208170000000000000000054280000067778000000000067778000000000000000000000000000000010000035860  3120120817   01          000                                                                                  413007220500001200008589029             00035860/01                                                00000  0020256        000009
12061217188000119TELAS METALICAS TELMETAL LTDA.RUA.ALDEIA DA PRATA, 38                 0368008034100000 0000000000000  I000000000009533000000000000000               201208170000000000000000054280000055978000000000055978000000000000000000000000000000010000005292  3120120817   01          000                                                                                  181524903306077099894600099             0005292/03-03                                              00000  0020256        000010
12002503185000182ANDAIMES MAQUINAS BIG LTDA    AV.PROF.LUIZ ANHAIA MELLO, 600          0315410000100000 0000000000000  I000000000009534000000000000000               201208170000000000000000054280000012256000000000012256000000000000000000000000000000010000011521  3120120817   01          000                                                                                  000000187782308250653551719             00011521                                                   00000  0020256        000011
12061217188000119TELAS METALICAS TELMETAL LTDA.RUA.ALDEIA DA PRATA, 38                 0368008034100000 0000000000000  I000000000009535000000000000000               201208170000000000000000054280000010777000000000010777000000000000000000000000000000010000005291  3120120817   01          000                                                                                  181524912471077099894600059             0005291/03-03                                              00000  0020256        000012
12042956441000101SOLUCOES EM ACO USIMINAS S/A. RUA. DIANOPOLIS, 670/710                0312510000100000 0000000000000  I000000000009536000000000000000               201208170000000000000000054280000619574000000000619574000000000000000000000000000000010000057516  3120120817   01          000                                                                                  000000169660100000791361799             00057516/02                                                00000  0020256        000013
12042956441000101SOLUCOES EM ACO USIMINAS S/A. RUA. DIANOPOLIS, 670/710                0312510034100000 0000000000000  I000000000009537000000000000000               201208170000000000000000054280000607756000000000607756000000000000000000000000000000010000160164  3120120817   01          000                                                                                  181525012374293807258000079             000160164/03                                               00000  0020256        000014
12042956441000101SOLUCOES EM ACO USIMINAS S/A. RUA. DIANOPOLIS, 670/710                0312510000100000 0000000000000  I000000000009538000000000000000               201208170000000000000000054280000514145000000000514145000000000000000000000000000000010000164960  3120120817   01          000                                                                                  000000169660100000794821759             000164960/02                                               00000  0020256        000015
12006000195000156MBA MERCANTIL BRASIL.ACO LTDA.RUA. RINCAO, 220                        0365108023700118000000002128292 I000000000009539000000000000000               201208170000000000000000000000000000000000000000456280000000000000000000000000000000010000008556  0120120817   01          000                                                                                                                          00NF.NRO.08556/02                                          00000 10020256        000016
12042956441000101SOLUCOES EM ACO USIMINAS S/A. RUA. DIANOPOLIS, 670/710                0312510000100000 0000000000000  I000000000009540000000000000000               201208170000000000000000054280000389642000000000389642000000000000000000000000000000010000165260  3120120817   01          000                                                                                  000000169660100000809851759             000165260/02                                               00000  0020256        000017
12042956441000101SOLUCOES EM ACO USIMINAS S/A. RUA. DIANOPOLIS, 670/710                0312510034100000 0000000000000  I000000000009541000000000000000               201208170000000000000000054280000343566000000000343566000000000000000000000000000000010000160163  3120120817   01          000                                                                                  181525013687293807258000089             000160163/03                                               00000  0020256        000018
12042956441000101SOLUCOES EM ACO USIMINAS S/A. RUA. DIANOPOLIS, 670/710                0312510000100000 0000000000000  I000000000009542000000000000000               201208170000000000000000054280000328544000000000328544000000000000000000000000000000010000164931  3120120817   01          000                                                                                  000000169660100000794851759             000164931/02                                               00000  0020256        000019
12043292101000196ANHEMBI IND. DE CAXIAS DE PAP.AV BENEDITO ISAAC PIRES 3605            0000000000100000 0000000000000  I000000000009543000000000000000               201208170000000000000000054280000046832000000000046832000000000000000000000000000000010000013297  3120120817   01          000                                                                                  043919210683014000077163129             00013297                                                   00000  0020256        000020
12007090033000119DIMEL COM.ARTIGOS INFOR.LTDA. RUA.ERNESTO CERRET, 523                 0847022034100000 0000000000000  I000000000009544000000000000000               201208170000000000000000054280000042440000000000042440000000000000000000000000000000010000000906  3120120817   01          000                                                                                  181525014912045274000400069             000906                                                     00000  0020256        000021
12014775592000128HELIO ADRIANO DA SILVA ME     RUA CARIUS,121                          0723003023700593200000002432943 I000000000009545009022120000009               201208170000000000000000054280000018300000000000018300000000000000000000000000000000010000008233  3120120817   01          000                                                                                  059309221200000090243294039             008233                                                     00000  0020256        000022
12001951865000104FOUR FACTORING FOMENTO M LTDA                                         0000000042200000 0000000000000  I000000000009546000000000000000               201208170000000000000000054280000313099000000000313099000000000000000000000000000000050001592012  3120120817   01          000                                                                                  702000009214741497536196119             00159/2012                                                 00000  0020256        000023
12014104961000150EDNILDE TRIGUERO DANTE DA SILVRUA ROQUE SOARES MEDELA,132             0219009023701311000000001038206 I000000000009547000000000000000               201208170000000000000000000000000000000000000000102051000000000000000000000000000000010000000073  0120120817   01          000                                                                                                                          00073/01                                                   00000 10020256        000024
12069284248000128ISOCOAT TINTAS E VERNIZES LTDARUA. COM.GIUSEPPE MARCHIORI, 2189       1814700023703372300000000370002 I000000000009548000000000000000               201208170000000000000000000000000000000000000000161081000000000000000000000000000000010000051735  0120120817   01          000                                                                                                                          00051735/001                                               00000 10020256        000025
12061786604000108HERWAL ABRASIVOS E MAQUINAS LTRUA. TOLEDO BARBOSA, 746                0306100023700165100000000835188 I000000000009549000000000000000               201208170000000000000000000000000000000000000000018280000000000000000000000000000000010000001570  0120120817   01          000                                                                                                                          0001570                                                    00000 10020256        000026
900002700000000005903163                                                                                                                                                                                                                                                                                                                                                                                                                                                                                      000027
