0000147602043799295000110ALTAMIRA IND METALURGICA LTDA           201006110000020130117145356             0    230A                                                                                                                                                                                                                                                                                                                                                                                            000001
12043799295000110ALTAMIRA INDUSTRIA METAL.LTDA.RUA. GANGES, 528                        0344503000103333200000000021717 I000000000010399000000000000000               201301170000000000000000000000000000000000000005600000000000000000000000000000000000050000000001  0820130117   01          0001540                                                                              D0000000101                             00                                                         00000  0020256        000002
900000300000000005600000                                                                                                                                                                                                                                                                                                                                                                                                                                                                                      000003
