0000147602043799295000110ALTAMIRA IND METALURGICA LTDA           201005320000020121018173416             0    230A                                                                                                                                                                                                                                                                                                                                                                                            000001
12005151518000140BELENUS DO BRASIL LTDA                                                000000000010000000000000000000000000000085315479000000001499000R128919732     201210180000000000000000054900000460800000000000460800000000000000000000000000000000050000000000  3020121018   01          500                                                                                  000000123933843930014993179010000       00289197                                                   01321  0020256        000002
12047190731000100DE CASTRO LOUREIRO ENGENHARIA                                         00000000033000000000000000000000000000008782053500000070000000003026669 0     201210190000000000000000054910000867738000000000867738000000000000000000000000000000050000000000  3020121018   01          500                                                                                  948430370000009552570020349010000       003026734                                                  01321  0020256        000003
12047190731000100DE CASTRO LOUR ENG IND LTDA                                           00000000341000000000000000000000000000008782058900000023602714603026734 0     201210180000000000000000054900000997834000000000997834000000000000000000000000000000050000000000  3020121018   01          500                                                                                  112360271467036884500400099010000       003026734                                                  01321  0020256        000004
12003807192000130HELIO EQUIPAMENTOS LTDA  EPP                                          0000000000100000000000000000000000000000888732850000000002200002410000220     201210180000000000000000054900000022800000000000022800000000000000000000000000000000050000000000  3020121018   01          500                                                                                  000000237909724100002201759010000       00408                                                      01321  0020256        000005
12074239252000104TRANSPORTADORA BANNYS LTDA EPP                                        0000000034100000000000000000000000000000888732870000002425158021300           201210220000000000000000054940000044000000000000044000000000000000000000000000000000050000000000  3020121018   01          500                                                                                  112425158022077267978300069010000       001300                                                     01321  0020256        000006
12006867297000173MARCOS ANTONIO RIBEIRO ACOS   RUA ADONIRO AUGUSTO DE PAULA 17         0390911034100000 0000000000000  I000000000010054000000000000000               201210180000000000000000054900000043670000000000043670000000000000000000000000000000010000000433  3120121018   01          000                                                                                  181563568945046769908800029             00433                                                      00000  0020256        000007
12061096178000172COMERCIAL ELETRICA RIMO LTDA                                          0000000034100000 0000000000000  I000000000010055000000000000000               201210180000000000000000054900000044180000000000044180000000000000000000000000000000010000009888  3120121018   01          000                                                                                  181563564589166009333500029             009888                                                     00000  0020256        000008
12066899790000105FAB.ART.DE LATEX ESTR.EP.LTDA.ROD.QUINTINO DE LIMA KM.08              1813000039900000 0000000000000  I000000000010056000000000000000               201210180000000000000000054900000144115000000000144115000000000000000000000000000000010000077307  3120121018   01          000                                                                                  175891371831125027292500119             0077307                                                    00000  0020256        000009
12047190731000100DE CASTRO LOUREIRO ENGENHARIA                                         0000000034100000 0000000000000  I000000000010057000000000000000               201210180000000000000000054900000867039000000000867039000000000000000000000000000000010003026643  3120121018   01          000                                                                                  112339995592036884500400079             003026643                                                  00000  0020256        000010
12047190731000100DE CASTRO LOUREIRO ENGENHARIA                                         0000000023703394400000002529408 I000000000010058000000000000000               201210180000000000000000000000000000000000000000255836000000000000000000000000000000010000025894  0120121018   01          000                                                                                                                          00NF.NRO.25894 - PARC.03.                                  00000 10020256        000011
12006867297000173MARCOS ANTONIO RIBEIRO ACOS   RUA ADONIRO AUGUSTO DE PAULA 17         0390911034100000 0000000000000  I000000000010059000000000000000               201210180000000000000000054900000033406000000000033406000000000000000000000000000000010000000435  3120121018   01          000                                                                                  181563580395046769908800099             00435                                                      00000  0020256        000012
900001300000000003781418                                                                                                                                                                                                                                                                                                                                                                                                                                                                                      000013
