0000147602043799295000110ALTAMIRA IND METALURGICA LTDA           201005940000020121219172801             0    230A                                                                                                                                                                                                                                                                                                                                                                                            000001
12045635984000115CRIFER LAMINADOS ACO FERRO LTD                                        0000000034100000000000000000000000000000909203350000009000268650035771E02     201212190000000000000000055520000454608000000000454608000000000000000000000000000000050000000000  3020121219   01          500                                                                                  109000268657005630080900019010000       0035771                                                    01321  0020256        000002
12003489596000123BEND FLEX I COMERCIO LTDA                                             000000003410000000000000000000000000000092377943000000704803647653            201212190000000000000000055520000128000000000000128000000000000000000000000000000000050000000000  3020121219   01          500                                                                                  157048036475157734445800019010000       00653                                                      01321  0020256        000003
12042956441000101SOLUCOES ACO USIMINAS                                                 0000000034100000000000000000000000000000924705620000002601744130019068801     201212190000000000000000055520000488642000000000488642000000000000000000000000000000050000000000  3020121219   01          500                                                                                  112601744132293807258000029010000       00190688/01                                                01321  0020256        000004
12042956441000101SOLUCOES ACO USIMINAS                                                 0000000034100000000000000000000000000000924705640000002601744140019068901     201212190000000000000000055520000248858000000000248858000000000000000000000000000000050000000000  3020121219   01          500                                                                                  112601744140293807258000099010000       00190689/01                                                01321  0020256        000005
12042956441000101SOLUCOES ACO USIMINAS                                                 0000000034100000000000000000000000000000924705650000002601744150019069001     201212190000000000000000055520000391686000000000391686000000000000000000000000000000050000000000  3020121219   01          500                                                                                  112601744157293807258000019010000       00190688/01                                                01321  0020256        000006
12035820448000136WHITE MARTINS GASES INDUSTRIAI                                        0000000023700026400000003937925 0000000092564058009023280001634410108 001     201212190000000000000000055520000085208000000000085208000000000000000000000000000000050000000000  3020121219   01          500RUA GANGES  528                                                                   010000                   0000000000000000009510                                                    00598  0020256        000007
12069284248000128ISOCOAT TINTAS E VERNIZES LTDARUA. COM.GIUSEPPE MARCHIORI, 2189       1814700034100000 0000000000000  I000000000010338000000000000000               201212190000000000000000055520000107896000000000107896000000000000000000000000000000010000057592  3120121219   01          000                                                                                  181603727545077430121200089             0057592                                                    00000  0020256        000008
12069284248000128ISOCOAT TINTAS E VERNIZES LTDARUA. COM.GIUSEPPE MARCHIORI, 2189       1814700034100000 0000000000000  I000000000010339000000000000000               201212190000000000000000055520000319760000000000319760000000000000000000000000000000010000056254  3120121219   01          000                                                                                  181603727172077430121200089             00056254/03                                                00000  0020256        000009
12007068566000102NIVEL EMPREGOS LTDA.          AV.CELSO GARCIA, 03830                  0306400023700097300000003053792 I000000000010340000000000000000               201212190000000000000000000000000000000000000000162042000000000000000000000000000000010000002833  0120121219   01          000                                                                                                                          00NF.NRO.02833.                                            00000 10020256        000010
12000288916000199VB.SERVICOS COM.ADM.LTDA.     RUA. VITORIA, 211 - SL.01.              0652920003300000 0000000000000  I000000000010341000000000000000               201301020000000000000000055660000665733000000000665733000000000000000000000000000000010000584949  3120121219   01          000                                                                                  119130442690030259000337839             005849849                                                  00000  0020256        000011
120599458400001704.TABELIAO PROT.LETRAS TITULOSAV.BRIG.LUIZ ANTONIO, 319               0131700034100000 0000000000000  I000000000010342000000000000000               201212190000000000000000055520000138089000000000138089000000000000000000000000000000010004724103  3120121219   01          000                                                                                  175000013484034936821700019             00PROTOC.NRO.0621 - 14/12- MULTIACO                        00000  0020256        000012
1205995053500017610.TABELIAO PROTESTOS SP.     PRACA. DOUTOR JOAO MENDES, 39           0150100123701628400000000729957 I000000000010343006012121405420               201212190000000000000000055520000937224000000000937224000000000000000000000000000000010000026643  3120121219   01          000                                                                                  162806121214054200072995059             00PROT.542 - 19/12 - DE CASTRO                             00000  0020256        000013
900001400000000004127746                                                                                                                                                                                                                                                                                                                                                                                                                                                                                      000014
