0000147602043799295000110ALTAMIRA IND METALURGICA LTDA           201005350000020121019175604             0    230A                                                                                                                                                                                                                                                                                                                                                                                            000001
12086878469000143SUL AMERICA SEG.SAUDE S.A.    RUA. COELHO LISBOA, 61 - SL.06 - TERREO 0332304035600000 0000000000000  I000000000010062000000000000000               201210190000000000000000054910000000000000000000394330000000000000000000000000000000041194356912  3120121019   01          000                                                                                  007548091859130119435691719             001194356912                                               00000  0020256        000002
12005827094000190ECCO DO BRASIL PROD.INFORM.LTD                                        0000000023703389800000000608572 I000000000010063025097002380338               201210200000000000000000054920000026463000000000026463000000000000000000000000000000050000000865  3120121020   01          000                                                                                  338925970023803380060857019             00865                                                      00000  0020256        000003
12004560557000138OSTEL TRANSPORTES                                                     0000000023700165100000000985120 I000000000010066000000000000000               201210190000000000000000000000000000000000000000180000000000000000000000000000000000050000008564  0120121019   01          000                                                                                                                          008564                                                     00000 10020256        000004
900000500000000000600793                                                                                                                                                                                                                                                                                                                                                                                                                                                                                      000005
