0000147602043799295000110ALTAMIRA IND METALURGICA LTDA           201005950000020121220172648             0    230A                                                                                                                                                                                                                                                                                                                                                                                            000001
12005151518000140BELENUS DO BRASIL LTDA                                                000000000010000000000000000000000000000090666247000000256134000R131917022     201212180000000000000000055510000460800000000000463842000000000000000000000000003042050000000000  3020121220   01          500                                                                                  000000123933844172561343169010000       000319170/02                                               01321  0020256        000002
12008879248000186FREFER METAL PLUS                                                     000000003410000000000000000000000000000090920327000000252540539EPI024058B     201212200000000000000000055530000960939000000000960939000000000000000000000000000000050000000000  3020121220   01          500                                                                                  112525405398293811346700039010000       00024058/02                                                01321  0020256        000003
12069284248000128ISOCOAT TINTAS E VERNIZES LTDA                                        0000000034100000000000000000000000000000911410150000002506612030057027        201212180000000000000000055510000317968000000000319664000000000000000000000000001696050000000000  3020121220   01          500                                                                                  112506612038077430121200019010000       00057027/02                                                01321  0020256        000004
12069284248000128ISOCOAT TINTAS E VERNIZES LTDA                                        0000000034100000000000000000000000000000915734060000002553088160057607        201212170000000000000000055500000326908000000000329524000000000000000000000000002616050000000000  3020121220   01          500                                                                                  112553088165077430121200029010000       0057607/01                                                 01321  0020256        000005
12048218317000125RODOENG TRANSPORTES RODOVIARIO                                        00000000001000000000000000000000000000009183387900000050348200013592          201212200000000000000000055530000310000000000000310000000000000000000000000000000000050000000000  3020121220   01          500                                                                                  160305034821494000094531789010000       0006393                                                    01321  0020256        000006
12017469701000177ARCELORMITTAL BRASIL S A                                              0000000034100000000000000000000000000000918338820000009327081400013764703     201212200000000000000000055530000075759000000000075759000000000000000000000000000000050000000000  3020121220   01          500                                                                                  109327081408293802529900019010000       00137647/03                                                01321  0020256        000007
12061217188000119TELAS METALICAS TELMETAL LTDA                                         0000000034100000000000000000000000000000925640550000009000000165999 1 3       201212200000000000000000055530000069097000000000069097000000000000000000000000000000050000000000  3020121220   01          500                                                                                  109000000164077099894600099010000       00599/01-03                                                01321  0020256        000008
12006867297000173MARCOS ANTONIO RIBEIRO ACOS                                           0000000034100000000000000000000000000000926546460000002612716790000461        201212200000000000000000055530000059660000000000059660000000000000000000000000000000050000000000  3020121220   01          500                                                                                  112612716798046769908800059010000       000461                                                     01321  0020256        000009
12033325184001786ALSCO TOALHEIRO BRASIL                                                0000000023703396000000001490850 0000000093033538009000002822105VM28221        201212200000000000000000055530000028368000000000028368000000000000000000000000000000050000000000  3020121220   01          500RUA  GANGES 528                                                                   010000                   00000000000000000028221                                                   00598  0020256        000010
12061085866000137COMERCIO DE FERRAGENS A C L LT                                        0000000023700475800000000385662 000000009335834500400475184012417353 12       201212200000000000000000055530000027500000000000027500000000000000000000000000000000050000000000  3020121220   01          500R TAMAINDE 410 SP                                                                 010000                   0000000000000000017353                                                    00598  0020256        000011
12005753978000148HUMAN SERVICOS P C MOVEL LTDA                                         0000000034100000000000000000000000000000934523900000009001089360000108936     201212200000000000000000055530000013000000000000013000000000000000000000000000000000050000000000  3020121220   01          500                                                                                  109001089364057948896600079010000       00108936                                                   01321  0020256        000012
12075483040000130REX MAQ E EQUIPAMENTOS LTDA                                           0000000023702656500000000000698 I000000000010344000000000000000               201212200000000000000000000000000000000000000000444416000000000000000000000000000000010000081776  0120121220   01          000                                                                                                                          00NF.NRO.81776/02/03.                                      00000 10020256        000013
12062539994000176LEALFER INDUSTRIA E COMERCIO D                                        0000000003300000 0000000000000  I000000000010345000000000000000               201212200000000000000000055530000327558000000000327558000000000000000000000000000000010000058188  3120121220   01          000                                                                                  915298380000000289957010479             0058188/01                                                 00000  0020256        000014
12069034668000156SODEXO PASS BRASIL SERV COM SAAL ARAGUAIA, 1142 BL 03                 0645500034100000 0000000000000  I000000000010346000000000000000               201301170000000000000000055810000379760000000000379760000000000000000000000000000000010019085204  3120121220   01          000                                                                                  109220365437293801455800049             0012/19085204                                              00000  0020256        000015
12069034668000156SODEXO PASS BRASIL SERV COM SAAL ARAGUAIA, 1142 BL 03                 0645500034100000 0000000000000  I000000000010347000000000000000               201301170000000000000000055810000140300000000000140300000000000000000000000000000000010001905268  3120121220   01          000                                                                                  109220365692293801455800099             0012/1905268                                               00000  0020256        000016
12061074175000138MAPFRE VERA CRUZ SEGURADORA S/RUA GANGES 528                          0344503000100000 0000000000000  I000000000010348000000000000000               201301090000000000000000055730000000000000000000030746000000000000000000000000000000010000001671  3120121220   01          000                                                                                  000000145851600716949441819             00450730001671                                             00000  0020256        000017
900001800000000003980133                                                                                                                                                                                                                                                                                                                                                                                                                                                                                      000018
