0000147602043799295000110ALTAMIRA IND METALURGICA LTDA           201004750000020120820152555             0    230A                                                                                                                                                                                                                                                                                                                                                                                            000001
12000867888000164TECNEQUIP TECNOLOGIA EQUIP.LTDRUA. GANGES,                            0344503000103333200000000130818 I000000000009585000000000000000               201208200000000000000000000000000000000000000011000000000000000000000000000000000000050000000005  0820120820   01          0001530                                                                              C0000000101                             0005                                                       00000  0020256        000002
12043799295000110ALTAMIRA INDUSTRIA METAL.LTDA.RUA. GANGES, 528                        0344503000103333200000000021717 I000000000009586000000000000000               201208200000000000000000000000000000000000000001300000000000000000000000000000000000050000000006  0820120820   01          0001530                                                                              D0000000101                             0006                                                       00000  0020256        000003
900000400000000012300000                                                                                                                                                                                                                                                                                                                                                                                                                                                                                      000004
