0000147602043799295000110ALTAMIRA IND METALURGICA LTDA           201005070000020120920100043             0    230A                                                                                                                                                                                                                                                                                                                                                                                            000001
12043799295000110ALTAMIRA INDUSTRIA METAL.LTDA.RUA. GANGES, 528                        0344503003303809500000130004071 I000000000009900000000000000000               201209200000000000000000000000000000000000000002400000000000000000000000000000000000050000000001  0820120920   01          0001030                                                                              D0000000101                             0001                                                       00000  0020256        000002
12000867888000164TECNEQUIP TECNOLOGIA EQUIP.LTDRUA. GANGES,                            0344503003303809500000130003245 I000000000009901000000000000000               201209200000000000000000000000000000000000000000700000000000000000000000000000000000050000000002  0820120920   01          0001030                                                                              C0000000101                             0002                                                       00000  0020256        000003
12000867888000164TECNEQUIP TECNOLOGIA EQUIP.LTDRUA. GANGES,                            0344503034100452 00000000749849 I000000000009902000000000000000               201209200000000000000000000000000000000000000000400000000000000000000000000000000000050000000003  0820120920   01          0001030                                                                              C0000000101                             0003                                                       00000  0020256        000004
12013529495000192MAXMIRA CONTROLE E ADM.LTDA.  RUA. JUNO, 533                          0344500034100467 00000000012340 I000000000009903000000000000000               201209200000000000000000000000000000000000000000800000000000000000000000000000000000050000000004  0820120920   01          0001030                                                                              C0000000101                             0004                                                       00000  0020256        000005
12015229004000113ATLANTES SERVICOS ADM.LTDA.   RUA. PERNAMBUCO, 416                    0952114010404115 00003000011275 I000000000009904000000000000000               201209200000000000000000000000000000000000000000300000000000000000000000000000000000010000000007  0820120920   01          0001030                                                                              C0000000101                             00NF.NRO.07 - PARC01.                                      00000  0020256        000006
900000700000000004600000                                                                                                                                                                                                                                                                                                                                                                                                                                                                                      000007
