0000147602043799295000110ALTAMIRA IND METALURGICA LTDA           201005670000020121123151532             0    230A                                                                                                                                                                                                                                                                                                                                                                                            000001
12043799295000110ALTAMIRA INDUSTRIA METAL.LTDA.RUA. GANGES, 528                        0344503000103333200000000021717 I000000000010209000000000000000               201211230000000000000000000000000000000000000005000000000000000000000000000000000000050000000003  0820121123   01          0001540                                                                              D0000000101                             0003                                                       00000  0020256        000002
900000300000000005000000                                                                                                                                                                                                                                                                                                                                                                                                                                                                                      000003
