0000147602043799295000110ALTAMIRA IND METALURGICA LTDA           201004500000020120723160658             0    230A                                                                                                                                                                                                                                                                                                                                                                                            000001
12042956441000101SOLUCOES ACO USIMINAS                                                 0000000034100000000000000000000000000000813840620000002053421600016093402     201207230000000000000000054030000238233000000000238233000000000000000000000000000000050000000000  3020120723   01          500                                                                                  112053421601293807258000089010000       000160934/02                                               01321  0020256        000002
12066899790000105FABRICA ARTEF LATEX ESTRELA EP                                        00000000399000000000000000000000000000008146533100000000000000070105 002      201207220000000000000000054020000217000000000000217000000000000000000000000000000000050000000000  3020120723   01          500                                                                                  175283882641125027292500119010000       00070105/02                                                01321  0020256        000003
12012006058000121WEG TINTAS LTDA                                                       0000000023702727800000000001309 00000000816237700090214600000890014010202     201207230000000000000000054030000306569000000000306569000000000000000000000000000000050000000000  3020120723   01          500R JUNO  533                                                                       010000                   000000000000000000140102/02                                               00598  0020256        000004
12056993900000131CIA METALURGICA PRADA                                                 0000000034100000000000000000000000000000818680890000002072574780024401602     201207230000000000000000054030000869422000000000869422000000000000000000000000000000050000000000  3020120723   01          500                                                                                  112072574786293800573900099010000       000244016/02                                               01321  0020256        000005
12042956441000101SOLUCOES ACO USIMINAS                                                 0000000034100000000000000000000000000000818681000000002074813120016189702     201207230000000000000000054030000245666000000000245666000000000000000000000000000000050000000000  3020120723   01          500                                                                                  112074813125293807258000019010000       000161897/02                                               01321  0020256        000006
12061217188000119TELAS METALICAS TELMETAL LTDA                                         0000000000100000000000000000000000000000830615590000000053780005193 2 3       201207230000000000000000054030000051399000000000051399000000000000000000000000000000050000000000  3020120723   01          500                                                                                  000000115031800000053781719010000       0005193/02-03.                                             01321  0020256        000007
12061217188000119TELAS METALICAS TELMETAL LTDA                                         0000000000100000000000000000000000000000830615620000000053810005194 2 3       201207230000000000000000054030000043420000000000043420000000000000000000000000000000050000000000  3020120723   01          500                                                                                  000000115031800000053811719010000       0005194/02-03                                              01321  0020256        000008
12061217188000119TELAS METALICAS TELMETAL LTDA                                         0000000000100000000000000000000000000000830615680000000053840005195 2 3       201207230000000000000000054030000037286000000000037286000000000000000000000000000000050000000000  3020120723   01          500                                                                                  000000115031800000053841769010000       0005195/01-03                                              01321  0020256        000009
12061217188000119TELAS METALICAS TELMETAL LTDA                                         0000000000100000000000000000000000000000830615700000000053860005196 1 1       201207230000000000000000054030000021149000000000021149000000000000000000000000000000050000000000  3020120723   01          500                                                                                  000000115031800000053861799010000       0005196/01                                                 01321  0020256        000010
12003451790000110TTC TRACAO TECNICA COMERCIAL L                                        0000000000100000000000000000000000000000833928680000007061840001953           201207230000000000000000054030000026620000000000026620000000000000000000000000000000050000000000  3020120723   01          500                                                                                  043847061840687000165521169010000       0001953/01                                                 01321  0020256        000011
12009419898000101LUSITANO INDUSTRIA C E P LTDA                                         00000000341000000000000000000000000000008339286900000090000683201 9530 1      201207230000000000000000054030000035310000000000035310000000000000000000000000000000050000000000  3020120723   01          500                                                                                  109000068323001160072300019010000       0009530/01-02                                              01321  0020256        000012
12006209559000102MAZURKY IND COM EMB LTDA                                              000000003410000000000000000000000000000084106105000000218465112009517 1       201207230000000000000000054030000052925000000000052925000000000000000000000000000000050000000000  3020120723   01          500                                                                                  112184651126151434240900019010000       0009517/01                                                 01321  0020256        000013
12006000195000156MBA MERCANTIL BRASIL.ACO LTDA.RUA. RINCAO, 220                        0365108023700118000000002128292 I000000000009250009021780000037               201207230000000000000000054030000183781000000000183781000000000000000000000000000000010000008689  3120120723   01          000                                                                                  011809217800000370212829099             0008689/01                                                 00000  0020256        000014
11144219728000051MARCIO ALEXANDRE RUSSO                                                0000000023702622000000000064858 I000000000009251000000000000000               201207230000000000000000000000000000000000000000055358000000000000000000000000000000050000062012  0120120723   01          000                                                                                                                          00REF.JUNHO/2012.                                          00000 10020256        000015
12069284248000128ISOCOAT TINTAS E VERNIZES LTDARUA. COM.GIUSEPPE MARCHIORI, 2189       1814700034100000 0000000000000  I000000000009252000000000000000               201207230000000000000000054030000017004000000000017004000000000000000000000000000000010000049529  3120120723   01          000                                                                                  112014739836077430121200019             00049529/03                                                00000  0020256        000016
12012006058000121WEG TINTAS LTDA.              ROD. BR. 280 - KM.50 - S/N.             8927000023702727800000000001309 I000000000009253009021300000074               201207220000000000000000054020000306662000000000306662000000000000000000000000000000010000136165  3120120723   01          000                                                                                  272709213000000740000130019             000136165/03                                               00000  0020256        000017
900001800000000002707804                                                                                                                                                                                                                                                                                                                                                                                                                                                                                      000018
