0000147602043799295000110ALTAMIRA IND METALURGICA LTDA           201004790000020120823161808             0    230A                                                                                                                                                                                                                                                                                                                                                                                            000001
12006000195000156MBA MERCANTIL BRASIL.ACO LTDA.RUA. RINCAO, 220                        0365108023700118000000002128292 I000000000009607000000000000000               201208230000000000000000000000000000000000000000839952000000000000000000000000000000010000008870  0120120823   01          000                                                                                                                          00NF.NRO.8870/01                                           00000 10020256        000002
12006000195000156MBA MERCANTIL BRASIL.ACO LTDA.RUA. RINCAO, 220                        0365108023700118000000002128292 I000000000009608000000000000000               201208230000000000000000000000000000000000000000112772000000000000000000000000000000010000008872  0120120823   01          000                                                                                                                          00NF.NRO.8872/01                                           00000 10020256        000003
900000400000000000952724                                                                                                                                                                                                                                                                                                                                                                                                                                                                                      000004
