0000147602043799295000110ALTAMIRA IND METALURGICA LTDA           201005390000020121025173204             0    230A                                                                                                                                                                                                                                                                                                                                                                                            000001
12035820448000136WHITE MARTINS GASES INDUSTRIAI                                        0000000023700026400000003937925 0000000087067052009022420002594374120 001     201209250000000000000000054670000113610000000000120412000000000000000000000000006802050000000000  3020121025   01          500RUA GANGES  528                                                                   010000                   00000000000000000374120/001                                               00598  0020256        000002
12035820448000136WHITE MARTINS GASES INDUSTRIAI                                        0000000023700026400000003937925 0000000087168275009022440000143375351 001     201209270000000000000000054690000040575000000000042898000000000000000000000000002323050000000000  3020121025   01          500RUA GANGES  528                                                                                            00000000000000000375351/01                                                00598  0020256        000003
12066970229000167NEXTEL TELECOMUNICACOES LTDA                                          0000000023702374400000001596233 0000000088957856009000015144848691888 10      201210100000000000000000054820000015870000000000016187000000000000000000000000000317050000000000  3020121025   01          500R GANGES  520 VILA CARRAO BR                                                      010000                   00000000000000000691888                                                   00598  0020256        000004
12005151518000140BELENUS DO BRASIL LTDA                                                000000000330000000000000000000000000000089697932000000580000000R131115412     201210250000000000000000054970000124800000000000124800000000000000000000000000000000050000000000  3020121025   01          500                                                                                  918381050000000435058010459010000       000311154/01                                               01321  0020256        000005
12011318709000156IMPAKTO TRANSPORTES                                                   0000000000100000000000000000000000000000896979380000000001870006769 6785      201210250000000000000000054970000435000000000000435000000000000000000000000000000000050000000000  3020121025   01          500                                                                                  000000245286000000001871749010000       006785/6769                                                01321  0020256        000006
12069034668000156SODEXO PASS BRASIL SERV COM SA                                        0000000034100000000000000000000000000000906662680000009218795531200013531     201211210000000000000000055240000384830000000000384830000000000000000000000000000000050000000000  3020121025   01          500                                                                                  109218795538293801455800029010000       0012/1544188                                               01321  0020256        000007
12069034668000156SODEXO PASS BRASIL SERV COM SA                                        0000000034100000000000000000000000000000906662690000009218796281200013533     201211210000000000000000055240000140300000000000140300000000000000000000000000000000050000000000  3020121025   01          500                                                                                  109218796288293801455800049010000       0012/1544385                                               01321  0020256        000008
12000288916000199VB.SERVICOS COM.ADM.LTDA.     RUA. VITORIA, 211 - SL.01.              0652920003300000 0000000000000  I000000000010075000000000000000               201211060000000000000000055090000653381000000000653381000000000000000000000000000000050005731559  3120121025   01          000                                                                                  119130442690030259000337859             005731559                                                  00000  0020256        000009
12069050532000130TRIONON TRANSPORTES LTDA.     AV.CASA GRANDE, 1644                    0996135010400000 0000000000000  I000000000010076000000000000000               2012102500000000000000000549700002047710000000002047710000000000000000000000000000000106785 6769  3120121025   01          000                                                                                  800000466540260030000007839             006785/6769                                                00000  0020256        000010
12007988026000139POINTER DISTR.PROD.ELETR.LTDA.AV. DOS LATINOS, 680                    0357200034100000 0000000000000  I000000000010077000000000000000               201210250000000000000000054970000018749000000000018749000000000000000000000000000000010000005452  3120121025   01          000                                                                                  181567651759077084107000019             005452                                                     00000  0020256        000011
12011318709000156MARTINS MARIANO TRANSP.LTDA.  RUA. VOLTOLINOS, 71                     0000000000100000 0000000000000  I000000000010078000000000000000               201210250000000000000000054970000201347000000000201347000000000000000000000000000000050000006741  3120121025   01          000                                                                                  000000245286000000001511789             006741                                                     00000  0020256        000012
12066970229000167NEXTEL TELECOMUNICACOES LTDA. AL. SANTOS, 2366/2384                   0141820023702374400000001596233 I000000000010079009000014717420               201210250000000000000000054970000011864000000000011864000000000000000000000000000000050000215472  3120121025   01          000                                                                                  237409000147174200159623019             00215472/02                                                00000  0020256        000013
900001400000000002354539                                                                                                                                                                                                                                                                                                                                                                                                                                                                                      000014
