0000147602043799295000110ALTAMIRA IND METALURGICA LTDA           201005400000020121026120104             0    230A                                                                                                                                                                                                                                                                                                                                                                                            000001
12006000195000156MBA MERCANTIL BRASIL.ACO LTDA.RUA. RINCAO, 220                        0365108034100648 00000000492510 I000000000010080000000000000000               201210260000000000000000000000000000000000000000620738000000000000000000000000000000050000000001  0820121026   01          0001300                                                                              C0000000101                             0001                                                       00000  0020256        000002
900000300000000000620738                                                                                                                                                                                                                                                                                                                                                                                                                                                                                      000003
