0000147602043799295000110ALTAMIRA IND METALURGICA LTDA           201005720000020121126163122             0    230A                                                                                                                                                                                                                                                                                                                                                                                            000001
12008879248000186FREFER METAL PLUS                                                     0000000034100000 0000000000000  I000000000010219000000000000000               201211260000000000000000055290001006126000000001006126000000000000000000000000000000010000024022  3120121126   01          000                                                                                  181587687325293811346700099             0024022/01                                                 00000  0020256        000002
12042956441000101SOLUCOES EM ACO USIMINAS S/A. RUA. DIANOPOLIS, 670/710                0312510034100000 0000000000000  I000000000010220000000000000000               201211260000000000000000055290000994756000000000994756000000000000000000000000000000010000172205  3120121126   01          000                                                                                  181587684615293807258000019             000172205/03                                               00000  0020256        000003
12069284248000128ISOCOAT TINTAS E VERNIZES LTDARUA. COM.GIUSEPPE MARCHIORI, 2189       1814700034100000 0000000000000  I000000000010221000000000000000               201211260000000000000000055290000375418000000000375418000000000000000000000000000000010000056254  3120121126   01          000                                                                                  181587685974077430121200039             00056254                                                   00000  0020256        000004
12007920494000171NOGUEIRA LEITE ADVOG.ASSOC.   AV.MOEMA, 170                           0407702074500000 0000000000000  I000000000010222000000000000000               201211260000000000000000055290000295500000000000295500000000000000000000000000000000010000004758  3120121126   01          000                                                                                  361125706001200000010313619             0004758                                                    00000  0020256        000005
12006209559000102MAZURKY IND.COM.EMBALAGENS LTDRUA. DAS ORQUIDEAS, 475                 0981039034100000 0000000000000  I000000000010223000000000000000               201211260000000000000000055290000093880000000000093880000000000000000000000000000000010000010684  3120121126   01          000                                                                                  181587084266151434240900039             00010684/02                                                00000  0020256        000006
12014978305000187MOGI FILME INDUSTRIA E COMERCI                                        0000000023700402200000001055003 I000000000010224009022960000004               201211260000000000000000055290000069793000000000069793000000000000000000000000000000010000000430  3120121126   01          000                                                                                  040209229600000040105500019             00430                                                      00000  0020256        000007
900000800000000002835473                                                                                                                                                                                                                                                                                                                                                                                                                                                                                      000008
