0000147602043799295000110ALTAMIRA IND METALURGICA LTDA           201005710000020121126152759             0    230A                                                                                                                                                                                                                                                                                                                                                                                            000001
12043799295000110ALTAMIRA INDUSTRIA METAL.LTDA.RUA. GANGES, 528                        0344503003303809500000130004071 I000000000010217000000000000000               201211260000000000000000000000000000000000000002300000000000000000000000000000000000050000000005  0820121126   01          0001600                                                                              D0000000101                             0005                                                       00000  0020256        000002
12043799295000110ALTAMIRA INDUSTRIA METAL.LTDA.RUA. GANGES, 528                        0344503000103333200000000011029 I000000000010218000000000000000               201211260000000000000000000000000000000000000002800000000000000000000000000000000000050000000006  0820121126   01          0001600                                                                              D0000000101                             0006                                                       00000  0020256        000003
900000400000000005100000                                                                                                                                                                                                                                                                                                                                                                                                                                                                                      000004
