0000147602043799295000110ALTAMIRA IND METALURGICA LTDA           201005690000020121126114347             0    230A                                                                                                                                                                                                                                                                                                                                                                                            000001
12043799295000110ALTAMIRA INDUSTRIA METAL.LTDA.RUA. GANGES, 528                        0344503003303809500000130004071 I000000000010213000000000000000               201211260000000000000000000000000000000000000004200000000000000000000000000000000000050000000001  0820121126   01          0001220                                                                              D0000000101                             0001                                                       00000  0020256        000002
12043799295000110ALTAMIRA INDUSTRIA METAL.LTDA.RUA. GANGES, 528                        0344503034100467 00000000209128 I000000000010214000000000000000               201211260000000000000000000000000000000000000001400000000000000000000000000000000000050000000002  0820121126   01          0001220                                                                              D0000000101                             0002                                                       00000  0020256        000003
12000867888000164TECNEQUIP TECNOLOGIA EQUIP.LTDRUA. GANGES,                            0344503003303809500000130003245 I000000000010215000000000000000               201211260000000000000000000000000000000000000000500000000000000000000000000000000000050000000003  0820121126   01          0001220                                                                              C0000000101                             0003                                                       00000  0020256        000004
900000500000000006100000                                                                                                                                                                                                                                                                                                                                                                                                                                                                                      000005
