0000147602043799295000110ALTAMIRA IND METALURGICA LTDA           201005740000020121127171755             0    230A                                                                                                                                                                                                                                                                                                                                                                                            000001
12005151518000140BELENUS DO BRASIL LTDA                                                000000000010000000000000000000000000000087407046000000750520000R130170532     201211250000000000000000055280000192000000000000193268000000000000000000000000001268050000000000  3020121127   01          500                                                                                  000000123933844037505203139010000       00170532                                                   01321  0020256        000002
12005151518000140BELENUS DO BRASIL LTDA                                                000000000330000000000000000000000000000089697931000000660000000R131115422     201211240000000000000000055270000096000000000000096951000000000000000000000000000951050000000000  3020121127   01          500                                                                                  918381050000000435066010419010000       00311154/02                                                01321  0020256        000003
12005151518000140BELENUS DO BRASIL LTDA                                                000000000330000000000000000000000000000089697935000000230000000R131165822     201211250000000000000000055280000094080000000000094700000000000000000000000000000620050000000000  3020121127   01          500                                                                                  918381050000000445223010429010000       000311658/02                                               01321  0020256        000004
12005852768000107DAOUD LEAL ELETRONICA LTDA ME                                         000000003410000000000000000000000000000090920322000000615791514NOVEMBRO       201211260000000000000000055290000016247000000000016604000000000000000000000000000357050000000000  3020121127   01          500                                                                                  156157915141152944476000059010000       0011/2012                                                  01321  0020256        000005
12008879248000186FREFER METAL PLUS                                                     000000003410000000000000000000000000000090920332000000252540538EPI024058A     201211220000000000000000055250000960939000000000967184000000000000000000000000006245050000000000  3020121127   01          500                                                                                  112525405380293811346700099010000       0024058/01                                                 01321  0020256        000006
12035820448000136WHITE MARTINS GASES INDUSTRIAI                                        0000000023700026400000003937925 0000000090920337009023030000391400546 001     201211230000000000000000055260000056805000000000058017000000000000000000000000001212050000000000  3020121127   01          500RUA GANGES  528                                                                   010000                   00000000000000000                                                         00598  0020256        000007
12035820448000136WHITE MARTINS GASES INDUSTRIAI                                        0000000023700026400000003937925 0000000091141009009023050001196401713 001     201211270000000000000000055300000040575000000000040575000000000000000000000000000000050000000000  3020121127   01          500RUA GANGES  528                                                                   010000                   00000000000000000                                                         00598  0020256        000008
12062944582000111AS SOLUCOES COMERCIAL LTDA                                            00000000001000000000000000000000000000009124679500000032092500017623 A        201211270000000000000000055300000048200000000000048200000000000000000000000000000000050000000000  3020121127   01          500                                                                                  529483209251190000690001739010000       0017623/01                                                 01321  0020256        000009
12057196081000164MINELE COMERCIO DE PARAFUSOS L                                        0000000023700298400000002047470 0000000091833889009023170000004588            201211270000000000000000055300000025860000000000025860000000000000000000000000000000050000000000  3020121127   01          500R  GANGES  528   VL CARRAO                                                        010000                   00000000000000000588                                                      00598  0020256        000010
12061780615000253LEPOK INFORMATICA E PAPL.LTDA AV.RIO DAS PEDRAS, 538/548              0345200023703393600000000005010 I000000000010226002023110000004               201211270000000000000000055300000002703000000000002703000000000000000000000000000000010000137019  3120121127   01          000                                                                                  339302231100000040000501019             00137019                                                   00000  0020256        000011
12061780615000253LEPOK INFORMATICA E PAPL.LTDA AV.RIO DAS PEDRAS, 538/548              0345200023703393600000000005010 I000000000010227002023110000003               201211270000000000000000055300000054626000000000054626000000000000000000000000000000010000136893  3120121127   01          000                                                                                  339302231100000030000501019             000136893/01                                               00000  0020256        000012
12006000195000156MBA MERCANTIL BRASIL.ACO LTDA.RUA. RINCAO, 220                        0365108023700118000000002128292 I000000000010228000000000000000               201211270000000000000000000000000000000000000000989349000000000000000000000000000000050000000001  0120121127   01          000                                                                                                                          0001                                                       00000 10020256        000013
900001400000000002588037                                                                                                                                                                                                                                                                                                                                                                                                                                                                                      000014
