0000147602043799295000110ALTAMIRA IND METALURGICA LTDA           201006360000020130228145758             0    230A                                                                                                                                                                                                                                                                                                                                                                                            000001
12000398641000146TECH DATA BRASIL LTDA.        AV.DR.MARCOS P.U.RODRIGUES, 690         0646004023700091400000001938622 I000000000010498009000000090705               201302250000000000000000056200000007000000000000007000000000000000000000000000000000030001233990  3120130228   01          000                                                                                  009109000000907050193862049             00993377881234567890                                       01321  0020256        000002
900000300000000000007000                                                                                                                                                                                                                                                                                                                                                                                                                                                                                      000003
