0000147602043799295000110ALTAMIRA IND METALURGICA LTDA           201005770000020121129102833             0    230A                                                                                                                                                                                                                                                                                                                                                                                            000001
12043799295000110ALTAMIRA INDUSTRIA METAL.LTDA.RUA. GANGES, 528                        0344503039900198 000000000096330I000000000010245000000000000000               201211290000000000000000000000000000000000000000500000000000000000000000000000000000050000000001  0820121129   01          0001100                                                                              D0000000101                             0001                                                       00000  0020256        000002
900000300000000000500000                                                                                                                                                                                                                                                                                                                                                                                                                                                                                      000003
