0000147602043799295000110ALTAMIRA IND METALURGICA LTDA           201005790000020121130175806             0    230A                                                                                                                                                                                                                                                                                                                                                                                            000001
12043298975000150JOMARCA INDL DE PARAFUSOS LTDA                                        0000000003300000000000000000000000000000893373860000003400000000160394 02     201211300000000000000000055330000365000000000000365000000000000000000000000000000000050000000000  3020121130   01          500                                                                                  935059520000000532134010449010000       00160394/02                                                01321  0020256        000002
12005335228000156DINAMICA INF E TELECOM LTDA EP                                        0000000023703257300000000503215 0000000091471894009032570017749MO009193A      201211300000000000000000055330000020000000000000020000000000000000000000000000000000050000000000  3020121130   01          500RUA JUNO  533                                                                     010000                   000000000000000009193/1                                                   00598  0020256        000003
12062173661000176INDUFIX IND E COM LTDA                                                0000000023703392800000000337587 000000009147189700902311000006800040628 A     201211300000000000000000055330000026730000000000026730000000000000000000000000000000050000000000  3020121130   01          500RUA GANGES 528                                                                    010000                   0000000000000000040628                                                    00598  0020256        000004
12061600839000155CENTRO DE INT EMPRESA ESCOLA C                                        0000000023703391P00000000866202 00000000919321880090000036925787641C 0001     201211300000000000000000055330000016800000000000016800000000000000000000000000000000050000000000  3020121130   01          500R GANGES  528                                                                     010000                   000000000000000007641                                                     00598  0020256        000005
12069309706000136F N A TRANSPORTES LTDA                                                000000003410000000000000000000000000000092215828000000900012564061086         201211300000000000000000055330000017940000000000017940000000000000000000000000000000050000000000  3020121130   01          500                                                                                  109000125649005486932600099010000       0061086                                                    01321  0020256        000006
12081560047000101ACEVILLE TRANSPORTES LTDA                                             000000000330000000000000000000000000000092215832000000700000000288447         201211300000000000000000055330000045000000000000045000000000000000000000000000000000050000000000  3020121130   01          500                                                                                  913555200000002884470010119010000       00288447                                                   01321  0020256        000007
12048218317000125RODOENG TRANSP ROD LTDA       RUA SANTO BALISEU, 186                  0205502000100000 0000000000000  I000000000010270000000000000000               201211300000000000000000055330000315721000000000315721000000000000000000000000000000010000013548  3120121130   01          000                                                                                  050157434111494000094531179             0013548/1                                                  00000  0020256        000008
12062494679000170WILSON ROBERTO COSTA DE JESUS RUA.JOAO MIRASSOL, 385                  0612217000100000 0000000000000  I000000000010271000000000000000               201211300000000000000000055330000031958000000000031958000000000000000000000000000000010000035450  3120121130   01          000                                                                                  000000198715600000010181829             00035450                                                   00000  0020256        000009
12003372804000100TROPICAL CLEAN COMERCIAL LTDA                                         0000000003300000 0000000000000  I000000000010272000000000000000               201211300000000000000000055330000043423000000000043423000000000000000000000000000000010000058193  3120121130   01          000                                                                                  913215100000006405444020119             0058193                                                    00000  0020256        000010
12014395943000175GUIDER TRANSPORTES LTDA.      RUA. ELIZA PIZZOTE, 01                  0206007000100000 0000000000000  I000000000010273000000000000000               201211300000000000000000055330000046000000000000046000000000000000000000000000000000010000005967  3120121130   01          000                                                                                  000000139878900000059671839             005967                                                     00000  0020256        000011
11258214076000072CELSO BERNARDO DA CRUZ.       RUA.PADRE DONIZETTI T.LIMA, 274         0000000023700092200000000430196 I000000000010274000000000000000               201211300000000000000000000000000000000000000000030000000000000000000000000000000000040000000011  0120121130   01          000                                                                                                                          00REF.11/2012.                                             00000 20020256        000012
900001300000000000958572                                                                                                                                                                                                                                                                                                                                                                                                                                                                                      000013
