0000147602043799295000110ALTAMIRA IND METALURGICA LTDA           201004550000020120730150826             0    230A                                                                                                                                                                                                                                                                                                                                                                                            000001
12000867888000164TECNEQUIP TECNOLOGIA EQUIP.LTDRUA. GANGES,                            0344503034100452 00000000749849 I000000000009275000000000000000               201207300000000000000000000000000000000000000003300000000000000000000000000000000000050000000002  0820120730   01          0001530                                                                              C0000000101                             0002                                                       00000  0020256        000002
900000300000000003300000                                                                                                                                                                                                                                                                                                                                                                                                                                                                                      000003
