0000147602043799295000110ALTAMIRA IND METALURGICA LTDA           201005460000020121031161902             0    230A                                                                                                                                                                                                                                                                                                                                                                                            000001
12007068566000102NIVEL EMPREGOS LTDA.          AV.CELSO GARCIA, 03830                  0306400023700097300000003053792 I000000000010116000000000000000               201210310000000000000000000000000000000000000000567254000000000000000000000000000000010000002789  0120121031   01          000                                                                                                                          002789                                                     00000 10020256        000002
900000300000000000567254                                                                                                                                                                                                                                                                                                                                                                                                                                                                                      000003
