00009960204379929500011000174201201052ALTAMIRA IND METALURGICA LTDA           115121300                                                                                                                                                                                                                                                                                                                                                                                                                                                                                                                                                                                                                                                                                                                                                                                      1080                                                                                                                                                 000001
100099602043799295000110001742012010500600000000000000000000000000I848600000070555008933722599999872235408714392012010500000000007055533936070500202568S000                                                                                000000                                        000000000000000000000000000000000000000000000000000000000000000000000000000000000000000                                                                                       00000000                                                                                                                    00000000000000000000000000000000000        000000000000                                                                                                                                                                                                                                                                                                                             I000000000001177                           000002
900099602043799295000110001742012010500000300000000000070555                                                                                                                                                                                                                                                                                                                                                                                                                                                                                                                                                                                                                                                                                                                                                                                                                                                                                                                                                                      000003
