00009960204379929500011000225201205072ALTAMIRA IND METALURGICA LTDA           114441500                                                                                                                                                                                                                                                                                                                                                                                                                                                                                                                                                                                                                                                                                                                                                                                      1094                                                                                                                                                 000001
100099602043799295000110002252012050700600000000000000000000000000I858500000001018017912050754405004379929500012012050700000000000101833936070500202568S000                                                                                000000                                        000000000000000000000000000000000000000000000000000000000000000000000000000000000000000                                                                                       00000000                                                                                                                    00000000000000000000000000000000000        000000000000                                                                                                                                                                                                                                                                                                                             I000000000001555                           000002
100099602043799295000110002252012050700600000000000000000000000000I858700000844245017912050754405084379929500012012050700000000084424533936070500202568S000                                                                                000000                                        000000000000000000000000000000000000000000000000000000000000000000000000000000000000000                                                                                       00000000                                                                                                                    00000000000000000000000000000000000        000000000000                                                                                                                                                                                                                                                                                                                             I000000000001554                           000003
900099602043799295000110002252012050700000400000000000845263                                                                                                                                                                                                                                                                                                                                                                                                                                                                                                                                                                                                                                                                                                                                                                                                                                                                                                                                                                      000004
