00009960204379929500011000276201211072ALTAMIRA IND METALURGICA LTDA           116480600                                                                                                                                                                                                                                                                                                                                                                                                                                                                                                                                                                                                                                                                                                                                                                                      1094                                                                                                                                                 000001
100099602043799295000110002762012110700600000000000000000000000000I858800000001018017912110755005004379929500012012110700000000000101833936070500202568S000                                                                                000000                                        000000000000000000000000000000000000000000000000000000000000000000000000000000000000000                                                                                       00000000                                                                                                                    00000000000000000000000000000000000        000000000000                                                                                                                                                                                                                                                                                                                             I000000000001931                           000002
100099602043799295000110002762012110700600000000000000000000000000I858300000964397017912110755005084379929500012012110700000000096439733936070500202568S000                                                                                000000                                        000000000000000000000000000000000000000000000000000000000000000000000000000000000000000                                                                                       00000000                                                                                                                    00000000000000000000000000000000000        000000000000                                                                                                                                                                                                                                                                                                                             I000000000001930                           000003
900099602043799295000110002762012110700000400000000000965415                                                                                                                                                                                                                                                                                                                                                                                                                                                                                                                                                                                                                                                                                                                                                                                                                                                                                                                                                                      000004
