00009960204379929500011000227201205092ALTAMIRA IND METALURGICA LTDA           115393700                                                                                                                                                                                                                                                                                                                                                                                                                                                                                                                                                                                                                                                                                                                                                                                      1094                                                                                                                                                 000001
100099602043799295000110002272012050900600000000000000000000000000I816800000013422000033705536600303211840140212012050900000000001342233936070500202568S000                                                                                000000                                        000000000000000000000000000000000000000000000000000000000000000000000000000000000000000                                                                                       00000000                                                                                                                    00000000000000000000000000000000000        000000000000                                                                                                                                                                                                                                                                                                                             I000000000001561                           000002
100099602043799295000110002272012050900600000000000000000000000000I816100000021511000033705536600842211840140212012050900000000002151133936070500202568S000                                                                                000000                                        000000000000000000000000000000000000000000000000000000000000000000000000000000000000000                                                                                       00000000                                                                                                                    00000000000000000000000000000000000        000000000000                                                                                                                                                                                                                                                                                                                             I000000000001560                           000003
100099602043799295000110002272012050900600000000000000000000000000I816000000021512000033705536600834211840140212012050900000000002151233936070500202568S000                                                                                000000                                        000000000000000000000000000000000000000000000000000000000000000000000000000000000000000                                                                                       00000000                                                                                                                    00000000000000000000000000000000000        000000000000                                                                                                                                                                                                                                                                                                                             I000000000001559                           000004
100099602043799295000110002272012050900600000000000000000000000000I816600000046658000033705536600151211840140212012050900000000004665833936070500202568S000                                                                                000000                                        000000000000000000000000000000000000000000000000000000000000000000000000000000000000000                                                                                       00000000                                                                                                                    00000000000000000000000000000000000        000000000000                                                                                                                                                                                                                                                                                                                             I000000000001558                           000005
100099602043799295000110002272012050900600000000000000000000000000I816900000269640000033705536600850211840140212012050900000000026964033936070500202568S000                                                                                000000                                        000000000000000000000000000000000000000000000000000000000000000000000000000000000000000                                                                                       00000000                                                                                                                    00000000000000000000000000000000000        000000000000                                                                                                                                                                                                                                                                                                                             I000000000001557                           000006
900099602043799295000110002272012050900000700000000000372743                                                                                                                                                                                                                                                                                                                                                                                                                                                                                                                                                                                                                                                                                                                                                                                                                                                                                                                                                                      000007
