00009960204379929500011000253201208102ALTAMIRA IND METALURGICA LTDA           117263900                                                                                                                                                                                                                                                                                                                                                                                                                                                                                                                                                                                                                                                                                                                                                                                      1094                                                                                                                                                 000001
100099602043799295000110002532012081000600000000000000000000000000I816400000000337000055201209100200000786908222012081000000000000033733936070500202568S000                                                                                000000                                        000000000000000000000000000000000000000000000000000000000000000000000000000000000000000                                                                                       00000000                                                                                                                    00000000000000000000000000000000000        000000000000                                                                                                                                                                                                                                                                                                                             I000000000001775                           000002
100099602043799295000110002532012081000600000000000000000000000000I816200000000337000055201208100200000768118942012081000000000000033733936070500202568S000                                                                                000000                                        000000000000000000000000000000000000000000000000000000000000000000000000000000000000000                                                                                       00000000                                                                                                                    00000000000000000000000000000000000        000000000000                                                                                                                                                                                                                                                                                                                             I000000000001780                           000003
100099602043799295000110002532012081000600000000000000000000000000I816800000000400000055201208100200000798808542012081000000000000040033936070500202568S000                                                                                000000                                        000000000000000000000000000000000000000000000000000000000000000000000000000000000000000                                                                                       00000000                                                                                                                    00000000000000000000000000000000000        000000000000                                                                                                                                                                                                                                                                                                                             I000000000001785                           000004
100099602043799295000110002532012081000600000000000000000000000000I816700000002316000055201208100200000784399332012081000000000000231633936070500202568S000                                                                                000000                                        000000000000000000000000000000000000000000000000000000000000000000000000000000000000000                                                                                       00000000                                                                                                                    00000000000000000000000000000000000        000000000000                                                                                                                                                                                                                                                                                                                             I000000000001774                           000005
100099602043799295000110002532012081000600000000000000000000000000I816400000002800000055201208100200000767993982012081000000000000280033936070500202568S000                                                                                000000                                        000000000000000000000000000000000000000000000000000000000000000000000000000000000000000                                                                                       00000000                                                                                                                    00000000000000000000000000000000000        000000000000                                                                                                                                                                                                                                                                                                                             I000000000001778                           000006
100099602043799295000110002532012081000600000000000000000000000000I816800000002800000055201209100200000793092192012081000000000000280033936070500202568S000                                                                                000000                                        000000000000000000000000000000000000000000000000000000000000000000000000000000000000000                                                                                       00000000                                                                                                                    00000000000000000000000000000000000        000000000000                                                                                                                                                                                                                                                                                                                             I000000000001784                           000007
100099602043799295000110002532012081000600000000000000000000000000I816000000003723000055201208100200000768010402012081000000000000372333936070500202568S000                                                                                000000                                        000000000000000000000000000000000000000000000000000000000000000000000000000000000000000                                                                                       00000000                                                                                                                    00000000000000000000000000000000000        000000000000                                                                                                                                                                                                                                                                                                                             I000000000001779                           000008
100099602043799295000110002532012081000600000000000000000000000000I816500000003729000055201208100200000779410152012081000000000000372933936070500202568S000                                                                                000000                                        000000000000000000000000000000000000000000000000000000000000000000000000000000000000000                                                                                       00000000                                                                                                                    00000000000000000000000000000000000        000000000000                                                                                                                                                                                                                                                                                                                             I000000000001777                           000009
100099602043799295000110002532012081000600000000000000000000000000I868800000004436010150861217415923245614916562012081000000000000443633936070500202568S000                                                                                000000                                        000000000000000000000000000000000000000000000000000000000000000000000000000000000000000                                                                                       00000000                                                                                                                    00000000000000000000000000000000000        000000000000                                                                                                                                                                                                                                                                                                                             I000000000001787                           000010
100099602043799295000110002532012081000600000000000000000000000000I816600000005038000055201208100200000783237732012081000000000000503833936070500202568S000                                                                                000000                                        000000000000000000000000000000000000000000000000000000000000000000000000000000000000000                                                                                       00000000                                                                                                                    00000000000000000000000000000000000        000000000000                                                                                                                                                                                                                                                                                                                             I000000000001783                           000011
100099602043799295000110002532012081000600000000000000000000000000I816400000006742000055201208100200000790908702012081000000000000674233936070500202568S000                                                                                000000                                        000000000000000000000000000000000000000000000000000000000000000000000000000000000000000                                                                                       00000000                                                                                                                    00000000000000000000000000000000000        000000000000                                                                                                                                                                                                                                                                                                                             I000000000001782                           000012
100099602043799295000110002532012081000600000000000000000000000000I816900000007000000055201208100200000783219752012081000000000000700033936070500202568S000                                                                                000000                                        000000000000000000000000000000000000000000000000000000000000000000000000000000000000000                                                                                       00000000                                                                                                                    00000000000000000000000000000000000        000000000000                                                                                                                                                                                                                                                                                                                             I000000000001781                           000013
100099602043799295000110002532012081000600000000000000000000000000I816300000009632000055201208100200000790921802012081000000000000963233936070500202568S000                                                                                000000                                        000000000000000000000000000000000000000000000000000000000000000000000000000000000000000                                                                                       00000000                                                                                                                    00000000000000000000000000000000000        000000000000                                                                                                                                                                                                                                                                                                                             I000000000001776                           000014
100099602043799295000110002532012081000600000000000000000000000000I846000000032087025120120810003000001850035152012081000000000003208733936070500202568S000                                                                                000000                                        000000000000000000000000000000000000000000000000000000000000000000000000000000000000000                                                                                       00000000                                                                                                                    00000000000000000000000000000000000        000000000000                                                                                                                                                                                                                                                                                                                             I000000000001786                           000015
100099602043799295000110002532012081000600000000000000000000000000I816300000038520000055201208100200000798959592012081000000000003852033936070500202568S000                                                                                000000                                        000000000000000000000000000000000000000000000000000000000000000000000000000000000000000                                                                                       00000000                                                                                                                    00000000000000000000000000000000000        000000000000                                                                                                                                                                                                                                                                                                                             I000000000001773                           000016
900099602043799295000110002532012081000001700000000000119897                                                                                                                                                                                                                                                                                                                                                                                                                                                                                                                                                                                                                                                                                                                                                                                                                                                                                                                                                                      000017
