00009960204379929500011000403201301102ALTAMIRA IND METALURGICA LTDA           117174300                                                                                                                                                                                                                                                                                                                                                                                                                                                                                                                                                                                                                                                                                                                                                                                      1094                                                                                                                                                 000001
100099602043799295000110004032013011000600000000000000000000000000I816000000000648000055201301100200000895410842013011000000000000064833936070500202568S000                                                                                000000                                        000000000000000000000000000000000000000000000000000000000000000000000000000000000000000                                                                                       00000000                                                                                                                    00000000000000000000000000000000000        000000000000                                                                                                                                                                                                                                                                                                                             I000000000002055                           000002
100099602043799295000110004032013011000600000000000000000000000000I816100000000690000055201301100200000892587572013011000000000000069033936070500202568S000                                                                                000000                                        000000000000000000000000000000000000000000000000000000000000000000000000000000000000000                                                                                       00000000                                                                                                                    00000000000000000000000000000000000        000000000000                                                                                                                                                                                                                                                                                                                             I000000000002054                           000003
100099602043799295000110004032013011000600000000000000000000000000I816500000001000000055201301100200000898232412013011000000000000100033936070500202568S000                                                                                000000                                        000000000000000000000000000000000000000000000000000000000000000000000000000000000000000                                                                                       00000000                                                                                                                    00000000000000000000000000000000000        000000000000                                                                                                                                                                                                                                                                                                                             I000000000002053                           000004
100099602043799295000110004032013011000600000000000000000000000000I816600000002800000055201301100200000886868952013011000000000000280033936070500202568S000                                                                                000000                                        000000000000000000000000000000000000000000000000000000000000000000000000000000000000000                                                                                       00000000                                                                                                                    00000000000000000000000000000000000        000000000000                                                                                                                                                                                                                                                                                                                             I000000000002052                           000005
100099602043799295000110004032013011000600000000000000000000000000I816200000007000000055201301100200000894267222013011000000000000700033936070500202568S000                                                                                000000                                        000000000000000000000000000000000000000000000000000000000000000000000000000000000000000                                                                                       00000000                                                                                                                    00000000000000000000000000000000000        000000000000                                                                                                                                                                                                                                                                                                                             I000000000002050                           000006
100099602043799295000110004032013011000600000000000000000000000000I816900000007000000055201301100200000893639762013011000000000000700033936070500202568S000                                                                                000000                                        000000000000000000000000000000000000000000000000000000000000000000000000000000000000000                                                                                       00000000                                                                                                                    00000000000000000000000000000000000        000000000000                                                                                                                                                                                                                                                                                                                             I000000000002051                           000007
100099602043799295000110004032013011000600000000000000000000000000I816500000009174000055201301100200000893674322013011000000000000917433936070500202568S000                                                                                000000                                        000000000000000000000000000000000000000000000000000000000000000000000000000000000000000                                                                                       00000000                                                                                                                    00000000000000000000000000000000000        000000000000                                                                                                                                                                                                                                                                                                                             I000000000002049                           000008
100099602043799295000110004032013011000600000000000000000000000000I816300000010865000055201301100200000898006912013011000000000001086533936070500202568S000                                                                                000000                                        000000000000000000000000000000000000000000000000000000000000000000000000000000000000000                                                                                       00000000                                                                                                                    00000000000000000000000000000000000        000000000000                                                                                                                                                                                                                                                                                                                             I000000000002048                           000009
100099602043799295000110004032013011000600000000000000000000000000I816000000013860000055201301100200000935866312013011000000000001386033936070500202568S000                                                                                000000                                        000000000000000000000000000000000000000000000000000000000000000000000000000000000000000                                                                                       00000000                                                                                                                    00000000000000000000000000000000000        000000000000                                                                                                                                                                                                                                                                                                                             I000000000002046                           000010
100099602043799295000110004032013011000600000000000000000000000000I816000000013860000055201301100200000895831942013011000000000001386033936070500202568S000                                                                                000000                                        000000000000000000000000000000000000000000000000000000000000000000000000000000000000000                                                                                       00000000                                                                                                                    00000000000000000000000000000000000        000000000000                                                                                                                                                                                                                                                                                                                             I000000000002047                           000011
100099602043799295000110004032013011000600000000000000000000000000I846800000032087025120130110003000001936508162013011000000000003208733936070500202568S000                                                                                000000                                        000000000000000000000000000000000000000000000000000000000000000000000000000000000000000                                                                                       00000000                                                                                                                    00000000000000000000000000000000000        000000000000                                                                                                                                                                                                                                                                                                                             I000000000002045                           000012
900099602043799295000110004032013011000001300000000000098984                                                                                                                                                                                                                                                                                                                                                                                                                                                                                                                                                                                                                                                                                                                                                                                                                                                                                                                                                                      000013
