00009960204379929500011000284201212102ALTAMIRA IND METALURGICA LTDA           117310900                                                                                                                                                                                                                                                                                                                                                                                                                                                                                                                                                                                                                                                                                                                                                                                      1094                                                                                                                                                 000001
100099602043799295000110002842012121000600000000000000000000000000I816100000000648000055201212100200000877149332012121000000000000064833936070500202568S000                                                                                000000                                        000000000000000000000000000000000000000000000000000000000000000000000000000000000000000                                                                                       00000000                                                                                                                    00000000000000000000000000000000000        000000000000                                                                                                                                                                                                                                                                                                                             I000000000001988                           000002
100099602043799295000110002842012121000600000000000000000000000000I816400000001181000055201212100200000877131122012121000000000000118133936070500202568S000                                                                                000000                                        000000000000000000000000000000000000000000000000000000000000000000000000000000000000000                                                                                       00000000                                                                                                                    00000000000000000000000000000000000        000000000000                                                                                                                                                                                                                                                                                                                             I000000000001987                           000003
100099602043799295000110002842012121000600000000000000000000000000I816700000002507000055201212100200000870771272012121000000000000250733936070500202568S000                                                                                000000                                        000000000000000000000000000000000000000000000000000000000000000000000000000000000000000                                                                                       00000000                                                                                                                    00000000000000000000000000000000000        000000000000                                                                                                                                                                                                                                                                                                                             I000000000001986                           000004
100099602043799295000110002842012121000600000000000000000000000000I816600000002800000055201212100200000870991982012121000000000000280033936070500202568S000                                                                                000000                                        000000000000000000000000000000000000000000000000000000000000000000000000000000000000000                                                                                       00000000                                                                                                                    00000000000000000000000000000000000        000000000000                                                                                                                                                                                                                                                                                                                             I000000000001985                           000005
100099602043799295000110002842012121000600000000000000000000000000I816400000007000000055201212100200000873988612012121000000000000700033936070500202568S000                                                                                000000                                        000000000000000000000000000000000000000000000000000000000000000000000000000000000000000                                                                                       00000000                                                                                                                    00000000000000000000000000000000000        000000000000                                                                                                                                                                                                                                                                                                                             I000000000001984                           000006
100099602043799295000110002842012121000600000000000000000000000000I816700000008715000055201212100200000877131202012121000000000000871533936070500202568S000                                                                                000000                                        000000000000000000000000000000000000000000000000000000000000000000000000000000000000000                                                                                       00000000                                                                                                                    00000000000000000000000000000000000        000000000000                                                                                                                                                                                                                                                                                                                             I000000000001983                           000007
100099602043799295000110002842012121000600000000000000000000000000I816500000014620000055201212100200000877131552012121000000000001462033936070500202568S000                                                                                000000                                        000000000000000000000000000000000000000000000000000000000000000000000000000000000000000                                                                                       00000000                                                                                                                    00000000000000000000000000000000000        000000000000                                                                                                                                                                                                                                                                                                                             I000000000001982                           000008
100099602043799295000110002842012121000600000000000000000000000000I816300000029065000055201212100200000874010132012121000000000002906533936070500202568S000                                                                                000000                                        000000000000000000000000000000000000000000000000000000000000000000000000000000000000000                                                                                       00000000                                                                                                                    00000000000000000000000000000000000        000000000000                                                                                                                                                                                                                                                                                                                             I000000000001981                           000009
100099602043799295000110002842012121000600000000000000000000000000I846600000032087025120121210003000001919486832012121000000000003208733936070500202568S000                                                                                000000                                        000000000000000000000000000000000000000000000000000000000000000000000000000000000000000                                                                                       00000000                                                                                                                    00000000000000000000000000000000000        000000000000                                                                                                                                                                                                                                                                                                                             I000000000001989                           000010
900099602043799295000110002842012121000001100000000000098623                                                                                                                                                                                                                                                                                                                                                                                                                                                                                                                                                                                                                                                                                                                                                                                                                                                                                                                                                                      000011
