00009960204379929500011000269201210102ALTAMIRA IND METALURGICA LTDA           116501500                                                                                                                                                                                                                                                                                                                                                                                                                                                                                                                                                                                                                                                                                                                                                                                      1094                                                                                                                                                 000001
100099602043799295000110002692012101000600000000000000000000000000I816600000000337000055201210100200000825491102012101000000000000033733936070500202568S000                                                                                000000                                        000000000000000000000000000000000000000000000000000000000000000000000000000000000000000                                                                                       00000000                                                                                                                    00000000000000000000000000000000000        000000000000                                                                                                                                                                                                                                                                                                                             I000000000001890                           000002
100099602043799295000110002692012101000600000000000000000000000000I816300000002279000055201210100200000826586602012101000000000000227933936070500202568S000                                                                                000000                                        000000000000000000000000000000000000000000000000000000000000000000000000000000000000000                                                                                       00000000                                                                                                                    00000000000000000000000000000000000        000000000000                                                                                                                                                                                                                                                                                                                             I000000000001889                           000003
100099602043799295000110002692012101000600000000000000000000000000I816500000002748000055201210100200000823130942012101000000000000274833936070500202568S000                                                                                000000                                        000000000000000000000000000000000000000000000000000000000000000000000000000000000000000                                                                                       00000000                                                                                                                    00000000000000000000000000000000000        000000000000                                                                                                                                                                                                                                                                                                                             I000000000001888                           000004
100099602043799295000110002692012101000600000000000000000000000000I816100000002800000055201210100200000819715002012101000000000000280033936070500202568S000                                                                                000000                                        000000000000000000000000000000000000000000000000000000000000000000000000000000000000000                                                                                       00000000                                                                                                                    00000000000000000000000000000000000        000000000000                                                                                                                                                                                                                                                                                                                             I000000000001887                           000005
100099602043799295000110002692012101000600000000000000000000000000I816600000007000000055201210100200000821225232012101000000000000700033936070500202568S000                                                                                000000                                        000000000000000000000000000000000000000000000000000000000000000000000000000000000000000                                                                                       00000000                                                                                                                    00000000000000000000000000000000000        000000000000                                                                                                                                                                                                                                                                                                                             I000000000001886                           000006
100099602043799295000110002692012101000600000000000000000000000000I816200000008297000055201210100200000825510252012101000000000000829733936070500202568S000                                                                                000000                                        000000000000000000000000000000000000000000000000000000000000000000000000000000000000000                                                                                       00000000                                                                                                                    00000000000000000000000000000000000        000000000000                                                                                                                                                                                                                                                                                                                             I000000000001885                           000007
100099602043799295000110002692012101000600000000000000000000000000I816500000008715000055201210100200000820887912012101000000000000871533936070500202568S000                                                                                000000                                        000000000000000000000000000000000000000000000000000000000000000000000000000000000000000                                                                                       00000000                                                                                                                    00000000000000000000000000000000000        000000000000                                                                                                                                                                                                                                                                                                                             I000000000001884                           000008
100099602043799295000110002692012101000600000000000000000000000000I816600000013860000055201210100200000826248392012101000000000001386033936070500202568S000                                                                                000000                                        000000000000000000000000000000000000000000000000000000000000000000000000000000000000000                                                                                       00000000                                                                                                                    00000000000000000000000000000000000        000000000000                                                                                                                                                                                                                                                                                                                             I000000000001883                           000009
100099602043799295000110002692012101000600000000000000000000000000I846500000032771025120121010003000001884367102012101000000000003277133936070500202568S000                                                                                000000                                        000000000000000000000000000000000000000000000000000000000000000000000000000000000000000                                                                                       00000000                                                                                                                    00000000000000000000000000000000000        000000000000                                                                                                                                                                                                                                                                                                                             I000000000001882                           000010
900099602043799295000110002692012101000001100000000000078807                                                                                                                                                                                                                                                                                                                                                                                                                                                                                                                                                                                                                                                                                                                                                                                                                                                                                                                                                                      000011
