00009960204379929500011000190201202102ALTAMIRA IND METALURGICA LTDA           116042200                                                                                                                                                                                                                                                                                                                                                                                                                                                                                                                                                                                                                                                                                                                                                                                      1084                                                                                                                                                 000001
100099602043799295000110001902012021000600000000000000000000000000I816100000000321000055201202100200000655766352012021000000000000032133936070500202568S000                                                                                000000                                        000000000000000000000000000000000000000000000000000000000000000000000000000000000000000                                                                                       00000000                                                                                                                    00000000000000000000000000000000000        000000000000                                                                                                                                                                                                                                                                                                                             I000000000001310                           000002
100099602043799295000110001902012021000600000000000000000000000000I816900000000412000055201202290100001234373902012021000000000000041233936070500202568S000                                                                                000000                                        000000000000000000000000000000000000000000000000000000000000000000000000000000000000000                                                                                       00000000                                                                                                                    00000000000000000000000000000000000        000000000000                                                                                                                                                                                                                                                                                                                             I000000000001309                           000003
100099602043799295000110001902012021000600000000000000000000000000I816700000000745000055201202100200000669372322012021000000000000074533936070500202568S000                                                                                000000                                        000000000000000000000000000000000000000000000000000000000000000000000000000000000000000                                                                                       00000000                                                                                                                    00000000000000000000000000000000000        000000000000                                                                                                                                                                                                                                                                                                                             I000000000001308                           000004
100099602043799295000110001902012021000600000000000000000000000000I816300000002800000055201202100200000655768212012021000000000000280033936070500202568S000                                                                                000000                                        000000000000000000000000000000000000000000000000000000000000000000000000000000000000000                                                                                       00000000                                                                                                                    00000000000000000000000000000000000        000000000000                                                                                                                                                                                                                                                                                                                             I000000000001307                           000005
100099602043799295000110001902012021000600000000000000000000000000I816100000002881000055201202100200000658012992012021000000000000288133936070500202568S000                                                                                000000                                        000000000000000000000000000000000000000000000000000000000000000000000000000000000000000                                                                                       00000000                                                                                                                    00000000000000000000000000000000000        000000000000                                                                                                                                                                                                                                                                                                                             I000000000001306                           000006
100099602043799295000110001902012021000600000000000000000000000000I816100000002925000055201202100200000655766192012021000000000000292533936070500202568S000                                                                                000000                                        000000000000000000000000000000000000000000000000000000000000000000000000000000000000000                                                                                       00000000                                                                                                                    00000000000000000000000000000000000        000000000000                                                                                                                                                                                                                                                                                                                             I000000000001305                           000007
100099602043799295000110001902012021000600000000000000000000000000I816400000003432000055201202100200000662248482012021000000000000343233936070500202568S000                                                                                000000                                        000000000000000000000000000000000000000000000000000000000000000000000000000000000000000                                                                                       00000000                                                                                                                    00000000000000000000000000000000000        000000000000                                                                                                                                                                                                                                                                                                                             I000000000001304                           000008
100099602043799295000110001902012021000600000000000000000000000000I816600000004942000055201202100200000655769022012021000000000000494233936070500202568S000                                                                                000000                                        000000000000000000000000000000000000000000000000000000000000000000000000000000000000000                                                                                       00000000                                                                                                                    00000000000000000000000000000000000        000000000000                                                                                                                                                                                                                                                                                                                             I000000000001303                           000009
100099602043799295000110001902012021000600000000000000000000000000I816700000005095000055201202100200000662302792012021000000000000509533936070500202568S000                                                                                000000                                        000000000000000000000000000000000000000000000000000000000000000000000000000000000000000                                                                                       00000000                                                                                                                    00000000000000000000000000000000000        000000000000                                                                                                                                                                                                                                                                                                                             I000000000001302                           000010
100099602043799295000110001902012021000600000000000000000000000000I816700000006484000055201202100200000669028892012021000000000000648433936070500202568S000                                                                                000000                                        000000000000000000000000000000000000000000000000000000000000000000000000000000000000000                                                                                       00000000                                                                                                                    00000000000000000000000000000000000        000000000000                                                                                                                                                                                                                                                                                                                             I000000000001301                           000011
100099602043799295000110001902012021000600000000000000000000000000I816400000006621000055201202100200000658254902012021000000000000662133936070500202568S000                                                                                000000                                        000000000000000000000000000000000000000000000000000000000000000000000000000000000000000                                                                                       00000000                                                                                                                    00000000000000000000000000000000000        000000000000                                                                                                                                                                                                                                                                                                                             I000000000001300                           000012
100099602043799295000110001902012021000600000000000000000000000000I816200000007000000055201202100200000662264682012021000000000000700033936070500202568S000                                                                                000000                                        000000000000000000000000000000000000000000000000000000000000000000000000000000000000000                                                                                       00000000                                                                                                                    00000000000000000000000000000000000        000000000000                                                                                                                                                                                                                                                                                                                             I000000000001299                           000013
100099602043799295000110001902012021000600000000000000000000000000I816100000009188000055201202100200000658253252012021000000000000918833936070500202568S000                                                                                000000                                        000000000000000000000000000000000000000000000000000000000000000000000000000000000000000                                                                                       00000000                                                                                                                    00000000000000000000000000000000000        000000000000                                                                                                                                                                                                                                                                                                                             I000000000001298                           000014
100099602043799295000110001902012021000600000000000000000000000000I816000000009632000055201202100200000669035832012021000000000000963233936070500202568S000                                                                                000000                                        000000000000000000000000000000000000000000000000000000000000000000000000000000000000000                                                                                       00000000                                                                                                                    00000000000000000000000000000000000        000000000000                                                                                                                                                                                                                                                                                                                             I000000000001297                           000015
100099602043799295000110001902012021000600000000000000000000000000I816000000009958000055201202100200000655772402012021000000000000995833936070500202568S000                                                                                000000                                        000000000000000000000000000000000000000000000000000000000000000000000000000000000000000                                                                                       00000000                                                                                                                    00000000000000000000000000000000000        000000000000                                                                                                                                                                                                                                                                                                                             I000000000001296                           000016
100099602043799295000110001902012021000600000000000000000000000000I846900000030857025120120210003000001754683072012021000000000003085733936070500202568S000                                                                                000000                                        000000000000000000000000000000000000000000000000000000000000000000000000000000000000000                                                                                       00000000                                                                                                                    00000000000000000000000000000000000        000000000000                                                                                                                                                                                                                                                                                                                             I000000000001293                           000017
100099602043799295000110001902012021000600000000000000000000000000I816500000033097000055201202100200000662241042012021000000000003309733936070500202568S000                                                                                000000                                        000000000000000000000000000000000000000000000000000000000000000000000000000000000000000                                                                                       00000000                                                                                                                    00000000000000000000000000000000000        000000000000                                                                                                                                                                                                                                                                                                                             I000000000001295                           000018
100099602043799295000110001902012021000600000000000000000000000000I816800000045792000055201202100200000662295302012021000000000004579233936070500202568S000                                                                                000000                                        000000000000000000000000000000000000000000000000000000000000000000000000000000000000000                                                                                       00000000                                                                                                                    00000000000000000000000000000000000        000000000000                                                                                                                                                                                                                                                                                                                             I000000000001294                           000019
100099602043799295000110001902012021000600000000000000000000000000I848800000497423008989246699999866357257114792012021000000000049742333936070500202568S000                                                                                000000                                        000000000000000000000000000000000000000000000000000000000000000000000000000000000000000                                                                                       00000000                                                                                                                    00000000000000000000000000000000000        000000000000                                                                                                                                                                                                                                                                                                                             I000000000001292                           000020
900099602043799295000110001902012021000002100000000000679605                                                                                                                                                                                                                                                                                                                                                                                                                                                                                                                                                                                                                                                                                                                                                                                                                                                                                                                                                                      000021
