00009960204379929500011000176201201102ALTAMIRA IND METALURGICA LTDA           115270600                                                                                                                                                                                                                                                                                                                                                                                                                                                                                                                                                                                                                                                                                                                                                                                      1080                                                                                                                                                 000001
100099602043799295000110001762012011000600000000000000000000000000I816700000000321000055201201100200000624785272012011000000000000032133936070500202568S000                                                                                000000                                        000000000000000000000000000000000000000000000000000000000000000000000000000000000000000                                                                                       00000000                                                                                                                    00000000000000000000000000000000000        000000000000                                                                                                                                                                                                                                                                                                                             I000000000001194                           000002
100099602043799295000110001762012011000600000000000000000000000000I816800000002800000055201201100200000629188022012011000000000000280033936070500202568S000                                                                                000000                                        000000000000000000000000000000000000000000000000000000000000000000000000000000000000000                                                                                       00000000                                                                                                                    00000000000000000000000000000000000        000000000000                                                                                                                                                                                                                                                                                                                             I000000000001195                           000003
100099602043799295000110001762012011000600000000000000000000000000I816300000002917000055201201100200000620665122012011000000000000291733936070500202568S000                                                                                000000                                        000000000000000000000000000000000000000000000000000000000000000000000000000000000000000                                                                                       00000000                                                                                                                    00000000000000000000000000000000000        000000000000                                                                                                                                                                                                                                                                                                                             I000000000001193                           000004
100099602043799295000110001762012011000600000000000000000000000000I816500000003662000055201201100200000624785192012011000000000000366233936070500202568S000                                                                                000000                                        000000000000000000000000000000000000000000000000000000000000000000000000000000000000000                                                                                       00000000                                                                                                                    00000000000000000000000000000000000        000000000000                                                                                                                                                                                                                                                                                                                             I000000000001192                           000005
100099602043799295000110001762012011000600000000000000000000000000I816100000004479000055201201100200000639870182012011000000000000447933936070500202568S000                                                                                000000                                        000000000000000000000000000000000000000000000000000000000000000000000000000000000000000                                                                                       00000000                                                                                                                    00000000000000000000000000000000000        000000000000                                                                                                                                                                                                                                                                                                                             I000000000001191                           000006
100099602043799295000110001762012011000600000000000000000000000000I816700000004550000055201201100200000629638322012011000000000000455033936070500202568S000                                                                                000000                                        000000000000000000000000000000000000000000000000000000000000000000000000000000000000000                                                                                       00000000                                                                                                                    00000000000000000000000000000000000        000000000000                                                                                                                                                                                                                                                                                                                             I000000000001190                           000007
100099602043799295000110001762012011000600000000000000000000000000I816000000005676000055201201100200000639876972012011000000000000567633936070500202568S000                                                                                000000                                        000000000000000000000000000000000000000000000000000000000000000000000000000000000000000                                                                                       00000000                                                                                                                    00000000000000000000000000000000000        000000000000                                                                                                                                                                                                                                                                                                                             I000000000001189                           000008
100099602043799295000110001762012011000600000000000000000000000000I816900000007000000055201201100200000629471952012011000000000000700033936070500202568S000                                                                                000000                                        000000000000000000000000000000000000000000000000000000000000000000000000000000000000000                                                                                       00000000                                                                                                                    00000000000000000000000000000000000        000000000000                                                                                                                                                                                                                                                                                                                             I000000000001188                           000009
100099602043799295000110001762012011000600000000000000000000000000I816900000007202000055201201100200000629471792012011000000000000720233936070500202568S000                                                                                000000                                        000000000000000000000000000000000000000000000000000000000000000000000000000000000000000                                                                                       00000000                                                                                                                    00000000000000000000000000000000000        000000000000                                                                                                                                                                                                                                                                                                                             I000000000001187                           000010
100099602043799295000110001762012011000600000000000000000000000000I816800000007781000055201201100200000638886212012011000000000000778133936070500202568S000                                                                                000000                                        000000000000000000000000000000000000000000000000000000000000000000000000000000000000000                                                                                       00000000                                                                                                                    00000000000000000000000000000000000        000000000000                                                                                                                                                                                                                                                                                                                             I000000000001186                           000011
100099602043799295000110001762012011000600000000000000000000000000I816000000008190000055201201100200000639093512012011000000000000819033936070500202568S000                                                                                000000                                        000000000000000000000000000000000000000000000000000000000000000000000000000000000000000                                                                                       00000000                                                                                                                    00000000000000000000000000000000000        000000000000                                                                                                                                                                                                                                                                                                                             I000000000001185                           000012
100099602043799295000110001762012011000600000000000000000000000000I816300000009026000055201201100200000628363772012011000000000000902633936070500202568S000                                                                                000000                                        000000000000000000000000000000000000000000000000000000000000000000000000000000000000000                                                                                       00000000                                                                                                                    00000000000000000000000000000000000        000000000000                                                                                                                                                                                                                                                                                                                             I000000000001184                           000013
100099602043799295000110001762012011000600000000000000000000000000I816700000010323000055201201100200000626012052012011000000000001032333936070500202568S000                                                                                000000                                        000000000000000000000000000000000000000000000000000000000000000000000000000000000000000                                                                                       00000000                                                                                                                    00000000000000000000000000000000000        000000000000                                                                                                                                                                                                                                                                                                                             I000000000001183                           000014
100099602043799295000110001762012011000600000000000000000000000000I846600000030957025120120110003000001738933612012011000000000003095733936070500202568S000                                                                                000000                                        000000000000000000000000000000000000000000000000000000000000000000000000000000000000000                                                                                       00000000                                                                                                                    00000000000000000000000000000000000        000000000000                                                                                                                                                                                                                                                                                                                             I000000000001197                           000015
100099602043799295000110001762012011000600000000000000000000000000I816400000032804000055201201100200000629996082012011000000000003280433936070500202568S000                                                                                000000                                        000000000000000000000000000000000000000000000000000000000000000000000000000000000000000                                                                                       00000000                                                                                                                    00000000000000000000000000000000000        000000000000                                                                                                                                                                                                                                                                                                                             I000000000001182                           000016
100099602043799295000110001762012011000600000000000000000000000000I848700000557233008996059299999870722219314512012011000000000055723333936070500202568S000                                                                                000000                                        000000000000000000000000000000000000000000000000000000000000000000000000000000000000000                                                                                       00000000                                                                                                                    00000000000000000000000000000000000        000000000000                                                                                                                                                                                                                                                                                                                             I000000000001196                           000017
900099602043799295000110001762012011000001800000000000694921                                                                                                                                                                                                                                                                                                                                                                                                                                                                                                                                                                                                                                                                                                                                                                                                                                                                                                                                                                      000018
