00009960204379929500011000261201209112ALTAMIRA IND METALURGICA LTDA           116405400                                                                                                                                                                                                                                                                                                                                                                                                                                                                                                                                                                                                                                                                                                                                                                                      1094                                                                                                                                                 000001
100099602043799295000110002612012091100600000000000000000000000000I816800000002222000055201209110200000819996342012091100000000000222233936070500202568S000                                                                                000000                                        000000000000000000000000000000000000000000000000000000000000000000000000000000000000000                                                                                       00000000                                                                                                                    00000000000000000000000000000000000        000000000000                                                                                                                                                                                                                                                                                                                             I000000000001849                           000002
100099602043799295000110002612012091100600000000000000000000000000I816500000002543000055201209110200000820027652012091100000000000254333936070500202568S000                                                                                000000                                        000000000000000000000000000000000000000000000000000000000000000000000000000000000000000                                                                                       00000000                                                                                                                    00000000000000000000000000000000000        000000000000                                                                                                                                                                                                                                                                                                                             I000000000001848                           000003
100099602043799295000110002612012091100600000000000000000000000000I816500000005000000055201209110200000819996692012091100000000000500033936070500202568S000                                                                                000000                                        000000000000000000000000000000000000000000000000000000000000000000000000000000000000000                                                                                       00000000                                                                                                                    00000000000000000000000000000000000        000000000000                                                                                                                                                                                                                                                                                                                             I000000000001847                           000004
100099602043799295000110002612012091100600000000000000000000000000I816300000006505000055201209110200000820013602012091100000000000650533936070500202568S000                                                                                000000                                        000000000000000000000000000000000000000000000000000000000000000000000000000000000000000                                                                                       00000000                                                                                                                    00000000000000000000000000000000000        000000000000                                                                                                                                                                                                                                                                                                                             I000000000001846                           000005
100099602043799295000110002612012091100600000000000000000000000000I816100000007023000055201209110200000820014082012091100000000000702333936070500202568S000                                                                                000000                                        000000000000000000000000000000000000000000000000000000000000000000000000000000000000000                                                                                       00000000                                                                                                                    00000000000000000000000000000000000        000000000000                                                                                                                                                                                                                                                                                                                             I000000000001845                           000006
100099602043799295000110002612012091100600000000000000000000000000I816900000011275000055201209110200000819997072012091100000000001127533936070500202568S000                                                                                000000                                        000000000000000000000000000000000000000000000000000000000000000000000000000000000000000                                                                                       00000000                                                                                                                    00000000000000000000000000000000000        000000000000                                                                                                                                                                                                                                                                                                                             I000000000001844                           000007
100099602043799295000110002612012091100600000000000000000000000000I816300000013510000033505536600303213260180472012091100000000001351033936070500202568S000                                                                                000000                                        000000000000000000000000000000000000000000000000000000000000000000000000000000000000000                                                                                       00000000                                                                                                                    00000000000000000000000000000000000        000000000000                                                                                                                                                                                                                                                                                                                             I000000000001852                           000008
100099602043799295000110002612012091100600000000000000000000000000I816800000013905000055201209110200000820014672012091100000000001390533936070500202568S000                                                                                000000                                        000000000000000000000000000000000000000000000000000000000000000000000000000000000000000                                                                                       00000000                                                                                                                    00000000000000000000000000000000000        000000000000                                                                                                                                                                                                                                                                                                                             I000000000001843                           000009
100099602043799295000110002612012091100600000000000000000000000000I816200000013945000055201209110200000819997232012091100000000001394533936070500202568S000                                                                                000000                                        000000000000000000000000000000000000000000000000000000000000000000000000000000000000000                                                                                       00000000                                                                                                                    00000000000000000000000000000000000        000000000000                                                                                                                                                                                                                                                                                                                             I000000000001842                           000010
100099602043799295000110002612012091100600000000000000000000000000I816300000021651000033505536600842213260180472012091100000000002165133936070500202568S000                                                                                000000                                        000000000000000000000000000000000000000000000000000000000000000000000000000000000000000                                                                                       00000000                                                                                                                    00000000000000000000000000000000000        000000000000                                                                                                                                                                                                                                                                                                                             I000000000001851                           000011
100099602043799295000110002612012091100600000000000000000000000000I816200000021652000033505536600834213260180472012091100000000002165233936070500202568S000                                                                                000000                                        000000000000000000000000000000000000000000000000000000000000000000000000000000000000000                                                                                       00000000                                                                                                                    00000000000000000000000000000000000        000000000000                                                                                                                                                                                                                                                                                                                             I000000000001850                           000012
100099602043799295000110002612012091100600000000000000000000000000I816700000046964000033505536600151213260180472012091100000000004696433936070500202568S000                                                                                000000                                        000000000000000000000000000000000000000000000000000000000000000000000000000000000000000                                                                                       00000000                                                                                                                    00000000000000000000000000000000000        000000000000                                                                                                                                                                                                                                                                                                                             I000000000001853                           000013
900099602043799295000110002612012091100001400000000000166195                                                                                                                                                                                                                                                                                                                                                                                                                                                                                                                                                                                                                                                                                                                                                                                                                                                                                                                                                                      000014
