00009960204379929500011000285201212112ALTAMIRA IND METALURGICA LTDA           117051500                                                                                                                                                                                                                                                                                                                                                                                                                                                                                                                                                                                                                                                                                                                                                                                      1094                                                                                                                                                 000001
100099602043799295000110002852012121100600000000000000000000000000I868900000004436010150861219443076245627315562012121100000000000443633936070500202568S000                                                                                000000                                        000000000000000000000000000000000000000000000000000000000000000000000000000000000000000                                                                                       00000000                                                                                                                    00000000000000000000000000000000000        000000000000                                                                                                                                                                                                                                                                                                                             I000000000001994                           000002
100099602043799295000110002852012121100600000000000000000000000000I848900000067644008922342099999945459801217682012121100000000006764433936070500202568S000                                                                                000000                                        000000000000000000000000000000000000000000000000000000000000000000000000000000000000000                                                                                       00000000                                                                                                                    00000000000000000000000000000000000        000000000000                                                                                                                                                                                                                                                                                                                             I000000000001992                           000003
100099602043799295000110002852012121100600000000000000000000000000I848500000083802008910137099999945360636117702012121100000000008380233936070500202568S000                                                                                000000                                        000000000000000000000000000000000000000000000000000000000000000000000000000000000000000                                                                                       00000000                                                                                                                    00000000000000000000000000000000000        000000000000                                                                                                                                                                                                                                                                                                                             I000000000001993                           000004
100099602043799295000110002852012121100600000000000000000000000000I826400000113749009713952013423181819434121122012121100000000011374933936070500202568S000                                                                                000000                                        000000000000000000000000000000000000000000000000000000000000000000000000000000000000000                                                                                       00000000                                                                                                                    00000000000000000000000000000000000        000000000000                                                                                                                                                                                                                                                                                                                             I000000000001990                           000005
100099602043799295000110002852012121100600000000000000000000000000I826800000141641009713952013422991012400121122012121100000000014164133936070500202568S000                                                                                000000                                        000000000000000000000000000000000000000000000000000000000000000000000000000000000000000                                                                                       00000000                                                                                                                    00000000000000000000000000000000000        000000000000                                                                                                                                                                                                                                                                                                                             I000000000001991                           000006
900099602043799295000110002852012121100000700000000000411272                                                                                                                                                                                                                                                                                                                                                                                                                                                                                                                                                                                                                                                                                                                                                                                                                                                                                                                                                                      000007
