00009960204379929500011000278201211122ALTAMIRA IND METALURGICA LTDA           117033600                                                                                                                                                                                                                                                                                                                                                                                                                                                                                                                                                                                                                                                                                                                                                                                      1094                                                                                                                                                 000001
100099602043799295000110002782012111200600000000000000000000000000I816600000000337000055201211120200000843956752012111200000000000033733936070500202568S000                                                                                000000                                        000000000000000000000000000000000000000000000000000000000000000000000000000000000000000                                                                                       00000000                                                                                                                    00000000000000000000000000000000000        000000000000                                                                                                                                                                                                                                                                                                                             I000000000001950                           000002
100099602043799295000110002782012111200600000000000000000000000000I816300000002406000055201211120200000843612152012111200000000000240633936070500202568S000                                                                                000000                                        000000000000000000000000000000000000000000000000000000000000000000000000000000000000000                                                                                       00000000                                                                                                                    00000000000000000000000000000000000        000000000000                                                                                                                                                                                                                                                                                                                             I000000000001949                           000003
100099602043799295000110002782012111200600000000000000000000000000I816700000002800000055201211120200000829772192012111200000000000280033936070500202568S000                                                                                000000                                        000000000000000000000000000000000000000000000000000000000000000000000000000000000000000                                                                                       00000000                                                                                                                    00000000000000000000000000000000000        000000000000                                                                                                                                                                                                                                                                                                                             I000000000001948                           000004
100099602043799295000110002782012111200600000000000000000000000000I816600000003761000055201211120200000847780512012111200000000000376133936070500202568S000                                                                                000000                                        000000000000000000000000000000000000000000000000000000000000000000000000000000000000000                                                                                       00000000                                                                                                                    00000000000000000000000000000000000        000000000000                                                                                                                                                                                                                                                                                                                             I000000000001947                           000005
100099602043799295000110002782012111200600000000000000000000000000I816000000004040000055201211120200000859732572012111200000000000404033936070500202568S000                                                                                000000                                        000000000000000000000000000000000000000000000000000000000000000000000000000000000000000                                                                                       00000000                                                                                                                    00000000000000000000000000000000000        000000000000                                                                                                                                                                                                                                                                                                                             I000000000001946                           000006
100099602043799295000110002782012111200600000000000000000000000000I816000000007000000055201211120200000843968762012111200000000000700033936070500202568S000                                                                                000000                                        000000000000000000000000000000000000000000000000000000000000000000000000000000000000000                                                                                       00000000                                                                                                                    00000000000000000000000000000000000        000000000000                                                                                                                                                                                                                                                                                                                             I000000000001945                           000007
100099602043799295000110002782012111200600000000000000000000000000I816400000007424000055201211120200000859716612012111200000000000742433936070500202568S000                                                                                000000                                        000000000000000000000000000000000000000000000000000000000000000000000000000000000000000                                                                                       00000000                                                                                                                    00000000000000000000000000000000000        000000000000                                                                                                                                                                                                                                                                                                                             I000000000001944                           000008
100099602043799295000110002782012111200600000000000000000000000000I816800000010091000055201211120200000843968842012111200000000001009133936070500202568S000                                                                                000000                                        000000000000000000000000000000000000000000000000000000000000000000000000000000000000000                                                                                       00000000                                                                                                                    00000000000000000000000000000000000        000000000000                                                                                                                                                                                                                                                                                                                             I000000000001943                           000009
100099602043799295000110002782012111200600000000000000000000000000I846300000032014025120121110003000001902193462012111200000000003201433936070500202568S000                                                                                000000                                        000000000000000000000000000000000000000000000000000000000000000000000000000000000000000                                                                                       00000000                                                                                                                    00000000000000000000000000000000000        000000000000                                                                                                                                                                                                                                                                                                                             I000000000001951                           000010
100099602043799295000110002782012111200600000000000000000000000000I816800000046512000055201211120200000843612072012111200000000004651233936070500202568S000                                                                                000000                                        000000000000000000000000000000000000000000000000000000000000000000000000000000000000000                                                                                       00000000                                                                                                                    00000000000000000000000000000000000        000000000000                                                                                                                                                                                                                                                                                                                             I000000000001942                           000011
100099602043799295000110002782012111200600000000000000000000000000I848400000070374008906482299999953905037917402012111200000000007037433936070500202568S000                                                                                000000                                        000000000000000000000000000000000000000000000000000000000000000000000000000000000000000                                                                                       00000000                                                                                                                    00000000000000000000000000000000000        000000000000                                                                                                                                                                                                                                                                                                                             I000000000001953                           000012
100099602043799295000110002782012111200600000000000000000000000000I848000000072414008920835599999963487556017072012111200000000007241433936070500202568S000                                                                                000000                                        000000000000000000000000000000000000000000000000000000000000000000000000000000000000000                                                                                       00000000                                                                                                                    00000000000000000000000000000000000        000000000000                                                                                                                                                                                                                                                                                                                             I000000000001952                           000013
100099602043799295000110002782012111200600000000000000000000000000I816800000262966000055201211120200000833366832012111200000000026296633936070500202568S000                                                                                000000                                        000000000000000000000000000000000000000000000000000000000000000000000000000000000000000                                                                                       00000000                                                                                                                    00000000000000000000000000000000000        000000000000                                                                                                                                                                                                                                                                                                                             I000000000001941                           000014
900099602043799295000110002782012111200001500000000000522139                                                                                                                                                                                                                                                                                                                                                                                                                                                                                                                                                                                                                                                                                                                                                                                                                                                                                                                                                                      000015
