00009960204379929500011000205201203122ALTAMIRA IND METALURGICA LTDA           115040900                                                                                                                                                                                                                                                                                                                                                                                                                                                                                                                                                                                                                                                                                                                                                                                      1084                                                                                                                                                 000001
100099602043799295000110002052012031200600000000000000000000000000I816600000000321000055201203120200000677239372012031200000000000032133936070500202568S000                                                                                000000                                        000000000000000000000000000000000000000000000000000000000000000000000000000000000000000                                                                                       00000000                                                                                                                    00000000000000000000000000000000000        000000000000                                                                                                                                                                                                                                                                                                                             I000000000001418                           000002
100099602043799295000110002052012031200600000000000000000000000000I816400000002250000055201203120200000677315142012031200000000000225033936070500202568S000                                                                                000000                                        000000000000000000000000000000000000000000000000000000000000000000000000000000000000000                                                                                       00000000                                                                                                                    00000000000000000000000000000000000        000000000000                                                                                                                                                                                                                                                                                                                             I000000000001416                           000003
100099602043799295000110002052012031200600000000000000000000000000I816800000002250000055201203120200000669037882012031200000000000225033936070500202568S000                                                                                000000                                        000000000000000000000000000000000000000000000000000000000000000000000000000000000000000                                                                                       00000000                                                                                                                    00000000000000000000000000000000000        000000000000                                                                                                                                                                                                                                                                                                                             I000000000001417                           000004
100099602043799295000110002052012031200600000000000000000000000000I816000000002800000055201203120200000669601532012031200000000000280033936070500202568S000                                                                                000000                                        000000000000000000000000000000000000000000000000000000000000000000000000000000000000000                                                                                       00000000                                                                                                                    00000000000000000000000000000000000        000000000000                                                                                                                                                                                                                                                                                                                             I000000000001415                           000005
100099602043799295000110002052012031200600000000000000000000000000I816800000003283000055201203120200000669563852012031200000000000328333936070500202568S000                                                                                000000                                        000000000000000000000000000000000000000000000000000000000000000000000000000000000000000                                                                                       00000000                                                                                                                    00000000000000000000000000000000000        000000000000                                                                                                                                                                                                                                                                                                                             I000000000001414                           000006
100099602043799295000110002052012031200600000000000000000000000000I816300000004813000055201203120200000674468602012031200000000000481333936070500202568S000                                                                                000000                                        000000000000000000000000000000000000000000000000000000000000000000000000000000000000000                                                                                       00000000                                                                                                                    00000000000000000000000000000000000        000000000000                                                                                                                                                                                                                                                                                                                             I000000000001413                           000007
100099602043799295000110002052012031200600000000000000000000000000I816500000005246000055201203120200000677553832012031200000000000524633936070500202568S000                                                                                000000                                        000000000000000000000000000000000000000000000000000000000000000000000000000000000000000                                                                                       00000000                                                                                                                    00000000000000000000000000000000000        000000000000                                                                                                                                                                                                                                                                                                                             I000000000001412                           000008
100099602043799295000110002052012031200600000000000000000000000000I816600000005367000055201203120200000674418692012031200000000000536733936070500202568S000                                                                                000000                                        000000000000000000000000000000000000000000000000000000000000000000000000000000000000000                                                                                       00000000                                                                                                                    00000000000000000000000000000000000        000000000000                                                                                                                                                                                                                                                                                                                             I000000000001411                           000009
100099602043799295000110002052012031200600000000000000000000000000I816900000006484000055201203120200000700065072012031200000000000648433936070500202568S000                                                                                000000                                        000000000000000000000000000000000000000000000000000000000000000000000000000000000000000                                                                                       00000000                                                                                                                    00000000000000000000000000000000000        000000000000                                                                                                                                                                                                                                                                                                                             I000000000001410                           000010
100099602043799295000110002052012031200600000000000000000000000000I816400000008272000055201203120200000677318402012031200000000000827233936070500202568S000                                                                                000000                                        000000000000000000000000000000000000000000000000000000000000000000000000000000000000000                                                                                       00000000                                                                                                                    00000000000000000000000000000000000        000000000000                                                                                                                                                                                                                                                                                                                             I000000000001409                           000011
100099602043799295000110002052012031200600000000000000000000000000I816700000009632000055201203120200000677240382012031200000000000963233936070500202568S000                                                                                000000                                        000000000000000000000000000000000000000000000000000000000000000000000000000000000000000                                                                                       00000000                                                                                                                    00000000000000000000000000000000000        000000000000                                                                                                                                                                                                                                                                                                                             I000000000001408                           000012
100099602043799295000110002052012031200600000000000000000000000000I816500000013576000055201203120200000674465422012031200000000001357633936070500202568S000                                                                                000000                                        000000000000000000000000000000000000000000000000000000000000000000000000000000000000000                                                                                       00000000                                                                                                                    00000000000000000000000000000000000        000000000000                                                                                                                                                                                                                                                                                                                             I000000000001407                           000013
100099602043799295000110002052012031200600000000000000000000000000I816100000014950000055201203120200000677549642012031200000000001495033936070500202568S000                                                                                000000                                        000000000000000000000000000000000000000000000000000000000000000000000000000000000000000                                                                                       00000000                                                                                                                    00000000000000000000000000000000000        000000000000                                                                                                                                                                                                                                                                                                                             I000000000001406                           000014
100099602043799295000110002052012031200600000000000000000000000000I816500000015700000055201203120200000684240462012031200000000001570033936070500202568S000                                                                                000000                                        000000000000000000000000000000000000000000000000000000000000000000000000000000000000000                                                                                       00000000                                                                                                                    00000000000000000000000000000000000        000000000000                                                                                                                                                                                                                                                                                                                             I000000000001405                           000015
100099602043799295000110002052012031200600000000000000000000000000I816000000022221000055201203120200000677240892012031200000000002222133936070500202568S000                                                                                000000                                        000000000000000000000000000000000000000000000000000000000000000000000000000000000000000                                                                                       00000000                                                                                                                    00000000000000000000000000000000000        000000000000                                                                                                                                                                                                                                                                                                                             I000000000001404                           000016
100099602043799295000110002052012031200600000000000000000000000000I816900000022721000055201203120200000677318322012031200000000002272133936070500202568S000                                                                                000000                                        000000000000000000000000000000000000000000000000000000000000000000000000000000000000000                                                                                       00000000                                                                                                                    00000000000000000000000000000000000        000000000000                                                                                                                                                                                                                                                                                                                             I000000000001403                           000017
100099602043799295000110002052012031200600000000000000000000000000I846500000030957025120120310003000001770215992012031200000000003095733936070500202568S000                                                                                000000                                        000000000000000000000000000000000000000000000000000000000000000000000000000000000000000                                                                                       00000000                                                                                                                    00000000000000000000000000000000000        000000000000                                                                                                                                                                                                                                                                                                                             I000000000001402                           000018
100099602043799295000110002052012031200600000000000000000000000000I816000000079404000055201203120200000674468362012031200000000007940433936070500202568S000                                                                                000000                                        000000000000000000000000000000000000000000000000000000000000000000000000000000000000000                                                                                       00000000                                                                                                                    00000000000000000000000000000000000        000000000000                                                                                                                                                                                                                                                                                                                             I000000000001401                           000019
100099602043799295000110002052012031200600000000000000000000000000I848700000570817008907703799999861891507815092012031200000000057081733936070500202568S000                                                                                000000                                        000000000000000000000000000000000000000000000000000000000000000000000000000000000000000                                                                                       00000000                                                                                                                    00000000000000000000000000000000000        000000000000                                                                                                                                                                                                                                                                                                                             I000000000001400                           000020
900099602043799295000110002052012031200002100000000000821064                                                                                                                                                                                                                                                                                                                                                                                                                                                                                                                                                                                                                                                                                                                                                                                                                                                                                                                                                                      000021
