00009960204379929500011000246201207182ALTAMIRA IND METALURGICA LTDA           115035200                                                                                                                                                                                                                                                                                                                                                                                                                                                                                                                                                                                                                                                                                                                                                                                      1094                                                                                                                                                 000001
100099602043799295000110002462012071800600000000000000000000000000I846200000007076102911000229528550071201207182012071800000000000707633936070500202568S000                                                                                000000                                        000000000000000000000000000000000000000000000000000000000000000000000000000000000000000                                                                                       00000000                                                                                                                    00000000000000000000000000000000000        000000000000                                                                                                                                                                                                                                                                                                                             I000000000001728                           000002
100099602043799295000110002462012071800600000000000000000000000000I848100000568903008929886399999984425624716322012071800000000056890333936070500202568S000                                                                                000000                                        000000000000000000000000000000000000000000000000000000000000000000000000000000000000000                                                                                       00000000                                                                                                                    00000000000000000000000000000000000        000000000000                                                                                                                                                                                                                                                                                                                             I000000000001727                           000003
900099602043799295000110002462012071800000400000000000575979                                                                                                                                                                                                                                                                                                                                                                                                                                                                                                                                                                                                                                                                                                                                                                                                                                                                                                                                                                      000004
