00009960204379929500011000207201203192ALTAMIRA IND METALURGICA LTDA           115060500                                                                                                                                                                                                                                                                                                                                                                                                                                                                                                                                                                                                                                                                                                                                                                                      1084                                                                                                                                                 000001
100099602043799295000110002072012031900600000000000000000000000000I846400000007076102911000229528550031251203182012031900000000000707633936070500202568S000                                                                                000000                                        000000000000000000000000000000000000000000000000000000000000000000000000000000000000000                                                                                       00000000                                                                                                                    00000000000000000000000000000000000        000000000000                                                                                                                                                                                                                                                                                                                             I000000000001422                           000002
900099602043799295000110002072012031900000300000000000007076                                                                                                                                                                                                                                                                                                                                                                                                                                                                                                                                                                                                                                                                                                                                                                                                                                                                                                                                                                      000003
