00009960204379929500011000240201206252ALTAMIRA IND METALURGICA LTDA           116212800                                                                                                                                                                                                                                                                                                                                                                                                                                                                                                                                                                                                                                                                                                                                                                                      1094                                                                                                                                                 000001
100099602043799295000110002402012062500600000000000000000000000000I868600000004436010150861216470830245610408232012062500000000000443633936070500202568S000                                                                                000000                                        000000000000000000000000000000000000000000000000000000000000000000000000000000000000000                                                                                       00000000                                                                                                                    00000000000000000000000000000000000        000000000000                                                                                                                                                                                                                                                                                                                             I000000000001693                           000002
100099602043799295000110002402012062500600000000000000000000000000I868900000004436010150861216470959245610408282012062500000000000443633936070500202568S000                                                                                000000                                        000000000000000000000000000000000000000000000000000000000000000000000000000000000000000                                                                                       00000000                                                                                                                    00000000000000000000000000000000000        000000000000                                                                                                                                                                                                                                                                                                                             I000000000001694                           000003
100099602043799295000110002402012062500600000000000000000000000000I848000000070381008915889999999989130875516162012062600000000007038133936070500202568S000                                                                                000000                                        000000000000000000000000000000000000000000000000000000000000000000000000000000000000000                                                                                       00000000                                                                                                                    00000000000000000000000000000000000        000000000000                                                                                                                                                                                                                                                                                                                             I000000000001695                           000004
900099602043799295000110002402012062500000500000000000079253                                                                                                                                                                                                                                                                                                                                                                                                                                                                                                                                                                                                                                                                                                                                                                                                                                                                                                                                                                      000005
