00009960204379929500011000211201203282ALTAMIRA IND METALURGICA LTDA           115041500                                                                                                                                                                                                                                                                                                                                                                                                                                                                                                                                                                                                                                                                                                                                                                                      1094                                                                                                                                                 000001
100099602043799295000110002112012032800600000000000000000000000000I826400000128107009713872013422991914454120322012032800000000012810733936070500202568S000                                                                                000000                                        000000000000000000000000000000000000000000000000000000000000000000000000000000000000000                                                                                       00000000                                                                                                                    00000000000000000000000000000000000        000000000000                                                                                                                                                                                                                                                                                                                             I000000000001468                           000002
100099602043799295000110002112012032800600000000000000000000000000I826700000152101009713872013423181613495120322012032800000000015210133936070500202568S000                                                                                000000                                        000000000000000000000000000000000000000000000000000000000000000000000000000000000000000                                                                                       00000000                                                                                                                    00000000000000000000000000000000000        000000000000                                                                                                                                                                                                                                                                                                                             I000000000001467                           000003
900099602043799295000110002112012032800000400000000000280208                                                                                                                                                                                                                                                                                                                                                                                                                                                                                                                                                                                                                                                                                                                                                                                                                                                                                                                                                                      000004
