00009960204379929500011000231201205302ALTAMIRA IND METALURGICA LTDA           114231400                                                                                                                                                                                                                                                                                                                                                                                                                                                                                                                                                                                                                                                                                                                                                                                      1094                                                                                                                                                 000001
100099602043799295000110002312012053000600000000000000000000000000I826000000099313009713892013423181010478120522012053000000000009931333936070500202568S000                                                                                000000                                        000000000000000000000000000000000000000000000000000000000000000000000000000000000000000                                                                                       00000000                                                                                                                    00000000000000000000000000000000000        000000000000                                                                                                                                                                                                                                                                                                                             I000000000001614                           000002
100099602043799295000110002312012053000600000000000000000000000000I826500000204889009713892013422991314455120522012053000000000020488933936070500202568S000                                                                                000000                                        000000000000000000000000000000000000000000000000000000000000000000000000000000000000000                                                                                       00000000                                                                                                                    00000000000000000000000000000000000        000000000000                                                                                                                                                                                                                                                                                                                             I000000000001613                           000003
900099602043799295000110002312012053000000400000000000304202                                                                                                                                                                                                                                                                                                                                                                                                                                                                                                                                                                                                                                                                                                                                                                                                                                                                                                                                                                      000004
