00009960204379929500011000257201208302ALTAMIRA IND METALURGICA LTDA           117292100                                                                                                                                                                                                                                                                                                                                                                                                                                                                                                                                                                                                                                                                                                                                                                                      1094                                                                                                                                                 000001
100099602043799295000110002572012083000600000000000000000000000000I858200000041645023920120831206257905694110192012083000000000004164533936070500202568S000                                                                                000000                                        000000000000000000000000000000000000000000000000000000000000000000000000000000000000000                                                                                       00000000                                                                                                                    00000000000000000000000000000000000        000000000000                                                                                                                                                                                                                                                                                                                             I000000000001821                           000002
900099602043799295000110002572012083000000300000000000041645                                                                                                                                                                                                                                                                                                                                                                                                                                                                                                                                                                                                                                                                                                                                                                                                                                                                                                                                                                      000003
