0000147602043799295000110ALTAMIRA IND METALURGICA LTDA           201005150000020121001133231             0    230A                                                                                                                                                                                                                                                                                                                                                                                            000001
12043799295000110ALTAMIRA INDUSTRIA METAL.LTDA.RUA. GANGES, 528                        0344503010401603900000000002564 I000000000009960000000000000000               201210010000000000000000000000000000000000000000900000000000000000000000000000000000050000000002  0820121001   01          0001400                                                                              D0000000101                             0002                                                       00000  0020256        000002
12043799295000110ALTAMIRA INDUSTRIA METAL.LTDA.RUA. GANGES, 528                        0344503074500090 0000021421935  I000000000009961000000000000000               201210010000000000000000000000000000000000000000800000000000000000000000000000000000050000000003  0820121001   01          0001400                                                                              D0000000101                             0003                                                       00000  0020256        000003
12043799295000110ALTAMIRA INDUSTRIA METAL.LTDA.RUA. GANGES, 528                        0344503039900198 000000000096330I000000000009962000000000000000               201210010000000000000000000000000000000000000000900000000000000000000000000000000000050000000004  0820121001   01          0001400                                                                              D0000000101                             0004                                                       00000  0020256        000004
12007806416000140MAXMETA PART.EMPREEND.LTDA.   RUA. GANGES, 528                        0344503003303809500000130002347 I000000000009963000000000000000               201210010000000000000000000000000000000000000000500000000000000000000000000000000000050000000005  0820121001   01          0001400                                                                              C0000000101                             0005                                                       00000  0020256        000005
12000867888000164TECNEQUIP TECNOLOGIA EQUIP.LTDRUA. GANGES,                            0344503003303809500000130003245 I000000000009964000000000000000               201210010000000000000000000000000000000000000001200000000000000000000000000000000000050000000006  0820121001   01          0001400                                                                              C0000000101                             0006                                                       00000  0020256        000006
12013529495000192MAXMIRA CONTROLE E ADM.LTDA.  RUA. JUNO, 533                          0344500034100467 00000000012340 I000000000009965000000000000000               201210010000000000000000000000000000000000000000800000000000000000000000000000000000050000000007  0820121001   01          0001400                                                                              C0000000101                             0007                                                       00000  0020256        000007
900000800000000005100000                                                                                                                                                                                                                                                                                                                                                                                                                                                                                      000008
