0000147602043799295000110ALTAMIRA IND METALURGICA LTDA           201005170000020121002180958             0    230A                                                                                                                                                                                                                                                                                                                                                                                            000001
12005151518000140BELENUS DO BRASIL LTDA.       RUA.COMENDADOR JOAO LUCAS, 300          1328000000100000 0000000000000  I000000000009967000000000000000               201210020000000000000000054740000254544000000000254544000000000000000000000000000000010000301705  3120121002   01          000                                                                                  000000123933844037505183159             00301705/01                                                00000  0020256        000002
12005214618000178VISION GESTAO EMP E FOM MERCAN                                        0000000023700088400000000730084 I000000000009968002000880016153               201210020000000000000000054740000131300000000000131300000000000000000000000000000000010000000218  3120121002   01          000                                                                                  008802008800161530073008099             000218                                                     00000  0020256        000003
12006209559000102MAZURKY IND.COM.EMBALAGENS LTDRUA. DAS ORQUIDEAS, 475                 0981039034100000 0000000000000  I000000000009969000000000000000               201210020000000000000000054740000094374000000000094374000000000000000000000000000000010000010076  3120121002   01          000                                                                                  181552316727151434240900019             00010076/02                                                00000  0020256        000004
12009441975000120SPEEDY CRED FOMENTO MERCANTIL                                         0000000023700094900000000990744 I000000000009970002013223607491               201210020000000000000000054740000069376000000000069376000000000000000000000000000000010000002868  3120121002   01          000                                                                                  009402132236074910099074019             002868/01                                                  00000  0020256        000005
12069284248000128ISOCOAT TINTAS E VERNIZES LTDARUA. COM.GIUSEPPE MARCHIORI, 2189       1814700034100000 0000000000000  I000000000009971000000000000000               201210020000000000000000054740000048458000000000048458000000000000000000000000000000010000053390  3120121002   01          000                                                                                  181553149534077430121200039             00053390                                                   00000  0020256        000006
12056993512000150CYKLOP DO BRASIL EMBALAG. S/A.RUA. ALTO PARANA, 131                   0968705034100000 0000000000000  I000000000009972000000000000000               201210020000000000000000054740000083914000000000083914000000000000000000000000000000010000134931  3120121002   01          000                                                                                  181553156129025738464400029             000134932                                                  00000  0020256        000007
12005753978000148HUMAN SERV.COMUN.MOVEL LTDA.  RUA. FELIX DA CUNHA, 836 - SL.102       9057000034100000 0000000000000  I000000000009973000000000000000               201210030000000000000000054750000013000000000000013000000000000000000000000000000000010000100853  3120121002   01          000                                                                                  109001008539057948896600019             00100853                                                   00000  0020256        000008
12007068566000102NIVEL EMPREGOS LTDA.          AV.CELSO GARCIA, 03830                  0306400023700097300000003053792 I000000000009974000000000000000               201210020000000000000000000000000000000000000000200000000000000000000000000000000000030000002778  0120121002   01          000                                                                                                                          00NF.NRO.2778 - PARC.01.                                   00000 10020256        000009
11258214076000072CELSO BERNARDO DA CRUZ.       RUA.PADRE DONIZETTI T.LIMA, 274         0000000023700092200000067722248 I000000000009975000000000000000               201210020000000000000000000000000000000000000000030000000000000000000000000000000000050000092012  0120121002   01          000                                                                                                                          00REF.SETEMBRO/2012.                                       00000 20020256        000010
12056428188000128EDVALDO SANTOS ROSA ME        RUA MONTALVANIA, 364                    0393009523700898200000000005622 I000000000009976009011225700666               201210020000000000000000054740000092544000000000092544000000000000000000000000000000010000194196  3120121002   01          000                                                                                  089809112257006660000562059             001949196                                                  00000  0020256        000011
12017469701000177ARCELORMITTAL BRASIL S A                                              0000000034100000 0000000000000  I000000000009977000000000000000               201210020000000000000000054740000064982000000000064982000000000000000000000000000000010000127881  3120121002   01          000                                                                                  109323310850293802529900039             00127881/03                                                00000  0020256        000012
900001300000000001082492                                                                                                                                                                                                                                                                                                                                                                                                                                                                                      000013
