0000147602043799295000110ALTAMIRA IND METALURGICA LTDA           201004590000020120802173859             0    230A                                                                                                                                                                                                                                                                                                                                                                                            000001
12006000195000156MBA MERCANTIL BRASIL.ACO LTDA.RUA. RINCAO, 220                        0365108023700118000000002128292 I000000000009299028021840000002               201208020000000000000000054130000862785000000000862785000000000000000000000000000000010000008760  3120120802   01          000                                                                                  011828218400000020212829019             008760/01                                                  00000  0020256        000002
12056993900000131CIA METALURGICA PRADA                                                 0000000034100000 0000000000000  I000000000009300000000000000000               201208020000000000000000054130000844155000000000844155000000000000000000000000000000010000245847  3120120802   01          000                                                                                  181516119561293800573900059             000245847/02                                               00000  0020256        000003
12004135061000117TEMA LOCACAO DE EQUIP LTDA EPP                                        0000000034100000 0000000000000  I000000000009301000000000000000               201208020000000000000000054130000495464000000000495464000000000000000000000000000000010000000262  3120120802   01          000                                                                                  181516112104315023906300069             000262/03                                                  00000  0020256        000004
12005151518000140BELENUS DO BRASIL LTDA.       RUA.COMENDADOR JOAO LUCAS, 300          1328000023703389800000000015091 I000000000009302009021300000522               201208020000000000000000054130000466884000000000466884000000000000000000000000000000010000262484  3120120802   01          000                                                                                  338909213000005220001509019             000262484/03                                               00000  0020256        000005
12012006058000121WEG TINTAS LTDA.              ROD. BR. 280 - KM.50 - S/N.             8927000023702727800000000001309 I000000000009303009021700000101               201208020000000000000000054130000461693000000000461693000000000000000000000000000000010000145154  3120120802   01          000                                                                                  272709217000001010000130029             000145154/01                                               00000  0020256        000006
12056993900000131CIA METALURGICA PRADA                                                 0000000034100000 0000000000000  I000000000009304000000000000000               201208020000000000000000054130000397933000000000397933000000000000000000000000000000010000245857  3120120802   01          000                                                                                  181516122615293800573900029             000245857/02                                               00000  0020256        000007
12042956441000101SOLUCOES EM ACO USIMINAS S/A. RUA. DIANOPOLIS, 670/710                0312510034100000 0000000000000  I000000000009305000000000000000               201208020000000000000000054130000387179000000000387179000000000000000000000000000000010000163012  3120120802   01          000                                                                                  181516115517293807258000089             000163012/02                                               00000  0020256        000008
12056993900000131CIA METALURGICA PRADA                                                 0000000034100000 0000000000000  I000000000009306000000000000000               201208020000000000000000054130000344036000000000344036000000000000000000000000000000010000252955  3120120802   01          000                                                                                  181516086653293800573900079             000252955/01                                               00000  0020256        000009
12012006058000121WEG TINTAS LTDA.              ROD. BR. 280 - KM.50 - S/N.             8927000023702727800000000001309 I000000000009307009021660000070               201208020000000000000000054130000308609000000000308609000000000000000000000000000000010000144548  3120120802   01          000                                                                                  272709216600000700000130059             000144548/01                                               00000  0020256        000010
12012006058000121WEG TINTAS LTDA.              ROD. BR. 280 - KM.50 - S/N.             8927000023702727800000000001309 I000000000009308009021380000097               201208020000000000000000054130000307886000000000307886000000000000000000000000000000010000138147  3120120802   01          000                                                                                  272709213800000970000130019             000138147/03                                               00000  0020256        000011
12006000195000156MBA MERCANTIL BRASIL.ACO LTDA.RUA. RINCAO, 220                        0365108023700118000000002128292 I000000000009309028021840000009               201208020000000000000000054130000273651000000000273651000000000000000000000000000000010000008753  3120120802   01          000                                                                                  011828218400000090212829079             0008753/01                                                 00000  0020256        000012
12056993900000131CIA METALURGICA PRADA                                                 0000000034100000 0000000000000  I000000000009310000000000000000               201208020000000000000000054130000219825000000000219825000000000000000000000000000000010000245725  3120120802   01          000                                                                                  181516088030293800573900059             000245725/02                                               00000  0020256        000013
12042956441000101SOLUCOES EM ACO USIMINAS S/A. RUA. DIANOPOLIS, 670/710                0312510034100000 0000000000000  I000000000009311000000000000000               201208020000000000000000054130000197876000000000197876000000000000000000000000000000010000163010  3120120802   01          000                                                                                  181516117323293807258000039             000163010/02                                               00000  0020256        000014
12056993900000131CIA METALURGICA PRADA                                                 0000000034100000 0000000000000  I000000000009312000000000000000               201208020000000000000000054130000156433000000000156433000000000000000000000000000000010000252956  3120120802   01          000                                                                                  181516100736293800573900019             000252956/01                                               00000  0020256        000015
12056993900000131CIA METALURGICA PRADA                                                 0000000034100000 0000000000000  I000000000009313000000000000000               201208020000000000000000054130000155041000000000155041000000000000000000000000000000010000252954  3120120802   01          000                                                                                  181516103763293800573900089             000252954/01                                               00000  0020256        000016
12056993900000131CIA METALURGICA PRADA                                                 0000000034100000 0000000000000  I000000000009314000000000000000               201208020000000000000000054130000141578000000000141578000000000000000000000000000000010000252957  3120120802   01          000                                                                                  181516109786293800573900099             000252957/01                                               00000  0020256        000017
12096500087000135WORKBENCH CONSULTORIA S/S LTDARUA. ANTONIO MAZZONI, 151               0601823034100000 0000000000000  I000000000009315000000000000000               201208020000000000000000054130000133300000000000133300000000000000000000000000000000010000003001  3120120802   01          000                                                                                  181516122559826313803700049             003001                                                     00000  0020256        000018
12069284248000128ISOCOAT TINTAS E VERNIZES LTDARUA. COM.GIUSEPPE MARCHIORI, 2189       1814700034100000 0000000000000  I000000000009316000000000000000               201208020000000000000000054130000134388000000000134388000000000000000000000000000000010000050534  3120120802   01          000                                                                                  181516123915077430121200059             00050534/02                                                00000  0020256        000019
12001895314000162COLETA INDUSTRIAL FIMAVAN LTDARUA. SOLEDADE. 149/197                  0722421034100000 0000000000000  I000000000009317000000000000000               201208020000000000000000054130000130649000000000130649000000000000000000000000000000010000008468  3120120802   01          000                                                                                  181515574158144604097200039             008468                                                     00000  0020256        000020
12000193273000108TECELAGEM ROMA LTDA           R PROF ALZA ORSI AVALONE, 230           1827676023700284400000000410977 I000000000009318009000000015810               201208020000000000000000054130000126486000000000126486000000000000000000000000000000010000016213  3120120802   01          000                                                                                  028409000000158100041097089             00016213/01                                                00000  0020256        000021
12071580302000124SANCHEPEL IND.PAULISTA LTDA.  RUA. MARIA FRANC.DE JESUS, 101          0809001034100000 0000000000000  I000000000009319000000000000000               201208020000000000000000054130000113452000000000113452000000000000000000000000000000010000007125  3120120802   01          000                                                                                  181516124617007855578600059             0007125                                                    00000  0020256        000022
12001784706000154TRANSPORTADORA WARTHA LTDA    RUA CRISTOVAO BEZERRA DANTAS 1093       0227001023701775200000000260010 I000000000009320028021910000314               201208020000000020120802054130000107961000000000098000000000000009961000000000000000010002553051  3120120802   01          000                                                                                  177528219100003140026001049             0002553051                                                 00000  0020256        000023
12006209559000102MAZURKY IND.COM.EMBALAGENS LTDRUA. DAS ORQUIDEAS, 475                 0981039034100000 0000000000000  I000000000009321000000000000000               201208020000000000000000054130000085440000000000085440000000000000000000000000000000010000009600  3120120802   01          000                                                                                  181515570139151434240900019             0009600/01                                                 00000  0020256        000024
11748900188000091JOAO CARLOS COLUCO DE LIMA.   RUA. AMERICO SALVADOR NOVELLI, 154 - CJ.0821009023700423500000000631361 I000000000009322000000000000000               201208020000000000000000000000000000000000000000083800000000000000000000000000000000010000000394  0120120802   01          000                                                                                                                          0003694                                                    00000 10020256        000025
11258214076000072CELSO BERNARDO DA CRUZ.       RUA.PADRE DONIZETTI T.LIMA, 274         0000000023700092200000067722248 I000000000009323000000000000000               201208020000000000000000000000000000000000000000030000000000000000000000000000000000050000022012  0120120802   01          000                                                                                                                          00REF.JULHO/2012.                                          00000 20020256        000026
12006209559000102MAZURKY IND.COM.EMBALAGENS LTDRUA. DAS ORQUIDEAS, 475                 0981039034100000 0000000000000  I000000000009324000000000000000               201208020000000000000000054130000053321000000000053321000000000000000000000000000000010000009517  3120120802   01          000                                                                                  181515570618151434240900019             0009517/02                                                 00000  0020256        000027
12011202309000180FIEL TOOLS DISTRIB.DE MAQ.FERRESTRADA SANTA ISABEL, 3242              0859900023702087700000000000116 I000000000009325028000020181482               201208020000000000000000054130000047668000000000047668000000000000000000000000000000010000008148  3120120802   01          000                                                                                  208728000201814820000011029             0008148/01                                                 00000  0020256        000028
12062340989000130EDICOES ADUANEIRAS LTDA.      RUA. DA CONSOLACAO, 77 - 7.AND.         0130100023703090200000000015660 I000000000009326009080000035028               201208020000000000000000054130000043816000000000043816000000000000000000000000000000010000004262  3120120802   01          000                                                                                  309009800000350280001566039             0004262/02                                                 00000  0020256        000029
12061217188000119TELAS METALICAS TELMETAL LTDA.RUA.ALDEIA DA PRATA, 38                 0368008000100000 0000000000000  I000000000009327000000000000000               201208020000000000000000054130000051810000000000051810000000000000000000000000000000010000005193  3120120802   01          000                                                                                  000000115031800000053791719             0005193/03                                                 00000  0020256        000030
12061217188000119TELAS METALICAS TELMETAL LTDA.RUA.ALDEIA DA PRATA, 38                 0368008000100000 0000000000000  I000000000009328000000000000000               201208020000000000000000054130000043768000000000043768000000000000000000000000000000010000005194  3120120802   01          000                                                                                  000000115031800000053821729             0005194/03                                                 00000  0020256        000031
12061217188000119TELAS METALICAS TELMETAL LTDA.RUA.ALDEIA DA PRATA, 38                 0368008000100000 0000000000000  I000000000009329000000000000000               201208020000000000000000054130000037583000000000037583000000000000000000000000000000010000005195  3120120802   01          000                                                                                  000000115031800000053851719             0005195/03                                                 00000  0020256        000032
12009419898000101LUSITANO IND.COM.EMBAL.PLAST. RUA. MARCILIO DE OLIVEIRA, 105          1397101234100000 0000000000000  I000000000009330000000000000000               201208020000000000000000054130000035663000000000035663000000000000000000000000000000010000009530  3120120802   01          000                                                                                  181516127494001101608600059             0009530/02                                                 00000  0020256        000033
12061763124000113COMERCIO TAMBORES PICILLO LTDARUA.CAPITAO PACHECO CHAVES, 723         0312600134100000 0000000000000  I000000000009331000000000000000               201208020000000000000000054130000021726000000000021726000000000000000000000000000000010000004046  3120120802   01          000                                                                                  181516128030005608672100019             0004046                                                    00000  0020256        000034
12006000195000156MBA MERCANTIL BRASIL.ACO LTDA.RUA. RINCAO, 220                        0365108023700118000000002128292 I000000000009332000000000000000               201208020000000000000000000000000000000000000001184938000000000000000000000000000000010000008181  0120120802   01          000                                                                                                                          0008181/03                                                 00000 10020256        000035
12006000195000156MBA MERCANTIL BRASIL.ACO LTDA.RUA. RINCAO, 220                        0365108023700118000000002128292 I000000000009333028021840000021               201208020000000000000000054130000363851000000000363851000000000000000000000000000000010000008735  3120120802   01          000                                                                                  011828218400000210212829069             0008735/001                                                00000  0020256        000036
12007068566000102NIVEL EMPREGOS LTDA.          AV.CELSO GARCIA, 03830                  0306400023700097300000003053792 I000000000009334000000000000000               201208020000000000000000000000000000000000000000632760000000000000000000000000000000010000002727  0120120802   01          000                                                                                                                          00NF.NRO.2727- PARC.01.                                    00000 10020256        000037
11053970358000031REINALDO CAMACHO RAMOS.       RUA. FAUSTOLO, 1760                     0504100123706698200000000021229 I000000000009335000000000000000               201208020000000000000000000000000000000000000000082000000000000000000000000000000000010000004104  0120120802   01          000                                                                                                                          0004104                                                    00000 10020256        000038
12061217188000119TELAS METALICAS TELMETAL LTDA.RUA.ALDEIA DA PRATA, 38                 0368008034100000 0000000000000  I000000000009336000000000000000               201208020000000000000000054130000172633000000000172633000000000000000000000000000000010000005293  3120120802   01          000                                                                                  181515959044077099894600019             0005293/01-03                                              00000  0020256        000039
12061217188000119TELAS METALICAS TELMETAL LTDA.RUA.ALDEIA DA PRATA, 38                 0368008034100000 0000000000000  I000000000009337000000000000000               201208020000000000000000054130000010750000000000010750000000000000000000000000000000010000005291  3120120802   01          000                                                                                  181515957261077099894600049             0005291/01-03.                                             00000  0020256        000040
12061217188000119TELAS METALICAS TELMETAL LTDA.RUA.ALDEIA DA PRATA, 38                 0368008034100000 0000000000000  I000000000009338000000000000000               201208020000000000000000054130000055832000000000055832000000000000000000000000000000010000005292  3120120802   01          000                                                                                  181515958251077099894600049             0005292/01-03                                              00000  0020256        000041
900004200000000009794662                                                                                                                                                                                                                                                                                                                                                                                                                                                                                      000042
