0000147602043799295000110ALTAMIRA IND METALURGICA LTDA           201004880000020120904180350             0    230A                                                                                                                                                                                                                                                                                                                                                                                            000001
12007358761004741GERDAU ACOS LONGOS S/A.       AV.BORGES DE MEDEIROS, 650              9321211023702028100000006041051 I000000000009714016002820172301               201209050000000000000000054470000284051000000000284051000000000000000000000000000000010000017230  3120120904   01          000                                                                                  202816028201723010604105079             00017230                                                   00000  0020256        000002
12071580302000124SANCHEPEL IND.PAULISTA LTDA.  RUA. MARIA FRANC.DE JESUS, 101          0809001034100000 0000000000000  I000000000009715000000000000000               201209040000000000000000054460000200361000000000200361000000000000000000000000000000010000007346  3120120904   01          000                                                                                  181535073001007855578600049             007346                                                     00000  0020256        000003
12014309992000148WEG DRIVES   CONTROLS   AUTOMA                                        0000000023702727800000000001872 I000000000009716009022080000297               201209040000000000000000054460000108840000000000108840000000000000000000000000000000010000073796  3120120904   01          000                                                                                  272709220800002970000187019             00083796/01                                                00000  0020256        000004
12014309992000148WEG DRIVES   CONTROLS   AUTOMA                                        0000000023702727800000000001872 I000000000009717009021460000243               201209040000000000000000054460000028052000000000028052000000000000000000000000000000010000045661  3120120904   01          000                                                                                  272709214600002430000187049             0004866102                                                 00000  0020256        000005
900000600000000000621304                                                                                                                                                                                                                                                                                                                                                                                                                                                                                      000006
