0000147602043799295000110ALTAMIRA IND METALURGICA LTDA           201005190000020121004091220             0    230A                                                                                                                                                                                                                                                                                                                                                                                            000001
12043799295000110ALTAMIRA INDUSTRIA METAL.LTDA.RUA. GANGES, 528                        0344503003303809500000130004071 I000000000009982000000000000000               201210040000000000000000000000000000000000000007000000000000000000000000000000000000050000000000  0820121004   01          0001000                                                                              D0000000101                             0001                                                       00000  0020256        000002
900000300000000007000000                                                                                                                                                                                                                                                                                                                                                                                                                                                                                      000003
