0000147602043799295000110ALTAMIRA IND METALURGICA LTDA           201005500000020121105165355             0    230A                                                                                                                                                                                                                                                                                                                                                                                            000001
12042956441000101SOLUCOES ACO USIMINAS                                                 0000000034100000000000000000000000000000846595720000002210880300016980503     201211050000000000000000055080000156071000000000156071000000000000000000000000000000050000000000  3020121105   01          500                                                                                  112210880301293807258000029010000       000169805/03                                               01321  0020256        000002
12042956441000101SOLUCOES ACO USIMINAS                                                 0000000034100000000000000000000000000000846595730000002210880310016980603     201211050000000000000000055080000426094000000000426094000000000000000000000000000000050000000000  3020121105   01          500                                                                                  112210880319293807258000069010000       000169806/03                                               01321  0020256        000003
12035820448000136WHITE MARTINS GASES INDUSTRIAI                                        0000000023700026400000003937925 0000000087820600009022540001838377866 001     201210040000000000000000054760000202876000000000209109000000000000000000000000006233050000000000  3020121105   01          500RUA GANGES  528                                                                   010000                   000000000000000009105                                                     00598  0020256        000004
12047190731000100DE CASTRO LOUREIRO ENGENHARIA                                         0000000023703394400000000205508 000000008801225300202255000001203026794 0     201211050000000000000000055080001209130000000001209130000000000000000000000000000000050000000000  3020121105   01          500RUA JUNO  533                                                                     010000                   0000000000000000026794/01                                                 00598  0020256        000005
12047190731000100DE CASTRO LOUREIRO ENGENHARIA                                         0000000023703394400000000205508 000000008801225600202255000001503026795 0     201211050000000000000000055080001207555000000001207555000000000000000000000000000000050000000000  3020121105   01          500RUA JUNO  533                                                                     010000                   00000000000000000026795/01                                                00598  0020256        000006
12035820448000136WHITE MARTINS GASES INDUSTRIAI                                        0000000023700026400000003937925 0000000088191338009022570001466379316 001     201210090000000000000000054810000085208000000000087668000000000000000000000000002460050000000000  3020121105   01          500RUA GANGES  528                                                                   010000                   000000000000000009130                                                     00598  0020256        000007
12069284248000128ISOCOAT TINTAS E VERNIZES LTDA                                        0000000034100000000000000000000000000000888732890000002421485710055761        201211050000000000000000055080000107324000000000107324000000000000000000000000000000050000000000  3020121105   01          500                                                                                  112421485718077430121200079010000       00055761/01                                                01321  0020256        000008
12035820448000136WHITE MARTINS GASES INDUSTRIAI                                        0000000023700026400000003937925 0000000089605045009022790001498389880 001     201211010000000000000000055040000040575000000000041442000000000000000000000000000867050000000000  3020121105   01          500RUA GANGES  528                                                                   010000                   000000000000000009255/1                                                   00598  0020256        000009
12047190731000100DE CASTRO LOUR ENG IND LTDA                                           00000000341000000000000000000000000000008996247800000024766209103027184 0     201211020000000000000000055050001153047000000001153047000000000000000000000000000000050000000000  3020121105   01          500                                                                                  112476620912036884500400019010000       0027184/01                                                 01321  0020256        000010
12047190731000100DE CASTRO LOUREIRO ENGENHARIA                                         0000000003300000 0000000000000  I000000000010122000000000000000               201211050000000000000000055080000551107000000000551107000000000000000000000000000000010000026796  3120121105   01          000                                                                                  948430370000009553118010449             00026796/01                                                00000  0020256        000011
12011777156000108LOGBEM TRANSPORTES LTDA.      RUA.CONSELHEIRO CANDIDO DE OLIVEIRA, 4230509301000100000 0000000000000  I000000000010123000000000000000               201211050000000000000000055080000230000000000000230000000000000000000000000000000000050000000295  3120121105   01          000                                                                                  000000220975900000002951739             00295/12                                                   00000  0020256        000012
11997198433000049ANTONIA PEREIRA SANTANA.      TRAV.TERRAS DO SUL, 147                 0834435023700298400000005101263 I000000000010124000000000000000               201211050000000000000000000000000000000000000000033348000000000000000000000000000000050000000010  0120121105   01          000                                                                                                                          00PENSAO REF.10/2012.                                      00000 10020256        000013
12004643290000142FLEXTINTAS IND. E COM. LTDA   ESTRADA DR. IRINEU DE RESENDE KM 2.5    1812597034100000 0000000000000  I000000000010125000000000000000               201211050000000000000000055080000050680000000000050680000000000000000000000000000000010000037938  3120121105   01          000                                                                                  181573026371051356781800089             0037938/A                                                  00000  0020256        000014
900001500000000005462575                                                                                                                                                                                                                                                                                                                                                                                                                                                                                      000015
