0000147602043799295000110ALTAMIRA IND METALURGICA LTDA           201005820000020121206111200             0    230A                                                                                                                                                                                                                                                                                                                                                                                            000001
12043799295000110ALTAMIRA INDUSTRIA METAL.LTDA.RUA. GANGES, 528                        0344503003303809500000130004071 I000000000010294000000000000000               201212060000000000000000000000000000000000000000300000000000000000000000000000000000050000000001  0820121206   01          0001150                                                                              D0000000101                             0001                                                       00000  0020256        000002
900000300000000000300000                                                                                                                                                                                                                                                                                                                                                                                                                                                                                      000003
