0000147602043799295000110ALTAMIRA IND METALURGICA LTDA           201005560000020121108110506             0    230A                                                                                                                                                                                                                                                                                                                                                                                            000001
12043799295000110ALTAMIRA INDUSTRIA METAL.LTDA.RUA. GANGES, 528                        0344503003303809500000130004071 I000000000010168000000000000000               201211080000000000000000000000000000000000000004000000000000000000000000000000000000050000000001  0820121108   01          0001200                                                                              D0000000101                             0001                                                       00000  0020256        000002
900000300000000004000000                                                                                                                                                                                                                                                                                                                                                                                                                                                                                      000003
