0000147602043799295000110ALTAMIRA IND METALURGICA LTDA           201005230000020121009172616             0    230A                                                                                                                                                                                                                                                                                                                                                                                            000001
12061600839000155CENTRO DE INT EMPRESA ESCOLA C                                        0000000023703391P00000000866202 00000000880122440090000036173097641C 0001     201209300000000000000000054720000016800000000000017295000000000000000000000000000495050000000000  3020121009   01          500R GANGES  528                                                                     010000                   00000000000000000                                                         00598  0020256        000002
12011013187000184PRIME RAV FOMENTO MERCANTIL LT                                        0000000034100000 0000000000000  I000000000009993000000000000000               201210090000000000000000054810000254178000000000254178000000000000000000000000000000010000000667  3120121009   01          000                                                                                  181556966428005770252400099             00667                                                      00000  0020256        000003
12001895314000162COLETA INDUSTRIAL FIMAVAN LTDARUA. SOLEDADE. 149/197                  0722421034100000 0000000000000  I000000000009994000000000000000               201210090000000000000000054810000166356000000000166356000000000000000000000000000000010000010405  3120121009   01          000                                                                                  181556971248144604097200049             0010405                                                    00000  0020256        000004
12006209559000102MAZURKY IND.COM.EMBALAGENS LTDRUA. DAS ORQUIDEAS, 475                 0981039034100000 0000000000000  I000000000009995000000000000000               201210090000000000000000054810000094373000000000094373000000000000000000000000000000010000010076  3120121009   01          000                                                                                  181557009244151434240900029             0010076/03                                                 00000  0020256        000005
12062173661000176INDUFIX IND.E COM.LTDA.       RUA. DOS ALPES, 181                     0152003023704130000000000085898 I000000000009996007022540000135               201210090000000000000000054810000071540000000000071540000000000000000000000000000000010000038151  3120121009   01          000                                                                                  413007225400001350008589079             0038151/01                                                 00000  0020256        000006
12061612735000160IMP.TEIXEIRA FERRAGENS LTDA.  RUA. PAULA SOUZA, 293                   0102700134100000 0000000000000  I000000000009997000000000000000               201210090000000000000000054810000030780000000000030780000000000000000000000000000000010000086481  3120121009   01          000                                                                                  181557213666000442318200069             0086481                                                    00000  0020256        000007
12013656578000142GUARINOR TRANSP E LOGISTICA LT                                        0000000010400000 0000000000000  I000000000009998000000000000000               201210090000000000000000054810000016550000000000016550000000000000000000000000000000050000006703  3120121009   01          000                                                                                  900000096732958700000017349             00CONHEC.NRO.6703.                                         00000  0020256        000008
12060737301000124SERRALHERIA SEPETIBA LTDA.    AV.DR.MAURO LINDENBERG MONTEIRO, 168    0627801023700368900000000503509 I000000000009999000000000000000               201210090000000000000000000000000000000000000000057440000000000000000000000000000000010000000316  0120121009   01          000                                                                                                                          00NF.NRO.316 - PARC.03.                                    00000 10020256        000009
12003498897000202TELECOMUNICACOES DE SAO PAULO                                         0000000023702372800000000360082 I000000000010000019066000896113               201210090000000000000000054810000331198000000000331198000000000000000000000000000000010033019660  3120121009   01          000                                                                                  237219660008961130036008049             0033019660                                                 00000  0020256        000010
900001100000000001039710                                                                                                                                                                                                                                                                                                                                                                                                                                                                                      000011
