0000147602043799295000110ALTAMIRA IND METALURGICA LTDA           201004630000020120809175820             0    230A                                                                                                                                                                                                                                                                                                                                                                                            000001
12035820448000136WHITE MARTINS GASES INDUSTRIAI                                        0000000023700026400000003937925 0000000084172562009021910000022348496 001     201208020000000000000000054130000040575000000000041764000000000000000000000000001189050000000000  3020120809   01          500RUA GANGES  528                                                                   010000                   000000000000000008727                                                     00598  0020256        000002
12006000195000156MBA MERCANTIL BRASIL.ACO LTDA.RUA. RINCAO, 220                        0365108023700118000000002128292 I000000000009406000000000000000               201208090000000000000000000000000000000000000000907830000000000000000000000000000000010000008207  0120120809   01          000                                                                                                                          008207 - PARC.03/03.                                       00000 10020256        000003
12006000195000156MBA MERCANTIL BRASIL.ACO LTDA.RUA. RINCAO, 220                        0365108023700118000000002128292 I000000000009407000000000000000               201208090000000000000000000000000000000000000000596770000000000000000000000000000000010000008455  0120120809   01          000                                                                                                                          008455 - PARC.02/03.                                       00000 10020256        000004
12006000195000156MBA MERCANTIL BRASIL.ACO LTDA.RUA. RINCAO, 220                        0365108023700118000000002128292 I000000000009408000000000000000               201208090000000000000000000000000000000000000000582257000000000000000000000000000000010000008737  0120120809   01          000                                                                                                                          0008737 - PARC.01/03.                                      00000 10020256        000005
12006000195000156MBA MERCANTIL BRASIL.ACO LTDA.RUA. RINCAO, 220                        0365108023700118000000002128292 I000000000009409009021570000054               201208090000000000000000054200000442454000000000442454000000000000000000000000000000010000008454  3120120809   01          000                                                                                  011809215700000540212829099             008454/02                                                  00000  0020256        000006
12053585766000575MULTIACOS IND.COM.PROD.LTDA.  AV.PAPA JOAO XXIII, 1460 - A            0937080034100000 0000000000000  I000000000009410000000000000000               201208090000000000000000054200000420873000000000420873000000000000000000000000000000010000042946  3120120809   01          000                                                                                  181520139223124804291100089             00042946/01                                                00000  0020256        000007
12066899790000105FAB.ART.DE LATEX ESTR.EP.LTDA.ROD.QUINTINO DE LIMA KM.08              1813000039900000 0000000000000  I000000000009411000000000000000               201208090000000000000000054200000371360000000000371360000000000000000000000000000000010000070239  3120120809   01          000                                                                                  175298168471125027292500169             00070239/03                                                00000  0020256        000008
12053585766000575MULTIACOS IND.COM.PROD.LTDA.  AV.PAPA JOAO XXIII, 1460 - A            0937080000100000 0000000000000  I000000000009412000000000000000               201208090000000000000000054200000178897000000000178897000000000000000000000000000000010000041394  3120120809   01          000                                                                                  043886823061912000139523169             00041394/03                                                00000  0020256        000009
12006000195000156MBA MERCANTIL BRASIL.ACO LTDA.RUA. RINCAO, 220                        0365108023700118000000002128292 I000000000009413009021580000004               201208090000000000000000054200000168075000000000168075000000000000000000000000000000010000008495  3120120809   01          000                                                                                  011809215800000040212829099             0008495/02                                                 00000  0020256        000010
12053585766000575MULTIACOS IND.COM.PROD.LTDA.  AV.PAPA JOAO XXIII, 1460 - A            0937080000100000 0000000000000  I000000000009414000000000000000               201208090000000000000000054200000123109000000000123109000000000000000000000000000000010000042704  3120120809   01          000                                                                                  043886823871912000139523119             00042704/01                                                00000  0020256        000011
12006209559000102MAZURKY IND.COM.EMBALAGENS LTDRUA. DAS ORQUIDEAS, 475                 0981039034100000 0000000000000  I000000000009415000000000000000               201208090000000000000000054200000085440000000000085440000000000000000000000000000000010000009600  3120120809   01          000                                                                                  181519703686151434240900099             0009600/02                                                 00000  0020256        000012
12017469701000177ARCELORMITTAL BRASIL S A                                              0000000034100000 0000000000000  I000000000009416000000000000000               201208090000000000000000054200000063897000000000063897000000000000000000000000000000010000124632  3120120809   01          000                                                                                  181520177234293802529900019             000124632/02                                               00000  0020256        000013
12061217188000119TELAS METALICAS TELMETAL LTDA.RUA.ALDEIA DA PRATA, 38                 0368008034100000 0000000000000  I000000000009417000000000000000               201208090000000000000000054200000055830000000000055830000000000000000000000000000000010000005292  3120120809   01          000                                                                                  181520172500077099894600089             0005292/02-03.                                             00000  0020256        000014
12006209559000102MAZURKY IND.COM.EMBALAGENS LTDRUA. DAS ORQUIDEAS, 475                 0981039034100000 0000000000000  I000000000009418000000000000000               201208090000000000000000054200000053321000000000053321000000000000000000000000000000010000009517  3120120809   01          000                                                                                  181519704692151434240900049             0009517/03                                                 00000  0020256        000015
12001852612000175BT.PRODUTOS INDS.LTDA.        AV.CELSO GARCIA, 4553                   0306300000100000 0000000000000  I000000000009419000000000000000               201208090000000000000000054200000032525000000000032525000000000000000000000000000000010000043518  3120120809   01          000                                                                                  043900246870511000085971179             00043518/01                                                00000  0020256        000016
12061217188000119TELAS METALICAS TELMETAL LTDA.RUA.ALDEIA DA PRATA, 38                 0368008034100000 0000000000000  I000000000009420000000000000000               201208090000000000000000054200000010748000000000010748000000000000000000000000000000010000005291  3120120809   01          000                                                                                  181520175487077099894600019             0005291/02-03                                              00000  0020256        000017
12001966855000134MOVITTEC IND.COM.LTDA.        RUA. JOSE ALVES DE CASTRO, 487          9175009023700797800000000589276 I000000000009421000000000000000               201208090000000000000000000000000000000000000000190875000000000000000000000000000000010000000079  0120120809   01          000                                                                                                                          00079                                                      00000 10020256        000018
12042956441000101SOLUCOES EM ACO USIMINAS S/A. RUA. DIANOPOLIS, 670/710                0312510034100000 0000000000000  I000000000009422000000000000000               201208090000000000000000054200001163660000000001163660000000000000000000000000000000010000158574  3120120809   01          000                                                                                  181520247777293807258000099             000158574/03                                               00000  0020256        000019
12042956441000101SOLUCOES EM ACO USIMINAS S/A. RUA. DIANOPOLIS, 670/710                0312510034100000 0000000000000  I000000000009423000000000000000               201208090000000000000000054200001148745000000001148745000000000000000000000000000000010000168912  3120120809   01          000                                                                                  181520248676293807258000069             000168912/01                                               00000  0020256        000020
12042956441000101SOLUCOES EM ACO USIMINAS S/A. RUA. DIANOPOLIS, 670/710                0312510034100000 0000000000000  I000000000009424000000000000000               201208090000000000000000054200001144481000000001144481000000000000000000000000000000010000168915  3120120809   01          000                                                                                  181520249989293807258000059             000168915/01                                               00000  0020256        000021
12042956441000101SOLUCOES EM ACO USIMINAS S/A. RUA. DIANOPOLIS, 670/710                0312510034100000 0000000000000  I000000000009425000000000000000               201208090000000000000000054200000868804000000000868804000000000000000000000000000000010000158976  3120120809   01          000                                                                                  181520250771293807258000099             000158976/03                                               00000  0020256        000022
12042956441000101SOLUCOES EM ACO USIMINAS S/A. RUA. DIANOPOLIS, 670/710                0312510034100000 0000000000000  I000000000009426000000000000000               201208090000000000000000054200000806608000000000806608000000000000000000000000000000010000168914  3120120809   01          000                                                                                  181520251829293807258000019             000168914/01                                               00000  0020256        000023
12042956441000101SOLUCOES EM ACO USIMINAS S/A. RUA. DIANOPOLIS, 670/710                0312510034100000 0000000000000  I000000000009427000000000000000               201208090000000000000000054200000550626000000000550626000000000000000000000000000000010000158770  3120120809   01          000                                                                                  181520253957293807258000019             000158770/03                                               00000  0020256        000024
12006209559000102MAZURKY IND.COM.EMBALAGENS LTDRUA. DAS ORQUIDEAS, 475                 0981039034100000 0000000000000  I000000000009428000000000000000               201208090000000000000000054200000059517000000000059517000000000000000000000000000000010000016495  3120120809   01          000                                                                                  181520217215021116926300089             00016495/01                                                00000  0020256        000025
12042956441000101SOLUCOES EM ACO USIMINAS S/A. RUA. DIANOPOLIS, 670/710                0312510034100000 0000000000000  I000000000009429000000000000000               201208090000000000000000054200000539442000000000539442000000000000000000000000000000010000168849  3120120809   01          000                                                                                  181520255028293807258000039             000168849/01                                               00000  0020256        000026
12042956441000101SOLUCOES EM ACO USIMINAS S/A. RUA. DIANOPOLIS, 670/710                0312510034100000 0000000000000  I000000000009430000000000000000               201208090000000000000000054200000239832000000000239832000000000000000000000000000000010000158918  3120120809   01          000                                                                                  181520255853293807258000059             000158918/03                                               00000  0020256        000027
12042956441000101SOLUCOES EM ACO USIMINAS S/A. RUA. DIANOPOLIS, 670/710                0312510034100000 0000000000000  I000000000009431000000000000000               201208090000000000000000054200000222868000000000222868000000000000000000000000000000010000168851  3120120809   01          000                                                                                  181520256547293807258000079             000168851/01                                               00000  0020256        000028
12042956441000101SOLUCOES EM ACO USIMINAS S/A. RUA. DIANOPOLIS, 670/710                0312510034100000 0000000000000  I000000000009432000000000000000               201208090000000000000000054200000137610000000000137610000000000000000000000000000000010000158917  3120120809   01          000                                                                                  181520257362293807258000019             000158917/03                                               00000  0020256        000029
12042956441000101SOLUCOES EM ACO USIMINAS S/A. RUA. DIANOPOLIS, 670/710                0312510034100000 0000000000000  I000000000009433000000000000000               201208090000000000000000054200000122335000000000122335000000000000000000000000000000010000168848  3120120809   01          000                                                                                  181520258089293807258000019             000168848/01                                               00000  0020256        000030
12006000195000156MBA MERCANTIL BRASIL.ACO LTDA.RUA. RINCAO, 220                        0365108023700118000000002128292 I000000000009434000000000000000               201208090000000000000000000000000000000000000000549460000000000000000000000000000000010000008513  0120120809   01          000                                                                                                                          0008513/02                                                 00000 10020256        000031
12012006058000121WEG TINTAS LTDA.              ROD. BR. 280 - KM.50 - S/N.             8927000023702727800000000001309 I000000000009435009021770000107               201208090000000000000000054200000461693000000000461693000000000000000000000000000000010000146856  3120120809   01          000                                                                                  272709217700001070000130029             000146856/01                                               00000  0020256        000032
12042956441000101SOLUCOES EM ACO USIMINAS S/A. RUA. DIANOPOLIS, 670/710                0312510034100000 0000000000000  I000000000009436000000000000000               201208090000000000000000054200000805582000000000805582000000000000000000000000000000010000159436  3120120809   01          000                                                                                  181520277006293807258000019             000159436/03                                               00000  0020256        000033
12005151518000140BELENUS DO BRASIL LTDA.       RUA.COMENDADOR JOAO LUCAS, 300          1328000000100000 0000000000000  I000000000009437000000000000000               201208090000000000000000054200000468405000000000468405000000000000000000000000000000010000274200  3120120809   01          000                                                                                  000000123933843815032233139             000274200/02                                               00000  0020256        000034
12067647412000199ANCORA CHUMBADORES LTDA.      AV. DA SAUDADE, 690                     1328000034100000 0000000000000  I000000000009438000000000000000               201208090000000000000000054200000353440000000000353440000000000000000000000000000000010000055988  3120120809   01          000                                                                                  181520275071013626917200049             00055988/01                                                00000  0020256        000035
12071580302000124SANCHEPEL IND.PAULISTA LTDA.  RUA. MARIA FRANC.DE JESUS, 101          0809001034100000 0000000000000  I000000000009439000000000000000               201208090000000000000000054200000178460000000000178460000000000000000000000000000000010000007170  3120120809   01          000                                                                                  181520274333007855578600019             0007170/01                                                 00000  0020256        000036
12006000195000156MBA MERCANTIL BRASIL.ACO LTDA.RUA. RINCAO, 220                        0365108034100000 0000000000000  I000000000009440000000000000000               201208090000000000000000054200000169131000000000169131000000000000000000000000000000010000008235  3120120809   01          000                                                                                  499008681052064849251000049             0008235/03                                                 00000  0020256        000037
12008455344000105SANCHES BRITO TRANSPORTES LTDA                                        0000000003300000 0000000000000  I000000000009441000000000000000               201208090000000000000000054200000253300000000000253300000000000000000000000000000000050000003579  3120120809   01          000                                                                                  939443100000000000686020179             00CONHEC.NRO.3579.                                         00000  0020256        000038
12087867545000188TRANSPORTADORA ROCHA LTDA                                             0000000003300000 0000000000000  I000000000009442000000000000000               201208090000000000000000054200000066474000000000066474000000000000000000000000000000050000148800  3120120809   01          000                                                                                  905395200000001347896010149             00CONHEC.148800                                            00000  0020256        000039
12042956441000101SOLUCOES EM ACO USIMINAS S/A. RUA. DIANOPOLIS, 670/710                0312510034100000 0000000000000  I000000000009443000000000000000               201208090000000000000000054200000482119000000000482119000000000000000000000000000000010000158545  3120120809   01          000                                                                                  181520280596293807258000049             000158545/03                                               00000  0020256        000040
12042956441000101SOLUCOES EM ACO USIMINAS S/A. RUA. DIANOPOLIS, 670/710                0312510034100000 0000000000000  I000000000009444000000000000000               201208090000000000000000054200000440051000000000440051000000000000000000000000000000010000158546  3120120809   01          000                                                                                  181520281347293807258000079             000158546/03                                               00000  0020256        000041
12042956441000101SOLUCOES EM ACO USIMINAS S/A. RUA. DIANOPOLIS, 670/710                0312510034100000 0000000000000  I000000000009445000000000000000               201208090000000000000000054200000182009000000000182009000000000000000000000000000000010000169029  3120120809   01          000                                                                                  181520281883293807258000049             000169029/01                                               00000  0020256        000042
12009121184000112BBGE COBRANCA LTDA                                                    0000000023700368900000001026402 I000000000009447009021860000084               201208090000000000000000054200000157698000000000157698000000000000000000000000000000010000002581  3120120809   01          000                                                                                  036809218600000840102640049             002581/03                                                  00000  0020256        000043
12035820448000136WHITE MARTINS GASES IND.LTDA. AV. AUTONOMISTAS, 4192                  0609001523700026400000003937925 I000000000009448009021910000296               201208090000000000000000054200000058397000000000058397000000000000000000000000000000010000008736  3120120809   01          000                                                                                  002609219100002960393792099             0008736                                                    00000  0020256        000044
12003465008000111TEIXEIRA & SIMAO LTDA.        RUA. BELMIRO BRAGA, S/N.                0722411023702514300000000046221 I000000000009449009025141290445               201208090000000000000000000000000000000000000000280000000000000000000000000000000000050000027584  3120120809   01          000                                                                                  251409251412904450004622019             0027584                                                    00000  0020256        000045
12000193273000108TECELAGEM ROMA LTDA           R PROF ALZA ORSI AVALONE, 230           1827676023700284400000000410977 I000000000009450009000000015811               201208090000000000000000054200000126486000000000126486000000000000000000000000000000010000016213  3120120809   01          000                                                                                  028409000000158110041097049             00162213/01                                                00000  0020256        000046
12045577855000118ROVELA IND E COMERCIO LTDA                                            0000000034100000 0000000000000  I000000000009451000000000000000               201208090000000000000000054200000326340000000000326340000000000000000000000000000000010000003994  3120120809   01          000                                                                                  181520320106045274986400019             0003994                                                    00000  0020256        000047
12046705844000139TRANSPORTADORA DEPOLLI LTDA.  RUA. UNIAO, 364                         1320665034100000 0000000000000  I000000000009452000000000000000               201208090000000000000000054200000048576000000000048576000000000000000000000000000000010012002967  3120120809   01          000                                                                                  181520320510158604003000029             0012002967                                                 00000  0020256        000048
12003277412000161MAC LUZ COML.ELETRICA LTDA.   RUA.LUTECIA, 409                        0342300034100000 0000000000000  I000000000009453000000000000000               201208090000000000000000054200000018384000000000018384000000000000000000000000000000010000006565  3120120809   01          000                                                                                  181519660407007486592400069             006565/03                                                  00000  0020256        000049
12045351418000181TRANSPORTE RODOR LTDA         AV MARGINAL ESQUERDA 777                1462000034100000 0000000000000  I000000000009454000000000000000               201208090000000000000000054200000004108000000000004108000000000000000000000000000000010000298863  3120120809   01          000                                                                                  181520320791005820000700049             00298863/01                                                00000  0020256        000050
900005100000000016760666                                                                                                                                                                                                                                                                                                                                                                                                                                                                                      000051
