0000147602043799295000110ALTAMIRA IND METALURGICA LTDA           201005260000020121010172304             0    230A                                                                                                                                                                                                                                                                                                                                                                                            000001
12061096178000172COMERCIAL ELETRICA RIMO LTDA                                          0000000034100000 0000000000000  I000000000010010000000000000000               201210100000000000000000054820000010968000000000010968000000000000000000000000000000010000009750  3120121010   01          000                                                                                  181558489388166009333500039             009750                                                     00000  0020256        000002
900000300000000000010968                                                                                                                                                                                                                                                                                                                                                                                                                                                                                      000003
