0000147602043799295000110ALTAMIRA IND METALURGICA LTDA           201004940000020120910175017             0    230A                                                                                                                                                                                                                                                                                                                                                                                            000001
12008852780000100HOSTGATOR BRASIL HOSP.SUP.TEC.ROD.JOSE CARLOS DAUX, 8600 - CORP.PARK. 8805000134100000 0000000000000  I000000000009794000000000000000               201209100000000000000000054520000004999000000000004999000000000000000000000000000000010000046436  3120120910   01          000                                                                                  175101460985869105372500079             00FAT.NRO.46436/10                                         00000  0020256        000002
12006000195000156MBA MERCANTIL BRASIL.ACO LTDA.RUA. RINCAO, 220                        0365108023700118000000002128292 I000000000009795009021490000012               201209100000000000000000054520000517280000000000517280000000000000000000000000000000010000008399  3120120910   01          000                                                                                  011809214900000120212829079             008399/03                                                  00000  0020256        000003
12049318538000138COM.FERRAMENTAS TERUYA LTDA.  AV. DOS LATINOS, 492                    0347200034100000 0000000000000  I000000000009796000000000000000               201209100000000000000000054520000033506000000000033506000000000000000000000000000000010000019030  3120120910   01          000                                                                                  181537239616077000099000069             0019030/01                                                 00000  0020256        000004
12001784706000154TRANSPORTADORA WARTHA LTDA    RUA CRISTOVAO BEZERRA DANTAS 1093       0227001023701775200000000260010 I000000000009797028022210000092               201209100000000000000000054520000034637000000000034637000000000000000000000000000000010002590131  3120120910   01          000                                                                                  177528222100000920026001029             002590231                                                  00000  0020256        000005
12061217188000119TELAS METALICAS TELMETAL LTDA.RUA.ALDEIA DA PRATA, 38                 0368008000100000 0000000000000  I000000000009798000000000000000               201209100000000000000000054520000056420000000000056420000000000000000000000000000000010000005438  3120120910   01          000                                                                                  000000115031800000055781749             005438/02-03                                               00000  0020256        000006
12061217188000119TELAS METALICAS TELMETAL LTDA.RUA.ALDEIA DA PRATA, 38                 0368008000100000 0000000000000  I000000000009799000000000000000               201209100000000000000000054520000052303000000000052303000000000000000000000000000000010000005442  3120120910   01          000                                                                                  000000115031800000055841719             0005442/02-03                                              00000  0020256        000007
12053585766000141MULTIACOS IND.COM.PROD.TEC.LTDAV.PAPA JOAO XXIII, 1460/A.             0937080000100000 0000000000000  I000000000009800000000000000000               201209100000000000000000054520000120285000000000120285000000000000000000000000000000010000042704  3120120910   01          000                                                                                  043959908451912000139523169             00042704/03                                                00000  0020256        000008
12061217188000119TELAS METALICAS TELMETAL LTDA.RUA.ALDEIA DA PRATA, 38                 0368008000100000 0000000000000  I000000000009801000000000000000               201209100000000000000000054520000041895000000000041895000000000000000000000000000000010000005443  3120120910   01          000                                                                                  000000115031800000055871719             0005443-02/03                                              00000  0020256        000009
12062442132000120LAR INFANCIA DE NICE.         RUA. DENTISTA BARRETO, 978              0342000060000000 0000000000000  I000000000009802000000000000000               201209100000000000000000000000000000000000000000005000000000000000000000000000000000050000000121  3120120910   01          000                                                                                  000112101030960000784810749             00121                                                      00000  0020256        000010
12052168721000109SIND.TRAB.IND.METAL.MEC.MOGI C                                        0000000010400000 0000000000000  I000000000009803000000000000000               201209100000000000000000054520000171600000000000171600000000000000000000000000000000050020029912  3120120910   01          000                                                                                  313345100020314208001947019             0020029912                                                 00000  0020256        000011
900001200000000001037925                                                                                                                                                                                                                                                                                                                                                                                                                                                                                      000012
