0000147602043799295000110ALTAMIRA IND METALURGICA LTDA           201004640000020120810144943             0    230A                                                                                                                                                                                                                                                                                                                                                                                            000001
12000867888000164TECNEQUIP TECNOLOGIA EQUIP.LTDRUA. GANGES,                            0344503000103333200000000130818 I000000000009455000000000000000               201208100000000000000000000000000000000000000001750000000000000000000000000000000000050000000000  0820120810   01          0001500                                                                              C0000000101                             0001                                                       00000  0020256        000002
900000300000000001750000                                                                                                                                                                                                                                                                                                                                                                                                                                                                                      000003
