0000147602043799295000110ALTAMIRA IND METALURGICA LTDA           201005250000020121010164936             0    230A                                                                                                                                                                                                                                                                                                                                                                                            000001
12009080640000123SERVPAES LTDA ME                                                      000000001040000000000000000000000000000089697941000000000667500002510         201210100000000000000000054820000118750000000000118750000000000000000000000000000000050000000000  3020121010   01          500                                                                                  900000066710868700000040969010000       0002510                                                    01321  0020256        000002
12000193273000108TECELAGEM ROMA LTDA           R PROF ALZA ORSI AVALONE, 230           1827676023700284400000000410977 I000000000010002009000000017557               201210100000000000000000054820000093466000000000093466000000000000000000000000000000010000017246  3120121010   01          000                                                                                  028409000000175570041097099             0017246                                                    00000  0020256        000003
12054217021000192RAFER COM.MAT.P/ESCRIT.LTDA.  RUA.AUGUSTO REGINATO, 194               0343403000100000 0000000000000  I000000000010003000000000000000               201210100000000000000000054820000048838000000000048838000000000000000000000000000000010000003090  3120121010   01          000                                                                                  000000185029400990054941799             003090                                                     00000  0020256        000004
12049318538000138COM.FERRAMENTAS TERUYA LTDA.  AV. DOS LATINOS, 492                    0347200034100000 0000000000000  I000000000010004000000000000000               201210100000000000000000054820000050687000000000050687000000000000000000000000000000010000019835  3120121010   01          000                                                                                  181557865217077000099000019             0019835/01                                                 00000  0020256        000005
12062442132000120LAR INFANCIA DE NICE.         RUA. DENTISTA BARRETO, 978              0342000060000000 0000000000000  I000000000010005000000000000000               201210100000000000000000000000000000000000000000005000000000000000000000000000000000010000000121  3120121010   01          000                                                                                  000112101030960000784809919             00121                                                      00000  0020256        000006
12002992317000187TREVISO CORRETORA  CAMBIO LTDARUA. JOAQUIM FLORIANO, 243 - 11 - CJ.1150453401023700133300000001166220 I000000000010006009000000020724               201210100000000000000000054820000006075000000000006075000000000000000000000000000000010000020724  3120121010   01          000                                                                                  013309000000207240116622079             0020724                                                    00000  0020256        000007
12001137526000180ASIA SHOPPING TRANSP.INTERN.LT                                        0000000023703111900000000040401 I000000000010007000000000000000               201210100000000000000000000000000000000000000000052876000000000000000000000000000000050000000002  0120121010   01          000                                                                                                                          0002                                                       00000 10020256        000008
12006000195000156MBA MERCANTIL BRASIL.ACO LTDA.RUA. RINCAO, 220                        0365108023700118000000002128292 I000000000010008000000000000000               201210100000000000000000000000000000000000000000056473000000000000000000000000000000010000008911  0120121010   01          000                                                                                                                          00NF.NRO.8911 - PARC.02/03.                                00000 10020256        000009
12062539994000176LEALFER INDUSTRIA E COMERCIO D                                        0000000034100000 0000000000000  I000000000010009000000000000000               201210100000000000000000054820000851427000000000851427000000000000000000000000000000010000054615  3120121010   01          000                                                                                  181558451074076103324000059             0054615/01                                                 00000  0020256        000010
900001100000000001283592                                                                                                                                                                                                                                                                                                                                                                                                                                                                                      000011
