0000147602043799295000110ALTAMIRA IND METALURGICA LTDA           201004960000020120911164154             0    230A                                                                                                                                                                                                                                                                                                                                                                                            000001
12053585766000141MULTIACOS IND.COM.PROD.TEC.LTDAV.PAPA JOAO XXIII, 1460/A.             0937080000100000 0000000000000  I000000000009808000000000000000               201209110000000000000000054530000983698000000000983698000000000000000000000000000000010000244219  3120120911   01          000                                                                                  043959910811912000139523179             00244219/01                                                00000  0020256        000002
12053585766000141MULTIACOS IND.COM.PROD.TEC.LTDAV.PAPA JOAO XXIII, 1460/A.             0937080000100000 0000000000000  I000000000009809000000000000000               201209110000000000000000054530000652032000000000652032000000000000000000000000000000010000044297  3120120911   01          000                                                                                  043959910901912000139523189             00044297/01                                                00000  0020256        000003
12006000195000156MBA MERCANTIL BRASIL.ACO LTDA.RUA. RINCAO, 220                        0365108023700118000000002128292 I000000000009810000000000000000               201209110000000000000000000000000000000000000000566156000000000000000000000000000000010000008907  0120120911   01          000                                                                                                                          008907/01                                                  00000 10020256        000004
12069284248000128ISOCOAT TINTAS E VERNIZES LTDARUA. COM.GIUSEPPE MARCHIORI, 2189       1814700023703372300000000370002 I000000000009811000000000000000               201209110000000000000000000000000000000000000000019714000000000000000000000000000000010000052085  0120120911   01          000                                                                                                                          00DESPESAS DE CARTORIO                                     00000 10020256        000005
11258214076000072CELSO BERNARDO DA CRUZ.       RUA.PADRE DONIZETTI T.LIMA, 274         0000000023700092200000067722248 I000000000009812000000000000000               201209110000000000000000000000000000000000000000030000000000000000000000000000000000050000000000  0120120911   01          000                                                                                                                          00REF.AGOSTO/2012.                                         00000 20020256        000006
12006000195000156MBA MERCANTIL BRASIL.ACO LTDA.RUA. RINCAO, 220                        0365108023700118000000002128292 I000000000009813009021490000012               201209110000000000000000054530000517280000000000517280000000000000000000000000000000010000008399  3120120911   01          000                                                                                  011809214900000120212829029             008399/03                                                  00000  0020256        000007
12012006058000121WEG TINTAS LTDA.              ROD. BR. 280 - KM.50 - S/N.             8927000023702727800000000001309 I000000000009814009021880000084               201209110000000000000000054530000309833000000000309833000000000000000000000000000000010000149902  3120120911   01          000                                                                                  272709218800000840000130049             00149902/02                                                00000  0020256        000008
12012006058000121WEG TINTAS LTDA.              ROD. BR. 280 - KM.50 - S/N.             8927000023702727800000000001309 I000000000009815009022050000120               201209110000000000000000054530000309833000000000309833000000000000000000000000000000010000153431  3120120911   01          000                                                                                  272709220500001200000130019             000153431/01                                               00000  0020256        000009
12007068566000102NIVEL EMPREGOS LTDA.          AV.CELSO GARCIA, 03830                  0306400023700097300000003053792 I000000000009816000000000000000               201209110000000000000000000000000000000000000000150000000000000000000000000000000000010000002753  0120120911   01          000                                                                                                                          00NF.NRO.02753 - PARC.02.                                  00000 10020256        000010
12042956441000101SOLUCOES EM ACO USIMINAS S/A. RUA. DIANOPOLIS, 670/710                0312510034100000 0000000000000  I000000000009817000000000000000               201209110000000000000000054530000183755000000000183755000000000000000000000000000000010000169029  3120120911   01          000                                                                                  181538774721293807258000019             000169029/02                                               00000  0020256        000011
12042956441000101SOLUCOES EM ACO USIMINAS S/A. RUA. DIANOPOLIS, 670/710                0312510034100000 0000000000000  I000000000009818000000000000000               201209110000000000000000054530000170722000000000170722000000000000000000000000000000010000173538  3120120911   01          000                                                                                  181538777385293807258000019             000173538/01                                               00000  0020256        000012
12035820448000136WHITE MARTINS GASES IND.LTDA. AV. AUTONOMISTAS, 4192                  0609001523700026400000003937925 I000000000009819009022160000641               201209110000000000000000054530000168354000000000168354000000000000000000000000000000010000008883  3120120911   01          000                                                                                  002609221600006410393792079             0008883                                                    00000  0020256        000013
12007711227000194L.BARBI REPRESENTACOES        RUA. LUIZ JANURIO, 406 - SALA.201       2899000023702804500000000201758 I000000000009820000000000000000               201209110000000000000000000000000000000000000000130900000000000000000000000000000000010000000084  0120120911   01          000                                                                                                                          00NF.NRO.084                                               00000 10020256        000014
12053585766000141MULTIACOS IND.COM.PROD.TEC.LTDAV.PAPA JOAO XXIII, 1460/A.             0937080000100000 0000000000000  I000000000009821000000000000000               201209110000000000000000054530000120483000000000120483000000000000000000000000000000010000042704  3120120911   01          000                                                                                  043959908451912000139523189             00042704/03                                                00000  0020256        000015
12035820448000136WHITE MARTINS GASES IND.LTDA. AV. AUTONOMISTAS, 4192                  0609001523700026400000003937925 I000000000009823009022140004425               201209110000000000000000054530000084285000000000084285000000000000000000000000000000010000008876  3120120911   01          000                                                                                  002609221400044250393792089             0008876                                                    00000  0020256        000016
12042956441000101SOLUCOES EM ACO USIMINAS S/A. RUA. DIANOPOLIS, 670/710                0312510034100000 0000000000000  I000000000009824000000000000000               201209110000000000000000054530000082859000000000082859000000000000000000000000000000010000173537  3120120911   01          000                                                                                  181538776239293807258000089             000173537/02                                               00000  0020256        000017
12061217188000119TELAS METALICAS TELMETAL LTDA.RUA.ALDEIA DA PRATA, 38                 0368008000100000 0000000000000  I000000000009825000000000000000               201209110000000000000000054530000056568000000000056568000000000000000000000000000000010000005438  3120120911   01          000                                                                                  000000115031800000055781799             0005438/01-03.                                             00000  0020256        000018
12055721609000141MAC SEG EQUIP DE SEGURANCA LT                                         0000000034100000 0000000000000  I000000000009826000000000000000               201209110000000000000000054530000052947000000000052947000000000000000000000000000000010000003190  3120120911   01          000                                                                                  181538500206037814415800079             0003190                                                    00000  0020256        000019
12061217188000119TELAS METALICAS TELMETAL LTDA.RUA.ALDEIA DA PRATA, 38                 0368008000100000 0000000000000  I000000000009827000000000000000               201209110000000000000000054530000052441000000000052441000000000000000000000000000000010000005442  3120120911   01          000                                                                                  000000115031800000055841719             005442/02-03                                               00000  0020256        000020
12061217188000119TELAS METALICAS TELMETAL LTDA.RUA.ALDEIA DA PRATA, 38                 0368008000100000 0000000000000  I000000000009828000000000000000               201209110000000000000000054530000042005000000000042005000000000000000000000000000000010000005443  3120120911   01          000                                                                                  000000115031800000055871799             0005443/02-03.                                             00000  0020256        000021
12001784706000154TRANSPORTADORA WARTHA LTDA    RUA CRISTOVAO BEZERRA DANTAS 1093       0227001023701775200000000260010 I000000000009829028022210000092               201209110000000000000000054530000034728000000000034728000000000000000000000000000000010002590131  3120120911   01          000                                                                                  177528222100000920026001049             002590131                                                  00000  0020256        000022
12049318538000138COM.FERRAMENTAS TERUYA LTDA.  AV. DOS LATINOS, 492                    0347200034100000 0000000000000  I000000000009830000000000000000               201209110000000000000000054530000033632000000000033632000000000000000000000000000000010000190304  3120120911   01          000                                                                                  181538786201077000099000089             00190304                                                   00000  0020256        000023
12009338857000190FERNANDO NAGAO SOC.ADVOG.     AV.PAULISTA, 1499 - SL.2101.            0131120003300000 0000000000000  I000000000009831000000000000000               201209120000000020120912054540000024134000000000021584000000000002550000000000000000010000072012  3120120912   01          000                                                                                  947901700000051047543010139             0007/2012                                                  00000  0020256        000024
12005335228000156DINAMICA INFORMATICA TELEC.LTDRUA. DOUTOR ALARICO SILVEIRA, 00378     0350204023703257300000000503215 I000000000009832009032570016796               201209110000000000000000054530000020813000000000020813000000000000000000000000000000010000008820  3120120911   01          000                                                                                  325709325700167960050321019             008820                                                     00000  0020256        000025
12008852780000100HOSTGATOR BRASIL HOSP.SUP.TEC.ROD.JOSE CARLOS DAUX, 8600 - CORP.PARK. 8805000134100000 0000000000000  I000000000009833000000000000000               201209110000000000000000054530000004999000000000004999000000000000000000000000000000010000046436  3120120911   01          000                                                                                  175101460985869105372500029             0046436                                                    00000  0020256        000026
12051598472000129ELETRICA J SANTOS                                                     0000000023702451100000000000264 I000000000009834009022080000040               201209110000000000000000054530000115027000000000115027000000000000000000000000000000010000017933  3120120911   01          000                                                                                  245109220800000400000026069             0017933/03                                                 00000  0020256        000027
12061217188000119TELAS METALICAS TELMETAL LTDA.RUA.ALDEIA DA PRATA, 38                 0368008034100000 0000000000000  I000000000009835000000000000000               201209110000000000000000054530000046601000000000046601000000000000000000000000000000010000005468  3120120911   01          000                                                                                  181539053055077099894600019             005468/01-01                                               00000  0020256        000028
12062340989000130EDICOES ADUANEIRAS LTDA.      RUA. DA CONSOLACAO, 77 - 7.AND.         0130100023703090200000000015660 I000000000009836009080000035029               201209110000000000000000054530000044464000000000044464000000000000000000000000000000010000004262  3120120911   01          000                                                                                  309009800000350290001566019             0004262/03                                                 00000  0020256        000029
900003000000000005005713                                                                                                                                                                                                                                                                                                                                                                                                                                                                                      000030
