0000147602043799295000110ALTAMIRA IND METALURGICA LTDA           201005270000020121011091354             0    230A                                                                                                                                                                                                                                                                                                                                                                                            000001
12043799295000110ALTAMIRA INDUSTRIA METAL.LTDA.RUA. GANGES, 528                        0344503003303809500000130004071 I000000000010011000000000000000               201210110000000000000000000000000000000000000006000000000000000000000000000000000000050000000001  0820121011   01          0001000                                                                              D0000000101                             0001                                                       00000  0020256        000002
900000300000000006000000                                                                                                                                                                                                                                                                                                                                                                                                                                                                                      000003
