0000147602043799295000110ALTAMIRA IND METALURGICA LTDA           201005590000020121112171242             0    230A                                                                                                                                                                                                                                                                                                                                                                                            000001
12061721320000125COMERCIAL DE PNEUS ROMA LTDA                                          000000000010000000000000000000000000000086455435000000914173000158203         201211110000000000000000055140000028000000000000028000000000000000000000000000000000050000000000  3020121112   01          500                                                                                  043979141733333000853153119010000       0015820                                                    01321  0020256        000002
12005151518000140BELENUS DO BRASIL LTDA                                                000000000010000000000000000000000000000087407066000000774916000R129723232     201211120000000000000000055150000460800000000000460800000000000000000000000000000000050000000000  3020121112   01          500                                                                                  000000123933843997749163139010000       000297232/03                                               01321  0020256        000003
12043298975000150JOMARCA INDL DE PARAFUSOS LTDA                                        0000000003300000000000000000000000000000881032810000006700000000157168 02     201211100000000000000000055130000365000000000000365000000000000000000000000000000000050000000000  3020121112   01          500                                                                                  935059520000000508667010419010000       00157168/02                                                01321  0020256        000004
12049341563000132JAC COMERCIO DE MATERIAIS ELET                                        0000000023700293300000001478699 00000000893373800020132276064772330403        201211120000000000000000055150000015523000000000015523000000000000000000000000000000050000000000  3020121112   01          500R GANGES 528                                                                      010000                   000000000000000002330403                                                  00598  0020256        000005
12065000655000105HILTI DO BRASIL COMERCIAL LTDA                                        0000000023703396000000000243787 00000000900522930090228900000950020464701     201211100000000000000000055130000023677000000000023677000000000000000000000000000000050000000000  3020121112   01          500RUA TAMAINDE 1410                                                                 010000                   00000000000000000204647                                                   00598  0020256        000006
12066841552000130RV SEGURANCA PATRIMONIAL SC LT                                        0000000023700122800000001495011 000000009005229400900000002233622336          201211100000000000000000055130000410467000000000410467000000000000000000000000000000050000000000  3020121112   01          500RUA TAMAINDE  1410                                                                010000                   0000000000000000022336                                                    00598  0020256        000007
12061217188000119TELAS METALICAS TELMETAL LTDA                                         0000000000100000000000000000000000000000902449790000000058100005780 1 3       201211120000000000000000055150000089764000000000089764000000000000000000000000000000050000000000  3020121112   01          500                                                                                  000000115031800000058101719010000       005780/01-03                                               01321  0020256        000008
12003102481000134AB5 IND E COMERCIO LTDA EPP                                           0000000034100000000000000000000000000000902449870000009000042293134           201211120000000000000000055150000147870000000000147870000000000000000000000000000000050000000000  3020121112   01          500                                                                                  109000042299003154755700069010000       003134                                                     01321  0020256        000009
12062944582000111AS SOLUCOES COMERCIAL LTDA                                            00000000341000000000000000000000000000009024499000000090000357017303 A        201211120000000000000000055150000120960000000000120960000000000000000000000000000000050000000000  3020121112   01          500                                                                                  109000035705067251093000019010000       0017303                                                    01321  0020256        000010
12001784706000154TRANSPORTES WARTHA LTDA                                               0000000023701775200000000260010 0000000090504096009022960000350SAO2678941     201211120000000000000000055150000033000000000000033000000000000000000000000000000000050000000000  3020121112   01          500R  GANGES  528                                                                    010000                   000000000000000002678941                                                  00598  0020256        000011
12006209559000102MAZURKY IND COM EMB LTDA                                              000000003410000000000000000000000000000090751875000000252039992010684 1       201211120000000000000000055150000092263000000000092263000000000000000000000000000000050000000000  3020121112   01          500                                                                                  112520399927151434240900069010000       0010684                                                    01321  0020256        000012
12045351418000181TRANSP RODOR LTDA                                                     000000003410000000000000000000000000000090920324000000252907586302670  01     201211120000000000000000055150000030000000000000030000000000000000000000000000000000050000000000  3020121112   01          500                                                                                  112529075866005820000700099010000       00302670/01                                                01321  0020256        000013
12045461761000189PROTEGE INDUSTRIA E COMERCIO M                                        0000000000100000000000000000000000000000910265730000006302760001642501        201211100000000000000000055130000012216000000000012216000000000000000000000000000000050000000000  3020121112   01          500                                                                                  044186302761192000128605119010000       0016425                                                    01321  0020256        000014
12056993512000150CYKLOP DO BRASIL EMBALAGENS SA                                        0000000034100000000000000000000000000000911410070000002533965040141142        201211120000000000000000055150000156290000000000156290000000000000000000000000000000050000000000  3020121112   01          500                                                                                  112533965045025786126000059010000       00141142                                                   01321  0020256        000015
12056993512000150CYKLOP DO BRASIL EMBALAGENS SA                                        0000000034100000000000000000000000000000911410080000002533965910001796        201211120000000000000000055150000020400000000000020400000000000000000000000000000000050000000000  3020121112   01          500                                                                                  112533965912025786126000059010000       001796                                                     01321  0020256        000016
12013656578000142GUARINOR TRANSP E LOGISTICA LT                                        000000001040000000000000000000000000000091573373000000001389200001908 12      201211120000000000000000055150000224900000000000224900000000000000000000000000000000050000000000  3020121112   01          500                                                                                  900000138932958700000017319010000       00001908/12                                                01321  0020256        000017
12062014881000157INDUSTRIA MEC.JULIAPA LTDA.   RUA. BURITI ALEGRE, 184                 0365700034100000 0000000000000  I000000000010183000000000000000               201211100000000000000000055130000075900000000000075900000000000000000000000000000000010000002138  3120121112   01          000                                                                                  175000036021076423432400089             002138                                                     00000  0020256        000018
12060737301000124SERRALHERIA SEPETIBA LTDA.    AV.DR.MAURO LINDENBERG MONTEIRO, 168    0627801023700368900000000503509 I000000000010184000000000000000               201211120000000000000000000000000000000000000000057440000000000000000000000000000000010000000316  0120121112   01          000                                                                                                                          000316/05                                                  00000 10020256        000019
12047190731000100DE CASTRO LOUREIRO ENGENHARIA                                         0000000003300000 0000000000000  I000000000010185000000000000000               201211120000000000000000055150000940006000000000940006000000000000000000000000000000010000026838  3120121112   01          000                                                                                  948430370000009553355010499             0026838/01                                                 00000  0020256        000020
12009080640000123SERVPAES LTDA.                RUA. SILVIANOPOLIS, 880                 0123800210400000 0000000000000  I000000000010186000000000000000               201211100000000000000000055130000137500000000000137500000000000000000000000000000000010000002590  3120121112   01          000                                                                                  004091086870000000000259329             002590                                                     00000  0020256        000021
12034028316000103ECT DEGER   DR 74 SPI                                                 0000000000100000 0000000000000  I000000000010187000000000000000               201211120000000000000000000000000046760000000000046760000000000000000000000000000000019910021110  3120121112   01          000                                                                                  000000212652700003482701719             009910021110                                               00000  0020256        000022
12052168721000109SIND.TRAB.IND.METAL.MEC.MOGI C                                        0000000010400000 0000000000000  I000000000010188000000000000000               201211120000000020121112055150000184800000000000174900000000000009900000000000000000010020016319  3120121112   01          000                                                                                  313345100020314210001947039             0020056319                                                 00000  0020256        000023
900002400000000003663636                                                                                                                                                                                                                                                                                                                                                                                                                                                                                      000024
