0000147602043799295000110ALTAMIRA IND METALURGICA LTDA           201005870000020121212172154             0    230A                                                                                                                                                                                                                                                                                                                                                                                            000001
12001852612000175BT EQUIPAMENTOS INDUSTRIAIS LT                                        000000000330000000000000000000000000000091471910000000990000000052674 2       201212120000000000000000055450000053280000000000053280000000000000000000000000000000050000000000  3020121212   01          500                                                                                  913651000000003015599010419010000       00052674/02                                                01321  0020256        000002
12046178828000135RAPIDO LONDON S A                                                     0000000023703391P00000001061615 0000000091833886009000000022762304206         201212120000000000000000055450000017850000000000017850000000000000000000000000000000050000000000  3020121212   01          500RUA TAMAINDE  1410                                                                010000                   00000000000000000304206/01                                                00598  0020256        000003
12061217188000119TELAS METALICAS TELMETAL LTDA                                         0000000000100000000000000000000000000000920384630000000058960005934 1 1       201212120000000000000000055450000089238000000000089238000000000000000000000000000000050000000000  3020121212   01          500                                                                                  000000115031800000058961719010000       005934/01-01                                               01321  0020256        000004
12009259079000144SAFRA COMERCIAL DE PAPEIS LTDA                                        00000000033000000000000000000000000000009203849100000094000000000147411       201212120000000000000000055450000023936000000000023936000000000000000000000000000000050000000000  3020121212   01          500                                                                                  918361880000000346594010429010000       000147411                                                  01321  0020256        000005
12042956441000101SOLUCOES ACO USIMINAS                                                 0000000034100000000000000000000000000000922972810000002592188920019014501     201212120000000000000000055450000475367000000000475367000000000000000000000000000000050000000000  3020121212   01          500                                                                                  112592188927293807258000069010000       00190145/01                                                01321  0020256        000006
12000815065000195SIND.TRABALH.N.E.O.R.I.INTE.  RUA. MANOEL DOS SANTOS NETO, 64         0203201034100000 0000000000000  I000000000010317000000000000000               201301100000000000000000055740000027161000000000027161000000000000000000000000000000050000000173  3120121212   01          000                                                                                  173001366722018958625800089             00173/00136672-2                                           00000  0020256        000007
12061217188000119TELAS METALICAS TELMETAL LTDA.RUA.ALDEIA DA PRATA, 38                 0368008034100000 0000000000000  I000000000010318000000000000000               201212120000000000000000055450000172193000000000172193000000000000000000000000000000010000005880  3120121212   01          000                                                                                  181599114263077098123100039             005880/02-03                                               00000  0020256        000008
12066899790000105FAB.ART.DE LATEX ESTR.EP.LTDA.ROD.QUINTINO DE LIMA KM.08              1813000039900000 0000000000000  I000000000010319000000000000000               201212120000000000000000055450000162198000000000162198000000000000000000000000000000010000079585  3120121212   01          000                                                                                  176075257491125027292500149             0079585/03                                                 00000  0020256        000009
12009034654000291STEEL PRODUCTS DO BRASIL LTDA.RUA. DAS MUNICIPALIDADES, 346           0421404000100000 0000000000000  I000000000010320000000000000000               201212120000000000000000055450000135964000000000135964000000000000000000000000000000010000002470  3120121212   01          000                                                                                  000000221373244205529191169             002470/02-03                                               00000  0020256        000010
12059659615000177DZ COMERCIO E SERV.LTDA.      RUA. JOSE FRANCISCO BENTO, 061          0312713023700278000000000307025 I000000000010321000000000000000               201212120000000000000000000000000000000000000000060000000000000000000000000000000000010000000280  0120121212   01          000                                                                                                                          00NF.NRO.0280 - PARC.02.                                   00000 10020256        000011
12007711227000194L.BARBI REPRESENTACOES        RUA. LUIZ JANURIO, 406 - SALA.201       2899000023702804500000000201758 I000000000010322000000000000000               201212120000000000000000000000000000000000000000130900000000000000000000000000000000010000000125  0120121212   01          000                                                                                                                          00NF.NRO.0125.                                             00000 10020256        000012
900001300000000001348087                                                                                                                                                                                                                                                                                                                                                                                                                                                                                      000013
