0000147602043799295000110ALTAMIRA IND METALURGICA LTDA           201005600000020121113164437             0    230A                                                                                                                                                                                                                                                                                                                                                                                            000001
12066970229000167NEXTEL TELECOMUNICACOES LTDA                                          0000000023702374400000001596233 0000000087067053009000014717419691888 9       201209100000000000000000054520000015870000000000016187000000000000000000000000000317050000000000  3020121113   01          500R GANGES  520 VILA CARRAO BR                                                      010000                   0000000000000000018/07  17/08                                             00598  0020256        000002
12005151518000140BELENUS DO BRASIL LTDA                                                000000000010000000000000000000000000000087407064000000776240000R129785132     201211130000000000000000055160000099000000000000099000000000000000000000000000000000050000000000  3020121113   01          500                                                                                  000000123933843997762403119010000       000297851/03                                               01321  0020256        000003
12066899790000105FABRICA ARTEF LATEX ESTRELA EP                                        00000000399000000000000000000000000000008826685000000000000000078599 002      201211130000000000000000055160000130200000000000130200000000000000000000000000000000050000000000  3020121113   01          500                                                                                  175991710291125027292500159010000       0078599/02                                                 01321  0020256        000004
12002583013000166ITAN TRANSP DE CARGAS EXC E IN                                        000000003410000000000000000000000000000088350836000000239377422008 B          201210210000000000000000054930000192500000000000210210000000000000000000000000017710050000000000  3020121113   01          500                                                                                  112393774222005770252400039010000       0008/02                                                    01321  0020256        000005
12035820448000136WHITE MARTINS GASES INDUSTRIAI                                        0000000023700026400000003937925 0000000090244991009022910001594394355 001     201211130000000000000000055160000121725000000000121725000000000000000000000000000000050000000000  3020121113   01          500RUA GANGES  528                                                                   010000                   000000000000000009320                                                     00598  0020256        000006
12047190731000100DE CASTRO LOUR ENG IND LTDA                                           00000000341000000000000000000000000000009041733300000025008465103027256 0     201211130000000000000000055160001108602000000001108602000000000000000000000000000000050000000000  3020121113   01          500                                                                                  112500846517036884500400019010000       0027256                                                    01321  0020256        000007
900000800000000001685924                                                                                                                                                                                                                                                                                                                                                                                                                                                                                      000008
