0000147602043799295000110ALTAMIRA IND METALURGICA LTDA           201005020000020120914165032             0    230A                                                                                                                                                                                                                                                                                                                                                                                            000001
12042956441000101SOLUCOES EM ACO USIMINAS S/A. RUA. DIANOPOLIS, 670/710                0312510034100000 0000000000000  I000000000009861000000000000000               201209140000000000000000054560000762475000000000762475000000000000000000000000000000010000164594  3120120914   01          000                                                                                  181541774809293807258000019             00164594/03                                                00000  0020256        000002
12042956441000101SOLUCOES EM ACO USIMINAS S/A. RUA. DIANOPOLIS, 670/710                0312510034100000 0000000000000  I000000000009862000000000000000               201209140000000000000000054560000729310000000000729310000000000000000000000000000000010000173858  3120120914   01          000                                                                                  181541773538293807258000099             000173858/01                                               00000  0020256        000003
12042956441000101SOLUCOES EM ACO USIMINAS S/A. RUA. DIANOPOLIS, 670/710                0312510034100000 0000000000000  I000000000009863000000000000000               201209140000000000000000054560000451832000000000451832000000000000000000000000000000010000169233  3120120914   01          000                                                                                  181541776069293807258000079             000169233/02                                               00000  0020256        000004
12042956441000101SOLUCOES EM ACO USIMINAS S/A. RUA. DIANOPOLIS, 670/710                0312510034100000 0000000000000  I000000000009864000000000000000               201209140000000000000000054560000236046000000000236046000000000000000000000000000000010000164588  3120120914   01          000                                                                                  181541777349293807258000079             000164588/03                                               00000  0020256        000005
12042956441000101SOLUCOES EM ACO USIMINAS S/A. RUA. DIANOPOLIS, 670/710                0312510034100000 0000000000000  I000000000009865000000000000000               201209140000000000000000054560000158831000000000158831000000000000000000000000000000010000164598  3120120914   01          000                                                                                  181541778123293807258000099             000164598/03                                               00000  0020256        000006
12042956441000101SOLUCOES EM ACO USIMINAS S/A. RUA. DIANOPOLIS, 670/710                0312510034100000 0000000000000  I000000000009866000000000000000               201209140000000000000000054560000125925000000000125925000000000000000000000000000000010000164592  3120120914   01          000                                                                                  181541778883293807258000019             000164592/03                                               00000  0020256        000007
12066899790000105FAB.ART.DE LATEX ESTR.EP.LTDA.ROD.QUINTINO DE LIMA KM.08              1813000039900000 0000000000000  I000000000009867000000000000000               201209140000000000000000054560000135436000000000135436000000000000000000000000000000010000072894  3120120914   01          000                                                                                  175513061511125027292500119             0072894/03                                                 00000  0020256        000008
900000900000000002599855                                                                                                                                                                                                                                                                                                                                                                                                                                                                                      000009
