0000147602043799295000110ALTAMIRA IND METALURGICA LTDA           201005900000020121214165630             0    230A                                                                                                                                                                                                                                                                                                                                                                                            000001
12066841552000130RV SEGURANCA PATRIMONIAL SC LT                                        0000000023700122800000001495011 000000009203848400900000002253822538          201212100000000000000000055430000374758000000000382753000000000000000000000000007995050000000000  3020121214   01          500RUA TAMAINDE  1410                                                                010000                   0000000000000000022538                                                    00598  0020256        000002
12009007898000102ARTERINOX COM D TELAS METALICA                                        0000000023702741300000000246700 00000000923779420090112319016644177           201212140000000000000000055470000033540000000000033540000000000000000000000000000000050000000000  3020121214   01          500RUA TAMAINDE 1410                                                                 010000                   000000000000000004177/01                                                  00598  0020256        000003
12060732997000104UNIFISA ADM. NACIONAL DE CONS.CALCADA ALDEBARAN 161 CENTRO DE APOIO 2 0654105523703390100000000086606 I000000000010325009000970939388               201212140000000000000000055470000119855000000000119855000000000000000000000000000000010000008650  3120121214   01          000                                                                                  339009009709393880008660019             008650 - PARC.28/42.                                       00000  0020256        000004
12060732997000104UNIFISA ADM. NACIONAL DE CONS.CALCADA ALDEBARAN 161 CENTRO DE APOIO 2 0654105523703390100000000086606 I000000000010326009000970938977               201212140000000000000000055470000119855000000000119855000000000000000000000000000000010000000037  3120121214   01          000                                                                                  339009009709389770008660099             00037 - PARC.28/42                                         00000  0020256        000005
900000600000000000656003                                                                                                                                                                                                                                                                                                                                                                                                                                                                                      000006
