0000147602043799295000110ALTAMIRA IND METALURGICA LTDA           201004690000020120815145929             0    230A                                                                                                                                                                                                                                                                                                                                                                                            000001
12015229004000113ATLANTES SERVICOS ADM.LTDA.   RUA. PERNAMBUCO, 416                    0952114010404115 00003000011275 I000000000009497000000000000000               201208150000000000000000000000000000000000000000331100000000000000000000000000000000010000000006  0820120815   01          0001600                                                                              C0000000101                             00NF.NRO.06 - PARC.01.                                     00000  0020256        000002
900000300000000000331100                                                                                                                                                                                                                                                                                                                                                                                                                                                                                      000003
