0000147602043799295000110ALTAMIRA IND METALURGICA LTDA           201006100000020130116145419             0    230A                                                                                                                                                                                                                                                                                                                                                                                            000001
12043799295000110ALTAMIRA INDUSTRIA METAL.LTDA.RUA. GANGES, 528                        0344503000103333200000000021717 I000000000010398000000000000000               201301160000000000000000000000000000000000000009100000000000000000000000000000000000050000000003  0820130116   01          0001530                                                                              D0000000101                             0003                                                       00000  0020256        000002
900000300000000009100000                                                                                                                                                                                                                                                                                                                                                                                                                                                                                      000003
