0000147602043799295000110ALTAMIRA IND METALURGICA LTDA           201006080000020130116111312             0    230A                                                                                                                                                                                                                                                                                                                                                                                            000001
12043799295000110ALTAMIRA INDUSTRIA METAL.LTDA.RUA. GANGES, 528                        0344503010401603900000000002564 I000000000010396000000000000000               201301160000000000000000000000000000000000000000600000000000000000000000000000000000050000000001  0820130116   01          0001220                                                                              D0000000101                             0001                                                       00000  0020256        000002
900000300000000000600000                                                                                                                                                                                                                                                                                                                                                                                                                                                                                      000003
