0000147602043799295000110ALTAMIRA IND METALURGICA LTDA           201005290000020121016133520             0    230A                                                                                                                                                                                                                                                                                                                                                                                            000001
12043799295000110ALTAMIRA INDUSTRIA METAL.LTDA.RUA. GANGES, 528                        0344503003303809500000130004071 I000000000010031000000000000000               201210160000000000000000000000000000000000000006000000000000000000000000000000000000050000000001  0820121016   01          0001400                                                                              D0000000101                             0001                                                       00000  0020256        000002
900000300000000006000000                                                                                                                                                                                                                                                                                                                                                                                                                                                                                      000003
