0000147602043799295000110ALTAMIRA IND METALURGICA LTDA           201006090000020130116141634             0    230A                                                                                                                                                                                                                                                                                                                                                                                            000001
12043799295000110ALTAMIRA INDUSTRIA METAL.LTDA.RUA. GANGES, 528                        0344503000103333200000000011029 I000000000010397000000000000000               201301160000000000000000000000000000000000000002500000000000000000000000000000000000050000000002  0820130116   01          0001500                                                                              D0000000101                             0002                                                       00000  0020256        000002
900000300000000002500000                                                                                                                                                                                                                                                                                                                                                                                                                                                                                      000003
