0000147602043799295000110ALTAMIRA IND METALURGICA LTDA           201005910000020121217172622             0    230A                                                                                                                                                                                                                                                                                                                                                                                            000001
12005502645000146TRANS GERALE TRANSPORTES LTDA                                         000000003410000000000000000000000000000093033535000000263012200450 12         201212150000000000000000055480000064000000000000064000000000000000000000000000000000050000000000  3020121217   01          500                                                                                  112630122003035522320700049010000       0001747                                                    01321  0020256        000002
120595792840001651. TABELIAO PROTESTO LETRAS SPAV.BRIG.LUIS ANTONIO, 371               0131700023701628400000000731366 I000000000010327006000000000427               201212170000000000000000055500000961369000000000961369000000000000000000000000000000030000055684  3120121217   01          000                                                                                  162806000000004270073136059             00PROTOC.NRO.0186/12/12/2012.                              00000  0020256        000003
1205995053500017610.TABELIAO PROTESTOS SP.     PRACA. DOUTOR JOAO MENDES, 39           0150100123701628400000000729957 I000000000010328006012121208755               201212170000000000000000055500001010989000000001010989000000000000000000000000000000050000026636  3120121217   01          000                                                                                  162806121212087550072995069             00PROTOC.NRO.875/5                                         00000  0020256        000004
12062539994000176LEALFER INDUSTRIA E COMERCIO D                                        0000000003300000 0000000000000  I000000000010329000000000000000               201212170000000000000000055500000839516000000000839516000000000000000000000000000000010000055020  3120121217   01          000                                                                                  915298380000000266736020369             0055020/03                                                 00000  0020256        000005
12062539994000176LEALFER INDUSTRIA E COMERCIO D                                        0000000003300000 0000000000000  I000000000010330000000000000000               201212170000000000000000055500000298074000000000298074000000000000000000000000000000010000057967  3120121217   01          000                                                                                  915298380000000288900010429             00057967/01                                                00000  0020256        000006
12058119371000177SOFTMATIC SIST. AUTOM.INF.LTDARUA. VISCONDE DE ITABORAI, 368          0330805034100000 0000000000000  I000000000010331000000000000000               201212150000000000000000055480000040613000000000040613000000000000000000000000000000010000493749  3120121217   01          000                                                                                  175002553520859701614900069             000493749                                                  00000  0020256        000007
12007151435000186SALIS DE MOURA E ADVOG.ASSOC. RUA. MARIA PAULA, 78                    0131900023700500200000000594440 I000000000010332000000000000000               201212170000000000000000000000000000000000000000147750000000000000000000000000000000040000112012  0120121217   01          000                                                                                                                          00REF.NOVEMBRO/2012                                        00000 10020256        000008
900000900000000003362311                                                                                                                                                                                                                                                                                                                                                                                                                                                                                      000009
