0000147602043799295000110ALTAMIRA IND METALURGICA LTDA           201005310000020121018112137             0    230A                                                                                                                                                                                                                                                                                                                                                                                            000001
12043799295000110ALTAMIRA INDUSTRIA METAL.LTDA.RUA. GANGES, 528                        0344503003303809500000130004071 I000000000010053000000000000000               201210180000000000000000000000000000000000000007500000000000000000000000000000000000050000000001  0820121018   01          0001200                                                                              D0000000101                             0001                                                       00000  0020256        000002
900000300000000007500000                                                                                                                                                                                                                                                                                                                                                                                                                                                                                      000003
