0000147602043799295000110ALTAMIRA IND METALURGICA LTDA           201005920000020121218115932             0    230A                                                                                                                                                                                                                                                                                                                                                                                            000001
12043799295000110ALTAMIRA INDUSTRIA METAL.LTDA.RUA. GANGES, 528                        0344503003303809500000130004071 I000000000010333000000000000000               201212180000000000000000000000000000000000000001300000000000000000000000000000000000050000000001  0820121218   01          0001240                                                                              D0000000101                             0001                                                       00000  0020256        000002
900000300000000001300000                                                                                                                                                                                                                                                                                                                                                                                                                                                                                      000003
