0000147602043799295000110ALTAMIRA IND METALURGICA LTDA           201005340000020121019143550             0    230A                                                                                                                                                                                                                                                                                                                                                                                            000001
12043799295000110ALTAMIRA INDUSTRIA METAL.LTDA.RUA. GANGES, 528                        0344503000103333200000000021717 I000000000010061000000000000000               201210190000000000000000000000000000000000000004000000000000000000000000000000000000050000000002  0820121019   01          0001500                                                                              D0000000101                             0002                                                       00000  0020256        000002
900000300000000004000000                                                                                                                                                                                                                                                                                                                                                                                                                                                                                      000003
