0000147602043799295000110ALTAMIRA IND METALURGICA LTDA           201005630000020121119172718             0    230A                                                                                                                                                                                                                                                                                                                                                                                            000001
11144219728000051MARCIO ALEXANDRE RUSSO                                                0000000023702622000000000064858 I000000000010196000000000000000               201211190000000000000000000000000000000000000000054557000000000000000000000000000000050000000010  0120121119   01          000                                                                                                                          00REF.10/2012.                                             00000 10020256        000002
900000300000000000054557                                                                                                                                                                                                                                                                                                                                                                                                                                                                                      000003
