0000147602043799295000110ALTAMIRA IND METALURGICA LTDA           201005620000020121119135439             0    230A                                                                                                                                                                                                                                                                                                                                                                                            000001
12043799295000110ALTAMIRA INDUSTRIA METAL.LTDA.RUA. GANGES, 528                        0344503003303809500000130004071 I000000000010195000000000000000               201211190000000000000000000000000000000000000001200000000000000000000000000000000000050000000001  0820121119   01          0001420                                                                              D0000000101                             0001                                                       00000  0020256        000002
900000300000000001200000                                                                                                                                                                                                                                                                                                                                                                                                                                                                                      000003
