0000147602043799295000110ALTAMIRA IND METALURGICA LTDA           201004760000020120820153939             0    230A                                                                                                                                                                                                                                                                                                                                                                                            000001
12000867888000164TECNEQUIP TECNOLOGIA EQUIP.LTDRUA. GANGES,                            0344503003303809500000130003245 I000000000009587000000000000000               201208200000000000000000000000000000000000000000400000000000000000000000000000000000040000000007  0820120820   01          0001600                                                                              C0000000101                             0007                                                       00000  0020256        000002
12013529495000192MAXMIRA CONTROLE E ADM.LTDA.  RUA. JUNO, 533                          0344500034100467 00000000012340 I000000000009588000000000000000               201208200000000000000000000000000000000000000001100000000000000000000000000000000000050000000008  0820120820   01          0001600                                                                              C0000000101                             0008                                                       00000  0020256        000003
900000400000000001500000                                                                                                                                                                                                                                                                                                                                                                                                                                                                                      000004
