0000147602043799295000110ALTAMIRA IND METALURGICA LTDA           201005960000020121221162121             0    230A                                                                                                                                                                                                                                                                                                                                                                                            000001
12066841552000130R V SEG PATRIMONIAL S C LTDA                                          00000000341000000000000000000000000000008887329800000090002213622136          201210100000000000000000054820000374758000000000383758000000000000000000000000009000050000000000  3020121221   01          500                                                                                  109000221365001838994000069             00022538                                                   01321  0020256        000002
12035820448000136WHITE MARTINS GASES INDUSTRIAI                                        0000000023700026400000003937925 0000000092654649009023310013357412752 001     201212210000000000000000055540000017600000000000017600000000000000000000000000000000050000000000  3020121221   01          500RUA GANGES  528                                                                   010000                   000000000000000000239502                                                  00598  0020256        000003
12035820448000136WHITE MARTINS GASES INDUSTRIAI                                        0000000023700026400000003937925 0000000092654650009023310014949413220 001     201212210000000000000000055540000121725000000000121725000000000000000000000000000000050000000000  3020121221   01          500RUA GANGES  528                                                                   010000                   0000000000000000009526                                                    00598  0020256        000004
11144219728000051MARCIO ALEXANDRE RUSSO                                                0000000023702622000000000064858 I000000000010349000000000000000               201212210000000000000000000000000000000000000000054557000000000000000000000000000000010000112012  0120121221   01          000                                                                                                                          00REF.11/2012                                              00000 10020256        000005
12001966855000134MOVITTEC IND.COM.LTDA.        RUA. JOSE ALVES DE CASTRO, 487          9175009023700797800000000589276 I000000000010350000000000000000               201212210000000000000000000000000000000000000000275974000000000000000000000000000000010000000083  0120121221   01          000                                                                                                                          00083                                                      00000 10020256        000006
11889640519000004GISELLE GONALVES              RUA. LEOBERTO LEAL, 99 - SL.01          8811700123702937800000000045691 I000000000010351000000000000000               201212210000000000000000000000000000000000000000099196000000000000000000000000000000010000000012  0120121221   01          000                                                                                                                          00REF.12/2012.                                             00000 10020256        000007
11544915926000091ANIBAL LOPES DA SILVA NETO    AV.REDELVIN ANDRADE, 594 - B.           3303529023702146600000000209090 I000000000010352000000000000000               201212210000000000000000000000000000000000000000380193000000000000000000000000000000010000100024  0120121221   01          000                                                                                                                          00NF.NRO.100024.                                           00000 10020256        000008
12007711227000194L.BARBI REPRESENTACOES        RUA. LUIZ JANURIO, 406 - SALA.201       2899000023702804500000000201758 I000000000010353000000000000000               201212210000000000000000000000000000000000000000543519000000000000000000000000000000010000000114  0120121221   01          000                                                                                                                          00NF.NRO.0114.                                             00000 10020256        000009
12007711227000194L.BARBI REPRESENTACOES        RUA. LUIZ JANURIO, 406 - SALA.201       2899000023702804500000000201758 I000000000010354000000000000000               201212210000000000000000000000000000000000000000130900000000000000000000000000000000010000000126  0120121221   01          000                                                                                                                          000126                                                     00000 10020256        000010
900001100000000002007422                                                                                                                                                                                                                                                                                                                                                                                                                                                                                      000011
