0000147602043799295000110ALTAMIRA IND METALURGICA LTDA           201005640000020121121132559             0    230A                                                                                                                                                                                                                                                                                                                                                                                            000001
12043799295000110ALTAMIRA INDUSTRIA METAL.LTDA.RUA. GANGES, 528                        0344503003303809500000130004071 I000000000010197000000000000000               201211210000000000000000000000000000000000000002800000000000000000000000000000000000050000000001  0820121121   01          0001400                                                                              D0000000101                             0001                                                       00000  0020256        000002
900000300000000002800000                                                                                                                                                                                                                                                                                                                                                                                                                                                                                      000003
