0000147602043799295000110ALTAMIRA IND METALURGICA LTDA           201005360000020121023164054             0    230A                                                                                                                                                                                                                                                                                                                                                                                            000001
12035820448000136WHITE MARTINS GASES INDUSTRIAI                                        0000000023700026400000003937925 0000000086699210009022330000393368126 001     201209140000000000000000054560000162300000000000173970000000000000000000000000011670050000000000  3020121023   01          500RUA GANGES  528                                                                   010000                   000000000000000008979/01                                                  00598  0020256        000002
12026470807000343MANDALA TRANSPORTES DE CARGAS                                         0000000034100000 0000000000000  I000000000010067000000000000000               201210240000000000000000054960000109140000000000109140000000000000000000000000000000010000093957  3120121023   01          000                                                                                  109000166662144631527500089             0093957                                                    00000  0020256        000003
12068364900000151VR INDUSTRIA HELIOGRAFICA LTDA                                        0000000003300000 0000000000000  I000000000010068000000000000000               201210230000000000000000054950000017894000000000017894000000000000000000000000000000010000136263  3120121023   01          000                                                                                  942136960000000181900020399             00136263                                                   00000  0020256        000004
12065611451000100SUPERDIN COMERCIAL E IMPORTADO                                        0000000023700890700000000004502 I000000000010069000000000000000               201210230000000000000000000000000000000000000000020616000000000000000000000000000000010000006798  0120121023   01          000                                                                                                                          00NF.NRO.06798                                             00000 10020256        000005
900000600000000000321620                                                                                                                                                                                                                                                                                                                                                                                                                                                                                      000006
