0000147602043799295000110ALTAMIRA IND METALURGICA LTDA           201004510000020120723171131             0    230A                                                                                                                                                                                                                                                                                                                                                                                            000001
12012006058000121WEG TINTAS LTDA.              ROD. BR. 280 - KM.50 - S/N.             8927000023702727800000000001309 I000000000009254009021630000087               201207230000000000000000054030000459854000000000459854000000000000000000000000000000010000143742  3120120723   01          000                                                                                  272709216300000870000130019             000143742/01                                               00000  0020256        000002
12042956441000101SOLUCOES EM ACO USIMINAS S/A. RUA. DIANOPOLIS, 670/710                0312510000100000 0000000000000  I000000000009255000000000000000               201207230000000000000000054030000125238000000000125238000000000000000000000000000000010000166829  3120120723   01          000                                                                                  000000169660100000865641759             000166829/01                                               00000  0020256        000003
900000400000000000585092                                                                                                                                                                                                                                                                                                                                                                                                                                                                                      000004
