0000147602043799295000110ALTAMIRA IND METALURGICA LTDA           201005660000020121123105716             0    230A                                                                                                                                                                                                                                                                                                                                                                                            000001
12043799295000110ALTAMIRA INDUSTRIA METAL.LTDA.RUA. GANGES, 528                        0344503003303809500000130004071 I000000000010207000000000000000               201211230000000000000000000000000000000000000000800000000000000000000000000000000000050000000001  0820121123   01          0001130                                                                              D0000000101                             0001                                                       00000  0020256        000002
12000867888000164TECNEQUIP TECNOLOGIA EQUIP.LTDRUA. GANGES,                            0344503003303809500000130003245 I000000000010208000000000000000               201211230000000000000000000000000000000000000000800000000000000000000000000000000000040000000002  0820121123   01          0001130                                                                              C0000000101                             0002                                                       00000  0020256        000003
900000400000000001600000                                                                                                                                                                                                                                                                                                                                                                                                                                                                                      000004
