0000147602043799295000110ALTAMIRA IND METALURGICA LTDA           201004810000020120824165605             0    230A                                                                                                                                                                                                                                                                                                                                                                                            000001
12042956441000101SOLUCOES EM ACO USIMINAS S/A. RUA. DIANOPOLIS, 670/710                0312510034100000 0000000000000  I000000000009624000000000000000               201208240000000000000000054350001139607000000001139607000000000000000000000000000000010000161432  3120120824   01          000                                                                                  181529407158293807258000019             000161432/03                                               00000  0020256        000002
12006000195000156MBA MERCANTIL BRASIL.ACO LTDA.RUA. RINCAO, 220                        0365108023700118000000002128292 I000000000009625000000000000000               201208240000000000000000000000000000000000000000677504000000000000000000000000000000010000008654  0120120824   01          000                                                                                                                          00NF.NRO.08654/02                                          00000 10020256        000003
12006000195000156MBA MERCANTIL BRASIL.ACO LTDA.RUA. RINCAO, 220                        0365108023700118000000002128292 I000000000009626000000000000000               201208240000000000000000000000000000000000000000150849000000000000000000000000000000010000008358  0120120824   01          000                                                                                                                          00NF.NRO.08358/03                                          00000 10020256        000004
12005151518000140BELENUS DO BRASIL LTDA.       RUA.COMENDADOR JOAO LUCAS, 300          1328000000100000 0000000000000  I000000000009627000000000000000               201208240000000000000000054350000608925000000000608925000000000000000000000000000000010000289197  3120120824   01          000                                                                                  000000123933843930014973199             000289197/01                                               00000  0020256        000005
12047190731000100DE CASTRO LOUREIRO ENGENHARIA                                         0000000023702372800000008004412 I000000000009628009000000000636               201208240000000000000000054350000552566000000000552566000000000000000000000000000000010000025435  3120120824   01          000                                                                                  237209000000006360800441019             00025435/03                                                00000  0020256        000006
12053585766000141MULTIACOS IND.COM.PROD.TEC.LTDAV.PAPA JOAO XXIII, 1460/A.             0937080000100000 0000000000000  I000000000009629000000000000000               201208240000000000000000054350000499918000000000499918000000000000000000000000000000010000043751  3120120824   01          000                                                                                  043940876861912000139523189             00043751/01                                                00000  0020256        000007
12042956441000101SOLUCOES EM ACO USIMINAS S/A. RUA. DIANOPOLIS, 670/710                0312510034100000 0000000000000  I000000000009630000000000000000               201208240000000000000000054350000372453000000000372453000000000000000000000000000000010000160972  3120120824   01          000                                                                                  181529407844293807258000039             000160972/03                                               00000  0020256        000008
12012006058000121WEG TINTAS LTDA.              ROD. BR. 280 - KM.50 - S/N.             8927000023702727800000000001309 I000000000009631009021880000083               201208240000000000000000054350000308609000000000308609000000000000000000000000000000010000149902  3120120824   01          000                                                                                  272709218800000830000130079             000149902/01                                               00000  0020256        000009
12042956441000101SOLUCOES EM ACO USIMINAS S/A. RUA. DIANOPOLIS, 670/710                0312510034100000 0000000000000  I000000000009632000000000000000               201208240000000000000000054350000264359000000000264359000000000000000000000000000000010000160971  3120120824   01          000                                                                                  181529408693293807258000099             000160971/03                                               00000  0020256        000010
12002558199000101OMEGA TUBOS COM.IMP.E EXP.LTDAAV. PRESIDENTE WILSON, 5056             0422000103300000 0000000000000  I000000000009633000000000000000               201208240000000000000000054350000258611000000000258611000000000000000000000000000000010000026380  3120120824   01          000                                                                                  947509770000000088722020349             00026380/02                                                00000  0020256        000011
12051598472000129ELETRICA J SANTOS                                                     0000000023702451100000000000264 I000000000009634009022060000031               201208240000000000000000054350000093023000000000093023000000000000000000000000000000010000017806  3120120824   01          000                                                                                  245109220600000310000026039             00017806/01                                                00000  0020256        000012
12014309992000148WEG DRIVES   CONTROLS   AUTOMA                                        0000000023702727800000000001872 I000000000009635009022080000296               201208240000000000000000054350000056348000000000056348000000000000000000000000000000010000083461  3120120824   01          000                                                                                  272709220800002960000187099             00083461/01                                                00000  0020256        000013
12009259079000144SAFRA COMERCIAL DE PAPEIS LTDARUA. BARBARA HIPOLITO CAPRIOTTI, 401    0639500003300000 0000000000000  I000000000009636000000000000000               201208240000000000000000054350000024056000000000024056000000000000000000000000000000010000128569  3120120824   01          000                                                                                  918361880000000324570010479             000128569/01                                               00000  0020256        000014
12002503185000182ANDAIMES MAQUINAS BIG LTDA    AV.PROF.LUIZ ANHAIA MELLO, 600          0315410000100000 0000000000000  I000000000009637000000000000000               201208240000000000000000054350000026588000000000026588000000000000000000000000000000010000011516  3120120824   01          000                                                                                  000000187782308250653521719             00011516                                                   00000  0020256        000015
12056993900000131CIA METALURGICA PRADA                                                 0000000034100000 0000000000000  I000000000009638000000000000000               201208240000000000000000054350000662423000000000662423000000000000000000000000000000010000244463  3120120824   01          000                                                                                  181529409801293800573900029             000244463/03                                               00000  0020256        000016
900001700000000005695839                                                                                                                                                                                                                                                                                                                                                                                                                                                                                      000017
