0000147602043799295000110ALTAMIRA IND METALURGICA LTDA           201004530000020120725170120             0    230A                                                                                                                                                                                                                                                                                                                                                                                            000001
12056993900000131CIA METALURGICA PRADA                                                 0000000034100000000000000000000000000000820562240000002080193640024478202     201207250000000000000000054050000113251000000000113251000000000000000000000000000000050000000000  3020120725   01          500                                                                                  112080193645293800573900049010000       000244782/02                                               01321  0020256        000002
12060770336000165DE CASTRO LOUREIRO ENG IND COM                                        0000000023702372800000008004412 000000008248201300900000000063503025435 0     201207250000000000000000054050000550565000000000550565000000000000000000000000000000050000000000  3020120725   01          500RUA JUNO  533                           DE CASTRO LOUREIRO ENGENHARIA IND  E COM  010000                   04719073100010000025435/02                                                00598  0020256        000003
12009472156000140RME ENGENHARIA LTDA                                                   0000000023702303500000000257672 000000008297802100901321670058238703          201207240000000000000000054040000116025000000000118732000000000000000000000000002707050000000000  3020120725   01          500RUA TAMAINDE  1410                                                                010000                   00000000000000000080/03.                                                  00598  0020256        000004
12003803271000173ATUAL SP C DE FERRAMENTAS LTDA                                        000000003410000000000000000000000000000083482061000000784521239006527         201207250000000000000000054050000039532000000000039532000000000000000000000000000000050000000000  3020120725   01          500                                                                                  157845212395013905550300049010000       0006527/01                                                 01321  0020256        000005
12017469701000177ARCELORMITTAL BRASIL S A                                              0000000034100000000000000000000000000000835620790000009322028850012463201     201207250000000000000000054050000063787000000000063787000000000000000000000000000000050000000000  3020120725   01          500                                                                                  109322028859293802529900099010000       000124632/01                                               01321  0020256        000006
12035820448000136WHITE MARTINS GASES INDUSTRIAI                                        0000000023700026400000003937925 0000000083562082009021800000771345431 001     201207250000000000000000054050000101329000000000101329000000000000000000000000000000050000000000  3020120725   01          500RUA GANGES  528                                                                   010000                   0000000000000000008678                                                    00598  0020256        000007
12061780615000172LEPOK INFORMATICA E PAP LTDA                                          0000000034100000000000000000000000000000840312950000002180441002 110671       201207250000000000000000054050000038645000000000038645000000000000000000000000000000050000000000  3020120725   01          500                                                                                  112180441001007479958600019010000       000110671/01                                               01321  0020256        000008
12057196081000164MINELE COMERCIO DE PARAFUSOS L                                        0000000023700298400000002047470 0000000084106114009021880000002495            201207250000000000000000054050000057400000000000057400000000000000000000000000000000050000000000  3020120725   01          500R  GANGES  528   VL CARRAO                                                        010000                   000000000000000000495/01                                                  00598  0020256        000009
12056993512000150CYKLOP DO BRASIL EMBALAGENS SA                                        0000000034100000000000000000000000000000847452020000002213475730001364        201207250000000000000000054050000013600000000000013600000000000000000000000000000000050000000000  3020120725   01          500                                                                                  112213475737025786126000039010000       0001364                                                    01321  0020256        000010
12056993512000150CYKLOP DO BRASIL EMBALAGENS SA                                        0000000034100000000000000000000000000000847452030000002213476320128270        201207250000000000000000054050000037210000000000037210000000000000000000000000000000050000000000  3020120725   01          500                                                                                  112213476321025786126000019010000       000128270/01                                               01321  0020256        000011
12006000195000156MBA MERCANTIL BRASIL.ACO LTDA.RUA. RINCAO, 220                        0365108023700118000000002128292 I000000000009261000000000000000               201207250000000000000000000000000000000000000000880864000000000000000000000000000000010000008094  0120120725   01          000                                                                                                                          0008094/03                                                 00000 10020256        000012
12042956441000101SOLUCOES EM ACO USIMINAS S/A. RUA. DIANOPOLIS, 670/710                0312510034100000 0000000000000  I000000000009262000000000000000               201207250000000000000000054050000726408000000000726408000000000000000000000000000000010000161902  3120120725   01          000                                                                                  181511185622293807258000039             000161902/02                                               00000  0020256        000013
12042956441000101SOLUCOES EM ACO USIMINAS S/A. RUA. DIANOPOLIS, 670/710                0312510034100000 0000000000000  I000000000009263000000000000000               201207250000000000000000054050000701067000000000701067000000000000000000000000000000010000160933  3120120725   01          000                                                                                  181511186869293807258000019             000160933/02                                               00000  0020256        000014
12042956441000101SOLUCOES EM ACO USIMINAS S/A. RUA. DIANOPOLIS, 670/710                0312510000100000 0000000000000  I000000000009264000000000000000               201207250000000000000000054050000651880000000000651880000000000000000000000000000000010001668150  3120120725   01          000                                                                                  000000169660100000865521719             0001668150/01                                              00000  0020256        000015
12056993900000131CIA METALURGICA PRADA                                                 0000000034100000 0000000000000  I000000000009265000000000000000               201207250000000000000000054050000201044000000000201044000000000000000000000000000000010000244464  3120120725   01          000                                                                                  181511184636293800573900029             000244464/02                                               00000  0020256        000016
12069309706000136F N A TRANSPORTES LTDA                                                0000000034100000 0000000000000  I000000000009266000000000000000               201207250000000000000000054050000198660000000000198660000000000000000000000000000000010000012269  3120120725   01          000                                                                                  181511181999005486932600069             00012269                                                   00000  0020256        000017
12013954231000186JP ESCADAS LTDA EPP           AV ANTONIO ESTEVAO DE CARVALHO, 2222    0354020000100000 0000000000000  I000000000009267000000000000000               201207250000000000000000054050000023400000000000023400000000000000000000000000000000010000001548  3120120725   01          000                                                                                  000000231739700000013121719             0001548                                                    00000  0020256        000018
900001900000000004517374                                                                                                                                                                                                                                                                                                                                                                                                                                                                                      000019
