0000147602043799295000110ALTAMIRA IND METALURGICA LTDA           201005700000020121126122751             0    230A                                                                                                                                                                                                                                                                                                                                                                                            000001
12000867888000164TECNEQUIP TECNOLOGIA EQUIP.LTDRUA. GANGES,                            0344503003303809500000130003245 I000000000010216000000000000000               201211260000000000000000000000000000000000000000600000000000000000000000000000000000040000000004  0820121126   01          0001300                                                                              C0000000101                             0004                                                       00000  0020256        000002
900000300000000000600000                                                                                                                                                                                                                                                                                                                                                                                                                                                                                      000003
