0000147602043799295000110ALTAMIRA IND METALURGICA LTDA           201004820000020120827162225             0    230A                                                                                                                                                                                                                                                                                                                                                                                            000001
12000288916000199VB.SERVICOS COM.ADM.LTDA.     RUA. VITORIA, 211 - SL.01.              0652920003300000 0000000000000  I000000000009639000000000000000               201209070000000000000000054490000648621000000000648621000000000000000000000000000000050005614974  3120120827   01          000                                                                                  119130442690030259000337879             005614974                                                  00000  0020256        000002
12075483040000130REX MAQ E EQUIPAMENTOS LTDA                                           0000000023702656500000000000701 I000000000009640002022160000320               201208270000000000000000054380000503182000000000503182000000000000000000000000000000010000078261  3120120827   01          000                                                                                  265602221600003200000070019             0078261/2-1                                                00000  0020256        000003
12017469701000177ARCELORMITTAL BRASIL S A                                              0000000034100000 0000000000000  I000000000009641000000000000000               201208270000000000000000054380000064113000000000064113000000000000000000000000000000010000126447  3120120827   01          000                                                                                  181530013130293802529900019             000126447/03                                               00000  0020256        000004
12061217188000119TELAS METALICAS TELMETAL LTDA.RUA.ALDEIA DA PRATA, 38                 0368008000100000 0000000000000  I000000000009642000000000000000               201208270000000000000000054380000052975000000000052975000000000000000000000000000000010000005358  3120120827   01          000                                                                                  000000115031800000055501739             005358/02-03.                                              00000  0020256        000005
900000600000000001268891                                                                                                                                                                                                                                                                                                                                                                                                                                                                                      000006
