0000147602043799295000110ALTAMIRA IND METALURGICA LTDA           201005130000020120928152943             0    230A                                                                                                                                                                                                                                                                                                                                                                                            000001
12043799295000110ALTAMIRA INDUSTRIA METAL.LTDA.RUA. GANGES, 528                        0344503034100467 00000000209128 I000000000009958000000000000000               201209280000000000000000000000000000000000000005800000000000000000000000000000000000040000000001  0820120928   01          0001600                                                                              D0000000101                             0001                                                       00000  0020256        000002
900000300000000005800000                                                                                                                                                                                                                                                                                                                                                                                                                                                                                      000003
