0000147602043799295000110ALTAMIRA IND METALURGICA LTDA           201005750000020121128115923             0    230A                                                                                                                                                                                                                                                                                                                                                                                            000001
12043799295000110ALTAMIRA INDUSTRIA METAL.LTDA.RUA. GANGES, 528                        0344503003303809500000130004071 I000000000010229000000000000000               201211280000000000000000000000000000000000000001600000000000000000000000000000000000050000000001  0820121128   01          0001240                                                                              D0000000101                             0001                                                       00000  0020256        000002
900000300000000001600000                                                                                                                                                                                                                                                                                                                                                                                                                                                                                      000003
