0000147602043799295000110ALTAMIRA IND METALURGICA LTDA           201004840000020120829164646             0    230A                                                                                                                                                                                                                                                                                                                                                                                            000001
12061217188000119TELAS METALICAS TELMETAL LTDA                                         0000000003300000000000000000000000000000854049670000009200000005425 1 3       201208270000000000000000054380000045018000000000045258000000000000000000000000000240050000000000  3020120829   01          500                                                                                  915435040000000047392020119010000       0005425/01-03.                                             01321  0020256        000002
12001031724000165NEW TR COM AGENC CARGAS LTDA                                          00000000341000000000000000000000000000008685926600000079244336012 0980 MI     201208290000000000000000054400000169855000000000169855000000000000000000000000000000050000000000  3020120829   01          500                                                                                  157924433606295813499700069010000       0012/0980                                                  01321  0020256        000003
12001031724000165NEW TR COM AGENC CARGAS LTDA                                          00000000341000000000000000000000000000008685926700000079244289512 0982        201208290000000000000000054400000339710000000000339710000000000000000000000000000000050000000000  3020120829   01          500                                                                                  157924428952295813499700019010000       0012/0982.                                                 01321  0020256        000004
12042956441000101SOLUCOES EM ACO USIMINAS S/A. RUA. DIANOPOLIS, 670/710                0312510000100000 0000000000000  I000000000009658000000000000000               201208290000000000000000054400000660769000000000660769000000000000000000000000000000010000166815  3120120829   01          000                                                                                  000000169660100000865531749             000166815/02                                               00000  0020256        000005
12042956441000101SOLUCOES EM ACO USIMINAS S/A. RUA. DIANOPOLIS, 670/710                0312510034100000 0000000000000  I000000000009659000000000000000               201208290000000000000000054400000345825000000000345825000000000000000000000000000000010000161900  3120120829   01          000                                                                                  181531688308293807258000059             000161900/03                                               00000  0020256        000006
12042956441000101SOLUCOES EM ACO USIMINAS S/A. RUA. DIANOPOLIS, 670/710                0312510034100000 0000000000000  I000000000009660000000000000000               201208290000000000000000054400000250086000000000250086000000000000000000000000000000010000161897  3120120829   01          000                                                                                  181531692169293807258000019             000161897/03                                               00000  0020256        000007
12042956441000101SOLUCOES EM ACO USIMINAS S/A. RUA. DIANOPOLIS, 670/710                0312510034100000 0000000000000  I000000000009661000000000000000               201208290000000000000000054400000242516000000000242516000000000000000000000000000000010000160934  3120120829   01          000                                                                                  181531693779293807258000019             000160934/03                                               00000  0020256        000008
12042956441000101SOLUCOES EM ACO USIMINAS S/A. RUA. DIANOPOLIS, 670/710                0312510034100000 0000000000000  I000000000009662000000000000000               201208290000000000000000054400000193914000000000193914000000000000000000000000000000010000171270  3120120829   01          000                                                                                  181531696608293807258000079             000171270/01                                               00000  0020256        000009
12042956441000101SOLUCOES EM ACO USIMINAS S/A. RUA. DIANOPOLIS, 670/710                0312510034100000 0000000000000  I000000000009663000000000000000               201208290000000000000000054400000170801000000000170801000000000000000000000000000000010000171271  3120120829   01          000                                                                                  181531698851293807258000019             000171271/01                                               00000  0020256        000010
12042956441000101SOLUCOES EM ACO USIMINAS S/A. RUA. DIANOPOLIS, 670/710                0312510000100000 0000000000000  I000000000009664000000000000000               201208290000000000000000054400000127450000000000127450000000000000000000000000000000010000166829  3120120829   01          000                                                                                  000000169660100000865651789             000166829/02                                               00000  0020256        000011
12042956441000101SOLUCOES EM ACO USIMINAS S/A. RUA. DIANOPOLIS, 670/710                0312510000100000 0000000000000  I000000000009665000000000000000               201208290000000000000000054400000331242000000000331242000000000000000000000000000000010000166828  3120120829   01          000                                                                                  000000169660100000865621789             000166828/02                                               00000  0020256        000012
12042956441000101SOLUCOES EM ACO USIMINAS S/A. RUA. DIANOPOLIS, 670/710                0312510034100000 0000000000000  I000000000009666000000000000000               201208290000000000000000054400000212208000000000212208000000000000000000000000000000010000171269  3120120829   01          000                                                                                  181531966134293807258000029             000171269/01                                               00000  0020256        000013
12061217188000119TELAS METALICAS TELMETAL LTDA.RUA.ALDEIA DA PRATA, 38                 0368008000100000 0000000000000  I000000000009667000000000000000               201208290000000000000000054400000070338000000000070338000000000000000000000000000000010000005371  3120120829   01          000                                                                                  000000115031800000055641779             0005371/01-03                                              00000  0020256        000014
12068364900000151VR INDUSTRIA HELIOGRAFICA LTDA                                        0000000034100000 0000000000000  I000000000009668000000000000000               201208290000000000000000054400000018105000000000018105000000000000000000000000000000010000134204  3120120829   01          000                                                                                  109030022948013778941800019             00134204                                                   00000  0020256        000015
900001600000000003178077                                                                                                                                                                                                                                                                                                                                                                                                                                                                                      000016
