0000147602043799295000110ALTAMIRA IND METALURGICA LTDA           201005780000020121129174345             0    230A                                                                                                                                                                                                                                                                                                                                                                                            000001
12042956441000101SOLUCOES ACO USIMINAS                                                 0000000034100000000000000000000000000000861207240000002282167000017385803     201211290000000000000000055320000714796000000000714796000000000000000000000000000000050000000000  3020121129   01          500                                                                                  112282167009293807258000089010000       000173858/03                                               01321  0020256        000002
12061217188000119TELAS METALICAS TELMETAL LTDA                                         0000000034100000000000000000000000000000905040950000009000030395805 3 3       201211290000000000000000055320000065546000000000065546000000000000000000000000000000050000000000  3020121129   01          500                                                                                  109000030393077099894600049010000       005805/03-03                                               01321  0020256        000003
12005151518000140BELENUS DO BRASIL LTDA                                                000000000330000000000000000000000000000091026582000000100000000R132008212     201211220000000000000000055250000599040000000000612877000000000000000000000000013837050000000000  3020121129   01          500                                                                                  918381050000000498610010479010000       000320082/01                                               01321  0020256        000004
12001895314000162COLETA INDUSTRIAL FIMAVAN LTDA                                        00000000341000000000000000000000000000009229728300000090023632512372          201211290000000000000000055320000129467000000000129467000000000000000000000000000000050000000000  3020121129   01          500                                                                                  109002363256144604097200019010000       0012372                                                    01321  0020256        000005
12042956441000101SOLUCOES EM ACO USIMINAS S/A. RUA. DIANOPOLIS, 670/710                0312510034100000 0000000000000  I000000000010246000000000000000               201211290000000000000000055320000167999000000000167999000000000000000000000000000000010000173538  3120121129   01          000                                                                                  181590594652293807258000029             000173538/03                                               00000  0020256        000006
12042956441000101SOLUCOES EM ACO USIMINAS S/A. RUA. DIANOPOLIS, 670/710                0312510034100000 0000000000000  I000000000010247000000000000000               201211290000000000000000055320000179976000000000179976000000000000000000000000000000010000173194  3120121129   01          000                                                                                  181590593456293807258000039             000173194/03                                               00000  0020256        000007
12042956441000101SOLUCOES EM ACO USIMINAS S/A. RUA. DIANOPOLIS, 670/710                0312510034100000 0000000000000  I000000000010248000000000000000               201211290000000000000000055320000081538000000000081538000000000000000000000000000000010000173537  3120121129   01          000                                                                                  181590595584293807258000049             000173537/03                                               00000  0020256        000008
12062539994000176LEALFER INDUSTRIA E COMERCIO D                                        0000000034100000 0000000000000  I000000000010249000000000000000               201211290000000000000000055320000861456000000000861456000000000000000000000000000000010000054615  3120121129   01          000                                                                                  181590619373076103324000079             00054615/02                                                00000  0020256        000009
12042956441000101SOLUCOES EM ACO USIMINAS S/A. RUA. DIANOPOLIS, 670/710                0312510034100000 0000000000000  I000000000010250000000000000000               201211290000000000000000055320000195691000000000195691000000000000000000000000000000010000173198  3120121129   01          000                                                                                  181590591344293807258000049             000173198/03                                               00000  0020256        000010
12042956441000101SOLUCOES EM ACO USIMINAS S/A. RUA. DIANOPOLIS, 670/710                0312510034100000 0000000000000  I000000000010251000000000000000               201211290000000000000000055320000198227000000000198227000000000000000000000000000000010000173196  3120121129   01          000                                                                                  181590590635293807258000039             000173196/03                                               00000  0020256        000011
12042956441000101SOLUCOES EM ACO USIMINAS S/A. RUA. DIANOPOLIS, 670/710                0312510034100000 0000000000000  I000000000010252000000000000000               201211290000000000000000055320000198395000000000198395000000000000000000000000000000010000173197  3120121129   01          000                                                                                  181590589249293807258000059             000173197/03                                               00000  0020256        000012
12042956441000101SOLUCOES EM ACO USIMINAS S/A. RUA. DIANOPOLIS, 670/710                0312510034100000 0000000000000  I000000000010253000000000000000               201211290000000000000000055320000198566000000000198566000000000000000000000000000000010000173195  3120121129   01          000                                                                                  181590588712293807258000019             000173195/03                                               00000  0020256        000013
12042956441000101SOLUCOES EM ACO USIMINAS S/A. RUA. DIANOPOLIS, 670/710                0312510034100000 0000000000000  I000000000010254000000000000000               201211290000000000000000055320000935028000000000935028000000000000000000000000000000010000173160  3120121129   01          000                                                                                  181590588175293807258000069             000173160/03                                               00000  0020256        000014
12045635984000115CRIFER LAMINADOS DE ACO E FERR                                        0000000034100000 0000000000000  I000000000010255000000000000000               201211290000000000000000055320000461880000000000461880000000000000000000000000000000010000035771  3120121129   01          000                                                                                  181590572756005630080900019             00035771                                                   00000  0020256        000015
12071154462000292POWER EXPRESS LOGISTICA E TRAN                                        0000000023703417700000000103896 I000000000010256009000000007124               201211290000000000000000055320000085700000000000085700000000000000000000000000000000010000330604  3120121129   01          000                                                                                  341709000000071240010389029             00330604                                                   00000  0020256        000016
12008594182000188ACOS G3 COMERCIO E BENEFICIAME                                        0000000023703137200000000091332 I000000000010257028022710000026               201211290000000000000000055320000156190000000000156190000000000000000000000000000000010000001155  3120121129   01          000                                                                                  313728227100000260009133069             001155                                                     00000  0020256        000017
12010824619000174ALVALOG TRANSPORTES E LOGISTIC                                        0000000003300000 0000000000000  I000000000010258000000000000000               201211290000000000000000055320000096732000000000096732000000000000000000000000000000010000277232  3120121129   01          000                                                                                  946239400000000059190010119             00277232                                                   00000  0020256        000018
12001784706000154TRANSPORTADORA WARTHA LTDA    RUA CRISTOVAO BEZERRA DANTAS 1093       0227001023701775200000000260010 I000000000010259028023100000186               201211290000000000000000055320000053206000000000053206000000000000000000000000000000010000269764  3120121129   01          000                                                                                  177528231000001860026001019             000269764                                                  00000  0020256        000019
12045987005000198D PASCHOAL AUTOMOTIVA LTDA                                            0000000023702002800000000147001 I000000000010260011000000017166               201211290000000000000000055320000033570000000000033570000000000000000000000000000000010000000036  3120121129   01          000                                                                                  200211000000171660014700079             00036                                                      00000  0020256        000020
12033325184001786ALSCO TOALHEIRO BRASIL LTDA.  AV.NADIR DIAS DE FIGUEIREDO, 829        0211000023703396000000001490850 I000000000010261009000002787905               201211290000000000000000055320000037659000000000037659000000000000000000000000000000010000027879  3120121129   01          000                                                                                  339609000027879050149085029             0027879                                                    00000  0020256        000021
12003370710000100ALTIZA TRANSPORTES LTDA                                               0000000010400000 0000000000000  I000000000010262000000000000000               201211290000000000000000055320000029967000000000029967000000000000000000000000000000010000003546  3120121129   01          000                                                                                  284848190110104000000702279             0003546                                                    00000  0020256        000022
12004882911000140FERNANDO COSTA BRITO GUARULHOSRUA BANDEIRA PAULISTA 11 B              0000000003300000 0000000000000  I000000000010263000000000000000               201211290000000000000000055320000042232000000000042232000000000000000000000000000000010000014860  3120121129   01          000                                                                                  944753720000000109029010119             0014860                                                    00000  0020256        000023
12001784706000154TRANSPORTADORA WARTHA LTDA    RUA CRISTOVAO BEZERRA DANTAS 1093       0227001023701775200000000260010 I000000000010264009022990000155               201211290000000000000000055320000071890000000000071890000000000000000000000000000000010002681491  3120121129   01          000                                                                                  177509229900001550026001069             002681491                                                  00000  0020256        000024
12061683652000162TRANS FACE TRANSPORTES LTDA.  AL.SEGUNDO SARGENTO ANANIAS H.OL.30     0218607023700530400000000141828 I000000000010265009000000110375               201211290000000000000000055320000082971000000000082971000000000000000000000000000000010000085343  3120121129   01          000                                                                                  053009000001103750014182029             0085343                                                    00000  0020256        000025
12059358770000153TRANSNEW ABC TRANSP.LTDA.     AV.BALNEARIA,288                        0982226023701193200000000698555 I000000000010266009013231207635               201211290000000000000000055320000137960000000000137960000000000000000000000000000000010000055320  3120121129   01          000                                                                                  119309132312076350069855069             0055320                                                    00000  0020256        000026
12013656578000142GUARINOR TRANSP E LOGISTICA LT                                        0000000010400000 0000000000000  I000000000010267000000000000000               201211290000000000000000055320000055800000000000055800000000000000000000000000000000010000002141  3120121129   01          000                                                                                  900000153132958700000017379             0002141/12                                                 00000  0020256        000027
12045351418000181TRANSPORTE RODOR LTDA         AV MARGINAL ESQUERDA 777                1462000023700535500000000018546 I000000000010268000000000000000               201211290000000000000000000000000000000000000000023000000000000000000000000000000000010000593104  0120121129   01          000                                                                                                                          00CONHEC.593104                                            00000 10020256        000028
12011389422000117NELSON RODRIGUES SILVA JUNIOR.AV.JAGUARAO, 314                        0722300023700593200000002260786 I000000000010269000000000000000               201211290000000000000000000000000000000000000000066280000000000000000000000000000000010000038957  0120121129   01          000                                                                                                                          00CONHEC.NRO.038957.                                       00000 10020256        000029
900003000000000005974599                                                                                                                                                                                                                                                                                                                                                                                                                                                                                      000030
