0000147602043799295000110ALTAMIRA IND METALURGICA LTDA           201005430000020121030165151             0    230A                                                                                                                                                                                                                                                                                                                                                                                            000001
12004455726000170INTERCLICK INFOR.S/C LTDA.    RUA. JORGE AUGUSTO, 83 - SL.84          0364500023702451100000000099449 I000000000010109000000000000000               201210300000000000000000000000000000000000000001103000000000000000000000000000000000030000001252  0120121030   01          000                                                                                                                          001252                                                     00000 10020256        000002
12042956441000101SOLUCOES EM ACO USIMINAS S/A. RUA. DIANOPOLIS, 670/710                0312510023702374400000000021679 I000000000010110000000000000000               201210300000000000000000000000000000000000000001428677000000000000000000000000000000050000000001  0120121030   01          000                                                                                                                          0001                                                       00000 10020256        000003
900000400000000002531677                                                                                                                                                                                                                                                                                                                                                                                                                                                                                      000004
