0000147602043799295000110ALTAMIRA IND METALURGICA LTDA           201004560000020120730170421             0    230A                                                                                                                                                                                                                                                                                                                                                                                            000001
12006000195000156MBA MERCANTIL BRASIL.ACO LTDA.RUA. RINCAO, 220                        0365108023700118000000002128292 I000000000009276000000000000000               201207300000000000000000000000000000000000000000517280000000000000000000000000000000010000008399  0120120730   01          000                                                                                                                          0008399/02                                                 00000 10020256        000002
12006000195000156MBA MERCANTIL BRASIL.ACO LTDA.RUA. RINCAO, 220                        0365108000100000 0000000000000  I000000000009277000000000000000               201207300000000000000000054100000652899000000000652899000000000000000000000000000000010000008656  3120120730   01          000                                                                                  043852571613333000105251149             0008656/01                                                 00000  0020256        000003
12006000195000156MBA MERCANTIL BRASIL.ACO LTDA.RUA. RINCAO, 220                        0365108000100000 0000000000000  I000000000009278000000000000000               201207300000000000000000054100000399251000000000399251000000000000000000000000000000010000007989  3120120730   01          000                                                                                  043688159903333000105251139             0007989/03                                                 00000  0020256        000004
12042956441000101SOLUCOES EM ACO USIMINAS S/A. RUA. DIANOPOLIS, 670/710                0312510034100000 0000000000000  I000000000009279000000000000000               201207300000000000000000054100000578853000000000578853000000000000000000000000000000010000161895  3120120730   01          000                                                                                  181513659541293807258000039             000161895/02                                               00000  0020256        000005
12042956441000101SOLUCOES EM ACO USIMINAS S/A. RUA. DIANOPOLIS, 670/710                0312510034100000 0000000000000  I000000000009280000000000000000               201207300000000000000000054100000343416000000000343416000000000000000000000000000000010000160747  3120120730   01          000                                                                                  181513658592293807258000089             00160747/02                                                00000  0020256        000006
12042956441000101SOLUCOES EM ACO USIMINAS S/A. RUA. DIANOPOLIS, 670/710                0312510034100000 0000000000000  I000000000009281000000000000000               201207300000000000000000054100000344468000000000344468000000000000000000000000000000010000161900  3120120730   01          000                                                                                  181513657693293807258000069             000161900/02                                               00000  0020256        000007
12042956441000101SOLUCOES EM ACO USIMINAS S/A. RUA. DIANOPOLIS, 670/710                0312510034100000 0000000000000  I000000000009282000000000000000               201207300000000000000000054100000455998000000000455998000000000000000000000000000000010000161903  3120120730   01          000                                                                                  181513660879293807258000039             000161903/02                                               00000  0020256        000008
12042956441000101SOLUCOES EM ACO USIMINAS S/A. RUA. DIANOPOLIS, 670/710                0312510000100000 0000000000000  I000000000009283000000000000000               201207300000000000000000054100000397167000000000397167000000000000000000000000000000010000166813  3120120730   01          000                                                                                  000000169660100000865461719             000166813/01                                               00000  0020256        000009
12042956441000101SOLUCOES EM ACO USIMINAS S/A. RUA. DIANOPOLIS, 670/710                0312510000100000 0000000000000  I000000000009284000000000000000               201207300000000000000000054100000330038000000000330038000000000000000000000000000000010000166828  3120120730   01          000                                                                                  000000169660100000865611719             000166828/01                                               00000  0020256        000010
12042956441000101SOLUCOES EM ACO USIMINAS S/A. RUA. DIANOPOLIS, 670/710                0312510034100000 0000000000000  I000000000009285000000000000000               201207300000000000000000054100000608268000000000608268000000000000000000000000000000010000160715  3120120730   01          000                                                                                  181513653726293807258000089             000160715/02                                               00000  0020256        000011
12042956441000101SOLUCOES EM ACO USIMINAS S/A. RUA. DIANOPOLIS, 670/710                0312510000100000 0000000000000  I000000000009286000000000000000               201207300000000000000000054100000707066000000000707066000000000000000000000000000000010000167113  3120120730   01          000                                                                                  000000169660100000874921789             000167113/01                                               00000  0020256        000012
12042956441000101SOLUCOES EM ACO USIMINAS S/A. RUA. DIANOPOLIS, 670/710                0312510034100000 0000000000000  I000000000009287000000000000000               201207300000000000000000054100000584710000000000584710000000000000000000000000000000010000162283  3120120730   01          000                                                                                  181513696170293807258000089             000162283/02                                               00000  0020256        000013
12006000195000156MBA MERCANTIL BRASIL.ACO LTDA.RUA. RINCAO, 220                        0365108000100000 0000000000000  I000000000009288000000000000000               201207300000000000000000054100000432412000000000432412000000000000000000000000000000010000008651  3120120730   01          000                                                                                  043852571493333000105251169             0008651/01                                                 00000  0020256        000014
900001500000000006351826                                                                                                                                                                                                                                                                                                                                                                                                                                                                                      000015
