00009960204379929500011000185201202032ALTAMIRA IND METALURGICA LTDA           110284600                                                                                                                                                                                                                                                                                                                                                                                                                                                                                                                                                                                                                                                                                                                                                                                      1084                                                                                                                                                 000001
100099602043799295000110001852012020300600000000000000000000000000I848000000067166008950117699999868636615314662012020300000000006716633936070500202568S000                                                                                000000                                        000000000000000000000000000000000000000000000000000000000000000000000000000000000000000                                                                                       00000000                                                                                                                    00000000000000000000000000000000000        000000000000                                                                                                                                                                                                                                                                                                                             I000000000001281                           000002
900099602043799295000110001852012020300000300000000000067166                                                                                                                                                                                                                                                                                                                                                                                                                                                                                                                                                                                                                                                                                                                                                                                                                                                                                                                                                                      000003
