00009960204379929500011000175201201062ALTAMIRA IND METALURGICA LTDA           114344900                                                                                                                                                                                                                                                                                                                                                                                                                                                                                                                                                                                                                                                                                                                                                                                      1080                                                                                                                                                 000001
100099602043799295000110001752012010600600000000000000000000000000I858500000001431017912010754005004379929500012012010600000000000143133936070500202568S000                                                                                000000                                        000000000000000000000000000000000000000000000000000000000000000000000000000000000000000                                                                                       00000000                                                                                                                    00000000000000000000000000000000000        000000000000                                                                                                                                                                                                                                                                                                                             I000000000001181                           000002
100099602043799295000110001752012010600600000000000000000000000000I848400000049863008985409499999872897083614392012010600000000004986333936070500202568S000                                                                                000000                                        000000000000000000000000000000000000000000000000000000000000000000000000000000000000000                                                                                       00000000                                                                                                                    00000000000000000000000000000000000        000000000000                                                                                                                                                                                                                                                                                                                             I000000000001180                           000003
100099602043799295000110001752012010600600000000000000000000000000I858600000930655017912010754005084379929500012012010600000000093065533936070500202568S000                                                                                000000                                        000000000000000000000000000000000000000000000000000000000000000000000000000000000000000                                                                                       00000000                                                                                                                    00000000000000000000000000000000000        000000000000                                                                                                                                                                                                                                                                                                                             I000000000001179                           000004
100099602043799295000110001752012010600200000000000000000000000000I2043799295000110ALTAMIRA INDUSTRIA METALURGICA LTDA     RUA. TAMAINDÉ, 1410  -  RUA. GANGES, 528034440003393607050020256820120106S000000010522097000000001052209000000000768113000000000000000000000000000000000000012342419                                                201110250462A  20110910909538011000000000000000000000000000                                                                                                                                                                                                                                                                                                                                                                                                                                                                                                                                                                             I000000000001178                           000005
900099602043799295000110001752012010600000600000000013324368                                                                                                                                                                                                                                                                                                                                                                                                                                                                                                                                                                                                                                                                                                                                                                                                                                                                                                                                                                      000006
