00009960204379929500011000259201209062ALTAMIRA IND METALURGICA LTDA           117381100                                                                                                                                                                                                                                                                                                                                                                                                                                                                                                                                                                                                                                                                                                                                                                                      1094                                                                                                                                                 000001
100099602043799295000110002592012090600600000000000000000000000000I858200000001018017912090754805004379929500012012090600000000000101833936070500202568S000                                                                                000000                                        000000000000000000000000000000000000000000000000000000000000000000000000000000000000000                                                                                       00000000                                                                                                                    00000000000000000000000000000000000        000000000000                                                                                                                                                                                                                                                                                                                             I000000000001826                           000002
100099602043799295000110002592012090600600000000000000000000000000I858000000060940023920120906207060110372327602012090600000000006094033936070500202568S000                                                                                000000                                        000000000000000000000000000000000000000000000000000000000000000000000000000000000000000                                                                                       00000000                                                                                                                    00000000000000000000000000000000000        000000000000                                                                                                                                                                                                                                                                                                                             I000000000001823                           000003
100099602043799295000110002592012090600600000000000000000000000000I858800000060962023920120906207059377931494982012090600000000006096233936070500202568S000                                                                                000000                                        000000000000000000000000000000000000000000000000000000000000000000000000000000000000000                                                                                       00000000                                                                                                                    00000000000000000000000000000000000        000000000000                                                                                                                                                                                                                                                                                                                             I000000000001824                           000004
100099602043799295000110002592012090600600000000000000000000000000I858600000109183023920120906206934762726875272012090600000000010918333936070500202568S000                                                                                000000                                        000000000000000000000000000000000000000000000000000000000000000000000000000000000000000                                                                                       00000000                                                                                                                    00000000000000000000000000000000000        000000000000                                                                                                                                                                                                                                                                                                                             I000000000001825                           000005
100099602043799295000110002592012090600600000000000000000000000000I858900000443727017912090754805081352949500012012090600000000044372733936070500202568S000                                                                                000000                                        000000000000000000000000000000000000000000000000000000000000000000000000000000000000000                                                                                       00000000                                                                                                                    00000000000000000000000000000000000        000000000000                                                                                                                                                                                                                                                                                                                             I000000000001828                           000006
100099602043799295000110002592012090600600000000000000000000000000I858900001026238017912090754805084379929500012012090600000000102623833936070500202568S000                                                                                000000                                        000000000000000000000000000000000000000000000000000000000000000000000000000000000000000                                                                                       00000000                                                                                                                    00000000000000000000000000000000000        000000000000                                                                                                                                                                                                                                                                                                                             I000000000001827                           000007
900099602043799295000110002592012090600000800000000001702068                                                                                                                                                                                                                                                                                                                                                                                                                                                                                                                                                                                                                                                                                                                                                                                                                                                                                                                                                                      000008
