00009960204379929500011000187201202072ALTAMIRA IND METALURGICA LTDA           110593100                                                                                                                                                                                                                                                                                                                                                                                                                                                                                                                                                                                                                                                                                                                                                                                      1084                                                                                                                                                 000001
100099602043799295000110001872012020700600000000000000000000000000I858000000002037017912020754105004379929500012012020700000000000203733936070500202568S000                                                                                000000                                        000000000000000000000000000000000000000000000000000000000000000000000000000000000000000                                                                                       00000000                                                                                                                    00000000000000000000000000000000000        000000000000                                                                                                                                                                                                                                                                                                                             I000000000001284                           000002
100099602043799295000110001872012020700600000000000000000000000000I858100000743810017912020754105084379929500012012020700000000074381033936070500202568S000                                                                                000000                                        000000000000000000000000000000000000000000000000000000000000000000000000000000000000000                                                                                       00000000                                                                                                                    00000000000000000000000000000000000        000000000000                                                                                                                                                                                                                                                                                                                             I000000000001283                           000003
900099602043799295000110001872012020700000400000000000745847                                                                                                                                                                                                                                                                                                                                                                                                                                                                                                                                                                                                                                                                                                                                                                                                                                                                                                                                                                      000004
