00009960204379929500011000203201203072ALTAMIRA IND METALURGICA LTDA           115192100                                                                                                                                                                                                                                                                                                                                                                                                                                                                                                                                                                                                                                                                                                                                                                                      1084                                                                                                                                                 000001
100099602043799295000110002032012030700600000000000000000000000000I858100000002037017912030754205004379929500012012030700000000000203733936070500202568S000                                                                                000000                                        000000000000000000000000000000000000000000000000000000000000000000000000000000000000000                                                                                       00000000                                                                                                                    00000000000000000000000000000000000        000000000000                                                                                                                                                                                                                                                                                                                             I000000000001394                           000002
100099602043799295000110002032012030700600000000000000000000000000I858500000733234017912030754205084379929500012012030700000000073323433936070500202568S000                                                                                000000                                        000000000000000000000000000000000000000000000000000000000000000000000000000000000000000                                                                                       00000000                                                                                                                    00000000000000000000000000000000000        000000000000                                                                                                                                                                                                                                                                                                                             I000000000001393                           000003
900099602043799295000110002032012030700000400000000000735271                                                                                                                                                                                                                                                                                                                                                                                                                                                                                                                                                                                                                                                                                                                                                                                                                                                                                                                                                                      000004
