00009960204379929500011000251201208072ALTAMIRA IND METALURGICA LTDA           117244900                                                                                                                                                                                                                                                                                                                                                                                                                                                                                                                                                                                                                                                                                                                                                                                      1094                                                                                                                                                 000001
100099602043799295000110002512012080700600000000000000000000000000I858000000001018017912080754705004379929500012012080700000000000101833936070500202568S000                                                                                000000                                        000000000000000000000000000000000000000000000000000000000000000000000000000000000000000                                                                                       00000000                                                                                                                    00000000000000000000000000000000000        000000000000                                                                                                                                                                                                                                                                                                                             I000000000001770                           000002
100099602043799295000110002512012080700600000000000000000000000000I858300001013865017912080754705084379929500012012080700000000101386533936070500202568S000                                                                                000000                                        000000000000000000000000000000000000000000000000000000000000000000000000000000000000000                                                                                       00000000                                                                                                                    00000000000000000000000000000000000        000000000000                                                                                                                                                                                                                                                                                                                             I000000000001769                           000003
900099602043799295000110002512012080700000400000000001014883                                                                                                                                                                                                                                                                                                                                                                                                                                                                                                                                                                                                                                                                                                                                                                                                                                                                                                                                                                      000004
