00009960204379929500011000277201211092ALTAMIRA IND METALURGICA LTDA           117164100                                                                                                                                                                                                                                                                                                                                                                                                                                                                                                                                                                                                                                                                                                                                                                                      1094                                                                                                                                                 000001
100099602043799295000110002772012110900600000000000000000000000000I816800000013422000033705536600303213940100252012110900000000001342233936070500202568S000                                                                                000000                                        000000000000000000000000000000000000000000000000000000000000000000000000000000000000000                                                                                       00000000                                                                                                                    00000000000000000000000000000000000        000000000000                                                                                                                                                                                                                                                                                                                             I000000000001934                           000002
100099602043799295000110002772012110900600000000000000000000000000I816100000021511000033705536600842213940100252012110900000000002151133936070500202568S000                                                                                000000                                        000000000000000000000000000000000000000000000000000000000000000000000000000000000000000                                                                                       00000000                                                                                                                    00000000000000000000000000000000000        000000000000                                                                                                                                                                                                                                                                                                                             I000000000001933                           000003
100099602043799295000110002772012110900600000000000000000000000000I816000000021512000033705536600834213940100252012110900000000002151233936070500202568S000                                                                                000000                                        000000000000000000000000000000000000000000000000000000000000000000000000000000000000000                                                                                       00000000                                                                                                                    00000000000000000000000000000000000        000000000000                                                                                                                                                                                                                                                                                                                             I000000000001932                           000004
100099602043799295000110002772012110900600000000000000000000000000I816100000027223000033505536600842214150160432012110900000000002722333936070500202568S000                                                                                000000                                        000000000000000000000000000000000000000000000000000000000000000000000000000000000000000                                                                                       00000000                                                                                                                    00000000000000000000000000000000000        000000000000                                                                                                                                                                                                                                                                                                                             I000000000001937                           000005
100099602043799295000110002772012110900600000000000000000000000000I816000000027224000033505536600834214150160432012110900000000002722433936070500202568S000                                                                                000000                                        000000000000000000000000000000000000000000000000000000000000000000000000000000000000000                                                                                       00000000                                                                                                                    00000000000000000000000000000000000        000000000000                                                                                                                                                                                                                                                                                                                             I000000000001936                           000006
100099602043799295000110002772012110900600000000000000000000000000I816700000046658000033505536600151213940100412012110900000000004665833936070500202568S000                                                                                000000                                        000000000000000000000000000000000000000000000000000000000000000000000000000000000000000                                                                                       00000000                                                                                                                    00000000000000000000000000000000000        000000000000                                                                                                                                                                                                                                                                                                                             I000000000001935                           000007
100099602043799295000110002772012110900600000000000000000000000000I816000000269640000033505536600850213940100412012110900000000026964033936070500202568S000                                                                                000000                                        000000000000000000000000000000000000000000000000000000000000000000000000000000000000000                                                                                       00000000                                                                                                                    00000000000000000000000000000000000        000000000000                                                                                                                                                                                                                                                                                                                             I000000000001939                           000008
100099602043799295000110002772012110900600000000000000000000000000I848900000515787008915732799999958063170217242012110900000000051578733936070500202568S000                                                                                000000                                        000000000000000000000000000000000000000000000000000000000000000000000000000000000000000                                                                                       00000000                                                                                                                    00000000000000000000000000000000000        000000000000                                                                                                                                                                                                                                                                                                                             I000000000001940                           000009
900099602043799295000110002772012110900001000000000000942977                                                                                                                                                                                                                                                                                                                                                                                                                                                                                                                                                                                                                                                                                                                                                                                                                                                                                                                                                                      000010
