00009960204379929500011000215201204092ALTAMIRA IND METALURGICA LTDA           114384100                                                                                                                                                                                                                                                                                                                                                                                                                                                                                                                                                                                                                                                                                                                                                                                      1094                                                                                                                                                 000001
100099602043799295000110002152012040900600000000000000000000000000I816900000013422000033705536600303211490130272012040900000000001342233936070500202568S000                                                                                000000                                        000000000000000000000000000000000000000000000000000000000000000000000000000000000000000                                                                                       00000000                                                                                                                    00000000000000000000000000000000000        000000000000                                                                                                                                                                                                                                                                                                                             I000000000001483                           000002
100099602043799295000110002152012040900600000000000000000000000000I816200000021511000033705536600842211490130272012040900000000002151133936070500202568S000                                                                                000000                                        000000000000000000000000000000000000000000000000000000000000000000000000000000000000000                                                                                       00000000                                                                                                                    00000000000000000000000000000000000        000000000000                                                                                                                                                                                                                                                                                                                             I000000000001482                           000003
100099602043799295000110002152012040900600000000000000000000000000I816100000021512000033705536600834211490130272012040900000000002151233936070500202568S000                                                                                000000                                        000000000000000000000000000000000000000000000000000000000000000000000000000000000000000                                                                                       00000000                                                                                                                    00000000000000000000000000000000000        000000000000                                                                                                                                                                                                                                                                                                                             I000000000001481                           000004
100099602043799295000110002152012040900600000000000000000000000000I816800000046658000033505536600151211490130432012040900000000004665833936070500202568S000                                                                                000000                                        000000000000000000000000000000000000000000000000000000000000000000000000000000000000000                                                                                       00000000                                                                                                                    00000000000000000000000000000000000        000000000000                                                                                                                                                                                                                                                                                                                             I000000000001480                           000005
100099602043799295000110002152012040900600000000000000000000000000I816000000269640000033705536600850211490130272012040900000000026964033936070500202568S000                                                                                000000                                        000000000000000000000000000000000000000000000000000000000000000000000000000000000000000                                                                                       00000000                                                                                                                    00000000000000000000000000000000000        000000000000                                                                                                                                                                                                                                                                                                                             I000000000001479                           000006
900099602043799295000110002152012040900000700000000000372743                                                                                                                                                                                                                                                                                                                                                                                                                                                                                                                                                                                                                                                                                                                                                                                                                                                                                                                                                                      000007
