00009960204379929500011000252201208092ALTAMIRA IND METALURGICA LTDA           117590700                                                                                                                                                                                                                                                                                                                                                                                                                                                                                                                                                                                                                                                                                                                                                                                      1094                                                                                                                                                 000001
100099602043799295000110002522012080900600000000000000000000000000I858400000000615017912080954705484379929500012012080900000000000061533936070500202568S000                                                                                000000                                        000000000000000000000000000000000000000000000000000000000000000000000000000000000000000                                                                                       00000000                                                                                                                    00000000000000000000000000000000000        000000000000                                                                                                                                                                                                                                                                                                                             I000000000001771                           000002
100099602043799295000110002522012080900600000000000000000000000000I848000000100517008905258599999980389233716492012080900000000010051733936070500202568S000                                                                                000000                                        000000000000000000000000000000000000000000000000000000000000000000000000000000000000000                                                                                       00000000                                                                                                                    00000000000000000000000000000000000        000000000000                                                                                                                                                                                                                                                                                                                             I000000000001772                           000003
900099602043799295000110002522012080900000400000000000101132                                                                                                                                                                                                                                                                                                                                                                                                                                                                                                                                                                                                                                                                                                                                                                                                                                                                                                                                                                      000004
