00009960204379929500011000260201209102ALTAMIRA IND METALURGICA LTDA           117490400                                                                                                                                                                                                                                                                                                                                                                                                                                                                                                                                                                                                                                                                                                                                                                                      1094                                                                                                                                                 000001
100099602043799295000110002602012091000600000000000000000000000000I816100000002215000055201209100200000799889902012091000000000000221533936070500202568S000                                                                                000000                                        000000000000000000000000000000000000000000000000000000000000000000000000000000000000000                                                                                       00000000                                                                                                                    00000000000000000000000000000000000        000000000000                                                                                                                                                                                                                                                                                                                             I000000000001836                           000002
100099602043799295000110002602012091000600000000000000000000000000I816400000002535000055201209100200000811846732012091000000000000253533936070500202568S000                                                                                000000                                        000000000000000000000000000000000000000000000000000000000000000000000000000000000000000                                                                                       00000000                                                                                                                    00000000000000000000000000000000000        000000000000                                                                                                                                                                                                                                                                                                                             I000000000001835                           000003
100099602043799295000110002602012091000600000000000000000000000000I816000000004984000055201209100200000806072282012091000000000000498433936070500202568S000                                                                                000000                                        000000000000000000000000000000000000000000000000000000000000000000000000000000000000000                                                                                       00000000                                                                                                                    00000000000000000000000000000000000        000000000000                                                                                                                                                                                                                                                                                                                             I000000000001834                           000004
100099602043799295000110002602012091000600000000000000000000000000I816100000006484000055201209100200000802614102012091000000000000648433936070500202568S000                                                                                000000                                        000000000000000000000000000000000000000000000000000000000000000000000000000000000000000                                                                                       00000000                                                                                                                    00000000000000000000000000000000000        000000000000                                                                                                                                                                                                                                                                                                                             I000000000001833                           000005
100099602043799295000110002602012091000600000000000000000000000000I816600000007000000055201209100200000803223042012091000000000000700033936070500202568S000                                                                                000000                                        000000000000000000000000000000000000000000000000000000000000000000000000000000000000000                                                                                       00000000                                                                                                                    00000000000000000000000000000000000        000000000000                                                                                                                                                                                                                                                                                                                             I000000000001832                           000006
100099602043799295000110002602012091000600000000000000000000000000I816800000011238000055201209100200000799873572012091000000000001123833936070500202568S000                                                                                000000                                        000000000000000000000000000000000000000000000000000000000000000000000000000000000000000                                                                                       00000000                                                                                                                    00000000000000000000000000000000000        000000000000                                                                                                                                                                                                                                                                                                                             I000000000001831                           000007
100099602043799295000110002602012091000600000000000000000000000000I816200000013422000033705536600303213240180232012091000000000001342233936070500202568S000                                                                                000000                                        000000000000000000000000000000000000000000000000000000000000000000000000000000000000000                                                                                       00000000                                                                                                                    00000000000000000000000000000000000        000000000000                                                                                                                                                                                                                                                                                                                             I000000000001840                           000008
100099602043799295000110002602012091000600000000000000000000000000I816200000013860000055201209100200000813769472012091000000000001386033936070500202568S000                                                                                000000                                        000000000000000000000000000000000000000000000000000000000000000000000000000000000000000                                                                                       00000000                                                                                                                    00000000000000000000000000000000000        000000000000                                                                                                                                                                                                                                                                                                                             I000000000001830                           000009
100099602043799295000110002602012091000600000000000000000000000000I816600000013900000055201209100200000801008592012091000000000001390033936070500202568S000                                                                                000000                                        000000000000000000000000000000000000000000000000000000000000000000000000000000000000000                                                                                       00000000                                                                                                                    00000000000000000000000000000000000        000000000000                                                                                                                                                                                                                                                                                                                             I000000000001829                           000010
100099602043799295000110002602012091000600000000000000000000000000I816500000021511000033705536600842213240180232012091000000000002151133936070500202568S000                                                                                000000                                        000000000000000000000000000000000000000000000000000000000000000000000000000000000000000                                                                                       00000000                                                                                                                    00000000000000000000000000000000000        000000000000                                                                                                                                                                                                                                                                                                                             I000000000001839                           000011
100099602043799295000110002602012091000600000000000000000000000000I816400000021512000033705536600834213240180232012091000000000002151233936070500202568S000                                                                                000000                                        000000000000000000000000000000000000000000000000000000000000000000000000000000000000000                                                                                       00000000                                                                                                                    00000000000000000000000000000000000        000000000000                                                                                                                                                                                                                                                                                                                             I000000000001838                           000012
100099602043799295000110002602012091000600000000000000000000000000I846100000032087025120120910003000001867636842012091000000000003208733936070500202568S000                                                                                000000                                        000000000000000000000000000000000000000000000000000000000000000000000000000000000000000                                                                                       00000000                                                                                                                    00000000000000000000000000000000000        000000000000                                                                                                                                                                                                                                                                                                                             I000000000001841                           000013
100099602043799295000110002602012091000600000000000000000000000000I816000000046658000033705536600151213240180232012091000000000004665833936070500202568S000                                                                                000000                                        000000000000000000000000000000000000000000000000000000000000000000000000000000000000000                                                                                       00000000                                                                                                                    00000000000000000000000000000000000        000000000000                                                                                                                                                                                                                                                                                                                             I000000000001837                           000014
900099602043799295000110002602012091000001500000000000197406                                                                                                                                                                                                                                                                                                                                                                                                                                                                                                                                                                                                                                                                                                                                                                                                                                                                                                                                                                      000015
