00009960204379929500011000216201204102ALTAMIRA IND METALURGICA LTDA           114102500                                                                                                                                                                                                                                                                                                                                                                                                                                                                                                                                                                                                                                                                                                                                                                                      1094                                                                                                                                                 000001
100099602043799295000110002162012041000600000000000000000000000000I816300000000337000055201204100200000700074222012041000000000000033733936070500202568S000                                                                                000000                                        000000000000000000000000000000000000000000000000000000000000000000000000000000000000000                                                                                       00000000                                                                                                                    00000000000000000000000000000000000        000000000000                                                                                                                                                                                                                                                                                                                             I000000000001499                           000002
100099602043799295000110002162012041000600000000000000000000000000I816000000002250000055201204100200000703268542012041000000000000225033936070500202568S000                                                                                000000                                        000000000000000000000000000000000000000000000000000000000000000000000000000000000000000                                                                                       00000000                                                                                                                    00000000000000000000000000000000000        000000000000                                                                                                                                                                                                                                                                                                                             I000000000001498                           000003
100099602043799295000110002162012041000600000000000000000000000000I816400000002800000055201204100200000700048492012041000000000000280033936070500202568S000                                                                                000000                                        000000000000000000000000000000000000000000000000000000000000000000000000000000000000000                                                                                       00000000                                                                                                                    00000000000000000000000000000000000        000000000000                                                                                                                                                                                                                                                                                                                             I000000000001497                           000004
100099602043799295000110002162012041000600000000000000000000000000I816200000002955000055201204100200000701053272012041000000000000295533936070500202568S000                                                                                000000                                        000000000000000000000000000000000000000000000000000000000000000000000000000000000000000                                                                                       00000000                                                                                                                    00000000000000000000000000000000000        000000000000                                                                                                                                                                                                                                                                                                                             I000000000001496                           000005
100099602043799295000110002162012041000600000000000000000000000000I816400000003000000055201204100200000700050122012041000000000000300033936070500202568S000                                                                                000000                                        000000000000000000000000000000000000000000000000000000000000000000000000000000000000000                                                                                       00000000                                                                                                                    00000000000000000000000000000000000        000000000000                                                                                                                                                                                                                                                                                                                             I000000000001495                           000006
100099602043799295000110002162012041000600000000000000000000000000I816400000005395000055201204100200000701946722012041000000000000539533936070500202568S000                                                                                000000                                        000000000000000000000000000000000000000000000000000000000000000000000000000000000000000                                                                                       00000000                                                                                                                    00000000000000000000000000000000000        000000000000                                                                                                                                                                                                                                                                                                                             I000000000001494                           000007
100099602043799295000110002162012041000600000000000000000000000000I816600000005517000055201204100200000700983552012041000000000000551733936070500202568S000                                                                                000000                                        000000000000000000000000000000000000000000000000000000000000000000000000000000000000000                                                                                       00000000                                                                                                                    00000000000000000000000000000000000        000000000000                                                                                                                                                                                                                                                                                                                             I000000000001493                           000008
100099602043799295000110002162012041000600000000000000000000000000I816500000007000000055201204100200000704364552012041000000000000700033936070500202568S000                                                                                000000                                        000000000000000000000000000000000000000000000000000000000000000000000000000000000000000                                                                                       00000000                                                                                                                    00000000000000000000000000000000000        000000000000                                                                                                                                                                                                                                                                                                                             I000000000001492                           000009
100099602043799295000110002162012041000600000000000000000000000000I816200000007197000055201204100200000704324842012041000000000000719733936070500202568S000                                                                                000000                                        000000000000000000000000000000000000000000000000000000000000000000000000000000000000000                                                                                       00000000                                                                                                                    00000000000000000000000000000000000        000000000000                                                                                                                                                                                                                                                                                                                             I000000000001491                           000010
100099602043799295000110002162012041000600000000000000000000000000I816500000008297000055201204100200000704583862012041000000000000829733936070500202568S000                                                                                000000                                        000000000000000000000000000000000000000000000000000000000000000000000000000000000000000                                                                                       00000000                                                                                                                    00000000000000000000000000000000000        000000000000                                                                                                                                                                                                                                                                                                                             I000000000001490                           000011
100099602043799295000110002162012041000600000000000000000000000000I816600000010091000055201204100200000701905962012041000000000001009133936070500202568S000                                                                                000000                                        000000000000000000000000000000000000000000000000000000000000000000000000000000000000000                                                                                       00000000                                                                                                                    00000000000000000000000000000000000        000000000000                                                                                                                                                                                                                                                                                                                             I000000000001489                           000012
100099602043799295000110002162012041000600000000000000000000000000I816300000010224000055201204100200000704364632012041000000000001022433936070500202568S000                                                                                000000                                        000000000000000000000000000000000000000000000000000000000000000000000000000000000000000                                                                                       00000000                                                                                                                    00000000000000000000000000000000000        000000000000                                                                                                                                                                                                                                                                                                                             I000000000001488                           000013
100099602043799295000110002162012041000600000000000000000000000000I846700000030957025120120410003000001786753132012041000000000003095733936070500202568S000                                                                                000000                                        000000000000000000000000000000000000000000000000000000000000000000000000000000000000000                                                                                       00000000                                                                                                                    00000000000000000000000000000000000        000000000000                                                                                                                                                                                                                                                                                                                             I000000000001486                           000014
100099602043799295000110002162012041000600000000000000000000000000I816400000078824000055201204100200000700077402012041000000000007882433936070500202568S000                                                                                000000                                        000000000000000000000000000000000000000000000000000000000000000000000000000000000000000                                                                                       00000000                                                                                                                    00000000000000000000000000000000000        000000000000                                                                                                                                                                                                                                                                                                                             I000000000001487                           000015
100099602043799295000110002162012041000600000000000000000000000000I848100000525707008905631099999857264447015392012041000000000052570733936070500202568S000                                                                                000000                                        000000000000000000000000000000000000000000000000000000000000000000000000000000000000000                                                                                       00000000                                                                                                                    00000000000000000000000000000000000        000000000000                                                                                                                                                                                                                                                                                                                             I000000000001485                           000016
100099602043799295000110002162012041000200000000000000000000000000I2043799295000110ALTAMIRA INDUSTRIA METALURGICA LTDA     RUA. TAMAINDÉ, 1410  -  RUA. GANGES, 528034440003393607050020256820120410S000000001268337000000000075087000000000126836000000000041020000000000000000000000001511280                                                201204100814B  00000010909538011000000000000000000006302107                                                                                                                                                                                                                                                                                                                                                                                                                                                                                                                                                                             I000000000001484                           000017
900099602043799295000110002162012041000001800000000002211831                                                                                                                                                                                                                                                                                                                                                                                                                                                                                                                                                                                                                                                                                                                                                                                                                                                                                                                                                                      000018
