00009960204379929500011000245201207102ALTAMIRA IND METALURGICA LTDA           117170100                                                                                                                                                                                                                                                                                                                                                                                                                                                                                                                                                                                                                                                                                                                                                                                      1094                                                                                                                                                 000001
100099602043799295000110002452012071000600000000000000000000000000I816400000000337000055201207100200000760915732012071000000000000033733936070500202568S000                                                                                000000                                        000000000000000000000000000000000000000000000000000000000000000000000000000000000000000                                                                                       00000000                                                                                                                    00000000000000000000000000000000000        000000000000                                                                                                                                                                                                                                                                                                                             I000000000001724                           000002
100099602043799295000110002452012071000600000000000000000000000000I816100000001787000055201207100200000760712622012071000000000000178733936070500202568S000                                                                                000000                                        000000000000000000000000000000000000000000000000000000000000000000000000000000000000000                                                                                       00000000                                                                                                                    00000000000000000000000000000000000        000000000000                                                                                                                                                                                                                                                                                                                             I000000000001723                           000003
100099602043799295000110002452012071000600000000000000000000000000I816000000002569000055201207100200000758549302012071000000000000256933936070500202568S000                                                                                000000                                        000000000000000000000000000000000000000000000000000000000000000000000000000000000000000                                                                                       00000000                                                                                                                    00000000000000000000000000000000000        000000000000                                                                                                                                                                                                                                                                                                                             I000000000001722                           000004
100099602043799295000110002452012071000600000000000000000000000000I816900000002800000055201207100200000758315142012071000000000000280033936070500202568S000                                                                                000000                                        000000000000000000000000000000000000000000000000000000000000000000000000000000000000000                                                                                       00000000                                                                                                                    00000000000000000000000000000000000        000000000000                                                                                                                                                                                                                                                                                                                             I000000000001721                           000005
100099602043799295000110002452012071000600000000000000000000000000I816400000003162000055201207100200000759817612012071000000000000316233936070500202568S000                                                                                000000                                        000000000000000000000000000000000000000000000000000000000000000000000000000000000000000                                                                                       00000000                                                                                                                    00000000000000000000000000000000000        000000000000                                                                                                                                                                                                                                                                                                                             I000000000001720                           000006
100099602043799295000110002452012071000600000000000000000000000000I816900000003571000055201207100200000761140342012071000000000000357133936070500202568S000                                                                                000000                                        000000000000000000000000000000000000000000000000000000000000000000000000000000000000000                                                                                       00000000                                                                                                                    00000000000000000000000000000000000        000000000000                                                                                                                                                                                                                                                                                                                             I000000000001719                           000007
100099602043799295000110002452012071000600000000000000000000000000I816000000003944000055201207100200000763345302012071000000000000394433936070500202568S000                                                                                000000                                        000000000000000000000000000000000000000000000000000000000000000000000000000000000000000                                                                                       00000000                                                                                                                    00000000000000000000000000000000000        000000000000                                                                                                                                                                                                                                                                                                                             I000000000001718                           000008
100099602043799295000110002452012071000600000000000000000000000000I816900000006484000055201207100200000762685542012071000000000000648433936070500202568S000                                                                                000000                                        000000000000000000000000000000000000000000000000000000000000000000000000000000000000000                                                                                       00000000                                                                                                                    00000000000000000000000000000000000        000000000000                                                                                                                                                                                                                                                                                                                             I000000000001717                           000009
100099602043799295000110002452012071000600000000000000000000000000I816500000007000000055201207100200000756217572012071000000000000700033936070500202568S000                                                                                000000                                        000000000000000000000000000000000000000000000000000000000000000000000000000000000000000                                                                                       00000000                                                                                                                    00000000000000000000000000000000000        000000000000                                                                                                                                                                                                                                                                                                                             I000000000001716                           000010
100099602043799295000110002452012071000600000000000000000000000000I816500000008715000055201207100200000760880922012071000000000000871533936070500202568S000                                                                                000000                                        000000000000000000000000000000000000000000000000000000000000000000000000000000000000000                                                                                       00000000                                                                                                                    00000000000000000000000000000000000        000000000000                                                                                                                                                                                                                                                                                                                             I000000000001715                           000011
100099602043799295000110002452012071000600000000000000000000000000I816300000015065000055201207100200000763766592012071000000000001506533936070500202568S000                                                                                000000                                        000000000000000000000000000000000000000000000000000000000000000000000000000000000000000                                                                                       00000000                                                                                                                    00000000000000000000000000000000000        000000000000                                                                                                                                                                                                                                                                                                                             I000000000001714                           000012
100099602043799295000110002452012071000600000000000000000000000000I816300000016992000055201207100200000759817702012071000000000001699233936070500202568S000                                                                                000000                                        000000000000000000000000000000000000000000000000000000000000000000000000000000000000000                                                                                       00000000                                                                                                                    00000000000000000000000000000000000        000000000000                                                                                                                                                                                                                                                                                                                             I000000000001713                           000013
100099602043799295000110002452012071000600000000000000000000000000I816900000025689000055201207100200000759393822012071000000000002568933936070500202568S000                                                                                000000                                        000000000000000000000000000000000000000000000000000000000000000000000000000000000000000                                                                                       00000000                                                                                                                    00000000000000000000000000000000000        000000000000                                                                                                                                                                                                                                                                                                                             I000000000001712                           000014
100099602043799295000110002452012071000600000000000000000000000000I846000000032087025120120710003000001833671892012071000000000003208733936070500202568S000                                                                                000000                                        000000000000000000000000000000000000000000000000000000000000000000000000000000000000000                                                                                       00000000                                                                                                                    00000000000000000000000000000000000        000000000000                                                                                                                                                                                                                                                                                                                             I000000000001725                           000015
100099602043799295000110002452012071000600000000000000000000000000I816600000034600000055201207100200000760880842012071000000000003460033936070500202568S000                                                                                000000                                        000000000000000000000000000000000000000000000000000000000000000000000000000000000000000                                                                                       00000000                                                                                                                    00000000000000000000000000000000000        000000000000                                                                                                                                                                                                                                                                                                                             I000000000001711                           000016
100099602043799295000110002452012071000600000000000000000000000000I816900000051820000055201207100200000761662632012071000000000005182033936070500202568S000                                                                                000000                                        000000000000000000000000000000000000000000000000000000000000000000000000000000000000000                                                                                       00000000                                                                                                                    00000000000000000000000000000000000        000000000000                                                                                                                                                                                                                                                                                                                             I000000000001710                           000017
900099602043799295000110002452012071000001800000000000216622                                                                                                                                                                                                                                                                                                                                                                                                                                                                                                                                                                                                                                                                                                                                                                                                                                                                                                                                                                      000018
