00009960204379929500011000235201206112ALTAMIRA IND METALURGICA LTDA           115581600                                                                                                                                                                                                                                                                                                                                                                                                                                                                                                                                                                                                                                                                                                                                                                                      1094                                                                                                                                                 000001
100099602043799295000110002352012061100600000000000000000000000000I816600000000337000055201206110200000737783062012061100000000000033733936070500202568S000                                                                                000000                                        000000000000000000000000000000000000000000000000000000000000000000000000000000000000000                                                                                       00000000                                                                                                                    00000000000000000000000000000000000        000000000000                                                                                                                                                                                                                                                                                                                             I000000000001648                           000002
100099602043799295000110002352012061100600000000000000000000000000I816500000000825000055201206110200000741247922012061100000000000082533936070500202568S000                                                                                000000                                        000000000000000000000000000000000000000000000000000000000000000000000000000000000000000                                                                                       00000000                                                                                                                    00000000000000000000000000000000000        000000000000                                                                                                                                                                                                                                                                                                                             I000000000001646                           000003
100099602043799295000110002352012061100600000000000000000000000000I816000000000825000055201206110200000737782762012061100000000000082533936070500202568S000                                                                                000000                                        000000000000000000000000000000000000000000000000000000000000000000000000000000000000000                                                                                       00000000                                                                                                                    00000000000000000000000000000000000        000000000000                                                                                                                                                                                                                                                                                                                             I000000000001647                           000004
100099602043799295000110002352012061100600000000000000000000000000I816800000001742000055201206110200000737746882012061100000000000174233936070500202568S000                                                                                000000                                        000000000000000000000000000000000000000000000000000000000000000000000000000000000000000                                                                                       00000000                                                                                                                    00000000000000000000000000000000000        000000000000                                                                                                                                                                                                                                                                                                                             I000000000001645                           000005
100099602043799295000110002352012061100600000000000000000000000000I816000000002780000055201206110200000737729952012061100000000000278033936070500202568S000                                                                                000000                                        000000000000000000000000000000000000000000000000000000000000000000000000000000000000000                                                                                       00000000                                                                                                                    00000000000000000000000000000000000        000000000000                                                                                                                                                                                                                                                                                                                             I000000000001644                           000006
100099602043799295000110002352012061100600000000000000000000000000I816800000002800000055201206110200000737758462012061100000000000280033936070500202568S000                                                                                000000                                        000000000000000000000000000000000000000000000000000000000000000000000000000000000000000                                                                                       00000000                                                                                                                    00000000000000000000000000000000000        000000000000                                                                                                                                                                                                                                                                                                                             I000000000001643                           000007
100099602043799295000110002352012061100600000000000000000000000000I816100000003539000055201206110200000740511752012061100000000000353933936070500202568S000                                                                                000000                                        000000000000000000000000000000000000000000000000000000000000000000000000000000000000000                                                                                       00000000                                                                                                                    00000000000000000000000000000000000        000000000000                                                                                                                                                                                                                                                                                                                             I000000000001642                           000008
100099602043799295000110002352012061100600000000000000000000000000I816300000004938000055201206110200000740542982012061100000000000493833936070500202568S000                                                                                000000                                        000000000000000000000000000000000000000000000000000000000000000000000000000000000000000                                                                                       00000000                                                                                                                    00000000000000000000000000000000000        000000000000                                                                                                                                                                                                                                                                                                                             I000000000001641                           000009
100099602043799295000110002352012061100600000000000000000000000000I816200000005064000055201206110200000743222842012061100000000000506433936070500202568S000                                                                                000000                                        000000000000000000000000000000000000000000000000000000000000000000000000000000000000000                                                                                       00000000                                                                                                                    00000000000000000000000000000000000        000000000000                                                                                                                                                                                                                                                                                                                             I000000000001640                           000010
100099602043799295000110002352012061100600000000000000000000000000I816300000005187000055201206110200000742100362012061100000000000518733936070500202568S000                                                                                000000                                        000000000000000000000000000000000000000000000000000000000000000000000000000000000000000                                                                                       00000000                                                                                                                    00000000000000000000000000000000000        000000000000                                                                                                                                                                                                                                                                                                                             I000000000001639                           000011
100099602043799295000110002352012061100600000000000000000000000000I816900000006685000055201206110200000745648812012061100000000000668533936070500202568S000                                                                                000000                                        000000000000000000000000000000000000000000000000000000000000000000000000000000000000000                                                                                       00000000                                                                                                                    00000000000000000000000000000000000        000000000000                                                                                                                                                                                                                                                                                                                             I000000000001638                           000012
100099602043799295000110002352012061100600000000000000000000000000I816900000007000000055201206110200000745989642012061100000000000700033936070500202568S000                                                                                000000                                        000000000000000000000000000000000000000000000000000000000000000000000000000000000000000                                                                                       00000000                                                                                                                    00000000000000000000000000000000000        000000000000                                                                                                                                                                                                                                                                                                                             I000000000001637                           000013
100099602043799295000110002352012061100600000000000000000000000000I816100000010091000055201206110200000740530112012061100000000001009133936070500202568S000                                                                                000000                                        000000000000000000000000000000000000000000000000000000000000000000000000000000000000000                                                                                       00000000                                                                                                                    00000000000000000000000000000000000        000000000000                                                                                                                                                                                                                                                                                                                             I000000000001636                           000014
100099602043799295000110002352012061100600000000000000000000000000I816400000014904000055201206110200000743310112012061100000000001490433936070500202568S000                                                                                000000                                        000000000000000000000000000000000000000000000000000000000000000000000000000000000000000                                                                                       00000000                                                                                                                    00000000000000000000000000000000000        000000000000                                                                                                                                                                                                                                                                                                                             I000000000001635                           000015
100099602043799295000110002352012061100600000000000000000000000000I816000000017064000055201206110200000740596302012061100000000001706433936070500202568S000                                                                                000000                                        000000000000000000000000000000000000000000000000000000000000000000000000000000000000000                                                                                       00000000                                                                                                                    00000000000000000000000000000000000        000000000000                                                                                                                                                                                                                                                                                                                             I000000000001634                           000016
100099602043799295000110002352012061100600000000000000000000000000I816800000020300000055201206110200000745273402012061100000000002030033936070500202568S000                                                                                000000                                        000000000000000000000000000000000000000000000000000000000000000000000000000000000000000                                                                                       00000000                                                                                                                    00000000000000000000000000000000000        000000000000                                                                                                                                                                                                                                                                                                                             I000000000001633                           000017
100099602043799295000110002352012061100600000000000000000000000000I816100000021511000033705536600842212190150272012061100000000002151133936070500202568S000                                                                                000000                                        000000000000000000000000000000000000000000000000000000000000000000000000000000000000000                                                                                       00000000                                                                                                                    00000000000000000000000000000000000        000000000000                                                                                                                                                                                                                                                                                                                             I000000000001630                           000018
100099602043799295000110002352012061100600000000000000000000000000I816000000021512000033705536600834212190150272012061100000000002151233936070500202568S000                                                                                000000                                        000000000000000000000000000000000000000000000000000000000000000000000000000000000000000                                                                                       00000000                                                                                                                    00000000000000000000000000000000000        000000000000                                                                                                                                                                                                                                                                                                                             I000000000001629                           000019
100099602043799295000110002352012061100600000000000000000000000000I846300000030957025120120610003000001817722272012061100000000003095733936070500202568S000                                                                                000000                                        000000000000000000000000000000000000000000000000000000000000000000000000000000000000000                                                                                       00000000                                                                                                                    00000000000000000000000000000000000        000000000000                                                                                                                                                                                                                                                                                                                             I000000000001626                           000020
100099602043799295000110002352012061100600000000000000000000000000I816000000033050000055201206110200000740793472012061100000000003305033936070500202568S000                                                                                000000                                        000000000000000000000000000000000000000000000000000000000000000000000000000000000000000                                                                                       00000000                                                                                                                    00000000000000000000000000000000000        000000000000                                                                                                                                                                                                                                                                                                                             I000000000001632                           000021
100099602043799295000110002352012061100600000000000000000000000000I816600000046658000033705536600151212190150272012061100000000004665833936070500202568S000                                                                                000000                                        000000000000000000000000000000000000000000000000000000000000000000000000000000000000000                                                                                       00000000                                                                                                                    00000000000000000000000000000000000        000000000000                                                                                                                                                                                                                                                                                                                             I000000000001628                           000022
100099602043799295000110002352012061100600000000000000000000000000I816900000269640000033705536600850212190150272012061100000000026964033936070500202568S000                                                                                000000                                        000000000000000000000000000000000000000000000000000000000000000000000000000000000000000                                                                                       00000000                                                                                                                    00000000000000000000000000000000000        000000000000                                                                                                                                                                                                                                                                                                                             I000000000001627                           000023
100099602043799295000110002352012061100600000000000000000000000000I848100000519111008925885399999992957559916002012061100000000051911133936070500202568S000                                                                                000000                                        000000000000000000000000000000000000000000000000000000000000000000000000000000000000000                                                                                       00000000                                                                                                                    00000000000000000000000000000000000        000000000000                                                                                                                                                                                                                                                                                                                             I000000000001625                           000024
100099602043799295000110002352012061100600000000000000000000000000I816800000013422000033705536600303212190150272012061800000000001342233936070500202568S000                                                                                000000                                        000000000000000000000000000000000000000000000000000000000000000000000000000000000000000                                                                                       00000000                                                                                                                    00000000000000000000000000000000000        000000000000                                                                                                                                                                                                                                                                                                                             I000000000001631                           000025
900099602043799295000110002352012061100002600000000001059942                                                                                                                                                                                                                                                                                                                                                                                                                                                                                                                                                                                                                                                                                                                                                                                                                                                                                                                                                                      000026
