00009960204379929500011000254201208172ALTAMIRA IND METALURGICA LTDA           117462900                                                                                                                                                                                                                                                                                                                                                                                                                                                                                                                                                                                                                                                                                                                                                                                      1094                                                                                                                                                 000001
100099602043799295000110002542012081700600000000000000000000000000I826700000096914009713912013423181911457120722012081700000000009691433936070500202568S000                                                                                000000                                        000000000000000000000000000000000000000000000000000000000000000000000000000000000000000                                                                                       00000000                                                                                                                    00000000000000000000000000000000000        000000000000                                                                                                                                                                                                                                                                                                                             I000000000001790                           000002
100099602043799295000110002542012081700600000000000000000000000000I826300000214487009713912013422991118444120722012081700000000021448733936070500202568S000                                                                                000000                                        000000000000000000000000000000000000000000000000000000000000000000000000000000000000000                                                                                       00000000                                                                                                                    00000000000000000000000000000000000        000000000000                                                                                                                                                                                                                                                                                                                             I000000000001789                           000003
100099602043799295000110002542012081700600000000000000000000000000I848000000540413008923320399999975327124316602012081700000000054041333936070500202568S000                                                                                000000                                        000000000000000000000000000000000000000000000000000000000000000000000000000000000000000                                                                                       00000000                                                                                                                    00000000000000000000000000000000000        000000000000                                                                                                                                                                                                                                                                                                                             I000000000001788                           000004
900099602043799295000110002542012081700000500000000000851814                                                                                                                                                                                                                                                                                                                                                                                                                                                                                                                                                                                                                                                                                                                                                                                                                                                                                                                                                                      000005
