00009960204379929500011000180201201182ALTAMIRA IND METALURGICA LTDA           114420600                                                                                                                                                                                                                                                                                                                                                                                                                                                                                                                                                                                                                                                                                                                                                                                      1080                                                                                                                                                 000001
100099602043799295000110001802012011800600000000000000000000000000I846000000007057102911000229528550011221201182012011800000000000705733936070500202568S000                                                                                000000                                        000000000000000000000000000000000000000000000000000000000000000000000000000000000000000                                                                                       00000000                                                                                                                    00000000000000000000000000000000000        000000000000                                                                                                                                                                                                                                                                                                                             I000000000001207                           000002
900099602043799295000110001802012011800000300000000000007057                                                                                                                                                                                                                                                                                                                                                                                                                                                                                                                                                                                                                                                                                                                                                                                                                                                                                                                                                                      000003
