00009960204379929500011000194201202222ALTAMIRA IND METALURGICA LTDA           116095700                                                                                                                                                                                                                                                                                                                                                                                                                                                                                                                                                                                                                                                                                                                                                                                      1084                                                                                                                                                 000001
100099602043799295000110001942012022200600000000000000000000000000I846900000007076102911000229528550021291202182012022200000000000707633936070500202568S000                                                                                000000                                        000000000000000000000000000000000000000000000000000000000000000000000000000000000000000                                                                                       00000000                                                                                                                    00000000000000000000000000000000000        000000000000                                                                                                                                                                                                                                                                                                                             I000000000001366                           000002
900099602043799295000110001942012022200000300000000000007076                                                                                                                                                                                                                                                                                                                                                                                                                                                                                                                                                                                                                                                                                                                                                                                                                                                                                                                                                                      000003
