00009960204379929500011000195201202232ALTAMIRA IND METALURGICA LTDA           115572200                                                                                                                                                                                                                                                                                                                                                                                                                                                                                                                                                                                                                                                                                                                                                                                      1084                                                                                                                                                 000001
100099602043799295000110001952012022300600000000000000000000000000I858500000041103023920120224187432669296123952012022300000000004110333936070500202568S000                                                                                000000                                        000000000000000000000000000000000000000000000000000000000000000000000000000000000000000                                                                                       00000000                                                                                                                    00000000000000000000000000000000000        000000000000                                                                                                                                                                                                                                                                                                                             I000000000001367                           000002
900099602043799295000110001952012022300000300000000000041103                                                                                                                                                                                                                                                                                                                                                                                                                                                                                                                                                                                                                                                                                                                                                                                                                                                                                                                                                                      000003
