00009960204379929500011000265201209242ALTAMIRA IND METALURGICA LTDA           117244800                                                                                                                                                                                                                                                                                                                                                                                                                                                                                                                                                                                                                                                                                                                                                                                      1094                                                                                                                                                 000001
100099602043799295000110002652012092400600000000000000000000000000I826100000137705009713922013423181626443120822012092400000000013770533936070500202568S000                                                                                000000                                        000000000000000000000000000000000000000000000000000000000000000000000000000000000000000                                                                                       00000000                                                                                                                    00000000000000000000000000000000000        000000000000                                                                                                                                                                                                                                                                                                                             I000000000001877                           000002
100099602043799295000110002652012092400600000000000000000000000000I826900000207289009713922013422991912420120822012092400000000020728933936070500202568S000                                                                                000000                                        000000000000000000000000000000000000000000000000000000000000000000000000000000000000000                                                                                       00000000                                                                                                                    00000000000000000000000000000000000        000000000000                                                                                                                                                                                                                                                                                                                             I000000000001876                           000003
900099602043799295000110002652012092400000400000000000344994                                                                                                                                                                                                                                                                                                                                                                                                                                                                                                                                                                                                                                                                                                                                                                                                                                                                                                                                                                      000004
