00009960204379929500011000273201210252ALTAMIRA IND METALURGICA LTDA           117333600                                                                                                                                                                                                                                                                                                                                                                                                                                                                                                                                                                                                                                                                                                                                                                                      1094                                                                                                                                                 000001
100099602043799295000110002732012102500600000000000000000000000000I826600000053642009713932013423181311408120922012102500000000005364233936070500202568S000                                                                                000000                                        000000000000000000000000000000000000000000000000000000000000000000000000000000000000000                                                                                       00000000                                                                                                                    00000000000000000000000000000000000        000000000000                                                                                                                                                                                                                                                                                                                             I000000000001922                           000002
100099602043799295000110002732012102500600000000000000000000000000I848200000122294008905401499999971371427716792012102500000000012229433936070500202568S000                                                                                000000                                        000000000000000000000000000000000000000000000000000000000000000000000000000000000000000                                                                                       00000000                                                                                                                    00000000000000000000000000000000000        000000000000                                                                                                                                                                                                                                                                                                                             I000000000001924                           000003
100099602043799295000110002732012102500600000000000000000000000000I826000000132937009713932013422991616404120922012102500000000013293733936070500202568S000                                                                                000000                                        000000000000000000000000000000000000000000000000000000000000000000000000000000000000000                                                                                       00000000                                                                                                                    00000000000000000000000000000000000        000000000000                                                                                                                                                                                                                                                                                                                             I000000000001923                           000004
100099602043799295000110002732012102500600000000000000000000000000I848200000745211008918000799999966911209716932012102500000000074521133936070500202568S000                                                                                000000                                        000000000000000000000000000000000000000000000000000000000000000000000000000000000000000                                                                                       00000000                                                                                                                    00000000000000000000000000000000000        000000000000                                                                                                                                                                                                                                                                                                                             I000000000001925                           000005
900099602043799295000110002732012102500000600000000001054084                                                                                                                                                                                                                                                                                                                                                                                                                                                                                                                                                                                                                                                                                                                                                                                                                                                                                                                                                                      000006
