00009960204379929500011000400201212262ALTAMIRA IND METALURGICA LTDA           116361000                                                                                                                                                                                                                                                                                                                                                                                                                                                                                                                                                                                                                                                                                                                                                                                      1094                                                                                                                                                 000001
100099602043799295000110004002012122600600000000000000000000000000I848700000072251008920442799999935936613517982012122600000000007225133936070500202568S000                                                                                000000                                        000000000000000000000000000000000000000000000000000000000000000000000000000000000000000                                                                                       00000000                                                                                                                    00000000000000000000000000000000000        000000000000                                                                                                                                                                                                                                                                                                                             I000000000002032                           000002
100099602043799295000110004002012122600600000000000000000000000000I858400000113972023920121227217354788237537722012122600000000011397233936070500202568S000                                                                                000000                                        000000000000000000000000000000000000000000000000000000000000000000000000000000000000000                                                                                       00000000                                                                                                                    00000000000000000000000000000000000        000000000000                                                                                                                                                                                                                                                                                                                             I000000000002031                           000003
900099602043799295000110004002012122600000400000000000186223                                                                                                                                                                                                                                                                                                                                                                                                                                                                                                                                                                                                                                                                                                                                                                                                                                                                                                                                                                      000004
