00009960204379929500011000221201204272ALTAMIRA IND METALURGICA LTDA           115211000                                                                                                                                                                                                                                                                                                                                                                                                                                                                                                                                                                                                                                                                                                                                                                                      1094                                                                                                                                                 000001
100099602043799295000110002212012042700600000000000000000000000000I826100000137705009713882013422991614425120422012042700000000013770533936070500202568S000                                                                                000000                                        000000000000000000000000000000000000000000000000000000000000000000000000000000000000000                                                                                       00000000                                                                                                                    00000000000000000000000000000000000        000000000000                                                                                                                                                                                                                                                                                                                             I000000000001546                           000002
100099602043799295000110002212012042700600000000000000000000000000I826400000142503009713882013423181310403120422012042700000000014250333936070500202568S000                                                                                000000                                        000000000000000000000000000000000000000000000000000000000000000000000000000000000000000                                                                                       00000000                                                                                                                    00000000000000000000000000000000000        000000000000                                                                                                                                                                                                                                                                                                                             I000000000001545                           000003
900099602043799295000110002212012042700000400000000000280208                                                                                                                                                                                                                                                                                                                                                                                                                                                                                                                                                                                                                                                                                                                                                                                                                                                                                                                                                                      000004
