00009960204379929500011000241201206282ALTAMIRA IND METALURGICA LTDA           113591200                                                                                                                                                                                                                                                                                                                                                                                                                                                                                                                                                                                                                                                                                                                                                                                      1094                                                                                                                                                 000001
100099602043799295000110002412012062800600000000000000000000000000I826400000096914009713902013423181112465120622012062800000000009691433936070500202568S000                                                                                000000                                        000000000000000000000000000000000000000000000000000000000000000000000000000000000000000                                                                                       00000000                                                                                                                    00000000000000000000000000000000000        000000000000                                                                                                                                                                                                                                                                                                                             I000000000001697                           000002
100099602043799295000110002412012062800600000000000000000000000000I826200000248080009713902013422991411460120622012062800000000024808033936070500202568S000                                                                                000000                                        000000000000000000000000000000000000000000000000000000000000000000000000000000000000000                                                                                       00000000                                                                                                                    00000000000000000000000000000000000        000000000000                                                                                                                                                                                                                                                                                                                             I000000000001696                           000003
900099602043799295000110002412012062800000400000000000344994                                                                                                                                                                                                                                                                                                                                                                                                                                                                                                                                                                                                                                                                                                                                                                                                                                                                                                                                                                      000004
