0000147602043799295000110ALTAMIRA IND METALURGICA LTDA           20100548000002012110115253900000        2    230A                                                                                          000000000000000                                                                                                                                                                                                                                                                                   000001
12043799295000110ALTAMIRA INDUSTRIA METAL LTDA RUA  GANGES  528                        0344503003303809500000130004071 I000000000010118000000000000000               201211010000000000000000000000000000000000000001300000000000000000000000000000000000040000000002  0820121101   01HA        0001530                                                                             3D0000000101                             0002                                 S                     00000  0020256        000002
12043799295000110ALTAMIRA INDUSTRIA METAL LTDA RUA  GANGES  528                        0344503074500090 0000021421935  I000000000010119000000000000000               201211010000000000000000000000000000000000000000500000000000000000000000000000000000050000000003  0820121101   01HA        0001600                                                                             3D0000000101                             0003                                 S                     00000  0020256        000003
12043799295000110ALTAMIRA INDUSTRIA METAL LTDA RUA  GANGES  528                        0344503039900198 000000000096330I000000000010120000000000000000               201211010000000000000000000000000000000000000001200000000000000000000000000000000000050000000004  0820121101   01HA        0001615                                                                             3D0000000101                             0004                                 S                     00000  0020256        000004
900000500000000003000000                                                                                                                                                                                    000000000000000                                                                                                                                                                                                                                                    00000300000000000000000        000005
