0000147602043799295000110ALTAMIRA INDUSTRIA METALURGICA LT       202000000427420121101214927             3                                                                                                  000000000000000                                                                                                                                                                                                                                                                                   000001
12043799295000110ALTAMIRA INDUSTRIA METAL LTDA                                         0000000074500090 0000021421935  I000000000010119000000000000000               201211010000000000000000000000000000000000000000500000000000000000000000000000000000050000000003  0820121101   02BW        5001600               000000000000000                                               3D0000000101                               03                                 S                     01133 10020256        000002
12043799295000110ALTAMIRA INDUSTRIA METAL LTDA                                         0000000039900198 000000000096330I000000000010120000000000000000               201211010000000000000000000000000000000000000001200000000000000000000000000000000000050000000004  0820121101   02BW        5001615               000000000000000                                               3D0000000101                               04                                 S                     01133 10020256        000003
12006000195000156MBA MERCANTIL BRASIL ACO LTDA                                         0000000034100648 00000000492510 I000000000010117000000000000000               201211010000000000000000000000000000000000000002623702000000000000000000000000000000040000000002  0820121101   02BW        5001400               000000000000000                                               3C0000000101                               02                                 N                     01076 10020256        000004
12014978305000187MOGI FILME INDUSTRIA E COMERCI                                        0000000023700402200000001055003 I000000000010121009022640000016               201211010000000000000000055040000148031000000000148031000000000000000000000000000000010000000351  3120121101   02BW        5000000               000000000000000                                               3040209226400000160105500099               351                                N                     01079 10020256        000005
12043799295000110ALTAMIRA INDUSTRIA METAL LTDA                                         0000000003303809500000130004071 I000000000010118000000000000000               201211010000000000000000000000000000000000000001300000000000000000000000000000000000040000000002  0820121101   02BW        5001530               000000000000000                                               3D0000000101                               02                                 S                     01133 10020256        000006
12042956441000101SOLUCOES ACO USIMINAS                                                 0000000034100000000000000000000000000000861207230000002282166990017385802     201211012012080700000000055040000714796000000000714796000000000000000000000000000000050000000000  3020121101   02BW        2000000               000000000000000                                               3112282166993293807258000069               173858/02                          N                     01132 10020256        000007
12042956441000101SOLUCOES ACO USIMINAS                                                 0000000034100000000000000000000000000000844063840000002198870040016923303     201211012012071000000000055040000442971000000000442971000000000000000000000000000000050000000000  3020121101   02BW        2000000               000000000000000                                               3112198870043293807258000089               0169233/03                         N                     01132 10020256        000008
900000900000000006929500                                                                                                                                                                                    000000000000000                                                                                                                                                                                                                                                    00000700165120001305798        000009
