0000147602043799295000110ALTAMIRA INDUSTRIA METALURGICA LT       202000000025720121001141505             2                                                                                                  000000000000000                                                                                                                                                                                                                                                                                   000001
12043799295000110ALTAMIRA INDUSTRIA METAL LTDA                                         0000000074500090 0000021421935  I000000000009961000000000000000               201210010000000000000000000000000000000000000000800000000000000000000000000000000000050000000003  0820121001   01HF        5001410000000009300545000000000000000                                               3D0000000101                               03                                 S                     01133 10020256        000002
12043799295000110ALTAMIRA INDUSTRIA METAL LTDA                                         0000000039900198 000000000096330I000000000009962000000000000000               201210010000000000000000000000000000000000000000900000000000000000000000000000000000050000000004  0820121001   01HF        5001410000000007700545000000000000000                                               3D0000000101                               04                                 S                     01133 10020256        000003
12007806416000140MAXMETA PART EMPREEND LTDA                                            0000000003303809500000130002347 I000000000009963000000000000000               201210010000000000000000000000000000000000000000500000000000000000000000000000000000050000000005  0820121001   01HF        5001410000000009800545000000000000000                                               3C0000000101                               05                                 N                     01076 10020256        000004
12000867888000164TECNEQUIP TECNOLOGIA EQUIP LTD                                        0000000003303809500000130003245 I000000000009964000000000000000               201210010000000000000000000000000000000000000001200000000000000000000000000000000000050000000006  0820121001   01HF        5001410000000005900545000000000000000                                               3C0000000101                               06                                 N                     01076 10020256        000005
12013529495000192MAXMIRA CONTROLE E ADM LTDA                                           0000000034100467 00000000012340 I000000000009965000000000000000               201210010000000000000000000000000000000000000000800000000000000000000000000000000000050000000007  0820121001   01HF        5001410000000008500545000000000000000                                               3C0000000101                               07                                 N                     01076 10020256        000006
12043799295000110ALTAMIRA INDUSTRIA METAL LTDA                                         0000000010401603900000000002564 I000000000009960000000000000000               201210010000000000000000000000000000000000000000900000000000000000000000000000000000050000000002  0820121001   01HF        5001410000000006800545000000000000000                                               3D0000000101                               02                                 S                     01133 10020256        000007
900000800000000005100000                                                                                                                                                                                    000000000000000                                                                                                                                                                                                                                                    00000600000000000000000        000008
