0000147602043799295000110ALTAMIRA INDUSTRIA METALURGICA LT       202000000017920121201062950             1                                                                                                                                                                                                                                                                                                                                                                                                    000001
12001852612000175BT EQUIPAMENTOS INDUSTRIAIS LT                                        000000000330000000000000000000000000000091471909000000800000000052674 1       201211282012103100000000055310000053280000000000055142000000000000000000000000001862050000000000  3020121203   01          2                                                                                   3913651000000003015580010419                                                  N                     01321  0000000        000002
12001895314000162COLETA INDUSTRIAL FIMAVAN LTDA                                        0000000034100000000000000000000000000000866992070000009002335349439           201208272012081700000000054380000123695000000000158411000000000000000000000000034716050000000000  3020121203   01          2                                                                                   3109002335346144604097200019                                                  N                     01321  0000000        000003
12003102481000134AB5 IND E COMERCIO LTDA EPP                                           0000000034100000000000000000000000000000909203330000009000042483169           201211202012102300000000055230000119250000000000121837000000000000000000000000002587050000000000  3020121203   01          2                                                                                   3109000042489003154755700039                                                  N                     01321  0000000        000004
12003370710000100ALTIZA TRANSPORTES LTDA                                               0000000010400000000000000000000000000000924705490000000005750003546           201211282012112100000000055310000029000000000000029000000000000000000000000000000000050000000000  3020121128   05          3                                                                                   3284848190110104000000575539                                                  N                     01321  0000000        000005
12003372804000100TROPICAL CLEAN COMERCIAL LTDA                                         00000000033000000000000000000000000000009157341100000044000000058193          201211282012103000000000055310000043135000000000043423000000000000000000000000000432050000000000  3020121130   06          3                                                                                   3913215100000006405444020139                                                  N                     01321  0000000        000006
12003489596000123BEND FLEX I COMERCIO LTDA                                             000000003410000000000000000000000000000088350832000000171879874608            201209122012082100000000054540000695250000000000807344000000000000000000000000112094050000000000  3020121203   01          2                                                                                   3191718798744157734445800069                                                  N                     01321  0000000        000007
12003489596000123BEND FLEX I COMERCIO LTDA                                             000000003410000000000000000000000000000088599899000000171434574613            201209172012081600000000054590000585000000000000673627000000000000000000000000088627050000000000  3020121203   01          2                                                                                   3191714345748157734445800019                                                  N                     01321  0000000        000008
12005502645000146TRANS GERALE TRANSPORTES LTDA                                         000000003410000000000000000000000000000093033535000000263012200450 12         201212152012112700000000055480000064000000000000064000000000000000000000000000000000050000000000  3020121217   01FS        1                                                                                   3112630122003035522320700049                                                  N                     01321  0000000        000009
12005880850000145NEDERMAN BRASIL COM PROD EX LT                                        000000003410000000000000000000000000000086373178000000614350956002763 A       201209252012081400000000054670000289674000000000329004000000000000000000000000039330050000000000  3020121203   01          2                                                                                   3156143509568160829000100049                                                  N                     01321  0000000        000010
12006000195000156MBA MERCANTIL BRAS DE ACO LTDA                                        0000000034100000000000000000000000000000887698090000001671394550008925B02     201209142012071700000000054560000719581000000000832781000000000000000000000000113200050000000000  3020121203   01          2                                                                                   3191671394556064849251000089                                                  N                     01321  0000000        000011
12006000195000156MBA MERCANTIL BRAS DE ACO LTDA                                        0000000034100000000000000000000000000000887698100000001671394560008926B02     201209142012071700000000054560000387716000000000448756000000000000000000000000061040050000000000  3020121203   01          2                                                                                   3191671394564064849251000019                                                  N                     01321  0000000        000012
12006000195000156MBA MERCANTIL BRAS DE ACO LTDA                                        0000000034100000000000000000000000000000885998980000001667238420008870B02     201209112012071600000000054530000839952000000000977068000000000000000000000000137116050000000000  3020121203   01          2                                                                                   3191667238429064849251000039                                                  N                     01321  0000000        000013
12006000195000156MBA MERCANTIL BRAS DE ACO LTDA                                        0000000034100000000000000000000000000000889578520000001671394540008920B02     201209162012071700000000054580000576585000000000665037000000000000000000000000088452050000000000  3020121203   01          2                                                                                   3191671394549064849251000099                                                  N                     01321  0000000        000014
12006000195000156M B A MERCANTIL BRASILEIRA DE                                         0000000023700118P00000002130599 00000000848180770020220100000340008905B03     201210112012071900000000054830000155300000000000168250000000000000000000000000013209050000000000  3020121130   05          3  RUA JUNO  533                                                                    3                         000000000000000                                     N                     00598  0000000        000015
12006000195000156M B A MERCANTIL BRASILEIRA DE                                         0000000023700118P00000002130599 00000000865388260020222900000470009204B02     201210112012081500000000054830000127292000000000137892000000000000000000000000010812050000000000  3020121130   05          3  RUA JUNO  533                                                                    3                         000000000000000                                     N                     00598  0000000        000016
12006000195000156M B A MERCANTIL BRASILEIRA DE                                         0000000023700118P00000002130599 00000000865388290020222900000500009205B02     201210122012081500000000054840000348964000000000377482000000000000000000000000029100050000000000  3020121130   05          3  RUA JUNO  533                                                                    3                         000000000000000                                     N                     00598  0000000        000017
12006000195000156M B A MERCANTIL BRASILEIRA DE                                         0000000023700118P00000002130599 00000000865388320020222900000530009206B02     201210132012081500000000054850000527560000000000569752000000000000000000000000043071050000000000  3020121130   05          3  RUA JUNO  533                                                                    3                         000000000000000                                     N                     00598  0000000        000018
12006000195000156M B A MERCANTIL BRASILEIRA DE                                         0000000023700118P00000002130599 00000000868592690020223600000020009229B02     201210112012081600000000054830000253414000000000274514000000000000000000000000021522050000000000  3020121130   05          3  RUA JUNO  533                                                                    3                         000000000000000                                     N                     00598  0000000        000019
12008594182000188ACOS G3 COMERCIO E BENEFICIAME                                        0000000023703137200000000091332 00000000929490170090227100000261155        002201211222012092700000000055250000152347000000000156210000000000000000000000000003863050000000000  3020121203   01          2  RUA GANGES  528                                                                  3                         000000000000000                                     N                     00598  0000000        000020
12009338857000190FERNANDO  NAGAO  CARDONE  ALVA                                        000000000330000000000000000000000000000091653176000000300000000ALTA 11 2012   201211202012103000000000055230000134632000000000141230000000000000000000000000006598050000000000  3020121203   01          2                                                                                   3947901700000051051630010119                                                  N                     01321  0000000        000021
12012006058000121WEG TINTAS LTDA                                                       0000000023702727800000000001309 00000000868126360090223500001190016086603     201211042012082100000000055070000306662000000000318494000000000000000000000000011832050000000000  3020121203   01          2  R JUNO  533                                                                      3                         000000000000000                                     N                     00598  0000000        000022
12012006058000121WEG TINTAS LTDA                                                       0000000023702727800000000001309 00000000870177500090224100000990016248003     201211102012082700000000055130000306662000000000316046000000000000000000000000009384050000000000  3020121203   01          2  R JUNO  533                                                                      3                         000000000000000                                     N                     00598  0000000        000023
12012006058000121WEG TINTAS LTDA                                                       0000000023702727800000000001309 00000000872318670090224700001050016359603     201211142012083100000000055170000459992000000000471639000000000000000000000000011647050000000000  3020121203   01          2  R JUNO  533                                                                      3                         000000000000000                                     N                     00598  0000000        000024
12012006058000121WEG TINTAS LTDA                                                       0000000023702727800000000001309 00000000878206050090225400000790016517202     201211052012090600000000055080000459854000000000477018000000000000000000000000017164050000000000  3020121203   01          2  R JUNO  533                                                                      3                         000000000000000                                     N                     00598  0000000        000025
12012006058000121WEG TINTAS LTDA                                                       0000000023702727800000000001309 00000000878206060090225400000800016517203     201211202012090600000000055230000459992000000000467961000000000000000000000000007969050000000000  3020121203   01          2  R JUNO  533                                                                      3                         000000000000000                                     N                     00598  0000000        000026
12012006058000121WEG TINTAS LTDA                                                       0000000023702727800000000001309 00000000882668420090225800000750016626902     201211122012091300000000055150000459854000000000472727000000000000000000000000012873050000000000  3020121203   01          2  R JUNO  533                                                                      3                         000000000000000                                     N                     00598  0000000        000027
12012006058000121WEG TINTAS LTDA                                                       0000000023702727800000000001309 00000000882668430090225800000760016626903     201211272012091300000000055300000459992000000000463670000000000000000000000000003678050000000000  3020121203   01          2  R JUNO  533                                                                      3                         000000000000000                                     N                     00598  0000000        000028
12013656578000142GUARINOR TRANSP E LOGISTICA LT                                        000000001040000000000000000000000000000092654641000000001531300002141 12      201211292012110900000000055320000155800000000000155800000000000000000000000000000000050000000000  3020121129   06          3                                                                                   3900000153132958700000017319                                                  N                     01321  0000000        000029
12033325184001786ALSCO TOALHEIRO BRASIL                                                0000000023703396000000001490850 0000000093033538009000002822105VM28221        201212202012113000000000055530000028368000000000028368000000000000000000000000000000050000000000  3020121220   01FS        1  RUA  GANGES 528                                                                  3                         000000000000000                                     N                     00598  0000000        000030
12035820448000136WHITE MARTINS GASES INDUSTRIAI                                        0000000023700026400000003937925 0000000093033536009023350002160415194 001     201212272012113000000000055600000056805000000000056805000000000000000000000000000000050000000000  3020121227   01FS        1  RUA GANGES  528                                                                  3                         000000000000000                                     N                     00598  0000000        000031
12042956441000101SOLUCOES ACO USIMINAS                                                 0000000034100000000000000000000000000000858616480000002271409840017316003     201211262012080200000000055290000929451000000000936887000000000000000000000000009295050000000000  3020121130   06          3                                                                                   3112271409842293807258000079                                                  N                     01321  0000000        000032
12042956441000101SOLUCOES ACO USIMINAS                                                 0000000034100000000000000000000000000000858616500000002271409860017319403     201211262012080200000000055290000178902000000000180334000000000000000000000000001790050000000000  3020121130   06          3                                                                                   3112271409867293807258000059                                                  N                     01321  0000000        000033
12042956441000101SOLUCOES ACO USIMINAS                                                 0000000034100000000000000000000000000000858616510000002271409900017319803     201211262012080200000000055290000194524000000000196080000000000000000000000000001945050000000000  3020121130   06          3                                                                                   3112271409909293807258000029                                                  N                     01321  0000000        000034
12042956441000101SOLUCOES ACO USIMINAS                                                 0000000034100000000000000000000000000000858616520000002271409870017319503     201211262012080200000000055290000197381000000000198961000000000000000000000000001975050000000000  3020121130   06          3                                                                                   3112271409875293807258000049                                                  N                     01321  0000000        000035
12042956441000101SOLUCOES ACO USIMINAS                                                 0000000034100000000000000000000000000000858616530000002271409880017319603     201211262012080200000000055290000197045000000000198621000000000000000000000000001970050000000000  3020121130   06          3                                                                                   3112271409883293807258000079                                                  N                     01321  0000000        000036
12042956441000101SOLUCOES ACO USIMINAS                                                 0000000034100000000000000000000000000000858616540000002271409890017319703     201211262012080200000000055290000197213000000000198789000000000000000000000000001970050000000000  3020121130   06          3                                                                                   3112271409891293807258000019                                                  N                     01321  0000000        000037
12042956441000101SOLUCOES ACO USIMINAS                                                 0000000034100000000000000000000000000000859590640000002274469810017353703     201211262012080300000000055290000081052000000000081700000000000000000000000000000810050000000000  3020121130   06          3                                                                                   3112274469819293807258000019                                                  N                     01321  0000000        000038
12042956441000101SOLUCOES ACO USIMINAS                                                 0000000034100000000000000000000000000000859590660000002274469820017353803     201211262012080300000000055290000166997000000000168333000000000000000000000000001670050000000000  3020121130   06          3                                                                                   3112274469827293807258000059                                                  N                     01321  0000000        000039
12042956441000101SOLUCOES ACO USIMINAS                                                 0000000034100000000000000000000000000000853154840000002246247030017196702     201209202012072500000000054620000234841000000000269621000000000000000000000000034780050000000000  3020121203   01          2                                                                                   3112246247038293807258000099                                                  N                     01321  0000000        000040
12042956441000101SOLUCOES ACO USIMINAS                                                 0000000034100000000000000000000000000000853154850000002246247040017197302     201209202012072500000000054620000970103000000001113663000000000000000000000000143560050000000000  3020121203   01          2                                                                                   3112246247046293807258000019                                                  N                     01321  0000000        000041
12042956441000101SOLUCOES ACO USIMINAS                                                 0000000034100000000000000000000000000000855028690000002254329380017212902     201209212012072600000000054630000140098000000000160538000000000000000000000000020440050000000000  3020121203   01          2                                                                                   3112254329389293807258000019                                                  N                     01321  0000000        000042
12042956441000101SOLUCOES ACO USIMINAS                                                 0000000034100000000000000000000000000000855028700000002254329390017213002     201209212012072600000000054630000140602000000000161115000000000000000000000000020513050000000000  3020121203   01          2                                                                                   3112254329397293807258000089                                                  N                     01321  0000000        000043
12042956441000101SOLUCOES ACO USIMINAS                                                 0000000034100000000000000000000000000000855028770000002254329400017220502     201209212012072700000000054630000981022000000001124248000000000000000000000000143226050000000000  3020121203   01          2                                                                                   3112254329405293807258000099                                                  N                     01321  0000000        000044
12042956441000101SOLUCOES ACO USIMINAS                                                 0000000034100000000000000000000000000000856906410000002262886280017266201     201208282012073000000000054390000119472000000000142655000000000000000000000000023183050000000000  3020121203   01          2                                                                                   3112262886289293807258000089                                                  N                     01321  0000000        000045
12042956441000101SOLUCOES ACO USIMINAS                                                 0000000034100000000000000000000000000000856906420000002262886290017266301     201208282012073000000000054390000145069000000000173199000000000000000000000000028130050000000000  3020121203   01          2                                                                                   3112262886297293807258000099                                                  N                     01321  0000000        000046
12042956441000101SOLUCOES ACO USIMINAS                                                 0000000034100000000000000000000000000000859590620000002274469790017353702     201209282012080300000000054700000081053000000000091745000000000000000000000000010692050000000000  3020121203   01          2                                                                                   3112274469793293807258000069                                                  N                     01321  0000000        000047
12042956441000101SOLUCOES ACO USIMINAS                                                 0000000034100000000000000000000000000000846595700000002210880280016980502     201209102012071200000000054520000156071000000000182279000000000000000000000000026208050000000000  3020121203   01          2                                                                                   3112210880285293807258000039                                                  N                     01321  0000000        000048
12042956441000101SOLUCOES ACO USIMINAS                                                 0000000034100000000000000000000000000000846595710000002210880290016980602     201209102012071200000000054520000426094000000000497662000000000000000000000000071568050000000000  3020121203   01          2                                                                                   3112210880293293807258000019                                                  N                     01321  0000000        000049
12042956441000101SOLUCOES ACO USIMINAS                                                 0000000034100000000000000000000000000000847452070000002216130350005922202     201209102012071600000000054520000172071000000000200967000000000000000000000000028896050000000000  3020121203   01          2                                                                                   3112216130354293807258000049                                                  N                     01321  0000000        000050
12042956441000101SOLUCOES ACO USIMINAS                                                 0000000034100000000000000000000000000000847452100000002216130340017012402     201209102012071500000000054520000147428000000000172208000000000000000000000000024780050000000000  3020121203   01          2                                                                                   3112216130347293807258000059                                                  N                     01321  0000000        000051
12042956441000101SOLUCOES ACO USIMINAS                                                 0000000034100000000000000000000000000000848180700000002220192900017041002     201209112012071700000000054530000155433000000000181246000000000000000000000000025813050000000000  3020121203   01          2                                                                                   3112220192903293807258000029                                                  N                     01321  0000000        000052
12042956441000101SOLUCOES ACO USIMINAS                                                 0000000034100000000000000000000000000000848180710000002220192910017041202     201209112012071700000000054530000205421000000000239534000000000000000000000000034113050000000000  3020121203   01          2                                                                                   3112220192911293807258000019                                                  N                     01321  0000000        000053
12042956441000101SOLUCOES ACO USIMINAS                                                 0000000034100000000000000000000000000000850740460000002233586800017127201     201208202012072000000000054310000137881000000000166861000000000000000000000000028980050000000000  3020121203   01          2                                                                                   3112233586802293807258000019                                                  N                     01321  0000000        000054
12042956441000101SOLUCOES ACO USIMINAS                                                 0000000034100000000000000000000000000000850740470000002233586810017101002     201209142012071900000000054560000732575000000000849775000000000000000000000000117200050000000000  3020121203   01          2                                                                                   3112233586810293807258000019                                                  N                     01321  0000000        000055
12042956441000101SOLUCOES ACO USIMINAS                                                 0000000034100000000000000000000000000000850740480000002233586820017101202     201209142012071900000000054560000144634000000000167754000000000000000000000000023120050000000000  3020121203   01          2                                                                                   3112233586828293807258000029                                                  N                     01321  0000000        000056
12045635984000115CRIFER LAMINADOS ACO FERRO LTD                                        0000000034100000000000000000000000000000909203340000009000268640035771E01     201211212012102400000000055240000454608000000000462789000000000000000000000000009090050000000000  3020121130   06          3                                                                                   3109000268640005630080900099                                                  N                     01321  0000000        000057
12047190731000100DE CASTRO LOUR ENG IND LTDA                                           00000000341000000000000000000000000000008782050900000023399953503026612 0     201209182012082100000000054600001111489000000001277625000000000000000000000000166136050000000000  3020121203   01          2                                                                                   3112339995352036884500400019                                                  N                     01321  0000000        000058
12047190731000100DE CASTRO LOUR ENG IND LTDA                                           00000000341000000000000000000000000000008782051200000023399953803026613 0     201209182012082100000000054600001107989000000001273593000000000000000000000000165604050000000000  3020121203   01          2                                                                                   3112339995386036884500400039                                                  N                     01321  0000000        000059
12047190731000100DE CASTRO LOUR ENG IND LTDA                                           00000000341000000000000000000000000000008782051300000023399953903026613 0     201211202012082100000000055230001107989000000001136316000000000000000000000000028327050000000000  3020121203   01          2                                                                                   3112339995394036884500400019                                                  N                     01321  0000000        000060
12047190731000100DE CASTRO LOUR ENG IND LTDA                                           00000000341000000000000000000000000000008782051500000023399953603026612 0     201211202012082100000000055230001111489000000001139907000000000000000000000000028418050000000000  3020121203   01          2                                                                                   3112339995360036884500400079                                                  N                     01321  0000000        000061
12047190731000100DE CASTRO LOUR ENG IND LTDA                                           00000000341000000000000000000000000000008782051600000023399954103026614 0     201209182012082100000000054600001047621000000001204181000000000000000000000000156560050000000000  3020121203   01          2                                                                                   3112339995410036884500400039                                                  N                     01321  0000000        000062
12047190731000100DE CASTRO LOUR ENG IND LTDA                                           00000000341000000000000000000000000000008782051700000023399954203026614 0     201211202012082100000000055230001047621000000001074401000000000000000000000000026780050000000000  3020121203   01          2                                                                                   3112339995428036884500400079                                                  N                     01321  0000000        000063
12047190731000100DE CASTRO LOUR ENG IND LTDA                                           00000000341000000000000000000000000000008782051800000023399955703026636 0     201211212012082200000000055240000940804000000000963004000000000000000000000000022200050000000000  3020121203   01          2                                                                                   3112339995576036884500400019                                                  N                     01321  0000000        000064
12047190731000100DE CASTRO LOUR ENG IND LTDA                                           00000000341000000000000000000000000000008782052000000023399955303026632 0     201209192012082200000000054610000952073000000001092473000000000000000000000000140400050000000000  3020121203   01          2                                                                                   3112339995535036884500400019                                                  N                     01321  0000000        000065
12047190731000100DE CASTRO LOUR ENG IND LTDA                                           00000000341000000000000000000000000000008782052100000023399955903026643 0     201209202012082300000000054620000867039000000000993209000000000000000000000000126170050000000000  3020121203   01          2                                                                                   3112339995592036884500400049                                                  N                     01321  0000000        000066
12047190731000100DE CASTRO LOUR ENG IND LTDA                                           00000000341000000000000000000000000000008782052400000023399956003026643 0     201211222012082300000000055250000867039000000000885794000000000000000000000000018755050000000000  3020121203   01          2                                                                                   3112339995600036884500400069                                                  N                     01321  0000000        000067
12047190731000100DE CASTRO LOUR ENG IND LTDA                                           00000000341000000000000000000000000000008782052500000023399955603026636 0     201209192012082200000000054610000940804000000001079554000000000000000000000000138750050000000000  3020121203   01          2                                                                                   3112339995568036884500400049                                                  N                     01321  0000000        000068
12047190731000100DE CASTRO LOUR ENG IND LTDA                                           00000000341000000000000000000000000000008782052700000023399956203026648 0     201209202012082300000000054620000976053000000001118133000000000000000000000000142080050000000000  3020121203   01          2                                                                                   3112339995626036884500400029                                                  N                     01321  0000000        000069
12047190731000100DE CASTRO LOUR ENG IND LTDA                                           00000000341000000000000000000000000000008782052800000023399956303026648 0     201211222012082300000000055250000976053000000000997173000000000000000000000000021120050000000000  3020121203   01          2                                                                                   3112339995634036884500400019                                                  N                     01321  0000000        000070
12047190731000100DE CASTRO LOUR ENG IND LTDA                                           00000000341000000000000000000000000000008782059400000023602715303026745 0     201211282012082900000000055310000903175000000000912055000000000000000000000000008880050000000000  3020121203   01          2                                                                                   3112360271533036884500400039                                                  N                     01321  0000000        000071
12047190731000100DE CASTRO LOUR ENG IND LTDA                                           00000000341000000000000000000000000000008782059500000023602714703026734 0     201211272012082800000000055300000997834000000001009606000000000000000000000000011772050000000000  3020121203   01          2                                                                                   3112360271475036884500400019                                                  N                     01321  0000000        000072
12047190731000100DE CASTRO LOUR ENG IND LTDA                                           00000000341000000000000000000000000000008782059900000023602715003026744 0     201211292012082900000000055320000146594000000000147746000000000000000000000000001152050000000000  3020121203   01          2                                                                                   3112360271509036884500400069                                                  N                     01321  0000000        000073
12047190731000100DE CASTRO LOUREIRO ENGENHARIA                                         0000000023703394400000000205508 000000008801224800202255000000703026784 0     201211302012083100000000055330001041759000000001046967000000000000000000000000005208050000000000  3020121203   01          2  RUA JUNO  533                                                                    300000000000000000001500  000000000000000                                     N                     00598  0000000        000074
12047190731000100DE CASTRO LOUREIRO ENGENHARIA                                         0000000023703394400000000205508 000000008801225100202255000001003026787 0     201211302012083100000000055330001135987000000001141666000000000000000000000000005679050000000000  3020121203   01          2  RUA JUNO  533                                                                    300000000000000000001500  000000000000000                                     N                     00598  0000000        000075
12047190731000100DE CASTRO LOUREIRO ENGENHARIA                                         0000000023703394400000000205508 000000008801225500202255000001403026794 0     201211262012090300000000055290001209490000000001223602000000000000000000000000014112050000000000  3020121203   01          2  RUA JUNO  533                                                                    3                         000000000000000                                     N                     00598  0000000        000076
12048218317000125RODOENG TRANSPORTES RODOVIARIO                                        00000000001000000000000000000000000000009114101600000074341100013548 1        201211232012102200000000055260000310000000000000310000000000000000000000000000000000050000000000  3020121123   05          3                                                                                   3050157434111494000094531189                                                  N                     01321  0000000        000077
12048775225000146SEIKI IND COM E CONFECCOES LTD                                        000000003410000000000000000000000000000089337376000000244697151014914001      201210232012092500000000054950000052000000000000055198000000000000000000000000003198050000000000  3020121203   01          2                                                                                   3112446971510017444824100089                                                  N                     01321  0000000        000078
12051180370000199IGUAFER FERRO E ACO LTDA                                              0000000034100000000000000000000000000000852309100000002239389789443 B         201209022012071800000000054440000168275000000000194035000000000000000000000000025760050000000000  3020121203   01          2                                                                                   3112239389789077149484600089                                                  N                     01321  0000000        000079
12051180370000199IGUAFER FERRO E ACO LTDA                                              0000000034100000000000000000000000000000852309110000002239389799443 C         201209122012071800000000054540000168275000000000191235000000000000000000000000022960050000000000  3020121203   01          2                                                                                   3112239389797077149484600089                                                  N                     01321  0000000        000080
12053585766000141MULTIACOS I C PRODS TEC LTDA                                          0000000042200000000000000000000000000000887697910000000000000000004704303     201211272012092000000000055300000965514000000000975167000000000000000000000000009653050000000000  3020121203   01          2                                                                                   3711500005033164923629564189                                                  N                     01321  0000000        000081
12053585766000141MULTIACOS I C PRODS TEC LTDA                                          0000000042200000000000000000000000000000887697960000000000000000004704503     201211272012092000000000055300000217463000000000219634000000000000000000000000002171050000000000  3020121203   01          2                                                                                   3711500005033164923629599149                                                  N                     01321  0000000        000082
12053585766000141MULTIACOS I C PRODS TEC LTDA                                          0000000042200000000000000000000000000000895189370000000000000000004699303     201211282012100200000000055310000863284000000000870478000000000000000000000000007194050000000000  3020121203   01          2                                                                                   3711500005033164927761807189                                                  N                     01321  0000000        000083
12053585766000141MULTIACOS I C PRODS TEC LTDA                                          0000000042200000000000000000000000000000895189560000000000000000004695703     201211262012100200000000055290001092223000000001104962000000000000000000000000012739050000000000  3020121203   01          2                                                                                   3711500005033164927761980139                                                  N                     01321  0000000        000084
12053585766000141MULTIACOS I C PRODS TEC LTDA                                          0000000042200000000000000000000000000000895189570000000000000000004699203     201211292012100200000000055320000519251000000000522710000000000000000000000000003459050000000000  3020121203   01          2                                                                                   3711500005033164927762072129                                                  N                     01321  0000000        000085
12053585766000141MULTIACOS I C PRODS TEC LTDA                                          0000000042200000000000000000000000000000895189590000000000000000004699103     201211262012100200000000055290000574719000000000581424000000000000000000000000006705050000000000  3020121203   01          2                                                                                   3711500005033164927762048119                                                  N                     01321  0000000        000086
12053585766000141MULTIACOS I C PRODS TEC LTDA                                          0000000042200000000000000000000000000000895189610000000000000000004695803     201211262012100200000000055290000193011000000000195264000000000000000000000000002253050000000000  3020121203   01          2                                                                                   3711500005033164927762013119                                                  N                     01321  0000000        000087
12053585766000141MULTIACOS I C PRODS TEC LTDA                                          0000000042200000000000000000000000000000890456930000000000000000004724403     201211302012092500000000055330000522661000000000525273000000000000000000000000002612050000000000  3020121203   01          2                                                                                   3711500005033164925775118129                                                  N                     01321  0000000        000088
12053585766000141MULTIACOS I C PRODS TEC LTDA                                          0000000042200000000000000000000000000000890457000000000000000000004724303     201211302012092500000000055330000268274000000000269614000000000000000000000000001340050000000000  3020121203   01          2                                                                                   3711500005033164925775177139                                                  N                     01321  0000000        000089
12054382510000108SETENTA IND E COM DE MADEIRAS                                         0000000034100000000000000000000000000000860403430000002277814474462 A         201209042012080700000000054460000191200000000000225040000000000000000000000000033840050000000000  3020121203   01          2                                                                                   3112277814474057049175300069                                                  N                     01321  0000000        000090
12056428188000128EDVALDO SANTOS ROSA ME                                                0000000023700898200000000005622 0000000088191342009011225700668194919608      201211282012091300000000055310000089850000000000093142000000000000000000000000003292050000000000  3020121203   01          2  RUA TAMAINDE  1410                                                               3                         000000000000000                                     N                     00598  0000000        000091
12056993512000150CYKLOP DO BRASIL EMBALAGENS SA                                        0000000034100000000000000000000000000000874070500000002362586810134932        201210012012090300000000054730000083607000000000102948000000000000000000000000019341050000000000  3020121203   01          2                                                                                   3112362586813025700015800019                                                  N                     01321  0000000        000092
12059659615000177DZ COMERCIO R E SERVICOS LTDA                                         000000003410000000000000000000000000000091358507000000900000321280            201211172012102400000000055200000060000000000000061920000000000000000000000000001920050000000000  3020121203   01          2                                                                                   3109000003217000314585100039                                                  N                     01321  0000000        000093
12061217188000119TELAS METALICAS TELMETAL LTDA                                         0000000034100000000000000000000000000000916531740000009000031065896 2 2       201212182012110700000000055510000081992000000000081992000000000000000000000000000000050000000000  3020121218   05          3                                                                                   3109000031068077073552000029                                                  N                     01321  0000000        000094
12061217188000119TELAS METALICAS TELMETAL LTDA                                         0000000034100000000000000000000000000000930335370000009000031065896 2 2       201212182012110700000000055510000081992000000000081992000000000000000000000000000000050000000000  3020121218   01FS        1                                                                                   3109000031060077099894600059                                                  N                     01321  0000000        000095
12062510367000102ITANHAEM TRANSP DE MAQUINAS LT                                        000000003410000000000000000000000000000087407049000000236463199667            201209202012090400000000054620000248220000000000321702000000000000000000000000073482050000000000  3020121203   01          2                                                                                   3112364631997005770252400049                                                  N                     01321  0000000        000096
12064952757000168WALMAC COM DE PROD QUIMICOS LT                                        0000000034100000000000000000000000000000860403450000002275821700020148        201210052012080300000000054770000219267000000000244696000000000000000000000000025429050000000000  3020121203   01          2                                                                                   3112275821703064807961400029                                                  N                     01321  0000000        000097
12064952757000168WALMAC COM DE PROD QUIMICOS LT                                        0000000034100000000000000000000000000000860403440000002275821690020148        201210262012080300000000054980000219266000000000234351000000000000000000000000015516050000000000  3020121130   06          3                                                                                   3112275821695064807961400019                                                  N                     01321  0000000        000098
12064952757000168WALMAC COM DE PROD QUIMICOS LT                                        0000000034100000000000000000000000000000896979500000002462157550021611        201211012012100400000000055040000219267000000000231766000000000000000000000000012930050000000000  3020121130   06          3                                                                                   3112462157556064807961400019                                                  N                     01321  0000000        000099
12066841552000130R V SEG PATRIMONIAL LTDA                                              00000000341000000000000000000000000000008852483200000090002192721927          201209102012081000000000054520000483241000000000496765000000000000000000000000013524050000000000  3020121203   01          2                                                                                   3109000219270001835253400099                                                  N                     01321  0000000        000100
12066841552000130R V SEG PATRIMONIAL S C LTDA                                          00000000341000000000000000000000000000008887329800000090002213622136          201210102012091100000000054820000374758000000000381508000000000000000000000000006750050000000000  3020121203   01          2                                                                                   3109000221365001838994000069                                                  N                     01321  0000000        000101
12069284248000128ISOCOAT TINTAS E VERNIZES LTDA                                        0000000034100000000000000000000000000000888732960000002421485720055761        201211202012092100000000055230000093324000000000096561000000000000000000000000003237050000000000  3020121203   01          2                                                                                   3112421485726077430121200069                                                  N                     01321  0000000        000102
12069284248000128ISOCOAT TINTAS E VERNIZES LTDA                                        0000000034100000000000000000000000000000841061040000002182507930052085        201209172012070200000000054590000236130000000000284640000000000000000000000000048510050000000000  3020121203   01          2                                                                                   3112182507932077430121200019                                                  N                     01321  0000000        000103
12096500087000135WORKBENCH CONSULTORIA S S LTDA                                        0000000034100000000000000000000000000000878205840000007940034283118           201209272012090300000000054690000131746000000000149099000000000000000000000000017353050000000000  3020121203   01          2                                                                                   3157940034289826313803700089                                                  N                     01321  0000000        000104
12096500087000135WORKBENCH CONSULTORIA S S LTDA                                        0000000034100000000000000000000000000000912467970000007023696933218           201211272012110100000000055300000131746000000000133300000000000000000000000000001554050000000000  3020121203   01          2                                                                                   3157023696939826313803700019                                                  N                     01321  0000000        000105
900010600000000047730273                                                                                                                                                                                                                                                                                                                                                                                                                                                                01321  0000000        000106
