0000147602043799295000110ALTAMIRA INDUSTRIA METALURGICA LT       202000000009520120801061354             1                                                                                                                                                                                                                                                                                                                                                                                                    000001
12000193273000108TECELAGEM ROMA LTDA                                                   0000000023700284400000000410977 000000008374605000900000001581016213   A      201207272012062900000000054070000124248000000000126113000000000000000000000000001865050000000000  3020120801   01          2  RUA TAMAINDE 1410  1410                                                          3                         000000000000000                                     N                     00598  0000000        000002
12002460454000170AUT SERVICE COMERCIO E SERVICO                                        0000000023702591700000000007692 000000008321806000902174000000333816    2     201207312012062200000000054110000234958000000000247175000000000000000000000000012217050000000000  3020120801   01          2  JUNO 533                                                                         3                         000000000000000                                     N                     00598  0000000        000003
12005151518000140BELENUS DO BRASIL LTDA                                                0000000023703389800000000015091 0000000080649184009021300000522R126248432     201207292012043000000000054090000460800000000000465363000000000000000000000000004563050000000000  3020120801   01          2  RUA GANGES  528                                                                  3                         000000000000000                                     N                     00598  0000000        000004
12005151518000140BELENUS DO BRASIL LTDA                                                0000000023703389800000000015091 0000000080649187009021300000543R126249332     201207292012043000000000054090000035033000000000035265000000000000000000000000000348050000000000  3020120731   06          3  RUA GANGES  528                                                                  3                         000000000000000                                     N                     00598  0000000        000005
12005335228000156DINAMICA INF E TELECOM LTDA EP                                        0000000023703257300000000503215 0000000084406388009032570016552MO008700A      201207302012070300000000054100000020000000000000020067000000000000000000000000000134050000000000  3020120731   06          3  RUA JUNO  533                                                                    3                         000000000000000                                     N                     00598  0000000        000006
12006000195000156M B A MERCANTIL BRASILEIRA DE                                         0000000000100000000000000000000000000000855028840000007952850000009005B03     201210222012073000000000054940000202837000000000202837000000000000000000000000000000050000000000  3020121022   01FS        1                                                                                   3043937952853333000105251169                                                  N                     01321  0000000        000007
12006000195000156M B A MERCANTIL BRASILEIRA DE                                         0000000000100000000000000000000000000000855028850000007952860000009006B01     201208282012073000000000054390000235480000000000235480000000000000000000000000000000050000000000  3020120828   01FS        1                                                                                   3043937952863333000105251129                                                  N                     01321  0000000        000008
12006000195000156M B A MERCANTIL BRASILEIRA DE                                         0000000000100000000000000000000000000000855028860000007952870000009006B02     201209252012073000000000054670000235480000000000235480000000000000000000000000000000050000000000  3020120925   01FS        1                                                                                   3043937952873333000105251189                                                  N                     01321  0000000        000009
12006000195000156M B A MERCANTIL BRASILEIRA DE                                         0000000000100000000000000000000000000000855028870000007952880000009006B03     201210232012073000000000054950000235480000000000235480000000000000000000000000000000050000000000  3020121023   01FS        1                                                                                   3043937952883333000105251139                                                  N                     01321  0000000        000010
12006000195000156M B A MERCANTIL BRASILEIRA DE                                         0000000000100000000000000000000000000000855028880000007952890000009007B01     201208292012073000000000054400000428086000000000428086000000000000000000000000000000050000000000  3020120829   01FS        1                                                                                   3043937952893333000105251139                                                  N                     01321  0000000        000011
12006000195000156M B A MERCANTIL BRASILEIRA DE                                         0000000000100000000000000000000000000000855028890000007952830000009005B01     201208272012073000000000054380000202838000000000202838000000000000000000000000000000050000000000  3020120827   01FS        1                                                                                   3043937952833333000105251129                                                  N                     01321  0000000        000012
12006000195000156M B A MERCANTIL BRASILEIRA DE                                         0000000000100000000000000000000000000000855028900000007952840000009005B02     201209242012073000000000054660000202838000000000202838000000000000000000000000000000050000000000  3020120924   01FS        1                                                                                   3043937952843333000105251189                                                  N                     01321  0000000        000013
12006000195000156M B A MERCANTIL BRASILEIRA DE                                         0000000000100000000000000000000000000000855028910000007952930000009010B02     201209272012073000000000054690000275046000000000275046000000000000000000000000000000050000000000  3020120927   01FS        1                                                                                   3043937952933333000105251119                                                  N                     01321  0000000        000014
12006000195000156M B A MERCANTIL BRASILEIRA DE                                         0000000000100000000000000000000000000000855028920000007952940000009010B03     201210252012073000000000054970000275045000000000275045000000000000000000000000000000050000000000  3020121025   01FS        1                                                                                   3043937952943333000105251199                                                  N                     01321  0000000        000015
12006000195000156M B A MERCANTIL BRASILEIRA DE                                         0000000000100000000000000000000000000000855028930000007952900000009007B02     201209262012073000000000054680000428087000000000428087000000000000000000000000000000050000000000  3020120926   01FS        1                                                                                   3043937952903333000105251119                                                  N                     01321  0000000        000016
12006000195000156M B A MERCANTIL BRASILEIRA DE                                         0000000000100000000000000000000000000000855028940000007952910000009007B03     201210242012073000000000054960000428086000000000428086000000000000000000000000000000050000000000  3020121024   01FS        1                                                                                   3043937952913333000105251199                                                  N                     01321  0000000        000017
12006000195000156M B A MERCANTIL BRASILEIRA DE                                         0000000000100000000000000000000000000000855028950000007952920000009010B01     201208302012073000000000054410000275045000000000275045000000000000000000000000000000050000000000  3020120830   01FS        1                                                                                   3043937952923333000105251189                                                  N                     01321  0000000        000018
12009080640000123SERVPAES LTDA ME                                                      000000001040000000000000000000000000000085502853000000000517200002320         201208102012073000000000054210000152500000000000152500000000000000000000000000000000050000000000  3020120810   01FS        1                                                                                   3900000051710868700000040919                                                  N                     01321  0000000        000019
12009121184000112BBGE COBRANCA LTDA                                                    0000000023700368900000001026402 00000000839452790090218600000832581 BC        201207262012062100000000054060000154100000000000156670000000000000000000000000003084050000000000  3020120731   06          3  RUA GANGES  528                         MACKVEN MAQUINAS INDUSTRIAIS LTDA EPP    3                         005441222000163                                     N                     00598  0000000        000020
12012006058000121WEG TINTAS LTDA                                                       0000000023702727800000000001309 00000000811374760090213800000970013814703     201207302012051600000000054100000306662000000000307478000000000000000000000000000816050000000000  3020120801   01          2  R JUNO  533                                                                      3                         000000000000000                                     N                     00598  0000000        000021
12012006058000121WEG TINTAS LTDA                                                       0000000023702727800000000001309 00000000821490940090215600001070014231102     201207312012060100000000054110000459854000000000460467000000000000000000000000000613050000000000  3020120801   01          2  R JUNO  533                                                                      3                         000000000000000                                     N                     00598  0000000        000022
12012006058000121WEG TINTAS LTDA                                                       0000000023702727800000000001309 00000000827244610090216600000700014454801     201207282012061300000000054080000306569000000000308201000000000000000000000000001632050000000000  3020120801   01          2  R JUNO  533                                                                      3                         000000000000000                                     N                     00598  0000000        000023
12012006058000121WEG TINTAS LTDA                                                       0000000023702727800000000001309 00000000828904020090217000001010014515401     201207302012061500000000054100000459854000000000461080000000000000000000000000001226050000000000  3020120801   01          2  R JUNO  533                                                                      3                         000000000000000                                     N                     00598  0000000        000024
12012256386000186TOP TRAD SERVICOS DE TEXTOS LT                                        0000000023700200300000001062603 00000000850740700090132194025562718           201207272012071200000000054070000025600000000000026452000000000000000000000000000852050000000000  3020120801   01          2  R TAMANDE 1410                                                                   3                         000000000000000                                     N                     00598  0000000        000025
12035820448000136WHITE MARTINS GASES INDUSTRIAI                                        0000000023700026400000003937925 0000000083945273009021860001230347511 001     201207312012070400000000054110000028403000000000028403000000000000000000000000000000050000000000  3020120731   06          3  RUA GANGES  528                                                                  3                         000000000000000                                     N                     00598  0000000        000026
12042956441000101SOLUCOES ACO USIMINAS                                                 0000000034100000000000000000000000000000813840550000002053421530016071502     201207232012052000000000054030000599868000000000599868000000000000000000000000000000050000000000  3020120723   06          3                                                                                   3112053421536293807258000059                                                  N                     01321  0000000        000027
12042956441000101SOLUCOES ACO USIMINAS                                                 0000000034100000000000000000000000000000813840580000002053421560016074702     201207232012052100000000054030000338677000000000340708000000000000000000000000002708050000000000  3020120726   06          3                                                                                   3112053421569293807258000019                                                  N                     01321  0000000        000028
12042956441000101SOLUCOES ACO USIMINAS                                                 0000000034100000000000000000000000000000818680990000002074813110016189502     201207232012052800000000054030000570859000000000570859000000000000000000000000000000050000000000  3020120723   06          3                                                                                   3112074813117293807258000089                                                  N                     01321  0000000        000029
12042956441000101SOLUCOES ACO USIMINAS                                                 0000000034100000000000000000000000000000818681010000002074813130016190002     201207232012052800000000054030000339715000000000339715000000000000000000000000000000050000000000  3020120723   06          3                                                                                   3112074813133293807258000019                                                  N                     01321  0000000        000030
12042956441000101SOLUCOES ACO USIMINAS                                                 0000000034100000000000000000000000000000818681030000002074813150016190302     201207232012052800000000054030000449705000000000452402000000000000000000000000003596050000000000  3020120726   06          3                                                                                   3112074813158293807258000039                                                  N                     01321  0000000        000031
12042956441000101SOLUCOES ACO USIMINAS                                                 0000000034100000000000000000000000000000819544960000002078930780016228302     201207242012052900000000054040000577774000000000578930000000000000000000000000002312050000000000  3020120725   06          3                                                                                   3112078930784293807258000039                                                  N                     01321  0000000        000032
12042956441000101SOLUCOES EM ACO USIMINAS S A                                          000000000010000000000000000000000000000083482045000000086546000000166813001   201207232012062600000000054030000391686000000000391686000000000000000000000000000000050000000000  3020120723   06          3                                                                                   3000000169660100000865461799                                                  N                     01321  0000000        000033
12042956441000101SOLUCOES EM ACO USIMINAS S A                                          000000000010000000000000000000000000000083482054000000086561000000166828001   201207232012062600000000054030000325481000000000326783000000000000000000000000001953050000000000  3020120725   06          3                                                                                   3000000169660100000865611739                                                  N                     01321  0000000        000034
12042956441000101SOLUCOES EM ACO USIMINAS S A                                          000000000010000000000000000000000000000083562083000000087492000000167113001   201207242012062700000000054040000698684000000000701478000000000000000000000000004191050000000000  3020120726   06          3                                                                                   3000000169660100000874921719                                                  N                     01321  0000000        000035
12042956441000101SOLUCOES ACO USIMINAS                                                 0000000034100000000000000000000000000000855028650000002254329270017200201     201208232012072600000000054340000680589000000000680589000000000000000000000000000000050000000000  3020120823   01FS        1                                                                                   3112254329272293807258000099                                                  N                     01321  0000000        000036
12042956441000101SOLUCOES ACO USIMINAS                                                 0000000034100000000000000000000000000000855028660000002254329280017200301     201208232012072600000000054340000156943000000000156943000000000000000000000000000000050000000000  3020120823   01FS        1                                                                                   3112254329280293807258000019                                                  N                     01321  0000000        000037
12042956441000101SOLUCOES ACO USIMINAS                                                 0000000034100000000000000000000000000000855028670000002254329360017200402     201209202012072600000000054620000163224000000000163224000000000000000000000000000000050000000000  3020120920   01FS        1                                                                                   3112254329363293807258000069                                                  N                     01321  0000000        000038
12042956441000101SOLUCOES ACO USIMINAS                                                 0000000034100000000000000000000000000000855028680000002254329370017202402     201209202012072600000000054620000244136000000000244136000000000000000000000000000000050000000000  3020120920   01FS        1                                                                                   3112254329371293807258000079                                                  N                     01321  0000000        000039
12042956441000101SOLUCOES ACO USIMINAS                                                 0000000034100000000000000000000000000000855028690000002254329380017212902     201209212012072600000000054630000140098000000000140098000000000000000000000000000000050000000000  3020120921   01FS        1                                                                                   3112254329389293807258000019                                                  N                     01321  0000000        000040
12042956441000101SOLUCOES ACO USIMINAS                                                 0000000034100000000000000000000000000000855028700000002254329390017213002     201209212012072600000000054630000140602000000000140602000000000000000000000000000000050000000000  3020120921   01FS        1                                                                                   3112254329397293807258000089                                                  N                     01321  0000000        000041
12042956441000101SOLUCOES ACO USIMINAS                                                 0000000034100000000000000000000000000000855028710000002254329330017220501     201208242012072700000000054350000981316000000000981316000000000000000000000000000000050000000000  3020120824   01FS        1                                                                                   3112254329330293807258000039                                                  N                     01321  0000000        000042
12042956441000101SOLUCOES ACO USIMINAS                                                 0000000034100000000000000000000000000000855028720000002254329340017200202     201209202012072600000000054620000680385000000000680385000000000000000000000000000000050000000000  3020120920   01FS        1                                                                                   3112254329348293807258000079                                                  N                     01321  0000000        000043
12042956441000101SOLUCOES ACO USIMINAS                                                 0000000034100000000000000000000000000000855028730000002254329350017200302     201209202012072600000000054620000156896000000000156896000000000000000000000000000000050000000000  3020120920   01FS        1                                                                                   3112254329355293807258000029                                                  N                     01321  0000000        000044
12042956441000101SOLUCOES ACO USIMINAS                                                 0000000034100000000000000000000000000000855028740000002254329450017212903     201210192012072600000000054910000140098000000000140098000000000000000000000000000000050000000000  3020121019   01FS        1                                                                                   3112254329454293807258000099                                                  N                     01321  0000000        000045
12042956441000101SOLUCOES ACO USIMINAS                                                 0000000034100000000000000000000000000000855028750000002254329460017213003     201210192012072600000000054910000140602000000000140602000000000000000000000000000000050000000000  3020121019   01FS        1                                                                                   3112254329462293807258000069                                                  N                     01321  0000000        000046
12042956441000101SOLUCOES ACO USIMINAS                                                 0000000034100000000000000000000000000000855028760000002254329470017220503     201210192012072700000000054910000981022000000000981022000000000000000000000000000000050000000000  3020121019   01FS        1                                                                                   3112254329470293807258000029                                                  N                     01321  0000000        000047
12042956441000101SOLUCOES ACO USIMINAS                                                 0000000034100000000000000000000000000000855028770000002254329400017220502     201209212012072700000000054630000981022000000000981022000000000000000000000000000000050000000000  3020120921   01FS        1                                                                                   3112254329405293807258000099                                                  N                     01321  0000000        000048
12042956441000101SOLUCOES ACO USIMINAS                                                 0000000034100000000000000000000000000000855028780000002254329410017200203     201210182012072600000000054900000680385000000000680385000000000000000000000000000000050000000000  3020121018   01FS        1                                                                                   3112254329413293807258000059                                                  N                     01321  0000000        000049
12042956441000101SOLUCOES ACO USIMINAS                                                 0000000034100000000000000000000000000000855028790000002254329420017200303     201210182012072600000000054900000156897000000000156897000000000000000000000000000000050000000000  3020121018   01FS        1                                                                                   3112254329421293807258000019                                                  N                     01321  0000000        000050
12042956441000101SOLUCOES ACO USIMINAS                                                 0000000034100000000000000000000000000000855028800000002254329430017200403     201210182012072600000000054900000163223000000000163223000000000000000000000000000000050000000000  3020121018   01FS        1                                                                                   3112254329439293807258000079                                                  N                     01321  0000000        000051
12042956441000101SOLUCOES ACO USIMINAS                                                 0000000034100000000000000000000000000000855028810000002254329440017202403     201210182012072600000000054900000244137000000000244137000000000000000000000000000000050000000000  3020121018   01FS        1                                                                                   3112254329447293807258000029                                                  N                     01321  0000000        000052
12042956441000101SOLUCOES ACO USIMINAS                                                 0000000034100000000000000000000000000000855028590000002254329290017200401     201208232012072600000000054340000163273000000000163273000000000000000000000000000000050000000000  3020120823   01FS        1                                                                                   3112254329298293807258000029                                                  N                     01321  0000000        000053
12042956441000101SOLUCOES ACO USIMINAS                                                 0000000034100000000000000000000000000000855028600000002254329300017202401     201208232012072600000000054340000244209000000000244209000000000000000000000000000000050000000000  3020120823   01FS        1                                                                                   3112254329306293807258000019                                                  N                     01321  0000000        000054
12042956441000101SOLUCOES ACO USIMINAS                                                 0000000034100000000000000000000000000000855028610000002254329310017212901     201208242012072600000000054350000140140000000000140140000000000000000000000000000000050000000000  3020120824   01FS        1                                                                                   3112254329314293807258000069                                                  N                     01321  0000000        000055
12042956441000101SOLUCOES ACO USIMINAS                                                 0000000034100000000000000000000000000000855028620000002254329320017213001     201208242012072600000000054350000140644000000000140644000000000000000000000000000000050000000000  3020120824   01FS        1                                                                                   3112254329322293807258000089                                                  N                     01321  0000000        000056
12042956441000101SOLUCOES ACO USIMINAS                                                 0000000034100000000000000000000000000000840313000000002181699170016829701     201207302012070200000000054100000643905000000000646481000000000000000000000000002576050000000000  3020120801   01          2                                                                                   3112181699177293807258000099                                                  N                     01321  0000000        000057
12042956441000101SOLUCOES ACO USIMINAS                                                 0000000034100000000000000000000000000000802821430000002990859480015711803     201207252012050100000000054050000247314000000000250779000000000000000000000000003465050000000000  3020120801   01          2                                                                                   3112990859483293807258000019                                                  N                     01321  0000000        000058
12042956441000101SOLUCOES ACO USIMINAS                                                 0000000034100000000000000000000000000000806491770000002008144720015799703     201207302012050700000000054100000435707000000000437449000000000000000000000000001742050000000000  3020120801   01          2                                                                                   3112008144720293807258000039                                                  N                     01321  0000000        000059
12042956441000101SOLUCOES ACO USIMINAS                                                 0000000034100000000000000000000000000000806491790000002008144740015799903     201207302012050700000000054100000195106000000000195886000000000000000000000000000780050000000000  3020120801   01          2                                                                                   3112008144746293807258000049                                                  N                     01321  0000000        000060
12056993512000150CYKLOP DO BRASIL EMBALAGENS SA                                        0000000034100000000000000000000000000000855028820000002250861510130428        201208242012072700000000054350000083490000000000083490000000000000000000000000000000050000000000  3020120824   01FS        1                                                                                   3112250861518025786126000019                                                  N                     01321  0000000        000061
12056993900000131CIA METALURGICA PRADA                                                 0000000034100000000000000000000000000000855028630000002254750290026244303     201210222012072800000000054940000100683000000000100683000000000000000000000000000000050000000000  3020121022   01FS        1                                                                                   3112254750295293800573900049                                                  N                     01321  0000000        000062
12056993900000131CIA METALURGICA PRADA                                                 0000000034100000000000000000000000000000855028640000002254750300026244403     201210222012072800000000054940000084116000000000084116000000000000000000000000000000050000000000  3020121022   01FS        1                                                                                   3112254750303293800573900099                                                  N                     01321  0000000        000063
12056993900000131CIA METALURGICA PRADA                                                 0000000034100000000000000000000000000000855028550000002254750250026244301     201208272012072800000000054380000100986000000000100986000000000000000000000000000000050000000000  3020120827   01FS        1                                                                                   3112254750253293800573900099                                                  N                     01321  0000000        000064
12056993900000131CIA METALURGICA PRADA                                                 0000000034100000000000000000000000000000855028560000002254750260026244401     201208272012072800000000054380000084368000000000084368000000000000000000000000000000050000000000  3020120827   01FS        1                                                                                   3112254750261293800573900089                                                  N                     01321  0000000        000065
12056993900000131CIA METALURGICA PRADA                                                 0000000034100000000000000000000000000000855028570000002254750270026244302     201209242012072800000000054660000100684000000000100684000000000000000000000000000000050000000000  3020120924   01FS        1                                                                                   3112254750279293800573900089                                                  N                     01321  0000000        000066
12056993900000131CIA METALURGICA PRADA                                                 0000000034100000000000000000000000000000855028580000002254750280026244402     201209242012072800000000054660000084115000000000084115000000000000000000000000000000050000000000  3020120924   01FS        1                                                                                   3112254750287293800573900039                                                  N                     01321  0000000        000067
12056993900000131CIA METALURGICA PRADA                                                 0000000034100000000000000000000000000000820562290000002080193670024499502     201207252012053000000000054050000236586000000000239344000000000000000000000000002758050000000000  3020120801   01          2                                                                                   3112080193678293800573900099                                                  N                     01321  0000000        000068
12056993900000131CIA METALURGICA PRADA                                                 0000000034100000000000000000000000000000821490990000002084501920024572502     201207262012053100000000054060000217291000000000219463000000000000000000000000002172050000000000  3020120801   01          2                                                                                   3112084501926293800573900059                                                  N                     01321  0000000        000069
12056993900000131CIA METALURGICA PRADA                                                 0000000034100000000000000000000000000000822364940000002089776720024585702     201207272012060100000000054070000393991000000000397276000000000000000000000000003285050000000000  3020120801   01          2                                                                                   3112089776721293800573900029                                                  N                     01321  0000000        000070
12056993900000131CIA METALURGICA PRADA                                                 0000000034100000000000000000000000000000820562280000002080193660024499402     201207252012053000000000054050000597722000000000604694000000000000000000000000006972050000000000  3020120801   01          2                                                                                   3112080193660293800573900059                                                  N                     01321  0000000        000071
12056993900000131CIA METALURGICA PRADA                                                 0000000034100000000000000000000000000000823343270000002094231690024634202     201207302012060400000000054100000247806000000000248632000000000000000000000000000826050000000000  3020120801   01          2                                                                                   3112094231696293800573900019                                                  N                     01321  0000000        000072
12056993900000131CIA METALURGICA PRADA                                                 0000000034100000000000000000000000000000823343290000002094231720024634802     201207302012060400000000054100000264512000000000265394000000000000000000000000000882050000000000  3020120801   01          2                                                                                   3112094231720293800573900069                                                  N                     01321  0000000        000073
12061096178000172COMERCIAL ELETRICA RIMO LTDA                                          0000000034100000000000000000000000000000855028830000002250570138959           201208102012071300000000054210000027180000000000027180000000000000000000000000000000050000000000  3020120810   01FS        1                                                                                   3112250570135166009333500019                                                  N                     01321  0000000        000074
12061096178000172COMERCIAL ELETRICA RIMO LTDA                                          0000000034100000000000000000000000000000855028540000002250570149048           201208162012071900000000054270000033112000000000033112000000000000000000000000000000050000000000  3020120816   01FS        1                                                                                   3112250570143166009333500039                                                  N                     01321  0000000        000075
12062173661000176INDUFIX IND E COM LTDA                                                0000000023704130000000000085898 000000008550289800702213000001000035860 B     201208302012071600000000054410000057190000000000057190000000000000000000000000000000050000000000  3020120830   01FS        1  RUA GANGES 528                                                                   3                         000000000000000                                     N                     00598  0000000        000076
12062340989000130EDICOES ADUANEIRAS LTDA                                               0000000023703090200000000015660 0000000079108230009080000035028004262 B       201207302012041100000000054100000043600000000000043744000000000000000000000000000144050000000000  3020120801   01          2                                                                                   3                         000000000000000                                     N                     00598  0000000        000077
12066970229000167NEXTEL TELECOMUNICACOES LTDA                                          0000000023702374400000001596233 0000000085502896009000014340178215472 1       201208102012062100000000054210000011632000000000011632000000000000000000000000000000050000000000  3020120810   01FS        1  R GANGES  520 VILA CARRAO BR                                                     3                         000000000000000                                     N                     00598  0000000        000078
12066970229000167NEXTEL TELECOMUNICACOES LTDA                                          0000000023702374400000001596233 000000008550289700900001434017932530 10       201208102011101100000000054210000019860000000000019860000000000000000000000000000000050000000000  3020120810   01FS        1  R GANGES  520 VILA CARRAO BR                                                     3                         000000000000000                                     N                     00598  0000000        000079
12092693118000160BRADESCO SAUDE S A                                                    0000000023700448000000001533991 00000000829780050050100702629130000000000     201207202012061800000000054000000645861000000000650853000000000000000000000000004992050000000000  3020120801   01          2                                                                                   3                         000000000000000                                     N                     00598  0000000        000080
900008100000000023029263                                                                                                                                                                                                                                                                                                                                                                                                                                                                00598  0000000        000081
