0000147602043799295000110ALTAMIRA IND METALURGICA LTDA           20100547000002012110113254300000        2    230A                                                                                          000000000000000                                                                                                                                                                                                                                                                                   000001
12006000195000156MBA MERCANTIL BRASIL ACO LTDA RUA  RINCAO  220                        0365108034100648 00000000492510 I000000000010117000000000000000               201211010000000000000000000000000000000000000002623702000000000000000000000000000000040000000002  0820121101   01HA        0001400                                                                             3C0000000101                             0002                                 N                     00000  0020256        000002
900000300000000002623702                                                                                                                                                                                    000000000000000                                                                                                                                                                                                                                                    00000100000000000000000        000003
