0000147602043799295000110ALTAMIRA INDUSTRIA METALURGICA LT       202000000192220121101141314             2                                                                                                  000000000000000                                                                                                                                                                                                                                                                                   000001
12006000195000156MBA MERCANTIL BRASIL ACO LTDA                                         0000000034100648 00000000492510 I000000000010117000000000000000               201211010000000000000000000000000000000000000002623702000000000000000000000000000000040000000002  0820121101   01HF        5001410000000008281278000000000000000                                               3C0000000101                               02                                 N                     01076 10020256        000002
900000300000000002623702                                                                                                                                                                                    000000000000000                                                                                                                                                                                                                                                    00000100000000000000000        000003
