0000147602043799295000110ALTAMIRA INDUSTRIA METALURGICA LT       202000000180820120802213347             3                                                                                                  000000000000000                                                                                                                                                                                                                                                                                   000001
12000193273000108TECELAGEM ROMA LTDA                                                   0000000023700284400000000410977 I000000000009318009000000015810               201208020000000000000000054130000126486000000000126486000000000000000000000000000000010000016213  3120120802   02BW        5000000               000000000000000                                               3028409000000158100041097089               016213/01                          N                     01079 10020256        000002
12005151518000140BELENUS DO BRASIL LTDA                                                0000000023703389800000000015091 I000000000009302009021300000522               201208020000000000000000054130000466884000000000466884000000000000000000000000000000010000262484  3120120802   02BW        5000000               000000000000000                                               3338909213000005220001509019               0262484/03                         N                     01079 10020256        000003
12001784706000154TRANSPORTADORA WARTHA LTDA                                            0000000023701775200000000260010 I000000000009320028021910000314               201208020000000020120802054130000107961000000000098000000000000009961000000000000000010002553051  3120120802   02BW        5000000               000000000000000                                               3177528219100003140026001049               02553051                           N                     01079 10020256        000004
12007068566000102NIVEL EMPREGOS LTDA           AV CELSO GARCIA 3830                    0306400023700097300000003053792 I000000000009334000000000000000               201208020000000000000000000000000000000000000000632760000000000000000000000000000000010000002727  0120120802   02BW        5000000               000000000000000                                               3                                          NF.NRO.2727- PARC.01.              N                     01321 10020256        000005
11258214076000072CELSO BERNARDO DA CRUZ E OU   R PE DONIZETE TAVARES DE LIMA 274       0240400023700092200000067722248 I000000000009323000000000000000               201208020000000000000000000000000000000000000000030000000000000000000000000000000000050000022012  0120120802   02BW        5000000               000000000000000                                               3                                          REF.JULHO/2012.                    N                     01321 20020256        000006
11748900188000091JOAO CARLOS COLUCO DE LIMA    R AMERICO S NOVELLI 124 CONJ 512        0821009023700423500000000631361 I000000000009322000000000000000               201208020000000000000000000000000000000000000000083800000000000000000000000000000000010000000394  0120120802   02BW        5000000               000000000000000                                               3                                          03694                              N                     01321 10020256        000007
12011202309000180FIEL TOOLS DISTRIB DE MAQ FERR                                        0000000023702087700000000000116 I000000000009325028000020181482               201208020000000000000000054130000047668000000000047668000000000000000000000000000000010000008148  3120120802   02BW        5000000               000000000000000                                               3208728000201814820000011029               08148/01                           N                     01079 10020256        000008
11053970358000031REINALDO CAMACHO RAMOS        AV SEBASTIAO HENRIQUES 428 TOR3 AP2     0272305023706698200000000021229 I000000000009335000000000000000               201208020000000000000000000000000000000000000000082000000000000000000000000000000000010000004104  0120120802   02BW        5000000               000000000000000                                               3                                          04104                              N                     01321 10020256        000009
12056993900000131CIA METALURGICA PRADA                                                 0000000034100000 0000000000000  I000000000009310000000000000000               201208020000000000000000054130000219825000000000219825000000000000000000000000000000010000245725  3120120802   02BW        5000000               000000000000000                                               3181516088030293800573900059               0245725/02                         N                     01132 10020256        000010
12006209559000102MAZURKY IND COM EMBALAGENS LTD                                        0000000034100000 0000000000000  I000000000009321000000000000000               201208020000000000000000054130000085440000000000085440000000000000000000000000000000010000009600  3120120802   02BW        5000000               000000000000000                                               3181515570139151434240900019               09600/01                           N                     01132 10020256        000011
12056993900000131CIA METALURGICA PRADA                                                 0000000034100000 0000000000000  I000000000009314000000000000000               201208020000000000000000054130000141578000000000141578000000000000000000000000000000010000252957  3120120802   02BW        5000000               000000000000000                                               3181516109786293800573900099               0252957/01                         N                     01132 10020256        000012
12096500087000135WORKBENCH CONSULTORIA S S LTDA                                        0000000034100000 0000000000000  I000000000009315000000000000000               201208020000000000000000054130000133300000000000133300000000000000000000000000000000010000003001  3120120802   02BW        5000000               000000000000000                                               3181516122559826313803700049               3001                               N                     01132 10020256        000013
12071580302000124SANCHEPEL IND PAULISTA LTDA                                           0000000034100000 0000000000000  I000000000009319000000000000000               201208020000000000000000054130000113452000000000113452000000000000000000000000000000010000007125  3120120802   02BW        5000000               000000000000000                                               3181516124617007855578600059               07125                              N                     01132 10020256        000014
12061217188000119TELAS METALICAS TELMETAL LTDA                                         0000000000100000 0000000000000  I000000000009328000000000000000               201208020000000000000000054130000043768000000000043768000000000000000000000000000000010000005194  3120120802   02BW        5000000               000000000000000                                               3000000115031800000053821729               05194/03                           N                     01132 10020256        000015
12042956441000101SOLUCOES EM ACO USIMINAS S A                                          0000000034100000 0000000000000  I000000000009311000000000000000               201208020000000000000000054130000197876000000000197876000000000000000000000000000000010000163010  3120120802   02BW        5000000               000000000000000                                               3181516117323293807258000039               0163010/02                         N                     01132 10020256        000016
12069284248000128ISOCOAT TINTAS E VERNIZES LTDA                                        0000000034100000 0000000000000  I000000000009316000000000000000               201208020000000000000000054130000134388000000000134388000000000000000000000000000000010000050534  3120120802   02BW        5000000               000000000000000                                               3181516123915077430121200059               050534/02                          N                     01132 10020256        000017
12001895314000162COLETA INDUSTRIAL FIMAVAN LTDA                                        0000000034100000 0000000000000  I000000000009317000000000000000               201208020000000000000000054130000130649000000000130649000000000000000000000000000000010000008468  3120120802   02BW        5000000               000000000000000                                               3181515574158144604097200039               8468                               N                     01132 10020256        000018
12056993900000131CIA METALURGICA PRADA                                                 0000000034100000 0000000000000  I000000000009300000000000000000               201208020000000000000000054130000844155000000000844155000000000000000000000000000000010000245847  3120120802   02BW        5000000               000000000000000                                               3181516119561293800573900059               0245847/02                         N                     01132 10020256        000019
12004135061000117TEMA LOCACAO DE EQUIP LTDA EPP                                        0000000034100000 0000000000000  I000000000009301000000000000000               201208020000000000000000054130000495464000000000495464000000000000000000000000000000010000000262  3120120802   02BW        5000000               000000000000000                                               3181516112104315023906300069               0262/03                            N                     01132 10020256        000020
12056993900000131CIA METALURGICA PRADA                                                 0000000034100000 0000000000000  I000000000009304000000000000000               201208020000000000000000054130000397933000000000397933000000000000000000000000000000010000245857  3120120802   02BW        5000000               000000000000000                                               3181516122615293800573900029               0245857/02                         N                     01132 10020256        000021
12042956441000101SOLUCOES EM ACO USIMINAS S A                                          0000000034100000 0000000000000  I000000000009305000000000000000               201208020000000000000000054130000387179000000000387179000000000000000000000000000000010000163012  3120120802   02BW        5000000               000000000000000                                               3181516115517293807258000089               0163012/02                         N                     01132 10020256        000022
12056993900000131CIA METALURGICA PRADA                                                 0000000034100000 0000000000000  I000000000009313000000000000000               201208020000000000000000054130000155041000000000155041000000000000000000000000000000010000252954  3120120802   02BW        5000000               000000000000000                                               3181516103763293800573900089               0252954/01                         N                     01132 10020256        000023
12006209559000102MAZURKY IND COM EMBALAGENS LTD                                        0000000034100000 0000000000000  I000000000009324000000000000000               201208020000000000000000054130000053321000000000053321000000000000000000000000000000010000009517  3120120802   02BW        5000000               000000000000000                                               3181515570618151434240900019               09517/02                           N                     01132 10020256        000024
12061217188000119TELAS METALICAS TELMETAL LTDA                                         0000000000100000 0000000000000  I000000000009327000000000000000               201208020000000000000000054130000051810000000000051810000000000000000000000000000000010000005193  3120120802   02BW        5000000               000000000000000                                               3000000115031800000053791719               05193/03                           N                     01132 10020256        000025
12061217188000119TELAS METALICAS TELMETAL LTDA                                         0000000000100000 0000000000000  I000000000009329000000000000000               201208020000000000000000054130000037583000000000037583000000000000000000000000000000010000005195  3120120802   02BW        5000000               000000000000000                                               3000000115031800000053851719               05195/03                           N                     01132 10020256        000026
12056993900000131CIA METALURGICA PRADA                                                 0000000034100000 0000000000000  I000000000009312000000000000000               201208020000000000000000054130000156433000000000156433000000000000000000000000000000010000252956  3120120802   02BW        5000000               000000000000000                                               3181516100736293800573900019               0252956/01                         N                     01132 10020256        000027
12009419898000101LUSITANO IND COM EMBAL PLAST                                          0000000034100000 0000000000000  I000000000009330000000000000000               201208020000000000000000054130000035663000000000035663000000000000000000000000000000010000009530  3120120802   02BW        5000000               000000000000000                                               3181516127494001101608600059               09530/02                           N                     01132 10020256        000028
12061763124000113COMERCIO TAMBORES PICILLO LTDA                                        0000000034100000 0000000000000  I000000000009331000000000000000               201208020000000000000000054130000021726000000000021726000000000000000000000000000000010000004046  3120120802   02BW        5000000               000000000000000                                               3181516128030005608672100019               04046                              N                     01132 10020256        000029
12061217188000119TELAS METALICAS TELMETAL LTDA                                         0000000034100000 0000000000000  I000000000009336000000000000000               201208020000000000000000054130000172633000000000172633000000000000000000000000000000010000005293  3120120802   02BW        5000000               000000000000000                                               3181515959044077099894600019               05293/01-03                        N                     01132 10020256        000030
12061217188000119TELAS METALICAS TELMETAL LTDA                                         0000000034100000 0000000000000  I000000000009337000000000000000               201208020000000000000000054130000010750000000000010750000000000000000000000000000000010000005291  3120120802   02BW        5000000               000000000000000                                               3181515957261077099894600049               05291/01-03.                       N                     01132 10020256        000031
12061217188000119TELAS METALICAS TELMETAL LTDA                                         0000000034100000 0000000000000  I000000000009338000000000000000               201208020000000000000000054130000055832000000000055832000000000000000000000000000000010000005292  3120120802   02BW        5000000               000000000000000                                               3181515958251077099894600049               05292/01-03                        N                     01132 10020256        000032
12056993900000131CIA METALURGICA PRADA                                                 0000000034100000 0000000000000  I000000000009306000000000000000               201208020000000000000000054130000344036000000000344036000000000000000000000000000000010000252955  3120120802   02BW        5000000               000000000000000                                               3181516086653293800573900079               0252955/01                         N                     01132 10020256        000033
12006000195000156M B A MERCANTIL BRASILEIRA DE R RINCAO 220                            0365108023700118000000002128292 I000000000009332000000000000000               201208020000000000000000000000000000000000000001184938000000000000000000000000000000010000008181  0120120802   02BW        5000000               000000000000000                                               3                                          08181/03                           N                     01321 10020256        000034
12006000195000156MBA MERCANTIL BRASIL ACO LTDA                                         0000000023700118000000002128292 I000000000009309028021840000009               201208020000000000000000054130000273651000000000273651000000000000000000000000000000010000008753  3120120802   02BW        5000000               000000000000000                                               3011828218400000090212829079               08753/01                           N                     01079 10020256        000035
12006000195000156MBA MERCANTIL BRASIL ACO LTDA                                         0000000023700118000000002128292 I000000000009299028021840000002               201208020000000000000000054130000862785000000000862785000000000000000000000000000000010000008760  3120120802   02BW        5000000               000000000000000                                               3011828218400000020212829019               8760/01                            N                     01079 10020256        000036
12006000195000156MBA MERCANTIL BRASIL ACO LTDA                                         0000000023700118000000002128292 I000000000009333028021840000021               201208020000000000000000054130000363851000000000363851000000000000000000000000000000010000008735  3120120802   02BW        5000000               000000000000000                                               3011828218400000210212829069               08735/001                          N                     01079 10020256        000037
12012006058000121WEG TINTAS LTDA                                                       0000000023702727800000000001309 I000000000009303009021700000101               201208020000000000000000054130000461693000000000461693000000000000000000000000000000010000145154  3120120802   02BW        5000000               000000000000000                                               3272709217000001010000130029               0145154/01                         N                     01079 10020256        000038
12012006058000121WEG TINTAS LTDA                                                       0000000023702727800000000001309 I000000000009307009021660000070               201208020000000000000000054130000308609000000000308609000000000000000000000000000000010000144548  3120120802   02BW        5000000               000000000000000                                               3272709216600000700000130059               0144548/01                         N                     01079 10020256        000039
12012006058000121WEG TINTAS LTDA                                                       0000000023702727800000000001309 I000000000009308009021380000097               201208020000000000000000054130000307886000000000307886000000000000000000000000000000010000138147  3120120802   02BW        5000000               000000000000000                                               3272709213800000970000130019               0138147/03                         N                     01079 10020256        000040
12043292101000196ANHEMBI IND DE CAIXAS DE PAPELAV BENEDITO I PIRES 3605 JD MARANHAO    0671630023702671900000000031364 I000000000009298000000000000000               201208020000000000000000000000000000000000000000106191000000000000000000000000000000010000012887  0120120802   02BW        5000000               000000000000000                                               3                                          NF.NRO.012887/02                   N                     01321 10020256        000041
12062340989000130EDICOES ADUANEIRAS LTDA                                               0000000023703090200000000015660 I000000000009326009080000035028               201208020000000000000000054130000043816000000000043816000000000000000000000000000000010000004262  3120120802   02BW        5000000               000000000000000                                               3309009800000350280001566039               04262/02                           N                     01079 10020256        000042
900004300000000009900853                                                                                                                                                                                    000000000000000                                                                                                                                                                                                                                                    00004101894550007791125        000043
