0000147602043799295000110ALTAMIRA INDUSTRIA METALURGICA LT       202000000016020121102060742             1                                                                                                                                                                                                                                                                                                                                                                                                    000001
12000329073000121PETRO LIDER DERIV PETR LTDA                                           000000003410000000000000000000000000000089874117000000247270268001019584      201211012012100500000000055040000050000000000000055064000000000000000000000000005064050000000000  3020121105   01          2                                                                                   3112472702680073403145300019                                                  N                     01321  0000000        000002
12001951865000104FOUR F FOM MERCANTIL LTDA 1951                                        0000000039900000000000000000000000000000912468000000000000000001103318 12     201211092012091100000000055120000120000000000000120000000000000000000000000000000000050000000000  3020121109   01FS        1                                                                                   3176310655200198000598000119                                                  N                     01321  0000000        000003
12002583013000166ITAN TRANSP DE CARGAS EXC E IN                                        000000003410000000000000000000000000000088350836000000239377422008 B          201210212012091400000000054930000192500000000000204050000000000000000000000000011550050000000000  3020121105   01          2                                                                                   3112393774222005770252400039                                                  N                     01321  0000000        000004
12003489596000123BEND FLEX I COMERCIO LTDA                                             000000003410000000000000000000000000000088350832000000171879874608            201209122012082100000000054540000695250000000000769068000000000000000000000000073818050000000000  3020121105   01          2                                                                                   3191718798744157734445800069                                                  N                     01321  0000000        000005
12005335228000156DINAMICA INF E TELECOM LTDA EP                                        0000000023703257300000000503215 0000000090244992009032570017602MO009089A      201210302012101600000000055020000020000000000000020402000000000000000000000000000402050000000000  3020121105   01          2  RUA JUNO  533                                                                    3                         000000000000000                                     N                     00598  0000000        000006
12005880850000145NEDERMAN BRASIL COM PROD EX LT                                        000000003410000000000000000000000000000086373178000000614350956002763 A       201209252012081400000000054670000289674000000000313044000000000000000000000000023370050000000000  3020121105   01          2                                                                                   3156143509568160829000100049                                                  N                     01321  0000000        000007
12006000195000156MBA MERCANTIL BRAS DE ACO LTDA                                        0000000034100000000000000000000000000000889578520000001671394540008920B02     201209162012071700000000054580000576585000000000633285000000000000000000000000056700050000000000  3020121105   01          2                                                                                   3191671394549064849251000099                                                  N                     01321  0000000        000008
12006000195000156M B A MERCANTIL BRASILEIRA DE                                         0000000023700118P00000002128292 00000000912467980090221600000380009067B03     201210252012080200000000054970000830191000000000830191000000000000000000000000000000050000000000  3020121105   01FS        1  RUA JUNO  533                                                                    3                         000000000000000                                     N                     00598  0000000        000009
12006000195000156M B A MERCANTIL BRASILEIRA DE                                         0000000023700118P00000002130599 00000000868592690020223600000020009229B02     201210112012081600000000054830000253414000000000263964000000000000000000000000010550050000000000  3020121105   01          2  RUA JUNO  533                                                                    3                         000000000000000                                     N                     00598  0000000        000010
12006000195000156M B A MERCANTIL BRASILEIRA DE                                         0000000023700118P00000002130599 00000000848180770020220100000340008905B03     201210112012071900000000054830000155300000000000161775000000000000000000000000006475050000000000  3020121105   01          2  RUA JUNO  533                                                                    3                         000000000000000                                     N                     00598  0000000        000011
12006000195000156M B A MERCANTIL BRASILEIRA DE                                         0000000023700118P00000002130599 00000000853155000020220900000460008967B03     201210182012072400000000054900000135605000000000139673000000000000000000000000004068050000000000  3020121105   01          2  RUA JUNO  533                                                                    3                         000000000000000                                     N                     00598  0000000        000012
12006000195000156M B A MERCANTIL BRASILEIRA DE                                         0000000023700118P00000002130599 00000000853155030020220900000530008971B03     201210162012072400000000054880000170465000000000176145000000000000000000000000005680050000000000  3020121105   01          2  RUA JUNO  533                                                                    3                         000000000000000                                     N                     00598  0000000        000013
12006000195000156M B A MERCANTIL BRASILEIRA DE                                         0000000023700118P00000002130599 00000000853155060020220900000660008985B03     201210172012072500000000054890000141846000000000146330000000000000000000000000004484050000000000  3020121105   01          2  RUA JUNO  533                                                                    3                         000000000000000                                     N                     00598  0000000        000014
12006000195000156M B A MERCANTIL BRASILEIRA DE                                         0000000023700118P00000002130599 00000000853155090020220900000690008986B03     201210172012072500000000054890000126718000000000130727000000000000000000000000004009050000000000  3020121105   01          2  RUA JUNO  533                                                                    3                         000000000000000                                     N                     00598  0000000        000015
12006000195000156M B A MERCANTIL BRASILEIRA DE                                         0000000023700118P00000002130599 00000000853155120020220900000720008987B03     201210182012072500000000054900000188368000000000194020000000000000000000000000005652050000000000  3020121105   01          2  RUA JUNO  533                                                                    3                         000000000000000                                     N                     00598  0000000        000016
12006000195000156M B A MERCANTIL BRASILEIRA DE                                         0000000023700118P00000002130599 00000000865388260020222900000470009204B02     201210112012081500000000054830000127292000000000132592000000000000000000000000005300050000000000  3020121105   01          2  RUA JUNO  533                                                                    3                         000000000000000                                     N                     00598  0000000        000017
12006000195000156M B A MERCANTIL BRASILEIRA DE                                         0000000023700118P00000002130599 00000000865388290020222900000500009205B02     201210122012081500000000054840000348964000000000362932000000000000000000000000013968050000000000  3020121105   01          2  RUA JUNO  533                                                                    3                         000000000000000                                     N                     00598  0000000        000018
12006000195000156M B A MERCANTIL BRASILEIRA DE                                         0000000023700118P00000002130599 00000000865388320020222900000530009206B02     201210132012081500000000054850000527560000000000547777000000000000000000000000020217050000000000  3020121105   01          2  RUA JUNO  533                                                                    3                         000000000000000                                     N                     00598  0000000        000019
12006000195000156MBA MERCL BRASILEIRA ACO LTDA                                         0000000042200000000000000000000000000000859590580000000000000000009051B03     201210242012080300000000054960000180456000000000182562000000000000000000000000002406050000000000  3020121031   05          3                                                                                   3701600007451936910173834199                                                  N                     01321  0000000        000020
12008594182000188ACOS G3 COMERCIO E BENEFICIAME                                        0000000023703137200000000091332 00000000890457080090227100000251155        001201210252012092700000000054970000152346000000000152346000000000000000000000000000000050000000000  3020121025   05          3  RUA GANGES  528                                                                  3                         000000000000000                                     N                     00598  0000000        000021
12008594182000188ACOS G3 COMERCIO E BENEFICIAME                                        0000000023703137200000000091332 00000000912467990090227100000251155        001201210252012092700000000054970000152346000000000156189000000000000000000000000003843050000000000  3020121105   01FS        1  RUA GANGES  528                                                                  3                         000000000000000                                     N                     00598  0000000        000022
12009338857000190FERNANDO  NAGAO  CARDONE  ALVA                                        000000000330000000000000000000000000000089697936000000800000000ALTA 10 2012   201210202012092500000000054920000134632000000000142442000000000000000000000000007810050000000000  3020121105   01          2                                                                                   3947901700000051050080010129                                                  N                     01321  0000000        000023
12012006058000121WEG TINTAS LTDA                                                       0000000023702727800000000001309 00000000868126340090223500001170016086601     201210052012082100000000054770000306569000000000319217000000000000000000000000012648050000000000  3020121105   01          2  R JUNO  533                                                                      3                         000000000000000                                     N                     00598  0000000        000024
12012006058000121WEG TINTAS LTDA                                                       0000000023702727800000000001309 00000000868126350090223500001180016086602     201210202012082100000000054920000306569000000000313097000000000000000000000000006528050000000000  3020121105   01          2  R JUNO  533                                                                      3                         000000000000000                                     N                     00598  0000000        000025
12012006058000121WEG TINTAS LTDA                                                       0000000023702727800000000001309 00000000882668410090225800000740016626901     201210282012091300000000055000000459854000000000464758000000000000000000000000004904050000000000  3020121105   01          2  R JUNO  533                                                                      3                         000000000000000                                     N                     00598  0000000        000026
12012006058000121WEG TINTAS LTDA                                                       0000000023702727800000000001309 00000000854049560090221200001020015513003     201210102012072700000000054820000459992000000000475930000000000000000000000000015938050000000000  3020121105   01          2  R JUNO  533                                                                      3                         000000000000000                                     N                     00598  0000000        000027
12012006058000121WEG TINTAS LTDA                                                       0000000023702727800000000001309 00000000861207270090222200000910015775002     201210072012080800000000054790000306569000000000318401000000000000000000000000011832050000000000  3020121105   01          2  R JUNO  533                                                                      3                         000000000000000                                     N                     00598  0000000        000028
12012006058000121WEG TINTAS LTDA                                                       0000000023702727800000000001309 00000000861207280090222200000920015775003     201210222012080800000000054940000306662000000000312374000000000000000000000000005712050000000000  3020121105   01          2  R JUNO  533                                                                      3                         000000000000000                                     N                     00598  0000000        000029
12012006058000121WEG TINTAS LTDA                                                       0000000023702727800000000001309 00000000864554450090222800000740015908402     201210132012081400000000054850000306569000000000315953000000000000000000000000009384050000000000  3020121105   01          2  R JUNO  533                                                                      3                         000000000000000                                     N                     00598  0000000        000030
12012006058000121WEG TINTAS LTDA                                                       0000000023702727800000000001309 00000000864554460090222800000750015908403     201210282012081400000000055000000306662000000000309926000000000000000000000000003264050000000000  3020121105   01          2  R JUNO  533                                                                      3                         000000000000000                                     N                     00598  0000000        000031
12012006058000121WEG TINTAS LTDA                                                       0000000023702727800000000001309 00000000878206040090225400000780016517201     201210212012090600000000054930000459854000000000469049000000000000000000000000009195050000000000  3020121105   01          2  R JUNO  533                                                                      3                         000000000000000                                     N                     00598  0000000        000032
12012006058000121WEG TINTAS LTDA                                                       0000000023702727800000000001309 00000000856071270090221400000840015587303     201210142012073100000000054860000459992000000000473478000000000000000000000000013486050000000000  3020121105   01          2  R JUNO  533                                                                      3                         000000000000000                                     N                     00598  0000000        000033
12012006058000121WEG TINTAS LTDA                                                       0000000023702727800000000001309 00000000870177480090224100000970016248001     201210112012082700000000054830000306569000000000316769000000000000000000000000010200050000000000  3020121105   01          2  R JUNO  533                                                                      3                         000000000000000                                     N                     00598  0000000        000034
12012006058000121WEG TINTAS LTDA                                                       0000000023702727800000000001309 00000000870177490090224100000980016248002     201210262012082700000000054980000306569000000000310649000000000000000000000000004080050000000000  3020121105   01          2  R JUNO  533                                                                      3                         000000000000000                                     N                     00598  0000000        000035
12012006058000121WEG TINTAS LTDA                                                       0000000023702727800000000001309 00000000872318650090224700001030016359601     201210152012083100000000054870000459854000000000472727000000000000000000000000012873050000000000  3020121105   01          2  R JUNO  533                                                                      3                         000000000000000                                     N                     00598  0000000        000036
12012006058000121WEG TINTAS LTDA                                                       0000000023702727800000000001309 00000000872318660090224700001040016359602     201210302012083100000000055020000459854000000000463532000000000000000000000000003678050000000000  3020121105   01          2  R JUNO  533                                                                      3                         000000000000000                                     N                     00598  0000000        000037
12014775592000128HELIO ADRIANO DA SILVA ME                                             0000000003300000000000000000000000000000901454930000007700000008883           201210302012101000000000055020000011000000000000011263000000000000000000000000000263050000000000  3020121105   01          2                                                                                   3956114740000000000077010199                                                  N                     01321  0000000        000038
12014978305000187MOGI FILME INDUSTRIA E COMERCI                                        0000000023700402200000001055003 0000000088599905009022640000016351            201210202012092000000000054920000139691000000000148031000000000000000000000000009035050000000000  3020121101   06          3  RUA TAMAINDE 1410 VL NOVA MANCHESTER                                             3                         000000000000000                                     N                     00598  0000000        000039
12016802308000190TRANSMARRECO LTDA                                                     000000000330000000000000000000000000000088769814000000640000000353 12         201210052012092100000000054770000106581000000000118633000000000000000000000000012052050000000000  3020121105   01          2                                                                                   3907636240000000643564010119                                                  N                     01321  0000000        000040
12035820448000136WHITE MARTINS GASES INDUSTRIAI                                        0000000023700026400000003937925 0000000087820600009022540001838377866 001     201210042012090700000000054760000202876000000000209109000000000000000000000000006233050000000000  3020121105   01          2  RUA GANGES  528                                                                  3                         000000000000000                                     N                     00598  0000000        000041
12035820448000136WHITE MARTINS GASES INDUSTRIAI                                        0000000023700026400000003937925 0000000088191338009022570001466379316 001     201210092012091300000000054810000085208000000000087668000000000000000000000000002460050000000000  3020121105   01          2  RUA GANGES  528                                                                  3                         000000000000000                                     N                     00598  0000000        000042
12035820448000136WHITE MARTINS GASES INDUSTRIAI                                        0000000023700026400000003937925 0000000088957851009022700001298384214 001     201210232012092600000000054950000121725000000000124692000000000000000000000000002967050000000000  3020121105   01          2  RUA GANGES  528                                                                  3                         000000000000000                                     N                     00598  0000000        000043
12035820448000136WHITE MARTINS GASES INDUSTRIAI                                        0000000023700026400000003937925 0000000089605045009022790001498389880 001     201211012012100500000000055040000040575000000000041442000000000000000000000000000867050000000000  3020121105   01          2  RUA GANGES  528                                                                  3                         000000000000000                                     N                     00598  0000000        000044
12035820448000136WHITE MARTINS GASES INDUSTRIAI                                        0000000023700026400000003937925 0000000088524829009022630001577381808 001     201210162012091900000000054880000121725000000000124979000000000000000000000000003254050000000000  3020121105   01          2  RUA GANGES  528                                                                  3                         000000000000000                                     N                     00598  0000000        000045
12035820448000136WHITE MARTINS GASES INDUSTRIAI                                        0000000023700026400000003937925 0000000088686659009022650001000382942 001     201210182012092100000000054900000121725000000000124897000000000000000000000000003172050000000000  3020121105   01          2  RUA GANGES  528                                                                  3                         000000000000000                                     N                     00598  0000000        000046
12042956441000101SOLUCOES ACO USIMINAS                                                 0000000034100000000000000000000000000000855028690000002254329380017212902     201209212012072600000000054630000140098000000000152698000000000000000000000000012600050000000000  3020121105   01          2                                                                                   3112254329389293807258000019                                                  N                     01321  0000000        000047
12042956441000101SOLUCOES ACO USIMINAS                                                 0000000034100000000000000000000000000000855028700000002254329390017213002     201209212012072600000000054630000140602000000000153247000000000000000000000000012645050000000000  3020121105   01          2                                                                                   3112254329397293807258000089                                                  N                     01321  0000000        000048
12042956441000101SOLUCOES ACO USIMINAS                                                 0000000034100000000000000000000000000000855028770000002254329400017220502     201209212012072700000000054630000981022000000001069312000000000000000000000000088290050000000000  3020121105   01          2                                                                                   3112254329405293807258000099                                                  N                     01321  0000000        000049
12042956441000101SOLUCOES ACO USIMINAS                                                 0000000034100000000000000000000000000000856906410000002262886280017266201     201208282012073000000000054390000119472000000000135963000000000000000000000000016491050000000000  3020121105   01          2                                                                                   3112262886289293807258000089                                                  N                     01321  0000000        000050
12042956441000101SOLUCOES ACO USIMINAS                                                 0000000034100000000000000000000000000000856906420000002262886290017266301     201208282012073000000000054390000145069000000000165079000000000000000000000000020010050000000000  3020121105   01          2                                                                                   3112262886297293807258000099                                                  N                     01321  0000000        000051
12042956441000101SOLUCOES ACO USIMINAS                                                 0000000034100000000000000000000000000000853154840000002246247030017196702     201209202012072500000000054620000234841000000000256461000000000000000000000000021620050000000000  3020121105   01          2                                                                                   3112246247038293807258000099                                                  N                     01321  0000000        000052
12042956441000101SOLUCOES ACO USIMINAS                                                 0000000034100000000000000000000000000000853154850000002246247040017197302     201209202012072500000000054620000970103000000001059343000000000000000000000000089240050000000000  3020121105   01          2                                                                                   3112246247046293807258000019                                                  N                     01321  0000000        000053
12042956441000101SOLUCOES ACO USIMINAS                                                 0000000034100000000000000000000000000000859590620000002274469790017353702     201209282012080300000000054700000081053000000000087209000000000000000000000000006156050000000000  3020121105   01          2                                                                                   3112274469793293807258000069                                                  N                     01321  0000000        000054
12045461761000189PROTEGE INDUSTRIA E COMERCIO M                                        0000000000100000000000000000000000000000912467960000005309330001648201        201211282012103100000000055310000065080000000000065080000000000000000000000000000000050000000000  3020121128   01FS        1                                                                                   3044195309331192000128605119                                                  N                     01321  0000000        000055
12047190731000100DE CASTRO LOUR ENG IND LTDA                                           00000000341000000000000000000000000000008782050900000023399953503026612 0     201209182012082100000000054600001111489000000001216417000000000000000000000000104928050000000000  3020121105   01          2                                                                                   3112339995352036884500400019                                                  N                     01321  0000000        000056
12047190731000100DE CASTRO LOUR ENG IND LTDA                                           00000000341000000000000000000000000000008782052000000023399955303026632 0     201209192012082200000000054610000952073000000001040057000000000000000000000000087984050000000000  3020121105   01          2                                                                                   3112339995535036884500400019                                                  N                     01321  0000000        000057
12047190731000100DE CASTRO LOUR ENG IND LTDA                                           00000000341000000000000000000000000000008782051200000023399953803026613 0     201209182012082100000000054600001107989000000001212581000000000000000000000000104592050000000000  3020121105   01          2                                                                                   3112339995386036884500400039                                                  N                     01321  0000000        000058
12047190731000100DE CASTRO LOUR ENG IND LTDA                                           00000000341000000000000000000000000000008782051600000023399954103026614 0     201209182012082100000000054600001047621000000001146501000000000000000000000000098880050000000000  3020121105   01          2                                                                                   3112339995410036884500400039                                                  N                     01321  0000000        000059
12047190731000100DE CASTRO LOUREIRO ENGENHARIA                                         00000000033000000000000000000000000000008801227100000085000000003026820 0     201211012012090500000000055040000919796000000000938192000000000000000000000000018396050000000000  3020121105   01          2                                                                                   3948430370000009553185020389                                                  N                     01321  0000000        000060
12047190731000100DE CASTRO LOUR ENG IND LTDA                                           00000000341000000000000000000000000000008782052100000023399955903026643 0     201209202012082300000000054620000867039000000000945469000000000000000000000000078430050000000000  3020121105   01          2                                                                                   3112339995592036884500400049                                                  N                     01321  0000000        000061
12047190731000100DE CASTRO LOUR ENG IND LTDA                                           00000000341000000000000000000000000000008782052500000023399955603026636 0     201209192012082200000000054610000940804000000001027754000000000000000000000000086950050000000000  3020121105   01          2                                                                                   3112339995568036884500400049                                                  N                     01321  0000000        000062
12047190731000100DE CASTRO LOUR ENG IND LTDA                                           00000000341000000000000000000000000000008782052700000023399956203026648 0     201209202012082300000000054620000976053000000001064373000000000000000000000000088320050000000000  3020121105   01          2                                                                                   3112339995626036884500400029                                                  N                     01321  0000000        000063
12047190731000100DE CASTRO LOUREIRO ENGENHARIA                                         00000000033000000000000000000000000000008801227000000015000000003026825 0     201211012012090600000000055040001192680000000001216534000000000000000000000000023854050000000000  3020121105   01          2                                                                                   3948430370000009553215020379                                                  N                     01321  0000000        000064
12049341563000132JAC COMERCIO DE MAT ELET LTDA                                         000000003410000000000000000000000000000089697943000000246543949000023447A     201211012012100400000000055040000014736000000000014832000000000000000000000000000096050000000000  3020121105   01          2                                                                                   3112465439498018060969500069                                                  N                     01321  0000000        000065
12053585766000141MULTIACOS I C PRODS TEC LTDA                                          0000000042200000000000000000000000000000883508190000000000000000004584603     201211012012091300000000055040000339224000000000341483000000000000000000000000002259050000000000  3020121105   01          2                                                                                   3711500005033164921116535119                                                  N                     01321  0000000        000066
12053585766000141MULTIACOS I C PRODS TEC LTDA                                          0000000042200000000000000000000000000000895189450000000000000000004570003     201210302012100200000000055020000999583000000001009578000000000000000000000000009995050000000000  3020121105   01          2                                                                                   3711500005033164927761912159                                                  N                     01321  0000000        000067
12053585766000141MULTIACOS I C PRODS TEC LTDA                                          0000000042200000000000000000000000000000895189470000000000000000004565103     201210292012100200000000055010000455717000000000461036000000000000000000000000005319050000000000  3020121105   01          2                                                                                   3711500005033164927761921189                                                  N                     01321  0000000        000068
12053585766000141MULTIACOS I C PRODS TEC LTDA                                          0000000042200000000000000000000000000000895189500000000000000000004585403     201211012012100200000000055040001047733000000001054716000000000000000000000000006983050000000000  3020121105   01          2                                                                                   3711500005033164927761947119                                                  N                     01321  0000000        000069
12053585766000141MULTIACOS I C PRODS TEC LTDA                                          0000000042200000000000000000000000000000883508260000000000000000004585103     201211012012091300000000055040000222786000000000224269000000000000000000000000001483050000000000  3020121105   01          2                                                                                   3711500005033164921116578119                                                  N                     01321  0000000        000070
12053585766000141MULTIACOS I C PRODS TEC LTDA                                          0000000042200000000000000000000000000000883508300000000000000000004584803     201211012012091300000000055040000379244000000000381771000000000000000000000000002527050000000000  3020121105   01          2                                                                                   3711500005033164921116551119                                                  N                     01321  0000000        000071
12053585766000141MULTIACOS I C PRODS TEC LTDA                                          0000000042200000000000000000000000000000890456950000000000000000004650302     201210312012092500000000055030000228607000000000230511000000000000000000000000001904050000000000  3020121105   01          2                                                                                   3711500005033164925775207159                                                  N                     01321  0000000        000072
12053585766000141MULTIACOS I C PRODS TEC LTDA                                          0000000042200000000000000000000000000000890457050000000000000000004650402     201210312012092500000000055030000192957000000000194566000000000000000000000000001609050000000000  3020121105   01          2                                                                                   3711500005033164925775223129                                                  N                     01321  0000000        000073
12053585766000141MULTIACOS I C PRODS TEC LTDA                                          0000000042200000000000000000000000000000895189410000000000000000004704301     201210302012100200000000055020000994772000000001004719000000000000000000000000009947050000000000  3020121105   01          2                                                                                   3711500005033164927761823189                                                  N                     01321  0000000        000074
12053585766000141MULTIACOS I C PRODS TEC LTDA                                          0000000042200000000000000000000000000000895189430000000000000000004566103     201210292012100200000000055010001281579000000001296529000000000000000000000000014950050000000000  3020121105   01          2                                                                                   3711500005033164927761904189                                                  N                     01321  0000000        000075
12053585766000141MULTIACOS I C PRODS TEC LTDA                                          0000000042200000000000000000000000000000895189510000000000000000004695801     201210292012100200000000055010000198860000000000201176000000000000000000000000002316050000000000  3020121105   01          2                                                                                   3711500005033164927761998119                                                  N                     01321  0000000        000076
12053585766000141MULTIACOS I C PRODS TEC LTDA                                          0000000042200000000000000000000000000000895189540000000000000000004695701     201210292012100200000000055010001125322000000001138453000000000000000000000000013131050000000000  3020121105   01          2                                                                                   3711500005033164927761963199                                                  N                     01321  0000000        000077
12053585766000141MULTIACOS I C PRODS TEC LTDA                                          0000000042200000000000000000000000000000895189600000000000000000004699201     201211012012100200000000055040000534986000000000538553000000000000000000000000003567050000000000  3020121105   01          2                                                                                   3711500005033164927762056149                                                  N                     01321  0000000        000078
12053585766000141MULTIACOS I C PRODS TEC LTDA                                          0000000042200000000000000000000000000000895189620000000000000000004699101     201210292012100200000000055010000592134000000000599042000000000000000000000000006908050000000000  3020121105   01          2                                                                                   3711500005033164927762021159                                                  N                     01321  0000000        000079
12053585766000141MULTIACOS I C PRODS TEC LTDA                                          0000000042200000000000000000000000000000895189650000000000000000004699301     201210312012100200000000055030000889444000000000896853000000000000000000000000007409050000000000  3020121105   01          2                                                                                   3711500005033164927762081139                                                  N                     01321  0000000        000080
12053585766000141MULTIACOS I C PRODS TEC LTDA                                          0000000042200000000000000000000000000000895189730000000000000000004642302     201210302012100200000000055020000192957000000000194888000000000000000000000000001931050000000000  3020121105   01          2                                                                                   3711500005033164927762153179                                                  N                     01321  0000000        000081
12053585766000141MULTIACOS I C PRODS TEC LTDA                                          0000000042200000000000000000000000000000895189760000000000000000004642102     201210302012100200000000055020000244317000000000246758000000000000000000000000002441050000000000  3020121105   01          2                                                                                   3711500005033164927762170139                                                  N                     01321  0000000        000082
12053585766000141MULTIACOS COM DE PRODUTOS TECN                                        0000000023703398700000000011290 00000000888733100020226900000690004642101     201210162012090400000000054880000251722000000000260122000000000000000000000000008400050000000000  3020121105   01          2  RUA JUNO  533                                                                    3                         000000000000000                                     N                     00598  0000000        000083
12054382510000108SETENTA IND E COM DE MADEIRAS                                         0000000034100000000000000000000000000000860403430000002277814474462 A         201209042012080700000000054460000191200000000000214512000000000000000000000000023312050000000000  3020121105   01          2                                                                                   3112277814474057049175300069                                                  N                     01321  0000000        000084
12056993900000131CIA METALURGICA PRADA                                                 0000000034100000000000000000000000000000855028640000002254750300026244403     201210222012072800000000054940000084116000000000086076000000000000000000000000001960050000000000  3020121105   01          2                                                                                   3112254750303293800573900099                                                  N                     01321  0000000        000085
12056993900000131CIA METALURGICA PRADA                                                 0000000034100000000000000000000000000000855028630000002254750290026244303     201210222012072800000000054940000100683000000000103035000000000000000000000000002352050000000000  3020121105   01          2                                                                                   3112254750295293800573900049                                                  N                     01321  0000000        000086
12057398687000182MORED COMERCIO E SERVICOS LTDA                                        0000000034100000000000000000000000000000895189910000006153522805242           201210262012100400000000054980000174053000000000177473000000000000000000000000003420050000000000  3020121105   01          2                                                                                   3156153522804101144455900039                                                  N                     01321  0000000        000087
12061186847000105PERFILADOS GRANADO LTDA                                               0000000003300000000000000000000000000000897881440000008000000005 312 A        201211012012100200000000055040000108560000000000109300000000000000000000000000000740050000000000  3020121105   01          2                                                                                   3917995920000003503380010469                                                  N                     01321  0000000        000088
12061600839000155CENTRO DE INT EMPRESA ESCOLA C                                        0000000023703391P00000000866202 00000000899624890090000036546447641C 0001     201210312012101000000000055030000016800000000000017075000000000000000000000000000275050000000000  3020121105   01          2  R GANGES  528                                                                    3                         000000000000000                                     N                     00598  0000000        000089
12062944582000111AS SOLUCOES COMERCIAL LTDA                                            00000000001000000000000000000000000000009124679500000032092500017623 A        201211272012103100000000055300000048200000000000048200000000000000000000000000000000050000000000  3020121127   01FS        1                                                                                   3529483209251190000690001739                                                  N                     01321  0000000        000090
12064952757000168WALMAC COM DE PROD QUIMICOS LT                                        0000000034100000000000000000000000000000860403440000002275821690020148        201210262012080300000000054980000219266000000000223576000000000000000000000000004310050000000000  3020121105   01          2                                                                                   3112275821695064807961400019                                                  N                     01321  0000000        000091
12064952757000168WALMAC COM DE PROD QUIMICOS LT                                        0000000034100000000000000000000000000000860403450000002275821700020148        201210052012080300000000054770000219267000000000232628000000000000000000000000013361050000000000  3020121105   01          2                                                                                   3112275821703064807961400029                                                  N                     01321  0000000        000092
12064952757000168WALMAC COM DE PROD QUIMICOS LT                                        0000000034100000000000000000000000000000896979500000002462157550021611        201211012012100400000000055040000219267000000000220991000000000000000000000000001724050000000000  3020121105   01          2                                                                                   3112462157556064807961400019                                                  N                     01321  0000000        000093
12066841552000130R V SEG PATRIMONIAL S C LTDA                                          00000000341000000000000000000000000000008887329800000090002213622136          201210102012091100000000054820000374758000000000378008000000000000000000000000003250050000000000  3020121105   01          2                                                                                   3109000221365001838994000069                                                  N                     01321  0000000        000094
12066841552000130R V SEG PATRIMONIAL LTDA                                              00000000341000000000000000000000000000008852483200000090002192721927          201209102012081000000000054520000483241000000000492257000000000000000000000000009016050000000000  3020121105   01          2                                                                                   3109000219270001835253400099                                                  N                     01321  0000000        000095
12096500087000135WORKBENCH CONSULTORIA S S LTDA                                        0000000034100000000000000000000000000000912467970000007023696933218           201211272012110100000000055300000131746000000000131746000000000000000000000000000000050000000000  3020121127   01FS        1                                                                                   3157023696939826313803700019                                                  N                     01321  0000000        000096
900009700000000037838154                                                                                                                                                                                                                                                                                                                                                                                                                                                                01321  0000000        000097
