0000147602043799295000110ALTAMIRA INDUSTRIA METALURGICA LT       202000000189520121002213040             3                                                                                                  000000000000000                                                                                                                                                                                                                                                                                   000001
12005214618000178VISION GESTAO EMP E FOM MERCAN                                        0000000023700088400000000730084 I000000000009968002000880016153               201210020000000000000000054740000131300000000000131300000000000000000000000000000000010000000218  3120121002   02BW        5000000               000000000000000                                               3008802008800161530073008099               0218                               N                     01146 10020256        000002
12009441975000120SPEEDY CRED FOMENTO MERCANTIL                                         0000000023700094900000000990744 I000000000009970002013223607491               201210020000000000000000054740000069376000000000069376000000000000000000000000000000010000002868  3120121002   02BW        5000000               000000000000000                                               3009402132236074910099074019               2868/01                            N                     01146 10020256        000003
12007068566000102NIVEL EMPREGOS LTDA           AV CELSO GARCIA 3830                    0306400023700097300000003053792 I000000000009974000000000000000               201210020000000000000000000000000000000000000000200000000000000000000000000000000000030000002778  0120121002   02BW        5000000               000000000000000                                               3                                          NF.NRO.2778 - PARC.01.             N                     01321 10020256        000004
11258214076000072CELSO BERNARDO DA CRUZ E OU   R PE DONIZETE TAVARES DE LIMA 274       0240400023700092200000067722248 I000000000009975000000000000000               201210020000000000000000000000000000000000000000030000000000000000000000000000000000050000092012  0120121002   02BW        5000000               000000000000000                                               3                                          REF.SETEMBRO/2012.                 N                     01321 20020256        000005
12005151518000140BELENUS DO BRASIL LTDA                                                0000000000100000 0000000000000  I000000000009967000000000000000               201210020000000000000000054740000254544000000000254544000000000000000000000000000000010000301705  3120121002   02BW        5000000               000000000000000                                               3000000123933844037505183159               301705/01                          N                     01130 10020256        000006
12006209559000102MAZURKY IND COM EMBALAGENS LTD                                        0000000034100000 0000000000000  I000000000009969000000000000000               201210020000000000000000054740000094374000000000094374000000000000000000000000000000010000010076  3120121002   02BW        5000000               000000000000000                                               3181552316727151434240900019               010076/02                          N                     01130 10020256        000007
12005753978000148HUMAN SERV COMUN MOVEL LTDA                                           0000000034100000 0000000000000  I000000000009973000000000000000               201210030000000000000000054750000013000000000000013000000000000000000000000000000000010000100853  3120121002   02BW        5000000               000000000000000                                               3109001008539057948896600019               100853                             N                     01130 10020256        000008
12056993512000150CYKLOP DO BRASIL EMBALAG  S A                                         0000000034100000 0000000000000  I000000000009972000000000000000               201210020000000000000000054740000083914000000000083914000000000000000000000000000000010000134931  3120121002   02BW        5000000               000000000000000                                               3181553156129025738464400029               0134932                            N                     01130 10020256        000009
12069284248000128ISOCOAT TINTAS E VERNIZES LTDA                                        0000000034100000 0000000000000  I000000000009971000000000000000               201210020000000000000000054740000048458000000000048458000000000000000000000000000000010000053390  3120121002   02BW        5000000               000000000000000                                               3181553149534077430121200039               053390                             N                     01130 10020256        000010
12017469701000177ARCELORMITTAL BRASIL S A                                              0000000034100000 0000000000000  I000000000009977000000000000000               201210020000000000000000054740000064982000000000064982000000000000000000000000000000010000127881  3120121002   02BW        5000000               000000000000000                                               3109323310850293802529900039               127881/03                          N                     01130 10020256        000011
12043799295000110ALTAMIRA INDUSTRIA METAL LTDA                                         0000000003303809500000130004071 I000000000009966000000000000000               201210020000000000000000000000000000000000000003200000000000000000000000000000000000050000000001  0820121002   02BW        5001230               000000000000000                                               3D0000000101                               01                                 S                     01133 10020256        000012
12056428188000128EDVALDO SANTOS ROSA ME                                                0000000023700898200000000005622 I000000000009976009011225700666               201210020000000000000000054740000092544000000000092544000000000000000000000000000000010000194196  3120121002   02BW        5000000               000000000000000                                               3089809112257006660000562059               1949196                            N                     01146 10020256        000013
900001400000000004282492                                                                                                                                                                                    000000000000000                                                                                                                                                                                                                                                    00001200492670000852492        000014
