0000147602043799295000110ALTAMIRA INDUSTRIA METALURGICA LT       202000000606220121102024046             1                                                                                                  000000000000000                                                                                                                                                                                                                                                                                   000001
12064952757000168WALMAC COM DE PROD QUIMICOS LT                                        0000000034100000000000000000000000000000860403460000002275821710020148        201208312012080300000000000000000219267000000000245127000000000000000000000000051720050000000000003020121030   02JB        2000000                                                                             3112275821711064807961400079                                                  N                     01130 10020256        000002
12002503185000182ANDAIMES MAQUINAS BIG LTDA EPP                                        000000003410000000000000000000000000000086282613000000228719913011660         201208302012081000000000000000000012000000000000012728000000000000000000000000001216050000000000003020121030   02JB        2000000                                                                             3112287199130650303800900039                                                  N                     01130 10020256        000003
12002503185000182ANDAIMES E MAQUINAS BIG LTDA                                          000000003410000000000000000000000000000087820531000000233954448011791         201209212012082700000000000000000026000000000000027183000000000000000000000000001846050000000000003020121030   02JB        2000000                                                                             3112339544481925303435000019                                                  N                     01130 10020256        000004
900000500000000000285038                                                                                                                                                                                    000000000000000                                                                                                                                                                                                                                                    00000300000000000257267        000005
