0000147602043799295000110ALTAMIRA INDUSTRIA METALURGICA LT       202000000009620120802070413             1                                                                                                                                                                                                                                                                                                                                                                                                    000001
12000193273000108TECELAGEM ROMA LTDA                                                   0000000023700284400000000410977 000000008374605000900000001581016213   A      201207272012062900000000054070000124248000000000126486000000000000000000000000002238050000000000  3020120802   01          2  RUA TAMAINDE 1410  1410                                                          3                         000000000000000                                     N                     00598  0000000        000002
12001951865000104FOUR FACTORING FOMENTO M LTDA                                         000000004220000000000000000000000000000085607115000000000000000174            201208242012073000000000054350000310000000000000310000000000000000000000000000000000050000000000  3020120824   01FS        1                                                                                   3702000009214741498829499119                                                  N                     01321  0000000        000003
12002460454000170AUT SERVICE COMERCIO E SERVICO                                        0000000023702591700000000007692 000000008321806000902174000000333816    2     201207312012062200000000054110000234958000000000247645000000000000000000000000012687050000000000  3020120802   01          2  JUNO 533                                                                         3                         000000000000000                                     N                     00598  0000000        000004
12005151518000140BELENUS DO BRASIL LTDA                                                0000000023703389800000000015091 0000000080649184009021300000522R126248432     201207292012043000000000054090000460800000000000466884000000000000000000000000006084050000000000  3020120802   01          2  RUA GANGES  528                                                                  3                         000000000000000                                     N                     00598  0000000        000005
12006000195000156M B A MERCANTIL BRASILEIRA DE                                         0000000023700118P00000002128292 00000000854049600090212300000150008129B03     201207252012050200000000054050000630740000000000630740000000000000000000000000000000050000000000  3020120731   06          3  RUA JUNO  533                                                                    3                         000000000000000                                     N                     00598  0000000        000006
12006000195000156M B A MERCANTIL BRASILEIRA DE                                         0000000023700118P00000002128292 00000000854049620090214900000100008399B02     201207232012052800000000054030000517280000000000517280000000000000000000000000000000050000000000  3020120731   05          3  RUA JUNO  533                                                                    3                         000000000000000                                     N                     00598  0000000        000007
12008508119000181DINARI FOMENTO MERCANTIL LTDA                                         000000003990000000000000000000000000000085607128000000000000000175            201208242012072700000000054350000310000000000000310000000000000000000000000000000000050000000000  3020120824   01FS        1                                                                                   3175716373830198002280900119                                                  N                     01321  0000000        000008
12012006058000121WEG TINTAS LTDA                                                       0000000023702727800000000001309 00000000856071260090221400000830015587302     201209292012073100000000054710000459854000000000459854000000000000000000000000000000050000000000  3020121001   01FS        1  R JUNO  533                                                                      3                         000000000000000                                     N                     00598  0000000        000009
12012006058000121WEG TINTAS LTDA                                                       0000000023702727800000000001309 00000000856071270090221400000840015587303     201210142012073100000000054860000459992000000000459992000000000000000000000000000000050000000000  3020121015   01FS        1  R JUNO  533                                                                      3                         000000000000000                                     N                     00598  0000000        000010
12012006058000121WEG TINTAS LTDA                                                       0000000023702727800000000001309 00000000856071250090221400000820015587301     201209142012073100000000054560000459854000000000459854000000000000000000000000000000050000000000  3020120914   01FS        1  R JUNO  533                                                                      3                         000000000000000                                     N                     00598  0000000        000011
12012006058000121WEG TINTAS LTDA                                                       0000000023702727800000000001309 00000000828904020090217000001010014515401     201207302012061500000000054100000459854000000000461693000000000000000000000000001839050000000000  3020120802   01          2  R JUNO  533                                                                      3                         000000000000000                                     N                     00598  0000000        000012
12012006058000121WEG TINTAS LTDA                                                       0000000023702727800000000001309 00000000811374760090213800000970013814703     201207302012051600000000054100000306662000000000307886000000000000000000000000001224050000000000  3020120802   01          2  R JUNO  533                                                                      3                         000000000000000                                     N                     00598  0000000        000013
12012006058000121WEG TINTAS LTDA                                                       0000000023702727800000000001309 00000000812917760090214200000980013880203     201208012012051800000000054120000306662000000000307070000000000000000000000000000408050000000000  3020120802   01          2  R JUNO  533                                                                      3                         000000000000000                                     N                     00598  0000000        000014
12012006058000121WEG TINTAS LTDA                                                       0000000023702727800000000001309 00000000821490940090215600001070014231102     201207312012060100000000054110000459854000000000461080000000000000000000000000001226050000000000  3020120802   01          2  R JUNO  533                                                                      3                         000000000000000                                     N                     00598  0000000        000015
12012006058000121WEG TINTAS LTDA                                                       0000000023702727800000000001309 00000000827244610090216600000700014454801     201207282012061300000000054080000306569000000000308609000000000000000000000000002040050000000000  3020120802   01          2  R JUNO  533                                                                      3                         000000000000000                                     N                     00598  0000000        000016
12012256386000186TOP TRAD SERVICOS DE TEXTOS LT                                        0000000023700200300000001062603 00000000850740700090132194025562718           201207272012071200000000054070000025600000000000026520000000000000000000000000000920050000000000  3020120802   01          2  R TAMANDE 1410                                                                   3                         000000000000000                                     N                     00598  0000000        000017
12014775592000128HELIO ADRIANO DA SILVA ME                                             0000000023700593200000002432943 00000000856071290090221400000038260           201208172012073000000000054280000021500000000000021500000000000000000000000000000000050000000000  3020120817   01FS        1  AV TAMAINDE 1410                                                                 3                         000000000000000                                     N                     00598  0000000        000018
12017469701000177ARCELORMITTAL BRASIL S A                                              0000000034100000000000000000000000000000856071210000009323310840012788102     201209042012073100000000054460000063787000000000063787000000000000000000000000000000050000000000  3020120904   01FS        1                                                                                   3109323310843293802529900019                                                  N                     01321  0000000        000019
12017469701000177ARCELORMITTAL BRASIL S A                                              0000000034100000000000000000000000000000856071220000009323310850012788103     201209112012073100000000054530000063789000000000063789000000000000000000000000000000050000000000  3020120911   01FS        1                                                                                   3109323310850293802529900049                                                  N                     01321  0000000        000020
12017469701000177ARCELORMITTAL BRASIL S A                                              0000000034100000000000000000000000000000856071230000009323310830012788101     201208282012073100000000054390000063787000000000063787000000000000000000000000000000050000000000  3020120828   01FS        1                                                                                   3109323310835293802529900069                                                  N                     01321  0000000        000021
12035820448000136WHITE MARTINS GASES INDUSTRIAI                                        0000000023700026400000003937925 0000000085607119009022140004425360193 001     201208282012073100000000054390000081150000000000081150000000000000000000000000000000050000000000  3020120828   01FS        1  RUA GANGES  528                                                                  3                         000000000000000                                     N                     00598  0000000        000022
12042956441000101SOLUCOES ACO USIMINAS                                                 0000000034100000000000000000000000000000840313000000002181699170016829701     201207302012070200000000054100000643905000000000647769000000000000000000000000003864050000000000  3020120802   01          2                                                                                   3112181699177293807258000099                                                  N                     01321  0000000        000023
12042956441000101SOLUCOES ACO USIMINAS                                                 0000000034100000000000000000000000000000807142620000002012663810015853403     201208012012050800000000054120000529539000000000530598000000000000000000000000001059050000000000  3020120802   01          2                                                                                   3112012663814293807258000089                                                  N                     01321  0000000        000024
12042956441000101SOLUCOES ACO USIMINAS                                                 0000000034100000000000000000000000000000802821430000002990859480015711803     201207252012050100000000054050000247314000000000250779000000000000000000000000003960050000000000  3020120801   06          3                                                                                   3112990859483293807258000019                                                  N                     01321  0000000        000025
12044098788000196MAIAMI COM E IMP DE ROLAMENTOS                                        0000000023700503700000000367516 000000008560712000902214000000409853          201208282012073100000000054390000020440000000000020440000000000000000000000000000000050000000000  3020120828   01FS        1  RUA GANGES 528 VL CARRAO                                                         3                         000000000000000                                     N                     00598  0000000        000026
12051180370000199IGUAFER FERRO E ACO LTDA                                              0000000034100000000000000000000000000000856071170000002257772109489 A         201208282012073100000000054390000124391000000000124391000000000000000000000000000000050000000000  3020120828   01FS        1                                                                                   3112257772106077149484600029                                                  N                     01321  0000000        000027
12051180370000199IGUAFER FERRO E ACO LTDA                                              0000000034100000000000000000000000000000856071180000002257772119489 A         201209112012073100000000054530000115396000000000115396000000000000000000000000000000050000000000  3020120911   01FS        1                                                                                   3112257772114077149484600019                                                  N                     01321  0000000        000028
12053585766000141MULTIACOS INDUSTRIA E COMERCIO                                        0000000000100000000000000000000000000000856071110000000876870000004375201     201208242012073100000000054350000321300000000000321300000000000000000000000000000000050000000000  3020120824   01FS        1                                                                                   3043940876871912000139523199                                                  N                     01321  0000000        000029
12053585766000141MULTIACOS INDUSTRIA E COMERCIO                                        0000000000100000000000000000000000000000856071120000000876200000004294602     201208212012073100000000054320000407138000000000407138000000000000000000000000000000050000000000  3020120821   01FS        1                                                                                   3043940876201912000139523119                                                  N                     01321  0000000        000030
12053585766000141MULTIACOS INDUSTRIA E COMERCIO                                        0000000000100000000000000000000000000000856071130000000876710000004360701     201208212012073100000000054320001237648000000001237648000000000000000000000000000000050000000000  3020120821   01FS        1                                                                                   3043940876711912000139523149                                                  N                     01321  0000000        000031
12053585766000141MULTIACOS INDUSTRIA E COMERCIO                                        0000000000100000000000000000000000000000856071140000000876860000004375101     201208232012073100000000054340000499086000000000499086000000000000000000000000000000050000000000  3020120823   01FS        1                                                                                   3043940876861912000139523139                                                  N                     01321  0000000        000032
12056993900000131CIA METALURGICA PRADA                                                 0000000034100000000000000000000000000000820562250000002080193650024478302     201207252012053000000000054050000288294000000000288774000000000000000000000000000960050000000000  3020120726   06          3                                                                                   3112080193652293800573900049                                                  N                     01321  0000000        000033
12056993900000131CIA METALURGICA PRADA                                                 0000000034100000000000000000000000000000820562280000002080193660024499402     201207252012053000000000054050000597722000000000604694000000000000000000000000007968050000000000  3020120801   06          3                                                                                   3112080193660293800573900059                                                  N                     01321  0000000        000034
12056993900000131CIA METALURGICA PRADA                                                 0000000034100000000000000000000000000000820562290000002080193670024499502     201207252012053000000000054050000236586000000000239344000000000000000000000000003152050000000000  3020120801   06          3                                                                                   3112080193678293800573900099                                                  N                     01321  0000000        000035
12057158057000130COMERCIAL ELETRICA PJ LTDA                                            0000000023703394400000000972983 00000000842436850090219200008900000305028     201208012012070400000000054120000079196000000000079459000000000000000000000000000263050000000000  3020120802   01          2  R TAMAINDE 1410                                                                  3                         000000000000000                                     N                     00598  0000000        000036
12060830544000102TORRES GALVANIZACAO A FOGO LTD                                        0000000023702531300000000105007 0000000085607124009013221401636007073         201208212012072400000000054320000064800000000000064800000000000000000000000000000000050000000000  3020120821   01FS        1  RUA GANGES  528                                                                  3                         000000000000000                                     N                     00598  0000000        000037
12062340989000130EDICOES ADUANEIRAS LTDA                                               0000000023703090200000000015660 0000000079108230009080000035028004262 B       201207302012041100000000054100000043600000000000043816000000000000000000000000000216050000000000  3020120802   01          2  RUA TAMAINDE 1410 RUA GANGES 520 E 528                                           3                         000000000000000                                     N                     00598  0000000        000038
12069034668000156SODEXO PASS BRASIL SERV COM SA                                        0000000034100000000000000000000000000000851529170000009216525541200009206     201208222012072300000000054330000417750000000000417750000000000000000000000000000000050000000000  3020120822   06          3                                                                                   3109216525549293801455800089                                                  N                     01321  0000000        000039
12071580302000124SANCHEPEL IND PAULISTA EMB L                                          0000000034100000000000000000000000000000856071160000002255716067346           201208292012073100000000054400000198375000000000198375000000000000000000000000000000050000000000  3020120829   01FS        1                                                                                   3112255716063007855578600019                                                  N                     01321  0000000        000040
12075483040000130REX MAQUINAS E EQUIPAMENTOS LT                                        0000000023702656500000000000701 000000008280180500202167000043473762 2 2      201208012012060600000000054120000434000000000000434723000000000000000000000000000723050000000000  3020120802   01          2  RUA  GANGES  528                                                                 3                         000000000000000                                     N                     00598  0000000        000041
12092693118000160BRADESCO SAUDE S A                                                    0000000023700448000000001533991 00000000829780050050100702629130000000000     201207202012061800000000054000000645861000000000651269000000000000000000000000005408050000000000  3020120802   01          2                                                                                   3                         000000000000000                                     N                     00598  0000000        000042
900004300000000013333155                                                                                                                                                                                                                                                                                                                                                                                                                                                                00598  0000000        000043
