0000147602043799295000110ALTAMIRA INDUSTRIA METALURGICA LT       202000000013820121002063547             1                                                                                                                                                                                                                                                                                                                                                                                                    000001
12001852612000175BT EQUIPAMENTOS INDUSTRIAIS LT                                        000000000330000000000000000000000000000087577366000000610000000594061         201210012012090600000000054730000041502000000000041627000000000000000000000000000125050000000000  3020121002   01          2                                                                                   3913651000000000594061010479                                                  N                     01321  0000000        000002
12001895314000162COLETA INDUSTRIAL FIMAVAN LTDA                                        00000000341000000000000000000000000000008844324600000090023445310405          201209272012091700000000054690000158141000000000163409000000000000000000000000005268050000000000  3020121002   01          2                                                                                   3109002344538144604097200029                                                  N                     01321  0000000        000003
12002460454000170AUT SERVICE COMERCIO E SERVICO                                        0000000023702591700000000007692 000000008515292000901322060028234532 2        201209172012072400000000054590000238750000000000257857000000000000000000000000019107050000000000  3020121002   01          2  RUA JUNO  533                                                                    3                         000000000000000                                     N                     00598  0000000        000004
12002469103000120COMPROCRED FOMENTO MERCANTIL L                                        0000000023703511400000000106739 0000000088012259002022550000043022145 12      201210012012090500000000054730000093000000000000093310000000000000000000000000000310050000000000  3020121002   01          2  RUA TAMAINDE 1410 VILA NOVA MANCH SAO PATRANSPORTADORA FIOROT LTDA               3                         000252984000106                                     N                     00598  0000000        000005
12002503185000182ANDAIMES E MAQUINAS BIG LTDA                                          000000003410000000000000000000000000000087820531000000233954448011791         201209212012082700000000054630000026000000000000026707000000000000000000000000000707050000000000  3020121002   01          2                                                                                   3112339544481925303435000019                                                  N                     01321  0000000        000006
12003163055000100JN FOMENTO MERCANTIL LTDA                                             000000004220000000000000000000000000000089229252000000000000000944 12         201210232012092700000000054950000095000000000000095000000000000000000000000000000000050000000000  3020121023   01FS        1                                                                                   3702200002006382926631195159                                                  N                     01321  0000000        000007
12003489596000123BEND FLEX I COMERCIO LTDA                                             000000003410000000000000000000000000000089229254000000797746331637            201210292012100100000000055010000110000000000000110000000000000000000000000000000000050000000000  3020121029   01FS        1                                                                                   3157977463310157734445800099                                                  N                     01321  0000000        000008
12003489596000123BEND FLEX I COMERCIO LTDA                                             000000003410000000000000000000000000000088350832000000171879874608            201209122012082100000000054540000695250000000000722590000000000000000000000000027340050000000000  3020121002   01          2                                                                                   3191718798744157734445800069                                                  N                     01321  0000000        000009
12003489596000123BEND FLEX I COMERCIO LTDA                                             000000003410000000000000000000000000000088957854000000172413968615            201209212012082300000000054630000582750000000000595356000000000000000000000000012606050000000000  3020121002   01          2                                                                                   3191724139685157734445800049                                                  N                     01321  0000000        000010
12003489596000123BEND FLEX I COMERCIO LTDA                                             000000003410000000000000000000000000000088599899000000171434574613            201209172012081600000000054590000585000000000000602265000000000000000000000000017265050000000000  3020121002   01          2                                                                                   3191714345748157734445800019                                                  N                     01321  0000000        000011
12003489596000123BEND FLEX I COMERCIO LTDA                                             000000003410000000000000000000000000000086961105000000792607528615            201209212012082300000000054630000582750000000000597843000000000000000000000000016239050000000000  3020120924   05          3                                                                                   3157926075280157734445800069                                                  N                     01321  0000000        000012
12005214618000178VISION GESTAO EMP E FOM MERCAN                                        0000000023700088400000000730084 0000000087820601002000880016153000218         201209272012090300000000054690000130000000000000131300000000000000000000000000001300050000000000  3020121002   01          2  RUA TAMAINDE  1410  VILA NOVA MANCHESTERCORREA MONTAGENS INDUSTRIAIS LTDA   EPP  3                         012711129000197                                     N                     00598  0000000        000013
12005335228000156DINAMICA INF E TELECOM LTDA EP                                        0000000023703257300000000503215 0000000088443245009032570017396MO008960A      201209302012091700000000054720000020000000000000020134000000000000000000000000000134050000000000  3020121002   01          2  RUA JUNO  533                                                                    3                         000000000000000                                     N                     00598  0000000        000014
12005852768000107DAOUD LEAL ELETRONICA LTDA ME                                         00000000033000000000000000000000000000008757736700000021000000000000000001097 201209262012090500000000054680000016558000000000017219000000000000000000000000000661050000000000  3020121002   01          2                                                                                   3949927090000000027421010429                                                  N                     01321  0000000        000015
12006000195000156MBA MERCANTIL BRAS DE ACO LTDA                                        0000000034100000000000000000000000000000885998980000001667238420008870B02     201209112012071600000000054530000839952000000000874644000000000000000000000000034692050000000000  3020121002   01          2                                                                                   3191667238429064849251000039                                                  N                     01321  0000000        000016
12006000195000156MBA MERCANTIL BRAS DE ACO LTDA                                        0000000034100000000000000000000000000000886866570000001667238410008874B02     201209132012071600000000054550000802826000000000832827000000000000000000000000030001050000000000  3020121002   01          2                                                                                   3191667238411064849251000049                                                  N                     01321  0000000        000017
12006000195000156MBA MERCL BRASILEIRA ACO LTDA                                         0000000042200000000000000000000000000000859590590000000000000000009051B02     201209262012080300000000054680000180457000000000182262000000000000000000000000001805050000000000  3020121002   01          2                                                                                   3701600007451936910173842159                                                  N                     01321  0000000        000018
12006000195000156MBA MERCANTIL BRAS DE ACO LTDA                                        0000000034100000000000000000000000000000887698080000001667238400008876B02     201209142012071600000000054560000810321000000000839013000000000000000000000000028692050000000000  3020121002   01          2                                                                                   3191667238403064849251000059                                                  N                     01321  0000000        000019
12006000195000156M B A MERCANTIL BRASILEIRA DE                                         0000000000100000000000000000000000000000841061000000008760980000008769B03     201209282012070500000000054700000623994000000000628154000000000000000000000000004160050000000000  3020121002   01          2                                                                                   3043878760983333000105251189                                                  N                     01321  0000000        000020
12006000195000156MBA MERCANTIL BRAS DE ACO LTDA                                        0000000034100000000000000000000000000000887698090000001671394550008925B02     201209142012071700000000054560000719581000000000745051000000000000000000000000025470050000000000  3020121002   01          2                                                                                   3191671394556064849251000089                                                  N                     01321  0000000        000021
12006000195000156MBA MERCANTIL BRAS DE ACO LTDA                                        0000000034100000000000000000000000000000887698100000001671394560008926B02     201209142012071700000000054560000387716000000000401450000000000000000000000000013734050000000000  3020121002   01          2                                                                                   3191671394564064849251000019                                                  N                     01321  0000000        000022
12006000195000156MBA MERCANTIL BRAS DE ACO LTDA                                        0000000034100000000000000000000000000000889578520000001671394540008920B02     201209162012071700000000054580000576585000000000594729000000000000000000000000018144050000000000  3020121002   01          2                                                                                   3191671394549064849251000099                                                  N                     01321  0000000        000023
12006000195000156M B A MERCANTIL BRASILEIRA DE                                         0000000000100000000000000000000000000000855028910000007952930000009010B02     201209272012073000000000054690000275046000000000277336000000000000000000000000002290050000000000  3020121002   01          2                                                                                   3043937952933333000105251119                                                  N                     01321  0000000        000024
12006000195000156M B A MERCANTIL BRASILEIRA DE                                         0000000000100000000000000000000000000000855028930000007952900000009007B02     201209262012073000000000054680000428087000000000432365000000000000000000000000004278050000000000  3020121002   01          2                                                                                   3043937952903333000105251119                                                  N                     01321  0000000        000025
12006000195000156M B A MERCANTIL BRASILEIRA DE                                         0000000023700118P00000002130599 00000000865388280020222900000490009205B01     201209142012081500000000054560000401309000000000404654000000000000000000000000004014050000000000  3020120919   06          3  RUA JUNO  533                                                                    3                         000000000000000                                     N                     00598  0000000        000026
12006000195000156M B A MERCANTIL BRASILEIRA DE                                         0000000000100000000000000000000000000000834820190000002571510000008651B03     201209182012062600000000054600000426599000000000430865000000000000000000000000004977050000000000  3020120924   05          3                                                                                   3043852571513333000105251119                                                  N                     01321  0000000        000027
12007175725000160WEG EQUIPAMENTOS ELETRICOS SA                                         0000000023702727800000000196800 00000000832180610090217400004980095359902     201209202012052300000000054620000272787000000000277143000000000000000000000000004356050000000000  3020121002   01          2  R JUNO  533                                                                      3                         000000000000000                                     N                     00598  0000000        000028
12009043000000143GERSON D DA SILVA SEGURANCA DO                                        000000003990000000000000000000000000000089229255000000000000000390 5          201210102012100100000000054820000060000000000000060000000000000000000000000000000000050000000000  3020121010   01FS        1                                                                                   3304770037090477000087000199                                                  N                     01321  0000000        000029
12009137729000189MULTI RECEBIVEIS II FUNDO DE I                                        0000000023703369300000000044253 000000008685926400902236000000813649 2        201209272012081600000000054690000114374000000000116279000000000000000000000000001905050000000000  3020121002   01          2  R TAMANDE 1410                          ANHEMBI INDUSTRIA DE CAIXAS DE PAPELAO O 3                         043292101000196                                     N                     00598  0000000        000030
12009259079000144SAFRA COMERCIAL DE PAPEIS LTDA                                        00000000033000000000000000000000000000008922925900000037000000000139788       201210272012092800000000054990000040736000000000040736000000000000000000000000000000050000000000  3020121029   01FS        1                                                                                   3918361880000000337637010449                                                  N                     01321  0000000        000031
12009441975000120SPEEDY CRED FOMENTO MERCANTIL                                         0000000023700094900000000990744 00000000869071000020132236074912868 AA        201209182012082300000000054600000064000000000000069376000000000000000000000000005376050000000000  3020121002   01          2  RUA TAMAINDE 1410                       MACKVEN MAQUINAS INDUSTRIAIS LTDA EPP    3                         005441222000163                                     N                     00598  0000000        000032
12012006058000121WEG TINTAS LTDA                                                       0000000023702727800000000001309 00000000842436840090219200000860015068803     201209222012070900000000054640000306662000000000310742000000000000000000000000004080050000000000  3020121002   01          2  R JUNO  533                                                                      3                         000000000000000                                     N                     00598  0000000        000033
12012006058000121WEG TINTAS LTDA                                                       0000000023702727800000000001309 00000000854049540090221200001000015513001     201209102012072700000000054520000459854000000000473340000000000000000000000000013486050000000000  3020121002   01          2  R JUNO  533                                                                      3                         000000000000000                                     N                     00598  0000000        000034
12012006058000121WEG TINTAS LTDA                                                       0000000023702727800000000001309 00000000854049550090221200001010015513002     201209252012072700000000054670000459854000000000464145000000000000000000000000004291050000000000  3020121002   01          2  R JUNO  533                                                                      3                         000000000000000                                     N                     00598  0000000        000035
12012006058000121WEG TINTAS LTDA                                                       0000000023702727800000000001309 00000000856071250090221400000820015587301     201209142012073100000000054560000459854000000000470888000000000000000000000000011034050000000000  3020121002   01          2  R JUNO  533                                                                      3                         000000000000000                                     N                     00598  0000000        000036
12012006058000121WEG TINTAS LTDA                                                       0000000023702727800000000001309 00000000856071260090221400000830015587302     201209292012073100000000054710000459854000000000461693000000000000000000000000001839050000000000  3020121002   01          2  R JUNO  533                                                                      3                         000000000000000                                     N                     00598  0000000        000037
12012006058000121WEG TINTAS LTDA                                                       0000000023702727800000000001309 00000000834820640090217900000760014773903     201209092012062600000000054510000306662000000000316046000000000000000000000000009384050000000000  3020121002   01          2  R JUNO  533                                                                      3                         000000000000000                                     N                     00598  0000000        000038
12012006058000121WEG TINTAS LTDA                                                       0000000023702727800000000001309 00000000841061130090218800000850014990203     201209182012070500000000054600000306662000000000312374000000000000000000000000005712050000000000  3020121002   01          2  R JUNO  533                                                                      3                         000000000000000                                     N                     00598  0000000        000039
12012006058000121WEG TINTAS LTDA                                                       0000000023702727800000000001309 00000000844839230090219500000720015168702     201209102012071200000000054520000306569000000000315545000000000000000000000000008976050000000000  3020121002   01          2  R JUNO  533                                                                      3                         000000000000000                                     N                     00598  0000000        000040
12012006058000121WEG TINTAS LTDA                                                       0000000023702727800000000001309 00000000844839240090219500000730015168703     201209252012071200000000054670000306662000000000309518000000000000000000000000002856050000000000  3020121002   01          2  R JUNO  533                                                                      3                         000000000000000                                     N                     00598  0000000        000041
12012006058000121WEG TINTAS LTDA                                                       0000000023702727800000000001309 00000000847452150090220000000920015248102     201209152012071700000000054570000306569000000000313505000000000000000000000000006936050000000000  3020121002   01          2  R JUNO  533                                                                      3                         000000000000000                                     N                     00598  0000000        000042
12012006058000121WEG TINTAS LTDA                                                       0000000023702727800000000001309 00000000847452160090220000000930015248103     201209302012071700000000054720000306662000000000307478000000000000000000000000000816050000000000  3020121002   01          2  R JUNO  533                                                                      3                         000000000000000                                     N                     00598  0000000        000043
12012006058000121WEG TINTAS LTDA                                                       0000000023702727800000000001309 00000000849855330090220500001210015343102     201209182012072000000000054600000306569000000000312281000000000000000000000000005712050000000000  3020121002   01          2  R JUNO  533                                                                      3                         000000000000000                                     N                     00598  0000000        000044
12012006058000121WEG TINTAS LTDA                                                       0000000023702727800000000001309 00000000861207260090222200000900015775001     201209222012080800000000054640000306569000000000310649000000000000000000000000004080050000000000  3020121002   01          2  R JUNO  533                                                                      3                         000000000000000                                     N                     00598  0000000        000045
12012006058000121WEG TINTAS LTDA                                                       0000000023702727800000000001309 00000000864554440090222800000730015908401     201209282012081400000000054700000306569000000000308201000000000000000000000000001632050000000000  3020121002   01          2  R JUNO  533                                                                      3                         000000000000000                                     N                     00598  0000000        000046
12014309992000148WEG DRIVES   CONTROLS   AUTOMA                                        0000000023702727800000000001872 00000000828904050090217000002200005763302     201209152012051800000000054570000272992000000000279163000000000000000000000000006171050000000000  3020121002   01          2  R JUNO  533                                                                      3                         000000000000000                                     N                     00598  0000000        000047
12014775592000128HELIO ADRIANO DA SILVA ME                                             0000000003300000000000000000000000000000880122770000004900000008565 8566      201209282012091000000000054700000034500000000000035281000000000000000000000000000781050000000000  3020121002   01          2                                                                                   3956114740000000000049010129                                                  N                     01321  0000000        000048
12033325184001786ALSCO TOALHEIRO BRASIL                                                0000000023703396000000001490850 0000000087820607009000002716505VM27165        201209262012090600000000054680000045665000000000045941000000000000000000000000000276050000000000  3020121002   01          2  RUA  GANGES 528                                                                  3                         000000000000000                                     N                     00598  0000000        000049
12034028316000103ECT DEGER   DR 74 SPI                                                 0000000000100000000000000000000000000000892292530000003250580009909017438     201210112012092800000000054830000049970000000000049970000000000000000000000000000000050000000000  3020121011   01FS        1                                                                                   3000000212652700003250581779                                                  N                     01321  0000000        000050
12035820448000136WHITE MARTINS GASES INDUSTRIAI                                        0000000023700026400000003937925 0000000086907101009022370010705372273 001     201209202012082400000000054620000017600000000000018228000000000000000000000000000628050000000000  3020121002   01          2  RUA GANGES  528                                                                  3                         000000000000000                                     N                     00598  0000000        000051
12035820448000136WHITE MARTINS GASES INDUSTRIAI                                        0000000023700026400000003937925 0000000086907102009022370011747372774 001     201209202012082400000000054620000040575000000000042034000000000000000000000000001459050000000000  3020121002   01          2  RUA GANGES  528                                                                  3                         000000000000000                                     N                     00598  0000000        000052
12035820448000136WHITE MARTINS GASES INDUSTRIAI                                        0000000023700026400000003937925 0000000087067052009022420002594374120 001     201209252012082900000000054670000113610000000000116939000000000000000000000000003329050000000000  3020121002   01          2  RUA GANGES  528                                                                  3                         000000000000000                                     N                     00598  0000000        000053
12035820448000136WHITE MARTINS GASES INDUSTRIAI                                        0000000023700026400000003937925 0000000086538817009022290001168366855 001     201209112012081600000000054530000121725000000000127561000000000000000000000000005836050000000000  3020121002   01          2  RUA GANGES  528                                                                  3                         000000000000000                                     N                     00598  0000000        000054
12035820448000136WHITE MARTINS GASES INDUSTRIAI                                        0000000023700026400000003937925 0000000086699210009022330000393368126 001     201209142012081800000000054560000162300000000000169434000000000000000000000000007134050000000000  3020121002   01          2  RUA GANGES  528                                                                  3                         000000000000000                                     N                     00598  0000000        000055
12035820448000136WHITE MARTINS GASES INDUSTRIAI                                        0000000023700026400000003937925 0000000086812633009022350001453369229 001     201209182012082200000000054600000056805000000000059005000000000000000000000000002200050000000000  3020121002   01          2  RUA GANGES  528                                                                  3                         000000000000000                                     N                     00598  0000000        000056
12035820448000136WHITE MARTINS GASES INDUSTRIAI                                        0000000023700026400000003937925 0000000087168275009022440000143375351 001     201209272012083100000000054690000040575000000000041656000000000000000000000000001081050000000000  3020121002   01          2  RUA GANGES  528                                                                  3                         000000000000000                                     N                     00598  0000000        000057
12042956441000101SOLUCOES ACO USIMINAS                                                 0000000034100000000000000000000000000000841725550000002188168630016859503     201209262012070400000000054680000234336000000000237150000000000000000000000000002814050000000000  3020121002   01          2                                                                                   3112188168630293807258000089                                                  N                     01321  0000000        000058
12042956441000101SOLUCOES ACO USIMINAS                                                 0000000034100000000000000000000000000000855028670000002254329360017200402     201209202012072600000000054620000163224000000000167136000000000000000000000000003912050000000000  3020121002   01          2                                                                                   3112254329363293807258000069                                                  N                     01321  0000000        000059
12042956441000101SOLUCOES ACO USIMINAS                                                 0000000034100000000000000000000000000000855028680000002254329370017202402     201209202012072600000000054620000244136000000000249992000000000000000000000000005856050000000000  3020121002   01          2                                                                                   3112254329371293807258000079                                                  N                     01321  0000000        000060
12042956441000101SOLUCOES ACO USIMINAS                                                 0000000034100000000000000000000000000000855028690000002254329380017212902     201209212012072600000000054630000140098000000000143178000000000000000000000000003080050000000000  3020121002   01          2                                                                                   3112254329389293807258000019                                                  N                     01321  0000000        000061
12042956441000101SOLUCOES ACO USIMINAS                                                 0000000034100000000000000000000000000000855028700000002254329390017213002     201209212012072600000000054630000140602000000000143693000000000000000000000000003091050000000000  3020121002   01          2                                                                                   3112254329397293807258000089                                                  N                     01321  0000000        000062
12042956441000101SOLUCOES ACO USIMINAS                                                 0000000034100000000000000000000000000000855028720000002254329340017200202     201209202012072600000000054620000680385000000000696717000000000000000000000000016332050000000000  3020121002   01          2                                                                                   3112254329348293807258000079                                                  N                     01321  0000000        000063
12042956441000101SOLUCOES ACO USIMINAS                                                 0000000034100000000000000000000000000000855028730000002254329350017200302     201209202012072600000000054620000156896000000000160664000000000000000000000000003768050000000000  3020121002   01          2                                                                                   3112254329355293807258000029                                                  N                     01321  0000000        000064
12042956441000101SOLUCOES ACO USIMINAS                                                 0000000034100000000000000000000000000000855028770000002254329400017220502     201209212012072700000000054630000981022000000001002604000000000000000000000000021582050000000000  3020121002   01          2                                                                                   3112254329405293807258000099                                                  N                     01321  0000000        000065
12042956441000101SOLUCOES ACO USIMINAS                                                 0000000034100000000000000000000000000000853154830000002246247020017196602     201209202012072500000000054620000804808000000000824128000000000000000000000000019320050000000000  3020121002   01          2                                                                                   3112246247020293807258000089                                                  N                     01321  0000000        000066
12042956441000101SOLUCOES ACO USIMINAS                                                 0000000034100000000000000000000000000000836417910000002164218370016738103     201209192012062700000000054610000830173000000000851753000000000000000000000000021580050000000000  3020121002   01          2                                                                                   3112164218375293807258000039                                                  N                     01321  0000000        000067
12042956441000101SOLUCOES ACO USIMINAS                                                 0000000034100000000000000000000000000000856906410000002262886280017266201     201208282012073000000000054390000119472000000000127837000000000000000000000000008365050000000000  3020121002   01          2                                                                                   3112262886289293807258000089                                                  N                     01321  0000000        000068
12042956441000101SOLUCOES ACO USIMINAS                                                 0000000034100000000000000000000000000000853154840000002246247030017196702     201209202012072500000000054620000234841000000000240481000000000000000000000000005640050000000000  3020121002   01          2                                                                                   3112246247038293807258000099                                                  N                     01321  0000000        000069
12042956441000101SOLUCOES ACO USIMINAS                                                 0000000034100000000000000000000000000000853154850000002246247040017197302     201209202012072500000000054620000970103000000000993383000000000000000000000000023280050000000000  3020121002   01          2                                                                                   3112246247046293807258000019                                                  N                     01321  0000000        000070
12042956441000101SOLUCOES ACO USIMINAS                                                 0000000034100000000000000000000000000000841725560000002188168640016884803     201209272012070500000000054690000120612000000000121817000000000000000000000000001205050000000000  3020121002   01          2                                                                                   3112188168648293807258000059                                                  N                     01321  0000000        000071
12042956441000101SOLUCOES ACO USIMINAS                                                 0000000034100000000000000000000000000000841725570000002188168690016891503     201209272012070500000000054690001128343000000001139628000000000000000000000000011285050000000000  3020121002   01          2                                                                                   3112188168697293807258000039                                                  N                     01321  0000000        000072
12042956441000101SOLUCOES ACO USIMINAS                                                 0000000034100000000000000000000000000000841725580000002188168650016884903     201209272012070500000000054690000531835000000000537155000000000000000000000000005320050000000000  3020121002   01          2                                                                                   3112188168655293807258000019                                                  N                     01321  0000000        000073
12042956441000101SOLUCOES ACO USIMINAS                                                 0000000034100000000000000000000000000000846595700000002210880280016980502     201209102012071200000000054520000156071000000000162935000000000000000000000000006864050000000000  3020121002   01          2                                                                                   3112210880285293807258000039                                                  N                     01321  0000000        000074
12042956441000101SOLUCOES ACO USIMINAS                                                 0000000034100000000000000000000000000000846595710000002210880290016980602     201209102012071200000000054520000426094000000000444838000000000000000000000000018744050000000000  3020121002   01          2                                                                                   3112210880293293807258000019                                                  N                     01321  0000000        000075
12042956441000101SOLUCOES ACO USIMINAS                                                 0000000034100000000000000000000000000000841725590000002188168660016885103     201209272012070500000000054690000219722000000000221917000000000000000000000000002195050000000000  3020121002   01          2                                                                                   3112188168663293807258000049                                                  N                     01321  0000000        000076
12042956441000101SOLUCOES ACO USIMINAS                                                 0000000034100000000000000000000000000000859590620000002274469790017353702     201209282012080300000000054700000081053000000000081701000000000000000000000000000648050000000000  3020121002   01          2                                                                                   3112274469793293807258000069                                                  N                     01321  0000000        000077
12042956441000101SOLUCOES ACO USIMINAS                                                 0000000034100000000000000000000000000000859590630000002274469800017353802     201209282012080300000000054700000166998000000000168334000000000000000000000000001336050000000000  3020121002   01          2                                                                                   3112274469801293807258000059                                                  N                     01321  0000000        000078
12042956441000101SOLUCOES ACO USIMINAS                                                 0000000034100000000000000000000000000000856906420000002262886290017266301     201208282012073000000000054390000145069000000000155219000000000000000000000000010150050000000000  3020121002   01          2                                                                                   3112262886297293807258000099                                                  N                     01321  0000000        000079
12042956441000101SOLUCOES ACO USIMINAS                                                 0000000034100000000000000000000000000000856906430000002262886300017266202     201209252012073000000000054670000119436000000000121109000000000000000000000000001673050000000000  3020121002   01          2                                                                                   3112262886305293807258000019                                                  N                     01321  0000000        000080
12042956441000101SOLUCOES ACO USIMINAS                                                 0000000034100000000000000000000000000000856906440000002262886310017266302     201209252012073000000000054670000145025000000000147055000000000000000000000000002030050000000000  3020121002   01          2                                                                                   3112262886313293807258000029                                                  N                     01321  0000000        000081
12042956441000101SOLUCOES ACO USIMINAS                                                 0000000034100000000000000000000000000000858616390000002271409750017315102     201209272012080200000000054690000579374000000000585169000000000000000000000000005795050000000000  3020121002   01          2                                                                                   3112271409750293807258000019                                                  N                     01321  0000000        000082
12042956441000101SOLUCOES ACO USIMINAS                                                 0000000034100000000000000000000000000000858616400000002271409760017316002     201209272012080200000000054690000929451000000000938746000000000000000000000000009295050000000000  3020121002   01          2                                                                                   3112271409768293807258000079                                                  N                     01321  0000000        000083
12042956441000101SOLUCOES ACO USIMINAS                                                 0000000034100000000000000000000000000000858616410000002271409770017319302     201209272012080200000000054690000981526000000000991341000000000000000000000000009815050000000000  3020121002   01          2                                                                                   3112271409776293807258000019                                                  N                     01321  0000000        000084
12042956441000101SOLUCOES ACO USIMINAS                                                 0000000034100000000000000000000000000000858616420000002271409780017319402     201209272012080200000000054690000178902000000000180692000000000000000000000000001790050000000000  3020121002   01          2                                                                                   3112271409784293807258000029                                                  N                     01321  0000000        000085
12042956441000101SOLUCOES ACO USIMINAS                                                 0000000034100000000000000000000000000000858616430000002271409790017319502     201209272012080200000000054690000197380000000000199355000000000000000000000000001975050000000000  3020121002   01          2                                                                                   3112271409792293807258000049                                                  N                     01321  0000000        000086
12042956441000101SOLUCOES ACO USIMINAS                                                 0000000034100000000000000000000000000000858616440000002271409800017319602     201209272012080200000000054690000197044000000000199014000000000000000000000000001970050000000000  3020121002   01          2                                                                                   3112271409800293807258000019                                                  N                     01321  0000000        000087
12042956441000101SOLUCOES ACO USIMINAS                                                 0000000034100000000000000000000000000000858616450000002271409810017319702     201209272012080200000000054690000197212000000000199182000000000000000000000000001970050000000000  3020121002   01          2                                                                                   3112271409818293807258000019                                                  N                     01321  0000000        000088
12042956441000101SOLUCOES ACO USIMINAS                                                 0000000034100000000000000000000000000000858616460000002271409820017319802     201209272012080200000000054690000194525000000000196470000000000000000000000000001945050000000000  3020121002   01          2                                                                                   3112271409826293807258000079                                                  N                     01321  0000000        000089
12042956441000101SOLUCOES ACO USIMINAS                                                 0000000034100000000000000000000000000000841725600000002188168670016891203     201209272012070500000000054690001132542000000001143867000000000000000000000000011325050000000000  3020121002   01          2                                                                                   3112188168671293807258000069                                                  N                     01321  0000000        000090
12042956441000101SOLUCOES ACO USIMINAS                                                 0000000034100000000000000000000000000000848180700000002220192900017041002     201209112012071700000000054530000155433000000000161964000000000000000000000000006531050000000000  3020121002   01          2                                                                                   3112220192903293807258000029                                                  N                     01321  0000000        000091
12042956441000101SOLUCOES ACO USIMINAS                                                 0000000034100000000000000000000000000000848180710000002220192910017041202     201209112012071700000000054530000205421000000000214052000000000000000000000000008631050000000000  3020121002   01          2                                                                                   3112220192911293807258000019                                                  N                     01321  0000000        000092
12042956441000101SOLUCOES ACO USIMINAS                                                 0000000034100000000000000000000000000000850740460000002233586800017127201     201208202012072000000000054310000137881000000000149749000000000000000000000000011868050000000000  3020121002   01          2                                                                                   3112233586802293807258000019                                                  N                     01321  0000000        000093
12042956441000101SOLUCOES ACO USIMINAS                                                 0000000034100000000000000000000000000000850740470000002233586810017101002     201209142012071900000000054560000732575000000000758945000000000000000000000000026370050000000000  3020121002   01          2                                                                                   3112233586810293807258000019                                                  N                     01321  0000000        000094
12042956441000101SOLUCOES ACO USIMINAS                                                 0000000034100000000000000000000000000000850740480000002233586820017101202     201209142012071900000000054560000144634000000000149836000000000000000000000000005202050000000000  3020121002   01          2                                                                                   3112233586828293807258000029                                                  N                     01321  0000000        000095
12042956441000101SOLUCOES ACO USIMINAS                                                 0000000034100000000000000000000000000000850740490000002233586830017126902     201209172012072000000000054590000208392000000000214647000000000000000000000000006255050000000000  3020121002   01          2                                                                                   3112233586836293807258000089                                                  N                     01321  0000000        000096
12042956441000101SOLUCOES ACO USIMINAS                                                 0000000034100000000000000000000000000000850740500000002233586840017127002     201209172012072000000000054590000190428000000000196143000000000000000000000000005715050000000000  3020121002   01          2                                                                                   3112233586844293807258000019                                                  N                     01321  0000000        000097
12042956441000101SOLUCOES ACO USIMINAS                                                 0000000034100000000000000000000000000000850740510000002233586850017127102     201209172012072000000000054590000167727000000000172752000000000000000000000000005025050000000000  3020121002   01          2                                                                                   3112233586851293807258000039                                                  N                     01321  0000000        000098
12042956441000101SOLUCOES ACO USIMINAS                                                 0000000034100000000000000000000000000000840313040000002181699250016829703     201209242012070200000000054660000643711000000000654007000000000000000000000000010296050000000000  3020121002   01          2                                                                                   3112181699250293807258000019                                                  N                     01321  0000000        000099
12042956441000101SOLUCOES ACO USIMINAS                                                 0000000034100000000000000000000000000000840313050000002181699260016829803     201209242012070200000000054660000322527000000000327687000000000000000000000000005160050000000000  3020121002   01          2                                                                                   3112181699268293807258000029                                                  N                     01321  0000000        000100
12042956441000101SOLUCOES ACO USIMINAS                                                 0000000034100000000000000000000000000000840313080000002181699230016814403     201209242012070200000000054660000968423000000000983919000000000000000000000000015496050000000000  3020121002   01          2                                                                                   3112181699235293807258000079                                                  N                     01321  0000000        000101
12042956441000101SOLUCOES ACO USIMINAS                                                 0000000034100000000000000000000000000000840313090000002181699240016827103     201209242012070200000000054660000703009000000000714257000000000000000000000000011248050000000000  3020121002   01          2                                                                                   3112181699243293807258000019                                                  N                     01321  0000000        000102
12042956441000101SOLUCOES ACO USIMINAS                                                 0000000034100000000000000000000000000000841725540000002188168620016859403     201209262012070400000000054680000164455000000000166429000000000000000000000000001974050000000000  3020121002   01          2                                                                                   3112188168622293807258000019                                                  N                     01321  0000000        000103
12042956441000101SOLUCOES ACO USIMINAS                                                 0000000034100000000000000000000000000000847452070000002216130350005922202     201209102012071600000000054520000172071000000000179639000000000000000000000000007568050000000000  3020121002   01          2                                                                                   3112216130354293807258000049                                                  N                     01321  0000000        000104
12042956441000101SOLUCOES ACO USIMINAS                                                 0000000034100000000000000000000000000000847452100000002216130340017012402     201209102012071500000000054520000147428000000000153918000000000000000000000000006490050000000000  3020121002   01          2                                                                                   3112216130347293807258000059                                                  N                     01321  0000000        000105
12042956441000101SOLUCOES ACO USIMINAS                                                 0000000034100000000000000000000000000000841725610000002188168680016891403     201209272012070500000000054690000795233000000000803183000000000000000000000000007950050000000000  3020121002   01          2                                                                                   3112188168689293807258000029                                                  N                     01321  0000000        000106
12042956441000101SOLUCOES ACO USIMINAS                                                 0000000034100000000000000000000000000000843180440000002194744360016902903     201209282012070600000000054700000179794000000000181234000000000000000000000000001440050000000000  3020121002   01          2                                                                                   3112194744366293807258000079                                                  N                     01321  0000000        000107
12043217850000159IOB INFORMACOES OBJ  PUBL JURI                                        0000000023702374400000002958600 000000008711912800902243000063301440820F2     201209202012083000000000054620000072850000000000074595000000000000000000000000001745050000000000  3020121002   01          2  R GANGES 528                                                                     3                         000000000000000                                     N                     00598  0000000        000108
12043217850000159IOB INFORMACOES OBJ  PUBL JURI                                        0000000023702374400000002958600 000000008540495200902212000099001440820E4     201208202012073000000000054310000072850000000000075339000000000000000000000000002489050000000000  3020121002   01          2  GANGES 528 VL NOVA MANCHESTER                                                    3                         000000000000000                                     N                     00598  0000000        000109
12047190731000100DE CASTRO LOUR ENG IND LTDA                                           00000000341000000000000000000000000000008782052000000023399955303026632 0     201209192012082200000000054610000952073000000000976409000000000000000000000000024336050000000000  3020121002   01          2                                                                                   3112339995535036884500400019                                                  N                     01321  0000000        000110
12047190731000100DE CASTRO LOUR ENG IND LTDA                                           00000000341000000000000000000000000000008782052100000023399955903026643 0     201209202012082300000000054620000867039000000000887499000000000000000000000000020460050000000000  3020121002   01          2                                                                                   3112339995592036884500400049                                                  N                     01321  0000000        000111
12047190731000100DE CASTRO LOUR ENG IND LTDA                                           00000000341000000000000000000000000000008782052500000023399955603026636 0     201209192012082200000000054610000940804000000000964854000000000000000000000000024050050000000000  3020121002   01          2                                                                                   3112339995568036884500400049                                                  N                     01321  0000000        000112
12047190731000100DE CASTRO LOUR ENG IND LTDA                                           00000000341000000000000000000000000000008782052700000023399956203026648 0     201209202012082300000000054620000976053000000000999093000000000000000000000000023040050000000000  3020121002   01          2                                                                                   3112339995626036884500400029                                                  N                     01321  0000000        000113
12047190731000100DE CASTRO LOUREIRO ENGENHARIA                                         00000000033000000000000000000000000000008801226800000018000000003026796 0     201210012012090300000000054730000551107000000000562129000000000000000000000000011022050000000000  3020121002   01          2                                                                                   3948430370000009553118020339                                                  N                     01321  0000000        000114
12047190731000100DE CASTRO LOUREIRO ENGENHARIA                                         0000000023703394400000000205508 000000008801224700202255000000603026784 0     201209282012083100000000054700001041759000000001048703000000000000000000000000006944050000000000  3020121002   01          2  RUA JUNO  533                                                                    3                         000000000000000                                     N                     00598  0000000        000115
12047190731000100DE CASTRO LOUR ENG IND LTDA                                           00000000341000000000000000000000000000008782050900000023399953503026612 0     201209182012082100000000054600001111489000000001142093000000000000000000000000030604050000000000  3020121002   01          2                                                                                   3112339995352036884500400019                                                  N                     01321  0000000        000116
12047190731000100DE CASTRO LOUREIRO ENGENHARIA                                         0000000023703394400000000205508 000000008801225000202255000000903026787 0     201209282012083100000000054700001135987000000001143559000000000000000000000000007572050000000000  3020121002   01          2  RUA JUNO  533                                                                    3                         000000000000000                                     N                     00598  0000000        000117
12047190731000100DE CASTRO LOUR ENG IND LTDA                                           00000000341000000000000000000000000000008782051200000023399953803026613 0     201209182012082100000000054600001107989000000001138495000000000000000000000000030506050000000000  3020121002   01          2                                                                                   3112339995386036884500400039                                                  N                     01321  0000000        000118
12047190731000100DE CASTRO LOUREIRO ENGENHARIA                                         0000000023703394400000000205508 000000008801225300202255000001203026794 0     201210012012090300000000054730001209130000000001211145000000000000000000000000002015050000000000  3020121002   01          2  RUA JUNO  533                                                                    3                         000000000000000                                     N                     00598  0000000        000119
12047190731000100DE CASTRO LOUREIRO ENGENHARIA                                         0000000023703394400000000205508 000000008801225600202255000001503026795 0     201210012012090300000000054730001207555000000001209568000000000000000000000000002013050000000000  3020121002   01          2  RUA JUNO  533                                                                    3                         000000000000000                                     N                     00598  0000000        000120
12047190731000100DE CASTRO LOUR ENG IND LTDA                                           00000000341000000000000000000000000000008782051600000023399954103026614 0     201209182012082100000000054600001047621000000001076461000000000000000000000000028840050000000000  3020121002   01          2                                                                                   3112339995410036884500400039                                                  N                     01321  0000000        000121
12049341563000132JAC COMERCIO DE MATERIAIS ELET                                        0000000023700293300000001478699 00000000892292560020132275064582321701        201210262012100100000000054980000046351000000000046351000000000000000000000000000000050000000000  3020121026   01FS        1  R GANGES 528                                                                     3                         000000000000000                                     N                     00598  0000000        000122
12049341563000132JAC COMERCIO DE MATERIAIS ELET                                        0000000023700293300000001478699 00000000892292570020132275064592321702        201211052012100100000000055080000046351000000000046351000000000000000000000000000000050000000000  3020121105   01FS        1  R GANGES 528                                                                     3                         000000000000000                                     N                     00598  0000000        000123
12049341563000132JAC COMERCIO DE MATERIAIS ELET                                        0000000023700293300000001478699 00000000892292580020132275064602321703        201211092012100100000000055120000046336000000000046336000000000000000000000000000000050000000000  3020121109   01FS        1  R GANGES 528                                                                     3                         000000000000000                                     N                     00598  0000000        000124
12051180370000199IGUAFER FERRO E ACO LTDA                                              0000000034100000000000000000000000000000852309100000002239389789443 B         201209022012071800000000054440000168275000000000176675000000000000000000000000008400050000000000  3020121002   01          2                                                                                   3112239389789077149484600089                                                  N                     01321  0000000        000125
12051180370000199IGUAFER FERRO E ACO LTDA                                              0000000034100000000000000000000000000000852309110000002239389799443 C         201209122012071800000000054540000168275000000000173875000000000000000000000000005600050000000000  3020121002   01          2                                                                                   3112239389797077149484600089                                                  N                     01321  0000000        000126
12051180370000199IGUAFER FERRO E ACO LTDA                                              0000000034100000000000000000000000000000852309120000002239389809443 D         201209222012071800000000054640000168275000000000171075000000000000000000000000002800050000000000  3020121002   01          2                                                                                   3112239389805077149484600029                                                  N                     01321  0000000        000127
12052559499000175BOMAX NO BRASIL EQUIP INDS LT                                         0000000034100000000000000000000000000000852309140000002238631910000015611     201209172012071900000000054590000179150000000000181614000000000000000000000000002816050000000000  3020120924   05          3                                                                                   3112238631918324705000200079                                                  N                     01321  0000000        000128
12053585766000141MULTIACOS INDUSTRIA E COMERCIO                                        0000000000100000000000000000000000000000878205450000006553920000004445102     201209202012082800000000054620000287235000000000287714000000000000000000000000000958050000000000  3020120921   05          3                                                                                   3044016553921912000139523119                                                  N                     01321  0000000        000129
12053585766000141MULTIACOS INDUSTRIA E COMERCIO                                        0000000000100000000000000000000000000000878205460000006553930000004445202     201209202012082800000000054620000224283000000000224657000000000000000000000000000748050000000000  3020120921   05          3                                                                                   3044016553931912000139523169                                                  N                     01321  0000000        000130
12053585766000141MULTIACOS INDUSTRIA E COMERCIO                                        0000000000100000000000000000000000000000878205490000006553470000004375103     201209202012082800000000054620000484407000000000485214000000000000000000000000001614050000000000  3020120921   05          3                                                                                   3044016553471912000139523149                                                  N                     01321  0000000        000131
12053585766000141MULTIACOS INDUSTRIA E COMERCIO                                        0000000000100000000000000000000000000000878205550000006553940000004446102     201209202012082800000000054620000687401000000000688547000000000000000000000000002292050000000000  3020120921   05          3                                                                                   3044016553941912000139523119                                                  N                     01321  0000000        000132
12053585766000141MULTIACOS INDUSTRIA E COMERCIO                                        0000000000100000000000000000000000000000878205560000006553970000004447202     201209202012082800000000054620000425031000000000425739000000000000000000000000001416050000000000  3020120921   05          3                                                                                   3044016553971912000139523119                                                  N                     01321  0000000        000133
12053585766000141MULTIACOS I C PRODS TEC LTDA                                          0000000042200000000000000000000000000000875773330000000000000000004566101     201210012012090400000000054730001320414000000001322613000000000000000000000000002199050000000000  3020121002   01          2                                                                                   3711500005033164919152295119                                                  N                     01321  0000000        000134
12053585766000141MULTIACOS IND  COM  PROD  TEC                                         0000000038900000000000000000000000000000878205380000000000000000004462302     201209242012073000000000054660000262786000000000266290000000000000000000000000003504050000000000  3020121002   01          2                                                                                   3015601031416185000042309219                                                  N                     01321  0000000        000135
12053585766000141MULTIACOS IND  COM  PROD  TEC                                         0000000038900000000000000000000000000000878205390000000000000000004462402     201209242012073000000000054660000761496000000000771648000000000000000000000000010152050000000000  3020121002   01          2                                                                                   3015601031416193000042309239                                                  N                     01321  0000000        000136
12053585766000141MULTIACOS IND  COM  PROD  TEC                                         0000000038900000000000000000000000000000878205400000000000000000004532101     201209242012081300000000054660000910692000000000922836000000000000000000000000012144050000000000  3020121002   01          2                                                                                   3015601031416320000042309219                                                  N                     01321  0000000        000137
12053585766000141MULTIACOS IND  COM  PROD  TEC                                         0000000038900000000000000000000000000000878205410000000000000000004532301     201209242012081300000000054660000265180000000000268716000000000000000000000000003536050000000000  3020121002   01          2                                                                                   3015601031416339000042309269                                                  N                     01321  0000000        000138
12053585766000141MULTIACOS IND  COM  PROD  TEC                                         0000000038900000000000000000000000000000878205420000000000000000004462202     201209242012073000000000054660000569064000000000576648000000000000000000000000007584050000000000  3020121002   01          2                                                                                   3015601031416177000042309239                                                  N                     01321  0000000        000139
12053585766000141MULTIACOS I C PRODS TEC LTDA                                          0000000042200000000000000000000000000000878205680000000000000000004545101     201209262012082800000000054680000314360000000000317503000000000000000000000000003143050000000000  3020121002   01          2                                                                                   3711500005033164917492641129                                                  N                     01321  0000000        000140
12053585766000141MULTIACOS I C PRODS TEC LTDA                                          0000000042200000000000000000000000000000878205690000000000000000004539301     201209252012082800000000054670001052408000000001064685000000000000000000000000012277050000000000  3020121002   01          2                                                                                   3711500005033164917492650119                                                  N                     01321  0000000        000141
12053585766000141MULTIACOS I C PRODS TEC LTDA                                          0000000042200000000000000000000000000000878205720000000000000000004478902     201209272012082800000000054690000130644000000000131733000000000000000000000000001089050000000000  3020121002   01          2                                                                                   3711500005033164917492625119                                                  N                     01321  0000000        000142
12053585766000141MULTIACOS I C PRODS TEC LTDA                                          0000000042200000000000000000000000000000878205730000000000000000004553201     201209272012082800000000054690001148798000000001158372000000000000000000000000009574050000000000  3020121002   01          2                                                                                   3711500005033164917492633119                                                  N                     01321  0000000        000143
12053585766000141MULTIACOS I C PRODS TEC LTDA                                          0000000042200000000000000000000000000000878205740000000000000000004391603     201209252012082800000000054670000354262000000000358391000000000000000000000000004129050000000000  3020121002   01          2                                                                                   3711500005033164917492706179                                                  N                     01321  0000000        000144
12053585766000141MULTIACOS I C PRODS TEC LTDA                                          0000000042200000000000000000000000000000878205750000000000000000004391703     201209252012082800000000054670000342203000000000346192000000000000000000000000003989050000000000  3020121002   01          2                                                                                   3711500005033164917492714159                                                  N                     01321  0000000        000145
12053585766000141MULTIACOS I C PRODS TEC LTDA                                          0000000042200000000000000000000000000000878205760000000000000000004411803     201209282012082800000000054700000585031000000000588930000000000000000000000000003899050000000000  3020121002   01          2                                                                                   3711500005033164917492722119                                                  N                     01321  0000000        000146
12053585766000141MULTIACOS I C PRODS TEC LTDA                                          0000000042200000000000000000000000000000878205770000000000000000004545201     201209262012082800000000054680001035014000000001045363000000000000000000000000010349050000000000  3020121002   01          2                                                                                   3711500005033164917492668129                                                  N                     01321  0000000        000147
12053585766000141MULTIACOS I C PRODS TEC LTDA                                          0000000042200000000000000000000000000000878205780000000000000000004479002     201209272012082800000000054690000831267000000000838191000000000000000000000000006924050000000000  3020121002   01          2                                                                                   3711500005033164917492676169                                                  N                     01321  0000000        000148
12053585766000141MULTIACOS I C PRODS TEC LTDA                                          0000000042200000000000000000000000000000878205790000000000000000004478802     201209272012082800000000054690000211226000000000212985000000000000000000000000001759050000000000  3020121002   01          2                                                                                   3711500005033164917492684119                                                  N                     01321  0000000        000149
12053585766000141MULTIACOS I C PRODS TEC LTDA                                          0000000042200000000000000000000000000000878205800000000000000000004391503     201209252012082800000000054670000319418000000000323141000000000000000000000000003723050000000000  3020121002   01          2                                                                                   3711500005033164917492692119                                                  N                     01321  0000000        000150
12053585766000141MULTIACOS I C PRODS TEC LTDA                                          0000000042200000000000000000000000000000875773460000000000000000004429703     201210012012090400000000054730000624532000000000625572000000000000000000000000001040050000000000  3020121002   01          2                                                                                   3711500005033164919152406199                                                  N                     01321  0000000        000151
12053585766000141MULTIACOS I C PRODS TEC LTDA                                          0000000042200000000000000000000000000000875773570000000000000000004421903     201210012012090400000000054730000942203000000000943772000000000000000000000000001569050000000000  3020121002   01          2                                                                                   3711500005033164919152511129                                                  N                     01321  0000000        000152
12054382510000108SETENTA IND E COM DE MADEIRAS                                         0000000034100000000000000000000000000000860403430000002277814474462 A         201209042012080700000000054460000191200000000000201728000000000000000000000000010528050000000000  3020121002   01          2                                                                                   3112277814474057049175300069                                                  N                     01321  0000000        000153
12056428188000128EDVALDO SANTOS ROSA ME                                                0000000023700898200000000005622 0000000088191340009011225700666194919606      201209292012091300000000054710000089850000000000092544000000000000000000000000002694050000000000  3020121002   01          2  RUA TAMAINDE  1410                                                               3                         000000000000000                                     N                     00598  0000000        000154
12056993900000131CIA METALURGICA PRADA                                                 0000000034100000000000000000000000000000837460440000002165934360025295403     201209202012062800000000054620000152797000000000155857000000000000000000000000003060050000000000  3020121002   01          2                                                                                   3112165934368293800573900019                                                  N                     01321  0000000        000155
12056993900000131CIA METALURGICA PRADA                                                 0000000034100000000000000000000000000000824820100000002102181160024711603     201208292012060600000000054400000833146000000000880372000000000000000000000000047226050000000000  3020121002   01          2                                                                                   3112102181164293800573900039                                                  N                     01321  0000000        000156
12056993900000131CIA METALURGICA PRADA                                                 0000000034100000000000000000000000000000844839000000002201181880025629402     201209052012071100000000054470000249372000000000260604000000000000000000000000011232050000000000  3020121002   01          2                                                                                   3112201181883293800573900019                                                  N                     01321  0000000        000157
12056993900000131CIA METALURGICA PRADA                                                 0000000034100000000000000000000000000000844839010000002201181890025635302     201209052012071100000000054470000406842000000000425148000000000000000000000000018306050000000000  3020121002   01          2                                                                                   3112201181891293800573900019                                                  N                     01321  0000000        000158
12056993900000131CIA METALURGICA PRADA                                                 0000000034100000000000000000000000000000844839020000002201181900025635402     201209052012071100000000054470000208689000000000218085000000000000000000000000009396050000000000  3020121002   01          2                                                                                   3112201181909293800573900069                                                  N                     01321  0000000        000159
12056993900000131CIA METALURGICA PRADA                                                 0000000034100000000000000000000000000000844839030000002201181910025635502     201209052012071100000000054470000164780000000000172205000000000000000000000000007425050000000000  3020121002   01          2                                                                                   3112201181917293800573900029                                                  N                     01321  0000000        000160
12056993900000131CIA METALURGICA PRADA                                                 0000000034100000000000000000000000000000837460450000002165934380025295603     201209202012062800000000054620000154165000000000157249000000000000000000000000003084050000000000  3020121002   01          2                                                                                   3112165934384293800573900039                                                  N                     01321  0000000        000161
12056993900000131CIA METALURGICA PRADA                                                 0000000034100000000000000000000000000000837460460000002165934390025295703     201209202012062800000000054620000139528000000000142324000000000000000000000000002796050000000000  3020121002   01          2                                                                                   3112165934392293800573900029                                                  N                     01321  0000000        000162
12056993900000131CIA METALURGICA PRADA                                                 0000000034100000000000000000000000000000838527930000002171340470025383503     201209242012063000000000054660000575127000000000582799000000000000000000000000007672050000000000  3020121002   01          2                                                                                   3112171340477293800573900069                                                  N                     01321  0000000        000163
12056993900000131CIA METALURGICA PRADA                                                 0000000034100000000000000000000000000000838527940000002171340480025384303     201209242012063000000000054660000454478000000000460534000000000000000000000000006056050000000000  3020121002   01          2                                                                                   3112171340485293800573900029                                                  N                     01321  0000000        000164
12056993900000131CIA METALURGICA PRADA                                                 0000000034100000000000000000000000000000840312930000002179478290025419302     201208282012070300000000054390000402178000000000425628000000000000000000000000023450050000000000  3020121002   01          2                                                                                   3112179478295293800573900089                                                  N                     01321  0000000        000165
12056993900000131CIA METALURGICA PRADA                                                 0000000034100000000000000000000000000000840312940000002179478300025419402     201208282012070300000000054390000322804000000000341634000000000000000000000000018830050000000000  3020121002   01          2                                                                                   3112179478303293800573900079                                                  N                     01321  0000000        000166
12056993900000131CIA METALURGICA PRADA                                                 0000000034100000000000000000000000000000840312960000002179478310025419303     201209252012070300000000054670000402178000000000406868000000000000000000000000004690050000000000  3020121002   01          2                                                                                   3112179478311293800573900069                                                  N                     01321  0000000        000167
12056993900000131CIA METALURGICA PRADA                                                 0000000034100000000000000000000000000000840312970000002179478320025419403     201209252012070300000000054670000322804000000000326570000000000000000000000000003766050000000000  3020121002   01          2                                                                                   3112179478329293800573900079                                                  N                     01321  0000000        000168
12056993900000131CIA METALURGICA PRADA                                                 0000000034100000000000000000000000000000848180620000002218222670025829902     201209112012071700000000054530000498118000000000515548000000000000000000000000017430050000000000  3020121002   01          2                                                                                   3112218222670293800573900029                                                  N                     01321  0000000        000169
12056993900000131CIA METALURGICA PRADA                                                 0000000034100000000000000000000000000000848180630000002218222680025830002     201209112012071700000000054530000247673000000000256346000000000000000000000000008673050000000000  3020121002   01          2                                                                                   3112218222688293800573900059                                                  N                     01321  0000000        000170
12056993900000131CIA METALURGICA PRADA                                                 0000000034100000000000000000000000000000844839040000002201181920025635602     201209052012071100000000054470000339933000000000355242000000000000000000000000015309050000000000  3020121002   01          2                                                                                   3112201181925293800573900069                                                  N                     01321  0000000        000171
12056993900000131CIA METALURGICA PRADA                                                 0000000034100000000000000000000000000000844839050000002201181930025636202     201209052012071100000000054470000746213000000000779801000000000000000000000000033588050000000000  3020121002   01          2                                                                                   3112201181933293800573900019                                                  N                     01321  0000000        000172
12056993900000131CIA METALURGICA PRADA                                                 0000000034100000000000000000000000000000844839060000002201181940025644402     201209052012071100000000054470000779647000000000814720000000000000000000000000035073050000000000  3020121002   01          2                                                                                   3112201181941293800573900019                                                  N                     01321  0000000        000173
12056993900000131CIA METALURGICA PRADA                                                 0000000034100000000000000000000000000000848180640000002218222690025830102     201209112012071700000000054530000207402000000000214668000000000000000000000000007266050000000000  3020121002   01          2                                                                                   3112218222696293800573900039                                                  N                     01321  0000000        000174
12056993900000131CIA METALURGICA PRADA                                                 0000000034100000000000000000000000000000844839140000002201181870025629302     201209052012071100000000054470000257906000000000269516000000000000000000000000011610050000000000  3020121002   01          2                                                                                   3112201181875293800573900069                                                  N                     01321  0000000        000175
12056993900000131CIA METALURGICA PRADA                                                 0000000034100000000000000000000000000000855028570000002254750270026244302     201209242012072800000000054660000100684000000000102028000000000000000000000000001344050000000000  3020121002   01          2                                                                                   3112254750279293800573900089                                                  N                     01321  0000000        000176
12056993900000131CIA METALURGICA PRADA                                                 0000000034100000000000000000000000000000855028580000002254750280026244402     201209242012072800000000054660000084115000000000085235000000000000000000000000001120050000000000  3020121002   01          2                                                                                   3112254750287293800573900039                                                  N                     01321  0000000        000177
12056993900000131CIA METALURGICA PRADA                                                 0000000034100000000000000000000000000000837460410000002165934370025295503     201209202012062800000000054620000339048000000000345828000000000000000000000000006780050000000000  3020121002   01          2                                                                                   3112165934376293800573900029                                                  N                     01321  0000000        000178
12057029431000106ATLAS COPCO BRASIL LTDA                                               0000000034100000000000000000000000000000861960280000002283943487000054090     201209062012080900000000054480000059490000000000060504000000000000000000000000001014050000000000  3020121002   01          2                                                                                   3112283943481293804111400069                                                  N                     01321  0000000        000179
12061217188000119TELAS METALICAS TELMETAL LTDA                                         0000000000100000000000000000000000000000871191240000000056790005569 2 3       201210012012082900000000054730000060518000000000060679000000000000000000000000000161050000000000  3020121002   01          2                                                                                   3000000115031800000056791739                                                  N                     01321  0000000        000180
12061600839000155CENTRO DE INT EMPRESA ESCOLA C                                        0000000023703391P00000000866202 00000000880122440090000036173097641C 0001     201209302012091000000000054720000016800000000000016910000000000000000000000000000110050000000000  3020121002   01          2  R GANGES  528                                                                    3                         000000000000000                                     N                     00598  0000000        000181
12061612735000160IMP TEIXEIRA DE FERRAGENS LTDA                                        0000000034100000000000000000000000000000878205810000002351838130000086481     201209242012082700000000054660000029325000000000030101000000000000000000000000000776050000000000  3020121002   01          2                                                                                   3112351838134000442318200079                                                  N                     01321  0000000        000182
12062340989000130EDICOES ADUANEIRAS LTDA                                               0000000023703090200000000015660 0000000079108232009080000035030004262 D       201209302012041100000000054720000043600000000000043744000000000000000000000000000144050000000000  3020121002   01          2  RUA TAMAINDE 1410 RUA GANGES 520 E 528                                           3                         000000000000000                                     N                     00598  0000000        000183
12064952757000168WALMAC COM DE PROD QUIMICOS LT                                        0000000034100000000000000000000000000000860403450000002275821700020148        201209282012080300000000054700000219267000000000220991000000000000000000000000001724050000000000  3020121002   01          2                                                                                   3112275821703064807961400049                                                  N                     01321  0000000        000184
12064952757000168WALMAC COM DE PROD QUIMICOS LT                                        0000000034100000000000000000000000000000860403460000002275821710020148        201208312012080300000000054420000219267000000000233059000000000000000000000000013792050000000000  3020121002   01          2                                                                                   3112275821711064807961400079                                                  N                     01321  0000000        000185
12065000655000105HILTI DO BRASIL COMERCIAL LTDA                                        0000000023703396000000000243787 00000000871682760090224400001640002179001     201209272012082800000000054690000019742000000000019937000000000000000000000000000195050000000000  3020121002   01          2  RUA TAMAINDE 1410                                                                3                         000000000000000                                     N                     00598  0000000        000186
12066841552000130R V SEG PATRIMONIAL LTDA                                              00000000341000000000000000000000000000008852483200000090002192721927          201209102012081000000000054520000483241000000000486783000000000000000000000000003542050000000000  3020121002   01          2                                                                                   3109000219270001835253400099                                                  N                     01321  0000000        000187
12069284248000128ISOCOAT TINTAS E VERNIZES LTDA                                        0000000034100000000000000000000000000000856906390000002259392840053390        201210012012073100000000054730000048329000000000048458000000000000000000000000000129050000000000  3020121002   01          2                                                                                   3112259392846077430121200019                                                  N                     01321  0000000        000188
12069284248000128ISOCOAT TINTAS E VERNIZES LTDA                                        0000000034100000000000000000000000000000841061040000002182507930052085        201209172012070200000000054590000236130000000000245580000000000000000000000000009450050000000000  3020121002   01          2                                                                                   3112182507932077430121200019                                                  N                     01321  0000000        000189
12075483040000130REX MAQ E EQUIPAMENTOS LTDA                                           00000000341000000000000000000000000000008465957600000022100117076263 2 3      201209262012070400000000054680000434000000000000439124000000000000000000000000005124050000000000  3020121002   01          2                                                                                   3112210011709848301515500019                                                  N                     01321  0000000        000190
12075483040000130REX MAQUINAS E EQUIPAMENTOS LT                                        0000000023702656500000000000701 000000008729529800202248000040581776 2 1      201209282012083100000000054700000564200000000000567964000000000000000000000000003764050000000000  3020121002   01          2  RUA  GANGES  528                                                                 3                         000000000000000                                     N                     00598  0000000        000191
900019200000000075620325                                                                                                                                                                                                                                                                                                                                                                                                                                                                00598  0000000        000192
