0000147602043799295000110ALTAMIRA INDUSTRIA METALURGICA LT       202000000189720121003212700             3                                                                                                  000000000000000                                                                                                                                                                                                                                                                                   000001
12004643290000142FLEXTINTAS IND  E COM  LTDA                                           0000000034100000 0000000000000  I000000000009978000000000000000               201210030000000000000000054750000318048000000000318048000000000000000000000000000000010000036591  3120121003   02BW        5000000               000000000000000                                               3181553276277051356781800019               036591/01                          N                     01132 10020256        000002
12002954207000120BENZOL COM MAT ESP P LIMPEZA L                                        0000000000100000 0000000000000  I000000000009979000000000000000               201210030000000000000000054750000091840000000000091840000000000000000000000000000000010000004292  3120121003   02BW        5000000               000000000000000                                               3852632000000000000019852189               4292                               N                     01132 10020256        000003
12061100202000108COFIPE VEICULOS LTDA                                                  0000000039900000 0000000000000  I000000000009980000000000000000               201210030000000000000000054750000042064000000000042064000000000000000000000000000000010097012209  3120121003   02BW        5000000               000000000000000                                               3320005133410343608018900119               97012209                           N                     01132 10020256        000004
12007068566000102NIVEL EMPREGOS LTDA           AV CELSO GARCIA 3830                    0306400023700097300000003053792 I000000000009981000000000000000               201210030000000000000000000000000000000000000000100000000000000000000000000000000000010000002778  0120121003   02BW        5000000               000000000000000                                               3                                          NF.NRO.2778 - PARC.02.             N                     01321 10020256        000005
900000600000000000551952                                                                                                                                                                                    000000000000000                                                                                                                                                                                                                                                    00000400164250000451952        000006
