0000147602043799295000110ALTAMIRA IND METALURGICA LTDA           20100601000002013010317381700000        2    230A                                                                                          000000000000000                                                                                                                                                                                                                                                                                   000001
12061217188000119TELAS METALICAS TELMETAL LTDA                                         0000000034100000000000000000000000000000925640570000009000000155999 3 3       201301030000000000000000055670000069094000000000069094000000000000000000000000000000050000000000  3020130103   01MFBUHA    500                                                                                 3109000000156077099894600089010000       005999/03-03                         N                     00000 10020256        000002
12061217188000119TELAS METALICAS TELMETAL LTDA                                         0000000000100000000000000000000000000000931455110000000059870006072 2 3       201301030000000000000000055670000014285000000000014285000000000000000000000000000000050000000000  3020130103   01MFBUHA    500                                                                                 3000000115031800000059871779010000       006072/02-03                         N                     00000 10020256        000003
12061217188000119TELAS METALICAS TELMETAL LTDA                                         0000000000100000000000000000000000000000931455140000000059900006073 2 3       201301030000000000000000055670000101141000000000101141000000000000000000000000000000050000000000  3020130103   01MFBUHA    500                                                                                 3000000115031800000059901739010000       006073/02-03                         N                     00000 10020256        000004
12014978305000187MOGI FILME INDUSTRIA E COMERCI                                        0000000023700402200000001055003 0000000093256044009023390000007514         001201301030000000000000000055670000041975000000000041975000000000000000000000000000000050000000000  3020130103   01MFBUHA    500RUA TAMAINDE 1410 VL NOVA MANCHESTER                                             3010000                   00000000000000000514/01                             N                     00000 10020256        000005
12061475927000172NIQ CROM BRILHANTE LTDA                                               0000000034100000000000000000000000000000936372240000002657580125559           201301030000000000000000055670000108971000000000108971000000000000000000000000000000050000000000  3020130103   01MFBUHA    500                                                                                 3112657580125046770270000039010000       005559                               N                     00000 10020256        000006
12033325184001786ALSCO TOALHEIRO BRASIL                                                0000000023703396000000001490850 0000000094102610009000002841405VM28414        201301030000000000000000055670000030444000000000030444000000000000000000000000000000050000000000  3020130103   01MFBUHA    500RUA  GANGES 528                                                                  3010000                   0000000000000000028414                              N                     00000 10020256        000007
12005502645000146TRANS GERALE TRANSPORTES LTDA                                         000000003410000000000000000000000000000094311048000000269495535497 12         201301030000000000000000055670000064060000000000064060000000000000000000000000000000050000000000  3020130103   01MFBUHA    500                                                                                 3112694955355035522320700099010000       001826/1818                          N                     00000 10020256        000008
12059659615000177DZ COMERCIO R E SERVICOS LTDA                                         000000003410000000000000000000000000000094495465000000900000354307            201301030000000000000000055670000060000000000000060000000000000000000000000000000000050000000000  3020130103   01MFBUHA    500                                                                                 3109000003548000314585100079010000       00307                                N                     00000 10020256        000009
12005246412000120SANDRA MARIA RODRIGUES MENDES RUA ALUMINIO 283 A                      0344402023700298400000002058170 I000000000010370014002981870028               201301030000000000000000000000000000000000000000070500000000000000000000000000000000010000000617  3120130103   01HA        000                                                                                 3029814029818700280205817089             000617                               N                     00000 10020256        000010
12001162151000109SUKIRA COM IMP EXP LTDA       RUA  ANTONIO FORTUNATO  560             0368100000100000 0000000000000  I000000000010371000000000000000               201301030000000000000000055670000031190000000000031190000000000000000000000000000000010017534133  3120130103   01HA        000                                                                                 3000000112481744304053811199             0017534133                           N                     00000 10020256        000011
11997198433000049ANTONIA PEREIRA DE SANTANA    TRAV TERRAS SUL 147 JD DA CONQUISTA     0834533023700298400000005101263 I000000000010372000000000000000               201301030000000000000000000000000000000000000000033348000000000000000000000000000000050000000001  0120130103   01HA        000                                                                                 3                                        0001                                 N                     00000 10020256        000012
11997198433000049ANTONIA PEREIRA DE SANTANA    TRAV TERRAS SUL 147 JD DA CONQUISTA     0834533023700298400000005101263 I000000000010373000000000000000               201301030000000000000000000000000000000000000000032348000000000000000000000000000000050000000013  0120130103   01HA        000                                                                                 3                                        0013                                 N                     00000 10020256        000013
900001400000000000657356                                                                                                                                                                                    000000000000000                                                                                                                                                                                                                                                    00001200501030000521160        000014
