0000147602043799295000110ALTAMIRA INDUSTRIA METALURGICA LT       202000000019920130103060222             1                                                                                                                                                                                                                                                                                                                                                                                                    000001
12001895314000162COLETA INDUSTRIAL FIMAVAN LTDA                                        0000000034100000000000000000000000000000866992070000009002335349439           201208272012081700000000054380000123695000000000165978000000000000000000000000042612050000000000  3020121226   05          3                                                                                   3109002335346144604097200019                                                  N                     01321  0000000        000002
12003489596000123BEND FLEX I COMERCIO LTDA                                             000000003410000000000000000000000000000088350832000000171879874608            201209122012082100000000054540000695250000000000849721000000000000000000000000154471050000000000  3020130103   01          2                                                                                   3191718798744157734445800069                                                  N                     01321  0000000        000003
12003489596000123BEND FLEX I COMERCIO LTDA                                             000000003410000000000000000000000000000088599899000000171434574613            201209172012081600000000054590000585000000000000709308000000000000000000000000124308050000000000  3020130103   01          2                                                                                   3191714345748157734445800019                                                  N                     01321  0000000        000004
12006000195000156MBA MERCANTIL BRAS DE ACO LTDA                                        0000000034100000000000000000000000000000885998980000001667238420008870B02     201209112012071600000000054530000839952000000001028280000000000000000000000000188328050000000000  3020130103   01          2                                                                                   3191667238429064849251000039                                                  N                     01321  0000000        000005
12006000195000156MBA MERCANTIL BRAS DE ACO LTDA                                        0000000034100000000000000000000000000000906662670000001671394410008920B03     201210142012071700000000054860000576584000000000668438000000000000000000000000091854050000000000  3020130103   01          2                                                                                   3191671394416064849251000039                                                  N                     01321  0000000        000006
12006000195000156MBA MERCANTIL BRAS DE ACO LTDA                                        0000000034100000000000000000000000000000904173180000001671394430008926B03     201210122012071700000000054840000387716000000000451045000000000000000000000000063329050000000000  3020130103   01          2                                                                                   3191671394432064849251000079                                                  N                     01321  0000000        000007
12006000195000156MBA MERCANTIL BRAS DE ACO LTDA                                        0000000034100000000000000000000000000000887698090000001671394550008925B02     201209142012071700000000054560000719581000000000876646000000000000000000000000157065050000000000  3020130103   01          2                                                                                   3191671394556064849251000089                                                  N                     01321  0000000        000008
12006000195000156MBA MERCANTIL BRAS DE ACO LTDA                                        0000000034100000000000000000000000000000887698100000001671394560008926B02     201209142012071700000000054560000387716000000000472409000000000000000000000000084693050000000000  3020130103   01          2                                                                                   3191671394564064849251000019                                                  N                     01321  0000000        000009
12006000195000156MBA MERCANTIL BRAS DE ACO LTDA                                        0000000034100000000000000000000000000000889578520000001671394540008920B02     201209162012071700000000054580000576585000000000700191000000000000000000000000123606050000000000  3020130103   01          2                                                                                   3191671394549064849251000099                                                  N                     01321  0000000        000010
12006000195000156M B A MERCANTIL BRASILEIRA DE                                         0000000023700118P00000002130599 00000000865388240020222900000450009203B03     201212122012081500000000055450000344980000000000357630000000000000000000000000012650050000000000  3020130103   01          2  RUA JUNO  533                                                                    300000000000000000001500  000000000000000                                     N                     00598  0000000        000011
12006000195000156M B A MERCANTIL BRASILEIRA DE                                         0000000023700118P00000002130599 00000000865388270020222900000480009204B03     201212132012081500000000055460000127291000000000131743000000000000000000000000004452050000000000  3020130103   01          2  RUA JUNO  533                                                                    300000000000000000001500  000000000000000                                     N                     00598  0000000        000012
12006000195000156M B A MERCANTIL BRASILEIRA DE                                         0000000023700118P00000002130599 00000000865388300020222900000510009205B03     201212142012081500000000055470000348964000000000360604000000000000000000000000011640050000000000  3020130103   01          2  RUA JUNO  533                                                                    300000000000000000001500  000000000000000                                     N                     00598  0000000        000013
12006000195000156M B A MERCANTIL BRASILEIRA DE                                         0000000023700118P00000002130599 00000000865388330020222900000540009206B03     201212152012081500000000055480000527560000000000544261000000000000000000000000016701050000000000  3020130103   01          2  RUA JUNO  533                                                                    300000000000000000001500  000000000000000                                     N                     00598  0000000        000014
12006000195000156M B A MERCANTIL BRASILEIRA DE                                         0000000023700118P00000002130599 00000000868592700020223600000030009229B03     201212132012081600000000055460000253414000000000262276000000000000000000000000008862050000000000  3020130103   01          2  RUA JUNO  533                                                                    300000000000000000001500  000000000000000                                     N                     00598  0000000        000015
12006000195000156MBA MERCANTIL BRAS DE ACO LTDA                                        0000000034100000000000000000000000000000906662660000002513141970009992B02     201212172012102200000000055500000097583000000000097583000000000000000000000000000000050000000000  3020121217   05          3                                                                                   3112513141971064899001800049                                                  N                     01321  0000000        000016
12006000195000156MBA MERCANTIL BRAS DE ACO LTDA                                        0000000034100000000000000000000000000000906662580000002513141940009988B02     201212172012102200000000055500000214645000000000214645000000000000000000000000000000050000000000  3020121217   05          3                                                                                   3112513141948064899001800099                                                  N                     01321  0000000        000017
12008272923000104P SANTOS ESQUADRARIAS METAL ME                                        0000000034100000000000000000000000000000915734100000006159682651954           201212052012110700000000055380000408138000000000447853000000000000000000000000039715050000000000  3020130103   01          2                                                                                   3156159682654160141951600029                                                  N                     01321  0000000        000018
12008879248000186FREFER METAL PLUS                                                     000000003410000000000000000000000000000093452379000000264895671EMO014094A     201212312012120300000000055640000533061000000000535140000000000000000000000000002079050000000000  3020130103   01          2                                                                                   3112648956715293811346700079                                                  N                     01321  0000000        000019
12008879248000186FREFER METAL PLUS                                                     000000003410000000000000000000000000000093452382000000264895673EMO014097A     201212312012120300000000055640000122199000000000122676000000000000000000000000000477050000000000  3020130103   01          2                                                                                   3112648956731293811346700019                                                  N                     01321  0000000        000020
12009338857000190FERNANDO  NAGAO  CARDONE  ALVA                                        000000000330000000000000000000000000000091653176000000300000000ALTA 11 2012   201211202012103000000000055230000134632000000000153754000000000000000000000000019122050000000000  3020130103   01          2                                                                                   3947901700000051051630010119                                                  N                     01321  0000000        000021
12042956441000101SOLUCOES ACO USIMINAS                                                 0000000034100000000000000000000000000000846595700000002210880280016980502     201209102012071200000000054520000156071000000000191951000000000000000000000000035880050000000000  3020130103   01          2                                                                                   3112210880285293807258000039                                                  N                     01321  0000000        000022
12042956441000101SOLUCOES ACO USIMINAS                                                 0000000034100000000000000000000000000000846595710000002210880290016980602     201209102012071200000000054520000426094000000000524074000000000000000000000000097980050000000000  3020130103   01          2                                                                                   3112210880293293807258000019                                                  N                     01321  0000000        000023
12042956441000101SOLUCOES ACO USIMINAS                                                 0000000034100000000000000000000000000000848180710000002220192910017041202     201209112012071700000000054530000205421000000000252275000000000000000000000000046854050000000000  3020130103   01          2                                                                                   3112220192911293807258000019                                                  N                     01321  0000000        000024
12042956441000101SOLUCOES ACO USIMINAS                                                 0000000034100000000000000000000000000000847452070000002216130350005922202     201209102012071600000000054520000172071000000000211631000000000000000000000000039560050000000000  3020130103   01          2                                                                                   3112216130354293807258000049                                                  N                     01321  0000000        000025
12042956441000101SOLUCOES ACO USIMINAS                                                 0000000034100000000000000000000000000000847452100000002216130340017012402     201209102012071500000000054520000147428000000000181353000000000000000000000000033925050000000000  3020130103   01          2                                                                                   3112216130347293807258000059                                                  N                     01321  0000000        000026
12042956441000101SOLUCOES ACO USIMINAS                                                 0000000034100000000000000000000000000000848180700000002220192900017041002     201209112012071700000000054530000155433000000000190887000000000000000000000000035454050000000000  3020130103   01          2                                                                                   3112220192903293807258000029                                                  N                     01321  0000000        000027
12042956441000101SOLUCOES ACO USIMINAS                                                 0000000034100000000000000000000000000000856906410000002262886280017266201     201208282012073000000000054390000119472000000000148152000000000000000000000000028919050000000000  3020121226   05          3                                                                                   3112262886289293807258000089                                                  N                     01321  0000000        000028
12042956441000101SOLUCOES ACO USIMINAS                                                 0000000034100000000000000000000000000000856906420000002262886290017266301     201208282012073000000000054390000145069000000000179869000000000000000000000000035090050000000000  3020121226   05          3                                                                                   3112262886297293807258000099                                                  N                     01321  0000000        000029
12047190731000100DE CASTRO LOUR ENG IND LTDA                                           00000000341000000000000000000000000000008782059900000023602715003026744 0     201211292012082900000000055320000146594000000000154946000000000000000000000000008640050000000000  3020121228   06          3                                                                                   3112360271509036884500400069                                                  N                     01321  0000000        000030
12047190731000100DE CASTRO LOUR ENG IND LTDA                                           00000000341000000000000000000000000000008996247900000024766209203027184 0     201211302012100500000000055330001153047000000001216551000000000000000000000000065772050000000000  3020121228   06          3                                                                                   3112476620920036884500400089                                                  N                     01321  0000000        000031
12047190731000100DE CASTRO LOUR ENG IND LTDA                                           00000000341000000000000000000000000000009041732500000025008465503027257 0     201212132012101600000000055460000751900000000000774085000000000000000000000000023664050000000000  3020121228   06          3                                                                                   3112500846558036884500400029                                                  N                     01321  0000000        000032
12047190731000100DE CASTRO LOUR ENG IND LTDA                                           00000000341000000000000000000000000000009041732900000025008464603027216 0     201212052012101000000000055380000225377000000000235566000000000000000000000000010632050000000000  3020121228   06          3                                                                                   3112500846467036884500400029                                                  N                     01321  0000000        000033
12047190731000100DE CASTRO LOUR ENG IND LTDA                                           00000000341000000000000000000000000000009041733100000025008464903027234 0     201212062012101100000000055390001029597000000001074147000000000000000000000000046575050000000000  3020121228   06          3                                                                                   3112500846491036884500400029                                                  N                     01321  0000000        000034
12047190731000100DE CASTRO LOUR ENG IND LTDA                                           00000000341000000000000000000000000000008782050900000023399953503026612 0     201209182012082100000000054600001111489000000001345391000000000000000000000000233902050000000000  3020130103   01          2                                                                                   3112339995352036884500400019                                                  N                     01321  0000000        000035
12047190731000100DE CASTRO LOUR ENG IND LTDA                                           00000000341000000000000000000000000000009041733000000025008464703027216 0     201301022012101000000000055660000225446000000000225889000000000000000000000000000443050000000000  3020130103   01          2                                                                                   3112500846475036884500400019                                                  N                     01321  0000000        000036
12047190731000100DE CASTRO LOUR ENG IND LTDA                                           00000000341000000000000000000000000000008996248000000024766209303027184 0     201212282012100500000000055610001153394000000001167002000000000000000000000000013608050000000000  3020130103   01          2                                                                                   3112476620938036884500400099                                                  N                     01321  0000000        000037
12047190731000100DE CASTRO LOUR ENG IND LTDA                                           00000000341000000000000000000000000000009041732300000025008465203027256 0     201212112012101600000000055440001108602000000001158742000000000000000000000000050140050000000000  3020130103   01          2                                                                                   3112500846525036884500400019                                                  N                     01321  0000000        000038
12047190731000100DE CASTRO LOUR ENG IND LTDA                                           00000000341000000000000000000000000000008782051000000023399953703026612 0     201212182012082100000000055510001111822000000001146814000000000000000000000000034992050000000000  3020130103   01          2                                                                                   3112339995378036884500400049                                                  N                     01321  0000000        000039
12047190731000100DE CASTRO LOUR ENG IND LTDA                                           00000000341000000000000000000000000000008782051100000023399954303026614 0     201212182012082100000000055510001047933000000001080909000000000000000000000000032976050000000000  3020130103   01          2                                                                                   3112339995436036884500400029                                                  N                     01321  0000000        000040
12047190731000100DE CASTRO LOUR ENG IND LTDA                                           00000000341000000000000000000000000000008782051200000023399953803026613 0     201209182012082100000000054600001107989000000001341142000000000000000000000000233153050000000000  3020130103   01          2                                                                                   3112339995386036884500400039                                                  N                     01321  0000000        000041
12047190731000100DE CASTRO LOUR ENG IND LTDA                                           00000000341000000000000000000000000000008782051400000023399954003026613 0     201212182012082100000000055510001108322000000001143202000000000000000000000000034880050000000000  3020130103   01          2                                                                                   3112339995402036884500400069                                                  N                     01321  0000000        000042
12047190731000100DE CASTRO LOUR ENG IND LTDA                                           00000000341000000000000000000000000000008782051600000023399954103026614 0     201209182012082100000000054600001047621000000001268041000000000000000000000000220420050000000000  3020130103   01          2                                                                                   3112339995410036884500400039                                                  N                     01321  0000000        000043
12047190731000100DE CASTRO LOUR ENG IND LTDA                                           00000000341000000000000000000000000000008782051900000023399955803026636 0     201212192012082200000000055520000941086000000000968851000000000000000000000000027765050000000000  3020130103   01          2                                                                                   3112339995584036884500400069                                                  N                     01321  0000000        000044
12047190731000100DE CASTRO LOUR ENG IND LTDA                                           00000000341000000000000000000000000000008782052000000023399955303026632 0     201209192012082200000000054610000952073000000001150505000000000000000000000000198432050000000000  3020130103   01          2                                                                                   3112339995535036884500400019                                                  N                     01321  0000000        000045
12047190731000100DE CASTRO LOUR ENG IND LTDA                                           00000000341000000000000000000000000000008782052100000023399955903026643 0     201209202012082300000000054620000867039000000001046064000000000000000000000000179025050000000000  3020130103   01          2                                                                                   3112339995592036884500400049                                                  N                     01321  0000000        000046
12047190731000100DE CASTRO LOUR ENG IND LTDA                                           00000000341000000000000000000000000000008782052300000023399955503026632 0     201212192012082200000000055520000952358000000000980453000000000000000000000000028095050000000000  3020130103   01          2                                                                                   3112339995550036884500400039                                                  N                     01321  0000000        000047
12047190731000100DE CASTRO LOUR ENG IND LTDA                                           00000000341000000000000000000000000000008782052500000023399955603026636 0     201209192012082200000000054610000940804000000001136904000000000000000000000000196100050000000000  3020130103   01          2                                                                                   3112339995568036884500400049                                                  N                     01321  0000000        000048
12047190731000100DE CASTRO LOUR ENG IND LTDA                                           00000000341000000000000000000000000000008782052700000023399956203026648 0     201209202012082300000000054620000976053000000001177653000000000000000000000000201600050000000000  3020130103   01          2                                                                                   3112339995626036884500400029                                                  N                     01321  0000000        000049
12047190731000100DE CASTRO LOUR ENG IND LTDA                                           00000000341000000000000000000000000000008782052900000023399956403026648 0     201212202012082300000000055530000976344000000001003224000000000000000000000000026880050000000000  3020130103   01          2                                                                                   3112339995642036884500400059                                                  N                     01321  0000000        000050
12047190731000100DE CASTRO LOUR ENG IND LTDA                                           00000000341000000000000000000000000000008782053300000023399956103026643 0     201212202012082300000000055530000867297000000000891181000000000000000000000000023884050000000000  3020130103   01          2                                                                                   3112339995618036884500400059                                                  N                     01321  0000000        000051
12047190731000100DE CASTRO LOUR ENG IND LTDA                                           00000000341000000000000000000000000000008782059200000023602715103026744 0     201212262012082900000000055590000146636000000000148940000000000000000000000000002304050000000000  3020130103   01          2                                                                                   3112360271517036884500400019                                                  N                     01321  0000000        000052
12047190731000100DE CASTRO LOUR ENG IND LTDA                                           00000000341000000000000000000000000000008782059600000023602714803026734 0     201212252012082800000000055580000998134000000001015801000000000000000000000000017667050000000000  3020130103   01          2                                                                                   3112360271483036884500400059                                                  N                     01321  0000000        000053
12047190731000100DE CASTRO LOUR ENG IND LTDA                                           00000000341000000000000000000000000000008782059700000023602715403026745 0     201212262012082900000000055590000903448000000000917664000000000000000000000000014216050000000000  3020130103   01          2                                                                                   3112360271541036884500400019                                                  N                     01321  0000000        000054
12047190731000100DE CASTRO LOUREIRO ENGENHARIA                                         0000000023703394400000000205508 000000008801224900202255000000803026784 0     201212282012083100000000055610001042070000000001052492000000000000000000000000010422050000000000  3020130103   01          2  RUA JUNO  533                                                                    300000000000000000001500  000000000000000                                     N                     00598  0000000        000055
12047190731000100DE CASTRO LOUREIRO ENGENHARIA                                         0000000023703394400000000205508 000000008801225200202255000001103026787 0     201212282012083100000000055610001136326000000001147690000000000000000000000000011364050000000000  3020130103   01          2  RUA JUNO  533                                                                    300000000000000000001500  000000000000000                                     N                     00598  0000000        000056
12047190731000100DE CASTRO LOUREIRO ENGENHARIA                                         0000000023703394400000000205508 000000008801225500202255000001403026794 0     201212312012090300000000055640001209490000000001215538000000000000000000000000006048050000000000  3020130103   01          2  RUA JUNO  533                                                                    300000000000000000141500  000000000000000                                     N                     00598  0000000        000057
12047190731000100DE CASTRO LOUREIRO ENGENHARIA                                         0000000023703394400000000205508 000000008801225800202255000001703026795 0     201212312012090300000000055640001207915000000001213954000000000000000000000000006039050000000000  3020130103   01          2  RUA JUNO  533                                                                    300000000000000000001500  000000000000000                                     N                     00598  0000000        000058
12048775225000146SEIKI IND COM E CONFECCOES LTD                                        000000003410000000000000000000000000000089337376000000244697151014914001      201210232012092500000000054950000052000000000000057616000000000000000000000000005616050000000000  3020130103   01          2                                                                                   3112446971510017444824100089                                                  N                     01321  0000000        000059
12056993512000150CYKLOP DO BRASIL EMBALAGENS SA                                        0000000034100000000000000000000000000000874070500000002362586810134932        201210012012090300000000054730000083607000000000112465000000000000000000000000028858050000000000  3020130103   01          2                                                                                   3112362586813025700015800019                                                  N                     01321  0000000        000060
12062510367000102ITANHAEM TRANSP DE MAQUINAS LT                                        000000003410000000000000000000000000000087407049000000236463199667            201209202012090400000000054620000248220000000000352485000000000000000000000000104265050000000000  3020130103   01          2                                                                                   3112364631997005770252400049                                                  N                     01321  0000000        000061
12062539994000176LEALFER INDUSTRIA E COMERCIO D                                        0000000003300000000000000000000000000000902449840000000700000000005648903     201301012012100900000000055650000447825000000000449347000000000000000000000000001522050000000000  3020130103   01          2                                                                                   3915298380000000280607010459                                                  N                     01321  0000000        000062
12062539994000176LEALFER INDUSTRIA E COMERCIO D                                        0000000003300000000000000000000000000000919321980000007000000000005797002     201301022012110600000000055660000591706000000000592711000000000000000000000000001005050000000000  3020130103   01          2                                                                                   3915298380000000292370010419                                                  N                     01321  0000000        000063
12062539994000176LEALFER INDUSTRIA E COMERCIO D                                        0000000003300000000000000000000000000000919322000000000000000000005796702     201301022012110600000000055660000298074000000000298580000000000000000000000000000506050000000000  3020130103   01          2                                                                                   3915298380000000292400010439                                                  N                     01321  0000000        000064
12062539994000176LEALFER INDUSTRIA E COMERCIO D                                        0000000003300000000000000000000000000000910265800000000400000000005732502     201212202012102400000000055530000828586000000000837037000000000000000000000000009859050000000000  3020121226   05          3                                                                                   3915298380000000285404010479                                                  N                     01321  0000000        000065
12062539994000176LEALFER INDUSTRIA E COMERCIO D                                        0000000003300000000000000000000000000000919322010000002200000000005787002     201301012012110500000000055650000596925000000000598954000000000000000000000000002029050000000000  3020130103   01          2                                                                                   3915298380000000292222010429                                                  N                     01321  0000000        000066
12062539994000176LEALFER INDUSTRIA E COMERCIO D                                        0000000003300000000000000000000000000000919322030000004900000000005786802     201301012012110500000000055650000838712000000000841563000000000000000000000000002851050000000000  3020130103   01          2                                                                                   3915298380000000292249010489                                                  N                     01321  0000000        000067
12062539994000176LEALFER IN E COM DE ACO LTDA                                          0000000034100000000000000000000000000000906662640000002514608450005682602     201212242012101600000000055570001940442000000001940442000000000000000000000000000000050000000000  3020121224   06          3                                                                                   3112514608457076103324000019                                                  N                     01321  0000000        000068
12062539994000176LEALFER INDUSTRIA E COMERCIO D                                        0000000003300000000000000000000000000000893373830000000800000000005576003     201212202012092600000000055530000243236000000000245721000000000000000000000000002899050000000000  3020121226   05          3                                                                                   3915298380000000274208010419                                                  N                     01321  0000000        000069
12062539994000176LEALFER INDUSTRIA E COMERCIO D                                        0000000003300000000000000000000000000000893373840000001600000000005580303     201212202012092700000000055530000451213000000000455815000000000000000000000000005369050000000000  3020121226   05          3                                                                                   3915298380000000274216010419                                                  N                     01321  0000000        000070
12062539994000176LEALFER INDUSTRIA E COMERCIO D                                        0000000003300000000000000000000000000000893373850000002700000000005568403     201212192012092500000000055520000891184000000000898759000000000000000000000000009090050000000000  3020121224   05          3                                                                                   3915298380000000274127010419                                                  N                     01321  0000000        000071
12062539994000176LEALFER INDUSTRIA E COMERCIO D                                        0000000003300000000000000000000000000000893373880000005900000000005575003     201212202012092600000000055530000300979000000000304048000000000000000000000000003580050000000000  3020121226   05          3                                                                                   3915298380000000274259010429                                                  N                     01321  0000000        000072
12062539994000176LEALFER INDUSTRIA E COMERCIO D                                        0000000003300000000000000000000000000000893373990000001900000000005563003     201212192012092500000000055520000136948000000000138112000000000000000000000000001396050000000000  3020121224   05          3                                                                                   3915298380000000274119010469                                                  N                     01321  0000000        000073
12066841552000130R V SEG PATRIMONIAL LTDA                                              00000000341000000000000000000000000000008852483200000090002192721927          201209102012081000000000054520000483241000000000501756000000000000000000000000018515050000000000  3020130103   01          2                                                                                   3109000219270001835253400099                                                  N                     01321  0000000        000074
12069284248000128ISOCOAT TINTAS E VERNIZES LTDA                                        0000000034100000000000000000000000000000915733990000002553088040057592        201212312012110100000000055640000093324000000000094071000000000000000000000000000747050000000000  3020130103   01          2                                                                                   3112553088041077430121200019                                                  N                     01321  0000000        000075
12069284248000128ISOCOAT TINTAS E VERNIZES LTDA                                        0000000034100000000000000000000000000000915734030000002553088170057607        201212312012110100000000055640000284264000000000286538000000000000000000000000002274050000000000  3020130103   01          2                                                                                   3112553088173077430121200059                                                  N                     01321  0000000        000076
12069284248000128ISOCOAT TINTAS E VERNIZES LTDA                                        0000000034100000000000000000000000000000841061040000002182507930052085        201209172012070200000000054590000236130000000000304170000000000000000000000000068040050000000000  3020130103   01          2                                                                                   3112182507932077430121200019                                                  N                     01321  0000000        000077
900007800000000048739904                                                                                                                                                                                                                                                                                                                                                                                                                                                                01321  0000000        000078
