0000147602043799295000110ALTAMIRA INDUSTRIA METALURGICA LT       202000000011920120904060756             1                                                                                                                                                                                                                                                                                                                                                                                                    000001
12000365592000145AMPRO LABORATORIO E ENGENHARIA                                        00000000001000000000000000000000000000008723186200000000520500003316A         201209292012083100000000054710000083233000000000083233000000000000000000000000000000050000000000  3020121001   01FS        1                                                                                   3000000133159100000052051749                                                  N                     01321  0000000        000002
12001820981000186IND COM ESCADAS FORTUNATO LTDA                                        0000000034100000000000000000000000000000851529280000006139993702966           201208242012072500000000054350000099700000000000099700000000000000000000000000000000050000000000  3020120824   05          3                                                                                   3156139993703076466994100019                                                  N                     01321  0000000        000003
12002583013000166ITAN TRANSPORTES DE CARGAS EXC                                        0000000023701212200000000002208 000000008723186800902247000000200667          201209202012090300000000054620000248220000000000248220000000000000000000000000000000050000000000  3020120920   01FS        1  RUA GANGES 528                                                                   3                         000000000000000                                     N                     00598  0000000        000004
12003489596000123BEND FLEX I COMERCIO LTDA                                             000000003410000000000000000000000000000087231864000000793891785617            201210012012090300000000054730000722200000000000722200000000000000000000000000000000050000000000  3020121001   01FS        1                                                                                   3157938917859157734445800069                                                  N                     01321  0000000        000005
12005151518000140BELENUS DO BRASIL LTDA                                                0000000023703389800000000015091 0000000083945276009021860002352R128108022     201208252012062600000000054360000576000000000000593109000000000000000000000000019010050000000000  3020120903   06          3  RUA GANGES  528                                                                  3                         000000000000000                                     N                     00598  0000000        000006
12005335228000156DINAMICA INF E TELECOM LTDA EP                                        0000000023703257300000000503215 0000000086455447009032570016796MO008820A      201208302012080600000000054410000020000000000000020335000000000000000000000000000335050000000000  3020120904   01          2  RUA JUNO  533                                                                    3                         000000000000000                                     N                     00598  0000000        000007
12006000195000156M B A MERCANTIL BRASILEIRA DE                                         0000000023700118P00000002130599 00000000853154980020220900000440008967B01     201208232012072400000000054340000135605000000000138317000000000000000000000000002712050000000000  3020120904   01          2  RUA JUNO  533                                                                    3                         000000000000000                                     N                     00598  0000000        000008
12006000195000156M B A MERCANTIL BRASILEIRA DE                                         0000000023700118P00000002130599 00000000853155100020220900000700008987B01     201208232012072500000000054340000216623000000000220955000000000000000000000000004332050000000000  3020120904   01          2  RUA JUNO  533                                                                    3                         000000000000000                                     N                     00598  0000000        000009
12006000195000156M B A MERCANTIL BRASILEIRA DE                                         0000000000100000000000000000000000000000834820180000002571500000008651B02     201208212012062600000000054320000426600000000000430866000000000000000000000000004977050000000000  3020120827   05          3                                                                                   3043852571503333000105251189                                                  N                     01321  0000000        000010
12006000195000156M B A MERCANTIL BRASILEIRA DE                                         0000000023700118P00000002130599 00000000853155010020220900000510008971B01     201208212012072400000000054320000170465000000000172737000000000000000000000000002556050000000000  3020120829   05          3  RUA JUNO  533                                                                    3                         000000000000000                                     N                     00598  0000000        000011
12006000195000156M B A MERCANTIL BRASILEIRA DE                                         0000000023700118P00000002130599 00000000853155040020220900000640008985B01     201208222012072500000000054330000163122000000000165026000000000000000000000000002176050000000000  3020120829   05          3  RUA JUNO  533                                                                    3                         000000000000000                                     N                     00598  0000000        000012
12006000195000156M B A MERCANTIL BRASILEIRA DE                                         0000000023700118P00000002130599 00000000853155070020220900000670008986B01     201208222012072500000000054330000145725000000000147426000000000000000000000000001944050000000000  3020120829   05          3  RUA JUNO  533                                                                    3                         000000000000000                                     N                     00598  0000000        000013
12008508119000181DINARI FOMENTO MERCANTIL LTDA                                         0000000023702499600000000178306 0000000086282617002022260000005206 A          201208312012081000000000054420000170000000000000177140000000000000000000000000007140050000000000  3020120904   01          2  RUA JUNO  533 VL N MANCHESTER SAO PAULO PANKRO LOGISTICA E TRANSPORTES LTDA EPP  3                         002269980000158                                     N                     00598  0000000        000014
12012006058000121WEG TINTAS LTDA                                                       0000000023702727800000000001309 00000000844839220090219500000710015168701     201208262012071200000000054370000306569000000000310241000000000000000000000000003672050000000000  3020120904   01          2  R JUNO  533                                                                      3                         000000000000000                                     N                     00598  0000000        000015
12012006058000121WEG TINTAS LTDA                                                       0000000023702727800000000001309 00000000872318660090224700001040016359602     201210302012083100000000055020000459854000000000459854000000000000000000000000000000050000000000  3020121030   01FS        1  R JUNO  533                                                                      3                         000000000000000                                     N                     00598  0000000        000016
12012006058000121WEG TINTAS LTDA                                                       0000000023702727800000000001309 00000000834820630090217900000750014773902     201208252012062600000000054360000306569000000000310649000000000000000000000000004080050000000000  3020120904   01          2  R JUNO  533                                                                      3                         000000000000000                                     N                     00598  0000000        000017
12012006058000121WEG TINTAS LTDA                                                       0000000023702727800000000001309 00000000828904040090217000001030014515403     201208292012061500000000054400000459992000000000463670000000000000000000000000003678050000000000  3020120904   01          2  R JUNO  533                                                                      3                         000000000000000                                     N                     00598  0000000        000018
12012006058000121WEG TINTAS LTDA                                                       0000000023702727800000000001309 00000000872318670090224700001050016359603     201211142012083100000000055170000459992000000000459992000000000000000000000000000000050000000000  3020121114   01FS        1  R JUNO  533                                                                      3                         000000000000000                                     N                     00598  0000000        000019
12012006058000121WEG TINTAS LTDA                                                       0000000023702727800000000001309 00000000824820170090216300000890014374203     201208222012060800000000054330000459992000000000467348000000000000000000000000007969050000000000  3020120903   06          3  R JUNO  533                                                                      3                         000000000000000                                     N                     00598  0000000        000020
12012006058000121WEG TINTAS LTDA                                                       0000000023702727800000000001309 00000000841061120090218800000840014990202     201209032012070500000000054450000306569000000000306977000000000000000000000000000408050000000000  3020120904   01          2  R JUNO  533                                                                      3                         000000000000000                                     N                     00598  0000000        000021
12012006058000121WEG TINTAS LTDA                                                       0000000023702727800000000001309 00000000847452140090220000000910015248101     201208312012071700000000054420000306569000000000308201000000000000000000000000001632050000000000  3020120904   01          2  R JUNO  533                                                                      3                         000000000000000                                     N                     00598  0000000        000022
12012006058000121WEG TINTAS LTDA                                                       0000000023702727800000000001309 00000000842436820090219200000840015068801     201208232012070900000000054340000306569000000000311465000000000000000000000000004896050000000000  3020120904   01          2  R JUNO  533                                                                      3                         000000000000000                                     N                     00598  0000000        000023
12012006058000121WEG TINTAS LTDA                                                       0000000023702727800000000001309 00000000849855320090220500001200015343101     201209032012072000000000054450000306569000000000306977000000000000000000000000000408050000000000  3020120904   01          2  R JUNO  533                                                                      3                         000000000000000                                     N                     00598  0000000        000024
12012006058000121WEG TINTAS LTDA                                                       0000000023702727800000000001309 00000000827244630090216600000720014454803     201208272012061300000000054380000306662000000000309926000000000000000000000000003264050000000000  3020120904   01          2  R JUNO  533                                                                      3                         000000000000000                                     N                     00598  0000000        000025
12012006058000121WEG TINTAS LTDA                                                       0000000023702727800000000001309 00000000872318650090224700001030016359601     201210152012083100000000054870000459854000000000459854000000000000000000000000000000050000000000  3020121015   01FS        1  R JUNO  533                                                                      3                         000000000000000                                     N                     00598  0000000        000026
12014309992000148WEG DRIVES   CONTROLS   AUTOMA                                        0000000023702727800000000001872 00000000816237730090214600002430004866102     201208232012042500000000054340000027620000000000028052000000000000000000000000000432050000000000  3020120904   01          2  R JUNO  533                                                                      3                         000000000000000                                     N                     00598  0000000        000027
12014309992000148WEG DRIVES   CONTROLS   AUTOMA                                        0000000023702727800000000001872 00000000852309230090220800002970008379601     201208232012072400000000054340000107136000000000108840000000000000000000000000001704050000000000  3020120904   01          2  R JUNO  533                                                                      3                         000000000000000                                     N                     00598  0000000        000028
12033325184001786ALSCO TOALHEIRO BRASIL                                                0000000023703396000000001490850 0000000086196030009000002679805VM26798        201208302012081000000000054410000052584000000000052849000000000000000000000000000265050000000000  3020120904   01          2  RUA  GANGES 528                                                                  3                         000000000000000                                     N                     00598  0000000        000029
12035820448000136WHITE MARTINS GASES INDUSTRIAI                                        0000000023700026400000003937925 0000000085861656009022190000404361579 001     201208312012080400000000054420000162300000000000166410000000000000000000000000004110050000000000  3020120904   01          2  RUA GANGES  528                                                                  3                         000000000000000                                     N                     00598  0000000        000030
12035820448000136WHITE MARTINS GASES INDUSTRIAI                                        0000000023700026400000003937925 0000000085771861009022160000641360709 001     201208292012080300000000054400000162300000000000166842000000000000000000000000004542050000000000  3020120904   01          2  RUA GANGES  528                                                                  3                         000000000000000                                     N                     00598  0000000        000031
12035820448000136WHITE MARTINS GASES INDUSTRIAI                                        0000000023700026400000003937925 0000000085607119009022140004425360193 001     201208282012073100000000054390000081150000000000083529000000000000000000000000002379050000000000  3020120904   01          2  RUA GANGES  528                                                                  3                         000000000000000                                     N                     00598  0000000        000032
12035820448000136WHITE MARTINS GASES INDUSTRIAI                                        0000000023700026400000003937925 0000000085315496009022090010244358059 001     201208232012072700000000054340000017600000000000018228000000000000000000000000000628050000000000  3020120904   01          2  RUA GANGES  528                                                                  3                         000000000000000                                     N                     00598  0000000        000033
12035820448000136WHITE MARTINS GASES INDUSTRIAI                                        0000000023700026400000003937925 0000000085315497009022090011903358519 001     201208232012072700000000054340000056805000000000058853000000000000000000000000002048050000000000  3020120904   01          2  RUA GANGES  528                                                                  3                         000000000000000                                     N                     00598  0000000        000034
12043217850000159IOB INFORMACOES OBJ  PUBL JURI                                        0000000023702374400000002958600 000000008540495200902212000099001440820E4     201208202012073000000000054310000072850000000000074667000000000000000000000000001817050000000000  3020120904   01          2  GANGES 528 VL NOVA MANCHESTER                                                    3                         000000000000000                                     N                     00598  0000000        000035
12043298975000150JOMARCA INDL DE PARAFUSOS LTDA                                        0000000003300000000000000000000000000000872318710000009400000000156043 03     201211292012083100000000055320000147720000000000147720000000000000000000000000000000050000000000  3020121129   01FS        1                                                                                   3935059520000000500194010419                                                  N                     01321  0000000        000036
12043298975000150JOMARCA INDL DE PARAFUSOS LTDA                                        0000000003300000000000000000000000000000872318700000007800000000156043 01     201209302012083100000000054720000192036000000000192036000000000000000000000000000000050000000000  3020121001   01FS        1                                                                                   3935059520000000500178010429                                                  N                     01321  0000000        000037
12043298975000150JOMARCA INDL DE PARAFUSOS LTDA                                        0000000003300000000000000000000000000000872318690000008600000000156043 02     201210302012083100000000055020000147720000000000147720000000000000000000000000000000050000000000  3020121030   01FS        1                                                                                   3935059520000000500186010419                                                  N                     01321  0000000        000038
12044098788000196MAIAMI COM E IMP DE ROLAMENTOS                                        0000000023700503700000000367516 000000008560712000902214000000409853          201208282012073100000000054390000020440000000000020909000000000000000000000000000469050000000000  3020120904   01          2  RUA GANGES 528 VL CARRAO                                                         3                         000000000000000                                     N                     00598  0000000        000039
12051598472000129ELETRICA J SANTOS                                                     0000000023702451100000000000264 000000008586165500902219000005118310 01       201209012012080400000000054430000104146000000000105187000000000000000000000000001041050000000000  3020120904   01          2  R JUNO  533                                                                      3                         000000000000000                                     N                     00598  0000000        000040
12051598472000129ELETRICA J SANTOS                                                     0000000023702451100000000000264 000000008523091800902208000003817933 01       201208222012072500000000054330000112770000000000114650000000000000000000000000002256050000000000  3020120827   05          3  R JUNO  533                                                                      3                         000000000000000                                     N                     00598  0000000        000041
12051598472000129ELETRICA J SANTOS                                                     0000000023702451100000000000264 000000008523091900902208000003917933 02       201208312012072500000000054420000112771000000000114275000000000000000000000000001504050000000000  3020120904   01          2  R JUNO  533                                                                      300000000000000000141500  000000000000000                                     N                     00598  0000000        000042
12057158057000130COMERCIAL ELETRICA PJ LTDA                                            0000000023703394400000000972983 00000000842436850090219200008900000305028     201208012012070400000000054120000079196000000000088138000000000000000000000000008942050000000000  3020120904   01          2  R TAMAINDE 1410                                                                  3                         000000000000000                                     N                     00598  0000000        000043
12058616418000108BANCO FIBRA S A                                                       0000000023702372800000000016683 00000000854049590090221200026624782001        201208312012073000000000054420000076146000000000076958000000000000000000000000000812050000000000  3020120904   01          2  RUA GANGES  528                         NEGRETTI PROD SIDERURGICOS LTD           3                         096593173000130                                     N                     00598  0000000        000044
12061174652000137METALURGICA SCHIOPPA LTDA                                             0000000023703392800000001071602 0000000086120725002022220000022110191 001     201209032012080200000000054450000075159000000000075409000000000000000000000000000250050000000000  3020120904   01          2  RUA GANGES 528                                                                   3                         000000000000000                                     N                     00598  0000000        000045
12061600839000155CENTRO DE INT EMPRESA ESCOLA C                                        0000000023703391P00000000866202 00000000862826140090000035804197641C 0001     201208312012081000000000054420000016800000000000016965000000000000000000000000000220050000000000  3020120903   06          3  R GANGES  528                                                                    3                         000000000000000                                     N                     00598  0000000        000046
12062173661000176INDUFIX IND E COM LTDA                                                0000000023704130000000000085898 000000008550289800702213000001000035860 B     201208302012071600000000054410000057190000000000057665000000000000000000000000000475050000000000  3020120904   01          2  RUA GANGES 528                                                                   3                         000000000000000                                     N                     00598  0000000        000047
12062340989000130EDICOES ADUANEIRAS LTDA                                               0000000023703090200000000015660 0000000079108231009080000035029004262 C       201208302012041100000000054410000043600000000000043960000000000000000000000000000360050000000000  3020120904   01          2  RUA TAMAINDE 1410 RUA GANGES 520 E 528                                           3                         000000000000000                                     N                     00598  0000000        000048
12065000655000105HILTI DO BRASIL COMERCIAL LTDA                                        0000000023703396000000000243787 00000000854049530090221200002670002106001     201208262012072700000000054370000029613000000000030144000000000000000000000000000531050000000000  3020120904   01          2  RUA TAMAINDE 1410                                                                3                         000000000000000                                     N                     00598  0000000        000049
12075483040000130REX MAQUINAS E EQUIPAMENTOS LT                                        0000000023702656500000000000701 000000008280180600202167000043573762 2 3      201208292012060600000000054400000434000000000000437615000000000000000000000000004338050000000000  3020120903   06          3  RUA  GANGES  528                                                                 3                         000000000000000                                     N                     00598  0000000        000050
12081560047000101ACEVILLE TRANSPORTES LTDA                                             0000000023702232200000000013536 0000000087231863009022320259757    259757     201209142012090300000000054560000024000000000000024000000000000000000000000000000000050000000000  3020120914   01FS        1  RUA JUNO                                                                         3                         000000000000000                                     N                     00598  0000000        000051
12092693118000160BRADESCO SAUDE S A                                                    0000000023700448000000001533991 00000000847452120050100745572410000000000     201208202012071700000000054310000645861000000000652101000000000000000000000000006240050000000000  3020120904   01          2                                                                                   3                         000000000000000                                     N                     00598  0000000        000052
900005300000000010798140                                                                                                                                                                                                                                                                                                                                                                                                                                                                00598  0000000        000053
