0000147602043799295000110ALTAMIRA INDUSTRIA METALURGICA LT       202000000009820120804060351             1                                                                                                                                                                                                                                                                                                                                                                                                    000001
12000193273000108TECELAGEM ROMA LTDA                                                   0000000023700284400000000410977 000000008374605100900000001581116213   B      201208032012062900000000054140000124248000000000125367000000000000000000000000001119050000000000  3020120806   01          2  RUA TAMAINDE 1410  1410                                                          3                         000000000000000                                     N                     00598  0000000        000002
12002460454000170AUT SERVICE COMERCIO E SERVICO                                        0000000023702591700000000007692 000000008321806000902174000000333816    2     201207312012062200000000054110000234958000000000248115000000000000000000000000013627050000000000  3020120803   06          3  JUNO 533                                                                         3                         000000000000000                                     N                     00598  0000000        000003
12004135061000117TEMA LOCACAO DE EQUIP LTDA EPP                                        000000003410000000000000000000000000000080282141000000299110823262 C          201207262012043000000000054060000484166000000000485780000000000000000000000000003228050000000000  3020120727   06          3                                                                                   3112991108237315023906300049                                                  N                     01321  0000000        000004
12006000195000156M B A MERCANTIL BRASILEIRA DE                                         0000000000100000000000000000000000000000798485080000008159900000007989B03     201207232012042500000000054030000392554000000000394516000000000000000000000000002616050000000000  3020120726   05          3                                                                                   3043688159903333000105251119                                                  N                     01321  0000000        000005
12006209559000102MAZURKY IND COM EMB LTDA                                              000000003410000000000000000000000000000084106106000000218465113009517 2       201207302012062500000000054100000052925000000000052925000000000000000000000000000000050000000000  3020120730   06          3                                                                                   3112184651134151434240900049                                                  N                     01321  0000000        000006
12006209559000102MAZURKY IND COM EMB LTDA                                              000000003410000000000000000000000000000084985526000000222532650009600 1       201207302012070200000000054100000084804000000000084804000000000000000000000000000000050000000000  3020120730   06          3                                                                                   3112225326506151434240900079                                                  N                     01321  0000000        000007
12008709272000177MULTIELETRICA C M E LTDA                                              000000003410000000000000000000000000000085771857000000900002204000002535A     201208212012072400000000054320000188888000000000188888000000000000000000000000000000050000000000  3020120821   01FS        1                                                                                   3109000022040075798525400069                                                  N                     01321  0000000        000008
12008709272000177MULTIELETRICA C M E LTDA                                              000000003410000000000000000000000000000085771858000000900002205000002535B     201208282012072400000000054390000188888000000000188888000000000000000000000000000000050000000000  3020120828   01FS        1                                                                                   3109000022057075798525400029                                                  N                     01321  0000000        000009
12008709272000177MULTIELETRICA C M E LTDA                                              000000003410000000000000000000000000000085771859000000900002206000002535C     201209042012072400000000054460000188888000000000188888000000000000000000000000000000050000000000  3020120904   01FS        1                                                                                   3109000022065075798525400069                                                  N                     01321  0000000        000010
12008709272000177MULTIELETRICA C M E LTDA                                              000000003410000000000000000000000000000085771860000000900002207000002535D     201209112012072400000000054530000188886000000000188886000000000000000000000000000000050000000000  3020120911   01FS        1                                                                                   3109000022073075798525400059                                                  N                     01321  0000000        000011
12009121184000112BBGE COBRANCA LTDA                                                    0000000023700368900000001026402 00000000839452800090218600000842581 CC        201208022012062100000000054130000154100000000000156156000000000000000000000000002056050000000000  3020120806   01          2  RUA GANGES  528                         MACKVEN MAQUINAS INDUSTRIAIS LTDA EPP    3                         005441222000163                                     N                     00598  0000000        000012
12009419898000101LUSITANO INDUSTRIA C E P LTDA                                         00000000341000000000000000000000000000008403132300000090000683301 9530 2      201207302012062500000000054100000035309000000000035309000000000000000000000000000000050000000000  3020120730   06          3                                                                                   3109000068338001101608600079                                                  N                     01321  0000000        000013
12012006058000121WEG TINTAS LTDA                                                       0000000023702727800000000001309 00000000812917760090214200000980013880203     201208012012051800000000054120000306662000000000307478000000000000000000000000001224050000000000  3020120803   06          3  R JUNO  533                                                                      3                         000000000000000                                     N                     00598  0000000        000014
12012006058000121WEG TINTAS LTDA                                                       0000000023702727800000000001309 00000000821490940090215600001070014231102     201207312012060100000000054110000459854000000000461693000000000000000000000000002452050000000000  3020120803   06          3  R JUNO  533                                                                      3                         000000000000000                                     N                     00598  0000000        000015
12012256386000186TOP TRAD SERVICOS DE TEXTOS LT                                        0000000023700200300000001062603 00000000850740700090132194025562718           201207272012071200000000054070000025600000000000026792000000000000000000000000001192050000000000  3020120806   01          2  R TAMANDE 1410                                                                   3                         000000000000000                                     N                     00598  0000000        000016
12033325184001786ALSCO TOALHEIRO BRASIL                                                0000000023703396000000001490850 0000000085771866009000028519503VM00285195     201209052012080300000000054470000026347000000000026347000000000000000000000000000000050000000000  3020120905   01FS        1  RUA  GANGES 528                                                                  3                         000000000000000                                     N                     00598  0000000        000017
12035820448000136WHITE MARTINS GASES INDUSTRIAI                                        0000000023700026400000003937925 0000000085771861009022160000641360709 001     201208292012080300000000054400000162300000000000162300000000000000000000000000000000050000000000  3020120829   01FS        1  RUA GANGES  528                                                                  3                         000000000000000                                     N                     00598  0000000        000018
12035820448000136WHITE MARTINS GASES INDUSTRIAI                                        0000000023700026400000003937925 0000000084172562009021910000022348496 001     201208022012070700000000054130000040575000000000041602000000000000000000000000001027050000000000  3020120806   01          2  RUA GANGES  528                                                                  3                         000000000000000                                     N                     00598  0000000        000019
12035820448000136WHITE MARTINS GASES INDUSTRIAI                                        0000000023700026400000003937925 0000000084172563009021910000296348716 001     201208032012070700000000054140000056805000000000058169000000000000000000000000001364050000000000  3020120806   01          2  RUA GANGES  528                                                                  3                         000000000000000                                     N                     00598  0000000        000020
12042956441000101SOLUCOES ACO USIMINAS                                                 0000000034100000000000000000000000000000821491030000002088005870016301002     201207272012053100000000054070000195530000000000195530000000000000000000000000000000050000000000  3020120727   06          3                                                                                   3112088005874293807258000079                                                  N                     01321  0000000        000021
12042956441000101SOLUCOES ACO USIMINAS                                                 0000000034100000000000000000000000000000821491040000002088005880016301202     201207272012053100000000054070000382589000000000382589000000000000000000000000000000050000000000  3020120727   06          3                                                                                   3112088005882293807258000089                                                  N                     01321  0000000        000022
12049318538000138COM DE FERRAM TERUYA LT                                               000000003410000000000000000000000000000085771846000000226677264190304 A       201208302012080200000000054410000031490000000000031490000000000000000000000000000000050000000000  3020120830   01FS        1                                                                                   3112266772642077000099000019                                                  N                     01321  0000000        000023
12054382510000108SETENTA IND E COM DE MADEIRAS                                         0000000034100000000000000000000000000000857718470000002200819994359 A         201208102012071200000000054210000191200000000000191200000000000000000000000000000000050000000000  3020120810   01FS        1                                                                                   3112200819996057002848000029                                                  N                     01321  0000000        000024
12054382510000108SETENTA IND E COM DE MADEIRAS                                         0000000034100000000000000000000000000000844839150000002200819994359 A         201208102012071200000000054210000191200000000000191200000000000000000000000000000000050000000000  3020120810   05          3                                                                                   3112200819996057049175300029                                                  N                     01321  0000000        000025
12056993900000131CIA METALURGICA PRADA                                                 0000000034100000000000000000000000000000822364930000002089776710024584702     201207272012060100000000054070000835797000000000835797000000000000000000000000000000050000000000  3020120727   06          3                                                                                   3112089776713293800573900019                                                  N                     01321  0000000        000026
12056993900000131CIA METALURGICA PRADA                                                 0000000034100000000000000000000000000000822364940000002089776720024585702     201207272012060100000000054070000393991000000000397276000000000000000000000000003942050000000000  3020120801   06          3                                                                                   3112089776721293800573900029                                                  N                     01321  0000000        000027
12056993900000131CIA METALURGICA PRADA                                                 0000000034100000000000000000000000000000837460350000002165934310025295701     201207262012062800000000054060000139947000000000139947000000000000000000000000000000050000000000  3020120726   06          3                                                                                   3112165934319293800573900089                                                  N                     01321  0000000        000028
12056993900000131CIA METALURGICA PRADA                                                 0000000034100000000000000000000000000000837460380000002165934280025295401     201207262012062800000000054060000153256000000000153256000000000000000000000000000000050000000000  3020120726   06          3                                                                                   3112165934285293800573900019                                                  N                     01321  0000000        000029
12056993900000131CIA METALURGICA PRADA                                                 0000000034100000000000000000000000000000837460390000002165934290025295501     201207262012062800000000054060000340067000000000340067000000000000000000000000000000050000000000  3020120726   06          3                                                                                   3112165934293293800573900089                                                  N                     01321  0000000        000030
12056993900000131CIA METALURGICA PRADA                                                 0000000034100000000000000000000000000000837460400000002165934300025295601     201207262012062800000000054060000154627000000000154627000000000000000000000000000000050000000000  3020120726   06          3                                                                                   3112165934301293800573900019                                                  N                     01321  0000000        000031
12056993900000131CIA METALURGICA PRADA                                                 0000000034100000000000000000000000000000821490990000002084501920024572502     201207262012053100000000054060000217291000000000219463000000000000000000000000002534050000000000  3020120801   06          3                                                                                   3112084501926293800573900059                                                  N                     01321  0000000        000032
12057158057000130COMERCIAL ELETRICA PJ LTDA                                            0000000023703394400000000972983 00000000842436850090219200008900000305028     201208012012070400000000054120000079196000000000080511000000000000000000000000001315050000000000  3020120806   01          2  R TAMAINDE 1410                                                                  3                         000000000000000                                     N                     00598  0000000        000033
12061217188000119TELAS METALICAS TELMETAL LTDA                                         0000000034100000000000000000000000000000851529080000009000028715291 1 3       201208012012070400000000054120000010721000000000010721000000000000000000000000000000050000000000  3020120801   06          3                                                                                   3109000028710077099894600059                                                  N                     01321  0000000        000034
12061217188000119TELAS METALICAS TELMETAL LTDA                                         0000000034100000000000000000000000000000851529140000009000028775293 1 3       201208012012070400000000054120000172174000000000172174000000000000000000000000000000050000000000  3020120801   06          3                                                                                   3109000028777077099894600019                                                  N                     01321  0000000        000035
12061217188000119TELAS METALICAS TELMETAL LTDA                                         0000000034100000000000000000000000000000851529110000009000028745292 1 3       201208012012070400000000054120000055684000000000055684000000000000000000000000000000050000000000  3020120801   06          3                                                                                   3109000028744077099894600019                                                  N                     01321  0000000        000036
12061217188000119TELAS METALICAS TELMETAL LTDA                                         0000000000100000000000000000000000000000830615600000000053790005193 3 3       201207302012061900000000054100000051399000000000051399000000000000000000000000000000050000000000  3020120730   06          3                                                                                   3000000115031800000053791749                                                  N                     01321  0000000        000037
12061217188000119TELAS METALICAS TELMETAL LTDA                                         0000000000100000000000000000000000000000830615660000000053820005194 3 3       201207302012061900000000054100000043420000000000043420000000000000000000000000000000050000000000  3020120730   06          3                                                                                   3000000115031800000053821769                                                  N                     01321  0000000        000038
12061217188000119TELAS METALICAS TELMETAL LTDA                                         0000000000100000000000000000000000000000830615690000000053850005195 3 3       201207302012061900000000054100000037286000000000037286000000000000000000000000000000050000000000  3020120730   06          3                                                                                   3000000115031800000053851719                                                  N                     01321  0000000        000039
12061217188000119TELAS METALICAS TELMETAL LTDA                                         0000000000100000000000000000000000000000857718480000000055770005438 1 3       201208292012080200000000054400000055680000000000055680000000000000000000000000000000050000000000  3020120829   01FS        1                                                                                   3000000115031800000055771779                                                  N                     01321  0000000        000040
12061217188000119TELAS METALICAS TELMETAL LTDA                                         0000000000100000000000000000000000000000857718490000000055780005438 2 3       201209052012080200000000054470000055680000000000055680000000000000000000000000000000050000000000  3020120905   01FS        1                                                                                   3000000115031800000055781719                                                  N                     01321  0000000        000041
12061217188000119TELAS METALICAS TELMETAL LTDA                                         0000000000100000000000000000000000000000857718500000000055790005438 3 3       201209122012080200000000054540000055680000000000055680000000000000000000000000000000050000000000  3020120912   01FS        1                                                                                   3000000115031800000055791769                                                  N                     01321  0000000        000042
12061217188000119TELAS METALICAS TELMETAL LTDA                                         0000000000100000000000000000000000000000857718510000000055830005442 1 3       201208292012080200000000054400000051615000000000051615000000000000000000000000000000050000000000  3020120829   01FS        1                                                                                   3000000115031800000055831719                                                  N                     01321  0000000        000043
12061217188000119TELAS METALICAS TELMETAL LTDA                                         0000000000100000000000000000000000000000857718520000000055840005442 2 3       201209052012080200000000054470000051613000000000051613000000000000000000000000000000050000000000  3020120905   01FS        1                                                                                   3000000115031800000055841719                                                  N                     01321  0000000        000044
12061217188000119TELAS METALICAS TELMETAL LTDA                                         0000000000100000000000000000000000000000857718530000000055850005442 3 3       201209122012080200000000054540000051613000000000051613000000000000000000000000000000050000000000  3020120912   01FS        1                                                                                   3000000115031800000055851759                                                  N                     01321  0000000        000045
12061217188000119TELAS METALICAS TELMETAL LTDA                                         0000000000100000000000000000000000000000857718540000000055860005443 1 3       201208292012080200000000054400000041346000000000041346000000000000000000000000000000050000000000  3020120829   01FS        1                                                                                   3000000115031800000055861769                                                  N                     01321  0000000        000046
12061217188000119TELAS METALICAS TELMETAL LTDA                                         0000000000100000000000000000000000000000857718550000000055870005443 2 3       201209052012080200000000054470000041345000000000041345000000000000000000000000000000050000000000  3020120905   01FS        1                                                                                   3000000115031800000055871739                                                  N                     01321  0000000        000047
12061217188000119TELAS METALICAS TELMETAL LTDA                                         0000000000100000000000000000000000000000857718560000000055880005443 3 3       201209122012080200000000054540000041345000000000041345000000000000000000000000000000050000000000  3020120912   01FS        1                                                                                   3000000115031800000055881789                                                  N                     01321  0000000        000048
12061683652000162TRANS FACE TRANSPORTES LTDA                                           0000000023700530400000000141828 0000000084895720009000000107009I000078506     201208022012071900000000054130000055000000000000055592000000000000000000000000000592050000000000  3020120806   01          2  R JUNO 553                                                                       3                         000000000000000                                     N                     00598  0000000        000049
12061763124000113COM TAMBORES PICILLO LTDA                                             0000000034100000000000000000000000000000846595650000002209122830000404601     201207302012071000000000054100000021600000000000021642000000000000000000000000000084050000000000  3020120731   06          3                                                                                   3112209122830005608672100099                                                  N                     01321  0000000        000050
12069284248000128ISOCOAT TINTAS E VERNIZES LTDA                                        0000000034100000000000000000000000000000819544880000002075795860050534        201207302012052900000000054100000133320000000000133320000000000000000000000000000000050000000000  3020120730   06          3                                                                                   3112075795867077430121200069                                                  N                     01321  0000000        000051
12071580302000124SANCHEPEL IND PAULISTA EMB L                                          0000000034100000000000000000000000000000838527950000002171127127125           201207292012070200000000054090000112700000000000112700000000000000000000000000000000050000000000  3020120730   06          3                                                                                   3112171127122007855578600049                                                  N                     01321  0000000        000052
12075483040000130REX MAQUINAS E EQUIPAMENTOS LT                                        0000000023702656500000000000701 000000008577186300202216000032078261 2 1      201208232012072600000000054340000499850000000000499850000000000000000000000000000000050000000000  3020120823   01FS        1  RUA  GANGES  528                                                                 3                         000000000000000                                     N                     00598  0000000        000053
12075483040000130REX MAQUINAS E EQUIPAMENTOS LT                                        0000000023702656500000000000701 000000008577186400202216000032178261 2 2      201209202012072600000000054620000384500000000000384500000000000000000000000000000000050000000000  3020120920   01FS        1  RUA  GANGES  528                                                                 3                         000000000000000                                     N                     00598  0000000        000054
12075483040000130REX MAQUINAS E EQUIPAMENTOS LT                                        0000000023702656500000000000701 000000008577186500202216000032278261 2 3      201210182012072600000000054900000384500000000000384500000000000000000000000000000000050000000000  3020121018   01FS        1  RUA  GANGES  528                                                                 3                         000000000000000                                     N                     00598  0000000        000055
12075483040000130REX MAQUINAS E EQUIPAMENTOS LT                                        0000000023702656500000000000701 000000008280180500202167000043473762 2 2      201208012012060600000000054120000434000000000000437615000000000000000000000000003615050000000000  3020120806   01          2  RUA  GANGES  528                                                                 3                         000000000000000                                     N                     00598  0000000        000056
12092693118000160BRADESCO SAUDE S A                                                    0000000023700448000000001533991 00000000829780050050100702629130000000000     201207202012061800000000054000000645861000000000652933000000000000000000000000007072050000000000  3020120806   01          2                                                                                   3                         000000000000000                                     N                     00598  0000000        000057
12096500087000135WORKBENCH CONSULTORIA S S LTDA                                        0000000034100000000000000000000000000000857718620000007898134153064           201208272012080300000000054380000131746000000000131746000000000000000000000000000000050000000000  3020120827   01FS        1                                                                                   3157898134156826313803700079                                                  N                     01321  0000000        000058
12096500087000135WORKBENCH CONSULTORIA S S LTDA                                        0000000034100000000000000000000000000000837460540000007852782813001           201207272012070200000000054070000131746000000000131746000000000000000000000000000000050000000000  3020120727   06          3                                                                                   3157852782818826313803700049                                                  N                     01321  0000000        000059
900006000000000010498601                                                                                                                                                                                                                                                                                                                                                                                                                                                                01321  0000000        000060
