0000147602043799295000110ALTAMIRA INDUSTRIA METALURGICA LT       202000000427620121105215903             3                                                                                                  000000000000000                                                                                                                                                                                                                                                                                   000001
11997198433000049ANTONIA PEREIRA DE SANTANA    TRAV TERRAS SUL 147 JD DA CONQUISTA     0834533023700298400000005101263 I000000000010124000000000000000               201211050000000000000000000000000000000000000000033348000000000000000000000000000000050000000010  0120121105   02BW        5000000               000000000000000                                               3                                          PENSAO REF.10/2012.                N                     01321 10020256        000002
12069284248000128ISOCOAT TINTAS E VERNIZES LTDA                                        0000000034100000000000000000000000000000888732890000002421485710055761        201211052012092100000000055080000107324000000000107324000000000000000000000000000000050000000000  3020121105   02BW        2000000               000000000000000                                               3112421485718077430121200079               055761/01                          N                     01132 10020256        000003
12047190731000100DE CASTRO LOUR ENG IND LTDA                                           00000000341000000000000000000000000000008996247800000024766209103027184 0     201211022012100500000000055050001153047000000001153047000000000000000000000000000000050000000000  3020121105   02BW        2000000               000000000000000                                               3112476620912036884500400019               27184/01                           N                     01132 10020256        000004
12042956441000101SOLUCOES ACO USIMINAS                                                 0000000034100000000000000000000000000000846595720000002210880300016980503     201211052012071200000000055080000156071000000000156071000000000000000000000000000000050000000000  3020121105   02BW        2000000               000000000000000                                               3112210880301293807258000029               0169805/03                         N                     01132 10020256        000005
12035820448000136WHITE MARTINS GASES INDUSTRIAI                                        0000000023700026400000003937925 0000000087820600009022540001838377866 001     201210042012090700000000054760000202876000000000209109000000000000000000000000008409050000000000  3020121105   02BW        2000000               000000000000000                                               3                         000000000000000  9105                               N                     01079 10020256        000006
12035820448000136WHITE MARTINS GASES INDUSTRIAI                                        0000000023700026400000003937925 0000000088191338009022570001466379316 001     201210092012091300000000054810000085208000000000087668000000000000000000000000003216050000000000  3020121105   02BW        2000000               000000000000000                                               3                         000000000000000  9130                               N                     01079 10020256        000007
12035820448000136WHITE MARTINS GASES INDUSTRIAI                                        0000000023700026400000003937925 0000000089605045009022790001498389880 001     201211012012100500000000055040000040575000000000041442000000000000000000000000000923050000000000  3020121105   02BW        2000000               000000000000000                                               3                         000000000000000  9255/1                             N                     01079 10020256        000008
12047190731000100DE CASTRO LOUREIRO ENGENHARIA                                         0000000023703394400000000205508 000000008801225300202255000001203026794 0     201211052012090300000000055080001209130000000001209130000000000000000000000000000000050000000000  3020121105   02BW        2000000               000000000000000                                               3                         000000000000000  26794/01                           N                     01079 10020256        000009
12047190731000100DE CASTRO LOUREIRO ENGENHARIA                                         0000000023703394400000000205508 000000008801225600202255000001503026795 0     201211052012090300000000055080001207555000000001207555000000000000000000000000000000050000000000  3020121105   02BW        2000000               000000000000000                                               3                         000000000000000  026795/01                          N                     01079 10020256        000010
12011777156000108LOGBEM TRANSPORTES LTDA                                               0000000000100000 0000000000000  I000000000010123000000000000000               201211050000000000000000055080000230000000000000230000000000000000000000000000000000050000000295  3120121105   02BW        5000000               000000000000000                                               3000000220975900000002951739               295/12                             N                     01132 10020256        000011
12047190731000100DE CASTRO LOUREIRO ENGENHARIA                                         0000000003300000 0000000000000  I000000000010122000000000000000               201211050000000000000000055080000551107000000000551107000000000000000000000000000000010000026796  3120121105   02BW        5000000               000000000000000                                               3948430370000009553118010449               026796/01                          N                     01132 10020256        000012
12004643290000142FLEXTINTAS IND  E COM  LTDA                                           0000000034100000 0000000000000  I000000000010125000000000000000               201211050000000000000000055080000050680000000000050680000000000000000000000000000000010000037938  3120121105   02BW        5000000               000000000000000                                               3181573026371051356781800089               37938/A                            N                     01132 10020256        000013
12042956441000101SOLUCOES ACO USIMINAS                                                 0000000034100000000000000000000000000000846595730000002210880310016980603     201211052012071200000000055080000426094000000000426094000000000000000000000000000000050000000000  3020121105   02BW        2000000               000000000000000                                               3112210880319293807258000069               0169806/03                         N                     01132 10020256        000014
900001500000000005462575                                                                                                                                                                                    000000000000000                                                                                                                                                                                                                                                    00001300660300005419667        000015
