0000147602043799295000110ALTAMIRA INDUSTRIA METALURGICA LT       202000000012020120905060422             1                                                                                                                                                                                                                                                                                                                                                                                                    000001
12000193273000108TECELAGEM ROMA LTDA                                                   0000000023700284400000000410977 000000008729528300900000001755717246          201209282012083100000000054700000093186000000000093186000000000000000000000000000000050000000000  3020120928   01FS        1  RUA TAMAINDE 1410  1410                                                          3                         000000000000000                                     N                     00598  0000000        000002
12001951865000104FOUR FACTORING FOMENTO M LTDA                                         000000004220000000000000000000000000000086040342000000000000000194B           201209032012080600000000054450000145000000000000145965000000000000000000000000000965050000000000  3020120905   01          2                                                                                   3702000009214741910473293169                                                  N                     01321  0000000        000003
12005335228000156DINAMICA INF E TELECOM LTDA EP                                        0000000023703257300000000503215 0000000086455447009032570016796MO008820A      201208302012080600000000054410000020000000000000020402000000000000000000000000000402050000000000  3020120905   01          2  RUA JUNO  533                                                                    3                         000000000000000                                     N                     00598  0000000        000004
12005852768000107DAOUD LEAL ELETRONICA LTDA ME                                         00000000033000000000000000000000000000008619603100000050000000000000000001097 201208262012080900000000054370000016558000000000017439000000000000000000000000000881050000000000  3020120905   01          2                                                                                   3949927090000000026050010479                                                  N                     01321  0000000        000005
12006000195000156M B A MERCANTIL BRASILEIRA DE                                         0000000023700118P00000002128292 00000000837460650090218400000230008735B02     201208272012062900000000054380000363852000000000363852000000000000000000000000000000050000000000  3020120827   05          3  RUA JUNO  533                                                                    3                         000000000000000                                     N                     00598  0000000        000006
12006000195000156M B A MERCANTIL BRASILEIRA DE                                         0000000023700118P00000002130599 00000000853154980020220900000440008967B01     201208232012072400000000054340000135605000000000138543000000000000000000000000002938050000000000  3020120905   01          2  RUA JUNO  533                                                                    3                         000000000000000                                     N                     00598  0000000        000007
12006000195000156M B A MERCANTIL BRASILEIRA DE                                         0000000023700118P00000002130599 00000000853155100020220900000700008987B01     201208232012072500000000054340000216623000000000221316000000000000000000000000004693050000000000  3020120905   01          2  RUA JUNO  533                                                                    3                         000000000000000                                     N                     00598  0000000        000008
12006000195000156MBA MERCANTIL BRAS DE ACO LTDA                                        0000000034100000000000000000000000000000872952960000002358952460009420B01     201209282012083100000000054700000953214000000000953214000000000000000000000000000000050000000000  3020120928   01FS        1                                                                                   3112358952466064899001800099                                                  N                     01321  0000000        000009
12006000195000156MBA MERCANTIL BRAS DE ACO LTDA                                        0000000034100000000000000000000000000000872952970000002358952470009420B02     201210262012083100000000054980000953214000000000953214000000000000000000000000000000050000000000  3020121026   01FS        1                                                                                   3112358952474064899001800079                                                  N                     01321  0000000        000010
12006000195000156MBA MERCANTIL BRAS DE ACO LTDA                                        0000000034100000000000000000000000000000872952840000002358952080009373B01     201209262012082900000000054680000163501000000000163501000000000000000000000000000000050000000000  3020120926   01FS        1                                                                                   3112358952086064899001800069                                                  N                     01321  0000000        000011
12006000195000156MBA MERCANTIL BRAS DE ACO LTDA                                        0000000034100000000000000000000000000000872952850000002358952090009373B02     201210242012082900000000054960000142175000000000142175000000000000000000000000000000050000000000  3020121024   01FS        1                                                                                   3112358952094064899001800049                                                  N                     01321  0000000        000012
12006000195000156MBA MERCANTIL BRAS DE ACO LTDA                                        0000000034100000000000000000000000000000872952860000002358952290009401B02     201210252012083000000000054970000254800000000000254800000000000000000000000000000000050000000000  3020121025   01FS        1                                                                                   3112358952292064899001800099                                                  N                     01321  0000000        000013
12006000195000156MBA MERCANTIL BRAS DE ACO LTDA                                        0000000034100000000000000000000000000000872952870000002358952300009401B03     201211222012083000000000055250000254800000000000254800000000000000000000000000000000050000000000  3020121122   01FS        1                                                                                   3112358952300064899001800019                                                  N                     01321  0000000        000014
12006000195000156MBA MERCANTIL BRAS DE ACO LTDA                                        0000000034100000000000000000000000000000872952880000002358952120009374B02     201210242012082900000000054960000727811000000000727811000000000000000000000000000000050000000000  3020121024   01FS        1                                                                                   3112358952128064899001800049                                                  N                     01321  0000000        000015
12006000195000156MBA MERCANTIL BRAS DE ACO LTDA                                        0000000034100000000000000000000000000000872952890000002358952100009373B03     201211212012082900000000055240000142175000000000142175000000000000000000000000000000050000000000  3020121121   01FS        1                                                                                   3112358952102064899001800059                                                  N                     01321  0000000        000016
12006000195000156MBA MERCANTIL BRAS DE ACO LTDA                                        0000000034100000000000000000000000000000872952900000002358952110009374B01     201209262012082900000000054680000836983000000000836983000000000000000000000000000000050000000000  3020120926   01FS        1                                                                                   3112358952110064899001800069                                                  N                     01321  0000000        000017
12006000195000156MBA MERCANTIL BRAS DE ACO LTDA                                        0000000034100000000000000000000000000000872952910000002358952130009374B03     201211212012082900000000055240000727811000000000727811000000000000000000000000000000050000000000  3020121121   01FS        1                                                                                   3112358952136064899001800019                                                  N                     01321  0000000        000018
12006000195000156MBA MERCANTIL BRAS DE ACO LTDA                                        0000000034100000000000000000000000000000872952920000002358952280009401B01     201209272012083000000000054690000254800000000000254800000000000000000000000000000000050000000000  3020120927   01FS        1                                                                                   3112358952284064899001800019                                                  N                     01321  0000000        000019
12006000195000156MBA MERCANTIL BRAS DE ACO LTDA                                        0000000034100000000000000000000000000000872952930000002358952480009420B03     201211232012083100000000055260000953213000000000953213000000000000000000000000000000050000000000  3020121123   01FS        1                                                                                   3112358952482064899001800069                                                  N                     01321  0000000        000020
12006000195000156M B A MERCANTIL BRASILEIRA DE                                         0000000023700118P00000002128292 00000000872953010090218400000230008735B02     201208272012062900000000054380000363852000000000363852000000000000000000000000000000050000000000  3020120905   01FS        1  RUA JUNO  533                                                                    3                         000000000000000                                     N                     00598  0000000        000021
12006000195000156M B A MERCANTIL BRASILEIRA DE                                         0000000023700118P00000002128292 00000000872953020090220800000320008988B01     201208282012072500000000054390000435679000000000435679000000000000000000000000000000050000000000  3020120905   01FS        1  RUA JUNO  533                                                                    3                         000000000000000                                     N                     00598  0000000        000022
12007477577000138HD LUB COMERCIO DE LUBRIFICANT                                        00000000033000000000000000000000000000008595907000000052000000036494 1        201208212012072400000000054320000045871000000000046998000000000000000000000000001288050000000000  3020120828   05          3                                                                                   3916643440000000270652010119                                                  N                     01321  0000000        000023
12008508119000181DINARI FOMENTO MERCANTIL LTDA                                         0000000023702499600000000178306 0000000086282617002022260000005206 A          201208312012081000000000054420000170000000000000177650000000000000000000000000007650050000000000  3020120905   01          2  RUA JUNO  533 VL N MANCHESTER SAO PAULO PANKRO LOGISTICA E TRANSPORTES LTDA EPP  3                         002269980000158                                     N                     00598  0000000        000024
12009080640000123SERVPAES LTDA ME                                                      000000001040000000000000000000000000000087295279000000000579200002400         201209102012090300000000054520000151000000000000151000000000000000000000000000000000050000000000  3020120910   01FS        1                                                                                   3900000057910868700000040919                                                  N                     01321  0000000        000025
12009338857000190FERNANDO  NAGAO  CARDONE  ALVA                                        000000000330000000000000000000000000000085959071000000430000000REEM 07 2012   201208102012072600000000054210000024134000000000026247000000000000000000000000002113050000000000  3020120905   01          2                                                                                   3947901700000051047543010139                                                  N                     01321  0000000        000026
12012006058000121WEG TINTAS LTDA                                                       0000000023702727800000000001309 00000000844839220090219500000710015168701     201208262012071200000000054370000306569000000000310649000000000000000000000000004080050000000000  3020120905   01          2  R JUNO  533                                                                      3                         000000000000000                                     N                     00598  0000000        000027
12012006058000121WEG TINTAS LTDA                                                       0000000023702727800000000001309 00000000828904040090217000001030014515403     201208292012061500000000054400000459992000000000464283000000000000000000000000004291050000000000  3020120905   01          2  R JUNO  533                                                                      3                         000000000000000                                     N                     00598  0000000        000028
12012006058000121WEG TINTAS LTDA                                                       0000000023702727800000000001309 00000000834820630090217900000750014773902     201208252012062600000000054360000306569000000000311057000000000000000000000000004488050000000000  3020120905   01          2  R JUNO  533                                                                      3                         000000000000000                                     N                     00598  0000000        000029
12012006058000121WEG TINTAS LTDA                                                       0000000023702727800000000001309 00000000841061120090218800000840014990202     201209032012070500000000054450000306569000000000307385000000000000000000000000000816050000000000  3020120905   01          2  R JUNO  533                                                                      3                         000000000000000                                     N                     00598  0000000        000030
12012006058000121WEG TINTAS LTDA                                                       0000000023702727800000000001309 00000000842436820090219200000840015068801     201208232012070900000000054340000306569000000000311873000000000000000000000000005304050000000000  3020120905   01          2  R JUNO  533                                                                      3                         000000000000000                                     N                     00598  0000000        000031
12012006058000121WEG TINTAS LTDA                                                       0000000023702727800000000001309 00000000847452140090220000000910015248101     201208312012071700000000054420000306569000000000308609000000000000000000000000002040050000000000  3020120905   01          2  R JUNO  533                                                                      3                         000000000000000                                     N                     00598  0000000        000032
12012006058000121WEG TINTAS LTDA                                                       0000000023702727800000000001309 00000000849855320090220500001200015343101     201209032012072000000000054450000306569000000000307385000000000000000000000000000816050000000000  3020120905   01          2  R JUNO  533                                                                      3                         000000000000000                                     N                     00598  0000000        000033
12012006058000121WEG TINTAS LTDA                                                       0000000023702727800000000001309 00000000827244630090216600000720014454803     201208272012061300000000054380000306662000000000310334000000000000000000000000003672050000000000  3020120905   01          2  R JUNO  533                                                                      3                         000000000000000                                     N                     00598  0000000        000034
12013656578000142GUARINOR TRANSP E LOGISTICA LT                                        000000001040000000000000000000000000000087295281000000000824400001074 12      201209052012081600000000054470000171300000000000171300000000000000000000000000000000050000000000  3020120905   01FS        1                                                                                   3900000082432958700000017329                                                  N                     01321  0000000        000035
12013656578000142GUARINOR TRANSP E LOGISTICA LT                                        000000001040000000000000000000000000000087295282000000000880500001166 12      201209112012082200000000054530000120100000000000120100000000000000000000000000000000050000000000  3020120911   01FS        1                                                                                   3900000088032958700000017339                                                  N                     01321  0000000        000036
12014309992000148WEG DRIVES   CONTROLS   AUTOMA                                        0000000023702727800000000001872 00000000816237730090214600002430004866102     201208232012042500000000054340000027620000000000028052000000000000000000000000000468050000000000  3020120904   06          3  R JUNO  533                                                                      3                         000000000000000                                     N                     00598  0000000        000037
12014309992000148WEG DRIVES   CONTROLS   AUTOMA                                        0000000023702727800000000001872 00000000852309230090220800002970008379601     201208232012072400000000054340000107136000000000108840000000000000000000000000001846050000000000  3020120904   06          3  R JUNO  533                                                                      3                         000000000000000                                     N                     00598  0000000        000038
12033325184001786ALSCO TOALHEIRO BRASIL                                                0000000023703396000000001490850 0000000086196030009000002679805VM26798        201208302012081000000000054410000052584000000000052902000000000000000000000000000318050000000000  3020120905   01          2  RUA  GANGES 528                                                                  3                         000000000000000                                     N                     00598  0000000        000039
12035820448000136WHITE MARTINS GASES INDUSTRIAI                                        0000000023700026400000003937925 0000000085771861009022160000641360709 001     201208292012080300000000054400000162300000000000167058000000000000000000000000004758050000000000  3020120905   01          2  RUA GANGES  528                                                                  3                         000000000000000                                     N                     00598  0000000        000040
12035820448000136WHITE MARTINS GASES INDUSTRIAI                                        0000000023700026400000003937925 0000000085315496009022090010244358059 001     201208232012072700000000054340000017600000000000018251000000000000000000000000000651050000000000  3020120905   01          2  RUA GANGES  528                                                                  3                         000000000000000                                     N                     00598  0000000        000041
12035820448000136WHITE MARTINS GASES INDUSTRIAI                                        0000000023700026400000003937925 0000000085861656009022190000404361579 001     201208312012080400000000054420000162300000000000166626000000000000000000000000004326050000000000  3020120905   01          2  RUA GANGES  528                                                                  3                         000000000000000                                     N                     00598  0000000        000042
12035820448000136WHITE MARTINS GASES INDUSTRIAI                                        0000000023700026400000003937925 0000000085607119009022140004425360193 001     201208282012073100000000054390000081150000000000083637000000000000000000000000002487050000000000  3020120905   01          2  RUA GANGES  528                                                                  3                         000000000000000                                     N                     00598  0000000        000043
12035820448000136WHITE MARTINS GASES INDUSTRIAI                                        0000000023700026400000003937925 0000000085315497009022090011903358519 001     201208232012072700000000054340000056805000000000058929000000000000000000000000002124050000000000  3020120905   01          2  RUA GANGES  528                                                                  3                         000000000000000                                     N                     00598  0000000        000044
12042956441000101SOLUCOES ACO USIMINAS                                                 0000000034100000000000000000000000000000861207220000002282166980017385801     201209042012080700000000054460000715010000000000716440000000000000000000000000001430050000000000  3020120905   01          2                                                                                   3112282166985293807258000089                                                  N                     01321  0000000        000045
12042956441000101SOLUCOES ACO USIMINAS                                                 0000000034100000000000000000000000000000840313020000002181699190016814402     201208272012070200000000054380000968423000000000985856000000000000000000000000017433050000000000  3020120905   01          2                                                                                   3112181699193293807258000019                                                  N                     01321  0000000        000046
12042956441000101SOLUCOES ACO USIMINAS                                                 0000000034100000000000000000000000000000840313030000002181699200016827102     201208272012070200000000054380000703010000000000715664000000000000000000000000012654050000000000  3020120905   01          2                                                                                   3112181699201293807258000019                                                  N                     01321  0000000        000047
12042956441000101SOLUCOES ACO USIMINAS                                                 0000000034100000000000000000000000000000840313060000002181699210016829702     201208272012070200000000054380000643712000000000655295000000000000000000000000011583050000000000  3020120905   01          2                                                                                   3112181699219293807258000089                                                  N                     01321  0000000        000048
12042956441000101SOLUCOES ACO USIMINAS                                                 0000000034100000000000000000000000000000840313070000002181699220016829802     201208272012070200000000054380000322528000000000328333000000000000000000000000005805050000000000  3020120905   01          2                                                                                   3112181699227293807258000029                                                  N                     01321  0000000        000049
12043217850000159IOB INFORMACOES OBJ  PUBL JURI                                        0000000023702374400000002958600 000000008540495200902212000099001440820E4     201208202012073000000000054310000072850000000000074691000000000000000000000000001841050000000000  3020120905   01          2  GANGES 528 VL NOVA MANCHESTER                                                    3                         000000000000000                                     N                     00598  0000000        000050
12044098788000196MAIAMI COM E IMP DE ROLAMENTOS                                        0000000023700503700000000367516 000000008560712000902214000000409853          201208282012073100000000054390000020440000000000020976000000000000000000000000000536050000000000  3020120905   01          2  RUA GANGES 528 VL CARRAO                                                         3                         000000000000000                                     N                     00598  0000000        000051
12051598472000129ELETRICA J SANTOS                                                     0000000023702451100000000000264 000000008586165500902219000005118310 01       201209012012080400000000054430000104146000000000105534000000000000000000000000001388050000000000  3020120905   01          2  R JUNO  533                                                                      3                         000000000000000                                     N                     00598  0000000        000052
12051598472000129ELETRICA J SANTOS                                                     0000000023702451100000000000264 000000008523091900902208000003917933 02       201209032012072500000000054450000112771000000000113147000000000000000000000000000752050000000000  3020120905   01          2  R JUNO  533                                                                      300000000000000000001500  000000000000000                                     N                     00598  0000000        000053
12053585766000141MULTIACOS INDUSTRIA E COMERCIO                                        0000000000100000000000000000000000000000860403380000009910810000004421901     201209032012080700000000054450000970754000000000973990000000000000000000000000003236050000000000  3020120905   01          2                                                                                   3043959910811912000139523179                                                  N                     01321  0000000        000054
12053585766000141MULTIACOS INDUSTRIA E COMERCIO                                        0000000000100000000000000000000000000000860403390000009910900000004429701     201209032012080700000000054450000643456000000000645600000000000000000000000000002144050000000000  3020120905   01          2                                                                                   3043959910901912000139523199                                                  N                     01321  0000000        000055
12054382510000108SETENTA IND E COM DE MADEIRAS                                         0000000034100000000000000000000000000000860403430000002277814474462 A         201209042012080700000000054460000191200000000000191576000000000000000000000000000376050000000000  3020120905   01          2                                                                                   3112277814474057049175300069                                                  N                     01321  0000000        000056
12056993900000131CIA METALURGICA PRADA                                                 0000000034100000000000000000000000000000837460360000002165934320025295402     201208232012062800000000054340000152797000000000156112000000000000000000000000003315050000000000  3020120905   01          2                                                                                   3112165934327293800573900029                                                  N                     01321  0000000        000057
12056993900000131CIA METALURGICA PRADA                                                 0000000034100000000000000000000000000000837460370000002165934330025295502     201208232012062800000000054340000339049000000000346394000000000000000000000000007345050000000000  3020120905   01          2                                                                                   3112165934335293800573900029                                                  N                     01321  0000000        000058
12056993900000131CIA METALURGICA PRADA                                                 0000000034100000000000000000000000000000837460420000002165934340025295602     201208232012062800000000054340000154164000000000157505000000000000000000000000003341050000000000  3020120905   01          2                                                                                   3112165934343293800573900099                                                  N                     01321  0000000        000059
12056993900000131CIA METALURGICA PRADA                                                 0000000034100000000000000000000000000000837460430000002165934350025295702     201208232012062800000000054340000139528000000000142557000000000000000000000000003029050000000000  3020120905   01          2                                                                                   3112165934350293800573900019                                                  N                     01321  0000000        000060
12056993900000131CIA METALURGICA PRADA                                                 0000000034100000000000000000000000000000838527910000002171340450025383502     201208272012063000000000054380000575128000000000583759000000000000000000000000008631050000000000  3020120905   01          2                                                                                   3112171340451293800573900039                                                  N                     01321  0000000        000061
12056993900000131CIA METALURGICA PRADA                                                 0000000034100000000000000000000000000000838527920000002171340460025384302     201208272012063000000000054380000454477000000000461290000000000000000000000000006813050000000000  3020120905   01          2                                                                                   3112171340469293800573900019                                                  N                     01321  0000000        000062
12056993900000131CIA METALURGICA PRADA                                                 0000000034100000000000000000000000000000840312930000002179478290025419302     201208282012070300000000054390000402178000000000407538000000000000000000000000005360050000000000  3020120905   01          2                                                                                   3112179478295293800573900089                                                  N                     01321  0000000        000063
12056993900000131CIA METALURGICA PRADA                                                 0000000034100000000000000000000000000000840312940000002179478300025419402     201208282012070300000000054390000322804000000000327108000000000000000000000000004304050000000000  3020120905   01          2                                                                                   3112179478303293800573900079                                                  N                     01321  0000000        000064
12057158057000130COMERCIAL ELETRICA PJ LTDA                                            0000000023703394400000000972983 00000000842436850090219200008900000305028     201208012012070400000000054120000079196000000000088401000000000000000000000000009205050000000000  3020120905   01          2  R TAMAINDE 1410                                                                  3                         000000000000000                                     N                     00598  0000000        000065
12058616418000108BANCO FIBRA S A                                                       0000000023702372800000000016683 00000000854049590090221200026624782001        201208312012073000000000054420000076146000000000076958000000000000000000000000001015050000000000  3020120904   06          3  RUA GANGES  528                         NEGRETTI PROD SIDERURGICOS LTD           3                         096593173000130                                     N                     00598  0000000        000066
12059876565000180ITALLUX INDUSTRIA E COMERCIO L                                        000000000010000000000000000000000000000085152921000000223041000003868         201209012012072400000000054430000180000000000000181391000000000000000000000000001391050000000000  3020120905   01          2                                                                                   3043922230411203000086821129                                                  N                     01321  0000000        000067
12061174652000137METALURGICA SCHIOPPA LTDA                                             0000000023703392800000001071602 0000000086120725002022220000022110191 001     201209032012080200000000054450000075159000000000075659000000000000000000000000000500050000000000  3020120905   01          2  RUA GANGES 528                                                                   3                         000000000000000                                     N                     00598  0000000        000068
12061217188000119TELAS METALICAS TELMETAL LTDA                                         0000000000100000000000000000000000000000872952800000000057020005605 1 1       201210082012090300000000054800000104934000000000104934000000000000000000000000000000050000000000  3020121008   01FS        1                                                                                   3000000115031800000057021789                                                  N                     01321  0000000        000069
12061217188000119TELAS METALICAS TELMETAL LTDA                                         0000000000100000000000000000000000000000857718480000000055770005438 1 3       201208292012080200000000054400000055680000000000055680000000000000000000000000000000050000000000  3020120829   06          3                                                                                   3000000115031800000055771779                                                  N                     01321  0000000        000070
12061217188000119TELAS METALICAS TELMETAL LTDA                                         0000000000100000000000000000000000000000857718510000000055830005442 1 3       201208292012080200000000054400000051615000000000051615000000000000000000000000000000050000000000  3020120829   06          3                                                                                   3000000115031800000055831719                                                  N                     01321  0000000        000071
12062340989000130EDICOES ADUANEIRAS LTDA                                               0000000023703090200000000015660 0000000079108231009080000035029004262 C       201208302012041100000000054410000043600000000000044032000000000000000000000000000432050000000000  3020120905   01          2  RUA TAMAINDE 1410 RUA GANGES 520 E 528                                           3                         000000000000000                                     N                     00598  0000000        000072
12062344882000160INDUSTRIA COM PARAFUS NAP LTDA                                        00000000341000000000000000000000000000008729529400000023597283711535 1        201209282012083100000000054700000057118000000000057118000000000000000000000000000000050000000000  3020120928   01FS        1                                                                                   3112359728378482812260800059                                                  N                     01321  0000000        000073
12062344882000160INDUSTRIA COM PARAFUS NAP LTDA                                        00000000341000000000000000000000000000008729529500000023597286411535 2        201210052012083100000000054770000047598000000000047598000000000000000000000000000000050000000000  3020121005   01FS        1                                                                                   3112359728642482812260800089                                                  N                     01321  0000000        000074
12062539994000176LEALFER INDUSTRIA E COMERCIO D                                        0000000003300000000000000000000000000000872953030000005500000000005424701     201209272012083000000000054690000656670000000000656670000000000000000000000000000000050000000000  3020120927   01FS        1                                                                                   3915298380000000254355010469                                                  N                     01321  0000000        000075
12062539994000176LEALFER INDUSTRIA E COMERCIO D                                        0000000003300000000000000000000000000000872953040000003800000000005424702     201210252012083000000000054970000656670000000000656670000000000000000000000000000000050000000000  3020121025   01FS        1                                                                                   3915298380000000257338010419                                                  N                     01321  0000000        000076
12062539994000176LEALFER INDUSTRIA E COMERCIO D                                        0000000003300000000000000000000000000000872953050000004700000000005424703     201211222012083000000000055250000656670000000000656670000000000000000000000000000000050000000000  3020121122   01FS        1                                                                                   3915298380000000259047010469                                                  N                     01321  0000000        000077
12064952757000168WALMAC COM DE PROD QUIMICOS LT                                        0000000034100000000000000000000000000000860403460000002275821710020148        201208312012080300000000054420000219267000000000221422000000000000000000000000002155050000000000  3020120905   01          2                                                                                   3112275821711064807961400079                                                  N                     01321  0000000        000078
12065000655000105HILTI DO BRASIL COMERCIAL LTDA                                        0000000023703396000000000243787 00000000854049530090221200002670002106001     201208262012072700000000054370000029613000000000030144000000000000000000000000000590050000000000  3020120904   06          3  RUA TAMAINDE 1410                                                                3                         000000000000000                                     N                     00598  0000000        000079
12075483040000130REX MAQUINAS E EQUIPAMENTOS LT                                        0000000023702656500000000000701 000000008729529800202248000040581776 2 1      201209282012083100000000054700000564200000000000564200000000000000000000000000000000050000000000  3020120928   01FS        1  RUA  GANGES  528                                                                 3                         000000000000000                                     N                     00598  0000000        000080
12075483040000130REX MAQUINAS E EQUIPAMENTOS LT                                        0000000023702656500000000000701 000000008729529900202248000040681776 2 2      201210262012083100000000054980000434000000000000434000000000000000000000000000000000050000000000  3020121026   01FS        1  RUA  GANGES  528                                                                 3                         000000000000000                                     N                     00598  0000000        000081
12075483040000130REX MAQUINAS E EQUIPAMENTOS LT                                        0000000023702656500000000000701 000000008729530000202248000040781776 2 3      201211232012083100000000055260000434000000000000434000000000000000000000000000000000050000000000  3020121123   01FS        1  RUA  GANGES  528                                                                 3                         000000000000000                                     N                     00598  0000000        000082
12092693118000160BRADESCO SAUDE S A                                                    0000000023700448000000001533991 00000000847452120050100745572410000000000     201208202012071700000000054310000645861000000000652517000000000000000000000000006656050000000000  3020120905   01          2                                                                                   3                         000000000000000                                     N                     00598  0000000        000083
900008400000000025372940                                                                                                                                                                                                                                                                                                                                                                                                                                                                00598  0000000        000084
