0000147602043799295000110ALTAMIRA INDUSTRIA METALURGICA LT       202000000432520121205213835             3                                                                                                  000000000000000                                                                                                                                                                                                                                                                                   000001
12043799295000110ALTAMIRA INDUSTRIA METAL LTDA                                         0000000003303809500000130004071 I000000000010275000000000000000               201212050000000000000000000000000000000000000002000000000000000000000000000000000000050000000001  0820121205   02BW        5001130               000000000000000                                               3D0000000101                               01                                 S                     01133 10020256        000002
11997198433000049ANTONIA PEREIRA DE SANTANA    TRAV TERRAS SUL 147 JD DA CONQUISTA     0834533023700298400000005101263 I000000000010277000000000000000               201212050000000000000000000000000000000000000000032348000000000000000000000000000000050000112012  0120121205   02BW        5000000               000000000000000                                               3                                          REF. NOVEMBRO/2012.                N                     01321 10020256        000003
12057158057000130COMERCIAL ELETRICA  PJ   LTDA                                         0000000023703394400000000972983 I000000000010291009023170000198               201212050000000000000000055380000029286000000000029286000000000000000000000000000000010000340677  3120121205   02BW        5000000               000000000000000                                               3339409231700001980097298039               340677                             N                     01146 10020256        000004
12010352072000151TRANSP E LOG VERA NITA LTDA EPAV GUILHERME 385 VL MARIA               0212000123703267000000001235389 I000000000010293000000000000000               201212050000000000000000000000000000000000000000285000000000000000000000000000000000010000000000  0120121205   02BW        5000000               000000000000000                                               3                                          01368/01367                        N                     01321 10020256        000005
12012434269000165RIBASE TRANSP LOGISTICA LTDA                                          0000000023701231900000002302659 I000000000010290009000000006852               201212050000000000000000055380000025066000000000025066000000000000000000000000000000010000001917  3120121205   02BW        5000000               000000000000000                                               3123109000000068520230265019               01917                              N                     01146 10020256        000006
12056428188000128EDVALDO SANTOS ROSA ME                                                0000000023700898200000000005622 I000000000010285009011225700668               201212050000000000000000055380000093740000000000093740000000000000000000000000000000010000000043  3120121205   02BW        5000000               000000000000000                                               3089809112257006680000562059               043                                N                     01146 10020256        000007
12007068566000102NIVEL EMPREGOS LTDA           AV CELSO GARCIA 3830                    0306400023700097300000003053792 I000000000010276000000000000000               201212050000000000000000000000000000000000000000227218000000000000000000000000000000010000002828  0120121205   02BW        5000000               000000000000000                                               3                                          NF.NRO.2828                        N                     01321 10020256        000008
12002058301000100ACORES COMERCIAL PACHECOS LTDA                                        0000000000100000 0000000000000  I000000000010292000000000000000               201212050000000000000000055380000020000000000000020000000000000000000000000000000000010000048316  3120121205   02BW        5000000               000000000000000                                               3000000164161100500029121869               48316                              N                     01130 10020256        000009
12069284248000128ISOCOAT TINTAS E VERNIZES LTDA                                        0000000034100000 0000000000000  I000000000010278000000000000000               201212050000000000000000055380000367618000000000367618000000000000000000000000000000010000057027  3120121205   02BW        5000000               000000000000000                                               3181594508110077430121200019               57027/01                           N                     01130 10020256        000010
12001852612000175BT PRODUTOS INDS LTDA                                                 0000000003300000 0000000000000  I000000000010287000000000000000               201212050000000000000000055380000055248000000000055248000000000000000000000000000000010000052674  3120121205   02BW        5000000               000000000000000                                               3913651000000003015580020389               52674                              N                     01130 10020256        000011
12004882911000140FERNANDO COSTA BRITO GUARULHOS                                        0000000003300000 0000000000000  I000000000010288000000000000000               201212050000000000000000055380000028729000000000028729000000000000000000000000000000010000015157  3120121205   02BW        5000000               000000000000000                                               3944753720000000111481010149               015157                             N                     01130 10020256        000012
12045635984000115CRIFER LAMINADOS DE ACO E FERR                                        0000000000100000 0000000000000  I000000000010284000000000000000               201212050000000000000000055380000806028000000000806028000000000000000000000000000000010000035395  3120121205   02BW        5000000               000000000000000                                               3000000147532500000041651729               035395                             N                     01130 10020256        000013
12061070454000123SOL S A IMPORTACAO EXPORT IND                                         0000000000100000 0000000000000  I000000000010283000000000000000               201212050000000000000000055380000054091000000000054091000000000000000000000000000000010000007146  3120121205   02BW        5000000               000000000000000                                               3044225535801196000055601119               07146                              N                     01130 10020256        000014
12005915831000107PALETES SATELITE COM LTDA ME                                          0000000034100000 0000000000000  I000000000010282000000000000000               201212050000000000000000055380000058890000000000058890000000000000000000000000000000010000002111  3120121205   02BW        5000000               000000000000000                                               3181594507728144648966600019               2111                               N                     01130 10020256        000015
12007289649000113CRC LASER SUPRIM INFOR LTDA                                           0000000034100000 0000000000000  I000000000010281000000000000000               201212050000000000000000055380000037313000000000037313000000000000000000000000000000010000001203  3120121205   02BW        5000000               000000000000000                                               3181594506731000265431700099               1203/01                            N                     01130 10020256        000016
12062539994000176LEALFER INDUSTRIA E COMERCIO D                                        0000000034100000 0000000000000  I000000000010280000000000000000               201212050000000000000000055380000923839000000000923839000000000000000000000000000000010000053798  3120121205   02BW        5000000               000000000000000                                               3181594524132076103324000019               53798/03                           N                     01130 10020256        000017
12069284248000128ISOCOAT TINTAS E VERNIZES LTDA                                        0000000034100000 0000000000000  I000000000010279000000000000000               201212050000000000000000055380000319664000000000319664000000000000000000000000000000010000057192  3120121205   02BW        5000000               000000000000000                                               3181594509191077430121200099               057192                             N                     01130 10020256        000018
12045987005000198D PASCHOAL AUTOMOTIVA LTDA                                            0000000039900000 0000000000000  I000000000010286000000000000000               201212050000000000000000055380000073882000000000073882000000000000000000000000000000010000011650  3120121205   02BW        5000000               000000000000000                                               3232000009271195097311000169               011650                             N                     01130 10020256        000019
12013937547000160DUBAY COMERCIAL LTDA                                                  0000000023701744200000000358460 I000000000010289009023110000002               201212050000000000000000055380000046149000000000046149000000000000000000000000000000010000000508  3120121205   02BW        5000000               000000000000000                                               3174409231100000020035846099               508                                N                     01146 10020256        000020
12069284248000128ISOCOAT TINTAS E VERNIZES LTDA                                        0000000034100000000000000000000000000000888732970000002421485730055761        201212052012092100000000055380000093352000000000093352000000000000000000000000000000050000000000  3020121205   02BW        2000000               000000000000000                                               3112421485734077430121200089               55761                              N                     01130 10020256        000021
12035820448000136WHITE MARTINS GASES INDUSTRIAI                                        0000000023700026400000003937925 0000000091653175009023130001136404362 001     201212052012110800000000055380000162300000000000162300000000000000000000000000000000050000000000  3020121205   02BW        2000000               000000000000000                                               3                         000000000000000  09449                              N                     01146 10020256        000022
12004676708000118M H F SISTEMAS S C LTDA                                               0000000034100000000000000000000000000000925640520000002606278270099050180     201212052012112200000000055380000014500000000000014500000000000000000000000000000000050000000000  3020121205   02BW        2000000               000000000000000                                               3112606278276013924573200029               020224                             N                     01130 10020256        000023
12027278100000130EXPRESSO BOAS NOVAS LTDA                                              0000000034100000000000000000000000000000924705660000009004336671211000191     201212052012112100000000055380000014313000000000014313000000000000000000000000000000050000000000  3020121205   02BW        2000000               000000000000000                                               3109004336674128259510500019               468580                             N                     01130 10020256        000024
12033325184001786ALSCO TOALHEIRO BRASIL                                                0000000023703396000000001490850 0000000092564060009000029711503VM00297115     201212052012112300000000055380000026347000000000026347000000000000000000000000000000050000000000  3020121205   02BW        2000000               000000000000000                                               3                         000000000000000  0297115                            N                     01146 10020256        000025
900002600000000005794921                                                                                                                                                                                    000000000000000                                                                                                                                                                                                                                                    00002401107600003250355        000026
