0000147602043799295000110ALTAMIRA INDUSTRIA METALURGICA LT       202000000186020120906215323             3                                                                                                  000000000000000                                                                                                                                                                                                                                                                                   000001
12051598472000129ELETRICA J SANTOS                                                     0000000023702451100000000000264 I000000000009767009022080000039               201209060000000000000000054480000113899000000000113899000000000000000000000000000000010000017933  3120120906   02BW        5000000               000000000000000                                               3245109220800000390000026099               17933/02                           N                     01079 10020256        000002
12000867888000164TECNEQUIP TECNOLOGIA EQUIP LTD                                        0000000034100452 00000000749849 I000000000009747000000000000000               201209060000000000000000000000000000000000000000500000000000000000000000000000000000020000000003  0820120906   02BW        5001030               000000000000000                                               3C0000000101                               03                                 N                     01076 10020256        000003
12013529495000192MAXMIRA CONTROLE E ADM LTDA                                           0000000034100467 00000000012340 I000000000009748000000000000000               201209060000000000000000000000000000000000000001200000000000000000000000000000000000010000000001  0820120906   02BW        5001030               000000000000000                                               3C0000000101                               01                                 N                     01076 10020256        000004
12012006058000121WEG TINTAS LTDA                                                       0000000023702727800000000001309 I000000000009760009021790000075               201209060000000000000000054480000311465000000000311465000000000000000000000000000000010000147739  3120120906   02BW        5000000               000000000000000                                               3272709217900000750000130019               0147739/02                         N                     01079 10020256        000005
12012006058000121WEG TINTAS LTDA                                                       0000000023702727800000000001309 I000000000009753009021660000072               201209060000000000000000054480000310742000000000310742000000000000000000000000000000010000144548  3120120906   02BW        5000000               000000000000000                                               3272709216600000720000130019               0144548/03                         N                     01079 10020256        000006
12012006058000121WEG TINTAS LTDA                                                       0000000023702727800000000001309 I000000000009761009021950000071               201209060000000000000000054480000311057000000000311057000000000000000000000000000000010000151687  3120120906   02BW        5000000               000000000000000                                               3272709219500000710000130039               0151687/01                         N                     01079 10020256        000007
12012006058000121WEG TINTAS LTDA                                                       0000000023702727800000000001309 I000000000009754009021700000103               201209060000000000000000054480000464896000000000464896000000000000000000000000000000010000145154  3120120906   02BW        5000000               000000000000000                                               3272709217000001030000130069               0145154/03                         N                     01079 10020256        000008
12012006058000121WEG TINTAS LTDA                                                       0000000023702727800000000001309 I000000000009755009022000000091               201209060000000000000000054480000309017000000000309017000000000000000000000000000000010000152481  3120120906   02BW        5000000               000000000000000                                               3272709220000000910000130019               0152481/01                         N                     01079 10020256        000009
12006000195000156MBA MERCANTIL BRASIL ACO LTDA                                         0000000023700118000000002128292 I000000000009771009022060000015               201209060000000000000000054480000647873000000000647873000000000000000000000000000000010000008946  3120120906   02BW        5000000               000000000000000                                               3011809220600000150212829019               8946/01                            N                     01079 10020256        000010
12006000195000156MBA MERCANTIL BRASIL ACO LTDA                                         0000000023700118000000002128292 I000000000009752009021780000039               201209060000000000000000054480000183781000000000183781000000000000000000000000000000010000008689  3120120906   02BW        5000000               000000000000000                                               3011809217800000390212829019               8689/02                            N                     01079 10020256        000011
12006000195000156M B A MERCANTIL BRASILEIRA DE R RINCAO 220                            0365108023700118000000002128292 I000000000009757000000000000000               201209060000000000000000000000000000000000000000840607000000000000000000000000000000010000008876  0120120906   02BW        5000000               000000000000000                                               3                                          NF.NRO.8876/02                     N                     01321 10020256        000012
12006000195000156MBA MERCANTIL BRASIL ACO LTDA                                         0000000023700118000000002128292 I000000000009758009021490000053               201209060000000000000000054480000503860000000000503860000000000000000000000000000000010000008389  3120120906   02BW        5000000               000000000000000                                               3011809214900000530212829019               8389/03                            N                     01079 10020256        000013
12006000195000156MBA MERCANTIL BRASIL ACO LTDA                                         0000000023700118000000002128292 I000000000009759009022010000016               201209060000000000000000054480000492064000000000492064000000000000000000000000000000010000008906  3120120906   02BW        5000000               000000000000000                                               3011809220100000160212829079               8906/01                            N                     01079 10020256        000014
11997198433000049ANTONIA PEREIRA DE SANTANA    TRAV TERRAS SUL 147 JD DA CONQUISTA     0834533023700298400000005101263 I000000000009786000000000000000               201209060000000000000000000000000000000000000000030132000000000000000000000000000000050000000009  0120120906   02BW        5000000               000000000000000                                               3                                          PENSAO REF.SETEMBRO/2012.          N                     01321 10020256        000015
11255861678000016DANIELLE CRISTINA VENANCIO    R VISC DE MARQUES 71 AP 41 B            0847176023700816800000000034070 I000000000009787000000000000000               201209060000000000000000000000000000000000000000080217000000000000000000000000000000040000000009  0120120906   02BW        5000000               000000000000000                                               3                                          PENSAO REF.SETEMBRO/2012.          N                     01321 10020256        000016
12069284248000128ISOCOAT TINTAS E VERNIZES LTDAR COMEND GIUSEPPE MARCHIORI 2189        1814700023703372300000000370002 I000000000009763000000000000000               201209060000000000000000000000000000000000000000239836000000000000000000000000000000010000000000  0120120906   02BW        5000000               000000000000000                                               3                                          NF.NRO.052085 - PARC.02/03.        N                     01321 10020256        000017
12044098788000196MAIAMI COM IMP ROLAM LTDA                                             0000000023700503700000000367516 I000000000009781009022140000004               201209060000000000000000054480000021043000000000021043000000000000000000000000000000010000009853  3120120906   02BW        5000000               000000000000000                                               3050309221400000040036751089               9853                               N                     01079 10020256        000018
12001309173000159TEMHPUS MARCAS E PATENTES S C                                         0000000023700503700000000454923 I000000000009776009011218802409               201209060000000000000000054480000056000000000000056000000000000000000000000000000000010000005900  3120120906   02BW        5000000               000000000000000                                               3050309112188024090045492079               5900/03                            N                     01079 10020256        000019
12043799295000110ALTAMIRA INDUSTRIA METAL LTDA                                         0000000000103333200000000011029 I000000000009750000000000000000               201209060000000000000000000000000000000000000000700000000000000000000000000000000000050000000001  0820120906   02BW        5001200               000000000000000                                               3D0000000101                               01                                 S                     01133 10020256        000020
12001951865000104FOUR FACTORING FOMENTO MERCANTR JOSEPHINA MANDOTTI 344 6 AND JD MAIA  0711508023703397900000000028517 I000000000009762000000000000000               201209060000000000000000000000000000000000000000302155000000000000000000000000000000050000000188  0120120906   02BW        5000000               000000000000000                                               3                                          FAT.188/01  &  188/02.             N                     01321 10020256        000021
12043799295000110ALTAMIRA INDUSTRIA METAL LTDA                                         0000000003303809500000130004071 I000000000009745000000000000000               201209060000000000000000000000000000000000000003900000000000000000000000000000000000010000000001  0820120906   02BW        5001030               000000000000000                                               3D0000000101                               01                                 S                     01133 10020256        000022
12000867888000164TECNEQUIP TECNOLOGIA EQUIP LTD                                        0000000003303809500000130003245 I000000000009746000000000000000               201209060000000000000000000000000000000000000000500000000000000000000000000000000000010000000002  0820120906   02BW        5001030               000000000000000                                               3C0000000101                               02                                 N                     01076 10020256        000023
12007806416000140MAXMETA PART EMPREEND LTDA                                            0000000003303809500000130002347 I000000000009751000000000000000               201209060000000000000000000000000000000000000000600000000000000000000000000000000000050000000001  0820120906   02BW        5001200               000000000000000                                               3C0000000101                               01                                 N                     01076 10020256        000024
12035820448000136WHITE MARTINS GASES IND LTDA                                          0000000023700026400000003937925 I000000000009778009022090010244               201209060000000000000000054480000018274000000000018274000000000000000000000000000000010000226236  3120120906   02BW        5000000               000000000000000                                               3002609220900102440393792079               226236                             N                     01079 10020256        000025
12035820448000136WHITE MARTINS GASES IND LTDA                                          0000000023700026400000003937925 I000000000009789009022090011903               201209060000000000000000054480000059005000000000059005000000000000000000000000000000010000008852  3120120906   02BW        5000000               000000000000000                                               3002609220900119030393792019               8852                               N                     01079 10020256        000026
12043799295000110ALTAMIRA INDUSTRIA METAL LTDA                                         0000000039900198 000000000096330I000000000009749000000000000000               201209060000000000000000000000000000000000000000500000000000000000000000000000000000010000000005  0820120906   02BW        5001030               000000000000000                                               3D0000000101                               05                                 S                     01133 10020256        000027
12069309706000217FNA TRANSPSORTES LTDA                                                 0000000034100000 0000000000000  I000000000009774000000000000000               201209060000000000000000054480000081048000000000081048000000000000000000000000000000010000059068  3120120906   02BW        5000000               000000000000000                                               3181536317420005486932600019               59068                              N                     01132 10020256        000028
12061217188000119TELAS METALICAS TELMETAL LTDA                                         0000000003300000 0000000000000  I000000000009782000000000000000               201209060000000000000000054480000045377000000000045377000000000000000000000000000000010000005425  3120120906   02BW        5000000               000000000000000                                               3915435040000000047406020119               5425/02-03                         N                     01132 10020256        000029
12003639662000102SCHUTTER DO BRASIL LTDA                                               0000000034100000 0000000000000  I000000000009775000000000000000               201209060000000000000000054480000068924000000000068924000000000000000000000000000000010000006157  3120120906   02BW        5000000               000000000000000                                               3181536347000788202600300059               6157                               N                     01132 10020256        000030
12005852768000107DAOUD   LEAL ELETRONICA LTDA                                          0000000003300000 0000000000000  I000000000009779000000000000000               201209060000000000000000054480000017494000000000017494000000000000000000000000000000010000001097  3120120906   02BW        5000000               000000000000000                                               3949927090000000026050010429               1097                               N                     01132 10020256        000031
12014775592000128HELIO ADRIANO DA SILVA ME                                             0000000003300000 0000000000000  I000000000009777000000000000000               201209060000000000000000054480000029000000000000029000000000000000000000000000000000010000008331  3120120906   02BW        5000000               000000000000000                                               3956114740000000000001010139               8331                               N                     01132 10020256        000032
12002503185000182ANDAIMES MAQUINAS BIG LTDA                                            0000000034100000 0000000000000  I000000000009788000000000000000               201209060000000000000000054480000012296000000000012296000000000000000000000000000000010000011660  3120120906   02BW        5000000               000000000000000                                               3181536374151650303800900029               011660                             N                     01132 10020256        000033
12014775592000128HELIO ADRIANO DA SILVA ME                                             0000000003300000 0000000000000  I000000000009780000000000000000               201209060000000000000000054480000020660000000000020660000000000000000000000000000000010000008330  3120120906   02BW        5000000               000000000000000                                               3956114740000000000003010129               8330                               N                     01132 10020256        000034
12042956441000101SOLUCOES EM ACO USIMINAS S A                                          0000000034100000 0000000000000  I000000000009770000000000000000               201209060000000000000000054480000121623000000000121623000000000000000000000000000000010000172662  3120120906   02BW        5000000               000000000000000                                               3181536813299293807258000079               0172662/01                         N                     01132 10020256        000035
12008709272000177MULTIELETRICA C M E LTDA                                              0000000034100000 0000000000000  I000000000009756000000000000000               201209060000000000000000054480000203371000000000203371000000000000000000000000000000010000002535  3120120906   02BW        5000000               000000000000000                                               3181536806824075798525400019               02535/02                           N                     01132 10020256        000036
12002558199000101OMEGA TUBOS COM IMP E EXP LTDA                                        0000000003300000 0000000000000  I000000000009785000000000000000               201209060000000000000000054480000217878000000000217878000000000000000000000000000000010000026380  3120120906   02BW        5000000               000000000000000                                               3947509770000000088749020359               26380/04                           N                     01132 10020256        000037
12005151518000140BELENUS DO BRASIL LTDA                                                0000000000100000 0000000000000  I000000000009784000000000000000               201209060000000000000000054480000465363000000000465363000000000000000000000000000000010000274200  3120120906   02BW        5000000               000000000000000                                               3000000123933843815032243179               274200/03                          N                     01132 10020256        000038
12061217188000119TELAS METALICAS TELMETAL LTDA                                         0000000000100000 0000000000000  I000000000009783000000000000000               201209060000000000000000054480000070525000000000070525000000000000000000000000000000010000005371  3120120906   02BW        5000000               000000000000000                                               3000000115031800000055651719               5371-03-03                         N                     01132 10020256        000039
12042956441000101SOLUCOES EM ACO USIMINAS S A                                          0000000034100000 0000000000000  I000000000009769000000000000000               201209060000000000000000054480000147679000000000147679000000000000000000000000000000010000172663  3120120906   02BW        5000000               000000000000000                                               3181536811343293807258000079               0172663/01                         N                     01132 10020256        000040
12064952757000168WALMAC COM PROD QUIMICOS LTDA                                         0000000034100000 0000000000000  I000000000009764000000000000000               201209060000000000000000054480000221853000000000221853000000000000000000000000000000010000020148  3120120906   02BW        5000000               000000000000000                                               3181536314558064807961400019               20148/01                           N                     01132 10020256        000041
12002058301000100ACORES COMERCIAL PACHECOS LTDA                                        0000000000100000 0000000000000  I000000000009765000000000000000               201209060000000000000000054480000203000000000000203000000000000000000000000000000000010000000640  3120120906   02BW        5000000               000000000000000                                               3000000164161100500023971879               0640                               N                     01132 10020256        000042
12053585766000141MULTIACOS IND COM PROD TEC LTD                                        0000000000100000 0000000000000  I000000000009773000000000000000               201209060000000000000000054480000608788000000000608788000000000000000000000000000000010000044118  3120120906   02BW        5000000               000000000000000                                               3043959910651912000139523119               044118                             N                     01132 10020256        000043
12006000195000156MBA MERCANTIL BRASIL ACO LTDA                                         0000000000100000 0000000000000  I000000000009772000000000000000               201209060000000000000000054480000763056000000000763056000000000000000000000000000000010000008655  3120120906   02BW        5000000               000000000000000                                               3043852571593333000105251119               8655/02                            N                     01132 10020256        000044
12001895314000162COLETA INDUSTRIAL FIMAVAN LTDA                                        0000000034100000 0000000000000  I000000000009766000000000000000               201209060000000000000000054480000129459000000000129459000000000000000000000000000000010000009439  3120120906   02BW        5000000               000000000000000                                               3181536250523144604097200069               9439                               N                     01132 10020256        000045
12014104961000150EDNILDE TRIGUERO DANTE DA SILVR ROQUE SOARES MEDELLA 132              0219009023701311000000001038206 I000000000009768000000000000000               201209060000000000000000000000000000000000000000102051000000000000000000000000000000010000000073  0120120906   02BW        5000000               000000000000000                                               3                                          073/02                             N                     01321 10020256        000046
900004700000000016725368                                                                                                                                                                                    000000000000000                                                                                                                                                                                                                                                    00004501743360007230370        000047
