0000147602043799295000110ALTAMIRA INDUSTRIA METALURGICA LT       202000000018220121206060342             1                                                                                                                                                                                                                                                                                                                                                                                                    000001
12001852612000175BT EQUIPAMENTOS INDUSTRIAIS LT                                        000000000330000000000000000000000000000091471909000000800000000052674 1       201211282012103100000000055310000053280000000000055142000000000000000000000000001914050000000000  3020121203   06          3                                                                                   3913651000000003015580010419                                                  N                     01321  0000000        000002
12001852612000175BT EQUIP INDUSTRIAIS LTDA EPP                                         000000003410000000000000000000000000000093358329000000264388433055289 1       201212282012113000000000055610000050000000000000050000000000000000000000000000000000050000000000  3020121228   01FS        1                                                                                   3112643884334052567228300019                                                  N                     01321  0000000        000003
12001895314000162COLETA INDUSTRIAL FIMAVAN LTDA                                        0000000034100000000000000000000000000000866992070000009002335349439           201208272012081700000000054380000123695000000000159398000000000000000000000000035703050000000000  3020121206   01          2                                                                                   3109002335346144604097200019                                                  N                     01321  0000000        000004
12003102481000134AB5 IND E COMERCIO LTDA EPP                                           0000000034100000000000000000000000000000909203330000009000042483169           201211202012102300000000055230000119250000000000122434000000000000000000000000003184050000000000  3020121206   01          2                                                                                   3109000042489003154755700039                                                  N                     01321  0000000        000005
12003489596000123BEND FLEX I COMERCIO LTDA                                             000000003410000000000000000000000000000088350832000000171879874608            201209122012082100000000054540000695250000000000811445000000000000000000000000116195050000000000  3020121206   01          2                                                                                   3191718798744157734445800069                                                  N                     01321  0000000        000006
12003489596000123BEND FLEX I COMERCIO LTDA                                             000000003410000000000000000000000000000088599899000000171434574613            201209172012081600000000054590000585000000000000677080000000000000000000000000092080050000000000  3020121206   01          2                                                                                   3191714345748157734445800019                                                  N                     01321  0000000        000007
12003639662000102SCHUTTER DO BRASIL LTDA                                               0000000023700939300000000014001 0000000092377940009013500000427004006461      201212042012111900000000055370000067550000000000068012000000000000000000000000000462050000000000  3020121206   01          2                                                                                   3                         000000000000000                                     N                     00598  0000000        000008
12004882911000140F C BRITO CARTUCHOS ME                                                00000000033000000000000000000000000000009286265500000081000000015157 A21      201212032012110500000000055360000027911000000000028728000000000000000000000000000946050000000000  3020121205   06          3                                                                                   3944753720000000111481010159                                                  N                     01321  0000000        000009
12005325559000105SOLDASEG EQUIP SOLDA SEG LTDA                                         000000003410000000000000000000000000000093358344000000264722596N7581 1        201212252012112700000000055580000058752000000000058752000000000000000000000000000000050000000000  3020121226   01FS        1                                                                                   3112647225963068206403500079                                                  N                     01321  0000000        000010
12005880850000145NEDERMAN BRASIL COM PROD EX LT                                        000000003410000000000000000000000000000086373178000000614350956002763 A       201209252012081400000000054670000289674000000000330714000000000000000000000000041040050000000000  3020121206   01          2                                                                                   3156143509568160829000100049                                                  N                     01321  0000000        000011
12005915831000107PALETES SATELITE COM LTDA ME                                          000000003410000000000000000000000000000092038465000000902111111NF 2111        201212042012111300000000055370000058500000000000059280000000000000000000000000000780050000000000  3020121206   01          2                                                                                   3109021111111144648966600059                                                  N                     01321  0000000        000012
12006000195000156MBA MERCANTIL BRAS DE ACO LTDA                                        0000000034100000000000000000000000000000889578520000001671394540008920B02     201209162012071700000000054580000576585000000000668439000000000000000000000000091854050000000000  3020121206   01          2                                                                                   3191671394549064849251000099                                                  N                     01321  0000000        000013
12006000195000156MBA MERCANTIL BRAS DE ACO LTDA                                        0000000034100000000000000000000000000000885998980000001667238420008870B02     201209112012071600000000054530000839952000000000982024000000000000000000000000142072050000000000  3020121206   01          2                                                                                   3191667238429064849251000039                                                  N                     01321  0000000        000014
12006000195000156MBA MERCANTIL BRAS DE ACO LTDA                                        0000000034100000000000000000000000000000906662670000001671394410008920B03     201210142012071700000000054860000576584000000000636686000000000000000000000000060102050000000000  3020121206   01          2                                                                                   3191671394416064849251000039                                                  N                     01321  0000000        000015
12006000195000156MBA MERCANTIL BRAS DE ACO LTDA                                        0000000034100000000000000000000000000000887698090000001671394550008925B02     201209142012071700000000054560000719581000000000837026000000000000000000000000117445050000000000  3020121206   01          2                                                                                   3191671394556064849251000089                                                  N                     01321  0000000        000016
12006000195000156MBA MERCANTIL BRAS DE ACO LTDA                                        0000000034100000000000000000000000000000887698100000001671394560008926B02     201209142012071700000000054560000387716000000000451045000000000000000000000000063329050000000000  3020121206   01          2                                                                                   3191671394564064849251000019                                                  N                     01321  0000000        000017
12006000195000156MBA MERCANTIL BRAS DE ACO LTDA                                        0000000034100000000000000000000000000000904173150000001667238300008870B03     201210092012071600000000054810000839951000000000935767000000000000000000000000095816050000000000  3020121206   01          2                                                                                   3191667238304064849251000039                                                  N                     01321  0000000        000018
12006000195000156MBA MERCANTIL BRAS DE ACO LTDA                                        0000000034100000000000000000000000000000904173160000001667238280008876B03     201210122012071600000000054840000810320000000000897990000000000000000000000000087670050000000000  3020121206   01          2                                                                                   3191667238288064849251000079                                                  N                     01321  0000000        000019
12006000195000156MBA MERCANTIL BRAS DE ACO LTDA                                        0000000034100000000000000000000000000000904173170000001671394420008925B03     201210122012071700000000054840000719580000000000797405000000000000000000000000077825050000000000  3020121206   01          2                                                                                   3191671394424064849251000069                                                  N                     01321  0000000        000020
12006000195000156MBA MERCANTIL BRAS DE ACO LTDA                                        0000000034100000000000000000000000000000904173180000001671394430008926B03     201210122012071700000000054840000387716000000000429681000000000000000000000000041965050000000000  3020121206   01          2                                                                                   3191671394432064849251000079                                                  N                     01321  0000000        000021
12006000195000156MBA MERCANTIL BRAS DE ACO LTDA                                        0000000034100000000000000000000000000000933583340000002644908770010452B03     201302192012112700000000056140000816455000000000816455000000000000000000000000000000050000000000  3020130219   01FS        1                                                                                   3112644908777064899001800019                                                  N                     01321  0000000        000022
12006000195000156MBA MERCANTIL BRAS DE ACO LTDA                                        0000000034100000000000000000000000000000933583280000002644908750010452B01     201212252012112700000000055580000816455000000000816455000000000000000000000000000000050000000000  3020121226   01FS        1                                                                                   3112644908751064899001800099                                                  N                     01321  0000000        000023
12006000195000156MBA MERCANTIL BRAS DE ACO LTDA                                        0000000034100000000000000000000000000000933583300000002644908930010484B02     201301232012112800000000055870000102869000000000102869000000000000000000000000000000050000000000  3020130123   01FS        1                                                                                   3112644908934064899001800029                                                  N                     01321  0000000        000024
12006000195000156MBA MERCANTIL BRAS DE ACO LTDA                                        0000000034100000000000000000000000000000933583310000002644908900010483B02     201301232012112800000000055870000220812000000000220812000000000000000000000000000000050000000000  3020130123   01FS        1                                                                                   3112644908900064899001800089                                                  N                     01321  0000000        000025
12006000195000156MBA MERCANTIL BRAS DE ACO LTDA                                        0000000034100000000000000000000000000000933583350000002644908890010483B01     201212262012112800000000055590000220812000000000220812000000000000000000000000000000050000000000  3020121226   01FS        1                                                                                   3112644908892064899001800059                                                  N                     01321  0000000        000026
12006000195000156MBA MERCANTIL BRAS DE ACO LTDA                                        0000000034100000000000000000000000000000933583360000002644908920010484B01     201301012012112800000000055650000102869000000000102869000000000000000000000000000000050000000000  3020130102   01FS        1                                                                                   3112644908926064899001800079                                                  N                     01321  0000000        000027
12006000195000156MBA MERCANTIL BRAS DE ACO LTDA                                        0000000034100000000000000000000000000000933583370000002644909060010507B01     201212272012112900000000055600001018297000000001018297000000000000000000000000000000050000000000  3020121227   01FS        1                                                                                   3112644909064064899001800079                                                  N                     01321  0000000        000028
12006000195000156MBA MERCANTIL BRAS DE ACO LTDA                                        0000000034100000000000000000000000000000933583380000002644908940010484B03     201302202012112800000000056150000102869000000000102869000000000000000000000000000000050000000000  3020130220   01FS        1                                                                                   3112644908942064899001800099                                                  N                     01321  0000000        000029
12006000195000156MBA MERCANTIL BRAS DE ACO LTDA                                        0000000034100000000000000000000000000000933583390000002644909070010507B02     201301242012112900000000055880000885476000000000885476000000000000000000000000000000050000000000  3020130124   01FS        1                                                                                   3112644909072064899001800089                                                  N                     01321  0000000        000030
12006000195000156MBA MERCANTIL BRAS DE ACO LTDA                                        0000000034100000000000000000000000000000933583400000002644909080010507B03     201302212012112900000000056160000885475000000000885475000000000000000000000000000000050000000000  3020130221   01FS        1                                                                                   3112644909080064899001800079                                                  N                     01321  0000000        000031
12006000195000156MBA MERCANTIL BRAS DE ACO LTDA                                        0000000034100000000000000000000000000000933583410000002644909110010536B01     201212282012113000000000055610001346311000000001346311000000000000000000000000000000050000000000  3020121228   01FS        1                                                                                   3112644909114064899001800019                                                  N                     01321  0000000        000032
12006000195000156MBA MERCANTIL BRAS DE ACO LTDA                                        0000000034100000000000000000000000000000933583420000002644909120010536B02     201301252012113000000000055890001346311000000001346311000000000000000000000000000000050000000000  3020130125   01FS        1                                                                                   3112644909122064899001800019                                                  N                     01321  0000000        000033
12006000195000156MBA MERCANTIL BRAS DE ACO LTDA                                        0000000034100000000000000000000000000000933583430000002644909130010536B03     201302222012113000000000056170001346311000000001346311000000000000000000000000000000050000000000  3020130222   01FS        1                                                                                   3112644909130064899001800069                                                  N                     01321  0000000        000034
12006000195000156MBA MERCANTIL BRAS DE ACO LTDA                                        0000000034100000000000000000000000000000933583320000002644908760010452B02     201301222012112700000000055860000816456000000000816456000000000000000000000000000000050000000000  3020130122   01FS        1                                                                                   3112644908769064899001800019                                                  N                     01321  0000000        000035
12006000195000156MBA MERCANTIL BRAS DE ACO LTDA                                        0000000034100000000000000000000000000000933583330000002644908910010483B03     201302202012112800000000056150000220811000000000220811000000000000000000000000000000050000000000  3020130220   01FS        1                                                                                   3112644908918064899001800039                                                  N                     01321  0000000        000036
12006000195000156MBA MERCANTIL BRAS DE ACO LTDA                                        0000000034100000000000000000000000000000909203250000002526552570010014B01     201211212012102300000000055240000366127000000000366127000000000000000000000000000000050000000000  3020121121   05          3                                                                                   3112526552578064899001800049                                                  N                     01321  0000000        000037
12007289649000113CRC LASER SUPR INF LTDA EPP                                           000000003410000000000000000000000000000091471898000000702929251000001203      201212032012110600000000055360000036440000000000037385000000000000000000000000000945050000000000  3020121206   01          2                                                                                   3157029292519000265431700089                                                  N                     01321  0000000        000038
12008272923000104P SANTOS ESQUADRARIAS METAL ME                                        0000000034100000000000000000000000000000915734100000006159682651954           201212052012110700000000055380000408138000000000417389000000000000000000000000009251050000000000  3020121206   01          2                                                                                   3156159682654160141951600029                                                  N                     01321  0000000        000039
12008272923000104P SANTOS ESQUADRARIAS METAL ME                                        0000000034100000000000000000000000000000896979550000006153947641850           201211222012100800000000055250000400000000000000422938000000000000000000000000022938050000000000  3020121206   01          2                                                                                   3156153947640160141951600039                                                  N                     01321  0000000        000040
12008594182000188ACOS G3 COMERCIO E BENEFICIAME                                        0000000023703137200000000091332 00000000929490170090227100000261155        002201211222012092700000000055250000152347000000000156225000000000000000000000000003878050000000000  3020121206   01          2  RUA GANGES  528                                                                  3                         000000000000000                                     N                     00598  0000000        000041
12008879248000186FREFER METAL PLUS                                                     000000003410000000000000000000000000000091833884000000256609812EMO013946A     201212052012110700000000055380000535589000000000536285000000000000000000000000000696050000000000  3020121206   01          2                                                                                   3112566098128293811346700089                                                  N                     01321  0000000        000042
12009034654000291STEEL PRODUCTS DO BRASIL LTDA                                         0000000000100000000000000000000000000000914718910000005529180002470 1 3       201211232012110500000000055260000132000000000000135965000000000000000000000000003966050000000000  3020121128   05          3                                                                                   3000000221373244205529181169                                                  N                     01321  0000000        000043
12009338857000190FERNANDO  NAGAO  CARDONE  ALVA                                        000000000330000000000000000000000000000091653176000000300000000ALTA 11 2012   201211202012103000000000055230000134632000000000142442000000000000000000000000007810050000000000  3020121206   01          2                                                                                   3947901700000051051630010119                                                  N                     01321  0000000        000044
12009338857000190FERNANDO  NAGAO  CARDONE  ALVA                                        000000000330000000000000000000000000000089697936000000800000000ALTA 10 2012   201210202012092500000000054920000134632000000000154966000000000000000000000000020334050000000000  3020121206   01          2                                                                                   3947901700000051050080010129                                                  N                     01321  0000000        000045
12011389422000117NELSON RODRIGUES DA SILVA JUNI                                        00000000104000000000000000000000000000009335832700000000204060017040          201212262012120400000000055590000018000000000000018000000000000000000000000000000000050000000000  3020121226   01FS        1                                                                                   3900000204002478700000058719                                                  N                     01321  0000000        000046
12012006058000121WEG TINTAS LTDA                                                       0000000023702727800000000001309 00000000870177500090224100000990016248003     201211102012082700000000055130000306662000000000317270000000000000000000000000010608050000000000  3020121206   01          2  R JUNO  533                                                                      3                         000000000000000                                     N                     00598  0000000        000047
12012006058000121WEG TINTAS LTDA                                                       0000000023702727800000000001309 00000000872318670090224700001050016359603     201211142012083100000000055170000459992000000000473478000000000000000000000000013486050000000000  3020121206   01          2  R JUNO  533                                                                      3                         000000000000000                                     N                     00598  0000000        000048
12012006058000121WEG TINTAS LTDA                                                       0000000023702727800000000001309 00000000878206060090225400000800016517203     201211202012090600000000055230000459992000000000469800000000000000000000000000009808050000000000  3020121206   01          2  R JUNO  533                                                                      3                         000000000000000                                     N                     00598  0000000        000049
12012006058000121WEG TINTAS LTDA                                                       0000000023702727800000000001309 00000000882668420090225800000750016626902     201211122012091300000000055150000459854000000000474566000000000000000000000000014712050000000000  3020121206   01          2  R JUNO  533                                                                      3                         000000000000000                                     N                     00598  0000000        000050
12012006058000121WEG TINTAS LTDA                                                       0000000023702727800000000001309 00000000882668430090225800000760016626903     201211272012091300000000055300000459992000000000465509000000000000000000000000005517050000000000  3020121206   01          2  R JUNO  533                                                                      3                         000000000000000                                     N                     00598  0000000        000051
12012434269000165RIBASE TRANSPORTE E LOGISTICA                                         0000000023701231900000002302659 0000000092564059009000000006852009287 12      201212032012111200000000055360000025000000000000025066000000000000000000000000000099050000000000  3020121205   06          3  RUA TAMAINDE N  1 410                                                            3                         000000000000000                                     N                     00598  0000000        000052
12013937547000160DUBAY COMERCIAL LTDA                                                  0000000023701744200000000358460 0000000091471907009023110000002508 A          201212042012110600000000055370000045242000000000046149000000000000000000000000000910050000000000  3020121205   06          3  RUA TAMAINDE                                                                     3                         000000000000000                                     N                     00598  0000000        000053
12042956441000101SOLUCOES ACO USIMINAS                                                 0000000034100000000000000000000000000000853154850000002246247040017197302     201209202012072500000000054620000970103000000001119483000000000000000000000000149380050000000000  3020121206   01          2                                                                                   3112246247046293807258000019                                                  N                     01321  0000000        000054
12042956441000101SOLUCOES ACO USIMINAS                                                 0000000034100000000000000000000000000000846595700000002210880280016980502     201209102012071200000000054520000156071000000000183215000000000000000000000000027144050000000000  3020121206   01          2                                                                                   3112210880285293807258000039                                                  N                     01321  0000000        000055
12042956441000101SOLUCOES ACO USIMINAS                                                 0000000034100000000000000000000000000000855028690000002254329380017212902     201209212012072600000000054630000140098000000000161378000000000000000000000000021280050000000000  3020121206   01          2                                                                                   3112254329389293807258000019                                                  N                     01321  0000000        000056
12042956441000101SOLUCOES ACO USIMINAS                                                 0000000034100000000000000000000000000000855028700000002254329390017213002     201209212012072600000000054630000140602000000000161958000000000000000000000000021356050000000000  3020121206   01          2                                                                                   3112254329397293807258000089                                                  N                     01321  0000000        000057
12042956441000101SOLUCOES ACO USIMINAS                                                 0000000034100000000000000000000000000000855028770000002254329400017220502     201209212012072700000000054630000981022000000001130134000000000000000000000000149112050000000000  3020121206   01          2                                                                                   3112254329405293807258000099                                                  N                     01321  0000000        000058
12042956441000101SOLUCOES ACO USIMINAS                                                 0000000034100000000000000000000000000000846595710000002210880290016980602     201209102012071200000000054520000426094000000000500218000000000000000000000000074124050000000000  3020121206   01          2                                                                                   3112210880293293807258000019                                                  N                     01321  0000000        000059
12042956441000101SOLUCOES ACO USIMINAS                                                 0000000034100000000000000000000000000000847452070000002216130350005922202     201209102012071600000000054520000172071000000000201999000000000000000000000000029928050000000000  3020121206   01          2                                                                                   3112216130354293807258000049                                                  N                     01321  0000000        000060
12042956441000101SOLUCOES ACO USIMINAS                                                 0000000034100000000000000000000000000000847452100000002216130340017012402     201209102012071500000000054520000147428000000000173093000000000000000000000000025665050000000000  3020121206   01          2                                                                                   3112216130347293807258000059                                                  N                     01321  0000000        000061
12042956441000101SOLUCOES ACO USIMINAS                                                 0000000034100000000000000000000000000000856906410000002262886280017266201     201208282012073000000000054390000119472000000000143372000000000000000000000000023900050000000000  3020121206   01          2                                                                                   3112262886289293807258000089                                                  N                     01321  0000000        000062
12042956441000101SOLUCOES ACO USIMINAS                                                 0000000034100000000000000000000000000000856906420000002262886290017266301     201208282012073000000000054390000145069000000000174069000000000000000000000000029000050000000000  3020121206   01          2                                                                                   3112262886297293807258000099                                                  N                     01321  0000000        000063
12042956441000101SOLUCOES ACO USIMINAS                                                 0000000034100000000000000000000000000000848180700000002220192900017041002     201209112012071700000000054530000155433000000000182179000000000000000000000000026746050000000000  3020121206   01          2                                                                                   3112220192903293807258000029                                                  N                     01321  0000000        000064
12042956441000101SOLUCOES ACO USIMINAS                                                 0000000034100000000000000000000000000000848180710000002220192910017041202     201209112012071700000000054530000205421000000000240767000000000000000000000000035346050000000000  3020121206   01          2                                                                                   3112220192911293807258000019                                                  N                     01321  0000000        000065
12042956441000101SOLUCOES ACO USIMINAS                                                 0000000034100000000000000000000000000000850740460000002233586800017127201     201208202012072000000000054310000137881000000000167689000000000000000000000000029808050000000000  3020121206   01          2                                                                                   3112233586802293807258000019                                                  N                     01321  0000000        000066
12042956441000101SOLUCOES ACO USIMINAS                                                 0000000034100000000000000000000000000000850740470000002233586810017101002     201209142012071900000000054560000732575000000000854170000000000000000000000000121595050000000000  3020121206   01          2                                                                                   3112233586810293807258000019                                                  N                     01321  0000000        000067
12042956441000101SOLUCOES ACO USIMINAS                                                 0000000034100000000000000000000000000000850740480000002233586820017101202     201209142012071900000000054560000144634000000000168621000000000000000000000000023987050000000000  3020121206   01          2                                                                                   3112233586828293807258000029                                                  N                     01321  0000000        000068
12042956441000101SOLUCOES ACO USIMINAS                                                 0000000034100000000000000000000000000000853154840000002246247030017196702     201209202012072500000000054620000234841000000000271031000000000000000000000000036190050000000000  3020121206   01          2                                                                                   3112246247038293807258000099                                                  N                     01321  0000000        000069
12042956441000101SOLUCOES ACO USIMINAS                                                 0000000034100000000000000000000000000000859590620000002274469790017353702     201209282012080300000000054700000081053000000000092231000000000000000000000000011178050000000000  3020121206   01          2                                                                                   3112274469793293807258000069                                                  N                     01321  0000000        000070
12045461761000189PROTEGE INDUSTRIA E COMERCIO M                                        0000000000100000000000000000000000000000912467960000005309330001648201        201211282012103100000000055310000065080000000000065080000000000000000000000000000000050000000000  3020121128   05          3                                                                                   3044195309331192000128605119                                                  N                     01321  0000000        000071
12045987005000198COMERCIAL AUTOMOTIVA SA                                               0000000039900000000000000000000000000000886866630000000000000000              201211182012091800000000055210000070900000000000070900000000000000000000000000000000050000000000  3020121119   06          3                                                                                   3232000009271195097311000119                                                  N                     01321  0000000        000072
12047190731000100DE CASTRO LOUREIRO ENGENHARIA                                         0000000023703394400000000205508 000000008801224800202255000000703026784 0     201211302012083100000000055330001041759000000001052175000000000000000000000000010416050000000000  3020121206   01          2  RUA JUNO  533                                                                    300000000000000000001500  000000000000000                                     N                     00598  0000000        000073
12047190731000100DE CASTRO LOUREIRO ENGENHARIA                                         0000000023703394400000000205508 000000008801225100202255000001003026787 0     201211302012083100000000055330001135987000000001147345000000000000000000000000011358050000000000  3020121206   01          2  RUA JUNO  533                                                                    300000000000000000001500  000000000000000                                     N                     00598  0000000        000074
12047190731000100DE CASTRO LOUREIRO ENGENHARIA                                         0000000023703394400000000205508 000000008801225400202255000001303026794 0     201212032012090300000000055360001209130000000001215175000000000000000000000000006045050000000000  3020121206   01          2  RUA JUNO  533                                                                    300000000000000000001500  000000000000000                                     N                     00598  0000000        000075
12047190731000100DE CASTRO LOUREIRO ENGENHARIA                                         0000000023703394400000000205508 000000008801225500202255000001403026794 0     201211262012090300000000055290001209490000000001229650000000000000000000000000020160050000000000  3020121206   01          2  RUA JUNO  533                                                                    3                         000000000000000                                     N                     00598  0000000        000076
12047190731000100DE CASTRO LOUREIRO ENGENHARIA                                         0000000023703394400000000205508 000000008801225700202255000001603026795 0     201212032012090300000000055360001207555000000001213594000000000000000000000000006039050000000000  3020121206   01          2  RUA JUNO  533                                                                    300000000000000000001500  000000000000000                                     N                     00598  0000000        000077
12047190731000100DE CASTRO LOUR ENG IND LTDA                                           00000000341000000000000000000000000000008782051200000023399953803026613 0     201209182012082100000000054600001107989000000001280130000000000000000000000000172141050000000000  3020121206   01          2                                                                                   3112339995386036884500400039                                                  N                     01321  0000000        000078
12047190731000100DE CASTRO LOUR ENG IND LTDA                                           00000000341000000000000000000000000000008996247900000024766209203027184 0     201211302012100500000000055330001153047000000001166655000000000000000000000000013608050000000000  3020121206   01          2                                                                                   3112476620920036884500400089                                                  N                     01321  0000000        000079
12047190731000100DE CASTRO LOUR ENG IND LTDA                                           00000000341000000000000000000000000000008782051300000023399953903026613 0     201211202012082100000000055230001107989000000001142853000000000000000000000000034864050000000000  3020121206   01          2                                                                                   3112339995394036884500400019                                                  N                     01321  0000000        000080
12047190731000100DE CASTRO LOUR ENG IND LTDA                                           00000000341000000000000000000000000000008782051500000023399953603026612 0     201211202012082100000000055230001111489000000001146465000000000000000000000000034976050000000000  3020121206   01          2                                                                                   3112339995360036884500400079                                                  N                     01321  0000000        000081
12047190731000100DE CASTRO LOUR ENG IND LTDA                                           00000000341000000000000000000000000000008782051600000023399954103026614 0     201209182012082100000000054600001047621000000001210361000000000000000000000000162740050000000000  3020121206   01          2                                                                                   3112339995410036884500400039                                                  N                     01321  0000000        000082
12047190731000100DE CASTRO LOUR ENG IND LTDA                                           00000000341000000000000000000000000000008782051700000023399954203026614 0     201211202012082100000000055230001047621000000001080581000000000000000000000000032960050000000000  3020121206   01          2                                                                                   3112339995428036884500400079                                                  N                     01321  0000000        000083
12047190731000100DE CASTRO LOUR ENG IND LTDA                                           00000000341000000000000000000000000000008782051800000023399955703026636 0     201211212012082200000000055240000940804000000000968554000000000000000000000000027750050000000000  3020121206   01          2                                                                                   3112339995576036884500400019                                                  N                     01321  0000000        000084
12047190731000100DE CASTRO LOUR ENG IND LTDA                                           00000000341000000000000000000000000000008782052000000023399955303026632 0     201209192012082200000000054610000952073000000001098089000000000000000000000000146016050000000000  3020121206   01          2                                                                                   3112339995535036884500400019                                                  N                     01321  0000000        000085
12047190731000100DE CASTRO LOUR ENG IND LTDA                                           00000000341000000000000000000000000000009041732900000025008464603027216 0     201212052012101000000000055380000225377000000000225820000000000000000000000000000443050000000000  3020121206   01          2                                                                                   3112500846467036884500400029                                                  N                     01321  0000000        000086
12047190731000100DE CASTRO LOUR ENG IND LTDA                                           00000000341000000000000000000000000000008782052100000023399955903026643 0     201209202012082300000000054620000867039000000000998324000000000000000000000000131285050000000000  3020121206   01          2                                                                                   3112339995592036884500400049                                                  N                     01321  0000000        000087
12047190731000100DE CASTRO LOUR ENG IND LTDA                                           00000000341000000000000000000000000000008782052400000023399956003026643 0     201211222012082300000000055250000867039000000000890909000000000000000000000000023870050000000000  3020121206   01          2                                                                                   3112339995600036884500400069                                                  N                     01321  0000000        000088
12047190731000100DE CASTRO LOUR ENG IND LTDA                                           00000000341000000000000000000000000000008782052500000023399955603026636 0     201209192012082200000000054610000940804000000001085104000000000000000000000000144300050000000000  3020121206   01          2                                                                                   3112339995568036884500400049                                                  N                     01321  0000000        000089
12047190731000100DE CASTRO LOUR ENG IND LTDA                                           00000000341000000000000000000000000000008782052700000023399956203026648 0     201209202012082300000000054620000976053000000001123893000000000000000000000000147840050000000000  3020121206   01          2                                                                                   3112339995626036884500400029                                                  N                     01321  0000000        000090
12047190731000100DE CASTRO LOUR ENG IND LTDA                                           00000000341000000000000000000000000000008782052800000023399956303026648 0     201211222012082300000000055250000976053000000001002933000000000000000000000000026880050000000000  3020121206   01          2                                                                                   3112339995634036884500400019                                                  N                     01321  0000000        000091
12047190731000100DE CASTRO LOUR ENG IND LTDA                                           00000000341000000000000000000000000000008782059400000023602715303026745 0     201211282012082900000000055310000903175000000000917383000000000000000000000000014208050000000000  3020121206   01          2                                                                                   3112360271533036884500400039                                                  N                     01321  0000000        000092
12047190731000100DE CASTRO LOUR ENG IND LTDA                                           00000000341000000000000000000000000000008782059500000023602714703026734 0     201211272012082800000000055300000997834000000001015492000000000000000000000000017658050000000000  3020121206   01          2                                                                                   3112360271475036884500400019                                                  N                     01321  0000000        000093
12047190731000100DE CASTRO LOUR ENG IND LTDA                                           00000000341000000000000000000000000000008782059900000023602715003026744 0     201211292012082900000000055320000146594000000000148610000000000000000000000000002016050000000000  3020121206   01          2                                                                                   3112360271509036884500400069                                                  N                     01321  0000000        000094
12047190731000100DE CASTRO LOUREIRO ENGENHARIA                                         00000000033000000000000000000000000000008826685400000036000000003026873 0     201212052012091200000000055380000947815000000000966771000000000000000000000000018956050000000000  3020121206   01          2                                                                                   3948430370000009553436020379                                                  N                     01321  0000000        000095
12047190731000100DE CASTRO LOUR ENG IND LTDA                                           00000000341000000000000000000000000000008782050900000023399953503026612 0     201209182012082100000000054600001111489000000001284183000000000000000000000000172694050000000000  3020121206   01          2                                                                                   3112339995352036884500400019                                                  N                     01321  0000000        000096
12048775225000146SEIKI IND COM E CONFECCOES LTD                                        000000003410000000000000000000000000000089337376000000244697151014914001      201210232012092500000000054950000052000000000000055432000000000000000000000000003432050000000000  3020121206   01          2                                                                                   3112446971510017444824100089                                                  N                     01321  0000000        000097
12051180370000199IGUAFER FERRO E ACO LTDA                                              0000000034100000000000000000000000000000852309100000002239389789443 B         201209022012071800000000054440000168275000000000194875000000000000000000000000026600050000000000  3020121206   01          2                                                                                   3112239389789077149484600089                                                  N                     01321  0000000        000098
12051180370000199IGUAFER FERRO E ACO LTDA                                              0000000034100000000000000000000000000000852309110000002239389799443 C         201209122012071800000000054540000168275000000000192075000000000000000000000000023800050000000000  3020121206   01          2                                                                                   3112239389797077149484600089                                                  N                     01321  0000000        000099
12053585766000141MULTIACOS I C PRODS TEC LTDA                                          0000000042200000000000000000000000000000890456930000000000000000004724403     201211302012092500000000055330000522661000000000527886000000000000000000000000005225050000000000  3020121206   01          2                                                                                   3711500005033164925775118129                                                  N                     01321  0000000        000100
12053585766000141MULTIACOS I C PRODS TEC LTDA                                          0000000042200000000000000000000000000000890456960000000000000000004724103     201212042012092500000000055370000127900000000000128325000000000000000000000000000425050000000000  3020121206   01          2                                                                                   3711500005033164925775142129                                                  N                     01321  0000000        000101
12053585766000141MULTIACOS I C PRODS TEC LTDA                                          0000000042200000000000000000000000000000890457000000000000000000004724303     201211302012092500000000055330000268274000000000270955000000000000000000000000002681050000000000  3020121206   01          2                                                                                   3711500005033164925775177139                                                  N                     01321  0000000        000102
12053585766000141MULTIACOS I C PRODS TEC LTDA                                          0000000042200000000000000000000000000000895189350000000000000000004737203     201212042012100200000000055370000362578000000000363785000000000000000000000000001207050000000000  3020121206   01          2                                                                                   3711500005033164927761793149                                                  N                     01321  0000000        000103
12053585766000141MULTIACOS I C PRODS TEC LTDA                                          0000000042200000000000000000000000000000895189570000000000000000004699203     201211292012100200000000055320000519251000000000525305000000000000000000000000006054050000000000  3020121206   01          2                                                                                   3711500005033164927762072129                                                  N                     01321  0000000        000104
12054382510000108SETENTA IND E COM DE MADEIRAS                                         0000000034100000000000000000000000000000921267620000002584985714843 A         201212052012111400000000055380000191200000000000191576000000000000000000000000000376050000000000  3020121206   01          2                                                                                   3112584985710057049175300059                                                  N                     01321  0000000        000105
12054382510000108SETENTA IND E COM DE MADEIRAS                                         0000000034100000000000000000000000000000860403430000002277814474462 A         201209042012080700000000054460000191200000000000226168000000000000000000000000034968050000000000  3020121206   01          2                                                                                   3112277814474057049175300069                                                  N                     01321  0000000        000106
12056428188000128EDVALDO SANTOS ROSA ME                                                0000000023700898200000000005622 0000000088191342009011225700668194919608      201211282012091300000000055310000089850000000000093740000000000000000000000000004189050000000000  3020121205   06          3  RUA TAMAINDE  1410                                                               3                         000000000000000                                     N                     00598  0000000        000107
12056993512000150CYKLOP DO BRASIL EMBALAGENS SA                                        0000000034100000000000000000000000000000874070500000002362586810134932        201210012012090300000000054730000083607000000000103869000000000000000000000000020262050000000000  3020121206   01          2                                                                                   3112362586813025700015800019                                                  N                     01321  0000000        000108
12057158057000130COMERCIAL ELETRICA PJ LTDA                                            0000000023703394400000000972983 00000000918338880090231700001980000340677     201212032012110500000000055360000029094000000000029286000000000000000000000000000288050000000000  3020121205   06          3  R TAMAINDE 1410                                                                  3                         000000000000000                                     N                     00598  0000000        000109
12059659615000177DZ COMERCIO R E SERVICOS LTDA                                         000000003410000000000000000000000000000091358507000000900000321280            201211172012102400000000055200000060000000000000062280000000000000000000000000002280050000000000  3020121206   01          2                                                                                   3109000003217000314585100039                                                  N                     01321  0000000        000110
12061070454000123SOL IMPORTACAO EXPORTACAO INDU                                        0000000000100000000000000000000000000000919321850000005535800007146           201212042012111200000000055370000054000000000000054182000000000000000000000000000182050000000000  3020121206   01          2                                                                                   3044225535801196000055601119                                                  N                     01321  0000000        000111
12061085866000137COMERCIO DE FERRAGENS A C L LT                                        0000000023700475800000000385662 000000009335834500400475184012417353 12       201212202012112200000000055530000027500000000000027500000000000000000000000000000000050000000000  3020121220   01FS        1  R TAMAINDE 410 SP                                                                3                         000000000000000                                     N                     00598  0000000        000112
12061217188000119TELAS METALICAS TELMETAL LTDA                                         0000000034100000000000000000000000000000916531730000009000031055896 1 2       201212042012110700000000055370000081993000000000081993000000000000000000000000000000050000000000  3020121204   05          3                                                                                   3109000031050077073552000019                                                  N                     01321  0000000        000113
12061217188000119TELAS METALICAS TELMETAL LTDA                                         0000000000100000000000000000000000000000902449810000000058120005780 3 3       201211262012101600000000055290000089763000000000090241000000000000000000000000000717050000000000  3020121128   05          3                                                                                   3000000115031800000058121739                                                  N                     01321  0000000        000114
12061217188000119TELAS METALICAS TELMETAL LTDA                                         0000000034100000000000000000000000000000914719010000009000030945880 1 3       201212032012110500000000055360000171280000000000171280000000000000000000000000000000050000000000  3020121203   05          3                                                                                   3109000030946077073552000069                                                  N                     01321  0000000        000115
12062510367000102ITANHAEM TRANSP DE MAQUINAS LT                                        000000003410000000000000000000000000000087407049000000236463199667            201209202012090400000000054620000248220000000000324681000000000000000000000000076461050000000000  3020121206   01          2                                                                                   3112364631997005770252400049                                                  N                     01321  0000000        000116
12062539994000176LEALFER INDUSTRIA E COMERCIO D                                        0000000003300000000000000000000000000000884432790000007100000000005479103     201212042012091100000000055370001068982000000001072616000000000000000000000000003634050000000000  3020121206   01          2                                                                                   3915298380000000266671010419                                                  N                     01321  0000000        000117
12062539994000176LEALFER INDUSTRIA E COMERCIO D                                        0000000003300000000000000000000000000000919321940000006400000000005787001     201212042012110500000000055370000596925000000000598954000000000000000000000000002029050000000000  3020121206   01          2                                                                                   3915298380000000288764010419                                                  N                     01321  0000000        000118
12062539994000176LEALFER INDUSTRIA E COMERCIO D                                        0000000003300000000000000000000000000000919321950000008000000000005786801     201212042012110500000000055370000838712000000000841563000000000000000000000000002851050000000000  3020121206   01          2                                                                                   3915298380000000288780010459                                                  N                     01321  0000000        000119
12062539994000176LEALFER INDUSTRIA E COMERCIO D                                        0000000003300000000000000000000000000000919321960000000000000000005796701     201212052012110600000000055380000298074000000000298580000000000000000000000000000506050000000000  3020121206   01          2                                                                                   3915298380000000288900010479                                                  N                     01321  0000000        000120
12062539994000176LEALFER INDUSTRIA E COMERCIO D                                        0000000003300000000000000000000000000000919321970000003400000000005797001     201212052012110600000000055380000591708000000000592713000000000000000000000000001005050000000000  3020121206   01          2                                                                                   3915298380000000288934010459                                                  N                     01321  0000000        000121
12062539994000176LEALFER INDUSTRIA E COMERCIO D                                        0000000003300000000000000000000000000000902449830000001800000000005648902     201212042012100900000000055370000447825000000000449347000000000000000000000000001522050000000000  3020121206   01          2                                                                                   3915298380000000278718010419                                                  N                     01321  0000000        000122
12062539994000176LEALFER INDUSTRIA E COMERCIO D                                        0000000003300000000000000000000000000000933583060000000500000000005891201     201212242012112600000000055570000378516000000000378516000000000000000000000000000000050000000000  3020121224   01FS        1                                                                                   3915298380000000300705010449                                                  N                     01321  0000000        000123
12062539994000176LEALFER INDUSTRIA E COMERCIO D                                        0000000003300000000000000000000000000000933583070000005600000000005892401     201212242012112600000000055570000764925000000000764925000000000000000000000000000000050000000000  3020121224   01FS        1                                                                                   3915298380000000300756010479                                                  N                     01321  0000000        000124
12062539994000176LEALFER INDUSTRIA E COMERCIO D                                        0000000003300000000000000000000000000000933583080000008800000000005919601     201212282012113000000000055610001011633000000001011633000000000000000000000000000000050000000000  3020121228   01FS        1                                                                                   3915298380000000301388010469                                                  N                     01321  0000000        000125
12062539994000176LEALFER INDUSTRIA E COMERCIO D                                        0000000003300000000000000000000000000000933583090000008700000000005892402     201301212012112600000000055850000764925000000000764925000000000000000000000000000000050000000000  3020130121   01FS        1                                                                                   3915298380000000304387010419                                                  N                     01321  0000000        000126
12062539994000176LEALFER INDUSTRIA E COMERCIO D                                        0000000003300000000000000000000000000000933583100000002600000000005917101     201212282012112900000000055610000452989000000000452989000000000000000000000000000000050000000000  3020121228   01FS        1                                                                                   3915298380000000301426010489                                                  N                     01321  0000000        000127
12062539994000176LEALFER INDUSTRIA E COMERCIO D                                        0000000003300000000000000000000000000000933583110000002200000000005891202     201301212012112600000000055850000378514000000000378514000000000000000000000000000000050000000000  3020130121   01FS        1                                                                                   3915298380000000304522010489                                                  N                     01321  0000000        000128
12062539994000176LEALFER INDUSTRIA E COMERCIO D                                        0000000003300000000000000000000000000000933583120000001000000000005924101     201212312012113000000000055640000455700000000000455700000000000000000000000000000000050000000000  3020121231   01FS        1                                                                                   3915298380000000301710010489                                                  N                     01321  0000000        000129
12062539994000176LEALFER INDUSTRIA E COMERCIO D                                        0000000003300000000000000000000000000000933583130000000900000000005921501     201212312012113000000000055640000142491000000000142491000000000000000000000000000000050000000000  3020121231   01FS        1                                                                                   3915298380000000301809010419                                                  N                     01321  0000000        000130
12062539994000176LEALFER INDUSTRIA E COMERCIO D                                        0000000003300000000000000000000000000000933583140000001700000000005928001     201212312012113000000000055640000168243000000000168243000000000000000000000000000000050000000000  3020121231   01FS        1                                                                                   3915298380000000301817010419                                                  N                     01321  0000000        000131
12062539994000176LEALFER INDUSTRIA E COMERCIO D                                        0000000003300000000000000000000000000000933583150000005000000000005891203     201302182012112600000000056130000378514000000000378514000000000000000000000000000000050000000000  3020130218   01FS        1                                                                                   3915298380000000307050010429                                                  N                     01321  0000000        000132
12062539994000176LEALFER INDUSTRIA E COMERCIO D                                        0000000003300000000000000000000000000000933583160000007300000000005924102     201301282012113000000000055920000455700000000000455700000000000000000000000000000000050000000000  3020130128   01FS        1                                                                                   3915298380000000305073010449                                                  N                     01321  0000000        000133
12062539994000176LEALFER INDUSTRIA E COMERCIO D                                        0000000003300000000000000000000000000000933583170000009000000000005917103     201302222012112900000000056170000452987000000000452987000000000000000000000000000000050000000000  3020130222   01FS        1                                                                                   3915298380000000307190010489                                                  N                     01321  0000000        000134
12062539994000176LEALFER INDUSTRIA E COMERCIO D                                        0000000003300000000000000000000000000000933583180000005400000000005921502     201301282012113000000000055920000142490000000000142490000000000000000000000000000000050000000000  3020130128   01FS        1                                                                                   3915298380000000305154010419                                                  N                     01321  0000000        000135
12062539994000176LEALFER INDUSTRIA E COMERCIO D                                        0000000003300000000000000000000000000000933583190000006000000000005928002     201301282012113000000000055920000168241000000000168241000000000000000000000000000000050000000000  3020130128   01FS        1                                                                                   3915298380000000305260010479                                                  N                     01321  0000000        000136
12062539994000176LEALFER INDUSTRIA E COMERCIO D                                        0000000003300000000000000000000000000000933583200000000500000000005917102     201301252012112900000000055890000452987000000000452987000000000000000000000000000000050000000000  3020130125   01FS        1                                                                                   3915298380000000304905010439                                                  N                     01321  0000000        000137
12062539994000176LEALFER INDUSTRIA E COMERCIO D                                        0000000003300000000000000000000000000000933583210000009100000000005892403     201302182012112600000000056130000764925000000000764925000000000000000000000000000000050000000000  3020130218   01FS        1                                                                                   3915298380000000306991010499                                                  N                     01321  0000000        000138
12062539994000176LEALFER INDUSTRIA E COMERCIO D                                        0000000003300000000000000000000000000000933583220000005600000000005919602     201301252012113000000000055890001011633000000001011633000000000000000000000000000000050000000000  3020130125   01FS        1                                                                                   3915298380000000304956010419                                                  N                     01321  0000000        000139
12062539994000176LEALFER INDUSTRIA E COMERCIO D                                        0000000003300000000000000000000000000000933583230000004600000000005921503     201302252012113000000000056200000142490000000000142490000000000000000000000000000000050000000000  3020130225   01FS        1                                                                                   3915298380000000307246010429                                                  N                     01321  0000000        000140
12062539994000176LEALFER INDUSTRIA E COMERCIO D                                        0000000003300000000000000000000000000000933583240000000300000000005919603     201302222012113000000000056170001011633000000001011633000000000000000000000000000000050000000000  3020130222   01FS        1                                                                                   3915298380000000307203010469                                                  N                     01321  0000000        000141
12062539994000176LEALFER INDUSTRIA E COMERCIO D                                        0000000003300000000000000000000000000000933583250000002000000000005924103     201302252012113000000000056200000455700000000000455700000000000000000000000000000000050000000000  3020130225   01FS        1                                                                                   3915298380000000307220010429                                                  N                     01321  0000000        000142
12062539994000176LEALFER INDUSTRIA E COMERCIO D                                        0000000003300000000000000000000000000000933583260000005400000000005928003     201302252012113000000000056200000168241000000000168241000000000000000000000000000000050000000000  3020130225   01FS        1                                                                                   3915298380000000307254010469                                                  N                     01321  0000000        000143
12064952757000168WALMAC COM DE PROD QUIMICOS LT                                        0000000034100000000000000000000000000000896979510000002462157570021611        201211292012100400000000055320000219267000000000222284000000000000000000000000003017050000000000  3020121206   01          2                                                                                   3112462157572064807961400059                                                  N                     01321  0000000        000144
12064952757000168WALMAC COM DE PROD QUIMICOS LT                                        0000000034100000000000000000000000000000860403450000002275821700020148        201210052012080300000000054770000219267000000000245989000000000000000000000000026722050000000000  3020121206   01          2                                                                                   3112275821703064807961400029                                                  N                     01321  0000000        000145
12066841552000130R V SEG PATRIMONIAL S C LTDA                                          00000000341000000000000000000000000000008887329800000090002213622136          201210102012091100000000054820000374758000000000381883000000000000000000000000007125050000000000  3020121206   01          2                                                                                   3109000221365001838994000069                                                  N                     01321  0000000        000146
12066841552000130R V SEG PATRIMONIAL LTDA                                              00000000341000000000000000000000000000008852483200000090002192721927          201209102012081000000000054520000483241000000000497248000000000000000000000000014007050000000000  3020121206   01          2                                                                                   3109000219270001835253400099                                                  N                     01321  0000000        000147
12066899790000105FABRICA ARTEF LATEX ESTRELA EP                                        00000000399000000000000000000000000000008810327900000000000000078368 003      201211262012091200000000055290000256928000000000256928000000000000000000000000000000050000000000  3020121126   05          3                                                                                   3175972859221125027292500199                                                  N                     01321  0000000        000148
12068109784000124TARCOM TECN AR COMPRIMIDO LTDA                                        00000000341000000000000000000000000000009135850300000070271816900000262 A     201212022012110500000000055350000168345000000000170589000000000000000000000000002244050000000000  3020121206   01          2                                                                                   3157027181698846115840700019                                                  N                     01321  0000000        000149
12069284248000128ISOCOAT TINTAS E VERNIZES LTDA                                        0000000034100000000000000000000000000000895189840000002456588200056254        201212032012100200000000055360000317968000000000320512000000000000000000000000002544050000000000  3020121206   01          2                                                                                   3112456588204077430121200019                                                  N                     01321  0000000        000150
12069284248000128ISOCOAT TINTAS E VERNIZES LTDA                                        0000000034100000000000000000000000000000841061040000002182507930052085        201209172012070200000000054590000236130000000000286530000000000000000000000000050400050000000000  3020121206   01          2                                                                                   3112182507932077430121200019                                                  N                     01321  0000000        000151
12069284248000128ISOCOAT TINTAS E VERNIZES LTDA                                        0000000034100000000000000000000000000000911410140000002506612020057027        201212032012101900000000055360000365668000000000368593000000000000000000000000002925050000000000  3020121206   01          2                                                                                   3112506612020077430121200099                                                  N                     01321  0000000        000152
12069284248000128ISOCOAT TINTAS E VERNIZES LTDA                                        0000000034100000000000000000000000000000888732960000002421485720055761        201211202012092100000000055230000093324000000000097308000000000000000000000000003984050000000000  3020121206   01          2                                                                                   3112421485726077430121200069                                                  N                     01321  0000000        000153
12096500087000135WORKBENCH CONSULTORIA S S LTDA                                        0000000034100000000000000000000000000000912467970000007023696933218           201211272012110100000000055300000131746000000000134077000000000000000000000000002331050000000000  3020121206   01          2                                                                                   3157023696939826313803700019                                                  N                     01321  0000000        000154
12096500087000135WORKBENCH CONSULTORIA S S LTDA                                        0000000034100000000000000000000000000000878205840000007940034283118           201209272012090300000000054690000131746000000000149876000000000000000000000000018130050000000000  3020121206   01          2                                                                                   3157940034289826313803700089                                                  N                     01321  0000000        000155
900015600000000075462334                                                                                                                                                                                                                                                                                                                                                                                                                                                                01321  0000000        000156
