0000147602043799295000110ALTAMIRA INDUSTRIA METALURGICA LT       202000000014220121006062348             1                                                                                                                                                                                                                                                                                                                                                                                                    000001
12000365592000145AMPRO LABORATORIO E ENGENHARIA                                        00000000001000000000000000000000000000008723186200000000520500003316A         201209292012083100000000054710000083233000000000086391000000000000000000000000003158050000000000  3020121008   01          2                                                                                   3000000133159100000052051749                                                  N                     01321  0000000        000002
12001852612000175BT EQUIPAMENTOS INDUSTRIAIS LT                                        000000000330000000000000000000000000000087577366000000610000000594061         201210012012090600000000054730000041502000000000042377000000000000000000000000000875050000000000  3020121008   01          2                                                                                   3913651000000000594061010479                                                  N                     01321  0000000        000003
12001895314000162COLETA INDUSTRIAL FIMAVAN LTDA                                        0000000034100000000000000000000000000000866992070000009002335349439           201208272012081700000000054380000123695000000000139987000000000000000000000000016292050000000000  3020121008   01          2                                                                                   3109002335346144604097200019                                                  N                     01321  0000000        000004
12001895314000162COLETA INDUSTRIAL FIMAVAN LTDA                                        00000000341000000000000000000000000000008844324600000090023445310405          201209272012091700000000054690000158141000000000165935000000000000000000000000007794050000000000  3020121008   01          2                                                                                   3109002344538144604097200029                                                  N                     01321  0000000        000005
12002460454000170AUT SERVICE COMERCIO E SERVICO                                        0000000023702591700000000007692 000000008515292000901322060028234532 2        201209172012072400000000054590000238750000000000260725000000000000000000000000021975050000000000  3020121008   01          2  RUA JUNO  533                                                                    3                         000000000000000                                     N                     00598  0000000        000006
12002469103000120COMPROCRED FOMENTO MERCANTIL L                                        0000000023703511400000000106739 0000000088012259002022550000043022145 12      201210012012090500000000054730000093000000000000095170000000000000000000000000002170050000000000  3020121008   01          2  RUA TAMAINDE 1410 VILA NOVA MANCH SAO PATRANSPORTADORA FIOROT LTDA               3                         000252984000106                                     N                     00598  0000000        000007
12002480300000140STARNIC FACTORING LTDA                                                0000000023700614900000000683043 00000000894344230090132277004631788           201210242012092100000000054960000247500000000000247500000000000000000000000000000000050000000000  3020121024   05          3  RUA TAMAINDE 1410                       FATEK IND E COM DE ART METAIS LTDA       3                         007992438000142                                     N                     00598  0000000        000008
12002503185000182ANDAIMES E MAQUINAS BIG LTDA                                          000000003410000000000000000000000000000087820531000000233954448011791         201209212012082700000000054630000026000000000000026809000000000000000000000000000809050000000000  3020121008   01          2                                                                                   3112339544481925303435000019                                                  N                     01321  0000000        000009
12002503185000182ANDAIMES MAQUINAS BIG LTDA EPP                                        0000000034100000000000000000000000000000874070480000002313590765101           201209142012082000000000054560000016500000000000017094000000000000000000000000000594050000000000  3020121008   01          2                                                                                   3112313590765650303800900019                                                  N                     01321  0000000        000010
12002503185000182ANDAIMES MAQUINAS BIG LTDA EPP                                        000000003410000000000000000000000000000086282613000000228719913011660         201208302012081000000000054410000012000000000000012552000000000000000000000000000552050000000000  3020121008   01          2                                                                                   3112287199130650303800900039                                                  N                     01321  0000000        000011
12003489596000123BEND FLEX I COMERCIO LTDA                                             000000003410000000000000000000000000000088957854000000172413968615            201209212012082300000000054630000582750000000000602232000000000000000000000000019482050000000000  3020121008   01          2                                                                                   3191724139685157734445800049                                                  N                     01321  0000000        000012
12003489596000123BEND FLEX I COMERCIO LTDA                                             000000003410000000000000000000000000000088350832000000171879874608            201209122012082100000000054540000695250000000000730792000000000000000000000000035542050000000000  3020121008   01          2                                                                                   3191718798744157734445800069                                                  N                     01321  0000000        000013
12003489596000123BEND FLEX I COMERCIO LTDA                                             000000003410000000000000000000000000000088599899000000171434574613            201209172012081600000000054590000585000000000000609171000000000000000000000000024171050000000000  3020121008   01          2                                                                                   3191714345748157734445800019                                                  N                     01321  0000000        000014
12003489596000123BEND FLEX I COMERCIO LTDA                                             000000003410000000000000000000000000000089518988000000173425770617            201210012012083000000000054730000722200000000000732140000000000000000000000000009940050000000000  3020121008   01          2                                                                                   3191734257709157734445800079                                                  N                     01321  0000000        000015
12005151518000140BELENUS DO BRASIL LTDA                                                000000000010000000000000000000000000000089605039000000358106000R131268322     201211272012100400000000055300000078720000000000078720000000000000000000000000000000050000000000  3020121127   01FS        1                                                                                   3000000123933844123581063129                                                  N                     01321  0000000        000016
12005151518000140BELENUS DO BRASIL LTDA                                                000000000010000000000000000000000000000089605040000000358107000R131268332     201212272012100400000000055600000078720000000000078720000000000000000000000000000000050000000000  3020121227   01FS        1                                                                                   3000000123933844123581073129                                                  N                     01321  0000000        000017
12005151518000140BELENUS DO BRASIL LTDA                                                000000000010000000000000000000000000000089605041000000358105000R131268312     201210282012100400000000055000000102337000000000102337000000000000000000000000000000050000000000  3020121029   01FS        1                                                                                   3000000123933844123581053189                                                  N                     01321  0000000        000018
12005335228000156DINAMICA INF E TELECOM LTDA EP                                        0000000023703257300000000503215 0000000088443245009032570017396MO008960A      201209302012091700000000054720000020000000000000020536000000000000000000000000000536050000000000  3020121008   01          2  RUA JUNO  533                                                                    3                         000000000000000                                     N                     00598  0000000        000019
12005852768000107DAOUD LEAL ELETRONICA LTDA ME                                         00000000033000000000000000000000000000008757736700000021000000000000000001097 201209262012090500000000054680000016558000000000017549000000000000000000000000000991050000000000  3020121008   01          2                                                                                   3949927090000000027421010429                                                  N                     01321  0000000        000020
12005880850000145NEDERMAN BRASIL COM PROD EX LT                                        000000003410000000000000000000000000000086373178000000614350956002763 A       201209252012081400000000054670000289674000000000297084000000000000000000000000007410050000000000  3020121008   01          2                                                                                   3156143509568160829000100049                                                  N                     01321  0000000        000021
12006000195000156MBA MERCANTIL BRAS DE ACO LTDA                                        0000000034100000000000000000000000000000887698100000001671394560008926B02     201209142012071700000000054560000387716000000000406028000000000000000000000000018312050000000000  3020121008   01          2                                                                                   3191671394564064849251000019                                                  N                     01321  0000000        000022
12006000195000156M B A MERCANTIL BRASILEIRA DE                                         0000000023700118P00000002128292 00000000896050460090219200000180008794B03     201209282012070600000000054700001003532000000001003532000000000000000000000000000000050000000000  3020121008   01FS        1  RUA JUNO  533                                                                    3                         000000000000000                                     N                     00598  0000000        000023
12006000195000156MBA MERCANTIL BRAS DE ACO LTDA                                        0000000034100000000000000000000000000000885998980000001667238420008870B02     201209112012071600000000054530000839952000000000884556000000000000000000000000044604050000000000  3020121008   01          2                                                                                   3191667238429064849251000039                                                  N                     01321  0000000        000024
12006000195000156MBA MERCANTIL BRAS DE ACO LTDA                                        0000000034100000000000000000000000000000889578520000001671394540008920B02     201209162012071700000000054580000576585000000000601533000000000000000000000000024948050000000000  3020121008   01          2                                                                                   3191671394549064849251000099                                                  N                     01321  0000000        000025
12006000195000156M B A MERCANTIL BRASILEIRA DE                                         0000000023700118P00000002130599 00000000853154990020220900000450008967B02     201209202012072400000000054620000135606000000000136736000000000000000000000000001356050000000000  3020120925   06          3  RUA JUNO  533                                                                    3                         000000000000000                                     N                     00598  0000000        000026
12006000195000156MBA MERCANTIL BRAS DE ACO LTDA                                        0000000034100000000000000000000000000000886866570000001667238410008874B02     201209132012071600000000054550000802826000000000842301000000000000000000000000039475050000000000  3020121008   01          2                                                                                   3191667238411064849251000049                                                  N                     01321  0000000        000027
12006000195000156M B A MERCANTIL BRASILEIRA DE                                         0000000023700118P00000002130599 00000000853155110020220900000710008987B02     201209202012072500000000054620000188368000000000189938000000000000000000000000001884050000000000  3020120925   06          3  RUA JUNO  533                                                                    3                         000000000000000                                     N                     00598  0000000        000028
12006000195000156MBA MERCL BRASILEIRA ACO LTDA                                         0000000042200000000000000000000000000000859590590000000000000000009051B02     201209262012080300000000054680000180457000000000184068000000000000000000000000003611050000000000  3020121008   01          2                                                                                   3701600007451936910173842159                                                  N                     01321  0000000        000029
12006000195000156MBA MERCANTIL BRAS DE ACO LTDA                                        0000000034100000000000000000000000000000887698080000001667238400008876B02     201209142012071600000000054560000810321000000000848577000000000000000000000000038256050000000000  3020121008   01          2                                                                                   3191667238403064849251000059                                                  N                     01321  0000000        000030
12006000195000156M B A MERCANTIL BRASILEIRA DE                                         0000000000100000000000000000000000000000855028900000007952840000009005B02     201209242012073000000000054660000202838000000000204190000000000000000000000000001690050000000000  3020120928   05          3                                                                                   3043937952843333000105251189                                                  N                     01321  0000000        000031
12006000195000156MBA MERCANTIL BRAS DE ACO LTDA                                        0000000034100000000000000000000000000000887698090000001671394550008925B02     201209142012071700000000054560000719581000000000753541000000000000000000000000033960050000000000  3020121008   01          2                                                                                   3191671394556064849251000089                                                  N                     01321  0000000        000032
12007175725000160WEG EQUIPAMENTOS ELETRICOS SA                                         0000000023702727800000000196800 00000000832180610090217400004980095359902     201209202012052300000000054620000272787000000000279321000000000000000000000000006534050000000000  3020121008   01          2  R JUNO  533                                                                      3                         000000000000000                                     N                     00598  0000000        000033
12007289649000113CRC LASER SUPR INF LTDA EPP                                           000000003410000000000000000000000000000089518989000000798566603000001157      201210022012100400000000054740000029940000000000030893000000000000000000000000000953050000000000  3020121008   01          2                                                                                   3157985666037000265431700029                                                  N                     01321  0000000        000034
12008508119000181DINARI FOMENTO MERCANTIL LTDA                                         000000004220000000000000000000000000000087820582000000000000000235            201209282012083000000000054700000220000000000000226600000000000000000000000000006600050000000000  3020121008   01          2                                                                                   3702000009323370918215242159                                                  N                     01321  0000000        000035
12008848231000161ATUAL CARGAS TRANSPORTES LTDA                                         0000000000100000000000000000000000000000881032650000000133300000001606166     201209252012091100000000054670000105328000000000106276000000000000000000000000001264050000000000  3020120928   05          3                                                                                   3000000159433800000133301799                                                  N                     01321  0000000        000036
12009419898000101LUSITANO INDUSTRIA C E P LTDA                                         00000000341000000000000000000000000000008653882000000090000757101 10137 2     201209192012081500000000054610000035135000000000037358000000000000000000000000002223050000000000  3020121008   01          2                                                                                   3109000075716001160072300049                                                  N                     01321  0000000        000037
12012006058000121WEG TINTAS LTDA                                                       0000000023702727800000000001309 00000000844839240090219500000730015168703     201209252012071200000000054670000306662000000000311966000000000000000000000000005304050000000000  3020121008   01          2  R JUNO  533                                                                      3                         000000000000000                                     N                     00598  0000000        000038
12012006058000121WEG TINTAS LTDA                                                       0000000023702727800000000001309 00000000868126340090223500001170016086601     201210052012082100000000054770000306569000000000307793000000000000000000000000001224050000000000  3020121008   01          2  R JUNO  533                                                                      3                         000000000000000                                     N                     00598  0000000        000039
12012006058000121WEG TINTAS LTDA                                                       0000000023702727800000000001309 00000000842436830090219200000850015068802     201209072012070900000000054490000306569000000000313913000000000000000000000000007752050000000000  3020120925   06          3  R JUNO  533                                                                      3                         000000000000000                                     N                     00598  0000000        000040
12012006058000121WEG TINTAS LTDA                                                       0000000023702727800000000001309 00000000841061130090218800000850014990203     201209182012070500000000054600000306662000000000314822000000000000000000000000008160050000000000  3020121008   01          2  R JUNO  533                                                                      3                         000000000000000                                     N                     00598  0000000        000041
12012006058000121WEG TINTAS LTDA                                                       0000000023702727800000000001309 00000000849855330090220500001210015343102     201209182012072000000000054600000306569000000000314729000000000000000000000000008160050000000000  3020121008   01          2  R JUNO  533                                                                      3                         000000000000000                                     N                     00598  0000000        000042
12012006058000121WEG TINTAS LTDA                                                       0000000023702727800000000001309 00000000854049540090221200001000015513001     201209102012072700000000054520000459854000000000477018000000000000000000000000017164050000000000  3020121008   01          2  R JUNO  533                                                                      3                         000000000000000                                     N                     00598  0000000        000043
12012006058000121WEG TINTAS LTDA                                                       0000000023702727800000000001309 00000000849855340090220500001220015343103     201210032012072000000000054750000306662000000000308702000000000000000000000000002040050000000000  3020121008   01          2  R JUNO  533                                                                      3                         000000000000000                                     N                     00598  0000000        000044
12012006058000121WEG TINTAS LTDA                                                       0000000023702727800000000001309 00000000842436840090219200000860015068803     201209222012070900000000054640000306662000000000313190000000000000000000000000006528050000000000  3020121008   01          2  R JUNO  533                                                                      3                         000000000000000                                     N                     00598  0000000        000045
12012006058000121WEG TINTAS LTDA                                                       0000000023702727800000000001309 00000000854049550090221200001010015513002     201209252012072700000000054670000459854000000000467823000000000000000000000000007969050000000000  3020121008   01          2  R JUNO  533                                                                      3                         000000000000000                                     N                     00598  0000000        000046
12012006058000121WEG TINTAS LTDA                                                       0000000023702727800000000001309 00000000847452150090220000000920015248102     201209152012071700000000054570000306569000000000315953000000000000000000000000009384050000000000  3020121008   01          2  R JUNO  533                                                                      3                         000000000000000                                     N                     00598  0000000        000047
12012006058000121WEG TINTAS LTDA                                                       0000000023702727800000000001309 00000000864554440090222800000730015908401     201209282012081400000000054700000306569000000000310649000000000000000000000000004080050000000000  3020121008   01          2  R JUNO  533                                                                      3                         000000000000000                                     N                     00598  0000000        000048
12012006058000121WEG TINTAS LTDA                                                       0000000023702727800000000001309 00000000847452160090220000000930015248103     201209302012071700000000054720000306662000000000309926000000000000000000000000003264050000000000  3020121008   01          2  R JUNO  533                                                                      3                         000000000000000                                     N                     00598  0000000        000049
12012006058000121WEG TINTAS LTDA                                                       0000000023702727800000000001309 00000000856071250090221400000820015587301     201209142012073100000000054560000459854000000000474566000000000000000000000000014712050000000000  3020121008   01          2  R JUNO  533                                                                      3                         000000000000000                                     N                     00598  0000000        000050
12012006058000121WEG TINTAS LTDA                                                       0000000023702727800000000001309 00000000861207260090222200000900015775001     201209222012080800000000054640000306569000000000313097000000000000000000000000006528050000000000  3020121008   01          2  R JUNO  533                                                                      3                         000000000000000                                     N                     00598  0000000        000051
12012006058000121WEG TINTAS LTDA                                                       0000000023702727800000000001309 00000000844839230090219500000720015168702     201209102012071200000000054520000306569000000000317993000000000000000000000000011424050000000000  3020121008   01          2  R JUNO  533                                                                      3                         000000000000000                                     N                     00598  0000000        000052
12012006058000121WEG TINTAS LTDA                                                       0000000023702727800000000001309 00000000856071260090221400000830015587302     201209292012073100000000054710000459854000000000465371000000000000000000000000005517050000000000  3020121008   01          2  R JUNO  533                                                                      3                         000000000000000                                     N                     00598  0000000        000053
12014309992000148WEG DRIVES   CONTROLS   AUTOMA                                        0000000023702727800000000001872 00000000828904050090217000002200005763302     201209152012051800000000054570000272992000000000281341000000000000000000000000008349050000000000  3020121008   01          2  R JUNO  533                                                                      3                         000000000000000                                     N                     00598  0000000        000054
12014775592000128HELIO ADRIANO DA SILVA ME                                             0000000003300000000000000000000000000000880122770000004900000008565 8566      201209282012091000000000054700000034500000000000035419000000000000000000000000000919050000000000  3020121008   01          2                                                                                   3956114740000000000049010129                                                  N                     01321  0000000        000055
12016802308000190TRANSMARRECO LTDA                                                     000000000330000000000000000000000000000088769814000000640000000353 12         201210052012092100000000054770000106581000000000109673000000000000000000000000003092050000000000  3020121008   01          2                                                                                   3907636240000000643564010119                                                  N                     01321  0000000        000056
12033325184001786ALSCO TOALHEIRO BRASIL                                                0000000023703396000000001490850 0000000087820607009000002716505VM27165        201209262012090600000000054680000045665000000000046217000000000000000000000000000552050000000000  3020121008   01          2  RUA  GANGES 528                                                                  3                         000000000000000                                     N                     00598  0000000        000057
12033325184001786ALSCO TOALHEIRO BRASIL                                                0000000023703396000000001490850 0000000087820608009000028814703VM00288147     201210052012090100000000054770000026347000000000026425000000000000000000000000000078050000000000  3020121008   01          2  RUA  GANGES 528                                                                  3                         000000000000000                                     N                     00598  0000000        000058
12035820448000136WHITE MARTINS GASES INDUSTRIAI                                        0000000023700026400000003937925 0000000086699210009022330000393368126 001     201209142012081800000000054560000162300000000000170730000000000000000000000000008430050000000000  3020121008   01          2  RUA GANGES  528                                                                  3                         000000000000000                                     N                     00598  0000000        000059
12035820448000136WHITE MARTINS GASES INDUSTRIAI                                        0000000023700026400000003937925 0000000086538817009022290001168366855 001     201209112012081600000000054530000121725000000000128533000000000000000000000000006808050000000000  3020121008   01          2  RUA GANGES  528                                                                  3                         000000000000000                                     N                     00598  0000000        000060
12035820448000136WHITE MARTINS GASES INDUSTRIAI                                        0000000023700026400000003937925 0000000086812633009022350001453369229 001     201209182012082200000000054600000056805000000000059461000000000000000000000000002656050000000000  3020121008   01          2  RUA GANGES  528                                                                  3                         000000000000000                                     N                     00598  0000000        000061
12035820448000136WHITE MARTINS GASES INDUSTRIAI                                        0000000023700026400000003937925 0000000087067052009022420002594374120 001     201209252012082900000000054670000113610000000000117845000000000000000000000000004235050000000000  3020121008   01          2  RUA GANGES  528                                                                  3                         000000000000000                                     N                     00598  0000000        000062
12035820448000136WHITE MARTINS GASES INDUSTRIAI                                        0000000023700026400000003937925 0000000089605045009022790001498389880 001     201211012012100500000000055040000040575000000000040575000000000000000000000000000000050000000000  3020121101   01FS        1  RUA GANGES  528                                                                  3                         000000000000000                                     N                     00598  0000000        000063
12035820448000136WHITE MARTINS GASES INDUSTRIAI                                        0000000023700026400000003937925 0000000086907101009022370010705372273 001     201209202012082400000000054620000017600000000000018366000000000000000000000000000766050000000000  3020121008   01          2  RUA GANGES  528                                                                  3                         000000000000000                                     N                     00598  0000000        000064
12035820448000136WHITE MARTINS GASES INDUSTRIAI                                        0000000023700026400000003937925 0000000087577331009022500001416377141 001     201210022012090600000000054740000040575000000000041470000000000000000000000000000895050000000000  3020121008   01          2  RUA GANGES  528                                                                  3                         000000000000000                                     N                     00598  0000000        000065
12035820448000136WHITE MARTINS GASES INDUSTRIAI                                        0000000023700026400000003937925 0000000086907102009022370011747372774 001     201209202012082400000000054620000040575000000000042358000000000000000000000000001783050000000000  3020121008   01          2  RUA GANGES  528                                                                  3                         000000000000000                                     N                     00598  0000000        000066
12035820448000136WHITE MARTINS GASES INDUSTRIAI                                        0000000023700026400000003937925 0000000087168275009022440000143375351 001     201209272012083100000000054690000040575000000000041980000000000000000000000000001405050000000000  3020121008   01          2  RUA GANGES  528                                                                  3                         000000000000000                                     N                     00598  0000000        000067
12035820448000136WHITE MARTINS GASES INDUSTRIAI                                        0000000023700026400000003937925 0000000087820600009022540001838377866 001     201210042012090700000000054760000202876000000000207205000000000000000000000000004329050000000000  3020121008   01          2  RUA GANGES  528                                                                  3                         000000000000000                                     N                     00598  0000000        000068
12042956441000101SOLUCOES ACO USIMINAS                                                 0000000034100000000000000000000000000000841725600000002188168670016891203     201209272012070500000000054690001132542000000001157457000000000000000000000000024915050000000000  3020121008   01          2                                                                                   3112188168671293807258000069                                                  N                     01321  0000000        000069
12042956441000101SOLUCOES ACO USIMINAS                                                 0000000034100000000000000000000000000000858616410000002271409770017319302     201209272012080200000000054690000981526000000001003119000000000000000000000000021593050000000000  3020121008   01          2                                                                                   3112271409776293807258000019                                                  N                     01321  0000000        000070
12042956441000101SOLUCOES ACO USIMINAS                                                 0000000034100000000000000000000000000000836417910000002164218370016738103     201209192012062700000000054610000830173000000000861713000000000000000000000000031540050000000000  3020121008   01          2                                                                                   3112164218375293807258000039                                                  N                     01321  0000000        000071
12042956441000101SOLUCOES ACO USIMINAS                                                 0000000034100000000000000000000000000000855028700000002254329390017213002     201209212012072600000000054630000140602000000000145379000000000000000000000000004777050000000000  3020121008   01          2                                                                                   3112254329397293807258000089                                                  N                     01321  0000000        000072
12042956441000101SOLUCOES ACO USIMINAS                                                 0000000034100000000000000000000000000000850740490000002233586830017126902     201209172012072000000000054590000208392000000000217149000000000000000000000000008757050000000000  3020121008   01          2                                                                                   3112233586836293807258000089                                                  N                     01321  0000000        000073
12042956441000101SOLUCOES ACO USIMINAS                                                 0000000034100000000000000000000000000000853154840000002246247030017196702     201209202012072500000000054620000234841000000000243301000000000000000000000000008460050000000000  3020121008   01          2                                                                                   3112246247038293807258000099                                                  N                     01321  0000000        000074
12042956441000101SOLUCOES ACO USIMINAS                                                 0000000034100000000000000000000000000000840313040000002181699250016829703     201209242012070200000000054660000643711000000000661729000000000000000000000000018018050000000000  3020121008   01          2                                                                                   3112181699250293807258000019                                                  N                     01321  0000000        000075
12042956441000101SOLUCOES ACO USIMINAS                                                 0000000034100000000000000000000000000000841725580000002188168650016884903     201209272012070500000000054690000531835000000000543539000000000000000000000000011704050000000000  3020121008   01          2                                                                                   3112188168655293807258000019                                                  N                     01321  0000000        000076
12042956441000101SOLUCOES ACO USIMINAS                                                 0000000034100000000000000000000000000000843180440000002194744360016902903     201209282012070600000000054700000179794000000000183394000000000000000000000000003600050000000000  3020121008   01          2                                                                                   3112194744366293807258000079                                                  N                     01321  0000000        000077
12042956441000101SOLUCOES ACO USIMINAS                                                 0000000034100000000000000000000000000000858616420000002271409780017319402     201209272012080200000000054690000178902000000000182840000000000000000000000000003938050000000000  3020121008   01          2                                                                                   3112271409784293807258000029                                                  N                     01321  0000000        000078
12042956441000101SOLUCOES ACO USIMINAS                                                 0000000034100000000000000000000000000000855028720000002254329340017200202     201209202012072600000000054620000680385000000000704883000000000000000000000000024498050000000000  3020121008   01          2                                                                                   3112254329348293807258000079                                                  N                     01321  0000000        000079
12042956441000101SOLUCOES ACO USIMINAS                                                 0000000034100000000000000000000000000000841725560000002188168640016884803     201209272012070500000000054690000120612000000000123263000000000000000000000000002651050000000000  3020121008   01          2                                                                                   3112188168648293807258000059                                                  N                     01321  0000000        000080
12042956441000101SOLUCOES ACO USIMINAS                                                 0000000034100000000000000000000000000000853154850000002246247040017197302     201209202012072500000000054620000970103000000001005023000000000000000000000000034920050000000000  3020121008   01          2                                                                                   3112246247046293807258000019                                                  N                     01321  0000000        000081
12042956441000101SOLUCOES ACO USIMINAS                                                 0000000034100000000000000000000000000000850740480000002233586820017101202     201209142012071900000000054560000144634000000000151570000000000000000000000000006936050000000000  3020121008   01          2                                                                                   3112233586828293807258000029                                                  N                     01321  0000000        000082
12042956441000101SOLUCOES ACO USIMINAS                                                 0000000034100000000000000000000000000000840313050000002181699260016829803     201209242012070200000000054660000322527000000000331557000000000000000000000000009030050000000000  3020121008   01          2                                                                                   3112181699268293807258000029                                                  N                     01321  0000000        000083
12042956441000101SOLUCOES ACO USIMINAS                                                 0000000034100000000000000000000000000000859590620000002274469790017353702     201209282012080300000000054700000081053000000000082673000000000000000000000000001620050000000000  3020121008   01          2                                                                                   3112274469793293807258000069                                                  N                     01321  0000000        000084
12042956441000101SOLUCOES ACO USIMINAS                                                 0000000034100000000000000000000000000000848180710000002220192910017041202     201209112012071700000000054530000205421000000000216518000000000000000000000000011097050000000000  3020121008   01          2                                                                                   3112220192911293807258000019                                                  N                     01321  0000000        000085
12042956441000101SOLUCOES ACO USIMINAS                                                 0000000034100000000000000000000000000000858616430000002271409790017319502     201209272012080200000000054690000197380000000000201725000000000000000000000000004345050000000000  3020121008   01          2                                                                                   3112271409792293807258000049                                                  N                     01321  0000000        000086
12042956441000101SOLUCOES ACO USIMINAS                                                 0000000034100000000000000000000000000000841725570000002188168690016891503     201209272012070500000000054690001128343000000001153170000000000000000000000000024827050000000000  3020121008   01          2                                                                                   3112188168697293807258000039                                                  N                     01321  0000000        000087
12042956441000101SOLUCOES ACO USIMINAS                                                 0000000034100000000000000000000000000000855028730000002254329350017200302     201209202012072600000000054620000156896000000000162548000000000000000000000000005652050000000000  3020121008   01          2                                                                                   3112254329355293807258000029                                                  N                     01321  0000000        000088
12042956441000101SOLUCOES ACO USIMINAS                                                 0000000034100000000000000000000000000000840313080000002181699230016814403     201209242012070200000000054660000968423000000000995541000000000000000000000000027118050000000000  3020121008   01          2                                                                                   3112181699235293807258000079                                                  N                     01321  0000000        000089
12042956441000101SOLUCOES ACO USIMINAS                                                 0000000034100000000000000000000000000000846595710000002210880290016980602     201209102012071200000000054520000426094000000000449950000000000000000000000000023856050000000000  3020121008   01          2                                                                                   3112210880293293807258000019                                                  N                     01321  0000000        000090
12042956441000101SOLUCOES ACO USIMINAS                                                 0000000034100000000000000000000000000000858616440000002271409800017319602     201209272012080200000000054690000197044000000000201378000000000000000000000000004334050000000000  3020121008   01          2                                                                                   3112271409800293807258000019                                                  N                     01321  0000000        000091
12042956441000101SOLUCOES ACO USIMINAS                                                 0000000034100000000000000000000000000000855028770000002254329400017220502     201209212012072700000000054630000981022000000001014376000000000000000000000000033354050000000000  3020121008   01          2                                                                                   3112254329405293807258000099                                                  N                     01321  0000000        000092
12042956441000101SOLUCOES ACO USIMINAS                                                 0000000034100000000000000000000000000000855028670000002254329360017200402     201209202012072600000000054620000163224000000000169092000000000000000000000000005868050000000000  3020121008   01          2                                                                                   3112254329363293807258000069                                                  N                     01321  0000000        000093
12042956441000101SOLUCOES ACO USIMINAS                                                 0000000034100000000000000000000000000000840313090000002181699240016827103     201209242012070200000000054660000703009000000000722693000000000000000000000000019684050000000000  3020121008   01          2                                                                                   3112181699243293807258000019                                                  N                     01321  0000000        000094
12042956441000101SOLUCOES ACO USIMINAS                                                 0000000034100000000000000000000000000000850740460000002233586800017127201     201208202012072000000000054310000137881000000000151405000000000000000000000000013524050000000000  3020121008   01          2                                                                                   3112233586802293807258000019                                                  N                     01321  0000000        000095
12042956441000101SOLUCOES ACO USIMINAS                                                 0000000034100000000000000000000000000000856906420000002262886290017266301     201208282012073000000000054390000145069000000000156959000000000000000000000000011890050000000000  3020121008   01          2                                                                                   3112262886297293807258000099                                                  N                     01321  0000000        000096
12042956441000101SOLUCOES ACO USIMINAS                                                 0000000034100000000000000000000000000000858616450000002271409810017319702     201209272012080200000000054690000197212000000000201546000000000000000000000000004334050000000000  3020121008   01          2                                                                                   3112271409818293807258000019                                                  N                     01321  0000000        000097
12042956441000101SOLUCOES ACO USIMINAS                                                 0000000034100000000000000000000000000000850740470000002233586810017101002     201209142012071900000000054560000732575000000000767735000000000000000000000000035160050000000000  3020121008   01          2                                                                                   3112233586810293807258000019                                                  N                     01321  0000000        000098
12042956441000101SOLUCOES ACO USIMINAS                                                 0000000034100000000000000000000000000000856906410000002262886280017266201     201208282012073000000000054390000119472000000000129271000000000000000000000000009799050000000000  3020121008   01          2                                                                                   3112262886289293807258000089                                                  N                     01321  0000000        000099
12042956441000101SOLUCOES ACO USIMINAS                                                 0000000034100000000000000000000000000000841725540000002188168620016859403     201209262012070400000000054680000164455000000000168403000000000000000000000000003948050000000000  3020121008   01          2                                                                                   3112188168622293807258000019                                                  N                     01321  0000000        000100
12042956441000101SOLUCOES ACO USIMINAS                                                 0000000034100000000000000000000000000000856906430000002262886300017266202     201209252012073000000000054670000119436000000000122543000000000000000000000000003107050000000000  3020121008   01          2                                                                                   3112262886305293807258000019                                                  N                     01321  0000000        000101
12042956441000101SOLUCOES ACO USIMINAS                                                 0000000034100000000000000000000000000000858616460000002271409820017319802     201209272012080200000000054690000194525000000000198804000000000000000000000000004279050000000000  3020121008   01          2                                                                                   3112271409826293807258000079                                                  N                     01321  0000000        000102
12042956441000101SOLUCOES ACO USIMINAS                                                 0000000034100000000000000000000000000000846595700000002210880280016980502     201209102012071200000000054520000156071000000000164807000000000000000000000000008736050000000000  3020121008   01          2                                                                                   3112210880285293807258000039                                                  N                     01321  0000000        000103
12042956441000101SOLUCOES ACO USIMINAS                                                 0000000034100000000000000000000000000000850740510000002233586850017127102     201209172012072000000000054590000167727000000000174762000000000000000000000000007035050000000000  3020121008   01          2                                                                                   3112233586851293807258000039                                                  N                     01321  0000000        000104
12042956441000101SOLUCOES ACO USIMINAS                                                 0000000034100000000000000000000000000000841725550000002188168630016859503     201209262012070400000000054680000234336000000000239964000000000000000000000000005628050000000000  3020121008   01          2                                                                                   3112188168630293807258000089                                                  N                     01321  0000000        000105
12042956441000101SOLUCOES ACO USIMINAS                                                 0000000034100000000000000000000000000000841725610000002188168680016891403     201209272012070500000000054690000795233000000000812723000000000000000000000000017490050000000000  3020121008   01          2                                                                                   3112188168689293807258000029                                                  N                     01321  0000000        000106
12042956441000101SOLUCOES ACO USIMINAS                                                 0000000034100000000000000000000000000000850740500000002233586840017127002     201209172012072000000000054590000190428000000000198429000000000000000000000000008001050000000000  3020121008   01          2                                                                                   3112233586844293807258000019                                                  N                     01321  0000000        000107
12042956441000101SOLUCOES ACO USIMINAS                                                 0000000034100000000000000000000000000000856906440000002262886310017266302     201209252012073000000000054670000145025000000000148795000000000000000000000000003770050000000000  3020121008   01          2                                                                                   3112262886313293807258000029                                                  N                     01321  0000000        000108
12042956441000101SOLUCOES ACO USIMINAS                                                 0000000034100000000000000000000000000000855028690000002254329380017212902     201209212012072600000000054630000140098000000000144858000000000000000000000000004760050000000000  3020121008   01          2                                                                                   3112254329389293807258000019                                                  N                     01321  0000000        000109
12042956441000101SOLUCOES ACO USIMINAS                                                 0000000034100000000000000000000000000000858616390000002271409750017315102     201209272012080200000000054690000579374000000000592123000000000000000000000000012749050000000000  3020121008   01          2                                                                                   3112271409750293807258000019                                                  N                     01321  0000000        000110
12042956441000101SOLUCOES ACO USIMINAS                                                 0000000034100000000000000000000000000000861207230000002282166990017385802     201210022012080700000000054740000714796000000000723376000000000000000000000000008580050000000000  3020121008   01          2                                                                                   3112282166993293807258000049                                                  N                     01321  0000000        000111
12042956441000101SOLUCOES ACO USIMINAS                                                 0000000034100000000000000000000000000000846595730000002210880310016980603     201210052012071200000000054770000426094000000000428650000000000000000000000000002556050000000000  3020121008   01          2                                                                                   3112210880319293807258000099                                                  N                     01321  0000000        000112
12042956441000101SOLUCOES ACO USIMINAS                                                 0000000034100000000000000000000000000000847452100000002216130340017012402     201209102012071500000000054520000147428000000000155688000000000000000000000000008260050000000000  3020121008   01          2                                                                                   3112216130347293807258000059                                                  N                     01321  0000000        000113
12042956441000101SOLUCOES ACO USIMINAS                                                 0000000034100000000000000000000000000000847452070000002216130350005922202     201209102012071600000000054520000172071000000000181703000000000000000000000000009632050000000000  3020121008   01          2                                                                                   3112216130354293807258000049                                                  N                     01321  0000000        000114
12042956441000101SOLUCOES ACO USIMINAS                                                 0000000034100000000000000000000000000000846595720000002210880300016980503     201210052012071200000000054770000156071000000000157007000000000000000000000000000936050000000000  3020121008   01          2                                                                                   3112210880301293807258000059                                                  N                     01321  0000000        000115
12042956441000101SOLUCOES ACO USIMINAS                                                 0000000034100000000000000000000000000000859590630000002274469800017353802     201209282012080300000000054700000166998000000000170338000000000000000000000000003340050000000000  3020121008   01          2                                                                                   3112274469801293807258000059                                                  N                     01321  0000000        000116
12042956441000101SOLUCOES ACO USIMINAS                                                 0000000034100000000000000000000000000000855028680000002254329370017202402     201209202012072600000000054620000244136000000000252920000000000000000000000000008784050000000000  3020121008   01          2                                                                                   3112254329371293807258000079                                                  N                     01321  0000000        000117
12042956441000101SOLUCOES ACO USIMINAS                                                 0000000034100000000000000000000000000000841725590000002188168660016885103     201209272012070500000000054690000219722000000000224551000000000000000000000000004829050000000000  3020121008   01          2                                                                                   3112188168663293807258000049                                                  N                     01321  0000000        000118
12042956441000101SOLUCOES ACO USIMINAS                                                 0000000034100000000000000000000000000000858616400000002271409760017316002     201209272012080200000000054690000929451000000000949900000000000000000000000000020449050000000000  3020121008   01          2                                                                                   3112271409768293807258000079                                                  N                     01321  0000000        000119
12042956441000101SOLUCOES ACO USIMINAS                                                 0000000034100000000000000000000000000000844063840000002198870040016923303     201210022012071000000000054740000442971000000000448287000000000000000000000000005316050000000000  3020121008   01          2                                                                                   3112198870043293807258000069                                                  N                     01321  0000000        000120
12042956441000101SOLUCOES ACO USIMINAS                                                 0000000034100000000000000000000000000000848180700000002220192900017041002     201209112012071700000000054530000155433000000000163830000000000000000000000000008397050000000000  3020121008   01          2                                                                                   3112220192903293807258000029                                                  N                     01321  0000000        000121
12042956441000101SOLUCOES ACO USIMINAS                                                 0000000034100000000000000000000000000000853154830000002246247020017196602     201209202012072500000000054620000804808000000000833788000000000000000000000000028980050000000000  3020121008   01          2                                                                                   3112246247020293807258000089                                                  N                     01321  0000000        000122
12043217850000159IOB INFORMACOES OBJ  PUBL JURI                                        0000000023702374400000002958600 000000008711912800902243000063301440820F2     201209202012083000000000054620000072850000000000074739000000000000000000000000001889050000000000  3020121008   01          2  R GANGES 528                                                                     3                         000000000000000                                     N                     00598  0000000        000123
12043217850000159IOB INFORMACOES OBJ  PUBL JURI                                        0000000023702374400000002958600 000000008540495200902212000099001440820E4     201208202012073000000000054310000072850000000000075483000000000000000000000000002633050000000000  3020121008   01          2  GANGES 528 VL NOVA MANCHESTER                                                    3                         000000000000000                                     N                     00598  0000000        000124
12047190731000100DE CASTRO LOUR ENG IND LTDA                                           00000000341000000000000000000000000000008782059900000023602715003026744 0     201211292012082900000000055320000146594000000000146594000000000000000000000000000000050000000000  3020121129   01          2                                                                                   3112360271509036884500400069                                                  N                     01321  0000000        000125
12047190731000100DE CASTRO LOUREIRO ENGENHARIA                                         0000000023703394400000000205508 000000008801224900202255000000803026784 0     201212282012083100000000055610001042070000000001042070000000000000000000000000000000050000000000  3020121228   01          2  RUA JUNO  533                                                                    300000000000000000001500  000000000000000                                     N                     00598  0000000        000126
12047190731000100DE CASTRO LOUR ENG IND LTDA                                           00000000341000000000000000000000000000008782051700000023399954203026614 0     201211202012082100000000055230001047621000000001047621000000000000000000000000000000050000000000  3020121120   01          2                                                                                   3112339995428036884500400079                                                  N                     01321  0000000        000127
12047190731000100DE CASTRO LOUR ENG IND LTDA                                           00000000341000000000000000000000000000008782051800000023399955703026636 0     201211212012082200000000055240000940804000000000940804000000000000000000000000000000050000000000  3020121121   01          2                                                                                   3112339995576036884500400019                                                  N                     01321  0000000        000128
12047190731000100DE CASTRO LOUREIRO ENGENHARIA                                         0000000023703394400000000205508 000000008801225000202255000000903026787 0     201210262012083100000000054980001135987000000001135987000000000000000000000000001893050000000000  3020121026   01          2  RUA JUNO  533                                                                    300000000000000000141500  000000000000000                                     N                     00598  0000000        000129
12047190731000100DE CASTRO LOUR ENG IND LTDA                                           00000000341000000000000000000000000000008782058900000023602714603026734 0     201210182012082800000000054900000997834000000000997834000000000000000000000000001962050000000000  3020121018   01          2                                                                                   3112360271467036884500400099                                                  N                     01321  0000000        000130
12047190731000100DE CASTRO LOUR ENG IND LTDA                                           00000000341000000000000000000000000000008782052400000023399956003026643 0     201211222012082300000000055250000867039000000000867039000000000000000000000000000000050000000000  3020121122   01          2                                                                                   3112339995600036884500400069                                                  N                     01321  0000000        000131
12047190731000100DE CASTRO LOUR ENG IND LTDA                                           00000000341000000000000000000000000000008782051900000023399955803026636 0     201212192012082200000000055520000941086000000000941086000000000000000000000000000000050000000000  3020121219   01          2                                                                                   3112339995584036884500400069                                                  N                     01321  0000000        000132
12047190731000100DE CASTRO LOUREIRO ENGENHARIA                                         0000000023703394400000000205508 000000008801225100202255000001003026787 0     201211302012083100000000055330001135987000000001135987000000000000000000000000000000050000000000  3020121130   01          2  RUA JUNO  533                                                                    300000000000000000001500  000000000000000                                     N                     00598  0000000        000133
12047190731000100DE CASTRO LOUR ENG IND LTDA                                           00000000341000000000000000000000000000008782051200000023399953803026613 0     201209182012082100000000054600001107989000000001151569000000000000000000000000043580050000000000  3020121008   01          2                                                                                   3112339995386036884500400039                                                  N                     01321  0000000        000134
12047190731000100DE CASTRO LOUR ENG IND LTDA                                           00000000341000000000000000000000000000008782052200000023399955403026632 0     201211212012082200000000055240000952073000000000952073000000000000000000000000000000050000000000  3020121121   01          2                                                                                   3112339995543036884500400099                                                  N                     01321  0000000        000135
12047190731000100DE CASTRO LOUR ENG IND LTDA                                           00000000341000000000000000000000000000008782059200000023602715103026744 0     201212262012082900000000055590000146636000000000146636000000000000000000000000000000050000000000  3020121226   01          2                                                                                   3112360271517036884500400019                                                  N                     01321  0000000        000136
12047190731000100DE CASTRO LOUREIRO ENGENHARIA                                         0000000023703394400000000205508 000000008801225400202255000001303026794 0     201212032012090300000000055360001209130000000001209130000000000000000000000000000000050000000000  3020121203   01          2  RUA JUNO  533                                                                    300000000000000000001500  000000000000000                                     N                     00598  0000000        000137
12047190731000100DE CASTRO LOUR ENG IND LTDA                                           00000000341000000000000000000000000000008782059300000023602715203026745 0     201210262012082900000000054980000903175000000000903175000000000000000000000000001776050000000000  3020121026   01          2                                                                                   3112360271525036884500400019                                                  N                     01321  0000000        000138
12047190731000100DE CASTRO LOUR ENG IND LTDA                                           00000000341000000000000000000000000000008782051600000023399954103026614 0     201209182012082100000000054600001047621000000001088821000000000000000000000000041200050000000000  3020121008   01          2                                                                                   3112339995410036884500400039                                                  N                     01321  0000000        000139
12047190731000100DE CASTRO LOUREIRO ENGENHARIA                                         0000000023703394400000000205508 000000008801225700202255000001603026795 0     201212032012090300000000055360001207555000000001207555000000000000000000000000000000050000000000  3020121203   01          2  RUA JUNO  533                                                                    300000000000000000001500  000000000000000                                     N                     00598  0000000        000140
12047190731000100DE CASTRO LOUR ENG IND LTDA                                           00000000341000000000000000000000000000008782052300000023399955503026632 0     201212192012082200000000055520000952358000000000952358000000000000000000000000000000050000000000  3020121219   01          2                                                                                   3112339995550036884500400039                                                  N                     01321  0000000        000141
12047190731000100DE CASTRO LOUR ENG IND LTDA                                           00000000341000000000000000000000000000008782053300000023399956103026643 0     201212202012082300000000055530000867297000000000867297000000000000000000000000000000050000000000  3020121220   01          2                                                                                   3112339995618036884500400059                                                  N                     01321  0000000        000142
12047190731000100DE CASTRO LOUREIRO ENGENHARIA                                         0000000023703394400000000205508 000000008801225200202255000001103026787 0     201212282012083100000000055610001136326000000001136326000000000000000000000000000000050000000000  3020121228   01          2  RUA JUNO  533                                                                    300000000000000000001500  000000000000000                                     N                     00598  0000000        000143
12047190731000100DE CASTRO LOUR ENG IND LTDA                                           00000000341000000000000000000000000000008782059400000023602715303026745 0     201211282012082900000000055310000903175000000000903175000000000000000000000000000000050000000000  3020121128   01          2                                                                                   3112360271533036884500400039                                                  N                     01321  0000000        000144
12047190731000100DE CASTRO LOUR ENG IND LTDA                                           00000000341000000000000000000000000000008782052000000023399955303026632 0     201209192012082200000000054610000952073000000000987641000000000000000000000000035568050000000000  3020121008   01          2                                                                                   3112339995535036884500400019                                                  N                     01321  0000000        000145
12047190731000100DE CASTRO LOUR ENG IND LTDA                                           00000000341000000000000000000000000000008782050900000023399953503026612 0     201209182012082100000000054600001111489000000001155209000000000000000000000000043720050000000000  3020121008   01          2                                                                                   3112339995352036884500400019                                                  N                     01321  0000000        000146
12047190731000100DE CASTRO LOUREIRO ENGENHARIA                                         0000000023703394400000000205508 000000008801225600202255000001503026795 0     201211052012090300000000055080001207555000000001207555000000000000000000000000002013050000000000  3020121105   01          2  RUA JUNO  533                                                                    300000000000000000141500  000000000000000                                     N                     00598  0000000        000147
12047190731000100DE CASTRO LOUR ENG IND LTDA                                           00000000341000000000000000000000000000008782051000000023399953703026612 0     201212182012082100000000055510001111822000000001111822000000000000000000000000000000050000000000  3020121218   01          2                                                                                   3112339995378036884500400049                                                  N                     01321  0000000        000148
12047190731000100DE CASTRO LOUR ENG IND LTDA                                           00000000341000000000000000000000000000008782052800000023399956303026648 0     201211222012082300000000055250000976053000000000976053000000000000000000000000000000050000000000  3020121122   01          2                                                                                   3112339995634036884500400019                                                  N                     01321  0000000        000149
12047190731000100DE CASTRO LOUREIRO ENGENHARIA                                         0000000023703394400000000205508 000000008801225300202255000001203026794 0     201211052012090300000000055080001209130000000001209130000000000000000000000000002015050000000000  3020121105   01          2  RUA JUNO  533                                                                    300000000000000000141500  000000000000000                                     N                     00598  0000000        000150
12047190731000100DE CASTRO LOUR ENG IND LTDA                                           00000000341000000000000000000000000000008782059500000023602714703026734 0     201211272012082800000000055300000997834000000000997834000000000000000000000000000000050000000000  3020121127   01          2                                                                                   3112360271475036884500400019                                                  N                     01321  0000000        000151
12047190731000100DE CASTRO LOUR ENG IND LTDA                                           00000000341000000000000000000000000000008782052100000023399955903026643 0     201209202012082300000000054620000867039000000000897729000000000000000000000000030690050000000000  3020121008   01          2                                                                                   3112339995592036884500400049                                                  N                     01321  0000000        000152
12047190731000100DE CASTRO LOUR ENG IND LTDA                                           00000000341000000000000000000000000000008782051100000023399954303026614 0     201212182012082100000000055510001047933000000001047933000000000000000000000000000000050000000000  3020121218   01          2                                                                                   3112339995436036884500400029                                                  N                     01321  0000000        000153
12047190731000100DE CASTRO LOUR ENG IND LTDA                                           00000000341000000000000000000000000000008782052500000023399955603026636 0     201209192012082200000000054610000940804000000000975954000000000000000000000000035150050000000000  3020121008   01          2                                                                                   3112339995568036884500400049                                                  N                     01321  0000000        000154
12047190731000100DE CASTRO LOUR ENG IND LTDA                                           00000000341000000000000000000000000000008782059600000023602714803026734 0     201212252012082800000000055580000998134000000000998134000000000000000000000000000000050000000000  3020121226   01          2                                                                                   3112360271483036884500400059                                                  N                     01321  0000000        000155
12047190731000100DE CASTRO LOUR ENG IND LTDA                                           00000000341000000000000000000000000000008782052900000023399956403026648 0     201212202012082300000000055530000976344000000000976344000000000000000000000000000000050000000000  3020121220   01          2                                                                                   3112339995642036884500400059                                                  N                     01321  0000000        000156
12047190731000100DE CASTRO LOUR ENG IND LTDA                                           00000000341000000000000000000000000000008782051300000023399953903026613 0     201211202012082100000000055230001107989000000001107989000000000000000000000000000000050000000000  3020121120   01          2                                                                                   3112339995394036884500400019                                                  N                     01321  0000000        000157
12047190731000100DE CASTRO LOUR ENG IND LTDA                                           00000000341000000000000000000000000000008782052700000023399956203026648 0     201209202012082300000000054620000976053000000001010613000000000000000000000000034560050000000000  3020121008   01          2                                                                                   3112339995626036884500400029                                                  N                     01321  0000000        000158
12047190731000100DE CASTRO LOUREIRO ENGENHARIA                                         0000000023703394400000000205508 000000008801225800202255000001703026795 0     201212312012090300000000055640001207915000000001207915000000000000000000000000000000050000000000  3020121231   01          2  RUA JUNO  533                                                                    300000000000000000001500  000000000000000                                     N                     00598  0000000        000159
12047190731000100DE CASTRO LOUREIRO ENGENHARIA                                         0000000023703394400000000205508 000000008801224700202255000000603026784 0     201210262012083100000000054980001041759000000001041759000000000000000000000000001736050000000000  3020121026   01          2  RUA JUNO  533                                                                    300000000000000000141500  000000000000000                                     N                     00598  0000000        000160
12047190731000100DE CASTRO LOUR ENG IND LTDA                                           00000000341000000000000000000000000000008782059700000023602715403026745 0     201212262012082900000000055590000903448000000000903448000000000000000000000000000000050000000000  3020121226   01          2                                                                                   3112360271541036884500400019                                                  N                     01321  0000000        000161
12047190731000100DE CASTRO LOUR ENG IND LTDA                                           00000000341000000000000000000000000000008782051400000023399954003026613 0     201212182012082100000000055510001108322000000001108322000000000000000000000000000000050000000000  3020121218   01          2                                                                                   3112339995402036884500400069                                                  N                     01321  0000000        000162
12047190731000100DE CASTRO LOUREIRO ENGENHARIA                                         0000000023703394400000000205508 000000008801224800202255000000703026784 0     201211302012083100000000055330001041759000000001041759000000000000000000000000000000050000000000  3020121130   01          2  RUA JUNO  533                                                                    300000000000000000001500  000000000000000                                     N                     00598  0000000        000163
12047190731000100DE CASTRO LOUR ENG IND LTDA                                           00000000341000000000000000000000000000008782059800000023602714903026744 0     201210262012082900000000054980000146594000000000146594000000000000000000000000000288050000000000  3020121026   01          2                                                                                   3112360271491036884500400069                                                  N                     01321  0000000        000164
12047190731000100DE CASTRO LOUR ENG IND LTDA                                           00000000341000000000000000000000000000008782051500000023399953603026612 0     201211202012082100000000055230001111489000000001111489000000000000000000000000000000050000000000  3020121120   01          2                                                                                   3112339995360036884500400079                                                  N                     01321  0000000        000165
12048775225000146SEIKI IND COM E CONFECCOES LTD                                        000000003410000000000000000000000000000087820591000000235780573014311001      201209282012083100000000054700000052000000000000052780000000000000000000000000000780050000000000  3020121008   01          2                                                                                   3112357805731017444824100069                                                  N                     01321  0000000        000166
12051180370000199IGUAFER FERRO E ACO LTDA                                              0000000034100000000000000000000000000000852309100000002239389789443 B         201209022012071800000000054440000168275000000000178355000000000000000000000000010080050000000000  3020121008   01          2                                                                                   3112239389789077149484600089                                                  N                     01321  0000000        000167
12051180370000199IGUAFER FERRO E ACO LTDA                                              0000000034100000000000000000000000000000852309120000002239389809443 D         201209222012071800000000054640000168275000000000172755000000000000000000000000004480050000000000  3020121008   01          2                                                                                   3112239389805077149484600029                                                  N                     01321  0000000        000168
12051180370000199IGUAFER FERRO E ACO LTDA                                              0000000034100000000000000000000000000000852309110000002239389799443 C         201209122012071800000000054540000168275000000000175555000000000000000000000000007280050000000000  3020121008   01          2                                                                                   3112239389797077149484600089                                                  N                     01321  0000000        000169
12053585766000141MULTIACOS I C PRODS TEC LTDA                                          0000000042200000000000000000000000000000875773340000000000000000004584601     201210042012090400000000054760000349502000000000351833000000000000000000000000002331050000000000  3020121008   01          2                                                                                   3711500005033164919152309149                                                  N                     01321  0000000        000170
12053585766000141MULTIACOS I C PRODS TEC LTDA                                          0000000042200000000000000000000000000000875773470000000000000000004595001     201210052012090400000000054770000716798000000000720382000000000000000000000000003584050000000000  3020121008   01          2                                                                                   3711500005033164919152350149                                                  N                     01321  0000000        000171
12053585766000141MULTIACOS I C PRODS TEC LTDA                                          0000000042200000000000000000000000000000875773420000000000000000004501002     201210022012090400000000054740000902868000000000911897000000000000000000000000009029050000000000  3020121008   01          2                                                                                   3711500005033164919152376149                                                  N                     01321  0000000        000172
12053585766000141MULTIACOS I C PRODS TEC LTDA                                          0000000042200000000000000000000000000000875773490000000000000000004453003     201210052012090400000000054770000619209000000000622304000000000000000000000000003095050000000000  3020121008   01          2                                                                                   3711500005033164919152414179                                                  N                     01321  0000000        000173
12053585766000141MULTIACOS I C PRODS TEC LTDA                                          0000000042200000000000000000000000000000875773530000000000000000004437703     201210052012090400000000054770000145364000000000146089000000000000000000000000000725050000000000  3020121008   01          2                                                                                   3711500005033164919152490159                                                  N                     01321  0000000        000174
12053585766000141MULTIACOS I C PRODS TEC LTDA                                          0000000042200000000000000000000000000000875773350000000000000000004584801     201210042012090400000000054760000390737000000000393340000000000000000000000000002603050000000000  3020121008   01          2                                                                                   3711500005033164919152317119                                                  N                     01321  0000000        000175
12053585766000141MULTIACOS I C PRODS TEC LTDA                                          0000000042200000000000000000000000000000875773480000000000000000004595101     201210052012090400000000054770000365510000000000367336000000000000000000000000001826050000000000  3020121008   01          2                                                                                   3711500005033164919152368119                                                  N                     01321  0000000        000176
12053585766000141MULTIACOS I C PRODS TEC LTDA                                          0000000042200000000000000000000000000000875773380000000000000000004585101     201210042012090400000000054760000229536000000000231067000000000000000000000000001531050000000000  3020121008   01          2                                                                                   3711500005033164919152325169                                                  N                     01321  0000000        000177
12053585766000141MULTIACOS I C PRODS TEC LTDA                                          0000000042200000000000000000000000000000875773500000000000000000004437503     201210032012090400000000054750000418711000000000422200000000000000000000000000003489050000000000  3020121008   01          2                                                                                   3711500005033164919152473129                                                  N                     01321  0000000        000178
12053585766000141MULTIACOS I C PRODS TEC LTDA                                          0000000042200000000000000000000000000000875773430000000000000000004446103     201210042012090400000000054760000687401000000000691984000000000000000000000000004583050000000000  3020121008   01          2                                                                                   3711500005033164919152431119                                                  N                     01321  0000000        000179
12053585766000141MULTIACOS I C PRODS TEC LTDA                                          0000000042200000000000000000000000000000875773360000000000000000004585401     201210042012090400000000054760001079482000000001086677000000000000000000000000007195050000000000  3020121008   01          2                                                                                   3711500005033164919152333119                                                  N                     01321  0000000        000180
12053585766000141MULTIACOS I C PRODS TEC LTDA                                          0000000042200000000000000000000000000000875773540000000000000000004423603     201210022012090400000000054740000606735000000000612800000000000000000000000000006065050000000000  3020121008   01          2                                                                                   3711500005033164919152457189                                                  N                     01321  0000000        000181
12053585766000141MULTIACOS I C PRODS TEC LTDA                                          0000000042200000000000000000000000000000875773510000000000000000004437603     201210032012090400000000054750000311767000000000314366000000000000000000000000002599050000000000  3020121008   01          2                                                                                   3711500005033164919152481159                                                  N                     01321  0000000        000182
12053585766000141MULTIACOS I C PRODS TEC LTDA                                          0000000042200000000000000000000000000000875773550000000000000000004437803     201210032012090400000000054750000435925000000000439559000000000000000000000000003634050000000000  3020121008   01          2                                                                                   3711500005033164919152503139                                                  N                     01321  0000000        000183
12053585766000141MULTIACOS I C PRODS TEC LTDA                                          0000000042200000000000000000000000000000875773370000000000000000004570001     201210022012090400000000054740001029874000000001040169000000000000000000000000010295050000000000  3020121008   01          2                                                                                   3711500005033164919152341129                                                  N                     01321  0000000        000184
12053585766000141MULTIACOS I C PRODS TEC LTDA                                          0000000042200000000000000000000000000000878205710000000000000000004594901     201210052012082800000000054770000145728000000000146456000000000000000000000000000728050000000000  3020121008   01          2                                                                                   3711500005033164917492617119                                                  N                     01321  0000000        000185
12053585766000141MULTIACOS I C PRODS TEC LTDA                                          0000000042200000000000000000000000000000875773460000000000000000004429703     201210012012090400000000054730000624532000000000631818000000000000000000000000007286050000000000  3020121008   01          2                                                                                   3711500005033164919152406199                                                  N                     01321  0000000        000186
12053585766000141MULTIACOS I C PRODS TEC LTDA                                          0000000042200000000000000000000000000000875773320000000000000000004500802     201210022012090400000000054740000173389000000000175122000000000000000000000000001733050000000000  3020121008   01          2                                                                                   3711500005033164919152261179                                                  N                     01321  0000000        000187
12053585766000141MULTIACOS I C PRODS TEC LTDA                                          0000000042200000000000000000000000000000875773440000000000000000004423703     201210022012090400000000054740000535467000000000540818000000000000000000000000005351050000000000  3020121008   01          2                                                                                   3711500005033164919152384119                                                  N                     01321  0000000        000188
12053585766000141MULTIACOS I C PRODS TEC LTDA                                          0000000042200000000000000000000000000000875773560000000000000000004452003     201210052012090400000000054770000865030000000000869355000000000000000000000000004325050000000000  3020121008   01          2                                                                                   3711500005033164919152465149                                                  N                     01321  0000000        000189
12053585766000141MULTIACOS I C PRODS TEC LTDA                                          0000000042200000000000000000000000000000875773450000000000000000004429603     201210032012090400000000054750000910020000000000917604000000000000000000000000007584050000000000  3020121008   01          2                                                                                   3711500005033164919152392119                                                  N                     01321  0000000        000190
12053585766000141MULTIACOS I C PRODS TEC LTDA                                          0000000042200000000000000000000000000000875773570000000000000000004421903     201210012012090400000000054730000942203000000000953192000000000000000000000000010989050000000000  3020121008   01          2                                                                                   3711500005033164919152511129                                                  N                     01321  0000000        000191
12053585766000141MULTIACOS IND  COM  PROD  TEC                                         0000000038900000000000000000000000000000874070420000000000000000004493702     201210012012080600000000054730000180041000000000182141000000000000000000000000002100050000000000  3020121008   01          2                                                                                   3015601031417289000042309299                                                  N                     01321  0000000        000192
12053585766000141MULTIACOS I C PRODS TEC LTDA                                          0000000042200000000000000000000000000000875773520000000000000000004447203     201210042012090400000000054760000425031000000000427862000000000000000000000000002831050000000000  3020121008   01          2                                                                                   3711500005033164919152449179                                                  N                     01321  0000000        000193
12053585766000141MULTIACOS I C PRODS TEC LTDA                                          0000000042200000000000000000000000000000875773580000000000000000004445103     201210042012090400000000054760000287235000000000289150000000000000000000000000001915050000000000  3020121008   01          2                                                                                   3711500005033164919152520119                                                  N                     01321  0000000        000194
12053585766000141MULTIACOS I C PRODS TEC LTDA                                          0000000042200000000000000000000000000000875773390000000000000000004521802     201210052012090400000000054770000811642000000000815700000000000000000000000000004058050000000000  3020121008   01          2                                                                                   3711500005033164919152279169                                                  N                     01321  0000000        000195
12053585766000141MULTIACOS IND  COM  PROD  TEC                                         0000000038900000000000000000000000000000874070430000000000000000004493802     201210012012080600000000054730000828107000000000837767000000000000000000000000009660050000000000  3020121008   01          2                                                                                   3015601031417297000042309299                                                  N                     01321  0000000        000196
12053585766000141MULTIACOS IND  COM  PROD  TEC                                         0000000038900000000000000000000000000000874070440000000000000000004565101     201210012012082000000000054730000469526000000000475007000000000000000000000000005481050000000000  3020121008   01          2                                                                                   3015601031417440000042309219                                                  N                     01321  0000000        000197
12053585766000141MULTIACOS I C PRODS TEC LTDA                                          0000000042200000000000000000000000000000875773400000000000000000004500902     201210022012090400000000054740000962577000000000972200000000000000000000000000009623050000000000  3020121008   01          2                                                                                   3711500005033164919152287179                                                  N                     01321  0000000        000198
12053585766000141MULTIACOS I C PRODS TEC LTDA                                          0000000042200000000000000000000000000000875773410000000000000000004445203     201210042012090400000000054760000224283000000000225778000000000000000000000000001495050000000000  3020121008   01          2                                                                                   3711500005033164919152422119                                                  N                     01321  0000000        000199
