0000147602043799295000110ALTAMIRA INDUSTRIA METALURGICA LT       202000000047620121106110946             2                                                                                                  000000000000000                                                                                                                                                                                                                                                                                   000001
12043799295000110ALTAMIRA INDUSTRIA METAL LTDA                                         0000000003303809500000130004071 I000000000010126000000000000000               201211060000000000000000000000000000000000000004000000000000000000000000000000000000050000000001  0820121106   01HF        5001107000000004836729000000000000000                                               3D0000000101                               01                                 S                     01133 10020256        000002
900000300000000004000000                                                                                                                                                                                    000000000000000                                                                                                                                                                                                                                                    00000100000000000000000        000003
