0000147602043799295000110ALTAMIRA INDUSTRIA METALURGICA LT       202000000020920120906111645             2                                                                                                  000000000000000                                                                                                                                                                                                                                                                                   000001
12043799295000110ALTAMIRA INDUSTRIA METAL LTDA                                         0000000003303809500000130004071 I000000000009745000000000000000               201209060000000000000000000000000000000000000003900000000000000000000000000000000000010000000001  0820120906   01HF        5001111000000018702478000000000000000                                               3D0000000101                               01                                 S                     01133 10020256        000002
12000867888000164TECNEQUIP TECNOLOGIA EQUIP LTD                                        0000000003303809500000130003245 I000000000009746000000000000000               201209060000000000000000000000000000000000000000500000000000000000000000000000000000010000000002  0820120906   01HF        5001111000000020902478000000000000000                                               3C0000000101                               02                                 N                     01076 10020256        000003
12000867888000164TECNEQUIP TECNOLOGIA EQUIP LTD                                        0000000034100452 00000000749849 I000000000009747000000000000000               201209060000000000000000000000000000000000000000500000000000000000000000000000000000020000000003  0820120906   01HF        5001111000000021402478000000000000000                                               3C0000000101                               03                                 N                     01076 10020256        000004
12013529495000192MAXMIRA CONTROLE E ADM LTDA                                           0000000034100467 00000000012340 I000000000009748000000000000000               201209060000000000000000000000000000000000000001200000000000000000000000000000000000010000000001  0820120906   01HF        5001111000000019902478000000000000000                                               3C0000000101                               01                                 N                     01076 10020256        000005
12043799295000110ALTAMIRA INDUSTRIA METAL LTDA                                         0000000039900198 000000000096330I000000000009749000000000000000               201209060000000000000000000000000000000000000000500000000000000000000000000000000000010000000005  0820120906   01HF        5001111000000020402478000000000000000                                               3D0000000101                               05                                 S                     01133 10020256        000006
900000700000000006600000                                                                                                                                                                                    000000000000000                                                                                                                                                                                                                                                    00000500000000000000000        000007
