0000147602043799295000110ALTAMIRA INDUSTRIA METALURGICA LT       202000000038520121206121245             2                                                                                                  000000000000000                                                                                                                                                                                                                                                                                   000001
12043799295000110ALTAMIRA INDUSTRIA METAL LTDA                                         0000000003303809500000130004071 I000000000010294000000000000000               201212060000000000000000000000000000000000000000300000000000000000000000000000000000050000000001  0820121206   01HF        5001208000000003452857000000000000000                                               3D0000000101                               01                                 S                     01133 10020256        000002
900000300000000000300000                                                                                                                                                                                    000000000000000                                                                                                                                                                                                                                                    00000100000000000000000        000003
