0000147602043799295000110ALTAMIRA INDUSTRIA METALURGICA LT       202000000427820121106213406             3                                                                                                  000000000000000                                                                                                                                                                                                                                                                                   000001
12049341563000132JAC COMERCIO MAT ELETR LTDA                                           0000000023700293300000001478699 I000000000010149002013227506459               201211060000000000000000055090000046428000000000046428000000000000000000000000000000010000023217  3120121106   02BW        5000000               000000000000000                                               3029302132275064590147869049               23217                              N                     01146 10020256        000002
12049341563000132JAC COMERCIO MAT ELETR LTDA                                           0000000023700293300000001478699 I000000000010141002013227606476               201211060000000000000000055090000015549000000000015549000000000000000000000000000000010000023304  3120121106   02BW        5000000               000000000000000                                               3029302132276064760147869089               23304                              N                     01146 10020256        000003
12033325184001786ALSCO TOALHEIRO BRASIL LTDA                                           0000000023703396000000001490850 I000000000010144009000029120903               201211060000000000000000055090000026373000000000026373000000000000000000000000000000010000291209  3120121106   02BW        5000000               000000000000000                                               3339609000291209030149085019               291209                             N                     01146 10020256        000004
12043799295000110ALTAMIRA INDUSTRIA METAL LTDA                                         0000000003303809500000130004071 I000000000010126000000000000000               201211060000000000000000000000000000000000000004000000000000000000000000000000000000050000000001  0820121106   02BW        5001030               000000000000000                                               3D0000000101                               01                                 S                     01133 10020256        000005
12005335228000156DINAMICA INFORMATICA TELEC LTD                                        0000000023703257300000000503215 I000000000010145009032570017602               201211060000000000000000055090000020469000000000020469000000000000000000000000000000010000009089  3120121106   02BW        5000000               000000000000000                                               3325709325700176020050321089               9089                               N                     01146 10020256        000006
12061600839000155CENTRO INT EMPRESA ESCOLA CIEE                                        0000000023703391000000000866202 I000000000010147009000003654644               201211060000000000000000055090000017130000000000017130000000000000000000000000000000010000007461  3120121106   02BW        5000000               000000000000000                                               3339109000036546440086620039               7641                               N                     01146 10020256        000007
12002765757000100DUBRONZE IND E COM DE METAIS                                          0000000034100000 0000000000000  I000000000010148000000000000000               201211060000000000000000055090000027809000000000027809000000000000000000000000000000010000019710  3120121106   02BW        5000000               000000000000000                                               3181575038445162660894500019               19710                              N                     01130 10020256        000008
12045635984000115CRIFER LAMINADOS DE ACO E FERR                                        0000000000100000 0000000000000  I000000000010142000000000000000               201211060000000000000000055090000804422000000000804422000000000000000000000000000000010000035395  3120121106   02BW        5000000               000000000000000                                               3000000147532500000041641779               35395                              N                     01130 10020256        000009
12062014881000157INDUSTRIA MEC JULIAPA LTDA                                            0000000034100000 0000000000000  I000000000010143000000000000000               201211060000000000000000055090000080156000000000080156000000000000000000000000000000010000002084  3120121106   02BW        5000000               000000000000000                                               3175000035221076423432400049               2084                               N                     01130 10020256        000010
12007920494000171NOGUEIRA LEITE ADVOG ASSOC                                            0000000074500000 0000000000000  I000000000010146000000000000000               201211060000000000000000000000000031624000000000031624000000000000000000000000000000010000000065  3120121106   02BW        5000000               000000000000000                                               3361125706001200000010292029               065                                N                     01130 10020256        000011
12054217021000192RAFER COM MAT P ESCRIT LTDA                                           0000000000100000 0000000000000  I000000000010139000000000000000               201211060000000000000000055090000040400000000000040400000000000000000000000000000000010000003332  3120121106   02BW        5000000               000000000000000                                               3000000185029400990055761759               3332                               N                     01130 10020256        000012
12049341563000132JAC COMERCIO MAT ELETR LTDA                                           0000000034100000 0000000000000  I000000000010150000000000000000               201211060000000000000000055090000014856000000000014856000000000000000000000000000000010000023447  3120121106   02BW        5000000               000000000000000                                               3181575041166018060969500059               23447                              N                     01130 10020256        000013
12015244717000156STYLO ROL COM ROLAM                                                   0000000034100000 0000000000000  I000000000010152000000000000000               201211060000000000000000055090000006100000000000006100000000000000000000000000000000010000000081  3120121106   02BW        5000000               000000000000000                                               3109201200551076423057900089               081                                N                     01130 10020256        000014
12004676708000118M H F  SISTEMAS LTDA                                                  0000000034100000 0000000000000  I000000000010155000000000000000               201211060000000000000000055090000014500000000000014500000000000000000000000000000000010000000990  3120121106   02BW        5000000               000000000000000                                               3181575043071013924573200019               990                                N                     01130 10020256        000015
12007289649000113CRC LASER SUPRIM INFOR LTDA                                           0000000034100000 0000000000000  I000000000010156000000000000000               201211060000000000000000055090000030775000000000030775000000000000000000000000000000010000001157  3120121106   02BW        5000000               000000000000000                                               3181575042359000265431700019               1157                               N                     01130 10020256        000016
12061019584000131MECANICA FERAP LTDA                                                   0000000034100000 0000000000000  I000000000010140000000000000000               201211060000000000000000000000000000000000000000036000000000000000000000000000000000010000000028  3120121106   02BW        5000000               000000000000000                                               3174620179385046709911500019               028                                N                     01130 10020256        000017
12045987005000198D PASCHOAL AUTOMOTIVA LTDA                                            0000000039900000 0000000000000  I000000000010138000000000000000               201211060000000000000000055090000074066000000000074066000000000000000000000000000000010000011650  3120121106   02BW        5000000               000000000000000                                               3232000009191195097311000199               11650                              N                     01130 10020256        000018
12082918939000285OZELLAME CARGAS URGENTES LTDA                                         0000000000100000 0000000000000  I000000000010127000000000000000               201211060000000000000000055090000175300000000000175300000000000000000000000000000000050000018906  3120121106   02BW        5000000               000000000000000                                               3000000149390100080295041819               18/906                             N                     01130 10020256        000019
12075483040000130REX MAQ E EQUIPAMENTOS LTDA                                           0000000000100000 0000000000000  I000000000010135000000000000000               201211060000000000000000055090000049915000000000049915000000000000000000000000000000010000079547  3120121106   02BW        5000000               000000000000000                                               3043999123723420001185301139               079547                             N                     01130 10020256        000020
12061174652000137METALURGICA SCHIOPPA LTDA                                             0000000034100000 0000000000000  I000000000010134000000000000000               201211060000000000000000055090000063248000000000063248000000000000000000000000000000010000117255  3120121106   02BW        5000000               000000000000000                                               3181574849833019424479400039               117255                             N                     01130 10020256        000021
12081560047000101ACEVILLE TRANSPORTES LTDA                                             0000000003300000 0000000000000  I000000000010132000000000000000               201211060000000000000000055090000085000000000000085000000000000000000000000000000000050000277853  3120121106   02BW        5000000               000000000000000                                               3913555200000002778530010159               277853                             N                     01130 10020256        000022
12071580302000124SANCHEPEL IND PAULISTA LTDA                                           0000000034100000 0000000000000  I000000000010131000000000000000               201211060000000000000000055090000099982000000000099982000000000000000000000000000000010000007841  3120121106   02BW        5000000               000000000000000                                               3181574885091007855578600099               7841                               N                     01130 10020256        000023
12013656578000142GUARINOR TRANSP E LOGISTICA LT                                        0000000010400000 0000000000000  I000000000010130000000000000000               201211060000000000000000055090000106600000000000106600000000000000000000000000000000050000001790  3120121106   02BW        5000000               000000000000000                                               3900000129932958700000017319               1790/12                            N                     01130 10020256        000024
12061186847000105PERFILADOS GRANADO LTDA                                               0000000003300000 0000000000000  I000000000010129000000000000000               201211060000000000000000055090000109485000000000109485000000000000000000000000000000010000005312  3120121106   02BW        5000000               000000000000000                                               3917995920000003503380010419               5312                               N                     01130 10020256        000025
12016802308000190TRANSMARRECO LTDA                                                     0000000003300000 0000000000000  I000000000010128000000000000000               201211060000000000000000055090000118953000000000118953000000000000000000000000000000050000000353  3120121106   02BW        5000000               000000000000000                                               3907636240000000643564010129               353/12                             N                     01130 10020256        000026
12062494679000170WILSON ROBERTO COSTA DE JESUS                                         0000000000100000 0000000000000  I000000000010137000000000000000               201211060000000000000000055090000042327000000000042327000000000000000000000000000000010000035262  3120121106   02BW        5000000               000000000000000                                               3000000198715600000009411819               35262                              N                     01130 10020256        000027
12011202309000180FIEL TOOLS DISTRIB DE MAQ FERR                                        0000000023702087700000000000116 I000000000010136009000020196861               201211060000000000000000055090000042968000000000042968000000000000000000000000000000010000009686  3120121106   02BW        5000000               000000000000000                                               3208709000201968610000011099               9686                               N                     01146 10020256        000028
12011202309000180FIEL TOOLS DISTRIB DE MAQ FERR                                        0000000023702087700000000000116 I000000000010151028000020196862               201211060000000000000000055090000042107000000000042107000000000000000000000000000000010000009686  3120121106   02BW        5000000               000000000000000                                               3208728000201968620000011019               9686                               N                     01146 10020256        000029
12014775592000128HELIO ADRIANO DA SILVA ME                                             0000000023700593200000002432943 I000000000010133009022920000003               201211060000000000000000055090000075000000000000075000000000000000000000000000000000050000008935  3120121106   02BW        5000000               000000000000000                                               3059309229200000030243294019               8935                               N                     01146 10020256        000030
12035820448000136WHITE MARTINS GASES IND LTDA                                          0000000023700026400000003937925 I000000000010153009022630001577               201211110000000000000000055140000125225000000000125225000000000000000000000000000000010000009166  3120121106   02BW        5000000               000000000000000                                               3002609226300015770393792089               9166                               N                     01146 10020256        000031
12035820448000136WHITE MARTINS GASES INDUSTRIAI                                        0000000023700026400000003937925 0000000088957851009022700001298384214 001     201210232012092600000000054950000121725000000000124692000000000000000000000000003582050000000000  3020121106   02BW        2000000               000000000000000                                               3                         000000000000000  9208                               N                     01146 10020256        000032
12010824619000174ALVALOG TRANSPORTES E LOGISTIC                                        000000000330000000000000000000000000000090581011000000910000000ID272407       201211062012102200000000055090000107653000000000107653000000000000000000000000000000050000000000  3020121106   02BW        2000000               000000000000000                                               3946239400000000057591010179               57433                              N                     01130 10020256        000033
12043350099000164JMC COML ELETRICA LTDA                                                0000000023700092200000000380105 000000008978814200902283000045055335 02       201211062012100200000000055090000034921000000000034921000000000000000000000000000000050000000000  3020121106   02BW        2000000               000000000000000                                               3                         000000000000000  55335/02                           N                     01146 10020256        000034
12001862327000135ALPHA CLEAN DISTRIBUIDORA LTDA                                        0000000023700093000000001087509 0000000089962491009022850000030008364         201211062012100900000000055090000032724000000000032724000000000000000000000000000000050000000000  3020121106   02BW        2000000               000000000000000                                               3                         000000000000000  8364                               N                     01146 10020256        000035
12007068566000102NIVEL EMPREGOS LTDA           AV CELSO GARCIA 3830                    0306400023700097300000003053792 I000000000010157000000000000000               201211060000000000000000000000000000000000000000376604000000000000000000000000000000010000002805  0120121106   02BW        5000000               000000000000000                                               3                                          2805 - PARC,01                     N                     01321 10020256        000036
12035820448000136WHITE MARTINS GASES IND LTDA                                          0000000023700026400000003937925 I000000000010154009022650001000               201211130000000000000000055160000125225000000000125225000000000000000000000000000000010000009187  3120121106   02BW        5000000               000000000000000                                               3002609226500010000393792029               9187                               N                     01146 10020256        000037
900003800000000007224586                                                                                                                                                                                    000000000000000                                                                                                                                                                                                                                                    00003601762860002809015        000038
