0000147602043799295000110ALTAMIRA INDUSTRIA METALURGICA LT       202000000012120120906065433             1                                                                                                                                                                                                                                                                                                                                                                                                    000001
12001895314000162COLETA INDUSTRIAL FIMAVAN LTDA                                        0000000034100000000000000000000000000000866992070000009002335349439           201208272012081700000000054380000123695000000000129459000000000000000000000000005764050000000000  3020120906   01          2                                                                                   3109002335346144604097200019                                                  N                     01321  0000000        000002
12001951865000104FOUR FACTORING FOMENTO M LTDA                                         000000004220000000000000000000000000000086040342000000000000000194B           201209032012080600000000054450000145000000000000146448000000000000000000000000001448050000000000  3020120906   01          2                                                                                   3702000009214741910473293169                                                  N                     01321  0000000        000003
12002503185000182ANDAIMES MAQUINAS BIG LTDA EPP                                        0000000034100000000000000000000000000000874070480000002313590765101           201209142012082000000000054560000016500000000000016500000000000000000000000000000000050000000000  3020120914   01FS        1                                                                                   3112313590765650303800900019                                                  N                     01321  0000000        000004
12002558199000101OMEGA TUBOS COMERCIAL LTDA                                            0000000003300000000000000000000000000000874070730000004200000000028157B01     201210022012082800000000054740000149856000000000149856000000000000000000000000000000050000000000  3020121002   01FS        1                                                                                   3947509770000000098442020359                                                  N                     01321  0000000        000005
12002583013000166ITAN TRANSPORTES DE CARGAS EXC                                        0000000023701212200000000002208 000000008723186800902247000000200667          201209202012090300000000054620000248220000000000248220000000000000000000000000000000050000000000  3020120920   05          3  RUA GANGES 528                                                                   3                         000000000000000                                     N                     00598  0000000        000006
12003102481000134AB5 IND E COMERCIO LTDA EPP                                           0000000034100000000000000000000000000000865388210000009000040412849           201209042012080700000000054460000155820000000000156340000000000000000000000000000520050000000000  3020120906   01          2                                                                                   3109000040418003154755700069                                                  N                     01321  0000000        000007
12005151518000140BELENUS DO BRASIL LTDA                                                000000000010000000000000000000000000000087407045000000750519000R130170522     201210262012090400000000054980000192000000000000192000000000000000000000000000000000050000000000  3020121026   01FS        1                                                                                   3000000123933844037505193139                                                  N                     01321  0000000        000008
12005151518000140BELENUS DO BRASIL LTDA                                                000000000010000000000000000000000000000087407046000000750520000R130170532     201211252012090400000000055280000192000000000000192000000000000000000000000000000000050000000000  3020121126   01FS        1                                                                                   3000000123933844037505203139                                                  N                     01321  0000000        000009
12005151518000140BELENUS DO BRASIL LTDA                                                000000000010000000000000000000000000000087407047000000750518000R130170512     201209262012090400000000054680000249600000000000249600000000000000000000000000000000050000000000  3020120926   01FS        1                                                                                   3000000123933844037505183129                                                  N                     01321  0000000        000010
12005151518000140BELENUS DO BRASIL LTDA                                                000000000010000000000000000000000000000087407064000000776240000R129785132     201211132012082100000000055160000099000000000000099000000000000000000000000000000000050000000000  3020121113   01FS        1                                                                                   3000000123933843997762403119                                                  N                     01321  0000000        000011
12005151518000140BELENUS DO BRASIL LTDA                                                000000000010000000000000000000000000000087407065000000774915000R129723222     201210132012082100000000054850000460800000000000460800000000000000000000000000000000050000000000  3020121015   01FS        1                                                                                   3000000123933843997749153159                                                  N                     01321  0000000        000012
12005151518000140BELENUS DO BRASIL LTDA                                                000000000010000000000000000000000000000087407066000000774916000R129723232     201211122012082100000000055150000460800000000000460800000000000000000000000000000000050000000000  3020121112   01FS        1                                                                                   3000000123933843997749163139                                                  N                     01321  0000000        000013
12005151518000140BELENUS DO BRASIL LTDA                                                000000000010000000000000000000000000000087407067000000776238000R129785112     201209142012082100000000054560000128700000000000128700000000000000000000000000000000050000000000  3020120914   01FS        1                                                                                   3000000123933843997762383119                                                  N                     01321  0000000        000014
12005151518000140BELENUS DO BRASIL LTDA                                                000000000010000000000000000000000000000087407068000000776239000R129785122     201210142012082100000000054860000099000000000000099000000000000000000000000000000000050000000000  3020121015   01FS        1                                                                                   3000000123933843997762393119                                                  N                     01321  0000000        000015
12005151518000140BELENUS DO BRASIL LTDA                                                000000000010000000000000000000000000000087407070000000774914000R129723212     201209132012082100000000054550000599040000000000599040000000000000000000000000000000050000000000  3020120913   01FS        1                                                                                   3000000123933843997749143119                                                  N                     01321  0000000        000016
12005335228000156DINAMICA INF E TELECOM LTDA EP                                        0000000023703257300000000503215 0000000086455447009032570016796MO008820A      201208302012080600000000054410000020000000000000020469000000000000000000000000000469050000000000  3020120906   01          2  RUA JUNO  533                                                                    3                         000000000000000                                     N                     00598  0000000        000017
12006000195000156M B A MERCANTIL BRASILEIRA DE                                         0000000023700118P00000002130599 00000000853154980020220900000440008967B01     201208232012072400000000054340000135605000000000138769000000000000000000000000003164050000000000  3020120906   01          2  RUA JUNO  533                                                                    3                         000000000000000                                     N                     00598  0000000        000018
12006000195000156M B A MERCANTIL BRASILEIRA DE                                         0000000023700118P00000002130599 00000000853155100020220900000700008987B01     201208232012072500000000054340000216623000000000221677000000000000000000000000005054050000000000  3020120906   01          2  RUA JUNO  533                                                                    3                         000000000000000                                     N                     00598  0000000        000019
12006000195000156M B A MERCANTIL BRASILEIRA DE                                         0000000023700118P00000002128292 00000000874070510090215700000500008455B03     201208292012060100000000054400000596770000000000596770000000000000000000000000000000050000000000  3020120906   01FS        1  RUA JUNO  533                                                                    3                         000000000000000                                     N                     00598  0000000        000020
12006000195000156M B A MERCANTIL BRASILEIRA DE                                         0000000023700118P00000002128292 00000000874070520090215700000560008454B03     201208292012060100000000054400000442453000000000442453000000000000000000000000000000050000000000  3020120906   01FS        1  RUA JUNO  533                                                                    3                         000000000000000                                     N                     00598  0000000        000021
12006000195000156M B A MERCANTIL BRASILEIRA DE                                         0000000023700118P00000002128292 00000000874070530090215800000060008495B03     201208292012060600000000054400000168075000000000168075000000000000000000000000000000050000000000  3020120906   01FS        1  RUA JUNO  533                                                                    3                         000000000000000                                     N                     00598  0000000        000022
12006000195000156M B A MERCANTIL BRASILEIRA DE                                         0000000023700118P00000002128292 00000000874070540090218400000170008737B02     201208292012062900000000054400000582258000000000582258000000000000000000000000000000050000000000  3020120906   01FS        1  RUA JUNO  533                                                                    3                         000000000000000                                     N                     00598  0000000        000023
12006000195000156MBA MERCL BRASILEIRA ACO LTDA                                         0000000042200000000000000000000000000000859590570000000000000000009051B01     201208292012080300000000054400000180457000000000182864000000000000000000000000002407050000000000  3020120906   01          2                                                                                   3701600007451936910173818179                                                  N                     01321  0000000        000024
12006000195000156M B A MERCANTIL BRASILEIRA DE                                         0000000023700118P00000002128292 00000000837460620090218400000170008737B02     201208292012062900000000054400000582258000000000582258000000000000000000000000000000050000000000  3020120829   05          3  RUA JUNO  533                                                                    3                         000000000000000                                     N                     00598  0000000        000025
12008508119000181DINARI FOMENTO MERCANTIL LTDA                                         0000000023702499600000000178306 0000000086282617002022260000005206 A          201208312012081000000000054420000170000000000000178160000000000000000000000000008160050000000000  3020120906   01          2  RUA JUNO  533 VL N MANCHESTER SAO PAULO PANKRO LOGISTICA E TRANSPORTES LTDA EPP  3                         002269980000158                                     N                     00598  0000000        000026
12009338857000190FERNANDO  NAGAO  CARDONE  ALVA                                        000000000330000000000000000000000000000085959071000000430000000REEM 07 2012   201208102012072600000000054210000024134000000000026319000000000000000000000000002185050000000000  3020120906   01          2                                                                                   3947901700000051047543010139                                                  N                     01321  0000000        000027
12011318709000156MARTINS MARIANO T LTDA                                                0000000034100000000000000000000000000000874070710000009000008386123           201209102012082100000000054520000033000000000000033000000000000000000000000000000000050000000000  3020120910   01FS        1                                                                                   3109000008387007265858600079                                                  N                     01321  0000000        000028
12012006058000121WEG TINTAS LTDA                                                       0000000023702727800000000001309 00000000844839220090219500000710015168701     201208262012071200000000054370000306569000000000311057000000000000000000000000004488050000000000  3020120906   01          2  R JUNO  533                                                                      3                         000000000000000                                     N                     00598  0000000        000029
12012006058000121WEG TINTAS LTDA                                                       0000000023702727800000000001309 00000000827244630090216600000720014454803     201208272012061300000000054380000306662000000000310742000000000000000000000000004080050000000000  3020120906   01          2  R JUNO  533                                                                      3                         000000000000000                                     N                     00598  0000000        000030
12012006058000121WEG TINTAS LTDA                                                       0000000023702727800000000001309 00000000828904040090217000001030014515403     201208292012061500000000054400000459992000000000464896000000000000000000000000004904050000000000  3020120906   01          2  R JUNO  533                                                                      3                         000000000000000                                     N                     00598  0000000        000031
12012006058000121WEG TINTAS LTDA                                                       0000000023702727800000000001309 00000000833069160090217700001090014685603     201209052012062200000000054470000459992000000000460605000000000000000000000000000613050000000000  3020120906   01          2  R JUNO  533                                                                      3                         000000000000000                                     N                     00598  0000000        000032
12012006058000121WEG TINTAS LTDA                                                       0000000023702727800000000001309 00000000834820630090217900000750014773902     201208252012062600000000054360000306569000000000311465000000000000000000000000004896050000000000  3020120906   01          2  R JUNO  533                                                                      3                         000000000000000                                     N                     00598  0000000        000033
12012006058000121WEG TINTAS LTDA                                                       0000000023702727800000000001309 00000000841061120090218800000840014990202     201209032012070500000000054450000306569000000000307793000000000000000000000000001224050000000000  3020120906   01          2  R JUNO  533                                                                      3                         000000000000000                                     N                     00598  0000000        000034
12012006058000121WEG TINTAS LTDA                                                       0000000023702727800000000001309 00000000842436820090219200000840015068801     201208232012070900000000054340000306569000000000312281000000000000000000000000005712050000000000  3020120906   01          2  R JUNO  533                                                                      3                         000000000000000                                     N                     00598  0000000        000035
12012006058000121WEG TINTAS LTDA                                                       0000000023702727800000000001309 00000000847452140090220000000910015248101     201208312012071700000000054420000306569000000000309017000000000000000000000000002448050000000000  3020120906   01          2  R JUNO  533                                                                      3                         000000000000000                                     N                     00598  0000000        000036
12012006058000121WEG TINTAS LTDA                                                       0000000023702727800000000001309 00000000849855320090220500001200015343101     201209032012072000000000054450000306569000000000307793000000000000000000000000001224050000000000  3020120906   01          2  R JUNO  533                                                                      3                         000000000000000                                     N                     00598  0000000        000037
12012739954000108VIDA NOVA DESCARTAVEL                                                 0000000023701427300000000015989 00000000874070550090221300000384834           201208282012073100000000054390000063172000000000067172000000000000000000000000004000050000000000  3020120906   01FS        1  R TAMAINDE 1410                                                                  3                         000000000000000                                     N                     00598  0000000        000038
12014775592000128HELIO ADRIANO DA SILVA ME                                             0000000003300000000000000000000000000000861207320000000300000008330           201208242012080800000000054350000020000000000000020500000000000000000000000000000520050000000000  3020120829   05          3                                                                                   3956114740000000000003010119                                                  N                     01321  0000000        000039
12017469701000177ARCELORMITTAL BRASIL S A                                              0000000034100000000000000000000000000000848957320000009322721230012644702     201208172012071300000000054280000063787000000000063787000000000000000000000000000000050000000000  3020120817   06          3                                                                                   3109322721230293802529900029                                                  N                     01321  0000000        000040
12017469701000177ARCELORMITTAL BRASIL S A                                              0000000034100000000000000000000000000000848957330000009322737200015269001     201208132012071600000000054240000298521000000000298521000000000000000000000000000000050000000000  3020120813   05          3                                                                                   3109322737202293802529900029                                                  N                     01321  0000000        000041
12031895683000116BANCO INDUSTRIAL DO BRASIL S A                                        0000000023702374400000000144002 00000000862826150190222600002285776102        201209052012080800000000054470000065454000000000065629000000000000000000000000000175050000000000  3020120906   01          2  R JUNO 533                              OFFICE LEADER DIST E LOGISTICA LTDA      3                         005169626000140                                     N                     00598  0000000        000042
12033325184001786ALSCO TOALHEIRO BRASIL                                                0000000023703396000000001490850 0000000086196030009000002679805VM26798        201208302012081000000000054410000052584000000000052955000000000000000000000000000371050000000000  3020120906   01          2  RUA  GANGES 528                                                                  3                         000000000000000                                     N                     00598  0000000        000043
12033325184001786ALSCO TOALHEIRO BRASIL                                                0000000023703396000000001490850 0000000085771866009000028519503VM00285195     201209052012080300000000054470000026347000000000026373000000000000000000000000000026050000000000  3020120906   01          2  RUA  GANGES 528                                                                  3                         000000000000000                                     N                     00598  0000000        000044
12035820448000136WHITE MARTINS GASES INDUSTRIAI                                        0000000023700026400000003937925 0000000085771861009022160000641360709 001     201208292012080300000000054400000162300000000000167274000000000000000000000000004974050000000000  3020120906   01          2  RUA GANGES  528                                                                  3                         000000000000000                                     N                     00598  0000000        000045
12035820448000136WHITE MARTINS GASES INDUSTRIAI                                        0000000023700026400000003937925 0000000085607119009022140004425360193 001     201208282012073100000000054390000081150000000000083745000000000000000000000000002595050000000000  3020120906   01          2  RUA GANGES  528                                                                  3                         000000000000000                                     N                     00598  0000000        000046
12035820448000136WHITE MARTINS GASES INDUSTRIAI                                        0000000023700026400000003937925 0000000085861656009022190000404361579 001     201208312012080400000000054420000162300000000000166842000000000000000000000000004542050000000000  3020120906   01          2  RUA GANGES  528                                                                  3                         000000000000000                                     N                     00598  0000000        000047
12035820448000136WHITE MARTINS GASES INDUSTRIAI                                        0000000023700026400000003937925 0000000085315496009022090010244358059 001     201208232012072700000000054340000017600000000000018274000000000000000000000000000674050000000000  3020120906   01          2  RUA GANGES  528                                                                  3                         000000000000000                                     N                     00598  0000000        000048
12035820448000136WHITE MARTINS GASES INDUSTRIAI                                        0000000023700026400000003937925 0000000085315497009022090011903358519 001     201208232012072700000000054340000056805000000000059005000000000000000000000000002200050000000000  3020120906   01          2  RUA GANGES  528                                                                  3                         000000000000000                                     N                     00598  0000000        000049
12042956441000101SOLUCOES ACO USIMINAS                                                 0000000034100000000000000000000000000000855028620000002254329320017213001     201208242012072600000000054350000140644000000000142049000000000000000000000000001686050000000000  3020120829   06          3                                                                                   3112254329322293807258000089                                                  N                     01321  0000000        000050
12042956441000101SOLUCOES ACO USIMINAS                                                 0000000034100000000000000000000000000000848180680000002220192880017041001     201208142012071700000000054250000155480000000000155791000000000000000000000000000622050000000000  3020120815   06          3                                                                                   3112220192887293807258000049                                                  N                     01321  0000000        000051
12042956441000101SOLUCOES ACO USIMINAS                                                 0000000034100000000000000000000000000000813840750000002053421730016090003     201208142012052100000000054250000339977000000000339977000000000000000000000000000000050000000000  3020120814   06          3                                                                                   3112053421734293807258000099                                                  N                     01321  0000000        000052
12042956441000101SOLUCOES ACO USIMINAS                                                 0000000034100000000000000000000000000000821491050000002088005890016301003     201208242012053100000000054350000195531000000000197095000000000000000000000000001955050000000000  3020120828   06          3                                                                                   3112088005890293807258000089                                                  N                     01321  0000000        000053
12042956441000101SOLUCOES ACO USIMINAS                                                 0000000034100000000000000000000000000000855028710000002254329330017220501     201208242012072700000000054350000981316000000000991131000000000000000000000000011778050000000000  3020120829   06          3                                                                                   3112254329330293807258000039                                                  N                     01321  0000000        000054
12042956441000101SOLUCOES ACO USIMINAS                                                 0000000034100000000000000000000000000000848180690000002220192890017041201     201208142012071700000000054250000205482000000000205893000000000000000000000000000822050000000000  3020120815   06          3                                                                                   3112220192895293807258000099                                                  N                     01321  0000000        000055
12042956441000101SOLUCOES ACO USIMINAS                                                 0000000034100000000000000000000000000000855028610000002254329310017212901     201208242012072600000000054350000140140000000000141540000000000000000000000000001680050000000000  3020120829   06          3                                                                                   3112254329314293807258000069                                                  N                     01321  0000000        000056
12042956441000101SOLUCOES ACO USIMINAS                                                 0000000034100000000000000000000000000000821491060000002088005900016301203     201208242012053100000000054350000382590000000000385650000000000000000000000000003825050000000000  3020120828   06          3                                                                                   3112088005908293807258000039                                                  N                     01321  0000000        000057
12042956441000101SOLUCOES EM ACO USIMINAS S A                                          000000000010000000000000000000000000000083138703000000083116000000165994002   201208142012062000000000054250000233497000000000233964000000000000000000000000000934050000000000  3020120815   06          3                                                                                   3000000169660100000831161719                                                  N                     01321  0000000        000058
12042956441000101SOLUCOES ACO USIMINAS                                                 0000000034100000000000000000000000000000843180430000002194744350016902902     201208312012070600000000054420000179795000000000181955000000000000000000000000002160050000000000  3020120906   01          2                                                                                   3112194744358293807258000069                                                  N                     01321  0000000        000059
12042956441000101SOLUCOES ACO USIMINAS                                                 0000000034100000000000000000000000000000844063830000002198870030016923302     201209042012071000000000054460000442972000000000444744000000000000000000000000001772050000000000  3020120906   01          2                                                                                   3112198870035293807258000059                                                  N                     01321  0000000        000060
12042956441000101SOLUCOES ACO USIMINAS                                                 0000000034100000000000000000000000000000850740460000002233586800017127201     201208202012072000000000054310000137881000000000142573000000000000000000000000004692050000000000  3020120906   01          2                                                                                   3112233586802293807258000019                                                  N                     01321  0000000        000061
12042956441000101SOLUCOES ACO USIMINAS                                                 0000000034100000000000000000000000000000824061850000002100925420016380503     201208292012060500000000054400000215523000000000218971000000000000000000000000003448050000000000  3020120906   01          2                                                                                   3112100925422293807258000039                                                  N                     01321  0000000        000062
12042956441000101SOLUCOES ACO USIMINAS                                                 0000000034100000000000000000000000000000824061860000002100925430016380703     201208292012060500000000054400000216699000000000220163000000000000000000000000003464050000000000  3020120906   01          2                                                                                   3112100925430293807258000079                                                  N                     01321  0000000        000063
12042956441000101SOLUCOES EM ACO USIMINAS S A                                          000000000010000000000000000000000000000082801789000000079535000000165008003   201209052012061400000000054470000191165000000000191547000000000000000000000000000382050000000000  3020120906   01          2                                                                                   3000000169660100000795351729                                                  N                     01321  0000000        000064
12042956441000101SOLUCOES EM ACO USIMINAS S A                                          000000000010000000000000000000000000000082801791000000079529000000165006003   201209052012061400000000054470000091719000000000091902000000000000000000000000000183050000000000  3020120906   01          2                                                                                   3000000169660100000795291719                                                  N                     01321  0000000        000065
12042956441000101SOLUCOES EM ACO USIMINAS S A                                          000000000010000000000000000000000000000082801794000000079532000000165007003   201209052012061400000000054470000244583000000000245072000000000000000000000000000489050000000000  3020120906   01          2                                                                                   3000000169660100000795321719                                                  N                     01321  0000000        000066
12042956441000101SOLUCOES ACO USIMINAS                                                 0000000034100000000000000000000000000000855028660000002254329280017200301     201208232012072600000000054340000156943000000000161339000000000000000000000000004396050000000000  3020120906   01          2                                                                                   3112254329280293807258000019                                                  N                     01321  0000000        000067
12042956441000101SOLUCOES ACO USIMINAS                                                 0000000034100000000000000000000000000000859590600000002274469770017353701     201208312012080300000000054420000081077000000000082049000000000000000000000000000972050000000000  3020120906   01          2                                                                                   3112274469777293807258000049                                                  N                     01321  0000000        000068
12042956441000101SOLUCOES ACO USIMINAS                                                 0000000034100000000000000000000000000000859590610000002274469780017353801     201208312012080300000000054420000167048000000000169052000000000000000000000000002004050000000000  3020120906   01          2                                                                                   3112274469785293807258000019                                                  N                     01321  0000000        000069
12042956441000101SOLUCOES ACO USIMINAS                                                 0000000034100000000000000000000000000000819545020000002078930840016239503     201208222012052900000000054330001126072000000001159852000000000000000000000000033780050000000000  3020120906   01          2                                                                                   3112078930842293807258000019                                                  N                     01321  0000000        000070
12042956441000101SOLUCOES ACO USIMINAS                                                 0000000034100000000000000000000000000000841725480000002188168560016884802     201208302012070500000000054410000120612000000000122299000000000000000000000000001687050000000000  3020120906   01          2                                                                                   3112188168564293807258000019                                                  N                     01321  0000000        000071
12042956441000101SOLUCOES ACO USIMINAS                                                 0000000034100000000000000000000000000000841725490000002188168570016884902     201208302012070500000000054410000531835000000000539283000000000000000000000000007448050000000000  3020120906   01          2                                                                                   3112188168572293807258000019                                                  N                     01321  0000000        000072
12042956441000101SOLUCOES ACO USIMINAS                                                 0000000034100000000000000000000000000000841725500000002188168580016885102     201208302012070500000000054410000219722000000000222795000000000000000000000000003073050000000000  3020120906   01          2                                                                                   3112188168580293807258000049                                                  N                     01321  0000000        000073
12042956441000101SOLUCOES ACO USIMINAS                                                 0000000034100000000000000000000000000000841725510000002188168590016891202     201208302012070500000000054410001132543000000001148398000000000000000000000000015855050000000000  3020120906   01          2                                                                                   3112188168598293807258000019                                                  N                     01321  0000000        000074
12042956441000101SOLUCOES ACO USIMINAS                                                 0000000034100000000000000000000000000000841725520000002188168600016891402     201208302012070500000000054410000795232000000000806362000000000000000000000000011130050000000000  3020120906   01          2                                                                                   3112188168606293807258000019                                                  N                     01321  0000000        000075
12042956441000101SOLUCOES ACO USIMINAS                                                 0000000034100000000000000000000000000000841725530000002188168610016891502     201208302012070500000000054410001128343000000001144142000000000000000000000000015799050000000000  3020120906   01          2                                                                                   3112188168614293807258000089                                                  N                     01321  0000000        000076
12042956441000101SOLUCOES ACO USIMINAS                                                 0000000034100000000000000000000000000000858616290000002271409670017315101     201208302012080200000000054410000579548000000000587661000000000000000000000000008113050000000000  3020120906   01          2                                                                                   3112271409677293807258000099                                                  N                     01321  0000000        000077
12042956441000101SOLUCOES ACO USIMINAS                                                 0000000034100000000000000000000000000000826558320000002112172760016459403     201209042012061100000000054460000747525000000000750515000000000000000000000000002990050000000000  3020120906   01          2                                                                                   3112112172765293807258000089                                                  N                     01321  0000000        000078
12042956441000101SOLUCOES ACO USIMINAS                                                 0000000034100000000000000000000000000000826558330000002112172770016459703     201209042012061100000000054460000500177000000000502177000000000000000000000000002000050000000000  3020120906   01          2                                                                                   3112112172773293807258000069                                                  N                     01321  0000000        000079
12042956441000101SOLUCOES ACO USIMINAS                                                 0000000034100000000000000000000000000000826558340000002112172780016459803     201209042012061100000000054460000155721000000000156343000000000000000000000000000622050000000000  3020120906   01          2                                                                                   3112112172781293807258000099                                                  N                     01321  0000000        000080
12042956441000101SOLUCOES ACO USIMINAS                                                 0000000034100000000000000000000000000000826558360000002112172750016459203     201209042012061100000000054460000123455000000000123949000000000000000000000000000494050000000000  3020120906   01          2                                                                                   3112112172757293807258000049                                                  N                     01321  0000000        000081
12042956441000101SOLUCOES EM ACO USIMINAS S A                                          000000000010000000000000000000000000000082724452000000078504000000164692003   201209042012061300000000054460000442467000000000444237000000000000000000000000001770050000000000  3020120906   01          2                                                                                   3000000169660100000785041769                                                  N                     01321  0000000        000082
12042956441000101SOLUCOES ACO USIMINAS                                                 0000000034100000000000000000000000000000826558270000002112172740016458803     201209042012061100000000054460000231416000000000232342000000000000000000000000000926050000000000  3020120906   01          2                                                                                   3112112172740293807258000059                                                  N                     01321  0000000        000083
12042956441000101SOLUCOES ACO USIMINAS                                                 0000000034100000000000000000000000000000858616320000002271409680017316001     201208302012080200000000054410000929730000000000942743000000000000000000000000013013050000000000  3020120906   01          2                                                                                   3112271409685293807258000039                                                  N                     01321  0000000        000084
12042956441000101SOLUCOES ACO USIMINAS                                                 0000000034100000000000000000000000000000858616330000002271409690017319301     201208302012080200000000054410000981820000000000995568000000000000000000000000013748050000000000  3020120906   01          2                                                                                   3112271409693293807258000039                                                  N                     01321  0000000        000085
12042956441000101SOLUCOES ACO USIMINAS                                                 0000000034100000000000000000000000000000858616340000002271409700017319401     201208302012080200000000054410000178956000000000181462000000000000000000000000002506050000000000  3020120906   01          2                                                                                   3112271409701293807258000089                                                  N                     01321  0000000        000086
12042956441000101SOLUCOES ACO USIMINAS                                                 0000000034100000000000000000000000000000858616350000002271409710017319501     201208302012080200000000054410000197439000000000200204000000000000000000000000002765050000000000  3020120906   01          2                                                                                   3112271409719293807258000049                                                  N                     01321  0000000        000087
12042956441000101SOLUCOES ACO USIMINAS                                                 0000000034100000000000000000000000000000858616360000002271409720017319601     201208302012080200000000054410000197103000000000199861000000000000000000000000002758050000000000  3020120906   01          2                                                                                   3112271409727293807258000019                                                  N                     01321  0000000        000088
12042956441000101SOLUCOES ACO USIMINAS                                                 0000000034100000000000000000000000000000858616370000002271409730017319701     201208302012080200000000054410000197271000000000200036000000000000000000000000002765050000000000  3020120906   01          2                                                                                   3112271409735293807258000019                                                  N                     01321  0000000        000089
12042956441000101SOLUCOES ACO USIMINAS                                                 0000000034100000000000000000000000000000858616380000002271409740017319801     201208302012080200000000054410000194583000000000197306000000000000000000000000002723050000000000  3020120906   01          2                                                                                   3112271409743293807258000019                                                  N                     01321  0000000        000090
12042956441000101SOLUCOES ACO USIMINAS                                                 0000000034100000000000000000000000000000825740790000002106974460016399003     201208292012060600000000054400000203068000000000206316000000000000000000000000003248050000000000  3020120906   01          2                                                                                   3112106974465293807258000089                                                  N                     01321  0000000        000091
12042956441000101SOLUCOES ACO USIMINAS                                                 0000000034100000000000000000000000000000825740800000002106974470016399203     201208292012060600000000054400000450363000000000457571000000000000000000000000007208050000000000  3020120906   01          2                                                                                   3112106974473293807258000039                                                  N                     01321  0000000        000092
12042956441000101SOLUCOES ACO USIMINAS                                                 0000000034100000000000000000000000000000825740810000002106974480016399403     201208292012060600000000054400000431213000000000438109000000000000000000000000006896050000000000  3020120906   01          2                                                                                   3112106974481293807258000099                                                  N                     01321  0000000        000093
12042956441000101SOLUCOES ACO USIMINAS                                                 0000000034100000000000000000000000000000841725460000002188168540016859402     201208292012070400000000054400000164456000000000167088000000000000000000000000002632050000000000  3020120906   01          2                                                                                   3112188168549293807258000059                                                  N                     01321  0000000        000094
12042956441000101SOLUCOES ACO USIMINAS                                                 0000000034100000000000000000000000000000841725470000002188168550016859502     201208292012070400000000054400000234337000000000238089000000000000000000000000003752050000000000  3020120906   01          2                                                                                   3112188168556293807258000089                                                  N                     01321  0000000        000095
12042956441000101SOLUCOES ACO USIMINAS                                                 0000000034100000000000000000000000000000853154910000002246247000017196701     201208232012072500000000054340000234911000000000241491000000000000000000000000006580050000000000  3020120906   01          2                                                                                   3112246247004293807258000019                                                  N                     01321  0000000        000096
12043217850000159IOB INFORMACOES OBJ  PUBL JURI                                        0000000023702374400000002958600 000000008540495200902212000099001440820E4     201208202012073000000000054310000072850000000000074715000000000000000000000000001865050000000000  3020120906   01          2  GANGES 528 VL NOVA MANCHESTER                                                    3                         000000000000000                                     N                     00598  0000000        000097
12044098788000196MAIAMI COM E IMP DE ROLAMENTOS                                        0000000023700503700000000367516 000000008560712000902214000000409853          201208282012073100000000054390000020440000000000021043000000000000000000000000000603050000000000  3020120906   01          2  RUA GANGES 528 VL CARRAO                                                         3                         000000000000000                                     N                     00598  0000000        000098
12051180370000199IGUAFER FERRO E ACO LTDA                                              0000000034100000000000000000000000000000852309100000002239389789443 B         201209022012071800000000054440000168275000000000169395000000000000000000000000001120050000000000  3020120906   01          2                                                                                   3112239389789077149484600089                                                  N                     01321  0000000        000099
12051598472000129ELETRICA J SANTOS                                                     0000000023702451100000000000264 000000008586165500902219000005118310 01       201209032012080400000000054450000104146000000000104840000000000000000000000000001041050000000000  3020120906   01          2  R JUNO  533                                                                      300000000000000000001500  000000000000000                                     N                     00598  0000000        000100
12051598472000129ELETRICA J SANTOS                                                     0000000023702451100000000000264 000000008523091900902208000003917933 02       201209032012072500000000054450000112771000000000113899000000000000000000000000001128050000000000  3020120906   01          2  R JUNO  533                                                                      300000000000000000001500  000000000000000                                     N                     00598  0000000        000101
12051598472000129ELETRICA J SANTOS                                                     0000000023702451100000000000264 000000008523092000902208000004017933 03       201209052012072500000000054470000112771000000000113147000000000000000000000000000376050000000000  3020120906   01          2  R JUNO  533                                                                      3                         000000000000000                                     N                     00598  0000000        000102
12053585766000141MULTIACOS INDUSTRIA E COMERCIO                                        0000000000100000000000000000000000000000874070560000007280290000004391602     201209112012082100000000054530000354262000000000354262000000000000000000000000000000050000000000  3020120911   01FS        1                                                                                   3043997280291912000139523149                                                  N                     01321  0000000        000103
12053585766000141MULTIACOS INDUSTRIA E COMERCIO                                        0000000000100000000000000000000000000000874070570000007280280000004391502     201209112012082100000000054530000319418000000000319418000000000000000000000000000000050000000000  3020120911   01FS        1                                                                                   3043997280281912000139523129                                                  N                     01321  0000000        000104
12053585766000141MULTIACOS INDUSTRIA E COMERCIO                                        0000000000100000000000000000000000000000874070580000007280300000004391702     201209112012082100000000054530000342203000000000342203000000000000000000000000000000050000000000  3020120911   01FS        1                                                                                   3043997280301912000139523189                                                  N                     01321  0000000        000105
12053585766000141MULTIACOS INDUSTRIA E COMERCIO                                        0000000000100000000000000000000000000000874070590000007281250000004478801     201209132012082100000000054550000217628000000000217628000000000000000000000000000000050000000000  3020120913   01FS        1                                                                                   3043997281251912000139523199                                                  N                     01321  0000000        000106
12053585766000141MULTIACOS INDUSTRIA E COMERCIO                                        0000000000100000000000000000000000000000874070600000007281260000004478901     201209132012082100000000054550000134604000000000134604000000000000000000000000000000050000000000  3020120913   01FS        1                                                                                   3043997281261912000139523119                                                  N                     01321  0000000        000107
12053585766000141MULTIACOS INDUSTRIA E COMERCIO                                        0000000000100000000000000000000000000000874070610000007281090000004462201     201209102012082100000000054520000586308000000000586308000000000000000000000000000000050000000000  3020120910   01FS        1                                                                                   3043997281091912000139523119                                                  N                     01321  0000000        000108
12053585766000141MULTIACOS INDUSTRIA E COMERCIO                                        0000000000100000000000000000000000000000874070620000007281100000004462301     201209102012082100000000054520000270748000000000270748000000000000000000000000000000050000000000  3020120910   01FS        1                                                                                   3043997281101912000139523159                                                  N                     01321  0000000        000109
12053585766000141MULTIACOS INDUSTRIA E COMERCIO                                        0000000000100000000000000000000000000000874070630000007281110000004462401     201209102012082100000000054520000784572000000000784572000000000000000000000000000000050000000000  3020120910   01FS        1                                                                                   3043997281111912000139523189                                                  N                     01321  0000000        000110
12053585766000141MULTIACOS INDUSTRIA E COMERCIO                                        0000000000100000000000000000000000000000874070690000007281270000004479001     201209132012082100000000054550000856458000000000856458000000000000000000000000000000050000000000  3020120913   01FS        1                                                                                   3043997281271912000139523199                                                  N                     01321  0000000        000111
12053585766000141MULTIACOS IND  COM  PROD  TEC                                         0000000038900000000000000000000000000000874070420000000000000000004493702     201210012012080600000000054730000180041000000000180041000000000000000000000000000000050000000000  3020121001   01FS        1                                                                                   3015601031417289000042309299                                                  N                     01321  0000000        000112
12053585766000141MULTIACOS IND  COM  PROD  TEC                                         0000000038900000000000000000000000000000874070430000000000000000004493802     201210012012080600000000054730000828107000000000828107000000000000000000000000000000050000000000  3020121001   01FS        1                                                                                   3015601031417297000042309299                                                  N                     01321  0000000        000113
12053585766000141MULTIACOS IND  COM  PROD  TEC                                         0000000038900000000000000000000000000000874070440000000000000000004565101     201210012012082000000000054730000469526000000000469526000000000000000000000000000000050000000000  3020121001   01FS        1                                                                                   3015601031417440000042309219                                                  N                     01321  0000000        000114
12053585766000141MULTIACOS INDUSTRIA E COMERCIO                                        0000000000100000000000000000000000000000851529230000002500300000004270402     201208182012072400000000054290000118503000000000118503000000000000000000000000000000050000000000  3020120820   06          3                                                                                   3043922500301912000139523169                                                  N                     01321  0000000        000115
12053585766000141MULTIACOS INDUSTRIA E COMERCIO                                        0000000000100000000000000000000000000000860403350000009910140000004391601     201208282012080700000000054390000364996000000000365604000000000000000000000000001216050000000000  3020120829   06          3                                                                                   3043959910141912000139523199                                                  N                     01321  0000000        000116
12053585766000141MULTIACOS INDUSTRIA E COMERCIO                                        0000000000100000000000000000000000000000860403360000009910150000004391701     201208282012080700000000054390000352574000000000353162000000000000000000000000001176050000000000  3020120829   06          3                                                                                   3043959910151912000139523119                                                  N                     01321  0000000        000117
12053585766000141MULTIACOS INDUSTRIA E COMERCIO                                        0000000000100000000000000000000000000000860403400000009910130000004391501     201208282012080700000000054390000329096000000000329644000000000000000000000000001096050000000000  3020120829   06          3                                                                                   3043959910131912000139523159                                                  N                     01321  0000000        000118
12053585766000141MULTIACOS INDUSTRIA E COMERCIO                                        0000000000100000000000000000000000000000864554150000008070080000004437501     201209052012081400000000054470000431398000000000432117000000000000000000000000000719050000000000  3020120906   01          2                                                                                   3043978070081912000139523119                                                  N                     01321  0000000        000119
12053585766000141MULTIACOS INDUSTRIA E COMERCIO                                        0000000000100000000000000000000000000000864554170000008069030000004294603     201209042012081400000000054460000407138000000000408496000000000000000000000000001358050000000000  3020120906   01          2                                                                                   3043978069031912000139523169                                                  N                     01321  0000000        000120
12053585766000141MULTIACOS INDUSTRIA E COMERCIO                                        0000000000100000000000000000000000000000864554220000008070010000004429601     201209052012081400000000054470000937596000000000939159000000000000000000000000001563050000000000  3020120906   01          2                                                                                   3043978070011912000139523119                                                  N                     01321  0000000        000121
12053585766000141MULTIACOS INDUSTRIA E COMERCIO                                        0000000000100000000000000000000000000000864554270000008070090000004437601     201209052012081400000000054470000321214000000000321749000000000000000000000000000535050000000000  3020120906   01          2                                                                                   3043978070091912000139523129                                                  N                     01321  0000000        000122
12053585766000141MULTIACOS INDUSTRIA E COMERCIO                                        0000000000100000000000000000000000000000864554300000008070110000004437801     201209052012081400000000054470000449134000000000449883000000000000000000000000000749050000000000  3020120906   01          2                                                                                   3043978070111912000139523169                                                  N                     01321  0000000        000123
12053585766000141MULTIACOS INDUSTRIA E COMERCIO                                        0000000000100000000000000000000000000000864554190000008069470000004360702     201209042012081400000000054460001201246000000001205250000000000000000000000000004004050000000000  3020120906   01          2                                                                                   3043978069471912000139523119                                                  N                     01321  0000000        000124
12053585766000141MULTIACOS INDUSTRIA E COMERCIO                                        0000000000100000000000000000000000000000864554200000008069930000004423601     201209042012081400000000054460000625122000000000627206000000000000000000000000002084050000000000  3020120906   01          2                                                                                   3043978069931912000139523169                                                  N                     01321  0000000        000125
12053585766000141MULTIACOS INDUSTRIA E COMERCIO                                        0000000000100000000000000000000000000000864554210000008069940000004423701     201209042012081400000000054460000551694000000000553532000000000000000000000000001838050000000000  3020120906   01          2                                                                                   3043978069941912000139523159                                                  N                     01321  0000000        000126
12054382510000108SETENTA IND E COM DE MADEIRAS                                         0000000034100000000000000000000000000000860403430000002277814474462 A         201209042012080700000000054460000191200000000000191952000000000000000000000000000752050000000000  3020120906   01          2                                                                                   3112277814474057049175300069                                                  N                     01321  0000000        000127
12054382510000108SETENTA IND E COM DE MADEIRAS                                         0000000034100000000000000000000000000000866154250000002305114064536 A         201209192012081600000000054610000191200000000000191200000000000000000000000000000000050000000000  3020120919   05          3                                                                                   3112305114061057049175300039                                                  N                     01321  0000000        000128
12054382510000108SETENTA IND E COM DE MADEIRAS                                         0000000034100000000000000000000000000000874070720000002305114064536 A         201209192012081600000000054610000191200000000000191200000000000000000000000000000000050000000000  3020120919   01FS        1                                                                                   3112305114061057002848000039                                                  N                     01321  0000000        000129
12056993512000150CYKLOP DO BRASIL EMBALAGENS SA                                        0000000034100000000000000000000000000000874070500000002362586810134932        201210012012090300000000054730000083607000000000083607000000000000000000000000000000050000000000  3020121001   01FS        1                                                                                   3112362586813025700015800019                                                  N                     01321  0000000        000130
12056993900000131CIA METALURGICA PRADA                                                 0000000034100000000000000000000000000000824820100000002102181160024711603     201208292012060600000000054400000833146000000000844258000000000000000000000000011112050000000000  3020120906   01          2                                                                                   3112102181164293800573900039                                                  N                     01321  0000000        000131
12056993900000131CIA METALURGICA PRADA                                                 0000000034100000000000000000000000000000820562300000002080193680024478203     201208222012053000000000054330000113250000000000116085000000000000000000000000002835050000000000  3020120906   01          2                                                                                   3112080193686293800573900049                                                  N                     01321  0000000        000132
12056993900000131CIA METALURGICA PRADA                                                 0000000034100000000000000000000000000000820562310000002080193690024478303     201208222012053000000000054330000288295000000000295495000000000000000000000000007200050000000000  3020120906   01          2                                                                                   3112080193694293800573900029                                                  N                     01321  0000000        000133
12056993900000131CIA METALURGICA PRADA                                                 0000000034100000000000000000000000000000820562320000002080193700024499403     201208222012053000000000054330000597722000000000612662000000000000000000000000014940050000000000  3020120906   01          2                                                                                   3112080193702293800573900019                                                  N                     01321  0000000        000134
12056993900000131CIA METALURGICA PRADA                                                 0000000034100000000000000000000000000000820562330000002080193710024499503     201208222012053000000000054330000236585000000000242495000000000000000000000000005910050000000000  3020120906   01          2                                                                                   3112080193710293800573900019                                                  N                     01321  0000000        000135
12056993900000131CIA METALURGICA PRADA                                                 0000000034100000000000000000000000000000855028550000002254750250026244301     201208272012072800000000054380000100986000000000102666000000000000000000000000001680050000000000  3020120906   01          2                                                                                   3112254750253293800573900099                                                  N                     01321  0000000        000136
12056993900000131CIA METALURGICA PRADA                                                 0000000034100000000000000000000000000000855028560000002254750260026244401     201208272012072800000000054380000084368000000000085778000000000000000000000000001410050000000000  3020120906   01          2                                                                                   3112254750261293800573900089                                                  N                     01321  0000000        000137
12056993900000131CIA METALURGICA PRADA                                                 0000000034100000000000000000000000000000823343330000002094231750024634603     201208272012060400000000054380000124715000000000126795000000000000000000000000002080050000000000  3020120906   01          2                                                                                   3112094231753293800573900039                                                  N                     01321  0000000        000138
12056993900000131CIA METALURGICA PRADA                                                 0000000034100000000000000000000000000000823343340000002094231760024634703     201208272012060400000000054380000508859000000000517339000000000000000000000000008480050000000000  3020120906   01          2                                                                                   3112094231761293800573900019                                                  N                     01321  0000000        000139
12056993900000131CIA METALURGICA PRADA                                                 0000000034100000000000000000000000000000822364950000002089776730024584703     201208242012060100000000054350000835797000000000853906000000000000000000000000018109050000000000  3020120906   01          2                                                                                   3112089776739293800573900019                                                  N                     01321  0000000        000140
12056993900000131CIA METALURGICA PRADA                                                 0000000034100000000000000000000000000000822364960000002089776740024585703     201208242012060100000000054350000393990000000000402531000000000000000000000000008541050000000000  3020120906   01          2                                                                                   3112089776747293800573900059                                                  N                     01321  0000000        000141
12056993900000131CIA METALURGICA PRADA                                                 0000000034100000000000000000000000000000823343300000002094231730024634103     201208272012060400000000054380000135902000000000138172000000000000000000000000002270050000000000  3020120906   01          2                                                                                   3112094231738293800573900079                                                  N                     01321  0000000        000142
12056993900000131CIA METALURGICA PRADA                                                 0000000034100000000000000000000000000000823343310000002094231740024634203     201208272012060400000000054380000247806000000000251936000000000000000000000000004130050000000000  3020120906   01          2                                                                                   3112094231746293800573900019                                                  N                     01321  0000000        000143
12056993900000131CIA METALURGICA PRADA                                                 0000000034100000000000000000000000000000823343350000002094231770024634803     201208272012060400000000054380000264511000000000268921000000000000000000000000004410050000000000  3020120906   01          2                                                                                   3112094231779293800573900089                                                  N                     01321  0000000        000144
12056993900000131CIA METALURGICA PRADA                                                 0000000034100000000000000000000000000000821491000000002084501930024572503     201208232012053100000000054340000217291000000000222359000000000000000000000000005068050000000000  3020120906   01          2                                                                                   3112084501934293800573900039                                                  N                     01321  0000000        000145
12057158057000130COMERCIAL ELETRICA PJ LTDA                                            0000000023703394400000000972983 00000000842436850090219200008900000305028     201208012012070400000000054120000079196000000000088664000000000000000000000000009468050000000000  3020120906   01          2  R TAMAINDE 1410                                                                  3                         000000000000000                                     N                     00598  0000000        000146
12059659615000177DZ COMERCIO R E SERVICOS LTDA                                         000000003410000000000000000000000000000086699206000000900000270251            201209032012081500000000054450000060000000000000060360000000000000000000000000000360050000000000  3020120906   01          2                                                                                   3109000002706000314585100019                                                  N                     01321  0000000        000147
12059876565000180ITALLUX INDUSTRIA E COMERCIO L                                        000000000010000000000000000000000000000085152921000000223041000003868         201209012012072400000000054430000180000000000000182091000000000000000000000000002091050000000000  3020120906   01          2                                                                                   3043922230411203000086821129                                                  N                     01321  0000000        000148
12061174652000137METALURGICA SCHIOPPA LTDA                                             0000000023703392800000001071602 0000000086120725002022220000022110191 001     201209032012080200000000054450000075159000000000075909000000000000000000000000000750050000000000  3020120906   01          2  RUA GANGES 528                                                                   3                         000000000000000                                     N                     00598  0000000        000149
12061217188000119TELAS METALICAS TELMETAL LTDA                                         0000000003300000000000000000000000000000854049680000000600000005425 2 3       201209032012073000000000054450000045017000000000045377000000000000000000000000000360050000000000  3020120906   01          2                                                                                   3915435040000000047406020119                                                  N                     01321  0000000        000150
12061217188000119TELAS METALICAS TELMETAL LTDA                                         0000000000100000000000000000000000000000852309060000000055650005371 3 3       201209032012072500000000054450000069964000000000070525000000000000000000000000000561050000000000  3020120906   01          2                                                                                   3000000115031800000055651719                                                  N                     01321  0000000        000151
12061217188000119TELAS METALICAS TELMETAL LTDA                                         0000000000100000000000000000000000000000849855300000000055510005358 3 3       201208312012072000000000054420000052555000000000052555000000000000000000000000000000050000000000  3020120831   06          3                                                                                   3000000115031800000055511779                                                  N                     01321  0000000        000152
12062340989000130EDICOES ADUANEIRAS LTDA                                               0000000023703090200000000015660 0000000079108231009080000035029004262 C       201208302012041100000000054410000043600000000000044104000000000000000000000000000504050000000000  3020120906   01          2  RUA TAMAINDE 1410 RUA GANGES 520 E 528                                           3                         000000000000000                                     N                     00598  0000000        000153
12062510367000102ITANHAEM TRANSP DE MAQUINAS LT                                        000000003410000000000000000000000000000087407049000000236463199667            201209202012090400000000054620000248220000000000248220000000000000000000000000000000050000000000  3020120920   01FS        1                                                                                   3112364631997005770252400049                                                  N                     01321  0000000        000154
12064952757000168WALMAC COM DE PROD QUIMICOS LT                                        0000000034100000000000000000000000000000815444110000002054903050018504        201208142012052200000000054250000219266000000000219266000000000000000000000000000000050000000000  3020120814   06          3                                                                                   3112054903052064807961400059                                                  N                     01321  0000000        000155
12064952757000168WALMAC COM DE PROD QUIMICOS LT                                        0000000034100000000000000000000000000000860403460000002275821710020148        201208312012080300000000054420000219267000000000221853000000000000000000000000002586050000000000  3020120906   01          2                                                                                   3112275821711064807961400079                                                  N                     01321  0000000        000156
12064952757000168WALMAC COM DE PROD QUIMICOS LT                                        0000000034100000000000000000000000000000844063790000002196829090019356        201209042012071000000000054460000219267000000000220129000000000000000000000000000862050000000000  3020120906   01          2                                                                                   3112196829090064807961400019                                                  N                     01321  0000000        000157
12069284248000128ISOCOAT TINTAS E VERNIZES LTDA                                        0000000034100000000000000000000000000000835620760000002157949140051735        201208092012062500000000054200000146421000000000146421000000000000000000000000000000050000000000  3020120809   05          3                                                                                   3112157949143077430121200029                                                  N                     01321  0000000        000158
12069284248000128ISOCOAT TINTAS E VERNIZES LTDA                                        0000000034100000000000000000000000000000841061010000002182507910052085        201208162012070200000000054270000271473000000000271473000000000000000000000000000000050000000000  3020120816   06          3                                                                                   3112182507916077430121200019                                                  N                     01321  0000000        000159
12069309706000136F N A TRANSPORTES LTDA                                                000000003410000000000000000000000000000086615421000000900010656059068         201208302012081500000000054410000079200000000000081048000000000000000000000000001848050000000000  3020120906   01          2                                                                                   3109000106565005486932600099                                                  N                     01321  0000000        000160
12071580302000124SANCHEPEL IND PAULISTA EMB L                                          0000000034100000000000000000000000000000856071160000002255716067346           201208292012073100000000054400000198375000000000198375000000000000000000000000000000050000000000  3020120829   05          3                                                                                   3112255716063007855578600019                                                  N                     01321  0000000        000161
12075483040000130REX MAQ E EQUIPAMENTOS LTDA                                           00000000341000000000000000000000000000008465957500000022100116976263 2 2      201208292012070400000000054400000434000000000000434000000000000000000000000000000000050000000000  3020120829   06          3                                                                                   3112210011691848301515500019                                                  N                     01321  0000000        000162
12092693118000160BRADESCO SAUDE S A                                                    0000000023700448000000001533991 00000000847452120050100745572410000000000     201208202012071700000000054310000645861000000000652933000000000000000000000000007072050000000000  3020120906   01          2                                                                                   3                         000000000000000                                     N                     00598  0000000        000163
12096500087000135WORKBENCH CONSULTORIA S S LTDA                                        0000000034100000000000000000000000000000857718620000007898134153064           201208272012080300000000054380000131746000000000132264000000000000000000000000000777050000000000  3020120829   06          3                                                                                   3157898134156826313803700079                                                  N                     01321  0000000        000164
900016500000000049465360                                                                                                                                                                                                                                                                                                                                                                                                                                                                01321  0000000        000165
