0000147602043799295000110ALTAMIRA IND METALURGICA LTDA           20100552000002012110617554900000        2    230A                                                                                          000000000000000                                                                                                                                                                                                                                                                                   000001
12035820448000136WHITE MARTINS GASES INDUSTRIAI                                        0000000023700026400000003937925 0000000088957851009022700001298384214 001     201210230000000000000000054950000121725000000000124692000000000000000000000000002967050000000000  3020121106   01MFBUHA    500RUA GANGES  528                                                                  3010000                   000000000000000009208                               N                     00000 10020256        000002
12043350099000164JMC COML ELETRICA LTDA                                                0000000023700092200000000380105 000000008978814200902283000045055335 02       201211060000000000000000055090000034921000000000034921000000000000000000000000000000050000000000  3020121106   01MFBUHA    500R  GANGES  528                                                                   3010000                   0000000000000000055335/02                           N                     00000 10020256        000003
12001862327000135ALPHA CLEAN DISTRIBUIDORA LTDA                                        0000000023700093000000001087509 0000000089962491009022850000030008364         201211060000000000000000055090000032724000000000032724000000000000000000000000000000050000000000  3020121106   01MFBUHA    500RUA TAMAINDE 1410                                                                3010000                   000000000000000008364                               N                     00000 10020256        000004
12010824619000174ALVALOG TRANSPORTES E LOGISTIC                                        000000000330000000000000000000000000000090581011000000910000000ID272407       201211060000000000000000055090000107653000000000107653000000000000000000000000000000050000000000  3020121106   01MFBUHA    500                                                                                 3946239400000000057591010179010000       0057433                              N                     00000 10020256        000005
12082918939000285OZELLAME CARGAS URGENTES LTDA RUA  FAUSTINO PEREIRA MATIAS  133       0201209000100000 0000000000000  I000000000010127000000000000000               201211060000000000000000055090000175300000000000175300000000000000000000000000000000050000018906  3120121106   01HA        000                                                                                 3000000149390100080295041819             0018/906                             N                     00000 10020256        000006
12016802308000190TRANSMARRECO LTDA                                                     0000000003300000 0000000000000  I000000000010128000000000000000               201211060000000000000000055090000118953000000000118953000000000000000000000000000000050000000353  3120121106   01HA        000                                                                                 3907636240000000643564010129             00353/12                             N                     00000 10020256        000007
12061186847000105PERFILADOS GRANADO LTDA       RUA  ROSA CASINSKI  781                 0938012803300000 0000000000000  I000000000010129000000000000000               201211060000000000000000055090000109485000000000109485000000000000000000000000000000010000005312  3120121106   01HA        000                                                                                 3917995920000003503380010419             005312                               N                     00000 10020256        000008
12013656578000142GUARINOR TRANSP E LOGISTICA LT                                        0000000010400000 0000000000000  I000000000010130000000000000000               201211060000000000000000055090000106600000000000106600000000000000000000000000000000050000001790  3120121106   01HA        000                                                                                 3900000129932958700000017319             001790/12                            N                     00000 10020256        000009
12071580302000124SANCHEPEL IND PAULISTA LTDA   RUA  MARIA FRANC DE JESUS  101          0809001034100000 0000000000000  I000000000010131000000000000000               201211060000000000000000055090000099982000000000099982000000000000000000000000000000010000007841  3120121106   01HA        000                                                                                 3181574885091007855578600099             007841                               N                     00000 10020256        000010
12081560047000101ACEVILLE TRANSPORTES LTDA     RODOVIA BR 101 KM 30                    8923950003300000 0000000000000  I000000000010132000000000000000               201211060000000000000000055090000085000000000000085000000000000000000000000000000000050000277853  3120121106   01HA        000                                                                                 3913555200000002778530010159             00277853                             N                     00000 10020256        000011
12014775592000128HELIO ADRIANO DA SILVA ME     RUA CARIUS 121                          0723003023700593200000002432943 I000000000010133009022920000003               201211060000000000000000055090000075000000000000075000000000000000000000000000000000050000008935  3120121106   01HA        000                                                                                 3059309229200000030243294019             008935                               N                     00000 10020256        000012
12061174652000137METALURGICA SCHIOPPA LTDA     RUA  ALVARO DO VALE  284                0421701034100000 0000000000000  I000000000010134000000000000000               201211060000000000000000055090000063248000000000063248000000000000000000000000000000010000117255  3120121106   01HA        000                                                                                 3181574849833019424479400039             00117255                             N                     00000 10020256        000013
12075483040000130REX MAQ E EQUIPAMENTOS LTDA                                           0000000000100000 0000000000000  I000000000010135000000000000000               201211060000000000000000055090000049915000000000049915000000000000000000000000000000010000079547  3120121106   01HA        000                                                                                 3043999123723420001185301139             00079547                             N                     00000 10020256        000014
12011202309000180FIEL TOOLS DISTRIB DE MAQ FERRESTRADA SANTA ISABEL  3242              0859900023702087700000000000116 I000000000010136009000020196861               201211060000000000000000055090000042968000000000042968000000000000000000000000000000010000009686  3120121106   01HA        000                                                                                 3208709000201968610000011099             009686                               N                     00000 10020256        000015
12062494679000170WILSON ROBERTO COSTA DE JESUS RUA JOAO MIRASSOL  385                  0612217000100000 0000000000000  I000000000010137000000000000000               201211060000000000000000055090000042327000000000042327000000000000000000000000000000010000035262  3120121106   01HA        000                                                                                 3000000198715600000009411819             0035262                              N                     00000 10020256        000016
12045987005000198D PASCHOAL AUTOMOTIVA LTDA                                            0000000039900000 0000000000000  I000000000010138000000000000000               201211060000000000000000055090000074066000000000074066000000000000000000000000000000010000011650  3120121106   01HA        000                                                                                 3232000009191195097311000199             0011650                              N                     00000 10020256        000017
12054217021000192RAFER COM MAT P ESCRIT LTDA   RUA AUGUSTO REGINATO  194               0343403000100000 0000000000000  I000000000010139000000000000000               201211060000000000000000055090000040400000000000040400000000000000000000000000000000010000003332  3120121106   01HA        000                                                                                 3000000185029400990055761759             003332                               N                     00000 10020256        000018
12061019584000131MECANICA FERAP LTDA           AV ITAQUERA  1500                       0352600034100000 0000000000000  I000000000010140000000000000000               201211060000000000000000000000000000000000000000036000000000000000000000000000000000010000000028  3120121106   01HA        000                                                                                 3174620179385046709911500019             00028                                N                     00000 10020256        000019
12049341563000132JAC COMERCIO MAT ELETR LTDA   RUA  DOMINGOS TORRES  221 225           0252110023700293300000001478699 I000000000010141002013227606476               201211060000000000000000055090000015549000000000015549000000000000000000000000000000010000023304  3120121106   01HA        000                                                                                 3029302132276064760147869089             0023304                              N                     00000 10020256        000020
12045635984000115CRIFER LAMINADOS DE ACO E FERR                                        0000000000100000 0000000000000  I000000000010142000000000000000               201211060000000000000000055090000804422000000000804422000000000000000000000000000000010000035395  3120121106   01HA        000                                                                                 3000000147532500000041641779             0035395                              N                     00000 10020256        000021
12062014881000157INDUSTRIA MEC JULIAPA LTDA    RUA  BURITI ALEGRE  184                 0365700034100000 0000000000000  I000000000010143000000000000000               201211060000000000000000055090000080156000000000080156000000000000000000000000000000010000002084  3120121106   01HA        000                                                                                 3175000035221076423432400049             002084                               N                     00000 10020256        000022
12033325184001786ALSCO TOALHEIRO BRASIL LTDA   AV NADIR DIAS DE FIGUEIREDO  829        0211000023703396000000001490850 I000000000010144009000029120903               201211060000000000000000055090000026373000000000026373000000000000000000000000000000010000291209  3120121106   01HA        000                                                                                 3339609000291209030149085019             00291209                             N                     00000 10020256        000023
12005335228000156DINAMICA INFORMATICA TELEC LTDRUA  DOUTOR ALARICO SILVEIRA  00378     0350204023703257300000000503215 I000000000010145009032570017602               201211060000000000000000055090000020469000000000020469000000000000000000000000000000010000009089  3120121106   01HA        000                                                                                 3325709325700176020050321089             009089                               N                     00000 10020256        000024
12007920494000171NOGUEIRA LEITE ADVOG ASSOC    AV MOEMA  170                           0407702074500000 0000000000000  I000000000010146000000000000000               201211060000000000000000000000000031624000000000031624000000000000000000000000000000010000000065  3120121106   01HA        000                                                                                 3361125706001200000010292029             00065                                N                     00000 10020256        000025
12061600839000155CENTRO INT EMPRESA ESCOLA CIEERUA  TABAPUA  0540                      0453300123703391000000000866202 I000000000010147009000003654644               201211060000000000000000055090000017130000000000017130000000000000000000000000000000010000007461  3120121106   01HA        000                                                                                 3339109000036546440086620039             007641                               N                     00000 10020256        000026
12002765757000100DUBRONZE IND E COM DE METAIS                                          0000000034100000 0000000000000  I000000000010148000000000000000               201211060000000000000000055090000027809000000000027809000000000000000000000000000000010000019710  3120121106   01HA        000                                                                                 3181575038445162660894500019             0019710                              N                     00000 10020256        000027
12049341563000132JAC COMERCIO MAT ELETR LTDA   RUA  DOMINGOS TORRES  221 225           0252110023700293300000001478699 I000000000010149002013227506459               201211060000000000000000055090000046428000000000046428000000000000000000000000000000010000023217  3120121106   01HA        000                                                                                 3029302132275064590147869049             0023217                              N                     00000 10020256        000028
12049341563000132JAC COMERCIO MAT ELETR LTDA   RUA  DOMINGOS TORRES  221 225           0252110034100000 0000000000000  I000000000010150000000000000000               201211060000000000000000055090000014856000000000014856000000000000000000000000000000010000023447  3120121106   01HA        000                                                                                 3181575041166018060969500059             0023447                              N                     00000 10020256        000029
12011202309000180FIEL TOOLS DISTRIB DE MAQ FERRESTRADA SANTA ISABEL  3242              0859900023702087700000000000116 I000000000010151028000020196862               201211060000000000000000055090000042107000000000042107000000000000000000000000000000010000009686  3120121106   01HA        000                                                                                 3208728000201968620000011019             009686                               N                     00000 10020256        000030
12015244717000156STYLO ROL COM ROLAM                                                   0356008034100000 0000000000000  I000000000010152000000000000000               201211060000000000000000055090000006100000000000006100000000000000000000000000000000010000000081  3120121106   01HA        000                                                                                 3109201200551076423057900089             00081                                N                     00000 10020256        000031
12035820448000136WHITE MARTINS GASES IND LTDA  AV  AUTONOMISTAS  4192                  0609001523700026400000003937925 I000000000010153009022630001577               201211110000000000000000055140000125225000000000125225000000000000000000000000000000010000009166  3120121106   01HA        000                                                                                 3002609226300015770393792089             009166                               N                     00000 10020256        000032
12035820448000136WHITE MARTINS GASES IND LTDA  AV  AUTONOMISTAS  4192                  0609001523700026400000003937925 I000000000010154009022650001000               201211130000000000000000055160000125225000000000125225000000000000000000000000000000010000009187  3120121106   01HA        000                                                                                 3002609226500010000393792029             009187                               N                     00000 10020256        000033
12004676708000118M H F  SISTEMAS LTDA          RUA  UICO  0345                         0362102034100000 0000000000000  I000000000010155000000000000000               201211060000000000000000055090000014500000000000014500000000000000000000000000000000010000000990  3120121106   01HA        000                                                                                 3181575043071013924573200019             00990                                N                     00000 10020256        000034
12007289649000113CRC LASER SUPRIM INFOR LTDA   RUA  ACHILLE STEFANI  00277             0847119134100000 0000000000000  I000000000010156000000000000000               201211060000000000000000055090000030775000000000030775000000000000000000000000000000010000001157  3120121106   01HA        000                                                                                 3181575042359000265431700019             001157                               N                     00000 10020256        000035
12007068566000102NIVEL EMPREGOS LTDA           AV CELSO GARCIA 3830                    0306400023700097300000003053792 I000000000010157000000000000000               201211060000000000000000000000000000000000000000376604000000000000000000000000000000010000002805  0120121106   01HA        000                                                                                 3                                        002805 - PARC,01                     N                     00000 10020256        000036
900003700000000003224586                                                                                                                                                                                    000000000000000                                                                                                                                                                                                                                                    00003501762860002809015        000037
