0000147602043799295000110ALTAMIRA IND METALURGICA LTDA           20100491000002012090611445700000        2    230A                                                                                          000000000000000                                                                                                                                                                                                                                                                                   000001
12043799295000110ALTAMIRA INDUSTRIA METAL LTDA RUA  GANGES  528                        0344503000103333200000000011029 I000000000009750000000000000000               201209060000000000000000000000000000000000000000700000000000000000000000000000000000050000000001  0820120906   01HA        0001200                                                                             3D0000000101                             0001                                 S                     00000  0020256        000002
12007806416000140MAXMETA PART EMPREEND LTDA    RUA  GANGES  528                        0344503003303809500000130002347 I000000000009751000000000000000               201209060000000000000000000000000000000000000000600000000000000000000000000000000000050000000001  0820120906   01HA        0001200                                                                             3C0000000101                             0001                                 N                     00000  0020256        000003
900000400000000001300000                                                                                                                                                                                    000000000000000                                                                                                                                                                                                                                                    00000200000000000000000        000004
