0000147602043799295000110ALTAMIRA INDUSTRIA METALURGICA LT       202000000020920120906121819             2                                                                                                  000000000000000                                                                                                                                                                                                                                                                                   000001
12043799295000110ALTAMIRA INDUSTRIA METAL LTDA                                         0000000000103333200000000011029 I000000000009750000000000000000               201209060000000000000000000000000000000000000000700000000000000000000000000000000000050000000001  0820120906   01HF        5001213000000014802478000000000000000                                               3D0000000101                               01                                 S                     01133 10020256        000002
12007806416000140MAXMETA PART EMPREEND LTDA                                            0000000003303809500000130002347 I000000000009751000000000000000               201209060000000000000000000000000000000000000000600000000000000000000000000000000000050000000001  0820120906   01HF        5001213000000014102478000000000000000                                               3C0000000101                               01                                 N                     01076 10020256        000003
900000400000000001300000                                                                                                                                                                                    000000000000000                                                                                                                                                                                                                                                    00000200000000000000000        000004
