0000147602043799295000110ALTAMIRA INDUSTRIA METALURGICA LT       202000000016120121106165338             1                                                                                                                                                                                                                                                                                                                                                                                                    000001
12000329073000121PETRO LIDER DERIV PETR LTDA                                           000000003410000000000000000000000000000089874117000000247270268001019584      201211012012100500000000055040000050000000000000055080000000000000000000000000005080050000000000  3020121106   01          2                                                                                   3112472702680073403145300019                                                  N                     01321  0000000        000002
12001784706000154TRANSPORTES WARTHA LTDA                                               0000000023701775200000000260010 0000000091358501009023100000186SAO2697641     201211262012110500000000055290000052780000000000052780000000000000000000000000000000050000000000  3020121126   01FS        1  R  GANGES  528                                                                   3                         000000000000000                                     N                     00598  0000000        000003
12001895314000162COLETA INDUSTRIAL FIMAVAN LTDA                                        0000000034100000000000000000000000000000866992070000009002335349439           201208272012081700000000054380000123695000000000149528000000000000000000000000025833050000000000  3020121106   01          2                                                                                   3109002335346144604097200019                                                  N                     01321  0000000        000004
12001895314000162COLETA INDUSTRIAL FIMAVAN LTDA                                        00000000341000000000000000000000000000009032787100000090023540111403          201210272012101700000000054990000140379000000000146927000000000000000000000000006548050000000000  3020121106   01          2                                                                                   3109002354016144604097200019                                                  N                     01321  0000000        000005
12002583013000166ITAN TRANSP DE CARGAS EXC E IN                                        000000003410000000000000000000000000000088350836000000239377422008 B          201210212012091400000000054930000192500000000000204820000000000000000000000000012320050000000000  3020121106   01          2                                                                                   3112393774222005770252400039                                                  N                     01321  0000000        000006
12003489596000123BEND FLEX I COMERCIO LTDA                                             000000003410000000000000000000000000000088350832000000171879874608            201209122012082100000000054540000695250000000000770435000000000000000000000000075185050000000000  3020121106   01          2                                                                                   3191718798744157734445800069                                                  N                     01321  0000000        000007
12003489596000123BEND FLEX I COMERCIO LTDA                                             000000003410000000000000000000000000000088599899000000171434574613            201209172012081600000000054590000585000000000000642550000000000000000000000000057550050000000000  3020121106   01          2                                                                                   3191714345748157734445800019                                                  N                     01321  0000000        000008
12003489596000123BEND FLEX I COMERCIO LTDA                                             000000003410000000000000000000000000000091358505000000177374323637            201210292012092700000000055010000110000000000000111728000000000000000000000000001728050000000000  3020121106   01FS        1                                                                                   3191773743239157734445800019                                                  N                     01321  0000000        000009
12004643290000142FLEXTINTAS IND E COMERCIO LTDA                                        000000003410000000000000000000000000000091358498000000254413384NFF038846A     201212152012103100000000055480000347270000000000347270000000000000000000000000000000050000000000  3020121217   01FS        1                                                                                   3112544133849051356781800059                                                  N                     01321  0000000        000010
12004643290000142FLEXTINTAS IND E COMERCIO LTDA                                        000000003410000000000000000000000000000091358499000000254413386NFF038846C     201301142012103100000000055780000347270000000000347270000000000000000000000000000000050000000000  3020130114   01FS        1                                                                                   3112544133864051356781800069                                                  N                     01321  0000000        000011
12004643290000142FLEXTINTAS IND E COMERCIO LTDA                                        000000003410000000000000000000000000000091358500000000254413385NFF038846B     201212302012103100000000055630000347270000000000347270000000000000000000000000000000050000000000  3020121231   01FS        1                                                                                   3112544133856051356781800099                                                  N                     01321  0000000        000012
12005335228000156DINAMICA INF E TELECOM LTDA EP                                        0000000023703257300000000503215 0000000090244992009032570017602MO009089A      201210302012101600000000055020000020000000000000020469000000000000000000000000000469050000000000  3020121106   01          2  RUA JUNO  533                                                                    3                         000000000000000                                     N                     00598  0000000        000013
12005852768000107DAOUD LEAL ELETRONICA LTDA ME                                         000000003410000000000000000000000000000089337382000000615297518OUTUBRO        201210262012100200000000054980000016558000000000017252000000000000000000000000000694050000000000  3020121106   01          2                                                                                   3156152975181152944476000059                                                  N                     01321  0000000        000014
12005880850000145NEDERMAN BRASIL COM PROD EX LT                                        000000003410000000000000000000000000000086373178000000614350956002763 A       201209252012081400000000054670000289674000000000313614000000000000000000000000023940050000000000  3020121106   01          2                                                                                   3156143509568160829000100049                                                  N                     01321  0000000        000015
12006000195000156MBA MERCANTIL BRAS DE ACO LTDA                                        0000000034100000000000000000000000000000889578520000001671394540008920B02     201209162012071700000000054580000576585000000000634419000000000000000000000000057834050000000000  3020121106   01          2                                                                                   3191671394549064849251000099                                                  N                     01321  0000000        000016
12006000195000156MBA MERCANTIL BRAS DE ACO LTDA                                        0000000034100000000000000000000000000000887698100000001671394560008926B02     201209142012071700000000054560000387716000000000428155000000000000000000000000040439050000000000  3020121106   01          2                                                                                   3191671394564064849251000019                                                  N                     01321  0000000        000017
12006000195000156MBA MERCANTIL BRAS DE ACO LTDA                                        0000000034100000000000000000000000000000885998980000001667238420008870B02     201209112012071600000000054530000839952000000000932464000000000000000000000000092512050000000000  3020121106   01          2                                                                                   3191667238429064849251000039                                                  N                     01321  0000000        000018
12006000195000156MBA MERCANTIL BRAS DE ACO LTDA                                        0000000034100000000000000000000000000000904173140000001667238290008874B03     201210112012071600000000054830000802825000000000843879000000000000000000000000041054050000000000  3020121106   01          2                                                                                   3191667238296064849251000069                                                  N                     01321  0000000        000019
12006000195000156MBA MERCANTIL BRAS DE ACO LTDA                                        0000000034100000000000000000000000000000904173150000001667238300008870B03     201210092012071600000000054810000839951000000000886207000000000000000000000000046256050000000000  3020121106   01          2                                                                                   3191667238304064849251000039                                                  N                     01321  0000000        000020
12006000195000156MBA MERCANTIL BRAS DE ACO LTDA                                        0000000034100000000000000000000000000000904173160000001667238280008876B03     201210122012071600000000054840000810320000000000850170000000000000000000000000039850050000000000  3020121106   01          2                                                                                   3191667238288064849251000079                                                  N                     01321  0000000        000021
12006000195000156MBA MERCANTIL BRAS DE ACO LTDA                                        0000000034100000000000000000000000000000904173170000001671394420008925B03     201210122012071700000000054840000719580000000000754955000000000000000000000000035375050000000000  3020121106   01          2                                                                                   3191671394424064849251000069                                                  N                     01321  0000000        000022
12006000195000156MBA MERCANTIL BRAS DE ACO LTDA                                        0000000034100000000000000000000000000000904173180000001671394430008926B03     201210122012071700000000054840000387716000000000406791000000000000000000000000019075050000000000  3020121106   01          2                                                                                   3191671394432064849251000079                                                  N                     01321  0000000        000023
12006000195000156MBA MERCANTIL BRAS DE ACO LTDA                                        0000000034100000000000000000000000000000906662670000001671394410008920B03     201210142012071700000000054860000576584000000000602666000000000000000000000000026082050000000000  3020121106   01          2                                                                                   3191671394416064849251000039                                                  N                     01321  0000000        000024
12006000195000156MBA MERCANTIL BRAS DE ACO LTDA                                        0000000034100000000000000000000000000000887698090000001671394550008925B02     201209142012071700000000054560000719581000000000794576000000000000000000000000074995050000000000  3020121106   01          2                                                                                   3191671394556064849251000089                                                  N                     01321  0000000        000025
12006000195000156M B A MERCANTIL BRASILEIRA DE                                         0000000000100000000000000000000000000000855028840000007952850000009005B03     201210222012073000000000054940000202837000000000204189000000000000000000000000001690050000000000  3020121026   05          3                                                                                   3043937952853333000105251169                                                  N                     01321  0000000        000026
12006000195000156M B A MERCANTIL BRASILEIRA DE                                         0000000000100000000000000000000000000000855028870000007952880000009006B03     201210232012073000000000054950000235480000000000237832000000000000000000000000002744050000000000  3020121029   05          3                                                                                   3043937952883333000105251139                                                  N                     01321  0000000        000027
12006000195000156M B A MERCANTIL BRASILEIRA DE                                         0000000000100000000000000000000000000000855028940000007952910000009007B03     201210242012073000000000054960000428086000000000432364000000000000000000000000004991050000000000  3020121030   05          3                                                                                   3043937952913333000105251199                                                  N                     01321  0000000        000028
12006000195000156M B A MERCANTIL BRASILEIRA DE                                         0000000023700118P00000002130599 00000000868592690020223600000020009229B02     201210112012081600000000054830000253414000000000264386000000000000000000000000010972050000000000  3020121106   01          2  RUA JUNO  533                                                                    3                         000000000000000                                     N                     00598  0000000        000029
12006000195000156M B A MERCANTIL BRASILEIRA DE                                         0000000023700118P00000002130599 00000000848180770020220100000340008905B03     201210112012071900000000054830000155300000000000162034000000000000000000000000006734050000000000  3020121106   01          2  RUA JUNO  533                                                                    3                         000000000000000                                     N                     00598  0000000        000030
12006000195000156M B A MERCANTIL BRASILEIRA DE                                         0000000023700118P00000002130599 00000000853155000020220900000460008967B03     201210182012072400000000054900000135605000000000139899000000000000000000000000004294050000000000  3020121106   01          2  RUA JUNO  533                                                                    3                         000000000000000                                     N                     00598  0000000        000031
12006000195000156M B A MERCANTIL BRASILEIRA DE                                         0000000023700118P00000002130599 00000000853155030020220900000530008971B03     201210162012072400000000054880000170465000000000176429000000000000000000000000005964050000000000  3020121106   01          2  RUA JUNO  533                                                                    3                         000000000000000                                     N                     00598  0000000        000032
12006000195000156M B A MERCANTIL BRASILEIRA DE                                         0000000023700118P00000002130599 00000000853155060020220900000660008985B03     201210172012072500000000054890000141846000000000146566000000000000000000000000004720050000000000  3020121106   01          2  RUA JUNO  533                                                                    3                         000000000000000                                     N                     00598  0000000        000033
12006000195000156M B A MERCANTIL BRASILEIRA DE                                         0000000023700118P00000002130599 00000000853155090020220900000690008986B03     201210172012072500000000054890000126718000000000130938000000000000000000000000004220050000000000  3020121106   01          2  RUA JUNO  533                                                                    3                         000000000000000                                     N                     00598  0000000        000034
12006000195000156M B A MERCANTIL BRASILEIRA DE                                         0000000023700118P00000002130599 00000000853155120020220900000720008987B03     201210182012072500000000054900000188368000000000194334000000000000000000000000005966050000000000  3020121106   01          2  RUA JUNO  533                                                                    3                         000000000000000                                     N                     00598  0000000        000035
12006000195000156M B A MERCANTIL BRASILEIRA DE                                         0000000023700118P00000002130599 00000000865388260020222900000470009204B02     201210112012081500000000054830000127292000000000132804000000000000000000000000005512050000000000  3020121106   01          2  RUA JUNO  533                                                                    3                         000000000000000                                     N                     00598  0000000        000036
12006000195000156M B A MERCANTIL BRASILEIRA DE                                         0000000023700118P00000002130599 00000000865388290020222900000500009205B02     201210122012081500000000054840000348964000000000363514000000000000000000000000014550050000000000  3020121106   01          2  RUA JUNO  533                                                                    3                         000000000000000                                     N                     00598  0000000        000037
12006000195000156M B A MERCANTIL BRASILEIRA DE                                         0000000023700118P00000002130599 00000000865388320020222900000530009206B02     201210132012081500000000054850000527560000000000548656000000000000000000000000021096050000000000  3020121106   01          2  RUA JUNO  533                                                                    3                         000000000000000                                     N                     00598  0000000        000038
12007289649000113CRC LASER SUPR INF LTDA EPP                                           000000003410000000000000000000000000000089518989000000798566603000001157      201211022012100400000000055050000029940000000000030775000000000000000000000000000835050000000000  3020121106   01          2                                                                                   3157985666037000265431700019                                                  N                     01321  0000000        000039
12007565346000186ALFLEX PLASTICOS E FERRAGENS L                                        0000000023701416800000000407607 0000000088769811009013226800205S000000195     201210152012092400000000054870000187500000000000195625000000000000000000000000008750050000000000  3020121022   06          3  RUA TAMAINDE  1410                                                               3                         000000000000000                                     N                     00598  0000000        000040
12008594182000188ACOS G3 COMERCIO E BENEFICIAME                                        0000000023703137200000000091332 00000000912467990090227100000251155        001201210252012092700000000054970000152346000000000156214000000000000000000000000003868050000000000  3020121106   01          2  RUA GANGES  528                                                                  3                         000000000000000                                     N                     00598  0000000        000041
12008594182000188ACOS G3 COMERCIO E BENEFICIAME                                        0000000000100000000000000000000000000000913584940000009116690001278 03        201301222012110100000000055860000211796000000000211796000000000000000000000000000000050000000000  3020130122   01FS        1                                                                                   3000000213008444199116691149                                                  N                     01321  0000000        000042
12008594182000188ACOS G3 COMERCIO E BENEFICIAME                                        0000000000100000000000000000000000000000913584950000009116670001278 01        201211272012110100000000055300000211796000000000211796000000000000000000000000000000050000000000  3020121127   01FS        1                                                                                   3000000213008444199116671169                                                  N                     01321  0000000        000043
12008594182000188ACOS G3 COMERCIO E BENEFICIAME                                        0000000000100000000000000000000000000000913584960000009116680001278 02        201212252012110100000000055580000211796000000000211796000000000000000000000000000000050000000000  3020121226   01FS        1                                                                                   3000000213008444199116681159                                                  N                     01321  0000000        000044
12009338857000190FERNANDO  NAGAO  CARDONE  ALVA                                        000000000330000000000000000000000000000089697936000000800000000ALTA 10 2012   201210202012092500000000054920000134632000000000142846000000000000000000000000008214050000000000  3020121106   01          2                                                                                   3947901700000051050080010129                                                  N                     01321  0000000        000045
12011202309000180FIEL TOOLS DISTRIBUIDORA DE MA                                        0000000023702087700000000000116 0000000089133534009000020196861009686 1       201210262012092800000000054980000041000000000000041000000000000000000000000000000000050000000000  3020121026   05          3  R TAMAINDE  1 410   RUA GANGES  520 E 52                                         3                         000000000000000                                     N                     00598  0000000        000046
12011202309000180FIEL TOOLS DISTRIBUIDORA DE MA                                        0000000023702087700000000000116 0000000089962492009000020194031009403 1       201210042012090600000000054760000041000000000000043829000000000000000000000000002952050000000000  3020121022   06          3  R TAMAINDE  1 410   RUA GANGES  520 E 52                                         3                         000000000000000                                     N                     00598  0000000        000047
12011202309000180FIEL TOOLS DISTRIBUIDORA DE MA                                        0000000023702087700000000000116 0000000091358510009000020196861009686 1       201210262012092800000000054980000041000000000000042845000000000000000000000000001845050000000000  3020121106   01FS        1  R TAMAINDE  1 410   RUA GANGES  520 E 52                                         3                         000000000000000                                     N                     00598  0000000        000048
12012006058000121WEG TINTAS LTDA                                                       0000000023702727800000000001309 00000000868126340090223500001170016086601     201210052012082100000000054770000306569000000000319625000000000000000000000000013056050000000000  3020121106   01          2  R JUNO  533                                                                      3                         000000000000000                                     N                     00598  0000000        000049
12012006058000121WEG TINTAS LTDA                                                       0000000023702727800000000001309 00000000868126350090223500001180016086602     201210202012082100000000054920000306569000000000313505000000000000000000000000006936050000000000  3020121106   01          2  R JUNO  533                                                                      3                         000000000000000                                     N                     00598  0000000        000050
12012006058000121WEG TINTAS LTDA                                                       0000000023702727800000000001309 00000000868126360090223500001190016086603     201211042012082100000000055070000306662000000000307478000000000000000000000000000816050000000000  3020121106   01          2  R JUNO  533                                                                      3                         000000000000000                                     N                     00598  0000000        000051
12012006058000121WEG TINTAS LTDA                                                       0000000023702727800000000001309 00000000878206040090225400000780016517201     201210212012090600000000054930000459854000000000469662000000000000000000000000009808050000000000  3020121106   01          2  R JUNO  533                                                                      3                         000000000000000                                     N                     00598  0000000        000052
12012006058000121WEG TINTAS LTDA                                                       0000000023702727800000000001309 00000000878206050090225400000790016517202     201211052012090600000000055080000459854000000000460467000000000000000000000000000613050000000000  3020121106   01          2  R JUNO  533                                                                      3                         000000000000000                                     N                     00598  0000000        000053
12012006058000121WEG TINTAS LTDA                                                       0000000023702727800000000001309 00000000882668410090225800000740016626901     201210282012091300000000055000000459854000000000465371000000000000000000000000005517050000000000  3020121106   01          2  R JUNO  533                                                                      3                         000000000000000                                     N                     00598  0000000        000054
12012006058000121WEG TINTAS LTDA                                                       0000000023702727800000000001309 00000000854049560090221200001020015513003     201210102012072700000000054820000459992000000000476543000000000000000000000000016551050000000000  3020121106   01          2  R JUNO  533                                                                      3                         000000000000000                                     N                     00598  0000000        000055
12012006058000121WEG TINTAS LTDA                                                       0000000023702727800000000001309 00000000856071270090221400000840015587303     201210142012073100000000054860000459992000000000474091000000000000000000000000014099050000000000  3020121106   01          2  R JUNO  533                                                                      3                         000000000000000                                     N                     00598  0000000        000056
12012006058000121WEG TINTAS LTDA                                                       0000000023702727800000000001309 00000000861207270090222200000910015775002     201210072012080800000000054790000306569000000000318809000000000000000000000000012240050000000000  3020121106   01          2  R JUNO  533                                                                      3                         000000000000000                                     N                     00598  0000000        000057
12012006058000121WEG TINTAS LTDA                                                       0000000023702727800000000001309 00000000861207280090222200000920015775003     201210222012080800000000054940000306662000000000312782000000000000000000000000006120050000000000  3020121106   01          2  R JUNO  533                                                                      3                         000000000000000                                     N                     00598  0000000        000058
12012006058000121WEG TINTAS LTDA                                                       0000000023702727800000000001309 00000000864554450090222800000740015908402     201210132012081400000000054850000306569000000000316361000000000000000000000000009792050000000000  3020121106   01          2  R JUNO  533                                                                      3                         000000000000000                                     N                     00598  0000000        000059
12012006058000121WEG TINTAS LTDA                                                       0000000023702727800000000001309 00000000864554460090222800000750015908403     201210282012081400000000055000000306662000000000310334000000000000000000000000003672050000000000  3020121106   01          2  R JUNO  533                                                                      3                         000000000000000                                     N                     00598  0000000        000060
12012006058000121WEG TINTAS LTDA                                                       0000000023702727800000000001309 00000000870177480090224100000970016248001     201210112012082700000000054830000306569000000000317177000000000000000000000000010608050000000000  3020121106   01          2  R JUNO  533                                                                      3                         000000000000000                                     N                     00598  0000000        000061
12012006058000121WEG TINTAS LTDA                                                       0000000023702727800000000001309 00000000870177490090224100000980016248002     201210262012082700000000054980000306569000000000311057000000000000000000000000004488050000000000  3020121106   01          2  R JUNO  533                                                                      3                         000000000000000                                     N                     00598  0000000        000062
12012006058000121WEG TINTAS LTDA                                                       0000000023702727800000000001309 00000000872318650090224700001030016359601     201210152012083100000000054870000459854000000000473340000000000000000000000000013486050000000000  3020121106   01          2  R JUNO  533                                                                      3                         000000000000000                                     N                     00598  0000000        000063
12012006058000121WEG TINTAS LTDA                                                       0000000023702727800000000001309 00000000872318660090224700001040016359602     201210302012083100000000055020000459854000000000464145000000000000000000000000004291050000000000  3020121106   01          2  R JUNO  533                                                                      3                         000000000000000                                     N                     00598  0000000        000064
12012006058000121WEG TINTAS LTDA                                                       0000000023702727800000000001309 00000000841061130090218800000850014990203     201209182012070500000000054600000306662000000000318494000000000000000000000000012240050000000000  3020121017   06          3  R JUNO  533                                                                      3                         000000000000000                                     N                     00598  0000000        000065
12012006058000121WEG TINTAS LTDA                                                       0000000023702727800000000001309 00000000842436840090219200000860015068803     201209222012070900000000054640000306662000000000318902000000000000000000000000012648050000000000  3020121022   06          3  R JUNO  533                                                                      3                         000000000000000                                     N                     00598  0000000        000066
12012006058000121WEG TINTAS LTDA                                                       0000000023702727800000000001309 00000000849855330090220500001210015343102     201209182012072000000000054600000306569000000000318401000000000000000000000000012240050000000000  3020121017   06          3  R JUNO  533                                                                      3                         000000000000000                                     N                     00598  0000000        000067
12012006058000121WEG TINTAS LTDA                                                       0000000023702727800000000001309 00000000861207260090222200000900015775001     201209222012080800000000054640000306569000000000318809000000000000000000000000012648050000000000  3020121022   06          3  R JUNO  533                                                                      3                         000000000000000                                     N                     00598  0000000        000068
12014775592000128HELIO ADRIANO DA SILVA ME                                             0000000003300000000000000000000000000000901454930000007700000008883           201210302012101000000000055020000011000000000000011271000000000000000000000000000271050000000000  3020121106   01          2                                                                                   3956114740000000000077010199                                                  N                     01321  0000000        000069
12014775592000128HELIO ADRIANO DA SILVA ME                                             0000000023700593200000002432943 00000000913585090090231000000078928           201211142012102500000000055170000018000000000000018000000000000000000000000000000000050000000000  3020121114   01FS        1  AV TAMAINDE 1410                                                                 3                         000000000000000                                     N                     00598  0000000        000070
12016802308000190TRANSMARRECO LTDA                                                     000000000330000000000000000000000000000088769814000000640000000353 12         201210052012092100000000054770000106581000000000118953000000000000000000000000012372050000000000  3020121106   01          2                                                                                   3907636240000000643564010119                                                  N                     01321  0000000        000071
12033325184001786ALSCO TOALHEIRO BRASIL                                                0000000023703396000000001490850 0000000089697954009000029120903VM00291209     201211052012100100000000055080000026347000000000026373000000000000000000000000000026050000000000  3020121106   01          2  RUA  GANGES 528                                                                  3                         000000000000000                                     N                     00598  0000000        000072
12035820448000136WHITE MARTINS GASES INDUSTRIAI                                        0000000023700026400000003937925 0000000088524829009022630001577381808 001     201210162012091900000000054880000121725000000000125020000000000000000000000000003295050000000000  3020121106   01          2  RUA GANGES  528                                                                  3                         000000000000000                                     N                     00598  0000000        000073
12035820448000136WHITE MARTINS GASES INDUSTRIAI                                        0000000023700026400000003937925 0000000088686659009022650001000382942 001     201210182012092100000000054900000121725000000000124938000000000000000000000000003213050000000000  3020121106   01          2  RUA GANGES  528                                                                  3                         000000000000000                                     N                     00598  0000000        000074
12035820448000136WHITE MARTINS GASES INDUSTRIAI                                        0000000023700026400000003937925 0000000088957851009022700001298384214 001     201210232012092600000000054950000121725000000000124733000000000000000000000000003008050000000000  3020121106   01          2  RUA GANGES  528                                                                  3                         000000000000000                                     N                     00598  0000000        000075
12042956441000101SOLUCOES ACO USIMINAS                                                 0000000034100000000000000000000000000000855028690000002254329380017212902     201209212012072600000000054630000140098000000000152978000000000000000000000000012880050000000000  3020121106   01          2                                                                                   3112254329389293807258000019                                                  N                     01321  0000000        000076
12042956441000101SOLUCOES ACO USIMINAS                                                 0000000034100000000000000000000000000000855028700000002254329390017213002     201209212012072600000000054630000140602000000000153528000000000000000000000000012926050000000000  3020121106   01          2                                                                                   3112254329397293807258000089                                                  N                     01321  0000000        000077
12042956441000101SOLUCOES ACO USIMINAS                                                 0000000034100000000000000000000000000000855028770000002254329400017220502     201209212012072700000000054630000981022000000001071274000000000000000000000000090252050000000000  3020121106   01          2                                                                                   3112254329405293807258000099                                                  N                     01321  0000000        000078
12042956441000101SOLUCOES ACO USIMINAS                                                 0000000034100000000000000000000000000000856906410000002262886280017266201     201208282012073000000000054390000119472000000000136202000000000000000000000000016730050000000000  3020121106   01          2                                                                                   3112262886289293807258000089                                                  N                     01321  0000000        000079
12042956441000101SOLUCOES ACO USIMINAS                                                 0000000034100000000000000000000000000000846595700000002210880280016980502     201209102012071200000000054520000156071000000000173855000000000000000000000000017784050000000000  3020121106   01          2                                                                                   3112210880285293807258000039                                                  N                     01321  0000000        000080
12042956441000101SOLUCOES ACO USIMINAS                                                 0000000034100000000000000000000000000000856906420000002262886290017266301     201208282012073000000000054390000145069000000000165369000000000000000000000000020300050000000000  3020121106   01          2                                                                                   3112262886297293807258000099                                                  N                     01321  0000000        000081
12042956441000101SOLUCOES ACO USIMINAS                                                 0000000034100000000000000000000000000000859590620000002274469790017353702     201209282012080300000000054700000081053000000000087371000000000000000000000000006318050000000000  3020121106   01          2                                                                                   3112274469793293807258000069                                                  N                     01321  0000000        000082
12042956441000101SOLUCOES ACO USIMINAS                                                 0000000034100000000000000000000000000000846595710000002210880290016980602     201209102012071200000000054520000426094000000000474658000000000000000000000000048564050000000000  3020121106   01          2                                                                                   3112210880293293807258000019                                                  N                     01321  0000000        000083
12042956441000101SOLUCOES ACO USIMINAS                                                 0000000034100000000000000000000000000000847452070000002216130350005922202     201209102012071600000000054520000172071000000000191679000000000000000000000000019608050000000000  3020121106   01          2                                                                                   3112216130354293807258000049                                                  N                     01321  0000000        000084
12042956441000101SOLUCOES ACO USIMINAS                                                 0000000034100000000000000000000000000000847452100000002216130340017012402     201209102012071500000000054520000147428000000000164243000000000000000000000000016815050000000000  3020121106   01          2                                                                                   3112216130347293807258000059                                                  N                     01321  0000000        000085
12042956441000101SOLUCOES ACO USIMINAS                                                 0000000034100000000000000000000000000000848180700000002220192900017041002     201209112012071700000000054530000155433000000000172849000000000000000000000000017416050000000000  3020121106   01          2                                                                                   3112220192903293807258000029                                                  N                     01321  0000000        000086
12042956441000101SOLUCOES ACO USIMINAS                                                 0000000034100000000000000000000000000000848180710000002220192910017041202     201209112012071700000000054530000205421000000000228437000000000000000000000000023016050000000000  3020121106   01          2                                                                                   3112220192911293807258000019                                                  N                     01321  0000000        000087
12042956441000101SOLUCOES ACO USIMINAS                                                 0000000034100000000000000000000000000000850740460000002233586800017127201     201208202012072000000000054310000137881000000000159409000000000000000000000000021528050000000000  3020121106   01          2                                                                                   3112233586802293807258000019                                                  N                     01321  0000000        000088
12042956441000101SOLUCOES ACO USIMINAS                                                 0000000034100000000000000000000000000000850740470000002233586810017101002     201209142012071900000000054560000732575000000000810220000000000000000000000000077645050000000000  3020121106   01          2                                                                                   3112233586810293807258000019                                                  N                     01321  0000000        000089
12042956441000101SOLUCOES ACO USIMINAS                                                 0000000034100000000000000000000000000000850740480000002233586820017101202     201209142012071900000000054560000144634000000000159951000000000000000000000000015317050000000000  3020121106   01          2                                                                                   3112233586828293807258000029                                                  N                     01321  0000000        000090
12042956441000101SOLUCOES ACO USIMINAS                                                 0000000034100000000000000000000000000000853154840000002246247030017196702     201209202012072500000000054620000234841000000000256931000000000000000000000000022090050000000000  3020121106   01          2                                                                                   3112246247038293807258000099                                                  N                     01321  0000000        000091
12042956441000101SOLUCOES ACO USIMINAS                                                 0000000034100000000000000000000000000000853154850000002246247040017197302     201209202012072500000000054620000970103000000001061283000000000000000000000000091180050000000000  3020121106   01          2                                                                                   3112246247046293807258000019                                                  N                     01321  0000000        000092
12045635984000115CRIFER LAMINADOS DE ACO E FERR                                        0000000000100000000000000000000000000000898741120000000041640000035395E01     201211052012100900000000055080000802816000000000804422000000000000000000000000001606050000000000  3020121106   01          2                                                                                   3000000147532500000041641779                                                  N                     01321  0000000        000093
12047190731000100DE CASTRO LOUR ENG IND LTDA                                           00000000341000000000000000000000000000008782052700000023399956203026648 0     201209202012082300000000054620000976053000000001066293000000000000000000000000090240050000000000  3020121106   01          2                                                                                   3112339995626036884500400029                                                  N                     01321  0000000        000094
12047190731000100DE CASTRO LOUR ENG IND LTDA                                           00000000341000000000000000000000000000008782051600000023399954103026614 0     201209182012082100000000054600001047621000000001148561000000000000000000000000100940050000000000  3020121106   01          2                                                                                   3112339995410036884500400039                                                  N                     01321  0000000        000095
12047190731000100DE CASTRO LOUR ENG IND LTDA                                           00000000341000000000000000000000000000008782052000000023399955303026632 0     201209192012082200000000054610000952073000000001041929000000000000000000000000089856050000000000  3020121106   01          2                                                                                   3112339995535036884500400019                                                  N                     01321  0000000        000096
12047190731000100DE CASTRO LOUREIRO ENGENHARIA                                         00000000033000000000000000000000000000008801228000000063000000003026838 0     201211052012091000000000055080000940006000000000958806000000000000000000000000018800050000000000  3020121106   01          2                                                                                   3948430370000009553363020339                                                  N                     01321  0000000        000097
12047190731000100DE CASTRO LOUR ENG IND LTDA                                           00000000341000000000000000000000000000008782050900000023399953503026612 0     201209182012082100000000054600001111489000000001218603000000000000000000000000107114050000000000  3020121106   01          2                                                                                   3112339995352036884500400019                                                  N                     01321  0000000        000098
12047190731000100DE CASTRO LOUR ENG IND LTDA                                           00000000341000000000000000000000000000008782051200000023399953803026613 0     201209182012082100000000054600001107989000000001214760000000000000000000000000106771050000000000  3020121106   01          2                                                                                   3112339995386036884500400039                                                  N                     01321  0000000        000099
12047190731000100DE CASTRO LOUR ENG IND LTDA                                           00000000341000000000000000000000000000008782052100000023399955903026643 0     201209202012082300000000054620000867039000000000947174000000000000000000000000080135050000000000  3020121106   01          2                                                                                   3112339995592036884500400049                                                  N                     01321  0000000        000100
12047190731000100DE CASTRO LOUR ENG IND LTDA                                           00000000341000000000000000000000000000008782052500000023399955603026636 0     201209192012082200000000054610000940804000000001029604000000000000000000000000088800050000000000  3020121106   01          2                                                                                   3112339995568036884500400049                                                  N                     01321  0000000        000101
12048775225000146SEIKI IND COM E CONFECCOES LTD                                        000000003410000000000000000000000000000089337376000000244697151014914001      201210232012092500000000054950000052000000000000053092000000000000000000000000001092050000000000  3020121106   01          2                                                                                   3112446971510017444824100089                                                  N                     01321  0000000        000102
12049341563000132JAC COMERCIO DE MAT ELET LTDA                                         000000003410000000000000000000000000000089697943000000246543949000023447A     201211012012100400000000055040000014736000000000014856000000000000000000000000000120050000000000  3020121106   01          2                                                                                   3112465439498018060969500069                                                  N                     01321  0000000        000103
12049341563000132JAC COMERCIO DE MATERIAIS ELET                                        0000000023700293300000001478699 00000000892292570020132275064592321702        201211052012100100000000055080000046351000000000046428000000000000000000000000000077050000000000  3020121106   01          2  R GANGES 528                                                                     3                         000000000000000                                     N                     00598  0000000        000104
12049341563000132JAC COMERCIO DE MATERIAIS ELET                                        0000000023700293300000001478699 00000000893373790020132276064762330402        201211052012100200000000055080000015523000000000015549000000000000000000000000000026050000000000  3020121106   01          2  R GANGES 528                                                                     3                         000000000000000                                     N                     00598  0000000        000105
12051180370000199IGUAFER FERRO E ACO LTDA                                              0000000034100000000000000000000000000000852309100000002239389789443 B         201209022012071800000000054440000168275000000000186475000000000000000000000000018200050000000000  3020121106   01          2                                                                                   3112239389789077149484600089                                                  N                     01321  0000000        000106
12051180370000199IGUAFER FERRO E ACO LTDA                                              0000000034100000000000000000000000000000852309110000002239389799443 C         201209122012071800000000054540000168275000000000183675000000000000000000000000015400050000000000  3020121106   01          2                                                                                   3112239389797077149484600089                                                  N                     01321  0000000        000107
12053585766000141MULTIACOS I C PRODS TEC LTDA                                          0000000042200000000000000000000000000000887697930000000000000000004704501     201210302012092000000000055020000224054000000000226664000000000000000000000000002610050000000000  3020121106   01          2                                                                                   3711500005033164923629572179                                                  N                     01321  0000000        000108
12053585766000141MULTIACOS I C PRODS TEC LTDA                                          0000000042200000000000000000000000000000895189600000000000000000004699201     201211012012100200000000055040000534986000000000539445000000000000000000000000004459050000000000  3020121106   01          2                                                                                   3711500005033164927762056149                                                  N                     01321  0000000        000109
12053585766000141MULTIACOS I C PRODS TEC LTDA                                          0000000042200000000000000000000000000000895189650000000000000000004699301     201210312012100200000000055030000889444000000000898335000000000000000000000000008891050000000000  3020121106   01          2                                                                                   3711500005033164927762081139                                                  N                     01321  0000000        000110
12053585766000141MULTIACOS I C PRODS TEC LTDA                                          0000000042200000000000000000000000000000890456950000000000000000004650302     201210312012092500000000055030000228607000000000230892000000000000000000000000002285050000000000  3020121106   01          2                                                                                   3711500005033164925775207159                                                  N                     01321  0000000        000111
12053585766000141MULTIACOS I C PRODS TEC LTDA                                          0000000042200000000000000000000000000000895189730000000000000000004642302     201210302012100200000000055020000192957000000000195210000000000000000000000000002253050000000000  3020121106   01          2                                                                                   3711500005033164927762153179                                                  N                     01321  0000000        000112
12053585766000141MULTIACOS I C PRODS TEC LTDA                                          0000000042200000000000000000000000000000895189760000000000000000004642102     201210302012100200000000055020000244317000000000247165000000000000000000000000002848050000000000  3020121106   01          2                                                                                   3711500005033164927762170139                                                  N                     01321  0000000        000113
12053585766000141MULTIACOS I C PRODS TEC LTDA                                          0000000042200000000000000000000000000000890456970000000000000000004724301     201211022012092500000000055050000276404000000000278247000000000000000000000000001843050000000000  3020121106   01          2                                                                                   3711500005033164925775151159                                                  N                     01321  0000000        000114
12053585766000141MULTIACOS I C PRODS TEC LTDA                                          0000000042200000000000000000000000000000890456990000000000000000004724401     201211022012092500000000055050000538498000000000542085000000000000000000000000003587050000000000  3020121106   01          2                                                                                   3711500005033164925775185129                                                  N                     01321  0000000        000115
12053585766000141MULTIACOS I C PRODS TEC LTDA                                          0000000042200000000000000000000000000000890457030000000000000000004604503     201211052012092500000000055080000910103000000000911619000000000000000000000000001516050000000000  3020121106   01          2                                                                                   3711500005033164925775258149                                                  N                     01321  0000000        000116
12053585766000141MULTIACOS I C PRODS TEC LTDA                                          0000000042200000000000000000000000000000890457050000000000000000004650402     201210312012092500000000055030000192957000000000194888000000000000000000000000001931050000000000  3020121106   01          2                                                                                   3711500005033164925775223129                                                  N                     01321  0000000        000117
12053585766000141MULTIACOS I C PRODS TEC LTDA                                          0000000042200000000000000000000000000000895189360000000000000000004594903     201211022012100200000000055050000141441000000000142384000000000000000000000000000943050000000000  3020121106   01          2                                                                                   3711500005033164927761831119                                                  N                     01321  0000000        000118
12053585766000141MULTIACOS I C PRODS TEC LTDA                                          0000000042200000000000000000000000000000895189390000000000000000004595003     201211022012100200000000055050000695717000000000700356000000000000000000000000004639050000000000  3020121106   01          2                                                                                   3711500005033164927761858149                                                  N                     01321  0000000        000119
12053585766000141MULTIACOS I C PRODS TEC LTDA                                          0000000042200000000000000000000000000000895189410000000000000000004704301     201210302012100200000000055020000994772000000001006377000000000000000000000000011605050000000000  3020121106   01          2                                                                                   3711500005033164927761823189                                                  N                     01321  0000000        000120
12053585766000141MULTIACOS I C PRODS TEC LTDA                                          0000000042200000000000000000000000000000895189420000000000000000004595103     201211022012100200000000055050000354761000000000357124000000000000000000000000002363050000000000  3020121106   01          2                                                                                   3711500005033164927761874199                                                  N                     01321  0000000        000121
12053585766000141MULTIACOS I C PRODS TEC LTDA                                          0000000042200000000000000000000000000000895189450000000000000000004570003     201210302012100200000000055020000999583000000001011244000000000000000000000000011661050000000000  3020121106   01          2                                                                                   3711500005033164927761912159                                                  N                     01321  0000000        000122
12053585766000141MULTIACOS I C PRODS TEC LTDA                                          0000000042200000000000000000000000000000895189460000000000000000004604403     201211052012100200000000055080000189937000000000190253000000000000000000000000000316050000000000  3020121106   01          2                                                                                   3711500005033164927761891119                                                  N                     01321  0000000        000123
12053585766000141MULTIACOS I C PRODS TEC LTDA                                          0000000042200000000000000000000000000000895189500000000000000000004585403     201211012012100200000000055040001047733000000001056462000000000000000000000000008729050000000000  3020121106   01          2                                                                                   3711500005033164927761947119                                                  N                     01321  0000000        000124
12053585766000141MULTIACOS I C PRODS TEC LTDA                                          0000000042200000000000000000000000000000883508190000000000000000004584603     201211012012091300000000055040000339224000000000342048000000000000000000000000002824050000000000  3020121106   01          2                                                                                   3711500005033164921116535119                                                  N                     01321  0000000        000125
12053585766000141MULTIACOS I C PRODS TEC LTDA                                          0000000042200000000000000000000000000000883508260000000000000000004585103     201211012012091300000000055040000222786000000000224640000000000000000000000000001854050000000000  3020121106   01          2                                                                                   3711500005033164921116578119                                                  N                     01321  0000000        000126
12053585766000141MULTIACOS I C PRODS TEC LTDA                                          0000000042200000000000000000000000000000883508300000000000000000004584803     201211012012091300000000055040000379244000000000382403000000000000000000000000003159050000000000  3020121106   01          2                                                                                   3711500005033164921116551119                                                  N                     01321  0000000        000127
12053585766000141MULTIACOS IND E CO                                                    0000000034100000000000000000000000000000885998970000002407458080004532103     201210222012081300000000054940000883908000000000894219000000000000000000000000011784050000000000  3020121029   05          3                                                                                   3112407458085293803748400049                                                  N                     01321  0000000        000128
12053585766000141MULTIACOS COM DE PRODUTOS TECN                                        0000000023703398700000000011290 00000000888733030020226900000230004500803     201210162012080700000000054880000173389000000000174256000000000000000000000000001156050000000000  3020121019   06          3  RUA JUNO  533                                                                    3                         000000000000000                                     N                     00598  0000000        000129
12053585766000141MULTIACOS COM DE PRODUTOS TECN                                        0000000023703398700000000011290 00000000888733040020226900000240004500903     201210162012080700000000054880000962577000000000967389000000000000000000000000006416050000000000  3020121019   06          3  RUA JUNO  533                                                                    3                         000000000000000                                     N                     00598  0000000        000130
12053585766000141MULTIACOS COM DE PRODUTOS TECN                                        0000000023703398700000000011290 00000000888733050020226900000250004501003     201210162012080700000000054880000902868000000000907383000000000000000000000000006020050000000000  3020121019   06          3  RUA JUNO  533                                                                    3                         000000000000000                                     N                     00598  0000000        000131
12053585766000141MULTIACOS COM DE PRODUTOS TECN                                        0000000023703398700000000011290 00000000888733080020226900000490004570002     201210162012082100000000054880000999583000000001004581000000000000000000000000006664050000000000  3020121019   06          3  RUA JUNO  533                                                                    3                         000000000000000                                     N                     00598  0000000        000132
12053585766000141MULTIACOS COM DE PRODUTOS TECN                                        0000000023703398700000000011290 00000000888733090020226900000680004642301     201210162012090400000000054880000198805000000000199798000000000000000000000000001324050000000000  3020121019   06          3  RUA JUNO  533                                                                    3                         000000000000000                                     N                     00598  0000000        000133
12053585766000141MULTIACOS COM DE PRODUTOS TECN                                        0000000023703398700000000011290 00000000888733110020226900000710004650301     201210172012090500000000054890000235534000000000237499000000000000000000000000002358050000000000  3020121022   06          3  RUA JUNO  533                                                                    3                         000000000000000                                     N                     00598  0000000        000134
12053585766000141MULTIACOS COM DE PRODUTOS TECN                                        0000000023703398700000000011290 00000000888733100020226900000690004642101     201210162012090400000000054880000251722000000000260542000000000000000000000000008820050000000000  3020121106   01          2  RUA JUNO  533                                                                    3                         000000000000000                                     N                     00598  0000000        000135
12054382510000108SETENTA IND E COM DE MADEIRAS                                         0000000034100000000000000000000000000000860403430000002277814474462 A         201209042012080700000000054460000191200000000000214888000000000000000000000000023688050000000000  3020121106   01          2                                                                                   3112277814474057049175300069                                                  N                     01321  0000000        000136
12056993512000150CYKLOP DO BRASIL EMBALAGENS SA                                        0000000034100000000000000000000000000000874070500000002362586810134932        201210012012090300000000054730000083607000000000094659000000000000000000000000011052050000000000  3020121106   01          2                                                                                   3112362586813025700015800019                                                  N                     01321  0000000        000137
12056993900000131CIA METALURGICA PRADA                                                 0000000034100000000000000000000000000000848180620000002218222670025829902     201209112012071700000000054530000498118000000000544598000000000000000000000000046480050000000000  3020121106   01          2                                                                                   3112218222670293800573900029                                                  N                     01321  0000000        000138
12056993900000131CIA METALURGICA PRADA                                                 0000000034100000000000000000000000000000848180630000002218222680025830002     201209112012071700000000054530000247673000000000270801000000000000000000000000023128050000000000  3020121106   01          2                                                                                   3112218222688293800573900059                                                  N                     01321  0000000        000139
12056993900000131CIA METALURGICA PRADA                                                 0000000034100000000000000000000000000000848180640000002218222690025830102     201209112012071700000000054530000207402000000000226778000000000000000000000000019376050000000000  3020121106   01          2                                                                                   3112218222696293800573900039                                                  N                     01321  0000000        000140
12056993900000131CIA METALURGICA PRADA                                                 0000000034100000000000000000000000000000855028630000002254750290026244303     201210222012072800000000054940000100683000000000103203000000000000000000000000002520050000000000  3020121106   01          2                                                                                   3112254750295293800573900049                                                  N                     01321  0000000        000141
12056993900000131CIA METALURGICA PRADA                                                 0000000034100000000000000000000000000000855028640000002254750300026244403     201210222012072800000000054940000084116000000000086216000000000000000000000000002100050000000000  3020121106   01          2                                                                                   3112254750303293800573900099                                                  N                     01321  0000000        000142
12056993900000131CIA METALURGICA PRADA                                                 0000000034100000000000000000000000000000824820100000002102181160024711603     201208292012060600000000054400000833146000000000917875000000000000000000000000086118050000000000  3020121029   05          3                                                                                   3112102181164293800573900039                                                  N                     01321  0000000        000143
12056993900000131CIA METALURGICA PRADA                                                 0000000034100000000000000000000000000000840312930000002179478290025419302     201208282012070300000000054390000402178000000000443718000000000000000000000000042210050000000000  3020121029   05          3                                                                                   3112179478295293800573900089                                                  N                     01321  0000000        000144
12056993900000131CIA METALURGICA PRADA                                                 0000000034100000000000000000000000000000840312940000002179478300025419402     201208282012070300000000054390000322804000000000356160000000000000000000000000033894050000000000  3020121029   05          3                                                                                   3112179478303293800573900079                                                  N                     01321  0000000        000145
12057764763000207DEGRAUS ANDAIMES MAQUINAS EQUI                                        000000000330000000000000000000000000000091358511000000600000000000000F979785 A201211262012110500000000055290000095000000000000095000000000000000000000000000000000050000000000  3020121126   01FS        1                                                                                   3954093060000000005460010449                                                  N                     01321  0000000        000146
12058805466000144PEFIL COMERCIAL LTDA                                                  0000000023700086800000000014001 000000009024499300901322910317722988 01       201211052012101700000000055080000060000000000000060100000000000000000000000000000100050000000000  3020121106   01          2  R GANGES  528                                                                    3                         000000000000000                                     N                     00598  0000000        000147
12059659615000177DZ COMERCIO R E SERVICOS LTDA                                         000000003410000000000000000000000000000091358506000000900000320280            201211032012102400000000055060000060000000000000060000000000000000000000000000000000050000000000  3020121106   01FS        1                                                                                   3109000003209000314585100019                                                  N                     01321  0000000        000148
12059659615000177DZ COMERCIO R E SERVICOS LTDA                                         000000003410000000000000000000000000000091358507000000900000321280            201211172012102400000000055200000060000000000000060000000000000000000000000000000000050000000000  3020121119   01FS        1                                                                                   3109000003217000314585100039                                                  N                     01321  0000000        000149
12061186847000105PERFILADOS GRANADO LTDA                                               0000000003300000000000000000000000000000897881440000008000000005 312 A        201211012012100200000000055040000108560000000000109485000000000000000000000000000925050000000000  3020121106   01          2                                                                                   3917995920000003503380010469                                                  N                     01321  0000000        000150
12061217188000119TELAS METALICAS TELMETAL LTDA                                         0000000000100000000000000000000000000000896050380000000057780005743 1 1       201211022012100400000000055050000086601000000000087525000000000000000000000000000924050000000000  3020121106   01          2                                                                                   3000000115031800000057781779                                                  N                     01321  0000000        000151
12061600839000155CENTRO DE INT EMPRESA ESCOLA C                                        0000000023703391P00000000866202 00000000899624890090000036546447641C 0001     201210312012101000000000055030000016800000000000017130000000000000000000000000000330050000000000  3020121106   01          2  R GANGES  528                                                                    3                         000000000000000                                     N                     00598  0000000        000152
12061683652000162TRANS FACE TRANSPORTES LTDA                                           0000000023700530400000000141828 0000000091358502009000000110375I000085343     201211202012110500000000055230000081000000000000081000000000000000000000000000000000050000000000  3020121120   01FS        1  R JUNO 553                                                                       3                         000000000000000                                     N                     00598  0000000        000153
12062510367000102ITANHAEM TRANSP DE MAQUINAS LT                                        000000003410000000000000000000000000000087407049000000236463199667            201209202012090400000000054620000248220000000000294891000000000000000000000000046671050000000000  3020121106   01          2                                                                                   3112364631997005770252400049                                                  N                     01321  0000000        000154
12062539994000176LEALFER INDUSTRIA E COMERCIO D                                        0000000003300000000000000000000000000000893373900000003800000000005568401     201210242012092500000000054960000891184000000000898759000000000000000000000000009090050000000000  3020121029   05          3                                                                                   3915298380000000268038010429                                                  N                     01321  0000000        000155
12062539994000176LEALFER INDUSTRIA E COMERCIO D                                        0000000003300000000000000000000000000000893373910000004600000000005563001     201210242012092500000000054960000136948000000000138112000000000000000000000000001396050000000000  3020121029   05          3                                                                                   3915298380000000268046010469                                                  N                     01321  0000000        000156
12064952757000168WALMAC COM DE PROD QUIMICOS LT                                        0000000034100000000000000000000000000000860403440000002275821690020148        201210262012080300000000054980000219266000000000224007000000000000000000000000004741050000000000  3020121106   01          2                                                                                   3112275821695064807961400019                                                  N                     01321  0000000        000157
12064952757000168WALMAC COM DE PROD QUIMICOS LT                                        0000000034100000000000000000000000000000860403450000002275821700020148        201210052012080300000000054770000219267000000000233059000000000000000000000000013792050000000000  3020121106   01          2                                                                                   3112275821703064807961400029                                                  N                     01321  0000000        000158
12064952757000168WALMAC COM DE PROD QUIMICOS LT                                        0000000034100000000000000000000000000000896979500000002462157550021611        201211012012100400000000055040000219267000000000221422000000000000000000000000002155050000000000  3020121106   01          2                                                                                   3112462157556064807961400019                                                  N                     01321  0000000        000159
12066841552000130R V SEG PATRIMONIAL LTDA                                              00000000341000000000000000000000000000008852483200000090002192721927          201209102012081000000000054520000483241000000000492418000000000000000000000000009177050000000000  3020121106   01          2                                                                                   3109000219270001835253400099                                                  N                     01321  0000000        000160
12066841552000130R V SEG PATRIMONIAL S C LTDA                                          00000000341000000000000000000000000000008887329800000090002213622136          201210102012091100000000054820000374758000000000378133000000000000000000000000003375050000000000  3020121106   01          2                                                                                   3109000221365001838994000069                                                  N                     01321  0000000        000161
12067300160000127OSACO PRODUTOS SIDERURGICOS LT                                        0000000023702415500000000063002 0000000091141010009024151670093650 01 01      201211052012103100000000055080000077868000000000080593000000000000000000000000002725050000000000  3020121106   01          2  RUA JUNO  533                                                                    3                         000000000000000                                     N                     00598  0000000        000162
12067647412000199ANCORA CHUMBADORES LTDA                                               000000003410000000000000000000000000000088873286000000242214246062576 1       201211032012091900000000055060000175000000000000176032000000000000000000000000001032050000000000  3020121106   01          2                                                                                   3112422142466013626917200029                                                  N                     01321  0000000        000163
12068109784000124TARCOM TECN AR COMPRIMIDO LTDA                                        00000000341000000000000000000000000000009135850300000070271816900000262 A     201212022012110500000000055350000168345000000000168345000000000000000000000000000000050000000000  3020121203   01FS        1                                                                                   3157027181698846115840700019                                                  N                     01321  0000000        000164
12068109784000124TARCOM TECN AR COMPRIMIDO LTDA                                        00000000341000000000000000000000000000009135850400000070271858200000262 B     201212092012110500000000055420000168345000000000168345000000000000000000000000000000050000000000  3020121210   01FS        1                                                                                   3157027185822846115840700059                                                  N                     01321  0000000        000165
12069284248000128ISOCOAT TINTAS E VERNIZES LTDA                                        0000000034100000000000000000000000000000841061040000002182507930052085        201209172012070200000000054590000236130000000000267630000000000000000000000000031500050000000000  3020121106   01          2                                                                                   3112182507932077430121200019                                                  N                     01321  0000000        000166
12069309706000136F N A TRANSPORTES LTDA                                                000000003410000000000000000000000000000091358508000000900012193060709         201211152012103100000000055180000025323000000000025323000000000000000000000000000000050000000000  3020121116   01FS        1                                                                                   3109000121937005486932600019                                                  N                     01321  0000000        000167
12071580302000124SANCHEPEL IND PAULISTA EMB L                                          0000000034100000000000000000000000000000913584970000002544351508068           201211292012103100000000055320000180424000000000180424000000000000000000000000000000050000000000  3020121129   01FS        1                                                                                   3112544351508007855578600019                                                  N                     01321  0000000        000168
12075483040000130REX MAQUINAS E EQUIPAMENTOS LT                                        00000000001000000000000000000000000000008681263200000091237200079547 2 3      201211012012082100000000055040000049500000000000049915000000000000000000000000000415050000000000  3020121106   01          2                                                                                   3043999123723420001185301119                                                  N                     01321  0000000        000169
12081560047000101ACEVILLE TRANSPORTES LTDA                                             000000000330000000000000000000000000000090581007000000300000000277853         201211022012102200000000055050000085000000000000085907000000000000000000000000000907050000000000  3020121106   01          2                                                                                   3913555200000002778530010139                                                  N                     01321  0000000        000170
12096500087000135WORKBENCH CONSULTORIA S S LTDA                                        0000000034100000000000000000000000000000878205840000007940034283118           201209272012090300000000054690000131746000000000142106000000000000000000000000010360050000000000  3020121106   01          2                                                                                   3157940034289826313803700089                                                  N                     01321  0000000        000171
900017200000000060946912                                                                                                                                                                                                                                                                                                                                                                                                                                                                01321  0000000        000172
