0000147602043799295000110ALTAMIRA INDUSTRIA METALURGICA LT       202000000194620121107214126             3                                                                                                  000000000000000                                                                                                                                                                                                                                                                                   000001
12006000195000156MBA MERCANTIL BRASIL ACO LTDA                                         0000000034100648 00000000492510 I000000000010159000000000000000               201211070000000000000000000000000000000000000003055016000000000000000000000000000000050000000002  0820121107   02BW        5001500               000000000000000                                               3C0000000101                               02                                 N                     01076 10020256        000002
12014775592000128HELIO ADRIANO DA SILVA ME     R CARIUS 121 01112011                   0723003023700593200000002432943 I000000000010166000000000000000               201211070000000000000000000000000000000000000000011000000000000000000000000000000000050000001272  0120121107   02BW        5000000               000000000000000                                               3                                          01272                              N                     01321 10020256        000003
12007068566000102NIVEL EMPREGOS LTDA           AV CELSO GARCIA 3830                    0306400023700097300000003053792 I000000000010160000000000000000               201211070000000000000000000000000000000000000000400000000000000000000000000000000000010000002805  0120121107   02BW        5000000               000000000000000                                               3                                          NF.NRO.2805 - PARC.02.             N                     01321 10020256        000004
12043799295000110ALTAMIRA INDUSTRIA METAL LTDA                                         0000000003303809500000130004071 I000000000010158000000000000000               201211070000000000000000000000000000000000000004800000000000000000000000000000000000050000000001  0820121107   02BW        5001050               000000000000000                                               3D0000000101                               01                                 S                     01133 10020256        000005
12042956441000101SOLUCOES ACO USIMINAS                                                 0000000034100000000000000000000000000000847452080000002216130360017012403     201211072012071500000000055100000147427000000000147427000000000000000000000000000000050000000000  3020121107   02BW        2000000               000000000000000                                               3112216130362293807258000019               170124/03                          N                     01132 10020256        000006
12008263210000184BETA COM IMP EXP DE FERRAMENT                                         0000000034100000000000000000000000000000901454950000006154761652830A          201211072012101100000000055100000032025000000000032025000000000000000000000000000000050000000000  3020121107   02BW        2000000               000000000000000                                               3156154761650808304699800019               2830                               N                     01132 10020256        000007
12047190731000100DE CASTRO LOUREIRO ENGENHARIA                                         0000000003300000 0000000000000  I000000000010165000000000000000               201211070000000000000000055100000422495000000000422495000000000000000000000000000000010000026797  3120121107   02BW        5000000               000000000000000                                               3948430370000009553142010499               026797/01                          N                     01132 10020256        000008
12042956441000101SOLUCOES EM ACO USIMINAS S A                                          0000000034100000 0000000000000  I000000000010164000000000000000               201211070000000000000000055100000172074000000000172074000000000000000000000000000000010000059222  3120121107   02BW        5000000               000000000000000                                               3112216130370293807258000019               59222/03                           N                     01132 10020256        000009
12005852768000107DAOUD LEAL ELETRONICA LTDA ME                                         000000003410000000000000000000000000000089337382000000615297518OUTUBRO        201210262012100200000000054980000016558000000000017285000000000000000000000000001123050000000000  3020121107   02BW        2000000               000000000000000                                               3156152975181152944476000059               REF.10/2012.                       N                     01132 10020256        000010
12013656578000142GUARINOR TRANSP E LOGISTICA LT                                        0000000010400000 0000000000000  I000000000010162000000000000000               201211070000000000000000055100000028700000000000028700000000000000000000000000000000050000000018  3120121107   02BW        5000000               000000000000000                                               3900000135532958700000017339               1872/12                            N                     01132 10020256        000011
12047190731000100DE CASTRO LOUR ENG IND LTDA                                           00000000341000000000000000000000000000009041732800000025008464503027216 0     201211072012101000000000055100000225377000000000225377000000000000000000000000000000050000000000  3020121107   02BW        2000000               000000000000000                                               3112500846459036884500400049               027216/01                          N                     01132 10020256        000012
12001895314000162COLETA INDUSTRIAL FIMAVAN LTDA                                        0000000034100000 0000000000000  I000000000010163000000000000000               201211070000000000000000055100000147301000000000147301000000000000000000000000000000010000011403  3120121107   02BW        5000000               000000000000000                                               3181575942899144604097200089               11403                              N                     01132 10020256        000013
12001951865000104FOUR FACTORING FOMENTO M LTDA                                         0000000039900000 0000000000000  I000000000010161000000000000000               201211090000000000000000055120000120000000000000120000000000000000000000000000000000040001103318  3120121107   02BW        5000000               000000000000000                                               3176310655200198000598003119               1103318                            N                     01132 10020256        000014
12004934836000114GUAIRA MAT P CONSTRUCAO LTDA                                          0000000034100000 0000000000000  I000000000010167000000000000000               201211070000000000000000055100000109920000000000109920000000000000000000000000000000010000023901  3120121107   02BW        5000000               000000000000000                                               3181575970406076568242200019               23901                              N                     01132 10020256        000015
12049341563000132JAC COMERCIO DE MATERIAIS ELET                                        00000000001000000000000000000000000000009005227500000046831400023646A         201211072012101100000000055100000009065000000000009065000000000000000000000000000000050000000000  3020121107   02BW        2000000               000000000000000                                               3000000192560144144683141159               23646                              N                     01132 10020256        000016
900001700000000009697685                                                                                                                                                                                    000000000000000                                                                                                                                                                                                                                                    00001500606000001430942        000017
