0000147602043799295000110ALTAMIRA INDUSTRIA METALURGICA LT       202000000009920120807061200             1                                                                                                                                                                                                                                                                                                                                                                                                    000001
12000193273000108TECELAGEM ROMA LTDA                                                   0000000023700284400000000410977 000000008374605100900000001581116213   B      201208032012062900000000054140000124248000000000125740000000000000000000000000001492050000000000  3020120807   01          2  RUA TAMAINDE 1410  1410                                                          3                         000000000000000                                     N                     00598  0000000        000002
12001951865000104FOUR FACTORING FOMENTO M LTDA                                         000000004220000000000000000000000000000085861626000000000000000188 A          201208232012080200000000054340000145000000000000145000000000000000000000000000000000050000000000  3020120823   01FS        1                                                                                   3702000009214741499752368119                                                  N                     01321  0000000        000003
12001951865000104FOUR FACTORING FOMENTO M LTDA                                         000000004220000000000000000000000000000085861627000000000000000188 B          201208312012080200000000054420000145000000000000145000000000000000000000000000000000050000000000  3020120831   01FS        1                                                                                   3702000009214741499752376169                                                  N                     01321  0000000        000004
12001951865000104FOUR FACTORING FOMENTO M LTDA                                         000000004220000000000000000000000000000085861628000000000000000181 12         201208282012080200000000054390000300000000000000300000000000000000000000000000000000050000000000  3020120828   01FS        1                                                                                   3702000009214741499752384119                                                  N                     01321  0000000        000005
12002503185000182ANDAIMES E MAQUINAS BIG LTDA                                          0000000000100000000000000000000000000000858616310000000653760004990           201208232012080300000000054340000036040000000000036040000000000000000000000000000000050000000000  3020120823   01FS        1                                                                                   3000000187782308250653761759                                                  N                     01321  0000000        000006
12002917344000195PRENSAPECA INDUSTRIA E COMERCI                                        0000000000100000000000000000000000000000858616300000004340050006006           201208292012080300000000054400000072448000000000072448000000000000000000000000000000050000000000  3020120829   01FS        1                                                                                   3000000103919943954340051119                                                  N                     01321  0000000        000007
12005753978000148HUMAN SERVICOS PARA COMUNICACA                                        0000000003300000000000000000000000000000858616590000008900000000000098289     201208202012080200000000054310000013000000000000013000000000000000000000000000000000050000000000  3020120820   01FS        1                                                                                   3936028260000000098289010119                                                  N                     01321  0000000        000008
12006000195000156M B A MERCANTIL BRASILEIRA DE                                         0000000023700118P00000002128292 00000000858616580090219900000680008857B01     201208102012071300000000054210000827402000000000827402000000000000000000000000000000050000000000  3020120810   01FS        1  RUA JUNO  533                                                                    3                         000000000000000                                     N                     00598  0000000        000009
12006000195000156M B A MERCANTIL BRASILEIRA DE                                         0000000000100000000000000000000000000000834820170000002571490000008651B01     201207242012062600000000054040000426599000000000426599000000000000000000000000000000050000000000  3020120724   05          3                                                                                   3043852571493333000105251159                                                  N                     01321  0000000        000010
12009121184000112BBGE COBRANCA LTDA                                                    0000000023700368900000001026402 00000000839452800090218600000842581 CC        201208022012062100000000054130000154100000000000156670000000000000000000000000002570050000000000  3020120807   01          2  RUA GANGES  528                         MACKVEN MAQUINAS INDUSTRIAIS LTDA EPP    3                         005441222000163                                     N                     00598  0000000        000011
12012006058000121WEG TINTAS LTDA                                                       0000000023702727800000000001309 00000000833069140090217700001070014685601     201208062012062200000000054170000459854000000000460467000000000000000000000000000613050000000000  3020120807   01          2  R JUNO  533                                                                      3                         000000000000000                                     N                     00598  0000000        000012
12012256386000186TOP TRAD SERVICOS DE TEXTOS LT                                        0000000023700200300000001062603 00000000850740700090132194025562718           201207272012071200000000054070000025600000000000026860000000000000000000000000001260050000000000  3020120807   01          2  R TAMANDE 1410                                                                   3                         000000000000000                                     N                     00598  0000000        000013
12013656578000142GUARINOR TRANSP E LOGISTICA LT                                        000000001040000000000000000000000000000084745217000000000448600000477 12      201207312012071100000000054110000282500000000000282500000000000000000000000000000000050000000000  3020120731   06          3                                                                                   3900000044832958700000017329                                                  N                     01321  0000000        000014
12017469701000177ARCELORMITTAL BRASIL S A                                              0000000034100000000000000000000000000000835620800000009322028860012463202     201208012012062700000000054120000063787000000000063787000000000000000000000000000000050000000000  3020120801   06          3                                                                                   3109322028867293802529900029                                                  N                     01321  0000000        000015
12033325184001786ALSCO TOALHEIRO BRASIL                                                0000000023703396000000001490850 0000000084571471009000028416503VM00284165     201208052012070500000000054160000026347000000000026399000000000000000000000000000052050000000000  3020120807   01          2  RUA  GANGES 528                                                                  3                         000000000000000                                     N                     00598  0000000        000016
12035820448000136WHITE MARTINS GASES INDUSTRIAI                                        0000000023700026400000003937925 0000000084172562009021910000022348496 001     201208022012070700000000054130000040575000000000041656000000000000000000000000001081050000000000  3020120807   01          2  RUA GANGES  528                                                                  3                         000000000000000                                     N                     00598  0000000        000017
12035820448000136WHITE MARTINS GASES INDUSTRIAI                                        0000000023700026400000003937925 0000000084172563009021910000296348716 001     201208032012070700000000054140000056805000000000058245000000000000000000000000001440050000000000  3020120807   01          2  RUA GANGES  528                                                                  3                         000000000000000                                     N                     00598  0000000        000018
12035820448000136WHITE MARTINS GASES INDUSTRIAI                                        0000000023700026400000003937925 0000000085861656009022190000404361579 001     201208312012080400000000054420000162300000000000162300000000000000000000000000000000050000000000  3020120831   01FS        1  RUA GANGES  528                                                                  3                         000000000000000                                     N                     00598  0000000        000019
12042956441000101SOLUCOES ACO USIMINAS                                                 0000000034100000000000000000000000000000858616500000002271409860017319403     201210252012080200000000054970000178902000000000178902000000000000000000000000000000050000000000  3020121025   01FS        1                                                                                   3112271409867293807258000029                                                  N                     01321  0000000        000020
12042956441000101SOLUCOES ACO USIMINAS                                                 0000000034100000000000000000000000000000858616290000002271409670017315101     201208302012080200000000054410000579548000000000579548000000000000000000000000000000050000000000  3020120830   01FS        1                                                                                   3112271409677293807258000099                                                  N                     01321  0000000        000021
12042956441000101SOLUCOES ACO USIMINAS                                                 0000000034100000000000000000000000000000858616320000002271409680017316001     201208302012080200000000054410000929730000000000929730000000000000000000000000000000050000000000  3020120830   01FS        1                                                                                   3112271409685293807258000039                                                  N                     01321  0000000        000022
12042956441000101SOLUCOES ACO USIMINAS                                                 0000000034100000000000000000000000000000858616330000002271409690017319301     201208302012080200000000054410000981820000000000981820000000000000000000000000000000050000000000  3020120830   01FS        1                                                                                   3112271409693293807258000039                                                  N                     01321  0000000        000023
12042956441000101SOLUCOES ACO USIMINAS                                                 0000000034100000000000000000000000000000858616340000002271409700017319401     201208302012080200000000054410000178956000000000178956000000000000000000000000000000050000000000  3020120830   01FS        1                                                                                   3112271409701293807258000089                                                  N                     01321  0000000        000024
12042956441000101SOLUCOES ACO USIMINAS                                                 0000000034100000000000000000000000000000858616350000002271409710017319501     201208302012080200000000054410000197439000000000197439000000000000000000000000000000050000000000  3020120830   01FS        1                                                                                   3112271409719293807258000049                                                  N                     01321  0000000        000025
12042956441000101SOLUCOES ACO USIMINAS                                                 0000000034100000000000000000000000000000858616360000002271409720017319601     201208302012080200000000054410000197103000000000197103000000000000000000000000000000050000000000  3020120830   01FS        1                                                                                   3112271409727293807258000019                                                  N                     01321  0000000        000026
12042956441000101SOLUCOES ACO USIMINAS                                                 0000000034100000000000000000000000000000858616370000002271409730017319701     201208302012080200000000054410000197271000000000197271000000000000000000000000000000050000000000  3020120830   01FS        1                                                                                   3112271409735293807258000019                                                  N                     01321  0000000        000027
12042956441000101SOLUCOES ACO USIMINAS                                                 0000000034100000000000000000000000000000858616380000002271409740017319801     201208302012080200000000054410000194583000000000194583000000000000000000000000000000050000000000  3020120830   01FS        1                                                                                   3112271409743293807258000019                                                  N                     01321  0000000        000028
12042956441000101SOLUCOES ACO USIMINAS                                                 0000000034100000000000000000000000000000858616510000002271409900017319803     201210252012080200000000054970000194524000000000194524000000000000000000000000000000050000000000  3020121025   01FS        1                                                                                   3112271409909293807258000019                                                  N                     01321  0000000        000029
12042956441000101SOLUCOES ACO USIMINAS                                                 0000000034100000000000000000000000000000858616520000002271409870017319503     201210252012080200000000054970000197381000000000197381000000000000000000000000000000050000000000  3020121025   01FS        1                                                                                   3112271409875293807258000019                                                  N                     01321  0000000        000030
12042956441000101SOLUCOES ACO USIMINAS                                                 0000000034100000000000000000000000000000858616530000002271409880017319603     201210252012080200000000054970000197045000000000197045000000000000000000000000000000050000000000  3020121025   01FS        1                                                                                   3112271409883293807258000049                                                  N                     01321  0000000        000031
12042956441000101SOLUCOES ACO USIMINAS                                                 0000000034100000000000000000000000000000858616540000002271409890017319703     201210252012080200000000054970000197213000000000197213000000000000000000000000000000050000000000  3020121025   01FS        1                                                                                   3112271409891293807258000079                                                  N                     01321  0000000        000032
12042956441000101SOLUCOES ACO USIMINAS                                                 0000000034100000000000000000000000000000858616390000002271409750017315102     201209272012080200000000054690000579374000000000579374000000000000000000000000000000050000000000  3020120927   01FS        1                                                                                   3112271409750293807258000019                                                  N                     01321  0000000        000033
12042956441000101SOLUCOES ACO USIMINAS                                                 0000000034100000000000000000000000000000858616400000002271409760017316002     201209272012080200000000054690000929451000000000929451000000000000000000000000000000050000000000  3020120927   01FS        1                                                                                   3112271409768293807258000079                                                  N                     01321  0000000        000034
12042956441000101SOLUCOES ACO USIMINAS                                                 0000000034100000000000000000000000000000858616410000002271409770017319302     201209272012080200000000054690000981526000000000981526000000000000000000000000000000050000000000  3020120927   01FS        1                                                                                   3112271409776293807258000019                                                  N                     01321  0000000        000035
12042956441000101SOLUCOES ACO USIMINAS                                                 0000000034100000000000000000000000000000858616420000002271409780017319402     201209272012080200000000054690000178902000000000178902000000000000000000000000000000050000000000  3020120927   01FS        1                                                                                   3112271409784293807258000029                                                  N                     01321  0000000        000036
12042956441000101SOLUCOES ACO USIMINAS                                                 0000000034100000000000000000000000000000858616430000002271409790017319502     201209272012080200000000054690000197380000000000197380000000000000000000000000000000050000000000  3020120927   01FS        1                                                                                   3112271409792293807258000049                                                  N                     01321  0000000        000037
12042956441000101SOLUCOES ACO USIMINAS                                                 0000000034100000000000000000000000000000858616440000002271409800017319602     201209272012080200000000054690000197044000000000197044000000000000000000000000000000050000000000  3020120927   01FS        1                                                                                   3112271409800293807258000019                                                  N                     01321  0000000        000038
12042956441000101SOLUCOES ACO USIMINAS                                                 0000000034100000000000000000000000000000858616450000002271409810017319702     201209272012080200000000054690000197212000000000197212000000000000000000000000000000050000000000  3020120927   01FS        1                                                                                   3112271409818293807258000019                                                  N                     01321  0000000        000039
12042956441000101SOLUCOES ACO USIMINAS                                                 0000000034100000000000000000000000000000858616460000002271409820017319802     201209272012080200000000054690000194525000000000194525000000000000000000000000000000050000000000  3020120927   01FS        1                                                                                   3112271409826293807258000079                                                  N                     01321  0000000        000040
12042956441000101SOLUCOES ACO USIMINAS                                                 0000000034100000000000000000000000000000858616470000002271409830017315103     201210252012080200000000054970000579374000000000579374000000000000000000000000000000050000000000  3020121025   01FS        1                                                                                   3112271409834293807258000059                                                  N                     01321  0000000        000041
12042956441000101SOLUCOES ACO USIMINAS                                                 0000000034100000000000000000000000000000858616480000002271409840017316003     201210252012080200000000054970000929451000000000929451000000000000000000000000000000050000000000  3020121025   01FS        1                                                                                   3112271409842293807258000049                                                  N                     01321  0000000        000042
12042956441000101SOLUCOES ACO USIMINAS                                                 0000000034100000000000000000000000000000858616490000002271409850017319303     201210252012080200000000054970000981526000000000981526000000000000000000000000000000050000000000  3020121025   01FS        1                                                                                   3112271409859293807258000019                                                  N                     01321  0000000        000043
12042956441000101SOLUCOES ACO USIMINAS                                                 0000000034100000000000000000000000000000840312980000002181699150016814401     201207302012070200000000054100000968714000000000968714000000000000000000000000000000050000000000  3020120730   06          3                                                                                   3112181699151293807258000089                                                  N                     01321  0000000        000044
12042956441000101SOLUCOES ACO USIMINAS                                                 0000000034100000000000000000000000000000840312990000002181699160016827101     201207302012070200000000054100000703221000000000703221000000000000000000000000000000050000000000  3020120730   06          3                                                                                   3112181699169293807258000079                                                  N                     01321  0000000        000045
12042956441000101SOLUCOES ACO USIMINAS                                                 0000000034100000000000000000000000000000840313000000002181699170016829701     201207302012070200000000054100000643905000000000647769000000000000000000000000005152050000000000  3020120802   06          3                                                                                   3112181699177293807258000099                                                  N                     01321  0000000        000046
12042956441000101SOLUCOES ACO USIMINAS                                                 0000000034100000000000000000000000000000840313010000002181699180016829801     201207302012070200000000054100000322625000000000322625000000000000000000000000000000050000000000  3020120730   06          3                                                                                   3112181699185293807258000019                                                  N                     01321  0000000        000047
12042956441000101SOLUCOES ACO USIMINAS                                                 0000000034100000000000000000000000000000806491770000002008144720015799703     201207302012050700000000054100000435707000000000437449000000000000000000000000002613050000000000  3020120801   06          3                                                                                   3112008144720293807258000039                                                  N                     01321  0000000        000048
12042956441000101SOLUCOES ACO USIMINAS                                                 0000000034100000000000000000000000000000806491780000002008144730015799803     201207302012050700000000054100000228615000000000228615000000000000000000000000000000050000000000  3020120730   06          3                                                                                   3112008144738293807258000069                                                  N                     01321  0000000        000049
12042956441000101SOLUCOES ACO USIMINAS                                                 0000000034100000000000000000000000000000806491790000002008144740015799903     201207302012050700000000054100000195106000000000195886000000000000000000000000001170050000000000  3020120801   06          3                                                                                   3112008144746293807258000049                                                  N                     01321  0000000        000050
12042956441000101SOLUCOES ACO USIMINAS                                                 0000000034100000000000000000000000000000806491800000002008144750015803103     201207302012050700000000054100001140853000000001140853000000000000000000000000000000050000000000  3020120730   06          3                                                                                   3112008144753293807258000059                                                  N                     01321  0000000        000051
12043292101000196ANHEMBI  IND  DECAIXAS DE PAPE                                        0000000023702671900000000031364 000000008569065200902173000001212887 2        201207262012061400000000054060000103788000000000103788000000000000000000000000000000050000000000  3020120803   05          3  RUA TAMAINDE  1410                                                               3                         000000000000000                                     N                     00598  0000000        000052
12051598472000129ELETRICA J SANTOS                                                     0000000023702451100000000000264 000000008586165500902219000005118310 01       201209012012080400000000054430000104146000000000104146000000000000000000000000000000050000000000  3020120903   01FS        1  R JUNO  533                                                                      3                         000000000000000                                     N                     00598  0000000        000053
12056993900000131CIA METALURGICA PRADA                                                 0000000034100000000000000000000000000000823343260000002094231680024634102     201207302012060400000000054100000135902000000000135902000000000000000000000000000000050000000000  3020120730   06          3                                                                                   3112094231688293800573900069                                                  N                     01321  0000000        000054
12056993900000131CIA METALURGICA PRADA                                                 0000000034100000000000000000000000000000823343270000002094231690024634202     201207302012060400000000054100000247806000000000248632000000000000000000000000001239050000000000  3020120801   06          3                                                                                   3112094231696293800573900019                                                  N                     01321  0000000        000055
12056993900000131CIA METALURGICA PRADA                                                 0000000034100000000000000000000000000000823343280000002094231700024634602     201207302012060400000000054100000124715000000000124715000000000000000000000000000000050000000000  3020120730   06          3                                                                                   3112094231704293800573900019                                                  N                     01321  0000000        000056
12056993900000131CIA METALURGICA PRADA                                                 0000000034100000000000000000000000000000823343290000002094231720024634802     201207302012060400000000054100000264512000000000265394000000000000000000000000001323050000000000  3020120801   06          3                                                                                   3112094231720293800573900069                                                  N                     01321  0000000        000057
12056993900000131CIA METALURGICA PRADA                                                 0000000034100000000000000000000000000000823343320000002094231710024634702     201207302012060400000000054100000508858000000000508858000000000000000000000000000000050000000000  3020120730   06          3                                                                                   3112094231712293800573900019                                                  N                     01321  0000000        000058
12056993900000131CIA METALURGICA PRADA                                                 0000000034100000000000000000000000000000838527960000002171340430025383501     201207302012063000000000054100000576855000000000576855000000000000000000000000000000050000000000  3020120730   06          3                                                                                   3112171340436293800573900039                                                  N                     01321  0000000        000059
12056993900000131CIA METALURGICA PRADA                                                 0000000034100000000000000000000000000000838527970000002171340440025384301     201207302012063000000000054100000455842000000000455842000000000000000000000000000000050000000000  3020120730   06          3                                                                                   3112171340444293800573900069                                                  N                     01321  0000000        000060
12056993900000131CIA METALURGICA PRADA                                                 0000000034100000000000000000000000000000840312910000002179478270025419301     201207312012070300000000054110000403386000000000403386000000000000000000000000000000050000000000  3020120731   06          3                                                                                   3112179478279293800573900019                                                  N                     01321  0000000        000061
12056993900000131CIA METALURGICA PRADA                                                 0000000034100000000000000000000000000000840312920000002179478280025419401     201207312012070300000000054110000323773000000000323773000000000000000000000000000000050000000000  3020120731   06          3                                                                                   3112179478287293800573900059                                                  N                     01321  0000000        000062
12057158057000130COMERCIAL ELETRICA PJ LTDA                                            0000000023703394400000000972983 00000000858616570090221900002850000312326     201208272012073000000000054380000076707000000000076707000000000000000000000000000000050000000000  3020120827   01FS        1  R TAMAINDE 1410                                                                  3                         000000000000000                                     N                     00598  0000000        000063
12061683652000162TRANS FACE TRANSPORTES LTDA                                           0000000023700530400000000141828 0000000084895720009000000107009I000078506     201208022012071900000000054130000055000000000000055740000000000000000000000000000740050000000000  3020120807   01          2  R JUNO 553                                                                       3                         000000000000000                                     N                     00598  0000000        000064
12066899790000105FABRICA ARTEF LATEX ESTRELA EP                                        00000000399000000000000000000000000000008113748000000000000000069721 003      201207312012051700000000054110000377146000000000377146000000000000000000000000000000050000000000  3020120731   05          3                                                                                   3175250845311125027292500119                                                  N                     01321  0000000        000065
12069034668000156SODEXO PASS BRASIL SERV COM SA                                        0000000034100000000000000000000000000000851529180000009216535501200009224     201208222012072300000000054330000420900000000000420900000000000000000000000000000000050000000000  3020120822   06          3                                                                                   3109216535506293801455800049                                                  N                     01321  0000000        000066
12092693118000160BRADESCO SAUDE S A                                                    0000000023700448000000001533991 00000000829780050050100702629130000000000     201207202012061800000000054000000645861000000000653349000000000000000000000000007488050000000000  3020120807   01          2                                                                                   3                         000000000000000                                     N                     00598  0000000        000067
900006800000000023217658                                                                                                                                                                                                                                                                                                                                                                                                                                                                00598  0000000        000068
