0000147602043799295000110ALTAMIRA IND METALURGICA LTDA           20100554000002012110714253200000        2    230A                                                                                          000000000000000                                                                                                                                                                                                                                                                                   000001
12006000195000156MBA MERCANTIL BRASIL ACO LTDA RUA  RINCAO  220                        0365108034100648 00000000492510 I000000000010159000000000000000               201211070000000000000000000000000000000000000003055016000000000000000000000000000000050000000002  0820121107   01HA        0001500                                                                             3C0000000101                             0002                                 N                     00000  0020256        000002
12007068566000102NIVEL EMPREGOS LTDA           AV CELSO GARCIA 3830                    0306400023700097300000003053792 I000000000010160000000000000000               201211070000000000000000000000000000000000000000400000000000000000000000000000000000010000002805  0120121107   01HA        000                                                                                 3                                        00NF.NRO.2805 - PARC.02.             N                     00000 10020256        000003
900000400000000003455016                                                                                                                                                                                    000000000000000                                                                                                                                                                                                                                                    00000200000000000000000        000004
