0000147602043799295000110ALTAMIRA INDUSTRIA METALURGICA LT       202000000437520130107215831             3                                                                                                  000000000000000                                                                                                                                                                                                                                                                                   000001
1205995053500017610 TABELIAO PROTESTOS SP                                              0000000023701628400000000729957 I000000000010378006013010306488               201301080000000000000000055720000428224000000000428224000000000000000000000000000000010000009534  3120130107   02BW        5000000               000000000000000                                               3162806130103064880072995079               9534/02 - MBA.                     N                     01079 10020256        000002
120599545780001202 TABELIAO DE PROTESTO LET TIT                                        0000000023701628400000000731404 I000000000010376006000000002116               201301080000000000000000055720000123122000000000123122000000000000000000000000000000050000009542  3120130107   02BW        5000000               000000000000000                                               3162806000000021160073140019               9542/02 - MBA MERCANTIL.           N                     01079 10020256        000003
120602639850001706  TABELIAO PROTESTO L T SP                                           0000000023701628400000000732613 I000000000010379006000000004626               201301080000000000000000055720000168037000000000168037000000000000000000000000000000010000009535  3120130107   02BW        5000000               000000000000000                                               3162806000000046260073261019               9535/02 - MBA.                     N                     01079 10020256        000004
120541989080001803 TABELIAO DE PROTESTO LET TIT                                        0000000023701628400000000732710 I000000000010377006000618030113               201301080000000000000000055720000758277000000000758277000000000000000000000000000000010000009541  3120130107   02BW        5000000               000000000000000                                               3162806006180301130073271069               9541/02                            N                     01079 10020256        000005
12043799295000110ALTAMIRA INDUSTRIA METAL LTDA                                         0000000034100467 00000000209128 I000000000010374000000000000000               201301070000000000000000000000000000000000000001300000000000000000000000000000000000050000000001  0820130107   02BW        5001600               000000000000000                                               3D0000000101                               01                                 S                     01133 10020256        000006
12062539994000176LEALFER INDUSTRIA E COMERCIO D                                        0000000034100761 00000000033240 I000000000010375000000000000000               201301070000000000000000000000000000000000000001028132000000000000000000000000000000050000000002  0820130107   02BW        5001600               000000000000000                                               3C0000000101                               02                                 N                     01076 10020256        000007
12061217188000119TELAS METALICAS TELMETAL LTDA                                         0000000034100000000000000000000000000000938325340000009000000476146 1 3       201301072012121000000000055710000081140000000000081140000000000000000000000000000000050000000000  3020130107   02BW        2000000               000000000000000                                               3109000000474077098123100019               6146/01-03                         N                     01132 10020256        000008
12042956441000101SOLUCOES ACO USIMINAS                                                 0000000034100000000000000000000000000000938325270000002670093690019412701     201301072012121000000000055710000442686000000000442686000000000000000000000000000000050000000000  3020130107   02BW        2000000               000000000000000                                               3112670093692293807258000049               194127/01                          N                     01132 10020256        000009
12067298349000122JOBINVEST FOMENTO MERCANTIL LT                                        000000000010000000000000000000000000000092654644000000797503000540C           201301072012112300000000055710000109609000000000109609000000000000000000000000000000050000000000  3020130107   02BW        2000000               000000000000000                                               3161477975031204000105451719               540/03-04                          N                     01132 10020256        000010
12067647412000199ANCORA CHUMBADORES LTDA                                               000000003410000000000000000000000000000091932177000000257023550065922 2       201301062012110700000000055700000125000000000000125000000000000000000000000000000000050000000000  3020130107   02BW        2000000               000000000000000                                               3112570235500013626917200069               065922/02                          N                     01132 10020256        000011
12004676708000118M H F SISTEMAS S C LTDA                                               0000000034100000000000000000000000000000937366620000002663878520099050797     201301052012121000000000055690000015153000000000015153000000000000000000000000000000050000000000  3020130107   02BW        2000000               000000000000000                                               3112663878521013924573200019               99050797                           N                     01132 10020256        000012
12059588111000103BANCO VOTORANTIM S A                                                  000000000010000000000000000000000000000094102593000000603409000144542 1       201301072012121400000000055710000140673000000000140673000000000000000000000000000000050000000000  3020130107   02BW        2000000               000000000000000      INDUMYLL INDUSTRIA                       3000000145167244326034091189               144542/01                          N                     01132 10020256        000013
12005502645000146TRANS GERALE TRANSPORTES LTDA                                         000000003410000000000000000000000000000094311050000000269495536500A 12        201301062012121700000000055700000170000000000000170000000000000000000000000000000000050000000000  3020130107   02BW        2000000               000000000000000      TRANS-GERALE TRANSPORTES LTDA            3112694955363035522320700019               01891- PARC.01/02.                 N                     01132 10020256        000014
12059588111000103BANCO VOTORANTIM S A                                                  000000000010000000000000000000000000000094008691000000192873000144539 1       201301072012121300000000055710000302873000000000302873000000000000000000000000000000050000000000  3020130107   02BW        2000000               000000000000000      INDUMYLL INDUSTRIA                       3000000145167244321928731199               144539                             N                     01132 10020256        000015
12062014881000157IND MECANICA JULIAPA LTDA                                             0000000023702505400000000102229 00000000934523920140234100000042265           201301052012120600000000055690000075900000000000075900000000000000000000000000000000050000000000  3020130107   02BW        2000000               000000000000000                                               3                         000000000000000  2265                               N                     01079 10020256        000016
12033325184001786ALSCO TOALHEIRO BRASIL                                                0000000023703396000000001490850 0000000094102611009000029976603VM00299766     201301052012120700000000055690000026347000000000026347000000000000000000000000000000050000000000  3020130107   02BW        2000000               000000000000000                                               3                         000000000000000  299766                             N                     01079 10020256        000017
12043350099000164JMC COML ELETRICA LTDA                                                0000000023700092200000000380105 000000009286265400902333000042059752 02       201301072012112600000000055710000047400000000000047400000000000000000000000000000000050000000000  3020130107   02BW        2000000               000000000000000                                               3                         000000000000000  59752/02                           N                     01079 10020256        000018
12009007898000102ARTERINOX COM D TELAS METALICA                                        0000000023702741300000000246700 00000000936372510090112342017504284           201301062012120700000000055700000085434000000000085434000000000000000000000000000000050000000000  3020130107   02BW        2000000               000000000000000                                               3                         000000000000000  4284                               N                     01079 10020256        000019
12009007898000102ARTERINOX COM D TELAS METALICA                                        0000000023702741300000000246700 00000000936372530090112342017524286           201301062012120700000000055700000015929000000000015929000000000000000000000000000000050000000000  3020130107   02BW        2000000               000000000000000                                               3                         000000000000000  4286                               N                     01079 10020256        000020
12009007898000102ARTERINOX COM D TELAS METALICA                                        0000000023702741300000000246700 00000000936372520090112342017514285           201301062012120700000000055700000071755000000000071755000000000000000000000000000000050000000000  3020130107   02BW        2000000               000000000000000                                               3                         000000000000000  4285                               N                     01079 10020256        000021
12042956441000101SOLUCOES EM ACO USIMINAS S A                                          0000000034100000 0000000000000  I000000000010381000000000000000               201301070000000000000000055710000161774000000000161774000000000000000000000000000000010000193780  3120130107   02BW        5000000               000000000000000                                               3181613245670293807258000029               0193780/01                         N                     01132 10020256        000022
12042956441000101SOLUCOES EM ACO USIMINAS S A                                          0000000034100000 0000000000000  I000000000010380000000000000000               201301070000000000000000055710000107497000000000107497000000000000000000000000000000010000193677  3120130107   02BW        5000000               000000000000000                                               3181613257733293807258000019               0193677/01                         N                     01132 10020256        000023
12042956441000101SOLUCOES EM ACO USIMINAS S A                                          0000000034100000 0000000000000  I000000000010383000000000000000               201301070000000000000000055710000866141000000000866141000000000000000000000000000000010000193781  3120130107   02BW        5000000               000000000000000                                               3181613256479293807258000059               0193781/01                         N                     01132 10020256        000024
12042956441000101SOLUCOES EM ACO USIMINAS S A                                          0000000034100000 0000000000000  I000000000010382000000000000000               201301070000000000000000055710001000596000000001000596000000000000000000000000000000010000189097  3120130107   02BW        5000000               000000000000000                                               3181613241638293807258000079               0189097/02                         N                     01132 10020256        000025
900002600000000007651699                                                                                                                                                                                    000000000000000                                                                                                                                                                                                                                                    00002401225550005323567        000026
