0000147602043799295000110ALTAMIRA INDUSTRIA METALURGICA LT       202000000018320121207055739             1                                                                                                                                                                                                                                                                                                                                                                                                    000001
12001852612000175BT EQUIP INDUSTRIAIS LTDA EPP                                         000000003410000000000000000000000000000093358329000000264388433055289 1       201212282012113000000000055610000050000000000000050000000000000000000000000000000000050000000000  3020121228   05          3                                                                                   3112643884334052567228300019                                                  N                     01321  0000000        000002
12001852612000175BT EQUIP INDUSTRIAIS LTDA EPP                                         000000003410000000000000000000000000000093452389000000264388433055289 1       201212282012113000000000055610000050000000000000050000000000000000000000000000000000050000000000  3020121228   01FS        1                                                                                   3112643884334052503201700089                                                  N                     01321  0000000        000003
12001895314000162COLETA INDUSTRIAL FIMAVAN LTDA                                        0000000034100000000000000000000000000000866992070000009002335349439           201208272012081700000000054380000123695000000000159727000000000000000000000000036032050000000000  3020121207   01          2                                                                                   3109002335346144604097200019                                                  N                     01321  0000000        000004
12002248601000143TECNOLACOS CABOS E CINTAS LTDA                                        000000000010000000000000000000000000000093452387000000018668000007728         201212262012120500000000055590000022040000000000022040000000000000000000000000000000050000000000  3020121226   01FS        1                                                                                   3044290186681192000070425189                                                  N                     01321  0000000        000005
12003102481000134AB5 IND E COMERCIO LTDA EPP                                           0000000034100000000000000000000000000000909203330000009000042483169           201211202012102300000000055230000119250000000000122633000000000000000000000000003383050000000000  3020121207   01          2                                                                                   3109000042489003154755700039                                                  N                     01321  0000000        000006
12003370710000100ALTIZA TRANSPORTES LTDA                                               0000000010400000000000000000000000000000934523670000000007550003678           201212132012120500000000055460000211100000000000211100000000000000000000000000000000050000000000  3020121213   01FS        1                                                                                   3284848190110104000000755389                                                  N                     01321  0000000        000007
12003489596000123BEND FLEX I COMERCIO LTDA                                             000000003410000000000000000000000000000088350832000000171879874608            201209122012082100000000054540000695250000000000812812000000000000000000000000117562050000000000  3020121207   01          2                                                                                   3191718798744157734445800069                                                  N                     01321  0000000        000008
12003489596000123BEND FLEX I COMERCIO LTDA                                             000000003410000000000000000000000000000088599899000000171434574613            201209172012081600000000054590000585000000000000678231000000000000000000000000093231050000000000  3020121207   01          2                                                                                   3191714345748157734445800019                                                  N                     01321  0000000        000009
12003639662000102SCHUTTER DO BRASIL LTDA                                               0000000023700939300000000014001 0000000092377940009013500000427004006461      201212042012111900000000055370000067550000000000068012000000000000000000000000000693050000000000  3020121206   06          3                                                                                   3                         000000000000000                                     N                     00598  0000000        000010
12005753978000148HUMAN SERVICOS P C MOVEL LTDA                                         0000000034100000000000000000000000000000934523900000009001089360000108936     201212202012120300000000055530000013000000000000013000000000000000000000000000000000050000000000  3020121220   01FS        1                                                                                   3109001089364057948896600079                                                  N                     01321  0000000        000011
12005880850000145NEDERMAN BRASIL COM PROD EX LT                                        000000003410000000000000000000000000000086373178000000614350956002763 A       201209252012081400000000054670000289674000000000331284000000000000000000000000041610050000000000  3020121207   01          2                                                                                   3156143509568160829000100049                                                  N                     01321  0000000        000012
12005915831000107PALETES SATELITE COM LTDA ME                                          000000003410000000000000000000000000000092038465000000902111111NF 2111        201212042012111300000000055370000058500000000000059280000000000000000000000000001170050000000000  3020121206   06          3                                                                                   3109021111111144648966600059                                                  N                     01321  0000000        000013
12006000195000156MBA MERCANTIL BRAS DE ACO LTDA                                        0000000034100000000000000000000000000000909203280000002526552600010015B01     201211222012102300000000055250000741389000000000741389000000000000000000000000000000050000000000  3020121122   05          3                                                                                   3112526552602064899001800059                                                  N                     01321  0000000        000014
12006000195000156MBA MERCANTIL BRAS DE ACO LTDA                                        0000000034100000000000000000000000000000887698090000001671394550008925B02     201209142012071700000000054560000719581000000000838441000000000000000000000000118860050000000000  3020121207   01          2                                                                                   3191671394556064849251000089                                                  N                     01321  0000000        000015
12006000195000156MBA MERCANTIL BRAS DE ACO LTDA                                        0000000034100000000000000000000000000000887698100000001671394560008926B02     201209142012071700000000054560000387716000000000451808000000000000000000000000064092050000000000  3020121207   01          2                                                                                   3191671394564064849251000019                                                  N                     01321  0000000        000016
12006000195000156MBA MERCANTIL BRAS DE ACO LTDA                                        0000000034100000000000000000000000000000904173150000001667238300008870B03     201210092012071600000000054810000839951000000000937419000000000000000000000000097468050000000000  3020121207   01          2                                                                                   3191667238304064849251000039                                                  N                     01321  0000000        000017
12006000195000156MBA MERCANTIL BRAS DE ACO LTDA                                        0000000034100000000000000000000000000000904173160000001667238280008876B03     201210122012071600000000054840000810320000000000899584000000000000000000000000089264050000000000  3020121207   01          2                                                                                   3191667238288064849251000079                                                  N                     01321  0000000        000018
12006000195000156MBA MERCANTIL BRAS DE ACO LTDA                                        0000000034100000000000000000000000000000904173170000001671394420008925B03     201210122012071700000000054840000719580000000000798820000000000000000000000000079240050000000000  3020121207   01          2                                                                                   3191671394424064849251000069                                                  N                     01321  0000000        000019
12006000195000156MBA MERCANTIL BRAS DE ACO LTDA                                        0000000034100000000000000000000000000000904173180000001671394430008926B03     201210122012071700000000054840000387716000000000430444000000000000000000000000042728050000000000  3020121207   01          2                                                                                   3191671394432064849251000079                                                  N                     01321  0000000        000020
12006000195000156MBA MERCANTIL BRAS DE ACO LTDA                                        0000000034100000000000000000000000000000889578520000001671394540008920B02     201209162012071700000000054580000576585000000000669573000000000000000000000000092988050000000000  3020121207   01          2                                                                                   3191671394549064849251000099                                                  N                     01321  0000000        000021
12006000195000156MBA MERCANTIL BRAS DE ACO LTDA                                        0000000034100000000000000000000000000000906662670000001671394410008920B03     201210142012071700000000054860000576584000000000637820000000000000000000000000061236050000000000  3020121207   01          2                                                                                   3191671394416064849251000039                                                  N                     01321  0000000        000022
12006000195000156MBA MERCANTIL BRAS DE ACO LTDA                                        0000000034100000000000000000000000000000885998980000001667238420008870B02     201209112012071600000000054530000839952000000000983676000000000000000000000000143724050000000000  3020121207   01          2                                                                                   3191667238429064849251000039                                                  N                     01321  0000000        000023
12006000195000156M B A MERCANTIL BRASILEIRA DE                                         0000000023700118P00000002130599 00000000919321910020231800000160010234B01     201212062012110800000000055390000996082000000000997742000000000000000000000000001660050000000000  3020121207   01          2  RUA JUNO  533                                                                    3                         000000000000000                                     N                     00598  0000000        000024
12007289649000113CRC LASER SUPR INF LTDA EPP                                           000000003410000000000000000000000000000091471898000000702929251000001203      201212032012110600000000055360000036440000000000037385000000000000000000000000001017050000000000  3020121206   06          3                                                                                   3157029292519000265431700089                                                  N                     01321  0000000        000025
12008272923000104P SANTOS ESQUADRARIAS METAL ME                                        0000000034100000000000000000000000000000915734100000006159682651954           201212052012110700000000055380000408138000000000418477000000000000000000000000010339050000000000  3020121207   01          2                                                                                   3156159682654160141951600029                                                  N                     01321  0000000        000026
12008272923000104P SANTOS ESQUADRARIAS METAL ME                                        0000000034100000000000000000000000000000896979550000006153947641850           201211222012100800000000055250000400000000000000424005000000000000000000000000024005050000000000  3020121207   01          2                                                                                   3156153947640160141951600039                                                  N                     01321  0000000        000027
12008594182000188ACOS G3 COMERCIO E BENEFICIAME                                        0000000023703137200000000091332 00000000929490170090227100000261155        002201211222012092700000000055250000152347000000000156231000000000000000000000000003884050000000000  3020121207   01          2  RUA GANGES  528                                                                  3                         000000000000000                                     N                     00598  0000000        000028
12008879248000186FREFER METAL PLUS                                                     000000003410000000000000000000000000000093452382000000264895673EMO014097A     201212312012120300000000055640000122199000000000122199000000000000000000000000000000050000000000  3020121231   01FS        1                                                                                   3112648956731293811346700019                                                  N                     01321  0000000        000029
12008879248000186FREFER METAL PLUS                                                     000000003410000000000000000000000000000093452383000000264895674EMO014097B     201301252012120300000000055890000122199000000000122199000000000000000000000000000000050000000000  3020130125   01FS        1                                                                                   3112648956749293811346700019                                                  N                     01321  0000000        000030
12008879248000186FREFER METAL PLUS                                                     000000003410000000000000000000000000000093452379000000264895671EMO014094A     201212312012120300000000055640000533061000000000533061000000000000000000000000000000050000000000  3020121231   01FS        1                                                                                   3112648956715293811346700079                                                  N                     01321  0000000        000031
12008879248000186FREFER METAL PLUS                                                     000000003410000000000000000000000000000093452386000000264895672EMO014094B     201301282012120300000000055920000533061000000000533061000000000000000000000000000000050000000000  3020130128   01FS        1                                                                                   3112648956723293811346700059                                                  N                     01321  0000000        000032
12008879248000186FREFER METAL PLUS                                                     000000003410000000000000000000000000000091833884000000256609812EMO013946A     201212052012110700000000055380000535589000000000536981000000000000000000000000001392050000000000  3020121207   01          2                                                                                   3112566098128293811346700089                                                  N                     01321  0000000        000033
12009080640000123SERVPAES LTDA ME                                                      000000001040000000000000000000000000000093452366000000000787600002703         201212102012120500000000055430000112500000000000112500000000000000000000000000000000050000000000  3020121210   01FS        1                                                                                   3900000078710868700000040919                                                  N                     01321  0000000        000034
12009338857000190FERNANDO  NAGAO  CARDONE  ALVA                                        000000000330000000000000000000000000000091653176000000300000000ALTA 11 2012   201211202012103000000000055230000134632000000000142846000000000000000000000000008214050000000000  3020121207   01          2                                                                                   3947901700000051051630010119                                                  N                     01321  0000000        000035
12009338857000190FERNANDO  NAGAO  CARDONE  ALVA                                        000000000330000000000000000000000000000089697936000000800000000ALTA 10 2012   201210202012092500000000054920000134632000000000155370000000000000000000000000020738050000000000  3020121207   01          2                                                                                   3947901700000051050080010129                                                  N                     01321  0000000        000036
12012006058000121WEG TINTAS LTDA                                                       0000000023702727800000000001309 00000000878206060090225400000800016517203     201211202012090600000000055230000459992000000000470413000000000000000000000000010421050000000000  3020121207   01          2  R JUNO  533                                                                      3                         000000000000000                                     N                     00598  0000000        000037
12012006058000121WEG TINTAS LTDA                                                       0000000023702727800000000001309 00000000882668420090225800000750016626902     201211122012091300000000055150000459854000000000475179000000000000000000000000015325050000000000  3020121207   01          2  R JUNO  533                                                                      3                         000000000000000                                     N                     00598  0000000        000038
12012006058000121WEG TINTAS LTDA                                                       0000000023702727800000000001309 00000000882668430090225800000760016626903     201211272012091300000000055300000459992000000000466122000000000000000000000000006130050000000000  3020121207   01          2  R JUNO  533                                                                      3                         000000000000000                                     N                     00598  0000000        000039
12012006058000121WEG TINTAS LTDA                                                       0000000023702727800000000001309 00000000870177500090224100000990016248003     201211102012082700000000055130000306662000000000317678000000000000000000000000011016050000000000  3020121207   01          2  R JUNO  533                                                                      3                         000000000000000                                     N                     00598  0000000        000040
12012006058000121WEG TINTAS LTDA                                                       0000000023702727800000000001309 00000000872318670090224700001050016359603     201211142012083100000000055170000459992000000000474091000000000000000000000000014099050000000000  3020121207   01          2  R JUNO  533                                                                      3                         000000000000000                                     N                     00598  0000000        000041
12035820448000136WHITE MARTINS GASES INDUSTRIAI                                        0000000023700026400000003937925 0000000093452388009023410005863417023 001     201301012012120600000000055650000028403000000000028403000000000000000000000000000000050000000000  3020130102   01FS        1  RUA GANGES  528                                                                  3                         000000000000000                                     N                     00598  0000000        000042
12042956441000101SOLUCOES ACO USIMINAS                                                 0000000034100000000000000000000000000000934523780000002651387970006672802     201301302012120400000000055940000092538000000000092538000000000000000000000000000000050000000000  3020130130   01FS        1                                                                                   3112651387972293807258000059                                                  N                     01321  0000000        000043
12042956441000101SOLUCOES ACO USIMINAS                                                 0000000034100000000000000000000000000000934523680000002651387910019280901     201301022012120300000000055660000642816000000000642816000000000000000000000000000000050000000000  3020130102   01FS        1                                                                                   3112651387915293807258000049                                                  N                     01321  0000000        000044
12042956441000101SOLUCOES ACO USIMINAS                                                 0000000034100000000000000000000000000000934523690000002651387920019281001     201301022012120300000000055660000286357000000000286357000000000000000000000000000000050000000000  3020130102   01FS        1                                                                                   3112651387923293807258000079                                                  N                     01321  0000000        000045
12042956441000101SOLUCOES ACO USIMINAS                                                 0000000034100000000000000000000000000000934523700000002651387930006672801     201301022012120400000000055660000092566000000000092566000000000000000000000000000000050000000000  3020130102   01FS        1                                                                                   3112651387931293807258000029                                                  N                     01321  0000000        000046
12042956441000101SOLUCOES ACO USIMINAS                                                 0000000034100000000000000000000000000000934523710000002651387900019280801     201301022012120300000000055660000246001000000000246001000000000000000000000000000000050000000000  3020130102   01FS        1                                                                                   3112651387907293807258000019                                                  N                     01321  0000000        000047
12042956441000101SOLUCOES ACO USIMINAS                                                 0000000034100000000000000000000000000000934523720000002651387940019280802     201301282012120300000000055920000245927000000000245927000000000000000000000000000000050000000000  3020130128   01FS        1                                                                                   3112651387949293807258000019                                                  N                     01321  0000000        000048
12042956441000101SOLUCOES ACO USIMINAS                                                 0000000034100000000000000000000000000000934523730000002651387990019280903     201302252012120300000000056200000642624000000000642624000000000000000000000000000000050000000000  3020130225   01FS        1                                                                                   3112651387998293807258000019                                                  N                     01321  0000000        000049
12042956441000101SOLUCOES ACO USIMINAS                                                 0000000034100000000000000000000000000000934523800000002651387980019280803     201302252012120300000000056200000245928000000000245928000000000000000000000000000000050000000000  3020130225   01FS        1                                                                                   3112651387980293807258000079                                                  N                     01321  0000000        000050
12042956441000101SOLUCOES ACO USIMINAS                                                 0000000034100000000000000000000000000000934523740000002651387950019280902     201301282012120300000000055920000642623000000000642623000000000000000000000000000000050000000000  3020130128   01FS        1                                                                                   3112651387956293807258000049                                                  N                     01321  0000000        000051
12042956441000101SOLUCOES ACO USIMINAS                                                 0000000034100000000000000000000000000000934523750000002651388000019281003     201302252012120300000000056200000286272000000000286272000000000000000000000000000000050000000000  3020130225   01FS        1                                                                                   3112651388004293807258000019                                                  N                     01321  0000000        000052
12042956441000101SOLUCOES ACO USIMINAS                                                 0000000034100000000000000000000000000000934523760000002651387960019281002     201301282012120300000000055920000286271000000000286271000000000000000000000000000000050000000000  3020130128   01FS        1                                                                                   3112651387964293807258000079                                                  N                     01321  0000000        000053
12042956441000101SOLUCOES ACO USIMINAS                                                 0000000034100000000000000000000000000000934523770000002651388010006672803     201302272012120400000000056220000092537000000000092537000000000000000000000000000000050000000000  3020130227   01FS        1                                                                                   3112651388012293807258000049                                                  N                     01321  0000000        000054
12042956441000101SOLUCOES ACO USIMINAS                                                 0000000034100000000000000000000000000000853154840000002246247030017196702     201209202012072500000000054620000234841000000000271501000000000000000000000000036660050000000000  3020121207   01          2                                                                                   3112246247038293807258000099                                                  N                     01321  0000000        000055
12042956441000101SOLUCOES ACO USIMINAS                                                 0000000034100000000000000000000000000000853154850000002246247040017197302     201209202012072500000000054620000970103000000001121423000000000000000000000000151320050000000000  3020121207   01          2                                                                                   3112246247046293807258000019                                                  N                     01321  0000000        000056
12042956441000101SOLUCOES ACO USIMINAS                                                 0000000034100000000000000000000000000000855028690000002254329380017212902     201209212012072600000000054630000140098000000000161658000000000000000000000000021560050000000000  3020121207   01          2                                                                                   3112254329389293807258000019                                                  N                     01321  0000000        000057
12042956441000101SOLUCOES ACO USIMINAS                                                 0000000034100000000000000000000000000000855028700000002254329390017213002     201209212012072600000000054630000140602000000000162239000000000000000000000000021637050000000000  3020121207   01          2                                                                                   3112254329397293807258000089                                                  N                     01321  0000000        000058
12042956441000101SOLUCOES ACO USIMINAS                                                 0000000034100000000000000000000000000000855028770000002254329400017220502     201209212012072700000000054630000981022000000001132096000000000000000000000000151074050000000000  3020121207   01          2                                                                                   3112254329405293807258000099                                                  N                     01321  0000000        000059
12042956441000101SOLUCOES ACO USIMINAS                                                 0000000034100000000000000000000000000000856906410000002262886280017266201     201208282012073000000000054390000119472000000000143611000000000000000000000000024139050000000000  3020121207   01          2                                                                                   3112262886289293807258000089                                                  N                     01321  0000000        000060
12042956441000101SOLUCOES ACO USIMINAS                                                 0000000034100000000000000000000000000000856906420000002262886290017266301     201208282012073000000000054390000145069000000000174359000000000000000000000000029290050000000000  3020121207   01          2                                                                                   3112262886297293807258000099                                                  N                     01321  0000000        000061
12042956441000101SOLUCOES ACO USIMINAS                                                 0000000034100000000000000000000000000000859590620000002274469790017353702     201209282012080300000000054700000081053000000000092393000000000000000000000000011340050000000000  3020121207   01          2                                                                                   3112274469793293807258000069                                                  N                     01321  0000000        000062
12042956441000101SOLUCOES ACO USIMINAS                                                 0000000034100000000000000000000000000000846595700000002210880280016980502     201209102012071200000000054520000156071000000000183527000000000000000000000000027456050000000000  3020121207   01          2                                                                                   3112210880285293807258000039                                                  N                     01321  0000000        000063
12042956441000101SOLUCOES ACO USIMINAS                                                 0000000034100000000000000000000000000000846595710000002210880290016980602     201209102012071200000000054520000426094000000000501070000000000000000000000000074976050000000000  3020121207   01          2                                                                                   3112210880293293807258000019                                                  N                     01321  0000000        000064
12042956441000101SOLUCOES ACO USIMINAS                                                 0000000034100000000000000000000000000000847452070000002216130350005922202     201209102012071600000000054520000172071000000000202343000000000000000000000000030272050000000000  3020121207   01          2                                                                                   3112216130354293807258000049                                                  N                     01321  0000000        000065
12042956441000101SOLUCOES ACO USIMINAS                                                 0000000034100000000000000000000000000000847452100000002216130340017012402     201209102012071500000000054520000147428000000000173388000000000000000000000000025960050000000000  3020121207   01          2                                                                                   3112216130347293807258000059                                                  N                     01321  0000000        000066
12042956441000101SOLUCOES ACO USIMINAS                                                 0000000034100000000000000000000000000000848180700000002220192900017041002     201209112012071700000000054530000155433000000000182490000000000000000000000000027057050000000000  3020121207   01          2                                                                                   3112220192903293807258000029                                                  N                     01321  0000000        000067
12042956441000101SOLUCOES ACO USIMINAS                                                 0000000034100000000000000000000000000000848180710000002220192910017041202     201209112012071700000000054530000205421000000000241178000000000000000000000000035757050000000000  3020121207   01          2                                                                                   3112220192911293807258000019                                                  N                     01321  0000000        000068
12042956441000101SOLUCOES ACO USIMINAS                                                 0000000034100000000000000000000000000000850740460000002233586800017127201     201208202012072000000000054310000137881000000000167965000000000000000000000000030084050000000000  3020121207   01          2                                                                                   3112233586802293807258000019                                                  N                     01321  0000000        000069
12042956441000101SOLUCOES ACO USIMINAS                                                 0000000034100000000000000000000000000000850740470000002233586810017101002     201209142012071900000000054560000732575000000000855635000000000000000000000000123060050000000000  3020121207   01          2                                                                                   3112233586810293807258000019                                                  N                     01321  0000000        000070
12042956441000101SOLUCOES ACO USIMINAS                                                 0000000034100000000000000000000000000000850740480000002233586820017101202     201209142012071900000000054560000144634000000000168910000000000000000000000000024276050000000000  3020121207   01          2                                                                                   3112233586828293807258000029                                                  N                     01321  0000000        000071
12045635984000115CRIFER LAMINADOS DE ACO E FERR                                        0000000000100000000000000000000000000000898741130000000041650000035395E02     201212032012100900000000055360000802816000000000806028000000000000000000000000004818050000000000  3020121205   06          3                                                                                   3000000147532500000041651769                                                  N                     01321  0000000        000072
12047190731000100DE CASTRO LOUR ENG IND LTDA                                           00000000341000000000000000000000000000008996247900000024766209203027184 0     201211302012100500000000055330001153047000000001168923000000000000000000000000015876050000000000  3020121207   01          2                                                                                   3112476620920036884500400089                                                  N                     01321  0000000        000073
12047190731000100DE CASTRO LOUR ENG IND LTDA                                           00000000341000000000000000000000000000008782059500000023602714703026734 0     201211272012082800000000055300000997834000000001017454000000000000000000000000019620050000000000  3020121207   01          2                                                                                   3112360271475036884500400019                                                  N                     01321  0000000        000074
12047190731000100DE CASTRO LOUR ENG IND LTDA                                           00000000341000000000000000000000000000009041732900000025008464603027216 0     201212052012101000000000055380000225377000000000226263000000000000000000000000000886050000000000  3020121207   01          2                                                                                   3112500846467036884500400029                                                  N                     01321  0000000        000075
12047190731000100DE CASTRO LOUR ENG IND LTDA                                           00000000341000000000000000000000000000008782059900000023602715003026744 0     201211292012082900000000055320000146594000000000148898000000000000000000000000002304050000000000  3020121207   01          2                                                                                   3112360271509036884500400069                                                  N                     01321  0000000        000076
12047190731000100DE CASTRO LOUR ENG IND LTDA                                           00000000341000000000000000000000000000008782051200000023399953803026613 0     201209182012082100000000054600001107989000000001282309000000000000000000000000174320050000000000  3020121207   01          2                                                                                   3112339995386036884500400039                                                  N                     01321  0000000        000077
12047190731000100DE CASTRO LOUR ENG IND LTDA                                           00000000341000000000000000000000000000008782051300000023399953903026613 0     201211202012082100000000055230001107989000000001145032000000000000000000000000037043050000000000  3020121207   01          2                                                                                   3112339995394036884500400019                                                  N                     01321  0000000        000078
12047190731000100DE CASTRO LOUR ENG IND LTDA                                           00000000341000000000000000000000000000008782051500000023399953603026612 0     201211202012082100000000055230001111489000000001148651000000000000000000000000037162050000000000  3020121207   01          2                                                                                   3112339995360036884500400079                                                  N                     01321  0000000        000079
12047190731000100DE CASTRO LOUR ENG IND LTDA                                           00000000341000000000000000000000000000008782051600000023399954103026614 0     201209182012082100000000054600001047621000000001212421000000000000000000000000164800050000000000  3020121207   01          2                                                                                   3112339995410036884500400039                                                  N                     01321  0000000        000080
12047190731000100DE CASTRO LOUR ENG IND LTDA                                           00000000341000000000000000000000000000008782051700000023399954203026614 0     201211202012082100000000055230001047621000000001082641000000000000000000000000035020050000000000  3020121207   01          2                                                                                   3112339995428036884500400079                                                  N                     01321  0000000        000081
12047190731000100DE CASTRO LOUR ENG IND LTDA                                           00000000341000000000000000000000000000008782051800000023399955703026636 0     201211212012082200000000055240000940804000000000970404000000000000000000000000029600050000000000  3020121207   01          2                                                                                   3112339995576036884500400019                                                  N                     01321  0000000        000082
12047190731000100DE CASTRO LOUR ENG IND LTDA                                           00000000341000000000000000000000000000008782052800000023399956303026648 0     201211222012082300000000055250000976053000000001004853000000000000000000000000028800050000000000  3020121207   01          2                                                                                   3112339995634036884500400019                                                  N                     01321  0000000        000083
12047190731000100DE CASTRO LOUR ENG IND LTDA                                           00000000341000000000000000000000000000008782050900000023399953503026612 0     201209182012082100000000054600001111489000000001286369000000000000000000000000174880050000000000  3020121207   01          2                                                                                   3112339995352036884500400019                                                  N                     01321  0000000        000084
12047190731000100DE CASTRO LOUREIRO ENGENHARIA                                         0000000023703394400000000205508 000000008801224800202255000000703026784 0     201211302012083100000000055330001041759000000001053911000000000000000000000000012152050000000000  3020121207   01          2  RUA JUNO  533                                                                    300000000000000000001500  000000000000000                                     N                     00598  0000000        000085
12047190731000100DE CASTRO LOUREIRO ENGENHARIA                                         0000000023703394400000000205508 000000008801225100202255000001003026787 0     201211302012083100000000055330001135987000000001149238000000000000000000000000013251050000000000  3020121207   01          2  RUA JUNO  533                                                                    300000000000000000001500  000000000000000                                     N                     00598  0000000        000086
12047190731000100DE CASTRO LOUREIRO ENGENHARIA                                         0000000023703394400000000205508 000000008801225400202255000001303026794 0     201212032012090300000000055360001209130000000001217190000000000000000000000000008060050000000000  3020121207   01          2  RUA JUNO  533                                                                    300000000000000000001500  000000000000000                                     N                     00598  0000000        000087
12047190731000100DE CASTRO LOUREIRO ENGENHARIA                                         0000000023703394400000000205508 000000008801225500202255000001403026794 0     201211262012090300000000055290001209490000000001231666000000000000000000000000022176050000000000  3020121207   01          2  RUA JUNO  533                                                                    3                         000000000000000                                     N                     00598  0000000        000088
12047190731000100DE CASTRO LOUREIRO ENGENHARIA                                         0000000023703394400000000205508 000000008801225700202255000001603026795 0     201212032012090300000000055360001207555000000001215607000000000000000000000000008052050000000000  3020121207   01          2  RUA JUNO  533                                                                    300000000000000000001500  000000000000000                                     N                     00598  0000000        000089
12047190731000100DE CASTRO LOUR ENG IND LTDA                                           00000000341000000000000000000000000000008782052100000023399955903026643 0     201209202012082300000000054620000867039000000001000029000000000000000000000000132990050000000000  3020121207   01          2                                                                                   3112339995592036884500400049                                                  N                     01321  0000000        000090
12047190731000100DE CASTRO LOUR ENG IND LTDA                                           00000000341000000000000000000000000000008782052400000023399956003026643 0     201211222012082300000000055250000867039000000000892614000000000000000000000000025575050000000000  3020121207   01          2                                                                                   3112339995600036884500400069                                                  N                     01321  0000000        000091
12047190731000100DE CASTRO LOUR ENG IND LTDA                                           00000000341000000000000000000000000000008782052500000023399955603026636 0     201209192012082200000000054610000940804000000001086954000000000000000000000000146150050000000000  3020121207   01          2                                                                                   3112339995568036884500400049                                                  N                     01321  0000000        000092
12047190731000100DE CASTRO LOUR ENG IND LTDA                                           00000000341000000000000000000000000000009041733100000025008464903027234 0     201212062012101100000000055390001029597000000001031622000000000000000000000000002025050000000000  3020121207   01          2                                                                                   3112500846491036884500400029                                                  N                     01321  0000000        000093
12047190731000100DE CASTRO LOUR ENG IND LTDA                                           00000000341000000000000000000000000000008782059400000023602715303026745 0     201211282012082900000000055310000903175000000000919159000000000000000000000000015984050000000000  3020121207   01          2                                                                                   3112360271533036884500400039                                                  N                     01321  0000000        000094
12047190731000100DE CASTRO LOUR ENG IND LTDA                                           00000000341000000000000000000000000000008782052700000023399956203026648 0     201209202012082300000000054620000976053000000001125813000000000000000000000000149760050000000000  3020121207   01          2                                                                                   3112339995626036884500400029                                                  N                     01321  0000000        000095
12047190731000100DE CASTRO LOUR ENG IND LTDA                                           00000000341000000000000000000000000000008782052000000023399955303026632 0     201209192012082200000000054610000952073000000001099961000000000000000000000000147888050000000000  3020121207   01          2                                                                                   3112339995535036884500400019                                                  N                     01321  0000000        000096
12048775225000146SEIKI IND COM E CONFECCOES LTD                                        000000003410000000000000000000000000000089337376000000244697151014914001      201210232012092500000000054950000052000000000000055510000000000000000000000000003510050000000000  3020121207   01          2                                                                                   3112446971510017444824100089                                                  N                     01321  0000000        000097
12051180370000199IGUAFER FERRO E ACO LTDA                                              0000000034100000000000000000000000000000852309100000002239389789443 B         201209022012071800000000054440000168275000000000195155000000000000000000000000026880050000000000  3020121207   01          2                                                                                   3112239389789077149484600089                                                  N                     01321  0000000        000098
12051180370000199IGUAFER FERRO E ACO LTDA                                              0000000034100000000000000000000000000000852309110000002239389799443 C         201209122012071800000000054540000168275000000000192355000000000000000000000000024080050000000000  3020121207   01          2                                                                                   3112239389797077149484600089                                                  N                     01321  0000000        000099
12053585766000141MULTIACOS I C PRODS TEC LTDA                                          0000000042200000000000000000000000000000890456930000000000000000004724403     201211302012092500000000055330000522661000000000528757000000000000000000000000006096050000000000  3020121207   01          2                                                                                   3711500005033164925775118129                                                  N                     01321  0000000        000100
12053585766000141MULTIACOS I C PRODS TEC LTDA                                          0000000042200000000000000000000000000000890456960000000000000000004724103     201212042012092500000000055370000127900000000000128538000000000000000000000000000638050000000000  3020121207   01          2                                                                                   3711500005033164925775142129                                                  N                     01321  0000000        000101
12053585766000141MULTIACOS I C PRODS TEC LTDA                                          0000000042200000000000000000000000000000890457000000000000000000004724303     201211302012092500000000055330000268274000000000271402000000000000000000000000003128050000000000  3020121207   01          2                                                                                   3711500005033164925775177139                                                  N                     01321  0000000        000102
12053585766000141MULTIACOS I C PRODS TEC LTDA                                          0000000042200000000000000000000000000000895189350000000000000000004737203     201212042012100200000000055370000362578000000000364389000000000000000000000000001811050000000000  3020121207   01          2                                                                                   3711500005033164927761793149                                                  N                     01321  0000000        000103
12053585766000141MULTIACOS I C PRODS TEC LTDA                                          0000000042200000000000000000000000000000895189670000000000000000004750003     201212062012100200000000055390000222869000000000223239000000000000000000000000000370050000000000  3020121207   01          2                                                                                   3711500005033164927762137189                                                  N                     01321  0000000        000104
12054382510000108SETENTA IND E COM DE MADEIRAS                                         0000000034100000000000000000000000000000860403430000002277814474462 A         201209042012080700000000054460000191200000000000226544000000000000000000000000035344050000000000  3020121207   01          2                                                                                   3112277814474057049175300069                                                  N                     01321  0000000        000105
12054382510000108SETENTA IND E COM DE MADEIRAS                                         0000000034100000000000000000000000000000921267620000002584985714843 A         201212052012111400000000055380000191200000000000191952000000000000000000000000000752050000000000  3020121207   01          2                                                                                   3112584985710057049175300059                                                  N                     01321  0000000        000106
12056993512000150CYKLOP DO BRASIL EMBALAGENS SA                                        0000000034100000000000000000000000000000874070500000002362586810134932        201210012012090300000000054730000083607000000000104176000000000000000000000000020569050000000000  3020121207   01          2                                                                                   3112362586813025700015800019                                                  N                     01321  0000000        000107
12059659615000177DZ COMERCIO R E SERVICOS LTDA                                         000000003410000000000000000000000000000091358507000000900000321280            201211172012102400000000055200000060000000000000062400000000000000000000000000002400050000000000  3020121207   01          2                                                                                   3109000003217000314585100039                                                  N                     01321  0000000        000108
12061070454000123SOL IMPORTACAO EXPORTACAO INDU                                        0000000000100000000000000000000000000000919321850000005535800007146           201212042012111200000000055370000054000000000000054182000000000000000000000000000273050000000000  3020121206   06          3                                                                                   3044225535801196000055601119                                                  N                     01321  0000000        000109
12061683652000162TRANS FACE TRANSPORTES LTDA                                           0000000023700530400000000141828 0000000093452391009000000110991I000086690     201212182012120300000000055510000042648000000000042648000000000000000000000000000000050000000000  3020121218   01FS        1  R JUNO 553                                                                       3                         000000000000000                                     N                     00598  0000000        000110
12062014881000157IND MECANICA JULIAPA LTDA                                             0000000023702505400000000102229 00000000934523920140234100000042265           201301052012120600000000055690000075900000000000075900000000000000000000000000000000050000000000  3020130107   01FS        1  RUA TAMAINDE  1410                                                               3                         000000000000000                                     N                     00598  0000000        000111
12062344882000160INDUSTRIA COM PARAFUS NAP LTDA                                        00000000341000000000000000000000000000009345238400000026481977012692 1        201212282012113000000000055610000125521000000000125521000000000000000000000000000000050000000000  3020121228   01FS        1                                                                                   3112648197708482812260800039                                                  N                     01321  0000000        000112
12062344882000160INDUSTRIA COM PARAFUS NAP LTDA                                        00000000341000000000000000000000000000009345238500000026481977112692 2        201301042012113000000000055680000096552000000000096552000000000000000000000000000000050000000000  3020130104   01FS        1                                                                                   3112648197716482812260800019                                                  N                     01321  0000000        000113
12062344882000160INDUSTRIA COM PARAFUS NAP LTDA                                        00000000341000000000000000000000000000009345238100000026481977212692 3        201301112012113000000000055750000096582000000000096582000000000000000000000000000000050000000000  3020130111   01FS        1                                                                                   3112648197724482812260800039                                                  N                     01321  0000000        000114
12062510367000102ITANHAEM TRANSP DE MAQUINAS LT                                        000000003410000000000000000000000000000087407049000000236463199667            201209202012090400000000054620000248220000000000325674000000000000000000000000077454050000000000  3020121207   01          2                                                                                   3112364631997005770252400049                                                  N                     01321  0000000        000115
12062539994000176LEALFER INDUSTRIA E COMERCIO D                                        0000000003300000000000000000000000000000919321940000006400000000005787001     201212042012110500000000055370000596925000000000599969000000000000000000000000003044050000000000  3020121207   01          2                                                                                   3915298380000000288764010419                                                  N                     01321  0000000        000116
12062539994000176LEALFER INDUSTRIA E COMERCIO D                                        0000000003300000000000000000000000000000902449830000001800000000005648902     201212042012100900000000055370000447825000000000450108000000000000000000000000002283050000000000  3020121207   01          2                                                                                   3915298380000000278718010419                                                  N                     01321  0000000        000117
12062539994000176LEALFER INDUSTRIA E COMERCIO D                                        0000000003300000000000000000000000000000919321950000008000000000005786801     201212042012110500000000055370000838712000000000842989000000000000000000000000004277050000000000  3020121207   01          2                                                                                   3915298380000000288780010459                                                  N                     01321  0000000        000118
12062539994000176LEALFER INDUSTRIA E COMERCIO D                                        0000000003300000000000000000000000000000919321960000000000000000005796701     201212052012110600000000055380000298074000000000299087000000000000000000000000001013050000000000  3020121207   01          2                                                                                   3915298380000000288900010479                                                  N                     01321  0000000        000119
12062539994000176LEALFER INDUSTRIA E COMERCIO D                                        0000000003300000000000000000000000000000919321970000003400000000005797001     201212052012110600000000055380000591708000000000593719000000000000000000000000002011050000000000  3020121207   01          2                                                                                   3915298380000000288934010459                                                  N                     01321  0000000        000120
12062539994000176LEALFER INDUSTRIA E COMERCIO D                                        0000000003300000000000000000000000000000884432790000007100000000005479103     201212042012091100000000055370001068982000000001074433000000000000000000000000005451050000000000  3020121207   01          2                                                                                   3915298380000000266671010419                                                  N                     01321  0000000        000121
12062539994000176LEALFER IN E COM DE ACO LTDA                                          0000000034100000000000000000000000000000878205640000002342264080005379803     201211282012082200000000055310000912975000000000912975000000000000000000000000000000050000000000  3020121128   06          3                                                                                   3112342264085076103324000099                                                  N                     01321  0000000        000122
12064952757000168WALMAC COM DE PROD QUIMICOS LT                                        0000000034100000000000000000000000000000896979510000002462157570021611        201211292012100400000000055320000219267000000000222715000000000000000000000000003448050000000000  3020121207   01          2                                                                                   3112462157572064807961400059                                                  N                     01321  0000000        000123
12064952757000168WALMAC COM DE PROD QUIMICOS LT                                        0000000034100000000000000000000000000000860403450000002275821700020148        201210052012080300000000054770000219267000000000246420000000000000000000000000027153050000000000  3020121207   01          2                                                                                   3112275821703064807961400029                                                  N                     01321  0000000        000124
12066841552000130R V SEG PATRIMONIAL S C LTDA                                          00000000341000000000000000000000000000008887329800000090002213622136          201210102012091100000000054820000374758000000000382008000000000000000000000000007250050000000000  3020121207   01          2                                                                                   3109000221365001838994000069                                                  N                     01321  0000000        000125
12066841552000130R V SEG PATRIMONIAL LTDA                                              00000000341000000000000000000000000000008852483200000090002192721927          201209102012081000000000054520000483241000000000497409000000000000000000000000014168050000000000  3020121207   01          2                                                                                   3109000219270001835253400099                                                  N                     01321  0000000        000126
12066899790000105FABRICA ARTEF LATEX ESTRELA EP                                        00000000399000000000000000000000000000008819134400000000000000078480 003      201211272012091300000000055300000530784000000000530784000000000000000000000000000000050000000000  3020121127   05          3                                                                                   3175978755681125027292500139                                                  N                     01321  0000000        000127
12069284248000128ISOCOAT TINTAS E VERNIZES LTDA                                        0000000034100000000000000000000000000000888732960000002421485720055761        201211202012092100000000055230000093324000000000097308000000000000000000000000004233050000000000  3020121206   06          3                                                                                   3112421485726077430121200069                                                  N                     01321  0000000        000128
12069284248000128ISOCOAT TINTAS E VERNIZES LTDA                                        0000000034100000000000000000000000000000895189840000002456588200056254        201212032012100200000000055360000317968000000000320512000000000000000000000000003392050000000000  3020121206   06          3                                                                                   3112456588204077430121200019                                                  N                     01321  0000000        000129
12069284248000128ISOCOAT TINTAS E VERNIZES LTDA                                        0000000034100000000000000000000000000000911410140000002506612020057027        201212032012101900000000055360000365668000000000368593000000000000000000000000003900050000000000  3020121206   06          3                                                                                   3112506612020077430121200099                                                  N                     01321  0000000        000130
12069284248000128ISOCOAT TINTAS E VERNIZES LTDA                                        0000000034100000000000000000000000000000841061040000002182507930052085        201209172012070200000000054590000236130000000000287160000000000000000000000000051030050000000000  3020121207   01          2                                                                                   3112182507932077430121200019                                                  N                     01321  0000000        000131
12071580302000124SANCHEPEL IND PAULISTA EMB L                                          0000000034100000000000000000000000000000925640540000002544351508068           201211292012103100000000055320000180424000000000180424000000000000000000000000000000050000000000  3020121129   05          3                                                                                   3112544351508007879533300019                                                  N                     01321  0000000        000132
12096500087000135WORKBENCH CONSULTORIA S S LTDA                                        0000000034100000000000000000000000000000931455200000007066841053269           201212272012120300000000055600000131746000000000131746000000000000000000000000000000050000000000  3020121227   05          3                                                                                   3157066841053826313803700019                                                  N                     01321  0000000        000133
900013400000000063153127                                                                                                                                                                                                                                                                                                                                                                                                                                                                01321  0000000        000134
