0000147602043799295000110ALTAMIRA INDUSTRIA METALURGICA LT       202000000018420121208055658             1                                                                                                                                                                                                                                                                                                                                                                                                    000001
12001895314000162COLETA INDUSTRIAL FIMAVAN LTDA                                        0000000034100000000000000000000000000000866992070000009002335349439           201208272012081700000000054380000123695000000000160714000000000000000000000000037019050000000000  3020121210   01          2                                                                                   3109002335346144604097200019                                                  N                     01321  0000000        000002
12002234917000186RODOVIARIO SOL NASCENTE LTDA                                          000000000010000000000000000000000000000093540015000000847643000035741         201212312012120600000000055640000060000000000000060000000000000000000000000000000000050000000000  3020121231   01FS        1                                                                                   3044298476433028000124731129                                                  N                     01321  0000000        000003
12003102481000134AB5 IND E COMERCIO LTDA EPP                                           0000000034100000000000000000000000000000909203330000009000042483169           201211202012102300000000055230000119250000000000123230000000000000000000000000003980050000000000  3020121210   01          2                                                                                   3109000042489003154755700039                                                  N                     01321  0000000        000004
12003489596000123BEND FLEX I COMERCIO LTDA                                             000000003410000000000000000000000000000088599899000000171434574613            201209172012081600000000054590000585000000000000681684000000000000000000000000096684050000000000  3020121210   01          2                                                                                   3191714345748157734445800019                                                  N                     01321  0000000        000005
12003489596000123BEND FLEX I COMERCIO LTDA                                             000000003410000000000000000000000000000088350832000000171879874608            201209122012082100000000054540000695250000000000816913000000000000000000000000121663050000000000  3020121210   01          2                                                                                   3191718798744157734445800069                                                  N                     01321  0000000        000006
12005151518000140BELENUS DO BRASIL LTDA                                                000000000330000000000000000000000000000093540008000000910000000R133232622     201302022012120400000000055970000460800000000000460800000000000000000000000000000000050000000000  3020130204   01FS        1                                                                                   3918381050000000565091010489                                                  N                     01321  0000000        000007
12005151518000140BELENUS DO BRASIL LTDA                                                000000000330000000000000000000000000000093540009000000050000000R133232632     201303042012120400000000056270000460800000000000460800000000000000000000000000000000050000000000  3020130304   01FS        1                                                                                   3918381050000000565105010489                                                  N                     01321  0000000        000008
12005151518000140BELENUS DO BRASIL LTDA                                                000000000330000000000000000000000000000093540010000000830000000R133232612     201301032012120400000000055670000599040000000000599040000000000000000000000000000000050000000000  3020130103   01FS        1                                                                                   3918381050000000565083010469                                                  N                     01321  0000000        000009
12005880850000145NEDERMAN BRASIL COM PROD EX LT                                        000000003410000000000000000000000000000086373178000000614350956002763 A       201209252012081400000000054670000289674000000000332994000000000000000000000000043320050000000000  3020121210   01          2                                                                                   3156143509568160829000100049                                                  N                     01321  0000000        000010
12006000195000156MBA MERCANTIL BRAS DE ACO LTDA                                        0000000034100000000000000000000000000000904173150000001667238300008870B03     201210092012071600000000054810000839951000000000942375000000000000000000000000102424050000000000  3020121210   01          2                                                                                   3191667238304064849251000039                                                  N                     01321  0000000        000011
12006000195000156MBA MERCANTIL BRAS DE ACO LTDA                                        0000000034100000000000000000000000000000887698090000001671394550008925B02     201209142012071700000000054560000719581000000000842686000000000000000000000000123105050000000000  3020121210   01          2                                                                                   3191671394556064849251000089                                                  N                     01321  0000000        000012
12006000195000156MBA MERCANTIL BRAS DE ACO LTDA                                        0000000034100000000000000000000000000000904173160000001667238280008876B03     201210122012071600000000054840000810320000000000904366000000000000000000000000094046050000000000  3020121210   01          2                                                                                   3191667238288064849251000079                                                  N                     01321  0000000        000013
12006000195000156MBA MERCANTIL BRAS DE ACO LTDA                                        0000000034100000000000000000000000000000887698100000001671394560008926B02     201209142012071700000000054560000387716000000000454097000000000000000000000000066381050000000000  3020121210   01          2                                                                                   3191671394564064849251000019                                                  N                     01321  0000000        000014
12006000195000156MBA MERCANTIL BRAS DE ACO LTDA                                        0000000034100000000000000000000000000000885998980000001667238420008870B02     201209112012071600000000054530000839952000000000988632000000000000000000000000148680050000000000  3020121210   01          2                                                                                   3191667238429064849251000039                                                  N                     01321  0000000        000015
12006000195000156MBA MERCANTIL BRAS DE ACO LTDA                                        0000000034100000000000000000000000000000889578520000001671394540008920B02     201209162012071700000000054580000576585000000000672975000000000000000000000000096390050000000000  3020121210   01          2                                                                                   3191671394549064849251000099                                                  N                     01321  0000000        000016
12006000195000156MBA MERCANTIL BRAS DE ACO LTDA                                        0000000034100000000000000000000000000000904173170000001671394420008925B03     201210122012071700000000054840000719580000000000803065000000000000000000000000083485050000000000  3020121210   01          2                                                                                   3191671394424064849251000069                                                  N                     01321  0000000        000017
12006000195000156MBA MERCANTIL BRAS DE ACO LTDA                                        0000000034100000000000000000000000000000904173180000001671394430008926B03     201210122012071700000000054840000387716000000000432733000000000000000000000000045017050000000000  3020121210   01          2                                                                                   3191671394432064849251000079                                                  N                     01321  0000000        000018
12006000195000156MBA MERCANTIL BRAS DE ACO LTDA                                        0000000034100000000000000000000000000000906662670000001671394410008920B03     201210142012071700000000054860000576584000000000641222000000000000000000000000064638050000000000  3020121210   01          2                                                                                   3191671394416064849251000039                                                  N                     01321  0000000        000019
12006000195000156M B A MERCANTIL BRASILEIRA DE                                         0000000023700118P00000002130599 00000000919321910020231800000160010234B01     201212062012110800000000055390000996082000000001002722000000000000000000000000006640050000000000  3020121210   01          2  RUA JUNO  533                                                                    3                         000000000000000                                     N                     00598  0000000        000020
12006000195000156MBA MERCANTIL BRAS DE ACO LTDA                                        0000000034100000000000000000000000000000915733750000002553913860010076B01     201211232012102600000000055260000659304000000000659304000000000000000000000000000000050000000000  3020121123   05          3                                                                                   3112553913867064899001800019                                                  N                     01321  0000000        000021
12006000195000156MBA MERCANTIL BRAS DE ACO LTDA                                        0000000034100000000000000000000000000000915733770000002553913890010077B01     201211242012102600000000055270000324849000000000324849000000000000000000000000000000050000000000  3020121126   05          3                                                                                   3112553913891064899001800019                                                  N                     01321  0000000        000022
12006000195000156MBA MERCANTIL BRAS DE ACO LTDA                                        0000000034100000000000000000000000000000915733830000002553913920010078B01     201211252012102600000000055280000964068000000000964068000000000000000000000000000000050000000000  3020121126   05          3                                                                                   3112553913925064899001800059                                                  N                     01321  0000000        000023
12006066698000124NOVO REINO LOGISTICA E TRANSPO                                        000000000010000000000000000000000000000093540014000000861563000165322         201212262012120600000000055590000005500000000000005500000000000000000000000000000000050000000000  3020121226   01FS        1                                                                                   3044298615631584001800001199                                                  N                     01321  0000000        000024
12006209559000102MAZURKY IND COM EMB LTDA                                              000000003410000000000000000000000000000090751877000000252039994010684 3       201211262012101500000000055290000092264000000000092264000000000000000000000000000000050000000000  3020121126   06          3                                                                                   3112520399943151434240900019                                                  N                     01321  0000000        000025
12007289649000113CRC LASER SUPR INF LTDA EPP                                           000000003410000000000000000000000000000093540017000000707601793000001259      201301042012120700000000055680000014970000000000014970000000000000000000000000000000050000000000  3020130104   01FS        1                                                                                   3157076017934000265431700039                                                  N                     01321  0000000        000026
12008272923000104P SANTOS ESQUADRARIAS METAL ME                                        0000000034100000000000000000000000000000915734100000006159682651954           201212052012110700000000055380000408138000000000421741000000000000000000000000013603050000000000  3020121210   01          2                                                                                   3156159682654160141951600029                                                  N                     01321  0000000        000027
12008272923000104P SANTOS ESQUADRARIAS METAL ME                                        0000000034100000000000000000000000000000896979550000006153947641850           201211222012100800000000055250000400000000000000427206000000000000000000000000027206050000000000  3020121210   01          2                                                                                   3156153947640160141951600039                                                  N                     01321  0000000        000028
12008594182000188ACOS G3 COMERCIO E BENEFICIAME                                        0000000023703137200000000091332 00000000929490170090227100000261155        002201211222012092700000000055250000152347000000000156231000000000000000000000000003889050000000000  3020121207   05          3  RUA GANGES  528                                                                  3                         000000000000000                                     N                     00598  0000000        000029
12008879248000186FREFER METAL PLUS                                                     000000003410000000000000000000000000000091833884000000256609812EMO013946A     201212052012110700000000055380000535589000000000539069000000000000000000000000003480050000000000  3020121210   01          2                                                                                   3112566098128293811346700089                                                  N                     01321  0000000        000030
12009338857000190FERNANDO  NAGAO  CARDONE  ALVA                                        000000000330000000000000000000000000000091653176000000300000000ALTA 11 2012   201211202012103000000000055230000134632000000000144058000000000000000000000000009426050000000000  3020121210   01          2                                                                                   3947901700000051051630010119                                                  N                     01321  0000000        000031
12009338857000190FERNANDO  NAGAO  CARDONE  ALVA                                        000000000330000000000000000000000000000089697936000000800000000ALTA 10 2012   201210202012092500000000054920000134632000000000156582000000000000000000000000021950050000000000  3020121210   01          2                                                                                   3947901700000051050080010129                                                  N                     01321  0000000        000032
12009630445000120MARIANA DE QUEIROZ SILVA   GRA                                        0000000000100000000000000000000000000000935400160000000002090000745           201301042012120600000000055680000048500000000000048500000000000000000000000000000000050000000000  3020130104   01FS        1                                                                                   3000000167849100000002091779                                                  N                     01321  0000000        000033
12011389422000117NELSON RODRIGUES DA SILVA JUNI                                        00000000104000000000000000000000000000009354001100000000214100017168          201212282012120600000000055610000011000000000000011000000000000000000000000000000000050000000000  3020121228   01FS        1                                                                                   3900000214102478700000058719                                                  N                     01321  0000000        000034
12012006058000121WEG TINTAS LTDA                                                       0000000023702727800000000001309 00000000870177500090224100000990016248003     201211102012082700000000055130000306662000000000318902000000000000000000000000012240050000000000  3020121210   01          2  R JUNO  533                                                                      3                         000000000000000                                     N                     00598  0000000        000035
12012006058000121WEG TINTAS LTDA                                                       0000000023702727800000000001309 00000000872318670090224700001050016359603     201211142012083100000000055170000459992000000000475930000000000000000000000000015938050000000000  3020121210   01          2  R JUNO  533                                                                      3                         000000000000000                                     N                     00598  0000000        000036
12012006058000121WEG TINTAS LTDA                                                       0000000023702727800000000001309 00000000878206060090225400000800016517203     201211202012090600000000055230000459992000000000472252000000000000000000000000012260050000000000  3020121210   01          2  R JUNO  533                                                                      3                         000000000000000                                     N                     00598  0000000        000037
12012006058000121WEG TINTAS LTDA                                                       0000000023702727800000000001309 00000000882668420090225800000750016626902     201211122012091300000000055150000459854000000000477018000000000000000000000000017164050000000000  3020121210   01          2  R JUNO  533                                                                      3                         000000000000000                                     N                     00598  0000000        000038
12012006058000121WEG TINTAS LTDA                                                       0000000023702727800000000001309 00000000882668430090225800000760016626903     201211272012091300000000055300000459992000000000467961000000000000000000000000007969050000000000  3020121210   01          2  R JUNO  533                                                                      3                         000000000000000                                     N                     00598  0000000        000039
12042956441000101SOLUCOES ACO USIMINAS                                                 0000000034100000000000000000000000000000853154840000002246247030017196702     201209202012072500000000054620000234841000000000272911000000000000000000000000038070050000000000  3020121210   01          2                                                                                   3112246247038293807258000099                                                  N                     01321  0000000        000040
12042956441000101SOLUCOES ACO USIMINAS                                                 0000000034100000000000000000000000000000846595700000002210880280016980502     201209102012071200000000054520000156071000000000184463000000000000000000000000028392050000000000  3020121210   01          2                                                                                   3112210880285293807258000039                                                  N                     01321  0000000        000041
12042956441000101SOLUCOES ACO USIMINAS                                                 0000000034100000000000000000000000000000846595710000002210880290016980602     201209102012071200000000054520000426094000000000503626000000000000000000000000077532050000000000  3020121210   01          2                                                                                   3112210880293293807258000019                                                  N                     01321  0000000        000042
12042956441000101SOLUCOES ACO USIMINAS                                                 0000000034100000000000000000000000000000847452070000002216130350005922202     201209102012071600000000054520000172071000000000203375000000000000000000000000031304050000000000  3020121210   01          2                                                                                   3112216130354293807258000049                                                  N                     01321  0000000        000043
12042956441000101SOLUCOES ACO USIMINAS                                                 0000000034100000000000000000000000000000847452100000002216130340017012402     201209102012071500000000054520000147428000000000174273000000000000000000000000026845050000000000  3020121210   01          2                                                                                   3112216130347293807258000059                                                  N                     01321  0000000        000044
12042956441000101SOLUCOES ACO USIMINAS                                                 0000000034100000000000000000000000000000848180700000002220192900017041002     201209112012071700000000054530000155433000000000183423000000000000000000000000027990050000000000  3020121210   01          2                                                                                   3112220192903293807258000029                                                  N                     01321  0000000        000045
12042956441000101SOLUCOES ACO USIMINAS                                                 0000000034100000000000000000000000000000848180710000002220192910017041202     201209112012071700000000054530000205421000000000242411000000000000000000000000036990050000000000  3020121210   01          2                                                                                   3112220192911293807258000019                                                  N                     01321  0000000        000046
12042956441000101SOLUCOES ACO USIMINAS                                                 0000000034100000000000000000000000000000853154850000002246247040017197302     201209202012072500000000054620000970103000000001127243000000000000000000000000157140050000000000  3020121210   01          2                                                                                   3112246247046293807258000019                                                  N                     01321  0000000        000047
12042956441000101SOLUCOES ACO USIMINAS                                                 0000000034100000000000000000000000000000855028690000002254329380017212902     201209212012072600000000054630000140098000000000162498000000000000000000000000022400050000000000  3020121210   01          2                                                                                   3112254329389293807258000019                                                  N                     01321  0000000        000048
12042956441000101SOLUCOES ACO USIMINAS                                                 0000000034100000000000000000000000000000855028700000002254329390017213002     201209212012072600000000054630000140602000000000163082000000000000000000000000022480050000000000  3020121210   01          2                                                                                   3112254329397293807258000089                                                  N                     01321  0000000        000049
12042956441000101SOLUCOES ACO USIMINAS                                                 0000000034100000000000000000000000000000855028770000002254329400017220502     201209212012072700000000054630000981022000000001137982000000000000000000000000156960050000000000  3020121210   01          2                                                                                   3112254329405293807258000099                                                  N                     01321  0000000        000050
12042956441000101SOLUCOES ACO USIMINAS                                                 0000000034100000000000000000000000000000856906410000002262886280017266201     201208282012073000000000054390000119472000000000144328000000000000000000000000024856050000000000  3020121210   01          2                                                                                   3112262886289293807258000089                                                  N                     01321  0000000        000051
12042956441000101SOLUCOES ACO USIMINAS                                                 0000000034100000000000000000000000000000856906420000002262886290017266301     201208282012073000000000054390000145069000000000175229000000000000000000000000030160050000000000  3020121210   01          2                                                                                   3112262886297293807258000099                                                  N                     01321  0000000        000052
12042956441000101SOLUCOES ACO USIMINAS                                                 0000000034100000000000000000000000000000859590620000002274469790017353702     201209282012080300000000054700000081053000000000092879000000000000000000000000011826050000000000  3020121210   01          2                                                                                   3112274469793293807258000069                                                  N                     01321  0000000        000053
12042956441000101SOLUCOES ACO USIMINAS                                                 0000000034100000000000000000000000000000850740460000002233586800017127201     201208202012072000000000054310000137881000000000168793000000000000000000000000030912050000000000  3020121210   01          2                                                                                   3112233586802293807258000019                                                  N                     01321  0000000        000054
12042956441000101SOLUCOES ACO USIMINAS                                                 0000000034100000000000000000000000000000850740470000002233586810017101002     201209142012071900000000054560000732575000000000860030000000000000000000000000127455050000000000  3020121210   01          2                                                                                   3112233586810293807258000019                                                  N                     01321  0000000        000055
12042956441000101SOLUCOES ACO USIMINAS                                                 0000000034100000000000000000000000000000850740480000002233586820017101202     201209142012071900000000054560000144634000000000169777000000000000000000000000025143050000000000  3020121210   01          2                                                                                   3112233586828293807258000029                                                  N                     01321  0000000        000056
12047190731000100DE CASTRO LOUR ENG IND LTDA                                           00000000341000000000000000000000000000008996247900000024766209203027184 0     201211302012100500000000055330001153047000000001175727000000000000000000000000022680050000000000  3020121210   01          2                                                                                   3112476620920036884500400089                                                  N                     01321  0000000        000057
12047190731000100DE CASTRO LOUR ENG IND LTDA                                           00000000341000000000000000000000000000009041732900000025008464603027216 0     201212052012101000000000055380000225377000000000227592000000000000000000000000002215050000000000  3020121210   01          2                                                                                   3112500846467036884500400029                                                  N                     01321  0000000        000058
12047190731000100DE CASTRO LOUR ENG IND LTDA                                           00000000341000000000000000000000000000009041733100000025008464903027234 0     201212062012101100000000055390001029597000000001037697000000000000000000000000008100050000000000  3020121210   01          2                                                                                   3112500846491036884500400029                                                  N                     01321  0000000        000059
12047190731000100DE CASTRO LOUR ENG IND LTDA                                           00000000341000000000000000000000000000008782050900000023399953503026612 0     201209182012082100000000054600001111489000000001292927000000000000000000000000181438050000000000  3020121210   01          2                                                                                   3112339995352036884500400019                                                  N                     01321  0000000        000060
12047190731000100DE CASTRO LOUR ENG IND LTDA                                           00000000341000000000000000000000000000008782051200000023399953803026613 0     201209182012082100000000054600001107989000000001288846000000000000000000000000180857050000000000  3020121210   01          2                                                                                   3112339995386036884500400039                                                  N                     01321  0000000        000061
12047190731000100DE CASTRO LOUR ENG IND LTDA                                           00000000341000000000000000000000000000008782051300000023399953903026613 0     201211202012082100000000055230001107989000000001151569000000000000000000000000043580050000000000  3020121210   01          2                                                                                   3112339995394036884500400019                                                  N                     01321  0000000        000062
12047190731000100DE CASTRO LOUR ENG IND LTDA                                           00000000341000000000000000000000000000008782051500000023399953603026612 0     201211202012082100000000055230001111489000000001155209000000000000000000000000043720050000000000  3020121210   01          2                                                                                   3112339995360036884500400079                                                  N                     01321  0000000        000063
12047190731000100DE CASTRO LOUR ENG IND LTDA                                           00000000341000000000000000000000000000008782051600000023399954103026614 0     201209182012082100000000054600001047621000000001218601000000000000000000000000170980050000000000  3020121210   01          2                                                                                   3112339995410036884500400039                                                  N                     01321  0000000        000064
12047190731000100DE CASTRO LOUR ENG IND LTDA                                           00000000341000000000000000000000000000008782051700000023399954203026614 0     201211202012082100000000055230001047621000000001088821000000000000000000000000041200050000000000  3020121210   01          2                                                                                   3112339995428036884500400079                                                  N                     01321  0000000        000065
12047190731000100DE CASTRO LOUR ENG IND LTDA                                           00000000341000000000000000000000000000008782051800000023399955703026636 0     201211212012082200000000055240000940804000000000975954000000000000000000000000035150050000000000  3020121210   01          2                                                                                   3112339995576036884500400019                                                  N                     01321  0000000        000066
12047190731000100DE CASTRO LOUR ENG IND LTDA                                           00000000341000000000000000000000000000008782052000000023399955303026632 0     201209192012082200000000054610000952073000000001105577000000000000000000000000153504050000000000  3020121210   01          2                                                                                   3112339995535036884500400019                                                  N                     01321  0000000        000067
12047190731000100DE CASTRO LOUR ENG IND LTDA                                           00000000341000000000000000000000000000008782052100000023399955903026643 0     201209202012082300000000054620000867039000000001005144000000000000000000000000138105050000000000  3020121210   01          2                                                                                   3112339995592036884500400049                                                  N                     01321  0000000        000068
12047190731000100DE CASTRO LOUR ENG IND LTDA                                           00000000341000000000000000000000000000008782052400000023399956003026643 0     201211222012082300000000055250000867039000000000897729000000000000000000000000030690050000000000  3020121210   01          2                                                                                   3112339995600036884500400069                                                  N                     01321  0000000        000069
12047190731000100DE CASTRO LOUR ENG IND LTDA                                           00000000341000000000000000000000000000008782052500000023399955603026636 0     201209192012082200000000054610000940804000000001092504000000000000000000000000151700050000000000  3020121210   01          2                                                                                   3112339995568036884500400049                                                  N                     01321  0000000        000070
12047190731000100DE CASTRO LOUR ENG IND LTDA                                           00000000341000000000000000000000000000008782052700000023399956203026648 0     201209202012082300000000054620000976053000000001131573000000000000000000000000155520050000000000  3020121210   01          2                                                                                   3112339995626036884500400029                                                  N                     01321  0000000        000071
12047190731000100DE CASTRO LOUR ENG IND LTDA                                           00000000341000000000000000000000000000008782052800000023399956303026648 0     201211222012082300000000055250000976053000000001010613000000000000000000000000034560050000000000  3020121210   01          2                                                                                   3112339995634036884500400019                                                  N                     01321  0000000        000072
12047190731000100DE CASTRO LOUR ENG IND LTDA                                           00000000341000000000000000000000000000008782059400000023602715303026745 0     201211282012082900000000055310000903175000000000924487000000000000000000000000021312050000000000  3020121210   01          2                                                                                   3112360271533036884500400039                                                  N                     01321  0000000        000073
12047190731000100DE CASTRO LOUR ENG IND LTDA                                           00000000341000000000000000000000000000008782059500000023602714703026734 0     201211272012082800000000055300000997834000000001023340000000000000000000000000025506050000000000  3020121210   01          2                                                                                   3112360271475036884500400019                                                  N                     01321  0000000        000074
12047190731000100DE CASTRO LOUR ENG IND LTDA                                           00000000341000000000000000000000000000008782059900000023602715003026744 0     201211292012082900000000055320000146594000000000149762000000000000000000000000003168050000000000  3020121210   01          2                                                                                   3112360271509036884500400069                                                  N                     01321  0000000        000075
12047190731000100DE CASTRO LOUREIRO ENGENHARIA                                         0000000023703394400000000205508 000000008801225500202255000001403026794 0     201211262012090300000000055290001209490000000001237714000000000000000000000000028224050000000000  3020121210   01          2  RUA JUNO  533                                                                    3                         000000000000000                                     N                     00598  0000000        000076
12048775225000146SEIKI IND COM E CONFECCOES LTD                                        000000003410000000000000000000000000000089337376000000244697151014914001      201210232012092500000000054950000052000000000000055744000000000000000000000000003744050000000000  3020121210   01          2                                                                                   3112446971510017444824100089                                                  N                     01321  0000000        000077
12051180370000199IGUAFER FERRO E ACO LTDA                                              0000000034100000000000000000000000000000852309100000002239389789443 B         201209022012071800000000054440000168275000000000195995000000000000000000000000027720050000000000  3020121210   01          2                                                                                   3112239389789077149484600089                                                  N                     01321  0000000        000078
12051180370000199IGUAFER FERRO E ACO LTDA                                              0000000034100000000000000000000000000000852309110000002239389799443 C         201209122012071800000000054540000168275000000000193195000000000000000000000000024920050000000000  3020121210   01          2                                                                                   3112239389797077149484600089                                                  N                     01321  0000000        000079
12053585766000141MULTIACOS I C PRODS TEC LTDA                                          0000000042200000000000000000000000000000895189350000000000000000004737203     201212042012100200000000055370000362578000000000366201000000000000000000000000003623050000000000  3020121210   01          2                                                                                   3711500005033164927761793149                                                  N                     01321  0000000        000080
12053585766000141MULTIACOS I C PRODS TEC LTDA                                          0000000042200000000000000000000000000000895189670000000000000000004750003     201212062012100200000000055390000222869000000000224352000000000000000000000000001483050000000000  3020121210   01          2                                                                                   3711500005033164927762137189                                                  N                     01321  0000000        000081
12053585766000141MULTIACOS I C PRODS TEC LTDA                                          0000000042200000000000000000000000000000890456960000000000000000004724103     201212042012092500000000055370000127900000000000129177000000000000000000000000001277050000000000  3020121210   01          2                                                                                   3711500005033164925775142129                                                  N                     01321  0000000        000082
12054382510000108SETENTA IND E COM DE MADEIRAS                                         0000000034100000000000000000000000000000921267620000002584985714843 A         201212052012111400000000055380000191200000000000193080000000000000000000000000001880050000000000  3020121210   01          2                                                                                   3112584985710057049175300059                                                  N                     01321  0000000        000083
12054382510000108SETENTA IND E COM DE MADEIRAS                                         0000000034100000000000000000000000000000860403430000002277814474462 A         201209042012080700000000054460000191200000000000227672000000000000000000000000036472050000000000  3020121210   01          2                                                                                   3112277814474057049175300069                                                  N                     01321  0000000        000084
12056993512000150CYKLOP DO BRASIL EMBALAGENS SA                                        0000000034100000000000000000000000000000874070500000002362586810134932        201210012012090300000000054730000083607000000000105097000000000000000000000000021490050000000000  3020121210   01          2                                                                                   3112362586813025700015800019                                                  N                     01321  0000000        000085
12059659615000177DZ COMERCIO R E SERVICOS LTDA                                         000000003410000000000000000000000000000091358507000000900000321280            201211172012102400000000055200000060000000000000062760000000000000000000000000002760050000000000  3020121210   01          2                                                                                   3109000003217000314585100039                                                  N                     01321  0000000        000086
12062510367000102ITANHAEM TRANSP DE MAQUINAS LT                                        000000003410000000000000000000000000000087407049000000236463199667            201209202012090400000000054620000248220000000000328653000000000000000000000000080433050000000000  3020121210   01          2                                                                                   3112364631997005770252400049                                                  N                     01321  0000000        000087
12062539994000176LEALFER INDUSTRIA E COMERCIO D                                        0000000003300000000000000000000000000000919321960000000000000000005796701     201212052012110600000000055380000298074000000000300607000000000000000000000000002533050000000000  3020121210   01          2                                                                                   3915298380000000288900010479                                                  N                     01321  0000000        000088
12062539994000176LEALFER INDUSTRIA E COMERCIO D                                        0000000003300000000000000000000000000000884432800000003600000000005502003     201212072012091300000000055400000839516000000000843797000000000000000000000000004281050000000000  3020121210   01          2                                                                                   3915298380000000266736010439                                                  N                     01321  0000000        000089
12062539994000176LEALFER INDUSTRIA E COMERCIO D                                        0000000003300000000000000000000000000000919321970000003400000000005797001     201212052012110600000000055380000591708000000000596737000000000000000000000000005029050000000000  3020121210   01          2                                                                                   3915298380000000288934010459                                                  N                     01321  0000000        000090
12064952757000168WALMAC COM DE PROD QUIMICOS LT                                        0000000034100000000000000000000000000000896979510000002462157570021611        201211292012100400000000055320000219267000000000224008000000000000000000000000004741050000000000  3020121210   01          2                                                                                   3112462157572064807961400059                                                  N                     01321  0000000        000091
12064952757000168WALMAC COM DE PROD QUIMICOS LT                                        0000000034100000000000000000000000000000860403450000002275821700020148        201210052012080300000000054770000219267000000000247713000000000000000000000000028446050000000000  3020121210   01          2                                                                                   3112275821703064807961400029                                                  N                     01321  0000000        000092
12066841552000130R V SEG PATRIMONIAL LTDA                                              00000000341000000000000000000000000000008852483200000090002192721927          201209102012081000000000054520000483241000000000497892000000000000000000000000014651050000000000  3020121210   01          2                                                                                   3109000219270001835253400099                                                  N                     01321  0000000        000093
12066841552000130R V SEG PATRIMONIAL S C LTDA                                          00000000341000000000000000000000000000008887329800000090002213622136          201210102012091100000000054820000374758000000000382383000000000000000000000000007625050000000000  3020121210   01          2                                                                                   3109000221365001838994000069                                                  N                     01321  0000000        000094
12066899790000105FABRICA ARTEF LATEX ESTRELA EP                                        00000000399000000000000000000000000000008826685100000000000000078599 003      201211282012091400000000055310000130200000000000130200000000000000000000000000000000050000000000  3020121128   05          3                                                                                   3175991710371125027292500139                                                  N                     01321  0000000        000095
12067300160000127OSACO PRODUTOS SIDERURGICOS LT                                        0000000023702415500000000063002 0000000091141011009024151670122662 01 01      201211212012103100000000055240000106118000000000112487000000000000000000000000006900050000000000  3020121127   06          3  RUA JUNO  533                                                                    3                         000000000000000                                     N                     00598  0000000        000096
12069284248000128ISOCOAT TINTAS E VERNIZES LTDA                                        0000000034100000000000000000000000000000841061040000002182507930052085        201209172012070200000000054590000236130000000000289050000000000000000000000000052920050000000000  3020121210   01          2                                                                                   3112182507932077430121200019                                                  N                     01321  0000000        000097
12071580302000124SANCHEPEL IND PAULISTA EMB L                                          0000000034100000000000000000000000000000935400120000002654973478267 01        201301022012120400000000055660000089545000000000089545000000000000000000000000000000050000000000  3020130102   01FS        1                                                                                   3112654973471007855578600019                                                  N                     01321  0000000        000098
12071580302000124SANCHEPEL IND PAULISTA EMB L                                          0000000034100000000000000000000000000000935400130000002654973488267 02        201301172012120400000000055810000089545000000000089545000000000000000000000000000000050000000000  3020130117   01FS        1                                                                                   3112654973489007855578600039                                                  N                     01321  0000000        000099
12081560047000101ACEVILLE TRANSPORTES LTDA                                             000000000330000000000000000000000000000092654656000000800000000291008         201212072012112600000000055400000041000000000000041000000000000000000000000000000000050000000000  3020121207   06          3                                                                                   3913555200000002910080010179                                                  N                     01321  0000000        000100
900010100000000049643052                                                                                                                                                                                                                                                                                                                                                                                                                                                                01321  0000000        000101
