0000147602043799295000110ALTAMIRA INDUSTRIA METALURGICA LT       202000000020220130108060542             1                                                                                                                                                                                                                                                                                                                                                                                                    000001
12003489596000123BEND FLEX I COMERCIO LTDA                                             000000003410000000000000000000000000000088599899000000171434574613            201209172012081600000000054590000585000000000000715063000000000000000000000000130063050000000000  3020130108   01          2                                                                                   3191714345748157734445800019                                                  N                     01321  0000000        000002
12003489596000123BEND FLEX I COMERCIO LTDA                                             000000003410000000000000000000000000000088350832000000171879874608            201209122012082100000000054540000695250000000000856556000000000000000000000000161306050000000000  3020130108   01          2                                                                                   3191718798744157734445800069                                                  N                     01321  0000000        000003
12005151518000140BELENUS DO BRASIL LTDA                                                000000000330000000000000000000000000000093540010000000830000000R133232612     201301032012120400000000055670000599040000000000608924000000000000000000000000009884050000000000  3020130108   01          2                                                                                   3918381050000000565083010469                                                  N                     01321  0000000        000004
12005214618000178VISION GESTAO EMP E FOM MERCAN                                        0000000023700088400000000730084 0000000092757541002000880017158000259         201301092012112600000000055730001000000000000001000000000000000000000000000000002000050000000000  3020130109   01          2  RUA TAMAINDE  1410  VILA NOVA MANCHESTERCORREA MONTAGENS INDUSTRIAIS LTDA   EPP  300000000000000000141500  012711129000197                                     N                     00598  0000000        000005
12005753978000148HUMAN SERVICOS P C MOVEL LTDA                                         0000000034100000000000000000000000000000950799890000009001115870000111587     201301202013010200000000055840000013000000000000013000000000000000000000000000000000050000000000  3020130121   01FS        1                                                                                   3109001115870057948896600069                                                  N                     01321  0000000        000006
12005880850000145NEDERMAN BRASIL COM PROD EX LT                                        000000003410000000000000000000000000000086373178000000614350956002763 A       201209252012081400000000054670000289674000000000349524000000000000000000000000059850050000000000  3020130108   01          2                                                                                   3156143509568160829000100049                                                  N                     01321  0000000        000007
12006000195000156MBA MERCANTIL BRAS DE ACO LTDA                                        0000000034100000000000000000000000000000887698090000001671394550008925B02     201209142012071700000000054560000719581000000000883721000000000000000000000000164140050000000000  3020130108   01          2                                                                                   3191671394556064849251000089                                                  N                     01321  0000000        000008
12006000195000156MBA MERCANTIL BRAS DE ACO LTDA                                        0000000034100000000000000000000000000000887698100000001671394560008926B02     201209142012071700000000054560000387716000000000476224000000000000000000000000088508050000000000  3020130108   01          2                                                                                   3191671394564064849251000019                                                  N                     01321  0000000        000009
12006000195000156MBA MERCANTIL BRAS DE ACO LTDA                                        0000000034100000000000000000000000000000889578520000001671394540008920B02     201209162012071700000000054580000576585000000000705861000000000000000000000000129276050000000000  3020130108   01          2                                                                                   3191671394549064849251000099                                                  N                     01321  0000000        000010
12006000195000156MBA MERCANTIL BRAS DE ACO LTDA                                        0000000034100000000000000000000000000000904173180000001671394430008926B03     201210122012071700000000054840000387716000000000454860000000000000000000000000067144050000000000  3020130108   01          2                                                                                   3191671394432064849251000079                                                  N                     01321  0000000        000011
12006000195000156MBA MERCANTIL BRAS DE ACO LTDA                                        0000000034100000000000000000000000000000885998980000001667238420008870B02     201209112012071600000000054530000839952000000001036540000000000000000000000000196588050000000000  3020130108   01          2                                                                                   3191667238429064849251000039                                                  N                     01321  0000000        000012
12006000195000156MBA MERCANTIL BRAS DE ACO LTDA                                        0000000034100000000000000000000000000000906662670000001671394410008920B03     201210142012071700000000054860000576584000000000674108000000000000000000000000097524050000000000  3020130108   01          2                                                                                   3191671394416064849251000039                                                  N                     01321  0000000        000013
12006000195000156MBA MERCANTIL BRAS DE ACO LTDA                                        0000000034100000000000000000000000000000906662490000002513141530009951B01     201212222012101800000000055550000219540000000000219540000000000000000000000000000000050000000000  3020121224   05          3                                                                                   3112513141534064899001800029                                                  N                     01321  0000000        000014
12006000195000156MBA MERCANTIL BRAS DE ACO LTDA                                        0000000034100000000000000000000000000000906662500000002513141500009950B01     201212212012101800000000055540000179680000000000179680000000000000000000000000000000050000000000  3020121221   05          3                                                                                   3112513141500064899001800049                                                  N                     01321  0000000        000015
12006000195000156MBA MERCANTIL BRAS DE ACO LTDA                                        0000000034100000000000000000000000000000906662590000002513141560009957B01     201212232012101800000000055560001291712000000001291712000000000000000000000000000000050000000000  3020121224   05          3                                                                                   3112513141567064899001800089                                                  N                     01321  0000000        000016
12006000195000156MBA MERCANTIL BRAS DE ACO LTDA                                        0000000034100000000000000000000000000000915733760000002553913870010076B02     201212212012102600000000055540000659304000000000659304000000000000000000000000000000050000000000  3020121221   05          3                                                                                   3112553913875064899001800099                                                  N                     01321  0000000        000017
12006000195000156MBA MERCANTIL BRAS DE ACO LTDA                                        0000000034100000000000000000000000000000915733780000002553913930010078B02     201212232012102600000000055560000964069000000000964069000000000000000000000000000000050000000000  3020121224   05          3                                                                                   3112553913933064899001800019                                                  N                     01321  0000000        000018
12006000195000156MBA MERCANTIL BRAS DE ACO LTDA                                        0000000034100000000000000000000000000000915733800000002553913900010077B02     201212222012102600000000055550000324849000000000324849000000000000000000000000000000050000000000  3020121224   05          3                                                                                   3112553913909064899001800099                                                  N                     01321  0000000        000019
12006000195000156MBA MERCANTIL BRAS DE ACO LTDA                                        0000000034100000000000000000000000000000929489950000002624098080010358B01     201212222012112100000000055550000585643000000000585643000000000000000000000000000000050000000000  3020121224   05          3                                                                                   3112624098086064899001800089                                                  N                     01321  0000000        000020
12006000195000156MBA MERCANTIL BRAS DE ACO LTDA                                        0000000034100000000000000000000000000000929490010000002624098110010360B01     201212232012112100000000055560000531460000000000531460000000000000000000000000000000050000000000  3020121224   05          3                                                                                   3112624098110064899001800089                                                  N                     01321  0000000        000021
12006000195000156MBA MERCANTIL BRAS DE ACO LTDA                                        0000000034100000000000000000000000000000929490120000002624098290010402B01     201212212012112300000000055540000944857000000000944857000000000000000000000000000000050000000000  3020121221   05          3                                                                                   3112624098292064899001800029                                                  N                     01321  0000000        000022
12006000195000156M B A MERCANTIL BRASILEIRA DE                                         0000000023700118P00000002130599 00000000919321920020231800000170010234B02     201301032012110800000000055670000996082000000001004382000000000000000000000000008300050000000000  3020130108   01          2  RUA JUNO  533                                                                    3                         000000000000000                                     N                     00598  0000000        000023
12006000195000156M B A MERCANTIL BRASILEIRA DE                                         0000000023700118P00000002130599 00000000865388240020222900000450009203B03     201212122012081500000000055450000344980000000000360505000000000000000000000000015525050000000000  3020130108   01          2  RUA JUNO  533                                                                    300000000000000000001500  000000000000000                                     N                     00598  0000000        000024
12006000195000156M B A MERCANTIL BRASILEIRA DE                                         0000000023700118P00000002130599 00000000865388270020222900000480009204B03     201212132012081500000000055460000127291000000000132803000000000000000000000000005512050000000000  3020130108   01          2  RUA JUNO  533                                                                    300000000000000000001500  000000000000000                                     N                     00598  0000000        000025
12006000195000156M B A MERCANTIL BRASILEIRA DE                                         0000000023700118P00000002130599 00000000865388300020222900000510009205B03     201212142012081500000000055470000348964000000000363514000000000000000000000000014550050000000000  3020130108   01          2  RUA JUNO  533                                                                    300000000000000000001500  000000000000000                                     N                     00598  0000000        000026
12006000195000156M B A MERCANTIL BRASILEIRA DE                                         0000000023700118P00000002130599 00000000865388330020222900000540009206B03     201212152012081500000000055480000527560000000000548656000000000000000000000000021096050000000000  3020130108   01          2  RUA JUNO  533                                                                    300000000000000000001500  000000000000000                                     N                     00598  0000000        000027
12006000195000156M B A MERCANTIL BRASILEIRA DE                                         0000000023700118P00000002130599 00000000868592700020223600000030009229B03     201212132012081600000000055460000253414000000000264386000000000000000000000000010972050000000000  3020130108   01          2  RUA JUNO  533                                                                    300000000000000000001500  000000000000000                                     N                     00598  0000000        000028
12006867297000173MARCOS ANTONIO RIBEIRO ACOS                                           0000000034100000000000000000000000000000937366630000002662936700000468        201301042012121000000000055680000030135000000000030135000000000000000000000000000000050000000000  3020130104   06          3                                                                                   3112662936700046769908800059                                                  N                     01321  0000000        000029
12007289649000113CRC LASER SUPR INF LTDA EPP                                           000000003410000000000000000000000000000093540017000000707601793000001259      201301042012120700000000055680000014970000000000014970000000000000000000000000000000050000000000  3020130104   06          3                                                                                   3157076017934000265431700039                                                  N                     01321  0000000        000030
12008272923000104P SANTOS ESQUADRARIAS METAL ME                                        0000000034100000000000000000000000000000915734100000006159682651954           201212052012110700000000055380000408138000000000453293000000000000000000000000045155050000000000  3020130108   01          2                                                                                   3156159682654160141951600029                                                  N                     01321  0000000        000031
12008879248000186FREFER METAL PLUS                                                     000000003410000000000000000000000000000093452379000000264895671EMO014094A     201301152012120300000000055790000533061000000000533061000000000000000000000000000693050000000000  3020130115   01          2                                                                                   3112648956715293811346700099                                                  N                     01321  0000000        000032
12008879248000186FREFER METAL PLUS                                                     000000003410000000000000000000000000000093637221000000265732284EPR013366A     201301152012120600000000055790001076688000000001076688000000000000000000000000001400050000000000  3020130115   01          2                                                                                   3112657322841293811346700039                                                  N                     01321  0000000        000033
12008879248000186FREFER METAL PLUS                                                     000000003410000000000000000000000000000093452382000000264895673EMO014097A     201301152012120300000000055790000122199000000000122199000000000000000000000000000159050000000000  3020130115   01          2                                                                                   3112648956731293811346700039                                                  N                     01321  0000000        000034
12009057974000186PAMASI TECNOLOGIA DE ATIVOS E                                         0000000023700498700000000742600 0000000095079990009030070000029861 B          201303092013010300000000056320000078850000000000078850000000000000000000000000000000050000000000  3020130311   01FS        1  RUA GANGES 528                          AEV PECAS PESADAS LTDA                   3                         010786789000101                                     N                     00598  0000000        000035
12009057974000186PAMASI TECNOLOGIA DE ATIVOS E                                         0000000023700498700000000742600 0000000095079991009030070000033861 A          201302072013010300000000056020000078850000000000078850000000000000000000000000000000050000000000  3020130207   01FS        1  RUA GANGES 528                          AEV PECAS PESADAS LTDA                   3                         010786789000101                                     N                     00598  0000000        000036
12009338857000190FERNANDO  NAGAO  CARDONE  ALVA                                        000000000330000000000000000000000000000091653176000000300000000ALTA 11 2012   201211202012103000000000055230000134632000000000155774000000000000000000000000021142050000000000  3020130108   01          2                                                                                   3947901700000051051630010119                                                  N                     01321  0000000        000037
12009630445000120MARIANA DE QUEIROZ SILVA   GRA                                        0000000000100000000000000000000000000000935400160000000002090000745           201301042012120600000000055680000048500000000000048500000000000000000000000000000000050000000000  3020130104   06          3                                                                                   3000000167849100000002091779                                                  N                     01321  0000000        000038
12011284925000128MF FERRAGENS LTDA                                                     00000000341000000000000000000000000000009373666600000026626617510043 A        201301042012120700000000055680000057500000000000057500000000000000000000000000000000050000000000  3020130104   06          3                                                                                   3112662661753162659025900069                                                  N                     01321  0000000        000039
12042956441000101SOLUCOES ACO USIMINAS                                                 0000000034100000000000000000000000000000919321820000002573134240018909702     201301042012110900000000055680000994629000000001002585000000000000000000000000007956050000000000  3020130108   01          2                                                                                   3112573134247293807258000039                                                  N                     01321  0000000        000040
12042956441000101SOLUCOES ACO USIMINAS                                                 0000000034100000000000000000000000000000846595710000002210880290016980602     201209102012071200000000054520000426094000000000528334000000000000000000000000102240050000000000  3020130108   01          2                                                                                   3112210880293293807258000019                                                  N                     01321  0000000        000041
12042956441000101SOLUCOES ACO USIMINAS                                                 0000000034100000000000000000000000000000937366640000002664845380019378001     201301042012120700000000055680000160808000000000162096000000000000000000000000001288050000000000  3020130108   01          2                                                                                   3112664845388293807258000049                                                  N                     01321  0000000        000042
12042956441000101SOLUCOES ACO USIMINAS                                                 0000000034100000000000000000000000000000937366670000002664845390019378101     201301042012120700000000055680000860975000000000867863000000000000000000000000006888050000000000  3020130108   01          2                                                                                   3112664845396293807258000079                                                  N                     01321  0000000        000043
12042956441000101SOLUCOES ACO USIMINAS                                                 0000000034100000000000000000000000000000920384820000002579400140018963302     201301072012111200000000055710000646567000000000647860000000000000000000000000001293050000000000  3020130108   01          2                                                                                   3112579400147293807258000039                                                  N                     01321  0000000        000044
12042956441000101SOLUCOES ACO USIMINAS                                                 0000000034100000000000000000000000000000937366700000002664845370019367701     201301042012120700000000055680000106855000000000107711000000000000000000000000000856050000000000  3020130108   01          2                                                                                   3112664845370293807258000089                                                  N                     01321  0000000        000045
12042956441000101SOLUCOES ACO USIMINAS                                                 0000000034100000000000000000000000000000847452070000002216130350005922202     201209102012071600000000054520000172071000000000213351000000000000000000000000041280050000000000  3020130108   01          2                                                                                   3112216130354293807258000049                                                  N                     01321  0000000        000046
12042956441000101SOLUCOES ACO USIMINAS                                                 0000000034100000000000000000000000000000847452100000002216130340017012402     201209102012071500000000054520000147428000000000182828000000000000000000000000035400050000000000  3020130108   01          2                                                                                   3112216130347293807258000059                                                  N                     01321  0000000        000047
12042956441000101SOLUCOES ACO USIMINAS                                                 0000000034100000000000000000000000000000848180700000002220192900017041002     201209112012071700000000054530000155433000000000192442000000000000000000000000037009050000000000  3020130108   01          2                                                                                   3112220192903293807258000029                                                  N                     01321  0000000        000048
12042956441000101SOLUCOES ACO USIMINAS                                                 0000000034100000000000000000000000000000848180710000002220192910017041202     201209112012071700000000054530000205421000000000254330000000000000000000000000048909050000000000  3020130108   01          2                                                                                   3112220192911293807258000019                                                  N                     01321  0000000        000049
12042956441000101SOLUCOES ACO USIMINAS                                                 0000000034100000000000000000000000000000850740470000002233586810017101002     201209142012071900000000054560000732575000000000902515000000000000000000000000169940050000000000  3020130108   01          2                                                                                   3112233586810293807258000019                                                  N                     01321  0000000        000050
12042956441000101SOLUCOES ACO USIMINAS                                                 0000000034100000000000000000000000000000850740480000002233586820017101202     201209142012071900000000054560000144634000000000178158000000000000000000000000033524050000000000  3020130108   01          2                                                                                   3112233586828293807258000029                                                  N                     01321  0000000        000051
12042956441000101SOLUCOES ACO USIMINAS                                                 0000000034100000000000000000000000000000846595700000002210880280016980502     201209102012071200000000054520000156071000000000193511000000000000000000000000037440050000000000  3020130108   01          2                                                                                   3112210880285293807258000039                                                  N                     01321  0000000        000052
12042956441000101SOLUCOES ACO USIMINAS                                                 0000000034100000000000000000000000000000853154840000002246247030017196702     201209202012072500000000054620000234841000000000286541000000000000000000000000051700050000000000  3020130108   01          2                                                                                   3112246247038293807258000099                                                  N                     01321  0000000        000053
12042956441000101SOLUCOES ACO USIMINAS                                                 0000000034100000000000000000000000000000853154850000002246247040017197302     201209202012072500000000054620000970103000000001183503000000000000000000000000213400050000000000  3020130108   01          2                                                                                   3112246247046293807258000019                                                  N                     01321  0000000        000054
12042956441000101SOLUCOES ACO USIMINAS                                                 0000000034100000000000000000000000000000855028690000002254329380017212902     201209212012072600000000054630000140098000000000170618000000000000000000000000030520050000000000  3020130108   01          2                                                                                   3112254329389293807258000019                                                  N                     01321  0000000        000055
12042956441000101SOLUCOES ACO USIMINAS                                                 0000000034100000000000000000000000000000855028700000002254329390017213002     201209212012072600000000054630000140602000000000171231000000000000000000000000030629050000000000  3020130108   01          2                                                                                   3112254329397293807258000089                                                  N                     01321  0000000        000056
12042956441000101SOLUCOES ACO USIMINAS                                                 0000000034100000000000000000000000000000855028770000002254329400017220502     201209212012072700000000054630000981022000000001194880000000000000000000000000213858050000000000  3020130108   01          2                                                                                   3112254329405293807258000099                                                  N                     01321  0000000        000057
12042956441000101SOLUCOES ACO USIMINAS                                                 0000000034100000000000000000000000000000859590620000002274469790017353702     201209282012080300000000054700000081053000000000097577000000000000000000000000016524050000000000  3020130108   01          2                                                                                   3112274469793293807258000069                                                  N                     01321  0000000        000058
12045635984000115CRIFER LAMINADOS DE ACO E FERR                                        0000000003300000000000000000000000000000917414020000007500000000036176E02     201301032012110800000000055670000501947000000000506966000000000000000000000000005019050000000000  3020130108   01          2                                                                                   3901184270000000261475010159                                                  N                     01321  0000000        000059
12047190731000100DE CASTRO LOUR ENG IND LTDA                                           00000000341000000000000000000000000000008996248000000024766209303027184 0     201212282012100500000000055610001153394000000001178342000000000000000000000000024948050000000000  3020130108   01          2                                                                                   3112476620938036884500400099                                                  N                     01321  0000000        000060
12047190731000100DE CASTRO LOUR ENG IND LTDA                                           00000000341000000000000000000000000000008782051200000023399953803026613 0     201209182012082100000000054600001107989000000001352037000000000000000000000000244048050000000000  3020130108   01          2                                                                                   3112339995386036884500400039                                                  N                     01321  0000000        000061
12047190731000100DE CASTRO LOUR ENG IND LTDA                                           00000000341000000000000000000000000000008782050900000023399953503026612 0     201209182012082100000000054600001111489000000001356321000000000000000000000000244832050000000000  3020130108   01          2                                                                                   3112339995352036884500400019                                                  N                     01321  0000000        000062
12047190731000100DE CASTRO LOUR ENG IND LTDA                                           00000000341000000000000000000000000000008782051600000023399954103026614 0     201209182012082100000000054600001047621000000001278341000000000000000000000000230720050000000000  3020130108   01          2                                                                                   3112339995410036884500400039                                                  N                     01321  0000000        000063
12047190731000100DE CASTRO LOUR ENG IND LTDA                                           00000000341000000000000000000000000000008782051900000023399955803026636 0     201212192012082200000000055520000941086000000000978106000000000000000000000000037020050000000000  3020130108   01          2                                                                                   3112339995584036884500400069                                                  N                     01321  0000000        000064
12047190731000100DE CASTRO LOUR ENG IND LTDA                                           00000000341000000000000000000000000000008782052000000023399955303026632 0     201209192012082200000000054610000952073000000001159865000000000000000000000000207792050000000000  3020130108   01          2                                                                                   3112339995535036884500400019                                                  N                     01321  0000000        000065
12047190731000100DE CASTRO LOUR ENG IND LTDA                                           00000000341000000000000000000000000000008782052100000023399955903026643 0     201209202012082300000000054620000867039000000001054589000000000000000000000000187550050000000000  3020130108   01          2                                                                                   3112339995592036884500400049                                                  N                     01321  0000000        000066
12047190731000100DE CASTRO LOUR ENG IND LTDA                                           00000000341000000000000000000000000000008782052300000023399955503026632 0     201212192012082200000000055520000952358000000000989818000000000000000000000000037460050000000000  3020130108   01          2                                                                                   3112339995550036884500400039                                                  N                     01321  0000000        000067
12047190731000100DE CASTRO LOUR ENG IND LTDA                                           00000000341000000000000000000000000000008782052500000023399955603026636 0     201209192012082200000000054610000940804000000001146154000000000000000000000000205350050000000000  3020130108   01          2                                                                                   3112339995568036884500400049                                                  N                     01321  0000000        000068
12047190731000100DE CASTRO LOUR ENG IND LTDA                                           00000000341000000000000000000000000000008782052700000023399956203026648 0     201209202012082300000000054620000976053000000001187253000000000000000000000000211200050000000000  3020130108   01          2                                                                                   3112339995626036884500400029                                                  N                     01321  0000000        000069
12047190731000100DE CASTRO LOUR ENG IND LTDA                                           00000000341000000000000000000000000000008782052900000023399956403026648 0     201212202012082300000000055530000976344000000001012824000000000000000000000000036480050000000000  3020130108   01          2                                                                                   3112339995642036884500400059                                                  N                     01321  0000000        000070
12047190731000100DE CASTRO LOUR ENG IND LTDA                                           00000000341000000000000000000000000000008782053300000023399956103026643 0     201212202012082300000000055530000867297000000000899711000000000000000000000000032414050000000000  3020130108   01          2                                                                                   3112339995618036884500400059                                                  N                     01321  0000000        000071
12047190731000100DE CASTRO LOUR ENG IND LTDA                                           00000000341000000000000000000000000000008782059200000023602715103026744 0     201212262012082900000000055590000146636000000000150380000000000000000000000000003744050000000000  3020130108   01          2                                                                                   3112360271517036884500400019                                                  N                     01321  0000000        000072
12047190731000100DE CASTRO LOUR ENG IND LTDA                                           00000000341000000000000000000000000000008782059600000023602714803026734 0     201212252012082800000000055580000998134000000001025616000000000000000000000000027482050000000000  3020130108   01          2                                                                                   3112360271483036884500400059                                                  N                     01321  0000000        000073
12047190731000100DE CASTRO LOUR ENG IND LTDA                                           00000000341000000000000000000000000000008782059700000023602715403026745 0     201212262012082900000000055590000903448000000000926549000000000000000000000000023101050000000000  3020130108   01          2                                                                                   3112360271541036884500400019                                                  N                     01321  0000000        000074
12047190731000100DE CASTRO LOUR ENG IND LTDA                                           00000000341000000000000000000000000000009041733000000025008464703027216 0     201301022012101000000000055660000225446000000000228104000000000000000000000000002658050000000000  3020130108   01          2                                                                                   3112500846475036884500400019                                                  N                     01321  0000000        000075
12047190731000100DE CASTRO LOUR ENG IND LTDA                                           00000000341000000000000000000000000000009041733200000025008465003027234 0     201301032012101100000000055670001029906000000001040031000000000000000000000000010125050000000000  3020130108   01          2                                                                                   3112500846509036884500400099                                                  N                     01321  0000000        000076
12047190731000100DE CASTRO LOUR ENG IND LTDA                                           00000000341000000000000000000000000000008782051000000023399953703026612 0     201212182012082100000000055510001111822000000001155562000000000000000000000000045927050000000000  3020130107   06          3                                                                                   3112339995378036884500400049                                                  N                     01321  0000000        000077
12047190731000100DE CASTRO LOUR ENG IND LTDA                                           00000000341000000000000000000000000000008782051100000023399954303026614 0     201212182012082100000000055510001047933000000001089153000000000000000000000000043281050000000000  3020130107   06          3                                                                                   3112339995436036884500400029                                                  N                     01321  0000000        000078
12047190731000100DE CASTRO LOUR ENG IND LTDA                                           00000000341000000000000000000000000000008782051400000023399954003026613 0     201212182012082100000000055510001108322000000001151922000000000000000000000000045780050000000000  3020130107   06          3                                                                                   3112339995402036884500400069                                                  N                     01321  0000000        000079
12047190731000100DE CASTRO LOUR ENG IND LTDA                                           00000000341000000000000000000000000000009041732300000025008465203027256 0     201212112012101600000000055440001108602000000001167462000000000000000000000000061040050000000000  3020130107   06          3                                                                                   3112500846525036884500400019                                                  N                     01321  0000000        000080
12047190731000100DE CASTRO LOUREIRO ENGENHARIA                                         0000000023703394400000000205508 000000008801224900202255000000803026784 0     201212282012083100000000055610001042070000000001061177000000000000000000000000019107050000000000  3020130108   01          2  RUA JUNO  533                                                                    300000000000000000001500  000000000000000                                     N                     00598  0000000        000081
12047190731000100DE CASTRO LOUREIRO ENGENHARIA                                         0000000023703394400000000205508 000000008801225200202255000001103026787 0     201212282012083100000000055610001136326000000001157160000000000000000000000000020834050000000000  3020130108   01          2  RUA JUNO  533                                                                    300000000000000000001500  000000000000000                                     N                     00598  0000000        000082
12047190731000100DE CASTRO LOUREIRO ENGENHARIA                                         0000000023703394400000000205508 000000008801225500202255000001403026794 0     201212312012090300000000055640001209490000000001225618000000000000000000000000016128050000000000  3020130108   01          2  RUA JUNO  533                                                                    300000000000000000141500  000000000000000                                     N                     00598  0000000        000083
12047190731000100DE CASTRO LOUREIRO ENGENHARIA                                         0000000023703394400000000205508 000000008801225800202255000001703026795 0     201212312012090300000000055640001207915000000001224019000000000000000000000000016104050000000000  3020130108   01          2  RUA JUNO  533                                                                    300000000000000000001500  000000000000000                                     N                     00598  0000000        000084
12048775225000146SEIKI IND COM E CONFECCOES LTD                                        000000003410000000000000000000000000000089337376000000244697151014914001      201210232012092500000000054950000052000000000000058006000000000000000000000000006006050000000000  3020130108   01          2                                                                                   3112446971510017444824100089                                                  N                     01321  0000000        000085
12051180370000199IGUAFER FERRO E ACO LTDA                                              0000000034100000000000000000000000000000852309100000002239389789443 B         201209022012071800000000054440000168275000000000201035000000000000000000000000033040050000000000  3020121228   05          3                                                                                   3112239389789077149484600089                                                  N                     01321  0000000        000086
12051180370000199IGUAFER FERRO E ACO LTDA                                              0000000034100000000000000000000000000000852309110000002239389799443 C         201209122012071800000000054540000168275000000000201315000000000000000000000000033040050000000000  3020130108   01          2                                                                                   3112239389797077149484600089                                                  N                     01321  0000000        000087
12056993512000150CYKLOP DO BRASIL EMBALAGENS SA                                        0000000034100000000000000000000000000000874070500000002362586810134932        201210012012090300000000054730000083607000000000114000000000000000000000000000030393050000000000  3020130108   01          2                                                                                   3112362586813025700015800019                                                  N                     01321  0000000        000088
12058566399000152NORDSON DO BR IND COM LTDA6                                           000000003410000000000000000000000000000095079987000000273066668000045105      201301162012121900000000055800000031500000000000031500000000000000000000000000000000050000000000  3020130116   01FS        1                                                                                   3112730666685114508647400019                                                  N                     01321  0000000        000089
12061683652000162TRANS FACE TRANSPORTES LTDA                                           0000000023700530400000000141828 0000000095079988009000000111820I000088464     201301172013010300000000055810000015000000000000015000000000000000000000000000000000050000000000  3020130117   01FS        1  R JUNO 553                                                                       3                         000000000000000                                     N                     00598  0000000        000090
12062344882000160INDUSTRIA COM PARAFUS NAP LTDA                                        00000000341000000000000000000000000000009345238500000026481977112692 2        201301042012113000000000055680000096552000000000096552000000000000000000000000000000050000000000  3020130104   06          3                                                                                   3112648197716482812260800019                                                  N                     01321  0000000        000091
12062510367000102ITANHAEM TRANSP DE MAQUINAS LT                                        000000003410000000000000000000000000000087407049000000236463199667            201209202012090400000000054620000248220000000000357450000000000000000000000000109230050000000000  3020130108   01          2                                                                                   3112364631997005770252400049                                                  N                     01321  0000000        000092
12062539994000176LEALFER INDUSTRIA E COMERCIO D                                        0000000003300000000000000000000000000000919322020000006700000000005818802     201301072012110900000000055710000327558000000000328114000000000000000000000000000556050000000000  3020130108   01          2                                                                                   3915298380000000293067010419                                                  N                     01321  0000000        000093
12064952757000168WALMAC COM DE PROD QUIMICOS LT                                        0000000034100000000000000000000000000000860403450000002275821700020148        201210052012080300000000054770000219267000000000260212000000000000000000000000040945050000000000  3020130108   01          2                                                                                   3112275821703064807961400029                                                  N                     01321  0000000        000094
12066841552000130R V SEG PATRIMONIAL LTDA                                              00000000341000000000000000000000000000008852483200000090002192721927          201209102012081000000000054520000483241000000000502561000000000000000000000000019320050000000000  3020130108   01          2                                                                                   3109000219270001835253400099                                                  N                     01321  0000000        000095
12069284248000128ISOCOAT TINTAS E VERNIZES LTDA                                        0000000034100000000000000000000000000000908309610000002521130200057192        201301072012102400000000055710000318064000000000318912000000000000000000000000000848050000000000  3020130108   01          2                                                                                   3112521130206077430121200019                                                  N                     01321  0000000        000096
12069284248000128ISOCOAT TINTAS E VERNIZES LTDA                                        0000000034100000000000000000000000000000841061040000002182507930052085        201209172012070200000000054590000236130000000000307320000000000000000000000000071190050000000000  3020130108   01          2                                                                                   3112182507932077430121200019                                                  N                     01321  0000000        000097
900009800000000056832552                                                                                                                                                                                                                                                                                                                                                                                                                                                                01321  0000000        000098
