0000147602043799295000110ALTAMIRA INDUSTRIA METALURGICA LT       202000000010020120808060054             1                                                                                                                                                                                                                                                                                                                                                                                                    000001
12000193273000108TECELAGEM ROMA LTDA                                                   0000000023700284400000000410977 000000008374605100900000001581116213   B      201208032012062900000000054140000124248000000000126113000000000000000000000000001865050000000000  3020120808   01          2  RUA TAMAINDE 1410  1410                                                          3                         000000000000000                                     N                     00598  0000000        000002
12002503185000182ANDAIMES E MAQUINAS BIG LTDA                                          000000003410000000000000000000000000000084483911000000220106798011381         201208012012071200000000054120000012000000000000012296000000000000000000000000000296050000000000  3020120808   01          2                                                                                   3112201067983925303435000039                                                  N                     01321  0000000        000003
12005915831000107PALETES SATELITE COM LTDA ME                                          000000003410000000000000000000000000000085959067000000901798000NF  1798       201208232012080200000000054340000045000000000000045000000000000000000000000000000000050000000000  3020120823   01FS        1                                                                                   3109017980008144648966600039                                                  N                     01321  0000000        000004
12006000195000156MBA MERCL BRASILEIRA ACO LTDA                                         0000000042200000000000000000000000000000859590570000000000000000009051B01     201208292012080300000000054400000180457000000000180457000000000000000000000000000000050000000000  3020120829   01FS        1                                                                                   3701600007451936910173818179                                                  N                     01321  0000000        000005
12006000195000156MBA MERCL BRASILEIRA ACO LTDA                                         0000000042200000000000000000000000000000859590580000000000000000009051B03     201210242012080300000000054960000180456000000000180456000000000000000000000000000000050000000000  3020121024   01FS        1                                                                                   3701600007451936910173834199                                                  N                     01321  0000000        000006
12006000195000156MBA MERCL BRASILEIRA ACO LTDA                                         0000000042200000000000000000000000000000859590590000000000000000009051B02     201209262012080300000000054680000180457000000000180457000000000000000000000000000000050000000000  3020120926   01FS        1                                                                                   3701600007451936910173842159                                                  N                     01321  0000000        000007
12007477577000138HD LUB COMERCIO DE LUBRIFICANT                                        00000000033000000000000000000000000000008595907000000052000000036494 1        201208212012072400000000054320000045871000000000045871000000000000000000000000000000050000000000  3020120821   01FS        1                                                                                   3916643440000000270652010119                                                  N                     01321  0000000        000008
12008508119000181DINARI FOMENTO MERCANTIL LTDA                                         000000003990000000000000000000000000000084318048000000000000000138            201208052012070600000000054160000290000000000000290000000000000000000000000000000000050000000000  3020120806   05          3                                                                                   3175579637150198002280900159                                                  N                     01321  0000000        000009
12009121184000112BBGE COBRANCA LTDA                                                    0000000023700368900000001026402 00000000839452800090218600000842581 CC        201208022012062100000000054130000154100000000000157184000000000000000000000000003084050000000000  3020120808   01          2  RUA GANGES  528                         MACKVEN MAQUINAS INDUSTRIAIS LTDA EPP    3                         005441222000163                                     N                     00598  0000000        000010
12009338857000190FERNANDO  NAGAO  CARDONE  ALVA                                        000000000330000000000000000000000000000085959071000000430000000REEM 07 2012   201208102012072600000000054210000024134000000000024134000000000000000000000000000000050000000000  3020120810   01FS        1                                                                                   3947901700000051047543010139                                                  N                     01321  0000000        000011
12009338857000190FERNANDO  NAGAO  CARDONE  ALVA                                        000000000330000000000000000000000000000085959072000000080000000ALTA 08 2012   201208202012080200000000054310000136682000000000136682000000000000000000000000000000050000000000  3020120820   01FS        1                                                                                   3947901700000051048108010179                                                  N                     01321  0000000        000012
12012006058000121WEG TINTAS LTDA                                                       0000000023702727800000000001309 00000000833069140090217700001070014685601     201208062012062200000000054170000459854000000000461080000000000000000000000000001226050000000000  3020120808   01          2  R JUNO  533                                                                      3                         000000000000000                                     N                     00598  0000000        000013
12012006058000121WEG TINTAS LTDA                                                       0000000023702727800000000001309 00000000816237710090214600000900014010203     201208072012052400000000054180000306662000000000307070000000000000000000000000000408050000000000  3020120808   01          2  R JUNO  533                                                                      3                         000000000000000                                     N                     00598  0000000        000014
12012006058000121WEG TINTAS LTDA                                                       0000000023702727800000000001309 00000000824820160090216300000880014374202     201208072012060800000000054180000459854000000000460467000000000000000000000000000613050000000000  3020120808   01          2  R JUNO  533                                                                      3                         000000000000000                                     N                     00598  0000000        000015
12012256386000186TOP TRAD SERVICOS DE TEXTOS LT                                        0000000023700200300000001062603 00000000850740700090132194025562718           201207272012071200000000054070000025600000000000026928000000000000000000000000001328050000000000  3020120808   01          2  R TAMANDE 1410                                                                   3                         000000000000000                                     N                     00598  0000000        000016
12033325184001786ALSCO TOALHEIRO BRASIL                                                0000000023703396000000001490850 0000000084571471009000028416503VM00284165     201208052012070500000000054160000026347000000000026425000000000000000000000000000078050000000000  3020120808   01          2  RUA  GANGES 528                                                                  3                         000000000000000                                     N                     00598  0000000        000017
12035820448000136WHITE MARTINS GASES INDUSTRIAI                                        0000000023700026400000003937925 0000000084172562009021910000022348496 001     201208022012070700000000054130000040575000000000041710000000000000000000000000001135050000000000  3020120808   01          2  RUA GANGES  528                                                                  3                         000000000000000                                     N                     00598  0000000        000018
12035820448000136WHITE MARTINS GASES INDUSTRIAI                                        0000000023700026400000003937925 0000000084172563009021910000296348716 001     201208032012070700000000054140000056805000000000058321000000000000000000000000001516050000000000  3020120808   01          2  RUA GANGES  528                                                                  3                         000000000000000                                     N                     00598  0000000        000019
12042956441000101SOLUCOES ACO USIMINAS                                                 0000000034100000000000000000000000000000807142640000002012663830015857503     201208012012050800000000054120000707296000000000717201000000000000000000000000009905050000000000  3020120808   01          2                                                                                   3112012663830293807258000089                                                  N                     01321  0000000        000020
12042956441000101SOLUCOES ACO USIMINAS                                                 0000000034100000000000000000000000000000825740770000002106974450016399402     201208012012060600000000054120000431213000000000437247000000000000000000000000006034050000000000  3020120808   01          2                                                                                   3112106974457293807258000019                                                  N                     01321  0000000        000021
12042956441000101SOLUCOES ACO USIMINAS                                                 0000000034100000000000000000000000000000826558250000002112172720016459702     201208072012061100000000054180000500178000000000501178000000000000000000000000001000050000000000  3020120808   01          2                                                                                   3112112172724293807258000019                                                  N                     01321  0000000        000022
12042956441000101SOLUCOES ACO USIMINAS                                                 0000000034100000000000000000000000000000841725420000002188168490016884901     201208022012070500000000054130000531994000000000538378000000000000000000000000006384050000000000  3020120808   01          2                                                                                   3112188168499293807258000049                                                  N                     01321  0000000        000023
12042956441000101SOLUCOES ACO USIMINAS                                                 0000000034100000000000000000000000000000841725440000002188168520016891401     201208022012070500000000054130000795471000000000805017000000000000000000000000009546050000000000  3020120808   01          2                                                                                   3112188168523293807258000099                                                  N                     01321  0000000        000024
12042956441000101SOLUCOES ACO USIMINAS                                                 0000000034100000000000000000000000000000807142660000002012663850015854503     201208032012050800000000054140000476401000000000481166000000000000000000000000004765050000000000  3020120808   01          2                                                                                   3112012663855293807258000029                                                  N                     01321  0000000        000025
12042956441000101SOLUCOES ACO USIMINAS                                                 0000000034100000000000000000000000000000826558310000002112172690016458802     201208072012061100000000054180000231416000000000231879000000000000000000000000000463050000000000  3020120808   01          2                                                                                   3112112172690293807258000049                                                  N                     01321  0000000        000026
12042956441000101SOLUCOES ACO USIMINAS                                                 0000000034100000000000000000000000000000843180420000002194744340016902901     201208032012070600000000054140000179849000000000181649000000000000000000000000001800050000000000  3020120808   01          2                                                                                   3112194744341293807258000089                                                  N                     01321  0000000        000027
12042956441000101SOLUCOES ACO USIMINAS                                                 0000000034100000000000000000000000000000826558240000002112172710016459402     201208072012061100000000054180000747525000000000749020000000000000000000000000001495050000000000  3020120808   01          2                                                                                   3112112172716293807258000059                                                  N                     01321  0000000        000028
12042956441000101SOLUCOES ACO USIMINAS                                                 0000000034100000000000000000000000000000859590600000002274469770017353701     201208312012080300000000054420000081077000000000081077000000000000000000000000000000050000000000  3020120831   01FS        1                                                                                   3112274469777293807258000049                                                  N                     01321  0000000        000029
12042956441000101SOLUCOES ACO USIMINAS                                                 0000000034100000000000000000000000000000859590610000002274469780017353801     201208312012080300000000054420000167048000000000167048000000000000000000000000000000050000000000  3020120831   01FS        1                                                                                   3112274469785293807258000019                                                  N                     01321  0000000        000030
12042956441000101SOLUCOES ACO USIMINAS                                                 0000000034100000000000000000000000000000859590620000002274469790017353702     201209282012080300000000054700000081053000000000081053000000000000000000000000000000050000000000  3020120928   01FS        1                                                                                   3112274469793293807258000069                                                  N                     01321  0000000        000031
12042956441000101SOLUCOES ACO USIMINAS                                                 0000000034100000000000000000000000000000859590630000002274469800017353802     201209282012080300000000054700000166998000000000166998000000000000000000000000000000050000000000  3020120928   01FS        1                                                                                   3112274469801293807258000059                                                  N                     01321  0000000        000032
12042956441000101SOLUCOES ACO USIMINAS                                                 0000000034100000000000000000000000000000859590640000002274469810017353703     201210262012080300000000054980000081052000000000081052000000000000000000000000000000050000000000  3020121026   01FS        1                                                                                   3112274469819293807258000039                                                  N                     01321  0000000        000033
12042956441000101SOLUCOES ACO USIMINAS                                                 0000000034100000000000000000000000000000859590660000002274469820017353803     201210262012080300000000054980000166997000000000166997000000000000000000000000000000050000000000  3020121026   01FS        1                                                                                   3112274469827293807258000089                                                  N                     01321  0000000        000034
12048775225000146SEIKI IND COM E CONFECCOES LTD                                        000000003410000000000000000000000000000085959065000000227267305013669001      201208282012073100000000054390000052000000000000052000000000000000000000000000000000050000000000  3020120828   01FS        1                                                                                   3112272673057017444824100019                                                  N                     01321  0000000        000035
12053585766000141MULTIACOS IND  COM  PROD  TEC                                         0000000034100000000000000000000000000000847452040000002216487450004294601     201208072012062600000000054180000419475000000000420174000000000000000000000000000699050000000000  3020120808   01          2                                                                                   3112216487457124804291100019                                                  N                     01321  0000000        000036
12056428188000128EDVALDO SANTOS ROSA ME                                                0000000023700898200000000005622 0000000085959068009011222000658194919598      201208142012080700000000054250000037000000000000037000000000000000000000000000000000050000000000  3020120814   01FS        1  RUA TAMAINDE  1410                                                               3                         000000000000000                                     N                     00598  0000000        000037
12056993900000131CIA METALURGICA PRADA                                                 0000000034100000000000000000000000000000807926570000002014912340023716503     201208012012050900000000054120000100813000000000101989000000000000000000000000001176050000000000  3020120808   01          2                                                                                   3112014912342293800573900059                                                  N                     01321  0000000        000038
12056993900000131CIA METALURGICA PRADA                                                 0000000034100000000000000000000000000000807926590000002014912330023716403     201208012012050900000000054120000052377000000000052986000000000000000000000000000609050000000000  3020120808   01          2                                                                                   3112014912334293800573900049                                                  N                     01321  0000000        000039
12056993900000131CIA METALURGICA PRADA                                                 0000000034100000000000000000000000000000824820090000002102181150024711602     201208012012060600000000054120000833145000000000842868000000000000000000000000009723050000000000  3020120808   01          2                                                                                   3112102181156293800573900089                                                  N                     01321  0000000        000040
12060561719001529AKZO NOBEL LTDA   DIVISAO TINT                                        000000000330000000000000000000000000000081465333000000860000000000061951003   201208012012051800000000054120000153435000000000155583000000000000000000000000002148050000000000  3020120808   01          2                                                                                   3920859410000000308986010469                                                  N                     01321  0000000        000041
12061085866000137COMERCIO DE FERRAGENS A C L LT                                        0000000023700475800000000385662 000000008595906900400475842019516999 12       201208222012072400000000054330000027500000000000027500000000000000000000000000000000050000000000  3020120822   01FS        1  RUA GANGES 528 SP                                                                3                         000000000000000                                     N                     00598  0000000        000042
12061217188000119TELAS METALICAS TELMETAL LTDA                                         0000000000100000000000000000000000000000844063700000000054890005303 1 3       201208072012071100000000054180000030002000000000030082000000000000000000000000000080050000000000  3020120808   01          2                                                                                   3000000115031800000054891719                                                  N                     01321  0000000        000043
12061683652000162TRANS FACE TRANSPORTES LTDA                                           0000000023700530400000000141828 0000000084895720009000000107009I000078506     201208102012071900000000054210000055000000000000055000000000000000000000000000000148050000000000  3020120810   01          2  R JUNO 553                                                                       300000000000000000141500  000000000000000                                     N                     00598  0000000        000044
12066899790000105FABRICA ARTEF LATEX ESTRELA EP                                        00000000399000000000000000000000000000008146533200000000000000070105 003      201208062012052300000000054170000217000000000000217000000000000000000000000000000000050000000000  3020120806   06          3                                                                                   3175283882721125027292500189                                                  N                     01321  0000000        000045
12066899790000105FABRICA ARTEF LATEX ESTRELA EP                                        00000000399000000000000000000000000000008223650300000000000000071065 002      201208042012060500000000054150000368900000000000368900000000000000000000000000000000050000000000  3020120806   06          3                                                                                   3175368007861125027292500189                                                  N                     01321  0000000        000046
12092693118000160BRADESCO SAUDE S A                                                    0000000023700448000000001533991 00000000829780050050100702629130000000000     201207202012061800000000054000000645861000000000653765000000000000000000000000007904050000000000  3020120808   01          2                                                                                   3                         000000000000000                                     N                     00598  0000000        000047
900004800000000011162458                                                                                                                                                                                                                                                                                                                                                                                                                                                                00598  0000000        000048
