0000147602043799295000110ALTAMIRA IND METALURGICA LTDA           20100557000002012110817074700000        2    230A                                                                                          000000000000000                                                                                                                                                                                                                                                                                   000001
12042956441000101SOLUCOES ACO USIMINAS                                                 0000000034100000000000000000000000000000848180560000002220192920017041003     201211080000000000000000055110000155434000000000155434000000000000000000000000000000050000000000  3020121108   01MFBUHA    500                                                                                 3112220192929293807258000019010000       00170410/03                          N                     00000 10020256        000002
12042956441000101SOLUCOES ACO USIMINAS                                                 0000000034100000000000000000000000000000848180570000002220192930017041203     201211080000000000000000055110000205421000000000205421000000000000000000000000000000050000000000  3020121108   01MFBUHA    500                                                                                 3112220192937293807258000039010000       00170412/03                          N                     00000 10020256        000003
12049341563000132JAC COMERCIO DE MAT ELET LTDA                                         000000003410000000000000000000000000000089697946000000246543951000023447B     201211080000000000000000055110000014732000000000014732000000000000000000000000000000050000000000  3020121108   01MFBUHA    500                                                                                 3112465439514018060969500019010000       0023447/02                           N                     00000 10020256        000004
12004643290000142FLEXTINTAS IND E COMERCIO LTDA                                        000000003410000000000000000000000000000089697949000000246363342NFF037938B     201211080000000000000000055110000049525000000000049525000000000000000000000000000000050000000000  3020121108   01MFBUHA    500                                                                                 3112463633423051356781800029010000       0037938/02                           N                     00000 10020256        000005
12035820448000136WHITE MARTINS GASES INDUSTRIAI                                        0000000023700026400000003937925 0000000090052292009022890000590393075 001     201211080000000000000000055110000081150000000000081150000000000000000000000000000000050000000000  3020121108   01MFBUHA    500RUA GANGES  528                                                                  3010000                   0000000000000000009295                              N                     00000 10020256        000006
12058566399000152NORDSON DO BRASIL IND E COM LT                                        0000000039900000000000000000000000000000901454990000000000000000000057701     201211080000000000000000055110000063000000000000063000000000000000000000000000000000050000000000  3020121108   01MFBUHA    500                                                                                 3176185754201163111666000159010000       0057701                              N                     00000 10020256        000007
12005044228000105TRIARC COM S METAIS USINADOS                                          000000003410000000000000000000000000000090145500000000700013593820            201211080000000000000000055110000016000000000000016000000000000000000000000000000000050000000000  3020121108   01MFBUHA    500                                                                                 3157000135935076157868100079010000       00820                                N                     00000 10020256        000008
12005044228000105TRIARC COM S METAIS USINADOS                                          000000003410000000000000000000000000000090145501000000700013497314 S          201211080000000000000000055110000011000000000000011000000000000000000000000000000000050000000000  3020121108   01MFBUHA    500                                                                                 3157000134979076157868100019010000       00314                                N                     00000 10020256        000009
12058805466000144PEFIL COMERCIAL LTDA                                                  0000000023700086800000000014001 000000009024499300901322910317722988 01       201211050000000000000000055080000060000000000000060300000000000000000000000000000300050000000000  3020121108   01MFBUHA    500R GANGES  528                                                                    3010000                   000000000000000000280/01                            N                     00000 10020256        000010
12047190731000100DE CASTRO LOUR ENG IND LTDA                                           00000000341000000000000000000000000000009041732700000025008464803027234 0     201211080000000000000000055110001029597000000001029597000000000000000000000000000000050000000000  3020121108   01MFBUHA    500                                                                                 3112500846483036884500400049010000       00027234/01                          N                     00000 10020256        000011
12033325184001786ALSCO TOALHEIRO BRASIL                                                0000000023703396000000001490850 0000000090830963009000002770505VM27705        201211080000000000000000055110000051893000000000051893000000000000000000000000000000050000000000  3020121108   01MFBUHA    500RUA  GANGES 528                                                                  3010000                   0000000000000000027705                              N                     00000 10020256        000012
12047190731000100DE CASTRO LOUREIRO ENGENHARIA                                         0000000003300000 0000000000000  I000000000010169000000000000000               201211080000000000000000055110001192680000000001192680000000000000000000000000000000010000026825  3120121108   01HA        000                                                                                 3948430370000009553207010429             0026825/01                           N                     00000 10020256        000013
12047190731000100DE CASTRO LOUREIRO ENGENHARIA                                         0000000003300000 0000000000000  I000000000010170000000000000000               201211080000000000000000055110000919796000000000919796000000000000000000000000000000010000026820  3120121108   01HA        000                                                                                 3948430370000009553177010439             00026820/01                          N                     00000 10020256        000014
12043555887000197RENATO GONCALVES              RUA  ROZO LAGOA  512                    0247121000100000 0000000000000  I000000000010171000000000000000               201211080000000000000000055110000193613000000000193613000000000000000000000000000000010000000308  3120121108   01HA        000                                                                                 3000000104260650156804031149             00308/02                             N                     00000 10020256        000015
12061786604000108HERWAL ABRASIVOS E MAQUINAS LTRUA  TOLEDO BARBOSA  746                0306100000100000 0000000000000  I000000000010172000000000000000               201211080000000000000000055110000020000000000000020000000000000000000000000000000000010000001791  3120121108   01HA        000                                                                                 3986153004290719000047911819             0001791                              N                     00000 10020256        000016
12062442132000120LAR INFANCIA DE NICE          RUA  DENTISTA BARRETO  978              0342000060000000 0000000000000  I000000000010173000000000000000               201211080000000000000000000000000000000000000000005000000000000000000000000000000000010000112012  3120121108   01HA        000                                                                                 3000112101030960000784808179             0011/2012                            N                     00000 10020256        000017
12000815065000195SIND TRABALH N E O R I INTE   RUA  MANOEL DOS SANTOS NETO  64         0203201034100000 0000000000000  I000000000010174000000000000000               201211080000000000000000055110000000000000000000023215000000000000000000000000000000010050777384  3120121108   01HA        000                                                                                 3173507773843018958625800049             0050777384                           N                     00000 10020256        000018
12067300160000127OSACO PRODUTOS SIDERURGICOS LT                                        0000000023702415500000000063002 I000000000010175009024151670093               201211080000000000000000000000000000000000000000077868000000000000000000000000000000010000000650  3120121108   01HA        000                                                                                 3241509241516700930006300019             00650/01                             N                     00000 10020256        000019
900002000000000004170224                                                                                                                                                                                    000000000000000                                                                                                                                                                                                                                                    00001800881730004063841        000020
