0000147602043799295000110ALTAMIRA INDUSTRIA METALURGICA LT       202000000027120121008152104             2                                                                                                  000000000000000                                                                                                                                                                                                                                                                                   000001
12000867888000164TECNEQUIP TECNOLOGIA EQUIP LTD                                        0000000034100452 00000000749849 I000000000009983000000000000000               201210080000000000000000000000000000000000000000300000000000000000000000000000000000040000000001  0820121008   01HF        5001515000000009673171000000000000000                                               3C0000000101                               01                                 N                     01076 10020256        000002
12000867888000164TECNEQUIP TECNOLOGIA EQUIP LTD                                        0000000003303809500000130003245 I000000000009984000000000000000               201210080000000000000000000000000000000000000001100000000000000000000000000000000000040000000002  0820121008   01HF        5001515000000008373171000000000000000                                               3C0000000101                               02                                 N                     01076 10020256        000003
12013529495000192MAXMIRA CONTROLE E ADM LTDA                                           0000000034100467 00000000012340 I000000000009985000000000000000               201210080000000000000000000000000000000000000001000000000000000000000000000000000000050000000003  0820121008   01HF        5001515000000009373171000000000000000                                               3C0000000101                               03                                 N                     01076 10020256        000004
900000500000000002400000                                                                                                                                                                                    000000000000000                                                                                                                                                                                                                                                    00000300000000000000000        000005
