0000147602043799295000110ALTAMIRA INDUSTRIA METALURGICA LT       202000000437920130109212406             3                                                                                                  000000000000000                                                                                                                                                                                                                                                                                   000001
12012434269000165RIBASE TRANSP LOGISTICA LTDA                                          0000000023701231900000002302659 I000000000010386009000000007098               201301090000000000000000055730000019812000000000019812000000000000000000000000000000050020802007  3120130109   02BW        5000000               000000000000000                                               3123109000000070980230265019               CONHECS.NROS.02008/02007.          N                     01079 10020256        000002
12002439017000175TELEABC INFORMATICA LTDA   EPP                                        0000000000100000 0000000000000  I000000000010387000000000000000               201301090000000000000000055730000014400000000000014400000000000000000000000000000000010000000138  3120130109   02BW        5000000               000000000000000                                               3000000211143600000000301799               0138                               N                     01132 10020256        000003
11927071570000015ROGERIO LIONCO                CRISCIUMA 85 CASA 3 JD BRASIL  ZONA     0222500023701311000000000477133 I000000000010393000000000000000               201301090000000000000000000000000000000000000000207000000000000000000000000000000000050000013033  0120130109   02BW        5000000               000000000000000                                               3                                          CONHECS.NROS.013  &  033 - RS LINS N                     01321 10020256        000004
12062944582000111AS SOLUCOES COMERCIAL LTDA                                            00000000341000000000000000000000000000009400868900000090000422118568 A        201301092012121200000000055730000051100000000000051100000000000000000000000000000000050000000000  3020130109   02BW        2000000               000000000000000                                               3109000042214067251093000019               018568/01                          N                     01132 10020256        000005
12042956441000101SOLUCOES ACO USIMINAS                                                 0000000034100000000000000000000000000000941025960000002683818430019483101     201301092012121200000000055730000242295000000000242295000000000000000000000000000000050000000000  3020130109   02BW        2000000               000000000000000                                               3112683818432293807258000019               0194831/01                         N                     01132 10020256        000006
12006066698000124NOVO REINO LOGISTICA E TRANSPO                                        000000000010000000000000000000000000000094495464000000020149000165930         201301092012122000000000055730000029850000000000029850000000000000000000000000000000050000000000  3020130109   02BW        2000000               000000000000000                                               3044340201491584001800001139               0165930                            N                     01132 10020256        000007
12006209559000102MAZURKY IND COM EMB LTDA                                              000000003410000000000000000000000000000094204961000000268922810011330 1       201301092012121200000000055730000078643000000000078643000000000000000000000000000000050000000000  3020130109   02BW        2000000               000000000000000                                               3112689228107151434240900069               011330/01                          N                     01132 10020256        000008
12013937547000160DUBAY COMERCIAL LTDA                                                  0000000023701744200000000358460 0000000093832537009023470000002575            201301092012121200000000055730000103961000000000103961000000000000000000000000000000050000000000  3020130109   02BW        2000000               000000000000000                                               3                         000000000000000  575                                N                     01079 10020256        000009
12062539994000176LEALFER INDUSTRIA E COMERCIO D                                        0000000034100000 0000000000000  I000000000010384000000000000000               201301090000000000000000055730000243347000000000243347000000000000000000000000000000010000056060  3120130109   02BW        5000000               000000000000000                                               3181615177944076103324000089               056060/03                          N                     01132 10020256        000010
12013656578000142GUARINOR TRANSP E LOGISTICA LT                                        0000000010400000 0000000000000  I000000000010385000000000000000               201301090000000000000000055730000186688000000000186688000000000000000000000000000000040000009574  3120130109   02BW        5000000               000000000000000                                               3900000139532958700000017399               CONHECS.NROS.09574.                N                     01132 10020256        000011
12054217021000192RAFER COM MAT P ESCRIT LTDA                                           0000000000100000 0000000000000  I000000000010388000000000000000               201301090000000000000000055730000048750000000000048750000000000000000000000000000000010000003664  3120130109   02BW        5000000               000000000000000                                               3000000185029400990061201799               03664                              N                     01132 10020256        000012
12039040597000133ATERA INFORMATICA LTDA                                                0000000034100000 0000000000000  I000000000010389000000000000000               201301090000000000000000055730000034304000000000034304000000000000000000000000000000010000597370  3120130109   02BW        5000000               000000000000000                                               3175005973709064418855900019               0597370                            N                     01132 10020256        000013
12017469701000177ARCELORMITTAL BRASIL S A                                              0000000034100000 0000000000000  I000000000010390000000000000000               201301090000000000000000055730000075886000000000075886000000000000000000000000000000010000140788  3120130109   02BW        5000000               000000000000000                                               3181615211161293802529900099               0140788/01                         N                     01132 10020256        000014
12096579073000159CRSITALGRAF IMPRESSOS GRAFICOS                                        0000000039900000 0000000000000  I000000000010391000000000000000               201301090000000000000000055730000018018000000000018018000000000000000000000000000000010000000437  3120130109   02BW        5000000               000000000000000                                               3176574372471912059758700119               0437                               N                     01132 10020256        000015
12003102481000134AB5 INDUSTRIA E COMERCIO LTDA                                         0000000034100000 0000000000000  I000000000010392000000000000000               201301090000000000000000055730000015926000000000015926000000000000000000000000000000010000003386  3120130109   02BW        5000000               000000000000000                                               3181615205652003154755700029               03386                              N                     01132 10020256        000016
12003803271000173ATUAL SP C DE FERRAMENTAS LTDA                                        000000003410000000000000000000000000000093832533000000708269270008275         201301092012121200000000055730000034100000000000034100000000000000000000000000000000050000000000  3020130109   02BW        2000000               000000000000000                                               3157082692705013905550300019               08275                              N                     01132 10020256        000017
12042956441000101SOLUCOES ACO USIMINAS                                                 0000000034100000000000000000000000000000922972820000002592188930019014502     201301092012111400000000055730000475224000000000475224000000000000000000000000000000050000000000  3020130109   02BW        2000000               000000000000000                                               3112592188935293807258000019               0190145/02                         N                     01132 10020256        000018
900001900000000001879304                                                                                                                                                                                    000000000000000                                                                                                                                                                                                                                                    00001700891680001672304        000019
