0000147602043799295000110ALTAMIRA INDUSTRIA METALURGICA LT       202000000014320121009060742             1                                                                                                                                                                                                                                                                                                                                                                                                    000001
12001852612000175BT EQUIPAMENTOS INDUSTRIAIS LT                                        000000000330000000000000000000000000000087577366000000610000000594061         201210012012090600000000054730000041502000000000042502000000000000000000000000001000050000000000  3020121009   01          2                                                                                   3913651000000000594061010479                                                  N                     01321  0000000        000002
12001895314000162COLETA INDUSTRIAL FIMAVAN LTDA                                        00000000341000000000000000000000000000008844324600000090023445310405          201209272012091700000000054690000158141000000000166356000000000000000000000000008215050000000000  3020121009   01          2                                                                                   3109002344538144604097200029                                                  N                     01321  0000000        000003
12001895314000162COLETA INDUSTRIAL FIMAVAN LTDA                                        0000000034100000000000000000000000000000866992070000009002335349439           201208272012081700000000054380000123695000000000140316000000000000000000000000016621050000000000  3020121009   01          2                                                                                   3109002335346144604097200019                                                  N                     01321  0000000        000004
12002234917000186RODOVIARIO SOL NASCENTE LTDA                                          000000000010000000000000000000000000000089697939000000211686000034964         201210292012100500000000055010000071570000000000071570000000000000000000000000000000050000000000  3020121029   01FS        1                                                                                   3044122116863028000124731139                                                  N                     01321  0000000        000005
12002460454000170AUT SERVICE COMERCIO E SERVICO                                        0000000023702591700000000007692 000000008515292000901322060028234532 2        201209172012072400000000054590000238750000000000261203000000000000000000000000022453050000000000  3020121009   01          2  RUA JUNO  533                                                                    3                         000000000000000                                     N                     00598  0000000        000006
12002469103000120COMPROCRED FOMENTO MERCANTIL L                                        0000000023703511400000000106739 0000000088012259002022550000043022145 12      201210012012090500000000054730000093000000000000095480000000000000000000000000002480050000000000  3020121009   01          2  RUA TAMAINDE 1410 VILA NOVA MANCH SAO PATRANSPORTADORA FIOROT LTDA               3                         000252984000106                                     N                     00598  0000000        000007
12002503185000182ANDAIMES MAQUINAS BIG LTDA EPP                                        0000000034100000000000000000000000000000874070480000002313590765101           201209142012082000000000054560000016500000000000017105000000000000000000000000000605050000000000  3020121009   01          2                                                                                   3112313590765650303800900019                                                  N                     01321  0000000        000008
12002503185000182ANDAIMES E MAQUINAS BIG LTDA                                          000000003410000000000000000000000000000087820531000000233954448011791         201209212012082700000000054630000026000000000000026826000000000000000000000000000826050000000000  3020121009   01          2                                                                                   3112339544481925303435000019                                                  N                     01321  0000000        000009
12002503185000182ANDAIMES MAQUINAS BIG LTDA EPP                                        000000003410000000000000000000000000000086282613000000228719913011660         201208302012081000000000054410000012000000000000012560000000000000000000000000000560050000000000  3020121009   01          2                                                                                   3112287199130650303800900039                                                  N                     01321  0000000        000010
12003489596000123BEND FLEX I COMERCIO LTDA                                             000000003410000000000000000000000000000088957854000000172413968615            201209212012082300000000054630000582750000000000603378000000000000000000000000020628050000000000  3020121009   01          2                                                                                   3191724139685157734445800049                                                  N                     01321  0000000        000011
12003489596000123BEND FLEX I COMERCIO LTDA                                             000000003410000000000000000000000000000088350832000000171879874608            201209122012082100000000054540000695250000000000732159000000000000000000000000036909050000000000  3020121009   01          2                                                                                   3191718798744157734445800069                                                  N                     01321  0000000        000012
12003489596000123BEND FLEX I COMERCIO LTDA                                             000000003410000000000000000000000000000088599899000000171434574613            201209172012081600000000054590000585000000000000610322000000000000000000000000025322050000000000  3020121009   01          2                                                                                   3191714345748157734445800019                                                  N                     01321  0000000        000013
12004643290000142FLEXTINTAS IND E COMERCIO LTDA                                        000000003410000000000000000000000000000089697948000000246363343NFF037938C     201211152012100400000000055180000049525000000000049525000000000000000000000000000000050000000000  3020121116   01FS        1                                                                                   3112463633431051356781800069                                                  N                     01321  0000000        000014
12004643290000142FLEXTINTAS IND E COMERCIO LTDA                                        000000003410000000000000000000000000000089697949000000246363342NFF037938B     201211082012100400000000055110000049525000000000049525000000000000000000000000000000050000000000  3020121108   01FS        1                                                                                   3112463633423051356781800029                                                  N                     01321  0000000        000015
12004643290000142FLEXTINTAS IND E COMERCIO LTDA                                        000000003410000000000000000000000000000089697945000000246363341NFF037938A     201211012012100400000000055040000049525000000000049525000000000000000000000000000000050000000000  3020121101   01FS        1                                                                                   3112463633415051356781800099                                                  N                     01321  0000000        000016
12005151518000140BELENUS DO BRASIL LTDA                                                000000000330000000000000000000000000000089697935000000230000000R131165822     201211252012092600000000055280000094080000000000094080000000000000000000000000000000050000000000  3020121126   01FS        1                                                                                   3918381050000000445223010429                                                  N                     01321  0000000        000017
12005151518000140BELENUS DO BRASIL LTDA                                                000000000330000000000000000000000000000089697933000000150000000R131165812     201210262012092600000000054980000122305000000000122305000000000000000000000000000000050000000000  3020121026   01FS        1                                                                                   3918381050000000445215010469                                                  N                     01321  0000000        000018
12005151518000140BELENUS DO BRASIL LTDA                                                000000000330000000000000000000000000000089697937000000310000000R131165832     201212252012092600000000055580000094080000000000094080000000000000000000000000000000050000000000  3020121226   01FS        1                                                                                   3918381050000000445231010419                                                  N                     01321  0000000        000019
12005151518000140BELENUS DO BRASIL LTDA                                                000000000330000000000000000000000000000089697931000000660000000R131115422     201211242012092500000000055270000096000000000000096000000000000000000000000000000000050000000000  3020121126   01FS        1                                                                                   3918381050000000435066010419                                                  N                     01321  0000000        000020
12005151518000140BELENUS DO BRASIL LTDA                                                000000000330000000000000000000000000000089697934000000740000000R131115432     201212242012092500000000055570000096000000000000096000000000000000000000000000000000050000000000  3020121224   01FS        1                                                                                   3918381050000000435074010489                                                  N                     01321  0000000        000021
12005151518000140BELENUS DO BRASIL LTDA                                                000000000330000000000000000000000000000089697932000000580000000R131115412     201210252012092500000000054970000124800000000000124800000000000000000000000000000000050000000000  3020121025   01FS        1                                                                                   3918381050000000435058010459                                                  N                     01321  0000000        000022
12005335228000156DINAMICA INF E TELECOM LTDA EP                                        0000000023703257300000000503215 0000000088443245009032570017396MO008960A      201209302012091700000000054720000020000000000000020603000000000000000000000000000603050000000000  3020121009   01          2  RUA JUNO  533                                                                    3                         000000000000000                                     N                     00598  0000000        000023
12005852768000107DAOUD LEAL ELETRONICA LTDA ME                                         00000000033000000000000000000000000000008757736700000021000000000000000001097 201209262012090500000000054680000016558000000000017604000000000000000000000000001046050000000000  3020121009   01          2                                                                                   3949927090000000027421010429                                                  N                     01321  0000000        000024
12005880850000145NEDERMAN BRASIL COM PROD EX LT                                        000000003410000000000000000000000000000086373178000000614350956002763 A       201209252012081400000000054670000289674000000000297654000000000000000000000000007980050000000000  3020121009   01          2                                                                                   3156143509568160829000100049                                                  N                     01321  0000000        000025
12006000195000156MBA MERCANTIL BRAS DE ACO LTDA                                        0000000034100000000000000000000000000000889578520000001671394540008920B02     201209162012071700000000054580000576585000000000602667000000000000000000000000026082050000000000  3020121009   01          2                                                                                   3191671394549064849251000099                                                  N                     01321  0000000        000026
12006000195000156MBA MERCANTIL BRAS DE ACO LTDA                                        0000000034100000000000000000000000000000885998980000001667238420008870B02     201209112012071600000000054530000839952000000000886208000000000000000000000000046256050000000000  3020121009   01          2                                                                                   3191667238429064849251000039                                                  N                     01321  0000000        000027
12006000195000156MBA MERCANTIL BRAS DE ACO LTDA                                        0000000034100000000000000000000000000000886866570000001667238410008874B02     201209132012071600000000054550000802826000000000843880000000000000000000000000041054050000000000  3020121009   01          2                                                                                   3191667238411064849251000049                                                  N                     01321  0000000        000028
12006000195000156MBA MERCANTIL BRAS DE ACO LTDA                                        0000000034100000000000000000000000000000887698080000001667238400008876B02     201209142012071600000000054560000810321000000000850171000000000000000000000000039850050000000000  3020121009   01          2                                                                                   3191667238403064849251000059                                                  N                     01321  0000000        000029
12006000195000156MBA MERCANTIL BRAS DE ACO LTDA                                        0000000034100000000000000000000000000000887698090000001671394550008925B02     201209142012071700000000054560000719581000000000754956000000000000000000000000035375050000000000  3020121009   01          2                                                                                   3191671394556064849251000089                                                  N                     01321  0000000        000030
12006000195000156MBA MERCANTIL BRAS DE ACO LTDA                                        0000000034100000000000000000000000000000887698100000001671394560008926B02     201209142012071700000000054560000387716000000000406791000000000000000000000000019075050000000000  3020121009   01          2                                                                                   3191671394564064849251000019                                                  N                     01321  0000000        000031
12006000195000156M B A MERCANTIL BRASILEIRA DE                                         0000000000100000000000000000000000000000855028860000007952870000009006B02     201209252012073000000000054670000235480000000000237832000000000000000000000000002744050000000000  3020121001   05          3                                                                                   3043937952873333000105251189                                                  N                     01321  0000000        000032
12006867297000173MARCOS ANTONIO RIBEIRO ACOS                                           0000000034100000000000000000000000000000881913470000002386992240000433        201210082012091200000000054800000042270000000000042410000000000000000000000000000140050000000000  3020121009   01          2                                                                                   3112386992245046769908800059                                                  N                     01321  0000000        000033
12007175725000160WEG EQUIPAMENTOS ELETRICOS SA                                         0000000023702727800000000196800 00000000832180610090217400004980095359902     201209202012052300000000054620000272787000000000279684000000000000000000000000006897050000000000  3020121009   01          2  R JUNO  533                                                                      3                         000000000000000                                     N                     00598  0000000        000034
12007289649000113CRC LASER SUPR INF LTDA EPP                                           000000003410000000000000000000000000000089518989000000798566603000001157      201211022012100400000000055050000029940000000000029940000000000000000000000000000658050000000000  3020121105   01          2                                                                                   3157985666037000265431700019                                                  N                     01321  0000000        000035
12008272923000104P SANTOS ESQUADRARIAS METAL ME                                        0000000034100000000000000000000000000000896979550000006153947641850           201211022012100800000000055050000400000000000000400000000000000000000000000000000000050000000000  3020121105   01FS        1                                                                                   3156153947640160141951600049                                                  N                     01321  0000000        000036
12009080640000123SERVPAES LTDA ME                                                      000000001040000000000000000000000000000089697941000000000667500002510         201210102012100500000000054820000118750000000000118750000000000000000000000000000000050000000000  3020121010   01FS        1                                                                                   3900000066710868700000040969                                                  N                     01321  0000000        000037
12009338857000190FERNANDO  NAGAO  CARDONE  ALVA                                        000000000330000000000000000000000000000089697936000000800000000ALTA 10 2012   201210202012092500000000054920000134632000000000134632000000000000000000000000000000050000000000  3020121022   01FS        1                                                                                   3947901700000051050080010129                                                  N                     01321  0000000        000038
12009419898000101LUSITANO INDUSTRIA C E P LTDA                                         00000000341000000000000000000000000000008653882000000090000757101 10137 2     201209192012081500000000054610000035135000000000037475000000000000000000000000002340050000000000  3020121009   01          2                                                                                   3109000075716001160072300049                                                  N                     01321  0000000        000039
12009630445000120MARIANA DE QUEIROZ SILVA   GRA                                        0000000000100000000000000000000000000000878205830000000001180000687           201210012012083100000000054730000018500000000000018500000000000000000000000000000000050000000000  3020121001   05          3                                                                                   3000000167849100000001181749                                                  N                     01321  0000000        000040
12011318709000156IMPAKTO TRANSPORTES                                                   0000000000100000000000000000000000000000896979380000000001870006769 6785      201210252012100500000000054970000435000000000000435000000000000000000000000000000000050000000000  3020121025   01FS        1                                                                                   3000000245286000000001871749                                                  N                     01321  0000000        000041
12012006058000121WEG TINTAS LTDA                                                       0000000023702727800000000001309 00000000861207260090222200000900015775001     201209222012080800000000054640000306569000000000313505000000000000000000000000006936050000000000  3020121009   01          2  R JUNO  533                                                                      3                         000000000000000                                     N                     00598  0000000        000042
12012006058000121WEG TINTAS LTDA                                                       0000000023702727800000000001309 00000000856071250090221400000820015587301     201209142012073100000000054560000459854000000000475179000000000000000000000000015325050000000000  3020121009   01          2  R JUNO  533                                                                      3                         000000000000000                                     N                     00598  0000000        000043
12012006058000121WEG TINTAS LTDA                                                       0000000023702727800000000001309 00000000856071260090221400000830015587302     201209292012073100000000054710000459854000000000465984000000000000000000000000006130050000000000  3020121009   01          2  R JUNO  533                                                                      3                         000000000000000                                     N                     00598  0000000        000044
12012006058000121WEG TINTAS LTDA                                                       0000000023702727800000000001309 00000000841061130090218800000850014990203     201209182012070500000000054600000306662000000000315230000000000000000000000000008568050000000000  3020121009   01          2  R JUNO  533                                                                      3                         000000000000000                                     N                     00598  0000000        000045
12012006058000121WEG TINTAS LTDA                                                       0000000023702727800000000001309 00000000861207270090222200000910015775002     201210072012080800000000054790000306569000000000307385000000000000000000000000000816050000000000  3020121009   01          2  R JUNO  533                                                                      3                         000000000000000                                     N                     00598  0000000        000046
12012006058000121WEG TINTAS LTDA                                                       0000000023702727800000000001309 00000000864554440090222800000730015908401     201209282012081400000000054700000306569000000000311057000000000000000000000000004488050000000000  3020121009   01          2  R JUNO  533                                                                      3                         000000000000000                                     N                     00598  0000000        000047
12012006058000121WEG TINTAS LTDA                                                       0000000023702727800000000001309 00000000842436840090219200000860015068803     201209222012070900000000054640000306662000000000313598000000000000000000000000006936050000000000  3020121009   01          2  R JUNO  533                                                                      3                         000000000000000                                     N                     00598  0000000        000048
12012006058000121WEG TINTAS LTDA                                                       0000000023702727800000000001309 00000000844839240090219500000730015168703     201209252012071200000000054670000306662000000000312374000000000000000000000000005712050000000000  3020121009   01          2  R JUNO  533                                                                      3                         000000000000000                                     N                     00598  0000000        000049
12012006058000121WEG TINTAS LTDA                                                       0000000023702727800000000001309 00000000847452150090220000000920015248102     201209152012071700000000054570000306569000000000316361000000000000000000000000009792050000000000  3020121009   01          2  R JUNO  533                                                                      3                         000000000000000                                     N                     00598  0000000        000050
12012006058000121WEG TINTAS LTDA                                                       0000000023702727800000000001309 00000000868126340090223500001170016086601     201210052012082100000000054770000306569000000000308201000000000000000000000000001632050000000000  3020121009   01          2  R JUNO  533                                                                      3                         000000000000000                                     N                     00598  0000000        000051
12012006058000121WEG TINTAS LTDA                                                       0000000023702727800000000001309 00000000847452160090220000000930015248103     201209302012071700000000054720000306662000000000310334000000000000000000000000003672050000000000  3020121009   01          2  R JUNO  533                                                                      3                         000000000000000                                     N                     00598  0000000        000052
12012006058000121WEG TINTAS LTDA                                                       0000000023702727800000000001309 00000000849855330090220500001210015343102     201209182012072000000000054600000306569000000000315137000000000000000000000000008568050000000000  3020121009   01          2  R JUNO  533                                                                      3                         000000000000000                                     N                     00598  0000000        000053
12012006058000121WEG TINTAS LTDA                                                       0000000023702727800000000001309 00000000849855340090220500001220015343103     201210032012072000000000054750000306662000000000309110000000000000000000000000002448050000000000  3020121009   01          2  R JUNO  533                                                                      3                         000000000000000                                     N                     00598  0000000        000054
12012006058000121WEG TINTAS LTDA                                                       0000000023702727800000000001309 00000000854049550090221200001010015513002     201209252012072700000000054670000459854000000000468436000000000000000000000000008582050000000000  3020121009   01          2  R JUNO  533                                                                      3                         000000000000000                                     N                     00598  0000000        000055
12012931789000183RCM IMPORTADORA DE FERRAMENTAS                                        0000000000100000000000000000000000000000878205870000003023080004126           201210012012090300000000054730000043500000000000043500000000000000000000000000000000050000000000  3020121001   05          3                                                                                   3000000225937123243023081799                                                  N                     01321  0000000        000056
12013656578000142GUARINOR TRANSP E LOGISTICA LT                                        000000001040000000000000000000000000000089697940000000001181400001608 12      201210172012092700000000054890000065000000000000065000000000000000000000000000000000050000000000  3020121017   01FS        1                                                                                   3900000118132958700000017369                                                  N                     01321  0000000        000057
12014309992000148WEG DRIVES   CONTROLS   AUTOMA                                        0000000023702727800000000001872 00000000828904050090217000002200005763302     201209152012051800000000054570000272992000000000281704000000000000000000000000008712050000000000  3020121009   01          2  R JUNO  533                                                                      3                         000000000000000                                     N                     00598  0000000        000058
12014775592000128HELIO ADRIANO DA SILVA ME                                             0000000003300000000000000000000000000000880122770000004900000008565 8566      201209282012091000000000054700000034500000000000035442000000000000000000000000000942050000000000  3020121009   01          2                                                                                   3956114740000000000049010129                                                  N                     01321  0000000        000059
12014775592000128HELIO ADRIANO DA SILVA ME                                             0000000023700593200000002432943 00000000894344270090227700000128727           201210112012092500000000054830000019500000000000019500000000000000000000000000000000050000000000  3020121011   01          2  AV TAMAINDE 1410                                                                 300000000000000000001500  000000000000000                                     N                     00598  0000000        000060
12016802308000190TRANSMARRECO LTDA                                                     000000000330000000000000000000000000000088769814000000640000000353 12         201210052012092100000000054770000106581000000000109993000000000000000000000000003412050000000000  3020121009   01          2                                                                                   3907636240000000643564010119                                                  N                     01321  0000000        000061
12033325184001786ALSCO TOALHEIRO BRASIL                                                0000000023703396000000001490850 0000000087820607009000002716505VM27165        201209262012090600000000054680000045665000000000046263000000000000000000000000000598050000000000  3020121009   01          2  RUA  GANGES 528                                                                  3                         000000000000000                                     N                     00598  0000000        000062
12033325184001786ALSCO TOALHEIRO BRASIL                                                0000000023703396000000001490850 0000000087820608009000028814703VM00288147     201210052012090100000000054770000026347000000000026451000000000000000000000000000104050000000000  3020121009   01          2  RUA  GANGES 528                                                                  3                         000000000000000                                     N                     00598  0000000        000063
12033325184001786ALSCO TOALHEIRO BRASIL                                                0000000023703396000000001490850 0000000089697953009000002751805VM27518        201210242012100400000000054960000068498000000000068498000000000000000000000000000000050000000000  3020121024   01FS        1  RUA  GANGES 528                                                                  3                         000000000000000                                     N                     00598  0000000        000064
12033325184001786ALSCO TOALHEIRO BRASIL                                                0000000023703396000000001490850 0000000089697954009000029120903VM00291209     201211052012100100000000055080000026347000000000026347000000000000000000000000000000050000000000  3020121105   01FS        1  RUA  GANGES 528                                                                  3                         000000000000000                                     N                     00598  0000000        000065
12035820448000136WHITE MARTINS GASES INDUSTRIAI                                        0000000023700026400000003937925 0000000086538817009022290001168366855 001     201209112012081600000000054530000121725000000000128533000000000000000000000000006970050000000000  3020121008   06          3  RUA GANGES  528                                                                  3                         000000000000000                                     N                     00598  0000000        000066
12035820448000136WHITE MARTINS GASES INDUSTRIAI                                        0000000023700026400000003937925 0000000087168275009022440000143375351 001     201209272012083100000000054690000040575000000000042034000000000000000000000000001459050000000000  3020121009   01          2  RUA GANGES  528                                                                  3                         000000000000000                                     N                     00598  0000000        000067
12035820448000136WHITE MARTINS GASES INDUSTRIAI                                        0000000023700026400000003937925 0000000086907101009022370010705372273 001     201209202012082400000000054620000017600000000000018389000000000000000000000000000789050000000000  3020121009   01          2  RUA GANGES  528                                                                  3                         000000000000000                                     N                     00598  0000000        000068
12035820448000136WHITE MARTINS GASES INDUSTRIAI                                        0000000023700026400000003937925 0000000086907102009022370011747372774 001     201209202012082400000000054620000040575000000000042412000000000000000000000000001837050000000000  3020121009   01          2  RUA GANGES  528                                                                  3                         000000000000000                                     N                     00598  0000000        000069
12035820448000136WHITE MARTINS GASES INDUSTRIAI                                        0000000023700026400000003937925 0000000087067052009022420002594374120 001     201209252012082900000000054670000113610000000000117996000000000000000000000000004386050000000000  3020121009   01          2  RUA GANGES  528                                                                  3                         000000000000000                                     N                     00598  0000000        000070
12035820448000136WHITE MARTINS GASES INDUSTRIAI                                        0000000023700026400000003937925 0000000086699210009022330000393368126 001     201209142012081800000000054560000162300000000000170946000000000000000000000000008646050000000000  3020121009   01          2  RUA GANGES  528                                                                  3                         000000000000000                                     N                     00598  0000000        000071
12035820448000136WHITE MARTINS GASES INDUSTRIAI                                        0000000023700026400000003937925 0000000086812633009022350001453369229 001     201209182012082200000000054600000056805000000000059537000000000000000000000000002732050000000000  3020121009   01          2  RUA GANGES  528                                                                  3                         000000000000000                                     N                     00598  0000000        000072
12035820448000136WHITE MARTINS GASES INDUSTRIAI                                        0000000023700026400000003937925 0000000087820600009022540001838377866 001     201210042012090700000000054760000202876000000000207273000000000000000000000000004397050000000000  3020121009   01          2  RUA GANGES  528                                                                  3                         000000000000000                                     N                     00598  0000000        000073
12035820448000136WHITE MARTINS GASES INDUSTRIAI                                        0000000023700026400000003937925 0000000087577331009022500001416377141 001     201210022012090600000000054740000040575000000000041484000000000000000000000000000909050000000000  3020121009   01          2  RUA GANGES  528                                                                  3                         000000000000000                                     N                     00598  0000000        000074
12042956441000101SOLUCOES ACO USIMINAS                                                 0000000034100000000000000000000000000000859590620000002274469790017353702     201209282012080300000000054700000081053000000000082835000000000000000000000000001782050000000000  3020121009   01          2                                                                                   3112274469793293807258000069                                                  N                     01321  0000000        000075
12042956441000101SOLUCOES ACO USIMINAS                                                 0000000034100000000000000000000000000000859590630000002274469800017353802     201209282012080300000000054700000166998000000000170672000000000000000000000000003674050000000000  3020121009   01          2                                                                                   3112274469801293807258000059                                                  N                     01321  0000000        000076
12042956441000101SOLUCOES ACO USIMINAS                                                 0000000034100000000000000000000000000000836417910000002164218370016738103     201209192012062700000000054610000830173000000000863373000000000000000000000000033200050000000000  3020121009   01          2                                                                                   3112164218375293807258000039                                                  N                     01321  0000000        000077
12042956441000101SOLUCOES ACO USIMINAS                                                 0000000034100000000000000000000000000000847452070000002216130350005922202     201209102012071600000000054520000172071000000000182047000000000000000000000000009976050000000000  3020121009   01          2                                                                                   3112216130354293807258000049                                                  N                     01321  0000000        000078
12042956441000101SOLUCOES ACO USIMINAS                                                 0000000034100000000000000000000000000000847452100000002216130340017012402     201209102012071500000000054520000147428000000000155983000000000000000000000000008555050000000000  3020121009   01          2                                                                                   3112216130347293807258000059                                                  N                     01321  0000000        000079
12042956441000101SOLUCOES ACO USIMINAS                                                 0000000034100000000000000000000000000000846595700000002210880280016980502     201209102012071200000000054520000156071000000000165119000000000000000000000000009048050000000000  3020121009   01          2                                                                                   3112210880285293807258000039                                                  N                     01321  0000000        000080
12042956441000101SOLUCOES ACO USIMINAS                                                 0000000034100000000000000000000000000000846595710000002210880290016980602     201209102012071200000000054520000426094000000000450802000000000000000000000000024708050000000000  3020121009   01          2                                                                                   3112210880293293807258000019                                                  N                     01321  0000000        000081
12042956441000101SOLUCOES ACO USIMINAS                                                 0000000034100000000000000000000000000000848180700000002220192900017041002     201209112012071700000000054530000155433000000000164141000000000000000000000000008708050000000000  3020121009   01          2                                                                                   3112220192903293807258000029                                                  N                     01321  0000000        000082
12042956441000101SOLUCOES ACO USIMINAS                                                 0000000034100000000000000000000000000000848180710000002220192910017041202     201209112012071700000000054530000205421000000000216929000000000000000000000000011508050000000000  3020121009   01          2                                                                                   3112220192911293807258000019                                                  N                     01321  0000000        000083
12042956441000101SOLUCOES ACO USIMINAS                                                 0000000034100000000000000000000000000000850740460000002233586800017127201     201208202012072000000000054310000137881000000000151681000000000000000000000000013800050000000000  3020121009   01          2                                                                                   3112233586802293807258000019                                                  N                     01321  0000000        000084
12042956441000101SOLUCOES ACO USIMINAS                                                 0000000034100000000000000000000000000000855028680000002254329370017202402     201209202012072600000000054620000244136000000000253408000000000000000000000000009272050000000000  3020121009   01          2                                                                                   3112254329371293807258000079                                                  N                     01321  0000000        000085
12042956441000101SOLUCOES ACO USIMINAS                                                 0000000034100000000000000000000000000000855028690000002254329380017212902     201209212012072600000000054630000140098000000000145138000000000000000000000000005040050000000000  3020121009   01          2                                                                                   3112254329389293807258000019                                                  N                     01321  0000000        000086
12042956441000101SOLUCOES ACO USIMINAS                                                 0000000034100000000000000000000000000000850740470000002233586810017101002     201209142012071900000000054560000732575000000000769200000000000000000000000000036625050000000000  3020121009   01          2                                                                                   3112233586810293807258000019                                                  N                     01321  0000000        000087
12042956441000101SOLUCOES ACO USIMINAS                                                 0000000034100000000000000000000000000000850740480000002233586820017101202     201209142012071900000000054560000144634000000000151859000000000000000000000000007225050000000000  3020121009   01          2                                                                                   3112233586828293807258000029                                                  N                     01321  0000000        000088
12042956441000101SOLUCOES ACO USIMINAS                                                 0000000034100000000000000000000000000000858616520000002271409870017319503     201211262012080200000000055290000197381000000000197381000000000000000000000000000000050000000000  3020121126   01          2                                                                                   3112271409875293807258000049                                                  N                     01321  0000000        000089
12042956441000101SOLUCOES ACO USIMINAS                                                 0000000034100000000000000000000000000000858616530000002271409880017319603     201211262012080200000000055290000197045000000000197045000000000000000000000000000000050000000000  3020121126   01          2                                                                                   3112271409883293807258000079                                                  N                     01321  0000000        000090
12042956441000101SOLUCOES ACO USIMINAS                                                 0000000034100000000000000000000000000000858616540000002271409890017319703     201211262012080200000000055290000197213000000000197213000000000000000000000000000000050000000000  3020121126   01          2                                                                                   3112271409891293807258000019                                                  N                     01321  0000000        000091
12042956441000101SOLUCOES ACO USIMINAS                                                 0000000034100000000000000000000000000000859590640000002274469810017353703     201211262012080300000000055290000081052000000000081052000000000000000000000000000000050000000000  3020121126   01          2                                                                                   3112274469819293807258000019                                                  N                     01321  0000000        000092
12042956441000101SOLUCOES ACO USIMINAS                                                 0000000034100000000000000000000000000000859590660000002274469820017353803     201211262012080300000000055290000166997000000000166997000000000000000000000000000000050000000000  3020121126   01          2                                                                                   3112274469827293807258000059                                                  N                     01321  0000000        000093
12042956441000101SOLUCOES ACO USIMINAS                                                 0000000034100000000000000000000000000000861207230000002282166990017385802     201211012012080700000000055040000714796000000000714796000000000000000000000000001430050000000000  3020121101   01          2                                                                                   3112282166993293807258000069                                                  N                     01321  0000000        000094
12042956441000101SOLUCOES ACO USIMINAS                                                 0000000034100000000000000000000000000000861207240000002282167000017385803     201211292012080700000000055320000714796000000000714796000000000000000000000000000000050000000000  3020121129   01          2                                                                                   3112282167009293807258000089                                                  N                     01321  0000000        000095
12042956441000101SOLUCOES ACO USIMINAS                                                 0000000034100000000000000000000000000000846595720000002210880300016980503     201211052012071200000000055080000156071000000000156071000000000000000000000000000312050000000000  3020121105   01          2                                                                                   3112210880301293807258000029                                                  N                     01321  0000000        000096
12042956441000101SOLUCOES ACO USIMINAS                                                 0000000034100000000000000000000000000000853154830000002246247020017196602     201209202012072500000000054620000804808000000000835398000000000000000000000000030590050000000000  3020121009   01          2                                                                                   3112246247020293807258000089                                                  N                     01321  0000000        000097
12042956441000101SOLUCOES ACO USIMINAS                                                 0000000034100000000000000000000000000000853154840000002246247030017196702     201209202012072500000000054620000234841000000000243771000000000000000000000000008930050000000000  3020121009   01          2                                                                                   3112246247038293807258000099                                                  N                     01321  0000000        000098
12042956441000101SOLUCOES ACO USIMINAS                                                 0000000034100000000000000000000000000000853154850000002246247040017197302     201209202012072500000000054620000970103000000001006963000000000000000000000000036860050000000000  3020121009   01          2                                                                                   3112246247046293807258000019                                                  N                     01321  0000000        000099
12042956441000101SOLUCOES ACO USIMINAS                                                 0000000034100000000000000000000000000000855028670000002254329360017200402     201209202012072600000000054620000163224000000000169418000000000000000000000000006194050000000000  3020121009   01          2                                                                                   3112254329363293807258000069                                                  N                     01321  0000000        000100
12042956441000101SOLUCOES ACO USIMINAS                                                 0000000034100000000000000000000000000000855028700000002254329390017213002     201209212012072600000000054630000140602000000000145660000000000000000000000000005058050000000000  3020121009   01          2                                                                                   3112254329397293807258000089                                                  N                     01321  0000000        000101
12042956441000101SOLUCOES ACO USIMINAS                                                 0000000034100000000000000000000000000000855028720000002254329340017200202     201209202012072600000000054620000680385000000000706244000000000000000000000000025859050000000000  3020121009   01          2                                                                                   3112254329348293807258000079                                                  N                     01321  0000000        000102
12042956441000101SOLUCOES ACO USIMINAS                                                 0000000034100000000000000000000000000000855028730000002254329350017200302     201209202012072600000000054620000156896000000000162862000000000000000000000000005966050000000000  3020121009   01          2                                                                                   3112254329355293807258000029                                                  N                     01321  0000000        000103
12042956441000101SOLUCOES ACO USIMINAS                                                 0000000034100000000000000000000000000000855028770000002254329400017220502     201209212012072700000000054630000981022000000001016338000000000000000000000000035316050000000000  3020121009   01          2                                                                                   3112254329405293807258000099                                                  N                     01321  0000000        000104
12042956441000101SOLUCOES ACO USIMINAS                                                 0000000034100000000000000000000000000000856906410000002262886280017266201     201208282012073000000000054390000119472000000000129510000000000000000000000000010038050000000000  3020121009   01          2                                                                                   3112262886289293807258000089                                                  N                     01321  0000000        000105
12042956441000101SOLUCOES ACO USIMINAS                                                 0000000034100000000000000000000000000000856906420000002262886290017266301     201208282012073000000000054390000145069000000000157249000000000000000000000000012180050000000000  3020121009   01          2                                                                                   3112262886297293807258000099                                                  N                     01321  0000000        000106
12042956441000101SOLUCOES ACO USIMINAS                                                 0000000034100000000000000000000000000000856906430000002262886300017266202     201209252012073000000000054670000119436000000000122782000000000000000000000000003346050000000000  3020121009   01          2                                                                                   3112262886305293807258000019                                                  N                     01321  0000000        000107
12042956441000101SOLUCOES ACO USIMINAS                                                 0000000034100000000000000000000000000000856906440000002262886310017266302     201209252012073000000000054670000145025000000000149085000000000000000000000000004060050000000000  3020121009   01          2                                                                                   3112262886313293807258000029                                                  N                     01321  0000000        000108
12042956441000101SOLUCOES ACO USIMINAS                                                 0000000034100000000000000000000000000000858616390000002271409750017315102     201209272012080200000000054690000579374000000000593282000000000000000000000000013908050000000000  3020121009   01          2                                                                                   3112271409750293807258000019                                                  N                     01321  0000000        000109
12042956441000101SOLUCOES ACO USIMINAS                                                 0000000034100000000000000000000000000000858616400000002271409760017316002     201209272012080200000000054690000929451000000000951759000000000000000000000000022308050000000000  3020121009   01          2                                                                                   3112271409768293807258000079                                                  N                     01321  0000000        000110
12042956441000101SOLUCOES ACO USIMINAS                                                 0000000034100000000000000000000000000000858616410000002271409770017319302     201209272012080200000000054690000981526000000001005082000000000000000000000000023556050000000000  3020121009   01          2                                                                                   3112271409776293807258000019                                                  N                     01321  0000000        000111
12042956441000101SOLUCOES ACO USIMINAS                                                 0000000034100000000000000000000000000000858616420000002271409780017319402     201209272012080200000000054690000178902000000000183198000000000000000000000000004296050000000000  3020121009   01          2                                                                                   3112271409784293807258000029                                                  N                     01321  0000000        000112
12042956441000101SOLUCOES ACO USIMINAS                                                 0000000034100000000000000000000000000000858616430000002271409790017319502     201209272012080200000000054690000197380000000000202120000000000000000000000000004740050000000000  3020121009   01          2                                                                                   3112271409792293807258000049                                                  N                     01321  0000000        000113
12042956441000101SOLUCOES ACO USIMINAS                                                 0000000034100000000000000000000000000000858616440000002271409800017319602     201209272012080200000000054690000197044000000000201772000000000000000000000000004728050000000000  3020121009   01          2                                                                                   3112271409800293807258000019                                                  N                     01321  0000000        000114
12042956441000101SOLUCOES ACO USIMINAS                                                 0000000034100000000000000000000000000000858616450000002271409810017319702     201209272012080200000000054690000197212000000000201940000000000000000000000000004728050000000000  3020121009   01          2                                                                                   3112271409818293807258000019                                                  N                     01321  0000000        000115
12042956441000101SOLUCOES ACO USIMINAS                                                 0000000034100000000000000000000000000000858616460000002271409820017319802     201209272012080200000000054690000194525000000000199193000000000000000000000000004668050000000000  3020121009   01          2                                                                                   3112271409826293807258000079                                                  N                     01321  0000000        000116
12042956441000101SOLUCOES ACO USIMINAS                                                 0000000034100000000000000000000000000000841725540000002188168620016859403     201209262012070400000000054680000164455000000000168732000000000000000000000000004277050000000000  3020121009   01          2                                                                                   3112188168622293807258000019                                                  N                     01321  0000000        000117
12042956441000101SOLUCOES ACO USIMINAS                                                 0000000034100000000000000000000000000000841725550000002188168630016859503     201209262012070400000000054680000234336000000000240433000000000000000000000000006097050000000000  3020121009   01          2                                                                                   3112188168630293807258000089                                                  N                     01321  0000000        000118
12042956441000101SOLUCOES ACO USIMINAS                                                 0000000034100000000000000000000000000000841725560000002188168640016884803     201209272012070500000000054690000120612000000000123504000000000000000000000000002892050000000000  3020121009   01          2                                                                                   3112188168648293807258000059                                                  N                     01321  0000000        000119
12042956441000101SOLUCOES ACO USIMINAS                                                 0000000034100000000000000000000000000000841725570000002188168690016891503     201209272012070500000000054690001128343000000001155427000000000000000000000000027084050000000000  3020121009   01          2                                                                                   3112188168697293807258000039                                                  N                     01321  0000000        000120
12042956441000101SOLUCOES ACO USIMINAS                                                 0000000034100000000000000000000000000000841725580000002188168650016884903     201209272012070500000000054690000531835000000000544603000000000000000000000000012768050000000000  3020121009   01          2                                                                                   3112188168655293807258000019                                                  N                     01321  0000000        000121
12042956441000101SOLUCOES ACO USIMINAS                                                 0000000034100000000000000000000000000000841725590000002188168660016885103     201209272012070500000000054690000219722000000000224990000000000000000000000000005268050000000000  3020121009   01          2                                                                                   3112188168663293807258000049                                                  N                     01321  0000000        000122
12042956441000101SOLUCOES ACO USIMINAS                                                 0000000034100000000000000000000000000000841725600000002188168670016891203     201209272012070500000000054690001132542000000001159722000000000000000000000000027180050000000000  3020121009   01          2                                                                                   3112188168671293807258000069                                                  N                     01321  0000000        000123
12042956441000101SOLUCOES ACO USIMINAS                                                 0000000034100000000000000000000000000000841725610000002188168680016891403     201209272012070500000000054690000795233000000000814313000000000000000000000000019080050000000000  3020121009   01          2                                                                                   3112188168689293807258000029                                                  N                     01321  0000000        000124
12042956441000101SOLUCOES ACO USIMINAS                                                 0000000034100000000000000000000000000000843180440000002194744360016902903     201209282012070600000000054700000179794000000000183754000000000000000000000000003960050000000000  3020121009   01          2                                                                                   3112194744366293807258000079                                                  N                     01321  0000000        000125
12042956441000101SOLUCOES ACO USIMINAS                                                 0000000034100000000000000000000000000000840313040000002181699250016829703     201209242012070200000000054660000643711000000000663016000000000000000000000000019305050000000000  3020121009   01          2                                                                                   3112181699250293807258000019                                                  N                     01321  0000000        000126
12042956441000101SOLUCOES ACO USIMINAS                                                 0000000034100000000000000000000000000000840313050000002181699260016829803     201209242012070200000000054660000322527000000000332202000000000000000000000000009675050000000000  3020121009   01          2                                                                                   3112181699268293807258000029                                                  N                     01321  0000000        000127
12042956441000101SOLUCOES ACO USIMINAS                                                 0000000034100000000000000000000000000000840313080000002181699230016814403     201209242012070200000000054660000968423000000000997478000000000000000000000000029055050000000000  3020121009   01          2                                                                                   3112181699235293807258000079                                                  N                     01321  0000000        000128
12042956441000101SOLUCOES ACO USIMINAS                                                 0000000034100000000000000000000000000000840313090000002181699240016827103     201209242012070200000000054660000703009000000000724099000000000000000000000000021090050000000000  3020121009   01          2                                                                                   3112181699243293807258000019                                                  N                     01321  0000000        000129
12042956441000101SOLUCOES ACO USIMINAS                                                 0000000034100000000000000000000000000000850740490000002233586830017126902     201209172012072000000000054590000208392000000000217149000000000000000000000000009174050000000000  3020121008   06          3                                                                                   3112233586836293807258000089                                                  N                     01321  0000000        000130
12042956441000101SOLUCOES ACO USIMINAS                                                 0000000034100000000000000000000000000000850740500000002233586840017127002     201209172012072000000000054590000190428000000000198429000000000000000000000000008382050000000000  3020121008   06          3                                                                                   3112233586844293807258000019                                                  N                     01321  0000000        000131
12042956441000101SOLUCOES ACO USIMINAS                                                 0000000034100000000000000000000000000000850740510000002233586850017127102     201209172012072000000000054590000167727000000000174762000000000000000000000000007370050000000000  3020121008   06          3                                                                                   3112233586851293807258000039                                                  N                     01321  0000000        000132
12042956441000101SOLUCOES ACO USIMINAS                                                 0000000034100000000000000000000000000000846595730000002210880310016980603     201211052012071200000000055080000426094000000000426094000000000000000000000000000852050000000000  3020121105   01          2                                                                                   3112210880319293807258000069                                                  N                     01321  0000000        000133
12042956441000101SOLUCOES ACO USIMINAS                                                 0000000034100000000000000000000000000000847452080000002216130360017012403     201211072012071500000000055100000147427000000000147427000000000000000000000000000000050000000000  3020121107   01          2                                                                                   3112216130362293807258000019                                                  N                     01321  0000000        000134
12042956441000101SOLUCOES ACO USIMINAS                                                 0000000034100000000000000000000000000000847452090000002216130370005922203     201211072012071600000000055100000172071000000000172071000000000000000000000000000000050000000000  3020121107   01          2                                                                                   3112216130370293807258000019                                                  N                     01321  0000000        000135
12042956441000101SOLUCOES ACO USIMINAS                                                 0000000034100000000000000000000000000000848180560000002220192920017041003     201211082012071700000000055110000155434000000000155434000000000000000000000000000000050000000000  3020121108   01          2                                                                                   3112220192929293807258000019                                                  N                     01321  0000000        000136
12042956441000101SOLUCOES ACO USIMINAS                                                 0000000034100000000000000000000000000000844063840000002198870040016923303     201211012012071000000000055040000442971000000000442971000000000000000000000000000886050000000000  3020121101   01          2                                                                                   3112198870043293807258000089                                                  N                     01321  0000000        000137
12042956441000101SOLUCOES ACO USIMINAS                                                 0000000034100000000000000000000000000000848180570000002220192930017041203     201211082012071700000000055110000205421000000000205421000000000000000000000000000000050000000000  3020121108   01          2                                                                                   3112220192937293807258000039                                                  N                     01321  0000000        000138
12042956441000101SOLUCOES ACO USIMINAS                                                 0000000034100000000000000000000000000000850740340000002233586880017101203     201211142012071900000000055170000144633000000000144633000000000000000000000000000000050000000000  3020121114   01          2                                                                                   3112233586885293807258000019                                                  N                     01321  0000000        000139
12042956441000101SOLUCOES ACO USIMINAS                                                 0000000034100000000000000000000000000000850740350000002233586890017126903     201211142012072000000000055170000208393000000000208393000000000000000000000000000000050000000000  3020121114   01          2                                                                                   3112233586893293807258000059                                                  N                     01321  0000000        000140
12042956441000101SOLUCOES ACO USIMINAS                                                 0000000034100000000000000000000000000000850740360000002233586900017127003     201211142012072000000000055170000190427000000000190427000000000000000000000000000000050000000000  3020121114   01          2                                                                                   3112233586901293807258000099                                                  N                     01321  0000000        000141
12042956441000101SOLUCOES ACO USIMINAS                                                 0000000034100000000000000000000000000000850740370000002233586870017101003     201211142012071900000000055170000732574000000000732574000000000000000000000000000000050000000000  3020121114   01          2                                                                                   3112233586877293807258000079                                                  N                     01321  0000000        000142
12042956441000101SOLUCOES ACO USIMINAS                                                 0000000034100000000000000000000000000000850740380000002233586910017127103     201211142012072000000000055170000167726000000000167726000000000000000000000000000000050000000000  3020121114   01          2                                                                                   3112233586919293807258000019                                                  N                     01321  0000000        000143
12042956441000101SOLUCOES ACO USIMINAS                                                 0000000034100000000000000000000000000000853154860000002246247050017196603     201211192012072500000000055220000804807000000000804807000000000000000000000000000000050000000000  3020121119   01          2                                                                                   3112246247053293807258000059                                                  N                     01321  0000000        000144
12042956441000101SOLUCOES ACO USIMINAS                                                 0000000034100000000000000000000000000000853154870000002246247060017196703     201211192012072500000000055220000234840000000000234840000000000000000000000000000000050000000000  3020121119   01          2                                                                                   3112246247061293807258000019                                                  N                     01321  0000000        000145
12042956441000101SOLUCOES ACO USIMINAS                                                 0000000034100000000000000000000000000000853154880000002246247070017197303     201211192012072500000000055220000970103000000000970103000000000000000000000000000000050000000000  3020121119   01          2                                                                                   3112246247079293807258000059                                                  N                     01321  0000000        000146
12042956441000101SOLUCOES ACO USIMINAS                                                 0000000034100000000000000000000000000000855028740000002254329450017212903     201211192012072600000000055220000140098000000000140098000000000000000000000000000000050000000000  3020121119   01          2                                                                                   3112254329454293807258000069                                                  N                     01321  0000000        000147
12042956441000101SOLUCOES ACO USIMINAS                                                 0000000034100000000000000000000000000000855028750000002254329460017213003     201211192012072600000000055220000140602000000000140602000000000000000000000000000000050000000000  3020121119   01          2                                                                                   3112254329462293807258000039                                                  N                     01321  0000000        000148
12042956441000101SOLUCOES ACO USIMINAS                                                 0000000034100000000000000000000000000000855028760000002254329470017220503     201211192012072700000000055220000981022000000000981022000000000000000000000000000000050000000000  3020121119   01          2                                                                                   3112254329470293807258000019                                                  N                     01321  0000000        000149
12042956441000101SOLUCOES ACO USIMINAS                                                 0000000034100000000000000000000000000000855028780000002254329410017200203     201211192012072600000000055220000680385000000000680385000000000000000000000000000000050000000000  3020121119   01          2                                                                                   3112254329413293807258000089                                                  N                     01321  0000000        000150
12042956441000101SOLUCOES ACO USIMINAS                                                 0000000034100000000000000000000000000000855028790000002254329420017200303     201211192012072600000000055220000156897000000000156897000000000000000000000000000000050000000000  3020121119   01          2                                                                                   3112254329421293807258000049                                                  N                     01321  0000000        000151
12042956441000101SOLUCOES ACO USIMINAS                                                 0000000034100000000000000000000000000000855028800000002254329430017200403     201211192012072600000000055220000163223000000000163223000000000000000000000000000000050000000000  3020121119   01          2                                                                                   3112254329439293807258000019                                                  N                     01321  0000000        000152
12042956441000101SOLUCOES ACO USIMINAS                                                 0000000034100000000000000000000000000000855028810000002254329440017202403     201211192012072600000000055220000244137000000000244137000000000000000000000000000000050000000000  3020121119   01          2                                                                                   3112254329447293807258000059                                                  N                     01321  0000000        000153
12042956441000101SOLUCOES ACO USIMINAS                                                 0000000034100000000000000000000000000000856906450000002262886320017266203     201211222012073000000000055250000119436000000000119436000000000000000000000000000000050000000000  3020121122   01          2                                                                                   3112262886321293807258000059                                                  N                     01321  0000000        000154
12042956441000101SOLUCOES ACO USIMINAS                                                 0000000034100000000000000000000000000000856906460000002262886330017266303     201211222012073000000000055250000145026000000000145026000000000000000000000000000000050000000000  3020121122   01          2                                                                                   3112262886339293807258000019                                                  N                     01321  0000000        000155
12042956441000101SOLUCOES ACO USIMINAS                                                 0000000034100000000000000000000000000000858616470000002271409830017315103     201211262012080200000000055290000579374000000000579374000000000000000000000000000000050000000000  3020121126   01          2                                                                                   3112271409834293807258000089                                                  N                     01321  0000000        000156
12042956441000101SOLUCOES ACO USIMINAS                                                 0000000034100000000000000000000000000000858616480000002271409840017316003     201211262012080200000000055290000929451000000000929451000000000000000000000000000000050000000000  3020121126   01          2                                                                                   3112271409842293807258000079                                                  N                     01321  0000000        000157
12042956441000101SOLUCOES ACO USIMINAS                                                 0000000034100000000000000000000000000000858616490000002271409850017319303     201211262012080200000000055290000981526000000000981526000000000000000000000000000000050000000000  3020121126   01          2                                                                                   3112271409859293807258000039                                                  N                     01321  0000000        000158
12042956441000101SOLUCOES ACO USIMINAS                                                 0000000034100000000000000000000000000000858616500000002271409860017319403     201211262012080200000000055290000178902000000000178902000000000000000000000000000000050000000000  3020121126   01          2                                                                                   3112271409867293807258000059                                                  N                     01321  0000000        000159
12042956441000101SOLUCOES ACO USIMINAS                                                 0000000034100000000000000000000000000000858616510000002271409900017319803     201211262012080200000000055290000194524000000000194524000000000000000000000000000000050000000000  3020121126   01          2                                                                                   3112271409909293807258000029                                                  N                     01321  0000000        000160
12043217850000159IOB INFORMACOES OBJ  PUBL JURI                                        0000000023702374400000002958600 000000008711912800902243000063301440820F2     201209202012083000000000054620000072850000000000074763000000000000000000000000001913050000000000  3020121009   01          2  R GANGES 528                                                                     3                         000000000000000                                     N                     00598  0000000        000161
12043217850000159IOB INFORMACOES OBJ  PUBL JURI                                        0000000023702374400000002958600 000000008540495200902212000099001440820E4     201208202012073000000000054310000072850000000000075507000000000000000000000000002657050000000000  3020121009   01          2  GANGES 528 VL NOVA MANCHESTER                                                    3                         000000000000000                                     N                     00598  0000000        000162
12045351418000181TRANSP RODOR LTDA                                                     000000003410000000000000000000000000000089697942000000246544071301818  01     201210192012100500000000054910000023097000000000023097000000000000000000000000000000050000000000  3020121019   01FS        1                                                                                   3112465440710005820000700069                                                  N                     01321  0000000        000163
12047190731000100DE CASTRO LOUR ENG IND LTDA                                           00000000341000000000000000000000000000008782050900000023399953503026612 0     201209182012082100000000054600001111489000000001157395000000000000000000000000045906050000000000  3020121009   01          2                                                                                   3112339995352036884500400019                                                  N                     01321  0000000        000164
12047190731000100DE CASTRO LOUREIRO ENGENHARIA                                         00000000033000000000000000000000000000008801227900000055000000003026838 0     201210082012091000000000054800000940006000000000958806000000000000000000000000018800050000000000  3020121009   01          2                                                                                   3948430370000009553355020389                                                  N                     01321  0000000        000165
12047190731000100DE CASTRO LOUR ENG IND LTDA                                           00000000341000000000000000000000000000008782051200000023399953803026613 0     201209182012082100000000054600001107989000000001153748000000000000000000000000045759050000000000  3020121009   01          2                                                                                   3112339995386036884500400039                                                  N                     01321  0000000        000166
12047190731000100DE CASTRO LOUR ENG IND LTDA                                           00000000341000000000000000000000000000008782051600000023399954103026614 0     201209182012082100000000054600001047621000000001090881000000000000000000000000043260050000000000  3020121009   01          2                                                                                   3112339995410036884500400039                                                  N                     01321  0000000        000167
12047190731000100DE CASTRO LOUR ENG IND LTDA                                           00000000341000000000000000000000000000008782052000000023399955303026632 0     201209192012082200000000054610000952073000000000989513000000000000000000000000037440050000000000  3020121009   01          2                                                                                   3112339995535036884500400019                                                  N                     01321  0000000        000168
12047190731000100DE CASTRO LOUR ENG IND LTDA                                           00000000341000000000000000000000000000008782052100000023399955903026643 0     201209202012082300000000054620000867039000000000899434000000000000000000000000032395050000000000  3020121009   01          2                                                                                   3112339995592036884500400049                                                  N                     01321  0000000        000169
12047190731000100DE CASTRO LOUR ENG IND LTDA                                           00000000341000000000000000000000000000008782052500000023399955603026636 0     201209192012082200000000054610000940804000000000977804000000000000000000000000037000050000000000  3020121009   01          2                                                                                   3112339995568036884500400049                                                  N                     01321  0000000        000170
12047190731000100DE CASTRO LOUR ENG IND LTDA                                           00000000341000000000000000000000000000008782052700000023399956203026648 0     201209202012082300000000054620000976053000000001012533000000000000000000000000036480050000000000  3020121009   01          2                                                                                   3112339995626036884500400029                                                  N                     01321  0000000        000171
12048775225000146SEIKI IND COM E CONFECCOES LTD                                        000000003410000000000000000000000000000087820591000000235780573014311001      201209282012083100000000054700000052000000000000052858000000000000000000000000000858050000000000  3020121009   01          2                                                                                   3112357805731017444824100069                                                  N                     01321  0000000        000172
12049341563000132JAC COMERCIO DE MAT ELET LTDA                                         000000003410000000000000000000000000000089697943000000246543949000023447A     201211012012100400000000055040000014736000000000014736000000000000000000000000000000050000000000  3020121101   01FS        1                                                                                   3112465439498018060969500069                                                  N                     01321  0000000        000173
12049341563000132JAC COMERCIO DE MAT ELET LTDA                                         000000003410000000000000000000000000000089697946000000246543951000023447B     201211082012100400000000055110000014732000000000014732000000000000000000000000000000050000000000  3020121108   01FS        1                                                                                   3112465439514018060969500019                                                  N                     01321  0000000        000174
12049341563000132JAC COMERCIO DE MAT ELET LTDA                                         000000003410000000000000000000000000000089697947000000246543950000023447C     201211152012100400000000055180000014732000000000014732000000000000000000000000000000050000000000  3020121116   01FS        1                                                                                   3112465439506018060969500039                                                  N                     01321  0000000        000175
12051180370000199IGUAFER FERRO E ACO LTDA                                              0000000034100000000000000000000000000000852309100000002239389789443 B         201209022012071800000000054440000168275000000000178635000000000000000000000000010360050000000000  3020121009   01          2                                                                                   3112239389789077149484600089                                                  N                     01321  0000000        000176
12051180370000199IGUAFER FERRO E ACO LTDA                                              0000000034100000000000000000000000000000852309110000002239389799443 C         201209122012071800000000054540000168275000000000175835000000000000000000000000007560050000000000  3020121009   01          2                                                                                   3112239389797077149484600089                                                  N                     01321  0000000        000177
12051180370000199IGUAFER FERRO E ACO LTDA                                              0000000034100000000000000000000000000000852309120000002239389809443 D         201209222012071800000000054640000168275000000000173035000000000000000000000000004760050000000000  3020121009   01          2                                                                                   3112239389805077149484600029                                                  N                     01321  0000000        000178
12053585766000141MULTIACOS IND  COM  PROD  TEC                                         0000000038900000000000000000000000000000874070420000000000000000004493702     201210012012080600000000054730000180041000000000182441000000000000000000000000002400050000000000  3020121009   01          2                                                                                   3015601031417289000042309299                                                  N                     01321  0000000        000179
12053585766000141MULTIACOS I C PRODS TEC LTDA                                          0000000042200000000000000000000000000000875773320000000000000000004500802     201210022012090400000000054740000173389000000000175411000000000000000000000000002022050000000000  3020121009   01          2                                                                                   3711500005033164919152261179                                                  N                     01321  0000000        000180
12053585766000141MULTIACOS I C PRODS TEC LTDA                                          0000000042200000000000000000000000000000878205710000000000000000004594901     201210052012082800000000054770000145728000000000146699000000000000000000000000000971050000000000  3020121009   01          2                                                                                   3711500005033164917492617119                                                  N                     01321  0000000        000181
12053585766000141MULTIACOS I C PRODS TEC LTDA                                          0000000042200000000000000000000000000000875773340000000000000000004584601     201210042012090400000000054760000349502000000000352416000000000000000000000000002914050000000000  3020121009   01          2                                                                                   3711500005033164919152309149                                                  N                     01321  0000000        000182
12053585766000141MULTIACOS I C PRODS TEC LTDA                                          0000000042200000000000000000000000000000875773350000000000000000004584801     201210042012090400000000054760000390737000000000393991000000000000000000000000003254050000000000  3020121009   01          2                                                                                   3711500005033164919152317119                                                  N                     01321  0000000        000183
12053585766000141MULTIACOS IND  COM  PROD  TEC                                         0000000038900000000000000000000000000000874070430000000000000000004493802     201210012012080600000000054730000828107000000000839147000000000000000000000000011040050000000000  3020121009   01          2                                                                                   3015601031417297000042309299                                                  N                     01321  0000000        000184
12053585766000141MULTIACOS I C PRODS TEC LTDA                                          0000000042200000000000000000000000000000875773440000000000000000004423703     201210022012090400000000054740000535467000000000541710000000000000000000000000006243050000000000  3020121009   01          2                                                                                   3711500005033164919152384119                                                  N                     01321  0000000        000185
12053585766000141MULTIACOS I C PRODS TEC LTDA                                          0000000042200000000000000000000000000000875773450000000000000000004429603     201210032012090400000000054750000910020000000000919121000000000000000000000000009101050000000000  3020121009   01          2                                                                                   3711500005033164919152392119                                                  N                     01321  0000000        000186
12053585766000141MULTIACOS I C PRODS TEC LTDA                                          0000000042200000000000000000000000000000875773470000000000000000004595001     201210052012090400000000054770000716798000000000721577000000000000000000000000004779050000000000  3020121009   01          2                                                                                   3711500005033164919152350149                                                  N                     01321  0000000        000187
12053585766000141MULTIACOS I C PRODS TEC LTDA                                          0000000042200000000000000000000000000000875773480000000000000000004595101     201210052012090400000000054770000365510000000000367945000000000000000000000000002435050000000000  3020121009   01          2                                                                                   3711500005033164919152368119                                                  N                     01321  0000000        000188
12053585766000141MULTIACOS IND  COM  PROD  TEC                                         0000000038900000000000000000000000000000874070440000000000000000004565101     201210012012082000000000054730000469526000000000475790000000000000000000000000006264050000000000  3020121009   01          2                                                                                   3015601031417440000042309219                                                  N                     01321  0000000        000189
12053585766000141MULTIACOS I C PRODS TEC LTDA                                          0000000042200000000000000000000000000000875773360000000000000000004585401     201210042012090400000000054760001079482000000001088476000000000000000000000000008994050000000000  3020121009   01          2                                                                                   3711500005033164919152333119                                                  N                     01321  0000000        000190
12053585766000141MULTIACOS I C PRODS TEC LTDA                                          0000000042200000000000000000000000000000875773370000000000000000004570001     201210022012090400000000054740001029874000000001041885000000000000000000000000012011050000000000  3020121009   01          2                                                                                   3711500005033164919152341129                                                  N                     01321  0000000        000191
12053585766000141MULTIACOS I C PRODS TEC LTDA                                          0000000042200000000000000000000000000000875773380000000000000000004585101     201210042012090400000000054760000229536000000000231450000000000000000000000000001914050000000000  3020121009   01          2                                                                                   3711500005033164919152325169                                                  N                     01321  0000000        000192
12053585766000141MULTIACOS INDUSTRIA E COMERCIO                                        0000000000100000000000000000000000000000885248110000003068130000004604501     201210082012091800000000054800000937682000000000939245000000000000000000000000001563050000000000  3020121009   01          2                                                                                   3044073068131912000139523189                                                  N                     01321  0000000        000193
12053585766000141MULTIACOS INDUSTRIA E COMERCIO                                        0000000000100000000000000000000000000000885248190000003068120000004604401     201210082012091800000000054800000195694000000000196020000000000000000000000000000326050000000000  3020121009   01          2                                                                                   3044073068121912000139523179                                                  N                     01321  0000000        000194
12053585766000141MULTIACOS INDUSTRIA E COMERCIO                                        0000000000100000000000000000000000000000885248200000003067420000004532102     201210082012091800000000054800000883908000000000885381000000000000000000000000001473050000000000  3020121009   01          2                                                                                   3044073067421912000139523199                                                  N                     01321  0000000        000195
12053585766000141MULTIACOS INDUSTRIA E COMERCIO                                        0000000000100000000000000000000000000000885248210000003067060000004462403     201210082012091800000000054800000761496000000000762765000000000000000000000000001269050000000000  3020121009   01          2                                                                                   3044073067061912000139523199                                                  N                     01321  0000000        000196
12053585766000141MULTIACOS INDUSTRIA E COMERCIO                                        0000000000100000000000000000000000000000885248240000003067040000004462203     201210082012091800000000054800000569064000000000570012000000000000000000000000000948050000000000  3020121009   01          2                                                                                   3044073067041912000139523199                                                  N                     01321  0000000        000197
12053585766000141MULTIACOS INDUSTRIA E COMERCIO                                        0000000000100000000000000000000000000000885248260000003067050000004462303     201210082012091800000000054800000262786000000000263224000000000000000000000000000438050000000000  3020121009   01          2                                                                                   3044073067051912000139523179                                                  N                     01321  0000000        000198
12053585766000141MULTIACOS INDUSTRIA E COMERCIO                                        0000000000100000000000000000000000000000885248270000003067430000004532302     201210082012091800000000054800000257380000000000257809000000000000000000000000000429050000000000  3020121009   01          2                                                                                   3044073067431912000139523129                                                  N                     01321  0000000        000199
