0000147602043799295000110ALTAMIRA INDUSTRIA METALURGICA LT       202000000428620121109212943             3                                                                                                  000000000000000                                                                                                                                                                                                                                                                                   000001
12008594182000188ACOS G3 COMERCIO E BENEFICIAMER TAMOTSU IWASSE 202                    0717600023703137200000000091332 I000000000010179000000000000000               201211090000000000000000000000000000000000000000156189000000000000000000000000000000010000001155  0120121109   02BW        5000000               000000000000000                                               3                                          1155/01                            N                     01321 10020256        000002
12008852780000100HOSTGATOR BRASIL HOSP SUP TEC                                         0000000034100000 0000000000000  I000000000010178000000000000000               201211120000000000000000055150000005199000000000005199000000000000000000000000000000010000046436  3120121109   02BW        5000000               000000000000000                                               3175101566534869105372500019               46436/12                           N                     01132 10020256        000003
12015601743000194MISCARNE FRIGO INDUSTRIA E COMR ALTAMIRA 385 INDUSTRIAL               4906505023701029400000000103942 I000000000010180000000000000000               201211090000000000000000000000000000000000000000679400000000000000000000000000000000010000068871  0120121109   02BW        5000000               000000000000000                                               3                                          68871                              N                     01321 10020256        000004
12007151435000186SALIS DE MOURA E ADVOGADOS ASSR MARIA PAULA 78 BELA VISTA             0131900023700500200000000594440 I000000000010176000000000000000               201211090000000000000000000000000000000000000000147750000000000000000000000000000000010000102012  0120121109   02BW        5000000               000000000000000                                               3                                          REF.OUTUBRO/2012.                  N                     01321 10020256        000005
12066970229000167NEXTEL TELECOMUNICACOES LTDA                                          0000000023702374400000001596233 I000000000010181009000015144847               201211090000000000000000055120000011868000000000011868000000000000000000000000000000010000215472  3120121109   02BW        5000000               000000000000000                                               3237409000151448470159623049               215472/3                           N                     01079 10020256        000006
12008455344000105SANCHES   BRITO TRANSPORTES LTR PRO BOURHAN HELOU 384                 0328703023701311000000001040308 I000000000010182000000000000000               201211090000000000000000000000000000000000000000253300000000000000000000000000000000010000000000  0120121109   02BW        5000000               000000000000000                                               3                                          PARC.02                            N                     01321 10020256        000007
12059659615000177DZ COMERCIO R E SERVICOS LTDA                                         000000003410000000000000000000000000000091358506000000900000320280            201211032012102400000000055060000060000000000000060720000000000000000000000000001200050000000000  3020121109   02BW        2000000               000000000000000                                               3109000003209000314585100019               280                                N                     01132 10020256        000008
12081560047000101ACEVILLE TRANSPORTES LTDA                                             000000000330000000000000000000000000000090920338000000850000000280618         201211092012102900000000055120000064000000000000064000000000000000000000000000000000050000000000  3020121109   02BW        2000000               000000000000000                                               3913555200000002806185010169               280618                             N                     01132 10020256        000009
12049341563000132JAC COMERCIO DE MATERIAIS ELET                                        0000000023700293300000001478699 00000000892292580020132275064602321703        201211092012100100000000055120000046336000000000046336000000000000000000000000000000050000000000  3020121109   02BW        2000000               000000000000000                                               3                         000000000000000  23217/03                           N                     01079 10020256        000010
12003134879000152LATORRE TRANSPORTES E LOGISTIC                                        00000000001000000000000000000000000000009024497800000044250200015470          201211092012101600000000055120000037183000000000037183000000000000000000000000000000050000000000  3020121109   02BW        2000000               000000000000000                                               3000000174615837404425021779               15470                              N                     01132 10020256        000011
12013954231000186JP ESCADAS LTDA EPP                                                   0000000000100000 0000000000000  I000000000010177000000000000000               201211090000000000000000055120000019100000000000019100000000000000000000000000000000010000002128  3120121109   02BW        5000000               000000000000000                                               3000000231739700000000661769               02128/001                          N                     01132 10020256        000012
900001300000000001481045                                                                                                                                                                                    000000000000000                                                                                                                                                                                                                                                    00001100385810000243686        000013
