0000147602043799295000110ALTAMIRA INDUSTRIA METALURGICA LT       202000000020320130109055831             1                                                                                                                                                                                                                                                                                                                                                                                                    000001
12002583013000166ITAN TRANSP DE CARGAS EXC E IN                                        0000000034100000000000000000000000000000951514570000002733094780029 A         201302032013010700000000055980000190315000000000190315000000000000000000000000000000050000000000  3020130204   01FS        1                                                                                   3112733094786005770252400049                                                  N                     01321  0000000        000002
12002583013000166ITAN TRANSP DE CARGAS EXC E IN                                        0000000034100000000000000000000000000000951514580000002733094790029 B         201302172013010700000000056120000190310000000000190310000000000000000000000000000000050000000000  3020130218   01FS        1                                                                                   3112733094794005770252400089                                                  N                     01321  0000000        000003
12003102481000134AB5 IND E COMERCIO LTDA EPP                                           0000000034100000000000000000000000000000939253510000009000043653386           201301082012121100000000055720000015900000000000015926000000000000000000000000000026050000000000  3020130109   01          2                                                                                   3109000043651003154755700019                                                  N                     01321  0000000        000004
12003489596000123BEND FLEX I COMERCIO LTDA                                             000000003410000000000000000000000000000088599899000000171434574613            201209172012081600000000054590000585000000000000716214000000000000000000000000131214050000000000  3020130109   01          2                                                                                   3191714345748157734445800019                                                  N                     01321  0000000        000005
12003489596000123BEND FLEX I COMERCIO LTDA                                             000000003410000000000000000000000000000088350832000000171879874608            201209122012082100000000054540000695250000000000857923000000000000000000000000162673050000000000  3020130109   01          2                                                                                   3191718798744157734445800069                                                  N                     01321  0000000        000006
12005151518000140BELENUS DO BRASIL LTDA                                                000000000330000000000000000000000000000093540010000000830000000R133232612     201301032012120400000000055670000599040000000000610900000000000000000000000000011860050000000000  3020130109   01          2                                                                                   3918381050000000565083010469                                                  N                     01321  0000000        000007
12005880850000145NEDERMAN BRASIL COM PROD EX LT                                        000000003410000000000000000000000000000086373178000000614350956002763 A       201209252012081400000000054670000289674000000000350094000000000000000000000000060420050000000000  3020130109   01          2                                                                                   3156143509568160829000100049                                                  N                     01321  0000000        000008
12006000195000156MBA MERCANTIL BRAS DE ACO LTDA                                        0000000034100000000000000000000000000000887698090000001671394550008925B02     201209142012071700000000054560000719581000000000885136000000000000000000000000165555050000000000  3020130109   01          2                                                                                   3191671394556064849251000089                                                  N                     01321  0000000        000009
12006000195000156MBA MERCANTIL BRAS DE ACO LTDA                                        0000000034100000000000000000000000000000887698100000001671394560008926B02     201209142012071700000000054560000387716000000000476987000000000000000000000000089271050000000000  3020130109   01          2                                                                                   3191671394564064849251000019                                                  N                     01321  0000000        000010
12006000195000156MBA MERCANTIL BRAS DE ACO LTDA                                        0000000034100000000000000000000000000000889578520000001671394540008920B02     201209162012071700000000054580000576585000000000706995000000000000000000000000130410050000000000  3020130109   01          2                                                                                   3191671394549064849251000099                                                  N                     01321  0000000        000011
12006000195000156MBA MERCANTIL BRAS DE ACO LTDA                                        0000000034100000000000000000000000000000885998980000001667238420008870B02     201209112012071600000000054530000839952000000001038192000000000000000000000000198240050000000000  3020130109   01          2                                                                                   3191667238429064849251000039                                                  N                     01321  0000000        000012
12006000195000156MBA MERCANTIL BRAS DE ACO LTDA                                        0000000034100000000000000000000000000000906662670000001671394410008920B03     201210142012071700000000054860000576584000000000675242000000000000000000000000098658050000000000  3020130109   01          2                                                                                   3191671394416064849251000039                                                  N                     01321  0000000        000013
12006000195000156MBA MERCANTIL BRAS DE ACO LTDA                                        0000000034100000000000000000000000000000904173180000001671394430008926B03     201210122012071700000000054840000387716000000000455623000000000000000000000000067907050000000000  3020130109   01          2                                                                                   3191671394432064849251000079                                                  N                     01321  0000000        000014
12006000195000156M B A MERCANTIL BRASILEIRA DE                                         0000000023700118P00000002130599 00000000865388240020222900000450009203B03     201212122012081500000000055450000344980000000000361080000000000000000000000000016100050000000000  3020130109   01          2  RUA JUNO  533                                                                    300000000000000000001500  000000000000000                                     N                     00598  0000000        000015
12006000195000156M B A MERCANTIL BRASILEIRA DE                                         0000000023700118P00000002130599 00000000865388270020222900000480009204B03     201212132012081500000000055460000127291000000000133015000000000000000000000000005724050000000000  3020130109   01          2  RUA JUNO  533                                                                    300000000000000000001500  000000000000000                                     N                     00598  0000000        000016
12006000195000156M B A MERCANTIL BRASILEIRA DE                                         0000000023700118P00000002130599 00000000865388300020222900000510009205B03     201212142012081500000000055470000348964000000000364096000000000000000000000000015132050000000000  3020130109   01          2  RUA JUNO  533                                                                    300000000000000000001500  000000000000000                                     N                     00598  0000000        000017
12006000195000156M B A MERCANTIL BRASILEIRA DE                                         0000000023700118P00000002130599 00000000865388330020222900000540009206B03     201212152012081500000000055480000527560000000000549535000000000000000000000000021975050000000000  3020130109   01          2  RUA JUNO  533                                                                    300000000000000000001500  000000000000000                                     N                     00598  0000000        000018
12006000195000156M B A MERCANTIL BRASILEIRA DE                                         0000000023700118P00000002130599 00000000868592700020223600000030009229B03     201212132012081600000000055460000253414000000000264808000000000000000000000000011394050000000000  3020130109   01          2  RUA JUNO  533                                                                    300000000000000000001500  000000000000000                                     N                     00598  0000000        000019
12006000195000156MBA MERCANTIL BRAS DE ACO LTDA                                        0000000034100000000000000000000000000000939253300000002674598010010648B03     201303042012121020130304056270000693902000000000665778000000000028124000000000000000050000000000  3020130304   01          2                                                                                   3112674598019064899001800069                                                  N                     01321  0000000        000020
12008272923000104P SANTOS ESQUADRARIAS METAL ME                                        0000000034100000000000000000000000000000915734100000006159682651954           201212052012110700000000055380000408138000000000454381000000000000000000000000046243050000000000  3020130109   01          2                                                                                   3156159682654160141951600029                                                  N                     01321  0000000        000021
12009080640000123SERVPAES LTDA ME                                                      000000001040000000000000000000000000000095151459000000000823600002759         201301102013010400000000055740000093750000000000093750000000000000000000000000000000050000000000  3020130110   01FS        1                                                                                   3900000082310868700000040949                                                  N                     01321  0000000        000022
12009259079000144SAFRA COMERCIAL DE PAPEIS LTDA                                        00000000033000000000000000000000000000009515147200000077000000000153804       201302052013010700000000056000000042032000000000042032000000000000000000000000000000050000000000  3020130205   01FS        1                                                                                   3918361880000000354077010429                                                  N                     01321  0000000        000023
12009338857000190FERNANDO  NAGAO  CARDONE  ALVA                                        000000000330000000000000000000000000000091653176000000300000000ALTA 11 2012   201211202012103000000000055230000134632000000000156178000000000000000000000000021546050000000000  3020130109   01          2                                                                                   3947901700000051051630010119                                                  N                     01321  0000000        000024
12042956441000101SOLUCOES ACO USIMINAS                                                 0000000034100000000000000000000000000000920384820000002579400140018963302     201301072012111200000000055710000646567000000000649153000000000000000000000000002586050000000000  3020130109   01          2                                                                                   3112579400147293807258000039                                                  N                     01321  0000000        000025
12042956441000101SOLUCOES ACO USIMINAS                                                 0000000034100000000000000000000000000000848180700000002220192900017041002     201209112012071700000000054530000155433000000000192753000000000000000000000000037320050000000000  3020130109   01          2                                                                                   3112220192903293807258000029                                                  N                     01321  0000000        000026
12042956441000101SOLUCOES ACO USIMINAS                                                 0000000034100000000000000000000000000000848180710000002220192910017041202     201209112012071700000000054530000205421000000000254741000000000000000000000000049320050000000000  3020130109   01          2                                                                                   3112220192911293807258000019                                                  N                     01321  0000000        000027
12042956441000101SOLUCOES ACO USIMINAS                                                 0000000034100000000000000000000000000000850740470000002233586810017101002     201209142012071900000000054560000732575000000000903980000000000000000000000000171405050000000000  3020130109   01          2                                                                                   3112233586810293807258000019                                                  N                     01321  0000000        000028
12042956441000101SOLUCOES ACO USIMINAS                                                 0000000034100000000000000000000000000000850740480000002233586820017101202     201209142012071900000000054560000144634000000000178447000000000000000000000000033813050000000000  3020130109   01          2                                                                                   3112233586828293807258000029                                                  N                     01321  0000000        000029
12042956441000101SOLUCOES ACO USIMINAS                                                 0000000034100000000000000000000000000000853154840000002246247030017196702     201209202012072500000000054620000234841000000000287011000000000000000000000000052170050000000000  3020130109   01          2                                                                                   3112246247038293807258000099                                                  N                     01321  0000000        000030
12042956441000101SOLUCOES ACO USIMINAS                                                 0000000034100000000000000000000000000000853154850000002246247040017197302     201209202012072500000000054620000970103000000001185443000000000000000000000000215340050000000000  3020130109   01          2                                                                                   3112246247046293807258000019                                                  N                     01321  0000000        000031
12042956441000101SOLUCOES ACO USIMINAS                                                 0000000034100000000000000000000000000000855028690000002254329380017212902     201209212012072600000000054630000140098000000000170898000000000000000000000000030800050000000000  3020130109   01          2                                                                                   3112254329389293807258000019                                                  N                     01321  0000000        000032
12042956441000101SOLUCOES ACO USIMINAS                                                 0000000034100000000000000000000000000000855028700000002254329390017213002     201209212012072600000000054630000140602000000000171512000000000000000000000000030910050000000000  3020130109   01          2                                                                                   3112254329397293807258000089                                                  N                     01321  0000000        000033
12042956441000101SOLUCOES ACO USIMINAS                                                 0000000034100000000000000000000000000000855028770000002254329400017220502     201209212012072700000000054630000981022000000001196842000000000000000000000000215820050000000000  3020130109   01          2                                                                                   3112254329405293807258000099                                                  N                     01321  0000000        000034
12042956441000101SOLUCOES ACO USIMINAS                                                 0000000034100000000000000000000000000000859590620000002274469790017353702     201209282012080300000000054700000081053000000000097739000000000000000000000000016686050000000000  3020130109   01          2                                                                                   3112274469793293807258000069                                                  N                     01321  0000000        000035
12042956441000101SOLUCOES EM ACO USIMINAS SA                                           0000000023702374400000000021679 00000000951514690090300800000100019734503     201304012013010700000000056550001163409000000001163409000000000000000000000000000000050000000000  3020130401   01FS        1  RUA GANGES 526                                                                   3                         000000000000000                                     N                     00598  0000000        000036
12042956441000101SOLUCOES EM ACO USIMINAS SA                                           0000000023702374400000000021679 00000000951514600090300800000010006817701     201302012013010400000000055960000653493000000000653493000000000000000000000000000000050000000000  3020130201   01FS        1  RUA GANGES 526                                                                   3                         000000000000000                                     N                     00598  0000000        000037
12042956441000101SOLUCOES EM ACO USIMINAS SA                                           0000000023702374400000000021679 00000000951514700090300800000110019734603     201304012013010700000000056550000735788000000000735788000000000000000000000000000000050000000000  3020130401   01FS        1  RUA GANGES 526                                                                   3                         000000000000000                                     N                     00598  0000000        000038
12042956441000101SOLUCOES EM ACO USIMINAS SA                                           0000000023702374400000000021679 00000000951514710090300800000120019760403     201304012013010700000000056550000925909000000000925909000000000000000000000000000000050000000000  3020130401   01FS        1  RUA GANGES 526                                                                   3                         000000000000000                                     N                     00598  0000000        000039
12042956441000101SOLUCOES EM ACO USIMINAS SA                                           0000000023702374400000000021679 00000000951514610090300800000020019734501     201302042013010700000000055990001163759000000001163759000000000000000000000000000000050000000000  3020130204   01FS        1  RUA GANGES 526                                                                   3                         000000000000000                                     N                     00598  0000000        000040
12042956441000101SOLUCOES EM ACO USIMINAS SA                                           0000000023702374400000000021679 00000000951514620090300800000030019734601     201302042013010700000000055990000736010000000000736010000000000000000000000000000000050000000000  3020130204   01FS        1  RUA GANGES 526                                                                   3                         000000000000000                                     N                     00598  0000000        000041
12042956441000101SOLUCOES EM ACO USIMINAS SA                                           0000000023702374400000000021679 00000000951514630090300800000040019760401     201302042013010700000000055990000926188000000000926188000000000000000000000000000000050000000000  3020130204   01FS        1  RUA GANGES 526                                                                   3                         000000000000000                                     N                     00598  0000000        000042
12042956441000101SOLUCOES EM ACO USIMINAS SA                                           0000000023702374400000000021679 00000000951514640090300800000050006817702     201303012013010400000000056240000653297000000000653297000000000000000000000000000000050000000000  3020130301   01FS        1  RUA GANGES 526                                                                   3                         000000000000000                                     N                     00598  0000000        000043
12042956441000101SOLUCOES EM ACO USIMINAS SA                                           0000000023702374400000000021679 00000000951514650090300800000060019734502     201303042013010700000000056270001163410000000001163410000000000000000000000000000000050000000000  3020130304   01FS        1  RUA GANGES 526                                                                   3                         000000000000000                                     N                     00598  0000000        000044
12042956441000101SOLUCOES EM ACO USIMINAS SA                                           0000000023702374400000000021679 00000000951514660090300800000070019734602     201303042013010700000000056270000735789000000000735789000000000000000000000000000000050000000000  3020130304   01FS        1  RUA GANGES 526                                                                   3                         000000000000000                                     N                     00598  0000000        000045
12042956441000101SOLUCOES EM ACO USIMINAS SA                                           0000000023702374400000000021679 00000000951514670090300800000080019760402     201303042013010700000000056270000925910000000000925910000000000000000000000000000000050000000000  3020130304   01FS        1  RUA GANGES 526                                                                   3                         000000000000000                                     N                     00598  0000000        000046
12042956441000101SOLUCOES EM ACO USIMINAS SA                                           0000000023702374400000000021679 00000000951514680090300800000090006817703     201304012013010400000000056550000653298000000000653298000000000000000000000000000000050000000000  3020130401   01FS        1  RUA GANGES 526                                                                   3                         000000000000000                                     N                     00598  0000000        000047
12042956441000101SOLUCOES ACO USIMINAS                                                 0000000034100000000000000000000000000000937366640000002664845380019378001     201301042012120700000000055680000160808000000000162096000000000000000000000000001610050000000000  3020130108   06          3                                                                                   3112664845388293807258000049                                                  N                     01321  0000000        000048
12042956441000101SOLUCOES ACO USIMINAS                                                 0000000034100000000000000000000000000000937366670000002664845390019378101     201301042012120700000000055680000860975000000000867863000000000000000000000000008610050000000000  3020130108   06          3                                                                                   3112664845396293807258000079                                                  N                     01321  0000000        000049
12042956441000101SOLUCOES ACO USIMINAS                                                 0000000034100000000000000000000000000000937366700000002664845370019367701     201301042012120700000000055680000106855000000000107711000000000000000000000000001070050000000000  3020130108   06          3                                                                                   3112664845370293807258000089                                                  N                     01321  0000000        000050
12042956441000101SOLUCOES ACO USIMINAS                                                 0000000034100000000000000000000000000000938325300000002670093700019412801     201301072012121000000000055710000213614000000000213614000000000000000000000000000000050000000000  3020130107   06          3                                                                                   3112670093700293807258000039                                                  N                     01321  0000000        000051
12042956441000101SOLUCOES ACO USIMINAS                                                 0000000034100000000000000000000000000000919321820000002573134240018909702     201301042012110900000000055680000994629000000001002585000000000000000000000000009945050000000000  3020130108   06          3                                                                                   3112573134247293807258000039                                                  N                     01321  0000000        000052
12043298975000150JOMARCA INDL DE PARAFUSOS LTDA                                        0000000003300000000000000000000000000000931455230000004200000000169696 01     201212302012113000000000055630000562044000000000562044000000000000000000000000000000050000000000  3020130102   06          3                                                                                   3935059520000000592242010419                                                  N                     01321  0000000        000053
12045635984000115CRIFER LAMINADOS DE ACO E FERR                                        0000000003300000000000000000000000000000917414020000007500000000036176E02     201301032012110800000000055670000501947000000000507970000000000000000000000000006023050000000000  3020130109   01          2                                                                                   3901184270000000261475010159                                                  N                     01321  0000000        000054
12047190731000100DE CASTRO LOUR ENG IND LTDA                                           00000000341000000000000000000000000000008996248000000024766209303027184 0     201212282012100500000000055610001153394000000001180610000000000000000000000000027216050000000000  3020130109   01          2                                                                                   3112476620938036884500400099                                                  N                     01321  0000000        000055
12047190731000100DE CASTRO LOUR ENG IND LTDA                                           00000000341000000000000000000000000000008782059200000023602715103026744 0     201212262012082900000000055590000146636000000000150668000000000000000000000000004032050000000000  3020130109   01          2                                                                                   3112360271517036884500400019                                                  N                     01321  0000000        000056
12047190731000100DE CASTRO LOUR ENG IND LTDA                                           00000000341000000000000000000000000000008782059600000023602714803026734 0     201212252012082800000000055580000998134000000001027579000000000000000000000000029445050000000000  3020130109   01          2                                                                                   3112360271483036884500400059                                                  N                     01321  0000000        000057
12047190731000100DE CASTRO LOUR ENG IND LTDA                                           00000000341000000000000000000000000000009041732400000025008465303027256 0     201301082012101600000000055720001108934000000001111115000000000000000000000000002181050000000000  3020130109   01          2                                                                                   3112500846533036884500400089                                                  N                     01321  0000000        000058
12047190731000100DE CASTRO LOUR ENG IND LTDA                                           00000000341000000000000000000000000000009041733000000025008464703027216 0     201301022012101000000000055660000225446000000000228547000000000000000000000000003101050000000000  3020130109   01          2                                                                                   3112500846475036884500400019                                                  N                     01321  0000000        000059
12047190731000100DE CASTRO LOUR ENG IND LTDA                                           00000000341000000000000000000000000000009041733200000025008465003027234 0     201301032012101100000000055670001029906000000001042056000000000000000000000000012150050000000000  3020130109   01          2                                                                                   3112500846509036884500400099                                                  N                     01321  0000000        000060
12047190731000100DE CASTRO LOUR ENG IND LTDA                                           00000000341000000000000000000000000000008782059700000023602715403026745 0     201212262012082900000000055590000903448000000000928326000000000000000000000000024878050000000000  3020130109   01          2                                                                                   3112360271541036884500400019                                                  N                     01321  0000000        000061
12047190731000100DE CASTRO LOUR ENG IND LTDA                                           00000000341000000000000000000000000000008782050900000023399953503026612 0     201209182012082100000000054600001111489000000001358507000000000000000000000000247018050000000000  3020130109   01          2                                                                                   3112339995352036884500400019                                                  N                     01321  0000000        000062
12047190731000100DE CASTRO LOUR ENG IND LTDA                                           00000000341000000000000000000000000000008782051200000023399953803026613 0     201209182012082100000000054600001107989000000001354216000000000000000000000000246227050000000000  3020130109   01          2                                                                                   3112339995386036884500400039                                                  N                     01321  0000000        000063
12047190731000100DE CASTRO LOUR ENG IND LTDA                                           00000000341000000000000000000000000000008782051600000023399954103026614 0     201209182012082100000000054600001047621000000001280401000000000000000000000000232780050000000000  3020130109   01          2                                                                                   3112339995410036884500400039                                                  N                     01321  0000000        000064
12047190731000100DE CASTRO LOUR ENG IND LTDA                                           00000000341000000000000000000000000000008782052000000023399955303026632 0     201209192012082200000000054610000952073000000001161737000000000000000000000000209664050000000000  3020130109   01          2                                                                                   3112339995535036884500400019                                                  N                     01321  0000000        000065
12047190731000100DE CASTRO LOUR ENG IND LTDA                                           00000000341000000000000000000000000000008782052100000023399955903026643 0     201209202012082300000000054620000867039000000001056294000000000000000000000000189255050000000000  3020130109   01          2                                                                                   3112339995592036884500400049                                                  N                     01321  0000000        000066
12047190731000100DE CASTRO LOUR ENG IND LTDA                                           00000000341000000000000000000000000000008782052500000023399955603026636 0     201209192012082200000000054610000940804000000001148004000000000000000000000000207200050000000000  3020130109   01          2                                                                                   3112339995568036884500400049                                                  N                     01321  0000000        000067
12047190731000100DE CASTRO LOUR ENG IND LTDA                                           00000000341000000000000000000000000000008782052700000023399956203026648 0     201209202012082300000000054620000976053000000001189173000000000000000000000000213120050000000000  3020130109   01          2                                                                                   3112339995626036884500400029                                                  N                     01321  0000000        000068
12047190731000100DE CASTRO LOUR ENG IND LTDA                                           00000000341000000000000000000000000000008782052900000023399956403026648 0     201212202012082300000000055530000976344000000001014744000000000000000000000000038400050000000000  3020130109   01          2                                                                                   3112339995642036884500400059                                                  N                     01321  0000000        000069
12047190731000100DE CASTRO LOUR ENG IND LTDA                                           00000000341000000000000000000000000000008782053300000023399956103026643 0     201212202012082300000000055530000867297000000000901417000000000000000000000000034120050000000000  3020130109   01          2                                                                                   3112339995618036884500400059                                                  N                     01321  0000000        000070
12047190731000100DE CASTRO LOUR ENG IND LTDA                                           00000000341000000000000000000000000000008782051900000023399955803026636 0     201212192012082200000000055520000941086000000000978106000000000000000000000000038871050000000000  3020130108   06          3                                                                                   3112339995584036884500400069                                                  N                     01321  0000000        000071
12047190731000100DE CASTRO LOUR ENG IND LTDA                                           00000000341000000000000000000000000000008782052300000023399955503026632 0     201212192012082200000000055520000952358000000000989818000000000000000000000000039333050000000000  3020130108   06          3                                                                                   3112339995550036884500400039                                                  N                     01321  0000000        000072
12048775225000146SEIKI IND COM E CONFECCOES LTD                                        000000003410000000000000000000000000000089337376000000244697151014914001      201210232012092500000000054950000052000000000000058084000000000000000000000000006084050000000000  3020130109   01          2                                                                                   3112446971510017444824100089                                                  N                     01321  0000000        000073
12051180370000199IGUAFER FERRO E ACO LTDA                                              0000000034100000000000000000000000000000852309110000002239389799443 C         201209122012071800000000054540000168275000000000201595000000000000000000000000033320050000000000  3020130109   01          2                                                                                   3112239389797077149484600089                                                  N                     01321  0000000        000074
12056993512000150CYKLOP DO BRASIL EMBALAGENS SA                                        0000000034100000000000000000000000000000874070500000002362586810134932        201210012012090300000000054730000083607000000000114307000000000000000000000000030700050000000000  3020130109   01          2                                                                                   3112362586813025700015800019                                                  N                     01321  0000000        000075
12062510367000102ITANHAEM TRANSP DE MAQUINAS LT                                        000000003410000000000000000000000000000087407049000000236463199667            201209202012090400000000054620000248220000000000358443000000000000000000000000110223050000000000  3020130109   01          2                                                                                   3112364631997005770252400049                                                  N                     01321  0000000        000076
12062539994000176LEALFER INDUSTRIA E COMERCIO D                                        0000000003300000000000000000000000000000919322020000006700000000005818802     201301072012110900000000055710000327558000000000328671000000000000000000000000001113050000000000  3020130109   01          2                                                                                   3915298380000000293067010419                                                  N                     01321  0000000        000077
12062539994000176LEALFER INDUSTRIA E COMERCIO D                                        0000000003300000000000000000000000000000933583120000001000000000005924101     201212312012113000000000055640000455700000000000455700000000000000000000000000000000050000000000  3020130102   06          3                                                                                   3915298380000000301710010489                                                  N                     01321  0000000        000078
12062539994000176LEALFER INDUSTRIA E COMERCIO D                                        0000000003300000000000000000000000000000933583130000000900000000005921501     201212312012113000000000055640000142491000000000142491000000000000000000000000000000050000000000  3020130102   06          3                                                                                   3915298380000000301809010419                                                  N                     01321  0000000        000079
12062539994000176LEALFER INDUSTRIA E COMERCIO D                                        0000000003300000000000000000000000000000933583140000001700000000005928001     201212312012113000000000055640000168243000000000168243000000000000000000000000000000050000000000  3020130102   06          3                                                                                   3915298380000000301817010419                                                  N                     01321  0000000        000080
12064952757000168WALMAC COM DE PROD QUIMICOS LT                                        0000000034100000000000000000000000000000860403450000002275821700020148        201210052012080300000000054770000219267000000000260643000000000000000000000000041376050000000000  3020130109   01          2                                                                                   3112275821703064807961400029                                                  N                     01321  0000000        000081
12069284248000128ISOCOAT TINTAS E VERNIZES LTDA                                        0000000034100000000000000000000000000000841061040000002182507930052085        201209172012070200000000054590000236130000000000307950000000000000000000000000071820050000000000  3020130109   01          2                                                                                   3112182507932077430121200019                                                  N                     01321  0000000        000082
12069284248000128ISOCOAT TINTAS E VERNIZES LTDA                                        0000000034100000000000000000000000000000908309610000002521130200057192        201301072012102400000000055710000318064000000000319760000000000000000000000000001696050000000000  3020130109   01          2                                                                                   3112521130206077430121200019                                                  N                     01321  0000000        000083
900008400000000050220377                                                                                                                                                                                                                                                                                                                                                                                                                                                                01321  0000000        000084
