0000147602043799295000110ALTAMIRA INDUSTRIA METALURGICA LT       202000000010120120809055448             1                                                                                                                                                                                                                                                                                                                                                                                                    000001
12000193273000108TECELAGEM ROMA LTDA                                                   0000000023700284400000000410977 000000008374605100900000001581116213   B      201208032012062900000000054140000124248000000000126486000000000000000000000000002238050000000000  3020120809   01          2  RUA TAMAINDE 1410  1410                                                          3                         000000000000000                                     N                     00598  0000000        000002
12001162151000109SUKIRA COM DE IMP E EXP LTDA                                          000000003410000000000000000000000000000084318041000000219344728016495 AA      201208082012070400000000054190000059400000000000059517000000000000000000000000000117050000000000  3020120809   01          2                                                                                   3112193447284021116926300039                                                  N                     01321  0000000        000003
12001784706000154TRANSPORTES WARTHA LTDA                                               0000000023701775200000000260010 0000000086040347009022210000092SAO2590131     201209032012080800000000054450000034000000000000034000000000000000000000000000000000050000000000  3020120903   01FS        1  RUA JUNO 533                                                                     3                         000000000000000                                     N                     00598  0000000        000004
12001951865000104FOUR FACTORING FOMENTO M LTDA                                         000000004220000000000000000000000000000086040341000000000000000193A           201208272012080600000000054380000145000000000000145000000000000000000000000000000000050000000000  3020120827   01FS        1                                                                                   3702000009214741910473285169                                                  N                     01321  0000000        000005
12001951865000104FOUR FACTORING FOMENTO M LTDA                                         000000004220000000000000000000000000000086040342000000000000000194B           201209032012080600000000054450000145000000000000145000000000000000000000000000000000050000000000  3020120903   01FS        1                                                                                   3702000009214741910473293169                                                  N                     01321  0000000        000006
12002503185000182ANDAIMES E MAQUINAS BIG LTDA                                          000000003410000000000000000000000000000084483911000000220106798011381         201208012012071200000000054120000012000000000000012296000000000000000000000000000304050000000000  3020120808   06          3                                                                                   3112201067983925303435000039                                                  N                     01321  0000000        000007
12003498897000202TELECOMUNICACOES DE SAO PAULO                                         0000000023702372800000000360082 0000000084895718019066000835476V31019372      201208012012071900000000054120000410474000000000410474000000000000000000000000000000050000000000  3020120801   06          3  R GANGES 528                                                                     3                         000000000000000                                     N                     00598  0000000        000008
12004676708000118M H F SISTEMAS S C LTDA                                               0000000034100000000000000000000000000000848180580000002220541780099047356     201208052012071800000000054160000014500000000000014982000000000000000000000000000482050000000000  3020120809   01          2                                                                                   3112220541786013924573200029                                                  N                     01321  0000000        000009
12006000195000156MBA MERCANTIL BRAS DE ACO LTDA                                        0000000034100000000000000000000000000000811374710000008577801770008235B03     201208062012051600000000054170000168777000000000169131000000000000000000000000000354050000000000  3020120809   01          2                                                                                   3458577801772064849251000029                                                  N                     01321  0000000        000010
12006000195000156M B A MERCANTIL BRASILEIRA DE                                         0000000023700118P00000002128292 00000000860403480090215700000540008454B02     201208012012060100000000054120000442454000000000442454000000000000000000000000000000050000000000  3020120809   01FS        1  RUA JUNO  533                                                                    3                         000000000000000                                     N                     00598  0000000        000011
12006000195000156M B A MERCANTIL BRASILEIRA DE                                         0000000023700118P00000002128292 00000000860403490090215800000040008495B02     201208012012060600000000054120000168075000000000168075000000000000000000000000000000050000000000  3020120809   01FS        1  RUA JUNO  533                                                                    3                         000000000000000                                     N                     00598  0000000        000012
12006000195000156M B A MERCANTIL BRASILEIRA DE                                         0000000023700118P00000002128292 00000000860403500090218400000150008737B01     201208012012062900000000054120000582257000000000582257000000000000000000000000000000050000000000  3020120809   01FS        1  RUA JUNO  533                                                                    3                         000000000000000                                     N                     00598  0000000        000013
12006000195000156M B A MERCANTIL BRASILEIRA DE                                         0000000023700118P00000002128292 00000000837460610090218400000150008737B01     201208012012062900000000054120000582257000000000582257000000000000000000000000000000050000000000  3020120801   05          3  RUA JUNO  533                                                                    3                         000000000000000                                     N                     00598  0000000        000014
12006209559000102MAZURKY IND COM EMB LTDA                                              000000003410000000000000000000000000000084106107000000218465114009517 3       201208062012062500000000054170000052925000000000053321000000000000000000000000000396050000000000  3020120809   01          2                                                                                   3112184651142151434240900089                                                  N                     01321  0000000        000015
12006209559000102MAZURKY IND COM EMB LTDA                                              000000003410000000000000000000000000000084985523000000222532651009600 2       201208062012070200000000054170000084804000000000085440000000000000000000000000000636050000000000  3020120809   01          2                                                                                   3112225326514151434240900019                                                  N                     01321  0000000        000016
12008709272000177MULTIELETRICA C M E LTDA                                              000000003410000000000000000000000000000084406368000000900002185000002499A     201208072012071000000000054180000158135000000000168087000000000000000000000000009952050000000000  3020120809   01          2                                                                                   3109000021851075798525400019                                                  N                     01321  0000000        000017
12009121184000112BBGE COBRANCA LTDA                                                    0000000023700368900000001026402 00000000839452800090218600000842581 CC        201208022012062100000000054130000154100000000000157698000000000000000000000000003598050000000000  3020120809   01          2  RUA GANGES  528                         MACKVEN MAQUINAS INDUSTRIAIS LTDA EPP    3                         005441222000163                                     N                     00598  0000000        000018
12012006058000121WEG TINTAS LTDA                                                       0000000023702727800000000001309 00000000833069140090217700001070014685601     201208062012062200000000054170000459854000000000461693000000000000000000000000001839050000000000  3020120809   01          2  R JUNO  533                                                                      3                         000000000000000                                     N                     00598  0000000        000019
12012006058000121WEG TINTAS LTDA                                                       0000000023702727800000000001309 00000000816237710090214600000900014010203     201208072012052400000000054180000306662000000000307478000000000000000000000000000816050000000000  3020120809   01          2  R JUNO  533                                                                      3                         000000000000000                                     N                     00598  0000000        000020
12012006058000121WEG TINTAS LTDA                                                       0000000023702727800000000001309 00000000816971080090214900001020014046003     201208082012052500000000054190000085618000000000085732000000000000000000000000000114050000000000  3020120809   01          2  R JUNO  533                                                                      3                         000000000000000                                     N                     00598  0000000        000021
12012006058000121WEG TINTAS LTDA                                                       0000000023702727800000000001309 00000000824820160090216300000880014374202     201208072012060800000000054180000459854000000000461080000000000000000000000000001226050000000000  3020120809   01          2  R JUNO  533                                                                      3                         000000000000000                                     N                     00598  0000000        000022
12012256386000186TOP TRAD SERVICOS DE TEXTOS LT                                        0000000023700200300000001062603 00000000850740700090132194025562718           201207272012071200000000054070000025600000000000026928000000000000000000000000001396050000000000  3020120808   06          3  R TAMANDE 1410                                                                   3                         000000000000000                                     N                     00598  0000000        000023
12014775592000128HELIO ADRIANO DA SILVA ME                                             0000000023700593200000002432943 00000000854049630090221200000078199           201208132012072000000000054240000053000000000000053000000000000000000000000000000000050000000000  3020120813   01          2  AV TAMAINDE 1410                                                                 300000000000000000001500  000000000000000                                     N                     00598  0000000        000024
12033325184001786ALSCO TOALHEIRO BRASIL                                                0000000023703396000000001490850 0000000084571471009000028416503VM00284165     201208052012070500000000054160000026347000000000026451000000000000000000000000000104050000000000  3020120809   01          2  RUA  GANGES 528                                                                  3                         000000000000000                                     N                     00598  0000000        000025
12035820448000136WHITE MARTINS GASES INDUSTRIAI                                        0000000023700026400000003937925 0000000084172562009021910000022348496 001     201208022012070700000000054130000040575000000000041764000000000000000000000000001189050000000000  3020120809   01          2  RUA GANGES  528                                                                  3                         000000000000000                                     N                     00598  0000000        000026
12035820448000136WHITE MARTINS GASES INDUSTRIAI                                        0000000023700026400000003937925 0000000084172563009021910000296348716 001     201208032012070700000000054140000056805000000000058397000000000000000000000000001592050000000000  3020120809   01          2  RUA GANGES  528                                                                  3                         000000000000000                                     N                     00598  0000000        000027
12035820448000136WHITE MARTINS GASES INDUSTRIAI                                        0000000023700026400000003937925 0000000084406386009021940001235350499 001     201208082012071200000000054190000162300000000000165762000000000000000000000000003462050000000000  3020120809   01          2  RUA GANGES  528                                                                  3                         000000000000000                                     N                     00598  0000000        000028
12042956441000101SOLUCOES ACO USIMINAS                                                 0000000034100000000000000000000000000000807142620000002012663810015853403     201208012012050800000000054120000529539000000000530598000000000000000000000000002118050000000000  3020120802   06          3                                                                                   3112012663814293807258000089                                                  N                     01321  0000000        000029
12042956441000101SOLUCOES ACO USIMINAS                                                 0000000034100000000000000000000000000000825740750000002106974430016399002     201208012012060600000000054120000203067000000000203067000000000000000000000000000000050000000000  3020120801   06          3                                                                                   3112106974432293807258000099                                                  N                     01321  0000000        000030
12042956441000101SOLUCOES ACO USIMINAS                                                 0000000034100000000000000000000000000000825740760000002106974440016399202     201208012012060600000000054120000450363000000000450363000000000000000000000000000000050000000000  3020120801   06          3                                                                                   3112106974440293807258000019                                                  N                     01321  0000000        000031
12042956441000101SOLUCOES ACO USIMINAS                                                 0000000034100000000000000000000000000000841725410000002188168480016884801     201208022012070500000000054130000120648000000000122335000000000000000000000000001687050000000000  3020120809   01          2                                                                                   3112188168481293807258000049                                                  N                     01321  0000000        000032
12042956441000101SOLUCOES ACO USIMINAS                                                 0000000034100000000000000000000000000000826558230000002112172700016459202     201208072012061100000000054180000123454000000000123948000000000000000000000000000494050000000000  3020120809   01          2                                                                                   3112112172708293807258000049                                                  N                     01321  0000000        000033
12042956441000101SOLUCOES ACO USIMINAS                                                 0000000034100000000000000000000000000000826558260000002112172730016459802     201208072012061100000000054180000155720000000000156342000000000000000000000000000622050000000000  3020120809   01          2                                                                                   3112112172732293807258000099                                                  N                     01321  0000000        000034
12042956441000101SOLUCOES ACO USIMINAS                                                 0000000034100000000000000000000000000000807142650000002012663840015857403     201208022012050800000000054130001147595000000001163660000000000000000000000000016065050000000000  3020120809   01          2                                                                                   3112012663848293807258000049                                                  N                     01321  0000000        000035
12042956441000101SOLUCOES ACO USIMINAS                                                 0000000034100000000000000000000000000000808797150000002020550740015891803     201208022012051000000000054130000236521000000000239832000000000000000000000000003311050000000000  3020120809   01          2                                                                                   3112020550748293807258000079                                                  N                     01321  0000000        000036
12053585766000141MULTIACOS INDUSTRIA E COMERCIO                                        0000000000100000000000000000000000000000860403350000009910140000004391601     201208282012080700000000054390000364996000000000364996000000000000000000000000000000050000000000  3020120828   01FS        1                                                                                   3043959910141912000139523199                                                  N                     01321  0000000        000037
12053585766000141MULTIACOS INDUSTRIA E COMERCIO                                        0000000000100000000000000000000000000000860403360000009910150000004391701     201208282012080700000000054390000352574000000000352574000000000000000000000000000000050000000000  3020120828   01FS        1                                                                                   3043959910151912000139523119                                                  N                     01321  0000000        000038
12053585766000141MULTIACOS INDUSTRIA E COMERCIO                                        0000000000100000000000000000000000000000860403320000009908440000004270203     201208302012080700000000054410000312212000000000312212000000000000000000000000000000050000000000  3020120830   01FS        1                                                                                   3043959908441912000139523189                                                  N                     01321  0000000        000039
12053585766000141MULTIACOS INDUSTRIA E COMERCIO                                        0000000000100000000000000000000000000000860403330000009908450000004270403     201209012012080700000000054430000118503000000000118503000000000000000000000000000000050000000000  3020120903   01FS        1                                                                                   3043959908451912000139523119                                                  N                     01321  0000000        000040
12053585766000141MULTIACOS INDUSTRIA E COMERCIO                                        0000000000100000000000000000000000000000860403340000009908460000004270303     201208302012080700000000054410000402460000000000402460000000000000000000000000000000050000000000  3020120830   01FS        1                                                                                   3043959908461912000139523119                                                  N                     01321  0000000        000041
12053585766000141MULTIACOS INDUSTRIA E COMERCIO                                        0000000000100000000000000000000000000000860403370000009910650000004411801     201208312012080700000000054420000602758000000000602758000000000000000000000000000000050000000000  3020120831   01FS        1                                                                                   3043959910651912000139523129                                                  N                     01321  0000000        000042
12053585766000141MULTIACOS INDUSTRIA E COMERCIO                                        0000000000100000000000000000000000000000860403380000009910810000004421901     201209032012080700000000054450000970754000000000970754000000000000000000000000000000050000000000  3020120903   01FS        1                                                                                   3043959910811912000139523179                                                  N                     01321  0000000        000043
12053585766000141MULTIACOS INDUSTRIA E COMERCIO                                        0000000000100000000000000000000000000000860403390000009910900000004429701     201209032012080700000000054450000643456000000000643456000000000000000000000000000000050000000000  3020120903   01FS        1                                                                                   3043959910901912000139523199                                                  N                     01321  0000000        000044
12053585766000141MULTIACOS INDUSTRIA E COMERCIO                                        0000000000100000000000000000000000000000860403400000009910130000004391501     201208282012080700000000054390000329096000000000329096000000000000000000000000000000050000000000  3020120828   01FS        1                                                                                   3043959910131912000139523159                                                  N                     01321  0000000        000045
12053585766000141MULTIACOS INDUSTRIA E COMERCIO                                        0000000000100000000000000000000000000000843180380000006823860000004270201     201208022012071000000000054130000321672000000000321672000000000000000000000000000000050000000000  3020120802   06          3                                                                                   3043886823861912000139523189                                                  N                     01321  0000000        000046
12053585766000141MULTIACOS INDUSTRIA E COMERCIO                                        0000000000100000000000000000000000000000843180400000006823880000004270301     201208022012071000000000054130000414655000000000414655000000000000000000000000000000050000000000  3020120802   06          3                                                                                   3043886823881912000139523159                                                  N                     01321  0000000        000047
12054382510000108SETENTA IND E COM DE MADEIRAS                                         0000000034100000000000000000000000000000860403430000002277814474462 A         201209042012080700000000054460000191200000000000191200000000000000000000000000000000050000000000  3020120904   01FS        1                                                                                   3112277814474057049175300069                                                  N                     01321  0000000        000048
12056993900000131CIA METALURGICA PRADA                                                 0000000034100000000000000000000000000000844839160000002201181790025629301     201208082012071100000000054190000258680000000000259111000000000000000000000000000431050000000000  3020120809   01          2                                                                                   3112201181792293800573900019                                                  N                     01321  0000000        000049
12056993900000131CIA METALURGICA PRADA                                                 0000000034100000000000000000000000000000844839190000002201181820025635401     201208082012071100000000054190000209315000000000209664000000000000000000000000000349050000000000  3020120809   01          2                                                                                   3112201181826293800573900019                                                  N                     01321  0000000        000050
12056993900000131CIA METALURGICA PRADA                                                 0000000034100000000000000000000000000000807926580000002014912350023716603     201208012012050900000000054120000102740000000000102740000000000000000000000000000000050000000000  3020120801   06          3                                                                                   3112014912359293800573900049                                                  N                     01321  0000000        000051
12061217188000119TELAS METALICAS TELMETAL LTDA                                         0000000000100000000000000000000000000000834820160000000054240005227 3 3       201208032012062600000000054140000042996000000000042996000000000000000000000000000000050000000000  3020120803   06          3                                                                                   3000000115031800000054241739                                                  N                     01321  0000000        000052
12061217188000119TELAS METALICAS TELMETAL LTDA                                         0000000000100000000000000000000000000000834820250000000054210005226 3 3       201208032012062600000000054140000007442000000000007442000000000000000000000000000000050000000000  3020120803   06          3                                                                                   3000000115031800000054211749                                                  N                     01321  0000000        000053
12061217188000119TELAS METALICAS TELMETAL LTDA                                         0000000000100000000000000000000000000000836417850000000054520005262 1 1       201208022012062800000000054130000069735000000000069735000000000000000000000000000000050000000000  3020120802   06          3                                                                                   3000000115031800000054521749                                                  N                     01321  0000000        000054
12061217188000119TELAS METALICAS TELMETAL LTDA                                         0000000034100000000000000000000000000000840313210000009000028575223 3 3       201208032012062200000000054140000005067000000000005067000000000000000000000000000000050000000000  3020120803   06          3                                                                                   3109000028574077098123100059                                                  N                     01321  0000000        000055
12061217188000119TELAS METALICAS TELMETAL LTDA                                         0000000034100000000000000000000000000000851529090000009000028725291 2 3       201208082012070400000000054190000010719000000000010748000000000000000000000000000029050000000000  3020120809   01          2                                                                                   3109000028728077099894600079                                                  N                     01321  0000000        000056
12061217188000119TELAS METALICAS TELMETAL LTDA                                         0000000034100000000000000000000000000000851529120000009000028755292 2 3       201208082012070400000000054190000055682000000000055830000000000000000000000000000148050000000000  3020120809   01          2                                                                                   3109000028751077099894600059                                                  N                     01321  0000000        000057
12061217188000119TELAS METALICAS TELMETAL LTDA                                         0000000034100000000000000000000000000000851529150000009000028785293 2 3       201208082012070400000000054190000172173000000000172632000000000000000000000000000459050000000000  3020120809   01          2                                                                                   3109000028785077099894600089                                                  N                     01321  0000000        000058
12064952757000168WALMAC COM DE PROD QUIMICOS LT                                        0000000034100000000000000000000000000000860403440000002275821690020148        201210262012080300000000054980000219266000000000219266000000000000000000000000000000050000000000  3020121026   01FS        1                                                                                   3112275821695064807961400019                                                  N                     01321  0000000        000059
12064952757000168WALMAC COM DE PROD QUIMICOS LT                                        0000000034100000000000000000000000000000860403450000002275821700020148        201209282012080300000000054700000219267000000000219267000000000000000000000000000000050000000000  3020120928   01FS        1                                                                                   3112275821703064807961400049                                                  N                     01321  0000000        000060
12064952757000168WALMAC COM DE PROD QUIMICOS LT                                        0000000034100000000000000000000000000000860403460000002275821710020148        201208312012080300000000054420000219267000000000219267000000000000000000000000000000050000000000  3020120831   01FS        1                                                                                   3112275821711064807961400079                                                  N                     01321  0000000        000061
12092693118000160BRADESCO SAUDE S A                                                    0000000023700448000000001533991 00000000829780050050100702629130000000000     201207202012061800000000054000000645861000000000654181000000000000000000000000008320050000000000  3020120809   01          2                                                                                   3                         000000000000000                                     N                     00598  0000000        000062
900006300000000015307187                                                                                                                                                                                                                                                                                                                                                                                                                                                                00598  0000000        000063
