0000147602043799295000110ALTAMIRA INDUSTRIA METALURGICA LT       202000000190520121009213003             3                                                                                                  000000000000000                                                                                                                                                                                                                                                                                   000001
12061612735000160IMP TEIXEIRA FERRAGENS LTDA                                           0000000034100000 0000000000000  I000000000009997000000000000000               201210090000000000000000054810000030780000000000030780000000000000000000000000000000010000086481  3120121009   02BW        5000000               000000000000000                                               3181557213666000442318200069               86481                              N                     01132 10020256        000002
12011013187000184PRIME RAV FOMENTO MERCANTIL LT                                        0000000034100000 0000000000000  I000000000009993000000000000000               201210090000000000000000054810000254178000000000254178000000000000000000000000000000010000000667  3120121009   02BW        5000000               000000000000000                                               3181556966428005770252400099               667                                N                     01132 10020256        000003
12001895314000162COLETA INDUSTRIAL FIMAVAN LTDA                                        0000000034100000 0000000000000  I000000000009994000000000000000               201210090000000000000000054810000166356000000000166356000000000000000000000000000000010000010405  3120121009   02BW        5000000               000000000000000                                               3181556971248144604097200049               10405                              N                     01132 10020256        000004
12006209559000102MAZURKY IND COM EMBALAGENS LTD                                        0000000034100000 0000000000000  I000000000009995000000000000000               201210090000000000000000054810000094373000000000094373000000000000000000000000000000010000010076  3120121009   02BW        5000000               000000000000000                                               3181557009244151434240900029               10076/03                           N                     01132 10020256        000005
12013656578000142GUARINOR TRANSP E LOGISTICA LT                                        0000000010400000 0000000000000  I000000000009998000000000000000               201210090000000000000000054810000016550000000000016550000000000000000000000000000000050000006703  3120121009   02BW        5000000               000000000000000                                               3900000096732958700000017349               CONHEC.NRO.6703.                   N                     01132 10020256        000006
12003498897000202TELECOMUNICACOES DE SAO PAULO                                         0000000023702372800000000360082 I000000000010000019066000896113               201210090000000000000000054810000331198000000000331198000000000000000000000000000000010033019660  3120121009   02BW        5000000               000000000000000                                               3237219660008961130036008049               33019660                           N                     01079 10020256        000007
12043799295000110ALTAMIRA INDUSTRIA METAL LTDA                                         0000000003303809500000130004071 I000000000009992000000000000000               201210090000000000000000000000000000000000000006600000000000000000000000000000000000050000000001  0820121009   02BW        5001100               000000000000000                                               3D0000000101                               01                                 S                     01133 10020256        000008
12062173661000176INDUFIX IND E COM LTDA                                                0000000023704130000000000085898 I000000000009996007022540000135               201210090000000000000000054810000071540000000000071540000000000000000000000000000000010000038151  3120121009   02BW        5000000               000000000000000                                               3413007225400001350008589079               38151/01                           N                     01079 10020256        000009
12060737301000124SERRALHERIA SEPETIBA LTDA     PCA ALFREDO WEISZFLOG 81                0504505023700368900000000503509 I000000000009999000000000000000               201210090000000000000000000000000000000000000000057440000000000000000000000000000000010000000316  0120121009   02BW        5000000               000000000000000                                               3                                          NF.NRO.316 - PARC.03.              N                     01321 10020256        000010
12061600839000155CENTRO DE INT EMPRESA ESCOLA C                                        0000000023703391P00000000866202 00000000880122440090000036173097641C 0001     201209302012091000000000054720000016800000000000017295000000000000000000000000000935050000000000  3020121009   02BW        2000000               000000000000000                                               3                         000000000000000                                     N                     01079 10020256        000011
900001200000000007639710                                                                                                                                                                                    000000000000000                                                                                                                                                                                                                                                    00001000438390000981775        000012
