0000147602043799295000110ALTAMIRA INDUSTRIA METALURGICA LT       202000000016520121110060641             1                                                                                                                                                                                                                                                                                                                                                                                                    000001
12001162151000109SUKIRA COM DE IMP E EXP LTDA                                          000000003410000000000000000000000000000091741398000000256317313019000 AB      201212062012110800000000055390000042471000000000042471000000000000000000000000000000050000000000  3020121206   01FS        1                                                                                   3112563173130021116926300039                                                  N                     01321  0000000        000002
12001162151000109SUKIRA COM DE IMP E EXP LTDA                                          000000003410000000000000000000000000000091741399000000256317314019000 BB      201212132012110800000000055460000042471000000000042471000000000000000000000000000000050000000000  3020121213   01FS        1                                                                                   3112563173148021116926300039                                                  N                     01321  0000000        000003
12001895314000162COLETA INDUSTRIAL FIMAVAN LTDA                                        0000000034100000000000000000000000000000866992070000009002335349439           201208272012081700000000054380000123695000000000151502000000000000000000000000027807050000000000  3020121112   01          2                                                                                   3109002335346144604097200019                                                  N                     01321  0000000        000004
12002583013000166ITAN TRANSP DE CARGAS EXC E IN                                        000000003410000000000000000000000000000088350836000000239377422008 B          201210212012091400000000054930000192500000000000209440000000000000000000000000016940050000000000  3020121112   01          2                                                                                   3112393774222005770252400039                                                  N                     01321  0000000        000005
12003489596000123BEND FLEX I COMERCIO LTDA                                             000000003410000000000000000000000000000088350832000000171879874608            201209122012082100000000054540000695250000000000778637000000000000000000000000083387050000000000  3020121112   01          2                                                                                   3191718798744157734445800069                                                  N                     01321  0000000        000006
12003489596000123BEND FLEX I COMERCIO LTDA                                             000000003410000000000000000000000000000091358505000000177374323637            201210292012092700000000055010000110000000000000113024000000000000000000000000003024050000000000  3020121112   01          2                                                                                   3191773743239157734445800019                                                  N                     01321  0000000        000007
12003489596000123BEND FLEX I COMERCIO LTDA                                             000000003410000000000000000000000000000088599899000000171434574613            201209172012081600000000054590000585000000000000649456000000000000000000000000064456050000000000  3020121112   01          2                                                                                   3191714345748157734445800019                                                  N                     01321  0000000        000008
12004882911000140F C BRITO CARTUCHOS ME                                                00000000033000000000000000000000000000009174140400000029000000014860 A21      201211212012102400000000055240000039945000000000039945000000000000000000000000000000050000000000  3020121121   01FS        1                                                                                   3944753720000000109029010119                                                  N                     01321  0000000        000009
12005880850000145NEDERMAN BRASIL COM PROD EX LT                                        000000003410000000000000000000000000000086373178000000614350956002763 A       201209252012081400000000054670000289674000000000317034000000000000000000000000027360050000000000  3020121112   01          2                                                                                   3156143509568160829000100049                                                  N                     01321  0000000        000010
12006000195000156MBA MERCANTIL BRAS DE ACO LTDA                                        0000000034100000000000000000000000000000904173170000001671394420008925B03     201210122012071700000000054840000719580000000000763445000000000000000000000000043865050000000000  3020121112   01          2                                                                                   3191671394424064849251000069                                                  N                     01321  0000000        000011
12006000195000156MBA MERCANTIL BRAS DE ACO LTDA                                        0000000034100000000000000000000000000000904173180000001671394430008926B03     201210122012071700000000054840000387716000000000411369000000000000000000000000023653050000000000  3020121112   01          2                                                                                   3191671394432064849251000079                                                  N                     01321  0000000        000012
12006000195000156MBA MERCANTIL BRAS DE ACO LTDA                                        0000000034100000000000000000000000000000906662670000001671394410008920B03     201210142012071700000000054860000576584000000000609470000000000000000000000000032886050000000000  3020121112   01          2                                                                                   3191671394416064849251000039                                                  N                     01321  0000000        000013
12006000195000156M B A MERCANTIL BRASILEIRA DE                                         0000000023700118P00000002130599 00000000865388260020222900000470009204B02     201210112012081500000000054830000127292000000000134076000000000000000000000000006784050000000000  3020121112   01          2  RUA JUNO  533                                                                    3                         000000000000000                                     N                     00598  0000000        000014
12006000195000156M B A MERCANTIL BRASILEIRA DE                                         0000000023700118P00000002130599 00000000865388290020222900000500009205B02     201210122012081500000000054840000348964000000000367006000000000000000000000000018042050000000000  3020121112   01          2  RUA JUNO  533                                                                    3                         000000000000000                                     N                     00598  0000000        000015
12006000195000156M B A MERCANTIL BRASILEIRA DE                                         0000000023700118P00000002130599 00000000865388320020222900000530009206B02     201210132012081500000000054850000527560000000000553930000000000000000000000000026370050000000000  3020121112   01          2  RUA JUNO  533                                                                    3                         000000000000000                                     N                     00598  0000000        000016
12006000195000156M B A MERCANTIL BRASILEIRA DE                                         0000000023700118P00000002130599 00000000848180770020220100000340008905B03     201210112012071900000000054830000155300000000000163588000000000000000000000000008288050000000000  3020121112   01          2  RUA JUNO  533                                                                    3                         000000000000000                                     N                     00598  0000000        000017
12006000195000156M B A MERCANTIL BRASILEIRA DE                                         0000000023700118P00000002130599 00000000868592690020223600000020009229B02     201210112012081600000000054830000253414000000000266918000000000000000000000000013504050000000000  3020121112   01          2  RUA JUNO  533                                                                    3                         000000000000000                                     N                     00598  0000000        000018
12006000195000156MBA MERCANTIL BRAS DE ACO LTDA                                        0000000034100000000000000000000000000000904173140000001667238290008874B03     201210112012071600000000054830000802825000000000853353000000000000000000000000050528050000000000  3020121112   01          2                                                                                   3191667238296064849251000069                                                  N                     01321  0000000        000019
12006000195000156MBA MERCANTIL BRAS DE ACO LTDA                                        0000000034100000000000000000000000000000904173160000001667238280008876B03     201210122012071600000000054840000810320000000000859734000000000000000000000000049414050000000000  3020121112   01          2                                                                                   3191667238288064849251000079                                                  N                     01321  0000000        000020
12006000195000156MBA MERCANTIL BRAS DE ACO LTDA                                        0000000034100000000000000000000000000000887698090000001671394550008925B02     201209142012071700000000054560000719581000000000803066000000000000000000000000083485050000000000  3020121112   01          2                                                                                   3191671394556064849251000089                                                  N                     01321  0000000        000021
12006000195000156MBA MERCANTIL BRAS DE ACO LTDA                                        0000000034100000000000000000000000000000887698100000001671394560008926B02     201209142012071700000000054560000387716000000000432733000000000000000000000000045017050000000000  3020121112   01          2                                                                                   3191671394564064849251000019                                                  N                     01321  0000000        000022
12006000195000156MBA MERCANTIL BRAS DE ACO LTDA                                        0000000034100000000000000000000000000000889578520000001671394540008920B02     201209162012071700000000054580000576585000000000641223000000000000000000000000064638050000000000  3020121112   01          2                                                                                   3191671394549064849251000099                                                  N                     01321  0000000        000023
12006000195000156MBA MERCANTIL BRAS DE ACO LTDA                                        0000000034100000000000000000000000000000885998980000001667238420008870B02     201209112012071600000000054530000839952000000000942376000000000000000000000000102424050000000000  3020121112   01          2                                                                                   3191667238429064849251000039                                                  N                     01321  0000000        000024
12006000195000156MBA MERCANTIL BRAS DE ACO LTDA                                        0000000034100000000000000000000000000000904173150000001667238300008870B03     201210092012071600000000054810000839951000000000896119000000000000000000000000056168050000000000  3020121112   01          2                                                                                   3191667238304064849251000039                                                  N                     01321  0000000        000025
12007565346000186ALFLEX PLASTICOS E FERRAGENS L                                        0000000023701416800000000407607 0000000088769812009013226800206S000000196     201210232012092400000000054950000187500000000000195000000000000000000000000000008125050000000000  3020121029   06          3  RUA TAMAINDE  1410                                                               3                         000000000000000                                     N                     00598  0000000        000026
12008594182000188ACOS G3 COMERCIO E BENEFICIAME                                        0000000023703137200000000091332 00000000912467990090227100000251155        001201210252012092700000000054970000152346000000000156245000000000000000000000000003899050000000000  3020121112   01          2  RUA GANGES  528                                                                  3                         000000000000000                                     N                     00598  0000000        000027
12009338857000190FERNANDO  NAGAO  CARDONE  ALVA                                        000000000330000000000000000000000000000089697936000000800000000ALTA 10 2012   201210202012092500000000054920000134632000000000145270000000000000000000000000010638050000000000  3020121112   01          2                                                                                   3947901700000051050080010129                                                  N                     01321  0000000        000028
12012006058000121WEG TINTAS LTDA                                                       0000000023702727800000000001309 00000000868126350090223500001180016086602     201210202012082100000000054920000306569000000000315953000000000000000000000000009384050000000000  3020121112   01          2  R JUNO  533                                                                      3                         000000000000000                                     N                     00598  0000000        000029
12012006058000121WEG TINTAS LTDA                                                       0000000023702727800000000001309 00000000868126360090223500001190016086603     201211042012082100000000055070000306662000000000309926000000000000000000000000003264050000000000  3020121112   01          2  R JUNO  533                                                                      3                         000000000000000                                     N                     00598  0000000        000030
12012006058000121WEG TINTAS LTDA                                                       0000000023702727800000000001309 00000000870177480090224100000970016248001     201210112012082700000000054830000306569000000000319625000000000000000000000000013056050000000000  3020121112   01          2  R JUNO  533                                                                      3                         000000000000000                                     N                     00598  0000000        000031
12012006058000121WEG TINTAS LTDA                                                       0000000023702727800000000001309 00000000870177490090224100000980016248002     201210262012082700000000054980000306569000000000313505000000000000000000000000006936050000000000  3020121112   01          2  R JUNO  533                                                                      3                         000000000000000                                     N                     00598  0000000        000032
12012006058000121WEG TINTAS LTDA                                                       0000000023702727800000000001309 00000000872318650090224700001030016359601     201210152012083100000000054870000459854000000000477018000000000000000000000000017164050000000000  3020121112   01          2  R JUNO  533                                                                      3                         000000000000000                                     N                     00598  0000000        000033
12012006058000121WEG TINTAS LTDA                                                       0000000023702727800000000001309 00000000872318660090224700001040016359602     201210302012083100000000055020000459854000000000467823000000000000000000000000007969050000000000  3020121112   01          2  R JUNO  533                                                                      3                         000000000000000                                     N                     00598  0000000        000034
12012006058000121WEG TINTAS LTDA                                                       0000000023702727800000000001309 00000000878206040090225400000780016517201     201210212012090600000000054930000459854000000000473340000000000000000000000000013486050000000000  3020121112   01          2  R JUNO  533                                                                      3                         000000000000000                                     N                     00598  0000000        000035
12012006058000121WEG TINTAS LTDA                                                       0000000023702727800000000001309 00000000878206050090225400000790016517202     201211052012090600000000055080000459854000000000464145000000000000000000000000004291050000000000  3020121112   01          2  R JUNO  533                                                                      3                         000000000000000                                     N                     00598  0000000        000036
12012006058000121WEG TINTAS LTDA                                                       0000000023702727800000000001309 00000000882668410090225800000740016626901     201210282012091300000000055000000459854000000000469049000000000000000000000000009195050000000000  3020121112   01          2  R JUNO  533                                                                      3                         000000000000000                                     N                     00598  0000000        000037
12012006058000121WEG TINTAS LTDA                                                       0000000023702727800000000001309 00000000856071270090221400000840015587303     201210142012073100000000054860000459992000000000477769000000000000000000000000017777050000000000  3020121112   01          2  R JUNO  533                                                                      3                         000000000000000                                     N                     00598  0000000        000038
12012006058000121WEG TINTAS LTDA                                                       0000000023702727800000000001309 00000000861207280090222200000920015775003     201210222012080800000000054940000306662000000000315230000000000000000000000000008568050000000000  3020121112   01          2  R JUNO  533                                                                      3                         000000000000000                                     N                     00598  0000000        000039
12012006058000121WEG TINTAS LTDA                                                       0000000023702727800000000001309 00000000864554450090222800000740015908402     201210132012081400000000054850000306569000000000318809000000000000000000000000012240050000000000  3020121112   01          2  R JUNO  533                                                                      3                         000000000000000                                     N                     00598  0000000        000040
12012006058000121WEG TINTAS LTDA                                                       0000000023702727800000000001309 00000000864554460090222800000750015908403     201210282012081400000000055000000306662000000000312782000000000000000000000000006120050000000000  3020121112   01          2  R JUNO  533                                                                      3                         000000000000000                                     N                     00598  0000000        000041
12033325184001786ALSCO TOALHEIRO BRASIL                                                0000000023703396000000001490850 0000000091741401009000002787905VM27879        201211212012110100000000055240000037363000000000037363000000000000000000000000000000050000000000  3020121121   01FS        1  RUA  GANGES 528                                                                  3                         000000000000000                                     N                     00598  0000000        000042
12035820448000136WHITE MARTINS GASES INDUSTRIAI                                        0000000023700026400000003937925 0000000091741400009023140002461404856 001     201212062012110900000000055390000121725000000000121725000000000000000000000000000000050000000000  3020121206   01FS        1  RUA GANGES  528                                                                  3                         000000000000000                                     N                     00598  0000000        000043
12042956441000101SOLUCOES ACO USIMINAS                                                 0000000034100000000000000000000000000000853154840000002246247030017196702     201209202012072500000000054620000234841000000000259751000000000000000000000000024910050000000000  3020121112   01          2                                                                                   3112246247038293807258000099                                                  N                     01321  0000000        000044
12042956441000101SOLUCOES ACO USIMINAS                                                 0000000034100000000000000000000000000000855028690000002254329380017212902     201209212012072600000000054630000140098000000000154658000000000000000000000000014560050000000000  3020121112   01          2                                                                                   3112254329389293807258000019                                                  N                     01321  0000000        000045
12042956441000101SOLUCOES ACO USIMINAS                                                 0000000034100000000000000000000000000000853154850000002246247040017197302     201209202012072500000000054620000970103000000001072923000000000000000000000000102820050000000000  3020121112   01          2                                                                                   3112246247046293807258000019                                                  N                     01321  0000000        000046
12042956441000101SOLUCOES ACO USIMINAS                                                 0000000034100000000000000000000000000000855028700000002254329390017213002     201209212012072600000000054630000140602000000000155214000000000000000000000000014612050000000000  3020121112   01          2                                                                                   3112254329397293807258000089                                                  N                     01321  0000000        000047
12042956441000101SOLUCOES ACO USIMINAS                                                 0000000034100000000000000000000000000000855028770000002254329400017220502     201209212012072700000000054630000981022000000001083046000000000000000000000000102024050000000000  3020121112   01          2                                                                                   3112254329405293807258000099                                                  N                     01321  0000000        000048
12042956441000101SOLUCOES ACO USIMINAS                                                 0000000034100000000000000000000000000000856906410000002262886280017266201     201208282012073000000000054390000119472000000000137636000000000000000000000000018164050000000000  3020121112   01          2                                                                                   3112262886289293807258000089                                                  N                     01321  0000000        000049
12042956441000101SOLUCOES ACO USIMINAS                                                 0000000034100000000000000000000000000000856906420000002262886290017266301     201208282012073000000000054390000145069000000000167109000000000000000000000000022040050000000000  3020121112   01          2                                                                                   3112262886297293807258000099                                                  N                     01321  0000000        000050
12042956441000101SOLUCOES ACO USIMINAS                                                 0000000034100000000000000000000000000000859590620000002274469790017353702     201209282012080300000000054700000081053000000000088343000000000000000000000000007290050000000000  3020121112   01          2                                                                                   3112274469793293807258000069                                                  N                     01321  0000000        000051
12042956441000101SOLUCOES ACO USIMINAS                                                 0000000034100000000000000000000000000000846595700000002210880280016980502     201209102012071200000000054520000156071000000000175727000000000000000000000000019656050000000000  3020121112   01          2                                                                                   3112210880285293807258000039                                                  N                     01321  0000000        000052
12042956441000101SOLUCOES ACO USIMINAS                                                 0000000034100000000000000000000000000000848180700000002220192900017041002     201209112012071700000000054530000155433000000000174715000000000000000000000000019282050000000000  3020121112   01          2                                                                                   3112220192903293807258000029                                                  N                     01321  0000000        000053
12042956441000101SOLUCOES ACO USIMINAS                                                 0000000034100000000000000000000000000000848180710000002220192910017041202     201209112012071700000000054530000205421000000000230903000000000000000000000000025482050000000000  3020121112   01          2                                                                                   3112220192911293807258000019                                                  N                     01321  0000000        000054
12042956441000101SOLUCOES ACO USIMINAS                                                 0000000034100000000000000000000000000000850740460000002233586800017127201     201208202012072000000000054310000137881000000000161065000000000000000000000000023184050000000000  3020121112   01          2                                                                                   3112233586802293807258000019                                                  N                     01321  0000000        000055
12042956441000101SOLUCOES ACO USIMINAS                                                 0000000034100000000000000000000000000000850740470000002233586810017101002     201209142012071900000000054560000732575000000000819010000000000000000000000000086435050000000000  3020121112   01          2                                                                                   3112233586810293807258000019                                                  N                     01321  0000000        000056
12042956441000101SOLUCOES ACO USIMINAS                                                 0000000034100000000000000000000000000000850740480000002233586820017101202     201209142012071900000000054560000144634000000000161685000000000000000000000000017051050000000000  3020121112   01          2                                                                                   3112233586828293807258000029                                                  N                     01321  0000000        000057
12042956441000101SOLUCOES ACO USIMINAS                                                 0000000034100000000000000000000000000000846595710000002210880290016980602     201209102012071200000000054520000426094000000000479770000000000000000000000000053676050000000000  3020121112   01          2                                                                                   3112210880293293807258000019                                                  N                     01321  0000000        000058
12042956441000101SOLUCOES ACO USIMINAS                                                 0000000034100000000000000000000000000000847452070000002216130350005922202     201209102012071600000000054520000172071000000000193743000000000000000000000000021672050000000000  3020121112   01          2                                                                                   3112216130354293807258000049                                                  N                     01321  0000000        000059
12042956441000101SOLUCOES ACO USIMINAS                                                 0000000034100000000000000000000000000000847452100000002216130340017012402     201209102012071500000000054520000147428000000000166013000000000000000000000000018585050000000000  3020121112   01          2                                                                                   3112216130347293807258000059                                                  N                     01321  0000000        000060
12043555887000197RENATO GONCALVES                                                      000000000010000000000000000000000000000088599907000000680403000308B           201211052012092000000000055080000191500000000000191500000000000000000000000000000000050000000000  3020121105   06          3                                                                                   3000000104260650156804031159                                                  N                     01321  0000000        000061
12045635984000115CRIFER LAMINADOS DE ACO E FERR                                        0000000003300000000000000000000000000000917414020000007500000000036176E02     201301032012110800000000055670000501947000000000501947000000000000000000000000000000050000000000  3020130103   01FS        1                                                                                   3901184270000000261475010159                                                  N                     01321  0000000        000062
12045635984000115CRIFER LAMINADOS DE ACO E FERR                                        0000000003300000000000000000000000000000917414030000006700000000036176E01     201212062012110800000000055390000501946000000000501946000000000000000000000000000000050000000000  3020121206   01FS        1                                                                                   3901184270000000261467010119                                                  N                     01321  0000000        000063
12045635984000115CRIFER LAMINADOS DE ACO E FERR                                        0000000003300000000000000000000000000000917414050000008300000000036176E03     201301172012110800000000055810000501946000000000501946000000000000000000000000000000050000000000  3020130117   01FS        1                                                                                   3901184270000000261483010199                                                  N                     01321  0000000        000064
12047190731000100DE CASTRO LOUR ENG IND LTDA                                           00000000341000000000000000000000000000008782050900000023399953503026612 0     201209182012082100000000054600001111489000000001231719000000000000000000000000120230050000000000  3020121112   01          2                                                                                   3112339995352036884500400019                                                  N                     01321  0000000        000065
12047190731000100DE CASTRO LOUR ENG IND LTDA                                           00000000341000000000000000000000000000008782051200000023399953803026613 0     201209182012082100000000054600001107989000000001227834000000000000000000000000119845050000000000  3020121112   01          2                                                                                   3112339995386036884500400039                                                  N                     01321  0000000        000066
12047190731000100DE CASTRO LOUR ENG IND LTDA                                           00000000341000000000000000000000000000008782051600000023399954103026614 0     201209182012082100000000054600001047621000000001160921000000000000000000000000113300050000000000  3020121112   01          2                                                                                   3112339995410036884500400039                                                  N                     01321  0000000        000067
12047190731000100DE CASTRO LOUR ENG IND LTDA                                           00000000341000000000000000000000000000008782052000000023399955303026632 0     201209192012082200000000054610000952073000000001053161000000000000000000000000101088050000000000  3020121112   01          2                                                                                   3112339995535036884500400019                                                  N                     01321  0000000        000068
12047190731000100DE CASTRO LOUR ENG IND LTDA                                           00000000341000000000000000000000000000008782052100000023399955903026643 0     201209202012082300000000054620000867039000000000957404000000000000000000000000090365050000000000  3020121112   01          2                                                                                   3112339995592036884500400049                                                  N                     01321  0000000        000069
12047190731000100DE CASTRO LOUR ENG IND LTDA                                           00000000341000000000000000000000000000008782052500000023399955603026636 0     201209192012082200000000054610000940804000000001040704000000000000000000000000099900050000000000  3020121112   01          2                                                                                   3112339995568036884500400049                                                  N                     01321  0000000        000070
12047190731000100DE CASTRO LOUR ENG IND LTDA                                           00000000341000000000000000000000000000008782052700000023399956203026648 0     201209202012082300000000054620000976053000000001077813000000000000000000000000101760050000000000  3020121112   01          2                                                                                   3112339995626036884500400029                                                  N                     01321  0000000        000071
12048775225000146SEIKI IND COM E CONFECCOES LTD                                        000000003410000000000000000000000000000089337376000000244697151014914001      201210232012092500000000054950000052000000000000053560000000000000000000000000001560050000000000  3020121112   01          2                                                                                   3112446971510017444824100089                                                  N                     01321  0000000        000072
12051180370000199IGUAFER FERRO E ACO LTDA                                              0000000034100000000000000000000000000000852309100000002239389789443 B         201209022012071800000000054440000168275000000000188155000000000000000000000000019880050000000000  3020121112   01          2                                                                                   3112239389789077149484600089                                                  N                     01321  0000000        000073
12051180370000199IGUAFER FERRO E ACO LTDA                                              0000000034100000000000000000000000000000852309110000002239389799443 C         201209122012071800000000054540000168275000000000185355000000000000000000000000017080050000000000  3020121112   01          2                                                                                   3112239389797077149484600089                                                  N                     01321  0000000        000074
12053585766000141MULTIACOS I C PRODS TEC LTDA                                          0000000042200000000000000000000000000000890456910000000000000000004724101     201211062012092500000000055090000131776000000000133095000000000000000000000000001319050000000000  3020121112   01          2                                                                                   3711500005033164925775126119                                                  N                     01321  0000000        000075
12053585766000141MULTIACOS I C PRODS TEC LTDA                                          0000000042200000000000000000000000000000890457030000000000000000004604503     201211052012092500000000055080000910103000000000920721000000000000000000000000010618050000000000  3020121112   01          2                                                                                   3711500005033164925775258149                                                  N                     01321  0000000        000076
12053585766000141MULTIACOS I C PRODS TEC LTDA                                          0000000042200000000000000000000000000000883508160000000000000000004674602     201211062012091300000000055090000126819000000000128084000000000000000000000000001265050000000000  3020121112   01          2                                                                                   3711500005033164921116454189                                                  N                     01321  0000000        000077
12053585766000141MULTIACOS I C PRODS TEC LTDA                                          0000000042200000000000000000000000000000895189330000000000000000004737201     201211062012100200000000055090000373564000000000377301000000000000000000000000003737050000000000  3020121112   01          2                                                                                   3711500005033164927761777119                                                  N                     01321  0000000        000078
12053585766000141MULTIACOS I C PRODS TEC LTDA                                          0000000042200000000000000000000000000000895189460000000000000000004604403     201211052012100200000000055080000189937000000000192155000000000000000000000000002218050000000000  3020121112   01          2                                                                                   3711500005033164927761891119                                                  N                     01321  0000000        000079
12053585766000141MULTIACOS I C PRODS TEC LTDA                                          0000000042200000000000000000000000000000895189640000000000000000004750001     201211082012100200000000055110000229622000000000231153000000000000000000000000001531050000000000  3020121112   01          2                                                                                   3711500005033164927762111139                                                  N                     01321  0000000        000080
12053585766000141MULTIACOS I C PRODS TEC LTDA                                          0000000042200000000000000000000000000000895189710000000000000000004685002     201211082012100200000000055110000547346000000000550993000000000000000000000000003647050000000000  3020121112   01          2                                                                                   3711500005033164927762196129                                                  N                     01321  0000000        000081
12053585766000141MULTIACOS I C PRODS TEC LTDA                                          0000000042200000000000000000000000000000895189780000000000000000004674402     201211062012100200000000055090000385696000000000389553000000000000000000000000003857050000000000  3020121112   01          2                                                                                   3711500005033164927762226119                                                  N                     01321  0000000        000082
12053585766000141MULTIACOS I C PRODS TEC LTDA                                          0000000042200000000000000000000000000000887697880000000000000000004612003     201211062012092000000000055090000465862000000000470517000000000000000000000000004655050000000000  3020121112   01          2                                                                                   3711500005033164923629548119                                                  N                     01321  0000000        000083
12053585766000141MULTIACOS I C PRODS TEC LTDA                                          0000000042200000000000000000000000000000887697920000000000000000004612303     201211062012092000000000055090000636673000000000643038000000000000000000000000006365050000000000  3020121112   01          2                                                                                   3711500005033164923629611179                                                  N                     01321  0000000        000084
12053585766000141MULTIACOS I C PRODS TEC LTDA                                          0000000042200000000000000000000000000000887697970000000000000000004612203     201211062012092000000000055090000214553000000000216700000000000000000000000000002147050000000000  3020121112   01          2                                                                                   3711500005033164923629637189                                                  N                     01321  0000000        000085
12053585766000141MULTIACOS I C PRODS TEC LTDA                                          0000000042200000000000000000000000000000883508200000000000000000004674502     201211062012091300000000055090000274012000000000276753000000000000000000000000002741050000000000  3020121112   01          2                                                                                   3711500005033164921116489119                                                  N                     01321  0000000        000086
12054382510000108SETENTA IND E COM DE MADEIRAS                                         0000000034100000000000000000000000000000860403430000002277814474462 A         201209042012080700000000054460000191200000000000217144000000000000000000000000025944050000000000  3020121112   01          2                                                                                   3112277814474057049175300069                                                  N                     01321  0000000        000087
12056993512000150CYKLOP DO BRASIL EMBALAGENS SA                                        0000000034100000000000000000000000000000874070500000002362586810134932        201210012012090300000000054730000083607000000000096501000000000000000000000000012894050000000000  3020121112   01          2                                                                                   3112362586813025700015800019                                                  N                     01321  0000000        000088
12056993900000131CIA METALURGICA PRADA                                                 0000000034100000000000000000000000000000848180620000002218222670025829902     201209112012071700000000054530000498118000000000549578000000000000000000000000051460050000000000  3020121112   01          2                                                                                   3112218222670293800573900029                                                  N                     01321  0000000        000089
12056993900000131CIA METALURGICA PRADA                                                 0000000034100000000000000000000000000000848180630000002218222680025830002     201209112012071700000000054530000247673000000000273279000000000000000000000000025606050000000000  3020121112   01          2                                                                                   3112218222688293800573900059                                                  N                     01321  0000000        000090
12056993900000131CIA METALURGICA PRADA                                                 0000000034100000000000000000000000000000848180640000002218222690025830102     201209112012071700000000054530000207402000000000228854000000000000000000000000021452050000000000  3020121112   01          2                                                                                   3112218222696293800573900039                                                  N                     01321  0000000        000091
12058566399000152NORDSON DO BRASIL IND E COM LT                                        0000000039900000000000000000000000000000852309160000000000000000000055881     201209182012072000000000054600000280180000000000280180000000000000000000000000000000050000000000  3020120918   05          3                                                                                   3175667741781163111666000119                                                  N                     01321  0000000        000092
12061217188000119TELAS METALICAS TELMETAL LTDA                                         0000000034100000000000000000000000000000914719020000009000030925879 1 2       201212032012110500000000055360000123655000000000123655000000000000000000000000000000050000000000  3020121203   05          3                                                                                   3109000030920077073552000099                                                  N                     01321  0000000        000093
12062510367000102ITANHAEM TRANSP DE MAQUINAS LT                                        000000003410000000000000000000000000000087407049000000236463199667            201209202012090400000000054620000248220000000000300849000000000000000000000000052629050000000000  3020121112   01          2                                                                                   3112364631997005770252400049                                                  N                     01321  0000000        000094
12062539994000176LEALFER INDUSTRIA E COMERCIO D                                        0000000003300000000000000000000000000000884432780000008400000000005502002     201211092012091300000000055120000839516000000000843797000000000000000000000000004281050000000000  3020121112   01          2                                                                                   3915298380000000264784010469                                                  N                     01321  0000000        000095
12062539994000176LEALFER IN E COM DE ACO LTDA                                          0000000034100000000000000000000000000000878205630000002342262050005379802     201210172012082200000000054890000912975000000000912975000000000000000000000000000000050000000000  3020121017   06          3                                                                                   3112342262055076103324000079                                                  N                     01321  0000000        000096
12063975346000125BAY FOMENTO COML LTDA                                                 0000000042200000000000000000000000000000917413970000000000000005456001        201212072012110700000000055400000040824000000000040824000000000000000000000000000000050000000000  3020121207   01FS        1                                                                                   3701800002030016938324705119                                                  N                     01321  0000000        000097
12064952757000168WALMAC COM DE PROD QUIMICOS LT                                        0000000034100000000000000000000000000000860403440000002275821690020148        201210262012080300000000054980000219266000000000226593000000000000000000000000007327050000000000  3020121112   01          2                                                                                   3112275821695064807961400019                                                  N                     01321  0000000        000098
12064952757000168WALMAC COM DE PROD QUIMICOS LT                                        0000000034100000000000000000000000000000860403450000002275821700020148        201210052012080300000000054770000219267000000000235645000000000000000000000000016378050000000000  3020121112   01          2                                                                                   3112275821703064807961400029                                                  N                     01321  0000000        000099
12064952757000168WALMAC COM DE PROD QUIMICOS LT                                        0000000034100000000000000000000000000000896979500000002462157550021611        201211012012100400000000055040000219267000000000224008000000000000000000000000004741050000000000  3020121112   01          2                                                                                   3112462157556064807961400019                                                  N                     01321  0000000        000100
12066841552000130R V SEG PATRIMONIAL LTDA                                              00000000341000000000000000000000000000008852483200000090002192721927          201209102012081000000000054520000483241000000000493384000000000000000000000000010143050000000000  3020121112   01          2                                                                                   3109000219270001835253400099                                                  N                     01321  0000000        000101
12066841552000130R V SEG PATRIMONIAL S C LTDA                                          00000000341000000000000000000000000000008887329800000090002213622136          201210102012091100000000054820000374758000000000378883000000000000000000000000004125050000000000  3020121112   01          2                                                                                   3109000221365001838994000069                                                  N                     01321  0000000        000102
12066970229000167NEXTEL TELECOMUNICACOES LTDA                                          0000000023702374400000001596233 0000000088957855009000015144847215472 3       201210102012062100000000054820000011636000000000011868000000000000000000000000000232050000000000  3020121011   06          3  R GANGES  520 VILA CARRAO BR                                                     3                         000000000000000                                     N                     00598  0000000        000103
12069284248000128ISOCOAT TINTAS E VERNIZES LTDA                                        0000000034100000000000000000000000000000841061040000002182507930052085        201209172012070200000000054590000236130000000000271410000000000000000000000000035280050000000000  3020121112   01          2                                                                                   3112182507932077430121200019                                                  N                     01321  0000000        000104
12096500087000135WORKBENCH CONSULTORIA S S LTDA                                        0000000034100000000000000000000000000000878205840000007940034283118           201209272012090300000000054690000131746000000000143660000000000000000000000000011914050000000000  3020121112   01          2                                                                                   3157940034289826313803700089                                                  N                     01321  0000000        000105
900010600000000042671389                                                                                                                                                                                                                                                                                                                                                                                                                                                                01321  0000000        000106
