0000147602043799295000110ALTAMIRA IND METALURGICA LTDA           20100493000002012091011432400000        2    230A                                                                                          000000000000000                                                                                                                                                                                                                                                                                   000001
12043799295000110ALTAMIRA INDUSTRIA METAL LTDA RUA  GANGES  528                        0344503003303809500000130004071 I000000000009790000000000000000               201209100000000000000000000000000000000000000001600000000000000000000000000000000000050000000001  0820120910   01HA        0001200                                                                             3D0000000101                             0001                                 S                     00000  0020256        000002
12000867888000164TECNEQUIP TECNOLOGIA EQUIP LTDRUA  GANGES                             0344503003303809500000130003245 I000000000009791000000000000000               201209100000000000000000000000000000000000000001200000000000000000000000000000000000050000000002  0820120910   01HA        0001200                                                                             3C0000000101                             0002                                 N                     00000  0020256        000003
12000867888000164TECNEQUIP TECNOLOGIA EQUIP LTDRUA  GANGES                             0344503034100452 00000000749849 I000000000009792000000000000000               201209100000000000000000000000000000000000000000400000000000000000000000000000000000050000000003  0820120910   01HA        0001200                                                                             3C0000000101                             0003                                 N                     00000  0020256        000004
12013529495000192MAXMIRA CONTROLE E ADM LTDA   RUA  JUNO  533                          0344500034100467 00000000012340 I000000000009793000000000000000               201209100000000000000000000000000000000000000001100000000000000000000000000000000000050000000004  0820120910   01HA        0001200                                                                             3C0000000101                             0004                                 N                     00000  0020256        000005
900000600000000004300000                                                                                                                                                                                    000000000000000                                                                                                                                                                                                                                                    00000400000000000000000        000006
