0000147602043799295000110ALTAMIRA INDUSTRIA METALURGICA LT       202000000438120130110213600             3                                                                                                  000000000000000                                                                                                                                                                                                                                                                                   000001
12011355403000170PLATA S A SECURITIZADORA                                              0000000023703708700000000155578 000000009314552200202338000000114990          201301102012112800000000055740000020758000000000020758000000000000000000000000000000050000000000  3020130110   02BW        2000000               000000000000000      ANHEMBI IND. DE CAIXAS DE PAPELAO ONDULA 3                         043292101000196  14990                              N                     01079 10020256        000002
12009137729000189MULTI RECEBIVEIS II FUNDO DE I                                        0000000023703369300000000044253 000000009294901600902334000003514980 2        201301102012112700000000055740000103788000000000103788000000000000000000000000000000050000000000  3020130110   02BW        2000000               000000000000000      ANHEMBI INDUSTRIA DE CAIXAS DE PAPELAO O 3                         043292101000196  14980/02                           N                     01079 10020256        000003
12061174652000137METALURGICA SCHIOPPA LTDA                                             0000000023703392800000001071602 0000000093925352002023480000081125293 001     201301102012121000000000055740000075159000000000075159000000000000000000000000000000050000000000  3020130110   02BW        2000000               000000000000000                                               3                         000000000000000  125293/01                          N                     01079 10020256        000004
12001784706000154TRANSPORTES WARTHA LTDA                                               0000000023701775200000000260010 0000000093256023009023390000556SAO2689691     201301102012102920130110055740000027846000000000018000000000000009846000000000000000050000000000  3020130110   02BW        2000000               000000000000000                                               3                         000000000000000  CONHEC.268969                      N                     01079 10020256        000005
12035820448000136WHITE MARTINS GASES INDUSTRIAI                                        0000000023700026400000003937925 0000000094204978009023530000234423162 001     201301102012121800000000055740000081150000000000081150000000000000000000000000000000050000000000  3020130110   02BW        2000000               000000000000000                                               3                         000000000000000  023511                             N                     01079 10020256        000006
12066899790000105FABRICA ARTEF LATEX ESTRELA EP                                        00000000399000000000000000000000000000009265465300000000000000084124 001      201301102012112600000000055740000094500000000000094500000000000000000000000000000000050000000000  3020130110   02BW        2000000               000000000000000                                               3176455885251125027292500119               84124/01                           N                     01132 10020256        000007
12006066698000124NOVO REINO LOGISTICA E TRANSPO                                        000000000010000000000000000000000000000094562160000000461077000165985         201301102012122100000000055740000350008000000000350008000000000000000000000000000000050000000000  3020130110   02BW        2000000               000000000000000                                               3044344610771584001800001169               CONHEC.NRO.127219                  N                     01132 10020256        000008
12061217188000119TELAS METALICAS TELMETAL LTDA                                         0000000000100000000000000000000000000000931455090000000059910006073 3 3       201301102012113000000000055740000101141000000000101141000000000000000000000000000000050000000000  3020130110   02BW        2000000               000000000000000                                               3000000115031800000059911789               6073/03-03                         N                     01132 10020256        000009
12061217188000119TELAS METALICAS TELMETAL LTDA                                         0000000000100000000000000000000000000000931455120000000059880006072 3 3       201301102012113000000000055740000014285000000000014285000000000000000000000000000000050000000000  3020130110   02BW        2000000               000000000000000                                               3000000115031800000059881719               6072/03-03                         N                     01132 10020256        000010
12019964642000139INDUMYLL INDUSTRIA E COM LTDA                                         0000000000100000 0000000000000  I000000000010395000000000000000               201301100000000000000000055740000508254000000000508254000000000000000000000000000000010000144540  3120130110   02BW        5000000               000000000000000                                               3000000145167244318001781129               144540/01                          N                     01132 10020256        000011
12052168721000109SIND TRAB IND METAL MEC MOGI C                                        0000000010400000 0000000000000  I000000000010394000000000000000               201301100000000020130110055740000191400000000000174900000000000016500000000000000000050020089814  3120130110   02BW        5000000               000000000000000                                               3313345100020314212001947669               20089814                           N                     01132 10020256        000012
12071580302000124SANCHEPEL IND PAULISTA EMB L                                          0000000034100000000000000000000000000000941025970000002682588368366 01        201301102012121400000000055740000033738000000000033738000000000000000000000000000000050000000000  3020130110   02BW        2000000               000000000000000                                               3112682588366007855578600039               8366/01                            N                     01132 10020256        000013
12007988026000139POINTER DIST DE PROD ELET LTDA                                        0000000034100000000000000000000000000000940086880000002677801306157           201301102012121300000000055740000075528000000000075528000000000000000000000000000000050000000000  3020130110   02BW        2000000               000000000000000                                               3112677801303077084107000089               6157                               N                     01132 10020256        000014
12048218317000125RODOENG TRANSPORTES RODOVIARIO                                        00000000001000000000000000000000000000009456216100000050359600013599 1        201301102012122100000000055740000275000000000000275000000000000000000000000000000000050000000000  3020130110   02BW        2000000               000000000000000                                               3160305035961494000094531759               CONHEC.6400                        N                     01132 10020256        000015
12009080640000123SERVPAES LTDA ME                                                      000000001040000000000000000000000000000095151459000000000823600002759         201301102013010400000000055740000093750000000000093750000000000000000000000000000000050000000000  3020130110   02BW        2000000               000000000000000                                               3900000082310868700000040949               02759                              N                     01132 10020256        000016
900001700000000002019959                                                                                                                                                                                    000000000000000                                                                                                                                                                                                                                                    00001500836100002046305        000017
