0000147602043799295000110ALTAMIRA INDUSTRIA METALURGICA LT       202000000018520121211061208             1                                                                                                                                                                                                                                                                                                                                                                                                    000001
12001162151000109SUKIRA COMERCIO DE IMPORTACAO                                         000000000010000000000000000000000000000093637246000000405381000019504 AA      201301022012120700000000055660000031086000000000031086000000000000000000000000000000050000000000  3020130102   01FS        1                                                                                   3000000112481744304053811159                                                  N                     01321  0000000        000002
12001784706000154TRANSPORTES WARTHA LTDA                                               0000000023701775200000000260010 0000000093637254009023450000442SAO2738461     201212312012121000000000055640000089000000000000089000000000000000000000000000000000050000000000  3020121231   01FS        1  R  GANGES  528                                                                   3                         000000000000000                                     N                     00598  0000000        000003
12001895314000162COLETA INDUSTRIAL FIMAVAN LTDA                                        0000000034100000000000000000000000000000866992070000009002335349439           201208272012081700000000054380000123695000000000161043000000000000000000000000037348050000000000  3020121211   01          2                                                                                   3109002335346144604097200019                                                  N                     01321  0000000        000004
12003102481000134AB5 IND E COMERCIO LTDA EPP                                           0000000034100000000000000000000000000000909203330000009000042483169           201211202012102300000000055230000119250000000000123230000000000000000000000000004179050000000000  3020121210   06          3                                                                                   3109000042489003154755700039                                                  N                     01321  0000000        000005
12003489596000123BEND FLEX I COMERCIO LTDA                                             000000003410000000000000000000000000000088350832000000171879874608            201209122012082100000000054540000695250000000000818280000000000000000000000000123030050000000000  3020121211   01          2                                                                                   3191718798744157734445800069                                                  N                     01321  0000000        000006
12003489596000123BEND FLEX I COMERCIO LTDA                                             000000003410000000000000000000000000000088599899000000171434574613            201209172012081600000000054590000585000000000000682835000000000000000000000000097835050000000000  3020121211   01          2                                                                                   3191714345748157734445800019                                                  N                     01321  0000000        000007
12004643290000142FLEXTINTAS IND E COMERCIO LTDA                                        000000003410000000000000000000000000000093637228000000265763522NFF040037A     201302042012120600000000055990000076230000000000076230000000000000000000000000000000050000000000  3020130204   01FS        1                                                                                   3112657635226051356781800019                                                  N                     01321  0000000        000008
12005335228000156DINAMICA INF E TELECOM LTDA EP                                        0000000023703257300000000503215 0000000093637247009032570017949MO009309A      201212302012120600000000055630000020000000000000020000000000000000000000000000000000050000000000  3020121231   01FS        1  RUA JUNO  533                                                                    3                         000000000000000                                     N                     00598  0000000        000009
12005880850000145NEDERMAN BRASIL COM PROD EX LT                                        000000003410000000000000000000000000000086373178000000614350956002763 A       201209252012081400000000054670000289674000000000333564000000000000000000000000043890050000000000  3020121211   01          2                                                                                   3156143509568160829000100049                                                  N                     01321  0000000        000010
12006000195000156MBA MERCANTIL BRAS DE ACO LTDA                                        0000000034100000000000000000000000000000904173150000001667238300008870B03     201210092012071600000000054810000839951000000000944027000000000000000000000000104076050000000000  3020121211   01          2                                                                                   3191667238304064849251000039                                                  N                     01321  0000000        000011
12006000195000156MBA MERCANTIL BRAS DE ACO LTDA                                        0000000034100000000000000000000000000000885998980000001667238420008870B02     201209112012071600000000054530000839952000000000990284000000000000000000000000150332050000000000  3020121211   01          2                                                                                   3191667238429064849251000039                                                  N                     01321  0000000        000012
12006000195000156MBA MERCANTIL BRAS DE ACO LTDA                                        0000000034100000000000000000000000000000904173160000001667238280008876B03     201210122012071600000000054840000810320000000000905960000000000000000000000000095640050000000000  3020121211   01          2                                                                                   3191667238288064849251000079                                                  N                     01321  0000000        000013
12006000195000156MBA MERCANTIL BRAS DE ACO LTDA                                        0000000034100000000000000000000000000000904173170000001671394420008925B03     201210122012071700000000054840000719580000000000804480000000000000000000000000084900050000000000  3020121211   01          2                                                                                   3191671394424064849251000069                                                  N                     01321  0000000        000014
12006000195000156MBA MERCANTIL BRAS DE ACO LTDA                                        0000000034100000000000000000000000000000904173180000001671394430008926B03     201210122012071700000000054840000387716000000000433496000000000000000000000000045780050000000000  3020121211   01          2                                                                                   3191671394432064849251000079                                                  N                     01321  0000000        000015
12006000195000156MBA MERCANTIL BRAS DE ACO LTDA                                        0000000034100000000000000000000000000000906662670000001671394410008920B03     201210142012071700000000054860000576584000000000642356000000000000000000000000065772050000000000  3020121211   01          2                                                                                   3191671394416064849251000039                                                  N                     01321  0000000        000016
12006000195000156MBA MERCANTIL BRAS DE ACO LTDA                                        0000000034100000000000000000000000000000887698090000001671394550008925B02     201209142012071700000000054560000719581000000000844101000000000000000000000000124520050000000000  3020121211   01          2                                                                                   3191671394556064849251000089                                                  N                     01321  0000000        000017
12006000195000156MBA MERCANTIL BRAS DE ACO LTDA                                        0000000034100000000000000000000000000000887698100000001671394560008926B02     201209142012071700000000054560000387716000000000454860000000000000000000000000067144050000000000  3020121211   01          2                                                                                   3191671394564064849251000019                                                  N                     01321  0000000        000018
12006000195000156MBA MERCANTIL BRAS DE ACO LTDA                                        0000000034100000000000000000000000000000889578520000001671394540008920B02     201209162012071700000000054580000576585000000000674109000000000000000000000000097524050000000000  3020121211   01          2                                                                                   3191671394549064849251000099                                                  N                     01321  0000000        000019
12006000195000156M B A MERCANTIL BRASILEIRA DE                                         0000000023700118P00000002130599 00000000919321910020231800000160010234B01     201212062012110800000000055390000996082000000001004382000000000000000000000000008300050000000000  3020121211   01          2  RUA JUNO  533                                                                    3                         000000000000000                                     N                     00598  0000000        000020
12008272923000104P SANTOS ESQUADRARIAS METAL ME                                        0000000034100000000000000000000000000000915734100000006159682651954           201212052012110700000000055380000408138000000000422829000000000000000000000000014691050000000000  3020121211   01          2                                                                                   3156159682654160141951600029                                                  N                     01321  0000000        000021
12008272923000104P SANTOS ESQUADRARIAS METAL ME                                        0000000034100000000000000000000000000000896979550000006153947641850           201211222012100800000000055250000400000000000000428273000000000000000000000000028273050000000000  3020121211   01          2                                                                                   3156153947640160141951600039                                                  N                     01321  0000000        000022
12008879248000186FREFER METAL PLUS                                                     000000003410000000000000000000000000000093637217000000265732281EMO014110B     201301272012120500000000055910000637560000000000637560000000000000000000000000000000050000000000  3020130128   01FS        1                                                                                   3112657322817293811346700019                                                  N                     01321  0000000        000023
12008879248000186FREFER METAL PLUS                                                     000000003410000000000000000000000000000093637218000000265732282EMO014111A     201301022012120500000000055660000089813000000000089813000000000000000000000000000000050000000000  3020130102   01FS        1                                                                                   3112657322825293811346700079                                                  N                     01321  0000000        000024
12008879248000186FREFER METAL PLUS                                                     000000003410000000000000000000000000000093637219000000265732283EMO014111B     201301302012120500000000055940000089813000000000089813000000000000000000000000000000050000000000  3020130130   01FS        1                                                                                   3112657322833293811346700059                                                  N                     01321  0000000        000025
12008879248000186FREFER METAL PLUS                                                     000000003410000000000000000000000000000091833884000000256609812EMO013946A     201212052012110700000000055380000535589000000000539069000000000000000000000000004176050000000000  3020121210   06          3                                                                                   3112566098128293811346700089                                                  N                     01321  0000000        000026
12008879248000186FREFER METAL PLUS                                                     000000003410000000000000000000000000000093637221000000265732284EPR013366A     201301032012120600000000055670001076688000000001076688000000000000000000000000000000050000000000  3020130103   01FS        1                                                                                   3112657322841293811346700089                                                  N                     01321  0000000        000027
12008879248000186FREFER METAL PLUS                                                     000000003410000000000000000000000000000093637216000000265732280EMO014110A     201301022012120500000000055660000637560000000000637560000000000000000000000000000000050000000000  3020130102   01FS        1                                                                                   3112657322809293811346700099                                                  N                     01321  0000000        000028
12009007898000102ARTERINOX COM D TELAS METALICA                                        0000000023702741300000000246700 00000000936372510090112342017504284           201301062012120700000000055700000085434000000000085434000000000000000000000000000000050000000000  3020130107   01FS        1  RUA TAMAINDE 1410                                                                3                         000000000000000                                     N                     00598  0000000        000029
12009007898000102ARTERINOX COM D TELAS METALICA                                        0000000023702741300000000246700 00000000936372520090112342017514285           201301062012120700000000055700000071755000000000071755000000000000000000000000000000050000000000  3020130107   01FS        1  RUA TAMAINDE 1410                                                                3                         000000000000000                                     N                     00598  0000000        000030
12009007898000102ARTERINOX COM D TELAS METALICA                                        0000000023702741300000000246700 00000000936372530090112342017524286           201301062012120700000000055700000015929000000000015929000000000000000000000000000000050000000000  3020130107   01FS        1  RUA TAMAINDE 1410                                                                3                         000000000000000                                     N                     00598  0000000        000031
12009034654000291STEEL PRODUCTS DO BRASIL LTDA                                         0000000000100000000000000000000000000000914718920000005529190002470 2 3       201212082012110500000000055410000132000000000000135963000000000000000000000000003963050000000000  3020121211   01          2                                                                                   3000000221373244205529191149                                                  N                     01321  0000000        000032
12009338857000190FERNANDO  NAGAO  CARDONE  ALVA                                        000000000330000000000000000000000000000091653176000000300000000ALTA 11 2012   201211202012103000000000055230000134632000000000144462000000000000000000000000009830050000000000  3020121211   01          2                                                                                   3947901700000051051630010119                                                  N                     01321  0000000        000033
12009338857000190FERNANDO  NAGAO  CARDONE  ALVA                                        000000000330000000000000000000000000000089697936000000800000000ALTA 10 2012   201210202012092500000000054920000134632000000000156986000000000000000000000000022354050000000000  3020121211   01          2                                                                                   3947901700000051050080010129                                                  N                     01321  0000000        000034
12009425428000150MARIA DA GLORIA SILVA ELOI ME                                         00000000341000000000000000000000000000009363724800000070781085912097          201212182012120800000000055510000007634000000000007634000000000000000000000000000000050000000000  3020121218   01FS        1                                                                                   3157078108590100047432800089                                                  N                     01321  0000000        000035
12012006058000121WEG TINTAS LTDA                                                       0000000023702727800000000001309 00000000878206060090225400000800016517203     201211202012090600000000055230000459992000000000472865000000000000000000000000012873050000000000  3020121211   01          2  R JUNO  533                                                                      3                         000000000000000                                     N                     00598  0000000        000036
12012006058000121WEG TINTAS LTDA                                                       0000000023702727800000000001309 00000000872318670090224700001050016359603     201211142012083100000000055170000459992000000000476543000000000000000000000000016551050000000000  3020121211   01          2  R JUNO  533                                                                      3                         000000000000000                                     N                     00598  0000000        000037
12012006058000121WEG TINTAS LTDA                                                       0000000023702727800000000001309 00000000882668420090225800000750016626902     201211122012091300000000055150000459854000000000477631000000000000000000000000017777050000000000  3020121211   01          2  R JUNO  533                                                                      3                         000000000000000                                     N                     00598  0000000        000038
12012006058000121WEG TINTAS LTDA                                                       0000000023702727800000000001309 00000000882668430090225800000760016626903     201211272012091300000000055300000459992000000000468574000000000000000000000000008582050000000000  3020121211   01          2  R JUNO  533                                                                      3                         000000000000000                                     N                     00598  0000000        000039
12013341816000120REAL TRANSPORTES URGENTES LTDA                                        0000000010400000000000000000000000000000936372050000000000464002363           201212212012120700000000055540000042000000000000042000000000000000000000000000000000050000000000  3020121221   01FS        1                                                                                   3900000004641598700000021449                                                  N                     01321  0000000        000040
12035820448000136WHITE MARTINS GASES INDUSTRIAI                                        0000000023700026400000003937925 0000000093637249009023450000276418202 001     201301042012120800000000055680000056805000000000056805000000000000000000000000000000050000000000  3020130104   01FS        1  RUA GANGES  528                                                                  3                         000000000000000                                     N                     00598  0000000        000041
12042956441000101SOLUCOES ACO USIMINAS                                                 0000000034100000000000000000000000000000936372290000002660111310019347501     201301032012120600000000055670000194499000000000194499000000000000000000000000000000050000000000  3020130103   01FS        1                                                                                   3112660111314293807258000069                                                  N                     01321  0000000        000042
12042956441000101SOLUCOES ACO USIMINAS                                                 0000000034100000000000000000000000000000936372300000002660111320019348001     201301032012120600000000055670000950927000000000950927000000000000000000000000000000050000000000  3020130103   01FS        1                                                                                   3112660111322293807258000099                                                  N                     01321  0000000        000043
12042956441000101SOLUCOES ACO USIMINAS                                                 0000000034100000000000000000000000000000936372250000002660111340019355501     201301032012120600000000055670000324809000000000324809000000000000000000000000000000050000000000  3020130103   01FS        1                                                                                   3112660111348293807258000039                                                  N                     01321  0000000        000044
12042956441000101SOLUCOES ACO USIMINAS                                                 0000000034100000000000000000000000000000936372340000002660111390019356001     201301032012120600000000055670000248068000000000248068000000000000000000000000000000050000000000  3020130103   01FS        1                                                                                   3112660111397293807258000039                                                  N                     01321  0000000        000045
12042956441000101SOLUCOES ACO USIMINAS                                                 0000000034100000000000000000000000000000936372350000002660111350019355601     201301032012120600000000055670000169112000000000169112000000000000000000000000000000050000000000  3020130103   01FS        1                                                                                   3112660111355293807258000049                                                  N                     01321  0000000        000046
12042956441000101SOLUCOES ACO USIMINAS                                                 0000000034100000000000000000000000000000936372360000002660111400019347402     201301312012120600000000055950000971783000000000971783000000000000000000000000000000050000000000  3020130131   01FS        1                                                                                   3112660111405293807258000099                                                  N                     01321  0000000        000047
12042956441000101SOLUCOES ACO USIMINAS                                                 0000000034100000000000000000000000000000936372370000002660111410019347502     201301312012120600000000055950000194441000000000194441000000000000000000000000000000050000000000  3020130131   01FS        1                                                                                   3112660111413293807258000079                                                  N                     01321  0000000        000048
12042956441000101SOLUCOES ACO USIMINAS                                                 0000000034100000000000000000000000000000936372380000002660111360019355701     201301032012120600000000055670000635853000000000635853000000000000000000000000000000050000000000  3020130103   01FS        1                                                                                   3112660111363293807258000059                                                  N                     01321  0000000        000049
12042956441000101SOLUCOES ACO USIMINAS                                                 0000000034100000000000000000000000000000936372390000002660111420019348002     201301312012120600000000055950000950642000000000950642000000000000000000000000000000050000000000  3020130131   01FS        1                                                                                   3112660111421293807258000019                                                  N                     01321  0000000        000050
12042956441000101SOLUCOES ACO USIMINAS                                                 0000000034100000000000000000000000000000936372400000002660111370019355801     201301032012120600000000055670000651830000000000651830000000000000000000000000000000050000000000  3020130103   01FS        1                                                                                   3112660111371293807258000059                                                  N                     01321  0000000        000051
12042956441000101SOLUCOES ACO USIMINAS                                                 0000000034100000000000000000000000000000936372410000002660111430019348202     201301312012120600000000055950000152865000000000152865000000000000000000000000000000050000000000  3020130131   01FS        1                                                                                   3112660111439293807258000049                                                  N                     01321  0000000        000052
12042956441000101SOLUCOES ACO USIMINAS                                                 0000000034100000000000000000000000000000936372420000002660111380019355901     201301032012120600000000055670000293625000000000293625000000000000000000000000000000050000000000  3020130103   01FS        1                                                                                   3112660111389293807258000099                                                  N                     01321  0000000        000053
12042956441000101SOLUCOES ACO USIMINAS                                                 0000000034100000000000000000000000000000936372430000002660111440019355502     201301312012120600000000055950000324712000000000324712000000000000000000000000000000050000000000  3020130131   01FS        1                                                                                   3112660111447293807258000049                                                  N                     01321  0000000        000054
12042956441000101SOLUCOES ACO USIMINAS                                                 0000000034100000000000000000000000000000936372440000002660111450019355602     201301312012120600000000055950000169061000000000169061000000000000000000000000000000050000000000  3020130131   01FS        1                                                                                   3112660111454293807258000049                                                  N                     01321  0000000        000055
12042956441000101SOLUCOES ACO USIMINAS                                                 0000000034100000000000000000000000000000936372450000002660111460019355702     201301312012120600000000055950000635662000000000635662000000000000000000000000000000050000000000  3020130131   01FS        1                                                                                   3112660111462293807258000049                                                  N                     01321  0000000        000056
12042956441000101SOLUCOES ACO USIMINAS                                                 0000000034100000000000000000000000000000936372270000002660111300019347401     201301032012120600000000055670000972074000000000972074000000000000000000000000000000050000000000  3020130103   01FS        1                                                                                   3112660111306293807258000059                                                  N                     01321  0000000        000057
12042956441000101SOLUCOES ACO USIMINAS                                                 0000000034100000000000000000000000000000936372320000002660111330019348201     201301032012120600000000055670000152911000000000152911000000000000000000000000000000050000000000  3020130103   01FS        1                                                                                   3112660111330293807258000019                                                  N                     01321  0000000        000058
12042956441000101SOLUCOES ACO USIMINAS                                                 0000000034100000000000000000000000000000936372060000002660111520019348003     201302282012120600000000056230000950643000000000950643000000000000000000000000000000050000000000  3020130228   01FS        1                                                                                   3112660111520293807258000069                                                  N                     01321  0000000        000059
12042956441000101SOLUCOES ACO USIMINAS                                                 0000000034100000000000000000000000000000936372070000002660111470019355802     201301312012120600000000055950000651635000000000651635000000000000000000000000000000050000000000  3020130131   01FS        1                                                                                   3112660111470293807258000019                                                  N                     01321  0000000        000060
12042956441000101SOLUCOES ACO USIMINAS                                                 0000000034100000000000000000000000000000936372080000002660111530019348203     201302282012120600000000056230000152864000000000152864000000000000000000000000000000050000000000  3020130228   01FS        1                                                                                   3112660111538293807258000069                                                  N                     01321  0000000        000061
12042956441000101SOLUCOES ACO USIMINAS                                                 0000000034100000000000000000000000000000936372090000002660111540019355503     201302282012120600000000056230000324711000000000324711000000000000000000000000000000050000000000  3020130228   01FS        1                                                                                   3112660111546293807258000069                                                  N                     01321  0000000        000062
12042956441000101SOLUCOES ACO USIMINAS                                                 0000000034100000000000000000000000000000936372100000002660111480019355902     201301312012120600000000055950000293537000000000293537000000000000000000000000000000050000000000  3020130131   01FS        1                                                                                   3112660111488293807258000059                                                  N                     01321  0000000        000063
12042956441000101SOLUCOES ACO USIMINAS                                                 0000000034100000000000000000000000000000936372110000002660111550019355603     201302282012120600000000056230000169061000000000169061000000000000000000000000000000050000000000  3020130228   01FS        1                                                                                   3112660111553293807258000039                                                  N                     01321  0000000        000064
12042956441000101SOLUCOES ACO USIMINAS                                                 0000000034100000000000000000000000000000936372120000002660111490019356002     201301312012120600000000055950000247994000000000247994000000000000000000000000000000050000000000  3020130131   01FS        1                                                                                   3112660111496293807258000099                                                  N                     01321  0000000        000065
12042956441000101SOLUCOES ACO USIMINAS                                                 0000000034100000000000000000000000000000936372130000002660111500019347403     201302282012120600000000056230000971783000000000971783000000000000000000000000000000050000000000  3020130228   01FS        1                                                                                   3112660111504293807258000089                                                  N                     01321  0000000        000066
12042956441000101SOLUCOES ACO USIMINAS                                                 0000000034100000000000000000000000000000936372140000002660111510019347503     201302282012120600000000056230000194440000000000194440000000000000000000000000000000050000000000  3020130228   01FS        1                                                                                   3112660111512293807258000099                                                  N                     01321  0000000        000067
12042956441000101SOLUCOES ACO USIMINAS                                                 0000000034100000000000000000000000000000936372150000002660111590019356003     201302282012120600000000056230000247993000000000247993000000000000000000000000000000050000000000  3020130228   01FS        1                                                                                   3112660111595293807258000019                                                  N                     01321  0000000        000068
12042956441000101SOLUCOES ACO USIMINAS                                                 0000000034100000000000000000000000000000936372200000002660111560019355703     201302282012120600000000056230000635663000000000635663000000000000000000000000000000050000000000  3020130228   01FS        1                                                                                   3112660111561293807258000019                                                  N                     01321  0000000        000069
12042956441000101SOLUCOES ACO USIMINAS                                                 0000000034100000000000000000000000000000936372220000002660111570019355803     201302282012120600000000056230000651635000000000651635000000000000000000000000000000050000000000  3020130228   01FS        1                                                                                   3112660111579293807258000079                                                  N                     01321  0000000        000070
12042956441000101SOLUCOES ACO USIMINAS                                                 0000000034100000000000000000000000000000936372230000002660111580019355903     201302282012120600000000056230000293536000000000293536000000000000000000000000000000050000000000  3020130228   01FS        1                                                                                   3112660111587293807258000079                                                  N                     01321  0000000        000071
12042956441000101SOLUCOES ACO USIMINAS                                                 0000000034100000000000000000000000000000859590620000002274469790017353702     201209282012080300000000054700000081053000000000093041000000000000000000000000011988050000000000  3020121211   01          2                                                                                   3112274469793293807258000069                                                  N                     01321  0000000        000072
12042956441000101SOLUCOES ACO USIMINAS                                                 0000000034100000000000000000000000000000846595700000002210880280016980502     201209102012071200000000054520000156071000000000184775000000000000000000000000028704050000000000  3020121211   01          2                                                                                   3112210880285293807258000039                                                  N                     01321  0000000        000073
12042956441000101SOLUCOES ACO USIMINAS                                                 0000000034100000000000000000000000000000846595710000002210880290016980602     201209102012071200000000054520000426094000000000504478000000000000000000000000078384050000000000  3020121211   01          2                                                                                   3112210880293293807258000019                                                  N                     01321  0000000        000074
12042956441000101SOLUCOES ACO USIMINAS                                                 0000000034100000000000000000000000000000847452070000002216130350005922202     201209102012071600000000054520000172071000000000203719000000000000000000000000031648050000000000  3020121211   01          2                                                                                   3112216130354293807258000049                                                  N                     01321  0000000        000075
12042956441000101SOLUCOES ACO USIMINAS                                                 0000000034100000000000000000000000000000847452100000002216130340017012402     201209102012071500000000054520000147428000000000174568000000000000000000000000027140050000000000  3020121211   01          2                                                                                   3112216130347293807258000059                                                  N                     01321  0000000        000076
12042956441000101SOLUCOES ACO USIMINAS                                                 0000000034100000000000000000000000000000848180700000002220192900017041002     201209112012071700000000054530000155433000000000183734000000000000000000000000028301050000000000  3020121211   01          2                                                                                   3112220192903293807258000029                                                  N                     01321  0000000        000077
12042956441000101SOLUCOES ACO USIMINAS                                                 0000000034100000000000000000000000000000848180710000002220192910017041202     201209112012071700000000054530000205421000000000242822000000000000000000000000037401050000000000  3020121211   01          2                                                                                   3112220192911293807258000019                                                  N                     01321  0000000        000078
12042956441000101SOLUCOES ACO USIMINAS                                                 0000000034100000000000000000000000000000850740460000002233586800017127201     201208202012072000000000054310000137881000000000169069000000000000000000000000031188050000000000  3020121211   01          2                                                                                   3112233586802293807258000019                                                  N                     01321  0000000        000079
12042956441000101SOLUCOES ACO USIMINAS                                                 0000000034100000000000000000000000000000850740470000002233586810017101002     201209142012071900000000054560000732575000000000861495000000000000000000000000128920050000000000  3020121211   01          2                                                                                   3112233586810293807258000019                                                  N                     01321  0000000        000080
12042956441000101SOLUCOES ACO USIMINAS                                                 0000000034100000000000000000000000000000850740480000002233586820017101202     201209142012071900000000054560000144634000000000170066000000000000000000000000025432050000000000  3020121211   01          2                                                                                   3112233586828293807258000029                                                  N                     01321  0000000        000081
12042956441000101SOLUCOES ACO USIMINAS                                                 0000000034100000000000000000000000000000853154840000002246247030017196702     201209202012072500000000054620000234841000000000273381000000000000000000000000038540050000000000  3020121211   01          2                                                                                   3112246247038293807258000099                                                  N                     01321  0000000        000082
12042956441000101SOLUCOES ACO USIMINAS                                                 0000000034100000000000000000000000000000853154850000002246247040017197302     201209202012072500000000054620000970103000000001129183000000000000000000000000159080050000000000  3020121211   01          2                                                                                   3112246247046293807258000019                                                  N                     01321  0000000        000083
12042956441000101SOLUCOES ACO USIMINAS                                                 0000000034100000000000000000000000000000855028690000002254329380017212902     201209212012072600000000054630000140098000000000162778000000000000000000000000022680050000000000  3020121211   01          2                                                                                   3112254329389293807258000019                                                  N                     01321  0000000        000084
12042956441000101SOLUCOES ACO USIMINAS                                                 0000000034100000000000000000000000000000855028700000002254329390017213002     201209212012072600000000054630000140602000000000163363000000000000000000000000022761050000000000  3020121211   01          2                                                                                   3112254329397293807258000089                                                  N                     01321  0000000        000085
12042956441000101SOLUCOES ACO USIMINAS                                                 0000000034100000000000000000000000000000855028770000002254329400017220502     201209212012072700000000054630000981022000000001139944000000000000000000000000158922050000000000  3020121211   01          2                                                                                   3112254329405293807258000099                                                  N                     01321  0000000        000086
12042956441000101SOLUCOES ACO USIMINAS                                                 0000000034100000000000000000000000000000856906410000002262886280017266201     201208282012073000000000054390000119472000000000144567000000000000000000000000025095050000000000  3020121211   01          2                                                                                   3112262886289293807258000089                                                  N                     01321  0000000        000087
12042956441000101SOLUCOES ACO USIMINAS                                                 0000000034100000000000000000000000000000856906420000002262886290017266301     201208282012073000000000054390000145069000000000175519000000000000000000000000030450050000000000  3020121211   01          2                                                                                   3112262886297293807258000099                                                  N                     01321  0000000        000088
12042956441000101SOLUCOES ACO USIMINAS                                                 0000000034100000000000000000000000000000919321800000002573134230018909701     201212072012110900000000055400000994927000000000994927000000000000000000000000000000050000000000  3020121207   06          3                                                                                   3112573134239293807258000079                                                  N                     01321  0000000        000089
12047190731000100DE CASTRO LOUR ENG IND LTDA                                           00000000341000000000000000000000000000008782051300000023399953903026613 0     201211202012082100000000055230001107989000000001151569000000000000000000000000045759050000000000  3020121210   06          3                                                                                   3112339995394036884500400019                                                  N                     01321  0000000        000090
12047190731000100DE CASTRO LOUR ENG IND LTDA                                           00000000341000000000000000000000000000008782051500000023399953603026612 0     201211202012082100000000055230001111489000000001155209000000000000000000000000045906050000000000  3020121210   06          3                                                                                   3112339995360036884500400079                                                  N                     01321  0000000        000091
12047190731000100DE CASTRO LOUR ENG IND LTDA                                           00000000341000000000000000000000000000008782050900000023399953503026612 0     201209182012082100000000054600001111489000000001295113000000000000000000000000183624050000000000  3020121211   01          2                                                                                   3112339995352036884500400019                                                  N                     01321  0000000        000092
12047190731000100DE CASTRO LOUR ENG IND LTDA                                           00000000341000000000000000000000000000008996247900000024766209203027184 0     201211302012100500000000055330001153047000000001177995000000000000000000000000024948050000000000  3020121211   01          2                                                                                   3112476620920036884500400089                                                  N                     01321  0000000        000093
12047190731000100DE CASTRO LOUR ENG IND LTDA                                           00000000341000000000000000000000000000008782051200000023399953803026613 0     201209182012082100000000054600001107989000000001291025000000000000000000000000183036050000000000  3020121211   01          2                                                                                   3112339995386036884500400039                                                  N                     01321  0000000        000094
12047190731000100DE CASTRO LOUR ENG IND LTDA                                           00000000341000000000000000000000000000008782051600000023399954103026614 0     201209182012082100000000054600001047621000000001220661000000000000000000000000173040050000000000  3020121211   01          2                                                                                   3112339995410036884500400039                                                  N                     01321  0000000        000095
12047190731000100DE CASTRO LOUR ENG IND LTDA                                           00000000341000000000000000000000000000008782051700000023399954203026614 0     201211202012082100000000055230001047621000000001090881000000000000000000000000043260050000000000  3020121211   01          2                                                                                   3112339995428036884500400079                                                  N                     01321  0000000        000096
12047190731000100DE CASTRO LOUR ENG IND LTDA                                           00000000341000000000000000000000000000008782051800000023399955703026636 0     201211212012082200000000055240000940804000000000977804000000000000000000000000037000050000000000  3020121211   01          2                                                                                   3112339995576036884500400019                                                  N                     01321  0000000        000097
12047190731000100DE CASTRO LOUR ENG IND LTDA                                           00000000341000000000000000000000000000008782052000000023399955303026632 0     201209192012082200000000054610000952073000000001107449000000000000000000000000155376050000000000  3020121211   01          2                                                                                   3112339995535036884500400019                                                  N                     01321  0000000        000098
12047190731000100DE CASTRO LOUR ENG IND LTDA                                           00000000341000000000000000000000000000008782052100000023399955903026643 0     201209202012082300000000054620000867039000000001006849000000000000000000000000139810050000000000  3020121211   01          2                                                                                   3112339995592036884500400049                                                  N                     01321  0000000        000099
12047190731000100DE CASTRO LOUR ENG IND LTDA                                           00000000341000000000000000000000000000008782052400000023399956003026643 0     201211222012082300000000055250000867039000000000899434000000000000000000000000032395050000000000  3020121211   01          2                                                                                   3112339995600036884500400069                                                  N                     01321  0000000        000100
12047190731000100DE CASTRO LOUR ENG IND LTDA                                           00000000341000000000000000000000000000008782052500000023399955603026636 0     201209192012082200000000054610000940804000000001094354000000000000000000000000153550050000000000  3020121211   01          2                                                                                   3112339995568036884500400049                                                  N                     01321  0000000        000101
12047190731000100DE CASTRO LOUR ENG IND LTDA                                           00000000341000000000000000000000000000008782052700000023399956203026648 0     201209202012082300000000054620000976053000000001133493000000000000000000000000157440050000000000  3020121211   01          2                                                                                   3112339995626036884500400029                                                  N                     01321  0000000        000102
12047190731000100DE CASTRO LOUR ENG IND LTDA                                           00000000341000000000000000000000000000008782052800000023399956303026648 0     201211222012082300000000055250000976053000000001012533000000000000000000000000036480050000000000  3020121211   01          2                                                                                   3112339995634036884500400019                                                  N                     01321  0000000        000103
12047190731000100DE CASTRO LOUR ENG IND LTDA                                           00000000341000000000000000000000000000008782059400000023602715303026745 0     201211282012082900000000055310000903175000000000926263000000000000000000000000023088050000000000  3020121211   01          2                                                                                   3112360271533036884500400039                                                  N                     01321  0000000        000104
12047190731000100DE CASTRO LOUR ENG IND LTDA                                           00000000341000000000000000000000000000008782059500000023602714703026734 0     201211272012082800000000055300000997834000000001025302000000000000000000000000027468050000000000  3020121211   01          2                                                                                   3112360271475036884500400019                                                  N                     01321  0000000        000105
12047190731000100DE CASTRO LOUR ENG IND LTDA                                           00000000341000000000000000000000000000008782059900000023602715003026744 0     201211292012082900000000055320000146594000000000150050000000000000000000000000003456050000000000  3020121211   01          2                                                                                   3112360271509036884500400069                                                  N                     01321  0000000        000106
12047190731000100DE CASTRO LOUR ENG IND LTDA                                           00000000341000000000000000000000000000009041732900000025008464603027216 0     201212052012101000000000055380000225377000000000228035000000000000000000000000002658050000000000  3020121211   01          2                                                                                   3112500846467036884500400029                                                  N                     01321  0000000        000107
12047190731000100DE CASTRO LOUR ENG IND LTDA                                           00000000341000000000000000000000000000009041733100000025008464903027234 0     201212062012101100000000055390001029597000000001039722000000000000000000000000010125050000000000  3020121211   01          2                                                                                   3112500846491036884500400029                                                  N                     01321  0000000        000108
12047190731000100DE CASTRO LOUREIRO ENGENHARIA                                         0000000023703394400000000205508 000000008801225500202255000001403026794 0     201211262012090300000000055290001209490000000001239730000000000000000000000000030240050000000000  3020121211   01          2  RUA JUNO  533                                                                    3                         000000000000000                                     N                     00598  0000000        000109
12048775225000146SEIKI IND COM E CONFECCOES LTD                                        000000003410000000000000000000000000000089337376000000244697151014914001      201210232012092500000000054950000052000000000000055822000000000000000000000000003822050000000000  3020121211   01          2                                                                                   3112446971510017444824100089                                                  N                     01321  0000000        000110
12051180370000199IGUAFER FERRO E ACO LTDA                                              0000000034100000000000000000000000000000852309100000002239389789443 B         201209022012071800000000054440000168275000000000196275000000000000000000000000028000050000000000  3020121211   01          2                                                                                   3112239389789077149484600089                                                  N                     01321  0000000        000111
12051180370000199IGUAFER FERRO E ACO LTDA                                              0000000034100000000000000000000000000000852309110000002239389799443 C         201209122012071800000000054540000168275000000000193475000000000000000000000000025200050000000000  3020121211   01          2                                                                                   3112239389797077149484600089                                                  N                     01321  0000000        000112
12053585766000141MULTIACOS I C PRODS TEC LTDA                                          0000000042200000000000000000000000000000895189670000000000000000004750003     201212062012100200000000055390000222869000000000224723000000000000000000000000001854050000000000  3020121211   01          2                                                                                   3711500005033164927762137189                                                  N                     01321  0000000        000113
12053585766000141MULTIACOS I C PRODS TEC LTDA                                          0000000042200000000000000000000000000000895189350000000000000000004737203     201212042012100200000000055370000362578000000000366805000000000000000000000000004227050000000000  3020121211   01          2                                                                                   3711500005033164927761793149                                                  N                     01321  0000000        000114
12053585766000141MULTIACOS I C PRODS TEC LTDA                                          0000000042200000000000000000000000000000890456960000000000000000004724103     201212042012092500000000055370000127900000000000129390000000000000000000000000001490050000000000  3020121211   01          2                                                                                   3711500005033164925775142129                                                  N                     01321  0000000        000115
12054382510000108SETENTA IND E COM DE MADEIRAS                                         0000000034100000000000000000000000000000860403430000002277814474462 A         201209042012080700000000054460000191200000000000228048000000000000000000000000036848050000000000  3020121211   01          2                                                                                   3112277814474057049175300069                                                  N                     01321  0000000        000116
12056993512000150CYKLOP DO BRASIL EMBALAGENS SA                                        0000000034100000000000000000000000000000874070500000002362586810134932        201210012012090300000000054730000083607000000000105404000000000000000000000000021797050000000000  3020121211   01          2                                                                                   3112362586813025700015800019                                                  N                     01321  0000000        000117
12057764763000207DEGRAUS ANDAIMES MAQUINAS EQUI                                        000000000330000000000000000000000000000091358511000000600000000000000F979785 A201211262012110500000000055290000095000000000000095000000000000000000000000000000000050000000000  3020121126   05          3                                                                                   3954093060000000005460010449                                                  N                     01321  0000000        000118
12059659615000177DZ COMERCIO R E SERVICOS LTDA                                         000000003410000000000000000000000000000091358507000000900000321280            201211172012102400000000055200000060000000000000062880000000000000000000000000002880050000000000  3020121211   01          2                                                                                   3109000003217000314585100039                                                  N                     01321  0000000        000119
12061475927000172NIQ CROM BRILHANTE LTDA                                               0000000034100000000000000000000000000000936372240000002657580125559           201301032012120700000000055670000108971000000000108971000000000000000000000000000000050000000000  3020130103   01FS        1                                                                                   3112657580125046770270000039                                                  N                     01321  0000000        000120
12062510367000102ITANHAEM TRANSP DE MAQUINAS LT                                        000000003410000000000000000000000000000087407049000000236463199667            201209202012090400000000054620000248220000000000329646000000000000000000000000081426050000000000  3020121211   01          2                                                                                   3112364631997005770252400049                                                  N                     01321  0000000        000121
12062539994000176LEALFER INDUSTRIA E COMERCIO D                                        0000000003300000000000000000000000000000919321990000005700000000005818801     201212102012110900000000055430000327558000000000328114000000000000000000000000000556050000000000  3020121211   01          2                                                                                   3915298380000000289957010429                                                  N                     01321  0000000        000122
12062539994000176LEALFER INDUSTRIA E COMERCIO D                                        0000000003300000000000000000000000000000884432800000003600000000005502003     201212072012091300000000055400000839516000000000845224000000000000000000000000005708050000000000  3020121211   01          2                                                                                   3915298380000000266736010439                                                  N                     01321  0000000        000123
12062539994000176LEALFER IN E COM DE ACO LTDA                                          0000000034100000000000000000000000000000906662620000002514604760005682601     201211282012101600000000055310001940443000000001940443000000000000000000000000000000050000000000  3020121128   06          3                                                                                   3112514604761076103324000019                                                  N                     01321  0000000        000124
12063975346000125BAY FOMENTO COML LTDA                                                 0000000042200000000000000000000000000000917413970000000000000005456001        201212072012110700000000055400000040824000000000040824000000000000000000000000000000050000000000  3020121207   06          3                                                                                   3701800002030016938324705119                                                  N                     01321  0000000        000125
12064952757000168WALMAC COM DE PROD QUIMICOS LT                                        0000000034100000000000000000000000000000860403450000002275821700020148        201210052012080300000000054770000219267000000000248144000000000000000000000000028877050000000000  3020121211   01          2                                                                                   3112275821703064807961400029                                                  N                     01321  0000000        000126
12064952757000168WALMAC COM DE PROD QUIMICOS LT                                        0000000034100000000000000000000000000000896979510000002462157570021611        201211292012100400000000055320000219267000000000224439000000000000000000000000005172050000000000  3020121211   01          2                                                                                   3112462157572064807961400059                                                  N                     01321  0000000        000127
12066841552000130R V SEG PATRIMONIAL LTDA                                              00000000341000000000000000000000000000008852483200000090002192721927          201209102012081000000000054520000483241000000000498053000000000000000000000000014812050000000000  3020121211   01          2                                                                                   3109000219270001835253400099                                                  N                     01321  0000000        000128
12066841552000130R V SEG PATRIMONIAL S C LTDA                                          00000000341000000000000000000000000000008887329800000090002213622136          201210102012091100000000054820000374758000000000382508000000000000000000000000007750050000000000  3020121211   01          2                                                                                   3109000221365001838994000069                                                  N                     01321  0000000        000129
12066841552000130RV SEGURANCA PATRIMONIAL SC LT                                        0000000023700122800000001495011 000000009203848400900000002253822538          201212102012110800000000055430000374758000000000382378000000000000000000000000007620050000000000  3020121211   01          2  RUA TAMAINDE  1410                                                               3                         000000000000000                                     N                     00598  0000000        000130
12069284248000128ISOCOAT TINTAS E VERNIZES LTDA                                        0000000034100000000000000000000000000000936372330000002656341450059108        201302042012120600000000055990000317968000000000317968000000000000000000000000000000050000000000  3020130204   01FS        1                                                                                   3112656341453077430121200079                                                  N                     01321  0000000        000131
12069284248000128ISOCOAT TINTAS E VERNIZES LTDA                                        0000000034100000000000000000000000000000936372260000002656341460059108        201302192012120600000000056140000318064000000000318064000000000000000000000000000000050000000000  3020130219   01FS        1                                                                                   3112656341461077430121200099                                                  N                     01321  0000000        000132
12069284248000128ISOCOAT TINTAS E VERNIZES LTDA                                        0000000034100000000000000000000000000000936372310000002656341440059108        201301202012120600000000055840000365668000000000365668000000000000000000000000000000050000000000  3020130121   01FS        1                                                                                   3112656341446077430121200069                                                  N                     01321  0000000        000133
12069284248000128ISOCOAT TINTAS E VERNIZES LTDA                                        0000000034100000000000000000000000000000841061040000002182507930052085        201209172012070200000000054590000236130000000000289680000000000000000000000000053550050000000000  3020121211   01          2                                                                                   3112182507932077430121200019                                                  N                     01321  0000000        000134
12071154462000292POWER EXPRESS LOGISTICA E TRAN                                        0000000023703417700000000103896 00000000936372550090000000077470000342033     201212312012121000000000055640000013180000000000013180000000000000000000000000000000050000000000  3020121231   01FS        1  RUA  JUNO 533                                                                    3                         000000000000000                                     N                     00598  0000000        000135
12081560047000101ACEVILLE TRANSPORTES LTDA                                             0000000023702232200000000013536 0000000093637250009022320297217    297217     201212212012121000000000055540000020600000000000020600000000000000000000000000000000050000000000  3020121221   01FS        1  RUA JUNO                                                                         3                         000000000000000                                     N                     00598  0000000        000136
900013700000000065852504                                                                                                                                                                                                                                                                                                                                                                                                                                                                00598  0000000        000137
