0000147602043799295000110ALTAMIRA INDUSTRIA METALURGICA LT       202000000020520130111060739             1                                                                                                                                                                                                                                                                                                                                                                                                    000001
12003102481000134AB5 IND E COMERCIO LTDA EPP                                           0000000034100000000000000000000000000000939253510000009000043653386           201301082012121100000000055720000015900000000000015952000000000000000000000000000078050000000000  3020130110   06          3                                                                                   3109000043651003154755700019                                                  N                     01321  0000000        000002
12003489596000123BEND FLEX I COMERCIO LTDA                                             000000003410000000000000000000000000000088599899000000171434574613            201209172012081600000000054590000585000000000000718516000000000000000000000000133516050000000000  3020130111   01          2                                                                                   3191714345748157734445800019                                                  N                     01321  0000000        000003
12005151518000140BELENUS DO BRASIL LTDA                                                000000000330000000000000000000000000000093540010000000830000000R133232612     201301032012120400000000055670000599040000000000614854000000000000000000000000015814050000000000  3020130111   01          2                                                                                   3918381050000000565083010469                                                  N                     01321  0000000        000004
12005214618000178VISION GESTAO EMP E FOM MERCAN                                        0000000023700088400000000730084 0000000092757541002000880017158000259         201301092012112600000000055730001000000000000001004000000000000000000000000000004000050000000000  3020130111   01          2  RUA TAMAINDE  1410  VILA NOVA MANCHESTERCORREA MONTAGENS INDUSTRIAIS LTDA   EPP  300000000000000000141500  012711129000197                                     N                     00598  0000000        000005
12005880850000145NEDERMAN BRASIL COM PROD EX LT                                        000000003410000000000000000000000000000086373178000000614350956002763 A       201209252012081400000000054670000289674000000000351234000000000000000000000000061560050000000000  3020130111   01          2                                                                                   3156143509568160829000100049                                                  N                     01321  0000000        000006
12006000195000156MBA MERCANTIL BRAS DE ACO LTDA                                        0000000034100000000000000000000000000000887698090000001671394550008925B02     201209142012071700000000054560000719581000000000887966000000000000000000000000168385050000000000  3020130111   01          2                                                                                   3191671394556064849251000089                                                  N                     01321  0000000        000007
12006000195000156MBA MERCANTIL BRAS DE ACO LTDA                                        0000000034100000000000000000000000000000887698100000001671394560008926B02     201209142012071700000000054560000387716000000000478513000000000000000000000000090797050000000000  3020130111   01          2                                                                                   3191671394564064849251000019                                                  N                     01321  0000000        000008
12006000195000156MBA MERCANTIL BRAS DE ACO LTDA                                        0000000034100000000000000000000000000000889578520000001671394540008920B02     201209162012071700000000054580000576585000000000709263000000000000000000000000132678050000000000  3020130111   01          2                                                                                   3191671394549064849251000099                                                  N                     01321  0000000        000009
12006000195000156MBA MERCANTIL BRAS DE ACO LTDA                                        0000000034100000000000000000000000000000906662670000001671394410008920B03     201210142012071700000000054860000576584000000000677510000000000000000000000000100926050000000000  3020130111   01          2                                                                                   3191671394416064849251000039                                                  N                     01321  0000000        000010
12006000195000156MBA MERCANTIL BRAS DE ACO LTDA                                        0000000034100000000000000000000000000000904173180000001671394430008926B03     201210122012071700000000054840000387716000000000457149000000000000000000000000069433050000000000  3020130111   01          2                                                                                   3191671394432064849251000079                                                  N                     01321  0000000        000011
12006000195000156M B A MERCANTIL BRASILEIRA DE                                         0000000023700118P00000002130599 00000000865388240020222900000450009203B03     201212122012081500000000055450000344980000000000362230000000000000000000000000017250050000000000  3020130111   01          2  RUA JUNO  533                                                                    300000000000000000001500  000000000000000                                     N                     00598  0000000        000012
12006000195000156M B A MERCANTIL BRASILEIRA DE                                         0000000023700118P00000002130599 00000000865388270020222900000480009204B03     201212132012081500000000055460000127291000000000133439000000000000000000000000006148050000000000  3020130111   01          2  RUA JUNO  533                                                                    300000000000000000001500  000000000000000                                     N                     00598  0000000        000013
12006000195000156M B A MERCANTIL BRASILEIRA DE                                         0000000023700118P00000002130599 00000000865388300020222900000510009205B03     201212142012081500000000055470000348964000000000365260000000000000000000000000016296050000000000  3020130111   01          2  RUA JUNO  533                                                                    300000000000000000001500  000000000000000                                     N                     00598  0000000        000014
12006000195000156M B A MERCANTIL BRASILEIRA DE                                         0000000023700118P00000002130599 00000000865388330020222900000540009206B03     201212152012081500000000055480000527560000000000551293000000000000000000000000023733050000000000  3020130111   01          2  RUA JUNO  533                                                                    300000000000000000001500  000000000000000                                     N                     00598  0000000        000015
12006000195000156M B A MERCANTIL BRASILEIRA DE                                         0000000023700118P00000002130599 00000000868592700020223600000030009229B03     201212132012081600000000055460000253414000000000265652000000000000000000000000012238050000000000  3020130111   01          2  RUA JUNO  533                                                                    300000000000000000001500  000000000000000                                     N                     00598  0000000        000016
12006000195000156MBA MERCANTIL BRAS DE ACO LTDA                                        0000000034100000000000000000000000000000894344150000002451556060009670B02     201212262012092500000000055590000822316000000000822316000000000000000000000000000000050000000000  3020121226   05          3                                                                                   3112451556065064899001800069                                                  N                     01321  0000000        000017
12006000195000156MBA MERCANTIL BRAS DE ACO LTDA                                        0000000034100000000000000000000000000000915733890000002553914340010130B02     201212262012103100000000055590000557201000000000557201000000000000000000000000000000050000000000  3020121226   05          3                                                                                   3112553914345064899001800089                                                  N                     01321  0000000        000018
12006000195000156MBA MERCANTIL BRAS DE ACO LTDA                                        0000000034100000000000000000000000000000933583350000002644908890010483B01     201212262012112800000000055590000220812000000000220812000000000000000000000000000000050000000000  3020121226   05          3                                                                                   3112644908892064899001800059                                                  N                     01321  0000000        000019
12008272923000104P SANTOS ESQUADRARIAS METAL ME                                        0000000034100000000000000000000000000000915734100000006159682651954           201212052012110700000000055380000408138000000000456557000000000000000000000000048419050000000000  3020130111   01          2                                                                                   3156159682654160141951600029                                                  N                     01321  0000000        000020
12008594182000188ACOS G3 COMERCIO E BENEFICIAME                                        0000000000100000000000000000000000000000952972850000009392190001496 03        201304042013010900000000056580000251430000000000251430000000000000000000000000000000050000000000  3020130404   01FS        1                                                                                   3000000213008444369392191119                                                  N                     01321  0000000        000021
12008594182000188ACOS G3 COMERCIO E BENEFICIAME                                        0000000000100000000000000000000000000000952972860000009392170001496 01        201302062013010900000000056010000251430000000000251430000000000000000000000000000000050000000000  3020130206   01FS        1                                                                                   3000000213008444369392171179                                                  N                     01321  0000000        000022
12008594182000188ACOS G3 COMERCIO E BENEFICIAME                                        0000000000100000000000000000000000000000952972870000009392180001496 02        201303062013010900000000056290000251430000000000251430000000000000000000000000000000050000000000  3020130306   01FS        1                                                                                   3000000213008444369392181169                                                  N                     01321  0000000        000023
12009338857000190FERNANDO  NAGAO  CARDONE  ALVA                                        000000000330000000000000000000000000000091653176000000300000000ALTA 11 2012   201211202012103000000000055230000134632000000000156986000000000000000000000000022354050000000000  3020130111   01          2                                                                                   3947901700000051051630010119                                                  N                     01321  0000000        000024
12017469701000177ARCELORMITTAL BRASIL S A                                              0000000034100000000000000000000000000000939253140000009328273290014078801     201301082012121100000000055720000075757000000000075757000000000000000000000000000000050000000000  3020130108   06          3                                                                                   3109328273293293802529900019                                                  N                     01321  0000000        000025
12035820448000136WHITE MARTINS GASES INDUSTRIAI                                        0000000023700026400000003937925 0000000094008690009023490004358422145 001     201301102012121400000000055740000021808000000000022251000000000000000000000000000443050000000000  3020130111   01          2  RUA GANGES  528                                                                  3                         000000000000000                                     N                     00598  0000000        000026
12042956441000101SOLUCOES ACO USIMINAS                                                 0000000034100000000000000000000000000000941026000000002683818420019483001     201301092012121200000000055730000927275000000000927275000000000000000000000000000000050000000000  3020130109   06          3                                                                                   3112683818424293807258000089                                                  N                     01321  0000000        000027
12042956441000101SOLUCOES ACO USIMINAS                                                 0000000034100000000000000000000000000000850740470000002233586810017101002     201209142012071900000000054560000732575000000000906910000000000000000000000000174335050000000000  3020130111   01          2                                                                                   3112233586810293807258000019                                                  N                     01321  0000000        000028
12042956441000101SOLUCOES ACO USIMINAS                                                 0000000034100000000000000000000000000000850740480000002233586820017101202     201209142012071900000000054560000144634000000000179025000000000000000000000000034391050000000000  3020130111   01          2                                                                                   3112233586828293807258000029                                                  N                     01321  0000000        000029
12042956441000101SOLUCOES ACO USIMINAS                                                 0000000034100000000000000000000000000000853154840000002246247030017196702     201209202012072500000000054620000234841000000000287951000000000000000000000000053110050000000000  3020130111   01          2                                                                                   3112246247038293807258000099                                                  N                     01321  0000000        000030
12042956441000101SOLUCOES ACO USIMINAS                                                 0000000034100000000000000000000000000000853154850000002246247040017197302     201209202012072500000000054620000970103000000001189323000000000000000000000000219220050000000000  3020130111   01          2                                                                                   3112246247046293807258000019                                                  N                     01321  0000000        000031
12042956441000101SOLUCOES ACO USIMINAS                                                 0000000034100000000000000000000000000000855028690000002254329380017212902     201209212012072600000000054630000140098000000000171458000000000000000000000000031360050000000000  3020130111   01          2                                                                                   3112254329389293807258000019                                                  N                     01321  0000000        000032
12042956441000101SOLUCOES ACO USIMINAS                                                 0000000034100000000000000000000000000000855028700000002254329390017213002     201209212012072600000000054630000140602000000000172074000000000000000000000000031472050000000000  3020130111   01          2                                                                                   3112254329397293807258000089                                                  N                     01321  0000000        000033
12042956441000101SOLUCOES ACO USIMINAS                                                 0000000034100000000000000000000000000000855028770000002254329400017220502     201209212012072700000000054630000981022000000001200766000000000000000000000000219744050000000000  3020130111   01          2                                                                                   3112254329405293807258000099                                                  N                     01321  0000000        000034
12042956441000101SOLUCOES ACO USIMINAS                                                 0000000034100000000000000000000000000000859590620000002274469790017353702     201209282012080300000000054700000081053000000000098063000000000000000000000000017010050000000000  3020130111   01          2                                                                                   3112274469793293807258000069                                                  N                     01321  0000000        000035
12045635984000115CRIFER LAMINADOS DE ACO E FERR                                        0000000003300000000000000000000000000000917414020000007500000000036176E02     201301032012110800000000055670000501947000000000509978000000000000000000000000008031050000000000  3020130111   01          2                                                                                   3901184270000000261475010159                                                  N                     01321  0000000        000036
12047190731000100DE CASTRO LOUR ENG IND LTDA                                           00000000341000000000000000000000000000008782050900000023399953503026612 0     201209182012082100000000054600001111489000000001362879000000000000000000000000251390050000000000  3020130111   01          2                                                                                   3112339995352036884500400019                                                  N                     01321  0000000        000037
12047190731000100DE CASTRO LOUR ENG IND LTDA                                           00000000341000000000000000000000000000008996248000000024766209303027184 0     201212282012100500000000055610001153394000000001185146000000000000000000000000031752050000000000  3020130111   01          2                                                                                   3112476620938036884500400099                                                  N                     01321  0000000        000038
12047190731000100DE CASTRO LOUR ENG IND LTDA                                           00000000341000000000000000000000000000009041732400000025008465303027256 0     201301082012101600000000055720001108934000000001115477000000000000000000000000006543050000000000  3020130111   01          2                                                                                   3112500846533036884500400089                                                  N                     01321  0000000        000039
12047190731000100DE CASTRO LOUR ENG IND LTDA                                           00000000341000000000000000000000000000009041732600000025008465603027257 0     201301102012101600000000055740000752126000000000753605000000000000000000000000001479050000000000  3020130111   01          2                                                                                   3112500846566036884500400089                                                  N                     01321  0000000        000040
12047190731000100DE CASTRO LOUR ENG IND LTDA                                           00000000341000000000000000000000000000009041733000000025008464703027216 0     201301022012101000000000055660000225446000000000229433000000000000000000000000003987050000000000  3020130111   01          2                                                                                   3112500846475036884500400019                                                  N                     01321  0000000        000041
12047190731000100DE CASTRO LOUR ENG IND LTDA                                           00000000341000000000000000000000000000009041733200000025008465003027234 0     201301032012101100000000055670001029906000000001046106000000000000000000000000016200050000000000  3020130111   01          2                                                                                   3112500846509036884500400099                                                  N                     01321  0000000        000042
12047190731000100DE CASTRO LOUR ENG IND LTDA                                           00000000341000000000000000000000000000008782052100000023399955903026643 0     201209202012082300000000054620000867039000000001059704000000000000000000000000192665050000000000  3020130111   01          2                                                                                   3112339995592036884500400049                                                  N                     01321  0000000        000043
12047190731000100DE CASTRO LOUR ENG IND LTDA                                           00000000341000000000000000000000000000008782052500000023399955603026636 0     201209192012082200000000054610000940804000000001151704000000000000000000000000210900050000000000  3020130111   01          2                                                                                   3112339995568036884500400049                                                  N                     01321  0000000        000044
12047190731000100DE CASTRO LOUR ENG IND LTDA                                           00000000341000000000000000000000000000008782052700000023399956203026648 0     201209202012082300000000054620000976053000000001193013000000000000000000000000216960050000000000  3020130111   01          2                                                                                   3112339995626036884500400029                                                  N                     01321  0000000        000045
12047190731000100DE CASTRO LOUR ENG IND LTDA                                           00000000341000000000000000000000000000008782052900000023399956403026648 0     201212202012082300000000055530000976344000000001018584000000000000000000000000042240050000000000  3020130111   01          2                                                                                   3112339995642036884500400059                                                  N                     01321  0000000        000046
12047190731000100DE CASTRO LOUR ENG IND LTDA                                           00000000341000000000000000000000000000008782051200000023399953803026613 0     201209182012082100000000054600001107989000000001358574000000000000000000000000250585050000000000  3020130111   01          2                                                                                   3112339995386036884500400039                                                  N                     01321  0000000        000047
12047190731000100DE CASTRO LOUR ENG IND LTDA                                           00000000341000000000000000000000000000008782051600000023399954103026614 0     201209182012082100000000054600001047621000000001284521000000000000000000000000236900050000000000  3020130111   01          2                                                                                   3112339995410036884500400039                                                  N                     01321  0000000        000048
12047190731000100DE CASTRO LOUR ENG IND LTDA                                           00000000341000000000000000000000000000008782052000000023399955303026632 0     201209192012082200000000054610000952073000000001165481000000000000000000000000213408050000000000  3020130111   01          2                                                                                   3112339995535036884500400019                                                  N                     01321  0000000        000049
12047190731000100DE CASTRO LOUR ENG IND LTDA                                           00000000341000000000000000000000000000008782053300000023399956103026643 0     201212202012082300000000055530000867297000000000904829000000000000000000000000037532050000000000  3020130111   01          2                                                                                   3112339995618036884500400059                                                  N                     01321  0000000        000050
12047190731000100DE CASTRO LOUR ENG IND LTDA                                           00000000341000000000000000000000000000008782059200000023602715103026744 0     201212262012082900000000055590000146636000000000151244000000000000000000000000004608050000000000  3020130111   01          2                                                                                   3112360271517036884500400019                                                  N                     01321  0000000        000051
12047190731000100DE CASTRO LOUR ENG IND LTDA                                           00000000341000000000000000000000000000008782059600000023602714803026734 0     201212252012082800000000055580000998134000000001031505000000000000000000000000033371050000000000  3020130111   01          2                                                                                   3112360271483036884500400059                                                  N                     01321  0000000        000052
12047190731000100DE CASTRO LOUR ENG IND LTDA                                           00000000341000000000000000000000000000008782059700000023602715403026745 0     201212262012082900000000055590000903448000000000931880000000000000000000000000028432050000000000  3020130111   01          2                                                                                   3112360271541036884500400019                                                  N                     01321  0000000        000053
12048775225000146SEIKI IND COM E CONFECCOES LTD                                        000000003410000000000000000000000000000089337376000000244697151014914001      201210232012092500000000054950000052000000000000058240000000000000000000000000006240050000000000  3020130111   01          2                                                                                   3112446971510017444824100089                                                  N                     01321  0000000        000054
12056993512000150CYKLOP DO BRASIL EMBALAGENS SA                                        0000000034100000000000000000000000000000874070500000002362586810134932        201210012012090300000000054730000083607000000000114921000000000000000000000000031314050000000000  3020130111   01          2                                                                                   3112362586813025700015800019                                                  N                     01321  0000000        000055
12062510367000102ITANHAEM TRANSP DE MAQUINAS LT                                        000000003410000000000000000000000000000087407049000000236463199667            201209202012090400000000054620000248220000000000360429000000000000000000000000112209050000000000  3020130111   01          2                                                                                   3112364631997005770252400049                                                  N                     01321  0000000        000056
12062539994000176LEALFER IN E COM DE ACO LTDA                                          0000000034100000000000000000000000000000899624870000002474449950005606003     201301052012100200000000055690000241703000000000241703000000000000000000000000000000050000000000  3020130107   06          3                                                                                   3112474449959076103324000039                                                  N                     01321  0000000        000057
12064952757000168WALMAC COM DE PROD QUIMICOS LT                                        0000000034100000000000000000000000000000860403450000002275821700020148        201210052012080300000000054770000219267000000000261505000000000000000000000000042238050000000000  3020130111   01          2                                                                                   3112275821703064807961400029                                                  N                     01321  0000000        000058
12066841552000130R V SEG PATRIMONIAL LTDA                                              00000000341000000000000000000000000000009410260600000090002279822798          201301102012120700000000055740000394482000000000394614000000000000000000000000000132050000000000  3020130111   01          2                                                                                   3109000227984001835253400029                                                  N                     01321  0000000        000059
12069284248000128ISOCOAT TINTAS E VERNIZES LTDA                                        0000000034100000000000000000000000000000841061040000002182507930052085        201209172012070200000000054590000236130000000000309210000000000000000000000000073080050000000000  3020130111   01          2                                                                                   3112182507932077430121200019                                                  N                     01321  0000000        000060
12069284248000128ISOCOAT TINTAS E VERNIZES LTDA                                        0000000034100000000000000000000000000000908309610000002521130200057192        201301072012102400000000055710000318064000000000321456000000000000000000000000003392050000000000  3020130111   01          2                                                                                   3112521130206077430121200019                                                  N                     01321  0000000        000061
900006200000000035307587                                                                                                                                                                                                                                                                                                                                                                                                                                                                01321  0000000        000062
