0000147602043799295000110ALTAMIRA INDUSTRIA METALURGICA LT       202000000021520120911121151             2                                                                                                  000000000000000                                                                                                                                                                                                                                                                                   000001
12043799295000110ALTAMIRA INDUSTRIA METAL LTDA                                         0000000003303809500000130004071 I000000000009804000000000000000               201209110000000000000000000000000000000000000001000000000000000000000000000000000000050000000001  0820120911   01HF        5001208000000007390919000000000000000                                               3D0000000101                               01                                 S                     01133 10020256        000002
12043799295000110ALTAMIRA INDUSTRIA METAL LTDA                                         0000000065500001 00002217986012 I000000000009805000000000000000               201209110000000000000000000000000000000000000001000000000000000000000000000000000000050000000002  0820120911   01HF        5001208000000008390919000000000000000                                               3D0000000101                               02                                 S                     01133 10020256        000003
12043799295000110ALTAMIRA INDUSTRIA METAL LTDA                                         0000000000103333200000000011029 I000000000009806000000000000000               201209110000000000000000000000000000000000000000600000000000000000000000000000000000050000000003  0820120911   01HF        5001208000000008990919000000000000000                                               3D0000000101                               03                                 S                     01133 10020256        000004
12069050532000130TRIONON TRANSPORTES LTDA                                              0000000034100257 00000000296673 I000000000009807000000000000000               201209110000000000000000000000000000000000000000370000000000000000000000000000000000050000000000  0820120911   01HF        5001208000000009360919000000000000000                                               3C0000000101                               CONHECS.NROS.21423/53/95/08.       N                     01076 10020256        000005
900000600000000002970000                                                                                                                                                                                    000000000000000                                                                                                                                                                                                                                                    00000400000000000000000        000006
