0000147602043799295000110ALTAMIRA INDUSTRIA METALURGICA LT       202000000012420120912061015             1                                                                                                                                                                                                                                                                                                                                                                                                    000001
12000193273000108TECELAGEM ROMA LTDA                                                   0000000023700284400000000410977 000000008729528300900000001755717246          201210092012083100000000054810000093186000000000093186000000000000000000000000000000050000000000  3020121009   01          2  RUA TAMAINDE 1410  1410                                                          300000000000000000001500  000000000000000                                     N                     00598  0000000        000002
12001784706000154TRANSPORTES WARTHA LTDA                                               0000000023701775200000000260010 0000000086040347009022210000092SAO2590131     201209032012080800000000054450000034000000000000034000000000000000000000000000000000050000000000  3020120903   06          3  RUA JUNO 533                                                                     3                         000000000000000                                     N                     00598  0000000        000003
12001784706000154TRANSPORTES WARTHA LTDA                                               0000000023701775200000000260010 0000000088012264009022210000092SAO2590131     201209032012080800000000054450000034000000000000034728000000000000000000000000000728050000000000  3020120912   01FS        1  RUA JUNO 533                                                                     3                         000000000000000                                     N                     00598  0000000        000004
12001852612000175BT EQUIP INDUSTRIAIS LTDA EPP                                         000000003410000000000000000000000000000086615424000000230334024590848         201209102012081600000000054520000044535000000000044829000000000000000000000000000294050000000000  3020120912   01          2                                                                                   3112303340247052567228300059                                                  N                     01321  0000000        000005
12001895314000162COLETA INDUSTRIAL FIMAVAN LTDA                                        0000000034100000000000000000000000000000866992070000009002335349439           201208272012081700000000054380000123695000000000131433000000000000000000000000007738050000000000  3020120912   01          2                                                                                   3109002335346144604097200019                                                  N                     01321  0000000        000006
12001951865000104FOUR FACTORING FOMENTO MERCANT                                        000000000010000000000000000000000000000088012243000000987637000166            201209142012091000000000054560000310000000000000310000000000000000000000000000000000050000000000  3020120914   01FS        1                                                                                   3044049876373222001052451139                                                  N                     01321  0000000        000007
12002269980000158PANKRO LOGISTICA E TRANSPORTES                                        000000003410000000000000000000000000000088012260000000237715331194B           201209192012080300000000054610000145000000000000145000000000000000000000000000000000050000000000  3020120919   01FS        1                                                                                   3112377153310315090027600029                                                  N                     01321  0000000        000008
12002269980000158PANKRO LOGISTICA E TRANSPORTES                                        000000003410000000000000000000000000000088012261000000237715427204 12         201209282012080900000000054700000300000000000000300000000000000000000000000000000000050000000000  3020120928   01FS        1                                                                                   3112377154276315090027600049                                                  N                     01321  0000000        000009
12002269980000158PANKRO LOGISTICA E TRANSPORTES                                        000000003410000000000000000000000000000085315490000000224495030166            201209062012072500000000054480000310000000000000310000000000000000000000000000000000050000000000  3020120906   05          3                                                                                   3112244950302315090027600019                                                  N                     01321  0000000        000010
12002469103000120COMPROCRED FOMENTO MERCANTIL L                                        0000000023703511400000000106739 0000000088012259002022550000043022145 12      201210012012090500000000054730000093000000000000093000000000000000000000000000000000050000000000  3020121001   01FS        1  RUA TAMAINDE 1410 VILA NOVA MANCH SAO PATRANSPORTADORA FIOROT LTDA               3                         000252984000106                                     N                     00598  0000000        000011
12002503185000182ANDAIMES MAQUINAS BIG LTDA EPP                                        000000003410000000000000000000000000000086282613000000228719913011660         201208302012081000000000054410000012000000000000012344000000000000000000000000000344050000000000  3020120912   01          2                                                                                   3112287199130650303800900039                                                  N                     01321  0000000        000012
12003102481000134AB5 IND E COMERCIO LTDA EPP                                           0000000034100000000000000000000000000000865388210000009000040412849           201209042012080700000000054460000155820000000000157900000000000000000000000000002080050000000000  3020120912   01          2                                                                                   3109000040418003154755700069                                                  N                     01321  0000000        000013
12003803271000173ATUAL SP C DE FERRAMENTAS LTDA                                        000000003410000000000000000000000000000086373180000000791271229007062         201209112012081400000000054530000027365000000000028240000000000000000000000000000875050000000000  3020120912   01          2                                                                                   3157912712293013905550300019                                                  N                     01321  0000000        000014
12004398623000115MET GALHARDO IND E COM LTDA                                           0000000034100000000000000000000000000000864554410000002296792864893           201209102012081400000000054520000291720000000000292886000000000000000000000000001166050000000000  3020120912   01          2                                                                                   3112296792867046770270000079                                                  N                     01321  0000000        000015
12004676708000118M H F SISTEMAS S C LTDA                                               0000000034100000000000000000000000000000866992080000002311020830099048066     201209052012081700000000054470000014500000000000015126000000000000000000000000000626050000000000  3020120912   01          2                                                                                   3112311020831013924573200019                                                  N                     01321  0000000        000016
12005335228000156DINAMICA INF E TELECOM LTDA EP                                        0000000023703257300000000503215 0000000086455447009032570016796MO008820A      201208302012080600000000054410000020000000000000020804000000000000000000000000000871050000000000  3020120911   06          3  RUA JUNO  533                                                                    3                         000000000000000                                     N                     00598  0000000        000017
12005880850000145NEDERMAN BRASIL COM PROD EX LT                                        000000003410000000000000000000000000000086373178000000614350956002763 A       201209092012081400000000054510000289674000000000291384000000000000000000000000001710050000000000  3020120912   01          2                                                                                   3156143509568160829000100079                                                  N                     01321  0000000        000018
12006000195000156MBA MERCANTIL BRAS DE ACO LTDA                                        0000000034100000000000000000000000000000878205670000001671394740008920B01     201208192012071700000000054300000576584000000000603800000000000000000000000000027216050000000000  3020120912   01          2                                                                                   3191671394747064849251000059                                                  N                     01321  0000000        000019
12006000195000156M B A MERCANTIL BRASILEIRA DE                                         0000000000100000000000000000000000000000831387010000007752220000008614B03     201209112012062000000000054530000949922000000000951505000000000000000000000000001583050000000000  3020120912   01          2                                                                                   3043837752223333000105251159                                                  N                     01321  0000000        000020
12006000195000156M B A MERCANTIL BRASILEIRA DE                                         0000000023700118P00000002128292 00000000870177510090214900000120008399B03     201208202012052800000000054310000517280000000000517280000000000000000000000000000000050000000000  3020120829   06          3  RUA JUNO  533                                                                    3                         000000000000000                                     N                     00598  0000000        000021
12006000195000156M B A MERCANTIL BRASILEIRA DE                                         0000000000100000000000000000000000000000855028880000007952890000009007B01     201208292012073000000000054400000428086000000000428086000000000000000000000000000000050000000000  3020120829   05          3                                                                                   3043937952893333000105251139                                                  N                     01321  0000000        000022
12006000195000156M B A MERCANTIL BRASILEIRA DE                                         0000000023700118P00000002128292 00000000880122620090216400000140008514B03     201209042012061100000000054460000506300000000000506300000000000000000000000000000000050000000000  3020120912   01FS        1  RUA JUNO  533                                                                    3                         000000000000000                                     N                     00598  0000000        000023
12006000195000156M B A MERCANTIL BRASILEIRA DE                                         0000000023700118P00000002128292 00000000880122630090216400000200008513B03     201209032012061100000000054450000549460000000000549460000000000000000000000000000000050000000000  3020120912   01FS        1  RUA JUNO  533                                                                    3                         000000000000000                                     N                     00598  0000000        000024
12006000195000156M B A MERCANTIL BRASILEIRA DE                                         0000000023700118P00000002130599 00000000848180730020220100000040008872B02     201209112012071700000000054530000112773000000000112961000000000000000000000000000188050000000000  3020120912   01          2  RUA JUNO  533                                                                    3                         000000000000000                                     N                     00598  0000000        000025
12006000195000156M B A MERCANTIL BRASILEIRA DE                                         0000000023700118P00000002130599 00000000853154980020220900000440008967B01     201208232012072400000000054340000135605000000000140125000000000000000000000000004520050000000000  3020120912   01          2  RUA JUNO  533                                                                    3                         000000000000000                                     N                     00598  0000000        000026
12006000195000156M B A MERCANTIL BRASILEIRA DE                                         0000000023700118P00000002130599 00000000853155100020220900000700008987B01     201208232012072500000000054340000216623000000000223843000000000000000000000000007220050000000000  3020120912   01          2  RUA JUNO  533                                                                    3                         000000000000000                                     N                     00598  0000000        000027
12006894969000130TERRADIESEL COM DE PCS P CAMIN                                        00000000341000000000000000000000000000008653881500000023020935013969A         201209072012081500000000054490000017800000000000018335000000000000000000000000000535050000000000  3020120912   01          2                                                                                   3112302093508006500924300049                                                  N                     01321  0000000        000028
12008508119000181DINARI FOMENTO MERCANTIL LTDA                                         0000000023702499600000000178306 0000000086282616002022260000004206 B          201209102012081000000000054520000170000000000000176120000000000000000000000000006120050000000000  3020120912   01          2  RUA JUNO  533 VL N MANCHESTER SAO PAULO PANKRO LOGISTICA E TRANSPORTES LTDA EPP  3                         002269980000158                                     N                     00598  0000000        000029
12008709272000177MULTIELETRICA C M E LTDA                                              000000003410000000000000000000000000000085771860000000900002207000002535D     201209112012072400000000054530000188886000000000200401000000000000000000000000011515050000000000  3020120912   01          2                                                                                   3109000022073075798525400059                                                  N                     01321  0000000        000030
12009338857000190FERNANDO  NAGAO  CARDONE  ALVA                                        000000000330000000000000000000000000000085959071000000430000000REEM 07 2012   201208102012072600000000054210000024134000000000026751000000000000000000000000002617050000000000  3020120912   01          2                                                                                   3947901700000051047543010139                                                  N                     01321  0000000        000031
12012006058000121WEG TINTAS LTDA                                                       0000000023702727800000000001309 00000000841061120090218800000840014990202     201209032012070500000000054450000306569000000000309833000000000000000000000000003672050000000000  3020120911   06          3  R JUNO  533                                                                      3                         000000000000000                                     N                     00598  0000000        000032
12012006058000121WEG TINTAS LTDA                                                       0000000023702727800000000001309 00000000849855320090220500001200015343101     201209032012072000000000054450000306569000000000309833000000000000000000000000003672050000000000  3020120911   06          3  R JUNO  533                                                                      3                         000000000000000                                     N                     00598  0000000        000033
12012006058000121WEG TINTAS LTDA                                                       0000000023702727800000000001309 00000000854049540090221200001000015513001     201209102012072700000000054520000459854000000000461080000000000000000000000000001226050000000000  3020120912   01          2  R JUNO  533                                                                      3                         000000000000000                                     N                     00598  0000000        000034
12012006058000121WEG TINTAS LTDA                                                       0000000023702727800000000001309 00000000833069160090217700001090014685603     201209052012062200000000054470000459992000000000464283000000000000000000000000004291050000000000  3020120912   01          2  R JUNO  533                                                                      3                         000000000000000                                     N                     00598  0000000        000035
12012006058000121WEG TINTAS LTDA                                                       0000000023702727800000000001309 00000000834820640090217900000760014773903     201209092012062600000000054510000306662000000000307886000000000000000000000000001224050000000000  3020120912   01          2  R JUNO  533                                                                      3                         000000000000000                                     N                     00598  0000000        000036
12012006058000121WEG TINTAS LTDA                                                       0000000023702727800000000001309 00000000842436830090219200000850015068802     201209072012070900000000054490000306569000000000308609000000000000000000000000002040050000000000  3020120912   01          2  R JUNO  533                                                                      3                         000000000000000                                     N                     00598  0000000        000037
12012006058000121WEG TINTAS LTDA                                                       0000000023702727800000000001309 00000000844839230090219500000720015168702     201209102012071200000000054520000306569000000000307385000000000000000000000000000816050000000000  3020120912   01          2  R JUNO  533                                                                      3                         000000000000000                                     N                     00598  0000000        000038
12012931789000183RCM IMPORTADORA DE FERRAMENTAS                                        0000000000100000000000000000000000000000864554140000003020260003837           201209112012081400000000054530000026100000000000026231000000000000000000000000000131050000000000  3020120912   01          2                                                                                   3000000225937100043020261749                                                  N                     01321  0000000        000039
12014775592000128HELIO ADRIANO DA SILVA ME                                             0000000003300000000000000000000000000000880122770000004900000008565 8566      201209282012091000000000054700000034500000000000034500000000000000000000000000000000050000000000  3020120928   01FS        1                                                                                   3956114740000000000049010129                                                  N                     01321  0000000        000040
12031895683000116BANCO INDUSTRIAL DO BRASIL S A                                        0000000023702374400000000144002 00000000862826150190222600002285776102        201209052012080800000000054470000065454000000000066504000000000000000000000000001225050000000000  3020120911   06          3  R JUNO 533                              OFFICE LEADER DIST E LOGISTICA LTDA      3                         005169626000140                                     N                     00598  0000000        000041
12033325184001786ALSCO TOALHEIRO BRASIL                                                0000000023703396000000001490850 0000000086196030009000002679805VM26798        201208302012081000000000054410000052584000000000053220000000000000000000000000000689050000000000  3020120911   06          3  RUA  GANGES 528                                                                  3                         000000000000000                                     N                     00598  0000000        000042
12033325184001786ALSCO TOALHEIRO BRASIL                                                0000000023703396000000001490850 0000000085771866009000028519503VM00285195     201209052012080300000000054470000026347000000000026503000000000000000000000000000182050000000000  3020120911   06          3  RUA  GANGES 528                                                                  3                         000000000000000                                     N                     00598  0000000        000043
12035820448000136WHITE MARTINS GASES INDUSTRIAI                                        0000000023700026400000003937925 0000000085607119009022140004425360193 001     201208282012073100000000054390000081150000000000084285000000000000000000000000003243050000000000  3020120911   06          3  RUA GANGES  528                                                                  3                         000000000000000                                     N                     00598  0000000        000044
12035820448000136WHITE MARTINS GASES INDUSTRIAI                                        0000000023700026400000003937925 0000000085771861009022160000641360709 001     201208292012080300000000054400000162300000000000168354000000000000000000000000006270050000000000  3020120911   06          3  RUA GANGES  528                                                                  3                         000000000000000                                     N                     00598  0000000        000045
12035820448000136WHITE MARTINS GASES INDUSTRIAI                                        0000000023700026400000003937925 0000000085861656009022190000404361579 001     201208312012080400000000054420000162300000000000168138000000000000000000000000005838050000000000  3020120912   01          2  RUA GANGES  528                                                                  3                         000000000000000                                     N                     00598  0000000        000046
12035820448000136WHITE MARTINS GASES INDUSTRIAI                                        0000000023700026400000003937925 0000000086196029009022230001562364184 001     201209062012081000000000054480000113610000000000116788000000000000000000000000003178050000000000  3020120912   01          2  RUA GANGES  528                                                                  3                         000000000000000                                     N                     00598  0000000        000047
12035820448000136WHITE MARTINS GASES INDUSTRIAI                                        0000000023700026400000003937925 0000000086373165009022270006973365235 001     201209102012081400000000054520000017600000000000017998000000000000000000000000000398050000000000  3020120912   01          2  RUA GANGES  528                                                                  3                         000000000000000                                     N                     00598  0000000        000048
12035820448000136WHITE MARTINS GASES INDUSTRIAI                                        0000000023700026400000003937925 0000000086538817009022290001168366855 001     201209112012081600000000054530000121725000000000124321000000000000000000000000002596050000000000  3020120912   01          2  RUA GANGES  528                                                                  3                         000000000000000                                     N                     00598  0000000        000049
12042956441000101SOLUCOES ACO USIMINAS                                                 0000000034100000000000000000000000000000861207220000002282166980017385801     201209042012080700000000054460000715010000000000726450000000000000000000000000011440050000000000  3020120912   01          2                                                                                   3112282166985293807258000089                                                  N                     01321  0000000        000050
12042956441000101SOLUCOES ACO USIMINAS                                                 0000000034100000000000000000000000000000858616290000002271409670017315101     201208302012080200000000054410000579548000000000594615000000000000000000000000015067050000000000  3020120912   01          2                                                                                   3112271409677293807258000099                                                  N                     01321  0000000        000051
12042956441000101SOLUCOES ACO USIMINAS                                                 0000000034100000000000000000000000000000858616320000002271409680017316001     201208302012080200000000054410000929730000000000953897000000000000000000000000024167050000000000  3020120912   01          2                                                                                   3112271409685293807258000039                                                  N                     01321  0000000        000052
12042956441000101SOLUCOES ACO USIMINAS                                                 0000000034100000000000000000000000000000858616330000002271409690017319301     201208302012080200000000054410000981820000000001007352000000000000000000000000025532050000000000  3020120912   01          2                                                                                   3112271409693293807258000039                                                  N                     01321  0000000        000053
12042956441000101SOLUCOES ACO USIMINAS                                                 0000000034100000000000000000000000000000858616340000002271409700017319401     201208302012080200000000054410000178956000000000183610000000000000000000000000004654050000000000  3020120912   01          2                                                                                   3112271409701293807258000089                                                  N                     01321  0000000        000054
12042956441000101SOLUCOES ACO USIMINAS                                                 0000000034100000000000000000000000000000858616350000002271409710017319501     201208302012080200000000054410000197439000000000202574000000000000000000000000005135050000000000  3020120912   01          2                                                                                   3112271409719293807258000049                                                  N                     01321  0000000        000055
12042956441000101SOLUCOES ACO USIMINAS                                                 0000000034100000000000000000000000000000858616360000002271409720017319601     201208302012080200000000054410000197103000000000202225000000000000000000000000005122050000000000  3020120912   01          2                                                                                   3112271409727293807258000019                                                  N                     01321  0000000        000056
12042956441000101SOLUCOES ACO USIMINAS                                                 0000000034100000000000000000000000000000858616370000002271409730017319701     201208302012080200000000054410000197271000000000202406000000000000000000000000005135050000000000  3020120912   01          2                                                                                   3112271409735293807258000019                                                  N                     01321  0000000        000057
12042956441000101SOLUCOES ACO USIMINAS                                                 0000000034100000000000000000000000000000858616380000002271409740017319801     201208302012080200000000054410000194583000000000199640000000000000000000000000005057050000000000  3020120912   01          2                                                                                   3112271409743293807258000019                                                  N                     01321  0000000        000058
12042956441000101SOLUCOES ACO USIMINAS                                                 0000000034100000000000000000000000000000853154910000002246247000017196701     201208232012072500000000054340000234911000000000244311000000000000000000000000009400050000000000  3020120912   01          2                                                                                   3112246247004293807258000019                                                  N                     01321  0000000        000059
12042956441000101SOLUCOES ACO USIMINAS                                                 0000000034100000000000000000000000000000846595710000002210880290016980602     201209102012071200000000054520000426094000000000427798000000000000000000000000001704050000000000  3020120912   01          2                                                                                   3112210880293293807258000019                                                  N                     01321  0000000        000060
12042956441000101SOLUCOES ACO USIMINAS                                                 0000000034100000000000000000000000000000847452070000002216130350005922202     201209102012071600000000054520000172071000000000172759000000000000000000000000000688050000000000  3020120912   01          2                                                                                   3112216130354293807258000049                                                  N                     01321  0000000        000061
12042956441000101SOLUCOES ACO USIMINAS                                                 0000000034100000000000000000000000000000859590600000002274469770017353701     201208312012080300000000054420000081077000000000083021000000000000000000000000001944050000000000  3020120912   01          2                                                                                   3112274469777293807258000049                                                  N                     01321  0000000        000062
12042956441000101SOLUCOES ACO USIMINAS                                                 0000000034100000000000000000000000000000859590610000002274469780017353801     201208312012080300000000054420000167048000000000171056000000000000000000000000004008050000000000  3020120912   01          2                                                                                   3112274469785293807258000019                                                  N                     01321  0000000        000063
12042956441000101SOLUCOES ACO USIMINAS                                                 0000000034100000000000000000000000000000847452100000002216130340017012402     201209102012071500000000054520000147428000000000148018000000000000000000000000000590050000000000  3020120912   01          2                                                                                   3112216130347293807258000059                                                  N                     01321  0000000        000064
12042956441000101SOLUCOES ACO USIMINAS                                                 0000000034100000000000000000000000000000825740800000002106974470016399203     201208292012060600000000054400000450363000000000462977000000000000000000000000012614050000000000  3020120912   01          2                                                                                   3112106974473293807258000039                                                  N                     01321  0000000        000065
12042956441000101SOLUCOES ACO USIMINAS                                                 0000000034100000000000000000000000000000825740810000002106974480016399403     201208292012060600000000054400000431213000000000443281000000000000000000000000012068050000000000  3020120912   01          2                                                                                   3112106974481293807258000099                                                  N                     01321  0000000        000066
12042956441000101SOLUCOES ACO USIMINAS                                                 0000000034100000000000000000000000000000826558270000002112172740016458803     201209042012061100000000054460000231416000000000235120000000000000000000000000003704050000000000  3020120912   01          2                                                                                   3112112172740293807258000059                                                  N                     01321  0000000        000067
12042956441000101SOLUCOES ACO USIMINAS                                                 0000000034100000000000000000000000000000826558320000002112172760016459403     201209042012061100000000054460000747525000000000759485000000000000000000000000011960050000000000  3020120912   01          2                                                                                   3112112172765293807258000089                                                  N                     01321  0000000        000068
12042956441000101SOLUCOES ACO USIMINAS                                                 0000000034100000000000000000000000000000826558330000002112172770016459703     201209042012061100000000054460000500177000000000508177000000000000000000000000008000050000000000  3020120912   01          2                                                                                   3112112172773293807258000069                                                  N                     01321  0000000        000069
12042956441000101SOLUCOES ACO USIMINAS                                                 0000000034100000000000000000000000000000826558340000002112172780016459803     201209042012061100000000054460000155721000000000158209000000000000000000000000002488050000000000  3020120912   01          2                                                                                   3112112172781293807258000099                                                  N                     01321  0000000        000070
12042956441000101SOLUCOES ACO USIMINAS                                                 0000000034100000000000000000000000000000856906410000002262886280017266201     201208282012073000000000054390000119472000000000123057000000000000000000000000003585050000000000  3020120912   01          2                                                                                   3112262886289293807258000089                                                  N                     01321  0000000        000071
12042956441000101SOLUCOES ACO USIMINAS                                                 0000000034100000000000000000000000000000819545020000002078930840016239503     201208222012052900000000054330001126072000000001173364000000000000000000000000047292050000000000  3020120912   01          2                                                                                   3112078930842293807258000019                                                  N                     01321  0000000        000072
12042956441000101SOLUCOES ACO USIMINAS                                                 0000000034100000000000000000000000000000841725460000002188168540016859402     201208292012070400000000054400000164456000000000169062000000000000000000000000004606050000000000  3020120912   01          2                                                                                   3112188168549293807258000059                                                  N                     01321  0000000        000073
12042956441000101SOLUCOES ACO USIMINAS                                                 0000000034100000000000000000000000000000856906420000002262886290017266301     201208282012073000000000054390000145069000000000149419000000000000000000000000004350050000000000  3020120912   01          2                                                                                   3112262886297293807258000099                                                  N                     01321  0000000        000074
12042956441000101SOLUCOES EM ACO USIMINAS S A                                          000000000010000000000000000000000000000083138704000000083117000000165994003   201209112012062000000000054530000233496000000000233963000000000000000000000000000467050000000000  3020120912   01          2                                                                                   3000000169660100000831171729                                                  N                     01321  0000000        000075
12042956441000101SOLUCOES ACO USIMINAS                                                 0000000034100000000000000000000000000000826558360000002112172750016459203     201209042012061100000000054460000123455000000000125431000000000000000000000000001976050000000000  3020120912   01          2                                                                                   3112112172757293807258000049                                                  N                     01321  0000000        000076
12042956441000101SOLUCOES EM ACO USIMINAS S A                                          000000000010000000000000000000000000000082978008000000080344000000057592003   201209102012061800000000054520001055670000000001059892000000000000000000000000004222050000000000  3020120912   01          2                                                                                   3000000169660100000803441719                                                  N                     01321  0000000        000077
12042956441000101SOLUCOES ACO USIMINAS                                                 0000000034100000000000000000000000000000841725470000002188168550016859502     201208292012070400000000054400000234337000000000240903000000000000000000000000006566050000000000  3020120912   01          2                                                                                   3112188168556293807258000089                                                  N                     01321  0000000        000078
12042956441000101SOLUCOES ACO USIMINAS                                                 0000000034100000000000000000000000000000841725480000002188168560016884802     201208302012070500000000054410000120612000000000123745000000000000000000000000003133050000000000  3020120912   01          2                                                                                   3112188168564293807258000019                                                  N                     01321  0000000        000079
12042956441000101SOLUCOES ACO USIMINAS                                                 0000000034100000000000000000000000000000841725490000002188168570016884902     201208302012070500000000054410000531835000000000545667000000000000000000000000013832050000000000  3020120912   01          2                                                                                   3112188168572293807258000019                                                  N                     01321  0000000        000080
12042956441000101SOLUCOES ACO USIMINAS                                                 0000000034100000000000000000000000000000841725500000002188168580016885102     201208302012070500000000054410000219722000000000225429000000000000000000000000005707050000000000  3020120912   01          2                                                                                   3112188168580293807258000049                                                  N                     01321  0000000        000081
12042956441000101SOLUCOES ACO USIMINAS                                                 0000000034100000000000000000000000000000841725510000002188168590016891202     201208302012070500000000054410001132543000000001161988000000000000000000000000029445050000000000  3020120912   01          2                                                                                   3112188168598293807258000019                                                  N                     01321  0000000        000082
12042956441000101SOLUCOES ACO USIMINAS                                                 0000000034100000000000000000000000000000841725520000002188168600016891402     201208302012070500000000054410000795232000000000815902000000000000000000000000020670050000000000  3020120912   01          2                                                                                   3112188168606293807258000019                                                  N                     01321  0000000        000083
12042956441000101SOLUCOES ACO USIMINAS                                                 0000000034100000000000000000000000000000841725530000002188168610016891502     201208302012070500000000054410001128343000000001157684000000000000000000000000029341050000000000  3020120912   01          2                                                                                   3112188168614293807258000089                                                  N                     01321  0000000        000084
12042956441000101SOLUCOES ACO USIMINAS                                                 0000000034100000000000000000000000000000843180430000002194744350016902902     201208312012070600000000054420000179795000000000184115000000000000000000000000004320050000000000  3020120912   01          2                                                                                   3112194744358293807258000069                                                  N                     01321  0000000        000085
12042956441000101SOLUCOES ACO USIMINAS                                                 0000000034100000000000000000000000000000824061850000002100925420016380503     201208292012060500000000054400000215523000000000221557000000000000000000000000006034050000000000  3020120912   01          2                                                                                   3112100925422293807258000039                                                  N                     01321  0000000        000086
12042956441000101SOLUCOES ACO USIMINAS                                                 0000000034100000000000000000000000000000824061860000002100925430016380703     201208292012060500000000054400000216699000000000222761000000000000000000000000006062050000000000  3020120912   01          2                                                                                   3112100925430293807258000079                                                  N                     01321  0000000        000087
12042956441000101SOLUCOES ACO USIMINAS                                                 0000000034100000000000000000000000000000840313020000002181699190016814402     201208272012070200000000054380000968423000000000999415000000000000000000000000030992050000000000  3020120912   01          2                                                                                   3112181699193293807258000019                                                  N                     01321  0000000        000088
12042956441000101SOLUCOES ACO USIMINAS                                                 0000000034100000000000000000000000000000840313030000002181699200016827102     201208272012070200000000054380000703010000000000725506000000000000000000000000022496050000000000  3020120912   01          2                                                                                   3112181699201293807258000019                                                  N                     01321  0000000        000089
12042956441000101SOLUCOES ACO USIMINAS                                                 0000000034100000000000000000000000000000840313060000002181699210016829702     201208272012070200000000054380000643712000000000664304000000000000000000000000020592050000000000  3020120912   01          2                                                                                   3112181699219293807258000089                                                  N                     01321  0000000        000090
12042956441000101SOLUCOES ACO USIMINAS                                                 0000000034100000000000000000000000000000840313070000002181699220016829802     201208272012070200000000054380000322528000000000332848000000000000000000000000010320050000000000  3020120912   01          2                                                                                   3112181699227293807258000029                                                  N                     01321  0000000        000091
12042956441000101SOLUCOES ACO USIMINAS                                                 0000000034100000000000000000000000000000825740790000002106974460016399003     201208292012060600000000054400000203068000000000208752000000000000000000000000005684050000000000  3020120912   01          2                                                                                   3112106974465293807258000089                                                  N                     01321  0000000        000092
12042956441000101SOLUCOES ACO USIMINAS                                                 0000000034100000000000000000000000000000844063830000002198870030016923302     201209042012071000000000054460000442972000000000450060000000000000000000000000007088050000000000  3020120912   01          2                                                                                   3112198870035293807258000059                                                  N                     01321  0000000        000093
12042956441000101SOLUCOES ACO USIMINAS                                                 0000000034100000000000000000000000000000846595700000002210880280016980502     201209102012071200000000054520000156071000000000156695000000000000000000000000000624050000000000  3020120912   01          2                                                                                   3112210880285293807258000039                                                  N                     01321  0000000        000094
12042956441000101SOLUCOES ACO USIMINAS                                                 0000000034100000000000000000000000000000848180700000002220192900017041002     201209112012071700000000054530000155433000000000155744000000000000000000000000000311050000000000  3020120912   01          2                                                                                   3112220192903293807258000029                                                  N                     01321  0000000        000095
12042956441000101SOLUCOES ACO USIMINAS                                                 0000000034100000000000000000000000000000848180710000002220192910017041202     201209112012071700000000054530000205421000000000205832000000000000000000000000000411050000000000  3020120912   01          2                                                                                   3112220192911293807258000019                                                  N                     01321  0000000        000096
12042956441000101SOLUCOES ACO USIMINAS                                                 0000000034100000000000000000000000000000850740460000002233586800017127201     201208202012072000000000054310000137881000000000144229000000000000000000000000006348050000000000  3020120912   01          2                                                                                   3112233586802293807258000019                                                  N                     01321  0000000        000097
12042956441000101SOLUCOES ACO USIMINAS                                                 0000000034100000000000000000000000000000855028660000002254329280017200301     201208232012072600000000054340000156943000000000163223000000000000000000000000006280050000000000  3020120912   01          2                                                                                   3112254329280293807258000019                                                  N                     01321  0000000        000098
12042956441000101SOLUCOES EM ACO USIMINAS S A                                          000000000010000000000000000000000000000082978011000000080476000000057680003   201209102012061800000000054520000431770000000000433498000000000000000000000000001728050000000000  3020120912   01          2                                                                                   3000000169660100000804761729                                                  N                     01321  0000000        000099
12042956441000101SOLUCOES EM ACO USIMINAS S A                                          000000000010000000000000000000000000000082978017000000081232000000165560003   201209102012061800000000054520000341008000000000342372000000000000000000000000001364050000000000  3020120912   01          2                                                                                   3000000169660100000812321769                                                  N                     01321  0000000        000100
12043217850000159IOB INFORMACOES OBJ  PUBL JURI                                        0000000023702374400000002958600 000000008540495200902212000099001440820E4     201208202012073000000000054310000072850000000000074859000000000000000000000000002009050000000000  3020120912   01          2  GANGES 528 VL NOVA MANCHESTER                                                    3                         000000000000000                                     N                     00598  0000000        000101
12044098788000196MAIAMI COM E IMP DE ROLAMENTOS                                        0000000023700503700000000367516 0000000086699211009022330000001010061         201209072012081700000000054490000015000000000000015250000000000000000000000000000250050000000000  3020120912   01          2  RUA GANGES 528 VL CARRAO                                                         3                         000000000000000                                     N                     00598  0000000        000102
12047190731000100DE CASTRO LOUREIRO ENGENHARIA                                         00000000033000000000000000000000000000008801227800000023000000003026825 0     201211292012090600000000055320001193040000000001193040000000000000000000000000000000050000000000  3020121129   01FS        1                                                                                   3948430370000009553223020319                                                  N                     01321  0000000        000103
12047190731000100DE CASTRO LOUREIRO ENGENHARIA                                         00000000033000000000000000000000000000008801227900000055000000003026838 0     201210082012091000000000054800000940006000000000940006000000000000000000000000000000050000000000  3020121008   01FS        1                                                                                   3948430370000009553355020389                                                  N                     01321  0000000        000104
12047190731000100DE CASTRO LOUREIRO ENGENHARIA                                         00000000033000000000000000000000000000008801228000000063000000003026838 0     201211052012091000000000055080000940006000000000940006000000000000000000000000000000050000000000  3020121105   01FS        1                                                                                   3948430370000009553363020339                                                  N                     01321  0000000        000105
12047190731000100DE CASTRO LOUREIRO ENGENHARIA                                         0000000023703394400000000205508 000000008801224700202255000000603026784 0     201209282012083100000000054700001041759000000001041759000000000000000000000000000000050000000000  3020120928   01FS        1  RUA JUNO  533                                                                    3                         000000000000000                                     N                     00598  0000000        000106
12047190731000100DE CASTRO LOUREIRO ENGENHARIA                                         00000000033000000000000000000000000000008801226500000034000000003026796 0     201211262012090300000000055290000551274000000000551274000000000000000000000000000000050000000000  3020121126   01FS        1                                                                                   3948430370000009553134020349                                                  N                     01321  0000000        000107
12047190731000100DE CASTRO LOUREIRO ENGENHARIA                                         0000000023703394400000000205508 000000008801224800202255000000703026784 0     201210262012083100000000054980001041759000000001041759000000000000000000000000000000050000000000  3020121026   01FS        1  RUA JUNO  533                                                                    3                         000000000000000                                     N                     00598  0000000        000108
12047190731000100DE CASTRO LOUREIRO ENGENHARIA                                         0000000023703394400000000205508 000000008801224900202255000000803026784 0     201211232012083100000000055260001042070000000001042070000000000000000000000000000000050000000000  3020121123   01FS        1  RUA JUNO  533                                                                    3                         000000000000000                                     N                     00598  0000000        000109
12047190731000100DE CASTRO LOUREIRO ENGENHARIA                                         00000000033000000000000000000000000000008801226600000042000000003026797 0     201210032012090300000000054750000422495000000000422495000000000000000000000000000000050000000000  3020121003   01FS        1                                                                                   3948430370000009553142020389                                                  N                     01321  0000000        000110
12047190731000100DE CASTRO LOUREIRO ENGENHARIA                                         00000000033000000000000000000000000000008801226700000050000000003026797 0     201210312012090300000000055030000422495000000000422495000000000000000000000000000000050000000000  3020121031   01FS        1                                                                                   3948430370000009553150020339                                                  N                     01321  0000000        000111
12047190731000100DE CASTRO LOUREIRO ENGENHARIA                                         00000000033000000000000000000000000000008801226800000018000000003026796 0     201210012012090300000000054730000551107000000000551107000000000000000000000000000000050000000000  3020121001   01FS        1                                                                                   3948430370000009553118020339                                                  N                     01321  0000000        000112
12047190731000100DE CASTRO LOUREIRO ENGENHARIA                                         00000000033000000000000000000000000000008801226900000026000000003026796 0     201210292012090300000000055010000551107000000000551107000000000000000000000000000000050000000000  3020121029   01FS        1                                                                                   3948430370000009553126020399                                                  N                     01321  0000000        000113
12047190731000100DE CASTRO LOUREIRO ENGENHARIA                                         00000000033000000000000000000000000000008801227000000015000000003026825 0     201211012012090600000000055040001192680000000001192680000000000000000000000000000000050000000000  3020121101   01FS        1                                                                                   3948430370000009553215020379                                                  N                     01321  0000000        000114
12047190731000100DE CASTRO LOUREIRO ENGENHARIA                                         00000000033000000000000000000000000000008801227100000085000000003026820 0     201211012012090500000000055040000919796000000000919796000000000000000000000000000000050000000000  3020121101   01FS        1                                                                                   3948430370000009553185020389                                                  N                     01321  0000000        000115
12047190731000100DE CASTRO LOUREIRO ENGENHARIA                                         00000000033000000000000000000000000000008801227200000093000000003026820 0     201211292012090500000000055320000920071000000000920071000000000000000000000000000000050000000000  3020121129   01FS        1                                                                                   3948430370000009553193020319                                                  N                     01321  0000000        000116
12047190731000100DE CASTRO LOUREIRO ENGENHARIA                                         00000000033000000000000000000000000000008801227300000069000000003026797 0     201211282012090300000000055310000422623000000000422623000000000000000000000000000000050000000000  3020121128   01FS        1                                                                                   3948430370000009553169020329                                                  N                     01321  0000000        000117
12047190731000100DE CASTRO LOUREIRO ENGENHARIA                                         00000000033000000000000000000000000000008801227400000007000000003026825 0     201210042012090600000000054760001192680000000001192680000000000000000000000000000000050000000000  3020121004   01FS        1                                                                                   3948430370000009553207020319                                                  N                     01321  0000000        000118
12047190731000100DE CASTRO LOUREIRO ENGENHARIA                                         00000000033000000000000000000000000000008801227500000077000000003026820 0     201210042012090500000000054760000919796000000000919796000000000000000000000000000000050000000000  3020121004   01FS        1                                                                                   3948430370000009553177020329                                                  N                     01321  0000000        000119
12047190731000100DE CASTRO LOUREIRO ENGENHARIA                                         00000000033000000000000000000000000000008801227600000071000000003026838 0     201212032012091000000000055360000940288000000000940288000000000000000000000000000000050000000000  3020121203   01FS        1                                                                                   3948430370000009553371020379                                                  N                     01321  0000000        000120
12047190731000100DE CASTRO LOUREIRO ENGENHARIA                                         0000000023703394400000000205508 000000008801225000202255000000903026787 0     201209282012083100000000054700001135987000000001135987000000000000000000000000000000050000000000  3020120928   01FS        1  RUA JUNO  533                                                                    3                         000000000000000                                     N                     00598  0000000        000121
12047190731000100DE CASTRO LOUREIRO ENGENHARIA                                         0000000023703394400000000205508 000000008801225100202255000001003026787 0     201210262012083100000000054980001135987000000001135987000000000000000000000000000000050000000000  3020121026   01FS        1  RUA JUNO  533                                                                    3                         000000000000000                                     N                     00598  0000000        000122
12047190731000100DE CASTRO LOUREIRO ENGENHARIA                                         0000000023703394400000000205508 000000008801225200202255000001103026787 0     201211232012083100000000055260001136326000000001136326000000000000000000000000000000050000000000  3020121123   01FS        1  RUA JUNO  533                                                                    3                         000000000000000                                     N                     00598  0000000        000123
12047190731000100DE CASTRO LOUREIRO ENGENHARIA                                         0000000023703394400000000205508 000000008801225300202255000001203026794 0     201210012012090300000000054730001209130000000001209130000000000000000000000000000000050000000000  3020121001   01FS        1  RUA JUNO  533                                                                    3                         000000000000000                                     N                     00598  0000000        000124
12047190731000100DE CASTRO LOUREIRO ENGENHARIA                                         0000000023703394400000000205508 000000008801225400202255000001303026794 0     201210292012090300000000055010001209130000000001209130000000000000000000000000000000050000000000  3020121029   01FS        1  RUA JUNO  533                                                                    3                         000000000000000                                     N                     00598  0000000        000125
12047190731000100DE CASTRO LOUREIRO ENGENHARIA                                         0000000023703394400000000205508 000000008801225500202255000001403026794 0     201211262012090300000000055290001209490000000001209490000000000000000000000000000000050000000000  3020121126   01FS        1  RUA JUNO  533                                                                    3                         000000000000000                                     N                     00598  0000000        000126
12047190731000100DE CASTRO LOUREIRO ENGENHARIA                                         0000000023703394400000000205508 000000008801225600202255000001503026795 0     201210012012090300000000054730001207555000000001207555000000000000000000000000000000050000000000  3020121001   01FS        1  RUA JUNO  533                                                                    3                         000000000000000                                     N                     00598  0000000        000127
12047190731000100DE CASTRO LOUREIRO ENGENHARIA                                         0000000023703394400000000205508 000000008801225700202255000001603026795 0     201210292012090300000000055010001207555000000001207555000000000000000000000000000000050000000000  3020121029   01FS        1  RUA JUNO  533                                                                    3                         000000000000000                                     N                     00598  0000000        000128
12047190731000100DE CASTRO LOUREIRO ENGENHARIA                                         0000000023703394400000000205508 000000008801225800202255000001703026795 0     201211262012090300000000055290001207915000000001207915000000000000000000000000000000050000000000  3020121126   01FS        1  RUA JUNO  533                                                                    3                         000000000000000                                     N                     00598  0000000        000129
12049341563000132JAC COMERCIO DE MATERIAIS ELET                                        00000000001000000000000000000000000000008661541900000070216400021490          201209112012081600000000054530000183867000000000184173000000000000000000000000000306050000000000  3020120912   01          2                                                                                   3000000192560143987021641199                                                  N                     01321  0000000        000130
12051180370000199IGUAFER FERRO E ACO LTDA                                              0000000034100000000000000000000000000000852309100000002239389789443 B         201209022012071800000000054440000168275000000000171075000000000000000000000000002800050000000000  3020120912   01          2                                                                                   3112239389789077149484600089                                                  N                     01321  0000000        000131
12051598472000129ELETRICA J SANTOS                                                     0000000023702451100000000000264 000000008523092000902208000004017933 03       201209052012072500000000054470000112771000000000115027000000000000000000000000002632050000000000  3020120911   06          3  R JUNO  533                                                                      3                         000000000000000                                     N                     00598  0000000        000132
12051598472000129ELETRICA J SANTOS                                                     0000000023702451100000000000264 000000008586165500902219000005118310 01       201209102012080400000000054520000104146000000000104840000000000000000000000000000694050000000000  3020120912   01          2  R JUNO  533                                                                      300000000000000000141500  000000000000000                                     N                     00598  0000000        000133
12053585766000141MULTIACOS INDUSTRIA E COMERCIO                                        0000000000100000000000000000000000000000874070630000007281110000004462401     201209102012082100000000054520000784572000000000787188000000000000000000000000002616050000000000  3020120912   01          2                                                                                   3043997281111912000139523189                                                  N                     01321  0000000        000134
12053585766000141MULTIACOS INDUSTRIA E COMERCIO                                        0000000000100000000000000000000000000000874070620000007281100000004462301     201209102012082100000000054520000270748000000000271650000000000000000000000000000902050000000000  3020120912   01          2                                                                                   3043997281101912000139523159                                                  N                     01321  0000000        000135
12053585766000141MULTIACOS INDUSTRIA E COMERCIO                                        0000000000100000000000000000000000000000874070560000007280290000004391602     201209112012082100000000054530000354262000000000354852000000000000000000000000000590050000000000  3020120912   01          2                                                                                   3043997280291912000139523149                                                  N                     01321  0000000        000136
12053585766000141MULTIACOS INDUSTRIA E COMERCIO                                        0000000000100000000000000000000000000000874070570000007280280000004391502     201209112012082100000000054530000319418000000000319950000000000000000000000000000532050000000000  3020120912   01          2                                                                                   3043997280281912000139523129                                                  N                     01321  0000000        000137
12053585766000141MULTIACOS INDUSTRIA E COMERCIO                                        0000000000100000000000000000000000000000874070580000007280300000004391702     201209112012082100000000054530000342203000000000342773000000000000000000000000000570050000000000  3020120912   01          2                                                                                   3043997280301912000139523189                                                  N                     01321  0000000        000138
12053585766000141MULTIACOS INDUSTRIA E COMERCIO                                        0000000000100000000000000000000000000000874070610000007281090000004462201     201209102012082100000000054520000586308000000000588262000000000000000000000000001954050000000000  3020120912   01          2                                                                                   3043997281091912000139523119                                                  N                     01321  0000000        000139
12054382510000108SETENTA IND E COM DE MADEIRAS                                         0000000034100000000000000000000000000000860403430000002277814474462 A         201209042012080700000000054460000191200000000000194208000000000000000000000000003008050000000000  3020120912   01          2                                                                                   3112277814474057049175300069                                                  N                     01321  0000000        000140
12055721609000141MAC SEG EQUIP DE SEGURANCA LT                                         0000000034100000000000000000000000000000862826120000002286897653190 1         201208312012080300000000054420000051440000000000053084000000000000000000000000001644050000000000  3020120912   01          2                                                                                   3112286897650037814415800069                                                  N                     01321  0000000        000141
12056993512000150CYKLOP DO BRASIL EMBALAGENS SA                                        0000000034100000000000000000000000000000878205080000002299329080132528        201209112012081400000000054530000083607000000000083914000000000000000000000000000307050000000000  3020120912   01          2                                                                                   3112299329089025786126000099                                                  N                     01321  0000000        000142
12056993900000131CIA METALURGICA PRADA                                                 0000000034100000000000000000000000000000844839050000002201181930025636202     201209052012071100000000054470000746213000000000754921000000000000000000000000008708050000000000  3020120912   01          2                                                                                   3112201181933293800573900019                                                  N                     01321  0000000        000143
12056993900000131CIA METALURGICA PRADA                                                 0000000034100000000000000000000000000000844839060000002201181940025644402     201209052012071100000000054470000779647000000000788740000000000000000000000000009093050000000000  3020120912   01          2                                                                                   3112201181941293800573900019                                                  N                     01321  0000000        000144
12056993900000131CIA METALURGICA PRADA                                                 0000000034100000000000000000000000000000848180620000002218222670025829902     201209112012071700000000054530000498118000000000498948000000000000000000000000000830050000000000  3020120912   01          2                                                                                   3112218222670293800573900029                                                  N                     01321  0000000        000145
12056993900000131CIA METALURGICA PRADA                                                 0000000034100000000000000000000000000000844839000000002201181880025629402     201209052012071100000000054470000249372000000000252284000000000000000000000000002912050000000000  3020120912   01          2                                                                                   3112201181883293800573900019                                                  N                     01321  0000000        000146
12056993900000131CIA METALURGICA PRADA                                                 0000000034100000000000000000000000000000844839010000002201181890025635302     201209052012071100000000054470000406842000000000411588000000000000000000000000004746050000000000  3020120912   01          2                                                                                   3112201181891293800573900019                                                  N                     01321  0000000        000147
12056993900000131CIA METALURGICA PRADA                                                 0000000034100000000000000000000000000000848180630000002218222680025830002     201209112012071700000000054530000247673000000000248086000000000000000000000000000413050000000000  3020120912   01          2                                                                                   3112218222688293800573900059                                                  N                     01321  0000000        000148
12056993900000131CIA METALURGICA PRADA                                                 0000000034100000000000000000000000000000848180640000002218222690025830102     201209112012071700000000054530000207402000000000207748000000000000000000000000000346050000000000  3020120912   01          2                                                                                   3112218222696293800573900039                                                  N                     01321  0000000        000149
12056993900000131CIA METALURGICA PRADA                                                 0000000034100000000000000000000000000000844839020000002201181900025635402     201209052012071100000000054470000208689000000000211125000000000000000000000000002436050000000000  3020120912   01          2                                                                                   3112201181909293800573900069                                                  N                     01321  0000000        000150
12056993900000131CIA METALURGICA PRADA                                                 0000000034100000000000000000000000000000844839030000002201181910025635502     201209052012071100000000054470000164780000000000166705000000000000000000000000001925050000000000  3020120912   01          2                                                                                   3112201181917293800573900029                                                  N                     01321  0000000        000151
12056993900000131CIA METALURGICA PRADA                                                 0000000034100000000000000000000000000000844839040000002201181920025635602     201209052012071100000000054470000339933000000000343902000000000000000000000000003969050000000000  3020120912   01          2                                                                                   3112201181925293800573900069                                                  N                     01321  0000000        000152
12056993900000131CIA METALURGICA PRADA                                                 0000000034100000000000000000000000000000824820100000002102181160024711603     201208292012060600000000054400000833146000000000852592000000000000000000000000019446050000000000  3020120912   01          2                                                                                   3112102181164293800573900039                                                  N                     01321  0000000        000153
12056993900000131CIA METALURGICA PRADA                                                 0000000034100000000000000000000000000000820562300000002080193680024478203     201208222012053000000000054330000113250000000000117219000000000000000000000000003969050000000000  3020120912   01          2                                                                                   3112080193686293800573900049                                                  N                     01321  0000000        000154
12056993900000131CIA METALURGICA PRADA                                                 0000000034100000000000000000000000000000820562310000002080193690024478303     201208222012053000000000054330000288295000000000298375000000000000000000000000010080050000000000  3020120912   01          2                                                                                   3112080193694293800573900029                                                  N                     01321  0000000        000155
12056993900000131CIA METALURGICA PRADA                                                 0000000034100000000000000000000000000000820562320000002080193700024499403     201208222012053000000000054330000597722000000000618638000000000000000000000000020916050000000000  3020120912   01          2                                                                                   3112080193702293800573900019                                                  N                     01321  0000000        000156
12056993900000131CIA METALURGICA PRADA                                                 0000000034100000000000000000000000000000820562330000002080193710024499503     201208222012053000000000054330000236585000000000244859000000000000000000000000008274050000000000  3020120912   01          2                                                                                   3112080193710293800573900019                                                  N                     01321  0000000        000157
12056993900000131CIA METALURGICA PRADA                                                 0000000034100000000000000000000000000000821491000000002084501930024572503     201208232012053100000000054340000217291000000000224531000000000000000000000000007240050000000000  3020120912   01          2                                                                                   3112084501934293800573900039                                                  N                     01321  0000000        000158
12056993900000131CIA METALURGICA PRADA                                                 0000000034100000000000000000000000000000822364950000002089776730024584703     201208242012060100000000054350000835797000000000862264000000000000000000000000026467050000000000  3020120912   01          2                                                                                   3112089776739293800573900019                                                  N                     01321  0000000        000159
12056993900000131CIA METALURGICA PRADA                                                 0000000034100000000000000000000000000000822364960000002089776740024585703     201208242012060100000000054350000393990000000000406473000000000000000000000000012483050000000000  3020120912   01          2                                                                                   3112089776747293800573900059                                                  N                     01321  0000000        000160
12056993900000131CIA METALURGICA PRADA                                                 0000000034100000000000000000000000000000823343300000002094231730024634103     201208272012060400000000054380000135902000000000139534000000000000000000000000003632050000000000  3020120912   01          2                                                                                   3112094231738293800573900079                                                  N                     01321  0000000        000161
12056993900000131CIA METALURGICA PRADA                                                 0000000034100000000000000000000000000000823343310000002094231740024634203     201208272012060400000000054380000247806000000000254414000000000000000000000000006608050000000000  3020120912   01          2                                                                                   3112094231746293800573900019                                                  N                     01321  0000000        000162
12056993900000131CIA METALURGICA PRADA                                                 0000000034100000000000000000000000000000823343330000002094231750024634603     201208272012060400000000054380000124715000000000128043000000000000000000000000003328050000000000  3020120912   01          2                                                                                   3112094231753293800573900039                                                  N                     01321  0000000        000163
12056993900000131CIA METALURGICA PRADA                                                 0000000034100000000000000000000000000000823343340000002094231760024634703     201208272012060400000000054380000508859000000000522427000000000000000000000000013568050000000000  3020120912   01          2                                                                                   3112094231761293800573900019                                                  N                     01321  0000000        000164
12056993900000131CIA METALURGICA PRADA                                                 0000000034100000000000000000000000000000823343350000002094231770024634803     201208272012060400000000054380000264511000000000271567000000000000000000000000007056050000000000  3020120912   01          2                                                                                   3112094231779293800573900089                                                  N                     01321  0000000        000165
12056993900000131CIA METALURGICA PRADA                                                 0000000034100000000000000000000000000000838527920000002171340460025384302     201208272012063000000000054380000454477000000000466589000000000000000000000000012112050000000000  3020120912   01          2                                                                                   3112171340469293800573900019                                                  N                     01321  0000000        000166
12056993900000131CIA METALURGICA PRADA                                                 0000000034100000000000000000000000000000840312930000002179478290025419302     201208282012070300000000054390000402178000000000412228000000000000000000000000010050050000000000  3020120912   01          2                                                                                   3112179478295293800573900089                                                  N                     01321  0000000        000167
12056993900000131CIA METALURGICA PRADA                                                 0000000034100000000000000000000000000000840312940000002179478300025419402     201208282012070300000000054390000322804000000000330874000000000000000000000000008070050000000000  3020120912   01          2                                                                                   3112179478303293800573900079                                                  N                     01321  0000000        000168
12056993900000131CIA METALURGICA PRADA                                                 0000000034100000000000000000000000000000855028560000002254750260026244401     201208272012072800000000054380000084368000000000086624000000000000000000000000002256050000000000  3020120912   01          2                                                                                   3112254750261293800573900089                                                  N                     01321  0000000        000169
12056993900000131CIA METALURGICA PRADA                                                 0000000034100000000000000000000000000000837460360000002165934320025295402     201208232012062800000000054340000152797000000000157897000000000000000000000000005100050000000000  3020120912   01          2                                                                                   3112165934327293800573900029                                                  N                     01321  0000000        000170
12056993900000131CIA METALURGICA PRADA                                                 0000000034100000000000000000000000000000837460370000002165934330025295502     201208232012062800000000054340000339049000000000350349000000000000000000000000011300050000000000  3020120912   01          2                                                                                   3112165934335293800573900029                                                  N                     01321  0000000        000171
12056993900000131CIA METALURGICA PRADA                                                 0000000034100000000000000000000000000000837460420000002165934340025295602     201208232012062800000000054340000154164000000000159304000000000000000000000000005140050000000000  3020120912   01          2                                                                                   3112165934343293800573900099                                                  N                     01321  0000000        000172
12056993900000131CIA METALURGICA PRADA                                                 0000000034100000000000000000000000000000837460430000002165934350025295702     201208232012062800000000054340000139528000000000144188000000000000000000000000004660050000000000  3020120912   01          2                                                                                   3112165934350293800573900019                                                  N                     01321  0000000        000173
12056993900000131CIA METALURGICA PRADA                                                 0000000034100000000000000000000000000000838527910000002171340450025383502     201208272012063000000000054380000575128000000000590472000000000000000000000000015344050000000000  3020120912   01          2                                                                                   3112171340451293800573900039                                                  N                     01321  0000000        000174
12056993900000131CIA METALURGICA PRADA                                                 0000000034100000000000000000000000000000844839140000002201181870025629302     201209052012071100000000054470000257906000000000260916000000000000000000000000003010050000000000  3020120912   01          2                                                                                   3112201181875293800573900069                                                  N                     01321  0000000        000175
12056993900000131CIA METALURGICA PRADA                                                 0000000034100000000000000000000000000000855028550000002254750250026244301     201208272012072800000000054380000100986000000000103674000000000000000000000000002688050000000000  3020120912   01          2                                                                                   3112254750253293800573900099                                                  N                     01321  0000000        000176
12057029431000106ATLAS COPCO BRASIL LTDA                                               0000000034100000000000000000000000000000863731640000002292733057000054146     201209072012081000000000054490000081450000000000081720000000000000000000000000000270050000000000  3020120912   01          2                                                                                   3112292733055293804111400099                                                  N                     01321  0000000        000177
12057029431000106ATLAS COPCO BRASIL LTDA                                               0000000034100000000000000000000000000000861960280000002283943487000054090     201209062012080900000000054480000059490000000000059724000000000000000000000000000234050000000000  3020120912   01          2                                                                                   3112283943481293804111400069                                                  N                     01321  0000000        000178
12057158057000130COMERCIAL ELETRICA PJ LTDA                                            0000000023703394400000000972983 00000000858616570090221900002850000312326     201208272012073000000000054380000076707000000000078492000000000000000000000000002040050000000000  3020120903   06          3  R TAMAINDE 1410                                                                  3                         000000000000000                                     N                     00598  0000000        000179
12057158057000130COMERCIAL ELETRICA PJ LTDA                                            0000000023703394400000000972983 00000000842436850090219200008900000305028     201208012012070400000000054120000079196000000000090242000000000000000000000000011046050000000000  3020120912   01          2  R TAMAINDE 1410                                                                  3                         000000000000000                                     N                     00598  0000000        000180
12057196081000164MINELE COMERCIO DE PARAFUSOS L                                        0000000023700298400000002047470 0000000086961109009022400000008538            201209102012082700000000054520000035981000000000037220000000000000000000000000001239050000000000  3020120912   01          2  R  GANGES  528   VL CARRAO                                                       3                         000000000000000                                     N                     00598  0000000        000181
12059659615000177DZ COMERCIO R E SERVICOS LTDA                                         000000003410000000000000000000000000000086699206000000900000270251            201209032012081500000000054450000060000000000000061080000000000000000000000000001080050000000000  3020120912   01          2                                                                                   3109000002706000314585100019                                                  N                     01321  0000000        000182
12059876565000180ITALLUX INDUSTRIA E COMERCIO L                                        000000000010000000000000000000000000000085152921000000223041000003868         201209012012072400000000054430000180000000000000184206000000000000000000000000004206050000000000  3020120912   01          2                                                                                   3043922230411203000086821129                                                  N                     01321  0000000        000183
12060830544000102TORRES GALVANIZACAO A FOGO LTD                                        0000000023702531300000000105007 0000000088012245009013225501782007494         201210022012090400000000054740000309600000000000309600000000000000000000000000000000050000000000  3020121002   01FS        1  RUA GANGES  528                                                                  3                         000000000000000                                     N                     00598  0000000        000184
12061217188000119TELAS METALICAS TELMETAL LTDA                                         0000000003300000000000000000000000000000854049650000001400000005425 3 3       201209102012073000000000054520000045017000000000045257000000000000000000000000000240050000000000  3020120912   01          2                                                                                   3915435040000000047414020129                                                  N                     01321  0000000        000185
12061217188000119TELAS METALICAS TELMETAL LTDA                                         0000000000100000000000000000000000000000864554360000000056130005494 1 3       201209112012081400000000054530000008494000000000008517000000000000000000000000000023050000000000  3020120912   01          2                                                                                   3000000115031800000056131749                                                  N                     01321  0000000        000186
12061217188000119TELAS METALICAS TELMETAL LTDA                                         0000000000100000000000000000000000000000863731660000000056070005492 1 3       201209102012081300000000054520000043177000000000043407000000000000000000000000000230050000000000  3020120912   01          2                                                                                   3000000115031800000056071739                                                  N                     01321  0000000        000187
12061217188000119TELAS METALICAS TELMETAL LTDA                                         0000000000100000000000000000000000000000863731670000000056100005493 1 3       201209102012081300000000054520000017104000000000017196000000000000000000000000000092050000000000  3020120912   01          2                                                                                   3000000115031800000056101759                                                  N                     01321  0000000        000188
12061600839000155CENTRO DE INT EMPRESA ESCOLA C                                        0000000023703391P00000000866202 00000000880122440090000036173097641C 0001     201209302012091000000000054720000016800000000000016800000000000000000000000000000000050000000000  3020121001   01FS        1  R GANGES  528                                                                    3                         000000000000000                                     N                     00598  0000000        000189
12062340989000130EDICOES ADUANEIRAS LTDA                                               0000000023703090200000000015660 0000000079108231009080000035029004262 C       201208302012041100000000054410000043600000000000044464000000000000000000000000000936050000000000  3020120911   06          3  RUA TAMAINDE 1410 RUA GANGES 520 E 528                                           3                         000000000000000                                     N                     00598  0000000        000190
12064952757000168WALMAC COM DE PROD QUIMICOS LT                                        0000000034100000000000000000000000000000860403460000002275821710020148        201208312012080300000000054420000219267000000000224439000000000000000000000000005172050000000000  3020120912   01          2                                                                                   3112275821711064807961400079                                                  N                     01321  0000000        000191
12064952757000168WALMAC COM DE PROD QUIMICOS LT                                        0000000034100000000000000000000000000000844063790000002196829090019356        201209042012071000000000054460000219267000000000222715000000000000000000000000003448050000000000  3020120912   01          2                                                                                   3112196829090064807961400019                                                  N                     01321  0000000        000192
12066841552000130R V SEG PATRIMONIAL S C LTDA                                          00000000341000000000000000000000000000008661542000000090002192721927          201209102012081000000000054520000483241000000000483563000000000000000000000000000322050000000000  3020120912   01          2                                                                                   3109000219278001838994000019                                                  N                     01321  0000000        000193
12069284248000128ISOCOAT TINTAS E VERNIZES LTDA                                        0000000034100000000000000000000000000000841061020000002182507920052085        201208312012070200000000054420000236060000000000243608000000000000000000000000007548050000000000  3020120912   01          2                                                                                   3112182507924077430121200069                                                  N                     01321  0000000        000194
12069284248000128ISOCOAT TINTAS E VERNIZES LTDA                                        0000000034100000000000000000000000000000835620780000002157949160051735        201209102012062500000000054520000127358000000000128038000000000000000000000000000680050000000000  3020120912   01          2                                                                                   3112157949168077430121200029                                                  N                     01321  0000000        000195
12069309706000136F N A TRANSPORTES LTDA                                                000000003410000000000000000000000000000086615421000000900010656059068         201208302012081500000000054410000079200000000000082632000000000000000000000000003432050000000000  3020120912   01          2                                                                                   3109000106565005486932600099                                                  N                     01321  0000000        000196
12075483040000130REX MAQUINAS E EQUIPAMENTOS LT                                        00000000001000000000000000000000000000008681263000000091237000079547 2 1      201209062012082100000000054480000064350000000000064992000000000000000000000000000642050000000000  3020120912   01          2                                                                                   3043999123703420001185301189                                                  N                     01321  0000000        000197
12092693118000160BRADESCO SAUDE S A                                                    0000000023700448000000001533991 00000000847452120050100745572410000000000     201208202012071700000000054310000645861000000000655429000000000000000000000000009568050000000000  3020120912   01          2                                                                                   3                         000000000000000                                     N                     00598  0000000        000198
11762953468000004LAERTES ANTONIO BARUSSO                                               0000000034100000000000000000000000000000880122460000007950427428564           201209262012091100000000054680000180000000000000180000000000000000000000000000000000050000000000  3020120926   01FS        1                                                                                   3157950427424014026273400059                                                  N                     01321  0000000        000199
