0000147602043799295000110ALTAMIRA INDUSTRIA METALURGICA LT       202000000014620121012061532             1                                                                                                                                                                                                                                                                                                                                                                                                    000001
12000846804000106BRIDA LUBRIF LTDA                                                     000000003410000000000000000000000000000088524831000000900409916002347751      201210112012091300000000054830000059225000000000059937000000000000000000000000000712050000000000  3020121015   01          2                                                                                   3109004099167293816860200019                                                  N                     01321  0000000        000002
12001852612000175BT EQUIPAMENTOS INDUSTRIAIS LT                                        000000000330000000000000000000000000000087577366000000610000000594061         201210012012090600000000054730000041502000000000043252000000000000000000000000001750050000000000  3020121015   01          2                                                                                   3913651000000000594061010479                                                  N                     01321  0000000        000003
12001862327000135ALPHA CLEAN DISTRIBUIDORA LTDA                                        0000000023700093000000001087509 0000000089962491009022850000030008364         201211062012100900000000055090000032724000000000032724000000000000000000000000000000050000000000  3020121106   01FS        1  RUA TAMAINDE 1410                                                                3                         000000000000000                                     N                     00598  0000000        000004
12002269980000158PANKRO LOGISTICA E TRANSPORTES                                        000000003410000000000000000000000000000088012261000000237715427204 12         201209282012080900000000054700000300000000000000300000000000000000000000000000000000050000000000  3020120928   05          3                                                                                   3112377154276315090027600049                                                  N                     01321  0000000        000005
12002460454000170AUT SERVICE COMERCIO E SERVICO                                        0000000023702591700000000007692 000000008515292000901322060028234532 2        201209172012072400000000054590000238750000000000264071000000000000000000000000025321050000000000  3020121015   01          2  RUA JUNO  533                                                                    3                         000000000000000                                     N                     00598  0000000        000006
12002469103000120COMPROCRED FOMENTO MERCANTIL L                                        0000000023703511400000000106739 0000000088012259002022550000043022145 12      201210012012090500000000054730000093000000000000097340000000000000000000000000004340050000000000  3020121015   01          2  RUA TAMAINDE 1410 VILA NOVA MANCH SAO PATRANSPORTADORA FIOROT LTDA               3                         000252984000106                                     N                     00598  0000000        000007
12002503185000182ANDAIMES MAQUINAS BIG LTDA EPP                                        000000003410000000000000000000000000000086282613000000228719913011660         201208302012081000000000054410000012000000000000012608000000000000000000000000000608050000000000  3020121015   01          2                                                                                   3112287199130650303800900039                                                  N                     01321  0000000        000008
12002503185000182ANDAIMES E MAQUINAS BIG LTDA                                          000000003410000000000000000000000000000087820531000000233954448011791         201209212012082700000000054630000026000000000000026928000000000000000000000000000928050000000000  3020121015   01          2                                                                                   3112339544481925303435000019                                                  N                     01321  0000000        000009
12003163055000100JN FOMENTO MERCANTIL LTDA                                             000000004220000000000000000000000000000088191353000000000000000509 12         201210092012091200000000054810000015000000000000015180000000000000000000000000000180050000000000  3020121015   01          2                                                                                   3700400001182791920957609119                                                  N                     01321  0000000        000010
12003372804000100TROPICAL CLEAN COMERCIAL LTDA                                         00000000033000000000000000000000000000008996249300000059000000056986          201210142012091800000000054860000048259000000000048259000000000000000000000000000000050000000000  3020121015   01FS        1                                                                                   3913215100000006396259020199                                                  N                     01321  0000000        000011
12003489596000123BEND FLEX I COMERCIO LTDA                                             000000003410000000000000000000000000000088350832000000171879874608            201209122012082100000000054540000695250000000000740361000000000000000000000000045111050000000000  3020121015   01          2                                                                                   3191718798744157734445800069                                                  N                     01321  0000000        000012
12003489596000123BEND FLEX I COMERCIO LTDA                                             000000003410000000000000000000000000000088599899000000171434574613            201209172012081600000000054590000585000000000000617228000000000000000000000000032228050000000000  3020121015   01          2                                                                                   3191714345748157734445800019                                                  N                     01321  0000000        000013
12003489596000123BEND FLEX I COMERCIO LTDA                                             000000003410000000000000000000000000000089518988000000173425770617            201210012012083000000000054730000722200000000000742080000000000000000000000000019880050000000000  3020121015   01          2                                                                                   3191734257709157734445800079                                                  N                     01321  0000000        000014
12003489596000123BEND FLEX I COMERCIO LTDA                                             000000003410000000000000000000000000000087231864000000793891785617            201210012012090300000000054730000722200000000000740904000000000000000000000000020124050000000000  3020121004   05          3                                                                                   3157938917859157734445800069                                                  N                     01321  0000000        000015
12005335228000156DINAMICA INF E TELECOM LTDA EP                                        0000000023703257300000000503215 0000000088443245009032570017396MO008960A      201209302012091700000000054720000020000000000000021005000000000000000000000000001005050000000000  3020121015   01          2  RUA JUNO  533                                                                    3                         000000000000000                                     N                     00598  0000000        000016
12005852768000107DAOUD LEAL ELETRONICA LTDA ME                                         00000000033000000000000000000000000000008757736700000021000000000000000001097 201209262012090500000000054680000016558000000000017934000000000000000000000000001376050000000000  3020121015   01          2                                                                                   3949927090000000027421010429                                                  N                     01321  0000000        000017
12006000195000156MBA MERCANTIL BRAS DE ACO LTDA                                        0000000034100000000000000000000000000000889578520000001671394540008920B02     201209162012071700000000054580000576585000000000609471000000000000000000000000032886050000000000  3020121015   01          2                                                                                   3191671394549064849251000099                                                  N                     01321  0000000        000018
12006000195000156MBA MERCANTIL BRAS DE ACO LTDA                                        0000000034100000000000000000000000000000886866570000001667238410008874B02     201209132012071600000000054550000802826000000000853354000000000000000000000000050528050000000000  3020121015   01          2                                                                                   3191667238411064849251000049                                                  N                     01321  0000000        000019
12006000195000156MBA MERCANTIL BRAS DE ACO LTDA                                        0000000034100000000000000000000000000000885998980000001667238420008870B02     201209112012071600000000054530000839952000000000896120000000000000000000000000056168050000000000  3020121015   01          2                                                                                   3191667238429064849251000039                                                  N                     01321  0000000        000020
12006000195000156MBA MERCANTIL BRAS DE ACO LTDA                                        0000000034100000000000000000000000000000887698080000001667238400008876B02     201209142012071600000000054560000810321000000000859735000000000000000000000000049414050000000000  3020121015   01          2                                                                                   3191667238403064849251000059                                                  N                     01321  0000000        000021
12006000195000156MBA MERCANTIL BRAS DE ACO LTDA                                        0000000034100000000000000000000000000000887698090000001671394550008925B02     201209142012071700000000054560000719581000000000763446000000000000000000000000043865050000000000  3020121015   01          2                                                                                   3191671394556064849251000089                                                  N                     01321  0000000        000022
12006000195000156MBA MERCANTIL BRAS DE ACO LTDA                                        0000000034100000000000000000000000000000887698100000001671394560008926B02     201209142012071700000000054560000387716000000000411369000000000000000000000000023653050000000000  3020121015   01          2                                                                                   3191671394564064849251000019                                                  N                     01321  0000000        000023
12006000195000156MBA MERCANTIL BRAS DE ACO LTDA                                        0000000034100000000000000000000000000000872952920000002358952280009401B01     201209272012083000000000054690000254800000000000254800000000000000000000000000000000050000000000  3020120927   05          3                                                                                   3112358952284064899001800019                                                  N                     01321  0000000        000024
12006000195000156M B A MERCANTIL BRASILEIRA DE                                         0000000000100000000000000000000000000000841061000000008760980000008769B03     201209282012070500000000054700000623994000000000630234000000000000000000000000007280050000000000  3020121004   05          3                                                                                   3043878760983333000105251189                                                  N                     01321  0000000        000025
12006000195000156M B A MERCANTIL BRASILEIRA DE                                         0000000023700118P00000002130599 00000000868592690020223600000020009229B02     201210112012081600000000054830000253414000000000255102000000000000000000000000001688050000000000  3020121015   01          2  RUA JUNO  533                                                                    3                         000000000000000                                     N                     00598  0000000        000026
12006000195000156M B A MERCANTIL BRASILEIRA DE                                         0000000023700118P00000002130599 00000000848180740020220100000050008872B03     201210092012071700000000054810000112772000000000113900000000000000000000000000001128050000000000  3020121015   01          2  RUA JUNO  533                                                                    3                         000000000000000                                     N                     00598  0000000        000027
12006000195000156M B A MERCANTIL BRASILEIRA DE                                         0000000023700118P00000002130599 00000000848180770020220100000340008905B03     201210112012071900000000054830000155300000000000156336000000000000000000000000001036050000000000  3020121015   01          2  RUA JUNO  533                                                                    3                         000000000000000                                     N                     00598  0000000        000028
12006000195000156M B A MERCANTIL BRASILEIRA DE                                         0000000023700118P00000002130599 00000000865388230020222900000440009203B02     201210102012081500000000054820000344980000000000347855000000000000000000000000002875050000000000  3020121015   01          2  RUA JUNO  533                                                                    3                         000000000000000                                     N                     00598  0000000        000029
12006000195000156M B A MERCANTIL BRASILEIRA DE                                         0000000023700118P00000002130599 00000000865388260020222900000470009204B02     201210112012081500000000054830000127292000000000128140000000000000000000000000000848050000000000  3020121015   01          2  RUA JUNO  533                                                                    3                         000000000000000                                     N                     00598  0000000        000030
12006867297000173MARCOS ANTONIO RIBEIRO ACOS                                           0000000034100000000000000000000000000000881913470000002386992240000433        201210082012091200000000054800000042270000000000043250000000000000000000000000000980050000000000  3020121015   01          2                                                                                   3112386992245046769908800059                                                  N                     01321  0000000        000031
12007175725000160WEG EQUIPAMENTOS ELETRICOS SA                                         0000000023702727800000000196800 00000000832180610090217400004980095359902     201209202012052300000000054620000272787000000000281862000000000000000000000000009075050000000000  3020121015   01          2  R JUNO  533                                                                      3                         000000000000000                                     N                     00598  0000000        000032
12008263210000184BETA COM IMP EXP DE FERRAMENT                                         0000000034100000000000000000000000000000899624900000006154761652830A          201211072012101100000000055100000032025000000000032025000000000000000000000000000000050000000000  3020121107   01FS        1                                                                                   3156154761657808333717300079                                                  N                     01321  0000000        000033
12008272923000104P SANTOS ESQUADRARIAS METAL ME                                        0000000034100000000000000000000000000000896979550000006153947641850           201211122012100800000000055150000400000000000000400000000000000000000000000000000000050000000000  3020121112   01          2                                                                                   3156153947640160141951600099                                                  N                     01321  0000000        000034
12011202309000180FIEL TOOLS DISTRIBUIDORA DE MA                                        0000000023702087700000000000116 0000000087577361009000020194031009403 1       201210042012090600000000054760000041000000000000041000000000000000000000000000000000050000000000  3020121004   05          3  R TAMAINDE  1 410   RUA GANGES  520 E 52                                         3                         000000000000000                                     N                     00598  0000000        000035
12011202309000180FIEL TOOLS DISTRIBUIDORA DE MA                                        0000000023702087700000000000116 0000000089962492009000020194031009403 1       201210042012090600000000054760000041000000000000042476000000000000000000000000001476050000000000  3020121015   01FS        1  R TAMAINDE  1 410   RUA GANGES  520 E 52                                         3                         000000000000000                                     N                     00598  0000000        000036
12011318709000156IMPAKTO TRANSPORTES                                                   0000000000100000000000000000000000000000887697860000000000930006586           201210112012092100000000054830000052974000000000055974000000000000000000000000003000050000000000  3020121015   01          2                                                                                   3000000245286000000000931799                                                  N                     01321  0000000        000037
12011389422000117NELSON RODRIGUES DA SILVA JUNI                                        00000000104000000000000000000000000000008996247500000000092830014922          201210312012101000000000055030000045000000000000045000000000000000000000000000000000050000000000  3020121031   01FS        1                                                                                   3900000092802478700000058749                                                  N                     01321  0000000        000038
12012006058000121WEG TINTAS LTDA                                                       0000000023702727800000000001309 00000000841061130090218800000850014990203     201209182012070500000000054600000306662000000000317678000000000000000000000000011016050000000000  3020121015   01          2  R JUNO  533                                                                      3                         000000000000000                                     N                     00598  0000000        000039
12012006058000121WEG TINTAS LTDA                                                       0000000023702727800000000001309 00000000842436840090219200000860015068803     201209222012070900000000054640000306662000000000316046000000000000000000000000009384050000000000  3020121015   01          2  R JUNO  533                                                                      3                         000000000000000                                     N                     00598  0000000        000040
12012006058000121WEG TINTAS LTDA                                                       0000000023702727800000000001309 00000000868126340090223500001170016086601     201210052012082100000000054770000306569000000000310649000000000000000000000000004080050000000000  3020121015   01          2  R JUNO  533                                                                      3                         000000000000000                                     N                     00598  0000000        000041
12012006058000121WEG TINTAS LTDA                                                       0000000023702727800000000001309 00000000856071260090221400000830015587302     201209292012073100000000054710000459854000000000469662000000000000000000000000009808050000000000  3020121015   01          2  R JUNO  533                                                                      3                         000000000000000                                     N                     00598  0000000        000042
12012006058000121WEG TINTAS LTDA                                                       0000000023702727800000000001309 00000000870177480090224100000970016248001     201210112012082700000000054830000306569000000000308201000000000000000000000000001632050000000000  3020121015   01          2  R JUNO  533                                                                      3                         000000000000000                                     N                     00598  0000000        000043
12012006058000121WEG TINTAS LTDA                                                       0000000023702727800000000001309 00000000847452150090220000000920015248102     201209152012071700000000054570000306569000000000318809000000000000000000000000012240050000000000  3020121015   01          2  R JUNO  533                                                                      3                         000000000000000                                     N                     00598  0000000        000044
12012006058000121WEG TINTAS LTDA                                                       0000000023702727800000000001309 00000000847452160090220000000930015248103     201209302012071700000000054720000306662000000000312782000000000000000000000000006120050000000000  3020121015   01          2  R JUNO  533                                                                      3                         000000000000000                                     N                     00598  0000000        000045
12012006058000121WEG TINTAS LTDA                                                       0000000023702727800000000001309 00000000864554440090222800000730015908401     201209282012081400000000054700000306569000000000313505000000000000000000000000006936050000000000  3020121015   01          2  R JUNO  533                                                                      3                         000000000000000                                     N                     00598  0000000        000046
12012006058000121WEG TINTAS LTDA                                                       0000000023702727800000000001309 00000000861207260090222200000900015775001     201209222012080800000000054640000306569000000000315953000000000000000000000000009384050000000000  3020121015   01          2  R JUNO  533                                                                      3                         000000000000000                                     N                     00598  0000000        000047
12012006058000121WEG TINTAS LTDA                                                       0000000023702727800000000001309 00000000861207270090222200000910015775002     201210072012080800000000054790000306569000000000309833000000000000000000000000003264050000000000  3020121015   01          2  R JUNO  533                                                                      3                         000000000000000                                     N                     00598  0000000        000048
12012006058000121WEG TINTAS LTDA                                                       0000000023702727800000000001309 00000000844839240090219500000730015168703     201209252012071200000000054670000306662000000000314822000000000000000000000000008160050000000000  3020121015   01          2  R JUNO  533                                                                      3                         000000000000000                                     N                     00598  0000000        000049
12012006058000121WEG TINTAS LTDA                                                       0000000023702727800000000001309 00000000856071250090221400000820015587301     201209142012073100000000054560000459854000000000478857000000000000000000000000019003050000000000  3020121015   01          2  R JUNO  533                                                                      3                         000000000000000                                     N                     00598  0000000        000050
12012006058000121WEG TINTAS LTDA                                                       0000000023702727800000000001309 00000000849855330090220500001210015343102     201209182012072000000000054600000306569000000000317585000000000000000000000000011016050000000000  3020121015   01          2  R JUNO  533                                                                      3                         000000000000000                                     N                     00598  0000000        000051
12012006058000121WEG TINTAS LTDA                                                       0000000023702727800000000001309 00000000849855340090220500001220015343103     201210032012072000000000054750000306662000000000311558000000000000000000000000004896050000000000  3020121015   01          2  R JUNO  533                                                                      3                         000000000000000                                     N                     00598  0000000        000052
12012006058000121WEG TINTAS LTDA                                                       0000000023702727800000000001309 00000000854049550090221200001010015513002     201209252012072700000000054670000459854000000000472114000000000000000000000000012260050000000000  3020121015   01          2  R JUNO  533                                                                      3                         000000000000000                                     N                     00598  0000000        000053
12012006058000121WEG TINTAS LTDA                                                       0000000023702727800000000001309 00000000854049560090221200001020015513003     201210102012072700000000054820000459992000000000463057000000000000000000000000003065050000000000  3020121015   01          2  R JUNO  533                                                                      3                         000000000000000                                     N                     00598  0000000        000054
12014309992000148WEG DRIVES   CONTROLS   AUTOMA                                        0000000023702727800000000001872 00000000828904050090217000002200005763302     201209152012051800000000054570000272992000000000283882000000000000000000000000010890050000000000  3020121015   01          2  R JUNO  533                                                                      3                         000000000000000                                     N                     00598  0000000        000055
12014775592000128HELIO ADRIANO DA SILVA ME                                             0000000003300000000000000000000000000000887698150000005800000008682           201210102012092100000000054820000040000000000000040933000000000000000000000000000933050000000000  3020121015   01          2                                                                                   3956114740000000000058010159                                                  N                     01321  0000000        000056
12014775592000128HELIO ADRIANO DA SILVA ME                                             0000000003300000000000000000000000000000880122770000004900000008565 8566      201209282012091000000000054700000034500000000000035580000000000000000000000000001080050000000000  3020121015   01          2                                                                                   3956114740000000000049010129                                                  N                     01321  0000000        000057
12015251825000156JOSEFA A LIMA DOS SANTOS EPP                                          000000003410000000000000000000000000000088191339000000795424054841            201210112012091300000000054830000021500000000000022675000000000000000000000000001175050000000000  3020121015   01          2                                                                                   3157954240547810513909400039                                                  N                     01321  0000000        000058
12016802308000190TRANSMARRECO LTDA                                                     000000000330000000000000000000000000000088769814000000640000000353 12         201210052012092100000000054770000106581000000000111913000000000000000000000000005332050000000000  3020121015   01          2                                                                                   3907636240000000643564010119                                                  N                     01321  0000000        000059
12033325184001786ALSCO TOALHEIRO BRASIL                                                0000000023703396000000001490850 0000000087820607009000002716505VM27165        201209262012090600000000054680000045665000000000046539000000000000000000000000000874050000000000  3020121015   01          2  RUA  GANGES 528                                                                  3                         000000000000000                                     N                     00598  0000000        000060
12033325184001786ALSCO TOALHEIRO BRASIL                                                0000000023703396000000001490850 0000000087820608009000028814703VM00288147     201210052012090100000000054770000026347000000000026607000000000000000000000000000260050000000000  3020121015   01          2  RUA  GANGES 528                                                                  3                         000000000000000                                     N                     00598  0000000        000061
12035820448000136WHITE MARTINS GASES INDUSTRIAI                                        0000000023700026400000003937925 0000000087168275009022440000143375351 001     201209272012083100000000054690000040575000000000042358000000000000000000000000001783050000000000  3020121015   01          2  RUA GANGES  528                                                                  3                         000000000000000                                     N                     00598  0000000        000062
12035820448000136WHITE MARTINS GASES INDUSTRIAI                                        0000000023700026400000003937925 0000000088266840009022580000485380402 001     201210112012091400000000054830000028403000000000029007000000000000000000000000000604050000000000  3020121015   01          2  RUA GANGES  528                                                                  3                         000000000000000                                     N                     00598  0000000        000063
12035820448000136WHITE MARTINS GASES INDUSTRIAI                                        0000000023700026400000003937925 0000000087577331009022500001416377141 001     201210022012090600000000054740000040575000000000041568000000000000000000000000000993050000000000  3020121015   01          2  RUA GANGES  528                                                                  3                         000000000000000                                     N                     00598  0000000        000064
12035820448000136WHITE MARTINS GASES INDUSTRIAI                                        0000000023700026400000003937925 0000000087067052009022420002594374120 001     201209252012082900000000054670000113610000000000118902000000000000000000000000005292050000000000  3020121015   01          2  RUA GANGES  528                                                                  3                         000000000000000                                     N                     00598  0000000        000065
12035820448000136WHITE MARTINS GASES INDUSTRIAI                                        0000000023700026400000003937925 0000000087820600009022540001838377866 001     201210042012090700000000054760000202876000000000207681000000000000000000000000004805050000000000  3020121015   01          2  RUA GANGES  528                                                                  3                         000000000000000                                     N                     00598  0000000        000066
12035820448000136WHITE MARTINS GASES INDUSTRIAI                                        0000000023700026400000003937925 0000000086907101009022370010705372273 001     201209202012082400000000054620000017600000000000018527000000000000000000000000000927050000000000  3020121015   01          2  RUA GANGES  528                                                                  3                         000000000000000                                     N                     00598  0000000        000067
12035820448000136WHITE MARTINS GASES INDUSTRIAI                                        0000000023700026400000003937925 0000000086907102009022370011747372774 001     201209202012082400000000054620000040575000000000042736000000000000000000000000002161050000000000  3020121015   01          2  RUA GANGES  528                                                                  3                         000000000000000                                     N                     00598  0000000        000068
12035820448000136WHITE MARTINS GASES INDUSTRIAI                                        0000000023700026400000003937925 0000000088191338009022570001466379316 001     201210092012091300000000054810000085208000000000087080000000000000000000000000001872050000000000  3020121015   01          2  RUA GANGES  528                                                                  3                         000000000000000                                     N                     00598  0000000        000069
12035820448000136WHITE MARTINS GASES INDUSTRIAI                                        0000000023700026400000003937925 0000000086699210009022330000393368126 001     201209142012081800000000054560000162300000000000172242000000000000000000000000009942050000000000  3020121015   01          2  RUA GANGES  528                                                                  3                         000000000000000                                     N                     00598  0000000        000070
12035820448000136WHITE MARTINS GASES INDUSTRIAI                                        0000000023700026400000003937925 0000000086812633009022350001453369229 001     201209182012082200000000054600000056805000000000059993000000000000000000000000003188050000000000  3020121015   01          2  RUA GANGES  528                                                                  3                         000000000000000                                     N                     00598  0000000        000071
12042956441000101SOLUCOES ACO USIMINAS                                                 0000000034100000000000000000000000000000846595700000002210880280016980502     201209102012071200000000054520000156071000000000166991000000000000000000000000010920050000000000  3020121015   01          2                                                                                   3112210880285293807258000039                                                  N                     01321  0000000        000072
12042956441000101SOLUCOES ACO USIMINAS                                                 0000000034100000000000000000000000000000856906410000002262886280017266201     201208282012073000000000054390000119472000000000130944000000000000000000000000011472050000000000  3020121015   01          2                                                                                   3112262886289293807258000089                                                  N                     01321  0000000        000073
12042956441000101SOLUCOES ACO USIMINAS                                                 0000000034100000000000000000000000000000856906420000002262886290017266301     201208282012073000000000054390000145069000000000158989000000000000000000000000013920050000000000  3020121015   01          2                                                                                   3112262886297293807258000099                                                  N                     01321  0000000        000074
12042956441000101SOLUCOES ACO USIMINAS                                                 0000000034100000000000000000000000000000846595710000002210880290016980602     201209102012071200000000054520000426094000000000455914000000000000000000000000029820050000000000  3020121015   01          2                                                                                   3112210880293293807258000019                                                  N                     01321  0000000        000075
12042956441000101SOLUCOES ACO USIMINAS                                                 0000000034100000000000000000000000000000848180700000002220192900017041002     201209112012071700000000054530000155433000000000166007000000000000000000000000010574050000000000  3020121015   01          2                                                                                   3112220192903293807258000029                                                  N                     01321  0000000        000076
12042956441000101SOLUCOES ACO USIMINAS                                                 0000000034100000000000000000000000000000856906430000002262886300017266202     201209252012073000000000054670000119436000000000124216000000000000000000000000004780050000000000  3020121015   01          2                                                                                   3112262886305293807258000019                                                  N                     01321  0000000        000077
12042956441000101SOLUCOES ACO USIMINAS                                                 0000000034100000000000000000000000000000856906440000002262886310017266302     201209252012073000000000054670000145025000000000150825000000000000000000000000005800050000000000  3020121015   01          2                                                                                   3112262886313293807258000029                                                  N                     01321  0000000        000078
12042956441000101SOLUCOES ACO USIMINAS                                                 0000000034100000000000000000000000000000858616390000002271409750017315102     201209272012080200000000054690000579374000000000600236000000000000000000000000020862050000000000  3020121015   01          2                                                                                   3112271409750293807258000019                                                  N                     01321  0000000        000079
12042956441000101SOLUCOES ACO USIMINAS                                                 0000000034100000000000000000000000000000858616400000002271409760017316002     201209272012080200000000054690000929451000000000962913000000000000000000000000033462050000000000  3020121015   01          2                                                                                   3112271409768293807258000079                                                  N                     01321  0000000        000080
12042956441000101SOLUCOES ACO USIMINAS                                                 0000000034100000000000000000000000000000858616440000002271409800017319602     201209272012080200000000054690000197044000000000204136000000000000000000000000007092050000000000  3020121015   01          2                                                                                   3112271409800293807258000019                                                  N                     01321  0000000        000081
12042956441000101SOLUCOES ACO USIMINAS                                                 0000000034100000000000000000000000000000848180710000002220192910017041202     201209112012071700000000054530000205421000000000219395000000000000000000000000013974050000000000  3020121015   01          2                                                                                   3112220192911293807258000019                                                  N                     01321  0000000        000082
12042956441000101SOLUCOES ACO USIMINAS                                                 0000000034100000000000000000000000000000850740460000002233586800017127201     201208202012072000000000054310000137881000000000153337000000000000000000000000015456050000000000  3020121015   01          2                                                                                   3112233586802293807258000019                                                  N                     01321  0000000        000083
12042956441000101SOLUCOES ACO USIMINAS                                                 0000000034100000000000000000000000000000850740470000002233586810017101002     201209142012071900000000054560000732575000000000777990000000000000000000000000045415050000000000  3020121015   01          2                                                                                   3112233586810293807258000019                                                  N                     01321  0000000        000084
12042956441000101SOLUCOES ACO USIMINAS                                                 0000000034100000000000000000000000000000850740480000002233586820017101202     201209142012071900000000054560000144634000000000153593000000000000000000000000008959050000000000  3020121015   01          2                                                                                   3112233586828293807258000029                                                  N                     01321  0000000        000085
12042956441000101SOLUCOES ACO USIMINAS                                                 0000000034100000000000000000000000000000847452070000002216130350005922202     201209102012071600000000054520000172071000000000184111000000000000000000000000012040050000000000  3020121015   01          2                                                                                   3112216130354293807258000049                                                  N                     01321  0000000        000086
12042956441000101SOLUCOES ACO USIMINAS                                                 0000000034100000000000000000000000000000847452100000002216130340017012402     201209102012071500000000054520000147428000000000157753000000000000000000000000010325050000000000  3020121015   01          2                                                                                   3112216130347293807258000059                                                  N                     01321  0000000        000087
12042956441000101SOLUCOES ACO USIMINAS                                                 0000000034100000000000000000000000000000853154830000002246247020017196602     201209202012072500000000054620000804808000000000845058000000000000000000000000040250050000000000  3020121015   01          2                                                                                   3112246247020293807258000089                                                  N                     01321  0000000        000088
12042956441000101SOLUCOES ACO USIMINAS                                                 0000000034100000000000000000000000000000853154840000002246247030017196702     201209202012072500000000054620000234841000000000246591000000000000000000000000011750050000000000  3020121015   01          2                                                                                   3112246247038293807258000099                                                  N                     01321  0000000        000089
12042956441000101SOLUCOES ACO USIMINAS                                                 0000000034100000000000000000000000000000853154850000002246247040017197302     201209202012072500000000054620000970103000000001018603000000000000000000000000048500050000000000  3020121015   01          2                                                                                   3112246247046293807258000019                                                  N                     01321  0000000        000090
12042956441000101SOLUCOES ACO USIMINAS                                                 0000000034100000000000000000000000000000855028670000002254329360017200402     201209202012072600000000054620000163224000000000171374000000000000000000000000008150050000000000  3020121015   01          2                                                                                   3112254329363293807258000069                                                  N                     01321  0000000        000091
12042956441000101SOLUCOES ACO USIMINAS                                                 0000000034100000000000000000000000000000836417910000002164218370016738103     201209192012062700000000054610000830173000000000873333000000000000000000000000043160050000000000  3020121015   01          2                                                                                   3112164218375293807258000039                                                  N                     01321  0000000        000092
12042956441000101SOLUCOES ACO USIMINAS                                                 0000000034100000000000000000000000000000840313040000002181699250016829703     201209242012070200000000054660000643711000000000670738000000000000000000000000027027050000000000  3020121015   01          2                                                                                   3112181699250293807258000019                                                  N                     01321  0000000        000093
12042956441000101SOLUCOES ACO USIMINAS                                                 0000000034100000000000000000000000000000855028680000002254329370017202402     201209202012072600000000054620000244136000000000256336000000000000000000000000012200050000000000  3020121015   01          2                                                                                   3112254329371293807258000079                                                  N                     01321  0000000        000094
12042956441000101SOLUCOES ACO USIMINAS                                                 0000000034100000000000000000000000000000855028690000002254329380017212902     201209212012072600000000054630000140098000000000146818000000000000000000000000006720050000000000  3020121015   01          2                                                                                   3112254329389293807258000019                                                  N                     01321  0000000        000095
12042956441000101SOLUCOES ACO USIMINAS                                                 0000000034100000000000000000000000000000855028700000002254329390017213002     201209212012072600000000054630000140602000000000147346000000000000000000000000006744050000000000  3020121015   01          2                                                                                   3112254329397293807258000089                                                  N                     01321  0000000        000096
12042956441000101SOLUCOES ACO USIMINAS                                                 0000000034100000000000000000000000000000855028720000002254329340017200202     201209202012072600000000054620000680385000000000714410000000000000000000000000034025050000000000  3020121015   01          2                                                                                   3112254329348293807258000079                                                  N                     01321  0000000        000097
12042956441000101SOLUCOES ACO USIMINAS                                                 0000000034100000000000000000000000000000855028730000002254329350017200302     201209202012072600000000054620000156896000000000164746000000000000000000000000007850050000000000  3020121015   01          2                                                                                   3112254329355293807258000029                                                  N                     01321  0000000        000098
12042956441000101SOLUCOES ACO USIMINAS                                                 0000000034100000000000000000000000000000855028770000002254329400017220502     201209212012072700000000054630000981022000000001028110000000000000000000000000047088050000000000  3020121015   01          2                                                                                   3112254329405293807258000099                                                  N                     01321  0000000        000099
12042956441000101SOLUCOES ACO USIMINAS                                                 0000000034100000000000000000000000000000841725540000002188168620016859403     201209262012070400000000054680000164455000000000170706000000000000000000000000006251050000000000  3020121015   01          2                                                                                   3112188168622293807258000019                                                  N                     01321  0000000        000100
12042956441000101SOLUCOES ACO USIMINAS                                                 0000000034100000000000000000000000000000841725550000002188168630016859503     201209262012070400000000054680000234336000000000243247000000000000000000000000008911050000000000  3020121015   01          2                                                                                   3112188168630293807258000089                                                  N                     01321  0000000        000101
12042956441000101SOLUCOES ACO USIMINAS                                                 0000000034100000000000000000000000000000841725560000002188168640016884803     201209272012070500000000054690000120612000000000124950000000000000000000000000004338050000000000  3020121015   01          2                                                                                   3112188168648293807258000059                                                  N                     01321  0000000        000102
12042956441000101SOLUCOES ACO USIMINAS                                                 0000000034100000000000000000000000000000841725570000002188168690016891503     201209272012070500000000054690001128343000000001168969000000000000000000000000040626050000000000  3020121015   01          2                                                                                   3112188168697293807258000039                                                  N                     01321  0000000        000103
12042956441000101SOLUCOES ACO USIMINAS                                                 0000000034100000000000000000000000000000841725580000002188168650016884903     201209272012070500000000054690000531835000000000550987000000000000000000000000019152050000000000  3020121015   01          2                                                                                   3112188168655293807258000019                                                  N                     01321  0000000        000104
12042956441000101SOLUCOES ACO USIMINAS                                                 0000000034100000000000000000000000000000841725590000002188168660016885103     201209272012070500000000054690000219722000000000227624000000000000000000000000007902050000000000  3020121015   01          2                                                                                   3112188168663293807258000049                                                  N                     01321  0000000        000105
12042956441000101SOLUCOES ACO USIMINAS                                                 0000000034100000000000000000000000000000841725600000002188168670016891203     201209272012070500000000054690001132542000000001173312000000000000000000000000040770050000000000  3020121015   01          2                                                                                   3112188168671293807258000069                                                  N                     01321  0000000        000106
12042956441000101SOLUCOES ACO USIMINAS                                                 0000000034100000000000000000000000000000841725610000002188168680016891403     201209272012070500000000054690000795233000000000823853000000000000000000000000028620050000000000  3020121015   01          2                                                                                   3112188168689293807258000029                                                  N                     01321  0000000        000107
12042956441000101SOLUCOES ACO USIMINAS                                                 0000000034100000000000000000000000000000843180440000002194744360016902903     201209282012070600000000054700000179794000000000185914000000000000000000000000006120050000000000  3020121015   01          2                                                                                   3112194744366293807258000079                                                  N                     01321  0000000        000108
12042956441000101SOLUCOES ACO USIMINAS                                                 0000000034100000000000000000000000000000840313050000002181699260016829803     201209242012070200000000054660000322527000000000336072000000000000000000000000013545050000000000  3020121015   01          2                                                                                   3112181699268293807258000029                                                  N                     01321  0000000        000109
12042956441000101SOLUCOES ACO USIMINAS                                                 0000000034100000000000000000000000000000840313080000002181699230016814403     201209242012070200000000054660000968423000000001009100000000000000000000000000040677050000000000  3020121015   01          2                                                                                   3112181699235293807258000079                                                  N                     01321  0000000        000110
12042956441000101SOLUCOES ACO USIMINAS                                                 0000000034100000000000000000000000000000840313090000002181699240016827103     201209242012070200000000054660000703009000000000732535000000000000000000000000029526050000000000  3020121015   01          2                                                                                   3112181699243293807258000019                                                  N                     01321  0000000        000111
12042956441000101SOLUCOES ACO USIMINAS                                                 0000000034100000000000000000000000000000858616460000002271409820017319802     201209272012080200000000054690000194525000000000201527000000000000000000000000007002050000000000  3020121015   01          2                                                                                   3112271409826293807258000079                                                  N                     01321  0000000        000112
12042956441000101SOLUCOES ACO USIMINAS                                                 0000000034100000000000000000000000000000859590620000002274469790017353702     201209282012080300000000054700000081053000000000083807000000000000000000000000002754050000000000  3020121015   01          2                                                                                   3112274469793293807258000069                                                  N                     01321  0000000        000113
12042956441000101SOLUCOES ACO USIMINAS                                                 0000000034100000000000000000000000000000859590630000002274469800017353802     201209282012080300000000054700000166998000000000172676000000000000000000000000005678050000000000  3020121015   01          2                                                                                   3112274469801293807258000059                                                  N                     01321  0000000        000114
12042956441000101SOLUCOES ACO USIMINAS                                                 0000000034100000000000000000000000000000858616410000002271409770017319302     201209272012080200000000054690000981526000000001016860000000000000000000000000035334050000000000  3020121015   01          2                                                                                   3112271409776293807258000019                                                  N                     01321  0000000        000115
12042956441000101SOLUCOES ACO USIMINAS                                                 0000000034100000000000000000000000000000858616420000002271409780017319402     201209272012080200000000054690000178902000000000185346000000000000000000000000006444050000000000  3020121015   01          2                                                                                   3112271409784293807258000029                                                  N                     01321  0000000        000116
12042956441000101SOLUCOES ACO USIMINAS                                                 0000000034100000000000000000000000000000858616450000002271409810017319702     201209272012080200000000054690000197212000000000204304000000000000000000000000007092050000000000  3020121015   01          2                                                                                   3112271409818293807258000019                                                  N                     01321  0000000        000117
12042956441000101SOLUCOES ACO USIMINAS                                                 0000000034100000000000000000000000000000858616430000002271409790017319502     201209272012080200000000054690000197380000000000204490000000000000000000000000007110050000000000  3020121015   01          2                                                                                   3112271409792293807258000049                                                  N                     01321  0000000        000118
12043217850000159IOB INFORMACOES OBJ  PUBL JURI                                        0000000023702374400000002958600 000000008711912800902243000063301440820F2     201209202012083000000000054620000072850000000000074907000000000000000000000000002057050000000000  3020121015   01          2  R GANGES 528                                                                     3                         000000000000000                                     N                     00598  0000000        000119
12043217850000159IOB INFORMACOES OBJ  PUBL JURI                                        0000000023702374400000002958600 000000008540495200902212000099001440820E4     201208202012073000000000054310000072850000000000075651000000000000000000000000002801050000000000  3020121015   01          2  GANGES 528 VL NOVA MANCHESTER                                                    3                         000000000000000                                     N                     00598  0000000        000120
12043298975000150JOMARCA INDL DE PARAFUSOS LTDA                                        0000000003300000000000000000000000000000881032800000005900000000157168 01     201210112012091100000000054830000474500000000000476873000000000000000000000000002373050000000000  3020121015   01          2                                                                                   3935059520000000508659010429                                                  N                     01321  0000000        000121
12047190731000100DE CASTRO LOUR ENG IND LTDA                                           00000000341000000000000000000000000000008782050900000023399953503026612 0     201209182012082100000000054600001111489000000001170511000000000000000000000000059022050000000000  3020121015   01          2                                                                                   3112339995352036884500400019                                                  N                     01321  0000000        000122
12047190731000100DE CASTRO LOUR ENG IND LTDA                                           00000000341000000000000000000000000000008782051200000023399953803026613 0     201209182012082100000000054600001107989000000001166822000000000000000000000000058833050000000000  3020121015   01          2                                                                                   3112339995386036884500400039                                                  N                     01321  0000000        000123
12047190731000100DE CASTRO LOUR ENG IND LTDA                                           00000000341000000000000000000000000000008782051600000023399954103026614 0     201209182012082100000000054600001047621000000001103241000000000000000000000000055620050000000000  3020121015   01          2                                                                                   3112339995410036884500400039                                                  N                     01321  0000000        000124
12047190731000100DE CASTRO LOUR ENG IND LTDA                                           00000000341000000000000000000000000000008782052000000023399955303026632 0     201209192012082200000000054610000952073000000001000745000000000000000000000000048672050000000000  3020121015   01          2                                                                                   3112339995535036884500400019                                                  N                     01321  0000000        000125
12047190731000100DE CASTRO LOUR ENG IND LTDA                                           00000000341000000000000000000000000000008782052100000023399955903026643 0     201209202012082300000000054620000867039000000000909664000000000000000000000000042625050000000000  3020121015   01          2                                                                                   3112339995592036884500400049                                                  N                     01321  0000000        000126
12047190731000100DE CASTRO LOUR ENG IND LTDA                                           00000000341000000000000000000000000000008782052500000023399955603026636 0     201209192012082200000000054610000940804000000000988904000000000000000000000000048100050000000000  3020121015   01          2                                                                                   3112339995568036884500400049                                                  N                     01321  0000000        000127
12047190731000100DE CASTRO LOUR ENG IND LTDA                                           00000000341000000000000000000000000000008782052700000023399956203026648 0     201209202012082300000000054620000976053000000001024053000000000000000000000000048000050000000000  3020121015   01          2                                                                                   3112339995626036884500400029                                                  N                     01321  0000000        000128
12047190731000100DE CASTRO LOUR ENG IND LTDA                                           00000000341000000000000000000000000000008996247800000024766209103027184 0     201211022012100500000000055050001153047000000001153047000000000000000000000000000000050000000000  3020121105   01FS        1                                                                                   3112476620912036884500400019                                                  N                     01321  0000000        000129
12047190731000100DE CASTRO LOUR ENG IND LTDA                                           00000000341000000000000000000000000000008996247900000024766209203027184 0     201211302012100500000000055330001153047000000001153047000000000000000000000000000000050000000000  3020121130   01FS        1                                                                                   3112476620920036884500400089                                                  N                     01321  0000000        000130
12047190731000100DE CASTRO LOUR ENG IND LTDA                                           00000000341000000000000000000000000000008996248000000024766209303027184 0     201212282012100500000000055610001153394000000001153394000000000000000000000000000000050000000000  3020121228   01FS        1                                                                                   3112476620938036884500400099                                                  N                     01321  0000000        000131
12048775225000146SEIKI IND COM E CONFECCOES LTD                                        000000003410000000000000000000000000000087820591000000235780573014311001      201209282012083100000000054700000052000000000000053326000000000000000000000000001326050000000000  3020121015   01          2                                                                                   3112357805731017444824100069                                                  N                     01321  0000000        000132
12049318538000138COM DE FERRAM TERUYA LT                                               000000003410000000000000000000000000000087168271000000235188845198356 A       201209272012083000000000054690000047284000000000047284000000000000000000000000000000050000000000  3020120927   06          3                                                                                   3112351888451077000099000059                                                  N                     01321  0000000        000133
12051180370000199IGUAFER FERRO E ACO LTDA                                              0000000034100000000000000000000000000000852309100000002239389789443 B         201209022012071800000000054440000168275000000000180315000000000000000000000000012040050000000000  3020121015   01          2                                                                                   3112239389789077149484600089                                                  N                     01321  0000000        000134
12051180370000199IGUAFER FERRO E ACO LTDA                                              0000000034100000000000000000000000000000852309110000002239389799443 C         201209122012071800000000054540000168275000000000177515000000000000000000000000009240050000000000  3020121015   01          2                                                                                   3112239389797077149484600089                                                  N                     01321  0000000        000135
12051180370000199IGUAFER FERRO E ACO LTDA                                              0000000034100000000000000000000000000000852309120000002239389809443 D         201209222012071800000000054640000168275000000000174715000000000000000000000000006440050000000000  3020121015   01          2                                                                                   3112239389805077149484600029                                                  N                     01321  0000000        000136
12053585766000141MULTIACOS I C PRODS TEC LTDA                                          0000000042200000000000000000000000000000883508150000000000000000004553202     201210112012091300000000054830001115009000000001122440000000000000000000000000007431050000000000  3020121015   01          2                                                                                   3711500005033164921116446119                                                  N                     01321  0000000        000137
12053585766000141MULTIACOS I C PRODS TEC LTDA                                          0000000042200000000000000000000000000000875773470000000000000000004595001     201210052012090400000000054770000716798000000000728747000000000000000000000000011949050000000000  3020121015   01          2                                                                                   3711500005033164919152350149                                                  N                     01321  0000000        000138
12053585766000141MULTIACOS I C PRODS TEC LTDA                                          0000000042200000000000000000000000000000875773480000000000000000004595101     201210052012090400000000054770000365510000000000371599000000000000000000000000006089050000000000  3020121015   01          2                                                                                   3711500005033164919152368119                                                  N                     01321  0000000        000139
12053585766000141MULTIACOS INDUSTRIA E COMERCIO                                        0000000000100000000000000000000000000000885248180000003067630000004545202     201210102012091800000000054820001004573000000001012943000000000000000000000000008370050000000000  3020121015   01          2                                                                                   3044073067631912000139523189                                                  N                     01321  0000000        000140
12053585766000141MULTIACOS INDUSTRIA E COMERCIO                                        0000000000100000000000000000000000000000885248280000003067620000004545102     201210102012091800000000054820000305114000000000307659000000000000000000000000002545050000000000  3020121015   01          2                                                                                   3044073067621912000139523139                                                  N                     01321  0000000        000141
12053585766000141MULTIACOS I C PRODS TEC LTDA                                          0000000042200000000000000000000000000000878205700000000000000000004612001     201210092012082800000000054810000479980000000000484779000000000000000000000000004799050000000000  3020121015   01          2                                                                                   3711500005033164917492609199                                                  N                     01321  0000000        000142
12053585766000141MULTIACOS I C PRODS TEC LTDA                                          0000000042200000000000000000000000000000878205710000000000000000004594901     201210052012082800000000054770000145728000000000148157000000000000000000000000002429050000000000  3020121015   01          2                                                                                   3711500005033164917492617119                                                  N                     01321  0000000        000143
12053585766000141MULTIACOS I C PRODS TEC LTDA                                          0000000042200000000000000000000000000000883508290000000000000000004539302     201210092012091300000000054810001021454000000001031665000000000000000000000000010211050000000000  3020121015   01          2                                                                                   3711500005033164921116594119                                                  N                     01321  0000000        000144
12053585766000141MULTIACOS I C PRODS TEC LTDA                                          0000000042200000000000000000000000000000875773490000000000000000004453003     201210052012090400000000054770000619209000000000629528000000000000000000000000010319050000000000  3020121015   01          2                                                                                   3711500005033164919152414179                                                  N                     01321  0000000        000145
12053585766000141MULTIACOS I C PRODS TEC LTDA                                          0000000042200000000000000000000000000000875773530000000000000000004437703     201210052012090400000000054770000145364000000000147783000000000000000000000000002419050000000000  3020121015   01          2                                                                                   3711500005033164919152490159                                                  N                     01321  0000000        000146
12053585766000141MULTIACOS I C PRODS TEC LTDA                                          0000000042200000000000000000000000000000875773560000000000000000004452003     201210052012090400000000054770000865030000000000879449000000000000000000000000014419050000000000  3020121015   01          2                                                                                   3711500005033164919152465149                                                  N                     01321  0000000        000147
12053585766000141MULTIACOS I C PRODS TEC LTDA                                          0000000042200000000000000000000000000000875773390000000000000000004521802     201210052012090400000000054770000811642000000000825171000000000000000000000000013529050000000000  3020121015   01          2                                                                                   3711500005033164919152279169                                                  N                     01321  0000000        000148
12054382510000108SETENTA IND E COM DE MADEIRAS                                         0000000034100000000000000000000000000000860403430000002277814474462 A         201209042012080700000000054460000191200000000000206616000000000000000000000000015416050000000000  3020121015   01          2                                                                                   3112277814474057049175300069                                                  N                     01321  0000000        000149
12054382510000108SETENTA IND E COM DE MADEIRAS                                         0000000034100000000000000000000000000000883508330000002392776804604 A         201210082012091300000000054800000116600000000000118203000000000000000000000000001603050000000000  3020121015   01          2                                                                                   3112392776806057049175300019                                                  N                     01321  0000000        000150
12056993512000150CYKLOP DO BRASIL EMBALAGENS SA                                        0000000034100000000000000000000000000000874070500000002362586810134932        201210012012090300000000054730000083607000000000087905000000000000000000000000004298050000000000  3020121015   01          2                                                                                   3112362586813025700015800019                                                  N                     01321  0000000        000151
12056993900000131CIA METALURGICA PRADA                                                 0000000034100000000000000000000000000000844838960000002201181950025629303     201210032012071100000000054750000257905000000000263065000000000000000000000000005160050000000000  3020121015   01          2                                                                                   3112201181958293800573900099                                                  N                     01321  0000000        000152
12056993900000131CIA METALURGICA PRADA                                                 0000000034100000000000000000000000000000848180620000002218222670025829902     201209112012071700000000054530000498118000000000526338000000000000000000000000028220050000000000  3020121015   01          2                                                                                   3112218222670293800573900029                                                  N                     01321  0000000        000153
12056993900000131CIA METALURGICA PRADA                                                 0000000034100000000000000000000000000000848180630000002218222680025830002     201209112012071700000000054530000247673000000000261715000000000000000000000000014042050000000000  3020121015   01          2                                                                                   3112218222688293800573900059                                                  N                     01321  0000000        000154
12056993900000131CIA METALURGICA PRADA                                                 0000000034100000000000000000000000000000848180640000002218222690025830102     201209112012071700000000054530000207402000000000219166000000000000000000000000011764050000000000  3020121015   01          2                                                                                   3112218222696293800573900039                                                  N                     01321  0000000        000155
12056993900000131CIA METALURGICA PRADA                                                 0000000034100000000000000000000000000000848180650000002218222700025829903     201210092012071700000000054810000498119000000000503099000000000000000000000000004980050000000000  3020121015   01          2                                                                                   3112218222704293800573900019                                                  N                     01321  0000000        000156
12056993900000131CIA METALURGICA PRADA                                                 0000000034100000000000000000000000000000844838970000002201181960025629403     201210032012071100000000054750000249372000000000254364000000000000000000000000004992050000000000  3020121015   01          2                                                                                   3112201181966293800573900019                                                  N                     01321  0000000        000157
12056993900000131CIA METALURGICA PRADA                                                 0000000034100000000000000000000000000000844838980000002201181970025635303     201210032012071100000000054750000406843000000000414979000000000000000000000000008136050000000000  3020121015   01          2                                                                                   3112201181974293800573900089                                                  N                     01321  0000000        000158
12056993900000131CIA METALURGICA PRADA                                                 0000000034100000000000000000000000000000844838990000002201181980025635403     201210032012071100000000054750000208689000000000212865000000000000000000000000004176050000000000  3020121015   01          2                                                                                   3112201181982293800573900059                                                  N                     01321  0000000        000159
12056993900000131CIA METALURGICA PRADA                                                 0000000034100000000000000000000000000000844839000000002201181880025629402     201209052012071100000000054470000249372000000000266012000000000000000000000000016640050000000000  3020121015   01          2                                                                                   3112201181883293800573900019                                                  N                     01321  0000000        000160
12056993900000131CIA METALURGICA PRADA                                                 0000000034100000000000000000000000000000844839010000002201181890025635302     201209052012071100000000054470000406842000000000433962000000000000000000000000027120050000000000  3020121015   01          2                                                                                   3112201181891293800573900019                                                  N                     01321  0000000        000161
12056993900000131CIA METALURGICA PRADA                                                 0000000034100000000000000000000000000000844839020000002201181900025635402     201209052012071100000000054470000208689000000000222609000000000000000000000000013920050000000000  3020121015   01          2                                                                                   3112201181909293800573900069                                                  N                     01321  0000000        000162
12056993900000131CIA METALURGICA PRADA                                                 0000000034100000000000000000000000000000844839030000002201181910025635502     201209052012071100000000054470000164780000000000175780000000000000000000000000011000050000000000  3020121015   01          2                                                                                   3112201181917293800573900029                                                  N                     01321  0000000        000163
12056993900000131CIA METALURGICA PRADA                                                 0000000034100000000000000000000000000000844839040000002201181920025635602     201209052012071100000000054470000339933000000000362613000000000000000000000000022680050000000000  3020121015   01          2                                                                                   3112201181925293800573900069                                                  N                     01321  0000000        000164
12056993900000131CIA METALURGICA PRADA                                                 0000000034100000000000000000000000000000848180660000002218222710025830003     201210092012071700000000054810000247672000000000250150000000000000000000000000002478050000000000  3020121015   01          2                                                                                   3112218222712293800573900019                                                  N                     01321  0000000        000165
12056993900000131CIA METALURGICA PRADA                                                 0000000034100000000000000000000000000000848180670000002218222720025830103     201210092012071700000000054810000207402000000000209478000000000000000000000000002076050000000000  3020121015   01          2                                                                                   3112218222720293800573900079                                                  N                     01321  0000000        000166
12056993900000131CIA METALURGICA PRADA                                                 0000000034100000000000000000000000000000844839050000002201181930025636202     201209052012071100000000054470000746213000000000795973000000000000000000000000049760050000000000  3020121015   01          2                                                                                   3112201181933293800573900019                                                  N                     01321  0000000        000167
12056993900000131CIA METALURGICA PRADA                                                 0000000034100000000000000000000000000000844839060000002201181940025644402     201209052012071100000000054470000779647000000000831607000000000000000000000000051960050000000000  3020121015   01          2                                                                                   3112201181941293800573900019                                                  N                     01321  0000000        000168
12056993900000131CIA METALURGICA PRADA                                                 0000000034100000000000000000000000000000844839070000002201181990025635503     201210032012071100000000054750000164779000000000168079000000000000000000000000003300050000000000  3020121015   01          2                                                                                   3112201181990293800573900019                                                  N                     01321  0000000        000169
12056993900000131CIA METALURGICA PRADA                                                 0000000034100000000000000000000000000000844839080000002201182000025635603     201210032012071100000000054750000339934000000000346738000000000000000000000000006804050000000000  3020121015   01          2                                                                                   3112201182006293800573900069                                                  N                     01321  0000000        000170
12056993900000131CIA METALURGICA PRADA                                                 0000000034100000000000000000000000000000844839090000002201182010025636203     201210032012071100000000054750000746212000000000761140000000000000000000000000014928050000000000  3020121015   01          2                                                                                   3112201182014293800573900079                                                  N                     01321  0000000        000171
12056993900000131CIA METALURGICA PRADA                                                 0000000034100000000000000000000000000000844839100000002201182020025644403     201210032012071100000000054750000779647000000000795235000000000000000000000000015588050000000000  3020121015   01          2                                                                                   3112201182022293800573900049                                                  N                     01321  0000000        000172
12056993900000131CIA METALURGICA PRADA                                                 0000000034100000000000000000000000000000844839140000002201181870025629302     201209052012071100000000054470000257906000000000275106000000000000000000000000017200050000000000  3020121015   01          2                                                                                   3112201181875293800573900069                                                  N                     01321  0000000        000173
12056993900000131CIA METALURGICA PRADA                                                 0000000034100000000000000000000000000000840312930000002179478290025419302     201208282012070300000000054390000402178000000000434338000000000000000000000000032160050000000000  3020121015   01          2                                                                                   3112179478295293800573900089                                                  N                     01321  0000000        000174
12056993900000131CIA METALURGICA PRADA                                                 0000000034100000000000000000000000000000824820100000002102181160024711603     201208292012060600000000054400000833146000000000898429000000000000000000000000065283050000000000  3020121015   01          2                                                                                   3112102181164293800573900039                                                  N                     01321  0000000        000175
12056993900000131CIA METALURGICA PRADA                                                 0000000034100000000000000000000000000000840312940000002179478300025419402     201208282012070300000000054390000322804000000000348628000000000000000000000000025824050000000000  3020121015   01          2                                                                                   3112179478303293800573900079                                                  N                     01321  0000000        000176
12057029431000106ATLAS COPCO BRASIL LTDA                                               0000000034100000000000000000000000000000861960280000002283943487000054090     201209062012080900000000054480000059490000000000061011000000000000000000000000001521050000000000  3020121015   01          2                                                                                   3112283943481293804111400069                                                  N                     01321  0000000        000177
12061174652000137METALURGICA SCHIOPPA LTDA                                             000000003410000000000000000000000000000089962476000000247522608117255 001     201211012012100100000000055040000062633000000000062633000000000000000000000000000000050000000000  3020121101   01FS        1                                                                                   3112475226083019424479400049                                                  N                     01321  0000000        000178
12061600839000155CENTRO DE INT EMPRESA ESCOLA C                                        0000000023703391P00000000866202 00000000899624890090000036546447641C 0001     201210312012101000000000055030000016800000000000016800000000000000000000000000000000050000000000  3020121031   01FS        1  R GANGES  528                                                                    3                         000000000000000                                     N                     00598  0000000        000179
12062014030000104IMPORTADORA DE ROLAMENTOS RADI                                        0000000000100000000000000000000000000000883508140000005236710000046148001     201210112012091400000000054830000026880000000000027240000000000000000000000000000360050000000000  3020121015   01          2                                                                                   3044065236713322002041363129                                                  N                     01321  0000000        000180
12062173661000176INDUFIX IND E COM LTDA                                                0000000023704130000000000085898 000000008810327500702256000006500038394 A     201210112012091100000000054830000067395000000000067843000000000000000000000000000448050000000000  3020121015   01          2  RUA GANGES 528                                                                   3                         000000000000000                                     N                     00598  0000000        000181
12062340989000130EDICOES ADUANEIRAS LTDA                                               0000000023703090200000000015660 0000000079108232009080000035030004262 D       201209302012041100000000054720000043600000000000044680000000000000000000000000001080050000000000  3020121015   01          2  RUA TAMAINDE 1410 RUA GANGES 520 E 528                                           3                         000000000000000                                     N                     00598  0000000        000182
12062510367000102ITANHAEM TRANSP DE MAQUINAS LT                                        000000003410000000000000000000000000000087407049000000236463199667            201209202012090400000000054620000248220000000000273045000000000000000000000000024825050000000000  3020121015   01          2                                                                                   3112364631997005770252400049                                                  N                     01321  0000000        000183
12062539994000176LEALFER INDUSTRIA E COMERCIO D                                        0000000003300000000000000000000000000000884432810000003900000000005479101     201210092012091100000000054810001068982000000001079885000000000000000000000000010903050000000000  3020121015   01          2                                                                                   3915298380000000260339010499                                                  N                     01321  0000000        000184
12062539994000176LEALFER IN E COM DE ACO LTDA                                          0000000034100000000000000000000000000000881032680000002380726830005461501     201210042012090600000000054760000842829000000000842829000000000000000000000000000000050000000000  3020121004   06          3                                                                                   3112380726839076103324000029                                                  N                     01321  0000000        000185
12062539994000176LEALFER IN E COM DE ACO LTDA                                          0000000034100000000000000000000000000000899624810000002474448400005595101     201210292012100100000000055010000917851000000000917851000000000000000000000000000000050000000000  3020121029   01FS        1                                                                                   3112474448407076103324000029                                                  N                     01321  0000000        000186
12062539994000176LEALFER IN E COM DE ACO LTDA                                          0000000034100000000000000000000000000000899624820000002474449080005595203     201212242012100100000000055570000988100000000000988100000000000000000000000000000000050000000000  3020121224   01FS        1                                                                                   3112474449082076103324000059                                                  N                     01321  0000000        000187
12062539994000176LEALFER IN E COM DE ACO LTDA                                          0000000034100000000000000000000000000000899624830000002474449930005606001     201210302012100200000000055020000241703000000000241703000000000000000000000000000000050000000000  3020121030   01FS        1                                                                                   3112474449934076103324000049                                                  N                     01321  0000000        000188
12062539994000176LEALFER IN E COM DE ACO LTDA                                          0000000034100000000000000000000000000000899624840000002474448620005595103     201212242012100100000000055570000917849000000000917849000000000000000000000000000000050000000000  3020121224   01FS        1                                                                                   3112474448621076103324000079                                                  N                     01321  0000000        000189
12062539994000176LEALFER IN E COM DE ACO LTDA                                          0000000034100000000000000000000000000000899624850000002474449940005606002     201211272012100200000000055300000241703000000000241703000000000000000000000000000000050000000000  3020121127   01FS        1                                                                                   3112474449942076103324000029                                                  N                     01321  0000000        000190
12062539994000176LEALFER IN E COM DE ACO LTDA                                          0000000034100000000000000000000000000000899624860000002474448630005595201     201210292012100100000000055010000988102000000000988102000000000000000000000000000000050000000000  3020121029   01FS        1                                                                                   3112474448639076103324000099                                                  N                     01321  0000000        000191
12062539994000176LEALFER IN E COM DE ACO LTDA                                          0000000034100000000000000000000000000000899624870000002474449950005606003     201212262012100200000000055590000241703000000000241703000000000000000000000000000000050000000000  3020121226   01FS        1                                                                                   3112474449959076103324000099                                                  N                     01321  0000000        000192
12062539994000176LEALFER IN E COM DE ACO LTDA                                          0000000034100000000000000000000000000000899624880000002474448790005595202     201211262012100100000000055290000988100000000000988100000000000000000000000000000000050000000000  3020121126   01FS        1                                                                                   3112474448795076103324000019                                                  N                     01321  0000000        000193
12062539994000176LEALFER IN E COM DE ACO LTDA                                          0000000034100000000000000000000000000000899624770000002474448410005595102     201211262012100100000000055290000917849000000000917849000000000000000000000000000000050000000000  3020121126   01FS        1                                                                                   3112474448415076103324000029                                                  N                     01321  0000000        000194
12064952757000168WALMAC COM DE PROD QUIMICOS LT                                        0000000034100000000000000000000000000000860403450000002275821700020148        201210052012080300000000054770000219267000000000223577000000000000000000000000004310050000000000  3020121015   01          2                                                                                   3112275821703064807961400029                                                  N                     01321  0000000        000195
12064952757000168WALMAC COM DE PROD QUIMICOS LT                                        0000000034100000000000000000000000000000844063810000002196829110019356        201210022012071000000000054740000219266000000000224869000000000000000000000000005603050000000000  3020121015   01          2                                                                                   3112196829116064807961400089                                                  N                     01321  0000000        000196
12064952757000168WALMAC COM DE PROD QUIMICOS LT                                        0000000034100000000000000000000000000000860403460000002275821710020148        201208312012080300000000054420000219267000000000238662000000000000000000000000019395050000000000  3020121015   01          2                                                                                   3112275821711064807961400079                                                  N                     01321  0000000        000197
12065000655000105HILTI DO BRASIL COMERCIAL LTDA                                        0000000023703396000000000243787 00000000871682760090224400001640002179001     201209272012082800000000054690000019742000000000020444000000000000000000000000000702050000000000  3020121015   01          2  RUA TAMAINDE 1410                                                                3                         000000000000000                                     N                     00598  0000000        000198
12066841552000130R V SEG PATRIMONIAL LTDA                                              00000000341000000000000000000000000000008852483200000090002192721927          201209102012081000000000054520000483241000000000488876000000000000000000000000005635050000000000  3020121015   01          2                                                                                   3109000219270001835253400099                                                  N                     01321  0000000        000199
