0000147602043799295000110ALTAMIRA INDUSTRIA METALURGICA LT       202000000020620130112063634             1                                                                                                                                                                                                                                                                                                                                                                                                    000001
12003489596000123BEND FLEX I COMERCIO LTDA                                             000000003410000000000000000000000000000088599899000000171434574613            201209172012081600000000054590000585000000000000721969000000000000000000000000136969050000000000  3020130114   01          2                                                                                   3191714345748157734445800019                                                  N                     01321  0000000        000002
12004643290000142FLEXTINTAS IND E COMERCIO LTDA                                        000000003410000000000000000000000000000095374335000000274168598NFF040736B     201303092013010800000000056320000008470000000000008470000000000000000000000000000000050000000000  3020130311   01FS        1                                                                                   3112741685989051356781800029                                                  N                     01321  0000000        000003
12004643290000142FLEXTINTAS IND E COMERCIO LTDA                                        000000003410000000000000000000000000000095374336000000274168599NFF040736C     201303242013010800000000056470000008470000000000008470000000000000000000000000000000050000000000  3020130325   01FS        1                                                                                   3112741685997051356781800019                                                  N                     01321  0000000        000004
12004643290000142FLEXTINTAS IND E COMERCIO LTDA                                        000000003410000000000000000000000000000095374337000000274168597NFF040736A     201302222013010800000000056170000008470000000000008470000000000000000000000000000000050000000000  3020130222   01FS        1                                                                                   3112741685971051356781800099                                                  N                     01321  0000000        000005
12005151518000140BELENUS DO BRASIL LTDA                                                000000000330000000000000000000000000000093540010000000830000000R133232612     201301032012120400000000055670000599040000000000620785000000000000000000000000021745050000000000  3020130114   01          2                                                                                   3918381050000000565083010469                                                  N                     01321  0000000        000006
12005214618000178VISION GESTAO EMP E FOM MERCAN                                        0000000023700088400000000730084 0000000092757541002000880017158000259         201301092012112600000000055730001000000000000001010000000000000000000000000000010000050000000000  3020130114   01          2  RUA TAMAINDE  1410  VILA NOVA MANCHESTERCORREA MONTAGENS INDUSTRIAIS LTDA   EPP  300000000000000000141500  012711129000197                                     N                     00598  0000000        000007
12005880850000145NEDERMAN BRASIL COM PROD EX LT                                        000000003410000000000000000000000000000086373178000000614350956002763 A       201209252012081400000000054670000289674000000000352944000000000000000000000000063270050000000000  3020130114   01          2                                                                                   3156143509568160829000100049                                                  N                     01321  0000000        000008
12006000195000156MBA MERCANTIL BRAS DE ACO LTDA                                        0000000034100000000000000000000000000000906662670000001671394410008920B03     201210142012071700000000054860000576584000000000680912000000000000000000000000104328050000000000  3020130114   01          2                                                                                   3191671394416064849251000039                                                  N                     01321  0000000        000009
12006000195000156MBA MERCANTIL BRAS DE ACO LTDA                                        0000000034100000000000000000000000000000887698090000001671394550008925B02     201209142012071700000000054560000719581000000000892211000000000000000000000000172630050000000000  3020130114   01          2                                                                                   3191671394556064849251000089                                                  N                     01321  0000000        000010
12006000195000156MBA MERCANTIL BRAS DE ACO LTDA                                        0000000034100000000000000000000000000000887698100000001671394560008926B02     201209142012071700000000054560000387716000000000480802000000000000000000000000093086050000000000  3020130114   01          2                                                                                   3191671394564064849251000019                                                  N                     01321  0000000        000011
12006000195000156MBA MERCANTIL BRAS DE ACO LTDA                                        0000000034100000000000000000000000000000889578520000001671394540008920B02     201209162012071700000000054580000576585000000000712665000000000000000000000000136080050000000000  3020130114   01          2                                                                                   3191671394549064849251000099                                                  N                     01321  0000000        000012
12006000195000156MBA MERCANTIL BRAS DE ACO LTDA                                        0000000034100000000000000000000000000000904173180000001671394430008926B03     201210122012071700000000054840000387716000000000459438000000000000000000000000071722050000000000  3020130114   01          2                                                                                   3191671394432064849251000079                                                  N                     01321  0000000        000013
12006000195000156M B A MERCANTIL BRASILEIRA DE                                         0000000023700118P00000002130599 00000000865388240020222900000450009203B03     201212122012081500000000055450000344980000000000363955000000000000000000000000018975050000000000  3020130114   01          2  RUA JUNO  533                                                                    300000000000000000001500  000000000000000                                     N                     00598  0000000        000014
12006000195000156M B A MERCANTIL BRASILEIRA DE                                         0000000023700118P00000002130599 00000000865388270020222900000480009204B03     201212132012081500000000055460000127291000000000134075000000000000000000000000006784050000000000  3020130114   01          2  RUA JUNO  533                                                                    300000000000000000001500  000000000000000                                     N                     00598  0000000        000015
12006000195000156M B A MERCANTIL BRASILEIRA DE                                         0000000023700118P00000002130599 00000000865388300020222900000510009205B03     201212142012081500000000055470000348964000000000367006000000000000000000000000018042050000000000  3020130114   01          2  RUA JUNO  533                                                                    300000000000000000001500  000000000000000                                     N                     00598  0000000        000016
12006000195000156M B A MERCANTIL BRASILEIRA DE                                         0000000023700118P00000002130599 00000000865388330020222900000540009206B03     201212152012081500000000055480000527560000000000553930000000000000000000000000026370050000000000  3020130114   01          2  RUA JUNO  533                                                                    300000000000000000001500  000000000000000                                     N                     00598  0000000        000017
12006000195000156M B A MERCANTIL BRASILEIRA DE                                         0000000023700118P00000002130599 00000000868592700020223600000030009229B03     201212132012081600000000055460000253414000000000266918000000000000000000000000013504050000000000  3020130114   01          2  RUA JUNO  533                                                                    300000000000000000001500  000000000000000                                     N                     00598  0000000        000018
12006000195000156MBA MERCANTIL BRAS DE ACO LTDA                                        0000000034100000000000000000000000000000872952890000002358952100009373B03     201212272012082900000000055600000142175000000000142175000000000000000000000000000000050000000000  3020121227   05          3                                                                                   3112358952102064899001800019                                                  N                     01321  0000000        000019
12006000195000156MBA MERCANTIL BRAS DE ACO LTDA                                        0000000034100000000000000000000000000000872952910000002358952130009374B03     201212272012082900000000055600000727811000000000727811000000000000000000000000000000050000000000  3020121227   05          3                                                                                   3112358952136064899001800079                                                  N                     01321  0000000        000020
12006000195000156MBA MERCANTIL BRAS DE ACO LTDA                                        0000000034100000000000000000000000000000894344130000002451556090009671B02     201212272012092500000000055600000980767000000000980767000000000000000000000000000000050000000000  3020121227   05          3                                                                                   3112451556099064899001800019                                                  N                     01321  0000000        000021
12006000195000156MBA MERCANTIL BRAS DE ACO LTDA                                        0000000034100000000000000000000000000000933583370000002644909060010507B01     201212272012112900000000055600001018297000000001018297000000000000000000000000000000050000000000  3020121227   05          3                                                                                   3112644909064064899001800079                                                  N                     01321  0000000        000022
12006000195000156MBA MERCANTIL BRAS DE ACO LTDA                                        0000000034100000000000000000000000000000915733880000002553914370010131B02     201212272012103100000000055600001000483000000001000483000000000000000000000000000000050000000000  3020121227   05          3                                                                                   3112553914378064899001800079                                                  N                     01321  0000000        000023
12008272923000104P SANTOS ESQUADRARIAS METAL ME                                        0000000034100000000000000000000000000000915734100000006159682651954           201212052012110700000000055380000408138000000000459821000000000000000000000000051683050000000000  3020130114   01          2                                                                                   3156159682654160141951600029                                                  N                     01321  0000000        000024
12009338857000190FERNANDO  NAGAO  CARDONE  ALVA                                        000000000330000000000000000000000000000091653176000000300000000ALTA 11 2012   201211202012103000000000055230000134632000000000158198000000000000000000000000023566050000000000  3020130114   01          2                                                                                   3947901700000051051630010119                                                  N                     01321  0000000        000025
12035820448000136WHITE MARTINS GASES INDUSTRIAI                                        0000000023700026400000003937925 0000000094008690009023490004358422145 001     201301102012121400000000055740000021808000000000022272000000000000000000000000000464050000000000  3020130114   01          2  RUA GANGES  528                                                                  3                         000000000000000                                     N                     00598  0000000        000026
12042956441000101SOLUCOES ACO USIMINAS                                                 0000000034100000000000000000000000000000850740470000002233586810017101002     201209142012071900000000054560000732575000000000911305000000000000000000000000178730050000000000  3020130114   01          2                                                                                   3112233586810293807258000019                                                  N                     01321  0000000        000027
12042956441000101SOLUCOES ACO USIMINAS                                                 0000000034100000000000000000000000000000850740480000002233586820017101202     201209142012071900000000054560000144634000000000179892000000000000000000000000035258050000000000  3020130114   01          2                                                                                   3112233586828293807258000029                                                  N                     01321  0000000        000028
12042956441000101SOLUCOES ACO USIMINAS                                                 0000000034100000000000000000000000000000853154840000002246247030017196702     201209202012072500000000054620000234841000000000289361000000000000000000000000054520050000000000  3020130114   01          2                                                                                   3112246247038293807258000099                                                  N                     01321  0000000        000029
12042956441000101SOLUCOES ACO USIMINAS                                                 0000000034100000000000000000000000000000853154850000002246247040017197302     201209202012072500000000054620000970103000000001195143000000000000000000000000225040050000000000  3020130114   01          2                                                                                   3112246247046293807258000019                                                  N                     01321  0000000        000030
12042956441000101SOLUCOES ACO USIMINAS                                                 0000000034100000000000000000000000000000855028690000002254329380017212902     201209212012072600000000054630000140098000000000172298000000000000000000000000032200050000000000  3020130114   01          2                                                                                   3112254329389293807258000019                                                  N                     01321  0000000        000031
12042956441000101SOLUCOES ACO USIMINAS                                                 0000000034100000000000000000000000000000855028700000002254329390017213002     201209212012072600000000054630000140602000000000172917000000000000000000000000032315050000000000  3020130114   01          2                                                                                   3112254329397293807258000089                                                  N                     01321  0000000        000032
12042956441000101SOLUCOES ACO USIMINAS                                                 0000000034100000000000000000000000000000855028770000002254329400017220502     201209212012072700000000054630000981022000000001206652000000000000000000000000225630050000000000  3020130114   01          2                                                                                   3112254329405293807258000099                                                  N                     01321  0000000        000033
12042956441000101SOLUCOES ACO USIMINAS                                                 0000000034100000000000000000000000000000859590620000002274469790017353702     201209282012080300000000054700000081053000000000098549000000000000000000000000017496050000000000  3020130114   01          2                                                                                   3112274469793293807258000069                                                  N                     01321  0000000        000034
12042956441000101SOLUCOES EM ACO USIMINAS S A                                          000000000010000000000000000000000000000095374329000000109031000000197994001   201302072013011000000000056020000816095000000000816095000000000000000000000000000000050000000000  3020130207   01FS        1                                                                                   3000000169660100001090311759                                                  N                     01321  0000000        000035
12042956441000101SOLUCOES EM ACO USIMINAS S A                                          000000000010000000000000000000000000000095374330000000109032000000197994002   201303072013011000000000056300000815850000000000815850000000000000000000000000000000050000000000  3020130307   01FS        1                                                                                   3000000169660100001090321719                                                  N                     01321  0000000        000036
12042956441000101SOLUCOES EM ACO USIMINAS S A                                          000000000010000000000000000000000000000095374331000000108861000000197809001   201302052013011000000000056000000825353000000000825353000000000000000000000000000000050000000000  3020130205   01FS        1                                                                                   3000000169660100001088611799                                                  N                     01321  0000000        000037
12042956441000101SOLUCOES EM ACO USIMINAS S A                                          000000000010000000000000000000000000000095374332000000108862000000197809002   201303052013011000000000056280000825105000000000825105000000000000000000000000000000050000000000  3020130305   01FS        1                                                                                   3000000169660100001088621719                                                  N                     01321  0000000        000038
12042956441000101SOLUCOES EM ACO USIMINAS S A                                          000000000010000000000000000000000000000095374333000000108863000000197809003   201304022013011000000000056560000825106000000000825106000000000000000000000000000000050000000000  3020130402   01FS        1                                                                                   3000000169660100001088631769                                                  N                     01321  0000000        000039
12042956441000101SOLUCOES EM ACO USIMINAS S A                                          000000000010000000000000000000000000000095374334000000109033000000197994003   201304042013011000000000056580000815849000000000815849000000000000000000000000000000050000000000  3020130404   01FS        1                                                                                   3000000169660100001090331719                                                  N                     01321  0000000        000040
12043298975000150JOMARCA INDL DE PARAFUSOS LTDA                                        0000000003300000000000000000000000000000893373870000004200000000160394 03     201212302012100100000000055630000365000000000000367190000000000000000000000000002555050000000000  3020130104   05          3                                                                                   3935059520000000532142010429                                                  N                     01321  0000000        000041
12045635984000115CRIFER LAMINADOS DE ACO E FERR                                        0000000000100000000000000000000000000000898741140000000041660000035395E03     201301032012100900000000055670000802816000000000804422000000000000000000000000003212050000000000  3020130104   05          3                                                                                   3000000147532500000041661719                                                  N                     01321  0000000        000042
12045635984000115CRIFER LAMINADOS DE ACO E FERR                                        0000000003300000000000000000000000000000917414020000007500000000036176E02     201301032012110800000000055670000501947000000000512989000000000000000000000000011042050000000000  3020130114   01          2                                                                                   3901184270000000261475010159                                                  N                     01321  0000000        000043
12047190731000100DE CASTRO LOUR ENG IND LTDA                                           00000000341000000000000000000000000000008782052500000023399955603026636 0     201209192012082200000000054610000940804000000001157254000000000000000000000000216450050000000000  3020130114   01          2                                                                                   3112339995568036884500400049                                                  N                     01321  0000000        000044
12047190731000100DE CASTRO LOUR ENG IND LTDA                                           00000000341000000000000000000000000000008782052700000023399956203026648 0     201209202012082300000000054620000976053000000001198773000000000000000000000000222720050000000000  3020130114   01          2                                                                                   3112339995626036884500400029                                                  N                     01321  0000000        000045
12047190731000100DE CASTRO LOUR ENG IND LTDA                                           00000000341000000000000000000000000000008782059200000023602715103026744 0     201212262012082900000000055590000146636000000000152108000000000000000000000000005472050000000000  3020130114   01          2                                                                                   3112360271517036884500400019                                                  N                     01321  0000000        000046
12047190731000100DE CASTRO LOUR ENG IND LTDA                                           00000000341000000000000000000000000000008782059600000023602714803026734 0     201212252012082800000000055580000998134000000001037394000000000000000000000000039260050000000000  3020130114   01          2                                                                                   3112360271483036884500400059                                                  N                     01321  0000000        000047
12047190731000100DE CASTRO LOUR ENG IND LTDA                                           00000000341000000000000000000000000000008782050900000023399953503026612 0     201209182012082100000000054600001111489000000001369437000000000000000000000000257948050000000000  3020130114   01          2                                                                                   3112339995352036884500400019                                                  N                     01321  0000000        000048
12047190731000100DE CASTRO LOUR ENG IND LTDA                                           00000000341000000000000000000000000000008782051200000023399953803026613 0     201209182012082100000000054600001107989000000001365111000000000000000000000000257122050000000000  3020130114   01          2                                                                                   3112339995386036884500400039                                                  N                     01321  0000000        000049
12047190731000100DE CASTRO LOUR ENG IND LTDA                                           00000000341000000000000000000000000000008782051600000023399954103026614 0     201209182012082100000000054600001047621000000001290701000000000000000000000000243080050000000000  3020130114   01          2                                                                                   3112339995410036884500400039                                                  N                     01321  0000000        000050
12047190731000100DE CASTRO LOUR ENG IND LTDA                                           00000000341000000000000000000000000000008782052000000023399955303026632 0     201209192012082200000000054610000952073000000001171097000000000000000000000000219024050000000000  3020130114   01          2                                                                                   3112339995535036884500400019                                                  N                     01321  0000000        000051
12047190731000100DE CASTRO LOUR ENG IND LTDA                                           00000000341000000000000000000000000000008782052100000023399955903026643 0     201209202012082300000000054620000867039000000001064819000000000000000000000000197780050000000000  3020130114   01          2                                                                                   3112339995592036884500400049                                                  N                     01321  0000000        000052
12047190731000100DE CASTRO LOUR ENG IND LTDA                                           00000000341000000000000000000000000000009041732400000025008465303027256 0     201301082012101600000000055720001108934000000001122020000000000000000000000000013086050000000000  3020130114   01          2                                                                                   3112500846533036884500400089                                                  N                     01321  0000000        000053
12047190731000100DE CASTRO LOUR ENG IND LTDA                                           00000000341000000000000000000000000000009041732600000025008465603027257 0     201301102012101600000000055740000752126000000000758042000000000000000000000000005916050000000000  3020130114   01          2                                                                                   3112500846566036884500400089                                                  N                     01321  0000000        000054
12047190731000100DE CASTRO LOUR ENG IND LTDA                                           00000000341000000000000000000000000000009041733000000025008464703027216 0     201301022012101000000000055660000225446000000000230762000000000000000000000000005316050000000000  3020130114   01          2                                                                                   3112500846475036884500400019                                                  N                     01321  0000000        000055
12047190731000100DE CASTRO LOUR ENG IND LTDA                                           00000000341000000000000000000000000000009041733200000025008465003027234 0     201301032012101100000000055670001029906000000001052181000000000000000000000000022275050000000000  3020130114   01          2                                                                                   3112500846509036884500400099                                                  N                     01321  0000000        000056
12047190731000100DE CASTRO LOUR ENG IND LTDA                                           00000000341000000000000000000000000000008782059700000023602715403026745 0     201212262012082900000000055590000903448000000000937211000000000000000000000000033763050000000000  3020130114   01          2                                                                                   3112360271541036884500400019                                                  N                     01321  0000000        000057
12048775225000146SEIKI IND COM E CONFECCOES LTD                                        000000003410000000000000000000000000000089337376000000244697151014914001      201210232012092500000000054950000052000000000000058474000000000000000000000000006474050000000000  3020130114   01          2                                                                                   3112446971510017444824100089                                                  N                     01321  0000000        000058
12056993512000150CYKLOP DO BRASIL EMBALAGENS SA                                        0000000034100000000000000000000000000000874070500000002362586810134932        201210012012090300000000054730000083607000000000115842000000000000000000000000032235050000000000  3020130114   01          2                                                                                   3112362586813025700015800019                                                  N                     01321  0000000        000059
12059588111000103BANCO VOTORANTIM S A                                                  000000000010000000000000000000000000000093736679000000003778000144350 1       201301042012121000000000055680000575413000000000575413000000000000000000000000000000050000000000  3020130104   05          3                                                                                   3000000145167244310037781139                                                  N                     01321  0000000        000060
12059588111000103BANCO VOTORANTIM S A                                                  000000000010000000000000000000000000000093736681000000003779000144349 1       201301042012121000000000055680000272508000000000272508000000000000000000000000000000050000000000  3020130104   05          3                                                                                   3000000145167244310037791139                                                  N                     01321  0000000        000061
12059588111000103BANCO VOTORANTIM S A                                                  000000000010000000000000000000000000000093925311000000800178000144540 1       201301072012121200000000055710000503183000000000503183000000000000000000000000000000050000000000  3020130107   06          3                                                                                   3000000145167244318001781119                                                  N                     01321  0000000        000062
12061600839000155CENTRO DE INT EMPRESA ESCOLA C                                        0000000023703391P00000000866202 00000000953743380090000037678547641C 0001     201301312013011000000000055950000016800000000000016800000000000000000000000000000000050000000000  3020130131   01FS        1  R GANGES  528                                                                    3                         000000000000000                                     N                     00598  0000000        000063
12062510367000102ITANHAEM TRANSP DE MAQUINAS LT                                        000000003410000000000000000000000000000087407049000000236463199667            201209202012090400000000054620000248220000000000363408000000000000000000000000115188050000000000  3020130114   01          2                                                                                   3112364631997005770252400049                                                  N                     01321  0000000        000064
12062539994000176LEALFER INDUSTRIA E COMERCIO D                                        0000000003300000000000000000000000000000919322010000002200000000005787002     201301012012110500000000055650000596925000000000599969000000000000000000000000004058050000000000  3020130104   05          3                                                                                   3915298380000000292222010429                                                  N                     01321  0000000        000065
12062539994000176LEALFER INDUSTRIA E COMERCIO D                                        0000000003300000000000000000000000000000919322030000004900000000005786802     201301012012110500000000055650000838712000000000842989000000000000000000000000005702050000000000  3020130104   05          3                                                                                   3915298380000000292249010489                                                  N                     01321  0000000        000066
12062539994000176LEALFER INDUSTRIA E COMERCIO D                                        0000000003300000000000000000000000000000902449840000000700000000005648903     201301012012100900000000055650000447825000000000450108000000000000000000000000003044050000000000  3020130104   05          3                                                                                   3915298380000000280607010459                                                  N                     01321  0000000        000067
12064952757000168WALMAC COM DE PROD QUIMICOS LT                                        0000000034100000000000000000000000000000860403450000002275821700020148        201210052012080300000000054770000219267000000000262798000000000000000000000000043531050000000000  3020130114   01          2                                                                                   3112275821703064807961400029                                                  N                     01321  0000000        000068
12066841552000130R V SEG PATRIMONIAL LTDA                                              00000000341000000000000000000000000000009410260600000090002279822798          201301102012120700000000055740000394482000000000395010000000000000000000000000000528050000000000  3020130114   01          2                                                                                   3109000227984001835253400029                                                  N                     01321  0000000        000069
12069284248000128ISOCOAT TINTAS E VERNIZES LTDA                                        0000000034100000000000000000000000000000921267640000002580320820057981        201301112012111200000000055750000349765000000000352564000000000000000000000000002799050000000000  3020130114   01          2                                                                                   3112580320821077430121200019                                                  N                     01321  0000000        000070
12069284248000128ISOCOAT TINTAS E VERNIZES LTDA                                        0000000034100000000000000000000000000000908309610000002521130200057192        201301072012102400000000055710000318064000000000324000000000000000000000000000005936050000000000  3020130114   01          2                                                                                   3112521130206077430121200019                                                  N                     01321  0000000        000071
12069284248000128ISOCOAT TINTAS E VERNIZES LTDA                                        0000000034100000000000000000000000000000841061040000002182507930052085        201209172012070200000000054590000236130000000000311100000000000000000000000000074970050000000000  3020130114   01          2                                                                                   3112182507932077430121200019                                                  N                     01321  0000000        000072
900007300000000042337996                                                                                                                                                                                                                                                                                                                                                                                                                                                                01321  0000000        000073
