0000147602043799295000110ALTAMIRA INDUSTRIA METALURGICA LT       202000000021820120912155247             2                                                                                                  000000000000000                                                                                                                                                                                                                                                                                   000001
12043799295000110ALTAMIRA INDUSTRIA METAL LTDA                                         0000000003303809500000130004071 I000000000009844000000000000000               201209120000000000000000000000000000000000000002500000000000000000000000000000000000050000000001  0820120912   01HF        5001549000000004767035000000000000000                                               3D0000000101                               01                                 S                     01133 10020256        000002
900000300000000002500000                                                                                                                                                                                    000000000000000                                                                                                                                                                                                                                                    00000100000000000000000        000003
