0000147602043799295000110ALTAMIRA INDUSTRIA METALURGICA LT       202000000186820120913213023             3                                                                                                  000000000000000                                                                                                                                                                                                                                                                                   000001
12035820448000136WHITE MARTINS GASES IND LTDA                                          0000000023700026400000003937925 I000000000009857009022270006973               201209130000000000000000054550000018021000000000018021000000000000000000000000000000010000228577  3120120913   02BW        5000000               000000000000000                                               3002609222700069730393792019               228577                             N                     01079 10020256        000002
12006894969000130TERRA DIESEL COMERCIO DE PECAS                                        00000000104000000000000000000000000000008701774300000000019910014063A         201209132012082700000000054550000008600000000000008600000000000000000000000000000000050000000000  3020120913   02BW        2000000               000000000000000                                               3900000019930598700000020519               14063/1                            N                     01132 10020256        000003
12061217188000119TELAS METALICAS TELMETAL LTDA                                         0000000003300000 0000000000000  I000000000009854000000000000000               201209130000000000000000054550000045377000000000045377000000000000000000000000000000010000005425  3120120913   02BW        5000000               000000000000000                                               3915435040000000047414020139               5425/03-03                         N                     01132 10020256        000004
12001852612000175BT PRODUTOS INDS LTDA                                                 0000000034100000 0000000000000  I000000000009855000000000000000               201209130000000000000000054550000044976000000000044976000000000000000000000000000000010000046336  3120120913   02BW        5000000               000000000000000                                               3181540985396052567228300059               046336/01                          N                     01132 10020256        000005
12061217188000119TELAS METALICAS TELMETAL LTDA                                         0000000000100000 0000000000000  I000000000009856000000000000000               201209130000000000000000054550000043522000000000043522000000000000000000000000000000010000005492  3120120913   02BW        5000000               000000000000000                                               3000000115031800000056071739               5492/01-03                         N                     01132 10020256        000006
12061217188000119TELAS METALICAS TELMETAL LTDA                                         0000000000100000 0000000000000  I000000000009858000000000000000               201209130000000000000000054550000017242000000000017242000000000000000000000000000000010000005493  3120120913   02BW        5000000               000000000000000                                               3000000115031800000056101789               5493/01-03                         N                     01132 10020256        000007
12012024627000161COMERCIO ACESS IND CONTUFLEX L                                        0000000034100000 0000000000000  I000000000009859000000000000000               201209130000000000000000054550000013526000000000013526000000000000000000000000000000010000004897  3120120913   02BW        5000000               000000000000000                                               3181540975028000264578600079               04897                              N                     01132 10020256        000008
12061217188000119TELAS METALICAS TELMETAL LTDA                                         0000000000100000 0000000000000  I000000000009860000000000000000               201209130000000000000000054550000008540000000000008540000000000000000000000000000000010000005494  3120120913   02BW        5000000               000000000000000                                               3000000115031800000056131719               05494/01-03                        N                     01132 10020256        000009
900001000000000000199804                                                                                                                                                                                    000000000000000                                                                                                                                                                                                                                                    00000800436400000199804        000010
