0000147602043799295000110ALTAMIRA INDUSTRIA METALURGICA LT       202000000016620121113060440             1                                                                                                                                                                                                                                                                                                                                                                                                    000001
12001895314000162COLETA INDUSTRIAL FIMAVAN LTDA                                        0000000034100000000000000000000000000000866992070000009002335349439           201208272012081700000000054380000123695000000000151831000000000000000000000000028136050000000000  3020121113   01          2                                                                                   3109002335346144604097200019                                                  N                     01321  0000000        000002
12002583013000166ITAN TRANSP DE CARGAS EXC E IN                                        000000003410000000000000000000000000000088350836000000239377422008 B          201210212012091400000000054930000192500000000000210210000000000000000000000000017710050000000000  3020121113   01          2                                                                                   3112393774222005770252400039                                                  N                     01321  0000000        000003
12003489596000123BEND FLEX I COMERCIO LTDA                                             000000003410000000000000000000000000000088350832000000171879874608            201209122012082100000000054540000695250000000000780004000000000000000000000000084754050000000000  3020121113   01          2                                                                                   3191718798744157734445800069                                                  N                     01321  0000000        000004
12003489596000123BEND FLEX I COMERCIO LTDA                                             000000003410000000000000000000000000000088599899000000171434574613            201209172012081600000000054590000585000000000000650607000000000000000000000000065607050000000000  3020121113   01          2                                                                                   3191714345748157734445800019                                                  N                     01321  0000000        000005
12003489596000123BEND FLEX I COMERCIO LTDA                                             000000003410000000000000000000000000000091358505000000177374323637            201210292012092700000000055010000110000000000000113240000000000000000000000000003240050000000000  3020121113   01          2                                                                                   3191773743239157734445800019                                                  N                     01321  0000000        000006
12005880850000145NEDERMAN BRASIL COM PROD EX LT                                        000000003410000000000000000000000000000086373178000000614350956002763 A       201209252012081400000000054670000289674000000000317604000000000000000000000000027930050000000000  3020121113   01          2                                                                                   3156143509568160829000100049                                                  N                     01321  0000000        000007
12006000195000156MBA MERCANTIL BRAS DE ACO LTDA                                        0000000034100000000000000000000000000000885998980000001667238420008870B02     201209112012071600000000054530000839952000000000944028000000000000000000000000104076050000000000  3020121113   01          2                                                                                   3191667238429064849251000039                                                  N                     01321  0000000        000008
12006000195000156MBA MERCANTIL BRAS DE ACO LTDA                                        0000000034100000000000000000000000000000887698090000001671394550008925B02     201209142012071700000000054560000719581000000000804481000000000000000000000000084900050000000000  3020121113   01          2                                                                                   3191671394556064849251000089                                                  N                     01321  0000000        000009
12006000195000156MBA MERCANTIL BRAS DE ACO LTDA                                        0000000034100000000000000000000000000000887698100000001671394560008926B02     201209142012071700000000054560000387716000000000433496000000000000000000000000045780050000000000  3020121113   01          2                                                                                   3191671394564064849251000019                                                  N                     01321  0000000        000010
12006000195000156MBA MERCANTIL BRAS DE ACO LTDA                                        0000000034100000000000000000000000000000904173140000001667238290008874B03     201210112012071600000000054830000802825000000000854932000000000000000000000000052107050000000000  3020121113   01          2                                                                                   3191667238296064849251000069                                                  N                     01321  0000000        000011
12006000195000156MBA MERCANTIL BRAS DE ACO LTDA                                        0000000034100000000000000000000000000000904173150000001667238300008870B03     201210092012071600000000054810000839951000000000897771000000000000000000000000057820050000000000  3020121113   01          2                                                                                   3191667238304064849251000039                                                  N                     01321  0000000        000012
12006000195000156MBA MERCANTIL BRAS DE ACO LTDA                                        0000000034100000000000000000000000000000904173160000001667238280008876B03     201210122012071600000000054840000810320000000000861328000000000000000000000000051008050000000000  3020121113   01          2                                                                                   3191667238288064849251000079                                                  N                     01321  0000000        000013
12006000195000156MBA MERCANTIL BRAS DE ACO LTDA                                        0000000034100000000000000000000000000000904173170000001671394420008925B03     201210122012071700000000054840000719580000000000764860000000000000000000000000045280050000000000  3020121113   01          2                                                                                   3191671394424064849251000069                                                  N                     01321  0000000        000014
12006000195000156MBA MERCANTIL BRAS DE ACO LTDA                                        0000000034100000000000000000000000000000904173180000001671394430008926B03     201210122012071700000000054840000387716000000000412132000000000000000000000000024416050000000000  3020121113   01          2                                                                                   3191671394432064849251000079                                                  N                     01321  0000000        000015
12006000195000156MBA MERCANTIL BRAS DE ACO LTDA                                        0000000034100000000000000000000000000000906662670000001671394410008920B03     201210142012071700000000054860000576584000000000610604000000000000000000000000034020050000000000  3020121113   01          2                                                                                   3191671394416064849251000039                                                  N                     01321  0000000        000016
12006000195000156MBA MERCANTIL BRAS DE ACO LTDA                                        0000000034100000000000000000000000000000889578520000001671394540008920B02     201209162012071700000000054580000576585000000000642357000000000000000000000000065772050000000000  3020121113   01          2                                                                                   3191671394549064849251000099                                                  N                     01321  0000000        000017
12006000195000156M B A MERCANTIL BRASILEIRA DE                                         0000000023700118P00000002130599 00000000865388260020222900000470009204B02     201210112012081500000000054830000127292000000000134288000000000000000000000000006996050000000000  3020121113   01          2  RUA JUNO  533                                                                    3                         000000000000000                                     N                     00598  0000000        000018
12006000195000156M B A MERCANTIL BRASILEIRA DE                                         0000000023700118P00000002130599 00000000865388290020222900000500009205B02     201210122012081500000000054840000348964000000000367588000000000000000000000000018624050000000000  3020121113   01          2  RUA JUNO  533                                                                    3                         000000000000000                                     N                     00598  0000000        000019
12006000195000156M B A MERCANTIL BRASILEIRA DE                                         0000000023700118P00000002130599 00000000865388320020222900000530009206B02     201210132012081500000000054850000527560000000000554809000000000000000000000000027249050000000000  3020121113   01          2  RUA JUNO  533                                                                    3                         000000000000000                                     N                     00598  0000000        000020
12006000195000156M B A MERCANTIL BRASILEIRA DE                                         0000000023700118P00000002130599 00000000868592690020223600000020009229B02     201210112012081600000000054830000253414000000000267340000000000000000000000000013926050000000000  3020121113   01          2  RUA JUNO  533                                                                    3                         000000000000000                                     N                     00598  0000000        000021
12006000195000156M B A MERCANTIL BRASILEIRA DE                                         0000000023700118P00000002130599 00000000848180770020220100000340008905B03     201210112012071900000000054830000155300000000000163847000000000000000000000000008547050000000000  3020121113   01          2  RUA JUNO  533                                                                    3                         000000000000000                                     N                     00598  0000000        000022
12008594182000188ACOS G3 COMERCIO E BENEFICIAME                                        0000000023703137200000000091332 00000000912467990090227100000251155        001201210252012092700000000054970000152346000000000156250000000000000000000000000003904050000000000  3020121113   01          2  RUA GANGES  528                                                                  3                         000000000000000                                     N                     00598  0000000        000023
12008879248000186FREFER METAL PLUS                                                     000000003410000000000000000000000000000091833884000000256609812EMO013946A     201212052012110700000000055380000535589000000000535589000000000000000000000000000000050000000000  3020121205   01FS        1                                                                                   3112566098128293811346700089                                                  N                     01321  0000000        000024
12009338857000190FERNANDO  NAGAO  CARDONE  ALVA                                        000000000330000000000000000000000000000089697936000000800000000ALTA 10 2012   201210202012092500000000054920000134632000000000145674000000000000000000000000011042050000000000  3020121113   01          2                                                                                   3947901700000051050080010129                                                  N                     01321  0000000        000025
12012006058000121WEG TINTAS LTDA                                                       0000000023702727800000000001309 00000000868126360090223500001190016086603     201211042012082100000000055070000306662000000000310334000000000000000000000000003672050000000000  3020121113   01          2  R JUNO  533                                                                      3                         000000000000000                                     N                     00598  0000000        000026
12012006058000121WEG TINTAS LTDA                                                       0000000023702727800000000001309 00000000861207280090222200000920015775003     201210222012080800000000054940000306662000000000315638000000000000000000000000008976050000000000  3020121113   01          2  R JUNO  533                                                                      3                         000000000000000                                     N                     00598  0000000        000027
12012006058000121WEG TINTAS LTDA                                                       0000000023702727800000000001309 00000000864554460090222800000750015908403     201210282012081400000000055000000306662000000000313190000000000000000000000000006528050000000000  3020121113   01          2  R JUNO  533                                                                      3                         000000000000000                                     N                     00598  0000000        000028
12012006058000121WEG TINTAS LTDA                                                       0000000023702727800000000001309 00000000870177490090224100000980016248002     201210262012082700000000054980000306569000000000313913000000000000000000000000007344050000000000  3020121113   01          2  R JUNO  533                                                                      3                         000000000000000                                     N                     00598  0000000        000029
12012006058000121WEG TINTAS LTDA                                                       0000000023702727800000000001309 00000000870177500090224100000990016248003     201211102012082700000000055130000306662000000000307886000000000000000000000000001224050000000000  3020121113   01          2  R JUNO  533                                                                      3                         000000000000000                                     N                     00598  0000000        000030
12012006058000121WEG TINTAS LTDA                                                       0000000023702727800000000001309 00000000872318650090224700001030016359601     201210152012083100000000054870000459854000000000477631000000000000000000000000017777050000000000  3020121113   01          2  R JUNO  533                                                                      3                         000000000000000                                     N                     00598  0000000        000031
12012006058000121WEG TINTAS LTDA                                                       0000000023702727800000000001309 00000000872318660090224700001040016359602     201210302012083100000000055020000459854000000000468436000000000000000000000000008582050000000000  3020121113   01          2  R JUNO  533                                                                      3                         000000000000000                                     N                     00598  0000000        000032
12012006058000121WEG TINTAS LTDA                                                       0000000023702727800000000001309 00000000878206040090225400000780016517201     201210212012090600000000054930000459854000000000473953000000000000000000000000014099050000000000  3020121113   01          2  R JUNO  533                                                                      3                         000000000000000                                     N                     00598  0000000        000033
12012006058000121WEG TINTAS LTDA                                                       0000000023702727800000000001309 00000000878206050090225400000790016517202     201211052012090600000000055080000459854000000000464758000000000000000000000000004904050000000000  3020121113   01          2  R JUNO  533                                                                      3                         000000000000000                                     N                     00598  0000000        000034
12012006058000121WEG TINTAS LTDA                                                       0000000023702727800000000001309 00000000882668410090225800000740016626901     201210282012091300000000055000000459854000000000469662000000000000000000000000009808050000000000  3020121113   01          2  R JUNO  533                                                                      3                         000000000000000                                     N                     00598  0000000        000035
12012006058000121WEG TINTAS LTDA                                                       0000000023702727800000000001309 00000000882668420090225800000750016626902     201211122012091300000000055150000459854000000000460467000000000000000000000000000613050000000000  3020121113   01          2  R JUNO  533                                                                      3                         000000000000000                                     N                     00598  0000000        000036
12012006058000121WEG TINTAS LTDA                                                       0000000023702727800000000001309 00000000868126350090223500001180016086602     201210202012082100000000054920000306569000000000316361000000000000000000000000009792050000000000  3020121113   01          2  R JUNO  533                                                                      3                         000000000000000                                     N                     00598  0000000        000037
12017469701000177ARCELORMITTAL BRASIL S A                                              0000000034100000000000000000000000000000918338820000009327081400013764703     201212202012110800000000055530000075759000000000075759000000000000000000000000000000050000000000  3020121220   01FS        1                                                                                   3109327081408293802529900019                                                  N                     01321  0000000        000038
12017469701000177ARCELORMITTAL BRASIL S A                                              0000000034100000000000000000000000000000918338800000009327081390013764702     201212132012110800000000055460000075757000000000075757000000000000000000000000000000050000000000  3020121213   01FS        1                                                                                   3109327081390293802529900029                                                  N                     01321  0000000        000039
12017469701000177ARCELORMITTAL BRASIL S A                                              0000000034100000000000000000000000000000918338810000009327081380013764701     201212062012110800000000055390000075757000000000075757000000000000000000000000000000050000000000  3020121206   01FS        1                                                                                   3109327081382293802529900099                                                  N                     01321  0000000        000040
12042956441000101SOLUCOES ACO USIMINAS                                                 0000000034100000000000000000000000000000853154840000002246247030017196702     201209202012072500000000054620000234841000000000260221000000000000000000000000025380050000000000  3020121113   01          2                                                                                   3112246247038293807258000099                                                  N                     01321  0000000        000041
12042956441000101SOLUCOES ACO USIMINAS                                                 0000000034100000000000000000000000000000853154850000002246247040017197302     201209202012072500000000054620000970103000000001074863000000000000000000000000104760050000000000  3020121113   01          2                                                                                   3112246247046293807258000019                                                  N                     01321  0000000        000042
12042956441000101SOLUCOES ACO USIMINAS                                                 0000000034100000000000000000000000000000855028690000002254329380017212902     201209212012072600000000054630000140098000000000154938000000000000000000000000014840050000000000  3020121113   01          2                                                                                   3112254329389293807258000019                                                  N                     01321  0000000        000043
12042956441000101SOLUCOES ACO USIMINAS                                                 0000000034100000000000000000000000000000855028700000002254329390017213002     201209212012072600000000054630000140602000000000155495000000000000000000000000014893050000000000  3020121113   01          2                                                                                   3112254329397293807258000089                                                  N                     01321  0000000        000044
12042956441000101SOLUCOES ACO USIMINAS                                                 0000000034100000000000000000000000000000855028770000002254329400017220502     201209212012072700000000054630000981022000000001085008000000000000000000000000103986050000000000  3020121113   01          2                                                                                   3112254329405293807258000099                                                  N                     01321  0000000        000045
12042956441000101SOLUCOES ACO USIMINAS                                                 0000000034100000000000000000000000000000856906410000002262886280017266201     201208282012073000000000054390000119472000000000137875000000000000000000000000018403050000000000  3020121113   01          2                                                                                   3112262886289293807258000089                                                  N                     01321  0000000        000046
12042956441000101SOLUCOES ACO USIMINAS                                                 0000000034100000000000000000000000000000856906420000002262886290017266301     201208282012073000000000054390000145069000000000167399000000000000000000000000022330050000000000  3020121113   01          2                                                                                   3112262886297293807258000099                                                  N                     01321  0000000        000047
12042956441000101SOLUCOES ACO USIMINAS                                                 0000000034100000000000000000000000000000859590620000002274469790017353702     201209282012080300000000054700000081053000000000088505000000000000000000000000007452050000000000  3020121113   01          2                                                                                   3112274469793293807258000069                                                  N                     01321  0000000        000048
12042956441000101SOLUCOES ACO USIMINAS                                                 0000000034100000000000000000000000000000846595700000002210880280016980502     201209102012071200000000054520000156071000000000176039000000000000000000000000019968050000000000  3020121113   01          2                                                                                   3112210880285293807258000039                                                  N                     01321  0000000        000049
12042956441000101SOLUCOES ACO USIMINAS                                                 0000000034100000000000000000000000000000846595710000002210880290016980602     201209102012071200000000054520000426094000000000480622000000000000000000000000054528050000000000  3020121113   01          2                                                                                   3112210880293293807258000019                                                  N                     01321  0000000        000050
12042956441000101SOLUCOES ACO USIMINAS                                                 0000000034100000000000000000000000000000847452070000002216130350005922202     201209102012071600000000054520000172071000000000194087000000000000000000000000022016050000000000  3020121113   01          2                                                                                   3112216130354293807258000049                                                  N                     01321  0000000        000051
12042956441000101SOLUCOES ACO USIMINAS                                                 0000000034100000000000000000000000000000847452100000002216130340017012402     201209102012071500000000054520000147428000000000166308000000000000000000000000018880050000000000  3020121113   01          2                                                                                   3112216130347293807258000059                                                  N                     01321  0000000        000052
12042956441000101SOLUCOES ACO USIMINAS                                                 0000000034100000000000000000000000000000848180700000002220192900017041002     201209112012071700000000054530000155433000000000175026000000000000000000000000019593050000000000  3020121113   01          2                                                                                   3112220192903293807258000029                                                  N                     01321  0000000        000053
12042956441000101SOLUCOES ACO USIMINAS                                                 0000000034100000000000000000000000000000848180710000002220192910017041202     201209112012071700000000054530000205421000000000231314000000000000000000000000025893050000000000  3020121113   01          2                                                                                   3112220192911293807258000019                                                  N                     01321  0000000        000054
12042956441000101SOLUCOES ACO USIMINAS                                                 0000000034100000000000000000000000000000850740460000002233586800017127201     201208202012072000000000054310000137881000000000161341000000000000000000000000023460050000000000  3020121113   01          2                                                                                   3112233586802293807258000019                                                  N                     01321  0000000        000055
12042956441000101SOLUCOES ACO USIMINAS                                                 0000000034100000000000000000000000000000850740470000002233586810017101002     201209142012071900000000054560000732575000000000820475000000000000000000000000087900050000000000  3020121113   01          2                                                                                   3112233586810293807258000019                                                  N                     01321  0000000        000056
12042956441000101SOLUCOES ACO USIMINAS                                                 0000000034100000000000000000000000000000850740480000002233586820017101202     201209142012071900000000054560000144634000000000161974000000000000000000000000017340050000000000  3020121113   01          2                                                                                   3112233586828293807258000029                                                  N                     01321  0000000        000057
12043298975000150JOMARCA INDL DE PARAFUSOS LTDA                                        0000000003300000000000000000000000000000893373890000002600000000160394 01     201210312012100100000000055030000474500000000000475449000000000000000000000000001423050000000000  3020121101   05          3                                                                                   3935059520000000532126010459                                                  N                     01321  0000000        000058
12046178828000135RAPIDO LONDON S A                                                     0000000023703391P00000001061615 0000000091833886009000000022762304206         201212122012111200000000055450000017850000000000017850000000000000000000000000000000050000000000  3020121212   01FS        1  RUA TAMAINDE  1410                                                               3                         000000000000000                                     N                     00598  0000000        000059
12046178828000135RAPIDO LONDON S A                                                     0000000023703391P00000001061615 0000000091833887009000000022763304206         201301122012111200000000055760000017850000000000017850000000000000000000000000000000050000000000  3020130114   01FS        1  RUA TAMAINDE  1410                                                               3                         000000000000000                                     N                     00598  0000000        000060
12047190731000100DE CASTRO LOUR ENG IND LTDA                                           00000000341000000000000000000000000000008782052500000023399955603026636 0     201209192012082200000000054610000940804000000001042554000000000000000000000000101750050000000000  3020121113   01          2                                                                                   3112339995568036884500400049                                                  N                     01321  0000000        000061
12047190731000100DE CASTRO LOUR ENG IND LTDA                                           00000000341000000000000000000000000000008782052700000023399956203026648 0     201209202012082300000000054620000976053000000001079733000000000000000000000000103680050000000000  3020121113   01          2                                                                                   3112339995626036884500400029                                                  N                     01321  0000000        000062
12047190731000100DE CASTRO LOUR ENG IND LTDA                                           00000000341000000000000000000000000000008782050900000023399953503026612 0     201209182012082100000000054600001111489000000001233905000000000000000000000000122416050000000000  3020121113   01          2                                                                                   3112339995352036884500400019                                                  N                     01321  0000000        000063
12047190731000100DE CASTRO LOUR ENG IND LTDA                                           00000000341000000000000000000000000000008782051200000023399953803026613 0     201209182012082100000000054600001107989000000001230013000000000000000000000000122024050000000000  3020121113   01          2                                                                                   3112339995386036884500400039                                                  N                     01321  0000000        000064
12047190731000100DE CASTRO LOUR ENG IND LTDA                                           00000000341000000000000000000000000000008782051600000023399954103026614 0     201209182012082100000000054600001047621000000001162981000000000000000000000000115360050000000000  3020121113   01          2                                                                                   3112339995410036884500400039                                                  N                     01321  0000000        000065
12047190731000100DE CASTRO LOUR ENG IND LTDA                                           00000000341000000000000000000000000000008782052000000023399955303026632 0     201209192012082200000000054610000952073000000001055033000000000000000000000000102960050000000000  3020121113   01          2                                                                                   3112339995535036884500400019                                                  N                     01321  0000000        000066
12047190731000100DE CASTRO LOUR ENG IND LTDA                                           00000000341000000000000000000000000000008782052100000023399955903026643 0     201209202012082300000000054620000867039000000000959109000000000000000000000000092070050000000000  3020121113   01          2                                                                                   3112339995592036884500400049                                                  N                     01321  0000000        000067
12048218317000125RODOENG TRANSPORTES RODOVIARIO                                        00000000001000000000000000000000000000009183387900000050348200013592          201212072012110900000000055400000310000000000000310000000000000000000000000000000000050000000000  3020121207   01FS        1                                                                                   3160305034821494000094531779                                                  N                     01321  0000000        000068
12048775225000146SEIKI IND COM E CONFECCOES LTD                                        000000003410000000000000000000000000000089337376000000244697151014914001      201210232012092500000000054950000052000000000000053638000000000000000000000000001638050000000000  3020121113   01          2                                                                                   3112446971510017444824100089                                                  N                     01321  0000000        000069
12051180370000199IGUAFER FERRO E ACO LTDA                                              0000000034100000000000000000000000000000852309100000002239389789443 B         201209022012071800000000054440000168275000000000188435000000000000000000000000020160050000000000  3020121113   01          2                                                                                   3112239389789077149484600089                                                  N                     01321  0000000        000070
12051180370000199IGUAFER FERRO E ACO LTDA                                              0000000034100000000000000000000000000000852309110000002239389799443 C         201209122012071800000000054540000168275000000000185635000000000000000000000000017360050000000000  3020121113   01          2                                                                                   3112239389797077149484600089                                                  N                     01321  0000000        000071
12053585766000141MULTIACOS I C PRODS TEC LTDA                                          0000000042200000000000000000000000000000887697880000000000000000004612003     201211062012092000000000055090000465862000000000471293000000000000000000000000005431050000000000  3020121113   01          2                                                                                   3711500005033164923629548119                                                  N                     01321  0000000        000072
12053585766000141MULTIACOS I C PRODS TEC LTDA                                          0000000042200000000000000000000000000000887697920000000000000000004612303     201211062012092000000000055090000636673000000000644099000000000000000000000000007426050000000000  3020121113   01          2                                                                                   3711500005033164923629611179                                                  N                     01321  0000000        000073
12053585766000141MULTIACOS I C PRODS TEC LTDA                                          0000000042200000000000000000000000000000887697970000000000000000004612203     201211062012092000000000055090000214553000000000217058000000000000000000000000002505050000000000  3020121113   01          2                                                                                   3711500005033164923629637189                                                  N                     01321  0000000        000074
12053585766000141MULTIACOS I C PRODS TEC LTDA                                          0000000042200000000000000000000000000000883508160000000000000000004674602     201211062012091300000000055090000126819000000000128295000000000000000000000000001476050000000000  3020121113   01          2                                                                                   3711500005033164921116454189                                                  N                     01321  0000000        000075
12053585766000141MULTIACOS I C PRODS TEC LTDA                                          0000000042200000000000000000000000000000883508200000000000000000004674502     201211062012091300000000055090000274012000000000277210000000000000000000000000003198050000000000  3020121113   01          2                                                                                   3711500005033164921116489119                                                  N                     01321  0000000        000076
12053585766000141MULTIACOS I C PRODS TEC LTDA                                          0000000042200000000000000000000000000000895189330000000000000000004737201     201211062012100200000000055090000373564000000000377924000000000000000000000000004360050000000000  3020121113   01          2                                                                                   3711500005033164927761777119                                                  N                     01321  0000000        000077
12053585766000141MULTIACOS I C PRODS TEC LTDA                                          0000000042200000000000000000000000000000890456910000000000000000004724101     201211062012092500000000055090000131776000000000133315000000000000000000000000001539050000000000  3020121113   01          2                                                                                   3711500005033164925775126119                                                  N                     01321  0000000        000078
12053585766000141MULTIACOS I C PRODS TEC LTDA                                          0000000042200000000000000000000000000000895189530000000000000000004695802     201211122012100200000000055150000193011000000000193332000000000000000000000000000321050000000000  3020121113   01          2                                                                                   3711500005033164927762005119                                                  N                     01321  0000000        000079
12053585766000141MULTIACOS I C PRODS TEC LTDA                                          0000000042200000000000000000000000000000895189550000000000000000004695702     201211122012100200000000055150001092223000000001094042000000000000000000000000001819050000000000  3020121113   01          2                                                                                   3711500005033164927761971189                                                  N                     01321  0000000        000080
12053585766000141MULTIACOS I C PRODS TEC LTDA                                          0000000042200000000000000000000000000000895189580000000000000000004699102     201211122012100200000000055150000574719000000000575676000000000000000000000000000957050000000000  3020121113   01          2                                                                                   3711500005033164927762030199                                                  N                     01321  0000000        000081
12053585766000141MULTIACOS I C PRODS TEC LTDA                                          0000000042200000000000000000000000000000895189640000000000000000004750001     201211082012100200000000055110000229622000000000231536000000000000000000000000001914050000000000  3020121113   01          2                                                                                   3711500005033164927762111139                                                  N                     01321  0000000        000082
12053585766000141MULTIACOS I C PRODS TEC LTDA                                          0000000042200000000000000000000000000000895189710000000000000000004685002     201211082012100200000000055110000547346000000000551905000000000000000000000000004559050000000000  3020121113   01          2                                                                                   3711500005033164927762196129                                                  N                     01321  0000000        000083
12053585766000141MULTIACOS I C PRODS TEC LTDA                                          0000000042200000000000000000000000000000895189780000000000000000004674402     201211062012100200000000055090000385696000000000390196000000000000000000000000004500050000000000  3020121113   01          2                                                                                   3711500005033164927762226119                                                  N                     01321  0000000        000084
12054382510000108SETENTA IND E COM DE MADEIRAS                                         0000000034100000000000000000000000000000860403430000002277814474462 A         201209042012080700000000054460000191200000000000217520000000000000000000000000026320050000000000  3020121113   01          2                                                                                   3112277814474057049175300069                                                  N                     01321  0000000        000085
12056993512000150CYKLOP DO BRASIL EMBALAGENS SA                                        0000000034100000000000000000000000000000874070500000002362586810134932        201210012012090300000000054730000083607000000000096808000000000000000000000000013201050000000000  3020121113   01          2                                                                                   3112362586813025700015800019                                                  N                     01321  0000000        000086
12056993900000131CIA METALURGICA PRADA                                                 0000000034100000000000000000000000000000844839000000002201181880025629402     201209052012071100000000054470000249372000000000273084000000000000000000000000024128050000000000  3020121101   05          3                                                                                   3112201181883293800573900019                                                  N                     01321  0000000        000087
12056993900000131CIA METALURGICA PRADA                                                 0000000034100000000000000000000000000000844839010000002201181890025635302     201209052012071100000000054470000406842000000000445488000000000000000000000000039324050000000000  3020121101   05          3                                                                                   3112201181891293800573900019                                                  N                     01321  0000000        000088
12056993900000131CIA METALURGICA PRADA                                                 0000000034100000000000000000000000000000844839020000002201181900025635402     201209052012071100000000054470000208689000000000228525000000000000000000000000020184050000000000  3020121101   05          3                                                                                   3112201181909293800573900069                                                  N                     01321  0000000        000089
12056993900000131CIA METALURGICA PRADA                                                 0000000034100000000000000000000000000000844839030000002201181910025635502     201209052012071100000000054470000164780000000000180455000000000000000000000000015950050000000000  3020121101   05          3                                                                                   3112201181917293800573900029                                                  N                     01321  0000000        000090
12056993900000131CIA METALURGICA PRADA                                                 0000000034100000000000000000000000000000844839040000002201181920025635602     201209052012071100000000054470000339933000000000372252000000000000000000000000032886050000000000  3020121101   05          3                                                                                   3112201181925293800573900069                                                  N                     01321  0000000        000091
12056993900000131CIA METALURGICA PRADA                                                 0000000034100000000000000000000000000000844839050000002201181930025636202     201209052012071100000000054470000746213000000000817121000000000000000000000000072152050000000000  3020121101   05          3                                                                                   3112201181933293800573900019                                                  N                     01321  0000000        000092
12056993900000131CIA METALURGICA PRADA                                                 0000000034100000000000000000000000000000844839060000002201181940025644402     201209052012071100000000054470000779647000000000853690000000000000000000000000075342050000000000  3020121101   05          3                                                                                   3112201181941293800573900019                                                  N                     01321  0000000        000093
12056993900000131CIA METALURGICA PRADA                                                 0000000034100000000000000000000000000000844839140000002201181870025629302     201209052012071100000000054470000257906000000000282416000000000000000000000000024940050000000000  3020121101   05          3                                                                                   3112201181875293800573900069                                                  N                     01321  0000000        000094
12057158057000130COMERCIAL ELETRICA PJ LTDA                                            0000000023703394400000000972983 00000000918338880090231700001980000340677     201212032012110500000000055360000029094000000000029094000000000000000000000000000000050000000000  3020121203   01FS        1  R TAMAINDE 1410                                                                  3                         000000000000000                                     N                     00598  0000000        000095
12057196081000164MINELE COMERCIO DE PARAFUSOS L                                        0000000023700298400000002047470 0000000091833889009023170000004588            201211272012111200000000055300000025860000000000025860000000000000000000000000000000050000000000  3020121127   01FS        1  R  GANGES  528   VL CARRAO                                                       3                         000000000000000                                     N                     00598  0000000        000096
12057398687000182MORED COMERCIO E SERVICOS LTDA                                        0000000034100000000000000000000000000000895189910000006153522805242           201210262012100400000000054980000174053000000000177473000000000000000000000000003762050000000000  3020121105   05          3                                                                                   3156153522804101144455900039                                                  N                     01321  0000000        000097
12059358770000153TRANS NEW ABC TRANSPORTADORA L                                        0000000023701193200000000698555 000000009183388500901323120763555320          201211222012110700000000055250000137001000000000137001000000000000000000000000000000050000000000  3020121122   01FS        1  RUA GANGES 528                                                                   3                         000000000000000                                     N                     00598  0000000        000098
12061217188000119TELAS METALICAS TELMETAL LTDA                                         0000000034100000000000000000000000000000915734070000009000030935879 2 2       201212172012110500000000055500000123653000000000123653000000000000000000000000000000050000000000  3020121217   05          3                                                                                   3109000030935077098123100059                                                  N                     01321  0000000        000099
12062510367000102ITANHAEM TRANSP DE MAQUINAS LT                                        000000003410000000000000000000000000000087407049000000236463199667            201209202012090400000000054620000248220000000000301842000000000000000000000000053622050000000000  3020121113   01          2                                                                                   3112364631997005770252400049                                                  N                     01321  0000000        000100
12062539994000176LEALFER INDUSTRIA E COMERCIO D                                        0000000003300000000000000000000000000000884432780000008400000000005502002     201211092012091300000000055120000839516000000000845224000000000000000000000000005708050000000000  3020121113   01          2                                                                                   3915298380000000264784010469                                                  N                     01321  0000000        000101
12064952757000168WALMAC COM DE PROD QUIMICOS LT                                        0000000034100000000000000000000000000000860403440000002275821690020148        201210262012080300000000054980000219266000000000227024000000000000000000000000007758050000000000  3020121113   01          2                                                                                   3112275821695064807961400019                                                  N                     01321  0000000        000102
12064952757000168WALMAC COM DE PROD QUIMICOS LT                                        0000000034100000000000000000000000000000860403450000002275821700020148        201210052012080300000000054770000219267000000000236076000000000000000000000000016809050000000000  3020121113   01          2                                                                                   3112275821703064807961400029                                                  N                     01321  0000000        000103
12064952757000168WALMAC COM DE PROD QUIMICOS LT                                        0000000034100000000000000000000000000000896979500000002462157550021611        201211012012100400000000055040000219267000000000224439000000000000000000000000005172050000000000  3020121113   01          2                                                                                   3112462157556064807961400019                                                  N                     01321  0000000        000104
12066841552000130R V SEG PATRIMONIAL S C LTDA                                          00000000341000000000000000000000000000008887329800000090002213622136          201210102012091100000000054820000374758000000000379008000000000000000000000000004250050000000000  3020121113   01          2                                                                                   3109000221365001838994000069                                                  N                     01321  0000000        000105
12066841552000130R V SEG PATRIMONIAL LTDA                                              00000000341000000000000000000000000000008852483200000090002192721927          201209102012081000000000054520000483241000000000493545000000000000000000000000010304050000000000  3020121113   01          2                                                                                   3109000219270001835253400099                                                  N                     01321  0000000        000106
12066970229000167NEXTEL TELECOMUNICACOES LTDA                                          0000000023702374400000001596233 000000009066627300900001559308042043 9        201211102012011900000000055130000011880000000000012117000000000000000000000000000237050000000000  3020121113   01          2  R GANGES  520 VILA CARRAO BR                                                     3                         000000000000000                                     N                     00598  0000000        000107
12069284248000128ISOCOAT TINTAS E VERNIZES LTDA                                        0000000034100000000000000000000000000000841061040000002182507930052085        201209172012070200000000054590000236130000000000272040000000000000000000000000035910050000000000  3020121113   01          2                                                                                   3112182507932077430121200019                                                  N                     01321  0000000        000108
12071580302000124SANCHEPEL IND PAULISTA EMB L                                          0000000034100000000000000000000000000000918338830000002567773899025           201212082012110900000000055410000103500000000000103500000000000000000000000000000000050000000000  3020121210   01FS        1                                                                                   3112567773893007855578600029                                                  N                     01321  0000000        000109
12096500087000135WORKBENCH CONSULTORIA S S LTDA                                        0000000034100000000000000000000000000000878205840000007940034283118           201209272012090300000000054690000131746000000000143919000000000000000000000000012173050000000000  3020121113   01          2                                                                                   3157940034289826313803700089                                                  N                     01321  0000000        000110
900011100000000044183102                                                                                                                                                                                                                                                                                                                                                                                                                                                                01321  0000000        000111
