0000147602043799295000110ALTAMIRA INDUSTRIA METALURGICA LT       202000000012520120913065342             1                                                                                                                                                                                                                                                                                                                                                                                                    000001
12001784706000154TRANSPORTES WARTHA LTDA                                               0000000023701775200000000260010 0000000088012264009022210000092SAO2590131     201209032012080800000000054450000034000000000000034728000000000000000000000000000728050000000000  3020120912   05          3  RUA JUNO 533                                                                     3                         000000000000000                                     N                     00598  0000000        000002
12001852612000175BT EQUIP INDUSTRIAIS LTDA EPP                                         000000003410000000000000000000000000000086615424000000230334024590848         201209102012081600000000054520000044535000000000044976000000000000000000000000000441050000000000  3020120913   01          2                                                                                   3112303340247052567228300059                                                  N                     01321  0000000        000003
12001895314000162COLETA INDUSTRIAL FIMAVAN LTDA                                        0000000034100000000000000000000000000000866992070000009002335349439           201208272012081700000000054380000123695000000000131762000000000000000000000000008067050000000000  3020120913   01          2                                                                                   3109002335346144604097200019                                                  N                     01321  0000000        000004
12001951865000104FOUR F FOM MERCANTIL LTDA 1951                                        000000003990000000000000000000000000000088103276000000000000000253 12         201210102012091100000000054820000179000000000000179000000000000000000000000000000000050000000000  3020121010   01FS        1                                                                                   3175969391550198000598000149                                                  N                     01321  0000000        000005
12002503185000182ANDAIMES MAQUINAS BIG LTDA EPP                                        000000003410000000000000000000000000000086282613000000228719913011660         201208302012081000000000054410000012000000000000012352000000000000000000000000000352050000000000  3020120913   01          2                                                                                   3112287199130650303800900039                                                  N                     01321  0000000        000006
12003489596000123BEND FLEX I COMERCIO LTDA                                             000000003410000000000000000000000000000086859265000000792419599608            201209122012082300000000054540000695250000000000710522000000000000000000000000015272050000000000  3020120913   01          2                                                                                   3157924195999157734445800089                                                  N                     01321  0000000        000007
12003803271000173ATUAL SP C DE FERRAMENTAS LTDA                                        000000003410000000000000000000000000000086373180000000791271229007062         201209112012081400000000054530000027365000000000028294000000000000000000000000000929050000000000  3020120913   01          2                                                                                   3157912712293013905550300019                                                  N                     01321  0000000        000008
12004676708000118M H F SISTEMAS S C LTDA                                               0000000034100000000000000000000000000000866992080000002311020830099048066     201209052012081700000000054470000014500000000000015126000000000000000000000000000626050000000000  3020120912   06          3                                                                                   3112311020831013924573200019                                                  N                     01321  0000000        000009
12005880850000145NEDERMAN BRASIL COM PROD EX LT                                        000000003410000000000000000000000000000086373178000000614350956002763 A       201209122012081400000000054540000289674000000000289674000000000000000000000000000570050000000000  3020120913   01          2                                                                                   3156143509568160829000100039                                                  N                     01321  0000000        000010
12006000195000156MBA MERCANTIL BRAS DE ACO LTDA                                        0000000034100000000000000000000000000000878205670000001671394740008920B01     201208192012071700000000054300000576584000000000603800000000000000000000000000028350050000000000  3020120912   06          3                                                                                   3191671394747064849251000059                                                  N                     01321  0000000        000011
12006000195000156M B A MERCANTIL BRASILEIRA DE                                         0000000023700118P00000002128292 00000000870177550090220600000020008949B01     201208222012072300000000054330000194693000000000194693000000000000000000000000000000050000000000  3020120829   06          3  RUA JUNO  533                                                                    3                         000000000000000                                     N                     00598  0000000        000012
12006000195000156M B A MERCANTIL BRASILEIRA DE                                         0000000023700118P00000002128292 00000000870177560090220600000080008948B01     201208212012072300000000054320000437437000000000437437000000000000000000000000000000050000000000  3020120829   06          3  RUA JUNO  533                                                                    3                         000000000000000                                     N                     00598  0000000        000013
12006000195000156M B A MERCANTIL BRASILEIRA DE                                         0000000000100000000000000000000000000000855028950000007952920000009010B01     201208302012073000000000054410000275045000000000275045000000000000000000000000000000050000000000  3020120830   05          3                                                                                   3043937952923333000105251189                                                  N                     01321  0000000        000014
12006000195000156M B A MERCANTIL BRASILEIRA DE                                         0000000023700118P00000002130599 00000000865388220020222900000430009203B01     201209122012081500000000054540000396727000000000397388000000000000000000000000000661050000000000  3020120913   01          2  RUA JUNO  533                                                                    3                         000000000000000                                     N                     00598  0000000        000015
12006000195000156M B A MERCANTIL BRASILEIRA DE                                         0000000023700118P00000002130599 00000000848180730020220100000040008872B02     201209112012071700000000054530000112773000000000113149000000000000000000000000000376050000000000  3020120913   01          2  RUA JUNO  533                                                                    3                         000000000000000                                     N                     00598  0000000        000016
12006000195000156M B A MERCANTIL BRASILEIRA DE                                         0000000023700118P00000002130599 00000000853154980020220900000440008967B01     201208232012072400000000054340000135605000000000140351000000000000000000000000004746050000000000  3020120913   01          2  RUA JUNO  533                                                                    3                         000000000000000                                     N                     00598  0000000        000017
12006000195000156M B A MERCANTIL BRASILEIRA DE                                         0000000023700118P00000002130599 00000000853155100020220900000700008987B01     201208232012072500000000054340000216623000000000224204000000000000000000000000007581050000000000  3020120913   01          2  RUA JUNO  533                                                                    3                         000000000000000                                     N                     00598  0000000        000018
12006000195000156MBA MERCANTIL BRAS DE ACO LTDA                                        0000000034100000000000000000000000000000848957290000008667238420008870B02     201209112012071900000000054530000839952000000000841122000000000000000000000000001170050000000000  3020120913   01          2                                                                                   3458667238422064849251000049                                                  N                     01321  0000000        000019
12006000195000156M B A MERCANTIL BRASILEIRA DE                                         0000000000100000000000000000000000000000831386970000007752250000008615B03     201209122012062000000000054540000498323000000000499154000000000000000000000000000831050000000000  3020120913   01          2                                                                                   3043837752253333000105251139                                                  N                     01321  0000000        000020
12006000195000156M B A MERCANTIL BRASILEIRA DE                                         0000000000100000000000000000000000000000831387010000007752220000008614B03     201209112012062000000000054530000949922000000000953088000000000000000000000000003166050000000000  3020120913   01          2                                                                                   3043837752223333000105251159                                                  N                     01321  0000000        000021
12006894969000130TERRADIESEL COM DE PCS P CAMIN                                        00000000341000000000000000000000000000008653881500000023020935013969A         201209072012081500000000054490000017800000000000018442000000000000000000000000000642050000000000  3020120913   01          2                                                                                   3112302093508006500924300049                                                  N                     01321  0000000        000022
12006894969000130TERRA DIESEL COMERCIO DE PECAS                                        00000000104000000000000000000000000000008701774300000000019910014063A         201209132012082700000000054550000008600000000000008600000000000000000000000000000000050000000000  3020120913   01          2                                                                                   3900000019930598700000020519                                                  N                     01321  0000000        000023
12008508119000181DINARI FOMENTO MERCANTIL LTDA                                         0000000023702499600000000178306 0000000086282616002022260000004206 B          201209102012081000000000054520000170000000000000176630000000000000000000000000006630050000000000  3020120913   01          2  RUA JUNO  533 VL N MANCHESTER SAO PAULO PANKRO LOGISTICA E TRANSPORTES LTDA EPP  3                         002269980000158                                     N                     00598  0000000        000024
12008709272000177MULTIELETRICA C M E LTDA                                              000000003410000000000000000000000000000085771860000000900002207000002535D     201209112012072400000000054530000188886000000000200772000000000000000000000000011886050000000000  3020120913   01          2                                                                                   3109000022073075798525400059                                                  N                     01321  0000000        000025
12008848231000161ATUAL CARGAS TRANSPORTES LTDA                                         0000000000100000000000000000000000000000881032650000000133300000001606166     201209252012091100000000054670000105328000000000105328000000000000000000000000000000050000000000  3020120925   01FS        1                                                                                   3000000159433800000133301799                                                  N                     01321  0000000        000026
12009338857000190FERNANDO  NAGAO  CARDONE  ALVA                                        000000000330000000000000000000000000000085959071000000430000000REEM 07 2012   201208102012072600000000054210000024134000000000026751000000000000000000000000002689050000000000  3020120912   06          3                                                                                   3947901700000051047543010139                                                  N                     01321  0000000        000027
12009419898000101LUSITANO INDUSTRIA C E P LTDA                                         00000000341000000000000000000000000000008653881900000090000757001 10137 1     201209122012081500000000054540000035136000000000035253000000000000000000000000000117050000000000  3020120913   01          2                                                                                   3109000075708001160072300089                                                  N                     01321  0000000        000028
12012006058000121WEG TINTAS LTDA                                                       0000000023702727800000000001309 00000000844839230090219500000720015168702     201209102012071200000000054520000306569000000000307793000000000000000000000000001224050000000000  3020120913   01          2  R JUNO  533                                                                      3                         000000000000000                                     N                     00598  0000000        000029
12012006058000121WEG TINTAS LTDA                                                       0000000023702727800000000001309 00000000842436830090219200000850015068802     201209072012070900000000054490000306569000000000309017000000000000000000000000002448050000000000  3020120913   01          2  R JUNO  533                                                                      3                         000000000000000                                     N                     00598  0000000        000030
12012006058000121WEG TINTAS LTDA                                                       0000000023702727800000000001309 00000000833069160090217700001090014685603     201209052012062200000000054470000459992000000000464896000000000000000000000000004904050000000000  3020120913   01          2  R JUNO  533                                                                      3                         000000000000000                                     N                     00598  0000000        000031
12012006058000121WEG TINTAS LTDA                                                       0000000023702727800000000001309 00000000834820640090217900000760014773903     201209092012062600000000054510000306662000000000308294000000000000000000000000001632050000000000  3020120913   01          2  R JUNO  533                                                                      3                         000000000000000                                     N                     00598  0000000        000032
12012006058000121WEG TINTAS LTDA                                                       0000000023702727800000000001309 00000000854049540090221200001000015513001     201209102012072700000000054520000459854000000000461693000000000000000000000000001839050000000000  3020120913   01          2  R JUNO  533                                                                      3                         000000000000000                                     N                     00598  0000000        000033
12012931789000183RCM IMPORTADORA DE FERRAMENTAS                                        0000000000100000000000000000000000000000864554140000003020260003837           201209112012081400000000054530000026100000000000026362000000000000000000000000000262050000000000  3020120913   01          2                                                                                   3000000225937100043020261749                                                  N                     01321  0000000        000034
12013656578000142GUARINOR TRANSP E LOGISTICA LT                                        000000001040000000000000000000000000000087295281000000000824400001074 12      201209052012081600000000054470000171300000000000171300000000000000000000000000000000050000000000  3020120905   05          3                                                                                   3900000082432958700000017329                                                  N                     01321  0000000        000035
12035820448000136WHITE MARTINS GASES INDUSTRIAI                                        0000000023700026400000003937925 0000000086373165009022270006973365235 001     201209102012081400000000054520000017600000000000018021000000000000000000000000000421050000000000  3020120913   01          2  RUA GANGES  528                                                                  3                         000000000000000                                     N                     00598  0000000        000036
12035820448000136WHITE MARTINS GASES INDUSTRIAI                                        0000000023700026400000003937925 0000000086538817009022290001168366855 001     201209112012081600000000054530000121725000000000124483000000000000000000000000002758050000000000  3020120913   01          2  RUA GANGES  528                                                                  3                         000000000000000                                     N                     00598  0000000        000037
12035820448000136WHITE MARTINS GASES INDUSTRIAI                                        0000000023700026400000003937925 0000000085861656009022190000404361579 001     201208312012080400000000054420000162300000000000168354000000000000000000000000006054050000000000  3020120913   01          2  RUA GANGES  528                                                                  3                         000000000000000                                     N                     00598  0000000        000038
12035820448000136WHITE MARTINS GASES INDUSTRIAI                                        0000000023700026400000003937925 0000000086196029009022230001562364184 001     201209062012081000000000054480000113610000000000116939000000000000000000000000003329050000000000  3020120913   01          2  RUA GANGES  528                                                                  3                         000000000000000                                     N                     00598  0000000        000039
12042956441000101SOLUCOES ACO USIMINAS                                                 0000000034100000000000000000000000000000859590600000002274469770017353701     201208312012080300000000054420000081077000000000083021000000000000000000000000002106050000000000  3020120912   06          3                                                                                   3112274469777293807258000049                                                  N                     01321  0000000        000040
12042956441000101SOLUCOES ACO USIMINAS                                                 0000000034100000000000000000000000000000859590610000002274469780017353801     201208312012080300000000054420000167048000000000171056000000000000000000000000004342050000000000  3020120912   06          3                                                                                   3112274469785293807258000019                                                  N                     01321  0000000        000041
12042956441000101SOLUCOES ACO USIMINAS                                                 0000000034100000000000000000000000000000843180430000002194744350016902902     201208312012070600000000054420000179795000000000184115000000000000000000000000004680050000000000  3020120912   06          3                                                                                   3112194744358293807258000069                                                  N                     01321  0000000        000042
12042956441000101SOLUCOES ACO USIMINAS                                                 0000000034100000000000000000000000000000861207220000002282166980017385801     201209042012080700000000054460000715010000000000727880000000000000000000000000012870050000000000  3020120913   01          2                                                                                   3112282166985293807258000089                                                  N                     01321  0000000        000043
12042956441000101SOLUCOES ACO USIMINAS                                                 0000000034100000000000000000000000000000858616290000002271409670017315101     201208302012080200000000054410000579548000000000595774000000000000000000000000016226050000000000  3020120913   01          2                                                                                   3112271409677293807258000099                                                  N                     01321  0000000        000044
12042956441000101SOLUCOES ACO USIMINAS                                                 0000000034100000000000000000000000000000858616320000002271409680017316001     201208302012080200000000054410000929730000000000955756000000000000000000000000026026050000000000  3020120913   01          2                                                                                   3112271409685293807258000039                                                  N                     01321  0000000        000045
12042956441000101SOLUCOES ACO USIMINAS                                                 0000000034100000000000000000000000000000858616330000002271409690017319301     201208302012080200000000054410000981820000000001009316000000000000000000000000027496050000000000  3020120913   01          2                                                                                   3112271409693293807258000039                                                  N                     01321  0000000        000046
12042956441000101SOLUCOES ACO USIMINAS                                                 0000000034100000000000000000000000000000844063830000002198870030016923302     201209042012071000000000054460000442972000000000450946000000000000000000000000007974050000000000  3020120913   01          2                                                                                   3112198870035293807258000059                                                  N                     01321  0000000        000047
12042956441000101SOLUCOES ACO USIMINAS                                                 0000000034100000000000000000000000000000858616340000002271409700017319401     201208302012080200000000054410000178956000000000183968000000000000000000000000005012050000000000  3020120913   01          2                                                                                   3112271409701293807258000089                                                  N                     01321  0000000        000048
12042956441000101SOLUCOES ACO USIMINAS                                                 0000000034100000000000000000000000000000848180700000002220192900017041002     201209112012071700000000054530000155433000000000156055000000000000000000000000000622050000000000  3020120913   01          2                                                                                   3112220192903293807258000029                                                  N                     01321  0000000        000049
12042956441000101SOLUCOES ACO USIMINAS                                                 0000000034100000000000000000000000000000846595700000002210880280016980502     201209102012071200000000054520000156071000000000157007000000000000000000000000000936050000000000  3020120913   01          2                                                                                   3112210880285293807258000039                                                  N                     01321  0000000        000050
12042956441000101SOLUCOES ACO USIMINAS                                                 0000000034100000000000000000000000000000846595710000002210880290016980602     201209102012071200000000054520000426094000000000428650000000000000000000000000002556050000000000  3020120913   01          2                                                                                   3112210880293293807258000019                                                  N                     01321  0000000        000051
12042956441000101SOLUCOES ACO USIMINAS                                                 0000000034100000000000000000000000000000847452070000002216130350005922202     201209102012071600000000054520000172071000000000173103000000000000000000000000001032050000000000  3020120913   01          2                                                                                   3112216130354293807258000049                                                  N                     01321  0000000        000052
12042956441000101SOLUCOES ACO USIMINAS                                                 0000000034100000000000000000000000000000847452100000002216130340017012402     201209102012071500000000054520000147428000000000148313000000000000000000000000000885050000000000  3020120913   01          2                                                                                   3112216130347293807258000059                                                  N                     01321  0000000        000053
12042956441000101SOLUCOES ACO USIMINAS                                                 0000000034100000000000000000000000000000840313020000002181699190016814402     201208272012070200000000054380000968423000000001001352000000000000000000000000032929050000000000  3020120913   01          2                                                                                   3112181699193293807258000019                                                  N                     01321  0000000        000054
12042956441000101SOLUCOES ACO USIMINAS                                                 0000000034100000000000000000000000000000840313030000002181699200016827102     201208272012070200000000054380000703010000000000726912000000000000000000000000023902050000000000  3020120913   01          2                                                                                   3112181699201293807258000019                                                  N                     01321  0000000        000055
12042956441000101SOLUCOES ACO USIMINAS                                                 0000000034100000000000000000000000000000840313060000002181699210016829702     201208272012070200000000054380000643712000000000665591000000000000000000000000021879050000000000  3020120913   01          2                                                                                   3112181699219293807258000089                                                  N                     01321  0000000        000056
12042956441000101SOLUCOES ACO USIMINAS                                                 0000000034100000000000000000000000000000840313070000002181699220016829802     201208272012070200000000054380000322528000000000333493000000000000000000000000010965050000000000  3020120913   01          2                                                                                   3112181699227293807258000029                                                  N                     01321  0000000        000057
12042956441000101SOLUCOES ACO USIMINAS                                                 0000000034100000000000000000000000000000841725460000002188168540016859402     201208292012070400000000054400000164456000000000169391000000000000000000000000004935050000000000  3020120913   01          2                                                                                   3112188168549293807258000059                                                  N                     01321  0000000        000058
12042956441000101SOLUCOES ACO USIMINAS                                                 0000000034100000000000000000000000000000841725470000002188168550016859502     201208292012070400000000054400000234337000000000241372000000000000000000000000007035050000000000  3020120913   01          2                                                                                   3112188168556293807258000089                                                  N                     01321  0000000        000059
12042956441000101SOLUCOES ACO USIMINAS                                                 0000000034100000000000000000000000000000841725480000002188168560016884802     201208302012070500000000054410000120612000000000123986000000000000000000000000003374050000000000  3020120913   01          2                                                                                   3112188168564293807258000019                                                  N                     01321  0000000        000060
12042956441000101SOLUCOES ACO USIMINAS                                                 0000000034100000000000000000000000000000841725490000002188168570016884902     201208302012070500000000054410000531835000000000546731000000000000000000000000014896050000000000  3020120913   01          2                                                                                   3112188168572293807258000019                                                  N                     01321  0000000        000061
12042956441000101SOLUCOES ACO USIMINAS                                                 0000000034100000000000000000000000000000841725500000002188168580016885102     201208302012070500000000054410000219722000000000225868000000000000000000000000006146050000000000  3020120913   01          2                                                                                   3112188168580293807258000049                                                  N                     01321  0000000        000062
12042956441000101SOLUCOES ACO USIMINAS                                                 0000000034100000000000000000000000000000841725510000002188168590016891202     201208302012070500000000054410001132543000000001164253000000000000000000000000031710050000000000  3020120913   01          2                                                                                   3112188168598293807258000019                                                  N                     01321  0000000        000063
12042956441000101SOLUCOES ACO USIMINAS                                                 0000000034100000000000000000000000000000841725520000002188168600016891402     201208302012070500000000054410000795232000000000817492000000000000000000000000022260050000000000  3020120913   01          2                                                                                   3112188168606293807258000019                                                  N                     01321  0000000        000064
12042956441000101SOLUCOES ACO USIMINAS                                                 0000000034100000000000000000000000000000841725530000002188168610016891502     201208302012070500000000054410001128343000000001159941000000000000000000000000031598050000000000  3020120913   01          2                                                                                   3112188168614293807258000089                                                  N                     01321  0000000        000065
12042956441000101SOLUCOES ACO USIMINAS                                                 0000000034100000000000000000000000000000858616350000002271409710017319501     201208302012080200000000054410000197439000000000202969000000000000000000000000005530050000000000  3020120913   01          2                                                                                   3112271409719293807258000049                                                  N                     01321  0000000        000066
12042956441000101SOLUCOES ACO USIMINAS                                                 0000000034100000000000000000000000000000819545020000002078930840016239503     201208222012052900000000054330001126072000000001175616000000000000000000000000049544050000000000  3020120913   01          2                                                                                   3112078930842293807258000019                                                  N                     01321  0000000        000067
12042956441000101SOLUCOES ACO USIMINAS                                                 0000000034100000000000000000000000000000858616360000002271409720017319601     201208302012080200000000054410000197103000000000202619000000000000000000000000005516050000000000  3020120913   01          2                                                                                   3112271409727293807258000019                                                  N                     01321  0000000        000068
12042956441000101SOLUCOES ACO USIMINAS                                                 0000000034100000000000000000000000000000858616370000002271409730017319701     201208302012080200000000054410000197271000000000202801000000000000000000000000005530050000000000  3020120913   01          2                                                                                   3112271409735293807258000019                                                  N                     01321  0000000        000069
12042956441000101SOLUCOES ACO USIMINAS                                                 0000000034100000000000000000000000000000858616380000002271409740017319801     201208302012080200000000054410000194583000000000200029000000000000000000000000005446050000000000  3020120913   01          2                                                                                   3112271409743293807258000019                                                  N                     01321  0000000        000070
12042956441000101SOLUCOES EM ACO USIMINAS S A                                          000000000010000000000000000000000000000083138704000000083117000000165994003   201209112012062000000000054530000233496000000000234430000000000000000000000000000934050000000000  3020120913   01          2                                                                                   3000000169660100000831171729                                                  N                     01321  0000000        000071
12042956441000101SOLUCOES EM ACO USIMINAS S A                                          000000000010000000000000000000000000000083138709000000082600000000057848003   201209122012062000000000054540000190073000000000190453000000000000000000000000000380050000000000  3020120913   01          2                                                                                   3000000169660100000826001769                                                  N                     01321  0000000        000072
12042956441000101SOLUCOES ACO USIMINAS                                                 0000000034100000000000000000000000000000855028660000002254329280017200301     201208232012072600000000054340000156943000000000163537000000000000000000000000006594050000000000  3020120913   01          2                                                                                   3112254329280293807258000019                                                  N                     01321  0000000        000073
12042956441000101SOLUCOES ACO USIMINAS                                                 0000000034100000000000000000000000000000856906410000002262886280017266201     201208282012073000000000054390000119472000000000123296000000000000000000000000003824050000000000  3020120913   01          2                                                                                   3112262886289293807258000089                                                  N                     01321  0000000        000074
12042956441000101SOLUCOES ACO USIMINAS                                                 0000000034100000000000000000000000000000856906420000002262886290017266301     201208282012073000000000054390000145069000000000149709000000000000000000000000004640050000000000  3020120913   01          2                                                                                   3112262886297293807258000099                                                  N                     01321  0000000        000075
12042956441000101SOLUCOES ACO USIMINAS                                                 0000000034100000000000000000000000000000825740790000002106974460016399003     201208292012060600000000054400000203068000000000209158000000000000000000000000006090050000000000  3020120913   01          2                                                                                   3112106974465293807258000089                                                  N                     01321  0000000        000076
12042956441000101SOLUCOES ACO USIMINAS                                                 0000000034100000000000000000000000000000848180710000002220192910017041202     201209112012071700000000054530000205421000000000206243000000000000000000000000000822050000000000  3020120913   01          2                                                                                   3112220192911293807258000019                                                  N                     01321  0000000        000077
12042956441000101SOLUCOES ACO USIMINAS                                                 0000000034100000000000000000000000000000850740460000002233586800017127201     201208202012072000000000054310000137881000000000144505000000000000000000000000006624050000000000  3020120913   01          2                                                                                   3112233586802293807258000019                                                  N                     01321  0000000        000078
12042956441000101SOLUCOES ACO USIMINAS                                                 0000000034100000000000000000000000000000853154910000002246247000017196701     201208232012072500000000054340000234911000000000244781000000000000000000000000009870050000000000  3020120913   01          2                                                                                   3112246247004293807258000019                                                  N                     01321  0000000        000079
12042956441000101SOLUCOES ACO USIMINAS                                                 0000000034100000000000000000000000000000825740800000002106974470016399203     201208292012060600000000054400000450363000000000463878000000000000000000000000013515050000000000  3020120913   01          2                                                                                   3112106974473293807258000039                                                  N                     01321  0000000        000080
12042956441000101SOLUCOES ACO USIMINAS                                                 0000000034100000000000000000000000000000825740810000002106974480016399403     201208292012060600000000054400000431213000000000444143000000000000000000000000012930050000000000  3020120913   01          2                                                                                   3112106974481293807258000099                                                  N                     01321  0000000        000081
12042956441000101SOLUCOES ACO USIMINAS                                                 0000000034100000000000000000000000000000826558270000002112172740016458803     201209042012061100000000054460000231416000000000235583000000000000000000000000004167050000000000  3020120913   01          2                                                                                   3112112172740293807258000059                                                  N                     01321  0000000        000082
12042956441000101SOLUCOES ACO USIMINAS                                                 0000000034100000000000000000000000000000826558320000002112172760016459403     201209042012061100000000054460000747525000000000760980000000000000000000000000013455050000000000  3020120913   01          2                                                                                   3112112172765293807258000089                                                  N                     01321  0000000        000083
12042956441000101SOLUCOES ACO USIMINAS                                                 0000000034100000000000000000000000000000826558330000002112172770016459703     201209042012061100000000054460000500177000000000509177000000000000000000000000009000050000000000  3020120913   01          2                                                                                   3112112172773293807258000069                                                  N                     01321  0000000        000084
12042956441000101SOLUCOES ACO USIMINAS                                                 0000000034100000000000000000000000000000826558340000002112172780016459803     201209042012061100000000054460000155721000000000158520000000000000000000000000002799050000000000  3020120913   01          2                                                                                   3112112172781293807258000099                                                  N                     01321  0000000        000085
12042956441000101SOLUCOES ACO USIMINAS                                                 0000000034100000000000000000000000000000826558360000002112172750016459203     201209042012061100000000054460000123455000000000125678000000000000000000000000002223050000000000  3020120913   01          2                                                                                   3112112172757293807258000049                                                  N                     01321  0000000        000086
12042956441000101SOLUCOES ACO USIMINAS                                                 0000000034100000000000000000000000000000824061850000002100925420016380503     201208292012060500000000054400000215523000000000221988000000000000000000000000006465050000000000  3020120913   01          2                                                                                   3112100925422293807258000039                                                  N                     01321  0000000        000087
12042956441000101SOLUCOES ACO USIMINAS                                                 0000000034100000000000000000000000000000824061860000002100925430016380703     201208292012060500000000054400000216699000000000223194000000000000000000000000006495050000000000  3020120913   01          2                                                                                   3112100925430293807258000079                                                  N                     01321  0000000        000088
12043217850000159IOB INFORMACOES OBJ  PUBL JURI                                        0000000023702374400000002958600 000000008540495200902212000099001440820E4     201208202012073000000000054310000072850000000000074883000000000000000000000000002033050000000000  3020120913   01          2  GANGES 528 VL NOVA MANCHESTER                                                    3                         000000000000000                                     N                     00598  0000000        000089
12043298975000150JOMARCA INDL DE PARAFUSOS LTDA                                        0000000003300000000000000000000000000000881032800000005900000000157168 01     201210112012091100000000054830000474500000000000474500000000000000000000000000000000050000000000  3020121011   01FS        1                                                                                   3935059520000000508659010429                                                  N                     01321  0000000        000090
12043298975000150JOMARCA INDL DE PARAFUSOS LTDA                                        0000000003300000000000000000000000000000881032810000006700000000157168 02     201211102012091100000000055130000365000000000000365000000000000000000000000000000000050000000000  3020121112   01FS        1                                                                                   3935059520000000508667010419                                                  N                     01321  0000000        000091
12043298975000150JOMARCA INDL DE PARAFUSOS LTDA                                        0000000003300000000000000000000000000000881032820000007500000000157168 03     201212102012091100000000055430000365000000000000365000000000000000000000000000000000050000000000  3020121210   01FS        1                                                                                   3935059520000000508675010489                                                  N                     01321  0000000        000092
12044098788000196MAIAMI COM E IMP DE ROLAMENTOS                                        0000000023700503700000000367516 0000000086699211009022330000001010061         201209072012081700000000054490000015000000000000015300000000000000000000000000000300050000000000  3020120913   01          2  RUA GANGES 528 VL CARRAO                                                         3                         000000000000000                                     N                     00598  0000000        000093
12048775225000146SEIKI IND COM E CONFECCOES LTD                                        000000003410000000000000000000000000000086615423000000230404780013963001      201209122012081500000000054540000052000000000000052078000000000000000000000000000078050000000000  3020120913   01          2                                                                                   3112304047809017444824100079                                                  N                     01321  0000000        000094
12049318538000138COM DE FERRAM TERUYA LT                                               000000003410000000000000000000000000000085771846000000226677264190304 A       201208302012080200000000054410000031490000000000031490000000000000000000000000000000050000000000  3020120830   06          3                                                                                   3112266772642077000099000019                                                  N                     01321  0000000        000095
12051180370000199IGUAFER FERRO E ACO LTDA                                              0000000034100000000000000000000000000000852309110000002239389799443 C         201209122012071800000000054540000168275000000000168555000000000000000000000000000280050000000000  3020120913   01          2                                                                                   3112239389797077149484600089                                                  N                     01321  0000000        000096
12051180370000199IGUAFER FERRO E ACO LTDA                                              0000000034100000000000000000000000000000852309100000002239389789443 B         201209022012071800000000054440000168275000000000171355000000000000000000000000003080050000000000  3020120913   01          2                                                                                   3112239389789077149484600089                                                  N                     01321  0000000        000097
12051598472000129ELETRICA J SANTOS                                                     0000000023702451100000000000264 000000008586165500902219000005118310 01       201209102012080400000000054520000104146000000000105187000000000000000000000000001041050000000000  3020120913   01          2  R JUNO  533                                                                      300000000000000000141500  000000000000000                                     N                     00598  0000000        000098
12053585766000141MULTIACOS INDUSTRIA E COMERCIO                                        0000000000100000000000000000000000000000864554220000008070010000004429601     201209052012081400000000054470000937596000000000939159000000000000000000000000003126050000000000  3020120906   06          3                                                                                   3043978070011912000139523119                                                  N                     01321  0000000        000099
12053585766000141MULTIACOS INDUSTRIA E COMERCIO                                        0000000000100000000000000000000000000000860403380000009910810000004421901     201209032012080700000000054450000970754000000000973990000000000000000000000000004854050000000000  3020120905   06          3                                                                                   3043959910811912000139523179                                                  N                     01321  0000000        000100
12053585766000141MULTIACOS INDUSTRIA E COMERCIO                                        0000000000100000000000000000000000000000860403390000009910900000004429701     201209032012080700000000054450000643456000000000645600000000000000000000000000003216050000000000  3020120905   06          3                                                                                   3043959910901912000139523199                                                  N                     01321  0000000        000101
12053585766000141MULTIACOS INDUSTRIA E COMERCIO                                        0000000000100000000000000000000000000000864554270000008070090000004437601     201209052012081400000000054470000321214000000000321749000000000000000000000000001070050000000000  3020120906   06          3                                                                                   3043978070091912000139523129                                                  N                     01321  0000000        000102
12053585766000141MULTIACOS INDUSTRIA E COMERCIO                                        0000000000100000000000000000000000000000874070560000007280290000004391602     201209112012082100000000054530000354262000000000355442000000000000000000000000001180050000000000  3020120913   01          2                                                                                   3043997280291912000139523149                                                  N                     01321  0000000        000103
12053585766000141MULTIACOS INDUSTRIA E COMERCIO                                        0000000000100000000000000000000000000000874070570000007280280000004391502     201209112012082100000000054530000319418000000000320482000000000000000000000000001064050000000000  3020120913   01          2                                                                                   3043997280281912000139523129                                                  N                     01321  0000000        000104
12053585766000141MULTIACOS INDUSTRIA E COMERCIO                                        0000000000100000000000000000000000000000874070580000007280300000004391702     201209112012082100000000054530000342203000000000343343000000000000000000000000001140050000000000  3020120913   01          2                                                                                   3043997280301912000139523189                                                  N                     01321  0000000        000105
12054382510000108SETENTA IND E COM DE MADEIRAS                                         0000000034100000000000000000000000000000860403430000002277814474462 A         201209042012080700000000054460000191200000000000194584000000000000000000000000003384050000000000  3020120913   01          2                                                                                   3112277814474057049175300069                                                  N                     01321  0000000        000106
12055721609000141MAC SEG EQUIP DE SEGURANCA LT                                         0000000034100000000000000000000000000000862826120000002286897653190 1         201208312012080300000000054420000051440000000000053084000000000000000000000000001781050000000000  3020120912   06          3                                                                                   3112286897650037814415800069                                                  N                     01321  0000000        000107
12056667629000144COMERCIAL BERENELI LTDA                                               000000000330000000000000000000000000000086812637000000620000000NF  11160      201209122012081500000000054540000052520000000000052646000000000000000000000000000126050000000000  3020120913   01          2                                                                                   3946371510000000030562010469                                                  N                     01321  0000000        000108
12056993512000150CYKLOP DO BRASIL EMBALAGENS SA                                        0000000034100000000000000000000000000000878205080000002299329080132528        201209112012081400000000054530000083607000000000084221000000000000000000000000000614050000000000  3020120913   01          2                                                                                   3112299329089025786126000099                                                  N                     01321  0000000        000109
12056993900000131CIA METALURGICA PRADA                                                 0000000034100000000000000000000000000000837460360000002165934320025295402     201208232012062800000000054340000152797000000000158152000000000000000000000000005355050000000000  3020120913   01          2                                                                                   3112165934327293800573900029                                                  N                     01321  0000000        000110
12056993900000131CIA METALURGICA PRADA                                                 0000000034100000000000000000000000000000837460370000002165934330025295502     201208232012062800000000054340000339049000000000350914000000000000000000000000011865050000000000  3020120913   01          2                                                                                   3112165934335293800573900029                                                  N                     01321  0000000        000111
12056993900000131CIA METALURGICA PRADA                                                 0000000034100000000000000000000000000000848180620000002218222670025829902     201209112012071700000000054530000498118000000000499778000000000000000000000000001660050000000000  3020120913   01          2                                                                                   3112218222670293800573900029                                                  N                     01321  0000000        000112
12056993900000131CIA METALURGICA PRADA                                                 0000000034100000000000000000000000000000837460420000002165934340025295602     201208232012062800000000054340000154164000000000159561000000000000000000000000005397050000000000  3020120913   01          2                                                                                   3112165934343293800573900099                                                  N                     01321  0000000        000113
12056993900000131CIA METALURGICA PRADA                                                 0000000034100000000000000000000000000000837460430000002165934350025295702     201208232012062800000000054340000139528000000000144421000000000000000000000000004893050000000000  3020120913   01          2                                                                                   3112165934350293800573900019                                                  N                     01321  0000000        000114
12056993900000131CIA METALURGICA PRADA                                                 0000000034100000000000000000000000000000838527910000002171340450025383502     201208272012063000000000054380000575128000000000591431000000000000000000000000016303050000000000  3020120913   01          2                                                                                   3112171340451293800573900039                                                  N                     01321  0000000        000115
12056993900000131CIA METALURGICA PRADA                                                 0000000034100000000000000000000000000000838527920000002171340460025384302     201208272012063000000000054380000454477000000000467346000000000000000000000000012869050000000000  3020120913   01          2                                                                                   3112171340469293800573900019                                                  N                     01321  0000000        000116
12056993900000131CIA METALURGICA PRADA                                                 0000000034100000000000000000000000000000840312930000002179478290025419302     201208282012070300000000054390000402178000000000412898000000000000000000000000010720050000000000  3020120913   01          2                                                                                   3112179478295293800573900089                                                  N                     01321  0000000        000117
12056993900000131CIA METALURGICA PRADA                                                 0000000034100000000000000000000000000000840312940000002179478300025419402     201208282012070300000000054390000322804000000000331412000000000000000000000000008608050000000000  3020120913   01          2                                                                                   3112179478303293800573900079                                                  N                     01321  0000000        000118
12056993900000131CIA METALURGICA PRADA                                                 0000000034100000000000000000000000000000855028550000002254750250026244301     201208272012072800000000054380000100986000000000103842000000000000000000000000002856050000000000  3020120913   01          2                                                                                   3112254750253293800573900099                                                  N                     01321  0000000        000119
12056993900000131CIA METALURGICA PRADA                                                 0000000034100000000000000000000000000000855028560000002254750260026244401     201208272012072800000000054380000084368000000000086765000000000000000000000000002397050000000000  3020120913   01          2                                                                                   3112254750261293800573900089                                                  N                     01321  0000000        000120
12056993900000131CIA METALURGICA PRADA                                                 0000000034100000000000000000000000000000848180630000002218222680025830002     201209112012071700000000054530000247673000000000248499000000000000000000000000000826050000000000  3020120913   01          2                                                                                   3112218222688293800573900059                                                  N                     01321  0000000        000121
12056993900000131CIA METALURGICA PRADA                                                 0000000034100000000000000000000000000000824820100000002102181160024711603     201208292012060600000000054400000833146000000000853981000000000000000000000000020835050000000000  3020120913   01          2                                                                                   3112102181164293800573900039                                                  N                     01321  0000000        000122
12056993900000131CIA METALURGICA PRADA                                                 0000000034100000000000000000000000000000820562300000002080193680024478203     201208222012053000000000054330000113250000000000117408000000000000000000000000004158050000000000  3020120913   01          2                                                                                   3112080193686293800573900049                                                  N                     01321  0000000        000123
12056993900000131CIA METALURGICA PRADA                                                 0000000034100000000000000000000000000000820562310000002080193690024478303     201208222012053000000000054330000288295000000000298855000000000000000000000000010560050000000000  3020120913   01          2                                                                                   3112080193694293800573900029                                                  N                     01321  0000000        000124
12056993900000131CIA METALURGICA PRADA                                                 0000000034100000000000000000000000000000820562320000002080193700024499403     201208222012053000000000054330000597722000000000619634000000000000000000000000021912050000000000  3020120913   01          2                                                                                   3112080193702293800573900019                                                  N                     01321  0000000        000125
12056993900000131CIA METALURGICA PRADA                                                 0000000034100000000000000000000000000000820562330000002080193710024499503     201208222012053000000000054330000236585000000000245253000000000000000000000000008668050000000000  3020120913   01          2                                                                                   3112080193710293800573900019                                                  N                     01321  0000000        000126
12056993900000131CIA METALURGICA PRADA                                                 0000000034100000000000000000000000000000821491000000002084501930024572503     201208232012053100000000054340000217291000000000224893000000000000000000000000007602050000000000  3020120913   01          2                                                                                   3112084501934293800573900039                                                  N                     01321  0000000        000127
12056993900000131CIA METALURGICA PRADA                                                 0000000034100000000000000000000000000000822364950000002089776730024584703     201208242012060100000000054350000835797000000000863657000000000000000000000000027860050000000000  3020120913   01          2                                                                                   3112089776739293800573900019                                                  N                     01321  0000000        000128
12056993900000131CIA METALURGICA PRADA                                                 0000000034100000000000000000000000000000848180640000002218222690025830102     201209112012071700000000054530000207402000000000208094000000000000000000000000000692050000000000  3020120913   01          2                                                                                   3112218222696293800573900039                                                  N                     01321  0000000        000129
12056993900000131CIA METALURGICA PRADA                                                 0000000034100000000000000000000000000000844839000000002201181880025629402     201209052012071100000000054470000249372000000000252700000000000000000000000000003328050000000000  3020120913   01          2                                                                                   3112201181883293800573900019                                                  N                     01321  0000000        000130
12056993900000131CIA METALURGICA PRADA                                                 0000000034100000000000000000000000000000844839010000002201181890025635302     201209052012071100000000054470000406842000000000412266000000000000000000000000005424050000000000  3020120913   01          2                                                                                   3112201181891293800573900019                                                  N                     01321  0000000        000131
12056993900000131CIA METALURGICA PRADA                                                 0000000034100000000000000000000000000000844839020000002201181900025635402     201209052012071100000000054470000208689000000000211473000000000000000000000000002784050000000000  3020120913   01          2                                                                                   3112201181909293800573900069                                                  N                     01321  0000000        000132
12056993900000131CIA METALURGICA PRADA                                                 0000000034100000000000000000000000000000844839030000002201181910025635502     201209052012071100000000054470000164780000000000166980000000000000000000000000002200050000000000  3020120913   01          2                                                                                   3112201181917293800573900029                                                  N                     01321  0000000        000133
12056993900000131CIA METALURGICA PRADA                                                 0000000034100000000000000000000000000000844839040000002201181920025635602     201209052012071100000000054470000339933000000000344469000000000000000000000000004536050000000000  3020120913   01          2                                                                                   3112201181925293800573900069                                                  N                     01321  0000000        000134
12056993900000131CIA METALURGICA PRADA                                                 0000000034100000000000000000000000000000844839050000002201181930025636202     201209052012071100000000054470000746213000000000756165000000000000000000000000009952050000000000  3020120913   01          2                                                                                   3112201181933293800573900019                                                  N                     01321  0000000        000135
12056993900000131CIA METALURGICA PRADA                                                 0000000034100000000000000000000000000000844839060000002201181940025644402     201209052012071100000000054470000779647000000000790039000000000000000000000000010392050000000000  3020120913   01          2                                                                                   3112201181941293800573900019                                                  N                     01321  0000000        000136
12056993900000131CIA METALURGICA PRADA                                                 0000000034100000000000000000000000000000844839140000002201181870025629302     201209052012071100000000054470000257906000000000261346000000000000000000000000003440050000000000  3020120913   01          2                                                                                   3112201181875293800573900069                                                  N                     01321  0000000        000137
12056993900000131CIA METALURGICA PRADA                                                 0000000034100000000000000000000000000000822364960000002089776740024585703     201208242012060100000000054350000393990000000000407130000000000000000000000000013140050000000000  3020120913   01          2                                                                                   3112089776747293800573900059                                                  N                     01321  0000000        000138
12056993900000131CIA METALURGICA PRADA                                                 0000000034100000000000000000000000000000823343300000002094231730024634103     201208272012060400000000054380000135902000000000139761000000000000000000000000003859050000000000  3020120913   01          2                                                                                   3112094231738293800573900079                                                  N                     01321  0000000        000139
12056993900000131CIA METALURGICA PRADA                                                 0000000034100000000000000000000000000000823343310000002094231740024634203     201208272012060400000000054380000247806000000000254827000000000000000000000000007021050000000000  3020120913   01          2                                                                                   3112094231746293800573900019                                                  N                     01321  0000000        000140
12056993900000131CIA METALURGICA PRADA                                                 0000000034100000000000000000000000000000823343330000002094231750024634603     201208272012060400000000054380000124715000000000128251000000000000000000000000003536050000000000  3020120913   01          2                                                                                   3112094231753293800573900039                                                  N                     01321  0000000        000141
12056993900000131CIA METALURGICA PRADA                                                 0000000034100000000000000000000000000000823343340000002094231760024634703     201208272012060400000000054380000508859000000000523275000000000000000000000000014416050000000000  3020120913   01          2                                                                                   3112094231761293800573900019                                                  N                     01321  0000000        000142
12056993900000131CIA METALURGICA PRADA                                                 0000000034100000000000000000000000000000823343350000002094231770024634803     201208272012060400000000054380000264511000000000271567000000000000000000000000007497050000000000  3020120912   05          3                                                                                   3112094231779293800573900089                                                  N                     01321  0000000        000143
12057029431000106ATLAS COPCO BRASIL LTDA                                               0000000034100000000000000000000000000000861960280000002283943487000054090     201209062012080900000000054480000059490000000000059763000000000000000000000000000273050000000000  3020120913   01          2                                                                                   3112283943481293804111400069                                                  N                     01321  0000000        000144
12057029431000106ATLAS COPCO BRASIL LTDA                                               0000000034100000000000000000000000000000863731640000002292733057000054146     201209072012081000000000054490000081450000000000081774000000000000000000000000000324050000000000  3020120913   01          2                                                                                   3112292733055293804111400099                                                  N                     01321  0000000        000145
12057158057000130COMERCIAL ELETRICA PJ LTDA                                            0000000023703394400000000972983 00000000842436850090219200008900000305028     201208012012070400000000054120000079196000000000090505000000000000000000000000011309050000000000  3020120913   01          2  R TAMAINDE 1410                                                                  3                         000000000000000                                     N                     00598  0000000        000146
12057196081000164MINELE COMERCIO DE PARAFUSOS L                                        0000000023700298400000002047470 0000000086961109009022400000008538            201209102012082700000000054520000035981000000000037340000000000000000000000000001359050000000000  3020120913   01          2  R  GANGES  528   VL CARRAO                                                       3                         000000000000000                                     N                     00598  0000000        000147
12059659615000177DZ COMERCIO R E SERVICOS LTDA                                         000000003410000000000000000000000000000086699206000000900000270251            201209032012081500000000054450000060000000000000061200000000000000000000000000001200050000000000  3020120913   01          2                                                                                   3109000002706000314585100019                                                  N                     01321  0000000        000148
12059876565000180ITALLUX INDUSTRIA E COMERCIO L                                        000000000010000000000000000000000000000085152921000000223041000003868         201209012012072400000000054430000180000000000000184917000000000000000000000000004917050000000000  3020120913   01          2                                                                                   3043922230411203000086821129                                                  N                     01321  0000000        000149
12061100202000108COFIPE VEICULOS LTDA                                                  0000000039900000000000000000000000000000842436870000000000000008800528602     201209042012070600000000054460000013600000000000013600000000000000000000000000000000050000000000  3020120904   06          3                                                                                   3320005040240343608018900139                                                  N                     01321  0000000        000150
12061100202000108COFIPE VEICULOS LTDA                                                  0000000039900000000000000000000000000000842436890000000000000008801210402     201209042012070600000000054460000028760000000000028760000000000000000000000000000000050000000000  3020120904   06          3                                                                                   3320005040400343608018900169                                                  N                     01321  0000000        000151
12061217188000119TELAS METALICAS TELMETAL LTDA                                         0000000000100000000000000000000000000000857718490000000055780005438 2 3       201209052012080200000000054470000055680000000000056420000000000000000000000000000888050000000000  3020120910   06          3                                                                                   3000000115031800000055781719                                                  N                     01321  0000000        000152
12061217188000119TELAS METALICAS TELMETAL LTDA                                         0000000034100000000000000000000000000000861960260000009000029125468 1 1       201209062012080800000000054480000045986000000000045986000000000000000000000000000000050000000000  3020120906   06          3                                                                                   3109000029122077099894600089                                                  N                     01321  0000000        000153
12061217188000119TELAS METALICAS TELMETAL LTDA                                         0000000000100000000000000000000000000000857718520000000055840005442 2 3       201209052012080200000000054470000051613000000000052303000000000000000000000000000828050000000000  3020120910   06          3                                                                                   3000000115031800000055841719                                                  N                     01321  0000000        000154
12061217188000119TELAS METALICAS TELMETAL LTDA                                         0000000000100000000000000000000000000000857718550000000055870005443 2 3       201209052012080200000000054470000041345000000000041895000000000000000000000000000660050000000000  3020120910   06          3                                                                                   3000000115031800000055871739                                                  N                     01321  0000000        000155
12061217188000119TELAS METALICAS TELMETAL LTDA                                         0000000000100000000000000000000000000000857718500000000055790005438 3 3       201209122012080200000000054540000055680000000000055828000000000000000000000000000148050000000000  3020120913   01          2                                                                                   3000000115031800000055791769                                                  N                     01321  0000000        000156
12061217188000119TELAS METALICAS TELMETAL LTDA                                         0000000000100000000000000000000000000000857718530000000055850005442 3 3       201209122012080200000000054540000051613000000000051751000000000000000000000000000138050000000000  3020120913   01          2                                                                                   3000000115031800000055851759                                                  N                     01321  0000000        000157
12061217188000119TELAS METALICAS TELMETAL LTDA                                         0000000000100000000000000000000000000000857718560000000055880005443 3 3       201209122012080200000000054540000041345000000000041455000000000000000000000000000110050000000000  3020120913   01          2                                                                                   3000000115031800000055881789                                                  N                     01321  0000000        000158
12061217188000119TELAS METALICAS TELMETAL LTDA                                         0000000003300000000000000000000000000000854049650000001400000005425 3 3       201209102012073000000000054520000045017000000000045377000000000000000000000000000360050000000000  3020120913   01          2                                                                                   3915435040000000047414020129                                                  N                     01321  0000000        000159
12061217188000119TELAS METALICAS TELMETAL LTDA                                         0000000000100000000000000000000000000000864554360000000056130005494 1 3       201209112012081400000000054530000008494000000000008540000000000000000000000000000046050000000000  3020120913   01          2                                                                                   3000000115031800000056131749                                                  N                     01321  0000000        000160
12061217188000119TELAS METALICAS TELMETAL LTDA                                         0000000034100000000000000000000000000000881032690000009000029645639 1 3       201210092012091100000000054810000052761000000000052761000000000000000000000000000000050000000000  3020121009   01FS        1                                                                                   3109000029641077073552000079                                                  N                     01321  0000000        000161
12061217188000119TELAS METALICAS TELMETAL LTDA                                         0000000034100000000000000000000000000000881032700000009000029615640 1 3       201210092012091100000000054810000033288000000000033288000000000000000000000000000000050000000000  3020121009   01FS        1                                                                                   3109000029617077073552000049                                                  N                     01321  0000000        000162
12061217188000119TELAS METALICAS TELMETAL LTDA                                         0000000034100000000000000000000000000000881032710000009000029625640 2 3       201210162012091100000000054880000033286000000000033286000000000000000000000000000000050000000000  3020121016   01FS        1                                                                                   3109000029625077073552000039                                                  N                     01321  0000000        000163
12061217188000119TELAS METALICAS TELMETAL LTDA                                         0000000034100000000000000000000000000000881032720000009000029635640 3 3       201210232012091100000000054950000033286000000000033286000000000000000000000000000000050000000000  3020121023   01FS        1                                                                                   3109000029633077073552000079                                                  N                     01321  0000000        000164
12061217188000119TELAS METALICAS TELMETAL LTDA                                         0000000034100000000000000000000000000000881032730000009000029655639 2 3       201210162012091100000000054880000052759000000000052759000000000000000000000000000000050000000000  3020121016   01FS        1                                                                                   3109000029658077073552000059                                                  N                     01321  0000000        000165
12061217188000119TELAS METALICAS TELMETAL LTDA                                         0000000034100000000000000000000000000000881032740000009000029665639 3 3       201210232012091100000000054950000052759000000000052759000000000000000000000000000000050000000000  3020121023   01FS        1                                                                                   3109000029666077073552000099                                                  N                     01321  0000000        000166
12061721320000125COMERCIAL DE PNEUS ROMA LTDA                                          000000000010000000000000000000000000000086455432000000914171000158201         201209122012081400000000054540000028000000000000028084000000000000000000000000000084050000000000  3020120913   01          2                                                                                   3043979141713333000853153119                                                  N                     01321  0000000        000167
12062173661000176INDUFIX IND E COM LTDA                                                0000000023704130000000000085898 000000008810327500702256000006500038394 A     201210112012091100000000054830000067395000000000067395000000000000000000000000000000050000000000  3020121011   01FS        1  RUA GANGES 528                                                                   3                         000000000000000                                     N                     00598  0000000        000168
12062539994000176LEALFER IN E COM DE ACO LTDA                                          0000000034100000000000000000000000000000881032660000002380730120005461502     201211012012090600000000055040000842827000000000842827000000000000000000000000000000050000000000  3020121101   01FS        1                                                                                   3112380730120076103324000099                                                  N                     01321  0000000        000169
12062539994000176LEALFER IN E COM DE ACO LTDA                                          0000000034100000000000000000000000000000881032670000002380731660005461503     201211292012090600000000055320000842827000000000842827000000000000000000000000000000050000000000  3020121129   01FS        1                                                                                   3112380731664076103324000049                                                  N                     01321  0000000        000170
12062539994000176LEALFER IN E COM DE ACO LTDA                                          0000000034100000000000000000000000000000881032680000002380726830005461501     201210042012090600000000054760000842829000000000842829000000000000000000000000000000050000000000  3020121004   01FS        1                                                                                   3112380726839076103324000029                                                  N                     01321  0000000        000171
12064952757000168WALMAC COM DE PROD QUIMICOS LT                                        0000000034100000000000000000000000000000844063790000002196829090019356        201209042012071000000000054460000219267000000000223146000000000000000000000000003879050000000000  3020120913   01          2                                                                                   3112196829090064807961400019                                                  N                     01321  0000000        000172
12064952757000168WALMAC COM DE PROD QUIMICOS LT                                        0000000034100000000000000000000000000000860403460000002275821710020148        201208312012080300000000054420000219267000000000224870000000000000000000000000005603050000000000  3020120913   01          2                                                                                   3112275821711064807961400079                                                  N                     01321  0000000        000173
12066144957000110POSTO DE MOLAS MABAFIL LTDA ME                                        000000000010000000000000000000000000000085074055000000000698000000380 2       201209122012072300000000054540000041450000000000041610000000000000000000000000000160050000000000  3020120913   01          2                                                                                   3000000162353900000006981719                                                  N                     01321  0000000        000174
12066841552000130R V SEG PATRIMONIAL S C LTDA                                          00000000341000000000000000000000000000008661542000000090002192721927          201209102012081000000000054520000483241000000000483724000000000000000000000000000483050000000000  3020120913   01          2                                                                                   3109000219278001838994000019                                                  N                     01321  0000000        000175
12066899790000105FABRICA ARTEF LATEX ESTRELA EP                                        00000000399000000000000000000000000000008810327700000000000000078368 001      201210272012091200000000054990000256928000000000256928000000000000000000000000000000050000000000  3020121029   01FS        1                                                                                   3175972859061125027292500149                                                  N                     01321  0000000        000176
12066899790000105FABRICA ARTEF LATEX ESTRELA EP                                        00000000399000000000000000000000000000008810327800000000000000078368 002      201211112012091200000000055140000256928000000000256928000000000000000000000000000000050000000000  3020121112   01FS        1                                                                                   3175972859141125027292500119                                                  N                     01321  0000000        000177
12066899790000105FABRICA ARTEF LATEX ESTRELA EP                                        00000000399000000000000000000000000000008810327900000000000000078368 003      201211262012091200000000055290000256928000000000256928000000000000000000000000000000050000000000  3020121126   01FS        1                                                                                   3175972859221125027292500199                                                  N                     01321  0000000        000178
12069284248000128ISOCOAT TINTAS E VERNIZES LTDA                                        0000000034100000000000000000000000000000835620780000002157949160051735        201209102012062500000000054520000127358000000000128378000000000000000000000000001020050000000000  3020120913   01          2                                                                                   3112157949168077430121200029                                                  N                     01321  0000000        000179
12069284248000128ISOCOAT TINTAS E VERNIZES LTDA                                        0000000034100000000000000000000000000000841061020000002182507920052085        201208312012070200000000054420000236060000000000243608000000000000000000000000008177050000000000  3020120912   05          3                                                                                   3112182507924077430121200069                                                  N                     01321  0000000        000180
12069309706000136F N A TRANSPORTES LTDA                                                000000003410000000000000000000000000000086615421000000900010656059068         201208302012081500000000054410000079200000000000082896000000000000000000000000003696050000000000  3020120913   01          2                                                                                   3109000106565005486932600099                                                  N                     01321  0000000        000181
12075483040000130REX MAQUINAS E EQUIPAMENTOS LT                                        00000000001000000000000000000000000000008681263000000091237000079547 2 1      201209062012082100000000054480000064350000000000064992000000000000000000000000000749050000000000  3020120912   06          3                                                                                   3043999123703420001185301189                                                  N                     01321  0000000        000182
12092693118000160BRADESCO SAUDE S A                                                    0000000023700448000000001533991 00000000847452120050100745572410000000000     201208202012071700000000054310000645861000000000655845000000000000000000000000009984050000000000  3020120913   01          2                                                                                   3                         000000000000000                                     N                     00598  0000000        000183
900018400000000053343481                                                                                                                                                                                                                                                                                                                                                                                                                                                                00598  0000000        000184
