0000147602043799295000110ALTAMIRA IND METALURGICA LTDA           20100500000002012091317113400000        2    230A                                                                                          000000000000000                                                                                                                                                                                                                                                                                   000001
12061217188000119TELAS METALICAS TELMETAL LTDA RUA ALDEIA DA PRATA  38                 0368008003300000 0000000000000  I000000000009854000000000000000               201209130000000000000000054550000045377000000000045377000000000000000000000000000000010000005425  3120120913   01HA        000                                                                                 3915435040000000047414020139             005425/03-03                         N                     00000 10020256        000002
12001852612000175BT PRODUTOS INDS LTDA         AV CELSO GARCIA  4553                   0306300034100000 0000000000000  I000000000009855000000000000000               201209130000000000000000054550000044976000000000044976000000000000000000000000000000010000046336  3120120913   01HA        000                                                                                 3181540985396052567228300059             00046336/01                          N                     00000 10020256        000003
12061217188000119TELAS METALICAS TELMETAL LTDA RUA ALDEIA DA PRATA  38                 0368008000100000 0000000000000  I000000000009856000000000000000               201209130000000000000000054550000043522000000000043522000000000000000000000000000000010000005492  3120120913   01HA        000                                                                                 3000000115031800000056071739             005492/01-03                         N                     00000 10020256        000004
12035820448000136WHITE MARTINS GASES IND LTDA  AV  AUTONOMISTAS  4192                  0609001523700026400000003937925 I000000000009857009022270006973               201209130000000000000000054550000018021000000000018021000000000000000000000000000000010000228577  3120120913   01HA        000                                                                                 3002609222700069730393792019             00228577                             N                     00000 10020256        000005
12061217188000119TELAS METALICAS TELMETAL LTDA RUA ALDEIA DA PRATA  38                 0368008000100000 0000000000000  I000000000009858000000000000000               201209130000000000000000054550000017242000000000017242000000000000000000000000000000010000005493  3120120913   01HA        000                                                                                 3000000115031800000056101789             005493/01-03                         N                     00000 10020256        000006
12012024627000161COMERCIO ACESS IND CONTUFLEX LAV ARICANDUVA  1452                     0349000034100000 0000000000000  I000000000009859000000000000000               201209130000000000000000054550000013526000000000013526000000000000000000000000000000010000004897  3120120913   01HA        000                                                                                 3181540975028000264578600079             0004897                              N                     00000 10020256        000007
12061217188000119TELAS METALICAS TELMETAL LTDA RUA ALDEIA DA PRATA  38                 0368008000100000 0000000000000  I000000000009860000000000000000               201209130000000000000000054550000008540000000000008540000000000000000000000000000000010000005494  3120120913   01HA        000                                                                                 3000000115031800000056131719             0005494/01-03                        N                     00000 10020256        000008
900000900000000000191204                                                                                                                                                                                    000000000000000                                                                                                                                                                                                                                                    00000700381850000191204        000009
0000147602043799295000110ALTAMIRA IND METALURGICA LTDA           20100501000002012091317374700000        2    230A                                                                                          000000000000000                                                                                                                                                                                                                                                                                   000001
12006894969000130TERRA DIESEL COMERCIO DE PECAS                                        00000000104000000000000000000000000000008701774300000000019910014063A         201209130000000000000000054550000008600000000000008600000000000000000000000000000000050000000000  3020120913   01MFBUHA    500                                                                                 3900000019930598700000020519010000       0014063/1                            N                     00000 10020256        000002
900000300000000000008600                                                                                                                                                                                    000000000000000                                                                                                                                                                                                                                                    00000100054550000008600        000003
