0000147602043799295000110ALTAMIRA INDUSTRIA METALURGICA LT       202000000018720121213060023             1                                                                                                                                                                                                                                                                                                                                                                                                    000001
12001852612000175BT EQUIP INDUSTRIAIS LTDA EPP                                         000000003410000000000000000000000000000093452389000000264388433055289 1       201212282012113000000000055610000050000000000000050000000000000000000000000000000000050000000000  3020121228   05          3                                                                                   3112643884334052503201700089                                                  N                     01321  0000000        000002
12001895314000162COLETA INDUSTRIAL FIMAVAN LTDA                                        0000000034100000000000000000000000000000866992070000009002335349439           201208272012081700000000054380000123695000000000161701000000000000000000000000038006050000000000  3020121213   01          2                                                                                   3109002335346144604097200019                                                  N                     01321  0000000        000003
12003489596000123BEND FLEX I COMERCIO LTDA                                             000000003410000000000000000000000000000088350832000000171879874608            201209122012082100000000054540000695250000000000821014000000000000000000000000125764050000000000  3020121213   01          2                                                                                   3191718798744157734445800069                                                  N                     01321  0000000        000004
12003489596000123BEND FLEX I COMERCIO LTDA                                             000000003410000000000000000000000000000088599899000000171434574613            201209172012081600000000054590000585000000000000685137000000000000000000000000100137050000000000  3020121213   01          2                                                                                   3191714345748157734445800019                                                  N                     01321  0000000        000005
12003803271000173ATUAL SP C DE FERRAMENTAS LTDA                                        000000003410000000000000000000000000000093832533000000708269270008275         201301092012121200000000055730000034100000000000034100000000000000000000000000000000050000000000  3020130109   01FS        1                                                                                   3157082692705013905550300019                                                  N                     01321  0000000        000006
12005880850000145NEDERMAN BRASIL COM PROD EX LT                                        000000003410000000000000000000000000000086373178000000614350956002763 A       201209252012081400000000054670000289674000000000334704000000000000000000000000045030050000000000  3020121213   01          2                                                                                   3156143509568160829000100049                                                  N                     01321  0000000        000007
12006000195000156MBA MERCANTIL BRAS DE ACO LTDA                                        0000000034100000000000000000000000000000887698090000001671394550008925B02     201209142012071700000000054560000719581000000000846931000000000000000000000000127350050000000000  3020121213   01          2                                                                                   3191671394556064849251000089                                                  N                     01321  0000000        000008
12006000195000156MBA MERCANTIL BRAS DE ACO LTDA                                        0000000034100000000000000000000000000000904173160000001667238280008876B03     201210122012071600000000054840000810320000000000909148000000000000000000000000098828050000000000  3020121213   01          2                                                                                   3191667238288064849251000079                                                  N                     01321  0000000        000009
12006000195000156MBA MERCANTIL BRAS DE ACO LTDA                                        0000000034100000000000000000000000000000904173170000001671394420008925B03     201210122012071700000000054840000719580000000000807310000000000000000000000000087730050000000000  3020121213   01          2                                                                                   3191671394424064849251000069                                                  N                     01321  0000000        000010
12006000195000156MBA MERCANTIL BRAS DE ACO LTDA                                        0000000034100000000000000000000000000000904173180000001671394430008926B03     201210122012071700000000054840000387716000000000435022000000000000000000000000047306050000000000  3020121213   01          2                                                                                   3191671394432064849251000079                                                  N                     01321  0000000        000011
12006000195000156MBA MERCANTIL BRAS DE ACO LTDA                                        0000000034100000000000000000000000000000906662670000001671394410008920B03     201210142012071700000000054860000576584000000000644624000000000000000000000000068040050000000000  3020121213   01          2                                                                                   3191671394416064849251000039                                                  N                     01321  0000000        000012
12006000195000156MBA MERCANTIL BRAS DE ACO LTDA                                        0000000034100000000000000000000000000000889578520000001671394540008920B02     201209162012071700000000054580000576585000000000676377000000000000000000000000099792050000000000  3020121213   01          2                                                                                   3191671394549064849251000099                                                  N                     01321  0000000        000013
12006000195000156MBA MERCANTIL BRAS DE ACO LTDA                                        0000000034100000000000000000000000000000904173150000001667238300008870B03     201210092012071600000000054810000839951000000000947331000000000000000000000000107380050000000000  3020121213   01          2                                                                                   3191667238304064849251000039                                                  N                     01321  0000000        000014
12006000195000156MBA MERCANTIL BRAS DE ACO LTDA                                        0000000034100000000000000000000000000000887698100000001671394560008926B02     201209142012071700000000054560000387716000000000456386000000000000000000000000068670050000000000  3020121213   01          2                                                                                   3191671394564064849251000019                                                  N                     01321  0000000        000015
12006000195000156MBA MERCANTIL BRAS DE ACO LTDA                                        0000000034100000000000000000000000000000885998980000001667238420008870B02     201209112012071600000000054530000839952000000000993588000000000000000000000000153636050000000000  3020121213   01          2                                                                                   3191667238429064849251000039                                                  N                     01321  0000000        000016
12006000195000156MBA MERCANTIL BRAS DE ACO LTDA                                        0000000034100000000000000000000000000000915733820000002553914330010130B01     201211282012103100000000055310000557201000000000557201000000000000000000000000000000050000000000  3020121128   05          3                                                                                   3112553914337064899001800019                                                  N                     01321  0000000        000017
12006000195000156M B A MERCANTIL BRASILEIRA DE                                         0000000023700118P00000002130599 00000000865388240020222900000450009203B03     201212122012081500000000055450000344980000000000345555000000000000000000000000000575050000000000  3020121213   01          2  RUA JUNO  533                                                                    300000000000000000001500  000000000000000                                     N                     00598  0000000        000018
12008272923000104P SANTOS ESQUADRARIAS METAL ME                                        0000000034100000000000000000000000000000896979550000006153947641850           201211222012100800000000055250000400000000000000429340000000000000000000000000030407050000000000  3020121212   06          3                                                                                   3156153947640160141951600039                                                  N                     01321  0000000        000019
12008272923000104P SANTOS ESQUADRARIAS METAL ME                                        0000000034100000000000000000000000000000915734100000006159682651954           201212052012110700000000055380000408138000000000425005000000000000000000000000016867050000000000  3020121213   01          2                                                                                   3156159682654160141951600029                                                  N                     01321  0000000        000020
12009338857000190FERNANDO  NAGAO  CARDONE  ALVA                                        000000000330000000000000000000000000000091653176000000300000000ALTA 11 2012   201211202012103000000000055230000134632000000000145270000000000000000000000000010638050000000000  3020121213   01          2                                                                                   3947901700000051051630010119                                                  N                     01321  0000000        000021
12009338857000190FERNANDO  NAGAO  CARDONE  ALVA                                        000000000330000000000000000000000000000089697936000000800000000ALTA 10 2012   201210202012092500000000054920000134632000000000157794000000000000000000000000023162050000000000  3020121213   01          2                                                                                   3947901700000051050080010129                                                  N                     01321  0000000        000022
12012006058000121WEG TINTAS LTDA                                                       0000000023702727800000000001309 00000000872318670090224700001050016359603     201211142012083100000000055170000459992000000000477769000000000000000000000000017777050000000000  3020121213   01          2  R JUNO  533                                                                      3                         000000000000000                                     N                     00598  0000000        000023
12012006058000121WEG TINTAS LTDA                                                       0000000023702727800000000001309 00000000878206060090225400000800016517203     201211202012090600000000055230000459992000000000474091000000000000000000000000014099050000000000  3020121213   01          2  R JUNO  533                                                                      3                         000000000000000                                     N                     00598  0000000        000024
12012006058000121WEG TINTAS LTDA                                                       0000000023702727800000000001309 00000000882668430090225800000760016626903     201211272012091300000000055300000459992000000000469800000000000000000000000000009808050000000000  3020121213   01          2  R JUNO  533                                                                      3                         000000000000000                                     N                     00598  0000000        000025
12013937547000160DUBAY COMERCIAL LTDA                                                  0000000023701744200000000358460 0000000093832537009023470000002575            201301092012121200000000055730000103961000000000103961000000000000000000000000000000050000000000  3020130109   01FS        1  RUA TAMAINDE                                                                     3                         000000000000000                                     N                     00598  0000000        000026
12014775592000128HELIO ADRIANO DA SILVA ME                                             0000000003300000000000000000000000000000921267680000009100000009131 9127      201212032012111400000000055360000044000000000000044938000000000000000000000000000967050000000000  3020121205   05          3                                                                                   3956114740000000000091010199                                                  N                     01321  0000000        000027
12042956441000101SOLUCOES ACO USIMINAS                                                 0000000034100000000000000000000000000000850740460000002233586800017127201     201208202012072000000000054310000137881000000000169621000000000000000000000000031740050000000000  3020121213   01          2                                                                                   3112233586802293807258000019                                                  N                     01321  0000000        000028
12042956441000101SOLUCOES ACO USIMINAS                                                 0000000034100000000000000000000000000000850740470000002233586810017101002     201209142012071900000000054560000732575000000000864425000000000000000000000000131850050000000000  3020121213   01          2                                                                                   3112233586810293807258000019                                                  N                     01321  0000000        000029
12042956441000101SOLUCOES ACO USIMINAS                                                 0000000034100000000000000000000000000000850740480000002233586820017101202     201209142012071900000000054560000144634000000000170644000000000000000000000000026010050000000000  3020121213   01          2                                                                                   3112233586828293807258000029                                                  N                     01321  0000000        000030
12042956441000101SOLUCOES ACO USIMINAS                                                 0000000034100000000000000000000000000000853154840000002246247030017196702     201209202012072500000000054620000234841000000000274321000000000000000000000000039480050000000000  3020121213   01          2                                                                                   3112246247038293807258000099                                                  N                     01321  0000000        000031
12042956441000101SOLUCOES ACO USIMINAS                                                 0000000034100000000000000000000000000000853154850000002246247040017197302     201209202012072500000000054620000970103000000001133063000000000000000000000000162960050000000000  3020121213   01          2                                                                                   3112246247046293807258000019                                                  N                     01321  0000000        000032
12042956441000101SOLUCOES ACO USIMINAS                                                 0000000034100000000000000000000000000000855028690000002254329380017212902     201209212012072600000000054630000140098000000000163338000000000000000000000000023240050000000000  3020121213   01          2                                                                                   3112254329389293807258000019                                                  N                     01321  0000000        000033
12042956441000101SOLUCOES ACO USIMINAS                                                 0000000034100000000000000000000000000000855028700000002254329390017213002     201209212012072600000000054630000140602000000000163925000000000000000000000000023323050000000000  3020121213   01          2                                                                                   3112254329397293807258000089                                                  N                     01321  0000000        000034
12042956441000101SOLUCOES ACO USIMINAS                                                 0000000034100000000000000000000000000000855028770000002254329400017220502     201209212012072700000000054630000981022000000001143868000000000000000000000000162846050000000000  3020121213   01          2                                                                                   3112254329405293807258000099                                                  N                     01321  0000000        000035
12042956441000101SOLUCOES ACO USIMINAS                                                 0000000034100000000000000000000000000000856906410000002262886280017266201     201208282012073000000000054390000119472000000000145045000000000000000000000000025573050000000000  3020121213   01          2                                                                                   3112262886289293807258000089                                                  N                     01321  0000000        000036
12042956441000101SOLUCOES ACO USIMINAS                                                 0000000034100000000000000000000000000000856906420000002262886290017266301     201208282012073000000000054390000145069000000000176099000000000000000000000000031030050000000000  3020121213   01          2                                                                                   3112262886297293807258000099                                                  N                     01321  0000000        000037
12042956441000101SOLUCOES ACO USIMINAS                                                 0000000034100000000000000000000000000000859590620000002274469790017353702     201209282012080300000000054700000081053000000000093365000000000000000000000000012312050000000000  3020121213   01          2                                                                                   3112274469793293807258000069                                                  N                     01321  0000000        000038
12042956441000101SOLUCOES ACO USIMINAS                                                 0000000034100000000000000000000000000000846595700000002210880280016980502     201209102012071200000000054520000156071000000000185399000000000000000000000000029328050000000000  3020121213   01          2                                                                                   3112210880285293807258000039                                                  N                     01321  0000000        000039
12042956441000101SOLUCOES ACO USIMINAS                                                 0000000034100000000000000000000000000000846595710000002210880290016980602     201209102012071200000000054520000426094000000000506182000000000000000000000000080088050000000000  3020121213   01          2                                                                                   3112210880293293807258000019                                                  N                     01321  0000000        000040
12042956441000101SOLUCOES ACO USIMINAS                                                 0000000034100000000000000000000000000000847452070000002216130350005922202     201209102012071600000000054520000172071000000000204407000000000000000000000000032336050000000000  3020121213   01          2                                                                                   3112216130354293807258000049                                                  N                     01321  0000000        000041
12042956441000101SOLUCOES ACO USIMINAS                                                 0000000034100000000000000000000000000000847452100000002216130340017012402     201209102012071500000000054520000147428000000000175158000000000000000000000000027730050000000000  3020121213   01          2                                                                                   3112216130347293807258000059                                                  N                     01321  0000000        000042
12042956441000101SOLUCOES ACO USIMINAS                                                 0000000034100000000000000000000000000000848180700000002220192900017041002     201209112012071700000000054530000155433000000000184356000000000000000000000000028923050000000000  3020121213   01          2                                                                                   3112220192903293807258000029                                                  N                     01321  0000000        000043
12042956441000101SOLUCOES ACO USIMINAS                                                 0000000034100000000000000000000000000000848180710000002220192910017041202     201209112012071700000000054530000205421000000000243644000000000000000000000000038223050000000000  3020121213   01          2                                                                                   3112220192911293807258000019                                                  N                     01321  0000000        000044
12042956441000101SOLUCOES ACO USIMINAS                                                 0000000034100000000000000000000000000000938325270000002670093690019412701     201301072012121000000000055710000442686000000000442686000000000000000000000000000000050000000000  3020130107   01FS        1                                                                                   3112670093692293807258000049                                                  N                     01321  0000000        000045
12042956441000101SOLUCOES ACO USIMINAS                                                 0000000034100000000000000000000000000000938325280000002670093730019412703     201303042012121000000000056270000442553000000000442553000000000000000000000000000000050000000000  3020130304   01FS        1                                                                                   3112670093734293807258000049                                                  N                     01321  0000000        000046
12042956441000101SOLUCOES ACO USIMINAS                                                 0000000034100000000000000000000000000000938325290000002670093740019412803     201303042012121000000000056270000213550000000000213550000000000000000000000000000000050000000000  3020130304   01FS        1                                                                                   3112670093742293807258000069                                                  N                     01321  0000000        000047
12042956441000101SOLUCOES ACO USIMINAS                                                 0000000034100000000000000000000000000000938325300000002670093700019412801     201301072012121000000000055710000213614000000000213614000000000000000000000000000000050000000000  3020130107   01FS        1                                                                                   3112670093700293807258000039                                                  N                     01321  0000000        000048
12042956441000101SOLUCOES ACO USIMINAS                                                 0000000034100000000000000000000000000000938325310000002670093710019412702     201302042012121000000000055990000442553000000000442553000000000000000000000000000000050000000000  3020130204   01FS        1                                                                                   3112670093718293807258000029                                                  N                     01321  0000000        000049
12042956441000101SOLUCOES ACO USIMINAS                                                 0000000034100000000000000000000000000000938325320000002670093720019412802     201302042012121000000000055990000213550000000000213550000000000000000000000000000000050000000000  3020130204   01FS        1                                                                                   3112670093726293807258000049                                                  N                     01321  0000000        000050
12047190731000100DE CASTRO LOUR ENG IND LTDA                                           00000000341000000000000000000000000000008782051200000023399953803026613 0     201209182012082100000000054600001107989000000001295383000000000000000000000000187394050000000000  3020121213   01          2                                                                                   3112339995386036884500400039                                                  N                     01321  0000000        000051
12047190731000100DE CASTRO LOUR ENG IND LTDA                                           00000000341000000000000000000000000000008782051600000023399954103026614 0     201209182012082100000000054600001047621000000001224781000000000000000000000000177160050000000000  3020121213   01          2                                                                                   3112339995410036884500400039                                                  N                     01321  0000000        000052
12047190731000100DE CASTRO LOUR ENG IND LTDA                                           00000000341000000000000000000000000000008782051700000023399954203026614 0     201211202012082100000000055230001047621000000001095001000000000000000000000000047380050000000000  3020121213   01          2                                                                                   3112339995428036884500400079                                                  N                     01321  0000000        000053
12047190731000100DE CASTRO LOUR ENG IND LTDA                                           00000000341000000000000000000000000000009041732300000025008465203027256 0     201212112012101600000000055440001108602000000001112962000000000000000000000000004360050000000000  3020121213   01          2                                                                                   3112500846525036884500400019                                                  N                     01321  0000000        000054
12047190731000100DE CASTRO LOUR ENG IND LTDA                                           00000000341000000000000000000000000000009041732900000025008464603027216 0     201212052012101000000000055380000225377000000000228921000000000000000000000000003544050000000000  3020121213   01          2                                                                                   3112500846467036884500400029                                                  N                     01321  0000000        000055
12047190731000100DE CASTRO LOUR ENG IND LTDA                                           00000000341000000000000000000000000000008782051800000023399955703026636 0     201211212012082200000000055240000940804000000000981504000000000000000000000000040700050000000000  3020121213   01          2                                                                                   3112339995576036884500400019                                                  N                     01321  0000000        000056
12047190731000100DE CASTRO LOUR ENG IND LTDA                                           00000000341000000000000000000000000000008782052000000023399955303026632 0     201209192012082200000000054610000952073000000001111193000000000000000000000000159120050000000000  3020121213   01          2                                                                                   3112339995535036884500400019                                                  N                     01321  0000000        000057
12047190731000100DE CASTRO LOUR ENG IND LTDA                                           00000000341000000000000000000000000000008782052100000023399955903026643 0     201209202012082300000000054620000867039000000001010259000000000000000000000000143220050000000000  3020121213   01          2                                                                                   3112339995592036884500400049                                                  N                     01321  0000000        000058
12047190731000100DE CASTRO LOUR ENG IND LTDA                                           00000000341000000000000000000000000000008782052400000023399956003026643 0     201211222012082300000000055250000867039000000000902844000000000000000000000000035805050000000000  3020121213   01          2                                                                                   3112339995600036884500400069                                                  N                     01321  0000000        000059
12047190731000100DE CASTRO LOUR ENG IND LTDA                                           00000000341000000000000000000000000000008782052500000023399955603026636 0     201209192012082200000000054610000940804000000001098054000000000000000000000000157250050000000000  3020121213   01          2                                                                                   3112339995568036884500400049                                                  N                     01321  0000000        000060
12047190731000100DE CASTRO LOUR ENG IND LTDA                                           00000000341000000000000000000000000000008782052700000023399956203026648 0     201209202012082300000000054620000976053000000001137333000000000000000000000000161280050000000000  3020121213   01          2                                                                                   3112339995626036884500400029                                                  N                     01321  0000000        000061
12047190731000100DE CASTRO LOUR ENG IND LTDA                                           00000000341000000000000000000000000000008782052800000023399956303026648 0     201211222012082300000000055250000976053000000001016373000000000000000000000000040320050000000000  3020121213   01          2                                                                                   3112339995634036884500400019                                                  N                     01321  0000000        000062
12047190731000100DE CASTRO LOUR ENG IND LTDA                                           00000000341000000000000000000000000000008782059400000023602715303026745 0     201211282012082900000000055310000903175000000000929815000000000000000000000000026640050000000000  3020121213   01          2                                                                                   3112360271533036884500400039                                                  N                     01321  0000000        000063
12047190731000100DE CASTRO LOUR ENG IND LTDA                                           00000000341000000000000000000000000000008782059500000023602714703026734 0     201211272012082800000000055300000997834000000001029226000000000000000000000000031392050000000000  3020121213   01          2                                                                                   3112360271475036884500400019                                                  N                     01321  0000000        000064
12047190731000100DE CASTRO LOUR ENG IND LTDA                                           00000000341000000000000000000000000000008782059900000023602715003026744 0     201211292012082900000000055320000146594000000000150626000000000000000000000000004032050000000000  3020121213   01          2                                                                                   3112360271509036884500400069                                                  N                     01321  0000000        000065
12047190731000100DE CASTRO LOUR ENG IND LTDA                                           00000000341000000000000000000000000000008782050900000023399953503026612 0     201209182012082100000000054600001111489000000001299485000000000000000000000000187996050000000000  3020121213   01          2                                                                                   3112339995352036884500400019                                                  N                     01321  0000000        000066
12047190731000100DE CASTRO LOUR ENG IND LTDA                                           00000000341000000000000000000000000000009041733100000025008464903027234 0     201212062012101100000000055390001029597000000001043772000000000000000000000000014175050000000000  3020121213   01          2                                                                                   3112500846491036884500400029                                                  N                     01321  0000000        000067
12047190731000100DE CASTRO LOUR ENG IND LTDA                                           00000000341000000000000000000000000000008996247900000024766209203027184 0     201211302012100500000000055330001153047000000001182531000000000000000000000000029484050000000000  3020121213   01          2                                                                                   3112476620920036884500400089                                                  N                     01321  0000000        000068
12048775225000146SEIKI IND COM E CONFECCOES LTD                                        000000003410000000000000000000000000000089337376000000244697151014914001      201210232012092500000000054950000052000000000000055978000000000000000000000000003978050000000000  3020121213   01          2                                                                                   3112446971510017444824100089                                                  N                     01321  0000000        000069
12051180370000199IGUAFER FERRO E ACO LTDA                                              0000000034100000000000000000000000000000852309100000002239389789443 B         201209022012071800000000054440000168275000000000196835000000000000000000000000028560050000000000  3020121213   01          2                                                                                   3112239389789077149484600089                                                  N                     01321  0000000        000070
12051180370000199IGUAFER FERRO E ACO LTDA                                              0000000034100000000000000000000000000000852309110000002239389799443 C         201209122012071800000000054540000168275000000000194035000000000000000000000000025760050000000000  3020121213   01          2                                                                                   3112239389797077149484600089                                                  N                     01321  0000000        000071
12053585766000141MULTIACOS I C PRODS TEC LTDA                                          0000000042200000000000000000000000000000895189670000000000000000004750003     201212062012100200000000055390000222869000000000225465000000000000000000000000002596050000000000  3020121213   01          2                                                                                   3711500005033164927762137189                                                  N                     01321  0000000        000072
12054382510000108SETENTA IND E COM DE MADEIRAS                                         0000000034100000000000000000000000000000860403430000002277814474462 A         201209042012080700000000054460000191200000000000228800000000000000000000000000037600050000000000  3020121213   01          2                                                                                   3112277814474057049175300069                                                  N                     01321  0000000        000073
12054382510000108SETENTA IND E COM DE MADEIRAS                                         0000000034100000000000000000000000000000921267620000002584985714843 A         201212052012111400000000055380000191200000000000193832000000000000000000000000003008050000000000  3020121212   06          3                                                                                   3112584985710057049175300059                                                  N                     01321  0000000        000074
12056993512000150CYKLOP DO BRASIL EMBALAGENS SA                                        0000000034100000000000000000000000000000874070500000002362586810134932        201210012012090300000000054730000083607000000000106018000000000000000000000000022411050000000000  3020121213   01          2                                                                                   3112362586813025700015800019                                                  N                     01321  0000000        000075
12059659615000177DZ COMERCIO R E SERVICOS LTDA                                         000000003410000000000000000000000000000091358507000000900000321280            201211172012102400000000055200000060000000000000063120000000000000000000000000003120050000000000  3020121213   01          2                                                                                   3109000003217000314585100039                                                  N                     01321  0000000        000076
12061217188000119TELAS METALICAS TELMETAL LTDA                                         0000000034100000000000000000000000000000938325340000009000000476146 1 3       201301072012121000000000055710000081140000000000081140000000000000000000000000000000050000000000  3020130107   01FS        1                                                                                   3109000000474077098123100019                                                  N                     01321  0000000        000077
12061217188000119TELAS METALICAS TELMETAL LTDA                                         0000000034100000000000000000000000000000938325360000009000000496146 3 3       201301212012121000000000055850000081137000000000081137000000000000000000000000000000050000000000  3020130121   01FS        1                                                                                   3109000000490077098123100029                                                  N                     01321  0000000        000078
12061217188000119TELAS METALICAS TELMETAL LTDA                                         0000000034100000000000000000000000000000938325350000009000000486146 2 3       201301142012121000000000055780000081137000000000081137000000000000000000000000000000050000000000  3020130114   01FS        1                                                                                   3109000000482077098123100099                                                  N                     01321  0000000        000079
12062510367000102ITANHAEM TRANSP DE MAQUINAS LT                                        000000003410000000000000000000000000000087407049000000236463199667            201209202012090400000000054620000248220000000000331632000000000000000000000000083412050000000000  3020121213   01          2                                                                                   3112364631997005770252400049                                                  N                     01321  0000000        000080
12062539994000176LEALFER INDUSTRIA E COMERCIO D                                        0000000003300000000000000000000000000000919321990000005700000000005818801     201212102012110900000000055430000327558000000000329228000000000000000000000000001670050000000000  3020121213   01          2                                                                                   3915298380000000289957010429                                                  N                     01321  0000000        000081
12062539994000176LEALFER IN E COM DE ACO LTDA                                          0000000034100000000000000000000000000000899624770000002474448410005595102     201212102012100100000000055430000917849000000000917849000000000000000000000000000000050000000000  3020121210   06          3                                                                                   3112474448415076103324000099                                                  N                     01321  0000000        000082
12062539994000176LEALFER IN E COM DE ACO LTDA                                          0000000034100000000000000000000000000000899624880000002474448790005595202     201212102012100100000000055430000988100000000000988100000000000000000000000000000000050000000000  3020121210   06          3                                                                                   3112474448795076103324000079                                                  N                     01321  0000000        000083
12064952757000168WALMAC COM DE PROD QUIMICOS LT                                        0000000034100000000000000000000000000000896979510000002462157570021611        201211292012100400000000055320000219267000000000225301000000000000000000000000006034050000000000  3020121213   01          2                                                                                   3112462157572064807961400059                                                  N                     01321  0000000        000084
12064952757000168WALMAC COM DE PROD QUIMICOS LT                                        0000000034100000000000000000000000000000860403450000002275821700020148        201210052012080300000000054770000219267000000000249006000000000000000000000000029739050000000000  3020121213   01          2                                                                                   3112275821703064807961400029                                                  N                     01321  0000000        000085
12066841552000130R V SEG PATRIMONIAL LTDA                                              00000000341000000000000000000000000000008852483200000090002192721927          201209102012081000000000054520000483241000000000498375000000000000000000000000015134050000000000  3020121213   01          2                                                                                   3109000219270001835253400099                                                  N                     01321  0000000        000086
12066841552000130R V SEG PATRIMONIAL S C LTDA                                          00000000341000000000000000000000000000008887329800000090002213622136          201210102012091100000000054820000374758000000000382758000000000000000000000000008000050000000000  3020121213   01          2                                                                                   3109000221365001838994000069                                                  N                     01321  0000000        000087
12066841552000130RV SEGURANCA PATRIMONIAL SC LT                                        0000000023700122800000001495011 000000009203848400900000002253822538          201212102012110800000000055430000374758000000000382628000000000000000000000000007870050000000000  3020121213   01          2  RUA TAMAINDE  1410                                                               3                         000000000000000                                     N                     00598  0000000        000088
12066899790000105FABRICA ARTEF LATEX ESTRELA EP                                        00000000399000000000000000000000000000008895786200000000000000079585 003      201212102012092600000000055430000161124000000000161124000000000000000000000000000000050000000000  3020121210   06          3                                                                                   3176075257491125027292500159                                                  N                     01321  0000000        000089
12067298349000122JOBINVEST FOMENTO MERCANTIL LT                                        000000000010000000000000000000000000000092654645000000797501000540A           201212102012112300000000055430000109607000000000109607000000000000000000000000000000050000000000  3020121210   06          3                                                                                   3161477975011204000105451799                                                  N                     01321  0000000        000090
12069284248000128ISOCOAT TINTAS E VERNIZES LTDA                                        0000000034100000000000000000000000000000841061040000002182507930052085        201209172012070200000000054590000236130000000000290940000000000000000000000000054810050000000000  3020121213   01          2                                                                                   3112182507932077430121200019                                                  N                     01321  0000000        000091
900009200000000044623571                                                                                                                                                                                                                                                                                                                                                                                                                                                                01321  0000000        000092
