0000147602043799295000110ALTAMIRA INDUSTRIA METALURGICA LT       202000000182220120813213809             3                                                                                                  000000000000000                                                                                                                                                                                                                                                                                   000001
12009472021000184AQUARELA TANSP  LOG LTDA                                              0000000010400000 0000000000000  I000000000009473000000000000000               201208110000000000000000054220000006342000000000006342000000000000000000000000000000010000035927  3120120813   02BW        5000000               000000000000000                                               3263589590020004000000748079               35927                              N                     01132 10020256        000002
12047190731000372DE CASTRO LOUREIRO ENG IND COM                                        0000000003300000 0000000000000  I000000000009474000000000000000               201208130000000000000000054240000733780000000000733780000000000000000000000000000000010003025169  3120120813   02BW        5000000               000000000000000                                               3948430370000009545689020359               03025169/03                        N                     01132 10020256        000003
12064952757000168WALMAC COM PROD QUIMICOS LTDA                                         0000000034100000 0000000000000  I000000000009471000000000000000               201208130000000000000000054240000221853000000000221853000000000000000000000000000000010000001935  3120120813   02BW        5000000               000000000000000                                               3181521926762064807961400049               019356                             N                     01132 10020256        000004
12006000195000156M B A MERCANTIL BRASILEIRA DE R RINCAO 220                            0365108023700118000000002128292 I000000000009476000000000000000               201208130000000000000000000000000000000000000000623994000000000000000000000000000000010000008769  0120120813   02BW        5000000               000000000000000                                               3                                          NF.NRO.08769/01                    N                     01321 10020256        000005
12012006058000121WEG TINTAS LTDA                                                       0000000023702727800000000001309 I000000000009475009021490000102               201208130000000000000000054240000086188000000000086188000000000000000000000000000000010000140460  3120120813   02BW        5000000               000000000000000                                               3272709214900001020000130049               0140460/03                         N                     01079 10020256        000006
12012739954000108RODOLFO CESAR LARESE                                                  0000000023701427300000000015989 I000000000009467028021920000008               201208130000000000000000054240000037773000000000037773000000000000000000000000000000010000004596  3120120813   02BW        5000000               000000000000000                                               3142728219200000080001598049               04596                              N                     01079 10020256        000007
12004882911000140F C BRITO CARTUCHOS ME                                                00000000033000000000000000000000000000008531551400000047000000011713 A21      201208072012071000000000054180000042679000000000044727000000000000000000000000000000050000000000  3020120813   02BW        2000000               000000000000000                                               3944753720000000085847010199               011713                             N                     01132 10020256        000008
12009630445000120MARIANA DE QUEIROZ SILVA                                              0000000000100000 0000000000000  I000000000009466000000000000000               201208130000000000000000054240000054046000000000054046000000000000000000000000000000010000000648  3120120813   02BW        5000000               000000000000000                                               3000000167849100000000611739               0648                               N                     01132 10020256        000009
12056993900000131CIA METALURGICA PRADA                                                 0000000034100000 0000000000000  I000000000009470000000000000000               201208130000000000000000054240000572939000000000572939000000000000000000000000000000010000240590  3120120813   02BW        5000000               000000000000000                                               3181521925937293800573900029               0240590/03                         N                     01132 10020256        000010
12056993512000150CYKLOP DO BRASIL EMBALAG  S A                                         0000000034100000 0000000000000  I000000000009469000000000000000               201208130000000000000000054240000038481000000000038481000000000000000000000000000000010000130163  3120120813   02BW        5000000               000000000000000                                               3181521924326025786126000029               0130163/01                         N                     01132 10020256        000011
12039040597000133ATERA INFORMATICA LTDA                                                0000000034100000 0000000000000  I000000000009472000000000000000               201208130000000000000000054240000053843000000000053843000000000000000000000000000000010000583235  3120120813   02BW        5000000               000000000000000                                               3175005832350064418855900079               0583235                            N                     01132 10020256        000012
12056993512000150CYKLOP DO BRASIL EMBALAG  S A                                         0000000034100000 0000000000000  I000000000009468000000000000000               201208130000000000000000054240000013800000000000013800000000000000000000000000000000010000001444  3120120813   02BW        5000000               000000000000000                                               3181521922403025786126000059               01444                              N                     01132 10020256        000013
900001400000000002487766                                                                                                                                                                                    000000000000000                                                                                                                                                                                                                                                    00001200596560001861724        000014
