0000147602043799295000110ALTAMIRA IND METALURGICA LTDA           20100588000002012121310143300000        2    230A                                                                                          000000000000000                                                                                                                                                                                                                                                                                   000001
12043799295000110ALTAMIRA INDUSTRIA METAL LTDA RUA  GANGES  528                        0344503003303809500000130004071 I000000000010323000000000000000               201212130000000000000000000000000000000000000000500000000000000000000000000000000000050000000001  0820121213   01HA        0001050                                                                             3D0000000101                             0001                                 S                     00000  0020256        000002
900000300000000000500000                                                                                                                                                                                    000000000000000                                                                                                                                                                                                                                                    00000100000000000000000        000003
