0000147602043799295000110ALTAMIRA INDUSTRIA METALURGICA LT       202000000016720121114055929             1                                                                                                                                                                                                                                                                                                                                                                                                    000001
12001895314000162COLETA INDUSTRIAL FIMAVAN LTDA                                        0000000034100000000000000000000000000000866992070000009002335349439           201208272012081700000000054380000123695000000000152160000000000000000000000000028465050000000000  3020121114   01          2                                                                                   3109002335346144604097200019                                                  N                     01321  0000000        000002
12003489596000123BEND FLEX I COMERCIO LTDA                                             000000003410000000000000000000000000000091358505000000177374323637            201210292012092700000000055010000110000000000000113456000000000000000000000000003456050000000000  3020121114   01          2                                                                                   3191773743239157734445800019                                                  N                     01321  0000000        000003
12003489596000123BEND FLEX I COMERCIO LTDA                                             000000003410000000000000000000000000000088599899000000171434574613            201209172012081600000000054590000585000000000000651758000000000000000000000000066758050000000000  3020121114   01          2                                                                                   3191714345748157734445800019                                                  N                     01321  0000000        000004
12003489596000123BEND FLEX I COMERCIO LTDA                                             000000003410000000000000000000000000000088350832000000171879874608            201209122012082100000000054540000695250000000000781371000000000000000000000000086121050000000000  3020121114   01          2                                                                                   3191718798744157734445800069                                                  N                     01321  0000000        000005
12004643290000142FLEXTINTAS IND E COMERCIO LTDA                                        000000003410000000000000000000000000000091932175000000257125655NFF039158A     201212242012110900000000055570000347270000000000347270000000000000000000000000000000050000000000  3020121224   01FS        1                                                                                   3112571256554051356781800069                                                  N                     01321  0000000        000006
12004643290000142FLEXTINTAS IND E COMERCIO LTDA                                        000000003410000000000000000000000000000091932176000000257125656NFF039158B     201301082012110900000000055720000347270000000000347270000000000000000000000000000000050000000000  3020130108   01FS        1                                                                                   3112571256562051356781800039                                                  N                     01321  0000000        000007
12004643290000142FLEXTINTAS IND E COMERCIO LTDA                                        000000003410000000000000000000000000000091932179000000257125657NFF039158C     201301232012110900000000055870000347270000000000347270000000000000000000000000000000050000000000  3020130123   01FS        1                                                                                   3112571256570051356781800019                                                  N                     01321  0000000        000008
12004969989000105GARCELLAN INDUSTRIA E COMERCIO                                        000000000010000000000000000000000000000091932187000000786678000347            201212062012111200000000055390000047000000000000047000000000000000000000000000000000050000000000  3020121206   01FS        1                                                                                   3000000215044250157866781159                                                  N                     01321  0000000        000009
12005753978000148HUMAN SERVICOS P C MOVEL LTDA                                         0000000034100000000000000000000000000000919321900000009001062470000106247     201211202012110100000000055230000013000000000000013000000000000000000000000000000000050000000000  3020121120   01FS        1                                                                                   3109001062478057948896600019                                                  N                     01321  0000000        000010
12005880850000145NEDERMAN BRASIL COM PROD EX LT                                        000000003410000000000000000000000000000086373178000000614350956002763 A       201209252012081400000000054670000289674000000000318174000000000000000000000000028500050000000000  3020121114   01          2                                                                                   3156143509568160829000100049                                                  N                     01321  0000000        000011
12006000195000156MBA MERCANTIL BRAS DE ACO LTDA                                        0000000034100000000000000000000000000000904173140000001667238290008874B03     201210112012071600000000054830000802825000000000856511000000000000000000000000053686050000000000  3020121114   01          2                                                                                   3191667238296064849251000069                                                  N                     01321  0000000        000012
12006000195000156MBA MERCANTIL BRAS DE ACO LTDA                                        0000000034100000000000000000000000000000904173150000001667238300008870B03     201210092012071600000000054810000839951000000000899423000000000000000000000000059472050000000000  3020121114   01          2                                                                                   3191667238304064849251000039                                                  N                     01321  0000000        000013
12006000195000156MBA MERCANTIL BRAS DE ACO LTDA                                        0000000034100000000000000000000000000000904173160000001667238280008876B03     201210122012071600000000054840000810320000000000862922000000000000000000000000052602050000000000  3020121114   01          2                                                                                   3191667238288064849251000079                                                  N                     01321  0000000        000014
12006000195000156MBA MERCANTIL BRAS DE ACO LTDA                                        0000000034100000000000000000000000000000904173170000001671394420008925B03     201210122012071700000000054840000719580000000000766275000000000000000000000000046695050000000000  3020121114   01          2                                                                                   3191671394424064849251000069                                                  N                     01321  0000000        000015
12006000195000156MBA MERCANTIL BRAS DE ACO LTDA                                        0000000034100000000000000000000000000000904173180000001671394430008926B03     201210122012071700000000054840000387716000000000412895000000000000000000000000025179050000000000  3020121114   01          2                                                                                   3191671394432064849251000079                                                  N                     01321  0000000        000016
12006000195000156MBA MERCANTIL BRAS DE ACO LTDA                                        0000000034100000000000000000000000000000906662670000001671394410008920B03     201210142012071700000000054860000576584000000000611738000000000000000000000000035154050000000000  3020121114   01          2                                                                                   3191671394416064849251000039                                                  N                     01321  0000000        000017
12006000195000156MBA MERCANTIL BRAS DE ACO LTDA                                        0000000034100000000000000000000000000000885998980000001667238420008870B02     201209112012071600000000054530000839952000000000945680000000000000000000000000105728050000000000  3020121114   01          2                                                                                   3191667238429064849251000039                                                  N                     01321  0000000        000018
12006000195000156MBA MERCANTIL BRAS DE ACO LTDA                                        0000000034100000000000000000000000000000887698090000001671394550008925B02     201209142012071700000000054560000719581000000000805896000000000000000000000000086315050000000000  3020121114   01          2                                                                                   3191671394556064849251000089                                                  N                     01321  0000000        000019
12006000195000156MBA MERCANTIL BRAS DE ACO LTDA                                        0000000034100000000000000000000000000000887698100000001671394560008926B02     201209142012071700000000054560000387716000000000434259000000000000000000000000046543050000000000  3020121114   01          2                                                                                   3191671394564064849251000019                                                  N                     01321  0000000        000020
12006000195000156MBA MERCANTIL BRAS DE ACO LTDA                                        0000000034100000000000000000000000000000889578520000001671394540008920B02     201209162012071700000000054580000576585000000000643491000000000000000000000000066906050000000000  3020121114   01          2                                                                                   3191671394549064849251000099                                                  N                     01321  0000000        000021
12006000195000156M B A MERCANTIL BRASILEIRA DE                                         0000000023700118P00000002130599 00000000919321910020231800000160010234B01     201212062012110800000000055390000996082000000000996082000000000000000000000000000000050000000000  3020121206   01FS        1  RUA JUNO  533                                                                    3                         000000000000000                                     N                     00598  0000000        000022
12006000195000156M B A MERCANTIL BRASILEIRA DE                                         0000000023700118P00000002130599 00000000919321920020231800000170010234B02     201301032012110800000000055670000996082000000000996082000000000000000000000000000000050000000000  3020130103   01FS        1  RUA JUNO  533                                                                    3                         000000000000000                                     N                     00598  0000000        000023
12006000195000156M B A MERCANTIL BRASILEIRA DE                                         0000000023700118P00000002130599 00000000919321930020231800000180010234B03     201301312012110800000000055950000996082000000000996082000000000000000000000000000000050000000000  3020130131   01FS        1  RUA JUNO  533                                                                    3                         000000000000000                                     N                     00598  0000000        000024
12006000195000156M B A MERCANTIL BRASILEIRA DE                                         0000000023700118P00000002130599 00000000848180770020220100000340008905B03     201210112012071900000000054830000155300000000000164106000000000000000000000000008806050000000000  3020121114   01          2  RUA JUNO  533                                                                    3                         000000000000000                                     N                     00598  0000000        000025
12006000195000156M B A MERCANTIL BRASILEIRA DE                                         0000000023700118P00000002130599 00000000865388260020222900000470009204B02     201210112012081500000000054830000127292000000000134500000000000000000000000000007208050000000000  3020121114   01          2  RUA JUNO  533                                                                    3                         000000000000000                                     N                     00598  0000000        000026
12006000195000156M B A MERCANTIL BRASILEIRA DE                                         0000000023700118P00000002130599 00000000865388290020222900000500009205B02     201210122012081500000000054840000348964000000000368170000000000000000000000000019206050000000000  3020121114   01          2  RUA JUNO  533                                                                    3                         000000000000000                                     N                     00598  0000000        000027
12006000195000156M B A MERCANTIL BRASILEIRA DE                                         0000000023700118P00000002130599 00000000865388320020222900000530009206B02     201210132012081500000000054850000527560000000000555688000000000000000000000000028128050000000000  3020121114   01          2  RUA JUNO  533                                                                    3                         000000000000000                                     N                     00598  0000000        000028
12006000195000156M B A MERCANTIL BRASILEIRA DE                                         0000000023700118P00000002130599 00000000868592690020223600000020009229B02     201210112012081600000000054830000253414000000000267762000000000000000000000000014348050000000000  3020121114   01          2  RUA JUNO  533                                                                    3                         000000000000000                                     N                     00598  0000000        000029
12008594182000188ACOS G3 COMERCIO E BENEFICIAME                                        0000000023703137200000000091332 00000000912467990090227100000251155        001201210252012092700000000054970000152346000000000156255000000000000000000000000003909050000000000  3020121114   01          2  RUA GANGES  528                                                                  3                         000000000000000                                     N                     00598  0000000        000030
12008879248000186FREFER METAL PLUS                                                     000000003410000000000000000000000000000091932184000000257145125EMO013946B     201301022012110700000000055660000535589000000000535589000000000000000000000000000000050000000000  3020130102   01FS        1                                                                                   3112571451254293811346700029                                                  N                     01321  0000000        000031
12009338857000190FERNANDO  NAGAO  CARDONE  ALVA                                        000000000330000000000000000000000000000089697936000000800000000ALTA 10 2012   201210202012092500000000054920000134632000000000146078000000000000000000000000011446050000000000  3020121114   01          2                                                                                   3947901700000051050080010129                                                  N                     01321  0000000        000032
12010824619000174ALVALOG TRANSPORTES E LOGISTIC                                        000000000330000000000000000000000000000091932204000000900000000ID277232       201211272012111200000000055300000096732000000000096732000000000000000000000000000000050000000000  3020121127   01FS        1                                                                                   3946239400000000059190010119                                                  N                     01321  0000000        000033
12012006058000121WEG TINTAS LTDA                                                       0000000023702727800000000001309 00000000872318660090224700001040016359602     201210302012083100000000055020000459854000000000469049000000000000000000000000009195050000000000  3020121114   01          2  R JUNO  533                                                                      3                         000000000000000                                     N                     00598  0000000        000034
12012006058000121WEG TINTAS LTDA                                                       0000000023702727800000000001309 00000000878206040090225400000780016517201     201210212012090600000000054930000459854000000000474566000000000000000000000000014712050000000000  3020121114   01          2  R JUNO  533                                                                      3                         000000000000000                                     N                     00598  0000000        000035
12012006058000121WEG TINTAS LTDA                                                       0000000023702727800000000001309 00000000878206050090225400000790016517202     201211052012090600000000055080000459854000000000465371000000000000000000000000005517050000000000  3020121114   01          2  R JUNO  533                                                                      3                         000000000000000                                     N                     00598  0000000        000036
12012006058000121WEG TINTAS LTDA                                                       0000000023702727800000000001309 00000000882668410090225800000740016626901     201210282012091300000000055000000459854000000000470275000000000000000000000000010421050000000000  3020121114   01          2  R JUNO  533                                                                      3                         000000000000000                                     N                     00598  0000000        000037
12012006058000121WEG TINTAS LTDA                                                       0000000023702727800000000001309 00000000870177490090224100000980016248002     201210262012082700000000054980000306569000000000314321000000000000000000000000007752050000000000  3020121114   01          2  R JUNO  533                                                                      3                         000000000000000                                     N                     00598  0000000        000038
12012006058000121WEG TINTAS LTDA                                                       0000000023702727800000000001309 00000000870177500090224100000990016248003     201211102012082700000000055130000306662000000000308294000000000000000000000000001632050000000000  3020121114   01          2  R JUNO  533                                                                      3                         000000000000000                                     N                     00598  0000000        000039
12012006058000121WEG TINTAS LTDA                                                       0000000023702727800000000001309 00000000868126350090223500001180016086602     201210202012082100000000054920000306569000000000316769000000000000000000000000010200050000000000  3020121114   01          2  R JUNO  533                                                                      3                         000000000000000                                     N                     00598  0000000        000040
12012006058000121WEG TINTAS LTDA                                                       0000000023702727800000000001309 00000000868126360090223500001190016086603     201211042012082100000000055070000306662000000000310742000000000000000000000000004080050000000000  3020121114   01          2  R JUNO  533                                                                      3                         000000000000000                                     N                     00598  0000000        000041
12012006058000121WEG TINTAS LTDA                                                       0000000023702727800000000001309 00000000882668420090225800000750016626902     201211122012091300000000055150000459854000000000461080000000000000000000000000001226050000000000  3020121114   01          2  R JUNO  533                                                                      3                         000000000000000                                     N                     00598  0000000        000042
12012006058000121WEG TINTAS LTDA                                                       0000000023702727800000000001309 00000000861207280090222200000920015775003     201210222012080800000000054940000306662000000000316046000000000000000000000000009384050000000000  3020121114   01          2  R JUNO  533                                                                      3                         000000000000000                                     N                     00598  0000000        000043
12012006058000121WEG TINTAS LTDA                                                       0000000023702727800000000001309 00000000864554460090222800000750015908403     201210282012081400000000055000000306662000000000313598000000000000000000000000006936050000000000  3020121114   01          2  R JUNO  533                                                                      3                         000000000000000                                     N                     00598  0000000        000044
12014775592000128HELIO ADRIANO DA SILVA ME                                             0000000003300000000000000000000000000000901454930000007700000008883           201210302012101000000000055020000011000000000000011271000000000000000000000000000278050000000000  3020121106   05          3                                                                                   3956114740000000000077010199                                                  N                     01321  0000000        000045
12034028316000103ECT DEGER   DR 74 SPI                                                 0000000000100000000000000000000000000000909203210000003482700009910021110     201211122012102600000000055150000046760000000000046760000000000000000000000000000000050000000000  3020121112   06          3                                                                                   3000000212652700003482701749                                                  N                     01321  0000000        000046
12035820448000136WHITE MARTINS GASES INDUSTRIAI                                        0000000023700026400000003937925 0000000091932189009023180007207406107 001     201212102012111300000000055430000017600000000000017600000000000000000000000000000000050000000000  3020121210   01FS        1  RUA GANGES  528                                                                  3                         000000000000000                                     N                     00598  0000000        000047
12042956441000101SOLUCOES ACO USIMINAS                                                 0000000034100000000000000000000000000000919321800000002573134230018909701     201212072012110900000000055400000994927000000000994927000000000000000000000000000000050000000000  3020121207   01FS        1                                                                                   3112573134239293807258000079                                                  N                     01321  0000000        000048
12042956441000101SOLUCOES ACO USIMINAS                                                 0000000034100000000000000000000000000000919321820000002573134240018909702     201301042012110900000000055680000994629000000000994629000000000000000000000000000000050000000000  3020130104   01FS        1                                                                                   3112573134247293807258000039                                                  N                     01321  0000000        000049
12042956441000101SOLUCOES ACO USIMINAS                                                 0000000034100000000000000000000000000000919321830000002573134250018909703     201302012012110900000000055960000994628000000000994628000000000000000000000000000000050000000000  3020130201   01FS        1                                                                                   3112573134254293807258000019                                                  N                     01321  0000000        000050
12042956441000101SOLUCOES ACO USIMINAS                                                 0000000034100000000000000000000000000000855028700000002254329390017213002     201209212012072600000000054630000140602000000000155776000000000000000000000000015174050000000000  3020121114   01          2                                                                                   3112254329397293807258000089                                                  N                     01321  0000000        000051
12042956441000101SOLUCOES ACO USIMINAS                                                 0000000034100000000000000000000000000000855028770000002254329400017220502     201209212012072700000000054630000981022000000001086970000000000000000000000000105948050000000000  3020121114   01          2                                                                                   3112254329405293807258000099                                                  N                     01321  0000000        000052
12042956441000101SOLUCOES ACO USIMINAS                                                 0000000034100000000000000000000000000000856906410000002262886280017266201     201208282012073000000000054390000119472000000000138114000000000000000000000000018642050000000000  3020121114   01          2                                                                                   3112262886289293807258000089                                                  N                     01321  0000000        000053
12042956441000101SOLUCOES ACO USIMINAS                                                 0000000034100000000000000000000000000000856906420000002262886290017266301     201208282012073000000000054390000145069000000000167689000000000000000000000000022620050000000000  3020121114   01          2                                                                                   3112262886297293807258000099                                                  N                     01321  0000000        000054
12042956441000101SOLUCOES ACO USIMINAS                                                 0000000034100000000000000000000000000000859590620000002274469790017353702     201209282012080300000000054700000081053000000000088667000000000000000000000000007614050000000000  3020121114   01          2                                                                                   3112274469793293807258000069                                                  N                     01321  0000000        000055
12042956441000101SOLUCOES ACO USIMINAS                                                 0000000034100000000000000000000000000000846595700000002210880280016980502     201209102012071200000000054520000156071000000000176351000000000000000000000000020280050000000000  3020121114   01          2                                                                                   3112210880285293807258000039                                                  N                     01321  0000000        000056
12042956441000101SOLUCOES ACO USIMINAS                                                 0000000034100000000000000000000000000000846595710000002210880290016980602     201209102012071200000000054520000426094000000000481474000000000000000000000000055380050000000000  3020121114   01          2                                                                                   3112210880293293807258000019                                                  N                     01321  0000000        000057
12042956441000101SOLUCOES ACO USIMINAS                                                 0000000034100000000000000000000000000000847452070000002216130350005922202     201209102012071600000000054520000172071000000000194431000000000000000000000000022360050000000000  3020121114   01          2                                                                                   3112216130354293807258000049                                                  N                     01321  0000000        000058
12042956441000101SOLUCOES ACO USIMINAS                                                 0000000034100000000000000000000000000000847452100000002216130340017012402     201209102012071500000000054520000147428000000000166603000000000000000000000000019175050000000000  3020121114   01          2                                                                                   3112216130347293807258000059                                                  N                     01321  0000000        000059
12042956441000101SOLUCOES ACO USIMINAS                                                 0000000034100000000000000000000000000000848180700000002220192900017041002     201209112012071700000000054530000155433000000000175337000000000000000000000000019904050000000000  3020121114   01          2                                                                                   3112220192903293807258000029                                                  N                     01321  0000000        000060
12042956441000101SOLUCOES ACO USIMINAS                                                 0000000034100000000000000000000000000000848180710000002220192910017041202     201209112012071700000000054530000205421000000000231725000000000000000000000000026304050000000000  3020121114   01          2                                                                                   3112220192911293807258000019                                                  N                     01321  0000000        000061
12042956441000101SOLUCOES ACO USIMINAS                                                 0000000034100000000000000000000000000000850740460000002233586800017127201     201208202012072000000000054310000137881000000000161617000000000000000000000000023736050000000000  3020121114   01          2                                                                                   3112233586802293807258000019                                                  N                     01321  0000000        000062
12042956441000101SOLUCOES ACO USIMINAS                                                 0000000034100000000000000000000000000000850740470000002233586810017101002     201209142012071900000000054560000732575000000000821940000000000000000000000000089365050000000000  3020121114   01          2                                                                                   3112233586810293807258000019                                                  N                     01321  0000000        000063
12042956441000101SOLUCOES ACO USIMINAS                                                 0000000034100000000000000000000000000000850740480000002233586820017101202     201209142012071900000000054560000144634000000000162263000000000000000000000000017629050000000000  3020121114   01          2                                                                                   3112233586828293807258000029                                                  N                     01321  0000000        000064
12042956441000101SOLUCOES ACO USIMINAS                                                 0000000034100000000000000000000000000000853154840000002246247030017196702     201209202012072500000000054620000234841000000000260691000000000000000000000000025850050000000000  3020121114   01          2                                                                                   3112246247038293807258000099                                                  N                     01321  0000000        000065
12042956441000101SOLUCOES ACO USIMINAS                                                 0000000034100000000000000000000000000000853154850000002246247040017197302     201209202012072500000000054620000970103000000001076803000000000000000000000000106700050000000000  3020121114   01          2                                                                                   3112246247046293807258000019                                                  N                     01321  0000000        000066
12042956441000101SOLUCOES ACO USIMINAS                                                 0000000034100000000000000000000000000000855028690000002254329380017212902     201209212012072600000000054630000140098000000000155218000000000000000000000000015120050000000000  3020121114   01          2                                                                                   3112254329389293807258000019                                                  N                     01321  0000000        000067
12047190731000100DE CASTRO LOUR ENG IND LTDA                                           00000000341000000000000000000000000000008782050900000023399953503026612 0     201209182012082100000000054600001111489000000001236091000000000000000000000000124602050000000000  3020121114   01          2                                                                                   3112339995352036884500400019                                                  N                     01321  0000000        000068
12047190731000100DE CASTRO LOUR ENG IND LTDA                                           00000000341000000000000000000000000000008782051200000023399953803026613 0     201209182012082100000000054600001107989000000001232192000000000000000000000000124203050000000000  3020121114   01          2                                                                                   3112339995386036884500400039                                                  N                     01321  0000000        000069
12047190731000100DE CASTRO LOUR ENG IND LTDA                                           00000000341000000000000000000000000000008782051600000023399954103026614 0     201209182012082100000000054600001047621000000001165041000000000000000000000000117420050000000000  3020121114   01          2                                                                                   3112339995410036884500400039                                                  N                     01321  0000000        000070
12047190731000100DE CASTRO LOUR ENG IND LTDA                                           00000000341000000000000000000000000000008782052000000023399955303026632 0     201209192012082200000000054610000952073000000001056905000000000000000000000000104832050000000000  3020121114   01          2                                                                                   3112339995535036884500400019                                                  N                     01321  0000000        000071
12047190731000100DE CASTRO LOUR ENG IND LTDA                                           00000000341000000000000000000000000000008782052100000023399955903026643 0     201209202012082300000000054620000867039000000000960814000000000000000000000000093775050000000000  3020121114   01          2                                                                                   3112339995592036884500400049                                                  N                     01321  0000000        000072
12047190731000100DE CASTRO LOUR ENG IND LTDA                                           00000000341000000000000000000000000000008782052500000023399955603026636 0     201209192012082200000000054610000940804000000001044404000000000000000000000000103600050000000000  3020121114   01          2                                                                                   3112339995568036884500400049                                                  N                     01321  0000000        000073
12047190731000100DE CASTRO LOUR ENG IND LTDA                                           00000000341000000000000000000000000000008782052700000023399956203026648 0     201209202012082300000000054620000976053000000001081653000000000000000000000000105600050000000000  3020121114   01          2                                                                                   3112339995626036884500400029                                                  N                     01321  0000000        000074
12047190731000100DE CASTRO LOUREIRO ENGENHARIA                                         00000000033000000000000000000000000000008801227900000055000000003026838 0     201210082012091000000000054800000940006000000000958806000000000000000000000000018800050000000000  3020121009   06          3                                                                                   3948430370000009553355020389                                                  N                     01321  0000000        000075
12048218317000125RODOENG TRANSPORTES RODOVIARIO                                        00000000001000000000000000000000000000009193218600000050348900013599          201212102012111200000000055430000275000000000000275000000000000000000000000000000000050000000000  3020121210   01FS        1                                                                                   3160305034891494000094531749                                                  N                     01321  0000000        000076
12048775225000146SEIKI IND COM E CONFECCOES LTD                                        000000003410000000000000000000000000000089337376000000244697151014914001      201210232012092500000000054950000052000000000000053716000000000000000000000000001716050000000000  3020121114   01          2                                                                                   3112446971510017444824100089                                                  N                     01321  0000000        000077
12049341563000132JAC COMERCIO DE MATERIAIS ELET                                        0000000023700293300000001478699 00000000892292560020132275064582321701        201210262012100100000000054980000046351000000000046736000000000000000000000000000462050000000000  3020121031   06          3  R GANGES 528                                                                     3                         000000000000000                                     N                     00598  0000000        000078
12051180370000199IGUAFER FERRO E ACO LTDA                                              0000000034100000000000000000000000000000852309100000002239389789443 B         201209022012071800000000054440000168275000000000188715000000000000000000000000020440050000000000  3020121114   01          2                                                                                   3112239389789077149484600089                                                  N                     01321  0000000        000079
12051180370000199IGUAFER FERRO E ACO LTDA                                              0000000034100000000000000000000000000000852309110000002239389799443 C         201209122012071800000000054540000168275000000000185915000000000000000000000000017640050000000000  3020121114   01          2                                                                                   3112239389797077149484600089                                                  N                     01321  0000000        000080
12053585766000141MULTIACOS I C PRODS TEC LTDA                                          0000000042200000000000000000000000000000895189530000000000000000004695802     201211122012100200000000055150000193011000000000193654000000000000000000000000000643050000000000  3020121114   01          2                                                                                   3711500005033164927762005119                                                  N                     01321  0000000        000081
12053585766000141MULTIACOS I C PRODS TEC LTDA                                          0000000042200000000000000000000000000000895189550000000000000000004695702     201211122012100200000000055150001092223000000001095862000000000000000000000000003639050000000000  3020121114   01          2                                                                                   3711500005033164927761971189                                                  N                     01321  0000000        000082
12053585766000141MULTIACOS I C PRODS TEC LTDA                                          0000000042200000000000000000000000000000895189580000000000000000004699102     201211122012100200000000055150000574719000000000576634000000000000000000000000001915050000000000  3020121114   01          2                                                                                   3711500005033164927762030199                                                  N                     01321  0000000        000083
12053585766000141MULTIACOS I C PRODS TEC LTDA                                          0000000042200000000000000000000000000000895189640000000000000000004750001     201211082012100200000000055110000229622000000000231919000000000000000000000000002297050000000000  3020121114   01          2                                                                                   3711500005033164927762111139                                                  N                     01321  0000000        000084
12053585766000141MULTIACOS I C PRODS TEC LTDA                                          0000000042200000000000000000000000000000895189710000000000000000004685002     201211082012100200000000055110000547346000000000552817000000000000000000000000005471050000000000  3020121114   01          2                                                                                   3711500005033164927762196129                                                  N                     01321  0000000        000085
12053585766000141MULTIACOS I C PRODS TEC LTDA                                          0000000042200000000000000000000000000000895189740000000000000000004642303     201211132012100200000000055160000192957000000000193278000000000000000000000000000321050000000000  3020121114   01          2                                                                                   3711500005033164927762161159                                                  N                     01321  0000000        000086
12053585766000141MULTIACOS I C PRODS TEC LTDA                                          0000000042200000000000000000000000000000895189770000000000000000004642103     201211132012100200000000055160000244317000000000244723000000000000000000000000000406050000000000  3020121114   01          2                                                                                   3711500005033164927762188149                                                  N                     01321  0000000        000087
12053585766000141MULTIACOS I C PRODS TEC LTDA                                          0000000042200000000000000000000000000000887697890000000000000000004704302     201211132012092000000000055160000965514000000000967122000000000000000000000000001608050000000000  3020121114   01          2                                                                                   3711500005033164923629556119                                                  N                     01321  0000000        000088
12053585766000141MULTIACOS I C PRODS TEC LTDA                                          0000000042200000000000000000000000000000887697950000000000000000004704502     201211132012092000000000055160000217463000000000217824000000000000000000000000000361050000000000  3020121114   01          2                                                                                   3711500005033164923629581139                                                  N                     01321  0000000        000089
12054382510000108SETENTA IND E COM DE MADEIRAS                                         0000000034100000000000000000000000000000860403430000002277814474462 A         201209042012080700000000054460000191200000000000217896000000000000000000000000026696050000000000  3020121114   01          2                                                                                   3112277814474057049175300069                                                  N                     01321  0000000        000090
12056993512000150CYKLOP DO BRASIL EMBALAGENS SA                                        0000000034100000000000000000000000000000874070500000002362586810134932        201210012012090300000000054730000083607000000000097115000000000000000000000000013508050000000000  3020121114   01          2                                                                                   3112362586813025700015800019                                                  N                     01321  0000000        000091
12057196081000164MINELE COMERCIO DE PARAFUSOS L                                        0000000023700298400000002047470 0000000089518994009022780000002567            201210262012100400000000054980000040000000000000041000000000000000000000000000001000050000000000  3020121029   06          3  R  GANGES  528   VL CARRAO                                                       3                         000000000000000                                     N                     00598  0000000        000092
12061070454000123SOL IMPORTACAO EXPORTACAO INDU                                        0000000000100000000000000000000000000000919321850000005535800007146           201212042012111200000000055370000054000000000000054000000000000000000000000000000000050000000000  3020121204   01FS        1                                                                                   3044225535801196000055601119                                                  N                     01321  0000000        000093
12061600839000155CENTRO DE INT EMPRESA ESCOLA C                                        0000000023703391P00000000866202 00000000919321880090000036925787641C 0001     201211302012111200000000055330000016800000000000016800000000000000000000000000000000050000000000  3020121130   01FS        1  R GANGES  528                                                                    3                         000000000000000                                     N                     00598  0000000        000094
12062173661000176INDUFIX IND E COM LTDA                                                0000000023704130000000000085898 000000008904570700702271000005700038394 B     201210262012091100000000054980000057505000000000057980000000000000000000000000000570050000000000  3020121031   06          3  RUA GANGES 528                                                                   3                         000000000000000                                     N                     00598  0000000        000095
12062510367000102ITANHAEM TRANSP DE MAQUINAS LT                                        000000003410000000000000000000000000000087407049000000236463199667            201209202012090400000000054620000248220000000000302835000000000000000000000000054615050000000000  3020121114   01          2                                                                                   3112364631997005770252400049                                                  N                     01321  0000000        000096
12062539994000176LEALFER INDUSTRIA E COMERCIO D                                        0000000003300000000000000000000000000000884432780000008400000000005502002     201211092012091300000000055120000839516000000000846651000000000000000000000000007135050000000000  3020121114   01          2                                                                                   3915298380000000264784010469                                                  N                     01321  0000000        000097
12062539994000176LEALFER INDUSTRIA E COMERCIO D                                        0000000003300000000000000000000000000000919321940000006400000000005787001     201212042012110500000000055370000596925000000000596925000000000000000000000000000000050000000000  3020121204   01FS        1                                                                                   3915298380000000288764010419                                                  N                     01321  0000000        000098
12062539994000176LEALFER INDUSTRIA E COMERCIO D                                        0000000003300000000000000000000000000000919322050000001600000000005787003     201301292012110500000000055930000596925000000000596925000000000000000000000000000000050000000000  3020130129   01FS        1                                                                                   3915298380000000294616010449                                                  N                     01321  0000000        000099
12062539994000176LEALFER INDUSTRIA E COMERCIO D                                        0000000003300000000000000000000000000000919321950000008000000000005786801     201212042012110500000000055370000838712000000000838712000000000000000000000000000000050000000000  3020121204   01FS        1                                                                                   3915298380000000288780010459                                                  N                     01321  0000000        000100
12062539994000176LEALFER INDUSTRIA E COMERCIO D                                        0000000003300000000000000000000000000000919321960000000000000000005796701     201212052012110600000000055380000298074000000000298074000000000000000000000000000000050000000000  3020121205   01FS        1                                                                                   3915298380000000288900010479                                                  N                     01321  0000000        000101
12062539994000176LEALFER INDUSTRIA E COMERCIO D                                        0000000003300000000000000000000000000000919322060000004000000000005796703     201301302012110600000000055940000298074000000000298074000000000000000000000000000000050000000000  3020130130   01FS        1                                                                                   3915298380000000294640010419                                                  N                     01321  0000000        000102
12062539994000176LEALFER INDUSTRIA E COMERCIO D                                        0000000003300000000000000000000000000000919322070000008300000000005797003     201301302012110600000000055940000591706000000000591706000000000000000000000000000000050000000000  3020130130   01FS        1                                                                                   3915298380000000294683010429                                                  N                     01321  0000000        000103
12062539994000176LEALFER INDUSTRIA E COMERCIO D                                        0000000003300000000000000000000000000000919322080000005300000000005818803     201302042012110900000000055990000327558000000000327558000000000000000000000000000000050000000000  3020130204   01FS        1                                                                                   3915298380000000294853010469                                                  N                     01321  0000000        000104
12062539994000176LEALFER INDUSTRIA E COMERCIO D                                        0000000003300000000000000000000000000000919322090000000800000000005786803     201301292012110500000000055930000838712000000000838712000000000000000000000000000000050000000000  3020130129   01FS        1                                                                                   3915298380000000294608010469                                                  N                     01321  0000000        000105
12062539994000176LEALFER INDUSTRIA E COMERCIO D                                        0000000003300000000000000000000000000000919321970000003400000000005797001     201212052012110600000000055380000591708000000000591708000000000000000000000000000000050000000000  3020121205   01FS        1                                                                                   3915298380000000288934010459                                                  N                     01321  0000000        000106
12062539994000176LEALFER INDUSTRIA E COMERCIO D                                        0000000003300000000000000000000000000000919321980000007000000000005797002     201301022012110600000000055660000591706000000000591706000000000000000000000000000000050000000000  3020130102   01FS        1                                                                                   3915298380000000292370010419                                                  N                     01321  0000000        000107
12062539994000176LEALFER INDUSTRIA E COMERCIO D                                        0000000003300000000000000000000000000000919321990000005700000000005818801     201212102012110900000000055430000327558000000000327558000000000000000000000000000000050000000000  3020121210   01FS        1                                                                                   3915298380000000289957010429                                                  N                     01321  0000000        000108
12062539994000176LEALFER INDUSTRIA E COMERCIO D                                        0000000003300000000000000000000000000000919322000000000000000000005796702     201301022012110600000000055660000298074000000000298074000000000000000000000000000000050000000000  3020130102   01FS        1                                                                                   3915298380000000292400010439                                                  N                     01321  0000000        000109
12062539994000176LEALFER INDUSTRIA E COMERCIO D                                        0000000003300000000000000000000000000000919322010000002200000000005787002     201301012012110500000000055650000596925000000000596925000000000000000000000000000000050000000000  3020130102   01FS        1                                                                                   3915298380000000292222010429                                                  N                     01321  0000000        000110
12062539994000176LEALFER INDUSTRIA E COMERCIO D                                        0000000003300000000000000000000000000000919322020000006700000000005818802     201301072012110900000000055710000327558000000000327558000000000000000000000000000000050000000000  3020130107   01FS        1                                                                                   3915298380000000293067010419                                                  N                     01321  0000000        000111
12062539994000176LEALFER INDUSTRIA E COMERCIO D                                        0000000003300000000000000000000000000000919322030000004900000000005786802     201301012012110500000000055650000838712000000000838712000000000000000000000000000000050000000000  3020130102   01FS        1                                                                                   3915298380000000292249010489                                                  N                     01321  0000000        000112
12064952757000168WALMAC COM DE PROD QUIMICOS LT                                        0000000034100000000000000000000000000000860403440000002275821690020148        201210262012080300000000054980000219266000000000227455000000000000000000000000008189050000000000  3020121114   01          2                                                                                   3112275821695064807961400019                                                  N                     01321  0000000        000113
12064952757000168WALMAC COM DE PROD QUIMICOS LT                                        0000000034100000000000000000000000000000860403450000002275821700020148        201210052012080300000000054770000219267000000000236507000000000000000000000000017240050000000000  3020121114   01          2                                                                                   3112275821703064807961400029                                                  N                     01321  0000000        000114
12064952757000168WALMAC COM DE PROD QUIMICOS LT                                        0000000034100000000000000000000000000000896979500000002462157550021611        201211012012100400000000055040000219267000000000224870000000000000000000000000005603050000000000  3020121114   01          2                                                                                   3112462157556064807961400019                                                  N                     01321  0000000        000115
12066841552000130R V SEG PATRIMONIAL LTDA                                              00000000341000000000000000000000000000008852483200000090002192721927          201209102012081000000000054520000483241000000000493706000000000000000000000000010465050000000000  3020121114   01          2                                                                                   3109000219270001835253400099                                                  N                     01321  0000000        000116
12066841552000130R V SEG PATRIMONIAL S C LTDA                                          00000000341000000000000000000000000000008887329800000090002213622136          201210102012091100000000054820000374758000000000379133000000000000000000000000004375050000000000  3020121114   01          2                                                                                   3109000221365001838994000069                                                  N                     01321  0000000        000117
12067647412000199ANCORA CHUMBADORES LTDA                                               000000003410000000000000000000000000000091932177000000257023550065922 2       201301062012110700000000055700000125000000000000125000000000000000000000000000000000050000000000  3020130107   01FS        1                                                                                   3112570235500013626917200069                                                  N                     01321  0000000        000118
12067647412000199ANCORA CHUMBADORES LTDA                                               000000003410000000000000000000000000000091932178000000257023551065922 3       201302052012110700000000056000000125000000000000125000000000000000000000000000000000050000000000  3020130205   01FS        1                                                                                   3112570235518013626917200019                                                  N                     01321  0000000        000119
12067647412000199ANCORA CHUMBADORES LTDA                                               000000003410000000000000000000000000000091932174000000257023549065922 1       201212222012110700000000055550000175000000000000175000000000000000000000000000000000050000000000  3020121224   01FS        1                                                                                   3112570235492013626917200029                                                  N                     01321  0000000        000120
12067647412000199ANCORA CHUMBADORES LTDA                                               000000003410000000000000000000000000000091932181000000257023552065922 4       201302202012110700000000056150000125000000000000125000000000000000000000000000000000050000000000  3020130220   01FS        1                                                                                   3112570235526013626917200079                                                  N                     01321  0000000        000121
12067647412000199ANCORA CHUMBADORES LTDA                                               000000003410000000000000000000000000000088873286000000242214246062576 1       201211032012091900000000055060000175000000000000176032000000000000000000000000001376050000000000  3020121106   05          3                                                                                   3112422142466013626917200029                                                  N                     01321  0000000        000122
12069284248000128ISOCOAT TINTAS E VERNIZES LTDA                                        0000000034100000000000000000000000000000841061040000002182507930052085        201209172012070200000000054590000236130000000000272670000000000000000000000000036540050000000000  3020121114   01          2                                                                                   3112182507932077430121200019                                                  N                     01321  0000000        000123
12075483040000130REX MAQUINAS E EQUIPAMENTOS LT                                        0000000023702656500000000000701 000000008729529900202248000040681776 2 2      201210262012083100000000054980000434000000000000437615000000000000000000000000004338050000000000  3020121031   06          3  RUA  GANGES  528                                                                 3                         000000000000000                                     N                     00598  0000000        000124
12096500087000135WORKBENCH CONSULTORIA S S LTDA                                        0000000034100000000000000000000000000000878205840000007940034283118           201209272012090300000000054690000131746000000000144178000000000000000000000000012432050000000000  3020121114   01          2                                                                                   3157940034289826313803700089                                                  N                     01321  0000000        000125
900012600000000055247731                                                                                                                                                                                                                                                                                                                                                                                                                                                                01321  0000000        000126
