0000147602043799295000110ALTAMIRA INDUSTRIA METALURGICA LT       202000000195720121114213847             3                                                                                                  000000000000000                                                                                                                                                                                                                                                                                   000001
12012006058000121WEG TINTAS LTDA               AV MOEMA 862 INDIANOPOLIS               0407702323702727800000000001309 I000000000010193000000000000000               201211140000000000000000000000000000000000000000085440000000000000000000000000000000050000000001  0120121114   02BW        5000000               000000000000000                                               3                                          REF.JUROS                          N                     01321 10020256        000002
12014775592000128HELIO ADRIANO DA SILVA ME                                             0000000023700593200000002432943 00000000913585090090231000000078928           201211142012102500000000055170000018000000000000018000000000000000000000000000000000050000000000  3020121114   02BW        2000000               000000000000000                                               3                         000000000000000  8928                               N                     01079 10020256        000003
12060732997000104UNIFISA ADM  NACIONAL DE CONS                                         0000000023703390100000000086606 I000000000010192009000970933835               201211140000000000000000055170000117616000000000117616000000000000000000000000000000040618086700  3120121114   02BW        5000000               000000000000000                                               3339009009709338350008660089               0618086700                         N                     01079 10020256        000004
12060732997000104UNIFISA ADM  NACIONAL DE CONS                                         0000000023703390100000000086606 I000000000010191009000970933418               201211140000000000000000055170000117616000000000117616000000000000000000000000000000050615037000  3120121114   02BW        5000000               000000000000000                                               3339009009709334180008660029               0615037000                         N                     01079 10020256        000005
11517114514000087ROSILDO BARROS CAMILO         R CIPRIANO FUNTAN 322 PQ S RAFAEL       0832045123700298400000000619833 I000000000010194000000000000000               201211140000000000000000000000000000000000000000358904000000000000000000000000000000010000000102  0120121114   02BW        5000000               000000000000000                                               3                                          0102                               N                     01321 10020256        000006
12009007898000102ARTERINOX COMERCIO T M L EPP                                          0000000034100000000000000000000000000000902449860000002490040604000           201211142012100900000000055170000075317000000000075317000000000000000000000000000000050000000000  3020121114   02BW        2000000               000000000000000                                               3112490040600641221612600019               4000                               N                     01132 10020256        000007
12042956441000101SOLUCOES ACO USIMINAS                                                 0000000034100000000000000000000000000000850740380000002233586910017127103     201211142012072000000000055170000167726000000000167726000000000000000000000000000000050000000000  3020121114   02BW        2000000               000000000000000                                               3112233586919293807258000019               0171217/03                         N                     01132 10020256        000008
12042956441000101SOLUCOES ACO USIMINAS                                                 0000000034100000000000000000000000000000850740370000002233586870017101003     201211142012071900000000055170000732574000000000732574000000000000000000000000000000050000000000  3020121114   02BW        2000000               000000000000000                                               3112233586877293807258000079               171010/03                          N                     01132 10020256        000009
12042956441000101SOLUCOES ACO USIMINAS                                                 0000000034100000000000000000000000000000850740360000002233586900017127003     201211142012072000000000055170000190427000000000190427000000000000000000000000000000050000000000  3020121114   02BW        2000000               000000000000000                                               3112233586901293807258000099               0171270/03                         N                     01132 10020256        000010
12047190731000100DE CASTRO LOUREIRO ENGENHARIA                                         0000000003300000 0000000000000  I000000000010189000000000000000               201211140000000000000000055170000947530000000000947530000000000000000000000000000000010000026873  3120121114   02BW        5000000               000000000000000                                               3948430370000009553410020389               026873/01                          N                     01132 10020256        000011
12049341563000132JAC COMERCIO DE MATERIAIS ELET                                        00000000001000000000000000000000000000009005227300000046831500023646B         201211142012101100000000055170000009063000000000009063000000000000000000000000000000050000000000  3020121114   02BW        2000000               000000000000000                                               3000000192560144144683151159               23646/2                            N                     01132 10020256        000012
12002954207000120BENZOL COM MAT ESP P LIMPEZA L                                        0000000000100000 0000000000000  I000000000010190000000000000000               201211140000000000000000055170000096000000000000096000000000000000000000000000000000010000004753  3120121114   02BW        5000000               000000000000000                                               3852632000000000000022772189               04753                              N                     01132 10020256        000013
12042956441000101SOLUCOES ACO USIMINAS                                                 0000000034100000000000000000000000000000850740340000002233586880017101203     201211142012071900000000055170000144633000000000144633000000000000000000000000000000050000000000  3020121114   02BW        2000000               000000000000000                                               3112233586885293807258000019               0171012/03                         N                     01132 10020256        000014
12042956441000101SOLUCOES ACO USIMINAS                                                 0000000034100000000000000000000000000000850740350000002233586890017126903     201211142012072000000000055170000208393000000000208393000000000000000000000000000000050000000000  3020121114   02BW        2000000               000000000000000                                               3112233586893293807258000059               0171010/03                         N                     01132 10020256        000015
900001600000000003269239                                                                                                                                                                                    000000000000000                                                                                                                                                                                                                                                    00001400662040002824895        000016
