0000147602043799295000110ALTAMIRA INDUSTRIA METALURGICA LT       202000000012720120915060515             1                                                                                                                                                                                                                                                                                                                                                                                                    000001
12001852612000175BT EQUIP INDUSTRIAIS LTDA EPP                                         000000003410000000000000000000000000000086615424000000230334024590848         201209102012081600000000054520000044535000000000045123000000000000000000000000000735050000000000  3020120914   06          3                                                                                   3112303340247052567228300059                                                  N                     01321  0000000        000002
12001852612000175BT EQUIPAMENTOS INDUSTRIAIS LT                                        000000000010000000000000000000000000000087577329000000031510000591624         201209142012082200000000054560000031800000000000032085000000000000000000000000000285050000000000  3020120917   01          2                                                                                   3044000315100511000085971119                                                  N                     01321  0000000        000003
12001895314000162COLETA INDUSTRIAL FIMAVAN LTDA                                        0000000034100000000000000000000000000000866992070000009002335349439           201208272012081700000000054380000123695000000000133078000000000000000000000000009383050000000000  3020120917   01          2                                                                                   3109002335346144604097200019                                                  N                     01321  0000000        000004
12001951865000104FOUR FACTORING FOMENTO MERCANT                                        000000000010000000000000000000000000000088012243000000987637000166            201209142012091000000000054560000310000000000000313099000000000000000000000000003099050000000000  3020120917   01          2                                                                                   3044049876373222001052451139                                                  N                     01321  0000000        000005
12001951865000104FOUR FACTORING FOMENTO M LTDA                                         000000004220000000000000000000000000000085607115000000000000000174            201209132012073000000000054550000310000000000000314131000000000000000000000000004131050000000000  3020120917   01          2                                                                                   3702000009214741498829499119                                                  N                     01321  0000000        000006
12002503185000182ANDAIMES MAQUINAS BIG LTDA EPP                                        0000000034100000000000000000000000000000874070480000002313590765101           201209142012082000000000054560000016500000000000016863000000000000000000000000000363050000000000  3020120917   01          2                                                                                   3112313590765650303800900019                                                  N                     01321  0000000        000007
12002503185000182ANDAIMES MAQUINAS BIG LTDA EPP                                        000000003410000000000000000000000000000086282613000000228719913011660         201208302012081000000000054410000012000000000000012384000000000000000000000000000384050000000000  3020120917   01          2                                                                                   3112287199130650303800900039                                                  N                     01321  0000000        000008
12003489596000123BEND FLEX I COMERCIO LTDA                                             000000003410000000000000000000000000000086859265000000792419599608            201209122012082300000000054540000695250000000000715990000000000000000000000000020740050000000000  3020120917   01          2                                                                                   3157924195999157734445800089                                                  N                     01321  0000000        000009
12003489596000123BEND FLEX INDUSTRIA E COMERCIO                                        000000001040000000000000000000000000000088266839000000794646800621            201210022012091100000000054740000164000000000000164000000000000000000000000000000000050000000000  3020121002   01FS        1                                                                                   3314279464611558700000019929                                                  N                     01321  0000000        000010
12003803271000173ATUAL SP C DE FERRAMENTAS LTDA                                        000000003410000000000000000000000000000086373180000000791271229007062         201209112012081400000000054530000027365000000000028510000000000000000000000000001145050000000000  3020120917   01          2                                                                                   3157912712293013905550300019                                                  N                     01321  0000000        000011
12004882911000140F C BRITO CARTUCHOS ME                                                00000000033000000000000000000000000000008819135200000080000000012694 A21      201209122012081500000000054540000037600000000000039226000000000000000000000000001626050000000000  3020120917   01          2                                                                                   3944753720000000093580010139                                                  N                     01321  0000000        000012
12005880850000145NEDERMAN BRASIL COM PROD EX LT                                        000000003410000000000000000000000000000086373178000000614350956002763 A       201209122012081400000000054540000289674000000000292524000000000000000000000000002850050000000000  3020120917   01          2                                                                                   3156143509568160829000100039                                                  N                     01321  0000000        000013
12006000195000156M B A MERCANTIL BRASILEIRA DE                                         0000000000100000000000000000000000000000831386970000007752250000008615B03     201209122012062000000000054540000498323000000000502478000000000000000000000000004155050000000000  3020120917   01          2                                                                                   3043837752253333000105251139                                                  N                     01321  0000000        000014
12006000195000156M B A MERCANTIL BRASILEIRA DE                                         0000000000100000000000000000000000000000831387010000007752220000008614B03     201209112012062000000000054530000949922000000000959420000000000000000000000000009498050000000000  3020120917   01          2                                                                                   3043837752223333000105251159                                                  N                     01321  0000000        000015
12006000195000156M B A MERCANTIL BRASILEIRA DE                                         0000000000100000000000000000000000000000831387060000007752280000008616B03     201209132012062000000000054550000572227000000000576043000000000000000000000000003816050000000000  3020120917   01          2                                                                                   3043837752283333000105251199                                                  N                     01321  0000000        000016
12006000195000156M B A MERCANTIL BRASILEIRA DE                                         0000000000100000000000000000000000000000834820220000002571540000008653B03     201209132012062600000000054550000276788000000000278632000000000000000000000000001844050000000000  3020120917   01          2                                                                                   3043852571543333000105251119                                                  N                     01321  0000000        000017
12006000195000156M B A MERCANTIL BRASILEIRA DE                                         0000000000100000000000000000000000000000834820270000002571570000008654B03     201209142012062600000000054560000677504000000000680891000000000000000000000000003387050000000000  3020120917   01          2                                                                                   3043852571573333000105251119                                                  N                     01321  0000000        000018
12006000195000156M B A MERCANTIL BRASILEIRA DE                                         0000000023700118P00000002130599 00000000868592680020223600000010009229B01     201209132012081600000000054550000253414000000000255102000000000000000000000000001688050000000000  3020120917   01          2  RUA JUNO  533                                                                    3                         000000000000000                                     N                     00598  0000000        000019
12006000195000156M B A MERCANTIL BRASILEIRA DE                                         0000000023700118P00000002130599 00000000848180730020220100000040008872B02     201209112012071700000000054530000112773000000000113901000000000000000000000000001128050000000000  3020120917   01          2  RUA JUNO  533                                                                    3                         000000000000000                                     N                     00598  0000000        000020
12006000195000156M B A MERCANTIL BRASILEIRA DE                                         0000000023700118P00000002130599 00000000848180760020220100000330008905B02     201209132012071900000000054550000155301000000000156337000000000000000000000000001036050000000000  3020120917   01          2  RUA JUNO  533                                                                    3                         000000000000000                                     N                     00598  0000000        000021
12006000195000156M B A MERCANTIL BRASILEIRA DE                                         0000000023700118P00000002130599 00000000865388220020222900000430009203B01     201209122012081500000000054540000396727000000000400032000000000000000000000000003305050000000000  3020120917   01          2  RUA JUNO  533                                                                    3                         000000000000000                                     N                     00598  0000000        000022
12006000195000156M B A MERCANTIL BRASILEIRA DE                                         0000000023700118P00000002130599 00000000865388250020222900000460009204B01     201209132012081500000000054550000146386000000000147362000000000000000000000000000976050000000000  3020120917   01          2  RUA JUNO  533                                                                    3                         000000000000000                                     N                     00598  0000000        000023
12006000195000156M B A MERCANTIL BRASILEIRA DE                                         0000000023700118P00000002130599 00000000865388280020222900000490009205B01     201209142012081500000000054560000401309000000000403316000000000000000000000000002007050000000000  3020120917   01          2  RUA JUNO  533                                                                    3                         000000000000000                                     N                     00598  0000000        000024
12006000195000156M B A MERCANTIL BRASILEIRA DE                                         0000000023700118P00000002128292 00000000882668440090217000000060008573B03     201209072012061500000000054490000927528000000000927528000000000000000000000000000000050000000000  3020120917   01FS        1  RUA JUNO  533                                                                    3                         000000000000000                                     N                     00598  0000000        000025
12006000195000156M B A MERCANTIL BRASILEIRA DE                                         0000000023700118P00000002128292 00000000882668450090217000000120008589B03     201209072012061500000000054490000336000000000000336000000000000000000000000000000000050000000000  3020120917   01FS        1  RUA JUNO  533                                                                    3                         000000000000000                                     N                     00598  0000000        000026
12006000195000156M B A MERCANTIL BRASILEIRA DE                                         0000000023700118P00000002128292 00000000882668460090217000000180008590B03     201209072012061500000000054490000365507000000000365507000000000000000000000000000000050000000000  3020120917   01FS        1  RUA JUNO  533                                                                    3                         000000000000000                                     N                     00598  0000000        000027
12006000195000156M B A MERCANTIL BRASILEIRA DE                                         0000000023700118P00000002128292 00000000882668470090217000000240008592B03     201209072012061500000000054490000166992000000000166992000000000000000000000000000000050000000000  3020120917   01FS        1  RUA JUNO  533                                                                    3                         000000000000000                                     N                     00598  0000000        000028
12006000195000156M B A MERCANTIL BRASILEIRA DE                                         0000000023700118P00000002128292 00000000882668480090219900000700008857B02     201209072012071300000000054490000827402000000000827402000000000000000000000000000000050000000000  3020120917   01FS        1  RUA JUNO  533                                                                    3                         000000000000000                                     N                     00598  0000000        000029
12006894969000130TERRADIESEL COM DE PCS P CAMIN                                        00000000341000000000000000000000000000008653881500000023020935013969A         201209072012081500000000054490000017800000000000018870000000000000000000000000001070050000000000  3020120917   01          2                                                                                   3112302093508006500924300049                                                  N                     01321  0000000        000030
12008508119000181DINARI FOMENTO MERCANTIL LTDA                                         0000000023702499600000000178306 0000000086282616002022260000004206 B          201209242012081000000000054660000170000000000000170000000000000000000000000000005610050000000000  3020120924   01          2  RUA JUNO  533 VL N MANCHESTER SAO PAULO PANKRO LOGISTICA E TRANSPORTES LTDA EPP  300000000000000000141500  002269980000158                                     N                     00598  0000000        000031
12008709272000177MULTIELETRICA C M E LTDA                                              000000003410000000000000000000000000000085771860000000900002207000002535D     201209112012072400000000054530000188886000000000202256000000000000000000000000013370050000000000  3020120917   01          2                                                                                   3109000022073075798525400059                                                  N                     01321  0000000        000032
12009137729000189MULTI RECEBIVEIS II FUNDO DE I                                        0000000023703369300000000044253 000000008685926300902236000000713649 1        201209132012081600000000054550000114374000000000115898000000000000000000000000001524050000000000  3020120917   01          2  R TAMANDE 1410                          ANHEMBI INDUSTRIA DE CAIXAS DE PAPELAO O 3                         043292101000196                                     N                     00598  0000000        000033
12009419898000101LUSITANO INDUSTRIA C E P LTDA                                         00000000341000000000000000000000000000008653881900000090000757001 10137 1     201209122012081500000000054540000035136000000000035721000000000000000000000000000585050000000000  3020120917   01          2                                                                                   3109000075708001160072300089                                                  N                     01321  0000000        000034
12012006058000121WEG TINTAS LTDA                                                       0000000023702727800000000001309 00000000842436830090219200000850015068802     201209072012070900000000054490000306569000000000310649000000000000000000000000004080050000000000  3020120917   01          2  R JUNO  533                                                                      3                         000000000000000                                     N                     00598  0000000        000035
12012006058000121WEG TINTAS LTDA                                                       0000000023702727800000000001309 00000000854049540090221200001000015513001     201209102012072700000000054520000459854000000000464145000000000000000000000000004291050000000000  3020120917   01          2  R JUNO  533                                                                      3                         000000000000000                                     N                     00598  0000000        000036
12012006058000121WEG TINTAS LTDA                                                       0000000023702727800000000001309 00000000856071250090221400000820015587301     201209142012073100000000054560000459854000000000461693000000000000000000000000001839050000000000  3020120917   01          2  R JUNO  533                                                                      3                         000000000000000                                     N                     00598  0000000        000037
12012006058000121WEG TINTAS LTDA                                                       0000000023702727800000000001309 00000000833069160090217700001090014685603     201209052012062200000000054470000459992000000000467348000000000000000000000000007356050000000000  3020120917   01          2  R JUNO  533                                                                      3                         000000000000000                                     N                     00598  0000000        000038
12012006058000121WEG TINTAS LTDA                                                       0000000023702727800000000001309 00000000834820640090217900000760014773903     201209092012062600000000054510000306662000000000309926000000000000000000000000003264050000000000  3020120917   01          2  R JUNO  533                                                                      3                         000000000000000                                     N                     00598  0000000        000039
12012006058000121WEG TINTAS LTDA                                                       0000000023702727800000000001309 00000000844839230090219500000720015168702     201209102012071200000000054520000306569000000000309425000000000000000000000000002856050000000000  3020120917   01          2  R JUNO  533                                                                      3                         000000000000000                                     N                     00598  0000000        000040
12012006058000121WEG TINTAS LTDA                                                       0000000023702727800000000001309 00000000882668410090225800000740016626901     201210282012091300000000055000000459854000000000459854000000000000000000000000000000050000000000  3020121029   01FS        1  R JUNO  533                                                                      3                         000000000000000                                     N                     00598  0000000        000041
12012006058000121WEG TINTAS LTDA                                                       0000000023702727800000000001309 00000000882668420090225800000750016626902     201211122012091300000000055150000459854000000000459854000000000000000000000000000000050000000000  3020121112   01FS        1  R JUNO  533                                                                      3                         000000000000000                                     N                     00598  0000000        000042
12012006058000121WEG TINTAS LTDA                                                       0000000023702727800000000001309 00000000882668430090225800000760016626903     201211272012091300000000055300000459992000000000459992000000000000000000000000000000050000000000  3020121127   01FS        1  R JUNO  533                                                                      3                         000000000000000                                     N                     00598  0000000        000043
12012113201000184HYPER COMERCIO D N L LTDA                                             0000000034100000000000000000000000000000878205880000009000296850527221        201209132012081600000000054550000034578000000000035038000000000000000000000000000460050000000000  3020120917   01          2                                                                                   3109000296859056888568500049                                                  N                     01321  0000000        000044
12033325184001786ALSCO TOALHEIRO BRASIL                                                0000000023703396000000001490850 0000000087168277009000002698905VM26989        201209132012082400000000054550000040130000000000040290000000000000000000000000000160050000000000  3020120917   01          2  RUA  GANGES 528                                                                  3                         000000000000000                                     N                     00598  0000000        000045
12035820448000136WHITE MARTINS GASES INDUSTRIAI                                        0000000023700026400000003937925 0000000086699210009022330000393368126 001     201209142012081800000000054560000162300000000000166194000000000000000000000000003894050000000000  3020120917   01          2  RUA GANGES  528                                                                  3                         000000000000000                                     N                     00598  0000000        000046
12035820448000136WHITE MARTINS GASES INDUSTRIAI                                        0000000023700026400000003937925 0000000085861656009022190000404361579 001     201208312012080400000000054420000162300000000000169218000000000000000000000000006918050000000000  3020120917   01          2  RUA GANGES  528                                                                  3                         000000000000000                                     N                     00598  0000000        000047
12035820448000136WHITE MARTINS GASES INDUSTRIAI                                        0000000023700026400000003937925 0000000086196029009022230001562364184 001     201209062012081000000000054480000113610000000000117543000000000000000000000000003933050000000000  3020120917   01          2  RUA GANGES  528                                                                  3                         000000000000000                                     N                     00598  0000000        000048
12035820448000136WHITE MARTINS GASES INDUSTRIAI                                        0000000023700026400000003937925 0000000086538817009022290001168366855 001     201209112012081600000000054530000121725000000000125131000000000000000000000000003406050000000000  3020120917   01          2  RUA GANGES  528                                                                  3                         000000000000000                                     N                     00598  0000000        000049
12035820448000136WHITE MARTINS GASES INDUSTRIAI                                        0000000023700026400000003937925 0000000088266840009022580000485380402 001     201210112012091400000000054830000028403000000000028403000000000000000000000000000000050000000000  3020121011   01FS        1  RUA GANGES  528                                                                  3                         000000000000000                                     N                     00598  0000000        000050
12042956441000101SOLUCOES ACO USIMINAS                                                 0000000034100000000000000000000000000000826558330000002112172770016459703     201209042012061100000000054460000500177000000000509177000000000000000000000000010000050000000000  3020120913   06          3                                                                                   3112112172773293807258000069                                                  N                     01321  0000000        000051
12042956441000101SOLUCOES ACO USIMINAS                                                 0000000034100000000000000000000000000000848180700000002220192900017041002     201209112012071700000000054530000155433000000000157299000000000000000000000000001866050000000000  3020120917   01          2                                                                                   3112220192903293807258000029                                                  N                     01321  0000000        000052
12042956441000101SOLUCOES ACO USIMINAS                                                 0000000034100000000000000000000000000000856906420000002262886290017266301     201208282012073000000000054390000145069000000000150869000000000000000000000000005800050000000000  3020120917   01          2                                                                                   3112262886297293807258000099                                                  N                     01321  0000000        000053
12042956441000101SOLUCOES ACO USIMINAS                                                 0000000034100000000000000000000000000000848180710000002220192910017041202     201209112012071700000000054530000205421000000000207887000000000000000000000000002466050000000000  3020120917   01          2                                                                                   3112220192911293807258000019                                                  N                     01321  0000000        000054
12042956441000101SOLUCOES ACO USIMINAS                                                 0000000034100000000000000000000000000000855028660000002254329280017200301     201208232012072600000000054340000156943000000000164793000000000000000000000000007850050000000000  3020120917   01          2                                                                                   3112254329280293807258000019                                                  N                     01321  0000000        000055
12042956441000101SOLUCOES ACO USIMINAS                                                 0000000034100000000000000000000000000000825740790000002106974460016399003     201208292012060600000000054400000203068000000000210782000000000000000000000000007714050000000000  3020120917   01          2                                                                                   3112106974465293807258000089                                                  N                     01321  0000000        000056
12042956441000101SOLUCOES ACO USIMINAS                                                 0000000034100000000000000000000000000000825740800000002106974470016399203     201208292012060600000000054400000450363000000000467482000000000000000000000000017119050000000000  3020120917   01          2                                                                                   3112106974473293807258000039                                                  N                     01321  0000000        000057
12042956441000101SOLUCOES ACO USIMINAS                                                 0000000034100000000000000000000000000000825740810000002106974480016399403     201208292012060600000000054400000431213000000000447591000000000000000000000000016378050000000000  3020120917   01          2                                                                                   3112106974481293807258000099                                                  N                     01321  0000000        000058
12042956441000101SOLUCOES ACO USIMINAS                                                 0000000034100000000000000000000000000000850740460000002233586800017127201     201208202012072000000000054310000137881000000000145609000000000000000000000000007728050000000000  3020120917   01          2                                                                                   3112233586802293807258000019                                                  N                     01321  0000000        000059
12042956441000101SOLUCOES ACO USIMINAS                                                 0000000034100000000000000000000000000000850740470000002233586810017101002     201209142012071900000000054560000732575000000000736970000000000000000000000000004395050000000000  3020120917   01          2                                                                                   3112233586810293807258000019                                                  N                     01321  0000000        000060
12042956441000101SOLUCOES ACO USIMINAS                                                 0000000034100000000000000000000000000000850740480000002233586820017101202     201209142012071900000000054560000144634000000000145501000000000000000000000000000867050000000000  3020120917   01          2                                                                                   3112233586828293807258000029                                                  N                     01321  0000000        000061
12042956441000101SOLUCOES ACO USIMINAS                                                 0000000034100000000000000000000000000000853154910000002246247000017196701     201208232012072500000000054340000234911000000000246661000000000000000000000000011750050000000000  3020120917   01          2                                                                                   3112246247004293807258000019                                                  N                     01321  0000000        000062
12042956441000101SOLUCOES ACO USIMINAS                                                 0000000034100000000000000000000000000000826558270000002112172740016458803     201209042012061100000000054460000231416000000000237435000000000000000000000000006019050000000000  3020120917   01          2                                                                                   3112112172740293807258000059                                                  N                     01321  0000000        000063
12042956441000101SOLUCOES ACO USIMINAS                                                 0000000034100000000000000000000000000000826558320000002112172760016459403     201209042012061100000000054460000747525000000000766960000000000000000000000000019435050000000000  3020120917   01          2                                                                                   3112112172765293807258000089                                                  N                     01321  0000000        000064
12042956441000101SOLUCOES ACO USIMINAS                                                 0000000034100000000000000000000000000000840313020000002181699190016814402     201208272012070200000000054380000968423000000001009100000000000000000000000000040677050000000000  3020120917   01          2                                                                                   3112181699193293807258000019                                                  N                     01321  0000000        000065
12042956441000101SOLUCOES ACO USIMINAS                                                 0000000034100000000000000000000000000000840313030000002181699200016827102     201208272012070200000000054380000703010000000000732536000000000000000000000000029526050000000000  3020120917   01          2                                                                                   3112181699201293807258000019                                                  N                     01321  0000000        000066
12042956441000101SOLUCOES ACO USIMINAS                                                 0000000034100000000000000000000000000000840313060000002181699210016829702     201208272012070200000000054380000643712000000000670739000000000000000000000000027027050000000000  3020120917   01          2                                                                                   3112181699219293807258000089                                                  N                     01321  0000000        000067
12042956441000101SOLUCOES ACO USIMINAS                                                 0000000034100000000000000000000000000000840313070000002181699220016829802     201208272012070200000000054380000322528000000000336073000000000000000000000000013545050000000000  3020120917   01          2                                                                                   3112181699227293807258000029                                                  N                     01321  0000000        000068
12042956441000101SOLUCOES ACO USIMINAS                                                 0000000034100000000000000000000000000000841725460000002188168540016859402     201208292012070400000000054400000164456000000000170707000000000000000000000000006251050000000000  3020120917   01          2                                                                                   3112188168549293807258000059                                                  N                     01321  0000000        000069
12042956441000101SOLUCOES ACO USIMINAS                                                 0000000034100000000000000000000000000000841725470000002188168550016859502     201208292012070400000000054400000234337000000000243248000000000000000000000000008911050000000000  3020120917   01          2                                                                                   3112188168556293807258000089                                                  N                     01321  0000000        000070
12042956441000101SOLUCOES ACO USIMINAS                                                 0000000034100000000000000000000000000000841725480000002188168560016884802     201208302012070500000000054410000120612000000000124950000000000000000000000000004338050000000000  3020120917   01          2                                                                                   3112188168564293807258000019                                                  N                     01321  0000000        000071
12042956441000101SOLUCOES ACO USIMINAS                                                 0000000034100000000000000000000000000000841725490000002188168570016884902     201208302012070500000000054410000531835000000000550987000000000000000000000000019152050000000000  3020120917   01          2                                                                                   3112188168572293807258000019                                                  N                     01321  0000000        000072
12042956441000101SOLUCOES ACO USIMINAS                                                 0000000034100000000000000000000000000000841725500000002188168580016885102     201208302012070500000000054410000219722000000000227624000000000000000000000000007902050000000000  3020120917   01          2                                                                                   3112188168580293807258000049                                                  N                     01321  0000000        000073
12042956441000101SOLUCOES ACO USIMINAS                                                 0000000034100000000000000000000000000000847452070000002216130350005922202     201209102012071600000000054520000172071000000000174479000000000000000000000000002408050000000000  3020120917   01          2                                                                                   3112216130354293807258000049                                                  N                     01321  0000000        000074
12042956441000101SOLUCOES ACO USIMINAS                                                 0000000034100000000000000000000000000000847452100000002216130340017012402     201209102012071500000000054520000147428000000000149493000000000000000000000000002065050000000000  3020120917   01          2                                                                                   3112216130347293807258000059                                                  N                     01321  0000000        000075
12042956441000101SOLUCOES ACO USIMINAS                                                 0000000034100000000000000000000000000000858616350000002271409710017319501     201208302012080200000000054410000197439000000000204549000000000000000000000000007110050000000000  3020120917   01          2                                                                                   3112271409719293807258000049                                                  N                     01321  0000000        000076
12042956441000101SOLUCOES ACO USIMINAS                                                 0000000034100000000000000000000000000000858616360000002271409720017319601     201208302012080200000000054410000197103000000000204195000000000000000000000000007092050000000000  3020120917   01          2                                                                                   3112271409727293807258000019                                                  N                     01321  0000000        000077
12042956441000101SOLUCOES ACO USIMINAS                                                 0000000034100000000000000000000000000000858616370000002271409730017319701     201208302012080200000000054410000197271000000000204381000000000000000000000000007110050000000000  3020120917   01          2                                                                                   3112271409735293807258000019                                                  N                     01321  0000000        000078
12042956441000101SOLUCOES ACO USIMINAS                                                 0000000034100000000000000000000000000000858616380000002271409740017319801     201208302012080200000000054410000194583000000000201585000000000000000000000000007002050000000000  3020120917   01          2                                                                                   3112271409743293807258000019                                                  N                     01321  0000000        000079
12042956441000101SOLUCOES ACO USIMINAS                                                 0000000034100000000000000000000000000000826558340000002112172780016459803     201209042012061100000000054460000155721000000000159764000000000000000000000000004043050000000000  3020120917   01          2                                                                                   3112112172781293807258000099                                                  N                     01321  0000000        000080
12042956441000101SOLUCOES ACO USIMINAS                                                 0000000034100000000000000000000000000000826558360000002112172750016459203     201209042012061100000000054460000123455000000000126666000000000000000000000000003211050000000000  3020120917   01          2                                                                                   3112112172757293807258000049                                                  N                     01321  0000000        000081
12042956441000101SOLUCOES ACO USIMINAS                                                 0000000034100000000000000000000000000000858616340000002271409700017319401     201208302012080200000000054410000178956000000000185400000000000000000000000000006444050000000000  3020120917   01          2                                                                                   3112271409701293807258000089                                                  N                     01321  0000000        000082
12042956441000101SOLUCOES ACO USIMINAS                                                 0000000034100000000000000000000000000000858616290000002271409670017315101     201208302012080200000000054410000579548000000000600410000000000000000000000000020862050000000000  3020120917   01          2                                                                                   3112271409677293807258000099                                                  N                     01321  0000000        000083
12042956441000101SOLUCOES ACO USIMINAS                                                 0000000034100000000000000000000000000000858616320000002271409680017316001     201208302012080200000000054410000929730000000000963192000000000000000000000000033462050000000000  3020120917   01          2                                                                                   3112271409685293807258000039                                                  N                     01321  0000000        000084
12042956441000101SOLUCOES ACO USIMINAS                                                 0000000034100000000000000000000000000000858616330000002271409690017319301     201208302012080200000000054410000981820000000001017172000000000000000000000000035352050000000000  3020120917   01          2                                                                                   3112271409693293807258000039                                                  N                     01321  0000000        000085
12042956441000101SOLUCOES ACO USIMINAS                                                 0000000034100000000000000000000000000000819545020000002078930840016239503     201208222012052900000000054330001126072000000001184624000000000000000000000000058552050000000000  3020120917   01          2                                                                                   3112078930842293807258000019                                                  N                     01321  0000000        000086
12042956441000101SOLUCOES ACO USIMINAS                                                 0000000034100000000000000000000000000000856906410000002262886280017266201     201208282012073000000000054390000119472000000000124252000000000000000000000000004780050000000000  3020120917   01          2                                                                                   3112262886289293807258000089                                                  N                     01321  0000000        000087
12042956441000101SOLUCOES ACO USIMINAS                                                 0000000034100000000000000000000000000000824061850000002100925420016380503     201208292012060500000000054400000215523000000000223712000000000000000000000000008189050000000000  3020120917   01          2                                                                                   3112100925422293807258000039                                                  N                     01321  0000000        000088
12042956441000101SOLUCOES ACO USIMINAS                                                 0000000034100000000000000000000000000000824061860000002100925430016380703     201208292012060500000000054400000216699000000000224926000000000000000000000000008227050000000000  3020120917   01          2                                                                                   3112100925430293807258000079                                                  N                     01321  0000000        000089
12042956441000101SOLUCOES ACO USIMINAS                                                 0000000034100000000000000000000000000000841725510000002188168590016891202     201208302012070500000000054410001132543000000001173313000000000000000000000000040770050000000000  3020120917   01          2                                                                                   3112188168598293807258000019                                                  N                     01321  0000000        000090
12042956441000101SOLUCOES ACO USIMINAS                                                 0000000034100000000000000000000000000000841725520000002188168600016891402     201208302012070500000000054410000795232000000000823852000000000000000000000000028620050000000000  3020120917   01          2                                                                                   3112188168606293807258000019                                                  N                     01321  0000000        000091
12042956441000101SOLUCOES ACO USIMINAS                                                 0000000034100000000000000000000000000000841725530000002188168610016891502     201208302012070500000000054410001128343000000001168969000000000000000000000000040626050000000000  3020120917   01          2                                                                                   3112188168614293807258000089                                                  N                     01321  0000000        000092
12042956441000101SOLUCOES ACO USIMINAS                                                 0000000034100000000000000000000000000000844063830000002198870030016923302     201209042012071000000000054460000442972000000000454490000000000000000000000000011518050000000000  3020120917   01          2                                                                                   3112198870035293807258000059                                                  N                     01321  0000000        000093
12042956441000101SOLUCOES ACO USIMINAS                                                 0000000034100000000000000000000000000000861207220000002282166980017385801     201209042012080700000000054460000715010000000000733600000000000000000000000000018590050000000000  3020120917   01          2                                                                                   3112282166985293807258000089                                                  N                     01321  0000000        000094
12042956441000101SOLUCOES ACO USIMINAS                                                 0000000034100000000000000000000000000000846595700000002210880280016980502     201209102012071200000000054520000156071000000000158255000000000000000000000000002184050000000000  3020120917   01          2                                                                                   3112210880285293807258000039                                                  N                     01321  0000000        000095
12042956441000101SOLUCOES ACO USIMINAS                                                 0000000034100000000000000000000000000000846595710000002210880290016980602     201209102012071200000000054520000426094000000000432058000000000000000000000000005964050000000000  3020120917   01          2                                                                                   3112210880293293807258000019                                                  N                     01321  0000000        000096
12043217850000159IOB INFORMACOES OBJ  PUBL JURI                                        0000000023702374400000002958600 000000008540495200902212000099001440820E4     201208202012073000000000054310000072850000000000074979000000000000000000000000002129050000000000  3020120917   01          2  GANGES 528 VL NOVA MANCHESTER                                                    3                         000000000000000                                     N                     00598  0000000        000097
12044098788000196MAIAMI COM E IMP DE ROLAMENTOS                                        0000000023700503700000000367516 0000000086699211009022330000001010061         201209072012081700000000054490000015000000000000015500000000000000000000000000000500050000000000  3020120917   01          2  RUA GANGES 528 VL CARRAO                                                         3                         000000000000000                                     N                     00598  0000000        000098
12047190731000100DE CASTRO LOUREIRO ENGENHARIA                                         00000000033000000000000000000000000000008826685200000010000000003026873 0     201210102012091200000000054820000947530000000000947530000000000000000000000000000000050000000000  3020121010   01FS        1                                                                                   3948430370000009553410020399                                                  N                     01321  0000000        000099
12047190731000100DE CASTRO LOUREIRO ENGENHARIA                                         00000000033000000000000000000000000000008826685400000036000000003026873 0     201212052012091200000000055380000947815000000000947815000000000000000000000000000000050000000000  3020121205   01FS        1                                                                                   3948430370000009553436020379                                                  N                     01321  0000000        000100
12047190731000100DE CASTRO LOUREIRO ENGENHARIA                                         00000000033000000000000000000000000000008826685300000028000000003026873 0     201211072012091200000000055100000947530000000000947530000000000000000000000000000000050000000000  3020121107   01FS        1                                                                                   3948430370000009553428020319                                                  N                     01321  0000000        000101
12048775225000146SEIKI IND COM E CONFECCOES LTD                                        000000003410000000000000000000000000000086615423000000230404780013963001      201209122012081500000000054540000052000000000000052390000000000000000000000000000390050000000000  3020120917   01          2                                                                                   3112304047809017444824100079                                                  N                     01321  0000000        000102
12051180370000199IGUAFER FERRO E ACO LTDA                                              0000000034100000000000000000000000000000852309100000002239389789443 B         201209022012071800000000054440000168275000000000172475000000000000000000000000004200050000000000  3020120917   01          2                                                                                   3112239389789077149484600089                                                  N                     01321  0000000        000103
12051180370000199IGUAFER FERRO E ACO LTDA                                              0000000034100000000000000000000000000000852309110000002239389799443 C         201209122012071800000000054540000168275000000000169675000000000000000000000000001400050000000000  3020120917   01          2                                                                                   3112239389797077149484600089                                                  N                     01321  0000000        000104
12051598472000129ELETRICA J SANTOS                                                     0000000023702451100000000000264 000000008586165500902219000005118310 01       201209102012080400000000054520000104146000000000106575000000000000000000000000002429050000000000  3020120917   01          2  R JUNO  533                                                                      300000000000000000141500  000000000000000                                     N                     00598  0000000        000105
12053585766000141MULTIACOS COM DE PRODUTOS TECN                                        0000000023703398700000000011290 00000000867622130020223400000290004411802     201209142012072000000000054560000585031000000000587956000000000000000000000000002925050000000000  3020120917   01          2  RUA JUNO  533                                                                    3                         000000000000000                                     N                     00598  0000000        000106
12053585766000141MULTIACOS INDUSTRIA E COMERCIO                                        0000000000100000000000000000000000000000864554240000008070290000004452001     201209072012081400000000054490000891244000000000891244000000000000000000000000000000050000000000  3020120910   05          3                                                                                   3043978070291912000139523159                                                  N                     01321  0000000        000107
12053585766000141MULTIACOS INDUSTRIA E COMERCIO                                        0000000000100000000000000000000000000000864554290000008070100000004437701     201209072012081400000000054490000149768000000000149768000000000000000000000000000000050000000000  3020120910   05          3                                                                                   3043978070101912000139523179                                                  N                     01321  0000000        000108
12053585766000141MULTIACOS INDUSTRIA E COMERCIO                                        0000000000100000000000000000000000000000864554330000008070300000004453001     201209072012081420120907054490000637974000000000149094000000000488880000000000000000050000000000  3020120910   05          3                                                                                   3043978070301912000139523119                                                  N                     01321  0000000        000109
12053585766000141MULTIACOS INDUSTRIA E COMERCIO                                        0000000000100000000000000000000000000000864554180000008069540000004375202     201209072012081400000000054490000311850000000000311850000000000000000000000000000000050000000000  3020120910   05          3                                                                                   3043978069541912000139523119                                                  N                     01321  0000000        000110
12054382510000108SETENTA IND E COM DE MADEIRAS                                         0000000034100000000000000000000000000000860403430000002277814474462 A         201209042012080700000000054460000191200000000000196088000000000000000000000000004888050000000000  3020120917   01          2                                                                                   3112277814474057049175300069                                                  N                     01321  0000000        000111
12056667629000144COMERCIAL BERENELI LTDA                                               000000000330000000000000000000000000000086812637000000620000000NF  11160      201209122012081500000000054540000052520000000000053150000000000000000000000000000630050000000000  3020120917   01          2                                                                                   3946371510000000030562010469                                                  N                     01321  0000000        000112
12056993512000150CYKLOP DO BRASIL EMBALAGENS SA                                        0000000034100000000000000000000000000000878205080000002299329080132528        201209112012081400000000054530000083607000000000085449000000000000000000000000001842050000000000  3020120917   01          2                                                                                   3112299329089025786126000099                                                  N                     01321  0000000        000113
12056993900000131CIA METALURGICA PRADA                                                 0000000034100000000000000000000000000000848180630000002218222680025830002     201209112012071700000000054530000247673000000000250151000000000000000000000000002478050000000000  3020120917   01          2                                                                                   3112218222688293800573900059                                                  N                     01321  0000000        000114
12056993900000131CIA METALURGICA PRADA                                                 0000000034100000000000000000000000000000848180640000002218222690025830102     201209112012071700000000054530000207402000000000209478000000000000000000000000002076050000000000  3020120917   01          2                                                                                   3112218222696293800573900039                                                  N                     01321  0000000        000115
12056993900000131CIA METALURGICA PRADA                                                 0000000034100000000000000000000000000000848180620000002218222670025829902     201209112012071700000000054530000498118000000000503098000000000000000000000000004980050000000000  3020120917   01          2                                                                                   3112218222670293800573900029                                                  N                     01321  0000000        000116
12056993900000131CIA METALURGICA PRADA                                                 0000000034100000000000000000000000000000844839000000002201181880025629402     201209052012071100000000054470000249372000000000254364000000000000000000000000004992050000000000  3020120917   01          2                                                                                   3112201181883293800573900019                                                  N                     01321  0000000        000117
12056993900000131CIA METALURGICA PRADA                                                 0000000034100000000000000000000000000000824820100000002102181160024711603     201208292012060600000000054400000833146000000000859537000000000000000000000000026391050000000000  3020120917   01          2                                                                                   3112102181164293800573900039                                                  N                     01321  0000000        000118
12056993900000131CIA METALURGICA PRADA                                                 0000000034100000000000000000000000000000844839010000002201181890025635302     201209052012071100000000054470000406842000000000414978000000000000000000000000008136050000000000  3020120917   01          2                                                                                   3112201181891293800573900019                                                  N                     01321  0000000        000119
12056993900000131CIA METALURGICA PRADA                                                 0000000034100000000000000000000000000000844839020000002201181900025635402     201209052012071100000000054470000208689000000000212865000000000000000000000000004176050000000000  3020120917   01          2                                                                                   3112201181909293800573900069                                                  N                     01321  0000000        000120
12056993900000131CIA METALURGICA PRADA                                                 0000000034100000000000000000000000000000844839030000002201181910025635502     201209052012071100000000054470000164780000000000168080000000000000000000000000003300050000000000  3020120917   01          2                                                                                   3112201181917293800573900029                                                  N                     01321  0000000        000121
12056993900000131CIA METALURGICA PRADA                                                 0000000034100000000000000000000000000000820562300000002080193680024478203     201208222012053000000000054330000113250000000000118164000000000000000000000000004914050000000000  3020120917   01          2                                                                                   3112080193686293800573900049                                                  N                     01321  0000000        000122
12056993900000131CIA METALURGICA PRADA                                                 0000000034100000000000000000000000000000820562310000002080193690024478303     201208222012053000000000054330000288295000000000300775000000000000000000000000012480050000000000  3020120917   01          2                                                                                   3112080193694293800573900029                                                  N                     01321  0000000        000123
12056993900000131CIA METALURGICA PRADA                                                 0000000034100000000000000000000000000000820562320000002080193700024499403     201208222012053000000000054330000597722000000000623618000000000000000000000000025896050000000000  3020120917   01          2                                                                                   3112080193702293800573900019                                                  N                     01321  0000000        000124
12056993900000131CIA METALURGICA PRADA                                                 0000000034100000000000000000000000000000820562330000002080193710024499503     201208222012053000000000054330000236585000000000246829000000000000000000000000010244050000000000  3020120917   01          2                                                                                   3112080193710293800573900019                                                  N                     01321  0000000        000125
12056993900000131CIA METALURGICA PRADA                                                 0000000034100000000000000000000000000000821491000000002084501930024572503     201208232012053100000000054340000217291000000000226341000000000000000000000000009050050000000000  3020120917   01          2                                                                                   3112084501934293800573900039                                                  N                     01321  0000000        000126
12056993900000131CIA METALURGICA PRADA                                                 0000000034100000000000000000000000000000822364950000002089776730024584703     201208242012060100000000054350000835797000000000869229000000000000000000000000033432050000000000  3020120917   01          2                                                                                   3112089776739293800573900019                                                  N                     01321  0000000        000127
12056993900000131CIA METALURGICA PRADA                                                 0000000034100000000000000000000000000000822364960000002089776740024585703     201208242012060100000000054350000393990000000000409758000000000000000000000000015768050000000000  3020120917   01          2                                                                                   3112089776747293800573900059                                                  N                     01321  0000000        000128
12056993900000131CIA METALURGICA PRADA                                                 0000000034100000000000000000000000000000823343300000002094231730024634103     201208272012060400000000054380000135902000000000140669000000000000000000000000004767050000000000  3020120917   01          2                                                                                   3112094231738293800573900079                                                  N                     01321  0000000        000129
12056993900000131CIA METALURGICA PRADA                                                 0000000034100000000000000000000000000000823343310000002094231740024634203     201208272012060400000000054380000247806000000000256479000000000000000000000000008673050000000000  3020120917   01          2                                                                                   3112094231746293800573900019                                                  N                     01321  0000000        000130
12056993900000131CIA METALURGICA PRADA                                                 0000000034100000000000000000000000000000823343330000002094231750024634603     201208272012060400000000054380000124715000000000129083000000000000000000000000004368050000000000  3020120917   01          2                                                                                   3112094231753293800573900039                                                  N                     01321  0000000        000131
12056993900000131CIA METALURGICA PRADA                                                 0000000034100000000000000000000000000000823343340000002094231760024634703     201208272012060400000000054380000508859000000000526667000000000000000000000000017808050000000000  3020120917   01          2                                                                                   3112094231761293800573900019                                                  N                     01321  0000000        000132
12056993900000131CIA METALURGICA PRADA                                                 0000000034100000000000000000000000000000855028550000002254750250026244301     201208272012072800000000054380000100986000000000104514000000000000000000000000003528050000000000  3020120917   01          2                                                                                   3112254750253293800573900099                                                  N                     01321  0000000        000133
12056993900000131CIA METALURGICA PRADA                                                 0000000034100000000000000000000000000000855028560000002254750260026244401     201208272012072800000000054380000084368000000000087329000000000000000000000000002961050000000000  3020120917   01          2                                                                                   3112254750261293800573900089                                                  N                     01321  0000000        000134
12056993900000131CIA METALURGICA PRADA                                                 0000000034100000000000000000000000000000837460360000002165934320025295402     201208232012062800000000054340000152797000000000159172000000000000000000000000006375050000000000  3020120917   01          2                                                                                   3112165934327293800573900029                                                  N                     01321  0000000        000135
12056993900000131CIA METALURGICA PRADA                                                 0000000034100000000000000000000000000000837460370000002165934330025295502     201208232012062800000000054340000339049000000000353174000000000000000000000000014125050000000000  3020120917   01          2                                                                                   3112165934335293800573900029                                                  N                     01321  0000000        000136
12056993900000131CIA METALURGICA PRADA                                                 0000000034100000000000000000000000000000837460420000002165934340025295602     201208232012062800000000054340000154164000000000160589000000000000000000000000006425050000000000  3020120917   01          2                                                                                   3112165934343293800573900099                                                  N                     01321  0000000        000137
12056993900000131CIA METALURGICA PRADA                                                 0000000034100000000000000000000000000000844839040000002201181920025635602     201209052012071100000000054470000339933000000000346737000000000000000000000000006804050000000000  3020120917   01          2                                                                                   3112201181925293800573900069                                                  N                     01321  0000000        000138
12056993900000131CIA METALURGICA PRADA                                                 0000000034100000000000000000000000000000844839050000002201181930025636202     201209052012071100000000054470000746213000000000761141000000000000000000000000014928050000000000  3020120917   01          2                                                                                   3112201181933293800573900019                                                  N                     01321  0000000        000139
12056993900000131CIA METALURGICA PRADA                                                 0000000034100000000000000000000000000000844839060000002201181940025644402     201209052012071100000000054470000779647000000000795235000000000000000000000000015588050000000000  3020120917   01          2                                                                                   3112201181941293800573900019                                                  N                     01321  0000000        000140
12056993900000131CIA METALURGICA PRADA                                                 0000000034100000000000000000000000000000844839140000002201181870025629302     201209052012071100000000054470000257906000000000263066000000000000000000000000005160050000000000  3020120917   01          2                                                                                   3112201181875293800573900069                                                  N                     01321  0000000        000141
12056993900000131CIA METALURGICA PRADA                                                 0000000034100000000000000000000000000000837460430000002165934350025295702     201208232012062800000000054340000139528000000000145353000000000000000000000000005825050000000000  3020120917   01          2                                                                                   3112165934350293800573900019                                                  N                     01321  0000000        000142
12056993900000131CIA METALURGICA PRADA                                                 0000000034100000000000000000000000000000838527910000002171340450025383502     201208272012063000000000054380000575128000000000595267000000000000000000000000020139050000000000  3020120917   01          2                                                                                   3112171340451293800573900039                                                  N                     01321  0000000        000143
12056993900000131CIA METALURGICA PRADA                                                 0000000034100000000000000000000000000000838527920000002171340460025384302     201208272012063000000000054380000454477000000000470374000000000000000000000000015897050000000000  3020120917   01          2                                                                                   3112171340469293800573900019                                                  N                     01321  0000000        000144
12056993900000131CIA METALURGICA PRADA                                                 0000000034100000000000000000000000000000840312930000002179478290025419302     201208282012070300000000054390000402178000000000415578000000000000000000000000013400050000000000  3020120917   01          2                                                                                   3112179478295293800573900089                                                  N                     01321  0000000        000145
12056993900000131CIA METALURGICA PRADA                                                 0000000034100000000000000000000000000000840312940000002179478300025419402     201208282012070300000000054390000322804000000000333564000000000000000000000000010760050000000000  3020120917   01          2                                                                                   3112179478303293800573900079                                                  N                     01321  0000000        000146
12057029431000106ATLAS COPCO BRASIL LTDA                                               0000000034100000000000000000000000000000861960280000002283943487000054090     201209062012080900000000054480000059490000000000059919000000000000000000000000000429050000000000  3020120917   01          2                                                                                   3112283943481293804111400069                                                  N                     01321  0000000        000147
12057029431000106ATLAS COPCO BRASIL LTDA                                               0000000034100000000000000000000000000000863731640000002292733057000054146     201209072012081000000000054490000081450000000000081990000000000000000000000000000540050000000000  3020120917   01          2                                                                                   3112292733055293804111400099                                                  N                     01321  0000000        000148
12057158057000130COMERCIAL ELETRICA PJ LTDA                                            0000000023703394400000000972983 00000000842436850090219200008900000305028     201208012012070400000000054120000079196000000000091557000000000000000000000000012361050000000000  3020120917   01          2  R TAMAINDE 1410                                                                  3                         000000000000000                                     N                     00598  0000000        000149
12057196081000164MINELE COMERCIO DE PARAFUSOS L                                        0000000023700298400000002047470 0000000086961109009022400000008538            201209102012082700000000054520000035981000000000037820000000000000000000000000001839050000000000  3020120917   01          2  R  GANGES  528   VL CARRAO                                                       3                         000000000000000                                     N                     00598  0000000        000150
12059659615000177DZ COMERCIO R E SERVICOS LTDA                                         000000003410000000000000000000000000000086699206000000900000270251            201209032012081500000000054450000060000000000000061200000000000000000000000000001320050000000000  3020120913   06          3                                                                                   3109000002706000314585100019                                                  N                     01321  0000000        000151
12061217188000119TELAS METALICAS TELMETAL LTDA                                         0000000000100000000000000000000000000000864554360000000056130005494 1 3       201209112012081400000000054530000008494000000000008563000000000000000000000000000092050000000000  3020120914   06          3                                                                                   3000000115031800000056131749                                                  N                     01321  0000000        000152
12061217188000119TELAS METALICAS TELMETAL LTDA                                         0000000000100000000000000000000000000000863731670000000056100005493 1 3       201209102012081300000000054520000017104000000000017196000000000000000000000000000138050000000000  3020120912   06          3                                                                                   3000000115031800000056101759                                                  N                     01321  0000000        000153
12061217188000119TELAS METALICAS TELMETAL LTDA                                         0000000000100000000000000000000000000000863731660000000056070005492 1 3       201209102012081300000000054520000043177000000000043407000000000000000000000000000345050000000000  3020120912   06          3                                                                                   3000000115031800000056071739                                                  N                     01321  0000000        000154
12061217188000119TELAS METALICAS TELMETAL LTDA                                         0000000000100000000000000000000000000000867622100000000056390005531 1 1       201209142012082000000000054560000032112000000000032370000000000000000000000000000258050000000000  3020120917   01          2                                                                                   3000000115031800000056391719                                                  N                     01321  0000000        000155
12061217188000119TELAS METALICAS TELMETAL LTDA                                         0000000000100000000000000000000000000000867622110000000056400005532 1 3       201209142012082000000000054560000074598000000000075195000000000000000000000000000597050000000000  3020120917   01          2                                                                                   3000000115031800000056401719                                                  N                     01321  0000000        000156
12061217188000119TELAS METALICAS TELMETAL LTDA                                         0000000003300000000000000000000000000000866154300000005100000005518 1 1       201209142012081600000000054560000094659000000000095415000000000000000000000000000756050000000000  3020120917   01          2                                                                                   3915435040000000047651020179                                                  N                     01321  0000000        000157
12062944582000111AS SOLUCOES COMERCIAL LTDA                                            00000000001000000000000000000000000000008669920400000032054500016090 A        201209132012081700000000054550000027500000000000027628000000000000000000000000000128050000000000  3020120917   01          2                                                                                   3529483205451190000690001719                                                  N                     01321  0000000        000158
12064952757000168WALMAC COM DE PROD QUIMICOS LT                                        0000000034100000000000000000000000000000860403460000002275821710020148        201208312012080300000000054420000219267000000000226594000000000000000000000000007327050000000000  3020120917   01          2                                                                                   3112275821711064807961400079                                                  N                     01321  0000000        000159
12064952757000168WALMAC COM DE PROD QUIMICOS LT                                        0000000034100000000000000000000000000000844063790000002196829090019356        201209042012071000000000054460000219267000000000223146000000000000000000000000004310050000000000  3020120913   06          3                                                                                   3112196829090064807961400019                                                  N                     01321  0000000        000160
12066841552000130R V SEG PATRIMONIAL S C LTDA                                          00000000341000000000000000000000000000008661542000000090002192721927          201209102012081000000000054520000483241000000000484368000000000000000000000000001127050000000000  3020120917   01          2                                                                                   3109000219278001838994000019                                                  N                     01321  0000000        000161
12066899790000105FABRICA ARTEF LATEX ESTRELA EP                                        00000000399000000000000000000000000000008364179600000000000000072894 003      201209122012062900000000054540000134540000000000134540000000000000000000000000000000050000000000  3020120912   06          3                                                                                   3175513061511125027292500129                                                  N                     01321  0000000        000162
12066899790000105FABRICA ARTEF LATEX ESTRELA EP                                        00000000399000000000000000000000000000008826684900000000000000078599 001      201210292012091400000000055010000130200000000000130200000000000000000000000000000000050000000000  3020121029   01FS        1                                                                                   3175991710101125027292500179                                                  N                     01321  0000000        000163
12066899790000105FABRICA ARTEF LATEX ESTRELA EP                                        00000000399000000000000000000000000000008826685000000000000000078599 002      201211132012091400000000055160000130200000000000130200000000000000000000000000000000050000000000  3020121113   01FS        1                                                                                   3175991710291125027292500159                                                  N                     01321  0000000        000164
12066899790000105FABRICA ARTEF LATEX ESTRELA EP                                        00000000399000000000000000000000000000008826685100000000000000078599 003      201211282012091400000000055310000130200000000000130200000000000000000000000000000000050000000000  3020121128   01FS        1                                                                                   3175991710371125027292500139                                                  N                     01321  0000000        000165
12069284248000128ISOCOAT TINTAS E VERNIZES LTDA                                        0000000034100000000000000000000000000000835620780000002157949160051735        201209102012062500000000054520000127358000000000128378000000000000000000000000001360050000000000  3020120913   06          3                                                                                   3112157949168077430121200029                                                  N                     01321  0000000        000166
12069284248000128ISOCOAT TINTAS E VERNIZES LTDA                                        0000000034100000000000000000000000000000856906380000002259392820053390        201209142012073100000000054560000055579000000000056023000000000000000000000000000444050000000000  3020120917   01          2                                                                                   3112259392820077430121200029                                                  N                     01321  0000000        000167
12069309706000136F N A TRANSPORTES LTDA                                                000000003410000000000000000000000000000086615421000000900010656059068         201208302012081500000000054410000079200000000000083952000000000000000000000000004752050000000000  3020120917   01          2                                                                                   3109000106565005486932600099                                                  N                     01321  0000000        000168
12081560047000101ACEVILLE TRANSPORTES LTDA                                             0000000023702232200000000013536 0000000087231863009022320259757    259757     201209142012090300000000054560000024000000000000024192000000000000000000000000000192050000000000  3020120917   01          2  RUA JUNO                                                                         3                         000000000000000                                     N                     00598  0000000        000169
12092693118000160BRADESCO SAUDE S A                                                    0000000023700448000000001533991 00000000847452120050100745572410000000000     201208202012071700000000054310000645861000000000657509000000000000000000000000011648050000000000  3020120917   01          2                                                                                   3                         000000000000000                                     N                     00598  0000000        000170
900017100000000054297607                                                                                                                                                                                                                                                                                                                                                                                                                                                                00598  0000000        000171
