0000147602043799295000110ALTAMIRA INDUSTRIA METALURGICA LT       202000000010520120815055444             1                                                                                                                                                                                                                                                                                                                                                                                                    000001
12000193273000108TECELAGEM ROMA LTDA                                                   0000000023700284400000000410977 000000008374605200900000001581216213   C      201208102012062900000000054210000124248000000000126113000000000000000000000000001865050000000000  3020120815   01          2  RUA TAMAINDE 1410  1410                                                          3                         000000000000000                                     N                     00598  0000000        000002
12002558199000101OMEGA TUBOS COMERCIAL LTDA                                            0000000003300000000000000000000000000000846595810000001400000000026380B01     201208142012071000000000054250000307260000000000308284000000000000000000000000001024050000000000  3020120815   01          2                                                                                   3947509770000000088714020389                                                  N                     01321  0000000        000003
12003803271000173ATUAL SP C DE FERRAMENTAS LTDA                                        000000003410000000000000000000000000000086373180000000791271229007062         201209112012081400000000054530000027365000000000027365000000000000000000000000000000050000000000  3020120911   01FS        1                                                                                   3157912712293013905550300019                                                  N                     01321  0000000        000004
12004666281000177PROCRED TECNOLOGIA E FOMENTO M                                        0000000023702017600000000220000 00000000848180780090220100000313773           201208102012071600000000054210000061714000000000062329000000000000000000000000000615050000000000  3020120815   01          2  RUA RUA TAMANDARE 1410                  FAST FIXX FIXADORES LTDA                 3                         004992631000195                                     N                     00598  0000000        000005
12005151518000140BELENUS DO BRASIL LTDA                                                0000000023703389800000000015091 0000000081465329009021440000994R126741832     201208142012051600000000054250000460800000000000462321000000000000000000000000001521050000000000  3020120815   01          2  RUA GANGES  528                                                                  3                         000000000000000                                     N                     00598  0000000        000006
12005880850000145NEDERMAN BRASIL COM PROD EX LT                                        000000003410000000000000000000000000000086373178000000614350956002763 A       201209092012081400000000054510000289674000000000289674000000000000000000000000000000050000000000  3020120910   01FS        1                                                                                   3156143509568160829000100079                                                  N                     01321  0000000        000007
12005880850000145NEDERMAN BRASIL COM PROD EX LT                                        000000003410000000000000000000000000000086373179000000614350957002763 B       201210092012081400000000054810000289674000000000289674000000000000000000000000000000050000000000  3020121009   01FS        1                                                                                   3156143509576160829000100069                                                  N                     01321  0000000        000008
12006000195000156M B A MERCANTIL BRASILEIRA DE                                         0000000023700118P00000002128292 00000000863731810090213700001160008262B03     201208072012051500000000054180000903026000000000903026000000000000000000000000000000050000000000  3020120815   01FS        1  RUA JUNO  533                                                                    3                         000000000000000                                     N                     00598  0000000        000009
12006000195000156M B A MERCANTIL BRASILEIRA DE                                         0000000023700118P00000002128292 00000000863731820090216400000110008514B2      201208072012061100000000054180000506300000000000506300000000000000000000000000000000050000000000  3020120815   01FS        1  RUA JUNO  533                                                                    3                         000000000000000                                     N                     00598  0000000        000010
12006000195000156M B A MERCANTIL BRASILEIRA DE                                         0000000023700118P00000002128292 00000000863731830090216400000180008513B02     201208062012061100000000054170000549460000000000549460000000000000000000000000000000050000000000  3020120815   01FS        1  RUA JUNO  533                                                                    3                         000000000000000                                     N                     00598  0000000        000011
12006000195000156M B A MERCANTIL BRASILEIRA DE                                         0000000023700118P00000002128292 00000000862826180090219200000140008794B01     201208032012070600000000054140001003532000000001003532000000000000000000000000000000050000000000  3020120814   06          3  RUA JUNO  533                                                                    3                         000000000000000                                     N                     00598  0000000        000012
12006000195000156M B A MERCANTIL BRASILEIRA DE                                         0000000023700118P00000002130599 00000000848180720020220100000030008872B01     201208142012071700000000054250000112772000000000112960000000000000000000000000000188050000000000  3020120815   01          2  RUA JUNO  533                                                                    3                         000000000000000                                     N                     00598  0000000        000013
12006000195000156M B A MERCANTIL BRASILEIRA DE                                         0000000000100000000000000000000000000000831387000000007752210000008614B02     201208142012062000000000054250000949923000000000951506000000000000000000000000001583050000000000  3020120815   01          2                                                                                   3043837752213333000105251179                                                  N                     01321  0000000        000014
12008455344000105SANCHES BRITO TRANSPORTES LTDA                                        000000000330000000000000000000000000000086373184000000430000000941            201208302012081400000000054410000506600000000000506600000000000000000000000000000000050000000000  3020120830   01FS        1                                                                                   3939443100000000000743010119                                                  N                     01321  0000000        000015
12009259079000144SAFRA COMERCIAL DE PAPEIS LTDA                                        00000000033000000000000000000000000000008465958000000006000000000126816       201208142012071600000000054250000021600000000000021708000000000000000000000000000108050000000000  3020120815   01          2                                                                                   3918361880000000322506010449                                                  N                     01321  0000000        000016
12009419898000101LUSITANO INDUSTRIA C E P LTDA                                         00000000341000000000000000000000000000008465957700000090000717501 9797 1      201208132012071600000000054240000037571000000000037821000000000000000000000000000250050000000000  3020120815   01          2                                                                                   3109000071756001160072300089                                                  N                     01321  0000000        000017
12009630445000120MARIANA DE QUEIROZ SILVA   GRA                                        0000000000100000000000000000000000000000844063780000000000610000648           201208072012071100000000054180000053350000000000053350000000000000000000000000000000050000000000  3020120807   05          3                                                                                   3000000167849100000000611759                                                  N                     01321  0000000        000018
12012006058000121WEG TINTAS LTDA                                                       0000000023702727800000000001309 00000000834820620090217900000740014773901     201208102012062600000000054210000306569000000000308201000000000000000000000000002040050000000000  3020120814   06          3  R JUNO  533                                                                      3                         000000000000000                                     N                     00598  0000000        000019
12012006058000121WEG TINTAS LTDA                                                       0000000023702727800000000001309 00000000827244620090216600000710014454802     201208122012061300000000054230000306569000000000307793000000000000000000000000001224050000000000  3020120815   01          2  R JUNO  533                                                                      3                         000000000000000                                     N                     00598  0000000        000020
12012006058000121WEG TINTAS LTDA                                                       0000000023702727800000000001309 00000000828904030090217000001020014515402     201208142012061500000000054250000459854000000000460467000000000000000000000000000613050000000000  3020120815   01          2  R JUNO  533                                                                      3                         000000000000000                                     N                     00598  0000000        000021
12017469701000177ARCELORMITTAL BRASIL S A                                              0000000034100000000000000000000000000000863731750000009323726660015781202     201209172012081300000000054590000298521000000000298521000000000000000000000000000000050000000000  3020120917   01FS        1                                                                                   3109323726667293802529900059                                                  N                     01321  0000000        000022
12017469701000177ARCELORMITTAL BRASIL S A                                              0000000034100000000000000000000000000000863731760000009323726670015781203     201209242012081300000000054660000298529000000000298529000000000000000000000000000000050000000000  3020120924   01FS        1                                                                                   3109323726675293802529900079                                                  N                     01321  0000000        000023
12017469701000177ARCELORMITTAL BRASIL S A                                              0000000034100000000000000000000000000000863731770000009323726650015781201     201209102012081300000000054520000298521000000000298521000000000000000000000000000000050000000000  3020120910   01FS        1                                                                                   3109323726659293802529900019                                                  N                     01321  0000000        000024
12035820448000136WHITE MARTINS GASES INDUSTRIAI                                        0000000023700026400000003937925 0000000086373165009022270006973365235 001     201209102012081400000000054520000017600000000000017600000000000000000000000000000000050000000000  3020120910   01FS        1  RUA GANGES  528                                                                  3                         000000000000000                                     N                     00598  0000000        000025
12035820448000136WHITE MARTINS GASES INDUSTRIAI                                        0000000023700026400000003937925 0000000084406386009021940001235350499 001     201208082012071200000000054190000162300000000000166842000000000000000000000000004758050000000000  3020120814   06          3  RUA GANGES  528                                                                  3                         000000000000000                                     N                     00598  0000000        000026
12035820448000136WHITE MARTINS GASES INDUSTRIAI                                        0000000023700026400000003937925 0000000084571470009021980000617351461 001     201208102012071400000000054210000085208000000000087482000000000000000000000000002274050000000000  3020120815   01          2  RUA GANGES  528                                                                  3                         000000000000000                                     N                     00598  0000000        000027
12035820448000136WHITE MARTINS GASES INDUSTRIAI                                        0000000023700026400000003937925 0000000084745213009022000001338352522 001     201208142012071800000000054250000081150000000000082881000000000000000000000000001731050000000000  3020120815   01          2  RUA GANGES  528                                                                  3                         000000000000000                                     N                     00598  0000000        000028
12042956441000101SOLUCOES ACO USIMINAS                                                 0000000034100000000000000000000000000000847452050000002216130320017012401     201208132012071500000000054240000147472000000000148062000000000000000000000000000590050000000000  3020120815   01          2                                                                                   3112216130321293807258000039                                                  N                     01321  0000000        000029
12042956441000101SOLUCOES ACO USIMINAS                                                 0000000034100000000000000000000000000000847452060000002216130330005922201     201208132012071600000000054240000172122000000000172810000000000000000000000000000688050000000000  3020120815   01          2                                                                                   3112216130339293807258000059                                                  N                     01321  0000000        000030
12042956441000101SOLUCOES ACO USIMINAS                                                 0000000034100000000000000000000000000000826558310000002112172690016458802     201208072012061100000000054180000231416000000000235120000000000000000000000000003704050000000000  3020120815   01          2                                                                                   3112112172690293807258000049                                                  N                     01321  0000000        000031
12042956441000101SOLUCOES ACO USIMINAS                                                 0000000034100000000000000000000000000000826558250000002112172720016459702     201208072012061100000000054180000500178000000000508178000000000000000000000000008000050000000000  3020120815   01          2                                                                                   3112112172724293807258000019                                                  N                     01321  0000000        000032
12042956441000101SOLUCOES ACO USIMINAS                                                 0000000034100000000000000000000000000000846595690000002210880270016980601     201208102012071200000000054210000426222000000000430482000000000000000000000000004260050000000000  3020120815   01          2                                                                                   3112210880277293807258000029                                                  N                     01321  0000000        000033
12042956441000101SOLUCOES ACO USIMINAS                                                 0000000034100000000000000000000000000000826558240000002112172710016459402     201208072012061100000000054180000747525000000000759485000000000000000000000000011960050000000000  3020120815   01          2                                                                                   3112112172716293807258000059                                                  N                     01321  0000000        000034
12042956441000101SOLUCOES ACO USIMINAS                                                 0000000034100000000000000000000000000000826558260000002112172730016459802     201208072012061100000000054180000155720000000000158208000000000000000000000000002488050000000000  3020120815   01          2                                                                                   3112112172732293807258000099                                                  N                     01321  0000000        000035
12042956441000101SOLUCOES EM ACO USIMINAS S A                                          000000000010000000000000000000000000000082978010000000080475000000057680002   201208132012061800000000054240000431769000000000433497000000000000000000000000001728050000000000  3020120815   01          2                                                                                   3000000169660100000804751729                                                  N                     01321  0000000        000036
12042956441000101SOLUCOES EM ACO USIMINAS S A                                          000000000010000000000000000000000000000082978016000000081231000000165560002   201208132012061800000000054240000341008000000000342372000000000000000000000000001364050000000000  3020120815   01          2                                                                                   3000000169660100000812311779                                                  N                     01321  0000000        000037
12042956441000101SOLUCOES ACO USIMINAS                                                 0000000034100000000000000000000000000000846595680000002210880260016980501     201208102012071200000000054210000156118000000000157678000000000000000000000000001560050000000000  3020120815   01          2                                                                                   3112210880269293807258000019                                                  N                     01321  0000000        000038
12042956441000101SOLUCOES ACO USIMINAS                                                 0000000034100000000000000000000000000000826558230000002112172700016459202     201208072012061100000000054180000123454000000000125430000000000000000000000000001976050000000000  3020120815   01          2                                                                                   3112112172708293807258000049                                                  N                     01321  0000000        000039
12042956441000101SOLUCOES ACO USIMINAS                                                 0000000034100000000000000000000000000000848180680000002220192880017041001     201208142012071700000000054250000155480000000000155791000000000000000000000000000311050000000000  3020120815   01          2                                                                                   3112220192887293807258000049                                                  N                     01321  0000000        000040
12042956441000101SOLUCOES ACO USIMINAS                                                 0000000034100000000000000000000000000000848180690000002220192890017041201     201208142012071700000000054250000205482000000000205893000000000000000000000000000411050000000000  3020120815   01          2                                                                                   3112220192895293807258000099                                                  N                     01321  0000000        000041
12042956441000101SOLUCOES EM ACO USIMINAS S A                                          000000000010000000000000000000000000000083138703000000083116000000165994002   201208142012062000000000054250000233497000000000233964000000000000000000000000000467050000000000  3020120815   01          2                                                                                   3000000169660100000831161719                                                  N                     01321  0000000        000042
12051598902000102NEPIN ACESSORIOS INDUSTRIAIS L                                        000000000010000000000000000000000000000085152927000000476537000015465 1 1     201208102012072400000000054210000034000000000000034672000000000000000000000000000672050000000000  3020120815   01          2                                                                                   3043924765374327000101481199                                                  N                     01321  0000000        000043
12056428188000128EDVALDO SANTOS ROSA ME                                                0000000023700898200000000005622 0000000085959068009011222000658194919598      201208142012080700000000054250000037000000000000037863000000000000000000000000000863050000000000  3020120815   01          2  RUA TAMAINDE  1410                                                               3                         000000000000000                                     N                     00598  0000000        000044
12056993512000150CYKLOP DO BRASIL EMBALAGENS SA                                        0000000034100000000000000000000000000000854049490000002248875950001444        201208092012072600000000054200000013600000000000013800000000000000000000000000000250050000000000  3020120813   06          3                                                                                   3112248875950025786126000059                                                  N                     01321  0000000        000045
12056993512000150CYKLOP DO BRASIL EMBALAGENS SA                                        0000000034100000000000000000000000000000854049500000002248876510130163        201208092012072600000000054200000037925000000000037925000000000000000000000000000000050000000000  3020120809   06          3                                                                                   3112248876511025786126000019                                                  N                     01321  0000000        000046
12056993900000131CIA METALURGICA PRADA                                                 0000000034100000000000000000000000000000812917650000002041335510024059003     201208092012051700000000054200000569143000000000572939000000000000000000000000004745050000000000  3020120813   06          3                                                                                   3112041335517293800573900059                                                  N                     01321  0000000        000047
12056993900000131CIA METALURGICA PRADA                                                 0000000034100000000000000000000000000000848180590000002218222640025829901     201208142012071700000000054250000499614000000000500447000000000000000000000000000833050000000000  3020120815   01          2                                                                                   3112218222647293800573900019                                                  N                     01321  0000000        000048
12056993900000131CIA METALURGICA PRADA                                                 0000000034100000000000000000000000000000848180600000002218222650025830001     201208142012071700000000054250000248417000000000248831000000000000000000000000000414050000000000  3020120815   01          2                                                                                   3112218222654293800573900049                                                  N                     01321  0000000        000049
12056993900000131CIA METALURGICA PRADA                                                 0000000034100000000000000000000000000000848180610000002218222660025830101     201208142012071700000000054250000208025000000000208372000000000000000000000000000347050000000000  3020120815   01          2                                                                                   3112218222662293800573900059                                                  N                     01321  0000000        000050
12057029431000106ATLAS COPCO BRASIL LTDA                                               0000000034100000000000000000000000000000863731640000002292733057000054146     201209072012081000000000054490000081450000000000081450000000000000000000000000000000050000000000  3020120910   01FS        1                                                                                   3112292733055293804111400099                                                  N                     01321  0000000        000051
12057158057000130COMERCIAL ELETRICA PJ LTDA                                            0000000023703394400000000972983 00000000842436850090219200008900000305028     201208012012070400000000054120000079196000000000082878000000000000000000000000003682050000000000  3020120815   01          2  R TAMAINDE 1410                                                                  3                         000000000000000                                     N                     00598  0000000        000052
12061217188000119TELAS METALICAS TELMETAL LTDA                                         0000000000100000000000000000000000000000863731660000000056070005492 1 3       201209102012081300000000054520000043177000000000043177000000000000000000000000000000050000000000  3020120910   01FS        1                                                                                   3000000115031800000056071739                                                  N                     01321  0000000        000053
12061217188000119TELAS METALICAS TELMETAL LTDA                                         0000000000100000000000000000000000000000863731670000000056100005493 1 3       201209102012081300000000054520000017104000000000017104000000000000000000000000000000050000000000  3020120910   01FS        1                                                                                   3000000115031800000056101759                                                  N                     01321  0000000        000054
12061217188000119TELAS METALICAS TELMETAL LTDA                                         0000000000100000000000000000000000000000863731680000000056110005493 2 3       201209172012081300000000054590000017103000000000017103000000000000000000000000000000050000000000  3020120917   01FS        1                                                                                   3000000115031800000056111729                                                  N                     01321  0000000        000055
12061217188000119TELAS METALICAS TELMETAL LTDA                                         0000000000100000000000000000000000000000863731690000000056120005493 3 3       201209242012081300000000054660000017103000000000017103000000000000000000000000000000050000000000  3020120924   01FS        1                                                                                   3000000115031800000056121779                                                  N                     01321  0000000        000056
12061217188000119TELAS METALICAS TELMETAL LTDA                                         0000000000100000000000000000000000000000863731700000000056080005492 2 3       201209172012081300000000054590000043177000000000043177000000000000000000000000000000050000000000  3020120917   01FS        1                                                                                   3000000115031800000056081789                                                  N                     01321  0000000        000057
12061217188000119TELAS METALICAS TELMETAL LTDA                                         0000000000100000000000000000000000000000863731710000000056090005492 3 3       201209242012081300000000054660000043177000000000043177000000000000000000000000000000050000000000  3020120924   01FS        1                                                                                   3000000115031800000056091729                                                  N                     01321  0000000        000058
12061217188000119TELAS METALICAS TELMETAL LTDA                                         0000000034100000000000000000000000000000863731720000009000029235484 3 3       201209202012081300000000054620000113553000000000113553000000000000000000000000000000050000000000  3020120920   01FS        1                                                                                   3109000029237077073552000059                                                  N                     01321  0000000        000059
12061217188000119TELAS METALICAS TELMETAL LTDA                                         0000000034100000000000000000000000000000863731730000009000029215484 1 3       201209062012081300000000054480000113555000000000113555000000000000000000000000000000050000000000  3020120906   01FS        1                                                                                   3109000029211077073552000069                                                  N                     01321  0000000        000060
12061217188000119TELAS METALICAS TELMETAL LTDA                                         0000000034100000000000000000000000000000863731740000009000029225484 2 3       201209132012081300000000054550000113553000000000113553000000000000000000000000000000050000000000  3020120913   01FS        1                                                                                   3109000029229077073552000019                                                  N                     01321  0000000        000061
12064952757000168WALMAC COM DE PROD QUIMICOS LT                                        0000000034100000000000000000000000000000844063800000002196829100019356        201208072012071000000000054180000219267000000000219267000000000000000000000000000000050000000000  3020120807   06          3                                                                                   3112196829108064807961400049                                                  N                     01321  0000000        000062
12066144957000110POSTO DE MOLAS MABAFIL LTDA ME                                        000000000010000000000000000000000000000085074054000000000697000000380         201208122012072300000000054230000041450000000000041720000000000000000000000000000270050000000000  3020120815   01          2                                                                                   3000000162353900000006971749                                                  N                     01321  0000000        000063
12066899790000105FABRICA ARTEF LATEX ESTRELA EP                                        00000000399000000000000000000000000000008364179500000000000000072894 001      201208132012062900000000054240000134540000000000134540000000000000000000000000000000050000000000  3020120813   06          3                                                                                   3175513061351125027292500169                                                  N                     01321  0000000        000064
12066899790000105FABRICA ARTEF LATEX ESTRELA EP                                        00000000399000000000000000000000000000008364179800000000000000072773 001      201208122012062900000000054230000249525000000000249525000000000000000000000000000000050000000000  3020120813   06          3                                                                                   3175513042721125027292500169                                                  N                     01321  0000000        000065
12092693118000160BRADESCO SAUDE S A                                                    0000000023700448000000001533991 00000000829780050050100702629130000000000     201207202012061800000000054000000645861000000000656677000000000000000000000000010816050000000000  3020120815   01          2                                                                                   3                         000000000000000                                     N                     00598  0000000        000066
900006700000000016248238                                                                                                                                                                                                                                                                                                                                                                                                                                                                00598  0000000        000067
