0000147602043799295000110ALTAMIRA INDUSTRIA METALURGICA LT       202000000016820121115060331             1                                                                                                                                                                                                                                                                                                                                                                                                    000001
12001895314000162COLETA INDUSTRIAL FIMAVAN LTDA                                        0000000034100000000000000000000000000000866992070000009002335349439           201208272012081700000000054380000123695000000000152818000000000000000000000000029123050000000000  3020121116   01          2                                                                                   3109002335346144604097200019                                                  N                     01321  0000000        000002
12003489596000123BEND FLEX I COMERCIO LTDA                                             000000003410000000000000000000000000000088599899000000171434574613            201209172012081600000000054590000585000000000000654060000000000000000000000000069060050000000000  3020121116   01          2                                                                                   3191714345748157734445800019                                                  N                     01321  0000000        000003
12003489596000123BEND FLEX I COMERCIO LTDA                                             000000003410000000000000000000000000000088350832000000171879874608            201209122012082100000000054540000695250000000000784105000000000000000000000000088855050000000000  3020121116   01          2                                                                                   3191718798744157734445800069                                                  N                     01321  0000000        000004
12003489596000123BEND FLEX I COMERCIO LTDA                                             000000003410000000000000000000000000000091358505000000177374323637            201210292012092700000000055010000110000000000000113888000000000000000000000000003888050000000000  3020121116   01          2                                                                                   3191773743239157734445800019                                                  N                     01321  0000000        000005
12004030090000114YNAUT VIDAL CURSOS E PALESTRAS                                        00000000104000000000000000000000000000009203845900000000100200000000000998    201211212012111300000000055240000090000000000000090000000000000000000000000000000000050000000000  3020121121   01FS        1                                                                                   3248797700010004000001002549                                                  N                     01321  0000000        000006
12005880850000145NEDERMAN BRASIL COM PROD EX LT                                        000000003410000000000000000000000000000086373178000000614350956002763 A       201209252012081400000000054670000289674000000000319314000000000000000000000000029640050000000000  3020121116   01          2                                                                                   3156143509568160829000100049                                                  N                     01321  0000000        000007
12005915831000107PALETES SATELITE COM LTDA ME                                          000000003410000000000000000000000000000092038465000000902111111NF 2111        201212042012111300000000055370000058500000000000058500000000000000000000000000000000050000000000  3020121204   01FS        1                                                                                   3109021111111144648966600059                                                  N                     01321  0000000        000008
12006000195000156MBA MERCANTIL BRAS DE ACO LTDA                                        0000000034100000000000000000000000000000920384660000002577570290010200B02     201301012012110600000000055650000981621000000000981621000000000000000000000000000000050000000000  3020130102   01FS        1                                                                                   3112577570297064899001800059                                                  N                     01321  0000000        000009
12006000195000156MBA MERCANTIL BRAS DE ACO LTDA                                        0000000034100000000000000000000000000000920384670000002577570280010200B01     201212042012110600000000055370000981621000000000981621000000000000000000000000000000050000000000  3020121204   01FS        1                                                                                   3112577570289064899001800079                                                  N                     01321  0000000        000010
12006000195000156MBA MERCANTIL BRAS DE ACO LTDA                                        0000000034100000000000000000000000000000920384680000002577570350010214B02     201301022012110700000000055660000163123000000000163123000000000000000000000000000000050000000000  3020130102   01FS        1                                                                                   3112577570354064899001800089                                                  N                     01321  0000000        000011
12006000195000156MBA MERCANTIL BRAS DE ACO LTDA                                        0000000034100000000000000000000000000000920384690000002577570360010214B03     201301302012110700000000055940000163123000000000163123000000000000000000000000000000050000000000  3020130130   01FS        1                                                                                   3112577570362064899001800069                                                  N                     01321  0000000        000012
12006000195000156MBA MERCANTIL BRAS DE ACO LTDA                                        0000000034100000000000000000000000000000920384700000002577570310010200B03     201301292012110600000000055930000981620000000000981620000000000000000000000000000000050000000000  3020130129   01FS        1                                                                                   3112577570313064899001800069                                                  N                     01321  0000000        000013
12006000195000156MBA MERCANTIL BRAS DE ACO LTDA                                        0000000034100000000000000000000000000000920384710000002577570370010215B01     201212052012110700000000055380000665766000000000665766000000000000000000000000000000050000000000  3020121205   01FS        1                                                                                   3112577570370064899001800099                                                  N                     01321  0000000        000014
12006000195000156MBA MERCANTIL BRAS DE ACO LTDA                                        0000000034100000000000000000000000000000920384720000002577570340010214B01     201212052012110700000000055380000163123000000000163123000000000000000000000000000000050000000000  3020121205   01FS        1                                                                                   3112577570347064899001800039                                                  N                     01321  0000000        000015
12006000195000156MBA MERCANTIL BRAS DE ACO LTDA                                        0000000034100000000000000000000000000000920384730000002577570380010215B02     201301022012110700000000055660000665766000000000665766000000000000000000000000000000050000000000  3020130102   01FS        1                                                                                   3112577570388064899001800039                                                  N                     01321  0000000        000016
12006000195000156MBA MERCANTIL BRAS DE ACO LTDA                                        0000000034100000000000000000000000000000920384740000002577570420010216B03     201301312012110700000000055950000280226000000000280226000000000000000000000000000000050000000000  3020130131   01FS        1                                                                                   3112577570420064899001800099                                                  N                     01321  0000000        000017
12006000195000156MBA MERCANTIL BRAS DE ACO LTDA                                        0000000034100000000000000000000000000000920384750000002577570390010215B03     201301302012110700000000055940000665765000000000665765000000000000000000000000000000050000000000  3020130130   01FS        1                                                                                   3112577570396064899001800049                                                  N                     01321  0000000        000018
12006000195000156MBA MERCANTIL BRAS DE ACO LTDA                                        0000000034100000000000000000000000000000920384760000002577570460010275B01     201212102012111200000000055430000936053000000000936053000000000000000000000000000000050000000000  3020121210   01FS        1                                                                                   3112577570461064899001800049                                                  N                     01321  0000000        000019
12006000195000156MBA MERCANTIL BRAS DE ACO LTDA                                        0000000034100000000000000000000000000000920384770000002577570400010216B01     201212062012110700000000055390000280226000000000280226000000000000000000000000000000050000000000  3020121206   01FS        1                                                                                   3112577570404064899001800029                                                  N                     01321  0000000        000020
12006000195000156MBA MERCANTIL BRAS DE ACO LTDA                                        0000000034100000000000000000000000000000920384780000002577570470010275B02     201301072012111200000000055710000936054000000000936054000000000000000000000000000000050000000000  3020130107   01FS        1                                                                                   3112577570479064899001800069                                                  N                     01321  0000000        000021
12006000195000156MBA MERCANTIL BRAS DE ACO LTDA                                        0000000034100000000000000000000000000000920384790000002577570410010216B02     201301032012110700000000055670000280226000000000280226000000000000000000000000000000050000000000  3020130103   01FS        1                                                                                   3112577570412064899001800019                                                  N                     01321  0000000        000022
12006000195000156MBA MERCANTIL BRAS DE ACO LTDA                                        0000000034100000000000000000000000000000920384800000002577570480010275B03     201302042012111200000000055990000936053000000000936053000000000000000000000000000000050000000000  3020130204   01FS        1                                                                                   3112577570487064899001800079                                                  N                     01321  0000000        000023
12006000195000156M B A MERCANTIL BRASILEIRA DE                                         0000000023700118P00000002130599 00000000868592690020223600000020009229B02     201210112012081600000000054830000253414000000000268606000000000000000000000000015192050000000000  3020121116   01          2  RUA JUNO  533                                                                    3                         000000000000000                                     N                     00598  0000000        000024
12006000195000156M B A MERCANTIL BRASILEIRA DE                                         0000000023700118P00000002130599 00000000865388260020222900000470009204B02     201210112012081500000000054830000127292000000000134924000000000000000000000000007632050000000000  3020121116   01          2  RUA JUNO  533                                                                    3                         000000000000000                                     N                     00598  0000000        000025
12006000195000156M B A MERCANTIL BRASILEIRA DE                                         0000000023700118P00000002130599 00000000865388290020222900000500009205B02     201210122012081500000000054840000348964000000000369334000000000000000000000000020370050000000000  3020121116   01          2  RUA JUNO  533                                                                    3                         000000000000000                                     N                     00598  0000000        000026
12006000195000156M B A MERCANTIL BRASILEIRA DE                                         0000000023700118P00000002130599 00000000865388320020222900000530009206B02     201210132012081500000000054850000527560000000000557446000000000000000000000000029886050000000000  3020121116   01          2  RUA JUNO  533                                                                    3                         000000000000000                                     N                     00598  0000000        000027
12006000195000156M B A MERCANTIL BRASILEIRA DE                                         0000000023700118P00000002130599 00000000848180770020220100000340008905B03     201210112012071900000000054830000155300000000000164624000000000000000000000000009324050000000000  3020121116   01          2  RUA JUNO  533                                                                    3                         000000000000000                                     N                     00598  0000000        000028
12006000195000156MBA MERCANTIL BRAS DE ACO LTDA                                        0000000034100000000000000000000000000000889578520000001671394540008920B02     201209162012071700000000054580000576585000000000645759000000000000000000000000069174050000000000  3020121116   01          2                                                                                   3191671394549064849251000099                                                  N                     01321  0000000        000029
12006000195000156MBA MERCANTIL BRAS DE ACO LTDA                                        0000000034100000000000000000000000000000885998980000001667238420008870B02     201209112012071600000000054530000839952000000000948984000000000000000000000000109032050000000000  3020121116   01          2                                                                                   3191667238429064849251000039                                                  N                     01321  0000000        000030
12006000195000156MBA MERCANTIL BRAS DE ACO LTDA                                        0000000034100000000000000000000000000000904173140000001667238290008874B03     201210112012071600000000054830000802825000000000859669000000000000000000000000056844050000000000  3020121116   01          2                                                                                   3191667238296064849251000069                                                  N                     01321  0000000        000031
12006000195000156MBA MERCANTIL BRAS DE ACO LTDA                                        0000000034100000000000000000000000000000904173150000001667238300008870B03     201210092012071600000000054810000839951000000000902727000000000000000000000000062776050000000000  3020121116   01          2                                                                                   3191667238304064849251000039                                                  N                     01321  0000000        000032
12006000195000156MBA MERCANTIL BRAS DE ACO LTDA                                        0000000034100000000000000000000000000000904173160000001667238280008876B03     201210122012071600000000054840000810320000000000866110000000000000000000000000055790050000000000  3020121116   01          2                                                                                   3191667238288064849251000079                                                  N                     01321  0000000        000033
12006000195000156MBA MERCANTIL BRAS DE ACO LTDA                                        0000000034100000000000000000000000000000904173170000001671394420008925B03     201210122012071700000000054840000719580000000000769105000000000000000000000000049525050000000000  3020121116   01          2                                                                                   3191671394424064849251000069                                                  N                     01321  0000000        000034
12006000195000156MBA MERCANTIL BRAS DE ACO LTDA                                        0000000034100000000000000000000000000000904173180000001671394430008926B03     201210122012071700000000054840000387716000000000414421000000000000000000000000026705050000000000  3020121116   01          2                                                                                   3191671394432064849251000079                                                  N                     01321  0000000        000035
12006000195000156MBA MERCANTIL BRAS DE ACO LTDA                                        0000000034100000000000000000000000000000906662670000001671394410008920B03     201210142012071700000000054860000576584000000000614006000000000000000000000000037422050000000000  3020121116   01          2                                                                                   3191671394416064849251000039                                                  N                     01321  0000000        000036
12006000195000156MBA MERCANTIL BRAS DE ACO LTDA                                        0000000034100000000000000000000000000000887698090000001671394550008925B02     201209142012071700000000054560000719581000000000808726000000000000000000000000089145050000000000  3020121116   01          2                                                                                   3191671394556064849251000089                                                  N                     01321  0000000        000037
12006000195000156MBA MERCANTIL BRAS DE ACO LTDA                                        0000000034100000000000000000000000000000887698100000001671394560008926B02     201209142012071700000000054560000387716000000000435785000000000000000000000000048069050000000000  3020121116   01          2                                                                                   3191671394564064849251000019                                                  N                     01321  0000000        000038
12006000195000156M B A MERCANTIL BRASILEIRA DE                                         0000000023700118P00000002128292 00000000910265780090220800000360008988B03     201210232012072500000000054950000378850000000000378850000000000000000000000000000000050000000000  3020121031   05          3  RUA JUNO  533                                                                    3                         000000000000000                                     N                     00598  0000000        000039
12006000195000156M B A MERCANTIL BRASILEIRA DE                                         0000000023700118P00000002128292 00000000912467980090221600000380009067B03     201210252012080200000000054970000830191000000000830191000000000000000000000000000000050000000000  3020121105   05          3  RUA JUNO  533                                                                    3                         000000000000000                                     N                     00598  0000000        000040
12008594182000188ACOS G3 COMERCIO E BENEFICIAME                                        0000000023703137200000000091332 00000000912467990090227100000251155        001201210252012092700000000054970000152346000000000156255000000000000000000000000003914050000000000  3020121114   05          3  RUA GANGES  528                                                                  3                         000000000000000                                     N                     00598  0000000        000041
12009259079000144SAFRA COMERCIAL DE PAPEIS LTDA                                        00000000033000000000000000000000000000009203849100000094000000000147411       201212122012111300000000055450000023936000000000023936000000000000000000000000000000050000000000  3020121212   01FS        1                                                                                   3918361880000000346594010429                                                  N                     01321  0000000        000042
12009338857000190FERNANDO  NAGAO  CARDONE  ALVA                                        000000000330000000000000000000000000000089697936000000800000000ALTA 10 2012   201210202012092500000000054920000134632000000000146886000000000000000000000000012254050000000000  3020121116   01          2                                                                                   3947901700000051050080010129                                                  N                     01321  0000000        000043
12009630445000120MARIANA DE QUEIROZ SILVA   GRA                                        0000000000100000000000000000000000000000920384600000000001840000730           201212122012111300000000055450000048500000000000048500000000000000000000000000000000050000000000  3020121212   01FS        1                                                                                   3000000167849100000001841799                                                  N                     01321  0000000        000044
12012006058000121WEG TINTAS LTDA                                                       0000000023702727800000000001309 00000000868126350090223500001180016086602     201210202012082100000000054920000306569000000000317585000000000000000000000000011016050000000000  3020121116   01          2  R JUNO  533                                                                      3                         000000000000000                                     N                     00598  0000000        000045
12012006058000121WEG TINTAS LTDA                                                       0000000023702727800000000001309 00000000868126360090223500001190016086603     201211042012082100000000055070000306662000000000311558000000000000000000000000004896050000000000  3020121116   01          2  R JUNO  533                                                                      3                         000000000000000                                     N                     00598  0000000        000046
12012006058000121WEG TINTAS LTDA                                                       0000000023702727800000000001309 00000000870177490090224100000980016248002     201210262012082700000000054980000306569000000000315137000000000000000000000000008568050000000000  3020121116   01          2  R JUNO  533                                                                      3                         000000000000000                                     N                     00598  0000000        000047
12012006058000121WEG TINTAS LTDA                                                       0000000023702727800000000001309 00000000870177500090224100000990016248003     201211102012082700000000055130000306662000000000309110000000000000000000000000002448050000000000  3020121116   01          2  R JUNO  533                                                                      3                         000000000000000                                     N                     00598  0000000        000048
12012006058000121WEG TINTAS LTDA                                                       0000000023702727800000000001309 00000000872318660090224700001040016359602     201210302012083100000000055020000459854000000000470275000000000000000000000000010421050000000000  3020121116   01          2  R JUNO  533                                                                      3                         000000000000000                                     N                     00598  0000000        000049
12012006058000121WEG TINTAS LTDA                                                       0000000023702727800000000001309 00000000872318670090224700001050016359603     201211142012083100000000055170000459992000000000461218000000000000000000000000001226050000000000  3020121116   01          2  R JUNO  533                                                                      3                         000000000000000                                     N                     00598  0000000        000050
12012006058000121WEG TINTAS LTDA                                                       0000000023702727800000000001309 00000000878206040090225400000780016517201     201210212012090600000000054930000459854000000000475792000000000000000000000000015938050000000000  3020121116   01          2  R JUNO  533                                                                      3                         000000000000000                                     N                     00598  0000000        000051
12012006058000121WEG TINTAS LTDA                                                       0000000023702727800000000001309 00000000878206050090225400000790016517202     201211052012090600000000055080000459854000000000466597000000000000000000000000006743050000000000  3020121116   01          2  R JUNO  533                                                                      3                         000000000000000                                     N                     00598  0000000        000052
12012006058000121WEG TINTAS LTDA                                                       0000000023702727800000000001309 00000000882668410090225800000740016626901     201210282012091300000000055000000459854000000000471501000000000000000000000000011647050000000000  3020121116   01          2  R JUNO  533                                                                      3                         000000000000000                                     N                     00598  0000000        000053
12012006058000121WEG TINTAS LTDA                                                       0000000023702727800000000001309 00000000882668420090225800000750016626902     201211122012091300000000055150000459854000000000462306000000000000000000000000002452050000000000  3020121116   01          2  R JUNO  533                                                                      3                         000000000000000                                     N                     00598  0000000        000054
12012006058000121WEG TINTAS LTDA                                                       0000000023702727800000000001309 00000000861207280090222200000920015775003     201210222012080800000000054940000306662000000000316862000000000000000000000000010200050000000000  3020121116   01          2  R JUNO  533                                                                      3                         000000000000000                                     N                     00598  0000000        000055
12012006058000121WEG TINTAS LTDA                                                       0000000023702727800000000001309 00000000864554460090222800000750015908403     201210282012081400000000055000000306662000000000314414000000000000000000000000007752050000000000  3020121116   01          2  R JUNO  533                                                                      3                         000000000000000                                     N                     00598  0000000        000056
12042956441000101SOLUCOES ACO USIMINAS                                                 0000000034100000000000000000000000000000920384810000002579400130018963301     201212102012111200000000055430000646761000000000646761000000000000000000000000000000050000000000  3020121210   01FS        1                                                                                   3112579400139293807258000029                                                  N                     01321  0000000        000057
12042956441000101SOLUCOES ACO USIMINAS                                                 0000000034100000000000000000000000000000920384820000002579400140018963302     201301072012111200000000055710000646567000000000646567000000000000000000000000000000050000000000  3020130107   01FS        1                                                                                   3112579400147293807258000039                                                  N                     01321  0000000        000058
12042956441000101SOLUCOES ACO USIMINAS                                                 0000000034100000000000000000000000000000920384830000002579400150018963303     201302042012111200000000055990000646568000000000646568000000000000000000000000000000050000000000  3020130204   01FS        1                                                                                   3112579400154293807258000059                                                  N                     01321  0000000        000059
12042956441000101SOLUCOES ACO USIMINAS                                                 0000000034100000000000000000000000000000853154840000002246247030017196702     201209202012072500000000054620000234841000000000261631000000000000000000000000026790050000000000  3020121116   01          2                                                                                   3112246247038293807258000099                                                  N                     01321  0000000        000060
12042956441000101SOLUCOES ACO USIMINAS                                                 0000000034100000000000000000000000000000853154850000002246247040017197302     201209202012072500000000054620000970103000000001080683000000000000000000000000110580050000000000  3020121116   01          2                                                                                   3112246247046293807258000019                                                  N                     01321  0000000        000061
12042956441000101SOLUCOES ACO USIMINAS                                                 0000000034100000000000000000000000000000855028690000002254329380017212902     201209212012072600000000054630000140098000000000155778000000000000000000000000015680050000000000  3020121116   01          2                                                                                   3112254329389293807258000019                                                  N                     01321  0000000        000062
12042956441000101SOLUCOES ACO USIMINAS                                                 0000000034100000000000000000000000000000859590620000002274469790017353702     201209282012080300000000054700000081053000000000088991000000000000000000000000007938050000000000  3020121116   01          2                                                                                   3112274469793293807258000069                                                  N                     01321  0000000        000063
12042956441000101SOLUCOES ACO USIMINAS                                                 0000000034100000000000000000000000000000855028700000002254329390017213002     201209212012072600000000054630000140602000000000156338000000000000000000000000015736050000000000  3020121116   01          2                                                                                   3112254329397293807258000089                                                  N                     01321  0000000        000064
12042956441000101SOLUCOES ACO USIMINAS                                                 0000000034100000000000000000000000000000855028770000002254329400017220502     201209212012072700000000054630000981022000000001090894000000000000000000000000109872050000000000  3020121116   01          2                                                                                   3112254329405293807258000099                                                  N                     01321  0000000        000065
12042956441000101SOLUCOES ACO USIMINAS                                                 0000000034100000000000000000000000000000856906410000002262886280017266201     201208282012073000000000054390000119472000000000138592000000000000000000000000019120050000000000  3020121116   01          2                                                                                   3112262886289293807258000089                                                  N                     01321  0000000        000066
12042956441000101SOLUCOES ACO USIMINAS                                                 0000000034100000000000000000000000000000856906420000002262886290017266301     201208282012073000000000054390000145069000000000168269000000000000000000000000023200050000000000  3020121116   01          2                                                                                   3112262886297293807258000099                                                  N                     01321  0000000        000067
12042956441000101SOLUCOES ACO USIMINAS                                                 0000000034100000000000000000000000000000846595700000002210880280016980502     201209102012071200000000054520000156071000000000176975000000000000000000000000020904050000000000  3020121116   01          2                                                                                   3112210880285293807258000039                                                  N                     01321  0000000        000068
12042956441000101SOLUCOES ACO USIMINAS                                                 0000000034100000000000000000000000000000846595710000002210880290016980602     201209102012071200000000054520000426094000000000483178000000000000000000000000057084050000000000  3020121116   01          2                                                                                   3112210880293293807258000019                                                  N                     01321  0000000        000069
12042956441000101SOLUCOES ACO USIMINAS                                                 0000000034100000000000000000000000000000847452070000002216130350005922202     201209102012071600000000054520000172071000000000195119000000000000000000000000023048050000000000  3020121116   01          2                                                                                   3112216130354293807258000049                                                  N                     01321  0000000        000070
12042956441000101SOLUCOES ACO USIMINAS                                                 0000000034100000000000000000000000000000847452100000002216130340017012402     201209102012071500000000054520000147428000000000167193000000000000000000000000019765050000000000  3020121116   01          2                                                                                   3112216130347293807258000059                                                  N                     01321  0000000        000071
12042956441000101SOLUCOES ACO USIMINAS                                                 0000000034100000000000000000000000000000848180700000002220192900017041002     201209112012071700000000054530000155433000000000175959000000000000000000000000020526050000000000  3020121116   01          2                                                                                   3112220192903293807258000029                                                  N                     01321  0000000        000072
12042956441000101SOLUCOES ACO USIMINAS                                                 0000000034100000000000000000000000000000848180710000002220192910017041202     201209112012071700000000054530000205421000000000232547000000000000000000000000027126050000000000  3020121116   01          2                                                                                   3112220192911293807258000019                                                  N                     01321  0000000        000073
12042956441000101SOLUCOES ACO USIMINAS                                                 0000000034100000000000000000000000000000850740460000002233586800017127201     201208202012072000000000054310000137881000000000162169000000000000000000000000024288050000000000  3020121116   01          2                                                                                   3112233586802293807258000019                                                  N                     01321  0000000        000074
12042956441000101SOLUCOES ACO USIMINAS                                                 0000000034100000000000000000000000000000850740470000002233586810017101002     201209142012071900000000054560000732575000000000824870000000000000000000000000092295050000000000  3020121116   01          2                                                                                   3112233586810293807258000019                                                  N                     01321  0000000        000075
12042956441000101SOLUCOES ACO USIMINAS                                                 0000000034100000000000000000000000000000850740480000002233586820017101202     201209142012071900000000054560000144634000000000162841000000000000000000000000018207050000000000  3020121116   01          2                                                                                   3112233586828293807258000029                                                  N                     01321  0000000        000076
12043298975000150JOMARCA INDUSTRIAL DE PARAFUSO                                        0000000023703397900000000003212 00000000920384850020231900000180166858 01     201212132012111300000000055460000569400000000000569400000000000000000000000000000000050000000000  3020121213   01FS        1  RUA TAMAINDE  1410 RUA GANGES 520 E 528                                          3                         000000000000000                                     N                     00598  0000000        000077
12043298975000150JOMARCA INDUSTRIAL DE PARAFUSO                                        0000000023703397900000000003212 00000000920384860020231900000190166858 02     201301122012111300000000055760000438000000000000438000000000000000000000000000000000050000000000  3020130114   01FS        1  RUA TAMAINDE  1410 RUA GANGES 520 E 528                                          3                         000000000000000                                     N                     00598  0000000        000078
12043298975000150JOMARCA INDUSTRIAL DE PARAFUSO                                        0000000023703397900000000003212 00000000920384870020231900000200166858 03     201302112012111300000000056060000438000000000000438000000000000000000000000000000000050000000000  3020130213   01FS        1  RUA TAMAINDE  1410 RUA GANGES 520 E 528                                          3                         000000000000000                                     N                     00598  0000000        000079
12047190731000100DE CASTRO LOUR ENG IND LTDA                                           00000000341000000000000000000000000000008782051200000023399953803026613 0     201209182012082100000000054600001107989000000001236550000000000000000000000000128561050000000000  3020121116   01          2                                                                                   3112339995386036884500400039                                                  N                     01321  0000000        000080
12047190731000100DE CASTRO LOUR ENG IND LTDA                                           00000000341000000000000000000000000000008782051600000023399954103026614 0     201209182012082100000000054600001047621000000001169161000000000000000000000000121540050000000000  3020121116   01          2                                                                                   3112339995410036884500400039                                                  N                     01321  0000000        000081
12047190731000100DE CASTRO LOUR ENG IND LTDA                                           00000000341000000000000000000000000000008782052000000023399955303026632 0     201209192012082200000000054610000952073000000001060649000000000000000000000000108576050000000000  3020121116   01          2                                                                                   3112339995535036884500400019                                                  N                     01321  0000000        000082
12047190731000100DE CASTRO LOUR ENG IND LTDA                                           00000000341000000000000000000000000000008782052100000023399955903026643 0     201209202012082300000000054620000867039000000000964224000000000000000000000000097185050000000000  3020121116   01          2                                                                                   3112339995592036884500400049                                                  N                     01321  0000000        000083
12047190731000100DE CASTRO LOUR ENG IND LTDA                                           00000000341000000000000000000000000000008782052500000023399955603026636 0     201209192012082200000000054610000940804000000001048104000000000000000000000000107300050000000000  3020121116   01          2                                                                                   3112339995568036884500400049                                                  N                     01321  0000000        000084
12047190731000100DE CASTRO LOUR ENG IND LTDA                                           00000000341000000000000000000000000000008782052700000023399956203026648 0     201209202012082300000000054620000976053000000001085493000000000000000000000000109440050000000000  3020121116   01          2                                                                                   3112339995626036884500400029                                                  N                     01321  0000000        000085
12047190731000100DE CASTRO LOUR ENG IND LTDA                                           00000000341000000000000000000000000000008782050900000023399953503026612 0     201209182012082100000000054600001111489000000001240463000000000000000000000000128974050000000000  3020121116   01          2                                                                                   3112339995352036884500400019                                                  N                     01321  0000000        000086
12047190731000100DE CASTRO LOUREIRO ENGENHARIA                                         00000000033000000000000000000000000000008826685200000010000000003026873 0     201210102012091200000000054820000947530000000000966481000000000000000000000000018951050000000000  3020121011   06          3                                                                                   3948430370000009553410020399                                                  N                     01321  0000000        000087
12047284104000139ROLAMENTOS E RETENTORES RODEMA                                        000000000010000000000000000000000000000092038462000000005833000020274 A       201212102012111300000000055430000043554000000000043554000000000000000000000000000000050000000000  3020121210   01FS        1                                                                                   3000000186840300000058331759                                                  N                     01321  0000000        000088
12048775225000146SEIKI IND COM E CONFECCOES LTD                                        000000003410000000000000000000000000000089337376000000244697151014914001      201210232012092500000000054950000052000000000000053872000000000000000000000000001872050000000000  3020121116   01          2                                                                                   3112446971510017444824100089                                                  N                     01321  0000000        000089
12051180370000199IGUAFER FERRO E ACO LTDA                                              0000000034100000000000000000000000000000852309100000002239389789443 B         201209022012071800000000054440000168275000000000189275000000000000000000000000021000050000000000  3020121116   01          2                                                                                   3112239389789077149484600089                                                  N                     01321  0000000        000090
12051180370000199IGUAFER FERRO E ACO LTDA                                              0000000034100000000000000000000000000000852309110000002239389799443 C         201209122012071800000000054540000168275000000000186475000000000000000000000000018200050000000000  3020121116   01          2                                                                                   3112239389797077149484600089                                                  N                     01321  0000000        000091
12053585766000141MULTIACOS I C PRODS TEC LTDA                                          0000000042200000000000000000000000000000890457040000000000000000004650303     201211142012092500000000055170000228607000000000229368000000000000000000000000000761050000000000  3020121116   01          2                                                                                   3711500005033164925775215139                                                  N                     01321  0000000        000092
12053585766000141MULTIACOS I C PRODS TEC LTDA                                          0000000042200000000000000000000000000000895189530000000000000000004695802     201211122012100200000000055150000193011000000000194298000000000000000000000000001287050000000000  3020121116   01          2                                                                                   3711500005033164927762005119                                                  N                     01321  0000000        000093
12053585766000141MULTIACOS I C PRODS TEC LTDA                                          0000000042200000000000000000000000000000890457010000000000000000004650403     201211142012092500000000055170000192957000000000193600000000000000000000000000000643050000000000  3020121116   01          2                                                                                   3711500005033164925775231119                                                  N                     01321  0000000        000094
12053585766000141MULTIACOS I C PRODS TEC LTDA                                          0000000042200000000000000000000000000000895189550000000000000000004695702     201211122012100200000000055150001092223000000001099502000000000000000000000000007279050000000000  3020121116   01          2                                                                                   3711500005033164927761971189                                                  N                     01321  0000000        000095
12053585766000141MULTIACOS I C PRODS TEC LTDA                                          0000000042200000000000000000000000000000895189580000000000000000004699102     201211122012100200000000055150000574719000000000578550000000000000000000000000003831050000000000  3020121116   01          2                                                                                   3711500005033164927762030199                                                  N                     01321  0000000        000096
12053585766000141MULTIACOS I C PRODS TEC LTDA                                          0000000042200000000000000000000000000000895189640000000000000000004750001     201211082012100200000000055110000229622000000000232685000000000000000000000000003063050000000000  3020121116   01          2                                                                                   3711500005033164927762111139                                                  N                     01321  0000000        000097
12053585766000141MULTIACOS I C PRODS TEC LTDA                                          0000000042200000000000000000000000000000895189680000000000000000004699302     201211142012100200000000055170000863284000000000866161000000000000000000000000002877050000000000  3020121116   01          2                                                                                   3711500005033164927762099149                                                  N                     01321  0000000        000098
12053585766000141MULTIACOS I C PRODS TEC LTDA                                          0000000042200000000000000000000000000000895189710000000000000000004685002     201211082012100200000000055110000547346000000000554641000000000000000000000000007295050000000000  3020121116   01          2                                                                                   3711500005033164927762196129                                                  N                     01321  0000000        000099
12053585766000141MULTIACOS I C PRODS TEC LTDA                                          0000000042200000000000000000000000000000895189740000000000000000004642303     201211132012100200000000055160000192957000000000193922000000000000000000000000000965050000000000  3020121116   01          2                                                                                   3711500005033164927762161159                                                  N                     01321  0000000        000100
12053585766000141MULTIACOS I C PRODS TEC LTDA                                          0000000042200000000000000000000000000000895189770000000000000000004642103     201211132012100200000000055160000244317000000000245537000000000000000000000000001220050000000000  3020121116   01          2                                                                                   3711500005033164927762188149                                                  N                     01321  0000000        000101
12053585766000141MULTIACOS I C PRODS TEC LTDA                                          0000000042200000000000000000000000000000887697890000000000000000004704302     201211132012092000000000055160000965514000000000970340000000000000000000000000004826050000000000  3020121116   01          2                                                                                   3711500005033164923629556119                                                  N                     01321  0000000        000102
12053585766000141MULTIACOS I C PRODS TEC LTDA                                          0000000042200000000000000000000000000000887697950000000000000000004704502     201211132012092000000000055160000217463000000000218548000000000000000000000000001085050000000000  3020121116   01          2                                                                                   3711500005033164923629581139                                                  N                     01321  0000000        000103
12054382510000108SETENTA IND E COM DE MADEIRAS                                         0000000034100000000000000000000000000000860403430000002277814474462 A         201209042012080700000000054460000191200000000000218648000000000000000000000000027448050000000000  3020121116   01          2                                                                                   3112277814474057049175300069                                                  N                     01321  0000000        000104
12056993512000150CYKLOP DO BRASIL EMBALAGENS SA                                        0000000034100000000000000000000000000000874070500000002362586810134932        201210012012090300000000054730000083607000000000097729000000000000000000000000014122050000000000  3020121116   01          2                                                                                   3112362586813025700015800019                                                  N                     01321  0000000        000105
12061217188000119TELAS METALICAS TELMETAL LTDA                                         0000000000100000000000000000000000000000896050380000000057780005743 1 1       201211022012100400000000055050000086601000000000087756000000000000000000000000001386050000000000  3020121107   05          3                                                                                   3000000115031800000057781779                                                  N                     01321  0000000        000106
12061217188000119TELAS METALICAS TELMETAL LTDA                                         0000000000100000000000000000000000000000920384630000000058960005934 1 1       201212122012111300000000055450000089238000000000089238000000000000000000000000000000050000000000  3020121212   01FS        1                                                                                   3000000115031800000058961719                                                  N                     01321  0000000        000107
12061217188000119TELAS METALICAS TELMETAL LTDA                                         0000000000100000000000000000000000000000920384610000000058950005933 1 1       201212102012111300000000055430000040639000000000040639000000000000000000000000000000050000000000  3020121210   01FS        1                                                                                   3000000115031800000058951769                                                  N                     01321  0000000        000108
12062510367000102ITANHAEM TRANSP DE MAQUINAS LT                                        000000003410000000000000000000000000000087407049000000236463199667            201209202012090400000000054620000248220000000000304821000000000000000000000000056601050000000000  3020121116   01          2                                                                                   3112364631997005770252400049                                                  N                     01321  0000000        000109
12063917975000107FOTONS COMERCIAL ELETRICA LTDA                                        0000000000100000000000000000000000000000920384640000009559370007678 A         201211232012111300000000055260000021600000000000021600000000000000000000000000000000050000000000  3020121123   01FS        1                                                                                   3000000153770711239559371719                                                  N                     01321  0000000        000110
12064952757000168WALMAC COM DE PROD QUIMICOS LT                                        0000000034100000000000000000000000000000860403440000002275821690020148        201210262012080300000000054980000219266000000000228317000000000000000000000000009051050000000000  3020121116   01          2                                                                                   3112275821695064807961400019                                                  N                     01321  0000000        000111
12064952757000168WALMAC COM DE PROD QUIMICOS LT                                        0000000034100000000000000000000000000000860403450000002275821700020148        201210052012080300000000054770000219267000000000237369000000000000000000000000018102050000000000  3020121116   01          2                                                                                   3112275821703064807961400029                                                  N                     01321  0000000        000112
12064952757000168WALMAC COM DE PROD QUIMICOS LT                                        0000000034100000000000000000000000000000896979500000002462157550021611        201211012012100400000000055040000219267000000000225732000000000000000000000000006465050000000000  3020121116   01          2                                                                                   3112462157556064807961400019                                                  N                     01321  0000000        000113
12066841552000130R V SEG PATRIMONIAL LTDA                                              00000000341000000000000000000000000000008852483200000090002192721927          201209102012081000000000054520000483241000000000494028000000000000000000000000010787050000000000  3020121116   01          2                                                                                   3109000219270001835253400099                                                  N                     01321  0000000        000114
12066841552000130R V SEG PATRIMONIAL S C LTDA                                          00000000341000000000000000000000000000008887329800000090002213622136          201210102012091100000000054820000374758000000000379383000000000000000000000000004625050000000000  3020121116   01          2                                                                                   3109000221365001838994000069                                                  N                     01321  0000000        000115
12066841552000130RV SEGURANCA PATRIMONIAL SC LT                                        0000000023700122800000001495011 000000009203848400900000002253822538          201212102012110800000000055430000374758000000000374758000000000000000000000000000000050000000000  3020121210   01FS        1  RUA TAMAINDE  1410                                                               3                         000000000000000                                     N                     00598  0000000        000116
12066899790000105FABRICA ARTEF LATEX ESTRELA EP                                        00000000399000000000000000000000000000009203848800000000000000083274 001      201212292012111400000000055620000091140000000000091140000000000000000000000000000000050000000000  3020121231   01FS        1                                                                                   3176387759211125027292500119                                                  N                     01321  0000000        000117
12066899790000105FABRICA ARTEF LATEX ESTRELA EP                                        00000000399000000000000000000000000000009203848900000000000000083274 002      201301132012111400000000055770000091140000000000091140000000000000000000000000000000050000000000  3020130114   01FS        1                                                                                   3176387759301125027292500119                                                  N                     01321  0000000        000118
12066899790000105FABRICA ARTEF LATEX ESTRELA EP                                        00000000399000000000000000000000000000009203849000000000000000083274 003      201301282012111400000000055920000091140000000000091140000000000000000000000000000000050000000000  3020130128   01FS        1                                                                                   3176387759481125027292500169                                                  N                     01321  0000000        000119
12069284248000128ISOCOAT TINTAS E VERNIZES LTDA                                        0000000034100000000000000000000000000000841061040000002182507930052085        201209172012070200000000054590000236130000000000273930000000000000000000000000037800050000000000  3020121116   01          2                                                                                   3112182507932077430121200019                                                  N                     01321  0000000        000120
12096500087000135WORKBENCH CONSULTORIA S S LTDA                                        0000000034100000000000000000000000000000878205840000007940034283118           201209272012090300000000054690000131746000000000144696000000000000000000000000012950050000000000  3020121116   01          2                                                                                   3157940034289826313803700089                                                  N                     01321  0000000        000121
900012200000000053711090                                                                                                                                                                                                                                                                                                                                                                                                                                                                01321  0000000        000122
