0000147602043799295000110ALTAMIRA INDUSTRIA METALURGICA LT       202000000182620120815213516             3                                                                                                  000000000000000                                                                                                                                                                                                                                                                                   000001
12004666281000177PROCRED TECNOLOGIA E FOMENTO M                                        0000000023702017600000000220000 I000000000009504009022010000031               201208150000000000000000054260000062329000000000062329000000000000000000000000000000010000003773  3120120815   02BW        5000000               000000000000000                                               3201709220100000310022000039               03773/01                           N                     01146 10020256        000002
12015229004000113ATLANTES SERVICOS ADM LTDA                                            0000000010404115 00003000011275 I000000000009497000000000000000               201208150000000000000000000000000000000000000000331100000000000000000000000000000000010000000006  0820120815   02BW        5001600               000000000000000                                               3C0000000101                               NF.NRO.06 - PARC.01.               N                     01076 10020256        000003
12061786604000108HERWAL ABRASIVOS E MAQUINAS LTR TOLEDO BARBOSA 746 BELENZINHO         0306100023700165100000000835188 I000000000009507000000000000000               201208150000000000000000000000000000000000000000039290000000000000000000000000000000010000001554  0120120815   02BW        5000000               000000000000000                                               3                                          01554                              N                     01321 10020256        000004
12004455726000170INTERCLICK INFOR S C LTDA                                             0000000023702451100000000099449 I000000000009511006000101003968               201208150000000000000000054260001103000000000001103000000000000000000000000000000000010000001151  3120120815   02BW        5000000               000000000000000                                               3245106001010039680009944099               01151/01                           N                     01146 10020256        000005
12008508119000181DINARI FOMENTO MERCANTIL LTDA AV PAULO FACCINI 649 ATUAL 645 2 E 3 PAV0711100023702499600000000172308 I000000000009499000000000000000               201208150000000000000000000000000000000000000000300000000000000000000000000000000000050000003142  0120120815   02BW        5000000               000000000000000                                               3                                          03142                              N                     01321 10020256        000006
12048775225000146SEIKI IND COM CONFECCOES LTDA                                         0000000034100000 0000000000000  I000000000009506000000000000000               201208150000000000000000054260000052468000000000052468000000000000000000000000000000010000013178  3120120815   02BW        5000000               000000000000000                                               3181523491812017444824100039               013178                             N                     01130 10020256        000007
12061217188000119TELAS METALICAS TELMETAL LTDA                                         0000000000100000 0000000000000  I000000000009505000000000000000               201208150000000000000000054260000053865000000000053865000000000000000000000000000000010000005305  3120120815   02BW        5000000               000000000000000                                               3000000115031800000054941739               5305/02-03                         N                     01130 10020256        000008
12006000195000156M B A MERCANTIL BRASILEIRA DE R RINCAO 220                            0365108023700118000000002128292 I000000000009498000000000000000               201208150000000000000000000000000000000000000000641590000000000000000000000000000000010000008515  0120120815   02BW        5000000               000000000000000                                               3                                          NF.NRO.08515/02-03                 N                     01321 10020256        000009
12009259079000144SAFRA COMERCIAL DE PAPEIS LTDA                                        00000000033000000000000000000000000000008465958000000006000000000126816       201208142012071600000000054250000021600000000000021708000000000000000000000000000216050000000000  3020120815   02BW        2000000               000000000000000                                               3918361880000000322506010449               0126816                            N                     01130 10020256        000010
12042956441000101SOLUCOES EM ACO USIMINAS S A                                          0000000000100000 0000000000000  I000000000009502000000000000000               201208150000000000000000054260000093000000000000093000000000000000000000000000000000010000165006  3120120815   02BW        5000000               000000000000000                                               3000000169660100000795281789               0165006/02                         N                     01130 10020256        000011
12006209559000102MAZURKY IND COM EMBALAGENS LTD                                        0000000034100000 0000000000000  I000000000009503000000000000000               201208150000000000000000054260000085229000000000085229000000000000000000000000000000010000009600  3120120815   02BW        5000000               000000000000000                                               3181523120612151434240900039               9600/03                            N                     01130 10020256        000012
12042956441000101SOLUCOES EM ACO USIMINAS S A                                          0000000000100000 0000000000000  I000000000009500000000000000000               201208150000000000000000054260000248007000000000248007000000000000000000000000000000010000165007  3120120815   02BW        5000000               000000000000000                                               3000000169660100000795311719               0165007/02                         N                     01130 10020256        000013
12007839659000185CABEMA CABOS E ACO LTDA                                               000000003410000000000000000000000000000084406385000000219934022019060 1 1     201208102012071100000000054210000020460000000000020970000000000000000000000000000816050000000000  3020120815   02BW        2000000               000000000000000                                               3112199340228007879488000019               019060/01-01                       N                     01130 10020256        000014
12061217188000119TELAS METALICAS TELMETAL LTDA                                         0000000000100000 0000000000000  I000000000009509000000000000000               201208150000000000000000054260000026482000000000026482000000000000000000000000000000010000005304  3120120815   02BW        5000000               000000000000000                                               3000000115031800000054921729               05304/01-01                        N                     01130 10020256        000015
12005584462000117RAPIDEZREAL TRANSPORTES LTDA                                          0000000003300000 0000000000000  I000000000009510000000000000000               201208150000000000000000054260000450195000000000450195000000000000000000000000000000050000120876  3120120815   02BW        5000000               000000000000000                                               3909546160000001125303010149               120876/01                          N                     01130 10020256        000016
12061217188000119TELAS METALICAS TELMETAL LTDA                                         0000000000100000 0000000000000  I000000000009508000000000000000               201208150000000000000000054260000030080000000000030080000000000000000000000000000000010000005302  3120120815   02BW        5000000               000000000000000                                               3000000115031800000054901719               05302/03                           N                     01130 10020256        000017
12042956441000101SOLUCOES EM ACO USIMINAS S A                                          0000000000100000 0000000000000  I000000000009501000000000000000               201208150000000000000000054260000193839000000000193839000000000000000000000000000000010000165008  3120120815   02BW        5000000               000000000000000                                               3000000169660100000795341799               0165008/02                         N                     01130 10020256        000018
900001900000000003753152                                                                                                                                                                                    000000000000000                                                                                                                                                                                                                                                    00001700705320002440554        000019
