0000147602043799295000110ALTAMIRA INDUSTRIA METALURGICA LT       202000000191120121015220023             3                                                                                                  000000000000000                                                                                                                                                                                                                                                                                   000001
12033325184001786ALSCO TOALHEIRO BRASIL LTDA                                           0000000023703396000000001490850 I000000000010023009000028814703               201210150000000000000000054870000026607000000000026607000000000000000000000000000000010000288147  3120121015   02BW        5000000               000000000000000                                               3339609000288147030149085019               0288147                            N                     01079 10020256        000002
12033325184001786ALSCO TOALHEIRO BRASIL LTDA                                           0000000023703396000000001490850 I000000000010018009000002716505               201210150000000000000000054870000046539000000000046539000000000000000000000000000000010000027165  3120121015   02BW        5000000               000000000000000                                               3339609000027165050149085079               27165                              N                     01079 10020256        000003
12062344882000160INDUSTRIA COM PARAFUS NAP LTDA                                        0000000034100000 0000000000000  I000000000010017000000000000000               201210150000000000000000054870000049168000000000049168000000000000000000000000000000010000011535  3120121015   02BW        5000000               000000000000000                                               3181560236000482812260800039               11535/02                           N                     01132 10020256        000004
12009630445000120MARIANA DE QUEIROZ SILVA                                              0000000000100000 0000000000000  I000000000010025000000000000000               201210150000000000000000054870000019067000000000019067000000000000000000000000000000010014145046  3120121015   02BW        5000000               000000000000000                                               3000000167849100000001181779               18145046                           N                     01132 10020256        000005
12061217188000119TELAS METALICAS TELMETAL LTDA                                         0000000034100000 0000000000000  I000000000010016000000000000000               201210150000000000000000054870000053607000000000053607000000000000000000000000000000010000005639  3120121015   02BW        5000000               000000000000000                                               3181560239011077099894600059               5639/01-03                         N                     01132 10020256        000006
12061100202000108COFIPE VEICULOS LTDA                                                  0000000039900000 0000000000000  I000000000010026000000000000000               201210150000000000000000054870000018018000000000018018000000000000000000000000000000010000005155  3120121015   02BW        5000000               000000000000000                                               3320005133250343608018900189               05155                              N                     01132 10020256        000007
12004676708000118M H F  SISTEMAS LTDA                                                  0000000034100000 0000000000000  I000000000010028000000000000000               201210150000000000000000054870000015270000000000015270000000000000000000000000000000010000019195  3120121015   02BW        5000000               000000000000000                                               3181560228711013924573200089               019195                             N                     01132 10020256        000008
12005852768000107DAOUD   LEAL ELETRONICA LTDA                                          0000000003300000 0000000000000  I000000000010027000000000000000               201210150000000000000000054870000017934000000000017934000000000000000000000000000000010000001097  3120121015   02BW        5000000               000000000000000                                               3949927090000000027421010419               1097                               N                     01132 10020256        000009
12004676708000118M H F  SISTEMAS LTDA                                                  0000000034100000 0000000000000  I000000000010029000000000000000               201210150000000000000000054870000014322000000000014322000000000000000000000000000000010000019371  3120121015   02BW        5000000               000000000000000                                               3181560221047013924573200019               019371                             N                     01132 10020256        000010
12061217188000119TELAS METALICAS TELMETAL LTDA                                         0000000034100000 0000000000000  I000000000010022000000000000000               201210150000000000000000054870000033822000000000033822000000000000000000000000000000010000005640  3120121015   02BW        5000000               000000000000000                                               3181560237783077099894600089               5640/01-03                         N                     01132 10020256        000011
12001852612000175BT PRODUTOS INDS LTDA                                                 0000000003300000 0000000000000  I000000000010021000000000000000               201210150000000000000000054870000043253000000000043253000000000000000000000000000000010000594061  3120121015   02BW        5000000               000000000000000                                               3913651000000000594061010459               594061                             N                     01132 10020256        000012
12062539994000176LEALFER INDUSTRIA E COMERCIO D                                        0000000003300000 0000000000000  I000000000010012000000000000000               201210150000000000000000054870001079886000000001079886000000000000000000000000000000010000054791  3120121015   02BW        5000000               000000000000000                                               3915298380000000260339020319               54791/01                           N                     01132 10020256        000013
12012931789000183RCM IMPORTADORA FERRAMENTAS LT                                        0000000000100000 0000000000000  I000000000010019000000000000000               201210150000000000000000054870000046538000000000046538000000000000000000000000000000010000004126  3120121015   02BW        5000000               000000000000000                                               3000000225937123243023081769               4126                               N                     01132 10020256        000014
12062344882000160INDUSTRIA COM PARAFUS NAP LTDA                                        0000000034100000 0000000000000  I000000000010014000000000000000               201210150000000000000000054870000060314000000000060314000000000000000000000000000000010000011535  3120121015   02BW        5000000               000000000000000                                               3181560217737482812260800019               11535/01                           N                     01132 10020256        000015
12005335228000156DINAMICA INFORMATICA TELEC LTD                                        0000000023703257300000000503215 I000000000010024009032570017396               201210150000000000000000054870000021005000000000021005000000000000000000000000000000010000008960  3120121015   02BW        5000000               000000000000000                                               3325709325700173960050321049               8960/1                             N                     01079 10020256        000016
12035820448000136WHITE MARTINS GASES INDUSTRIAI                                        0000000023700026400000003937925 0000000087577331009022500001416377141 001     201210022012090600000000054740000040575000000000041568000000000000000000000000001175050000000000  3020121015   02BW        2000000               000000000000000                                               3                         000000000000000  9086                               N                     01079 10020256        000017
12035820448000136WHITE MARTINS GASES IND LTDA                                          0000000023700026400000003937925 I000000000010015009022350001453               201210140000000000000000054860000059917000000000059917000000000000000000000000000000010000008999  3120121015   02BW        5000000               000000000000000                                               3002609223500014530393792059               08999                              N                     01079 10020256        000018
12062173661000176INDUFIX IND E COM LTDA                                                0000000023704130000000000085898 I000000000010013007022560000065               201210150000000000000000054870000067843000000000067843000000000000000000000000000000010000038394  3120121015   02BW        5000000               000000000000000                                               3413007225600000650008589019               38394/01                           N                     01079 10020256        000019
12062340989000130EDICOES ADUANEIRAS LTDA                                               0000000023703090200000000015660 I000000000010020009080000035030               201210150000000000000000054870000044680000000000044680000000000000000000000000000000010000004262  3120121015   02BW        5000000               000000000000000                                               3309009800000350300001566039               4262/04                            N                     01079 10020256        000020
12003163055000100JN FOMENTO MERCANTIL LTDA     R VERGUEIRO   DE 2702 ATE 3636 LADO PAR 0410200123700548700000001174339 I000000000010030000000000000000               201210150000000000000000000000000000000000000000015000000000000000000000000000000000010000000509  0120121015   02BW        5000000               000000000000000                                               3                                          509                                N                     01321 10020256        000021
900002200000000001774358                                                                                                                                                                                    000000000000000                                                                                                                                                                                                                                                    00002001042390001758365        000022
