0000147602043799295000110ALTAMIRA INDUSTRIA METALURGICA LT       202000000179420120815162338             2                                                                                                  000000000000000                                                                                                                                                                                                                                                                                   000001
12015229004000113ATLANTES SERVICOS ADM LTDA                                            0000000010404115 00003000011275 I000000000009497000000000000000               201208150000000000000000000000000000000000000000331100000000000000000000000000000000010000000006  0820120815   01HF        5001621000000005431569000000000000000                                               3C0000000101                               NF.NRO.06 - PARC.01.               N                     01076 10020256        000002
900000300000000000331100                                                                                                                                                                                    000000000000000                                                                                                                                                                                                                                                    00000100000000000000000        000003
