0000147602043799295000110ALTAMIRA INDUSTRIA METALURGICA LT       202000000018920121215060115             1                                                                                                                                                                                                                                                                                                                                                                                                    000001
12001895314000162COLETA INDUSTRIAL FIMAVAN LTDA                                        0000000034100000000000000000000000000000866992070000009002335349439           201208272012081700000000054380000123695000000000163017000000000000000000000000039322050000000000  3020121217   01          2                                                                                   3109002335346144604097200019                                                  N                     01321  0000000        000002
12003489596000123BEND FLEX I COMERCIO LTDA                                             000000003410000000000000000000000000000088599899000000171434574613            201209172012081600000000054590000585000000000000689741000000000000000000000000104741050000000000  3020121217   01          2                                                                                   3191714345748157734445800019                                                  N                     01321  0000000        000003
12003489596000123BEND FLEX I COMERCIO LTDA                                             000000003410000000000000000000000000000088350832000000171879874608            201209122012082100000000054540000695250000000000826482000000000000000000000000131232050000000000  3020121217   01          2                                                                                   3191718798744157734445800069                                                  N                     01321  0000000        000004
12005852768000107DAOUD LEAL ELETRONICA LTDA ME                                         000000003410000000000000000000000000000094008695000000616729850JANEIRO        201301262012121400000000055900000016247000000000016247000000000000000000000000000000050000000000  3020130128   01FS        1                                                                                   3156167298504152944476000089                                                  N                     01321  0000000        000005
12005880850000145NEDERMAN BRASIL COM PROD EX LT                                        000000003410000000000000000000000000000086373178000000614350956002763 A       201209252012081400000000054670000289674000000000336984000000000000000000000000047310050000000000  3020121217   01          2                                                                                   3156143509568160829000100049                                                  N                     01321  0000000        000006
12006000195000156MBA MERCANTIL BRAS DE ACO LTDA                                        0000000034100000000000000000000000000000887698090000001671394550008925B02     201209142012071700000000054560000719581000000000852591000000000000000000000000133010050000000000  3020121217   01          2                                                                                   3191671394556064849251000089                                                  N                     01321  0000000        000007
12006000195000156MBA MERCANTIL BRAS DE ACO LTDA                                        0000000034100000000000000000000000000000906662670000001671394410008920B03     201210142012071700000000054860000576584000000000649160000000000000000000000000072576050000000000  3020121217   01          2                                                                                   3191671394416064849251000039                                                  N                     01321  0000000        000008
12006000195000156MBA MERCANTIL BRAS DE ACO LTDA                                        0000000034100000000000000000000000000000904173150000001667238300008870B03     201210092012071600000000054810000839951000000000953939000000000000000000000000113988050000000000  3020121217   01          2                                                                                   3191667238304064849251000039                                                  N                     01321  0000000        000009
12006000195000156MBA MERCANTIL BRAS DE ACO LTDA                                        0000000034100000000000000000000000000000887698100000001671394560008926B02     201209142012071700000000054560000387716000000000459438000000000000000000000000071722050000000000  3020121217   01          2                                                                                   3191671394564064849251000019                                                  N                     01321  0000000        000010
12006000195000156MBA MERCANTIL BRAS DE ACO LTDA                                        0000000034100000000000000000000000000000885998980000001667238420008870B02     201209112012071600000000054530000839952000000001000196000000000000000000000000160244050000000000  3020121217   01          2                                                                                   3191667238429064849251000039                                                  N                     01321  0000000        000011
12006000195000156MBA MERCANTIL BRAS DE ACO LTDA                                        0000000034100000000000000000000000000000889578520000001671394540008920B02     201209162012071700000000054580000576585000000000680913000000000000000000000000104328050000000000  3020121217   01          2                                                                                   3191671394549064849251000099                                                  N                     01321  0000000        000012
12006000195000156MBA MERCANTIL BRAS DE ACO LTDA                                        0000000034100000000000000000000000000000904173160000001667238280008876B03     201210122012071600000000054840000810320000000000915524000000000000000000000000105204050000000000  3020121217   01          2                                                                                   3191667238288064849251000079                                                  N                     01321  0000000        000013
12006000195000156MBA MERCANTIL BRAS DE ACO LTDA                                        0000000034100000000000000000000000000000904173170000001671394420008925B03     201210122012071700000000054840000719580000000000812970000000000000000000000000093390050000000000  3020121217   01          2                                                                                   3191671394424064849251000069                                                  N                     01321  0000000        000014
12006000195000156MBA MERCANTIL BRAS DE ACO LTDA                                        0000000034100000000000000000000000000000904173180000001671394430008926B03     201210122012071700000000054840000387716000000000438074000000000000000000000000050358050000000000  3020121217   01          2                                                                                   3191671394432064849251000079                                                  N                     01321  0000000        000015
12006000195000156M B A MERCANTIL BRASILEIRA DE                                         0000000023700118P00000002130599 00000000865388240020222900000450009203B03     201212122012081500000000055450000344980000000000347855000000000000000000000000002875050000000000  3020121217   01          2  RUA JUNO  533                                                                    300000000000000000001500  000000000000000                                     N                     00598  0000000        000016
12006000195000156M B A MERCANTIL BRASILEIRA DE                                         0000000023700118P00000002130599 00000000865388270020222900000480009204B03     201212132012081500000000055460000127291000000000128139000000000000000000000000000848050000000000  3020121217   01          2  RUA JUNO  533                                                                    300000000000000000001500  000000000000000                                     N                     00598  0000000        000017
12006000195000156M B A MERCANTIL BRASILEIRA DE                                         0000000023700118P00000002130599 00000000865388300020222900000510009205B03     201212142012081500000000055470000348964000000000350710000000000000000000000000001746050000000000  3020121217   01          2  RUA JUNO  533                                                                    300000000000000000001500  000000000000000                                     N                     00598  0000000        000018
12006000195000156M B A MERCANTIL BRASILEIRA DE                                         0000000023700118P00000002130599 00000000868592700020223600000030009229B03     201212132012081600000000055460000253414000000000255102000000000000000000000000001688050000000000  3020121217   01          2  RUA JUNO  533                                                                    300000000000000000001500  000000000000000                                     N                     00598  0000000        000019
12006000195000156MBA MERCANTIL BRAS DE ACO LTDA                                        0000000034100000000000000000000000000000915733870000002553914390010132B01     201211302012103100000000055330000826269000000000826269000000000000000000000000000000050000000000  3020121130   05          3                                                                                   3112553914394064899001800059                                                  N                     01321  0000000        000020
12007988026000139POINTER DIST DE PROD ELET LTDA                                        0000000034100000000000000000000000000000940086880000002677801306157           201301102012121300000000055740000075528000000000075528000000000000000000000000000000050000000000  3020130110   01FS        1                                                                                   3112677801303077084107000089                                                  N                     01321  0000000        000021
12008272923000104P SANTOS ESQUADRARIAS METAL ME                                        0000000034100000000000000000000000000000915734100000006159682651954           201212052012110700000000055380000408138000000000429357000000000000000000000000021219050000000000  3020121217   01          2                                                                                   3156159682654160141951600029                                                  N                     01321  0000000        000022
12009338857000190FERNANDO  NAGAO  CARDONE  ALVA                                        000000000330000000000000000000000000000091653176000000300000000ALTA 11 2012   201211202012103000000000055230000134632000000000146886000000000000000000000000012254050000000000  3020121217   01          2                                                                                   3947901700000051051630010119                                                  N                     01321  0000000        000023
12009338857000190FERNANDO  NAGAO  CARDONE  ALVA                                        000000000330000000000000000000000000000089697936000000800000000ALTA 10 2012   201210202012092500000000054920000134632000000000159410000000000000000000000000024778050000000000  3020121217   01          2                                                                                   3947901700000051050080010129                                                  N                     01321  0000000        000024
12010839055000143IDEAL   GESTAO DE NEGOCIOS LTD                                        000000000010000000000000000000000000000094008694000000133562000SAO 138981     201212272012121300000000055600000330000000000000330000000000000000000000000000000000050000000000  3020121227   01FS        1                                                                                   3000000169889600001335621779                                                  N                     01321  0000000        000025
12012006058000121WEG TINTAS LTDA                                                       0000000023702727800000000001309 00000000878206060090225400000800016517203     201211202012090600000000055230000459992000000000476543000000000000000000000000016551050000000000  3020121217   01          2  R JUNO  533                                                                      3                         000000000000000                                     N                     00598  0000000        000026
12012006058000121WEG TINTAS LTDA                                                       0000000023702727800000000001309 00000000882668430090225800000760016626903     201211272012091300000000055300000459992000000000472252000000000000000000000000012260050000000000  3020121217   01          2  R JUNO  533                                                                      3                         000000000000000                                     N                     00598  0000000        000027
12035820448000136WHITE MARTINS GASES INDUSTRIAI                                        0000000023700026400000003937925 0000000094008690009023490004358422145 001     201301102012121400000000055740000021808000000000021808000000000000000000000000000000050000000000  3020130110   01FS        1  RUA GANGES  528                                                                  3                         000000000000000                                     N                     00598  0000000        000028
12042956441000101SOLUCOES ACO USIMINAS                                                 0000000034100000000000000000000000000000847452100000002216130340017012402     201209102012071500000000054520000147428000000000176338000000000000000000000000028910050000000000  3020121217   01          2                                                                                   3112216130347293807258000059                                                  N                     01321  0000000        000029
12042956441000101SOLUCOES ACO USIMINAS                                                 0000000034100000000000000000000000000000848180700000002220192900017041002     201209112012071700000000054530000155433000000000185600000000000000000000000000030167050000000000  3020121217   01          2                                                                                   3112220192903293807258000029                                                  N                     01321  0000000        000030
12042956441000101SOLUCOES ACO USIMINAS                                                 0000000034100000000000000000000000000000848180710000002220192910017041202     201209112012071700000000054530000205421000000000245288000000000000000000000000039867050000000000  3020121217   01          2                                                                                   3112220192911293807258000019                                                  N                     01321  0000000        000031
12042956441000101SOLUCOES ACO USIMINAS                                                 0000000034100000000000000000000000000000850740460000002233586800017127201     201208202012072000000000054310000137881000000000170725000000000000000000000000032844050000000000  3020121217   01          2                                                                                   3112233586802293807258000019                                                  N                     01321  0000000        000032
12042956441000101SOLUCOES ACO USIMINAS                                                 0000000034100000000000000000000000000000850740470000002233586810017101002     201209142012071900000000054560000732575000000000870285000000000000000000000000137710050000000000  3020121217   01          2                                                                                   3112233586810293807258000019                                                  N                     01321  0000000        000033
12042956441000101SOLUCOES ACO USIMINAS                                                 0000000034100000000000000000000000000000850740480000002233586820017101202     201209142012071900000000054560000144634000000000171800000000000000000000000000027166050000000000  3020121217   01          2                                                                                   3112233586828293807258000029                                                  N                     01321  0000000        000034
12042956441000101SOLUCOES ACO USIMINAS                                                 0000000034100000000000000000000000000000853154840000002246247030017196702     201209202012072500000000054620000234841000000000276201000000000000000000000000041360050000000000  3020121217   01          2                                                                                   3112246247038293807258000099                                                  N                     01321  0000000        000035
12042956441000101SOLUCOES ACO USIMINAS                                                 0000000034100000000000000000000000000000853154850000002246247040017197302     201209202012072500000000054620000970103000000001140823000000000000000000000000170720050000000000  3020121217   01          2                                                                                   3112246247046293807258000019                                                  N                     01321  0000000        000036
12042956441000101SOLUCOES ACO USIMINAS                                                 0000000034100000000000000000000000000000855028690000002254329380017212902     201209212012072600000000054630000140098000000000164458000000000000000000000000024360050000000000  3020121217   01          2                                                                                   3112254329389293807258000019                                                  N                     01321  0000000        000037
12042956441000101SOLUCOES ACO USIMINAS                                                 0000000034100000000000000000000000000000855028700000002254329390017213002     201209212012072600000000054630000140602000000000165049000000000000000000000000024447050000000000  3020121217   01          2                                                                                   3112254329397293807258000089                                                  N                     01321  0000000        000038
12042956441000101SOLUCOES ACO USIMINAS                                                 0000000034100000000000000000000000000000846595700000002210880280016980502     201209102012071200000000054520000156071000000000186647000000000000000000000000030576050000000000  3020121217   01          2                                                                                   3112210880285293807258000039                                                  N                     01321  0000000        000039
12042956441000101SOLUCOES ACO USIMINAS                                                 0000000034100000000000000000000000000000846595710000002210880290016980602     201209102012071200000000054520000426094000000000509590000000000000000000000000083496050000000000  3020121217   01          2                                                                                   3112210880293293807258000019                                                  N                     01321  0000000        000040
12042956441000101SOLUCOES ACO USIMINAS                                                 0000000034100000000000000000000000000000847452070000002216130350005922202     201209102012071600000000054520000172071000000000205783000000000000000000000000033712050000000000  3020121217   01          2                                                                                   3112216130354293807258000049                                                  N                     01321  0000000        000041
12042956441000101SOLUCOES ACO USIMINAS                                                 0000000034100000000000000000000000000000855028770000002254329400017220502     201209212012072700000000054630000981022000000001151716000000000000000000000000170694050000000000  3020121217   01          2                                                                                   3112254329405293807258000099                                                  N                     01321  0000000        000042
12042956441000101SOLUCOES ACO USIMINAS                                                 0000000034100000000000000000000000000000856906410000002262886280017266201     201208282012073000000000054390000119472000000000146001000000000000000000000000026529050000000000  3020121217   01          2                                                                                   3112262886289293807258000089                                                  N                     01321  0000000        000043
12042956441000101SOLUCOES ACO USIMINAS                                                 0000000034100000000000000000000000000000856906420000002262886290017266301     201208282012073000000000054390000145069000000000177259000000000000000000000000032190050000000000  3020121217   01          2                                                                                   3112262886297293807258000099                                                  N                     01321  0000000        000044
12042956441000101SOLUCOES ACO USIMINAS                                                 0000000034100000000000000000000000000000859590620000002274469790017353702     201209282012080300000000054700000081053000000000094013000000000000000000000000012960050000000000  3020121217   01          2                                                                                   3112274469793293807258000069                                                  N                     01321  0000000        000045
12047190731000100DE CASTRO LOUR ENG IND LTDA                                           00000000341000000000000000000000000000008782051600000023399954103026614 0     201209182012082100000000054600001047621000000001233021000000000000000000000000185400050000000000  3020121217   01          2                                                                                   3112339995410036884500400039                                                  N                     01321  0000000        000046
12047190731000100DE CASTRO LOUR ENG IND LTDA                                           00000000341000000000000000000000000000008782051700000023399954203026614 0     201211202012082100000000055230001047621000000001103241000000000000000000000000055620050000000000  3020121217   01          2                                                                                   3112339995428036884500400079                                                  N                     01321  0000000        000047
12047190731000100DE CASTRO LOUR ENG IND LTDA                                           00000000341000000000000000000000000000008782051800000023399955703026636 0     201211212012082200000000055240000940804000000000988904000000000000000000000000048100050000000000  3020121217   01          2                                                                                   3112339995576036884500400019                                                  N                     01321  0000000        000048
12047190731000100DE CASTRO LOUR ENG IND LTDA                                           00000000341000000000000000000000000000008782052000000023399955303026632 0     201209192012082200000000054610000952073000000001118681000000000000000000000000166608050000000000  3020121217   01          2                                                                                   3112339995535036884500400019                                                  N                     01321  0000000        000049
12047190731000100DE CASTRO LOUR ENG IND LTDA                                           00000000341000000000000000000000000000008782052100000023399955903026643 0     201209202012082300000000054620000867039000000001017079000000000000000000000000150040050000000000  3020121217   01          2                                                                                   3112339995592036884500400049                                                  N                     01321  0000000        000050
12047190731000100DE CASTRO LOUR ENG IND LTDA                                           00000000341000000000000000000000000000008782052400000023399956003026643 0     201211222012082300000000055250000867039000000000909664000000000000000000000000042625050000000000  3020121217   01          2                                                                                   3112339995600036884500400069                                                  N                     01321  0000000        000051
12047190731000100DE CASTRO LOUR ENG IND LTDA                                           00000000341000000000000000000000000000008782052500000023399955603026636 0     201209192012082200000000054610000940804000000001105454000000000000000000000000164650050000000000  3020121217   01          2                                                                                   3112339995568036884500400049                                                  N                     01321  0000000        000052
12047190731000100DE CASTRO LOUR ENG IND LTDA                                           00000000341000000000000000000000000000008782052800000023399956303026648 0     201211222012082300000000055250000976053000000001024053000000000000000000000000048000050000000000  3020121217   01          2                                                                                   3112339995634036884500400019                                                  N                     01321  0000000        000053
12047190731000100DE CASTRO LOUR ENG IND LTDA                                           00000000341000000000000000000000000000008782052700000023399956203026648 0     201209202012082300000000054620000976053000000001145013000000000000000000000000168960050000000000  3020121217   01          2                                                                                   3112339995626036884500400029                                                  N                     01321  0000000        000054
12047190731000100DE CASTRO LOUR ENG IND LTDA                                           00000000341000000000000000000000000000008996247900000024766209203027184 0     201211302012100500000000055330001153047000000001191603000000000000000000000000038556050000000000  3020121217   01          2                                                                                   3112476620920036884500400089                                                  N                     01321  0000000        000055
12047190731000100DE CASTRO LOUR ENG IND LTDA                                           00000000341000000000000000000000000000008782050900000023399953503026612 0     201209182012082100000000054600001111489000000001308229000000000000000000000000196740050000000000  3020121217   01          2                                                                                   3112339995352036884500400019                                                  N                     01321  0000000        000056
12047190731000100DE CASTRO LOUR ENG IND LTDA                                           00000000341000000000000000000000000000008782059400000023602715303026745 0     201211282012082900000000055310000903175000000000936919000000000000000000000000033744050000000000  3020121217   01          2                                                                                   3112360271533036884500400039                                                  N                     01321  0000000        000057
12047190731000100DE CASTRO LOUR ENG IND LTDA                                           00000000341000000000000000000000000000008782059500000023602714703026734 0     201211272012082800000000055300000997834000000001037074000000000000000000000000039240050000000000  3020121217   01          2                                                                                   3112360271475036884500400019                                                  N                     01321  0000000        000058
12047190731000100DE CASTRO LOUR ENG IND LTDA                                           00000000341000000000000000000000000000008782059900000023602715003026744 0     201211292012082900000000055320000146594000000000151778000000000000000000000000005184050000000000  3020121217   01          2                                                                                   3112360271509036884500400069                                                  N                     01321  0000000        000059
12047190731000100DE CASTRO LOUR ENG IND LTDA                                           00000000341000000000000000000000000000009041732300000025008465203027256 0     201212112012101600000000055440001108602000000001121682000000000000000000000000013080050000000000  3020121217   01          2                                                                                   3112500846525036884500400019                                                  N                     01321  0000000        000060
12047190731000100DE CASTRO LOUR ENG IND LTDA                                           00000000341000000000000000000000000000009041732500000025008465503027257 0     201212132012101600000000055460000751900000000000757816000000000000000000000000005916050000000000  3020121217   01          2                                                                                   3112500846558036884500400029                                                  N                     01321  0000000        000061
12047190731000100DE CASTRO LOUR ENG IND LTDA                                           00000000341000000000000000000000000000009041732900000025008464603027216 0     201212052012101000000000055380000225377000000000230693000000000000000000000000005316050000000000  3020121217   01          2                                                                                   3112500846467036884500400029                                                  N                     01321  0000000        000062
12047190731000100DE CASTRO LOUR ENG IND LTDA                                           00000000341000000000000000000000000000009041733100000025008464903027234 0     201212062012101100000000055390001029597000000001051872000000000000000000000000022275050000000000  3020121217   01          2                                                                                   3112500846491036884500400029                                                  N                     01321  0000000        000063
12047190731000100DE CASTRO LOUR ENG IND LTDA                                           00000000341000000000000000000000000000008782051200000023399953803026613 0     201209182012082100000000054600001107989000000001304099000000000000000000000000196110050000000000  3020121217   01          2                                                                                   3112339995386036884500400039                                                  N                     01321  0000000        000064
12048775225000146SEIKI IND COM E CONFECCOES LTD                                        000000003410000000000000000000000000000089337376000000244697151014914001      201210232012092500000000054950000052000000000000056290000000000000000000000000004290050000000000  3020121217   01          2                                                                                   3112446971510017444824100089                                                  N                     01321  0000000        000065
12051180370000199IGUAFER FERRO E ACO LTDA                                              0000000034100000000000000000000000000000852309100000002239389789443 B         201209022012071800000000054440000168275000000000197955000000000000000000000000029680050000000000  3020121217   01          2                                                                                   3112239389789077149484600089                                                  N                     01321  0000000        000066
12051180370000199IGUAFER FERRO E ACO LTDA                                              0000000034100000000000000000000000000000852309110000002239389799443 C         201209122012071800000000054540000168275000000000195155000000000000000000000000026880050000000000  3020121217   01          2                                                                                   3112239389797077149484600089                                                  N                     01321  0000000        000067
12054382510000108SETENTA IND E COM DE MADEIRAS                                         0000000034100000000000000000000000000000860403430000002277814474462 A         201209042012080700000000054460000191200000000000230304000000000000000000000000039104050000000000  3020121217   01          2                                                                                   3112277814474057049175300069                                                  N                     01321  0000000        000068
12056993512000150CYKLOP DO BRASIL EMBALAGENS SA                                        0000000034100000000000000000000000000000874070500000002362586810134932        201210012012090300000000054730000083607000000000107246000000000000000000000000023639050000000000  3020121217   01          2                                                                                   3112362586813025700015800019                                                  N                     01321  0000000        000069
12059588111000103BANCO VOTORANTIM S A                                                  000000000010000000000000000000000000000094008691000000192873000144539 1       201301072012121300000000055710000302873000000000302873000000000000000000000000000000050000000000  3020130107   01FS        1                                                                                   3000000145167244321928731199                                                  N                     01321  0000000        000070
12059588111000103BANCO VOTORANTIM S A                                                  000000000010000000000000000000000000000094008692000000192874000144539 3       201303042012121300000000056270000302964000000000302964000000000000000000000000000000050000000000  3020130304   01FS        1                                                                                   3000000145167244321928741159                                                  N                     01321  0000000        000071
12059588111000103BANCO VOTORANTIM S A                                                  000000000010000000000000000000000000000094008693000000192875000144539 2       201302042012121300000000055990000302873000000000302873000000000000000000000000000000050000000000  3020130204   01FS        1                                                                                   3000000145167244321928751149                                                  N                     01321  0000000        000072
12062510367000102ITANHAEM TRANSP DE MAQUINAS LT                                        000000003410000000000000000000000000000087407049000000236463199667            201209202012090400000000054620000248220000000000335604000000000000000000000000087384050000000000  3020121217   01          2                                                                                   3112364631997005770252400049                                                  N                     01321  0000000        000073
12062539994000176LEALFER INDUSTRIA E COMERCIO D                                        0000000003300000000000000000000000000000902449830000001800000000005648902     201212042012100900000000055370000447825000000000450108000000000000000000000000003044050000000000  3020121207   05          3                                                                                   3915298380000000278718010419                                                  N                     01321  0000000        000074
12062539994000176LEALFER INDUSTRIA E COMERCIO D                                        0000000003300000000000000000000000000000919321940000006400000000005787001     201212042012110500000000055370000596925000000000599969000000000000000000000000004058050000000000  3020121207   05          3                                                                                   3915298380000000288764010419                                                  N                     01321  0000000        000075
12062539994000176LEALFER INDUSTRIA E COMERCIO D                                        0000000003300000000000000000000000000000919321950000008000000000005786801     201212042012110500000000055370000838712000000000842989000000000000000000000000005702050000000000  3020121207   05          3                                                                                   3915298380000000288780010459                                                  N                     01321  0000000        000076
12062539994000176LEALFER IN E COM DE ACO LTDA                                          0000000034100000000000000000000000000000915733930000002554594090005780401     201212132012110100000000055460000543333000000000543333000000000000000000000000000000050000000000  3020121213   06          3                                                                                   3112554594096076103324000029                                                  N                     01321  0000000        000077
12062944582000111AS SOLUCOES COMERCIAL LTDA                                            00000000341000000000000000000000000000009400868900000090000422118568 A        201301092012121200000000055730000051100000000000051100000000000000000000000000000000050000000000  3020130109   01FS        1                                                                                   3109000042214067251093000019                                                  N                     01321  0000000        000078
12064952757000168WALMAC COM DE PROD QUIMICOS LT                                        0000000034100000000000000000000000000000896979510000002462157570021611        201211292012100400000000055320000219267000000000227025000000000000000000000000007758050000000000  3020121217   01          2                                                                                   3112462157572064807961400059                                                  N                     01321  0000000        000079
12064952757000168WALMAC COM DE PROD QUIMICOS LT                                        0000000034100000000000000000000000000000860403450000002275821700020148        201210052012080300000000054770000219267000000000250730000000000000000000000000031463050000000000  3020121217   01          2                                                                                   3112275821703064807961400029                                                  N                     01321  0000000        000080
12066084377000184AUTO MECANICA M Z LTDA ME                                             0000000023701479600000000206385 0000000094008696009013234703179380            201301112012121200000000055750000082000000000000082000000000000000000000000000000000050000000000  3020130111   01FS        1  TAMAINDE 1410                                                                    3                         000000000000000                                     N                     00598  0000000        000081
12066841552000130R V SEG PATRIMONIAL S C LTDA                                          00000000341000000000000000000000000000008887329800000090002213622136          201210102012091100000000054820000374758000000000383258000000000000000000000000008500050000000000  3020121217   01          2                                                                                   3109000221365001838994000069                                                  N                     01321  0000000        000082
12066841552000130R V SEG PATRIMONIAL LTDA                                              00000000341000000000000000000000000000008852483200000090002192721927          201209102012081000000000054520000483241000000000499019000000000000000000000000015778050000000000  3020121217   01          2                                                                                   3109000219270001835253400099                                                  N                     01321  0000000        000083
12069284248000128ISOCOAT TINTAS E VERNIZES LTDA                                        0000000034100000000000000000000000000000841061040000002182507930052085        201209172012070200000000054590000236130000000000293460000000000000000000000000057330050000000000  3020121217   01          2                                                                                   3112182507932077430121200019                                                  N                     01321  0000000        000084
900008500000000043843841                                                                                                                                                                                                                                                                                                                                                                                                                                                                01321  0000000        000085
