0000147602043799295000110ALTAMIRA IND METALURGICA LTDA           20100470000002012081517411500000        2    230A                                                                                          000000000000000                                                                                                                                                                                                                                                                                   000001
12007839659000185CABEMA CABOS E ACO LTDA                                               000000003410000000000000000000000000000084406385000000219934022019060 1 1     201208100000000000000000054210000020460000000000020970000000000000000000000000000510050000000000  3020120815   01MFBUHA    500                                                                                 3112199340228007879488000019010000       00019060/01-01                       N                     00000 10020256        000002
12009259079000144SAFRA COMERCIAL DE PAPEIS LTDA                                        00000000033000000000000000000000000000008465958000000006000000000126816       201208140000000000000000054250000021600000000000021708000000000000000000000000000108050000000000  3020120815   01MFBUHA    500                                                                                 3918361880000000322506010449010000       000126816                            N                     00000 10020256        000003
12006000195000156M B A MERCANTIL BRASILEIRA DE R RINCAO 220                            0365108023700118000000002128292 I000000000009498000000000000000               201208150000000000000000000000000000000000000000641590000000000000000000000000000000010000008515  0120120815   01HA        000                                                                                 3                                        00NF.NRO.08515/02-03                 N                     00000 10020256        000004
12008508119000181DINARI FOMENTO MERCANTIL LTDA AV PAULO FACCINI 649 ATUAL 645 2 E 3 PAV0711100023702499600000000172308 I000000000009499000000000000000               201208150000000000000000000000000000000000000000300000000000000000000000000000000000050000003142  0120120815   01HA        000                                                                                 3                                        0003142                              N                     00000 10020256        000005
12042956441000101SOLUCOES EM ACO USIMINAS S A  RUA  DIANOPOLIS  670 710                0312510000100000 0000000000000  I000000000009500000000000000000               201208150000000000000000054260000248007000000000248007000000000000000000000000000000010000165007  3120120815   01HA        000                                                                                 3000000169660100000795311719             000165007/02                         N                     00000 10020256        000006
12042956441000101SOLUCOES EM ACO USIMINAS S A  RUA  DIANOPOLIS  670 710                0312510000100000 0000000000000  I000000000009501000000000000000               201208150000000000000000054260000193839000000000193839000000000000000000000000000000010000165008  3120120815   01HA        000                                                                                 3000000169660100000795341799             000165008/02                         N                     00000 10020256        000007
12042956441000101SOLUCOES EM ACO USIMINAS S A  RUA  DIANOPOLIS  670 710                0312510000100000 0000000000000  I000000000009502000000000000000               201208150000000000000000054260000093000000000000093000000000000000000000000000000000010000165006  3120120815   01HA        000                                                                                 3000000169660100000795281789             000165006/02                         N                     00000 10020256        000008
12006209559000102MAZURKY IND COM EMBALAGENS LTDRUA  DAS ORQUIDEAS  475                 0981039034100000 0000000000000  I000000000009503000000000000000               201208150000000000000000054260000085229000000000085229000000000000000000000000000000010000009600  3120120815   01HA        000                                                                                 3181523120612151434240900039             009600/03                            N                     00000 10020256        000009
12004666281000177PROCRED TECNOLOGIA E FOMENTO M                                        0000000023702017600000000220000 I000000000009504009022010000031               201208150000000000000000054260000062329000000000062329000000000000000000000000000000010000003773  3120120815   01HA        000                                                                                 3201709220100000310022000039             0003773/01                           N                     00000 10020256        000010
12061217188000119TELAS METALICAS TELMETAL LTDA RUA ALDEIA DA PRATA  38                 0368008000100000 0000000000000  I000000000009505000000000000000               201208150000000000000000054260000053865000000000053865000000000000000000000000000000010000005305  3120120815   01HA        000                                                                                 3000000115031800000054941739             005305/02-03                         N                     00000 10020256        000011
12048775225000146SEIKI IND COM CONFECCOES LTDA RUA  DR JOSE MARIA DE AZEVEDO  318 332  0155002034100000 0000000000000  I000000000009506000000000000000               201208150000000000000000054260000052468000000000052468000000000000000000000000000000010000013178  3120120815   01HA        000                                                                                 3181523491812017444824100039             00013178                             N                     00000 10020256        000012
12061786604000108HERWAL ABRASIVOS E MAQUINAS LTR TOLEDO BARBOSA 746 BELENZINHO         0306100023700165100000000835188 I000000000009507000000000000000               201208150000000000000000000000000000000000000000039290000000000000000000000000000000010000001554  0120120815   01HA        000                                                                                 3                                        0001554                              N                     00000 10020256        000013
12061217188000119TELAS METALICAS TELMETAL LTDA RUA ALDEIA DA PRATA  38                 0368008000100000 0000000000000  I000000000009508000000000000000               201208150000000000000000054260000030080000000000030080000000000000000000000000000000010000005302  3120120815   01HA        000                                                                                 3000000115031800000054901719             0005302/03                           N                     00000 10020256        000014
12061217188000119TELAS METALICAS TELMETAL LTDA RUA ALDEIA DA PRATA  38                 0368008000100000 0000000000000  I000000000009509000000000000000               201208150000000000000000054260000026482000000000026482000000000000000000000000000000010000005304  3120120815   01HA        000                                                                                 3000000115031800000054921729             0005304/01-01                        N                     00000 10020256        000015
12005584462000117RAPIDEZREAL TRANSPORTES LTDA  AV MOREIRA PAZ 52 SALA 05               9520000003300000 0000000000000  I000000000009510000000000000000               201208150000000000000000054260000450195000000000450195000000000000000000000000000000050000120876  3120120815   01HA        000                                                                                 3909546160000001125303010149             00120876/01                          N                     00000 10020256        000016
12004455726000170INTERCLICK INFOR S C LTDA     RUA  JORGE AUGUSTO  83   SL 84          0364500023702451100000000099449 I000000000009511006000101003968               201208150000000000000000054260001103000000000001103000000000000000000000000000000000010000001151  3120120815   01HA        000                                                                                 3245106001010039680009944099             0001151/01                           N                     00000 10020256        000017
900001800000000003422052                                                                                                                                                                                    000000000000000                                                                                                                                                                                                                                                    00001600705320002440554        000018
