0000147602043799295000110ALTAMIRA INDUSTRIA METALURGICA LT       202000000028620121016141353             2                                                                                                  000000000000000                                                                                                                                                                                                                                                                                   000001
12043799295000110ALTAMIRA INDUSTRIA METAL LTDA                                         0000000003303809500000130004071 I000000000010031000000000000000               201210160000000000000000000000000000000000000006000000000000000000000000000000000000050000000001  0820121016   01HF        5001411000000006424322000000000000000                                               3D0000000101                               01                                 S                     01133 10020256        000002
900000300000000006000000                                                                                                                                                                                    000000000000000                                                                                                                                                                                                                                                    00000100000000000000000        000003
