0000147602043799295000110ALTAMIRA INDUSTRIA METALURGICA LT       202000000010620120816055406             1                                                                                                                                                                                                                                                                                                                                                                                                    000001
12000193273000108TECELAGEM ROMA LTDA                                                   0000000023700284400000000410977 000000008374605200900000001581216213   C      201208102012062900000000054210000124248000000000126486000000000000000000000000002238050000000000  3020120816   01          2  RUA TAMAINDE 1410  1410                                                          3                         000000000000000                                     N                     00598  0000000        000002
12002503185000182ANDAIMES MAQUINAS BIG LTDA EPP                                        0000000034100000000000000000000000000000849855270000002226334124889           201208132012072000000000054240000016500000000000016500000000000000000000000000000000050000000000  3020120813   06          3                                                                                   3112226334129650303800900019                                                  N                     01321  0000000        000003
12003489596000123BEND FLEX INDUSTRIA E COMERCIO                                        000000001040000000000000000000000000000084571465000000666408300586            201208092012071100000000054200000098600000000000098600000000000000000000000000000000050000000000  3020120809   06          3                                                                                   3314166640811558700000019919                                                  N                     01321  0000000        000004
12004398623000115MET GALHARDO IND E COM LTDA                                           0000000034100000000000000000000000000000864554410000002296792864893           201209102012081400000000054520000291720000000000291720000000000000000000000000000000050000000000  3020120910   01FS        1                                                                                   3112296792867046770270000079                                                  N                     01321  0000000        000005
12004666281000177PROCRED TECNOLOGIA E FOMENTO M                                        0000000023702017600000000220000 00000000848180780090220100000313773           201208102012071600000000054210000061714000000000062329000000000000000000000000000738050000000000  3020120815   06          3  RUA RUA TAMANDARE 1410                  FAST FIXX FIXADORES LTDA                 3                         004992631000195                                     N                     00598  0000000        000006
12005151518000140BELENUS DO BRASIL LTDA                                                0000000023703389800000000015091 0000000081465329009021440000994R126741832     201208142012051600000000054250000460800000000000463842000000000000000000000000003042050000000000  3020120816   01          2  RUA GANGES  528                                                                  3                         000000000000000                                     N                     00598  0000000        000007
12005335228000156DINAMICA INF E TELECOM LTDA EP                                        0000000023703257300000000503215 0000000086455447009032570016796MO008820A      201208302012080600000000054410000020000000000000020000000000000000000000000000000000050000000000  3020120830   01FS        1  RUA JUNO  533                                                                    3                         000000000000000                                     N                     00598  0000000        000008
12005584462000117RAPIDEZREAL TRANSPORTES LTDA                                          00000000033000000000000000000000000000008540496600000003000000012087601       201208092012072100000000054200000450195000000000452595000000000000000000000000003000050000000000  3020120813   06          3                                                                                   3909546160000001125303010119                                                  N                     01321  0000000        000009
12006000195000156M B A MERCANTIL BRASILEIRA DE                                         0000000023700118P00000002128292 00000000860403500090218400000150008737B01     201208012012062900000000054120000582257000000000582257000000000000000000000000000000050000000000  3020120809   05          3  RUA JUNO  533                                                                    3                         000000000000000                                     N                     00598  0000000        000010
12006000195000156M B A MERCANTIL BRASILEIRA DE                                         0000000023700118P00000002128292 00000000861207290090215700000480008455B02     201208012012060100000000054120000596770000000000596770000000000000000000000000000000050000000000  3020120810   05          3  RUA JUNO  533                                                                    3                         000000000000000                                     N                     00598  0000000        000011
12006000195000156M B A MERCANTIL BRASILEIRA DE                                         0000000023700118P00000002128292 00000000861207300090219200000080008786B01     201208022012070500000000054130000301975000000000301975000000000000000000000000000000050000000000  3020120810   05          3  RUA JUNO  533                                                                    3                         000000000000000                                     N                     00598  0000000        000012
12006000195000156M B A MERCANTIL BRASILEIRA DE                                         0000000023700118P00000002128292 00000000863731810090213700001160008262B03     201208072012051500000000054180000903026000000000903026000000000000000000000000000000050000000000  3020120815   05          3  RUA JUNO  533                                                                    3                         000000000000000                                     N                     00598  0000000        000013
12006000195000156M B A MERCANTIL BRASILEIRA DE                                         0000000023700118P00000002128292 00000000863731820090216400000110008514B2      201208072012061100000000054180000506300000000000506300000000000000000000000000000000050000000000  3020120815   05          3  RUA JUNO  533                                                                    3                         000000000000000                                     N                     00598  0000000        000014
12006000195000156M B A MERCANTIL BRASILEIRA DE                                         0000000023700118P00000002128292 00000000863731830090216400000180008513B02     201208062012061100000000054170000549460000000000549460000000000000000000000000000000050000000000  3020120815   05          3  RUA JUNO  533                                                                    3                         000000000000000                                     N                     00598  0000000        000015
12006000195000156MBA MERCANTIL BRAS DE ACO LTDA                                        0000000034100000000000000000000000000000848957230000008667238630008870B01     201208142012071900000000054250000839952000000000841122000000000000000000000000001170050000000000  3020120816   01          2                                                                                   3458667238638064849251000019                                                  N                     01321  0000000        000016
12006000195000156M B A MERCANTIL BRASILEIRA DE                                         0000000023700118P00000002128292 00000000864554480090216400000040008515B02     201208082012061100000000054190000641590000000000641590000000000000000000000000000000050000000000  3020120816   01FS        1  RUA JUNO  533                                                                    3                         000000000000000                                     N                     00598  0000000        000017
12006000195000156M B A MERCANTIL BRASILEIRA DE                                         0000000023700118P00000002128292 00000000864554490090216600000600008542B02     201208082012061300000000054190001076000000000001076000000000000000000000000000000000050000000000  3020120816   01FS        1  RUA JUNO  533                                                                    3                         000000000000000                                     N                     00598  0000000        000018
12006000195000156M B A MERCANTIL BRASILEIRA DE                                         0000000023700118P00000002130599 00000000848180720020220100000030008872B01     201208142012071700000000054250000112772000000000113148000000000000000000000000000376050000000000  3020120816   01          2  RUA JUNO  533                                                                    3                         000000000000000                                     N                     00598  0000000        000019
12006000195000156M B A MERCANTIL BRASILEIRA DE                                         0000000023700118P00000002128292 00000000856906490090212800000360008181B03     201207302012050700000000054100001184938000000001184938000000000000000000000000000000050000000000  3020120803   05          3  RUA JUNO 533                                                                     3                         000000000000000                                     N                     00598  0000000        000020
12006209559000102MAZURKY IND COM EMB LTDA                                              000000003410000000000000000000000000000084985524000000222532652009600 3       201208132012070200000000054240000084805000000000085441000000000000000000000000000636050000000000  3020120816   01          2                                                                                   3112225326522151434240900019                                                  N                     01321  0000000        000021
12009419898000101LUSITANO INDUSTRIA C E P LTDA                                         00000000341000000000000000000000000000008465957700000090000717501 9797 1      201208132012071600000000054240000037571000000000037821000000000000000000000000000375050000000000  3020120815   06          3                                                                                   3109000071756001160072300089                                                  N                     01321  0000000        000022
12011202309000180FIEL TOOLS DISTRIBUIDORA DE MA                                        0000000023702087700000000000116 0000000086455442009000020190021009002 1       201209112012081400000000054530000041000000000000041000000000000000000000000000000000050000000000  3020120911   01FS        1  R TAMAINDE  1 410   RUA GANGES  520 E 52                                         3                         000000000000000                                     N                     00598  0000000        000023
12011202309000180FIEL TOOLS DISTRIBUIDORA DE MA                                        0000000023702087700000000000116 0000000086455443009000020190022009002 2       201209182012081400000000054600000041000000000000041000000000000000000000000000000000050000000000  3020120918   01FS        1  R TAMAINDE  1 410   RUA GANGES  520 E 52                                         3                         000000000000000                                     N                     00598  0000000        000024
12012006058000121WEG TINTAS LTDA                                                       0000000023702727800000000001309 00000000864554440090222800000730015908401     201209282012081400000000054700000306569000000000306569000000000000000000000000000000050000000000  3020120928   01FS        1  R JUNO  533                                                                      3                         000000000000000                                     N                     00598  0000000        000025
12012006058000121WEG TINTAS LTDA                                                       0000000023702727800000000001309 00000000864554450090222800000740015908402     201210132012081400000000054850000306569000000000306569000000000000000000000000000000050000000000  3020121015   01FS        1  R JUNO  533                                                                      3                         000000000000000                                     N                     00598  0000000        000026
12012006058000121WEG TINTAS LTDA                                                       0000000023702727800000000001309 00000000864554460090222800000750015908403     201210282012081400000000055000000306662000000000306662000000000000000000000000000000050000000000  3020121029   01FS        1  R JUNO  533                                                                      3                         000000000000000                                     N                     00598  0000000        000027
12012006058000121WEG TINTAS LTDA                                                       0000000023702727800000000001309 00000000821490950090215600001080014231103     201208152012060100000000054260000459992000000000460605000000000000000000000000000613050000000000  3020120816   01          2  R JUNO  533                                                                      3                         000000000000000                                     N                     00598  0000000        000028
12012006058000121WEG TINTAS LTDA                                                       0000000023702727800000000001309 00000000827244620090216600000710014454802     201208122012061300000000054230000306569000000000308201000000000000000000000000001632050000000000  3020120816   01          2  R JUNO  533                                                                      3                         000000000000000                                     N                     00598  0000000        000029
12012006058000121WEG TINTAS LTDA                                                       0000000023702727800000000001309 00000000828904030090217000001020014515402     201208142012061500000000054250000459854000000000461080000000000000000000000000001226050000000000  3020120816   01          2  R JUNO  533                                                                      3                         000000000000000                                     N                     00598  0000000        000030
12012931789000183RCM IMPORTADORA DE FERRAMENTAS                                        0000000000100000000000000000000000000000864554140000003020260003837           201209112012081400000000054530000026100000000000026100000000000000000000000000000000050000000000  3020120911   01FS        1                                                                                   3000000225937100043020261749                                                  N                     01321  0000000        000031
12035820448000136WHITE MARTINS GASES INDUSTRIAI                                        0000000023700026400000003937925 0000000084571470009021980000617351461 001     201208102012071400000000054210000085208000000000087596000000000000000000000000002388050000000000  3020120816   01          2  RUA GANGES  528                                                                  3                         000000000000000                                     N                     00598  0000000        000032
12035820448000136WHITE MARTINS GASES INDUSTRIAI                                        0000000023700026400000003937925 0000000084745213009022000001338352522 001     201208142012071800000000054250000081150000000000082989000000000000000000000000001839050000000000  3020120816   01          2  RUA GANGES  528                                                                  3                         000000000000000                                     N                     00598  0000000        000033
12042956441000101SOLUCOES ACO USIMINAS                                                 0000000034100000000000000000000000000000844063820000002198870020016923301     201208072012071000000000054180000443105000000000443105000000000000000000000000000000050000000000  3020120807   06          3                                                                                   3112198870027293807258000059                                                  N                     01321  0000000        000034
12042956441000101SOLUCOES ACO USIMINAS                                                 0000000034100000000000000000000000000000826558230000002112172700016459202     201208072012061100000000054180000123454000000000125430000000000000000000000000002223050000000000  3020120815   06          3                                                                                   3112112172708293807258000049                                                  N                     01321  0000000        000035
12042956441000101SOLUCOES ACO USIMINAS                                                 0000000034100000000000000000000000000000826558240000002112172710016459402     201208072012061100000000054180000747525000000000759485000000000000000000000000013455050000000000  3020120815   06          3                                                                                   3112112172716293807258000059                                                  N                     01321  0000000        000036
12042956441000101SOLUCOES ACO USIMINAS                                                 0000000034100000000000000000000000000000826558250000002112172720016459702     201208072012061100000000054180000500178000000000508178000000000000000000000000009000050000000000  3020120815   06          3                                                                                   3112112172724293807258000019                                                  N                     01321  0000000        000037
12042956441000101SOLUCOES ACO USIMINAS                                                 0000000034100000000000000000000000000000826558260000002112172730016459802     201208072012061100000000054180000155720000000000158208000000000000000000000000002799050000000000  3020120815   06          3                                                                                   3112112172732293807258000099                                                  N                     01321  0000000        000038
12042956441000101SOLUCOES ACO USIMINAS                                                 0000000034100000000000000000000000000000826558310000002112172690016458802     201208072012061100000000054180000231416000000000235120000000000000000000000000004167050000000000  3020120815   06          3                                                                                   3112112172690293807258000049                                                  N                     01321  0000000        000039
12042956441000101SOLUCOES EM ACO USIMINAS S A                                          000000000010000000000000000000000000000082724451000000078503000000164692002   201208072012061300000000054180000442468000000000442468000000000000000000000000000000050000000000  3020120807   06          3                                                                                   3000000169660100000785031749                                                  N                     01321  0000000        000040
12042956441000101SOLUCOES ACO USIMINAS                                                 0000000034100000000000000000000000000000809687520000002030116250015962403     201208072012051400000000054180000640704000000000640704000000000000000000000000000000050000000000  3020120807   06          3                                                                                   3112030116258293807258000049                                                  N                     01321  0000000        000041
12042956441000101SOLUCOES ACO USIMINAS                                                 0000000034100000000000000000000000000000809687530000002030116260015962503     201208072012051400000000054180000276266000000000276266000000000000000000000000000000050000000000  3020120807   06          3                                                                                   3112030116266293807258000029                                                  N                     01321  0000000        000042
12051598902000102NEPIN ACESSORIOS INDUSTRIAIS L                                        000000000010000000000000000000000000000085152927000000476537000015465 1 1     201208102012072400000000054210000034000000000000034784000000000000000000000000000784050000000000  3020120816   01          2                                                                                   3043924765374327000101481199                                                  N                     01321  0000000        000043
12053585766000141MULTIACOS INDUSTRIA E COMERCIO                                        0000000000100000000000000000000000000000864554150000008070080000004437501     201209052012081400000000054470000431398000000000431398000000000000000000000000000000050000000000  3020120905   01FS        1                                                                                   3043978070081912000139523119                                                  N                     01321  0000000        000044
12053585766000141MULTIACOS INDUSTRIA E COMERCIO                                        0000000000100000000000000000000000000000864554160000008069530000004375102     201209062012081400000000054480000484407000000000484407000000000000000000000000000000050000000000  3020120906   01FS        1                                                                                   3043978069531912000139523119                                                  N                     01321  0000000        000045
12053585766000141MULTIACOS INDUSTRIA E COMERCIO                                        0000000000100000000000000000000000000000864554170000008069030000004294603     201209042012081400000000054460000407138000000000407138000000000000000000000000000000050000000000  3020120904   01FS        1                                                                                   3043978069031912000139523169                                                  N                     01321  0000000        000046
12053585766000141MULTIACOS INDUSTRIA E COMERCIO                                        0000000000100000000000000000000000000000864554180000008069540000004375202     201209072012081400000000054490000311850000000000311850000000000000000000000000000000050000000000  3020120910   01FS        1                                                                                   3043978069541912000139523119                                                  N                     01321  0000000        000047
12053585766000141MULTIACOS INDUSTRIA E COMERCIO                                        0000000000100000000000000000000000000000864554190000008069470000004360702     201209042012081400000000054460001201246000000001201246000000000000000000000000000000050000000000  3020120904   01FS        1                                                                                   3043978069471912000139523119                                                  N                     01321  0000000        000048
12053585766000141MULTIACOS INDUSTRIA E COMERCIO                                        0000000000100000000000000000000000000000864554200000008069930000004423601     201209042012081400000000054460000625122000000000625122000000000000000000000000000000050000000000  3020120904   01FS        1                                                                                   3043978069931912000139523169                                                  N                     01321  0000000        000049
12053585766000141MULTIACOS INDUSTRIA E COMERCIO                                        0000000000100000000000000000000000000000864554210000008069940000004423701     201209042012081400000000054460000551694000000000551694000000000000000000000000000000050000000000  3020120904   01FS        1                                                                                   3043978069941912000139523159                                                  N                     01321  0000000        000050
12053585766000141MULTIACOS INDUSTRIA E COMERCIO                                        0000000000100000000000000000000000000000864554220000008070010000004429601     201209052012081400000000054470000937596000000000937596000000000000000000000000000000050000000000  3020120905   01FS        1                                                                                   3043978070011912000139523119                                                  N                     01321  0000000        000051
12053585766000141MULTIACOS INDUSTRIA E COMERCIO                                        0000000000100000000000000000000000000000864554230000008070250000004447201     201209062012081400000000054480000437910000000000437910000000000000000000000000000000050000000000  3020120906   01FS        1                                                                                   3043978070251912000139523139                                                  N                     01321  0000000        000052
12053585766000141MULTIACOS INDUSTRIA E COMERCIO                                        0000000000100000000000000000000000000000864554240000008070290000004452001     201209072012081400000000054490000891244000000000891244000000000000000000000000000000050000000000  3020120910   01FS        1                                                                                   3043978070291912000139523159                                                  N                     01321  0000000        000053
12053585766000141MULTIACOS INDUSTRIA E COMERCIO                                        0000000000100000000000000000000000000000864554250000008070220000004445101     201209062012081400000000054480000295938000000000295938000000000000000000000000000000050000000000  3020120906   01FS        1                                                                                   3043978070221912000139523139                                                  N                     01321  0000000        000054
12053585766000141MULTIACOS INDUSTRIA E COMERCIO                                        0000000000100000000000000000000000000000864554260000008070230000004445201     201209062012081400000000054480000231078000000000231078000000000000000000000000000000050000000000  3020120906   01FS        1                                                                                   3043978070231912000139523129                                                  N                     01321  0000000        000055
12053585766000141MULTIACOS INDUSTRIA E COMERCIO                                        0000000000100000000000000000000000000000864554270000008070090000004437601     201209052012081400000000054470000321214000000000321214000000000000000000000000000000050000000000  3020120905   01FS        1                                                                                   3043978070091912000139523129                                                  N                     01321  0000000        000056
12053585766000141MULTIACOS INDUSTRIA E COMERCIO                                        0000000000100000000000000000000000000000864554280000008070240000004446101     201209062012081400000000054480000708230000000000708230000000000000000000000000000000050000000000  3020120906   01FS        1                                                                                   3043978070241912000139523179                                                  N                     01321  0000000        000057
12053585766000141MULTIACOS INDUSTRIA E COMERCIO                                        0000000000100000000000000000000000000000864554290000008070100000004437701     201209072012081400000000054490000149768000000000149768000000000000000000000000000000050000000000  3020120910   01FS        1                                                                                   3043978070101912000139523179                                                  N                     01321  0000000        000058
12053585766000141MULTIACOS INDUSTRIA E COMERCIO                                        0000000000100000000000000000000000000000864554300000008070110000004437801     201209052012081400000000054470000449134000000000449134000000000000000000000000000000050000000000  3020120905   01FS        1                                                                                   3043978070111912000139523169                                                  N                     01321  0000000        000059
12053585766000141MULTIACOS INDUSTRIA E COMERCIO                                        0000000000100000000000000000000000000000864554330000008070300000004453001     201209072012081420120907054490000637974000000000149094000000000488880000000000000000050000000000  3020120910   01FS        1                                                                                   3043978070301912000139523119                                                  N                     01321  0000000        000060
12056428188000128EDVALDO SANTOS ROSA ME                                                0000000023700898200000000005622 0000000085959068009011222000658194919598      201208142012080700000000054250000037000000000000037986000000000000000000000000000986050000000000  3020120816   01          2  RUA TAMAINDE  1410                                                               3                         000000000000000                                     N                     00598  0000000        000061
12056993900000131CIA METALURGICA PRADA                                                 0000000034100000000000000000000000000000811374600000002032626060023915703     201208072012051500000000054180000628352000000000628352000000000000000000000000000000050000000000  3020120807   06          3                                                                                   3112032626064293800573900029                                                  N                     01321  0000000        000062
12057158057000130COMERCIAL ELETRICA PJ LTDA                                            0000000023703394400000000972983 00000000842436850090219200008900000305028     201208012012070400000000054120000079196000000000083141000000000000000000000000003945050000000000  3020120816   01          2  R TAMAINDE 1410                                                                  3                         000000000000000                                     N                     00598  0000000        000063
12061217188000119TELAS METALICAS TELMETAL LTDA                                         0000000000100000000000000000000000000000864554360000000056130005494 1 3       201209112012081400000000054530000008494000000000008494000000000000000000000000000000050000000000  3020120911   01FS        1                                                                                   3000000115031800000056131749                                                  N                     01321  0000000        000064
12061217188000119TELAS METALICAS TELMETAL LTDA                                         0000000000100000000000000000000000000000864554370000000056140005494 2 3       201209182012081400000000054600000008494000000000008494000000000000000000000000000000050000000000  3020120918   01FS        1                                                                                   3000000115031800000056141799                                                  N                     01321  0000000        000065
12061217188000119TELAS METALICAS TELMETAL LTDA                                         0000000034100000000000000000000000000000864554380000009000029235484 3 3       201209202012081300000000054620000113553000000000113553000000000000000000000000000000050000000000  3020120920   01FS        1                                                                                   3109000029239077099894600049                                                  N                     01321  0000000        000066
12061217188000119TELAS METALICAS TELMETAL LTDA                                         0000000034100000000000000000000000000000864554390000009000029215484 1 3       201209062012081300000000054480000113555000000000113555000000000000000000000000000000050000000000  3020120906   01FS        1                                                                                   3109000029213077099894600059                                                  N                     01321  0000000        000067
12061217188000119TELAS METALICAS TELMETAL LTDA                                         0000000034100000000000000000000000000000864554400000009000029225484 2 3       201209132012081300000000054550000113553000000000113553000000000000000000000000000000050000000000  3020120913   01FS        1                                                                                   3109000029221077099894600049                                                  N                     01321  0000000        000068
12061217188000119TELAS METALICAS TELMETAL LTDA                                         0000000000100000000000000000000000000000864554310000000056150005494 3 3       201209252012081400000000054670000008494000000000008494000000000000000000000000000000050000000000  3020120925   01FS        1                                                                                   3000000115031800000056151739                                                  N                     01321  0000000        000069
12061217188000119TELAS METALICAS TELMETAL LTDA                                         0000000034100000000000000000000000000000851529150000009000028785293 2 3       201208082012070400000000054190000172173000000000172632000000000000000000000000000918050000000000  3020120809   06          3                                                                                   3109000028785077099894600089                                                  N                     01321  0000000        000070
12061217188000119TELAS METALICAS TELMETAL LTDA                                         0000000034100000000000000000000000000000863731720000009000029235484 3 3       201209202012081300000000054620000113553000000000113553000000000000000000000000000000050000000000  3020120920   05          3                                                                                   3109000029237077073552000059                                                  N                     01321  0000000        000071
12061217188000119TELAS METALICAS TELMETAL LTDA                                         0000000034100000000000000000000000000000863731730000009000029215484 1 3       201209062012081300000000054480000113555000000000113555000000000000000000000000000000050000000000  3020120906   05          3                                                                                   3109000029211077073552000069                                                  N                     01321  0000000        000072
12061217188000119TELAS METALICAS TELMETAL LTDA                                         0000000034100000000000000000000000000000863731740000009000029225484 2 3       201209132012081300000000054550000113553000000000113553000000000000000000000000000000050000000000  3020120913   05          3                                                                                   3109000029229077073552000019                                                  N                     01321  0000000        000073
12061217188000119TELAS METALICAS TELMETAL LTDA                                         0000000034100000000000000000000000000000851529100000009000028735291 3 3       201208152012070400000000054260000010719000000000010748000000000000000000000000000029050000000000  3020120816   01          2                                                                                   3109000028736077099894600019                                                  N                     01321  0000000        000074
12061217188000119TELAS METALICAS TELMETAL LTDA                                         0000000034100000000000000000000000000000851529130000009000028765292 3 3       201208152012070400000000054260000055682000000000055830000000000000000000000000000148050000000000  3020120816   01          2                                                                                   3109000028769077099894600059                                                  N                     01321  0000000        000075
12061217188000119TELAS METALICAS TELMETAL LTDA                                         0000000034100000000000000000000000000000851529160000009000028795293 3 3       201208152012070400000000054260000172173000000000172632000000000000000000000000000459050000000000  3020120816   01          2                                                                                   3109000028793077099894600019                                                  N                     01321  0000000        000076
12061721320000125COMERCIAL DE PNEUS ROMA LTDA                                          000000000010000000000000000000000000000086455432000000914171000158201         201209122012081400000000054540000028000000000000028000000000000000000000000000000000050000000000  3020120912   01FS        1                                                                                   3043979141713333000853153119                                                  N                     01321  0000000        000077
12061721320000125COMERCIAL DE PNEUS ROMA LTDA                                          000000000010000000000000000000000000000086455434000000914172000158202         201210122012081400000000054840000028000000000000028000000000000000000000000000000000050000000000  3020121015   01FS        1                                                                                   3043979141723333000853153179                                                  N                     01321  0000000        000078
12061721320000125COMERCIAL DE PNEUS ROMA LTDA                                          000000000010000000000000000000000000000086455435000000914173000158203         201211112012081400000000055140000028000000000000028000000000000000000000000000000000050000000000  3020121112   01FS        1                                                                                   3043979141733333000853153119                                                  N                     01321  0000000        000079
12062173661000176INDUFIX IND E COM LTDA                                                0000000023704130000000000085898 000000008498553500702205000012000035860 A     201208152012071600000000054260000067554000000000067666000000000000000000000000000112050000000000  3020120816   01          2  RUA GANGES 528                                                                   3                         000000000000000                                     N                     00598  0000000        000080
12066144957000110POSTO DE MOLAS MABAFIL LTDA ME                                        000000000010000000000000000000000000000085074054000000000697000000380         201208122012072300000000054230000041450000000000041855000000000000000000000000000405050000000000  3020120816   01          2                                                                                   3000000162353900000006971749                                                  N                     01321  0000000        000081
12075483040000130REX MAQUINAS E EQUIPAMENTOS LT                                        0000000023702656500000000000701 000000008280180500202167000043473762 2 2      201208012012060600000000054120000434000000000000437615000000000000000000000000004338050000000000  3020120806   06          3  RUA  GANGES  528                                                                 3                         000000000000000                                     N                     00598  0000000        000082
12075483040000130REX MAQUINAS E EQUIPAMENTOS LT                                        0000000023702656500000000000701 000000008205624700202153000047072487 2 3      201208152012052300000000054260000434000000000000434723000000000000000000000000000723050000000000  3020120816   01          2  RUA  GANGES  528                                                                 3                         000000000000000                                     N                     00598  0000000        000083
12092693118000160BRADESCO SAUDE S A                                                    0000000023700448000000001533991 00000000829780050050100702629130000000000     201207202012061800000000054000000645861000000000657093000000000000000000000000011232050000000000  3020120816   01          2                                                                                   3                         000000000000000                                     N                     00598  0000000        000084
900008500000000027179177                                                                                                                                                                                                                                                                                                                                                                                                                                                                00598  0000000        000085
