0000147602043799295000110ALTAMIRA INDUSTRIA METALURGICA LT       202000000014720121016062246             1                                                                                                                                                                                                                                                                                                                                                                                                    000001
12000365592000145AMPRO LABORATORIO E ENGENHARIA                                        00000000001000000000000000000000000000008723186200000000520500003316A         201209292012083100000000054710000083233000000000086391000000000000000000000000003324050000000000  3020121008   05          3                                                                                   3000000133159100000052051749                                                  N                     01321  0000000        000002
12000846804000106BRIDA LUBRIF LTDA                                                     000000003410000000000000000000000000000088524831000000900409916002347751      201210112012091300000000054830000059225000000000060115000000000000000000000000000890050000000000  3020121016   01          2                                                                                   3109004099167293816860200019                                                  N                     01321  0000000        000003
12001852612000175BT EQUIPAMENTOS INDUSTRIAIS LT                                        000000000330000000000000000000000000000087577366000000610000000594061         201210012012090600000000054730000041502000000000043377000000000000000000000000001875050000000000  3020121016   01          2                                                                                   3913651000000000594061010479                                                  N                     01321  0000000        000004
12002460454000170AUT SERVICE COMERCIO E SERVICO                                        0000000023702591700000000007692 000000008515292000901322060028234532 2        201209172012072400000000054590000238750000000000264549000000000000000000000000025799050000000000  3020121016   01          2  RUA JUNO  533                                                                    3                         000000000000000                                     N                     00598  0000000        000005
12002469103000120COMPROCRED FOMENTO MERCANTIL L                                        0000000023703511400000000106739 0000000088012259002022550000043022145 12      201210012012090500000000054730000093000000000000097650000000000000000000000000004650050000000000  3020121016   01          2  RUA TAMAINDE 1410 VILA NOVA MANCH SAO PATRANSPORTADORA FIOROT LTDA               3                         000252984000106                                     N                     00598  0000000        000006
12002503185000182ANDAIMES MAQUINAS BIG LTDA EPP                                        000000003410000000000000000000000000000086282613000000228719913011660         201208302012081000000000054410000012000000000000012616000000000000000000000000000616050000000000  3020121016   01          2                                                                                   3112287199130650303800900039                                                  N                     01321  0000000        000007
12002503185000182ANDAIMES E MAQUINAS BIG LTDA                                          000000003410000000000000000000000000000087820531000000233954448011791         201209212012082700000000054630000026000000000000026945000000000000000000000000000945050000000000  3020121016   01          2                                                                                   3112339544481925303435000019                                                  N                     01321  0000000        000008
12002558199000101OMEGA TUBOS COMERCIAL LTDA                                            0000000003300000000000000000000000000000874070730000004200000000028157B01     201210022012082800000000054740000149856000000000151354000000000000000000000000001997050000000000  3020121005   05          3                                                                                   3947509770000000098442020359                                                  N                     01321  0000000        000009
12002583013000166ITAN TRANSP DE CARGAS EXC E IN                                        000000003410000000000000000000000000000088769805000000241619340008 D          201210142012091800000000054860000105350000000000106192000000000000000000000000000842050000000000  3020121016   01          2                                                                                   3112416193400005770252400019                                                  N                     01321  0000000        000010
12002583013000166ITAN TRANSP DE CARGAS EXC E IN                                        000000003410000000000000000000000000000088350835000000239377421008 A          201210142012091400000000054860000192500000000000194040000000000000000000000000001540050000000000  3020121016   01          2                                                                                   3112393774214005770252400019                                                  N                     01321  0000000        000011
12002765757000100DUBRONZE IND E COM DE METAIS                                          00000000341000000000000000000000000000009005228900000024815153119710          201211012012101100000000055040000027264000000000027264000000000000000000000000000000050000000000  3020121101   01FS        1                                                                                   3112481515313162620722700099                                                  N                     01321  0000000        000012
12003163055000100JN FOMENTO MERCANTIL LTDA                                             000000004220000000000000000000000000000088191353000000000000000509 12         201210092012091200000000054810000015000000000000015210000000000000000000000000000210050000000000  3020121016   01          2                                                                                   3700400001182791920957609119                                                  N                     01321  0000000        000013
12003372804000100TROPICAL CLEAN COMERCIAL LTDA                                         00000000033000000000000000000000000000008996249300000059000000056986          201210142012091800000000054860000048259000000000048581000000000000000000000000000322050000000000  3020121016   01          2                                                                                   3913215100000006396259020199                                                  N                     01321  0000000        000014
12003489596000123BEND FLEX I COMERCIO LTDA                                             000000003410000000000000000000000000000089518988000000173425770617            201210012012083000000000054730000722200000000000743500000000000000000000000000021300050000000000  3020121016   01          2                                                                                   3191734257709157734445800079                                                  N                     01321  0000000        000015
12003489596000123BEND FLEX I COMERCIO LTDA                                             000000003410000000000000000000000000000088350832000000171879874608            201209122012082100000000054540000695250000000000741728000000000000000000000000046478050000000000  3020121016   01          2                                                                                   3191718798744157734445800069                                                  N                     01321  0000000        000016
12003489596000123BEND FLEX I COMERCIO LTDA                                             000000003410000000000000000000000000000088599899000000171434574613            201209172012081600000000054590000585000000000000618379000000000000000000000000033379050000000000  3020121016   01          2                                                                                   3191714345748157734445800019                                                  N                     01321  0000000        000017
12005335228000156DINAMICA INF E TELECOM LTDA EP                                        0000000023703257300000000503215 0000000088443245009032570017396MO008960A      201209302012091700000000054720000020000000000000021005000000000000000000000000001072050000000000  3020121015   06          3  RUA JUNO  533                                                                    3                         000000000000000                                     N                     00598  0000000        000018
12005852768000107DAOUD LEAL ELETRONICA LTDA ME                                         00000000033000000000000000000000000000008757736700000021000000000000000001097 201209262012090500000000054680000016558000000000017989000000000000000000000000001431050000000000  3020121016   01          2                                                                                   3949927090000000027421010429                                                  N                     01321  0000000        000019
12005880850000145NEDERMAN BRASIL COM PROD EX LT                                        000000003410000000000000000000000000000086373178000000614350956002763 A       201209252012081400000000054670000289674000000000301644000000000000000000000000011970050000000000  3020121016   01          2                                                                                   3156143509568160829000100049                                                  N                     01321  0000000        000020
12005880850000145NEDERMAN BRASIL COM PROD EX LT                                        000000003410000000000000000000000000000086373179000000614350957002763 B       201210162012081400000000054880000289674000000000289674000000000000000000000000000570050000000000  3020121016   01          2                                                                                   3156143509576160829000100049                                                  N                     01321  0000000        000021
12006000195000156MBA MERCANTIL BRAS DE ACO LTDA                                        0000000034100000000000000000000000000000872952960000002358952460009420B01     201209282012083100000000054700000953214000000000953214000000000000000000000000000000050000000000  3020120928   05          3                                                                                   3112358952466064899001800099                                                  N                     01321  0000000        000022
12006000195000156M B A MERCANTIL BRASILEIRA DE                                         0000000023700118P00000002130599 00000000868592690020223600000020009229B02     201210112012081600000000054830000253414000000000255524000000000000000000000000002110050000000000  3020121016   01          2  RUA JUNO  533                                                                    3                         000000000000000                                     N                     00598  0000000        000023
12006000195000156M B A MERCANTIL BRASILEIRA DE                                         0000000023700118P00000002130599 00000000865388230020222900000440009203B02     201210102012081500000000054820000344980000000000348430000000000000000000000000003450050000000000  3020121016   01          2  RUA JUNO  533                                                                    3                         000000000000000                                     N                     00598  0000000        000024
12006000195000156M B A MERCANTIL BRASILEIRA DE                                         0000000023700118P00000002130599 00000000865388260020222900000470009204B02     201210112012081500000000054830000127292000000000128352000000000000000000000000001060050000000000  3020121016   01          2  RUA JUNO  533                                                                    3                         000000000000000                                     N                     00598  0000000        000025
12006000195000156M B A MERCANTIL BRASILEIRA DE                                         0000000023700118P00000002130599 00000000848180770020220100000340008905B03     201210112012071900000000054830000155300000000000156595000000000000000000000000001295050000000000  3020121016   01          2  RUA JUNO  533                                                                    3                         000000000000000                                     N                     00598  0000000        000026
12006000195000156M B A MERCANTIL BRASILEIRA DE                                         0000000023700118P00000002130599 00000000865388290020222900000500009205B02     201210122012081500000000054840000348964000000000351292000000000000000000000000002328050000000000  3020121016   01          2  RUA JUNO  533                                                                    3                         000000000000000                                     N                     00598  0000000        000027
12006000195000156M B A MERCANTIL BRASILEIRA DE                                         0000000023700118P00000002130599 00000000865388320020222900000530009206B02     201210132012081500000000054850000527560000000000530197000000000000000000000000002637050000000000  3020121016   01          2  RUA JUNO  533                                                                    3                         000000000000000                                     N                     00598  0000000        000028
12006000195000156MBA MERCANTIL BRAS DE ACO LTDA                                        0000000034100000000000000000000000000000885998980000001667238420008870B02     201209112012071600000000054530000839952000000000897772000000000000000000000000057820050000000000  3020121016   01          2                                                                                   3191667238429064849251000039                                                  N                     01321  0000000        000029
12006000195000156MBA MERCANTIL BRAS DE ACO LTDA                                        0000000034100000000000000000000000000000886866570000001667238410008874B02     201209132012071600000000054550000802826000000000854933000000000000000000000000052107050000000000  3020121016   01          2                                                                                   3191667238411064849251000049                                                  N                     01321  0000000        000030
12006000195000156MBA MERCANTIL BRAS DE ACO LTDA                                        0000000034100000000000000000000000000000887698080000001667238400008876B02     201209142012071600000000054560000810321000000000861329000000000000000000000000051008050000000000  3020121016   01          2                                                                                   3191667238403064849251000059                                                  N                     01321  0000000        000031
12006000195000156MBA MERCANTIL BRAS DE ACO LTDA                                        0000000034100000000000000000000000000000889578520000001671394540008920B02     201209162012071700000000054580000576585000000000610605000000000000000000000000034020050000000000  3020121016   01          2                                                                                   3191671394549064849251000099                                                  N                     01321  0000000        000032
12006000195000156MBA MERCANTIL BRAS DE ACO LTDA                                        0000000034100000000000000000000000000000887698090000001671394550008925B02     201209142012071700000000054560000719581000000000764861000000000000000000000000045280050000000000  3020121016   01          2                                                                                   3191671394556064849251000089                                                  N                     01321  0000000        000033
12006000195000156MBA MERCANTIL BRAS DE ACO LTDA                                        0000000034100000000000000000000000000000887698100000001671394560008926B02     201209142012071700000000054560000387716000000000412132000000000000000000000000024416050000000000  3020121016   01          2                                                                                   3191671394564064849251000019                                                  N                     01321  0000000        000034
12006000195000156MBA MERCANTIL BRAS DE ACO LTDA                                        0000000034100000000000000000000000000000900522760000002479124020009784B02     201211292012100400000000055320000785343000000000785343000000000000000000000000000000050000000000  3020121129   01FS        1                                                                                   3112479124029064899001800019                                                  N                     01321  0000000        000035
12006000195000156MBA MERCANTIL BRAS DE ACO LTDA                                        0000000034100000000000000000000000000000900522770000002479124240009815B02     201212032012100800000000055360000680988000000000680988000000000000000000000000000000050000000000  3020121203   01FS        1                                                                                   3112479124243064899001800019                                                  N                     01321  0000000        000036
12006000195000156MBA MERCANTIL BRAS DE ACO LTDA                                        0000000034100000000000000000000000000000900522780000002479124030009784B03     201212272012100400000000055600000785343000000000785343000000000000000000000000000000050000000000  3020121227   01FS        1                                                                                   3112479124037064899001800019                                                  N                     01321  0000000        000037
12006000195000156MBA MERCANTIL BRAS DE ACO LTDA                                        0000000034100000000000000000000000000000900522790000002479124230009815B01     201211052012100800000000055080000783136000000000783136000000000000000000000000000000050000000000  3020121105   01FS        1                                                                                   3112479124235064899001800089                                                  N                     01321  0000000        000038
12006000195000156MBA MERCANTIL BRAS DE ACO LTDA                                        0000000034100000000000000000000000000000900522800000002479124010009784B01     201211012012100400000000055040000903144000000000903144000000000000000000000000000000050000000000  3020121101   01FS        1                                                                                   3112479124011064899001800019                                                  N                     01321  0000000        000039
12006000195000156MBA MERCANTIL BRAS DE ACO LTDA                                        0000000034100000000000000000000000000000900522810000002479124390009839B03     201301012012100900000000055650001220055000000001220055000000000000000000000000000000050000000000  3020130102   01FS        1                                                                                   3112479124391064899001800059                                                  N                     01321  0000000        000040
12006000195000156MBA MERCANTIL BRAS DE ACO LTDA                                        0000000034100000000000000000000000000000900522820000002479124330009825B02     201212042012100900000000055370000356580000000000356580000000000000000000000000000000050000000000  3020121204   01FS        1                                                                                   3112479124334064899001800069                                                  N                     01321  0000000        000041
12006000195000156MBA MERCANTIL BRAS DE ACO LTDA                                        0000000034100000000000000000000000000000900522830000002479124340009825B03     201301012012100900000000055650000356580000000000356580000000000000000000000000000000050000000000  3020130102   01FS        1                                                                                   3112479124342064899001800049                                                  N                     01321  0000000        000042
12006000195000156MBA MERCANTIL BRAS DE ACO LTDA                                        0000000034100000000000000000000000000000900522840000002479124370009839B01     201211062012100900000000055090001403064000000001403064000000000000000000000000000000050000000000  3020121106   01FS        1                                                                                   3112479124375064899001800019                                                  N                     01321  0000000        000043
12006000195000156MBA MERCANTIL BRAS DE ACO LTDA                                        0000000034100000000000000000000000000000900522850000002479124250009815B03     201212312012100800000000055640000680989000000000680989000000000000000000000000000000050000000000  3020121231   01FS        1                                                                                   3112479124250064899001800019                                                  N                     01321  0000000        000044
12006000195000156MBA MERCANTIL BRAS DE ACO LTDA                                        0000000034100000000000000000000000000000900522860000002479124380009839B02     201212042012100900000000055370001220055000000001220055000000000000000000000000000000050000000000  3020121204   01FS        1                                                                                   3112479124383064899001800079                                                  N                     01321  0000000        000045
12006000195000156MBA MERCANTIL BRAS DE ACO LTDA                                        0000000034100000000000000000000000000000900522870000002479124320009825B01     201211062012100900000000055090000410067000000000410067000000000000000000000000000000050000000000  3020121106   01FS        1                                                                                   3112479124326064899001800019                                                  N                     01321  0000000        000046
12006867297000173MARCOS ANTONIO RIBEIRO ACOS                                           0000000034100000000000000000000000000000881913470000002386992240000433        201210082012091200000000054800000042270000000000043390000000000000000000000000001120050000000000  3020121016   01          2                                                                                   3112386992245046769908800059                                                  N                     01321  0000000        000047
12007175725000160WEG EQUIPAMENTOS ELETRICOS SA                                         0000000023702727800000000196800 00000000832180610090217400004980095359902     201209202012052300000000054620000272787000000000282225000000000000000000000000009438050000000000  3020121016   01          2  R JUNO  533                                                                      3                         000000000000000                                     N                     00598  0000000        000048
12007565346000186ALFLEX PLASTICOS E FERRAGENS L                                        0000000023701416800000000407607 0000000088769811009013226800205S000000195     201210152012092400000000054870000187500000000000191875000000000000000000000000004375050000000000  3020121016   01          2  RUA TAMAINDE  1410                                                               3                         000000000000000                                     N                     00598  0000000        000049
12007988026000139POINTER DIST DE PROD ELET LTDA                                        0000000034100000000000000000000000000000900522950000002405182085452           201210162012091800000000054880000018200000000000018200000000000000000000000000000000050000000000  3020121016   01FS        1                                                                                   3112405182083077084107000039                                                  N                     01321  0000000        000050
12008508119000181DINARI FOMENTO MERCANTIL LTDA                                         0000000023702499600000000178306 0000000086282616002022260000004206 B          201209242012081000000000054660000170000000000000178670000000000000000000000000009180050000000000  3020121001   06          3  RUA JUNO  533 VL N MANCHESTER SAO PAULO PANKRO LOGISTICA E TRANSPORTES LTDA EPP  300000000000000000141500  002269980000158                                     N                     00598  0000000        000051
12009419898000101LUSITANO INDUSTRIA C E P LTDA                                         00000000341000000000000000000000000000008653882000000090000757101 10137 2     201209192012081500000000054610000035135000000000038294000000000000000000000000003159050000000000  3020121016   01          2                                                                                   3109000075716001160072300049                                                  N                     01321  0000000        000052
12011202309000180FIEL TOOLS DISTRIBUIDORA DE MA                                        0000000023702087700000000000116 0000000089962492009000020194031009403 1       201210042012090600000000054760000041000000000000043091000000000000000000000000002091050000000000  3020121016   01          2  R TAMAINDE  1 410   RUA GANGES  520 E 52                                         3                         000000000000000                                     N                     00598  0000000        000053
12011318709000156IMPAKTO TRANSPORTES                                                   0000000000100000000000000000000000000000887697860000000000930006586           201210112012092100000000054830000052974000000000056062000000000000000000000000003088050000000000  3020121016   01          2                                                                                   3000000245286000000000931799                                                  N                     01321  0000000        000054
12011318709000156IMPAKTO TRANSPORTES                                                   0000000000100000000000000000000000000000887697870000000001090005398           201210122012092100000000054840000011000000000000011622000000000000000000000000000622050000000000  3020121016   01          2                                                                                   3000000245286000000001091769                                                  N                     01321  0000000        000055
12012006058000121WEG TINTAS LTDA                                                       0000000023702727800000000001309 00000000872318650090224700001030016359601     201210152012083100000000054870000459854000000000460467000000000000000000000000000613050000000000  3020121016   01          2  R JUNO  533                                                                      3                         000000000000000                                     N                     00598  0000000        000056
12012006058000121WEG TINTAS LTDA                                                       0000000023702727800000000001309 00000000861207260090222200000900015775001     201209222012080800000000054640000306569000000000316361000000000000000000000000009792050000000000  3020121016   01          2  R JUNO  533                                                                      3                         000000000000000                                     N                     00598  0000000        000057
12012006058000121WEG TINTAS LTDA                                                       0000000023702727800000000001309 00000000861207270090222200000910015775002     201210072012080800000000054790000306569000000000310241000000000000000000000000003672050000000000  3020121016   01          2  R JUNO  533                                                                      3                         000000000000000                                     N                     00598  0000000        000058
12012006058000121WEG TINTAS LTDA                                                       0000000023702727800000000001309 00000000864554440090222800000730015908401     201209282012081400000000054700000306569000000000313913000000000000000000000000007344050000000000  3020121016   01          2  R JUNO  533                                                                      3                         000000000000000                                     N                     00598  0000000        000059
12012006058000121WEG TINTAS LTDA                                                       0000000023702727800000000001309 00000000864554450090222800000740015908402     201210132012081400000000054850000306569000000000307793000000000000000000000000001224050000000000  3020121016   01          2  R JUNO  533                                                                      3                         000000000000000                                     N                     00598  0000000        000060
12012006058000121WEG TINTAS LTDA                                                       0000000023702727800000000001309 00000000849855330090220500001210015343102     201209182012072000000000054600000306569000000000317993000000000000000000000000011424050000000000  3020121016   01          2  R JUNO  533                                                                      3                         000000000000000                                     N                     00598  0000000        000061
12012006058000121WEG TINTAS LTDA                                                       0000000023702727800000000001309 00000000849855340090220500001220015343103     201210032012072000000000054750000306662000000000311966000000000000000000000000005304050000000000  3020121016   01          2  R JUNO  533                                                                      3                         000000000000000                                     N                     00598  0000000        000062
12012006058000121WEG TINTAS LTDA                                                       0000000023702727800000000001309 00000000841061130090218800000850014990203     201209182012070500000000054600000306662000000000318086000000000000000000000000011424050000000000  3020121016   01          2  R JUNO  533                                                                      3                         000000000000000                                     N                     00598  0000000        000063
12012006058000121WEG TINTAS LTDA                                                       0000000023702727800000000001309 00000000870177480090224100000970016248001     201210112012082700000000054830000306569000000000308609000000000000000000000000002040050000000000  3020121016   01          2  R JUNO  533                                                                      3                         000000000000000                                     N                     00598  0000000        000064
12012006058000121WEG TINTAS LTDA                                                       0000000023702727800000000001309 00000000854049550090221200001010015513002     201209252012072700000000054670000459854000000000472727000000000000000000000000012873050000000000  3020121016   01          2  R JUNO  533                                                                      3                         000000000000000                                     N                     00598  0000000        000065
12012006058000121WEG TINTAS LTDA                                                       0000000023702727800000000001309 00000000854049560090221200001020015513003     201210102012072700000000054820000459992000000000463670000000000000000000000000003678050000000000  3020121016   01          2  R JUNO  533                                                                      3                         000000000000000                                     N                     00598  0000000        000066
12012006058000121WEG TINTAS LTDA                                                       0000000023702727800000000001309 00000000856071260090221400000830015587302     201209292012073100000000054710000459854000000000470275000000000000000000000000010421050000000000  3020121016   01          2  R JUNO  533                                                                      3                         000000000000000                                     N                     00598  0000000        000067
12012006058000121WEG TINTAS LTDA                                                       0000000023702727800000000001309 00000000856071270090221400000840015587303     201210142012073100000000054860000459992000000000461218000000000000000000000000001226050000000000  3020121016   01          2  R JUNO  533                                                                      3                         000000000000000                                     N                     00598  0000000        000068
12012006058000121WEG TINTAS LTDA                                                       0000000023702727800000000001309 00000000868126340090223500001170016086601     201210052012082100000000054770000306569000000000311057000000000000000000000000004488050000000000  3020121016   01          2  R JUNO  533                                                                      3                         000000000000000                                     N                     00598  0000000        000069
12012006058000121WEG TINTAS LTDA                                                       0000000023702727800000000001309 00000000842436840090219200000860015068803     201209222012070900000000054640000306662000000000316454000000000000000000000000009792050000000000  3020121016   01          2  R JUNO  533                                                                      3                         000000000000000                                     N                     00598  0000000        000070
12012006058000121WEG TINTAS LTDA                                                       0000000023702727800000000001309 00000000844839240090219500000730015168703     201209252012071200000000054670000306662000000000315230000000000000000000000000008568050000000000  3020121016   01          2  R JUNO  533                                                                      3                         000000000000000                                     N                     00598  0000000        000071
12012006058000121WEG TINTAS LTDA                                                       0000000023702727800000000001309 00000000847452160090220000000930015248103     201209302012071700000000054720000306662000000000313190000000000000000000000000006528050000000000  3020121016   01          2  R JUNO  533                                                                      3                         000000000000000                                     N                     00598  0000000        000072
12014775592000128HELIO ADRIANO DA SILVA ME                                             0000000003300000000000000000000000000000887698150000005800000008682           201210102012092100000000054820000040000000000000040959000000000000000000000000000959050000000000  3020121016   01          2                                                                                   3956114740000000000058010159                                                  N                     01321  0000000        000073
12014775592000128HELIO ADRIANO DA SILVA ME                                             0000000003300000000000000000000000000000880122770000004900000008565 8566      201209282012091000000000054700000034500000000000035603000000000000000000000000001103050000000000  3020121016   01          2                                                                                   3956114740000000000049010129                                                  N                     01321  0000000        000074
12015251825000156JOSEFA A LIMA DOS SANTOS EPP                                          000000003410000000000000000000000000000088191339000000795424054841            201210112012091300000000054830000021500000000000022700000000000000000000000000001200050000000000  3020121016   01          2                                                                                   3157954240547810513909400039                                                  N                     01321  0000000        000075
12016802308000190TRANSMARRECO LTDA                                                     000000000330000000000000000000000000000088769814000000640000000353 12         201210052012092100000000054770000106581000000000112233000000000000000000000000005652050000000000  3020121016   01          2                                                                                   3907636240000000643564010119                                                  N                     01321  0000000        000076
12033325184001786ALSCO TOALHEIRO BRASIL                                                0000000023703396000000001490850 0000000087820607009000002716505VM27165        201209262012090600000000054680000045665000000000046539000000000000000000000000000920050000000000  3020121015   06          3  RUA  GANGES 528                                                                  3                         000000000000000                                     N                     00598  0000000        000077
12033325184001786ALSCO TOALHEIRO BRASIL                                                0000000023703396000000001490850 0000000087820608009000028814703VM00288147     201210052012090100000000054770000026347000000000026607000000000000000000000000000286050000000000  3020121015   06          3  RUA  GANGES 528                                                                  3                         000000000000000                                     N                     00598  0000000        000078
12034028316000103ECT DEGER   DR 74 SPI                                                 0000000000100000000000000000000000000000892292530000003250580009909017438     201210112012092800000000054830000049970000000000049970000000000000000000000000000000050000000000  3020121011   06          3                                                                                   3000000212652700003250581779                                                  N                     01321  0000000        000079
12035820448000136WHITE MARTINS GASES INDUSTRIAI                                        0000000023700026400000003937925 0000000086812633009022350001453369229 001     201209182012082200000000054600000056805000000000059993000000000000000000000000003264050000000000  3020121015   06          3  RUA GANGES  528                                                                  3                         000000000000000                                     N                     00598  0000000        000080
12035820448000136WHITE MARTINS GASES INDUSTRIAI                                        0000000023700026400000003937925 0000000088191338009022570001466379316 001     201210092012091300000000054810000085208000000000087108000000000000000000000000001900050000000000  3020121016   01          2  RUA GANGES  528                                                                  3                         000000000000000                                     N                     00598  0000000        000081
12035820448000136WHITE MARTINS GASES INDUSTRIAI                                        0000000023700026400000003937925 0000000088266840009022580000485380402 001     201210112012091400000000054830000028403000000000029016000000000000000000000000000613050000000000  3020121016   01          2  RUA GANGES  528                                                                  3                         000000000000000                                     N                     00598  0000000        000082
12035820448000136WHITE MARTINS GASES INDUSTRIAI                                        0000000023700026400000003937925 0000000087067052009022420002594374120 001     201209252012082900000000054670000113610000000000119053000000000000000000000000005443050000000000  3020121016   01          2  RUA GANGES  528                                                                  3                         000000000000000                                     N                     00598  0000000        000083
12035820448000136WHITE MARTINS GASES INDUSTRIAI                                        0000000023700026400000003937925 0000000087820600009022540001838377866 001     201210042012090700000000054760000202876000000000207749000000000000000000000000004873050000000000  3020121016   01          2  RUA GANGES  528                                                                  3                         000000000000000                                     N                     00598  0000000        000084
12035820448000136WHITE MARTINS GASES INDUSTRIAI                                        0000000023700026400000003937925 0000000086907101009022370010705372273 001     201209202012082400000000054620000017600000000000018550000000000000000000000000000950050000000000  3020121016   01          2  RUA GANGES  528                                                                  3                         000000000000000                                     N                     00598  0000000        000085
12035820448000136WHITE MARTINS GASES INDUSTRIAI                                        0000000023700026400000003937925 0000000086907102009022370011747372774 001     201209202012082400000000054620000040575000000000042790000000000000000000000000002215050000000000  3020121016   01          2  RUA GANGES  528                                                                  3                         000000000000000                                     N                     00598  0000000        000086
12035820448000136WHITE MARTINS GASES INDUSTRIAI                                        0000000023700026400000003937925 0000000087168275009022440000143375351 001     201209272012083100000000054690000040575000000000042412000000000000000000000000001837050000000000  3020121016   01          2  RUA GANGES  528                                                                  3                         000000000000000                                     N                     00598  0000000        000087
12035820448000136WHITE MARTINS GASES INDUSTRIAI                                        0000000023700026400000003937925 0000000090052292009022890000590393075 001     201211082012101200000000055110000081150000000000081150000000000000000000000000000000050000000000  3020121108   01FS        1  RUA GANGES  528                                                                  3                         000000000000000                                     N                     00598  0000000        000088
12035820448000136WHITE MARTINS GASES INDUSTRIAI                                        0000000023700026400000003937925 0000000086699210009022330000393368126 001     201209142012081800000000054560000162300000000000172458000000000000000000000000010158050000000000  3020121016   01          2  RUA GANGES  528                                                                  3                         000000000000000                                     N                     00598  0000000        000089
12042956441000101SOLUCOES ACO USIMINAS                                                 0000000034100000000000000000000000000000855028680000002254329370017202402     201209202012072600000000054620000244136000000000256824000000000000000000000000012688050000000000  3020121016   01          2                                                                                   3112254329371293807258000079                                                  N                     01321  0000000        000090
12042956441000101SOLUCOES ACO USIMINAS                                                 0000000034100000000000000000000000000000855028690000002254329380017212902     201209212012072600000000054630000140098000000000147098000000000000000000000000007000050000000000  3020121016   01          2                                                                                   3112254329389293807258000019                                                  N                     01321  0000000        000091
12042956441000101SOLUCOES ACO USIMINAS                                                 0000000034100000000000000000000000000000855028700000002254329390017213002     201209212012072600000000054630000140602000000000147627000000000000000000000000007025050000000000  3020121016   01          2                                                                                   3112254329397293807258000089                                                  N                     01321  0000000        000092
12042956441000101SOLUCOES ACO USIMINAS                                                 0000000034100000000000000000000000000000855028720000002254329340017200202     201209202012072600000000054620000680385000000000715771000000000000000000000000035386050000000000  3020121016   01          2                                                                                   3112254329348293807258000079                                                  N                     01321  0000000        000093
12042956441000101SOLUCOES ACO USIMINAS                                                 0000000034100000000000000000000000000000855028730000002254329350017200302     201209202012072600000000054620000156896000000000165060000000000000000000000000008164050000000000  3020121016   01          2                                                                                   3112254329355293807258000029                                                  N                     01321  0000000        000094
12042956441000101SOLUCOES ACO USIMINAS                                                 0000000034100000000000000000000000000000846595700000002210880280016980502     201209102012071200000000054520000156071000000000167303000000000000000000000000011232050000000000  3020121016   01          2                                                                                   3112210880285293807258000039                                                  N                     01321  0000000        000095
12042956441000101SOLUCOES ACO USIMINAS                                                 0000000034100000000000000000000000000000846595710000002210880290016980602     201209102012071200000000054520000426094000000000456766000000000000000000000000030672050000000000  3020121016   01          2                                                                                   3112210880293293807258000019                                                  N                     01321  0000000        000096
12042956441000101SOLUCOES ACO USIMINAS                                                 0000000034100000000000000000000000000000847452070000002216130350005922202     201209102012071600000000054520000172071000000000184455000000000000000000000000012384050000000000  3020121016   01          2                                                                                   3112216130354293807258000049                                                  N                     01321  0000000        000097
12042956441000101SOLUCOES ACO USIMINAS                                                 0000000034100000000000000000000000000000847452100000002216130340017012402     201209102012071500000000054520000147428000000000158048000000000000000000000000010620050000000000  3020121016   01          2                                                                                   3112216130347293807258000059                                                  N                     01321  0000000        000098
12042956441000101SOLUCOES ACO USIMINAS                                                 0000000034100000000000000000000000000000855028770000002254329400017220502     201209212012072700000000054630000981022000000001030072000000000000000000000000049050050000000000  3020121016   01          2                                                                                   3112254329405293807258000099                                                  N                     01321  0000000        000099
12042956441000101SOLUCOES ACO USIMINAS                                                 0000000034100000000000000000000000000000856906410000002262886280017266201     201208282012073000000000054390000119472000000000131183000000000000000000000000011711050000000000  3020121016   01          2                                                                                   3112262886289293807258000089                                                  N                     01321  0000000        000100
12042956441000101SOLUCOES ACO USIMINAS                                                 0000000034100000000000000000000000000000856906420000002262886290017266301     201208282012073000000000054390000145069000000000159279000000000000000000000000014210050000000000  3020121016   01          2                                                                                   3112262886297293807258000099                                                  N                     01321  0000000        000101
12042956441000101SOLUCOES ACO USIMINAS                                                 0000000034100000000000000000000000000000856906430000002262886300017266202     201209252012073000000000054670000119436000000000124455000000000000000000000000005019050000000000  3020121016   01          2                                                                                   3112262886305293807258000019                                                  N                     01321  0000000        000102
12042956441000101SOLUCOES ACO USIMINAS                                                 0000000034100000000000000000000000000000856906440000002262886310017266302     201209252012073000000000054670000145025000000000151115000000000000000000000000006090050000000000  3020121016   01          2                                                                                   3112262886313293807258000029                                                  N                     01321  0000000        000103
12042956441000101SOLUCOES ACO USIMINAS                                                 0000000034100000000000000000000000000000850740470000002233586810017101002     201209142012071900000000054560000732575000000000779455000000000000000000000000046880050000000000  3020121016   01          2                                                                                   3112233586810293807258000019                                                  N                     01321  0000000        000104
12042956441000101SOLUCOES ACO USIMINAS                                                 0000000034100000000000000000000000000000850740480000002233586820017101202     201209142012071900000000054560000144634000000000153882000000000000000000000000009248050000000000  3020121016   01          2                                                                                   3112233586828293807258000029                                                  N                     01321  0000000        000105
12042956441000101SOLUCOES ACO USIMINAS                                                 0000000034100000000000000000000000000000848180700000002220192900017041002     201209112012071700000000054530000155433000000000166318000000000000000000000000010885050000000000  3020121016   01          2                                                                                   3112220192903293807258000029                                                  N                     01321  0000000        000106
12042956441000101SOLUCOES ACO USIMINAS                                                 0000000034100000000000000000000000000000850740460000002233586800017127201     201208202012072000000000054310000137881000000000153613000000000000000000000000015732050000000000  3020121016   01          2                                                                                   3112233586802293807258000019                                                  N                     01321  0000000        000107
12042956441000101SOLUCOES ACO USIMINAS                                                 0000000034100000000000000000000000000000848180710000002220192910017041202     201209112012071700000000054530000205421000000000219806000000000000000000000000014385050000000000  3020121016   01          2                                                                                   3112220192911293807258000019                                                  N                     01321  0000000        000108
12042956441000101SOLUCOES ACO USIMINAS                                                 0000000034100000000000000000000000000000853154830000002246247020017196602     201209202012072500000000054620000804808000000000846668000000000000000000000000041860050000000000  3020121016   01          2                                                                                   3112246247020293807258000089                                                  N                     01321  0000000        000109
12042956441000101SOLUCOES ACO USIMINAS                                                 0000000034100000000000000000000000000000853154840000002246247030017196702     201209202012072500000000054620000234841000000000247061000000000000000000000000012220050000000000  3020121016   01          2                                                                                   3112246247038293807258000099                                                  N                     01321  0000000        000110
12042956441000101SOLUCOES ACO USIMINAS                                                 0000000034100000000000000000000000000000853154850000002246247040017197302     201209202012072500000000054620000970103000000001020543000000000000000000000000050440050000000000  3020121016   01          2                                                                                   3112246247046293807258000019                                                  N                     01321  0000000        000111
12042956441000101SOLUCOES ACO USIMINAS                                                 0000000034100000000000000000000000000000855028670000002254329360017200402     201209202012072600000000054620000163224000000000171700000000000000000000000000008476050000000000  3020121016   01          2                                                                                   3112254329363293807258000069                                                  N                     01321  0000000        000112
12043217850000159IOB INFORMACOES OBJ  PUBL JURI                                        0000000023702374400000002958600 000000008711912800902243000063301440820F2     201209202012083000000000054620000072850000000000074931000000000000000000000000002081050000000000  3020121016   01          2  R GANGES 528                                                                     3                         000000000000000                                     N                     00598  0000000        000113
12043217850000159IOB INFORMACOES OBJ  PUBL JURI                                        0000000023702374400000002958600 000000008540495200902212000099001440820E4     201208202012073000000000054310000072850000000000075675000000000000000000000000002825050000000000  3020121016   01          2  GANGES 528 VL NOVA MANCHESTER                                                    3                         000000000000000                                     N                     00598  0000000        000114
12043298975000150JOMARCA INDL DE PARAFUSOS LTDA                                        0000000003300000000000000000000000000000881032800000005900000000157168 01     201210112012091100000000054830000474500000000000477347000000000000000000000000002847050000000000  3020121016   01          2                                                                                   3935059520000000508659010429                                                  N                     01321  0000000        000115
12047190731000100DE CASTRO LOUR ENG IND LTDA                                           00000000341000000000000000000000000000008782052000000023399955303026632 0     201209192012082200000000054610000952073000000001002617000000000000000000000000050544050000000000  3020121016   01          2                                                                                   3112339995535036884500400019                                                  N                     01321  0000000        000116
12047190731000100DE CASTRO LOUR ENG IND LTDA                                           00000000341000000000000000000000000000008782050900000023399953503026612 0     201209182012082100000000054600001111489000000001172697000000000000000000000000061208050000000000  3020121016   01          2                                                                                   3112339995352036884500400019                                                  N                     01321  0000000        000117
12047190731000100DE CASTRO LOUR ENG IND LTDA                                           00000000341000000000000000000000000000008782052100000023399955903026643 0     201209202012082300000000054620000867039000000000911369000000000000000000000000044330050000000000  3020121016   01          2                                                                                   3112339995592036884500400049                                                  N                     01321  0000000        000118
12047190731000100DE CASTRO LOUR ENG IND LTDA                                           00000000341000000000000000000000000000008782052500000023399955603026636 0     201209192012082200000000054610000940804000000000990754000000000000000000000000049950050000000000  3020121016   01          2                                                                                   3112339995568036884500400049                                                  N                     01321  0000000        000119
12047190731000100DE CASTRO LOUR ENG IND LTDA                                           00000000341000000000000000000000000000008782052700000023399956203026648 0     201209202012082300000000054620000976053000000001025973000000000000000000000000049920050000000000  3020121016   01          2                                                                                   3112339995626036884500400029                                                  N                     01321  0000000        000120
12047190731000100DE CASTRO LOUR ENG IND LTDA                                           00000000341000000000000000000000000000008782051200000023399953803026613 0     201209182012082100000000054600001107989000000001169001000000000000000000000000061012050000000000  3020121016   01          2                                                                                   3112339995386036884500400039                                                  N                     01321  0000000        000121
12047190731000100DE CASTRO LOUR ENG IND LTDA                                           00000000341000000000000000000000000000008782051600000023399954103026614 0     201209182012082100000000054600001047621000000001105301000000000000000000000000057680050000000000  3020121016   01          2                                                                                   3112339995410036884500400039                                                  N                     01321  0000000        000122
12048775225000146SEIKI IND COM E CONFECCOES LTD                                        000000003410000000000000000000000000000087820591000000235780573014311001      201209282012083100000000054700000052000000000000053404000000000000000000000000001404050000000000  3020121016   01          2                                                                                   3112357805731017444824100069                                                  N                     01321  0000000        000123
12049341563000132JAC COMERCIO DE MATERIAIS ELET                                        00000000001000000000000000000000000000009005227300000046831500023646B         201211142012101100000000055170000009063000000000009063000000000000000000000000000000050000000000  3020121114   01FS        1                                                                                   3000000192560144144683151159                                                  N                     01321  0000000        000124
12049341563000132JAC COMERCIO DE MATERIAIS ELET                                        00000000001000000000000000000000000000009005227400000046831600023646C         201211212012101100000000055240000009063000000000009063000000000000000000000000000000050000000000  3020121121   01FS        1                                                                                   3000000192560144144683161119                                                  N                     01321  0000000        000125
12049341563000132JAC COMERCIO DE MATERIAIS ELET                                        00000000001000000000000000000000000000009005227500000046831400023646A         201211072012101100000000055100000009065000000000009065000000000000000000000000000000050000000000  3020121107   01FS        1                                                                                   3000000192560144144683141159                                                  N                     01321  0000000        000126
12049341563000132JAC COMERCIO DE MATERIAIS ELET                                        0000000023700293300000001478699 000000008835083900201322610636122736          201210122012091700000000054840000027274000000000027454000000000000000000000000000180050000000000  3020121016   01          2  R GANGES 528                                                                     3                         000000000000000                                     N                     00598  0000000        000127
12051180370000199IGUAFER FERRO E ACO LTDA                                              0000000034100000000000000000000000000000852309100000002239389789443 B         201209022012071800000000054440000168275000000000180595000000000000000000000000012320050000000000  3020121016   01          2                                                                                   3112239389789077149484600089                                                  N                     01321  0000000        000128
12051180370000199IGUAFER FERRO E ACO LTDA                                              0000000034100000000000000000000000000000852309110000002239389799443 C         201209122012071800000000054540000168275000000000177795000000000000000000000000009520050000000000  3020121016   01          2                                                                                   3112239389797077149484600089                                                  N                     01321  0000000        000129
12051180370000199IGUAFER FERRO E ACO LTDA                                              0000000034100000000000000000000000000000852309120000002239389809443 D         201209222012071800000000054640000168275000000000174995000000000000000000000000006720050000000000  3020121016   01          2                                                                                   3112239389805077149484600029                                                  N                     01321  0000000        000130
12053585766000141MULTIACOS I C PRODS TEC LTDA                                          0000000042200000000000000000000000000000878205700000000000000000004612001     201210092012082800000000054810000479980000000000485579000000000000000000000000005599050000000000  3020121016   01          2                                                                                   3711500005033164917492609199                                                  N                     01321  0000000        000131
12053585766000141MULTIACOS INDUSTRIA E COMERCIO                                        0000000000100000000000000000000000000000885248220000003067130000004478803     201210112012091800000000054830000211226000000000212986000000000000000000000000001760050000000000  3020121016   01          2                                                                                   3044073067131912000139523119                                                  N                     01321  0000000        000132
12053585766000141MULTIACOS I C PRODS TEC LTDA                                          0000000042200000000000000000000000000000883508150000000000000000004553202     201210112012091300000000054830001115009000000001124298000000000000000000000000009289050000000000  3020121016   01          2                                                                                   3711500005033164921116446119                                                  N                     01321  0000000        000133
12053585766000141MULTIACOS I C PRODS TEC LTDA                                          0000000042200000000000000000000000000000883508290000000000000000004539302     201210092012091300000000054810001021454000000001033367000000000000000000000000011913050000000000  3020121016   01          2                                                                                   3711500005033164921116594119                                                  N                     01321  0000000        000134
12053585766000141MULTIACOS INDUSTRIA E COMERCIO                                        0000000000100000000000000000000000000000885248230000003067140000004478903     201210112012091800000000054830000130644000000000131734000000000000000000000000001090050000000000  3020121016   01          2                                                                                   3044073067141912000139523149                                                  N                     01321  0000000        000135
12053585766000141MULTIACOS INDUSTRIA E COMERCIO                                        0000000000100000000000000000000000000000885248250000003067150000004479003     201210112012091800000000054830000831267000000000838192000000000000000000000000006925050000000000  3020121016   01          2                                                                                   3044073067151912000139523139                                                  N                     01321  0000000        000136
12053585766000141MULTIACOS COM DE PRODUTOS TECN                                        0000000023703398700000000011290 00000000888733010020226900000160004493703     201210152012080600000000054870000180041000000000180341000000000000000000000000000300050000000000  3020121016   01          2  RUA JUNO  533                                                                    3                         000000000000000                                     N                     00598  0000000        000137
12053585766000141MULTIACOS COM DE PRODUTOS TECN                                        0000000023703398700000000011290 00000000888733020020226900000170004493803     201210152012080600000000054870000828107000000000829487000000000000000000000000001380050000000000  3020121016   01          2  RUA JUNO  533                                                                    3                         000000000000000                                     N                     00598  0000000        000138
12053585766000141MULTIACOS COM DE PRODUTOS TECN                                        0000000023703398700000000011290 00000000888733060020226900000460004565102     201210152012082000000000054870000455717000000000456477000000000000000000000000000760050000000000  3020121016   01          2  RUA JUNO  533                                                                    3                         000000000000000                                     N                     00598  0000000        000139
12053585766000141MULTIACOS COM DE PRODUTOS TECN                                        0000000023703398700000000011290 00000000888733070020226900000470004566102     201210152012082000000000054870001281579000000001283715000000000000000000000000002136050000000000  3020121016   01          2  RUA JUNO  533                                                                    3                         000000000000000                                     N                     00598  0000000        000140
12054382510000108SETENTA IND E COM DE MADEIRAS                                         0000000034100000000000000000000000000000883508330000002392776804604 A         201210082012091300000000054800000116600000000000118432000000000000000000000000001832050000000000  3020121016   01          2                                                                                   3112392776806057049175300019                                                  N                     01321  0000000        000141
12056993512000150CYKLOP DO BRASIL EMBALAGENS SA                                        0000000034100000000000000000000000000000874070500000002362586810134932        201210012012090300000000054730000083607000000000088212000000000000000000000000004605050000000000  3020121016   01          2                                                                                   3112362586813025700015800019                                                  N                     01321  0000000        000142
12056993900000131CIA METALURGICA PRADA                                                 0000000034100000000000000000000000000000844838960000002201181950025629303     201210032012071100000000054750000257905000000000263495000000000000000000000000005590050000000000  3020121016   01          2                                                                                   3112201181958293800573900099                                                  N                     01321  0000000        000143
12056993900000131CIA METALURGICA PRADA                                                 0000000034100000000000000000000000000000848180620000002218222670025829902     201209112012071700000000054530000498118000000000527168000000000000000000000000029050050000000000  3020121016   01          2                                                                                   3112218222670293800573900029                                                  N                     01321  0000000        000144
12056993900000131CIA METALURGICA PRADA                                                 0000000034100000000000000000000000000000848180630000002218222680025830002     201209112012071700000000054530000247673000000000262128000000000000000000000000014455050000000000  3020121016   01          2                                                                                   3112218222688293800573900059                                                  N                     01321  0000000        000145
12056993900000131CIA METALURGICA PRADA                                                 0000000034100000000000000000000000000000848180640000002218222690025830102     201209112012071700000000054530000207402000000000219512000000000000000000000000012110050000000000  3020121016   01          2                                                                                   3112218222696293800573900039                                                  N                     01321  0000000        000146
12056993900000131CIA METALURGICA PRADA                                                 0000000034100000000000000000000000000000848180650000002218222700025829903     201210092012071700000000054810000498119000000000503929000000000000000000000000005810050000000000  3020121016   01          2                                                                                   3112218222704293800573900019                                                  N                     01321  0000000        000147
12056993900000131CIA METALURGICA PRADA                                                 0000000034100000000000000000000000000000844838970000002201181960025629403     201210032012071100000000054750000249372000000000254780000000000000000000000000005408050000000000  3020121016   01          2                                                                                   3112201181966293800573900019                                                  N                     01321  0000000        000148
12056993900000131CIA METALURGICA PRADA                                                 0000000034100000000000000000000000000000844838980000002201181970025635303     201210032012071100000000054750000406843000000000415657000000000000000000000000008814050000000000  3020121016   01          2                                                                                   3112201181974293800573900089                                                  N                     01321  0000000        000149
12056993900000131CIA METALURGICA PRADA                                                 0000000034100000000000000000000000000000844838990000002201181980025635403     201210032012071100000000054750000208689000000000213213000000000000000000000000004524050000000000  3020121016   01          2                                                                                   3112201181982293800573900059                                                  N                     01321  0000000        000150
12056993900000131CIA METALURGICA PRADA                                                 0000000034100000000000000000000000000000844839000000002201181880025629402     201209052012071100000000054470000249372000000000266428000000000000000000000000017056050000000000  3020121016   01          2                                                                                   3112201181883293800573900019                                                  N                     01321  0000000        000151
12056993900000131CIA METALURGICA PRADA                                                 0000000034100000000000000000000000000000844839010000002201181890025635302     201209052012071100000000054470000406842000000000434640000000000000000000000000027798050000000000  3020121016   01          2                                                                                   3112201181891293800573900019                                                  N                     01321  0000000        000152
12056993900000131CIA METALURGICA PRADA                                                 0000000034100000000000000000000000000000844839020000002201181900025635402     201209052012071100000000054470000208689000000000222957000000000000000000000000014268050000000000  3020121016   01          2                                                                                   3112201181909293800573900069                                                  N                     01321  0000000        000153
12056993900000131CIA METALURGICA PRADA                                                 0000000034100000000000000000000000000000844839030000002201181910025635502     201209052012071100000000054470000164780000000000176055000000000000000000000000011275050000000000  3020121016   01          2                                                                                   3112201181917293800573900029                                                  N                     01321  0000000        000154
12056993900000131CIA METALURGICA PRADA                                                 0000000034100000000000000000000000000000844839040000002201181920025635602     201209052012071100000000054470000339933000000000363180000000000000000000000000023247050000000000  3020121016   01          2                                                                                   3112201181925293800573900069                                                  N                     01321  0000000        000155
12056993900000131CIA METALURGICA PRADA                                                 0000000034100000000000000000000000000000844839050000002201181930025636202     201209052012071100000000054470000746213000000000797217000000000000000000000000051004050000000000  3020121016   01          2                                                                                   3112201181933293800573900019                                                  N                     01321  0000000        000156
12056993900000131CIA METALURGICA PRADA                                                 0000000034100000000000000000000000000000844839060000002201181940025644402     201209052012071100000000054470000779647000000000832906000000000000000000000000053259050000000000  3020121016   01          2                                                                                   3112201181941293800573900019                                                  N                     01321  0000000        000157
12056993900000131CIA METALURGICA PRADA                                                 0000000034100000000000000000000000000000844839070000002201181990025635503     201210032012071100000000054750000164779000000000168354000000000000000000000000003575050000000000  3020121016   01          2                                                                                   3112201181990293800573900019                                                  N                     01321  0000000        000158
12056993900000131CIA METALURGICA PRADA                                                 0000000034100000000000000000000000000000844839080000002201182000025635603     201210032012071100000000054750000339934000000000347305000000000000000000000000007371050000000000  3020121016   01          2                                                                                   3112201182006293800573900069                                                  N                     01321  0000000        000159
12056993900000131CIA METALURGICA PRADA                                                 0000000034100000000000000000000000000000844839090000002201182010025636203     201210032012071100000000054750000746212000000000762384000000000000000000000000016172050000000000  3020121016   01          2                                                                                   3112201182014293800573900079                                                  N                     01321  0000000        000160
12056993900000131CIA METALURGICA PRADA                                                 0000000034100000000000000000000000000000844839100000002201182020025644403     201210032012071100000000054750000779647000000000796534000000000000000000000000016887050000000000  3020121016   01          2                                                                                   3112201182022293800573900049                                                  N                     01321  0000000        000161
12056993900000131CIA METALURGICA PRADA                                                 0000000034100000000000000000000000000000844839140000002201181870025629302     201209052012071100000000054470000257906000000000275536000000000000000000000000017630050000000000  3020121016   01          2                                                                                   3112201181875293800573900069                                                  N                     01321  0000000        000162
12056993900000131CIA METALURGICA PRADA                                                 0000000034100000000000000000000000000000848180660000002218222710025830003     201210092012071700000000054810000247672000000000250563000000000000000000000000002891050000000000  3020121016   01          2                                                                                   3112218222712293800573900019                                                  N                     01321  0000000        000163
12056993900000131CIA METALURGICA PRADA                                                 0000000034100000000000000000000000000000848180670000002218222720025830103     201210092012071700000000054810000207402000000000209824000000000000000000000000002422050000000000  3020121016   01          2                                                                                   3112218222720293800573900079                                                  N                     01321  0000000        000164
12057029431000106ATLAS COPCO BRASIL LTDA                                               0000000034100000000000000000000000000000863731640000002292733057000054146     201209072012081000000000054490000081450000000000083556000000000000000000000000002106050000000000  3020121016   01          2                                                                                   3112292733055293804111400099                                                  N                     01321  0000000        000165
12057029431000106ATLAS COPCO BRASIL LTDA                                               0000000034100000000000000000000000000000861960280000002283943487000054090     201209062012080900000000054480000059490000000000061050000000000000000000000000001560050000000000  3020121016   01          2                                                                                   3112283943481293804111400069                                                  N                     01321  0000000        000166
12061096178000172COMERCIAL ELETRICA RIMO LTDA                                          0000000034100000000000000000000000000000891335310000002435547159888           201210082012091000000000054800000043740000000000043740000000000000000000000000000000050000000000  3020121008   05          3                                                                                   3112435547156166009333500089                                                  N                     01321  0000000        000167
12061217188000119TELAS METALICAS TELMETAL LTDA                                         0000000000100000000000000000000000000000878205340000000057220005624 1 1       201210032012090600000000054750000079207000000000079629000000000000000000000000000633050000000000  3020121005   05          3                                                                                   3000000115031800000057221719                                                  N                     01321  0000000        000168
12061217188000119TELAS METALICAS TELMETAL LTDA                                         0000000000100000000000000000000000000000885248140000000057440005659 1 2       201210152012091800000000054870000039222000000000039327000000000000000000000000000105050000000000  3020121016   01          2                                                                                   3000000115031800000057441729                                                  N                     01321  0000000        000169
12061217188000119TELAS METALICAS TELMETAL LTDA                                         0000000000100000000000000000000000000000885248160000000057460005660 1 2       201210152012091800000000054870000072172000000000072364000000000000000000000000000192050000000000  3020121016   01          2                                                                                   3000000115031800000057461749                                                  N                     01321  0000000        000170
12061780615000172LEPOK INFORMATICA E PAPELARIA                                         0000000023703393600000000005010 000000008887329900202269000000802127952       201210152012091700000000054870000049890000000000050040000000000000000000000000000150050000000000  3020121016   01          2  RUA TAMAINDE 1410                                                                3                         000000000000000                                     N                     00598  0000000        000171
12061780615000172LEPOK INFORMATICA E PAPELARIA                                         0000000023703393600000000005010 000000008887330000202269000000902128008       201210152012091700000000054870000006768000000000006788000000000000000000000000000020050000000000  3020121016   01          2  RUA TAMAINDE 1410                                                                3                         000000000000000                                     N                     00598  0000000        000172
12062173661000176INDUFIX IND E COM LTDA                                                0000000023704130000000000085898 000000008810327500702256000006500038394 A     201210112012091100000000054830000067395000000000067843000000000000000000000000000560050000000000  3020121015   06          3  RUA GANGES 528                                                                   3                         000000000000000                                     N                     00598  0000000        000173
12062340989000130EDICOES ADUANEIRAS LTDA                                               0000000023703090200000000015660 0000000079108232009080000035030004262 D       201209302012041100000000054720000043600000000000044680000000000000000000000000001152050000000000  3020121015   06          3  RUA TAMAINDE 1410 RUA GANGES 520 E 528                                           3                         000000000000000                                     N                     00598  0000000        000174
12062344882000160INDUSTRIA COM PARAFUS NAP LTDA                                        00000000341000000000000000000000000000008729529400000023597283711535 1        201209282012083100000000054700000057118000000000057118000000000000000000000000000000050000000000  3020120928   05          3                                                                                   3112359728378482812260800059                                                  N                     01321  0000000        000175
12062510367000102ITANHAEM TRANSP DE MAQUINAS LT                                        000000003410000000000000000000000000000087407049000000236463199667            201209202012090400000000054620000248220000000000274038000000000000000000000000025818050000000000  3020121016   01          2                                                                                   3112364631997005770252400049                                                  N                     01321  0000000        000176
12062539994000176LEALFER INDUSTRIA E COMERCIO D                                        0000000003300000000000000000000000000000884432820000000000000000005502001     201210152012091300000000054870000839516000000000840943000000000000000000000000001427050000000000  3020121016   01          2                                                                                   3915298380000000260800010419                                                  N                     01321  0000000        000177
12064952757000168WALMAC COM DE PROD QUIMICOS LT                                        0000000034100000000000000000000000000000844063810000002196829110019356        201210022012071000000000054740000219266000000000225300000000000000000000000000006034050000000000  3020121016   01          2                                                                                   3112196829116064807961400089                                                  N                     01321  0000000        000178
12065000655000105HILTI DO BRASIL COMERCIAL LTDA                                        0000000023703396000000000243787 00000000900522930090228900000950020464701     201211102012101100000000055130000023677000000000023677000000000000000000000000000000050000000000  3020121112   01FS        1  RUA TAMAINDE 1410                                                                3                         000000000000000                                     N                     00598  0000000        000179
12065000655000105HILTI DO BRASIL COMERCIAL LTDA                                        0000000023703396000000000243787 00000000871682760090224400001640002179001     201209272012082800000000054690000019742000000000020483000000000000000000000000000741050000000000  3020121016   01          2  RUA TAMAINDE 1410                                                                3                         000000000000000                                     N                     00598  0000000        000180
12065611451000100SUPERDIN COMERCIAL E IMPORTADO                                        0000000023700890700000000004502 0000000088873313009022690000054   006715A     201210152012091700000000054870000031477000000000031582000000000000000000000000000105050000000000  3020121016   01          2  R TAMAINDE 1410                                                                  3                         000000000000000                                     N                     00598  0000000        000181
12066841552000130RV SEGURANCA PATRIMONIAL SC LT                                        0000000023700122800000001495011 000000009005229400900000002233622336          201211102012101000000000055130000410467000000000410467000000000000000000000000000000050000000000  3020121112   01FS        1  RUA TAMAINDE  1410                                                               3                         000000000000000                                     N                     00598  0000000        000182
12066841552000130R V SEG PATRIMONIAL LTDA                                              00000000341000000000000000000000000000008852483200000090002192721927          201209102012081000000000054520000483241000000000489037000000000000000000000000005796050000000000  3020121016   01          2                                                                                   3109000219270001835253400099                                                  N                     01321  0000000        000183
12066841552000130R V SEG PATRIMONIAL S C LTDA                                          00000000341000000000000000000000000000008887329800000090002213622136          201210102012091100000000054820000374758000000000375508000000000000000000000000000750050000000000  3020121016   01          2                                                                                   3109000221365001838994000069                                                  N                     01321  0000000        000184
12067088963000160AJAXCOM ELETROMEC E SERVS LTDA                                        000000003410000000000000000000000000000088350838000000795752579359            201210152012091700000000054870000027200000000000027797000000000000000000000000000597050000000000  3020121016   01          2                                                                                   3157957525793019941432700039                                                  N                     01321  0000000        000185
12069284248000128ISOCOAT TINTAS E VERNIZES LTDA                                        0000000034100000000000000000000000000000856906400000002259392850053390        201210152012073100000000054870000048342000000000048471000000000000000000000000000129050000000000  3020121016   01          2                                                                                   3112259392853077430121200019                                                  N                     01321  0000000        000186
12069284248000128ISOCOAT TINTAS E VERNIZES LTDA                                        0000000034100000000000000000000000000000900522900000002477686970056631        201211262012101000000000055290000365668000000000365668000000000000000000000000000000050000000000  3020121126   01FS        1                                                                                   3112477686979077430121200019                                                  N                     01321  0000000        000187
12069284248000128ISOCOAT TINTAS E VERNIZES LTDA                                        0000000034100000000000000000000000000000900522910000002477686980056631        201212102012101000000000055430000317968000000000317968000000000000000000000000000000050000000000  3020121210   01FS        1                                                                                   3112477686987077430121200019                                                  N                     01321  0000000        000188
12069284248000128ISOCOAT TINTAS E VERNIZES LTDA                                        0000000034100000000000000000000000000000900522880000002477686990056631        201212242012101000000000055570000318064000000000318064000000000000000000000000000000050000000000  3020121224   01FS        1                                                                                   3112477686995077430121200089                                                  N                     01321  0000000        000189
12069309706000136F N A TRANSPORTES LTDA                                                000000003410000000000000000000000000000086615421000000900010656059068         201208302012081500000000054410000079200000000000091608000000000000000000000000012408050000000000  3020121016   01          2                                                                                   3109000106565005486932600099                                                  N                     01321  0000000        000190
12074239252000104TRANSPORTADORA BANNYS LTDA EPP                                        0000000034100000000000000000000000000000888732870000002425158021300           201210222012092100000000054940000044000000000000044000000000000000000000000000000000050000000000  3020121022   01          2                                                                                   3112425158022077267978300069                                                  N                     01321  0000000        000191
12075483040000130REX MAQ E EQUIPAMENTOS LTDA                                           00000000341000000000000000000000000000008465957600000022100117076263 2 3      201209262012070400000000054680000434000000000000451080000000000000000000000000017080050000000000  3020121016   01          2                                                                                   3112210011709848301515500019                                                  N                     01321  0000000        000192
12096500087000135WORKBENCH CONSULTORIA S S LTDA                                        0000000034100000000000000000000000000000878205840000007940034283118           201209272012090300000000054690000131746000000000136667000000000000000000000000004921050000000000  3020121016   01          2                                                                                   3157940034289826313803700089                                                  N                     01321  0000000        000193
900019400000000065572631                                                                                                                                                                                                                                                                                                                                                                                                                                                                01321  0000000        000194
