0000147602043799295000110ALTAMIRA INDUSTRIA METALURGICA LT       202000000010720120817055324             1                                                                                                                                                                                                                                                                                                                                                                                                    000001
12000193273000108TECELAGEM ROMA LTDA                                                   0000000023700284400000000410977 000000008374605200900000001581216213   C      201208102012062900000000054210000124248000000000126486000000000000000000000000002611050000000000  3020120816   06          3  RUA TAMAINDE 1410  1410                                                          3                         000000000000000                                     N                     00598  0000000        000002
12001951865000104FOUR FACTORING FOMENTO M LTDA                                         000000004220000000000000000000000000000085230908000000000000000156 2012       201208152012072400000000054260000300000000000000300000000000000000000000000000000000050000000000  3020120815   06          3                                                                                   3702000009214741497536200159                                                  N                     01321  0000000        000003
12003102481000134AB5 IND E COMERCIO LTDA EPP                                           0000000034100000000000000000000000000000865388210000009000040412849           201209042012080700000000054460000155820000000000155820000000000000000000000000000000050000000000  3020120904   01FS        1                                                                                   3109000040418003154755700069                                                  N                     01321  0000000        000004
12003498897000202TELECOMUNICACOES DE SAO PAULO                                         0000000023702372800000000360082 0000000086538834019066000865672V32022406      201209012012081600000000054430000337187000000000337187000000000000000000000000000000050000000000  3020120903   01FS        1  R GANGES 528                                                                     3                         000000000000000                                     N                     00598  0000000        000005
12005151518000140BELENUS DO BRASIL LTDA                                                0000000023703389800000000015091 0000000081465329009021440000994R126741832     201208142012051600000000054250000460800000000000465363000000000000000000000000004563050000000000  3020120817   01          2  RUA GANGES  528                                                                  3                         000000000000000                                     N                     00598  0000000        000006
12006000195000156M B A MERCANTIL BRASILEIRA DE                                         0000000023700118P00000002130599 00000000848180750020220100000320008905B01     201208162012071900000000054270000155301000000000155560000000000000000000000000000259050000000000  3020120817   01          2  RUA JUNO  533                                                                    3                         000000000000000                                     N                     00598  0000000        000007
12006000195000156M B A MERCANTIL BRASILEIRA DE                                         0000000023700118P00000002130599 00000000848180720020220100000030008872B01     201208142012071700000000054250000112772000000000113336000000000000000000000000000564050000000000  3020120817   01          2  RUA JUNO  533                                                                    3                         000000000000000                                     N                     00598  0000000        000008
12006000195000156M B A MERCANTIL BRASILEIRA DE                                         0000000000100000000000000000000000000000841060980000008760960000008769B01     201208032012070500000000054140000623994000000000623994000000000000000000000000000000050000000000  3020120803   05          3                                                                                   3043878760963333000105251179                                                  N                     01321  0000000        000009
12006000195000156M B A MERCANTIL BRASILEIRA DE                                         0000000023700118P00000002130599 00000000865388310020222900000520009206B01     201209152012081500000000054570000606694000000000606694000000000000000000000000000000050000000000  3020120917   01FS        1  RUA JUNO  533                                                                    3                         000000000000000                                     N                     00598  0000000        000010
12006000195000156M B A MERCANTIL BRASILEIRA DE                                         0000000023700118P00000002130599 00000000865388220020222900000430009203B01     201209122012081500000000054540000396727000000000396727000000000000000000000000000000050000000000  3020120912   01FS        1  RUA JUNO  533                                                                    3                         000000000000000                                     N                     00598  0000000        000011
12006000195000156M B A MERCANTIL BRASILEIRA DE                                         0000000023700118P00000002130599 00000000865388230020222900000440009203B02     201210102012081500000000054820000344980000000000344980000000000000000000000000000000050000000000  3020121010   01FS        1  RUA JUNO  533                                                                    3                         000000000000000                                     N                     00598  0000000        000012
12006000195000156M B A MERCANTIL BRASILEIRA DE                                         0000000023700118P00000002130599 00000000865388240020222900000450009203B03     201211072012081500000000055100000344980000000000344980000000000000000000000000000000050000000000  3020121107   01FS        1  RUA JUNO  533                                                                    3                         000000000000000                                     N                     00598  0000000        000013
12006000195000156M B A MERCANTIL BRASILEIRA DE                                         0000000023700118P00000002130599 00000000865388250020222900000460009204B01     201209132012081500000000054550000146386000000000146386000000000000000000000000000000050000000000  3020120913   01FS        1  RUA JUNO  533                                                                    3                         000000000000000                                     N                     00598  0000000        000014
12006000195000156M B A MERCANTIL BRASILEIRA DE                                         0000000023700118P00000002130599 00000000865388260020222900000470009204B02     201210112012081500000000054830000127292000000000127292000000000000000000000000000000050000000000  3020121011   01FS        1  RUA JUNO  533                                                                    3                         000000000000000                                     N                     00598  0000000        000015
12006000195000156M B A MERCANTIL BRASILEIRA DE                                         0000000023700118P00000002130599 00000000865388320020222900000530009206B02     201210132012081500000000054850000527560000000000527560000000000000000000000000000000050000000000  3020121015   01FS        1  RUA JUNO  533                                                                    3                         000000000000000                                     N                     00598  0000000        000016
12006000195000156M B A MERCANTIL BRASILEIRA DE                                         0000000023700118P00000002130599 00000000865388330020222900000540009206B03     201211102012081500000000055130000527560000000000527560000000000000000000000000000000050000000000  3020121112   01FS        1  RUA JUNO  533                                                                    3                         000000000000000                                     N                     00598  0000000        000017
12006000195000156M B A MERCANTIL BRASILEIRA DE                                         0000000023700118P00000002128292 00000000865388360090216600000670008556B02     201208092012061400000000054200000456280000000000456280000000000000000000000000000000050000000000  3020120817   01FS        1  RUA JUNO  533                                                                    3                         000000000000000                                     N                     00598  0000000        000018
12006000195000156M B A MERCANTIL BRASILEIRA DE                                         0000000023700118P00000002130599 00000000865388270020222900000480009204B03     201211082012081500000000055110000127291000000000127291000000000000000000000000000000050000000000  3020121108   01FS        1  RUA JUNO  533                                                                    3                         000000000000000                                     N                     00598  0000000        000019
12006000195000156M B A MERCANTIL BRASILEIRA DE                                         0000000023700118P00000002130599 00000000865388280020222900000490009205B01     201209142012081500000000054560000401309000000000401309000000000000000000000000000000050000000000  3020120914   01FS        1  RUA JUNO  533                                                                    3                         000000000000000                                     N                     00598  0000000        000020
12006000195000156M B A MERCANTIL BRASILEIRA DE                                         0000000023700118P00000002130599 00000000865388290020222900000500009205B02     201210122012081500000000054840000348964000000000348964000000000000000000000000000000050000000000  3020121015   01FS        1  RUA JUNO  533                                                                    3                         000000000000000                                     N                     00598  0000000        000021
12006000195000156M B A MERCANTIL BRASILEIRA DE                                         0000000023700118P00000002130599 00000000865388300020222900000510009205B03     201211092012081500000000055120000348964000000000348964000000000000000000000000000000050000000000  3020121109   01FS        1  RUA JUNO  533                                                                    3                         000000000000000                                     N                     00598  0000000        000022
12006000195000156MBA MERCANTIL BRAS DE ACO LTDA                                        0000000034100000000000000000000000000000848957230000008667238630008870B01     201208142012071900000000054250000839952000000000841707000000000000000000000000001755050000000000  3020120817   01          2                                                                                   3458667238638064849251000019                                                  N                     01321  0000000        000023
12006209559000102MAZURKY IND COM EMB LTDA                                              000000003410000000000000000000000000000084985524000000222532652009600 3       201208132012070200000000054240000084805000000000085441000000000000000000000000000848050000000000  3020120816   06          3                                                                                   3112225326522151434240900019                                                  N                     01321  0000000        000024
12006894969000130TERRADIESEL COM DE PCS P CAMIN                                        00000000341000000000000000000000000000008653881500000023020935013969A         201209072012081500000000054490000017800000000000017800000000000000000000000000000000050000000000  3020120910   01FS        1                                                                                   3112302093508006500924300049                                                  N                     01321  0000000        000025
12008508119000181DINARI FOMENTO MERCANTIL LTDA                                         000000003990000000000000000000000000000086538835000000000000000209            201209112012081600000000054530000220000000000000220000000000000000000000000000000000050000000000  3020120911   01FS        1                                                                                   3175800915800198002280900199                                                  N                     01321  0000000        000026
12009419898000101LUSITANO INDUSTRIA C E P LTDA                                         00000000341000000000000000000000000000008653881900000090000757001 10137 1     201209122012081500000000054540000035136000000000035136000000000000000000000000000000050000000000  3020120912   01FS        1                                                                                   3109000075708001160072300089                                                  N                     01321  0000000        000027
12009419898000101LUSITANO INDUSTRIA C E P LTDA                                         00000000341000000000000000000000000000008653882000000090000757101 10137 2     201209192012081500000000054610000035135000000000035135000000000000000000000000000000050000000000  3020120919   01FS        1                                                                                   3109000075716001160072300049                                                  N                     01321  0000000        000028
12010979468000123BRUNO E COELHO COM MAQ E PROD                                         0000000010400000000000000000000000000000853154940000000006470004281           201208112012072600000000054220000024500000000000024500000000000000000000000000000000050000000000  3020120813   05          3                                                                                   3900000064731088700000020939                                                  N                     01321  0000000        000029
12012006058000121WEG TINTAS LTDA                                                       0000000023702727800000000001309 00000000827244620090216600000710014454802     201208122012061300000000054230000306569000000000308201000000000000000000000000002040050000000000  3020120816   06          3  R JUNO  533                                                                      3                         000000000000000                                     N                     00598  0000000        000030
12012006058000121WEG TINTAS LTDA                                                       0000000023702727800000000001309 00000000821490950090215600001080014231103     201208152012060100000000054260000459992000000000461218000000000000000000000000001226050000000000  3020120817   01          2  R JUNO  533                                                                      3                         000000000000000                                     N                     00598  0000000        000031
12012006058000121WEG TINTAS LTDA                                                       0000000023702727800000000001309 00000000828904030090217000001020014515402     201208142012061500000000054250000459854000000000461693000000000000000000000000001839050000000000  3020120817   01          2  R JUNO  533                                                                      3                         000000000000000                                     N                     00598  0000000        000032
12014309992000148WEG DRIVES   CONTROLS   AUTOMA                                        0000000023702727800000000001872 00000000812917770090214200002440005763301     201208162012051800000000054270000272993000000000273356000000000000000000000000000363050000000000  3020120817   01          2  R JUNO  533                                                                      3                         000000000000000                                     N                     00598  0000000        000033
12033325184001786ALSCO TOALHEIRO BRASIL                                                0000000023703396000000001490850 0000000085315513009000002660205VM26602        201208162012072700000000054270000031827000000000031859000000000000000000000000000032050000000000  3020120817   01          2  RUA  GANGES 528                                                                  3                         000000000000000                                     N                     00598  0000000        000034
12035820448000136WHITE MARTINS GASES INDUSTRIAI                                        0000000023700026400000003937925 0000000084745213009022000001338352522 001     201208142012071800000000054250000081150000000000083097000000000000000000000000001947050000000000  3020120817   01          2  RUA GANGES  528                                                                  3                         000000000000000                                     N                     00598  0000000        000035
12035820448000136WHITE MARTINS GASES INDUSTRIAI                                        0000000023700026400000003937925 0000000084895719009022020001144353515 001     201208162012072000000000054270000028403000000000029009000000000000000000000000000606050000000000  3020120817   01          2  RUA GANGES  528                                                                  3                         000000000000000                                     N                     00598  0000000        000036
12035820448000136WHITE MARTINS GASES INDUSTRIAI                                        0000000023700026400000003937925 0000000084571470009021980000617351461 001     201208102012071400000000054210000085208000000000087710000000000000000000000000002502050000000000  3020120817   01          2  RUA GANGES  528                                                                  3                         000000000000000                                     N                     00598  0000000        000037
12035820448000136WHITE MARTINS GASES INDUSTRIAI                                        0000000023700026400000003937925 0000000086538817009022290001168366855 001     201209112012081600000000054530000121725000000000121725000000000000000000000000000000050000000000  3020120911   01FS        1  RUA GANGES  528                                                                  3                         000000000000000                                     N                     00598  0000000        000038
12042956441000101SOLUCOES EM ACO USIMINAS S A                                          000000000010000000000000000000000000000082801788000000079534000000165008002   201208082012061400000000054190000191165000000000191165000000000000000000000000000000050000000000  3020120808   06          3                                                                                   3000000169660100000795341739                                                  N                     01321  0000000        000039
12042956441000101SOLUCOES EM ACO USIMINAS S A                                          000000000010000000000000000000000000000082801790000000079528000000165006002   201208082012061400000000054190000091719000000000091719000000000000000000000000000000050000000000  3020120808   06          3                                                                                   3000000169660100000795281719                                                  N                     01321  0000000        000040
12042956441000101SOLUCOES EM ACO USIMINAS S A                                          000000000010000000000000000000000000000082801793000000079531000000165007002   201208082012061400000000054190000244584000000000244584000000000000000000000000000000050000000000  3020120808   06          3                                                                                   3000000169660100000795311719                                                  N                     01321  0000000        000041
12048775225000146SEIKI IND COM E CONFECCOES LTD                                        000000003410000000000000000000000000000084571464000000220394574013178001      201208092012071200000000054200000052000000000000052000000000000000000000000000000000050000000000  3020120809   06          3                                                                                   3112203945749017444824100029                                                  N                     01321  0000000        000042
12056428188000128EDVALDO SANTOS ROSA ME                                                0000000023700898200000000005622 0000000085959068009011222000658194919598      201208142012080700000000054250000037000000000000038109000000000000000000000000001109050000000000  3020120817   01          2  RUA TAMAINDE  1410                                                               3                         000000000000000                                     N                     00598  0000000        000043
12056993512000150CYKLOP DO BRASIL EMBALAGENS SA                                        0000000034100000000000000000000000000000865388160000002299329080132528        201209112012081400000000054530000083607000000000083607000000000000000000000000000000050000000000  3020120911   01FS        1                                                                                   3112299329089025700015800059                                                  N                     01321  0000000        000044
12057158057000130COMERCIAL ELETRICA PJ LTDA                                            0000000023703394400000000972983 00000000842436850090219200008900000305028     201208012012070400000000054120000079196000000000083404000000000000000000000000004208050000000000  3020120817   01          2  R TAMAINDE 1410                                                                  3                         000000000000000                                     N                     00598  0000000        000045
12057196081000164MINELE COMERCIO DE PARAFUSOS L                                        0000000023700298400000002047470 0000000085152929009022070000008513            201208162012072500000000054270000073900000000000075146000000000000000000000000001246050000000000  3020120817   01          2  R  GANGES  528   VL CARRAO                                                       3                         000000000000000                                     N                     00598  0000000        000046
12061096178000172COMERCIAL ELETRICA RIMO LTDA                                          0000000034100000000000000000000000000000855028830000002250570138959           201208102012071300000000054210000027180000000000027180000000000000000000000000000000050000000000  3020120810   05          3                                                                                   3112250570135166009333500019                                                  N                     01321  0000000        000047
12061217188000119TELAS METALICAS TELMETAL LTDA                                         0000000000100000000000000000000000000000844063710000000054900005303 2 3       201208142012071100000000054250000030000000000000030000000000000000000000000000000000050000000000  3020120814   06          3                                                                                   3000000115031800000054901739                                                  N                     01321  0000000        000048
12061217188000119TELAS METALICAS TELMETAL LTDA                                         0000000000100000000000000000000000000000844063730000000054920005304 1 1       201208142012071100000000054250000026412000000000026412000000000000000000000000000000050000000000  3020120814   06          3                                                                                   3000000115031800000054921729                                                  N                     01321  0000000        000049
12061217188000119TELAS METALICAS TELMETAL LTDA                                         0000000000100000000000000000000000000000844063750000000054940005305 2 3       201208142012071100000000054250000053722000000000053722000000000000000000000000000000050000000000  3020120814   06          3                                                                                   3000000115031800000054941759                                                  N                     01321  0000000        000050
12062173661000176INDUFIX IND E COM LTDA                                                0000000023704130000000000085898 000000008498553500702205000012000035860 A     201208152012071600000000054260000067554000000000067778000000000000000000000000000224050000000000  3020120817   01          2  RUA GANGES 528                                                                   3                         000000000000000                                     N                     00598  0000000        000051
12066144957000110POSTO DE MOLAS MABAFIL LTDA ME                                        000000000010000000000000000000000000000085074054000000000697000000380         201208122012072300000000054230000041450000000000041991000000000000000000000000000541050000000000  3020120817   01          2                                                                                   3000000162353900000006971749                                                  N                     01321  0000000        000052
12066841552000130R V SEG PATRIMONIAL LTDA                                              00000000341000000000000000000000000000008653881800000090002192721927          201209102012081000000000054520000483241000000000483241000000000000000000000000000000050000000000  3020120910   01FS        1                                                                                   3109000219270001835253400099                                                  N                     01321  0000000        000053
12075483040000130REX MAQUINAS E EQUIPAMENTOS LT                                        0000000023702656500000000000701 000000008205624700202153000047072487 2 3      201208152012052300000000054260000434000000000000435446000000000000000000000000001446050000000000  3020120817   01          2  RUA  GANGES  528                                                                 3                         000000000000000                                     N                     00598  0000000        000054
12092693118000160BRADESCO SAUDE S A                                                    0000000023700448000000001533991 00000000829780050050100702629130000000000     201207202012061800000000054000000645861000000000657509000000000000000000000000011648050000000000  3020120817   01          2                                                                                   3                         000000000000000                                     N                     00598  0000000        000055
900005600000000012783333                                                                                                                                                                                                                                                                                                                                                                                                                                                                00598  0000000        000056
