0000147602043799295000110ALTAMIRA INDUSTRIA METALURGICA LT       202000000014820121017060009             1                                                                                                                                                                                                                                                                                                                                                                                                    000001
12000846804000106BRIDA LUBRIF LTDA                                                     000000003410000000000000000000000000000088524831000000900409916002347751      201210112012091300000000054830000059225000000000060293000000000000000000000000001068050000000000  3020121017   01          2                                                                                   3109004099167293816860200019                                                  N                     01321  0000000        000002
12001852612000175BT EQUIPAMENTOS INDUSTRIAIS LT                                        000000000330000000000000000000000000000087577366000000610000000594061         201210012012090600000000054730000041502000000000043377000000000000000000000000002000050000000000  3020121016   06          3                                                                                   3913651000000000594061010479                                                  N                     01321  0000000        000003
12001895314000162COLETA INDUSTRIAL FIMAVAN LTDA                                        0000000034100000000000000000000000000000866992070000009002335349439           201208272012081700000000054380000123695000000000142948000000000000000000000000019253050000000000  3020121017   01          2                                                                                   3109002335346144604097200019                                                  N                     01321  0000000        000004
12002460454000170AUT SERVICE COMERCIO E SERVICO                                        0000000023702591700000000007692 000000008515292000901322060028234532 2        201209172012072400000000054590000238750000000000265027000000000000000000000000026277050000000000  3020121017   01          2  RUA JUNO  533                                                                    3                         000000000000000                                     N                     00598  0000000        000005
12002469103000120COMPROCRED FOMENTO MERCANTIL L                                        0000000023703511400000000106739 0000000088012259002022550000043022145 12      201210012012090500000000054730000093000000000000097960000000000000000000000000004960050000000000  3020121017   01          2  RUA TAMAINDE 1410 VILA NOVA MANCH SAO PATRANSPORTADORA FIOROT LTDA               3                         000252984000106                                     N                     00598  0000000        000006
12002503185000182ANDAIMES MAQUINAS BIG LTDA EPP                                        000000003410000000000000000000000000000086282613000000228719913011660         201208302012081000000000054410000012000000000000012624000000000000000000000000000624050000000000  3020121017   01          2                                                                                   3112287199130650303800900039                                                  N                     01321  0000000        000007
12002503185000182ANDAIMES E MAQUINAS BIG LTDA                                          000000003410000000000000000000000000000087820531000000233954448011791         201209212012082700000000054630000026000000000000026962000000000000000000000000000962050000000000  3020121017   01          2                                                                                   3112339544481925303435000019                                                  N                     01321  0000000        000008
12002503185000182ANDAIMES MAQUINAS BIG LTDA EPP                                        0000000034100000000000000000000000000000874070480000002313590765101           201209142012082000000000054560000016500000000000017193000000000000000000000000000693050000000000  3020121017   01          2                                                                                   3112313590765650303800900019                                                  N                     01321  0000000        000009
12002583013000166ITAN TRANSP DE CARGAS EXC E IN                                        000000003410000000000000000000000000000088769805000000241619340008 D          201210142012091800000000054860000105350000000000106613000000000000000000000000001263050000000000  3020121017   01          2                                                                                   3112416193400005770252400019                                                  N                     01321  0000000        000010
12002583013000166ITAN TRANSP DE CARGAS EXC E IN                                        000000003410000000000000000000000000000088350835000000239377421008 A          201210142012091400000000054860000192500000000000194810000000000000000000000000002310050000000000  3020121017   01          2                                                                                   3112393774214005770252400019                                                  N                     01321  0000000        000011
12003372804000100TROPICAL CLEAN COMERCIAL LTDA                                         00000000033000000000000000000000000000008996249300000059000000056986          201210142012091800000000054860000048259000000000048742000000000000000000000000000483050000000000  3020121017   01          2                                                                                   3913215100000006396259020199                                                  N                     01321  0000000        000012
12003489596000123BEND FLEX I COMERCIO LTDA                                             000000003410000000000000000000000000000089518988000000173425770617            201210012012083000000000054730000722200000000000744920000000000000000000000000022720050000000000  3020121017   01          2                                                                                   3191734257709157734445800079                                                  N                     01321  0000000        000013
12003489596000123BEND FLEX I COMERCIO LTDA                                             000000003410000000000000000000000000000088599899000000171434574613            201209172012081600000000054590000585000000000000619530000000000000000000000000034530050000000000  3020121017   01          2                                                                                   3191714345748157734445800019                                                  N                     01321  0000000        000014
12003489596000123BEND FLEX I COMERCIO LTDA                                             000000003410000000000000000000000000000088350832000000171879874608            201209122012082100000000054540000695250000000000743095000000000000000000000000047845050000000000  3020121017   01          2                                                                                   3191718798744157734445800069                                                  N                     01321  0000000        000015
12004676708000118M H F SISTEMAS S C LTDA                                               0000000034100000000000000000000000000000889578460000002429293140099049010     201210052012092500000000054770000013600000000000013600000000000000000000000000000000050000000000  3020121005   06          3                                                                                   3112429293148013924573200019                                                  N                     01321  0000000        000016
12005044228000105TRIARC COM S METAIS USINADOS                                          000000003410000000000000000000000000000090145500000000700013593820            201211082012101600000000055110000016000000000000016000000000000000000000000000000000050000000000  3020121108   01FS        1                                                                                   3157000135935076157868100079                                                  N                     01321  0000000        000017
12005044228000105TRIARC COM S METAIS USINADOS                                          000000003410000000000000000000000000000090145501000000700013497314 S          201211082012101600000000055110000011000000000000011000000000000000000000000000000000050000000000  3020121108   01FS        1                                                                                   3157000134979076157868100019                                                  N                     01321  0000000        000018
12005151518000140BELENUS DO BRASIL LTDA                                                000000000010000000000000000000000000000090145497000000711432000R131538712     201211072012101500000000055100000599040000000000599040000000000000000000000000000000050000000000  3020121107   01FS        1                                                                                   3000000123933844147114323159                                                  N                     01321  0000000        000019
12005151518000140BELENUS DO BRASIL LTDA                                                000000000010000000000000000000000000000090145498000000711433000R131538722     201212072012101500000000055400000460800000000000460800000000000000000000000000000000050000000000  3020121207   01FS        1                                                                                   3000000123933844147114333199                                                  N                     01321  0000000        000020
12005151518000140BELENUS DO BRASIL LTDA                                                000000000010000000000000000000000000000090145496000000711434000R131538732     201301062012101500000000055700000460800000000000460800000000000000000000000000000000050000000000  3020130107   01FS        1                                                                                   3000000123933844147114343199                                                  N                     01321  0000000        000021
12005852768000107DAOUD LEAL ELETRONICA LTDA ME                                         00000000033000000000000000000000000000008757736700000021000000000000000001097 201209262012090500000000054680000016558000000000017989000000000000000000000000001486050000000000  3020121016   06          3                                                                                   3949927090000000027421010429                                                  N                     01321  0000000        000022
12005880850000145NEDERMAN BRASIL COM PROD EX LT                                        000000003410000000000000000000000000000086373178000000614350956002763 A       201209252012081400000000054670000289674000000000302214000000000000000000000000012540050000000000  3020121017   01          2                                                                                   3156143509568160829000100049                                                  N                     01321  0000000        000023
12006000195000156MBA MERCANTIL BRAS DE ACO LTDA                                        0000000034100000000000000000000000000000889578520000001671394540008920B02     201209162012071700000000054580000576585000000000611739000000000000000000000000035154050000000000  3020121017   01          2                                                                                   3191671394549064849251000099                                                  N                     01321  0000000        000024
12006000195000156MBA MERCANTIL BRAS DE ACO LTDA                                        0000000034100000000000000000000000000000885998980000001667238420008870B02     201209112012071600000000054530000839952000000000899424000000000000000000000000059472050000000000  3020121017   01          2                                                                                   3191667238429064849251000039                                                  N                     01321  0000000        000025
12006000195000156MBA MERCANTIL BRAS DE ACO LTDA                                        0000000034100000000000000000000000000000887698080000001667238400008876B02     201209142012071600000000054560000810321000000000862923000000000000000000000000052602050000000000  3020121017   01          2                                                                                   3191667238403064849251000059                                                  N                     01321  0000000        000026
12006000195000156MBA MERCANTIL BRAS DE ACO LTDA                                        0000000034100000000000000000000000000000887698090000001671394550008925B02     201209142012071700000000054560000719581000000000766276000000000000000000000000046695050000000000  3020121017   01          2                                                                                   3191671394556064849251000089                                                  N                     01321  0000000        000027
12006000195000156MBA MERCANTIL BRAS DE ACO LTDA                                        0000000034100000000000000000000000000000887698100000001671394560008926B02     201209142012071700000000054560000387716000000000412895000000000000000000000000025179050000000000  3020121017   01          2                                                                                   3191671394564064849251000019                                                  N                     01321  0000000        000028
12006000195000156MBA MERCANTIL BRAS DE ACO LTDA                                        0000000034100000000000000000000000000000886866570000001667238410008874B02     201209132012071600000000054550000802826000000000856512000000000000000000000000053686050000000000  3020121017   01          2                                                                                   3191667238411064849251000049                                                  N                     01321  0000000        000029
12006000195000156M B A MERCANTIL BRASILEIRA DE                                         0000000023700118P00000002128292 00000000901455020090219900000660008865B03     201210082012071600000000054800000695457000000000695457000000000000000000000000000000050000000000  3020121017   01FS        1  RUA JUNO   533                                                                   3                         000000000000000                                     N                     00598  0000000        000030
12006000195000156M B A MERCANTIL BRASILEIRA DE                                         0000000023700118P00000002128292 00000000901455030090219900000720008857B03     201210052012071300000000054770000827402000000000827402000000000000000000000000000000050000000000  3020121017   01FS        1  RUA JUNO  533                                                                    3                         000000000000000                                     N                     00598  0000000        000031
12006000195000156M B A MERCANTIL BRASILEIRA DE                                         0000000023700118P00000002128292 00000000901455040090219900000780008864B03     201210082012071600000000054800000169189000000000169189000000000000000000000000000000050000000000  3020121017   01FS        1  RUA JUNO  533                                                                    3                         000000000000000                                     N                     00598  0000000        000032
12006000195000156M B A MERCANTIL BRASILEIRA DE                                         0000000023700118P00000002130599 00000000868592690020223600000020009229B02     201210112012081600000000054830000253414000000000255946000000000000000000000000002532050000000000  3020121017   01          2  RUA JUNO  533                                                                    3                         000000000000000                                     N                     00598  0000000        000033
12006000195000156M B A MERCANTIL BRASILEIRA DE                                         0000000023700118P00000002130599 00000000853155030020220900000530008971B03     201210162012072400000000054880000170465000000000170749000000000000000000000000000284050000000000  3020121017   01          2  RUA JUNO  533                                                                    3                         000000000000000                                     N                     00598  0000000        000034
12006000195000156M B A MERCANTIL BRASILEIRA DE                                         0000000023700118P00000002130599 00000000848180740020220100000050008872B03     201210092012071700000000054810000112772000000000114276000000000000000000000000001504050000000000  3020121017   01          2  RUA JUNO  533                                                                    3                         000000000000000                                     N                     00598  0000000        000035
12006000195000156M B A MERCANTIL BRASILEIRA DE                                         0000000023700118P00000002130599 00000000865388260020222900000470009204B02     201210112012081500000000054830000127292000000000128564000000000000000000000000001272050000000000  3020121017   01          2  RUA JUNO  533                                                                    3                         000000000000000                                     N                     00598  0000000        000036
12006000195000156M B A MERCANTIL BRASILEIRA DE                                         0000000023700118P00000002130599 00000000865388290020222900000500009205B02     201210122012081500000000054840000348964000000000351874000000000000000000000000002910050000000000  3020121017   01          2  RUA JUNO  533                                                                    3                         000000000000000                                     N                     00598  0000000        000037
12006000195000156M B A MERCANTIL BRASILEIRA DE                                         0000000023700118P00000002130599 00000000865388320020222900000530009206B02     201210132012081500000000054850000527560000000000531076000000000000000000000000003516050000000000  3020121017   01          2  RUA JUNO  533                                                                    3                         000000000000000                                     N                     00598  0000000        000038
12006000195000156M B A MERCANTIL BRASILEIRA DE                                         0000000023700118P00000002130599 00000000848180770020220100000340008905B03     201210112012071900000000054830000155300000000000156854000000000000000000000000001554050000000000  3020121017   01          2  RUA JUNO  533                                                                    3                         000000000000000                                     N                     00598  0000000        000039
12006867297000173MARCOS ANTONIO RIBEIRO ACOS                                           0000000034100000000000000000000000000000881913470000002386992240000433        201210082012091200000000054800000042270000000000043530000000000000000000000000001260050000000000  3020121017   01          2                                                                                   3112386992245046769908800059                                                  N                     01321  0000000        000040
12007175725000160WEG EQUIPAMENTOS ELETRICOS SA                                         0000000023702727800000000196800 00000000832180610090217400004980095359902     201209202012052300000000054620000272787000000000282588000000000000000000000000009801050000000000  3020121017   01          2  R JUNO  533                                                                      3                         000000000000000                                     N                     00598  0000000        000041
12007565346000186ALFLEX PLASTICOS E FERRAGENS L                                        0000000023701416800000000407607 0000000088769811009013226800205S000000195     201210152012092400000000054870000187500000000000192500000000000000000000000000005000050000000000  3020121017   01          2  RUA TAMAINDE  1410                                                               3                         000000000000000                                     N                     00598  0000000        000042
12008263210000184BETA COM IMP EXP DE FERRAMENT                                         0000000034100000000000000000000000000000899624900000006154761652830A          201211072012101100000000055100000032025000000000032025000000000000000000000000000000050000000000  3020121107   05          3                                                                                   3156154761657808333717300079                                                  N                     01321  0000000        000043
12008263210000184BETA COM IMP EXP DE FERRAMENT                                         0000000034100000000000000000000000000000901454950000006154761652830A          201211072012101100000000055100000032025000000000032025000000000000000000000000000000050000000000  3020121107   01FS        1                                                                                   3156154761650808304699800019                                                  N                     01321  0000000        000044
12009137729000189MULTI RECEBIVEIS II FUNDO DE I                                        0000000023703369300000000044253 000000008685926400902236000000813649 2        201209272012081600000000054690000114374000000000116279000000000000000000000000002286050000000000  3020121002   06          3  R TAMANDE 1410                          ANHEMBI INDUSTRIA DE CAIXAS DE PAPELAO O 3                         043292101000196                                     N                     00598  0000000        000045
12009419898000101LUSITANO INDUSTRIA C E P LTDA                                         00000000341000000000000000000000000000008653882000000090000757101 10137 2     201209192012081500000000054610000035135000000000038411000000000000000000000000003276050000000000  3020121017   01          2                                                                                   3109000075716001160072300049                                                  N                     01321  0000000        000046
12011202309000180FIEL TOOLS DISTRIBUIDORA DE MA                                        0000000023702087700000000000116 0000000089962492009000020194031009403 1       201210042012090600000000054760000041000000000000043214000000000000000000000000002214050000000000  3020121017   01          2  R TAMAINDE  1 410   RUA GANGES  520 E 52                                         3                         000000000000000                                     N                     00598  0000000        000047
12011318709000156IMPAKTO TRANSPORTES                                                   0000000000100000000000000000000000000000887697860000000000930006586           201210112012092100000000054830000052974000000000056150000000000000000000000000003176050000000000  3020121017   01          2                                                                                   3000000245286000000000931799                                                  N                     01321  0000000        000048
12011318709000156IMPAKTO TRANSPORTES                                                   0000000000100000000000000000000000000000887697870000000001090005398           201210122012092100000000054840000011000000000000011640000000000000000000000000000640050000000000  3020121017   01          2                                                                                   3000000245286000000001091769                                                  N                     01321  0000000        000049
12012006058000121WEG TINTAS LTDA                                                       0000000023702727800000000001309 00000000856071270090221400000840015587303     201210142012073100000000054860000459992000000000461831000000000000000000000000001839050000000000  3020121017   01          2  R JUNO  533                                                                      3                         000000000000000                                     N                     00598  0000000        000050
12012006058000121WEG TINTAS LTDA                                                       0000000023702727800000000001309 00000000849855330090220500001210015343102     201209182012072000000000054600000306569000000000318401000000000000000000000000011832050000000000  3020121017   01          2  R JUNO  533                                                                      3                         000000000000000                                     N                     00598  0000000        000051
12012006058000121WEG TINTAS LTDA                                                       0000000023702727800000000001309 00000000849855340090220500001220015343103     201210032012072000000000054750000306662000000000312374000000000000000000000000005712050000000000  3020121017   01          2  R JUNO  533                                                                      3                         000000000000000                                     N                     00598  0000000        000052
12012006058000121WEG TINTAS LTDA                                                       0000000023702727800000000001309 00000000854049550090221200001010015513002     201209252012072700000000054670000459854000000000473340000000000000000000000000013486050000000000  3020121017   01          2  R JUNO  533                                                                      3                         000000000000000                                     N                     00598  0000000        000053
12012006058000121WEG TINTAS LTDA                                                       0000000023702727800000000001309 00000000854049560090221200001020015513003     201210102012072700000000054820000459992000000000464283000000000000000000000000004291050000000000  3020121017   01          2  R JUNO  533                                                                      3                         000000000000000                                     N                     00598  0000000        000054
12012006058000121WEG TINTAS LTDA                                                       0000000023702727800000000001309 00000000856071260090221400000830015587302     201209292012073100000000054710000459854000000000470888000000000000000000000000011034050000000000  3020121017   01          2  R JUNO  533                                                                      3                         000000000000000                                     N                     00598  0000000        000055
12012006058000121WEG TINTAS LTDA                                                       0000000023702727800000000001309 00000000861207260090222200000900015775001     201209222012080800000000054640000306569000000000316769000000000000000000000000010200050000000000  3020121017   01          2  R JUNO  533                                                                      3                         000000000000000                                     N                     00598  0000000        000056
12012006058000121WEG TINTAS LTDA                                                       0000000023702727800000000001309 00000000842436840090219200000860015068803     201209222012070900000000054640000306662000000000316862000000000000000000000000010200050000000000  3020121017   01          2  R JUNO  533                                                                      3                         000000000000000                                     N                     00598  0000000        000057
12012006058000121WEG TINTAS LTDA                                                       0000000023702727800000000001309 00000000844839240090219500000730015168703     201209252012071200000000054670000306662000000000315638000000000000000000000000008976050000000000  3020121017   01          2  R JUNO  533                                                                      3                         000000000000000                                     N                     00598  0000000        000058
12012006058000121WEG TINTAS LTDA                                                       0000000023702727800000000001309 00000000847452160090220000000930015248103     201209302012071700000000054720000306662000000000313598000000000000000000000000006936050000000000  3020121017   01          2  R JUNO  533                                                                      3                         000000000000000                                     N                     00598  0000000        000059
12012006058000121WEG TINTAS LTDA                                                       0000000023702727800000000001309 00000000861207270090222200000910015775002     201210072012080800000000054790000306569000000000310649000000000000000000000000004080050000000000  3020121017   01          2  R JUNO  533                                                                      3                         000000000000000                                     N                     00598  0000000        000060
12012006058000121WEG TINTAS LTDA                                                       0000000023702727800000000001309 00000000864554440090222800000730015908401     201209282012081400000000054700000306569000000000314321000000000000000000000000007752050000000000  3020121017   01          2  R JUNO  533                                                                      3                         000000000000000                                     N                     00598  0000000        000061
12012006058000121WEG TINTAS LTDA                                                       0000000023702727800000000001309 00000000864554450090222800000740015908402     201210132012081400000000054850000306569000000000308201000000000000000000000000001632050000000000  3020121017   01          2  R JUNO  533                                                                      3                         000000000000000                                     N                     00598  0000000        000062
12012006058000121WEG TINTAS LTDA                                                       0000000023702727800000000001309 00000000868126340090223500001170016086601     201210052012082100000000054770000306569000000000311465000000000000000000000000004896050000000000  3020121017   01          2  R JUNO  533                                                                      3                         000000000000000                                     N                     00598  0000000        000063
12012006058000121WEG TINTAS LTDA                                                       0000000023702727800000000001309 00000000870177480090224100000970016248001     201210112012082700000000054830000306569000000000309017000000000000000000000000002448050000000000  3020121017   01          2  R JUNO  533                                                                      3                         000000000000000                                     N                     00598  0000000        000064
12012006058000121WEG TINTAS LTDA                                                       0000000023702727800000000001309 00000000841061130090218800000850014990203     201209182012070500000000054600000306662000000000318494000000000000000000000000011832050000000000  3020121017   01          2  R JUNO  533                                                                      3                         000000000000000                                     N                     00598  0000000        000065
12012006058000121WEG TINTAS LTDA                                                       0000000023702727800000000001309 00000000872318650090224700001030016359601     201210152012083100000000054870000459854000000000461080000000000000000000000000001226050000000000  3020121017   01          2  R JUNO  533                                                                      3                         000000000000000                                     N                     00598  0000000        000066
12012006058000121WEG TINTAS LTDA                                                       0000000023702727800000000001309 00000000834820640090217900000760014773903     201209092012062600000000054510000306662000000000316046000000000000000000000000009792050000000000  3020121002   06          3  R JUNO  533                                                                      3                         000000000000000                                     N                     00598  0000000        000067
12014775592000128HELIO ADRIANO DA SILVA ME                                             0000000003300000000000000000000000000000887698150000005800000008682           201210102012092100000000054820000040000000000000040986000000000000000000000000000986050000000000  3020121017   01          2                                                                                   3956114740000000000058010159                                                  N                     01321  0000000        000068
12014775592000128HELIO ADRIANO DA SILVA ME                                             0000000003300000000000000000000000000000880122770000004900000008565 8566      201209282012091000000000054700000034500000000000035626000000000000000000000000001126050000000000  3020121017   01          2                                                                                   3956114740000000000049010129                                                  N                     01321  0000000        000069
12014775592000128HELIO ADRIANO DA SILVA ME                                             0000000003300000000000000000000000000000901454930000007700000008883           201210302012101000000000055020000011000000000000011000000000000000000000000000000000050000000000  3020121030   01FS        1                                                                                   3956114740000000000077010199                                                  N                     01321  0000000        000070
12015251825000156JOSEFA A LIMA DOS SANTOS EPP                                          000000003410000000000000000000000000000088191339000000795424054841            201210112012091300000000054830000021500000000000022725000000000000000000000000001225050000000000  3020121017   01          2                                                                                   3157954240547810513909400039                                                  N                     01321  0000000        000071
12016802308000190TRANSMARRECO LTDA                                                     000000000330000000000000000000000000000088769814000000640000000353 12         201210052012092100000000054770000106581000000000112553000000000000000000000000005972050000000000  3020121017   01          2                                                                                   3907636240000000643564010119                                                  N                     01321  0000000        000072
12035820448000136WHITE MARTINS GASES INDUSTRIAI                                        0000000023700026400000003937925 0000000086907102009022370011747372774 001     201209202012082400000000054620000040575000000000042790000000000000000000000000002269050000000000  3020121016   06          3  RUA GANGES  528                                                                  3                         000000000000000                                     N                     00598  0000000        000073
12035820448000136WHITE MARTINS GASES INDUSTRIAI                                        0000000023700026400000003937925 0000000088524829009022630001577381808 001     201210162012091900000000054880000121725000000000124200000000000000000000000000002475050000000000  3020121017   01          2  RUA GANGES  528                                                                  3                         000000000000000                                     N                     00598  0000000        000074
12035820448000136WHITE MARTINS GASES INDUSTRIAI                                        0000000023700026400000003937925 0000000086699210009022330000393368126 001     201209142012081800000000054560000162300000000000172674000000000000000000000000010374050000000000  3020121017   01          2  RUA GANGES  528                                                                  3                         000000000000000                                     N                     00598  0000000        000075
12035820448000136WHITE MARTINS GASES INDUSTRIAI                                        0000000023700026400000003937925 0000000086907101009022370010705372273 001     201209202012082400000000054620000017600000000000018573000000000000000000000000000973050000000000  3020121017   01          2  RUA GANGES  528                                                                  3                         000000000000000                                     N                     00598  0000000        000076
12035820448000136WHITE MARTINS GASES INDUSTRIAI                                        0000000023700026400000003937925 0000000088191338009022570001466379316 001     201210092012091300000000054810000085208000000000087136000000000000000000000000001928050000000000  3020121017   01          2  RUA GANGES  528                                                                  3                         000000000000000                                     N                     00598  0000000        000077
12035820448000136WHITE MARTINS GASES INDUSTRIAI                                        0000000023700026400000003937925 0000000088266840009022580000485380402 001     201210112012091400000000054830000028403000000000029025000000000000000000000000000622050000000000  3020121017   01          2  RUA GANGES  528                                                                  3                         000000000000000                                     N                     00598  0000000        000078
12035820448000136WHITE MARTINS GASES INDUSTRIAI                                        0000000023700026400000003937925 0000000087168275009022440000143375351 001     201209272012083100000000054690000040575000000000042466000000000000000000000000001891050000000000  3020121017   01          2  RUA GANGES  528                                                                  3                         000000000000000                                     N                     00598  0000000        000079
12035820448000136WHITE MARTINS GASES INDUSTRIAI                                        0000000023700026400000003937925 0000000087820600009022540001838377866 001     201210042012090700000000054760000202876000000000207817000000000000000000000000004941050000000000  3020121017   01          2  RUA GANGES  528                                                                  3                         000000000000000                                     N                     00598  0000000        000080
12035820448000136WHITE MARTINS GASES INDUSTRIAI                                        0000000023700026400000003937925 0000000087067052009022420002594374120 001     201209252012082900000000054670000113610000000000119204000000000000000000000000005594050000000000  3020121017   01          2  RUA GANGES  528                                                                  3                         000000000000000                                     N                     00598  0000000        000081
12042956441000101SOLUCOES ACO USIMINAS                                                 0000000034100000000000000000000000000000836417910000002164218370016738103     201209192012062700000000054610000830173000000000873333000000000000000000000000044820050000000000  3020121015   06          3                                                                                   3112164218375293807258000039                                                  N                     01321  0000000        000082
12042956441000101SOLUCOES ACO USIMINAS                                                 0000000034100000000000000000000000000000855028670000002254329360017200402     201209202012072600000000054620000163224000000000171700000000000000000000000000008802050000000000  3020121016   06          3                                                                                   3112254329363293807258000069                                                  N                     01321  0000000        000083
12042956441000101SOLUCOES ACO USIMINAS                                                 0000000034100000000000000000000000000000855028680000002254329370017202402     201209202012072600000000054620000244136000000000256824000000000000000000000000013176050000000000  3020121016   06          3                                                                                   3112254329371293807258000079                                                  N                     01321  0000000        000084
12042956441000101SOLUCOES ACO USIMINAS                                                 0000000034100000000000000000000000000000855028720000002254329340017200202     201209202012072600000000054620000680385000000000715771000000000000000000000000036747050000000000  3020121016   06          3                                                                                   3112254329348293807258000079                                                  N                     01321  0000000        000085
12042956441000101SOLUCOES ACO USIMINAS                                                 0000000034100000000000000000000000000000855028730000002254329350017200302     201209202012072600000000054620000156896000000000165060000000000000000000000000008478050000000000  3020121016   06          3                                                                                   3112254329355293807258000029                                                  N                     01321  0000000        000086
12042956441000101SOLUCOES ACO USIMINAS                                                 0000000034100000000000000000000000000000853154830000002246247020017196602     201209202012072500000000054620000804808000000000846668000000000000000000000000043470050000000000  3020121016   06          3                                                                                   3112246247020293807258000089                                                  N                     01321  0000000        000087
12042956441000101SOLUCOES ACO USIMINAS                                                 0000000034100000000000000000000000000000855028770000002254329400017220502     201209212012072700000000054630000981022000000001032034000000000000000000000000051012050000000000  3020121017   01          2                                                                                   3112254329405293807258000099                                                  N                     01321  0000000        000088
12042956441000101SOLUCOES ACO USIMINAS                                                 0000000034100000000000000000000000000000841725540000002188168620016859403     201209262012070400000000054680000164455000000000171364000000000000000000000000006909050000000000  3020121017   01          2                                                                                   3112188168622293807258000019                                                  N                     01321  0000000        000089
12042956441000101SOLUCOES ACO USIMINAS                                                 0000000034100000000000000000000000000000841725550000002188168630016859503     201209262012070400000000054680000234336000000000244185000000000000000000000000009849050000000000  3020121017   01          2                                                                                   3112188168630293807258000089                                                  N                     01321  0000000        000090
12042956441000101SOLUCOES ACO USIMINAS                                                 0000000034100000000000000000000000000000841725560000002188168640016884803     201209272012070500000000054690000120612000000000125432000000000000000000000000004820050000000000  3020121017   01          2                                                                                   3112188168648293807258000059                                                  N                     01321  0000000        000091
12042956441000101SOLUCOES ACO USIMINAS                                                 0000000034100000000000000000000000000000841725570000002188168690016891503     201209272012070500000000054690001128343000000001173483000000000000000000000000045140050000000000  3020121017   01          2                                                                                   3112188168697293807258000039                                                  N                     01321  0000000        000092
12042956441000101SOLUCOES ACO USIMINAS                                                 0000000034100000000000000000000000000000841725580000002188168650016884903     201209272012070500000000054690000531835000000000553115000000000000000000000000021280050000000000  3020121017   01          2                                                                                   3112188168655293807258000019                                                  N                     01321  0000000        000093
12042956441000101SOLUCOES ACO USIMINAS                                                 0000000034100000000000000000000000000000841725590000002188168660016885103     201209272012070500000000054690000219722000000000228502000000000000000000000000008780050000000000  3020121017   01          2                                                                                   3112188168663293807258000049                                                  N                     01321  0000000        000094
12042956441000101SOLUCOES ACO USIMINAS                                                 0000000034100000000000000000000000000000841725600000002188168670016891203     201209272012070500000000054690001132542000000001177842000000000000000000000000045300050000000000  3020121017   01          2                                                                                   3112188168671293807258000069                                                  N                     01321  0000000        000095
12042956441000101SOLUCOES ACO USIMINAS                                                 0000000034100000000000000000000000000000841725610000002188168680016891403     201209272012070500000000054690000795233000000000827033000000000000000000000000031800050000000000  3020121017   01          2                                                                                   3112188168689293807258000029                                                  N                     01321  0000000        000096
12042956441000101SOLUCOES ACO USIMINAS                                                 0000000034100000000000000000000000000000843180440000002194744360016902903     201209282012070600000000054700000179794000000000186634000000000000000000000000006840050000000000  3020121017   01          2                                                                                   3112194744366293807258000079                                                  N                     01321  0000000        000097
12042956441000101SOLUCOES ACO USIMINAS                                                 0000000034100000000000000000000000000000856906410000002262886280017266201     201208282012073000000000054390000119472000000000131422000000000000000000000000011950050000000000  3020121017   01          2                                                                                   3112262886289293807258000089                                                  N                     01321  0000000        000098
12042956441000101SOLUCOES ACO USIMINAS                                                 0000000034100000000000000000000000000000856906420000002262886290017266301     201208282012073000000000054390000145069000000000159569000000000000000000000000014500050000000000  3020121017   01          2                                                                                   3112262886297293807258000099                                                  N                     01321  0000000        000099
12042956441000101SOLUCOES ACO USIMINAS                                                 0000000034100000000000000000000000000000856906430000002262886300017266202     201209252012073000000000054670000119436000000000124694000000000000000000000000005258050000000000  3020121017   01          2                                                                                   3112262886305293807258000019                                                  N                     01321  0000000        000100
12042956441000101SOLUCOES ACO USIMINAS                                                 0000000034100000000000000000000000000000856906440000002262886310017266302     201209252012073000000000054670000145025000000000151405000000000000000000000000006380050000000000  3020121017   01          2                                                                                   3112262886313293807258000029                                                  N                     01321  0000000        000101
12042956441000101SOLUCOES ACO USIMINAS                                                 0000000034100000000000000000000000000000840313040000002181699250016829703     201209242012070200000000054660000643711000000000673312000000000000000000000000029601050000000000  3020121017   01          2                                                                                   3112181699250293807258000019                                                  N                     01321  0000000        000102
12042956441000101SOLUCOES ACO USIMINAS                                                 0000000034100000000000000000000000000000846595700000002210880280016980502     201209102012071200000000054520000156071000000000167615000000000000000000000000011544050000000000  3020121017   01          2                                                                                   3112210880285293807258000039                                                  N                     01321  0000000        000103
12042956441000101SOLUCOES ACO USIMINAS                                                 0000000034100000000000000000000000000000846595710000002210880290016980602     201209102012071200000000054520000426094000000000457618000000000000000000000000031524050000000000  3020121017   01          2                                                                                   3112210880293293807258000019                                                  N                     01321  0000000        000104
12042956441000101SOLUCOES ACO USIMINAS                                                 0000000034100000000000000000000000000000847452070000002216130350005922202     201209102012071600000000054520000172071000000000184799000000000000000000000000012728050000000000  3020121017   01          2                                                                                   3112216130354293807258000049                                                  N                     01321  0000000        000105
12042956441000101SOLUCOES ACO USIMINAS                                                 0000000034100000000000000000000000000000847452100000002216130340017012402     201209102012071500000000054520000147428000000000158343000000000000000000000000010915050000000000  3020121017   01          2                                                                                   3112216130347293807258000059                                                  N                     01321  0000000        000106
12042956441000101SOLUCOES ACO USIMINAS                                                 0000000034100000000000000000000000000000840313050000002181699260016829803     201209242012070200000000054660000322527000000000337362000000000000000000000000014835050000000000  3020121017   01          2                                                                                   3112181699268293807258000029                                                  N                     01321  0000000        000107
12042956441000101SOLUCOES ACO USIMINAS                                                 0000000034100000000000000000000000000000853154840000002246247030017196702     201209202012072500000000054620000234841000000000247531000000000000000000000000012690050000000000  3020121017   01          2                                                                                   3112246247038293807258000099                                                  N                     01321  0000000        000108
12042956441000101SOLUCOES ACO USIMINAS                                                 0000000034100000000000000000000000000000853154850000002246247040017197302     201209202012072500000000054620000970103000000001022483000000000000000000000000052380050000000000  3020121017   01          2                                                                                   3112246247046293807258000019                                                  N                     01321  0000000        000109
12042956441000101SOLUCOES ACO USIMINAS                                                 0000000034100000000000000000000000000000855028690000002254329380017212902     201209212012072600000000054630000140098000000000147378000000000000000000000000007280050000000000  3020121017   01          2                                                                                   3112254329389293807258000019                                                  N                     01321  0000000        000110
12042956441000101SOLUCOES ACO USIMINAS                                                 0000000034100000000000000000000000000000855028700000002254329390017213002     201209212012072600000000054630000140602000000000147908000000000000000000000000007306050000000000  3020121017   01          2                                                                                   3112254329397293807258000089                                                  N                     01321  0000000        000111
12042956441000101SOLUCOES ACO USIMINAS                                                 0000000034100000000000000000000000000000848180700000002220192900017041002     201209112012071700000000054530000155433000000000166629000000000000000000000000011196050000000000  3020121017   01          2                                                                                   3112220192903293807258000029                                                  N                     01321  0000000        000112
12042956441000101SOLUCOES ACO USIMINAS                                                 0000000034100000000000000000000000000000848180710000002220192910017041202     201209112012071700000000054530000205421000000000220217000000000000000000000000014796050000000000  3020121017   01          2                                                                                   3112220192911293807258000019                                                  N                     01321  0000000        000113
12042956441000101SOLUCOES ACO USIMINAS                                                 0000000034100000000000000000000000000000850740460000002233586800017127201     201208202012072000000000054310000137881000000000153889000000000000000000000000016008050000000000  3020121017   01          2                                                                                   3112233586802293807258000019                                                  N                     01321  0000000        000114
12042956441000101SOLUCOES ACO USIMINAS                                                 0000000034100000000000000000000000000000850740470000002233586810017101002     201209142012071900000000054560000732575000000000780920000000000000000000000000048345050000000000  3020121017   01          2                                                                                   3112233586810293807258000019                                                  N                     01321  0000000        000115
12042956441000101SOLUCOES ACO USIMINAS                                                 0000000034100000000000000000000000000000850740480000002233586820017101202     201209142012071900000000054560000144634000000000154171000000000000000000000000009537050000000000  3020121017   01          2                                                                                   3112233586828293807258000029                                                  N                     01321  0000000        000116
12042956441000101SOLUCOES ACO USIMINAS                                                 0000000034100000000000000000000000000000840313080000002181699230016814403     201209242012070200000000054660000968423000000001012974000000000000000000000000044551050000000000  3020121017   01          2                                                                                   3112181699235293807258000079                                                  N                     01321  0000000        000117
12042956441000101SOLUCOES ACO USIMINAS                                                 0000000034100000000000000000000000000000840313090000002181699240016827103     201209242012070200000000054660000703009000000000735347000000000000000000000000032338050000000000  3020121017   01          2                                                                                   3112181699243293807258000019                                                  N                     01321  0000000        000118
12042956441000101SOLUCOES ACO USIMINAS                                                 0000000034100000000000000000000000000000858616390000002271409750017315102     201209272012080200000000054690000579374000000000602554000000000000000000000000023180050000000000  3020121017   01          2                                                                                   3112271409750293807258000019                                                  N                     01321  0000000        000119
12042956441000101SOLUCOES ACO USIMINAS                                                 0000000034100000000000000000000000000000858616400000002271409760017316002     201209272012080200000000054690000929451000000000966631000000000000000000000000037180050000000000  3020121017   01          2                                                                                   3112271409768293807258000079                                                  N                     01321  0000000        000120
12042956441000101SOLUCOES ACO USIMINAS                                                 0000000034100000000000000000000000000000858616410000002271409770017319302     201209272012080200000000054690000981526000000001020786000000000000000000000000039260050000000000  3020121017   01          2                                                                                   3112271409776293807258000019                                                  N                     01321  0000000        000121
12042956441000101SOLUCOES ACO USIMINAS                                                 0000000034100000000000000000000000000000858616420000002271409780017319402     201209272012080200000000054690000178902000000000186062000000000000000000000000007160050000000000  3020121017   01          2                                                                                   3112271409784293807258000029                                                  N                     01321  0000000        000122
12042956441000101SOLUCOES ACO USIMINAS                                                 0000000034100000000000000000000000000000858616430000002271409790017319502     201209272012080200000000054690000197380000000000205280000000000000000000000000007900050000000000  3020121017   01          2                                                                                   3112271409792293807258000049                                                  N                     01321  0000000        000123
12042956441000101SOLUCOES ACO USIMINAS                                                 0000000034100000000000000000000000000000858616440000002271409800017319602     201209272012080200000000054690000197044000000000204924000000000000000000000000007880050000000000  3020121017   01          2                                                                                   3112271409800293807258000019                                                  N                     01321  0000000        000124
12042956441000101SOLUCOES ACO USIMINAS                                                 0000000034100000000000000000000000000000858616450000002271409810017319702     201209272012080200000000054690000197212000000000205092000000000000000000000000007880050000000000  3020121017   01          2                                                                                   3112271409818293807258000019                                                  N                     01321  0000000        000125
12042956441000101SOLUCOES ACO USIMINAS                                                 0000000034100000000000000000000000000000858616460000002271409820017319802     201209272012080200000000054690000194525000000000202305000000000000000000000000007780050000000000  3020121017   01          2                                                                                   3112271409826293807258000079                                                  N                     01321  0000000        000126
12042956441000101SOLUCOES ACO USIMINAS                                                 0000000034100000000000000000000000000000859590620000002274469790017353702     201209282012080300000000054700000081053000000000084131000000000000000000000000003078050000000000  3020121017   01          2                                                                                   3112274469793293807258000069                                                  N                     01321  0000000        000127
12042956441000101SOLUCOES ACO USIMINAS                                                 0000000034100000000000000000000000000000859590630000002274469800017353802     201209282012080300000000054700000166998000000000173344000000000000000000000000006346050000000000  3020121017   01          2                                                                                   3112274469801293807258000059                                                  N                     01321  0000000        000128
12043217850000159IOB INFORMACOES OBJ  PUBL JURI                                        0000000023702374400000002958600 000000008711912800902243000063301440820F2     201209202012083000000000054620000072850000000000074955000000000000000000000000002105050000000000  3020121017   01          2  R GANGES 528                                                                     3                         000000000000000                                     N                     00598  0000000        000129
12043217850000159IOB INFORMACOES OBJ  PUBL JURI                                        0000000023702374400000002958600 000000008540495200902212000099001440820E4     201208202012073000000000054310000072850000000000075699000000000000000000000000002849050000000000  3020121017   01          2  GANGES 528 VL NOVA MANCHESTER                                                    3                         000000000000000                                     N                     00598  0000000        000130
12047190731000100DE CASTRO LOUR ENG IND LTDA                                           00000000341000000000000000000000000000008782052100000023399955903026643 0     201209202012082300000000054620000867039000000000913074000000000000000000000000046035050000000000  3020121017   01          2                                                                                   3112339995592036884500400049                                                  N                     01321  0000000        000131
12047190731000100DE CASTRO LOUR ENG IND LTDA                                           00000000341000000000000000000000000000008782050900000023399953503026612 0     201209182012082100000000054600001111489000000001174883000000000000000000000000063394050000000000  3020121017   01          2                                                                                   3112339995352036884500400019                                                  N                     01321  0000000        000132
12047190731000100DE CASTRO LOUR ENG IND LTDA                                           00000000341000000000000000000000000000008782051200000023399953803026613 0     201209182012082100000000054600001107989000000001171180000000000000000000000000063191050000000000  3020121017   01          2                                                                                   3112339995386036884500400039                                                  N                     01321  0000000        000133
12047190731000100DE CASTRO LOUR ENG IND LTDA                                           00000000341000000000000000000000000000008782052500000023399955603026636 0     201209192012082200000000054610000940804000000000992604000000000000000000000000051800050000000000  3020121017   01          2                                                                                   3112339995568036884500400049                                                  N                     01321  0000000        000134
12047190731000100DE CASTRO LOUR ENG IND LTDA                                           00000000341000000000000000000000000000008782052700000023399956203026648 0     201209202012082300000000054620000976053000000001027893000000000000000000000000051840050000000000  3020121017   01          2                                                                                   3112339995626036884500400029                                                  N                     01321  0000000        000135
12047190731000100DE CASTRO LOUR ENG IND LTDA                                           00000000341000000000000000000000000000008782051600000023399954103026614 0     201209182012082100000000054600001047621000000001107361000000000000000000000000059740050000000000  3020121017   01          2                                                                                   3112339995410036884500400039                                                  N                     01321  0000000        000136
12047190731000100DE CASTRO LOUR ENG IND LTDA                                           00000000341000000000000000000000000000008782052000000023399955303026632 0     201209192012082200000000054610000952073000000001004489000000000000000000000000052416050000000000  3020121017   01          2                                                                                   3112339995535036884500400019                                                  N                     01321  0000000        000137
12048775225000146SEIKI IND COM E CONFECCOES LTD                                        000000003410000000000000000000000000000087820591000000235780573014311001      201209282012083100000000054700000052000000000000053482000000000000000000000000001482050000000000  3020121017   01          2                                                                                   3112357805731017444824100069                                                  N                     01321  0000000        000138
12049341563000132JAC COMERCIO DE MATERIAIS ELET                                        0000000023700293300000001478699 000000008835083900201322610636122736          201210122012091700000000054840000027274000000000027499000000000000000000000000000225050000000000  3020121017   01          2  R GANGES 528                                                                     3                         000000000000000                                     N                     00598  0000000        000139
12051180370000199IGUAFER FERRO E ACO LTDA                                              0000000034100000000000000000000000000000852309120000002239389809443 D         201209222012071800000000054640000168275000000000174995000000000000000000000000007000050000000000  3020121016   06          3                                                                                   3112239389805077149484600029                                                  N                     01321  0000000        000140
12051180370000199IGUAFER FERRO E ACO LTDA                                              0000000034100000000000000000000000000000852309100000002239389789443 B         201209022012071800000000054440000168275000000000180875000000000000000000000000012600050000000000  3020121017   01          2                                                                                   3112239389789077149484600089                                                  N                     01321  0000000        000141
12051180370000199IGUAFER FERRO E ACO LTDA                                              0000000034100000000000000000000000000000852309110000002239389799443 C         201209122012071800000000054540000168275000000000178075000000000000000000000000009800050000000000  3020121017   01          2                                                                                   3112239389797077149484600089                                                  N                     01321  0000000        000142
12053585766000141MULTIACOS I C PRODS TEC LTDA                                          0000000042200000000000000000000000000000883508150000000000000000004553202     201210112012091300000000054830001115009000000001126156000000000000000000000000011147050000000000  3020121017   01          2                                                                                   3711500005033164921116446119                                                  N                     01321  0000000        000143
12053585766000141MULTIACOS COM DE PRODUTOS TECN                                        0000000023703398700000000011290 00000000888733010020226900000160004493703     201210152012080600000000054870000180041000000000180641000000000000000000000000000600050000000000  3020121017   01          2  RUA JUNO  533                                                                    3                         000000000000000                                     N                     00598  0000000        000144
12053585766000141MULTIACOS COM DE PRODUTOS TECN                                        0000000023703398700000000011290 00000000888733020020226900000170004493803     201210152012080600000000054870000828107000000000830867000000000000000000000000002760050000000000  3020121017   01          2  RUA JUNO  533                                                                    3                         000000000000000                                     N                     00598  0000000        000145
12053585766000141MULTIACOS COM DE PRODUTOS TECN                                        0000000023703398700000000011290 00000000888733030020226900000230004500803     201210162012080700000000054880000173389000000000173678000000000000000000000000000289050000000000  3020121017   01          2  RUA JUNO  533                                                                    3                         000000000000000                                     N                     00598  0000000        000146
12053585766000141MULTIACOS COM DE PRODUTOS TECN                                        0000000023703398700000000011290 00000000888733040020226900000240004500903     201210162012080700000000054880000962577000000000964181000000000000000000000000001604050000000000  3020121017   01          2  RUA JUNO  533                                                                    3                         000000000000000                                     N                     00598  0000000        000147
12053585766000141MULTIACOS COM DE PRODUTOS TECN                                        0000000023703398700000000011290 00000000888733050020226900000250004501003     201210162012080700000000054880000902868000000000904373000000000000000000000000001505050000000000  3020121017   01          2  RUA JUNO  533                                                                    3                         000000000000000                                     N                     00598  0000000        000148
12053585766000141MULTIACOS COM DE PRODUTOS TECN                                        0000000023703398700000000011290 00000000888733060020226900000460004565102     201210152012082000000000054870000455717000000000457237000000000000000000000000001520050000000000  3020121017   01          2  RUA JUNO  533                                                                    3                         000000000000000                                     N                     00598  0000000        000149
12053585766000141MULTIACOS COM DE PRODUTOS TECN                                        0000000023703398700000000011290 00000000888733070020226900000470004566102     201210152012082000000000054870001281579000000001285851000000000000000000000000004272050000000000  3020121017   01          2  RUA JUNO  533                                                                    3                         000000000000000                                     N                     00598  0000000        000150
12053585766000141MULTIACOS COM DE PRODUTOS TECN                                        0000000023703398700000000011290 00000000888733080020226900000490004570002     201210162012082100000000054880000999583000000001001249000000000000000000000000001666050000000000  3020121017   01          2  RUA JUNO  533                                                                    3                         000000000000000                                     N                     00598  0000000        000151
12053585766000141MULTIACOS COM DE PRODUTOS TECN                                        0000000023703398700000000011290 00000000888733090020226900000680004642301     201210162012090400000000054880000198805000000000199136000000000000000000000000000331050000000000  3020121017   01          2  RUA JUNO  533                                                                    3                         000000000000000                                     N                     00598  0000000        000152
12053585766000141MULTIACOS COM DE PRODUTOS TECN                                        0000000023703398700000000011290 00000000888733100020226900000690004642101     201210162012090400000000054880000251722000000000252142000000000000000000000000000420050000000000  3020121017   01          2  RUA JUNO  533                                                                    3                         000000000000000                                     N                     00598  0000000        000153
12054382510000108SETENTA IND E COM DE MADEIRAS                                         0000000034100000000000000000000000000000860403430000002277814474462 A         201209042012080700000000054460000191200000000000207368000000000000000000000000016168050000000000  3020121017   01          2                                                                                   3112277814474057049175300069                                                  N                     01321  0000000        000154
12054382510000108SETENTA IND E COM DE MADEIRAS                                         0000000034100000000000000000000000000000874070720000002305114064536 A         201209192012081600000000054610000191200000000000201728000000000000000000000000010528050000000000  3020121017   01          2                                                                                   3112305114061057002848000039                                                  N                     01321  0000000        000155
12054382510000108SETENTA IND E COM DE MADEIRAS                                         0000000034100000000000000000000000000000883508330000002392776804604 A         201210082012091300000000054800000116600000000000118661000000000000000000000000002061050000000000  3020121017   01          2                                                                                   3112392776806057049175300019                                                  N                     01321  0000000        000156
12056993512000150CYKLOP DO BRASIL EMBALAGENS SA                                        0000000034100000000000000000000000000000874070500000002362586810134932        201210012012090300000000054730000083607000000000088519000000000000000000000000004912050000000000  3020121017   01          2                                                                                   3112362586813025700015800019                                                  N                     01321  0000000        000157
12056993900000131CIA METALURGICA PRADA                                                 0000000034100000000000000000000000000000824820100000002102181160024711603     201208292012060600000000054400000833146000000000901207000000000000000000000000068061050000000000  3020121017   01          2                                                                                   3112102181164293800573900039                                                  N                     01321  0000000        000158
12056993900000131CIA METALURGICA PRADA                                                 0000000034100000000000000000000000000000848180620000002218222670025829902     201209112012071700000000054530000498118000000000527998000000000000000000000000029880050000000000  3020121017   01          2                                                                                   3112218222670293800573900029                                                  N                     01321  0000000        000159
12056993900000131CIA METALURGICA PRADA                                                 0000000034100000000000000000000000000000848180630000002218222680025830002     201209112012071700000000054530000247673000000000262541000000000000000000000000014868050000000000  3020121017   01          2                                                                                   3112218222688293800573900059                                                  N                     01321  0000000        000160
12056993900000131CIA METALURGICA PRADA                                                 0000000034100000000000000000000000000000848180640000002218222690025830102     201209112012071700000000054530000207402000000000219858000000000000000000000000012456050000000000  3020121017   01          2                                                                                   3112218222696293800573900039                                                  N                     01321  0000000        000161
12056993900000131CIA METALURGICA PRADA                                                 0000000034100000000000000000000000000000844838960000002201181950025629303     201210032012071100000000054750000257905000000000263925000000000000000000000000006020050000000000  3020121017   01          2                                                                                   3112201181958293800573900099                                                  N                     01321  0000000        000162
12056993900000131CIA METALURGICA PRADA                                                 0000000034100000000000000000000000000000840312930000002179478290025419302     201208282012070300000000054390000402178000000000435678000000000000000000000000033500050000000000  3020121017   01          2                                                                                   3112179478295293800573900089                                                  N                     01321  0000000        000163
12056993900000131CIA METALURGICA PRADA                                                 0000000034100000000000000000000000000000840312940000002179478300025419402     201208282012070300000000054390000322804000000000349704000000000000000000000000026900050000000000  3020121017   01          2                                                                                   3112179478303293800573900079                                                  N                     01321  0000000        000164
12056993900000131CIA METALURGICA PRADA                                                 0000000034100000000000000000000000000000844838970000002201181960025629403     201210032012071100000000054750000249372000000000255196000000000000000000000000005824050000000000  3020121017   01          2                                                                                   3112201181966293800573900019                                                  N                     01321  0000000        000165
12056993900000131CIA METALURGICA PRADA                                                 0000000034100000000000000000000000000000844838980000002201181970025635303     201210032012071100000000054750000406843000000000416335000000000000000000000000009492050000000000  3020121017   01          2                                                                                   3112201181974293800573900089                                                  N                     01321  0000000        000166
12056993900000131CIA METALURGICA PRADA                                                 0000000034100000000000000000000000000000844838990000002201181980025635403     201210032012071100000000054750000208689000000000213561000000000000000000000000004872050000000000  3020121017   01          2                                                                                   3112201181982293800573900059                                                  N                     01321  0000000        000167
12056993900000131CIA METALURGICA PRADA                                                 0000000034100000000000000000000000000000848180650000002218222700025829903     201210092012071700000000054810000498119000000000504759000000000000000000000000006640050000000000  3020121017   01          2                                                                                   3112218222704293800573900019                                                  N                     01321  0000000        000168
12056993900000131CIA METALURGICA PRADA                                                 0000000034100000000000000000000000000000848180660000002218222710025830003     201210092012071700000000054810000247672000000000250976000000000000000000000000003304050000000000  3020121017   01          2                                                                                   3112218222712293800573900019                                                  N                     01321  0000000        000169
12056993900000131CIA METALURGICA PRADA                                                 0000000034100000000000000000000000000000844839000000002201181880025629402     201209052012071100000000054470000249372000000000266844000000000000000000000000017472050000000000  3020121017   01          2                                                                                   3112201181883293800573900019                                                  N                     01321  0000000        000170
12056993900000131CIA METALURGICA PRADA                                                 0000000034100000000000000000000000000000844839010000002201181890025635302     201209052012071100000000054470000406842000000000435318000000000000000000000000028476050000000000  3020121017   01          2                                                                                   3112201181891293800573900019                                                  N                     01321  0000000        000171
12056993900000131CIA METALURGICA PRADA                                                 0000000034100000000000000000000000000000844839020000002201181900025635402     201209052012071100000000054470000208689000000000223305000000000000000000000000014616050000000000  3020121017   01          2                                                                                   3112201181909293800573900069                                                  N                     01321  0000000        000172
12056993900000131CIA METALURGICA PRADA                                                 0000000034100000000000000000000000000000844839030000002201181910025635502     201209052012071100000000054470000164780000000000176330000000000000000000000000011550050000000000  3020121017   01          2                                                                                   3112201181917293800573900029                                                  N                     01321  0000000        000173
12056993900000131CIA METALURGICA PRADA                                                 0000000034100000000000000000000000000000844839040000002201181920025635602     201209052012071100000000054470000339933000000000363747000000000000000000000000023814050000000000  3020121017   01          2                                                                                   3112201181925293800573900069                                                  N                     01321  0000000        000174
12056993900000131CIA METALURGICA PRADA                                                 0000000034100000000000000000000000000000844839050000002201181930025636202     201209052012071100000000054470000746213000000000798461000000000000000000000000052248050000000000  3020121017   01          2                                                                                   3112201181933293800573900019                                                  N                     01321  0000000        000175
12056993900000131CIA METALURGICA PRADA                                                 0000000034100000000000000000000000000000844839060000002201181940025644402     201209052012071100000000054470000779647000000000834205000000000000000000000000054558050000000000  3020121017   01          2                                                                                   3112201181941293800573900019                                                  N                     01321  0000000        000176
12056993900000131CIA METALURGICA PRADA                                                 0000000034100000000000000000000000000000844839070000002201181990025635503     201210032012071100000000054750000164779000000000168629000000000000000000000000003850050000000000  3020121017   01          2                                                                                   3112201181990293800573900019                                                  N                     01321  0000000        000177
12056993900000131CIA METALURGICA PRADA                                                 0000000034100000000000000000000000000000844839080000002201182000025635603     201210032012071100000000054750000339934000000000347872000000000000000000000000007938050000000000  3020121017   01          2                                                                                   3112201182006293800573900069                                                  N                     01321  0000000        000178
12056993900000131CIA METALURGICA PRADA                                                 0000000034100000000000000000000000000000844839090000002201182010025636203     201210032012071100000000054750000746212000000000763628000000000000000000000000017416050000000000  3020121017   01          2                                                                                   3112201182014293800573900079                                                  N                     01321  0000000        000179
12056993900000131CIA METALURGICA PRADA                                                 0000000034100000000000000000000000000000844839100000002201182020025644403     201210032012071100000000054750000779647000000000797833000000000000000000000000018186050000000000  3020121017   01          2                                                                                   3112201182022293800573900049                                                  N                     01321  0000000        000180
12056993900000131CIA METALURGICA PRADA                                                 0000000034100000000000000000000000000000844839140000002201181870025629302     201209052012071100000000054470000257906000000000275966000000000000000000000000018060050000000000  3020121017   01          2                                                                                   3112201181875293800573900069                                                  N                     01321  0000000        000181
12056993900000131CIA METALURGICA PRADA                                                 0000000034100000000000000000000000000000848180670000002218222720025830103     201210092012071700000000054810000207402000000000210170000000000000000000000000002768050000000000  3020121017   01          2                                                                                   3112218222720293800573900079                                                  N                     01321  0000000        000182
12057029431000106ATLAS COPCO BRASIL LTDA                                               0000000034100000000000000000000000000000861960280000002283943487000054090     201209062012080900000000054480000059490000000000061089000000000000000000000000001599050000000000  3020121017   01          2                                                                                   3112283943481293804111400069                                                  N                     01321  0000000        000183
12057029431000106ATLAS COPCO BRASIL LTDA                                               0000000034100000000000000000000000000000863731640000002292733057000054146     201209072012081000000000054490000081450000000000083610000000000000000000000000002160050000000000  3020121017   01          2                                                                                   3112292733055293804111400099                                                  N                     01321  0000000        000184
12058566399000152NORDSON DO BRASIL IND E COM LT                                        0000000039900000000000000000000000000000901454990000000000000000000057701     201211082012101100000000055110000063000000000000063000000000000000000000000000000000050000000000  3020121108   01FS        1                                                                                   3176185754201163111666000159                                                  N                     01321  0000000        000185
12059659615000177DZ COMERCIO R E SERVICOS LTDA                                         000000003410000000000000000000000000000086699205000000900000268252            201209172012081500000000054590000060000000000000063600000000000000000000000000003600050000000000  3020121017   01          2                                                                                   3109000002680000314585100059                                                  N                     01321  0000000        000186
12061100202000108COFIPE VEICULOS LTDA                                                  0000000039900000000000000000000000000000845714740000000000000009700533803     201210112012071300000000054830000017850000000000017850000000000000000000000000000000050000000000  3020121011   06          3                                                                                   3320005133250343608018900129                                                  N                     01321  0000000        000187
12061217188000119TELAS METALICAS TELMETAL LTDA                                         0000000034100000000000000000000000000000896050420000009000029615640 1 3       201210092012091100000000054810000033288000000000033288000000000000000000000000000000050000000000  3020121009   06          3                                                                                   3109000029619077099894600039                                                  N                     01321  0000000        000188
12061217188000119TELAS METALICAS TELMETAL LTDA                                         0000000034100000000000000000000000000000896050430000009000029645639 1 3       201210092012091100000000054810000052761000000000052761000000000000000000000000000000050000000000  3020121009   06          3                                                                                   3109000029643077099894600069                                                  N                     01321  0000000        000189
12061217188000119TELAS METALICAS TELMETAL LTDA                                         0000000000100000000000000000000000000000885248160000000057460005660 1 2       201210152012091800000000054870000072172000000000072556000000000000000000000000000384050000000000  3020121017   01          2                                                                                   3000000115031800000057461749                                                  N                     01321  0000000        000190
12061217188000119TELAS METALICAS TELMETAL LTDA                                         0000000000100000000000000000000000000000885248140000000057440005659 1 2       201210152012091800000000054870000039222000000000039432000000000000000000000000000210050000000000  3020121017   01          2                                                                                   3000000115031800000057441729                                                  N                     01321  0000000        000191
12061780615000172LEPOK INFORMATICA E PAPELARIA                                         0000000023703393600000000005010 000000008887329900202269000000802127952       201210152012091700000000054870000049890000000000050190000000000000000000000000000300050000000000  3020121017   01          2  RUA TAMAINDE 1410                                                                3                         000000000000000                                     N                     00598  0000000        000192
12061780615000172LEPOK INFORMATICA E PAPELARIA                                         0000000023703393600000000005010 000000008887330000202269000000902128008       201210152012091700000000054870000006768000000000006808000000000000000000000000000040050000000000  3020121017   01          2  RUA TAMAINDE 1410                                                                3                         000000000000000                                     N                     00598  0000000        000193
12062344882000160INDUSTRIA COM PARAFUS NAP LTDA                                        00000000341000000000000000000000000000008729529500000023597286411535 2        201210052012083100000000054770000047598000000000047598000000000000000000000000000000050000000000  3020121005   06          3                                                                                   3112359728642482812260800089                                                  N                     01321  0000000        000194
12062510367000102ITANHAEM TRANSP DE MAQUINAS LT                                        000000003410000000000000000000000000000087407049000000236463199667            201209202012090400000000054620000248220000000000275031000000000000000000000000026811050000000000  3020121017   01          2                                                                                   3112364631997005770252400049                                                  N                     01321  0000000        000195
12062539994000176LEALFER INDUSTRIA E COMERCIO D                                        0000000003300000000000000000000000000000884432820000000000000000005502001     201210152012091300000000054870000839516000000000842370000000000000000000000000002854050000000000  3020121017   01          2                                                                                   3915298380000000260800010419                                                  N                     01321  0000000        000196
12062539994000176LEALFER INDUSTRIA E COMERCIO D                                        0000000003300000000000000000000000000000884432810000003900000000005479101     201210092012091100000000054810001068982000000001079885000000000000000000000000012720050000000000  3020121015   06          3                                                                                   3915298380000000260339010499                                                  N                     01321  0000000        000197
12064952757000168WALMAC COM DE PROD QUIMICOS LT                                        0000000034100000000000000000000000000000860403450000002275821700020148        201210052012080300000000054770000219267000000000224439000000000000000000000000005172050000000000  3020121017   01          2                                                                                   3112275821703064807961400029                                                  N                     01321  0000000        000198
12064952757000168WALMAC COM DE PROD QUIMICOS LT                                        0000000034100000000000000000000000000000860403460000002275821710020148        201208312012080300000000054420000219267000000000239524000000000000000000000000020257050000000000  3020121017   01          2                                                                                   3112275821711064807961400079                                                  N                     01321  0000000        000199
