0000147602043799295000110ALTAMIRA INDUSTRIA METALURGICA LT       202000000016920121117061711             1                                                                                                                                                                                                                                                                                                                                                                                                    000001
12001852612000175BT EQUIPAMENTOS INDUSTRIAIS LT                                        000000000330000000000000000000000000000090920339000000300000000051476 1       201211152012101800000000055180000050484000000000052198000000000000000000000000001714050000000000  3020121119   01          2                                                                                   3913651000000003010430010459                                                  N                     01321  0000000        000002
12001895314000162COLETA INDUSTRIAL FIMAVAN LTDA                                        0000000034100000000000000000000000000000866992070000009002335349439           201208272012081700000000054380000123695000000000153805000000000000000000000000030110050000000000  3020121119   01          2                                                                                   3109002335346144604097200019                                                  N                     01321  0000000        000003
12003489596000123BEND FLEX I COMERCIO LTDA                                             000000003410000000000000000000000000000088350832000000171879874608            201209122012082100000000054540000695250000000000788206000000000000000000000000092956050000000000  3020121119   01          2                                                                                   3191718798744157734445800069                                                  N                     01321  0000000        000004
12003489596000123BEND FLEX I COMERCIO LTDA                                             000000003410000000000000000000000000000088599899000000171434574613            201209172012081600000000054590000585000000000000657513000000000000000000000000072513050000000000  3020121119   01          2                                                                                   3191714345748157734445800019                                                  N                     01321  0000000        000005
12003489596000123BEND FLEX I COMERCIO LTDA                                             000000003410000000000000000000000000000091358505000000177374323637            201210292012092700000000055010000110000000000000114536000000000000000000000000004536050000000000  3020121119   01          2                                                                                   3191773743239157734445800019                                                  N                     01321  0000000        000006
12004643290000142FLEXTINTAS IND E COMERCIO LTDA                                        000000003410000000000000000000000000000091358498000000254413384NFF038846A     201212152012103100000000055480000347270000000000347270000000000000000000000000000000050000000000  3020121217   05          3                                                                                   3112544133849051356781800059                                                  N                     01321  0000000        000007
12004643290000142FLEXTINTAS IND E COMERCIO LTDA                                        000000003410000000000000000000000000000091358499000000254413386NFF038846C     201301142012103100000000055780000347270000000000347270000000000000000000000000000000050000000000  3020130114   05          3                                                                                   3112544133864051356781800069                                                  N                     01321  0000000        000008
12004643290000142FLEXTINTAS IND E COMERCIO LTDA                                        000000003410000000000000000000000000000091358500000000254413385NFF038846B     201212302012103100000000055630000347270000000000347270000000000000000000000000000000050000000000  3020121231   05          3                                                                                   3112544133856051356781800099                                                  N                     01321  0000000        000009
12005880850000145NEDERMAN BRASIL COM PROD EX LT                                        000000003410000000000000000000000000000086373178000000614350956002763 A       201209252012081400000000054670000289674000000000321024000000000000000000000000031350050000000000  3020121119   01          2                                                                                   3156143509568160829000100049                                                  N                     01321  0000000        000010
12006000195000156MBA MERCANTIL BRAS DE ACO LTDA                                        0000000034100000000000000000000000000000885998980000001667238420008870B02     201209112012071600000000054530000839952000000000953940000000000000000000000000113988050000000000  3020121119   01          2                                                                                   3191667238429064849251000039                                                  N                     01321  0000000        000011
12006000195000156MBA MERCANTIL BRAS DE ACO LTDA                                        0000000034100000000000000000000000000000889578520000001671394540008920B02     201209162012071700000000054580000576585000000000649161000000000000000000000000072576050000000000  3020121119   01          2                                                                                   3191671394549064849251000099                                                  N                     01321  0000000        000012
12006000195000156MBA MERCANTIL BRAS DE ACO LTDA                                        0000000034100000000000000000000000000000904173140000001667238290008874B03     201210112012071600000000054830000802825000000000864406000000000000000000000000061581050000000000  3020121119   01          2                                                                                   3191667238296064849251000069                                                  N                     01321  0000000        000013
12006000195000156MBA MERCANTIL BRAS DE ACO LTDA                                        0000000034100000000000000000000000000000904173150000001667238300008870B03     201210092012071600000000054810000839951000000000907683000000000000000000000000067732050000000000  3020121119   01          2                                                                                   3191667238304064849251000039                                                  N                     01321  0000000        000014
12006000195000156MBA MERCANTIL BRAS DE ACO LTDA                                        0000000034100000000000000000000000000000904173160000001667238280008876B03     201210122012071600000000054840000810320000000000870892000000000000000000000000060572050000000000  3020121119   01          2                                                                                   3191667238288064849251000079                                                  N                     01321  0000000        000015
12006000195000156MBA MERCANTIL BRAS DE ACO LTDA                                        0000000034100000000000000000000000000000904173170000001671394420008925B03     201210122012071700000000054840000719580000000000773350000000000000000000000000053770050000000000  3020121119   01          2                                                                                   3191671394424064849251000069                                                  N                     01321  0000000        000016
12006000195000156MBA MERCANTIL BRAS DE ACO LTDA                                        0000000034100000000000000000000000000000904173180000001671394430008926B03     201210122012071700000000054840000387716000000000416710000000000000000000000000028994050000000000  3020121119   01          2                                                                                   3191671394432064849251000079                                                  N                     01321  0000000        000017
12006000195000156MBA MERCANTIL BRAS DE ACO LTDA                                        0000000034100000000000000000000000000000906662670000001671394410008920B03     201210142012071700000000054860000576584000000000617408000000000000000000000000040824050000000000  3020121119   01          2                                                                                   3191671394416064849251000039                                                  N                     01321  0000000        000018
12006000195000156MBA MERCANTIL BRAS DE ACO LTDA                                        0000000034100000000000000000000000000000887698090000001671394550008925B02     201209142012071700000000054560000719581000000000812971000000000000000000000000093390050000000000  3020121119   01          2                                                                                   3191671394556064849251000089                                                  N                     01321  0000000        000019
12006000195000156MBA MERCANTIL BRAS DE ACO LTDA                                        0000000034100000000000000000000000000000887698100000001671394560008926B02     201209142012071700000000054560000387716000000000438074000000000000000000000000050358050000000000  3020121119   01          2                                                                                   3191671394564064849251000019                                                  N                     01321  0000000        000020
12006000195000156M B A MERCANTIL BRASILEIRA DE                                         0000000023700118P00000002130599 00000000848180770020220100000340008905B03     201210112012071900000000054830000155300000000000165401000000000000000000000000010101050000000000  3020121119   01          2  RUA JUNO  533                                                                    3                         000000000000000                                     N                     00598  0000000        000021
12006000195000156M B A MERCANTIL BRASILEIRA DE                                         0000000023700118P00000002130599 00000000868592690020223600000020009229B02     201210112012081600000000054830000253414000000000269872000000000000000000000000016458050000000000  3020121119   01          2  RUA JUNO  533                                                                    3                         000000000000000                                     N                     00598  0000000        000022
12006000195000156M B A MERCANTIL BRASILEIRA DE                                         0000000023700118P00000002130599 00000000865388260020222900000470009204B02     201210112012081500000000054830000127292000000000135560000000000000000000000000008268050000000000  3020121119   01          2  RUA JUNO  533                                                                    3                         000000000000000                                     N                     00598  0000000        000023
12006000195000156M B A MERCANTIL BRASILEIRA DE                                         0000000023700118P00000002130599 00000000865388290020222900000500009205B02     201210122012081500000000054840000348964000000000371080000000000000000000000000022116050000000000  3020121119   01          2  RUA JUNO  533                                                                    3                         000000000000000                                     N                     00598  0000000        000024
12006000195000156M B A MERCANTIL BRASILEIRA DE                                         0000000023700118P00000002130599 00000000865388320020222900000530009206B02     201210132012081500000000054850000527560000000000560083000000000000000000000000032523050000000000  3020121119   01          2  RUA JUNO  533                                                                    3                         000000000000000                                     N                     00598  0000000        000025
12008508119000181DINARI FOMENTO MERCANTIL LTDA                                         0000000023702499600000000178306 000000009058100800202297000000715351          201211162012102200000000055190000015000000000000015585000000000000000000000000000585050000000000  3020121119   01          2  RUA GANGES  528 VILA CARRAO SAO PAULO SPNELSON RODRIGUES DA SILVA JUNIOR EPP     3                         011389422000117                                     N                     00598  0000000        000026
12009259079000144SAFRA COMERCIAL DE PAPEIS LTDA                                        00000000033000000000000000000000000000009212676700000057000000000147470       201212132012111400000000055460000018800000000000018800000000000000000000000000000000050000000000  3020121213   01FS        1                                                                                   3918361880000000346657010419                                                  N                     01321  0000000        000027
12009338857000190FERNANDO  NAGAO  CARDONE  ALVA                                        000000000330000000000000000000000000000089697936000000800000000ALTA 10 2012   201210202012092500000000054920000134632000000000148098000000000000000000000000013466050000000000  3020121119   01          2                                                                                   3947901700000051050080010129                                                  N                     01321  0000000        000028
12012006058000121WEG TINTAS LTDA                                                       0000000023702727800000000001309 00000000868126350090223500001180016086602     201210202012082100000000054920000306569000000000318809000000000000000000000000012240050000000000  3020121119   01          2  R JUNO  533                                                                      3                         000000000000000                                     N                     00598  0000000        000029
12012006058000121WEG TINTAS LTDA                                                       0000000023702727800000000001309 00000000868126360090223500001190016086603     201211042012082100000000055070000306662000000000312782000000000000000000000000006120050000000000  3020121119   01          2  R JUNO  533                                                                      3                         000000000000000                                     N                     00598  0000000        000030
12012006058000121WEG TINTAS LTDA                                                       0000000023702727800000000001309 00000000870177490090224100000980016248002     201210262012082700000000054980000306569000000000316361000000000000000000000000009792050000000000  3020121119   01          2  R JUNO  533                                                                      3                         000000000000000                                     N                     00598  0000000        000031
12012006058000121WEG TINTAS LTDA                                                       0000000023702727800000000001309 00000000870177500090224100000990016248003     201211102012082700000000055130000306662000000000310334000000000000000000000000003672050000000000  3020121119   01          2  R JUNO  533                                                                      3                         000000000000000                                     N                     00598  0000000        000032
12012006058000121WEG TINTAS LTDA                                                       0000000023702727800000000001309 00000000872318660090224700001040016359602     201210302012083100000000055020000459854000000000472114000000000000000000000000012260050000000000  3020121119   01          2  R JUNO  533                                                                      3                         000000000000000                                     N                     00598  0000000        000033
12012006058000121WEG TINTAS LTDA                                                       0000000023702727800000000001309 00000000872318670090224700001050016359603     201211142012083100000000055170000459992000000000463057000000000000000000000000003065050000000000  3020121119   01          2  R JUNO  533                                                                      3                         000000000000000                                     N                     00598  0000000        000034
12012006058000121WEG TINTAS LTDA                                                       0000000023702727800000000001309 00000000878206040090225400000780016517201     201210212012090600000000054930000459854000000000477631000000000000000000000000017777050000000000  3020121119   01          2  R JUNO  533                                                                      3                         000000000000000                                     N                     00598  0000000        000035
12012006058000121WEG TINTAS LTDA                                                       0000000023702727800000000001309 00000000878206050090225400000790016517202     201211052012090600000000055080000459854000000000468436000000000000000000000000008582050000000000  3020121119   01          2  R JUNO  533                                                                      3                         000000000000000                                     N                     00598  0000000        000036
12012006058000121WEG TINTAS LTDA                                                       0000000023702727800000000001309 00000000882668410090225800000740016626901     201210282012091300000000055000000459854000000000473340000000000000000000000000013486050000000000  3020121119   01          2  R JUNO  533                                                                      3                         000000000000000                                     N                     00598  0000000        000037
12012006058000121WEG TINTAS LTDA                                                       0000000023702727800000000001309 00000000882668420090225800000750016626902     201211122012091300000000055150000459854000000000464145000000000000000000000000004291050000000000  3020121119   01          2  R JUNO  533                                                                      3                         000000000000000                                     N                     00598  0000000        000038
12012006058000121WEG TINTAS LTDA                                                       0000000023702727800000000001309 00000000861207280090222200000920015775003     201210222012080800000000054940000306662000000000318086000000000000000000000000011424050000000000  3020121119   01          2  R JUNO  533                                                                      3                         000000000000000                                     N                     00598  0000000        000039
12012006058000121WEG TINTAS LTDA                                                       0000000023702727800000000001309 00000000864554460090222800000750015908403     201210282012081400000000055000000306662000000000315638000000000000000000000000008976050000000000  3020121119   01          2  R JUNO  533                                                                      3                         000000000000000                                     N                     00598  0000000        000040
12014775592000128HELIO ADRIANO DA SILVA ME                                             0000000003300000000000000000000000000000921267680000009100000009131 9127      201212032012111400000000055360000044000000000000044000000000000000000000000000000000050000000000  3020121203   01FS        1                                                                                   3956114740000000000091010199                                                  N                     01321  0000000        000041
12035820448000136WHITE MARTINS GASES INDUSTRIAI                                        0000000023700026400000003937925 0000000092126759009023210000567407534 001     201212112012111500000000055440000056805000000000056805000000000000000000000000000000050000000000  3020121211   01FS        1  RUA GANGES  528                                                                  3                         000000000000000                                     N                     00598  0000000        000042
12035820448000136WHITE MARTINS GASES INDUSTRIAI                                        0000000023700026400000003937925 0000000090417334009022930002455395360 001     201211152012101900000000055180000028403000000000029007000000000000000000000000000604050000000000  3020121119   01          2  RUA GANGES  528                                                                  3                         000000000000000                                     N                     00598  0000000        000043
12042956441000101SOLUCOES ACO USIMINAS                                                 0000000034100000000000000000000000000000847452100000002216130340017012402     201209102012071500000000054520000147428000000000168078000000000000000000000000020650050000000000  3020121119   01          2                                                                                   3112216130347293807258000059                                                  N                     01321  0000000        000044
12042956441000101SOLUCOES ACO USIMINAS                                                 0000000034100000000000000000000000000000853154840000002246247030017196702     201209202012072500000000054620000234841000000000263041000000000000000000000000028200050000000000  3020121119   01          2                                                                                   3112246247038293807258000099                                                  N                     01321  0000000        000045
12042956441000101SOLUCOES ACO USIMINAS                                                 0000000034100000000000000000000000000000846595700000002210880280016980502     201209102012071200000000054520000156071000000000177911000000000000000000000000021840050000000000  3020121119   01          2                                                                                   3112210880285293807258000039                                                  N                     01321  0000000        000046
12042956441000101SOLUCOES ACO USIMINAS                                                 0000000034100000000000000000000000000000846595710000002210880290016980602     201209102012071200000000054520000426094000000000485734000000000000000000000000059640050000000000  3020121119   01          2                                                                                   3112210880293293807258000019                                                  N                     01321  0000000        000047
12042956441000101SOLUCOES ACO USIMINAS                                                 0000000034100000000000000000000000000000847452070000002216130350005922202     201209102012071600000000054520000172071000000000196151000000000000000000000000024080050000000000  3020121119   01          2                                                                                   3112216130354293807258000049                                                  N                     01321  0000000        000048
12042956441000101SOLUCOES ACO USIMINAS                                                 0000000034100000000000000000000000000000848180700000002220192900017041002     201209112012071700000000054530000155433000000000176892000000000000000000000000021459050000000000  3020121119   01          2                                                                                   3112220192903293807258000029                                                  N                     01321  0000000        000049
12042956441000101SOLUCOES ACO USIMINAS                                                 0000000034100000000000000000000000000000848180710000002220192910017041202     201209112012071700000000054530000205421000000000233780000000000000000000000000028359050000000000  3020121119   01          2                                                                                   3112220192911293807258000019                                                  N                     01321  0000000        000050
12042956441000101SOLUCOES ACO USIMINAS                                                 0000000034100000000000000000000000000000850740460000002233586800017127201     201208202012072000000000054310000137881000000000162997000000000000000000000000025116050000000000  3020121119   01          2                                                                                   3112233586802293807258000019                                                  N                     01321  0000000        000051
12042956441000101SOLUCOES ACO USIMINAS                                                 0000000034100000000000000000000000000000850740470000002233586810017101002     201209142012071900000000054560000732575000000000829265000000000000000000000000096690050000000000  3020121119   01          2                                                                                   3112233586810293807258000019                                                  N                     01321  0000000        000052
12042956441000101SOLUCOES ACO USIMINAS                                                 0000000034100000000000000000000000000000850740480000002233586820017101202     201209142012071900000000054560000144634000000000163708000000000000000000000000019074050000000000  3020121119   01          2                                                                                   3112233586828293807258000029                                                  N                     01321  0000000        000053
12042956441000101SOLUCOES ACO USIMINAS                                                 0000000034100000000000000000000000000000856906410000002262886280017266201     201208282012073000000000054390000119472000000000139309000000000000000000000000019837050000000000  3020121119   01          2                                                                                   3112262886289293807258000089                                                  N                     01321  0000000        000054
12042956441000101SOLUCOES ACO USIMINAS                                                 0000000034100000000000000000000000000000856906420000002262886290017266301     201208282012073000000000054390000145069000000000169139000000000000000000000000024070050000000000  3020121119   01          2                                                                                   3112262886297293807258000099                                                  N                     01321  0000000        000055
12042956441000101SOLUCOES ACO USIMINAS                                                 0000000034100000000000000000000000000000859590620000002274469790017353702     201209282012080300000000054700000081053000000000089477000000000000000000000000008424050000000000  3020121119   01          2                                                                                   3112274469793293807258000069                                                  N                     01321  0000000        000056
12042956441000101SOLUCOES ACO USIMINAS                                                 0000000034100000000000000000000000000000853154850000002246247040017197302     201209202012072500000000054620000970103000000001086503000000000000000000000000116400050000000000  3020121119   01          2                                                                                   3112246247046293807258000019                                                  N                     01321  0000000        000057
12042956441000101SOLUCOES ACO USIMINAS                                                 0000000034100000000000000000000000000000855028690000002254329380017212902     201209212012072600000000054630000140098000000000156618000000000000000000000000016520050000000000  3020121119   01          2                                                                                   3112254329389293807258000019                                                  N                     01321  0000000        000058
12042956441000101SOLUCOES ACO USIMINAS                                                 0000000034100000000000000000000000000000855028700000002254329390017213002     201209212012072600000000054630000140602000000000157181000000000000000000000000016579050000000000  3020121119   01          2                                                                                   3112254329397293807258000089                                                  N                     01321  0000000        000059
12042956441000101SOLUCOES ACO USIMINAS                                                 0000000034100000000000000000000000000000855028770000002254329400017220502     201209212012072700000000054630000981022000000001096780000000000000000000000000115758050000000000  3020121119   01          2                                                                                   3112254329405293807258000099                                                  N                     01321  0000000        000060
12047190731000100DE CASTRO LOUR ENG IND LTDA                                           00000000341000000000000000000000000000008782050900000023399953503026612 0     201209182012082100000000054600001111489000000001247021000000000000000000000000135532050000000000  3020121119   01          2                                                                                   3112339995352036884500400019                                                  N                     01321  0000000        000061
12047190731000100DE CASTRO LOUR ENG IND LTDA                                           00000000341000000000000000000000000000008782051200000023399953803026613 0     201209182012082100000000054600001107989000000001243087000000000000000000000000135098050000000000  3020121119   01          2                                                                                   3112339995386036884500400039                                                  N                     01321  0000000        000062
12047190731000100DE CASTRO LOUR ENG IND LTDA                                           00000000341000000000000000000000000000008782051600000023399954103026614 0     201209182012082100000000054600001047621000000001175341000000000000000000000000127720050000000000  3020121119   01          2                                                                                   3112339995410036884500400039                                                  N                     01321  0000000        000063
12047190731000100DE CASTRO LOUR ENG IND LTDA                                           00000000341000000000000000000000000000008782052000000023399955303026632 0     201209192012082200000000054610000952073000000001066265000000000000000000000000114192050000000000  3020121119   01          2                                                                                   3112339995535036884500400019                                                  N                     01321  0000000        000064
12047190731000100DE CASTRO LOUR ENG IND LTDA                                           00000000341000000000000000000000000000008782052100000023399955903026643 0     201209202012082300000000054620000867039000000000969339000000000000000000000000102300050000000000  3020121119   01          2                                                                                   3112339995592036884500400049                                                  N                     01321  0000000        000065
12047190731000100DE CASTRO LOUR ENG IND LTDA                                           00000000341000000000000000000000000000008782052500000023399955603026636 0     201209192012082200000000054610000940804000000001053654000000000000000000000000112850050000000000  3020121119   01          2                                                                                   3112339995568036884500400049                                                  N                     01321  0000000        000066
12047190731000100DE CASTRO LOUR ENG IND LTDA                                           00000000341000000000000000000000000000008782052700000023399956203026648 0     201209202012082300000000054620000976053000000001091253000000000000000000000000115200050000000000  3020121119   01          2                                                                                   3112339995626036884500400029                                                  N                     01321  0000000        000067
12047190731000100DE CASTRO LOUREIRO ENGENHARIA                                         00000000033000000000000000000000000000008782053600000088000000003026669 0     201211162012082400000000055190000867999000000000885359000000000000000000000000017360050000000000  3020121119   01          2                                                                                   3948430370000009552588020319                                                  N                     01321  0000000        000068
12048775225000146SEIKI IND COM E CONFECCOES LTD                                        000000003410000000000000000000000000000089337376000000244697151014914001      201210232012092500000000054950000052000000000000054106000000000000000000000000002106050000000000  3020121119   01          2                                                                                   3112446971510017444824100089                                                  N                     01321  0000000        000069
12049341563000132JAC COMERCIO DE MAT ELET LTDA                                         000000003410000000000000000000000000000089697947000000246543950000023447C     201211152012100400000000055180000014732000000000014828000000000000000000000000000096050000000000  3020121119   01          2                                                                                   3112465439506018060969500039                                                  N                     01321  0000000        000070
12051180370000199IGUAFER FERRO E ACO LTDA                                              0000000034100000000000000000000000000000852309100000002239389789443 B         201209022012071800000000054440000168275000000000190115000000000000000000000000021840050000000000  3020121119   01          2                                                                                   3112239389789077149484600089                                                  N                     01321  0000000        000071
12051180370000199IGUAFER FERRO E ACO LTDA                                              0000000034100000000000000000000000000000852309110000002239389799443 C         201209122012071800000000054540000168275000000000187315000000000000000000000000019040050000000000  3020121119   01          2                                                                                   3112239389797077149484600089                                                  N                     01321  0000000        000072
12053585766000141MULTIACOS I C PRODS TEC LTDA                                          0000000042200000000000000000000000000000890456940000000000000000004724402     201211162012092500000000055190000522661000000000525273000000000000000000000000002612050000000000  3020121119   01          2                                                                                   3711500005033164925775193119                                                  N                     01321  0000000        000073
12053585766000141MULTIACOS I C PRODS TEC LTDA                                          0000000042200000000000000000000000000000895189550000000000000000004695702     201211122012100200000000055150001092223000000001104962000000000000000000000000012739050000000000  3020121119   01          2                                                                                   3711500005033164927761971189                                                  N                     01321  0000000        000074
12053585766000141MULTIACOS I C PRODS TEC LTDA                                          0000000042200000000000000000000000000000890456980000000000000000004724302     201211162012092500000000055190000268274000000000269614000000000000000000000000001340050000000000  3020121119   01          2                                                                                   3711500005033164925775169159                                                  N                     01321  0000000        000075
12053585766000141MULTIACOS I C PRODS TEC LTDA                                          0000000042200000000000000000000000000000890457010000000000000000004650403     201211142012092500000000055170000192957000000000194566000000000000000000000000001609050000000000  3020121119   01          2                                                                                   3711500005033164925775231119                                                  N                     01321  0000000        000076
12053585766000141MULTIACOS I C PRODS TEC LTDA                                          0000000042200000000000000000000000000000890457040000000000000000004650303     201211142012092500000000055170000228607000000000230511000000000000000000000000001904050000000000  3020121119   01          2                                                                                   3711500005033164925775215139                                                  N                     01321  0000000        000077
12053585766000141MULTIACOS I C PRODS TEC LTDA                                          0000000042200000000000000000000000000000895189580000000000000000004699102     201211122012100200000000055150000574719000000000581424000000000000000000000000006705050000000000  3020121119   01          2                                                                                   3711500005033164927762030199                                                  N                     01321  0000000        000078
12053585766000141MULTIACOS I C PRODS TEC LTDA                                          0000000042200000000000000000000000000000895189630000000000000000004699202     201211152012100200000000055180000519251000000000522710000000000000000000000000003459050000000000  3020121119   01          2                                                                                   3711500005033164927762064149                                                  N                     01321  0000000        000079
12053585766000141MULTIACOS I C PRODS TEC LTDA                                          0000000042200000000000000000000000000000895189680000000000000000004699302     201211142012100200000000055170000863284000000000870478000000000000000000000000007194050000000000  3020121119   01          2                                                                                   3711500005033164927762099149                                                  N                     01321  0000000        000080
12053585766000141MULTIACOS I C PRODS TEC LTDA                                          0000000042200000000000000000000000000000895189740000000000000000004642303     201211132012100200000000055160000192957000000000194888000000000000000000000000001931050000000000  3020121119   01          2                                                                                   3711500005033164927762161159                                                  N                     01321  0000000        000081
12053585766000141MULTIACOS I C PRODS TEC LTDA                                          0000000042200000000000000000000000000000895189770000000000000000004642103     201211132012100200000000055160000244317000000000246758000000000000000000000000002441050000000000  3020121119   01          2                                                                                   3711500005033164927762188149                                                  N                     01321  0000000        000082
12053585766000141MULTIACOS I C PRODS TEC LTDA                                          0000000042200000000000000000000000000000895189530000000000000000004695802     201211122012100200000000055150000193011000000000195264000000000000000000000000002253050000000000  3020121119   01          2                                                                                   3711500005033164927762005119                                                  N                     01321  0000000        000083
12053585766000141MULTIACOS I C PRODS TEC LTDA                                          0000000042200000000000000000000000000000887697890000000000000000004704302     201211132012092000000000055160000965514000000000975167000000000000000000000000009653050000000000  3020121119   01          2                                                                                   3711500005033164923629556119                                                  N                     01321  0000000        000084
12053585766000141MULTIACOS I C PRODS TEC LTDA                                          0000000042200000000000000000000000000000887697950000000000000000004704502     201211132012092000000000055160000217463000000000219634000000000000000000000000002171050000000000  3020121119   01          2                                                                                   3711500005033164923629581139                                                  N                     01321  0000000        000085
12053585766000141MULTIACOS I C PRODS TEC LTDA                                          0000000042200000000000000000000000000000883508190000000000000000004584603     201211012012091300000000055040000339224000000000343178000000000000000000000000004518050000000000  3020121108   05          3                                                                                   3711500005033164921116535119                                                  N                     01321  0000000        000086
12053585766000141MULTIACOS I C PRODS TEC LTDA                                          0000000042200000000000000000000000000000883508260000000000000000004585103     201211012012091300000000055040000222786000000000225382000000000000000000000000002966050000000000  3020121108   05          3                                                                                   3711500005033164921116578119                                                  N                     01321  0000000        000087
12053585766000141MULTIACOS I C PRODS TEC LTDA                                          0000000042200000000000000000000000000000883508300000000000000000004584803     201211012012091300000000055040000379244000000000383667000000000000000000000000005054050000000000  3020121108   05          3                                                                                   3711500005033164921116551119                                                  N                     01321  0000000        000088
12053585766000141MULTIACOS I C PRODS TEC LTDA                                          0000000042200000000000000000000000000000895189500000000000000000004585403     201211012012100200000000055040001047733000000001059954000000000000000000000000013966050000000000  3020121108   05          3                                                                                   3711500005033164927761947119                                                  N                     01321  0000000        000089
12053585766000141MULTIACOS I C PRODS TEC LTDA                                          0000000042200000000000000000000000000000895189600000000000000000004699201     201211012012100200000000055040000534986000000000541229000000000000000000000000007134050000000000  3020121108   05          3                                                                                   3711500005033164927762056149                                                  N                     01321  0000000        000090
12054382510000108SETENTA IND E COM DE MADEIRAS                                         0000000034100000000000000000000000000000921267620000002584985714843 A         201212052012111400000000055380000191200000000000191200000000000000000000000000000000050000000000  3020121205   01FS        1                                                                                   3112584985710057049175300059                                                  N                     01321  0000000        000091
12054382510000108SETENTA IND E COM DE MADEIRAS                                         0000000034100000000000000000000000000000860403430000002277814474462 A         201209042012080700000000054460000191200000000000219776000000000000000000000000028576050000000000  3020121119   01          2                                                                                   3112277814474057049175300069                                                  N                     01321  0000000        000092
12056993512000150CYKLOP DO BRASIL EMBALAGENS SA                                        0000000034100000000000000000000000000000874070500000002362586810134932        201210012012090300000000054730000083607000000000098650000000000000000000000000015043050000000000  3020121119   01          2                                                                                   3112362586813025700015800019                                                  N                     01321  0000000        000093
12061070454000123SOL IMPORTACAO EXPORTACAO INDU                                        0000000000100000000000000000000000000000905040900000002684000007006           201211152012101900000000055180000054000000000000054364000000000000000000000000000364050000000000  3020121119   01          2                                                                                   3044162684001196000055601159                                                  N                     01321  0000000        000094
12062510367000102ITANHAEM TRANSP DE MAQUINAS LT                                        000000003410000000000000000000000000000087407049000000236463199667            201209202012090400000000054620000248220000000000307800000000000000000000000000059580050000000000  3020121119   01          2                                                                                   3112364631997005770252400049                                                  N                     01321  0000000        000095
12062539994000176LEALFER INDUSTRIA E COMERCIO D                                        0000000003300000000000000000000000000000902449820000001400000000005648901     201211062012100900000000055090000447825000000000450108000000000000000000000000003044050000000000  3020121109   05          3                                                                                   3915298380000000276014010469                                                  N                     01321  0000000        000096
12062539994000176LEALFER INDUSTRIA E COMERCIO D                                        0000000003300000000000000000000000000000884432770000002800000000005479102     201211062012091100000000055090001068982000000001074433000000000000000000000000007268050000000000  3020121109   05          3                                                                                   3915298380000000264628010479                                                  N                     01321  0000000        000097
12064952757000168WALMAC COM DE PROD QUIMICOS LT                                        0000000034100000000000000000000000000000860403440000002275821690020148        201210262012080300000000054980000219266000000000229610000000000000000000000000010344050000000000  3020121119   01          2                                                                                   3112275821695064807961400019                                                  N                     01321  0000000        000098
12064952757000168WALMAC COM DE PROD QUIMICOS LT                                        0000000034100000000000000000000000000000896979500000002462157550021611        201211012012100400000000055040000219267000000000227025000000000000000000000000007758050000000000  3020121119   01          2                                                                                   3112462157556064807961400019                                                  N                     01321  0000000        000099
12064952757000168WALMAC COM DE PROD QUIMICOS LT                                        0000000034100000000000000000000000000000860403450000002275821700020148        201210052012080300000000054770000219267000000000238662000000000000000000000000019395050000000000  3020121119   01          2                                                                                   3112275821703064807961400029                                                  N                     01321  0000000        000100
12066841552000130R V SEG PATRIMONIAL S C LTDA                                          00000000341000000000000000000000000000008887329800000090002213622136          201210102012091100000000054820000374758000000000379758000000000000000000000000005000050000000000  3020121119   01          2                                                                                   3109000221365001838994000069                                                  N                     01321  0000000        000101
12069284248000128ISOCOAT TINTAS E VERNIZES LTDA                                        0000000034100000000000000000000000000000895189830000002456588190056254        201211162012100200000000055190000365668000000000368593000000000000000000000000002925050000000000  3020121119   01          2                                                                                   3112456588196077430121200019                                                  N                     01321  0000000        000102
12069284248000128ISOCOAT TINTAS E VERNIZES LTDA                                        0000000034100000000000000000000000000000841061040000002182507930052085        201209172012070200000000054590000236130000000000275820000000000000000000000000039690050000000000  3020121119   01          2                                                                                   3112182507932077430121200019                                                  N                     01321  0000000        000103
12069284248000128ISOCOAT TINTAS E VERNIZES LTDA                                        0000000034100000000000000000000000000000921267630000002580320800057981        201212272012111200000000055600000402235000000000402235000000000000000000000000000000050000000000  3020121227   01FS        1                                                                                   3112580320805077430121200079                                                  N                     01321  0000000        000104
12069284248000128ISOCOAT TINTAS E VERNIZES LTDA                                        0000000034100000000000000000000000000000921267640000002580320820057981        201301112012111200000000055750000349765000000000349765000000000000000000000000000000050000000000  3020130111   01FS        1                                                                                   3112580320821077430121200019                                                  N                     01321  0000000        000105
12069284248000128ISOCOAT TINTAS E VERNIZES LTDA                                        0000000034100000000000000000000000000000921267650000002580320830057981        201301262012111200000000055900000349870000000000349870000000000000000000000000000000050000000000  3020130128   01FS        1                                                                                   3112580320839077430121200099                                                  N                     01321  0000000        000106
12069284248000128ISOCOAT TINTAS E VERNIZES LTDA                                        0000000034100000000000000000000000000000921267660000002580416040058053        201301272012111300000000055910000318064000000000318064000000000000000000000000000000050000000000  3020130128   01FS        1                                                                                   3112580416041077430121200059                                                  N                     01321  0000000        000107
12069284248000128ISOCOAT TINTAS E VERNIZES LTDA                                        0000000034100000000000000000000000000000921267600000002580416000058053        201212282012111300000000055610000365668000000000365668000000000000000000000000000000050000000000  3020121228   01FS        1                                                                                   3112580416009077430121200069                                                  N                     01321  0000000        000108
12069284248000128ISOCOAT TINTAS E VERNIZES LTDA                                        0000000034100000000000000000000000000000921267610000002580416030058053        201301122012111300000000055760000317968000000000317968000000000000000000000000000000050000000000  3020130114   01FS        1                                                                                   3112580416033077430121200019                                                  N                     01321  0000000        000109
12069309706000136F N A TRANSPORTES LTDA                                                000000003410000000000000000000000000000091358508000000900012193060709         201211152012103100000000055180000025323000000000025659000000000000000000000000000336050000000000  3020121119   01          2                                                                                   3109000121937005486932600019                                                  N                     01321  0000000        000110
12096500087000135WORKBENCH CONSULTORIA S S LTDA                                        0000000034100000000000000000000000000000878205840000007940034283118           201209272012090300000000054690000131746000000000145473000000000000000000000000013727050000000000  3020121119   01          2                                                                                   3157940034289826313803700089                                                  N                     01321  0000000        000111
900011200000000046964118                                                                                                                                                                                                                                                                                                                                                                                                                                                                01321  0000000        000112
