0000147602043799295000110ALTAMIRA IND METALURGICA LTDA           20100473000002012081717471600000        2    230A                                                                                          000000000000000                                                                                                                                                                                                                                                                                   000001
12055721609000141MAC SEG EQUIP DE SEGURANCA LT                                         0000000034100000 0000000000000  I000000000009550000000000000000               201208170000000000000000054280000053080000000000053080000000000000000000000000000000010000003055  3120120817   01HA        000                                                                                 3181525207310037814415800019             003055/01                            N                     00000 10020256        000002
12071580302000124SANCHEPEL IND PAULISTA LTDA   RUA  MARIA FRANC DE JESUS  101          0809001034100000 0000000000000  I000000000009551000000000000000               201208170000000000000000054280000113640000000000113640000000000000000000000000000000010000007224  3120120817   01HA        000                                                                                 3181525204632007855578600059             007224                               N                     00000 10020256        000003
12006000195000156M B A MERCANTIL BRASILEIRA DE R RINCAO 220                            0365108023700118000000002128292 I000000000009552000000000000000               201208170000000000000000000000000000000000000000927528000000000000000000000000000000010000008573  0120120817   01HA        000                                                                                 3                                        0008573/02                           N                     00000 10020256        000004
12006000195000156M B A MERCANTIL BRASILEIRA DE R RINCAO 220                            0365108023700118000000002128292 I000000000009553000000000000000               201208170000000000000000000000000000000000000000365507000000000000000000000000000000010000008590  0120120817   01HA        000                                                                                 3                                        0008590/02                           N                     00000 10020256        000005
12006000195000156M B A MERCANTIL BRASILEIRA DE R RINCAO 220                            0365108023700118000000002128292 I000000000009554000000000000000               201208170000000000000000000000000000000000000000336000000000000000000000000000000000010000008589  0120120817   01HA        000                                                                                 3                                        0008589/02                           N                     00000 10020256        000006
12006000195000156M B A MERCANTIL BRASILEIRA DE R RINCAO 220                            0365108023700118000000002128292 I000000000009555000000000000000               201208170000000000000000000000000000000000000000166992000000000000000000000000000000010000008592  0120120817   01HA        000                                                                                 3                                        0008592                              N                     00000 10020256        000007
12006000195000156M B A MERCANTIL BRASILEIRA DE R RINCAO 220                            0365108023700118000000002128292 I000000000009556000000000000000               201208170000000000000000000000000000000000000000695457000000000000000000000000000000010000008865  0120120817   01HA        000                                                                                 3                                        0008865/01                           N                     00000 10020256        000008
12006000195000156M B A MERCANTIL BRASILEIRA DE R RINCAO 220                            0365108023700118000000002128292 I000000000009557000000000000000               201208170000000000000000000000000000000000000000369741000000000000000000000000000000010000008324  0120120817   01HA        000                                                                                 3                                        0008324/03                           N                     00000 10020256        000009
12006000195000156M B A MERCANTIL BRASILEIRA DE R RINCAO 220                            0365108023700118000000002128292 I000000000009558000000000000000               201208170000000000000000000000000000000000000000169188000000000000000000000000000000010000008864  0120120817   01HA        000                                                                                 3                                        0008864/01                           N                     00000 10020256        000010
12007068566000102NIVEL EMPREGOS LTDA           AV CELSO GARCIA 3830                    0306400023700097300000003053792 I000000000009559000000000000000               201208170000000000000000000000000000000000000000297286000000000000000000000000000000010000002740  0120120817   01HA        000                                                                                 3                                        00NF.NRO.2740 - PARC.02/02.          N                     00000 10020256        000011
12006000195000156MBA MERCANTIL BRASIL ACO LTDA RUA  RINCAO  220                        0365108023700118000000002128292 I000000000009560009021990000068               201208170000000000000000054280000827402000000000827402000000000000000000000000000000010000008857  3120120817   01HA        000                                                                                 3011809219900000680212829099             0008857/01                           N                     00000 10020256        000012
12042956441000101SOLUCOES EM ACO USIMINAS S A  RUA  DIANOPOLIS  670 710                0312510000100000 0000000000000  I000000000009561000000000000000               201208170000000000000000054280001070447000000001070447000000000000000000000000000000010000057592  3120120817   01HA        000                                                                                 3000000169660100000803431789             00057592/02                          N                     00000 10020256        000013
12042956441000101SOLUCOES EM ACO USIMINAS S A  RUA  DIANOPOLIS  670 710                0312510034100000 0000000000000  I000000000009562000000000000000               201208170000000000000000054280000432186000000000432186000000000000000000000000000000010000169806  3120120817   01HA        000                                                                                 3181525195492293807258000059             000169806/01                         N                     00000 10020256        000014
12042956441000101SOLUCOES EM ACO USIMINAS S A  RUA  DIANOPOLIS  670 710                0312510034100000 0000000000000  I000000000009563000000000000000               201208170000000000000000054280000158302000000000158302000000000000000000000000000000010000169805  3120120817   01HA        000                                                                                 3181525196136293807258000039             000169805/01                         N                     00000 10020256        000015
12066841552000130RV SEGURANCA PATRIM LTDA      RUA  MACEIO  283                        0955103034100000 0000000000000  I000000000009564000000000000000               201208170000000000000000054280000415172000000000415172000000000000000000000000000000010000021726  3120120817   01HA        000                                                                                 3181525201205001839407200089             0021726                              N                     00000 10020256        000016
12054382510000108SETENTA IND E COM DE MAD LTDA ROD REGIS BITTENCOURT KM 324  2410      0695000034100000 0000000000000  I000000000009565000000000000000               201208170000000000000000054280000193832000000000193832000000000000000000000000000000010000004359  3120120817   01HA        000                                                                                 3181525206522057002848000029             004359/01                            N                     00000 10020256        000017
12043298975000150JOMARCA INDL DE PARAFUSOS LTDA                                        0000000034100000 0000000000000  I000000000009566000000000000000               201208170000000000000000054280000181837000000000181837000000000000000000000000000000010000143134  3120120817   01HA        000                                                                                 3181525207196144661815700059             00143134/02                          N                     00000 10020256        000018
12003694166000143GRANDE SAO PAULO COMERCIO DE P                                        0000000000100000 0000000000000  I000000000009567000000000000000               201208170000000000000000054280000033946000000000033946000000000000000000000000000000010000000144  3120120817   01HA        000                                                                                 3000000151248743910239721139             00144/01                             N                     00000 10020256        000019
12061096178000172COMERCIAL ELETRICA RIMO LTDA                                          0000000034100000 0000000000000  I000000000009568000000000000000               201208170000000000000000054280000019517000000000019517000000000000000000000000000000010000008959  3120120817   01HA        000                                                                                 3181525207954166009333500019             0008959                              N                     00000 10020256        000020
12035820448000136WHITE MARTINS GASES IND LTDA  AV  AUTONOMISTAS  4192                  0609001523700026400000003937925 I000000000009569009021980000617               201208170000000000000000054280000087710000000000087710000000000000000000000000000000010000008777  3120120817   01HA        000                                                                                 3002609219800006170393792079             0008777                              N                     00000 10020256        000021
12066970229000167NEXTEL TELECOMUNICACOES LTDA  AL  SANTOS  2366 2384                   0141820023702374400000001596233 I000000000009570009000014340179               201208170000000000000000054280000020257000000000020257000000000000000000000000000000010000032530  3120120817   01HA        000                                                                                 3237409000143401790159623079             0032530/10                           N                     00000 10020256        000022
12042956441000101SOLUCOES EM ACO USIMINAS S A  RUA  DIANOPOLIS  670 710                0312510034100000 0000000000000  I000000000009571000000000000000               201208170000000000000000054280001141442000000001141442000000000000000000000000000000010000160757  3120120817   01HA        000                                                                                 3181525219805293807258000049             00160757/03                          N                     00000 10020256        000023
12042956441000101SOLUCOES EM ACO USIMINAS S A  RUA  DIANOPOLIS  670 710                0312510034100000 0000000000000  I000000000009572000000000000000               201208170000000000000000054280000173498000000000173498000000000000000000000000000000010000059222  3120120817   01HA        000                                                                                 3181525220381293807258000019             00059222/01                          N                     00000 10020256        000024
12042956441000101SOLUCOES EM ACO USIMINAS S A  RUA  DIANOPOLIS  670 710                0312510034100000 0000000000000  I000000000009573000000000000000               201208170000000000000000054280000148652000000000148652000000000000000000000000000000010000170124  3120120817   01HA        000                                                                                 3181525221165293807258000079             000170124/01                         N                     00000 10020256        000025
12042956441000101SOLUCOES EM ACO USIMINAS S A  RUA  DIANOPOLIS  670 710                0312510000100000 0000000000000  I000000000009574000000000000000               201208170000000000000000054280000435225000000000435225000000000000000000000000000000010000057680  3120120817   01HA        000                                                                                 3000000169660100000804751719             00057680/02                          N                     00000 10020256        000026
12042956441000101SOLUCOES EM ACO USIMINAS S A  RUA  DIANOPOLIS  670 710                0312510000100000 0000000000000  I000000000009575000000000000000               201208170000000000000000054280000343736000000000343736000000000000000000000000000000010000165560  3120120817   01HA        000                                                                                 3000000169660100000812311719             000165560/01                         N                     00000 10020256        000027
12005151518000140BELENUS DO BRASIL LTDA        RUA COMENDADOR JOAO LUCAS  300          1328000023703389800000000015091 I000000000009576009021440000994               201208170000000000000000054280000465363000000000465363000000000000000000000000000000010000267418  3120120817   01HA        000                                                                                 3338909214400009940001509089             000267418/01                         N                     00000 10020256        000028
12012006058000121WEG TINTAS LTDA               ROD  BR  280   KM 50   S N              8927000023702727800000000001309 I000000000009577009021560000108               201208170000000000000000054280000461218000000000461218000000000000000000000000000000010000142311  3120120817   01HA        000                                                                                 3272709215600001080000130019             000142311/03                         N                     00000 10020256        000029
12061100202000108COFIPE VEICULOS LTDA          AV PRES CASTELO BRANCO  3333   C        0303600239900000 0000000000000  I000000000009578000000000000000               201208170000000000000000054280000040484000000000040484000000000000000000000000000000010000012209  3120120817   01HA        000                                                                                 3320005133330343608018900149             00012209/01                          N                     00000 10020256        000030
12061100202000108COFIPE VEICULOS LTDA          AV PRES CASTELO BRANCO  3333   C        0303600239900000 0000000000000  I000000000009579000000000000000               201208170000000000000000054280000018060000000000018060000000000000000000000000000000010000005155  3120120817   01HA        000                                                                                 3320005133090343608018900179             0005155                              N                     00000 10020256        000031
12013656578000142GUARINOR TRANSP E LOGISTICA LT                                        0000000010400000 0000000000000  I000000000009580000000000000000               201208170000000000000000054280000074300000000000074300000000000000000000000000000000010000005634  3120120817   01HA        000                                                                                 3900000065132958700000017349             0005634                              N                     00000 10020256        000032
900003300000000010237005                                                                                                                                                                                    000000000000000                                                                                                                                                                                                                                                    00003101248440006909306        000033
