0000147602043799295000110ALTAMIRA IND METALURGICA LTDA           20100504000002012091817345500000        2    230A                                                                                          000000000000000                                                                                                                                                                                                                                                                                   000001
12004398623000115MET GALHARDO IND E COM LTDA                                           0000000034100000 0000000000000  I000000000009869000000000000000               201209180000000000000000054600000296384000000000296384000000000000000000000000000000010000004893  3120120918   01HA        000                                                                                 3181543771138046770270000019             004893/01                            N                     00000 10020256        000002
12061217188000119TELAS METALICAS TELMETAL LTDA RUA ALDEIA DA PRATA  38                 0368008034100000 0000000000000  I000000000009870000000000000000               201209180000000000000000054600000115068000000000115068000000000000000000000000000000010000005484  3120120918   01HA        000                                                                                 3181543746595077099894600059             005484/02-03                         N                     00000 10020256        000003
12056993512000150CYKLOP DO BRASIL EMBALAG  S A RUA  ALTO PARANA  131                   0968705034100000 0000000000000  I000000000009871000000000000000               201209180000000000000000054600000085756000000000085756000000000000000000000000000000010000132528  3120120918   01HA        000                                                                                 3181543745774025786126000019             000132528/01                         N                     00000 10020256        000004
12056667629000144COMERCIAL BERENELI LTDA       RUA  DR LUIS DA ROCHA MIRANDA  538 TERRE0434401003300000 0000000000000  I000000000009872000000000000000               201209180000000000000000054600000053276000000000053276000000000000000000000000000000010000011160  3120120918   01HA        000                                                                                 3946371510000000030562010429             0011160                              N                     00000 10020256        000005
12048775225000146SEIKI IND COM CONFECCOES LTDA RUA  DR JOSE MARIA DE AZEVEDO  318 332  0155002034100000 0000000000000  I000000000009873000000000000000               201209180000000000000000054600000052468000000000052468000000000000000000000000000000010000139630  3120120918   01HA        000                                                                                 3181543741386017444824100059             000139630/01                         N                     00000 10020256        000006
12011202309000180FIEL TOOLS DISTRIB DE MAQ FERRESTRADA SANTA ISABEL  3242              0859900023702087700000000000116 I000000000009874028000020190021               201209180000000000000000054600000042476000000000042476000000000000000000000000000000010000009002  3120120918   01HA        000                                                                                 3208728000201900210000011099             009002/01                            N                     00000 10020256        000007
12004882911000140FERNANDO COSTA BRITO GUARULHOSRUA BANDEIRA PAULISTA 11 B              0000000003300000 0000000000000  I000000000009875000000000000000               201209180000000000000000054600000039402000000000039402000000000000000000000000000000010000012694  3120120918   01HA        000                                                                                 3944753720000000093580010199             0012694                              N                     00000 10020256        000008
12006066698000124NOVO REINO LOGISTICA E TRANSPO                                        0000000000100000 0000000000000  I000000000009876000000000000000               201209180000000000000000054600000039295000000000039295000000000000000000000000000000010000161192  3120120918   01HA        000                                                                                 3043999898601584001800001129             00161192                             N                     00000 10020256        000009
12009419898000101LUSITANO IND COM EMBAL PLAST  RUA  MARCILIO DE OLIVEIRA  105          1397101234100000 0000000000000  I000000000009877000000000000000               201209180000000000000000054600000035838000000000035838000000000000000000000000000000010000010137  3120120918   01HA        000                                                                                 3181543739215001160072300019             0010137/01                           N                     00000 10020256        000010
12012113201000184HYPER COM DESC LIMPEZA LTDA   RUA SANTO CRISTO  66                    0680726034100000 0000000000000  I000000000009878000000000000000               201209180000000000000000054600000035153000000000035153000000000000000000000000000000010000527221  3120120918   01HA        000                                                                                 3181543747920056888568500059             000527221                            N                     00000 10020256        000011
12011318709000156MARTINS MARIANO TRANSP LTDA   RUA  VOLTOLINOS  71                     0000000034100000 0000000000000  I000000000009879000000000000000               201209180000000000000000054600000033520000000000033520000000000000000000000000000000010000006123  3120120918   01HA        000                                                                                 3181543730306007265858600019             006123                               N                     00000 10020256        000012
12001852612000175BT PRODUTOS INDS LTDA         AV CELSO GARCIA  4553                   0306300000100000 0000000000000  I000000000009880000000000000000               201209180000000000000000054600000032180000000000032180000000000000000000000000000000010017327477  3120120918   01HA        000                                                                                 3044000315100511000085971119             0017327477                           N                     00000 10020256        000013
12061100202000108COFIPE VEICULOS LTDA          AV PRES CASTELO BRANCO  3333   C        0303600239900000 0000000000000  I000000000009881000000000000000               201209180000000000000000054600000018144000000000018144000000000000000000000000000000010000005338  3120120918   01HA        000                                                                                 3320005133170343608018900119             005338/02                            N                     00000 10020256        000014
12062494679000170WILSON ROBERTO COSTA DE JESUS RUA JOAO MIRASSOL  385                  0612217000100000 0000000000000  I000000000009882000000000000000               201209190000000000000000054610000032168000000000032168000000000000000000000000000000010000034739  3120120919   01HA        000                                                                                 3000000198715600000006971819             0034739                              N                     00000 10020256        000015
12003803271000173ATUAL SP COM  DE FERRAM  LTDA RUA CORONEL MEIRELES  870               0361200034100000 0000000000000  I000000000009883000000000000000               201209180000000000000000054600000028564000000000028564000000000000000000000000000000010000007062  3120120918   01HA        000                                                                                 3181543744509013905550300019             007062                               N                     00000 10020256        000016
12062944582000111AS SOLUCOES COMERCIAL LTDA    RUA MANAUS  191                         0318504000100000 0000000000000  I000000000009884000000000000000               201209180000000000000000054600000027660000000000027660000000000000000000000000000000010017526193  3120120918   01HA        000                                                                                 3529483205451190000690001729             0017526193                           N                     00000 10020256        000017
12012931789000183RCM IMPORTADORA FERRAMENTAS LTRUA  IOLANDA  85   SALA 02              0311213000100000 0000000000000  I000000000009885000000000000000               201209180000000000000000054600000027017000000000027017000000000000000000000000000000010018741080  3120120918   01HA        000                                                                                 3000000225937100043020261799             0018741080                           N                     00000 10020256        000018
12044098788000196MAIAMI COM IMP ROLAM LTDA     RUA CEL JOAQUIM ANTONIO DIAS  98        0330803023700503700000000367516 I000000000009886009022330000001               201209180000000000000000054600000015550000000000015550000000000000000000000000000000010000002233  3120120918   01HA        000                                                                                 3050309223300000010036751019             002233                               N                     00000 10020256        000019
12003694166000143GRANDE SAO PAULO COMERCIO DE P                                        0000000000100000 0000000000000  I000000000009887000000000000000               201209180000000000000000054600000035069000000000035069000000000000000000000000000000010000000154  3120120918   01HA        000                                                                                 3000000151248744030883841159             00154                                N                     00000 10020256        000020
900002100000000001044988                                                                                                                                                                                    000000000000000                                                                                                                                                                                                                                                    00001901037410001044988        000021
