0000147602043799295000110ALTAMIRA INDUSTRIA METALURGICA LT       202000000435120121218213355             3                                                                                                  000000000000000                                                                                                                                                                                                                                                                                   000001
1205995053500017610 TABELIAO PROTESTOS SP                                              0000000023701628400000000729957 I000000000010334006012121302253               201212180000000000000000055510000595375000000000595375000000000000000000000000000000050000026796  3120121218   02BW        5000000               000000000000000                                               3162806121213022530072995019               PROTOCOLO NRO.225/3 - DE CASTRO    N                     01079 10020256        000002
12008709272000177MULTIELETRICA C M E LTDA                                              0000000034100000 0000000000000  I000000000010337000000000000000               201212180000000000000000055510000236388000000000236388000000000000000000000000000000010000002535  3120121218   02BW        5000000               000000000000000                                               3181602198007075798525400089               2535/D                             N                     01132 10020256        000003
12015244717000156STYLO ROL COM ROLAM                                                   0000000034100000 0000000000000  I000000000010336000000000000000               201212180000000000000000055510000006860000000000006860000000000000000000000000000000010000000167  3120121218   02BW        5000000               000000000000000                                               3109201201401076423057900069               0167/01                            N                     01132 10020256        000004
12086878469000143SUL AMERICA SEG SAUDE S A                                             0000000035600000 0000000000000  I000000000010335000000000000000               201212180000000000000000055510000000000000000000394330000000000000000000000000000000010208952819  3120121218   02BW        5000000               000000000000000                                               3007548091854130120895281329               1208952819                         N                     01132 10020256        000005
12043799295000110ALTAMIRA INDUSTRIA METAL LTDA                                         0000000003303809500000130004071 I000000000010333000000000000000               201212180000000000000000000000000000000000000001300000000000000000000000000000000000050000000001  0820121218   02BW        5001240               000000000000000                                               3D0000000101                               01                                 S                     01133 10020256        000006
12009425428000150MARIA DA GLORIA SILVA ELOI ME                                         00000000341000000000000000000000000000009363724800000070781085912097          201212182012120800000000055510000007634000000000007634000000000000000000000000000000050000000000  3020121218   02BW        2000000               000000000000000                                               3157078108590100047432800089               012097                             N                     01132 10020256        000007
12061217188000119TELAS METALICAS TELMETAL LTDA                                         0000000034100000000000000000000000000000930335370000009000031065896 2 2       201212182012110700000000055510000081992000000000081992000000000000000000000000000000050000000000  3020121218   02BW        2000000               000000000000000                                               3109000031060077099894600059               5896/02-02                         N                     01132 10020256        000008
12067647412000199ANCORA CHUMBADORES LTDA                                               000000003410000000000000000000000000000088873288000000242214248062576 3       201212182012091900000000055510000125000000000000125000000000000000000000000000000000050000000000  3020121218   02BW        2000000               000000000000000                                               3112422142482013626917200019               062576/03                          N                     01132 10020256        000009
12008879248000186FREFER METAL PLUS                                                     000000003410000000000000000000000000000090751879000000251738779EPI024022B     201212182012102300000000055510000998338000000000998338000000000000000000000000000000050000000000  3020121218   02BW        2000000               000000000000000                                               3112517387794293811346700079               24022/02                           N                     01132 10020256        000010
12042956441000101SOLUCOES ACO USIMINAS                                                 0000000034100000000000000000000000000000924705610000002601744120019069201     201212182012112000000000055510000192959000000000192959000000000000000000000000000000050000000000  3020121218   02BW        2000000               000000000000000                                               3112601744124293807258000039               190692/01                          N                     01132 10020256        000011
12042956441000101SOLUCOES ACO USIMINAS                                                 0000000034100000000000000000000000000000924705600000002601744110019069101     201212182012112000000000055510000162573000000000162573000000000000000000000000000000050000000000  3020121218   02BW        2000000               000000000000000                                               3112601744116293807258000049               190691/01                          N                     01132 10020256        000012
12061683652000162TRANS FACE TRANSPORTES LTDA                                           0000000023700530400000000141828 0000000093452391009000000110991I000086690     201212182012120300000000055510000042648000000000042648000000000000000000000000000000050000000000  3020121218   02BW        2000000               000000000000000                                               3                         000000000000000  86690                              N                     01079 10020256        000013
900001400000000004144097                                                                                                                                                                                    000000000000000                                                                                                                                                                                                                                                    00001200610610002449767        000014
