0000147602043799295000110ALTAMIRA INDUSTRIA METALURGICA LT       202000000010820120818062203             1                                                                                                                                                                                                                                                                                                                                                                                                    000001
12001852612000175BT EQUIP INDUSTRIAIS LTDA EPP                                         000000003410000000000000000000000000000086615424000000230334024590848         201209102012081600000000054520000044535000000000044535000000000000000000000000000000050000000000  3020120910   01FS        1                                                                                   3112303340247052567228300059                                                  N                     01321  0000000        000002
12001951865000104FOUR FACTORING FOMENTO M LTDA                                         000000004220000000000000000000000000000085230907000000000000000159 2012       201208142012072400000000054250000310000000000000316197000000000000000000000000006197050000000000  3020120820   01          2                                                                                   3702000009214741497536196199                                                  N                     01321  0000000        000003
12002269980000158PANKRO LOGISTICA E TRANSPORTES                                        000000003410000000000000000000000000000085315490000000224495030166            201208172012072500000000054280000310000000000000313099000000000000000000000000003099050000000000  3020120820   01          2                                                                                   3112244950302315090027600019                                                  N                     01321  0000000        000004
12002460454000170AUT SERVICE COMERCIO E SERVICO                                        0000000023702591700000000007692 000000008515291900901322060028134532          201208172012072400000000054280000238750000000000252121000000000000000000000000013371050000000000  3020120820   01          2  RUA JUNO  533                                                                    3                         000000000000000                                     N                     00598  0000000        000005
12002558199000101OMEGA TUBOS COMERCIAL LTDA                                            0000000003300000000000000000000000000000846595810000001400000000026380B01     201208142012071000000000054250000307260000000000308284000000000000000000000000002048050000000000  3020120815   06          3                                                                                   3947509770000000088714020389                                                  N                     01321  0000000        000006
12003694166000143GRANDE SAO PAULO COMERCIO DE P                                        000000000010000000000000000000000000000084895717000000023972000144 01         201208102012071900000000054210000033400000000000033400000000000000000000000000000000050000000000  3020120810   05          3                                                                                   3000000151248743910239721199                                                  N                     01321  0000000        000007
12003807192000130HELIO MATERIAIS PARA SOLDAS LT                                        0000000023700298400000002087111 0000000084985531009013220101191S000001149     201208172012071900000000054280000022800000000000023964000000000000000000000000001164050000000000  3020120820   01          2  RUA TAMAINDE 1410                                                                3                         000000000000000                                     N                     00598  0000000        000008
12005151518000140BELENUS DO BRASIL LTDA                                                0000000023703389800000000015091 0000000081465329009021440000994R126741832     201208142012051600000000054250000460800000000000465363000000000000000000000000006084050000000000  3020120817   06          3  RUA GANGES  528                                                                  3                         000000000000000                                     N                     00598  0000000        000009
12006000195000156M B A MERCANTIL BRASILEIRA DE                                         0000000023700118P00000002128292 00000000858616580090219900000680008857B01     201208102012071300000000054210000827402000000000827402000000000000000000000000000000050000000000  3020120810   06          3  RUA JUNO  533                                                                    3                         000000000000000                                     N                     00598  0000000        000010
12006000195000156M B A MERCANTIL BRASILEIRA DE                                         0000000023700118P00000002128292 00000000864554480090216400000040008515B02     201208082012061100000000054190000641590000000000641590000000000000000000000000000000050000000000  3020120816   05          3  RUA JUNO  533                                                                    3                         000000000000000                                     N                     00598  0000000        000011
12006000195000156M B A MERCANTIL BRASILEIRA DE                                         0000000023700118P00000002130599 00000000848180750020220100000320008905B01     201208162012071900000000054270000155301000000000156337000000000000000000000000001036050000000000  3020120820   01          2  RUA JUNO  533                                                                    3                         000000000000000                                     N                     00598  0000000        000012
12006000195000156M B A MERCANTIL BRASILEIRA DE                                         0000000023700118P00000002130599 00000000848180720020220100000030008872B01     201208142012071700000000054250000112772000000000113900000000000000000000000000001128050000000000  3020120820   01          2  RUA JUNO  533                                                                    3                         000000000000000                                     N                     00598  0000000        000013
12006000195000156M B A MERCANTIL BRASILEIRA DE                                         0000000023700118P00000002128292 00000000866154260090217000000040008573B02     201208102012061500000000054210000927528000000000927528000000000000000000000000000000050000000000  3020120820   01FS        1  RUA JUNO  533                                                                    3                         000000000000000                                     N                     00598  0000000        000014
12006000195000156M B A MERCANTIL BRASILEIRA DE                                         0000000023700118P00000002128292 00000000866154270090217000000100008589B02     201208102012061500000000054210000336000000000000336000000000000000000000000000000000050000000000  3020120820   01FS        1  RUA JUNO  533                                                                    3                         000000000000000                                     N                     00598  0000000        000015
12006000195000156M B A MERCANTIL BRASILEIRA DE                                         0000000023700118P00000002128292 00000000866154280090217000000160008590B02     201208102012061500000000054210000365507000000000365507000000000000000000000000000000050000000000  3020120820   01FS        1  RUA JUNO  533                                                                    3                         000000000000000                                     N                     00598  0000000        000016
12006000195000156M B A MERCANTIL BRASILEIRA DE                                         0000000023700118P00000002128292 00000000866154290090217000000220008592B02     201208102012061500000000054210000166992000000000166992000000000000000000000000000000050000000000  3020120820   01FS        1  RUA JUNO  533                                                                    3                         000000000000000                                     N                     00598  0000000        000017
12012006058000121WEG TINTAS LTDA                                                       0000000023702727800000000001309 00000000821490950090215600001080014231103     201208152012060100000000054260000459992000000000461218000000000000000000000000001839050000000000  3020120817   06          3  R JUNO  533                                                                      3                         000000000000000                                     N                     00598  0000000        000018
12012006058000121WEG TINTAS LTDA                                                       0000000023702727800000000001309 00000000828904030090217000001020014515402     201208142012061500000000054250000459854000000000461693000000000000000000000000002452050000000000  3020120817   06          3  R JUNO  533                                                                      3                         000000000000000                                     N                     00598  0000000        000019
12014309992000148WEG DRIVES   CONTROLS   AUTOMA                                        0000000023702727800000000001872 00000000812917770090214200002440005763301     201208162012051800000000054270000272993000000000274445000000000000000000000000001452050000000000  3020120820   01          2  R JUNO  533                                                                      3                         000000000000000                                     N                     00598  0000000        000020
12014775592000128HELIO ADRIANO DA SILVA ME                                             0000000023700593200000002432943 00000000854049640090221200000098233           201208092012072500000000054200000018300000000000018300000000000000000000000000000000050000000000  3020120809   06          3  AV TAMAINDE 1410                                                                 3                         000000000000000                                     N                     00598  0000000        000021
12033325184001786ALSCO TOALHEIRO BRASIL                                                0000000023703396000000001490850 0000000085315513009000002660205VM26602        201208162012072700000000054270000031827000000000031955000000000000000000000000000128050000000000  3020120820   01          2  RUA  GANGES 528                                                                  3                         000000000000000                                     N                     00598  0000000        000022
12035820448000136WHITE MARTINS GASES INDUSTRIAI                                        0000000023700026400000003937925 0000000084745213009022000001338352522 001     201208142012071800000000054250000081150000000000083421000000000000000000000000002271050000000000  3020120820   01          2  RUA GANGES  528                                                                  3                         000000000000000                                     N                     00598  0000000        000023
12035820448000136WHITE MARTINS GASES INDUSTRIAI                                        0000000023700026400000003937925 0000000084895719009022020001144353515 001     201208162012072000000000054270000028403000000000029123000000000000000000000000000720050000000000  3020120820   01          2  RUA GANGES  528                                                                  3                         000000000000000                                     N                     00598  0000000        000024
12035820448000136WHITE MARTINS GASES INDUSTRIAI                                        0000000023700026400000003937925 0000000084571470009021980000617351461 001     201208102012071400000000054210000085208000000000087710000000000000000000000000002616050000000000  3020120817   06          3  RUA GANGES  528                                                                  3                         000000000000000                                     N                     00598  0000000        000025
12042956441000101SOLUCOES EM ACO USIMINAS S A                                          000000000010000000000000000000000000000082978007000000080343000000057592002   201208102012061800000000054210001055670000000001055670000000000000000000000000000000050000000000  3020120810   05          3                                                                                   3000000169660100000803431749                                                  N                     01321  0000000        000026
12042956441000101SOLUCOES EM ACO USIMINAS S A                                          000000000010000000000000000000000000000082978013000000080985000000165260002   201208092012061800000000054200000383506000000000383506000000000000000000000000000000050000000000  3020120809   05          3                                                                                   3000000169660100000809851729                                                  N                     01321  0000000        000027
12042956441000101SOLUCOES EM ACO USIMINAS S A                                          000000000010000000000000000000000000000082801780000000079482000000164960002   201208092012061400000000054200000506049000000000506049000000000000000000000000000000050000000000  3020120809   05          3                                                                                   3000000169660100000794821719                                                  N                     01321  0000000        000028
12042956441000101SOLUCOES EM ACO USIMINAS S A                                          000000000010000000000000000000000000000082801783000000079485000000164961002   201208092012061400000000054200000323368000000000323368000000000000000000000000000000050000000000  3020120809   05          3                                                                                   3000000169660100000794851719                                                  N                     01321  0000000        000029
12042956441000101SOLUCOES EM ACO USIMINAS S A                                          000000000010000000000000000000000000000082801786000000079136000000057516002   201208092012061400000000054200000609814000000000609814000000000000000000000000000000050000000000  3020120809   05          3                                                                                   3000000169660100000791361719                                                  N                     01321  0000000        000030
12043298975000150JOMARCA INDL DE PARAFUSOS LTDA                                        000000003410000000000000000000000000000082724456000000210955705143134 02      201208102012061100000000054210000180570000000000180570000000000000000000000000000000050000000000  3020120810   05          3                                                                                   3112109557051144661815700039                                                  N                     01321  0000000        000031
12048775225000146SEIKI IND COM E CONFECCOES LTD                                        000000003410000000000000000000000000000086615423000000230404780013963001      201209122012081500000000054540000052000000000000052000000000000000000000000000000000050000000000  3020120912   01FS        1                                                                                   3112304047809017444824100079                                                  N                     01321  0000000        000032
12049341563000132JAC COMERCIO DE MATERIAIS ELET                                        00000000001000000000000000000000000000008661541900000070216400021490          201209112012081600000000054530000183867000000000183867000000000000000000000000000000050000000000  3020120911   01FS        1                                                                                   3000000192560143987021641199                                                  N                     01321  0000000        000033
12054382510000108SETENTA IND E COM DE MADEIRAS                                         0000000034100000000000000000000000000000866154250000002305114064536 A         201209192012081600000000054610000191200000000000191200000000000000000000000000000000050000000000  3020120919   01FS        1                                                                                   3112305114061057049175300039                                                  N                     01321  0000000        000034
12056428188000128EDVALDO SANTOS ROSA ME                                                0000000023700898200000000005622 0000000085959068009011222000658194919598      201208142012080700000000054250000037000000000000038478000000000000000000000000001478050000000000  3020120820   01          2  RUA TAMAINDE  1410                                                               3                         000000000000000                                     N                     00598  0000000        000035
12056993900000131CIA METALURGICA PRADA                                                 0000000034100000000000000000000000000000844839120000002201181850025636201     201208082012071100000000054190000748454000000000748454000000000000000000000000000000050000000000  3020120808   06          3                                                                                   3112201181859293800573900079                                                  N                     01321  0000000        000036
12056993900000131CIA METALURGICA PRADA                                                 0000000034100000000000000000000000000000844839130000002201181860025644401     201208082012071100000000054190000781989000000000784595000000000000000000000000003909050000000000  3020120810   06          3                                                                                   3112201181867293800573900089                                                  N                     01321  0000000        000037
12056993900000131CIA METALURGICA PRADA                                                 0000000034100000000000000000000000000000844839160000002201181790025629301     201208082012071100000000054190000258680000000000259111000000000000000000000000000862050000000000  3020120809   06          3                                                                                   3112201181792293800573900019                                                  N                     01321  0000000        000038
12056993900000131CIA METALURGICA PRADA                                                 0000000034100000000000000000000000000000844839170000002201181800025629401     201208082012071100000000054190000250121000000000250121000000000000000000000000000000050000000000  3020120808   06          3                                                                                   3112201181800293800573900079                                                  N                     01321  0000000        000039
12056993900000131CIA METALURGICA PRADA                                                 0000000034100000000000000000000000000000844839180000002201181810025635301     201208082012071100000000054190000408064000000000408064000000000000000000000000000000050000000000  3020120808   06          3                                                                                   3112201181818293800573900049                                                  N                     01321  0000000        000040
12056993900000131CIA METALURGICA PRADA                                                 0000000034100000000000000000000000000000844839190000002201181820025635401     201208082012071100000000054190000209315000000000209664000000000000000000000000000698050000000000  3020120809   06          3                                                                                   3112201181826293800573900019                                                  N                     01321  0000000        000041
12056993900000131CIA METALURGICA PRADA                                                 0000000034100000000000000000000000000000844839200000002201181830025635501     201208082012071100000000054190000165275000000000165275000000000000000000000000000000050000000000  3020120808   06          3                                                                                   3112201181834293800573900019                                                  N                     01321  0000000        000042
12056993900000131CIA METALURGICA PRADA                                                 0000000034100000000000000000000000000000844839210000002201181840025635601     201208082012071100000000054190000340954000000000340954000000000000000000000000000000050000000000  3020120808   06          3                                                                                   3112201181842293800573900099                                                  N                     01321  0000000        000043
12057158057000130COMERCIAL ELETRICA PJ LTDA                                            0000000023703394400000000972983 00000000842436850090219200008900000305028     201208012012070400000000054120000079196000000000084193000000000000000000000000004997050000000000  3020120820   01          2  R TAMAINDE 1410                                                                  3                         000000000000000                                     N                     00598  0000000        000044
12057196081000164MINELE COMERCIO DE PARAFUSOS L                                        0000000023700298400000002047470 0000000085152929009022070000008513            201208162012072500000000054270000073900000000000075885000000000000000000000000001985050000000000  3020120820   01          2  R  GANGES  528   VL CARRAO                                                       3                         000000000000000                                     N                     00598  0000000        000045
12061100202000108COFIPE VEICULOS LTDA                                                  0000000039900000000000000000000000000000845714720000000000000009700533801     201208122012071300000000054230000017850000000000017850000000000000000000000000000000050000000000  3020120813   06          3                                                                                   3320005133090343608018900129                                                  N                     01321  0000000        000046
12061100202000108COFIPE VEICULOS LTDA                                                  0000000039900000000000000000000000000000845714750000000000000009701220901     201208122012071300000000054230000040019000000000040019000000000000000000000000000000050000000000  3020120813   06          3                                                                                   3320005133330343608018900179                                                  N                     01321  0000000        000047
12061217188000119TELAS METALICAS TELMETAL LTDA                                         0000000003300000000000000000000000000000866154300000005100000005518 1 1       201209142012081600000000054560000094659000000000094659000000000000000000000000000000050000000000  3020120914   01FS        1                                                                                   3915435040000000047651020179                                                  N                     01321  0000000        000048
12061217188000119TELAS METALICAS TELMETAL LTDA                                         0000000003300000000000000000000000000000866154310000006000000005522 1 3       201209132012081600000000054550000085131000000000085131000000000000000000000000000000050000000000  3020120913   01FS        1                                                                                   3915435040000000047660020139                                                  N                     01321  0000000        000049
12061217188000119TELAS METALICAS TELMETAL LTDA                                         0000000003300000000000000000000000000000866154320000007800000005522 2 3       201209202012081600000000054620000085130000000000085130000000000000000000000000000000050000000000  3020120920   01FS        1                                                                                   3915435040000000047678020149                                                  N                     01321  0000000        000050
12061217188000119TELAS METALICAS TELMETAL LTDA                                         0000000003300000000000000000000000000000866154330000008600000005522 3 3       201209272012081600000000054690000085130000000000085130000000000000000000000000000000050000000000  3020120927   01FS        1                                                                                   3915435040000000047686020179                                                  N                     01321  0000000        000051
12061695227000193ELETROPAULO METROP ELETR SA                                           0000000034100000000000000000000000000000866154220000009014172300001418240     201209102012081600000000054520005788926000000005788926000000000000000000000000000000050000000000  3020120910   01FS        1                                                                                   3109014172302293801457400019                                                  N                     01321  0000000        000052
12061780615000172LEPOK INFORMATICA E PAPELARIA                                         00000000001000000000000000000000000000008515292600000034596500002114936       201208152012072400000000054260000051878000000000052743000000000000000000000000000865050000000000  3020120820   01          2                                                                                   3043923459653333000058133179                                                  N                     01321  0000000        000053
12062173661000176INDUFIX IND E COM LTDA                                                0000000023704130000000000085898 000000008498553500702205000012000035860 A     201208152012071600000000054260000067554000000000067778000000000000000000000000000336050000000000  3020120817   06          3  RUA GANGES 528                                                                   3                         000000000000000                                     N                     00598  0000000        000054
12066841552000130R V SEG PATRIMONIAL LTDA                                              00000000341000000000000000000000000000008653881800000090002192721927          201209102012081000000000054520000483241000000000483241000000000000000000000000000000050000000000  3020120910   05          3                                                                                   3109000219270001835253400099                                                  N                     01321  0000000        000055
12066841552000130R V SEG PATRIMONIAL LTDA                                              00000000341000000000000000000000000000008515290700000090002172621726          201208102012071000000000054210000414206000000000415586000000000000000000000000001380050000000000  3020120820   01          2                                                                                   3109000217263001839407200039                                                  N                     01321  0000000        000056
12066841552000130R V SEG PATRIMONIAL S C LTDA                                          00000000341000000000000000000000000000008661542000000090002192721927          201209102012081000000000054520000483241000000000483241000000000000000000000000000000050000000000  3020120910   01FS        1                                                                                   3109000219278001838994000019                                                  N                     01321  0000000        000057
12066970229000167NEXTEL TELECOMUNICACOES LTDA                                          0000000023702374400000001596233 000000008550289700900001434017932530 10       201208102011101100000000054210000019860000000000020257000000000000000000000000000397050000000000  3020120813   06          3  R GANGES  520 VILA CARRAO BR                                                     3                         000000000000000                                     N                     00598  0000000        000058
12069309706000136F N A TRANSPORTES LTDA                                                000000003410000000000000000000000000000086615421000000900010656059068         201208302012081500000000054410000079200000000000079200000000000000000000000000000000050000000000  3020120830   01FS        1                                                                                   3109000106565005486932600099                                                  N                     01321  0000000        000059
12075483040000130REX MAQUINAS E EQUIPAMENTOS LT                                        0000000023702656500000000000701 000000008205624700202153000047072487 2 3      201208152012052300000000054260000434000000000000435446000000000000000000000000002169050000000000  3020120817   06          3  RUA  GANGES  528                                                                 3                         000000000000000                                     N                     00598  0000000        000060
900006100000000021825259                                                                                                                                                                                                                                                                                                                                                                                                                                                                00598  0000000        000061
