0000147602043799295000110ALTAMIRA INDUSTRIA METALURGICA LT       202000000187420120918212515             3                                                                                                  000000000000000                                                                                                                                                                                                                                                                                   000001
12001852612000175BT PRODUTOS INDS LTDA                                                 0000000000100000 0000000000000  I000000000009880000000000000000               201209180000000000000000054600000032180000000000032180000000000000000000000000000000010017327477  3120120918   02BW        5000000               000000000000000                                               3044000315100511000085971119               17327477                           N                     01132 10020256        000002
12003803271000173ATUAL SP COM  DE FERRAM  LTDA                                         0000000034100000 0000000000000  I000000000009883000000000000000               201209180000000000000000054600000028564000000000028564000000000000000000000000000000010000007062  3120120918   02BW        5000000               000000000000000                                               3181543744509013905550300019               7062                               N                     01132 10020256        000003
12003694166000143GRANDE SAO PAULO COMERCIO DE P                                        0000000000100000 0000000000000  I000000000009887000000000000000               201209180000000000000000054600000035069000000000035069000000000000000000000000000000010000000154  3120120918   02BW        5000000               000000000000000                                               3000000151248744030883841159               154                                N                     01132 10020256        000004
12004398623000115MET GALHARDO IND E COM LTDA                                           0000000034100000 0000000000000  I000000000009869000000000000000               201209180000000000000000054600000296384000000000296384000000000000000000000000000000010000004893  3120120918   02BW        5000000               000000000000000                                               3181543771138046770270000019               4893/01                            N                     01132 10020256        000005
12061217188000119TELAS METALICAS TELMETAL LTDA                                         0000000034100000 0000000000000  I000000000009870000000000000000               201209180000000000000000054600000115068000000000115068000000000000000000000000000000010000005484  3120120918   02BW        5000000               000000000000000                                               3181543746595077099894600059               5484/02-03                         N                     01132 10020256        000006
12056993512000150CYKLOP DO BRASIL EMBALAG  S A                                         0000000034100000 0000000000000  I000000000009871000000000000000               201209180000000000000000054600000085756000000000085756000000000000000000000000000000010000132528  3120120918   02BW        5000000               000000000000000                                               3181543745774025786126000019               0132528/01                         N                     01132 10020256        000007
12056667629000144COMERCIAL BERENELI LTDA                                               0000000003300000 0000000000000  I000000000009872000000000000000               201209180000000000000000054600000053276000000000053276000000000000000000000000000000010000011160  3120120918   02BW        5000000               000000000000000                                               3946371510000000030562010429               11160                              N                     01132 10020256        000008
12048775225000146SEIKI IND COM CONFECCOES LTDA                                         0000000034100000 0000000000000  I000000000009873000000000000000               201209180000000000000000054600000052468000000000052468000000000000000000000000000000010000139630  3120120918   02BW        5000000               000000000000000                                               3181543741386017444824100059               0139630/01                         N                     01132 10020256        000009
12004882911000140FERNANDO COSTA BRITO GUARULHOS                                        0000000003300000 0000000000000  I000000000009875000000000000000               201209180000000000000000054600000039402000000000039402000000000000000000000000000000010000012694  3120120918   02BW        5000000               000000000000000                                               3944753720000000093580010199               12694                              N                     01132 10020256        000010
12006066698000124NOVO REINO LOGISTICA E TRANSPO                                        0000000000100000 0000000000000  I000000000009876000000000000000               201209180000000000000000054600000039295000000000039295000000000000000000000000000000010000161192  3120120918   02BW        5000000               000000000000000                                               3043999898601584001800001129               161192                             N                     01132 10020256        000011
12009419898000101LUSITANO IND COM EMBAL PLAST                                          0000000034100000 0000000000000  I000000000009877000000000000000               201209180000000000000000054600000035838000000000035838000000000000000000000000000000010000010137  3120120918   02BW        5000000               000000000000000                                               3181543739215001160072300019               10137/01                           N                     01132 10020256        000012
12012113201000184HYPER COM DESC LIMPEZA LTDA                                           0000000034100000 0000000000000  I000000000009878000000000000000               201209180000000000000000054600000035153000000000035153000000000000000000000000000000010000527221  3120120918   02BW        5000000               000000000000000                                               3181543747920056888568500059               0527221                            N                     01132 10020256        000013
12011318709000156MARTINS MARIANO TRANSP LTDA                                           0000000034100000 0000000000000  I000000000009879000000000000000               201209180000000000000000054600000033520000000000033520000000000000000000000000000000010000006123  3120120918   02BW        5000000               000000000000000                                               3181543730306007265858600019               6123                               N                     01132 10020256        000014
12061100202000108COFIPE VEICULOS LTDA                                                  0000000039900000 0000000000000  I000000000009881000000000000000               201209180000000000000000054600000018144000000000018144000000000000000000000000000000010000005338  3120120918   02BW        5000000               000000000000000                                               3320005133170343608018900119               5338/02                            N                     01132 10020256        000015
12062944582000111AS SOLUCOES COMERCIAL LTDA                                            0000000000100000 0000000000000  I000000000009884000000000000000               201209180000000000000000054600000027660000000000027660000000000000000000000000000000010017526193  3120120918   02BW        5000000               000000000000000                                               3529483205451190000690001729               17526193                           N                     01132 10020256        000016
12012931789000183RCM IMPORTADORA FERRAMENTAS LT                                        0000000000100000 0000000000000  I000000000009885000000000000000               201209180000000000000000054600000027017000000000027017000000000000000000000000000000010018741080  3120120918   02BW        5000000               000000000000000                                               3000000225937100043020261799               18741080                           N                     01132 10020256        000017
12044098788000196MAIAMI COM IMP ROLAM LTDA                                             0000000023700503700000000367516 I000000000009886009022330000001               201209180000000000000000054600000015550000000000015550000000000000000000000000000000010000002233  3120120918   02BW        5000000               000000000000000                                               3050309223300000010036751019               2233                               N                     01079 10020256        000018
12043799295000110ALTAMIRA INDUSTRIA METAL LTDA                                         0000000003303809500000130004071 I000000000009868000000000000000               201209180000000000000000000000000000000000000007200000000000000000000000000000000000050000000001  0820120918   02BW        5001110               000000000000000                                               3D0000000101                               01                                 S                     01133 10020256        000019
12011202309000180FIEL TOOLS DISTRIB DE MAQ FERR                                        0000000023702087700000000000116 I000000000009874028000020190021               201209180000000000000000054600000042476000000000042476000000000000000000000000000000010000009002  3120120918   02BW        5000000               000000000000000                                               3208728000201900210000011099               9002/01                            N                     01079 10020256        000020
900002100000000008212820                                                                                                                                                                                    000000000000000                                                                                                                                                                                                                                                    00001900982800001012820        000021
