0000147602043799295000110ALTAMIRA INDUSTRIA METALURGICA LT       202000000015020121019055556             1                                                                                                                                                                                                                                                                                                                                                                                                    000001
12000846804000106BRIDA LUBRIF LTDA                                                     000000003410000000000000000000000000000088524831000000900409916002347751      201210112012091300000000054830000059225000000000060471000000000000000000000000001424050000000000  3020121018   06          3                                                                                   3109004099167293816860200019                                                  N                     01321  0000000        000002
12001895314000162COLETA INDUSTRIAL FIMAVAN LTDA                                        00000000341000000000000000000000000000009032787100000090023540111403          201210272012101700000000054990000140379000000000140379000000000000000000000000000000050000000000  3020121029   01FS        1                                                                                   3109002354016144604097200019                                                  N                     01321  0000000        000003
12001895314000162COLETA INDUSTRIAL FIMAVAN LTDA                                        0000000034100000000000000000000000000000866992070000009002335349439           201208272012081700000000054380000123695000000000143606000000000000000000000000019911050000000000  3020121019   01          2                                                                                   3109002335346144604097200019                                                  N                     01321  0000000        000004
12002503185000182ANDAIMES MAQUINAS BIG LTDA EPP                                        000000003410000000000000000000000000000086282613000000228719913011660         201208302012081000000000054410000012000000000000012640000000000000000000000000000640050000000000  3020121019   01          2                                                                                   3112287199130650303800900039                                                  N                     01321  0000000        000005
12002503185000182ANDAIMES E MAQUINAS BIG LTDA                                          000000003410000000000000000000000000000087820531000000233954448011791         201209212012082700000000054630000026000000000000026996000000000000000000000000000996050000000000  3020121019   01          2                                                                                   3112339544481925303435000019                                                  N                     01321  0000000        000006
12002503185000182ANDAIMES MAQUINAS BIG LTDA EPP                                        0000000034100000000000000000000000000000874070480000002313590765101           201209142012082000000000054560000016500000000000017215000000000000000000000000000715050000000000  3020121019   01          2                                                                                   3112313590765650303800900019                                                  N                     01321  0000000        000007
12002583013000166ITAN TRANSP DE CARGAS EXC E IN                                        000000003410000000000000000000000000000088350835000000239377421008 A          201210142012091400000000054860000192500000000000196350000000000000000000000000003850050000000000  3020121019   01          2                                                                                   3112393774214005770252400019                                                  N                     01321  0000000        000008
12002583013000166ITAN TRANSP DE CARGAS EXC E IN                                        000000003410000000000000000000000000000088769805000000241619340008 D          201210142012091800000000054860000105350000000000107455000000000000000000000000002105050000000000  3020121019   01          2                                                                                   3112416193400005770252400019                                                  N                     01321  0000000        000009
12003489596000123BEND FLEX I COMERCIO LTDA                                             000000003410000000000000000000000000000088599899000000171434574613            201209172012081600000000054590000585000000000000621832000000000000000000000000036832050000000000  3020121019   01          2                                                                                   3191714345748157734445800019                                                  N                     01321  0000000        000010
12003489596000123BEND FLEX I COMERCIO LTDA                                             000000003410000000000000000000000000000088350832000000171879874608            201209122012082100000000054540000695250000000000745829000000000000000000000000050579050000000000  3020121019   01          2                                                                                   3191718798744157734445800069                                                  N                     01321  0000000        000011
12003489596000123BEND FLEX I COMERCIO LTDA                                             000000003410000000000000000000000000000089518988000000173425770617            201210012012083000000000054730000722200000000000746340000000000000000000000000025560050000000000  3020121018   06          3                                                                                   3191734257709157734445800079                                                  N                     01321  0000000        000012
12003498897000202TELECOMUNICACOES DE SAO PAULO                                         0000000023702372800000000360082 0000000090327869019066000926671V34022789      201211012012101700000000055040000409828000000000409828000000000000000000000000000000050000000000  3020121101   01FS        1  R GANGES 528                                                                     3                         000000000000000                                     N                     00598  0000000        000013
12005151518000140BELENUS DO BRASIL LTDA                                                000000000010000000000000000000000000000087407065000000774915000R129723222     201210132012082100000000054850000460800000000000460800000000000000000000000000000000050000000000  3020121015   06          3                                                                                   3000000123933843997749153159                                                  N                     01321  0000000        000014
12005880850000145NEDERMAN BRASIL COM PROD EX LT                                        000000003410000000000000000000000000000086373178000000614350956002763 A       201209252012081400000000054670000289674000000000303354000000000000000000000000013680050000000000  3020121019   01          2                                                                                   3156143509568160829000100049                                                  N                     01321  0000000        000015
12006000195000156MBA MERCANTIL BRAS DE ACO LTDA                                        0000000034100000000000000000000000000000889578520000001671394540008920B02     201209162012071700000000054580000576585000000000614007000000000000000000000000037422050000000000  3020121019   01          2                                                                                   3191671394549064849251000099                                                  N                     01321  0000000        000016
12006000195000156MBA MERCANTIL BRAS DE ACO LTDA                                        0000000034100000000000000000000000000000885998980000001667238420008870B02     201209112012071600000000054530000839952000000000902728000000000000000000000000062776050000000000  3020121019   01          2                                                                                   3191667238429064849251000039                                                  N                     01321  0000000        000017
12006000195000156MBA MERCANTIL BRAS DE ACO LTDA                                        0000000034100000000000000000000000000000886866570000001667238410008874B02     201209132012071600000000054550000802826000000000859670000000000000000000000000056844050000000000  3020121019   01          2                                                                                   3191667238411064849251000049                                                  N                     01321  0000000        000018
12006000195000156MBA MERCANTIL BRAS DE ACO LTDA                                        0000000034100000000000000000000000000000887698080000001667238400008876B02     201209142012071600000000054560000810321000000000866111000000000000000000000000055790050000000000  3020121019   01          2                                                                                   3191667238403064849251000059                                                  N                     01321  0000000        000019
12006000195000156MBA MERCANTIL BRAS DE ACO LTDA                                        0000000034100000000000000000000000000000887698090000001671394550008925B02     201209142012071700000000054560000719581000000000769106000000000000000000000000049525050000000000  3020121019   01          2                                                                                   3191671394556064849251000089                                                  N                     01321  0000000        000020
12006000195000156MBA MERCANTIL BRAS DE ACO LTDA                                        0000000034100000000000000000000000000000887698100000001671394560008926B02     201209142012071700000000054560000387716000000000414421000000000000000000000000026705050000000000  3020121019   01          2                                                                                   3191671394564064849251000019                                                  N                     01321  0000000        000021
12006000195000156M B A MERCANTIL BRASILEIRA DE                                         0000000023700118P00000002130599 00000000853155000020220900000460008967B03     201210182012072400000000054900000135605000000000135831000000000000000000000000000226050000000000  3020121019   01          2  RUA JUNO  533                                                                    3                         000000000000000                                     N                     00598  0000000        000022
12006000195000156M B A MERCANTIL BRASILEIRA DE                                         0000000023700118P00000002130599 00000000853155030020220900000530008971B03     201210162012072400000000054880000170465000000000171317000000000000000000000000000852050000000000  3020121019   01          2  RUA JUNO  533                                                                    3                         000000000000000                                     N                     00598  0000000        000023
12006000195000156M B A MERCANTIL BRASILEIRA DE                                         0000000023700118P00000002130599 00000000853155060020220900000660008985B03     201210172012072500000000054890000141846000000000142318000000000000000000000000000472050000000000  3020121019   01          2  RUA JUNO  533                                                                    3                         000000000000000                                     N                     00598  0000000        000024
12006000195000156M B A MERCANTIL BRASILEIRA DE                                         0000000023700118P00000002130599 00000000853155090020220900000690008986B03     201210172012072500000000054890000126718000000000127140000000000000000000000000000422050000000000  3020121019   01          2  RUA JUNO  533                                                                    3                         000000000000000                                     N                     00598  0000000        000025
12006000195000156M B A MERCANTIL BRASILEIRA DE                                         0000000023700118P00000002130599 00000000853155120020220900000720008987B03     201210182012072500000000054900000188368000000000188682000000000000000000000000000314050000000000  3020121019   01          2  RUA JUNO  533                                                                    3                         000000000000000                                     N                     00598  0000000        000026
12006867297000173MARCOS ANTONIO RIBEIRO ACOS                                           0000000034100000000000000000000000000000881913470000002386992240000433        201210082012091200000000054800000042270000000000043810000000000000000000000000001540050000000000  3020121019   01          2                                                                                   3112386992245046769908800059                                                  N                     01321  0000000        000027
12007175725000160WEG EQUIPAMENTOS ELETRICOS SA                                         0000000023702727800000000196800 00000000832180610090217400004980095359902     201209202012052300000000054620000272787000000000283314000000000000000000000000010527050000000000  3020121019   01          2  R JUNO  533                                                                      3                         000000000000000                                     N                     00598  0000000        000028
12007565346000186ALFLEX PLASTICOS E FERRAGENS L                                        0000000023701416800000000407607 0000000088769811009013226800205S000000195     201210152012092400000000054870000187500000000000193750000000000000000000000000006250050000000000  3020121019   01          2  RUA TAMAINDE  1410                                                               3                         000000000000000                                     N                     00598  0000000        000029
12009419898000101LUSITANO INDUSTRIA C E P LTDA                                         00000000341000000000000000000000000000008653882000000090000757101 10137 2     201209192012081500000000054610000035135000000000038645000000000000000000000000003510050000000000  3020121019   01          2                                                                                   3109000075716001160072300049                                                  N                     01321  0000000        000030
12011202309000180FIEL TOOLS DISTRIBUIDORA DE MA                                        0000000023702087700000000000116 0000000089962492009000020194031009403 1       201210042012090600000000054760000041000000000000043460000000000000000000000000002460050000000000  3020121019   01          2  R TAMAINDE  1 410   RUA GANGES  520 E 52                                         3                         000000000000000                                     N                     00598  0000000        000031
12011318709000156IMPAKTO TRANSPORTES                                                   0000000000100000000000000000000000000000887697860000000000930006586           201210112012092100000000054830000052974000000000056150000000000000000000000000003264050000000000  3020121017   06          3                                                                                   3000000245286000000000931799                                                  N                     01321  0000000        000032
12011318709000156IMPAKTO TRANSPORTES                                                   0000000000100000000000000000000000000000887697870000000001090005398           201210122012092100000000054840000011000000000000011640000000000000000000000000000658050000000000  3020121017   06          3                                                                                   3000000245286000000001091769                                                  N                     01321  0000000        000033
12012006058000121WEG TINTAS LTDA                                                       0000000023702727800000000001309 00000000854049550090221200001010015513002     201209252012072700000000054670000459854000000000474566000000000000000000000000014712050000000000  3020121019   01          2  R JUNO  533                                                                      3                         000000000000000                                     N                     00598  0000000        000034
12012006058000121WEG TINTAS LTDA                                                       0000000023702727800000000001309 00000000854049560090221200001020015513003     201210102012072700000000054820000459992000000000465509000000000000000000000000005517050000000000  3020121019   01          2  R JUNO  533                                                                      3                         000000000000000                                     N                     00598  0000000        000035
12012006058000121WEG TINTAS LTDA                                                       0000000023702727800000000001309 00000000856071260090221400000830015587302     201209292012073100000000054710000459854000000000472114000000000000000000000000012260050000000000  3020121019   01          2  R JUNO  533                                                                      3                         000000000000000                                     N                     00598  0000000        000036
12012006058000121WEG TINTAS LTDA                                                       0000000023702727800000000001309 00000000856071270090221400000840015587303     201210142012073100000000054860000459992000000000463057000000000000000000000000003065050000000000  3020121019   01          2  R JUNO  533                                                                      3                         000000000000000                                     N                     00598  0000000        000037
12012006058000121WEG TINTAS LTDA                                                       0000000023702727800000000001309 00000000844839240090219500000730015168703     201209252012071200000000054670000306662000000000316454000000000000000000000000009792050000000000  3020121019   01          2  R JUNO  533                                                                      3                         000000000000000                                     N                     00598  0000000        000038
12012006058000121WEG TINTAS LTDA                                                       0000000023702727800000000001309 00000000847452160090220000000930015248103     201209302012071700000000054720000306662000000000314414000000000000000000000000007752050000000000  3020121019   01          2  R JUNO  533                                                                      3                         000000000000000                                     N                     00598  0000000        000039
12012006058000121WEG TINTAS LTDA                                                       0000000023702727800000000001309 00000000849855340090220500001220015343103     201210032012072000000000054750000306662000000000313190000000000000000000000000006528050000000000  3020121019   01          2  R JUNO  533                                                                      3                         000000000000000                                     N                     00598  0000000        000040
12012006058000121WEG TINTAS LTDA                                                       0000000023702727800000000001309 00000000872318650090224700001030016359601     201210152012083100000000054870000459854000000000462306000000000000000000000000002452050000000000  3020121019   01          2  R JUNO  533                                                                      3                         000000000000000                                     N                     00598  0000000        000041
12012006058000121WEG TINTAS LTDA                                                       0000000023702727800000000001309 00000000868126340090223500001170016086601     201210052012082100000000054770000306569000000000312281000000000000000000000000005712050000000000  3020121019   01          2  R JUNO  533                                                                      3                         000000000000000                                     N                     00598  0000000        000042
12012006058000121WEG TINTAS LTDA                                                       0000000023702727800000000001309 00000000870177480090224100000970016248001     201210112012082700000000054830000306569000000000309833000000000000000000000000003264050000000000  3020121019   01          2  R JUNO  533                                                                      3                         000000000000000                                     N                     00598  0000000        000043
12012006058000121WEG TINTAS LTDA                                                       0000000023702727800000000001309 00000000861207260090222200000900015775001     201209222012080800000000054640000306569000000000317585000000000000000000000000011016050000000000  3020121019   01          2  R JUNO  533                                                                      3                         000000000000000                                     N                     00598  0000000        000044
12012006058000121WEG TINTAS LTDA                                                       0000000023702727800000000001309 00000000861207270090222200000910015775002     201210072012080800000000054790000306569000000000311465000000000000000000000000004896050000000000  3020121019   01          2  R JUNO  533                                                                      3                         000000000000000                                     N                     00598  0000000        000045
12012006058000121WEG TINTAS LTDA                                                       0000000023702727800000000001309 00000000864554440090222800000730015908401     201209282012081400000000054700000306569000000000315137000000000000000000000000008568050000000000  3020121019   01          2  R JUNO  533                                                                      3                         000000000000000                                     N                     00598  0000000        000046
12012006058000121WEG TINTAS LTDA                                                       0000000023702727800000000001309 00000000864554450090222800000740015908402     201210132012081400000000054850000306569000000000309017000000000000000000000000002448050000000000  3020121019   01          2  R JUNO  533                                                                      3                         000000000000000                                     N                     00598  0000000        000047
12012006058000121WEG TINTAS LTDA                                                       0000000023702727800000000001309 00000000842436840090219200000860015068803     201209222012070900000000054640000306662000000000317678000000000000000000000000011016050000000000  3020121019   01          2  R JUNO  533                                                                      3                         000000000000000                                     N                     00598  0000000        000048
12012707981000190MAC CINTAS E A CARGAS LTDA ME                                         000000003410000000000000000000000000000088957850000000242876074609            201210182012092500000000054900000072500000000000072693000000000000000000000000000193050000000000  3020121019   01          2                                                                                   3112428760741068283895800029                                                  N                     01321  0000000        000049
12013656578000142GUARINOR TRANSP E LOGISTICA LT                                        000000001040000000000000000000000000000089697940000000001181400001608 12      201210172012092700000000054890000065000000000000065000000000000000000000000000000000050000000000  3020121017   06          3                                                                                   3900000118132958700000017369                                                  N                     01321  0000000        000050
12014775592000128HELIO ADRIANO DA SILVA ME                                             0000000003300000000000000000000000000000880122770000004900000008565 8566      201209282012091000000000054700000034500000000000035649000000000000000000000000001171050000000000  3020121018   06          3                                                                                   3956114740000000000049010129                                                  N                     01321  0000000        000051
12014775592000128HELIO ADRIANO DA SILVA ME                                             0000000023700593200000002432943 00000000903278720090229200000038935           201211052012101800000000055080000075000000000000075000000000000000000000000000000000050000000000  3020121105   01FS        1  AV TAMAINDE 1410                                                                 3                         000000000000000                                     N                     00598  0000000        000052
12014775592000128HELIO ADRIANO DA SILVA ME                                             0000000003300000000000000000000000000000887698150000005800000008682           201210102012092100000000054820000040000000000000041039000000000000000000000000001039050000000000  3020121019   01          2                                                                                   3956114740000000000058010159                                                  N                     01321  0000000        000053
12015251825000156JOSEFA A LIMA DOS SANTOS EPP                                          000000003410000000000000000000000000000088191339000000795424054841            201210112012091300000000054830000021500000000000022750000000000000000000000000001275050000000000  3020121018   06          3                                                                                   3157954240547810513909400039                                                  N                     01321  0000000        000054
12016802308000190TRANSMARRECO LTDA                                                     000000000330000000000000000000000000000088769814000000640000000353 12         201210052012092100000000054770000106581000000000113193000000000000000000000000006612050000000000  3020121019   01          2                                                                                   3907636240000000643564010119                                                  N                     01321  0000000        000055
12035820448000136WHITE MARTINS GASES INDUSTRIAI                                        0000000023700026400000003937925 0000000086699210009022330000393368126 001     201209142012081800000000054560000162300000000000173106000000000000000000000000010806050000000000  3020121019   01          2  RUA GANGES  528                                                                  3                         000000000000000                                     N                     00598  0000000        000056
12035820448000136WHITE MARTINS GASES INDUSTRIAI                                        0000000023700026400000003937925 0000000087168275009022440000143375351 001     201209272012083100000000054690000040575000000000042574000000000000000000000000001999050000000000  3020121019   01          2  RUA GANGES  528                                                                  3                         000000000000000                                     N                     00598  0000000        000057
12035820448000136WHITE MARTINS GASES INDUSTRIAI                                        0000000023700026400000003937925 0000000087067052009022420002594374120 001     201209252012082900000000054670000113610000000000119506000000000000000000000000005896050000000000  3020121019   01          2  RUA GANGES  528                                                                  3                         000000000000000                                     N                     00598  0000000        000058
12035820448000136WHITE MARTINS GASES INDUSTRIAI                                        0000000023700026400000003937925 0000000087820600009022540001838377866 001     201210042012090700000000054760000202876000000000207953000000000000000000000000005077050000000000  3020121019   01          2  RUA GANGES  528                                                                  3                         000000000000000                                     N                     00598  0000000        000059
12035820448000136WHITE MARTINS GASES INDUSTRIAI                                        0000000023700026400000003937925 0000000088191338009022570001466379316 001     201210092012091300000000054810000085208000000000087192000000000000000000000000001984050000000000  3020121019   01          2  RUA GANGES  528                                                                  3                         000000000000000                                     N                     00598  0000000        000060
12035820448000136WHITE MARTINS GASES INDUSTRIAI                                        0000000023700026400000003937925 0000000088524829009022630001577381808 001     201210162012091900000000054880000121725000000000124282000000000000000000000000002557050000000000  3020121019   01          2  RUA GANGES  528                                                                  3                         000000000000000                                     N                     00598  0000000        000061
12035820448000136WHITE MARTINS GASES INDUSTRIAI                                        0000000023700026400000003937925 0000000088686659009022650001000382942 001     201210182012092100000000054900000121725000000000124200000000000000000000000000002475050000000000  3020121019   01          2  RUA GANGES  528                                                                  3                         000000000000000                                     N                     00598  0000000        000062
12042956441000101SOLUCOES ACO USIMINAS                                                 0000000034100000000000000000000000000000853154840000002246247030017196702     201209202012072500000000054620000234841000000000248471000000000000000000000000013630050000000000  3020121019   01          2                                                                                   3112246247038293807258000099                                                  N                     01321  0000000        000063
12042956441000101SOLUCOES ACO USIMINAS                                                 0000000034100000000000000000000000000000853154850000002246247040017197302     201209202012072500000000054620000970103000000001026363000000000000000000000000056260050000000000  3020121019   01          2                                                                                   3112246247046293807258000019                                                  N                     01321  0000000        000064
12042956441000101SOLUCOES ACO USIMINAS                                                 0000000034100000000000000000000000000000855028690000002254329380017212902     201209212012072600000000054630000140098000000000147938000000000000000000000000007840050000000000  3020121019   01          2                                                                                   3112254329389293807258000019                                                  N                     01321  0000000        000065
12042956441000101SOLUCOES ACO USIMINAS                                                 0000000034100000000000000000000000000000855028700000002254329390017213002     201209212012072600000000054630000140602000000000148470000000000000000000000000007868050000000000  3020121019   01          2                                                                                   3112254329397293807258000089                                                  N                     01321  0000000        000066
12042956441000101SOLUCOES ACO USIMINAS                                                 0000000034100000000000000000000000000000855028770000002254329400017220502     201209212012072700000000054630000981022000000001035958000000000000000000000000054936050000000000  3020121019   01          2                                                                                   3112254329405293807258000099                                                  N                     01321  0000000        000067
12042956441000101SOLUCOES ACO USIMINAS                                                 0000000034100000000000000000000000000000856906410000002262886280017266201     201208282012073000000000054390000119472000000000131900000000000000000000000000012428050000000000  3020121019   01          2                                                                                   3112262886289293807258000089                                                  N                     01321  0000000        000068
12042956441000101SOLUCOES ACO USIMINAS                                                 0000000034100000000000000000000000000000856906420000002262886290017266301     201208282012073000000000054390000145069000000000160149000000000000000000000000015080050000000000  3020121019   01          2                                                                                   3112262886297293807258000099                                                  N                     01321  0000000        000069
12042956441000101SOLUCOES ACO USIMINAS                                                 0000000034100000000000000000000000000000841725560000002188168640016884803     201209272012070500000000054690000120612000000000125914000000000000000000000000005302050000000000  3020121019   01          2                                                                                   3112188168648293807258000059                                                  N                     01321  0000000        000070
12042956441000101SOLUCOES ACO USIMINAS                                                 0000000034100000000000000000000000000000841725570000002188168690016891503     201209272012070500000000054690001128343000000001177997000000000000000000000000049654050000000000  3020121019   01          2                                                                                   3112188168697293807258000039                                                  N                     01321  0000000        000071
12042956441000101SOLUCOES ACO USIMINAS                                                 0000000034100000000000000000000000000000841725580000002188168650016884903     201209272012070500000000054690000531835000000000555243000000000000000000000000023408050000000000  3020121019   01          2                                                                                   3112188168655293807258000019                                                  N                     01321  0000000        000072
12042956441000101SOLUCOES ACO USIMINAS                                                 0000000034100000000000000000000000000000841725590000002188168660016885103     201209272012070500000000054690000219722000000000229380000000000000000000000000009658050000000000  3020121019   01          2                                                                                   3112188168663293807258000049                                                  N                     01321  0000000        000073
12042956441000101SOLUCOES ACO USIMINAS                                                 0000000034100000000000000000000000000000858616390000002271409750017315102     201209272012080200000000054690000579374000000000604872000000000000000000000000025498050000000000  3020121019   01          2                                                                                   3112271409750293807258000019                                                  N                     01321  0000000        000074
12042956441000101SOLUCOES ACO USIMINAS                                                 0000000034100000000000000000000000000000858616400000002271409760017316002     201209272012080200000000054690000929451000000000970349000000000000000000000000040898050000000000  3020121019   01          2                                                                                   3112271409768293807258000079                                                  N                     01321  0000000        000075
12042956441000101SOLUCOES ACO USIMINAS                                                 0000000034100000000000000000000000000000848180700000002220192900017041002     201209112012071700000000054530000155433000000000167251000000000000000000000000011818050000000000  3020121019   01          2                                                                                   3112220192903293807258000029                                                  N                     01321  0000000        000076
12042956441000101SOLUCOES ACO USIMINAS                                                 0000000034100000000000000000000000000000848180710000002220192910017041202     201209112012071700000000054530000205421000000000221039000000000000000000000000015618050000000000  3020121019   01          2                                                                                   3112220192911293807258000019                                                  N                     01321  0000000        000077
12042956441000101SOLUCOES ACO USIMINAS                                                 0000000034100000000000000000000000000000850740460000002233586800017127201     201208202012072000000000054310000137881000000000154441000000000000000000000000016560050000000000  3020121019   01          2                                                                                   3112233586802293807258000019                                                  N                     01321  0000000        000078
12042956441000101SOLUCOES ACO USIMINAS                                                 0000000034100000000000000000000000000000850740470000002233586810017101002     201209142012071900000000054560000732575000000000783850000000000000000000000000051275050000000000  3020121019   01          2                                                                                   3112233586810293807258000019                                                  N                     01321  0000000        000079
12042956441000101SOLUCOES ACO USIMINAS                                                 0000000034100000000000000000000000000000850740480000002233586820017101202     201209142012071900000000054560000144634000000000154749000000000000000000000000010115050000000000  3020121019   01          2                                                                                   3112233586828293807258000029                                                  N                     01321  0000000        000080
12042956441000101SOLUCOES ACO USIMINAS                                                 0000000034100000000000000000000000000000841725600000002188168670016891203     201209272012070500000000054690001132542000000001182372000000000000000000000000049830050000000000  3020121019   01          2                                                                                   3112188168671293807258000069                                                  N                     01321  0000000        000081
12042956441000101SOLUCOES ACO USIMINAS                                                 0000000034100000000000000000000000000000846595700000002210880280016980502     201209102012071200000000054520000156071000000000168239000000000000000000000000012168050000000000  3020121019   01          2                                                                                   3112210880285293807258000039                                                  N                     01321  0000000        000082
12042956441000101SOLUCOES ACO USIMINAS                                                 0000000034100000000000000000000000000000846595710000002210880290016980602     201209102012071200000000054520000426094000000000459322000000000000000000000000033228050000000000  3020121019   01          2                                                                                   3112210880293293807258000019                                                  N                     01321  0000000        000083
12042956441000101SOLUCOES ACO USIMINAS                                                 0000000034100000000000000000000000000000847452070000002216130350005922202     201209102012071600000000054520000172071000000000185487000000000000000000000000013416050000000000  3020121019   01          2                                                                                   3112216130354293807258000049                                                  N                     01321  0000000        000084
12042956441000101SOLUCOES ACO USIMINAS                                                 0000000034100000000000000000000000000000847452100000002216130340017012402     201209102012071500000000054520000147428000000000158933000000000000000000000000011505050000000000  3020121019   01          2                                                                                   3112216130347293807258000059                                                  N                     01321  0000000        000085
12042956441000101SOLUCOES ACO USIMINAS                                                 0000000034100000000000000000000000000000841725610000002188168680016891403     201209272012070500000000054690000795233000000000830213000000000000000000000000034980050000000000  3020121019   01          2                                                                                   3112188168689293807258000029                                                  N                     01321  0000000        000086
12042956441000101SOLUCOES ACO USIMINAS                                                 0000000034100000000000000000000000000000843180440000002194744360016902903     201209282012070600000000054700000179794000000000187354000000000000000000000000007560050000000000  3020121019   01          2                                                                                   3112194744366293807258000079                                                  N                     01321  0000000        000087
12042956441000101SOLUCOES ACO USIMINAS                                                 0000000034100000000000000000000000000000858616410000002271409770017319302     201209272012080200000000054690000981526000000001024712000000000000000000000000043186050000000000  3020121019   01          2                                                                                   3112271409776293807258000019                                                  N                     01321  0000000        000088
12042956441000101SOLUCOES ACO USIMINAS                                                 0000000034100000000000000000000000000000858616420000002271409780017319402     201209272012080200000000054690000178902000000000186778000000000000000000000000007876050000000000  3020121019   01          2                                                                                   3112271409784293807258000029                                                  N                     01321  0000000        000089
12042956441000101SOLUCOES ACO USIMINAS                                                 0000000034100000000000000000000000000000858616430000002271409790017319502     201209272012080200000000054690000197380000000000206070000000000000000000000000008690050000000000  3020121019   01          2                                                                                   3112271409792293807258000049                                                  N                     01321  0000000        000090
12042956441000101SOLUCOES ACO USIMINAS                                                 0000000034100000000000000000000000000000858616440000002271409800017319602     201209272012080200000000054690000197044000000000205712000000000000000000000000008668050000000000  3020121019   01          2                                                                                   3112271409800293807258000019                                                  N                     01321  0000000        000091
12042956441000101SOLUCOES ACO USIMINAS                                                 0000000034100000000000000000000000000000858616450000002271409810017319702     201209272012080200000000054690000197212000000000205880000000000000000000000000008668050000000000  3020121019   01          2                                                                                   3112271409818293807258000019                                                  N                     01321  0000000        000092
12042956441000101SOLUCOES ACO USIMINAS                                                 0000000034100000000000000000000000000000858616460000002271409820017319802     201209272012080200000000054690000194525000000000203083000000000000000000000000008558050000000000  3020121019   01          2                                                                                   3112271409826293807258000079                                                  N                     01321  0000000        000093
12042956441000101SOLUCOES ACO USIMINAS                                                 0000000034100000000000000000000000000000859590620000002274469790017353702     201209282012080300000000054700000081053000000000084455000000000000000000000000003402050000000000  3020121019   01          2                                                                                   3112274469793293807258000069                                                  N                     01321  0000000        000094
12042956441000101SOLUCOES ACO USIMINAS                                                 0000000034100000000000000000000000000000859590630000002274469800017353802     201209282012080300000000054700000166998000000000174012000000000000000000000000007014050000000000  3020121019   01          2                                                                                   3112274469801293807258000059                                                  N                     01321  0000000        000095
12042956441000101SOLUCOES ACO USIMINAS                                                 0000000034100000000000000000000000000000841725540000002188168620016859403     201209262012070400000000054680000164455000000000171693000000000000000000000000007567050000000000  3020121018   06          3                                                                                   3112188168622293807258000019                                                  N                     01321  0000000        000096
12042956441000101SOLUCOES ACO USIMINAS                                                 0000000034100000000000000000000000000000841725550000002188168630016859503     201209262012070400000000054680000234336000000000244654000000000000000000000000010787050000000000  3020121018   06          3                                                                                   3112188168630293807258000089                                                  N                     01321  0000000        000097
12042956441000101SOLUCOES ACO USIMINAS                                                 0000000034100000000000000000000000000000856906430000002262886300017266202     201209252012073000000000054670000119436000000000124933000000000000000000000000005736050000000000  3020121018   06          3                                                                                   3112262886305293807258000019                                                  N                     01321  0000000        000098
12042956441000101SOLUCOES ACO USIMINAS                                                 0000000034100000000000000000000000000000856906440000002262886310017266302     201209252012073000000000054670000145025000000000151695000000000000000000000000006960050000000000  3020121018   06          3                                                                                   3112262886313293807258000029                                                  N                     01321  0000000        000099
12043217850000159IOB INFORMACOES OBJ  PUBL JURI                                        0000000023702374400000002958600 000000008540495200902212000099001440820E4     201208202012073000000000054310000072850000000000075747000000000000000000000000002897050000000000  3020121019   01          2  GANGES 528 VL NOVA MANCHESTER                                                    3                         000000000000000                                     N                     00598  0000000        000100
12043217850000159IOB INFORMACOES OBJ  PUBL JURI                                        0000000023702374400000002958600 000000008711912800902243000063301440820F2     201209202012083000000000054620000072850000000000075003000000000000000000000000002153050000000000  3020121019   01          2  R GANGES 528                                                                     3                         000000000000000                                     N                     00598  0000000        000101
12047190731000100DE CASTRO LOUR ENG IND LTDA                                           00000000341000000000000000000000000000008782050900000023399953503026612 0     201209182012082100000000054600001111489000000001179255000000000000000000000000067766050000000000  3020121019   01          2                                                                                   3112339995352036884500400019                                                  N                     01321  0000000        000102
12047190731000100DE CASTRO LOUR ENG IND LTDA                                           00000000341000000000000000000000000000008782052100000023399955903026643 0     201209202012082300000000054620000867039000000000916484000000000000000000000000049445050000000000  3020121019   01          2                                                                                   3112339995592036884500400049                                                  N                     01321  0000000        000103
12047190731000100DE CASTRO LOUR ENG IND LTDA                                           00000000341000000000000000000000000000008782051200000023399953803026613 0     201209182012082100000000054600001107989000000001175538000000000000000000000000067549050000000000  3020121019   01          2                                                                                   3112339995386036884500400039                                                  N                     01321  0000000        000104
12047190731000100DE CASTRO LOUR ENG IND LTDA                                           00000000341000000000000000000000000000008782051600000023399954103026614 0     201209182012082100000000054600001047621000000001111481000000000000000000000000063860050000000000  3020121019   01          2                                                                                   3112339995410036884500400039                                                  N                     01321  0000000        000105
12047190731000100DE CASTRO LOUR ENG IND LTDA                                           00000000341000000000000000000000000000008782052000000023399955303026632 0     201209192012082200000000054610000952073000000001008233000000000000000000000000056160050000000000  3020121019   01          2                                                                                   3112339995535036884500400019                                                  N                     01321  0000000        000106
12047190731000100DE CASTRO LOUR ENG IND LTDA                                           00000000341000000000000000000000000000008782052500000023399955603026636 0     201209192012082200000000054610000940804000000000996304000000000000000000000000055500050000000000  3020121019   01          2                                                                                   3112339995568036884500400049                                                  N                     01321  0000000        000107
12047190731000100DE CASTRO LOUR ENG IND LTDA                                           00000000341000000000000000000000000000008782052700000023399956203026648 0     201209202012082300000000054620000976053000000001031733000000000000000000000000055680050000000000  3020121019   01          2                                                                                   3112339995626036884500400029                                                  N                     01321  0000000        000108
12048775225000146SEIKI IND COM E CONFECCOES LTD                                        000000003410000000000000000000000000000087820591000000235780573014311001      201209282012083100000000054700000052000000000000053638000000000000000000000000001638050000000000  3020121019   01          2                                                                                   3112357805731017444824100069                                                  N                     01321  0000000        000109
12051180370000199IGUAFER FERRO E ACO LTDA                                              0000000034100000000000000000000000000000852309110000002239389799443 C         201209122012071800000000054540000168275000000000178635000000000000000000000000010360050000000000  3020121019   01          2                                                                                   3112239389797077149484600089                                                  N                     01321  0000000        000110
12051180370000199IGUAFER FERRO E ACO LTDA                                              0000000034100000000000000000000000000000852309100000002239389789443 B         201209022012071800000000054440000168275000000000181435000000000000000000000000013160050000000000  3020121019   01          2                                                                                   3112239389789077149484600089                                                  N                     01321  0000000        000111
12053585766000141MULTIACOS I C PRODS TEC LTDA                                          0000000042200000000000000000000000000000883508180000000000000000004584602     201210182012091300000000054900000339224000000000339788000000000000000000000000000564050000000000  3020121019   01          2                                                                                   3711500005033164921116527149                                                  N                     01321  0000000        000112
12053585766000141MULTIACOS I C PRODS TEC LTDA                                          0000000042200000000000000000000000000000883508210000000000000000004584802     201210182012091300000000054900000379244000000000379875000000000000000000000000000631050000000000  3020121019   01          2                                                                                   3711500005033164921116543159                                                  N                     01321  0000000        000113
12053585766000141MULTIACOS I C PRODS TEC LTDA                                          0000000042200000000000000000000000000000883508270000000000000000004585402     201210182012091300000000054900001047733000000001049478000000000000000000000000001745050000000000  3020121019   01          2                                                                                   3711500005033164921116586119                                                  N                     01321  0000000        000114
12053585766000141MULTIACOS I C PRODS TEC LTDA                                          0000000042200000000000000000000000000000883508310000000000000000004585102     201210182012091300000000054900000222786000000000223156000000000000000000000000000370050000000000  3020121019   01          2                                                                                   3711500005033164921116560119                                                  N                     01321  0000000        000115
12053585766000141MULTIACOS COM DE PRODUTOS TECN                                        0000000023703398700000000011290 00000000888733030020226900000230004500803     201210162012080700000000054880000173389000000000174256000000000000000000000000000867050000000000  3020121019   01          2  RUA JUNO  533                                                                    3                         000000000000000                                     N                     00598  0000000        000116
12053585766000141MULTIACOS COM DE PRODUTOS TECN                                        0000000023703398700000000011290 00000000888733040020226900000240004500903     201210162012080700000000054880000962577000000000967389000000000000000000000000004812050000000000  3020121019   01          2  RUA JUNO  533                                                                    3                         000000000000000                                     N                     00598  0000000        000117
12053585766000141MULTIACOS COM DE PRODUTOS TECN                                        0000000023703398700000000011290 00000000888733050020226900000250004501003     201210162012080700000000054880000902868000000000907383000000000000000000000000004515050000000000  3020121019   01          2  RUA JUNO  533                                                                    3                         000000000000000                                     N                     00598  0000000        000118
12053585766000141MULTIACOS COM DE PRODUTOS TECN                                        0000000023703398700000000011290 00000000888733080020226900000490004570002     201210162012082100000000054880000999583000000001004581000000000000000000000000004998050000000000  3020121019   01          2  RUA JUNO  533                                                                    3                         000000000000000                                     N                     00598  0000000        000119
12053585766000141MULTIACOS COM DE PRODUTOS TECN                                        0000000023703398700000000011290 00000000888733090020226900000680004642301     201210162012090400000000054880000198805000000000199798000000000000000000000000000993050000000000  3020121019   01          2  RUA JUNO  533                                                                    3                         000000000000000                                     N                     00598  0000000        000120
12053585766000141MULTIACOS COM DE PRODUTOS TECN                                        0000000023703398700000000011290 00000000888733100020226900000690004642101     201210162012090400000000054880000251722000000000252982000000000000000000000000001260050000000000  3020121019   01          2  RUA JUNO  533                                                                    3                         000000000000000                                     N                     00598  0000000        000121
12053585766000141MULTIACOS COM DE PRODUTOS TECN                                        0000000023703398700000000011290 00000000888733110020226900000710004650301     201210172012090500000000054890000235534000000000236320000000000000000000000000000786050000000000  3020121019   01          2  RUA JUNO  533                                                                    3                         000000000000000                                     N                     00598  0000000        000122
12053585766000141MULTIACOS COM DE PRODUTOS TECN                                        0000000023703398700000000011290 00000000888733120020226900000720004650401     201210172012090500000000054890000198805000000000199467000000000000000000000000000662050000000000  3020121019   01          2  RUA JUNO  533                                                                    3                         000000000000000                                     N                     00598  0000000        000123
12053585766000141MULTIACOS INDUSTRIA E COMERCIO                                        0000000000100000000000000000000000000000885248120000003068230000004612201     201210092012091800000000054810000221054000000000221790000000000000000000000000001104050000000000  3020121011   05          3                                                                                   3044073068231912000139523189                                                  N                     01321  0000000        000124
12053585766000141MULTIACOS INDUSTRIA E COMERCIO                                        0000000000100000000000000000000000000000885248130000003068240000004612301     201210092012091800000000054810000655966000000000658152000000000000000000000000003279050000000000  3020121011   05          3                                                                                   3044073068241912000139523119                                                  N                     01321  0000000        000125
12054382510000108SETENTA IND E COM DE MADEIRAS                                         0000000034100000000000000000000000000000883508330000002392776804604 A         201210082012091300000000054800000116600000000000119119000000000000000000000000002519050000000000  3020121019   01          2                                                                                   3112392776806057049175300019                                                  N                     01321  0000000        000126
12054382510000108SETENTA IND E COM DE MADEIRAS                                         0000000034100000000000000000000000000000874070720000002305114064536 A         201209192012081600000000054610000191200000000000202480000000000000000000000000011280050000000000  3020121019   01          2                                                                                   3112305114061057002848000039                                                  N                     01321  0000000        000127
12054382510000108SETENTA IND E COM DE MADEIRAS                                         0000000034100000000000000000000000000000860403430000002277814474462 A         201209042012080700000000054460000191200000000000208120000000000000000000000000016920050000000000  3020121019   01          2                                                                                   3112277814474057049175300069                                                  N                     01321  0000000        000128
12056993512000150CYKLOP DO BRASIL EMBALAGENS SA                                        0000000034100000000000000000000000000000874070500000002362586810134932        201210012012090300000000054730000083607000000000089133000000000000000000000000005526050000000000  3020121019   01          2                                                                                   3112362586813025700015800019                                                  N                     01321  0000000        000129
12056993900000131CIA METALURGICA PRADA                                                 0000000034100000000000000000000000000000824820100000002102181160024711603     201208292012060600000000054400000833146000000000903985000000000000000000000000070839050000000000  3020121019   01          2                                                                                   3112102181164293800573900039                                                  N                     01321  0000000        000130
12056993900000131CIA METALURGICA PRADA                                                 0000000034100000000000000000000000000000848180670000002218222720025830103     201210092012071700000000054810000207402000000000210862000000000000000000000000003460050000000000  3020121019   01          2                                                                                   3112218222720293800573900079                                                  N                     01321  0000000        000131
12056993900000131CIA METALURGICA PRADA                                                 0000000034100000000000000000000000000000840312930000002179478290025419302     201208282012070300000000054390000402178000000000437018000000000000000000000000034840050000000000  3020121019   01          2                                                                                   3112179478295293800573900089                                                  N                     01321  0000000        000132
12056993900000131CIA METALURGICA PRADA                                                 0000000034100000000000000000000000000000848180620000002218222670025829902     201209112012071700000000054530000498118000000000529658000000000000000000000000031540050000000000  3020121019   01          2                                                                                   3112218222670293800573900029                                                  N                     01321  0000000        000133
12056993900000131CIA METALURGICA PRADA                                                 0000000034100000000000000000000000000000848180630000002218222680025830002     201209112012071700000000054530000247673000000000263367000000000000000000000000015694050000000000  3020121019   01          2                                                                                   3112218222688293800573900059                                                  N                     01321  0000000        000134
12056993900000131CIA METALURGICA PRADA                                                 0000000034100000000000000000000000000000848180640000002218222690025830102     201209112012071700000000054530000207402000000000220550000000000000000000000000013148050000000000  3020121019   01          2                                                                                   3112218222696293800573900039                                                  N                     01321  0000000        000135
12056993900000131CIA METALURGICA PRADA                                                 0000000034100000000000000000000000000000848180650000002218222700025829903     201210092012071700000000054810000498119000000000506419000000000000000000000000008300050000000000  3020121019   01          2                                                                                   3112218222704293800573900019                                                  N                     01321  0000000        000136
12056993900000131CIA METALURGICA PRADA                                                 0000000034100000000000000000000000000000840312940000002179478300025419402     201208282012070300000000054390000322804000000000350780000000000000000000000000027976050000000000  3020121019   01          2                                                                                   3112179478303293800573900079                                                  N                     01321  0000000        000137
12056993900000131CIA METALURGICA PRADA                                                 0000000034100000000000000000000000000000848180660000002218222710025830003     201210092012071700000000054810000247672000000000251802000000000000000000000000004130050000000000  3020121019   01          2                                                                                   3112218222712293800573900019                                                  N                     01321  0000000        000138
12056993900000131CIA METALURGICA PRADA                                                 0000000034100000000000000000000000000000844838960000002201181950025629303     201210032012071100000000054750000257905000000000264785000000000000000000000000006880050000000000  3020121019   01          2                                                                                   3112201181958293800573900099                                                  N                     01321  0000000        000139
12056993900000131CIA METALURGICA PRADA                                                 0000000034100000000000000000000000000000844838970000002201181960025629403     201210032012071100000000054750000249372000000000256028000000000000000000000000006656050000000000  3020121019   01          2                                                                                   3112201181966293800573900019                                                  N                     01321  0000000        000140
12056993900000131CIA METALURGICA PRADA                                                 0000000034100000000000000000000000000000844838980000002201181970025635303     201210032012071100000000054750000406843000000000417691000000000000000000000000010848050000000000  3020121019   01          2                                                                                   3112201181974293800573900089                                                  N                     01321  0000000        000141
12056993900000131CIA METALURGICA PRADA                                                 0000000034100000000000000000000000000000844838990000002201181980025635403     201210032012071100000000054750000208689000000000214257000000000000000000000000005568050000000000  3020121019   01          2                                                                                   3112201181982293800573900059                                                  N                     01321  0000000        000142
12056993900000131CIA METALURGICA PRADA                                                 0000000034100000000000000000000000000000844839000000002201181880025629402     201209052012071100000000054470000249372000000000267676000000000000000000000000018304050000000000  3020121019   01          2                                                                                   3112201181883293800573900019                                                  N                     01321  0000000        000143
12056993900000131CIA METALURGICA PRADA                                                 0000000034100000000000000000000000000000844839010000002201181890025635302     201209052012071100000000054470000406842000000000436674000000000000000000000000029832050000000000  3020121019   01          2                                                                                   3112201181891293800573900019                                                  N                     01321  0000000        000144
12056993900000131CIA METALURGICA PRADA                                                 0000000034100000000000000000000000000000844839020000002201181900025635402     201209052012071100000000054470000208689000000000224001000000000000000000000000015312050000000000  3020121019   01          2                                                                                   3112201181909293800573900069                                                  N                     01321  0000000        000145
12056993900000131CIA METALURGICA PRADA                                                 0000000034100000000000000000000000000000844839030000002201181910025635502     201209052012071100000000054470000164780000000000176880000000000000000000000000012100050000000000  3020121019   01          2                                                                                   3112201181917293800573900029                                                  N                     01321  0000000        000146
12056993900000131CIA METALURGICA PRADA                                                 0000000034100000000000000000000000000000844839040000002201181920025635602     201209052012071100000000054470000339933000000000364881000000000000000000000000024948050000000000  3020121019   01          2                                                                                   3112201181925293800573900069                                                  N                     01321  0000000        000147
12056993900000131CIA METALURGICA PRADA                                                 0000000034100000000000000000000000000000844839050000002201181930025636202     201209052012071100000000054470000746213000000000800949000000000000000000000000054736050000000000  3020121019   01          2                                                                                   3112201181933293800573900019                                                  N                     01321  0000000        000148
12056993900000131CIA METALURGICA PRADA                                                 0000000034100000000000000000000000000000844839060000002201181940025644402     201209052012071100000000054470000779647000000000836803000000000000000000000000057156050000000000  3020121019   01          2                                                                                   3112201181941293800573900019                                                  N                     01321  0000000        000149
12056993900000131CIA METALURGICA PRADA                                                 0000000034100000000000000000000000000000844839070000002201181990025635503     201210032012071100000000054750000164779000000000169179000000000000000000000000004400050000000000  3020121019   01          2                                                                                   3112201181990293800573900019                                                  N                     01321  0000000        000150
12056993900000131CIA METALURGICA PRADA                                                 0000000034100000000000000000000000000000844839080000002201182000025635603     201210032012071100000000054750000339934000000000349006000000000000000000000000009072050000000000  3020121019   01          2                                                                                   3112201182006293800573900069                                                  N                     01321  0000000        000151
12056993900000131CIA METALURGICA PRADA                                                 0000000034100000000000000000000000000000844839090000002201182010025636203     201210032012071100000000054750000746212000000000766116000000000000000000000000019904050000000000  3020121019   01          2                                                                                   3112201182014293800573900079                                                  N                     01321  0000000        000152
12056993900000131CIA METALURGICA PRADA                                                 0000000034100000000000000000000000000000844839100000002201182020025644403     201210032012071100000000054750000779647000000000800431000000000000000000000000020784050000000000  3020121019   01          2                                                                                   3112201182022293800573900049                                                  N                     01321  0000000        000153
12056993900000131CIA METALURGICA PRADA                                                 0000000034100000000000000000000000000000844839140000002201181870025629302     201209052012071100000000054470000257906000000000276826000000000000000000000000018920050000000000  3020121019   01          2                                                                                   3112201181875293800573900069                                                  N                     01321  0000000        000154
12057029431000106ATLAS COPCO BRASIL LTDA                                               0000000034100000000000000000000000000000861960280000002283943487000054090     201209062012080900000000054480000059490000000000061167000000000000000000000000001677050000000000  3020121019   01          2                                                                                   3112283943481293804111400069                                                  N                     01321  0000000        000155
12057029431000106ATLAS COPCO BRASIL LTDA                                               0000000034100000000000000000000000000000863731640000002292733057000054146     201209072012081000000000054490000081450000000000083718000000000000000000000000002268050000000000  3020121019   01          2                                                                                   3112292733055293804111400099                                                  N                     01321  0000000        000156
12059659615000177DZ COMERCIO R E SERVICOS LTDA                                         000000003410000000000000000000000000000086699205000000900000268252            201209172012081500000000054590000060000000000000063840000000000000000000000000003840050000000000  3020121019   01          2                                                                                   3109000002680000314585100059                                                  N                     01321  0000000        000157
12060830544000102TORRES GALVANIZACAO A FOGO LTD                                        0000000023702531300000000105007 0000000088012245009013225501782007494         201210022012090400000000054740000309600000000000315792000000000000000000000000007224050000000000  3020121005   06          3  RUA GANGES  528                                                                  3                         000000000000000                                     N                     00598  0000000        000158
12061217188000119TELAS METALICAS TELMETAL LTDA                                         0000000000100000000000000000000000000000871191250000000056800005569 3 3       201210082012082900000000054800000060518000000000061001000000000000000000000000000644050000000000  3020121011   05          3                                                                                   3000000115031800000056801719                                                  N                     01321  0000000        000159
12061217188000119TELAS METALICAS TELMETAL LTDA                                         0000000000100000000000000000000000000000872952800000000057020005605 1 1       201210082012090300000000054800000104934000000000105774000000000000000000000000001120050000000000  3020121011   05          3                                                                                   3000000115031800000057021789                                                  N                     01321  0000000        000160
12061217188000119TELAS METALICAS TELMETAL LTDA                                         0000000000100000000000000000000000000000885248140000000057440005659 1 2       201210152012091800000000054870000039222000000000039432000000000000000000000000000315050000000000  3020121017   06          3                                                                                   3000000115031800000057441729                                                  N                     01321  0000000        000161
12061217188000119TELAS METALICAS TELMETAL LTDA                                         0000000000100000000000000000000000000000885248160000000057460005660 1 2       201210152012091800000000054870000072172000000000072556000000000000000000000000000576050000000000  3020121017   06          3                                                                                   3000000115031800000057461749                                                  N                     01321  0000000        000162
12062510367000102ITANHAEM TRANSP DE MAQUINAS LT                                        000000003410000000000000000000000000000087407049000000236463199667            201209202012090400000000054620000248220000000000277017000000000000000000000000028797050000000000  3020121019   01          2                                                                                   3112364631997005770252400049                                                  N                     01321  0000000        000163
12064952757000168WALMAC COM DE PROD QUIMICOS LT                                        0000000034100000000000000000000000000000860403450000002275821700020148        201210052012080300000000054770000219267000000000225301000000000000000000000000006034050000000000  3020121019   01          2                                                                                   3112275821703064807961400029                                                  N                     01321  0000000        000164
12064952757000168WALMAC COM DE PROD QUIMICOS LT                                        0000000034100000000000000000000000000000860403460000002275821710020148        201208312012080300000000054420000219267000000000240386000000000000000000000000021119050000000000  3020121019   01          2                                                                                   3112275821711064807961400079                                                  N                     01321  0000000        000165
12065000655000105HILTI DO BRASIL COMERCIAL LTDA                                        0000000023703396000000000243787 00000000871682760090224400001640002179001     201209272012082800000000054690000019742000000000020600000000000000000000000000000858050000000000  3020121019   01          2  RUA TAMAINDE 1410                                                                3                         000000000000000                                     N                     00598  0000000        000166
12066841552000130R V SEG PATRIMONIAL S C LTDA                                          00000000341000000000000000000000000000008887329800000090002213622136          201210102012091100000000054820000374758000000000375883000000000000000000000000001125050000000000  3020121019   01          2                                                                                   3109000221365001838994000069                                                  N                     01321  0000000        000167
12066841552000130R V SEG PATRIMONIAL LTDA                                              00000000341000000000000000000000000000008852483200000090002192721927          201209102012081000000000054520000483241000000000489520000000000000000000000000006279050000000000  3020121019   01          2                                                                                   3109000219270001835253400099                                                  N                     01321  0000000        000168
12066899790000105FABRICA ARTEF LATEX ESTRELA EP                                        00000000399000000000000000000000000000008706705500000000000000077307 001      201210132012082900000000054850000141750000000000141750000000000000000000000000000000050000000000  3020121015   06          3                                                                                   3175891371831125027292500129                                                  N                     01321  0000000        000169
12067088963000160AJAXCOM ELETROMEC E SERVS LTDA                                        000000003410000000000000000000000000000088350838000000795752579359            201210152012091700000000054870000027200000000000027903000000000000000000000000000756050000000000  3020121018   06          3                                                                                   3157957525793019941432700039                                                  N                     01321  0000000        000170
12067647412000199ANCORA CHUMBADORES LTDA                                               000000003410000000000000000000000000000086859262000000214873079055988 4       201210182012062000000000054900000250000000000000250492000000000000000000000000000492050000000000  3020121019   01          2                                                                                   3112148730792013670795700069                                                  N                     01321  0000000        000171
12068364900000151V R INDUSTRIA HELIOGRAFICA LTD                                        000000000330000000000000000000000000000090327873000000000000000136263 1 1     201210222012100100000000054940000017840000000000017840000000000000000000000000000000050000000000  3020121022   01FS        1                                                                                   3942136960000000181900020329                                                  N                     01321  0000000        000172
12069284248000128ISOCOAT TINTAS E VERNIZES LTDA                                        0000000034100000000000000000000000000000856906400000002259392850053390        201210152012073100000000054870000048342000000000048729000000000000000000000000000516050000000000  3020121018   06          3                                                                                   3112259392853077430121200019                                                  N                     01321  0000000        000173
12069284248000128ISOCOAT TINTAS E VERNIZES LTDA                                        0000000034100000000000000000000000000000841061040000002182507930052085        201209172012070200000000054590000236130000000000256290000000000000000000000000020160050000000000  3020121019   01          2                                                                                   3112182507932077430121200019                                                  N                     01321  0000000        000174
12069309706000136F N A TRANSPORTES LTDA                                                000000003410000000000000000000000000000086615421000000900010656059068         201208302012081500000000054410000079200000000000092400000000000000000000000000013200050000000000  3020121019   01          2                                                                                   3109000106565005486932600099                                                  N                     01321  0000000        000175
12071580302000124SANCHEPEL IND PAULISTA EMB L                                          0000000034100000000000000000000000000000903278700000002494145777951           201211152012101700000000055180000103500000000000103500000000000000000000000000000000050000000000  3020121116   01FS        1                                                                                   3112494145777007855578600049                                                  N                     01321  0000000        000176
12075483040000130REX MAQ E EQUIPAMENTOS LTDA                                           00000000341000000000000000000000000000008465957600000022100117076263 2 3      201209262012070400000000054680000434000000000000453642000000000000000000000000019642050000000000  3020121019   01          2                                                                                   3112210011709848301515500019                                                  N                     01321  0000000        000177
12075483040000130REX MAQUINAS E EQUIPAMENTOS LT                                        0000000023702656500000000000701 000000008577186500202216000032278261 2 3      201210182012072600000000054900000384500000000000385141000000000000000000000000000641050000000000  3020121019   01          2  RUA  GANGES  528                                                                 3                         000000000000000                                     N                     00598  0000000        000178
12096500087000135WORKBENCH CONSULTORIA S S LTDA                                        0000000034100000000000000000000000000000878205840000007940034283118           201209272012090300000000054690000131746000000000137444000000000000000000000000005698050000000000  3020121019   01          2                                                                                   3157940034289826313803700089                                                  N                     01321  0000000        000179
900018000000000060894364                                                                                                                                                                                                                                                                                                                                                                                                                                                                01321  0000000        000180
