0000147602043799295000110ALTAMIRA IND METALURGICA LTDA           20100533000002012101911415600000        2    230A                                                                                          000000000000000                                                                                                                                                                                                                                                                                   000001
12043799295000110ALTAMIRA INDUSTRIA METAL LTDA RUA  GANGES  528                        0344503003303809500000130004071 I000000000010060000000000000000               201210190000000000000000000000000000000000000002800000000000000000000000000000000000050000000001  0820121019   01HA        0001220                                                                             3D0000000101                             0001                                 S                     00000  0020256        000002
900000300000000002800000                                                                                                                                                                                    000000000000000                                                                                                                                                                                                                                                    00000100000000000000000        000003
