0000147602043799295000110ALTAMIRA INDUSTRIA METALURGICA LT       202000000435320121219215319             3                                                                                                  000000000000000                                                                                                                                                                                                                                                                                   000001
1205995053500017610 TABELIAO PROTESTOS SP                                              0000000023701628400000000729957 I000000000010343006012121405420               201212190000000000000000055520000937224000000000937224000000000000000000000000000000010000026643  3120121219   02BW        5000000               000000000000000                                               3162806121214054200072995059               PROT.542 - 19/12 - DE CASTRO       N                     01079 10020256        000002
12007068566000102NIVEL EMPREGOS LTDA           AV CELSO GARCIA 3830                    0306400023700097300000003053792 I000000000010340000000000000000               201212190000000000000000000000000000000000000000162042000000000000000000000000000000010000002833  0120121219   02BW        5000000               000000000000000                                               3                                          NF.NRO.02833.                      N                     01321 10020256        000003
12035820448000136WHITE MARTINS GASES INDUSTRIAI                                        0000000023700026400000003937925 0000000092564058009023280001634410108 001     201212192012112300000000055520000085208000000000085208000000000000000000000000000000050000000000  3020121219   02BW        2000000               000000000000000                                               3                         000000000000000  09510                              N                     01079 10020256        000004
12042956441000101SOLUCOES ACO USIMINAS                                                 0000000034100000000000000000000000000000924705650000002601744150019069001     201212192012112000000000055520000391686000000000391686000000000000000000000000000000050000000000  3020121219   02BW        2000000               000000000000000                                               3112601744157293807258000019               190688/01                          N                     01132 10020256        000005
12003489596000123BEND FLEX I COMERCIO LTDA                                             000000003410000000000000000000000000000092377943000000704803647653            201212192012112100000000055520000128000000000000128000000000000000000000000000000000050000000000  3020121219   02BW        2000000               000000000000000                                               3157048036475157734445800019               653                                N                     01132 10020256        000006
12042956441000101SOLUCOES ACO USIMINAS                                                 0000000034100000000000000000000000000000924705620000002601744130019068801     201212192012112000000000055520000488642000000000488642000000000000000000000000000000050000000000  3020121219   02BW        2000000               000000000000000                                               3112601744132293807258000029               190688/01                          N                     01132 10020256        000007
120599458400001704 TABELIAO PROT LETRAS TITULOS                                        0000000034100000 0000000000000  I000000000010342000000000000000               201212190000000000000000055520000138089000000000138089000000000000000000000000000000010004724103  3120121219   02BW        5000000               000000000000000                                               3175000013484034936821700019               PROTOC.NRO.0621 - 14/12- MULTIACO  N                     01132 10020256        000008
12069284248000128ISOCOAT TINTAS E VERNIZES LTDA                                        0000000034100000 0000000000000  I000000000010339000000000000000               201212190000000000000000055520000319760000000000319760000000000000000000000000000000010000056254  3120121219   02BW        5000000               000000000000000                                               3181603727172077430121200089               056254/03                          N                     01132 10020256        000009
12069284248000128ISOCOAT TINTAS E VERNIZES LTDA                                        0000000034100000 0000000000000  I000000000010338000000000000000               201212190000000000000000055520000107896000000000107896000000000000000000000000000000010000057592  3120121219   02BW        5000000               000000000000000                                               3181603727545077430121200089               57592                              N                     01132 10020256        000010
12045635984000115CRIFER LAMINADOS ACO FERRO LTD                                        0000000034100000000000000000000000000000909203350000009000268650035771E02     201212192012102400000000055520000454608000000000454608000000000000000000000000000000050000000000  3020121219   02BW        2000000               000000000000000                                               3109000268657005630080900019               35771                              N                     01132 10020256        000011
12042956441000101SOLUCOES ACO USIMINAS                                                 0000000034100000000000000000000000000000924705640000002601744140019068901     201212192012112000000000055520000248858000000000248858000000000000000000000000000000050000000000  3020121219   02BW        2000000               000000000000000                                               3112601744140293807258000099               190689/01                          N                     01132 10020256        000012
12000288916000199VB SERVICOS COM ADM LTDA                                              0000000003300000 0000000000000  I000000000010341000000000000000               201301020000000000000000055660000665733000000000665733000000000000000000000000000000010000584949  3120121219   02BW        5000000               000000000000000                                               3119130442690030259000337839               5849849                            N                     01132 10020256        000013
900001400000000004127746                                                                                                                                                                                    000000000000000                                                                                                                                                                                                                                                    00001200610860003965704        000014
