0000147602043799295000110ALTAMIRA INDUSTRIA METALURGICA LT       202000000187620120919212844             3                                                                                                  000000000000000                                                                                                                                                                                                                                                                                   000001
12017469701000177ARCELORMITTAL BRASIL S A                                              0000000034100000 0000000000000  I000000000009894000000000000000               201209190000000000000000054610000064327000000000064327000000000000000000000000000000010000127881  3120120919   02BW        5000000               000000000000000                                               3181544675247293802529900089               0127881/02                         N                     01132 10020256        000002
12062494679000170WILSON ROBERTO COSTA DE JESUS                                         0000000000100000 0000000000000  I000000000009882000000000000000               201209190000000000000000054610000032168000000000032168000000000000000000000000000000010000034739  3120120919   02BW        5000000               000000000000000                                               3000000198715600000006971819               34739                              N                     01132 10020256        000003
12043799295000110ALTAMIRA INDUSTRIA METAL LTDA                                         0000000003303809500000130004071 I000000000009888000000000000000               201209190000000000000000000000000000000000000004300000000000000000000000000000000000050000000001  0820120919   02BW        5001000               000000000000000                                               3D0000000101                               01                                 S                     01133 10020256        000004
12007068566000102NIVEL EMPREGOS LTDA           AV CELSO GARCIA 3830                    0306400023700097300000003053792 I000000000009889000000000000000               201209190000000000000000000000000000000000000000350000000000000000000000000000000000050000002753  0120120919   02BW        5000000               000000000000000                                               3                                          SALDO NF.NRO.2753.                 N                     01321 10020256        000005
12081560047000101ACEVILLE TRANSPORTES LTDA                                             0000000023702232200000000013536 I000000000009895009022320259757               201209190000000000000000054610000024320000000000024320000000000000000000000000000000010000259757  3120120919   02BW        5000000               000000000000000                                               3223209223202597570001353069               259757                             N                     01079 10020256        000006
12004455726000170INTERCLICK INFORMATICA S C LTDR JORGE AUGUSTO 83 SL 84 PENHA          0364500023702451100000000099449 I000000000009890000000000000000               201209190000000000000000000000000000000000000000553000000000000000000000000000000000010000001201  0120120919   02BW        5000000               000000000000000                                               3                                          PAG.PARCIAL NF.NRO.1201 - PARC.01. N                     01321 10020256        000007
12061217188000119TELAS METALICAS TELMETAL LTDA                                         0000000003300000000000000000000000000000866154300000005100000005518 1 1       201209142012081600000000054560000094659000000000095919000000000000000000000000002520050000000000  3020120919   02BW        2000000               000000000000000                                               3915435040000000047651020179               5518/01-01                         N                     01132 10020256        000008
12069284248000128ISOCOAT TINTAS E VERNIZES LTDA                                        0000000034100000 0000000000000  I000000000009896000000000000000               201209190000000000000000054610000056319000000000056319000000000000000000000000000000010000053390  3120120919   02BW        5000000               000000000000000                                               3181544678591077430121200059               53390                              N                     01132 10020256        000009
12005151518000140BELENUS DO BRASIL LTDA                                                0000000000100000 0000000000000  I000000000009893000000000000000               201209190000000000000000054610000130825000000000130825000000000000000000000000000000010000297851  3120120919   02BW        5000000               000000000000000                                               3000000123933843997762383119               0297851/01                         N                     01132 10020256        000010
12061383493000180MARITIMA SEGUROS S A                                                  0000000003300000 0000000000000  I000000000009898000000000000000               201209190000000000000000054610000101220000000000101220000000000000000000000000000000050000106538  3120120919   02BW        5000000               000000000000000                                               3001910187309650579000334639               10653678                           N                     01132 10020256        000011
12013656578000142GUARINOR TRANSP E LOGISTICA LT                                        0000000010400000 0000000000000  I000000000009897000000000000000               201209190000000000000000054610000171300000000000171300000000000000000000000000000000050000001074  3120120919   02BW        5000000               000000000000000                                               3900000082432958700000017399               01074/12                           N                     01132 10020256        000012
12007289649000113CRC LASER SUPRIM INFOR LTDA                                           0000000034100000 0000000000000  I000000000009899000000000000000               201209190000000000000000054610000030598000000000030598000000000000000000000000000000010000001055  3120120919   02BW        5000000               000000000000000                                               3181544694801000265431700039               1055                               N                     01132 10020256        000013
12061217188000119TELAS METALICAS TELMETAL LTDA                                         0000000000100000 0000000000000  I000000000009892000000000000000               201209190000000000000000054610000032542000000000032542000000000000000000000000000000010000005531  3120120919   02BW        5000000               000000000000000                                               3000000115031800000056391719               5531/01-01                         N                     01132 10020256        000014
12061217188000119TELAS METALICAS TELMETAL LTDA                                         0000000000100000 0000000000000  I000000000009891000000000000000               201209190000000000000000054610000075593000000000075593000000000000000000000000000000010000005532  3120120919   02BW        5000000               000000000000000                                               3000000115031800000056401759               5532/01-01                         N                     01132 10020256        000015
900001600000000006018131                                                                                                                                                                                    000000000000000                                                                                                                                                                                                                                                    00001400600660000813871        000016
