0000147602043799295000110ALTAMIRA INDUSTRIA METALURGICA LT       202000000012920120919055414             1                                                                                                                                                                                                                                                                                                                                                                                                    000001
12001852612000175BT EQUIPAMENTOS INDUSTRIAIS LT                                        000000000010000000000000000000000000000087577329000000031510000591624         201209142012082200000000054560000031800000000000032275000000000000000000000000000475050000000000  3020120919   01          2                                                                                   3044000315100511000085971119                                                  N                     01321  0000000        000002
12001895314000162COLETA INDUSTRIAL FIMAVAN LTDA                                        0000000034100000000000000000000000000000866992070000009002335349439           201208272012081700000000054380000123695000000000133736000000000000000000000000010041050000000000  3020120919   01          2                                                                                   3109002335346144604097200019                                                  N                     01321  0000000        000003
12001895314000162COLETA INDUSTRIAL FIMAVAN LTDA                                        00000000341000000000000000000000000000008844324600000090023445310405          201209272012091700000000054690000158141000000000158141000000000000000000000000000000050000000000  3020120927   01FS        1                                                                                   3109002344538144604097200029                                                  N                     01321  0000000        000004
12001951865000104FOUR FACTORING FOMENTO MERCANT                                        000000000010000000000000000000000000000088012243000000987637000166            201209142012091000000000054560000310000000000000315165000000000000000000000000005165050000000000  3020120919   01          2                                                                                   3044049876373222001052451139                                                  N                     01321  0000000        000005
12001951865000104FOUR FACTORING FOMENTO M LTDA                                         000000004220000000000000000000000000000085607115000000000000000174            201209132012073000000000054550000310000000000000316197000000000000000000000000006197050000000000  3020120919   01          2                                                                                   3702000009214741498829499119                                                  N                     01321  0000000        000006
12002460454000170AUT SERVICE COMERCIO E SERVICO                                        0000000023702591700000000007692 000000008515292000901322060028234532 2        201209172012072400000000054590000238750000000000251643000000000000000000000000012893050000000000  3020120919   01          2  RUA JUNO  533                                                                    3                         000000000000000                                     N                     00598  0000000        000007
12002503185000182ANDAIMES MAQUINAS BIG LTDA EPP                                        000000003410000000000000000000000000000086282613000000228719913011660         201208302012081000000000054410000012000000000000012400000000000000000000000000000400050000000000  3020120919   01          2                                                                                   3112287199130650303800900039                                                  N                     01321  0000000        000008
12002503185000182ANDAIMES MAQUINAS BIG LTDA EPP                                        0000000034100000000000000000000000000000874070480000002313590765101           201209142012082000000000054560000016500000000000016885000000000000000000000000000385050000000000  3020120919   01          2                                                                                   3112313590765650303800900019                                                  N                     01321  0000000        000009
12003489596000123BEND FLEX I COMERCIO LTDA                                             000000003410000000000000000000000000000088350832000000171879874608            201209122012082100000000054540000695250000000000704819000000000000000000000000009569050000000000  3020120919   01          2                                                                                   3191718798744157734445800069                                                  N                     01321  0000000        000010
12003489596000123BEND FLEX I COMERCIO LTDA                                             000000003410000000000000000000000000000086699212000000791935440613            201209172012082000000000054590000585000000000000599002000000000000000000000000014002050000000000  3020120919   01          2                                                                                   3157919354403157734445800099                                                  N                     01321  0000000        000011
12003489596000123BEND FLEX INDUSTRIA E COMERCIO                                        000000001040000000000000000000000000000086961107000000241364000607            201209072012081000000000054490000405000000000000418448000000000000000000000000014785050000000000  3020120911   05          3                                                                                   3314224136411558700000019999                                                  N                     01321  0000000        000012
12003694166000143GRANDE SAO PAULO COMERCIO DE P                                        000000000010000000000000000000000000000087820586000000088384000154 01         201209112012090300000000054530000034400000000000034400000000000000000000000000000000050000000000  3020120911   05          3                                                                                   3000000151248744030883841119                                                  N                     01321  0000000        000013
12004882911000140F C BRITO CARTUCHOS ME                                                00000000033000000000000000000000000000008819135200000080000000012694 A21      201209122012081500000000054540000037600000000000039401000000000000000000000000001975050000000000  3020120918   06          3                                                                                   3944753720000000093580010139                                                  N                     01321  0000000        000014
12005151518000140BELENUS DO BRASIL LTDA                                                000000000010000000000000000000000000000085315478000000001498000R128919722     201209182012072600000000054600000460800000000000462321000000000000000000000000001521050000000000  3020120919   01          2                                                                                   3000000123933843930014983179                                                  N                     01321  0000000        000015
12005335228000156DINAMICA INF E TELECOM LTDA EP                                        0000000023703257300000000503215 0000000088443245009032570017396MO008960A      201209302012091700000000054720000020000000000000020000000000000000000000000000000000050000000000  3020121001   01FS        1  RUA JUNO  533                                                                    3                         000000000000000                                     N                     00598  0000000        000016
12005880850000145NEDERMAN BRASIL COM PROD EX LT                                        000000003410000000000000000000000000000086373178000000614350956002763 A       201209142012081400000000054560000289674000000000292524000000000000000000000000002850050000000000  3020120919   01          2                                                                                   3156143509568160829000100049                                                  N                     01321  0000000        000017
12006000195000156M B A MERCANTIL BRASILEIRA DE                                         0000000000100000000000000000000000000000831387060000007752280000008616B03     201209132012062000000000054550000572227000000000577951000000000000000000000000005724050000000000  3020120919   01          2                                                                                   3043837752283333000105251199                                                  N                     01321  0000000        000018
12006000195000156M B A MERCANTIL BRASILEIRA DE                                         0000000000100000000000000000000000000000834820190000002571510000008651B03     201209182012062600000000054600000426599000000000427310000000000000000000000000000711050000000000  3020120919   01          2                                                                                   3043852571513333000105251119                                                  N                     01321  0000000        000019
12006000195000156M B A MERCANTIL BRASILEIRA DE                                         0000000000100000000000000000000000000000834820220000002571540000008653B03     201209132012062600000000054550000276788000000000279554000000000000000000000000002766050000000000  3020120919   01          2                                                                                   3043852571543333000105251119                                                  N                     01321  0000000        000020
12006000195000156M B A MERCANTIL BRASILEIRA DE                                         0000000000100000000000000000000000000000834820270000002571570000008654B03     201209142012062600000000054560000677504000000000683149000000000000000000000000005645050000000000  3020120919   01          2                                                                                   3043852571573333000105251119                                                  N                     01321  0000000        000021
12006000195000156M B A MERCANTIL BRASILEIRA DE                                         0000000000100000000000000000000000000000834820300000002571600000008655B03     201209152012062600000000054570000739628000000000744560000000000000000000000000004932050000000000  3020120919   01          2                                                                                   3043852571603333000105251129                                                  N                     01321  0000000        000022
12006000195000156MBA MERCANTIL BRAS DE ACO LTDA                                        0000000034100000000000000000000000000000884432510000002398047540009460B03     201211282012090500000000055310000130438000000000130438000000000000000000000000000000050000000000  3020121128   01FS        1                                                                                   3112398047541064899001800029                                                  N                     01321  0000000        000023
12006000195000156MBA MERCANTIL BRAS DE ACO LTDA                                        0000000034100000000000000000000000000000884432480000002398047560009473B02     201210312012090500000000055030000503132000000000503132000000000000000000000000000000050000000000  3020121031   01FS        1                                                                                   3112398047566064899001800079                                                  N                     01321  0000000        000024
12006000195000156MBA MERCANTIL BRAS DE ACO LTDA                                        0000000034100000000000000000000000000000884432520000002398047800009534B01     201210102012091200000000054820000455670000000000455670000000000000000000000000000000050000000000  3020121010   01FS        1                                                                                   3112398047806064899001800069                                                  N                     01321  0000000        000025
12006000195000156MBA MERCANTIL BRAS DE ACO LTDA                                        0000000034100000000000000000000000000000884432530000002398047630009492B03     201212032012091000000000055360000529375000000000529375000000000000000000000000000000050000000000  3020121203   01FS        1                                                                                   3112398047632064899001800099                                                  N                     01321  0000000        000026
12006000195000156MBA MERCANTIL BRAS DE ACO LTDA                                        0000000034100000000000000000000000000000884432540000002398047670009506B01     201210092012091100000000054810001043792000000001043792000000000000000000000000000000050000000000  3020121009   01FS        1                                                                                   3112398047673064899001800069                                                  N                     01321  0000000        000027
12006000195000156MBA MERCANTIL BRAS DE ACO LTDA                                        0000000034100000000000000000000000000000884432550000002398047590009475B02     201210312012090500000000055030000124131000000000124131000000000000000000000000000000050000000000  3020121031   01FS        1                                                                                   3112398047590064899001800079                                                  N                     01321  0000000        000028
12006000195000156MBA MERCANTIL BRAS DE ACO LTDA                                        0000000034100000000000000000000000000000884432560000002398047680009506B02     201211062012091100000000055090000907645000000000907645000000000000000000000000000000050000000000  3020121106   01FS        1                                                                                   3112398047681064899001800039                                                  N                     01321  0000000        000029
12006000195000156MBA MERCANTIL BRAS DE ACO LTDA                                        0000000034100000000000000000000000000000884432570000002398047600009475B03     201211282012090500000000055310000124131000000000124131000000000000000000000000000000050000000000  3020121128   01FS        1                                                                                   3112398047608064899001800069                                                  N                     01321  0000000        000030
12006000195000156MBA MERCANTIL BRAS DE ACO LTDA                                        0000000034100000000000000000000000000000884432580000002398047690009506B03     201212042012091100000000055370000907644000000000907644000000000000000000000000000000050000000000  3020121204   01FS        1                                                                                   3112398047699064899001800019                                                  N                     01321  0000000        000031
12006000195000156MBA MERCANTIL BRAS DE ACO LTDA                                        0000000034100000000000000000000000000000884432590000002398047610009492B01     201210082012091000000000054800000529375000000000529375000000000000000000000000000000050000000000  3020121008   01FS        1                                                                                   3112398047616064899001800049                                                  N                     01321  0000000        000032
12006000195000156MBA MERCANTIL BRAS DE ACO LTDA                                        0000000034100000000000000000000000000000884432600000002398047620009492B02     201211052012091000000000055080000529375000000000529375000000000000000000000000000000050000000000  3020121105   01FS        1                                                                                   3112398047624064899001800019                                                  N                     01321  0000000        000033
12006000195000156MBA MERCANTIL BRAS DE ACO LTDA                                        0000000034100000000000000000000000000000884432610000002398047850009535B03     201212052012091200000000055380000155122000000000155122000000000000000000000000000000050000000000  3020121205   01FS        1                                                                                   3112398047855064899001800079                                                  N                     01321  0000000        000034
12006000195000156MBA MERCANTIL BRAS DE ACO LTDA                                        0000000034100000000000000000000000000000884432620000002398047860009541B01     201210112012091300000000054830000808555000000000808555000000000000000000000000000000050000000000  3020121011   01FS        1                                                                                   3112398047863064899001800019                                                  N                     01321  0000000        000035
12006000195000156MBA MERCANTIL BRAS DE ACO LTDA                                        0000000034100000000000000000000000000000884432630000002398047810009534B02     201211072012091200000000055100000396235000000000396235000000000000000000000000000000050000000000  3020121107   01FS        1                                                                                   3112398047814064899001800089                                                  N                     01321  0000000        000036
12006000195000156MBA MERCANTIL BRAS DE ACO LTDA                                        0000000034100000000000000000000000000000884432640000002398047820009534B03     201212052012091200000000055380000396234000000000396234000000000000000000000000000000050000000000  3020121205   01FS        1                                                                                   3112398047822064899001800099                                                  N                     01321  0000000        000037
12006000195000156MBA MERCANTIL BRAS DE ACO LTDA                                        0000000034100000000000000000000000000000884432650000002398047870009541B02     201211082012091300000000055110000703091000000000703091000000000000000000000000000000050000000000  3020121108   01FS        1                                                                                   3112398047871064899001800019                                                  N                     01321  0000000        000038
12006000195000156MBA MERCANTIL BRAS DE ACO LTDA                                        0000000034100000000000000000000000000000884432660000002398047830009535B01     201210102012091200000000054820000178390000000000178390000000000000000000000000000000050000000000  3020121010   01FS        1                                                                                   3112398047830064899001800019                                                  N                     01321  0000000        000039
12006000195000156MBA MERCANTIL BRAS DE ACO LTDA                                        0000000034100000000000000000000000000000884432670000002398047880009541B03     201212062012091300000000055390000703090000000000703090000000000000000000000000000000050000000000  3020121206   01FS        1                                                                                   3112398047889064899001800099                                                  N                     01321  0000000        000040
12006000195000156MBA MERCANTIL BRAS DE ACO LTDA                                        0000000034100000000000000000000000000000884432680000002398047840009535B02     201211072012091200000000055100000155122000000000155122000000000000000000000000000000050000000000  3020121107   01FS        1                                                                                   3112398047848064899001800029                                                  N                     01321  0000000        000041
12006000195000156MBA MERCANTIL BRAS DE ACO LTDA                                        0000000034100000000000000000000000000000884432690000002398047890009542B01     201210112012091300000000054830000129873000000000129873000000000000000000000000000000050000000000  3020121011   01FS        1                                                                                   3112398047897064899001800019                                                  N                     01321  0000000        000042
12006000195000156MBA MERCANTIL BRAS DE ACO LTDA                                        0000000034100000000000000000000000000000884432700000002398047900009542B02     201211082012091300000000055110000112933000000000112933000000000000000000000000000000050000000000  3020121108   01FS        1                                                                                   3112398047905064899001800079                                                  N                     01321  0000000        000043
12006000195000156M B A MERCANTIL BRASILEIRA DE                                         0000000023700118P00000002128292 00000000870177530090218400000050008760B02     201208242012062900000000054350000862785000000000862785000000000000000000000000000000050000000000  3020120829   05          3  RUA JUNO  533                                                                    3                         000000000000000                                     N                     00598  0000000        000044
12006000195000156M B A MERCANTIL BRASILEIRA DE                                         0000000023700118P00000002128292 00000000870177540090218400000110008753B02     201208242012062900000000054350000273651000000000273651000000000000000000000000000000050000000000  3020120829   05          3  RUA JUNO  533                                                                    3                         000000000000000                                     N                     00598  0000000        000045
12006000195000156MBA MERCANTIL BRAS DE ACO LTDA                                        0000000034100000000000000000000000000000884432710000002398047910009542B03     201212062012091300000000055390000112934000000000112934000000000000000000000000000000050000000000  3020121206   01FS        1                                                                                   3112398047913064899001800029                                                  N                     01321  0000000        000046
12006000195000156MBA MERCANTIL BRAS DE ACO LTDA                                        0000000034100000000000000000000000000000884432720000002398047530009460B02     201210312012090500000000055030000130438000000000130438000000000000000000000000000000050000000000  3020121031   01FS        1                                                                                   3112398047533064899001800049                                                  N                     01321  0000000        000047
12006000195000156MBA MERCANTIL BRAS DE ACO LTDA                                        0000000034100000000000000000000000000000884432730000002398047520009460B01     201210032012090500000000054750000130438000000000130438000000000000000000000000000000050000000000  3020121003   01FS        1                                                                                   3112398047525064899001800089                                                  N                     01321  0000000        000048
12006000195000156M B A MERCANTIL BRASILEIRA DE                                         0000000023700118P00000002128292 00000000884432740090219900000640008865B02     201209102012071600000000054520000695457000000000695457000000000000000000000000000000050000000000  3020120919   01FS        1  RUA JUNO  533                                                                    3                         000000000000000                                     N                     00598  0000000        000049
12006000195000156M B A MERCANTIL BRASILEIRA DE                                         0000000023700118P00000002128292 00000000884432750090219900000760008864B02     201209102012071600000000054520000169188000000000169188000000000000000000000000000000050000000000  3020120919   01FS        1  RUA JUNO  533                                                                    3                         000000000000000                                     N                     00598  0000000        000050
12006000195000156M B A MERCANTIL BRASILEIRA DE                                         0000000023700118P00000002130599 00000000865388310020222900000520009206B01     201209152012081500000000054570000606694000000000610738000000000000000000000000004044050000000000  3020120919   01          2  RUA JUNO  533                                                                    3                         000000000000000                                     N                     00598  0000000        000051
12006000195000156M B A MERCANTIL BRASILEIRA DE                                         0000000023700118P00000002130599 00000000853155020020220900000520008971B02     201209182012072400000000054600000170466000000000170750000000000000000000000000000284050000000000  3020120919   01          2  RUA JUNO  533                                                                    3                         000000000000000                                     N                     00598  0000000        000052
12006000195000156M B A MERCANTIL BRASILEIRA DE                                         0000000000100000000000000000000000000000834820330000002571630000008656B03     201209162012062600000000054580000641947000000000645157000000000000000000000000003210050000000000  3020120919   01          2                                                                                   3043852571633333000105251129                                                  N                     01321  0000000        000053
12006000195000156MBA MERCANTIL BRAS DE ACO LTDA                                        0000000034100000000000000000000000000000884432490000002398047570009473B03     201211282012090500000000055310000503132000000000503132000000000000000000000000000000050000000000  3020121128   01FS        1                                                                                   3112398047574064899001800059                                                  N                     01321  0000000        000054
12006000195000156MBA MERCANTIL BRAS DE ACO LTDA                                        0000000034100000000000000000000000000000884432500000002398047580009475B01     201210032012090500000000054750000124131000000000124131000000000000000000000000000000050000000000  3020121003   01FS        1                                                                                   3112398047582064899001800019                                                  N                     01321  0000000        000055
12006000195000156MBA MERCANTIL BRAS DE ACO LTDA                                        0000000034100000000000000000000000000000884432470000002398047550009473B01     201210032012090500000000054750000503132000000000503132000000000000000000000000000000050000000000  3020121003   01FS        1                                                                                   3112398047558064899001800019                                                  N                     01321  0000000        000056
12006000195000156M B A MERCANTIL BRASILEIRA DE                                         0000000023700118P00000002130599 00000000865388280020222900000490009205B01     201209142012081500000000054560000401309000000000404654000000000000000000000000003345050000000000  3020120919   01          2  RUA JUNO  533                                                                    3                         000000000000000                                     N                     00598  0000000        000057
12006066698000124NOVO REINO LOGISTICA E TRANSPO                                        000000000010000000000000000000000000000087577330000000989860000161192         201209112012082200000000054530000038546000000000038546000000000000000000000000000000050000000000  3020120911   05          3                                                                                   3043999898601584001800001119                                                  N                     01321  0000000        000058
12006894969000130TERRADIESEL COM DE PCS P CAMIN                                        00000000341000000000000000000000000000008653881500000023020935013969A         201209072012081500000000054490000017800000000000018977000000000000000000000000001284050000000000  3020120918   05          3                                                                                   3112302093508006500924300049                                                  N                     01321  0000000        000059
12007289649000113CRC LASER SUPR INF LTDA EPP                                           000000003410000000000000000000000000000086762212000000792013593000001055      201209182012082100000000054600000029940000000000030598000000000000000000000000000658050000000000  3020120919   01          2                                                                                   3157920135932000265431700089                                                  N                     01321  0000000        000060
12008508119000181DINARI FOMENTO MERCANTIL LTDA                                         0000000023702499600000000178306 0000000086282617002022260000005206 A          201209162012081000000000054580000170000000000000176630000000000000000000000000006630050000000000  3020120919   01          2  RUA JUNO  533 VL N MANCHESTER SAO PAULO PANKRO LOGISTICA E TRANSPORTES LTDA EPP  300000000000000000141500  002269980000158                                     N                     00598  0000000        000061
12009419898000101LUSITANO INDUSTRIA C E P LTDA                                         00000000341000000000000000000000000000008653881900000090000757001 10137 1     201209122012081500000000054540000035136000000000035955000000000000000000000000000819050000000000  3020120919   01          2                                                                                   3109000075708001160072300089                                                  N                     01321  0000000        000062
12009441975000120SPEEDY CRED FOMENTO MERCANTIL                                         0000000023700094900000000990744 00000000869071000020132236074912868 AA        201209182012082300000000054600000064000000000000064384000000000000000000000000000384050000000000  3020120919   01          2  RUA TAMAINDE 1410                       MACKVEN MAQUINAS INDUSTRIAIS LTDA EPP    3                         005441222000163                                     N                     00598  0000000        000063
12011202309000180FIEL TOOLS DISTRIBUIDORA DE MA                                        0000000023702087700000000000116 0000000086455442009000020190021009002 1       201209112012081400000000054530000041000000000000041000000000000000000000000000000000050000000000  3020120911   06          3  R TAMAINDE  1 410   RUA GANGES  520 E 52                                         3                         000000000000000                                     N                     00598  0000000        000064
12011202309000180FIEL TOOLS DISTRIBUIDORA DE MA                                        0000000023702087700000000000116 0000000088443276009000020190021009002 1       201209112012081400000000054530000041000000000000042476000000000000000000000000001476050000000000  3020120919   01FS        1  R TAMAINDE  1 410   RUA GANGES  520 E 52                                         3                         000000000000000                                     N                     00598  0000000        000065
12012006058000121WEG TINTAS LTDA                                                       0000000023702727800000000001309 00000000834820640090217900000760014773903     201209092012062600000000054510000306662000000000310742000000000000000000000000004080050000000000  3020120919   01          2  R JUNO  533                                                                      3                         000000000000000                                     N                     00598  0000000        000066
12012006058000121WEG TINTAS LTDA                                                       0000000023702727800000000001309 00000000841061130090218800000850014990203     201209182012070500000000054600000306662000000000307070000000000000000000000000000408050000000000  3020120919   01          2  R JUNO  533                                                                      3                         000000000000000                                     N                     00598  0000000        000067
12012006058000121WEG TINTAS LTDA                                                       0000000023702727800000000001309 00000000842436830090219200000850015068802     201209072012070900000000054490000306569000000000311465000000000000000000000000004896050000000000  3020120919   01          2  R JUNO  533                                                                      3                         000000000000000                                     N                     00598  0000000        000068
12012006058000121WEG TINTAS LTDA                                                       0000000023702727800000000001309 00000000854049540090221200001000015513001     201209102012072700000000054520000459854000000000465371000000000000000000000000005517050000000000  3020120919   01          2  R JUNO  533                                                                      3                         000000000000000                                     N                     00598  0000000        000069
12012006058000121WEG TINTAS LTDA                                                       0000000023702727800000000001309 00000000856071250090221400000820015587301     201209142012073100000000054560000459854000000000462919000000000000000000000000003065050000000000  3020120919   01          2  R JUNO  533                                                                      3                         000000000000000                                     N                     00598  0000000        000070
12012006058000121WEG TINTAS LTDA                                                       0000000023702727800000000001309 00000000849855330090220500001210015343102     201209182012072000000000054600000306569000000000306977000000000000000000000000000408050000000000  3020120919   01          2  R JUNO  533                                                                      3                         000000000000000                                     N                     00598  0000000        000071
12012006058000121WEG TINTAS LTDA                                                       0000000023702727800000000001309 00000000844839230090219500000720015168702     201209102012071200000000054520000306569000000000310241000000000000000000000000003672050000000000  3020120919   01          2  R JUNO  533                                                                      3                         000000000000000                                     N                     00598  0000000        000072
12012006058000121WEG TINTAS LTDA                                                       0000000023702727800000000001309 00000000847452150090220000000920015248102     201209152012071700000000054570000306569000000000308201000000000000000000000000001632050000000000  3020120919   01          2  R JUNO  533                                                                      3                         000000000000000                                     N                     00598  0000000        000073
12012113201000184HYPER COMERCIO D N L LTDA                                             0000000034100000000000000000000000000000878205880000009000296850527221        201209132012081600000000054550000034578000000000035268000000000000000000000000000690050000000000  3020120919   01          2                                                                                   3109000296859056888568500049                                                  N                     01321  0000000        000074
12012739954000108VIDA NOVA DESCARTAVEL                                                 0000000023701427300000000015989 00000000874070550090221300000384834           201208282012073100000000054390000063172000000000067172000000000000000000000000004000050000000000  3020120906   06          3  R TAMAINDE 1410                                                                  3                         000000000000000                                     N                     00598  0000000        000075
12013656578000142GUARINOR TRANSP E LOGISTICA LT                                        000000001040000000000000000000000000000087295282000000000880500001166 12      201209112012082200000000054530000120100000000000120100000000000000000000000000000000050000000000  3020120911   05          3                                                                                   3900000088032958700000017339                                                  N                     01321  0000000        000076
12014309992000148WEG DRIVES   CONTROLS   AUTOMA                                        0000000023702727800000000001872 00000000828904050090217000002200005763302     201209152012051800000000054570000272992000000000274444000000000000000000000000001452050000000000  3020120919   01          2  R JUNO  533                                                                      3                         000000000000000                                     N                     00598  0000000        000077
12033325184001786ALSCO TOALHEIRO BRASIL                                                0000000023703396000000001490850 0000000087168277009000002698905VM26989        201209132012082400000000054550000040130000000000040370000000000000000000000000000240050000000000  3020120919   01          2  RUA  GANGES 528                                                                  3                         000000000000000                                     N                     00598  0000000        000078
12035820448000136WHITE MARTINS GASES INDUSTRIAI                                        0000000023700026400000003937925 0000000086812633009022350001453369229 001     201209182012082200000000054600000056805000000000058017000000000000000000000000001212050000000000  3020120919   01          2  RUA GANGES  528                                                                  3                         000000000000000                                     N                     00598  0000000        000079
12035820448000136WHITE MARTINS GASES INDUSTRIAI                                        0000000023700026400000003937925 0000000086538817009022290001168366855 001     201209112012081600000000054530000121725000000000125455000000000000000000000000003730050000000000  3020120919   01          2  RUA GANGES  528                                                                  3                         000000000000000                                     N                     00598  0000000        000080
12035820448000136WHITE MARTINS GASES INDUSTRIAI                                        0000000023700026400000003937925 0000000085861656009022190000404361579 001     201208312012080400000000054420000162300000000000169650000000000000000000000000007350050000000000  3020120919   01          2  RUA GANGES  528                                                                  3                         000000000000000                                     N                     00598  0000000        000081
12035820448000136WHITE MARTINS GASES INDUSTRIAI                                        0000000023700026400000003937925 0000000086196029009022230001562364184 001     201209062012081000000000054480000113610000000000117845000000000000000000000000004235050000000000  3020120919   01          2  RUA GANGES  528                                                                  3                         000000000000000                                     N                     00598  0000000        000082
12035820448000136WHITE MARTINS GASES INDUSTRIAI                                        0000000023700026400000003937925 0000000086699210009022330000393368126 001     201209142012081800000000054560000162300000000000166626000000000000000000000000004326050000000000  3020120919   01          2  RUA GANGES  528                                                                  3                         000000000000000                                     N                     00598  0000000        000083
12042956441000101SOLUCOES ACO USIMINAS                                                 0000000034100000000000000000000000000000819545020000002078930840016239503     201208222012052900000000054330001126072000000001186876000000000000000000000000063056050000000000  3020120918   06          3                                                                                   3112078930842293807258000019                                                  N                     01321  0000000        000084
12042956441000101SOLUCOES ACO USIMINAS                                                 0000000034100000000000000000000000000000853154910000002246247000017196701     201208232012072500000000054340000234911000000000247131000000000000000000000000012690050000000000  3020120918   06          3                                                                                   3112246247004293807258000019                                                  N                     01321  0000000        000085
12042956441000101SOLUCOES ACO USIMINAS                                                 0000000034100000000000000000000000000000855028660000002254329280017200301     201208232012072600000000054340000156943000000000165107000000000000000000000000008478050000000000  3020120918   06          3                                                                                   3112254329280293807258000019                                                  N                     01321  0000000        000086
12042956441000101SOLUCOES ACO USIMINAS                                                 0000000034100000000000000000000000000000840313020000002181699190016814402     201208272012070200000000054380000968423000000001011037000000000000000000000000044551050000000000  3020120918   06          3                                                                                   3112181699193293807258000019                                                  N                     01321  0000000        000087
12042956441000101SOLUCOES ACO USIMINAS                                                 0000000034100000000000000000000000000000840313030000002181699200016827102     201208272012070200000000054380000703010000000000733942000000000000000000000000032338050000000000  3020120918   06          3                                                                                   3112181699201293807258000019                                                  N                     01321  0000000        000088
12042956441000101SOLUCOES ACO USIMINAS                                                 0000000034100000000000000000000000000000840313060000002181699210016829702     201208272012070200000000054380000643712000000000672026000000000000000000000000029601050000000000  3020120918   06          3                                                                                   3112181699219293807258000089                                                  N                     01321  0000000        000089
12042956441000101SOLUCOES ACO USIMINAS                                                 0000000034100000000000000000000000000000840313070000002181699220016829802     201208272012070200000000054380000322528000000000336718000000000000000000000000014835050000000000  3020120918   06          3                                                                                   3112181699227293807258000029                                                  N                     01321  0000000        000090
12042956441000101SOLUCOES ACO USIMINAS                                                 0000000034100000000000000000000000000000846595700000002210880280016980502     201209102012071200000000054520000156071000000000158879000000000000000000000000002808050000000000  3020120919   01          2                                                                                   3112210880285293807258000039                                                  N                     01321  0000000        000091
12042956441000101SOLUCOES ACO USIMINAS                                                 0000000034100000000000000000000000000000846595710000002210880290016980602     201209102012071200000000054520000426094000000000433762000000000000000000000000007668050000000000  3020120919   01          2                                                                                   3112210880293293807258000019                                                  N                     01321  0000000        000092
12042956441000101SOLUCOES ACO USIMINAS                                                 0000000034100000000000000000000000000000847452070000002216130350005922202     201209102012071600000000054520000172071000000000175167000000000000000000000000003096050000000000  3020120919   01          2                                                                                   3112216130354293807258000049                                                  N                     01321  0000000        000093
12042956441000101SOLUCOES ACO USIMINAS                                                 0000000034100000000000000000000000000000847452100000002216130340017012402     201209102012071500000000054520000147428000000000150083000000000000000000000000002655050000000000  3020120919   01          2                                                                                   3112216130347293807258000059                                                  N                     01321  0000000        000094
12042956441000101SOLUCOES EM ACO USIMINAS S A                                          000000000010000000000000000000000000000083482042000000086551000000166814003   201209172012062600000000054590000317656000000000318926000000000000000000000000001270050000000000  3020120919   01          2                                                                                   3000000169660100000865511779                                                  N                     01321  0000000        000095
12042956441000101SOLUCOES EM ACO USIMINAS S A                                          000000000010000000000000000000000000000083482044000000086545000000166812003   201209172012062600000000054590000608955000000000611391000000000000000000000000002436050000000000  3020120919   01          2                                                                                   3000000169660100000865451759                                                  N                     01321  0000000        000096
12042956441000101SOLUCOES EM ACO USIMINAS S A                                          000000000010000000000000000000000000000083482047000000086548000000166813003   201209172012062600000000054590000391569000000000393135000000000000000000000000001566050000000000  3020120919   01          2                                                                                   3000000169660100000865481719                                                  N                     01321  0000000        000097
12042956441000101SOLUCOES EM ACO USIMINAS S A                                          000000000010000000000000000000000000000083482050000000086554000000166815003   201209172012062600000000054590000649087000000000651683000000000000000000000000002596050000000000  3020120919   01          2                                                                                   3000000169660100000865541789                                                  N                     01321  0000000        000098
12042956441000101SOLUCOES EM ACO USIMINAS S A                                          000000000010000000000000000000000000000083482059000000086566000000166829003   201209172012062600000000054590000125200000000000125700000000000000000000000000000500050000000000  3020120919   01          2                                                                                   3000000169660100000865661769                                                  N                     01321  0000000        000099
12042956441000101SOLUCOES EM ACO USIMINAS S A                                          000000000010000000000000000000000000000083562085000000087494000000167113003   201209182012062700000000054600000698474000000000699871000000000000000000000000001397050000000000  3020120919   01          2                                                                                   3000000169660100000874941719                                                  N                     01321  0000000        000100
12042956441000101SOLUCOES EM ACO USIMINAS S A                                          000000000010000000000000000000000000000083562088000000087497000000167114003   201209182012062700000000054600000703009000000000704415000000000000000000000000001406050000000000  3020120919   01          2                                                                                   3000000169660100000874971789                                                  N                     01321  0000000        000101
12042956441000101SOLUCOES EM ACO USIMINAS S A                                          000000000010000000000000000000000000000083562091000000087500000000167115003   201209182012062700000000054600000240663000000000241144000000000000000000000000000481050000000000  3020120919   01          2                                                                                   3000000169660100000875001739                                                  N                     01321  0000000        000102
12042956441000101SOLUCOES ACO USIMINAS                                                 0000000034100000000000000000000000000000841725460000002188168540016859402     201208292012070400000000054400000164456000000000171365000000000000000000000000006909050000000000  3020120919   01          2                                                                                   3112188168549293807258000059                                                  N                     01321  0000000        000103
12042956441000101SOLUCOES ACO USIMINAS                                                 0000000034100000000000000000000000000000848180710000002220192910017041202     201209112012071700000000054530000205421000000000208709000000000000000000000000003288050000000000  3020120919   01          2                                                                                   3112220192911293807258000019                                                  N                     01321  0000000        000104
12042956441000101SOLUCOES ACO USIMINAS                                                 0000000034100000000000000000000000000000850740460000002233586800017127201     201208202012072000000000054310000137881000000000146161000000000000000000000000008280050000000000  3020120919   01          2                                                                                   3112233586802293807258000019                                                  N                     01321  0000000        000105
12042956441000101SOLUCOES ACO USIMINAS                                                 0000000034100000000000000000000000000000850740470000002233586810017101002     201209142012071900000000054560000732575000000000739900000000000000000000000000007325050000000000  3020120919   01          2                                                                                   3112233586810293807258000019                                                  N                     01321  0000000        000106
12042956441000101SOLUCOES ACO USIMINAS                                                 0000000034100000000000000000000000000000850740480000002233586820017101202     201209142012071900000000054560000144634000000000146079000000000000000000000000001445050000000000  3020120919   01          2                                                                                   3112233586828293807258000029                                                  N                     01321  0000000        000107
12042956441000101SOLUCOES ACO USIMINAS                                                 0000000034100000000000000000000000000000850740490000002233586830017126902     201209172012072000000000054590000208392000000000209226000000000000000000000000000834050000000000  3020120919   01          2                                                                                   3112233586836293807258000089                                                  N                     01321  0000000        000108
12042956441000101SOLUCOES ACO USIMINAS                                                 0000000034100000000000000000000000000000850740500000002233586840017127002     201209172012072000000000054590000190428000000000191190000000000000000000000000000762050000000000  3020120919   01          2                                                                                   3112233586844293807258000019                                                  N                     01321  0000000        000109
12042956441000101SOLUCOES ACO USIMINAS                                                 0000000034100000000000000000000000000000850740510000002233586850017127102     201209172012072000000000054590000167727000000000168397000000000000000000000000000670050000000000  3020120919   01          2                                                                                   3112233586851293807258000039                                                  N                     01321  0000000        000110
12042956441000101SOLUCOES ACO USIMINAS                                                 0000000034100000000000000000000000000000824061850000002100925420016380503     201208292012060500000000054400000215523000000000224574000000000000000000000000009051050000000000  3020120919   01          2                                                                                   3112100925422293807258000039                                                  N                     01321  0000000        000111
12042956441000101SOLUCOES ACO USIMINAS                                                 0000000034100000000000000000000000000000824061860000002100925430016380703     201208292012060500000000054400000216699000000000225792000000000000000000000000009093050000000000  3020120919   01          2                                                                                   3112100925430293807258000079                                                  N                     01321  0000000        000112
12042956441000101SOLUCOES ACO USIMINAS                                                 0000000034100000000000000000000000000000841725470000002188168550016859502     201208292012070400000000054400000234337000000000244186000000000000000000000000009849050000000000  3020120919   01          2                                                                                   3112188168556293807258000089                                                  N                     01321  0000000        000113
12042956441000101SOLUCOES ACO USIMINAS                                                 0000000034100000000000000000000000000000856906410000002262886280017266201     201208282012073000000000054390000119472000000000124730000000000000000000000000005258050000000000  3020120919   01          2                                                                                   3112262886289293807258000089                                                  N                     01321  0000000        000114
12042956441000101SOLUCOES ACO USIMINAS                                                 0000000034100000000000000000000000000000841725480000002188168560016884802     201208302012070500000000054410000120612000000000125432000000000000000000000000004820050000000000  3020120919   01          2                                                                                   3112188168564293807258000019                                                  N                     01321  0000000        000115
12042956441000101SOLUCOES ACO USIMINAS                                                 0000000034100000000000000000000000000000841725490000002188168570016884902     201208302012070500000000054410000531835000000000553115000000000000000000000000021280050000000000  3020120919   01          2                                                                                   3112188168572293807258000019                                                  N                     01321  0000000        000116
12042956441000101SOLUCOES ACO USIMINAS                                                 0000000034100000000000000000000000000000841725500000002188168580016885102     201208302012070500000000054410000219722000000000228502000000000000000000000000008780050000000000  3020120919   01          2                                                                                   3112188168580293807258000049                                                  N                     01321  0000000        000117
12042956441000101SOLUCOES ACO USIMINAS                                                 0000000034100000000000000000000000000000856906420000002262886290017266301     201208282012073000000000054390000145069000000000151449000000000000000000000000006380050000000000  3020120919   01          2                                                                                   3112262886297293807258000099                                                  N                     01321  0000000        000118
12042956441000101SOLUCOES ACO USIMINAS                                                 0000000034100000000000000000000000000000858616290000002271409670017315101     201208302012080200000000054410000579548000000000602728000000000000000000000000023180050000000000  3020120919   01          2                                                                                   3112271409677293807258000099                                                  N                     01321  0000000        000119
12042956441000101SOLUCOES ACO USIMINAS                                                 0000000034100000000000000000000000000000858616320000002271409680017316001     201208302012080200000000054410000929730000000000966910000000000000000000000000037180050000000000  3020120919   01          2                                                                                   3112271409685293807258000039                                                  N                     01321  0000000        000120
12042956441000101SOLUCOES ACO USIMINAS                                                 0000000034100000000000000000000000000000858616330000002271409690017319301     201208302012080200000000054410000981820000000001021100000000000000000000000000039280050000000000  3020120919   01          2                                                                                   3112271409693293807258000039                                                  N                     01321  0000000        000121
12042956441000101SOLUCOES ACO USIMINAS                                                 0000000034100000000000000000000000000000858616340000002271409700017319401     201208302012080200000000054410000178956000000000186116000000000000000000000000007160050000000000  3020120919   01          2                                                                                   3112271409701293807258000089                                                  N                     01321  0000000        000122
12042956441000101SOLUCOES ACO USIMINAS                                                 0000000034100000000000000000000000000000858616350000002271409710017319501     201208302012080200000000054410000197439000000000205339000000000000000000000000007900050000000000  3020120919   01          2                                                                                   3112271409719293807258000049                                                  N                     01321  0000000        000123
12042956441000101SOLUCOES ACO USIMINAS                                                 0000000034100000000000000000000000000000858616360000002271409720017319601     201208302012080200000000054410000197103000000000204983000000000000000000000000007880050000000000  3020120919   01          2                                                                                   3112271409727293807258000019                                                  N                     01321  0000000        000124
12042956441000101SOLUCOES ACO USIMINAS                                                 0000000034100000000000000000000000000000858616370000002271409730017319701     201208302012080200000000054410000197271000000000205171000000000000000000000000007900050000000000  3020120919   01          2                                                                                   3112271409735293807258000019                                                  N                     01321  0000000        000125
12042956441000101SOLUCOES ACO USIMINAS                                                 0000000034100000000000000000000000000000858616380000002271409740017319801     201208302012080200000000054410000194583000000000202363000000000000000000000000007780050000000000  3020120919   01          2                                                                                   3112271409743293807258000019                                                  N                     01321  0000000        000126
12042956441000101SOLUCOES ACO USIMINAS                                                 0000000034100000000000000000000000000000825740790000002106974460016399003     201208292012060600000000054400000203068000000000211594000000000000000000000000008526050000000000  3020120919   01          2                                                                                   3112106974465293807258000089                                                  N                     01321  0000000        000127
12042956441000101SOLUCOES EM ACO USIMINAS S A                                          000000000010000000000000000000000000000083138709000000082600000000057848003   201209122012062000000000054540000190073000000000192733000000000000000000000000002660050000000000  3020120919   01          2                                                                                   3000000169660100000826001769                                                  N                     01321  0000000        000128
12042956441000101SOLUCOES EM ACO USIMINAS S A                                          000000000010000000000000000000000000000083218056000000083600000000057906003   201209132012062100000000054550000698618000000000707000000000000000000000000000008382050000000000  3020120919   01          2                                                                                   3000000169660100000836001769                                                  N                     01321  0000000        000129
12042956441000101SOLUCOES EM ACO USIMINAS S A                                          000000000010000000000000000000000000000083306906000000084914000000166430003   201209132012062200000000054550000193852000000000196180000000000000000000000000002328050000000000  3020120919   01          2                                                                                   3000000169660100000849141719                                                  N                     01321  0000000        000130
12042956441000101SOLUCOES EM ACO USIMINAS S A                                          000000000010000000000000000000000000000083306908000000084917000000166431003   201209132012062200000000054550000484521000000000490335000000000000000000000000005814050000000000  3020120919   01          2                                                                                   3000000169660100000849171769                                                  N                     01321  0000000        000131
12042956441000101SOLUCOES EM ACO USIMINAS S A                                          000000000010000000000000000000000000000083306910000000084495000000057981003   201209142012062200000000054560000329929000000000333229000000000000000000000000003300050000000000  3020120919   01          2                                                                                   3000000169660100000844951789                                                  N                     01321  0000000        000132
12042956441000101SOLUCOES EM ACO USIMINAS S A                                          000000000010000000000000000000000000000083482053000000086560000000166827003   201209172012062600000000054590000577023000000000579331000000000000000000000000002308050000000000  3020120919   01          2                                                                                   3000000169660100000865601719                                                  N                     01321  0000000        000133
12042956441000101SOLUCOES EM ACO USIMINAS S A                                          000000000010000000000000000000000000000083482056000000086563000000166828003   201209172012062600000000054590000325384000000000326686000000000000000000000000001302050000000000  3020120919   01          2                                                                                   3000000169660100000865631789                                                  N                     01321  0000000        000134
12042956441000101SOLUCOES ACO USIMINAS                                                 0000000034100000000000000000000000000000825740800000002106974470016399203     201208292012060600000000054400000450363000000000469284000000000000000000000000018921050000000000  3020120919   01          2                                                                                   3112106974473293807258000039                                                  N                     01321  0000000        000135
12042956441000101SOLUCOES ACO USIMINAS                                                 0000000034100000000000000000000000000000825740810000002106974480016399403     201208292012060600000000054400000431213000000000449315000000000000000000000000018102050000000000  3020120919   01          2                                                                                   3112106974481293807258000099                                                  N                     01321  0000000        000136
12042956441000101SOLUCOES ACO USIMINAS                                                 0000000034100000000000000000000000000000841725510000002188168590016891202     201208302012070500000000054410001132543000000001177843000000000000000000000000045300050000000000  3020120919   01          2                                                                                   3112188168598293807258000019                                                  N                     01321  0000000        000137
12042956441000101SOLUCOES ACO USIMINAS                                                 0000000034100000000000000000000000000000841725520000002188168600016891402     201208302012070500000000054410000795232000000000827032000000000000000000000000031800050000000000  3020120919   01          2                                                                                   3112188168606293807258000019                                                  N                     01321  0000000        000138
12042956441000101SOLUCOES ACO USIMINAS                                                 0000000034100000000000000000000000000000841725530000002188168610016891502     201208302012070500000000054410001128343000000001173483000000000000000000000000045140050000000000  3020120919   01          2                                                                                   3112188168614293807258000089                                                  N                     01321  0000000        000139
12042956441000101SOLUCOES EM ACO USIMINAS S A                                          000000000010000000000000000000000000000082978008000000080344000000057592003   201209102012061800000000054520001055670000000001074669000000000000000000000000018999050000000000  3020120919   01          2                                                                                   3000000169660100000803441719                                                  N                     01321  0000000        000140
12042956441000101SOLUCOES EM ACO USIMINAS S A                                          000000000010000000000000000000000000000082978011000000080476000000057680003   201209102012061800000000054520000431770000000000439546000000000000000000000000007776050000000000  3020120919   01          2                                                                                   3000000169660100000804761729                                                  N                     01321  0000000        000141
12042956441000101SOLUCOES ACO USIMINAS                                                 0000000034100000000000000000000000000000848180700000002220192900017041002     201209112012071700000000054530000155433000000000157921000000000000000000000000002488050000000000  3020120919   01          2                                                                                   3112220192903293807258000029                                                  N                     01321  0000000        000142
12042956441000101SOLUCOES EM ACO USIMINAS S A                                          000000000010000000000000000000000000000082978017000000081232000000165560003   201209102012061800000000054520000341008000000000347146000000000000000000000000006138050000000000  3020120919   01          2                                                                                   3000000169660100000812321769                                                  N                     01321  0000000        000143
12042956441000101SOLUCOES EM ACO USIMINAS S A                                          000000000010000000000000000000000000000083138704000000083117000000165994003   201209112012062000000000054530000233496000000000237232000000000000000000000000003736050000000000  3020120919   01          2                                                                                   3000000169660100000831171729                                                  N                     01321  0000000        000144
12043217850000159IOB INFORMACOES OBJ  PUBL JURI                                        0000000023702374400000002958600 000000008540495200902212000099001440820E4     201208202012073000000000054310000072850000000000075027000000000000000000000000002177050000000000  3020120919   01          2  GANGES 528 VL NOVA MANCHESTER                                                    3                         000000000000000                                     N                     00598  0000000        000145
12044098788000196MAIAMI COM E IMP DE ROLAMENTOS                                        0000000023700503700000000367516 0000000086699211009022330000001010061         201209072012081700000000054490000015000000000000015550000000000000000000000000000600050000000000  3020120918   06          3  RUA GANGES 528 VL CARRAO                                                         3                         000000000000000                                     N                     00598  0000000        000146
12047190731000100DE CASTRO LOUR ENG IND LTDA                                           00000000341000000000000000000000000000008782050900000023399953503026612 0     201209182012082100000000054600001111489000000001113675000000000000000000000000002186050000000000  3020120919   01          2                                                                                   3112339995352036884500400019                                                  N                     01321  0000000        000147
12047190731000100DE CASTRO LOUR ENG IND LTDA                                           00000000341000000000000000000000000000008782051200000023399953803026613 0     201209182012082100000000054600001107989000000001110168000000000000000000000000002179050000000000  3020120919   01          2                                                                                   3112339995386036884500400039                                                  N                     01321  0000000        000148
12047190731000100DE CASTRO LOUR ENG IND LTDA                                           00000000341000000000000000000000000000008782051600000023399954103026614 0     201209182012082100000000054600001047621000000001049681000000000000000000000000002060050000000000  3020120919   01          2                                                                                   3112339995410036884500400039                                                  N                     01321  0000000        000149
12048775225000146SEIKI IND COM E CONFECCOES LTD                                        000000003410000000000000000000000000000086615423000000230404780013963001      201209122012081500000000054540000052000000000000052546000000000000000000000000000546050000000000  3020120919   01          2                                                                                   3112304047809017444824100079                                                  N                     01321  0000000        000150
12051180370000199IGUAFER FERRO E ACO LTDA                                              0000000034100000000000000000000000000000852309100000002239389789443 B         201209022012071800000000054440000168275000000000173035000000000000000000000000004760050000000000  3020120919   01          2                                                                                   3112239389789077149484600089                                                  N                     01321  0000000        000151
12051180370000199IGUAFER FERRO E ACO LTDA                                              0000000034100000000000000000000000000000852309110000002239389799443 C         201209122012071800000000054540000168275000000000170235000000000000000000000000001960050000000000  3020120919   01          2                                                                                   3112239389797077149484600089                                                  N                     01321  0000000        000152
12052559499000175BOMAX NO BRASIL EQUIP INDS LT                                         0000000034100000000000000000000000000000852309140000002238631910000015611     201209172012071900000000054590000179150000000000179854000000000000000000000000000704050000000000  3020120919   01          2                                                                                   3112238631918324705000200079                                                  N                     01321  0000000        000153
12053585766000141MULTIACOS INDUSTRIA E COMERCIO                                        0000000000100000000000000000000000000000878205480000006553380000004360703     201209182012082800000000054600001201246000000001203248000000000000000000000000002002050000000000  3020120919   01          2                                                                                   3044016553381912000139523159                                                  N                     01321  0000000        000154
12053585766000141MULTIACOS INDUSTRIA E COMERCIO                                        0000000000100000000000000000000000000000878205500000006553760000004423602     201209182012082800000000054600000606735000000000607746000000000000000000000000001011050000000000  3020120919   01          2                                                                                   3044016553761912000139523129                                                  N                     01321  0000000        000155
12053585766000141MULTIACOS INDUSTRIA E COMERCIO                                        0000000000100000000000000000000000000000878205510000006553770000004423702     201209182012082800000000054600000535467000000000536359000000000000000000000000000892050000000000  3020120919   01          2                                                                                   3044016553771912000139523169                                                  N                     01321  0000000        000156
12053585766000141MULTIACOS INDUSTRIA E COMERCIO                                        0000000000100000000000000000000000000000878205580000006554650000004500801     201209182012082800000000054600000178642000000000178940000000000000000000000000000298050000000000  3020120919   01          2                                                                                   3044016554651912000139523169                                                  N                     01321  0000000        000157
12053585766000141MULTIACOS INDUSTRIA E COMERCIO                                        0000000000100000000000000000000000000000878205530000006553800000004429702     201209172012082800000000054590000624532000000000626614000000000000000000000000002082050000000000  3020120919   01          2                                                                                   3044016553801912000139523189                                                  N                     01321  0000000        000158
12053585766000141MULTIACOS INDUSTRIA E COMERCIO                                        0000000000100000000000000000000000000000878205570000006554440000004493801     201209172012082800000000054590000853202000000000856046000000000000000000000000002844050000000000  3020120919   01          2                                                                                   3044016554441912000139523169                                                  N                     01321  0000000        000159
12053585766000141MULTIACOS INDUSTRIA E COMERCIO                                        0000000000100000000000000000000000000000878205600000006554670000004501001     201209182012082800000000054600000930228000000000931778000000000000000000000000001550050000000000  3020120919   01          2                                                                                   3044016554671912000139523119                                                  N                     01321  0000000        000160
12053585766000141MULTIACOS INDUSTRIA E COMERCIO                                        0000000000100000000000000000000000000000878205590000006554660000004500901     201209182012082800000000054600000991746000000000993399000000000000000000000000001653050000000000  3020120919   01          2                                                                                   3044016554661912000139523119                                                  N                     01321  0000000        000161
12053585766000141MULTIACOS I C PRODS TEC LTDA                                          0000000042200000000000000000000000000000875773270000000000000000004421902     201209172012082100000000054590000942203000000000945342000000000000000000000000003139050000000000  3020120919   01          2                                                                                   3711500005033164914700545149                                                  N                     01321  0000000        000162
12053585766000141MULTIACOS I C PRODS TEC LTDA                                          0000000042200000000000000000000000000000875773280000000000000000004493701     201209172012082100000000054590000185498000000000186115000000000000000000000000000617050000000000  3020120919   01          2                                                                                   3711500005033164914700537139                                                  N                     01321  0000000        000163
12053585766000141MULTIACOS INDUSTRIA E COMERCIO                                        0000000000100000000000000000000000000000864554190000008069470000004360702     201209042012081400000000054460001201246000000001205250000000000000000000000000006006050000000000  3020120906   05          3                                                                                   3043978069471912000139523119                                                  N                     01321  0000000        000164
12053585766000141MULTIACOS COM DE PRODUTOS TECN                                        0000000023703398700000000011290 00000000867622130020223400000290004411802     201209142012072000000000054560000585031000000000589906000000000000000000000000004875050000000000  3020120919   01          2  RUA JUNO  533                                                                    3                         000000000000000                                     N                     00598  0000000        000165
12054382510000108SETENTA IND E COM DE MADEIRAS                                         0000000034100000000000000000000000000000860403430000002277814474462 A         201209042012080700000000054460000191200000000000196840000000000000000000000000005640050000000000  3020120919   01          2                                                                                   3112277814474057049175300069                                                  N                     01321  0000000        000166
12056667629000144COMERCIAL BERENELI LTDA                                               000000000330000000000000000000000000000086812637000000620000000NF  11160      201209122012081500000000054540000052520000000000053150000000000000000000000000000756050000000000  3020120917   06          3                                                                                   3946371510000000030562010469                                                  N                     01321  0000000        000167
12056993512000150CYKLOP DO BRASIL EMBALAGENS SA                                        0000000034100000000000000000000000000000878205080000002299329080132528        201209112012081400000000054530000083607000000000086063000000000000000000000000002456050000000000  3020120919   01          2                                                                                   3112299329089025786126000099                                                  N                     01321  0000000        000168
12056993900000131CIA METALURGICA PRADA                                                 0000000034100000000000000000000000000000824820100000002102181160024711603     201208292012060600000000054400000833146000000000862315000000000000000000000000029169050000000000  3020120919   01          2                                                                                   3112102181164293800573900039                                                  N                     01321  0000000        000169
12056993900000131CIA METALURGICA PRADA                                                 0000000034100000000000000000000000000000855028550000002254750250026244301     201208272012072800000000054380000100986000000000104850000000000000000000000000003864050000000000  3020120919   01          2                                                                                   3112254750253293800573900099                                                  N                     01321  0000000        000170
12056993900000131CIA METALURGICA PRADA                                                 0000000034100000000000000000000000000000823343310000002094231740024634203     201208272012060400000000054380000247806000000000257305000000000000000000000000009499050000000000  3020120919   01          2                                                                                   3112094231746293800573900019                                                  N                     01321  0000000        000171
12056993900000131CIA METALURGICA PRADA                                                 0000000034100000000000000000000000000000855028560000002254750260026244401     201208272012072800000000054380000084368000000000087611000000000000000000000000003243050000000000  3020120919   01          2                                                                                   3112254750261293800573900089                                                  N                     01321  0000000        000172
12056993900000131CIA METALURGICA PRADA                                                 0000000034100000000000000000000000000000823343330000002094231750024634603     201208272012060400000000054380000124715000000000129499000000000000000000000000004784050000000000  3020120919   01          2                                                                                   3112094231753293800573900039                                                  N                     01321  0000000        000173
12056993900000131CIA METALURGICA PRADA                                                 0000000034100000000000000000000000000000823343340000002094231760024634703     201208272012060400000000054380000508859000000000528363000000000000000000000000019504050000000000  3020120919   01          2                                                                                   3112094231761293800573900019                                                  N                     01321  0000000        000174
12056993900000131CIA METALURGICA PRADA                                                 0000000034100000000000000000000000000000823343300000002094231730024634103     201208272012060400000000054380000135902000000000141123000000000000000000000000005221050000000000  3020120919   01          2                                                                                   3112094231738293800573900079                                                  N                     01321  0000000        000175
12056993900000131CIA METALURGICA PRADA                                                 0000000034100000000000000000000000000000844839000000002201181880025629402     201209052012071100000000054470000249372000000000255196000000000000000000000000005824050000000000  3020120919   01          2                                                                                   3112201181883293800573900019                                                  N                     01321  0000000        000176
12056993900000131CIA METALURGICA PRADA                                                 0000000034100000000000000000000000000000844839010000002201181890025635302     201209052012071100000000054470000406842000000000416334000000000000000000000000009492050000000000  3020120919   01          2                                                                                   3112201181891293800573900019                                                  N                     01321  0000000        000177
12056993900000131CIA METALURGICA PRADA                                                 0000000034100000000000000000000000000000844839020000002201181900025635402     201209052012071100000000054470000208689000000000213561000000000000000000000000004872050000000000  3020120919   01          2                                                                                   3112201181909293800573900069                                                  N                     01321  0000000        000178
12056993900000131CIA METALURGICA PRADA                                                 0000000034100000000000000000000000000000844839030000002201181910025635502     201209052012071100000000054470000164780000000000168630000000000000000000000000003850050000000000  3020120919   01          2                                                                                   3112201181917293800573900029                                                  N                     01321  0000000        000179
12056993900000131CIA METALURGICA PRADA                                                 0000000034100000000000000000000000000000844839040000002201181920025635602     201209052012071100000000054470000339933000000000347871000000000000000000000000007938050000000000  3020120919   01          2                                                                                   3112201181925293800573900069                                                  N                     01321  0000000        000180
12056993900000131CIA METALURGICA PRADA                                                 0000000034100000000000000000000000000000844839050000002201181930025636202     201209052012071100000000054470000746213000000000763629000000000000000000000000017416050000000000  3020120919   01          2                                                                                   3112201181933293800573900019                                                  N                     01321  0000000        000181
12056993900000131CIA METALURGICA PRADA                                                 0000000034100000000000000000000000000000844839060000002201181940025644402     201209052012071100000000054470000779647000000000797833000000000000000000000000018186050000000000  3020120919   01          2                                                                                   3112201181941293800573900019                                                  N                     01321  0000000        000182
12056993900000131CIA METALURGICA PRADA                                                 0000000034100000000000000000000000000000844839140000002201181870025629302     201209052012071100000000054470000257906000000000263926000000000000000000000000006020050000000000  3020120919   01          2                                                                                   3112201181875293800573900069                                                  N                     01321  0000000        000183
12056993900000131CIA METALURGICA PRADA                                                 0000000034100000000000000000000000000000838527910000002171340450025383502     201208272012063000000000054380000575128000000000597185000000000000000000000000022057050000000000  3020120919   01          2                                                                                   3112171340451293800573900039                                                  N                     01321  0000000        000184
12056993900000131CIA METALURGICA PRADA                                                 0000000034100000000000000000000000000000838527920000002171340460025384302     201208272012063000000000054380000454477000000000471888000000000000000000000000017411050000000000  3020120919   01          2                                                                                   3112171340469293800573900019                                                  N                     01321  0000000        000185
12056993900000131CIA METALURGICA PRADA                                                 0000000034100000000000000000000000000000840312930000002179478290025419302     201208282012070300000000054390000402178000000000416918000000000000000000000000014740050000000000  3020120919   01          2                                                                                   3112179478295293800573900089                                                  N                     01321  0000000        000186
12056993900000131CIA METALURGICA PRADA                                                 0000000034100000000000000000000000000000840312940000002179478300025419402     201208282012070300000000054390000322804000000000334640000000000000000000000000011836050000000000  3020120919   01          2                                                                                   3112179478303293800573900079                                                  N                     01321  0000000        000187
12056993900000131CIA METALURGICA PRADA                                                 0000000034100000000000000000000000000000848180620000002218222670025829902     201209112012071700000000054530000498118000000000504758000000000000000000000000006640050000000000  3020120919   01          2                                                                                   3112218222670293800573900029                                                  N                     01321  0000000        000188
12056993900000131CIA METALURGICA PRADA                                                 0000000034100000000000000000000000000000848180630000002218222680025830002     201209112012071700000000054530000247673000000000250977000000000000000000000000003304050000000000  3020120919   01          2                                                                                   3112218222688293800573900059                                                  N                     01321  0000000        000189
12056993900000131CIA METALURGICA PRADA                                                 0000000034100000000000000000000000000000848180640000002218222690025830102     201209112012071700000000054530000207402000000000210170000000000000000000000000002768050000000000  3020120919   01          2                                                                                   3112218222696293800573900039                                                  N                     01321  0000000        000190
12056993900000131CIA METALURGICA PRADA                                                 0000000034100000000000000000000000000000820562300000002080193680024478203     201208222012053000000000054330000113250000000000118353000000000000000000000000005292050000000000  3020120918   06          3                                                                                   3112080193686293800573900049                                                  N                     01321  0000000        000191
12056993900000131CIA METALURGICA PRADA                                                 0000000034100000000000000000000000000000820562310000002080193690024478303     201208222012053000000000054330000288295000000000301255000000000000000000000000013440050000000000  3020120918   06          3                                                                                   3112080193694293800573900029                                                  N                     01321  0000000        000192
12056993900000131CIA METALURGICA PRADA                                                 0000000034100000000000000000000000000000820562320000002080193700024499403     201208222012053000000000054330000597722000000000624614000000000000000000000000027888050000000000  3020120918   06          3                                                                                   3112080193702293800573900019                                                  N                     01321  0000000        000193
12056993900000131CIA METALURGICA PRADA                                                 0000000034100000000000000000000000000000820562330000002080193710024499503     201208222012053000000000054330000236585000000000247223000000000000000000000000011032050000000000  3020120918   06          3                                                                                   3112080193710293800573900019                                                  N                     01321  0000000        000194
12056993900000131CIA METALURGICA PRADA                                                 0000000034100000000000000000000000000000822364950000002089776730024584703     201208242012060100000000054350000835797000000000870622000000000000000000000000036218050000000000  3020120918   06          3                                                                                   3112089776739293800573900019                                                  N                     01321  0000000        000195
12056993900000131CIA METALURGICA PRADA                                                 0000000034100000000000000000000000000000822364960000002089776740024585703     201208242012060100000000054350000393990000000000410415000000000000000000000000017082050000000000  3020120918   06          3                                                                                   3112089776747293800573900059                                                  N                     01321  0000000        000196
12057029431000106ATLAS COPCO BRASIL LTDA                                               0000000034100000000000000000000000000000863731640000002292733057000054146     201209072012081000000000054490000081450000000000082098000000000000000000000000000648050000000000  3020120919   01          2                                                                                   3112292733055293804111400099                                                  N                     01321  0000000        000197
12057029431000106ATLAS COPCO BRASIL LTDA                                               0000000034100000000000000000000000000000861960280000002283943487000054090     201209062012080900000000054480000059490000000000059997000000000000000000000000000507050000000000  3020120919   01          2                                                                                   3112283943481293804111400069                                                  N                     01321  0000000        000198
12057158057000130COMERCIAL ELETRICA PJ LTDA                                            0000000023703394400000000972983 00000000842436850090219200008900000305028     201208012012070400000000054120000079196000000000092083000000000000000000000000012887050000000000  3020120919   01          2  R TAMAINDE 1410                                                                  3                         000000000000000                                     N                     00598  0000000        000199
