0000147602043799295000110ALTAMIRA INDUSTRIA METALURGICA LT       202000000053120121119164914             2                                                                                                  000000000000000                                                                                                                                                                                                                                                                                   000001
12043799295000110ALTAMIRA INDUSTRIA METAL LTDA                                         0000000003303809500000130004071 I000000000010195000000000000000               201211190000000000000000000000000000000000000001200000000000000000000000000000000000050000000001  0820121119   01HG        5001420000000000755279000000000000000                                               3D0000000101                               01                                 S                     01133 10020256        000002
900000300000000001200000                                                                                                                                                                                    000000000000000                                                                                                                                                                                                                                                    00000100000000000000000        000003
