0000147602043799295000110ALTAMIRA IND METALURGICA LTDA           20100506000002012091917233900000        2    230A                                                                                          000000000000000                                                                                                                                                                                                                                                                                   000001
12061217188000119TELAS METALICAS TELMETAL LTDA                                         0000000003300000000000000000000000000000866154300000005100000005518 1 1       201209140000000000000000054560000094659000000000095919000000000000000000000000001260050000000000  3020120919   01MFBUHA    500                                                                                 3915435040000000047651020179010000       005518/01-01                         N                     00000 10020256        000002
12007068566000102NIVEL EMPREGOS LTDA           AV CELSO GARCIA 3830                    0306400023700097300000003053792 I000000000009889000000000000000               201209190000000000000000000000000000000000000000350000000000000000000000000000000000050000002753  0120120919   01HA        000                                                                                 3                                        00SALDO NF.NRO.2753.                 N                     00000 10020256        000003
12004455726000170INTERCLICK INFORMATICA S C LTDR JORGE AUGUSTO 83 SL 84 PENHA          0364500023702451100000000099449 I000000000009890000000000000000               201209190000000000000000000000000000000000000000553000000000000000000000000000000000010000001201  0120120919   01HA        000                                                                                 3                                        00PAG.PARCIAL NF.NRO.1201 - PARC.01. N                     00000 10020256        000004
12061217188000119TELAS METALICAS TELMETAL LTDA RUA ALDEIA DA PRATA  38                 0368008000100000 0000000000000  I000000000009891000000000000000               201209190000000000000000054610000075593000000000075593000000000000000000000000000000010000005532  3120120919   01HA        000                                                                                 3000000115031800000056401759             005532/01-01                         N                     00000 10020256        000005
12061217188000119TELAS METALICAS TELMETAL LTDA RUA ALDEIA DA PRATA  38                 0368008000100000 0000000000000  I000000000009892000000000000000               201209190000000000000000054610000032542000000000032542000000000000000000000000000000010000005531  3120120919   01HA        000                                                                                 3000000115031800000056391719             005531/01-01                         N                     00000 10020256        000006
12005151518000140BELENUS DO BRASIL LTDA        RUA COMENDADOR JOAO LUCAS  300          1328000000100000 0000000000000  I000000000009893000000000000000               201209190000000000000000054610000130825000000000130825000000000000000000000000000000010000297851  3120120919   01HA        000                                                                                 3000000123933843997762383119             000297851/01                         N                     00000 10020256        000007
12017469701000177ARCELORMITTAL BRASIL S A                                              0000000034100000 0000000000000  I000000000009894000000000000000               201209190000000000000000054610000064327000000000064327000000000000000000000000000000010000127881  3120120919   01HA        000                                                                                 3181544675247293802529900089             000127881/02                         N                     00000 10020256        000008
12081560047000101ACEVILLE TRANSPORTES LTDA     RODOVIA BR 101 KM 30                    8923950023702232200000000013536 I000000000009895009022320259757               201209190000000000000000054610000024320000000000024320000000000000000000000000000000010000259757  3120120919   01HA        000                                                                                 3223209223202597570001353069             00259757                             N                     00000 10020256        000009
12069284248000128ISOCOAT TINTAS E VERNIZES LTDARUA  COM GIUSEPPE MARCHIORI  2189       1814700034100000 0000000000000  I000000000009896000000000000000               201209190000000000000000054610000056319000000000056319000000000000000000000000000000010000053390  3120120919   01HA        000                                                                                 3181544678591077430121200059             0053390                              N                     00000 10020256        000010
12013656578000142GUARINOR TRANSP E LOGISTICA LT                                        0000000010400000 0000000000000  I000000000009897000000000000000               201209190000000000000000054610000171300000000000171300000000000000000000000000000000050000001074  3120120919   01HA        000                                                                                 3900000082432958700000017399             0001074/12                           N                     00000 10020256        000011
12061383493000180MARITIMA SEGUROS S A          RUA CEL XAVIER DE TOLEDO  114           0104890203300000 0000000000000  I000000000009898000000000000000               201209190000000000000000054610000101220000000000101220000000000000000000000000000000050000106538  3120120919   01HA        000                                                                                 3001910187309650579000334639             0010653678                           N                     00000 10020256        000012
12007289649000113CRC LASER SUPRIM INFOR LTDA   RUA  ACHILLE STEFANI  00277             0847119134100000 0000000000000  I000000000009899000000000000000               201209190000000000000000054610000030598000000000030598000000000000000000000000000000010000001055  3120120919   01HA        000                                                                                 3181544694801000265431700039             001055                               N                     00000 10020256        000013
900001400000000001685963                                                                                                                                                                                    000000000000000                                                                                                                                                                                                                                                    00001200546050000781703        000014
