0000147602043799295000110ALTAMIRA INDUSTRIA METALURGICA LT       202000000029520121019151545             2                                                                                                  000000000000000                                                                                                                                                                                                                                                                                   000001
12043799295000110ALTAMIRA INDUSTRIA METAL LTDA                                         0000000000103333200000000021717 I000000000010061000000000000000               201210190000000000000000000000000000000000000004000000000000000000000000000000000000050000000002  0820121019   01HF        5001511000000006251815000000000000000                                               3D0000000101                               02                                 S                     01133 10020256        000002
900000300000000004000000                                                                                                                                                                                    000000000000000                                                                                                                                                                                                                                                    00000100000000000000000        000003
