0000147602043799295000110ALTAMIRA IND METALURGICA LTDA           20100508000002012092017221000000        2    230A                                                                                          000000000000000                                                                                                                                                                                                                                                                                   000001
12005151518000140BELENUS DO BRASIL LTDA        RUA COMENDADOR JOAO LUCAS  300          1328000000100000 0000000000000  I000000000009905000000000000000               201209200000000000000000054620000612879000000000612879000000000000000000000000000000010000297232  3120120920   01HA        000                                                                                 3000000123933843997749143119             000297232/01                         N                     00000 10020256        000002
12062548797000113SIND  IND  FUN  MOV  METAL SP AV PAULISTA 1313                        0131192300100000 0000000000000  I000000000009906000000000000000               201209200000000000000000054620000015000000000000015000000000000000000000000000000000050000150909  3120120920   01HA        000                                                                                 3130573228661812001052541649             00150909                             N                     00000 10020256        000003
12061217188000119TELAS METALICAS TELMETAL LTDA RUA ALDEIA DA PRATA  38                 0368008000100000 0000000000000  I000000000009907000000000000000               201209200000000000000000054620000043522000000000043522000000000000000000000000000000010000005492  3120120920   01HA        000                                                                                 3000000115031800000056081789             005492/01-03.                        N                     00000 10020256        000004
12061217188000119TELAS METALICAS TELMETAL LTDA RUA ALDEIA DA PRATA  38                 0368008000100000 0000000000000  I000000000009908000000000000000               201209200000000000000000054620000017241000000000017241000000000000000000000000000000010000005493  3120120920   01HA        000                                                                                 3000000115031800000056111759             0005493/01-03.                       N                     00000 10020256        000005
900000600000000000688642                                                                                                                                                                                    000000000000000                                                                                                                                                                                                                                                    00000400218480000688642        000006
