0000147602043799295000110ALTAMIRA INDUSTRIA METALURGICA LT       202000000420620120920111058             2                                                                                                  000000000000000                                                                                                                                                                                                                                                                                   000001
12043799295000110ALTAMIRA INDUSTRIA METAL LTDA                                         0000000003303809500000130004071 I000000000009900000000000000000               201209200000000000000000000000000000000000000002400000000000000000000000000000000000050000000001  0820120920   01HF        5001108000000002566074000000000000000                                               3D0000000101                               01                                 S                     01133 10020256        000002
12000867888000164TECNEQUIP TECNOLOGIA EQUIP LTD                                        0000000003303809500000130003245 I000000000009901000000000000000               201209200000000000000000000000000000000000000000700000000000000000000000000000000000050000000002  0820120920   01HF        5001107000000004066074000000000000000                                               3C0000000101                               02                                 N                     01076 10020256        000003
12000867888000164TECNEQUIP TECNOLOGIA EQUIP LTD                                        0000000034100452 00000000749849 I000000000009902000000000000000               201209200000000000000000000000000000000000000000400000000000000000000000000000000000050000000003  0820120920   01HF        5001107000000004466074000000000000000                                               3C0000000101                               03                                 N                     01076 10020256        000004
12013529495000192MAXMIRA CONTROLE E ADM LTDA                                           0000000034100467 00000000012340 I000000000009903000000000000000               201209200000000000000000000000000000000000000000800000000000000000000000000000000000050000000004  0820120920   01HF        5001107000000003366074000000000000000                                               3C0000000101                               04                                 N                     01076 10020256        000005
12015229004000113ATLANTES SERVICOS ADM LTDA                                            0000000010404115 00003000011275 I000000000009904000000000000000               201209200000000000000000000000000000000000000000300000000000000000000000000000000000010000000007  0820120920   01HF        5001107000000004766074000000000000000                                               3C0000000101                               NF.NRO.07 - PARC01.                N                     01076 10020256        000006
900000700000000004600000                                                                                                                                                                                    000000000000000                                                                                                                                                                                                                                                    00000500000000000000000        000007
