0000147602043799295000110ALTAMIRA INDUSTRIA METALURGICA LT       202000000017020120820121630             2                                                                                                  000000000000000                                                                                                                                                                                                                                                                                   000001
12043799295000110ALTAMIRA INDUSTRIA METAL LTDA                                         0000000003303809500000130004071 I000000000009581000000000000000               201208200000000000000000000000000000000000000007100000000000000000000000000000000000050000000001  0820120820   01HF        5001211000000034356567000000000000000                                               3D0000000101                               01                                 S                     01133 10020256        000002
12000867888000164TECNEQUIP TECNOLOGIA EQUIP LTD                                        0000000003303809500000130003245 I000000000009582000000000000000               201208200000000000000000000000000000000000000003000000000000000000000000000000000000040000000002  0820120820   01HF        5001211000000037356567000000000000000                                               3C0000000101                               02                                 N                     01076 10020256        000003
12043799295000110ALTAMIRA INDUSTRIA METAL LTDA                                         0000000034100467 00000000209128 I000000000009583000000000000000               201208200000000000000000000000000000000000000007500000000000000000000000000000000000050000000003  0820120820   01HF        5001211000000027256567000000000000000                                               3D0000000101                               03                                 S                     01133 10020256        000004
900000500000000017600000                                                                                                                                                                                    000000000000000                                                                                                                                                                                                                                                    00000300000000000000000        000005
