0000147602043799295000110ALTAMIRA INDUSTRIA METALURGICA LT       202000000187820120920214730             3                                                                                                  000000000000000                                                                                                                                                                                                                                                                                   000001
12061217188000119TELAS METALICAS TELMETAL LTDA                                         0000000000100000 0000000000000  I000000000009908000000000000000               201209200000000000000000054620000017241000000000017241000000000000000000000000000000010000005493  3120120920   02BW        5000000               000000000000000                                               3000000115031800000056111759               05493/01-03.                       N                     01132 10020256        000002
12061217188000119TELAS METALICAS TELMETAL LTDA                                         0000000000100000 0000000000000  I000000000009907000000000000000               201209200000000000000000054620000043522000000000043522000000000000000000000000000000010000005492  3120120920   02BW        5000000               000000000000000                                               3000000115031800000056081789               5492/01-03.                        N                     01132 10020256        000003
12062548797000113SIND  IND  FUN  MOV  METAL SP                                         0000000000100000 0000000000000  I000000000009906000000000000000               201209200000000000000000054620000015000000000000015000000000000000000000000000000000050000150909  3120120920   02BW        5000000               000000000000000                                               3130573228661812001052541649               150909                             N                     01132 10020256        000004
12005151518000140BELENUS DO BRASIL LTDA                                                0000000000100000 0000000000000  I000000000009905000000000000000               201209200000000000000000054620000612879000000000612879000000000000000000000000000000010000297232  3120120920   02BW        5000000               000000000000000                                               3000000123933843997749143119               0297232/01                         N                     01132 10020256        000005
12000867888000164TECNEQUIP TECNOLOGIA EQUIP LTD                                        0000000034100452 00000000749849 I000000000009902000000000000000               201209200000000000000000000000000000000000000000400000000000000000000000000000000000050000000003  0820120920   02BW        5001030               000000000000000                                               3C0000000101                               03                                 N                     01076 10020256        000006
12000867888000164TECNEQUIP TECNOLOGIA EQUIP LTD                                        0000000003303809500000130003245 I000000000009901000000000000000               201209200000000000000000000000000000000000000000700000000000000000000000000000000000050000000002  0820120920   02BW        5001030               000000000000000                                               3C0000000101                               02                                 N                     01076 10020256        000007
12043799295000110ALTAMIRA INDUSTRIA METAL LTDA                                         0000000003303809500000130004071 I000000000009900000000000000000               201209200000000000000000000000000000000000000002400000000000000000000000000000000000050000000001  0820120920   02BW        5001030               000000000000000                                               3D0000000101                               01                                 S                     01133 10020256        000008
12015229004000113ATLANTES SERVICOS ADM LTDA                                            0000000010404115 00003000011275 I000000000009904000000000000000               201209200000000000000000000000000000000000000000300000000000000000000000000000000000010000000007  0820120920   02BW        5001030               000000000000000                                               3C0000000101                               NF.NRO.07 - PARC01.                N                     01076 10020256        000009
12013529495000192MAXMIRA CONTROLE E ADM LTDA                                           0000000034100467 00000000012340 I000000000009903000000000000000               201209200000000000000000000000000000000000000000800000000000000000000000000000000000050000000004  0820120920   02BW        5001030               000000000000000                                               3C0000000101                               04                                 N                     01076 10020256        000010
900001100000000005288642                                                                                                                                                                                    000000000000000                                                                                                                                                                                                                                                    00000900218480000688642        000011
