0000147602043799295000110ALTAMIRA INDUSTRIA METALURGICA LT       202000000019220121220060454             1                                                                                                                                                                                                                                                                                                                                                                                                    000001
12001895314000162COLETA INDUSTRIAL FIMAVAN LTDA                                        0000000034100000000000000000000000000000866992070000009002335349439           201208272012081700000000054380000123695000000000164004000000000000000000000000040309050000000000  3020121220   01          2                                                                                   3109002335346144604097200019                                                  N                     01321  0000000        000002
12002234917000186RODOVIARIO SOL NASCENTE LTDA                                          000000000010000000000000000000000000000094311056000000733464000035821         201301112012121700000000055750000050900000000000050900000000000000000000000000000000050000000000  3020130111   01FS        1                                                                                   3044327334643028000124731199                                                  N                     01321  0000000        000003
12003489596000123BEND FLEX I COMERCIO LTDA                                             000000003410000000000000000000000000000088350832000000171879874608            201209122012082100000000054540000695250000000000830583000000000000000000000000135333050000000000  3020121220   01          2                                                                                   3191718798744157734445800069                                                  N                     01321  0000000        000004
12003489596000123BEND FLEX I COMERCIO LTDA                                             000000003410000000000000000000000000000088599899000000171434574613            201209172012081600000000054590000585000000000000693194000000000000000000000000108194050000000000  3020121220   01          2                                                                                   3191714345748157734445800019                                                  N                     01321  0000000        000005
12005151518000140BELENUS DO BRASIL LTDA                                                000000000010000000000000000000000000000090666247000000256134000R131917022     201212182012102300000000055510000460800000000000463842000000000000000000000000003042050000000000  3020121220   01          2                                                                                   3000000123933844172561343169                                                  N                     01321  0000000        000006
12005502645000146TRANS GERALE TRANSPORTES LTDA                                         000000003410000000000000000000000000000094311050000000269495536500A 12        201301062012121700000000055700000170000000000000170000000000000000000000000000000000050000000000  3020130107   01FS        1                                                                                   3112694955363035522320700019                                                  N                     01321  0000000        000007
12005502645000146TRANS GERALE TRANSPORTES LTDA                                         000000003410000000000000000000000000000094311048000000269495535497 12         201301032012121700000000055670000064060000000000064060000000000000000000000000000000050000000000  3020130103   01FS        1                                                                                   3112694955355035522320700099                                                  N                     01321  0000000        000008
12005502645000146TRANS GERALE TRANSPORTES LTDA                                         000000003410000000000000000000000000000094311052000000269495537500B 12        201301252012121700000000055890000170000000000000170000000000000000000000000000000000050000000000  3020130125   01FS        1                                                                                   3112694955371035522320700019                                                  N                     01321  0000000        000009
12005880850000145NEDERMAN BRASIL COM PROD EX LT                                        000000003410000000000000000000000000000086373178000000614350956002763 A       201209252012081400000000054670000289674000000000338694000000000000000000000000049020050000000000  3020121220   01          2                                                                                   3156143509568160829000100049                                                  N                     01321  0000000        000010
12006000195000156MBA MERCANTIL BRAS DE ACO LTDA                                        0000000034100000000000000000000000000000887698090000001671394550008925B02     201209142012071700000000054560000719581000000000856836000000000000000000000000137255050000000000  3020121220   01          2                                                                                   3191671394556064849251000089                                                  N                     01321  0000000        000011
12006000195000156MBA MERCANTIL BRAS DE ACO LTDA                                        0000000034100000000000000000000000000000906662670000001671394410008920B03     201210142012071700000000054860000576584000000000652562000000000000000000000000075978050000000000  3020121220   01          2                                                                                   3191671394416064849251000039                                                  N                     01321  0000000        000012
12006000195000156MBA MERCANTIL BRAS DE ACO LTDA                                        0000000034100000000000000000000000000000887698100000001671394560008926B02     201209142012071700000000054560000387716000000000461727000000000000000000000000074011050000000000  3020121220   01          2                                                                                   3191671394564064849251000019                                                  N                     01321  0000000        000013
12006000195000156MBA MERCANTIL BRAS DE ACO LTDA                                        0000000034100000000000000000000000000000904173160000001667238280008876B03     201210122012071600000000054840000810320000000000920306000000000000000000000000109986050000000000  3020121220   01          2                                                                                   3191667238288064849251000079                                                  N                     01321  0000000        000014
12006000195000156MBA MERCANTIL BRAS DE ACO LTDA                                        0000000034100000000000000000000000000000904173170000001671394420008925B03     201210122012071700000000054840000719580000000000817215000000000000000000000000097635050000000000  3020121220   01          2                                                                                   3191671394424064849251000069                                                  N                     01321  0000000        000015
12006000195000156MBA MERCANTIL BRAS DE ACO LTDA                                        0000000034100000000000000000000000000000904173180000001671394430008926B03     201210122012071700000000054840000387716000000000440363000000000000000000000000052647050000000000  3020121220   01          2                                                                                   3191671394432064849251000079                                                  N                     01321  0000000        000016
12006000195000156MBA MERCANTIL BRAS DE ACO LTDA                                        0000000034100000000000000000000000000000889578520000001671394540008920B02     201209162012071700000000054580000576585000000000684315000000000000000000000000107730050000000000  3020121220   01          2                                                                                   3191671394549064849251000099                                                  N                     01321  0000000        000017
12006000195000156MBA MERCANTIL BRAS DE ACO LTDA                                        0000000034100000000000000000000000000000885998980000001667238420008870B02     201209112012071600000000054530000839952000000001005152000000000000000000000000165200050000000000  3020121220   01          2                                                                                   3191667238429064849251000039                                                  N                     01321  0000000        000018
12006000195000156MBA MERCANTIL BRAS DE ACO LTDA                                        0000000034100000000000000000000000000000904173150000001667238300008870B03     201210092012071600000000054810000839951000000000958895000000000000000000000000118944050000000000  3020121220   01          2                                                                                   3191667238304064849251000039                                                  N                     01321  0000000        000019
12006000195000156MBA MERCANTIL BRAS DE ACO LTDA                                        0000000034100000000000000000000000000000920384710000002577570370010215B01     201212052012110700000000055380000665766000000000665766000000000000000000000000000000050000000000  3020121205   05          3                                                                                   3112577570370064899001800099                                                  N                     01321  0000000        000020
12006000195000156MBA MERCANTIL BRAS DE ACO LTDA                                        0000000034100000000000000000000000000000920384720000002577570340010214B01     201212052012110700000000055380000163123000000000163123000000000000000000000000000000050000000000  3020121205   05          3                                                                                   3112577570347064899001800039                                                  N                     01321  0000000        000021
12006000195000156M B A MERCANTIL BRASILEIRA DE                                         0000000023700118P00000002130599 00000000865388240020222900000450009203B03     201212122012081500000000055450000344980000000000349580000000000000000000000000004600050000000000  3020121220   01          2  RUA JUNO  533                                                                    300000000000000000001500  000000000000000                                     N                     00598  0000000        000022
12006000195000156M B A MERCANTIL BRASILEIRA DE                                         0000000023700118P00000002130599 00000000865388270020222900000480009204B03     201212132012081500000000055460000127291000000000128775000000000000000000000000001484050000000000  3020121220   01          2  RUA JUNO  533                                                                    300000000000000000001500  000000000000000                                     N                     00598  0000000        000023
12006000195000156M B A MERCANTIL BRASILEIRA DE                                         0000000023700118P00000002130599 00000000865388300020222900000510009205B03     201212142012081500000000055470000348964000000000352456000000000000000000000000003492050000000000  3020121220   01          2  RUA JUNO  533                                                                    300000000000000000001500  000000000000000                                     N                     00598  0000000        000024
12006000195000156M B A MERCANTIL BRASILEIRA DE                                         0000000023700118P00000002130599 00000000865388330020222900000540009206B03     201212152012081500000000055480000527560000000000531955000000000000000000000000004395050000000000  3020121220   01          2  RUA JUNO  533                                                                    300000000000000000001500  000000000000000                                     N                     00598  0000000        000025
12006000195000156M B A MERCANTIL BRASILEIRA DE                                         0000000023700118P00000002130599 00000000868592700020223600000030009229B03     201212132012081600000000055460000253414000000000256368000000000000000000000000002954050000000000  3020121220   01          2  RUA JUNO  533                                                                    300000000000000000001500  000000000000000                                     N                     00598  0000000        000026
12007839659000185CABEMA CABOS DE ACO LTDA                                              00000000001000000000000000000000000000009431105700000079019800022135 1 1      201301142012121700000000055780000017100000000000017100000000000000000000000000000000050000000000  3020130114   01FS        1                                                                                   3000000131520144327901981119                                                  N                     01321  0000000        000027
12008272923000104P SANTOS ESQUADRARIAS METAL ME                                        0000000034100000000000000000000000000000943110580000006168388132104           201301162012121900000000055800000760640000000000760640000000000000000000000000000000050000000000  3020130116   01FS        1                                                                                   3156168388137160141951600069                                                  N                     01321  0000000        000028
12008272923000104P SANTOS ESQUADRARIAS METAL ME                                        0000000034100000000000000000000000000000915734100000006159682651954           201212052012110700000000055380000408138000000000432621000000000000000000000000024483050000000000  3020121220   01          2                                                                                   3156159682654160141951600029                                                  N                     01321  0000000        000029
12008671310000140SIMOSEG EQUIP PROT IND LTDA ME                                        0000000034100000000000000000000000000000943110540000009000510490001928 2      201301212012121700000000055850000045400000000000045400000000000000000000000000000000050000000000  3020130121   01FS        1                                                                                   3109000510494019967181900019                                                  N                     01321  0000000        000030
12008671310000140SIMOSEG EQUIP PROT IND LTDA ME                                        0000000034100000000000000000000000000000943110550000009000510480001928 1      201301142012121700000000055780000045400000000000045400000000000000000000000000000000050000000000  3020130114   01FS        1                                                                                   3109000510486019967181900089                                                  N                     01321  0000000        000031
12009007898000102ARTERINOX COM D TELAS METALICA                                        0000000023702741300000000246700 00000000943110530090112352017664330           201301162012121700000000055800000051588000000000051588000000000000000000000000000000050000000000  3020130116   01FS        1  RUA TAMAINDE 1410                                                                3                         000000000000000                                     N                     00598  0000000        000032
12009338857000190FERNANDO  NAGAO  CARDONE  ALVA                                        000000000330000000000000000000000000000091653176000000300000000ALTA 11 2012   201211202012103000000000055230000134632000000000148098000000000000000000000000013466050000000000  3020121220   01          2                                                                                   3947901700000051051630010119                                                  N                     01321  0000000        000033
12009630445000120MARIANA DE QUEIROZ SILVA   GRA                                        0000000000100000000000000000000000000000920384600000000001840000730           201212122012111300000000055450000048500000000000048500000000000000000000000000000000050000000000  3020121212   05          3                                                                                   3000000167849100000001841799                                                  N                     01321  0000000        000034
12012006058000121WEG TINTAS LTDA                                                       0000000023702727800000000001309 00000000882668430090225800000760016626903     201211272012091300000000055300000459992000000000474091000000000000000000000000014099050000000000  3020121220   01          2  R JUNO  533                                                                      3                         000000000000000                                     N                     00598  0000000        000035
12042956441000101SOLUCOES ACO USIMINAS                                                 0000000034100000000000000000000000000000943110380000002694578640019544202     201302132012121700000000056080000234939000000000234939000000000000000000000000000000050000000000  3020130213   01FS        1                                                                                   3112694578645293807258000079                                                  N                     01321  0000000        000036
12042956441000101SOLUCOES ACO USIMINAS                                                 0000000034100000000000000000000000000000943110310000002694578570019544101     201301142012121700000000055780000684093000000000684093000000000000000000000000000000050000000000  3020130114   01FS        1                                                                                   3112694578579293807258000019                                                  N                     01321  0000000        000037
12042956441000101SOLUCOES ACO USIMINAS                                                 0000000034100000000000000000000000000000943110330000002694578560019544001     201301142012121700000000055780000328758000000000328758000000000000000000000000000000050000000000  3020130114   01FS        1                                                                                   3112694578561293807258000069                                                  N                     01321  0000000        000038
12042956441000101SOLUCOES ACO USIMINAS                                                 0000000034100000000000000000000000000000943110390000002694578590019546701     201301142012121700000000055780001132995000000001132995000000000000000000000000000000050000000000  3020130114   01FS        1                                                                                   3112694578595293807258000069                                                  N                     01321  0000000        000039
12042956441000101SOLUCOES ACO USIMINAS                                                 0000000034100000000000000000000000000000943110400000002694578650019546702     201302132012121700000000056080001132655000000001132655000000000000000000000000000000050000000000  3020130213   01FS        1                                                                                   3112694578652293807258000069                                                  N                     01321  0000000        000040
12042956441000101SOLUCOES ACO USIMINAS                                                 0000000034100000000000000000000000000000943110410000002694578600019543401     201301152012121700000000055790000245567000000000245567000000000000000000000000000000050000000000  3020130115   01FS        1                                                                                   3112694578603293807258000039                                                  N                     01321  0000000        000041
12042956441000101SOLUCOES ACO USIMINAS                                                 0000000034100000000000000000000000000000943110420000002694578610019543402     201302132012121700000000056080000245493000000000245493000000000000000000000000000000050000000000  3020130213   01FS        1                                                                                   3112694578611293807258000019                                                  N                     01321  0000000        000042
12042956441000101SOLUCOES ACO USIMINAS                                                 0000000034100000000000000000000000000000943110430000002694578670019544103     201303112012121700000000056340000683887000000000683887000000000000000000000000000000050000000000  3020130311   01FS        1                                                                                   3112694578678293807258000049                                                  N                     01321  0000000        000043
12042956441000101SOLUCOES ACO USIMINAS                                                 0000000034100000000000000000000000000000943110440000002694578680019544203     201303112012121700000000056340000234938000000000234938000000000000000000000000000000050000000000  3020130311   01FS        1                                                                                   3112694578686293807258000069                                                  N                     01321  0000000        000044
12042956441000101SOLUCOES ACO USIMINAS                                                 0000000034100000000000000000000000000000943110450000002694578690019546703     201303112012121700000000056340001132654000000001132654000000000000000000000000000000050000000000  3020130311   01FS        1                                                                                   3112694578694293807258000099                                                  N                     01321  0000000        000045
12042956441000101SOLUCOES ACO USIMINAS                                                 0000000034100000000000000000000000000000943110340000002694578620019544002     201302132012121700000000056080000328659000000000328659000000000000000000000000000000050000000000  3020130213   01FS        1                                                                                   3112694578629293807258000019                                                  N                     01321  0000000        000046
12042956441000101SOLUCOES ACO USIMINAS                                                 0000000034100000000000000000000000000000943110350000002694578630019544102     201302132012121700000000056080000683888000000000683888000000000000000000000000000000050000000000  3020130213   01FS        1                                                                                   3112694578637293807258000059                                                  N                     01321  0000000        000047
12042956441000101SOLUCOES ACO USIMINAS                                                 0000000034100000000000000000000000000000943110360000002694578660019544003     201303112012121700000000056340000328659000000000328659000000000000000000000000000000050000000000  3020130311   01FS        1                                                                                   3112694578660293807258000019                                                  N                     01321  0000000        000048
12042956441000101SOLUCOES ACO USIMINAS                                                 0000000034100000000000000000000000000000943110370000002694578580019544201     201301142012121700000000055780000235009000000000235009000000000000000000000000000000050000000000  3020130114   01FS        1                                                                                   3112694578587293807258000089                                                  N                     01321  0000000        000049
12042956441000101SOLUCOES ACO USIMINAS                                                 0000000034100000000000000000000000000000943110460000002694578700019543403     201303122012121700000000056350000245494000000000245494000000000000000000000000000000050000000000  3020130312   01FS        1                                                                                   3112694578702293807258000079                                                  N                     01321  0000000        000050
12042956441000101SOLUCOES ACO USIMINAS                                                 0000000034100000000000000000000000000000846595700000002210880280016980502     201209102012071200000000054520000156071000000000187583000000000000000000000000031512050000000000  3020121220   01          2                                                                                   3112210880285293807258000039                                                  N                     01321  0000000        000051
12042956441000101SOLUCOES ACO USIMINAS                                                 0000000034100000000000000000000000000000846595710000002210880290016980602     201209102012071200000000054520000426094000000000512146000000000000000000000000086052050000000000  3020121220   01          2                                                                                   3112210880293293807258000019                                                  N                     01321  0000000        000052
12042956441000101SOLUCOES ACO USIMINAS                                                 0000000034100000000000000000000000000000847452070000002216130350005922202     201209102012071600000000054520000172071000000000206815000000000000000000000000034744050000000000  3020121220   01          2                                                                                   3112216130354293807258000049                                                  N                     01321  0000000        000053
12042956441000101SOLUCOES ACO USIMINAS                                                 0000000034100000000000000000000000000000847452100000002216130340017012402     201209102012071500000000054520000147428000000000177223000000000000000000000000029795050000000000  3020121220   01          2                                                                                   3112216130347293807258000059                                                  N                     01321  0000000        000054
12042956441000101SOLUCOES ACO USIMINAS                                                 0000000034100000000000000000000000000000848180700000002220192900017041002     201209112012071700000000054530000155433000000000186533000000000000000000000000031100050000000000  3020121220   01          2                                                                                   3112220192903293807258000029                                                  N                     01321  0000000        000055
12042956441000101SOLUCOES ACO USIMINAS                                                 0000000034100000000000000000000000000000848180710000002220192910017041202     201209112012071700000000054530000205421000000000246521000000000000000000000000041100050000000000  3020121220   01          2                                                                                   3112220192911293807258000019                                                  N                     01321  0000000        000056
12042956441000101SOLUCOES ACO USIMINAS                                                 0000000034100000000000000000000000000000850740470000002233586810017101002     201209142012071900000000054560000732575000000000874680000000000000000000000000142105050000000000  3020121220   01          2                                                                                   3112233586810293807258000019                                                  N                     01321  0000000        000057
12042956441000101SOLUCOES ACO USIMINAS                                                 0000000034100000000000000000000000000000850740480000002233586820017101202     201209142012071900000000054560000144634000000000172667000000000000000000000000028033050000000000  3020121220   01          2                                                                                   3112233586828293807258000029                                                  N                     01321  0000000        000058
12042956441000101SOLUCOES ACO USIMINAS                                                 0000000034100000000000000000000000000000853154840000002246247030017196702     201209202012072500000000054620000234841000000000277611000000000000000000000000042770050000000000  3020121220   01          2                                                                                   3112246247038293807258000099                                                  N                     01321  0000000        000059
12042956441000101SOLUCOES ACO USIMINAS                                                 0000000034100000000000000000000000000000853154850000002246247040017197302     201209202012072500000000054620000970103000000001146643000000000000000000000000176540050000000000  3020121220   01          2                                                                                   3112246247046293807258000019                                                  N                     01321  0000000        000060
12042956441000101SOLUCOES ACO USIMINAS                                                 0000000034100000000000000000000000000000855028690000002254329380017212902     201209212012072600000000054630000140098000000000165298000000000000000000000000025200050000000000  3020121220   01          2                                                                                   3112254329389293807258000019                                                  N                     01321  0000000        000061
12042956441000101SOLUCOES ACO USIMINAS                                                 0000000034100000000000000000000000000000855028700000002254329390017213002     201209212012072600000000054630000140602000000000165892000000000000000000000000025290050000000000  3020121220   01          2                                                                                   3112254329397293807258000089                                                  N                     01321  0000000        000062
12042956441000101SOLUCOES ACO USIMINAS                                                 0000000034100000000000000000000000000000855028770000002254329400017220502     201209212012072700000000054630000981022000000001157602000000000000000000000000176580050000000000  3020121220   01          2                                                                                   3112254329405293807258000099                                                  N                     01321  0000000        000063
12042956441000101SOLUCOES ACO USIMINAS                                                 0000000034100000000000000000000000000000856906410000002262886280017266201     201208282012073000000000054390000119472000000000146718000000000000000000000000027246050000000000  3020121220   01          2                                                                                   3112262886289293807258000089                                                  N                     01321  0000000        000064
12042956441000101SOLUCOES ACO USIMINAS                                                 0000000034100000000000000000000000000000856906420000002262886290017266301     201208282012073000000000054390000145069000000000178129000000000000000000000000033060050000000000  3020121220   01          2                                                                                   3112262886297293807258000099                                                  N                     01321  0000000        000065
12042956441000101SOLUCOES ACO USIMINAS                                                 0000000034100000000000000000000000000000859590620000002274469790017353702     201209282012080300000000054700000081053000000000094499000000000000000000000000013446050000000000  3020121220   01          2                                                                                   3112274469793293807258000069                                                  N                     01321  0000000        000066
12047190731000100DE CASTRO LOUREIRO ENGENHARIA                                         00000000033000000000000000000000000000009102658400000044000000003027349 0     201212192012102400000000055520000841841000000000858678000000000000000000000000016837050000000000  3020121220   01          2                                                                                   3948430370000009555544020349                                                  N                     01321  0000000        000067
12047190731000100DE CASTRO LOUR ENG IND LTDA                                           00000000341000000000000000000000000000008996247900000024766209203027184 0     201211302012100500000000055330001153047000000001198407000000000000000000000000045360050000000000  3020121220   01          2                                                                                   3112476620920036884500400089                                                  N                     01321  0000000        000068
12047190731000100DE CASTRO LOUR ENG IND LTDA                                           00000000341000000000000000000000000000008782051700000023399954203026614 0     201211202012082100000000055230001047621000000001109421000000000000000000000000061800050000000000  3020121220   01          2                                                                                   3112339995428036884500400079                                                  N                     01321  0000000        000069
12047190731000100DE CASTRO LOUR ENG IND LTDA                                           00000000341000000000000000000000000000008782051800000023399955703026636 0     201211212012082200000000055240000940804000000000994454000000000000000000000000053650050000000000  3020121220   01          2                                                                                   3112339995576036884500400019                                                  N                     01321  0000000        000070
12047190731000100DE CASTRO LOUR ENG IND LTDA                                           00000000341000000000000000000000000000008782051900000023399955803026636 0     201212192012082200000000055520000941086000000000942937000000000000000000000000001851050000000000  3020121220   01          2                                                                                   3112339995584036884500400069                                                  N                     01321  0000000        000071
12047190731000100DE CASTRO LOUR ENG IND LTDA                                           00000000341000000000000000000000000000008782052000000023399955303026632 0     201209192012082200000000054610000952073000000001124297000000000000000000000000172224050000000000  3020121220   01          2                                                                                   3112339995535036884500400019                                                  N                     01321  0000000        000072
12047190731000100DE CASTRO LOUR ENG IND LTDA                                           00000000341000000000000000000000000000008782052100000023399955903026643 0     201209202012082300000000054620000867039000000001022194000000000000000000000000155155050000000000  3020121220   01          2                                                                                   3112339995592036884500400049                                                  N                     01321  0000000        000073
12047190731000100DE CASTRO LOUR ENG IND LTDA                                           00000000341000000000000000000000000000008782052300000023399955503026632 0     201212192012082200000000055520000952358000000000954231000000000000000000000000001873050000000000  3020121220   01          2                                                                                   3112339995550036884500400039                                                  N                     01321  0000000        000074
12047190731000100DE CASTRO LOUR ENG IND LTDA                                           00000000341000000000000000000000000000008782052400000023399956003026643 0     201211222012082300000000055250000867039000000000914779000000000000000000000000047740050000000000  3020121220   01          2                                                                                   3112339995600036884500400069                                                  N                     01321  0000000        000075
12047190731000100DE CASTRO LOUR ENG IND LTDA                                           00000000341000000000000000000000000000008782052500000023399955603026636 0     201209192012082200000000054610000940804000000001111004000000000000000000000000170200050000000000  3020121220   01          2                                                                                   3112339995568036884500400049                                                  N                     01321  0000000        000076
12047190731000100DE CASTRO LOUR ENG IND LTDA                                           00000000341000000000000000000000000000008782052700000023399956203026648 0     201209202012082300000000054620000976053000000001150773000000000000000000000000174720050000000000  3020121220   01          2                                                                                   3112339995626036884500400029                                                  N                     01321  0000000        000077
12047190731000100DE CASTRO LOUR ENG IND LTDA                                           00000000341000000000000000000000000000008782052800000023399956303026648 0     201211222012082300000000055250000976053000000001029813000000000000000000000000053760050000000000  3020121220   01          2                                                                                   3112339995634036884500400019                                                  N                     01321  0000000        000078
12047190731000100DE CASTRO LOUR ENG IND LTDA                                           00000000341000000000000000000000000000009041733100000025008464903027234 0     201212062012101100000000055390001029597000000001057947000000000000000000000000028350050000000000  3020121220   01          2                                                                                   3112500846491036884500400029                                                  N                     01321  0000000        000079
12047190731000100DE CASTRO LOUR ENG IND LTDA                                           00000000341000000000000000000000000000008782051000000023399953703026612 0     201212182012082100000000055510001111822000000001116196000000000000000000000000004374050000000000  3020121220   01          2                                                                                   3112339995378036884500400049                                                  N                     01321  0000000        000080
12047190731000100DE CASTRO LOUR ENG IND LTDA                                           00000000341000000000000000000000000000008782051100000023399954303026614 0     201212182012082100000000055510001047933000000001052055000000000000000000000000004122050000000000  3020121220   01          2                                                                                   3112339995436036884500400029                                                  N                     01321  0000000        000081
12047190731000100DE CASTRO LOUR ENG IND LTDA                                           00000000341000000000000000000000000000008782051200000023399953803026613 0     201209182012082100000000054600001107989000000001310636000000000000000000000000202647050000000000  3020121220   01          2                                                                                   3112339995386036884500400039                                                  N                     01321  0000000        000082
12047190731000100DE CASTRO LOUR ENG IND LTDA                                           00000000341000000000000000000000000000008782051400000023399954003026613 0     201212182012082100000000055510001108322000000001112682000000000000000000000000004360050000000000  3020121220   01          2                                                                                   3112339995402036884500400069                                                  N                     01321  0000000        000083
12047190731000100DE CASTRO LOUR ENG IND LTDA                                           00000000341000000000000000000000000000008782051600000023399954103026614 0     201209182012082100000000054600001047621000000001239201000000000000000000000000191580050000000000  3020121220   01          2                                                                                   3112339995410036884500400039                                                  N                     01321  0000000        000084
12047190731000100DE CASTRO LOUREIRO ENGENHARIA                                         0000000023703394400000000205508 000000008801224800202255000000703026784 0     201211302012083100000000055330001041759000000001053911000000000000000000000000013888050000000000  3020121207   06          3  RUA JUNO  533                                                                    300000000000000000001500  000000000000000                                     N                     00598  0000000        000085
12047190731000100DE CASTRO LOUREIRO ENGENHARIA                                         0000000023703394400000000205508 000000008801225100202255000001003026787 0     201211302012083100000000055330001135987000000001149238000000000000000000000000015144050000000000  3020121207   06          3  RUA JUNO  533                                                                    300000000000000000001500  000000000000000                                     N                     00598  0000000        000086
12047190731000100DE CASTRO LOUREIRO ENGENHARIA                                         0000000023703394400000000205508 000000008801225400202255000001303026794 0     201212032012090300000000055360001209130000000001217190000000000000000000000000010075050000000000  3020121207   06          3  RUA JUNO  533                                                                    300000000000000000001500  000000000000000                                     N                     00598  0000000        000087
12047190731000100DE CASTRO LOUREIRO ENGENHARIA                                         0000000023703394400000000205508 000000008801225500202255000001403026794 0     201211262012090300000000055290001209490000000001257874000000000000000000000000048384050000000000  3020121220   01          2  RUA JUNO  533                                                                    3                         000000000000000                                     N                     00598  0000000        000088
12047190731000100DE CASTRO LOUR ENG IND LTDA                                           00000000341000000000000000000000000000008782059500000023602714703026734 0     201211272012082800000000055300000997834000000001042960000000000000000000000000045126050000000000  3020121220   01          2                                                                                   3112360271475036884500400019                                                  N                     01321  0000000        000089
12047190731000100DE CASTRO LOUR ENG IND LTDA                                           00000000341000000000000000000000000000008782059900000023602715003026744 0     201211292012082900000000055320000146594000000000152642000000000000000000000000006048050000000000  3020121220   01          2                                                                                   3112360271509036884500400069                                                  N                     01321  0000000        000090
12047190731000100DE CASTRO LOUR ENG IND LTDA                                           00000000341000000000000000000000000000008782059400000023602715303026745 0     201211282012082900000000055310000903175000000000942247000000000000000000000000039072050000000000  3020121220   01          2                                                                                   3112360271533036884500400039                                                  N                     01321  0000000        000091
12047190731000100DE CASTRO LOUR ENG IND LTDA                                           00000000341000000000000000000000000000008782050900000023399953503026612 0     201209182012082100000000054600001111489000000001314787000000000000000000000000203298050000000000  3020121220   01          2                                                                                   3112339995352036884500400019                                                  N                     01321  0000000        000092
12047190731000100DE CASTRO LOUR ENG IND LTDA                                           00000000341000000000000000000000000000009041732300000025008465203027256 0     201212112012101600000000055440001108602000000001128222000000000000000000000000019620050000000000  3020121220   01          2                                                                                   3112500846525036884500400019                                                  N                     01321  0000000        000093
12047190731000100DE CASTRO LOUR ENG IND LTDA                                           00000000341000000000000000000000000000009041732500000025008465503027257 0     201212132012101600000000055460000751900000000000762253000000000000000000000000010353050000000000  3020121220   01          2                                                                                   3112500846558036884500400029                                                  N                     01321  0000000        000094
12047190731000100DE CASTRO LOUR ENG IND LTDA                                           00000000341000000000000000000000000000009041732900000025008464603027216 0     201212052012101000000000055380000225377000000000232022000000000000000000000000006645050000000000  3020121220   01          2                                                                                   3112500846467036884500400029                                                  N                     01321  0000000        000095
12048775225000146SEIKI IND COM E CONFECCOES LTD                                        000000003410000000000000000000000000000089337376000000244697151014914001      201210232012092500000000054950000052000000000000056524000000000000000000000000004524050000000000  3020121220   01          2                                                                                   3112446971510017444824100089                                                  N                     01321  0000000        000096
12051180370000199IGUAFER FERRO E ACO LTDA                                              0000000034100000000000000000000000000000852309100000002239389789443 B         201209022012071800000000054440000168275000000000198795000000000000000000000000030520050000000000  3020121220   01          2                                                                                   3112239389789077149484600089                                                  N                     01321  0000000        000097
12051180370000199IGUAFER FERRO E ACO LTDA                                              0000000034100000000000000000000000000000852309110000002239389799443 C         201209122012071800000000054540000168275000000000195995000000000000000000000000027720050000000000  3020121220   01          2                                                                                   3112239389797077149484600089                                                  N                     01321  0000000        000098
12054382510000108SETENTA IND E COM DE MADEIRAS                                         0000000034100000000000000000000000000000860403430000002277814474462 A         201209042012080700000000054460000191200000000000231432000000000000000000000000040232050000000000  3020121220   01          2                                                                                   3112277814474057049175300069                                                  N                     01321  0000000        000099
12056993512000150CYKLOP DO BRASIL EMBALAGENS SA                                        0000000034100000000000000000000000000000874070500000002362586810134932        201210012012090300000000054730000083607000000000108167000000000000000000000000024560050000000000  3020121220   01          2                                                                                   3112362586813025700015800019                                                  N                     01321  0000000        000100
12061217188000119TELAS METALICAS TELMETAL LTDA                                         0000000003300000000000000000000000000000923779530000002600000005977 1 3       201212192012112100000000055520000011839000000000011839000000000000000000000000000000050000000000  3020121219   06          3                                                                                   3915435040000000048526020159                                                  N                     01321  0000000        000101
12061475927000172NIQ CROM BRILHANTE LTDA                                               0000000034100000000000000000000000000000943110470000002692008345625           201301172012121800000000055810000053075000000000053075000000000000000000000000000000050000000000  3020130117   01FS        1                                                                                   3112692008348046770270000099                                                  N                     01321  0000000        000102
12062510367000102ITANHAEM TRANSP DE MAQUINAS LT                                        000000003410000000000000000000000000000087407049000000236463199667            201209202012090400000000054620000248220000000000338583000000000000000000000000090363050000000000  3020121220   01          2                                                                                   3112364631997005770252400049                                                  N                     01321  0000000        000103
12062539994000176LEALFER INDUSTRIA E COMERCIO D                                        0000000003300000000000000000000000000000893373850000002700000000005568403     201212192012092500000000055520000891184000000000892699000000000000000000000000001515050000000000  3020121220   01          2                                                                                   3915298380000000274127010419                                                  N                     01321  0000000        000104
12062539994000176LEALFER INDUSTRIA E COMERCIO D                                        0000000003300000000000000000000000000000893373990000001900000000005563003     201212192012092500000000055520000136948000000000137180000000000000000000000000000232050000000000  3020121220   01          2                                                                                   3915298380000000274119010469                                                  N                     01321  0000000        000105
12064952757000168WALMAC COM DE PROD QUIMICOS LT                                        0000000034100000000000000000000000000000896979510000002462157570021611        201211292012100400000000055320000219267000000000228318000000000000000000000000009051050000000000  3020121220   01          2                                                                                   3112462157572064807961400059                                                  N                     01321  0000000        000106
12064952757000168WALMAC COM DE PROD QUIMICOS LT                                        0000000034100000000000000000000000000000860403450000002275821700020148        201210052012080300000000054770000219267000000000252023000000000000000000000000032756050000000000  3020121220   01          2                                                                                   3112275821703064807961400029                                                  N                     01321  0000000        000107
12066841552000130R V SEG PATRIMONIAL LTDA                                              00000000341000000000000000000000000000008852483200000090002192721927          201209102012081000000000054520000483241000000000499502000000000000000000000000016261050000000000  3020121220   01          2                                                                                   3109000219270001835253400099                                                  N                     01321  0000000        000108
12066841552000130R V SEG PATRIMONIAL S C LTDA                                          00000000341000000000000000000000000000008887329800000090002213622136          201210102012091100000000054820000374758000000000383633000000000000000000000000008875050000000000  3020121220   01          2                                                                                   3109000221365001838994000069                                                  N                     01321  0000000        000109
12069284248000128ISOCOAT TINTAS E VERNIZES LTDA                                        0000000034100000000000000000000000000000895189810000002456588210056254        201212172012100200000000055500000318064000000000320608000000000000000000000000002544050000000000  3020121220   01          2                                                                                   3112456588212077430121200019                                                  N                     01321  0000000        000110
12069284248000128ISOCOAT TINTAS E VERNIZES LTDA                                        0000000034100000000000000000000000000000841061040000002182507930052085        201209172012070200000000054590000236130000000000295350000000000000000000000000059220050000000000  3020121220   01          2                                                                                   3112182507932077430121200019                                                  N                     01321  0000000        000111
12069284248000128ISOCOAT TINTAS E VERNIZES LTDA                                        0000000034100000000000000000000000000000911410150000002506612030057027        201212182012101900000000055510000317968000000000319664000000000000000000000000001696050000000000  3020121220   01          2                                                                                   3112506612038077430121200019                                                  N                     01321  0000000        000112
12069284248000128ISOCOAT TINTAS E VERNIZES LTDA                                        0000000034100000000000000000000000000000915734010000002553088030057592        201212172012110100000000055500000107324000000000108182000000000000000000000000000858050000000000  3020121220   01          2                                                                                   3112553088033077430121200089                                                  N                     01321  0000000        000113
12069284248000128ISOCOAT TINTAS E VERNIZES LTDA                                        0000000034100000000000000000000000000000915734060000002553088160057607        201212172012110100000000055500000326908000000000329524000000000000000000000000002616050000000000  3020121220   01          2                                                                                   3112553088165077430121200029                                                  N                     01321  0000000        000114
12069284248000128ISOCOAT TINTAS E VERNIZES LTDA                                        0000000034100000000000000000000000000000943110510000002690580110059540        201302152012121700000000056100000317968000000000317968000000000000000000000000000000050000000000  3020130215   01FS        1                                                                                   3112690580116077430121200099                                                  N                     01321  0000000        000115
12069284248000128ISOCOAT TINTAS E VERNIZES LTDA                                        0000000034100000000000000000000000000000943110320000002690580120059540        201303022012121700000000056250000318064000000000318064000000000000000000000000000000050000000000  3020130304   01FS        1                                                                                   3112690580124077430121200029                                                  N                     01321  0000000        000116
12069284248000128ISOCOAT TINTAS E VERNIZES LTDA                                        0000000034100000000000000000000000000000943110490000002690580100059540        201301312012121700000000055950000365668000000000365668000000000000000000000000000000050000000000  3020130131   01FS        1                                                                                   3112690580108077430121200069                                                  N                     01321  0000000        000117
900011800000000063504201                                                                                                                                                                                                                                                                                                                                                                                                                                                                01321  0000000        000118
