0000147602043799295000110ALTAMIRA INDUSTRIA METALURGICA LT       202000000415620120820162605             2                                                                                                  000000000000000                                                                                                                                                                                                                                                                                   000001
12000867888000164TECNEQUIP TECNOLOGIA EQUIP LTD                                        0000000000103333200000000130818 I000000000009585000000000000000               201208200000000000000000000000000000000000000011000000000000000000000000000000000000050000000005  0820120820   01HF        5001623000000017315449000000000000000                                               3C0000000101                               05                                 N                     01076 10020256        000002
12043799295000110ALTAMIRA INDUSTRIA METAL LTDA                                         0000000000103333200000000021717 I000000000009586000000000000000               201208200000000000000000000000000000000000000001300000000000000000000000000000000000050000000006  0820120820   01HF        5001623000000018615449000000000000000                                               3D0000000101                               06                                 S                     01133 10020256        000003
12000867888000164TECNEQUIP TECNOLOGIA EQUIP LTD                                        0000000003303809500000130003245 I000000000009587000000000000000               201208200000000000000000000000000000000000000000400000000000000000000000000000000000040000000007  0820120820   01HF        5001623000000020115449000000000000000                                               3C0000000101                               07                                 N                     01076 10020256        000004
12013529495000192MAXMIRA CONTROLE E ADM LTDA                                           0000000034100467 00000000012340 I000000000009588000000000000000               201208200000000000000000000000000000000000000001100000000000000000000000000000000000050000000008  0820120820   01HF        5001623000000019715449000000000000000                                               3C0000000101                               08                                 N                     01076 10020256        000005
900000600000000013800000                                                                                                                                                                                    000000000000000                                                                                                                                                                                                                                                    00000400000000000000000        000006
