0000147602043799295000110ALTAMIRA IND METALURGICA LTDA           20100475000002012082015255500000        2    230A                                                                                          000000000000000                                                                                                                                                                                                                                                                                   000001
12000867888000164TECNEQUIP TECNOLOGIA EQUIP LTDRUA  GANGES                             0344503000103333200000000130818 I000000000009585000000000000000               201208200000000000000000000000000000000000000011000000000000000000000000000000000000050000000005  0820120820   01HA        0001530                                                                             3C0000000101                             0005                                 N                     00000  0020256        000002
12043799295000110ALTAMIRA INDUSTRIA METAL LTDA RUA  GANGES  528                        0344503000103333200000000021717 I000000000009586000000000000000               201208200000000000000000000000000000000000000001300000000000000000000000000000000000050000000006  0820120820   01HA        0001530                                                                             3D0000000101                             0006                                 S                     00000  0020256        000003
900000400000000012300000                                                                                                                                                                                    000000000000000                                                                                                                                                                                                                                                    00000200000000000000000        000004
0000147602043799295000110ALTAMIRA IND METALURGICA LTDA           20100476000002012082015393900000        2    230A                                                                                          000000000000000                                                                                                                                                                                                                                                                                   000001
12000867888000164TECNEQUIP TECNOLOGIA EQUIP LTDRUA  GANGES                             0344503003303809500000130003245 I000000000009587000000000000000               201208200000000000000000000000000000000000000000400000000000000000000000000000000000040000000007  0820120820   01HA        0001600                                                                             3C0000000101                             0007                                 N                     00000  0020256        000002
12013529495000192MAXMIRA CONTROLE E ADM LTDA   RUA  JUNO  533                          0344500034100467 00000000012340 I000000000009588000000000000000               201208200000000000000000000000000000000000000001100000000000000000000000000000000000050000000008  0820120820   01HA        0001600                                                                             3C0000000101                             0008                                 N                     00000  0020256        000003
900000400000000001500000                                                                                                                                                                                    000000000000000                                                                                                                                                                                                                                                    00000200000000000000000        000004
