0000147602043799295000110ALTAMIRA INDUSTRIA METALURGICA LT       202000000180820120823151150             2                                                                                                  000000000000000                                                                                                                                                                                                                                                                                   000001
12000867888000164TECNEQUIP TECNOLOGIA EQUIP LTD                                        0000000000103333200000000130818 I000000000009606000000000000000               201208230000000000000000000000000000000000000001850000000000000000000000000000000000040000000009  0820120823   01HF        5001509000000003050975000000000000000                                               3C0000000101                               09                                 N                     01076 10020256        000002
900000300000000001850000                                                                                                                                                                                    000000000000000                                                                                                                                                                                                                                                    00000100000000000000000        000003
