0000147602043799295000110ALTAMIRA IND METALURGICA LTDA           20100478000002012082314291600000        2    230A                                                                                          000000000000000                                                                                                                                                                                                                                                                                   000001
12000867888000164TECNEQUIP TECNOLOGIA EQUIP LTDRUA  GANGES                             0344503000103333200000000130818 I000000000009606000000000000000               201208230000000000000000000000000000000000000001850000000000000000000000000000000000040000000009  0820120823   01HA        0001500                                                                             3C0000000101                             0009                                 N                     00000  0020256        000002
900000300000000001850000                                                                                                                                                                                    000000000000000                                                                                                                                                                                                                                                    00000100000000000000000        000003
