0000147602043799295000110ALTAMIRA IND METALURGICA LTDA           20100480000002012082317185900000        2    230A                                                                                          000000000000000                                                                                                                                                                                                                                                                                   000001
12053585766000141MULTIACOS IND COM PROD TEC LTDAV PAPA JOAO XXIII  1460 A              0937080000100000 0000000000000  I000000000009609000000000000000               201208230000000000000000054340001241774000000001241774000000000000000000000000000000010000043607  3120120823   01HA        000                                                                                 3043940876711912000139523179             00043607/01                          N                     00000 10020256        000002
12042956441000101SOLUCOES EM ACO USIMINAS S A  RUA  DIANOPOLIS  670 710                0312510034100000 0000000000000  I000000000009610000000000000000               201208230000000000000000054340000776892000000000776892000000000000000000000000000000010000160901  3120120823   01HA        000                                                                                 3181528700439293807258000019             000160901/03                         N                     00000 10020256        000003
12042956441000101SOLUCOES EM ACO USIMINAS S A  RUA  DIANOPOLIS  670 710                0312510000100000 0000000000000  I000000000009611000000000000000               201208230000000000000000054340000708397000000000708397000000000000000000000000000000010000057906  3120120823   01HA        000                                                                                 3000000169660100000835991719             00057906/02                          N                     00000 10020256        000004
12006000195000156MBA MERCANTIL BRASIL ACO LTDA RUA  RINCAO  220                        0365108000100000 0000000000000  I000000000009612000000000000000               201208230000000000000000054340000581574000000000581574000000000000000000000000000000010000008616  3120120823   01HA        000                                                                                 3043837752273333000105251179             0008616/02                           N                     00000 10020256        000005
12056993900000131CIA METALURGICA PRADA                                                 0000000034100000 0000000000000  I000000000009613000000000000000               201208230000000000000000054340000507111000000000507111000000000000000000000000000000010000258299  3120120823   01HA        000                                                                                 3181528666591293800573900039             000258299/01                         N                     00000 10020256        000006
12042956441000101SOLUCOES EM ACO USIMINAS S A  RUA  DIANOPOLIS  670 710                0312510000100000 0000000000000  I000000000009614000000000000000               201208230000000000000000054340000491305000000000491305000000000000000000000000000000010000166431  3120120823   01HA        000                                                                                 3000000169660100000849161719             000166431/02                         N                     00000 10020256        000007
12042956441000101SOLUCOES EM ACO USIMINAS S A  RUA  DIANOPOLIS  670 710                0312510034100000 0000000000000  I000000000009615000000000000000               201208230000000000000000054340000448012000000000448012000000000000000000000000000000010000160970  3120120823   01HA        000                                                                                 3181528701171293807258000019             000160970/03                         N                     00000 10020256        000008
12053585766000141MULTIACOS IND COM PROD TEC LTDAV PAPA JOAO XXIII  1460 A              0937080000100000 0000000000000  I000000000009616000000000000000               201208230000000000000000054340000408496000000000408496000000000000000000000000000000010000042946  3120120823   01HA        000                                                                                 3043940876201912000139523179             00042946/02                          N                     00000 10020256        000009
12045577855000118ROVELA IND E COMERCIO LTDA                                            0000000034100000 0000000000000  I000000000009617000000000000000               201208230000000000000000054340000326340000000000326340000000000000000000000000000000010000003994  3120120823   01HA        000                                                                                 3181528704558045274986400029             0003994/02                           N                     00000 10020256        000010
12006000195000156MBA MERCANTIL BRASIL ACO LTDA RUA  RINCAO  220                        0365108000100000 0000000000000  I000000000009618000000000000000               201208230000000000000000054340000281310000000000281310000000000000000000000000000000010000008653  3120120823   01HA        000                                                                                 3043852571533333000105251119             0008653/02                           N                     00000 10020256        000011
12042956441000101SOLUCOES EM ACO USIMINAS S A  RUA  DIANOPOLIS  670 710                0312510000100000 0000000000000  I000000000009619000000000000000               201208230000000000000000054340000196569000000000196569000000000000000000000000000000010000166430  3120120823   01HA        000                                                                                 3000000169660100000849131749             000166430/02                         N                     00000 10020256        000012
12006000195000156M B A MERCANTIL BRASILEIRA DE R RINCAO 220                            0365108023700118000000002128292 I000000000009620000000000000000               201208230000000000000000000000000000000000000000802826000000000000000000000000000000010000008874  0120120823   01HA        000                                                                                 3                                        00NF.NRO.08874/01                    N                     00000 10020256        000013
12006000195000156M B A MERCANTIL BRASILEIRA DE R RINCAO 220                            0365108023700118000000002128292 I000000000009621000000000000000               201208230000000000000000000000000000000000000000498324000000000000000000000000000000010000008615  0120120823   01HA        000                                                                                 3                                        00NF.NRO.08615/02                    N                     00000 10020256        000014
12006000195000156M B A MERCANTIL BRASILEIRA DE R RINCAO 220                            0365108023700118000000002128292 I000000000009622000000000000000               201208230000000000000000000000000000000000000000155301000000000000000000000000000000010000008905  0120120823   01HA        000                                                                                 3                                        00NF.NRO.08905/01                    N                     00000 10020256        000015
12006000195000156M B A MERCANTIL BRASILEIRA DE R RINCAO 220                            0365108023700118000000002128292 I000000000009623000000000000000               201208230000000000000000000000000000000000000000056473000000000000000000000000000000010000008911  0120120823   01HA        000                                                                                 3                                        00NF.NRO.08911/01                    N                     00000 10020256        000016
900001700000000007480704                                                                                                                                                                                    000000000000000                                                                                                                                                                                                                                                    00001500597740005967780        000017
