0000147602043799295000110ALTAMIRA INDUSTRIA METALURGICA LT       202000000430520121123155202             2                                                                                                  000000000000000                                                                                                                                                                                                                                                                                   000001
12043799295000110ALTAMIRA INDUSTRIA METAL LTDA                                         0000000000103333200000000021717 I000000000010209000000000000000               201211230000000000000000000000000000000000000005000000000000000000000000000000000000050000000003  0820121123   01HF        5001548000000006580257000000000000000                                               3D0000000101                               03                                 S                     01133 10020256        000002
900000300000000005000000                                                                                                                                                                                    000000000000000                                                                                                                                                                                                                                                    00000100000000000000000        000003
