0000147602043799295000110ALTAMIRA IND METALURGICA LTDA           20100566000002012112310571600000        2    230A                                                                                          000000000000000                                                                                                                                                                                                                                                                                   000001
12043799295000110ALTAMIRA INDUSTRIA METAL LTDA RUA  GANGES  528                        0344503003303809500000130004071 I000000000010207000000000000000               201211230000000000000000000000000000000000000000800000000000000000000000000000000000050000000001  0820121123   01HA        0001130                                                                             3D0000000101                             0001                                 S                     00000  0020256        000002
12000867888000164TECNEQUIP TECNOLOGIA EQUIP LTDRUA  GANGES                             0344503003303809500000130003245 I000000000010208000000000000000               201211230000000000000000000000000000000000000000800000000000000000000000000000000000040000000002  0820121123   01HA        0001130                                                                             3C0000000101                             0002                                 N                     00000  0020256        000003
900000400000000001600000                                                                                                                                                                                    000000000000000                                                                                                                                                                                                                                                    00000200000000000000000        000004
