0000147602043799295000110ALTAMIRA INDUSTRIA METALURGICA LT       202000000011220120824055255             1                                                                                                                                                                                                                                                                                                                                                                                                    000001
12001031724000165NEW TR COM AGENC CARGAS LTDA                                          00000000341000000000000000000000000000008685926600000079244336012 0980 MI     201208292012082300000000054400000169855000000000169855000000000000000000000000000000050000000000  3020120829   01FS        1                                                                                   3157924433606295813499700069                                                  N                     01321  0000000        000002
12001031724000165NEW TR COM AGENC CARGAS LTDA                                          00000000341000000000000000000000000000008685926700000079244289512 0982        201208292012082300000000054400000339710000000000339710000000000000000000000000000000050000000000  3020120829   01FS        1                                                                                   3157924428952295813499700019                                                  N                     01321  0000000        000003
12001951865000104FOUR FACTORING FOMENTO M LTDA                                         000000004220000000000000000000000000000085230907000000000000000159 2012       201208142012072400000000054250000310000000000000320329000000000000000000000000010329050000000000  3020120824   01          2                                                                                   3702000009214741497536196199                                                  N                     01321  0000000        000004
12002460454000170AUT SERVICE COMERCIO E SERVICO                                        0000000023702591700000000007692 000000008515291900901322060028134532          201208172012072400000000054280000238750000000000253555000000000000000000000000015283050000000000  3020120823   06          3  RUA JUNO  533                                                                    3                         000000000000000                                     N                     00598  0000000        000005
12003489596000123BEND FLEX INDUSTRIA E COMERCIO                                        000000001040000000000000000000000000000084571467000000666410500587 2          201208172012071100000000054280000631600000000000631600000000000000000000000000000000050000000000  3020120817   06          3                                                                                   3314166641011558700000019919                                                  N                     01321  0000000        000006
12003489596000123BEND FLEX I COMERCIO LTDA                                             000000003410000000000000000000000000000086859265000000792419599608            201209122012082300000000054540000695250000000000695250000000000000000000000000000000050000000000  3020120912   01FS        1                                                                                   3157924195999157734445800089                                                  N                     01321  0000000        000007
12003746938000143STAPLES BRASIL COM DE MAT DE E                                        0000000023703394400000000368008 0000000085074069002000000797375460605 1       201208222012072300000000054330000032373000000000035718000000000000000000000000003345050000000000  3020120824   01          2  RUA GANGES VILA CARRAO VILA CARRAO                                               3                         000000000000000                                     N                     00598  0000000        000008
12003807192000130HELIO MATERIAIS PARA SOLDAS LT                                        0000000023700298400000002087111 0000000084985531009013220101191S000001149     201208172012071900000000054280000022800000000000023988000000000000000000000000001196050000000000  3020120823   06          3  RUA TAMAINDE 1410                                                                3                         000000000000000                                     N                     00598  0000000        000009
12005044228000105TRIARC COM S METAIS USINADOS                                          000000003410000000000000000000000000000085404957000000788988941677            201208222012073000000000054330000006800000000000006826000000000000000000000000000026050000000000  3020120824   01          2                                                                                   3157889889412076157868100069                                                  N                     01321  0000000        000010
12005044228000105TRIARC COM S METAIS USINADOS                                          000000003410000000000000000000000000000085404958000000788989596237 S          201208222012073000000000054330000040000000000000040158000000000000000000000000000158050000000000  3020120824   01          2                                                                                   3157889895963076157868100019                                                  N                     01321  0000000        000011
12006000195000156MBA MERCANTIL BRAS DE ACO LTDA                                        0000000034100000000000000000000000000000850740650000008671394740008920B01     201208192012072000000000054300000576584000000000578160000000000000000000000000001576050000000000  3020120824   01          2                                                                                   3458671394740064849251000069                                                  N                     01321  0000000        000012
12006000195000156MBA MERCANTIL BRAS DE ACO LTDA                                        0000000034100000000000000000000000000000850740660000008671394750008925B01     201208172012072000000000054280000719580000000000723022000000000000000000000000003442050000000000  3020120824   01          2                                                                                   3458671394757064849251000019                                                  N                     01321  0000000        000013
12006000195000156MBA MERCANTIL BRAS DE ACO LTDA                                        0000000034100000000000000000000000000000850740670000008671394760008926B01     201208172012072000000000054280000387716000000000389571000000000000000000000000001855050000000000  3020120824   01          2                                                                                   3458671394765064849251000029                                                  N                     01321  0000000        000014
12006000195000156M B A MERCANTIL BRASILEIRA DE                                         0000000023700118P00000002130599 00000000848180720020220100000030008872B01     201208142012071700000000054250000112772000000000113900000000000000000000000000001316050000000000  3020120820   05          3  RUA JUNO  533                                                                    3                         000000000000000                                     N                     00598  0000000        000015
12006000195000156MBA MERCANTIL BRAS DE ACO LTDA                                        0000000034100000000000000000000000000000848957230000008667238630008870B01     201208142012071900000000054250000839952000000000844633000000000000000000000000005266050000000000  3020120822   05          3                                                                                   3458667238638064849251000019                                                  N                     01321  0000000        000016
12006000195000156M B A MERCANTIL BRASILEIRA DE                                         0000000023700118P00000002130599 00000000853154980020220900000440008967B01     201208232012072400000000054340000135605000000000135831000000000000000000000000000226050000000000  3020120824   01          2  RUA JUNO  533                                                                    3                         000000000000000                                     N                     00598  0000000        000017
12006000195000156M B A MERCANTIL BRASILEIRA DE                                         0000000023700118P00000002130599 00000000853155010020220900000510008971B01     201208212012072400000000054320000170465000000000171317000000000000000000000000000852050000000000  3020120824   01          2  RUA JUNO  533                                                                    3                         000000000000000                                     N                     00598  0000000        000018
12006000195000156M B A MERCANTIL BRASILEIRA DE                                         0000000023700118P00000002130599 00000000853155040020220900000640008985B01     201208222012072500000000054330000163122000000000163666000000000000000000000000000544050000000000  3020120824   01          2  RUA JUNO  533                                                                    3                         000000000000000                                     N                     00598  0000000        000019
12006000195000156M B A MERCANTIL BRASILEIRA DE                                         0000000023700118P00000002130599 00000000853155070020220900000670008986B01     201208222012072500000000054330000145725000000000146211000000000000000000000000000486050000000000  3020120824   01          2  RUA JUNO  533                                                                    3                         000000000000000                                     N                     00598  0000000        000020
12006000195000156M B A MERCANTIL BRASILEIRA DE                                         0000000023700118P00000002130599 00000000853155100020220900000700008987B01     201208232012072500000000054340000216623000000000216984000000000000000000000000000361050000000000  3020120824   01          2  RUA JUNO  533                                                                    3                         000000000000000                                     N                     00598  0000000        000021
12006000195000156M B A MERCANTIL BRASILEIRA DE                                         0000000023700118P00000002130599 00000000868592680020223600000010009229B01     201209132012081600000000054550000253414000000000253414000000000000000000000000000000050000000000  3020120913   01FS        1  RUA JUNO  533                                                                    3                         000000000000000                                     N                     00598  0000000        000022
12006000195000156M B A MERCANTIL BRASILEIRA DE                                         0000000023700118P00000002130599 00000000868592690020223600000020009229B02     201210112012081600000000054830000253414000000000253414000000000000000000000000000000050000000000  3020121011   01FS        1  RUA JUNO  533                                                                    3                         000000000000000                                     N                     00598  0000000        000023
12006000195000156M B A MERCANTIL BRASILEIRA DE                                         0000000023700118P00000002130599 00000000868592700020223600000030009229B03     201211082012081600000000055110000253414000000000253414000000000000000000000000000000050000000000  3020121108   01FS        1  RUA JUNO  533                                                                    3                         000000000000000                                     N                     00598  0000000        000024
12006000195000156M B A MERCANTIL BRASILEIRA DE                                         0000000023700118P00000002128292 00000000868592710090214500000190008358B03     201208152012052300000000054260000150849000000000150849000000000000000000000000000000050000000000  3020120824   01FS        1  RUA JUNO  533                                                                    3                         000000000000000                                     N                     00598  0000000        000025
12006000195000156M B A MERCANTIL BRASILEIRA DE                                         0000000023700118P00000002128292 00000000868592720090219900000620008865B01     201208132012071600000000054240000695457000000000695457000000000000000000000000000000050000000000  3020120824   01FS        1  RUA JUNO  533                                                                    3                         000000000000000                                     N                     00598  0000000        000026
12007175725000160WEG EQUIPAMENTOS ELETRICOS SA                                         0000000023702727800000000196800 00000000815444390090214500004510095359901     201208212012052300000000054320000272787000000000273876000000000000000000000000001089050000000000  3020120824   01          2  R JUNO  533                                                                      3                         000000000000000                                     N                     00598  0000000        000027
12009137729000189MULTI RECEBIVEIS II FUNDO DE I                                        0000000023703369300000000044253 000000008685926300902236000000713649 1        201209132012081600000000054550000114374000000000114374000000000000000000000000000000050000000000  3020120913   01FS        1  R TAMANDE 1410                          ANHEMBI INDUSTRIA DE CAIXAS DE PAPELAO O 3                         043292101000196                                     N                     00598  0000000        000028
12009137729000189MULTI RECEBIVEIS II FUNDO DE I                                        0000000023703369300000000044253 000000008685926400902236000000813649 2        201209272012081600000000054690000114374000000000114374000000000000000000000000000000050000000000  3020120927   01FS        1  R TAMANDE 1410                          ANHEMBI INDUSTRIA DE CAIXAS DE PAPELAO O 3                         043292101000196                                     N                     00598  0000000        000029
12009259079000144SAFRA COMERCIAL DE PAPEIS LTDA                                        00000000033000000000000000000000000000008523092400000070000000000128569       201208232012072500000000054340000023936000000000024055000000000000000000000000000119050000000000  3020120824   01          2                                                                                   3918361880000000324570010439                                                  N                     01321  0000000        000030
12010543507000145MAJOR CORTEZ CONFECCAO E COMER                                        000000003410000000000000000000000000000085315495000000614041210157            201208222012072700000000054330000053000000000000053208000000000000000000000000000208050000000000  3020120824   01          2                                                                                   3156140412101074662673800029                                                  N                     01321  0000000        000031
12012006058000121WEG TINTAS LTDA                                                       0000000023702727800000000001309 00000000824820170090216300000890014374203     201208222012060800000000054330000459992000000000461218000000000000000000000000001226050000000000  3020120824   01          2  R JUNO  533                                                                      3                         000000000000000                                     N                     00598  0000000        000032
12012006058000121WEG TINTAS LTDA                                                       0000000023702727800000000001309 00000000833069150090217700001080014685602     201208212012062200000000054320000459854000000000461693000000000000000000000000001839050000000000  3020120824   01          2  R JUNO  533                                                                      3                         000000000000000                                     N                     00598  0000000        000033
12012006058000121WEG TINTAS LTDA                                                       0000000023702727800000000001309 00000000841061110090218800000830014990201     201208192012070500000000054300000306569000000000308609000000000000000000000000002040050000000000  3020120824   01          2  R JUNO  533                                                                      3                         000000000000000                                     N                     00598  0000000        000034
12012006058000121WEG TINTAS LTDA                                                       0000000023702727800000000001309 00000000842436820090219200000840015068801     201208232012070900000000054340000306569000000000306977000000000000000000000000000408050000000000  3020120824   01          2  R JUNO  533                                                                      3                         000000000000000                                     N                     00598  0000000        000035
12014309992000148WEG DRIVES   CONTROLS   AUTOMA                                        0000000023702727800000000001872 00000000816237730090214600002430004866102     201208232012042500000000054340000027620000000000027656000000000000000000000000000036050000000000  3020120824   01          2  R JUNO  533                                                                      3                         000000000000000                                     N                     00598  0000000        000036
12014309992000148WEG DRIVES   CONTROLS   AUTOMA                                        0000000023702727800000000001872 00000000852309230090220800002970008379601     201208232012072400000000054340000107136000000000107278000000000000000000000000000142050000000000  3020120824   01          2  R JUNO  533                                                                      3                         000000000000000                                     N                     00598  0000000        000037
12014309992000148WEG DRIVES   CONTROLS   AUTOMA                                        0000000023702727800000000001872 00000000852309220090220800002960008346101     201208212012072400000000054320000056126000000000056348000000000000000000000000000222050000000000  3020120824   01          2  R JUNO  533                                                                      3                         000000000000000                                     N                     00598  0000000        000038
12035820448000136WHITE MARTINS GASES INDUSTRIAI                                        0000000023700026400000003937925 0000000085230921009022080002695355448 001     201208212012072600000000054320000085176000000000087221000000000000000000000000002045050000000000  3020120824   01          2  RUA GANGES  528                                                                  3                         000000000000000                                     N                     00598  0000000        000039
12035820448000136WHITE MARTINS GASES INDUSTRIAI                                        0000000023700026400000003937925 0000000085315496009022090010244358059 001     201208232012072700000000054340000017600000000000017975000000000000000000000000000375050000000000  3020120824   01          2  RUA GANGES  528                                                                  3                         000000000000000                                     N                     00598  0000000        000040
12035820448000136WHITE MARTINS GASES INDUSTRIAI                                        0000000023700026400000003937925 0000000085315497009022090011903358519 001     201208232012072700000000054340000056805000000000058017000000000000000000000000001212050000000000  3020120824   01          2  RUA GANGES  528                                                                  3                         000000000000000                                     N                     00598  0000000        000041
12042956441000101SOLUCOES ACO USIMINAS                                                 0000000034100000000000000000000000000000836417900000002164218360016738102     201208222012062700000000054330000830173000000000833493000000000000000000000000003320050000000000  3020120824   01          2                                                                                   3112164218367293807258000059                                                  N                     01321  0000000        000042
12042956441000101SOLUCOES ACO USIMINAS                                                 0000000034100000000000000000000000000000855028660000002254329280017200301     201208232012072600000000054340000156943000000000157257000000000000000000000000000314050000000000  3020120824   01          2                                                                                   3112254329280293807258000019                                                  N                     01321  0000000        000043
12042956441000101SOLUCOES ACO USIMINAS                                                 0000000034100000000000000000000000000000850740410000002233586750017101001     201208172012071900000000054280000732795000000000743057000000000000000000000000010262050000000000  3020120824   01          2                                                                                   3112233586752293807258000099                                                  N                     01321  0000000        000044
12042956441000101SOLUCOES ACO USIMINAS                                                 0000000034100000000000000000000000000000850740420000002233586760017101201     201208172012071900000000054280000144677000000000146700000000000000000000000000002023050000000000  3020120824   01          2                                                                                   3112233586760293807258000079                                                  N                     01321  0000000        000045
12042956441000101SOLUCOES ACO USIMINAS                                                 0000000034100000000000000000000000000000850740430000002233586770017126901     201208202012072000000000054310000208455000000000210123000000000000000000000000001668050000000000  3020120824   01          2                                                                                   3112233586778293807258000039                                                  N                     01321  0000000        000046
12042956441000101SOLUCOES ACO USIMINAS                                                 0000000034100000000000000000000000000000853154920000002246247010017197301     201208232012072500000000054340000970394000000000972335000000000000000000000000001941050000000000  3020120824   01          2                                                                                   3112246247012293807258000019                                                  N                     01321  0000000        000047
12042956441000101SOLUCOES ACO USIMINAS                                                 0000000034100000000000000000000000000000853154890000002246246990017196601     201208232012072500000000054340000805049000000000806659000000000000000000000000001610050000000000  3020120824   01          2                                                                                   3112246246998293807258000059                                                  N                     01321  0000000        000048
12042956441000101SOLUCOES ACO USIMINAS                                                 0000000034100000000000000000000000000000853154910000002246247000017196701     201208232012072500000000054340000234911000000000235381000000000000000000000000000470050000000000  3020120824   01          2                                                                                   3112246247004293807258000019                                                  N                     01321  0000000        000049
12042956441000101SOLUCOES ACO USIMINAS                                                 0000000034100000000000000000000000000000855028590000002254329290017200401     201208232012072600000000054340000163273000000000163600000000000000000000000000000327050000000000  3020120824   01          2                                                                                   3112254329298293807258000029                                                  N                     01321  0000000        000050
12042956441000101SOLUCOES ACO USIMINAS                                                 0000000034100000000000000000000000000000855028600000002254329300017202401     201208232012072600000000054340000244209000000000244697000000000000000000000000000488050000000000  3020120824   01          2                                                                                   3112254329306293807258000019                                                  N                     01321  0000000        000051
12042956441000101SOLUCOES ACO USIMINAS                                                 0000000034100000000000000000000000000000855028650000002254329270017200201     201208232012072600000000054340000680589000000000681950000000000000000000000000001361050000000000  3020120824   01          2                                                                                   3112254329272293807258000099                                                  N                     01321  0000000        000052
12042956441000101SOLUCOES ACO USIMINAS                                                 0000000034100000000000000000000000000000850740440000002233586780017127001     201208202012072000000000054310000190485000000000192009000000000000000000000000001524050000000000  3020120824   01          2                                                                                   3112233586786293807258000019                                                  N                     01321  0000000        000053
12042956441000101SOLUCOES ACO USIMINAS                                                 0000000034100000000000000000000000000000850740450000002233586790017127101     201208202012072000000000054310000167777000000000169121000000000000000000000000001344050000000000  3020120824   01          2                                                                                   3112233586794293807258000029                                                  N                     01321  0000000        000054
12042956441000101SOLUCOES ACO USIMINAS                                                 0000000034100000000000000000000000000000850740460000002233586800017127201     201208202012072000000000054310000137881000000000138985000000000000000000000000001104050000000000  3020120824   01          2                                                                                   3112233586802293807258000019                                                  N                     01321  0000000        000055
12043217850000159IOB INFORMACOES OBJ  PUBL JURI                                        0000000023702374400000002958600 000000008540495200902212000099001440820E4     201208202012073000000000054310000072850000000000074403000000000000000000000000001553050000000000  3020120824   01          2  GANGES 528 VL NOVA MANCHESTER                                                    3                         000000000000000                                     N                     00598  0000000        000056
12051180370000199IGUAFER FERRO E ACO LTDA                                              0000000034100000000000000000000000000000852309090000002239389779443 A         201208232012071800000000054340000201933000000000202270000000000000000000000000000337050000000000  3020120824   01          2                                                                                   3112239389771077149484600099                                                  N                     01321  0000000        000057
12051598472000129ELETRICA J SANTOS                                                     0000000023702451100000000000264 000000008523091800902208000003817933 01       201208222012072500000000054330000112770000000000113522000000000000000000000000000752050000000000  3020120824   01          2  R JUNO  533                                                                      3                         000000000000000                                     N                     00598  0000000        000058
12051598472000129ELETRICA J SANTOS                                                     0000000023702451100000000000264 000000008507405800902206000003117806 01       201208232012072300000000054340000092714000000000092714000000000000000000000000000309050000000000  3020120824   01          2  R JUNO  533                                                                      300000000000000000141500  000000000000000                                     N                     00598  0000000        000059
12052559499000175BOMAX NO BRASIL EQUIP INDS LT                                         0000000034100000000000000000000000000000852309130000002238631900000015611     201208202012071900000000054310000179150000000000180558000000000000000000000000001408050000000000  3020120824   01          2                                                                                   3112238631900324705000200029                                                  N                     01321  0000000        000060
12053585766000141MULTIACOS INDUSTRIA E COMERCIO                                        0000000000100000000000000000000000000000856071140000000876860000004375101     201208232012073100000000054340000499086000000000499918000000000000000000000000000832050000000000  3020120824   01          2                                                                                   3043940876861912000139523139                                                  N                     01321  0000000        000061
12056993900000131CIA METALURGICA PRADA                                                 0000000034100000000000000000000000000000837460360000002165934320025295402     201208232012062800000000054340000152797000000000153052000000000000000000000000000255050000000000  3020120824   01          2                                                                                   3112165934327293800573900029                                                  N                     01321  0000000        000062
12056993900000131CIA METALURGICA PRADA                                                 0000000034100000000000000000000000000000837460370000002165934330025295502     201208232012062800000000054340000339049000000000339614000000000000000000000000000565050000000000  3020120824   01          2                                                                                   3112165934335293800573900029                                                  N                     01321  0000000        000063
12056993900000131CIA METALURGICA PRADA                                                 0000000034100000000000000000000000000000837460420000002165934340025295602     201208232012062800000000054340000154164000000000154421000000000000000000000000000257050000000000  3020120824   01          2                                                                                   3112165934343293800573900099                                                  N                     01321  0000000        000064
12056993900000131CIA METALURGICA PRADA                                                 0000000034100000000000000000000000000000837460430000002165934350025295702     201208232012062800000000054340000139528000000000139761000000000000000000000000000233050000000000  3020120824   01          2                                                                                   3112165934350293800573900019                                                  N                     01321  0000000        000065
12057158057000130COMERCIAL ELETRICA PJ LTDA                                            0000000023703394400000000972983 00000000842436850090219200008900000305028     201208012012070400000000054120000079196000000000085245000000000000000000000000006049050000000000  3020120824   01          2  R TAMAINDE 1410                                                                  3                         000000000000000                                     N                     00598  0000000        000066
12060770336000165DE CASTRO LOUREIRO ENG IND COM                                        0000000023702372800000008004412 000000008248201400900000000063603025435 0     201208222012053000000000054330000550730000000000552566000000000000000000000000001836050000000000  3020120824   01          2  RUA JUNO  533                           DE CASTRO LOUREIRO ENGENHARIA IND  E COM 3                         047190731000100                                     N                     00598  0000000        000067
12060830544000102TORRES GALVANIZACAO A FOGO LTD                                        0000000023702531300000000105007 0000000085607124009013221401636007073         201208212012072400000000054320000064800000000000066096000000000000000000000000001296050000000000  3020120824   01          2  RUA GANGES  528                                                                  3                         000000000000000                                     N                     00598  0000000        000068
12061085866000137COMERCIO DE FERRAGENS A C L LT                                        0000000023700475800000000385662 000000008595906900400475842019516999 12       201208222012072400000000054330000027500000000000027554000000000000000000000000000054050000000000  3020120824   01          2  RUA GANGES 528 SP                                                                3                         000000000000000                                     N                     00598  0000000        000069
12061217188000119TELAS METALICAS TELMETAL LTDA                                         0000000000100000000000000000000000000000852309040000000055630005371 1 3       201208202012072500000000054310000069967000000000070341000000000000000000000000000561050000000000  3020120822   06          3                                                                                   3000000115031800000055631739                                                  N                     01321  0000000        000070
12067647412000199ANCORA CHUMBADORES LTDA                                               000000003410000000000000000000000000000083392861000000214873079055988 4       201210182012062000000000054900000250000000000000250000000000000000000000000000000000050000000000  3020121018   05          3                                                                                   3112148730792013626917200049                                                  N                     01321  0000000        000071
12067647412000199ANCORA CHUMBADORES LTDA                                               000000003410000000000000000000000000000086859262000000214873079055988 4       201210182012062000000000054900000250000000000000250000000000000000000000000000000000050000000000  3020121018   01FS        1                                                                                   3112148730792013670795700069                                                  N                     01321  0000000        000072
12075483040000130REX MAQUINAS E EQUIPAMENTOS LT                                        0000000023702656500000000000701 000000008577186300202216000032078261 2 1      201208232012072600000000054340000499850000000000500683000000000000000000000000000833050000000000  3020120824   01          2  RUA  GANGES  528                                                                 3                         000000000000000                                     N                     00598  0000000        000073
12092693118000160BRADESCO SAUDE S A                                                    0000000023700448000000001533991 00000000847452120050100745572410000000000     201208202012071700000000054310000645861000000000647525000000000000000000000000001664050000000000  3020120824   01          2                                                                                   3                         000000000000000                                     N                     00598  0000000        000074
900007500000000020175321                                                                                                                                                                                                                                                                                                                                                                                                                                                                00598  0000000        000075
