0000147602043799295000110ALTAMIRA INDUSTRIA METALURGICA LT       202000000015320121024055425             1                                                                                                                                                                                                                                                                                                                                                                                                    000001
12001895314000162COLETA INDUSTRIAL FIMAVAN LTDA                                        0000000034100000000000000000000000000000866992070000009002335349439           201208272012081700000000054380000123695000000000145251000000000000000000000000021556050000000000  3020121024   01          2                                                                                   3109002335346144604097200019                                                  N                     01321  0000000        000002
12002503185000182ANDAIMES MAQUINAS BIG LTDA EPP                                        000000003410000000000000000000000000000086282613000000228719913011660         201208302012081000000000054410000012000000000000012680000000000000000000000000000680050000000000  3020121024   01          2                                                                                   3112287199130650303800900039                                                  N                     01321  0000000        000003
12002503185000182ANDAIMES E MAQUINAS BIG LTDA                                          000000003410000000000000000000000000000087820531000000233954448011791         201209212012082700000000054630000026000000000000027081000000000000000000000000001081050000000000  3020121024   01          2                                                                                   3112339544481925303435000019                                                  N                     01321  0000000        000004
12002503185000182ANDAIMES MAQUINAS BIG LTDA EPP                                        0000000034100000000000000000000000000000874070480000002313590765101           201209142012082000000000054560000016500000000000017270000000000000000000000000000770050000000000  3020121024   01          2                                                                                   3112313590765650303800900019                                                  N                     01321  0000000        000005
12002583013000166ITAN TRANSP DE CARGAS EXC E IN                                        000000003410000000000000000000000000000088350835000000239377421008 A          201210142012091400000000054860000192500000000000200200000000000000000000000000007700050000000000  3020121024   01          2                                                                                   3112393774214005770252400019                                                  N                     01321  0000000        000006
12002583013000166ITAN TRANSP DE CARGAS EXC E IN                                        000000003410000000000000000000000000000088350836000000239377422008 B          201210212012091400000000054930000192500000000000194810000000000000000000000000002310050000000000  3020121024   01          2                                                                                   3112393774222005770252400039                                                  N                     01321  0000000        000007
12002583013000166ITAN TRANSP DE CARGAS EXC E IN                                        000000003410000000000000000000000000000088769805000000241619340008 D          201210142012091800000000054860000105350000000000109560000000000000000000000000004210050000000000  3020121024   01          2                                                                                   3112416193400005770252400019                                                  N                     01321  0000000        000008
12002583013000166ITAN TRANSP DE CARGAS EXC E IN                                        000000003410000000000000000000000000000088769806000000241619341008 E          201210212012091800000000054930000105350000000000106613000000000000000000000000001263050000000000  3020121024   01          2                                                                                   3112416193418005770252400019                                                  N                     01321  0000000        000009
12003163055000100JN FOMENTO MERCANTIL LTDA                                             000000004220000000000000000000000000000089229252000000000000000944 12         201210232012092700000000054950000095000000000000095190000000000000000000000000000190050000000000  3020121024   01          2                                                                                   3702200002006382926631195159                                                  N                     01321  0000000        000010
12003489596000123BEND FLEX I COMERCIO LTDA                                             000000003410000000000000000000000000000088350832000000171879874608            201209122012082100000000054540000695250000000000752664000000000000000000000000057414050000000000  3020121024   01          2                                                                                   3191718798744157734445800069                                                  N                     01321  0000000        000011
12003489596000123BEND FLEX I COMERCIO LTDA                                             000000003410000000000000000000000000000088599899000000171434574613            201209172012081600000000054590000585000000000000627587000000000000000000000000042587050000000000  3020121024   01          2                                                                                   3191714345748157734445800019                                                  N                     01321  0000000        000012
12004934836000114GUAIRA MAT PARA CONSTR LTDA ME                                        00000000341000000000000000000000000000008876979900000090011431423736          201210192012091900000000054910000055500000000000056240000000000000000000000000000740050000000000  3020121024   01          2                                                                                   3109001143140076568242200039                                                  N                     01321  0000000        000013
12005151518000140BELENUS DO BRASIL LTDA                                                000000000010000000000000000000000000000090145496000000711434000R131538732     201301062012101500000000055700000460800000000000460800000000000000000000000000000000050000000000  3020130107   05          3                                                                                   3000000123933844147114343199                                                  N                     01321  0000000        000014
12005151518000140BELENUS DO BRASIL LTDA                                                000000000010000000000000000000000000000090145497000000711432000R131538712     201211072012101500000000055100000599040000000000599040000000000000000000000000000000050000000000  3020121107   05          3                                                                                   3000000123933844147114323159                                                  N                     01321  0000000        000015
12005151518000140BELENUS DO BRASIL LTDA                                                000000000010000000000000000000000000000090145498000000711433000R131538722     201212072012101500000000055400000460800000000000460800000000000000000000000000000000050000000000  3020121207   05          3                                                                                   3000000123933844147114333199                                                  N                     01321  0000000        000016
12005753978000148HUMAN SERVICOS P C MOVEL LTDA                                         0000000034100000000000000000000000000000895189850000009001035390000103539     201210202012100100000000054920000013000000000000013000000000000000000000000000000000050000000000  3020121022   06          3                                                                                   3109001035391057948896600049                                                  N                     01321  0000000        000017
12005880850000145NEDERMAN BRASIL COM PROD EX LT                                        000000003410000000000000000000000000000086373178000000614350956002763 A       201209252012081400000000054670000289674000000000306204000000000000000000000000016530050000000000  3020121024   01          2                                                                                   3156143509568160829000100049                                                  N                     01321  0000000        000018
12006000195000156MBA MERCANTIL BRAS DE ACO LTDA                                        0000000034100000000000000000000000000000887698090000001671394550008925B02     201209142012071700000000054560000719581000000000776181000000000000000000000000056600050000000000  3020121024   01          2                                                                                   3191671394556064849251000089                                                  N                     01321  0000000        000019
12006000195000156MBA MERCANTIL BRAS DE ACO LTDA                                        0000000034100000000000000000000000000000885998980000001667238420008870B02     201209112012071600000000054530000839952000000000910988000000000000000000000000071036050000000000  3020121024   01          2                                                                                   3191667238429064849251000039                                                  N                     01321  0000000        000020
12006000195000156MBA MERCANTIL BRAS DE ACO LTDA                                        0000000034100000000000000000000000000000904173140000001667238290008874B03     201210112012071600000000054830000802825000000000823352000000000000000000000000020527050000000000  3020121024   01          2                                                                                   3191667238296064849251000069                                                  N                     01321  0000000        000021
12006000195000156MBA MERCANTIL BRAS DE ACO LTDA                                        0000000034100000000000000000000000000000887698100000001671394560008926B02     201209142012071700000000054560000387716000000000418236000000000000000000000000030520050000000000  3020121024   01          2                                                                                   3191671394564064849251000019                                                  N                     01321  0000000        000022
12006000195000156M B A MERCANTIL BRASILEIRA DE                                         0000000000100000000000000000000000000000855028840000007952850000009005B03     201210222012073000000000054940000202837000000000203513000000000000000000000000000676050000000000  3020121024   01          2                                                                                   3043937952853333000105251169                                                  N                     01321  0000000        000023
12006000195000156M B A MERCANTIL BRASILEIRA DE                                         0000000000100000000000000000000000000000855028870000007952880000009006B03     201210232012073000000000054950000235480000000000235872000000000000000000000000000392050000000000  3020121024   01          2                                                                                   3043937952883333000105251139                                                  N                     01321  0000000        000024
12006000195000156MBA MERCANTIL BRAS DE ACO LTDA                                        0000000034100000000000000000000000000000889578520000001671394540008920B02     201209162012071700000000054580000576585000000000619677000000000000000000000000043092050000000000  3020121024   01          2                                                                                   3191671394549064849251000099                                                  N                     01321  0000000        000025
12006000195000156MBA MERCANTIL BRAS DE ACO LTDA                                        0000000034100000000000000000000000000000904173150000001667238300008870B03     201210092012071600000000054810000839951000000000864731000000000000000000000000024780050000000000  3020121024   01          2                                                                                   3191667238304064849251000039                                                  N                     01321  0000000        000026
12006000195000156MBA MERCANTIL BRAS DE ACO LTDA                                        0000000034100000000000000000000000000000904173160000001667238280008876B03     201210122012071600000000054840000810320000000000829448000000000000000000000000019128050000000000  3020121024   01          2                                                                                   3191667238288064849251000079                                                  N                     01321  0000000        000027
12006000195000156M B A MERCANTIL BRASILEIRA DE                                         0000000023700118P00000002130599 00000000853155060020220900000660008985B03     201210172012072500000000054890000141846000000000143498000000000000000000000000001652050000000000  3020121024   01          2  RUA JUNO  533                                                                    3                         000000000000000                                     N                     00598  0000000        000028
12006000195000156M B A MERCANTIL BRASILEIRA DE                                         0000000023700118P00000002130599 00000000853155090020220900000690008986B03     201210172012072500000000054890000126718000000000128195000000000000000000000000001477050000000000  3020121024   01          2  RUA JUNO  533                                                                    3                         000000000000000                                     N                     00598  0000000        000029
12006000195000156M B A MERCANTIL BRASILEIRA DE                                         0000000023700118P00000002130599 00000000853155120020220900000720008987B03     201210182012072500000000054900000188368000000000190252000000000000000000000000001884050000000000  3020121024   01          2  RUA JUNO  533                                                                    3                         000000000000000                                     N                     00598  0000000        000030
12006000195000156M B A MERCANTIL BRASILEIRA DE                                         0000000023700118P00000002128292 00000000905810100090220600000190008946B03     201210152012072300000000054870000647873000000000647873000000000000000000000000000000050000000000  3020121024   01FS        1  RUA JUNO  533                                                                    3                         000000000000000                                     N                     00598  0000000        000031
12006000195000156MBA MERCANTIL BRAS DE ACO LTDA                                        0000000034100000000000000000000000000000884432590000002398047610009492B01     201210082012091000000000054800000529375000000000529375000000000000000000000000000000050000000000  3020121008   05          3                                                                                   3112398047616064899001800049                                                  N                     01321  0000000        000032
12006000195000156M B A MERCANTIL BRASILEIRA DE                                         0000000023700118P00000002130599 00000000853155030020220900000530008971B03     201210162012072400000000054880000170465000000000172737000000000000000000000000002272050000000000  3020121024   01          2  RUA JUNO  533                                                                    3                         000000000000000                                     N                     00598  0000000        000033
12006000195000156M B A MERCANTIL BRASILEIRA DE                                         0000000023700118P00000002130599 00000000853155000020220900000460008967B03     201210182012072400000000054900000135605000000000136961000000000000000000000000001356050000000000  3020121024   01          2  RUA JUNO  533                                                                    3                         000000000000000                                     N                     00598  0000000        000034
12006000195000156MBA MERCANTIL BRAS DE ACO LTDA                                        0000000034100000000000000000000000000000904173170000001671394420008925B03     201210122012071700000000054840000719580000000000736560000000000000000000000000016980050000000000  3020121024   01          2                                                                                   3191671394424064849251000069                                                  N                     01321  0000000        000035
12006000195000156MBA MERCANTIL BRAS DE ACO LTDA                                        0000000034100000000000000000000000000000904173180000001671394430008926B03     201210122012071700000000054840000387716000000000396872000000000000000000000000009156050000000000  3020121024   01          2                                                                                   3191671394432064849251000079                                                  N                     01321  0000000        000036
12006000195000156M B A MERCANTIL BRASILEIRA DE                                         0000000023700118P00000002128292 00000000905810090090220600000120008948B03     201210162012072300000000054880000437437000000000437437000000000000000000000000000000050000000000  3020121024   01FS        1  RUA JUNHO  533                                                                   3                         000000000000000                                     N                     00598  0000000        000037
12007565346000186ALFLEX PLASTICOS E FERRAGENS L                                        0000000023701416800000000407607 0000000088769812009013226800206S000000196     201210232012092400000000054950000187500000000000191875000000000000000000000000004375050000000000  3020121024   01          2  RUA TAMAINDE  1410                                                               3                         000000000000000                                     N                     00598  0000000        000038
12008508119000181DINARI FOMENTO MERCANTIL LTDA                                         0000000023702499600000000178306 000000009058100800202297000000715351          201211162012102200000000055190000015000000000000015000000000000000000000000000000000050000000000  3020121116   01FS        1  RUA GANGES  528 VILA CARRAO SAO PAULO SPNELSON RODRIGUES DA SILVA JUNIOR EPP     3                         011389422000117                                     N                     00598  0000000        000039
12009043000000143GERSON D DA SILVA SEGURANCA DO                                        000000003990000000000000000000000000000089229255000000000000000390 5          201210102012100100000000054820000060000000000000060000000000000000000000000000000000050000000000  3020121010   05          3                                                                                   3304770037090477000087000199                                                  N                     01321  0000000        000040
12009338857000190FERNANDO  NAGAO  CARDONE  ALVA                                        000000000330000000000000000000000000000089697936000000800000000ALTA 10 2012   201210202012092500000000054920000134632000000000137594000000000000000000000000002962050000000000  3020121024   01          2                                                                                   3947901700000051050080010129                                                  N                     01321  0000000        000041
12009419898000101LUSITANO INDUSTRIA C E P LTDA                                         00000000341000000000000000000000000000008653882000000090000757101 10137 2     201209192012081500000000054610000035135000000000039230000000000000000000000000004095050000000000  3020121024   01          2                                                                                   3109000075716001160072300049                                                  N                     01321  0000000        000042
12010824619000174ALVALOG TRANSPORTES E LOGISTIC                                        000000000330000000000000000000000000000090581011000000910000000ID272407       201211062012102200000000055090000107653000000000107653000000000000000000000000000000050000000000  3020121106   01FS        1                                                                                   3946239400000000057591010179                                                  N                     01321  0000000        000043
12012006058000121WEG TINTAS LTDA                                                       0000000023702727800000000001309 00000000878206040090225400000780016517201     201210212012090600000000054930000459854000000000461693000000000000000000000000001839050000000000  3020121024   01          2  R JUNO  533                                                                      3                         000000000000000                                     N                     00598  0000000        000044
12012006058000121WEG TINTAS LTDA                                                       0000000023702727800000000001309 00000000870177480090224100000970016248001     201210112012082700000000054830000306569000000000311873000000000000000000000000005304050000000000  3020121024   01          2  R JUNO  533                                                                      3                         000000000000000                                     N                     00598  0000000        000045
12012006058000121WEG TINTAS LTDA                                                       0000000023702727800000000001309 00000000854049550090221200001010015513002     201209252012072700000000054670000459854000000000477631000000000000000000000000017777050000000000  3020121024   01          2  R JUNO  533                                                                      3                         000000000000000                                     N                     00598  0000000        000046
12012006058000121WEG TINTAS LTDA                                                       0000000023702727800000000001309 00000000854049560090221200001020015513003     201210102012072700000000054820000459992000000000468574000000000000000000000000008582050000000000  3020121024   01          2  R JUNO  533                                                                      3                         000000000000000                                     N                     00598  0000000        000047
12012006058000121WEG TINTAS LTDA                                                       0000000023702727800000000001309 00000000856071260090221400000830015587302     201209292012073100000000054710000459854000000000475179000000000000000000000000015325050000000000  3020121024   01          2  R JUNO  533                                                                      3                         000000000000000                                     N                     00598  0000000        000048
12012006058000121WEG TINTAS LTDA                                                       0000000023702727800000000001309 00000000856071270090221400000840015587303     201210142012073100000000054860000459992000000000466122000000000000000000000000006130050000000000  3020121024   01          2  R JUNO  533                                                                      3                         000000000000000                                     N                     00598  0000000        000049
12012006058000121WEG TINTAS LTDA                                                       0000000023702727800000000001309 00000000861207270090222200000910015775002     201210072012080800000000054790000306569000000000313505000000000000000000000000006936050000000000  3020121024   01          2  R JUNO  533                                                                      3                         000000000000000                                     N                     00598  0000000        000050
12012006058000121WEG TINTAS LTDA                                                       0000000023702727800000000001309 00000000861207280090222200000920015775003     201210222012080800000000054940000306662000000000307478000000000000000000000000000816050000000000  3020121024   01          2  R JUNO  533                                                                      3                         000000000000000                                     N                     00598  0000000        000051
12012006058000121WEG TINTAS LTDA                                                       0000000023702727800000000001309 00000000864554440090222800000730015908401     201209282012081400000000054700000306569000000000317177000000000000000000000000010608050000000000  3020121024   01          2  R JUNO  533                                                                      3                         000000000000000                                     N                     00598  0000000        000052
12012006058000121WEG TINTAS LTDA                                                       0000000023702727800000000001309 00000000864554450090222800000740015908402     201210132012081400000000054850000306569000000000311057000000000000000000000000004488050000000000  3020121024   01          2  R JUNO  533                                                                      3                         000000000000000                                     N                     00598  0000000        000053
12012006058000121WEG TINTAS LTDA                                                       0000000023702727800000000001309 00000000868126340090223500001170016086601     201210052012082100000000054770000306569000000000314321000000000000000000000000007752050000000000  3020121024   01          2  R JUNO  533                                                                      3                         000000000000000                                     N                     00598  0000000        000054
12012006058000121WEG TINTAS LTDA                                                       0000000023702727800000000001309 00000000868126350090223500001180016086602     201210202012082100000000054920000306569000000000308201000000000000000000000000001632050000000000  3020121024   01          2  R JUNO  533                                                                      3                         000000000000000                                     N                     00598  0000000        000055
12012006058000121WEG TINTAS LTDA                                                       0000000023702727800000000001309 00000000844839240090219500000730015168703     201209252012071200000000054670000306662000000000318494000000000000000000000000011832050000000000  3020121024   01          2  R JUNO  533                                                                      3                         000000000000000                                     N                     00598  0000000        000056
12012006058000121WEG TINTAS LTDA                                                       0000000023702727800000000001309 00000000847452160090220000000930015248103     201209302012071700000000054720000306662000000000316454000000000000000000000000009792050000000000  3020121024   01          2  R JUNO  533                                                                      3                         000000000000000                                     N                     00598  0000000        000057
12012006058000121WEG TINTAS LTDA                                                       0000000023702727800000000001309 00000000849855340090220500001220015343103     201210032012072000000000054750000306662000000000315230000000000000000000000000008568050000000000  3020121024   01          2  R JUNO  533                                                                      3                         000000000000000                                     N                     00598  0000000        000058
12012006058000121WEG TINTAS LTDA                                                       0000000023702727800000000001309 00000000872318650090224700001030016359601     201210152012083100000000054870000459854000000000465371000000000000000000000000005517050000000000  3020121024   01          2  R JUNO  533                                                                      3                         000000000000000                                     N                     00598  0000000        000059
12012707981000190MAC CINTAS E A CARGAS LTDA ME                                         000000003410000000000000000000000000000088957850000000242876074609            201210182012092500000000054900000072500000000000073658000000000000000000000000001158050000000000  3020121024   01          2                                                                                   3112428760741068283895800029                                                  N                     01321  0000000        000060
12014775592000128HELIO ADRIANO DA SILVA ME                                             0000000003300000000000000000000000000000887698150000005800000008682           201210102012092100000000054820000040000000000000041173000000000000000000000000001173050000000000  3020121024   01          2                                                                                   3956114740000000000058010159                                                  N                     01321  0000000        000061
12014978305000187MOGI FILME INDUSTRIA E COMERCI                                        0000000023700402200000001055003 0000000088599905009022640000016351            201210202012092000000000054920000139691000000000142471000000000000000000000000002780050000000000  3020121024   01          2  RUA TAMAINDE 1410 VL NOVA MANCHESTER                                             3                         000000000000000                                     N                     00598  0000000        000062
12016802308000190TRANSMARRECO LTDA                                                     000000000330000000000000000000000000000088769814000000640000000353 12         201210052012092100000000054770000106581000000000114793000000000000000000000000008212050000000000  3020121024   01          2                                                                                   3907636240000000643564010119                                                  N                     01321  0000000        000063
12035820448000136WHITE MARTINS GASES INDUSTRIAI                                        0000000023700026400000003937925 0000000088686659009022650001000382942 001     201210182012092100000000054900000121725000000000124405000000000000000000000000002680050000000000  3020121024   01          2  RUA GANGES  528                                                                  3                         000000000000000                                     N                     00598  0000000        000064
12035820448000136WHITE MARTINS GASES INDUSTRIAI                                        0000000023700026400000003937925 0000000087067052009022420002594374120 001     201209252012082900000000054670000113610000000000120261000000000000000000000000006651050000000000  3020121024   01          2  RUA GANGES  528                                                                  3                         000000000000000                                     N                     00598  0000000        000065
12035820448000136WHITE MARTINS GASES INDUSTRIAI                                        0000000023700026400000003937925 0000000088191338009022570001466379316 001     201210092012091300000000054810000085208000000000087332000000000000000000000000002124050000000000  3020121024   01          2  RUA GANGES  528                                                                  3                         000000000000000                                     N                     00598  0000000        000066
12035820448000136WHITE MARTINS GASES INDUSTRIAI                                        0000000023700026400000003937925 0000000088524829009022630001577381808 001     201210162012091900000000054880000121725000000000124487000000000000000000000000002762050000000000  3020121024   01          2  RUA GANGES  528                                                                  3                         000000000000000                                     N                     00598  0000000        000067
12035820448000136WHITE MARTINS GASES INDUSTRIAI                                        0000000023700026400000003937925 0000000087820600009022540001838377866 001     201210042012090700000000054760000202876000000000208293000000000000000000000000005417050000000000  3020121024   01          2  RUA GANGES  528                                                                  3                         000000000000000                                     N                     00598  0000000        000068
12035820448000136WHITE MARTINS GASES INDUSTRIAI                                        0000000023700026400000003937925 0000000088957851009022700001298384214 001     201210232012092600000000054950000121725000000000124200000000000000000000000000002475050000000000  3020121024   01          2  RUA GANGES  528                                                                  3                         000000000000000                                     N                     00598  0000000        000069
12035820448000136WHITE MARTINS GASES INDUSTRIAI                                        0000000023700026400000003937925 0000000087168275009022440000143375351 001     201209272012083100000000054690000040575000000000042844000000000000000000000000002269050000000000  3020121024   01          2  RUA GANGES  528                                                                  3                         000000000000000                                     N                     00598  0000000        000070
12042956441000101SOLUCOES ACO USIMINAS                                                 0000000034100000000000000000000000000000856906410000002262886280017266201     201208282012073000000000054390000119472000000000133095000000000000000000000000013623050000000000  3020121024   01          2                                                                                   3112262886289293807258000089                                                  N                     01321  0000000        000071
12042956441000101SOLUCOES ACO USIMINAS                                                 0000000034100000000000000000000000000000856906420000002262886290017266301     201208282012073000000000054390000145069000000000161599000000000000000000000000016530050000000000  3020121024   01          2                                                                                   3112262886297293807258000099                                                  N                     01321  0000000        000072
12042956441000101SOLUCOES ACO USIMINAS                                                 0000000034100000000000000000000000000000859590620000002274469790017353702     201209282012080300000000054700000081053000000000085265000000000000000000000000004212050000000000  3020121024   01          2                                                                                   3112274469793293807258000069                                                  N                     01321  0000000        000073
12042956441000101SOLUCOES ACO USIMINAS                                                 0000000034100000000000000000000000000000850740480000002233586820017101202     201209142012071900000000054560000144634000000000156194000000000000000000000000011560050000000000  3020121024   01          2                                                                                   3112233586828293807258000029                                                  N                     01321  0000000        000074
12042956441000101SOLUCOES ACO USIMINAS                                                 0000000034100000000000000000000000000000853154840000002246247030017196702     201209202012072500000000054620000234841000000000250821000000000000000000000000015980050000000000  3020121024   01          2                                                                                   3112246247038293807258000099                                                  N                     01321  0000000        000075
12042956441000101SOLUCOES ACO USIMINAS                                                 0000000034100000000000000000000000000000853154850000002246247040017197302     201209202012072500000000054620000970103000000001036063000000000000000000000000065960050000000000  3020121024   01          2                                                                                   3112246247046293807258000019                                                  N                     01321  0000000        000076
12042956441000101SOLUCOES ACO USIMINAS                                                 0000000034100000000000000000000000000000855028690000002254329380017212902     201209212012072600000000054630000140098000000000149338000000000000000000000000009240050000000000  3020121024   01          2                                                                                   3112254329389293807258000019                                                  N                     01321  0000000        000077
12042956441000101SOLUCOES ACO USIMINAS                                                 0000000034100000000000000000000000000000848180700000002220192900017041002     201209112012071700000000054530000155433000000000168806000000000000000000000000013373050000000000  3020121024   01          2                                                                                   3112220192903293807258000029                                                  N                     01321  0000000        000078
12042956441000101SOLUCOES ACO USIMINAS                                                 0000000034100000000000000000000000000000848180710000002220192910017041202     201209112012071700000000054530000205421000000000223094000000000000000000000000017673050000000000  3020121024   01          2                                                                                   3112220192911293807258000019                                                  N                     01321  0000000        000079
12042956441000101SOLUCOES ACO USIMINAS                                                 0000000034100000000000000000000000000000850740460000002233586800017127201     201208202012072000000000054310000137881000000000155821000000000000000000000000017940050000000000  3020121024   01          2                                                                                   3112233586802293807258000019                                                  N                     01321  0000000        000080
12042956441000101SOLUCOES ACO USIMINAS                                                 0000000034100000000000000000000000000000850740470000002233586810017101002     201209142012071900000000054560000732575000000000791175000000000000000000000000058600050000000000  3020121024   01          2                                                                                   3112233586810293807258000019                                                  N                     01321  0000000        000081
12042956441000101SOLUCOES ACO USIMINAS                                                 0000000034100000000000000000000000000000846595700000002210880280016980502     201209102012071200000000054520000156071000000000169799000000000000000000000000013728050000000000  3020121024   01          2                                                                                   3112210880285293807258000039                                                  N                     01321  0000000        000082
12042956441000101SOLUCOES ACO USIMINAS                                                 0000000034100000000000000000000000000000846595710000002210880290016980602     201209102012071200000000054520000426094000000000463582000000000000000000000000037488050000000000  3020121024   01          2                                                                                   3112210880293293807258000019                                                  N                     01321  0000000        000083
12042956441000101SOLUCOES ACO USIMINAS                                                 0000000034100000000000000000000000000000847452070000002216130350005922202     201209102012071600000000054520000172071000000000187207000000000000000000000000015136050000000000  3020121024   01          2                                                                                   3112216130354293807258000049                                                  N                     01321  0000000        000084
12042956441000101SOLUCOES ACO USIMINAS                                                 0000000034100000000000000000000000000000847452100000002216130340017012402     201209102012071500000000054520000147428000000000160408000000000000000000000000012980050000000000  3020121024   01          2                                                                                   3112216130347293807258000059                                                  N                     01321  0000000        000085
12042956441000101SOLUCOES ACO USIMINAS                                                 0000000034100000000000000000000000000000855028700000002254329390017213002     201209212012072600000000054630000140602000000000149875000000000000000000000000009273050000000000  3020121024   01          2                                                                                   3112254329397293807258000089                                                  N                     01321  0000000        000086
12042956441000101SOLUCOES ACO USIMINAS                                                 0000000034100000000000000000000000000000855028770000002254329400017220502     201209212012072700000000054630000981022000000001045768000000000000000000000000064746050000000000  3020121024   01          2                                                                                   3112254329405293807258000099                                                  N                     01321  0000000        000087
12043217850000159IOB INFORMACOES OBJ  PUBL JURI                                        0000000023702374400000002958600 000000008711912800902243000063301440820F2     201209202012083000000000054620000072850000000000075123000000000000000000000000002273050000000000  3020121024   01          2  R GANGES 528                                                                     3                         000000000000000                                     N                     00598  0000000        000088
12043298975000150JOMARCA INDL DE PARAFUSOS LTDA                                        0000000003300000000000000000000000000000881032800000005900000000157168 01     201210112012091100000000054830000474500000000000477347000000000000000000000000003321050000000000  3020121016   05          3                                                                                   3935059520000000508659010429                                                  N                     01321  0000000        000089
12045351418000181TRANSP RODOR LTDA                                                     000000003410000000000000000000000000000089697942000000246544071301818  01     201210192012100500000000054910000023097000000000023557000000000000000000000000000460050000000000  3020121024   01          2                                                                                   3112465440710005820000700069                                                  N                     01321  0000000        000090
12045987005000198D PASCHOAL AUTOMOTIVA LTDA                                            0000000023702002800000000147001 00000000886866600110000000171650000000036     201210192012091900000000054910000032500000000000033360000000000000000000000000000860050000000000  3020121024   01          2  R   TAMAINDE                       01410                                         3                         000000000000000                                     N                     00598  0000000        000091
12047190731000100DE CASTRO LOUR ENG IND LTDA                                           00000000341000000000000000000000000000008782050900000023399953503026612 0     201209182012082100000000054600001111489000000001190185000000000000000000000000078696050000000000  3020121024   01          2                                                                                   3112339995352036884500400019                                                  N                     01321  0000000        000092
12047190731000100DE CASTRO LOUR ENG IND LTDA                                           00000000341000000000000000000000000000008782051200000023399953803026613 0     201209182012082100000000054600001107989000000001186433000000000000000000000000078444050000000000  3020121024   01          2                                                                                   3112339995386036884500400039                                                  N                     01321  0000000        000093
12047190731000100DE CASTRO LOUR ENG IND LTDA                                           00000000341000000000000000000000000000008782051600000023399954103026614 0     201209182012082100000000054600001047621000000001121781000000000000000000000000074160050000000000  3020121024   01          2                                                                                   3112339995410036884500400039                                                  N                     01321  0000000        000094
12047190731000100DE CASTRO LOUR ENG IND LTDA                                           00000000341000000000000000000000000000008782052000000023399955303026632 0     201209192012082200000000054610000952073000000001017593000000000000000000000000065520050000000000  3020121024   01          2                                                                                   3112339995535036884500400019                                                  N                     01321  0000000        000095
12047190731000100DE CASTRO LOUR ENG IND LTDA                                           00000000341000000000000000000000000000008782052100000023399955903026643 0     201209202012082300000000054620000867039000000000925009000000000000000000000000057970050000000000  3020121024   01          2                                                                                   3112339995592036884500400049                                                  N                     01321  0000000        000096
12047190731000100DE CASTRO LOUR ENG IND LTDA                                           00000000341000000000000000000000000000008782052500000023399955603026636 0     201209192012082200000000054610000940804000000001005554000000000000000000000000064750050000000000  3020121024   01          2                                                                                   3112339995568036884500400049                                                  N                     01321  0000000        000097
12047190731000100DE CASTRO LOUR ENG IND LTDA                                           00000000341000000000000000000000000000008782052700000023399956203026648 0     201209202012082300000000054620000976053000000001041333000000000000000000000000065280050000000000  3020121024   01          2                                                                                   3112339995626036884500400029                                                  N                     01321  0000000        000098
12048775225000146SEIKI IND COM E CONFECCOES LTD                                        000000003410000000000000000000000000000089337376000000244697151014914001      201210232012092500000000054950000052000000000000052078000000000000000000000000000078050000000000  3020121024   01          2                                                                                   3112446971510017444824100089                                                  N                     01321  0000000        000099
12051180370000199IGUAFER FERRO E ACO LTDA                                              0000000034100000000000000000000000000000852309100000002239389789443 B         201209022012071800000000054440000168275000000000182835000000000000000000000000014560050000000000  3020121024   01          2                                                                                   3112239389789077149484600089                                                  N                     01321  0000000        000100
12051180370000199IGUAFER FERRO E ACO LTDA                                              0000000034100000000000000000000000000000852309110000002239389799443 C         201209122012071800000000054540000168275000000000180035000000000000000000000000011760050000000000  3020121024   01          2                                                                                   3112239389797077149484600089                                                  N                     01321  0000000        000101
12053585766000141MULTIACOS I C PRODS TEC LTDA                                          0000000042200000000000000000000000000000887697940000000000000000004612202     201210232012092000000000054950000214553000000000214910000000000000000000000000000357050000000000  3020121024   01          2                                                                                   3711500005033164923629629119                                                  N                     01321  0000000        000102
12053585766000141MULTIACOS I C PRODS TEC LTDA                                          0000000042200000000000000000000000000000895189380000000000000000004595002     201210192012100200000000054910000695717000000000701516000000000000000000000000005799050000000000  3020121024   01          2                                                                                   3711500005033164927761840159                                                  N                     01321  0000000        000103
12053585766000141MULTIACOS I C PRODS TEC LTDA                                          0000000042200000000000000000000000000000895189400000000000000000004594902     201210192012100200000000054910000141441000000000142620000000000000000000000000001179050000000000  3020121024   01          2                                                                                   3711500005033164927761815119                                                  N                     01321  0000000        000104
12053585766000141MULTIACOS I C PRODS TEC LTDA                                          0000000042200000000000000000000000000000895189440000000000000000004604402     201210222012100200000000054940000189937000000000190570000000000000000000000000000633050000000000  3020121024   01          2                                                                                   3711500005033164927761882169                                                  N                     01321  0000000        000105
12053585766000141MULTIACOS I C PRODS TEC LTDA                                          0000000042200000000000000000000000000000883508170000000000000000004674501     201210232012091300000000054950000282316000000000282786000000000000000000000000000470050000000000  3020121024   01          2                                                                                   3711500005033164921116471119                                                  N                     01321  0000000        000106
12053585766000141MULTIACOS I C PRODS TEC LTDA                                          0000000042200000000000000000000000000000883508180000000000000000004584602     201210182012091300000000054900000339224000000000342613000000000000000000000000003389050000000000  3020121024   01          2                                                                                   3711500005033164921116527149                                                  N                     01321  0000000        000107
12053585766000141MULTIACOS I C PRODS TEC LTDA                                          0000000042200000000000000000000000000000895189480000000000000000004612002     201210232012100200000000054950000465862000000000466637000000000000000000000000000775050000000000  3020121024   01          2                                                                                   3711500005033164927761939169                                                  N                     01321  0000000        000108
12053585766000141MULTIACOS I C PRODS TEC LTDA                                          0000000042200000000000000000000000000000895189490000000000000000004595102     201210192012100200000000054910000354761000000000357715000000000000000000000000002954050000000000  3020121024   01          2                                                                                   3711500005033164927761866129                                                  N                     01321  0000000        000109
12053585766000141MULTIACOS I C PRODS TEC LTDA                                          0000000042200000000000000000000000000000895189520000000000000000004521803     201210192012100200000000054910000811642000000000818406000000000000000000000000006764050000000000  3020121024   01          2                                                                                   3711500005033164927761955199                                                  N                     01321  0000000        000110
12053585766000141MULTIACOS I C PRODS TEC LTDA                                          0000000042200000000000000000000000000000895189700000000000000000004532303     201210222012100200000000054940000257380000000000258237000000000000000000000000000857050000000000  3020121024   01          2                                                                                   3711500005033164927762102129                                                  N                     01321  0000000        000111
12053585766000141MULTIACOS I C PRODS TEC LTDA                                          0000000042200000000000000000000000000000895189750000000000000000004674601     201210232012100200000000054950000130662000000000130879000000000000000000000000000217050000000000  3020121024   01          2                                                                                   3711500005033164927762218119                                                  N                     01321  0000000        000112
12053585766000141MULTIACOS I C PRODS TEC LTDA                                          0000000042200000000000000000000000000000890457020000000000000000004604502     201210222012092500000000054940000910103000000000913136000000000000000000000000003033050000000000  3020121024   01          2                                                                                   3711500005033164925775240159                                                  N                     01321  0000000        000113
12053585766000141MULTIACOS I C PRODS TEC LTDA                                          0000000042200000000000000000000000000000883508210000000000000000004584802     201210182012091300000000054900000379244000000000383035000000000000000000000000003791050000000000  3020121024   01          2                                                                                   3711500005033164921116543159                                                  N                     01321  0000000        000114
12053585766000141MULTIACOS I C PRODS TEC LTDA                                          0000000042200000000000000000000000000000883508230000000000000000004674401     201210232012091300000000054950000397384000000000398045000000000000000000000000000661050000000000  3020121024   01          2                                                                                   3711500005033164921116501119                                                  N                     01321  0000000        000115
12053585766000141MULTIACOS I C PRODS TEC LTDA                                          0000000042200000000000000000000000000000883508270000000000000000004585402     201210182012091300000000054900001047733000000001058208000000000000000000000000010475050000000000  3020121024   01          2                                                                                   3711500005033164921116586119                                                  N                     01321  0000000        000116
12053585766000141MULTIACOS I C PRODS TEC LTDA                                          0000000042200000000000000000000000000000883508280000000000000000004539303     201210232012091300000000054950001021454000000001023155000000000000000000000000001701050000000000  3020121024   01          2                                                                                   3711500005033164921116608159                                                  N                     01321  0000000        000117
12053585766000141MULTIACOS I C PRODS TEC LTDA                                          0000000042200000000000000000000000000000883508310000000000000000004585102     201210182012091300000000054900000222786000000000225011000000000000000000000000002225050000000000  3020121024   01          2                                                                                   3711500005033164921116560119                                                  N                     01321  0000000        000118
12053585766000141MULTIACOS IND E CO                                                    0000000034100000000000000000000000000000885998970000002407458080004532103     201210222012081300000000054940000883908000000000886854000000000000000000000000002946050000000000  3020121024   01          2                                                                                   3112407458085293803748400049                                                  N                     01321  0000000        000119
12053585766000141MULTIACOS I C PRODS TEC LTDA                                          0000000042200000000000000000000000000000887697900000000000000000004612302     201210232012092000000000054950000636673000000000637733000000000000000000000000001060050000000000  3020121024   01          2                                                                                   3711500005033164923629602139                                                  N                     01321  0000000        000120
12053585766000141MULTIACOS COM DE PRODUTOS TECN                                        0000000023703398700000000011290 00000000888733100020226900000690004642101     201210162012090400000000054880000251722000000000255082000000000000000000000000003360050000000000  3020121024   01          2  RUA JUNO  533                                                                    3                         000000000000000                                     N                     00598  0000000        000121
12053585766000141MULTIACOS INDUSTRIA E COMERCIO                                        0000000000100000000000000000000000000000885248220000003067130000004478803     201210112012091800000000054830000211226000000000212986000000000000000000000000002112050000000000  3020121016   05          3                                                                                   3044073067131912000139523119                                                  N                     01321  0000000        000122
12053585766000141MULTIACOS INDUSTRIA E COMERCIO                                        0000000000100000000000000000000000000000885248230000003067140000004478903     201210112012091800000000054830000130644000000000131734000000000000000000000000001308050000000000  3020121016   05          3                                                                                   3044073067141912000139523149                                                  N                     01321  0000000        000123
12053585766000141MULTIACOS INDUSTRIA E COMERCIO                                        0000000000100000000000000000000000000000885248250000003067150000004479003     201210112012091800000000054830000831267000000000838192000000000000000000000000008310050000000000  3020121016   05          3                                                                                   3044073067151912000139523139                                                  N                     01321  0000000        000124
12054382510000108SETENTA IND E COM DE MADEIRAS                                         0000000034100000000000000000000000000000874070720000002305114064536 A         201209192012081600000000054610000191200000000000204360000000000000000000000000013160050000000000  3020121024   01          2                                                                                   3112305114061057002848000039                                                  N                     01321  0000000        000125
12054382510000108SETENTA IND E COM DE MADEIRAS                                         0000000034100000000000000000000000000000860403430000002277814474462 A         201209042012080700000000054460000191200000000000210000000000000000000000000000018800050000000000  3020121024   01          2                                                                                   3112277814474057049175300069                                                  N                     01321  0000000        000126
12054382510000108SETENTA IND E COM DE MADEIRAS                                         0000000034100000000000000000000000000000883508330000002392776804604 A         201210082012091300000000054800000116600000000000120264000000000000000000000000003664050000000000  3020121024   01          2                                                                                   3112392776806057049175300019                                                  N                     01321  0000000        000127
12056993512000150CYKLOP DO BRASIL EMBALAGENS SA                                        0000000034100000000000000000000000000000874070500000002362586810134932        201210012012090300000000054730000083607000000000090668000000000000000000000000007061050000000000  3020121024   01          2                                                                                   3112362586813025700015800019                                                  N                     01321  0000000        000128
12056993900000131CIA METALURGICA PRADA                                                 0000000034100000000000000000000000000000844839000000002201181880025629402     201209052012071100000000054470000249372000000000269756000000000000000000000000020384050000000000  3020121024   01          2                                                                                   3112201181883293800573900019                                                  N                     01321  0000000        000129
12056993900000131CIA METALURGICA PRADA                                                 0000000034100000000000000000000000000000844839010000002201181890025635302     201209052012071100000000054470000406842000000000440064000000000000000000000000033222050000000000  3020121024   01          2                                                                                   3112201181891293800573900019                                                  N                     01321  0000000        000130
12056993900000131CIA METALURGICA PRADA                                                 0000000034100000000000000000000000000000844839020000002201181900025635402     201209052012071100000000054470000208689000000000225741000000000000000000000000017052050000000000  3020121024   01          2                                                                                   3112201181909293800573900069                                                  N                     01321  0000000        000131
12056993900000131CIA METALURGICA PRADA                                                 0000000034100000000000000000000000000000844839030000002201181910025635502     201209052012071100000000054470000164780000000000178255000000000000000000000000013475050000000000  3020121024   01          2                                                                                   3112201181917293800573900029                                                  N                     01321  0000000        000132
12056993900000131CIA METALURGICA PRADA                                                 0000000034100000000000000000000000000000824820100000002102181160024711603     201208292012060600000000054400000833146000000000910930000000000000000000000000077784050000000000  3020121024   01          2                                                                                   3112102181164293800573900039                                                  N                     01321  0000000        000133
12056993900000131CIA METALURGICA PRADA                                                 0000000034100000000000000000000000000000840312930000002179478290025419302     201208282012070300000000054390000402178000000000440368000000000000000000000000038190050000000000  3020121024   01          2                                                                                   3112179478295293800573900089                                                  N                     01321  0000000        000134
12056993900000131CIA METALURGICA PRADA                                                 0000000034100000000000000000000000000000840312940000002179478300025419402     201208282012070300000000054390000322804000000000353470000000000000000000000000030666050000000000  3020121024   01          2                                                                                   3112179478303293800573900079                                                  N                     01321  0000000        000135
12056993900000131CIA METALURGICA PRADA                                                 0000000034100000000000000000000000000000855028630000002254750290026244303     201210222012072800000000054940000100683000000000101019000000000000000000000000000336050000000000  3020121024   01          2                                                                                   3112254750295293800573900049                                                  N                     01321  0000000        000136
12056993900000131CIA METALURGICA PRADA                                                 0000000034100000000000000000000000000000848180620000002218222670025829902     201209112012071700000000054530000498118000000000533808000000000000000000000000035690050000000000  3020121024   01          2                                                                                   3112218222670293800573900029                                                  N                     01321  0000000        000137
12056993900000131CIA METALURGICA PRADA                                                 0000000034100000000000000000000000000000848180630000002218222680025830002     201209112012071700000000054530000247673000000000265432000000000000000000000000017759050000000000  3020121024   01          2                                                                                   3112218222688293800573900059                                                  N                     01321  0000000        000138
12056993900000131CIA METALURGICA PRADA                                                 0000000034100000000000000000000000000000848180640000002218222690025830102     201209112012071700000000054530000207402000000000222280000000000000000000000000014878050000000000  3020121024   01          2                                                                                   3112218222696293800573900039                                                  N                     01321  0000000        000139
12056993900000131CIA METALURGICA PRADA                                                 0000000034100000000000000000000000000000848180650000002218222700025829903     201210092012071700000000054810000498119000000000510569000000000000000000000000012450050000000000  3020121024   01          2                                                                                   3112218222704293800573900019                                                  N                     01321  0000000        000140
12056993900000131CIA METALURGICA PRADA                                                 0000000034100000000000000000000000000000848180660000002218222710025830003     201210092012071700000000054810000247672000000000253867000000000000000000000000006195050000000000  3020121024   01          2                                                                                   3112218222712293800573900019                                                  N                     01321  0000000        000141
12056993900000131CIA METALURGICA PRADA                                                 0000000034100000000000000000000000000000848180670000002218222720025830103     201210092012071700000000054810000207402000000000212592000000000000000000000000005190050000000000  3020121024   01          2                                                                                   3112218222720293800573900079                                                  N                     01321  0000000        000142
12056993900000131CIA METALURGICA PRADA                                                 0000000034100000000000000000000000000000844839040000002201181920025635602     201209052012071100000000054470000339933000000000367716000000000000000000000000027783050000000000  3020121024   01          2                                                                                   3112201181925293800573900069                                                  N                     01321  0000000        000143
12056993900000131CIA METALURGICA PRADA                                                 0000000034100000000000000000000000000000844839050000002201181930025636202     201209052012071100000000054470000746213000000000807169000000000000000000000000060956050000000000  3020121024   01          2                                                                                   3112201181933293800573900019                                                  N                     01321  0000000        000144
12056993900000131CIA METALURGICA PRADA                                                 0000000034100000000000000000000000000000844839060000002201181940025644402     201209052012071100000000054470000779647000000000843298000000000000000000000000063651050000000000  3020121024   01          2                                                                                   3112201181941293800573900019                                                  N                     01321  0000000        000145
12056993900000131CIA METALURGICA PRADA                                                 0000000034100000000000000000000000000000844839140000002201181870025629302     201209052012071100000000054470000257906000000000278976000000000000000000000000021070050000000000  3020121024   01          2                                                                                   3112201181875293800573900069                                                  N                     01321  0000000        000146
12056993900000131CIA METALURGICA PRADA                                                 0000000034100000000000000000000000000000855028640000002254750300026244403     201210222012072800000000054940000084116000000000084396000000000000000000000000000280050000000000  3020121024   01          2                                                                                   3112254750303293800573900099                                                  N                     01321  0000000        000147
12056993900000131CIA METALURGICA PRADA                                                 0000000034100000000000000000000000000000844839090000002201182010025636203     201210032012071100000000054750000746212000000000771092000000000000000000000000026124050000000000  3020121023   06          3                                                                                   3112201182014293800573900079                                                  N                     01321  0000000        000148
12056993900000131CIA METALURGICA PRADA                                                 0000000034100000000000000000000000000000844838960000002201181950025629303     201210032012071100000000054750000257905000000000266505000000000000000000000000009030050000000000  3020121023   06          3                                                                                   3112201181958293800573900099                                                  N                     01321  0000000        000149
12056993900000131CIA METALURGICA PRADA                                                 0000000034100000000000000000000000000000844839100000002201182020025644403     201210032012071100000000054750000779647000000000805627000000000000000000000000027279050000000000  3020121023   06          3                                                                                   3112201182022293800573900049                                                  N                     01321  0000000        000150
12056993900000131CIA METALURGICA PRADA                                                 0000000034100000000000000000000000000000844838970000002201181960025629403     201210032012071100000000054750000249372000000000257692000000000000000000000000008736050000000000  3020121023   06          3                                                                                   3112201181966293800573900019                                                  N                     01321  0000000        000151
12056993900000131CIA METALURGICA PRADA                                                 0000000034100000000000000000000000000000844838980000002201181970025635303     201210032012071100000000054750000406843000000000420403000000000000000000000000014238050000000000  3020121023   06          3                                                                                   3112201181974293800573900089                                                  N                     01321  0000000        000152
12056993900000131CIA METALURGICA PRADA                                                 0000000034100000000000000000000000000000844838990000002201181980025635403     201210032012071100000000054750000208689000000000215649000000000000000000000000007308050000000000  3020121023   06          3                                                                                   3112201181982293800573900059                                                  N                     01321  0000000        000153
12056993900000131CIA METALURGICA PRADA                                                 0000000034100000000000000000000000000000844839070000002201181990025635503     201210032012071100000000054750000164779000000000170279000000000000000000000000005775050000000000  3020121023   06          3                                                                                   3112201181990293800573900019                                                  N                     01321  0000000        000154
12056993900000131CIA METALURGICA PRADA                                                 0000000034100000000000000000000000000000844839080000002201182000025635603     201210032012071100000000054750000339934000000000351274000000000000000000000000011907050000000000  3020121023   06          3                                                                                   3112201182006293800573900069                                                  N                     01321  0000000        000155
12057029431000106ATLAS COPCO BRASIL LTDA                                               0000000034100000000000000000000000000000863731640000002292733057000054146     201209072012081000000000054490000081450000000000083988000000000000000000000000002538050000000000  3020121024   01          2                                                                                   3112292733055293804111400099                                                  N                     01321  0000000        000156
12057029431000106ATLAS COPCO BRASIL LTDA                                               0000000034100000000000000000000000000000861960280000002283943487000054090     201209062012080900000000054480000059490000000000061362000000000000000000000000001872050000000000  3020121024   01          2                                                                                   3112283943481293804111400069                                                  N                     01321  0000000        000157
12059659615000177DZ COMERCIO R E SERVICOS LTDA                                         000000003410000000000000000000000000000086699205000000900000268252            201209172012081500000000054590000060000000000000064440000000000000000000000000004440050000000000  3020121024   01          2                                                                                   3109000002680000314585100059                                                  N                     01321  0000000        000158
12061217188000119TELAS METALICAS TELMETAL LTDA                                         0000000000100000000000000000000000000000895189310000000057740005728 1 1       201210222012100300000000054940000037558000000000037558000000000000000000000000000000050000000000  3020121022   06          3                                                                                   3000000115031800000057741779                                                  N                     01321  0000000        000159
12062510367000102ITANHAEM TRANSP DE MAQUINAS LT                                        000000003410000000000000000000000000000087407049000000236463199667            201209202012090400000000054620000248220000000000281982000000000000000000000000033762050000000000  3020121024   01          2                                                                                   3112364631997005770252400049                                                  N                     01321  0000000        000160
12064952757000168WALMAC COM DE PROD QUIMICOS LT                                        0000000034100000000000000000000000000000860403450000002275821700020148        201210052012080300000000054770000219267000000000227456000000000000000000000000008189050000000000  3020121024   01          2                                                                                   3112275821703064807961400029                                                  N                     01321  0000000        000161
12064952757000168WALMAC COM DE PROD QUIMICOS LT                                        0000000034100000000000000000000000000000860403460000002275821710020148        201208312012080300000000054420000219267000000000242541000000000000000000000000023274050000000000  3020121024   01          2                                                                                   3112275821711064807961400079                                                  N                     01321  0000000        000162
12065000655000105HILTI DO BRASIL COMERCIAL LTDA                                        0000000023703396000000000243787 00000000871682760090224400001640002179001     201209272012082800000000054690000019742000000000020795000000000000000000000000001053050000000000  3020121024   01          2  RUA TAMAINDE 1410                                                                3                         000000000000000                                     N                     00598  0000000        000163
12065611451000100SUPERDIN COMERCIAL E IMPORTADO                                        0000000023700890700000000004502 0000000089434422009022770000008   006798A     201210222012092400000000054940000034360000000000034588000000000000000000000000000228050000000000  3020121024   01          2  R TAMAINDE 1410                                                                  3                         000000000000000                                     N                     00598  0000000        000164
12066841552000130R V SEG PATRIMONIAL S C LTDA                                          00000000341000000000000000000000000000008887329800000090002213622136          201210102012091100000000054820000374758000000000376508000000000000000000000000001750050000000000  3020121024   01          2                                                                                   3109000221365001838994000069                                                  N                     01321  0000000        000165
12066841552000130R V SEG PATRIMONIAL LTDA                                              00000000341000000000000000000000000000008852483200000090002192721927          201209102012081000000000054520000483241000000000490325000000000000000000000000007084050000000000  3020121024   01          2                                                                                   3109000219270001835253400099                                                  N                     01321  0000000        000166
12069284248000128ISOCOAT TINTAS E VERNIZES LTDA                                        0000000034100000000000000000000000000000841061040000002182507930052085        201209172012070200000000054590000236130000000000259440000000000000000000000000023310050000000000  3020121024   01          2                                                                                   3112182507932077430121200019                                                  N                     01321  0000000        000167
12069309706000136F N A TRANSPORTES LTDA                                                000000003410000000000000000000000000000086615421000000900010656059068         201208302012081500000000054410000079200000000000093720000000000000000000000000014520050000000000  3020121024   01          2                                                                                   3109000106565005486932600099                                                  N                     01321  0000000        000168
12081560047000101ACEVILLE TRANSPORTES LTDA                                             000000000330000000000000000000000000000090581007000000300000000277853         201211022012102200000000055050000085000000000000085000000000000000000000000000000000050000000000  3020121105   01FS        1                                                                                   3913555200000002778530010139                                                  N                     01321  0000000        000169
12096500087000135WORKBENCH CONSULTORIA S S LTDA                                        0000000034100000000000000000000000000000878205840000007940034283118           201209272012090300000000054690000131746000000000138739000000000000000000000000006993050000000000  3020121024   01          2                                                                                   3157940034289826313803700089                                                  N                     01321  0000000        000170
900017100000000059642531                                                                                                                                                                                                                                                                                                                                                                                                                                                                01321  0000000        000171
