0000147602043799295000110ALTAMIRA INDUSTRIA METALURGICA LT       202000000047120121024111212             2                                                                                                  000000000000000                                                                                                                                                                                                                                                                                   000001
12043799295000110ALTAMIRA INDUSTRIA METAL LTDA                                         0000000003303809500000130004071 I000000000010070000000000000000               201210240000000000000000000000000000000000000004800000000000000000000000000000000000050000000001  0820121024   01HF        5001109000000007658736000000000000000                                               3D0000000101                               01                                 S                     01133 10020256        000002
12000867888000164TECNEQUIP TECNOLOGIA EQUIP LTD                                        0000000003303809500000130003245 I000000000010072000000000000000               201210240000000000000000000000000000000000000000900000000000000000000000000000000000050000000003  0820121024   01HF        5001109000000008558736000000000000000                                               3C0000000101                               03                                 N                     01076 10020256        000003
12043799295000110ALTAMIRA INDUSTRIA METAL LTDA                                         0000000034100467 00000000209128 I000000000010071000000000000000               201210240000000000000000000000000000000000000000400000000000000000000000000000000000050000000002  0820121024   01HF        5001109000000008958736000000000000000                                               3D0000000101                               02                                 S                     01133 10020256        000004
900000500000000006100000                                                                                                                                                                                    000000000000000                                                                                                                                                                                                                                                    00000300000000000000000        000005
