0000147602043799295000110ALTAMIRA INDUSTRIA METALURGICA LT       202000000179220120724212750             3                                                                                                  000000000000000                                                                                                                                                                                                                                                                                   000001
12006000195000156MBA MERCANTIL BRASIL ACO LTDA                                         0000000023700118000000002130599 I000000000009256002021250000010               201207240000000000000000054040000932217000000000932217000000000000000000000000000000010000007991  3120120724   02BW        5000000               000000000000000                                               3011802212500000100213059099               07991/03                           N                     01079 10020256        000002
12012006058000121WEG TINTAS LTDA                                                       0000000023702727800000000001309 I000000000009259009021320000066               201207240000000000000000054040000306662000000000306662000000000000000000000000000000010000136727  3120120724   02BW        5000000               000000000000000                                               3272709213200000660000130049               0136727/03                         N                     01079 10020256        000003
12012006058000121WEG TINTAS LTDA                                                       0000000023702727800000000001309 00000000816971070090214900001010014046002     201207242012052500000000054040000085593000000000085593000000000000000000000000000000050000000000  3020120724   02BW        2000000               000000000000000                                               3                         000000000000000  0140460/02                         N                     01079 10020256        000004
12014309992000148WEG DRIVES   CONTROLS   AUTOMA                                        0000000023702727800000000001872 00000000799338100090211700002190004866101     201207242012042500000000054040000027620000000000027620000000000000000000000000000000050000000000  3020120724   02BW        2000000               000000000000000                                               3                         000000000000000  048661/01                          N                     01079 10020256        000005
12002504770000105ACOS FINOS TARUMA LTDA                                                0000000023701311000000000467200 000000008394527400902186000003000019960 A     201207242012062600000000054040000038443000000000038443000000000000000000000000000000050000000000  3020120724   02BW        2000000               000000000000000                                               3                         000000000000000  019960/01                          N                     01079 10020256        000006
12035820448000136WHITE MARTINS GASES INDUSTRIAI                                        0000000023700026400000003937925 0000000083482060009021790000555344810 001     201207242012062700000000054040000040575000000000040575000000000000000000000000000000050000000000  3020120724   02BW        2000000               000000000000000                                               3                         000000000000000  08671                              N                     01079 10020256        000007
12042956441000101SOLUCOES ACO USIMINAS                                                 0000000034100000000000000000000000000000819544940000002078930790016228402     201207242012052900000000054040000188456000000000188456000000000000000000000000000000050000000000  3020120724   02BW        2000000               000000000000000                                               3112078930792293807258000019               0162284/02                         N                     01132 10020256        000008
12042956441000101SOLUCOES EM ACO USIMINAS S A                                          000000000010000000000000000000000000000083562089000000087498000000167115001   201207242012062700000000054040000240734000000000240734000000000000000000000000000000050000000000  3020120724   02BW        2000000               000000000000000                                               3000000169660100000874981779               0167115/01                         N                     01132 10020256        000009
12042956441000101SOLUCOES EM ACO USIMINAS S A                                          000000000010000000000000000000000000000083562086000000087495000000167114001   201207242012062700000000054040000703221000000000703221000000000000000000000000000000050000000000  3020120724   02BW        2000000               000000000000000                                               3000000169660100000874951759               0167114/01                         N                     01132 10020256        000010
12056993512000150CYKLOP DO BRASIL EMBALAGENS SA                                        0000000034100000000000000000000000000000835620750000002159470000126618        201207242012062600000000054040000083607000000000083607000000000000000000000000000000050000000000  3020120724   02BW        2000000               000000000000000                                               3112159470007025786126000019               0126618/01                         N                     01132 10020256        000011
12056993900000131CIA METALURGICA PRADA                                                 0000000034100000000000000000000000000000820562350000002081819550024446302     201207242012052900000000054040000659127000000000659127000000000000000000000000000000050000000000  3020120724   02BW        2000000               000000000000000                                               3112081819552293800573900049               0244463/02                         N                     01132 10020256        000012
12042956441000101SOLUCOES ACO USIMINAS                                                 0000000034100000000000000000000000000000819544950000002078930770016228202     201207242012052900000000054040000169598000000000169598000000000000000000000000000000050000000000  3020120724   02BW        2000000               000000000000000                                               3112078930776293807258000039               0162282/02                         N                     01132 10020256        000013
12066899790000105FAB ART DE LATEX ESTR EP LTDA                                         0000000039900000 0000000000000  I000000000009258000000000000000               201207240000000000000000054040000370130000000000370130000000000000000000000000000000010000070239  3120120724   02BW        5000000               000000000000000                                               3175298168391125027292500189               70239/02                           N                     01132 10020256        000014
12000211092000159AGARI COM TINTAS E FERR LTDA                                          0000000010400000 0000000000000  I000000000009260000000000000000               201207240000000000000000054040000031690000000000031690000000000000000000000000000000010000000138  3120120724   02BW        5000000               000000000000000                                               3001013128870000000000008469               0138                               N                     01132 10020256        000015
12006000195000156MBA MERCANTIL BRASIL ACO LTDA                                         0000000000100000 0000000000000  I000000000009257000000000000000               201207240000000000000000054040000742135000000000742135000000000000000000000000000000010000008655  3120120724   02BW        5000000               000000000000000                                               3043852571583333000105251129               08655/01                           N                     01132 10020256        000016
12010543507000145MAJOR CORTEZ CONFECCAO E COMER                                        000000003410000000000000000000000000000083562094000000613506779148            201207242012062800000000054040000022320000000000022320000000000000000000000000000000050000000000  3020120724   02BW        2000000               000000000000000                                               3156135067795074662673800029               0148                               N                     01132 10020256        000017
900001800000000004642128                                                                                                                                                                                    000000000000000                                                                                                                                                                                                                                                    00001600864640004642128        000018
