0000147602043799295000110ALTAMIRA INDUSTRIA METALURGICA LT       202000000008920120724060423             1                                                                                                                                                                                                                                                                                                                                                                                                    000001
12001784706000154TRANSPORTES WARTHA LTDA                                               0000000023701775200000000260010 0000000084172565009021910000314SAO2553051     201207302012070920120730054100000107094000000000098000000000000009094000000000000000050000000000  3020120730   01          2  RUA JUNO 533                                                                     300000000000909400000016  000000000000000                                     N                     00598  0000000        000002
12002503185000182ANDAIMES MAQUINAS BIG LTDA EPP                                        0000000034100000000000000000000000000000849855270000002226334124889           201208132012072000000000054240000016500000000000016500000000000000000000000000000000050000000000  3020120813   01FS        1                                                                                   3112226334129650303800900019                                                  N                     01321  0000000        000003
12003807192000130HELIO MATERIAIS PARA SOLDAS LT                                        0000000023700298400000002087111 0000000084985531009013220101191S000001149     201208172012071900000000054280000022800000000000022800000000000000000000000000000000050000000000  3020120817   01FS        1  RUA TAMAINDE 1410                                                                3                         000000000000000                                     N                     00598  0000000        000004
12006209559000102MAZURKY IND COM EMB LTDA                                              000000003410000000000000000000000000000084985523000000222532651009600 2       201208062012070200000000054170000084804000000000084804000000000000000000000000000000050000000000  3020120806   01FS        1                                                                                   3112225326514151434240900019                                                  N                     01321  0000000        000005
12006209559000102MAZURKY IND COM EMB LTDA                                              000000003410000000000000000000000000000084985524000000222532652009600 3       201208132012070200000000054240000084805000000000084805000000000000000000000000000000050000000000  3020120813   01FS        1                                                                                   3112225326522151434240900019                                                  N                     01321  0000000        000006
12006209559000102MAZURKY IND COM EMB LTDA                                              000000003410000000000000000000000000000084985526000000222532650009600 1       201207302012070200000000054100000084804000000000084804000000000000000000000000000000050000000000  3020120730   01FS        1                                                                                   3112225326506151434240900079                                                  N                     01321  0000000        000007
12008508119000181DINARI FOMENTO MERCANTIL LTDA                                         000000003990000000000000000000000000000084985536000000000000000155            201208092012072000000000054200000300000000000000300000000000000000000000000000000000050000000000  3020120809   01FS        1                                                                                   3175649460520198002280900189                                                  N                     01321  0000000        000008
12012006058000121WEG TINTAS LTDA                                                       0000000023702727800000000001309 00000000849855320090220500001200015343101     201209032012072000000000054450000306569000000000306569000000000000000000000000000000050000000000  3020120903   01FS        1  R JUNO  533                                                                      3                         000000000000000                                     N                     00598  0000000        000009
12012006058000121WEG TINTAS LTDA                                                       0000000023702727800000000001309 00000000849855330090220500001210015343102     201209182012072000000000054600000306569000000000306569000000000000000000000000000000050000000000  3020120918   01FS        1  R JUNO  533                                                                      3                         000000000000000                                     N                     00598  0000000        000010
12012006058000121WEG TINTAS LTDA                                                       0000000023702727800000000001309 00000000849855340090220500001220015343103     201210032012072000000000054750000306662000000000306662000000000000000000000000000000050000000000  3020121003   01FS        1  R JUNO  533                                                                      3                         000000000000000                                     N                     00598  0000000        000011
12012006058000121WEG TINTAS LTDA                                                       0000000023702727800000000001309 00000000806491900090213000000740013616503     201207222012050800000000054020000306662000000000306662000000000000000000000000000000050000000000  3020120723   06          3  R JUNO  533                                                                      3                         000000000000000                                     N                     00598  0000000        000012
12012006058000121WEG TINTAS LTDA                                                       0000000023702727800000000001309 00000000824820150090216300000870014374201     201207232012060800000000054030000459854000000000459854000000000000000000000000000000050000000000  3020120723   06          3  R JUNO  533                                                                      3                         000000000000000                                     N                     00598  0000000        000013
12042956441000101SOLUCOES ACO USIMINAS                                                 0000000034100000000000000000000000000000800928980000002981998340015659503     201207202012042600000000054000000654014000000000654014000000000000000000000000000000050000000000  3020120720   06          3                                                                                   3112981998340293807258000029                                                  N                     01321  0000000        000014
12045351418000181TRANSP RODOR LTDA                                                     000000003410000000000000000000000000000084985525000000222866599298863  01     201208032012072000000000054140000004012000000000004012000000000000000000000000000000050000000000  3020120803   01FS        1                                                                                   3112228665991005820000700049                                                  N                     01321  0000000        000015
12061186847000105PERFILADOS GRANADO LTDA                                               0000000003300000000000000000000000000000849855380000004600000005 001 A        201208152012071800000000054260000089240000000000089240000000000000000000000000000000050000000000  3020120815   01FS        1                                                                                   3917995920000003502546010419                                                  N                     01321  0000000        000016
12061217188000119TELAS METALICAS TELMETAL LTDA                                         0000000000100000000000000000000000000000849855280000000055490005358 1 3       201208172012072000000000054280000052556000000000052556000000000000000000000000000000050000000000  3020120817   01FS        1                                                                                   3000000115031800000055491739                                                  N                     01321  0000000        000017
12061217188000119TELAS METALICAS TELMETAL LTDA                                         0000000000100000000000000000000000000000849855290000000055500005358 2 3       201208242012072000000000054350000052555000000000052555000000000000000000000000000000050000000000  3020120824   01FS        1                                                                                   3000000115031800000055501729                                                  N                     01321  0000000        000018
12061217188000119TELAS METALICAS TELMETAL LTDA                                         0000000000100000000000000000000000000000849855300000000055510005358 3 3       201208312012072000000000054420000052555000000000052555000000000000000000000000000000050000000000  3020120831   01FS        1                                                                                   3000000115031800000055511779                                                  N                     01321  0000000        000019
12062173661000176INDUFIX IND E COM LTDA                                                0000000023704130000000000085898 000000008498553500702205000012000035860 A     201208152012071600000000054260000067554000000000067554000000000000000000000000000000050000000000  3020120815   01FS        1  RUA GANGES 528                                                                   3                         000000000000000                                     N                     00598  0000000        000020
12087867545000188TRANSPORTADORA ROCHA LTDA                                             00000000033000000000000000000000000000008498553700000096000000014880001       201208022012071400000000054130000066474000000000066474000000000000000000000000000000050000000000  3020120802   01FS        1                                                                                   3905395200000001347896010169                                                  N                     01321  0000000        000021
12092693118000160BRADESCO SAUDE S A                                                    0000000023700448000000001533991 00000000829780050050100702629130000000000     201207202012061800000000054000000645861000000000647525000000000000000000000000001664050000000000  3020120724   01          2                                                                                   3                         000000000000000                                     N                     00598  0000000        000022
900002300000000004064514                                                                                                                                                                                                                                                                                                                                                                                                                                                                00598  0000000        000023
