0000147602043799295000110ALTAMIRA INDUSTRIA METALURGICA LT       202000000184120120824212833             3                                                                                                  000000000000000                                                                                                                                                                                                                                                                                   000001
12006000195000156M B A MERCANTIL BRASILEIRA DE R RINCAO 220                            0365108023700118000000002128292 I000000000009626000000000000000               201208240000000000000000000000000000000000000000150849000000000000000000000000000000010000008358  0120120824   02BW        5000000               000000000000000                                               3                                          NF.NRO.08358/03                    N                     01321 10020256        000002
12006000195000156M B A MERCANTIL BRASILEIRA DE R RINCAO 220                            0365108023700118000000002128292 I000000000009625000000000000000               201208240000000000000000000000000000000000000000677504000000000000000000000000000000010000008654  0120120824   02BW        5000000               000000000000000                                               3                                          NF.NRO.08654/02                    N                     01321 10020256        000003
12047190731000100DE CASTRO LOUREIRO ENGENHARIA                                         0000000023702372800000008004412 I000000000009628009000000000636               201208240000000000000000054350000552566000000000552566000000000000000000000000000000010000025435  3120120824   02BW        5000000               000000000000000                                               3237209000000006360800441019               025435/03                          N                     01079 10020256        000004
12051598472000129ELETRICA J SANTOS                                                     0000000023702451100000000000264 I000000000009634009022060000031               201208240000000000000000054350000093023000000000093023000000000000000000000000000000010000017806  3120120824   02BW        5000000               000000000000000                                               3245109220600000310000026039               017806/01                          N                     01079 10020256        000005
12042956441000101SOLUCOES EM ACO USIMINAS S A                                          0000000034100000 0000000000000  I000000000009624000000000000000               201208240000000000000000054350001139607000000001139607000000000000000000000000000000010000161432  3120120824   02BW        5000000               000000000000000                                               3181529407158293807258000019               0161432/03                         N                     01132 10020256        000006
12056993900000131CIA METALURGICA PRADA                                                 0000000034100000 0000000000000  I000000000009638000000000000000               201208240000000000000000054350000662423000000000662423000000000000000000000000000000010000244463  3120120824   02BW        5000000               000000000000000                                               3181529409801293800573900029               0244463/03                         N                     01132 10020256        000007
12002503185000182ANDAIMES MAQUINAS BIG LTDA                                            0000000000100000 0000000000000  I000000000009637000000000000000               201208240000000000000000054350000026588000000000026588000000000000000000000000000000010000011516  3120120824   02BW        5000000               000000000000000                                               3000000187782308250653521719               011516                             N                     01132 10020256        000008
12009259079000144SAFRA COMERCIAL DE PAPEIS LTDA                                        0000000003300000 0000000000000  I000000000009636000000000000000               201208240000000000000000054350000024056000000000024056000000000000000000000000000000010000128569  3120120824   02BW        5000000               000000000000000                                               3918361880000000324570010479               0128569/01                         N                     01132 10020256        000009
12005151518000140BELENUS DO BRASIL LTDA                                                0000000000100000 0000000000000  I000000000009627000000000000000               201208240000000000000000054350000608925000000000608925000000000000000000000000000000010000289197  3120120824   02BW        5000000               000000000000000                                               3000000123933843930014973199               0289197/01                         N                     01132 10020256        000010
12042956441000101SOLUCOES EM ACO USIMINAS S A                                          0000000034100000 0000000000000  I000000000009630000000000000000               201208240000000000000000054350000372453000000000372453000000000000000000000000000000010000160972  3120120824   02BW        5000000               000000000000000                                               3181529407844293807258000039               0160972/03                         N                     01132 10020256        000011
12042956441000101SOLUCOES EM ACO USIMINAS S A                                          0000000034100000 0000000000000  I000000000009632000000000000000               201208240000000000000000054350000264359000000000264359000000000000000000000000000000010000160971  3120120824   02BW        5000000               000000000000000                                               3181529408693293807258000099               0160971/03                         N                     01132 10020256        000012
12002558199000101OMEGA TUBOS COM IMP E EXP LTDA                                        0000000003300000 0000000000000  I000000000009633000000000000000               201208240000000000000000054350000258611000000000258611000000000000000000000000000000010000026380  3120120824   02BW        5000000               000000000000000                                               3947509770000000088722020349               026380/02                          N                     01132 10020256        000013
12053585766000141MULTIACOS IND COM PROD TEC LTD                                        0000000000100000 0000000000000  I000000000009629000000000000000               201208240000000000000000054350000499918000000000499918000000000000000000000000000000010000043751  3120120824   02BW        5000000               000000000000000                                               3043940876861912000139523189               043751/01                          N                     01132 10020256        000014
12012006058000121WEG TINTAS LTDA                                                       0000000023702727800000000001309 I000000000009631009021880000083               201208240000000000000000054350000308609000000000308609000000000000000000000000000000010000149902  3120120824   02BW        5000000               000000000000000                                               3272709218800000830000130079               0149902/01                         N                     01079 10020256        000015
12014309992000148WEG DRIVES   CONTROLS   AUTOMA                                        0000000023702727800000000001872 I000000000009635009022080000296               201208240000000000000000054350000056348000000000056348000000000000000000000000000000010000083461  3120120824   02BW        5000000               000000000000000                                               3272709220800002960000187099               083461/01                          N                     01079 10020256        000016
900001700000000005695839                                                                                                                                                                                    000000000000000                                                                                                                                                                                                                                                    00001500706550004867486        000017
