0000147602043799295000110ALTAMIRA INDUSTRIA METALURGICA LT       202000000188420120925213158             3                                                                                                  000000000000000                                                                                                                                                                                                                                                                                   000001
12061217188000119TELAS METALICAS TELMETAL LTDA                                         0000000000100000 0000000000000  I000000000009926000000000000000               201209250000000000000000054670000075393000000000075393000000000000000000000000000000010000005532  3120120925   02BW        5000000               000000000000000                                               3000000115031800000056411739               5532/02-03.                        N                     01130 10020256        000002
12002503185000182ANDAIMES MAQUINAS BIG LTDA                                            0000000034100000 0000000000000  I000000000009925000000000000000               201209250000000000000000054670000016951000000000016951000000000000000000000000000000010000005101  3120120925   02BW        5000000               000000000000000                                               3181548012500650303800900079               5101                               N                     01130 10020256        000003
900000400000000000092344                                                                                                                                                                                    000000000000000                                                                                                                                                                                                                                                    00000200109340000092344        000004
