0000147602043799295000110ALTAMIRA INDUSTRIA METALURGICA LT       202000000019520121225055557             1                                                                                                                                                                                                                                                                                                                                                                                                    000001
12001895314000162COLETA INDUSTRIAL FIMAVAN LTDA                                        0000000034100000000000000000000000000000866992070000009002335349439           201208272012081700000000054380000123695000000000165978000000000000000000000000042283050000000000  3020121226   01          2                                                                                   3109002335346144604097200019                                                  N                     01321  0000000        000002
12003489596000123BEND FLEX I COMERCIO LTDA                                             000000003410000000000000000000000000000088599899000000171434574613            201209172012081600000000054590000585000000000000700100000000000000000000000000115100050000000000  3020121226   01          2                                                                                   3191714345748157734445800019                                                  N                     01321  0000000        000003
12003489596000123BEND FLEX I COMERCIO LTDA                                             000000003410000000000000000000000000000088350832000000171879874608            201209122012082100000000054540000695250000000000838785000000000000000000000000143535050000000000  3020121226   01          2                                                                                   3191718798744157734445800069                                                  N                     01321  0000000        000004
12004882911000140F C BRITO CARTUCHOS ME                                                00000000033000000000000000000000000000009456212900000083000000016218 A21      201301042012120700000000055680000023984000000000023984000000000000000000000000000000050000000000  3020130104   01FS        1                                                                                   3944753720000000119083010119                                                  N                     01321  0000000        000005
12005151518000140BELENUS DO BRASIL LTDA                                                000000000330000000000000000000000000000089697934000000740000000R131115432     201212242012092500000000055570000096000000000000096634000000000000000000000000000634050000000000  3020121226   01          2                                                                                   3918381050000000435074010489                                                  N                     01321  0000000        000006
12005151518000140BELENUS DO BRASIL LTDA                                                000000000330000000000000000000000000000091026579000000290000000R132008222     201212222012102300000000055550000460800000000000466882000000000000000000000000006082050000000000  3020121226   01          2                                                                                   3918381050000000498629010499                                                  N                     01321  0000000        000007
12005880850000145NEDERMAN BRASIL COM PROD EX LT                                        000000003410000000000000000000000000000086373178000000614350956002763 A       201209252012081400000000054670000289674000000000342114000000000000000000000000052440050000000000  3020121226   01          2                                                                                   3156143509568160829000100049                                                  N                     01321  0000000        000008
12006000195000156MBA MERCANTIL BRAS DE ACO LTDA                                        0000000034100000000000000000000000000000904173180000001671394430008926B03     201210122012071700000000054840000387716000000000444941000000000000000000000000057225050000000000  3020121226   01          2                                                                                   3191671394432064849251000079                                                  N                     01321  0000000        000009
12006000195000156MBA MERCANTIL BRAS DE ACO LTDA                                        0000000034100000000000000000000000000000887698090000001671394550008925B02     201209142012071700000000054560000719581000000000865326000000000000000000000000145745050000000000  3020121226   01          2                                                                                   3191671394556064849251000089                                                  N                     01321  0000000        000010
12006000195000156MBA MERCANTIL BRAS DE ACO LTDA                                        0000000034100000000000000000000000000000906662670000001671394410008920B03     201210142012071700000000054860000576584000000000659366000000000000000000000000082782050000000000  3020121226   01          2                                                                                   3191671394416064849251000039                                                  N                     01321  0000000        000011
12006000195000156MBA MERCANTIL BRAS DE ACO LTDA                                        0000000034100000000000000000000000000000887698100000001671394560008926B02     201209142012071700000000054560000387716000000000466305000000000000000000000000078589050000000000  3020121226   01          2                                                                                   3191671394564064849251000019                                                  N                     01321  0000000        000012
12006000195000156MBA MERCANTIL BRAS DE ACO LTDA                                        0000000034100000000000000000000000000000889578520000001671394540008920B02     201209162012071700000000054580000576585000000000691119000000000000000000000000114534050000000000  3020121226   01          2                                                                                   3191671394549064849251000099                                                  N                     01321  0000000        000013
12006000195000156MBA MERCANTIL BRAS DE ACO LTDA                                        0000000034100000000000000000000000000000885998980000001667238420008870B02     201209112012071600000000054530000839952000000001015064000000000000000000000000175112050000000000  3020121226   01          2                                                                                   3191667238429064849251000039                                                  N                     01321  0000000        000014
12006000195000156MBA MERCANTIL BRAS DE ACO LTDA                                        0000000034100000000000000000000000000000945621350000002707413630010788B02     201302152012122100000000056100000271740000000000271740000000000000000000000000000000050000000000  3020130215   01FS        1                                                                                   3112707413632064899001800019                                                  N                     01321  0000000        000015
12006000195000156MBA MERCANTIL BRAS DE ACO LTDA                                        0000000034100000000000000000000000000000945621360000002707413640010788B03     201303152012122100000000056380000271740000000000271740000000000000000000000000000000050000000000  3020130315   01FS        1                                                                                   3112707413640064899001800089                                                  N                     01321  0000000        000016
12006000195000156MBA MERCANTIL BRAS DE ACO LTDA                                        0000000034100000000000000000000000000000920384760000002577570460010275B01     201212102012111200000000055430000936053000000000936053000000000000000000000000000000050000000000  3020121210   05          3                                                                                   3112577570461064899001800049                                                  N                     01321  0000000        000017
12006000195000156M B A MERCANTIL BRASILEIRA DE                                         0000000023700118P00000002130599 00000000865388270020222900000480009204B03     201212132012081500000000055460000127291000000000130047000000000000000000000000002756050000000000  3020121226   01          2  RUA JUNO  533                                                                    300000000000000000001500  000000000000000                                     N                     00598  0000000        000018
12006000195000156M B A MERCANTIL BRASILEIRA DE                                         0000000023700118P00000002130599 00000000865388300020222900000510009205B03     201212142012081500000000055470000348964000000000355948000000000000000000000000006984050000000000  3020121226   01          2  RUA JUNO  533                                                                    300000000000000000001500  000000000000000                                     N                     00598  0000000        000019
12006000195000156M B A MERCANTIL BRASILEIRA DE                                         0000000023700118P00000002130599 00000000865388330020222900000540009206B03     201212152012081500000000055480000527560000000000537229000000000000000000000000009669050000000000  3020121226   01          2  RUA JUNO  533                                                                    300000000000000000001500  000000000000000                                     N                     00598  0000000        000020
12006000195000156M B A MERCANTIL BRASILEIRA DE                                         0000000023700118P00000002130599 00000000868592700020223600000030009229B03     201212132012081600000000055460000253414000000000258900000000000000000000000000005486050000000000  3020121226   01          2  RUA JUNO  533                                                                    300000000000000000001500  000000000000000                                     N                     00598  0000000        000021
12006000195000156M B A MERCANTIL BRASILEIRA DE                                         0000000023700118P00000002130599 00000000865388240020222900000450009203B03     201212122012081500000000055450000344980000000000353030000000000000000000000000008050050000000000  3020121226   01          2  RUA JUNO  533                                                                    300000000000000000001500  000000000000000                                     N                     00598  0000000        000022
12006000195000156MBA MERCANTIL BRAS DE ACO LTDA                                        0000000034100000000000000000000000000000945621390000002707413670010790B02     201302152012122100000000056100000161639000000000161639000000000000000000000000000000050000000000  3020130215   01FS        1                                                                                   3112707413673064899001800019                                                  N                     01321  0000000        000023
12006000195000156MBA MERCANTIL BRAS DE ACO LTDA                                        0000000034100000000000000000000000000000945621400000002707413620010788B01     201301182012122100000000055820000271740000000000271740000000000000000000000000000000050000000000  3020130118   01FS        1                                                                                   3112707413624064899001800039                                                  N                     01321  0000000        000024
12006000195000156MBA MERCANTIL BRAS DE ACO LTDA                                        0000000034100000000000000000000000000000945621410000002707413680010790B03     201303152012122100000000056380000161638000000000161638000000000000000000000000000000050000000000  3020130315   01FS        1                                                                                   3112707413681064899001800029                                                  N                     01321  0000000        000025
12006000195000156MBA MERCANTIL BRAS DE ACO LTDA                                        0000000034100000000000000000000000000000945621430000002707413790010801B01     201301182012122100000000055820001205609000000001205609000000000000000000000000000000050000000000  3020130118   01FS        1                                                                                   3112707413798064899001800089                                                  N                     01321  0000000        000026
12006000195000156MBA MERCANTIL BRAS DE ACO LTDA                                        0000000034100000000000000000000000000000945621420000002707413800010801B02     201302152012122100000000056100001205609000000001205609000000000000000000000000000000050000000000  3020130215   01FS        1                                                                                   3112707413806064899001800099                                                  N                     01321  0000000        000027
12006000195000156MBA MERCANTIL BRAS DE ACO LTDA                                        0000000034100000000000000000000000000000945621440000002707413810010801B03     201303152012122100000000056380001205609000000001205609000000000000000000000000000000050000000000  3020130315   01FS        1                                                                                   3112707413814064899001800079                                                  N                     01321  0000000        000028
12006000195000156MBA MERCANTIL BRAS DE ACO LTDA                                        0000000034100000000000000000000000000000945621380000002707413660010790B01     201301182012122100000000055820000161639000000000161639000000000000000000000000000000050000000000  3020130118   01FS        1                                                                                   3112707413665064899001800059                                                  N                     01321  0000000        000029
12006066698000124NOVO REINO LOGISTICA E TRANSPO                                        000000000010000000000000000000000000000094562162000000461064000065985         201301272012122100000000055910000350008000000000350008000000000000000000000000000000050000000000  3020130128   01FS        1                                                                                   3044344610641584001800001199                                                  N                     01321  0000000        000030
12006066698000124NOVO REINO LOGISTICA E TRANSPO                                        000000000010000000000000000000000000000094562160000000461077000165985         201301102012122100000000055740000350008000000000350008000000000000000000000000000000050000000000  3020130110   01FS        1                                                                                   3044344610771584001800001169                                                  N                     01321  0000000        000031
12007525020000125MULTIPLA B G  LOG LTDA                                                0000000034100000000000000000000000000000937366860000009000655840000275174     201212242012121000000000055570000015800000000000015852000000000000000000000000000052050000000000  3020121226   01          2                                                                                   3109000655840438726766100079                                                  N                     01321  0000000        000032
12008272923000104P SANTOS ESQUADRARIAS METAL ME                                        0000000034100000000000000000000000000000915734100000006159682651954           201212052012110700000000055380000408138000000000439149000000000000000000000000031011050000000000  3020121226   01          2                                                                                   3156159682654160141951600029                                                  N                     01321  0000000        000033
12009034654000291STEEL PRODUCTS DO BRASIL LTDA                                         0000000000100000000000000000000000000000914718930000005529200002470 3 3       201212232012110500000000055560000132000000000000135963000000000000000000000000003963050000000000  3020121226   01          2                                                                                   3000000221373244205529201149                                                  N                     01321  0000000        000034
12009338857000190FERNANDO  NAGAO  CARDONE  ALVA                                        000000000330000000000000000000000000000091653176000000300000000ALTA 11 2012   201211202012103000000000055230000134632000000000150522000000000000000000000000015890050000000000  3020121226   01          2                                                                                   3947901700000051051630010119                                                  N                     01321  0000000        000035
12010695186000102POWER LOGISTICA E SERVICOS LTD                                        0000000023703417700000000187089 00000000931455210090000000008580000339873     201212242012120300000000055570000034860000000000035070000000000000000000000000000210050000000000  3020121226   01          2  RUA  JUNO 533                                                                    3                         000000000000000                                     N                     00598  0000000        000036
12012006058000121WEG TINTAS LTDA                                                       0000000023702727800000000001309 00000000882668430090225800000760016626903     201211272012091300000000055300000459992000000000477769000000000000000000000000017777050000000000  3020121226   01          2  R JUNO  533                                                                      3                         000000000000000                                     N                     00598  0000000        000037
12013341816000120REAL TRANSPORTES URGENTES LTDA                                        0000000010400000000000000000000000000000936372050000000000464002363           201212212012120700000000055540000042000000000000042000000000000000000000000000000000050000000000  3020121221   06          3                                                                                   3900000004641598700000021449                                                  N                     01321  0000000        000038
12013656578000142GUARINOR TRANSP E LOGISTICA LT                                        000000001040000000000000000000000000000094562133000000001746400002459 12      201212262012120400000000055590000175697000000000175697000000000000000000000000000000050000000000  3020121226   01FS        1                                                                                   3900000174632958700000017339                                                  N                     01321  0000000        000039
12013656578000142GUARINOR TRANSP E LOGISTICA LT                                        000000001040000000000000000000000000000094562134000000001787100002536 12      201212272012120700000000055600000062812000000000062812000000000000000000000000000000050000000000  3020121227   01FS        1                                                                                   3900000178732958700000017379                                                  N                     01321  0000000        000040
12042956441000101SOLUCOES ACO USIMINAS                                                 0000000034100000000000000000000000000000945621460000002708575830019592801     201301162012121900000000055800000166745000000000166745000000000000000000000000000000050000000000  3020130116   01FS        1                                                                                   3112708575835293807258000019                                                  N                     01321  0000000        000041
12042956441000101SOLUCOES ACO USIMINAS                                                 0000000034100000000000000000000000000000945621490000002708575840019592901     201301162012121900000000055800000071635000000000071635000000000000000000000000000000050000000000  3020130116   01FS        1                                                                                   3112708575843293807258000029                                                  N                     01321  0000000        000042
12042956441000101SOLUCOES ACO USIMINAS                                                 0000000034100000000000000000000000000000945621500000002708575810019577301     201301162012121900000000055800000072034000000000072034000000000000000000000000000000050000000000  3020130116   01FS        1                                                                                   3112708575819293807258000019                                                  N                     01321  0000000        000043
12042956441000101SOLUCOES ACO USIMINAS                                                 0000000034100000000000000000000000000000945621510000002708575850019577302     201302132012121900000000056080000072012000000000072012000000000000000000000000000000050000000000  3020130213   01FS        1                                                                                   3112708575850293807258000029                                                  N                     01321  0000000        000044
12042956441000101SOLUCOES ACO USIMINAS                                                 0000000034100000000000000000000000000000945621520000002708575820019578001     201301162012121900000000055800000862278000000000862278000000000000000000000000000000050000000000  3020130116   01FS        1                                                                                   3112708575827293807258000019                                                  N                     01321  0000000        000045
12042956441000101SOLUCOES ACO USIMINAS                                                 0000000034100000000000000000000000000000945621530000002708575860019578002     201302132012121900000000056080000862020000000000862020000000000000000000000000000000050000000000  3020130213   01FS        1                                                                                   3112708575868293807258000049                                                  N                     01321  0000000        000046
12042956441000101SOLUCOES ACO USIMINAS                                                 0000000034100000000000000000000000000000945621540000002708575910019592803     201303132012121900000000056360000166696000000000166696000000000000000000000000000000050000000000  3020130313   01FS        1                                                                                   3112708575918293807258000059                                                  N                     01321  0000000        000047
12042956441000101SOLUCOES ACO USIMINAS                                                 0000000034100000000000000000000000000000945621550000002708575870019592802     201302132012121900000000056080000166695000000000166695000000000000000000000000000000050000000000  3020130213   01FS        1                                                                                   3112708575876293807258000029                                                  N                     01321  0000000        000048
12042956441000101SOLUCOES ACO USIMINAS                                                 0000000034100000000000000000000000000000945621560000002708575920019592903     201303132012121900000000056360000071613000000000071613000000000000000000000000000000050000000000  3020130313   01FS        1                                                                                   3112708575926293807258000069                                                  N                     01321  0000000        000049
12042956441000101SOLUCOES ACO USIMINAS                                                 0000000034100000000000000000000000000000945621570000002708575880019592902     201302132012121900000000056080000071614000000000071614000000000000000000000000000000050000000000  3020130213   01FS        1                                                                                   3112708575884293807258000089                                                  N                     01321  0000000        000050
12042956441000101SOLUCOES ACO USIMINAS                                                 0000000034100000000000000000000000000000945621580000002708575890019577303     201303132012121900000000056360000072013000000000072013000000000000000000000000000000050000000000  3020130313   01FS        1                                                                                   3112708575892293807258000019                                                  N                     01321  0000000        000051
12042956441000101SOLUCOES ACO USIMINAS                                                 0000000034100000000000000000000000000000945621590000002708575900019578003     201303132012121900000000056360000862020000000000862020000000000000000000000000000000050000000000  3020130313   01FS        1                                                                                   3112708575900293807258000039                                                  N                     01321  0000000        000052
12042956441000101SOLUCOES ACO USIMINAS                                                 0000000034100000000000000000000000000000853154840000002246247030017196702     201209202012072500000000054620000234841000000000280431000000000000000000000000045590050000000000  3020121226   01          2                                                                                   3112246247038293807258000099                                                  N                     01321  0000000        000053
12042956441000101SOLUCOES ACO USIMINAS                                                 0000000034100000000000000000000000000000853154850000002246247040017197302     201209202012072500000000054620000970103000000001158283000000000000000000000000188180050000000000  3020121226   01          2                                                                                   3112246247046293807258000019                                                  N                     01321  0000000        000054
12042956441000101SOLUCOES ACO USIMINAS                                                 0000000034100000000000000000000000000000855028690000002254329380017212902     201209212012072600000000054630000140098000000000166978000000000000000000000000026880050000000000  3020121226   01          2                                                                                   3112254329389293807258000019                                                  N                     01321  0000000        000055
12042956441000101SOLUCOES ACO USIMINAS                                                 0000000034100000000000000000000000000000855028700000002254329390017213002     201209212012072600000000054630000140602000000000167578000000000000000000000000026976050000000000  3020121226   01          2                                                                                   3112254329397293807258000089                                                  N                     01321  0000000        000056
12042956441000101SOLUCOES ACO USIMINAS                                                 0000000034100000000000000000000000000000846595710000002210880290016980602     201209102012071200000000054520000426094000000000517258000000000000000000000000091164050000000000  3020121226   01          2                                                                                   3112210880293293807258000019                                                  N                     01321  0000000        000057
12042956441000101SOLUCOES ACO USIMINAS                                                 0000000034100000000000000000000000000000847452070000002216130350005922202     201209102012071600000000054520000172071000000000208879000000000000000000000000036808050000000000  3020121226   01          2                                                                                   3112216130354293807258000049                                                  N                     01321  0000000        000058
12042956441000101SOLUCOES ACO USIMINAS                                                 0000000034100000000000000000000000000000855028770000002254329400017220502     201209212012072700000000054630000981022000000001169374000000000000000000000000188352050000000000  3020121226   01          2                                                                                   3112254329405293807258000099                                                  N                     01321  0000000        000059
12042956441000101SOLUCOES ACO USIMINAS                                                 0000000034100000000000000000000000000000856906410000002262886280017266201     201208282012073000000000054390000119472000000000148152000000000000000000000000028680050000000000  3020121226   01          2                                                                                   3112262886289293807258000089                                                  N                     01321  0000000        000060
12042956441000101SOLUCOES ACO USIMINAS                                                 0000000034100000000000000000000000000000856906420000002262886290017266301     201208282012073000000000054390000145069000000000179869000000000000000000000000034800050000000000  3020121226   01          2                                                                                   3112262886297293807258000099                                                  N                     01321  0000000        000061
12042956441000101SOLUCOES ACO USIMINAS                                                 0000000034100000000000000000000000000000859590620000002274469790017353702     201209282012080300000000054700000081053000000000095471000000000000000000000000014418050000000000  3020121226   01          2                                                                                   3112274469793293807258000069                                                  N                     01321  0000000        000062
12042956441000101SOLUCOES ACO USIMINAS                                                 0000000034100000000000000000000000000000846595700000002210880280016980502     201209102012071200000000054520000156071000000000189455000000000000000000000000033384050000000000  3020121226   01          2                                                                                   3112210880285293807258000039                                                  N                     01321  0000000        000063
12042956441000101SOLUCOES ACO USIMINAS                                                 0000000034100000000000000000000000000000848180700000002220192900017041002     201209112012071700000000054530000155433000000000188399000000000000000000000000032966050000000000  3020121226   01          2                                                                                   3112220192903293807258000029                                                  N                     01321  0000000        000064
12042956441000101SOLUCOES ACO USIMINAS                                                 0000000034100000000000000000000000000000848180710000002220192910017041202     201209112012071700000000054530000205421000000000248987000000000000000000000000043566050000000000  3020121226   01          2                                                                                   3112220192911293807258000019                                                  N                     01321  0000000        000065
12042956441000101SOLUCOES ACO USIMINAS                                                 0000000034100000000000000000000000000000850740470000002233586810017101002     201209142012071900000000054560000732575000000000883470000000000000000000000000150895050000000000  3020121226   01          2                                                                                   3112233586810293807258000019                                                  N                     01321  0000000        000066
12042956441000101SOLUCOES ACO USIMINAS                                                 0000000034100000000000000000000000000000850740480000002233586820017101202     201209142012071900000000054560000144634000000000174401000000000000000000000000029767050000000000  3020121226   01          2                                                                                   3112233586828293807258000029                                                  N                     01321  0000000        000067
12042956441000101SOLUCOES ACO USIMINAS                                                 0000000034100000000000000000000000000000847452100000002216130340017012402     201209102012071500000000054520000147428000000000178993000000000000000000000000031565050000000000  3020121226   01          2                                                                                   3112216130347293807258000059                                                  N                     01321  0000000        000068
12043298975000150JOMARCA INDL DE PARAFUSOS LTDA                                        0000000003300000000000000000000000000000945621300000003800000000172322 03     201303202012122000000000056430000128800000000000128800000000000000000000000000000000050000000000  3020130320   01FS        1                                                                                   3935059520000000609838010429                                                  N                     01321  0000000        000069
12043298975000150JOMARCA INDL DE PARAFUSOS LTDA                                        0000000003300000000000000000000000000000945621310000001100000000172322 01     201301192012122000000000055830000167440000000000167440000000000000000000000000000000050000000000  3020130121   01FS        1                                                                                   3935059520000000609811010419                                                  N                     01321  0000000        000070
12043298975000150JOMARCA INDL DE PARAFUSOS LTDA                                        0000000003300000000000000000000000000000945621320000002000000000172322 02     201302182012122000000000056130000128800000000000128800000000000000000000000000000000050000000000  3020130218   01FS        1                                                                                   3935059520000000609820010499                                                  N                     01321  0000000        000071
12043350099000164JMC COML ELETRICA LTDA                                                0000000023700092200000000380105 000000009286265300902333000027059752 01       201212242012112600000000055570000047400000000000047652000000000000000000000000000252050000000000  3020121226   01          2  R  GANGES  528                                                                   3                         000000000000000                                     N                     00598  0000000        000072
12047190731000100DE CASTRO LOUR ENG IND LTDA                                           00000000341000000000000000000000000000008782052400000023399956003026643 0     201211222012082300000000055250000867039000000000921599000000000000000000000000056265050000000000  3020121224   06          3                                                                                   3112339995600036884500400069                                                  N                     01321  0000000        000073
12047190731000100DE CASTRO LOUR ENG IND LTDA                                           00000000341000000000000000000000000000008782052800000023399956303026648 0     201211222012082300000000055250000976053000000001037493000000000000000000000000063360050000000000  3020121224   06          3                                                                                   3112339995634036884500400019                                                  N                     01321  0000000        000074
12047190731000100DE CASTRO LOUR ENG IND LTDA                                           00000000341000000000000000000000000000008782059400000023602715303026745 0     201211282012082900000000055310000903175000000000949351000000000000000000000000047952050000000000  3020121224   06          3                                                                                   3112360271533036884500400039                                                  N                     01321  0000000        000075
12047190731000100DE CASTRO LOUR ENG IND LTDA                                           00000000341000000000000000000000000000008782059500000023602714703026734 0     201211272012082800000000055300000997834000000001050808000000000000000000000000054936050000000000  3020121224   06          3                                                                                   3112360271475036884500400019                                                  N                     01321  0000000        000076
12047190731000100DE CASTRO LOUR ENG IND LTDA                                           00000000341000000000000000000000000000008782051600000023399954103026614 0     201209182012082100000000054600001047621000000001251561000000000000000000000000203940050000000000  3020121226   01          2                                                                                   3112339995410036884500400039                                                  N                     01321  0000000        000077
12047190731000100DE CASTRO LOUREIRO ENGENHARIA                                         00000000033000000000000000000000000000009102659000000020000000003027424 0     201212242012102900000000055570001191039000000001214860000000000000000000000000023821050000000000  3020121226   01          2                                                                                   3948430370000009555820020339                                                  N                     01321  0000000        000078
12047190731000100DE CASTRO LOUR ENG IND LTDA                                           00000000341000000000000000000000000000008782050900000023399953503026612 0     201209182012082100000000054600001111489000000001327903000000000000000000000000216414050000000000  3020121226   01          2                                                                                   3112339995352036884500400019                                                  N                     01321  0000000        000079
12047190731000100DE CASTRO LOUR ENG IND LTDA                                           00000000341000000000000000000000000000009041732300000025008465203027256 0     201212112012101600000000055440001108602000000001141302000000000000000000000000032700050000000000  3020121226   01          2                                                                                   3112500846525036884500400019                                                  N                     01321  0000000        000080
12047190731000100DE CASTRO LOUR ENG IND LTDA                                           00000000341000000000000000000000000000008782051900000023399955803026636 0     201212192012082200000000055520000941086000000000954043000000000000000000000000012957050000000000  3020121226   01          2                                                                                   3112339995584036884500400069                                                  N                     01321  0000000        000081
12047190731000100DE CASTRO LOUR ENG IND LTDA                                           00000000341000000000000000000000000000008782052000000023399955303026632 0     201209192012082200000000054610000952073000000001135529000000000000000000000000183456050000000000  3020121226   01          2                                                                                   3112339995535036884500400019                                                  N                     01321  0000000        000082
12047190731000100DE CASTRO LOUR ENG IND LTDA                                           00000000341000000000000000000000000000008782052100000023399955903026643 0     201209202012082300000000054620000867039000000001032424000000000000000000000000165385050000000000  3020121226   01          2                                                                                   3112339995592036884500400049                                                  N                     01321  0000000        000083
12047190731000100DE CASTRO LOUR ENG IND LTDA                                           00000000341000000000000000000000000000008782052300000023399955503026632 0     201212192012082200000000055520000952358000000000965469000000000000000000000000013111050000000000  3020121226   01          2                                                                                   3112339995550036884500400039                                                  N                     01321  0000000        000084
12047190731000100DE CASTRO LOUR ENG IND LTDA                                           00000000341000000000000000000000000000008782052500000023399955603026636 0     201209192012082200000000054610000940804000000001122104000000000000000000000000181300050000000000  3020121226   01          2                                                                                   3112339995568036884500400049                                                  N                     01321  0000000        000085
12047190731000100DE CASTRO LOUR ENG IND LTDA                                           00000000341000000000000000000000000000008782052700000023399956203026648 0     201209202012082300000000054620000976053000000001162293000000000000000000000000186240050000000000  3020121226   01          2                                                                                   3112339995626036884500400029                                                  N                     01321  0000000        000086
12047190731000100DE CASTRO LOUR ENG IND LTDA                                           00000000341000000000000000000000000000008782052900000023399956403026648 0     201212202012082300000000055530000976344000000000987864000000000000000000000000011520050000000000  3020121226   01          2                                                                                   3112339995642036884500400059                                                  N                     01321  0000000        000087
12047190731000100DE CASTRO LOUR ENG IND LTDA                                           00000000341000000000000000000000000000009041732500000025008465503027257 0     201212132012101600000000055460000751900000000000771127000000000000000000000000019227050000000000  3020121226   01          2                                                                                   3112500846558036884500400029                                                  N                     01321  0000000        000088
12047190731000100DE CASTRO LOUR ENG IND LTDA                                           00000000341000000000000000000000000000009041732900000025008464603027216 0     201212052012101000000000055380000225377000000000234680000000000000000000000000009303050000000000  3020121226   01          2                                                                                   3112500846467036884500400029                                                  N                     01321  0000000        000089
12047190731000100DE CASTRO LOUR ENG IND LTDA                                           00000000341000000000000000000000000000009041733100000025008464903027234 0     201212062012101100000000055390001029597000000001070097000000000000000000000000040500050000000000  3020121226   01          2                                                                                   3112500846491036884500400029                                                  N                     01321  0000000        000090
12047190731000100DE CASTRO LOUR ENG IND LTDA                                           00000000341000000000000000000000000000008782051000000023399953703026612 0     201212182012082100000000055510001111822000000001129318000000000000000000000000017496050000000000  3020121226   01          2                                                                                   3112339995378036884500400049                                                  N                     01321  0000000        000091
12047190731000100DE CASTRO LOUR ENG IND LTDA                                           00000000341000000000000000000000000000008782051100000023399954303026614 0     201212182012082100000000055510001047933000000001064421000000000000000000000000016488050000000000  3020121226   01          2                                                                                   3112339995436036884500400029                                                  N                     01321  0000000        000092
12047190731000100DE CASTRO LOUR ENG IND LTDA                                           00000000341000000000000000000000000000008782051200000023399953803026613 0     201209182012082100000000054600001107989000000001323710000000000000000000000000215721050000000000  3020121226   01          2                                                                                   3112339995386036884500400039                                                  N                     01321  0000000        000093
12047190731000100DE CASTRO LOUR ENG IND LTDA                                           00000000341000000000000000000000000000008782051400000023399954003026613 0     201212182012082100000000055510001108322000000001125762000000000000000000000000017440050000000000  3020121226   01          2                                                                                   3112339995402036884500400069                                                  N                     01321  0000000        000094
12047190731000100DE CASTRO LOUR ENG IND LTDA                                           00000000341000000000000000000000000000008782053300000023399956103026643 0     201212202012082300000000055530000867297000000000877533000000000000000000000000010236050000000000  3020121226   01          2                                                                                   3112339995618036884500400059                                                  N                     01321  0000000        000095
12047190731000100DE CASTRO LOUR ENG IND LTDA                                           00000000341000000000000000000000000000008782059900000023602715003026744 0     201211292012082900000000055320000146594000000000154370000000000000000000000000007776050000000000  3020121226   01          2                                                                                   3112360271509036884500400069                                                  N                     01321  0000000        000096
12047190731000100DE CASTRO LOUR ENG IND LTDA                                           00000000341000000000000000000000000000008996247900000024766209203027184 0     201211302012100500000000055330001153047000000001212015000000000000000000000000058968050000000000  3020121226   01          2                                                                                   3112476620920036884500400089                                                  N                     01321  0000000        000097
12048218317000125RODOENG TRANSPORTES RODOVIARIO                                        00000000001000000000000000000000000000009456216100000050359600013599 1        201301102012122100000000055740000275000000000000275000000000000000000000000000000000050000000000  3020130110   01FS        1                                                                                   3160305035961494000094531759                                                  N                     01321  0000000        000098
12048775225000146SEIKI IND COM E CONFECCOES LTD                                        000000003410000000000000000000000000000089337376000000244697151014914001      201210232012092500000000054950000052000000000000056992000000000000000000000000004992050000000000  3020121226   01          2                                                                                   3112446971510017444824100089                                                  N                     01321  0000000        000099
12051180370000199IGUAFER FERRO E ACO LTDA                                              0000000034100000000000000000000000000000852309100000002239389789443 B         201209022012071800000000054440000168275000000000200475000000000000000000000000032200050000000000  3020121226   01          2                                                                                   3112239389789077149484600089                                                  N                     01321  0000000        000100
12051180370000199IGUAFER FERRO E ACO LTDA                                              0000000034100000000000000000000000000000852309110000002239389799443 C         201209122012071800000000054540000168275000000000197675000000000000000000000000029400050000000000  3020121226   01          2                                                                                   3112239389797077149484600089                                                  N                     01321  0000000        000101
12054382510000108SETENTA IND E COM DE MADEIRAS                                         0000000034100000000000000000000000000000860403430000002277814474462 A         201209042012080700000000054460000191200000000000233688000000000000000000000000042488050000000000  3020121226   01          2                                                                                   3112277814474057049175300069                                                  N                     01321  0000000        000102
12054382510000108SETENTA IND E COM DE MADEIRAS                                         0000000034100000000000000000000000000000945621370000002707365335048 A         201301212012122000000000055850000191200000000000191200000000000000000000000000000000050000000000  3020130121   01FS        1                                                                                   3112707365337057049175300019                                                  N                     01321  0000000        000103
12055721609000141MAC SEG EQUIP DE SEGURANCA LT                                         0000000034100000000000000000000000000000926546480000002611933454182 1         201212212012112300000000055540000056250000000000056250000000000000000000000000000000050000000000  3020121221   06          3                                                                                   3112611933451037814415800099                                                  N                     01321  0000000        000104
12056993512000150CYKLOP DO BRASIL EMBALAGENS SA                                        0000000034100000000000000000000000000000874070500000002362586810134932        201210012012090300000000054730000083607000000000110009000000000000000000000000026402050000000000  3020121226   01          2                                                                                   3112362586813025700015800019                                                  N                     01321  0000000        000105
12062510367000102ITANHAEM TRANSP DE MAQUINAS LT                                        000000003410000000000000000000000000000087407049000000236463199667            201209202012090400000000054620000248220000000000344541000000000000000000000000096321050000000000  3020121226   01          2                                                                                   3112364631997005770252400049                                                  N                     01321  0000000        000106
12062539994000176LEALFER INDUSTRIA E COMERCIO D                                        0000000003300000000000000000000000000000910265800000000400000000005732502     201212202012102400000000055530000828586000000000837037000000000000000000000000008451050000000000  3020121226   01          2                                                                                   3915298380000000285404010479                                                  N                     01321  0000000        000107
12062539994000176LEALFER INDUSTRIA E COMERCIO D                                        0000000003300000000000000000000000000000893373830000000800000000005576003     201212202012092600000000055530000243236000000000245721000000000000000000000000002485050000000000  3020121226   01          2                                                                                   3915298380000000274208010419                                                  N                     01321  0000000        000108
12062539994000176LEALFER INDUSTRIA E COMERCIO D                                        0000000003300000000000000000000000000000893373840000001600000000005580303     201212202012092700000000055530000451213000000000455815000000000000000000000000004602050000000000  3020121226   01          2                                                                                   3915298380000000274216010419                                                  N                     01321  0000000        000109
12062539994000176LEALFER INDUSTRIA E COMERCIO D                                        0000000003300000000000000000000000000000893373880000005900000000005575003     201212202012092600000000055530000300979000000000304048000000000000000000000000003069050000000000  3020121226   01          2                                                                                   3915298380000000274259010429                                                  N                     01321  0000000        000110
12062539994000176LEALFER INDUSTRIA E COMERCIO D                                        0000000003300000000000000000000000000000933583060000000500000000005891201     201212242012112600000000055570000378516000000000379802000000000000000000000000001286050000000000  3020121226   01          2                                                                                   3915298380000000300705010449                                                  N                     01321  0000000        000111
12062539994000176LEALFER INDUSTRIA E COMERCIO D                                        0000000003300000000000000000000000000000933583070000005600000000005892401     201212242012112600000000055570000764925000000000767525000000000000000000000000002600050000000000  3020121226   01          2                                                                                   3915298380000000300756010479                                                  N                     01321  0000000        000112
12062539994000176LEALFER INDUSTRIA E COMERCIO D                                        0000000003300000000000000000000000000000923779470000002000000000005828801     201212212012111200000000055540001204731000000001204731000000000000000000000000000000050000000000  3020121221   06          3                                                                                   3915298380000000296520010479                                                  N                     01321  0000000        000113
12062539994000176LEALFER INDUSTRIA E COMERCIO D                                        0000000003300000000000000000000000000000923779490000003800000000005829001     201212212012111200000000055540000875881000000000875881000000000000000000000000000000050000000000  3020121221   06          3                                                                                   3915298380000000296538010499                                                  N                     01321  0000000        000114
12064952757000168WALMAC COM DE PROD QUIMICOS LT                                        0000000034100000000000000000000000000000860403450000002275821700020148        201210052012080300000000054770000219267000000000254609000000000000000000000000035342050000000000  3020121226   01          2                                                                                   3112275821703064807961400029                                                  N                     01321  0000000        000115
12065000655000105HILTI DO BRASIL COMERCIAL LTDA                                        0000000023703396000000000243787 00000000928626490090233300005210021321401     201212232012112300000000055560000189853000000000190990000000000000000000000000001137050000000000  3020121226   01          2  RUA TAMAINDE 1410                                                                3                         000000000000000                                     N                     00598  0000000        000116
12066841552000130R V SEG PATRIMONIAL LTDA                                              00000000341000000000000000000000000000008852483200000090002192721927          201209102012081000000000054520000483241000000000500468000000000000000000000000017227050000000000  3020121226   01          2                                                                                   3109000219270001835253400099                                                  N                     01321  0000000        000117
12067298349000122JOBINVEST FOMENTO MERCANTIL LT                                        000000000010000000000000000000000000000092654643000000797502000540B           201212242012112300000000055570000109609000000000110193000000000000000000000000000584050000000000  3020121226   01          2                                                                                   3161477975021204000105451729                                                  N                     01321  0000000        000118
12067647412000199ANCORA CHUMBADORES LTDA                                               000000003410000000000000000000000000000091932174000000257023549065922 1       201212222012110700000000055550000175000000000000176376000000000000000000000000001376050000000000  3020121226   01          2                                                                                   3112570235492013626917200029                                                  N                     01321  0000000        000119
12069284248000128ISOCOAT TINTAS E VERNIZES LTDA                                        0000000034100000000000000000000000000000841061040000002182507930052085        201209172012070200000000054590000236130000000000299130000000000000000000000000063000050000000000  3020121226   01          2                                                                                   3112182507932077430121200019                                                  N                     01321  0000000        000120
12069284248000128ISOCOAT TINTAS E VERNIZES LTDA                                        0000000034100000000000000000000000000000900522880000002477686990056631        201212242012101000000000055570000318064000000000319760000000000000000000000000001696050000000000  3020121226   01          2                                                                                   3112477686995077430121200089                                                  N                     01321  0000000        000121
12069284248000128ISOCOAT TINTAS E VERNIZES LTDA                                        0000000034100000000000000000000000000000908309620000002521130190057192        201212242012102400000000055570000317968000000000319664000000000000000000000000001696050000000000  3020121226   01          2                                                                                   3112521130198077430121200099                                                  N                     01321  0000000        000122
12069284248000128ISOCOAT TINTAS E VERNIZES LTDA                                        0000000034100000000000000000000000000000945621470000002706156430059690        201302182012122000000000056130000063594000000000063594000000000000000000000000000000050000000000  3020130218   01FS        1                                                                                   3112706156430077430121200019                                                  N                     01321  0000000        000123
12069284248000128ISOCOAT TINTAS E VERNIZES LTDA                                        0000000034100000000000000000000000000000945621480000002706156440059690        201303052012122000000000056280000063612000000000063612000000000000000000000000000000050000000000  3020130305   01FS        1                                                                                   3112706156448077430121200059                                                  N                     01321  0000000        000124
12069284248000128ISOCOAT TINTAS E VERNIZES LTDA                                        0000000034100000000000000000000000000000945621450000002706156420059690        201302032012122000000000055980000073134000000000073134000000000000000000000000000000050000000000  3020130204   01FS        1                                                                                   3112706156422077430121200019                                                  N                     01321  0000000        000125
900012600000000060771219                                                                                                                                                                                                                                                                                                                                                                                                                                                                01321  0000000        000126
