0000147602043799295000110ALTAMIRA INDUSTRIA METALURGICA LT       202000000015420121025055459             1                                                                                                                                                                                                                                                                                                                                                                                                    000001
12001895314000162COLETA INDUSTRIAL FIMAVAN LTDA                                        0000000034100000000000000000000000000000866992070000009002335349439           201208272012081700000000054380000123695000000000145580000000000000000000000000021885050000000000  3020121025   01          2                                                                                   3109002335346144604097200019                                                  N                     01321  0000000        000002
12001951865000104FOUR F FOM MERCANTIL LTDA 1951                                        000000003990000000000000000000000000000088103276000000000000000253 12         201210102012091100000000054820000179000000000000179000000000000000000000000000000000050000000000  3020121010   05          3                                                                                   3175969391550198000598000149                                                  N                     01321  0000000        000003
12002503185000182ANDAIMES MAQUINAS BIG LTDA EPP                                        000000003410000000000000000000000000000086282613000000228719913011660         201208302012081000000000054410000012000000000000012688000000000000000000000000000688050000000000  3020121025   01          2                                                                                   3112287199130650303800900039                                                  N                     01321  0000000        000004
12002503185000182ANDAIMES E MAQUINAS BIG LTDA                                          000000003410000000000000000000000000000087820531000000233954448011791         201209212012082700000000054630000026000000000000027098000000000000000000000000001098050000000000  3020121025   01          2                                                                                   3112339544481925303435000019                                                  N                     01321  0000000        000005
12002503185000182ANDAIMES MAQUINAS BIG LTDA EPP                                        0000000034100000000000000000000000000000874070480000002313590765101           201209142012082000000000054560000016500000000000017281000000000000000000000000000781050000000000  3020121025   01          2                                                                                   3112313590765650303800900019                                                  N                     01321  0000000        000006
12002583013000166ITAN TRANSP DE CARGAS EXC E IN                                        000000003410000000000000000000000000000088769806000000241619341008 E          201210212012091800000000054930000105350000000000107034000000000000000000000000001684050000000000  3020121025   01          2                                                                                   3112416193418005770252400019                                                  N                     01321  0000000        000007
12002583013000166ITAN TRANSP DE CARGAS EXC E IN                                        000000003410000000000000000000000000000088769805000000241619340008 D          201210142012091800000000054860000105350000000000109981000000000000000000000000004631050000000000  3020121025   01          2                                                                                   3112416193400005770252400019                                                  N                     01321  0000000        000008
12002583013000166ITAN TRANSP DE CARGAS EXC E IN                                        000000003410000000000000000000000000000088350835000000239377421008 A          201210142012091400000000054860000192500000000000200970000000000000000000000000008470050000000000  3020121025   01          2                                                                                   3112393774214005770252400019                                                  N                     01321  0000000        000009
12002583013000166ITAN TRANSP DE CARGAS EXC E IN                                        000000003410000000000000000000000000000088350836000000239377422008 B          201210212012091400000000054930000192500000000000195580000000000000000000000000003080050000000000  3020121025   01          2                                                                                   3112393774222005770252400039                                                  N                     01321  0000000        000010
12003163055000100JN FOMENTO MERCANTIL LTDA                                             000000004220000000000000000000000000000089229252000000000000000944 12         201210232012092700000000054950000095000000000000095380000000000000000000000000000380050000000000  3020121025   01          2                                                                                   3702200002006382926631195159                                                  N                     01321  0000000        000011
12003489596000123BEND FLEX I COMERCIO LTDA                                             000000003410000000000000000000000000000088350832000000171879874608            201209122012082100000000054540000695250000000000754031000000000000000000000000058781050000000000  3020121025   01          2                                                                                   3191718798744157734445800069                                                  N                     01321  0000000        000012
12003489596000123BEND FLEX I COMERCIO LTDA                                             000000003410000000000000000000000000000088599899000000171434574613            201209172012081600000000054590000585000000000000628738000000000000000000000000043738050000000000  3020121025   01          2                                                                                   3191714345748157734445800019                                                  N                     01321  0000000        000013
12004934836000114GUAIRA MAT PARA CONSTR LTDA ME                                        00000000341000000000000000000000000000008876979900000090011431423736          201210192012091900000000054910000055500000000000056388000000000000000000000000000888050000000000  3020121025   01          2                                                                                   3109001143140076568242200039                                                  N                     01321  0000000        000014
12005151518000140BELENUS DO BRASIL LTDA                                                000000000010000000000000000000000000000090666246000000256133000R131917012     201211182012102300000000055210000599040000000000599040000000000000000000000000000000050000000000  3020121119   01FS        1                                                                                   3000000123933844172561333129                                                  N                     01321  0000000        000015
12005151518000140BELENUS DO BRASIL LTDA                                                000000000010000000000000000000000000000090666247000000256134000R131917022     201212182012102300000000055510000460800000000000460800000000000000000000000000000000050000000000  3020121218   01FS        1                                                                                   3000000123933844172561343169                                                  N                     01321  0000000        000016
12005151518000140BELENUS DO BRASIL LTDA                                                000000000010000000000000000000000000000090666248000000256135000R131917032     201301172012102300000000055810000460800000000000460800000000000000000000000000000000050000000000  3020130117   01FS        1                                                                                   3000000123933844172561353169                                                  N                     01321  0000000        000017
12005880850000145NEDERMAN BRASIL COM PROD EX LT                                        000000003410000000000000000000000000000086373178000000614350956002763 A       201209252012081400000000054670000289674000000000306774000000000000000000000000017100050000000000  3020121025   01          2                                                                                   3156143509568160829000100049                                                  N                     01321  0000000        000018
12006000195000156MBA MERCANTIL BRAS DE ACO LTDA                                        0000000034100000000000000000000000000000887698090000001671394550008925B02     201209142012071700000000054560000719581000000000777596000000000000000000000000058015050000000000  3020121025   01          2                                                                                   3191671394556064849251000089                                                  N                     01321  0000000        000019
12006000195000156MBA MERCANTIL BRAS DE ACO LTDA                                        0000000034100000000000000000000000000000904173150000001667238300008870B03     201210092012071600000000054810000839951000000000866383000000000000000000000000026432050000000000  3020121025   01          2                                                                                   3191667238304064849251000039                                                  N                     01321  0000000        000020
12006000195000156MBA MERCANTIL BRAS DE ACO LTDA                                        0000000034100000000000000000000000000000904173160000001667238280008876B03     201210122012071600000000054840000810320000000000831042000000000000000000000000020722050000000000  3020121025   01          2                                                                                   3191667238288064849251000079                                                  N                     01321  0000000        000021
12006000195000156MBA MERCANTIL BRAS DE ACO LTDA                                        0000000034100000000000000000000000000000904173170000001671394420008925B03     201210122012071700000000054840000719580000000000737975000000000000000000000000018395050000000000  3020121025   01          2                                                                                   3191671394424064849251000069                                                  N                     01321  0000000        000022
12006000195000156MBA MERCANTIL BRAS DE ACO LTDA                                        0000000034100000000000000000000000000000904173180000001671394430008926B03     201210122012071700000000054840000387716000000000397635000000000000000000000000009919050000000000  3020121025   01          2                                                                                   3191671394432064849251000079                                                  N                     01321  0000000        000023
12006000195000156MBA MERCANTIL BRAS DE ACO LTDA                                        0000000034100000000000000000000000000000904173140000001667238290008874B03     201210112012071600000000054830000802825000000000824931000000000000000000000000022106050000000000  3020121025   01          2                                                                                   3191667238296064849251000069                                                  N                     01321  0000000        000024
12006000195000156MBA MERCANTIL BRAS DE ACO LTDA                                        0000000034100000000000000000000000000000885998980000001667238420008870B02     201209112012071600000000054530000839952000000000912640000000000000000000000000072688050000000000  3020121025   01          2                                                                                   3191667238429064849251000039                                                  N                     01321  0000000        000025
12006000195000156MBA MERCL BRASILEIRA ACO LTDA                                         0000000042200000000000000000000000000000859590580000000000000000009051B03     201210242012080300000000054960000180456000000000180756000000000000000000000000000300050000000000  3020121025   01          2                                                                                   3701600007451936910173834199                                                  N                     01321  0000000        000026
12006000195000156M B A MERCANTIL BRASILEIRA DE                                         0000000000100000000000000000000000000000855028840000007952850000009005B03     201210222012073000000000054940000202837000000000203851000000000000000000000000001014050000000000  3020121025   01          2                                                                                   3043937952853333000105251169                                                  N                     01321  0000000        000027
12006000195000156M B A MERCANTIL BRASILEIRA DE                                         0000000000100000000000000000000000000000855028870000007952880000009006B03     201210232012073000000000054950000235480000000000236264000000000000000000000000000784050000000000  3020121025   01          2                                                                                   3043937952883333000105251139                                                  N                     01321  0000000        000028
12006000195000156M B A MERCANTIL BRASILEIRA DE                                         0000000000100000000000000000000000000000855028940000007952910000009007B03     201210242012073000000000054960000428086000000000428799000000000000000000000000000713050000000000  3020121025   01          2                                                                                   3043937952913333000105251199                                                  N                     01321  0000000        000029
12006000195000156MBA MERCANTIL BRAS DE ACO LTDA                                        0000000034100000000000000000000000000000887698100000001671394560008926B02     201209142012071700000000054560000387716000000000418999000000000000000000000000031283050000000000  3020121025   01          2                                                                                   3191671394564064849251000019                                                  N                     01321  0000000        000030
12006000195000156MBA MERCANTIL BRAS DE ACO LTDA                                        0000000034100000000000000000000000000000889578520000001671394540008920B02     201209162012071700000000054580000576585000000000620811000000000000000000000000044226050000000000  3020121025   01          2                                                                                   3191671394549064849251000099                                                  N                     01321  0000000        000031
12006000195000156MBA MERCANTIL BRAS DE ACO LTDA                                        0000000034100000000000000000000000000000906662490000002513141530009951B01     201211162012101800000000055190000219540000000000219540000000000000000000000000000000050000000000  3020121116   01FS        1                                                                                   3112513141534064899001800069                                                  N                     01321  0000000        000032
12006000195000156MBA MERCANTIL BRAS DE ACO LTDA                                        0000000034100000000000000000000000000000906662500000002513141500009950B01     201211152012101800000000055180000179680000000000179680000000000000000000000000000000050000000000  3020121116   01FS        1                                                                                   3112513141500064899001800089                                                  N                     01321  0000000        000033
12006000195000156MBA MERCANTIL BRAS DE ACO LTDA                                        0000000034100000000000000000000000000000906662510000002513141540009951B02     201212142012101800000000055470000219540000000000219540000000000000000000000000000000050000000000  3020121214   01FS        1                                                                                   3112513141542064899001800049                                                  N                     01321  0000000        000034
12006000195000156MBA MERCANTIL BRAS DE ACO LTDA                                        0000000034100000000000000000000000000000906662520000002513141510009950B02     201212132012101800000000055460000179681000000000179681000000000000000000000000000000050000000000  3020121213   01FS        1                                                                                   3112513141518064899001800019                                                  N                     01321  0000000        000035
12006000195000156MBA MERCANTIL BRAS DE ACO LTDA                                        0000000034100000000000000000000000000000906662530000002513141520009950B03     201301102012101800000000055740000179680000000000179680000000000000000000000000000000050000000000  3020130110   01FS        1                                                                                   3112513141526064899001800019                                                  N                     01321  0000000        000036
12006000195000156MBA MERCANTIL BRAS DE ACO LTDA                                        0000000034100000000000000000000000000000906662540000002513141570009957B02     201212152012101800000000055480001291712000000001291712000000000000000000000000000000050000000000  3020121217   01FS        1                                                                                   3112513141575064899001800019                                                  N                     01321  0000000        000037
12006000195000156MBA MERCANTIL BRAS DE ACO LTDA                                        0000000034100000000000000000000000000000906662550000002513141580009957B03     201301122012101800000000055760001291711000000001291711000000000000000000000000000000050000000000  3020130114   01FS        1                                                                                   3112513141583064899001800019                                                  N                     01321  0000000        000038
12006000195000156MBA MERCANTIL BRAS DE ACO LTDA                                        0000000034100000000000000000000000000000906662560000002513141930009988B01     201211192012102200000000055220000214645000000000214645000000000000000000000000000000050000000000  3020121119   01FS        1                                                                                   3112513141930064899001800049                                                  N                     01321  0000000        000039
12006000195000156MBA MERCANTIL BRAS DE ACO LTDA                                        0000000034100000000000000000000000000000906662570000002513141550009951B03     201301112012101800000000055750000219539000000000219539000000000000000000000000000000050000000000  3020130111   01FS        1                                                                                   3112513141559064899001800049                                                  N                     01321  0000000        000040
12006000195000156MBA MERCANTIL BRAS DE ACO LTDA                                        0000000034100000000000000000000000000000906662580000002513141940009988B02     201212172012102200000000055500000214645000000000214645000000000000000000000000000000050000000000  3020121217   01FS        1                                                                                   3112513141948064899001800099                                                  N                     01321  0000000        000041
12006000195000156MBA MERCANTIL BRAS DE ACO LTDA                                        0000000034100000000000000000000000000000906662590000002513141560009957B01     201211172012101800000000055200001291712000000001291712000000000000000000000000000000050000000000  3020121119   01FS        1                                                                                   3112513141567064899001800019                                                  N                     01321  0000000        000042
12006000195000156MBA MERCANTIL BRAS DE ACO LTDA                                        0000000034100000000000000000000000000000906662600000002513141980009992B03     201301142012102200000000055780000097582000000000097582000000000000000000000000000000050000000000  3020130114   01FS        1                                                                                   3112513141989064899001800019                                                  N                     01321  0000000        000043
12006000195000156MBA MERCANTIL BRAS DE ACO LTDA                                        0000000034100000000000000000000000000000906662610000002513141950009988B03     201301142012102200000000055780000214645000000000214645000000000000000000000000000000050000000000  3020130114   01FS        1                                                                                   3112513141955064899001800039                                                  N                     01321  0000000        000044
12006000195000156MBA MERCANTIL BRAS DE ACO LTDA                                        0000000034100000000000000000000000000000906662630000002513141960009992B01     201211192012102200000000055220000097583000000000097583000000000000000000000000000000050000000000  3020121119   01FS        1                                                                                   3112513141963064899001800069                                                  N                     01321  0000000        000045
12006000195000156MBA MERCANTIL BRAS DE ACO LTDA                                        0000000034100000000000000000000000000000906662660000002513141970009992B02     201212172012102200000000055500000097583000000000097583000000000000000000000000000000050000000000  3020121217   01FS        1                                                                                   3112513141971064899001800049                                                  N                     01321  0000000        000046
12006000195000156MBA MERCANTIL BRAS DE ACO LTDA                                        0000000034100000000000000000000000000000906662670000001671394410008920B03     201210142012071700000000054860000576584000000000589058000000000000000000000000012474050000000000  3020121025   01FS        1                                                                                   3191671394416064849251000039                                                  N                     01321  0000000        000047
12006000195000156M B A MERCANTIL BRASILEIRA DE                                         0000000023700118P00000002128292 00000000906662740090220600000060008949B03     201210172012072300000000054890000194693000000000194693000000000000000000000000000000050000000000  3020121025   01FS        1  RUA JUNO  533                                                                    3                         000000000000000                                     N                     00598  0000000        000048
12006000195000156MBA MERCANTIL BRAS DE ACO LTDA                                        0000000034100000000000000000000000000000850740640000008671394410008920B03     201210142012072000000000054860000576584000000000576584000000000000000000000000000000050000000000  3020121015   05          3                                                                                   3458671394419064849251000019                                                  N                     01321  0000000        000049
12006000195000156MBA MERCANTIL BRAS DE ACO LTDA                                        0000000034100000000000000000000000000000884432540000002398047670009506B01     201210092012091100000000054810001043792000000001043792000000000000000000000000000000050000000000  3020121009   05          3                                                                                   3112398047673064899001800069                                                  N                     01321  0000000        000050
12006000195000156M B A MERCANTIL BRASILEIRA DE                                         0000000023700118P00000002130599 00000000848180770020220100000340008905B03     201210112012071900000000054830000155300000000000158926000000000000000000000000003626050000000000  3020121025   01          2  RUA JUNO  533                                                                    3                         000000000000000                                     N                     00598  0000000        000051
12006000195000156M B A MERCANTIL BRASILEIRA DE                                         0000000023700118P00000002130599 00000000865388260020222900000470009204B02     201210112012081500000000054830000127292000000000130260000000000000000000000000002968050000000000  3020121025   01          2  RUA JUNO  533                                                                    3                         000000000000000                                     N                     00598  0000000        000052
12006000195000156M B A MERCANTIL BRASILEIRA DE                                         0000000023700118P00000002130599 00000000868592690020223600000020009229B02     201210112012081600000000054830000253414000000000259322000000000000000000000000005908050000000000  3020121025   01          2  RUA JUNO  533                                                                    3                         000000000000000                                     N                     00598  0000000        000053
12006000195000156M B A MERCANTIL BRASILEIRA DE                                         0000000023700118P00000002130599 00000000865388290020222900000500009205B02     201210122012081500000000054840000348964000000000356530000000000000000000000000007566050000000000  3020121025   01          2  RUA JUNO  533                                                                    3                         000000000000000                                     N                     00598  0000000        000054
12006000195000156M B A MERCANTIL BRASILEIRA DE                                         0000000023700118P00000002130599 00000000865388320020222900000530009206B02     201210132012081500000000054850000527560000000000538108000000000000000000000000010548050000000000  3020121025   01          2  RUA JUNO  533                                                                    3                         000000000000000                                     N                     00598  0000000        000055
12006000195000156M B A MERCANTIL BRASILEIRA DE                                         0000000023700118P00000002130599 00000000853155000020220900000460008967B03     201210182012072400000000054900000135605000000000137187000000000000000000000000001582050000000000  3020121025   01          2  RUA JUNO  533                                                                    3                         000000000000000                                     N                     00598  0000000        000056
12006000195000156M B A MERCANTIL BRASILEIRA DE                                         0000000023700118P00000002130599 00000000853155030020220900000530008971B03     201210162012072400000000054880000170465000000000173021000000000000000000000000002556050000000000  3020121025   01          2  RUA JUNO  533                                                                    3                         000000000000000                                     N                     00598  0000000        000057
12006000195000156M B A MERCANTIL BRASILEIRA DE                                         0000000023700118P00000002130599 00000000853155060020220900000660008985B03     201210172012072500000000054890000141846000000000143734000000000000000000000000001888050000000000  3020121025   01          2  RUA JUNO  533                                                                    3                         000000000000000                                     N                     00598  0000000        000058
12006000195000156M B A MERCANTIL BRASILEIRA DE                                         0000000023700118P00000002130599 00000000853155090020220900000690008986B03     201210172012072500000000054890000126718000000000128406000000000000000000000000001688050000000000  3020121025   01          2  RUA JUNO  533                                                                    3                         000000000000000                                     N                     00598  0000000        000059
12006000195000156M B A MERCANTIL BRASILEIRA DE                                         0000000023700118P00000002130599 00000000853155120020220900000720008987B03     201210182012072500000000054900000188368000000000190566000000000000000000000000002198050000000000  3020121025   01          2  RUA JUNO  533                                                                    3                         000000000000000                                     N                     00598  0000000        000060
12007565346000186ALFLEX PLASTICOS E FERRAGENS L                                        0000000023701416800000000407607 0000000088769812009013226800206S000000196     201210232012092400000000054950000187500000000000192500000000000000000000000000005000050000000000  3020121025   01          2  RUA TAMAINDE  1410                                                               3                         000000000000000                                     N                     00598  0000000        000061
12009338857000190FERNANDO  NAGAO  CARDONE  ALVA                                        000000000330000000000000000000000000000089697936000000800000000ALTA 10 2012   201210202012092500000000054920000134632000000000137998000000000000000000000000003366050000000000  3020121025   01          2                                                                                   3947901700000051050080010129                                                  N                     01321  0000000        000062
12009419898000101LUSITANO INDUSTRIA C E P LTDA                                         00000000341000000000000000000000000000008653882000000090000757101 10137 2     201209192012081500000000054610000035135000000000039347000000000000000000000000004212050000000000  3020121025   01          2                                                                                   3109000075716001160072300049                                                  N                     01321  0000000        000063
12012006058000121WEG TINTAS LTDA                                                       0000000023702727800000000001309 00000000878206040090225400000780016517201     201210212012090600000000054930000459854000000000462306000000000000000000000000002452050000000000  3020121025   01          2  R JUNO  533                                                                      3                         000000000000000                                     N                     00598  0000000        000064
12012006058000121WEG TINTAS LTDA                                                       0000000023702727800000000001309 00000000854049560090221200001020015513003     201210102012072700000000054820000459992000000000469187000000000000000000000000009195050000000000  3020121025   01          2  R JUNO  533                                                                      3                         000000000000000                                     N                     00598  0000000        000065
12012006058000121WEG TINTAS LTDA                                                       0000000023702727800000000001309 00000000856071260090221400000830015587302     201209292012073100000000054710000459854000000000475792000000000000000000000000015938050000000000  3020121025   01          2  R JUNO  533                                                                      3                         000000000000000                                     N                     00598  0000000        000066
12012006058000121WEG TINTAS LTDA                                                       0000000023702727800000000001309 00000000856071270090221400000840015587303     201210142012073100000000054860000459992000000000466735000000000000000000000000006743050000000000  3020121025   01          2  R JUNO  533                                                                      3                         000000000000000                                     N                     00598  0000000        000067
12012006058000121WEG TINTAS LTDA                                                       0000000023702727800000000001309 00000000861207270090222200000910015775002     201210072012080800000000054790000306569000000000313913000000000000000000000000007344050000000000  3020121025   01          2  R JUNO  533                                                                      3                         000000000000000                                     N                     00598  0000000        000068
12012006058000121WEG TINTAS LTDA                                                       0000000023702727800000000001309 00000000861207280090222200000920015775003     201210222012080800000000054940000306662000000000307886000000000000000000000000001224050000000000  3020121025   01          2  R JUNO  533                                                                      3                         000000000000000                                     N                     00598  0000000        000069
12012006058000121WEG TINTAS LTDA                                                       0000000023702727800000000001309 00000000864554440090222800000730015908401     201209282012081400000000054700000306569000000000317585000000000000000000000000011016050000000000  3020121025   01          2  R JUNO  533                                                                      3                         000000000000000                                     N                     00598  0000000        000070
12012006058000121WEG TINTAS LTDA                                                       0000000023702727800000000001309 00000000864554450090222800000740015908402     201210132012081400000000054850000306569000000000311465000000000000000000000000004896050000000000  3020121025   01          2  R JUNO  533                                                                      3                         000000000000000                                     N                     00598  0000000        000071
12012006058000121WEG TINTAS LTDA                                                       0000000023702727800000000001309 00000000868126340090223500001170016086601     201210052012082100000000054770000306569000000000314729000000000000000000000000008160050000000000  3020121025   01          2  R JUNO  533                                                                      3                         000000000000000                                     N                     00598  0000000        000072
12012006058000121WEG TINTAS LTDA                                                       0000000023702727800000000001309 00000000868126350090223500001180016086602     201210202012082100000000054920000306569000000000308609000000000000000000000000002040050000000000  3020121025   01          2  R JUNO  533                                                                      3                         000000000000000                                     N                     00598  0000000        000073
12012006058000121WEG TINTAS LTDA                                                       0000000023702727800000000001309 00000000870177480090224100000970016248001     201210112012082700000000054830000306569000000000312281000000000000000000000000005712050000000000  3020121025   01          2  R JUNO  533                                                                      3                         000000000000000                                     N                     00598  0000000        000074
12012006058000121WEG TINTAS LTDA                                                       0000000023702727800000000001309 00000000872318650090224700001030016359601     201210152012083100000000054870000459854000000000465984000000000000000000000000006130050000000000  3020121025   01          2  R JUNO  533                                                                      3                         000000000000000                                     N                     00598  0000000        000075
12012006058000121WEG TINTAS LTDA                                                       0000000023702727800000000001309 00000000847452160090220000000930015248103     201209302012071700000000054720000306662000000000316862000000000000000000000000010200050000000000  3020121025   01          2  R JUNO  533                                                                      3                         000000000000000                                     N                     00598  0000000        000076
12012006058000121WEG TINTAS LTDA                                                       0000000023702727800000000001309 00000000849855340090220500001220015343103     201210032012072000000000054750000306662000000000315638000000000000000000000000008976050000000000  3020121025   01          2  R JUNO  533                                                                      3                         000000000000000                                     N                     00598  0000000        000077
12012006058000121WEG TINTAS LTDA                                                       0000000023702727800000000001309 00000000854049540090221200001000015513001     201209102012072700000000054520000459854000000000477018000000000000000000000000017777050000000000  3020121008   06          3  R JUNO  533                                                                      3                         000000000000000                                     N                     00598  0000000        000078
12012006058000121WEG TINTAS LTDA                                                       0000000023702727800000000001309 00000000844839230090219500000720015168702     201209102012071200000000054520000306569000000000317993000000000000000000000000011832050000000000  3020121008   06          3  R JUNO  533                                                                      3                         000000000000000                                     N                     00598  0000000        000079
12012707981000190MAC CINTAS E A CARGAS LTDA ME                                         000000003410000000000000000000000000000088957850000000242876074609            201210182012092500000000054900000072500000000000073851000000000000000000000000001351050000000000  3020121025   01          2                                                                                   3112428760741068283895800029                                                  N                     01321  0000000        000080
12014978305000187MOGI FILME INDUSTRIA E COMERCI                                        0000000023700402200000001055003 0000000088599905009022640000016351            201210202012092000000000054920000139691000000000143166000000000000000000000000003475050000000000  3020121025   01          2  RUA TAMAINDE 1410 VL NOVA MANCHESTER                                             3                         000000000000000                                     N                     00598  0000000        000081
12016802308000190TRANSMARRECO LTDA                                                     000000000330000000000000000000000000000088769814000000640000000353 12         201210052012092100000000054770000106581000000000115113000000000000000000000000008532050000000000  3020121025   01          2                                                                                   3907636240000000643564010119                                                  N                     01321  0000000        000082
12033325184001786ALSCO TOALHEIRO BRASIL                                                0000000023703396000000001490850 0000000089697953009000002751805VM27518        201210242012100400000000054960000068498000000000068566000000000000000000000000000068050000000000  3020121025   01          2  RUA  GANGES 528                                                                  3                         000000000000000                                     N                     00598  0000000        000083
12035820448000136WHITE MARTINS GASES INDUSTRIAI                                        0000000023700026400000003937925 0000000087820600009022540001838377866 001     201210042012090700000000054760000202876000000000208361000000000000000000000000005485050000000000  3020121025   01          2  RUA GANGES  528                                                                  3                         000000000000000                                     N                     00598  0000000        000084
12035820448000136WHITE MARTINS GASES INDUSTRIAI                                        0000000023700026400000003937925 0000000088957851009022700001298384214 001     201210232012092600000000054950000121725000000000124241000000000000000000000000002516050000000000  3020121025   01          2  RUA GANGES  528                                                                  3                         000000000000000                                     N                     00598  0000000        000085
12035820448000136WHITE MARTINS GASES INDUSTRIAI                                        0000000023700026400000003937925 0000000088191338009022570001466379316 001     201210092012091300000000054810000085208000000000087360000000000000000000000000002152050000000000  3020121025   01          2  RUA GANGES  528                                                                  3                         000000000000000                                     N                     00598  0000000        000086
12035820448000136WHITE MARTINS GASES INDUSTRIAI                                        0000000023700026400000003937925 0000000088524829009022630001577381808 001     201210162012091900000000054880000121725000000000124528000000000000000000000000002803050000000000  3020121025   01          2  RUA GANGES  528                                                                  3                         000000000000000                                     N                     00598  0000000        000087
12035820448000136WHITE MARTINS GASES INDUSTRIAI                                        0000000023700026400000003937925 0000000087067052009022420002594374120 001     201209252012082900000000054670000113610000000000120412000000000000000000000000006802050000000000  3020121025   01          2  RUA GANGES  528                                                                  3                         000000000000000                                     N                     00598  0000000        000088
12035820448000136WHITE MARTINS GASES INDUSTRIAI                                        0000000023700026400000003937925 0000000088686659009022650001000382942 001     201210182012092100000000054900000121725000000000124446000000000000000000000000002721050000000000  3020121025   01          2  RUA GANGES  528                                                                  3                         000000000000000                                     N                     00598  0000000        000089
12035820448000136WHITE MARTINS GASES INDUSTRIAI                                        0000000023700026400000003937925 0000000087168275009022440000143375351 001     201209272012083100000000054690000040575000000000042898000000000000000000000000002323050000000000  3020121025   01          2  RUA GANGES  528                                                                  3                         000000000000000                                     N                     00598  0000000        000090
12042956441000101SOLUCOES ACO USIMINAS                                                 0000000034100000000000000000000000000000848180700000002220192900017041002     201209112012071700000000054530000155433000000000169117000000000000000000000000013684050000000000  3020121025   01          2                                                                                   3112220192903293807258000029                                                  N                     01321  0000000        000091
12042956441000101SOLUCOES ACO USIMINAS                                                 0000000034100000000000000000000000000000848180710000002220192910017041202     201209112012071700000000054530000205421000000000223505000000000000000000000000018084050000000000  3020121025   01          2                                                                                   3112220192911293807258000019                                                  N                     01321  0000000        000092
12042956441000101SOLUCOES ACO USIMINAS                                                 0000000034100000000000000000000000000000850740460000002233586800017127201     201208202012072000000000054310000137881000000000156097000000000000000000000000018216050000000000  3020121025   01          2                                                                                   3112233586802293807258000019                                                  N                     01321  0000000        000093
12042956441000101SOLUCOES ACO USIMINAS                                                 0000000034100000000000000000000000000000850740470000002233586810017101002     201209142012071900000000054560000732575000000000792640000000000000000000000000060065050000000000  3020121025   01          2                                                                                   3112233586810293807258000019                                                  N                     01321  0000000        000094
12042956441000101SOLUCOES ACO USIMINAS                                                 0000000034100000000000000000000000000000850740480000002233586820017101202     201209142012071900000000054560000144634000000000156483000000000000000000000000011849050000000000  3020121025   01          2                                                                                   3112233586828293807258000029                                                  N                     01321  0000000        000095
12042956441000101SOLUCOES ACO USIMINAS                                                 0000000034100000000000000000000000000000846595700000002210880280016980502     201209102012071200000000054520000156071000000000170111000000000000000000000000014040050000000000  3020121025   01          2                                                                                   3112210880285293807258000039                                                  N                     01321  0000000        000096
12042956441000101SOLUCOES ACO USIMINAS                                                 0000000034100000000000000000000000000000846595710000002210880290016980602     201209102012071200000000054520000426094000000000464434000000000000000000000000038340050000000000  3020121025   01          2                                                                                   3112210880293293807258000019                                                  N                     01321  0000000        000097
12042956441000101SOLUCOES ACO USIMINAS                                                 0000000034100000000000000000000000000000847452070000002216130350005922202     201209102012071600000000054520000172071000000000187551000000000000000000000000015480050000000000  3020121025   01          2                                                                                   3112216130354293807258000049                                                  N                     01321  0000000        000098
12042956441000101SOLUCOES ACO USIMINAS                                                 0000000034100000000000000000000000000000847452100000002216130340017012402     201209102012071500000000054520000147428000000000160703000000000000000000000000013275050000000000  3020121025   01          2                                                                                   3112216130347293807258000059                                                  N                     01321  0000000        000099
12042956441000101SOLUCOES ACO USIMINAS                                                 0000000034100000000000000000000000000000853154840000002246247030017196702     201209202012072500000000054620000234841000000000251291000000000000000000000000016450050000000000  3020121025   01          2                                                                                   3112246247038293807258000099                                                  N                     01321  0000000        000100
12042956441000101SOLUCOES ACO USIMINAS                                                 0000000034100000000000000000000000000000853154850000002246247040017197302     201209202012072500000000054620000970103000000001038003000000000000000000000000067900050000000000  3020121025   01          2                                                                                   3112246247046293807258000019                                                  N                     01321  0000000        000101
12042956441000101SOLUCOES ACO USIMINAS                                                 0000000034100000000000000000000000000000855028690000002254329380017212902     201209212012072600000000054630000140098000000000149618000000000000000000000000009520050000000000  3020121025   01          2                                                                                   3112254329389293807258000019                                                  N                     01321  0000000        000102
12042956441000101SOLUCOES ACO USIMINAS                                                 0000000034100000000000000000000000000000855028700000002254329390017213002     201209212012072600000000054630000140602000000000150156000000000000000000000000009554050000000000  3020121025   01          2                                                                                   3112254329397293807258000089                                                  N                     01321  0000000        000103
12042956441000101SOLUCOES ACO USIMINAS                                                 0000000034100000000000000000000000000000855028770000002254329400017220502     201209212012072700000000054630000981022000000001047730000000000000000000000000066708050000000000  3020121025   01          2                                                                                   3112254329405293807258000099                                                  N                     01321  0000000        000104
12042956441000101SOLUCOES ACO USIMINAS                                                 0000000034100000000000000000000000000000856906410000002262886280017266201     201208282012073000000000054390000119472000000000133334000000000000000000000000013862050000000000  3020121025   01          2                                                                                   3112262886289293807258000089                                                  N                     01321  0000000        000105
12042956441000101SOLUCOES ACO USIMINAS                                                 0000000034100000000000000000000000000000856906420000002262886290017266301     201208282012073000000000054390000145069000000000161889000000000000000000000000016820050000000000  3020121025   01          2                                                                                   3112262886297293807258000099                                                  N                     01321  0000000        000106
12042956441000101SOLUCOES ACO USIMINAS                                                 0000000034100000000000000000000000000000859590620000002274469790017353702     201209282012080300000000054700000081053000000000085427000000000000000000000000004374050000000000  3020121025   01          2                                                                                   3112274469793293807258000069                                                  N                     01321  0000000        000107
12043217850000159IOB INFORMACOES OBJ  PUBL JURI                                        0000000023702374400000002958600 000000008711912800902243000063301440820F2     201209202012083000000000054620000072850000000000075147000000000000000000000000002297050000000000  3020121025   01          2  R GANGES 528                                                                     3                         000000000000000                                     N                     00598  0000000        000108
12045351418000181TRANSP RODOR LTDA                                                     000000003410000000000000000000000000000089697942000000246544071301818  01     201210192012100500000000054910000023097000000000023557000000000000000000000000000552050000000000  3020121024   05          3                                                                                   3112465440710005820000700069                                                  N                     01321  0000000        000109
12045987005000198D PASCHOAL AUTOMOTIVA LTDA                                            0000000023702002800000000147001 00000000886866600110000000171650000000036     201210192012091900000000054910000032500000000000033402000000000000000000000000000902050000000000  3020121025   01          2  R   TAMAINDE                       01410                                         3                         000000000000000                                     N                     00598  0000000        000110
12047190731000100DE CASTRO LOUR ENG IND LTDA                                           00000000341000000000000000000000000000008782051200000023399953803026613 0     201209182012082100000000054600001107989000000001188612000000000000000000000000080623050000000000  3020121025   01          2                                                                                   3112339995386036884500400039                                                  N                     01321  0000000        000111
12047190731000100DE CASTRO LOUR ENG IND LTDA                                           00000000341000000000000000000000000000008782051600000023399954103026614 0     201209182012082100000000054600001047621000000001123841000000000000000000000000076220050000000000  3020121025   01          2                                                                                   3112339995410036884500400039                                                  N                     01321  0000000        000112
12047190731000100DE CASTRO LOUR ENG IND LTDA                                           00000000341000000000000000000000000000008782052000000023399955303026632 0     201209192012082200000000054610000952073000000001019465000000000000000000000000067392050000000000  3020121025   01          2                                                                                   3112339995535036884500400019                                                  N                     01321  0000000        000113
12047190731000100DE CASTRO LOUR ENG IND LTDA                                           00000000341000000000000000000000000000008782052100000023399955903026643 0     201209202012082300000000054620000867039000000000926714000000000000000000000000059675050000000000  3020121025   01          2                                                                                   3112339995592036884500400049                                                  N                     01321  0000000        000114
12047190731000100DE CASTRO LOUR ENG IND LTDA                                           00000000341000000000000000000000000000008782052500000023399955603026636 0     201209192012082200000000054610000940804000000001007404000000000000000000000000066600050000000000  3020121025   01          2                                                                                   3112339995568036884500400049                                                  N                     01321  0000000        000115
12047190731000100DE CASTRO LOUR ENG IND LTDA                                           00000000341000000000000000000000000000008782052700000023399956203026648 0     201209202012082300000000054620000976053000000001043253000000000000000000000000067200050000000000  3020121025   01          2                                                                                   3112339995626036884500400029                                                  N                     01321  0000000        000116
12047190731000100DE CASTRO LOUR ENG IND LTDA                                           00000000341000000000000000000000000000008782050900000023399953503026612 0     201209182012082100000000054600001111489000000001192371000000000000000000000000080882050000000000  3020121025   01          2                                                                                   3112339995352036884500400019                                                  N                     01321  0000000        000117
12048775225000146SEIKI IND COM E CONFECCOES LTD                                        000000003410000000000000000000000000000089337376000000244697151014914001      201210232012092500000000054950000052000000000000052156000000000000000000000000000156050000000000  3020121025   01          2                                                                                   3112446971510017444824100089                                                  N                     01321  0000000        000118
12051180370000199IGUAFER FERRO E ACO LTDA                                              0000000034100000000000000000000000000000852309100000002239389789443 B         201209022012071800000000054440000168275000000000183115000000000000000000000000014840050000000000  3020121025   01          2                                                                                   3112239389789077149484600089                                                  N                     01321  0000000        000119
12051180370000199IGUAFER FERRO E ACO LTDA                                              0000000034100000000000000000000000000000852309110000002239389799443 C         201209122012071800000000054540000168275000000000180315000000000000000000000000012040050000000000  3020121025   01          2                                                                                   3112239389797077149484600089                                                  N                     01321  0000000        000120
12053585766000141MULTIACOS I C PRODS TEC LTDA                                          0000000042200000000000000000000000000000883508170000000000000000004674501     201210232012091300000000054950000282316000000000283257000000000000000000000000000941050000000000  3020121025   01          2                                                                                   3711500005033164921116471119                                                  N                     01321  0000000        000121
12053585766000141MULTIACOS IND E CO                                                    0000000034100000000000000000000000000000885998970000002407458080004532103     201210222012081300000000054940000883908000000000888327000000000000000000000000004419050000000000  3020121025   01          2                                                                                   3112407458085293803748400049                                                  N                     01321  0000000        000122
12053585766000141MULTIACOS I C PRODS TEC LTDA                                          0000000042200000000000000000000000000000883508180000000000000000004584602     201210182012091300000000054900000339224000000000343178000000000000000000000000003954050000000000  3020121025   01          2                                                                                   3711500005033164921116527149                                                  N                     01321  0000000        000123
12053585766000141MULTIACOS I C PRODS TEC LTDA                                          0000000042200000000000000000000000000000883508210000000000000000004584802     201210182012091300000000054900000379244000000000383667000000000000000000000000004423050000000000  3020121025   01          2                                                                                   3711500005033164921116543159                                                  N                     01321  0000000        000124
12053585766000141MULTIACOS I C PRODS TEC LTDA                                          0000000042200000000000000000000000000000883508230000000000000000004674401     201210232012091300000000054950000397384000000000398707000000000000000000000000001323050000000000  3020121025   01          2                                                                                   3711500005033164921116501119                                                  N                     01321  0000000        000125
12053585766000141MULTIACOS I C PRODS TEC LTDA                                          0000000042200000000000000000000000000000883508270000000000000000004585402     201210182012091300000000054900001047733000000001059954000000000000000000000000012221050000000000  3020121025   01          2                                                                                   3711500005033164921116586119                                                  N                     01321  0000000        000126
12053585766000141MULTIACOS I C PRODS TEC LTDA                                          0000000042200000000000000000000000000000887697900000000000000000004612302     201210232012092000000000054950000636673000000000638794000000000000000000000000002121050000000000  3020121025   01          2                                                                                   3711500005033164923629602139                                                  N                     01321  0000000        000127
12053585766000141MULTIACOS I C PRODS TEC LTDA                                          0000000042200000000000000000000000000000887697940000000000000000004612202     201210232012092000000000054950000214553000000000215268000000000000000000000000000715050000000000  3020121025   01          2                                                                                   3711500005033164923629629119                                                  N                     01321  0000000        000128
12053585766000141MULTIACOS I C PRODS TEC LTDA                                          0000000042200000000000000000000000000000883508280000000000000000004539303     201210232012091300000000054950001021454000000001024857000000000000000000000000003403050000000000  3020121025   01          2                                                                                   3711500005033164921116608159                                                  N                     01321  0000000        000129
12053585766000141MULTIACOS I C PRODS TEC LTDA                                          0000000042200000000000000000000000000000890457020000000000000000004604502     201210222012092500000000054940000910103000000000914653000000000000000000000000004550050000000000  3020121025   01          2                                                                                   3711500005033164925775240159                                                  N                     01321  0000000        000130
12053585766000141MULTIACOS I C PRODS TEC LTDA                                          0000000042200000000000000000000000000000883508310000000000000000004585102     201210182012091300000000054900000222786000000000225382000000000000000000000000002596050000000000  3020121025   01          2                                                                                   3711500005033164921116560119                                                  N                     01321  0000000        000131
12053585766000141MULTIACOS I C PRODS TEC LTDA                                          0000000042200000000000000000000000000000895189380000000000000000004595002     201210192012100200000000054910000695717000000000702676000000000000000000000000006959050000000000  3020121025   01          2                                                                                   3711500005033164927761840159                                                  N                     01321  0000000        000132
12053585766000141MULTIACOS I C PRODS TEC LTDA                                          0000000042200000000000000000000000000000895189400000000000000000004594902     201210192012100200000000054910000141441000000000142856000000000000000000000000001415050000000000  3020121025   01          2                                                                                   3711500005033164927761815119                                                  N                     01321  0000000        000133
12053585766000141MULTIACOS I C PRODS TEC LTDA                                          0000000042200000000000000000000000000000895189440000000000000000004604402     201210222012100200000000054940000189937000000000190887000000000000000000000000000950050000000000  3020121025   01          2                                                                                   3711500005033164927761882169                                                  N                     01321  0000000        000134
12053585766000141MULTIACOS I C PRODS TEC LTDA                                          0000000042200000000000000000000000000000895189480000000000000000004612002     201210232012100200000000054950000465862000000000467413000000000000000000000000001551050000000000  3020121025   01          2                                                                                   3711500005033164927761939169                                                  N                     01321  0000000        000135
12053585766000141MULTIACOS I C PRODS TEC LTDA                                          0000000042200000000000000000000000000000895189490000000000000000004595102     201210192012100200000000054910000354761000000000358306000000000000000000000000003545050000000000  3020121025   01          2                                                                                   3711500005033164927761866129                                                  N                     01321  0000000        000136
12053585766000141MULTIACOS I C PRODS TEC LTDA                                          0000000042200000000000000000000000000000895189520000000000000000004521803     201210192012100200000000054910000811642000000000819759000000000000000000000000008117050000000000  3020121025   01          2                                                                                   3711500005033164927761955199                                                  N                     01321  0000000        000137
12053585766000141MULTIACOS I C PRODS TEC LTDA                                          0000000042200000000000000000000000000000895189690000000000000000004545103     201210242012100200000000054960000305114000000000305622000000000000000000000000000508050000000000  3020121025   01          2                                                                                   3711500005033164927762145119                                                  N                     01321  0000000        000138
12053585766000141MULTIACOS I C PRODS TEC LTDA                                          0000000042200000000000000000000000000000895189700000000000000000004532303     201210222012100200000000054940000257380000000000258666000000000000000000000000001286050000000000  3020121025   01          2                                                                                   3711500005033164927762102129                                                  N                     01321  0000000        000139
12053585766000141MULTIACOS I C PRODS TEC LTDA                                          0000000042200000000000000000000000000000895189750000000000000000004674601     201210232012100200000000054950000130662000000000131097000000000000000000000000000435050000000000  3020121025   01          2                                                                                   3711500005033164927762218119                                                  N                     01321  0000000        000140
12053585766000141MULTIACOS I C PRODS TEC LTDA                                          0000000042200000000000000000000000000000895189790000000000000000004545203     201210242012100200000000054960001004573000000001006246000000000000000000000000001673050000000000  3020121025   01          2                                                                                   3711500005033164927762242159                                                  N                     01321  0000000        000141
12053585766000141MULTIACOS COM DE PRODUTOS TECN                                        0000000023703398700000000011290 00000000888733100020226900000690004642101     201210162012090400000000054880000251722000000000255502000000000000000000000000003780050000000000  3020121025   01          2  RUA JUNO  533                                                                    3                         000000000000000                                     N                     00598  0000000        000142
12054382510000108SETENTA IND E COM DE MADEIRAS                                         0000000034100000000000000000000000000000874070720000002305114064536 A         201209192012081600000000054610000191200000000000204736000000000000000000000000013536050000000000  3020121025   01          2                                                                                   3112305114061057002848000039                                                  N                     01321  0000000        000143
12054382510000108SETENTA IND E COM DE MADEIRAS                                         0000000034100000000000000000000000000000860403430000002277814474462 A         201209042012080700000000054460000191200000000000210376000000000000000000000000019176050000000000  3020121025   01          2                                                                                   3112277814474057049175300069                                                  N                     01321  0000000        000144
12054382510000108SETENTA IND E COM DE MADEIRAS                                         0000000034100000000000000000000000000000883508330000002392776804604 A         201210082012091300000000054800000116600000000000120493000000000000000000000000003893050000000000  3020121025   01          2                                                                                   3112392776806057049175300019                                                  N                     01321  0000000        000145
12056993512000150CYKLOP DO BRASIL EMBALAGENS SA                                        0000000034100000000000000000000000000000874070500000002362586810134932        201210012012090300000000054730000083607000000000090975000000000000000000000000007368050000000000  3020121025   01          2                                                                                   3112362586813025700015800019                                                  N                     01321  0000000        000146
12056993900000131CIA METALURGICA PRADA                                                 0000000034100000000000000000000000000000824820100000002102181160024711603     201208292012060600000000054400000833146000000000912319000000000000000000000000079173050000000000  3020121025   01          2                                                                                   3112102181164293800573900039                                                  N                     01321  0000000        000147
12056993900000131CIA METALURGICA PRADA                                                 0000000034100000000000000000000000000000844839020000002201181900025635402     201209052012071100000000054470000208689000000000226089000000000000000000000000017400050000000000  3020121025   01          2                                                                                   3112201181909293800573900069                                                  N                     01321  0000000        000148
12056993900000131CIA METALURGICA PRADA                                                 0000000034100000000000000000000000000000844839030000002201181910025635502     201209052012071100000000054470000164780000000000178530000000000000000000000000013750050000000000  3020121025   01          2                                                                                   3112201181917293800573900029                                                  N                     01321  0000000        000149
12056993900000131CIA METALURGICA PRADA                                                 0000000034100000000000000000000000000000844839040000002201181920025635602     201209052012071100000000054470000339933000000000368283000000000000000000000000028350050000000000  3020121025   01          2                                                                                   3112201181925293800573900069                                                  N                     01321  0000000        000150
12056993900000131CIA METALURGICA PRADA                                                 0000000034100000000000000000000000000000844839050000002201181930025636202     201209052012071100000000054470000746213000000000808413000000000000000000000000062200050000000000  3020121025   01          2                                                                                   3112201181933293800573900019                                                  N                     01321  0000000        000151
12056993900000131CIA METALURGICA PRADA                                                 0000000034100000000000000000000000000000844839060000002201181940025644402     201209052012071100000000054470000779647000000000844597000000000000000000000000064950050000000000  3020121025   01          2                                                                                   3112201181941293800573900019                                                  N                     01321  0000000        000152
12056993900000131CIA METALURGICA PRADA                                                 0000000034100000000000000000000000000000844839140000002201181870025629302     201209052012071100000000054470000257906000000000279406000000000000000000000000021500050000000000  3020121025   01          2                                                                                   3112201181875293800573900069                                                  N                     01321  0000000        000153
12056993900000131CIA METALURGICA PRADA                                                 0000000034100000000000000000000000000000840312930000002179478290025419302     201208282012070300000000054390000402178000000000441038000000000000000000000000038860050000000000  3020121025   01          2                                                                                   3112179478295293800573900089                                                  N                     01321  0000000        000154
12056993900000131CIA METALURGICA PRADA                                                 0000000034100000000000000000000000000000840312940000002179478300025419402     201208282012070300000000054390000322804000000000354008000000000000000000000000031204050000000000  3020121025   01          2                                                                                   3112179478303293800573900079                                                  N                     01321  0000000        000155
12056993900000131CIA METALURGICA PRADA                                                 0000000034100000000000000000000000000000844839000000002201181880025629402     201209052012071100000000054470000249372000000000270172000000000000000000000000020800050000000000  3020121025   01          2                                                                                   3112201181883293800573900019                                                  N                     01321  0000000        000156
12056993900000131CIA METALURGICA PRADA                                                 0000000034100000000000000000000000000000844839010000002201181890025635302     201209052012071100000000054470000406842000000000440742000000000000000000000000033900050000000000  3020121025   01          2                                                                                   3112201181891293800573900019                                                  N                     01321  0000000        000157
12056993900000131CIA METALURGICA PRADA                                                 0000000034100000000000000000000000000000855028630000002254750290026244303     201210222012072800000000054940000100683000000000101187000000000000000000000000000504050000000000  3020121025   01          2                                                                                   3112254750295293800573900049                                                  N                     01321  0000000        000158
12056993900000131CIA METALURGICA PRADA                                                 0000000034100000000000000000000000000000848180620000002218222670025829902     201209112012071700000000054530000498118000000000534638000000000000000000000000036520050000000000  3020121025   01          2                                                                                   3112218222670293800573900029                                                  N                     01321  0000000        000159
12056993900000131CIA METALURGICA PRADA                                                 0000000034100000000000000000000000000000848180630000002218222680025830002     201209112012071700000000054530000247673000000000265845000000000000000000000000018172050000000000  3020121025   01          2                                                                                   3112218222688293800573900059                                                  N                     01321  0000000        000160
12056993900000131CIA METALURGICA PRADA                                                 0000000034100000000000000000000000000000848180640000002218222690025830102     201209112012071700000000054530000207402000000000222626000000000000000000000000015224050000000000  3020121025   01          2                                                                                   3112218222696293800573900039                                                  N                     01321  0000000        000161
12056993900000131CIA METALURGICA PRADA                                                 0000000034100000000000000000000000000000855028640000002254750300026244403     201210222012072800000000054940000084116000000000084536000000000000000000000000000420050000000000  3020121025   01          2                                                                                   3112254750303293800573900099                                                  N                     01321  0000000        000162
12056993900000131CIA METALURGICA PRADA                                                 0000000034100000000000000000000000000000848180650000002218222700025829903     201210092012071700000000054810000498119000000000510569000000000000000000000000013280050000000000  3020121024   06          3                                                                                   3112218222704293800573900019                                                  N                     01321  0000000        000163
12056993900000131CIA METALURGICA PRADA                                                 0000000034100000000000000000000000000000848180660000002218222710025830003     201210092012071700000000054810000247672000000000253867000000000000000000000000006608050000000000  3020121024   06          3                                                                                   3112218222712293800573900019                                                  N                     01321  0000000        000164
12056993900000131CIA METALURGICA PRADA                                                 0000000034100000000000000000000000000000848180670000002218222720025830103     201210092012071700000000054810000207402000000000212592000000000000000000000000005536050000000000  3020121024   06          3                                                                                   3112218222720293800573900079                                                  N                     01321  0000000        000165
12057029431000106ATLAS COPCO BRASIL LTDA                                               0000000034100000000000000000000000000000863731640000002292733057000054146     201209072012081000000000054490000081450000000000084042000000000000000000000000002592050000000000  3020121025   01          2                                                                                   3112292733055293804111400099                                                  N                     01321  0000000        000166
12057029431000106ATLAS COPCO BRASIL LTDA                                               0000000034100000000000000000000000000000861960280000002283943487000054090     201209062012080900000000054480000059490000000000061401000000000000000000000000001911050000000000  3020121025   01          2                                                                                   3112283943481293804111400069                                                  N                     01321  0000000        000167
12057398687000182MORED COMERCIO E SERVICOS LTDA                                        0000000034100000000000000000000000000000895189900000006153514885226           201210242012100400000000054960000054340000000000054447000000000000000000000000000107050000000000  3020121025   01          2                                                                                   3156153514884101144455900019                                                  N                     01321  0000000        000168
12059659615000177DZ COMERCIO R E SERVICOS LTDA                                         000000003410000000000000000000000000000086699205000000900000268252            201209172012081500000000054590000060000000000000064560000000000000000000000000004560050000000000  3020121025   01          2                                                                                   3109000002680000314585100059                                                  N                     01321  0000000        000169
12061217188000119TELAS METALICAS TELMETAL LTDA                                         0000000000100000000000000000000000000000906662750000000058320005808 1 1       201211182012102400000000055210000079842000000000079842000000000000000000000000000000050000000000  3020121119   01FS        1                                                                                   3000000115031800000058321729                                                  N                     01321  0000000        000170
12062510367000102ITANHAEM TRANSP DE MAQUINAS LT                                        000000003410000000000000000000000000000087407049000000236463199667            201209202012090400000000054620000248220000000000282975000000000000000000000000034755050000000000  3020121025   01          2                                                                                   3112364631997005770252400049                                                  N                     01321  0000000        000171
12062539994000176LEALFER INDUSTRIA E COMERCIO D                                        0000000003300000000000000000000000000000893373900000003800000000005568401     201210242012092500000000054960000891184000000000892699000000000000000000000000001515050000000000  3020121025   01          2                                                                                   3915298380000000268038010429                                                  N                     01321  0000000        000172
12062539994000176LEALFER INDUSTRIA E COMERCIO D                                        0000000003300000000000000000000000000000893373910000004600000000005563001     201210242012092500000000054960000136948000000000137180000000000000000000000000000232050000000000  3020121025   01          2                                                                                   3915298380000000268046010469                                                  N                     01321  0000000        000173
12062539994000176LEALFER IN E COM DE ACO LTDA                                          0000000034100000000000000000000000000000906662640000002514608450005682602     201212122012101600000000055450001940442000000001940442000000000000000000000000000000050000000000  3020121212   01FS        1                                                                                   3112514608457076103324000069                                                  N                     01321  0000000        000174
12062539994000176LEALFER IN E COM DE ACO LTDA                                          0000000034100000000000000000000000000000906662650000002514610350005682603     201301092012101600000000055730001940442000000001940442000000000000000000000000000000050000000000  3020130109   01FS        1                                                                                   3112514610354076103324000089                                                  N                     01321  0000000        000175
12062539994000176LEALFER IN E COM DE ACO LTDA                                          0000000034100000000000000000000000000000906662620000002514604760005682601     201211142012101600000000055170001940443000000001940443000000000000000000000000000000050000000000  3020121114   01FS        1                                                                                   3112514604761076103324000049                                                  N                     01321  0000000        000176
12062944582000111AS SOLUCOES COMERCIAL LTDA                                            00000000001000000000000000000000000000008904571100000032079500016984 A        201210242012092700000000054960000033600000000000033639000000000000000000000000000039050000000000  3020121025   01          2                                                                                   3529483207951190000690001719                                                  N                     01321  0000000        000177
12064952757000168WALMAC COM DE PROD QUIMICOS LT                                        0000000034100000000000000000000000000000860403450000002275821700020148        201210052012080300000000054770000219267000000000227887000000000000000000000000008620050000000000  3020121025   01          2                                                                                   3112275821703064807961400029                                                  N                     01321  0000000        000178
12064952757000168WALMAC COM DE PROD QUIMICOS LT                                        0000000034100000000000000000000000000000860403460000002275821710020148        201208312012080300000000054420000219267000000000242972000000000000000000000000023705050000000000  3020121025   01          2                                                                                   3112275821711064807961400079                                                  N                     01321  0000000        000179
12065000655000105HILTI DO BRASIL COMERCIAL LTDA                                        0000000023703396000000000243787 00000000871682760090224400001640002179001     201209272012082800000000054690000019742000000000020834000000000000000000000000001092050000000000  3020121025   01          2  RUA TAMAINDE 1410                                                                3                         000000000000000                                     N                     00598  0000000        000180
12065611451000100SUPERDIN COMERCIAL E IMPORTADO                                        0000000023700890700000000004502 0000000089434422009022770000008   006798A     201210222012092420121022054940000034360000000000020958000000000013744000000000000342050000000000  3020121025   01          2  R TAMAINDE 1410                                                                  3                         000000000000000                                     N                     00598  0000000        000181
12066841552000130R V SEG PATRIMONIAL LTDA                                              00000000341000000000000000000000000000008852483200000090002192721927          201209102012081000000000054520000483241000000000490486000000000000000000000000007245050000000000  3020121025   01          2                                                                                   3109000219270001835253400099                                                  N                     01321  0000000        000182
12066841552000130R V SEG PATRIMONIAL S C LTDA                                          00000000341000000000000000000000000000008887329800000090002213622136          201210102012091100000000054820000374758000000000376633000000000000000000000000001875050000000000  3020121025   01          2                                                                                   3109000221365001838994000069                                                  N                     01321  0000000        000183
12066970229000167NEXTEL TELECOMUNICACOES LTDA                                          0000000023702374400000001596233 000000009066627300900001559308042043 9        201211102012011900000000055130000011880000000000011880000000000000000000000000000000050000000000  3020121112   01FS        1  R GANGES  520 VILA CARRAO BR                                                     3                         000000000000000                                     N                     00598  0000000        000184
12068364900000151V R INDUSTRIA HELIOGRAFICA LTD                                        000000000330000000000000000000000000000090327873000000000000000136263 1 1     201210222012100100000000054940000017840000000000017893000000000000000000000000000106050000000000  3020121023   06          3                                                                                   3942136960000000181900020329                                                  N                     01321  0000000        000185
12069034668000156SODEXO PASS BRASIL SERV COM SA                                        0000000034100000000000000000000000000000906662690000009218796281200013533     201211212012102200000000055240000140300000000000140300000000000000000000000000000000050000000000  3020121121   01FS        1                                                                                   3109218796288293801455800049                                                  N                     01321  0000000        000186
12069034668000156SODEXO PASS BRASIL SERV COM SA                                        0000000034100000000000000000000000000000906662680000009218795531200013531     201211212012102200000000055240000384830000000000384830000000000000000000000000000000050000000000  3020121121   01FS        1                                                                                   3109218795538293801455800029                                                  N                     01321  0000000        000187
12069284248000128ISOCOAT TINTAS E VERNIZES LTDA                                        0000000034100000000000000000000000000000841061040000002182507930052085        201209172012070200000000054590000236130000000000260070000000000000000000000000023940050000000000  3020121025   01          2                                                                                   3112182507932077430121200019                                                  N                     01321  0000000        000188
12069309706000136F N A TRANSPORTES LTDA                                                000000003410000000000000000000000000000086615421000000900010656059068         201208302012081500000000054410000079200000000000093984000000000000000000000000014784050000000000  3020121025   01          2                                                                                   3109000106565005486932600099                                                  N                     01321  0000000        000189
12075483040000130REX MAQUINAS E EQUIPAMENTOS LT                                        0000000023702656500000000000701 000000009066627000202298000042186530 2 1      201211202012102300000000055230000564200000000000564200000000000000000000000000000000050000000000  3020121120   01FS        1  RUA  GANGES  528                                                                 3                         000000000000000                                     N                     00598  0000000        000190
12075483040000130REX MAQUINAS E EQUIPAMENTOS LT                                        0000000023702656500000000000701 000000009066627100202298000042286530 2 2      201212182012102300000000055510000434000000000000434000000000000000000000000000000000050000000000  3020121218   01FS        1  RUA  GANGES  528                                                                 3                         000000000000000                                     N                     00598  0000000        000191
12075483040000130REX MAQUINAS E EQUIPAMENTOS LT                                        0000000023702656500000000000701 000000009066627200202298000042386530 2 3      201301152012102300000000055790000434000000000000434000000000000000000000000000000000050000000000  3020130115   01FS        1  RUA  GANGES  528                                                                 3                         000000000000000                                     N                     00598  0000000        000192
12096500087000135WORKBENCH CONSULTORIA S S LTDA                                        0000000034100000000000000000000000000000878205840000007940034283118           201209272012090300000000054690000131746000000000138998000000000000000000000000007252050000000000  3020121025   01          2                                                                                   3157940034289826313803700089                                                  N                     01321  0000000        000193
900019400000000073851869                                                                                                                                                                                                                                                                                                                                                                                                                                                                01321  0000000        000194
