0000147602043799295000110ALTAMIRA INDUSTRIA METALURGICA LT       202000000009020120725060824             1                                                                                                                                                                                                                                                                                                                                                                                                    000001
12000676486000182FEDERAL EXPRESS CORPORATION                                           0000000023703381200000001001191 00000000850740400090000022232772223277        201208072012072300000000054180000003611000000000003611000000000000000000000000000000050000000000  3020120807   01FS        1  RUA TAMAINDE 1410                                                                3                         000000000000000                                     N                     00598  0000000        000002
12003195972000177L E S INTERBANK FOMENTO LTDA                                          00000000001000000000000000000000000000008507405300000092106800013297          201208152012072300000000054260000046460000000000046460000000000000000000000000000000050000000000  3020120815   01FS        1                                                                                   3043919210683014000077163149                                                  N                     01321  0000000        000003
12003746938000143STAPLES BRASIL COM DE MAT DE E                                        0000000023703394400000000368008 0000000085074069002000000797375460605 1       201208222012072300000000054330000032373000000000032373000000000000000000000000000000050000000000  3020120822   01FS        1  RUA GANGES VILA CARRAO VILA CARRAO                                               3                         000000000000000                                     N                     00598  0000000        000004
12006000195000156MBA MERCANTIL BRAS DE ACO LTDA                                        0000000034100000000000000000000000000000850740590000008671394420008925B03     201210122012072000000000054840000719580000000000719580000000000000000000000000000000050000000000  3020121015   01FS        1                                                                                   3458671394427064849251000039                                                  N                     01321  0000000        000005
12006000195000156MBA MERCANTIL BRAS DE ACO LTDA                                        0000000034100000000000000000000000000000850740600000008671394430008926B03     201210122012072000000000054840000387716000000000387716000000000000000000000000000000050000000000  3020121015   01FS        1                                                                                   3458671394435064849251000049                                                  N                     01321  0000000        000006
12006000195000156MBA MERCANTIL BRAS DE ACO LTDA                                        0000000034100000000000000000000000000000850740610000008671394540008920B02     201209162012072000000000054580000576585000000000576585000000000000000000000000000000050000000000  3020120917   01FS        1                                                                                   3458671394542064849251000019                                                  N                     01321  0000000        000007
12006000195000156MBA MERCANTIL BRAS DE ACO LTDA                                        0000000034100000000000000000000000000000850740620000008671394550008925B02     201209142012072000000000054560000719581000000000719581000000000000000000000000000000050000000000  3020120914   01FS        1                                                                                   3458671394559064849251000059                                                  N                     01321  0000000        000008
12006000195000156MBA MERCANTIL BRAS DE ACO LTDA                                        0000000034100000000000000000000000000000850740630000008671394560008926B02     201209142012072000000000054560000387716000000000387716000000000000000000000000000000050000000000  3020120914   01FS        1                                                                                   3458671394567064849251000099                                                  N                     01321  0000000        000009
12006000195000156MBA MERCANTIL BRAS DE ACO LTDA                                        0000000034100000000000000000000000000000850740640000008671394410008920B03     201210142012072000000000054860000576584000000000576584000000000000000000000000000000050000000000  3020121015   01FS        1                                                                                   3458671394419064849251000019                                                  N                     01321  0000000        000010
12006000195000156MBA MERCANTIL BRAS DE ACO LTDA                                        0000000034100000000000000000000000000000850740650000008671394740008920B01     201208192012072000000000054300000576584000000000576584000000000000000000000000000000050000000000  3020120820   01FS        1                                                                                   3458671394740064849251000069                                                  N                     01321  0000000        000011
12006000195000156MBA MERCANTIL BRAS DE ACO LTDA                                        0000000034100000000000000000000000000000850740660000008671394750008925B01     201208172012072000000000054280000719580000000000719580000000000000000000000000000000050000000000  3020120817   01FS        1                                                                                   3458671394757064849251000019                                                  N                     01321  0000000        000012
12006000195000156MBA MERCANTIL BRAS DE ACO LTDA                                        0000000034100000000000000000000000000000850740670000008671394760008926B01     201208172012072000000000054280000387716000000000387716000000000000000000000000000000050000000000  3020120817   01FS        1                                                                                   3458671394765064849251000029                                                  N                     01321  0000000        000013
12006000195000156M B A MERCANTIL BRASILEIRA DE                                         0000000023700118P00000002130599 00000000803907220020212500000100007991B03     201207232012041700000000054030000932217000000000932217000000000000000000000000000000050000000000  3020120723   06          3  RUA JUNO 533                                                                     3                         000000000000000                                     N                     00598  0000000        000014
12009043000000143GERSON D DA SILVA SEGURANCA DO                                        000000003990000000000000000000000000000085074068000000000000000320            201208152012071400000000054260000071586000000000071586000000000000000000000000000000050000000000  3020120815   01FS        1                                                                                   3304770024940477000087000149                                                  N                     01321  0000000        000015
12009472156000140RME ENGENHARIA LTDA                                                   0000000023702303500000000257672 000000008297802100901321670058238703          201207242012061300000000054040000116025000000000118732000000000000000000000000002707050000000000  3020120725   01          2  RUA TAMAINDE  1410                                                               3                         000000000000000                                     N                     00598  0000000        000016
12011202309000180FIEL TOOLS DISTRIBUIDORA DE MA                                        0000000023702087700000000000116 0000000085074056009000020186261008626 1       201208202012072300000000054310000041975000000000041975000000000000000000000000000000050000000000  3020120820   01FS        1  R TAMAINDE  1 410   RUA GANGES  520 E 52                                         3                         000000000000000                                     N                     00598  0000000        000017
12011202309000180FIEL TOOLS DISTRIBUIDORA DE MA                                        0000000023702087700000000000116 0000000085074057009000020186262008626 2       201208272012072300000000054380000041975000000000041975000000000000000000000000000000050000000000  3020120827   01FS        1  R TAMAINDE  1 410   RUA GANGES  520 E 52                                         3                         000000000000000                                     N                     00598  0000000        000018
12012006058000121WEG TINTAS LTDA                                                       0000000023702727800000000001309 00000000807926720090213200000660013672703     201207242012051000000000054040000306662000000000306662000000000000000000000000000000050000000000  3020120724   06          3  R JUNO  533                                                                      3                         000000000000000                                     N                     00598  0000000        000019
12012256386000186TOP TRAD SERVICOS DE TEXTOS LT                                        0000000023700200300000001062603 00000000850740700090132194025562718           201207272012071200000000054070000025600000000000025600000000000000000000000000000000050000000000  3020120727   01FS        1  R TAMANDE 1410                                                                   3                         000000000000000                                     N                     00598  0000000        000020
12012256386000186TOP TRAD SERVICOS DE TEXTOS LT                                        0000000023700200300000001062603 00000000850740710090132195025722735           201207272012071300000000054070000024800000000000024800000000000000000000000000000000050000000000  3020120727   01FS        1  R TAMANDE 1410                                                                   3                         000000000000000                                     N                     00598  0000000        000021
12042956441000101SOLUCOES ACO USIMINAS                                                 0000000034100000000000000000000000000000850740510000002233586850017127102     201209172012072000000000054590000167727000000000167727000000000000000000000000000000050000000000  3020120917   01FS        1                                                                                   3112233586851293807258000039                                                  N                     01321  0000000        000022
12042956441000101SOLUCOES ACO USIMINAS                                                 0000000034100000000000000000000000000000850740410000002233586750017101001     201208172012071900000000054280000732795000000000732795000000000000000000000000000000050000000000  3020120817   01FS        1                                                                                   3112233586752293807258000099                                                  N                     01321  0000000        000023
12042956441000101SOLUCOES ACO USIMINAS                                                 0000000034100000000000000000000000000000850740520000002233586860017127202     201209172012072000000000054590000137840000000000137840000000000000000000000000000000050000000000  3020120917   01FS        1                                                                                   3112233586869293807258000019                                                  N                     01321  0000000        000024
12042956441000101SOLUCOES ACO USIMINAS                                                 0000000034100000000000000000000000000000850740420000002233586760017101201     201208172012071900000000054280000144677000000000144677000000000000000000000000000000050000000000  3020120817   01FS        1                                                                                   3112233586760293807258000079                                                  N                     01321  0000000        000025
12042956441000101SOLUCOES ACO USIMINAS                                                 0000000034100000000000000000000000000000850740430000002233586770017126901     201208202012072000000000054310000208455000000000208455000000000000000000000000000000050000000000  3020120820   01FS        1                                                                                   3112233586778293807258000039                                                  N                     01321  0000000        000026
12042956441000101SOLUCOES ACO USIMINAS                                                 0000000034100000000000000000000000000000850740440000002233586780017127001     201208202012072000000000054310000190485000000000190485000000000000000000000000000000050000000000  3020120820   01FS        1                                                                                   3112233586786293807258000019                                                  N                     01321  0000000        000027
12042956441000101SOLUCOES ACO USIMINAS                                                 0000000034100000000000000000000000000000850740450000002233586790017127101     201208202012072000000000054310000167777000000000167777000000000000000000000000000000050000000000  3020120820   01FS        1                                                                                   3112233586794293807258000029                                                  N                     01321  0000000        000028
12042956441000101SOLUCOES ACO USIMINAS                                                 0000000034100000000000000000000000000000850740460000002233586800017127201     201208202012072000000000054310000137881000000000137881000000000000000000000000000000050000000000  3020120820   01FS        1                                                                                   3112233586802293807258000019                                                  N                     01321  0000000        000029
12042956441000101SOLUCOES ACO USIMINAS                                                 0000000034100000000000000000000000000000850740470000002233586810017101002     201209142012071900000000054560000732575000000000732575000000000000000000000000000000050000000000  3020120914   01FS        1                                                                                   3112233586810293807258000019                                                  N                     01321  0000000        000030
12042956441000101SOLUCOES ACO USIMINAS                                                 0000000034100000000000000000000000000000850740480000002233586820017101202     201209142012071900000000054560000144634000000000144634000000000000000000000000000000050000000000  3020120914   01FS        1                                                                                   3112233586828293807258000029                                                  N                     01321  0000000        000031
12042956441000101SOLUCOES ACO USIMINAS                                                 0000000034100000000000000000000000000000850740490000002233586830017126902     201209172012072000000000054590000208392000000000208392000000000000000000000000000000050000000000  3020120917   01FS        1                                                                                   3112233586836293807258000089                                                  N                     01321  0000000        000032
12042956441000101SOLUCOES ACO USIMINAS                                                 0000000034100000000000000000000000000000850740500000002233586840017127002     201209172012072000000000054590000190428000000000190428000000000000000000000000000000050000000000  3020120917   01FS        1                                                                                   3112233586844293807258000019                                                  N                     01321  0000000        000033
12042956441000101SOLUCOES ACO USIMINAS                                                 0000000034100000000000000000000000000000850740340000002233586880017101203     201210152012071900000000054870000144633000000000144633000000000000000000000000000000050000000000  3020121015   01FS        1                                                                                   3112233586885293807258000019                                                  N                     01321  0000000        000034
12042956441000101SOLUCOES ACO USIMINAS                                                 0000000034100000000000000000000000000000850740350000002233586890017126903     201210152012072000000000054870000208393000000000208393000000000000000000000000000000050000000000  3020121015   01FS        1                                                                                   3112233586893293807258000039                                                  N                     01321  0000000        000035
12042956441000101SOLUCOES ACO USIMINAS                                                 0000000034100000000000000000000000000000850740360000002233586900017127003     201210152012072000000000054870000190427000000000190427000000000000000000000000000000050000000000  3020121015   01FS        1                                                                                   3112233586901293807258000079                                                  N                     01321  0000000        000036
12042956441000101SOLUCOES ACO USIMINAS                                                 0000000034100000000000000000000000000000850740370000002233586870017101003     201210152012071900000000054870000732574000000000732574000000000000000000000000000000050000000000  3020121015   01FS        1                                                                                   3112233586877293807258000059                                                  N                     01321  0000000        000037
12042956441000101SOLUCOES ACO USIMINAS                                                 0000000034100000000000000000000000000000850740380000002233586910017127103     201210152012072000000000054870000167726000000000167726000000000000000000000000000000050000000000  3020121015   01FS        1                                                                                   3112233586919293807258000099                                                  N                     01321  0000000        000038
12042956441000101SOLUCOES ACO USIMINAS                                                 0000000034100000000000000000000000000000850740390000002233586920017127203     201210152012072000000000054870000137839000000000137839000000000000000000000000000000050000000000  3020121015   01FS        1                                                                                   3112233586927293807258000079                                                  N                     01321  0000000        000039
12042956441000101SOLUCOES EM ACO USIMINAS S A                                          000000000010000000000000000000000000000083482057000000086564000000166829001   201207232012062600000000054030000125238000000000125238000000000000000000000000000000050000000000  3020120723   06          3                                                                                   3000000169660100000865641759                                                  N                     01321  0000000        000040
12042956441000101SOLUCOES EM ACO USIMINAS S A                                          000000000010000000000000000000000000000083482054000000086561000000166828001   201207232012062600000000054030000325481000000000326783000000000000000000000000001302050000000000  3020120725   01          2                                                                                   3000000169660100000865611739                                                  N                     01321  0000000        000041
12042956441000101SOLUCOES ACO USIMINAS                                                 0000000034100000000000000000000000000000819544960000002078930780016228302     201207242012052900000000054040000577774000000000578930000000000000000000000000001156050000000000  3020120725   01          2                                                                                   3112078930784293807258000039                                                  N                     01321  0000000        000042
12051598472000129ELETRICA J SANTOS                                                     0000000023702451100000000000264 000000008507405800902206000003117806 01       201208202012072300000000054310000092714000000000092714000000000000000000000000000000050000000000  3020120820   01FS        1  R JUNO  533                                                                      3                         000000000000000                                     N                     00598  0000000        000043
12066144957000110POSTO DE MOLAS MABAFIL LTDA ME                                        000000000010000000000000000000000000000085074054000000000697000000380         201208122012072300000000054230000041450000000000041450000000000000000000000000000000050000000000  3020120813   01FS        1                                                                                   3000000162353900000006971749                                                  N                     01321  0000000        000044
12066144957000110POSTO DE MOLAS MABAFIL LTDA ME                                        000000000010000000000000000000000000000085074055000000000698000000380 2       201209122012072300000000054540000041450000000000041450000000000000000000000000000000050000000000  3020120912   01FS        1                                                                                   3000000162353900000006981719                                                  N                     01321  0000000        000045
12066899790000105FABRICA ARTEF LATEX ESTRELA EP                                        00000000399000000000000000000000000000008154444100000000000000070239 002      201207232012052400000000054030000368900000000000368900000000000000000000000000000000050000000000  3020120723   06          3                                                                                   3175298168391125027292500119                                                  N                     01321  0000000        000046
12069284248000128ISOCOAT TINTAS E VERNIZES LTDA                                        0000000034100000000000000000000000000000807926460000002014739830049529        201207232012050800000000054030000017004000000000017004000000000000000000000000000000050000000000  3020120723   06          3                                                                                   3112014739836077430121200019                                                  N                     01321  0000000        000047
12092693118000160BRADESCO SAUDE S A                                                    0000000023700448000000001533991 00000000829780050050100702629130000000000     201207202012061800000000054000000645861000000000647941000000000000000000000000002080050000000000  3020120725   01          2                                                                                   3                         000000000000000                                     N                     00598  0000000        000048
900004900000000013683301                                                                                                                                                                                                                                                                                                                                                                                                                                                                00598  0000000        000049
