0000147602043799295000110ALTAMIRA IND METALURGICA LTDA           20100597000002012122616353400000        2    230A                                                                                          000000000000000                                                                                                                                                                                                                                                                                   000001
12008594182000188ACOS G3 COMERCIO E BENEFICIAME                                        0000000000100000000000000000000000000000913584960000009116680001278 02        201212250000000000000000055580000211796000000000211796000000000000000000000000000000050000000000  3020121226   01MFBUHA    500                                                                                 3000000213008444199116681159010000       001278/02                            N                     00000 10020256        000002
12009034654000291STEEL PRODUCTS DO BRASIL LTDA                                         0000000000100000000000000000000000000000914718930000005529200002470 3 3       201212230000000000000000055560000132000000000000135963000000000000000000000000003963050000000000  3020121226   01MFBUHA    500                                                                                 3000000221373244205529201149010000       002470/03-03                         N                     00000 10020256        000003
12067647412000199ANCORA CHUMBADORES LTDA                                               000000003410000000000000000000000000000091932174000000257023549065922 1       201212220000000000000000055550000175000000000000176376000000000000000000000000001376050000000000  3020121226   01MFBUHA    500                                                                                 3112570235492013626917200029010000       0065922                              N                     00000 10020256        000004
12061217188000119TELAS METALICAS TELMETAL LTDA                                         0000000003300000000000000000000000000000923779500000003400000005977 2 3       201212260000000000000000055590000011837000000000011837000000000000000000000000000000050000000000  3020121226   01MFBUHA    500                                                                                 3915435040000000048534020139010000       005977/02-3                          N                     00000 10020256        000005
12067298349000122JOBINVEST FOMENTO MERCANTIL LT                                        000000000010000000000000000000000000000092654643000000797502000540B           201212240000000000000000055570000109609000000000110193000000000000000000000000000584050000000000  3020121226   01MFBUHA    500                                                                                 3161477975021204000105451729010000       00540/02                             N                     00000 10020256        000006
12005852768000107DAOUD LEAL ELETRONICA LTDA ME                                         000000003410000000000000000000000000000092654651000000616306821DEZEMBRO       201212260000000000000000055590000016247000000000016247000000000000000000000000000000050000000000  3020121226   01MFBUHA    500                                                                                 3156163068216152944476000079010000       00REF.12/2012.                       N                     00000 10020256        000007
12015251825000156JOSEFA A LIMA DOS SANTOS EPP                                          0000000034100000000000000000000000000000927575400000007057302701737           201212250000000000000000055580000013970000000000013970000000000000000000000000000000050000000000  3020121226   01MFBUHA    500                                                                                 3157057302707810513909400029010000       001737                               N                     00000 10020256        000008
12035820448000136WHITE MARTINS GASES INDUSTRIAI                                        0000000023700026400000003937925 0000000092862648009023330000472414058 001     201212250000000000000000055580000085208000000000085208000000000000000000000000000000050000000000  3020121226   01MFBUHA    500RUA GANGES  528                                                                  3010000                   000000000000000009539/01                            N                     00000 10020256        000009
12065000655000105HILTI DO BRASIL COMERCIAL LTDA                                        0000000023703396000000000243787 00000000928626490090233300005210021321401     201212230000000000000000055560000189853000000000190990000000000000000000000000001137050000000000  3020121226   01MFBUHA    500RUA TAMAINDE 1410                                                                3010000                   00000000000000000213214/01                          N                     00000 10020256        000010
12043350099000164JMC COML ELETRICA LTDA                                                0000000023700092200000000380105 000000009286265300902333000027059752 01       201212240000000000000000055570000047400000000000047652000000000000000000000000000252050000000000  3020121226   01MFBUHA    500R  GANGES  528                                                                   3010000                   0000000000000000059752/01                           N                     00000 10020256        000011
12035820448000136WHITE MARTINS GASES INDUSTRIAI                                        0000000023700026400000003937925 0000000092949014009023340002714414747 001     201212260000000000000000055590000056805000000000056805000000000000000000000000000000050000000000  3020121226   01MFBUHA    500RUA GANGES  528                                                                  3010000                   00000000000000000414747/01                          N                     00000 10020256        000012
12010695186000102POWER LOGISTICA E SERVICOS LTD                                        0000000023703417700000000187089 00000000931455210090000000008580000339873     201212240000000000000000055570000034860000000000035070000000000000000000000000000210050000000000  3020121226   01MFBUHA    500RUA  JUNO 533                                                                    3010000                   0000000000000000033987/03                           N                     00000 10020256        000013
12011389422000117NELSON RODRIGUES DA SILVA JUNI                                        00000000104000000000000000000000000000009335832700000000204060017040          201212260000000000000000055590000018000000000000018000000000000000000000000000000000050000000000  3020121226   01MFBUHA    500                                                                                 3900000204002478700000058719010000       0017040                              N                     00000 10020256        000014
12005325559000105SOLDASEG EQUIP SOLDA SEG LTDA                                         000000003410000000000000000000000000000093358344000000264722596N7581 1        201212250000000000000000055580000058752000000000058752000000000000000000000000000000050000000000  3020121226   01MFBUHA    500                                                                                 3112647225963068206403500079010000       007581/01                            N                     00000 10020256        000015
12002248601000143TECNOLACOS CABOS E CINTAS LTDA                                        000000000010000000000000000000000000000093452387000000018668000007728         201212260000000000000000055590000022040000000000022040000000000000000000000000000000050000000000  3020121226   01MFBUHA    500                                                                                 3044290186681192000070425189010000       007728                               N                     00000 10020256        000016
12006066698000124NOVO REINO LOGISTICA E TRANSPO                                        000000000010000000000000000000000000000093540014000000861563000165322         201212260000000000000000055590000005500000000000005500000000000000000000000000000000050000000000  3020121226   01MFBUHA    500                                                                                 3044298615631584001800001199010000       00165322                             N                     00000 10020256        000017
12054382510000108SETENTA IND E COM DE MADEIRAS                                         0000000034100000000000000000000000000000937366650000002662059314912 A         201212260000000000000000055590000191200000000000191200000000000000000000000000000000050000000000  3020121226   01MFBUHA    500                                                                                 3112662059313057049175300019010000       004912                               N                     00000 10020256        000018
12061600839000155CENTRO DE INT EMPRESA ESCOLA C                                        0000000023703391P00000000866202 00000000937366850090000037306007641C 0001     201212260000000000000000055590000016800000000000016800000000000000000000000000000000050000000000  3020121226   01MFBUHA    500R GANGES  528                                                                    3010000                   000000000000000007641/C                             N                     00000 10020256        000019
12007525020000125MULTIPLA B G  LOG LTDA                                                0000000034100000000000000000000000000000937366860000009000655840000275174     201212240000000000000000055570000015800000000000015852000000000000000000000000000052050000000000  3020121226   01MFBUHA    500                                                                                 3109000655840438726766100079010000       00275474                             N                     00000 10020256        000020
12013656578000142GUARINOR TRANSP E LOGISTICA LT                                        000000001040000000000000000000000000000094562133000000001746400002459 12      201212260000000000000000055590000175697000000000175697000000000000000000000000000000050000000000  3020121226   01MFBUHA    500                                                                                 3900000174632958700000017339010000       002459                               N                     00000 10020256        000021
12008594182000188ACOS G3 COMERCIO E BENEFICIAME                                        0000000023703137200000000091332 I000000000010355028022710000027               201212260000000000000000055590000156175000000000156175000000000000000000000000000000010000001155  3120121226   01HA        000                                                                                 3313728227100000270009133059             001155/003                           N                     00000 10020256        000022
900002300000000001752123                                                                                                                                                                                    000000000000000                                                                                                                                                                                                                                                    00002101167170001744549        000023
