0000147602043799295000110ALTAMIRA IND METALURGICA LTDA           20100541000002012102617333900000        2    230A                                                                                          000000000000000                                                                                                                                                                                                                                                                                   000001
12065000655000105HILTI DO BRASIL COMERCIAL LTDA                                        0000000023703396000000000243787 00000000871682760090224400001640002179001     201209270000000000000000054690000019742000000000020873000000000000000000000000001131050000000000  3020121026   01BUHA      500RUA TAMAINDE 1410                                                                3                         00000000000000000                                   N                     00000 10020256        000002
12005151518000140BELENUS DO BRASIL LTDA                                                000000000010000000000000000000000000000087407045000000750519000R130170522     201210260000000000000000054980000192000000000000192000000000000000000000000000000000050000000000  3020121026   01MFBUHA    500                                                                                 3000000123933844037505193139010000       00170522                             N                     00000 10020256        000003
12054382510000108SETENTA IND E COM DE MADEIRAS                                         0000000034100000000000000000000000000000874070720000002305114064536 A         201209190000000000000000054610000191200000000000205112000000000000000000000000013912050000000000  3020121026   01MFBUHA    500                                                                                 3112305114061057002848000039010000       00                                   N                     00000 10020256        000004
12047190731000100DE CASTRO LOUR ENG IND LTDA                                           00000000341000000000000000000000000000008782059300000023602715203026745 0     201210260000000000000000054980000903175000000000903175000000000000000000000000000000050000000000  3020121026   01MFBUHA    500                                                                                 3112360271525036884500400019010000       003026745                            N                     00000 10020256        000005
12047190731000100DE CASTRO LOUR ENG IND LTDA                                           00000000341000000000000000000000000000008782059800000023602714903026744 0     201210260000000000000000054980000146594000000000146594000000000000000000000000000000050000000000  3020121026   01MFBUHA    500                                                                                 3112360271491036884500400069010000       003026744                            N                     00000 10020256        000006
12047190731000100DE CASTRO LOUREIRO ENGENHARIA                                         0000000023703394400000000205508 000000008801224700202255000000603026784 0     201210260000000000000000054980001041759000000001041759000000000000000000000000000000050000000000  3020121026   01MFBUHA    500RUA JUNO  533                                                                    3010000                   000000000000000003026784                            N                     00000 10020256        000007
12047190731000100DE CASTRO LOUREIRO ENGENHARIA                                         0000000023703394400000000205508 000000008801225000202255000000903026787 0     201210260000000000000000054980001135987000000001135987000000000000000000000000000000050000000000  3020121026   01MFBUHA    500RUA JUNO  533                                                                    3010000                   000000000000000003026787                            N                     00000 10020256        000008
12054382510000108SETENTA IND E COM DE MADEIRAS                                         0000000034100000000000000000000000000000883508330000002392776804604 A         201210080000000000000000054800000116600000000000120722000000000000000000000000004122050000000000  3020121026   01MFBUHA    500                                                                                 3112392776806057049175300019010000       00                                   N                     00000 10020256        000009
12005151518000140BELENUS DO BRASIL LTDA                                                000000000330000000000000000000000000000089697933000000150000000R131165812     201210260000000000000000054980000122305000000000122305000000000000000000000000000000050000000000  3020121026   01MFBUHA    500                                                                                 3918381050000000445215010469010000       0065812                              N                     00000 10020256        000010
12054382510000108SETENTA IND E COM DE MADEIRAS                                         0000000034100000000000000000000000000000902449890000002459509654672 A         201210260000000000000000054980000109600000000000109600000000000000000000000000000000050000000000  3020121026   01MFBUHA    500                                                                                 3112459509652057002848000019010000       00                                   N                     00000 10020256        000011
12007920494000171NOGUEIRA LEITE ADVOG ASSOC    AV MOEMA  170                           0407702074500000 0000000000000  I000000000010081000000000000000               201210260000000000000000054980000295500000000000295500000000000000000000000000000000010000004730  3120121026   01HA        000                                                                                 3361125706001200000010262819             0004730                              N                     00000 10020256        000012
12043555887000197RENATO GONCALVES              RUA  ROZO LAGOA  512                    0247121000100000 0000000000000  I000000000010082000000000000000               201210260000000000000000054980000194088000000000194088000000000000000000000000000000010000000308  3120121026   01HA        000                                                                                 3000000104260650156803971189             00308                                N                     00000 10020256        000013
12007711227000194L BARBI REPRESENTACOES        R IRAPUA 225 CASA 8 PENHA CIRCULAR      2121506023702804500000000201758 I000000000010083000000000000000               201210260000000000000000000000000000000000000000130900000000000000000000000000000000010000000102  0120121026   01HA        000                                                                                 3                                        00102                                N                     00000 10020256        000014
12065000655000105HILTI DO BRASIL COMERCIAL LTDAAV CECI 426 TAMBORE                     0646012023703396000000000243787 I000000000010084000000000000000               201210260000000000000000000000000000000000000000143517000000000000000000000000000000010000000000  0120121026   01HA        000                                                                                 3                                        00                                   N                     00000 10020256        000015
12005915831000107PALETES SATELITE COM LTDA ME                                          0000000034100000 0000000000000  I000000000010085000000000000000               201210260000000000000000054980000058500000000000058500000000000000000000000000000000010000001944  3120121026   01HA        000                                                                                 3109019440001144648966600019             001944                               N                     00000 10020256        000016
12004398623000115MET GALHARDO IND E COM LTDA                                           0000000034100000 0000000000000  I000000000010086000000000000000               201210260000000000000000054980000050014000000000050014000000000000000000000000000000010000005141  3120121026   01HA        000                                                                                 3181568977750046770270000059             005141                               N                     00000 10020256        000017
12071635882000100DENEB BRASIL COM LTDA                                                 0000000000100000 0000000000000  I000000000010087000000000000000               201210260000000000000000054980000040881000000000040881000000000000000000000000000000010000002494  3120121026   01HA        000                                                                                 3000000226098600000011731819             002494                               N                     00000 10020256        000018
12048775225000146SEIKI IND COM CONFECCOES LTDA RUA  DR JOSE MARIA DE AZEVEDO  318 332  0155002034100000 0000000000000  I000000000010088000000000000000               201210260000000000000000054980000052234000000000052234000000000000000000000000000000010000149140  3120121026   01HA        000                                                                                 3181569035010017444824100019             00149140                             N                     00000 10020256        000019
900002000000000004963761                                                                                                                                                                                    000000000000000                                                                                                                                                                                                                                                    00001800878840004670179        000020
