0000147602043799295000110ALTAMIRA INDUSTRIA METALURGICA LT       202000000036220121126131328             2                                                                                                  000000000000000                                                                                                                                                                                                                                                                                   000001
12043799295000110ALTAMIRA INDUSTRIA METAL LTDA                                         0000000003303809500000130004071 I000000000010213000000000000000               201211260000000000000000000000000000000000000004200000000000000000000000000000000000050000000001  0820121126   01HF        5001309000000009020550000000000000000                                               3D0000000101                               01                                 S                     01133 10020256        000002
12043799295000110ALTAMIRA INDUSTRIA METAL LTDA                                         0000000034100467 00000000209128 I000000000010214000000000000000               201211260000000000000000000000000000000000000001400000000000000000000000000000000000050000000002  0820121126   01HF        5001309000000004820550000000000000000                                               3D0000000101                               02                                 S                     01133 10020256        000003
12000867888000164TECNEQUIP TECNOLOGIA EQUIP LTD                                        0000000003303809500000130003245 I000000000010215000000000000000               201211260000000000000000000000000000000000000000500000000000000000000000000000000000050000000003  0820121126   01HF        5001308000000010120550000000000000000                                               3C0000000101                               03                                 N                     01076 10020256        000004
12000867888000164TECNEQUIP TECNOLOGIA EQUIP LTD                                        0000000003303809500000130003245 I000000000010216000000000000000               201211260000000000000000000000000000000000000000600000000000000000000000000000000000040000000004  0820121126   01HF        5001309000000009620550000000000000000                                               3C0000000101                               04                                 N                     01076 10020256        000005
900000600000000006700000                                                                                                                                                                                    000000000000000                                                                                                                                                                                                                                                    00000400000000000000000        000006
