0000147602043799295000110ALTAMIRA INDUSTRIA METALURGICA LT       202000000193220121026215001             3                                                                                                  000000000000000                                                                                                                                                                                                                                                                                   000001
12004398623000115MET GALHARDO IND E COM LTDA                                           0000000034100000 0000000000000  I000000000010086000000000000000               201210260000000000000000054980000050014000000000050014000000000000000000000000000000010000005141  3120121026   02BW        5000000               000000000000000                                               3181568977750046770270000059               5141                               N                     01132 10020256        000002
12007711227000194L BARBI REPRESENTACOES        R IRAPUA 225 CASA 8 PENHA CIRCULAR      2121506023702804500000000201758 I000000000010083000000000000000               201210260000000000000000000000000000000000000000130900000000000000000000000000000000010000000102  0120121026   02BW        5000000               000000000000000                                               3                                          102                                N                     01321 10020256        000003
12006000195000156MBA MERCANTIL BRASIL ACO LTDA                                         0000000034100648 00000000492510 I000000000010080000000000000000               201210260000000000000000000000000000000000000000620738000000000000000000000000000000050000000001  0820121026   02BW        5001300               000000000000000                                               3C0000000101                               01                                 N                     01076 10020256        000004
12047190731000100DE CASTRO LOUR ENG IND LTDA                                           00000000341000000000000000000000000000008782059800000023602714903026744 0     201210262012082900000000054980000146594000000000146594000000000000000000000000000000050000000000  3020121026   02BW        2000000               000000000000000                                               3112360271491036884500400069               3026744                            N                     01132 10020256        000005
12047190731000100DE CASTRO LOUREIRO ENGENHARIA                                         0000000023703394400000000205508 000000008801225000202255000000903026787 0     201210262012083100000000054980001135987000000001135987000000000000000000000000000000050000000000  3020121026   02BW        2000000               000000000000000                                               3                         000000000000000  3026787                            N                     01079 10020256        000006
12065000655000105HILTI DO BRASIL COMERCIAL LTDA                                        0000000023703396000000000243787 00000000871682760090224400001640002179001     201209272012082800000000054690000019742000000000020873000000000000000000000000002262050000000000  3020121026   02BW        2000000               000000000000000                                               3                         000000000000000                                     N                     01079 10020256        000007
12065000655000105HILTI DO BRASIL COMERCIAL LTDAAV CECI 426 TAMBORE                     0646012023703396000000000243787 I000000000010084000000000000000               201210260000000000000000000000000000000000000000143517000000000000000000000000000000010000000000  0120121026   02BW        5000000               000000000000000                                               3                                                                             N                     01321 10020256        000008
12048775225000146SEIKI IND COM CONFECCOES LTDA                                         0000000034100000 0000000000000  I000000000010088000000000000000               201210260000000000000000054980000052234000000000052234000000000000000000000000000000010000149140  3120121026   02BW        5000000               000000000000000                                               3181569035010017444824100019               149140                             N                     01132 10020256        000009
12071635882000100DENEB BRASIL COM LTDA                                                 0000000000100000 0000000000000  I000000000010087000000000000000               201210260000000000000000054980000040881000000000040881000000000000000000000000000000010000002494  3120121026   02BW        5000000               000000000000000                                               3000000226098600000011731819               2494                               N                     01132 10020256        000010
12005915831000107PALETES SATELITE COM LTDA ME                                          0000000034100000 0000000000000  I000000000010085000000000000000               201210260000000000000000054980000058500000000000058500000000000000000000000000000000010000001944  3120121026   02BW        5000000               000000000000000                                               3109019440001144648966600019               1944                               N                     01132 10020256        000011
12043555887000197RENATO GONCALVES                                                      0000000000100000 0000000000000  I000000000010082000000000000000               201210260000000000000000054980000194088000000000194088000000000000000000000000000000010000000308  3120121026   02BW        5000000               000000000000000                                               3000000104260650156803971189               308                                N                     01132 10020256        000012
12007920494000171NOGUEIRA LEITE ADVOG ASSOC                                            0000000074500000 0000000000000  I000000000010081000000000000000               201210260000000000000000054980000295500000000000295500000000000000000000000000000000010000004730  3120121026   02BW        5000000               000000000000000                                               3361125706001200000010262819               04730                              N                     01132 10020256        000013
12047190731000100DE CASTRO LOUR ENG IND LTDA                                           00000000341000000000000000000000000000008782059300000023602715203026745 0     201210262012082900000000054980000903175000000000903175000000000000000000000000000000050000000000  3020121026   02BW        2000000               000000000000000                                               3112360271525036884500400019               3026745                            N                     01132 10020256        000014
12054382510000108SETENTA IND E COM DE MADEIRAS                                         0000000034100000000000000000000000000000883508330000002392776804604 A         201210082012091300000000054800000116600000000000120722000000000000000000000000008244050000000000  3020121026   02BW        2000000               000000000000000                                               3112392776806057049175300019                                                  N                     01132 10020256        000015
12054382510000108SETENTA IND E COM DE MADEIRAS                                         0000000034100000000000000000000000000000902449890000002459509654672 A         201210262012100400000000054980000109600000000000109600000000000000000000000000000000050000000000  3020121026   02BW        2000000               000000000000000                                               3112459509652057002848000019                                                  N                     01132 10020256        000016
12054382510000108SETENTA IND E COM DE MADEIRAS                                         0000000034100000000000000000000000000000874070720000002305114064536 A         201209192012081600000000054610000191200000000000205112000000000000000000000000027824050000000000  3020121026   02BW        2000000               000000000000000                                               3112305114061057002848000039                                                  N                     01132 10020256        000017
12005151518000140BELENUS DO BRASIL LTDA                                                000000000010000000000000000000000000000087407045000000750519000R130170522     201210262012090400000000054980000192000000000000192000000000000000000000000000000000050000000000  3020121026   02BW        2000000               000000000000000                                               3000000123933844037505193139               170522                             N                     01132 10020256        000018
12005151518000140BELENUS DO BRASIL LTDA                                                000000000330000000000000000000000000000089697933000000150000000R131165812     201210262012092600000000054980000122305000000000122305000000000000000000000000000000050000000000  3020121026   02BW        2000000               000000000000000                                               3918381050000000445215010469               65812                              N                     01132 10020256        000019
12047190731000100DE CASTRO LOUREIRO ENGENHARIA                                         0000000023703394400000000205508 000000008801224700202255000000603026784 0     201210262012083100000000054980001041759000000001041759000000000000000000000000000000050000000000  3020121026   02BW        2000000               000000000000000                                               3                         000000000000000  3026784                            N                     01079 10020256        000020
900002100000000005584499                                                                                                                                                                                    000000000000000                                                                                                                                                                                                                                                    00001900878840004670179        000021
