0000147602043799295000110ALTAMIRA INDUSTRIA METALURGICA LT       202000000197020121126213941             3                                                                                                  000000000000000                                                                                                                                                                                                                                                                                   000001
12008879248000186FREFER METAL PLUS                                                     0000000034100000 0000000000000  I000000000010219000000000000000               201211260000000000000000055290001006126000000001006126000000000000000000000000000000010000024022  3120121126   02BW        5000000               000000000000000                                               3181587687325293811346700099               24022/01                           N                     01132 10020256        000002
12043799295000110ALTAMIRA INDUSTRIA METAL LTDA                                         0000000000103333200000000011029 I000000000010218000000000000000               201211260000000000000000000000000000000000000002800000000000000000000000000000000000050000000006  0820121126   02BW        5001600               000000000000000                                               3D0000000101                               06                                 S                     01133 10020256        000003
12000867888000164TECNEQUIP TECNOLOGIA EQUIP LTD                                        0000000003303809500000130003245 I000000000010216000000000000000               201211260000000000000000000000000000000000000000600000000000000000000000000000000000040000000004  0820121126   02BW        5001300               000000000000000                                               3C0000000101                               04                                 N                     01076 10020256        000004
12000867888000164TECNEQUIP TECNOLOGIA EQUIP LTD                                        0000000003303809500000130003245 I000000000010215000000000000000               201211260000000000000000000000000000000000000000500000000000000000000000000000000000050000000003  0820121126   02BW        5001220               000000000000000                                               3C0000000101                               03                                 N                     01076 10020256        000005
12043799295000110ALTAMIRA INDUSTRIA METAL LTDA                                         0000000003303809500000130004071 I000000000010217000000000000000               201211260000000000000000000000000000000000000002300000000000000000000000000000000000050000000005  0820121126   02BW        5001600               000000000000000                                               3D0000000101                               05                                 S                     01133 10020256        000006
12043799295000110ALTAMIRA INDUSTRIA METAL LTDA                                         0000000003303809500000130004071 I000000000010213000000000000000               201211260000000000000000000000000000000000000004200000000000000000000000000000000000050000000001  0820121126   02BW        5001220               000000000000000                                               3D0000000101                               01                                 S                     01133 10020256        000007
12043799295000110ALTAMIRA INDUSTRIA METAL LTDA                                         0000000034100467 00000000209128 I000000000010214000000000000000               201211260000000000000000000000000000000000000001400000000000000000000000000000000000050000000002  0820121126   02BW        5001220               000000000000000                                               3D0000000101                               02                                 S                     01133 10020256        000008
12014978305000187MOGI FILME INDUSTRIA E COMERCI                                        0000000023700402200000001055003 I000000000010224009022960000004               201211260000000000000000055290000069793000000000069793000000000000000000000000000000010000000430  3120121126   02BW        5000000               000000000000000                                               3040209229600000040105500019               430                                N                     01079 10020256        000009
12069034668000156SODEXO PASS BRASIL SERV COM SA                                        0000000034100000000000000000000000000000923779390000009219409581200014697     201212192012111900000000055520000140300000000000140300000000000000000000000000000000050000000000  3020121126   02BW        2000000               000000000000000                                               3109219409584293801455800039               1679473                            N                     01132 10020256        000010
12069034668000156SODEXO PASS BRASIL SERV COM SA                                        0000000034100000000000000000000000000000923779380000009219409161200014697     201212192012111900000000055520000367620000000000367620000000000000000000000000000000050000000000  3020121126   02BW        2000000               000000000000000                                               3109219409162293801455800079               1679366                            N                     01132 10020256        000011
12000288916000199VB SERVICOS COM ADM LTDA                                              0000000003300000 0000000000000  I000000000010225000000000000000               201212040000000000000000055370000653381000000000653381000000000000000000000000000000010005781395  3120121126   02BW        5000000               000000000000000                                               3119130442690030259000337889               5781395                            N                     01132 10020256        000012
12042956441000101SOLUCOES EM ACO USIMINAS S A                                          0000000034100000 0000000000000  I000000000010220000000000000000               201211260000000000000000055290000994756000000000994756000000000000000000000000000000010000172205  3120121126   02BW        5000000               000000000000000                                               3181587684615293807258000019               0172205/03                         N                     01132 10020256        000013
12069284248000128ISOCOAT TINTAS E VERNIZES LTDA                                        0000000034100000 0000000000000  I000000000010221000000000000000               201211260000000000000000055290000375418000000000375418000000000000000000000000000000010000056254  3120121126   02BW        5000000               000000000000000                                               3181587685974077430121200039               056254                             N                     01132 10020256        000014
12007920494000171NOGUEIRA LEITE ADVOG ASSOC                                            0000000074500000 0000000000000  I000000000010222000000000000000               201211260000000000000000055290000295500000000000295500000000000000000000000000000000010000004758  3120121126   02BW        5000000               000000000000000                                               3361125706001200000010313619               04758                              N                     01132 10020256        000015
12006209559000102MAZURKY IND COM EMBALAGENS LTD                                        0000000034100000 0000000000000  I000000000010223000000000000000               201211260000000000000000055290000093880000000000093880000000000000000000000000000000010000010684  3120121126   02BW        5000000               000000000000000                                               3181587084266151434240900039               010684/02                          N                     01132 10020256        000016
900001700000000015796774                                                                                                                                                                                    000000000000000                                                                                                                                                                                                                                                    00001500498150003996774        000017
