0000147602043799295000110ALTAMIRA INDUSTRIA METALURGICA LT       202000000013420120926071823             1                                                                                                                                                                                                                                                                                                                                                                                                    000001
12001515122000183SOFT BRASIL AUTOMACAO LTDA                                            000000003410000000000000000000000000000087820566000000900001635DNF 1465       201209252012082800000000054670000050071000000000050104000000000000000000000000000033050000000000  3020120926   01          2                                                                                   3109000016358018307515900049                                                  N                     01321  0000000        000002
12001784706000154TRANSPORTES WARTHA LTDA                                               0000000023701775200000000260010 0000000086961106009022400000331SAO2612751     201209172012082700000000054590000430000000000000430000000000000000000000000000000000050000000000  3020120917   05          3  R  GANGES  528                                                                   3                         000000000000000                                     N                     00598  0000000        000003
12001784706000154TRANSPORTES WARTHA LTDA                                               0000000023701775200000000260010 0000000088873314009022400000331SAO2612751     201209172012082700000000054590000430000000000000439288000000000000000000000000009288050000000000  3020120926   01FS        1  R  GANGES  528                                                                   3                         000000000000000                                     N                     00598  0000000        000004
12001895314000162COLETA INDUSTRIAL FIMAVAN LTDA                                        0000000034100000000000000000000000000000866992070000009002335349439           201208272012081700000000054380000123695000000000136039000000000000000000000000012344050000000000  3020120926   01          2                                                                                   3109002335346144604097200019                                                  N                     01321  0000000        000005
12002460454000170AUT SERVICE COMERCIO E SERVICO                                        0000000023702591700000000007692 000000008515292000901322060028234532 2        201209172012072400000000054590000238750000000000254989000000000000000000000000016239050000000000  3020120926   01          2  RUA JUNO  533                                                                    3                         000000000000000                                     N                     00598  0000000        000006
12002503185000182ANDAIMES MAQUINAS BIG LTDA EPP                                        0000000034100000000000000000000000000000874070480000002313590765101           201209142012082000000000054560000016500000000000016962000000000000000000000000000462050000000000  3020120926   01          2                                                                                   3112313590765650303800900019                                                  N                     01321  0000000        000007
12002503185000182ANDAIMES E MAQUINAS BIG LTDA                                          000000003410000000000000000000000000000087820531000000233954448011791         201209212012082700000000054630000026000000000000026605000000000000000000000000000605050000000000  3020120926   01          2                                                                                   3112339544481925303435000019                                                  N                     01321  0000000        000008
12002503185000182ANDAIMES MAQUINAS BIG LTDA EPP                                        000000003410000000000000000000000000000086282613000000228719913011660         201208302012081000000000054410000012000000000000012456000000000000000000000000000456050000000000  3020120926   01          2                                                                                   3112287199130650303800900039                                                  N                     01321  0000000        000009
12003489596000123BEND FLEX I COMERCIO LTDA                                             000000003410000000000000000000000000000088350832000000171879874608            201209122012082100000000054540000695250000000000714388000000000000000000000000019138050000000000  3020120926   01          2                                                                                   3191718798744157734445800069                                                  N                     01321  0000000        000010
12003489596000123BEND FLEX I COMERCIO LTDA                                             000000003410000000000000000000000000000088599899000000171434574613            201209172012081600000000054590000585000000000000595359000000000000000000000000010359050000000000  3020120926   01          2                                                                                   3191714345748157734445800019                                                  N                     01321  0000000        000011
12003807192000130HELIO EQUIPAMENTOS LTDA  EPP                                          0000000000100000000000000000000000000000888732850000000002200002410000220     201210182012092400000000054900000022800000000000022800000000000000000000000000000000050000000000  3020121018   01FS        1                                                                                   3000000237909724100002201759                                                  N                     01321  0000000        000012
12005151518000140BELENUS DO BRASIL LTDA                                                000000000010000000000000000000000000000085315478000000001498000R128919722     201209182012072600000000054600000460800000000000463842000000000000000000000000004563050000000000  3020120920   06          3                                                                                   3000000123933843930014983179                                                  N                     01321  0000000        000013
12005151518000140BELENUS DO BRASIL LTDA                                                0000000023703389800000000015091 0000000083945277009021860002353R128108032     201209242012062600000000054660000576000000000000579802000000000000000000000000003802050000000000  3020120926   01          2  RUA GANGES  528                                                                  3                         000000000000000                                     N                     00598  0000000        000014
12005880850000145NEDERMAN BRASIL COM PROD EX LT                                        000000003410000000000000000000000000000086373178000000614350956002763 A       201209252012081400000000054670000289674000000000290244000000000000000000000000000570050000000000  3020120926   01          2                                                                                   3156143509568160829000100049                                                  N                     01321  0000000        000015
12006000195000156MBA MERCANTIL BRAS DE ACO LTDA                                        0000000034100000000000000000000000000000885998980000001667238420008870B02     201209112012071600000000054530000839952000000000864732000000000000000000000000024780050000000000  3020120926   01          2                                                                                   3191667238429064849251000039                                                  N                     01321  0000000        000016
12006000195000156M B A MERCANTIL BRASILEIRA DE                                         0000000000100000000000000000000000000000855028860000007952870000009006B02     201209252012073000000000054670000235480000000000235872000000000000000000000000000392050000000000  3020120926   01          2                                                                                   3043937952873333000105251189                                                  N                     01321  0000000        000017
12006000195000156MBA MERCANTIL BRAS DE ACO LTDA                                        0000000034100000000000000000000000000000887698090000001671394550008925B02     201209142012071700000000054560000719581000000000736561000000000000000000000000016980050000000000  3020120926   01          2                                                                                   3191671394556064849251000089                                                  N                     01321  0000000        000018
12006000195000156MBA MERCANTIL BRAS DE ACO LTDA                                        0000000034100000000000000000000000000000887698100000001671394560008926B02     201209142012071700000000054560000387716000000000396872000000000000000000000000009156050000000000  3020120926   01          2                                                                                   3191671394564064849251000019                                                  N                     01321  0000000        000019
12006000195000156M B A MERCANTIL BRASILEIRA DE                                         0000000000100000000000000000000000000000855028900000007952840000009005B02     201209242012073000000000054660000202838000000000203514000000000000000000000000000676050000000000  3020120926   01          2                                                                                   3043937952843333000105251189                                                  N                     01321  0000000        000020
12006000195000156MBA MERCANTIL BRAS DE ACO LTDA                                        0000000034100000000000000000000000000000886866570000001667238410008874B02     201209132012071600000000054550000802826000000000823353000000000000000000000000020527050000000000  3020120926   01          2                                                                                   3191667238411064849251000049                                                  N                     01321  0000000        000021
12006000195000156MBA MERCANTIL BRAS DE ACO LTDA                                        0000000034100000000000000000000000000000887698080000001667238400008876B02     201209142012071600000000054560000810321000000000829449000000000000000000000000019128050000000000  3020120926   01          2                                                                                   3191667238403064849251000059                                                  N                     01321  0000000        000022
12006000195000156M B A MERCANTIL BRASILEIRA DE                                         0000000000100000000000000000000000000000831386970000007752250000008615B03     201209122012062000000000054540000498323000000000503309000000000000000000000000005817050000000000  3020120918   05          3                                                                                   3043837752253333000105251139                                                  N                     01321  0000000        000023
12006000195000156MBA MERCANTIL BRAS DE ACO LTDA                                        0000000034100000000000000000000000000000888732910000002423154110009606B01     201210172012091900000000054890001026000000000001026000000000000000000000000000000000050000000000  3020121017   01FS        1                                                                                   3112423154114064899001800089                                                  N                     01321  0000000        000024
12006000195000156MBA MERCANTIL BRAS DE ACO LTDA                                        0000000034100000000000000000000000000000888732920000002423154120009606B02     201211142012091900000000055170000892173000000000892173000000000000000000000000000000050000000000  3020121114   01FS        1                                                                                   3112423154122064899001800039                                                  N                     01321  0000000        000025
12006000195000156MBA MERCANTIL BRAS DE ACO LTDA                                        0000000034100000000000000000000000000000888732940000002423154130009606B03     201212122012091900000000055450000892174000000000892174000000000000000000000000000000050000000000  3020121212   01FS        1                                                                                   3112423154130064899001800099                                                  N                     01321  0000000        000026
12006209559000102MAZURKY IND COM EMB LTDA                                              000000003410000000000000000000000000000087820530000000233961389010076 1       201209182012082100000000054600000092750000000000092750000000000000000000000000000000050000000000  3020120918   06          3                                                                                   3112339613898151434240900069                                                  N                     01321  0000000        000027
12007175725000160WEG EQUIPAMENTOS ELETRICOS SA                                         0000000023702727800000000196800 00000000832180610090217400004980095359902     201209202012052300000000054620000272787000000000274965000000000000000000000000002178050000000000  3020120926   01          2  R JUNO  533                                                                      3                         000000000000000                                     N                     00598  0000000        000028
12008508119000181DINARI FOMENTO MERCANTIL LTDA                                         0000000023702499600000000178306 0000000086282616002022260000004206 B          201209242012081000000000054660000170000000000000176120000000000000000000000000006120050000000000  3020120926   01          2  RUA JUNO  533 VL N MANCHESTER SAO PAULO PANKRO LOGISTICA E TRANSPORTES LTDA EPP  300000000000000000141500  002269980000158                                     N                     00598  0000000        000029
12008508119000181DINARI FOMENTO MERCANTIL LTDA                                         0000000023702499600000000178306 0000000086907103002022370000018224            201209212012082200000000054630000220000000000000229900000000000000000000000000009900050000000000  3020120926   01          2  RUA JUNO  533 VL N MANCHESTER SAO PAULO PANKRO LOGISTICA E TRANSPORTES LTDA EPP  3                         002269980000158                                     N                     00598  0000000        000030
12008848231000161ATUAL CARGAS TRANSPORTES LTDA                                         0000000000100000000000000000000000000000881032650000000133300000001606166     201209252012091100000000054670000105328000000000105644000000000000000000000000000316050000000000  3020120926   01          2                                                                                   3000000159433800000133301799                                                  N                     01321  0000000        000031
12009338857000190FERNANDO  NAGAO  CARDONE  ALVA                                        000000000330000000000000000000000000000087820609000000360000000ALTA 09 2012   201209202012083000000000054620000134632000000000138402000000000000000000000000003770050000000000  3020120926   01          2                                                                                   3947901700000051049236010119                                                  N                     01321  0000000        000032
12009419898000101LUSITANO INDUSTRIA C E P LTDA                                         00000000341000000000000000000000000000008653882000000090000757101 10137 2     201209192012081500000000054610000035135000000000035954000000000000000000000000000819050000000000  3020120926   01          2                                                                                   3109000075716001160072300049                                                  N                     01321  0000000        000033
12009441975000120SPEEDY CRED FOMENTO MERCANTIL                                         0000000023700094900000000990744 00000000869071000020132236074912868 AA        201209182012082300000000054600000064000000000000067072000000000000000000000000003072050000000000  3020120926   01          2  RUA TAMAINDE 1410                       MACKVEN MAQUINAS INDUSTRIAIS LTDA EPP    3                         005441222000163                                     N                     00598  0000000        000034
12012006058000121WEG TINTAS LTDA                                                       0000000023702727800000000001309 00000000854049540090221200001000015513001     201209102012072700000000054520000459854000000000469662000000000000000000000000009808050000000000  3020120926   01          2  R JUNO  533                                                                      3                         000000000000000                                     N                     00598  0000000        000035
12012006058000121WEG TINTAS LTDA                                                       0000000023702727800000000001309 00000000854049550090221200001010015513002     201209252012072700000000054670000459854000000000460467000000000000000000000000000613050000000000  3020120926   01          2  R JUNO  533                                                                      3                         000000000000000                                     N                     00598  0000000        000036
12012006058000121WEG TINTAS LTDA                                                       0000000023702727800000000001309 00000000856071250090221400000820015587301     201209142012073100000000054560000459854000000000467210000000000000000000000000007356050000000000  3020120926   01          2  R JUNO  533                                                                      3                         000000000000000                                     N                     00598  0000000        000037
12012006058000121WEG TINTAS LTDA                                                       0000000023702727800000000001309 00000000834820640090217900000760014773903     201209092012062600000000054510000306662000000000313598000000000000000000000000006936050000000000  3020120926   01          2  R JUNO  533                                                                      3                         000000000000000                                     N                     00598  0000000        000038
12012006058000121WEG TINTAS LTDA                                                       0000000023702727800000000001309 00000000841061130090218800000850014990203     201209182012070500000000054600000306662000000000309926000000000000000000000000003264050000000000  3020120926   01          2  R JUNO  533                                                                      3                         000000000000000                                     N                     00598  0000000        000039
12012006058000121WEG TINTAS LTDA                                                       0000000023702727800000000001309 00000000842436840090219200000860015068803     201209222012070900000000054640000306662000000000308294000000000000000000000000001632050000000000  3020120926   01          2  R JUNO  533                                                                      3                         000000000000000                                     N                     00598  0000000        000040
12012006058000121WEG TINTAS LTDA                                                       0000000023702727800000000001309 00000000844839230090219500000720015168702     201209102012071200000000054520000306569000000000313097000000000000000000000000006528050000000000  3020120926   01          2  R JUNO  533                                                                      3                         000000000000000                                     N                     00598  0000000        000041
12012006058000121WEG TINTAS LTDA                                                       0000000023702727800000000001309 00000000844839240090219500000730015168703     201209252012071200000000054670000306662000000000307070000000000000000000000000000408050000000000  3020120926   01          2  R JUNO  533                                                                      3                         000000000000000                                     N                     00598  0000000        000042
12012006058000121WEG TINTAS LTDA                                                       0000000023702727800000000001309 00000000861207260090222200000900015775001     201209222012080800000000054640000306569000000000308201000000000000000000000000001632050000000000  3020120926   01          2  R JUNO  533                                                                      3                         000000000000000                                     N                     00598  0000000        000043
12012006058000121WEG TINTAS LTDA                                                       0000000023702727800000000001309 00000000847452150090220000000920015248102     201209152012071700000000054570000306569000000000311057000000000000000000000000004488050000000000  3020120926   01          2  R JUNO  533                                                                      3                         000000000000000                                     N                     00598  0000000        000044
12012006058000121WEG TINTAS LTDA                                                       0000000023702727800000000001309 00000000849855330090220500001210015343102     201209182012072000000000054600000306569000000000309833000000000000000000000000003264050000000000  3020120926   01          2  R JUNO  533                                                                      3                         000000000000000                                     N                     00598  0000000        000045
12012931789000183RCM IMPORTADORA DE FERRAMENTAS                                        0000000000100000000000000000000000000000878205470000003022340004038           201209252012082800000000054670000026100000000000026230000000000000000000000000000130050000000000  3020120926   01          2                                                                                   3000000225937123243022341779                                                  N                     01321  0000000        000046
12014309992000148WEG DRIVES   CONTROLS   AUTOMA                                        0000000023702727800000000001872 00000000828904050090217000002200005763302     201209152012051800000000054570000272992000000000276985000000000000000000000000003993050000000000  3020120926   01          2  R JUNO  533                                                                      3                         000000000000000                                     N                     00598  0000000        000047
12035820448000136WHITE MARTINS GASES INDUSTRIAI                                        0000000023700026400000003937925 0000000086699210009022330000393368126 001     201209142012081800000000054560000162300000000000168138000000000000000000000000005838050000000000  3020120926   01          2  RUA GANGES  528                                                                  3                         000000000000000                                     N                     00598  0000000        000048
12035820448000136WHITE MARTINS GASES INDUSTRIAI                                        0000000023700026400000003937925 0000000086812633009022350001453369229 001     201209182012082200000000054600000056805000000000058549000000000000000000000000001744050000000000  3020120926   01          2  RUA GANGES  528                                                                  3                         000000000000000                                     N                     00598  0000000        000049
12035820448000136WHITE MARTINS GASES INDUSTRIAI                                        0000000023700026400000003937925 0000000086196029009022230001562364184 001     201209062012081000000000054480000113610000000000118902000000000000000000000000005292050000000000  3020120926   01          2  RUA GANGES  528                                                                  3                         000000000000000                                     N                     00598  0000000        000050
12035820448000136WHITE MARTINS GASES INDUSTRIAI                                        0000000023700026400000003937925 0000000087067052009022420002594374120 001     201209252012082900000000054670000113610000000000116033000000000000000000000000002423050000000000  3020120926   01          2  RUA GANGES  528                                                                  3                         000000000000000                                     N                     00598  0000000        000051
12035820448000136WHITE MARTINS GASES INDUSTRIAI                                        0000000023700026400000003937925 0000000086907101009022370010705372273 001     201209202012082400000000054620000017600000000000018090000000000000000000000000000490050000000000  3020120926   01          2  RUA GANGES  528                                                                  3                         000000000000000                                     N                     00598  0000000        000052
12035820448000136WHITE MARTINS GASES INDUSTRIAI                                        0000000023700026400000003937925 0000000086907102009022370011747372774 001     201209202012082400000000054620000040575000000000041710000000000000000000000000001135050000000000  3020120926   01          2  RUA GANGES  528                                                                  3                         000000000000000                                     N                     00598  0000000        000053
12035820448000136WHITE MARTINS GASES INDUSTRIAI                                        0000000023700026400000003937925 0000000085861656009022190000404361579 001     201208312012080400000000054420000162300000000000171162000000000000000000000000008862050000000000  3020120926   01          2  RUA GANGES  528                                                                  3                         000000000000000                                     N                     00598  0000000        000054
12035820448000136WHITE MARTINS GASES INDUSTRIAI                                        0000000023700026400000003937925 0000000086538817009022290001168366855 001     201209112012081600000000054530000121725000000000126589000000000000000000000000004864050000000000  3020120926   01          2  RUA GANGES  528                                                                  3                         000000000000000                                     N                     00598  0000000        000055
12042956441000101SOLUCOES ACO USIMINAS                                                 0000000034100000000000000000000000000000856906430000002262886300017266202     201209252012073000000000054670000119436000000000119675000000000000000000000000000239050000000000  3020120926   01          2                                                                                   3112262886305293807258000019                                                  N                     01321  0000000        000056
12042956441000101SOLUCOES ACO USIMINAS                                                 0000000034100000000000000000000000000000846595700000002210880280016980502     201209102012071200000000054520000156071000000000161063000000000000000000000000004992050000000000  3020120926   01          2                                                                                   3112210880285293807258000039                                                  N                     01321  0000000        000057
12042956441000101SOLUCOES ACO USIMINAS                                                 0000000034100000000000000000000000000000856906440000002262886310017266302     201209252012073000000000054670000145025000000000145315000000000000000000000000000290050000000000  3020120926   01          2                                                                                   3112262886313293807258000029                                                  N                     01321  0000000        000058
12042956441000101SOLUCOES ACO USIMINAS                                                 0000000034100000000000000000000000000000856906420000002262886290017266301     201208282012073000000000054390000145069000000000153479000000000000000000000000008410050000000000  3020120926   01          2                                                                                   3112262886297293807258000099                                                  N                     01321  0000000        000059
12042956441000101SOLUCOES ACO USIMINAS                                                 0000000034100000000000000000000000000000846595710000002210880290016980602     201209102012071200000000054520000426094000000000439726000000000000000000000000013632050000000000  3020120926   01          2                                                                                   3112210880293293807258000019                                                  N                     01321  0000000        000060
12042956441000101SOLUCOES EM ACO USIMINAS S A                                          000000000010000000000000000000000000000083482044000000086545000000166812003   201209172012062600000000054590000608955000000000619917000000000000000000000000010962050000000000  3020120926   01          2                                                                                   3000000169660100000865451759                                                  N                     01321  0000000        000061
12042956441000101SOLUCOES EM ACO USIMINAS S A                                          000000000010000000000000000000000000000083482047000000086548000000166813003   201209172012062600000000054590000391569000000000398616000000000000000000000000007047050000000000  3020120926   01          2                                                                                   3000000169660100000865481719                                                  N                     01321  0000000        000062
12042956441000101SOLUCOES EM ACO USIMINAS S A                                          000000000010000000000000000000000000000083482050000000086554000000166815003   201209172012062600000000054590000649087000000000660769000000000000000000000000011682050000000000  3020120926   01          2                                                                                   3000000169660100000865541789                                                  N                     01321  0000000        000063
12042956441000101SOLUCOES EM ACO USIMINAS S A                                          000000000010000000000000000000000000000083482053000000086560000000166827003   201209172012062600000000054590000577023000000000587409000000000000000000000000010386050000000000  3020120926   01          2                                                                                   3000000169660100000865601719                                                  N                     01321  0000000        000064
12042956441000101SOLUCOES EM ACO USIMINAS S A                                          000000000010000000000000000000000000000083482056000000086563000000166828003   201209172012062600000000054590000325384000000000331243000000000000000000000000005859050000000000  3020120926   01          2                                                                                   3000000169660100000865631789                                                  N                     01321  0000000        000065
12042956441000101SOLUCOES EM ACO USIMINAS S A                                          000000000010000000000000000000000000000083482059000000086566000000166829003   201209172012062600000000054590000125200000000000127450000000000000000000000000002250050000000000  3020120926   01          2                                                                                   3000000169660100000865661769                                                  N                     01321  0000000        000066
12042956441000101SOLUCOES EM ACO USIMINAS S A                                          000000000010000000000000000000000000000083562085000000087494000000167113003   201209182012062700000000054600000698474000000000709650000000000000000000000000011176050000000000  3020120926   01          2                                                                                   3000000169660100000874941719                                                  N                     01321  0000000        000067
12042956441000101SOLUCOES ACO USIMINAS                                                 0000000034100000000000000000000000000000847452070000002216130350005922202     201209102012071600000000054520000172071000000000177575000000000000000000000000005504050000000000  3020120926   01          2                                                                                   3112216130354293807258000049                                                  N                     01321  0000000        000068
12042956441000101SOLUCOES ACO USIMINAS                                                 0000000034100000000000000000000000000000847452100000002216130340017012402     201209102012071500000000054520000147428000000000152148000000000000000000000000004720050000000000  3020120926   01          2                                                                                   3112216130347293807258000059                                                  N                     01321  0000000        000069
12042956441000101SOLUCOES ACO USIMINAS                                                 0000000034100000000000000000000000000000848180700000002220192900017041002     201209112012071700000000054530000155433000000000160098000000000000000000000000004665050000000000  3020120926   01          2                                                                                   3112220192903293807258000029                                                  N                     01321  0000000        000070
12042956441000101SOLUCOES ACO USIMINAS                                                 0000000034100000000000000000000000000000848180710000002220192910017041202     201209112012071700000000054530000205421000000000211586000000000000000000000000006165050000000000  3020120926   01          2                                                                                   3112220192911293807258000019                                                  N                     01321  0000000        000071
12042956441000101SOLUCOES ACO USIMINAS                                                 0000000034100000000000000000000000000000850740460000002233586800017127201     201208202012072000000000054310000137881000000000148093000000000000000000000000010212050000000000  3020120926   01          2                                                                                   3112233586802293807258000019                                                  N                     01321  0000000        000072
12042956441000101SOLUCOES ACO USIMINAS                                                 0000000034100000000000000000000000000000850740470000002233586810017101002     201209142012071900000000054560000732575000000000750155000000000000000000000000017580050000000000  3020120926   01          2                                                                                   3112233586810293807258000019                                                  N                     01321  0000000        000073
12042956441000101SOLUCOES ACO USIMINAS                                                 0000000034100000000000000000000000000000850740480000002233586820017101202     201209142012071900000000054560000144634000000000148102000000000000000000000000003468050000000000  3020120926   01          2                                                                                   3112233586828293807258000029                                                  N                     01321  0000000        000074
12042956441000101SOLUCOES ACO USIMINAS                                                 0000000034100000000000000000000000000000850740490000002233586830017126902     201209172012072000000000054590000208392000000000212145000000000000000000000000003753050000000000  3020120926   01          2                                                                                   3112233586836293807258000089                                                  N                     01321  0000000        000075
12042956441000101SOLUCOES ACO USIMINAS                                                 0000000034100000000000000000000000000000850740500000002233586840017127002     201209172012072000000000054590000190428000000000193857000000000000000000000000003429050000000000  3020120926   01          2                                                                                   3112233586844293807258000019                                                  N                     01321  0000000        000076
12042956441000101SOLUCOES ACO USIMINAS                                                 0000000034100000000000000000000000000000850740510000002233586850017127102     201209172012072000000000054590000167727000000000170742000000000000000000000000003015050000000000  3020120926   01          2                                                                                   3112233586851293807258000039                                                  N                     01321  0000000        000077
12042956441000101SOLUCOES ACO USIMINAS                                                 0000000034100000000000000000000000000000853154830000002246247020017196602     201209202012072500000000054620000804808000000000814468000000000000000000000000009660050000000000  3020120926   01          2                                                                                   3112246247020293807258000089                                                  N                     01321  0000000        000078
12042956441000101SOLUCOES ACO USIMINAS                                                 0000000034100000000000000000000000000000853154840000002246247030017196702     201209202012072500000000054620000234841000000000237661000000000000000000000000002820050000000000  3020120926   01          2                                                                                   3112246247038293807258000099                                                  N                     01321  0000000        000079
12042956441000101SOLUCOES EM ACO USIMINAS S A                                          000000000010000000000000000000000000000083562088000000087497000000167114003   201209182012062700000000054600000703009000000000714257000000000000000000000000011248050000000000  3020120926   01          2                                                                                   3000000169660100000874971789                                                  N                     01321  0000000        000080
12042956441000101SOLUCOES EM ACO USIMINAS S A                                          000000000010000000000000000000000000000083562091000000087500000000167115003   201209182012062700000000054600000240663000000000244511000000000000000000000000003848050000000000  3020120926   01          2                                                                                   3000000169660100000875001739                                                  N                     01321  0000000        000081
12042956441000101SOLUCOES ACO USIMINAS                                                 0000000034100000000000000000000000000000836417910000002164218370016738103     201209192012062700000000054610000830173000000000841793000000000000000000000000011620050000000000  3020120926   01          2                                                                                   3112164218375293807258000039                                                  N                     01321  0000000        000082
12042956441000101SOLUCOES ACO USIMINAS                                                 0000000034100000000000000000000000000000856906410000002262886280017266201     201208282012073000000000054390000119472000000000126403000000000000000000000000006931050000000000  3020120926   01          2                                                                                   3112262886289293807258000089                                                  N                     01321  0000000        000083
12042956441000101SOLUCOES ACO USIMINAS                                                 0000000034100000000000000000000000000000855028770000002254329400017220502     201209212012072700000000054630000981022000000000990832000000000000000000000000009810050000000000  3020120926   01          2                                                                                   3112254329405293807258000099                                                  N                     01321  0000000        000084
12042956441000101SOLUCOES ACO USIMINAS                                                 0000000034100000000000000000000000000000853154850000002246247040017197302     201209202012072500000000054620000970103000000000981743000000000000000000000000011640050000000000  3020120926   01          2                                                                                   3112246247046293807258000019                                                  N                     01321  0000000        000085
12042956441000101SOLUCOES ACO USIMINAS                                                 0000000034100000000000000000000000000000840313040000002181699250016829703     201209242012070200000000054660000643711000000000646285000000000000000000000000002574050000000000  3020120926   01          2                                                                                   3112181699250293807258000019                                                  N                     01321  0000000        000086
12042956441000101SOLUCOES ACO USIMINAS                                                 0000000034100000000000000000000000000000840313050000002181699260016829803     201209242012070200000000054660000322527000000000323817000000000000000000000000001290050000000000  3020120926   01          2                                                                                   3112181699268293807258000029                                                  N                     01321  0000000        000087
12042956441000101SOLUCOES ACO USIMINAS                                                 0000000034100000000000000000000000000000840313080000002181699230016814403     201209242012070200000000054660000968423000000000972297000000000000000000000000003874050000000000  3020120926   01          2                                                                                   3112181699235293807258000079                                                  N                     01321  0000000        000088
12042956441000101SOLUCOES ACO USIMINAS                                                 0000000034100000000000000000000000000000840313090000002181699240016827103     201209242012070200000000054660000703009000000000705821000000000000000000000000002812050000000000  3020120926   01          2                                                                                   3112181699243293807258000019                                                  N                     01321  0000000        000089
12042956441000101SOLUCOES ACO USIMINAS                                                 0000000034100000000000000000000000000000855028670000002254329360017200402     201209202012072600000000054620000163224000000000165180000000000000000000000000001956050000000000  3020120926   01          2                                                                                   3112254329363293807258000069                                                  N                     01321  0000000        000090
12042956441000101SOLUCOES EM ACO USIMINAS S A                                          000000000010000000000000000000000000000083482042000000086551000000166814003   201209172012062600000000054590000317656000000000323371000000000000000000000000005715050000000000  3020120926   01          2                                                                                   3000000169660100000865511779                                                  N                     01321  0000000        000091
12042956441000101SOLUCOES ACO USIMINAS                                                 0000000034100000000000000000000000000000855028680000002254329370017202402     201209202012072600000000054620000244136000000000247064000000000000000000000000002928050000000000  3020120926   01          2                                                                                   3112254329371293807258000079                                                  N                     01321  0000000        000092
12042956441000101SOLUCOES ACO USIMINAS                                                 0000000034100000000000000000000000000000855028690000002254329380017212902     201209212012072600000000054630000140098000000000141498000000000000000000000000001400050000000000  3020120926   01          2                                                                                   3112254329389293807258000019                                                  N                     01321  0000000        000093
12042956441000101SOLUCOES ACO USIMINAS                                                 0000000034100000000000000000000000000000855028700000002254329390017213002     201209212012072600000000054630000140602000000000142007000000000000000000000000001405050000000000  3020120926   01          2                                                                                   3112254329397293807258000089                                                  N                     01321  0000000        000094
12042956441000101SOLUCOES ACO USIMINAS                                                 0000000034100000000000000000000000000000855028720000002254329340017200202     201209202012072600000000054620000680385000000000688551000000000000000000000000008166050000000000  3020120926   01          2                                                                                   3112254329348293807258000079                                                  N                     01321  0000000        000095
12042956441000101SOLUCOES ACO USIMINAS                                                 0000000034100000000000000000000000000000855028730000002254329350017200302     201209202012072600000000054620000156896000000000158780000000000000000000000000001884050000000000  3020120926   01          2                                                                                   3112254329355293807258000029                                                  N                     01321  0000000        000096
12043217850000159IOB INFORMACOES OBJ  PUBL JURI                                        0000000023702374400000002958600 000000008540495200902212000099001440820E4     201208202012073000000000054310000072850000000000075195000000000000000000000000002345050000000000  3020120926   01          2  GANGES 528 VL NOVA MANCHESTER                                                    3                         000000000000000                                     N                     00598  0000000        000097
12043217850000159IOB INFORMACOES OBJ  PUBL JURI                                        0000000023702374400000002958600 000000008711912800902243000063301440820F2     201209202012083000000000054620000072850000000000074451000000000000000000000000001601050000000000  3020120926   01          2  R GANGES 528                                                                     3                         000000000000000                                     N                     00598  0000000        000098
12047190731000100DE CASTRO LOUR ENG IND LTDA                                           00000000341000000000000000000000000000008782050900000023399953503026612 0     201209182012082100000000054600001111489000000001128977000000000000000000000000017488050000000000  3020120926   01          2                                                                                   3112339995352036884500400019                                                  N                     01321  0000000        000099
12047190731000100DE CASTRO LOUREIRO E I C LTDA                                         00000000422000000000000000000000000000008403132600000000000000003025894 0     201209202012070300000000054620000255836000000000259159000000000000000000000000003323050000000000  3020120926   01          2                                                                                   3709700002021396491400268179                                                  N                     01321  0000000        000100
12047190731000100DE CASTRO LOUR ENG IND LTDA                                           00000000341000000000000000000000000000008782051600000023399954103026614 0     201209182012082100000000054600001047621000000001064101000000000000000000000000016480050000000000  3020120926   01          2                                                                                   3112339995410036884500400039                                                  N                     01321  0000000        000101
12047190731000100DE CASTRO LOUR ENG IND LTDA                                           00000000341000000000000000000000000000008782052000000023399955303026632 0     201209192012082200000000054610000952073000000000965177000000000000000000000000013104050000000000  3020120926   01          2                                                                                   3112339995535036884500400019                                                  N                     01321  0000000        000102
12047190731000100DE CASTRO LOUR ENG IND LTDA                                           00000000341000000000000000000000000000008782052100000023399955903026643 0     201209202012082300000000054620000867039000000000877269000000000000000000000000010230050000000000  3020120926   01          2                                                                                   3112339995592036884500400049                                                  N                     01321  0000000        000103
12047190731000100DE CASTRO LOUR ENG IND LTDA                                           00000000341000000000000000000000000000008782052500000023399955603026636 0     201209192012082200000000054610000940804000000000953754000000000000000000000000012950050000000000  3020120926   01          2                                                                                   3112339995568036884500400049                                                  N                     01321  0000000        000104
12047190731000100DE CASTRO LOUR ENG IND LTDA                                           00000000341000000000000000000000000000008782052700000023399956203026648 0     201209202012082300000000054620000976053000000000987573000000000000000000000000011520050000000000  3020120926   01          2                                                                                   3112339995626036884500400029                                                  N                     01321  0000000        000105
12047190731000100DE CASTRO LOUR ENG IND LTDA                                           00000000341000000000000000000000000000008782058900000023602714603026734 0     201209252012082800000000054670000997834000000000999796000000000000000000000000001962050000000000  3020120926   01          2                                                                                   3112360271467036884500400039                                                  N                     01321  0000000        000106
12047190731000100DE CASTRO LOUR ENG IND LTDA                                           00000000341000000000000000000000000000008782051200000023399953803026613 0     201209182012082100000000054600001107989000000001125421000000000000000000000000017432050000000000  3020120926   01          2                                                                                   3112339995386036884500400039                                                  N                     01321  0000000        000107
12051180370000199IGUAFER FERRO E ACO LTDA                                              0000000034100000000000000000000000000000852309100000002239389789443 B         201209022012071800000000054440000168275000000000174995000000000000000000000000006720050000000000  3020120926   01          2                                                                                   3112239389789077149484600089                                                  N                     01321  0000000        000108
12051180370000199IGUAFER FERRO E ACO LTDA                                              0000000034100000000000000000000000000000852309110000002239389799443 C         201209122012071800000000054540000168275000000000172195000000000000000000000000003920050000000000  3020120926   01          2                                                                                   3112239389797077149484600089                                                  N                     01321  0000000        000109
12051180370000199IGUAFER FERRO E ACO LTDA                                              0000000034100000000000000000000000000000852309120000002239389809443 D         201209222012071800000000054640000168275000000000169395000000000000000000000000001120050000000000  3020120926   01          2                                                                                   3112239389805077149484600029                                                  N                     01321  0000000        000110
12053585766000141MULTIACOS IND  COM  PROD  TEC                                         0000000038900000000000000000000000000000878205380000000000000000004462302     201209242012073000000000054660000262786000000000263662000000000000000000000000000876050000000000  3020120926   01          2                                                                                   3015601031416185000042309219                                                  N                     01321  0000000        000111
12053585766000141MULTIACOS IND  COM  PROD  TEC                                         0000000038900000000000000000000000000000878205390000000000000000004462402     201209242012073000000000054660000761496000000000764034000000000000000000000000002538050000000000  3020120926   01          2                                                                                   3015601031416193000042309239                                                  N                     01321  0000000        000112
12053585766000141MULTIACOS IND  COM  PROD  TEC                                         0000000038900000000000000000000000000000878205400000000000000000004532101     201209242012081300000000054660000910692000000000913728000000000000000000000000003036050000000000  3020120926   01          2                                                                                   3015601031416320000042309219                                                  N                     01321  0000000        000113
12053585766000141MULTIACOS IND  COM  PROD  TEC                                         0000000038900000000000000000000000000000878205410000000000000000004532301     201209242012081300000000054660000265180000000000266064000000000000000000000000000884050000000000  3020120926   01          2                                                                                   3015601031416339000042309269                                                  N                     01321  0000000        000114
12053585766000141MULTIACOS IND  COM  PROD  TEC                                         0000000038900000000000000000000000000000878205420000000000000000004462202     201209242012073000000000054660000569064000000000570960000000000000000000000000001896050000000000  3020120926   01          2                                                                                   3015601031416177000042309239                                                  N                     01321  0000000        000115
12053585766000141MULTIACOS I C PRODS TEC LTDA                                          0000000042200000000000000000000000000000878205690000000000000000004539301     201209252012082800000000054670001052408000000001054161000000000000000000000000001753050000000000  3020120926   01          2                                                                                   3711500005033164917492650119                                                  N                     01321  0000000        000116
12053585766000141MULTIACOS I C PRODS TEC LTDA                                          0000000042200000000000000000000000000000878205740000000000000000004391603     201209252012082800000000054670000354262000000000354851000000000000000000000000000589050000000000  3020120926   01          2                                                                                   3711500005033164917492706179                                                  N                     01321  0000000        000117
12053585766000141MULTIACOS I C PRODS TEC LTDA                                          0000000042200000000000000000000000000000878205750000000000000000004391703     201209252012082800000000054670000342203000000000342772000000000000000000000000000569050000000000  3020120926   01          2                                                                                   3711500005033164917492714159                                                  N                     01321  0000000        000118
12053585766000141MULTIACOS I C PRODS TEC LTDA                                          0000000042200000000000000000000000000000878205800000000000000000004391503     201209252012082800000000054670000319418000000000319949000000000000000000000000000531050000000000  3020120926   01          2                                                                                   3711500005033164917492692119                                                  N                     01321  0000000        000119
12053585766000141MULTIACOS COM DE PRODUTOS TECN                                        0000000023703398700000000011290 00000000870177440020224100000020004375203     201209212012071200000000054630000311850000000000314450000000000000000000000000002600050000000000  3020120926   01          2  RUA JUNO  533                                                                    3                         000000000000000                                     N                     00598  0000000        000120
12053585766000141MULTIACOS COM DE PRODUTOS TECN                                        0000000023703398700000000011290 00000000870177450020224100000280004452002     201209212012072700000000054630000865030000000000872240000000000000000000000000007210050000000000  3020120926   01          2  RUA JUNO  533                                                                    3                         000000000000000                                     N                     00598  0000000        000121
12053585766000141MULTIACOS COM DE PRODUTOS TECN                                        0000000023703398700000000011290 00000000870177460020224100000290004453002     201209212012072700000000054630000619209000000000624369000000000000000000000000005160050000000000  3020120926   01          2  RUA JUNO  533                                                                    3                         000000000000000                                     N                     00598  0000000        000122
12053585766000141MULTIACOS COM DE PRODUTOS TECN                                        0000000023703398700000000011290 00000000870177470020224100000800004521801     201209212012081000000000054630000836236000000000843206000000000000000000000000006970050000000000  3020120926   01          2  RUA JUNO  533                                                                    3                         000000000000000                                     N                     00598  0000000        000123
12053585766000141MULTIACOS COM DE PRODUTOS TECN                                        0000000023703398700000000011290 00000000888733010020226900000160004493703     201210152012080600000000054870000180041000000000180041000000000000000000000000000000050000000000  3020121015   01FS        1  RUA JUNO  533                                                                    3                         000000000000000                                     N                     00598  0000000        000124
12053585766000141MULTIACOS COM DE PRODUTOS TECN                                        0000000023703398700000000011290 00000000888733020020226900000170004493803     201210152012080600000000054870000828107000000000828107000000000000000000000000000000050000000000  3020121015   01FS        1  RUA JUNO  533                                                                    3                         000000000000000                                     N                     00598  0000000        000125
12053585766000141MULTIACOS COM DE PRODUTOS TECN                                        0000000023703398700000000011290 00000000888733030020226900000230004500803     201210162012080700000000054880000173389000000000173389000000000000000000000000000000050000000000  3020121016   01FS        1  RUA JUNO  533                                                                    3                         000000000000000                                     N                     00598  0000000        000126
12053585766000141MULTIACOS COM DE PRODUTOS TECN                                        0000000023703398700000000011290 00000000888733040020226900000240004500903     201210162012080700000000054880000962577000000000962577000000000000000000000000000000050000000000  3020121016   01FS        1  RUA JUNO  533                                                                    3                         000000000000000                                     N                     00598  0000000        000127
12053585766000141MULTIACOS COM DE PRODUTOS TECN                                        0000000023703398700000000011290 00000000888733120020226900000720004650401     201210172012090500000000054890000198805000000000198805000000000000000000000000000000050000000000  3020121017   01FS        1  RUA JUNO  533                                                                    3                         000000000000000                                     N                     00598  0000000        000128
12053585766000141MULTIACOS COM DE PRODUTOS TECN                                        0000000023703398700000000011290 00000000888733110020226900000710004650301     201210172012090500000000054890000235534000000000235534000000000000000000000000000000050000000000  3020121017   01FS        1  RUA JUNO  533                                                                    3                         000000000000000                                     N                     00598  0000000        000129
12053585766000141MULTIACOS COM DE PRODUTOS TECN                                        0000000023703398700000000011290 00000000888733050020226900000250004501003     201210162012080700000000054880000902868000000000902868000000000000000000000000000000050000000000  3020121016   01FS        1  RUA JUNO  533                                                                    3                         000000000000000                                     N                     00598  0000000        000130
12053585766000141MULTIACOS COM DE PRODUTOS TECN                                        0000000023703398700000000011290 00000000888733060020226900000460004565102     201210152012082000000000054870000455717000000000455717000000000000000000000000000000050000000000  3020121015   01FS        1  RUA JUNO  533                                                                    3                         000000000000000                                     N                     00598  0000000        000131
12053585766000141MULTIACOS COM DE PRODUTOS TECN                                        0000000023703398700000000011290 00000000888733070020226900000470004566102     201210152012082000000000054870001281579000000001281579000000000000000000000000000000050000000000  3020121015   01FS        1  RUA JUNO  533                                                                    3                         000000000000000                                     N                     00598  0000000        000132
12053585766000141MULTIACOS COM DE PRODUTOS TECN                                        0000000023703398700000000011290 00000000888733080020226900000490004570002     201210162012082100000000054880000999583000000000999583000000000000000000000000000000050000000000  3020121016   01FS        1  RUA JUNO  533                                                                    3                         000000000000000                                     N                     00598  0000000        000133
12053585766000141MULTIACOS COM DE PRODUTOS TECN                                        0000000023703398700000000011290 00000000888733090020226900000680004642301     201210162012090400000000054880000198805000000000198805000000000000000000000000000000050000000000  3020121016   01FS        1  RUA JUNO  533                                                                    3                         000000000000000                                     N                     00598  0000000        000134
12053585766000141MULTIACOS COM DE PRODUTOS TECN                                        0000000023703398700000000011290 00000000888733100020226900000690004642101     201210162012090400000000054880000251722000000000251722000000000000000000000000000000050000000000  3020121016   01FS        1  RUA JUNO  533                                                                    3                         000000000000000                                     N                     00598  0000000        000135
12054382510000108SETENTA IND E COM DE MADEIRAS                                         0000000034100000000000000000000000000000860403430000002277814474462 A         201209042012080700000000054460000191200000000000199472000000000000000000000000008272050000000000  3020120926   01          2                                                                                   3112277814474057049175300069                                                  N                     01321  0000000        000136
12054382510000108SETENTA IND E COM DE MADEIRAS                                         0000000034100000000000000000000000000000874070720000002305114064536 A         201209192012081600000000054610000191200000000000193832000000000000000000000000002632050000000000  3020120926   01          2                                                                                   3112305114061057002848000039                                                  N                     01321  0000000        000137
12056993900000131CIA METALURGICA PRADA                                                 0000000034100000000000000000000000000000855028570000002254750270026244302     201209242012072800000000054660000100684000000000101020000000000000000000000000000336050000000000  3020120926   01          2                                                                                   3112254750279293800573900089                                                  N                     01321  0000000        000138
12056993900000131CIA METALURGICA PRADA                                                 0000000034100000000000000000000000000000844839060000002201181940025644402     201209052012071100000000054470000779647000000000806926000000000000000000000000027279050000000000  3020120926   01          2                                                                                   3112201181941293800573900019                                                  N                     01321  0000000        000139
12056993900000131CIA METALURGICA PRADA                                                 0000000034100000000000000000000000000000844839140000002201181870025629302     201209052012071100000000054470000257906000000000266936000000000000000000000000009030050000000000  3020120926   01          2                                                                                   3112201181875293800573900069                                                  N                     01321  0000000        000140
12056993900000131CIA METALURGICA PRADA                                                 0000000034100000000000000000000000000000824820100000002102181160024711603     201208292012060600000000054400000833146000000000872038000000000000000000000000038892050000000000  3020120926   01          2                                                                                   3112102181164293800573900039                                                  N                     01321  0000000        000141
12056993900000131CIA METALURGICA PRADA                                                 0000000034100000000000000000000000000000855028580000002254750280026244402     201209242012072800000000054660000084115000000000084395000000000000000000000000000280050000000000  3020120926   01          2                                                                                   3112254750287293800573900039                                                  N                     01321  0000000        000142
12056993900000131CIA METALURGICA PRADA                                                 0000000034100000000000000000000000000000848180620000002218222670025829902     201209112012071700000000054530000498118000000000510568000000000000000000000000012450050000000000  3020120926   01          2                                                                                   3112218222670293800573900029                                                  N                     01321  0000000        000143
12056993900000131CIA METALURGICA PRADA                                                 0000000034100000000000000000000000000000837460440000002165934360025295403     201209202012062800000000054620000152797000000000154327000000000000000000000000001530050000000000  3020120926   01          2                                                                                   3112165934368293800573900019                                                  N                     01321  0000000        000144
12056993900000131CIA METALURGICA PRADA                                                 0000000034100000000000000000000000000000837460450000002165934380025295603     201209202012062800000000054620000154165000000000155707000000000000000000000000001542050000000000  3020120926   01          2                                                                                   3112165934384293800573900039                                                  N                     01321  0000000        000145
12056993900000131CIA METALURGICA PRADA                                                 0000000034100000000000000000000000000000848180630000002218222680025830002     201209112012071700000000054530000247673000000000253868000000000000000000000000006195050000000000  3020120926   01          2                                                                                   3112218222688293800573900059                                                  N                     01321  0000000        000146
12056993900000131CIA METALURGICA PRADA                                                 0000000034100000000000000000000000000000837460460000002165934390025295703     201209202012062800000000054620000139528000000000140926000000000000000000000000001398050000000000  3020120926   01          2                                                                                   3112165934392293800573900029                                                  N                     01321  0000000        000147
12056993900000131CIA METALURGICA PRADA                                                 0000000034100000000000000000000000000000848180640000002218222690025830102     201209112012071700000000054530000207402000000000212592000000000000000000000000005190050000000000  3020120926   01          2                                                                                   3112218222696293800573900039                                                  N                     01321  0000000        000148
12056993900000131CIA METALURGICA PRADA                                                 0000000034100000000000000000000000000000838527930000002171340470025383503     201209242012063000000000054660000575127000000000577045000000000000000000000000001918050000000000  3020120926   01          2                                                                                   3112171340477293800573900069                                                  N                     01321  0000000        000149
12056993900000131CIA METALURGICA PRADA                                                 0000000034100000000000000000000000000000838527940000002171340480025384303     201209242012063000000000054660000454478000000000455992000000000000000000000000001514050000000000  3020120926   01          2                                                                                   3112171340485293800573900029                                                  N                     01321  0000000        000150
12056993900000131CIA METALURGICA PRADA                                                 0000000034100000000000000000000000000000840312930000002179478290025419302     201208282012070300000000054390000402178000000000421608000000000000000000000000019430050000000000  3020120926   01          2                                                                                   3112179478295293800573900089                                                  N                     01321  0000000        000151
12056993900000131CIA METALURGICA PRADA                                                 0000000034100000000000000000000000000000840312940000002179478300025419402     201208282012070300000000054390000322804000000000338406000000000000000000000000015602050000000000  3020120926   01          2                                                                                   3112179478303293800573900079                                                  N                     01321  0000000        000152
12056993900000131CIA METALURGICA PRADA                                                 0000000034100000000000000000000000000000840312960000002179478310025419303     201209252012070300000000054670000402178000000000402848000000000000000000000000000670050000000000  3020120926   01          2                                                                                   3112179478311293800573900069                                                  N                     01321  0000000        000153
12056993900000131CIA METALURGICA PRADA                                                 0000000034100000000000000000000000000000840312970000002179478320025419403     201209252012070300000000054670000322804000000000323342000000000000000000000000000538050000000000  3020120926   01          2                                                                                   3112179478329293800573900079                                                  N                     01321  0000000        000154
12056993900000131CIA METALURGICA PRADA                                                 0000000034100000000000000000000000000000844839000000002201181880025629402     201209052012071100000000054470000249372000000000258108000000000000000000000000008736050000000000  3020120926   01          2                                                                                   3112201181883293800573900019                                                  N                     01321  0000000        000155
12056993900000131CIA METALURGICA PRADA                                                 0000000034100000000000000000000000000000844839010000002201181890025635302     201209052012071100000000054470000406842000000000421080000000000000000000000000014238050000000000  3020120926   01          2                                                                                   3112201181891293800573900019                                                  N                     01321  0000000        000156
12056993900000131CIA METALURGICA PRADA                                                 0000000034100000000000000000000000000000844839020000002201181900025635402     201209052012071100000000054470000208689000000000215997000000000000000000000000007308050000000000  3020120926   01          2                                                                                   3112201181909293800573900069                                                  N                     01321  0000000        000157
12056993900000131CIA METALURGICA PRADA                                                 0000000034100000000000000000000000000000844839030000002201181910025635502     201209052012071100000000054470000164780000000000170555000000000000000000000000005775050000000000  3020120926   01          2                                                                                   3112201181917293800573900029                                                  N                     01321  0000000        000158
12056993900000131CIA METALURGICA PRADA                                                 0000000034100000000000000000000000000000844839040000002201181920025635602     201209052012071100000000054470000339933000000000351840000000000000000000000000011907050000000000  3020120926   01          2                                                                                   3112201181925293800573900069                                                  N                     01321  0000000        000159
12056993900000131CIA METALURGICA PRADA                                                 0000000034100000000000000000000000000000844839050000002201181930025636202     201209052012071100000000054470000746213000000000772337000000000000000000000000026124050000000000  3020120926   01          2                                                                                   3112201181933293800573900019                                                  N                     01321  0000000        000160
12056993900000131CIA METALURGICA PRADA                                                 0000000034100000000000000000000000000000837460410000002165934370025295503     201209202012062800000000054620000339048000000000342438000000000000000000000000003390050000000000  3020120926   01          2                                                                                   3112165934376293800573900029                                                  N                     01321  0000000        000161
12057017873000124METAFER COMERCIO DE FERRO E AC                                        0000000023703134800000000072206 00000000866992090090223300001010033517C01     201209212012081700000000054630000083489000000000084879000000000000000000000000001390050000000000  3020120926   01          2  RUA JUNO  533                                                                    3                         000000000000000                                     N                     00598  0000000        000162
12057017873000124METAFER COMERCIO DE FERRO E AC                                        0000000023703134800000000072206 00000000869070990090223700000430033608C01     201209252012082100000000054670000030750000000000030853000000000000000000000000000103050000000000  3020120926   01          2  RUA JUNO  533                                                                    3                         000000000000000                                     N                     00598  0000000        000163
12057029431000106ATLAS COPCO BRASIL LTDA                                               0000000034100000000000000000000000000000861960280000002283943487000054090     201209062012080900000000054480000059490000000000060270000000000000000000000000000780050000000000  3020120926   01          2                                                                                   3112283943481293804111400069                                                  N                     01321  0000000        000164
12057029431000106ATLAS COPCO BRASIL LTDA                                               0000000034100000000000000000000000000000863731640000002292733057000054146     201209072012081000000000054490000081450000000000082476000000000000000000000000001026050000000000  3020120926   01          2                                                                                   3112292733055293804111400099                                                  N                     01321  0000000        000165
12057158057000130COMERCIAL ELETRICA PJ LTDA                                            0000000023703394400000000972983 00000000842436850090219200008900000305028     201208012012070400000000054120000079196000000000093924000000000000000000000000014728050000000000  3020120926   01          2  R TAMAINDE 1410                                                                  3                         000000000000000                                     N                     00598  0000000        000166
12059160689000164LUCHETI LUBRIFICANTES LTDA                                            0000000003300000000000000000000000000000870670580000009400000000030708 01     201209242012082700000000054660000044800000000000044980000000000000000000000000000180050000000000  3020120926   01          2                                                                                   3917953170000000115894010489                                                  N                     01321  0000000        000167
12059659615000177DZ COMERCIO R E SERVICOS LTDA                                         000000003410000000000000000000000000000086699205000000900000268252            201209172012081500000000054590000060000000000000061080000000000000000000000000001080050000000000  3020120926   01          2                                                                                   3109000002680000314585100059                                                  N                     01321  0000000        000168
12061096178000172COMERCIAL ELETRICA RIMO LTDA                                          0000000034100000000000000000000000000000888732950000002425685139750           201209282012083100000000054700000010836000000000010836000000000000000000000000000000050000000000  3020120928   01FS        1                                                                                   3112425685131166009333500029                                                  N                     01321  0000000        000169
12061217188000119TELAS METALICAS TELMETAL LTDA                                         0000000000100000000000000000000000000000867622080000000056410005532 2 3       201209212012082000000000054630000074597000000000075393000000000000000000000000000995050000000000  3020120925   06          3                                                                                   3000000115031800000056411779                                                  N                     01321  0000000        000170
12061217188000119TELAS METALICAS TELMETAL LTDA                                         0000000000100000000000000000000000000000864554310000000056150005494 3 3       201209252012081400000000054670000008494000000000008517000000000000000000000000000023050000000000  3020120926   01          2                                                                                   3000000115031800000056151739                                                  N                     01321  0000000        000171
12061217188000119TELAS METALICAS TELMETAL LTDA                                         0000000000100000000000000000000000000000863731690000000056120005493 3 3       201209242012081300000000054660000017103000000000017195000000000000000000000000000092050000000000  3020120926   01          2                                                                                   3000000115031800000056121779                                                  N                     01321  0000000        000172
12061217188000119TELAS METALICAS TELMETAL LTDA                                         0000000000100000000000000000000000000000863731710000000056090005492 3 3       201209242012081300000000054660000043177000000000043407000000000000000000000000000230050000000000  3020120926   01          2                                                                                   3000000115031800000056091729                                                  N                     01321  0000000        000173
12061217188000119TELAS METALICAS TELMETAL LTDA                                         0000000000100000000000000000000000000000871191270000000056780005569 1 3       201209242012082900000000054660000060520000000000060842000000000000000000000000000322050000000000  3020120926   01          2                                                                                   3000000115031800000056781779                                                  N                     01321  0000000        000174
12061612735000160IMP TEIXEIRA DE FERRAGENS LTDA                                        0000000034100000000000000000000000000000878205810000002351838130000086481     201209242012082700000000054660000029325000000000029519000000000000000000000000000194050000000000  3020120926   01          2                                                                                   3112351838134000442318200079                                                  N                     01321  0000000        000175
12061780615000172LEPOK INFORMATICA E PAPELARIA                                         0000000023703393600000000005010 000000008887330000202269000000902128008       201210152012091700000000054870000006768000000000006768000000000000000000000000000000050000000000  3020121015   01FS        1  RUA TAMAINDE 1410                                                                3                         000000000000000                                     N                     00598  0000000        000176
12061780615000172LEPOK INFORMATICA E PAPELARIA                                         0000000023703393600000000005010 000000008887329900202269000000802127952       201210152012091700000000054870000049890000000000049890000000000000000000000000000000050000000000  3020121015   01FS        1  RUA TAMAINDE 1410                                                                3                         000000000000000                                     N                     00598  0000000        000177
12062510367000102ITANHAEM TRANSP DE MAQUINAS LT                                        000000003410000000000000000000000000000087407049000000236463199667            201209202012090400000000054620000248220000000000254178000000000000000000000000005958050000000000  3020120926   01          2                                                                                   3112364631997005770252400049                                                  N                     01321  0000000        000178
12064952757000168WALMAC COM DE PROD QUIMICOS LT                                        0000000034100000000000000000000000000000860403460000002275821710020148        201208312012080300000000054420000219267000000000230473000000000000000000000000011206050000000000  3020120926   01          2                                                                                   3112275821711064807961400079                                                  N                     01321  0000000        000179
12065611451000100SUPERDIN COMERCIAL E IMPORTADO                                        0000000023700890700000000004502 0000000088873313009022690000054   006715A     201210152012091700000000054870000031477000000000031477000000000000000000000000000000050000000000  3020121015   01FS        1  R TAMAINDE 1410                                                                  3                         000000000000000                                     N                     00598  0000000        000180
12066841552000130R V SEG PATRIMONIAL S C LTDA                                          00000000341000000000000000000000000000008887329800000090002213622136          201210102012091100000000054820000374758000000000374758000000000000000000000000000000050000000000  3020121010   01FS        1                                                                                   3109000221365001838994000069                                                  N                     01321  0000000        000181
12066841552000130R V SEG PATRIMONIAL LTDA                                              00000000341000000000000000000000000000008876980700000090002213622136          201210102012091100000000054820000374758000000000374758000000000000000000000000000000050000000000  3020121010   05          3                                                                                   3109000221367001835253400019                                                  N                     01321  0000000        000182
12066841552000130R V SEG PATRIMONIAL LTDA                                              00000000341000000000000000000000000000008852483200000090002192721927          201209102012081000000000054520000483241000000000485817000000000000000000000000002576050000000000  3020120926   01          2                                                                                   3109000219270001835253400099                                                  N                     01321  0000000        000183
12067647412000199ANCORA CHUMBADORES LTDA                                               000000003410000000000000000000000000000088873293000000242214247062576 2       201211182012091900000000055210000125000000000000125000000000000000000000000000000000050000000000  3020121119   01FS        1                                                                                   3112422142474013626917200019                                                  N                     01321  0000000        000184
12067647412000199ANCORA CHUMBADORES LTDA                                               000000003410000000000000000000000000000088873286000000242214246062576 1       201211032012091900000000055060000175000000000000175000000000000000000000000000000000050000000000  3020121105   01FS        1                                                                                   3112422142466013626917200029                                                  N                     01321  0000000        000185
12067647412000199ANCORA CHUMBADORES LTDA                                               000000003410000000000000000000000000000088873290000000242214249062576 4       201301022012091900000000055660000125000000000000125000000000000000000000000000000000050000000000  3020130102   01FS        1                                                                                   3112422142490013626917200089                                                  N                     01321  0000000        000186
12067647412000199ANCORA CHUMBADORES LTDA                                               000000003410000000000000000000000000000088873288000000242214248062576 3       201212182012091900000000055510000125000000000000125000000000000000000000000000000000050000000000  3020121218   01FS        1                                                                                   3112422142482013626917200019                                                  N                     01321  0000000        000187
12069284248000128ISOCOAT TINTAS E VERNIZES LTDA                                        0000000034100000000000000000000000000000888732890000002421485710055761        201211052012092100000000055080000107324000000000107324000000000000000000000000000000050000000000  3020121105   01FS        1                                                                                   3112421485718077430121200079                                                  N                     01321  0000000        000188
12069284248000128ISOCOAT TINTAS E VERNIZES LTDA                                        0000000034100000000000000000000000000000888732960000002421485720055761        201211202012092100000000055230000093324000000000093324000000000000000000000000000000050000000000  3020121120   01FS        1                                                                                   3112421485726077430121200069                                                  N                     01321  0000000        000189
12069284248000128ISOCOAT TINTAS E VERNIZES LTDA                                        0000000034100000000000000000000000000000888732970000002421485730055761        201212052012092100000000055380000093352000000000093352000000000000000000000000000000050000000000  3020121205   01FS        1                                                                                   3112421485734077430121200089                                                  N                     01321  0000000        000190
12069284248000128ISOCOAT TINTAS E VERNIZES LTDA                                        0000000034100000000000000000000000000000841061040000002182507930052085        201209172012070200000000054590000236130000000000241800000000000000000000000000005670050000000000  3020120926   01          2                                                                                   3112182507932077430121200019                                                  N                     01321  0000000        000191
12069309706000136F N A TRANSPORTES LTDA                                                000000003410000000000000000000000000000086615421000000900010656059068         201208302012081500000000054410000079200000000000086328000000000000000000000000007128050000000000  3020120926   01          2                                                                                   3109000106565005486932600099                                                  N                     01321  0000000        000192
12074239252000104TRANSPORTADORA BANNYS LTDA EPP                                        0000000034100000000000000000000000000000888732870000002425158021300           201210102012092100000000054820000044000000000000044000000000000000000000000000000000050000000000  3020121010   01FS        1                                                                                   3112425158022077267978300019                                                  N                     01321  0000000        000193
900019400000000069736901                                                                                                                                                                                                                                                                                                                                                                                                                                                                01321  0000000        000194
