0000147602043799295000110ALTAMIRA INDUSTRIA METALURGICA LT       202000000188720120926213029             3                                                                                                  000000000000000                                                                                                                                                                                                                                                                                   000001
12057017873000124METAFER COMERCIO DE FERRO E AC                                        0000000023703134800000000072206 I000000000009934009022370000043               201209260000000000000000054680000030853000000000030853000000000000000000000000000000010000033608  3120120926   02BW        5000000               000000000000000                                               3313409223700000430007220089               33608                              N                     01146 10020256        000002
12057017873000124METAFER COMERCIO DE FERRO E AC                                        0000000023703134800000000072206 I000000000009936009022330000101               201209260000000000000000054680000084879000000000084879000000000000000000000000000000010000033517  3120120926   02BW        5000000               000000000000000                                               3313409223300001010007220049               033517/01                          N                     01146 10020256        000003
12061217188000119TELAS METALICAS TELMETAL LTDA                                         0000000000100000 0000000000000  I000000000009951000000000000000               201209260000000000000000054680000017195000000000017195000000000000000000000000000000010000005493  3120120926   02BW        5000000               000000000000000                                               3000000115031800000056121719               5493/03-03                         N                     01130 10020256        000004
12012931789000183RCM IMPORTADORA FERRAMENTAS LT                                        0000000000100000 0000000000000  I000000000009933000000000000000               201209260000000000000000054680000026230000000000026230000000000000000000000000000000010000000000  3120120926   02BW        5000000               000000000000000                                               3000000225937123243022341779               1874108                            N                     01130 10020256        000005
12000288916000199VB SERVICOS COM ADM LTDA                                              0000000003300000 0000000000000  I000000000009938000000000000000               201210050000000000000000054770000668583000000000668583000000000000000000000000000000010005667137  3120120926   02BW        5000000               000000000000000                                               3119130442690030259000337849               5667137                            N                     01130 10020256        000006
12004978895000194KONFIDE CONSULTORIA S C LTDA                                          0000000000100000 0000000000000  I000000000009944000000000000000               201209260000000000000000054680000171390000000000171390000000000000000000000000000000010017338775  3120120926   02BW        5000000               000000000000000                                               3365086000000365086005072139               17338775                           N                     01130 10020256        000007
12017469701000177ARCELORMITTAL BRASIL S A                                              0000000034100000 0000000000000  I000000000009945000000000000000               201209270000000000000000054690000065630000000000065630000000000000000000000000000000010000127881  3120120926   02BW        5000000               000000000000000                                               3109323310835293802529900019               0127881/01                         N                     01130 10020256        000008
12062539994000176LEALFER INDUSTRIA E COMERCIO D                                        0000000034100000 0000000000000  I000000000009946000000000000000               201209260000000000000000054680000923840000000000923840000000000000000000000000000000010000053798  3120120926   02BW        5000000               000000000000000                                               3181548594959076103324000089               053798/01                          N                     01130 10020256        000009
12061217188000119TELAS METALICAS TELMETAL LTDA                                         0000000000100000 0000000000000  I000000000009950000000000000000               201209260000000000000000054680000060842000000000060842000000000000000000000000000000010000005569  3120120926   02BW        5000000               000000000000000                                               3000000115031800000056781719               5569/01-03                         N                     01130 10020256        000010
12061217188000119TELAS METALICAS TELMETAL LTDA                                         0000000000100000 0000000000000  I000000000009949000000000000000               201209260000000000000000054680000043407000000000043407000000000000000000000000000000010000005492  3120120926   02BW        5000000               000000000000000                                               3000000115031800000056091759               5492/03-03                         N                     01130 10020256        000011
12007920494000171NOGUEIRA LEITE ADVOG ASSOC                                            0000000074500000 0000000000000  I000000000009956000000000000000               201209260000000000000000054680000295500000000000295500000000000000000000000000000000010000004708  3120120926   02BW        5000000               000000000000000                                               3361125706001200000010231819               4708                               N                     01130 10020256        000012
12059659615000177DZ COMERCIO E SERV LTDA                                               0000000034100000 0000000000000  I000000000009952000000000000000               201209260000000000000000054680000061080000000000061080000000000000000000000000000000010000000252  3120120926   02BW        5000000               000000000000000                                               3181549358139000314585100029               252                                N                     01130 10020256        000013
12052559499000175BOMAX NO BRASIL EQUIP IND LTDA                                        0000000034100000 0000000000000  I000000000009953000000000000000               201209260000000000000000054680000182318000000000182318000000000000000000000000000000010000001561  3120120926   02BW        5000000               000000000000000                                               3181549359264324705000200019               1561/02                            N                     01130 10020256        000014
12051180370000199IGUAFER FERRO E ACO LTDA                                              0000000034100000 0000000000000  I000000000009943000000000000000               201209260000000000000000054680000174995000000000174995000000000000000000000000000000010000009443  3120120926   02BW        5000000               000000000000000                                               3181549323943077149484600099               09443/03                           N                     01130 10020256        000015
12051180370000199IGUAFER FERRO E ACO LTDA                                              0000000034100000 0000000000000  I000000000009942000000000000000               201209260000000000000000054680000172195000000000172195000000000000000000000000000000010000009443  3120120926   02BW        5000000               000000000000000                                               3181549326755077149484600079               9443/03                            N                     01130 10020256        000016
12061217188000119TELAS METALICAS TELMETAL LTDA                                         0000000034100000 0000000000000  I000000000009941000000000000000               201209260000000000000000054680000115371000000000115371000000000000000000000000000000010000005484  3120120926   02BW        5000000               000000000000000                                               3181549363452077099894600049               5484/03-03                         N                     01130 10020256        000017
12067647412000199ANCORA CHUMBADORES LTDA                                               0000000034100000 0000000000000  I000000000009940000000000000000               201209260000000000000000054680000253936000000000253936000000000000000000000000000000010000055988  3120120926   02BW        5000000               000000000000000                                               3181549364385013626917200019               055988/03                          N                     01130 10020256        000018
12001515122000183SOFT BRASIL AUTOMACAO LTDA                                            0000000034100000 0000000000000  I000000000009932000000000000000               201209260000000000000000054680000050104000000000050104000000000000000000000000000000010000001465  3120120926   02BW        5000000               000000000000000                                               3181549387525018307515900039               1465                               N                     01130 10020256        000019
12059160689000164LUCHETI LUBRIFICANTES LTDA                                            0000000003300000 0000000000000  I000000000009935000000000000000               201209260000000000000000054680000044980000000000044980000000000000000000000000000000010000030708  3120120926   02BW        5000000               000000000000000                                               3917953170000000115894020339               30708/01                           N                     01130 10020256        000020
12007358761004741GERDAU ACOS LONGOS S A                                                0000000023702028100000006041051 I000000000009948016002820172303               201209260000000000000000054680000278222000000000278222000000000000000000000000000000010000017230  3120120926   02BW        5000000               000000000000000                                               3202816028201723030604105019               017230/03                          N                     01146 10020256        000021
12007068566000102NIVEL EMPREGOS LTDA           AV CELSO GARCIA 3830                    0306400023700097300000003053792 I000000000009927000000000000000               201209260000000000000000000000000000000000000000200000000000000000000000000000000000010000002770  0120120926   02BW        5000000               000000000000000                                               3                                          2770 - PARC.02                     N                     01321 10020256        000022
12006000195000156M B A MERCANTIL BRASILEIRA DE R RINCAO 220                            0365108023700118000000002128292 I000000000009955000000000000000               201209260000000000000000000000000000000000000000202838000000000000000000000000000000010000009005  0120120926   02BW        5000000               000000000000000                                               3                                          NF.NRO.09005/01                    N                     01321 10020256        000023
12006000195000156M B A MERCANTIL BRASILEIRA DE R RINCAO 220                            0365108023700118000000002128292 I000000000009954000000000000000               201209260000000000000000000000000000000000000000363852000000000000000000000000000000010000008735  0120120926   02BW        5000000               000000000000000                                               3                                          NF.NRO.8735/02                     N                     01321 10020256        000024
12003498897000202TELECOMUNICACOES DE SAO PAULO                                         0000000023702372800000000360082 I000000000009937019066000865672               201209260000000000000000054680000337187000000000337187000000000000000000000000000000010032022406  3120120926   02BW        5000000               000000000000000                                               3237219660008656720036008059               32022406                           N                     01146 10020256        000025
12007151435000186SALIS DE MOURA E ADVOGADOS ASSR MARIA PAULA 78 BELA VISTA             0131900023700500200000000594440 I000000000009929000000000000000               201209260000000000000000000000000000000000000000147700000000000000000000000000000000010000082012  0120120926   02BW        5000000               000000000000000                                               3                                          REF.AGOSTO/2012.                   N                     01321 10020256        000026
11144219728000051MARCIO ALEXANDRE RUSSO        R GEN ATALIBA LEONEL 4048 CSA3 TUCURUVI 0224200223702622000000000064858 I000000000009930000000000000000               201209260000000000000000000000000000000000000000054557000000000000000000000000000000010000082012  0120120926   02BW        5000000               000000000000000                                               3                                          REF.AGOSTO/2012.                   N                     01321 10020256        000027
12004455726000170INTERCLICK INFORMATICA S C LTDR JORGE AUGUSTO 83 SL 84 PENHA          0364500023702451100000000099449 I000000000009928000000000000000               201209260000000000000000000000000000000000000000200000000000000000000000000000000000010000001201  0120120926   02BW        5000000               000000000000000                                               3                                          PARC.03 - NF.NRO.1201              N                     01321 10020256        000028
12008455344000105SANCHES   BRITO TRANSPORTES LTR PRO BOURHAN HELOU 384                 0328703023701311000000001040308 I000000000009931000000000000000               201209260000000000000000000000000000000000000000253300000000000000000000000000000000050000003731  0120120926   02BW        5000000               000000000000000                                               3                                          03731 - PARC.01.                   N                     01321 10020256        000029
12035820448000136WHITE MARTINS GASES IND LTDA                                          0000000023700026400000003937925 I000000000009947009022190000404               201209260000000000000000054680000171162000000000171162000000000000000000000000000000010003611579  3120120926   02BW        5000000               000000000000000                                               3002609221900004040393792019               3611579/01                         N                     01146 10020256        000030
12035820448000136WHITE MARTINS GASES IND LTDA                                          0000000023700026400000003937925 I000000000009939009022230001562               201209260000000000000000054680000118902000000000118902000000000000000000000000000000010000008931  3120120926   02BW        5000000               000000000000000                                               3002609222300015620393792019               08931                              N                     01146 10020256        000031
12005151518000140BELENUS DO BRASIL LTDA                                                0000000023703389800000000015091 0000000083945277009021860002353R128108032     201209242012062600000000054660000576000000000000579802000000000000000000000000007604050000000000  3020120926   02BW        2000000               000000000000000                                               3                         000000000000000                                     N                     01146 10020256        000032
900003300000000006350850                                                                                                                                                                                    000000000000000                                                                                                                                                                                                                                                    00003101312400004924801        000033
