0000147602043799295000110ALTAMIRA INDUSTRIA METALURGICA LT       202000000009120120726060111             1                                                                                                                                                                                                                                                                                                                                                                                                    000001
12001820981000186IND COM ESCADAS FORTUNATO LTDA                                        0000000034100000000000000000000000000000851529280000006139993702966           201208242012072500000000054350000099700000000000099700000000000000000000000000000000050000000000  3020120824   01FS        1                                                                                   3156139993703076466994100019                                                  N                     01321  0000000        000002
12002234917000186RODOVIARIO SOL NASCENTE LTDA                                          000000000010000000000000000000000000000085152925000000129653000033980         201208172012072400000000054280000065000000000000065000000000000000000000000000000000050000000000  3020120817   01FS        1                                                                                   3043921296533028000124731119                                                  N                     01321  0000000        000003
12002460454000170AUT SERVICE COMERCIO E SERVICO                                        0000000023702591700000000007692 000000008515291900901322060028134532          201208172012072400000000054280000238750000000000238750000000000000000000000000000000050000000000  3020120817   01FS        1  RUA JUNO  533                                                                    3                         000000000000000                                     N                     00598  0000000        000004
12002460454000170AUT SERVICE COMERCIO E SERVICO                                        0000000023702591700000000007692 000000008515292000901322060028234532 2        201209172012072400000000054590000238750000000000238750000000000000000000000000000000050000000000  3020120917   01FS        1  RUA JUNO  533                                                                    3                         000000000000000                                     N                     00598  0000000        000005
12006000195000156M B A MERCANTIL BRASILEIRA DE                                         0000000000100000000000000000000000000000798485080000008159900000007989B03     201207232012042500000000054030000392554000000000394516000000000000000000000000001962050000000000  3020120726   01          2                                                                                   3043688159903333000105251119                                                  N                     01321  0000000        000006
12042956441000101SOLUCOES ACO USIMINAS                                                 0000000034100000000000000000000000000000813840570000002053421550016074602     201207232012052100000000054030000559016000000000562370000000000000000000000000003354050000000000  3020120726   01          2                                                                                   3112053421551293807258000089                                                  N                     01321  0000000        000007
12042956441000101SOLUCOES ACO USIMINAS                                                 0000000034100000000000000000000000000000813840580000002053421560016074702     201207232012052100000000054030000338677000000000340708000000000000000000000000002031050000000000  3020120726   01          2                                                                                   3112053421569293807258000019                                                  N                     01321  0000000        000008
12042956441000101SOLUCOES ACO USIMINAS                                                 0000000034100000000000000000000000000000819544970000002078930800016239502     201207252012052900000000054050001126071000000001128323000000000000000000000000002252050000000000  3020120726   01          2                                                                                   3112078930800293807258000029                                                  N                     01321  0000000        000009
12042956441000101SOLUCOES ACO USIMINAS                                                 0000000034100000000000000000000000000000813840610000002053421590016093302     201207232012052100000000054030000698273000000000702464000000000000000000000000004191050000000000  3020120726   01          2                                                                                   3112053421593293807258000069                                                  N                     01321  0000000        000010
12042956441000101SOLUCOES ACO USIMINAS                                                 0000000034100000000000000000000000000000818681020000002074813140016190202     201207232012052800000000054030000723514000000000727855000000000000000000000000004341050000000000  3020120726   01          2                                                                                   3112074813141293807258000079                                                  N                     01321  0000000        000011
12042956441000101SOLUCOES ACO USIMINAS                                                 0000000034100000000000000000000000000000818681030000002074813150016190302     201207232012052800000000054030000449705000000000452402000000000000000000000000002697050000000000  3020120726   01          2                                                                                   3112074813158293807258000039                                                  N                     01321  0000000        000012
12042956441000101SOLUCOES ACO USIMINAS                                                 0000000034100000000000000000000000000000836417890000002164218350016738101     201207252012062700000000054050000830422000000000832083000000000000000000000000001661050000000000  3020120726   01          2                                                                                   3112164218359293807258000049                                                  N                     01321  0000000        000013
12042956441000101SOLUCOES EM ACO USIMINAS S A                                          000000000010000000000000000000000000000083562083000000087492000000167113001   201207242012062700000000054040000698684000000000701478000000000000000000000000002794050000000000  3020120726   01          2                                                                                   3000000169660100000874921719                                                  N                     01321  0000000        000014
12051598902000102NEPIN ACESSORIOS INDUSTRIAIS L                                        000000000010000000000000000000000000000085152927000000476537000015465 1 1     201208102012072400000000054210000034000000000000034000000000000000000000000000000000050000000000  3020120810   01FS        1                                                                                   3043924765374327000101481199                                                  N                     01321  0000000        000015
12053585766000141MULTIACOS INDUSTRIA E COMERCIO                                        0000000000100000000000000000000000000000851529220000002500290000004270202     201208162012072400000000054270000312212000000000312212000000000000000000000000000000050000000000  3020120816   01FS        1                                                                                   3043922500291912000139523199                                                  N                     01321  0000000        000016
12053585766000141MULTIACOS INDUSTRIA E COMERCIO                                        0000000000100000000000000000000000000000851529230000002500300000004270402     201208182012072400000000054290000118503000000000118503000000000000000000000000000000050000000000  3020120820   01FS        1                                                                                   3043922500301912000139523169                                                  N                     01321  0000000        000017
12053585766000141MULTIACOS INDUSTRIA E COMERCIO                                        0000000000100000000000000000000000000000851529240000002500310000004270302     201208162012072400000000054270000402460000000000402460000000000000000000000000000000050000000000  3020120816   01FS        1                                                                                   3043922500311912000139523169                                                  N                     01321  0000000        000018
12056993900000131CIA METALURGICA PRADA                                                 0000000034100000000000000000000000000000820562250000002080193650024478302     201207252012053000000000054050000288294000000000288774000000000000000000000000000480050000000000  3020120726   01          2                                                                                   3112080193652293800573900049                                                  N                     01321  0000000        000019
12056993900000131CIA METALURGICA PRADA                                                 0000000034100000000000000000000000000000820562280000002080193660024499402     201207252012053000000000054050000597722000000000598718000000000000000000000000000996050000000000  3020120726   01          2                                                                                   3112080193660293800573900059                                                  N                     01321  0000000        000020
12056993900000131CIA METALURGICA PRADA                                                 0000000034100000000000000000000000000000820562290000002080193670024499502     201207252012053000000000054050000236586000000000236980000000000000000000000000000394050000000000  3020120726   01          2                                                                                   3112080193678293800573900099                                                  N                     01321  0000000        000021
12057196081000164MINELE COMERCIO DE PARAFUSOS L                                        0000000023700298400000002047470 0000000085152929009022070000008513            201208162012072500000000054270000073900000000000073900000000000000000000000000000000050000000000  3020120816   01FS        1  R  GANGES  528   VL CARRAO                                                       3                         000000000000000                                     N                     00598  0000000        000022
12059876565000180ITALLUX INDUSTRIA E COMERCIO L                                        000000000010000000000000000000000000000085152921000000223041000003868         201209012012072400000000054430000180000000000000180000000000000000000000000000000000050000000000  3020120903   01FS        1                                                                                   3043922230411203000086821129                                                  N                     01321  0000000        000023
12061217188000119TELAS METALICAS TELMETAL LTDA                                         0000000034100000000000000000000000000000851529080000009000028715291 1 3       201208012012070400000000054120000010721000000000010721000000000000000000000000000000050000000000  3020120801   01FS        1                                                                                   3109000028710077099894600059                                                  N                     01321  0000000        000024
12061217188000119TELAS METALICAS TELMETAL LTDA                                         0000000034100000000000000000000000000000851529090000009000028725291 2 3       201208082012070400000000054190000010719000000000010719000000000000000000000000000000050000000000  3020120808   01FS        1                                                                                   3109000028728077099894600079                                                  N                     01321  0000000        000025
12061217188000119TELAS METALICAS TELMETAL LTDA                                         0000000034100000000000000000000000000000851529100000009000028735291 3 3       201208152012070400000000054260000010719000000000010719000000000000000000000000000000050000000000  3020120815   01FS        1                                                                                   3109000028736077099894600019                                                  N                     01321  0000000        000026
12061217188000119TELAS METALICAS TELMETAL LTDA                                         0000000034100000000000000000000000000000851529110000009000028745292 1 3       201208012012070400000000054120000055684000000000055684000000000000000000000000000000050000000000  3020120801   01FS        1                                                                                   3109000028744077099894600019                                                  N                     01321  0000000        000027
12061217188000119TELAS METALICAS TELMETAL LTDA                                         0000000034100000000000000000000000000000851529120000009000028755292 2 3       201208082012070400000000054190000055682000000000055682000000000000000000000000000000050000000000  3020120808   01FS        1                                                                                   3109000028751077099894600059                                                  N                     01321  0000000        000028
12061217188000119TELAS METALICAS TELMETAL LTDA                                         0000000034100000000000000000000000000000851529130000009000028765292 3 3       201208152012070400000000054260000055682000000000055682000000000000000000000000000000050000000000  3020120815   01FS        1                                                                                   3109000028769077099894600059                                                  N                     01321  0000000        000029
12061217188000119TELAS METALICAS TELMETAL LTDA                                         0000000034100000000000000000000000000000851529140000009000028775293 1 3       201208012012070400000000054120000172174000000000172174000000000000000000000000000000050000000000  3020120801   01FS        1                                                                                   3109000028777077099894600019                                                  N                     01321  0000000        000030
12061217188000119TELAS METALICAS TELMETAL LTDA                                         0000000034100000000000000000000000000000851529150000009000028785293 2 3       201208082012070400000000054190000172173000000000172173000000000000000000000000000000050000000000  3020120808   01FS        1                                                                                   3109000028785077099894600089                                                  N                     01321  0000000        000031
12061217188000119TELAS METALICAS TELMETAL LTDA                                         0000000034100000000000000000000000000000851529160000009000028795293 3 3       201208152012070400000000054260000172173000000000172173000000000000000000000000000000050000000000  3020120815   01FS        1                                                                                   3109000028793077099894600019                                                  N                     01321  0000000        000032
12061217188000119TELAS METALICAS TELMETAL LTDA                                         0000000034100000000000000000000000000000840313100000009000028775293 1 3       201208012012070400000000054120000172174000000000172174000000000000000000000000000000050000000000  3020120801   05          3                                                                                   3109000028775077073552000029                                                  N                     01321  0000000        000033
12061217188000119TELAS METALICAS TELMETAL LTDA                                         0000000034100000000000000000000000000000840313110000009000028785293 2 3       201208082012070400000000054190000172173000000000172173000000000000000000000000000000050000000000  3020120808   05          3                                                                                   3109000028783077073552000099                                                  N                     01321  0000000        000034
12061217188000119TELAS METALICAS TELMETAL LTDA                                         0000000034100000000000000000000000000000840313120000009000028715291 1 3       201208012012070400000000054120000010721000000000010721000000000000000000000000000000050000000000  3020120801   05          3                                                                                   3109000028718077073552000029                                                  N                     01321  0000000        000035
12061217188000119TELAS METALICAS TELMETAL LTDA                                         0000000034100000000000000000000000000000840313130000009000028725291 2 3       201208082012070400000000054190000010719000000000010719000000000000000000000000000000050000000000  3020120808   05          3                                                                                   3109000028726077073552000089                                                  N                     01321  0000000        000036
12061217188000119TELAS METALICAS TELMETAL LTDA                                         0000000034100000000000000000000000000000840313140000009000028735291 3 3       201208152012070400000000054260000010719000000000010719000000000000000000000000000000050000000000  3020120815   05          3                                                                                   3109000028734077073552000019                                                  N                     01321  0000000        000037
12061217188000119TELAS METALICAS TELMETAL LTDA                                         0000000034100000000000000000000000000000840313150000009000028745292 1 3       201208012012070400000000054120000055684000000000055684000000000000000000000000000000050000000000  3020120801   05          3                                                                                   3109000028742077073552000019                                                  N                     01321  0000000        000038
12061217188000119TELAS METALICAS TELMETAL LTDA                                         0000000034100000000000000000000000000000840313160000009000028755292 2 3       201208082012070400000000054190000055682000000000055682000000000000000000000000000000050000000000  3020120808   05          3                                                                                   3109000028759077073552000029                                                  N                     01321  0000000        000039
12061217188000119TELAS METALICAS TELMETAL LTDA                                         0000000034100000000000000000000000000000840313170000009000028765292 3 3       201208152012070400000000054260000055682000000000055682000000000000000000000000000000050000000000  3020120815   05          3                                                                                   3109000028767077073552000069                                                  N                     01321  0000000        000040
12061217188000119TELAS METALICAS TELMETAL LTDA                                         0000000034100000000000000000000000000000840313180000009000028795293 3 3       201208152012070400000000054260000172173000000000172173000000000000000000000000000000050000000000  3020120815   05          3                                                                                   3109000028791077073552000029                                                  N                     01321  0000000        000041
12061780615000172LEPOK INFORMATICA E PAPELARIA                                         00000000001000000000000000000000000000008515292600000034596500002114936       201208152012072400000000054260000051878000000000051878000000000000000000000000000000050000000000  3020120815   01FS        1                                                                                   3043923459653333000058133179                                                  N                     01321  0000000        000042
12066841552000130R V SEG PATRIMONIAL LTDA                                              00000000341000000000000000000000000000008515290700000090002172621726          201208102012071000000000054210000414206000000000414206000000000000000000000000000000050000000000  3020120810   01FS        1                                                                                   3109000217263001839407200039                                                  N                     01321  0000000        000043
12066841552000130R V SEG PATRIMONIAL LTDA                                              00000000341000000000000000000000000000008474521100000090002172621726          201208102012071000000000054210000414206000000000414206000000000000000000000000000000050000000000  3020120810   05          3                                                                                   3109000217266001835253400029                                                  N                     01321  0000000        000044
12069034668000156SODEXO PASS BRASIL SERV COM SA                                        0000000034100000000000000000000000000000851529170000009216525541200009206     201208222012072300000000054330000417750000000000417750000000000000000000000000000000050000000000  3020120822   01FS        1                                                                                   3109216525549293801455800089                                                  N                     01321  0000000        000045
12069034668000156SODEXO PASS BRASIL SERV COM SA                                        0000000034100000000000000000000000000000851529180000009216535501200009224     201208222012072300000000054330000420900000000000420900000000000000000000000000000000050000000000  3020120822   01FS        1                                                                                   3109216535506293801455800049                                                  N                     01321  0000000        000046
12092693118000160BRADESCO SAUDE S A                                                    0000000023700448000000001533991 00000000829780050050100702629130000000000     201207202012061800000000054000000645861000000000648357000000000000000000000000002496050000000000  3020120726   01          2                                                                                   3                         000000000000000                                     N                     00598  0000000        000047
900004800000000012528697                                                                                                                                                                                                                                                                                                                                                                                                                                                                00598  0000000        000048
