0000147602043799295000110ALTAMIRA INDUSTRIA METALURGICA LT       202000000019620121227060017             1                                                                                                                                                                                                                                                                                                                                                                                                    000001
12003489596000123BEND FLEX I COMERCIO LTDA                                             000000003410000000000000000000000000000088350832000000171879874608            201209122012082100000000054540000695250000000000840152000000000000000000000000144902050000000000  3020121227   01          2                                                                                   3191718798744157734445800069                                                  N                     01321  0000000        000002
12003489596000123BEND FLEX I COMERCIO LTDA                                             000000003410000000000000000000000000000088599899000000171434574613            201209172012081600000000054590000585000000000000701251000000000000000000000000116251050000000000  3020121227   01          2                                                                                   3191714345748157734445800019                                                  N                     01321  0000000        000003
12005151518000140BELENUS DO BRASIL LTDA                                                000000000330000000000000000000000000000089697934000000740000000R131115432     201212242012092500000000055570000096000000000000096951000000000000000000000000000951050000000000  3020121227   01          2                                                                                   3918381050000000435074010489                                                  N                     01321  0000000        000004
12005151518000140BELENUS DO BRASIL LTDA                                                000000000330000000000000000000000000000091026579000000290000000R132008222     201212222012102300000000055550000460800000000000468403000000000000000000000000007603050000000000  3020121227   01          2                                                                                   3918381050000000498629010499                                                  N                     01321  0000000        000005
12005151518000140BELENUS DO BRASIL LTDA                                                000000000330000000000000000000000000000089697937000000310000000R131165832     201212252012092600000000055580000094080000000000094700000000000000000000000000000620050000000000  3020121227   01          2                                                                                   3918381050000000445231010419                                                  N                     01321  0000000        000006
12005880850000145NEDERMAN BRASIL COM PROD EX LT                                        000000003410000000000000000000000000000086373178000000614350956002763 A       201209252012081400000000054670000289674000000000342684000000000000000000000000053010050000000000  3020121227   01          2                                                                                   3156143509568160829000100049                                                  N                     01321  0000000        000007
12006000195000156MBA MERCANTIL BRAS DE ACO LTDA                                        0000000034100000000000000000000000000000906662670000001671394410008920B03     201210142012071700000000054860000576584000000000660500000000000000000000000000083916050000000000  3020121227   01          2                                                                                   3191671394416064849251000039                                                  N                     01321  0000000        000008
12006000195000156MBA MERCANTIL BRAS DE ACO LTDA                                        0000000034100000000000000000000000000000887698090000001671394550008925B02     201209142012071700000000054560000719581000000000866741000000000000000000000000147160050000000000  3020121227   01          2                                                                                   3191671394556064849251000089                                                  N                     01321  0000000        000009
12006000195000156MBA MERCANTIL BRAS DE ACO LTDA                                        0000000034100000000000000000000000000000887698100000001671394560008926B02     201209142012071700000000054560000387716000000000467068000000000000000000000000079352050000000000  3020121227   01          2                                                                                   3191671394564064849251000019                                                  N                     01321  0000000        000010
12006000195000156MBA MERCANTIL BRAS DE ACO LTDA                                        0000000034100000000000000000000000000000889578520000001671394540008920B02     201209162012071700000000054580000576585000000000692253000000000000000000000000115668050000000000  3020121227   01          2                                                                                   3191671394549064849251000099                                                  N                     01321  0000000        000011
12006000195000156MBA MERCANTIL BRAS DE ACO LTDA                                        0000000034100000000000000000000000000000904173180000001671394430008926B03     201210122012071700000000054840000387716000000000445704000000000000000000000000057988050000000000  3020121227   01          2                                                                                   3191671394432064849251000079                                                  N                     01321  0000000        000012
12006000195000156MBA MERCANTIL BRAS DE ACO LTDA                                        0000000034100000000000000000000000000000885998980000001667238420008870B02     201209112012071600000000054530000839952000000001016716000000000000000000000000176764050000000000  3020121227   01          2                                                                                   3191667238429064849251000039                                                  N                     01321  0000000        000013
12006000195000156M B A MERCANTIL BRASILEIRA DE                                         0000000023700118P00000002130599 00000000865388240020222900000450009203B03     201212122012081500000000055450000344980000000000353605000000000000000000000000008625050000000000  3020121227   01          2  RUA JUNO  533                                                                    300000000000000000001500  000000000000000                                     N                     00598  0000000        000014
12006000195000156M B A MERCANTIL BRASILEIRA DE                                         0000000023700118P00000002130599 00000000865388270020222900000480009204B03     201212132012081500000000055460000127291000000000130259000000000000000000000000002968050000000000  3020121227   01          2  RUA JUNO  533                                                                    300000000000000000001500  000000000000000                                     N                     00598  0000000        000015
12006000195000156M B A MERCANTIL BRASILEIRA DE                                         0000000023700118P00000002130599 00000000865388300020222900000510009205B03     201212142012081500000000055470000348964000000000356530000000000000000000000000007566050000000000  3020121227   01          2  RUA JUNO  533                                                                    300000000000000000001500  000000000000000                                     N                     00598  0000000        000016
12006000195000156M B A MERCANTIL BRASILEIRA DE                                         0000000023700118P00000002130599 00000000865388330020222900000540009206B03     201212152012081500000000055480000527560000000000538108000000000000000000000000010548050000000000  3020121227   01          2  RUA JUNO  533                                                                    300000000000000000001500  000000000000000                                     N                     00598  0000000        000017
12006000195000156M B A MERCANTIL BRASILEIRA DE                                         0000000023700118P00000002130599 00000000868592700020223600000030009229B03     201212132012081600000000055460000253414000000000259322000000000000000000000000005908050000000000  3020121227   01          2  RUA JUNO  533                                                                    300000000000000000001500  000000000000000                                     N                     00598  0000000        000018
12006000195000156MBA MERCANTIL BRAS DE ACO LTDA                                        0000000034100000000000000000000000000000900522790000002479124230009815B01     201212112012100800000000055440000783136000000000783136000000000000000000000000000000050000000000  3020121211   05          3                                                                                   3112479124235064899001800049                                                  N                     01321  0000000        000019
12006000195000156MBA MERCANTIL BRAS DE ACO LTDA                                        0000000034100000000000000000000000000000900522840000002479124370009839B01     201212122012100900000000055450001403064000000001403064000000000000000000000000000000050000000000  3020121212   05          3                                                                                   3112479124375064899001800069                                                  N                     01321  0000000        000020
12006000195000156MBA MERCANTIL BRAS DE ACO LTDA                                        0000000034100000000000000000000000000000900522870000002479124320009825B01     201212122012100900000000055450000410067000000000410067000000000000000000000000000000050000000000  3020121212   05          3                                                                                   3112479124326064899001800069                                                  N                     01321  0000000        000021
12006000195000156MBA MERCANTIL BRAS DE ACO LTDA                                        0000000034100000000000000000000000000000884432560000002398047680009506B02     201212122012091100000000055450000907645000000000907645000000000000000000000000000000050000000000  3020121212   05          3                                                                                   3112398047681064899001800019                                                  N                     01321  0000000        000022
12006000195000156MBA MERCANTIL BRAS DE ACO LTDA                                        0000000034100000000000000000000000000000884432600000002398047620009492B02     201212112012091000000000055440000529375000000000529375000000000000000000000000000000050000000000  3020121211   05          3                                                                                   3112398047624064899001800079                                                  N                     01321  0000000        000023
12008272923000104P SANTOS ESQUADRARIAS METAL ME                                        0000000034100000000000000000000000000000915734100000006159682651954           201212052012110700000000055380000408138000000000440237000000000000000000000000032099050000000000  3020121227   01          2                                                                                   3156159682654160141951600029                                                  N                     01321  0000000        000024
12008594182000188ACOS G3 COMERCIO E BENEFICIAME                                        0000000023703137200000000091332 00000000890457100090227100000271155        003201212222012092700000000055550000152347000000000152347000000000000000000000000000000050000000000  3020121224   06          3  RUA GANGES  528                                                                  3                         000000000000000                                     N                     00598  0000000        000025
12009338857000190FERNANDO  NAGAO  CARDONE  ALVA                                        000000000330000000000000000000000000000089697936000000800000000ALTA 10 2012   201210202012092500000000054920000134632000000000160218000000000000000000000000025990050000000000  3020121219   05          3                                                                                   3947901700000051050080010129                                                  N                     01321  0000000        000026
12009338857000190FERNANDO  NAGAO  CARDONE  ALVA                                        000000000330000000000000000000000000000091653176000000300000000ALTA 11 2012   201211202012103000000000055230000134632000000000150926000000000000000000000000016294050000000000  3020121227   01          2                                                                                   3947901700000051051630010119                                                  N                     01321  0000000        000027
12035820448000136WHITE MARTINS GASES INDUSTRIAI                                        0000000023700026400000003937925 0000000094625471009023610001040425318 001     201301182012122200000000055820000028403000000000028403000000000000000000000000000000050000000000  3020130118   01FS        1  RUA GANGES  528                                                                  3                         000000000000000                                     N                     00598  0000000        000028
12042956441000101SOLUCOES ACO USIMINAS                                                 0000000034100000000000000000000000000000850740460000002233586800017127201     201208202012072000000000054310000137881000000000171001000000000000000000000000033396050000000000  3020121218   05          3                                                                                   3112233586802293807258000019                                                  N                     01321  0000000        000029
12042956441000101SOLUCOES ACO USIMINAS                                                 0000000034100000000000000000000000000000853154840000002246247030017196702     201209202012072500000000054620000234841000000000280901000000000000000000000000046060050000000000  3020121227   01          2                                                                                   3112246247038293807258000099                                                  N                     01321  0000000        000030
12042956441000101SOLUCOES ACO USIMINAS                                                 0000000034100000000000000000000000000000853154850000002246247040017197302     201209202012072500000000054620000970103000000001160223000000000000000000000000190120050000000000  3020121227   01          2                                                                                   3112246247046293807258000019                                                  N                     01321  0000000        000031
12042956441000101SOLUCOES ACO USIMINAS                                                 0000000034100000000000000000000000000000855028690000002254329380017212902     201209212012072600000000054630000140098000000000167258000000000000000000000000027160050000000000  3020121227   01          2                                                                                   3112254329389293807258000019                                                  N                     01321  0000000        000032
12042956441000101SOLUCOES ACO USIMINAS                                                 0000000034100000000000000000000000000000855028700000002254329390017213002     201209212012072600000000054630000140602000000000167859000000000000000000000000027257050000000000  3020121227   01          2                                                                                   3112254329397293807258000089                                                  N                     01321  0000000        000033
12042956441000101SOLUCOES ACO USIMINAS                                                 0000000034100000000000000000000000000000855028770000002254329400017220502     201209212012072700000000054630000981022000000001171336000000000000000000000000190314050000000000  3020121227   01          2                                                                                   3112254329405293807258000099                                                  N                     01321  0000000        000034
12042956441000101SOLUCOES ACO USIMINAS                                                 0000000034100000000000000000000000000000859590620000002274469790017353702     201209282012080300000000054700000081053000000000095633000000000000000000000000014580050000000000  3020121227   01          2                                                                                   3112274469793293807258000069                                                  N                     01321  0000000        000035
12042956441000101SOLUCOES ACO USIMINAS                                                 0000000034100000000000000000000000000000846595700000002210880280016980502     201209102012071200000000054520000156071000000000189767000000000000000000000000033696050000000000  3020121227   01          2                                                                                   3112210880285293807258000039                                                  N                     01321  0000000        000036
12042956441000101SOLUCOES ACO USIMINAS                                                 0000000034100000000000000000000000000000846595710000002210880290016980602     201209102012071200000000054520000426094000000000518110000000000000000000000000092016050000000000  3020121227   01          2                                                                                   3112210880293293807258000019                                                  N                     01321  0000000        000037
12042956441000101SOLUCOES ACO USIMINAS                                                 0000000034100000000000000000000000000000847452070000002216130350005922202     201209102012071600000000054520000172071000000000209223000000000000000000000000037152050000000000  3020121227   01          2                                                                                   3112216130354293807258000049                                                  N                     01321  0000000        000038
12042956441000101SOLUCOES ACO USIMINAS                                                 0000000034100000000000000000000000000000847452100000002216130340017012402     201209102012071500000000054520000147428000000000179288000000000000000000000000031860050000000000  3020121227   01          2                                                                                   3112216130347293807258000059                                                  N                     01321  0000000        000039
12042956441000101SOLUCOES ACO USIMINAS                                                 0000000034100000000000000000000000000000848180700000002220192900017041002     201209112012071700000000054530000155433000000000188710000000000000000000000000033277050000000000  3020121227   01          2                                                                                   3112220192903293807258000029                                                  N                     01321  0000000        000040
12042956441000101SOLUCOES ACO USIMINAS                                                 0000000034100000000000000000000000000000848180710000002220192910017041202     201209112012071700000000054530000205421000000000249398000000000000000000000000043977050000000000  3020121227   01          2                                                                                   3112220192911293807258000019                                                  N                     01321  0000000        000041
12042956441000101SOLUCOES ACO USIMINAS                                                 0000000034100000000000000000000000000000850740470000002233586810017101002     201209142012071900000000054560000732575000000000884935000000000000000000000000152360050000000000  3020121227   01          2                                                                                   3112233586810293807258000019                                                  N                     01321  0000000        000042
12042956441000101SOLUCOES ACO USIMINAS                                                 0000000034100000000000000000000000000000850740480000002233586820017101202     201209142012071900000000054560000144634000000000174690000000000000000000000000030056050000000000  3020121227   01          2                                                                                   3112233586828293807258000029                                                  N                     01321  0000000        000043
12047190731000100DE CASTRO LOUR ENG IND LTDA                                           00000000341000000000000000000000000000009041732900000025008464603027216 0     201212052012101000000000055380000225377000000000235123000000000000000000000000009746050000000000  3020121227   01          2                                                                                   3112500846467036884500400029                                                  N                     01321  0000000        000044
12047190731000100DE CASTRO LOUR ENG IND LTDA                                           00000000341000000000000000000000000000009041733100000025008464903027234 0     201212062012101100000000055390001029597000000001072122000000000000000000000000042525050000000000  3020121227   01          2                                                                                   3112500846491036884500400029                                                  N                     01321  0000000        000045
12047190731000100DE CASTRO LOUR ENG IND LTDA                                           00000000341000000000000000000000000000008782051000000023399953703026612 0     201212182012082100000000055510001111822000000001131505000000000000000000000000019683050000000000  3020121227   01          2                                                                                   3112339995378036884500400049                                                  N                     01321  0000000        000046
12047190731000100DE CASTRO LOUR ENG IND LTDA                                           00000000341000000000000000000000000000008782051100000023399954303026614 0     201212182012082100000000055510001047933000000001066482000000000000000000000000018549050000000000  3020121227   01          2                                                                                   3112339995436036884500400029                                                  N                     01321  0000000        000047
12047190731000100DE CASTRO LOUR ENG IND LTDA                                           00000000341000000000000000000000000000008782051200000023399953803026613 0     201209182012082100000000054600001107989000000001325889000000000000000000000000217900050000000000  3020121227   01          2                                                                                   3112339995386036884500400039                                                  N                     01321  0000000        000048
12047190731000100DE CASTRO LOUR ENG IND LTDA                                           00000000341000000000000000000000000000008782051400000023399954003026613 0     201212182012082100000000055510001108322000000001127942000000000000000000000000019620050000000000  3020121227   01          2                                                                                   3112339995402036884500400069                                                  N                     01321  0000000        000049
12047190731000100DE CASTRO LOUR ENG IND LTDA                                           00000000341000000000000000000000000000008782051600000023399954103026614 0     201209182012082100000000054600001047621000000001253621000000000000000000000000206000050000000000  3020121227   01          2                                                                                   3112339995410036884500400039                                                  N                     01321  0000000        000050
12047190731000100DE CASTRO LOUR ENG IND LTDA                                           00000000341000000000000000000000000000008996247900000024766209203027184 0     201211302012100500000000055330001153047000000001214283000000000000000000000000061236050000000000  3020121227   01          2                                                                                   3112476620920036884500400089                                                  N                     01321  0000000        000051
12047190731000100DE CASTRO LOUR ENG IND LTDA                                           00000000341000000000000000000000000000009041732300000025008465203027256 0     201212112012101600000000055440001108602000000001143482000000000000000000000000034880050000000000  3020121227   01          2                                                                                   3112500846525036884500400019                                                  N                     01321  0000000        000052
12047190731000100DE CASTRO LOUR ENG IND LTDA                                           00000000341000000000000000000000000000009041732500000025008465503027257 0     201212132012101600000000055460000751900000000000772606000000000000000000000000020706050000000000  3020121227   01          2                                                                                   3112500846558036884500400029                                                  N                     01321  0000000        000053
12047190731000100DE CASTRO LOUR ENG IND LTDA                                           00000000341000000000000000000000000000008782051900000023399955803026636 0     201212192012082200000000055520000941086000000000955894000000000000000000000000014808050000000000  3020121227   01          2                                                                                   3112339995584036884500400069                                                  N                     01321  0000000        000054
12047190731000100DE CASTRO LOUR ENG IND LTDA                                           00000000341000000000000000000000000000008782052000000023399955303026632 0     201209192012082200000000054610000952073000000001137401000000000000000000000000185328050000000000  3020121227   01          2                                                                                   3112339995535036884500400019                                                  N                     01321  0000000        000055
12047190731000100DE CASTRO LOUR ENG IND LTDA                                           00000000341000000000000000000000000000008782052100000023399955903026643 0     201209202012082300000000054620000867039000000001034129000000000000000000000000167090050000000000  3020121227   01          2                                                                                   3112339995592036884500400049                                                  N                     01321  0000000        000056
12047190731000100DE CASTRO LOUR ENG IND LTDA                                           00000000341000000000000000000000000000008782052300000023399955503026632 0     201212192012082200000000055520000952358000000000967342000000000000000000000000014984050000000000  3020121227   01          2                                                                                   3112339995550036884500400039                                                  N                     01321  0000000        000057
12047190731000100DE CASTRO LOUR ENG IND LTDA                                           00000000341000000000000000000000000000008782052500000023399955603026636 0     201209192012082200000000054610000940804000000001123954000000000000000000000000183150050000000000  3020121227   01          2                                                                                   3112339995568036884500400049                                                  N                     01321  0000000        000058
12047190731000100DE CASTRO LOUR ENG IND LTDA                                           00000000341000000000000000000000000000008782052700000023399956203026648 0     201209202012082300000000054620000976053000000001164213000000000000000000000000188160050000000000  3020121227   01          2                                                                                   3112339995626036884500400029                                                  N                     01321  0000000        000059
12047190731000100DE CASTRO LOUR ENG IND LTDA                                           00000000341000000000000000000000000000008782052900000023399956403026648 0     201212202012082300000000055530000976344000000000989784000000000000000000000000013440050000000000  3020121227   01          2                                                                                   3112339995642036884500400059                                                  N                     01321  0000000        000060
12047190731000100DE CASTRO LOUR ENG IND LTDA                                           00000000341000000000000000000000000000008782053300000023399956103026643 0     201212202012082300000000055530000867297000000000879239000000000000000000000000011942050000000000  3020121227   01          2                                                                                   3112339995618036884500400059                                                  N                     01321  0000000        000061
12047190731000100DE CASTRO LOUR ENG IND LTDA                                           00000000341000000000000000000000000000008782059200000023602715103026744 0     201212262012082900000000055590000146636000000000146924000000000000000000000000000288050000000000  3020121227   01          2                                                                                   3112360271517036884500400019                                                  N                     01321  0000000        000062
12047190731000100DE CASTRO LOUR ENG IND LTDA                                           00000000341000000000000000000000000000008782059600000023602714803026734 0     201212252012082800000000055580000998134000000001002060000000000000000000000000003926050000000000  3020121227   01          2                                                                                   3112360271483036884500400059                                                  N                     01321  0000000        000063
12047190731000100DE CASTRO LOUR ENG IND LTDA                                           00000000341000000000000000000000000000008782059700000023602715403026745 0     201212262012082900000000055590000903448000000000905225000000000000000000000000001777050000000000  3020121227   01          2                                                                                   3112360271541036884500400019                                                  N                     01321  0000000        000064
12047190731000100DE CASTRO LOUR ENG IND LTDA                                           00000000341000000000000000000000000000008782059900000023602715003026744 0     201211292012082900000000055320000146594000000000154658000000000000000000000000008064050000000000  3020121227   01          2                                                                                   3112360271509036884500400069                                                  N                     01321  0000000        000065
12047190731000100DE CASTRO LOUREIRO ENGENHARIA                                         00000000033000000000000000000000000000009102659200000054000000003027425 0     201212252012102900000000055580001192683000000001216537000000000000000000000000023854050000000000  3020121227   01          2                                                                                   3948430370000009555854020339                                                  N                     01321  0000000        000066
12047190731000100DE CASTRO LOUR ENG IND LTDA                                           00000000341000000000000000000000000000008782050900000023399953503026612 0     201209182012082100000000054600001111489000000001330089000000000000000000000000218600050000000000  3020121227   01          2                                                                                   3112339995352036884500400019                                                  N                     01321  0000000        000067
12048775225000146SEIKI IND COM E CONFECCOES LTD                                        000000003410000000000000000000000000000089337376000000244697151014914001      201210232012092500000000054950000052000000000000057070000000000000000000000000005070050000000000  3020121227   01          2                                                                                   3112446971510017444824100089                                                  N                     01321  0000000        000068
12051180370000199IGUAFER FERRO E ACO LTDA                                              0000000034100000000000000000000000000000852309100000002239389789443 B         201209022012071800000000054440000168275000000000200755000000000000000000000000032480050000000000  3020121227   01          2                                                                                   3112239389789077149484600089                                                  N                     01321  0000000        000069
12051180370000199IGUAFER FERRO E ACO LTDA                                              0000000034100000000000000000000000000000852309110000002239389799443 C         201209122012071800000000054540000168275000000000197955000000000000000000000000029680050000000000  3020121227   01          2                                                                                   3112239389797077149484600089                                                  N                     01321  0000000        000070
12054382510000108SETENTA IND E COM DE MADEIRAS                                         0000000034100000000000000000000000000000860403430000002277814474462 A         201209042012080700000000054460000191200000000000234064000000000000000000000000042864050000000000  3020121227   01          2                                                                                   3112277814474057049175300069                                                  N                     01321  0000000        000071
12056993512000150CYKLOP DO BRASIL EMBALAGENS SA                                        0000000034100000000000000000000000000000874070500000002362586810134932        201210012012090300000000054730000083607000000000110316000000000000000000000000026709050000000000  3020121227   01          2                                                                                   3112362586813025700015800019                                                  N                     01321  0000000        000072
12062510367000102ITANHAEM TRANSP DE MAQUINAS LT                                        000000003410000000000000000000000000000087407049000000236463199667            201209202012090400000000054620000248220000000000345534000000000000000000000000097314050000000000  3020121227   01          2                                                                                   3112364631997005770252400049                                                  N                     01321  0000000        000073
12062539994000176LEALFER INDUSTRIA E COMERCIO D                                        0000000003300000000000000000000000000000933583070000005600000000005892401     201212242012112600000000055570000764925000000000768826000000000000000000000000003901050000000000  3020121227   01          2                                                                                   3915298380000000300756010479                                                  N                     01321  0000000        000074
12064952757000168WALMAC COM DE PROD QUIMICOS LT                                        0000000034100000000000000000000000000000860403450000002275821700020148        201210052012080300000000054770000219267000000000255040000000000000000000000000035773050000000000  3020121227   01          2                                                                                   3112275821703064807961400029                                                  N                     01321  0000000        000075
12066841552000130R V SEG PATRIMONIAL LTDA                                              00000000341000000000000000000000000000008852483200000090002192721927          201209102012081000000000054520000483241000000000500629000000000000000000000000017388050000000000  3020121227   01          2                                                                                   3109000219270001835253400099                                                  N                     01321  0000000        000076
12069284248000128ISOCOAT TINTAS E VERNIZES LTDA                                        0000000034100000000000000000000000000000900522880000002477686990056631        201212242012101000000000055570000318064000000000320608000000000000000000000000002544050000000000  3020121227   01          2                                                                                   3112477686995077430121200089                                                  N                     01321  0000000        000077
12069284248000128ISOCOAT TINTAS E VERNIZES LTDA                                        0000000034100000000000000000000000000000908309620000002521130190057192        201212242012102400000000055570000317968000000000320512000000000000000000000000002544050000000000  3020121227   01          2                                                                                   3112521130198077430121200099                                                  N                     01321  0000000        000078
12069284248000128ISOCOAT TINTAS E VERNIZES LTDA                                        0000000034100000000000000000000000000000841061040000002182507930052085        201209172012070200000000054590000236130000000000299760000000000000000000000000063630050000000000  3020121227   01          2                                                                                   3112182507932077430121200019                                                  N                     01321  0000000        000079
900008000000000046066270                                                                                                                                                                                                                                                                                                                                                                                                                                                                01321  0000000        000080
