0000147602043799295000110ALTAMIRA INDUSTRIA METALURGICA LT       202000000013520120927055858             1                                                                                                                                                                                                                                                                                                                                                                                                    000001
12001515122000183SOFT BRASIL AUTOMACAO LTDA                                            000000003410000000000000000000000000000087820566000000900001635DNF 1465       201209252012082800000000054670000050071000000000050137000000000000000000000000000066050000000000  3020120927   01          2                                                                                   3109000016358018307515900049                                                  N                     01321  0000000        000002
12001784706000154TRANSPORTES WARTHA LTDA                                               0000000023701775200000000260010 0000000088873314009022400000331SAO2612751     201209172012082700000000054590000430000000000000441610000000000000000000000000011610050000000000  3020120927   01          2  R  GANGES  528                                                                   3                         000000000000000                                     N                     00598  0000000        000003
12001895314000162COLETA INDUSTRIAL FIMAVAN LTDA                                        0000000034100000000000000000000000000000866992070000009002335349439           201208272012081700000000054380000123695000000000136368000000000000000000000000012673050000000000  3020120927   01          2                                                                                   3109002335346144604097200019                                                  N                     01321  0000000        000004
12001951865000104FOUR FACTORING FOMENTO MERCANT                                        000000000010000000000000000000000000000088012243000000987637000166            201209142012091000000000054560000310000000000000315165000000000000000000000000006198050000000000  3020120919   05          3                                                                                   3044049876373222001052451139                                                  N                     01321  0000000        000005
12002460454000170AUT SERVICE COMERCIO E SERVICO                                        0000000023702591700000000007692 000000008515292000901322060028234532 2        201209172012072400000000054590000238750000000000255467000000000000000000000000016717050000000000  3020120927   01          2  RUA JUNO  533                                                                    3                         000000000000000                                     N                     00598  0000000        000006
12002503185000182ANDAIMES MAQUINAS BIG LTDA EPP                                        0000000034100000000000000000000000000000874070480000002313590765101           201209142012082000000000054560000016500000000000016973000000000000000000000000000473050000000000  3020120927   01          2                                                                                   3112313590765650303800900019                                                  N                     01321  0000000        000007
12002503185000182ANDAIMES MAQUINAS BIG LTDA EPP                                        000000003410000000000000000000000000000086282613000000228719913011660         201208302012081000000000054410000012000000000000012464000000000000000000000000000464050000000000  3020120927   01          2                                                                                   3112287199130650303800900039                                                  N                     01321  0000000        000008
12002503185000182ANDAIMES E MAQUINAS BIG LTDA                                          000000003410000000000000000000000000000087820531000000233954448011791         201209212012082700000000054630000026000000000000026622000000000000000000000000000622050000000000  3020120927   01          2                                                                                   3112339544481925303435000019                                                  N                     01321  0000000        000009
12003489596000123BEND FLEX I COMERCIO LTDA                                             000000003410000000000000000000000000000088350832000000171879874608            201209122012082100000000054540000695250000000000715755000000000000000000000000020505050000000000  3020120927   01          2                                                                                   3191718798744157734445800069                                                  N                     01321  0000000        000010
12003489596000123BEND FLEX I COMERCIO LTDA                                             000000003410000000000000000000000000000088599899000000171434574613            201209172012081600000000054590000585000000000000596510000000000000000000000000011510050000000000  3020120927   01          2                                                                                   3191714345748157734445800019                                                  N                     01321  0000000        000011
12003489596000123BEND FLEX I COMERCIO LTDA                                             000000003410000000000000000000000000000088957854000000172413968615            201209212012082300000000054630000582750000000000589626000000000000000000000000006876050000000000  3020120927   01FS        1                                                                                   3191724139685157734445800049                                                  N                     01321  0000000        000012
12003498897000202TELECOMUNICACOES DE SAO PAULO                                         0000000023702372800000000360082 0000000086538834019066000865672V32022406      201209012012081600000000054430000337187000000000337187000000000000000000000000000000050000000000  3020120903   06          3  R GANGES 528                                                                     3                         000000000000000                                     N                     00598  0000000        000013
12004676708000118M H F SISTEMAS S C LTDA                                               0000000034100000000000000000000000000000889578460000002429293140099049010     201210052012092500000000054770000013600000000000013600000000000000000000000000000000050000000000  3020121005   01FS        1                                                                                   3112429293148013924573200019                                                  N                     01321  0000000        000014
12005044228000105TRIARC COM S METAIS USINADOS                                          000000003410000000000000000000000000000088957857000000797269990296 S          201210172012092600000000054890000011000000000000011000000000000000000000000000000000050000000000  3020121017   01FS        1                                                                                   3157972699900076157868100039                                                  N                     01321  0000000        000015
12005044228000105TRIARC COM S METAIS USINADOS                                          000000003410000000000000000000000000000088957858000000797270197780            201210172012092600000000054890000020300000000000020300000000000000000000000000000000050000000000  3020121017   01FS        1                                                                                   3157972701979076157868100069                                                  N                     01321  0000000        000016
12005151518000140BELENUS DO BRASIL LTDA                                                000000000010000000000000000000000000000087407047000000750518000R130170512     201209262012090400000000054680000249600000000000250424000000000000000000000000000824050000000000  3020120927   01          2                                                                                   3000000123933844037505183129                                                  N                     01321  0000000        000017
12005880850000145NEDERMAN BRASIL COM PROD EX LT                                        000000003410000000000000000000000000000086373178000000614350956002763 A       201209252012081400000000054670000289674000000000290814000000000000000000000000001140050000000000  3020120927   01          2                                                                                   3156143509568160829000100049                                                  N                     01321  0000000        000018
12006000195000156MBA MERCANTIL BRAS DE ACO LTDA                                        0000000034100000000000000000000000000000885998980000001667238420008870B02     201209112012071600000000054530000839952000000000866384000000000000000000000000026432050000000000  3020120927   01          2                                                                                   3191667238429064849251000039                                                  N                     01321  0000000        000019
12006000195000156MBA MERCANTIL BRAS DE ACO LTDA                                        0000000034100000000000000000000000000000886866570000001667238410008874B02     201209132012071600000000054550000802826000000000824932000000000000000000000000022106050000000000  3020120927   01          2                                                                                   3191667238411064849251000049                                                  N                     01321  0000000        000020
12006000195000156M B A MERCANTIL BRASILEIRA DE                                         0000000000100000000000000000000000000000855028860000007952870000009006B02     201209252012073000000000054670000235480000000000236264000000000000000000000000000784050000000000  3020120927   01          2                                                                                   3043937952873333000105251189                                                  N                     01321  0000000        000021
12006000195000156M B A MERCANTIL BRASILEIRA DE                                         0000000000100000000000000000000000000000855028900000007952840000009005B02     201209242012073000000000054660000202838000000000203852000000000000000000000000001014050000000000  3020120927   01          2                                                                                   3043937952843333000105251189                                                  N                     01321  0000000        000022
12006000195000156M B A MERCANTIL BRASILEIRA DE                                         0000000000100000000000000000000000000000855028930000007952900000009007B02     201209262012073000000000054680000428087000000000428800000000000000000000000000000713050000000000  3020120927   01          2                                                                                   3043937952903333000105251119                                                  N                     01321  0000000        000023
12006000195000156MBA MERCL BRASILEIRA ACO LTDA                                         0000000042200000000000000000000000000000859590590000000000000000009051B02     201209262012080300000000054680000180457000000000180757000000000000000000000000000300050000000000  3020120927   01          2                                                                                   3701600007451936910173842159                                                  N                     01321  0000000        000024
12006000195000156MBA MERCANTIL BRAS DE ACO LTDA                                        0000000034100000000000000000000000000000887698080000001667238400008876B02     201209142012071600000000054560000810321000000000831043000000000000000000000000020722050000000000  3020120927   01          2                                                                                   3191667238403064849251000059                                                  N                     01321  0000000        000025
12006000195000156MBA MERCANTIL BRAS DE ACO LTDA                                        0000000034100000000000000000000000000000887698090000001671394550008925B02     201209142012071700000000054560000719581000000000737976000000000000000000000000018395050000000000  3020120927   01          2                                                                                   3191671394556064849251000089                                                  N                     01321  0000000        000026
12006000195000156MBA MERCANTIL BRAS DE ACO LTDA                                        0000000034100000000000000000000000000000887698100000001671394560008926B02     201209142012071700000000054560000387716000000000397635000000000000000000000000009919050000000000  3020120927   01          2                                                                                   3191671394564064849251000019                                                  N                     01321  0000000        000027
12006000195000156M B A MERCANTIL BRASILEIRA DE                                         0000000023700118P00000002128292 00000000889578590090220600000040008949B02     201209192012072300000000054610000194693000000000194693000000000000000000000000000000050000000000  3020120927   01FS        1  RUA JUNO  533                                                                    3                         000000000000000                                     N                     00598  0000000        000028
12006000195000156MBA MERCANTIL BRAS DE ACO LTDA                                        0000000034100000000000000000000000000000889578520000001671394540008920B02     201209162012071700000000054580000576585000000000589059000000000000000000000000012474050000000000  3020120927   01FS        1                                                                                   3191671394549064849251000099                                                  N                     01321  0000000        000029
12006000195000156M B A MERCANTIL BRASILEIRA DE                                         0000000000100000000000000000000000000000831387060000007752280000008616B03     201209132012062000000000054550000572227000000000577951000000000000000000000000006678050000000000  3020120919   05          3                                                                                   3043837752283333000105251199                                                  N                     01321  0000000        000030
12006000195000156M B A MERCANTIL BRASILEIRA DE                                         0000000000100000000000000000000000000000834820220000002571540000008653B03     201209132012062600000000054550000276788000000000279554000000000000000000000000003227050000000000  3020120919   05          3                                                                                   3043852571543333000105251119                                                  N                     01321  0000000        000031
12006000195000156MBA MERCANTIL BRAS DE ACO LTDA                                        0000000034100000000000000000000000000000850740610000008671394540008920B02     201209162012072000000000054580000576585000000000576585000000000000000000000000000000050000000000  3020120917   05          3                                                                                   3458671394542064849251000019                                                  N                     01321  0000000        000032
12007175725000160WEG EQUIPAMENTOS ELETRICOS SA                                         0000000023702727800000000196800 00000000832180610090217400004980095359902     201209202012052300000000054620000272787000000000275328000000000000000000000000002541050000000000  3020120927   01          2  R JUNO  533                                                                      3                         000000000000000                                     N                     00598  0000000        000033
12008508119000181DINARI FOMENTO MERCANTIL LTDA                                         0000000023702499600000000178306 0000000086282616002022260000004206 B          201209242012081000000000054660000170000000000000176630000000000000000000000000006630050000000000  3020120927   01          2  RUA JUNO  533 VL N MANCHESTER SAO PAULO PANKRO LOGISTICA E TRANSPORTES LTDA EPP  300000000000000000141500  002269980000158                                     N                     00598  0000000        000034
12008508119000181DINARI FOMENTO MERCANTIL LTDA                                         0000000023702499600000000178306 0000000086907103002022370000018224            201209212012082200000000054630000220000000000000230560000000000000000000000000010560050000000000  3020120927   01          2  RUA JUNO  533 VL N MANCHESTER SAO PAULO PANKRO LOGISTICA E TRANSPORTES LTDA EPP  3                         002269980000158                                     N                     00598  0000000        000035
12008848231000161ATUAL CARGAS TRANSPORTES LTDA                                         0000000000100000000000000000000000000000881032650000000133300000001606166     201209252012091100000000054670000105328000000000105960000000000000000000000000000632050000000000  3020120927   01          2                                                                                   3000000159433800000133301799                                                  N                     01321  0000000        000036
12009043000000143GERSON D DA SILVA SEGURANCA DO                                        000000003990000000000000000000000000000086762214000000000000000347            201209152012082100000000054570000071586000000000071586000000000000000000000000000000050000000000  3020120917   05          3                                                                                   3304770028260477000087000199                                                  N                     01321  0000000        000037
12009338857000190FERNANDO  NAGAO  CARDONE  ALVA                                        000000000330000000000000000000000000000087820609000000360000000ALTA 09 2012   201209202012083000000000054620000134632000000000138806000000000000000000000000004174050000000000  3020120927   01          2                                                                                   3947901700000051049236010119                                                  N                     01321  0000000        000038
12009419898000101LUSITANO INDUSTRIA C E P LTDA                                         00000000341000000000000000000000000000008653882000000090000757101 10137 2     201209192012081500000000054610000035135000000000036071000000000000000000000000000936050000000000  3020120927   01          2                                                                                   3109000075716001160072300049                                                  N                     01321  0000000        000039
12009441975000120SPEEDY CRED FOMENTO MERCANTIL                                         0000000023700094900000000990744 00000000869071000020132236074912868 AA        201209182012082300000000054600000064000000000000067456000000000000000000000000003456050000000000  3020120927   01          2  RUA TAMAINDE 1410                       MACKVEN MAQUINAS INDUSTRIAIS LTDA EPP    3                         005441222000163                                     N                     00598  0000000        000040
12011202309000180FIEL TOOLS DISTRIBUIDORA DE MA                                        0000000023702087700000000000116 0000000088443276009000020190021009002 1       201209112012081400000000054530000041000000000000043583000000000000000000000000002583050000000000  3020120927   01          2  R TAMAINDE  1 410   RUA GANGES  520 E 52                                         3                         000000000000000                                     N                     00598  0000000        000041
12012006058000121WEG TINTAS LTDA                                                       0000000023702727800000000001309 00000000841061130090218800000850014990203     201209182012070500000000054600000306662000000000310334000000000000000000000000003672050000000000  3020120927   01          2  R JUNO  533                                                                      3                         000000000000000                                     N                     00598  0000000        000042
12012006058000121WEG TINTAS LTDA                                                       0000000023702727800000000001309 00000000842436840090219200000860015068803     201209222012070900000000054640000306662000000000308702000000000000000000000000002040050000000000  3020120927   01          2  R JUNO  533                                                                      3                         000000000000000                                     N                     00598  0000000        000043
12012006058000121WEG TINTAS LTDA                                                       0000000023702727800000000001309 00000000854049540090221200001000015513001     201209102012072700000000054520000459854000000000470275000000000000000000000000010421050000000000  3020120927   01          2  R JUNO  533                                                                      3                         000000000000000                                     N                     00598  0000000        000044
12012006058000121WEG TINTAS LTDA                                                       0000000023702727800000000001309 00000000854049550090221200001010015513002     201209252012072700000000054670000459854000000000461080000000000000000000000000001226050000000000  3020120927   01          2  R JUNO  533                                                                      3                         000000000000000                                     N                     00598  0000000        000045
12012006058000121WEG TINTAS LTDA                                                       0000000023702727800000000001309 00000000856071250090221400000820015587301     201209142012073100000000054560000459854000000000467823000000000000000000000000007969050000000000  3020120927   01          2  R JUNO  533                                                                      3                         000000000000000                                     N                     00598  0000000        000046
12012006058000121WEG TINTAS LTDA                                                       0000000023702727800000000001309 00000000861207260090222200000900015775001     201209222012080800000000054640000306569000000000308609000000000000000000000000002040050000000000  3020120927   01          2  R JUNO  533                                                                      3                         000000000000000                                     N                     00598  0000000        000047
12012006058000121WEG TINTAS LTDA                                                       0000000023702727800000000001309 00000000834820640090217900000760014773903     201209092012062600000000054510000306662000000000314006000000000000000000000000007344050000000000  3020120927   01          2  R JUNO  533                                                                      3                         000000000000000                                     N                     00598  0000000        000048
12012006058000121WEG TINTAS LTDA                                                       0000000023702727800000000001309 00000000844839230090219500000720015168702     201209102012071200000000054520000306569000000000313505000000000000000000000000006936050000000000  3020120927   01          2  R JUNO  533                                                                      3                         000000000000000                                     N                     00598  0000000        000049
12012006058000121WEG TINTAS LTDA                                                       0000000023702727800000000001309 00000000844839240090219500000730015168703     201209252012071200000000054670000306662000000000307478000000000000000000000000000816050000000000  3020120927   01          2  R JUNO  533                                                                      3                         000000000000000                                     N                     00598  0000000        000050
12012006058000121WEG TINTAS LTDA                                                       0000000023702727800000000001309 00000000847452150090220000000920015248102     201209152012071700000000054570000306569000000000311465000000000000000000000000004896050000000000  3020120927   01          2  R JUNO  533                                                                      3                         000000000000000                                     N                     00598  0000000        000051
12012006058000121WEG TINTAS LTDA                                                       0000000023702727800000000001309 00000000849855330090220500001210015343102     201209182012072000000000054600000306569000000000310241000000000000000000000000003672050000000000  3020120927   01          2  R JUNO  533                                                                      3                         000000000000000                                     N                     00598  0000000        000052
12012707981000190MAC CINTAS E A CARGAS LTDA ME                                         000000003410000000000000000000000000000088957850000000242876074609            201210182012092500000000054900000072500000000000072500000000000000000000000000000000050000000000  3020121018   01FS        1                                                                                   3112428760741068283895800029                                                  N                     01321  0000000        000053
12012931789000183RCM IMPORTADORA DE FERRAMENTAS                                        0000000000100000000000000000000000000000878205470000003022340004038           201209252012082800000000054670000026100000000000026360000000000000000000000000000260050000000000  3020120927   01          2                                                                                   3000000225937123243022341779                                                  N                     01321  0000000        000054
12014309992000148WEG DRIVES   CONTROLS   AUTOMA                                        0000000023702727800000000001872 00000000828904050090217000002200005763302     201209152012051800000000054570000272992000000000277348000000000000000000000000004356050000000000  3020120927   01          2  R JUNO  533                                                                      3                         000000000000000                                     N                     00598  0000000        000055
12033325184001786ALSCO TOALHEIRO BRASIL                                                0000000023703396000000001490850 0000000087820607009000002716505VM27165        201209262012090600000000054680000045665000000000045711000000000000000000000000000046050000000000  3020120927   01          2  RUA  GANGES 528                                                                  3                         000000000000000                                     N                     00598  0000000        000056
12035820448000136WHITE MARTINS GASES INDUSTRIAI                                        0000000023700026400000003937925 0000000086907101009022370010705372273 001     201209202012082400000000054620000017600000000000018113000000000000000000000000000513050000000000  3020120927   01          2  RUA GANGES  528                                                                  3                         000000000000000                                     N                     00598  0000000        000057
12035820448000136WHITE MARTINS GASES INDUSTRIAI                                        0000000023700026400000003937925 0000000086907102009022370011747372774 001     201209202012082400000000054620000040575000000000041764000000000000000000000000001189050000000000  3020120927   01          2  RUA GANGES  528                                                                  3                         000000000000000                                     N                     00598  0000000        000058
12035820448000136WHITE MARTINS GASES INDUSTRIAI                                        0000000023700026400000003937925 0000000086538817009022290001168366855 001     201209112012081600000000054530000121725000000000126751000000000000000000000000005026050000000000  3020120927   01          2  RUA GANGES  528                                                                  3                         000000000000000                                     N                     00598  0000000        000059
12035820448000136WHITE MARTINS GASES INDUSTRIAI                                        0000000023700026400000003937925 0000000086699210009022330000393368126 001     201209142012081800000000054560000162300000000000168354000000000000000000000000006054050000000000  3020120927   01          2  RUA GANGES  528                                                                  3                         000000000000000                                     N                     00598  0000000        000060
12035820448000136WHITE MARTINS GASES INDUSTRIAI                                        0000000023700026400000003937925 0000000086812633009022350001453369229 001     201209182012082200000000054600000056805000000000058625000000000000000000000000001820050000000000  3020120927   01          2  RUA GANGES  528                                                                  3                         000000000000000                                     N                     00598  0000000        000061
12035820448000136WHITE MARTINS GASES INDUSTRIAI                                        0000000023700026400000003937925 0000000087067052009022420002594374120 001     201209252012082900000000054670000113610000000000116184000000000000000000000000002574050000000000  3020120927   01          2  RUA GANGES  528                                                                  3                         000000000000000                                     N                     00598  0000000        000062
12035820448000136WHITE MARTINS GASES INDUSTRIAI                                        0000000023700026400000003937925 0000000088957851009022700001298384214 001     201210232012092600000000054950000121725000000000121725000000000000000000000000000000050000000000  3020121023   01FS        1  RUA GANGES  528                                                                  3                         000000000000000                                     N                     00598  0000000        000063
12035820448000136WHITE MARTINS GASES INDUSTRIAI                                        0000000023700026400000003937925 0000000085861656009022190000404361579 001     201208312012080400000000054420000162300000000000171162000000000000000000000000009078050000000000  3020120926   06          3  RUA GANGES  528                                                                  3                         000000000000000                                     N                     00598  0000000        000064
12035820448000136WHITE MARTINS GASES INDUSTRIAI                                        0000000023700026400000003937925 0000000086196029009022230001562364184 001     201209062012081000000000054480000113610000000000118902000000000000000000000000005443050000000000  3020120926   06          3  RUA GANGES  528                                                                  3                         000000000000000                                     N                     00598  0000000        000065
12042956441000101SOLUCOES EM ACO USIMINAS S A                                          000000000010000000000000000000000000000082978008000000080344000000057592003   201209102012061800000000054520001055670000000001074669000000000000000000000000021110050000000000  3020120919   05          3                                                                                   3000000169660100000803441719                                                  N                     01321  0000000        000066
12042956441000101SOLUCOES EM ACO USIMINAS S A                                          000000000010000000000000000000000000000082978011000000080476000000057680003   201209102012061800000000054520000431770000000000439546000000000000000000000000008640050000000000  3020120919   05          3                                                                                   3000000169660100000804761729                                                  N                     01321  0000000        000067
12042956441000101SOLUCOES EM ACO USIMINAS S A                                          000000000010000000000000000000000000000082978017000000081232000000165560003   201209102012061800000000054520000341008000000000347146000000000000000000000000006820050000000000  3020120919   05          3                                                                                   3000000169660100000812321769                                                  N                     01321  0000000        000068
12042956441000101SOLUCOES ACO USIMINAS                                                 0000000034100000000000000000000000000000855028670000002254329360017200402     201209202012072600000000054620000163224000000000165506000000000000000000000000002282050000000000  3020120927   01          2                                                                                   3112254329363293807258000069                                                  N                     01321  0000000        000069
12042956441000101SOLUCOES ACO USIMINAS                                                 0000000034100000000000000000000000000000855028680000002254329370017202402     201209202012072600000000054620000244136000000000247552000000000000000000000000003416050000000000  3020120927   01          2                                                                                   3112254329371293807258000079                                                  N                     01321  0000000        000070
12042956441000101SOLUCOES EM ACO USIMINAS S A                                          000000000010000000000000000000000000000083562085000000087494000000167113003   201209182012062700000000054600000698474000000000711047000000000000000000000000012573050000000000  3020120927   01          2                                                                                   3000000169660100000874941719                                                  N                     01321  0000000        000071
12042956441000101SOLUCOES EM ACO USIMINAS S A                                          000000000010000000000000000000000000000083562088000000087497000000167114003   201209182012062700000000054600000703009000000000715663000000000000000000000000012654050000000000  3020120927   01          2                                                                                   3000000169660100000874971789                                                  N                     01321  0000000        000072
12042956441000101SOLUCOES EM ACO USIMINAS S A                                          000000000010000000000000000000000000000083562091000000087500000000167115003   201209182012062700000000054600000240663000000000244992000000000000000000000000004329050000000000  3020120927   01          2                                                                                   3000000169660100000875001739                                                  N                     01321  0000000        000073
12042956441000101SOLUCOES ACO USIMINAS                                                 0000000034100000000000000000000000000000836417910000002164218370016738103     201209192012062700000000054610000830173000000000843453000000000000000000000000013280050000000000  3020120927   01          2                                                                                   3112164218375293807258000039                                                  N                     01321  0000000        000074
12042956441000101SOLUCOES ACO USIMINAS                                                 0000000034100000000000000000000000000000855028690000002254329380017212902     201209212012072600000000054630000140098000000000141778000000000000000000000000001680050000000000  3020120927   01          2                                                                                   3112254329389293807258000019                                                  N                     01321  0000000        000075
12042956441000101SOLUCOES ACO USIMINAS                                                 0000000034100000000000000000000000000000855028700000002254329390017213002     201209212012072600000000054630000140602000000000142288000000000000000000000000001686050000000000  3020120927   01          2                                                                                   3112254329397293807258000089                                                  N                     01321  0000000        000076
12042956441000101SOLUCOES ACO USIMINAS                                                 0000000034100000000000000000000000000000855028720000002254329340017200202     201209202012072600000000054620000680385000000000689912000000000000000000000000009527050000000000  3020120927   01          2                                                                                   3112254329348293807258000079                                                  N                     01321  0000000        000077
12042956441000101SOLUCOES ACO USIMINAS                                                 0000000034100000000000000000000000000000853154830000002246247020017196602     201209202012072500000000054620000804808000000000816078000000000000000000000000011270050000000000  3020120927   01          2                                                                                   3112246247020293807258000089                                                  N                     01321  0000000        000078
12042956441000101SOLUCOES ACO USIMINAS                                                 0000000034100000000000000000000000000000847452100000002216130340017012402     201209102012071500000000054520000147428000000000152443000000000000000000000000005015050000000000  3020120927   01          2                                                                                   3112216130347293807258000059                                                  N                     01321  0000000        000079
12042956441000101SOLUCOES ACO USIMINAS                                                 0000000034100000000000000000000000000000848180700000002220192900017041002     201209112012071700000000054530000155433000000000160409000000000000000000000000004976050000000000  3020120927   01          2                                                                                   3112220192903293807258000029                                                  N                     01321  0000000        000080
12042956441000101SOLUCOES ACO USIMINAS                                                 0000000034100000000000000000000000000000848180710000002220192910017041202     201209112012071700000000054530000205421000000000211997000000000000000000000000006576050000000000  3020120927   01          2                                                                                   3112220192911293807258000019                                                  N                     01321  0000000        000081
12042956441000101SOLUCOES ACO USIMINAS                                                 0000000034100000000000000000000000000000853154840000002246247030017196702     201209202012072500000000054620000234841000000000238131000000000000000000000000003290050000000000  3020120927   01          2                                                                                   3112246247038293807258000099                                                  N                     01321  0000000        000082
12042956441000101SOLUCOES ACO USIMINAS                                                 0000000034100000000000000000000000000000853154850000002246247040017197302     201209202012072500000000054620000970103000000000983683000000000000000000000000013580050000000000  3020120927   01          2                                                                                   3112246247046293807258000019                                                  N                     01321  0000000        000083
12042956441000101SOLUCOES ACO USIMINAS                                                 0000000034100000000000000000000000000000855028730000002254329350017200302     201209202012072600000000054620000156896000000000159094000000000000000000000000002198050000000000  3020120927   01          2                                                                                   3112254329355293807258000029                                                  N                     01321  0000000        000084
12042956441000101SOLUCOES ACO USIMINAS                                                 0000000034100000000000000000000000000000855028770000002254329400017220502     201209212012072700000000054630000981022000000000992794000000000000000000000000011772050000000000  3020120927   01          2                                                                                   3112254329405293807258000099                                                  N                     01321  0000000        000085
12042956441000101SOLUCOES ACO USIMINAS                                                 0000000034100000000000000000000000000000850740460000002233586800017127201     201208202012072000000000054310000137881000000000148369000000000000000000000000010488050000000000  3020120927   01          2                                                                                   3112233586802293807258000019                                                  N                     01321  0000000        000086
12042956441000101SOLUCOES ACO USIMINAS                                                 0000000034100000000000000000000000000000850740470000002233586810017101002     201209142012071900000000054560000732575000000000751620000000000000000000000000019045050000000000  3020120927   01          2                                                                                   3112233586810293807258000019                                                  N                     01321  0000000        000087
12042956441000101SOLUCOES ACO USIMINAS                                                 0000000034100000000000000000000000000000850740480000002233586820017101202     201209142012071900000000054560000144634000000000148391000000000000000000000000003757050000000000  3020120927   01          2                                                                                   3112233586828293807258000029                                                  N                     01321  0000000        000088
12042956441000101SOLUCOES ACO USIMINAS                                                 0000000034100000000000000000000000000000850740490000002233586830017126902     201209172012072000000000054590000208392000000000212562000000000000000000000000004170050000000000  3020120927   01          2                                                                                   3112233586836293807258000089                                                  N                     01321  0000000        000089
12042956441000101SOLUCOES ACO USIMINAS                                                 0000000034100000000000000000000000000000846595700000002210880280016980502     201209102012071200000000054520000156071000000000161375000000000000000000000000005304050000000000  3020120927   01          2                                                                                   3112210880285293807258000039                                                  N                     01321  0000000        000090
12042956441000101SOLUCOES ACO USIMINAS                                                 0000000034100000000000000000000000000000846595710000002210880290016980602     201209102012071200000000054520000426094000000000440578000000000000000000000000014484050000000000  3020120927   01          2                                                                                   3112210880293293807258000019                                                  N                     01321  0000000        000091
12042956441000101SOLUCOES ACO USIMINAS                                                 0000000034100000000000000000000000000000847452070000002216130350005922202     201209102012071600000000054520000172071000000000177919000000000000000000000000005848050000000000  3020120927   01          2                                                                                   3112216130354293807258000049                                                  N                     01321  0000000        000092
12042956441000101SOLUCOES ACO USIMINAS                                                 0000000034100000000000000000000000000000856906410000002262886280017266201     201208282012073000000000054390000119472000000000126642000000000000000000000000007170050000000000  3020120927   01          2                                                                                   3112262886289293807258000089                                                  N                     01321  0000000        000093
12042956441000101SOLUCOES ACO USIMINAS                                                 0000000034100000000000000000000000000000856906420000002262886290017266301     201208282012073000000000054390000145069000000000153769000000000000000000000000008700050000000000  3020120927   01          2                                                                                   3112262886297293807258000099                                                  N                     01321  0000000        000094
12042956441000101SOLUCOES ACO USIMINAS                                                 0000000034100000000000000000000000000000850740500000002233586840017127002     201209172012072000000000054590000190428000000000194238000000000000000000000000003810050000000000  3020120927   01          2                                                                                   3112233586844293807258000019                                                  N                     01321  0000000        000095
12042956441000101SOLUCOES ACO USIMINAS                                                 0000000034100000000000000000000000000000850740510000002233586850017127102     201209172012072000000000054590000167727000000000171077000000000000000000000000003350050000000000  3020120927   01          2                                                                                   3112233586851293807258000039                                                  N                     01321  0000000        000096
12042956441000101SOLUCOES ACO USIMINAS                                                 0000000034100000000000000000000000000000856906430000002262886300017266202     201209252012073000000000054670000119436000000000119914000000000000000000000000000478050000000000  3020120927   01          2                                                                                   3112262886305293807258000019                                                  N                     01321  0000000        000097
12042956441000101SOLUCOES ACO USIMINAS                                                 0000000034100000000000000000000000000000856906440000002262886310017266302     201209252012073000000000054670000145025000000000145605000000000000000000000000000580050000000000  3020120927   01          2                                                                                   3112262886313293807258000029                                                  N                     01321  0000000        000098
12042956441000101SOLUCOES ACO USIMINAS                                                 0000000034100000000000000000000000000000840313040000002181699250016829703     201209242012070200000000054660000643711000000000647572000000000000000000000000003861050000000000  3020120927   01          2                                                                                   3112181699250293807258000019                                                  N                     01321  0000000        000099
12042956441000101SOLUCOES ACO USIMINAS                                                 0000000034100000000000000000000000000000840313050000002181699260016829803     201209242012070200000000054660000322527000000000324462000000000000000000000000001935050000000000  3020120927   01          2                                                                                   3112181699268293807258000029                                                  N                     01321  0000000        000100
12042956441000101SOLUCOES ACO USIMINAS                                                 0000000034100000000000000000000000000000840313080000002181699230016814403     201209242012070200000000054660000968423000000000974234000000000000000000000000005811050000000000  3020120927   01          2                                                                                   3112181699235293807258000079                                                  N                     01321  0000000        000101
12042956441000101SOLUCOES ACO USIMINAS                                                 0000000034100000000000000000000000000000840313090000002181699240016827103     201209242012070200000000054660000703009000000000707227000000000000000000000000004218050000000000  3020120927   01          2                                                                                   3112181699243293807258000019                                                  N                     01321  0000000        000102
12042956441000101SOLUCOES ACO USIMINAS                                                 0000000034100000000000000000000000000000841725540000002188168620016859403     201209262012070400000000054680000164455000000000164784000000000000000000000000000329050000000000  3020120927   01          2                                                                                   3112188168622293807258000019                                                  N                     01321  0000000        000103
12042956441000101SOLUCOES ACO USIMINAS                                                 0000000034100000000000000000000000000000841725550000002188168630016859503     201209262012070400000000054680000234336000000000234805000000000000000000000000000469050000000000  3020120927   01          2                                                                                   3112188168630293807258000089                                                  N                     01321  0000000        000104
12043217850000159IOB INFORMACOES OBJ  PUBL JURI                                        0000000023702374400000002958600 000000008711912800902243000063301440820F2     201209202012083000000000054620000072850000000000074475000000000000000000000000001625050000000000  3020120927   01          2  R GANGES 528                                                                     3                         000000000000000                                     N                     00598  0000000        000105
12043217850000159IOB INFORMACOES OBJ  PUBL JURI                                        0000000023702374400000002958600 000000008540495200902212000099001440820E4     201208202012073000000000054310000072850000000000075219000000000000000000000000002369050000000000  3020120927   01          2  GANGES 528 VL NOVA MANCHESTER                                                    3                         000000000000000                                     N                     00598  0000000        000106
12047190731000100DE CASTRO LOUR ENG IND LTDA                                           00000000341000000000000000000000000000008782058900000023602714603026734 0     201209252012082800000000054670000997834000000001001758000000000000000000000000003924050000000000  3020120927   01          2                                                                                   3112360271467036884500400039                                                  N                     01321  0000000        000107
12047190731000100DE CASTRO LOUR ENG IND LTDA                                           00000000341000000000000000000000000000008782059300000023602715203026745 0     201209262012082900000000054680000903175000000000904951000000000000000000000000001776050000000000  3020120927   01          2                                                                                   3112360271525036884500400069                                                  N                     01321  0000000        000108
12047190731000100DE CASTRO LOUR ENG IND LTDA                                           00000000341000000000000000000000000000008782051200000023399953803026613 0     201209182012082100000000054600001107989000000001127600000000000000000000000000019611050000000000  3020120927   01          2                                                                                   3112339995386036884500400039                                                  N                     01321  0000000        000109
12047190731000100DE CASTRO LOUR ENG IND LTDA                                           00000000341000000000000000000000000000008782051600000023399954103026614 0     201209182012082100000000054600001047621000000001066161000000000000000000000000018540050000000000  3020120927   01          2                                                                                   3112339995410036884500400039                                                  N                     01321  0000000        000110
12047190731000100DE CASTRO LOUR ENG IND LTDA                                           00000000341000000000000000000000000000008782052000000023399955303026632 0     201209192012082200000000054610000952073000000000967049000000000000000000000000014976050000000000  3020120927   01          2                                                                                   3112339995535036884500400019                                                  N                     01321  0000000        000111
12047190731000100DE CASTRO LOUR ENG IND LTDA                                           00000000341000000000000000000000000000008782052100000023399955903026643 0     201209202012082300000000054620000867039000000000878974000000000000000000000000011935050000000000  3020120927   01          2                                                                                   3112339995592036884500400049                                                  N                     01321  0000000        000112
12047190731000100DE CASTRO LOUR ENG IND LTDA                                           00000000341000000000000000000000000000008782052500000023399955603026636 0     201209192012082200000000054610000940804000000000955604000000000000000000000000014800050000000000  3020120927   01          2                                                                                   3112339995568036884500400049                                                  N                     01321  0000000        000113
12047190731000100DE CASTRO LOUR ENG IND LTDA                                           00000000341000000000000000000000000000008782052700000023399956203026648 0     201209202012082300000000054620000976053000000000989493000000000000000000000000013440050000000000  3020120927   01          2                                                                                   3112339995626036884500400029                                                  N                     01321  0000000        000114
12047190731000100DE CASTRO LOUR ENG IND LTDA                                           00000000341000000000000000000000000000008782050900000023399953503026612 0     201209182012082100000000054600001111489000000001131163000000000000000000000000019674050000000000  3020120927   01          2                                                                                   3112339995352036884500400019                                                  N                     01321  0000000        000115
12051180370000199IGUAFER FERRO E ACO LTDA                                              0000000034100000000000000000000000000000852309100000002239389789443 B         201209022012071800000000054440000168275000000000175275000000000000000000000000007000050000000000  3020120927   01          2                                                                                   3112239389789077149484600089                                                  N                     01321  0000000        000116
12051180370000199IGUAFER FERRO E ACO LTDA                                              0000000034100000000000000000000000000000852309110000002239389799443 C         201209122012071800000000054540000168275000000000172475000000000000000000000000004200050000000000  3020120927   01          2                                                                                   3112239389797077149484600089                                                  N                     01321  0000000        000117
12051180370000199IGUAFER FERRO E ACO LTDA                                              0000000034100000000000000000000000000000852309120000002239389809443 D         201209222012071800000000054640000168275000000000169675000000000000000000000000001400050000000000  3020120927   01          2                                                                                   3112239389805077149484600029                                                  N                     01321  0000000        000118
12053585766000141MULTIACOS I C PRODS TEC LTDA                                          0000000042200000000000000000000000000000878205680000000000000000004545101     201209262012082800000000054680000314360000000000314883000000000000000000000000000523050000000000  3020120927   01          2                                                                                   3711500005033164917492641129                                                  N                     01321  0000000        000119
12053585766000141MULTIACOS IND  COM  PROD  TEC                                         0000000038900000000000000000000000000000878205380000000000000000004462302     201209242012073000000000054660000262786000000000264100000000000000000000000000001314050000000000  3020120927   01          2                                                                                   3015601031416185000042309219                                                  N                     01321  0000000        000120
12053585766000141MULTIACOS IND  COM  PROD  TEC                                         0000000038900000000000000000000000000000878205390000000000000000004462402     201209242012073000000000054660000761496000000000765303000000000000000000000000003807050000000000  3020120927   01          2                                                                                   3015601031416193000042309239                                                  N                     01321  0000000        000121
12053585766000141MULTIACOS IND  COM  PROD  TEC                                         0000000038900000000000000000000000000000878205400000000000000000004532101     201209242012081300000000054660000910692000000000915246000000000000000000000000004554050000000000  3020120927   01          2                                                                                   3015601031416320000042309219                                                  N                     01321  0000000        000122
12053585766000141MULTIACOS I C PRODS TEC LTDA                                          0000000042200000000000000000000000000000878205690000000000000000004539301     201209252012082800000000054670001052408000000001055915000000000000000000000000003507050000000000  3020120927   01          2                                                                                   3711500005033164917492650119                                                  N                     01321  0000000        000123
12053585766000141MULTIACOS I C PRODS TEC LTDA                                          0000000042200000000000000000000000000000878205740000000000000000004391603     201209252012082800000000054670000354262000000000355441000000000000000000000000001179050000000000  3020120927   01          2                                                                                   3711500005033164917492706179                                                  N                     01321  0000000        000124
12053585766000141MULTIACOS IND  COM  PROD  TEC                                         0000000038900000000000000000000000000000878205410000000000000000004532301     201209242012081300000000054660000265180000000000266506000000000000000000000000001326050000000000  3020120927   01          2                                                                                   3015601031416339000042309269                                                  N                     01321  0000000        000125
12053585766000141MULTIACOS I C PRODS TEC LTDA                                          0000000042200000000000000000000000000000878205750000000000000000004391703     201209252012082800000000054670000342203000000000343342000000000000000000000000001139050000000000  3020120927   01          2                                                                                   3711500005033164917492714159                                                  N                     01321  0000000        000126
12053585766000141MULTIACOS I C PRODS TEC LTDA                                          0000000042200000000000000000000000000000878205770000000000000000004545201     201209262012082800000000054680001035014000000001036738000000000000000000000000001724050000000000  3020120927   01          2                                                                                   3711500005033164917492668129                                                  N                     01321  0000000        000127
12053585766000141MULTIACOS I C PRODS TEC LTDA                                          0000000042200000000000000000000000000000878205800000000000000000004391503     201209252012082800000000054670000319418000000000320481000000000000000000000000001063050000000000  3020120927   01          2                                                                                   3711500005033164917492692119                                                  N                     01321  0000000        000128
12053585766000141MULTIACOS IND  COM  PROD  TEC                                         0000000038900000000000000000000000000000878205420000000000000000004462202     201209242012073000000000054660000569064000000000571908000000000000000000000000002844050000000000  3020120927   01          2                                                                                   3015601031416177000042309239                                                  N                     01321  0000000        000129
12053585766000141MULTIACOS COM DE PRODUTOS TECN                                        0000000023703398700000000011290 00000000870177440020224100000020004375203     201209212012071200000000054630000311850000000000314970000000000000000000000000003120050000000000  3020120927   01          2  RUA JUNO  533                                                                    3                         000000000000000                                     N                     00598  0000000        000130
12053585766000141MULTIACOS COM DE PRODUTOS TECN                                        0000000023703398700000000011290 00000000870177450020224100000280004452002     201209212012072700000000054630000865030000000000873682000000000000000000000000008652050000000000  3020120927   01          2  RUA JUNO  533                                                                    3                         000000000000000                                     N                     00598  0000000        000131
12053585766000141MULTIACOS COM DE PRODUTOS TECN                                        0000000023703398700000000011290 00000000870177460020224100000290004453002     201209212012072700000000054630000619209000000000625401000000000000000000000000006192050000000000  3020120927   01          2  RUA JUNO  533                                                                    3                         000000000000000                                     N                     00598  0000000        000132
12053585766000141MULTIACOS COM DE PRODUTOS TECN                                        0000000023703398700000000011290 00000000870177470020224100000800004521801     201209212012081000000000054630000836236000000000844600000000000000000000000000008364050000000000  3020120927   01          2  RUA JUNO  533                                                                    3                         000000000000000                                     N                     00598  0000000        000133
12053585766000141MULTIACOS INDUSTRIA E COMERCIO                                        0000000000100000000000000000000000000000878205530000006553800000004429702     201209172012082800000000054590000624532000000000626614000000000000000000000000003123050000000000  3020120919   05          3                                                                                   3044016553801912000139523189                                                  N                     01321  0000000        000134
12053585766000141MULTIACOS INDUSTRIA E COMERCIO                                        0000000000100000000000000000000000000000878205570000006554440000004493801     201209172012082800000000054590000853202000000000856046000000000000000000000000004266050000000000  3020120919   05          3                                                                                   3044016554441912000139523169                                                  N                     01321  0000000        000135
12054382510000108SETENTA IND E COM DE MADEIRAS                                         0000000034100000000000000000000000000000874070720000002305114064536 A         201209192012081600000000054610000191200000000000194208000000000000000000000000003008050000000000  3020120927   01          2                                                                                   3112305114061057002848000039                                                  N                     01321  0000000        000136
12054382510000108SETENTA IND E COM DE MADEIRAS                                         0000000034100000000000000000000000000000860403430000002277814474462 A         201209042012080700000000054460000191200000000000199848000000000000000000000000008648050000000000  3020120927   01          2                                                                                   3112277814474057049175300069                                                  N                     01321  0000000        000137
12056993900000131CIA METALURGICA PRADA                                                 0000000034100000000000000000000000000000837460460000002165934390025295703     201209202012062800000000054620000139528000000000141159000000000000000000000000001631050000000000  3020120927   01          2                                                                                   3112165934392293800573900029                                                  N                     01321  0000000        000138
12056993900000131CIA METALURGICA PRADA                                                 0000000034100000000000000000000000000000838527930000002171340470025383503     201209242012063000000000054660000575127000000000578004000000000000000000000000002877050000000000  3020120927   01          2                                                                                   3112171340477293800573900069                                                  N                     01321  0000000        000139
12056993900000131CIA METALURGICA PRADA                                                 0000000034100000000000000000000000000000838527940000002171340480025384303     201209242012063000000000054660000454478000000000456749000000000000000000000000002271050000000000  3020120927   01          2                                                                                   3112171340485293800573900029                                                  N                     01321  0000000        000140
12056993900000131CIA METALURGICA PRADA                                                 0000000034100000000000000000000000000000840312930000002179478290025419302     201208282012070300000000054390000402178000000000422278000000000000000000000000020100050000000000  3020120927   01          2                                                                                   3112179478295293800573900089                                                  N                     01321  0000000        000141
12056993900000131CIA METALURGICA PRADA                                                 0000000034100000000000000000000000000000840312940000002179478300025419402     201208282012070300000000054390000322804000000000338944000000000000000000000000016140050000000000  3020120927   01          2                                                                                   3112179478303293800573900079                                                  N                     01321  0000000        000142
12056993900000131CIA METALURGICA PRADA                                                 0000000034100000000000000000000000000000840312960000002179478310025419303     201209252012070300000000054670000402178000000000403518000000000000000000000000001340050000000000  3020120927   01          2                                                                                   3112179478311293800573900069                                                  N                     01321  0000000        000143
12056993900000131CIA METALURGICA PRADA                                                 0000000034100000000000000000000000000000840312970000002179478320025419403     201209252012070300000000054670000322804000000000323880000000000000000000000000001076050000000000  3020120927   01          2                                                                                   3112179478329293800573900079                                                  N                     01321  0000000        000144
12056993900000131CIA METALURGICA PRADA                                                 0000000034100000000000000000000000000000837460450000002165934380025295603     201209202012062800000000054620000154165000000000155964000000000000000000000000001799050000000000  3020120927   01          2                                                                                   3112165934384293800573900039                                                  N                     01321  0000000        000145
12056993900000131CIA METALURGICA PRADA                                                 0000000034100000000000000000000000000000844839000000002201181880025629402     201209052012071100000000054470000249372000000000258524000000000000000000000000009152050000000000  3020120927   01          2                                                                                   3112201181883293800573900019                                                  N                     01321  0000000        000146
12056993900000131CIA METALURGICA PRADA                                                 0000000034100000000000000000000000000000844839010000002201181890025635302     201209052012071100000000054470000406842000000000421758000000000000000000000000014916050000000000  3020120927   01          2                                                                                   3112201181891293800573900019                                                  N                     01321  0000000        000147
12056993900000131CIA METALURGICA PRADA                                                 0000000034100000000000000000000000000000844839020000002201181900025635402     201209052012071100000000054470000208689000000000216345000000000000000000000000007656050000000000  3020120927   01          2                                                                                   3112201181909293800573900069                                                  N                     01321  0000000        000148
12056993900000131CIA METALURGICA PRADA                                                 0000000034100000000000000000000000000000844839030000002201181910025635502     201209052012071100000000054470000164780000000000170830000000000000000000000000006050050000000000  3020120927   01          2                                                                                   3112201181917293800573900029                                                  N                     01321  0000000        000149
12056993900000131CIA METALURGICA PRADA                                                 0000000034100000000000000000000000000000844839040000002201181920025635602     201209052012071100000000054470000339933000000000352407000000000000000000000000012474050000000000  3020120927   01          2                                                                                   3112201181925293800573900069                                                  N                     01321  0000000        000150
12056993900000131CIA METALURGICA PRADA                                                 0000000034100000000000000000000000000000844839050000002201181930025636202     201209052012071100000000054470000746213000000000773581000000000000000000000000027368050000000000  3020120927   01          2                                                                                   3112201181933293800573900019                                                  N                     01321  0000000        000151
12056993900000131CIA METALURGICA PRADA                                                 0000000034100000000000000000000000000000844839060000002201181940025644402     201209052012071100000000054470000779647000000000808225000000000000000000000000028578050000000000  3020120927   01          2                                                                                   3112201181941293800573900019                                                  N                     01321  0000000        000152
12056993900000131CIA METALURGICA PRADA                                                 0000000034100000000000000000000000000000844839140000002201181870025629302     201209052012071100000000054470000257906000000000267366000000000000000000000000009460050000000000  3020120927   01          2                                                                                   3112201181875293800573900069                                                  N                     01321  0000000        000153
12056993900000131CIA METALURGICA PRADA                                                 0000000034100000000000000000000000000000837460410000002165934370025295503     201209202012062800000000054620000339048000000000343003000000000000000000000000003955050000000000  3020120927   01          2                                                                                   3112165934376293800573900029                                                  N                     01321  0000000        000154
12056993900000131CIA METALURGICA PRADA                                                 0000000034100000000000000000000000000000855028570000002254750270026244302     201209242012072800000000054660000100684000000000101188000000000000000000000000000504050000000000  3020120927   01          2                                                                                   3112254750279293800573900089                                                  N                     01321  0000000        000155
12056993900000131CIA METALURGICA PRADA                                                 0000000034100000000000000000000000000000837460440000002165934360025295403     201209202012062800000000054620000152797000000000154582000000000000000000000000001785050000000000  3020120927   01          2                                                                                   3112165934368293800573900019                                                  N                     01321  0000000        000156
12056993900000131CIA METALURGICA PRADA                                                 0000000034100000000000000000000000000000855028580000002254750280026244402     201209242012072800000000054660000084115000000000084535000000000000000000000000000420050000000000  3020120927   01          2                                                                                   3112254750287293800573900039                                                  N                     01321  0000000        000157
12056993900000131CIA METALURGICA PRADA                                                 0000000034100000000000000000000000000000824820100000002102181160024711603     201208292012060600000000054400000833146000000000873427000000000000000000000000040281050000000000  3020120927   01          2                                                                                   3112102181164293800573900039                                                  N                     01321  0000000        000158
12056993900000131CIA METALURGICA PRADA                                                 0000000034100000000000000000000000000000848180620000002218222670025829902     201209112012071700000000054530000498118000000000511398000000000000000000000000013280050000000000  3020120927   01          2                                                                                   3112218222670293800573900029                                                  N                     01321  0000000        000159
12056993900000131CIA METALURGICA PRADA                                                 0000000034100000000000000000000000000000848180630000002218222680025830002     201209112012071700000000054530000247673000000000254281000000000000000000000000006608050000000000  3020120927   01          2                                                                                   3112218222688293800573900059                                                  N                     01321  0000000        000160
12056993900000131CIA METALURGICA PRADA                                                 0000000034100000000000000000000000000000848180640000002218222690025830102     201209112012071700000000054530000207402000000000212938000000000000000000000000005536050000000000  3020120927   01          2                                                                                   3112218222696293800573900039                                                  N                     01321  0000000        000161
12057017873000124METAFER COMERCIO DE FERRO E AC                                        0000000023703134800000000072206 00000000869070990090223700000430033608C01     201209252012082100000000054670000030750000000000030853000000000000000000000000000206050000000000  3020120926   06          3  RUA JUNO  533                                                                    3                         000000000000000                                     N                     00598  0000000        000162
12057017873000124METAFER COMERCIO DE FERRO E AC                                        0000000023703134800000000072206 00000000866992090090223300001010033517C01     201209212012081700000000054630000083489000000000084879000000000000000000000000001668050000000000  3020120926   06          3  RUA JUNO  533                                                                    3                         000000000000000                                     N                     00598  0000000        000163
12057029431000106ATLAS COPCO BRASIL LTDA                                               0000000034100000000000000000000000000000861960280000002283943487000054090     201209062012080900000000054480000059490000000000060309000000000000000000000000000819050000000000  3020120927   01          2                                                                                   3112283943481293804111400069                                                  N                     01321  0000000        000164
12057029431000106ATLAS COPCO BRASIL LTDA                                               0000000034100000000000000000000000000000863731640000002292733057000054146     201209072012081000000000054490000081450000000000082530000000000000000000000000001080050000000000  3020120927   01          2                                                                                   3112292733055293804111400099                                                  N                     01321  0000000        000165
12057158057000130COMERCIAL ELETRICA PJ LTDA                                            0000000023703394400000000972983 00000000842436850090219200008900000305028     201208012012070400000000054120000079196000000000094187000000000000000000000000014991050000000000  3020120927   01          2  R TAMAINDE 1410                                                                  3                         000000000000000                                     N                     00598  0000000        000166
12059160689000164LUCHETI LUBRIFICANTES LTDA                                            0000000003300000000000000000000000000000870670580000009400000000030708 01     201209242012082700000000054660000044800000000000044980000000000000000000000000000270050000000000  3020120926   06          3                                                                                   3917953170000000115894010489                                                  N                     01321  0000000        000167
12059659615000177DZ COMERCIO R E SERVICOS LTDA                                         000000003410000000000000000000000000000086699205000000900000268252            201209172012081500000000054590000060000000000000061200000000000000000000000000001200050000000000  3020120927   01          2                                                                                   3109000002680000314585100059                                                  N                     01321  0000000        000168
12061217188000119TELAS METALICAS TELMETAL LTDA                                         0000000000100000000000000000000000000000871191260000000056810005570 1 1       201209262012082900000000054680000058383000000000058539000000000000000000000000000156050000000000  3020120927   01          2                                                                                   3000000115031800000056811719                                                  N                     01321  0000000        000169
12061217188000119TELAS METALICAS TELMETAL LTDA                                         0000000000100000000000000000000000000000864554310000000056150005494 3 3       201209252012081400000000054670000008494000000000008540000000000000000000000000000046050000000000  3020120927   01          2                                                                                   3000000115031800000056151739                                                  N                     01321  0000000        000170
12061217188000119TELAS METALICAS TELMETAL LTDA                                         0000000034100000000000000000000000000000886866580000009000030065684 1 1       201210182012092000000000054900000060995000000000060995000000000000000000000000000000050000000000  3020121018   05          3                                                                                   3109000030060077073552000049                                                  N                     01321  0000000        000171
12061217188000119TELAS METALICAS TELMETAL LTDA                                         0000000034100000000000000000000000000000889578530000009000030065684 1 1       201210182012092000000000054900000060995000000000060995000000000000000000000000000000050000000000  3020121018   01FS        1                                                                                   3109000030062077099894600039                                                  N                     01321  0000000        000172
12061475927000172NIQ CROM BRILHANTE LTDA                                               0000000034100000000000000000000000000000889578470000002428217915141           201210192012092500000000054910000049335000000000049335000000000000000000000000000000050000000000  3020121019   01FS        1                                                                                   3112428217916046770270000059                                                  N                     01321  0000000        000173
12061612735000160IMP TEIXEIRA DE FERRAGENS LTDA                                        0000000034100000000000000000000000000000878205810000002351838130000086481     201209242012082700000000054660000029325000000000029616000000000000000000000000000291050000000000  3020120927   01          2                                                                                   3112351838134000442318200079                                                  N                     01321  0000000        000174
12062510367000102ITANHAEM TRANSP DE MAQUINAS LT                                        000000003410000000000000000000000000000087407049000000236463199667            201209202012090400000000054620000248220000000000255171000000000000000000000000006951050000000000  3020120927   01          2                                                                                   3112364631997005770252400049                                                  N                     01321  0000000        000175
12064952757000168WALMAC COM DE PROD QUIMICOS LT                                        0000000034100000000000000000000000000000860403460000002275821710020148        201208312012080300000000054420000219267000000000230904000000000000000000000000011637050000000000  3020120927   01          2                                                                                   3112275821711064807961400079                                                  N                     01321  0000000        000176
12066841552000130R V SEG PATRIMONIAL LTDA                                              00000000341000000000000000000000000000008852483200000090002192721927          201209102012081000000000054520000483241000000000485978000000000000000000000000002737050000000000  3020120927   01          2                                                                                   3109000219270001835253400099                                                  N                     01321  0000000        000177
12066899790000105FABRICA ARTEF LATEX ESTRELA EP                                        00000000399000000000000000000000000000008895786000000000000000079585 001      201211102012092600000000055130000161122000000000161122000000000000000000000000000000050000000000  3020121112   01FS        1                                                                                   3176075257221125027292500149                                                  N                     01321  0000000        000178
12066899790000105FABRICA ARTEF LATEX ESTRELA EP                                        00000000399000000000000000000000000000008895786100000000000000079585 002      201211252012092600000000055280000161122000000000161122000000000000000000000000000000050000000000  3020121126   01FS        1                                                                                   3176075257301125027292500129                                                  N                     01321  0000000        000179
12066899790000105FABRICA ARTEF LATEX ESTRELA EP                                        00000000399000000000000000000000000000008895786200000000000000079585 003      201212102012092600000000055430000161124000000000161124000000000000000000000000000000050000000000  3020121210   01FS        1                                                                                   3176075257491125027292500159                                                  N                     01321  0000000        000180
12066970229000167NEXTEL TELECOMUNICACOES LTDA                                          0000000023702374400000001596233 0000000088957856009000015144848691888 10      201210102011121400000000054820000015870000000000015870000000000000000000000000000000050000000000  3020121010   01FS        1  R GANGES  520 VILA CARRAO BR                                                     3                         000000000000000                                     N                     00598  0000000        000181
12066970229000167NEXTEL TELECOMUNICACOES LTDA                                          0000000023702374400000001596233 0000000088957855009000015144847215472 3       201210102012062100000000054820000011636000000000011636000000000000000000000000000000050000000000  3020121010   01FS        1  R GANGES  520 VILA CARRAO BR                                                     3                         000000000000000                                     N                     00598  0000000        000182
12069284248000128ISOCOAT TINTAS E VERNIZES LTDA                                        0000000034100000000000000000000000000000841061040000002182507930052085        201209172012070200000000054590000236130000000000242430000000000000000000000000006300050000000000  3020120927   01          2                                                                                   3112182507932077430121200019                                                  N                     01321  0000000        000183
12069309706000136F N A TRANSPORTES LTDA                                                000000003410000000000000000000000000000086615421000000900010656059068         201208302012081500000000054410000079200000000000086592000000000000000000000000007392050000000000  3020120927   01          2                                                                                   3109000106565005486932600099                                                  N                     01321  0000000        000184
12071580302000124SANCHEPEL IND PAULISTA EMB L                                          0000000034100000000000000000000000000000889578480000002428584667749           201210192012092400000000054910000173086000000000173086000000000000000000000000000000050000000000  3020121019   01FS        1                                                                                   3112428584661007855578600019                                                  N                     01321  0000000        000185
12071580302000124SANCHEPEL IND PAULISTA EMB L                                          0000000034100000000000000000000000000000889578490000002428589737779           201210212012092500000000054930000103500000000000103500000000000000000000000000000000050000000000  3020121022   01FS        1                                                                                   3112428589736007855578600029                                                  N                     01321  0000000        000186
12075483040000130REX MAQ E EQUIPAMENTOS LTDA                                           00000000341000000000000000000000000000008465957600000022100117076263 2 3      201209262012070400000000054680000434000000000000434854000000000000000000000000000854050000000000  3020120927   01          2                                                                                   3112210011709848301515500019                                                  N                     01321  0000000        000187
11762953468000004LAERTES ANTONIO BARUSSO                                               0000000034100000000000000000000000000000880122460000007950427428564           201209262012091100000000054680000180000000000000183954000000000000000000000000003954050000000000  3020120927   01          2                                                                                   3157950427424014026273400059                                                  N                     01321  0000000        000188
900018900000000065376117                                                                                                                                                                                                                                                                                                                                                                                                                                                                01321  0000000        000189
