0000147602043799295000110ALTAMIRA INDUSTRIA METALURGICA LT       202000000180020120727214213             3                                                                                                  000000000000000                                                                                                                                                                                                                                                                                   000001
12042956441000101SOLUCOES EM ACO USIMINAS S A                                          0000000034100000 0000000000000  I000000000009272000000000000000               201207270000000000000000054070000563488000000000563488000000000000000000000000000000010000160746  3120120727   02BW        5000000               000000000000000                                               3181512777971293807258000099               0160746/02                         N                     01132 10020256        000002
12042956441000101SOLUCOES EM ACO USIMINAS S A                                          0000000000100000 0000000000000  I000000000009271000000000000000               201207270000000000000000054070000581811000000000581811000000000000000000000000000000010000166827  3120120727   02BW        5000000               000000000000000                                               3000000169660100000865581719               0166827/01                         N                     01132 10020256        000003
12061217188000119TELAS METALICAS TELMETAL LTDA                                         0000000034100000000000000000000000000000840313220000009000028585224 1 1       201207272012062200000000054070000016336000000000016336000000000000000000000000000000050000000000  3020120727   02BW        2000000               000000000000000                                               3109000028582077098123100019               05224/01                           N                     01132 10020256        000004
12048775225000146SEIKI IND COM E CONFECCOES LTD                                        000000003410000000000000000000000000000084106103000000218400271012915001      201207272012062900000000054070000052000000000000052000000000000000000000000000000000050000000000  3020120727   02BW        2000000               000000000000000                                               3112184002718017444824100079               012915                             N                     01132 10020256        000005
12003277412000161MAC LUZ COML ELETRICA LTDA                                            000000003410000000000000000000000000000083482036000000215254593000006565B     201207272012062200000000054070000018121000000000018121000000000000000000000000000000050000000000  3020120727   02BW        2000000               000000000000000                                               3112152545938007486592400019               06565/02                           N                     01132 10020256        000006
12005151518000140BELENUS DO BRASIL LTDA                                                0000000023703389800000000015091 0000000083945275009021860002351R128108012     201207262012062600000000054060000748800000000000751271000000000000000000000000004942050000000000  3020120727   02BW        2000000               000000000000000                                               3                         000000000000000  0281080/01                         N                     01079 10020256        000007
12012256386000186TOP TRAD SERVICOS DE TEXTOS LT                                        0000000023700200300000001062603 00000000850740710090132195025722735           201207272012071300000000054070000024800000000000024800000000000000000000000000000000050000000000  3020120727   02BW        2000000               000000000000000                                               3                         000000000000000  02735                              N                     01079 10020256        000008
12042956441000101SOLUCOES EM ACO USIMINAS S A                                          0000000000100000 0000000000000  I000000000009270000000000000000               201207270000000000000000054070000614009000000000614009000000000000000000000000000000010000166812  3120120727   02BW        5000000               000000000000000                                               3000000169660100000865431729               0166812/                           N                     01132 10020256        000009
12003659166002407INST BRAS MEIO AMBIENTE REC NA                                        0000000000100000 0000000000000  I000000000009274000000000000000               201207270000000000000000054070000048119000000000048119000000000000000000000000000000050000000204  3120120727   02BW        5000000               000000000000000                                               3958408000000000198005032129               IBAMA - PARC.02/04 - EXERCICIO/2012N                     01132 10020256        000010
12047190731000100DE CASTRO LOUREIRO ENGENHARIA                                         0000000042200000 0000000000000  I000000000009269000000000000000               201207270000000000000000054070000256313000000000256313000000000000000000000000000000010000025894  3120120727   02BW        5000000               000000000000000                                               3709700002021396491400241169               025894/01                          N                     01132 10020256        000011
12000288916000199VB SERVICOS COM ADM LTDA                                              0000000003300000 0000000000000  I000000000009268000000000000000               201208070000000000000000054180000902124000000000902124000000000000000000000000000000050005552086  3120120727   02BW        5000000               000000000000000                                               3119130442690030259000337899               VB.SERV.COM.                       N                     01132 10020256        000012
12042956441000101SOLUCOES EM ACO USIMINAS S A                                          0000000000100000 0000000000000  I000000000009273000000000000000               201207270000000000000000054070000320296000000000320296000000000000000000000000000000010000166814  3120120727   02BW        5000000               000000000000000                                               3000000169660100000865491749               0166814/01                         N                     01132 10020256        000013
900001400000000004148688                                                                                                                                                                                    000000000000000                                                                                                                                                                                                                                                    00001200648940004146217        000014
