0000147602043799295000110ALTAMIRA INDUSTRIA METALURGICA LT       202000000015620121027064858             1                                                                                                                                                                                                                                                                                                                                                                                                    000001
12001895314000162COLETA INDUSTRIAL FIMAVAN LTDA                                        0000000034100000000000000000000000000000866992070000009002335349439           201208272012081700000000054380000123695000000000146896000000000000000000000000023201050000000000  3020121029   01          2                                                                                   3109002335346144604097200019                                                  N                     01321  0000000        000002
12002503185000182ANDAIMES E MAQUINAS BIG LTDA                                          000000003410000000000000000000000000000087820531000000233954448011791         201209212012082700000000054630000026000000000000027166000000000000000000000000001166050000000000  3020121029   01          2                                                                                   3112339544481925303435000019                                                  N                     01321  0000000        000003
12002503185000182ANDAIMES MAQUINAS BIG LTDA EPP                                        000000003410000000000000000000000000000086282613000000228719913011660         201208302012081000000000054410000012000000000000012720000000000000000000000000000720050000000000  3020121029   01          2                                                                                   3112287199130650303800900039                                                  N                     01321  0000000        000004
12002503185000182ANDAIMES MAQUINAS BIG LTDA EPP                                        0000000034100000000000000000000000000000874070480000002313590765101           201209142012082000000000054560000016500000000000017325000000000000000000000000000825050000000000  3020121029   01          2                                                                                   3112313590765650303800900019                                                  N                     01321  0000000        000005
12002583013000166ITAN TRANSP DE CARGAS EXC E IN                                        000000003410000000000000000000000000000088769806000000241619341008 E          201210212012091800000000054930000105350000000000108718000000000000000000000000003368050000000000  3020121029   01          2                                                                                   3112416193418005770252400019                                                  N                     01321  0000000        000006
12002583013000166ITAN TRANSP DE CARGAS EXC E IN                                        000000003410000000000000000000000000000088350835000000239377421008 A          201210142012091400000000054860000192500000000000204050000000000000000000000000011550050000000000  3020121029   01          2                                                                                   3112393774214005770252400019                                                  N                     01321  0000000        000007
12002583013000166ITAN TRANSP DE CARGAS EXC E IN                                        000000003410000000000000000000000000000088350836000000239377422008 B          201210212012091400000000054930000192500000000000198660000000000000000000000000006160050000000000  3020121029   01          2                                                                                   3112393774222005770252400039                                                  N                     01321  0000000        000008
12002583013000166ITAN TRANSP DE CARGAS EXC E IN                                        000000003410000000000000000000000000000088769805000000241619340008 D          201210142012091800000000054860000105350000000000111665000000000000000000000000006315050000000000  3020121029   01          2                                                                                   3112416193400005770252400019                                                  N                     01321  0000000        000009
12003163055000100JN FOMENTO MERCANTIL LTDA                                             000000004220000000000000000000000000000089229252000000000000000944 12         201210232012092700000000054950000095000000000000096140000000000000000000000000001140050000000000  3020121029   01          2                                                                                   3702200002006382926631195159                                                  N                     01321  0000000        000010
12003489596000123BEND FLEX I COMERCIO LTDA                                             000000003410000000000000000000000000000088599899000000171434574613            201209172012081600000000054590000585000000000000633342000000000000000000000000048342050000000000  3020121029   01          2                                                                                   3191714345748157734445800019                                                  N                     01321  0000000        000011
12003489596000123BEND FLEX I COMERCIO LTDA                                             000000003410000000000000000000000000000088350832000000171879874608            201209122012082100000000054540000695250000000000759499000000000000000000000000064249050000000000  3020121029   01          2                                                                                   3191718798744157734445800069                                                  N                     01321  0000000        000012
12004934836000114GUAIRA MAT PARA CONSTR LTDA ME                                        00000000341000000000000000000000000000008876979900000090011431423736          201210192012091900000000054910000055500000000000056980000000000000000000000000001480050000000000  3020121029   01          2                                                                                   3109001143140076568242200039                                                  N                     01321  0000000        000013
12005852768000107DAOUD LEAL ELETRONICA LTDA ME                                         000000003410000000000000000000000000000089337382000000615297518OUTUBRO        201210262012100200000000054980000016558000000000016988000000000000000000000000000430050000000000  3020121029   01          2                                                                                   3156152975181152944476000059                                                  N                     01321  0000000        000014
12005880850000145NEDERMAN BRASIL COM PROD EX LT                                        000000003410000000000000000000000000000086373178000000614350956002763 A       201209252012081400000000054670000289674000000000309054000000000000000000000000019380050000000000  3020121029   01          2                                                                                   3156143509568160829000100049                                                  N                     01321  0000000        000015
12006000195000156MBA MERCANTIL BRAS DE ACO LTDA                                        0000000034100000000000000000000000000000904173160000001667238280008876B03     201210122012071600000000054840000810320000000000837418000000000000000000000000027098050000000000  3020121029   01          2                                                                                   3191667238288064849251000079                                                  N                     01321  0000000        000016
12006000195000156MBA MERCANTIL BRAS DE ACO LTDA                                        0000000034100000000000000000000000000000904173170000001671394420008925B03     201210122012071700000000054840000719580000000000743635000000000000000000000000024055050000000000  3020121029   01          2                                                                                   3191671394424064849251000069                                                  N                     01321  0000000        000017
12006000195000156MBA MERCANTIL BRAS DE ACO LTDA                                        0000000034100000000000000000000000000000904173180000001671394430008926B03     201210122012071700000000054840000387716000000000400687000000000000000000000000012971050000000000  3020121029   01          2                                                                                   3191671394432064849251000079                                                  N                     01321  0000000        000018
12006000195000156MBA MERCANTIL BRAS DE ACO LTDA                                        0000000034100000000000000000000000000000904173140000001667238290008874B03     201210112012071600000000054830000802825000000000831247000000000000000000000000028422050000000000  3020121029   01          2                                                                                   3191667238296064849251000069                                                  N                     01321  0000000        000019
12006000195000156MBA MERCANTIL BRAS DE ACO LTDA                                        0000000034100000000000000000000000000000904173150000001667238300008870B03     201210092012071600000000054810000839951000000000872991000000000000000000000000033040050000000000  3020121029   01          2                                                                                   3191667238304064849251000039                                                  N                     01321  0000000        000020
12006000195000156MBA MERCANTIL BRAS DE ACO LTDA                                        0000000034100000000000000000000000000000885998980000001667238420008870B02     201209112012071600000000054530000839952000000000919248000000000000000000000000079296050000000000  3020121029   01          2                                                                                   3191667238429064849251000039                                                  N                     01321  0000000        000021
12006000195000156MBA MERCANTIL BRAS DE ACO LTDA                                        0000000034100000000000000000000000000000887698090000001671394550008925B02     201209142012071700000000054560000719581000000000783256000000000000000000000000063675050000000000  3020121029   01          2                                                                                   3191671394556064849251000089                                                  N                     01321  0000000        000022
12006000195000156MBA MERCANTIL BRAS DE ACO LTDA                                        0000000034100000000000000000000000000000887698100000001671394560008926B02     201209142012071700000000054560000387716000000000422051000000000000000000000000034335050000000000  3020121029   01          2                                                                                   3191671394564064849251000019                                                  N                     01321  0000000        000023
12006000195000156MBA MERCANTIL BRAS DE ACO LTDA                                        0000000034100000000000000000000000000000906662670000001671394410008920B03     201210142012071700000000054860000576584000000000593594000000000000000000000000017010050000000000  3020121029   01          2                                                                                   3191671394416064849251000039                                                  N                     01321  0000000        000024
12006000195000156MBA MERCANTIL BRAS DE ACO LTDA                                        0000000034100000000000000000000000000000889578520000001671394540008920B02     201209162012071700000000054580000576585000000000625347000000000000000000000000048762050000000000  3020121029   01          2                                                                                   3191671394549064849251000099                                                  N                     01321  0000000        000025
12006000195000156M B A MERCANTIL BRASILEIRA DE                                         0000000000100000000000000000000000000000855028870000007952880000009006B03     201210232012073000000000054950000235480000000000237832000000000000000000000000002352050000000000  3020121029   01          2                                                                                   3043937952883333000105251139                                                  N                     01321  0000000        000026
12006000195000156M B A MERCANTIL BRASILEIRA DE                                         0000000000100000000000000000000000000000855028920000007952940000009010B03     201210252012073000000000054970000275045000000000276877000000000000000000000000001832050000000000  3020121029   01          2                                                                                   3043937952943333000105251199                                                  N                     01321  0000000        000027
12006000195000156M B A MERCANTIL BRASILEIRA DE                                         0000000000100000000000000000000000000000855028940000007952910000009007B03     201210242012073000000000054960000428086000000000431651000000000000000000000000003565050000000000  3020121029   01          2                                                                                   3043937952913333000105251199                                                  N                     01321  0000000        000028
12006000195000156MBA MERCL BRASILEIRA ACO LTDA                                         0000000042200000000000000000000000000000859590580000000000000000009051B03     201210242012080300000000054960000180456000000000181960000000000000000000000000001504050000000000  3020121029   01          2                                                                                   3701600007451936910173834199                                                  N                     01321  0000000        000029
12006000195000156M B A MERCANTIL BRASILEIRA DE                                         0000000023700118P00000002130599 00000000848180740020220100000050008872B03     201210092012071700000000054810000112772000000000114276000000000000000000000000001692050000000000  3020121017   06          3  RUA JUNO  533                                                                    3                         000000000000000                                     N                     00598  0000000        000030
12006000195000156M B A MERCANTIL BRASILEIRA DE                                         0000000023700118P00000002130599 00000000865388230020222900000440009203B02     201210102012081500000000054820000344980000000000348430000000000000000000000000004025050000000000  3020121016   06          3  RUA JUNO  533                                                                    3                         000000000000000                                     N                     00598  0000000        000031
12006000195000156MBA MERCANTIL BRAS DE ACO LTDA                                        0000000034100000000000000000000000000000884432620000002398047860009541B01     201210112012091320121011054830000808555000000000183977000000000624578000000000000000050000000000  3020121011   05          3                                                                                   3112398047863064899001800019                                                  N                     01321  0000000        000032
12006000195000156MBA MERCANTIL BRAS DE ACO LTDA                                        0000000034100000000000000000000000000000884432690000002398047890009542B01     201210112012091300000000054830000129873000000000129873000000000000000000000000000000050000000000  3020121011   05          3                                                                                   3112398047897064899001800019                                                  N                     01321  0000000        000033
12006000195000156M B A MERCANTIL BRASILEIRA DE                                         0000000023700118P00000002130599 00000000868592690020223600000020009229B02     201210112012081600000000054830000253414000000000261010000000000000000000000000007596050000000000  3020121029   01          2  RUA JUNO  533                                                                    3                         000000000000000                                     N                     00598  0000000        000034
12006000195000156M B A MERCANTIL BRASILEIRA DE                                         0000000023700118P00000002130599 00000000865388260020222900000470009204B02     201210112012081500000000054830000127292000000000131108000000000000000000000000003816050000000000  3020121029   01          2  RUA JUNO  533                                                                    3                         000000000000000                                     N                     00598  0000000        000035
12006000195000156M B A MERCANTIL BRASILEIRA DE                                         0000000023700118P00000002130599 00000000865388290020222900000500009205B02     201210122012081500000000054840000348964000000000358858000000000000000000000000009894050000000000  3020121029   01          2  RUA JUNO  533                                                                    3                         000000000000000                                     N                     00598  0000000        000036
12006000195000156M B A MERCANTIL BRASILEIRA DE                                         0000000023700118P00000002130599 00000000848180770020220100000340008905B03     201210112012071900000000054830000155300000000000159962000000000000000000000000004662050000000000  3020121029   01          2  RUA JUNO  533                                                                    3                         000000000000000                                     N                     00598  0000000        000037
12006000195000156M B A MERCANTIL BRASILEIRA DE                                         0000000023700118P00000002130599 00000000853155000020220900000460008967B03     201210182012072400000000054900000135605000000000138091000000000000000000000000002486050000000000  3020121029   01          2  RUA JUNO  533                                                                    3                         000000000000000                                     N                     00598  0000000        000038
12006000195000156M B A MERCANTIL BRASILEIRA DE                                         0000000023700118P00000002130599 00000000853155030020220900000530008971B03     201210162012072400000000054880000170465000000000174157000000000000000000000000003692050000000000  3020121029   01          2  RUA JUNO  533                                                                    3                         000000000000000                                     N                     00598  0000000        000039
12006000195000156M B A MERCANTIL BRASILEIRA DE                                         0000000023700118P00000002130599 00000000853155060020220900000660008985B03     201210172012072500000000054890000141846000000000144678000000000000000000000000002832050000000000  3020121029   01          2  RUA JUNO  533                                                                    3                         000000000000000                                     N                     00598  0000000        000040
12006000195000156M B A MERCANTIL BRASILEIRA DE                                         0000000023700118P00000002130599 00000000865388320020222900000530009206B02     201210132012081500000000054850000527560000000000541624000000000000000000000000014064050000000000  3020121029   01          2  RUA JUNO  533                                                                    3                         000000000000000                                     N                     00598  0000000        000041
12006000195000156M B A MERCANTIL BRASILEIRA DE                                         0000000023700118P00000002130599 00000000853155090020220900000690008986B03     201210172012072500000000054890000126718000000000129250000000000000000000000000002532050000000000  3020121029   01          2  RUA JUNO  533                                                                    3                         000000000000000                                     N                     00598  0000000        000042
12006000195000156M B A MERCANTIL BRASILEIRA DE                                         0000000023700118P00000002130599 00000000853155120020220900000720008987B03     201210182012072500000000054900000188368000000000191822000000000000000000000000003454050000000000  3020121029   01          2  RUA JUNO  533                                                                    3                         000000000000000                                     N                     00598  0000000        000043
12007565346000186ALFLEX PLASTICOS E FERRAGENS L                                        0000000023701416800000000407607 0000000088769812009013226800206S000000196     201210232012092400000000054950000187500000000000195000000000000000000000000000007500050000000000  3020121029   01          2  RUA TAMAINDE  1410                                                               3                         000000000000000                                     N                     00598  0000000        000044
12007988026000139POINTER DIST DE PROD ELET LTDA                                        0000000034100000000000000000000000000000900522950000002405182085452           201210162012091800000000054880000018200000000000018200000000000000000000000000000000050000000000  3020121016   06          3                                                                                   3112405182083077084107000039                                                  N                     01321  0000000        000045
12009043000000143GERSON D DA SILVA SEGURANCA DO                                        000000003990000000000000000000000000000090830965000000000000000397            201211152012102600000000055180000071586000000000071586000000000000000000000000000000050000000000  3020121116   01FS        1                                                                                   3304770038140477000087000119                                                  N                     01321  0000000        000046
12009057974000186PAMASI TECNOLOGIA DE ATIVOS E                                         0000000023700498700000000742600 000000009075188100902299000000414219          201210242012100300000000054960000017000000000000017620000000000000000000000000000620050000000000  3020121029   01          2  RUA GANGES 528                          TERRA DIESEL COM DE PECAS P CAMINHOES    3                         006894969000130                                     N                     00598  0000000        000047
12009338857000190FERNANDO  NAGAO  CARDONE  ALVA                                        000000000330000000000000000000000000000089697936000000800000000ALTA 10 2012   201210202012092500000000054920000134632000000000139614000000000000000000000000004982050000000000  3020121029   01          2                                                                                   3947901700000051050080010129                                                  N                     01321  0000000        000048
12009419898000101LUSITANO INDUSTRIA C E P LTDA                                         00000000341000000000000000000000000000008653882000000090000757101 10137 2     201209192012081500000000054610000035135000000000039815000000000000000000000000004680050000000000  3020121029   01          2                                                                                   3109000075716001160072300049                                                  N                     01321  0000000        000049
12012006058000121WEG TINTAS LTDA                                                       0000000023702727800000000001309 00000000847452160090220000000930015248103     201209302012071700000000054720000306662000000000318494000000000000000000000000011832050000000000  3020121029   01          2  R JUNO  533                                                                      3                         000000000000000                                     N                     00598  0000000        000050
12012006058000121WEG TINTAS LTDA                                                       0000000023702727800000000001309 00000000870177480090224100000970016248001     201210112012082700000000054830000306569000000000313913000000000000000000000000007344050000000000  3020121029   01          2  R JUNO  533                                                                      3                         000000000000000                                     N                     00598  0000000        000051
12012006058000121WEG TINTAS LTDA                                                       0000000023702727800000000001309 00000000854049560090221200001020015513003     201210102012072700000000054820000459992000000000471639000000000000000000000000011647050000000000  3020121029   01          2  R JUNO  533                                                                      3                         000000000000000                                     N                     00598  0000000        000052
12012006058000121WEG TINTAS LTDA                                                       0000000023702727800000000001309 00000000856071260090221400000830015587302     201209292012073100000000054710000459854000000000478244000000000000000000000000018390050000000000  3020121029   01          2  R JUNO  533                                                                      3                         000000000000000                                     N                     00598  0000000        000053
12012006058000121WEG TINTAS LTDA                                                       0000000023702727800000000001309 00000000856071270090221400000840015587303     201210142012073100000000054860000459992000000000469187000000000000000000000000009195050000000000  3020121029   01          2  R JUNO  533                                                                      3                         000000000000000                                     N                     00598  0000000        000054
12012006058000121WEG TINTAS LTDA                                                       0000000023702727800000000001309 00000000849855340090220500001220015343103     201210032012072000000000054750000306662000000000317270000000000000000000000000010608050000000000  3020121029   01          2  R JUNO  533                                                                      3                         000000000000000                                     N                     00598  0000000        000055
12012006058000121WEG TINTAS LTDA                                                       0000000023702727800000000001309 00000000864554440090222800000730015908401     201209282012081400000000054700000306569000000000319217000000000000000000000000012648050000000000  3020121029   01          2  R JUNO  533                                                                      3                         000000000000000                                     N                     00598  0000000        000056
12012006058000121WEG TINTAS LTDA                                                       0000000023702727800000000001309 00000000864554450090222800000740015908402     201210132012081400000000054850000306569000000000313097000000000000000000000000006528050000000000  3020121029   01          2  R JUNO  533                                                                      3                         000000000000000                                     N                     00598  0000000        000057
12012006058000121WEG TINTAS LTDA                                                       0000000023702727800000000001309 00000000856071250090221400000820015587301     201209142012073100000000054560000459854000000000478857000000000000000000000000019616050000000000  3020121015   06          3  R JUNO  533                                                                      3                         000000000000000                                     N                     00598  0000000        000058
12012006058000121WEG TINTAS LTDA                                                       0000000023702727800000000001309 00000000847452150090220000000920015248102     201209152012071700000000054570000306569000000000318809000000000000000000000000012648050000000000  3020121015   06          3  R JUNO  533                                                                      3                         000000000000000                                     N                     00598  0000000        000059
12012006058000121WEG TINTAS LTDA                                                       0000000023702727800000000001309 00000000870177490090224100000980016248002     201210262012082700000000054980000306569000000000307793000000000000000000000000001224050000000000  3020121029   01          2  R JUNO  533                                                                      3                         000000000000000                                     N                     00598  0000000        000060
12012006058000121WEG TINTAS LTDA                                                       0000000023702727800000000001309 00000000878206040090225400000780016517201     201210212012090600000000054930000459854000000000464758000000000000000000000000004904050000000000  3020121029   01          2  R JUNO  533                                                                      3                         000000000000000                                     N                     00598  0000000        000061
12012006058000121WEG TINTAS LTDA                                                       0000000023702727800000000001309 00000000872318650090224700001030016359601     201210152012083100000000054870000459854000000000468436000000000000000000000000008582050000000000  3020121029   01          2  R JUNO  533                                                                      3                         000000000000000                                     N                     00598  0000000        000062
12012006058000121WEG TINTAS LTDA                                                       0000000023702727800000000001309 00000000868126340090223500001170016086601     201210052012082100000000054770000306569000000000316361000000000000000000000000009792050000000000  3020121029   01          2  R JUNO  533                                                                      3                         000000000000000                                     N                     00598  0000000        000063
12012006058000121WEG TINTAS LTDA                                                       0000000023702727800000000001309 00000000868126350090223500001180016086602     201210202012082100000000054920000306569000000000310241000000000000000000000000003672050000000000  3020121029   01          2  R JUNO  533                                                                      3                         000000000000000                                     N                     00598  0000000        000064
12012006058000121WEG TINTAS LTDA                                                       0000000023702727800000000001309 00000000861207270090222200000910015775002     201210072012080800000000054790000306569000000000315545000000000000000000000000008976050000000000  3020121029   01          2  R JUNO  533                                                                      3                         000000000000000                                     N                     00598  0000000        000065
12012006058000121WEG TINTAS LTDA                                                       0000000023702727800000000001309 00000000861207280090222200000920015775003     201210222012080800000000054940000306662000000000309518000000000000000000000000002856050000000000  3020121029   01          2  R JUNO  533                                                                      3                         000000000000000                                     N                     00598  0000000        000066
12012707981000190MAC CINTAS E A CARGAS LTDA ME                                         000000003410000000000000000000000000000088957850000000242876074609            201210182012092500000000054900000072500000000000074623000000000000000000000000002123050000000000  3020121029   01          2                                                                                   3112428760741068283895800029                                                  N                     01321  0000000        000067
12014978305000187MOGI FILME INDUSTRIA E COMERCI                                        0000000023700402200000001055003 0000000088599905009022640000016351            201210202012092000000000054920000139691000000000145946000000000000000000000000006255050000000000  3020121029   01          2  RUA TAMAINDE 1410 VL NOVA MANCHESTER                                             3                         000000000000000                                     N                     00598  0000000        000068
12016802308000190TRANSMARRECO LTDA                                                     000000000330000000000000000000000000000088769814000000640000000353 12         201210052012092100000000054770000106581000000000116393000000000000000000000000009812050000000000  3020121029   01          2                                                                                   3907636240000000643564010119                                                  N                     01321  0000000        000069
12033325184001786ALSCO TOALHEIRO BRASIL                                                0000000023703396000000001490850 0000000090830963009000002770505VM27705        201211082012101900000000055110000051893000000000051893000000000000000000000000000000050000000000  3020121108   01FS        1  RUA  GANGES 528                                                                  3                         000000000000000                                     N                     00598  0000000        000070
12033325184001786ALSCO TOALHEIRO BRASIL                                                0000000023703396000000001490850 0000000089697953009000002751805VM27518        201210242012100400000000054960000068498000000000068838000000000000000000000000000340050000000000  3020121029   01          2  RUA  GANGES 528                                                                  3                         000000000000000                                     N                     00598  0000000        000071
12035820448000136WHITE MARTINS GASES INDUSTRIAI                                        0000000023700026400000003937925 0000000089133532009022720000268387376 001     201210252012092800000000054970000121725000000000124323000000000000000000000000002598050000000000  3020121029   01          2  RUA GANGES  528                                                                  3                         000000000000000                                     N                     00598  0000000        000072
12035820448000136WHITE MARTINS GASES INDUSTRIAI                                        0000000023700026400000003937925 0000000087820600009022540001838377866 001     201210042012090700000000054760000202876000000000208633000000000000000000000000005757050000000000  3020121029   01          2  RUA GANGES  528                                                                  3                         000000000000000                                     N                     00598  0000000        000073
12035820448000136WHITE MARTINS GASES INDUSTRIAI                                        0000000023700026400000003937925 0000000089133533009022720004128386815 001     201210252012092800000000054970000017600000000000017976000000000000000000000000000376050000000000  3020121029   01          2  RUA GANGES  528                                                                  3                         000000000000000                                     N                     00598  0000000        000074
12035820448000136WHITE MARTINS GASES INDUSTRIAI                                        0000000023700026400000003937925 0000000088191338009022570001466379316 001     201210092012091300000000054810000085208000000000087472000000000000000000000000002264050000000000  3020121029   01          2  RUA GANGES  528                                                                  3                         000000000000000                                     N                     00598  0000000        000075
12035820448000136WHITE MARTINS GASES INDUSTRIAI                                        0000000023700026400000003937925 0000000088524829009022630001577381808 001     201210162012091900000000054880000121725000000000124692000000000000000000000000002967050000000000  3020121029   01          2  RUA GANGES  528                                                                  3                         000000000000000                                     N                     00598  0000000        000076
12035820448000136WHITE MARTINS GASES INDUSTRIAI                                        0000000023700026400000003937925 0000000088686659009022650001000382942 001     201210182012092100000000054900000121725000000000124610000000000000000000000000002885050000000000  3020121029   01          2  RUA GANGES  528                                                                  3                         000000000000000                                     N                     00598  0000000        000077
12035820448000136WHITE MARTINS GASES INDUSTRIAI                                        0000000023700026400000003937925 0000000088957851009022700001298384214 001     201210232012092600000000054950000121725000000000124405000000000000000000000000002680050000000000  3020121029   01          2  RUA GANGES  528                                                                  3                         000000000000000                                     N                     00598  0000000        000078
12035820448000136WHITE MARTINS GASES INDUSTRIAI                                        0000000023700026400000003937925 0000000090830964009023000010515399902 001     201211222012102600000000055250000017600000000000017600000000000000000000000000000000050000000000  3020121122   01FS        1  RUA GANGES  528                                                                  3                         000000000000000                                     N                     00598  0000000        000079
12042956441000101SOLUCOES ACO USIMINAS                                                 0000000034100000000000000000000000000000847452100000002216130340017012402     201209102012071500000000054520000147428000000000161883000000000000000000000000014455050000000000  3020121029   01          2                                                                                   3112216130347293807258000059                                                  N                     01321  0000000        000080
12042956441000101SOLUCOES ACO USIMINAS                                                 0000000034100000000000000000000000000000859590620000002274469790017353702     201209282012080300000000054700000081053000000000086075000000000000000000000000005022050000000000  3020121029   01          2                                                                                   3112274469793293807258000069                                                  N                     01321  0000000        000081
12042956441000101SOLUCOES ACO USIMINAS                                                 0000000034100000000000000000000000000000855028690000002254329380017212902     201209212012072600000000054630000140098000000000150738000000000000000000000000010640050000000000  3020121029   01          2                                                                                   3112254329389293807258000019                                                  N                     01321  0000000        000082
12042956441000101SOLUCOES ACO USIMINAS                                                 0000000034100000000000000000000000000000855028700000002254329390017213002     201209212012072600000000054630000140602000000000151280000000000000000000000000010678050000000000  3020121029   01          2                                                                                   3112254329397293807258000089                                                  N                     01321  0000000        000083
12042956441000101SOLUCOES ACO USIMINAS                                                 0000000034100000000000000000000000000000855028770000002254329400017220502     201209212012072700000000054630000981022000000001055578000000000000000000000000074556050000000000  3020121029   01          2                                                                                   3112254329405293807258000099                                                  N                     01321  0000000        000084
12042956441000101SOLUCOES ACO USIMINAS                                                 0000000034100000000000000000000000000000856906410000002262886280017266201     201208282012073000000000054390000119472000000000134290000000000000000000000000014818050000000000  3020121029   01          2                                                                                   3112262886289293807258000089                                                  N                     01321  0000000        000085
12042956441000101SOLUCOES ACO USIMINAS                                                 0000000034100000000000000000000000000000856906420000002262886290017266301     201208282012073000000000054390000145069000000000163049000000000000000000000000017980050000000000  3020121029   01          2                                                                                   3112262886297293807258000099                                                  N                     01321  0000000        000086
12042956441000101SOLUCOES ACO USIMINAS                                                 0000000034100000000000000000000000000000853154840000002246247030017196702     201209202012072500000000054620000234841000000000253171000000000000000000000000018330050000000000  3020121029   01          2                                                                                   3112246247038293807258000099                                                  N                     01321  0000000        000087
12042956441000101SOLUCOES ACO USIMINAS                                                 0000000034100000000000000000000000000000846595700000002210880280016980502     201209102012071200000000054520000156071000000000171359000000000000000000000000015288050000000000  3020121029   01          2                                                                                   3112210880285293807258000039                                                  N                     01321  0000000        000088
12042956441000101SOLUCOES ACO USIMINAS                                                 0000000034100000000000000000000000000000853154850000002246247040017197302     201209202012072500000000054620000970103000000001045763000000000000000000000000075660050000000000  3020121029   01          2                                                                                   3112246247046293807258000019                                                  N                     01321  0000000        000089
12042956441000101SOLUCOES ACO USIMINAS                                                 0000000034100000000000000000000000000000846595710000002210880290016980602     201209102012071200000000054520000426094000000000467842000000000000000000000000041748050000000000  3020121029   01          2                                                                                   3112210880293293807258000019                                                  N                     01321  0000000        000090
12042956441000101SOLUCOES ACO USIMINAS                                                 0000000034100000000000000000000000000000847452070000002216130350005922202     201209102012071600000000054520000172071000000000188927000000000000000000000000016856050000000000  3020121029   01          2                                                                                   3112216130354293807258000049                                                  N                     01321  0000000        000091
12042956441000101SOLUCOES ACO USIMINAS                                                 0000000034100000000000000000000000000000848180700000002220192900017041002     201209112012071700000000054530000155433000000000170361000000000000000000000000014928050000000000  3020121029   01          2                                                                                   3112220192903293807258000029                                                  N                     01321  0000000        000092
12042956441000101SOLUCOES ACO USIMINAS                                                 0000000034100000000000000000000000000000848180710000002220192910017041202     201209112012071700000000054530000205421000000000225149000000000000000000000000019728050000000000  3020121029   01          2                                                                                   3112220192911293807258000019                                                  N                     01321  0000000        000093
12042956441000101SOLUCOES ACO USIMINAS                                                 0000000034100000000000000000000000000000850740460000002233586800017127201     201208202012072000000000054310000137881000000000157201000000000000000000000000019320050000000000  3020121029   01          2                                                                                   3112233586802293807258000019                                                  N                     01321  0000000        000094
12042956441000101SOLUCOES ACO USIMINAS                                                 0000000034100000000000000000000000000000850740470000002233586810017101002     201209142012071900000000054560000732575000000000798500000000000000000000000000065925050000000000  3020121029   01          2                                                                                   3112233586810293807258000019                                                  N                     01321  0000000        000095
12042956441000101SOLUCOES ACO USIMINAS                                                 0000000034100000000000000000000000000000850740480000002233586820017101202     201209142012071900000000054560000144634000000000157639000000000000000000000000013005050000000000  3020121029   01          2                                                                                   3112233586828293807258000029                                                  N                     01321  0000000        000096
12043217850000159IOB INFORMACOES OBJ  PUBL JURI                                        0000000023702374400000002958600 000000008711912800902243000063301440820F2     201209202012083000000000054620000072850000000000075243000000000000000000000000002393050000000000  3020121029   01          2  R GANGES 528                                                                     3                         000000000000000                                     N                     00598  0000000        000097
12045987005000198D PASCHOAL AUTOMOTIVA LTDA                                            0000000023702002800000000147001 00000000886866600110000000171650000000036     201210192012091900000000054910000032500000000000033570000000000000000000000000001070050000000000  3020121029   01          2  R   TAMAINDE                       01410                                         3                         000000000000000                                     N                     00598  0000000        000098
12047190731000100DE CASTRO LOUR ENG IND LTDA                                           00000000341000000000000000000000000000008782051200000023399953803026613 0     201209182012082100000000054600001107989000000001197328000000000000000000000000089339050000000000  3020121029   01          2                                                                                   3112339995386036884500400039                                                  N                     01321  0000000        000099
12047190731000100DE CASTRO LOUR ENG IND LTDA                                           00000000341000000000000000000000000000008782051600000023399954103026614 0     201209182012082100000000054600001047621000000001132081000000000000000000000000084460050000000000  3020121029   01          2                                                                                   3112339995410036884500400039                                                  N                     01321  0000000        000100
12047190731000100DE CASTRO LOUR ENG IND LTDA                                           00000000341000000000000000000000000000008782052000000023399955303026632 0     201209192012082200000000054610000952073000000001026953000000000000000000000000074880050000000000  3020121029   01          2                                                                                   3112339995535036884500400019                                                  N                     01321  0000000        000101
12047190731000100DE CASTRO LOUR ENG IND LTDA                                           00000000341000000000000000000000000000008782052100000023399955903026643 0     201209202012082300000000054620000867039000000000933534000000000000000000000000066495050000000000  3020121029   01          2                                                                                   3112339995592036884500400049                                                  N                     01321  0000000        000102
12047190731000100DE CASTRO LOUR ENG IND LTDA                                           00000000341000000000000000000000000000008782052500000023399955603026636 0     201209192012082200000000054610000940804000000001014804000000000000000000000000074000050000000000  3020121029   01          2                                                                                   3112339995568036884500400049                                                  N                     01321  0000000        000103
12047190731000100DE CASTRO LOUR ENG IND LTDA                                           00000000341000000000000000000000000000008782052700000023399956203026648 0     201209202012082300000000054620000976053000000001050933000000000000000000000000074880050000000000  3020121029   01          2                                                                                   3112339995626036884500400029                                                  N                     01321  0000000        000104
12047190731000100DE CASTRO LOUR ENG IND LTDA                                           00000000341000000000000000000000000000008782050900000023399953503026612 0     201209182012082100000000054600001111489000000001201115000000000000000000000000089626050000000000  3020121029   01          2                                                                                   3112339995352036884500400019                                                  N                     01321  0000000        000105
12048775225000146SEIKI IND COM E CONFECCOES LTD                                        000000003410000000000000000000000000000089337376000000244697151014914001      201210232012092500000000054950000052000000000000052468000000000000000000000000000468050000000000  3020121029   01          2                                                                                   3112446971510017444824100089                                                  N                     01321  0000000        000106
12049341563000132JAC COMERCIO DE MATERIAIS ELET                                        0000000023700293300000001478699 00000000892292560020132275064582321701        201210262012100100000000054980000046351000000000046582000000000000000000000000000231050000000000  3020121029   01          2  R GANGES 528                                                                     3                         000000000000000                                     N                     00598  0000000        000107
12051180370000199IGUAFER FERRO E ACO LTDA                                              0000000034100000000000000000000000000000852309100000002239389789443 B         201209022012071800000000054440000168275000000000184235000000000000000000000000015960050000000000  3020121029   01          2                                                                                   3112239389789077149484600089                                                  N                     01321  0000000        000108
12051180370000199IGUAFER FERRO E ACO LTDA                                              0000000034100000000000000000000000000000852309110000002239389799443 C         201209122012071800000000054540000168275000000000181435000000000000000000000000013160050000000000  3020121029   01          2                                                                                   3112239389797077149484600089                                                  N                     01321  0000000        000109
12053585766000141MULTIACOS I C PRODS TEC LTDA                                          0000000042200000000000000000000000000000895189700000000000000000004532303     201210222012100200000000054940000257380000000000260382000000000000000000000000003002050000000000  3020121029   01          2                                                                                   3711500005033164927762102129                                                  N                     01321  0000000        000110
12053585766000141MULTIACOS I C PRODS TEC LTDA                                          0000000042200000000000000000000000000000895189750000000000000000004674601     201210232012100200000000054950000130662000000000131969000000000000000000000000001307050000000000  3020121029   01          2                                                                                   3711500005033164927762218119                                                  N                     01321  0000000        000111
12053585766000141MULTIACOS I C PRODS TEC LTDA                                          0000000042200000000000000000000000000000890457020000000000000000004604502     201210222012092500000000054940000910103000000000920721000000000000000000000000010618050000000000  3020121029   01          2                                                                                   3711500005033164925775240159                                                  N                     01321  0000000        000112
12053585766000141MULTIACOS I C PRODS TEC LTDA                                          0000000042200000000000000000000000000000895189440000000000000000004604402     201210222012100200000000054940000189937000000000192155000000000000000000000000002218050000000000  3020121029   01          2                                                                                   3711500005033164927761882169                                                  N                     01321  0000000        000113
12053585766000141MULTIACOS IND E CO                                                    0000000034100000000000000000000000000000885998960000002407458090004685001     201210252012091300000000054970000563931000000000567691000000000000000000000000003760050000000000  3020121029   01          2                                                                                   3112407458093293803748400099                                                  N                     01321  0000000        000114
12053585766000141MULTIACOS IND E CO                                                    0000000034100000000000000000000000000000885998970000002407458080004532103     201210222012081300000000054940000883908000000000894219000000000000000000000000010311050000000000  3020121029   01          2                                                                                   3112407458085293803748400049                                                  N                     01321  0000000        000115
12053585766000141MULTIACOS I C PRODS TEC LTDA                                          0000000042200000000000000000000000000000887697900000000000000000004612302     201210232012092000000000054950000636673000000000643038000000000000000000000000006365050000000000  3020121029   01          2                                                                                   3711500005033164923629602139                                                  N                     01321  0000000        000116
12053585766000141MULTIACOS I C PRODS TEC LTDA                                          0000000042200000000000000000000000000000887697940000000000000000004612202     201210232012092000000000054950000214553000000000216700000000000000000000000000002147050000000000  3020121029   01          2                                                                                   3711500005033164923629629119                                                  N                     01321  0000000        000117
12053585766000141MULTIACOS I C PRODS TEC LTDA                                          0000000042200000000000000000000000000000895189480000000000000000004612002     201210232012100200000000054950000465862000000000470517000000000000000000000000004655050000000000  3020121029   01          2                                                                                   3711500005033164927761939169                                                  N                     01321  0000000        000118
12053585766000141MULTIACOS I C PRODS TEC LTDA                                          0000000042200000000000000000000000000000895189690000000000000000004545103     201210242012100200000000054960000305114000000000307658000000000000000000000000002544050000000000  3020121029   01          2                                                                                   3711500005033164927762145119                                                  N                     01321  0000000        000119
12053585766000141MULTIACOS I C PRODS TEC LTDA                                          0000000042200000000000000000000000000000883508170000000000000000004674501     201210232012091300000000054950000282316000000000285141000000000000000000000000002825050000000000  3020121029   01          2                                                                                   3711500005033164921116471119                                                  N                     01321  0000000        000120
12053585766000141MULTIACOS I C PRODS TEC LTDA                                          0000000042200000000000000000000000000000883508230000000000000000004674401     201210232012091300000000054950000397384000000000401355000000000000000000000000003971050000000000  3020121029   01          2                                                                                   3711500005033164921116501119                                                  N                     01321  0000000        000121
12053585766000141MULTIACOS I C PRODS TEC LTDA                                          0000000042200000000000000000000000000000883508250000000000000000004553203     201210252012091300000000054970001115009000000001122440000000000000000000000000007431050000000000  3020121029   01          2                                                                                   3711500005033164921116519149                                                  N                     01321  0000000        000122
12053585766000141MULTIACOS I C PRODS TEC LTDA                                          0000000042200000000000000000000000000000883508280000000000000000004539303     201210232012091300000000054950001021454000000001031665000000000000000000000000010211050000000000  3020121029   01          2                                                                                   3711500005033164921116608159                                                  N                     01321  0000000        000123
12053585766000141MULTIACOS I C PRODS TEC LTDA                                          0000000042200000000000000000000000000000895189790000000000000000004545203     201210242012100200000000054960001004573000000001012942000000000000000000000000008369050000000000  3020121029   01          2                                                                                   3711500005033164927762242159                                                  N                     01321  0000000        000124
12053585766000141MULTIACOS COM DE PRODUTOS TECN                                        0000000023703398700000000011290 00000000888733100020226900000690004642101     201210162012090400000000054880000251722000000000257182000000000000000000000000005460050000000000  3020121029   01          2  RUA JUNO  533                                                                    3                         000000000000000                                     N                     00598  0000000        000125
12054382510000108SETENTA IND E COM DE MADEIRAS                                         0000000034100000000000000000000000000000860403430000002277814474462 A         201209042012080700000000054460000191200000000000211880000000000000000000000000020680050000000000  3020121029   01          2                                                                                   3112277814474057049175300069                                                  N                     01321  0000000        000126
12056993512000150CYKLOP DO BRASIL EMBALAGENS SA                                        0000000034100000000000000000000000000000874070500000002362586810134932        201210012012090300000000054730000083607000000000092203000000000000000000000000008596050000000000  3020121029   01          2                                                                                   3112362586813025700015800019                                                  N                     01321  0000000        000127
12056993900000131CIA METALURGICA PRADA                                                 0000000034100000000000000000000000000000844839060000002201181940025644402     201209052012071100000000054470000779647000000000849793000000000000000000000000070146050000000000  3020121029   01          2                                                                                   3112201181941293800573900019                                                  N                     01321  0000000        000128
12056993900000131CIA METALURGICA PRADA                                                 0000000034100000000000000000000000000000844839140000002201181870025629302     201209052012071100000000054470000257906000000000281126000000000000000000000000023220050000000000  3020121029   01          2                                                                                   3112201181875293800573900069                                                  N                     01321  0000000        000129
12056993900000131CIA METALURGICA PRADA                                                 0000000034100000000000000000000000000000848180620000002218222670025829902     201209112012071700000000054530000498118000000000537958000000000000000000000000039840050000000000  3020121029   01          2                                                                                   3112218222670293800573900029                                                  N                     01321  0000000        000130
12056993900000131CIA METALURGICA PRADA                                                 0000000034100000000000000000000000000000848180630000002218222680025830002     201209112012071700000000054530000247673000000000267497000000000000000000000000019824050000000000  3020121029   01          2                                                                                   3112218222688293800573900059                                                  N                     01321  0000000        000131
12056993900000131CIA METALURGICA PRADA                                                 0000000034100000000000000000000000000000848180640000002218222690025830102     201209112012071700000000054530000207402000000000224010000000000000000000000000016608050000000000  3020121029   01          2                                                                                   3112218222696293800573900039                                                  N                     01321  0000000        000132
12056993900000131CIA METALURGICA PRADA                                                 0000000034100000000000000000000000000000855028630000002254750290026244303     201210222012072800000000054940000100683000000000101859000000000000000000000000001176050000000000  3020121029   01          2                                                                                   3112254750295293800573900049                                                  N                     01321  0000000        000133
12056993900000131CIA METALURGICA PRADA                                                 0000000034100000000000000000000000000000855028640000002254750300026244403     201210222012072800000000054940000084116000000000085096000000000000000000000000000980050000000000  3020121029   01          2                                                                                   3112254750303293800573900099                                                  N                     01321  0000000        000134
12056993900000131CIA METALURGICA PRADA                                                 0000000034100000000000000000000000000000824820100000002102181160024711603     201208292012060600000000054400000833146000000000917875000000000000000000000000084729050000000000  3020121029   01          2                                                                                   3112102181164293800573900039                                                  N                     01321  0000000        000135
12056993900000131CIA METALURGICA PRADA                                                 0000000034100000000000000000000000000000840312930000002179478290025419302     201208282012070300000000054390000402178000000000443718000000000000000000000000041540050000000000  3020121029   01          2                                                                                   3112179478295293800573900089                                                  N                     01321  0000000        000136
12056993900000131CIA METALURGICA PRADA                                                 0000000034100000000000000000000000000000840312940000002179478300025419402     201208282012070300000000054390000322804000000000356160000000000000000000000000033356050000000000  3020121029   01          2                                                                                   3112179478303293800573900079                                                  N                     01321  0000000        000137
12056993900000131CIA METALURGICA PRADA                                                 0000000034100000000000000000000000000000844839000000002201181880025629402     201209052012071100000000054470000249372000000000271836000000000000000000000000022464050000000000  3020121029   01          2                                                                                   3112201181883293800573900019                                                  N                     01321  0000000        000138
12056993900000131CIA METALURGICA PRADA                                                 0000000034100000000000000000000000000000844839010000002201181890025635302     201209052012071100000000054470000406842000000000443454000000000000000000000000036612050000000000  3020121029   01          2                                                                                   3112201181891293800573900019                                                  N                     01321  0000000        000139
12056993900000131CIA METALURGICA PRADA                                                 0000000034100000000000000000000000000000844839020000002201181900025635402     201209052012071100000000054470000208689000000000227481000000000000000000000000018792050000000000  3020121029   01          2                                                                                   3112201181909293800573900069                                                  N                     01321  0000000        000140
12056993900000131CIA METALURGICA PRADA                                                 0000000034100000000000000000000000000000844839030000002201181910025635502     201209052012071100000000054470000164780000000000179630000000000000000000000000014850050000000000  3020121029   01          2                                                                                   3112201181917293800573900029                                                  N                     01321  0000000        000141
12056993900000131CIA METALURGICA PRADA                                                 0000000034100000000000000000000000000000844839040000002201181920025635602     201209052012071100000000054470000339933000000000370551000000000000000000000000030618050000000000  3020121029   01          2                                                                                   3112201181925293800573900069                                                  N                     01321  0000000        000142
12056993900000131CIA METALURGICA PRADA                                                 0000000034100000000000000000000000000000844839050000002201181930025636202     201209052012071100000000054470000746213000000000813389000000000000000000000000067176050000000000  3020121029   01          2                                                                                   3112201181933293800573900019                                                  N                     01321  0000000        000143
12057029431000106ATLAS COPCO BRASIL LTDA                                               0000000034100000000000000000000000000000863731640000002292733057000054146     201209072012081000000000054490000081450000000000084258000000000000000000000000002808050000000000  3020121029   01          2                                                                                   3112292733055293804111400099                                                  N                     01321  0000000        000144
12057029431000106ATLAS COPCO BRASIL LTDA                                               0000000034100000000000000000000000000000861960280000002283943487000054090     201209062012080900000000054480000059490000000000061557000000000000000000000000002067050000000000  3020121029   01          2                                                                                   3112283943481293804111400069                                                  N                     01321  0000000        000145
12057158057000130COMERCIAL ELETRICA PJ LTDA                                            0000000023703394400000000972983 00000000893373810090227600002770000330236     201210252012092700000000054970000012157000000000012317000000000000000000000000000160050000000000  3020121029   01          2  R TAMAINDE 1410                                                                  3                         000000000000000                                     N                     00598  0000000        000146
12057196081000164MINELE COMERCIO DE PARAFUSOS L                                        0000000023700298400000002047470 0000000089518994009022780000002567            201210262012100400000000054980000040000000000000041000000000000000000000000000001000050000000000  3020121029   01          2  R  GANGES  528   VL CARRAO                                                       3                         000000000000000                                     N                     00598  0000000        000147
12057398687000182MORED COMERCIO E SERVICOS LTDA                                        0000000034100000000000000000000000000000895189900000006153514885226           201210242012100400000000054960000054340000000000054875000000000000000000000000000535050000000000  3020121029   01          2                                                                                   3156153514884101144455900019                                                  N                     01321  0000000        000148
12057398687000182MORED COMERCIO E SERVICOS LTDA                                        0000000034100000000000000000000000000000895189910000006153522805242           201210262012100400000000054980000174053000000000175079000000000000000000000000001026050000000000  3020121029   01          2                                                                                   3156153522804101144455900039                                                  N                     01321  0000000        000149
12059659615000177DZ COMERCIO R E SERVICOS LTDA                                         000000003410000000000000000000000000000086699205000000900000268252            201209172012081500000000054590000060000000000000065040000000000000000000000000005040050000000000  3020121029   01          2                                                                                   3109000002680000314585100059                                                  N                     01321  0000000        000150
12062173661000176INDUFIX IND E COM LTDA                                                0000000023704130000000000085898 000000008904570700702271000005700038394 B     201210262012091100000000054980000057505000000000057790000000000000000000000000000285050000000000  3020121029   01          2  RUA GANGES 528                                                                   3                         000000000000000                                     N                     00598  0000000        000151
12062510367000102ITANHAEM TRANSP DE MAQUINAS LT                                        000000003410000000000000000000000000000087407049000000236463199667            201209202012090400000000054620000248220000000000286947000000000000000000000000038727050000000000  3020121029   01          2                                                                                   3112364631997005770252400049                                                  N                     01321  0000000        000152
12062539994000176LEALFER INDUSTRIA E COMERCIO D                                        0000000003300000000000000000000000000000872953040000003800000000005424702     201210252012083000000000054970000656670000000000661135000000000000000000000000004465050000000000  3020121029   01          2                                                                                   3915298380000000257338010419                                                  N                     01321  0000000        000153
12062539994000176LEALFER INDUSTRIA E COMERCIO D                                        0000000003300000000000000000000000000000893373960000008800000000005580301     201210252012092700000000054970000451213000000000454281000000000000000000000000003068050000000000  3020121029   01          2                                                                                   3915298380000000268488010459                                                  N                     01321  0000000        000154
12062539994000176LEALFER INDUSTRIA E COMERCIO D                                        0000000003300000000000000000000000000000893373900000003800000000005568401     201210242012092500000000054960000891184000000000898759000000000000000000000000007575050000000000  3020121029   01          2                                                                                   3915298380000000268038010429                                                  N                     01321  0000000        000155
12062539994000176LEALFER INDUSTRIA E COMERCIO D                                        0000000003300000000000000000000000000000893373910000004600000000005563001     201210242012092500000000054960000136948000000000138112000000000000000000000000001164050000000000  3020121029   01          2                                                                                   3915298380000000268046010469                                                  N                     01321  0000000        000156
12062539994000176LEALFER INDUSTRIA E COMERCIO D                                        0000000003300000000000000000000000000000893373930000001600000000005575001     201210252012092600000000054970000300979000000000303025000000000000000000000000002046050000000000  3020121029   01          2                                                                                   3915298380000000268216010419                                                  N                     01321  0000000        000157
12062539994000176LEALFER INDUSTRIA E COMERCIO D                                        0000000003300000000000000000000000000000893373950000005300000000005576001     201210252012092600000000054970000243236000000000244893000000000000000000000000001657050000000000  3020121029   01          2                                                                                   3915298380000000268453010469                                                  N                     01321  0000000        000158
12062944582000111AS SOLUCOES COMERCIAL LTDA                                            00000000001000000000000000000000000000008904571100000032079500016984 A        201210242012092700000000054960000033600000000000033795000000000000000000000000000195050000000000  3020121029   01          2                                                                                   3529483207951190000690001719                                                  N                     01321  0000000        000159
12064952757000168WALMAC COM DE PROD QUIMICOS LT                                        0000000034100000000000000000000000000000860403440000002275821690020148        201210262012080300000000054980000219266000000000220559000000000000000000000000001293050000000000  3020121029   01          2                                                                                   3112275821695064807961400019                                                  N                     01321  0000000        000160
12064952757000168WALMAC COM DE PROD QUIMICOS LT                                        0000000034100000000000000000000000000000860403450000002275821700020148        201210052012080300000000054770000219267000000000229611000000000000000000000000010344050000000000  3020121029   01          2                                                                                   3112275821703064807961400029                                                  N                     01321  0000000        000161
12064952757000168WALMAC COM DE PROD QUIMICOS LT                                        0000000034100000000000000000000000000000860403460000002275821710020148        201208312012080300000000054420000219267000000000244696000000000000000000000000025429050000000000  3020121029   01          2                                                                                   3112275821711064807961400079                                                  N                     01321  0000000        000162
12066841552000130R V SEG PATRIMONIAL S C LTDA                                          00000000341000000000000000000000000000008887329800000090002213622136          201210102012091100000000054820000374758000000000377133000000000000000000000000002375050000000000  3020121029   01          2                                                                                   3109000221365001838994000069                                                  N                     01321  0000000        000163
12066841552000130R V SEG PATRIMONIAL LTDA                                              00000000341000000000000000000000000000008852483200000090002192721927          201209102012081000000000054520000483241000000000491130000000000000000000000000007889050000000000  3020121029   01          2                                                                                   3109000219270001835253400099                                                  N                     01321  0000000        000164
12069284248000128ISOCOAT TINTAS E VERNIZES LTDA                                        0000000034100000000000000000000000000000841061040000002182507930052085        201209172012070200000000054590000236130000000000262590000000000000000000000000026460050000000000  3020121029   01          2                                                                                   3112182507932077430121200019                                                  N                     01321  0000000        000165
12069284248000128ISOCOAT TINTAS E VERNIZES LTDA                                        0000000034100000000000000000000000000000908309620000002521130190057192        201212242012102400000000055570000317968000000000317968000000000000000000000000000000050000000000  3020121224   01FS        1                                                                                   3112521130198077430121200099                                                  N                     01321  0000000        000166
12069284248000128ISOCOAT TINTAS E VERNIZES LTDA                                        0000000034100000000000000000000000000000908309600000002521130180057192        201212102012102400000000055430000365668000000000365668000000000000000000000000000000050000000000  3020121210   01FS        1                                                                                   3112521130180077430121200039                                                  N                     01321  0000000        000167
12069284248000128ISOCOAT TINTAS E VERNIZES LTDA                                        0000000034100000000000000000000000000000908309610000002521130200057192        201301072012102400000000055710000318064000000000318064000000000000000000000000000000050000000000  3020130107   01FS        1                                                                                   3112521130206077430121200019                                                  N                     01321  0000000        000168
12069309706000136F N A TRANSPORTES LTDA                                                000000003410000000000000000000000000000086615421000000900010656059068         201208302012081500000000054410000079200000000000095040000000000000000000000000015840050000000000  3020121029   01          2                                                                                   3109000106565005486932600099                                                  N                     01321  0000000        000169
12071580302000124SANCHEPEL IND PAULISTA EMB L                                          0000000034100000000000000000000000000000889578480000002428584667749           201210192012092400000000054910000173086000000000173086000000000000000000000000000000050000000000  3020121019   05          3                                                                                   3112428584661007855578600019                                                  N                     01321  0000000        000170
12075483040000130REX MAQUINAS E EQUIPAMENTOS LT                                        0000000023702656500000000000701 000000008729529900202248000040681776 2 2      201210262012083100000000054980000434000000000000436169000000000000000000000000002169050000000000  3020121029   01          2  RUA  GANGES  528                                                                 3                         000000000000000                                     N                     00598  0000000        000171
12081560047000101ACEVILLE TRANSPORTES LTDA                                             000000000330000000000000000000000000000090145494000000040000000275380         201210262012101500000000054980000030000000000000030239000000000000000000000000000239050000000000  3020121029   01          2                                                                                   3913555200000002753804010169                                                  N                     01321  0000000        000172
12096500087000135WORKBENCH CONSULTORIA S S LTDA                                        0000000034100000000000000000000000000000878205840000007940034283118           201209272012090300000000054690000131746000000000140034000000000000000000000000008288050000000000  3020121029   01          2                                                                                   3157940034289826313803700089                                                  N                     01321  0000000        000173
900017400000000058259958                                                                                                                                                                                                                                                                                                                                                                                                                                                                01321  0000000        000174
