0000147602043799295000110ALTAMIRA INDUSTRIA METALURGICA LT       202000000197220121127212656             3                                                                                                  000000000000000                                                                                                                                                                                                                                                                                   000001
12006000195000156M B A MERCANTIL BRASILEIRA DE R RINCAO 220                            0365108023700118000000002128292 I000000000010228000000000000000               201211270000000000000000000000000000000000000000989349000000000000000000000000000000050000000001  0120121127   02BW        5000000               000000000000000                                               3                                          01                                 N                     01321 10020256        000002
12061780615000253LEPOK INFORMATICA E PAPL LTDA                                         0000000023703393600000000005010 I000000000010226002023110000004               201211270000000000000000055300000002703000000000002703000000000000000000000000000000010000137019  3120121127   02BW        5000000               000000000000000                                               3339302231100000040000501019               137019                             N                     01079 10020256        000003
12061780615000253LEPOK INFORMATICA E PAPL LTDA                                         0000000023703393600000000005010 I000000000010227002023110000003               201211270000000000000000055300000054626000000000054626000000000000000000000000000000010000136893  3120121127   02BW        5000000               000000000000000                                               3339302231100000030000501019               0136893/01                         N                     01079 10020256        000004
12057196081000164MINELE COMERCIO DE PARAFUSOS L                                        0000000023700298400000002047470 0000000091833889009023170000004588            201211272012111200000000055300000025860000000000025860000000000000000000000000000000050000000000  3020121127   02BW        2000000               000000000000000                                               3                         000000000000000  588                                N                     01079 10020256        000005
12035820448000136WHITE MARTINS GASES INDUSTRIAI                                        0000000023700026400000003937925 0000000091141009009023050001196401713 001     201211272012103100000000055300000040575000000000040575000000000000000000000000000000050000000000  3020121127   02BW        2000000               000000000000000                                               3                         000000000000000                                     N                     01079 10020256        000006
12035820448000136WHITE MARTINS GASES INDUSTRIAI                                        0000000023700026400000003937925 0000000090920337009023030000391400546 001     201211232012102700000000055260000056805000000000058017000000000000000000000000001288050000000000  3020121127   02BW        2000000               000000000000000                                               3                         000000000000000                                     N                     01079 10020256        000007
12005151518000140BELENUS DO BRASIL LTDA                                                000000000330000000000000000000000000000089697935000000230000000R131165822     201211252012092600000000055280000094080000000000094700000000000000000000000000000930050000000000  3020121127   02BW        2000000               000000000000000                                               3918381050000000445223010429               0311658/02                         N                     01132 10020256        000008
12008879248000186FREFER METAL PLUS                                                     000000003410000000000000000000000000000090920332000000252540538EPI024058A     201211222012102500000000055250000960939000000000967184000000000000000000000000012490050000000000  3020121127   02BW        2000000               000000000000000                                               3112525405380293811346700099               24058/01                           N                     01132 10020256        000009
12005151518000140BELENUS DO BRASIL LTDA                                                000000000330000000000000000000000000000089697931000000660000000R131115422     201211242012092500000000055270000096000000000000096951000000000000000000000000001268050000000000  3020121127   02BW        2000000               000000000000000                                               3918381050000000435066010419               311154/02                          N                     01132 10020256        000010
12062944582000111AS SOLUCOES COMERCIAL LTDA                                            00000000001000000000000000000000000000009124679500000032092500017623 A        201211272012103100000000055300000048200000000000048200000000000000000000000000000000050000000000  3020121127   02BW        2000000               000000000000000                                               3529483209251190000690001739               17623/01                           N                     01132 10020256        000011
12005151518000140BELENUS DO BRASIL LTDA                                                000000000010000000000000000000000000000087407046000000750520000R130170532     201211252012090400000000055280000192000000000000193268000000000000000000000000001902050000000000  3020121127   02BW        2000000               000000000000000                                               3000000123933844037505203139               170532                             N                     01132 10020256        000012
12005852768000107DAOUD LEAL ELETRONICA LTDA ME                                         000000003410000000000000000000000000000090920322000000615791514NOVEMBRO       201211262012102900000000055290000016247000000000016604000000000000000000000000000389050000000000  3020121127   02BW        2000000               000000000000000                                               3156157915141152944476000059               11/2012                            N                     01132 10020256        000013
900001400000000002588037                                                                                                                                                                                    000000000000000                                                                                                                                                                                                                                                    00001200608130001588035        000014
