0000147602043799295000110ALTAMIRA INDUSTRIA METALURGICA LT       202000000009320120728063439             1                                                                                                                                                                                                                                                                                                                                                                                                    000001
12000193273000108TECELAGEM ROMA LTDA                                                   0000000023700284400000000410977 000000008374605000900000001581016213   A      201207272012062900000000054070000124248000000000125367000000000000000000000000001119050000000000  3020120730   01          2  RUA TAMAINDE 1410  1410                                                          3                         000000000000000                                     N                     00598  0000000        000002
12002269980000158PANKRO LOGISTICA E TRANSPORTES                                        000000003410000000000000000000000000000085315490000000224495030166            201208172012072500000000054280000310000000000000310000000000000000000000000000000000050000000000  3020120817   01FS        1                                                                                   3112244950302315090027600019                                                  N                     01321  0000000        000003
12002503185000182ANDAIMES E MAQUINAS BIG LTDA                                          000000000010000000000000000000000000000085315480000000065352000011516         201208202012072600000000054310000026000000000000026000000000000000000000000000000000050000000000  3020120820   01FS        1                                                                                   3000000187782308250653521739                                                  N                     01321  0000000        000004
12002503185000182ANDAIMES E MAQUINAS BIG LTDA                                          000000000010000000000000000000000000000085315481000000065355000011521         201208152012072600000000054260000012000000000000012000000000000000000000000000000000050000000000  3020120815   01FS        1                                                                                   3000000187782308250653551739                                                  N                     01321  0000000        000005
12004882911000140F C BRITO CARTUCHOS ME                                                00000000033000000000000000000000000000008531551400000047000000011713 A21      201208072012071000000000054180000042679000000000042679000000000000000000000000000000050000000000  3020120807   01FS        1                                                                                   3944753720000000085847010199                                                  N                     01321  0000000        000006
12005151518000140BELENUS DO BRASIL LTDA                                                000000000010000000000000000000000000000085315477000000001497000R128919712     201208192012072600000000054300000599040000000000599040000000000000000000000000000000050000000000  3020120820   01FS        1                                                                                   3000000123933843930014973139                                                  N                     01321  0000000        000007
12005151518000140BELENUS DO BRASIL LTDA                                                000000000010000000000000000000000000000085315478000000001498000R128919722     201209182012072600000000054600000460800000000000460800000000000000000000000000000000050000000000  3020120918   01FS        1                                                                                   3000000123933843930014983179                                                  N                     01321  0000000        000008
12005151518000140BELENUS DO BRASIL LTDA                                                000000000010000000000000000000000000000085315479000000001499000R128919732     201210182012072600000000054900000460800000000000460800000000000000000000000000000000050000000000  3020121018   01FS        1                                                                                   3000000123933843930014993179                                                  N                     01321  0000000        000009
12005852768000107DAOUD LEAL ELETRONICA LTDA ME                                         00000000033000000000000000000000000000008448392500000041000000000000000001097 201207262012071300000000054060000016558000000000016558000000000000000000000000000000050000000000  3020120726   06          3                                                                                   3949927090000000024341010439                                                  N                     01321  0000000        000010
12006000195000156M B A MERCANTIL BRASILEIRA DE                                         0000000023700118P00000002130599 00000000853154980020220900000440008967B01     201208232012072400000000054340000135605000000000135605000000000000000000000000000000050000000000  3020120823   01FS        1  RUA JUNO  533                                                                    3                         000000000000000                                     N                     00598  0000000        000011
12006000195000156M B A MERCANTIL BRASILEIRA DE                                         0000000023700118P00000002130599 00000000853154990020220900000450008967B02     201209202012072400000000054620000135606000000000135606000000000000000000000000000000050000000000  3020120920   01FS        1  RUA JUNO  533                                                                    3                         000000000000000                                     N                     00598  0000000        000012
12006000195000156M B A MERCANTIL BRASILEIRA DE                                         0000000023700118P00000002130599 00000000853155000020220900000460008967B03     201210182012072400000000054900000135605000000000135605000000000000000000000000000000050000000000  3020121018   01FS        1  RUA JUNO  533                                                                    3                         000000000000000                                     N                     00598  0000000        000013
12006000195000156M B A MERCANTIL BRASILEIRA DE                                         0000000023700118P00000002130599 00000000853155010020220900000510008971B01     201208212012072400000000054320000170465000000000170465000000000000000000000000000000050000000000  3020120821   01FS        1  RUA JUNO  533                                                                    3                         000000000000000                                     N                     00598  0000000        000014
12006000195000156M B A MERCANTIL BRASILEIRA DE                                         0000000023700118P00000002130599 00000000853155020020220900000520008971B02     201209182012072400000000054600000170466000000000170466000000000000000000000000000000050000000000  3020120918   01FS        1  RUA JUNO  533                                                                    3                         000000000000000                                     N                     00598  0000000        000015
12006000195000156M B A MERCANTIL BRASILEIRA DE                                         0000000023700118P00000002130599 00000000853155030020220900000530008971B03     201210162012072400000000054880000170465000000000170465000000000000000000000000000000050000000000  3020121016   01FS        1  RUA JUNO  533                                                                    3                         000000000000000                                     N                     00598  0000000        000016
12006000195000156M B A MERCANTIL BRASILEIRA DE                                         0000000023700118P00000002130599 00000000853155040020220900000640008985B01     201208222012072500000000054330000163122000000000163122000000000000000000000000000000050000000000  3020120822   01FS        1  RUA JUNO  533                                                                    3                         000000000000000                                     N                     00598  0000000        000017
12006000195000156M B A MERCANTIL BRASILEIRA DE                                         0000000023700118P00000002130599 00000000853155050020220900000650008985B02     201209192012072500000000054610000141845000000000141845000000000000000000000000000000050000000000  3020120919   01FS        1  RUA JUNO  533                                                                    3                         000000000000000                                     N                     00598  0000000        000018
12006000195000156M B A MERCANTIL BRASILEIRA DE                                         0000000023700118P00000002130599 00000000853155060020220900000660008985B03     201210172012072500000000054890000141846000000000141846000000000000000000000000000000050000000000  3020121017   01FS        1  RUA JUNO  533                                                                    3                         000000000000000                                     N                     00598  0000000        000019
12006000195000156M B A MERCANTIL BRASILEIRA DE                                         0000000023700118P00000002130599 00000000853155070020220900000670008986B01     201208222012072500000000054330000145725000000000145725000000000000000000000000000000050000000000  3020120822   01FS        1  RUA JUNO  533                                                                    3                         000000000000000                                     N                     00598  0000000        000020
12006000195000156M B A MERCANTIL BRASILEIRA DE                                         0000000023700118P00000002130599 00000000853155080020220900000680008986B02     201209192012072500000000054610000126717000000000126717000000000000000000000000000000050000000000  3020120919   01FS        1  RUA JUNO  533                                                                    3                         000000000000000                                     N                     00598  0000000        000021
12006000195000156M B A MERCANTIL BRASILEIRA DE                                         0000000023700118P00000002130599 00000000853155090020220900000690008986B03     201210172012072500000000054890000126718000000000126718000000000000000000000000000000050000000000  3020121017   01FS        1  RUA JUNO  533                                                                    3                         000000000000000                                     N                     00598  0000000        000022
12006000195000156M B A MERCANTIL BRASILEIRA DE                                         0000000023700118P00000002130599 00000000853155100020220900000700008987B01     201208232012072500000000054340000216623000000000216623000000000000000000000000000000050000000000  3020120823   01FS        1  RUA JUNO  533                                                                    3                         000000000000000                                     N                     00598  0000000        000023
12006000195000156M B A MERCANTIL BRASILEIRA DE                                         0000000023700118P00000002130599 00000000853155110020220900000710008987B02     201209202012072500000000054620000188368000000000188368000000000000000000000000000000050000000000  3020120920   01FS        1  RUA JUNO  533                                                                    3                         000000000000000                                     N                     00598  0000000        000024
12006000195000156M B A MERCANTIL BRASILEIRA DE                                         0000000023700118P00000002130599 00000000853155120020220900000720008987B03     201210182012072500000000054900000188368000000000188368000000000000000000000000000000050000000000  3020121018   01FS        1  RUA JUNO  533                                                                    3                         000000000000000                                     N                     00598  0000000        000025
12009121184000112BBGE COBRANCA LTDA                                                    0000000023700368900000001026402 00000000839452790090218600000832581 BC        201207262012062100000000054060000154100000000000156156000000000000000000000000002056050000000000  3020120730   01          2  RUA GANGES  528                         MACKVEN MAQUINAS INDUSTRIAIS LTDA EPP    3                         005441222000163                                     N                     00598  0000000        000026
12010543507000145MAJOR CORTEZ CONFECCAO E COMER                                        000000003410000000000000000000000000000085315495000000614041210157            201208222012072700000000054330000053000000000000053000000000000000000000000000000000050000000000  3020120822   01FS        1                                                                                   3156140412101074662673800029                                                  N                     01321  0000000        000027
12010979468000123BRUNO E COELHO COM MAQ E PROD                                         0000000010400000000000000000000000000000853154940000000006470004281           201208112012072600000000054220000024500000000000024500000000000000000000000000000000050000000000  3020120813   01FS        1                                                                                   3900000064731088700000020939                                                  N                     01321  0000000        000028
12012256386000186TOP TRAD SERVICOS DE TEXTOS LT                                        0000000023700200300000001062603 00000000850740700090132194025562718           201207272012071200000000054070000025600000000000026316000000000000000000000000000716050000000000  3020120730   01          2  R TAMANDE 1410                                                                   3                         000000000000000                                     N                     00598  0000000        000029
12033325184001786ALSCO TOALHEIRO BRASIL                                                0000000023703396000000001490850 0000000085315513009000002660205VM26602        201208162012072700000000054270000031827000000000031827000000000000000000000000000000050000000000  3020120816   01FS        1  RUA  GANGES 528                                                                  3                         000000000000000                                     N                     00598  0000000        000030
12035820448000136WHITE MARTINS GASES INDUSTRIAI                                        0000000023700026400000003937925 0000000085315496009022090010244358059 001     201208232012072700000000054340000017600000000000017600000000000000000000000000000000050000000000  3020120823   01FS        1  RUA GANGES  528                                                                  3                         000000000000000                                     N                     00598  0000000        000031
12035820448000136WHITE MARTINS GASES INDUSTRIAI                                        0000000023700026400000003937925 0000000085315497009022090011903358519 001     201208232012072700000000054340000056805000000000056805000000000000000000000000000000050000000000  3020120823   01FS        1  RUA GANGES  528                                                                  3                         000000000000000                                     N                     00598  0000000        000032
12035820448000136WHITE MARTINS GASES INDUSTRIAI                                        0000000023700026400000003937925 0000000083746047009021840000209346504 001     201207272012063000000000054070000040575000000000040575000000000000000000000000000000050000000000  3020120727   06          3  RUA GANGES  528                                                                  3                         000000000000000                                     N                     00598  0000000        000033
12042956441000101SOLUCOES ACO USIMINAS                                                 0000000034100000000000000000000000000000853154910000002246247000017196701     201208232012072500000000054340000234911000000000234911000000000000000000000000000000050000000000  3020120823   01FS        1                                                                                   3112246247004293807258000019                                                  N                     01321  0000000        000034
12042956441000101SOLUCOES ACO USIMINAS                                                 0000000034100000000000000000000000000000853154920000002246247010017197301     201208232012072500000000054340000970394000000000970394000000000000000000000000000000050000000000  3020120823   01FS        1                                                                                   3112246247012293807258000019                                                  N                     01321  0000000        000035
12042956441000101SOLUCOES ACO USIMINAS                                                 0000000034100000000000000000000000000000853154840000002246247030017196702     201209202012072500000000054620000234841000000000234841000000000000000000000000000000050000000000  3020120920   01FS        1                                                                                   3112246247038293807258000099                                                  N                     01321  0000000        000036
12042956441000101SOLUCOES ACO USIMINAS                                                 0000000034100000000000000000000000000000853154850000002246247040017197302     201209202012072500000000054620000970103000000000970103000000000000000000000000000000050000000000  3020120920   01FS        1                                                                                   3112246247046293807258000019                                                  N                     01321  0000000        000037
12042956441000101SOLUCOES ACO USIMINAS                                                 0000000034100000000000000000000000000000853154860000002246247050017196603     201210182012072500000000054900000804807000000000804807000000000000000000000000000000050000000000  3020121018   01FS        1                                                                                   3112246247053293807258000029                                                  N                     01321  0000000        000038
12042956441000101SOLUCOES ACO USIMINAS                                                 0000000034100000000000000000000000000000853154870000002246247060017196703     201210182012072500000000054900000234840000000000234840000000000000000000000000000000050000000000  3020121018   01FS        1                                                                                   3112246247061293807258000079                                                  N                     01321  0000000        000039
12042956441000101SOLUCOES ACO USIMINAS                                                 0000000034100000000000000000000000000000853154880000002246247070017197303     201210182012072500000000054900000970103000000000970103000000000000000000000000000000050000000000  3020121018   01FS        1                                                                                   3112246247079293807258000029                                                  N                     01321  0000000        000040
12042956441000101SOLUCOES ACO USIMINAS                                                 0000000034100000000000000000000000000000853154890000002246246990017196601     201208232012072500000000054340000805049000000000805049000000000000000000000000000000050000000000  3020120823   01FS        1                                                                                   3112246246998293807258000059                                                  N                     01321  0000000        000041
12042956441000101SOLUCOES ACO USIMINAS                                                 0000000034100000000000000000000000000000853154830000002246247020017196602     201209202012072500000000054620000804808000000000804808000000000000000000000000000000050000000000  3020120920   01FS        1                                                                                   3112246247020293807258000089                                                  N                     01321  0000000        000042
12046705844000139TRANSPORTADORA DEPOLLI LTDA                                           0000000034100000000000000000000000000000853154930000002210630141200296701     201208032012071300000000054140000048000000000000048000000000000000000000000000000000050000000000  3020120803   01FS        1                                                                                   3112210630144158604003000019                                                  N                     01321  0000000        000043
12046705844000139TRANSPORTADORA DEPOLLI LTDA                                           0000000034100000000000000000000000000000846595670000002210630141200296701     201208032012071300000000054140000048000000000000048000000000000000000000000000000000050000000000  3020120803   05          3                                                                                   3112210630144158600004200099                                                  N                     01321  0000000        000044
12071580302000124SANCHEPEL IND PAULISTA EMB L                                          0000000034100000000000000000000000000000853154820000002243332627313           201208242012072600000000054350000112700000000000112700000000000000000000000000000000050000000000  3020120824   01FS        1                                                                                   3112243332627007855578600039                                                  N                     01321  0000000        000045
12092693118000160BRADESCO SAUDE S A                                                    0000000023700448000000001533991 00000000829780050050100702629130000000000     201207202012061800000000054000000645861000000000650021000000000000000000000000004160050000000000  3020120730   01          2                                                                                   3                         000000000000000                                     N                     00598  0000000        000046
900004700000000011706144                                                                                                                                                                                                                                                                                                                                                                                                                                                                00598  0000000        000047
