0000147602043799295000110ALTAMIRA INDUSTRIA METALURGICA LT       202000000184520120828212752             3                                                                                                  000000000000000                                                                                                                                                                                                                                                                                   000001
12060732997000104UNIFISA ADM  NACIONAL DE CONS                                         0000000023703390100000000086606 I000000000009653009011224113141               201208280000000000000000054390000120478000000000120478000000000000000000000000000000010000000037  3120120828   02BW        5000000               000000000000000                                               3339009112241131410008660089               GRUPO.615 - PARC.024/42.           N                     01079 10020256        000002
12060732997000104UNIFISA ADM  NACIONAL DE CONS                                         0000000023703390100000000086606 I000000000009652009011224113142               201208280000000000000000054390000120478000000000120478000000000000000000000000000000050000000086  3120120828   02BW        5000000               000000000000000                                               3339009112241131420008660069               GRUPO.618 - PARC.024/42.           N                     01079 10020256        000003
12011202309000180FIEL TOOLS DISTRIB DE MAQ FERR                                        0000000023702087700000000000116 I000000000009654028000020186262               201208280000000000000000054390000042730000000000042730000000000000000000000000000000010000008626  3120120828   02BW        5000000               000000000000000                                               3208728000201862620000011019               08626/01                           N                     01079 10020256        000004
12002558199000101OMEGA TUBOS COMERCIAL LTDA                                            0000000003300000000000000000000000000000846595830000003000000000026380B03     201208282012071000000000054390000256050000000000256050000000000000000000000000000000050000000000  3020120828   02BW        2000000               000000000000000                                               3947509770000000088730020379               026380/03                          N                     01132 10020256        000005
12042956441000101SOLUCOES EM ACO USIMINAS S A                                          0000000034100000 0000000000000  I000000000009647000000000000000               201208280000000000000000054390000748921000000000748921000000000000000000000000000000010000171010  3120120828   02BW        5000000               000000000000000                                               3181530781302293807258000029               0171010/01                         N                     01132 10020256        000006
12042956441000101SOLUCOES EM ACO USIMINAS S A                                          0000000034100000 0000000000000  I000000000009648000000000000000               201208280000000000000000054390000711510000000000711510000000000000000000000000000000010000160751  3120120828   02BW        5000000               000000000000000                                               3181530774794293807258000019               0160751/03                         N                     01132 10020256        000007
12042956441000101SOLUCOES EM ACO USIMINAS S A                                          0000000034100000 0000000000000  I000000000009655000000000000000               201208280000000000000000054390000344093000000000344093000000000000000000000000000000010000160747  3120120828   02BW        5000000               000000000000000                                               3181531202332293807258000059               0160747/03                         N                     01132 10020256        000008
12069034668000156SODEXO PASS BRASIL SERV COM SA                                        0000000034100000 0000000000000  I000000000009645000000000000000               201209220000000000000000054640000395970000000000395970000000000000000000000000000000010001221881  3120120828   02BW        5000000               000000000000000                                               3109217304795293801455800019               12/1221881                         N                     01132 10020256        000009
12042956441000101SOLUCOES EM ACO USIMINAS S A                                          0000000034100000 0000000000000  I000000000009657000000000000000               201208280000000000000000054390000709449000000000709449000000000000000000000000000000010000160933  3120120828   02BW        5000000               000000000000000                                               3181531200112293807258000029               0160933/03                         N                     01132 10020256        000010
12042956441000101SOLUCOES EM ACO USIMINAS S A                                          0000000034100000 0000000000000  I000000000009656000000000000000               201208280000000000000000054390000735091000000000735091000000000000000000000000000000010000161902  3120120828   02BW        5000000               000000000000000                                               3181531198886293807258000089               0161902/03                         N                     01132 10020256        000011
12066899790000105FAB ART DE LATEX ESTR EP LTDA                                         0000000039900000 0000000000000  I000000000009651000000000000000               201208280000000000000000054390000250357000000000250357000000000000000000000000000000010000072773  3120120828   02BW        5000000               000000000000000                                               3175513042801125027292500159               72773/02                           N                     01132 10020256        000012
12047190731000100DE CASTRO LOUREIRO ENGENHARIA                                         0000000042200000 0000000000000  I000000000009650000000000000000               201208280000000000000000054390000258529000000000258529000000000000000000000000000000010000025894  3120120828   02BW        5000000               000000000000000                                               3709700002021396491400250119               25894/02                           N                     01132 10020256        000013
12069284248000128ISOCOAT TINTAS E VERNIZES LTDA                                        0000000034100000 0000000000000  I000000000009646000000000000000               201208280000000000000000054390000128681000000000128681000000000000000000000000000000010000051735  3120120828   02BW        5000000               000000000000000                                               3181530901031077430121200089               051735/                            N                     01132 10020256        000014
12042956441000101SOLUCOES EM ACO USIMINAS S A                                          0000000034100000 0000000000000  I000000000009649000000000000000               201208280000000000000000054390000147856000000000147856000000000000000000000000000000010000017101  3120120828   02BW        5000000               000000000000000                                               3181530769851293807258000019               0171012/01                         N                     01132 10020256        000015
900001600000000004970193                                                                                                                                                                                    000000000000000                                                                                                                                                                                                                                                    00001400761710004970193        000016
