0000147602043799295000110ALTAMIRA INDUSTRIA METALURGICA LT       202000000025420120928111346             2                                                                                                  000000000000000                                                                                                                                                                                                                                                                                   000001
11014612846000000ANDERSON CABRAL DA SILVA                                              0000000034100689 00000000596583 I000000000009957000000000000000               201209280000000000000000000000000000000000000000489546000000000000000000000000000000050000000000  0820120928   01HF        5001110000000007287983000000000000000                                               3C0000000101                               REF.RESCISAO DE CONTRATO.          N                     01076 10020256        000002
900000300000000000489546                                                                                                                                                                                    000000000000000                                                                                                                                                                                                                                                    00000100000000000000000        000003
