0000147602043799295000110ALTAMIRA IND METALURGICA LTDA           20100512000002012092809593800000        2    230A                                                                                          000000000000000                                                                                                                                                                                                                                                                                   000001
11014612846000000ANDERSON CABRAL DA SILVA      RUA DA MATRIZ  143                      3151503034100689 00000000596583 I000000000009957000000000000000               201209280000000000000000000000000000000000000000489546000000000000000000000000000000050000000000  0820120928   01HA        0001030                                                                             3C0000000101                             00REF.RESCISAO DE CONTRATO.          N                     00000  0020256        000002
900000300000000000489546                                                                                                                                                                                    000000000000000                                                                                                                                                                                                                                                    00000100000000000000000        000003
