0000147602043799295000110ALTAMIRA INDUSTRIA METALURGICA LT       202000000019720121228060111             1                                                                                                                                                                                                                                                                                                                                                                                                    000001
12003489596000123BEND FLEX I COMERCIO LTDA                                             000000003410000000000000000000000000000088350832000000171879874608            201209122012082100000000054540000695250000000000841519000000000000000000000000146269050000000000  3020121228   01          2                                                                                   3191718798744157734445800069                                                  N                     01321  0000000        000002
12003489596000123BEND FLEX I COMERCIO LTDA                                             000000003410000000000000000000000000000088599899000000171434574613            201209172012081600000000054590000585000000000000702402000000000000000000000000117402050000000000  3020121228   01          2                                                                                   3191714345748157734445800019                                                  N                     01321  0000000        000003
12005151518000140BELENUS DO BRASIL LTDA                                                000000000330000000000000000000000000000091026579000000290000000R132008222     201212222012102300000000055550000460800000000000469923000000000000000000000000009123050000000000  3020121228   01          2                                                                                   3918381050000000498629010499                                                  N                     01321  0000000        000004
12005151518000140BELENUS DO BRASIL LTDA                                                000000000010000000000000000000000000000089605040000000358107000R131268332     201212272012100400000000055600000078720000000000078980000000000000000000000000000260050000000000  3020121228   01          2                                                                                   3000000123933844123581073129                                                  N                     01321  0000000        000005
12005880850000145NEDERMAN BRASIL COM PROD EX LT                                        000000003410000000000000000000000000000086373178000000614350956002763 A       201209252012081400000000054670000289674000000000343254000000000000000000000000053580050000000000  3020121228   01          2                                                                                   3156143509568160829000100049                                                  N                     01321  0000000        000006
12006000195000156MBA MERCANTIL BRAS DE ACO LTDA                                        0000000034100000000000000000000000000000885998980000001667238420008870B02     201209112012071600000000054530000839952000000001018368000000000000000000000000178416050000000000  3020121228   01          2                                                                                   3191667238429064849251000039                                                  N                     01321  0000000        000007
12006000195000156MBA MERCANTIL BRAS DE ACO LTDA                                        0000000034100000000000000000000000000000906662670000001671394410008920B03     201210142012071700000000054860000576584000000000661634000000000000000000000000085050050000000000  3020121228   01          2                                                                                   3191671394416064849251000039                                                  N                     01321  0000000        000008
12006000195000156MBA MERCANTIL BRAS DE ACO LTDA                                        0000000034100000000000000000000000000000889578520000001671394540008920B02     201209162012071700000000054580000576585000000000693387000000000000000000000000116802050000000000  3020121228   01          2                                                                                   3191671394549064849251000099                                                  N                     01321  0000000        000009
12006000195000156MBA MERCANTIL BRAS DE ACO LTDA                                        0000000034100000000000000000000000000000887698090000001671394550008925B02     201209142012071700000000054560000719581000000000868156000000000000000000000000148575050000000000  3020121228   01          2                                                                                   3191671394556064849251000089                                                  N                     01321  0000000        000010
12006000195000156MBA MERCANTIL BRAS DE ACO LTDA                                        0000000034100000000000000000000000000000887698100000001671394560008926B02     201209142012071700000000054560000387716000000000467831000000000000000000000000080115050000000000  3020121228   01          2                                                                                   3191671394564064849251000019                                                  N                     01321  0000000        000011
12006000195000156MBA MERCANTIL BRAS DE ACO LTDA                                        0000000034100000000000000000000000000000904173180000001671394430008926B03     201210122012071700000000054840000387716000000000446467000000000000000000000000058751050000000000  3020121228   01          2                                                                                   3191671394432064849251000079                                                  N                     01321  0000000        000012
12006000195000156MBA MERCANTIL BRAS DE ACO LTDA                                        0000000034100000000000000000000000000000884432630000002398047810009534B02     201212132012091200000000055460000396235000000000396235000000000000000000000000000000050000000000  3020121213   05          3                                                                                   3112398047814064899001800049                                                  N                     01321  0000000        000013
12006000195000156MBA MERCANTIL BRAS DE ACO LTDA                                        0000000034100000000000000000000000000000884432680000002398047840009535B02     201212132012091200000000055460000155122000000000155122000000000000000000000000000000050000000000  3020121213   05          3                                                                                   3112398047848064899001800099                                                  N                     01321  0000000        000014
12006000195000156M B A MERCANTIL BRASILEIRA DE                                         0000000023700118P00000002130599 00000000865388240020222900000450009203B03     201212122012081500000000055450000344980000000000354180000000000000000000000000009200050000000000  3020121228   01          2  RUA JUNO  533                                                                    300000000000000000001500  000000000000000                                     N                     00598  0000000        000015
12006000195000156M B A MERCANTIL BRASILEIRA DE                                         0000000023700118P00000002130599 00000000865388270020222900000480009204B03     201212132012081500000000055460000127291000000000130471000000000000000000000000003180050000000000  3020121228   01          2  RUA JUNO  533                                                                    300000000000000000001500  000000000000000                                     N                     00598  0000000        000016
12006000195000156M B A MERCANTIL BRASILEIRA DE                                         0000000023700118P00000002130599 00000000865388300020222900000510009205B03     201212142012081500000000055470000348964000000000357112000000000000000000000000008148050000000000  3020121228   01          2  RUA JUNO  533                                                                    300000000000000000001500  000000000000000                                     N                     00598  0000000        000017
12006000195000156M B A MERCANTIL BRASILEIRA DE                                         0000000023700118P00000002130599 00000000865388330020222900000540009206B03     201212152012081500000000055480000527560000000000538987000000000000000000000000011427050000000000  3020121228   01          2  RUA JUNO  533                                                                    300000000000000000001500  000000000000000                                     N                     00598  0000000        000018
12006000195000156M B A MERCANTIL BRASILEIRA DE                                         0000000023700118P00000002130599 00000000868592700020223600000030009229B03     201212132012081600000000055460000253414000000000259744000000000000000000000000006330050000000000  3020121228   01          2  RUA JUNO  533                                                                    300000000000000000001500  000000000000000                                     N                     00598  0000000        000019
12008272923000104P SANTOS ESQUADRARIAS METAL ME                                        0000000034100000000000000000000000000000915734100000006159682651954           201212052012110700000000055380000408138000000000441325000000000000000000000000033187050000000000  3020121228   01          2                                                                                   3156159682654160141951600029                                                  N                     01321  0000000        000020
12009043000000143GERSON D DA SILVA SEGURANCA DO                                        000000003990000000000000000000000000000094689881000000000000000444            201301152012122700000000055790000071586000000000071586000000000000000000000000000000050000000000  3020130115   01FS        1                                                                                   3304770046160477000087000199                                                  N                     01321  0000000        000021
12009338857000190FERNANDO  NAGAO  CARDONE  ALVA                                        000000000330000000000000000000000000000091653176000000300000000ALTA 11 2012   201211202012103000000000055230000134632000000000151330000000000000000000000000016698050000000000  3020121228   01          2                                                                                   3947901700000051051630010119                                                  N                     01321  0000000        000022
12042956441000101SOLUCOES ACO USIMINAS                                                 0000000034100000000000000000000000000000853154840000002246247030017196702     201209202012072500000000054620000234841000000000281371000000000000000000000000046530050000000000  3020121228   01          2                                                                                   3112246247038293807258000099                                                  N                     01321  0000000        000023
12042956441000101SOLUCOES ACO USIMINAS                                                 0000000034100000000000000000000000000000853154850000002246247040017197302     201209202012072500000000054620000970103000000001162163000000000000000000000000192060050000000000  3020121228   01          2                                                                                   3112246247046293807258000019                                                  N                     01321  0000000        000024
12042956441000101SOLUCOES ACO USIMINAS                                                 0000000034100000000000000000000000000000855028690000002254329380017212902     201209212012072600000000054630000140098000000000167538000000000000000000000000027440050000000000  3020121228   01          2                                                                                   3112254329389293807258000019                                                  N                     01321  0000000        000025
12042956441000101SOLUCOES ACO USIMINAS                                                 0000000034100000000000000000000000000000855028700000002254329390017213002     201209212012072600000000054630000140602000000000168140000000000000000000000000027538050000000000  3020121228   01          2                                                                                   3112254329397293807258000089                                                  N                     01321  0000000        000026
12042956441000101SOLUCOES ACO USIMINAS                                                 0000000034100000000000000000000000000000855028770000002254329400017220502     201209212012072700000000054630000981022000000001173298000000000000000000000000192276050000000000  3020121228   01          2                                                                                   3112254329405293807258000099                                                  N                     01321  0000000        000027
12042956441000101SOLUCOES ACO USIMINAS                                                 0000000034100000000000000000000000000000859590620000002274469790017353702     201209282012080300000000054700000081053000000000095795000000000000000000000000014742050000000000  3020121228   01          2                                                                                   3112274469793293807258000069                                                  N                     01321  0000000        000028
12042956441000101SOLUCOES ACO USIMINAS                                                 0000000034100000000000000000000000000000846595700000002210880280016980502     201209102012071200000000054520000156071000000000190079000000000000000000000000034008050000000000  3020121228   01          2                                                                                   3112210880285293807258000039                                                  N                     01321  0000000        000029
12042956441000101SOLUCOES ACO USIMINAS                                                 0000000034100000000000000000000000000000846595710000002210880290016980602     201209102012071200000000054520000426094000000000518962000000000000000000000000092868050000000000  3020121228   01          2                                                                                   3112210880293293807258000019                                                  N                     01321  0000000        000030
12042956441000101SOLUCOES ACO USIMINAS                                                 0000000034100000000000000000000000000000847452070000002216130350005922202     201209102012071600000000054520000172071000000000209567000000000000000000000000037496050000000000  3020121228   01          2                                                                                   3112216130354293807258000049                                                  N                     01321  0000000        000031
12042956441000101SOLUCOES ACO USIMINAS                                                 0000000034100000000000000000000000000000847452100000002216130340017012402     201209102012071500000000054520000147428000000000179583000000000000000000000000032155050000000000  3020121228   01          2                                                                                   3112216130347293807258000059                                                  N                     01321  0000000        000032
12042956441000101SOLUCOES ACO USIMINAS                                                 0000000034100000000000000000000000000000848180700000002220192900017041002     201209112012071700000000054530000155433000000000189021000000000000000000000000033588050000000000  3020121228   01          2                                                                                   3112220192903293807258000029                                                  N                     01321  0000000        000033
12042956441000101SOLUCOES ACO USIMINAS                                                 0000000034100000000000000000000000000000848180710000002220192910017041202     201209112012071700000000054530000205421000000000249809000000000000000000000000044388050000000000  3020121228   01          2                                                                                   3112220192911293807258000019                                                  N                     01321  0000000        000034
12042956441000101SOLUCOES ACO USIMINAS                                                 0000000034100000000000000000000000000000850740470000002233586810017101002     201209142012071900000000054560000732575000000000886400000000000000000000000000153825050000000000  3020121228   01          2                                                                                   3112233586810293807258000019                                                  N                     01321  0000000        000035
12042956441000101SOLUCOES ACO USIMINAS                                                 0000000034100000000000000000000000000000850740480000002233586820017101202     201209142012071900000000054560000144634000000000174979000000000000000000000000030345050000000000  3020121228   01          2                                                                                   3112233586828293807258000029                                                  N                     01321  0000000        000036
12047190731000100DE CASTRO LOUR ENG IND LTDA                                           00000000341000000000000000000000000000008782051000000023399953703026612 0     201212182012082100000000055510001111822000000001133692000000000000000000000000021870050000000000  3020121228   01          2                                                                                   3112339995378036884500400049                                                  N                     01321  0000000        000037
12047190731000100DE CASTRO LOUR ENG IND LTDA                                           00000000341000000000000000000000000000008782051100000023399954303026614 0     201212182012082100000000055510001047933000000001068543000000000000000000000000020610050000000000  3020121228   01          2                                                                                   3112339995436036884500400029                                                  N                     01321  0000000        000038
12047190731000100DE CASTRO LOUR ENG IND LTDA                                           00000000341000000000000000000000000000008782051200000023399953803026613 0     201209182012082100000000054600001107989000000001328068000000000000000000000000220079050000000000  3020121228   01          2                                                                                   3112339995386036884500400039                                                  N                     01321  0000000        000039
12047190731000100DE CASTRO LOUR ENG IND LTDA                                           00000000341000000000000000000000000000008782051400000023399954003026613 0     201212182012082100000000055510001108322000000001130122000000000000000000000000021800050000000000  3020121228   01          2                                                                                   3112339995402036884500400069                                                  N                     01321  0000000        000040
12047190731000100DE CASTRO LOUR ENG IND LTDA                                           00000000341000000000000000000000000000008782051600000023399954103026614 0     201209182012082100000000054600001047621000000001255681000000000000000000000000208060050000000000  3020121228   01          2                                                                                   3112339995410036884500400039                                                  N                     01321  0000000        000041
12047190731000100DE CASTRO LOUR ENG IND LTDA                                           00000000341000000000000000000000000000008782051900000023399955803026636 0     201212192012082200000000055520000941086000000000957745000000000000000000000000016659050000000000  3020121228   01          2                                                                                   3112339995584036884500400069                                                  N                     01321  0000000        000042
12047190731000100DE CASTRO LOUR ENG IND LTDA                                           00000000341000000000000000000000000000008782052500000023399955603026636 0     201209192012082200000000054610000940804000000001125804000000000000000000000000185000050000000000  3020121228   01          2                                                                                   3112339995568036884500400049                                                  N                     01321  0000000        000043
12047190731000100DE CASTRO LOUR ENG IND LTDA                                           00000000341000000000000000000000000000008782052700000023399956203026648 0     201209202012082300000000054620000976053000000001166133000000000000000000000000190080050000000000  3020121228   01          2                                                                                   3112339995626036884500400029                                                  N                     01321  0000000        000044
12047190731000100DE CASTRO LOUR ENG IND LTDA                                           00000000341000000000000000000000000000008782052900000023399956403026648 0     201212202012082300000000055530000976344000000000991704000000000000000000000000015360050000000000  3020121228   01          2                                                                                   3112339995642036884500400059                                                  N                     01321  0000000        000045
12047190731000100DE CASTRO LOUR ENG IND LTDA                                           00000000341000000000000000000000000000008782053300000023399956103026643 0     201212202012082300000000055530000867297000000000880945000000000000000000000000013648050000000000  3020121228   01          2                                                                                   3112339995618036884500400059                                                  N                     01321  0000000        000046
12047190731000100DE CASTRO LOUR ENG IND LTDA                                           00000000341000000000000000000000000000008782059200000023602715103026744 0     201212262012082900000000055590000146636000000000147212000000000000000000000000000576050000000000  3020121228   01          2                                                                                   3112360271517036884500400019                                                  N                     01321  0000000        000047
12047190731000100DE CASTRO LOUR ENG IND LTDA                                           00000000341000000000000000000000000000008782059600000023602714803026734 0     201212252012082800000000055580000998134000000001004023000000000000000000000000005889050000000000  3020121228   01          2                                                                                   3112360271483036884500400059                                                  N                     01321  0000000        000048
12047190731000100DE CASTRO LOUR ENG IND LTDA                                           00000000341000000000000000000000000000008782059700000023602715403026745 0     201212262012082900000000055590000903448000000000907002000000000000000000000000003554050000000000  3020121228   01          2                                                                                   3112360271541036884500400019                                                  N                     01321  0000000        000049
12047190731000100DE CASTRO LOUR ENG IND LTDA                                           00000000341000000000000000000000000000008782059900000023602715003026744 0     201211292012082900000000055320000146594000000000154946000000000000000000000000008352050000000000  3020121228   01          2                                                                                   3112360271509036884500400069                                                  N                     01321  0000000        000050
12047190731000100DE CASTRO LOUR ENG IND LTDA                                           00000000341000000000000000000000000000008782050900000023399953503026612 0     201209182012082100000000054600001111489000000001332275000000000000000000000000220786050000000000  3020121228   01          2                                                                                   3112339995352036884500400019                                                  N                     01321  0000000        000051
12047190731000100DE CASTRO LOUR ENG IND LTDA                                           00000000341000000000000000000000000000009041732300000025008465203027256 0     201212112012101600000000055440001108602000000001145662000000000000000000000000037060050000000000  3020121228   01          2                                                                                   3112500846525036884500400019                                                  N                     01321  0000000        000052
12047190731000100DE CASTRO LOUR ENG IND LTDA                                           00000000341000000000000000000000000000009041732500000025008465503027257 0     201212132012101600000000055460000751900000000000774085000000000000000000000000022185050000000000  3020121228   01          2                                                                                   3112500846558036884500400029                                                  N                     01321  0000000        000053
12047190731000100DE CASTRO LOUR ENG IND LTDA                                           00000000341000000000000000000000000000009041732900000025008464603027216 0     201212052012101000000000055380000225377000000000235566000000000000000000000000010189050000000000  3020121228   01          2                                                                                   3112500846467036884500400029                                                  N                     01321  0000000        000054
12047190731000100DE CASTRO LOUR ENG IND LTDA                                           00000000341000000000000000000000000000009041733100000025008464903027234 0     201212062012101100000000055390001029597000000001074147000000000000000000000000044550050000000000  3020121228   01          2                                                                                   3112500846491036884500400029                                                  N                     01321  0000000        000055
12047190731000100DE CASTRO LOUR ENG IND LTDA                                           00000000341000000000000000000000000000008782052000000023399955303026632 0     201209192012082200000000054610000952073000000001139273000000000000000000000000187200050000000000  3020121228   01          2                                                                                   3112339995535036884500400019                                                  N                     01321  0000000        000056
12047190731000100DE CASTRO LOUR ENG IND LTDA                                           00000000341000000000000000000000000000008782052100000023399955903026643 0     201209202012082300000000054620000867039000000001035834000000000000000000000000168795050000000000  3020121228   01          2                                                                                   3112339995592036884500400049                                                  N                     01321  0000000        000057
12047190731000100DE CASTRO LOUR ENG IND LTDA                                           00000000341000000000000000000000000000008782052300000023399955503026632 0     201212192012082200000000055520000952358000000000969215000000000000000000000000016857050000000000  3020121228   01          2                                                                                   3112339995550036884500400039                                                  N                     01321  0000000        000058
12047190731000100DE CASTRO LOUR ENG IND LTDA                                           00000000341000000000000000000000000000008996247900000024766209203027184 0     201211302012100500000000055330001153047000000001216551000000000000000000000000063504050000000000  3020121228   01          2                                                                                   3112476620920036884500400089                                                  N                     01321  0000000        000059
12048775225000146SEIKI IND COM E CONFECCOES LTD                                        000000003410000000000000000000000000000089337376000000244697151014914001      201210232012092500000000054950000052000000000000057148000000000000000000000000005148050000000000  3020121228   01          2                                                                                   3112446971510017444824100089                                                  N                     01321  0000000        000060
12051180370000199IGUAFER FERRO E ACO LTDA                                              0000000034100000000000000000000000000000852309100000002239389789443 B         201209022012071800000000054440000168275000000000201035000000000000000000000000032760050000000000  3020121228   01          2                                                                                   3112239389789077149484600089                                                  N                     01321  0000000        000061
12051180370000199IGUAFER FERRO E ACO LTDA                                              0000000034100000000000000000000000000000852309110000002239389799443 C         201209122012071800000000054540000168275000000000198235000000000000000000000000029960050000000000  3020121228   01          2                                                                                   3112239389797077149484600089                                                  N                     01321  0000000        000062
12054382510000108SETENTA IND E COM DE MADEIRAS                                         0000000034100000000000000000000000000000860403430000002277814474462 A         201209042012080700000000054460000191200000000000234440000000000000000000000000043240050000000000  3020121228   01          2                                                                                   3112277814474057049175300069                                                  N                     01321  0000000        000063
12056993512000150CYKLOP DO BRASIL EMBALAGENS SA                                        0000000034100000000000000000000000000000874070500000002362586810134932        201210012012090300000000054730000083607000000000110623000000000000000000000000027016050000000000  3020121228   01          2                                                                                   3112362586813025700015800019                                                  N                     01321  0000000        000064
12062510367000102ITANHAEM TRANSP DE MAQUINAS LT                                        000000003410000000000000000000000000000087407049000000236463199667            201209202012090400000000054620000248220000000000346527000000000000000000000000098307050000000000  3020121228   01          2                                                                                   3112364631997005770252400049                                                  N                     01321  0000000        000065
12062539994000176LEALFER INDUSTRIA E COMERCIO D                                        0000000003300000000000000000000000000000933583060000000500000000005891201     201212242012112600000000055570000378516000000000379802000000000000000000000000001929050000000000  3020121226   06          3                                                                                   3915298380000000300705010449                                                  N                     01321  0000000        000066
12064952757000168WALMAC COM DE PROD QUIMICOS LT                                        0000000034100000000000000000000000000000860403450000002275821700020148        201210052012080300000000054770000219267000000000255471000000000000000000000000036204050000000000  3020121228   01          2                                                                                   3112275821703064807961400029                                                  N                     01321  0000000        000067
12066841552000130R V SEG PATRIMONIAL LTDA                                              00000000341000000000000000000000000000008852483200000090002192721927          201209102012081000000000054520000483241000000000500790000000000000000000000000017549050000000000  3020121228   01          2                                                                                   3109000219270001835253400099                                                  N                     01321  0000000        000068
12069284248000128ISOCOAT TINTAS E VERNIZES LTDA                                        0000000034100000000000000000000000000000921267630000002580320800057981        201212272012111200000000055600000402235000000000403308000000000000000000000000001073050000000000  3020121228   01          2                                                                                   3112580320805077430121200079                                                  N                     01321  0000000        000069
12069284248000128ISOCOAT TINTAS E VERNIZES LTDA                                        0000000034100000000000000000000000000000900522880000002477686990056631        201212242012101000000000055570000318064000000000321456000000000000000000000000003392050000000000  3020121228   01          2                                                                                   3112477686995077430121200089                                                  N                     01321  0000000        000070
12069284248000128ISOCOAT TINTAS E VERNIZES LTDA                                        0000000034100000000000000000000000000000908309620000002521130190057192        201212242012102400000000055570000317968000000000321360000000000000000000000000003392050000000000  3020121228   01          2                                                                                   3112521130198077430121200099                                                  N                     01321  0000000        000071
12069284248000128ISOCOAT TINTAS E VERNIZES LTDA                                        0000000034100000000000000000000000000000841061040000002182507930052085        201209172012070200000000054590000236130000000000300390000000000000000000000000064260050000000000  3020121228   01          2                                                                                   3112182507932077430121200019                                                  N                     01321  0000000        000072
12071580302000124SANCHEPEL IND PAULISTA EMB L                                          0000000034100000000000000000000000000000941025990000002682588388366 03        201301242012121400000000055880000033747000000000033747000000000000000000000000000000050000000000  3020130124   05          3                                                                                   3112682588382007855578600019                                                  N                     01321  0000000        000073
12071580302000124SANCHEPEL IND PAULISTA EMB L                                          0000000034100000000000000000000000000000946898800000002682588388366 03        201301242012121400000000055880000033747000000000033747000000000000000000000000000000050000000000  3020130124   01FS        1                                                                                   3112682588382007879533300019                                                  N                     01321  0000000        000074
12081560047000101ACEVILLE TRANSPORTES LTDA                                             000000000330000000000000000000000000000094689879000000550000000302455         201301112012122600000000055750000058400000000000058400000000000000000000000000000000050000000000  3020130111   01FS        1                                                                                   3913555200000003024555010179                                                  N                     01321  0000000        000075
900007600000000041025425                                                                                                                                                                                                                                                                                                                                                                                                                                                                01321  0000000        000076
