0000147602043799295000110ALTAMIRA INDUSTRIA METALURGICA LT       202000000048920121129111128             2                                                                                                  000000000000000                                                                                                                                                                                                                                                                                   000001
12043799295000110ALTAMIRA INDUSTRIA METAL LTDA                                         0000000039900198 000000000096330I000000000010245000000000000000               201211290000000000000000000000000000000000000000500000000000000000000000000000000000050000000001  0820121129   01HF        5001108000000003265801000000000000000                                               3D0000000101                               01                                 S                     01133 10020256        000002
900000300000000000500000                                                                                                                                                                                    000000000000000                                                                                                                                                                                                                                                    00000100000000000000000        000003
