0000147602043799295000110ALTAMIRA INDUSTRIA METALURGICA LT       202000000193420121029213152             3                                                                                                  000000000000000                                                                                                                                                                                                                                                                                   000001
12061085866000137COMERCIO DE FERRAGENS ACL LTDAR CAP SALOMAO N 87 SANTA EFIGENIA       0103402023700475800000000385662 I000000000010096000000000000000               201210290000000000000000000000000000000000000000027500000000000000000000000000000000010000017202  0120121029   02BW        5000000               000000000000000                                               3                                          017202                             N                     01321 10020256        000002
12065000655000105HILTI DO BRASIL COMERCIAL LTDAAV CECI 426 TAMBORE                     0646012023703396000000000243787 I000000000010105000000000000000               201210290000000000000000000000000000000000000000130923000000000000000000000000000000010000191939  0120121029   02BW        5000000               000000000000000                                               3                                          191939/02-03                       N                     01321 10020256        000003
12057158057000130COMERCIAL ELETRICA  PJ   LTDA                                         0000000023703394400000000972983 I000000000010104009022760000277               201210290000000000000000055010000012317000000000012317000000000000000000000000000000010000330236  3120121029   02BW        5000000               000000000000000                                               3339409227600002770097298089               330236                             N                     01079 10020256        000004
12009057974000186PAMASI TECNOLOGIA DE ATIVOS E                                         0000000023700498700000000742600 I000000000010107009022990000004               201210290000000000000000055010000017620000000000017620000000000000000000000000000000010000014219  3120121029   02BW        5000000               000000000000000                                               3049809229900000040074260019               14219                              N                     01079 10020256        000005
12060737301000124SERRALHERIA SEPETIBA LTDA     PCA ALFREDO WEISZFLOG 81                0504505023700368900000000503509 I000000000010095000000000000000               201210290000000000000000000000000000000000000000057440000000000000000000000000000000010000000316  0120121029   02BW        5000000               000000000000000                                               3                                          0316 - PARC.04/05.                 N                     01321 10020256        000006
12045987005000198D PASCHOAL AUTOMOTIVA LTDA                                            0000000023702002800000000147001 I000000000010103011000000017165               201210290000000000000000055010000033570000000000033570000000000000000000000000000000010000000036  3120121029   02BW        5000000               000000000000000                                               3200211000000171650014700019               036                                N                     01079 10020256        000007
12035820448000136WHITE MARTINS GASES INDUSTRIAI                                        0000000023700026400000003937925 0000000089133533009022720004128386815 001     201210252012092800000000054970000017600000000000017976000000000000000000000000000400050000000000  3020121029   02BW        2000000               000000000000000                                               3                         000000000000000  232947                             N                     01079 10020256        000008
12057304479000177DIGEL ELETRICA LTDA                                                   000000003410000000000000000000000000000089518982000000245530615000040984A     201210292012100100000000055010000033400000000000033400000000000000000000000000000000050000000000  3020121029   02BW        2000000               000000000000000                                               3112455306152812108805100049               040984                             N                     01132 10020256        000009
12009259079000144SAFRA COMERCIAL DE PAPEIS LTDA                                        00000000033000000000000000000000000000008922925900000037000000000139788       201210272012092800000000054990000040736000000000040736000000000000000000000000000000050000000000  3020121029   02BW        2000000               000000000000000                                               3918361880000000337637010449               0139788                            N                     01132 10020256        000010
12011318709000156IMPAKTO TRANSPORTES                                                   0000000000100000000000000000000000000000898741150000000002390006809           201210292012100900000000055010000015206000000000015206000000000000000000000000000000050000000000  3020121029   02BW        2000000               000000000000000                                               3000000245286000000002391719               6809                               N                     01132 10020256        000011
12061217188000119TELAS METALICAS TELMETAL LTDA                                         0000000000100000000000000000000000000000895189320000000057750005729 1 1       201210292012100300000000055010000029623000000000029623000000000000000000000000000000050000000000  3020121029   02BW        2000000               000000000000000                                               3000000115031800000057751759               5729/01-01                         N                     01132 10020256        000012
12002583013000166ITAN TRANSP DE CARGAS EXC E IN                                        000000003410000000000000000000000000000088769803000000241619342008 F          201210282012091800000000055000000105350000000000105350000000000000000000000000000000050000000000  3020121029   02BW        2000000               000000000000000      ITAN TRANSP DE CARGAS EXC E IN           3112416193426005770252400019               08/F                               N                     01132 10020256        000013
12002234917000186RODOVIARIO SOL NASCENTE LTDA                                          000000000010000000000000000000000000000089697939000000211686000034964         201210292012100500000000055010000071570000000000071570000000000000000000000000000000050000000000  3020121029   02BW        2000000               000000000000000                                               3044122116863028000124731139               034964                             N                     01132 10020256        000014
12005151518000140BELENUS DO BRASIL LTDA                                                000000000010000000000000000000000000000089605041000000358105000R131268312     201210282012100400000000055000000102337000000000102337000000000000000000000000000000050000000000  3020121029   02BW        2000000               000000000000000                                               3000000123933844123581053189               312683                             N                     01132 10020256        000015
12033325184001786ALSCO TOALHEIRO BRASIL                                                0000000023703396000000001490850 0000000089697953009000002751805VM27518        201210242012100400000000054960000068498000000000068838000000000000000000000000000680050000000000  3020121029   02BW        2000000               000000000000000                                               3                         000000000000000  27518                              N                     01079 10020256        000016
12049341563000132JAC COMERCIO DE MATERIAIS ELET                                        0000000023700293300000001478699 00000000893373780020132276064752330401        201210292012100200000000055010000015528000000000015528000000000000000000000000000000050000000000  3020121029   02BW        2000000               000000000000000                                               3                         000000000000000  023304                             N                     01079 10020256        000017
12056428188000128EDVALDO SANTOS ROSA ME                                                0000000023700898200000000005622 0000000088191341009011225700667194919607      201210292012091300000000055010000089850000000000089850000000000000000000000000000000050000000000  3020121029   02BW        2000000               000000000000000                                               3                         000000000000000  194919607                          N                     01079 10020256        000018
12002487160000132TRANSCOMAP COM DE MAT P  CONST                                        0000000000100000 0000000000000  I000000000010091000000000000000               201210290000000000000000055010000105000000000000105000000000000000000000000000000000050000000720  3120121029   02BW        5000000               000000000000000                                               3000000164161100500025761829               0720                               N                     01132 10020256        000019
12061217188000119TELAS METALICAS TELMETAL LTDA                                         0000000000100000000000000000000000000000885248170000000057470005660 2 2       201210292012091800000000055010000072171000000000072171000000000000000000000000000000050000000000  3020121029   02BW        2000000               000000000000000                                               3000000115031800000057471789               5660/02-02                         N                     01132 10020256        000020
12002583013000166ITAN TRANSP DE CARGAS EXC E IN                                        000000003410000000000000000000000000000088350837000000239377423008 C          201210282012091400000000055000000192500000000000192500000000000000000000000000000000050000000000  3020121029   02BW        2000000               000000000000000      ITAN TRANSP DE CARGAS EXC E IN           3112393774230005770252400059               008/03                             N                     01132 10020256        000021
12061217188000119TELAS METALICAS TELMETAL LTDA                                         0000000034100000 0000000000000  I000000000010101000000000000000               201210290000000000000000055010000033820000000000033820000000000000000000000000000000010000005640  3120121029   02BW        5000000               000000000000000                                               3181569940403077099894600049               5640/03                            N                     01132 10020256        000022
12061217188000119TELAS METALICAS TELMETAL LTDA                                         0000000034100000 0000000000000  I000000000010099000000000000000               201210290000000000000000055010000053605000000000053605000000000000000000000000000000010000005639  3120121029   02BW        5000000               000000000000000                                               3181569937094077099894600059               5639/03-03                         N                     01132 10020256        000023
12063076863000243CASARINI EQPTOS INDUSTRIAIS LT                                        0000000034100000 0000000000000  I000000000010100000000000000000               201210290000000000000000055010000053118000000000053118000000000000000000000000000000010000003373  3120121029   02BW        5000000               000000000000000                                               3181569942856006550395500019               03373                              N                     01132 10020256        000024
12011013187000184PRIME RAV FOMENTO MERCANTIL LT                                        0000000034100000 0000000000000  I000000000010089000000000000000               201210290000000000000000055010000204050000000000204050000000000000000000000000000000010000000008  3120121029   02BW        5000000               000000000000000                                               3181569482884005770252400019               8                                  N                     01132 10020256        000025
12011013187000184PRIME RAV FOMENTO MERCANTIL LT                                        0000000034100000 0000000000000  I000000000010090000000000000000               201210290000000000000000055010000111665000000000111665000000000000000000000000000000010000000008  3120121029   02BW        5000000               000000000000000                                               3181569483452005770252400019               008/D                              N                     01132 10020256        000026
12002487160000132TRANSCOMAP COM DE MAT P  CONST                                        0000000000100000 0000000000000  I000000000010092000000000000000               201210290000000000000000055010000075000000000000075000000000000000000000000000000000050000084712  3120121029   02BW        5000000               000000000000000                                               3000000164161100500026881889               084712                             N                     01132 10020256        000027
12012707981000190MAC CINTAS E A CARGAS LTDA ME                                         0000000034100000 0000000000000  I000000000010093000000000000000               201210290000000000000000055010000074623000000000074623000000000000000000000000000000010000000609  3120121029   02BW        5000000               000000000000000                                               3181569886135068283895800089               609                                N                     01132 10020256        000028
12013656578000142GUARINOR TRANSP E LOGISTICA LT                                        0000000010400000 0000000000000  I000000000010094000000000000000               201210290000000000000000055010000066600000000000066600000000000000000000000000000000040000001727  3120121029   02BW        5000000               000000000000000                                               3900000127932958700000017319               01727/12                           N                     01132 10020256        000029
12004934836000114GUAIRA MAT P CONSTRUCAO LTDA                                          0000000034100000 0000000000000  I000000000010097000000000000000               201210290000000000000000055010000056980000000000056980000000000000000000000000000000010000023736  3120121029   02BW        5000000               000000000000000                                               3181569908255076568242200019               23736                              N                     01132 10020256        000030
12057398687000182MORED COM SERV LTDA                                                   0000000034100000 0000000000000  I000000000010098000000000000000               201210290000000000000000055010000054875000000000054875000000000000000000000000000000010000005226  3120121029   02BW        5000000               000000000000000                                               3181569341870101144455900019               5226/01                            N                     01132 10020256        000031
12004882911000140FERNANDO COSTA BRITO GUARULHOS                                        0000000003300000 0000000000000  I000000000010108000000000000000               201210290000000000000000055010000025214000000000025214000000000000000000000000000000010000014100  3120121029   02BW        5000000               000000000000000                                               3944753720000000103667010119               014100                             N                     01132 10020256        000032
12015244717000156STYLO ROL COM ROLAM                                                   0000000034100000 0000000000000  I000000000010106000000000000000               201210290000000000000000055010000013000000000000013000000000000000000000000000000000010000000062  3120121029   02BW        5000000               000000000000000                                               3109201200379076423057900019               062                                N                     01132 10020256        000033
12062944582000111AS SOLUCOES COMERCIAL LTDA                                            0000000000100000 0000000000000  I000000000010102000000000000000               201210290000000000000000055010000033795000000000033795000000000000000000000000000000010000016984  3120121029   02BW        5000000               000000000000000                                               3529483207951190000690001769               16984                              N                     01132 10020256        000034
12061217188000119TELAS METALICAS TELMETAL LTDA                                         0000000000100000000000000000000000000000885248150000000057450005659 2 2       201210292012091800000000055010000039221000000000039221000000000000000000000000000000050000000000  3020121029   02BW        2000000               000000000000000                                               3000000115031800000057451769               5659/02-02                         N                     01132 10020256        000035
900003600000000002135021                                                                                                                                                                                    000000000000000                                                                                                                                                                                                                                                    00003401705170001918442        000036
