0000147602043799295000110ALTAMIRA INDUSTRIA METALURGICA LT       202000000180220120730223000             3                                                                                                  000000000000000                                                                                                                                                                                                                                                                                   000001
12000867888000164TECNEQUIP TECNOLOGIA EQUIP LTD                                        0000000034100452 00000000749849 I000000000009275000000000000000               201207300000000000000000000000000000000000000003300000000000000000000000000000000000050000000002  0820120730   02BW        5001530               000000000000000                                               3C0000000101                               02                                 N                     01076 10020256        000002
12042956441000101SOLUCOES EM ACO USIMINAS S A                                          0000000034100000 0000000000000  I000000000009281000000000000000               201207300000000000000000054100000344468000000000344468000000000000000000000000000000010000161900  3120120730   02BW        5000000               000000000000000                                               3181513657693293807258000069               0161900/02                         N                     01130 10020256        000003
12042956441000101SOLUCOES EM ACO USIMINAS S A                                          0000000000100000 0000000000000  I000000000009283000000000000000               201207300000000000000000054100000397167000000000397167000000000000000000000000000000010000166813  3120120730   02BW        5000000               000000000000000                                               3000000169660100000865461719               0166813/01                         N                     01130 10020256        000004
12042956441000101SOLUCOES EM ACO USIMINAS S A                                          0000000034100000 0000000000000  I000000000009280000000000000000               201207300000000000000000054100000343416000000000343416000000000000000000000000000000010000160747  3120120730   02BW        5000000               000000000000000                                               3181513658592293807258000089               160747/02                          N                     01130 10020256        000005
12042956441000101SOLUCOES EM ACO USIMINAS S A                                          0000000034100000 0000000000000  I000000000009279000000000000000               201207300000000000000000054100000578853000000000578853000000000000000000000000000000010000161895  3120120730   02BW        5000000               000000000000000                                               3181513659541293807258000039               0161895/02                         N                     01130 10020256        000006
12042956441000101SOLUCOES EM ACO USIMINAS S A                                          0000000034100000 0000000000000  I000000000009282000000000000000               201207300000000000000000054100000455998000000000455998000000000000000000000000000000010000161903  3120120730   02BW        5000000               000000000000000                                               3181513660879293807258000039               0161903/02                         N                     01130 10020256        000007
12006000195000156MBA MERCANTIL BRASIL ACO LTDA                                         0000000000100000 0000000000000  I000000000009288000000000000000               201207300000000000000000054100000432412000000000432412000000000000000000000000000000010000008651  3120120730   02BW        5000000               000000000000000                                               3043852571493333000105251169               08651/01                           N                     01130 10020256        000008
12042956441000101SOLUCOES EM ACO USIMINAS S A                                          0000000000100000 0000000000000  I000000000009284000000000000000               201207300000000000000000054100000330038000000000330038000000000000000000000000000000010000166828  3120120730   02BW        5000000               000000000000000                                               3000000169660100000865611719               0166828/01                         N                     01130 10020256        000009
12042956441000101SOLUCOES EM ACO USIMINAS S A                                          0000000034100000 0000000000000  I000000000009285000000000000000               201207300000000000000000054100000608268000000000608268000000000000000000000000000000010000160715  3120120730   02BW        5000000               000000000000000                                               3181513653726293807258000089               0160715/02                         N                     01130 10020256        000010
12042956441000101SOLUCOES EM ACO USIMINAS S A                                          0000000000100000 0000000000000  I000000000009286000000000000000               201207300000000000000000054100000707066000000000707066000000000000000000000000000000010000167113  3120120730   02BW        5000000               000000000000000                                               3000000169660100000874921789               0167113/01                         N                     01130 10020256        000011
12006000195000156MBA MERCANTIL BRASIL ACO LTDA                                         0000000000100000 0000000000000  I000000000009278000000000000000               201207300000000000000000054100000399251000000000399251000000000000000000000000000000010000007989  3120120730   02BW        5000000               000000000000000                                               3043688159903333000105251139               07989/03                           N                     01130 10020256        000012
12006000195000156MBA MERCANTIL BRASIL ACO LTDA                                         0000000000100000 0000000000000  I000000000009277000000000000000               201207300000000000000000054100000652899000000000652899000000000000000000000000000000010000008656  3120120730   02BW        5000000               000000000000000                                               3043852571613333000105251149               08656/01                           N                     01130 10020256        000013
12042956441000101SOLUCOES EM ACO USIMINAS S A                                          0000000034100000 0000000000000  I000000000009287000000000000000               201207300000000000000000054100000584710000000000584710000000000000000000000000000000010000162283  3120120730   02BW        5000000               000000000000000                                               3181513696170293807258000089               0162283/02                         N                     01130 10020256        000014
12006000195000156M B A MERCANTIL BRASILEIRA DE R RINCAO 220                            0365108023700118000000002128292 I000000000009276000000000000000               201207300000000000000000000000000000000000000000517280000000000000000000000000000000010000008399  0120120730   02BW        5000000               000000000000000                                               3                                          08399/02                           N                     01321 10020256        000015
900001600000000009651826                                                                                                                                                                                    000000000000000                                                                                                                                                                                                                                                    00001400649200005834546        000016
