0000147602043799295000110ALTAMIRA INDUSTRIA METALURGICA LT       202000000011620120830055610             1                                                                                                                                                                                                                                                                                                                                                                                                    000001
12002917344000195PRENSAPECA INDUSTRIA E COMERCI                                        0000000000100000000000000000000000000000858616300000004340050006006           201208292012080300000000054400000072448000000000072683000000000000000000000000000235050000000000  3020120830   01          2                                                                                   3000000103919943954340051119                                                  N                     01321  0000000        000002
12003489596000123BEND FLEX INDUSTRIA E COMERCIO                                        000000001040000000000000000000000000000084571468000000666411300587 3          201208242012071100000000054350000631600000000000631600000000000000000000000000000000050000000000  3020120824   06          3                                                                                   3314166641111558700000019919                                                  N                     01321  0000000        000003
12003746938000143STAPLES BRASIL COM DE MAT DE E                                        0000000023703394400000000368008 0000000085074069002000000797375460605 1       201208222012072300000000054330000032373000000000036042000000000000000000000000003669050000000000  3020120830   01          2  RUA GANGES VILA CARRAO VILA CARRAO                                               3                         000000000000000                                     N                     00598  0000000        000004
12005151518000140BELENUS DO BRASIL LTDA                                                0000000023703389800000000015091 0000000083945276009021860002352R128108022     201208252012062600000000054360000576000000000000585505000000000000000000000000009505050000000000  3020120830   01          2  RUA GANGES  528                                                                  3                         000000000000000                                     N                     00598  0000000        000005
12006000195000156MBA MERCANTIL BRAS DE ACO LTDA                                        0000000034100000000000000000000000000000850740650000008671394740008920B01     201208192012072000000000054300000576584000000000578160000000000000000000000000001891050000000000  3020120824   05          3                                                                                   3458671394740064849251000069                                                  N                     01321  0000000        000006
12007175725000160WEG EQUIPAMENTOS ELETRICOS SA                                         0000000023702727800000000196800 00000000815444390090214500004510095359901     201208212012052300000000054320000272787000000000276054000000000000000000000000003267050000000000  3020120830   01          2  R JUNO  533                                                                      3                         000000000000000                                     N                     00598  0000000        000007
12011202309000180FIEL TOOLS DISTRIBUIDORA DE MA                                        0000000023702087700000000000116 0000000087017758009000020186261008626 1       201208202012072300000000054310000041975000000000043864000000000000000000000000001889050000000000  3020120830   01          2  R TAMAINDE  1 410   RUA GANGES  520 E 52                                         3                         000000000000000                                     N                     00598  0000000        000008
12012006058000121WEG TINTAS LTDA                                                       0000000023702727800000000001309 00000000842436820090219200000840015068801     201208232012070900000000054340000306569000000000309425000000000000000000000000002856050000000000  3020120830   01          2  R JUNO  533                                                                      3                         000000000000000                                     N                     00598  0000000        000009
12012006058000121WEG TINTAS LTDA                                                       0000000023702727800000000001309 00000000844839220090219500000710015168701     201208262012071200000000054370000306569000000000308201000000000000000000000000001632050000000000  3020120830   01          2  R JUNO  533                                                                      3                         000000000000000                                     N                     00598  0000000        000010
12012006058000121WEG TINTAS LTDA                                                       0000000023702727800000000001309 00000000824820170090216300000890014374203     201208222012060800000000054330000459992000000000464896000000000000000000000000004904050000000000  3020120830   01          2  R JUNO  533                                                                      3                         000000000000000                                     N                     00598  0000000        000011
12012006058000121WEG TINTAS LTDA                                                       0000000023702727800000000001309 00000000827244630090216600000720014454803     201208272012061300000000054380000306662000000000307886000000000000000000000000001224050000000000  3020120830   01          2  R JUNO  533                                                                      3                         000000000000000                                     N                     00598  0000000        000012
12012006058000121WEG TINTAS LTDA                                                       0000000023702727800000000001309 00000000828904040090217000001030014515403     201208292012061500000000054400000459992000000000460605000000000000000000000000000613050000000000  3020120830   01          2  R JUNO  533                                                                      3                         000000000000000                                     N                     00598  0000000        000013
12012006058000121WEG TINTAS LTDA                                                       0000000023702727800000000001309 00000000833069150090217700001080014685602     201208212012062200000000054320000459854000000000465371000000000000000000000000005517050000000000  3020120830   01          2  R JUNO  533                                                                      3                         000000000000000                                     N                     00598  0000000        000014
12012006058000121WEG TINTAS LTDA                                                       0000000023702727800000000001309 00000000834820630090217900000750014773902     201208252012062600000000054360000306569000000000308609000000000000000000000000002040050000000000  3020120830   01          2  R JUNO  533                                                                      3                         000000000000000                                     N                     00598  0000000        000015
12014309992000148WEG DRIVES   CONTROLS   AUTOMA                                        0000000023702727800000000001872 00000000852309230090220800002970008379601     201208232012072400000000054340000107136000000000108130000000000000000000000000000994050000000000  3020120830   01          2  R JUNO  533                                                                      3                         000000000000000                                     N                     00598  0000000        000016
12014309992000148WEG DRIVES   CONTROLS   AUTOMA                                        0000000023702727800000000001872 00000000816237730090214600002430004866102     201208232012042500000000054340000027620000000000027872000000000000000000000000000252050000000000  3020120830   01          2  R JUNO  533                                                                      3                         000000000000000                                     N                     00598  0000000        000017
12035820448000136WHITE MARTINS GASES INDUSTRIAI                                        0000000023700026400000003937925 0000000085230921009022080002695355448 001     201208212012072600000000054320000085176000000000087905000000000000000000000000002729050000000000  3020120830   01          2  RUA GANGES  528                                                                  3                         000000000000000                                     N                     00598  0000000        000018
12035820448000136WHITE MARTINS GASES INDUSTRIAI                                        0000000023700026400000003937925 0000000085607119009022140004425360193 001     201208282012073100000000054390000081150000000000082989000000000000000000000000001839050000000000  3020120830   01          2  RUA GANGES  528                                                                  3                         000000000000000                                     N                     00598  0000000        000019
12035820448000136WHITE MARTINS GASES INDUSTRIAI                                        0000000023700026400000003937925 0000000085315496009022090010244358059 001     201208232012072700000000054340000017600000000000018113000000000000000000000000000513050000000000  3020120830   01          2  RUA GANGES  528                                                                  3                         000000000000000                                     N                     00598  0000000        000020
12035820448000136WHITE MARTINS GASES INDUSTRIAI                                        0000000023700026400000003937925 0000000085315497009022090011903358519 001     201208232012072700000000054340000056805000000000058473000000000000000000000000001668050000000000  3020120830   01          2  RUA GANGES  528                                                                  3                         000000000000000                                     N                     00598  0000000        000021
12035820448000136WHITE MARTINS GASES INDUSTRIAI                                        0000000023700026400000003937925 0000000085771861009022160000641360709 001     201208292012080300000000054400000162300000000000165762000000000000000000000000003462050000000000  3020120830   01          2  RUA GANGES  528                                                                  3                         000000000000000                                     N                     00598  0000000        000022
12035820448000136WHITE MARTINS GASES INDUSTRIAI                                        0000000023700026400000003937925 0000000087067052009022420002594374120 001     201209252012082900000000054670000113610000000000113610000000000000000000000000000000050000000000  3020120925   01FS        1  RUA GANGES  528                                                                  3                         000000000000000                                     N                     00598  0000000        000023
12042956441000101SOLUCOES ACO USIMINAS                                                 0000000034100000000000000000000000000000813840690000002053421670016074703     201208202012052100000000054310000338677000000000343416000000000000000000000000005416050000000000  3020120827   06          3                                                                                   3112053421676293807258000079                                                  N                     01321  0000000        000024
12042956441000101SOLUCOES ACO USIMINAS                                                 0000000034100000000000000000000000000000813840700000002053421680016075103     201208172012052100000000054280000696198000000000710118000000000000000000000000015312050000000000  3020120827   06          3                                                                                   3112053421684293807258000019                                                  N                     01321  0000000        000025
12042956441000101SOLUCOES ACO USIMINAS                                                 0000000034100000000000000000000000000000813840720000002053421700016093303     201208202012052100000000054310000698273000000000708052000000000000000000000000011176050000000000  3020120827   06          3                                                                                   3112053421700293807258000079                                                  N                     01321  0000000        000026
12043217850000159IOB INFORMACOES OBJ  PUBL JURI                                        0000000023702374400000002958600 000000008540495200902212000099001440820E4     201208202012073000000000054310000072850000000000074547000000000000000000000000001697050000000000  3020120830   01          2  GANGES 528 VL NOVA MANCHESTER                                                    3                         000000000000000                                     N                     00598  0000000        000027
12044098788000196MAIAMI COM E IMP DE ROLAMENTOS                                        0000000023700503700000000367516 000000008560712000902214000000409853          201208282012073100000000054390000020440000000000020574000000000000000000000000000134050000000000  3020120830   01          2  RUA GANGES 528 VL CARRAO                                                         3                         000000000000000                                     N                     00598  0000000        000028
12051598472000129ELETRICA J SANTOS                                                     0000000023702451100000000000264 000000008523091900902208000003917933 02       201208292012072500000000054400000112771000000000113147000000000000000000000000000376050000000000  3020120830   01          2  R JUNO  533                                                                      3                         000000000000000                                     N                     00598  0000000        000029
12057158057000130COMERCIAL ELETRICA PJ LTDA                                            0000000023703394400000000972983 00000000858616570090221900002850000312326     201208272012073000000000054380000076707000000000077472000000000000000000000000000765050000000000  3020120830   01          2  R TAMAINDE 1410                                                                  3                         000000000000000                                     N                     00598  0000000        000030
12057158057000130COMERCIAL ELETRICA PJ LTDA                                            0000000023703394400000000972983 00000000842436850090219200008900000305028     201208012012070400000000054120000079196000000000086823000000000000000000000000007627050000000000  3020120830   01          2  R TAMAINDE 1410                                                                  3                         000000000000000                                     N                     00598  0000000        000031
12059160689000164LUCHETI LUBRIFICANTES LTDA                                            0000000003300000000000000000000000000000870670580000009400000000030708 01     201209242012082700000000054660000044800000000000044800000000000000000000000000000000050000000000  3020120924   01FS        1                                                                                   3917953170000000115894010489                                                  N                     01321  0000000        000032
12061085866000137COMERCIO DE FERRAGENS A C L LT                                        0000000023700475800000000385662 000000008595906900400475842019516999 12       201208222012072400000000054330000027500000000000027716000000000000000000000000000216050000000000  3020120830   01          2  RUA GANGES 528 SP                                                                3                         000000000000000                                     N                     00598  0000000        000033
12065000655000105HILTI DO BRASIL COMERCIAL LTDA                                        0000000023703396000000000243787 00000000854049530090221200002670002106001     201208262012072700000000054370000029613000000000029849000000000000000000000000000236050000000000  3020120830   01          2  RUA TAMAINDE 1410                                                                3                         000000000000000                                     N                     00598  0000000        000034
12066899790000105FABRICA ARTEF LATEX ESTRELA EP                                        00000000399000000000000000000000000000008706705600000000000000077307 003      201211122012082900000000055150000141750000000000141750000000000000000000000000000000050000000000  3020121112   01FS        1                                                                                   3175891372051125027292500139                                                  N                     01321  0000000        000035
12066899790000105FABRICA ARTEF LATEX ESTRELA EP                                        00000000399000000000000000000000000000008706705700000000000000077307 002      201210282012082900000000055000000141750000000000141750000000000000000000000000000000050000000000  3020121029   01FS        1                                                                                   3175891371911125027292500199                                                  N                     01321  0000000        000036
12066899790000105FABRICA ARTEF LATEX ESTRELA EP                                        00000000399000000000000000000000000000008706705500000000000000077307 001      201210132012082900000000054850000141750000000000141750000000000000000000000000000000050000000000  3020121015   01FS        1                                                                                   3175891371831125027292500129                                                  N                     01321  0000000        000037
12066970229000167NEXTEL TELECOMUNICACOES LTDA                                          0000000023702374400000001596233 0000000087067053009000014717419691888 9       201209102011121400000000054520000015870000000000015870000000000000000000000000000000050000000000  3020120910   01FS        1  R GANGES  520 VILA CARRAO BR                                                     3                         000000000000000                                     N                     00598  0000000        000038
12066970229000167NEXTEL TELECOMUNICACOES LTDA                                          0000000023702374400000001596233 0000000087067054009000014717420215472 2       201209102012062100000000054520000011632000000000011632000000000000000000000000000000050000000000  3020120910   01FS        1  R GANGES  520 VILA CARRAO BR                                                     3                         000000000000000                                     N                     00598  0000000        000039
12075483040000130REX MAQUINAS E EQUIPAMENTOS LT                                        0000000023702656500000000000701 000000008280180600202167000043573762 2 3      201208292012060600000000054400000434000000000000434723000000000000000000000000000723050000000000  3020120830   01          2  RUA  GANGES  528                                                                 3                         000000000000000                                     N                     00598  0000000        000040
12092693118000160BRADESCO SAUDE S A                                                    0000000023700448000000001533991 00000000847452120050100745572410000000000     201208202012071700000000054310000645861000000000650021000000000000000000000000004160050000000000  3020120830   01          2                                                                                   3                         000000000000000                                     N                     00598  0000000        000041
900004200000000009285765                                                                                                                                                                                                                                                                                                                                                                                                                                                                00598  0000000        000042
