0000147602043799295000110ALTAMIRA INDUSTRIA METALURGICA LT       202000000197920121130220549             3                                                                                                  000000000000000                                                                                                                                                                                                                                                                                   000001
12014395943000175GUIDER TRANSPORTES LTDA                                               0000000000100000 0000000000000  I000000000010273000000000000000               201211300000000000000000055330000046000000000000046000000000000000000000000000000000010000005967  3120121130   02BW        5000000               000000000000000                                               3000000139878900000059671839               5967                               N                     01130 10020256        000002
12003372804000100TROPICAL CLEAN COMERCIAL LTDA                                         0000000003300000 0000000000000  I000000000010272000000000000000               201211300000000000000000055330000043423000000000043423000000000000000000000000000000010000058193  3120121130   02BW        5000000               000000000000000                                               3913215100000006405444020119               58193                              N                     01130 10020256        000003
11258214076000072CELSO BERNARDO DA CRUZ E OU   R PE DONIZETI TAVARES LIMA 274          0240410023700092200000000430196 I000000000010274000000000000000               201211300000000000000000000000000000000000000000030000000000000000000000000000000000040000000011  0120121130   02BW        5000000               000000000000000                                               3                                          REF.11/2012.                       N                     01321 20020256        000004
12005335228000156DINAMICA INF E TELECOM LTDA EP                                        0000000023703257300000000503215 0000000091471894009032570017749MO009193A      201211302012110600000000055330000020000000000000020000000000000000000000000000000000050000000000  3020121130   02BW        2000000               000000000000000                                               3                         000000000000000  9193/1                             N                     01146 10020256        000005
12081560047000101ACEVILLE TRANSPORTES LTDA                                             000000000330000000000000000000000000000092215832000000700000000288447         201211302012111900000000055330000045000000000000045000000000000000000000000000000000050000000000  3020121130   02BW        2000000               000000000000000                                               3913555200000002884470010119               288447                             N                     01130 10020256        000006
12043298975000150JOMARCA INDL DE PARAFUSOS LTDA                                        0000000003300000000000000000000000000000893373860000003400000000160394 02     201211302012100100000000055330000365000000000000365000000000000000000000000000000000050000000000  3020121130   02BW        2000000               000000000000000                                               3935059520000000532134010449               160394/02                          N                     01130 10020256        000007
12061600839000155CENTRO DE INT EMPRESA ESCOLA C                                        0000000023703391P00000000866202 00000000919321880090000036925787641C 0001     201211302012111200000000055330000016800000000000016800000000000000000000000000000000050000000000  3020121130   02BW        2000000               000000000000000                                               3                         000000000000000  7641                               N                     01146 10020256        000008
12062173661000176INDUFIX IND E COM LTDA                                                0000000023703392800000000337587 000000009147189700902311000006800040628 A     201211302012103100000000055330000026730000000000026730000000000000000000000000000000050000000000  3020121130   02BW        2000000               000000000000000                                               3                         000000000000000  40628                              N                     01146 10020256        000009
12048218317000125RODOENG TRANSP ROD LTDA                                               0000000000100000 0000000000000  I000000000010270000000000000000               201211300000000000000000055330000315721000000000315721000000000000000000000000000000010000013548  3120121130   02BW        5000000               000000000000000                                               3050157434111494000094531179               13548/1                            N                     01130 10020256        000010
12062494679000170WILSON ROBERTO COSTA DE JESUS                                         0000000000100000 0000000000000  I000000000010271000000000000000               201211300000000000000000055330000031958000000000031958000000000000000000000000000000010000035450  3120121130   02BW        5000000               000000000000000                                               3000000198715600000010181829               035450                             N                     01130 10020256        000011
12069309706000136F N A TRANSPORTES LTDA                                                000000003410000000000000000000000000000092215828000000900012564061086         201211302012111500000000055330000017940000000000017940000000000000000000000000000000050000000000  3020121130   02BW        2000000               000000000000000                                               3109000125649005486932600099               61086                              N                     01130 10020256        000012
900001300000000000958572                                                                                                                                                                                    000000000000000                                                                                                                                                                                                                                                    00001100553300000928572        000013
