0000147602043799295000110ALTAMIRA INDUSTRIA METALURGICA LT       202000000009420120731055912             1                                                                                                                                                                                                                                                                                                                                                                                                    000001
12000193273000108TECELAGEM ROMA LTDA                                                   0000000023700284400000000410977 000000008374605000900000001581016213   A      201207272012062900000000054070000124248000000000125740000000000000000000000000001492050000000000  3020120731   01          2  RUA TAMAINDE 1410  1410                                                          3                         000000000000000                                     N                     00598  0000000        000002
12003489596000123BEND FLEX INDUSTRIA E COMERCIO                                        000000001040000000000000000000000000000085404951000000977618400592            201208222012072500000000054330000351000000000000351000000000000000000000000000000000050000000000  3020120822   01FS        1                                                                                   3314197761811558700000019919                                                  N                     01321  0000000        000003
12005044228000105TRIARC COM S METAIS USINADOS                                          000000003410000000000000000000000000000085404957000000788988941677            201208222012073000000000054330000006800000000000006800000000000000000000000000000000050000000000  3020120822   01FS        1                                                                                   3157889889412076157868100069                                                  N                     01321  0000000        000004
12005044228000105TRIARC COM S METAIS USINADOS                                          000000003410000000000000000000000000000085404958000000788989596237 S          201208222012073000000000054330000040000000000000040000000000000000000000000000000000050000000000  3020120822   01FS        1                                                                                   3157889895963076157868100019                                                  N                     01321  0000000        000005
12005151518000140BELENUS DO BRASIL LTDA                                                0000000023703389800000000015091 0000000080649184009021300000522R126248432     201207292012043000000000054090000460800000000000463842000000000000000000000000003042050000000000  3020120731   01          2  RUA GANGES  528                                                                  3                         000000000000000                                     N                     00598  0000000        000006
12005151518000140BELENUS DO BRASIL LTDA                                                0000000023703389800000000015091 0000000080649187009021300000543R126249332     201207292012043000000000054090000035033000000000035265000000000000000000000000000232050000000000  3020120731   01          2  RUA GANGES  528                                                                  3                         000000000000000                                     N                     00598  0000000        000007
12005335228000156DINAMICA INF E TELECOM LTDA EP                                        0000000023703257300000000503215 0000000084406388009032570016552MO008700A      201207302012070300000000054100000020000000000000020067000000000000000000000000000067050000000000  3020120731   01          2  RUA JUNO  533                                                                    3                         000000000000000                                     N                     00598  0000000        000008
12005584462000117RAPIDEZREAL TRANSPORTES LTDA                                          00000000033000000000000000000000000000008540496600000003000000012087601       201208092012072100000000054200000450195000000000450195000000000000000000000000000000050000000000  3020120809   01FS        1                                                                                   3909546160000001125303010119                                                  N                     01321  0000000        000009
12006000195000156M B A MERCANTIL BRASILEIRA DE                                         0000000023700118P00000002128292 00000000854049600090212300000150008129B03     201207252012050200000000054050000630740000000000630740000000000000000000000000000000050000000000  3020120731   01FS        1  RUA JUNO  533                                                                    3                         000000000000000                                     N                     00598  0000000        000010
12006000195000156M B A MERCANTIL BRASILEIRA DE                                         0000000023700118P00000002128292 00000000854049610090212500000330008094B03     201207232012042600000000054030000880864000000000880864000000000000000000000000000000050000000000  3020120731   01FS        1  RUA JUNO  533                                                                    3                         000000000000000                                     N                     00598  0000000        000011
12006000195000156M B A MERCANTIL BRASILEIRA DE                                         0000000023700118P00000002128292 00000000854049620090214900000100008399B02     201207232012052800000000054030000517280000000000517280000000000000000000000000000000050000000000  3020120731   01FS        1  RUA JUNO  533                                                                    3                         000000000000000                                     N                     00598  0000000        000012
12009121184000112BBGE COBRANCA LTDA                                                    0000000023700368900000001026402 00000000839452790090218600000832581 BC        201207262012062100000000054060000154100000000000156670000000000000000000000000002570050000000000  3020120731   01          2  RUA GANGES  528                         MACKVEN MAQUINAS INDUSTRIAIS LTDA EPP    3                         005441222000163                                     N                     00598  0000000        000013
12012006058000121WEG TINTAS LTDA                                                       0000000023702727800000000001309 00000000811374760090213800000970013814703     201207302012051600000000054100000306662000000000307070000000000000000000000000000408050000000000  3020120731   01          2  R JUNO  533                                                                      3                         000000000000000                                     N                     00598  0000000        000014
12012006058000121WEG TINTAS LTDA                                                       0000000023702727800000000001309 00000000827244610090216600000700014454801     201207282012061300000000054080000306569000000000307793000000000000000000000000001224050000000000  3020120731   01          2  R JUNO  533                                                                      3                         000000000000000                                     N                     00598  0000000        000015
12012006058000121WEG TINTAS LTDA                                                       0000000023702727800000000001309 00000000828904020090217000001010014515401     201207302012061500000000054100000459854000000000460467000000000000000000000000000613050000000000  3020120731   01          2  R JUNO  533                                                                      3                         000000000000000                                     N                     00598  0000000        000016
12012006058000121WEG TINTAS LTDA                                                       0000000023702727800000000001309 00000000854049540090221200001000015513001     201209102012072700000000054520000459854000000000459854000000000000000000000000000000050000000000  3020120910   01FS        1  R JUNO  533                                                                      3                         000000000000000                                     N                     00598  0000000        000017
12012006058000121WEG TINTAS LTDA                                                       0000000023702727800000000001309 00000000854049550090221200001010015513002     201209252012072700000000054670000459854000000000459854000000000000000000000000000000050000000000  3020120925   01FS        1  R JUNO  533                                                                      3                         000000000000000                                     N                     00598  0000000        000018
12012006058000121WEG TINTAS LTDA                                                       0000000023702727800000000001309 00000000854049560090221200001020015513003     201210102012072700000000054820000459992000000000459992000000000000000000000000000000050000000000  3020121010   01FS        1  R JUNO  533                                                                      3                         000000000000000                                     N                     00598  0000000        000019
12012256386000186TOP TRAD SERVICOS DE TEXTOS LT                                        0000000023700200300000001062603 00000000850740700090132194025562718           201207272012071200000000054070000025600000000000026384000000000000000000000000000784050000000000  3020120731   01          2  R TAMANDE 1410                                                                   3                         000000000000000                                     N                     00598  0000000        000020
12014775592000128HELIO ADRIANO DA SILVA ME                                             0000000023700593200000002432943 00000000854049630090221200000078199           201208062012072000000000054170000053000000000000053000000000000000000000000000000000050000000000  3020120806   01FS        1  AV TAMAINDE 1410                                                                 3                         000000000000000                                     N                     00598  0000000        000021
12014775592000128HELIO ADRIANO DA SILVA ME                                             0000000023700593200000002432943 00000000854049640090221200000098233           201208092012072500000000054200000018300000000000018300000000000000000000000000000000050000000000  3020120809   01FS        1  AV TAMAINDE 1410                                                                 3                         000000000000000                                     N                     00598  0000000        000022
12017469701000177ARCELORMITTAL BRASIL S A                                              0000000034100000000000000000000000000000828017990000009321576910012348803     201207262012061400000000054060000063789000000000063789000000000000000000000000000000050000000000  3020120726   06          3                                                                                   3109321576916293802529900059                                                  N                     01321  0000000        000023
12042956441000101SOLUCOES ACO USIMINAS                                                 0000000034100000000000000000000000000000813840570000002053421550016074602     201207232012052100000000054030000559016000000000562370000000000000000000000000004472050000000000  3020120726   06          3                                                                                   3112053421551293807258000089                                                  N                     01321  0000000        000024
12042956441000101SOLUCOES EM ACO USIMINAS S A                                          000000000010000000000000000000000000000083482034000000086543000000166812001   201207232012062600000000054030000609137000000000609137000000000000000000000000000000050000000000  3020120723   06          3                                                                                   3000000169660100000865431719                                                  N                     01321  0000000        000025
12042956441000101SOLUCOES EM ACO USIMINAS S A                                          000000000010000000000000000000000000000083482040000000086549000000166814001   201207232012062600000000054030000317752000000000317752000000000000000000000000000000050000000000  3020120723   06          3                                                                                   3000000169660100000865491739                                                  N                     01321  0000000        000026
12042956441000101SOLUCOES EM ACO USIMINAS S A                                          000000000010000000000000000000000000000083482051000000086558000000166827001   201207232012062600000000054030000577195000000000577195000000000000000000000000000000050000000000  3020120723   06          3                                                                                   3000000169660100000865581749                                                  N                     01321  0000000        000027
12042956441000101SOLUCOES ACO USIMINAS                                                 0000000034100000000000000000000000000000836417890000002164218350016738101     201207252012062700000000054050000830422000000000840388000000000000000000000000009966050000000000  3020120731   01          2                                                                                   3112164218359293807258000049                                                  N                     01321  0000000        000028
12043217850000159IOB INFORMACOES OBJ  PUBL JURI                                        0000000023702374400000002958600 000000008540495200902212000099001440820E4     201208202012073000000000054310000072850000000000072850000000000000000000000000000000050000000000  3020120820   01FS        1  GANGES 528 VL NOVA MANCHESTER                                                    3                         000000000000000                                     N                     00598  0000000        000029
12047190731000100DE CASTRO LOUREIRO E I C LTDA                                         00000000422000000000000000000000000000008403132400000000000000003025894 0     201207262012070300000000054060000255760000000000255760000000000000000000000000000000050000000000  3020120726   06          3                                                                                   3709700002021396491400241189                                                  N                     01321  0000000        000030
12056993512000150CYKLOP DO BRASIL EMBALAGENS SA                                        0000000034100000000000000000000000000000854049490000002248875950001444        201208092012072600000000054200000013600000000000013600000000000000000000000000000000050000000000  3020120809   01FS        1                                                                                   3112248875950025786126000059                                                  N                     01321  0000000        000031
12056993512000150CYKLOP DO BRASIL EMBALAGENS SA                                        0000000034100000000000000000000000000000854049500000002248876510130163        201208092012072600000000054200000037925000000000037925000000000000000000000000000000050000000000  3020120809   01FS        1                                                                                   3112248876511025786126000019                                                  N                     01321  0000000        000032
12058616418000108BANCO FIBRA S A                                                       0000000023702372800000000016683 00000000854049590090221200026624782001        201208312012073000000000054420000076146000000000076146000000000000000000000000000000050000000000  3020120831   01FS        1  RUA GANGES  528                         NEGRETTI PROD SIDERURGICOS LTD           3                         096593173000130                                     N                     00598  0000000        000033
12061217188000119TELAS METALICAS TELMETAL LTDA                                         0000000003300000000000000000000000000000854049650000001400000005425 3 3       201209102012073000000000054520000045017000000000045017000000000000000000000000000000050000000000  3020120910   01FS        1                                                                                   3915435040000000047414020129                                                  N                     01321  0000000        000034
12061217188000119TELAS METALICAS TELMETAL LTDA                                         0000000003300000000000000000000000000000854049670000009200000005425 1 3       201208272012073000000000054380000045018000000000045018000000000000000000000000000000050000000000  3020120827   01FS        1                                                                                   3915435040000000047392020119                                                  N                     01321  0000000        000035
12061217188000119TELAS METALICAS TELMETAL LTDA                                         0000000003300000000000000000000000000000854049680000000600000005425 2 3       201209032012073000000000054450000045017000000000045017000000000000000000000000000000050000000000  3020120903   01FS        1                                                                                   3915435040000000047406020119                                                  N                     01321  0000000        000036
12061217188000119TELAS METALICAS TELMETAL LTDA                                         0000000034100000000000000000000000000000840313200000009000028565223 2 3       201207272012062200000000054070000005067000000000005067000000000000000000000000000000050000000000  3020120727   06          3                                                                                   3109000028566077098123100019                                                  N                     01321  0000000        000037
12061217188000119TELAS METALICAS TELMETAL LTDA                                         0000000000100000000000000000000000000000834820150000000054230005227 2 3       201207272012062600000000054070000042996000000000042996000000000000000000000000000000050000000000  3020120727   06          3                                                                                   3000000115031800000054231799                                                  N                     01321  0000000        000038
12061217188000119TELAS METALICAS TELMETAL LTDA                                         0000000000100000000000000000000000000000834820240000000054200005226 2 3       201207272012062600000000054070000007442000000000007442000000000000000000000000000000050000000000  3020120727   06          3                                                                                   3000000115031800000054201719                                                  N                     01321  0000000        000039
12061763124000113COM TAMBORES PICILLO LTDA                                             0000000034100000000000000000000000000000846595650000002209122830000404601     201207302012071000000000054100000021600000000000021642000000000000000000000000000042050000000000  3020120731   01          2                                                                                   3112209122830005608672100099                                                  N                     01321  0000000        000040
12062340989000130EDICOES ADUANEIRAS LTDA                                               0000000023703090200000000015660 0000000079108230009080000035028004262 B       201207302012041100000000054100000043600000000000043672000000000000000000000000000072050000000000  3020120731   01          2  RUA TAMAINDE 1410 RUA GANGES 520 E 528                                           3                         000000000000000                                     N                     00598  0000000        000041
12065000655000105HILTI DO BRASIL COMERCIAL LTDA                                        0000000023703396000000000243787 00000000854049530090221200002670002106001     201208262012072700000000054370000029613000000000029613000000000000000000000000000000050000000000  3020120827   01FS        1  RUA TAMAINDE 1410                                                                3                         000000000000000                                     N                     00598  0000000        000042
12092693118000160BRADESCO SAUDE S A                                                    0000000023700448000000001533991 00000000829780050050100702629130000000000     201207202012061800000000054000000645861000000000650437000000000000000000000000004576050000000000  3020120731   01          2                                                                                   3                         000000000000000                                     N                     00598  0000000        000043
900004400000000010594010                                                                                                                                                                                                                                                                                                                                                                                                                                                                00598  0000000        000044
