0000147602043799295000110ALTAMIRA INDUSTRIA METALURGICA LT       202000000011720120831055854             1                                                                                                                                                                                                                                                                                                                                                                                                    000001
12002269980000158PANKRO LOGISTICA E TRANSPORTES                                        000000003410000000000000000000000000000087119129000000234821904233            201209262012082800000000054680000310000000000000310000000000000000000000000000000000050000000000  3020120926   01FS        1                                                                                   3112348219042764602126600019                                                  N                     01321  0000000        000002
12002558199000101OMEGA TUBOS COMERCIAL LTDA                                            0000000003300000000000000000000000000000846595840000004900000000026380B04     201209042012071020120904054460000256050000000000216171000000000039879000000000000000050000000000  3020120904   01          2                                                                                   3947509770000000088749020319                                                  N                     01321  0000000        000003
12002917344000195PRENSAPECA INDUSTRIA E COMERCI                                        0000000000100000000000000000000000000000858616300000004340050006006           201208292012080300000000054400000072448000000000072919000000000000000000000000000471050000000000  3020120831   01          2                                                                                   3000000103919943954340051119                                                  N                     01321  0000000        000004
12003746938000143STAPLES BRASIL COM DE MAT DE E                                        0000000023703394400000000368008 0000000085074069002000000797375460605 1       201208222012072300000000054330000032373000000000036042000000000000000000000000003723050000000000  3020120830   06          3  RUA GANGES VILA CARRAO VILA CARRAO                                               3                         000000000000000                                     N                     00598  0000000        000005
12004643290000142FLEXTINTAS IND E COMERCIO LTDA                                        000000003410000000000000000000000000000087119130000000234542816NFF036591A     201209252012082800000000054670000309788000000000309788000000000000000000000000000000050000000000  3020120925   01FS        1                                                                                   3112345428166051356781800049                                                  N                     01321  0000000        000006
12005151518000140BELENUS DO BRASIL LTDA                                                0000000023703389800000000015091 0000000083945276009021860002352R128108022     201208252012062600000000054360000576000000000000587406000000000000000000000000011406050000000000  3020120831   01          2  RUA GANGES  528                                                                  3                         000000000000000                                     N                     00598  0000000        000007
12005335228000156DINAMICA INF E TELECOM LTDA EP                                        0000000023703257300000000503215 0000000086455447009032570016796MO008820A      201208302012080600000000054410000020000000000000020067000000000000000000000000000067050000000000  3020120831   01          2  RUA JUNO  533                                                                    3                         000000000000000                                     N                     00598  0000000        000008
12006000195000156M B A MERCANTIL BRASILEIRA DE                                         0000000000100000000000000000000000000000834820290000002571590000008655B02     201208182012062600000000054290000739629000000000744561000000000000000000000000006165050000000000  3020120822   05          3                                                                                   3043852571593333000105251119                                                  N                     01321  0000000        000009
12006000195000156M B A MERCANTIL BRASILEIRA DE                                         0000000000100000000000000000000000000000834820320000002571620000008656B02     201208192012062600000000054300000641947000000000645157000000000000000000000000004280050000000000  3020120822   05          3                                                                                   3043852571623333000105251179                                                  N                     01321  0000000        000010
12006000195000156M B A MERCANTIL BRASILEIRA DE                                         0000000023700118P00000002128292 00000000865388360090216600000670008556B02     201208092012061400000000054200000456280000000000456280000000000000000000000000000000050000000000  3020120817   05          3  RUA JUNO  533                                                                    3                         000000000000000                                     N                     00598  0000000        000011
12006000195000156M B A MERCANTIL BRASILEIRA DE                                         0000000023700118P00000002128292 00000000866154260090217000000040008573B02     201208102012061500000000054210000927528000000000927528000000000000000000000000000000050000000000  3020120820   05          3  RUA JUNO  533                                                                    3                         000000000000000                                     N                     00598  0000000        000012
12006000195000156M B A MERCANTIL BRASILEIRA DE                                         0000000023700118P00000002128292 00000000866154270090217000000100008589B02     201208102012061500000000054210000336000000000000336000000000000000000000000000000000050000000000  3020120820   05          3  RUA JUNO  533                                                                    3                         000000000000000                                     N                     00598  0000000        000013
12006000195000156M B A MERCANTIL BRASILEIRA DE                                         0000000023700118P00000002128292 00000000866154280090217000000160008590B02     201208102012061500000000054210000365507000000000365507000000000000000000000000000000050000000000  3020120820   05          3  RUA JUNO  533                                                                    3                         000000000000000                                     N                     00598  0000000        000014
12006000195000156M B A MERCANTIL BRASILEIRA DE                                         0000000023700118P00000002128292 00000000866154290090217000000220008592B02     201208102012061500000000054210000166992000000000166992000000000000000000000000000000050000000000  3020120820   05          3  RUA JUNO  533                                                                    3                         000000000000000                                     N                     00598  0000000        000015
12006000195000156M B A MERCANTIL BRASILEIRA DE                                         0000000023700118P00000002128292 00000000867622160090219900000740008864B01     201208132012071600000000054240000169188000000000169188000000000000000000000000000000050000000000  3020120822   05          3  RUA JUNO  533                                                                    3                         000000000000000                                     N                     00598  0000000        000016
12006000195000156M B A MERCANTIL BRASILEIRA DE                                         0000000023700118P00000002128292 00000000868592710090214500000190008358B03     201208152012052300000000054260000150849000000000150849000000000000000000000000000000050000000000  3020120824   05          3  RUA JUNO  533                                                                    3                         000000000000000                                     N                     00598  0000000        000017
12006000195000156M B A MERCANTIL BRASILEIRA DE                                         0000000023700118P00000002128292 00000000868592720090219900000620008865B01     201208132012071600000000054240000695457000000000695457000000000000000000000000000000050000000000  3020120824   05          3  RUA JUNO  533                                                                    3                         000000000000000                                     N                     00598  0000000        000018
12007175725000160WEG EQUIPAMENTOS ELETRICOS SA                                         0000000023702727800000000196800 00000000815444390090214500004510095359901     201208212012052300000000054320000272787000000000276054000000000000000000000000003630050000000000  3020120830   06          3  R JUNO  533                                                                      3                         000000000000000                                     N                     00598  0000000        000019
12011202309000180FIEL TOOLS DISTRIBUIDORA DE MA                                        0000000023702087700000000000116 0000000087017758009000020186261008626 1       201208202012072300000000054310000041975000000000043990000000000000000000000000002015050000000000  3020120831   01          2  R TAMAINDE  1 410   RUA GANGES  520 E 52                                         3                         000000000000000                                     N                     00598  0000000        000020
12012006058000121WEG TINTAS LTDA                                                       0000000023702727800000000001309 00000000824820170090216300000890014374203     201208222012060800000000054330000459992000000000465509000000000000000000000000005517050000000000  3020120831   01          2  R JUNO  533                                                                      3                         000000000000000                                     N                     00598  0000000        000021
12012006058000121WEG TINTAS LTDA                                                       0000000023702727800000000001309 00000000834820630090217900000750014773902     201208252012062600000000054360000306569000000000309017000000000000000000000000002448050000000000  3020120831   01          2  R JUNO  533                                                                      3                         000000000000000                                     N                     00598  0000000        000022
12012006058000121WEG TINTAS LTDA                                                       0000000023702727800000000001309 00000000828904040090217000001030014515403     201208292012061500000000054400000459992000000000461218000000000000000000000000001226050000000000  3020120831   01          2  R JUNO  533                                                                      3                         000000000000000                                     N                     00598  0000000        000023
12012006058000121WEG TINTAS LTDA                                                       0000000023702727800000000001309 00000000827244630090216600000720014454803     201208272012061300000000054380000306662000000000308294000000000000000000000000001632050000000000  3020120831   01          2  R JUNO  533                                                                      3                         000000000000000                                     N                     00598  0000000        000024
12012006058000121WEG TINTAS LTDA                                                       0000000023702727800000000001309 00000000844839220090219500000710015168701     201208262012071200000000054370000306569000000000308609000000000000000000000000002040050000000000  3020120831   01          2  R JUNO  533                                                                      3                         000000000000000                                     N                     00598  0000000        000025
12012006058000121WEG TINTAS LTDA                                                       0000000023702727800000000001309 00000000842436820090219200000840015068801     201208232012070900000000054340000306569000000000309833000000000000000000000000003264050000000000  3020120831   01          2  R JUNO  533                                                                      3                         000000000000000                                     N                     00598  0000000        000026
12012006058000121WEG TINTAS LTDA                                                       0000000023702727800000000001309 00000000833069150090217700001080014685602     201208212012062200000000054320000459854000000000465371000000000000000000000000006130050000000000  3020120830   06          3  R JUNO  533                                                                      3                         000000000000000                                     N                     00598  0000000        000027
12014309992000148WEG DRIVES   CONTROLS   AUTOMA                                        0000000023702727800000000001872 00000000852309230090220800002970008379601     201208232012072400000000054340000107136000000000108272000000000000000000000000001136050000000000  3020120831   01          2  R JUNO  533                                                                      3                         000000000000000                                     N                     00598  0000000        000028
12014309992000148WEG DRIVES   CONTROLS   AUTOMA                                        0000000023702727800000000001872 00000000816237730090214600002430004866102     201208232012042500000000054340000027620000000000027908000000000000000000000000000288050000000000  3020120831   01          2  R JUNO  533                                                                      3                         000000000000000                                     N                     00598  0000000        000029
12033325184001786ALSCO TOALHEIRO BRASIL                                                0000000023703396000000001490850 0000000086196030009000002679805VM26798        201208302012081000000000054410000052584000000000052637000000000000000000000000000053050000000000  3020120831   01          2  RUA  GANGES 528                                                                  3                         000000000000000                                     N                     00598  0000000        000030
12035820448000136WHITE MARTINS GASES INDUSTRIAI                                        0000000023700026400000003937925 0000000085771861009022160000641360709 001     201208292012080300000000054400000162300000000000165978000000000000000000000000003678050000000000  3020120831   01          2  RUA GANGES  528                                                                  3                         000000000000000                                     N                     00598  0000000        000031
12035820448000136WHITE MARTINS GASES INDUSTRIAI                                        0000000023700026400000003937925 0000000085607119009022140004425360193 001     201208282012073100000000054390000081150000000000083097000000000000000000000000001947050000000000  3020120831   01          2  RUA GANGES  528                                                                  3                         000000000000000                                     N                     00598  0000000        000032
12035820448000136WHITE MARTINS GASES INDUSTRIAI                                        0000000023700026400000003937925 0000000085315496009022090010244358059 001     201208232012072700000000054340000017600000000000018136000000000000000000000000000536050000000000  3020120831   01          2  RUA GANGES  528                                                                  3                         000000000000000                                     N                     00598  0000000        000033
12035820448000136WHITE MARTINS GASES INDUSTRIAI                                        0000000023700026400000003937925 0000000085315497009022090011903358519 001     201208232012072700000000054340000056805000000000058549000000000000000000000000001744050000000000  3020120831   01          2  RUA GANGES  528                                                                  3                         000000000000000                                     N                     00598  0000000        000034
12035820448000136WHITE MARTINS GASES INDUSTRIAI                                        0000000023700026400000003937925 0000000085230921009022080002695355448 001     201208212012072600000000054320000085176000000000087905000000000000000000000000002843050000000000  3020120830   06          3  RUA GANGES  528                                                                  3                         000000000000000                                     N                     00598  0000000        000035
12042956441000101SOLUCOES ACO USIMINAS                                                 0000000034100000000000000000000000000000813840660000002053421640016071503     201208202012052000000000054310000599868000000000608268000000000000000000000000009600050000000000  3020120827   06          3                                                                                   3112053421643293807258000019                                                  N                     01321  0000000        000036
12042956441000101SOLUCOES ACO USIMINAS                                                 0000000034100000000000000000000000000000813840680000002053421660016074603     201208202012052100000000054310000559016000000000566842000000000000000000000000008944050000000000  3020120827   06          3                                                                                   3112053421668293807258000019                                                  N                     01321  0000000        000037
12042956441000101SOLUCOES ACO USIMINAS                                                 0000000034100000000000000000000000000000813840730000002053421710016093403     201208202012052100000000054310000238232000000000241564000000000000000000000000003808050000000000  3020120827   06          3                                                                                   3112053421718293807258000039                                                  N                     01321  0000000        000038
12043217850000159IOB INFORMACOES OBJ  PUBL JURI                                        0000000023702374400000002958600 000000008711912800902243000063301440820F2     201209202012083000000000054620000072850000000000072850000000000000000000000000000000050000000000  3020120920   01FS        1  R GANGES 528                                                                     3                         000000000000000                                     N                     00598  0000000        000039
12043217850000159IOB INFORMACOES OBJ  PUBL JURI                                        0000000023702374400000002958600 000000008540495200902212000099001440820E4     201208202012073000000000054310000072850000000000074571000000000000000000000000001721050000000000  3020120831   01          2  GANGES 528 VL NOVA MANCHESTER                                                    3                         000000000000000                                     N                     00598  0000000        000040
12044098788000196MAIAMI COM E IMP DE ROLAMENTOS                                        0000000023700503700000000367516 000000008560712000902214000000409853          201208282012073100000000054390000020440000000000020641000000000000000000000000000201050000000000  3020120831   01          2  RUA GANGES 528 VL CARRAO                                                         3                         000000000000000                                     N                     00598  0000000        000041
12051598472000129ELETRICA J SANTOS                                                     0000000023702451100000000000264 000000008523091900902208000003917933 02       201208292012072500000000054400000112771000000000113523000000000000000000000000000752050000000000  3020120831   01          2  R JUNO  533                                                                      3                         000000000000000                                     N                     00598  0000000        000042
12057158057000130COMERCIAL ELETRICA PJ LTDA                                            0000000023703394400000000972983 00000000842436850090219200008900000305028     201208012012070400000000054120000079196000000000087086000000000000000000000000007890050000000000  3020120831   01          2  R TAMAINDE 1410                                                                  3                         000000000000000                                     N                     00598  0000000        000043
12057158057000130COMERCIAL ELETRICA PJ LTDA                                            0000000023703394400000000972983 00000000858616570090221900002850000312326     201208272012073000000000054380000076707000000000077727000000000000000000000000001020050000000000  3020120831   01          2  R TAMAINDE 1410                                                                  3                         000000000000000                                     N                     00598  0000000        000044
12060830544000102TORRES GALVANIZACAO A FOGO LTD                                        0000000023702531300000000105007 0000000085607124009013221401636007073         201208212012072400000000054320000064800000000000066096000000000000000000000000001512050000000000  3020120824   05          3  RUA GANGES  528                                                                  3                         000000000000000                                     N                     00598  0000000        000045
12061085866000137COMERCIO DE FERRAGENS A C L LT                                        0000000023700475800000000385662 000000008595906900400475842019516999 12       201208222012072400000000054330000027500000000000027716000000000000000000000000000243050000000000  3020120830   06          3  RUA GANGES 528 SP                                                                3                         000000000000000                                     N                     00598  0000000        000046
12061217188000119TELAS METALICAS TELMETAL LTDA                                         0000000000100000000000000000000000000000852309050000000055640005371 2 3       201208272012072500000000054380000069964000000000070338000000000000000000000000000561050000000000  3020120829   06          3                                                                                   3000000115031800000055641769                                                  N                     01321  0000000        000047
12061217188000119TELAS METALICAS TELMETAL LTDA                                         0000000000100000000000000000000000000000871191240000000056790005569 2 3       201210012012082900000000054730000060518000000000060518000000000000000000000000000000050000000000  3020121001   01FS        1                                                                                   3000000115031800000056791739                                                  N                     01321  0000000        000048
12061217188000119TELAS METALICAS TELMETAL LTDA                                         0000000000100000000000000000000000000000871191250000000056800005569 3 3       201210082012082900000000054800000060518000000000060518000000000000000000000000000000050000000000  3020121008   01FS        1                                                                                   3000000115031800000056801719                                                  N                     01321  0000000        000049
12061217188000119TELAS METALICAS TELMETAL LTDA                                         0000000000100000000000000000000000000000871191260000000056810005570 1 1       201209262012082900000000054680000058383000000000058383000000000000000000000000000000050000000000  3020120926   01FS        1                                                                                   3000000115031800000056811719                                                  N                     01321  0000000        000050
12061217188000119TELAS METALICAS TELMETAL LTDA                                         0000000000100000000000000000000000000000871191270000000056780005569 1 3       201209242012082900000000054660000060520000000000060520000000000000000000000000000000050000000000  3020120924   01FS        1                                                                                   3000000115031800000056781779                                                  N                     01321  0000000        000051
12062173661000176INDUFIX IND E COM LTDA                                                0000000023704130000000000085898 000000008550289800702213000001000035860 B     201208302012071600000000054410000057190000000000057285000000000000000000000000000095050000000000  3020120831   01          2  RUA GANGES 528                                                                   3                         000000000000000                                     N                     00598  0000000        000052
12062340989000130EDICOES ADUANEIRAS LTDA                                               0000000023703090200000000015660 0000000079108231009080000035029004262 C       201208302012041100000000054410000043600000000000043672000000000000000000000000000072050000000000  3020120831   01          2  RUA TAMAINDE 1410 RUA GANGES 520 E 528                                           3                         000000000000000                                     N                     00598  0000000        000053
12065000655000105HILTI DO BRASIL COMERCIAL LTDA                                        0000000023703396000000000243787 00000000854049530090221200002670002106001     201208262012072700000000054370000029613000000000029908000000000000000000000000000295050000000000  3020120831   01          2  RUA TAMAINDE 1410                                                                3                         000000000000000                                     N                     00598  0000000        000054
12075483040000130REX MAQUINAS E EQUIPAMENTOS LT                                        0000000023702656500000000000701 000000008280180600202167000043573762 2 3      201208292012060600000000054400000434000000000000435446000000000000000000000000001446050000000000  3020120831   01          2  RUA  GANGES  528                                                                 3                         000000000000000                                     N                     00598  0000000        000055
12092693118000160BRADESCO SAUDE S A                                                    0000000023700448000000001533991 00000000847452120050100745572410000000000     201208202012071700000000054310000645861000000000650437000000000000000000000000004576050000000000  3020120831   01          2                                                                                   3                         000000000000000                                     N                     00598  0000000        000056
900005700000000013244198                                                                                                                                                                                                                                                                                                                                                                                                                                                                00598  0000000        000057
