00009960204379929500011000001201210012ALTAMIRA INDUSTRIA METALURGICA LTDA     314050800                                                                                                                                                                                                                                                                                                                                                                                                                                                                                                                                                                                                                                                                                                                                                                                                                                            0000000000                                                                                     000001
100099602043799295000110002672012100100604379929500012012100100001I858100000114170023920121001210145001336710402012100100000000011417033936070500202568S000OK                                                                              303393AG.EMP.TATUAPE                          201210010000000001141700000000001141700000000000000000000000000000000000000000000000000FGTS-GRRF                               IDENTIFICADOR          014500133671040090420682000000001                                                                                                                   00000000000000000000000000000000000000000  000000000000                                                                                                                                                                                                           00204C                                                        62        1                                         I00000000000187944642622242222112242246472 000002
900099602043799295000110000012012100100000300000000000114170                                                                                                                                                                                                                                                                                                                                                                                                                                                                                                                                                                                                                                                                                                                                                                                                                                                                       0000000000                                                                                     000003
