00009960204379929500011000001201212072ALTAMIRA INDUSTRIA METALURGICA LTDA     318074800                                                                                                                                                                                                                                                                                                                                                                                                                                                                                                                                                                                                                                                                                                                                                                                                                                            0000000000                                                                                     000001
100099602043799295000110002832012120700604379929500012012120700002I858100001321383017912120755105084379929500012012120700000000132138333936070500202568S000OK                                                                              303393AG.EMP.TATUAPE                          201212070000000013213830000000013213830000000000000000000000000000000000000000000000000FGTS                                    IDENTIF. EMPRESA       437992950001   008340953000000001                                                                                                                   00000000000000000000000000000000000000000  000000000000                                                                                                                                                                                                           00204C                                                        62        1                                         I00000000000197972424441171111331141124291 000002
100099602043799295000110002832012120700604379929500012012120700001I858700000001443017912120755105004379929500012012120700000000000144333936070500202568S000OK                                                                              303393AG.EMP.TATUAPE                          201212070000000000014430000000000014430000000000000000000000000000000000000000000000000FGTS                                    IDENTIF. EMPRESA       437992950001   008340952000000001                                                                                                                   00000000000000000000000000000000000000000  000000000000                                                                                                                                                                                                           00204C                                                        62        1                                         I00000000000198054646662252222112242246472 000003
900099602043799295000110000012012120700000400000000001322826                                                                                                                                                                                                                                                                                                                                                                                                                                                                                                                                                                                                                                                                                                                                                                                                                                                                       0000000000                                                                                     000004
