00009960204379929500011000001201208072ALTAMIRA INDUSTRIA METALURGICA LTDA     318054500                                                                                                                                                                                                                                                                                                                                                                                                                                                                                                                                                                                                                                                                                                                                                                                                                                            0000000000                                                                                     000001
100099602043799295000110002512012080700604379929500012012080700002I858300001013865017912080754705084379929500012012080700000000101386533936070500202568S000OK                                                                              303393AG.EMP.TATUAPE                          201208070000000010138650000000010138650000000000000000000000000000000000000000000000000FGTS                                    IDENTIF. EMPRESA       437992950001   077217805000000001                                                                                                                   00000000000000000000000000000000000000000  000000000000                                                                                                                                                                                                           00204C                                                        62        1                                         I00000000000176972415451171111331141124191 000002
100099602043799295000110002512012080700604379929500012012080700001I858000000001018017912080754705004379929500012012080700000000000101833936070500202568S000OK                                                                              303393AG.EMP.TATUAPE                          201208070000000000010180000000000010180000000000000000000000000000000000000000000000000FGTS                                    IDENTIF. EMPRESA       437992950001   077217804000000001                                                                                                                   00000000000000000000000000000000000000000  000000000000                                                                                                                                                                                                           00204C                                                        62        1                                         I00000000000177054623632252222112242246272 000003
900099602043799295000110000012012080700000400000000001014883                                                                                                                                                                                                                                                                                                                                                                                                                                                                                                                                                                                                                                                                                                                                                                                                                                                                       0000000000                                                                                     000004
