00009960204379929500011000001201208102ALTAMIRA INDUSTRIA METALURGICA LTDA     318065400                                                                                                                                                                                                                                                                                                                                                                                                                                                                                                                                                                                                                                                                                                                                                                                                                                            0000000000                                                                                     000001
100099602043799295000110002532012081000604379929500012012081000015I816300000038520000055201208100200000798959592012081000000000003852033936070500202568S000OK                                                                              303393AG.EMP.TATUAPE                          201208100000000000385200000000000385200000000000000000000000000000000000000000000000055ISS/TFE/TFA/TLIF                        REFERENCIA             000007989595   078346025000000001                                                                                                                   00000000000000000000000000000000000000000  000000000000                                                                                                                                                                                                           00204C                                                        62        1                                         I00000000000177370575754777996733705777753 000002
100099602043799295000110002532012081000604379929500012012081000004I816700000002316000055201208100200000784399332012081000000000000231633936070500202568S000OK                                                                              303393AG.EMP.TATUAPE                          201208100000000000023160000000000023160000000000000000000000000000000000000000000000055ISS/TFE/TFA/TLIF                        REFERENCIA             000007843993   078346014000000001                                                                                                                   00000000000000000000000000000000000000000  000000000000                                                                                                                                                                                                           00204C                                                        62        1                                         I00000000000177453159193355555775545531585 000003
100099602043799295000110002532012081000604379929500012012081000001I816400000000337000055201209100200000786908222012081000000000000033733936070500202568S000OK                                                                              303393AG.EMP.TATUAPE                          201209100000000000003370000000000003370000000000000000000000000000000000000000000000055ISS/TFE/TFA/TLIF                        REFERENCIA             000007869082   078346011000000001                                                                                                                   00000000000000000000000000000000000000000  000000000000                                                                                                                                                                                                           00204C                                                        62        1                                         I00000000000177524623634422222112242246272 000004
100099602043799295000110002532012081000604379929500012012081000013I816300000009632000055201208100200000790921802012081000000000000963233936070500202568S000OK                                                                              303393AG.EMP.TATUAPE                          201208100000000000096320000000000096320000000000000000000000000000000000000000000000055ISS/TFE/TFA/TLIF                        REFERENCIA             000007909218   078346023000000001                                                                                                                   00000000000000000000000000000000000000000  000000000000                                                                                                                                                                                                           00204C                                                        62        1                                         I00000000000177637131314333550322371333312 000005
100099602043799295000110002532012081000604379929500012012081000008I816500000003729000055201208100200000779410152012081000000000000372933936070500202568S000OK                                                                              303393AG.EMP.TATUAPE                          201208100000000000037290000000000037290000000000000000000000000000000000000000000000055ISS/TFE/TFA/TLIF                        REFERENCIA             000007794101   078346018000000001                                                                                                                   00000000000000000000000000000000000000000  000000000000                                                                                                                                                                                                           00204C                                                        62        1                                         I00000000000177780984940088888668848809818 000006
100099602043799295000110002532012081000604379929500012012081000005I816400000002800000055201208100200000767993982012081000000000000280033936070500202568S000OK                                                                              303393AG.EMP.TATUAPE                          201208100000000000028000000000000028000000000000000000000000000000000000000000000000055ISS/TFE/TFA/TLIF                        REFERENCIA             000007679939   078346015000000001                                                                                                                   00000000000000000000000000000000000000000  000000000000                                                                                                                                                                                                           00204C                                                        62        1                                         I00000000000177875370305577777997747753767 000007
100099602043799295000110002532012081000604379929500012012081000007I816000000003723000055201208100200000768010402012081000000000000372333936070500202568S000OK                                                                              303393AG.EMP.TATUAPE                          201208100000000000037230000000000037230000000000000000000000000000000000000000000000055ISS/TFE/TFA/TLIF                        REFERENCIA             000007680104   078346017000000001                                                                                                                   00000000000000000000000000000000000000000  000000000000                                                                                                                                                                                                           00204C                                                        62        1                                         I00000000000177909706769900000880040097020 000008
100099602043799295000110002532012081000604379929500012012081000002I816200000000337000055201208100200000768118942012081000000000000033733936070500202568S000OK                                                                              303393AG.EMP.TATUAPE                          201208100000000000003370000000000003370000000000000000000000000000000000000000000000055ISS/TFE/TFA/TLIF                        REFERENCIA             000007681189   078346012000000001                                                                                                                   00000000000000000000000000000000000000000  000000000000                                                                                                                                                                                                           00204C                                                        62        1                                         I00000000000178012415452211111331141124191 000009
100099602043799295000110002532012081000604379929500012012081000012I816900000007000000055201208100200000783219752012081000000000000700033936070500202568S000OK                                                                              303393AG.EMP.TATUAPE                          201208100000000000070000000000000070000000000000000000000000000000000000000000000000055ISS/TFE/TFA/TLIF                        REFERENCIA             000007832197   078346022000000001                                                                                                                   00000000000000000000000000000000000000000  000000000000                                                                                                                                                                                                           00204C                                                        62        1                                         I00000000000178115212124111339144152111124 000010
100099602043799295000110002532012081000604379929500012012081000011I816400000006742000055201208100200000790908702012081000000000000674233936070500202568S000OK                                                                              303393AG.EMP.TATUAPE                          201208100000000000067420000000000067420000000000000000000000000000000000000000000000055ISS/TFE/TFA/TLIF                        REFERENCIA             000007909087   078346021000000001                                                                                                                   00000000000000000000000000000000000000000  000000000000                                                                                                                                                                                                           00204C                                                        62        1                                         I00000000000178223424244222117266234222246 000011
100099602043799295000110002532012081000604379929500012012081000010I816600000005038000055201208100200000783237732012081000000000000503833936070500202568S000OK                                                                              303393AG.EMP.TATUAPE                          201208100000000000050380000000000050380000000000000000000000000000000000000000000000055ISS/TFE/TFA/TLIF                        REFERENCIA             000007832377   078346020000000001                                                                                                                   00000000000000000000000000000000000000000  000000000000                                                                                                                                                                                                           00204C                                                        62        1                                         I00000000000178341646464444225488416444468 000012
100099602043799295000110002532012081000604379929500012012081000006I816800000002800000055201209100200000793092192012081000000000000280033936070500202568S000OK                                                                              303393AG.EMP.TATUAPE                          201209100000000000028000000000000028000000000000000000000000000000000000000000000000055ISS/TFE/TFA/TLIF                        REFERENCIA             000007930921   078346016000000001                                                                                                                   00000000000000000000000000000000000000000  000000000000                                                                                                                                                                                                           00204C                                                        62        1                                         I00000000000178497598587799999009949975949 000013
100099602043799295000110002532012081000604379929500012012081000003I816800000000400000055201208100200000798808542012081000000000000040033936070500202568S000OK                                                                              303393AG.EMP.TATUAPE                          201208100000000000004000000000000004000000000000000000000000000000000000000000000000055ISS/TFE/TFA/TLIF                        REFERENCIA             000007988085   078346013000000001                                                                                                                   00000000000000000000000000000000000000000  000000000000                                                                                                                                                                                                           00204C                                                        62        1                                         I00000000000178531237271133333553343312303 000014
100099602043799295000110002532012081000604379929500012012081000014I846000000032087025120120810003000001850035152012081000000000003208733936070500202568S000OK                                                                              203393AG.EMP.TATUAPE                          000101010000000000320870000000000320870000000000000000000000000000000000000000000000000TV ASSINATURA                           CODIGO                 000185003515   078346024000000001                                                                                                                   00000000000000000000000000000000000000000  000000000000                                                                                                                                                                                                           00204C                                                        62        1                                         I00000000000178659353534555778511593555531 000015
100099602043799295000110002532012081000604379929500012012081000009I868800000004436010150861217415923245614916562012081000000000000443633936070500202568S000OK                                                                              303393AG.EMP.TATUAPE                          000101010000000000044360000000000044360000000000000000000000000000000000000000000000000TX INSPECAO VEICULAR                    SEQUENCIAL             561491656      078346019000000001                                                                                                                   00000000000000000000000000000000000000000  000000000000                                                                                                                                                                                                           00204C                                                        62        1                                         I00000000000178768062028866666446646680636 000016
900099602043799295000110000012012081000001700000000000119897                                                                                                                                                                                                                                                                                                                                                                                                                                                                                                                                                                                                                                                                                                                                                                                                                                                                       0000000000                                                                                     000017
