00009960204379929500011000001201301102ALTAMIRA INDUSTRIA METALURGICA LTDA     318085300                                                                                                                                                                                                                                                                                                                                                                                                                                                                                                                                                                                                                                                                                                                                                                                                                                            0000000000                                                                                     000001
100099602043799295000110004032013011000604379929500012013011000011I846800000032087025120130110003000001936508162013011000000000003208733936070500202568S000OK                                                                              203393AG.EMP.TATUAPE                          000101010000000000320870000000000320870000000000000000000000000000000000000000000000000TV ASSINATURA                           CODIGO                 000193650816   017113881000000001                                                                                                                   00000000000000000000000000000000000000000  000000000000                                                                                                                                                                                                           00204C                                                        62        1                                         I00000000000204524424244222117268244222248 000002
100099602043799295000110004032013011000604379929500012013011000009I816000000013860000055201301100200000935866312013011000000000001386033936070500202568S000OK                                                                              303393AG.EMP.TATUAPE                          201301100000000000138600000000000138600000000000000000000000000000000000000000000000055ISS/TFE/TFA/TLIF                        REFERENCIA             000009358663   017113859000000001                                                                                                                   00000000000000000000000000000000000000000  000000000000                                                                                                                                                                                                           00204C                                                        62        1                                         I00000000000204668968088866666446646689636 000003
100099602043799295000110004032013011000604379929500012013011000010I816000000013860000055201301100200000895831942013011000000000001386033936070500202568S000OK                                                                              303393AG.EMP.TATUAPE                          201301100000000000138600000000000138600000000000000000000000000000000000000000000000055ISS/TFE/TFA/TLIF                        REFERENCIA             000008958319   017113860000000001                                                                                                                   00000000000000000000000000000000000000000  000000000000                                                                                                                                                                                                           00204C                                                        62        1                                         I00000000000204746646464444225480466444460 000004
100099602043799295000110004032013011000604379929500012013011000008I816300000010865000055201301100200000898006912013011000000000001086533936070500202568S000OK                                                                              303393AG.EMP.TATUAPE                          201301100000000000108650000000000108650000000000000000000000000000000000000000000000055ISS/TFE/TFA/TLIF                        REFERENCIA             000008980069   017113858000000001                                                                                                                   00000000000000000000000000000000000000000  000000000000                                                                                                                                                                                                           00204C                                                        62        1                                         I00000000000204880780900088888668848807818 000005
100099602043799295000110004032013011000604379929500012013011000007I816500000009174000055201301100200000893674322013011000000000000917433936070500202568S000OK                                                                              303393AG.EMP.TATUAPE                          201301100000000000091740000000000091740000000000000000000000000000000000000000000000055ISS/TFE/TFA/TLIF                        REFERENCIA             000008936743   017113857000000001                                                                                                                   00000000000000000000000000000000000000000  000000000000                                                                                                                                                                                                           00204C                                                        62        1                                         I00000000000204909509799900000880040095020 000006
100099602043799295000110004032013011000604379929500012013011000005I816200000007000000055201301100200000894267222013011000000000000700033936070500202568S000OK                                                                              303393AG.EMP.TATUAPE                          201301100000000000070000000000000070000000000000000000000000000000000000000000000000055ISS/TFE/TFA/TLIF                        REFERENCIA             000008942672   017113855000000001                                                                                                                   00000000000000000000000000000000000000000  000000000000                                                                                                                                                                                                           00204C                                                        62        1                                         I00000000000205075175355577777997747751767 000007
100099602043799295000110004032013011000604379929500012013011000006I816900000007000000055201301100200000893639762013011000000000000700033936070500202568S000OK                                                                              303393AG.EMP.TATUAPE                          201301100000000000070000000000000070000000000000000000000000000000000000000000000000055ISS/TFE/TFA/TLIF                        REFERENCIA             000008936397   017113856000000001                                                                                                                   00000000000000000000000000000000000000000  000000000000                                                                                                                                                                                                           00204C                                                        62        1                                         I00000000000205197397577799999009949973949 000008
100099602043799295000110004032013011000604379929500012013011000004I816600000002800000055201301100200000886868952013011000000000000280033936070500202568S000OK                                                                              303393AG.EMP.TATUAPE                          201301100000000000028000000000000028000000000000000000000000000000000000000000000000055ISS/TFE/TFA/TLIF                        REFERENCIA             000008868689   017113854000000001                                                                                                                   00000000000000000000000000000000000000000  000000000000                                                                                                                                                                                                           00204C                                                        62        1                                         I00000000000205253253133355555775545532585 000009
100099602043799295000110004032013011000604379929500012013011000003I816500000001000000055201301100200000898232412013011000000000000100033936070500202568S000OK                                                                              303393AG.EMP.TATUAPE                          201301100000000000010000000000000010000000000000000000000000000000000000000000000000055ISS/TFE/TFA/TLIF                        REFERENCIA             000008982324   017113853000000001                                                                                                                   00000000000000000000000000000000000000000  000000000000                                                                                                                                                                                                           00204C                                                        62        1                                         I00000000000205331431211133333553343314303 000010
100099602043799295000110004032013011000604379929500012013011000002I816100000000690000055201301100200000892587572013011000000000000069033936070500202568S000OK                                                                              303393AG.EMP.TATUAPE                          201301100000000000006900000000000006900000000000000000000000000000000000000000000000055ISS/TFE/TFA/TLIF                        REFERENCIA             000008925875   017113852000000001                                                                                                                   00000000000000000000000000000000000000000  000000000000                                                                                                                                                                                                           00204C                                                        62        1                                         I00000000000205412612422211111331141126191 000011
100099602043799295000110004032013011000604379929500012013011000001I816000000000648000055201301100200000895410842013011000000000000064833936070500202568S000OK                                                                              303393AG.EMP.TATUAPE                          201301100000000000006480000000000006480000000000000000000000000000000000000000000000055ISS/TFE/TFA/TLIF                        REFERENCIA             000008954108   017113851000000001                                                                                                                   00000000000000000000000000000000000000000  000000000000                                                                                                                                                                                                           00204C                                                        62        1                                         I00000000000205524824644422222112242248272 000012
900099602043799295000110000012013011000001300000000000098984                                                                                                                                                                                                                                                                                                                                                                                                                                                                                                                                                                                                                                                                                                                                                                                                                                                                       0000000000                                                                                     000013
