00009960204379929500011000001201212112ALTAMIRA INDUSTRIA METALURGICA LTDA     318070200                                                                                                                                                                                                                                                                                                                                                                                                                                                                                                                                                                                                                                                                                                                                                                                                                                            0000000000                                                                                     000001
100099602043799295000110002852012121100604379929500012012121100001I868900000004436010150861219443076245627315562012121100000000000443633936070500202568S000OK                                                                              303393AG.EMP.TATUAPE                          000101010000000000044360000000000044360000000000000000000000000000000000000000000000000TX INSPECAO VEICULAR                    SEQUENCIAL             562731556      009550530000000001                                                                                                                   00000000000000000000000000000000000000000  000000000000                                                                                                                                                                                                           00204C                                                        62        1                                         I00000000000199444646664442222112242246472 000006
100099602043799295000110002852012121100604379929500012012121100004I826400000113749009713952013423181819434121122012121100000000011374933936070500202568S000OK                                                                              203393AG.EMP.TATUAPE                          000101010000000001137490000000001137490000000000000000000000000000000000000000000000004AGUA                                    RGI                    01342318       009550533000000001                                                                                                                   00000000000000000000000000000000000000000  000000000000                                                                                                                                                                                                           00204C                                                        62        1                                         I00000000000199033131113335555775545531385 000002
100099602043799295000110002852012121100604379929500012012121100005I826800000141641009713952013422991012400121122012121100000000014164133936070500202568S000OK                                                                              203393AG.EMP.TATUAPE                          000101010000000001416410000000001416410000000000000000000000000000000000000000000000004AGUA                                    RGI                    01342299       009550534000000001                                                                                                                   00000000000000000000000000000000000000000  000000000000                                                                                                                                                                                                           00204C                                                        62        1                                         I00000000000199155353335557777997747753567 000003
100099602043799295000110002852012121100604379929500012012121100002I848900000067644008922342099999945459801217682012121100000000006764433936070500202568S000OK                                                                              203393AG.EMP.TATUAPE                          000101010000000000676440000000000676440000000000000000000000000000000000000000000000000TELEFONE                                REFERENCIA             223420999999454009550531000000001                                                                                                                   00000000000000000000000000000000000000000  000000000000                                                                                                                                                                                                           00204C                                                        62        1                                         I00000000000199222424442221111331141124291 000004
100099602043799295000110002852012121100604379929500012012121100003I848500000083802008910137099999945360636117702012121100000000008380233936070500202568S000OK                                                                              203393AG.EMP.TATUAPE                          000101010000000000838020000000000838020000000000000000000000000000000000000000000000000TELEFONE                                REFERENCIA             101370999999453009550532000000001                                                                                                                   00000000000000000000000000000000000000000  000000000000                                                                                                                                                                                                           00204C                                                        62        1                                         I00000000000199311212221113333553343312103 000005
900099602043799295000110000012012121100000700000000000411272                                                                                                                                                                                                                                                                                                                                                                                                                                                                                                                                                                                                                                                                                                                                                                                                                                                                       0000000000                                                                                     000007
