00009960204379929500011000001201209112ALTAMIRA INDUSTRIA METALURGICA LTDA     317070800                                                                                                                                                                                                                                                                                                                                                                                                                                                                                                                                                                                                                                                                                                                                                                                                                                            0000000000                                                                                     000001
100099602043799295000110002612012091100604379929500012012091100009I816200000013945000055201209110200000819997232012091100000000001394533936070500202568S000OK                                                                              303393AG.EMP.TATUAPE                          201209110000000000139450000000000139450000000000000000000000000000000000000000000000055ISS/TFE/TFA/TLIF                        REFERENCIA             000008199972   085965781000000001                                                                                                                   00000000000000000000000000000000000000000  000000000000                                                                                                                                                                                                           00204C                                                        62        1                                         I00000000000184288064048886666446646680636 000002
100099602043799295000110002612012091100604379929500012012091100008I816800000013905000055201209110200000820014672012091100000000001390533936070500202568S000OK                                                                              303393AG.EMP.TATUAPE                          201209110000000000139050000000000139050000000000000000000000000000000000000000000000055ISS/TFE/TFA/TLIF                        REFERENCIA             000008200146   085965780000000001                                                                                                                   00000000000000000000000000000000000000000  000000000000                                                                                                                                                                                                           00204C                                                        62        1                                         I00000000000184300986960008888668848809818 000003
100099602043799295000110002612012091100604379929500012012091100006I816900000011275000055201209110200000819997072012091100000000001127533936070500202568S000OK                                                                              303393AG.EMP.TATUAPE                          201209110000000000112750000000000112750000000000000000000000000000000000000000000000055ISS/TFE/TFA/TLIF                        REFERENCIA             000008199970   085965778000000001                                                                                                                   00000000000000000000000000000000000000000  000000000000                                                                                                                                                                                                           00204C                                                        62        1                                         I00000000000184477590507779999009949975949 000004
100099602043799295000110002612012091100604379929500012012091100005I816100000007023000055201209110200000820014082012091100000000000702333936070500202568S000OK                                                                              303393AG.EMP.TATUAPE                          201209110000000000070230000000000070230000000000000000000000000000000000000000000000055ISS/TFE/TFA/TLIF                        REFERENCIA             000008200140   085965777000000001                                                                                                                   00000000000000000000000000000000000000000  000000000000                                                                                                                                                                                                           00204C                                                        62        1                                         I00000000000184555379395557777997747753767 000005
100099602043799295000110002612012091100604379929500012012091100004I816300000006505000055201209110200000820013602012091100000000000650533936070500202568S000OK                                                                              303393AG.EMP.TATUAPE                          201209110000000000065050000000000065050000000000000000000000000000000000000000000000055ISS/TFE/TFA/TLIF                        REFERENCIA             000008200136   085965776000000001                                                                                                                   00000000000000000000000000000000000000000  000000000000                                                                                                                                                                                                           00204C                                                        62        1                                         I00000000000184633157173335555775545531585 000006
100099602043799295000110002612012091100604379929500012012091100003I816500000005000000055201209110200000819996692012091100000000000500033936070500202568S000OK                                                                              303393AG.EMP.TATUAPE                          201209110000000000050000000000000050000000000000000000000000000000000000000000000000055ISS/TFE/TFA/TLIF                        REFERENCIA             000008199966   085965775000000001                                                                                                                   00000000000000000000000000000000000000000  000000000000                                                                                                                                                                                                           00204C                                                        62        1                                         I00000000000184711235251113333553343312303 000007
100099602043799295000110002612012091100604379929500012012091100002I816500000002543000055201209110200000820027652012091100000000000254333936070500202568S000OK                                                                              303393AG.EMP.TATUAPE                          201209110000000000025430000000000025430000000000000000000000000000000000000000000000055ISS/TFE/TFA/TLIF                        REFERENCIA             000008200276   085965774000000001                                                                                                                   00000000000000000000000000000000000000000  000000000000                                                                                                                                                                                                           00204C                                                        62        1                                         I00000000000184822413432221111331141124191 000008
100099602043799295000110002612012091100604379929500012012091100001I816800000002222000055201209110200000819996342012091100000000000222233936070500202568S000OK                                                                              303393AG.EMP.TATUAPE                          201209110000000000022220000000000022220000000000000000000000000000000000000000000000055ISS/TFE/TFA/TLIF                        REFERENCIA             000008199963   085965773000000001                                                                                                                   00000000000000000000000000000000000000000  000000000000                                                                                                                                                                                                           00204C                                                        62        1                                         I00000000000184944621614442222112242246272 000009
100099602043799295000110002612012091100604379929500012012091100011I816200000021652000033505536600834213260180472012091100000000002165233936070500202568S000OK                                                                              103393AG.EMP.TATUAPE                          201209110000000000216520000000000216520000000000000000000000000000000000000000000000033IPTU-DEMAIS PARCELAS                    N.CONTRIBUINTE         05536600834    085965783201208011                                                                                                                   00000000000000000000000000000000000000000  000000000000                                                                                                                                                                                                           00204C                                                        62        1                                         I00000000000185021444244222117266214422246 000010
100099602043799295000110002612012091100604379929500012012091100010I816300000021651000033505536600842213260180472012091100000000002165133936070500202568S000OK                                                                              103393AG.EMP.TATUAPE                          201209110000000000216510000000000216510000000000000000000000000000000000000000000000033IPTU-DEMAIS PARCELAS                    N.CONTRIBUINTE         05536600842    085965782201208011                                                                                                                   00000000000000000000000000000000000000000  000000000000                                                                                                                                                                                                           00204C                                                        62        1                                         I00000000000185142666464444225488426644468 000011
100099602043799295000110002612012091100604379929500012012091100007I816300000013510000033505536600303213260180472012091100000000001351033936070500202568S000OK                                                                              103393AG.EMP.TATUAPE                          201209110000000000135100000000000135100000000000000000000000000000000000000000000000033IPTU-DEMAIS PARCELAS                    N.CONTRIBUINTE         05536600303    085965779201208011                                                                                                                   00000000000000000000000000000000000000000  000000000000                                                                                                                                                                                                           00204C                                                        62        1                                         I00000000000185299708789990000880040097020 000012
100099602043799295000110002612012091100604379929500012012091100012I816700000046964000033505536600151213260180472012091100000000004696433936070500202568S000OK                                                                              103393AG.EMP.TATUAPE                          201209110000000000469640000000000469640000000000000000000000000000000000000000000000033IPTU-DEMAIS PARCELAS                    N.CONTRIBUINTE         05536600151    085965784201208011                                                                                                                   00000000000000000000000000000000000000000  000000000000                                                                                                                                                                                                           00204C                                                        62        1                                         I00000000000185313222124111339144132211124 000013
900099602043799295000110000012012091100001400000000000166195                                                                                                                                                                                                                                                                                                                                                                                                                                                                                                                                                                                                                                                                                                                                                                                                                                                                       0000000000                                                                                     000014
