00009960204379929500011000001201209132ALTAMIRA INDUSTRIA METALURGICA LTDA     318051200                                                                                                                                                                                                                                                                                                                                                                                                                                                                                                                                                                                                                                                                                                                                                                                                                                            0000000000                                                                                     000001
100099602043799295000110002622012091300604379929500012012091300001I858100000001230017912091454805484379929500012012091300000000000123033936070500202568S000OK                                                                              303393AG.EMP.TATUAPE                          201209140000000000012300000000000012300000000000000000000000000000000000000000000000000FGTS                                    IDENTIF. EMPRESA       437992950001   086534797000000001                                                                                                                   00000000000000000000000000000000000000000  000000000000                                                                                                                                                                                                           00204C                                                        62        1                                         I00000000000185484621614482222112242246272 000002
900099602043799295000110000012012091300000300000000000001230                                                                                                                                                                                                                                                                                                                                                                                                                                                                                                                                                                                                                                                                                                                                                                                                                                                                       0000000000                                                                                     000003
