00009960204379929500011000001201211132ALTAMIRA INDUSTRIA METALURGICA LTDA     317051800                                                                                                                                                                                                                                                                                                                                                                                                                                                                                                                                                                                                                                                                                                                                                                                                                                            0000000000                                                                                     000001
100099602043799295000110002792012111300604379929500012012111300001I848900000080839008901398499999962856160717102012111300000000008083933936070500202568S000OK                                                                              203393AG.EMP.TATUAPE                          000101010000000000808390000000000808390000000000000000000000000000000000000000000000000TELEFONE                                REFERENCIA             013984999999628002066107000000001                                                                                                                   00000000000000000000000000000000000000000  000000000000                                                                                                                                                                                                           00204C                                                        62        1                                         I00000000000195484644644482222112242246472 000002
900099602043799295000110000012012111300000300000000000080839                                                                                                                                                                                                                                                                                                                                                                                                                                                                                                                                                                                                                                                                                                                                                                                                                                                                       0000000000                                                                                     000003
