00009960204379929500011000001201212172ALTAMIRA INDUSTRIA METALURGICA LTDA     318112700                                                                                                                                                                                                                                                                                                                                                                                                                                                                                                                                                                                                                                                                                                                                                                                                                                            0000000000                                                                                     000001
100099602043799295000110002872012121700604379929500012012121700001I848800000058332016220121215945053254001111222012121700000000005833233936070500202568S000OK                                                                              203393AG.EMP.TATUAPE                          000101010000000000583320000000000583320000000000000000000000000000000000000000000000000TELEFONE                                NUMERO DO CLIENTE      32540          010970247000000001                                                                                                                   00000000000000000000000000000000000000000  000000000000                                                                                                                                                                                                           00204C                                                        62        1                                         I00000000000199654646664452222112242246472 000002
900099602043799295000110000012012121700000300000000000058332                                                                                                                                                                                                                                                                                                                                                                                                                                                                                                                                                                                                                                                                                                                                                                                                                                                                       0000000000                                                                                     000003
