00009960204379929500011000001201207182ALTAMIRA INDUSTRIA METALURGICA LTDA     316082000                                                                                                                                                                                                                                                                                                                                                                                                                                                                                                                                                                                                                                                                                                                                                                                                                                            0000000000                                                                                     000001
100099602043799295000110002462012071800604379929500012012071800002I848100000568903008929886399999984425624716322012071800000000056890333936070500202568S000OK                                                                              203393AG.EMP.TATUAPE                          000101010000000005689030000000005689030000000000000000000000000000000000000000000000000TELEFONE                                REFERENCIA             298863999999844072418686000000001                                                                                                                   00000000000000000000000000000000000000000  000000000000                                                                                                                                                                                                           00204C                                                        62        1                                         I00000000000172752417472251111331141124191 000002
100099602043799295000110002462012071800604379929500012012071800001I846200000007076102911000229528550071201207182012071800000000000707633936070500202568S000OK                                                                              203393AG.EMP.TATUAPE                          000101010000000000070760000000000070760000000000000000000000000000000000000000000000000TELEFONE                                REFERENCIA             22952855       072418685000000001                                                                                                                   00000000000000000000000000000000000000000  000000000000                                                                                                                                                                                                           00204C                                                        62        1                                         I00000000000172834625654432222112242246272 000003
900099602043799295000110000012012071800000400000000000575979                                                                                                                                                                                                                                                                                                                                                                                                                                                                                                                                                                                                                                                                                                                                                                                                                                                                       0000000000                                                                                     000004
