00009960204379929500011000001201209192ALTAMIRA INDUSTRIA METALURGICA LTDA     318043900                                                                                                                                                                                                                                                                                                                                                                                                                                                                                                                                                                                                                                                                                                                                                                                                                                            0000000000                                                                                     000001
100099602043799295000110002632012091900604379929500012012091900001I846000000007076102911000229528550091231209182012091900000000000707633936070500202568S000OK                                                                              203393AG.EMP.TATUAPE                          000101010000000000070760000000000070760000000000000000000000000000000000000000000000000TELEFONE                                REFERENCIA             22952855       087911156000000001                                                                                                                   00000000000000000000000000000000000000000  000000000000                                                                                                                                                                                                           00204C                                                        62        1                                         I00000000000185514621614412222112242246272 000002
900099602043799295000110000012012091900000300000000000007076                                                                                                                                                                                                                                                                                                                                                                                                                                                                                                                                                                                                                                                                                                                                                                                                                                                                       0000000000                                                                                     000003
