00009960204379929500011000001201209242ALTAMIRA INDUSTRIA METALURGICA LTDA     318051700                                                                                                                                                                                                                                                                                                                                                                                                                                                                                                                                                                                                                                                                                                                                                                                                                                            0000000000                                                                                     000001
100099602043799295000110002652012092400604379929500012012092400002I826900000207289009713922013422991912420120822012092400000000020728933936070500202568S000OK                                                                              203393AG.EMP.TATUAPE                          000101010000000002072890000000002072890000000000000000000000000000000000000000000000004AGUA                                    RGI                    01342299       088991942000000001                                                                                                                   00000000000000000000000000000000000000000  000000000000                                                                                                                                                                                                           00204C                                                        62        1                                         I00000000000187682413434481111331141124191 000002
100099602043799295000110002652012092400604379929500012012092400001I826100000137705009713922013423181626443120822012092400000000013770533936070500202568S000OK                                                                              203393AG.EMP.TATUAPE                          000101010000000001377050000000001377050000000000000000000000000000000000000000000000004AGUA                                    RGI                    01342318       088991941000000001                                                                                                                   00000000000000000000000000000000000000000  000000000000                                                                                                                                                                                                           00204C                                                        62        1                                         I00000000000187704621616602222112242246272 000003
900099602043799295000110000012012092400000400000000000344994                                                                                                                                                                                                                                                                                                                                                                                                                                                                                                                                                                                                                                                                                                                                                                                                                                                                       0000000000                                                                                     000004
