00009960204379929500011000001201210252ALTAMIRA INDUSTRIA METALURGICA LTDA     318050600                                                                                                                                                                                                                                                                                                                                                                                                                                                                                                                                                                                                                                                                                                                                                                                                                                            0000000000                                                                                     000001
100099602043799295000110002732012102500604379929500012012102500001I826600000053642009713932013423181311408120922012102500000000005364233936070500202568S000OK                                                                              203393AG.EMP.TATUAPE                          000101010000000000536420000000000536420000000000000000000000000000000000000000000000004AGUA                                    RGI                    01342318       097131987000000001                                                                                                                   00000000000000000000000000000000000000000  000000000000                                                                                                                                                                                                           00204C                                                        62        1                                         I00000000000192294642626692222112242246472 000002
100099602043799295000110002732012102500604379929500012012102500003I826000000132937009713932013422991616404120922012102500000000013293733936070500202568S000OK                                                                              203393AG.EMP.TATUAPE                          000101010000000001329370000000001329370000000000000000000000000000000000000000000000004AGUA                                    RGI                    01342299       097131989000000001                                                                                                                   00000000000000000000000000000000000000000  000000000000                                                                                                                                                                                                           00204C                                                        62        1                                         I00000000000192381213232283333553343312103 000003
100099602043799295000110002732012102500604379929500012012102500002I848200000122294008905401499999971371427716792012102500000000012229433936070500202568S000OK                                                                              203393AG.EMP.TATUAPE                          000101010000000001222940000000001222940000000000000000000000000000000000000000000000000TELEFONE                                REFERENCIA             054014999999713097131988000000001                                                                                                                   00000000000000000000000000000000000000000  000000000000                                                                                                                                                                                                           00204C                                                        62        1                                         I00000000000192402421414401111331141124291 000004
100099602043799295000110002732012102500604379929500012012102500004I848200000745211008918000799999966911209716932012102500000000074521133936070500202568S000OK                                                                              203393AG.EMP.TATUAPE                          000101010000000007452110000000007452110000000000000000000000000000000000000000000000000TELEFONE                                REFERENCIA             180007999999669097131990000000001                                                                                                                   00000000000000000000000000000000000000000  000000000000                                                                                                                                                                                                           00204C                                                        62        1                                         I00000000000192563135151165555775545531385 000005
900099602043799295000110000012012102500000600000000001054084                                                                                                                                                                                                                                                                                                                                                                                                                                                                                                                                                                                                                                                                                                                                                                                                                                                                       0000000000                                                                                     000006
