00009960204379929500011000001201212262ALTAMIRA INDUSTRIA METALURGICA LTDA     317053700                                                                                                                                                                                                                                                                                                                                                                                                                                                                                                                                                                                                                                                                                                                                                                                                                                            0000000000                                                                                     000001
100099602043799295000110004002012122600604379929500012012122600002I858400000113972023920121227217354788237537722012122600000000011397233936070500202568S000OK                                                                              303393AG.EMP.TATUAPE                          201212270000000001139720000000001139720000000000000000000000000000000000000000000000000FGTS-GRRF                               IDENTIFICADOR          735478823753772013116410000000001                                                                                                                   00000000000000000000000000000000000000000  000000000000                                                                                                                                                                                                           00204C                                                        62        1                                         I00000000000203192424444491111331141124291 000002
100099602043799295000110004002012122600604379929500012012122600001I848700000072251008920442799999935936613517982012122600000000007225133936070500202568S000OK                                                                              203393AG.EMP.TATUAPE                          000101010000000000722510000000000722510000000000000000000000000000000000000000000000000TELEFONE                                REFERENCIA             204427999999359013116409000000001                                                                                                                   00000000000000000000000000000000000000000  000000000000                                                                                                                                                                                                           00204C                                                        62        1                                         I00000000000203274646666672222112242246472 000003
900099602043799295000110000012012122600000400000000000186223                                                                                                                                                                                                                                                                                                                                                                                                                                                                                                                                                                                                                                                                                                                                                                                                                                                                       0000000000                                                                                     000004
