00009960204379929500011000001201210292ALTAMIRA INDUSTRIA METALURGICA LTDA     318051000                                                                                                                                                                                                                                                                                                                                                                                                                                                                                                                                                                                                                                                                                                                                                                                                                                            0000000000                                                                                     000001
100099602043799295000110002742012102900604379929500012012102900001I848500000055767008920680599999954566212017372012102900000000005576733936070500202568S000OK                                                                              203393AG.EMP.TATUAPE                          000101010000000000557670000000000557670000000000000000000000000000000000000000000000000TELEFONE                                REFERENCIA             206805999999545097676448000000001                                                                                                                   00000000000000000000000000000000000000000  000000000000                                                                                                                                                                                                           00204C                                                        62        1                                         I00000000000192614642626612222112242246472 000002
900099602043799295000110000012012102900000300000000000055767                                                                                                                                                                                                                                                                                                                                                                                                                                                                                                                                                                                                                                                                                                                                                                                                                                                                       0000000000                                                                                     000003
