00009960204379929500011000001201211292ALTAMIRA INDUSTRIA METALURGICA LTDA     318060700                                                                                                                                                                                                                                                                                                                                                                                                                                                                                                                                                                                                                                                                                                                                                                                                                                            0000000000                                                                                     000001
100099602043799295000110002812012112900604379929500012012112900002I826800000164285009713942013423181012494121022012112900000000016428533936070500202568S000OK                                                                              203393AG.EMP.TATUAPE                          000101010000000001642850000000001642850000000000000000000000000000000000000000000000004AGUA                                    RGI                    01342318       005600032000000001                                                                                                                   00000000000000000000000000000000000000000  000000000000                                                                                                                                                                                                           00204C                                                        62        1                                         I00000000000197232422424431111331141124291 000002
100099602043799295000110002812012112900604379929500012012112900001I826800000100892009713942013422991317407121022012112900000000010089233936070500202568S000OK                                                                              203393AG.EMP.TATUAPE                          000101010000000001008920000000001008920000000000000000000000000000000000000000000000004AGUA                                    RGI                    01342299       005600031000000001                                                                                                                   00000000000000000000000000000000000000000  000000000000                                                                                                                                                                                                           00204C                                                        62        1                                         I00000000000197314644646612222112242246472 000003
900099602043799295000110000012012112900000400000000000265177                                                                                                                                                                                                                                                                                                                                                                                                                                                                                                                                                                                                                                                                                                                                                                                                                                                                       0000000000                                                                                     000004
